{
  "_format": "hh-sol-artifact-1",
  "contractName": "Bridge",
  "sourceName": "contracts/Bridge.sol",
  "abi": [
    {
      "anonymous": false,
      "inputs": [
        {
          "indexed": false,
          "internalType": "uint8",
          "name": "leafType",
          "type": "uint8"
        },
        {
          "indexed": false,
          "internalType": "uint32",
          "name": "originNetwork",
          "type": "uint32"
        },
        {
          "indexed": false,
          "internalType": "address",
          "name": "originAddress",
          "type": "address"
        },
        {
          "indexed": false,
          "internalType": "uint32",
          "name": "destinationNetwork",
          "type": "uint32"
        },
        {
          "indexed": false,
          "internalType": "address",
          "name": "destinationAddress",
          "type": "address"
        },
        {
          "indexed": false,
          "internalType": "uint256",
          "name": "amount",
          "type": "uint256"
        },
        {
          "indexed": false,
          "internalType": "bytes",
          "name": "metadata",
          "type": "bytes"
        },
        {
          "indexed": false,
          "internalType": "uint32",
          "name": "depositCount",
          "type": "uint32"
        }
      ],
      "name": "BridgeEvent",
      "type": "event"
    },
    {
      "anonymous": false,
      "inputs": [
        {
          "indexed": false,
          "internalType": "uint32",
          "name": "index",
          "type": "uint32"
        },
        {
          "indexed": false,
          "internalType": "uint32",
          "name": "originNetwork",
          "type": "uint32"
        },
        {
          "indexed": false,
          "internalType": "address",
          "name": "originAddress",
          "type": "address"
        },
        {
          "indexed": false,
          "internalType": "address",
          "name": "destinationAddress",
          "type": "address"
        },
        {
          "indexed": false,
          "internalType": "uint256",
          "name": "amount",
          "type": "uint256"
        }
      ],
      "name": "ClaimEvent",
      "type": "event"
    },
    {
      "anonymous": false,
      "inputs": [],
      "name": "EmergencyStateActivated",
      "type": "event"
    },
    {
      "anonymous": false,
      "inputs": [],
      "name": "EmergencyStateDeactivated",
      "type": "event"
    },
    {
      "anonymous": false,
      "inputs": [
        {
          "indexed": false,
          "internalType": "uint8",
          "name": "version",
          "type": "uint8"
        }
      ],
      "name": "Initialized",
      "type": "event"
    },
    {
      "anonymous": false,
      "inputs": [
        {
          "indexed": false,
          "internalType": "uint32",
          "name": "originNetwork",
          "type": "uint32"
        },
        {
          "indexed": false,
          "internalType": "address",
          "name": "originTokenAddress",
          "type": "address"
        },
        {
          "indexed": false,
          "internalType": "address",
          "name": "wrappedTokenAddress",
          "type": "address"
        }
      ],
      "name": "NewWrappedToken",
      "type": "event"
    },
    {
      "anonymous": false,
      "inputs": [
        {
          "indexed": true,
          "internalType": "address",
          "name": "previousOwner",
          "type": "address"
        },
        {
          "indexed": true,
          "internalType": "address",
          "name": "newOwner",
          "type": "address"
        }
      ],
      "name": "OwnershipTransferred",
      "type": "event"
    },
    {
      "anonymous": false,
      "inputs": [
        {
          "indexed": false,
          "internalType": "uint256",
          "name": "newClaimTimeout",
          "type": "uint256"
        }
      ],
      "name": "SetClaimTimeout",
      "type": "event"
    },
    {
      "inputs": [],
      "name": "LEAF_TYPE_ASSET",
      "outputs": [
        {
          "internalType": "uint8",
          "name": "",
          "type": "uint8"
        }
      ],
      "stateMutability": "view",
      "type": "function"
    },
    {
      "inputs": [],
      "name": "LEAF_TYPE_MESSAGE",
      "outputs": [
        {
          "internalType": "uint8",
          "name": "",
          "type": "uint8"
        }
      ],
      "stateMutability": "view",
      "type": "function"
    },
    {
      "inputs": [],
      "name": "MAINNET_NETWORK_ID",
      "outputs": [
        {
          "internalType": "uint32",
          "name": "",
          "type": "uint32"
        }
      ],
      "stateMutability": "view",
      "type": "function"
    },
    {
      "inputs": [],
      "name": "activateEmergencyState",
      "outputs": [],
      "stateMutability": "nonpayable",
      "type": "function"
    },
    {
      "inputs": [
        {
          "internalType": "address",
          "name": "token",
          "type": "address"
        },
        {
          "internalType": "uint32",
          "name": "destinationNetwork",
          "type": "uint32"
        },
        {
          "internalType": "address",
          "name": "destinationAddress",
          "type": "address"
        },
        {
          "internalType": "uint256",
          "name": "amount",
          "type": "uint256"
        },
        {
          "internalType": "bytes",
          "name": "permitData",
          "type": "bytes"
        }
      ],
      "name": "bridgeAsset",
      "outputs": [],
      "stateMutability": "payable",
      "type": "function"
    },
    {
      "inputs": [
        {
          "internalType": "uint32",
          "name": "destinationNetwork",
          "type": "uint32"
        },
        {
          "internalType": "address",
          "name": "destinationAddress",
          "type": "address"
        },
        {
          "internalType": "bytes",
          "name": "metadata",
          "type": "bytes"
        }
      ],
      "name": "bridgeMessage",
      "outputs": [],
      "stateMutability": "payable",
      "type": "function"
    },
    {
      "inputs": [
        {
          "internalType": "bytes32[]",
          "name": "smtProof",
          "type": "bytes32[]"
        },
        {
          "internalType": "uint32",
          "name": "index",
          "type": "uint32"
        },
        {
          "internalType": "bytes32",
          "name": "mainnetExitRoot",
          "type": "bytes32"
        },
        {
          "internalType": "bytes32",
          "name": "rollupExitRoot",
          "type": "bytes32"
        },
        {
          "internalType": "uint32",
          "name": "originNetwork",
          "type": "uint32"
        },
        {
          "internalType": "address",
          "name": "originTokenAddress",
          "type": "address"
        },
        {
          "internalType": "uint32",
          "name": "destinationNetwork",
          "type": "uint32"
        },
        {
          "internalType": "address",
          "name": "destinationAddress",
          "type": "address"
        },
        {
          "internalType": "uint256",
          "name": "amount",
          "type": "uint256"
        },
        {
          "internalType": "bytes",
          "name": "metadata",
          "type": "bytes"
        }
      ],
      "name": "claimAsset",
      "outputs": [],
      "stateMutability": "nonpayable",
      "type": "function"
    },
    {
      "inputs": [
        {
          "internalType": "bytes32[]",
          "name": "smtProof",
          "type": "bytes32[]"
        },
        {
          "internalType": "uint32",
          "name": "index",
          "type": "uint32"
        },
        {
          "internalType": "bytes32",
          "name": "mainnetExitRoot",
          "type": "bytes32"
        },
        {
          "internalType": "bytes32",
          "name": "rollupExitRoot",
          "type": "bytes32"
        },
        {
          "internalType": "uint32",
          "name": "originNetwork",
          "type": "uint32"
        },
        {
          "internalType": "address",
          "name": "originAddress",
          "type": "address"
        },
        {
          "internalType": "uint32",
          "name": "destinationNetwork",
          "type": "uint32"
        },
        {
          "internalType": "address",
          "name": "destinationAddress",
          "type": "address"
        },
        {
          "internalType": "uint256",
          "name": "amount",
          "type": "uint256"
        },
        {
          "internalType": "bytes",
          "name": "metadata",
          "type": "bytes"
        }
      ],
      "name": "claimMessage",
      "outputs": [],
      "stateMutability": "nonpayable",
      "type": "function"
    },
    {
      "inputs": [],
      "name": "claimTimeout",
      "outputs": [
        {
          "internalType": "uint256",
          "name": "",
          "type": "uint256"
        }
      ],
      "stateMutability": "view",
      "type": "function"
    },
    {
      "inputs": [
        {
          "internalType": "uint256",
          "name": "",
          "type": "uint256"
        }
      ],
      "name": "claimedBitMap",
      "outputs": [
        {
          "internalType": "uint256",
          "name": "",
          "type": "uint256"
        }
      ],
      "stateMutability": "view",
      "type": "function"
    },
    {
      "inputs": [],
      "name": "deactivateEmergencyState",
      "outputs": [],
      "stateMutability": "nonpayable",
      "type": "function"
    },
    {
      "inputs": [],
      "name": "depositCount",
      "outputs": [
        {
          "internalType": "uint256",
          "name": "",
          "type": "uint256"
        }
      ],
      "stateMutability": "view",
      "type": "function"
    },
    {
      "inputs": [],
      "name": "getDepositRoot",
      "outputs": [
        {
          "internalType": "bytes32",
          "name": "",
          "type": "bytes32"
        }
      ],
      "stateMutability": "view",
      "type": "function"
    },
    {
      "inputs": [
        {
          "internalType": "uint8",
          "name": "leafType",
          "type": "uint8"
        },
        {
          "internalType": "uint32",
          "name": "originNetwork",
          "type": "uint32"
        },
        {
          "internalType": "address",
          "name": "originAddress",
          "type": "address"
        },
        {
          "internalType": "uint32",
          "name": "destinationNetwork",
          "type": "uint32"
        },
        {
          "internalType": "address",
          "name": "destinationAddress",
          "type": "address"
        },
        {
          "internalType": "uint256",
          "name": "amount",
          "type": "uint256"
        },
        {
          "internalType": "bytes32",
          "name": "metadataHash",
          "type": "bytes32"
        }
      ],
      "name": "getLeafValue",
      "outputs": [
        {
          "internalType": "bytes32",
          "name": "",
          "type": "bytes32"
        }
      ],
      "stateMutability": "pure",
      "type": "function"
    },
    {
      "inputs": [
        {
          "internalType": "uint32",
          "name": "originNetwork",
          "type": "uint32"
        },
        {
          "internalType": "address",
          "name": "originTokenAddress",
          "type": "address"
        }
      ],
      "name": "getTokenWrappedAddress",
      "outputs": [
        {
          "internalType": "address",
          "name": "",
          "type": "address"
        }
      ],
      "stateMutability": "view",
      "type": "function"
    },
    {
      "inputs": [],
      "name": "globalExitRootManager",
      "outputs": [
        {
          "internalType": "contract IGlobalExitRootManager",
          "name": "",
          "type": "address"
        }
      ],
      "stateMutability": "view",
      "type": "function"
    },
    {
      "inputs": [
        {
          "internalType": "uint32",
          "name": "_networkID",
          "type": "uint32"
        },
        {
          "internalType": "contract IGlobalExitRootManager",
          "name": "_globalExitRootManager",
          "type": "address"
        },
        {
          "internalType": "address",
          "name": "_poeAddress",
          "type": "address"
        },
        {
          "internalType": "uint256",
          "name": "_claimTimeout",
          "type": "uint256"
        }
      ],
      "name": "initialize",
      "outputs": [],
      "stateMutability": "nonpayable",
      "type": "function"
    },
    {
      "inputs": [
        {
          "internalType": "uint256",
          "name": "index",
          "type": "uint256"
        }
      ],
      "name": "isClaimed",
      "outputs": [
        {
          "internalType": "bool",
          "name": "",
          "type": "bool"
        }
      ],
      "stateMutability": "view",
      "type": "function"
    },
    {
      "inputs": [],
      "name": "isEmergencyState",
      "outputs": [
        {
          "internalType": "bool",
          "name": "",
          "type": "bool"
        }
      ],
      "stateMutability": "view",
      "type": "function"
    },
    {
      "inputs": [],
      "name": "networkID",
      "outputs": [
        {
          "internalType": "uint32",
          "name": "",
          "type": "uint32"
        }
      ],
      "stateMutability": "view",
      "type": "function"
    },
    {
      "inputs": [],
      "name": "owner",
      "outputs": [
        {
          "internalType": "address",
          "name": "",
          "type": "address"
        }
      ],
      "stateMutability": "view",
      "type": "function"
    },
    {
      "inputs": [],
      "name": "poeAddress",
      "outputs": [
        {
          "internalType": "address",
          "name": "",
          "type": "address"
        }
      ],
      "stateMutability": "view",
      "type": "function"
    },
    {
      "inputs": [
        {
          "internalType": "uint32",
          "name": "originNetwork",
          "type": "uint32"
        },
        {
          "internalType": "address",
          "name": "originTokenAddress",
          "type": "address"
        },
        {
          "internalType": "string",
          "name": "name",
          "type": "string"
        },
        {
          "internalType": "string",
          "name": "symbol",
          "type": "string"
        },
        {
          "internalType": "uint8",
          "name": "decimals",
          "type": "uint8"
        }
      ],
      "name": "precalculatedWrapperAddress",
      "outputs": [
        {
          "internalType": "address",
          "name": "",
          "type": "address"
        }
      ],
      "stateMutability": "view",
      "type": "function"
    },
    {
      "inputs": [],
      "name": "renounceOwnership",
      "outputs": [],
      "stateMutability": "nonpayable",
      "type": "function"
    },
    {
      "inputs": [
        {
          "internalType": "uint256",
          "name": "newClaimTimeout",
          "type": "uint256"
        }
      ],
      "name": "setClaimTimeout",
      "outputs": [],
      "stateMutability": "nonpayable",
      "type": "function"
    },
    {
      "inputs": [
        {
          "internalType": "bytes32",
          "name": "",
          "type": "bytes32"
        }
      ],
      "name": "tokenInfoToWrappedToken",
      "outputs": [
        {
          "internalType": "address",
          "name": "",
          "type": "address"
        }
      ],
      "stateMutability": "view",
      "type": "function"
    },
    {
      "inputs": [
        {
          "internalType": "address",
          "name": "newOwner",
          "type": "address"
        }
      ],
      "name": "transferOwnership",
      "outputs": [],
      "stateMutability": "nonpayable",
      "type": "function"
    },
    {
      "inputs": [
        {
          "internalType": "bytes32",
          "name": "leafHash",
          "type": "bytes32"
        },
        {
          "internalType": "bytes32[]",
          "name": "smtProof",
          "type": "bytes32[]"
        },
        {
          "internalType": "uint64",
          "name": "index",
          "type": "uint64"
        },
        {
          "internalType": "bytes32",
          "name": "root",
          "type": "bytes32"
        }
      ],
      "name": "verifyMerkleProof",
      "outputs": [
        {
          "internalType": "bool",
          "name": "",
          "type": "bool"
        }
      ],
      "stateMutability": "pure",
      "type": "function"
    },
    {
      "inputs": [
        {
          "internalType": "address",
          "name": "",
          "type": "address"
        }
      ],
      "name": "wrappedTokenToTokenInfo",
      "outputs": [
        {
          "internalType": "uint32",
          "name": "originNetwork",
          "type": "uint32"
        },
        {
          "internalType": "address",
          "name": "originTokenAddress",
          "type": "address"
        }
      ],
      "stateMutability": "view",
      "type": "function"
    }
  ],
  "bytecode": "0x608060405234801561001057600080fd5b5061595a806100206000396000f3fe608060405260043610620001e75760003560e01c806381b1c174116200010b578063d02103ca11620000a1578063ed6be5c9116200006c578063ed6be5c9146200067a578063ee25560b1462000691578063f2fde38b14620006c2578063ff634ed714620006e757600080fd5b8063d02103ca1462000604578063d96a15f71462000626578063dbc16976146200063d578063e7a5b4ea146200065557600080fd5b80639e34070f11620000e25780639e34070f146200055b578063a08e8a081462000580578063aaa13cc214620005aa578063bab161bf14620005cf57600080fd5b806381b1c17414620004df5780638da5cb5b14620005195780638f611519146200053957600080fd5b80633ae05047116200018157806346385549116200015857806346385549146200045857806365559540146200047d578063715018a614620004a25780637b6323c114620004ba57600080fd5b80633ae05047146200033a5780633da8168214620003525780633e197043146200037757600080fd5b80632072f6c511620001c25780632072f6c5146200025d57806322e95f2c14620002755780632dfdf0b514620002b3578063318aee3d14620002cb57600080fd5b80630871e97114620001ec5780630e1da6c3146200020557806315064c961462000230575b600080fd5b62000203620001fd36600462003256565b620006fe565b005b3480156200021257600080fd5b506200021d608d5481565b6040519081526020015b60405180910390f35b3480156200023d57600080fd5b506022546200024c9060ff1681565b604051901515815260200162000227565b3480156200026a57600080fd5b506200020362000ca8565b3480156200028257600080fd5b506200029a62000294366004620032e3565b62000d5c565b6040516001600160a01b03909116815260200162000227565b348015620002c057600080fd5b506200021d60215481565b348015620002d857600080fd5b5062000315620002ea3660046200331f565b608a6020526000908152604090205463ffffffff81169064010000000090046001600160a01b031682565b6040805163ffffffff90931683526001600160a01b0390911660208301520162000227565b3480156200034757600080fd5b506200021d62000ddf565b3480156200035f57600080fd5b506200024c6200037136600462003427565b62000ed2565b3480156200038457600080fd5b506200021d62000396366004620034a5565b6040517fff0000000000000000000000000000000000000000000000000000000000000060f889901b1660208201527fffffffff0000000000000000000000000000000000000000000000000000000060e088811b821660218401526bffffffffffffffffffffffff19606089811b821660258601529188901b909216603984015285901b16603d8201526051810183905260718101829052600090609101604051602081830303815290604052805190602001209050979650505050505050565b3480156200046557600080fd5b506200020362000477366004620035b6565b62000fd4565b3480156200048a57600080fd5b50620002036200049c3660046200369d565b6200124c565b348015620004af57600080fd5b506200020362001450565b348015620004c757600080fd5b5062000203620004d9366004620035b6565b62001466565b348015620004ec57600080fd5b506200029a620004fe366004620036f3565b6089602052600090815260409020546001600160a01b031681565b3480156200052657600080fd5b506055546001600160a01b03166200029a565b3480156200054657600080fd5b50608c546200029a906001600160a01b031681565b3480156200056857600080fd5b506200024c6200057a366004620036f3565b62001a19565b3480156200058d57600080fd5b5062000597600081565b60405160ff909116815260200162000227565b348015620005b757600080fd5b506200029a620005c93660046200370d565b62001a5e565b348015620005dc57600080fd5b50608754620005ee9063ffffffff1681565b60405163ffffffff909116815260200162000227565b3480156200061157600080fd5b50608b546200029a906001600160a01b031681565b6200020362000637366004620037c1565b62001bca565b3480156200064a57600080fd5b506200020362001e7e565b3480156200066257600080fd5b506200020362000674366004620036f3565b62001f30565b3480156200068757600080fd5b50620005ee600081565b3480156200069e57600080fd5b506200021d620006b0366004620036f3565b60886020526000908152604090205481565b348015620006cf57600080fd5b5062000203620006e13660046200331f565b62001f75565b348015620006f457600080fd5b5062000597600181565b60225460ff1615620007a35760405162461bcd60e51b815260206004820152604260248201527f456d657267656e63794d616e616765723a3a69664e6f74456d657267656e637960448201527f53746174653a206f6e6c79206966206e6f7420656d657267656e63792073746160648201527f7465000000000000000000000000000000000000000000000000000000000000608482015260a4015b60405180910390fd5b60875463ffffffff90811690861603620008265760405162461bcd60e51b815260206004820152602a60248201527f4272696467653a3a6272696467653a2044455354494e4154494f4e5f43414e5460448201527f5f42455f495453454c460000000000000000000000000000000000000000000060648201526084016200079a565b60008060606001600160a01b038916620008bb57853414620008b15760405162461bcd60e51b815260206004820152602f60248201527f4272696467653a3a6272696467653a20414d4f554e545f444f45535f4e4f545f60448201527f4d415443485f4d53475f56414c5545000000000000000000000000000000000060648201526084016200079a565b6000915062000b45565b6001600160a01b03808a166000908152608a602090815260409182902082518084019093525463ffffffff8116835264010000000090049092169181018290529015620009a2576040517f9dc29fac000000000000000000000000000000000000000000000000000000008152336004820152602481018890526001600160a01b038b1690639dc29fac906044016020604051808303816000875af115801562000969573d6000803e3d6000fd5b505050506040513d601f19601f820116820180604052508101906200098f919062003838565b5060208101518151909450925062000b43565b8415620009b757620009b78a8888886200200b565b620009ce6001600160a01b038b1633308a62002630565b899350608760009054906101000a900463ffffffff169250896001600160a01b03166306fdde036040518163ffffffff1660e01b8152600401600060405180830381865afa15801562000a25573d6000803e3d6000fd5b505050506040513d6000823e601f3d908101601f1916820160405262000a4f9190810190620038d3565b8a6001600160a01b03166395d89b416040518163ffffffff1660e01b8152600401600060405180830381865afa15801562000a8e573d6000803e3d6000fd5b505050506040513d6000823e601f3d908101601f1916820160405262000ab89190810190620038d3565b8b6001600160a01b031663313ce5676040518163ffffffff1660e01b8152600401602060405180830381865afa15801562000af7573d6000803e3d6000fd5b505050506040513d601f19601f8201168201806040525081019062000b1d91906200390c565b60405160200162000b31939291906200395a565b60405160208183030381529060405291505b505b7f501781209a1f8899323b96b4ef08b168df93e0a90c673d1e4cce39366cb62f9b600083858b8b8b8760215460405162000b8798979695949392919062003997565b60405180910390a18051602080830191909120604080516000818501527fffffffff0000000000000000000000000000000000000000000000000000000060e087811b821660218401526bffffffffffffffffffffffff1960608a811b82166025860152918f901b90921660398401528c901b16603d820152605181018a9052607180820193909352815180820390930183526091019052805191012062000c2f90620026e9565b608b546001600160a01b03166333d6247d62000c4a62000ddf565b6040518263ffffffff1660e01b815260040162000c6991815260200190565b600060405180830381600087803b15801562000c8457600080fd5b505af115801562000c99573d6000803e3d6000fd5b50505050505050505050505050565b608c546001600160a01b0316331462000d505760405162461bcd60e51b815260206004820152604b60248201527f50726f6f664f66456666696369656e63793a3a6f6e6c7950726f6f664f66456660448201527f66696369656e63793a206f6e6c792050726f6f66206f6620456666696369656e60648201527f637920636f6e7472616374000000000000000000000000000000000000000000608482015260a4016200079a565b62000d5a6200284d565b565b6040805160e084901b7fffffffff0000000000000000000000000000000000000000000000000000000016602080830191909152606084901b6bffffffffffffffffffffffff1916602483015282516018818403018152603890920183528151918101919091206000908152608990915220546001600160a01b03165b92915050565b602154600090819081805b602081101562000ec9578260011660010362000e4a576001816020811062000e165762000e1662003a03565b0154604080516020810192909252810185905260600160405160208183030381529060405280519060200120935062000e77565b60408051602081018690529081018390526060016040516020818303038152906040528051906020012093505b62000e8460028462003a90565b6040805160208101859052908101849052909350606001604051602081830303815290604052805190602001209150808062000ec09062003aa7565b91505062000dea565b50919392505050565b60008467ffffffffffffffff8416825b602081101562000fc5578160011660010362000f4f5786818151811062000f0d5762000f0d62003a03565b60200260200101518360405160200162000f31929190918252602082015260400190565b60405160208183030381529060405280519060200120925062000fa1565b8287828151811062000f655762000f6562003a03565b602002602001015160405160200162000f88929190918252602082015260400190565b6040516020818303038152906040528051906020012092505b62000fae60028362003a90565b91508062000fbc8162003aa7565b91505062000ee2565b5050821490505b949350505050565b60225460ff1615620010755760405162461bcd60e51b815260206004820152604260248201527f456d657267656e63794d616e616765723a3a69664e6f74456d657267656e637960448201527f53746174653a206f6e6c79206966206e6f7420656d657267656e63792073746160648201527f7465000000000000000000000000000000000000000000000000000000000000608482015260a4016200079a565b6200108b8a8a8a8a8a8a8a8a8a8a600162002944565b6200109c8963ffffffff1662002cef565b6000836001600160a01b031683878985604051602401620010c09392919062003ae2565b60408051601f198184030181529181526020820180517bffffffffffffffffffffffffffffffffffffffffffffffffffffffff167f1806b5f2000000000000000000000000000000000000000000000000000000001790525162001125919062003b1b565b60006040518083038185875af1925050503d806000811462001164576040519150601f19603f3d011682016040523d82523d6000602084013e62001169565b606091505b5050905080620011e15760405162461bcd60e51b8152602060048201526024808201527f4272696467653a3a636c61696d4d6573736167653a204d4553534147455f464160448201527f494c45440000000000000000000000000000000000000000000000000000000060648201526084016200079a565b6040805163ffffffff8c81168252891660208201526001600160a01b0388811682840152861660608201526080810185905290517f25308c93ceeed162da955b3f7ce3e3f93606579e40fb92029faa9efe275459839181900360a00190a15050505050505050505050565b600054610100900460ff16158080156200126d5750600054600160ff909116105b80620012895750303b15801562001289575060005460ff166001145b620012fd5760405162461bcd60e51b815260206004820152602e60248201527f496e697469616c697a61626c653a20636f6e747261637420697320616c72656160448201527f647920696e697469616c697a656400000000000000000000000000000000000060648201526084016200079a565b600080547fffffffffffffffffffffffffffffffffffffffffffffffffffffffffffffff0016600117905580156200135c57600080547fffffffffffffffffffffffffffffffffffffffffffffffffffffffffffff00ff166101001790555b6087805463ffffffff87167fffffffffffffffffffffffffffffffffffffffffffffffffffffffff00000000909116179055608b80546001600160a01b038087167fffffffffffffffffffffffff000000000000000000000000000000000000000092831617909255608c805492861692909116919091179055608d829055620013e562002d31565b80156200144957600080547fffffffffffffffffffffffffffffffffffffffffffffffffffffffffffff00ff169055604051600181527f7f26b83ff96e1f2b6a682f133852f6798a09c465da95921460cefb38474024989060200160405180910390a15b5050505050565b6200145a62002dbb565b62000d5a600062002e17565b60225460ff1615620015075760405162461bcd60e51b815260206004820152604260248201527f456d657267656e63794d616e616765723a3a69664e6f74456d657267656e637960448201527f53746174653a206f6e6c79206966206e6f7420656d657267656e63792073746160648201527f7465000000000000000000000000000000000000000000000000000000000000608482015260a4016200079a565b6200151d8a8a8a8a8a8a8a8a8a8a600062002944565b6200152e8963ffffffff1662002cef565b6001600160a01b0385166200162d57604080516000808252602082019092526001600160a01b03851690849060405162001569919062003b1b565b60006040518083038185875af1925050503d8060008114620015a8576040519150601f19603f3d011682016040523d82523d6000602084013e620015ad565b606091505b5050905080620016265760405162461bcd60e51b815260206004820152602760248201527f4272696467653a3a636c61696d41737365743a204554485f5452414e5346455260448201527f5f4641494c45440000000000000000000000000000000000000000000000000060648201526084016200079a565b50620019af565b60875463ffffffff908116908716036200165d57620016576001600160a01b038616848462002e81565b620019af565b6040517fffffffff0000000000000000000000000000000000000000000000000000000060e088901b1660208201526bffffffffffffffffffffffff19606087901b16602482015260009060380160408051601f198184030181529181528151602092830120600081815260899093529120549091506001600160a01b0316806200191b57600080600085806020019051810190620016fd919062003b39565b9250925092506000858484846040516200171790620031bf565b62001725939291906200395a565b8190604051809103906000f590508015801562001746573d6000803e3d6000fd5b506040517f40c10f190000000000000000000000000000000000000000000000000000000081526001600160a01b038b81166004830152602482018b9052919250908216906340c10f19906044016020604051808303816000875af1158015620017b4573d6000803e3d6000fd5b505050506040513d601f19601f82011682018060405250810190620017da919062003838565b50806089600088815260200190815260200160002060006101000a8154816001600160a01b0302191690836001600160a01b0316021790555060405180604001604052808d63ffffffff1681526020018c6001600160a01b0316815250608a6000836001600160a01b03166001600160a01b0316815260200190815260200160002060008201518160000160006101000a81548163ffffffff021916908363ffffffff16021790555060208201518160000160046101000a8154816001600160a01b0302191690836001600160a01b031602179055509050507fccd7715648d1f2bb13e158f96b5b6c3aeda555d4cb87112e274a6f28bc571d598c8c83604051620019099392919063ffffffff9390931683526001600160a01b03918216602084015216604082015260600190565b60405180910390a150505050620019ac565b6040517f40c10f190000000000000000000000000000000000000000000000000000000081526001600160a01b038681166004830152602482018690528216906340c10f19906044016020604051808303816000875af115801562001984573d6000803e3d6000fd5b505050506040513d601f19601f82011682018060405250810190620019aa919062003838565b505b50505b6040805163ffffffff8b81168252881660208201526001600160a01b0387811682840152851660608201526080810184905290517f25308c93ceeed162da955b3f7ce3e3f93606579e40fb92029faa9efe275459839181900360a00190a150505050505050505050565b60008062001a2a6101008462003a90565b9050600062001a3c6101008562003bba565b60009283526088602052604090922054600190921b9182169091149392505050565b6040517fffffffff0000000000000000000000000000000000000000000000000000000060e089901b1660208201526bffffffffffffffffffffffff19606088901b1660248201526000908190603801604051602081830303815290604052805190602001209050600060ff60f81b30836040518060200162001ae190620031bf565b601f1982820381018352601f90910116604081905262001b0e908d908d908d908d908d9060200162003bfc565b60408051601f198184030181529082905262001b2e929160200162003c3d565b6040516020818303038152906040528051906020012060405160200162001ba494939291907fff0000000000000000000000000000000000000000000000000000000000000094909416845260609290921b6bffffffffffffffffffffffff191660018401526015830152603582015260550190565b60408051808303601f1901815291905280516020909101209a9950505050505050505050565b60225460ff161562001c6b5760405162461bcd60e51b815260206004820152604260248201527f456d657267656e63794d616e616765723a3a69664e6f74456d657267656e637960448201527f53746174653a206f6e6c79206966206e6f7420656d657267656e63792073746160648201527f7465000000000000000000000000000000000000000000000000000000000000608482015260a4016200079a565b60875463ffffffff9081169084160362001cee5760405162461bcd60e51b815260206004820152602a60248201527f4272696467653a3a6272696467653a2044455354494e4154494f4e5f43414e5460448201527f5f42455f495453454c460000000000000000000000000000000000000000000060648201526084016200079a565b6087546021546040517f501781209a1f8899323b96b4ef08b168df93e0a90c673d1e4cce39366cb62f9b9262001d3b9260019263ffffffff9092169133918991899134918a919062003997565b60405180910390a16087548151602080840191909120604080517f0100000000000000000000000000000000000000000000000000000000000000818501527fffffffff0000000000000000000000000000000000000000000000000000000060e095861b811660218301526bffffffffffffffffffffffff1933606090811b82166025850152968a901b90911660398301529487901b909416603d850152346051850152607180850192909252805180850390920182526091909301909252815191012062001e0b90620026e9565b608b546001600160a01b03166333d6247d62001e2662000ddf565b6040518263ffffffff1660e01b815260040162001e4591815260200190565b600060405180830381600087803b15801562001e6057600080fd5b505af115801562001e75573d6000803e3d6000fd5b50505050505050565b608c546001600160a01b0316331462001f265760405162461bcd60e51b815260206004820152604b60248201527f50726f6f664f66456666696369656e63793a3a6f6e6c7950726f6f664f66456660448201527f66696369656e63793a206f6e6c792050726f6f66206f6620456666696369656e60648201527f637920636f6e7472616374000000000000000000000000000000000000000000608482015260a4016200079a565b62000d5a62002ecc565b62001f3a62002dbb565b608d8190556040518181527f126d6a8888996898896a660f1c9a7a4ef612bd6df82281a13079dd27cc38758d9060200160405180910390a150565b62001f7f62002dbb565b6001600160a01b03811662001ffd5760405162461bcd60e51b815260206004820152602660248201527f4f776e61626c653a206e6577206f776e657220697320746865207a65726f206160448201527f646472657373000000000000000000000000000000000000000000000000000060648201526084016200079a565b620020088162002e17565b50565b60006200204e83838080601f01602080910402602001604051908101604052809392919081815260200183838082843760009201919091525062002f9992505050565b90507f2afa5331000000000000000000000000000000000000000000000000000000007fffffffff0000000000000000000000000000000000000000000000000000000082160162002350576000808080808080620020b1896004818d62003c70565b810190620020c0919062003c9c565b9650965096509650965096509650336001600160a01b0316876001600160a01b031614620021575760405162461bcd60e51b815260206004820152603060248201527f4272696467653a3a5f7065726d69743a205045524d49545f4f574e45525f4d5560448201527f53545f42455f5448455f53454e4445520000000000000000000000000000000060648201526084016200079a565b6001600160a01b0386163014620021d75760405162461bcd60e51b815260206004820152602560248201527f4272696467653a3a5f7065726d69743a205350454e4445525f4d5553545f424560448201527f5f5448495300000000000000000000000000000000000000000000000000000060648201526084016200079a565b8a85146200224e5760405162461bcd60e51b815260206004820152602d60248201527f4272696467653a3a5f7065726d69743a205045524d49545f414d4f554e545f4460448201527f4f45535f4e4f545f4d415443480000000000000000000000000000000000000060648201526084016200079a565b604080516001600160a01b0389811660248301528881166044830152606482018890526084820187905260ff861660a483015260c4820185905260e48083018590528351808403909101815261010490920183526020820180517bffffffffffffffffffffffffffffffffffffffffffffffffffffffff167fd505accf000000000000000000000000000000000000000000000000000000001790529151918e1691620022fc919062003b1b565b6000604051808303816000865af19150503d80600081146200233b576040519150601f19603f3d011682016040523d82523d6000602084013e62002340565b606091505b5050505050505050505062001449565b7fffffffff0000000000000000000000000000000000000000000000000000000081167f8fcbaf0c0000000000000000000000000000000000000000000000000000000014620023e35760405162461bcd60e51b815260206004820152601f60248201527f4272696467653a3a5f7065726d69743a204e4f545f56414c49445f43414c4c0060448201526064016200079a565b600080808080808080620023fb8a6004818e62003c70565b8101906200240a919062003cf7565b97509750975097509750975097509750336001600160a01b0316886001600160a01b031614620024a35760405162461bcd60e51b815260206004820152603060248201527f4272696467653a3a5f7065726d69743a205045524d49545f4f574e45525f4d5560448201527f53545f42455f5448455f53454e4445520000000000000000000000000000000060648201526084016200079a565b6001600160a01b0387163014620025235760405162461bcd60e51b815260206004820152602560248201527f4272696467653a3a5f7065726d69743a205350454e4445525f4d5553545f424560448201527f5f5448495300000000000000000000000000000000000000000000000000000060648201526084016200079a565b604080516001600160a01b038a811660248301528981166044830152606482018990526084820188905286151560a483015260ff861660c483015260e482018590526101048083018590528351808403909101815261012490920183526020820180517bffffffffffffffffffffffffffffffffffffffffffffffffffffffff167f8fcbaf0c000000000000000000000000000000000000000000000000000000001790529151918f1691620025da919062003b1b565b6000604051808303816000865af19150503d806000811462002619576040519150601f19603f3d011682016040523d82523d6000602084013e6200261e565b606091505b50505050505050505050505050505050565b6040516001600160a01b0380851660248301528316604482015260648101829052620026e39085907f23b872dd00000000000000000000000000000000000000000000000000000000906084015b60408051601f198184030181529190526020810180517bffffffffffffffffffffffffffffffffffffffffffffffffffffffff167fffffffff000000000000000000000000000000000000000000000000000000009093169290921790915262002fa0565b50505050565b806001620026fa6020600262003ebc565b62002706919062003eca565b602154106200277e5760405162461bcd60e51b815260206004820152602a60248201527f4465706f736974436f6e74726163743a5f6465706f7369743a204d45524b4c4560448201527f5f545245455f46554c4c0000000000000000000000000000000000000000000060648201526084016200079a565b60016021600082825462002793919062003ee4565b909155505060215460005b60208110156200283d5781600116600103620027d3578260018260208110620027cb57620027cb62003a03565b015550505050565b60018160208110620027e957620027e962003a03565b0154604080516020810192909252810184905260600160405160208183030381529060405280519060200120925060028262002826919062003a90565b915080620028348162003aa7565b9150506200279e565b506200284862003eff565b505050565b60225460ff1615620028ee5760405162461bcd60e51b815260206004820152604260248201527f456d657267656e63794d616e616765723a3a69664e6f74456d657267656e637960448201527f53746174653a206f6e6c79206966206e6f7420656d657267656e63792073746160648201527f7465000000000000000000000000000000000000000000000000000000000000608482015260a4016200079a565b602280547fffffffffffffffffffffffffffffffffffffffffffffffffffffffffffffff001660011790556040517f2261efe5aef6fedc1fd1550b25facc9181745623049c7901287030b9ad1a549790600090a1565b620029558a63ffffffff1662001a19565b15620029c95760405162461bcd60e51b8152602060048201526024808201527f4272696467653a3a5f7665726966794c6561663a20414c52454144595f434c4160448201527f494d45440000000000000000000000000000000000000000000000000000000060648201526084016200079a565b608b546040805160208082018d90528183018c9052825180830384018152606083019384905280519101207f257b36320000000000000000000000000000000000000000000000000000000090925260648101919091526000916001600160a01b03169063257b3632906084016020604051808303816000875af115801562002a56573d6000803e3d6000fd5b505050506040513d601f19601f8201168201806040525081019062002a7c919062003f2e565b9050801580159062002a9b5750608d5462002a98824262003eca565b10155b62002b355760405162461bcd60e51b815260206004820152604260248201527f4272696467653a3a5f7665726966794c6561663a20474c4f42414c5f4558495460448201527f5f524f4f545f494e56414c49445f4f525f4e4f545f5945545f434c41494d414260648201527f4c45000000000000000000000000000000000000000000000000000000000000608482015260a4016200079a565b60875463ffffffff87811691161462002bb75760405162461bcd60e51b815260206004820152603760248201527f4272696467653a3a5f7665726966794c6561663a2044455354494e4154494f4e60448201527f5f4e4554574f524b5f444f45535f4e4f545f4d4154434800000000000000000060648201526084016200079a565b60875460009063ffffffff1662002bd057508862002bd3565b50895b8351602080860191909120604080517fff0000000000000000000000000000000000000000000000000000000000000060f888901b16818501527fffffffff0000000000000000000000000000000000000000000000000000000060e08e811b821660218401526bffffffffffffffffffffffff1960608f811b82166025860152918e901b90921660398401528b901b16603d82015260518101899052607180820193909352815180820390930183526091019052805191012062002ca1908e8e63ffffffff168462000ed2565b62000c995760405162461bcd60e51b815260206004820181905260248201527f4272696467653a3a5f7665726966794c6561663a20534d545f494e56414c494460448201526064016200079a565b600062002cff6101008362003a90565b9050600062002d116101008462003bba565b6000928352608860205260409092208054600190931b9092179091555050565b600054610100900460ff1662002db05760405162461bcd60e51b815260206004820152602b60248201527f496e697469616c697a61626c653a20636f6e7472616374206973206e6f74206960448201527f6e697469616c697a696e6700000000000000000000000000000000000000000060648201526084016200079a565b62000d5a3362002e17565b6055546001600160a01b0316331462000d5a5760405162461bcd60e51b815260206004820181905260248201527f4f776e61626c653a2063616c6c6572206973206e6f7420746865206f776e657260448201526064016200079a565b605580546001600160a01b038381167fffffffffffffffffffffffff0000000000000000000000000000000000000000831681179093556040519116919082907f8be0079c531659141344cd1fd0a4f28419497f9722a3daafe3b4186f6b6457e090600090a35050565b6040516001600160a01b038316602482015260448101829052620028489084907fa9059cbb00000000000000000000000000000000000000000000000000000000906064016200267e565b60225460ff1662002f465760405162461bcd60e51b815260206004820152603b60248201527f456d657267656e63794d616e616765723a3a6966456d657267656e637953746160448201527f74653a206f6e6c7920696620656d657267656e6379207374617465000000000060648201526084016200079a565b602280547fffffffffffffffffffffffffffffffffffffffffffffffffffffffffffffff001690556040517f1e5e34eea33501aecf2ebec9fe0e884a40804275ea7fe10b2ba084c8374308b390600090a1565b6020015190565b600062002ff7826040518060400160405280602081526020017f5361666545524332303a206c6f772d6c6576656c2063616c6c206661696c6564815250856001600160a01b03166200308c9092919063ffffffff16565b80519091501562002848578080602001905181019062003018919062003838565b620028485760405162461bcd60e51b815260206004820152602a60248201527f5361666545524332303a204552433230206f7065726174696f6e20646964206e60448201527f6f7420737563636565640000000000000000000000000000000000000000000060648201526084016200079a565b606062000fcc848460008585600080866001600160a01b03168587604051620030b6919062003b1b565b60006040518083038185875af1925050503d8060008114620030f5576040519150601f19603f3d011682016040523d82523d6000602084013e620030fa565b606091505b50915091506200310d8783838762003118565b979650505050505050565b606083156200318c57825160000362003184576001600160a01b0385163b620031845760405162461bcd60e51b815260206004820152601d60248201527f416464726573733a2063616c6c20746f206e6f6e2d636f6e747261637400000060448201526064016200079a565b508162000fcc565b62000fcc8383815115620031a35781518083602001fd5b8060405162461bcd60e51b81526004016200079a919062003f48565b6119c78062003f5e83390190565b6001600160a01b03811681146200200857600080fd5b8035620031f081620031cd565b919050565b803563ffffffff81168114620031f057600080fd5b60008083601f8401126200321d57600080fd5b50813567ffffffffffffffff8111156200323657600080fd5b6020830191508360208285010111156200324f57600080fd5b9250929050565b60008060008060008060a087890312156200327057600080fd5b86356200327d81620031cd565b95506200328d60208801620031f5565b945060408701356200329f81620031cd565b935060608701359250608087013567ffffffffffffffff811115620032c357600080fd5b620032d189828a016200320a565b979a9699509497509295939492505050565b60008060408385031215620032f757600080fd5b6200330283620031f5565b915060208301356200331481620031cd565b809150509250929050565b6000602082840312156200333257600080fd5b81356200333f81620031cd565b9392505050565b7f4e487b7100000000000000000000000000000000000000000000000000000000600052604160045260246000fd5b604051601f8201601f1916810167ffffffffffffffff81118282101715620033a157620033a162003346565b604052919050565b600082601f830112620033bb57600080fd5b8135602067ffffffffffffffff821115620033da57620033da62003346565b8160051b620033eb82820162003375565b92835284810182019282810190878511156200340657600080fd5b83870192505b848310156200310d578235825291830191908301906200340c565b600080600080608085870312156200343e57600080fd5b84359350602085013567ffffffffffffffff808211156200345e57600080fd5b6200346c88838901620033a9565b94506040870135915080821682146200348457600080fd5b509396929550929360600135925050565b60ff811681146200200857600080fd5b600080600080600080600060e0888a031215620034c157600080fd5b8735620034ce8162003495565b9650620034de60208901620031f5565b95506040880135620034f081620031cd565b94506200350060608901620031f5565b935060808801356200351281620031cd565b9699959850939692959460a0840135945060c09093013592915050565b600067ffffffffffffffff8211156200354c576200354c62003346565b50601f01601f191660200190565b600082601f8301126200356c57600080fd5b8135620035836200357d826200352f565b62003375565b8181528460208386010111156200359957600080fd5b816020850160208301376000918101602001919091529392505050565b6000806000806000806000806000806101408b8d031215620035d757600080fd5b8a3567ffffffffffffffff80821115620035f057600080fd5b620035fe8e838f01620033a9565b9b506200360e60208e01620031f5565b9a5060408d0135995060608d013598506200362c60808e01620031f5565b97506200363c60a08e01620031e3565b96506200364c60c08e01620031f5565b95506200365c60e08e01620031e3565b94506101008d013593506101208d01359150808211156200367c57600080fd5b506200368b8d828e016200355a565b9150509295989b9194979a5092959850565b60008060008060808587031215620036b457600080fd5b620036bf85620031f5565b93506020850135620036d181620031cd565b92506040850135620036e381620031cd565b9396929550929360600135925050565b6000602082840312156200370657600080fd5b5035919050565b600080600080600080600060a0888a0312156200372957600080fd5b6200373488620031f5565b965060208801356200374681620031cd565b9550604088013567ffffffffffffffff808211156200376457600080fd5b620037728b838c016200320a565b909750955060608a01359150808211156200378c57600080fd5b506200379b8a828b016200320a565b9094509250506080880135620037b18162003495565b8091505092959891949750929550565b600080600060608486031215620037d757600080fd5b620037e284620031f5565b92506020840135620037f481620031cd565b9150604084013567ffffffffffffffff8111156200381157600080fd5b6200381f868287016200355a565b9150509250925092565b80151581146200200857600080fd5b6000602082840312156200384b57600080fd5b81516200333f8162003829565b60005b83811015620038755781810151838201526020016200385b565b83811115620026e35750506000910152565b600082601f8301126200389957600080fd5b8151620038aa6200357d826200352f565b818152846020838601011115620038c057600080fd5b62000fcc82602083016020870162003858565b600060208284031215620038e657600080fd5b815167ffffffffffffffff811115620038fe57600080fd5b62000fcc8482850162003887565b6000602082840312156200391f57600080fd5b81516200333f8162003495565b600081518084526200394681602086016020860162003858565b601f01601f19169290920160200192915050565b6060815260006200396f60608301866200392c565b82810360208401526200398381866200392c565b91505060ff83166040830152949350505050565b600061010060ff8b16835263ffffffff808b1660208501526001600160a01b03808b166040860152818a1660608601528089166080860152508660a08501528160c0850152620039ea828501876200392c565b925080851660e085015250509998505050505050505050565b7f4e487b7100000000000000000000000000000000000000000000000000000000600052603260045260246000fd5b7f4e487b7100000000000000000000000000000000000000000000000000000000600052601260045260246000fd5b7f4e487b7100000000000000000000000000000000000000000000000000000000600052601160045260246000fd5b60008262003aa25762003aa262003a32565b500490565b60007fffffffffffffffffffffffffffffffffffffffffffffffffffffffffffffffff820362003adb5762003adb62003a61565b5060010190565b6001600160a01b038416815263ffffffff8316602082015260606040820152600062003b1260608301846200392c565b95945050505050565b6000825162003b2f81846020870162003858565b9190910192915050565b60008060006060848603121562003b4f57600080fd5b835167ffffffffffffffff8082111562003b6857600080fd5b62003b768783880162003887565b9450602086015191508082111562003b8d57600080fd5b5062003b9c8682870162003887565b925050604084015162003baf8162003495565b809150509250925092565b60008262003bcc5762003bcc62003a32565b500690565b818352818160208501375060006020828401015260006020601f19601f840116840101905092915050565b60608152600062003c1260608301878962003bd1565b828103602084015262003c2781868862003bd1565b91505060ff831660408301529695505050505050565b6000835162003c5181846020880162003858565b83519083019062003c6781836020880162003858565b01949350505050565b6000808585111562003c8157600080fd5b8386111562003c8f57600080fd5b5050820193919092039150565b600080600080600080600060e0888a03121562003cb857600080fd5b873562003cc581620031cd565b9650602088013562003cd781620031cd565b955060408801359450606088013593506080880135620035128162003495565b600080600080600080600080610100898b03121562003d1557600080fd5b883562003d2281620031cd565b9750602089013562003d3481620031cd565b96506040890135955060608901359450608089013562003d548162003829565b935060a089013562003d668162003495565b979a969950949793969295929450505060c08201359160e0013590565b600181815b8085111562003de257817fffffffffffffffffffffffffffffffffffffffffffffffffffffffffffffffff0482111562003dc65762003dc662003a61565b8085161562003dd457918102915b93841c939080029062003d88565b509250929050565b60008262003dfb5750600162000dd9565b8162003e0a5750600062000dd9565b816001811462003e23576002811462003e2e5762003e4e565b600191505062000dd9565b60ff84111562003e425762003e4262003a61565b50506001821b62000dd9565b5060208310610133831016604e8410600b841016171562003e73575081810a62000dd9565b62003e7f838362003d83565b807fffffffffffffffffffffffffffffffffffffffffffffffffffffffffffffffff0482111562003eb45762003eb462003a61565b029392505050565b60006200333f838362003dea565b60008282101562003edf5762003edf62003a61565b500390565b6000821982111562003efa5762003efa62003a61565b500190565b7f4e487b7100000000000000000000000000000000000000000000000000000000600052600160045260246000fd5b60006020828403121562003f4157600080fd5b5051919050565b6020815260006200333f60208301846200392c56fe60c06040523480156200001157600080fd5b50604051620019c7380380620019c78339810160408190526200003491620002ad565b82826003620000448382620003c1565b506004620000538282620003c1565b5050600580546001600160a81b0319163360ff60a01b191617600160a01b60ff851602179055504660808190526200008b9062000098565b60a052506200048d915050565b60007f8b73c3c69bb8fe3d512ecc4cf759cc79239f7b179b0ffacaa9a75d522b39400f620000c562000146565b805160209182012060408051808201825260018152603160f81b90840152805192830193909352918101919091527fc89efdaa54c0f20c7adf612882df0950f5a951637e0307cdcb4c672f298b8bc66060820152608081018390523060a082015260c001604051602081830303815290604052805190602001209050919050565b606060038054620001579062000332565b80601f0160208091040260200160405190810160405280929190818152602001828054620001859062000332565b8015620001d65780601f10620001aa57610100808354040283529160200191620001d6565b820191906000526020600020905b815481529060010190602001808311620001b857829003601f168201915b5050505050905090565b634e487b7160e01b600052604160045260246000fd5b600082601f8301126200020857600080fd5b81516001600160401b0380821115620002255762000225620001e0565b604051601f8301601f19908116603f01168101908282118183101715620002505762000250620001e0565b816040528381526020925086838588010111156200026d57600080fd5b600091505b8382101562000291578582018301518183018401529082019062000272565b83821115620002a35760008385830101525b9695505050505050565b600080600060608486031215620002c357600080fd5b83516001600160401b0380821115620002db57600080fd5b620002e987838801620001f6565b945060208601519150808211156200030057600080fd5b506200030f86828701620001f6565b925050604084015160ff811681146200032757600080fd5b809150509250925092565b600181811c908216806200034757607f821691505b6020821081036200036857634e487b7160e01b600052602260045260246000fd5b50919050565b601f821115620003bc57600081815260208120601f850160051c81016020861015620003975750805b601f850160051c820191505b81811015620003b857828155600101620003a3565b5050505b505050565b81516001600160401b03811115620003dd57620003dd620001e0565b620003f581620003ee845462000332565b846200036e565b602080601f8311600181146200042d5760008415620004145750858301515b600019600386901b1c1916600185901b178555620003b8565b600085815260208120601f198616915b828110156200045e578886015182559484019460019091019084016200043d565b50858210156200047d5787850151600019600388901b60f8161c191681555b5050505050600190811b01905550565b60805160a05161150d620004ba600039600061053001526000818161036f01526104fa015261150d6000f3fe608060405234801561001057600080fd5b50600436106101775760003560e01c806370a08231116100d8578063a457c2d71161008c578063d505accf11610066578063d505accf14610391578063dd62ed3e146103a6578063ffa1ad74146103ec57600080fd5b8063a457c2d714610344578063a9059cbb14610357578063cd0d00961461036a57600080fd5b806395d89b41116100bd57806395d89b41146102e45780639dc29fac146102ec578063a3c573eb146102ff57600080fd5b806370a082311461028e5780637ecebe00146102c457600080fd5b806330adf81f1161012f5780633644e515116101145780633644e51514610260578063395093511461026857806340c10f191461027b57600080fd5b806330adf81f14610209578063313ce5671461023057600080fd5b806318160ddd1161016057806318160ddd146101bd57806320606b70146101cf57806323b872dd146101f657600080fd5b806306fdde031461017c578063095ea7b31461019a575b600080fd5b610184610428565b604051610191919061123b565b60405180910390f35b6101ad6101a83660046112d7565b6104ba565b6040519015158152602001610191565b6002545b604051908152602001610191565b6101c17f8b73c3c69bb8fe3d512ecc4cf759cc79239f7b179b0ffacaa9a75d522b39400f81565b6101ad610204366004611301565b6104d2565b6101c17f6e71edae12b1b97f4d1f60370fef10105fa2faae0126114a169c64845d6126c981565b60055474010000000000000000000000000000000000000000900460ff1660405160ff9091168152602001610191565b6101c16104f6565b6101ad6102763660046112d7565b610552565b6101ad6102893660046112d7565b61059e565b6101c161029c36600461133d565b73ffffffffffffffffffffffffffffffffffffffff1660009081526020819052604090205490565b6101c16102d236600461133d565b60066020526000908152604090205481565b610184610645565b6101ad6102fa3660046112d7565b610654565b60055461031f9073ffffffffffffffffffffffffffffffffffffffff1681565b60405173ffffffffffffffffffffffffffffffffffffffff9091168152602001610191565b6101ad6103523660046112d7565b6106ed565b6101ad6103653660046112d7565b6107a4565b6101c17f000000000000000000000000000000000000000000000000000000000000000081565b6103a461039f36600461135f565b6107b2565b005b6101c16103b43660046113d2565b73ffffffffffffffffffffffffffffffffffffffff918216600090815260016020908152604080832093909416825291909152205490565b6101846040518060400160405280600181526020017f310000000000000000000000000000000000000000000000000000000000000081525081565b60606003805461043790611405565b80601f016020809104026020016040519081016040528092919081815260200182805461046390611405565b80156104b05780601f10610485576101008083540402835291602001916104b0565b820191906000526020600020905b81548152906001019060200180831161049357829003601f168201915b5050505050905090565b6000336104c8818585610ab4565b5060019392505050565b6000336104e0858285610c34565b6104eb858585610cf1565b506001949350505050565b60007f0000000000000000000000000000000000000000000000000000000000000000461461052d5761052846610f12565b905090565b507f000000000000000000000000000000000000000000000000000000000000000090565b33600081815260016020908152604080832073ffffffffffffffffffffffffffffffffffffffff871684529091528120549091906104c89082908690610599908790611487565b610ab4565b60055460009073ffffffffffffffffffffffffffffffffffffffff1633146106325760405162461bcd60e51b8152602060048201526024808201527f546f6b656e577261707065643a3a6f6e6c794272696467653a204e4f545f425260448201527f494447450000000000000000000000000000000000000000000000000000000060648201526084015b60405180910390fd5b61063c8383610fda565b50600192915050565b60606004805461043790611405565b60055460009073ffffffffffffffffffffffffffffffffffffffff1633146106e35760405162461bcd60e51b8152602060048201526024808201527f546f6b656e577261707065643a3a6f6e6c794272696467653a204e4f545f425260448201527f49444745000000000000000000000000000000000000000000000000000000006064820152608401610629565b61063c83836110b3565b33600081815260016020908152604080832073ffffffffffffffffffffffffffffffffffffffff87168452909152812054909190838110156107975760405162461bcd60e51b815260206004820152602560248201527f45524332303a2064656372656173656420616c6c6f77616e63652062656c6f7760448201527f207a65726f0000000000000000000000000000000000000000000000000000006064820152608401610629565b6104eb8286868403610ab4565b6000336104c8818585610cf1565b834211156108275760405162461bcd60e51b8152602060048201526024808201527f546f6b656e577261707065643a3a7065726d69743a204578706972656420706560448201527f726d6974000000000000000000000000000000000000000000000000000000006064820152608401610629565b73ffffffffffffffffffffffffffffffffffffffff8716600090815260066020526040812080547f6e71edae12b1b97f4d1f60370fef10105fa2faae0126114a169c64845d6126c9918a918a918a9190866108818361149f565b9091555060408051602081019690965273ffffffffffffffffffffffffffffffffffffffff94851690860152929091166060840152608083015260a082015260c0810186905260e00160405160208183030381529060405280519060200120905060006108ec6104f6565b6040517f19010000000000000000000000000000000000000000000000000000000000006020820152602281019190915260428101839052606201604080517fffffffffffffffffffffffffffffffffffffffffffffffffffffffffffffffe08184030181528282528051602091820120600080855291840180845281905260ff89169284019290925260608301879052608083018690529092509060019060a0016020604051602081039080840390855afa1580156109b0573d6000803e3d6000fd5b50506040517fffffffffffffffffffffffffffffffffffffffffffffffffffffffffffffffe0015191505073ffffffffffffffffffffffffffffffffffffffff811615801590610a2b57508973ffffffffffffffffffffffffffffffffffffffff168173ffffffffffffffffffffffffffffffffffffffff16145b610a9d5760405162461bcd60e51b815260206004820152602760248201527f546f6b656e577261707065643a3a7065726d69743a20496e76616c696420736960448201527f676e6174757265000000000000000000000000000000000000000000000000006064820152608401610629565b610aa88a8a8a610ab4565b50505050505050505050565b73ffffffffffffffffffffffffffffffffffffffff8316610b3c5760405162461bcd60e51b8152602060048201526024808201527f45524332303a20617070726f76652066726f6d20746865207a65726f2061646460448201527f72657373000000000000000000000000000000000000000000000000000000006064820152608401610629565b73ffffffffffffffffffffffffffffffffffffffff8216610bc55760405162461bcd60e51b815260206004820152602260248201527f45524332303a20617070726f766520746f20746865207a65726f20616464726560448201527f73730000000000000000000000000000000000000000000000000000000000006064820152608401610629565b73ffffffffffffffffffffffffffffffffffffffff83811660008181526001602090815260408083209487168084529482529182902085905590518481527f8c5be1e5ebec7d5bd14f71427d1e84f3dd0314c0f7b2291e5b200ac8c7c3b92591015b60405180910390a3505050565b73ffffffffffffffffffffffffffffffffffffffff8381166000908152600160209081526040808320938616835292905220547fffffffffffffffffffffffffffffffffffffffffffffffffffffffffffffffff8114610ceb5781811015610cde5760405162461bcd60e51b815260206004820152601d60248201527f45524332303a20696e73756666696369656e7420616c6c6f77616e63650000006044820152606401610629565b610ceb8484848403610ab4565b50505050565b73ffffffffffffffffffffffffffffffffffffffff8316610d7a5760405162461bcd60e51b815260206004820152602560248201527f45524332303a207472616e736665722066726f6d20746865207a65726f20616460448201527f64726573730000000000000000000000000000000000000000000000000000006064820152608401610629565b73ffffffffffffffffffffffffffffffffffffffff8216610e035760405162461bcd60e51b815260206004820152602360248201527f45524332303a207472616e7366657220746f20746865207a65726f206164647260448201527f65737300000000000000000000000000000000000000000000000000000000006064820152608401610629565b73ffffffffffffffffffffffffffffffffffffffff831660009081526020819052604090205481811015610e9f5760405162461bcd60e51b815260206004820152602660248201527f45524332303a207472616e7366657220616d6f756e742065786365656473206260448201527f616c616e636500000000000000000000000000000000000000000000000000006064820152608401610629565b73ffffffffffffffffffffffffffffffffffffffff848116600081815260208181526040808320878703905593871680835291849020805487019055925185815290927fddf252ad1be2c89b69c2b068fc378daa952ba7f163c4a11628f55a4df523b3ef910160405180910390a3610ceb565b60007f8b73c3c69bb8fe3d512ecc4cf759cc79239f7b179b0ffacaa9a75d522b39400f610f3d610428565b8051602091820120604080518082018252600181527f310000000000000000000000000000000000000000000000000000000000000090840152805192830193909352918101919091527fc89efdaa54c0f20c7adf612882df0950f5a951637e0307cdcb4c672f298b8bc66060820152608081018390523060a082015260c001604051602081830303815290604052805190602001209050919050565b73ffffffffffffffffffffffffffffffffffffffff821661103d5760405162461bcd60e51b815260206004820152601f60248201527f45524332303a206d696e7420746f20746865207a65726f2061646472657373006044820152606401610629565b806002600082825461104f9190611487565b909155505073ffffffffffffffffffffffffffffffffffffffff8216600081815260208181526040808320805486019055518481527fddf252ad1be2c89b69c2b068fc378daa952ba7f163c4a11628f55a4df523b3ef910160405180910390a35050565b73ffffffffffffffffffffffffffffffffffffffff821661113c5760405162461bcd60e51b815260206004820152602160248201527f45524332303a206275726e2066726f6d20746865207a65726f2061646472657360448201527f73000000000000000000000000000000000000000000000000000000000000006064820152608401610629565b73ffffffffffffffffffffffffffffffffffffffff8216600090815260208190526040902054818110156111d85760405162461bcd60e51b815260206004820152602260248201527f45524332303a206275726e20616d6f756e7420657863656564732062616c616e60448201527f63650000000000000000000000000000000000000000000000000000000000006064820152608401610629565b73ffffffffffffffffffffffffffffffffffffffff83166000818152602081815260408083208686039055600280548790039055518581529192917fddf252ad1be2c89b69c2b068fc378daa952ba7f163c4a11628f55a4df523b3ef9101610c27565b600060208083528351808285015260005b818110156112685785810183015185820160400152820161124c565b8181111561127a576000604083870101525b50601f017fffffffffffffffffffffffffffffffffffffffffffffffffffffffffffffffe016929092016040019392505050565b803573ffffffffffffffffffffffffffffffffffffffff811681146112d257600080fd5b919050565b600080604083850312156112ea57600080fd5b6112f3836112ae565b946020939093013593505050565b60008060006060848603121561131657600080fd5b61131f846112ae565b925061132d602085016112ae565b9150604084013590509250925092565b60006020828403121561134f57600080fd5b611358826112ae565b9392505050565b600080600080600080600060e0888a03121561137a57600080fd5b611383886112ae565b9650611391602089016112ae565b95506040880135945060608801359350608088013560ff811681146113b557600080fd5b9699959850939692959460a0840135945060c09093013592915050565b600080604083850312156113e557600080fd5b6113ee836112ae565b91506113fc602084016112ae565b90509250929050565b600181811c9082168061141957607f821691505b602082108103611452577f4e487b7100000000000000000000000000000000000000000000000000000000600052602260045260246000fd5b50919050565b7f4e487b7100000000000000000000000000000000000000000000000000000000600052601160045260246000fd5b6000821982111561149a5761149a611458565b500190565b60007fffffffffffffffffffffffffffffffffffffffffffffffffffffffffffffffff82036114d0576114d0611458565b506001019056fea264697066735822122094134962e5fa2f6357086a2590b7f3a754d340b16e5312664d82a308bc23a0df64736f6c634300080f0033a26469706673582212205f491005e06ad490df9eb5597b20463c4455b005ac64a7b95eb210192beb696664736f6c634300080f0033",
  "linkReferences": {},
  "deployedLinkReferences": {}
}