{
  "_format": "hh-sol-artifact-1",
  "contractName": "Bridge",
  "sourceName": "contracts/Bridge.sol",
  "abi": [
    {
      "inputs": [
        {
          "internalType": "uint32",
          "name": "_networkID",
          "type": "uint32"
        },
        {
          "internalType": "contract IGlobalExitRootManager",
          "name": "_globalExitRootManager",
          "type": "address"
        }
      ],
      "stateMutability": "nonpayable",
      "type": "constructor"
    },
    {
      "anonymous": false,
      "inputs": [
        {
          "indexed": false,
          "internalType": "uint32",
          "name": "originNetwork",
          "type": "uint32"
        },
        {
          "indexed": false,
          "internalType": "address",
          "name": "originTokenAddress",
          "type": "address"
        },
        {
          "indexed": false,
          "internalType": "uint32",
          "name": "destinationNetwork",
          "type": "uint32"
        },
        {
          "indexed": false,
          "internalType": "address",
          "name": "destinationAddress",
          "type": "address"
        },
        {
          "indexed": false,
          "internalType": "uint256",
          "name": "amount",
          "type": "uint256"
        },
        {
          "indexed": false,
          "internalType": "bytes",
          "name": "metadata",
          "type": "bytes"
        },
        {
          "indexed": false,
          "internalType": "uint32",
          "name": "depositCount",
          "type": "uint32"
        }
      ],
      "name": "BridgeEvent",
      "type": "event"
    },
    {
      "anonymous": false,
      "inputs": [
        {
          "indexed": false,
          "internalType": "uint32",
          "name": "index",
          "type": "uint32"
        },
        {
          "indexed": false,
          "internalType": "uint32",
          "name": "originNetwork",
          "type": "uint32"
        },
        {
          "indexed": false,
          "internalType": "address",
          "name": "originTokenAddress",
          "type": "address"
        },
        {
          "indexed": false,
          "internalType": "address",
          "name": "destinationAddress",
          "type": "address"
        },
        {
          "indexed": false,
          "internalType": "uint256",
          "name": "amount",
          "type": "uint256"
        }
      ],
      "name": "ClaimEvent",
      "type": "event"
    },
    {
      "anonymous": false,
      "inputs": [
        {
          "indexed": false,
          "internalType": "uint32",
          "name": "originNetwork",
          "type": "uint32"
        },
        {
          "indexed": false,
          "internalType": "address",
          "name": "originTokenAddress",
          "type": "address"
        },
        {
          "indexed": false,
          "internalType": "address",
          "name": "wrappedTokenAddress",
          "type": "address"
        }
      ],
      "name": "NewWrappedToken",
      "type": "event"
    },
    {
      "anonymous": false,
      "inputs": [
        {
          "indexed": true,
          "internalType": "address",
          "name": "previousOwner",
          "type": "address"
        },
        {
          "indexed": true,
          "internalType": "address",
          "name": "newOwner",
          "type": "address"
        }
      ],
      "name": "OwnershipTransferred",
      "type": "event"
    },
    {
      "inputs": [],
      "name": "MAINNET_NETWORK_ID",
      "outputs": [
        {
          "internalType": "uint32",
          "name": "",
          "type": "uint32"
        }
      ],
      "stateMutability": "view",
      "type": "function"
    },
    {
      "inputs": [
        {
          "internalType": "address",
          "name": "token",
          "type": "address"
        },
        {
          "internalType": "uint32",
          "name": "destinationNetwork",
          "type": "uint32"
        },
        {
          "internalType": "address",
          "name": "destinationAddress",
          "type": "address"
        },
        {
          "internalType": "uint256",
          "name": "amount",
          "type": "uint256"
        }
      ],
      "name": "bridge",
      "outputs": [],
      "stateMutability": "payable",
      "type": "function"
    },
    {
      "inputs": [
        {
          "internalType": "bytes32[]",
          "name": "smtProof",
          "type": "bytes32[]"
        },
        {
          "internalType": "uint32",
          "name": "index",
          "type": "uint32"
        },
        {
          "internalType": "bytes32",
          "name": "mainnetExitRoot",
          "type": "bytes32"
        },
        {
          "internalType": "bytes32",
          "name": "rollupExitRoot",
          "type": "bytes32"
        },
        {
          "internalType": "uint32",
          "name": "originNetwork",
          "type": "uint32"
        },
        {
          "internalType": "address",
          "name": "originTokenAddress",
          "type": "address"
        },
        {
          "internalType": "uint32",
          "name": "destinationNetwork",
          "type": "uint32"
        },
        {
          "internalType": "address",
          "name": "destinationAddress",
          "type": "address"
        },
        {
          "internalType": "uint256",
          "name": "amount",
          "type": "uint256"
        },
        {
          "internalType": "bytes",
          "name": "metadata",
          "type": "bytes"
        }
      ],
      "name": "claim",
      "outputs": [],
      "stateMutability": "nonpayable",
      "type": "function"
    },
    {
      "inputs": [
        {
          "internalType": "uint256",
          "name": "",
          "type": "uint256"
        }
      ],
      "name": "claimNullifier",
      "outputs": [
        {
          "internalType": "bool",
          "name": "",
          "type": "bool"
        }
      ],
      "stateMutability": "view",
      "type": "function"
    },
    {
      "inputs": [],
      "name": "depositCount",
      "outputs": [
        {
          "internalType": "uint256",
          "name": "",
          "type": "uint256"
        }
      ],
      "stateMutability": "view",
      "type": "function"
    },
    {
      "inputs": [],
      "name": "getDepositRoot",
      "outputs": [
        {
          "internalType": "bytes32",
          "name": "",
          "type": "bytes32"
        }
      ],
      "stateMutability": "view",
      "type": "function"
    },
    {
      "inputs": [
        {
          "internalType": "uint32",
          "name": "originNetwork",
          "type": "uint32"
        },
        {
          "internalType": "address",
          "name": "originTokenAddress",
          "type": "address"
        },
        {
          "internalType": "uint32",
          "name": "destinationNetwork",
          "type": "uint32"
        },
        {
          "internalType": "address",
          "name": "destinationAddress",
          "type": "address"
        },
        {
          "internalType": "uint256",
          "name": "amount",
          "type": "uint256"
        },
        {
          "internalType": "bytes32",
          "name": "metadataHash",
          "type": "bytes32"
        }
      ],
      "name": "getLeafValue",
      "outputs": [
        {
          "internalType": "bytes32",
          "name": "",
          "type": "bytes32"
        }
      ],
      "stateMutability": "pure",
      "type": "function"
    },
    {
      "inputs": [
        {
          "internalType": "uint32",
          "name": "originNetwork",
          "type": "uint32"
        },
        {
          "internalType": "address",
          "name": "originTokenAddress",
          "type": "address"
        }
      ],
      "name": "getTokenWrappedAddress",
      "outputs": [
        {
          "internalType": "address",
          "name": "",
          "type": "address"
        }
      ],
      "stateMutability": "view",
      "type": "function"
    },
    {
      "inputs": [],
      "name": "globalExitRootManager",
      "outputs": [
        {
          "internalType": "contract IGlobalExitRootManager",
          "name": "",
          "type": "address"
        }
      ],
      "stateMutability": "view",
      "type": "function"
    },
    {
      "inputs": [],
      "name": "networkID",
      "outputs": [
        {
          "internalType": "uint32",
          "name": "",
          "type": "uint32"
        }
      ],
      "stateMutability": "view",
      "type": "function"
    },
    {
      "inputs": [],
      "name": "owner",
      "outputs": [
        {
          "internalType": "address",
          "name": "",
          "type": "address"
        }
      ],
      "stateMutability": "view",
      "type": "function"
    },
    {
      "inputs": [
        {
          "internalType": "uint32",
          "name": "originNetwork",
          "type": "uint32"
        },
        {
          "internalType": "address",
          "name": "originTokenAddress",
          "type": "address"
        }
      ],
      "name": "precalculatedWrapperAddress",
      "outputs": [
        {
          "internalType": "address",
          "name": "",
          "type": "address"
        }
      ],
      "stateMutability": "view",
      "type": "function"
    },
    {
      "inputs": [],
      "name": "renounceOwnership",
      "outputs": [],
      "stateMutability": "nonpayable",
      "type": "function"
    },
    {
      "inputs": [],
      "name": "tokenImplementation",
      "outputs": [
        {
          "internalType": "address",
          "name": "",
          "type": "address"
        }
      ],
      "stateMutability": "view",
      "type": "function"
    },
    {
      "inputs": [
        {
          "internalType": "bytes32",
          "name": "",
          "type": "bytes32"
        }
      ],
      "name": "tokenInfoToWrappedToken",
      "outputs": [
        {
          "internalType": "address",
          "name": "",
          "type": "address"
        }
      ],
      "stateMutability": "view",
      "type": "function"
    },
    {
      "inputs": [
        {
          "internalType": "address",
          "name": "newOwner",
          "type": "address"
        }
      ],
      "name": "transferOwnership",
      "outputs": [],
      "stateMutability": "nonpayable",
      "type": "function"
    },
    {
      "inputs": [
        {
          "internalType": "bytes32",
          "name": "leafHash",
          "type": "bytes32"
        },
        {
          "internalType": "bytes32[]",
          "name": "smtProof",
          "type": "bytes32[]"
        },
        {
          "internalType": "uint64",
          "name": "index",
          "type": "uint64"
        },
        {
          "internalType": "bytes32",
          "name": "root",
          "type": "bytes32"
        }
      ],
      "name": "verifyMerkleProof",
      "outputs": [
        {
          "internalType": "bool",
          "name": "",
          "type": "bool"
        }
      ],
      "stateMutability": "pure",
      "type": "function"
    },
    {
      "inputs": [
        {
          "internalType": "address",
          "name": "",
          "type": "address"
        }
      ],
      "name": "wrappedTokenToTokenInfo",
      "outputs": [
        {
          "internalType": "uint32",
          "name": "originNetwork",
          "type": "uint32"
        },
        {
          "internalType": "address",
          "name": "originTokenAddress",
          "type": "address"
        }
      ],
      "stateMutability": "view",
      "type": "function"
    }
  ],
  "bytecode": "0x60a06040523480156200001157600080fd5b50604051620044ef380380620044ef8339810160408190526200003491620001bb565b6200003f336200015d565b60005b620000506001602062000223565b811015620000eb57602181602081106200006e576200006e6200023d565b0154602182602081106200008657620000866200023d565b0154604080516020810193909352820152606001604051602081830303815290604052805190602001206021826001620000c1919062000253565b60208110620000d457620000d46200023d565b015580620000e2816200026e565b91505062000042565b506042805463ffffffff191663ffffffff8416179055604680546001600160a01b0319166001600160a01b0383161790556040516200012a90620001ad565b604051809103906000f08015801562000147573d6000803e3d6000fd5b506001600160a01b0316608052506200028a9050565b600080546001600160a01b038381166001600160a01b0319831681178455604051919092169283917f8be0079c531659141344cd1fd0a4f28419497f9722a3daafe3b4186f6b6457e09190a35050565b6118298062002cc683390190565b60008060408385031215620001cf57600080fd5b825163ffffffff81168114620001e457600080fd5b60208401519092506001600160a01b03811681146200020257600080fd5b809150509250929050565b634e487b7160e01b600052601160045260246000fd5b6000828210156200023857620002386200020d565b500390565b634e487b7160e01b600052603260045260246000fd5b600082198211156200026957620002696200020d565b500190565b6000600182016200028357620002836200020d565b5060010190565b608051612a12620002b4600039600081816101ae01528181610e66015261181c0152612a126000f3fe6080604052600436106101295760003560e01c806381b1c174116100a5578063bab161bf11610074578063e737588111610059578063e737588114610489578063ed6be5c9146104b9578063f2fde38b146104ce57600080fd5b8063bab161bf1461042a578063d02103ca1461045c57600080fd5b806381b1c174146103895780638da5cb5b146103cc578063b33f8059146103f7578063b7e6a7d41461040a57600080fd5b80633ae05047116100fc5780635a64a1da116100e15780635a64a1da146102995780635d5d326f14610352578063715018a61461037457600080fd5b80633ae05047146102545780633da816821461026957600080fd5b806322e95f2c1461012e5780632dfdf0b5146101785780632f3a3d5d1461019c578063318aee3d146101d0575b600080fd5b34801561013a57600080fd5b5061014e6101493660046120a1565b6104ee565b60405173ffffffffffffffffffffffffffffffffffffffff90911681526020015b60405180910390f35b34801561018457600080fd5b5061018e60415481565b60405190815260200161016f565b3480156101a857600080fd5b5061014e7f000000000000000000000000000000000000000000000000000000000000000081565b3480156101dc57600080fd5b506102236101eb3660046120d4565b60456020526000908152604090205463ffffffff811690640100000000900473ffffffffffffffffffffffffffffffffffffffff1682565b6040805163ffffffff909316835273ffffffffffffffffffffffffffffffffffffffff90911660208301520161016f565b34801561026057600080fd5b5061018e610591565b34801561027557600080fd5b506102896102843660046121e2565b61065d565b604051901515815260200161016f565b3480156102a557600080fd5b5061018e6102b436600461224b565b604080517fffffffff0000000000000000000000000000000000000000000000000000000060e098891b81166020808401919091527fffffffffffffffffffffffffffffffffffffffff0000000000000000000000006060998a1b811660248501529790991b1660388201529390951b909316603c830152605082015260708082019290925282518082039092018252609001909152805191012090565b34801561035e57600080fd5b5061037261036d36600461234d565b61074d565b005b34801561038057600080fd5b506103726111da565b34801561039557600080fd5b5061014e6103a4366004612423565b60446020526000908152604090205473ffffffffffffffffffffffffffffffffffffffff1681565b3480156103d857600080fd5b5060005473ffffffffffffffffffffffffffffffffffffffff1661014e565b61037261040536600461243c565b6111ee565b34801561041657600080fd5b5061014e6104253660046120a1565b61179c565b34801561043657600080fd5b506042546104479063ffffffff1681565b60405163ffffffff909116815260200161016f565b34801561046857600080fd5b5060465461014e9073ffffffffffffffffffffffffffffffffffffffff1681565b34801561049557600080fd5b506102896104a4366004612423565b60436020526000908152604090205460ff1681565b3480156104c557600080fd5b50610447600081565b3480156104da57600080fd5b506103726104e93660046120d4565b611849565b6040805160e084901b7fffffffff0000000000000000000000000000000000000000000000000000000016602080830191909152606084901b7fffffffffffffffffffffffffffffffffffffffff000000000000000000000000166024830152825160188184030181526038909201835281519181019190912060009081526044909152205473ffffffffffffffffffffffffffffffffffffffff165b92915050565b6041546000908190815b602081101561065557816001166001036105f557600181602081106105c2576105c2612487565b01546040805160208101929092528101849052606001604051602081830303815290604052805190602001209250610636565b826021826020811061060957610609612487565b01546040805160208101939093528201526060016040516020818303038152906040528051906020012092505b6106416002836124e5565b91508061064d81612520565b91505061059b565b509092915050565b60008467ffffffffffffffff8416825b602081101561074057816001166001036106d35786818151811061069357610693612487565b6020026020010151836040516020016106b6929190918252602082015260400190565b604051602081830303815290604052805190602001209250610721565b828782815181106106e6576106e6612487565b6020026020010151604051602001610708929190918252602082015260400190565b6040516020818303038152906040528051906020012092505b61072c6002836124e5565b91508061073881612520565b91505061066d565b5050909114949350505050565b63ffffffff891660009081526043602052604090205460ff16156107d2576040517f08c379a000000000000000000000000000000000000000000000000000000000815260206004820152601e60248201527f4272696467653a3a636c61696d3a20414c52454144595f434c41494d4544000060448201526064015b60405180910390fd5b6046546040805160208082018c90528183018b9052825180830384018152606083019384905280519101207f257b363200000000000000000000000000000000000000000000000000000000909252606481019190915273ffffffffffffffffffffffffffffffffffffffff9091169063257b3632906084016020604051808303816000875af115801561086a573d6000803e3d6000fd5b505050506040513d601f19601f8201168201806040525081019061088e9190612558565b60000361091d576040517f08c379a000000000000000000000000000000000000000000000000000000000815260206004820152602e60248201527f4272696467653a3a636c61696d3a20474c4f42414c5f455849545f524f4f545f60448201527f444f45535f4e4f545f4d4154434800000000000000000000000000000000000060648201526084016107c9565b60425463ffffffff8581169116146109b7576040517f08c379a000000000000000000000000000000000000000000000000000000000815260206004820152603160248201527f4272696467653a3a636c61696d3a2044455354494e4154494f4e5f4e4554574f60448201527f524b5f444f45535f4e4f545f4d4154434800000000000000000000000000000060648201526084016107c9565b60425463ffffffff16610ae2578051602080830191909120604080517fffffffff0000000000000000000000000000000000000000000000000000000060e08b811b8216838701527fffffffffffffffffffffffffffffffffffffffff00000000000000000000000060608c811b82166024860152918b901b909216603884015288901b16603c820152605081018690526070808201939093528151808203909301835260900190528051910120610a77908b8b63ffffffff168a61065d565b610add576040517f08c379a000000000000000000000000000000000000000000000000000000000815260206004820152601a60248201527f4272696467653a3a636c61696d3a20534d545f494e56414c494400000000000060448201526064016107c9565b610bfb565b8051602080830191909120604080517fffffffff0000000000000000000000000000000000000000000000000000000060e08b811b8216838701527fffffffffffffffffffffffffffffffffffffffff00000000000000000000000060608c811b82166024860152918b901b909216603884015288901b16603c820152605081018690526070808201939093528151808203909301835260900190528051910120610b95908b8b63ffffffff168b61065d565b610bfb576040517f08c379a000000000000000000000000000000000000000000000000000000000815260206004820152601a60248201527f4272696467653a3a636c61696d3a20534d545f494e56414c494400000000000060448201526064016107c9565b63ffffffff8916600090815260436020526040902080547fffffffffffffffffffffffffffffffffffffffffffffffffffffffffffffff0016600117905573ffffffffffffffffffffffffffffffffffffffff8516610d64576040805160008082526020820190925273ffffffffffffffffffffffffffffffffffffffff8516908490604051610c8b919061259d565b60006040518083038185875af1925050503d8060008114610cc8576040519150601f19603f3d011682016040523d82523d6000602084013e610ccd565b606091505b5050905080610d5e576040517f08c379a000000000000000000000000000000000000000000000000000000000815260206004820152602260248201527f4272696467653a3a636c61696d3a204554485f5452414e534645525f4641494c60448201527f454400000000000000000000000000000000000000000000000000000000000060648201526084016107c9565b50611163565b60425463ffffffff90811690871603610d9d57610d9873ffffffffffffffffffffffffffffffffffffffff86168484611900565b611163565b6040517fffffffff0000000000000000000000000000000000000000000000000000000060e088901b1660208201527fffffffffffffffffffffffffffffffffffffffff000000000000000000000000606087901b166024820152600090603801604080517fffffffffffffffffffffffffffffffffffffffffffffffffffffffffffffffe081840301815291815281516020928301206000818152604490935291205490915073ffffffffffffffffffffffffffffffffffffffff16806110c5576000610e8b7f0000000000000000000000000000000000000000000000000000000000000000846119d9565b9050600080600086806020019051810190610ea6919061260f565b9250925092508373ffffffffffffffffffffffffffffffffffffffff16636c9452218484848d8d6040518663ffffffff1660e01b8152600401610eed9594939291906126cd565b600060405180830381600087803b158015610f0757600080fd5b505af1158015610f1b573d6000803e3d6000fd5b50505050836044600088815260200190815260200160002060006101000a81548173ffffffffffffffffffffffffffffffffffffffff021916908373ffffffffffffffffffffffffffffffffffffffff16021790555060405180604001604052808d63ffffffff1681526020018c73ffffffffffffffffffffffffffffffffffffffff16815250604560008673ffffffffffffffffffffffffffffffffffffffff1673ffffffffffffffffffffffffffffffffffffffff16815260200190815260200160002060008201518160000160006101000a81548163ffffffff021916908363ffffffff16021790555060208201518160000160046101000a81548173ffffffffffffffffffffffffffffffffffffffff021916908373ffffffffffffffffffffffffffffffffffffffff1602179055509050507fccd7715648d1f2bb13e158f96b5b6c3aeda555d4cb87112e274a6f28bc571d598c8c866040516110b49392919063ffffffff93909316835273ffffffffffffffffffffffffffffffffffffffff918216602084015216604082015260600190565b60405180910390a150505050611160565b6040517f40c10f1900000000000000000000000000000000000000000000000000000000815273ffffffffffffffffffffffffffffffffffffffff8681166004830152602482018690528216906340c10f19906044016020604051808303816000875af115801561113a573d6000803e3d6000fd5b505050506040513d601f19601f8201168201806040525081019061115e9190612729565b505b50505b6040805163ffffffff8b811682528816602082015273ffffffffffffffffffffffffffffffffffffffff87811682840152851660608201526080810184905290517f25308c93ceeed162da955b3f7ce3e3f93606579e40fb92029faa9efe275459839181900360a00190a150505050505050505050565b6111e2611ab7565b6111ec6000611b38565b565b60425463ffffffff90811690841603611289576040517f08c379a000000000000000000000000000000000000000000000000000000000815260206004820152602a60248201527f4272696467653a3a6272696467653a2044455354494e4154494f4e5f43414e5460448201527f5f42455f495453454c460000000000000000000000000000000000000000000060648201526084016107c9565b600080606073ffffffffffffffffffffffffffffffffffffffff871661134157833414611338576040517f08c379a000000000000000000000000000000000000000000000000000000000815260206004820152602f60248201527f4272696467653a3a6272696467653a20414d4f554e545f444f45535f4e4f545f60448201527f4d415443485f4d53475f56414c5545000000000000000000000000000000000060648201526084016107c9565b6000915061162e565b73ffffffffffffffffffffffffffffffffffffffff80881660009081526045602090815260409182902082518084019093525463ffffffff811683526401000000009004909216918101829052901561143d576040517f9dc29fac0000000000000000000000000000000000000000000000000000000081523360048201526024810186905273ffffffffffffffffffffffffffffffffffffffff891690639dc29fac906044016020604051808303816000875af1158015611407573d6000803e3d6000fd5b505050506040513d601f19601f8201168201806040525081019061142b9190612729565b5060208101518151909450925061162c565b61145f73ffffffffffffffffffffffffffffffffffffffff8916333088611bad565b879350604260009054906101000a900463ffffffff1692508773ffffffffffffffffffffffffffffffffffffffff166306fdde036040518163ffffffff1660e01b8152600401600060405180830381865afa1580156114c2573d6000803e3d6000fd5b505050506040513d6000823e601f3d9081017fffffffffffffffffffffffffffffffffffffffffffffffffffffffffffffffe0168201604052611508919081019061274b565b8873ffffffffffffffffffffffffffffffffffffffff166395d89b416040518163ffffffff1660e01b8152600401600060405180830381865afa158015611553573d6000803e3d6000fd5b505050506040513d6000823e601f3d9081017fffffffffffffffffffffffffffffffffffffffffffffffffffffffffffffffe0168201604052611599919081019061274b565b8973ffffffffffffffffffffffffffffffffffffffff1663313ce5676040518163ffffffff1660e01b8152600401602060405180830381865afa1580156115e4573d6000803e3d6000fd5b505050506040513d601f19601f820116820180604052508101906116089190612780565b60405160200161161a9392919061279b565b60405160208183030381529060405291505b505b7ff0b963192bdc6349c23af9bd17294b4c7b9b5a73a2a9939610ea18ffd1c5dc2a82848888888660415460405161166b97969594939291906127d4565b60405180910390a18051602080830191909120604080517fffffffff0000000000000000000000000000000000000000000000000000000060e087811b8216838701527fffffffffffffffffffffffffffffffffffffffff00000000000000000000000060608a811b82166024860152918d901b90921660388401528a901b16603c82015260508101889052607080820193909352815180820390930183526090019052805191012061171d90611c11565b60465473ffffffffffffffffffffffffffffffffffffffff166333d6247d611743610591565b6040518263ffffffff1660e01b815260040161176191815260200190565b600060405180830381600087803b15801561177b57600080fd5b505af115801561178f573d6000803e3d6000fd5b5050505050505050505050565b6040517fffffffff0000000000000000000000000000000000000000000000000000000060e084901b1660208201527fffffffffffffffffffffffffffffffffffffffff000000000000000000000000606083901b16602482015260009081906038016040516020818303038152906040528051906020012090506118417f000000000000000000000000000000000000000000000000000000000000000082611d73565b949350505050565b611851611ab7565b73ffffffffffffffffffffffffffffffffffffffff81166118f4576040517f08c379a000000000000000000000000000000000000000000000000000000000815260206004820152602660248201527f4f776e61626c653a206e6577206f776e657220697320746865207a65726f206160448201527f646472657373000000000000000000000000000000000000000000000000000060648201526084016107c9565b6118fd81611b38565b50565b60405173ffffffffffffffffffffffffffffffffffffffff83166024820152604481018290526119d49084907fa9059cbb00000000000000000000000000000000000000000000000000000000906064015b604080517fffffffffffffffffffffffffffffffffffffffffffffffffffffffffffffffe08184030181529190526020810180517bffffffffffffffffffffffffffffffffffffffffffffffffffffffff167fffffffff0000000000000000000000000000000000000000000000000000000090931692909217909152611df6565b505050565b60006040517f3d602d80600a3d3981f3363d3d373d3d3d363d7300000000000000000000000081528360601b60148201527f5af43d82803e903d91602b57fd5bf300000000000000000000000000000000006028820152826037826000f591505073ffffffffffffffffffffffffffffffffffffffff811661058b576040517f08c379a000000000000000000000000000000000000000000000000000000000815260206004820152601760248201527f455243313136373a2063726561746532206661696c656400000000000000000060448201526064016107c9565b60005473ffffffffffffffffffffffffffffffffffffffff1633146111ec576040517f08c379a000000000000000000000000000000000000000000000000000000000815260206004820181905260248201527f4f776e61626c653a2063616c6c6572206973206e6f7420746865206f776e657260448201526064016107c9565b6000805473ffffffffffffffffffffffffffffffffffffffff8381167fffffffffffffffffffffffff0000000000000000000000000000000000000000831681178455604051919092169283917f8be0079c531659141344cd1fd0a4f28419497f9722a3daafe3b4186f6b6457e09190a35050565b60405173ffffffffffffffffffffffffffffffffffffffff80851660248301528316604482015260648101829052611c0b9085907f23b872dd0000000000000000000000000000000000000000000000000000000090608401611952565b50505050565b806001611c206020600261295f565b611c2a919061296b565b60415410611cba576040517f08c379a000000000000000000000000000000000000000000000000000000000815260206004820152602a60248201527f4465706f736974436f6e74726163743a5f6465706f7369743a204d45524b4c4560448201527f5f545245455f46554c4c0000000000000000000000000000000000000000000060648201526084016107c9565b600160416000828254611ccd9190612982565b909155505060415460005b6020811015611d6a5781600116600103611d08578260018260208110611d0057611d00612487565b015550505050565b60018160208110611d1b57611d1b612487565b01546040805160208101929092528101849052606001604051602081830303815290604052805190602001209250600282611d5691906124e5565b915080611d6281612520565b915050611cd8565b506119d461299a565b6000611def8383306040517f3d602d80600a3d3981f3363d3d373d3d3d363d730000000000000000000000008152606093841b60148201527f5af43d82803e903d91602b57fd5bf3ff000000000000000000000000000000006028820152921b6038830152604c8201526037808220606c830152605591012090565b9392505050565b6000611e58826040518060400160405280602081526020017f5361666545524332303a206c6f772d6c6576656c2063616c6c206661696c65648152508573ffffffffffffffffffffffffffffffffffffffff16611f029092919063ffffffff16565b8051909150156119d45780806020019051810190611e769190612729565b6119d4576040517f08c379a000000000000000000000000000000000000000000000000000000000815260206004820152602a60248201527f5361666545524332303a204552433230206f7065726174696f6e20646964206e60448201527f6f7420737563636565640000000000000000000000000000000000000000000060648201526084016107c9565b606061184184846000858573ffffffffffffffffffffffffffffffffffffffff85163b611f8b576040517f08c379a000000000000000000000000000000000000000000000000000000000815260206004820152601d60248201527f416464726573733a2063616c6c20746f206e6f6e2d636f6e747261637400000060448201526064016107c9565b6000808673ffffffffffffffffffffffffffffffffffffffff168587604051611fb4919061259d565b60006040518083038185875af1925050503d8060008114611ff1576040519150601f19603f3d011682016040523d82523d6000602084013e611ff6565b606091505b5091509150612006828286612011565b979650505050505050565b60608315612020575081611def565b8251156120305782518084602001fd5b816040517f08c379a00000000000000000000000000000000000000000000000000000000081526004016107c991906129c9565b803563ffffffff8116811461207857600080fd5b919050565b803573ffffffffffffffffffffffffffffffffffffffff8116811461207857600080fd5b600080604083850312156120b457600080fd5b6120bd83612064565b91506120cb6020840161207d565b90509250929050565b6000602082840312156120e657600080fd5b611def8261207d565b7f4e487b7100000000000000000000000000000000000000000000000000000000600052604160045260246000fd5b604051601f82017fffffffffffffffffffffffffffffffffffffffffffffffffffffffffffffffe016810167ffffffffffffffff81118282101715612165576121656120ef565b604052919050565b600082601f83011261217e57600080fd5b8135602067ffffffffffffffff82111561219a5761219a6120ef565b8160051b6121a982820161211e565b92835284810182019282810190878511156121c357600080fd5b83870192505b84831015612006578235825291830191908301906121c9565b600080600080608085870312156121f857600080fd5b84359350602085013567ffffffffffffffff8082111561221757600080fd5b6122238883890161216d565b945060408701359150808216821461223a57600080fd5b509396929550929360600135925050565b60008060008060008060c0878903121561226457600080fd5b61226d87612064565b955061227b6020880161207d565b945061228960408801612064565b93506122976060880161207d565b92506080870135915060a087013590509295509295509295565b600067ffffffffffffffff8211156122cb576122cb6120ef565b50601f017fffffffffffffffffffffffffffffffffffffffffffffffffffffffffffffffe01660200190565b600082601f83011261230857600080fd5b813561231b612316826122b1565b61211e565b81815284602083860101111561233057600080fd5b816020850160208301376000918101602001919091529392505050565b6000806000806000806000806000806101408b8d03121561236d57600080fd5b8a3567ffffffffffffffff8082111561238557600080fd5b6123918e838f0161216d565b9b5061239f60208e01612064565b9a5060408d0135995060608d013598506123bb60808e01612064565b97506123c960a08e0161207d565b96506123d760c08e01612064565b95506123e560e08e0161207d565b94506101008d013593506101208d013591508082111561240457600080fd5b506124118d828e016122f7565b9150509295989b9194979a5092959850565b60006020828403121561243557600080fd5b5035919050565b6000806000806080858703121561245257600080fd5b61245b8561207d565b935061246960208601612064565b92506124776040860161207d565b9396929550929360600135925050565b7f4e487b7100000000000000000000000000000000000000000000000000000000600052603260045260246000fd5b7f4e487b7100000000000000000000000000000000000000000000000000000000600052601160045260246000fd5b60008261251b577f4e487b7100000000000000000000000000000000000000000000000000000000600052601260045260246000fd5b500490565b60007fffffffffffffffffffffffffffffffffffffffffffffffffffffffffffffffff8203612551576125516124b6565b5060010190565b60006020828403121561256a57600080fd5b5051919050565b60005b8381101561258c578181015183820152602001612574565b83811115611c0b5750506000910152565b600082516125af818460208701612571565b9190910192915050565b600082601f8301126125ca57600080fd5b81516125d8612316826122b1565b8181528460208386010111156125ed57600080fd5b611841826020830160208701612571565b805160ff8116811461207857600080fd5b60008060006060848603121561262457600080fd5b835167ffffffffffffffff8082111561263c57600080fd5b612648878388016125b9565b9450602086015191508082111561265e57600080fd5b5061266b868287016125b9565b92505061267a604085016125fe565b90509250925092565b6000815180845261269b816020860160208601612571565b601f017fffffffffffffffffffffffffffffffffffffffffffffffffffffffffffffffe0169290920160200192915050565b60a0815260006126e060a0830188612683565b82810360208401526126f28188612683565b60ff969096166040840152505073ffffffffffffffffffffffffffffffffffffffff92909216606083015260809091015292915050565b60006020828403121561273b57600080fd5b81518015158114611def57600080fd5b60006020828403121561275d57600080fd5b815167ffffffffffffffff81111561277457600080fd5b611841848285016125b9565b60006020828403121561279257600080fd5b611def826125fe565b6060815260006127ae6060830186612683565b82810360208401526127c08186612683565b91505060ff83166040830152949350505050565b600063ffffffff808a16835273ffffffffffffffffffffffffffffffffffffffff808a166020850152818916604085015280881660608501525085608084015260e060a084015261282860e0840186612683565b915080841660c08401525098975050505050505050565b600181815b8085111561289857817fffffffffffffffffffffffffffffffffffffffffffffffffffffffffffffffff0482111561287e5761287e6124b6565b8085161561288b57918102915b93841c9390800290612844565b509250929050565b6000826128af5750600161058b565b816128bc5750600061058b565b81600181146128d257600281146128dc576128f8565b600191505061058b565b60ff8411156128ed576128ed6124b6565b50506001821b61058b565b5060208310610133831016604e8410600b841016171561291b575081810a61058b565b612925838361283f565b807fffffffffffffffffffffffffffffffffffffffffffffffffffffffffffffffff04821115612957576129576124b6565b029392505050565b6000611def83836128a0565b60008282101561297d5761297d6124b6565b500390565b60008219821115612995576129956124b6565b500190565b7f4e487b7100000000000000000000000000000000000000000000000000000000600052600160045260246000fd5b602081526000611def602083018461268356fea2646970667358221220a4e04e41014ad7085bd7d328b8c9f0405b4688f5f4335432d4c01da270f9006264736f6c634300080f003360806040523480156200001157600080fd5b50600054610100900460ff1615808015620000335750600054600160ff909116105b8062000063575062000050306200013d60201b6200080a1760201c565b15801562000063575060005460ff166001145b620000cb5760405162461bcd60e51b815260206004820152602e60248201527f496e697469616c697a61626c653a20636f6e747261637420697320616c72656160448201526d191e481a5b9a5d1a585b1a5e995960921b606482015260840160405180910390fd5b6000805460ff191660011790558015620000ef576000805461ff0019166101001790555b801562000136576000805461ff0019169055604051600181527f7f26b83ff96e1f2b6a682f133852f6798a09c465da95921460cefb38474024989060200160405180910390a15b506200014c565b6001600160a01b03163b151590565b6116cd806200015c6000396000f3fe608060405234801561001057600080fd5b50600436106100f55760003560e01c80636c94522111610097578063a3c573eb11610066578063a3c573eb1461021c578063a457c2d714610261578063a9059cbb14610274578063dd62ed3e1461028757600080fd5b80636c945221146101b657806370a08231146101cb57806395d89b41146102015780639dc29fac1461020957600080fd5b806323b872dd116100d357806323b872dd1461014d578063313ce56714610160578063395093511461019057806340c10f19146101a357600080fd5b806306fdde03146100fa578063095ea7b31461011857806318160ddd1461013b575b600080fd5b6101026102cd565b60405161010f91906111c0565b60405180910390f35b61012b61012636600461125c565b61035f565b604051901515815260200161010f565b6035545b60405190815260200161010f565b61012b61015b366004611286565b610377565b60655474010000000000000000000000000000000000000000900460ff1660405160ff909116815260200161010f565b61012b61019e36600461125c565b61039b565b61012b6101b136600461125c565b6103e7565b6101c96101c436600461139c565b610483565b005b61013f6101d9366004611431565b73ffffffffffffffffffffffffffffffffffffffff1660009081526033602052604090205490565b61010261068e565b61012b61021736600461125c565b61069d565b60655461023c9073ffffffffffffffffffffffffffffffffffffffff1681565b60405173ffffffffffffffffffffffffffffffffffffffff909116815260200161010f565b61012b61026f36600461125c565b61072b565b61012b61028236600461125c565b6107fc565b61013f610295366004611453565b73ffffffffffffffffffffffffffffffffffffffff918216600090815260346020908152604080832093909416825291909152205490565b6060603680546102dc90611486565b80601f016020809104026020016040519081016040528092919081815260200182805461030890611486565b80156103555780601f1061032a57610100808354040283529160200191610355565b820191906000526020600020905b81548152906001019060200180831161033857829003601f168201915b5050505050905090565b60003361036d818585610826565b5060019392505050565b6000336103858582856109da565b610390858585610ab1565b506001949350505050565b33600081815260346020908152604080832073ffffffffffffffffffffffffffffffffffffffff8716845290915281205490919061036d90829086906103e2908790611508565b610826565b60655460009073ffffffffffffffffffffffffffffffffffffffff163314610470576040517f08c379a000000000000000000000000000000000000000000000000000000000815260206004820152601760248201527f546f6b656e577261707065643a4e4f545f42524944474500000000000000000060448201526064015b60405180910390fd5b61047a8383610d64565b50600192915050565b600054610100900460ff16158080156104a35750600054600160ff909116105b806104bd5750303b1580156104bd575060005460ff166001145b610549576040517f08c379a000000000000000000000000000000000000000000000000000000000815260206004820152602e60248201527f496e697469616c697a61626c653a20636f6e747261637420697320616c72656160448201527f647920696e697469616c697a65640000000000000000000000000000000000006064820152608401610467565b600080547fffffffffffffffffffffffffffffffffffffffffffffffffffffffffffffff0016600117905580156105a757600080547fffffffffffffffffffffffffffffffffffffffffffffffffffffffffffff00ff166101001790555b6105b18686610e85565b606580547fffffffffffffffffffffff00000000000000000000000000000000000000000016337fffffffffffffffffffffff00ffffffffffffffffffffffffffffffffffffffff16177401000000000000000000000000000000000000000060ff8716021790556106238383610d64565b801561068657600080547fffffffffffffffffffffffffffffffffffffffffffffffffffffffffffff00ff169055604051600181527f7f26b83ff96e1f2b6a682f133852f6798a09c465da95921460cefb38474024989060200160405180910390a15b505050505050565b6060603780546102dc90611486565b60655460009073ffffffffffffffffffffffffffffffffffffffff163314610721576040517f08c379a000000000000000000000000000000000000000000000000000000000815260206004820152601760248201527f546f6b656e577261707065643a4e4f545f4252494447450000000000000000006044820152606401610467565b61047a8383610f26565b33600081815260346020908152604080832073ffffffffffffffffffffffffffffffffffffffff87168452909152812054909190838110156107ef576040517f08c379a000000000000000000000000000000000000000000000000000000000815260206004820152602560248201527f45524332303a2064656372656173656420616c6c6f77616e63652062656c6f7760448201527f207a65726f0000000000000000000000000000000000000000000000000000006064820152608401610467565b6103908286868403610826565b60003361036d818585610ab1565b73ffffffffffffffffffffffffffffffffffffffff163b151590565b73ffffffffffffffffffffffffffffffffffffffff83166108c8576040517f08c379a0000000000000000000000000000000000000000000000000000000008152602060048201526024808201527f45524332303a20617070726f76652066726f6d20746865207a65726f2061646460448201527f72657373000000000000000000000000000000000000000000000000000000006064820152608401610467565b73ffffffffffffffffffffffffffffffffffffffff821661096b576040517f08c379a000000000000000000000000000000000000000000000000000000000815260206004820152602260248201527f45524332303a20617070726f766520746f20746865207a65726f20616464726560448201527f73730000000000000000000000000000000000000000000000000000000000006064820152608401610467565b73ffffffffffffffffffffffffffffffffffffffff83811660008181526034602090815260408083209487168084529482529182902085905590518481527f8c5be1e5ebec7d5bd14f71427d1e84f3dd0314c0f7b2291e5b200ac8c7c3b92591015b60405180910390a3505050565b73ffffffffffffffffffffffffffffffffffffffff8381166000908152603460209081526040808320938616835292905220547fffffffffffffffffffffffffffffffffffffffffffffffffffffffffffffffff8114610aab5781811015610a9e576040517f08c379a000000000000000000000000000000000000000000000000000000000815260206004820152601d60248201527f45524332303a20696e73756666696369656e7420616c6c6f77616e63650000006044820152606401610467565b610aab8484848403610826565b50505050565b73ffffffffffffffffffffffffffffffffffffffff8316610b54576040517f08c379a000000000000000000000000000000000000000000000000000000000815260206004820152602560248201527f45524332303a207472616e736665722066726f6d20746865207a65726f20616460448201527f64726573730000000000000000000000000000000000000000000000000000006064820152608401610467565b73ffffffffffffffffffffffffffffffffffffffff8216610bf7576040517f08c379a000000000000000000000000000000000000000000000000000000000815260206004820152602360248201527f45524332303a207472616e7366657220746f20746865207a65726f206164647260448201527f65737300000000000000000000000000000000000000000000000000000000006064820152608401610467565b73ffffffffffffffffffffffffffffffffffffffff831660009081526033602052604090205481811015610cad576040517f08c379a000000000000000000000000000000000000000000000000000000000815260206004820152602660248201527f45524332303a207472616e7366657220616d6f756e742065786365656473206260448201527f616c616e636500000000000000000000000000000000000000000000000000006064820152608401610467565b73ffffffffffffffffffffffffffffffffffffffff808516600090815260336020526040808220858503905591851681529081208054849290610cf1908490611508565b925050819055508273ffffffffffffffffffffffffffffffffffffffff168473ffffffffffffffffffffffffffffffffffffffff167fddf252ad1be2c89b69c2b068fc378daa952ba7f163c4a11628f55a4df523b3ef84604051610d5791815260200190565b60405180910390a3610aab565b73ffffffffffffffffffffffffffffffffffffffff8216610de1576040517f08c379a000000000000000000000000000000000000000000000000000000000815260206004820152601f60248201527f45524332303a206d696e7420746f20746865207a65726f2061646472657373006044820152606401610467565b8060356000828254610df39190611508565b909155505073ffffffffffffffffffffffffffffffffffffffff821660009081526033602052604081208054839290610e2d908490611508565b909155505060405181815273ffffffffffffffffffffffffffffffffffffffff8316906000907fddf252ad1be2c89b69c2b068fc378daa952ba7f163c4a11628f55a4df523b3ef9060200160405180910390a35b5050565b600054610100900460ff16610f1c576040517f08c379a000000000000000000000000000000000000000000000000000000000815260206004820152602b60248201527f496e697469616c697a61626c653a20636f6e7472616374206973206e6f74206960448201527f6e697469616c697a696e670000000000000000000000000000000000000000006064820152608401610467565b610e818282611110565b73ffffffffffffffffffffffffffffffffffffffff8216610fc9576040517f08c379a000000000000000000000000000000000000000000000000000000000815260206004820152602160248201527f45524332303a206275726e2066726f6d20746865207a65726f2061646472657360448201527f73000000000000000000000000000000000000000000000000000000000000006064820152608401610467565b73ffffffffffffffffffffffffffffffffffffffff82166000908152603360205260409020548181101561107f576040517f08c379a000000000000000000000000000000000000000000000000000000000815260206004820152602260248201527f45524332303a206275726e20616d6f756e7420657863656564732062616c616e60448201527f63650000000000000000000000000000000000000000000000000000000000006064820152608401610467565b73ffffffffffffffffffffffffffffffffffffffff831660009081526033602052604081208383039055603580548492906110bb908490611520565b909155505060405182815260009073ffffffffffffffffffffffffffffffffffffffff8516907fddf252ad1be2c89b69c2b068fc378daa952ba7f163c4a11628f55a4df523b3ef906020016109cd565b505050565b600054610100900460ff166111a7576040517f08c379a000000000000000000000000000000000000000000000000000000000815260206004820152602b60248201527f496e697469616c697a61626c653a20636f6e7472616374206973206e6f74206960448201527f6e697469616c697a696e670000000000000000000000000000000000000000006064820152608401610467565b60366111b3838261157d565b50603761110b828261157d565b600060208083528351808285015260005b818110156111ed578581018301518582016040015282016111d1565b818111156111ff576000604083870101525b50601f017fffffffffffffffffffffffffffffffffffffffffffffffffffffffffffffffe016929092016040019392505050565b803573ffffffffffffffffffffffffffffffffffffffff8116811461125757600080fd5b919050565b6000806040838503121561126f57600080fd5b61127883611233565b946020939093013593505050565b60008060006060848603121561129b57600080fd5b6112a484611233565b92506112b260208501611233565b9150604084013590509250925092565b7f4e487b7100000000000000000000000000000000000000000000000000000000600052604160045260246000fd5b600082601f83011261130257600080fd5b813567ffffffffffffffff8082111561131d5761131d6112c2565b604051601f83017fffffffffffffffffffffffffffffffffffffffffffffffffffffffffffffffe0908116603f01168101908282118183101715611363576113636112c2565b8160405283815286602085880101111561137c57600080fd5b836020870160208301376000602085830101528094505050505092915050565b600080600080600060a086880312156113b457600080fd5b853567ffffffffffffffff808211156113cc57600080fd5b6113d889838a016112f1565b965060208801359150808211156113ee57600080fd5b506113fb888289016112f1565b945050604086013560ff8116811461141257600080fd5b925061142060608701611233565b949793965091946080013592915050565b60006020828403121561144357600080fd5b61144c82611233565b9392505050565b6000806040838503121561146657600080fd5b61146f83611233565b915061147d60208401611233565b90509250929050565b600181811c9082168061149a57607f821691505b6020821081036114d3577f4e487b7100000000000000000000000000000000000000000000000000000000600052602260045260246000fd5b50919050565b7f4e487b7100000000000000000000000000000000000000000000000000000000600052601160045260246000fd5b6000821982111561151b5761151b6114d9565b500190565b600082821015611532576115326114d9565b500390565b601f82111561110b57600081815260208120601f850160051c8101602086101561155e5750805b601f850160051c820191505b818110156106865782815560010161156a565b815167ffffffffffffffff811115611597576115976112c2565b6115ab816115a58454611486565b84611537565b602080601f8311600181146115fe57600084156115c85750858301515b7fffffffffffffffffffffffffffffffffffffffffffffffffffffffffffffffff600386901b1c1916600185901b178555610686565b6000858152602081207fffffffffffffffffffffffffffffffffffffffffffffffffffffffffffffffe08616915b8281101561164b5788860151825594840194600190910190840161162c565b508582101561168757878501517fffffffffffffffffffffffffffffffffffffffffffffffffffffffffffffffff600388901b60f8161c191681555b5050505050600190811b0190555056fea264697066735822122015dd8047eba7f7221e0d7792549e5a01ba1b6dfaad0c6a70dc82ef386e0c5cc464736f6c634300080f0033",
  "linkReferences": {},
  "deployedLinkReferences": {}
}