{
  "_format": "hh-sol-artifact-1",
  "contractName": "BridgeMock",
  "sourceName": "contracts/mocks/BridgeMock.sol",
  "abi": [
    {
      "anonymous": false,
      "inputs": [
        {
          "indexed": false,
          "internalType": "uint8",
          "name": "leafType",
          "type": "uint8"
        },
        {
          "indexed": false,
          "internalType": "uint32",
          "name": "originNetwork",
          "type": "uint32"
        },
        {
          "indexed": false,
          "internalType": "address",
          "name": "originAddress",
          "type": "address"
        },
        {
          "indexed": false,
          "internalType": "uint32",
          "name": "destinationNetwork",
          "type": "uint32"
        },
        {
          "indexed": false,
          "internalType": "address",
          "name": "destinationAddress",
          "type": "address"
        },
        {
          "indexed": false,
          "internalType": "uint256",
          "name": "amount",
          "type": "uint256"
        },
        {
          "indexed": false,
          "internalType": "bytes",
          "name": "metadata",
          "type": "bytes"
        },
        {
          "indexed": false,
          "internalType": "uint32",
          "name": "depositCount",
          "type": "uint32"
        }
      ],
      "name": "BridgeEvent",
      "type": "event"
    },
    {
      "anonymous": false,
      "inputs": [
        {
          "indexed": false,
          "internalType": "uint32",
          "name": "index",
          "type": "uint32"
        },
        {
          "indexed": false,
          "internalType": "uint32",
          "name": "originNetwork",
          "type": "uint32"
        },
        {
          "indexed": false,
          "internalType": "address",
          "name": "originAddress",
          "type": "address"
        },
        {
          "indexed": false,
          "internalType": "address",
          "name": "destinationAddress",
          "type": "address"
        },
        {
          "indexed": false,
          "internalType": "uint256",
          "name": "amount",
          "type": "uint256"
        }
      ],
      "name": "ClaimEvent",
      "type": "event"
    },
    {
      "anonymous": false,
      "inputs": [],
      "name": "EmergencyStateActivated",
      "type": "event"
    },
    {
      "anonymous": false,
      "inputs": [],
      "name": "EmergencyStateDeactivated",
      "type": "event"
    },
    {
      "anonymous": false,
      "inputs": [
        {
          "indexed": false,
          "internalType": "uint8",
          "name": "version",
          "type": "uint8"
        }
      ],
      "name": "Initialized",
      "type": "event"
    },
    {
      "anonymous": false,
      "inputs": [
        {
          "indexed": false,
          "internalType": "uint32",
          "name": "originNetwork",
          "type": "uint32"
        },
        {
          "indexed": false,
          "internalType": "address",
          "name": "originTokenAddress",
          "type": "address"
        },
        {
          "indexed": false,
          "internalType": "address",
          "name": "wrappedTokenAddress",
          "type": "address"
        }
      ],
      "name": "NewWrappedToken",
      "type": "event"
    },
    {
      "anonymous": false,
      "inputs": [
        {
          "indexed": true,
          "internalType": "address",
          "name": "previousOwner",
          "type": "address"
        },
        {
          "indexed": true,
          "internalType": "address",
          "name": "newOwner",
          "type": "address"
        }
      ],
      "name": "OwnershipTransferred",
      "type": "event"
    },
    {
      "inputs": [],
      "name": "LEAF_TYPE_ASSET",
      "outputs": [
        {
          "internalType": "uint8",
          "name": "",
          "type": "uint8"
        }
      ],
      "stateMutability": "view",
      "type": "function"
    },
    {
      "inputs": [],
      "name": "LEAF_TYPE_MESSAGE",
      "outputs": [
        {
          "internalType": "uint8",
          "name": "",
          "type": "uint8"
        }
      ],
      "stateMutability": "view",
      "type": "function"
    },
    {
      "inputs": [],
      "name": "MAINNET_NETWORK_ID",
      "outputs": [
        {
          "internalType": "uint32",
          "name": "",
          "type": "uint32"
        }
      ],
      "stateMutability": "view",
      "type": "function"
    },
    {
      "inputs": [],
      "name": "activateEmergencyState",
      "outputs": [],
      "stateMutability": "nonpayable",
      "type": "function"
    },
    {
      "inputs": [
        {
          "internalType": "address",
          "name": "token",
          "type": "address"
        },
        {
          "internalType": "uint32",
          "name": "destinationNetwork",
          "type": "uint32"
        },
        {
          "internalType": "address",
          "name": "destinationAddress",
          "type": "address"
        },
        {
          "internalType": "uint256",
          "name": "amount",
          "type": "uint256"
        },
        {
          "internalType": "bytes",
          "name": "permitData",
          "type": "bytes"
        }
      ],
      "name": "bridgeAsset",
      "outputs": [],
      "stateMutability": "payable",
      "type": "function"
    },
    {
      "inputs": [
        {
          "internalType": "uint32",
          "name": "destinationNetwork",
          "type": "uint32"
        },
        {
          "internalType": "address",
          "name": "destinationAddress",
          "type": "address"
        },
        {
          "internalType": "bytes",
          "name": "metadata",
          "type": "bytes"
        }
      ],
      "name": "bridgeMessage",
      "outputs": [],
      "stateMutability": "payable",
      "type": "function"
    },
    {
      "inputs": [
        {
          "internalType": "bytes32[]",
          "name": "smtProof",
          "type": "bytes32[]"
        },
        {
          "internalType": "uint32",
          "name": "index",
          "type": "uint32"
        },
        {
          "internalType": "bytes32",
          "name": "mainnetExitRoot",
          "type": "bytes32"
        },
        {
          "internalType": "bytes32",
          "name": "rollupExitRoot",
          "type": "bytes32"
        },
        {
          "internalType": "uint32",
          "name": "originNetwork",
          "type": "uint32"
        },
        {
          "internalType": "address",
          "name": "originTokenAddress",
          "type": "address"
        },
        {
          "internalType": "uint32",
          "name": "destinationNetwork",
          "type": "uint32"
        },
        {
          "internalType": "address",
          "name": "destinationAddress",
          "type": "address"
        },
        {
          "internalType": "uint256",
          "name": "amount",
          "type": "uint256"
        },
        {
          "internalType": "bytes",
          "name": "metadata",
          "type": "bytes"
        }
      ],
      "name": "claimAsset",
      "outputs": [],
      "stateMutability": "nonpayable",
      "type": "function"
    },
    {
      "inputs": [
        {
          "internalType": "bytes32[]",
          "name": "smtProof",
          "type": "bytes32[]"
        },
        {
          "internalType": "uint32",
          "name": "index",
          "type": "uint32"
        },
        {
          "internalType": "bytes32",
          "name": "mainnetExitRoot",
          "type": "bytes32"
        },
        {
          "internalType": "bytes32",
          "name": "rollupExitRoot",
          "type": "bytes32"
        },
        {
          "internalType": "uint32",
          "name": "originNetwork",
          "type": "uint32"
        },
        {
          "internalType": "address",
          "name": "originAddress",
          "type": "address"
        },
        {
          "internalType": "uint32",
          "name": "destinationNetwork",
          "type": "uint32"
        },
        {
          "internalType": "address",
          "name": "destinationAddress",
          "type": "address"
        },
        {
          "internalType": "uint256",
          "name": "amount",
          "type": "uint256"
        },
        {
          "internalType": "bytes",
          "name": "metadata",
          "type": "bytes"
        }
      ],
      "name": "claimMessage",
      "outputs": [],
      "stateMutability": "nonpayable",
      "type": "function"
    },
    {
      "inputs": [
        {
          "internalType": "uint256",
          "name": "",
          "type": "uint256"
        }
      ],
      "name": "claimedBitMap",
      "outputs": [
        {
          "internalType": "uint256",
          "name": "",
          "type": "uint256"
        }
      ],
      "stateMutability": "view",
      "type": "function"
    },
    {
      "inputs": [],
      "name": "deactivateEmergencyState",
      "outputs": [],
      "stateMutability": "nonpayable",
      "type": "function"
    },
    {
      "inputs": [],
      "name": "depositCount",
      "outputs": [
        {
          "internalType": "uint256",
          "name": "",
          "type": "uint256"
        }
      ],
      "stateMutability": "view",
      "type": "function"
    },
    {
      "inputs": [],
      "name": "getDepositRoot",
      "outputs": [
        {
          "internalType": "bytes32",
          "name": "",
          "type": "bytes32"
        }
      ],
      "stateMutability": "view",
      "type": "function"
    },
    {
      "inputs": [
        {
          "internalType": "uint8",
          "name": "leafType",
          "type": "uint8"
        },
        {
          "internalType": "uint32",
          "name": "originNetwork",
          "type": "uint32"
        },
        {
          "internalType": "address",
          "name": "originAddress",
          "type": "address"
        },
        {
          "internalType": "uint32",
          "name": "destinationNetwork",
          "type": "uint32"
        },
        {
          "internalType": "address",
          "name": "destinationAddress",
          "type": "address"
        },
        {
          "internalType": "uint256",
          "name": "amount",
          "type": "uint256"
        },
        {
          "internalType": "bytes32",
          "name": "metadataHash",
          "type": "bytes32"
        }
      ],
      "name": "getLeafValue",
      "outputs": [
        {
          "internalType": "bytes32",
          "name": "",
          "type": "bytes32"
        }
      ],
      "stateMutability": "pure",
      "type": "function"
    },
    {
      "inputs": [
        {
          "internalType": "uint32",
          "name": "originNetwork",
          "type": "uint32"
        },
        {
          "internalType": "address",
          "name": "originTokenAddress",
          "type": "address"
        }
      ],
      "name": "getTokenWrappedAddress",
      "outputs": [
        {
          "internalType": "address",
          "name": "",
          "type": "address"
        }
      ],
      "stateMutability": "view",
      "type": "function"
    },
    {
      "inputs": [],
      "name": "globalExitRootManager",
      "outputs": [
        {
          "internalType": "contract IGlobalExitRootManager",
          "name": "",
          "type": "address"
        }
      ],
      "stateMutability": "view",
      "type": "function"
    },
    {
      "inputs": [
        {
          "internalType": "uint32",
          "name": "_networkID",
          "type": "uint32"
        },
        {
          "internalType": "contract IGlobalExitRootManager",
          "name": "_globalExitRootManager",
          "type": "address"
        },
        {
          "internalType": "address",
          "name": "_poeAddress",
          "type": "address"
        }
      ],
      "name": "initialize",
      "outputs": [],
      "stateMutability": "nonpayable",
      "type": "function"
    },
    {
      "inputs": [
        {
          "internalType": "uint256",
          "name": "index",
          "type": "uint256"
        }
      ],
      "name": "isClaimed",
      "outputs": [
        {
          "internalType": "bool",
          "name": "",
          "type": "bool"
        }
      ],
      "stateMutability": "view",
      "type": "function"
    },
    {
      "inputs": [],
      "name": "isEmergencyState",
      "outputs": [
        {
          "internalType": "bool",
          "name": "",
          "type": "bool"
        }
      ],
      "stateMutability": "view",
      "type": "function"
    },
    {
      "inputs": [],
      "name": "maxEtherBridge",
      "outputs": [
        {
          "internalType": "uint256",
          "name": "",
          "type": "uint256"
        }
      ],
      "stateMutability": "view",
      "type": "function"
    },
    {
      "inputs": [],
      "name": "networkID",
      "outputs": [
        {
          "internalType": "uint32",
          "name": "",
          "type": "uint32"
        }
      ],
      "stateMutability": "view",
      "type": "function"
    },
    {
      "inputs": [],
      "name": "owner",
      "outputs": [
        {
          "internalType": "address",
          "name": "",
          "type": "address"
        }
      ],
      "stateMutability": "view",
      "type": "function"
    },
    {
      "inputs": [],
      "name": "poeAddress",
      "outputs": [
        {
          "internalType": "address",
          "name": "",
          "type": "address"
        }
      ],
      "stateMutability": "view",
      "type": "function"
    },
    {
      "inputs": [
        {
          "internalType": "uint32",
          "name": "originNetwork",
          "type": "uint32"
        },
        {
          "internalType": "address",
          "name": "originTokenAddress",
          "type": "address"
        },
        {
          "internalType": "string",
          "name": "name",
          "type": "string"
        },
        {
          "internalType": "string",
          "name": "symbol",
          "type": "string"
        },
        {
          "internalType": "uint8",
          "name": "decimals",
          "type": "uint8"
        }
      ],
      "name": "precalculatedWrapperAddress",
      "outputs": [
        {
          "internalType": "address",
          "name": "",
          "type": "address"
        }
      ],
      "stateMutability": "view",
      "type": "function"
    },
    {
      "inputs": [],
      "name": "renounceOwnership",
      "outputs": [],
      "stateMutability": "nonpayable",
      "type": "function"
    },
    {
      "inputs": [
        {
          "internalType": "uint256",
          "name": "_maxEtherBridge",
          "type": "uint256"
        }
      ],
      "name": "setMaxEtherBridge",
      "outputs": [],
      "stateMutability": "nonpayable",
      "type": "function"
    },
    {
      "inputs": [
        {
          "internalType": "uint32",
          "name": "_networkID",
          "type": "uint32"
        }
      ],
      "name": "setNetworkID",
      "outputs": [],
      "stateMutability": "nonpayable",
      "type": "function"
    },
    {
      "inputs": [
        {
          "internalType": "bytes32",
          "name": "",
          "type": "bytes32"
        }
      ],
      "name": "tokenInfoToWrappedToken",
      "outputs": [
        {
          "internalType": "address",
          "name": "",
          "type": "address"
        }
      ],
      "stateMutability": "view",
      "type": "function"
    },
    {
      "inputs": [
        {
          "internalType": "address",
          "name": "newOwner",
          "type": "address"
        }
      ],
      "name": "transferOwnership",
      "outputs": [],
      "stateMutability": "nonpayable",
      "type": "function"
    },
    {
      "inputs": [
        {
          "internalType": "bytes32",
          "name": "leafHash",
          "type": "bytes32"
        },
        {
          "internalType": "bytes32[]",
          "name": "smtProof",
          "type": "bytes32[]"
        },
        {
          "internalType": "uint64",
          "name": "index",
          "type": "uint64"
        },
        {
          "internalType": "bytes32",
          "name": "root",
          "type": "bytes32"
        }
      ],
      "name": "verifyMerkleProof",
      "outputs": [
        {
          "internalType": "bool",
          "name": "",
          "type": "bool"
        }
      ],
      "stateMutability": "pure",
      "type": "function"
    },
    {
      "inputs": [
        {
          "internalType": "address",
          "name": "",
          "type": "address"
        }
      ],
      "name": "wrappedTokenToTokenInfo",
      "outputs": [
        {
          "internalType": "uint32",
          "name": "originNetwork",
          "type": "uint32"
        },
        {
          "internalType": "address",
          "name": "originTokenAddress",
          "type": "address"
        }
      ],
      "stateMutability": "view",
      "type": "function"
    }
  ],
  "bytecode": "0x608060405234801561001057600080fd5b50614ac4806100206000396000f3fe608060405260043610620001af5760003560e01c806381b1c17411620000e9578063bab161bf1162000090578063bab161bf1462000525578063d02103ca146200055a578063d96a15f7146200057c578063dbc169761462000593578063ed6be5c914620005ab578063ee25560b14620005c2578063f2fde38b14620005f3578063ff634ed7146200061857600080fd5b806381b1c174146200041d5780638da5cb5b14620004575780638f611519146200047757806391e57e2d14620004995780639e34070f14620004b1578063a08e8a0814620004d6578063aaa13cc2146200050057600080fd5b8063318aee3d116200015a578063318aee3d14620002c55780633ae0504714620003345780633da81682146200034c5780633e1970431462000371578063463855491462000396578063647c576c14620003bb578063715018a614620003e05780637b6323c114620003f857600080fd5b80630871e97114620001b457806315064c9614620001cd5780632072f6c514620001fe57806322e95f2c14620002165780632b5e42e714620002545780632c3f58cd14620002795780632dfdf0b5146200029e575b600080fd5b620001cb620001c5366004620026e8565b6200062f565b005b348015620001da57600080fd5b50602254620001e99060ff1681565b60405190151581526020015b60405180910390f35b3480156200020b57600080fd5b50620001cb620006d8565b3480156200022357600080fd5b506200023b6200023536600462002774565b62000711565b6040516001600160a01b039091168152602001620001f5565b3480156200026157600080fd5b50620001cb62000273366004620027b0565b62000764565b3480156200028657600080fd5b50620001cb62000298366004620027ca565b62000773565b348015620002ab57600080fd5b50620002b660215481565b604051908152602001620001f5565b348015620002d257600080fd5b506200030f620002e4366004620027ef565b608a6020526000908152604090205463ffffffff81169064010000000090046001600160a01b031682565b6040805163ffffffff90931683526001600160a01b03909116602083015201620001f5565b3480156200034157600080fd5b50620002b662000799565b3480156200035957600080fd5b50620001e96200036b366004620028d5565b6200088c565b3480156200037e57600080fd5b50620002b66200039036600462002952565b6200098d565b348015620003a357600080fd5b50620001cb620003b536600462002a62565b62000a1a565b348015620003c857600080fd5b50620001cb620003da36600462002b48565b62000bb3565b348015620003ed57600080fd5b50620001cb62000d23565b3480156200040557600080fd5b50620001cb6200041736600462002a62565b62000d39565b3480156200042a57600080fd5b506200023b6200043c366004620027b0565b6089602052600090815260409020546001600160a01b031681565b3480156200046457600080fd5b506055546001600160a01b03166200023b565b3480156200048457600080fd5b50608c546200023b906001600160a01b031681565b348015620004a657600080fd5b50620002b6608d5481565b348015620004be57600080fd5b50620001e9620004d0366004620027b0565b620011d4565b348015620004e357600080fd5b50620004ed600081565b60405160ff9091168152602001620001f5565b3480156200050d57600080fd5b506200023b6200051f36600462002b98565b62001219565b3480156200053257600080fd5b50608754620005449063ffffffff1681565b60405163ffffffff9091168152602001620001f5565b3480156200056757600080fd5b50608b546200023b906001600160a01b031681565b620001cb6200058d36600462002c4b565b62001330565b348015620005a057600080fd5b50620001cb62001481565b348015620005b857600080fd5b5062000544600081565b348015620005cf57600080fd5b50620002b6620005e1366004620027b0565b60886020526000908152604090205481565b3480156200060057600080fd5b50620001cb62000612366004620027ef565b620014b8565b3480156200062557600080fd5b50620004ed600181565b608d54341115620006c05760405162461bcd60e51b815260206004820152604a60248201527f4272696467653a3a6272696467653a2043616e6e6f7420627269646765206d6f60448201527f7265207468616e206d6178457468657242726964676520696e20696e7465726e606482015269185b081d195cdd1b995d60b21b608482015260a4015b60405180910390fd5b620006d086868686868662001537565b505050505050565b608c546001600160a01b03163314620007055760405162461bcd60e51b8152600401620006b79062002cb2565b6200070f62001965565b565b60006089600084846040516020016200072c92919062002d23565b60408051601f19818403018152918152815160209283012083529082019290925201600020546001600160a01b031690505b92915050565b6200076e620019c3565b608d55565b6200077d620019c3565b6087805463ffffffff191663ffffffff92909216919091179055565b602154600090819081805b6020811015620008835782600116600103620008045760018160208110620007d057620007d062002d4d565b0154604080516020810192909252810185905260600160405160208183030381529060405280519060200120935062000831565b60408051602081018690529081018390526060016040516020818303038152906040528051906020012093505b6200083e60028462002d8f565b604080516020810185905290810184905290935060600160405160208183030381529060405280519060200120915080806200087a9062002da6565b915050620007a4565b50919392505050565b6000846001600160401b038416825b60208110156200097e57816001166001036200090857868181518110620008c657620008c662002d4d565b602002602001015183604051602001620008ea929190918252602082015260400190565b6040516020818303038152906040528051906020012092506200095a565b828782815181106200091e576200091e62002d4d565b602002602001015160405160200162000941929190918252602082015260400190565b6040516020818303038152906040528051906020012092505b6200096760028362002d8f565b915080620009758162002da6565b9150506200089b565b5050821490505b949350505050565b6040516001600160f81b031960f889901b1660208201526001600160e01b031960e088811b821660218401526001600160601b0319606089811b821660258601529188901b909216603984015285901b16603d8201526051810183905260718101829052600090609101604051602081830303815290604052805190602001209050979650505050505050565b60225460ff161562000a405760405162461bcd60e51b8152600401620006b79062002dc2565b62000a568a8a8a8a8a8a8a8a8a8a600162001a1f565b62000a678963ffffffff1662001ca0565b6000836001600160a01b03168387898560405160240162000a8b9392919062002e87565b60408051601f198184030181529181526020820180516001600160e01b0316630c035af960e11b1790525162000ac2919062002ec2565b60006040518083038185875af1925050503d806000811462000b01576040519150601f19603f3d011682016040523d82523d6000602084013e62000b06565b606091505b505090508062000b655760405162461bcd60e51b8152602060048201526024808201527f4272696467653a3a636c61696d4d6573736167653a204d4553534147455f46416044820152631253115160e21b6064820152608401620006b7565b7f25308c93ceeed162da955b3f7ce3e3f93606579e40fb92029faa9efe275459838a8888878760405162000b9e95949392919062002ee0565b60405180910390a15050505050505050505050565b600054610100900460ff161580801562000bd45750600054600160ff909116105b8062000bf05750303b15801562000bf0575060005460ff166001145b62000c555760405162461bcd60e51b815260206004820152602e60248201527f496e697469616c697a61626c653a20636f6e747261637420697320616c72656160448201526d191e481a5b9a5d1a585b1a5e995960921b6064820152608401620006b7565b6000805460ff19166001179055801562000c79576000805461ff0019166101001790555b6087805463ffffffff861663ffffffff19909116179055608b80546001600160a01b038086166001600160a01b031992831617909255608c8054928516929091169190911790556703782dace9d90000608d5562000cd662001ce2565b801562000d1d576000805461ff0019169055604051600181527f7f26b83ff96e1f2b6a682f133852f6798a09c465da95921460cefb38474024989060200160405180910390a15b50505050565b62000d2d620019c3565b6200070f600062001d55565b60225460ff161562000d5f5760405162461bcd60e51b8152600401620006b79062002dc2565b62000d758a8a8a8a8a8a8a8a8a8a600062001a1f565b62000d868963ffffffff1662001ca0565b6001600160a01b03851662000e6f57604080516000808252602082019092526001600160a01b03851690849060405162000dc1919062002ec2565b60006040518083038185875af1925050503d806000811462000e00576040519150601f19603f3d011682016040523d82523d6000602084013e62000e05565b606091505b505090508062000e685760405162461bcd60e51b815260206004820152602760248201527f4272696467653a3a636c61696d41737365743a204554485f5452414e5346455260448201526617d1905253115160ca1b6064820152608401620006b7565b5062001187565b60875463ffffffff9081169087160362000e9f5762000e996001600160a01b038616848462001da7565b62001187565b6000868660405160200162000eb692919062002d23565b60408051601f198184030181529181528151602092830120600081815260899093529120549091506001600160a01b0316806200110c5760008060008580602001905181019062000f08919062002f63565b92509250925060008584848460405162000f229062002652565b62000f309392919062002fd8565b8190604051809103906000f590508015801562000f51573d6000803e3d6000fd5b506040516340c10f1960e01b81529091506001600160a01b038216906340c10f199062000f85908c908c9060040162003015565b6020604051808303816000875af115801562000fa5573d6000803e3d6000fd5b505050506040513d601f19601f8201168201806040525081019062000fcb91906200303d565b50806089600088815260200190815260200160002060006101000a8154816001600160a01b0302191690836001600160a01b0316021790555060405180604001604052808d63ffffffff1681526020018c6001600160a01b0316815250608a6000836001600160a01b03166001600160a01b0316815260200190815260200160002060008201518160000160006101000a81548163ffffffff021916908363ffffffff16021790555060208201518160000160046101000a8154816001600160a01b0302191690836001600160a01b031602179055509050507fccd7715648d1f2bb13e158f96b5b6c3aeda555d4cb87112e274a6f28bc571d598c8c83604051620010fa9392919063ffffffff9390931683526001600160a01b03918216602084015216604082015260600190565b60405180910390a15050505062001184565b6040516340c10f1960e01b81526001600160a01b038216906340c10f19906200113c908890889060040162003015565b6020604051808303816000875af11580156200115c573d6000803e3d6000fd5b505050506040513d601f19601f820116820180604052508101906200118291906200303d565b505b50505b7f25308c93ceeed162da955b3f7ce3e3f93606579e40fb92029faa9efe275459838987878686604051620011c095949392919062002ee0565b60405180910390a150505050505050505050565b600080620011e56101008462002d8f565b90506000620011f7610100856200305d565b60009283526088602052604090922054600190921b9182169091149392505050565b60008088886040516020016200123192919062002d23565b604051602081830303815290604052805190602001209050600060ff60f81b308360405180602001620012649062002652565b601f1982820381018352601f90910116604081905262001291908d908d908d908d908d906020016200309d565b60408051601f1981840301815290829052620012b19291602001620030de565b604051602081830303815290604052805190602001206040516020016200130a94939291906001600160f81b031994909416845260609290921b6001600160601b03191660018401526015830152603582015260550190565b60408051808303601f1901815291905280516020909101209a9950505050505050505050565b60225460ff1615620013565760405162461bcd60e51b8152600401620006b79062002dc2565b60875463ffffffff90811690841603620013845760405162461bcd60e51b8152600401620006b79062003111565b6087546021546040517f501781209a1f8899323b96b4ef08b168df93e0a90c673d1e4cce39366cb62f9b92620013d19260019263ffffffff9092169133918991899134918a91906200315b565b60405180910390a16200140e620014086001608760009054906101000a900463ffffffff163387873488805190602001206200098d565b62001e06565b608b546001600160a01b03166333d6247d6200142962000799565b6040518263ffffffff1660e01b81526004016200144891815260200190565b600060405180830381600087803b1580156200146357600080fd5b505af115801562001478573d6000803e3d6000fd5b50505050505050565b608c546001600160a01b03163314620014ae5760405162461bcd60e51b8152600401620006b79062002cb2565b6200070f62001f52565b620014c2620019c3565b6001600160a01b038116620015295760405162461bcd60e51b815260206004820152602660248201527f4f776e61626c653a206e6577206f776e657220697320746865207a65726f206160448201526564647265737360d01b6064820152608401620006b7565b620015348162001d55565b50565b60225460ff16156200155d5760405162461bcd60e51b8152600401620006b79062002dc2565b60875463ffffffff908116908616036200158b5760405162461bcd60e51b8152600401620006b79062003111565b60008060606001600160a01b0389166200161257853414620016085760405162461bcd60e51b815260206004820152602f60248201527f4272696467653a3a6272696467653a20414d4f554e545f444f45535f4e4f545f60448201526e4d415443485f4d53475f56414c554560881b6064820152608401620006b7565b6000915062001885565b6001600160a01b03808a166000908152608a602090815260409182902082518084019093525463ffffffff8116835264010000000090049092169181018290529015620016e257604051632770a7eb60e21b81526001600160a01b038b1690639dc29fac90620016899033908b9060040162003015565b6020604051808303816000875af1158015620016a9573d6000803e3d6000fd5b505050506040513d601f19601f82011682018060405250810190620016cf91906200303d565b5060208101518151909450925062001883565b8415620016f757620016f78a88888862002001565b6200170e6001600160a01b038b1633308a62002405565b899350608760009054906101000a900463ffffffff169250896001600160a01b03166306fdde036040518163ffffffff1660e01b8152600401600060405180830381865afa15801562001765573d6000803e3d6000fd5b505050506040513d6000823e601f3d908101601f191682016040526200178f9190810190620031c8565b8a6001600160a01b03166395d89b416040518163ffffffff1660e01b8152600401600060405180830381865afa158015620017ce573d6000803e3d6000fd5b505050506040513d6000823e601f3d908101601f19168201604052620017f89190810190620031c8565b8b6001600160a01b031663313ce5676040518163ffffffff1660e01b8152600401602060405180830381865afa15801562001837573d6000803e3d6000fd5b505050506040513d601f19601f820116820180604052508101906200185d919062003200565b604051602001620018719392919062002fd8565b60405160208183030381529060405291505b505b7f501781209a1f8899323b96b4ef08b168df93e0a90c673d1e4cce39366cb62f9b600083858b8b8b87602154604051620018c79897969594939291906200315b565b60405180910390a1620018ec62001408600084868c8c8c88805190602001206200098d565b608b546001600160a01b03166333d6247d6200190762000799565b6040518263ffffffff1660e01b81526004016200192691815260200190565b600060405180830381600087803b1580156200194157600080fd5b505af115801562001956573d6000803e3d6000fd5b50505050505050505050505050565b60225460ff16156200198b5760405162461bcd60e51b8152600401620006b79062002dc2565b6022805460ff191660011790556040517f2261efe5aef6fedc1fd1550b25facc9181745623049c7901287030b9ad1a549790600090a1565b6055546001600160a01b031633146200070f5760405162461bcd60e51b815260206004820181905260248201527f4f776e61626c653a2063616c6c6572206973206e6f7420746865206f776e65726044820152606401620006b7565b62001a308a63ffffffff16620011d4565b1562001a8b5760405162461bcd60e51b8152602060048201526024808201527f4272696467653a3a5f7665726966794c6561663a20414c52454144595f434c416044820152631253515160e21b6064820152608401620006b7565b608b546040805160208082018d90528183018c9052825180830384018152606083019384905280519101206312bd9b1960e11b90925260648101919091526000916001600160a01b03169063257b3632906084016020604051808303816000875af115801562001aff573d6000803e3d6000fd5b505050506040513d601f19601f8201168201806040525081019062001b25919062003220565b90508060000362001b8f5760405162461bcd60e51b815260206004820152602d60248201527f4272696467653a3a5f7665726966794c6561663a20474c4f42414c5f4558495460448201526c17d493d3d517d2539590531251609a1b6064820152608401620006b7565b60875463ffffffff87811691161462001c0b5760405162461bcd60e51b815260206004820152603760248201527f4272696467653a3a5f7665726966794c6561663a2044455354494e4154494f4e6044820152760be9c8aa8ae9ea496be889e8aa6be9c9ea8be9a82a8869604b1b6064820152608401620006b7565b60875460009063ffffffff1662001c2457508862001c27565b50895b62001c5262001c43848b8b8b8b8b8b805190602001206200098d565b8e8e63ffffffff16846200088c565b620019565760405162461bcd60e51b815260206004820181905260248201527f4272696467653a3a5f7665726966794c6561663a20534d545f494e56414c49446044820152606401620006b7565b600062001cb06101008362002d8f565b9050600062001cc2610100846200305d565b6000928352608860205260409092208054600190931b9092179091555050565b600054610100900460ff1662001d4f5760405162461bcd60e51b815260206004820152602b60248201527f496e697469616c697a61626c653a20636f6e7472616374206973206e6f74206960448201526a6e697469616c697a696e6760a81b6064820152608401620006b7565b6200070f335b605580546001600160a01b038381166001600160a01b0319831681179093556040519116919082907f8be0079c531659141344cd1fd0a4f28419497f9722a3daafe3b4186f6b6457e090600090a35050565b62001e018363a9059cbb60e01b848460405160240162001dc992919062003015565b60408051601f198184030181529190526020810180516001600160e01b03166001600160e01b0319909316929092179091526200243f565b505050565b80600162001e176020600262003337565b62001e23919062003345565b6021541062001e885760405162461bcd60e51b815260206004820152602a60248201527f4465706f736974436f6e74726163743a5f6465706f7369743a204d45524b4c4560448201526917d514915157d195531360b21b6064820152608401620006b7565b60016021600082825462001e9d91906200335f565b909155505060215460005b602081101562001f47578160011660010362001edd57826001826020811062001ed55762001ed562002d4d565b015550505050565b6001816020811062001ef35762001ef362002d4d565b0154604080516020810192909252810184905260600160405160208183030381529060405280519060200120925060028262001f30919062002d8f565b91508062001f3e8162002da6565b91505062001ea8565b5062001e016200337a565b60225460ff1662001fcc5760405162461bcd60e51b815260206004820152603b60248201527f456d657267656e63794d616e616765723a3a6966456d657267656e637953746160448201527f74653a206f6e6c7920696620656d657267656e637920737461746500000000006064820152608401620006b7565b6022805460ff191690556040517f1e5e34eea33501aecf2ebec9fe0e884a40804275ea7fe10b2ba084c8374308b390600090a1565b60006200204483838080601f0160208091040260200160405190810160405280939291908181526020018383808284376000920191909152506200251892505050565b9050632afa533160e01b6001600160e01b03198216016200222d57600080808080808062002076896004818d62003390565b810190620020859190620033bc565b9650965096509650965096509650336001600160a01b0316876001600160a01b031614620020c75760405162461bcd60e51b8152600401620006b79062003417565b6001600160a01b0386163014620020f25760405162461bcd60e51b8152600401620006b79062003467565b8a8514620021595760405162461bcd60e51b815260206004820152602d60248201527f4272696467653a3a5f7065726d69743a205045524d49545f414d4f554e545f4460448201526c09e8aa6be9c9ea8be9a82a8869609b1b6064820152608401620006b7565b604080516001600160a01b0389811660248301528881166044830152606482018890526084820187905260ff861660a483015260c4820185905260e48083018590528351808403909101815261010490920183526020820180516001600160e01b031663d505accf60e01b1790529151918e1691620021d9919062002ec2565b6000604051808303816000865af19150503d806000811462002218576040519150601f19603f3d011682016040523d82523d6000602084013e6200221d565b606091505b50505050505050505050620023fe565b6001600160e01b031981166323f2ebc360e21b146200228f5760405162461bcd60e51b815260206004820152601f60248201527f4272696467653a3a5f7065726d69743a204e4f545f56414c49445f43414c4c006044820152606401620006b7565b600080808080808080620022a78a6004818e62003390565b810190620022b69190620034ac565b97509750975097509750975097509750336001600160a01b0316886001600160a01b031614620022fa5760405162461bcd60e51b8152600401620006b79062003417565b6001600160a01b0387163014620023255760405162461bcd60e51b8152600401620006b79062003467565b604080516001600160a01b038a811660248301528981166044830152606482018990526084820188905286151560a483015260ff861660c483015260e482018590526101048083018590528351808403909101815261012490920183526020820180516001600160e01b03166323f2ebc360e21b1790529151918f1691620023ae919062002ec2565b6000604051808303816000865af19150503d8060008114620023ed576040519150601f19603f3d011682016040523d82523d6000602084013e620023f2565b606091505b50505050505050505050505b5050505050565b6040516001600160a01b038085166024830152831660448201526064810182905262000d1d9085906323b872dd60e01b9060840162001dc9565b600062002496826040518060400160405280602081526020017f5361666545524332303a206c6f772d6c6576656c2063616c6c206661696c6564815250856001600160a01b03166200251f9092919063ffffffff16565b80519091501562001e015780806020019051810190620024b791906200303d565b62001e015760405162461bcd60e51b815260206004820152602a60248201527f5361666545524332303a204552433230206f7065726174696f6e20646964206e6044820152691bdd081cdd58d8d9595960b21b6064820152608401620006b7565b6020015190565b606062000985848460008585600080866001600160a01b0316858760405162002549919062002ec2565b60006040518083038185875af1925050503d806000811462002588576040519150601f19603f3d011682016040523d82523d6000602084013e6200258d565b606091505b5091509150620025a087838387620025ab565b979650505050505050565b606083156200261f57825160000362002617576001600160a01b0385163b620026175760405162461bcd60e51b815260206004820152601d60248201527f416464726573733a2063616c6c20746f206e6f6e2d636f6e74726163740000006044820152606401620006b7565b508162000985565b620009858383815115620026365781518083602001fd5b8060405162461bcd60e51b8152600401620006b7919062003538565b611541806200354e83390190565b6001600160a01b03811681146200153457600080fd5b8035620026838162002660565b919050565b803563ffffffff811681146200268357600080fd5b60008083601f840112620026b057600080fd5b5081356001600160401b03811115620026c857600080fd5b602083019150836020828501011115620026e157600080fd5b9250929050565b60008060008060008060a087890312156200270257600080fd5b86356200270f8162002660565b95506200271f6020880162002688565b94506040870135620027318162002660565b93506060870135925060808701356001600160401b038111156200275457600080fd5b6200276289828a016200269d565b979a9699509497509295939492505050565b600080604083850312156200278857600080fd5b620027938362002688565b91506020830135620027a58162002660565b809150509250929050565b600060208284031215620027c357600080fd5b5035919050565b600060208284031215620027dd57600080fd5b620027e88262002688565b9392505050565b6000602082840312156200280257600080fd5b8135620027e88162002660565b634e487b7160e01b600052604160045260246000fd5b604051601f8201601f191681016001600160401b03811182821017156200285057620028506200280f565b604052919050565b600082601f8301126200286a57600080fd5b813560206001600160401b038211156200288857620028886200280f565b8160051b6200289982820162002825565b9283528481018201928281019087851115620028b457600080fd5b83870192505b84831015620025a057823582529183019190830190620028ba565b60008060008060808587031215620028ec57600080fd5b8435935060208501356001600160401b03808211156200290b57600080fd5b620029198883890162002858565b94506040870135915080821682146200293157600080fd5b509396929550929360600135925050565b60ff811681146200153457600080fd5b600080600080600080600060e0888a0312156200296e57600080fd5b87356200297b8162002942565b96506200298b6020890162002688565b955060408801356200299d8162002660565b9450620029ad6060890162002688565b93506080880135620029bf8162002660565b9699959850939692959460a0840135945060c09093013592915050565b60006001600160401b03821115620029f857620029f86200280f565b50601f01601f191660200190565b600082601f83011262002a1857600080fd5b813562002a2f62002a2982620029dc565b62002825565b81815284602083860101111562002a4557600080fd5b816020850160208301376000918101602001919091529392505050565b6000806000806000806000806000806101408b8d03121562002a8357600080fd5b8a356001600160401b038082111562002a9b57600080fd5b62002aa98e838f0162002858565b9b5062002ab960208e0162002688565b9a5060408d0135995060608d0135985062002ad760808e0162002688565b975062002ae760a08e0162002676565b965062002af760c08e0162002688565b955062002b0760e08e0162002676565b94506101008d013593506101208d013591508082111562002b2757600080fd5b5062002b368d828e0162002a06565b9150509295989b9194979a5092959850565b60008060006060848603121562002b5e57600080fd5b62002b698462002688565b9250602084013562002b7b8162002660565b9150604084013562002b8d8162002660565b809150509250925092565b600080600080600080600060a0888a03121562002bb457600080fd5b62002bbf8862002688565b9650602088013562002bd18162002660565b955060408801356001600160401b038082111562002bee57600080fd5b62002bfc8b838c016200269d565b909750955060608a013591508082111562002c1657600080fd5b5062002c258a828b016200269d565b909450925050608088013562002c3b8162002942565b8091505092959891949750929550565b60008060006060848603121562002c6157600080fd5b62002c6c8462002688565b9250602084013562002c7e8162002660565b915060408401356001600160401b0381111562002c9a57600080fd5b62002ca88682870162002a06565b9150509250925092565b6020808252604b908201527f50726f6f664f66456666696369656e63793a3a6f6e6c7950726f6f664f66456660408201527f66696369656e63793a206f6e6c792050726f6f66206f6620456666696369656e60608201526a18de4818dbdb9d1c9858dd60aa1b608082015260a00190565b60e09290921b6001600160e01b031916825260601b6001600160601b031916600482015260180190565b634e487b7160e01b600052603260045260246000fd5b634e487b7160e01b600052601260045260246000fd5b634e487b7160e01b600052601160045260246000fd5b60008262002da15762002da162002d63565b500490565b60006001820162002dbb5762002dbb62002d79565b5060010190565b60208082526042908201527f456d657267656e63794d616e616765723a3a69664e6f74456d657267656e637960408201527f53746174653a206f6e6c79206966206e6f7420656d657267656e637920737461606082015261746560f01b608082015260a00190565b60005b8381101562002e4757818101518382015260200162002e2d565b8381111562000d1d5750506000910152565b6000815180845262002e7381602086016020860162002e2a565b601f01601f19169290920160200192915050565b6001600160a01b038416815263ffffffff8316602082015260606040820181905260009062002eb99083018462002e59565b95945050505050565b6000825162002ed681846020870162002e2a565b9190910192915050565b63ffffffff95861681529390941660208401526001600160a01b039182166040840152166060820152608081019190915260a00190565b600082601f83011262002f2957600080fd5b815162002f3a62002a2982620029dc565b81815284602083860101111562002f5057600080fd5b6200098582602083016020870162002e2a565b60008060006060848603121562002f7957600080fd5b83516001600160401b038082111562002f9157600080fd5b62002f9f8783880162002f17565b9450602086015191508082111562002fb657600080fd5b5062002fc58682870162002f17565b925050604084015162002b8d8162002942565b60608152600062002fed606083018662002e59565b828103602084015262003001818662002e59565b91505060ff83166040830152949350505050565b6001600160a01b03929092168252602082015260400190565b80151581146200153457600080fd5b6000602082840312156200305057600080fd5b8151620027e8816200302e565b6000826200306f576200306f62002d63565b500690565b81835281816020850137506000828201602090810191909152601f909101601f19169091010190565b606081526000620030b360608301878962003074565b8281036020840152620030c881868862003074565b91505060ff831660408301529695505050505050565b60008351620030f281846020880162002e2a565b8351908301906200310881836020880162002e2a565b01949350505050565b6020808252602a908201527f4272696467653a3a6272696467653a2044455354494e4154494f4e5f43414e546040820152692fa122afa4aa29a2a62360b11b606082015260800190565b60ff8916815263ffffffff88811660208301526001600160a01b03888116604084015287821660608401528616608083015260a0820185905261010060c08301819052600091620031af8483018762002e59565b925080851660e085015250509998505050505050505050565b600060208284031215620031db57600080fd5b81516001600160401b03811115620031f257600080fd5b620009858482850162002f17565b6000602082840312156200321357600080fd5b8151620027e88162002942565b6000602082840312156200323357600080fd5b5051919050565b600181815b808511156200327b5781600019048211156200325f576200325f62002d79565b808516156200326d57918102915b93841c93908002906200323f565b509250929050565b60008262003294575060016200075e565b81620032a3575060006200075e565b8160018114620032bc5760028114620032c757620032e7565b60019150506200075e565b60ff841115620032db57620032db62002d79565b50506001821b6200075e565b5060208310610133831016604e8410600b84101617156200330c575081810a6200075e565b6200331883836200323a565b80600019048211156200332f576200332f62002d79565b029392505050565b6000620027e8838362003283565b6000828210156200335a576200335a62002d79565b500390565b6000821982111562003375576200337562002d79565b500190565b634e487b7160e01b600052600160045260246000fd5b60008085851115620033a157600080fd5b83861115620033af57600080fd5b5050820193919092039150565b600080600080600080600060e0888a031215620033d857600080fd5b8735620033e58162002660565b96506020880135620033f78162002660565b955060408801359450606088013593506080880135620029bf8162002942565b60208082526030908201527f4272696467653a3a5f7065726d69743a205045524d49545f4f574e45525f4d5560408201526f29aa2fa122afaa2422afa9a2a72222a960811b606082015260800190565b60208082526025908201527f4272696467653a3a5f7065726d69743a205350454e4445525f4d5553545f42456040820152645f5448495360d81b606082015260800190565b600080600080600080600080610100898b031215620034ca57600080fd5b8835620034d78162002660565b97506020890135620034e98162002660565b96506040890135955060608901359450608089013562003509816200302e565b935060a08901356200351b8162002942565b979a969950949793969295929450505060c08201359160e0013590565b602081526000620027e8602083018462002e5956fe60c06040523480156200001157600080fd5b5060405162001541380380620015418339810160408190526200003491620002ad565b82826003620000448382620003c1565b506004620000538282620003c1565b5050600580546001600160a81b0319163360ff60a01b191617600160a01b60ff851602179055504660808190526200008b9062000098565b60a052506200048d915050565b60007f8b73c3c69bb8fe3d512ecc4cf759cc79239f7b179b0ffacaa9a75d522b39400f620000c562000146565b805160209182012060408051808201825260018152603160f81b90840152805192830193909352918101919091527fc89efdaa54c0f20c7adf612882df0950f5a951637e0307cdcb4c672f298b8bc66060820152608081018390523060a082015260c001604051602081830303815290604052805190602001209050919050565b606060038054620001579062000332565b80601f0160208091040260200160405190810160405280929190818152602001828054620001859062000332565b8015620001d65780601f10620001aa57610100808354040283529160200191620001d6565b820191906000526020600020905b815481529060010190602001808311620001b857829003601f168201915b5050505050905090565b634e487b7160e01b600052604160045260246000fd5b600082601f8301126200020857600080fd5b81516001600160401b0380821115620002255762000225620001e0565b604051601f8301601f19908116603f01168101908282118183101715620002505762000250620001e0565b816040528381526020925086838588010111156200026d57600080fd5b600091505b8382101562000291578582018301518183018401529082019062000272565b83821115620002a35760008385830101525b9695505050505050565b600080600060608486031215620002c357600080fd5b83516001600160401b0380821115620002db57600080fd5b620002e987838801620001f6565b945060208601519150808211156200030057600080fd5b506200030f86828701620001f6565b925050604084015160ff811681146200032757600080fd5b809150509250925092565b600181811c908216806200034757607f821691505b6020821081036200036857634e487b7160e01b600052602260045260246000fd5b50919050565b601f821115620003bc57600081815260208120601f850160051c81016020861015620003975750805b601f850160051c820191505b81811015620003b857828155600101620003a3565b5050505b505050565b81516001600160401b03811115620003dd57620003dd620001e0565b620003f581620003ee845462000332565b846200036e565b602080601f8311600181146200042d5760008415620004145750858301515b600019600386901b1c1916600185901b178555620003b8565b600085815260208120601f198616915b828110156200045e578886015182559484019460019091019084016200043d565b50858210156200047d5787850151600019600388901b60f8161c191681555b5050505050600190811b01905550565b60805160a051611087620004ba60003960006104690152600081816102f7015261043301526110876000f3fe608060405234801561001057600080fd5b50600436106101375760003560e01c806370a08231116100b8578063a457c2d71161007c578063a457c2d7146102cc578063a9059cbb146102df578063cd0d0096146102f2578063d505accf14610319578063dd62ed3e1461032e578063ffa1ad741461034157600080fd5b806370a082311461023d5780637ecebe001461026657806395d89b41146102865780639dc29fac1461028e578063a3c573eb146102a157600080fd5b806330adf81f116100ff57806330adf81f146101c9578063313ce567146101f05780633644e5151461020f578063395093511461021757806340c10f191461022a57600080fd5b806306fdde031461013c578063095ea7b31461015a57806318160ddd1461017d57806320606b701461018f57806323b872dd146101b6575b600080fd5b610144610361565b6040516101519190610dcd565b60405180910390f35b61016d610168366004610e3e565b6103f3565b6040519015158152602001610151565b6002545b604051908152602001610151565b6101817f8b73c3c69bb8fe3d512ecc4cf759cc79239f7b179b0ffacaa9a75d522b39400f81565b61016d6101c4366004610e68565b61040b565b6101817f6e71edae12b1b97f4d1f60370fef10105fa2faae0126114a169c64845d6126c981565b600554600160a01b900460ff1660405160ff9091168152602001610151565b61018161042f565b61016d610225366004610e3e565b61048b565b61016d610238366004610e3e565b6104ad565b61018161024b366004610ea4565b6001600160a01b031660009081526020819052604090205490565b610181610274366004610ea4565b60066020526000908152604090205481565b6101446104f6565b61016d61029c366004610e3e565b610505565b6005546102b4906001600160a01b031681565b6040516001600160a01b039091168152602001610151565b61016d6102da366004610e3e565b61053c565b61016d6102ed366004610e3e565b6105b7565b6101817f000000000000000000000000000000000000000000000000000000000000000081565b61032c610327366004610ec6565b6105c5565b005b61018161033c366004610f39565b610800565b610144604051806040016040528060018152602001603160f81b81525081565b60606003805461037090610f6c565b80601f016020809104026020016040519081016040528092919081815260200182805461039c90610f6c565b80156103e95780601f106103be576101008083540402835291602001916103e9565b820191906000526020600020905b8154815290600101906020018083116103cc57829003601f168201915b5050505050905090565b60003361040181858561082b565b5060019392505050565b600033610419858285610950565b6104248585856109ca565b506001949350505050565b60007f000000000000000000000000000000000000000000000000000000000000000046146104665761046146610b5c565b905090565b507f000000000000000000000000000000000000000000000000000000000000000090565b60003361040181858561049e8383610800565b6104a89190610fbc565b61082b565b6005546000906001600160a01b031633146104e35760405162461bcd60e51b81526004016104da90610fd4565b60405180910390fd5b6104ed8383610c08565b50600192915050565b60606004805461037090610f6c565b6005546000906001600160a01b031633146105325760405162461bcd60e51b81526004016104da90610fd4565b6104ed8383610cb5565b6000338161054a8286610800565b9050838110156105aa5760405162461bcd60e51b815260206004820152602560248201527f45524332303a2064656372656173656420616c6c6f77616e63652062656c6f77604482015264207a65726f60d81b60648201526084016104da565b610424828686840361082b565b6000336104018185856109ca565b834211156106215760405162461bcd60e51b8152602060048201526024808201527f546f6b656e577261707065643a3a7065726d69743a20457870697265642070656044820152631c9b5a5d60e21b60648201526084016104da565b6001600160a01b038716600090815260066020526040812080547f6e71edae12b1b97f4d1f60370fef10105fa2faae0126114a169c64845d6126c9918a918a918a91908661066e83611018565b909155506040805160208101969096526001600160a01b0394851690860152929091166060840152608083015260a082015260c0810186905260e00160405160208183030381529060405280519060200120905060006106cc61042f565b60405161190160f01b602082015260228101919091526042810183905260620160408051601f198184030181528282528051602091820120600080855291840180845281905260ff89169284019290925260608301879052608083018690529092509060019060a0016020604051602081039080840390855afa158015610757573d6000803e3d6000fd5b5050604051601f1901519150506001600160a01b0381161580159061078d5750896001600160a01b0316816001600160a01b0316145b6107e95760405162461bcd60e51b815260206004820152602760248201527f546f6b656e577261707065643a3a7065726d69743a20496e76616c6964207369604482015266676e617475726560c81b60648201526084016104da565b6107f48a8a8a61082b565b50505050505050505050565b6001600160a01b03918216600090815260016020908152604080832093909416825291909152205490565b6001600160a01b03831661088d5760405162461bcd60e51b8152602060048201526024808201527f45524332303a20617070726f76652066726f6d20746865207a65726f206164646044820152637265737360e01b60648201526084016104da565b6001600160a01b0382166108ee5760405162461bcd60e51b815260206004820152602260248201527f45524332303a20617070726f766520746f20746865207a65726f206164647265604482015261737360f01b60648201526084016104da565b6001600160a01b0383811660008181526001602090815260408083209487168084529482529182902085905590518481527f8c5be1e5ebec7d5bd14f71427d1e84f3dd0314c0f7b2291e5b200ac8c7c3b92591015b60405180910390a3505050565b600061095c8484610800565b905060001981146109c457818110156109b75760405162461bcd60e51b815260206004820152601d60248201527f45524332303a20696e73756666696369656e7420616c6c6f77616e636500000060448201526064016104da565b6109c4848484840361082b565b50505050565b6001600160a01b038316610a2e5760405162461bcd60e51b815260206004820152602560248201527f45524332303a207472616e736665722066726f6d20746865207a65726f206164604482015264647265737360d81b60648201526084016104da565b6001600160a01b038216610a905760405162461bcd60e51b815260206004820152602360248201527f45524332303a207472616e7366657220746f20746865207a65726f206164647260448201526265737360e81b60648201526084016104da565b6001600160a01b03831660009081526020819052604090205481811015610b085760405162461bcd60e51b815260206004820152602660248201527f45524332303a207472616e7366657220616d6f756e7420657863656564732062604482015265616c616e636560d01b60648201526084016104da565b6001600160a01b0384811660008181526020818152604080832087870390559387168083529184902080548701905592518581529092600080516020611032833981519152910160405180910390a36109c4565b60007f8b73c3c69bb8fe3d512ecc4cf759cc79239f7b179b0ffacaa9a75d522b39400f610b87610361565b805160209182012060408051808201825260018152603160f81b90840152805192830193909352918101919091527fc89efdaa54c0f20c7adf612882df0950f5a951637e0307cdcb4c672f298b8bc66060820152608081018390523060a082015260c001604051602081830303815290604052805190602001209050919050565b6001600160a01b038216610c5e5760405162461bcd60e51b815260206004820152601f60248201527f45524332303a206d696e7420746f20746865207a65726f20616464726573730060448201526064016104da565b8060026000828254610c709190610fbc565b90915550506001600160a01b03821660008181526020818152604080832080548601905551848152600080516020611032833981519152910160405180910390a35050565b6001600160a01b038216610d155760405162461bcd60e51b815260206004820152602160248201527f45524332303a206275726e2066726f6d20746865207a65726f206164647265736044820152607360f81b60648201526084016104da565b6001600160a01b03821660009081526020819052604090205481811015610d895760405162461bcd60e51b815260206004820152602260248201527f45524332303a206275726e20616d6f756e7420657863656564732062616c616e604482015261636560f01b60648201526084016104da565b6001600160a01b0383166000818152602081815260408083208686039055600280548790039055518581529192916000805160206110328339815191529101610943565b600060208083528351808285015260005b81811015610dfa57858101830151858201604001528201610dde565b81811115610e0c576000604083870101525b50601f01601f1916929092016040019392505050565b80356001600160a01b0381168114610e3957600080fd5b919050565b60008060408385031215610e5157600080fd5b610e5a83610e22565b946020939093013593505050565b600080600060608486031215610e7d57600080fd5b610e8684610e22565b9250610e9460208501610e22565b9150604084013590509250925092565b600060208284031215610eb657600080fd5b610ebf82610e22565b9392505050565b600080600080600080600060e0888a031215610ee157600080fd5b610eea88610e22565b9650610ef860208901610e22565b95506040880135945060608801359350608088013560ff81168114610f1c57600080fd5b9699959850939692959460a0840135945060c09093013592915050565b60008060408385031215610f4c57600080fd5b610f5583610e22565b9150610f6360208401610e22565b90509250929050565b600181811c90821680610f8057607f821691505b602082108103610fa057634e487b7160e01b600052602260045260246000fd5b50919050565b634e487b7160e01b600052601160045260246000fd5b60008219821115610fcf57610fcf610fa6565b500190565b60208082526024908201527f546f6b656e577261707065643a3a6f6e6c794272696467653a204e4f545f42526040820152634944474560e01b606082015260800190565b60006001820161102a5761102a610fa6565b506001019056feddf252ad1be2c89b69c2b068fc378daa952ba7f163c4a11628f55a4df523b3efa2646970667358221220fb030b93be5baf7b1218e4d708c7099a5fd324956a9253cef07b734e3facedbd64736f6c634300080f0033a2646970667358221220f7ffaf9231f72ac131a6232121c760e62579f99e3e9c0824f8dfee283c8153e764736f6c634300080f0033",
  "linkReferences": {},
  "deployedLinkReferences": {}
}