{
  "_format": "hh-sol-artifact-1",
  "contractName": "BridgeMock",
  "sourceName": "contracts/mocks/BridgeMock.sol",
  "abi": [
    {
      "inputs": [
        {
          "internalType": "uint32",
          "name": "_networkID",
          "type": "uint32"
        },
        {
          "internalType": "contract IGlobalExitRootManager",
          "name": "_globalExitRootManager",
          "type": "address"
        }
      ],
      "stateMutability": "nonpayable",
      "type": "constructor"
    },
    {
      "anonymous": false,
      "inputs": [
        {
          "indexed": false,
          "internalType": "uint32",
          "name": "originNetwork",
          "type": "uint32"
        },
        {
          "indexed": false,
          "internalType": "address",
          "name": "originTokenAddress",
          "type": "address"
        },
        {
          "indexed": false,
          "internalType": "uint32",
          "name": "destinationNetwork",
          "type": "uint32"
        },
        {
          "indexed": false,
          "internalType": "address",
          "name": "destinationAddress",
          "type": "address"
        },
        {
          "indexed": false,
          "internalType": "uint256",
          "name": "amount",
          "type": "uint256"
        },
        {
          "indexed": false,
          "internalType": "bytes",
          "name": "metadata",
          "type": "bytes"
        },
        {
          "indexed": false,
          "internalType": "uint32",
          "name": "depositCount",
          "type": "uint32"
        }
      ],
      "name": "BridgeEvent",
      "type": "event"
    },
    {
      "anonymous": false,
      "inputs": [
        {
          "indexed": false,
          "internalType": "uint32",
          "name": "index",
          "type": "uint32"
        },
        {
          "indexed": false,
          "internalType": "uint32",
          "name": "originNetwork",
          "type": "uint32"
        },
        {
          "indexed": false,
          "internalType": "address",
          "name": "originTokenAddress",
          "type": "address"
        },
        {
          "indexed": false,
          "internalType": "address",
          "name": "destinationAddress",
          "type": "address"
        },
        {
          "indexed": false,
          "internalType": "uint256",
          "name": "amount",
          "type": "uint256"
        }
      ],
      "name": "ClaimEvent",
      "type": "event"
    },
    {
      "anonymous": false,
      "inputs": [
        {
          "indexed": false,
          "internalType": "uint32",
          "name": "originNetwork",
          "type": "uint32"
        },
        {
          "indexed": false,
          "internalType": "address",
          "name": "originTokenAddress",
          "type": "address"
        },
        {
          "indexed": false,
          "internalType": "address",
          "name": "wrappedTokenAddress",
          "type": "address"
        }
      ],
      "name": "NewWrappedToken",
      "type": "event"
    },
    {
      "anonymous": false,
      "inputs": [
        {
          "indexed": true,
          "internalType": "address",
          "name": "previousOwner",
          "type": "address"
        },
        {
          "indexed": true,
          "internalType": "address",
          "name": "newOwner",
          "type": "address"
        }
      ],
      "name": "OwnershipTransferred",
      "type": "event"
    },
    {
      "inputs": [],
      "name": "MAINNET_NETWORK_ID",
      "outputs": [
        {
          "internalType": "uint32",
          "name": "",
          "type": "uint32"
        }
      ],
      "stateMutability": "view",
      "type": "function"
    },
    {
      "inputs": [
        {
          "internalType": "address",
          "name": "token",
          "type": "address"
        },
        {
          "internalType": "uint32",
          "name": "destinationNetwork",
          "type": "uint32"
        },
        {
          "internalType": "address",
          "name": "destinationAddress",
          "type": "address"
        },
        {
          "internalType": "uint256",
          "name": "amount",
          "type": "uint256"
        }
      ],
      "name": "bridge",
      "outputs": [],
      "stateMutability": "payable",
      "type": "function"
    },
    {
      "inputs": [
        {
          "internalType": "bytes32[]",
          "name": "smtProof",
          "type": "bytes32[]"
        },
        {
          "internalType": "uint32",
          "name": "index",
          "type": "uint32"
        },
        {
          "internalType": "bytes32",
          "name": "mainnetExitRoot",
          "type": "bytes32"
        },
        {
          "internalType": "bytes32",
          "name": "rollupExitRoot",
          "type": "bytes32"
        },
        {
          "internalType": "uint32",
          "name": "originNetwork",
          "type": "uint32"
        },
        {
          "internalType": "address",
          "name": "originTokenAddress",
          "type": "address"
        },
        {
          "internalType": "uint32",
          "name": "destinationNetwork",
          "type": "uint32"
        },
        {
          "internalType": "address",
          "name": "destinationAddress",
          "type": "address"
        },
        {
          "internalType": "uint256",
          "name": "amount",
          "type": "uint256"
        },
        {
          "internalType": "bytes",
          "name": "metadata",
          "type": "bytes"
        }
      ],
      "name": "claim",
      "outputs": [],
      "stateMutability": "nonpayable",
      "type": "function"
    },
    {
      "inputs": [
        {
          "internalType": "uint256",
          "name": "",
          "type": "uint256"
        }
      ],
      "name": "claimNullifier",
      "outputs": [
        {
          "internalType": "bool",
          "name": "",
          "type": "bool"
        }
      ],
      "stateMutability": "view",
      "type": "function"
    },
    {
      "inputs": [],
      "name": "depositCount",
      "outputs": [
        {
          "internalType": "uint256",
          "name": "",
          "type": "uint256"
        }
      ],
      "stateMutability": "view",
      "type": "function"
    },
    {
      "inputs": [],
      "name": "getDepositRoot",
      "outputs": [
        {
          "internalType": "bytes32",
          "name": "",
          "type": "bytes32"
        }
      ],
      "stateMutability": "view",
      "type": "function"
    },
    {
      "inputs": [
        {
          "internalType": "uint32",
          "name": "originNetwork",
          "type": "uint32"
        },
        {
          "internalType": "address",
          "name": "originTokenAddress",
          "type": "address"
        },
        {
          "internalType": "uint32",
          "name": "destinationNetwork",
          "type": "uint32"
        },
        {
          "internalType": "address",
          "name": "destinationAddress",
          "type": "address"
        },
        {
          "internalType": "uint256",
          "name": "amount",
          "type": "uint256"
        },
        {
          "internalType": "bytes32",
          "name": "metadataHash",
          "type": "bytes32"
        }
      ],
      "name": "getLeafValue",
      "outputs": [
        {
          "internalType": "bytes32",
          "name": "",
          "type": "bytes32"
        }
      ],
      "stateMutability": "pure",
      "type": "function"
    },
    {
      "inputs": [
        {
          "internalType": "uint32",
          "name": "originNetwork",
          "type": "uint32"
        },
        {
          "internalType": "address",
          "name": "originTokenAddress",
          "type": "address"
        }
      ],
      "name": "getTokenWrappedAddress",
      "outputs": [
        {
          "internalType": "address",
          "name": "",
          "type": "address"
        }
      ],
      "stateMutability": "view",
      "type": "function"
    },
    {
      "inputs": [],
      "name": "globalExitRootManager",
      "outputs": [
        {
          "internalType": "contract IGlobalExitRootManager",
          "name": "",
          "type": "address"
        }
      ],
      "stateMutability": "view",
      "type": "function"
    },
    {
      "inputs": [],
      "name": "networkID",
      "outputs": [
        {
          "internalType": "uint32",
          "name": "",
          "type": "uint32"
        }
      ],
      "stateMutability": "view",
      "type": "function"
    },
    {
      "inputs": [],
      "name": "owner",
      "outputs": [
        {
          "internalType": "address",
          "name": "",
          "type": "address"
        }
      ],
      "stateMutability": "view",
      "type": "function"
    },
    {
      "inputs": [
        {
          "internalType": "uint32",
          "name": "originNetwork",
          "type": "uint32"
        },
        {
          "internalType": "address",
          "name": "originTokenAddress",
          "type": "address"
        }
      ],
      "name": "precalculatedWrapperAddress",
      "outputs": [
        {
          "internalType": "address",
          "name": "",
          "type": "address"
        }
      ],
      "stateMutability": "view",
      "type": "function"
    },
    {
      "inputs": [],
      "name": "pushCurrentRoot",
      "outputs": [],
      "stateMutability": "nonpayable",
      "type": "function"
    },
    {
      "inputs": [],
      "name": "renounceOwnership",
      "outputs": [],
      "stateMutability": "nonpayable",
      "type": "function"
    },
    {
      "inputs": [
        {
          "internalType": "uint32",
          "name": "_networkID",
          "type": "uint32"
        }
      ],
      "name": "setNetworkID",
      "outputs": [],
      "stateMutability": "nonpayable",
      "type": "function"
    },
    {
      "inputs": [],
      "name": "tokenImplementation",
      "outputs": [
        {
          "internalType": "address",
          "name": "",
          "type": "address"
        }
      ],
      "stateMutability": "view",
      "type": "function"
    },
    {
      "inputs": [
        {
          "internalType": "bytes32",
          "name": "",
          "type": "bytes32"
        }
      ],
      "name": "tokenInfoToWrappedToken",
      "outputs": [
        {
          "internalType": "address",
          "name": "",
          "type": "address"
        }
      ],
      "stateMutability": "view",
      "type": "function"
    },
    {
      "inputs": [
        {
          "internalType": "address",
          "name": "newOwner",
          "type": "address"
        }
      ],
      "name": "transferOwnership",
      "outputs": [],
      "stateMutability": "nonpayable",
      "type": "function"
    },
    {
      "inputs": [
        {
          "internalType": "bytes32",
          "name": "leafHash",
          "type": "bytes32"
        },
        {
          "internalType": "bytes32[]",
          "name": "smtProof",
          "type": "bytes32[]"
        },
        {
          "internalType": "uint64",
          "name": "index",
          "type": "uint64"
        },
        {
          "internalType": "bytes32",
          "name": "root",
          "type": "bytes32"
        }
      ],
      "name": "verifyMerkleProof",
      "outputs": [
        {
          "internalType": "bool",
          "name": "",
          "type": "bool"
        }
      ],
      "stateMutability": "pure",
      "type": "function"
    },
    {
      "inputs": [
        {
          "internalType": "address",
          "name": "",
          "type": "address"
        }
      ],
      "name": "wrappedTokenToTokenInfo",
      "outputs": [
        {
          "internalType": "uint32",
          "name": "originNetwork",
          "type": "uint32"
        },
        {
          "internalType": "address",
          "name": "originTokenAddress",
          "type": "address"
        }
      ],
      "stateMutability": "view",
      "type": "function"
    }
  ],
  "bytecode": "0x60a06040523480156200001157600080fd5b50604051620046d3380380620046d38339810160408190526200003491620001bf565b8181620000413362000161565b60005b620000526001602062000227565b811015620000ed576021816020811062000070576200007062000241565b01546021826020811062000088576200008862000241565b0154604080516020810193909352820152606001604051602081830303815290604052805190602001206021826001620000c3919062000257565b60208110620000d657620000d662000241565b015580620000e48162000272565b91505062000044565b506042805463ffffffff191663ffffffff8416179055604680546001600160a01b0319166001600160a01b0383161790556040516200012c90620001b1565b604051809103906000f08015801562000149573d6000803e3d6000fd5b506001600160a01b0316608052506200028e92505050565b600080546001600160a01b038381166001600160a01b0319831681178455604051919092169283917f8be0079c531659141344cd1fd0a4f28419497f9722a3daafe3b4186f6b6457e09190a35050565b6119488062002d8b83390190565b60008060408385031215620001d357600080fd5b825163ffffffff81168114620001e857600080fd5b60208401519092506001600160a01b03811681146200020657600080fd5b809150509250929050565b634e487b7160e01b600052601160045260246000fd5b6000828210156200023c576200023c62000211565b500390565b634e487b7160e01b600052603260045260246000fd5b600082198211156200026d576200026d62000211565b500190565b60006001820162000287576200028762000211565b5060010190565b608051612ad3620002b86000396000818161020601528181610f8801526118c80152612ad36000f3fe60806040526004361061015f5760003560e01c8063715018a6116100c0578063bab161bf11610074578063e737588111610059578063e7375881146104f4578063ed6be5c914610524578063f2fde38b1461053957600080fd5b8063bab161bf14610495578063d02103ca146104c757600080fd5b80638da5cb5b116100a55780638da5cb5b14610437578063b33f805914610462578063b7e6a7d41461047557600080fd5b8063715018a6146103df57806381b1c174146103f457600080fd5b80633ae0504711610117578063425d1afb116100fc578063425d1afb146102f15780635a64a1da146103065780635d5d326f146103bf57600080fd5b80633ae05047146102ac5780633da81682146102c157600080fd5b80632dfdf0b5116101485780632dfdf0b5146101d05780632f3a3d5d146101f4578063318aee3d1461022857600080fd5b806322e95f2c146101645780632c3f58cd146101ae575b600080fd5b34801561017057600080fd5b5061018461017f366004612147565b610559565b60405173ffffffffffffffffffffffffffffffffffffffff90911681526020015b60405180910390f35b3480156101ba57600080fd5b506101ce6101c936600461217a565b6105fc565b005b3480156101dc57600080fd5b506101e660415481565b6040519081526020016101a5565b34801561020057600080fd5b506101847f000000000000000000000000000000000000000000000000000000000000000081565b34801561023457600080fd5b5061027b610243366004612195565b60456020526000908152604090205463ffffffff811690640100000000900473ffffffffffffffffffffffffffffffffffffffff1682565b6040805163ffffffff909316835273ffffffffffffffffffffffffffffffffffffffff9091166020830152016101a5565b3480156102b857600080fd5b506101e661063b565b3480156102cd57600080fd5b506102e16102dc3660046122a3565b610707565b60405190151581526020016101a5565b3480156102fd57600080fd5b506101ce6107f7565b34801561031257600080fd5b506101e661032136600461230c565b604080517fffffffff0000000000000000000000000000000000000000000000000000000060e098891b81166020808401919091527fffffffffffffffffffffffffffffffffffffffff0000000000000000000000006060998a1b811660248501529790991b1660388201529390951b909316603c830152605082015260708082019290925282518082039092018252609001909152805191012090565b3480156103cb57600080fd5b506101ce6103da36600461240e565b61086f565b3480156103eb57600080fd5b506101ce6112fc565b34801561040057600080fd5b5061018461040f3660046124e4565b60446020526000908152604090205473ffffffffffffffffffffffffffffffffffffffff1681565b34801561044357600080fd5b5060005473ffffffffffffffffffffffffffffffffffffffff16610184565b6101ce6104703660046124fd565b611310565b34801561048157600080fd5b50610184610490366004612147565b611848565b3480156104a157600080fd5b506042546104b29063ffffffff1681565b60405163ffffffff90911681526020016101a5565b3480156104d357600080fd5b506046546101849073ffffffffffffffffffffffffffffffffffffffff1681565b34801561050057600080fd5b506102e161050f3660046124e4565b60436020526000908152604090205460ff1681565b34801561053057600080fd5b506104b2600081565b34801561054557600080fd5b506101ce610554366004612195565b6118f5565b6040805160e084901b7fffffffff0000000000000000000000000000000000000000000000000000000016602080830191909152606084901b7fffffffffffffffffffffffffffffffffffffffff000000000000000000000000166024830152825160188184030181526038909201835281519181019190912060009081526044909152205473ffffffffffffffffffffffffffffffffffffffff165b92915050565b6106046119ac565b604280547fffffffffffffffffffffffffffffffffffffffffffffffffffffffff000000001663ffffffff92909216919091179055565b6041546000908190815b60208110156106ff578160011660010361069f576001816020811061066c5761066c612548565b015460408051602081019290925281018490526060016040516020818303038152906040528051906020012092506106e0565b82602182602081106106b3576106b3612548565b01546040805160208101939093528201526060016040516020818303038152906040528051906020012092505b6106eb6002836125a6565b9150806106f7816125e1565b915050610645565b509092915050565b60008467ffffffffffffffff8416825b60208110156107ea578160011660010361077d5786818151811061073d5761073d612548565b602002602001015183604051602001610760929190918252602082015260400190565b6040516020818303038152906040528051906020012092506107cb565b8287828151811061079057610790612548565b60200260200101516040516020016107b2929190918252602082015260400190565b6040516020818303038152906040528051906020012092505b6107d66002836125a6565b9150806107e2816125e1565b915050610717565b5050909114949350505050565b60465473ffffffffffffffffffffffffffffffffffffffff166333d6247d61081d61063b565b6040518263ffffffff1660e01b815260040161083b91815260200190565b600060405180830381600087803b15801561085557600080fd5b505af1158015610869573d6000803e3d6000fd5b50505050565b63ffffffff891660009081526043602052604090205460ff16156108f4576040517f08c379a000000000000000000000000000000000000000000000000000000000815260206004820152601e60248201527f4272696467653a3a636c61696d3a20414c52454144595f434c41494d4544000060448201526064015b60405180910390fd5b6046546040805160208082018c90528183018b9052825180830384018152606083019384905280519101207f257b363200000000000000000000000000000000000000000000000000000000909252606481019190915273ffffffffffffffffffffffffffffffffffffffff9091169063257b3632906084016020604051808303816000875af115801561098c573d6000803e3d6000fd5b505050506040513d601f19601f820116820180604052508101906109b09190612619565b600003610a3f576040517f08c379a000000000000000000000000000000000000000000000000000000000815260206004820152602e60248201527f4272696467653a3a636c61696d3a20474c4f42414c5f455849545f524f4f545f60448201527f444f45535f4e4f545f4d4154434800000000000000000000000000000000000060648201526084016108eb565b60425463ffffffff858116911614610ad9576040517f08c379a000000000000000000000000000000000000000000000000000000000815260206004820152603160248201527f4272696467653a3a636c61696d3a2044455354494e4154494f4e5f4e4554574f60448201527f524b5f444f45535f4e4f545f4d4154434800000000000000000000000000000060648201526084016108eb565b60425463ffffffff16610c04578051602080830191909120604080517fffffffff0000000000000000000000000000000000000000000000000000000060e08b811b8216838701527fffffffffffffffffffffffffffffffffffffffff00000000000000000000000060608c811b82166024860152918b901b909216603884015288901b16603c820152605081018690526070808201939093528151808203909301835260900190528051910120610b99908b8b63ffffffff168a610707565b610bff576040517f08c379a000000000000000000000000000000000000000000000000000000000815260206004820152601a60248201527f4272696467653a3a636c61696d3a20534d545f494e56414c494400000000000060448201526064016108eb565b610d1d565b8051602080830191909120604080517fffffffff0000000000000000000000000000000000000000000000000000000060e08b811b8216838701527fffffffffffffffffffffffffffffffffffffffff00000000000000000000000060608c811b82166024860152918b901b909216603884015288901b16603c820152605081018690526070808201939093528151808203909301835260900190528051910120610cb7908b8b63ffffffff168b610707565b610d1d576040517f08c379a000000000000000000000000000000000000000000000000000000000815260206004820152601a60248201527f4272696467653a3a636c61696d3a20534d545f494e56414c494400000000000060448201526064016108eb565b63ffffffff8916600090815260436020526040902080547fffffffffffffffffffffffffffffffffffffffffffffffffffffffffffffff0016600117905573ffffffffffffffffffffffffffffffffffffffff8516610e86576040805160008082526020820190925273ffffffffffffffffffffffffffffffffffffffff8516908490604051610dad919061265e565b60006040518083038185875af1925050503d8060008114610dea576040519150601f19603f3d011682016040523d82523d6000602084013e610def565b606091505b5050905080610e80576040517f08c379a000000000000000000000000000000000000000000000000000000000815260206004820152602260248201527f4272696467653a3a636c61696d3a204554485f5452414e534645525f4641494c60448201527f454400000000000000000000000000000000000000000000000000000000000060648201526084016108eb565b50611285565b60425463ffffffff90811690871603610ebf57610eba73ffffffffffffffffffffffffffffffffffffffff86168484611a2d565b611285565b6040517fffffffff0000000000000000000000000000000000000000000000000000000060e088901b1660208201527fffffffffffffffffffffffffffffffffffffffff000000000000000000000000606087901b166024820152600090603801604080517fffffffffffffffffffffffffffffffffffffffffffffffffffffffffffffffe081840301815291815281516020928301206000818152604490935291205490915073ffffffffffffffffffffffffffffffffffffffff16806111e7576000610fad7f000000000000000000000000000000000000000000000000000000000000000084611b06565b9050600080600086806020019051810190610fc891906126d0565b9250925092508373ffffffffffffffffffffffffffffffffffffffff16636c9452218484848d8d6040518663ffffffff1660e01b815260040161100f95949392919061278e565b600060405180830381600087803b15801561102957600080fd5b505af115801561103d573d6000803e3d6000fd5b50505050836044600088815260200190815260200160002060006101000a81548173ffffffffffffffffffffffffffffffffffffffff021916908373ffffffffffffffffffffffffffffffffffffffff16021790555060405180604001604052808d63ffffffff1681526020018c73ffffffffffffffffffffffffffffffffffffffff16815250604560008673ffffffffffffffffffffffffffffffffffffffff1673ffffffffffffffffffffffffffffffffffffffff16815260200190815260200160002060008201518160000160006101000a81548163ffffffff021916908363ffffffff16021790555060208201518160000160046101000a81548173ffffffffffffffffffffffffffffffffffffffff021916908373ffffffffffffffffffffffffffffffffffffffff1602179055509050507fccd7715648d1f2bb13e158f96b5b6c3aeda555d4cb87112e274a6f28bc571d598c8c866040516111d69392919063ffffffff93909316835273ffffffffffffffffffffffffffffffffffffffff918216602084015216604082015260600190565b60405180910390a150505050611282565b6040517f40c10f1900000000000000000000000000000000000000000000000000000000815273ffffffffffffffffffffffffffffffffffffffff8681166004830152602482018690528216906340c10f19906044016020604051808303816000875af115801561125c573d6000803e3d6000fd5b505050506040513d601f19601f8201168201806040525081019061128091906127ea565b505b50505b6040805163ffffffff8b811682528816602082015273ffffffffffffffffffffffffffffffffffffffff87811682840152851660608201526080810184905290517f25308c93ceeed162da955b3f7ce3e3f93606579e40fb92029faa9efe275459839181900360a00190a150505050505050505050565b6113046119ac565b61130e6000611be4565b565b60425463ffffffff908116908416036113ab576040517f08c379a000000000000000000000000000000000000000000000000000000000815260206004820152602a60248201527f4272696467653a3a6272696467653a2044455354494e4154494f4e5f43414e5460448201527f5f42455f495453454c460000000000000000000000000000000000000000000060648201526084016108eb565b600080606073ffffffffffffffffffffffffffffffffffffffff87166114635783341461145a576040517f08c379a000000000000000000000000000000000000000000000000000000000815260206004820152602f60248201527f4272696467653a3a6272696467653a20414d4f554e545f444f45535f4e4f545f60448201527f4d415443485f4d53475f56414c5545000000000000000000000000000000000060648201526084016108eb565b60009150611750565b73ffffffffffffffffffffffffffffffffffffffff80881660009081526045602090815260409182902082518084019093525463ffffffff811683526401000000009004909216918101829052901561155f576040517f9dc29fac0000000000000000000000000000000000000000000000000000000081523360048201526024810186905273ffffffffffffffffffffffffffffffffffffffff891690639dc29fac906044016020604051808303816000875af1158015611529573d6000803e3d6000fd5b505050506040513d601f19601f8201168201806040525081019061154d91906127ea565b5060208101518151909450925061174e565b61158173ffffffffffffffffffffffffffffffffffffffff8916333088611c59565b879350604260009054906101000a900463ffffffff1692508773ffffffffffffffffffffffffffffffffffffffff166306fdde036040518163ffffffff1660e01b8152600401600060405180830381865afa1580156115e4573d6000803e3d6000fd5b505050506040513d6000823e601f3d9081017fffffffffffffffffffffffffffffffffffffffffffffffffffffffffffffffe016820160405261162a919081019061280c565b8873ffffffffffffffffffffffffffffffffffffffff166395d89b416040518163ffffffff1660e01b8152600401600060405180830381865afa158015611675573d6000803e3d6000fd5b505050506040513d6000823e601f3d9081017fffffffffffffffffffffffffffffffffffffffffffffffffffffffffffffffe01682016040526116bb919081019061280c565b8973ffffffffffffffffffffffffffffffffffffffff1663313ce5676040518163ffffffff1660e01b8152600401602060405180830381865afa158015611706573d6000803e3d6000fd5b505050506040513d601f19601f8201168201806040525081019061172a9190612841565b60405160200161173c9392919061285c565b60405160208183030381529060405291505b505b7ff0b963192bdc6349c23af9bd17294b4c7b9b5a73a2a9939610ea18ffd1c5dc2a82848888888660415460405161178d9796959493929190612895565b60405180910390a18051602080830191909120604080517fffffffff0000000000000000000000000000000000000000000000000000000060e087811b8216838701527fffffffffffffffffffffffffffffffffffffffff00000000000000000000000060608a811b82166024860152918d901b90921660388401528a901b16603c82015260508101889052607080820193909352815180820390930183526090019052805191012061183f90611cb7565b50505050505050565b6040517fffffffff0000000000000000000000000000000000000000000000000000000060e084901b1660208201527fffffffffffffffffffffffffffffffffffffffff000000000000000000000000606083901b16602482015260009081906038016040516020818303038152906040528051906020012090506118ed7f000000000000000000000000000000000000000000000000000000000000000082611e19565b949350505050565b6118fd6119ac565b73ffffffffffffffffffffffffffffffffffffffff81166119a0576040517f08c379a000000000000000000000000000000000000000000000000000000000815260206004820152602660248201527f4f776e61626c653a206e6577206f776e657220697320746865207a65726f206160448201527f646472657373000000000000000000000000000000000000000000000000000060648201526084016108eb565b6119a981611be4565b50565b60005473ffffffffffffffffffffffffffffffffffffffff16331461130e576040517f08c379a000000000000000000000000000000000000000000000000000000000815260206004820181905260248201527f4f776e61626c653a2063616c6c6572206973206e6f7420746865206f776e657260448201526064016108eb565b60405173ffffffffffffffffffffffffffffffffffffffff8316602482015260448101829052611b019084907fa9059cbb00000000000000000000000000000000000000000000000000000000906064015b604080517fffffffffffffffffffffffffffffffffffffffffffffffffffffffffffffffe08184030181529190526020810180517bffffffffffffffffffffffffffffffffffffffffffffffffffffffff167fffffffff0000000000000000000000000000000000000000000000000000000090931692909217909152611e9c565b505050565b60006040517f3d602d80600a3d3981f3363d3d373d3d3d363d7300000000000000000000000081528360601b60148201527f5af43d82803e903d91602b57fd5bf300000000000000000000000000000000006028820152826037826000f591505073ffffffffffffffffffffffffffffffffffffffff81166105f6576040517f08c379a000000000000000000000000000000000000000000000000000000000815260206004820152601760248201527f455243313136373a2063726561746532206661696c656400000000000000000060448201526064016108eb565b6000805473ffffffffffffffffffffffffffffffffffffffff8381167fffffffffffffffffffffffff0000000000000000000000000000000000000000831681178455604051919092169283917f8be0079c531659141344cd1fd0a4f28419497f9722a3daafe3b4186f6b6457e09190a35050565b60405173ffffffffffffffffffffffffffffffffffffffff808516602483015283166044820152606481018290526108699085907f23b872dd0000000000000000000000000000000000000000000000000000000090608401611a7f565b806001611cc660206002612a20565b611cd09190612a2c565b60415410611d60576040517f08c379a000000000000000000000000000000000000000000000000000000000815260206004820152602a60248201527f4465706f736974436f6e74726163743a5f6465706f7369743a204d45524b4c4560448201527f5f545245455f46554c4c0000000000000000000000000000000000000000000060648201526084016108eb565b600160416000828254611d739190612a43565b909155505060415460005b6020811015611e105781600116600103611dae578260018260208110611da657611da6612548565b015550505050565b60018160208110611dc157611dc1612548565b01546040805160208101929092528101849052606001604051602081830303815290604052805190602001209250600282611dfc91906125a6565b915080611e08816125e1565b915050611d7e565b50611b01612a5b565b6000611e958383306040517f3d602d80600a3d3981f3363d3d373d3d3d363d730000000000000000000000008152606093841b60148201527f5af43d82803e903d91602b57fd5bf3ff000000000000000000000000000000006028820152921b6038830152604c8201526037808220606c830152605591012090565b9392505050565b6000611efe826040518060400160405280602081526020017f5361666545524332303a206c6f772d6c6576656c2063616c6c206661696c65648152508573ffffffffffffffffffffffffffffffffffffffff16611fa89092919063ffffffff16565b805190915015611b015780806020019051810190611f1c91906127ea565b611b01576040517f08c379a000000000000000000000000000000000000000000000000000000000815260206004820152602a60248201527f5361666545524332303a204552433230206f7065726174696f6e20646964206e60448201527f6f7420737563636565640000000000000000000000000000000000000000000060648201526084016108eb565b60606118ed84846000858573ffffffffffffffffffffffffffffffffffffffff85163b612031576040517f08c379a000000000000000000000000000000000000000000000000000000000815260206004820152601d60248201527f416464726573733a2063616c6c20746f206e6f6e2d636f6e747261637400000060448201526064016108eb565b6000808673ffffffffffffffffffffffffffffffffffffffff16858760405161205a919061265e565b60006040518083038185875af1925050503d8060008114612097576040519150601f19603f3d011682016040523d82523d6000602084013e61209c565b606091505b50915091506120ac8282866120b7565b979650505050505050565b606083156120c6575081611e95565b8251156120d65782518084602001fd5b816040517f08c379a00000000000000000000000000000000000000000000000000000000081526004016108eb9190612a8a565b803563ffffffff8116811461211e57600080fd5b919050565b803573ffffffffffffffffffffffffffffffffffffffff8116811461211e57600080fd5b6000806040838503121561215a57600080fd5b6121638361210a565b915061217160208401612123565b90509250929050565b60006020828403121561218c57600080fd5b611e958261210a565b6000602082840312156121a757600080fd5b611e9582612123565b7f4e487b7100000000000000000000000000000000000000000000000000000000600052604160045260246000fd5b604051601f82017fffffffffffffffffffffffffffffffffffffffffffffffffffffffffffffffe016810167ffffffffffffffff81118282101715612226576122266121b0565b604052919050565b600082601f83011261223f57600080fd5b8135602067ffffffffffffffff82111561225b5761225b6121b0565b8160051b61226a8282016121df565b928352848101820192828101908785111561228457600080fd5b83870192505b848310156120ac5782358252918301919083019061228a565b600080600080608085870312156122b957600080fd5b84359350602085013567ffffffffffffffff808211156122d857600080fd5b6122e48883890161222e565b94506040870135915080821682146122fb57600080fd5b509396929550929360600135925050565b60008060008060008060c0878903121561232557600080fd5b61232e8761210a565b955061233c60208801612123565b945061234a6040880161210a565b935061235860608801612123565b92506080870135915060a087013590509295509295509295565b600067ffffffffffffffff82111561238c5761238c6121b0565b50601f017fffffffffffffffffffffffffffffffffffffffffffffffffffffffffffffffe01660200190565b600082601f8301126123c957600080fd5b81356123dc6123d782612372565b6121df565b8181528460208386010111156123f157600080fd5b816020850160208301376000918101602001919091529392505050565b6000806000806000806000806000806101408b8d03121561242e57600080fd5b8a3567ffffffffffffffff8082111561244657600080fd5b6124528e838f0161222e565b9b5061246060208e0161210a565b9a5060408d0135995060608d0135985061247c60808e0161210a565b975061248a60a08e01612123565b965061249860c08e0161210a565b95506124a660e08e01612123565b94506101008d013593506101208d01359150808211156124c557600080fd5b506124d28d828e016123b8565b9150509295989b9194979a5092959850565b6000602082840312156124f657600080fd5b5035919050565b6000806000806080858703121561251357600080fd5b61251c85612123565b935061252a6020860161210a565b925061253860408601612123565b9396929550929360600135925050565b7f4e487b7100000000000000000000000000000000000000000000000000000000600052603260045260246000fd5b7f4e487b7100000000000000000000000000000000000000000000000000000000600052601160045260246000fd5b6000826125dc577f4e487b7100000000000000000000000000000000000000000000000000000000600052601260045260246000fd5b500490565b60007fffffffffffffffffffffffffffffffffffffffffffffffffffffffffffffffff820361261257612612612577565b5060010190565b60006020828403121561262b57600080fd5b5051919050565b60005b8381101561264d578181015183820152602001612635565b838111156108695750506000910152565b60008251612670818460208701612632565b9190910192915050565b600082601f83011261268b57600080fd5b81516126996123d782612372565b8181528460208386010111156126ae57600080fd5b6118ed826020830160208701612632565b805160ff8116811461211e57600080fd5b6000806000606084860312156126e557600080fd5b835167ffffffffffffffff808211156126fd57600080fd5b6127098783880161267a565b9450602086015191508082111561271f57600080fd5b5061272c8682870161267a565b92505061273b604085016126bf565b90509250925092565b6000815180845261275c816020860160208601612632565b601f017fffffffffffffffffffffffffffffffffffffffffffffffffffffffffffffffe0169290920160200192915050565b60a0815260006127a160a0830188612744565b82810360208401526127b38188612744565b60ff969096166040840152505073ffffffffffffffffffffffffffffffffffffffff92909216606083015260809091015292915050565b6000602082840312156127fc57600080fd5b81518015158114611e9557600080fd5b60006020828403121561281e57600080fd5b815167ffffffffffffffff81111561283557600080fd5b6118ed8482850161267a565b60006020828403121561285357600080fd5b611e95826126bf565b60608152600061286f6060830186612744565b82810360208401526128818186612744565b91505060ff83166040830152949350505050565b600063ffffffff808a16835273ffffffffffffffffffffffffffffffffffffffff808a166020850152818916604085015280881660608501525085608084015260e060a08401526128e960e0840186612744565b915080841660c08401525098975050505050505050565b600181815b8085111561295957817fffffffffffffffffffffffffffffffffffffffffffffffffffffffffffffffff0482111561293f5761293f612577565b8085161561294c57918102915b93841c9390800290612905565b509250929050565b600082612970575060016105f6565b8161297d575060006105f6565b8160018114612993576002811461299d576129b9565b60019150506105f6565b60ff8411156129ae576129ae612577565b50506001821b6105f6565b5060208310610133831016604e8410600b84101617156129dc575081810a6105f6565b6129e68383612900565b807fffffffffffffffffffffffffffffffffffffffffffffffffffffffffffffffff04821115612a1857612a18612577565b029392505050565b6000611e958383612961565b600082821015612a3e57612a3e612577565b500390565b60008219821115612a5657612a56612577565b500190565b7f4e487b7100000000000000000000000000000000000000000000000000000000600052600160045260246000fd5b602081526000611e95602083018461274456fea264697066735822122096cbb7e044c004039242a3de03d54bb1cca09dde3898d8e19dd7f27c67faf2f564736f6c634300080f003360806040523480156200001157600080fd5b50600062000020600162000087565b9050801562000039576000805461ff0019166101001790555b801562000080576000805461ff0019169055604051600181527f7f26b83ff96e1f2b6a682f133852f6798a09c465da95921460cefb38474024989060200160405180910390a15b50620001a8565b60008054610100900460ff161562000120578160ff166001148015620000c05750620000be306200019960201b620007271760201c565b155b620001185760405162461bcd60e51b815260206004820152602e60248201526000805160206200192883398151915260448201526d191e481a5b9a5d1a585b1a5e995960921b60648201526084015b60405180910390fd5b506000919050565b60005460ff8084169116106200017f5760405162461bcd60e51b815260206004820152602e60248201526000805160206200192883398151915260448201526d191e481a5b9a5d1a585b1a5e995960921b60648201526084016200010f565b506000805460ff191660ff92909216919091179055600190565b6001600160a01b03163b151590565b61177080620001b86000396000f3fe608060405234801561001057600080fd5b50600436106100f55760003560e01c80636c94522111610097578063a3c573eb11610066578063a3c573eb1461021c578063a457c2d714610261578063a9059cbb14610274578063dd62ed3e1461028757600080fd5b80636c945221146101b657806370a08231146101cb57806395d89b41146102015780639dc29fac1461020957600080fd5b806323b872dd116100d357806323b872dd1461014d578063313ce56714610160578063395093511461019057806340c10f19146101a357600080fd5b806306fdde03146100fa578063095ea7b31461011857806318160ddd1461013b575b600080fd5b6101026102cd565b60405161010f9190611268565b60405180910390f35b61012b6101263660046112ff565b61035f565b604051901515815260200161010f565b6035545b60405190815260200161010f565b61012b61015b366004611329565b610377565b60655474010000000000000000000000000000000000000000900460ff1660405160ff909116815260200161010f565b61012b61019e3660046112ff565b61039b565b61012b6101b13660046112ff565b6103e7565b6101c96101c436600461143f565b610483565b005b61013f6101d93660046114d4565b73ffffffffffffffffffffffffffffffffffffffff1660009081526033602052604090205490565b6101026105ab565b61012b6102173660046112ff565b6105ba565b60655461023c9073ffffffffffffffffffffffffffffffffffffffff1681565b60405173ffffffffffffffffffffffffffffffffffffffff909116815260200161010f565b61012b61026f3660046112ff565b610648565b61012b6102823660046112ff565b610719565b61013f6102953660046114f6565b73ffffffffffffffffffffffffffffffffffffffff918216600090815260346020908152604080832093909416825291909152205490565b6060603680546102dc90611529565b80601f016020809104026020016040519081016040528092919081815260200182805461030890611529565b80156103555780601f1061032a57610100808354040283529160200191610355565b820191906000526020600020905b81548152906001019060200180831161033857829003601f168201915b5050505050905090565b60003361036d818585610743565b5060019392505050565b6000336103858582856108f7565b6103908585856109ce565b506001949350505050565b33600081815260346020908152604080832073ffffffffffffffffffffffffffffffffffffffff8716845290915281205490919061036d90829086906103e29087906115ab565b610743565b60655460009073ffffffffffffffffffffffffffffffffffffffff163314610470576040517f08c379a000000000000000000000000000000000000000000000000000000000815260206004820152601760248201527f546f6b656e577261707065643a4e4f545f42524944474500000000000000000060448201526064015b60405180910390fd5b61047a8383610c81565b50600192915050565b600061048f6001610da2565b905080156104c457600080547fffffffffffffffffffffffffffffffffffffffffffffffffffffffffffff00ff166101001790555b6104ce8686610f2d565b606580547fffffffffffffffffffffff00000000000000000000000000000000000000000016337fffffffffffffffffffffff00ffffffffffffffffffffffffffffffffffffffff16177401000000000000000000000000000000000000000060ff8716021790556105408383610c81565b80156105a357600080547fffffffffffffffffffffffffffffffffffffffffffffffffffffffffffff00ff169055604051600181527f7f26b83ff96e1f2b6a682f133852f6798a09c465da95921460cefb38474024989060200160405180910390a15b505050505050565b6060603780546102dc90611529565b60655460009073ffffffffffffffffffffffffffffffffffffffff16331461063e576040517f08c379a000000000000000000000000000000000000000000000000000000000815260206004820152601760248201527f546f6b656e577261707065643a4e4f545f4252494447450000000000000000006044820152606401610467565b61047a8383610fce565b33600081815260346020908152604080832073ffffffffffffffffffffffffffffffffffffffff871684529091528120549091908381101561070c576040517f08c379a000000000000000000000000000000000000000000000000000000000815260206004820152602560248201527f45524332303a2064656372656173656420616c6c6f77616e63652062656c6f7760448201527f207a65726f0000000000000000000000000000000000000000000000000000006064820152608401610467565b6103908286868403610743565b60003361036d8185856109ce565b73ffffffffffffffffffffffffffffffffffffffff163b151590565b73ffffffffffffffffffffffffffffffffffffffff83166107e5576040517f08c379a0000000000000000000000000000000000000000000000000000000008152602060048201526024808201527f45524332303a20617070726f76652066726f6d20746865207a65726f2061646460448201527f72657373000000000000000000000000000000000000000000000000000000006064820152608401610467565b73ffffffffffffffffffffffffffffffffffffffff8216610888576040517f08c379a000000000000000000000000000000000000000000000000000000000815260206004820152602260248201527f45524332303a20617070726f766520746f20746865207a65726f20616464726560448201527f73730000000000000000000000000000000000000000000000000000000000006064820152608401610467565b73ffffffffffffffffffffffffffffffffffffffff83811660008181526034602090815260408083209487168084529482529182902085905590518481527f8c5be1e5ebec7d5bd14f71427d1e84f3dd0314c0f7b2291e5b200ac8c7c3b92591015b60405180910390a3505050565b73ffffffffffffffffffffffffffffffffffffffff8381166000908152603460209081526040808320938616835292905220547fffffffffffffffffffffffffffffffffffffffffffffffffffffffffffffffff81146109c857818110156109bb576040517f08c379a000000000000000000000000000000000000000000000000000000000815260206004820152601d60248201527f45524332303a20696e73756666696369656e7420616c6c6f77616e63650000006044820152606401610467565b6109c88484848403610743565b50505050565b73ffffffffffffffffffffffffffffffffffffffff8316610a71576040517f08c379a000000000000000000000000000000000000000000000000000000000815260206004820152602560248201527f45524332303a207472616e736665722066726f6d20746865207a65726f20616460448201527f64726573730000000000000000000000000000000000000000000000000000006064820152608401610467565b73ffffffffffffffffffffffffffffffffffffffff8216610b14576040517f08c379a000000000000000000000000000000000000000000000000000000000815260206004820152602360248201527f45524332303a207472616e7366657220746f20746865207a65726f206164647260448201527f65737300000000000000000000000000000000000000000000000000000000006064820152608401610467565b73ffffffffffffffffffffffffffffffffffffffff831660009081526033602052604090205481811015610bca576040517f08c379a000000000000000000000000000000000000000000000000000000000815260206004820152602660248201527f45524332303a207472616e7366657220616d6f756e742065786365656473206260448201527f616c616e636500000000000000000000000000000000000000000000000000006064820152608401610467565b73ffffffffffffffffffffffffffffffffffffffff808516600090815260336020526040808220858503905591851681529081208054849290610c0e9084906115ab565b925050819055508273ffffffffffffffffffffffffffffffffffffffff168473ffffffffffffffffffffffffffffffffffffffff167fddf252ad1be2c89b69c2b068fc378daa952ba7f163c4a11628f55a4df523b3ef84604051610c7491815260200190565b60405180910390a36109c8565b73ffffffffffffffffffffffffffffffffffffffff8216610cfe576040517f08c379a000000000000000000000000000000000000000000000000000000000815260206004820152601f60248201527f45524332303a206d696e7420746f20746865207a65726f2061646472657373006044820152606401610467565b8060356000828254610d1091906115ab565b909155505073ffffffffffffffffffffffffffffffffffffffff821660009081526033602052604081208054839290610d4a9084906115ab565b909155505060405181815273ffffffffffffffffffffffffffffffffffffffff8316906000907fddf252ad1be2c89b69c2b068fc378daa952ba7f163c4a11628f55a4df523b3ef9060200160405180910390a35b5050565b60008054610100900460ff1615610e59578160ff166001148015610dc55750303b155b610e51576040517f08c379a000000000000000000000000000000000000000000000000000000000815260206004820152602e60248201527f496e697469616c697a61626c653a20636f6e747261637420697320616c72656160448201527f647920696e697469616c697a65640000000000000000000000000000000000006064820152608401610467565b506000919050565b60005460ff808416911610610ef0576040517f08c379a000000000000000000000000000000000000000000000000000000000815260206004820152602e60248201527f496e697469616c697a61626c653a20636f6e747261637420697320616c72656160448201527f647920696e697469616c697a65640000000000000000000000000000000000006064820152608401610467565b50600080547fffffffffffffffffffffffffffffffffffffffffffffffffffffffffffffff001660ff92909216919091179055600190565b919050565b600054610100900460ff16610fc4576040517f08c379a000000000000000000000000000000000000000000000000000000000815260206004820152602b60248201527f496e697469616c697a61626c653a20636f6e7472616374206973206e6f74206960448201527f6e697469616c697a696e670000000000000000000000000000000000000000006064820152608401610467565b610d9e82826111b8565b73ffffffffffffffffffffffffffffffffffffffff8216611071576040517f08c379a000000000000000000000000000000000000000000000000000000000815260206004820152602160248201527f45524332303a206275726e2066726f6d20746865207a65726f2061646472657360448201527f73000000000000000000000000000000000000000000000000000000000000006064820152608401610467565b73ffffffffffffffffffffffffffffffffffffffff821660009081526033602052604090205481811015611127576040517f08c379a000000000000000000000000000000000000000000000000000000000815260206004820152602260248201527f45524332303a206275726e20616d6f756e7420657863656564732062616c616e60448201527f63650000000000000000000000000000000000000000000000000000000000006064820152608401610467565b73ffffffffffffffffffffffffffffffffffffffff831660009081526033602052604081208383039055603580548492906111639084906115c3565b909155505060405182815260009073ffffffffffffffffffffffffffffffffffffffff8516907fddf252ad1be2c89b69c2b068fc378daa952ba7f163c4a11628f55a4df523b3ef906020016108ea565b505050565b600054610100900460ff1661124f576040517f08c379a000000000000000000000000000000000000000000000000000000000815260206004820152602b60248201527f496e697469616c697a61626c653a20636f6e7472616374206973206e6f74206960448201527f6e697469616c697a696e670000000000000000000000000000000000000000006064820152608401610467565b603661125b8382611620565b5060376111b38282611620565b600060208083528351808285015260005b8181101561129557858101830151858201604001528201611279565b818111156112a7576000604083870101525b50601f017fffffffffffffffffffffffffffffffffffffffffffffffffffffffffffffffe016929092016040019392505050565b803573ffffffffffffffffffffffffffffffffffffffff81168114610f2857600080fd5b6000806040838503121561131257600080fd5b61131b836112db565b946020939093013593505050565b60008060006060848603121561133e57600080fd5b611347846112db565b9250611355602085016112db565b9150604084013590509250925092565b7f4e487b7100000000000000000000000000000000000000000000000000000000600052604160045260246000fd5b600082601f8301126113a557600080fd5b813567ffffffffffffffff808211156113c0576113c0611365565b604051601f83017fffffffffffffffffffffffffffffffffffffffffffffffffffffffffffffffe0908116603f0116810190828211818310171561140657611406611365565b8160405283815286602085880101111561141f57600080fd5b836020870160208301376000602085830101528094505050505092915050565b600080600080600060a0868803121561145757600080fd5b853567ffffffffffffffff8082111561146f57600080fd5b61147b89838a01611394565b9650602088013591508082111561149157600080fd5b5061149e88828901611394565b945050604086013560ff811681146114b557600080fd5b92506114c3606087016112db565b949793965091946080013592915050565b6000602082840312156114e657600080fd5b6114ef826112db565b9392505050565b6000806040838503121561150957600080fd5b611512836112db565b9150611520602084016112db565b90509250929050565b600181811c9082168061153d57607f821691505b602082108103611576577f4e487b7100000000000000000000000000000000000000000000000000000000600052602260045260246000fd5b50919050565b7f4e487b7100000000000000000000000000000000000000000000000000000000600052601160045260246000fd5b600082198211156115be576115be61157c565b500190565b6000828210156115d5576115d561157c565b500390565b601f8211156111b357600081815260208120601f850160051c810160208610156116015750805b601f850160051c820191505b818110156105a35782815560010161160d565b815167ffffffffffffffff81111561163a5761163a611365565b61164e816116488454611529565b846115da565b602080601f8311600181146116a1576000841561166b5750858301515b7fffffffffffffffffffffffffffffffffffffffffffffffffffffffffffffffff600386901b1c1916600185901b1785556105a3565b6000858152602081207fffffffffffffffffffffffffffffffffffffffffffffffffffffffffffffffe08616915b828110156116ee578886015182559484019460019091019084016116cf565b508582101561172a57878501517fffffffffffffffffffffffffffffffffffffffffffffffffffffffffffffffff600388901b60f8161c191681555b5050505050600190811b0190555056fea26469706673582212203e2954977597952d1f25e63c2d508e9e327dc004c141323911de5897253a0d9864736f6c634300080f0033496e697469616c697a61626c653a20636f6e747261637420697320616c726561",
  "linkReferences": {},
  "deployedLinkReferences": {}
}