{
  "_format": "hh-sol-artifact-1",
  "contractName": "Bridge",
  "sourceName": "contracts/Bridge.sol",
  "abi": [
    {
      "anonymous": false,
      "inputs": [
        {
          "indexed": false,
          "internalType": "uint8",
          "name": "leafType",
          "type": "uint8"
        },
        {
          "indexed": false,
          "internalType": "uint32",
          "name": "originNetwork",
          "type": "uint32"
        },
        {
          "indexed": false,
          "internalType": "address",
          "name": "originAddress",
          "type": "address"
        },
        {
          "indexed": false,
          "internalType": "uint32",
          "name": "destinationNetwork",
          "type": "uint32"
        },
        {
          "indexed": false,
          "internalType": "address",
          "name": "destinationAddress",
          "type": "address"
        },
        {
          "indexed": false,
          "internalType": "uint256",
          "name": "amount",
          "type": "uint256"
        },
        {
          "indexed": false,
          "internalType": "bytes",
          "name": "metadata",
          "type": "bytes"
        },
        {
          "indexed": false,
          "internalType": "uint32",
          "name": "depositCount",
          "type": "uint32"
        }
      ],
      "name": "BridgeEvent",
      "type": "event"
    },
    {
      "anonymous": false,
      "inputs": [
        {
          "indexed": false,
          "internalType": "uint32",
          "name": "index",
          "type": "uint32"
        },
        {
          "indexed": false,
          "internalType": "uint32",
          "name": "originNetwork",
          "type": "uint32"
        },
        {
          "indexed": false,
          "internalType": "address",
          "name": "originAddress",
          "type": "address"
        },
        {
          "indexed": false,
          "internalType": "address",
          "name": "destinationAddress",
          "type": "address"
        },
        {
          "indexed": false,
          "internalType": "uint256",
          "name": "amount",
          "type": "uint256"
        }
      ],
      "name": "ClaimEvent",
      "type": "event"
    },
    {
      "anonymous": false,
      "inputs": [],
      "name": "EmergencyStateActivated",
      "type": "event"
    },
    {
      "anonymous": false,
      "inputs": [],
      "name": "EmergencyStateDeactivated",
      "type": "event"
    },
    {
      "anonymous": false,
      "inputs": [
        {
          "indexed": false,
          "internalType": "uint8",
          "name": "version",
          "type": "uint8"
        }
      ],
      "name": "Initialized",
      "type": "event"
    },
    {
      "anonymous": false,
      "inputs": [
        {
          "indexed": false,
          "internalType": "uint32",
          "name": "originNetwork",
          "type": "uint32"
        },
        {
          "indexed": false,
          "internalType": "address",
          "name": "originTokenAddress",
          "type": "address"
        },
        {
          "indexed": false,
          "internalType": "address",
          "name": "wrappedTokenAddress",
          "type": "address"
        }
      ],
      "name": "NewWrappedToken",
      "type": "event"
    },
    {
      "inputs": [],
      "name": "LEAF_TYPE_ASSET",
      "outputs": [
        {
          "internalType": "uint8",
          "name": "",
          "type": "uint8"
        }
      ],
      "stateMutability": "view",
      "type": "function"
    },
    {
      "inputs": [],
      "name": "LEAF_TYPE_MESSAGE",
      "outputs": [
        {
          "internalType": "uint8",
          "name": "",
          "type": "uint8"
        }
      ],
      "stateMutability": "view",
      "type": "function"
    },
    {
      "inputs": [],
      "name": "MAINNET_NETWORK_ID",
      "outputs": [
        {
          "internalType": "uint32",
          "name": "",
          "type": "uint32"
        }
      ],
      "stateMutability": "view",
      "type": "function"
    },
    {
      "inputs": [],
      "name": "activateEmergencyState",
      "outputs": [],
      "stateMutability": "nonpayable",
      "type": "function"
    },
    {
      "inputs": [
        {
          "internalType": "address",
          "name": "token",
          "type": "address"
        },
        {
          "internalType": "uint32",
          "name": "destinationNetwork",
          "type": "uint32"
        },
        {
          "internalType": "address",
          "name": "destinationAddress",
          "type": "address"
        },
        {
          "internalType": "uint256",
          "name": "amount",
          "type": "uint256"
        },
        {
          "internalType": "bytes",
          "name": "permitData",
          "type": "bytes"
        }
      ],
      "name": "bridgeAsset",
      "outputs": [],
      "stateMutability": "payable",
      "type": "function"
    },
    {
      "inputs": [
        {
          "internalType": "uint32",
          "name": "destinationNetwork",
          "type": "uint32"
        },
        {
          "internalType": "address",
          "name": "destinationAddress",
          "type": "address"
        },
        {
          "internalType": "bytes",
          "name": "metadata",
          "type": "bytes"
        }
      ],
      "name": "bridgeMessage",
      "outputs": [],
      "stateMutability": "payable",
      "type": "function"
    },
    {
      "inputs": [
        {
          "internalType": "bytes32[]",
          "name": "smtProof",
          "type": "bytes32[]"
        },
        {
          "internalType": "uint32",
          "name": "index",
          "type": "uint32"
        },
        {
          "internalType": "bytes32",
          "name": "mainnetExitRoot",
          "type": "bytes32"
        },
        {
          "internalType": "bytes32",
          "name": "rollupExitRoot",
          "type": "bytes32"
        },
        {
          "internalType": "uint32",
          "name": "originNetwork",
          "type": "uint32"
        },
        {
          "internalType": "address",
          "name": "originTokenAddress",
          "type": "address"
        },
        {
          "internalType": "uint32",
          "name": "destinationNetwork",
          "type": "uint32"
        },
        {
          "internalType": "address",
          "name": "destinationAddress",
          "type": "address"
        },
        {
          "internalType": "uint256",
          "name": "amount",
          "type": "uint256"
        },
        {
          "internalType": "bytes",
          "name": "metadata",
          "type": "bytes"
        }
      ],
      "name": "claimAsset",
      "outputs": [],
      "stateMutability": "nonpayable",
      "type": "function"
    },
    {
      "inputs": [
        {
          "internalType": "bytes32[]",
          "name": "smtProof",
          "type": "bytes32[]"
        },
        {
          "internalType": "uint32",
          "name": "index",
          "type": "uint32"
        },
        {
          "internalType": "bytes32",
          "name": "mainnetExitRoot",
          "type": "bytes32"
        },
        {
          "internalType": "bytes32",
          "name": "rollupExitRoot",
          "type": "bytes32"
        },
        {
          "internalType": "uint32",
          "name": "originNetwork",
          "type": "uint32"
        },
        {
          "internalType": "address",
          "name": "originAddress",
          "type": "address"
        },
        {
          "internalType": "uint32",
          "name": "destinationNetwork",
          "type": "uint32"
        },
        {
          "internalType": "address",
          "name": "destinationAddress",
          "type": "address"
        },
        {
          "internalType": "uint256",
          "name": "amount",
          "type": "uint256"
        },
        {
          "internalType": "bytes",
          "name": "metadata",
          "type": "bytes"
        }
      ],
      "name": "claimMessage",
      "outputs": [],
      "stateMutability": "nonpayable",
      "type": "function"
    },
    {
      "inputs": [
        {
          "internalType": "uint256",
          "name": "",
          "type": "uint256"
        }
      ],
      "name": "claimNullifier",
      "outputs": [
        {
          "internalType": "bool",
          "name": "",
          "type": "bool"
        }
      ],
      "stateMutability": "view",
      "type": "function"
    },
    {
      "inputs": [],
      "name": "deactivateEmergencyState",
      "outputs": [],
      "stateMutability": "nonpayable",
      "type": "function"
    },
    {
      "inputs": [],
      "name": "depositCount",
      "outputs": [
        {
          "internalType": "uint256",
          "name": "",
          "type": "uint256"
        }
      ],
      "stateMutability": "view",
      "type": "function"
    },
    {
      "inputs": [],
      "name": "getDepositRoot",
      "outputs": [
        {
          "internalType": "bytes32",
          "name": "",
          "type": "bytes32"
        }
      ],
      "stateMutability": "view",
      "type": "function"
    },
    {
      "inputs": [
        {
          "internalType": "uint8",
          "name": "leafType",
          "type": "uint8"
        },
        {
          "internalType": "uint32",
          "name": "originNetwork",
          "type": "uint32"
        },
        {
          "internalType": "address",
          "name": "originAddress",
          "type": "address"
        },
        {
          "internalType": "uint32",
          "name": "destinationNetwork",
          "type": "uint32"
        },
        {
          "internalType": "address",
          "name": "destinationAddress",
          "type": "address"
        },
        {
          "internalType": "uint256",
          "name": "amount",
          "type": "uint256"
        },
        {
          "internalType": "bytes32",
          "name": "metadataHash",
          "type": "bytes32"
        }
      ],
      "name": "getLeafValue",
      "outputs": [
        {
          "internalType": "bytes32",
          "name": "",
          "type": "bytes32"
        }
      ],
      "stateMutability": "pure",
      "type": "function"
    },
    {
      "inputs": [
        {
          "internalType": "uint32",
          "name": "originNetwork",
          "type": "uint32"
        },
        {
          "internalType": "address",
          "name": "originTokenAddress",
          "type": "address"
        }
      ],
      "name": "getTokenWrappedAddress",
      "outputs": [
        {
          "internalType": "address",
          "name": "",
          "type": "address"
        }
      ],
      "stateMutability": "view",
      "type": "function"
    },
    {
      "inputs": [],
      "name": "globalExitRootManager",
      "outputs": [
        {
          "internalType": "contract IGlobalExitRootManager",
          "name": "",
          "type": "address"
        }
      ],
      "stateMutability": "view",
      "type": "function"
    },
    {
      "inputs": [
        {
          "internalType": "uint32",
          "name": "_networkID",
          "type": "uint32"
        },
        {
          "internalType": "contract IGlobalExitRootManager",
          "name": "_globalExitRootManager",
          "type": "address"
        },
        {
          "internalType": "address",
          "name": "_poeAddress",
          "type": "address"
        }
      ],
      "name": "initialize",
      "outputs": [],
      "stateMutability": "nonpayable",
      "type": "function"
    },
    {
      "inputs": [],
      "name": "isEmergencyState",
      "outputs": [
        {
          "internalType": "bool",
          "name": "",
          "type": "bool"
        }
      ],
      "stateMutability": "view",
      "type": "function"
    },
    {
      "inputs": [],
      "name": "networkID",
      "outputs": [
        {
          "internalType": "uint32",
          "name": "",
          "type": "uint32"
        }
      ],
      "stateMutability": "view",
      "type": "function"
    },
    {
      "inputs": [],
      "name": "poeAddress",
      "outputs": [
        {
          "internalType": "address",
          "name": "",
          "type": "address"
        }
      ],
      "stateMutability": "view",
      "type": "function"
    },
    {
      "inputs": [
        {
          "internalType": "uint32",
          "name": "originNetwork",
          "type": "uint32"
        },
        {
          "internalType": "address",
          "name": "originTokenAddress",
          "type": "address"
        },
        {
          "internalType": "string",
          "name": "name",
          "type": "string"
        },
        {
          "internalType": "string",
          "name": "symbol",
          "type": "string"
        },
        {
          "internalType": "uint8",
          "name": "decimals",
          "type": "uint8"
        }
      ],
      "name": "precalculatedWrapperAddress",
      "outputs": [
        {
          "internalType": "address",
          "name": "",
          "type": "address"
        }
      ],
      "stateMutability": "view",
      "type": "function"
    },
    {
      "inputs": [
        {
          "internalType": "bytes32",
          "name": "",
          "type": "bytes32"
        }
      ],
      "name": "tokenInfoToWrappedToken",
      "outputs": [
        {
          "internalType": "address",
          "name": "",
          "type": "address"
        }
      ],
      "stateMutability": "view",
      "type": "function"
    },
    {
      "inputs": [
        {
          "internalType": "bytes32",
          "name": "leafHash",
          "type": "bytes32"
        },
        {
          "internalType": "bytes32[]",
          "name": "smtProof",
          "type": "bytes32[]"
        },
        {
          "internalType": "uint64",
          "name": "index",
          "type": "uint64"
        },
        {
          "internalType": "bytes32",
          "name": "root",
          "type": "bytes32"
        }
      ],
      "name": "verifyMerkleProof",
      "outputs": [
        {
          "internalType": "bool",
          "name": "",
          "type": "bool"
        }
      ],
      "stateMutability": "pure",
      "type": "function"
    },
    {
      "inputs": [
        {
          "internalType": "address",
          "name": "",
          "type": "address"
        }
      ],
      "name": "wrappedTokenToTokenInfo",
      "outputs": [
        {
          "internalType": "uint32",
          "name": "originNetwork",
          "type": "uint32"
        },
        {
          "internalType": "address",
          "name": "originTokenAddress",
          "type": "address"
        }
      ],
      "stateMutability": "view",
      "type": "function"
    }
  ],
  "bytecode": "0x608060405234801561001057600080fd5b506157fb806100206000396000f3fe6080604052600436106200019f5760003560e01c80637b6323c111620000e7578063d02103ca1162000089578063e73758811162000060578063e7375881146200059d578063ed6be5c914620005d1578063ff634ed714620005e857600080fd5b8063d02103ca146200054c578063d96a15f7146200056e578063dbc16976146200058557600080fd5b8063a08e8a0811620000be578063a08e8a0814620004c3578063aaa13cc214620004ed578063bab161bf146200051257600080fd5b80637b6323c1146200044257806381b1c17414620004675780638f61151914620004a157600080fd5b8063318aee3d11620001515780633e19704311620001285780633e19704314620003175780634638554914620003f8578063647c576c146200041d57600080fd5b8063318aee3d146200026b5780633ae0504714620002da5780633da8168214620002f257600080fd5b80632072f6c511620001865780632072f6c514620001ee57806322e95f2c14620002065780632dfdf0b5146200024457600080fd5b80630871e97114620001a457806315064c9614620001bd575b600080fd5b620001bb620001b536600462003077565b620005ff565b005b348015620001ca57600080fd5b50602254620001d99060ff1681565b60405190151581526020015b60405180910390f35b348015620001fb57600080fd5b50620001bb62000bae565b3480156200021357600080fd5b506200022b6200022536600462003104565b62000c62565b6040516001600160a01b039091168152602001620001e5565b3480156200025157600080fd5b506200025c60215481565b604051908152602001620001e5565b3480156200027857600080fd5b50620002b56200028a36600462003140565b60256020526000908152604090205463ffffffff81169064010000000090046001600160a01b031682565b6040805163ffffffff90931683526001600160a01b03909116602083015201620001e5565b348015620002e757600080fd5b506200025c62000cf6565b348015620002ff57600080fd5b50620001d96200031136600462003241565b62000de9565b3480156200032457600080fd5b506200025c62000336366004620032bf565b6040517fff0000000000000000000000000000000000000000000000000000000000000060f889901b1660208201527fffffffff0000000000000000000000000000000000000000000000000000000060e088811b821660218401526bffffffffffffffffffffffff19606089811b821660258601529188901b909216603984015285901b16603d8201526051810183905260718101829052600090609101604051602081830303815290604052805190602001209050979650505050505050565b3480156200040557600080fd5b50620001bb62000417366004620033d0565b62000ee9565b3480156200042a57600080fd5b50620001bb6200043c366004620034b7565b6200116f565b3480156200044f57600080fd5b50620001bb62000461366004620033d0565b62001349565b3480156200047457600080fd5b506200022b6200048636600462003507565b6024602052600090815260409020546001600160a01b031681565b348015620004ae57600080fd5b506027546200022b906001600160a01b031681565b348015620004d057600080fd5b50620004da600081565b60405160ff9091168152602001620001e5565b348015620004fa57600080fd5b506200022b6200050c36600462003521565b6200193f565b3480156200051f57600080fd5b506022546200053690610100900463ffffffff1681565b60405163ffffffff9091168152602001620001e5565b3480156200055957600080fd5b506026546200022b906001600160a01b031681565b620001bb6200057f366004620035d5565b62001aab565b3480156200059257600080fd5b50620001bb62001d70565b348015620005aa57600080fd5b50620001d9620005bc36600462003507565b60236020526000908152604090205460ff1681565b348015620005de57600080fd5b5062000536600081565b348015620005f557600080fd5b50620004da600181565b60225460ff1615620006a45760405162461bcd60e51b815260206004820152604260248201527f456d657267656e63794d616e616765723a3a69664e6f74456d657267656e637960448201527f53746174653a206f6e6c79206966206e6f7420656d657267656e63792073746160648201527f7465000000000000000000000000000000000000000000000000000000000000608482015260a4015b60405180910390fd5b60225463ffffffff6101009091048116908616036200072c5760405162461bcd60e51b815260206004820152602a60248201527f4272696467653a3a6272696467653a2044455354494e4154494f4e5f43414e5460448201527f5f42455f495453454c460000000000000000000000000000000000000000000060648201526084016200069b565b60008060606001600160a01b038916620007c157853414620007b75760405162461bcd60e51b815260206004820152602f60248201527f4272696467653a3a6272696467653a20414d4f554e545f444f45535f4e4f545f60448201527f4d415443485f4d53475f56414c5545000000000000000000000000000000000060648201526084016200069b565b6000915062000a4b565b6001600160a01b03808a1660009081526025602090815260409182902082518084019093525463ffffffff8116835264010000000090049092169181018290529015620008a8576040517f9dc29fac000000000000000000000000000000000000000000000000000000008152336004820152602481018890526001600160a01b038b1690639dc29fac906044016020604051808303816000875af11580156200086f573d6000803e3d6000fd5b505050506040513d601f19601f820116820180604052508101906200089591906200364c565b5060208101518151909450925062000a49565b8415620008bd57620008bd8a88888862001e22565b620008d46001600160a01b038b1633308a62002448565b899350602260019054906101000a900463ffffffff169250896001600160a01b03166306fdde036040518163ffffffff1660e01b8152600401600060405180830381865afa1580156200092b573d6000803e3d6000fd5b505050506040513d6000823e601f3d908101601f19168201604052620009559190810190620036ef565b8a6001600160a01b03166395d89b416040518163ffffffff1660e01b8152600401600060405180830381865afa15801562000994573d6000803e3d6000fd5b505050506040513d6000823e601f3d908101601f19168201604052620009be9190810190620036ef565b8b6001600160a01b031663313ce5676040518163ffffffff1660e01b8152600401602060405180830381865afa158015620009fd573d6000803e3d6000fd5b505050506040513d601f19601f8201168201806040525081019062000a23919062003728565b60405160200162000a379392919062003776565b60405160208183030381529060405291505b505b7f501781209a1f8899323b96b4ef08b168df93e0a90c673d1e4cce39366cb62f9b600083858b8b8b8760215460405162000a8d989796959493929190620037b3565b60405180910390a18051602080830191909120604080516000818501527fffffffff0000000000000000000000000000000000000000000000000000000060e087811b821660218401526bffffffffffffffffffffffff1960608a811b82166025860152918f901b90921660398401528c901b16603d820152605181018a9052607180820193909352815180820390930183526091019052805191012062000b3590620024fb565b6026546001600160a01b03166333d6247d62000b5062000cf6565b6040518263ffffffff1660e01b815260040162000b6f91815260200190565b600060405180830381600087803b15801562000b8a57600080fd5b505af115801562000b9f573d6000803e3d6000fd5b50505050505050505050505050565b6027546001600160a01b0316331462000c565760405162461bcd60e51b815260206004820152604b60248201527f50726f6f664f66456666696369656e63793a3a6f6e6c7950726f6f664f66456660448201527f66696369656e63793a206f6e6c792050726f6f66206f6620456666696369656e60648201527f637920636f6e7472616374000000000000000000000000000000000000000000608482015260a4016200069b565b62000c606200265f565b565b600060246000848460405160200162000cbe92919060e09290921b7fffffffff0000000000000000000000000000000000000000000000000000000016825260601b6bffffffffffffffffffffffff1916600482015260180190565b60408051601f19818403018152918152815160209283012083529082019290925201600020546001600160a01b031690505b92915050565b602154600090819081805b602081101562000de0578260011660010362000d61576001816020811062000d2d5762000d2d6200381f565b0154604080516020810192909252810185905260600160405160208183030381529060405280519060200120935062000d8e565b60408051602081018690529081018390526060016040516020818303038152906040528051906020012093505b62000d9b6002846200387d565b6040805160208101859052908101849052909350606001604051602081830303815290604052805190602001209150808062000dd790620038b9565b91505062000d01565b50919392505050565b60008467ffffffffffffffff8416825b602081101562000edc578160011660010362000e665786818151811062000e245762000e246200381f565b60200260200101518360405160200162000e48929190918252602082015260400190565b60405160208183030381529060405280519060200120925062000eb8565b8287828151811062000e7c5762000e7c6200381f565b602002602001015160405160200162000e9f929190918252602082015260400190565b6040516020818303038152906040528051906020012092505b62000ec56002836200387d565b91508062000ed381620038b9565b91505062000df9565b5050909114949350505050565b60225460ff161562000f8a5760405162461bcd60e51b815260206004820152604260248201527f456d657267656e63794d616e616765723a3a69664e6f74456d657267656e637960448201527f53746174653a206f6e6c79206966206e6f7420656d657267656e63792073746160648201527f7465000000000000000000000000000000000000000000000000000000000000608482015260a4016200069b565b62000fa08a8a8a8a8a8a8a8a8a8a600162002738565b63ffffffff8916600090815260236020526040808220805460ff19166001179055516001600160a01b03851690849062000fe39089908b908790602401620038f4565b60408051601f198184030181529181526020820180517bffffffffffffffffffffffffffffffffffffffffffffffffffffffff167f1806b5f200000000000000000000000000000000000000000000000000000000179052516200104891906200392d565b60006040518083038185875af1925050503d806000811462001087576040519150601f19603f3d011682016040523d82523d6000602084013e6200108c565b606091505b5050905080620011045760405162461bcd60e51b8152602060048201526024808201527f4272696467653a3a636c61696d4d6573736167653a204d4553534147455f464160448201527f494c45440000000000000000000000000000000000000000000000000000000060648201526084016200069b565b6040805163ffffffff8c81168252891660208201526001600160a01b0388811682840152861660608201526080810185905290517f25308c93ceeed162da955b3f7ce3e3f93606579e40fb92029faa9efe275459839181900360a00190a15050505050505050505050565b600054610100900460ff1615808015620011905750600054600160ff909116105b80620011ac5750303b158015620011ac575060005460ff166001145b620012205760405162461bcd60e51b815260206004820152602e60248201527f496e697469616c697a61626c653a20636f6e747261637420697320616c72656160448201527f647920696e697469616c697a656400000000000000000000000000000000000060648201526084016200069b565b6000805460ff1916600117905580156200126157600080547fffffffffffffffffffffffffffffffffffffffffffffffffffffffffffff00ff166101001790555b6022805463ffffffff8616610100027fffffffffffffffffffffffffffffffffffffffffffffffffffffff00000000ff909116179055602680546001600160a01b038086167fffffffffffffffffffffffff000000000000000000000000000000000000000092831617909255602780549285169290911691909117905580156200134357600080547fffffffffffffffffffffffffffffffffffffffffffffffffffffffffffff00ff169055604051600181527f7f26b83ff96e1f2b6a682f133852f6798a09c465da95921460cefb38474024989060200160405180910390a15b50505050565b60225460ff1615620013ea5760405162461bcd60e51b815260206004820152604260248201527f456d657267656e63794d616e616765723a3a69664e6f74456d657267656e637960448201527f53746174653a206f6e6c79206966206e6f7420656d657267656e63792073746160648201527f7465000000000000000000000000000000000000000000000000000000000000608482015260a4016200069b565b620014008a8a8a8a8a8a8a8a8a8a600062002738565b63ffffffff89166000908152602360205260409020805460ff191660011790556001600160a01b0385166200151f57604080516000808252602082019092526001600160a01b0385169084906040516200145b91906200392d565b60006040518083038185875af1925050503d80600081146200149a576040519150601f19603f3d011682016040523d82523d6000602084013e6200149f565b606091505b5050905080620015185760405162461bcd60e51b815260206004820152602760248201527f4272696467653a3a636c61696d41737365743a204554485f5452414e5346455260448201527f5f4641494c45440000000000000000000000000000000000000000000000000060648201526084016200069b565b50620018d5565b60225463ffffffff61010090910481169087160362001554576200154e6001600160a01b038616848462002ac0565b620018d5565b6040517fffffffff0000000000000000000000000000000000000000000000000000000060e088901b1660208201526bffffffffffffffffffffffff19606087901b16602482015260009060380160408051601f198184030181529181528151602092830120600081815260249093529120549091506001600160a01b0316806200184157600080600085806020019051810190620015f491906200394b565b9250925092506000858484846040516200160e9062002fe0565b6200161c9392919062003776565b8190604051809103906000f59050801580156200163d573d6000803e3d6000fd5b506040517f40c10f190000000000000000000000000000000000000000000000000000000081526001600160a01b038b81166004830152602482018b9052919250908216906340c10f19906044016020604051808303816000875af1158015620016ab573d6000803e3d6000fd5b505050506040513d601f19601f82011682018060405250810190620016d191906200364c565b50620016dd8162002b0b565b620016e88462002b86565b620016f38362002b86565b620017018260ff1662002bfb565b806024600088815260200190815260200160002060006101000a8154816001600160a01b0302191690836001600160a01b0316021790555060405180604001604052808d63ffffffff1681526020018c6001600160a01b031681525060256000836001600160a01b03166001600160a01b0316815260200190815260200160002060008201518160000160006101000a81548163ffffffff021916908363ffffffff16021790555060208201518160000160046101000a8154816001600160a01b0302191690836001600160a01b031602179055509050507fccd7715648d1f2bb13e158f96b5b6c3aeda555d4cb87112e274a6f28bc571d598c8c836040516200182f9392919063ffffffff9390931683526001600160a01b03918216602084015216604082015260600190565b60405180910390a150505050620018d2565b6040517f40c10f190000000000000000000000000000000000000000000000000000000081526001600160a01b038681166004830152602482018690528216906340c10f19906044016020604051808303816000875af1158015620018aa573d6000803e3d6000fd5b505050506040513d601f19601f82011682018060405250810190620018d091906200364c565b505b50505b6040805163ffffffff8b81168252881660208201526001600160a01b0387811682840152851660608201526080810184905290517f25308c93ceeed162da955b3f7ce3e3f93606579e40fb92029faa9efe275459839181900360a00190a150505050505050505050565b6040517fffffffff0000000000000000000000000000000000000000000000000000000060e089901b1660208201526bffffffffffffffffffffffff19606088901b1660248201526000908190603801604051602081830303815290604052805190602001209050600060ff60f81b308360405180602001620019c29062002fe0565b601f1982820381018352601f909101166040819052620019ef908d908d908d908d908d90602001620039ec565b60408051601f198184030181529082905262001a0f929160200162003a2d565b6040516020818303038152906040528051906020012060405160200162001a8594939291907fff0000000000000000000000000000000000000000000000000000000000000094909416845260609290921b6bffffffffffffffffffffffff191660018401526015830152603582015260550190565b60408051808303601f1901815291905280516020909101209a9950505050505050505050565b60225460ff161562001b4c5760405162461bcd60e51b815260206004820152604260248201527f456d657267656e63794d616e616765723a3a69664e6f74456d657267656e637960448201527f53746174653a206f6e6c79206966206e6f7420656d657267656e63792073746160648201527f7465000000000000000000000000000000000000000000000000000000000000608482015260a4016200069b565b60225463ffffffff61010090910481169084160362001bd45760405162461bcd60e51b815260206004820152602a60248201527f4272696467653a3a6272696467653a2044455354494e4154494f4e5f43414e5460448201527f5f42455f495453454c460000000000000000000000000000000000000000000060648201526084016200069b565b7f501781209a1f8899323b96b4ef08b168df93e0a90c673d1e4cce39366cb62f9b6001602260019054906101000a900463ffffffff16338686348760215460405162001c28989796959493929190620037b3565b60405180910390a16022548151602080840191909120604080517f01000000000000000000000000000000000000000000000000000000000000008185015261010090940460e090811b7fffffffff00000000000000000000000000000000000000000000000000000000908116602187015233606090811b6bffffffffffffffffffffffff199081166025890152928a901b909116603987015287901b16603d850152346051850152607180850192909252805180850390920182526091909301909252815191012062001cfd90620024fb565b6026546001600160a01b03166333d6247d62001d1862000cf6565b6040518263ffffffff1660e01b815260040162001d3791815260200190565b600060405180830381600087803b15801562001d5257600080fd5b505af115801562001d67573d6000803e3d6000fd5b50505050505050565b6027546001600160a01b0316331462001e185760405162461bcd60e51b815260206004820152604b60248201527f50726f6f664f66456666696369656e63793a3a6f6e6c7950726f6f664f66456660448201527f66696369656e63793a206f6e6c792050726f6f66206f6620456666696369656e60648201527f637920636f6e7472616374000000000000000000000000000000000000000000608482015260a4016200069b565b62000c6062002c71565b600062001e6583838080601f01602080910402602001604051908101604052809392919081815260200183838082843760009201919091525062002d2192505050565b90507f2afa5331000000000000000000000000000000000000000000000000000000007fffffffff000000000000000000000000000000000000000000000000000000008216016200216757600080808080808062001ec8896004818d62003a60565b81019062001ed7919062003a8c565b9650965096509650965096509650336001600160a01b0316876001600160a01b03161462001f6e5760405162461bcd60e51b815260206004820152603060248201527f4272696467653a3a5f7065726d69743a205045524d49545f4f574e45525f4d5560448201527f53545f42455f5448455f53454e4445520000000000000000000000000000000060648201526084016200069b565b6001600160a01b038616301462001fee5760405162461bcd60e51b815260206004820152602560248201527f4272696467653a3a5f7065726d69743a205350454e4445525f4d5553545f424560448201527f5f5448495300000000000000000000000000000000000000000000000000000060648201526084016200069b565b8a8514620020655760405162461bcd60e51b815260206004820152602d60248201527f4272696467653a3a5f7065726d69743a205045524d49545f414d4f554e545f4460448201527f4f45535f4e4f545f4d415443480000000000000000000000000000000000000060648201526084016200069b565b604080516001600160a01b0389811660248301528881166044830152606482018890526084820187905260ff861660a483015260c4820185905260e48083018590528351808403909101815261010490920183526020820180517bffffffffffffffffffffffffffffffffffffffffffffffffffffffff167fd505accf000000000000000000000000000000000000000000000000000000001790529151918e16916200211391906200392d565b6000604051808303816000865af19150503d806000811462002152576040519150601f19603f3d011682016040523d82523d6000602084013e62002157565b606091505b5050505050505050505062002441565b7fffffffff0000000000000000000000000000000000000000000000000000000081167f8fcbaf0c0000000000000000000000000000000000000000000000000000000014620021fa5760405162461bcd60e51b815260206004820152601f60248201527f4272696467653a3a5f7065726d69743a204e4f545f56414c49445f43414c4c0060448201526064016200069b565b600080808080808080620022128a6004818e62003a60565b81019062002221919062003ae7565b97509750975097509750975097509750336001600160a01b0316886001600160a01b031614620022ba5760405162461bcd60e51b815260206004820152603060248201527f4272696467653a3a5f7065726d69743a205045524d49545f4f574e45525f4d5560448201527f53545f42455f5448455f53454e4445520000000000000000000000000000000060648201526084016200069b565b6001600160a01b03871630146200233a5760405162461bcd60e51b815260206004820152602560248201527f4272696467653a3a5f7065726d69743a205350454e4445525f4d5553545f424560448201527f5f5448495300000000000000000000000000000000000000000000000000000060648201526084016200069b565b604080516001600160a01b038a811660248301528981166044830152606482018990526084820188905286151560a483015260ff861660c483015260e482018590526101048083018590528351808403909101815261012490920183526020820180517bffffffffffffffffffffffffffffffffffffffffffffffffffffffff167f8fcbaf0c000000000000000000000000000000000000000000000000000000001790529151918f1691620023f191906200392d565b6000604051808303816000865af19150503d806000811462002430576040519150601f19603f3d011682016040523d82523d6000602084013e62002435565b606091505b50505050505050505050505b5050505050565b6040516001600160a01b0380851660248301528316604482015260648101829052620013439085907f23b872dd00000000000000000000000000000000000000000000000000000000906084015b60408051601f198184030181529190526020810180517bffffffffffffffffffffffffffffffffffffffffffffffffffffffff167fffffffff000000000000000000000000000000000000000000000000000000009093169290921790915262002d28565b8060016200250c6020600262003cac565b62002518919062003cba565b60215410620025905760405162461bcd60e51b815260206004820152602a60248201527f4465706f736974436f6e74726163743a5f6465706f7369743a204d45524b4c4560448201527f5f545245455f46554c4c0000000000000000000000000000000000000000000060648201526084016200069b565b600160216000828254620025a5919062003cd4565b909155505060215460005b60208110156200264f5781600116600103620025e5578260018260208110620025dd57620025dd6200381f565b015550505050565b60018160208110620025fb57620025fb6200381f565b015460408051602081019290925281018490526060016040516020818303038152906040528051906020012092506002826200263891906200387d565b9150806200264681620038b9565b915050620025b0565b506200265a62003cef565b505050565b60225460ff1615620027005760405162461bcd60e51b815260206004820152604260248201527f456d657267656e63794d616e616765723a3a69664e6f74456d657267656e637960448201527f53746174653a206f6e6c79206966206e6f7420656d657267656e63792073746160648201527f7465000000000000000000000000000000000000000000000000000000000000608482015260a4016200069b565b6022805460ff191660011790556040517f2261efe5aef6fedc1fd1550b25facc9181745623049c7901287030b9ad1a549790600090a1565b63ffffffff8a1660009081526023602052604090205460ff1615620027c55760405162461bcd60e51b8152602060048201526024808201527f4272696467653a3a5f7665726966794c6561663a20414c52454144595f434c4160448201527f494d45440000000000000000000000000000000000000000000000000000000060648201526084016200069b565b6026546040805160208082018d90528183018c9052825180830384018152606083019384905280519101207f257b36320000000000000000000000000000000000000000000000000000000090925260648101919091526001600160a01b039091169063257b3632906084016020604051808303816000875af115801562002851573d6000803e3d6000fd5b505050506040513d601f19601f8201168201806040525081019062002877919062003d1e565b600003620028ee5760405162461bcd60e51b815260206004820152603460248201527f4272696467653a3a5f7665726966794c6561663a20474c4f42414c5f4558495460448201527f5f524f4f545f444f45535f4e4f545f4d4154434800000000000000000000000060648201526084016200069b565b60225463ffffffff8681166101009092041614620029755760405162461bcd60e51b815260206004820152603760248201527f4272696467653a3a5f7665726966794c6561663a2044455354494e4154494f4e60448201527f5f4e4554574f524b5f444f45535f4e4f545f4d4154434800000000000000000060648201526084016200069b565b602254600090610100900463ffffffff166200299357508762002996565b50885b8251602080850191909120604080517fff0000000000000000000000000000000000000000000000000000000000000060f887901b16818501527fffffffff0000000000000000000000000000000000000000000000000000000060e08d811b821660218401526bffffffffffffffffffffffff1960608e811b82166025860152918d901b90921660398401528a901b16603d82015260518101889052607180820193909352815180820390930183526091019052805191012062002a64908d8d63ffffffff168462000de9565b62002ab25760405162461bcd60e51b815260206004820181905260248201527f4272696467653a3a5f7665726966794c6561663a20534d545f494e56414c494460448201526064016200069b565b505050505050505050505050565b6040516001600160a01b0383166024820152604481018290526200265a9084907fa9059cbb000000000000000000000000000000000000000000000000000000009060640162002496565b6040516001600160a01b038216602482015262002b839060440160408051601f198184030181529190526020810180517bffffffffffffffffffffffffffffffffffffffffffffffffffffffff167f2c2ecbc20000000000000000000000000000000000000000000000000000000017905262002e14565b50565b62002b838160405160240162002b9d919062003d38565b60408051601f198184030181529190526020810180517bffffffffffffffffffffffffffffffffffffffffffffffffffffffff167f41304fac0000000000000000000000000000000000000000000000000000000017905262002e14565b62002b838160405160240162002c1391815260200190565b60408051601f198184030181529190526020810180517bffffffffffffffffffffffffffffffffffffffffffffffffffffffff167ff82c50f10000000000000000000000000000000000000000000000000000000017905262002e14565b60225460ff161562002cec5760405162461bcd60e51b815260206004820152603b60248201527f456d657267656e63794d616e616765723a3a6966456d657267656e637953746160448201527f74653a206f6e6c7920696620656d657267656e6379207374617465000000000060648201526084016200069b565b6022805460ff191690556040517f1e5e34eea33501aecf2ebec9fe0e884a40804275ea7fe10b2ba084c8374308b390600090a1565b6020015190565b600062002d7f826040518060400160405280602081526020017f5361666545524332303a206c6f772d6c6576656c2063616c6c206661696c6564815250856001600160a01b031662002e359092919063ffffffff16565b8051909150156200265a578080602001905181019062002da091906200364c565b6200265a5760405162461bcd60e51b815260206004820152602a60248201527f5361666545524332303a204552433230206f7065726174696f6e20646964206e60448201527f6f7420737563636565640000000000000000000000000000000000000000000060648201526084016200069b565b80516a636f6e736f6c652e6c6f67602083016000808483855afa5050505050565b606062002e46848460008562002e50565b90505b9392505050565b60608247101562002eca5760405162461bcd60e51b815260206004820152602660248201527f416464726573733a20696e73756666696369656e742062616c616e636520666f60448201527f722063616c6c000000000000000000000000000000000000000000000000000060648201526084016200069b565b6001600160a01b0385163b62002f235760405162461bcd60e51b815260206004820152601d60248201527f416464726573733a2063616c6c20746f206e6f6e2d636f6e747261637400000060448201526064016200069b565b600080866001600160a01b0316858760405162002f4191906200392d565b60006040518083038185875af1925050503d806000811462002f80576040519150601f19603f3d011682016040523d82523d6000602084013e62002f85565b606091505b509150915062002f9782828662002fa2565b979650505050505050565b6060831562002fb357508162002e49565b82511562002fc45782518084602001fd5b8160405162461bcd60e51b81526004016200069b919062003d38565b611a788062003d4e83390190565b6001600160a01b038116811462002b8357600080fd5b8035620030118162002fee565b919050565b803563ffffffff811681146200301157600080fd5b60008083601f8401126200303e57600080fd5b50813567ffffffffffffffff8111156200305757600080fd5b6020830191508360208285010111156200307057600080fd5b9250929050565b60008060008060008060a087890312156200309157600080fd5b86356200309e8162002fee565b9550620030ae6020880162003016565b94506040870135620030c08162002fee565b935060608701359250608087013567ffffffffffffffff811115620030e457600080fd5b620030f289828a016200302b565b979a9699509497509295939492505050565b600080604083850312156200311857600080fd5b620031238362003016565b91506020830135620031358162002fee565b809150509250929050565b6000602082840312156200315357600080fd5b813562002e498162002fee565b7f4e487b7100000000000000000000000000000000000000000000000000000000600052604160045260246000fd5b604051601f8201601f1916810167ffffffffffffffff81118282101715620031bb57620031bb62003160565b604052919050565b600082601f830112620031d557600080fd5b8135602067ffffffffffffffff821115620031f457620031f462003160565b8160051b620032058282016200318f565b92835284810182019282810190878511156200322057600080fd5b83870192505b8483101562002f975782358252918301919083019062003226565b600080600080608085870312156200325857600080fd5b84359350602085013567ffffffffffffffff808211156200327857600080fd5b6200328688838901620031c3565b94506040870135915080821682146200329e57600080fd5b509396929550929360600135925050565b60ff8116811462002b8357600080fd5b600080600080600080600060e0888a031215620032db57600080fd5b8735620032e881620032af565b9650620032f86020890162003016565b955060408801356200330a8162002fee565b94506200331a6060890162003016565b935060808801356200332c8162002fee565b9699959850939692959460a0840135945060c09093013592915050565b600067ffffffffffffffff82111562003366576200336662003160565b50601f01601f191660200190565b600082601f8301126200338657600080fd5b81356200339d620033978262003349565b6200318f565b818152846020838601011115620033b357600080fd5b816020850160208301376000918101602001919091529392505050565b6000806000806000806000806000806101408b8d031215620033f157600080fd5b8a3567ffffffffffffffff808211156200340a57600080fd5b620034188e838f01620031c3565b9b506200342860208e0162003016565b9a5060408d0135995060608d013598506200344660808e0162003016565b97506200345660a08e0162003004565b96506200346660c08e0162003016565b95506200347660e08e0162003004565b94506101008d013593506101208d01359150808211156200349657600080fd5b50620034a58d828e0162003374565b9150509295989b9194979a5092959850565b600080600060608486031215620034cd57600080fd5b620034d88462003016565b92506020840135620034ea8162002fee565b91506040840135620034fc8162002fee565b809150509250925092565b6000602082840312156200351a57600080fd5b5035919050565b600080600080600080600060a0888a0312156200353d57600080fd5b620035488862003016565b965060208801356200355a8162002fee565b9550604088013567ffffffffffffffff808211156200357857600080fd5b620035868b838c016200302b565b909750955060608a0135915080821115620035a057600080fd5b50620035af8a828b016200302b565b9094509250506080880135620035c581620032af565b8091505092959891949750929550565b600080600060608486031215620035eb57600080fd5b620035f68462003016565b92506020840135620036088162002fee565b9150604084013567ffffffffffffffff8111156200362557600080fd5b620036338682870162003374565b9150509250925092565b801515811462002b8357600080fd5b6000602082840312156200365f57600080fd5b815162002e49816200363d565b60005b83811015620036895781810151838201526020016200366f565b83811115620013435750506000910152565b600082601f830112620036ad57600080fd5b8151620036be620033978262003349565b818152846020838601011115620036d457600080fd5b620036e78260208301602087016200366c565b949350505050565b6000602082840312156200370257600080fd5b815167ffffffffffffffff8111156200371a57600080fd5b620036e7848285016200369b565b6000602082840312156200373b57600080fd5b815162002e4981620032af565b60008151808452620037628160208601602086016200366c565b601f01601f19169290920160200192915050565b6060815260006200378b606083018662003748565b82810360208401526200379f818662003748565b91505060ff83166040830152949350505050565b600061010060ff8b16835263ffffffff808b1660208501526001600160a01b03808b166040860152818a1660608601528089166080860152508660a08501528160c0850152620038068285018762003748565b925080851660e085015250509998505050505050505050565b7f4e487b7100000000000000000000000000000000000000000000000000000000600052603260045260246000fd5b7f4e487b7100000000000000000000000000000000000000000000000000000000600052601160045260246000fd5b600082620038b4577f4e487b7100000000000000000000000000000000000000000000000000000000600052601260045260246000fd5b500490565b60007fffffffffffffffffffffffffffffffffffffffffffffffffffffffffffffffff8203620038ed57620038ed6200384e565b5060010190565b6001600160a01b038416815263ffffffff8316602082015260606040820152600062003924606083018462003748565b95945050505050565b60008251620039418184602087016200366c565b9190910192915050565b6000806000606084860312156200396157600080fd5b835167ffffffffffffffff808211156200397a57600080fd5b62003988878388016200369b565b945060208601519150808211156200399f57600080fd5b50620039ae868287016200369b565b9250506040840151620034fc81620032af565b818352818160208501375060006020828401015260006020601f19601f840116840101905092915050565b60608152600062003a02606083018789620039c1565b828103602084015262003a17818688620039c1565b91505060ff831660408301529695505050505050565b6000835162003a418184602088016200366c565b83519083019062003a578183602088016200366c565b01949350505050565b6000808585111562003a7157600080fd5b8386111562003a7f57600080fd5b5050820193919092039150565b600080600080600080600060e0888a03121562003aa857600080fd5b873562003ab58162002fee565b9650602088013562003ac78162002fee565b9550604088013594506060880135935060808801356200332c81620032af565b600080600080600080600080610100898b03121562003b0557600080fd5b883562003b128162002fee565b9750602089013562003b248162002fee565b96506040890135955060608901359450608089013562003b44816200363d565b935060a089013562003b5681620032af565b979a969950949793969295929450505060c08201359160e0013590565b600181815b8085111562003bd257817fffffffffffffffffffffffffffffffffffffffffffffffffffffffffffffffff0482111562003bb65762003bb66200384e565b8085161562003bc457918102915b93841c939080029062003b78565b509250929050565b60008262003beb5750600162000cf0565b8162003bfa5750600062000cf0565b816001811462003c13576002811462003c1e5762003c3e565b600191505062000cf0565b60ff84111562003c325762003c326200384e565b50506001821b62000cf0565b5060208310610133831016604e8410600b841016171562003c63575081810a62000cf0565b62003c6f838362003b73565b807fffffffffffffffffffffffffffffffffffffffffffffffffffffffffffffffff0482111562003ca45762003ca46200384e565b029392505050565b600062002e49838362003bda565b60008282101562003ccf5762003ccf6200384e565b500390565b6000821982111562003cea5762003cea6200384e565b500190565b7f4e487b7100000000000000000000000000000000000000000000000000000000600052600160045260246000fd5b60006020828403121562003d3157600080fd5b5051919050565b60208152600062002e4960208301846200374856fe60c06040523480156200001157600080fd5b5060405162001a7838038062001a788339810160408190526200003491620002ad565b82826003620000448382620003c1565b506004620000538282620003c1565b5050600580546001600160a81b0319163360ff60a01b191617600160a01b60ff851602179055504660808190526200008b9062000098565b60a052506200048d915050565b60007f8b73c3c69bb8fe3d512ecc4cf759cc79239f7b179b0ffacaa9a75d522b39400f620000c562000146565b805160209182012060408051808201825260018152603160f81b90840152805192830193909352918101919091527fc89efdaa54c0f20c7adf612882df0950f5a951637e0307cdcb4c672f298b8bc66060820152608081018390523060a082015260c001604051602081830303815290604052805190602001209050919050565b606060038054620001579062000332565b80601f0160208091040260200160405190810160405280929190818152602001828054620001859062000332565b8015620001d65780601f10620001aa57610100808354040283529160200191620001d6565b820191906000526020600020905b815481529060010190602001808311620001b857829003601f168201915b5050505050905090565b634e487b7160e01b600052604160045260246000fd5b600082601f8301126200020857600080fd5b81516001600160401b0380821115620002255762000225620001e0565b604051601f8301601f19908116603f01168101908282118183101715620002505762000250620001e0565b816040528381526020925086838588010111156200026d57600080fd5b600091505b8382101562000291578582018301518183018401529082019062000272565b83821115620002a35760008385830101525b9695505050505050565b600080600060608486031215620002c357600080fd5b83516001600160401b0380821115620002db57600080fd5b620002e987838801620001f6565b945060208601519150808211156200030057600080fd5b506200030f86828701620001f6565b925050604084015160ff811681146200032757600080fd5b809150509250925092565b600181811c908216806200034757607f821691505b6020821081036200036857634e487b7160e01b600052602260045260246000fd5b50919050565b601f821115620003bc57600081815260208120601f850160051c81016020861015620003975750805b601f850160051c820191505b81811015620003b857828155600101620003a3565b5050505b505050565b81516001600160401b03811115620003dd57620003dd620001e0565b620003f581620003ee845462000332565b846200036e565b602080601f8311600181146200042d5760008415620004145750858301515b600019600386901b1c1916600185901b178555620003b8565b600085815260208120601f198616915b828110156200045e578886015182559484019460019091019084016200043d565b50858210156200047d5787850151600019600388901b60f8161c191681555b5050505050600190811b01905550565b60805160a0516115be620004ba600039600061053001526000818161036f01526104fa01526115be6000f3fe608060405234801561001057600080fd5b50600436106101775760003560e01c806370a08231116100d8578063a457c2d71161008c578063d505accf11610066578063d505accf14610391578063dd62ed3e146103a6578063ffa1ad74146103ec57600080fd5b8063a457c2d714610344578063a9059cbb14610357578063cd0d00961461036a57600080fd5b806395d89b41116100bd57806395d89b41146102e45780639dc29fac146102ec578063a3c573eb146102ff57600080fd5b806370a082311461028e5780637ecebe00146102c457600080fd5b806330adf81f1161012f5780633644e515116101145780633644e51514610260578063395093511461026857806340c10f191461027b57600080fd5b806330adf81f14610209578063313ce5671461023057600080fd5b806318160ddd1161016057806318160ddd146101bd57806320606b70146101cf57806323b872dd146101f657600080fd5b806306fdde031461017c578063095ea7b31461019a575b600080fd5b610184610428565b60405161019191906112d5565b60405180910390f35b6101ad6101a8366004611371565b6104ba565b6040519015158152602001610191565b6002545b604051908152602001610191565b6101c17f8b73c3c69bb8fe3d512ecc4cf759cc79239f7b179b0ffacaa9a75d522b39400f81565b6101ad61020436600461139b565b6104d2565b6101c17f6e71edae12b1b97f4d1f60370fef10105fa2faae0126114a169c64845d6126c981565b60055474010000000000000000000000000000000000000000900460ff1660405160ff9091168152602001610191565b6101c16104f6565b6101ad610276366004611371565b610552565b6101ad610289366004611371565b61059e565b6101c161029c3660046113d7565b73ffffffffffffffffffffffffffffffffffffffff1660009081526020819052604090205490565b6101c16102d23660046113d7565b60066020526000908152604090205481565b610184610645565b6101ad6102fa366004611371565b610654565b60055461031f9073ffffffffffffffffffffffffffffffffffffffff1681565b60405173ffffffffffffffffffffffffffffffffffffffff9091168152602001610191565b6101ad610352366004611371565b6106ed565b6101ad610365366004611371565b6107a4565b6101c17f000000000000000000000000000000000000000000000000000000000000000081565b6103a461039f3660046113f9565b6107b2565b005b6101c16103b436600461146c565b73ffffffffffffffffffffffffffffffffffffffff918216600090815260016020908152604080832093909416825291909152205490565b6101846040518060400160405280600181526020017f310000000000000000000000000000000000000000000000000000000000000081525081565b6060600380546104379061149f565b80601f01602080910402602001604051908101604052809291908181526020018280546104639061149f565b80156104b05780601f10610485576101008083540402835291602001916104b0565b820191906000526020600020905b81548152906001019060200180831161049357829003601f168201915b5050505050905090565b6000336104c8818585610ab4565b5060019392505050565b6000336104e0858285610c34565b6104eb858585610cf1565b506001949350505050565b60007f0000000000000000000000000000000000000000000000000000000000000000461461052d5761052846610f56565b905090565b507f000000000000000000000000000000000000000000000000000000000000000090565b33600081815260016020908152604080832073ffffffffffffffffffffffffffffffffffffffff871684529091528120549091906104c89082908690610599908790611521565b610ab4565b60055460009073ffffffffffffffffffffffffffffffffffffffff1633146106325760405162461bcd60e51b8152602060048201526024808201527f546f6b656e577261707065643a3a6f6e6c794272696467653a204e4f545f425260448201527f494447450000000000000000000000000000000000000000000000000000000060648201526084015b60405180910390fd5b61063c838361101e565b50600192915050565b6060600480546104379061149f565b60055460009073ffffffffffffffffffffffffffffffffffffffff1633146106e35760405162461bcd60e51b8152602060048201526024808201527f546f6b656e577261707065643a3a6f6e6c794272696467653a204e4f545f425260448201527f49444745000000000000000000000000000000000000000000000000000000006064820152608401610629565b61063c8383611124565b33600081815260016020908152604080832073ffffffffffffffffffffffffffffffffffffffff87168452909152812054909190838110156107975760405162461bcd60e51b815260206004820152602560248201527f45524332303a2064656372656173656420616c6c6f77616e63652062656c6f7760448201527f207a65726f0000000000000000000000000000000000000000000000000000006064820152608401610629565b6104eb8286868403610ab4565b6000336104c8818585610cf1565b834211156108275760405162461bcd60e51b8152602060048201526024808201527f546f6b656e577261707065643a3a7065726d69743a204578706972656420706560448201527f726d6974000000000000000000000000000000000000000000000000000000006064820152608401610629565b73ffffffffffffffffffffffffffffffffffffffff8716600090815260066020526040812080547f6e71edae12b1b97f4d1f60370fef10105fa2faae0126114a169c64845d6126c9918a918a918a91908661088183611539565b9091555060408051602081019690965273ffffffffffffffffffffffffffffffffffffffff94851690860152929091166060840152608083015260a082015260c0810186905260e00160405160208183030381529060405280519060200120905060006108ec6104f6565b6040517f19010000000000000000000000000000000000000000000000000000000000006020820152602281019190915260428101839052606201604080517fffffffffffffffffffffffffffffffffffffffffffffffffffffffffffffffe08184030181528282528051602091820120600080855291840180845281905260ff89169284019290925260608301879052608083018690529092509060019060a0016020604051602081039080840390855afa1580156109b0573d6000803e3d6000fd5b50506040517fffffffffffffffffffffffffffffffffffffffffffffffffffffffffffffffe0015191505073ffffffffffffffffffffffffffffffffffffffff811615801590610a2b57508973ffffffffffffffffffffffffffffffffffffffff168173ffffffffffffffffffffffffffffffffffffffff16145b610a9d5760405162461bcd60e51b815260206004820152602760248201527f546f6b656e577261707065643a3a7065726d69743a20496e76616c696420736960448201527f676e6174757265000000000000000000000000000000000000000000000000006064820152608401610629565b610aa88a8a8a610ab4565b50505050505050505050565b73ffffffffffffffffffffffffffffffffffffffff8316610b3c5760405162461bcd60e51b8152602060048201526024808201527f45524332303a20617070726f76652066726f6d20746865207a65726f2061646460448201527f72657373000000000000000000000000000000000000000000000000000000006064820152608401610629565b73ffffffffffffffffffffffffffffffffffffffff8216610bc55760405162461bcd60e51b815260206004820152602260248201527f45524332303a20617070726f766520746f20746865207a65726f20616464726560448201527f73730000000000000000000000000000000000000000000000000000000000006064820152608401610629565b73ffffffffffffffffffffffffffffffffffffffff83811660008181526001602090815260408083209487168084529482529182902085905590518481527f8c5be1e5ebec7d5bd14f71427d1e84f3dd0314c0f7b2291e5b200ac8c7c3b92591015b60405180910390a3505050565b73ffffffffffffffffffffffffffffffffffffffff8381166000908152600160209081526040808320938616835292905220547fffffffffffffffffffffffffffffffffffffffffffffffffffffffffffffffff8114610ceb5781811015610cde5760405162461bcd60e51b815260206004820152601d60248201527f45524332303a20696e73756666696369656e7420616c6c6f77616e63650000006044820152606401610629565b610ceb8484848403610ab4565b50505050565b73ffffffffffffffffffffffffffffffffffffffff8316610d7a5760405162461bcd60e51b815260206004820152602560248201527f45524332303a207472616e736665722066726f6d20746865207a65726f20616460448201527f64726573730000000000000000000000000000000000000000000000000000006064820152608401610629565b73ffffffffffffffffffffffffffffffffffffffff8216610e035760405162461bcd60e51b815260206004820152602360248201527f45524332303a207472616e7366657220746f20746865207a65726f206164647260448201527f65737300000000000000000000000000000000000000000000000000000000006064820152608401610629565b73ffffffffffffffffffffffffffffffffffffffff831660009081526020819052604090205481811015610e9f5760405162461bcd60e51b815260206004820152602660248201527f45524332303a207472616e7366657220616d6f756e742065786365656473206260448201527f616c616e636500000000000000000000000000000000000000000000000000006064820152608401610629565b73ffffffffffffffffffffffffffffffffffffffff808516600090815260208190526040808220858503905591851681529081208054849290610ee3908490611521565b925050819055508273ffffffffffffffffffffffffffffffffffffffff168473ffffffffffffffffffffffffffffffffffffffff167fddf252ad1be2c89b69c2b068fc378daa952ba7f163c4a11628f55a4df523b3ef84604051610f4991815260200190565b60405180910390a3610ceb565b60007f8b73c3c69bb8fe3d512ecc4cf759cc79239f7b179b0ffacaa9a75d522b39400f610f81610428565b8051602091820120604080518082018252600181527f310000000000000000000000000000000000000000000000000000000000000090840152805192830193909352918101919091527fc89efdaa54c0f20c7adf612882df0950f5a951637e0307cdcb4c672f298b8bc66060820152608081018390523060a082015260c001604051602081830303815290604052805190602001209050919050565b73ffffffffffffffffffffffffffffffffffffffff82166110815760405162461bcd60e51b815260206004820152601f60248201527f45524332303a206d696e7420746f20746865207a65726f2061646472657373006044820152606401610629565b80600260008282546110939190611521565b909155505073ffffffffffffffffffffffffffffffffffffffff8216600090815260208190526040812080548392906110cd908490611521565b909155505060405181815273ffffffffffffffffffffffffffffffffffffffff8316906000907fddf252ad1be2c89b69c2b068fc378daa952ba7f163c4a11628f55a4df523b3ef9060200160405180910390a35050565b73ffffffffffffffffffffffffffffffffffffffff82166111ad5760405162461bcd60e51b815260206004820152602160248201527f45524332303a206275726e2066726f6d20746865207a65726f2061646472657360448201527f73000000000000000000000000000000000000000000000000000000000000006064820152608401610629565b73ffffffffffffffffffffffffffffffffffffffff8216600090815260208190526040902054818110156112495760405162461bcd60e51b815260206004820152602260248201527f45524332303a206275726e20616d6f756e7420657863656564732062616c616e60448201527f63650000000000000000000000000000000000000000000000000000000000006064820152608401610629565b73ffffffffffffffffffffffffffffffffffffffff83166000908152602081905260408120838303905560028054849290611285908490611571565b909155505060405182815260009073ffffffffffffffffffffffffffffffffffffffff8516907fddf252ad1be2c89b69c2b068fc378daa952ba7f163c4a11628f55a4df523b3ef90602001610c27565b600060208083528351808285015260005b81811015611302578581018301518582016040015282016112e6565b81811115611314576000604083870101525b50601f017fffffffffffffffffffffffffffffffffffffffffffffffffffffffffffffffe016929092016040019392505050565b803573ffffffffffffffffffffffffffffffffffffffff8116811461136c57600080fd5b919050565b6000806040838503121561138457600080fd5b61138d83611348565b946020939093013593505050565b6000806000606084860312156113b057600080fd5b6113b984611348565b92506113c760208501611348565b9150604084013590509250925092565b6000602082840312156113e957600080fd5b6113f282611348565b9392505050565b600080600080600080600060e0888a03121561141457600080fd5b61141d88611348565b965061142b60208901611348565b95506040880135945060608801359350608088013560ff8116811461144f57600080fd5b9699959850939692959460a0840135945060c09093013592915050565b6000806040838503121561147f57600080fd5b61148883611348565b915061149660208401611348565b90509250929050565b600181811c908216806114b357607f821691505b6020821081036114ec577f4e487b7100000000000000000000000000000000000000000000000000000000600052602260045260246000fd5b50919050565b7f4e487b7100000000000000000000000000000000000000000000000000000000600052601160045260246000fd5b60008219821115611534576115346114f2565b500190565b60007fffffffffffffffffffffffffffffffffffffffffffffffffffffffffffffffff820361156a5761156a6114f2565b5060010190565b600082821015611583576115836114f2565b50039056fea2646970667358221220dc9c54325b6ec8c11c8bc6a1630cfb64202b6d54611cd1004e705ceca7826a4f64736f6c634300080f0033a2646970667358221220627991e62c01a013ef386af2c4355efefce98d0a6bed55179ac547ada65b748864736f6c634300080f0033",
  "linkReferences": {},
  "deployedLinkReferences": {}
}