{
  "_format": "hh-sol-artifact-1",
  "contractName": "Bridge",
  "sourceName": "contracts/Bridge.sol",
  "abi": [
    {
      "anonymous": false,
      "inputs": [
        {
          "indexed": false,
          "internalType": "uint8",
          "name": "leafType",
          "type": "uint8"
        },
        {
          "indexed": false,
          "internalType": "uint32",
          "name": "originNetwork",
          "type": "uint32"
        },
        {
          "indexed": false,
          "internalType": "address",
          "name": "originAddress",
          "type": "address"
        },
        {
          "indexed": false,
          "internalType": "uint32",
          "name": "destinationNetwork",
          "type": "uint32"
        },
        {
          "indexed": false,
          "internalType": "address",
          "name": "destinationAddress",
          "type": "address"
        },
        {
          "indexed": false,
          "internalType": "uint256",
          "name": "amount",
          "type": "uint256"
        },
        {
          "indexed": false,
          "internalType": "bytes",
          "name": "metadata",
          "type": "bytes"
        },
        {
          "indexed": false,
          "internalType": "uint32",
          "name": "depositCount",
          "type": "uint32"
        }
      ],
      "name": "BridgeEvent",
      "type": "event"
    },
    {
      "anonymous": false,
      "inputs": [
        {
          "indexed": false,
          "internalType": "uint32",
          "name": "index",
          "type": "uint32"
        },
        {
          "indexed": false,
          "internalType": "uint32",
          "name": "originNetwork",
          "type": "uint32"
        },
        {
          "indexed": false,
          "internalType": "address",
          "name": "originAddress",
          "type": "address"
        },
        {
          "indexed": false,
          "internalType": "address",
          "name": "destinationAddress",
          "type": "address"
        },
        {
          "indexed": false,
          "internalType": "uint256",
          "name": "amount",
          "type": "uint256"
        }
      ],
      "name": "ClaimEvent",
      "type": "event"
    },
    {
      "anonymous": false,
      "inputs": [],
      "name": "EmergencyStateActivated",
      "type": "event"
    },
    {
      "anonymous": false,
      "inputs": [],
      "name": "EmergencyStateDeactivated",
      "type": "event"
    },
    {
      "anonymous": false,
      "inputs": [
        {
          "indexed": false,
          "internalType": "uint8",
          "name": "version",
          "type": "uint8"
        }
      ],
      "name": "Initialized",
      "type": "event"
    },
    {
      "anonymous": false,
      "inputs": [
        {
          "indexed": false,
          "internalType": "uint32",
          "name": "originNetwork",
          "type": "uint32"
        },
        {
          "indexed": false,
          "internalType": "address",
          "name": "originTokenAddress",
          "type": "address"
        },
        {
          "indexed": false,
          "internalType": "address",
          "name": "wrappedTokenAddress",
          "type": "address"
        }
      ],
      "name": "NewWrappedToken",
      "type": "event"
    },
    {
      "anonymous": false,
      "inputs": [
        {
          "indexed": true,
          "internalType": "address",
          "name": "previousOwner",
          "type": "address"
        },
        {
          "indexed": true,
          "internalType": "address",
          "name": "newOwner",
          "type": "address"
        }
      ],
      "name": "OwnershipTransferred",
      "type": "event"
    },
    {
      "anonymous": false,
      "inputs": [
        {
          "indexed": false,
          "internalType": "uint256",
          "name": "newClaimTimeout",
          "type": "uint256"
        }
      ],
      "name": "SetClaimTimeout",
      "type": "event"
    },
    {
      "inputs": [],
      "name": "LEAF_TYPE_ASSET",
      "outputs": [
        {
          "internalType": "uint8",
          "name": "",
          "type": "uint8"
        }
      ],
      "stateMutability": "view",
      "type": "function"
    },
    {
      "inputs": [],
      "name": "LEAF_TYPE_MESSAGE",
      "outputs": [
        {
          "internalType": "uint8",
          "name": "",
          "type": "uint8"
        }
      ],
      "stateMutability": "view",
      "type": "function"
    },
    {
      "inputs": [],
      "name": "MAINNET_NETWORK_ID",
      "outputs": [
        {
          "internalType": "uint32",
          "name": "",
          "type": "uint32"
        }
      ],
      "stateMutability": "view",
      "type": "function"
    },
    {
      "inputs": [],
      "name": "activateEmergencyState",
      "outputs": [],
      "stateMutability": "nonpayable",
      "type": "function"
    },
    {
      "inputs": [
        {
          "internalType": "address",
          "name": "token",
          "type": "address"
        },
        {
          "internalType": "uint32",
          "name": "destinationNetwork",
          "type": "uint32"
        },
        {
          "internalType": "address",
          "name": "destinationAddress",
          "type": "address"
        },
        {
          "internalType": "uint256",
          "name": "amount",
          "type": "uint256"
        },
        {
          "internalType": "bytes",
          "name": "permitData",
          "type": "bytes"
        }
      ],
      "name": "bridgeAsset",
      "outputs": [],
      "stateMutability": "payable",
      "type": "function"
    },
    {
      "inputs": [
        {
          "internalType": "uint32",
          "name": "destinationNetwork",
          "type": "uint32"
        },
        {
          "internalType": "address",
          "name": "destinationAddress",
          "type": "address"
        },
        {
          "internalType": "bytes",
          "name": "metadata",
          "type": "bytes"
        }
      ],
      "name": "bridgeMessage",
      "outputs": [],
      "stateMutability": "payable",
      "type": "function"
    },
    {
      "inputs": [
        {
          "internalType": "bytes32[]",
          "name": "smtProof",
          "type": "bytes32[]"
        },
        {
          "internalType": "uint32",
          "name": "index",
          "type": "uint32"
        },
        {
          "internalType": "bytes32",
          "name": "mainnetExitRoot",
          "type": "bytes32"
        },
        {
          "internalType": "bytes32",
          "name": "rollupExitRoot",
          "type": "bytes32"
        },
        {
          "internalType": "uint32",
          "name": "originNetwork",
          "type": "uint32"
        },
        {
          "internalType": "address",
          "name": "originTokenAddress",
          "type": "address"
        },
        {
          "internalType": "uint32",
          "name": "destinationNetwork",
          "type": "uint32"
        },
        {
          "internalType": "address",
          "name": "destinationAddress",
          "type": "address"
        },
        {
          "internalType": "uint256",
          "name": "amount",
          "type": "uint256"
        },
        {
          "internalType": "bytes",
          "name": "metadata",
          "type": "bytes"
        }
      ],
      "name": "claimAsset",
      "outputs": [],
      "stateMutability": "nonpayable",
      "type": "function"
    },
    {
      "inputs": [
        {
          "internalType": "bytes32[]",
          "name": "smtProof",
          "type": "bytes32[]"
        },
        {
          "internalType": "uint32",
          "name": "index",
          "type": "uint32"
        },
        {
          "internalType": "bytes32",
          "name": "mainnetExitRoot",
          "type": "bytes32"
        },
        {
          "internalType": "bytes32",
          "name": "rollupExitRoot",
          "type": "bytes32"
        },
        {
          "internalType": "uint32",
          "name": "originNetwork",
          "type": "uint32"
        },
        {
          "internalType": "address",
          "name": "originAddress",
          "type": "address"
        },
        {
          "internalType": "uint32",
          "name": "destinationNetwork",
          "type": "uint32"
        },
        {
          "internalType": "address",
          "name": "destinationAddress",
          "type": "address"
        },
        {
          "internalType": "uint256",
          "name": "amount",
          "type": "uint256"
        },
        {
          "internalType": "bytes",
          "name": "metadata",
          "type": "bytes"
        }
      ],
      "name": "claimMessage",
      "outputs": [],
      "stateMutability": "nonpayable",
      "type": "function"
    },
    {
      "inputs": [
        {
          "internalType": "uint256",
          "name": "",
          "type": "uint256"
        }
      ],
      "name": "claimNullifier",
      "outputs": [
        {
          "internalType": "bool",
          "name": "",
          "type": "bool"
        }
      ],
      "stateMutability": "view",
      "type": "function"
    },
    {
      "inputs": [],
      "name": "claimTimeout",
      "outputs": [
        {
          "internalType": "uint256",
          "name": "",
          "type": "uint256"
        }
      ],
      "stateMutability": "view",
      "type": "function"
    },
    {
      "inputs": [],
      "name": "deactivateEmergencyState",
      "outputs": [],
      "stateMutability": "nonpayable",
      "type": "function"
    },
    {
      "inputs": [],
      "name": "depositCount",
      "outputs": [
        {
          "internalType": "uint256",
          "name": "",
          "type": "uint256"
        }
      ],
      "stateMutability": "view",
      "type": "function"
    },
    {
      "inputs": [],
      "name": "getDepositRoot",
      "outputs": [
        {
          "internalType": "bytes32",
          "name": "",
          "type": "bytes32"
        }
      ],
      "stateMutability": "view",
      "type": "function"
    },
    {
      "inputs": [
        {
          "internalType": "uint8",
          "name": "leafType",
          "type": "uint8"
        },
        {
          "internalType": "uint32",
          "name": "originNetwork",
          "type": "uint32"
        },
        {
          "internalType": "address",
          "name": "originAddress",
          "type": "address"
        },
        {
          "internalType": "uint32",
          "name": "destinationNetwork",
          "type": "uint32"
        },
        {
          "internalType": "address",
          "name": "destinationAddress",
          "type": "address"
        },
        {
          "internalType": "uint256",
          "name": "amount",
          "type": "uint256"
        },
        {
          "internalType": "bytes32",
          "name": "metadataHash",
          "type": "bytes32"
        }
      ],
      "name": "getLeafValue",
      "outputs": [
        {
          "internalType": "bytes32",
          "name": "",
          "type": "bytes32"
        }
      ],
      "stateMutability": "pure",
      "type": "function"
    },
    {
      "inputs": [
        {
          "internalType": "uint32",
          "name": "originNetwork",
          "type": "uint32"
        },
        {
          "internalType": "address",
          "name": "originTokenAddress",
          "type": "address"
        }
      ],
      "name": "getTokenWrappedAddress",
      "outputs": [
        {
          "internalType": "address",
          "name": "",
          "type": "address"
        }
      ],
      "stateMutability": "view",
      "type": "function"
    },
    {
      "inputs": [],
      "name": "globalExitRootManager",
      "outputs": [
        {
          "internalType": "contract IGlobalExitRootManager",
          "name": "",
          "type": "address"
        }
      ],
      "stateMutability": "view",
      "type": "function"
    },
    {
      "inputs": [
        {
          "internalType": "uint32",
          "name": "_networkID",
          "type": "uint32"
        },
        {
          "internalType": "contract IGlobalExitRootManager",
          "name": "_globalExitRootManager",
          "type": "address"
        },
        {
          "internalType": "address",
          "name": "_poeAddress",
          "type": "address"
        },
        {
          "internalType": "uint256",
          "name": "_claimTimeout",
          "type": "uint256"
        }
      ],
      "name": "initialize",
      "outputs": [],
      "stateMutability": "nonpayable",
      "type": "function"
    },
    {
      "inputs": [],
      "name": "isEmergencyState",
      "outputs": [
        {
          "internalType": "bool",
          "name": "",
          "type": "bool"
        }
      ],
      "stateMutability": "view",
      "type": "function"
    },
    {
      "inputs": [],
      "name": "networkID",
      "outputs": [
        {
          "internalType": "uint32",
          "name": "",
          "type": "uint32"
        }
      ],
      "stateMutability": "view",
      "type": "function"
    },
    {
      "inputs": [],
      "name": "owner",
      "outputs": [
        {
          "internalType": "address",
          "name": "",
          "type": "address"
        }
      ],
      "stateMutability": "view",
      "type": "function"
    },
    {
      "inputs": [],
      "name": "poeAddress",
      "outputs": [
        {
          "internalType": "address",
          "name": "",
          "type": "address"
        }
      ],
      "stateMutability": "view",
      "type": "function"
    },
    {
      "inputs": [
        {
          "internalType": "uint32",
          "name": "originNetwork",
          "type": "uint32"
        },
        {
          "internalType": "address",
          "name": "originTokenAddress",
          "type": "address"
        },
        {
          "internalType": "string",
          "name": "name",
          "type": "string"
        },
        {
          "internalType": "string",
          "name": "symbol",
          "type": "string"
        },
        {
          "internalType": "uint8",
          "name": "decimals",
          "type": "uint8"
        }
      ],
      "name": "precalculatedWrapperAddress",
      "outputs": [
        {
          "internalType": "address",
          "name": "",
          "type": "address"
        }
      ],
      "stateMutability": "view",
      "type": "function"
    },
    {
      "inputs": [],
      "name": "renounceOwnership",
      "outputs": [],
      "stateMutability": "nonpayable",
      "type": "function"
    },
    {
      "inputs": [
        {
          "internalType": "uint256",
          "name": "newClaimTimeout",
          "type": "uint256"
        }
      ],
      "name": "setClaimTimeout",
      "outputs": [],
      "stateMutability": "nonpayable",
      "type": "function"
    },
    {
      "inputs": [
        {
          "internalType": "bytes32",
          "name": "",
          "type": "bytes32"
        }
      ],
      "name": "tokenInfoToWrappedToken",
      "outputs": [
        {
          "internalType": "address",
          "name": "",
          "type": "address"
        }
      ],
      "stateMutability": "view",
      "type": "function"
    },
    {
      "inputs": [
        {
          "internalType": "address",
          "name": "newOwner",
          "type": "address"
        }
      ],
      "name": "transferOwnership",
      "outputs": [],
      "stateMutability": "nonpayable",
      "type": "function"
    },
    {
      "inputs": [
        {
          "internalType": "bytes32",
          "name": "leafHash",
          "type": "bytes32"
        },
        {
          "internalType": "bytes32[]",
          "name": "smtProof",
          "type": "bytes32[]"
        },
        {
          "internalType": "uint64",
          "name": "index",
          "type": "uint64"
        },
        {
          "internalType": "bytes32",
          "name": "root",
          "type": "bytes32"
        }
      ],
      "name": "verifyMerkleProof",
      "outputs": [
        {
          "internalType": "bool",
          "name": "",
          "type": "bool"
        }
      ],
      "stateMutability": "pure",
      "type": "function"
    },
    {
      "inputs": [
        {
          "internalType": "address",
          "name": "",
          "type": "address"
        }
      ],
      "name": "wrappedTokenToTokenInfo",
      "outputs": [
        {
          "internalType": "uint32",
          "name": "originNetwork",
          "type": "uint32"
        },
        {
          "internalType": "address",
          "name": "originTokenAddress",
          "type": "address"
        }
      ],
      "stateMutability": "view",
      "type": "function"
    }
  ],
  "bytecode": "0x608060405234801561001057600080fd5b50615951806100206000396000f3fe608060405260043610620001db5760003560e01c806381b1c17411620000ff578063d96a15f71162000095578063e7a5b4ea116200006c578063e7a5b4ea1462000658578063ed6be5c9146200067d578063f2fde38b1462000694578063ff634ed714620006b957600080fd5b8063d96a15f714620005f5578063dbc16976146200060c578063e7375881146200062457600080fd5b8063a08e8a0811620000d6578063a08e8a08146200054f578063aaa13cc21462000579578063bab161bf146200059e578063d02103ca14620005d357600080fd5b806381b1c17414620004d35780638da5cb5b146200050d5780638f611519146200052d57600080fd5b80633ae05047116200017557806346385549116200014c57806346385549146200044c578063655595401462000471578063715018a614620004965780637b6323c114620004ae57600080fd5b80633ae05047146200032e5780633da8168214620003465780633e197043146200036b57600080fd5b80632072f6c511620001b65780632072f6c5146200025157806322e95f2c14620002695780632dfdf0b514620002a7578063318aee3d14620002bf57600080fd5b80630871e97114620001e05780630e1da6c314620001f957806315064c961462000224575b600080fd5b620001f7620001f1366004620031bc565b620006d0565b005b3480156200020657600080fd5b5062000211608d5481565b6040519081526020015b60405180910390f35b3480156200023157600080fd5b50602254620002409060ff1681565b60405190151581526020016200021b565b3480156200025e57600080fd5b50620001f762000c7a565b3480156200027657600080fd5b506200028e6200028836600462003249565b62000d2e565b6040516001600160a01b0390911681526020016200021b565b348015620002b457600080fd5b506200021160215481565b348015620002cc57600080fd5b5062000309620002de36600462003285565b608a6020526000908152604090205463ffffffff81169064010000000090046001600160a01b031682565b6040805163ffffffff90931683526001600160a01b039091166020830152016200021b565b3480156200033b57600080fd5b506200021162000db1565b3480156200035357600080fd5b50620002406200036536600462003386565b62000ea4565b3480156200037857600080fd5b50620002116200038a36600462003404565b6040517fff0000000000000000000000000000000000000000000000000000000000000060f889901b1660208201527fffffffff0000000000000000000000000000000000000000000000000000000060e088811b821660218401526bffffffffffffffffffffffff19606089811b821660258601529188901b909216603984015285901b16603d8201526051810183905260718101829052600090609101604051602081830303815290604052805190602001209050979650505050505050565b3480156200045957600080fd5b50620001f76200046b36600462003515565b62000fa4565b3480156200047e57600080fd5b50620001f762000490366004620035fc565b6200122a565b348015620004a357600080fd5b50620001f762001410565b348015620004bb57600080fd5b50620001f7620004cd36600462003515565b62001426565b348015620004e057600080fd5b506200028e620004f236600462003652565b6089602052600090815260409020546001600160a01b031681565b3480156200051a57600080fd5b506055546001600160a01b03166200028e565b3480156200053a57600080fd5b50608c546200028e906001600160a01b031681565b3480156200055c57600080fd5b5062000566600081565b60405160ff90911681526020016200021b565b3480156200058657600080fd5b506200028e620005983660046200366c565b620019e8565b348015620005ab57600080fd5b50608754620005bd9063ffffffff1681565b60405163ffffffff90911681526020016200021b565b348015620005e057600080fd5b50608b546200028e906001600160a01b031681565b620001f76200060636600462003720565b62001b54565b3480156200061957600080fd5b50620001f762001e08565b3480156200063157600080fd5b50620002406200064336600462003652565b60886020526000908152604090205460ff1681565b3480156200066557600080fd5b50620001f76200067736600462003652565b62001eba565b3480156200068a57600080fd5b50620005bd600081565b348015620006a157600080fd5b50620001f7620006b336600462003285565b62001eff565b348015620006c657600080fd5b5062000566600181565b60225460ff1615620007755760405162461bcd60e51b815260206004820152604260248201527f456d657267656e63794d616e616765723a3a69664e6f74456d657267656e637960448201527f53746174653a206f6e6c79206966206e6f7420656d657267656e63792073746160648201527f7465000000000000000000000000000000000000000000000000000000000000608482015260a4015b60405180910390fd5b60875463ffffffff90811690861603620007f85760405162461bcd60e51b815260206004820152602a60248201527f4272696467653a3a6272696467653a2044455354494e4154494f4e5f43414e5460448201527f5f42455f495453454c460000000000000000000000000000000000000000000060648201526084016200076c565b60008060606001600160a01b0389166200088d57853414620008835760405162461bcd60e51b815260206004820152602f60248201527f4272696467653a3a6272696467653a20414d4f554e545f444f45535f4e4f545f60448201527f4d415443485f4d53475f56414c5545000000000000000000000000000000000060648201526084016200076c565b6000915062000b17565b6001600160a01b03808a166000908152608a602090815260409182902082518084019093525463ffffffff811683526401000000009004909216918101829052901562000974576040517f9dc29fac000000000000000000000000000000000000000000000000000000008152336004820152602481018890526001600160a01b038b1690639dc29fac906044016020604051808303816000875af11580156200093b573d6000803e3d6000fd5b505050506040513d601f19601f8201168201806040525081019062000961919062003797565b5060208101518151909450925062000b15565b84156200098957620009898a88888862001f95565b620009a06001600160a01b038b1633308a620025ba565b899350608760009054906101000a900463ffffffff169250896001600160a01b03166306fdde036040518163ffffffff1660e01b8152600401600060405180830381865afa158015620009f7573d6000803e3d6000fd5b505050506040513d6000823e601f3d908101601f1916820160405262000a2191908101906200383a565b8a6001600160a01b03166395d89b416040518163ffffffff1660e01b8152600401600060405180830381865afa15801562000a60573d6000803e3d6000fd5b505050506040513d6000823e601f3d908101601f1916820160405262000a8a91908101906200383a565b8b6001600160a01b031663313ce5676040518163ffffffff1660e01b8152600401602060405180830381865afa15801562000ac9573d6000803e3d6000fd5b505050506040513d601f19601f8201168201806040525081019062000aef919062003873565b60405160200162000b0393929190620038c1565b60405160208183030381529060405291505b505b7f501781209a1f8899323b96b4ef08b168df93e0a90c673d1e4cce39366cb62f9b600083858b8b8b8760215460405162000b59989796959493929190620038fe565b60405180910390a18051602080830191909120604080516000818501527fffffffff0000000000000000000000000000000000000000000000000000000060e087811b821660218401526bffffffffffffffffffffffff1960608a811b82166025860152918f901b90921660398401528c901b16603d820152605181018a9052607180820193909352815180820390930183526091019052805191012062000c019062002673565b608b546001600160a01b03166333d6247d62000c1c62000db1565b6040518263ffffffff1660e01b815260040162000c3b91815260200190565b600060405180830381600087803b15801562000c5657600080fd5b505af115801562000c6b573d6000803e3d6000fd5b50505050505050505050505050565b608c546001600160a01b0316331462000d225760405162461bcd60e51b815260206004820152604b60248201527f50726f6f664f66456666696369656e63793a3a6f6e6c7950726f6f664f66456660448201527f66696369656e63793a206f6e6c792050726f6f66206f6620456666696369656e60648201527f637920636f6e7472616374000000000000000000000000000000000000000000608482015260a4016200076c565b62000d2c620027d7565b565b6040805160e084901b7fffffffff0000000000000000000000000000000000000000000000000000000016602080830191909152606084901b6bffffffffffffffffffffffff1916602483015282516018818403018152603890920183528151918101919091206000908152608990915220546001600160a01b03165b92915050565b602154600090819081805b602081101562000e9b578260011660010362000e1c576001816020811062000de85762000de86200396a565b0154604080516020810192909252810185905260600160405160208183030381529060405280519060200120935062000e49565b60408051602081018690529081018390526060016040516020818303038152906040528051906020012093505b62000e56600284620039c8565b6040805160208101859052908101849052909350606001604051602081830303815290604052805190602001209150808062000e929062003a04565b91505062000dbc565b50919392505050565b60008467ffffffffffffffff8416825b602081101562000f97578160011660010362000f215786818151811062000edf5762000edf6200396a565b60200260200101518360405160200162000f03929190918252602082015260400190565b60405160208183030381529060405280519060200120925062000f73565b8287828151811062000f375762000f376200396a565b602002602001015160405160200162000f5a929190918252602082015260400190565b6040516020818303038152906040528051906020012092505b62000f80600283620039c8565b91508062000f8e8162003a04565b91505062000eb4565b5050909114949350505050565b60225460ff1615620010455760405162461bcd60e51b815260206004820152604260248201527f456d657267656e63794d616e616765723a3a69664e6f74456d657267656e637960448201527f53746174653a206f6e6c79206966206e6f7420656d657267656e63792073746160648201527f7465000000000000000000000000000000000000000000000000000000000000608482015260a4016200076c565b6200105b8a8a8a8a8a8a8a8a8a8a6001620028b0565b63ffffffff8916600090815260886020526040808220805460ff19166001179055516001600160a01b0385169084906200109e9089908b90879060240162003a3f565b60408051601f198184030181529181526020820180517bffffffffffffffffffffffffffffffffffffffffffffffffffffffff167f1806b5f2000000000000000000000000000000000000000000000000000000001790525162001103919062003a78565b60006040518083038185875af1925050503d806000811462001142576040519150601f19603f3d011682016040523d82523d6000602084013e62001147565b606091505b5050905080620011bf5760405162461bcd60e51b8152602060048201526024808201527f4272696467653a3a636c61696d4d6573736167653a204d4553534147455f464160448201527f494c45440000000000000000000000000000000000000000000000000000000060648201526084016200076c565b6040805163ffffffff8c81168252891660208201526001600160a01b0388811682840152861660608201526080810185905290517f25308c93ceeed162da955b3f7ce3e3f93606579e40fb92029faa9efe275459839181900360a00190a15050505050505050505050565b600054610100900460ff16158080156200124b5750600054600160ff909116105b80620012675750303b15801562001267575060005460ff166001145b620012db5760405162461bcd60e51b815260206004820152602e60248201527f496e697469616c697a61626c653a20636f6e747261637420697320616c72656160448201527f647920696e697469616c697a656400000000000000000000000000000000000060648201526084016200076c565b6000805460ff1916600117905580156200131c57600080547fffffffffffffffffffffffffffffffffffffffffffffffffffffffffffff00ff166101001790555b6087805463ffffffff87167fffffffffffffffffffffffffffffffffffffffffffffffffffffffff00000000909116179055608b80546001600160a01b038087167fffffffffffffffffffffffff000000000000000000000000000000000000000092831617909255608c805492861692909116919091179055608d829055620013a562002c3d565b80156200140957600080547fffffffffffffffffffffffffffffffffffffffffffffffffffffffffffff00ff169055604051600181527f7f26b83ff96e1f2b6a682f133852f6798a09c465da95921460cefb38474024989060200160405180910390a15b5050505050565b6200141a62002cc7565b62000d2c600062002d23565b60225460ff1615620014c75760405162461bcd60e51b815260206004820152604260248201527f456d657267656e63794d616e616765723a3a69664e6f74456d657267656e637960448201527f53746174653a206f6e6c79206966206e6f7420656d657267656e63792073746160648201527f7465000000000000000000000000000000000000000000000000000000000000608482015260a4016200076c565b620014dd8a8a8a8a8a8a8a8a8a8a6000620028b0565b63ffffffff89166000908152608860205260409020805460ff191660011790556001600160a01b038516620015fc57604080516000808252602082019092526001600160a01b03851690849060405162001538919062003a78565b60006040518083038185875af1925050503d806000811462001577576040519150601f19603f3d011682016040523d82523d6000602084013e6200157c565b606091505b5050905080620015f55760405162461bcd60e51b815260206004820152602760248201527f4272696467653a3a636c61696d41737365743a204554485f5452414e5346455260448201527f5f4641494c45440000000000000000000000000000000000000000000000000060648201526084016200076c565b506200197e565b60875463ffffffff908116908716036200162c57620016266001600160a01b038616848462002d8d565b6200197e565b6040517fffffffff0000000000000000000000000000000000000000000000000000000060e088901b1660208201526bffffffffffffffffffffffff19606087901b16602482015260009060380160408051601f198184030181529181528151602092830120600081815260899093529120549091506001600160a01b031680620018ea57600080600085806020019051810190620016cc919062003a96565b925092509250600085848484604051620016e69062003125565b620016f493929190620038c1565b8190604051809103906000f590508015801562001715573d6000803e3d6000fd5b506040517f40c10f190000000000000000000000000000000000000000000000000000000081526001600160a01b038b81166004830152602482018b9052919250908216906340c10f19906044016020604051808303816000875af115801562001783573d6000803e3d6000fd5b505050506040513d601f19601f82011682018060405250810190620017a9919062003797565b50806089600088815260200190815260200160002060006101000a8154816001600160a01b0302191690836001600160a01b0316021790555060405180604001604052808d63ffffffff1681526020018c6001600160a01b0316815250608a6000836001600160a01b03166001600160a01b0316815260200190815260200160002060008201518160000160006101000a81548163ffffffff021916908363ffffffff16021790555060208201518160000160046101000a8154816001600160a01b0302191690836001600160a01b031602179055509050507fccd7715648d1f2bb13e158f96b5b6c3aeda555d4cb87112e274a6f28bc571d598c8c83604051620018d89392919063ffffffff9390931683526001600160a01b03918216602084015216604082015260600190565b60405180910390a1505050506200197b565b6040517f40c10f190000000000000000000000000000000000000000000000000000000081526001600160a01b038681166004830152602482018690528216906340c10f19906044016020604051808303816000875af115801562001953573d6000803e3d6000fd5b505050506040513d601f19601f8201168201806040525081019062001979919062003797565b505b50505b6040805163ffffffff8b81168252881660208201526001600160a01b0387811682840152851660608201526080810184905290517f25308c93ceeed162da955b3f7ce3e3f93606579e40fb92029faa9efe275459839181900360a00190a150505050505050505050565b6040517fffffffff0000000000000000000000000000000000000000000000000000000060e089901b1660208201526bffffffffffffffffffffffff19606088901b1660248201526000908190603801604051602081830303815290604052805190602001209050600060ff60f81b30836040518060200162001a6b9062003125565b601f1982820381018352601f90910116604081905262001a98908d908d908d908d908d9060200162003b42565b60408051601f198184030181529082905262001ab8929160200162003b83565b6040516020818303038152906040528051906020012060405160200162001b2e94939291907fff0000000000000000000000000000000000000000000000000000000000000094909416845260609290921b6bffffffffffffffffffffffff191660018401526015830152603582015260550190565b60408051808303601f1901815291905280516020909101209a9950505050505050505050565b60225460ff161562001bf55760405162461bcd60e51b815260206004820152604260248201527f456d657267656e63794d616e616765723a3a69664e6f74456d657267656e637960448201527f53746174653a206f6e6c79206966206e6f7420656d657267656e63792073746160648201527f7465000000000000000000000000000000000000000000000000000000000000608482015260a4016200076c565b60875463ffffffff9081169084160362001c785760405162461bcd60e51b815260206004820152602a60248201527f4272696467653a3a6272696467653a2044455354494e4154494f4e5f43414e5460448201527f5f42455f495453454c460000000000000000000000000000000000000000000060648201526084016200076c565b6087546021546040517f501781209a1f8899323b96b4ef08b168df93e0a90c673d1e4cce39366cb62f9b9262001cc59260019263ffffffff9092169133918991899134918a9190620038fe565b60405180910390a16087548151602080840191909120604080517f0100000000000000000000000000000000000000000000000000000000000000818501527fffffffff0000000000000000000000000000000000000000000000000000000060e095861b811660218301526bffffffffffffffffffffffff1933606090811b82166025850152968a901b90911660398301529487901b909416603d850152346051850152607180850192909252805180850390920182526091909301909252815191012062001d959062002673565b608b546001600160a01b03166333d6247d62001db062000db1565b6040518263ffffffff1660e01b815260040162001dcf91815260200190565b600060405180830381600087803b15801562001dea57600080fd5b505af115801562001dff573d6000803e3d6000fd5b50505050505050565b608c546001600160a01b0316331462001eb05760405162461bcd60e51b815260206004820152604b60248201527f50726f6f664f66456666696369656e63793a3a6f6e6c7950726f6f664f66456660448201527f66696369656e63793a206f6e6c792050726f6f66206f6620456666696369656e60648201527f637920636f6e7472616374000000000000000000000000000000000000000000608482015260a4016200076c565b62000d2c62002dd8565b62001ec462002cc7565b608d8190556040518181527f126d6a8888996898896a660f1c9a7a4ef612bd6df82281a13079dd27cc38758d9060200160405180910390a150565b62001f0962002cc7565b6001600160a01b03811662001f875760405162461bcd60e51b815260206004820152602660248201527f4f776e61626c653a206e6577206f776e657220697320746865207a65726f206160448201527f646472657373000000000000000000000000000000000000000000000000000060648201526084016200076c565b62001f928162002d23565b50565b600062001fd883838080601f01602080910402602001604051908101604052809392919081815260200183838082843760009201919091525062002e8792505050565b90507f2afa5331000000000000000000000000000000000000000000000000000000007fffffffff00000000000000000000000000000000000000000000000000000000821601620022da5760008080808080806200203b896004818d62003bb6565b8101906200204a919062003be2565b9650965096509650965096509650336001600160a01b0316876001600160a01b031614620020e15760405162461bcd60e51b815260206004820152603060248201527f4272696467653a3a5f7065726d69743a205045524d49545f4f574e45525f4d5560448201527f53545f42455f5448455f53454e4445520000000000000000000000000000000060648201526084016200076c565b6001600160a01b0386163014620021615760405162461bcd60e51b815260206004820152602560248201527f4272696467653a3a5f7065726d69743a205350454e4445525f4d5553545f424560448201527f5f5448495300000000000000000000000000000000000000000000000000000060648201526084016200076c565b8a8514620021d85760405162461bcd60e51b815260206004820152602d60248201527f4272696467653a3a5f7065726d69743a205045524d49545f414d4f554e545f4460448201527f4f45535f4e4f545f4d415443480000000000000000000000000000000000000060648201526084016200076c565b604080516001600160a01b0389811660248301528881166044830152606482018890526084820187905260ff861660a483015260c4820185905260e48083018590528351808403909101815261010490920183526020820180517bffffffffffffffffffffffffffffffffffffffffffffffffffffffff167fd505accf000000000000000000000000000000000000000000000000000000001790529151918e169162002286919062003a78565b6000604051808303816000865af19150503d8060008114620022c5576040519150601f19603f3d011682016040523d82523d6000602084013e620022ca565b606091505b5050505050505050505062001409565b7fffffffff0000000000000000000000000000000000000000000000000000000081167f8fcbaf0c00000000000000000000000000000000000000000000000000000000146200236d5760405162461bcd60e51b815260206004820152601f60248201527f4272696467653a3a5f7065726d69743a204e4f545f56414c49445f43414c4c0060448201526064016200076c565b600080808080808080620023858a6004818e62003bb6565b81019062002394919062003c3d565b97509750975097509750975097509750336001600160a01b0316886001600160a01b0316146200242d5760405162461bcd60e51b815260206004820152603060248201527f4272696467653a3a5f7065726d69743a205045524d49545f4f574e45525f4d5560448201527f53545f42455f5448455f53454e4445520000000000000000000000000000000060648201526084016200076c565b6001600160a01b0387163014620024ad5760405162461bcd60e51b815260206004820152602560248201527f4272696467653a3a5f7065726d69743a205350454e4445525f4d5553545f424560448201527f5f5448495300000000000000000000000000000000000000000000000000000060648201526084016200076c565b604080516001600160a01b038a811660248301528981166044830152606482018990526084820188905286151560a483015260ff861660c483015260e482018590526101048083018590528351808403909101815261012490920183526020820180517bffffffffffffffffffffffffffffffffffffffffffffffffffffffff167f8fcbaf0c000000000000000000000000000000000000000000000000000000001790529151918f169162002564919062003a78565b6000604051808303816000865af19150503d8060008114620025a3576040519150601f19603f3d011682016040523d82523d6000602084013e620025a8565b606091505b50505050505050505050505050505050565b6040516001600160a01b03808516602483015283166044820152606481018290526200266d9085907f23b872dd00000000000000000000000000000000000000000000000000000000906084015b60408051601f198184030181529190526020810180517bffffffffffffffffffffffffffffffffffffffffffffffffffffffff167fffffffff000000000000000000000000000000000000000000000000000000009093169290921790915262002e8e565b50505050565b806001620026846020600262003e02565b62002690919062003e10565b60215410620027085760405162461bcd60e51b815260206004820152602a60248201527f4465706f736974436f6e74726163743a5f6465706f7369743a204d45524b4c4560448201527f5f545245455f46554c4c0000000000000000000000000000000000000000000060648201526084016200076c565b6001602160008282546200271d919062003e2a565b909155505060215460005b6020811015620027c757816001166001036200275d5782600182602081106200275557620027556200396a565b015550505050565b600181602081106200277357620027736200396a565b01546040805160208101929092528101849052606001604051602081830303815290604052805190602001209250600282620027b09190620039c8565b915080620027be8162003a04565b91505062002728565b50620027d262003e45565b505050565b60225460ff1615620028785760405162461bcd60e51b815260206004820152604260248201527f456d657267656e63794d616e616765723a3a69664e6f74456d657267656e637960448201527f53746174653a206f6e6c79206966206e6f7420656d657267656e63792073746160648201527f7465000000000000000000000000000000000000000000000000000000000000608482015260a4016200076c565b6022805460ff191660011790556040517f2261efe5aef6fedc1fd1550b25facc9181745623049c7901287030b9ad1a549790600090a1565b63ffffffff8a1660009081526088602052604090205460ff16156200293d5760405162461bcd60e51b8152602060048201526024808201527f4272696467653a3a5f7665726966794c6561663a20414c52454144595f434c4160448201527f494d45440000000000000000000000000000000000000000000000000000000060648201526084016200076c565b608b546040805160208082018d90528183018c9052825180830384018152606083019384905280519101207f257b36320000000000000000000000000000000000000000000000000000000090925260648101919091526000916001600160a01b03169063257b3632906084016020604051808303816000875af1158015620029ca573d6000803e3d6000fd5b505050506040513d601f19601f82011682018060405250810190620029f0919062003e74565b9050801580159062002a0f5750608d5462002a0c824262003e10565b10155b62002a835760405162461bcd60e51b815260206004820152602d60248201527f4272696467653a3a5f7665726966794c6561663a20474c4f42414c5f4558495460448201527f5f524f4f545f494e56414c49440000000000000000000000000000000000000060648201526084016200076c565b60875463ffffffff87811691161462002b055760405162461bcd60e51b815260206004820152603760248201527f4272696467653a3a5f7665726966794c6561663a2044455354494e4154494f4e60448201527f5f4e4554574f524b5f444f45535f4e4f545f4d4154434800000000000000000060648201526084016200076c565b60875460009063ffffffff1662002b1e57508862002b21565b50895b8351602080860191909120604080517fff0000000000000000000000000000000000000000000000000000000000000060f888901b16818501527fffffffff0000000000000000000000000000000000000000000000000000000060e08e811b821660218401526bffffffffffffffffffffffff1960608f811b82166025860152918e901b90921660398401528b901b16603d82015260518101899052607180820193909352815180820390930183526091019052805191012062002bef908e8e63ffffffff168462000ea4565b62000c6b5760405162461bcd60e51b815260206004820181905260248201527f4272696467653a3a5f7665726966794c6561663a20534d545f494e56414c494460448201526064016200076c565b600054610100900460ff1662002cbc5760405162461bcd60e51b815260206004820152602b60248201527f496e697469616c697a61626c653a20636f6e7472616374206973206e6f74206960448201527f6e697469616c697a696e6700000000000000000000000000000000000000000060648201526084016200076c565b62000d2c3362002d23565b6055546001600160a01b0316331462000d2c5760405162461bcd60e51b815260206004820181905260248201527f4f776e61626c653a2063616c6c6572206973206e6f7420746865206f776e657260448201526064016200076c565b605580546001600160a01b038381167fffffffffffffffffffffffff0000000000000000000000000000000000000000831681179093556040519116919082907f8be0079c531659141344cd1fd0a4f28419497f9722a3daafe3b4186f6b6457e090600090a35050565b6040516001600160a01b038316602482015260448101829052620027d29084907fa9059cbb000000000000000000000000000000000000000000000000000000009060640162002608565b60225460ff1662002e525760405162461bcd60e51b815260206004820152603b60248201527f456d657267656e63794d616e616765723a3a6966456d657267656e637953746160448201527f74653a206f6e6c7920696620656d657267656e6379207374617465000000000060648201526084016200076c565b6022805460ff191690556040517f1e5e34eea33501aecf2ebec9fe0e884a40804275ea7fe10b2ba084c8374308b390600090a1565b6020015190565b600062002ee5826040518060400160405280602081526020017f5361666545524332303a206c6f772d6c6576656c2063616c6c206661696c6564815250856001600160a01b031662002f7a9092919063ffffffff16565b805190915015620027d2578080602001905181019062002f06919062003797565b620027d25760405162461bcd60e51b815260206004820152602a60248201527f5361666545524332303a204552433230206f7065726174696f6e20646964206e60448201527f6f7420737563636565640000000000000000000000000000000000000000000060648201526084016200076c565b606062002f8b848460008562002f95565b90505b9392505050565b6060824710156200300f5760405162461bcd60e51b815260206004820152602660248201527f416464726573733a20696e73756666696369656e742062616c616e636520666f60448201527f722063616c6c000000000000000000000000000000000000000000000000000060648201526084016200076c565b6001600160a01b0385163b620030685760405162461bcd60e51b815260206004820152601d60248201527f416464726573733a2063616c6c20746f206e6f6e2d636f6e747261637400000060448201526064016200076c565b600080866001600160a01b0316858760405162003086919062003a78565b60006040518083038185875af1925050503d8060008114620030c5576040519150601f19603f3d011682016040523d82523d6000602084013e620030ca565b606091505b5091509150620030dc828286620030e7565b979650505050505050565b60608315620030f857508162002f8e565b825115620031095782518084602001fd5b8160405162461bcd60e51b81526004016200076c919062003e8e565b611a788062003ea483390190565b6001600160a01b038116811462001f9257600080fd5b8035620031568162003133565b919050565b803563ffffffff811681146200315657600080fd5b60008083601f8401126200318357600080fd5b50813567ffffffffffffffff8111156200319c57600080fd5b602083019150836020828501011115620031b557600080fd5b9250929050565b60008060008060008060a08789031215620031d657600080fd5b8635620031e38162003133565b9550620031f3602088016200315b565b94506040870135620032058162003133565b935060608701359250608087013567ffffffffffffffff8111156200322957600080fd5b6200323789828a0162003170565b979a9699509497509295939492505050565b600080604083850312156200325d57600080fd5b62003268836200315b565b915060208301356200327a8162003133565b809150509250929050565b6000602082840312156200329857600080fd5b813562002f8e8162003133565b7f4e487b7100000000000000000000000000000000000000000000000000000000600052604160045260246000fd5b604051601f8201601f1916810167ffffffffffffffff81118282101715620033005762003300620032a5565b604052919050565b600082601f8301126200331a57600080fd5b8135602067ffffffffffffffff821115620033395762003339620032a5565b8160051b6200334a828201620032d4565b92835284810182019282810190878511156200336557600080fd5b83870192505b84831015620030dc578235825291830191908301906200336b565b600080600080608085870312156200339d57600080fd5b84359350602085013567ffffffffffffffff80821115620033bd57600080fd5b620033cb8883890162003308565b9450604087013591508082168214620033e357600080fd5b509396929550929360600135925050565b60ff8116811462001f9257600080fd5b600080600080600080600060e0888a0312156200342057600080fd5b87356200342d81620033f4565b96506200343d602089016200315b565b955060408801356200344f8162003133565b94506200345f606089016200315b565b93506080880135620034718162003133565b9699959850939692959460a0840135945060c09093013592915050565b600067ffffffffffffffff821115620034ab57620034ab620032a5565b50601f01601f191660200190565b600082601f830112620034cb57600080fd5b8135620034e2620034dc826200348e565b620032d4565b818152846020838601011115620034f857600080fd5b816020850160208301376000918101602001919091529392505050565b6000806000806000806000806000806101408b8d0312156200353657600080fd5b8a3567ffffffffffffffff808211156200354f57600080fd5b6200355d8e838f0162003308565b9b506200356d60208e016200315b565b9a5060408d0135995060608d013598506200358b60808e016200315b565b97506200359b60a08e0162003149565b9650620035ab60c08e016200315b565b9550620035bb60e08e0162003149565b94506101008d013593506101208d0135915080821115620035db57600080fd5b50620035ea8d828e01620034b9565b9150509295989b9194979a5092959850565b600080600080608085870312156200361357600080fd5b6200361e856200315b565b93506020850135620036308162003133565b92506040850135620036428162003133565b9396929550929360600135925050565b6000602082840312156200366557600080fd5b5035919050565b600080600080600080600060a0888a0312156200368857600080fd5b62003693886200315b565b96506020880135620036a58162003133565b9550604088013567ffffffffffffffff80821115620036c357600080fd5b620036d18b838c0162003170565b909750955060608a0135915080821115620036eb57600080fd5b50620036fa8a828b0162003170565b90945092505060808801356200371081620033f4565b8091505092959891949750929550565b6000806000606084860312156200373657600080fd5b62003741846200315b565b92506020840135620037538162003133565b9150604084013567ffffffffffffffff8111156200377057600080fd5b6200377e86828701620034b9565b9150509250925092565b801515811462001f9257600080fd5b600060208284031215620037aa57600080fd5b815162002f8e8162003788565b60005b83811015620037d4578181015183820152602001620037ba565b838111156200266d5750506000910152565b600082601f830112620037f857600080fd5b815162003809620034dc826200348e565b8181528460208386010111156200381f57600080fd5b62003832826020830160208701620037b7565b949350505050565b6000602082840312156200384d57600080fd5b815167ffffffffffffffff8111156200386557600080fd5b6200383284828501620037e6565b6000602082840312156200388657600080fd5b815162002f8e81620033f4565b60008151808452620038ad816020860160208601620037b7565b601f01601f19169290920160200192915050565b606081526000620038d6606083018662003893565b8281036020840152620038ea818662003893565b91505060ff83166040830152949350505050565b600061010060ff8b16835263ffffffff808b1660208501526001600160a01b03808b166040860152818a1660608601528089166080860152508660a08501528160c0850152620039518285018762003893565b925080851660e085015250509998505050505050505050565b7f4e487b7100000000000000000000000000000000000000000000000000000000600052603260045260246000fd5b7f4e487b7100000000000000000000000000000000000000000000000000000000600052601160045260246000fd5b600082620039ff577f4e487b7100000000000000000000000000000000000000000000000000000000600052601260045260246000fd5b500490565b60007fffffffffffffffffffffffffffffffffffffffffffffffffffffffffffffffff820362003a385762003a3862003999565b5060010190565b6001600160a01b038416815263ffffffff8316602082015260606040820152600062003a6f606083018462003893565b95945050505050565b6000825162003a8c818460208701620037b7565b9190910192915050565b60008060006060848603121562003aac57600080fd5b835167ffffffffffffffff8082111562003ac557600080fd5b62003ad387838801620037e6565b9450602086015191508082111562003aea57600080fd5b5062003af986828701620037e6565b925050604084015162003b0c81620033f4565b809150509250925092565b818352818160208501375060006020828401015260006020601f19601f840116840101905092915050565b60608152600062003b5860608301878962003b17565b828103602084015262003b6d81868862003b17565b91505060ff831660408301529695505050505050565b6000835162003b97818460208801620037b7565b83519083019062003bad818360208801620037b7565b01949350505050565b6000808585111562003bc757600080fd5b8386111562003bd557600080fd5b5050820193919092039150565b600080600080600080600060e0888a03121562003bfe57600080fd5b873562003c0b8162003133565b9650602088013562003c1d8162003133565b9550604088013594506060880135935060808801356200347181620033f4565b600080600080600080600080610100898b03121562003c5b57600080fd5b883562003c688162003133565b9750602089013562003c7a8162003133565b96506040890135955060608901359450608089013562003c9a8162003788565b935060a089013562003cac81620033f4565b979a969950949793969295929450505060c08201359160e0013590565b600181815b8085111562003d2857817fffffffffffffffffffffffffffffffffffffffffffffffffffffffffffffffff0482111562003d0c5762003d0c62003999565b8085161562003d1a57918102915b93841c939080029062003cce565b509250929050565b60008262003d415750600162000dab565b8162003d505750600062000dab565b816001811462003d69576002811462003d745762003d94565b600191505062000dab565b60ff84111562003d885762003d8862003999565b50506001821b62000dab565b5060208310610133831016604e8410600b841016171562003db9575081810a62000dab565b62003dc5838362003cc9565b807fffffffffffffffffffffffffffffffffffffffffffffffffffffffffffffffff0482111562003dfa5762003dfa62003999565b029392505050565b600062002f8e838362003d30565b60008282101562003e255762003e2562003999565b500390565b6000821982111562003e405762003e4062003999565b500190565b7f4e487b7100000000000000000000000000000000000000000000000000000000600052600160045260246000fd5b60006020828403121562003e8757600080fd5b5051919050565b60208152600062002f8e60208301846200389356fe60c06040523480156200001157600080fd5b5060405162001a7838038062001a788339810160408190526200003491620002ad565b82826003620000448382620003c1565b506004620000538282620003c1565b5050600580546001600160a81b0319163360ff60a01b191617600160a01b60ff851602179055504660808190526200008b9062000098565b60a052506200048d915050565b60007f8b73c3c69bb8fe3d512ecc4cf759cc79239f7b179b0ffacaa9a75d522b39400f620000c562000146565b805160209182012060408051808201825260018152603160f81b90840152805192830193909352918101919091527fc89efdaa54c0f20c7adf612882df0950f5a951637e0307cdcb4c672f298b8bc66060820152608081018390523060a082015260c001604051602081830303815290604052805190602001209050919050565b606060038054620001579062000332565b80601f0160208091040260200160405190810160405280929190818152602001828054620001859062000332565b8015620001d65780601f10620001aa57610100808354040283529160200191620001d6565b820191906000526020600020905b815481529060010190602001808311620001b857829003601f168201915b5050505050905090565b634e487b7160e01b600052604160045260246000fd5b600082601f8301126200020857600080fd5b81516001600160401b0380821115620002255762000225620001e0565b604051601f8301601f19908116603f01168101908282118183101715620002505762000250620001e0565b816040528381526020925086838588010111156200026d57600080fd5b600091505b8382101562000291578582018301518183018401529082019062000272565b83821115620002a35760008385830101525b9695505050505050565b600080600060608486031215620002c357600080fd5b83516001600160401b0380821115620002db57600080fd5b620002e987838801620001f6565b945060208601519150808211156200030057600080fd5b506200030f86828701620001f6565b925050604084015160ff811681146200032757600080fd5b809150509250925092565b600181811c908216806200034757607f821691505b6020821081036200036857634e487b7160e01b600052602260045260246000fd5b50919050565b601f821115620003bc57600081815260208120601f850160051c81016020861015620003975750805b601f850160051c820191505b81811015620003b857828155600101620003a3565b5050505b505050565b81516001600160401b03811115620003dd57620003dd620001e0565b620003f581620003ee845462000332565b846200036e565b602080601f8311600181146200042d5760008415620004145750858301515b600019600386901b1c1916600185901b178555620003b8565b600085815260208120601f198616915b828110156200045e578886015182559484019460019091019084016200043d565b50858210156200047d5787850151600019600388901b60f8161c191681555b5050505050600190811b01905550565b60805160a0516115be620004ba600039600061053001526000818161036f01526104fa01526115be6000f3fe608060405234801561001057600080fd5b50600436106101775760003560e01c806370a08231116100d8578063a457c2d71161008c578063d505accf11610066578063d505accf14610391578063dd62ed3e146103a6578063ffa1ad74146103ec57600080fd5b8063a457c2d714610344578063a9059cbb14610357578063cd0d00961461036a57600080fd5b806395d89b41116100bd57806395d89b41146102e45780639dc29fac146102ec578063a3c573eb146102ff57600080fd5b806370a082311461028e5780637ecebe00146102c457600080fd5b806330adf81f1161012f5780633644e515116101145780633644e51514610260578063395093511461026857806340c10f191461027b57600080fd5b806330adf81f14610209578063313ce5671461023057600080fd5b806318160ddd1161016057806318160ddd146101bd57806320606b70146101cf57806323b872dd146101f657600080fd5b806306fdde031461017c578063095ea7b31461019a575b600080fd5b610184610428565b60405161019191906112d5565b60405180910390f35b6101ad6101a8366004611371565b6104ba565b6040519015158152602001610191565b6002545b604051908152602001610191565b6101c17f8b73c3c69bb8fe3d512ecc4cf759cc79239f7b179b0ffacaa9a75d522b39400f81565b6101ad61020436600461139b565b6104d2565b6101c17f6e71edae12b1b97f4d1f60370fef10105fa2faae0126114a169c64845d6126c981565b60055474010000000000000000000000000000000000000000900460ff1660405160ff9091168152602001610191565b6101c16104f6565b6101ad610276366004611371565b610552565b6101ad610289366004611371565b61059e565b6101c161029c3660046113d7565b73ffffffffffffffffffffffffffffffffffffffff1660009081526020819052604090205490565b6101c16102d23660046113d7565b60066020526000908152604090205481565b610184610645565b6101ad6102fa366004611371565b610654565b60055461031f9073ffffffffffffffffffffffffffffffffffffffff1681565b60405173ffffffffffffffffffffffffffffffffffffffff9091168152602001610191565b6101ad610352366004611371565b6106ed565b6101ad610365366004611371565b6107a4565b6101c17f000000000000000000000000000000000000000000000000000000000000000081565b6103a461039f3660046113f9565b6107b2565b005b6101c16103b436600461146c565b73ffffffffffffffffffffffffffffffffffffffff918216600090815260016020908152604080832093909416825291909152205490565b6101846040518060400160405280600181526020017f310000000000000000000000000000000000000000000000000000000000000081525081565b6060600380546104379061149f565b80601f01602080910402602001604051908101604052809291908181526020018280546104639061149f565b80156104b05780601f10610485576101008083540402835291602001916104b0565b820191906000526020600020905b81548152906001019060200180831161049357829003601f168201915b5050505050905090565b6000336104c8818585610ab4565b5060019392505050565b6000336104e0858285610c34565b6104eb858585610cf1565b506001949350505050565b60007f0000000000000000000000000000000000000000000000000000000000000000461461052d5761052846610f56565b905090565b507f000000000000000000000000000000000000000000000000000000000000000090565b33600081815260016020908152604080832073ffffffffffffffffffffffffffffffffffffffff871684529091528120549091906104c89082908690610599908790611521565b610ab4565b60055460009073ffffffffffffffffffffffffffffffffffffffff1633146106325760405162461bcd60e51b8152602060048201526024808201527f546f6b656e577261707065643a3a6f6e6c794272696467653a204e4f545f425260448201527f494447450000000000000000000000000000000000000000000000000000000060648201526084015b60405180910390fd5b61063c838361101e565b50600192915050565b6060600480546104379061149f565b60055460009073ffffffffffffffffffffffffffffffffffffffff1633146106e35760405162461bcd60e51b8152602060048201526024808201527f546f6b656e577261707065643a3a6f6e6c794272696467653a204e4f545f425260448201527f49444745000000000000000000000000000000000000000000000000000000006064820152608401610629565b61063c8383611124565b33600081815260016020908152604080832073ffffffffffffffffffffffffffffffffffffffff87168452909152812054909190838110156107975760405162461bcd60e51b815260206004820152602560248201527f45524332303a2064656372656173656420616c6c6f77616e63652062656c6f7760448201527f207a65726f0000000000000000000000000000000000000000000000000000006064820152608401610629565b6104eb8286868403610ab4565b6000336104c8818585610cf1565b834211156108275760405162461bcd60e51b8152602060048201526024808201527f546f6b656e577261707065643a3a7065726d69743a204578706972656420706560448201527f726d6974000000000000000000000000000000000000000000000000000000006064820152608401610629565b73ffffffffffffffffffffffffffffffffffffffff8716600090815260066020526040812080547f6e71edae12b1b97f4d1f60370fef10105fa2faae0126114a169c64845d6126c9918a918a918a91908661088183611539565b9091555060408051602081019690965273ffffffffffffffffffffffffffffffffffffffff94851690860152929091166060840152608083015260a082015260c0810186905260e00160405160208183030381529060405280519060200120905060006108ec6104f6565b6040517f19010000000000000000000000000000000000000000000000000000000000006020820152602281019190915260428101839052606201604080517fffffffffffffffffffffffffffffffffffffffffffffffffffffffffffffffe08184030181528282528051602091820120600080855291840180845281905260ff89169284019290925260608301879052608083018690529092509060019060a0016020604051602081039080840390855afa1580156109b0573d6000803e3d6000fd5b50506040517fffffffffffffffffffffffffffffffffffffffffffffffffffffffffffffffe0015191505073ffffffffffffffffffffffffffffffffffffffff811615801590610a2b57508973ffffffffffffffffffffffffffffffffffffffff168173ffffffffffffffffffffffffffffffffffffffff16145b610a9d5760405162461bcd60e51b815260206004820152602760248201527f546f6b656e577261707065643a3a7065726d69743a20496e76616c696420736960448201527f676e6174757265000000000000000000000000000000000000000000000000006064820152608401610629565b610aa88a8a8a610ab4565b50505050505050505050565b73ffffffffffffffffffffffffffffffffffffffff8316610b3c5760405162461bcd60e51b8152602060048201526024808201527f45524332303a20617070726f76652066726f6d20746865207a65726f2061646460448201527f72657373000000000000000000000000000000000000000000000000000000006064820152608401610629565b73ffffffffffffffffffffffffffffffffffffffff8216610bc55760405162461bcd60e51b815260206004820152602260248201527f45524332303a20617070726f766520746f20746865207a65726f20616464726560448201527f73730000000000000000000000000000000000000000000000000000000000006064820152608401610629565b73ffffffffffffffffffffffffffffffffffffffff83811660008181526001602090815260408083209487168084529482529182902085905590518481527f8c5be1e5ebec7d5bd14f71427d1e84f3dd0314c0f7b2291e5b200ac8c7c3b92591015b60405180910390a3505050565b73ffffffffffffffffffffffffffffffffffffffff8381166000908152600160209081526040808320938616835292905220547fffffffffffffffffffffffffffffffffffffffffffffffffffffffffffffffff8114610ceb5781811015610cde5760405162461bcd60e51b815260206004820152601d60248201527f45524332303a20696e73756666696369656e7420616c6c6f77616e63650000006044820152606401610629565b610ceb8484848403610ab4565b50505050565b73ffffffffffffffffffffffffffffffffffffffff8316610d7a5760405162461bcd60e51b815260206004820152602560248201527f45524332303a207472616e736665722066726f6d20746865207a65726f20616460448201527f64726573730000000000000000000000000000000000000000000000000000006064820152608401610629565b73ffffffffffffffffffffffffffffffffffffffff8216610e035760405162461bcd60e51b815260206004820152602360248201527f45524332303a207472616e7366657220746f20746865207a65726f206164647260448201527f65737300000000000000000000000000000000000000000000000000000000006064820152608401610629565b73ffffffffffffffffffffffffffffffffffffffff831660009081526020819052604090205481811015610e9f5760405162461bcd60e51b815260206004820152602660248201527f45524332303a207472616e7366657220616d6f756e742065786365656473206260448201527f616c616e636500000000000000000000000000000000000000000000000000006064820152608401610629565b73ffffffffffffffffffffffffffffffffffffffff808516600090815260208190526040808220858503905591851681529081208054849290610ee3908490611521565b925050819055508273ffffffffffffffffffffffffffffffffffffffff168473ffffffffffffffffffffffffffffffffffffffff167fddf252ad1be2c89b69c2b068fc378daa952ba7f163c4a11628f55a4df523b3ef84604051610f4991815260200190565b60405180910390a3610ceb565b60007f8b73c3c69bb8fe3d512ecc4cf759cc79239f7b179b0ffacaa9a75d522b39400f610f81610428565b8051602091820120604080518082018252600181527f310000000000000000000000000000000000000000000000000000000000000090840152805192830193909352918101919091527fc89efdaa54c0f20c7adf612882df0950f5a951637e0307cdcb4c672f298b8bc66060820152608081018390523060a082015260c001604051602081830303815290604052805190602001209050919050565b73ffffffffffffffffffffffffffffffffffffffff82166110815760405162461bcd60e51b815260206004820152601f60248201527f45524332303a206d696e7420746f20746865207a65726f2061646472657373006044820152606401610629565b80600260008282546110939190611521565b909155505073ffffffffffffffffffffffffffffffffffffffff8216600090815260208190526040812080548392906110cd908490611521565b909155505060405181815273ffffffffffffffffffffffffffffffffffffffff8316906000907fddf252ad1be2c89b69c2b068fc378daa952ba7f163c4a11628f55a4df523b3ef9060200160405180910390a35050565b73ffffffffffffffffffffffffffffffffffffffff82166111ad5760405162461bcd60e51b815260206004820152602160248201527f45524332303a206275726e2066726f6d20746865207a65726f2061646472657360448201527f73000000000000000000000000000000000000000000000000000000000000006064820152608401610629565b73ffffffffffffffffffffffffffffffffffffffff8216600090815260208190526040902054818110156112495760405162461bcd60e51b815260206004820152602260248201527f45524332303a206275726e20616d6f756e7420657863656564732062616c616e60448201527f63650000000000000000000000000000000000000000000000000000000000006064820152608401610629565b73ffffffffffffffffffffffffffffffffffffffff83166000908152602081905260408120838303905560028054849290611285908490611571565b909155505060405182815260009073ffffffffffffffffffffffffffffffffffffffff8516907fddf252ad1be2c89b69c2b068fc378daa952ba7f163c4a11628f55a4df523b3ef90602001610c27565b600060208083528351808285015260005b81811015611302578581018301518582016040015282016112e6565b81811115611314576000604083870101525b50601f017fffffffffffffffffffffffffffffffffffffffffffffffffffffffffffffffe016929092016040019392505050565b803573ffffffffffffffffffffffffffffffffffffffff8116811461136c57600080fd5b919050565b6000806040838503121561138457600080fd5b61138d83611348565b946020939093013593505050565b6000806000606084860312156113b057600080fd5b6113b984611348565b92506113c760208501611348565b9150604084013590509250925092565b6000602082840312156113e957600080fd5b6113f282611348565b9392505050565b600080600080600080600060e0888a03121561141457600080fd5b61141d88611348565b965061142b60208901611348565b95506040880135945060608801359350608088013560ff8116811461144f57600080fd5b9699959850939692959460a0840135945060c09093013592915050565b6000806040838503121561147f57600080fd5b61148883611348565b915061149660208401611348565b90509250929050565b600181811c908216806114b357607f821691505b6020821081036114ec577f4e487b7100000000000000000000000000000000000000000000000000000000600052602260045260246000fd5b50919050565b7f4e487b7100000000000000000000000000000000000000000000000000000000600052601160045260246000fd5b60008219821115611534576115346114f2565b500190565b60007fffffffffffffffffffffffffffffffffffffffffffffffffffffffffffffffff820361156a5761156a6114f2565b5060010190565b600082821015611583576115836114f2565b50039056fea2646970667358221220dc9c54325b6ec8c11c8bc6a1630cfb64202b6d54611cd1004e705ceca7826a4f64736f6c634300080f0033a2646970667358221220cd5d627eb44db0ac502a5df7e6b4905941374829b022d6f8f6fd4be1a279530c64736f6c634300080f0033",
  "linkReferences": {},
  "deployedLinkReferences": {}
}