{
  "_format": "hh-sol-artifact-1",
  "contractName": "Bridge",
  "sourceName": "contracts/Bridge.sol",
  "abi": [
    {
      "anonymous": false,
      "inputs": [
        {
          "indexed": false,
          "internalType": "uint8",
          "name": "leafType",
          "type": "uint8"
        },
        {
          "indexed": false,
          "internalType": "uint32",
          "name": "originNetwork",
          "type": "uint32"
        },
        {
          "indexed": false,
          "internalType": "address",
          "name": "originAddress",
          "type": "address"
        },
        {
          "indexed": false,
          "internalType": "uint32",
          "name": "destinationNetwork",
          "type": "uint32"
        },
        {
          "indexed": false,
          "internalType": "address",
          "name": "destinationAddress",
          "type": "address"
        },
        {
          "indexed": false,
          "internalType": "uint256",
          "name": "amount",
          "type": "uint256"
        },
        {
          "indexed": false,
          "internalType": "bytes",
          "name": "metadata",
          "type": "bytes"
        },
        {
          "indexed": false,
          "internalType": "uint32",
          "name": "depositCount",
          "type": "uint32"
        }
      ],
      "name": "BridgeEvent",
      "type": "event"
    },
    {
      "anonymous": false,
      "inputs": [
        {
          "indexed": false,
          "internalType": "uint32",
          "name": "index",
          "type": "uint32"
        },
        {
          "indexed": false,
          "internalType": "uint32",
          "name": "originNetwork",
          "type": "uint32"
        },
        {
          "indexed": false,
          "internalType": "address",
          "name": "originAddress",
          "type": "address"
        },
        {
          "indexed": false,
          "internalType": "address",
          "name": "destinationAddress",
          "type": "address"
        },
        {
          "indexed": false,
          "internalType": "uint256",
          "name": "amount",
          "type": "uint256"
        }
      ],
      "name": "ClaimEvent",
      "type": "event"
    },
    {
      "anonymous": false,
      "inputs": [
        {
          "indexed": false,
          "internalType": "uint8",
          "name": "version",
          "type": "uint8"
        }
      ],
      "name": "Initialized",
      "type": "event"
    },
    {
      "anonymous": false,
      "inputs": [
        {
          "indexed": false,
          "internalType": "uint32",
          "name": "originNetwork",
          "type": "uint32"
        },
        {
          "indexed": false,
          "internalType": "address",
          "name": "originTokenAddress",
          "type": "address"
        },
        {
          "indexed": false,
          "internalType": "address",
          "name": "wrappedTokenAddress",
          "type": "address"
        }
      ],
      "name": "NewWrappedToken",
      "type": "event"
    },
    {
      "anonymous": false,
      "inputs": [
        {
          "indexed": false,
          "internalType": "address",
          "name": "account",
          "type": "address"
        }
      ],
      "name": "Paused",
      "type": "event"
    },
    {
      "anonymous": false,
      "inputs": [
        {
          "indexed": false,
          "internalType": "address",
          "name": "account",
          "type": "address"
        }
      ],
      "name": "Unpaused",
      "type": "event"
    },
    {
      "inputs": [],
      "name": "LEAF_TYPE_ASSET",
      "outputs": [
        {
          "internalType": "uint8",
          "name": "",
          "type": "uint8"
        }
      ],
      "stateMutability": "view",
      "type": "function"
    },
    {
      "inputs": [],
      "name": "LEAF_TYPE_MESSAGE",
      "outputs": [
        {
          "internalType": "uint8",
          "name": "",
          "type": "uint8"
        }
      ],
      "stateMutability": "view",
      "type": "function"
    },
    {
      "inputs": [],
      "name": "MAINNET_NETWORK_ID",
      "outputs": [
        {
          "internalType": "uint32",
          "name": "",
          "type": "uint32"
        }
      ],
      "stateMutability": "view",
      "type": "function"
    },
    {
      "inputs": [
        {
          "internalType": "address",
          "name": "token",
          "type": "address"
        },
        {
          "internalType": "uint32",
          "name": "destinationNetwork",
          "type": "uint32"
        },
        {
          "internalType": "address",
          "name": "destinationAddress",
          "type": "address"
        },
        {
          "internalType": "uint256",
          "name": "amount",
          "type": "uint256"
        },
        {
          "internalType": "bytes",
          "name": "permitData",
          "type": "bytes"
        }
      ],
      "name": "bridgeAsset",
      "outputs": [],
      "stateMutability": "payable",
      "type": "function"
    },
    {
      "inputs": [
        {
          "internalType": "uint32",
          "name": "destinationNetwork",
          "type": "uint32"
        },
        {
          "internalType": "address",
          "name": "destinationAddress",
          "type": "address"
        },
        {
          "internalType": "bytes",
          "name": "metadata",
          "type": "bytes"
        }
      ],
      "name": "bridgeMessage",
      "outputs": [],
      "stateMutability": "payable",
      "type": "function"
    },
    {
      "inputs": [
        {
          "internalType": "bytes32[]",
          "name": "smtProof",
          "type": "bytes32[]"
        },
        {
          "internalType": "uint32",
          "name": "index",
          "type": "uint32"
        },
        {
          "internalType": "bytes32",
          "name": "mainnetExitRoot",
          "type": "bytes32"
        },
        {
          "internalType": "bytes32",
          "name": "rollupExitRoot",
          "type": "bytes32"
        },
        {
          "internalType": "uint32",
          "name": "originNetwork",
          "type": "uint32"
        },
        {
          "internalType": "address",
          "name": "originTokenAddress",
          "type": "address"
        },
        {
          "internalType": "uint32",
          "name": "destinationNetwork",
          "type": "uint32"
        },
        {
          "internalType": "address",
          "name": "destinationAddress",
          "type": "address"
        },
        {
          "internalType": "uint256",
          "name": "amount",
          "type": "uint256"
        },
        {
          "internalType": "bytes",
          "name": "metadata",
          "type": "bytes"
        }
      ],
      "name": "claimAsset",
      "outputs": [],
      "stateMutability": "nonpayable",
      "type": "function"
    },
    {
      "inputs": [
        {
          "internalType": "bytes32[]",
          "name": "smtProof",
          "type": "bytes32[]"
        },
        {
          "internalType": "uint32",
          "name": "index",
          "type": "uint32"
        },
        {
          "internalType": "bytes32",
          "name": "mainnetExitRoot",
          "type": "bytes32"
        },
        {
          "internalType": "bytes32",
          "name": "rollupExitRoot",
          "type": "bytes32"
        },
        {
          "internalType": "uint32",
          "name": "originNetwork",
          "type": "uint32"
        },
        {
          "internalType": "address",
          "name": "originAddress",
          "type": "address"
        },
        {
          "internalType": "uint32",
          "name": "destinationNetwork",
          "type": "uint32"
        },
        {
          "internalType": "address",
          "name": "destinationAddress",
          "type": "address"
        },
        {
          "internalType": "uint256",
          "name": "amount",
          "type": "uint256"
        },
        {
          "internalType": "bytes",
          "name": "metadata",
          "type": "bytes"
        }
      ],
      "name": "claimMessage",
      "outputs": [],
      "stateMutability": "nonpayable",
      "type": "function"
    },
    {
      "inputs": [
        {
          "internalType": "uint256",
          "name": "",
          "type": "uint256"
        }
      ],
      "name": "claimNullifier",
      "outputs": [
        {
          "internalType": "bool",
          "name": "",
          "type": "bool"
        }
      ],
      "stateMutability": "view",
      "type": "function"
    },
    {
      "inputs": [],
      "name": "depositCount",
      "outputs": [
        {
          "internalType": "uint256",
          "name": "",
          "type": "uint256"
        }
      ],
      "stateMutability": "view",
      "type": "function"
    },
    {
      "inputs": [],
      "name": "getDepositRoot",
      "outputs": [
        {
          "internalType": "bytes32",
          "name": "",
          "type": "bytes32"
        }
      ],
      "stateMutability": "view",
      "type": "function"
    },
    {
      "inputs": [
        {
          "internalType": "uint8",
          "name": "leafType",
          "type": "uint8"
        },
        {
          "internalType": "uint32",
          "name": "originNetwork",
          "type": "uint32"
        },
        {
          "internalType": "address",
          "name": "originAddress",
          "type": "address"
        },
        {
          "internalType": "uint32",
          "name": "destinationNetwork",
          "type": "uint32"
        },
        {
          "internalType": "address",
          "name": "destinationAddress",
          "type": "address"
        },
        {
          "internalType": "uint256",
          "name": "amount",
          "type": "uint256"
        },
        {
          "internalType": "bytes32",
          "name": "metadataHash",
          "type": "bytes32"
        }
      ],
      "name": "getLeafValue",
      "outputs": [
        {
          "internalType": "bytes32",
          "name": "",
          "type": "bytes32"
        }
      ],
      "stateMutability": "pure",
      "type": "function"
    },
    {
      "inputs": [
        {
          "internalType": "uint32",
          "name": "originNetwork",
          "type": "uint32"
        },
        {
          "internalType": "address",
          "name": "originTokenAddress",
          "type": "address"
        }
      ],
      "name": "getTokenWrappedAddress",
      "outputs": [
        {
          "internalType": "address",
          "name": "",
          "type": "address"
        }
      ],
      "stateMutability": "view",
      "type": "function"
    },
    {
      "inputs": [],
      "name": "globalExitRootManager",
      "outputs": [
        {
          "internalType": "contract IGlobalExitRootManager",
          "name": "",
          "type": "address"
        }
      ],
      "stateMutability": "view",
      "type": "function"
    },
    {
      "inputs": [
        {
          "internalType": "uint32",
          "name": "_networkID",
          "type": "uint32"
        },
        {
          "internalType": "contract IGlobalExitRootManager",
          "name": "_globalExitRootManager",
          "type": "address"
        },
        {
          "internalType": "address",
          "name": "_poeAddress",
          "type": "address"
        }
      ],
      "name": "initialize",
      "outputs": [],
      "stateMutability": "nonpayable",
      "type": "function"
    },
    {
      "inputs": [],
      "name": "networkID",
      "outputs": [
        {
          "internalType": "uint32",
          "name": "",
          "type": "uint32"
        }
      ],
      "stateMutability": "view",
      "type": "function"
    },
    {
      "inputs": [],
      "name": "pause",
      "outputs": [],
      "stateMutability": "nonpayable",
      "type": "function"
    },
    {
      "inputs": [],
      "name": "paused",
      "outputs": [
        {
          "internalType": "bool",
          "name": "",
          "type": "bool"
        }
      ],
      "stateMutability": "view",
      "type": "function"
    },
    {
      "inputs": [],
      "name": "poeAddress",
      "outputs": [
        {
          "internalType": "address",
          "name": "",
          "type": "address"
        }
      ],
      "stateMutability": "view",
      "type": "function"
    },
    {
      "inputs": [
        {
          "internalType": "uint32",
          "name": "originNetwork",
          "type": "uint32"
        },
        {
          "internalType": "address",
          "name": "originTokenAddress",
          "type": "address"
        }
      ],
      "name": "precalculatedWrapperAddress",
      "outputs": [
        {
          "internalType": "address",
          "name": "",
          "type": "address"
        }
      ],
      "stateMutability": "view",
      "type": "function"
    },
    {
      "inputs": [],
      "name": "tokenImplementation",
      "outputs": [
        {
          "internalType": "address",
          "name": "",
          "type": "address"
        }
      ],
      "stateMutability": "view",
      "type": "function"
    },
    {
      "inputs": [
        {
          "internalType": "bytes32",
          "name": "",
          "type": "bytes32"
        }
      ],
      "name": "tokenInfoToWrappedToken",
      "outputs": [
        {
          "internalType": "address",
          "name": "",
          "type": "address"
        }
      ],
      "stateMutability": "view",
      "type": "function"
    },
    {
      "inputs": [],
      "name": "unpause",
      "outputs": [],
      "stateMutability": "nonpayable",
      "type": "function"
    },
    {
      "inputs": [
        {
          "internalType": "bytes32",
          "name": "leafHash",
          "type": "bytes32"
        },
        {
          "internalType": "bytes32[]",
          "name": "smtProof",
          "type": "bytes32[]"
        },
        {
          "internalType": "uint64",
          "name": "index",
          "type": "uint64"
        },
        {
          "internalType": "bytes32",
          "name": "root",
          "type": "bytes32"
        }
      ],
      "name": "verifyMerkleProof",
      "outputs": [
        {
          "internalType": "bool",
          "name": "",
          "type": "bool"
        }
      ],
      "stateMutability": "pure",
      "type": "function"
    },
    {
      "inputs": [
        {
          "internalType": "address",
          "name": "",
          "type": "address"
        }
      ],
      "name": "wrappedTokenToTokenInfo",
      "outputs": [
        {
          "internalType": "uint32",
          "name": "originNetwork",
          "type": "uint32"
        },
        {
          "internalType": "address",
          "name": "originTokenAddress",
          "type": "address"
        }
      ],
      "stateMutability": "view",
      "type": "function"
    }
  ],
  "bytecode": "0x608060405234801561001057600080fd5b50615c38806100206000396000f3fe608060405260043610620001ab5760003560e01c80637b6323c111620000e7578063bab161bf1162000089578063e73758811162000060578063e73758811462000632578063ed6be5c91462000666578063ff634ed7146200067d57600080fd5b8063bab161bf14620005b7578063d02103ca14620005ec578063d96a15f7146200061b57600080fd5b80638f61151911620000be5780638f6115191462000539578063a08e8a081462000568578063b7e6a7d4146200059257600080fd5b80637b6323c114620004b557806381b1c17414620004da5780638456cb59146200052157600080fd5b80633da8168211620001515780634638554911620001285780634638554914620004515780635c975abb1462000476578063647c576c146200049057600080fd5b80633da81682146200030f5780633e19704314620003455780633f4ba83a146200043957600080fd5b80632f3a3d5d11620001865780632f3a3d5d146200023f578063318aee3d146200026e5780633ae0504714620002f757600080fd5b80630871e97114620001b057806322e95f2c14620001c95780632dfdf0b51462000218575b600080fd5b620001c7620001c13660046200375b565b62000694565b005b348015620001d657600080fd5b50620001ee620001e836600462003817565b62000c92565b60405173ffffffffffffffffffffffffffffffffffffffff90911681526020015b60405180910390f35b3480156200022557600080fd5b506200023060215481565b6040519081526020016200020f565b3480156200024c57600080fd5b50608b54620001ee9073ffffffffffffffffffffffffffffffffffffffff1681565b3480156200027b57600080fd5b50620002c56200028d36600462003853565b60896020526000908152604090205463ffffffff811690640100000000900473ffffffffffffffffffffffffffffffffffffffff1682565b6040805163ffffffff909316835273ffffffffffffffffffffffffffffffffffffffff9091166020830152016200020f565b3480156200030457600080fd5b506200023062000d35565b3480156200031c57600080fd5b50620003346200032e36600462003972565b62000e28565b60405190151581526020016200020f565b3480156200035257600080fd5b506200023062000364366004620039f0565b6040517fff0000000000000000000000000000000000000000000000000000000000000060f889901b1660208201527fffffffff0000000000000000000000000000000000000000000000000000000060e088811b821660218401527fffffffffffffffffffffffffffffffffffffffff000000000000000000000000606089811b821660258601529188901b909216603984015285901b16603d8201526051810183905260718101829052600090609101604051602081830303815290604052805190602001209050979650505050505050565b3480156200044657600080fd5b50620001c762000f28565b3480156200045e57600080fd5b50620001c76200047036600462003b1f565b62001003565b3480156200048357600080fd5b5060545460ff1662000334565b3480156200049d57600080fd5b50620001c7620004af36600462003c06565b62001667565b348015620004c257600080fd5b50620001c7620004d436600462003b1f565b620018f5565b348015620004e757600080fd5b50620001ee620004f936600462003c56565b60886020526000908152604090205473ffffffffffffffffffffffffffffffffffffffff1681565b3480156200052e57600080fd5b50620001c7620022be565b3480156200054657600080fd5b50608c54620001ee9073ffffffffffffffffffffffffffffffffffffffff1681565b3480156200057557600080fd5b506200057f600081565b60405160ff90911681526020016200020f565b3480156200059f57600080fd5b50620001ee620005b136600462003817565b62002397565b348015620005c457600080fd5b50608654620005d69063ffffffff1681565b60405163ffffffff90911681526020016200020f565b348015620005f957600080fd5b50608a54620001ee9073ffffffffffffffffffffffffffffffffffffffff1681565b620001c76200062c36600462003c70565b62002460565b3480156200063f57600080fd5b50620003346200065136600462003c56565b60876020526000908152604090205460ff1681565b3480156200067357600080fd5b50620005d6600081565b3480156200068a57600080fd5b506200057f600181565b6200069e620026b7565b60865463ffffffff908116908616036200073f576040517f08c379a000000000000000000000000000000000000000000000000000000000815260206004820152602a60248201527f4272696467653a3a6272696467653a2044455354494e4154494f4e5f43414e5460448201527f5f42455f495453454c460000000000000000000000000000000000000000000060648201526084015b60405180910390fd5b600080606073ffffffffffffffffffffffffffffffffffffffff8916620007fb57853414620007f1576040517f08c379a000000000000000000000000000000000000000000000000000000000815260206004820152602f60248201527f4272696467653a3a6272696467653a20414d4f554e545f444f45535f4e4f545f60448201527f4d415443485f4d53475f56414c55450000000000000000000000000000000000606482015260840162000736565b6000915062000b0f565b73ffffffffffffffffffffffffffffffffffffffff808a1660009081526089602090815260409182902082518084019093525463ffffffff8116835264010000000090049092169181018290529015620008fc576040517f9dc29fac0000000000000000000000000000000000000000000000000000000081523360048201526024810188905273ffffffffffffffffffffffffffffffffffffffff8b1690639dc29fac906044016020604051808303816000875af1158015620008c3573d6000803e3d6000fd5b505050506040513d601f19601f82011682018060405250810190620008e9919062003ce7565b5060208101518151909450925062000b0d565b84156200091157620009118a88888862002726565b6200093573ffffffffffffffffffffffffffffffffffffffff8b1633308a62002e50565b899350608660009054906101000a900463ffffffff1692508973ffffffffffffffffffffffffffffffffffffffff166306fdde036040518163ffffffff1660e01b8152600401600060405180830381865afa15801562000999573d6000803e3d6000fd5b505050506040513d6000823e601f3d9081017fffffffffffffffffffffffffffffffffffffffffffffffffffffffffffffffe0168201604052620009e1919081019062003d82565b8a73ffffffffffffffffffffffffffffffffffffffff166395d89b416040518163ffffffff1660e01b8152600401600060405180830381865afa15801562000a2d573d6000803e3d6000fd5b505050506040513d6000823e601f3d9081017fffffffffffffffffffffffffffffffffffffffffffffffffffffffffffffffe016820160405262000a75919081019062003d82565b8b73ffffffffffffffffffffffffffffffffffffffff1663313ce5676040518163ffffffff1660e01b8152600401602060405180830381865afa15801562000ac1573d6000803e3d6000fd5b505050506040513d601f19601f8201168201806040525081019062000ae7919062003dbb565b60405160200162000afb9392919062003e27565b60405160208183030381529060405291505b505b7f501781209a1f8899323b96b4ef08b168df93e0a90c673d1e4cce39366cb62f9b600083858b8b8b8760215460405162000b5198979695949392919062003e64565b60405180910390a18051602080830191909120604080516000818501527fffffffff0000000000000000000000000000000000000000000000000000000060e087811b821660218401527fffffffffffffffffffffffffffffffffffffffff00000000000000000000000060608a811b82166025860152918f901b90921660398401528c901b16603d820152605181018a9052607180820193909352815180820390930183526091019052805191012062000c0c9062002f2e565b608a5473ffffffffffffffffffffffffffffffffffffffff166333d6247d62000c3462000d35565b6040518263ffffffff1660e01b815260040162000c5391815260200190565b600060405180830381600087803b15801562000c6e57600080fd5b505af115801562000c83573d6000803e3d6000fd5b50505050505050505050505050565b6040805160e084901b7fffffffff0000000000000000000000000000000000000000000000000000000016602080830191909152606084901b7fffffffffffffffffffffffffffffffffffffffff000000000000000000000000166024830152825160188184030181526038909201835281519181019190912060009081526088909152205473ffffffffffffffffffffffffffffffffffffffff165b92915050565b602154600090819081805b602081101562000e1f578260011660010362000da0576001816020811062000d6c5762000d6c62003edd565b0154604080516020810192909252810185905260600160405160208183030381529060405280519060200120935062000dcd565b60408051602081018690529081018390526060016040516020818303038152906040528051906020012093505b62000dda60028462003f3b565b6040805160208101859052908101849052909350606001604051602081830303815290604052805190602001209150808062000e169062003f77565b91505062000d40565b50919392505050565b60008467ffffffffffffffff8416825b602081101562000f1b578160011660010362000ea55786818151811062000e635762000e6362003edd565b60200260200101518360405160200162000e87929190918252602082015260400190565b60405160208183030381529060405280519060200120925062000ef7565b8287828151811062000ebb5762000ebb62003edd565b602002602001015160405160200162000ede929190918252602082015260400190565b6040516020818303038152906040528051906020012092505b62000f0460028362003f3b565b91508062000f128162003f77565b91505062000e38565b5050909114949350505050565b608c5473ffffffffffffffffffffffffffffffffffffffff16331462000ff7576040517f08c379a000000000000000000000000000000000000000000000000000000000815260206004820152604b60248201527f50726f6f664f66456666696369656e63793a3a6f6e6c7950726f6f664f66456660448201527f66696369656e63793a206f6e6c792050726f6f66206f6620456666696369656e60648201527f637920636f6e7472616374000000000000000000000000000000000000000000608482015260a40162000736565b62001001620030ac565b565b6200100d620026b7565b63ffffffff891660009081526087602052604090205460ff1615620010b5576040517f08c379a000000000000000000000000000000000000000000000000000000000815260206004820152602560248201527f4272696467653a3a636c61696d4d6573736167653a20414c52454144595f434c60448201527f41494d4544000000000000000000000000000000000000000000000000000000606482015260840162000736565b608a546040805160208082018c90528183018b9052825180830384018152606083019384905280519101207f257b363200000000000000000000000000000000000000000000000000000000909252606481019190915273ffffffffffffffffffffffffffffffffffffffff9091169063257b3632906084016020604051808303816000875af11580156200114e573d6000803e3d6000fd5b505050506040513d601f19601f8201168201806040525081019062001174919062003fb2565b60000362001205576040517f08c379a000000000000000000000000000000000000000000000000000000000815260206004820152603560248201527f4272696467653a3a636c61696d4d6573736167653a20474c4f42414c5f45584960448201527f545f524f4f545f444f45535f4e4f545f4d415443480000000000000000000000606482015260840162000736565b60865463ffffffff858116911614620012a1576040517f08c379a000000000000000000000000000000000000000000000000000000000815260206004820152603860248201527f4272696467653a3a636c61696d4d6573736167653a2044455354494e4154494f60448201527f4e5f4e4554574f524b5f444f45535f4e4f545f4d415443480000000000000000606482015260840162000736565b60865460009063ffffffff16620012ba575086620012bd565b50875b8151602080840191909120604080517f0100000000000000000000000000000000000000000000000000000000000000818501527fffffffff0000000000000000000000000000000000000000000000000000000060e08c811b821660218401527fffffffffffffffffffffffffffffffffffffffff00000000000000000000000060608d811b82166025860152918c901b909216603984015289901b16603d82015260518101879052607180820193909352815180820390930183526091019052805191012062001399905b8c8c63ffffffff168462000e28565b62001427576040517f08c379a000000000000000000000000000000000000000000000000000000000815260206004820152602160248201527f4272696467653a3a636c61696d4d6573736167653a20534d545f494e56414c4960448201527f4400000000000000000000000000000000000000000000000000000000000000606482015260840162000736565b63ffffffff8a1660009081526087602052604080822080547fffffffffffffffffffffffffffffffffffffffffffffffffffffffffffffff001660011790555173ffffffffffffffffffffffffffffffffffffffff861690859062001495908a908c90889060240162003fcc565b604080517fffffffffffffffffffffffffffffffffffffffffffffffffffffffffffffffe08184030181529181526020820180517bffffffffffffffffffffffffffffffffffffffffffffffffffffffff167f1806b5f2000000000000000000000000000000000000000000000000000000001790525162001518919062004012565b60006040518083038185875af1925050503d806000811462001557576040519150601f19603f3d011682016040523d82523d6000602084013e6200155c565b606091505b5050905080620015ee576040517f08c379a0000000000000000000000000000000000000000000000000000000008152602060048201526024808201527f4272696467653a3a636c61696d4d6573736167653a204d4553534147455f464160448201527f494c454400000000000000000000000000000000000000000000000000000000606482015260840162000736565b6040805163ffffffff8d811682528a16602082015273ffffffffffffffffffffffffffffffffffffffff89811682840152871660608201526080810186905290517f25308c93ceeed162da955b3f7ce3e3f93606579e40fb92029faa9efe275459839181900360a00190a1505050505050505050505050565b600054610100900460ff1615808015620016885750600054600160ff909116105b80620016a45750303b158015620016a4575060005460ff166001145b62001732576040517f08c379a000000000000000000000000000000000000000000000000000000000815260206004820152602e60248201527f496e697469616c697a61626c653a20636f6e747261637420697320616c72656160448201527f647920696e697469616c697a6564000000000000000000000000000000000000606482015260840162000736565b600080547fffffffffffffffffffffffffffffffffffffffffffffffffffffffffffffff0016600117905580156200179157600080547fffffffffffffffffffffffffffffffffffffffffffffffffffffffffffff00ff166101001790555b608680547fffffffffffffffffffffffffffffffffffffffffffffffffffffffff000000001663ffffffff8616179055608a80547fffffffffffffffffffffffff00000000000000000000000000000000000000001673ffffffffffffffffffffffffffffffffffffffff85161790556040516200180f9062003700565b604051809103906000f0801580156200182c573d6000803e3d6000fd5b50608b80547fffffffffffffffffffffffff000000000000000000000000000000000000000090811673ffffffffffffffffffffffffffffffffffffffff93841617909155608c80549091169184169190911790556200188b6200312b565b8015620018ef57600080547fffffffffffffffffffffffffffffffffffffffffffffffffffffffffffff00ff169055604051600181527f7f26b83ff96e1f2b6a682f133852f6798a09c465da95921460cefb38474024989060200160405180910390a15b50505050565b620018ff620026b7565b63ffffffff891660009081526087602052604090205460ff1615620019a7576040517f08c379a000000000000000000000000000000000000000000000000000000000815260206004820152602360248201527f4272696467653a3a636c61696d41737365743a20414c52454144595f434c414960448201527f4d45440000000000000000000000000000000000000000000000000000000000606482015260840162000736565b608a546040805160208082018c90528183018b9052825180830384018152606083019384905280519101207f257b363200000000000000000000000000000000000000000000000000000000909252606481019190915273ffffffffffffffffffffffffffffffffffffffff9091169063257b3632906084016020604051808303816000875af115801562001a40573d6000803e3d6000fd5b505050506040513d601f19601f8201168201806040525081019062001a66919062003fb2565b60000362001af7576040517f08c379a000000000000000000000000000000000000000000000000000000000815260206004820152603360248201527f4272696467653a3a636c61696d41737365743a20474c4f42414c5f455849545f60448201527f524f4f545f444f45535f4e4f545f4d4154434800000000000000000000000000606482015260840162000736565b60865463ffffffff85811691161462001b93576040517f08c379a000000000000000000000000000000000000000000000000000000000815260206004820152603660248201527f4272696467653a3a636c61696d41737365743a2044455354494e4154494f4e5f60448201527f4e4554574f524b5f444f45535f4e4f545f4d4154434800000000000000000000606482015260840162000736565b60865460009063ffffffff1662001bac57508662001baf565b50875b8151602080840191909120604080516000818501527fffffffff0000000000000000000000000000000000000000000000000000000060e08c811b821660218401527fffffffffffffffffffffffffffffffffffffffff00000000000000000000000060608d811b82166025860152918c901b909216603984015289901b16603d82015260518101879052607180820193909352815180820390930183526091019052805191012062001c62906200138a565b62001cca576040517f08c379a000000000000000000000000000000000000000000000000000000000815260206004820152601f60248201527f4272696467653a3a636c61696d41737365743a20534d545f494e56414c494400604482015260640162000736565b63ffffffff8a16600090815260876020526040902080547fffffffffffffffffffffffffffffffffffffffffffffffffffffffffffffff0016600117905573ffffffffffffffffffffffffffffffffffffffff861662001e3b576040805160008082526020820190925273ffffffffffffffffffffffffffffffffffffffff861690859060405162001d5d919062004012565b60006040518083038185875af1925050503d806000811462001d9c576040519150601f19603f3d011682016040523d82523d6000602084013e62001da1565b606091505b505090508062001e34576040517f08c379a000000000000000000000000000000000000000000000000000000000815260206004820152602760248201527f4272696467653a3a636c61696d41737365743a204554485f5452414e5346455260448201527f5f4641494c454400000000000000000000000000000000000000000000000000606482015260840162000736565b5062002246565b60865463ffffffff9081169088160362001e785762001e7273ffffffffffffffffffffffffffffffffffffffff87168585620031ee565b62002246565b6040517fffffffff0000000000000000000000000000000000000000000000000000000060e089901b1660208201527fffffffffffffffffffffffffffffffffffffffff000000000000000000000000606088901b166024820152600090603801604080517fffffffffffffffffffffffffffffffffffffffffffffffffffffffffffffffe081840301815291815281516020928301206000818152608890935291205490915073ffffffffffffffffffffffffffffffffffffffff1680620021a557608b5460009062001f639073ffffffffffffffffffffffffffffffffffffffff168462003246565b905060008060008780602001905181019062001f80919062004030565b9250925092508373ffffffffffffffffffffffffffffffffffffffff16636c9452218484848e8e6040518663ffffffff1660e01b815260040162001fc9959493929190620040a6565b600060405180830381600087803b15801562001fe457600080fd5b505af115801562001ff9573d6000803e3d6000fd5b50505050836088600088815260200190815260200160002060006101000a81548173ffffffffffffffffffffffffffffffffffffffff021916908373ffffffffffffffffffffffffffffffffffffffff16021790555060405180604001604052808e63ffffffff1681526020018d73ffffffffffffffffffffffffffffffffffffffff16815250608960008673ffffffffffffffffffffffffffffffffffffffff1673ffffffffffffffffffffffffffffffffffffffff16815260200190815260200160002060008201518160000160006101000a81548163ffffffff021916908363ffffffff16021790555060208201518160000160046101000a81548173ffffffffffffffffffffffffffffffffffffffff021916908373ffffffffffffffffffffffffffffffffffffffff1602179055509050507fccd7715648d1f2bb13e158f96b5b6c3aeda555d4cb87112e274a6f28bc571d598d8d86604051620021939392919063ffffffff93909316835273ffffffffffffffffffffffffffffffffffffffff918216602084015216604082015260600190565b60405180910390a15050505062002243565b6040517f40c10f1900000000000000000000000000000000000000000000000000000000815273ffffffffffffffffffffffffffffffffffffffff8781166004830152602482018790528216906340c10f19906044016020604051808303816000875af11580156200221b573d6000803e3d6000fd5b505050506040513d601f19601f8201168201806040525081019062002241919062003ce7565b505b50505b6040805163ffffffff8c811682528916602082015273ffffffffffffffffffffffffffffffffffffffff88811682840152861660608201526080810185905290517f25308c93ceeed162da955b3f7ce3e3f93606579e40fb92029faa9efe275459839181900360a00190a15050505050505050505050565b608c5473ffffffffffffffffffffffffffffffffffffffff1633146200238d576040517f08c379a000000000000000000000000000000000000000000000000000000000815260206004820152604b60248201527f50726f6f664f66456666696369656e63793a3a6f6e6c7950726f6f664f66456660448201527f66696369656e63793a206f6e6c792050726f6f66206f6620456666696369656e60648201527f637920636f6e7472616374000000000000000000000000000000000000000000608482015260a40162000736565b6200100162003326565b6040517fffffffff0000000000000000000000000000000000000000000000000000000060e084901b1660208201527fffffffffffffffffffffffffffffffffffffffff000000000000000000000000606083901b1660248201526000908190603801604080517fffffffffffffffffffffffffffffffffffffffffffffffffffffffffffffffe08184030181529190528051602090910120608b54909150620024589073ffffffffffffffffffffffffffffffffffffffff168262003384565b949350505050565b6200246a620026b7565b60865463ffffffff9081169084160362002507576040517f08c379a000000000000000000000000000000000000000000000000000000000815260206004820152602a60248201527f4272696467653a3a6272696467653a2044455354494e4154494f4e5f43414e5460448201527f5f42455f495453454c4600000000000000000000000000000000000000000000606482015260840162000736565b6086546021546040517f501781209a1f8899323b96b4ef08b168df93e0a90c673d1e4cce39366cb62f9b92620025549260019263ffffffff9092169133918991899134918a919062003e64565b60405180910390a16086548151602080840191909120604080517f0100000000000000000000000000000000000000000000000000000000000000818501527fffffffff0000000000000000000000000000000000000000000000000000000060e095861b811660218301527fffffffffffffffffffffffffffffffffffffffff00000000000000000000000033606090811b82166025850152968a901b90911660398301529487901b909416603d8501523460518501526071808501929092528051808503909201825260919093019092528151910120620026379062002f2e565b608a5473ffffffffffffffffffffffffffffffffffffffff166333d6247d6200265f62000d35565b6040518263ffffffff1660e01b81526004016200267e91815260200190565b600060405180830381600087803b1580156200269957600080fd5b505af1158015620026ae573d6000803e3d6000fd5b50505050505050565b60545460ff161562001001576040517f08c379a000000000000000000000000000000000000000000000000000000000815260206004820152601060248201527f5061757361626c653a2070617573656400000000000000000000000000000000604482015260640162000736565b60006200276983838080601f0160208091040260200160405190810160405280939291908181526020018383808284376000920191909152506200340892505050565b90507f2afa5331000000000000000000000000000000000000000000000000000000007fffffffff0000000000000000000000000000000000000000000000000000000082160162002aed576000808080808080620027cc896004818d62004106565b810190620027db919062004132565b96509650965096509650965096503373ffffffffffffffffffffffffffffffffffffffff168773ffffffffffffffffffffffffffffffffffffffff1614620028a6576040517f08c379a000000000000000000000000000000000000000000000000000000000815260206004820152603060248201527f4272696467653a3a5f7065726d69743a205045524d49545f4f574e45525f4d5560448201527f53545f42455f5448455f53454e44455200000000000000000000000000000000606482015260840162000736565b73ffffffffffffffffffffffffffffffffffffffff861630146200294d576040517f08c379a000000000000000000000000000000000000000000000000000000000815260206004820152602560248201527f4272696467653a3a5f7065726d69743a205350454e4445525f4d5553545f424560448201527f5f54484953000000000000000000000000000000000000000000000000000000606482015260840162000736565b8a8514620029de576040517f08c379a000000000000000000000000000000000000000000000000000000000815260206004820152602d60248201527f4272696467653a3a5f7065726d69743a205045524d49545f414d4f554e545f4460448201527f4f45535f4e4f545f4d4154434800000000000000000000000000000000000000606482015260840162000736565b6040805173ffffffffffffffffffffffffffffffffffffffff89811660248301528881166044830152606482018890526084820187905260ff861660a483015260c4820185905260e48083018590528351808403909101815261010490920183526020820180517bffffffffffffffffffffffffffffffffffffffffffffffffffffffff167fd505accf000000000000000000000000000000000000000000000000000000001790529151918e169162002a99919062004012565b6000604051808303816000865af19150503d806000811462002ad8576040519150601f19603f3d011682016040523d82523d6000602084013e62002add565b606091505b5050505050505050505062002e49565b7fffffffff0000000000000000000000000000000000000000000000000000000081167f8fcbaf0c000000000000000000000000000000000000000000000000000000001462002b9a576040517f08c379a000000000000000000000000000000000000000000000000000000000815260206004820152601f60248201527f4272696467653a3a5f7065726d69743a204e4f545f56414c49445f43414c4c00604482015260640162000736565b60008080808080808062002bb28a6004818e62004106565b81019062002bc191906200418d565b975097509750975097509750975097503373ffffffffffffffffffffffffffffffffffffffff168873ffffffffffffffffffffffffffffffffffffffff161462002c8e576040517f08c379a000000000000000000000000000000000000000000000000000000000815260206004820152603060248201527f4272696467653a3a5f7065726d69743a205045524d49545f4f574e45525f4d5560448201527f53545f42455f5448455f53454e44455200000000000000000000000000000000606482015260840162000736565b73ffffffffffffffffffffffffffffffffffffffff8716301462002d35576040517f08c379a000000000000000000000000000000000000000000000000000000000815260206004820152602560248201527f4272696467653a3a5f7065726d69743a205350454e4445525f4d5553545f424560448201527f5f54484953000000000000000000000000000000000000000000000000000000606482015260840162000736565b6040805173ffffffffffffffffffffffffffffffffffffffff8a811660248301528981166044830152606482018990526084820188905286151560a483015260ff861660c483015260e482018590526101048083018590528351808403909101815261012490920183526020820180517bffffffffffffffffffffffffffffffffffffffffffffffffffffffff167f8fcbaf0c000000000000000000000000000000000000000000000000000000001790529151918f169162002df9919062004012565b6000604051808303816000865af19150503d806000811462002e38576040519150601f19603f3d011682016040523d82523d6000602084013e62002e3d565b606091505b50505050505050505050505b5050505050565b60405173ffffffffffffffffffffffffffffffffffffffff80851660248301528316604482015260648101829052620018ef9085907f23b872dd00000000000000000000000000000000000000000000000000000000906084015b604080517fffffffffffffffffffffffffffffffffffffffffffffffffffffffffffffffe08184030181529190526020810180517bffffffffffffffffffffffffffffffffffffffffffffffffffffffff167fffffffff00000000000000000000000000000000000000000000000000000000909316929092179091526200340f565b80600162002f3f6020600262004352565b62002f4b919062004360565b6021541062002fdd576040517f08c379a000000000000000000000000000000000000000000000000000000000815260206004820152602a60248201527f4465706f736974436f6e74726163743a5f6465706f7369743a204d45524b4c4560448201527f5f545245455f46554c4c00000000000000000000000000000000000000000000606482015260840162000736565b60016021600082825462002ff291906200437a565b909155505060215460005b60208110156200309c5781600116600103620030325782600182602081106200302a576200302a62003edd565b015550505050565b6001816020811062003048576200304862003edd565b0154604080516020810192909252810184905260600160405160208183030381529060405280519060200120925060028262003085919062003f3b565b915080620030938162003f77565b91505062002ffd565b50620030a762004395565b505050565b620030b662003522565b605480547fffffffffffffffffffffffffffffffffffffffffffffffffffffffffffffff001690557f5db9ee0a495bf2e6ff9c91a7834c1ba4fdd244a5e8aa4e537bd38aeae4b073aa335b60405173ffffffffffffffffffffffffffffffffffffffff909116815260200160405180910390a1565b600054610100900460ff16620031c4576040517f08c379a000000000000000000000000000000000000000000000000000000000815260206004820152602b60248201527f496e697469616c697a61626c653a20636f6e7472616374206973206e6f74206960448201527f6e697469616c697a696e67000000000000000000000000000000000000000000606482015260840162000736565b605480547fffffffffffffffffffffffffffffffffffffffffffffffffffffffffffffff00169055565b60405173ffffffffffffffffffffffffffffffffffffffff8316602482015260448101829052620030a79084907fa9059cbb000000000000000000000000000000000000000000000000000000009060640162002eab565b60006040517f3d602d80600a3d3981f3363d3d373d3d3d363d7300000000000000000000000081528360601b60148201527f5af43d82803e903d91602b57fd5bf300000000000000000000000000000000006028820152826037826000f591505073ffffffffffffffffffffffffffffffffffffffff811662000d2f576040517f08c379a000000000000000000000000000000000000000000000000000000000815260206004820152601760248201527f455243313136373a2063726561746532206661696c6564000000000000000000604482015260640162000736565b62003330620026b7565b605480547fffffffffffffffffffffffffffffffffffffffffffffffffffffffffffffff001660011790557f62e78cea01bee320cd4e420270b5ea74000d11b0c9f74754ebdbfc544b05a258620031013390565b6000620034018383306040517f3d602d80600a3d3981f3363d3d373d3d3d363d730000000000000000000000008152606093841b60148201527f5af43d82803e903d91602b57fd5bf3ff000000000000000000000000000000006028820152921b6038830152604c8201526037808220606c830152605591012090565b9392505050565b6020015190565b600062003473826040518060400160405280602081526020017f5361666545524332303a206c6f772d6c6576656c2063616c6c206661696c65648152508573ffffffffffffffffffffffffffffffffffffffff16620035909092919063ffffffff16565b805190915015620030a7578080602001905181019062003494919062003ce7565b620030a7576040517f08c379a000000000000000000000000000000000000000000000000000000000815260206004820152602a60248201527f5361666545524332303a204552433230206f7065726174696f6e20646964206e60448201527f6f74207375636365656400000000000000000000000000000000000000000000606482015260840162000736565b60545460ff1662001001576040517f08c379a000000000000000000000000000000000000000000000000000000000815260206004820152601460248201527f5061757361626c653a206e6f7420706175736564000000000000000000000000604482015260640162000736565b60606200245884846000858573ffffffffffffffffffffffffffffffffffffffff85163b6200361c576040517f08c379a000000000000000000000000000000000000000000000000000000000815260206004820152601d60248201527f416464726573733a2063616c6c20746f206e6f6e2d636f6e7472616374000000604482015260640162000736565b6000808673ffffffffffffffffffffffffffffffffffffffff16858760405162003647919062004012565b60006040518083038185875af1925050503d806000811462003686576040519150601f19603f3d011682016040523d82523d6000602084013e6200368b565b606091505b50915091506200369d828286620036a8565b979650505050505050565b60608315620036b957508162003401565b825115620036ca5782518084602001fd5b816040517f08c379a0000000000000000000000000000000000000000000000000000000008152600401620007369190620043c4565b61182980620043da83390190565b73ffffffffffffffffffffffffffffffffffffffff811681146200373157600080fd5b50565b803562003741816200370e565b919050565b803563ffffffff811681146200374157600080fd5b60008060008060008060a087890312156200377557600080fd5b863562003782816200370e565b9550620037926020880162003746565b94506040870135620037a4816200370e565b935060608701359250608087013567ffffffffffffffff80821115620037c957600080fd5b818901915089601f830112620037de57600080fd5b813581811115620037ee57600080fd5b8a60208285010111156200380157600080fd5b6020830194508093505050509295509295509295565b600080604083850312156200382b57600080fd5b620038368362003746565b9150602083013562003848816200370e565b809150509250929050565b6000602082840312156200386657600080fd5b813562003401816200370e565b7f4e487b7100000000000000000000000000000000000000000000000000000000600052604160045260246000fd5b604051601f82017fffffffffffffffffffffffffffffffffffffffffffffffffffffffffffffffe016810167ffffffffffffffff81118282101715620038ec57620038ec62003873565b604052919050565b600082601f8301126200390657600080fd5b8135602067ffffffffffffffff82111562003925576200392562003873565b8160051b62003936828201620038a2565b92835284810182019282810190878511156200395157600080fd5b83870192505b848310156200369d5782358252918301919083019062003957565b600080600080608085870312156200398957600080fd5b84359350602085013567ffffffffffffffff80821115620039a957600080fd5b620039b788838901620038f4565b9450604087013591508082168214620039cf57600080fd5b509396929550929360600135925050565b60ff811681146200373157600080fd5b600080600080600080600060e0888a03121562003a0c57600080fd5b873562003a1981620039e0565b965062003a296020890162003746565b9550604088013562003a3b816200370e565b945062003a4b6060890162003746565b9350608088013562003a5d816200370e565b9699959850939692959460a0840135945060c09093013592915050565b600067ffffffffffffffff82111562003a975762003a9762003873565b50601f017fffffffffffffffffffffffffffffffffffffffffffffffffffffffffffffffe01660200190565b600082601f83011262003ad557600080fd5b813562003aec62003ae68262003a7a565b620038a2565b81815284602083860101111562003b0257600080fd5b816020850160208301376000918101602001919091529392505050565b6000806000806000806000806000806101408b8d03121562003b4057600080fd5b8a3567ffffffffffffffff8082111562003b5957600080fd5b62003b678e838f01620038f4565b9b5062003b7760208e0162003746565b9a5060408d0135995060608d0135985062003b9560808e0162003746565b975062003ba560a08e0162003734565b965062003bb560c08e0162003746565b955062003bc560e08e0162003734565b94506101008d013593506101208d013591508082111562003be557600080fd5b5062003bf48d828e0162003ac3565b9150509295989b9194979a5092959850565b60008060006060848603121562003c1c57600080fd5b62003c278462003746565b9250602084013562003c39816200370e565b9150604084013562003c4b816200370e565b809150509250925092565b60006020828403121562003c6957600080fd5b5035919050565b60008060006060848603121562003c8657600080fd5b62003c918462003746565b9250602084013562003ca3816200370e565b9150604084013567ffffffffffffffff81111562003cc057600080fd5b62003cce8682870162003ac3565b9150509250925092565b80151581146200373157600080fd5b60006020828403121562003cfa57600080fd5b8151620034018162003cd8565b60005b8381101562003d2457818101518382015260200162003d0a565b83811115620018ef5750506000910152565b600082601f83011262003d4857600080fd5b815162003d5962003ae68262003a7a565b81815284602083860101111562003d6f57600080fd5b6200245882602083016020870162003d07565b60006020828403121562003d9557600080fd5b815167ffffffffffffffff81111562003dad57600080fd5b620024588482850162003d36565b60006020828403121562003dce57600080fd5b81516200340181620039e0565b6000815180845262003df581602086016020860162003d07565b601f017fffffffffffffffffffffffffffffffffffffffffffffffffffffffffffffffe0169290920160200192915050565b60608152600062003e3c606083018662003ddb565b828103602084015262003e50818662003ddb565b91505060ff83166040830152949350505050565b600061010060ff8b16835263ffffffff808b16602085015273ffffffffffffffffffffffffffffffffffffffff808b166040860152818a1660608601528089166080860152508660a08501528160c085015262003ec48285018762003ddb565b925080851660e085015250509998505050505050505050565b7f4e487b7100000000000000000000000000000000000000000000000000000000600052603260045260246000fd5b7f4e487b7100000000000000000000000000000000000000000000000000000000600052601160045260246000fd5b60008262003f72577f4e487b7100000000000000000000000000000000000000000000000000000000600052601260045260246000fd5b500490565b60007fffffffffffffffffffffffffffffffffffffffffffffffffffffffffffffffff820362003fab5762003fab62003f0c565b5060010190565b60006020828403121562003fc557600080fd5b5051919050565b73ffffffffffffffffffffffffffffffffffffffff8416815263ffffffff8316602082015260606040820152600062004009606083018462003ddb565b95945050505050565b600082516200402681846020870162003d07565b9190910192915050565b6000806000606084860312156200404657600080fd5b835167ffffffffffffffff808211156200405f57600080fd5b6200406d8783880162003d36565b945060208601519150808211156200408457600080fd5b50620040938682870162003d36565b925050604084015162003c4b81620039e0565b60a081526000620040bb60a083018862003ddb565b8281036020840152620040cf818862003ddb565b60ff969096166040840152505073ffffffffffffffffffffffffffffffffffffffff92909216606083015260809091015292915050565b600080858511156200411757600080fd5b838611156200412557600080fd5b5050820193919092039150565b600080600080600080600060e0888a0312156200414e57600080fd5b87356200415b816200370e565b965060208801356200416d816200370e565b95506040880135945060608801359350608088013562003a5d81620039e0565b600080600080600080600080610100898b031215620041ab57600080fd5b8835620041b8816200370e565b97506020890135620041ca816200370e565b965060408901359550606089013594506080890135620041ea8162003cd8565b935060a0890135620041fc81620039e0565b979a969950949793969295929450505060c08201359160e0013590565b600181815b808511156200427857817fffffffffffffffffffffffffffffffffffffffffffffffffffffffffffffffff048211156200425c576200425c62003f0c565b808516156200426a57918102915b93841c93908002906200421e565b509250929050565b600082620042915750600162000d2f565b81620042a05750600062000d2f565b8160018114620042b95760028114620042c457620042e4565b600191505062000d2f565b60ff841115620042d857620042d862003f0c565b50506001821b62000d2f565b5060208310610133831016604e8410600b841016171562004309575081810a62000d2f565b62004315838362004219565b807fffffffffffffffffffffffffffffffffffffffffffffffffffffffffffffffff048211156200434a576200434a62003f0c565b029392505050565b600062003401838362004280565b60008282101562004375576200437562003f0c565b500390565b6000821982111562004390576200439062003f0c565b500190565b7f4e487b7100000000000000000000000000000000000000000000000000000000600052600160045260246000fd5b60208152600062003401602083018462003ddb56fe60806040523480156200001157600080fd5b50600054610100900460ff1615808015620000335750600054600160ff909116105b8062000063575062000050306200013d60201b6200080a1760201c565b15801562000063575060005460ff166001145b620000cb5760405162461bcd60e51b815260206004820152602e60248201527f496e697469616c697a61626c653a20636f6e747261637420697320616c72656160448201526d191e481a5b9a5d1a585b1a5e995960921b606482015260840160405180910390fd5b6000805460ff191660011790558015620000ef576000805461ff0019166101001790555b801562000136576000805461ff0019169055604051600181527f7f26b83ff96e1f2b6a682f133852f6798a09c465da95921460cefb38474024989060200160405180910390a15b506200014c565b6001600160a01b03163b151590565b6116cd806200015c6000396000f3fe608060405234801561001057600080fd5b50600436106100f55760003560e01c80636c94522111610097578063a3c573eb11610066578063a3c573eb1461021c578063a457c2d714610261578063a9059cbb14610274578063dd62ed3e1461028757600080fd5b80636c945221146101b657806370a08231146101cb57806395d89b41146102015780639dc29fac1461020957600080fd5b806323b872dd116100d357806323b872dd1461014d578063313ce56714610160578063395093511461019057806340c10f19146101a357600080fd5b806306fdde03146100fa578063095ea7b31461011857806318160ddd1461013b575b600080fd5b6101026102cd565b60405161010f91906111c0565b60405180910390f35b61012b61012636600461125c565b61035f565b604051901515815260200161010f565b6035545b60405190815260200161010f565b61012b61015b366004611286565b610377565b60655474010000000000000000000000000000000000000000900460ff1660405160ff909116815260200161010f565b61012b61019e36600461125c565b61039b565b61012b6101b136600461125c565b6103e7565b6101c96101c436600461139c565b610483565b005b61013f6101d9366004611431565b73ffffffffffffffffffffffffffffffffffffffff1660009081526033602052604090205490565b61010261068e565b61012b61021736600461125c565b61069d565b60655461023c9073ffffffffffffffffffffffffffffffffffffffff1681565b60405173ffffffffffffffffffffffffffffffffffffffff909116815260200161010f565b61012b61026f36600461125c565b61072b565b61012b61028236600461125c565b6107fc565b61013f610295366004611453565b73ffffffffffffffffffffffffffffffffffffffff918216600090815260346020908152604080832093909416825291909152205490565b6060603680546102dc90611486565b80601f016020809104026020016040519081016040528092919081815260200182805461030890611486565b80156103555780601f1061032a57610100808354040283529160200191610355565b820191906000526020600020905b81548152906001019060200180831161033857829003601f168201915b5050505050905090565b60003361036d818585610826565b5060019392505050565b6000336103858582856109da565b610390858585610ab1565b506001949350505050565b33600081815260346020908152604080832073ffffffffffffffffffffffffffffffffffffffff8716845290915281205490919061036d90829086906103e2908790611508565b610826565b60655460009073ffffffffffffffffffffffffffffffffffffffff163314610470576040517f08c379a000000000000000000000000000000000000000000000000000000000815260206004820152601760248201527f546f6b656e577261707065643a4e4f545f42524944474500000000000000000060448201526064015b60405180910390fd5b61047a8383610d64565b50600192915050565b600054610100900460ff16158080156104a35750600054600160ff909116105b806104bd5750303b1580156104bd575060005460ff166001145b610549576040517f08c379a000000000000000000000000000000000000000000000000000000000815260206004820152602e60248201527f496e697469616c697a61626c653a20636f6e747261637420697320616c72656160448201527f647920696e697469616c697a65640000000000000000000000000000000000006064820152608401610467565b600080547fffffffffffffffffffffffffffffffffffffffffffffffffffffffffffffff0016600117905580156105a757600080547fffffffffffffffffffffffffffffffffffffffffffffffffffffffffffff00ff166101001790555b6105b18686610e85565b606580547fffffffffffffffffffffff00000000000000000000000000000000000000000016337fffffffffffffffffffffff00ffffffffffffffffffffffffffffffffffffffff16177401000000000000000000000000000000000000000060ff8716021790556106238383610d64565b801561068657600080547fffffffffffffffffffffffffffffffffffffffffffffffffffffffffffff00ff169055604051600181527f7f26b83ff96e1f2b6a682f133852f6798a09c465da95921460cefb38474024989060200160405180910390a15b505050505050565b6060603780546102dc90611486565b60655460009073ffffffffffffffffffffffffffffffffffffffff163314610721576040517f08c379a000000000000000000000000000000000000000000000000000000000815260206004820152601760248201527f546f6b656e577261707065643a4e4f545f4252494447450000000000000000006044820152606401610467565b61047a8383610f26565b33600081815260346020908152604080832073ffffffffffffffffffffffffffffffffffffffff87168452909152812054909190838110156107ef576040517f08c379a000000000000000000000000000000000000000000000000000000000815260206004820152602560248201527f45524332303a2064656372656173656420616c6c6f77616e63652062656c6f7760448201527f207a65726f0000000000000000000000000000000000000000000000000000006064820152608401610467565b6103908286868403610826565b60003361036d818585610ab1565b73ffffffffffffffffffffffffffffffffffffffff163b151590565b73ffffffffffffffffffffffffffffffffffffffff83166108c8576040517f08c379a0000000000000000000000000000000000000000000000000000000008152602060048201526024808201527f45524332303a20617070726f76652066726f6d20746865207a65726f2061646460448201527f72657373000000000000000000000000000000000000000000000000000000006064820152608401610467565b73ffffffffffffffffffffffffffffffffffffffff821661096b576040517f08c379a000000000000000000000000000000000000000000000000000000000815260206004820152602260248201527f45524332303a20617070726f766520746f20746865207a65726f20616464726560448201527f73730000000000000000000000000000000000000000000000000000000000006064820152608401610467565b73ffffffffffffffffffffffffffffffffffffffff83811660008181526034602090815260408083209487168084529482529182902085905590518481527f8c5be1e5ebec7d5bd14f71427d1e84f3dd0314c0f7b2291e5b200ac8c7c3b92591015b60405180910390a3505050565b73ffffffffffffffffffffffffffffffffffffffff8381166000908152603460209081526040808320938616835292905220547fffffffffffffffffffffffffffffffffffffffffffffffffffffffffffffffff8114610aab5781811015610a9e576040517f08c379a000000000000000000000000000000000000000000000000000000000815260206004820152601d60248201527f45524332303a20696e73756666696369656e7420616c6c6f77616e63650000006044820152606401610467565b610aab8484848403610826565b50505050565b73ffffffffffffffffffffffffffffffffffffffff8316610b54576040517f08c379a000000000000000000000000000000000000000000000000000000000815260206004820152602560248201527f45524332303a207472616e736665722066726f6d20746865207a65726f20616460448201527f64726573730000000000000000000000000000000000000000000000000000006064820152608401610467565b73ffffffffffffffffffffffffffffffffffffffff8216610bf7576040517f08c379a000000000000000000000000000000000000000000000000000000000815260206004820152602360248201527f45524332303a207472616e7366657220746f20746865207a65726f206164647260448201527f65737300000000000000000000000000000000000000000000000000000000006064820152608401610467565b73ffffffffffffffffffffffffffffffffffffffff831660009081526033602052604090205481811015610cad576040517f08c379a000000000000000000000000000000000000000000000000000000000815260206004820152602660248201527f45524332303a207472616e7366657220616d6f756e742065786365656473206260448201527f616c616e636500000000000000000000000000000000000000000000000000006064820152608401610467565b73ffffffffffffffffffffffffffffffffffffffff808516600090815260336020526040808220858503905591851681529081208054849290610cf1908490611508565b925050819055508273ffffffffffffffffffffffffffffffffffffffff168473ffffffffffffffffffffffffffffffffffffffff167fddf252ad1be2c89b69c2b068fc378daa952ba7f163c4a11628f55a4df523b3ef84604051610d5791815260200190565b60405180910390a3610aab565b73ffffffffffffffffffffffffffffffffffffffff8216610de1576040517f08c379a000000000000000000000000000000000000000000000000000000000815260206004820152601f60248201527f45524332303a206d696e7420746f20746865207a65726f2061646472657373006044820152606401610467565b8060356000828254610df39190611508565b909155505073ffffffffffffffffffffffffffffffffffffffff821660009081526033602052604081208054839290610e2d908490611508565b909155505060405181815273ffffffffffffffffffffffffffffffffffffffff8316906000907fddf252ad1be2c89b69c2b068fc378daa952ba7f163c4a11628f55a4df523b3ef9060200160405180910390a35b5050565b600054610100900460ff16610f1c576040517f08c379a000000000000000000000000000000000000000000000000000000000815260206004820152602b60248201527f496e697469616c697a61626c653a20636f6e7472616374206973206e6f74206960448201527f6e697469616c697a696e670000000000000000000000000000000000000000006064820152608401610467565b610e818282611110565b73ffffffffffffffffffffffffffffffffffffffff8216610fc9576040517f08c379a000000000000000000000000000000000000000000000000000000000815260206004820152602160248201527f45524332303a206275726e2066726f6d20746865207a65726f2061646472657360448201527f73000000000000000000000000000000000000000000000000000000000000006064820152608401610467565b73ffffffffffffffffffffffffffffffffffffffff82166000908152603360205260409020548181101561107f576040517f08c379a000000000000000000000000000000000000000000000000000000000815260206004820152602260248201527f45524332303a206275726e20616d6f756e7420657863656564732062616c616e60448201527f63650000000000000000000000000000000000000000000000000000000000006064820152608401610467565b73ffffffffffffffffffffffffffffffffffffffff831660009081526033602052604081208383039055603580548492906110bb908490611520565b909155505060405182815260009073ffffffffffffffffffffffffffffffffffffffff8516907fddf252ad1be2c89b69c2b068fc378daa952ba7f163c4a11628f55a4df523b3ef906020016109cd565b505050565b600054610100900460ff166111a7576040517f08c379a000000000000000000000000000000000000000000000000000000000815260206004820152602b60248201527f496e697469616c697a61626c653a20636f6e7472616374206973206e6f74206960448201527f6e697469616c697a696e670000000000000000000000000000000000000000006064820152608401610467565b60366111b3838261157d565b50603761110b828261157d565b600060208083528351808285015260005b818110156111ed578581018301518582016040015282016111d1565b818111156111ff576000604083870101525b50601f017fffffffffffffffffffffffffffffffffffffffffffffffffffffffffffffffe016929092016040019392505050565b803573ffffffffffffffffffffffffffffffffffffffff8116811461125757600080fd5b919050565b6000806040838503121561126f57600080fd5b61127883611233565b946020939093013593505050565b60008060006060848603121561129b57600080fd5b6112a484611233565b92506112b260208501611233565b9150604084013590509250925092565b7f4e487b7100000000000000000000000000000000000000000000000000000000600052604160045260246000fd5b600082601f83011261130257600080fd5b813567ffffffffffffffff8082111561131d5761131d6112c2565b604051601f83017fffffffffffffffffffffffffffffffffffffffffffffffffffffffffffffffe0908116603f01168101908282118183101715611363576113636112c2565b8160405283815286602085880101111561137c57600080fd5b836020870160208301376000602085830101528094505050505092915050565b600080600080600060a086880312156113b457600080fd5b853567ffffffffffffffff808211156113cc57600080fd5b6113d889838a016112f1565b965060208801359150808211156113ee57600080fd5b506113fb888289016112f1565b945050604086013560ff8116811461141257600080fd5b925061142060608701611233565b949793965091946080013592915050565b60006020828403121561144357600080fd5b61144c82611233565b9392505050565b6000806040838503121561146657600080fd5b61146f83611233565b915061147d60208401611233565b90509250929050565b600181811c9082168061149a57607f821691505b6020821081036114d3577f4e487b7100000000000000000000000000000000000000000000000000000000600052602260045260246000fd5b50919050565b7f4e487b7100000000000000000000000000000000000000000000000000000000600052601160045260246000fd5b6000821982111561151b5761151b6114d9565b500190565b600082821015611532576115326114d9565b500390565b601f82111561110b57600081815260208120601f850160051c8101602086101561155e5750805b601f850160051c820191505b818110156106865782815560010161156a565b815167ffffffffffffffff811115611597576115976112c2565b6115ab816115a58454611486565b84611537565b602080601f8311600181146115fe57600084156115c85750858301515b7fffffffffffffffffffffffffffffffffffffffffffffffffffffffffffffffff600386901b1c1916600185901b178555610686565b6000858152602081207fffffffffffffffffffffffffffffffffffffffffffffffffffffffffffffffe08616915b8281101561164b5788860151825594840194600190910190840161162c565b508582101561168757878501517fffffffffffffffffffffffffffffffffffffffffffffffffffffffffffffffff600388901b60f8161c191681555b5050505050600190811b0190555056fea264697066735822122015dd8047eba7f7221e0d7792549e5a01ba1b6dfaad0c6a70dc82ef386e0c5cc464736f6c634300080f0033a264697066735822122057eea8bc30140fac426a3ce5af5ced0f516e15d62de7a29d50ba5e2d711e9f2364736f6c634300080f0033",
  "linkReferences": {},
  "deployedLinkReferences": {}
}