{
  "_format": "hh-sol-artifact-1",
  "contractName": "BridgeMock",
  "sourceName": "contracts/mocks/BridgeMock.sol",
  "abi": [
    {
      "inputs": [
        {
          "internalType": "uint32",
          "name": "_networkID",
          "type": "uint32"
        },
        {
          "internalType": "contract IGlobalExitRootManager",
          "name": "_globalExitRootManager",
          "type": "address"
        }
      ],
      "stateMutability": "nonpayable",
      "type": "constructor"
    },
    {
      "anonymous": false,
      "inputs": [
        {
          "indexed": false,
          "internalType": "address",
          "name": "tokenAddres",
          "type": "address"
        },
        {
          "indexed": false,
          "internalType": "uint256",
          "name": "amount",
          "type": "uint256"
        },
        {
          "indexed": false,
          "internalType": "uint32",
          "name": "originNetwork",
          "type": "uint32"
        },
        {
          "indexed": false,
          "internalType": "uint32",
          "name": "destinationNetwork",
          "type": "uint32"
        },
        {
          "indexed": false,
          "internalType": "address",
          "name": "destinationAddress",
          "type": "address"
        },
        {
          "indexed": false,
          "internalType": "uint32",
          "name": "depositCount",
          "type": "uint32"
        }
      ],
      "name": "BridgeEvent",
      "type": "event"
    },
    {
      "anonymous": false,
      "inputs": [
        {
          "indexed": false,
          "internalType": "uint32",
          "name": "index",
          "type": "uint32"
        },
        {
          "indexed": false,
          "internalType": "uint32",
          "name": "originalNetwork",
          "type": "uint32"
        },
        {
          "indexed": false,
          "internalType": "address",
          "name": "token",
          "type": "address"
        },
        {
          "indexed": false,
          "internalType": "uint256",
          "name": "amount",
          "type": "uint256"
        },
        {
          "indexed": false,
          "internalType": "address",
          "name": "destinationAddress",
          "type": "address"
        }
      ],
      "name": "ClaimEvent",
      "type": "event"
    },
    {
      "anonymous": false,
      "inputs": [
        {
          "indexed": false,
          "internalType": "uint32",
          "name": "originalNetwork",
          "type": "uint32"
        },
        {
          "indexed": false,
          "internalType": "address",
          "name": "originalTokenAddress",
          "type": "address"
        },
        {
          "indexed": false,
          "internalType": "address",
          "name": "wrappedTokenAddress",
          "type": "address"
        }
      ],
      "name": "NewWrappedToken",
      "type": "event"
    },
    {
      "anonymous": false,
      "inputs": [
        {
          "indexed": true,
          "internalType": "address",
          "name": "previousOwner",
          "type": "address"
        },
        {
          "indexed": true,
          "internalType": "address",
          "name": "newOwner",
          "type": "address"
        }
      ],
      "name": "OwnershipTransferred",
      "type": "event"
    },
    {
      "inputs": [],
      "name": "MAINNET_NETWORK_ID",
      "outputs": [
        {
          "internalType": "uint32",
          "name": "",
          "type": "uint32"
        }
      ],
      "stateMutability": "view",
      "type": "function"
    },
    {
      "inputs": [
        {
          "internalType": "address",
          "name": "",
          "type": "address"
        }
      ],
      "name": "addressToTokenInfo",
      "outputs": [
        {
          "internalType": "uint32",
          "name": "originalNetwork",
          "type": "uint32"
        },
        {
          "internalType": "address",
          "name": "originalTokenAddress",
          "type": "address"
        }
      ],
      "stateMutability": "view",
      "type": "function"
    },
    {
      "inputs": [
        {
          "internalType": "address",
          "name": "token",
          "type": "address"
        },
        {
          "internalType": "uint256",
          "name": "amount",
          "type": "uint256"
        },
        {
          "internalType": "uint32",
          "name": "destinationNetwork",
          "type": "uint32"
        },
        {
          "internalType": "address",
          "name": "destinationAddress",
          "type": "address"
        }
      ],
      "name": "bridge",
      "outputs": [],
      "stateMutability": "payable",
      "type": "function"
    },
    {
      "inputs": [
        {
          "internalType": "address",
          "name": "originalTokenAddress",
          "type": "address"
        },
        {
          "internalType": "uint256",
          "name": "amount",
          "type": "uint256"
        },
        {
          "internalType": "uint32",
          "name": "originalNetwork",
          "type": "uint32"
        },
        {
          "internalType": "uint32",
          "name": "destinationNetwork",
          "type": "uint32"
        },
        {
          "internalType": "address",
          "name": "destinationAddress",
          "type": "address"
        },
        {
          "internalType": "bytes32[]",
          "name": "smtProof",
          "type": "bytes32[]"
        },
        {
          "internalType": "uint32",
          "name": "index",
          "type": "uint32"
        },
        {
          "internalType": "bytes32",
          "name": "mainnetExitRoot",
          "type": "bytes32"
        },
        {
          "internalType": "bytes32",
          "name": "rollupExitRoot",
          "type": "bytes32"
        }
      ],
      "name": "claim",
      "outputs": [],
      "stateMutability": "nonpayable",
      "type": "function"
    },
    {
      "inputs": [
        {
          "internalType": "uint256",
          "name": "",
          "type": "uint256"
        }
      ],
      "name": "claimNullifier",
      "outputs": [
        {
          "internalType": "bool",
          "name": "",
          "type": "bool"
        }
      ],
      "stateMutability": "view",
      "type": "function"
    },
    {
      "inputs": [],
      "name": "depositCount",
      "outputs": [
        {
          "internalType": "uint256",
          "name": "",
          "type": "uint256"
        }
      ],
      "stateMutability": "view",
      "type": "function"
    },
    {
      "inputs": [],
      "name": "getDepositRoot",
      "outputs": [
        {
          "internalType": "bytes32",
          "name": "",
          "type": "bytes32"
        }
      ],
      "stateMutability": "view",
      "type": "function"
    },
    {
      "inputs": [
        {
          "internalType": "uint32",
          "name": "originalNetwork",
          "type": "uint32"
        },
        {
          "internalType": "address",
          "name": "originalTokenAddress",
          "type": "address"
        }
      ],
      "name": "getTokenWrappedAddress",
      "outputs": [
        {
          "internalType": "address",
          "name": "",
          "type": "address"
        }
      ],
      "stateMutability": "view",
      "type": "function"
    },
    {
      "inputs": [],
      "name": "globalExitRootManager",
      "outputs": [
        {
          "internalType": "contract IGlobalExitRootManager",
          "name": "",
          "type": "address"
        }
      ],
      "stateMutability": "view",
      "type": "function"
    },
    {
      "inputs": [],
      "name": "networkID",
      "outputs": [
        {
          "internalType": "uint32",
          "name": "",
          "type": "uint32"
        }
      ],
      "stateMutability": "view",
      "type": "function"
    },
    {
      "inputs": [],
      "name": "owner",
      "outputs": [
        {
          "internalType": "address",
          "name": "",
          "type": "address"
        }
      ],
      "stateMutability": "view",
      "type": "function"
    },
    {
      "inputs": [
        {
          "internalType": "uint32",
          "name": "originalNetwork",
          "type": "uint32"
        },
        {
          "internalType": "address",
          "name": "originalTokenAddress",
          "type": "address"
        }
      ],
      "name": "precalculatedWrapperAddress",
      "outputs": [
        {
          "internalType": "address",
          "name": "",
          "type": "address"
        }
      ],
      "stateMutability": "view",
      "type": "function"
    },
    {
      "inputs": [],
      "name": "renounceOwnership",
      "outputs": [],
      "stateMutability": "nonpayable",
      "type": "function"
    },
    {
      "inputs": [
        {
          "internalType": "uint32",
          "name": "_networkID",
          "type": "uint32"
        }
      ],
      "name": "setNetworkID",
      "outputs": [],
      "stateMutability": "nonpayable",
      "type": "function"
    },
    {
      "inputs": [],
      "name": "tokenImplementation",
      "outputs": [
        {
          "internalType": "address",
          "name": "",
          "type": "address"
        }
      ],
      "stateMutability": "view",
      "type": "function"
    },
    {
      "inputs": [
        {
          "internalType": "bytes32",
          "name": "",
          "type": "bytes32"
        }
      ],
      "name": "tokenInfoToAddress",
      "outputs": [
        {
          "internalType": "address",
          "name": "",
          "type": "address"
        }
      ],
      "stateMutability": "view",
      "type": "function"
    },
    {
      "inputs": [
        {
          "internalType": "address",
          "name": "newOwner",
          "type": "address"
        }
      ],
      "name": "transferOwnership",
      "outputs": [],
      "stateMutability": "nonpayable",
      "type": "function"
    },
    {
      "inputs": [
        {
          "internalType": "address",
          "name": "token",
          "type": "address"
        },
        {
          "internalType": "uint256",
          "name": "amount",
          "type": "uint256"
        },
        {
          "internalType": "uint32",
          "name": "originalNetwork",
          "type": "uint32"
        },
        {
          "internalType": "uint32",
          "name": "destinationNetwork",
          "type": "uint32"
        },
        {
          "internalType": "address",
          "name": "destinationAddress",
          "type": "address"
        },
        {
          "internalType": "bytes32[]",
          "name": "smtProof",
          "type": "bytes32[]"
        },
        {
          "internalType": "uint64",
          "name": "index",
          "type": "uint64"
        },
        {
          "internalType": "bytes32",
          "name": "root",
          "type": "bytes32"
        }
      ],
      "name": "verifyMerkleProof",
      "outputs": [
        {
          "internalType": "bool",
          "name": "",
          "type": "bool"
        }
      ],
      "stateMutability": "pure",
      "type": "function"
    }
  ],
  "bytecode": "0x60a06040523480156200001157600080fd5b5060405162004200380380620042008339810160408190526200003491620001bf565b8181620000413362000161565b60005b620000526001602062000227565b811015620000ed576021816020811062000070576200007062000241565b01546021826020811062000088576200008862000241565b0154604080516020810193909352820152606001604051602081830303815290604052805190602001206021826001620000c3919062000257565b60208110620000d657620000d662000241565b015580620000e48162000272565b91505062000044565b506042805463ffffffff191663ffffffff8416179055604680546001600160a01b0319166001600160a01b0383161790556040516200012c90620001b1565b604051809103906000f08015801562000149573d6000803e3d6000fd5b506001600160a01b0316608052506200028e92505050565b600080546001600160a01b038381166001600160a01b0319831681178455604051919092169283917f8be0079c531659141344cd1fd0a4f28419497f9722a3daafe3b4186f6b6457e09190a35050565b61194880620028b883390190565b60008060408385031215620001d357600080fd5b825163ffffffff81168114620001e857600080fd5b60208401519092506001600160a01b03811681146200020657600080fd5b809150509250929050565b634e487b7160e01b600052601160045260246000fd5b6000828210156200023c576200023c62000211565b500390565b634e487b7160e01b600052603260045260246000fd5b600082198211156200026d576200026d62000211565b500190565b60006001820162000287576200028762000211565b5060010190565b608051612600620002b86000396000818161022601528181610fdc015261166f01526126006000f3fe6080604052600436106101295760003560e01c8063715018a6116100a5578063bab161bf11610074578063e737588111610059578063e7375881146103f0578063ed6be5c914610420578063f2fde38b1461043557600080fd5b8063bab161bf14610391578063d02103ca146103c357600080fd5b8063715018a6146103015780637d8f0469146103165780638da5cb5b14610346578063b7e6a7d41461037157600080fd5b80632dfdf0b5116100fc5780633ae05047116100e15780633ae0504714610248578063452a94b01461025d5780636179aadf146102e157600080fd5b80632dfdf0b5146101f05780632f3a3d5d1461021457600080fd5b80630db4afff1461012e5780630e21fbd71461019b57806322e95f2c146101b05780632c3f58cd146101d0575b600080fd5b34801561013a57600080fd5b50610171610149366004611f54565b60446020526000908152604090205473ffffffffffffffffffffffffffffffffffffffff1681565b60405173ffffffffffffffffffffffffffffffffffffffff90911681526020015b60405180910390f35b6101ae6101a9366004611faa565b610455565b005b3480156101bc57600080fd5b506101716101cb366004611ff7565b6107db565b3480156101dc57600080fd5b506101ae6101eb36600461202a565b61087e565b3480156101fc57600080fd5b5061020660415481565b604051908152602001610192565b34801561022057600080fd5b506101717f000000000000000000000000000000000000000000000000000000000000000081565b34801561025457600080fd5b50610206610936565b34801561026957600080fd5b506102b0610278366004612045565b60456020526000908152604090205463ffffffff811690640100000000900473ffffffffffffffffffffffffffffffffffffffff1682565b6040805163ffffffff909316835273ffffffffffffffffffffffffffffffffffffffff909116602083015201610192565b3480156102ed57600080fd5b506101ae6102fc36600461213d565b610a02565b34801561030d57600080fd5b506101ae6113b7565b34801561032257600080fd5b506103366103313660046121eb565b611444565b6040519015158152602001610192565b34801561035257600080fd5b5060005473ffffffffffffffffffffffffffffffffffffffff16610171565b34801561037d57600080fd5b5061017161038c366004611ff7565b6115ef565b34801561039d57600080fd5b506042546103ae9063ffffffff1681565b60405163ffffffff9091168152602001610192565b3480156103cf57600080fd5b506046546101719073ffffffffffffffffffffffffffffffffffffffff1681565b3480156103fc57600080fd5b5061033661040b366004611f54565b60436020526000908152604090205460ff1681565b34801561042c57600080fd5b506103ae600081565b34801561044157600080fd5b506101ae610450366004612045565b61169c565b60425463ffffffff908116908316036104f5576040517f08c379a000000000000000000000000000000000000000000000000000000000815260206004820152602a60248201527f4272696467653a3a6272696467653a2044455354494e4154494f4e5f43414e5460448201527f5f42455f495453454c460000000000000000000000000000000000000000000060648201526084015b60405180910390fd5b60008073ffffffffffffffffffffffffffffffffffffffff86166105aa578434146105a2576040517f08c379a000000000000000000000000000000000000000000000000000000000815260206004820152602f60248201527f4272696467653a3a6272696467653a20414d4f554e545f444f45535f4e4f545f60448201527f4d415443485f4d53475f56414c5545000000000000000000000000000000000060648201526084016104ec565b5060006106d9565b73ffffffffffffffffffffffffffffffffffffffff80871660009081526045602090815260409182902082518084019093525463ffffffff81168352640100000000900490921691810182905290156106a6576040517f9dc29fac0000000000000000000000000000000000000000000000000000000081523360048201526024810187905273ffffffffffffffffffffffffffffffffffffffff881690639dc29fac906044016020604051808303816000875af1158015610670573d6000803e3d6000fd5b505050506040513d601f19601f82011682018060405250810190610694919061229b565b506020810151815190935091506106d7565b6106c873ffffffffffffffffffffffffffffffffffffffff88163330896117cc565b60425487935063ffffffff1691505b505b6041546040805173ffffffffffffffffffffffffffffffffffffffff85811682526020820189905263ffffffff858116838501528881166060840152908716608083015290921660a0830152517fb9cc79b4411bd33ec9620f8fe3d6236a5d18050ca48e991864dc0556a83d1a2b9181900360c00190a161075d82868387876118ae565b60465473ffffffffffffffffffffffffffffffffffffffff166333d6247d610783610936565b6040518263ffffffff1660e01b81526004016107a191815260200190565b600060405180830381600087803b1580156107bb57600080fd5b505af11580156107cf573d6000803e3d6000fd5b50505050505050505050565b6040805160e084901b7fffffffff0000000000000000000000000000000000000000000000000000000016602080830191909152606084901b7fffffffffffffffffffffffffffffffffffffffff000000000000000000000000166024830152825160188184030181526038909201835281519181019190912060009081526044909152205473ffffffffffffffffffffffffffffffffffffffff165b92915050565b60005473ffffffffffffffffffffffffffffffffffffffff1633146108ff576040517f08c379a000000000000000000000000000000000000000000000000000000000815260206004820181905260248201527f4f776e61626c653a2063616c6c6572206973206e6f7420746865206f776e657260448201526064016104ec565b604280547fffffffffffffffffffffffffffffffffffffffffffffffffffffffff000000001663ffffffff92909216919091179055565b6041546000908190815b60208110156109fa578160011660010361099a5760018160208110610967576109676122bd565b015460408051602081019290925281018490526060016040516020818303038152906040528051906020012092506109db565b82602182602081106109ae576109ae6122bd565b01546040805160208101939093528201526060016040516020818303038152906040528051906020012092505b6109e660028361231b565b9150806109f281612356565b915050610940565b509092915050565b63ffffffff831660009081526043602052604090205460ff1615610a82576040517f08c379a000000000000000000000000000000000000000000000000000000000815260206004820152601e60248201527f4272696467653a3a636c61696d3a20414c52454144595f434c41494d4544000060448201526064016104ec565b60425463ffffffff878116911614610b1c576040517f08c379a000000000000000000000000000000000000000000000000000000000815260206004820152603160248201527f4272696467653a3a636c61696d3a2044455354494e4154494f4e5f4e4554574f60448201527f524b5f444f45535f4e4f545f4d4154434800000000000000000000000000000060648201526084016104ec565b604654604080516020808201869052818301859052825180830384018152606083019384905280519101207f257b363200000000000000000000000000000000000000000000000000000000909252606481019190915273ffffffffffffffffffffffffffffffffffffffff9091169063257b3632906084016020604051808303816000875af1158015610bb4573d6000803e3d6000fd5b505050506040513d601f19601f82011682018060405250810190610bd8919061238e565b600003610c67576040517f08c379a000000000000000000000000000000000000000000000000000000000815260206004820152602e60248201527f4272696467653a3a636c61696d3a20474c4f42414c5f455849545f524f4f545f60448201527f444f45535f4e4f545f4d4154434800000000000000000000000000000000000060648201526084016104ec565b60425463ffffffff16610cf557610c8a8989898989898963ffffffff1688611444565b610cf0576040517f08c379a000000000000000000000000000000000000000000000000000000000815260206004820152601a60248201527f4272696467653a3a636c61696d3a20534d545f494e56414c494400000000000060448201526064016104ec565b610d71565b610d0b8989898989898963ffffffff1689611444565b610d71576040517f08c379a000000000000000000000000000000000000000000000000000000000815260206004820152601a60248201527f4272696467653a3a636c61696d3a20534d545f494e56414c494400000000000060448201526064016104ec565b63ffffffff8316600090815260436020526040902080547fffffffffffffffffffffffffffffffffffffffffffffffffffffffffffffff0016600117905573ffffffffffffffffffffffffffffffffffffffff8916610eda576040805160008082526020820190925273ffffffffffffffffffffffffffffffffffffffff8716908a90604051610e0191906123d3565b60006040518083038185875af1925050503d8060008114610e3e576040519150601f19603f3d011682016040523d82523d6000602084013e610e43565b606091505b5050905080610ed4576040517f08c379a000000000000000000000000000000000000000000000000000000000815260206004820152602260248201527f4272696467653a3a636c61696d3a204554485f5452414e534645525f4641494c60448201527f454400000000000000000000000000000000000000000000000000000000000060648201526084016104ec565b50611341565b60425463ffffffff90811690881603610f1357610f0e73ffffffffffffffffffffffffffffffffffffffff8a16868a611ab5565b611341565b6040517fffffffff0000000000000000000000000000000000000000000000000000000060e089901b1660208201527fffffffffffffffffffffffffffffffffffffffff00000000000000000000000060608b901b166024820152600090603801604080517fffffffffffffffffffffffffffffffffffffffffffffffffffffffffffffffe081840301815291815281516020928301206000818152604490935291205490915073ffffffffffffffffffffffffffffffffffffffff16806112a35760006110017f000000000000000000000000000000000000000000000000000000000000000084611b10565b6040517f6c94522100000000000000000000000000000000000000000000000000000000815260a060048083019190915260a48201527f6e616d650000000000000000000000000000000000000000000000000000000060c482015260e06024820152600660e48201527f73796d626f6c00000000000000000000000000000000000000000000000000006101048201526012604482015273ffffffffffffffffffffffffffffffffffffffff8a81166064830152608482018e905291925090821690636c9452219061012401600060405180830381600087803b1580156110e857600080fd5b505af11580156110fc573d6000803e3d6000fd5b50505050806044600085815260200190815260200160002060006101000a81548173ffffffffffffffffffffffffffffffffffffffff021916908373ffffffffffffffffffffffffffffffffffffffff16021790555060405180604001604052808b63ffffffff1681526020018d73ffffffffffffffffffffffffffffffffffffffff16815250604560008373ffffffffffffffffffffffffffffffffffffffff1673ffffffffffffffffffffffffffffffffffffffff16815260200190815260200160002060008201518160000160006101000a81548163ffffffff021916908363ffffffff16021790555060208201518160000160046101000a81548173ffffffffffffffffffffffffffffffffffffffff021916908373ffffffffffffffffffffffffffffffffffffffff1602179055509050507fccd7715648d1f2bb13e158f96b5b6c3aeda555d4cb87112e274a6f28bc571d598a8d836040516112959392919063ffffffff93909316835273ffffffffffffffffffffffffffffffffffffffff918216602084015216604082015260600190565b60405180910390a15061133e565b6040517f40c10f1900000000000000000000000000000000000000000000000000000000815273ffffffffffffffffffffffffffffffffffffffff8881166004830152602482018c90528216906340c10f19906044016020604051808303816000875af1158015611318573d6000803e3d6000fd5b505050506040513d601f19601f8201168201806040525081019061133c919061229b565b505b50505b6040805163ffffffff85811682528916602082015273ffffffffffffffffffffffffffffffffffffffff8b811682840152606082018b90528716608082015290517f6aec77db51699eb95c99cdf3d230d727c40d03cc47ade310b68e3c4185b90e729181900360a00190a1505050505050505050565b60005473ffffffffffffffffffffffffffffffffffffffff163314611438576040517f08c379a000000000000000000000000000000000000000000000000000000000815260206004820181905260248201527f4f776e61626c653a2063616c6c6572206973206e6f7420746865206f776e657260448201526064016104ec565b6114426000611bee565b565b6040517fffffffff0000000000000000000000000000000000000000000000000000000060e088811b821660208401527fffffffffffffffffffffffffffffffffffffffff00000000000000000000000060608c811b82166024860152603885018c90529189901b909216605884015286901b16605c8201526000908190607001604080517fffffffffffffffffffffffffffffffffffffffffffffffffffffffffffffffe08184030181529190528051602090910120905067ffffffffffffffff841660005b60208110156115de578160011660010361157157868181518110611531576115316122bd565b602002602001015183604051602001611554929190918252602082015260400190565b6040516020818303038152906040528051906020012092506115bf565b82878281518110611584576115846122bd565b60200260200101516040516020016115a6929190918252602082015260400190565b6040516020818303038152906040528051906020012092505b6115ca60028361231b565b9150806115d681612356565b91505061150b565b505090911498975050505050505050565b6040517fffffffff0000000000000000000000000000000000000000000000000000000060e084901b1660208201527fffffffffffffffffffffffffffffffffffffffff000000000000000000000000606083901b16602482015260009081906038016040516020818303038152906040528051906020012090506116947f000000000000000000000000000000000000000000000000000000000000000082611c63565b949350505050565b60005473ffffffffffffffffffffffffffffffffffffffff16331461171d576040517f08c379a000000000000000000000000000000000000000000000000000000000815260206004820181905260248201527f4f776e61626c653a2063616c6c6572206973206e6f7420746865206f776e657260448201526064016104ec565b73ffffffffffffffffffffffffffffffffffffffff81166117c0576040517f08c379a000000000000000000000000000000000000000000000000000000000815260206004820152602660248201527f4f776e61626c653a206e6577206f776e657220697320746865207a65726f206160448201527f646472657373000000000000000000000000000000000000000000000000000060648201526084016104ec565b6117c981611bee565b50565b60405173ffffffffffffffffffffffffffffffffffffffff808516602483015283166044820152606481018290526118a89085907f23b872dd00000000000000000000000000000000000000000000000000000000906084015b604080517fffffffffffffffffffffffffffffffffffffffffffffffffffffffffffffffe08184030181529190526020810180517bffffffffffffffffffffffffffffffffffffffffffffffffffffffff167fffffffff0000000000000000000000000000000000000000000000000000000090931692909217909152611ce6565b50505050565b6040517fffffffff0000000000000000000000000000000000000000000000000000000060e085811b821660208401527fffffffffffffffffffffffffffffffffffffffff000000000000000000000000606089811b82166024860152603885018990529186901b909216605884015283901b16605c820152600090607001604051602081830303815290604052805190602001209050600160206002611955919061250f565b61195f919061251b565b604154106119ef576040517f08c379a000000000000000000000000000000000000000000000000000000000815260206004820152602a60248201527f4465706f736974436f6e74726163743a5f6465706f7369743a204d45524b4c4560448201527f5f545245455f46554c4c0000000000000000000000000000000000000000000060648201526084016104ec565b600160416000828254611a029190612532565b909155505060415460005b6020811015611aa25781600116600103611a40578260018260208110611a3557611a356122bd565b015550611aae915050565b60018160208110611a5357611a536122bd565b01546040805160208101929092528101849052606001604051602081830303815290604052805190602001209250600282611a8e919061231b565b915080611a9a81612356565b915050611a0d565b50611aab61254a565b50505b5050505050565b60405173ffffffffffffffffffffffffffffffffffffffff8316602482015260448101829052611b0b9084907fa9059cbb0000000000000000000000000000000000000000000000000000000090606401611826565b505050565b60006040517f3d602d80600a3d3981f3363d3d373d3d3d363d7300000000000000000000000081528360601b60148201527f5af43d82803e903d91602b57fd5bf300000000000000000000000000000000006028820152826037826000f591505073ffffffffffffffffffffffffffffffffffffffff8116610878576040517f08c379a000000000000000000000000000000000000000000000000000000000815260206004820152601760248201527f455243313136373a2063726561746532206661696c656400000000000000000060448201526064016104ec565b6000805473ffffffffffffffffffffffffffffffffffffffff8381167fffffffffffffffffffffffff0000000000000000000000000000000000000000831681178455604051919092169283917f8be0079c531659141344cd1fd0a4f28419497f9722a3daafe3b4186f6b6457e09190a35050565b6000611cdf8383306040517f3d602d80600a3d3981f3363d3d373d3d3d363d730000000000000000000000008152606093841b60148201527f5af43d82803e903d91602b57fd5bf3ff000000000000000000000000000000006028820152921b6038830152604c8201526037808220606c830152605591012090565b9392505050565b6000611d48826040518060400160405280602081526020017f5361666545524332303a206c6f772d6c6576656c2063616c6c206661696c65648152508573ffffffffffffffffffffffffffffffffffffffff16611df29092919063ffffffff16565b805190915015611b0b5780806020019051810190611d66919061229b565b611b0b576040517f08c379a000000000000000000000000000000000000000000000000000000000815260206004820152602a60248201527f5361666545524332303a204552433230206f7065726174696f6e20646964206e60448201527f6f7420737563636565640000000000000000000000000000000000000000000060648201526084016104ec565b606061169484846000858573ffffffffffffffffffffffffffffffffffffffff85163b611e7b576040517f08c379a000000000000000000000000000000000000000000000000000000000815260206004820152601d60248201527f416464726573733a2063616c6c20746f206e6f6e2d636f6e747261637400000060448201526064016104ec565b6000808673ffffffffffffffffffffffffffffffffffffffff168587604051611ea491906123d3565b60006040518083038185875af1925050503d8060008114611ee1576040519150601f19603f3d011682016040523d82523d6000602084013e611ee6565b606091505b5091509150611ef6828286611f01565b979650505050505050565b60608315611f10575081611cdf565b825115611f205782518084602001fd5b816040517f08c379a00000000000000000000000000000000000000000000000000000000081526004016104ec9190612579565b600060208284031215611f6657600080fd5b5035919050565b803573ffffffffffffffffffffffffffffffffffffffff81168114611f9157600080fd5b919050565b803563ffffffff81168114611f9157600080fd5b60008060008060808587031215611fc057600080fd5b611fc985611f6d565b935060208501359250611fde60408601611f96565b9150611fec60608601611f6d565b905092959194509250565b6000806040838503121561200a57600080fd5b61201383611f96565b915061202160208401611f6d565b90509250929050565b60006020828403121561203c57600080fd5b611cdf82611f96565b60006020828403121561205757600080fd5b611cdf82611f6d565b7f4e487b7100000000000000000000000000000000000000000000000000000000600052604160045260246000fd5b600082601f8301126120a057600080fd5b8135602067ffffffffffffffff808311156120bd576120bd612060565b8260051b6040517fffffffffffffffffffffffffffffffffffffffffffffffffffffffffffffffe0603f8301168101818110848211171561210057612100612060565b60405293845285810183019383810192508785111561211e57600080fd5b83870191505b84821015611ef657813583529183019190830190612124565b60008060008060008060008060006101208a8c03121561215c57600080fd5b6121658a611f6d565b985060208a0135975061217a60408b01611f96565b965061218860608b01611f96565b955061219660808b01611f6d565b945060a08a013567ffffffffffffffff8111156121b257600080fd5b6121be8c828d0161208f565b9450506121cd60c08b01611f96565b925060e08a013591506101008a013590509295985092959850929598565b600080600080600080600080610100898b03121561220857600080fd5b61221189611f6d565b97506020890135965061222660408a01611f96565b955061223460608a01611f96565b945061224260808a01611f6d565b935060a089013567ffffffffffffffff8082111561225f57600080fd5b61226b8c838d0161208f565b945060c08b01359150808216821461228257600080fd5b508092505060e089013590509295985092959890939650565b6000602082840312156122ad57600080fd5b81518015158114611cdf57600080fd5b7f4e487b7100000000000000000000000000000000000000000000000000000000600052603260045260246000fd5b7f4e487b7100000000000000000000000000000000000000000000000000000000600052601160045260246000fd5b600082612351577f4e487b7100000000000000000000000000000000000000000000000000000000600052601260045260246000fd5b500490565b60007fffffffffffffffffffffffffffffffffffffffffffffffffffffffffffffffff8203612387576123876122ec565b5060010190565b6000602082840312156123a057600080fd5b5051919050565b60005b838110156123c25781810151838201526020016123aa565b838111156118a85750506000910152565b600082516123e58184602087016123a7565b9190910192915050565b600181815b8085111561244857817fffffffffffffffffffffffffffffffffffffffffffffffffffffffffffffffff0482111561242e5761242e6122ec565b8085161561243b57918102915b93841c93908002906123f4565b509250929050565b60008261245f57506001610878565b8161246c57506000610878565b8160018114612482576002811461248c576124a8565b6001915050610878565b60ff84111561249d5761249d6122ec565b50506001821b610878565b5060208310610133831016604e8410600b84101617156124cb575081810a610878565b6124d583836123ef565b807fffffffffffffffffffffffffffffffffffffffffffffffffffffffffffffffff04821115612507576125076122ec565b029392505050565b6000611cdf8383612450565b60008282101561252d5761252d6122ec565b500390565b60008219821115612545576125456122ec565b500190565b7f4e487b7100000000000000000000000000000000000000000000000000000000600052600160045260246000fd5b60208152600082518060208401526125988160408501602087016123a7565b601f017fffffffffffffffffffffffffffffffffffffffffffffffffffffffffffffffe016919091016040019291505056fea26469706673582212200f26c96f3678cf83af13e4115ece98af067e5991874329c4324c51e47cde143a64736f6c634300080f003360806040523480156200001157600080fd5b50600062000020600162000087565b9050801562000039576000805461ff0019166101001790555b801562000080576000805461ff0019169055604051600181527f7f26b83ff96e1f2b6a682f133852f6798a09c465da95921460cefb38474024989060200160405180910390a15b50620001a8565b60008054610100900460ff161562000120578160ff166001148015620000c05750620000be306200019960201b620007271760201c565b155b620001185760405162461bcd60e51b815260206004820152602e60248201526000805160206200192883398151915260448201526d191e481a5b9a5d1a585b1a5e995960921b60648201526084015b60405180910390fd5b506000919050565b60005460ff8084169116106200017f5760405162461bcd60e51b815260206004820152602e60248201526000805160206200192883398151915260448201526d191e481a5b9a5d1a585b1a5e995960921b60648201526084016200010f565b506000805460ff191660ff92909216919091179055600190565b6001600160a01b03163b151590565b61177080620001b86000396000f3fe608060405234801561001057600080fd5b50600436106100f55760003560e01c80636c94522111610097578063a3c573eb11610066578063a3c573eb1461021c578063a457c2d714610261578063a9059cbb14610274578063dd62ed3e1461028757600080fd5b80636c945221146101b657806370a08231146101cb57806395d89b41146102015780639dc29fac1461020957600080fd5b806323b872dd116100d357806323b872dd1461014d578063313ce56714610160578063395093511461019057806340c10f19146101a357600080fd5b806306fdde03146100fa578063095ea7b31461011857806318160ddd1461013b575b600080fd5b6101026102cd565b60405161010f9190611268565b60405180910390f35b61012b6101263660046112ff565b61035f565b604051901515815260200161010f565b6035545b60405190815260200161010f565b61012b61015b366004611329565b610377565b60655474010000000000000000000000000000000000000000900460ff1660405160ff909116815260200161010f565b61012b61019e3660046112ff565b61039b565b61012b6101b13660046112ff565b6103e7565b6101c96101c436600461143f565b610483565b005b61013f6101d93660046114d4565b73ffffffffffffffffffffffffffffffffffffffff1660009081526033602052604090205490565b6101026105ab565b61012b6102173660046112ff565b6105ba565b60655461023c9073ffffffffffffffffffffffffffffffffffffffff1681565b60405173ffffffffffffffffffffffffffffffffffffffff909116815260200161010f565b61012b61026f3660046112ff565b610648565b61012b6102823660046112ff565b610719565b61013f6102953660046114f6565b73ffffffffffffffffffffffffffffffffffffffff918216600090815260346020908152604080832093909416825291909152205490565b6060603680546102dc90611529565b80601f016020809104026020016040519081016040528092919081815260200182805461030890611529565b80156103555780601f1061032a57610100808354040283529160200191610355565b820191906000526020600020905b81548152906001019060200180831161033857829003601f168201915b5050505050905090565b60003361036d818585610743565b5060019392505050565b6000336103858582856108f7565b6103908585856109ce565b506001949350505050565b33600081815260346020908152604080832073ffffffffffffffffffffffffffffffffffffffff8716845290915281205490919061036d90829086906103e29087906115ab565b610743565b60655460009073ffffffffffffffffffffffffffffffffffffffff163314610470576040517f08c379a000000000000000000000000000000000000000000000000000000000815260206004820152601760248201527f546f6b656e577261707065643a4e4f545f42524944474500000000000000000060448201526064015b60405180910390fd5b61047a8383610c81565b50600192915050565b600061048f6001610da2565b905080156104c457600080547fffffffffffffffffffffffffffffffffffffffffffffffffffffffffffff00ff166101001790555b6104ce8686610f2d565b606580547fffffffffffffffffffffff00000000000000000000000000000000000000000016337fffffffffffffffffffffff00ffffffffffffffffffffffffffffffffffffffff16177401000000000000000000000000000000000000000060ff8716021790556105408383610c81565b80156105a357600080547fffffffffffffffffffffffffffffffffffffffffffffffffffffffffffff00ff169055604051600181527f7f26b83ff96e1f2b6a682f133852f6798a09c465da95921460cefb38474024989060200160405180910390a15b505050505050565b6060603780546102dc90611529565b60655460009073ffffffffffffffffffffffffffffffffffffffff16331461063e576040517f08c379a000000000000000000000000000000000000000000000000000000000815260206004820152601760248201527f546f6b656e577261707065643a4e4f545f4252494447450000000000000000006044820152606401610467565b61047a8383610fce565b33600081815260346020908152604080832073ffffffffffffffffffffffffffffffffffffffff871684529091528120549091908381101561070c576040517f08c379a000000000000000000000000000000000000000000000000000000000815260206004820152602560248201527f45524332303a2064656372656173656420616c6c6f77616e63652062656c6f7760448201527f207a65726f0000000000000000000000000000000000000000000000000000006064820152608401610467565b6103908286868403610743565b60003361036d8185856109ce565b73ffffffffffffffffffffffffffffffffffffffff163b151590565b73ffffffffffffffffffffffffffffffffffffffff83166107e5576040517f08c379a0000000000000000000000000000000000000000000000000000000008152602060048201526024808201527f45524332303a20617070726f76652066726f6d20746865207a65726f2061646460448201527f72657373000000000000000000000000000000000000000000000000000000006064820152608401610467565b73ffffffffffffffffffffffffffffffffffffffff8216610888576040517f08c379a000000000000000000000000000000000000000000000000000000000815260206004820152602260248201527f45524332303a20617070726f766520746f20746865207a65726f20616464726560448201527f73730000000000000000000000000000000000000000000000000000000000006064820152608401610467565b73ffffffffffffffffffffffffffffffffffffffff83811660008181526034602090815260408083209487168084529482529182902085905590518481527f8c5be1e5ebec7d5bd14f71427d1e84f3dd0314c0f7b2291e5b200ac8c7c3b92591015b60405180910390a3505050565b73ffffffffffffffffffffffffffffffffffffffff8381166000908152603460209081526040808320938616835292905220547fffffffffffffffffffffffffffffffffffffffffffffffffffffffffffffffff81146109c857818110156109bb576040517f08c379a000000000000000000000000000000000000000000000000000000000815260206004820152601d60248201527f45524332303a20696e73756666696369656e7420616c6c6f77616e63650000006044820152606401610467565b6109c88484848403610743565b50505050565b73ffffffffffffffffffffffffffffffffffffffff8316610a71576040517f08c379a000000000000000000000000000000000000000000000000000000000815260206004820152602560248201527f45524332303a207472616e736665722066726f6d20746865207a65726f20616460448201527f64726573730000000000000000000000000000000000000000000000000000006064820152608401610467565b73ffffffffffffffffffffffffffffffffffffffff8216610b14576040517f08c379a000000000000000000000000000000000000000000000000000000000815260206004820152602360248201527f45524332303a207472616e7366657220746f20746865207a65726f206164647260448201527f65737300000000000000000000000000000000000000000000000000000000006064820152608401610467565b73ffffffffffffffffffffffffffffffffffffffff831660009081526033602052604090205481811015610bca576040517f08c379a000000000000000000000000000000000000000000000000000000000815260206004820152602660248201527f45524332303a207472616e7366657220616d6f756e742065786365656473206260448201527f616c616e636500000000000000000000000000000000000000000000000000006064820152608401610467565b73ffffffffffffffffffffffffffffffffffffffff808516600090815260336020526040808220858503905591851681529081208054849290610c0e9084906115ab565b925050819055508273ffffffffffffffffffffffffffffffffffffffff168473ffffffffffffffffffffffffffffffffffffffff167fddf252ad1be2c89b69c2b068fc378daa952ba7f163c4a11628f55a4df523b3ef84604051610c7491815260200190565b60405180910390a36109c8565b73ffffffffffffffffffffffffffffffffffffffff8216610cfe576040517f08c379a000000000000000000000000000000000000000000000000000000000815260206004820152601f60248201527f45524332303a206d696e7420746f20746865207a65726f2061646472657373006044820152606401610467565b8060356000828254610d1091906115ab565b909155505073ffffffffffffffffffffffffffffffffffffffff821660009081526033602052604081208054839290610d4a9084906115ab565b909155505060405181815273ffffffffffffffffffffffffffffffffffffffff8316906000907fddf252ad1be2c89b69c2b068fc378daa952ba7f163c4a11628f55a4df523b3ef9060200160405180910390a35b5050565b60008054610100900460ff1615610e59578160ff166001148015610dc55750303b155b610e51576040517f08c379a000000000000000000000000000000000000000000000000000000000815260206004820152602e60248201527f496e697469616c697a61626c653a20636f6e747261637420697320616c72656160448201527f647920696e697469616c697a65640000000000000000000000000000000000006064820152608401610467565b506000919050565b60005460ff808416911610610ef0576040517f08c379a000000000000000000000000000000000000000000000000000000000815260206004820152602e60248201527f496e697469616c697a61626c653a20636f6e747261637420697320616c72656160448201527f647920696e697469616c697a65640000000000000000000000000000000000006064820152608401610467565b50600080547fffffffffffffffffffffffffffffffffffffffffffffffffffffffffffffff001660ff92909216919091179055600190565b919050565b600054610100900460ff16610fc4576040517f08c379a000000000000000000000000000000000000000000000000000000000815260206004820152602b60248201527f496e697469616c697a61626c653a20636f6e7472616374206973206e6f74206960448201527f6e697469616c697a696e670000000000000000000000000000000000000000006064820152608401610467565b610d9e82826111b8565b73ffffffffffffffffffffffffffffffffffffffff8216611071576040517f08c379a000000000000000000000000000000000000000000000000000000000815260206004820152602160248201527f45524332303a206275726e2066726f6d20746865207a65726f2061646472657360448201527f73000000000000000000000000000000000000000000000000000000000000006064820152608401610467565b73ffffffffffffffffffffffffffffffffffffffff821660009081526033602052604090205481811015611127576040517f08c379a000000000000000000000000000000000000000000000000000000000815260206004820152602260248201527f45524332303a206275726e20616d6f756e7420657863656564732062616c616e60448201527f63650000000000000000000000000000000000000000000000000000000000006064820152608401610467565b73ffffffffffffffffffffffffffffffffffffffff831660009081526033602052604081208383039055603580548492906111639084906115c3565b909155505060405182815260009073ffffffffffffffffffffffffffffffffffffffff8516907fddf252ad1be2c89b69c2b068fc378daa952ba7f163c4a11628f55a4df523b3ef906020016108ea565b505050565b600054610100900460ff1661124f576040517f08c379a000000000000000000000000000000000000000000000000000000000815260206004820152602b60248201527f496e697469616c697a61626c653a20636f6e7472616374206973206e6f74206960448201527f6e697469616c697a696e670000000000000000000000000000000000000000006064820152608401610467565b603661125b8382611620565b5060376111b38282611620565b600060208083528351808285015260005b8181101561129557858101830151858201604001528201611279565b818111156112a7576000604083870101525b50601f017fffffffffffffffffffffffffffffffffffffffffffffffffffffffffffffffe016929092016040019392505050565b803573ffffffffffffffffffffffffffffffffffffffff81168114610f2857600080fd5b6000806040838503121561131257600080fd5b61131b836112db565b946020939093013593505050565b60008060006060848603121561133e57600080fd5b611347846112db565b9250611355602085016112db565b9150604084013590509250925092565b7f4e487b7100000000000000000000000000000000000000000000000000000000600052604160045260246000fd5b600082601f8301126113a557600080fd5b813567ffffffffffffffff808211156113c0576113c0611365565b604051601f83017fffffffffffffffffffffffffffffffffffffffffffffffffffffffffffffffe0908116603f0116810190828211818310171561140657611406611365565b8160405283815286602085880101111561141f57600080fd5b836020870160208301376000602085830101528094505050505092915050565b600080600080600060a0868803121561145757600080fd5b853567ffffffffffffffff8082111561146f57600080fd5b61147b89838a01611394565b9650602088013591508082111561149157600080fd5b5061149e88828901611394565b945050604086013560ff811681146114b557600080fd5b92506114c3606087016112db565b949793965091946080013592915050565b6000602082840312156114e657600080fd5b6114ef826112db565b9392505050565b6000806040838503121561150957600080fd5b611512836112db565b9150611520602084016112db565b90509250929050565b600181811c9082168061153d57607f821691505b602082108103611576577f4e487b7100000000000000000000000000000000000000000000000000000000600052602260045260246000fd5b50919050565b7f4e487b7100000000000000000000000000000000000000000000000000000000600052601160045260246000fd5b600082198211156115be576115be61157c565b500190565b6000828210156115d5576115d561157c565b500390565b601f8211156111b357600081815260208120601f850160051c810160208610156116015750805b601f850160051c820191505b818110156105a35782815560010161160d565b815167ffffffffffffffff81111561163a5761163a611365565b61164e816116488454611529565b846115da565b602080601f8311600181146116a1576000841561166b5750858301515b7fffffffffffffffffffffffffffffffffffffffffffffffffffffffffffffffff600386901b1c1916600185901b1785556105a3565b6000858152602081207fffffffffffffffffffffffffffffffffffffffffffffffffffffffffffffffe08616915b828110156116ee578886015182559484019460019091019084016116cf565b508582101561172a57878501517fffffffffffffffffffffffffffffffffffffffffffffffffffffffffffffffff600388901b60f8161c191681555b5050505050600190811b0190555056fea26469706673582212203e2954977597952d1f25e63c2d508e9e327dc004c141323911de5897253a0d9864736f6c634300080f0033496e697469616c697a61626c653a20636f6e747261637420697320616c726561",
  "linkReferences": {},
  "deployedLinkReferences": {}
}