{
  "_format": "hh-sol-artifact-1",
  "contractName": "BridgeMock",
  "sourceName": "contracts/mocks/BridgeMock.sol",
  "abi": [
    {
      "anonymous": false,
      "inputs": [
        {
          "indexed": false,
          "internalType": "uint8",
          "name": "leafType",
          "type": "uint8"
        },
        {
          "indexed": false,
          "internalType": "uint32",
          "name": "originNetwork",
          "type": "uint32"
        },
        {
          "indexed": false,
          "internalType": "address",
          "name": "originAddress",
          "type": "address"
        },
        {
          "indexed": false,
          "internalType": "uint32",
          "name": "destinationNetwork",
          "type": "uint32"
        },
        {
          "indexed": false,
          "internalType": "address",
          "name": "destinationAddress",
          "type": "address"
        },
        {
          "indexed": false,
          "internalType": "uint256",
          "name": "amount",
          "type": "uint256"
        },
        {
          "indexed": false,
          "internalType": "bytes",
          "name": "metadata",
          "type": "bytes"
        },
        {
          "indexed": false,
          "internalType": "uint32",
          "name": "depositCount",
          "type": "uint32"
        }
      ],
      "name": "BridgeEvent",
      "type": "event"
    },
    {
      "anonymous": false,
      "inputs": [
        {
          "indexed": false,
          "internalType": "uint32",
          "name": "index",
          "type": "uint32"
        },
        {
          "indexed": false,
          "internalType": "uint32",
          "name": "originNetwork",
          "type": "uint32"
        },
        {
          "indexed": false,
          "internalType": "address",
          "name": "originAddress",
          "type": "address"
        },
        {
          "indexed": false,
          "internalType": "address",
          "name": "destinationAddress",
          "type": "address"
        },
        {
          "indexed": false,
          "internalType": "uint256",
          "name": "amount",
          "type": "uint256"
        }
      ],
      "name": "ClaimEvent",
      "type": "event"
    },
    {
      "anonymous": false,
      "inputs": [
        {
          "indexed": false,
          "internalType": "uint8",
          "name": "version",
          "type": "uint8"
        }
      ],
      "name": "Initialized",
      "type": "event"
    },
    {
      "anonymous": false,
      "inputs": [
        {
          "indexed": false,
          "internalType": "uint32",
          "name": "originNetwork",
          "type": "uint32"
        },
        {
          "indexed": false,
          "internalType": "address",
          "name": "originTokenAddress",
          "type": "address"
        },
        {
          "indexed": false,
          "internalType": "address",
          "name": "wrappedTokenAddress",
          "type": "address"
        }
      ],
      "name": "NewWrappedToken",
      "type": "event"
    },
    {
      "anonymous": false,
      "inputs": [
        {
          "indexed": true,
          "internalType": "address",
          "name": "previousOwner",
          "type": "address"
        },
        {
          "indexed": true,
          "internalType": "address",
          "name": "newOwner",
          "type": "address"
        }
      ],
      "name": "OwnershipTransferred",
      "type": "event"
    },
    {
      "inputs": [],
      "name": "LEAF_TYPE_ASSET",
      "outputs": [
        {
          "internalType": "uint8",
          "name": "",
          "type": "uint8"
        }
      ],
      "stateMutability": "view",
      "type": "function"
    },
    {
      "inputs": [],
      "name": "LEAF_TYPE_MESSAGE",
      "outputs": [
        {
          "internalType": "uint8",
          "name": "",
          "type": "uint8"
        }
      ],
      "stateMutability": "view",
      "type": "function"
    },
    {
      "inputs": [],
      "name": "MAINNET_NETWORK_ID",
      "outputs": [
        {
          "internalType": "uint32",
          "name": "",
          "type": "uint32"
        }
      ],
      "stateMutability": "view",
      "type": "function"
    },
    {
      "inputs": [
        {
          "internalType": "address",
          "name": "token",
          "type": "address"
        },
        {
          "internalType": "uint32",
          "name": "destinationNetwork",
          "type": "uint32"
        },
        {
          "internalType": "address",
          "name": "destinationAddress",
          "type": "address"
        },
        {
          "internalType": "uint256",
          "name": "amount",
          "type": "uint256"
        },
        {
          "internalType": "bytes",
          "name": "permitData",
          "type": "bytes"
        }
      ],
      "name": "bridgeAsset",
      "outputs": [],
      "stateMutability": "payable",
      "type": "function"
    },
    {
      "inputs": [
        {
          "internalType": "uint32",
          "name": "destinationNetwork",
          "type": "uint32"
        },
        {
          "internalType": "address",
          "name": "destinationAddress",
          "type": "address"
        },
        {
          "internalType": "bytes",
          "name": "metadata",
          "type": "bytes"
        }
      ],
      "name": "bridgeMessage",
      "outputs": [],
      "stateMutability": "payable",
      "type": "function"
    },
    {
      "inputs": [
        {
          "internalType": "bytes32[]",
          "name": "smtProof",
          "type": "bytes32[]"
        },
        {
          "internalType": "uint32",
          "name": "index",
          "type": "uint32"
        },
        {
          "internalType": "bytes32",
          "name": "mainnetExitRoot",
          "type": "bytes32"
        },
        {
          "internalType": "bytes32",
          "name": "rollupExitRoot",
          "type": "bytes32"
        },
        {
          "internalType": "uint32",
          "name": "originNetwork",
          "type": "uint32"
        },
        {
          "internalType": "address",
          "name": "originTokenAddress",
          "type": "address"
        },
        {
          "internalType": "uint32",
          "name": "destinationNetwork",
          "type": "uint32"
        },
        {
          "internalType": "address",
          "name": "destinationAddress",
          "type": "address"
        },
        {
          "internalType": "uint256",
          "name": "amount",
          "type": "uint256"
        },
        {
          "internalType": "bytes",
          "name": "metadata",
          "type": "bytes"
        }
      ],
      "name": "claimAsset",
      "outputs": [],
      "stateMutability": "nonpayable",
      "type": "function"
    },
    {
      "inputs": [
        {
          "internalType": "bytes32[]",
          "name": "smtProof",
          "type": "bytes32[]"
        },
        {
          "internalType": "uint32",
          "name": "index",
          "type": "uint32"
        },
        {
          "internalType": "bytes32",
          "name": "mainnetExitRoot",
          "type": "bytes32"
        },
        {
          "internalType": "bytes32",
          "name": "rollupExitRoot",
          "type": "bytes32"
        },
        {
          "internalType": "uint32",
          "name": "originNetwork",
          "type": "uint32"
        },
        {
          "internalType": "address",
          "name": "originAddress",
          "type": "address"
        },
        {
          "internalType": "uint32",
          "name": "destinationNetwork",
          "type": "uint32"
        },
        {
          "internalType": "address",
          "name": "destinationAddress",
          "type": "address"
        },
        {
          "internalType": "uint256",
          "name": "amount",
          "type": "uint256"
        },
        {
          "internalType": "bytes",
          "name": "metadata",
          "type": "bytes"
        }
      ],
      "name": "claimMessage",
      "outputs": [],
      "stateMutability": "nonpayable",
      "type": "function"
    },
    {
      "inputs": [
        {
          "internalType": "uint256",
          "name": "",
          "type": "uint256"
        }
      ],
      "name": "claimNullifier",
      "outputs": [
        {
          "internalType": "bool",
          "name": "",
          "type": "bool"
        }
      ],
      "stateMutability": "view",
      "type": "function"
    },
    {
      "inputs": [],
      "name": "depositCount",
      "outputs": [
        {
          "internalType": "uint256",
          "name": "",
          "type": "uint256"
        }
      ],
      "stateMutability": "view",
      "type": "function"
    },
    {
      "inputs": [],
      "name": "getDepositRoot",
      "outputs": [
        {
          "internalType": "bytes32",
          "name": "",
          "type": "bytes32"
        }
      ],
      "stateMutability": "view",
      "type": "function"
    },
    {
      "inputs": [
        {
          "internalType": "uint8",
          "name": "leafType",
          "type": "uint8"
        },
        {
          "internalType": "uint32",
          "name": "originNetwork",
          "type": "uint32"
        },
        {
          "internalType": "address",
          "name": "originAddress",
          "type": "address"
        },
        {
          "internalType": "uint32",
          "name": "destinationNetwork",
          "type": "uint32"
        },
        {
          "internalType": "address",
          "name": "destinationAddress",
          "type": "address"
        },
        {
          "internalType": "uint256",
          "name": "amount",
          "type": "uint256"
        },
        {
          "internalType": "bytes32",
          "name": "metadataHash",
          "type": "bytes32"
        }
      ],
      "name": "getLeafValue",
      "outputs": [
        {
          "internalType": "bytes32",
          "name": "",
          "type": "bytes32"
        }
      ],
      "stateMutability": "pure",
      "type": "function"
    },
    {
      "inputs": [
        {
          "internalType": "uint32",
          "name": "originNetwork",
          "type": "uint32"
        },
        {
          "internalType": "address",
          "name": "originTokenAddress",
          "type": "address"
        }
      ],
      "name": "getTokenWrappedAddress",
      "outputs": [
        {
          "internalType": "address",
          "name": "",
          "type": "address"
        }
      ],
      "stateMutability": "view",
      "type": "function"
    },
    {
      "inputs": [],
      "name": "globalExitRootManager",
      "outputs": [
        {
          "internalType": "contract IGlobalExitRootManager",
          "name": "",
          "type": "address"
        }
      ],
      "stateMutability": "view",
      "type": "function"
    },
    {
      "inputs": [
        {
          "internalType": "uint32",
          "name": "_networkID",
          "type": "uint32"
        },
        {
          "internalType": "contract IGlobalExitRootManager",
          "name": "_globalExitRootManager",
          "type": "address"
        }
      ],
      "name": "initialize",
      "outputs": [],
      "stateMutability": "nonpayable",
      "type": "function"
    },
    {
      "inputs": [],
      "name": "maxEtherBridge",
      "outputs": [
        {
          "internalType": "uint256",
          "name": "",
          "type": "uint256"
        }
      ],
      "stateMutability": "view",
      "type": "function"
    },
    {
      "inputs": [],
      "name": "networkID",
      "outputs": [
        {
          "internalType": "uint32",
          "name": "",
          "type": "uint32"
        }
      ],
      "stateMutability": "view",
      "type": "function"
    },
    {
      "inputs": [],
      "name": "owner",
      "outputs": [
        {
          "internalType": "address",
          "name": "",
          "type": "address"
        }
      ],
      "stateMutability": "view",
      "type": "function"
    },
    {
      "inputs": [
        {
          "internalType": "uint32",
          "name": "originNetwork",
          "type": "uint32"
        },
        {
          "internalType": "address",
          "name": "originTokenAddress",
          "type": "address"
        }
      ],
      "name": "precalculatedWrapperAddress",
      "outputs": [
        {
          "internalType": "address",
          "name": "",
          "type": "address"
        }
      ],
      "stateMutability": "view",
      "type": "function"
    },
    {
      "inputs": [],
      "name": "renounceOwnership",
      "outputs": [],
      "stateMutability": "nonpayable",
      "type": "function"
    },
    {
      "inputs": [
        {
          "internalType": "uint256",
          "name": "_maxEtherBridge",
          "type": "uint256"
        }
      ],
      "name": "setMaxEtherBridge",
      "outputs": [],
      "stateMutability": "nonpayable",
      "type": "function"
    },
    {
      "inputs": [
        {
          "internalType": "uint32",
          "name": "_networkID",
          "type": "uint32"
        }
      ],
      "name": "setNetworkID",
      "outputs": [],
      "stateMutability": "nonpayable",
      "type": "function"
    },
    {
      "inputs": [],
      "name": "tokenImplementation",
      "outputs": [
        {
          "internalType": "address",
          "name": "",
          "type": "address"
        }
      ],
      "stateMutability": "view",
      "type": "function"
    },
    {
      "inputs": [
        {
          "internalType": "bytes32",
          "name": "",
          "type": "bytes32"
        }
      ],
      "name": "tokenInfoToWrappedToken",
      "outputs": [
        {
          "internalType": "address",
          "name": "",
          "type": "address"
        }
      ],
      "stateMutability": "view",
      "type": "function"
    },
    {
      "inputs": [
        {
          "internalType": "address",
          "name": "newOwner",
          "type": "address"
        }
      ],
      "name": "transferOwnership",
      "outputs": [],
      "stateMutability": "nonpayable",
      "type": "function"
    },
    {
      "inputs": [
        {
          "internalType": "bytes32",
          "name": "leafHash",
          "type": "bytes32"
        },
        {
          "internalType": "bytes32[]",
          "name": "smtProof",
          "type": "bytes32[]"
        },
        {
          "internalType": "uint64",
          "name": "index",
          "type": "uint64"
        },
        {
          "internalType": "bytes32",
          "name": "root",
          "type": "bytes32"
        }
      ],
      "name": "verifyMerkleProof",
      "outputs": [
        {
          "internalType": "bool",
          "name": "",
          "type": "bool"
        }
      ],
      "stateMutability": "pure",
      "type": "function"
    },
    {
      "inputs": [
        {
          "internalType": "address",
          "name": "",
          "type": "address"
        }
      ],
      "name": "wrappedTokenToTokenInfo",
      "outputs": [
        {
          "internalType": "uint32",
          "name": "originNetwork",
          "type": "uint32"
        },
        {
          "internalType": "address",
          "name": "originTokenAddress",
          "type": "address"
        }
      ],
      "stateMutability": "view",
      "type": "function"
    }
  ],
  "bytecode": "0x608060405234801561001057600080fd5b50615c42806100206000396000f3fe608060405260043610620001c35760003560e01c806381b1c17411620000f3578063bab161bf1162000095578063e7375881116200006c578063e73758811462000678578063ed6be5c914620006ac578063f2fde38b14620006c3578063ff634ed714620006e857600080fd5b8063bab161bf14620005fd578063d02103ca1462000632578063d96a15f7146200066157600080fd5b806391e57e2d11620000ca57806391e57e2d1462000596578063a08e8a0814620005ae578063b7e6a7d414620005d857600080fd5b806381b1c17414620004fd5780638624c35c14620005445780638da5cb5b146200056957600080fd5b8063318aee3d11620001695780633e19704311620001405780633e19704314620003a757806346385549146200049b578063715018a614620004c05780637b6323c114620004d857600080fd5b8063318aee3d14620002d05780633ae0504714620003595780633da81682146200037157600080fd5b80632c3f58cd116200019e5780632c3f58cd14620002555780632dfdf0b5146200027a5780632f3a3d5d14620002a157600080fd5b80630871e97114620001c857806322e95f2c14620001e15780632b5e42e71462000230575b600080fd5b620001df620001d936600462003823565b620006ff565b005b348015620001ee57600080fd5b506200020662000200366004620038df565b620007d5565b60405173ffffffffffffffffffffffffffffffffffffffff90911681526020015b60405180910390f35b3480156200023d57600080fd5b50620001df6200024f3660046200391b565b62000878565b3480156200026257600080fd5b50620001df6200027436600462003935565b62000887565b3480156200028757600080fd5b506200029260415481565b60405190815260200162000227565b348015620002ae57600080fd5b50604754620002069073ffffffffffffffffffffffffffffffffffffffff1681565b348015620002dd57600080fd5b5062000327620002ef36600462003953565b60456020526000908152604090205463ffffffff811690640100000000900473ffffffffffffffffffffffffffffffffffffffff1682565b6040805163ffffffff909316835273ffffffffffffffffffffffffffffffffffffffff90911660208301520162000227565b3480156200036657600080fd5b5062000292620008c8565b3480156200037e57600080fd5b50620003966200039036600462003a72565b620009a2565b604051901515815260200162000227565b348015620003b457600080fd5b5062000292620003c636600462003af0565b6040517fff0000000000000000000000000000000000000000000000000000000000000060f889901b1660208201527fffffffff0000000000000000000000000000000000000000000000000000000060e088811b821660218401527fffffffffffffffffffffffffffffffffffffffff000000000000000000000000606089811b821660258601529188901b909216603984015285901b16603d8201526051810183905260718101829052600090609101604051602081830303815290604052805190602001209050979650505050505050565b348015620004a857600080fd5b50620001df620004ba36600462003c1f565b62000aa2565b348015620004cd57600080fd5b50620001df6200125d565b348015620004e557600080fd5b50620001df620004f736600462003c1f565b62001275565b3480156200050a57600080fd5b50620002066200051c3660046200391b565b60446020526000908152604090205473ffffffffffffffffffffffffffffffffffffffff1681565b3480156200055157600080fd5b50620001df62000563366004620038df565b62001d20565b3480156200057657600080fd5b50607a5473ffffffffffffffffffffffffffffffffffffffff1662000206565b348015620005a357600080fd5b506200029260ac5481565b348015620005bb57600080fd5b50620005c5600081565b60405160ff909116815260200162000227565b348015620005e557600080fd5b5062000206620005f7366004620038df565b62001fb4565b3480156200060a57600080fd5b506042546200061c9063ffffffff1681565b60405163ffffffff909116815260200162000227565b3480156200063f57600080fd5b50604654620002069073ffffffffffffffffffffffffffffffffffffffff1681565b620001df6200067236600462003d06565b6200207d565b3480156200068557600080fd5b5062000396620006973660046200391b565b60436020526000908152604090205460ff1681565b348015620006b957600080fd5b506200061c600081565b348015620006d057600080fd5b50620001df620006e236600462003953565b620022ca565b348015620006f557600080fd5b50620005c5600181565b60ac54341115620007bd576040517f08c379a000000000000000000000000000000000000000000000000000000000815260206004820152604a60248201527f4272696467653a3a6272696467653a2043616e6e6f7420627269646765206d6f60448201527f7265207468616e206d6178457468657242726964676520696e20696e7465726e60648201527f616c20746573746e657400000000000000000000000000000000000000000000608482015260a4015b60405180910390fd5b620007cd86868686868662002387565b505050505050565b6040805160e084901b7fffffffff0000000000000000000000000000000000000000000000000000000016602080830191909152606084901b7fffffffffffffffffffffffffffffffffffffffff000000000000000000000000166024830152825160188184030181526038909201835281519181019190912060009081526044909152205473ffffffffffffffffffffffffffffffffffffffff165b92915050565b6200088262002977565b60ac55565b6200089162002977565b604280547fffffffffffffffffffffffffffffffffffffffffffffffffffffffff000000001663ffffffff92909216919091179055565b6041546000908190815b60208110156200099a5781600116600103620009325760018160208110620008fe57620008fe62003d6e565b0154604080516020810192909252810184905260600160405160208183030381529060405280519060200120925062000976565b826021826020811062000949576200094962003d6e565b01546040805160208101939093528201526060016040516020818303038152906040528051906020012092505b6200098360028362003dcc565b915080620009918162003e08565b915050620008d2565b509092915050565b60008467ffffffffffffffff8416825b602081101562000a95578160011660010362000a1f57868181518110620009dd57620009dd62003d6e565b60200260200101518360405160200162000a01929190918252602082015260400190565b60405160208183030381529060405280519060200120925062000a71565b8287828151811062000a355762000a3562003d6e565b602002602001015160405160200162000a58929190918252602082015260400190565b6040516020818303038152906040528051906020012092505b62000a7e60028362003dcc565b91508062000a8c8162003e08565b915050620009b2565b5050909114949350505050565b63ffffffff891660009081526043602052604090205460ff161562000b4a576040517f08c379a000000000000000000000000000000000000000000000000000000000815260206004820152602560248201527f4272696467653a3a636c61696d4d6573736167653a20414c52454144595f434c60448201527f41494d45440000000000000000000000000000000000000000000000000000006064820152608401620007b4565b6046546040805160208082018c90528183018b9052825180830384018152606083019384905280519101207f257b363200000000000000000000000000000000000000000000000000000000909252606481019190915273ffffffffffffffffffffffffffffffffffffffff9091169063257b3632906084016020604051808303816000875af115801562000be3573d6000803e3d6000fd5b505050506040513d601f19601f8201168201806040525081019062000c09919062003e43565b60000362000c9a576040517f08c379a000000000000000000000000000000000000000000000000000000000815260206004820152603560248201527f4272696467653a3a636c61696d4d6573736167653a20474c4f42414c5f45584960448201527f545f524f4f545f444f45535f4e4f545f4d4154434800000000000000000000006064820152608401620007b4565b60425463ffffffff85811691161462000d36576040517f08c379a000000000000000000000000000000000000000000000000000000000815260206004820152603860248201527f4272696467653a3a636c61696d4d6573736167653a2044455354494e4154494f60448201527f4e5f4e4554574f524b5f444f45535f4e4f545f4d4154434800000000000000006064820152608401620007b4565b60425463ffffffff1662000eb4578051602080830191909120604080517f0100000000000000000000000000000000000000000000000000000000000000818501527fffffffff0000000000000000000000000000000000000000000000000000000060e08b811b821660218401527fffffffffffffffffffffffffffffffffffffffff00000000000000000000000060608c811b82166025860152918b901b909216603984015288901b16603d82015260518101869052607180820193909352815180820390930183526091019052805191012062000e20905b8b8b63ffffffff168a620009a2565b62000eae576040517f08c379a000000000000000000000000000000000000000000000000000000000815260206004820152602160248201527f4272696467653a3a636c61696d4d6573736167653a20534d545f494e56414c4960448201527f44000000000000000000000000000000000000000000000000000000000000006064820152608401620007b4565b6200101e565b8051602080830191909120604080517f0100000000000000000000000000000000000000000000000000000000000000818501527fffffffff0000000000000000000000000000000000000000000000000000000060e08b811b821660218401527fffffffffffffffffffffffffffffffffffffffff00000000000000000000000060608c811b82166025860152918b901b909216603984015288901b16603d82015260518101869052607180820193909352815180820390930183526091019052805191012062000f90905b8b8b63ffffffff168b620009a2565b6200101e576040517f08c379a000000000000000000000000000000000000000000000000000000000815260206004820152602160248201527f4272696467653a3a636c61696d4d6573736167653a20534d545f494e56414c4960448201527f44000000000000000000000000000000000000000000000000000000000000006064820152608401620007b4565b63ffffffff891660009081526043602052604080822080547fffffffffffffffffffffffffffffffffffffffffffffffffffffffffffffff001660011790555173ffffffffffffffffffffffffffffffffffffffff85169084906200108c9089908b90879060240162003ed8565b604080517fffffffffffffffffffffffffffffffffffffffffffffffffffffffffffffffe08184030181529181526020820180517bffffffffffffffffffffffffffffffffffffffffffffffffffffffff167f1806b5f200000000000000000000000000000000000000000000000000000000179052516200110f919062003f1e565b60006040518083038185875af1925050503d80600081146200114e576040519150601f19603f3d011682016040523d82523d6000602084013e62001153565b606091505b5050905080620011e5576040517f08c379a0000000000000000000000000000000000000000000000000000000008152602060048201526024808201527f4272696467653a3a636c61696d4d6573736167653a204d4553534147455f464160448201527f494c4544000000000000000000000000000000000000000000000000000000006064820152608401620007b4565b6040805163ffffffff8c811682528916602082015273ffffffffffffffffffffffffffffffffffffffff88811682840152861660608201526080810185905290517f25308c93ceeed162da955b3f7ce3e3f93606579e40fb92029faa9efe275459839181900360a00190a15050505050505050505050565b6200126762002977565b620012736000620029fa565b565b63ffffffff891660009081526043602052604090205460ff1615620012f7576040517f08c379a000000000000000000000000000000000000000000000000000000000815260206004820152601e60248201527f4272696467653a3a636c61696d3a20414c52454144595f434c41494d454400006044820152606401620007b4565b6046546040805160208082018c90528183018b9052825180830384018152606083019384905280519101207f257b363200000000000000000000000000000000000000000000000000000000909252606481019190915273ffffffffffffffffffffffffffffffffffffffff9091169063257b3632906084016020604051808303816000875af115801562001390573d6000803e3d6000fd5b505050506040513d601f19601f82011682018060405250810190620013b6919062003e43565b60000362001447576040517f08c379a000000000000000000000000000000000000000000000000000000000815260206004820152602e60248201527f4272696467653a3a636c61696d3a20474c4f42414c5f455849545f524f4f545f60448201527f444f45535f4e4f545f4d415443480000000000000000000000000000000000006064820152608401620007b4565b60425463ffffffff858116911614620014e3576040517f08c379a000000000000000000000000000000000000000000000000000000000815260206004820152603160248201527f4272696467653a3a636c61696d3a2044455354494e4154494f4e5f4e4554574f60448201527f524b5f444f45535f4e4f545f4d415443480000000000000000000000000000006064820152608401620007b4565b60425463ffffffff1662001612578051602080830191909120604080516000818501527fffffffff0000000000000000000000000000000000000000000000000000000060e08b811b821660218401527fffffffffffffffffffffffffffffffffffffffff00000000000000000000000060608c811b82166025860152918b901b909216603984015288901b16603d820152605181018690526071808201939093528151808203909301835260910190528051910120620015a49062000e11565b6200160c576040517f08c379a000000000000000000000000000000000000000000000000000000000815260206004820152601a60248201527f4272696467653a3a636c61696d3a20534d545f494e56414c49440000000000006044820152606401620007b4565b6200172d565b8051602080830191909120604080516000818501527fffffffff0000000000000000000000000000000000000000000000000000000060e08b811b821660218401527fffffffffffffffffffffffffffffffffffffffff00000000000000000000000060608c811b82166025860152918b901b909216603984015288901b16603d820152605181018690526071808201939093528151808203909301835260910190528051910120620016c59062000f81565b6200172d576040517f08c379a000000000000000000000000000000000000000000000000000000000815260206004820152601a60248201527f4272696467653a3a636c61696d3a20534d545f494e56414c49440000000000006044820152606401620007b4565b63ffffffff8916600090815260436020526040902080547fffffffffffffffffffffffffffffffffffffffffffffffffffffffffffffff0016600117905573ffffffffffffffffffffffffffffffffffffffff85166200189e576040805160008082526020820190925273ffffffffffffffffffffffffffffffffffffffff8516908490604051620017c0919062003f1e565b60006040518083038185875af1925050503d8060008114620017ff576040519150601f19603f3d011682016040523d82523d6000602084013e62001804565b606091505b505090508062001897576040517f08c379a000000000000000000000000000000000000000000000000000000000815260206004820152602260248201527f4272696467653a3a636c61696d3a204554485f5452414e534645525f4641494c60448201527f45440000000000000000000000000000000000000000000000000000000000006064820152608401620007b4565b5062001ca9565b60425463ffffffff90811690871603620018db57620018d573ffffffffffffffffffffffffffffffffffffffff8616848462002a71565b62001ca9565b6040517fffffffff0000000000000000000000000000000000000000000000000000000060e088901b1660208201527fffffffffffffffffffffffffffffffffffffffff000000000000000000000000606087901b166024820152600090603801604080517fffffffffffffffffffffffffffffffffffffffffffffffffffffffffffffffe081840301815291815281516020928301206000818152604490935291205490915073ffffffffffffffffffffffffffffffffffffffff168062001c0857604754600090620019c69073ffffffffffffffffffffffffffffffffffffffff168462002b47565b9050600080600086806020019051810190620019e3919062003f88565b9250925092508373ffffffffffffffffffffffffffffffffffffffff16636c9452218484848d8d6040518663ffffffff1660e01b815260040162001a2c95949392919062004009565b600060405180830381600087803b15801562001a4757600080fd5b505af115801562001a5c573d6000803e3d6000fd5b50505050836044600088815260200190815260200160002060006101000a81548173ffffffffffffffffffffffffffffffffffffffff021916908373ffffffffffffffffffffffffffffffffffffffff16021790555060405180604001604052808d63ffffffff1681526020018c73ffffffffffffffffffffffffffffffffffffffff16815250604560008673ffffffffffffffffffffffffffffffffffffffff1673ffffffffffffffffffffffffffffffffffffffff16815260200190815260200160002060008201518160000160006101000a81548163ffffffff021916908363ffffffff16021790555060208201518160000160046101000a81548173ffffffffffffffffffffffffffffffffffffffff021916908373ffffffffffffffffffffffffffffffffffffffff1602179055509050507fccd7715648d1f2bb13e158f96b5b6c3aeda555d4cb87112e274a6f28bc571d598c8c8660405162001bf69392919063ffffffff93909316835273ffffffffffffffffffffffffffffffffffffffff918216602084015216604082015260600190565b60405180910390a15050505062001ca6565b6040517f40c10f1900000000000000000000000000000000000000000000000000000000815273ffffffffffffffffffffffffffffffffffffffff8681166004830152602482018690528216906340c10f19906044016020604051808303816000875af115801562001c7e573d6000803e3d6000fd5b505050506040513d601f19601f8201168201806040525081019062001ca4919062004069565b505b50505b6040805163ffffffff8b811682528816602082015273ffffffffffffffffffffffffffffffffffffffff87811682840152851660608201526080810184905290517f25308c93ceeed162da955b3f7ce3e3f93606579e40fb92029faa9efe275459839181900360a00190a150505050505050505050565b600054610100900460ff161580801562001d415750600054600160ff909116105b8062001d5d5750303b15801562001d5d575060005460ff166001145b62001deb576040517f08c379a000000000000000000000000000000000000000000000000000000000815260206004820152602e60248201527f496e697469616c697a61626c653a20636f6e747261637420697320616c72656160448201527f647920696e697469616c697a65640000000000000000000000000000000000006064820152608401620007b4565b600080547fffffffffffffffffffffffffffffffffffffffffffffffffffffffffffffff00166001179055801562001e4a57600080547fffffffffffffffffffffffffffffffffffffffffffffffffffffffffffff00ff166101001790555b604280547fffffffffffffffffffffffffffffffffffffffffffffffffffffffff000000001663ffffffff8516179055604680547fffffffffffffffffffffffff00000000000000000000000000000000000000001673ffffffffffffffffffffffffffffffffffffffff841617905560405162001ec890620037cb565b604051809103906000f08015801562001ee5573d6000803e3d6000fd5b50604780547fffffffffffffffffffffffff00000000000000000000000000000000000000001673ffffffffffffffffffffffffffffffffffffffff9290921691909117905562001f3562002c27565b62001f3f62002d6c565b6703782dace9d9000060ac55801562001faf57600080547fffffffffffffffffffffffffffffffffffffffffffffffffffffffffffff00ff169055604051600181527f7f26b83ff96e1f2b6a682f133852f6798a09c465da95921460cefb38474024989060200160405180910390a15b505050565b6040517fffffffff0000000000000000000000000000000000000000000000000000000060e084901b1660208201527fffffffffffffffffffffffffffffffffffffffff000000000000000000000000606083901b1660248201526000908190603801604080517fffffffffffffffffffffffffffffffffffffffffffffffffffffffffffffffe08184030181529190528051602090910120604754909150620020759073ffffffffffffffffffffffffffffffffffffffff168262002e0f565b949350505050565b60425463ffffffff908116908416036200211a576040517f08c379a000000000000000000000000000000000000000000000000000000000815260206004820152602a60248201527f4272696467653a3a6272696467653a2044455354494e4154494f4e5f43414e5460448201527f5f42455f495453454c46000000000000000000000000000000000000000000006064820152608401620007b4565b6042546041546040517f501781209a1f8899323b96b4ef08b168df93e0a90c673d1e4cce39366cb62f9b92620021679260019263ffffffff9092169133918991899134918a91906200408d565b60405180910390a16042548151602080840191909120604080517f0100000000000000000000000000000000000000000000000000000000000000818501527fffffffff0000000000000000000000000000000000000000000000000000000060e095861b811660218301527fffffffffffffffffffffffffffffffffffffffff00000000000000000000000033606090811b82166025850152968a901b90911660398301529487901b909416603d85015234605185015260718085019290925280518085039092018252609190930190925281519101206200224a9062002e93565b60465473ffffffffffffffffffffffffffffffffffffffff166333d6247d62002272620008c8565b6040518263ffffffff1660e01b81526004016200229191815260200190565b600060405180830381600087803b158015620022ac57600080fd5b505af1158015620022c1573d6000803e3d6000fd5b50505050505050565b620022d462002977565b73ffffffffffffffffffffffffffffffffffffffff811662002379576040517f08c379a000000000000000000000000000000000000000000000000000000000815260206004820152602660248201527f4f776e61626c653a206e6577206f776e657220697320746865207a65726f206160448201527f64647265737300000000000000000000000000000000000000000000000000006064820152608401620007b4565b6200238481620029fa565b50565b60425463ffffffff9081169086160362002424576040517f08c379a000000000000000000000000000000000000000000000000000000000815260206004820152602a60248201527f4272696467653a3a6272696467653a2044455354494e4154494f4e5f43414e5460448201527f5f42455f495453454c46000000000000000000000000000000000000000000006064820152608401620007b4565b600080606073ffffffffffffffffffffffffffffffffffffffff8916620024e057853414620024d6576040517f08c379a000000000000000000000000000000000000000000000000000000000815260206004820152602f60248201527f4272696467653a3a6272696467653a20414d4f554e545f444f45535f4e4f545f60448201527f4d415443485f4d53475f56414c554500000000000000000000000000000000006064820152608401620007b4565b60009150620027f4565b73ffffffffffffffffffffffffffffffffffffffff808a1660009081526045602090815260409182902082518084019093525463ffffffff8116835264010000000090049092169181018290529015620025e1576040517f9dc29fac0000000000000000000000000000000000000000000000000000000081523360048201526024810188905273ffffffffffffffffffffffffffffffffffffffff8b1690639dc29fac906044016020604051808303816000875af1158015620025a8573d6000803e3d6000fd5b505050506040513d601f19601f82011682018060405250810190620025ce919062004069565b50602081015181519094509250620027f2565b8415620025f657620025f68a8888886200300c565b6200261a73ffffffffffffffffffffffffffffffffffffffff8b1633308a62003437565b899350604260009054906101000a900463ffffffff1692508973ffffffffffffffffffffffffffffffffffffffff166306fdde036040518163ffffffff1660e01b8152600401600060405180830381865afa1580156200267e573d6000803e3d6000fd5b505050506040513d6000823e601f3d9081017fffffffffffffffffffffffffffffffffffffffffffffffffffffffffffffffe0168201604052620026c6919081019062004106565b8a73ffffffffffffffffffffffffffffffffffffffff166395d89b416040518163ffffffff1660e01b8152600401600060405180830381865afa15801562002712573d6000803e3d6000fd5b505050506040513d6000823e601f3d9081017fffffffffffffffffffffffffffffffffffffffffffffffffffffffffffffffe01682016040526200275a919081019062004106565b8b73ffffffffffffffffffffffffffffffffffffffff1663313ce5676040518163ffffffff1660e01b8152600401602060405180830381865afa158015620027a6573d6000803e3d6000fd5b505050506040513d601f19601f82011682018060405250810190620027cc91906200413f565b604051602001620027e0939291906200415f565b60405160208183030381529060405291505b505b7f501781209a1f8899323b96b4ef08b168df93e0a90c673d1e4cce39366cb62f9b600083858b8b8b87604154604051620028369897969594939291906200408d565b60405180910390a18051602080830191909120604080516000818501527fffffffff0000000000000000000000000000000000000000000000000000000060e087811b821660218401527fffffffffffffffffffffffffffffffffffffffff00000000000000000000000060608a811b82166025860152918f901b90921660398401528c901b16603d820152605181018a90526071808201939093528151808203909301835260910190528051910120620028f19062002e93565b60465473ffffffffffffffffffffffffffffffffffffffff166333d6247d62002919620008c8565b6040518263ffffffff1660e01b81526004016200293891815260200190565b600060405180830381600087803b1580156200295357600080fd5b505af115801562002968573d6000803e3d6000fd5b50505050505050505050505050565b607a5473ffffffffffffffffffffffffffffffffffffffff16331462001273576040517f08c379a000000000000000000000000000000000000000000000000000000000815260206004820181905260248201527f4f776e61626c653a2063616c6c6572206973206e6f7420746865206f776e65726044820152606401620007b4565b607a805473ffffffffffffffffffffffffffffffffffffffff8381167fffffffffffffffffffffffff0000000000000000000000000000000000000000831681179093556040519116919082907f8be0079c531659141344cd1fd0a4f28419497f9722a3daafe3b4186f6b6457e090600090a35050565b60405173ffffffffffffffffffffffffffffffffffffffff831660248201526044810182905262001faf9084907fa9059cbb00000000000000000000000000000000000000000000000000000000906064015b604080517fffffffffffffffffffffffffffffffffffffffffffffffffffffffffffffffe08184030181529190526020810180517bffffffffffffffffffffffffffffffffffffffffffffffffffffffff167fffffffff00000000000000000000000000000000000000000000000000000000909316929092179091526200349d565b60006040517f3d602d80600a3d3981f3363d3d373d3d3d363d7300000000000000000000000081528360601b60148201527f5af43d82803e903d91602b57fd5bf300000000000000000000000000000000006028820152826037826000f591505073ffffffffffffffffffffffffffffffffffffffff811662000872576040517f08c379a000000000000000000000000000000000000000000000000000000000815260206004820152601760248201527f455243313136373a2063726561746532206661696c65640000000000000000006044820152606401620007b4565b600054610100900460ff1662002cc0576040517f08c379a000000000000000000000000000000000000000000000000000000000815260206004820152602b60248201527f496e697469616c697a61626c653a20636f6e7472616374206973206e6f74206960448201527f6e697469616c697a696e670000000000000000000000000000000000000000006064820152608401620007b4565b60005b62002cd1600160206200419c565b81101562002384576021816020811062002cef5762002cef62003d6e565b01546021826020811062002d075762002d0762003d6e565b015460408051602081019390935282015260600160405160208183030381529060405280519060200120602182600162002d429190620041b6565b6020811062002d555762002d5562003d6e565b01558062002d638162003e08565b91505062002cc3565b600054610100900460ff1662002e05576040517f08c379a000000000000000000000000000000000000000000000000000000000815260206004820152602b60248201527f496e697469616c697a61626c653a20636f6e7472616374206973206e6f74206960448201527f6e697469616c697a696e670000000000000000000000000000000000000000006064820152608401620007b4565b62001273620035b0565b600062002e8c8383306040517f3d602d80600a3d3981f3363d3d373d3d3d363d730000000000000000000000008152606093841b60148201527f5af43d82803e903d91602b57fd5bf3ff000000000000000000000000000000006028820152921b6038830152604c8201526037808220606c830152605591012090565b9392505050565b80600162002ea4602060026200430a565b62002eb091906200419c565b6041541062002f42576040517f08c379a000000000000000000000000000000000000000000000000000000000815260206004820152602a60248201527f4465706f736974436f6e74726163743a5f6465706f7369743a204d45524b4c4560448201527f5f545245455f46554c4c000000000000000000000000000000000000000000006064820152608401620007b4565b60016041600082825462002f579190620041b6565b909155505060415460005b602081101562003001578160011660010362002f9757826001826020811062002f8f5762002f8f62003d6e565b015550505050565b6001816020811062002fad5762002fad62003d6e565b0154604080516020810192909252810184905260600160405160208183030381529060405280519060200120925060028262002fea919062003dcc565b91508062002ff88162003e08565b91505062002f62565b5062001faf62004318565b60006200304f83838080601f0160208091040260200160405190810160405280939291908181526020018383808284376000920191909152506200365492505050565b90507fffffffff0000000000000000000000000000000000000000000000000000000081167fd505accf0000000000000000000000000000000000000000000000000000000014620030fe576040517f08c379a000000000000000000000000000000000000000000000000000000000815260206004820152601f60248201527f4272696467653a3a5f7065726d69743a204e4f545f56414c49445f43414c4c006044820152606401620007b4565b600080808080808062003115896004818d62004347565b81019062003124919062004373565b96509650965096509650965096503373ffffffffffffffffffffffffffffffffffffffff168773ffffffffffffffffffffffffffffffffffffffff1614620031ef576040517f08c379a000000000000000000000000000000000000000000000000000000000815260206004820152603060248201527f4272696467653a3a5f7065726d69743a205045524d49545f4f574e45525f4d5560448201527f53545f42455f5448455f53454e444552000000000000000000000000000000006064820152608401620007b4565b73ffffffffffffffffffffffffffffffffffffffff8616301462003296576040517f08c379a000000000000000000000000000000000000000000000000000000000815260206004820152602560248201527f4272696467653a3a5f7065726d69743a205350454e4445525f4d5553545f424560448201527f5f544849530000000000000000000000000000000000000000000000000000006064820152608401620007b4565b8a851462003327576040517f08c379a000000000000000000000000000000000000000000000000000000000815260206004820152602d60248201527f4272696467653a3a5f7065726d69743a205045524d49545f414d4f554e545f4460448201527f4f45535f4e4f545f4d41544348000000000000000000000000000000000000006064820152608401620007b4565b6040805173ffffffffffffffffffffffffffffffffffffffff89811660248301528881166044830152606482018890526084820187905260ff861660a483015260c4820185905260e48083018590528351808403909101815261010490920183526020820180517bffffffffffffffffffffffffffffffffffffffffffffffffffffffff167fd505accf000000000000000000000000000000000000000000000000000000001790529151918e1691620033e2919062003f1e565b6000604051808303816000865af19150503d806000811462003421576040519150601f19603f3d011682016040523d82523d6000602084013e62003426565b606091505b505050505050505050505050505050565b60405173ffffffffffffffffffffffffffffffffffffffff80851660248301528316604482015260648101829052620034979085907f23b872dd000000000000000000000000000000000000000000000000000000009060840162002ac4565b50505050565b600062003501826040518060400160405280602081526020017f5361666545524332303a206c6f772d6c6576656c2063616c6c206661696c65648152508573ffffffffffffffffffffffffffffffffffffffff166200365b9092919063ffffffff16565b80519091501562001faf578080602001905181019062003522919062004069565b62001faf576040517f08c379a000000000000000000000000000000000000000000000000000000000815260206004820152602a60248201527f5361666545524332303a204552433230206f7065726174696f6e20646964206e60448201527f6f742073756363656564000000000000000000000000000000000000000000006064820152608401620007b4565b600054610100900460ff1662003649576040517f08c379a000000000000000000000000000000000000000000000000000000000815260206004820152602b60248201527f496e697469616c697a61626c653a20636f6e7472616374206973206e6f74206960448201527f6e697469616c697a696e670000000000000000000000000000000000000000006064820152608401620007b4565b6200127333620029fa565b6020015190565b60606200207584846000858573ffffffffffffffffffffffffffffffffffffffff85163b620036e7576040517f08c379a000000000000000000000000000000000000000000000000000000000815260206004820152601d60248201527f416464726573733a2063616c6c20746f206e6f6e2d636f6e74726163740000006044820152606401620007b4565b6000808673ffffffffffffffffffffffffffffffffffffffff16858760405162003712919062003f1e565b60006040518083038185875af1925050503d806000811462003751576040519150601f19603f3d011682016040523d82523d6000602084013e62003756565b606091505b50915091506200376882828662003773565b979650505050505050565b606083156200378457508162002e8c565b825115620037955782518084602001fd5b816040517f08c379a0000000000000000000000000000000000000000000000000000000008152600401620007b49190620043ce565b61182980620043e483390190565b73ffffffffffffffffffffffffffffffffffffffff811681146200238457600080fd5b80356200380981620037d9565b919050565b803563ffffffff811681146200380957600080fd5b60008060008060008060a087890312156200383d57600080fd5b86356200384a81620037d9565b95506200385a602088016200380e565b945060408701356200386c81620037d9565b935060608701359250608087013567ffffffffffffffff808211156200389157600080fd5b818901915089601f830112620038a657600080fd5b813581811115620038b657600080fd5b8a6020828501011115620038c957600080fd5b6020830194508093505050509295509295509295565b60008060408385031215620038f357600080fd5b620038fe836200380e565b915060208301356200391081620037d9565b809150509250929050565b6000602082840312156200392e57600080fd5b5035919050565b6000602082840312156200394857600080fd5b62002e8c826200380e565b6000602082840312156200396657600080fd5b813562002e8c81620037d9565b7f4e487b7100000000000000000000000000000000000000000000000000000000600052604160045260246000fd5b604051601f82017fffffffffffffffffffffffffffffffffffffffffffffffffffffffffffffffe016810167ffffffffffffffff81118282101715620039ec57620039ec62003973565b604052919050565b600082601f83011262003a0657600080fd5b8135602067ffffffffffffffff82111562003a255762003a2562003973565b8160051b62003a36828201620039a2565b928352848101820192828101908785111562003a5157600080fd5b83870192505b84831015620037685782358252918301919083019062003a57565b6000806000806080858703121562003a8957600080fd5b84359350602085013567ffffffffffffffff8082111562003aa957600080fd5b62003ab788838901620039f4565b945060408701359150808216821462003acf57600080fd5b509396929550929360600135925050565b60ff811681146200238457600080fd5b600080600080600080600060e0888a03121562003b0c57600080fd5b873562003b198162003ae0565b965062003b29602089016200380e565b9550604088013562003b3b81620037d9565b945062003b4b606089016200380e565b9350608088013562003b5d81620037d9565b9699959850939692959460a0840135945060c09093013592915050565b600067ffffffffffffffff82111562003b975762003b9762003973565b50601f017fffffffffffffffffffffffffffffffffffffffffffffffffffffffffffffffe01660200190565b600082601f83011262003bd557600080fd5b813562003bec62003be68262003b7a565b620039a2565b81815284602083860101111562003c0257600080fd5b816020850160208301376000918101602001919091529392505050565b6000806000806000806000806000806101408b8d03121562003c4057600080fd5b8a3567ffffffffffffffff8082111562003c5957600080fd5b62003c678e838f01620039f4565b9b5062003c7760208e016200380e565b9a5060408d0135995060608d0135985062003c9560808e016200380e565b975062003ca560a08e01620037fc565b965062003cb560c08e016200380e565b955062003cc560e08e01620037fc565b94506101008d013593506101208d013591508082111562003ce557600080fd5b5062003cf48d828e0162003bc3565b9150509295989b9194979a5092959850565b60008060006060848603121562003d1c57600080fd5b62003d27846200380e565b9250602084013562003d3981620037d9565b9150604084013567ffffffffffffffff81111562003d5657600080fd5b62003d648682870162003bc3565b9150509250925092565b7f4e487b7100000000000000000000000000000000000000000000000000000000600052603260045260246000fd5b7f4e487b7100000000000000000000000000000000000000000000000000000000600052601160045260246000fd5b60008262003e03577f4e487b7100000000000000000000000000000000000000000000000000000000600052601260045260246000fd5b500490565b60007fffffffffffffffffffffffffffffffffffffffffffffffffffffffffffffffff820362003e3c5762003e3c62003d9d565b5060010190565b60006020828403121562003e5657600080fd5b5051919050565b60005b8381101562003e7a57818101518382015260200162003e60565b83811115620034975750506000910152565b6000815180845262003ea681602086016020860162003e5d565b601f017fffffffffffffffffffffffffffffffffffffffffffffffffffffffffffffffe0169290920160200192915050565b73ffffffffffffffffffffffffffffffffffffffff8416815263ffffffff8316602082015260606040820152600062003f15606083018462003e8c565b95945050505050565b6000825162003f3281846020870162003e5d565b9190910192915050565b600082601f83011262003f4e57600080fd5b815162003f5f62003be68262003b7a565b81815284602083860101111562003f7557600080fd5b6200207582602083016020870162003e5d565b60008060006060848603121562003f9e57600080fd5b835167ffffffffffffffff8082111562003fb757600080fd5b62003fc58783880162003f3c565b9450602086015191508082111562003fdc57600080fd5b5062003feb8682870162003f3c565b925050604084015162003ffe8162003ae0565b809150509250925092565b60a0815260006200401e60a083018862003e8c565b828103602084015262004032818862003e8c565b60ff969096166040840152505073ffffffffffffffffffffffffffffffffffffffff92909216606083015260809091015292915050565b6000602082840312156200407c57600080fd5b8151801515811462002e8c57600080fd5b600061010060ff8b16835263ffffffff808b16602085015273ffffffffffffffffffffffffffffffffffffffff808b166040860152818a1660608601528089166080860152508660a08501528160c0850152620040ed8285018762003e8c565b925080851660e085015250509998505050505050505050565b6000602082840312156200411957600080fd5b815167ffffffffffffffff8111156200413157600080fd5b620020758482850162003f3c565b6000602082840312156200415257600080fd5b815162002e8c8162003ae0565b60608152600062004174606083018662003e8c565b828103602084015262004188818662003e8c565b91505060ff83166040830152949350505050565b600082821015620041b157620041b162003d9d565b500390565b60008219821115620041cc57620041cc62003d9d565b500190565b600181815b808511156200423057817fffffffffffffffffffffffffffffffffffffffffffffffffffffffffffffffff0482111562004214576200421462003d9d565b808516156200422257918102915b93841c9390800290620041d6565b509250929050565b600082620042495750600162000872565b81620042585750600062000872565b81600181146200427157600281146200427c576200429c565b600191505062000872565b60ff84111562004290576200429062003d9d565b50506001821b62000872565b5060208310610133831016604e8410600b8410161715620042c1575081810a62000872565b620042cd8383620041d1565b807fffffffffffffffffffffffffffffffffffffffffffffffffffffffffffffffff0482111562004302576200430262003d9d565b029392505050565b600062002e8c838362004238565b7f4e487b7100000000000000000000000000000000000000000000000000000000600052600160045260246000fd5b600080858511156200435857600080fd5b838611156200436657600080fd5b5050820193919092039150565b600080600080600080600060e0888a0312156200438f57600080fd5b87356200439c81620037d9565b96506020880135620043ae81620037d9565b95506040880135945060608801359350608088013562003b5d8162003ae0565b60208152600062002e8c602083018462003e8c56fe60806040523480156200001157600080fd5b50600054610100900460ff1615808015620000335750600054600160ff909116105b8062000063575062000050306200013d60201b6200080a1760201c565b15801562000063575060005460ff166001145b620000cb5760405162461bcd60e51b815260206004820152602e60248201527f496e697469616c697a61626c653a20636f6e747261637420697320616c72656160448201526d191e481a5b9a5d1a585b1a5e995960921b606482015260840160405180910390fd5b6000805460ff191660011790558015620000ef576000805461ff0019166101001790555b801562000136576000805461ff0019169055604051600181527f7f26b83ff96e1f2b6a682f133852f6798a09c465da95921460cefb38474024989060200160405180910390a15b506200014c565b6001600160a01b03163b151590565b6116cd806200015c6000396000f3fe608060405234801561001057600080fd5b50600436106100f55760003560e01c80636c94522111610097578063a3c573eb11610066578063a3c573eb1461021c578063a457c2d714610261578063a9059cbb14610274578063dd62ed3e1461028757600080fd5b80636c945221146101b657806370a08231146101cb57806395d89b41146102015780639dc29fac1461020957600080fd5b806323b872dd116100d357806323b872dd1461014d578063313ce56714610160578063395093511461019057806340c10f19146101a357600080fd5b806306fdde03146100fa578063095ea7b31461011857806318160ddd1461013b575b600080fd5b6101026102cd565b60405161010f91906111c0565b60405180910390f35b61012b61012636600461125c565b61035f565b604051901515815260200161010f565b6035545b60405190815260200161010f565b61012b61015b366004611286565b610377565b60655474010000000000000000000000000000000000000000900460ff1660405160ff909116815260200161010f565b61012b61019e36600461125c565b61039b565b61012b6101b136600461125c565b6103e7565b6101c96101c436600461139c565b610483565b005b61013f6101d9366004611431565b73ffffffffffffffffffffffffffffffffffffffff1660009081526033602052604090205490565b61010261068e565b61012b61021736600461125c565b61069d565b60655461023c9073ffffffffffffffffffffffffffffffffffffffff1681565b60405173ffffffffffffffffffffffffffffffffffffffff909116815260200161010f565b61012b61026f36600461125c565b61072b565b61012b61028236600461125c565b6107fc565b61013f610295366004611453565b73ffffffffffffffffffffffffffffffffffffffff918216600090815260346020908152604080832093909416825291909152205490565b6060603680546102dc90611486565b80601f016020809104026020016040519081016040528092919081815260200182805461030890611486565b80156103555780601f1061032a57610100808354040283529160200191610355565b820191906000526020600020905b81548152906001019060200180831161033857829003601f168201915b5050505050905090565b60003361036d818585610826565b5060019392505050565b6000336103858582856109da565b610390858585610ab1565b506001949350505050565b33600081815260346020908152604080832073ffffffffffffffffffffffffffffffffffffffff8716845290915281205490919061036d90829086906103e2908790611508565b610826565b60655460009073ffffffffffffffffffffffffffffffffffffffff163314610470576040517f08c379a000000000000000000000000000000000000000000000000000000000815260206004820152601760248201527f546f6b656e577261707065643a4e4f545f42524944474500000000000000000060448201526064015b60405180910390fd5b61047a8383610d64565b50600192915050565b600054610100900460ff16158080156104a35750600054600160ff909116105b806104bd5750303b1580156104bd575060005460ff166001145b610549576040517f08c379a000000000000000000000000000000000000000000000000000000000815260206004820152602e60248201527f496e697469616c697a61626c653a20636f6e747261637420697320616c72656160448201527f647920696e697469616c697a65640000000000000000000000000000000000006064820152608401610467565b600080547fffffffffffffffffffffffffffffffffffffffffffffffffffffffffffffff0016600117905580156105a757600080547fffffffffffffffffffffffffffffffffffffffffffffffffffffffffffff00ff166101001790555b6105b18686610e85565b606580547fffffffffffffffffffffff00000000000000000000000000000000000000000016337fffffffffffffffffffffff00ffffffffffffffffffffffffffffffffffffffff16177401000000000000000000000000000000000000000060ff8716021790556106238383610d64565b801561068657600080547fffffffffffffffffffffffffffffffffffffffffffffffffffffffffffff00ff169055604051600181527f7f26b83ff96e1f2b6a682f133852f6798a09c465da95921460cefb38474024989060200160405180910390a15b505050505050565b6060603780546102dc90611486565b60655460009073ffffffffffffffffffffffffffffffffffffffff163314610721576040517f08c379a000000000000000000000000000000000000000000000000000000000815260206004820152601760248201527f546f6b656e577261707065643a4e4f545f4252494447450000000000000000006044820152606401610467565b61047a8383610f26565b33600081815260346020908152604080832073ffffffffffffffffffffffffffffffffffffffff87168452909152812054909190838110156107ef576040517f08c379a000000000000000000000000000000000000000000000000000000000815260206004820152602560248201527f45524332303a2064656372656173656420616c6c6f77616e63652062656c6f7760448201527f207a65726f0000000000000000000000000000000000000000000000000000006064820152608401610467565b6103908286868403610826565b60003361036d818585610ab1565b73ffffffffffffffffffffffffffffffffffffffff163b151590565b73ffffffffffffffffffffffffffffffffffffffff83166108c8576040517f08c379a0000000000000000000000000000000000000000000000000000000008152602060048201526024808201527f45524332303a20617070726f76652066726f6d20746865207a65726f2061646460448201527f72657373000000000000000000000000000000000000000000000000000000006064820152608401610467565b73ffffffffffffffffffffffffffffffffffffffff821661096b576040517f08c379a000000000000000000000000000000000000000000000000000000000815260206004820152602260248201527f45524332303a20617070726f766520746f20746865207a65726f20616464726560448201527f73730000000000000000000000000000000000000000000000000000000000006064820152608401610467565b73ffffffffffffffffffffffffffffffffffffffff83811660008181526034602090815260408083209487168084529482529182902085905590518481527f8c5be1e5ebec7d5bd14f71427d1e84f3dd0314c0f7b2291e5b200ac8c7c3b92591015b60405180910390a3505050565b73ffffffffffffffffffffffffffffffffffffffff8381166000908152603460209081526040808320938616835292905220547fffffffffffffffffffffffffffffffffffffffffffffffffffffffffffffffff8114610aab5781811015610a9e576040517f08c379a000000000000000000000000000000000000000000000000000000000815260206004820152601d60248201527f45524332303a20696e73756666696369656e7420616c6c6f77616e63650000006044820152606401610467565b610aab8484848403610826565b50505050565b73ffffffffffffffffffffffffffffffffffffffff8316610b54576040517f08c379a000000000000000000000000000000000000000000000000000000000815260206004820152602560248201527f45524332303a207472616e736665722066726f6d20746865207a65726f20616460448201527f64726573730000000000000000000000000000000000000000000000000000006064820152608401610467565b73ffffffffffffffffffffffffffffffffffffffff8216610bf7576040517f08c379a000000000000000000000000000000000000000000000000000000000815260206004820152602360248201527f45524332303a207472616e7366657220746f20746865207a65726f206164647260448201527f65737300000000000000000000000000000000000000000000000000000000006064820152608401610467565b73ffffffffffffffffffffffffffffffffffffffff831660009081526033602052604090205481811015610cad576040517f08c379a000000000000000000000000000000000000000000000000000000000815260206004820152602660248201527f45524332303a207472616e7366657220616d6f756e742065786365656473206260448201527f616c616e636500000000000000000000000000000000000000000000000000006064820152608401610467565b73ffffffffffffffffffffffffffffffffffffffff808516600090815260336020526040808220858503905591851681529081208054849290610cf1908490611508565b925050819055508273ffffffffffffffffffffffffffffffffffffffff168473ffffffffffffffffffffffffffffffffffffffff167fddf252ad1be2c89b69c2b068fc378daa952ba7f163c4a11628f55a4df523b3ef84604051610d5791815260200190565b60405180910390a3610aab565b73ffffffffffffffffffffffffffffffffffffffff8216610de1576040517f08c379a000000000000000000000000000000000000000000000000000000000815260206004820152601f60248201527f45524332303a206d696e7420746f20746865207a65726f2061646472657373006044820152606401610467565b8060356000828254610df39190611508565b909155505073ffffffffffffffffffffffffffffffffffffffff821660009081526033602052604081208054839290610e2d908490611508565b909155505060405181815273ffffffffffffffffffffffffffffffffffffffff8316906000907fddf252ad1be2c89b69c2b068fc378daa952ba7f163c4a11628f55a4df523b3ef9060200160405180910390a35b5050565b600054610100900460ff16610f1c576040517f08c379a000000000000000000000000000000000000000000000000000000000815260206004820152602b60248201527f496e697469616c697a61626c653a20636f6e7472616374206973206e6f74206960448201527f6e697469616c697a696e670000000000000000000000000000000000000000006064820152608401610467565b610e818282611110565b73ffffffffffffffffffffffffffffffffffffffff8216610fc9576040517f08c379a000000000000000000000000000000000000000000000000000000000815260206004820152602160248201527f45524332303a206275726e2066726f6d20746865207a65726f2061646472657360448201527f73000000000000000000000000000000000000000000000000000000000000006064820152608401610467565b73ffffffffffffffffffffffffffffffffffffffff82166000908152603360205260409020548181101561107f576040517f08c379a000000000000000000000000000000000000000000000000000000000815260206004820152602260248201527f45524332303a206275726e20616d6f756e7420657863656564732062616c616e60448201527f63650000000000000000000000000000000000000000000000000000000000006064820152608401610467565b73ffffffffffffffffffffffffffffffffffffffff831660009081526033602052604081208383039055603580548492906110bb908490611520565b909155505060405182815260009073ffffffffffffffffffffffffffffffffffffffff8516907fddf252ad1be2c89b69c2b068fc378daa952ba7f163c4a11628f55a4df523b3ef906020016109cd565b505050565b600054610100900460ff166111a7576040517f08c379a000000000000000000000000000000000000000000000000000000000815260206004820152602b60248201527f496e697469616c697a61626c653a20636f6e7472616374206973206e6f74206960448201527f6e697469616c697a696e670000000000000000000000000000000000000000006064820152608401610467565b60366111b3838261157d565b50603761110b828261157d565b600060208083528351808285015260005b818110156111ed578581018301518582016040015282016111d1565b818111156111ff576000604083870101525b50601f017fffffffffffffffffffffffffffffffffffffffffffffffffffffffffffffffe016929092016040019392505050565b803573ffffffffffffffffffffffffffffffffffffffff8116811461125757600080fd5b919050565b6000806040838503121561126f57600080fd5b61127883611233565b946020939093013593505050565b60008060006060848603121561129b57600080fd5b6112a484611233565b92506112b260208501611233565b9150604084013590509250925092565b7f4e487b7100000000000000000000000000000000000000000000000000000000600052604160045260246000fd5b600082601f83011261130257600080fd5b813567ffffffffffffffff8082111561131d5761131d6112c2565b604051601f83017fffffffffffffffffffffffffffffffffffffffffffffffffffffffffffffffe0908116603f01168101908282118183101715611363576113636112c2565b8160405283815286602085880101111561137c57600080fd5b836020870160208301376000602085830101528094505050505092915050565b600080600080600060a086880312156113b457600080fd5b853567ffffffffffffffff808211156113cc57600080fd5b6113d889838a016112f1565b965060208801359150808211156113ee57600080fd5b506113fb888289016112f1565b945050604086013560ff8116811461141257600080fd5b925061142060608701611233565b949793965091946080013592915050565b60006020828403121561144357600080fd5b61144c82611233565b9392505050565b6000806040838503121561146657600080fd5b61146f83611233565b915061147d60208401611233565b90509250929050565b600181811c9082168061149a57607f821691505b6020821081036114d3577f4e487b7100000000000000000000000000000000000000000000000000000000600052602260045260246000fd5b50919050565b7f4e487b7100000000000000000000000000000000000000000000000000000000600052601160045260246000fd5b6000821982111561151b5761151b6114d9565b500190565b600082821015611532576115326114d9565b500390565b601f82111561110b57600081815260208120601f850160051c8101602086101561155e5750805b601f850160051c820191505b818110156106865782815560010161156a565b815167ffffffffffffffff811115611597576115976112c2565b6115ab816115a58454611486565b84611537565b602080601f8311600181146115fe57600084156115c85750858301515b7fffffffffffffffffffffffffffffffffffffffffffffffffffffffffffffffff600386901b1c1916600185901b178555610686565b6000858152602081207fffffffffffffffffffffffffffffffffffffffffffffffffffffffffffffffe08616915b8281101561164b5788860151825594840194600190910190840161162c565b508582101561168757878501517fffffffffffffffffffffffffffffffffffffffffffffffffffffffffffffffff600388901b60f8161c191681555b5050505050600190811b0190555056fea264697066735822122015dd8047eba7f7221e0d7792549e5a01ba1b6dfaad0c6a70dc82ef386e0c5cc464736f6c634300080f0033a26469706673582212202df0b88d99ea837cef4ce1ae938f90df917823197383f2babdee37a8bec9b78364736f6c634300080f0033",
  "linkReferences": {},
  "deployedLinkReferences": {}
}