{
  "_format": "hh-sol-artifact-1",
  "contractName": "BridgeMock",
  "sourceName": "contracts/mocks/BridgeMock.sol",
  "abi": [
    {
      "anonymous": false,
      "inputs": [
        {
          "indexed": false,
          "internalType": "uint8",
          "name": "leafType",
          "type": "uint8"
        },
        {
          "indexed": false,
          "internalType": "uint32",
          "name": "originNetwork",
          "type": "uint32"
        },
        {
          "indexed": false,
          "internalType": "address",
          "name": "originAddress",
          "type": "address"
        },
        {
          "indexed": false,
          "internalType": "uint32",
          "name": "destinationNetwork",
          "type": "uint32"
        },
        {
          "indexed": false,
          "internalType": "address",
          "name": "destinationAddress",
          "type": "address"
        },
        {
          "indexed": false,
          "internalType": "uint256",
          "name": "amount",
          "type": "uint256"
        },
        {
          "indexed": false,
          "internalType": "bytes",
          "name": "metadata",
          "type": "bytes"
        },
        {
          "indexed": false,
          "internalType": "uint32",
          "name": "depositCount",
          "type": "uint32"
        }
      ],
      "name": "BridgeEvent",
      "type": "event"
    },
    {
      "anonymous": false,
      "inputs": [
        {
          "indexed": false,
          "internalType": "uint32",
          "name": "index",
          "type": "uint32"
        },
        {
          "indexed": false,
          "internalType": "uint32",
          "name": "originNetwork",
          "type": "uint32"
        },
        {
          "indexed": false,
          "internalType": "address",
          "name": "originAddress",
          "type": "address"
        },
        {
          "indexed": false,
          "internalType": "address",
          "name": "destinationAddress",
          "type": "address"
        },
        {
          "indexed": false,
          "internalType": "uint256",
          "name": "amount",
          "type": "uint256"
        }
      ],
      "name": "ClaimEvent",
      "type": "event"
    },
    {
      "anonymous": false,
      "inputs": [],
      "name": "EmergencyStateActivated",
      "type": "event"
    },
    {
      "anonymous": false,
      "inputs": [],
      "name": "EmergencyStateDeactivated",
      "type": "event"
    },
    {
      "anonymous": false,
      "inputs": [
        {
          "indexed": false,
          "internalType": "uint8",
          "name": "version",
          "type": "uint8"
        }
      ],
      "name": "Initialized",
      "type": "event"
    },
    {
      "anonymous": false,
      "inputs": [
        {
          "indexed": false,
          "internalType": "uint32",
          "name": "originNetwork",
          "type": "uint32"
        },
        {
          "indexed": false,
          "internalType": "address",
          "name": "originTokenAddress",
          "type": "address"
        },
        {
          "indexed": false,
          "internalType": "address",
          "name": "wrappedTokenAddress",
          "type": "address"
        }
      ],
      "name": "NewWrappedToken",
      "type": "event"
    },
    {
      "anonymous": false,
      "inputs": [
        {
          "indexed": true,
          "internalType": "address",
          "name": "previousOwner",
          "type": "address"
        },
        {
          "indexed": true,
          "internalType": "address",
          "name": "newOwner",
          "type": "address"
        }
      ],
      "name": "OwnershipTransferred",
      "type": "event"
    },
    {
      "anonymous": false,
      "inputs": [
        {
          "indexed": false,
          "internalType": "uint256",
          "name": "newClaimTimeout",
          "type": "uint256"
        }
      ],
      "name": "SetClaimTimeout",
      "type": "event"
    },
    {
      "inputs": [],
      "name": "LEAF_TYPE_ASSET",
      "outputs": [
        {
          "internalType": "uint8",
          "name": "",
          "type": "uint8"
        }
      ],
      "stateMutability": "view",
      "type": "function"
    },
    {
      "inputs": [],
      "name": "LEAF_TYPE_MESSAGE",
      "outputs": [
        {
          "internalType": "uint8",
          "name": "",
          "type": "uint8"
        }
      ],
      "stateMutability": "view",
      "type": "function"
    },
    {
      "inputs": [],
      "name": "MAINNET_NETWORK_ID",
      "outputs": [
        {
          "internalType": "uint32",
          "name": "",
          "type": "uint32"
        }
      ],
      "stateMutability": "view",
      "type": "function"
    },
    {
      "inputs": [],
      "name": "activateEmergencyState",
      "outputs": [],
      "stateMutability": "nonpayable",
      "type": "function"
    },
    {
      "inputs": [
        {
          "internalType": "address",
          "name": "token",
          "type": "address"
        },
        {
          "internalType": "uint32",
          "name": "destinationNetwork",
          "type": "uint32"
        },
        {
          "internalType": "address",
          "name": "destinationAddress",
          "type": "address"
        },
        {
          "internalType": "uint256",
          "name": "amount",
          "type": "uint256"
        },
        {
          "internalType": "bytes",
          "name": "permitData",
          "type": "bytes"
        }
      ],
      "name": "bridgeAsset",
      "outputs": [],
      "stateMutability": "payable",
      "type": "function"
    },
    {
      "inputs": [
        {
          "internalType": "uint32",
          "name": "destinationNetwork",
          "type": "uint32"
        },
        {
          "internalType": "address",
          "name": "destinationAddress",
          "type": "address"
        },
        {
          "internalType": "bytes",
          "name": "metadata",
          "type": "bytes"
        }
      ],
      "name": "bridgeMessage",
      "outputs": [],
      "stateMutability": "payable",
      "type": "function"
    },
    {
      "inputs": [
        {
          "internalType": "bytes32[]",
          "name": "smtProof",
          "type": "bytes32[]"
        },
        {
          "internalType": "uint32",
          "name": "index",
          "type": "uint32"
        },
        {
          "internalType": "bytes32",
          "name": "mainnetExitRoot",
          "type": "bytes32"
        },
        {
          "internalType": "bytes32",
          "name": "rollupExitRoot",
          "type": "bytes32"
        },
        {
          "internalType": "uint32",
          "name": "originNetwork",
          "type": "uint32"
        },
        {
          "internalType": "address",
          "name": "originTokenAddress",
          "type": "address"
        },
        {
          "internalType": "uint32",
          "name": "destinationNetwork",
          "type": "uint32"
        },
        {
          "internalType": "address",
          "name": "destinationAddress",
          "type": "address"
        },
        {
          "internalType": "uint256",
          "name": "amount",
          "type": "uint256"
        },
        {
          "internalType": "bytes",
          "name": "metadata",
          "type": "bytes"
        }
      ],
      "name": "claimAsset",
      "outputs": [],
      "stateMutability": "nonpayable",
      "type": "function"
    },
    {
      "inputs": [
        {
          "internalType": "bytes32[]",
          "name": "smtProof",
          "type": "bytes32[]"
        },
        {
          "internalType": "uint32",
          "name": "index",
          "type": "uint32"
        },
        {
          "internalType": "bytes32",
          "name": "mainnetExitRoot",
          "type": "bytes32"
        },
        {
          "internalType": "bytes32",
          "name": "rollupExitRoot",
          "type": "bytes32"
        },
        {
          "internalType": "uint32",
          "name": "originNetwork",
          "type": "uint32"
        },
        {
          "internalType": "address",
          "name": "originAddress",
          "type": "address"
        },
        {
          "internalType": "uint32",
          "name": "destinationNetwork",
          "type": "uint32"
        },
        {
          "internalType": "address",
          "name": "destinationAddress",
          "type": "address"
        },
        {
          "internalType": "uint256",
          "name": "amount",
          "type": "uint256"
        },
        {
          "internalType": "bytes",
          "name": "metadata",
          "type": "bytes"
        }
      ],
      "name": "claimMessage",
      "outputs": [],
      "stateMutability": "nonpayable",
      "type": "function"
    },
    {
      "inputs": [
        {
          "internalType": "uint256",
          "name": "",
          "type": "uint256"
        }
      ],
      "name": "claimNullifier",
      "outputs": [
        {
          "internalType": "bool",
          "name": "",
          "type": "bool"
        }
      ],
      "stateMutability": "view",
      "type": "function"
    },
    {
      "inputs": [],
      "name": "claimTimeout",
      "outputs": [
        {
          "internalType": "uint256",
          "name": "",
          "type": "uint256"
        }
      ],
      "stateMutability": "view",
      "type": "function"
    },
    {
      "inputs": [],
      "name": "deactivateEmergencyState",
      "outputs": [],
      "stateMutability": "nonpayable",
      "type": "function"
    },
    {
      "inputs": [],
      "name": "depositCount",
      "outputs": [
        {
          "internalType": "uint256",
          "name": "",
          "type": "uint256"
        }
      ],
      "stateMutability": "view",
      "type": "function"
    },
    {
      "inputs": [],
      "name": "getDepositRoot",
      "outputs": [
        {
          "internalType": "bytes32",
          "name": "",
          "type": "bytes32"
        }
      ],
      "stateMutability": "view",
      "type": "function"
    },
    {
      "inputs": [
        {
          "internalType": "uint8",
          "name": "leafType",
          "type": "uint8"
        },
        {
          "internalType": "uint32",
          "name": "originNetwork",
          "type": "uint32"
        },
        {
          "internalType": "address",
          "name": "originAddress",
          "type": "address"
        },
        {
          "internalType": "uint32",
          "name": "destinationNetwork",
          "type": "uint32"
        },
        {
          "internalType": "address",
          "name": "destinationAddress",
          "type": "address"
        },
        {
          "internalType": "uint256",
          "name": "amount",
          "type": "uint256"
        },
        {
          "internalType": "bytes32",
          "name": "metadataHash",
          "type": "bytes32"
        }
      ],
      "name": "getLeafValue",
      "outputs": [
        {
          "internalType": "bytes32",
          "name": "",
          "type": "bytes32"
        }
      ],
      "stateMutability": "pure",
      "type": "function"
    },
    {
      "inputs": [
        {
          "internalType": "uint32",
          "name": "originNetwork",
          "type": "uint32"
        },
        {
          "internalType": "address",
          "name": "originTokenAddress",
          "type": "address"
        }
      ],
      "name": "getTokenWrappedAddress",
      "outputs": [
        {
          "internalType": "address",
          "name": "",
          "type": "address"
        }
      ],
      "stateMutability": "view",
      "type": "function"
    },
    {
      "inputs": [],
      "name": "globalExitRootManager",
      "outputs": [
        {
          "internalType": "contract IGlobalExitRootManager",
          "name": "",
          "type": "address"
        }
      ],
      "stateMutability": "view",
      "type": "function"
    },
    {
      "inputs": [
        {
          "internalType": "uint32",
          "name": "_networkID",
          "type": "uint32"
        },
        {
          "internalType": "contract IGlobalExitRootManager",
          "name": "_globalExitRootManager",
          "type": "address"
        },
        {
          "internalType": "address",
          "name": "_poeAddress",
          "type": "address"
        },
        {
          "internalType": "uint256",
          "name": "_claimTimeout",
          "type": "uint256"
        }
      ],
      "name": "initialize",
      "outputs": [],
      "stateMutability": "nonpayable",
      "type": "function"
    },
    {
      "inputs": [],
      "name": "isEmergencyState",
      "outputs": [
        {
          "internalType": "bool",
          "name": "",
          "type": "bool"
        }
      ],
      "stateMutability": "view",
      "type": "function"
    },
    {
      "inputs": [],
      "name": "maxEtherBridge",
      "outputs": [
        {
          "internalType": "uint256",
          "name": "",
          "type": "uint256"
        }
      ],
      "stateMutability": "view",
      "type": "function"
    },
    {
      "inputs": [],
      "name": "networkID",
      "outputs": [
        {
          "internalType": "uint32",
          "name": "",
          "type": "uint32"
        }
      ],
      "stateMutability": "view",
      "type": "function"
    },
    {
      "inputs": [],
      "name": "owner",
      "outputs": [
        {
          "internalType": "address",
          "name": "",
          "type": "address"
        }
      ],
      "stateMutability": "view",
      "type": "function"
    },
    {
      "inputs": [],
      "name": "poeAddress",
      "outputs": [
        {
          "internalType": "address",
          "name": "",
          "type": "address"
        }
      ],
      "stateMutability": "view",
      "type": "function"
    },
    {
      "inputs": [
        {
          "internalType": "uint32",
          "name": "originNetwork",
          "type": "uint32"
        },
        {
          "internalType": "address",
          "name": "originTokenAddress",
          "type": "address"
        },
        {
          "internalType": "string",
          "name": "name",
          "type": "string"
        },
        {
          "internalType": "string",
          "name": "symbol",
          "type": "string"
        },
        {
          "internalType": "uint8",
          "name": "decimals",
          "type": "uint8"
        }
      ],
      "name": "precalculatedWrapperAddress",
      "outputs": [
        {
          "internalType": "address",
          "name": "",
          "type": "address"
        }
      ],
      "stateMutability": "view",
      "type": "function"
    },
    {
      "inputs": [],
      "name": "renounceOwnership",
      "outputs": [],
      "stateMutability": "nonpayable",
      "type": "function"
    },
    {
      "inputs": [
        {
          "internalType": "uint256",
          "name": "newClaimTimeout",
          "type": "uint256"
        }
      ],
      "name": "setClaimTimeout",
      "outputs": [],
      "stateMutability": "nonpayable",
      "type": "function"
    },
    {
      "inputs": [
        {
          "internalType": "uint256",
          "name": "_maxEtherBridge",
          "type": "uint256"
        }
      ],
      "name": "setMaxEtherBridge",
      "outputs": [],
      "stateMutability": "nonpayable",
      "type": "function"
    },
    {
      "inputs": [
        {
          "internalType": "uint32",
          "name": "_networkID",
          "type": "uint32"
        }
      ],
      "name": "setNetworkID",
      "outputs": [],
      "stateMutability": "nonpayable",
      "type": "function"
    },
    {
      "inputs": [
        {
          "internalType": "bytes32",
          "name": "",
          "type": "bytes32"
        }
      ],
      "name": "tokenInfoToWrappedToken",
      "outputs": [
        {
          "internalType": "address",
          "name": "",
          "type": "address"
        }
      ],
      "stateMutability": "view",
      "type": "function"
    },
    {
      "inputs": [
        {
          "internalType": "address",
          "name": "newOwner",
          "type": "address"
        }
      ],
      "name": "transferOwnership",
      "outputs": [],
      "stateMutability": "nonpayable",
      "type": "function"
    },
    {
      "inputs": [
        {
          "internalType": "bytes32",
          "name": "leafHash",
          "type": "bytes32"
        },
        {
          "internalType": "bytes32[]",
          "name": "smtProof",
          "type": "bytes32[]"
        },
        {
          "internalType": "uint64",
          "name": "index",
          "type": "uint64"
        },
        {
          "internalType": "bytes32",
          "name": "root",
          "type": "bytes32"
        }
      ],
      "name": "verifyMerkleProof",
      "outputs": [
        {
          "internalType": "bool",
          "name": "",
          "type": "bool"
        }
      ],
      "stateMutability": "pure",
      "type": "function"
    },
    {
      "inputs": [
        {
          "internalType": "address",
          "name": "",
          "type": "address"
        }
      ],
      "name": "wrappedTokenToTokenInfo",
      "outputs": [
        {
          "internalType": "uint32",
          "name": "originNetwork",
          "type": "uint32"
        },
        {
          "internalType": "address",
          "name": "originTokenAddress",
          "type": "address"
        }
      ],
      "stateMutability": "view",
      "type": "function"
    }
  ],
  "bytecode": "0x608060405234801561001057600080fd5b50615a02806100206000396000f3fe608060405260043610620001ff5760003560e01c80637b6323c11162000117578063d02103ca11620000a1578063e7a5b4ea116200006c578063e7a5b4ea14620006de578063ed6be5c91462000703578063f2fde38b146200071a578063ff634ed7146200073f57600080fd5b8063d02103ca1462000659578063d96a15f7146200067b578063dbc169761462000692578063e737588114620006aa57600080fd5b806391e57e2d11620000e257806391e57e2d14620005bd578063a08e8a0814620005d5578063aaa13cc214620005ff578063bab161bf146200062457600080fd5b80637b6323c1146200051c57806381b1c17414620005415780638da5cb5b146200057b5780638f611519146200059b57600080fd5b80632dfdf0b511620001995780633e19704311620001645780633e19704314620003d95780634638554914620004ba5780636555954014620004df578063715018a6146200050457600080fd5b80632dfdf0b51462000315578063318aee3d146200032d5780633ae05047146200039c5780633da8168214620003b457600080fd5b80632072f6c511620001da5780632072f6c5146200027557806322e95f2c146200028d5780632b5e42e714620002cb5780632c3f58cd14620002f057600080fd5b80630871e97114620002045780630e1da6c3146200021d57806315064c961462000248575b600080fd5b6200021b6200021536600462003301565b62000756565b005b3480156200022a57600080fd5b5062000235608d5481565b6040519081526020015b60405180910390f35b3480156200025557600080fd5b50602254620002649060ff1681565b60405190151581526020016200023f565b3480156200028257600080fd5b506200021b62000812565b3480156200029a57600080fd5b50620002b2620002ac3660046200338e565b620008c6565b6040516001600160a01b0390911681526020016200023f565b348015620002d857600080fd5b506200021b620002ea366004620033ca565b62000949565b348015620002fd57600080fd5b506200021b6200030f366004620033e4565b62000958565b3480156200032257600080fd5b506200023560215481565b3480156200033a57600080fd5b50620003776200034c36600462003409565b608a6020526000908152604090205463ffffffff81169064010000000090046001600160a01b031682565b6040805163ffffffff90931683526001600160a01b039091166020830152016200023f565b348015620003a957600080fd5b506200023562000999565b348015620003c157600080fd5b5062000264620003d33660046200350a565b62000a8c565b348015620003e657600080fd5b5062000235620003f836600462003588565b6040517fff0000000000000000000000000000000000000000000000000000000000000060f889901b1660208201527fffffffff0000000000000000000000000000000000000000000000000000000060e088811b821660218401526bffffffffffffffffffffffff19606089811b821660258601529188901b909216603984015285901b16603d8201526051810183905260718101829052600090609101604051602081830303815290604052805190602001209050979650505050505050565b348015620004c757600080fd5b506200021b620004d936600462003699565b62000b8e565b348015620004ec57600080fd5b506200021b620004fe36600462003780565b62000e14565b3480156200051157600080fd5b506200021b62001006565b3480156200052957600080fd5b506200021b6200053b36600462003699565b6200101c565b3480156200054e57600080fd5b50620002b262000560366004620033ca565b6089602052600090815260409020546001600160a01b031681565b3480156200058857600080fd5b506055546001600160a01b0316620002b2565b348015620005a857600080fd5b50608c54620002b2906001600160a01b031681565b348015620005ca57600080fd5b5062000235608e5481565b348015620005e257600080fd5b50620005ec600081565b60405160ff90911681526020016200023f565b3480156200060c57600080fd5b50620002b26200061e366004620037d6565b620015de565b3480156200063157600080fd5b50608754620006439063ffffffff1681565b60405163ffffffff90911681526020016200023f565b3480156200066657600080fd5b50608b54620002b2906001600160a01b031681565b6200021b6200068c3660046200388a565b6200174a565b3480156200069f57600080fd5b506200021b620019fe565b348015620006b757600080fd5b5062000264620006c9366004620033ca565b60886020526000908152604090205460ff1681565b348015620006eb57600080fd5b506200021b620006fd366004620033ca565b62001ab0565b3480156200071057600080fd5b5062000643600081565b3480156200072757600080fd5b506200021b6200073936600462003409565b62001af5565b3480156200074c57600080fd5b50620005ec600181565b608e54341115620007fa5760405162461bcd60e51b815260206004820152604a60248201527f4272696467653a3a6272696467653a2043616e6e6f7420627269646765206d6f60448201527f7265207468616e206d6178457468657242726964676520696e20696e7465726e60648201527f616c20746573746e657400000000000000000000000000000000000000000000608482015260a4015b60405180910390fd5b6200080a86868686868662001b8b565b505050505050565b608c546001600160a01b03163314620008ba5760405162461bcd60e51b815260206004820152604b60248201527f50726f6f664f66456666696369656e63793a3a6f6e6c7950726f6f664f66456660448201527f66696369656e63793a206f6e6c792050726f6f66206f6620456666696369656e60648201527f637920636f6e7472616374000000000000000000000000000000000000000000608482015260a401620007f1565b620008c462002131565b565b6040805160e084901b7fffffffff0000000000000000000000000000000000000000000000000000000016602080830191909152606084901b6bffffffffffffffffffffffff1916602483015282516018818403018152603890920183528151918101919091206000908152608990915220546001600160a01b03165b92915050565b620009536200220a565b608e55565b620009626200220a565b608780547fffffffffffffffffffffffffffffffffffffffffffffffffffffffff000000001663ffffffff92909216919091179055565b602154600090819081805b602081101562000a83578260011660010362000a045760018160208110620009d057620009d0620038f2565b0154604080516020810192909252810185905260600160405160208183030381529060405280519060200120935062000a31565b60408051602081018690529081018390526060016040516020818303038152906040528051906020012093505b62000a3e60028462003950565b6040805160208101859052908101849052909350606001604051602081830303815290604052805190602001209150808062000a7a906200398c565b915050620009a4565b50919392505050565b60008467ffffffffffffffff8416825b602081101562000b7f578160011660010362000b095786818151811062000ac75762000ac7620038f2565b60200260200101518360405160200162000aeb929190918252602082015260400190565b60405160208183030381529060405280519060200120925062000b5b565b8287828151811062000b1f5762000b1f620038f2565b602002602001015160405160200162000b42929190918252602082015260400190565b6040516020818303038152906040528051906020012092505b62000b6860028362003950565b91508062000b76816200398c565b91505062000a9c565b5050821490505b949350505050565b60225460ff161562000c2f5760405162461bcd60e51b815260206004820152604260248201527f456d657267656e63794d616e616765723a3a69664e6f74456d657267656e637960448201527f53746174653a206f6e6c79206966206e6f7420656d657267656e63792073746160648201527f7465000000000000000000000000000000000000000000000000000000000000608482015260a401620007f1565b62000c458a8a8a8a8a8a8a8a8a8a600162002266565b63ffffffff8916600090815260886020526040808220805460ff19166001179055516001600160a01b03851690849062000c889089908b90879060240162003a24565b60408051601f198184030181529181526020820180517bffffffffffffffffffffffffffffffffffffffffffffffffffffffff167f1806b5f2000000000000000000000000000000000000000000000000000000001790525162000ced919062003a5d565b60006040518083038185875af1925050503d806000811462000d2c576040519150601f19603f3d011682016040523d82523d6000602084013e62000d31565b606091505b505090508062000da95760405162461bcd60e51b8152602060048201526024808201527f4272696467653a3a636c61696d4d6573736167653a204d4553534147455f464160448201527f494c4544000000000000000000000000000000000000000000000000000000006064820152608401620007f1565b6040805163ffffffff8c81168252891660208201526001600160a01b0388811682840152861660608201526080810185905290517f25308c93ceeed162da955b3f7ce3e3f93606579e40fb92029faa9efe275459839181900360a00190a15050505050505050505050565b600054610100900460ff161580801562000e355750600054600160ff909116105b8062000e515750303b15801562000e51575060005460ff166001145b62000ec55760405162461bcd60e51b815260206004820152602e60248201527f496e697469616c697a61626c653a20636f6e747261637420697320616c72656160448201527f647920696e697469616c697a65640000000000000000000000000000000000006064820152608401620007f1565b6000805460ff19166001179055801562000f0657600080547fffffffffffffffffffffffffffffffffffffffffffffffffffffffffffff00ff166101001790555b6087805463ffffffff87167fffffffffffffffffffffffffffffffffffffffffffffffffffffffff00000000909116179055608b80546001600160a01b038087167fffffffffffffffffffffffff000000000000000000000000000000000000000092831617909255608c805492861692909116919091179055608d8290556703782dace9d90000608e5562000f9b62002619565b801562000fff57600080547fffffffffffffffffffffffffffffffffffffffffffffffffffffffffffff00ff169055604051600181527f7f26b83ff96e1f2b6a682f133852f6798a09c465da95921460cefb38474024989060200160405180910390a15b5050505050565b620010106200220a565b620008c460006200269e565b60225460ff1615620010bd5760405162461bcd60e51b815260206004820152604260248201527f456d657267656e63794d616e616765723a3a69664e6f74456d657267656e637960448201527f53746174653a206f6e6c79206966206e6f7420656d657267656e63792073746160648201527f7465000000000000000000000000000000000000000000000000000000000000608482015260a401620007f1565b620010d38a8a8a8a8a8a8a8a8a8a600062002266565b63ffffffff89166000908152608860205260409020805460ff191660011790556001600160a01b038516620011f257604080516000808252602082019092526001600160a01b0385169084906040516200112e919062003a5d565b60006040518083038185875af1925050503d80600081146200116d576040519150601f19603f3d011682016040523d82523d6000602084013e62001172565b606091505b5050905080620011eb5760405162461bcd60e51b815260206004820152602760248201527f4272696467653a3a636c61696d41737365743a204554485f5452414e5346455260448201527f5f4641494c4544000000000000000000000000000000000000000000000000006064820152608401620007f1565b5062001574565b60875463ffffffff9081169087160362001222576200121c6001600160a01b038616848462002708565b62001574565b6040517fffffffff0000000000000000000000000000000000000000000000000000000060e088901b1660208201526bffffffffffffffffffffffff19606087901b16602482015260009060380160408051601f198184030181529181528151602092830120600081815260899093529120549091506001600160a01b031680620014e057600080600085806020019051810190620012c2919062003ac7565b925092509250600085848484604051620012dc906200326a565b620012ea9392919062003b48565b8190604051809103906000f59050801580156200130b573d6000803e3d6000fd5b506040517f40c10f190000000000000000000000000000000000000000000000000000000081526001600160a01b038b81166004830152602482018b9052919250908216906340c10f19906044016020604051808303816000875af115801562001379573d6000803e3d6000fd5b505050506040513d601f19601f820116820180604052508101906200139f919062003b94565b50806089600088815260200190815260200160002060006101000a8154816001600160a01b0302191690836001600160a01b0316021790555060405180604001604052808d63ffffffff1681526020018c6001600160a01b0316815250608a6000836001600160a01b03166001600160a01b0316815260200190815260200160002060008201518160000160006101000a81548163ffffffff021916908363ffffffff16021790555060208201518160000160046101000a8154816001600160a01b0302191690836001600160a01b031602179055509050507fccd7715648d1f2bb13e158f96b5b6c3aeda555d4cb87112e274a6f28bc571d598c8c83604051620014ce9392919063ffffffff9390931683526001600160a01b03918216602084015216604082015260600190565b60405180910390a15050505062001571565b6040517f40c10f190000000000000000000000000000000000000000000000000000000081526001600160a01b038681166004830152602482018690528216906340c10f19906044016020604051808303816000875af115801562001549573d6000803e3d6000fd5b505050506040513d601f19601f820116820180604052508101906200156f919062003b94565b505b50505b6040805163ffffffff8b81168252881660208201526001600160a01b0387811682840152851660608201526080810184905290517f25308c93ceeed162da955b3f7ce3e3f93606579e40fb92029faa9efe275459839181900360a00190a150505050505050505050565b6040517fffffffff0000000000000000000000000000000000000000000000000000000060e089901b1660208201526bffffffffffffffffffffffff19606088901b1660248201526000908190603801604051602081830303815290604052805190602001209050600060ff60f81b30836040518060200162001661906200326a565b601f1982820381018352601f9091011660408190526200168e908d908d908d908d908d9060200162003bdf565b60408051601f1981840301815290829052620016ae929160200162003c20565b604051602081830303815290604052805190602001206040516020016200172494939291907fff0000000000000000000000000000000000000000000000000000000000000094909416845260609290921b6bffffffffffffffffffffffff191660018401526015830152603582015260550190565b60408051808303601f1901815291905280516020909101209a9950505050505050505050565b60225460ff1615620017eb5760405162461bcd60e51b815260206004820152604260248201527f456d657267656e63794d616e616765723a3a69664e6f74456d657267656e637960448201527f53746174653a206f6e6c79206966206e6f7420656d657267656e63792073746160648201527f7465000000000000000000000000000000000000000000000000000000000000608482015260a401620007f1565b60875463ffffffff908116908416036200186e5760405162461bcd60e51b815260206004820152602a60248201527f4272696467653a3a6272696467653a2044455354494e4154494f4e5f43414e5460448201527f5f42455f495453454c46000000000000000000000000000000000000000000006064820152608401620007f1565b6087546021546040517f501781209a1f8899323b96b4ef08b168df93e0a90c673d1e4cce39366cb62f9b92620018bb9260019263ffffffff9092169133918991899134918a919062003c53565b60405180910390a16087548151602080840191909120604080517f0100000000000000000000000000000000000000000000000000000000000000818501527fffffffff0000000000000000000000000000000000000000000000000000000060e095861b811660218301526bffffffffffffffffffffffff1933606090811b82166025850152968a901b90911660398301529487901b909416603d85015234605185015260718085019290925280518085039092018252609190930190925281519101206200198b90620027b8565b608b546001600160a01b03166333d6247d620019a662000999565b6040518263ffffffff1660e01b8152600401620019c591815260200190565b600060405180830381600087803b158015620019e057600080fd5b505af1158015620019f5573d6000803e3d6000fd5b50505050505050565b608c546001600160a01b0316331462001aa65760405162461bcd60e51b815260206004820152604b60248201527f50726f6f664f66456666696369656e63793a3a6f6e6c7950726f6f664f66456660448201527f66696369656e63793a206f6e6c792050726f6f66206f6620456666696369656e60648201527f637920636f6e7472616374000000000000000000000000000000000000000000608482015260a401620007f1565b620008c462002917565b62001aba6200220a565b608d8190556040518181527f126d6a8888996898896a660f1c9a7a4ef612bd6df82281a13079dd27cc38758d9060200160405180910390a150565b62001aff6200220a565b6001600160a01b03811662001b7d5760405162461bcd60e51b815260206004820152602660248201527f4f776e61626c653a206e6577206f776e657220697320746865207a65726f206160448201527f64647265737300000000000000000000000000000000000000000000000000006064820152608401620007f1565b62001b88816200269e565b50565b60225460ff161562001c2c5760405162461bcd60e51b815260206004820152604260248201527f456d657267656e63794d616e616765723a3a69664e6f74456d657267656e637960448201527f53746174653a206f6e6c79206966206e6f7420656d657267656e63792073746160648201527f7465000000000000000000000000000000000000000000000000000000000000608482015260a401620007f1565b60875463ffffffff9081169086160362001caf5760405162461bcd60e51b815260206004820152602a60248201527f4272696467653a3a6272696467653a2044455354494e4154494f4e5f43414e5460448201527f5f42455f495453454c46000000000000000000000000000000000000000000006064820152608401620007f1565b60008060606001600160a01b03891662001d445785341462001d3a5760405162461bcd60e51b815260206004820152602f60248201527f4272696467653a3a6272696467653a20414d4f554e545f444f45535f4e4f545f60448201527f4d415443485f4d53475f56414c554500000000000000000000000000000000006064820152608401620007f1565b6000915062001fce565b6001600160a01b03808a166000908152608a602090815260409182902082518084019093525463ffffffff811683526401000000009004909216918101829052901562001e2b576040517f9dc29fac000000000000000000000000000000000000000000000000000000008152336004820152602481018890526001600160a01b038b1690639dc29fac906044016020604051808303816000875af115801562001df2573d6000803e3d6000fd5b505050506040513d601f19601f8201168201806040525081019062001e18919062003b94565b5060208101518151909450925062001fcc565b841562001e405762001e408a888888620029c6565b62001e576001600160a01b038b1633308a62002feb565b899350608760009054906101000a900463ffffffff169250896001600160a01b03166306fdde036040518163ffffffff1660e01b8152600401600060405180830381865afa15801562001eae573d6000803e3d6000fd5b505050506040513d6000823e601f3d908101601f1916820160405262001ed8919081019062003cbf565b8a6001600160a01b03166395d89b416040518163ffffffff1660e01b8152600401600060405180830381865afa15801562001f17573d6000803e3d6000fd5b505050506040513d6000823e601f3d908101601f1916820160405262001f41919081019062003cbf565b8b6001600160a01b031663313ce5676040518163ffffffff1660e01b8152600401602060405180830381865afa15801562001f80573d6000803e3d6000fd5b505050506040513d601f19601f8201168201806040525081019062001fa6919062003cf8565b60405160200162001fba9392919062003b48565b60405160208183030381529060405291505b505b7f501781209a1f8899323b96b4ef08b168df93e0a90c673d1e4cce39366cb62f9b600083858b8b8b876021546040516200201098979695949392919062003c53565b60405180910390a18051602080830191909120604080516000818501527fffffffff0000000000000000000000000000000000000000000000000000000060e087811b821660218401526bffffffffffffffffffffffff1960608a811b82166025860152918f901b90921660398401528c901b16603d820152605181018a90526071808201939093528151808203909301835260910190528051910120620020b890620027b8565b608b546001600160a01b03166333d6247d620020d362000999565b6040518263ffffffff1660e01b8152600401620020f291815260200190565b600060405180830381600087803b1580156200210d57600080fd5b505af115801562002122573d6000803e3d6000fd5b50505050505050505050505050565b60225460ff1615620021d25760405162461bcd60e51b815260206004820152604260248201527f456d657267656e63794d616e616765723a3a69664e6f74456d657267656e637960448201527f53746174653a206f6e6c79206966206e6f7420656d657267656e63792073746160648201527f7465000000000000000000000000000000000000000000000000000000000000608482015260a401620007f1565b6022805460ff191660011790556040517f2261efe5aef6fedc1fd1550b25facc9181745623049c7901287030b9ad1a549790600090a1565b6055546001600160a01b03163314620008c45760405162461bcd60e51b815260206004820181905260248201527f4f776e61626c653a2063616c6c6572206973206e6f7420746865206f776e65726044820152606401620007f1565b63ffffffff8a1660009081526088602052604090205460ff1615620022f35760405162461bcd60e51b8152602060048201526024808201527f4272696467653a3a5f7665726966794c6561663a20414c52454144595f434c4160448201527f494d4544000000000000000000000000000000000000000000000000000000006064820152608401620007f1565b608b546040805160208082018d90528183018c9052825180830384018152606083019384905280519101207f257b36320000000000000000000000000000000000000000000000000000000090925260648101919091526000916001600160a01b03169063257b3632906084016020604051808303816000875af115801562002380573d6000803e3d6000fd5b505050506040513d601f19601f82011682018060405250810190620023a6919062003d18565b90508015801590620023c55750608d54620023c2824262003d32565b10155b6200245f5760405162461bcd60e51b815260206004820152604260248201527f4272696467653a3a5f7665726966794c6561663a20474c4f42414c5f4558495460448201527f5f524f4f545f494e56414c49445f4f525f4e4f545f5945545f434c41494d414260648201527f4c45000000000000000000000000000000000000000000000000000000000000608482015260a401620007f1565b60875463ffffffff878116911614620024e15760405162461bcd60e51b815260206004820152603760248201527f4272696467653a3a5f7665726966794c6561663a2044455354494e4154494f4e60448201527f5f4e4554574f524b5f444f45535f4e4f545f4d415443480000000000000000006064820152608401620007f1565b60875460009063ffffffff16620024fa575088620024fd565b50895b8351602080860191909120604080517fff0000000000000000000000000000000000000000000000000000000000000060f888901b16818501527fffffffff0000000000000000000000000000000000000000000000000000000060e08e811b821660218401526bffffffffffffffffffffffff1960608f811b82166025860152918e901b90921660398401528b901b16603d820152605181018990526071808201939093528151808203909301835260910190528051910120620025cb908e8e63ffffffff168462000a8c565b620021225760405162461bcd60e51b815260206004820181905260248201527f4272696467653a3a5f7665726966794c6561663a20534d545f494e56414c49446044820152606401620007f1565b600054610100900460ff16620026985760405162461bcd60e51b815260206004820152602b60248201527f496e697469616c697a61626c653a20636f6e7472616374206973206e6f74206960448201527f6e697469616c697a696e670000000000000000000000000000000000000000006064820152608401620007f1565b620008c4335b605580546001600160a01b038381167fffffffffffffffffffffffff0000000000000000000000000000000000000000831681179093556040519116919082907f8be0079c531659141344cd1fd0a4f28419497f9722a3daafe3b4186f6b6457e090600090a35050565b6040516001600160a01b038316602482015260448101829052620027b39084907fa9059cbb00000000000000000000000000000000000000000000000000000000906064015b60408051601f198184030181529190526020810180517bffffffffffffffffffffffffffffffffffffffffffffffffffffffff167fffffffff000000000000000000000000000000000000000000000000000000009093169290921790915262003044565b505050565b806001620027c96020600262003e85565b620027d5919062003d32565b602154106200284d5760405162461bcd60e51b815260206004820152602a60248201527f4465706f736974436f6e74726163743a5f6465706f7369743a204d45524b4c4560448201527f5f545245455f46554c4c000000000000000000000000000000000000000000006064820152608401620007f1565b60016021600082825462002862919062003e93565b909155505060215460005b60208110156200290c5781600116600103620028a25782600182602081106200289a576200289a620038f2565b015550505050565b60018160208110620028b857620028b8620038f2565b01546040805160208101929092528101849052606001604051602081830303815290604052805190602001209250600282620028f5919062003950565b91508062002903816200398c565b9150506200286d565b50620027b362003eae565b60225460ff16620029915760405162461bcd60e51b815260206004820152603b60248201527f456d657267656e63794d616e616765723a3a6966456d657267656e637953746160448201527f74653a206f6e6c7920696620656d657267656e637920737461746500000000006064820152608401620007f1565b6022805460ff191690556040517f1e5e34eea33501aecf2ebec9fe0e884a40804275ea7fe10b2ba084c8374308b390600090a1565b600062002a0983838080601f0160208091040260200160405190810160405280939291908181526020018383808284376000920191909152506200313092505050565b90507f2afa5331000000000000000000000000000000000000000000000000000000007fffffffff0000000000000000000000000000000000000000000000000000000082160162002d0b57600080808080808062002a6c896004818d62003edd565b81019062002a7b919062003f09565b9650965096509650965096509650336001600160a01b0316876001600160a01b03161462002b125760405162461bcd60e51b815260206004820152603060248201527f4272696467653a3a5f7065726d69743a205045524d49545f4f574e45525f4d5560448201527f53545f42455f5448455f53454e444552000000000000000000000000000000006064820152608401620007f1565b6001600160a01b038616301462002b925760405162461bcd60e51b815260206004820152602560248201527f4272696467653a3a5f7065726d69743a205350454e4445525f4d5553545f424560448201527f5f544849530000000000000000000000000000000000000000000000000000006064820152608401620007f1565b8a851462002c095760405162461bcd60e51b815260206004820152602d60248201527f4272696467653a3a5f7065726d69743a205045524d49545f414d4f554e545f4460448201527f4f45535f4e4f545f4d41544348000000000000000000000000000000000000006064820152608401620007f1565b604080516001600160a01b0389811660248301528881166044830152606482018890526084820187905260ff861660a483015260c4820185905260e48083018590528351808403909101815261010490920183526020820180517bffffffffffffffffffffffffffffffffffffffffffffffffffffffff167fd505accf000000000000000000000000000000000000000000000000000000001790529151918e169162002cb7919062003a5d565b6000604051808303816000865af19150503d806000811462002cf6576040519150601f19603f3d011682016040523d82523d6000602084013e62002cfb565b606091505b5050505050505050505062000fff565b7fffffffff0000000000000000000000000000000000000000000000000000000081167f8fcbaf0c000000000000000000000000000000000000000000000000000000001462002d9e5760405162461bcd60e51b815260206004820152601f60248201527f4272696467653a3a5f7065726d69743a204e4f545f56414c49445f43414c4c006044820152606401620007f1565b60008080808080808062002db68a6004818e62003edd565b81019062002dc5919062003f64565b97509750975097509750975097509750336001600160a01b0316886001600160a01b03161462002e5e5760405162461bcd60e51b815260206004820152603060248201527f4272696467653a3a5f7065726d69743a205045524d49545f4f574e45525f4d5560448201527f53545f42455f5448455f53454e444552000000000000000000000000000000006064820152608401620007f1565b6001600160a01b038716301462002ede5760405162461bcd60e51b815260206004820152602560248201527f4272696467653a3a5f7065726d69743a205350454e4445525f4d5553545f424560448201527f5f544849530000000000000000000000000000000000000000000000000000006064820152608401620007f1565b604080516001600160a01b038a811660248301528981166044830152606482018990526084820188905286151560a483015260ff861660c483015260e482018590526101048083018590528351808403909101815261012490920183526020820180517bffffffffffffffffffffffffffffffffffffffffffffffffffffffff167f8fcbaf0c000000000000000000000000000000000000000000000000000000001790529151918f169162002f95919062003a5d565b6000604051808303816000865af19150503d806000811462002fd4576040519150601f19603f3d011682016040523d82523d6000602084013e62002fd9565b606091505b50505050505050505050505050505050565b6040516001600160a01b03808516602483015283166044820152606481018290526200303e9085907f23b872dd00000000000000000000000000000000000000000000000000000000906084016200274e565b50505050565b60006200309b826040518060400160405280602081526020017f5361666545524332303a206c6f772d6c6576656c2063616c6c206661696c6564815250856001600160a01b0316620031379092919063ffffffff16565b805190915015620027b35780806020019051810190620030bc919062003b94565b620027b35760405162461bcd60e51b815260206004820152602a60248201527f5361666545524332303a204552433230206f7065726174696f6e20646964206e60448201527f6f742073756363656564000000000000000000000000000000000000000000006064820152608401620007f1565b6020015190565b606062000b86848460008585600080866001600160a01b0316858760405162003161919062003a5d565b60006040518083038185875af1925050503d8060008114620031a0576040519150601f19603f3d011682016040523d82523d6000602084013e620031a5565b606091505b5091509150620031b887838387620031c3565b979650505050505050565b60608315620032375782516000036200322f576001600160a01b0385163b6200322f5760405162461bcd60e51b815260206004820152601d60248201527f416464726573733a2063616c6c20746f206e6f6e2d636f6e74726163740000006044820152606401620007f1565b508162000b86565b62000b8683838151156200324e5781518083602001fd5b8060405162461bcd60e51b8152600401620007f1919062003ff0565b6119c7806200400683390190565b6001600160a01b038116811462001b8857600080fd5b80356200329b8162003278565b919050565b803563ffffffff811681146200329b57600080fd5b60008083601f840112620032c857600080fd5b50813567ffffffffffffffff811115620032e157600080fd5b602083019150836020828501011115620032fa57600080fd5b9250929050565b60008060008060008060a087890312156200331b57600080fd5b8635620033288162003278565b95506200333860208801620032a0565b945060408701356200334a8162003278565b935060608701359250608087013567ffffffffffffffff8111156200336e57600080fd5b6200337c89828a01620032b5565b979a9699509497509295939492505050565b60008060408385031215620033a257600080fd5b620033ad83620032a0565b91506020830135620033bf8162003278565b809150509250929050565b600060208284031215620033dd57600080fd5b5035919050565b600060208284031215620033f757600080fd5b6200340282620032a0565b9392505050565b6000602082840312156200341c57600080fd5b8135620034028162003278565b7f4e487b7100000000000000000000000000000000000000000000000000000000600052604160045260246000fd5b604051601f8201601f1916810167ffffffffffffffff8111828210171562003484576200348462003429565b604052919050565b600082601f8301126200349e57600080fd5b8135602067ffffffffffffffff821115620034bd57620034bd62003429565b8160051b620034ce82820162003458565b9283528481018201928281019087851115620034e957600080fd5b83870192505b84831015620031b857823582529183019190830190620034ef565b600080600080608085870312156200352157600080fd5b84359350602085013567ffffffffffffffff808211156200354157600080fd5b6200354f888389016200348c565b94506040870135915080821682146200356757600080fd5b509396929550929360600135925050565b60ff8116811462001b8857600080fd5b600080600080600080600060e0888a031215620035a457600080fd5b8735620035b18162003578565b9650620035c160208901620032a0565b95506040880135620035d38162003278565b9450620035e360608901620032a0565b93506080880135620035f58162003278565b9699959850939692959460a0840135945060c09093013592915050565b600067ffffffffffffffff8211156200362f576200362f62003429565b50601f01601f191660200190565b600082601f8301126200364f57600080fd5b813562003666620036608262003612565b62003458565b8181528460208386010111156200367c57600080fd5b816020850160208301376000918101602001919091529392505050565b6000806000806000806000806000806101408b8d031215620036ba57600080fd5b8a3567ffffffffffffffff80821115620036d357600080fd5b620036e18e838f016200348c565b9b50620036f160208e01620032a0565b9a5060408d0135995060608d013598506200370f60808e01620032a0565b97506200371f60a08e016200328e565b96506200372f60c08e01620032a0565b95506200373f60e08e016200328e565b94506101008d013593506101208d01359150808211156200375f57600080fd5b506200376e8d828e016200363d565b9150509295989b9194979a5092959850565b600080600080608085870312156200379757600080fd5b620037a285620032a0565b93506020850135620037b48162003278565b92506040850135620037c68162003278565b9396929550929360600135925050565b600080600080600080600060a0888a031215620037f257600080fd5b620037fd88620032a0565b965060208801356200380f8162003278565b9550604088013567ffffffffffffffff808211156200382d57600080fd5b6200383b8b838c01620032b5565b909750955060608a01359150808211156200385557600080fd5b50620038648a828b01620032b5565b90945092505060808801356200387a8162003578565b8091505092959891949750929550565b600080600060608486031215620038a057600080fd5b620038ab84620032a0565b92506020840135620038bd8162003278565b9150604084013567ffffffffffffffff811115620038da57600080fd5b620038e8868287016200363d565b9150509250925092565b7f4e487b7100000000000000000000000000000000000000000000000000000000600052603260045260246000fd5b7f4e487b7100000000000000000000000000000000000000000000000000000000600052601160045260246000fd5b60008262003987577f4e487b7100000000000000000000000000000000000000000000000000000000600052601260045260246000fd5b500490565b60007fffffffffffffffffffffffffffffffffffffffffffffffffffffffffffffffff8203620039c057620039c062003921565b5060010190565b60005b83811015620039e4578181015183820152602001620039ca565b838111156200303e5750506000910152565b6000815180845262003a10816020860160208601620039c7565b601f01601f19169290920160200192915050565b6001600160a01b038416815263ffffffff8316602082015260606040820152600062003a546060830184620039f6565b95945050505050565b6000825162003a71818460208701620039c7565b9190910192915050565b600082601f83011262003a8d57600080fd5b815162003a9e620036608262003612565b81815284602083860101111562003ab457600080fd5b62000b86826020830160208701620039c7565b60008060006060848603121562003add57600080fd5b835167ffffffffffffffff8082111562003af657600080fd5b62003b048783880162003a7b565b9450602086015191508082111562003b1b57600080fd5b5062003b2a8682870162003a7b565b925050604084015162003b3d8162003578565b809150509250925092565b60608152600062003b5d6060830186620039f6565b828103602084015262003b718186620039f6565b91505060ff83166040830152949350505050565b801515811462001b8857600080fd5b60006020828403121562003ba757600080fd5b8151620034028162003b85565b818352818160208501375060006020828401015260006020601f19601f840116840101905092915050565b60608152600062003bf560608301878962003bb4565b828103602084015262003c0a81868862003bb4565b91505060ff831660408301529695505050505050565b6000835162003c34818460208801620039c7565b83519083019062003c4a818360208801620039c7565b01949350505050565b600061010060ff8b16835263ffffffff808b1660208501526001600160a01b03808b166040860152818a1660608601528089166080860152508660a08501528160c085015262003ca682850187620039f6565b925080851660e085015250509998505050505050505050565b60006020828403121562003cd257600080fd5b815167ffffffffffffffff81111562003cea57600080fd5b62000b868482850162003a7b565b60006020828403121562003d0b57600080fd5b8151620034028162003578565b60006020828403121562003d2b57600080fd5b5051919050565b60008282101562003d475762003d4762003921565b500390565b600181815b8085111562003dab57817fffffffffffffffffffffffffffffffffffffffffffffffffffffffffffffffff0482111562003d8f5762003d8f62003921565b8085161562003d9d57918102915b93841c939080029062003d51565b509250929050565b60008262003dc45750600162000943565b8162003dd35750600062000943565b816001811462003dec576002811462003df75762003e17565b600191505062000943565b60ff84111562003e0b5762003e0b62003921565b50506001821b62000943565b5060208310610133831016604e8410600b841016171562003e3c575081810a62000943565b62003e48838362003d4c565b807fffffffffffffffffffffffffffffffffffffffffffffffffffffffffffffffff0482111562003e7d5762003e7d62003921565b029392505050565b600062003402838362003db3565b6000821982111562003ea95762003ea962003921565b500190565b7f4e487b7100000000000000000000000000000000000000000000000000000000600052600160045260246000fd5b6000808585111562003eee57600080fd5b8386111562003efc57600080fd5b5050820193919092039150565b600080600080600080600060e0888a03121562003f2557600080fd5b873562003f328162003278565b9650602088013562003f448162003278565b955060408801359450606088013593506080880135620035f58162003578565b600080600080600080600080610100898b03121562003f8257600080fd5b883562003f8f8162003278565b9750602089013562003fa18162003278565b96506040890135955060608901359450608089013562003fc18162003b85565b935060a089013562003fd38162003578565b979a969950949793969295929450505060c08201359160e0013590565b602081526000620034026020830184620039f656fe60c06040523480156200001157600080fd5b50604051620019c7380380620019c78339810160408190526200003491620002ad565b82826003620000448382620003c1565b506004620000538282620003c1565b5050600580546001600160a81b0319163360ff60a01b191617600160a01b60ff851602179055504660808190526200008b9062000098565b60a052506200048d915050565b60007f8b73c3c69bb8fe3d512ecc4cf759cc79239f7b179b0ffacaa9a75d522b39400f620000c562000146565b805160209182012060408051808201825260018152603160f81b90840152805192830193909352918101919091527fc89efdaa54c0f20c7adf612882df0950f5a951637e0307cdcb4c672f298b8bc66060820152608081018390523060a082015260c001604051602081830303815290604052805190602001209050919050565b606060038054620001579062000332565b80601f0160208091040260200160405190810160405280929190818152602001828054620001859062000332565b8015620001d65780601f10620001aa57610100808354040283529160200191620001d6565b820191906000526020600020905b815481529060010190602001808311620001b857829003601f168201915b5050505050905090565b634e487b7160e01b600052604160045260246000fd5b600082601f8301126200020857600080fd5b81516001600160401b0380821115620002255762000225620001e0565b604051601f8301601f19908116603f01168101908282118183101715620002505762000250620001e0565b816040528381526020925086838588010111156200026d57600080fd5b600091505b8382101562000291578582018301518183018401529082019062000272565b83821115620002a35760008385830101525b9695505050505050565b600080600060608486031215620002c357600080fd5b83516001600160401b0380821115620002db57600080fd5b620002e987838801620001f6565b945060208601519150808211156200030057600080fd5b506200030f86828701620001f6565b925050604084015160ff811681146200032757600080fd5b809150509250925092565b600181811c908216806200034757607f821691505b6020821081036200036857634e487b7160e01b600052602260045260246000fd5b50919050565b601f821115620003bc57600081815260208120601f850160051c81016020861015620003975750805b601f850160051c820191505b81811015620003b857828155600101620003a3565b5050505b505050565b81516001600160401b03811115620003dd57620003dd620001e0565b620003f581620003ee845462000332565b846200036e565b602080601f8311600181146200042d5760008415620004145750858301515b600019600386901b1c1916600185901b178555620003b8565b600085815260208120601f198616915b828110156200045e578886015182559484019460019091019084016200043d565b50858210156200047d5787850151600019600388901b60f8161c191681555b5050505050600190811b01905550565b60805160a05161150d620004ba600039600061053001526000818161036f01526104fa015261150d6000f3fe608060405234801561001057600080fd5b50600436106101775760003560e01c806370a08231116100d8578063a457c2d71161008c578063d505accf11610066578063d505accf14610391578063dd62ed3e146103a6578063ffa1ad74146103ec57600080fd5b8063a457c2d714610344578063a9059cbb14610357578063cd0d00961461036a57600080fd5b806395d89b41116100bd57806395d89b41146102e45780639dc29fac146102ec578063a3c573eb146102ff57600080fd5b806370a082311461028e5780637ecebe00146102c457600080fd5b806330adf81f1161012f5780633644e515116101145780633644e51514610260578063395093511461026857806340c10f191461027b57600080fd5b806330adf81f14610209578063313ce5671461023057600080fd5b806318160ddd1161016057806318160ddd146101bd57806320606b70146101cf57806323b872dd146101f657600080fd5b806306fdde031461017c578063095ea7b31461019a575b600080fd5b610184610428565b604051610191919061123b565b60405180910390f35b6101ad6101a83660046112d7565b6104ba565b6040519015158152602001610191565b6002545b604051908152602001610191565b6101c17f8b73c3c69bb8fe3d512ecc4cf759cc79239f7b179b0ffacaa9a75d522b39400f81565b6101ad610204366004611301565b6104d2565b6101c17f6e71edae12b1b97f4d1f60370fef10105fa2faae0126114a169c64845d6126c981565b60055474010000000000000000000000000000000000000000900460ff1660405160ff9091168152602001610191565b6101c16104f6565b6101ad6102763660046112d7565b610552565b6101ad6102893660046112d7565b61059e565b6101c161029c36600461133d565b73ffffffffffffffffffffffffffffffffffffffff1660009081526020819052604090205490565b6101c16102d236600461133d565b60066020526000908152604090205481565b610184610645565b6101ad6102fa3660046112d7565b610654565b60055461031f9073ffffffffffffffffffffffffffffffffffffffff1681565b60405173ffffffffffffffffffffffffffffffffffffffff9091168152602001610191565b6101ad6103523660046112d7565b6106ed565b6101ad6103653660046112d7565b6107a4565b6101c17f000000000000000000000000000000000000000000000000000000000000000081565b6103a461039f36600461135f565b6107b2565b005b6101c16103b43660046113d2565b73ffffffffffffffffffffffffffffffffffffffff918216600090815260016020908152604080832093909416825291909152205490565b6101846040518060400160405280600181526020017f310000000000000000000000000000000000000000000000000000000000000081525081565b60606003805461043790611405565b80601f016020809104026020016040519081016040528092919081815260200182805461046390611405565b80156104b05780601f10610485576101008083540402835291602001916104b0565b820191906000526020600020905b81548152906001019060200180831161049357829003601f168201915b5050505050905090565b6000336104c8818585610ab4565b5060019392505050565b6000336104e0858285610c34565b6104eb858585610cf1565b506001949350505050565b60007f0000000000000000000000000000000000000000000000000000000000000000461461052d5761052846610f12565b905090565b507f000000000000000000000000000000000000000000000000000000000000000090565b33600081815260016020908152604080832073ffffffffffffffffffffffffffffffffffffffff871684529091528120549091906104c89082908690610599908790611487565b610ab4565b60055460009073ffffffffffffffffffffffffffffffffffffffff1633146106325760405162461bcd60e51b8152602060048201526024808201527f546f6b656e577261707065643a3a6f6e6c794272696467653a204e4f545f425260448201527f494447450000000000000000000000000000000000000000000000000000000060648201526084015b60405180910390fd5b61063c8383610fda565b50600192915050565b60606004805461043790611405565b60055460009073ffffffffffffffffffffffffffffffffffffffff1633146106e35760405162461bcd60e51b8152602060048201526024808201527f546f6b656e577261707065643a3a6f6e6c794272696467653a204e4f545f425260448201527f49444745000000000000000000000000000000000000000000000000000000006064820152608401610629565b61063c83836110b3565b33600081815260016020908152604080832073ffffffffffffffffffffffffffffffffffffffff87168452909152812054909190838110156107975760405162461bcd60e51b815260206004820152602560248201527f45524332303a2064656372656173656420616c6c6f77616e63652062656c6f7760448201527f207a65726f0000000000000000000000000000000000000000000000000000006064820152608401610629565b6104eb8286868403610ab4565b6000336104c8818585610cf1565b834211156108275760405162461bcd60e51b8152602060048201526024808201527f546f6b656e577261707065643a3a7065726d69743a204578706972656420706560448201527f726d6974000000000000000000000000000000000000000000000000000000006064820152608401610629565b73ffffffffffffffffffffffffffffffffffffffff8716600090815260066020526040812080547f6e71edae12b1b97f4d1f60370fef10105fa2faae0126114a169c64845d6126c9918a918a918a9190866108818361149f565b9091555060408051602081019690965273ffffffffffffffffffffffffffffffffffffffff94851690860152929091166060840152608083015260a082015260c0810186905260e00160405160208183030381529060405280519060200120905060006108ec6104f6565b6040517f19010000000000000000000000000000000000000000000000000000000000006020820152602281019190915260428101839052606201604080517fffffffffffffffffffffffffffffffffffffffffffffffffffffffffffffffe08184030181528282528051602091820120600080855291840180845281905260ff89169284019290925260608301879052608083018690529092509060019060a0016020604051602081039080840390855afa1580156109b0573d6000803e3d6000fd5b50506040517fffffffffffffffffffffffffffffffffffffffffffffffffffffffffffffffe0015191505073ffffffffffffffffffffffffffffffffffffffff811615801590610a2b57508973ffffffffffffffffffffffffffffffffffffffff168173ffffffffffffffffffffffffffffffffffffffff16145b610a9d5760405162461bcd60e51b815260206004820152602760248201527f546f6b656e577261707065643a3a7065726d69743a20496e76616c696420736960448201527f676e6174757265000000000000000000000000000000000000000000000000006064820152608401610629565b610aa88a8a8a610ab4565b50505050505050505050565b73ffffffffffffffffffffffffffffffffffffffff8316610b3c5760405162461bcd60e51b8152602060048201526024808201527f45524332303a20617070726f76652066726f6d20746865207a65726f2061646460448201527f72657373000000000000000000000000000000000000000000000000000000006064820152608401610629565b73ffffffffffffffffffffffffffffffffffffffff8216610bc55760405162461bcd60e51b815260206004820152602260248201527f45524332303a20617070726f766520746f20746865207a65726f20616464726560448201527f73730000000000000000000000000000000000000000000000000000000000006064820152608401610629565b73ffffffffffffffffffffffffffffffffffffffff83811660008181526001602090815260408083209487168084529482529182902085905590518481527f8c5be1e5ebec7d5bd14f71427d1e84f3dd0314c0f7b2291e5b200ac8c7c3b92591015b60405180910390a3505050565b73ffffffffffffffffffffffffffffffffffffffff8381166000908152600160209081526040808320938616835292905220547fffffffffffffffffffffffffffffffffffffffffffffffffffffffffffffffff8114610ceb5781811015610cde5760405162461bcd60e51b815260206004820152601d60248201527f45524332303a20696e73756666696369656e7420616c6c6f77616e63650000006044820152606401610629565b610ceb8484848403610ab4565b50505050565b73ffffffffffffffffffffffffffffffffffffffff8316610d7a5760405162461bcd60e51b815260206004820152602560248201527f45524332303a207472616e736665722066726f6d20746865207a65726f20616460448201527f64726573730000000000000000000000000000000000000000000000000000006064820152608401610629565b73ffffffffffffffffffffffffffffffffffffffff8216610e035760405162461bcd60e51b815260206004820152602360248201527f45524332303a207472616e7366657220746f20746865207a65726f206164647260448201527f65737300000000000000000000000000000000000000000000000000000000006064820152608401610629565b73ffffffffffffffffffffffffffffffffffffffff831660009081526020819052604090205481811015610e9f5760405162461bcd60e51b815260206004820152602660248201527f45524332303a207472616e7366657220616d6f756e742065786365656473206260448201527f616c616e636500000000000000000000000000000000000000000000000000006064820152608401610629565b73ffffffffffffffffffffffffffffffffffffffff848116600081815260208181526040808320878703905593871680835291849020805487019055925185815290927fddf252ad1be2c89b69c2b068fc378daa952ba7f163c4a11628f55a4df523b3ef910160405180910390a3610ceb565b60007f8b73c3c69bb8fe3d512ecc4cf759cc79239f7b179b0ffacaa9a75d522b39400f610f3d610428565b8051602091820120604080518082018252600181527f310000000000000000000000000000000000000000000000000000000000000090840152805192830193909352918101919091527fc89efdaa54c0f20c7adf612882df0950f5a951637e0307cdcb4c672f298b8bc66060820152608081018390523060a082015260c001604051602081830303815290604052805190602001209050919050565b73ffffffffffffffffffffffffffffffffffffffff821661103d5760405162461bcd60e51b815260206004820152601f60248201527f45524332303a206d696e7420746f20746865207a65726f2061646472657373006044820152606401610629565b806002600082825461104f9190611487565b909155505073ffffffffffffffffffffffffffffffffffffffff8216600081815260208181526040808320805486019055518481527fddf252ad1be2c89b69c2b068fc378daa952ba7f163c4a11628f55a4df523b3ef910160405180910390a35050565b73ffffffffffffffffffffffffffffffffffffffff821661113c5760405162461bcd60e51b815260206004820152602160248201527f45524332303a206275726e2066726f6d20746865207a65726f2061646472657360448201527f73000000000000000000000000000000000000000000000000000000000000006064820152608401610629565b73ffffffffffffffffffffffffffffffffffffffff8216600090815260208190526040902054818110156111d85760405162461bcd60e51b815260206004820152602260248201527f45524332303a206275726e20616d6f756e7420657863656564732062616c616e60448201527f63650000000000000000000000000000000000000000000000000000000000006064820152608401610629565b73ffffffffffffffffffffffffffffffffffffffff83166000818152602081815260408083208686039055600280548790039055518581529192917fddf252ad1be2c89b69c2b068fc378daa952ba7f163c4a11628f55a4df523b3ef9101610c27565b600060208083528351808285015260005b818110156112685785810183015185820160400152820161124c565b8181111561127a576000604083870101525b50601f017fffffffffffffffffffffffffffffffffffffffffffffffffffffffffffffffe016929092016040019392505050565b803573ffffffffffffffffffffffffffffffffffffffff811681146112d257600080fd5b919050565b600080604083850312156112ea57600080fd5b6112f3836112ae565b946020939093013593505050565b60008060006060848603121561131657600080fd5b61131f846112ae565b925061132d602085016112ae565b9150604084013590509250925092565b60006020828403121561134f57600080fd5b611358826112ae565b9392505050565b600080600080600080600060e0888a03121561137a57600080fd5b611383886112ae565b9650611391602089016112ae565b95506040880135945060608801359350608088013560ff811681146113b557600080fd5b9699959850939692959460a0840135945060c09093013592915050565b600080604083850312156113e557600080fd5b6113ee836112ae565b91506113fc602084016112ae565b90509250929050565b600181811c9082168061141957607f821691505b602082108103611452577f4e487b7100000000000000000000000000000000000000000000000000000000600052602260045260246000fd5b50919050565b7f4e487b7100000000000000000000000000000000000000000000000000000000600052601160045260246000fd5b6000821982111561149a5761149a611458565b500190565b60007fffffffffffffffffffffffffffffffffffffffffffffffffffffffffffffffff82036114d0576114d0611458565b506001019056fea264697066735822122094134962e5fa2f6357086a2590b7f3a754d340b16e5312664d82a308bc23a0df64736f6c634300080f0033a2646970667358221220e63c82aeb9c625edac6379067d61515cfcb4e7d919995ea9f008f310c81c9e0d64736f6c634300080f0033",
  "linkReferences": {},
  "deployedLinkReferences": {}
}