{
  "_format": "hh-sol-artifact-1",
  "contractName": "Bridge",
  "sourceName": "contracts/Bridge.sol",
  "abi": [
    {
      "anonymous": false,
      "inputs": [
        {
          "indexed": false,
          "internalType": "uint32",
          "name": "originNetwork",
          "type": "uint32"
        },
        {
          "indexed": false,
          "internalType": "address",
          "name": "originTokenAddress",
          "type": "address"
        },
        {
          "indexed": false,
          "internalType": "uint32",
          "name": "destinationNetwork",
          "type": "uint32"
        },
        {
          "indexed": false,
          "internalType": "address",
          "name": "destinationAddress",
          "type": "address"
        },
        {
          "indexed": false,
          "internalType": "uint256",
          "name": "amount",
          "type": "uint256"
        },
        {
          "indexed": false,
          "internalType": "bytes",
          "name": "metadata",
          "type": "bytes"
        },
        {
          "indexed": false,
          "internalType": "uint32",
          "name": "depositCount",
          "type": "uint32"
        }
      ],
      "name": "BridgeEvent",
      "type": "event"
    },
    {
      "anonymous": false,
      "inputs": [
        {
          "indexed": false,
          "internalType": "uint32",
          "name": "index",
          "type": "uint32"
        },
        {
          "indexed": false,
          "internalType": "uint32",
          "name": "originNetwork",
          "type": "uint32"
        },
        {
          "indexed": false,
          "internalType": "address",
          "name": "originTokenAddress",
          "type": "address"
        },
        {
          "indexed": false,
          "internalType": "address",
          "name": "destinationAddress",
          "type": "address"
        },
        {
          "indexed": false,
          "internalType": "uint256",
          "name": "amount",
          "type": "uint256"
        }
      ],
      "name": "ClaimEvent",
      "type": "event"
    },
    {
      "anonymous": false,
      "inputs": [
        {
          "indexed": false,
          "internalType": "uint8",
          "name": "version",
          "type": "uint8"
        }
      ],
      "name": "Initialized",
      "type": "event"
    },
    {
      "anonymous": false,
      "inputs": [
        {
          "indexed": false,
          "internalType": "uint32",
          "name": "originNetwork",
          "type": "uint32"
        },
        {
          "indexed": false,
          "internalType": "address",
          "name": "originTokenAddress",
          "type": "address"
        },
        {
          "indexed": false,
          "internalType": "address",
          "name": "wrappedTokenAddress",
          "type": "address"
        }
      ],
      "name": "NewWrappedToken",
      "type": "event"
    },
    {
      "inputs": [],
      "name": "MAINNET_NETWORK_ID",
      "outputs": [
        {
          "internalType": "uint32",
          "name": "",
          "type": "uint32"
        }
      ],
      "stateMutability": "view",
      "type": "function"
    },
    {
      "inputs": [
        {
          "internalType": "address",
          "name": "token",
          "type": "address"
        },
        {
          "internalType": "uint32",
          "name": "destinationNetwork",
          "type": "uint32"
        },
        {
          "internalType": "address",
          "name": "destinationAddress",
          "type": "address"
        },
        {
          "internalType": "uint256",
          "name": "amount",
          "type": "uint256"
        }
      ],
      "name": "bridge",
      "outputs": [],
      "stateMutability": "payable",
      "type": "function"
    },
    {
      "inputs": [
        {
          "internalType": "bytes32[]",
          "name": "smtProof",
          "type": "bytes32[]"
        },
        {
          "internalType": "uint32",
          "name": "index",
          "type": "uint32"
        },
        {
          "internalType": "bytes32",
          "name": "mainnetExitRoot",
          "type": "bytes32"
        },
        {
          "internalType": "bytes32",
          "name": "rollupExitRoot",
          "type": "bytes32"
        },
        {
          "internalType": "uint32",
          "name": "originNetwork",
          "type": "uint32"
        },
        {
          "internalType": "address",
          "name": "originTokenAddress",
          "type": "address"
        },
        {
          "internalType": "uint32",
          "name": "destinationNetwork",
          "type": "uint32"
        },
        {
          "internalType": "address",
          "name": "destinationAddress",
          "type": "address"
        },
        {
          "internalType": "uint256",
          "name": "amount",
          "type": "uint256"
        },
        {
          "internalType": "bytes",
          "name": "metadata",
          "type": "bytes"
        }
      ],
      "name": "claim",
      "outputs": [],
      "stateMutability": "nonpayable",
      "type": "function"
    },
    {
      "inputs": [
        {
          "internalType": "uint256",
          "name": "",
          "type": "uint256"
        }
      ],
      "name": "claimNullifier",
      "outputs": [
        {
          "internalType": "bool",
          "name": "",
          "type": "bool"
        }
      ],
      "stateMutability": "view",
      "type": "function"
    },
    {
      "inputs": [],
      "name": "depositCount",
      "outputs": [
        {
          "internalType": "uint256",
          "name": "",
          "type": "uint256"
        }
      ],
      "stateMutability": "view",
      "type": "function"
    },
    {
      "inputs": [],
      "name": "getDepositRoot",
      "outputs": [
        {
          "internalType": "bytes32",
          "name": "",
          "type": "bytes32"
        }
      ],
      "stateMutability": "view",
      "type": "function"
    },
    {
      "inputs": [
        {
          "internalType": "uint32",
          "name": "originNetwork",
          "type": "uint32"
        },
        {
          "internalType": "address",
          "name": "originTokenAddress",
          "type": "address"
        },
        {
          "internalType": "uint32",
          "name": "destinationNetwork",
          "type": "uint32"
        },
        {
          "internalType": "address",
          "name": "destinationAddress",
          "type": "address"
        },
        {
          "internalType": "uint256",
          "name": "amount",
          "type": "uint256"
        },
        {
          "internalType": "bytes32",
          "name": "metadataHash",
          "type": "bytes32"
        }
      ],
      "name": "getLeafValue",
      "outputs": [
        {
          "internalType": "bytes32",
          "name": "",
          "type": "bytes32"
        }
      ],
      "stateMutability": "pure",
      "type": "function"
    },
    {
      "inputs": [
        {
          "internalType": "uint32",
          "name": "originNetwork",
          "type": "uint32"
        },
        {
          "internalType": "address",
          "name": "originTokenAddress",
          "type": "address"
        }
      ],
      "name": "getTokenWrappedAddress",
      "outputs": [
        {
          "internalType": "address",
          "name": "",
          "type": "address"
        }
      ],
      "stateMutability": "view",
      "type": "function"
    },
    {
      "inputs": [],
      "name": "globalExitRootManager",
      "outputs": [
        {
          "internalType": "contract IGlobalExitRootManager",
          "name": "",
          "type": "address"
        }
      ],
      "stateMutability": "view",
      "type": "function"
    },
    {
      "inputs": [
        {
          "internalType": "uint32",
          "name": "_networkID",
          "type": "uint32"
        },
        {
          "internalType": "contract IGlobalExitRootManager",
          "name": "_globalExitRootManager",
          "type": "address"
        }
      ],
      "name": "initialize",
      "outputs": [],
      "stateMutability": "nonpayable",
      "type": "function"
    },
    {
      "inputs": [],
      "name": "networkID",
      "outputs": [
        {
          "internalType": "uint32",
          "name": "",
          "type": "uint32"
        }
      ],
      "stateMutability": "view",
      "type": "function"
    },
    {
      "inputs": [
        {
          "internalType": "uint32",
          "name": "originNetwork",
          "type": "uint32"
        },
        {
          "internalType": "address",
          "name": "originTokenAddress",
          "type": "address"
        }
      ],
      "name": "precalculatedWrapperAddress",
      "outputs": [
        {
          "internalType": "address",
          "name": "",
          "type": "address"
        }
      ],
      "stateMutability": "view",
      "type": "function"
    },
    {
      "inputs": [],
      "name": "tokenImplementation",
      "outputs": [
        {
          "internalType": "address",
          "name": "",
          "type": "address"
        }
      ],
      "stateMutability": "view",
      "type": "function"
    },
    {
      "inputs": [
        {
          "internalType": "bytes32",
          "name": "",
          "type": "bytes32"
        }
      ],
      "name": "tokenInfoToWrappedToken",
      "outputs": [
        {
          "internalType": "address",
          "name": "",
          "type": "address"
        }
      ],
      "stateMutability": "view",
      "type": "function"
    },
    {
      "inputs": [
        {
          "internalType": "bytes32",
          "name": "leafHash",
          "type": "bytes32"
        },
        {
          "internalType": "bytes32[]",
          "name": "smtProof",
          "type": "bytes32[]"
        },
        {
          "internalType": "uint64",
          "name": "index",
          "type": "uint64"
        },
        {
          "internalType": "bytes32",
          "name": "root",
          "type": "bytes32"
        }
      ],
      "name": "verifyMerkleProof",
      "outputs": [
        {
          "internalType": "bool",
          "name": "",
          "type": "bool"
        }
      ],
      "stateMutability": "pure",
      "type": "function"
    },
    {
      "inputs": [
        {
          "internalType": "address",
          "name": "",
          "type": "address"
        }
      ],
      "name": "wrappedTokenToTokenInfo",
      "outputs": [
        {
          "internalType": "uint32",
          "name": "originNetwork",
          "type": "uint32"
        },
        {
          "internalType": "address",
          "name": "originTokenAddress",
          "type": "address"
        }
      ],
      "stateMutability": "view",
      "type": "function"
    }
  ],
  "bytecode": "0x608060405234801561001057600080fd5b50614713806100206000396000f3fe608060405260043610620001075760003560e01c806381b1c1741162000095578063bab161bf1162000060578063bab161bf1462000414578063d02103ca1462000449578063e73758811462000478578063ed6be5c914620004ac57600080fd5b806381b1c174146200036c5780638624c35c14620003b3578063b33f805914620003d8578063b7e6a7d414620003ef57600080fd5b80633ae0504711620000d65780633ae05047146200023a5780633da8168214620002525780635a64a1da14620002885780635d5d326f146200034557600080fd5b806322e95f2c146200010c5780632dfdf0b5146200015b5780632f3a3d5d1462000182578063318aee3d14620001b1575b600080fd5b3480156200011957600080fd5b50620001316200012b366004620024d4565b620004c3565b60405173ffffffffffffffffffffffffffffffffffffffff90911681526020015b60405180910390f35b3480156200016857600080fd5b506200017360415481565b60405190815260200162000152565b3480156200018f57600080fd5b50604754620001319073ffffffffffffffffffffffffffffffffffffffff1681565b348015620001be57600080fd5b5062000208620001d036600462002510565b60456020526000908152604090205463ffffffff811690640100000000900473ffffffffffffffffffffffffffffffffffffffff1682565b6040805163ffffffff909316835273ffffffffffffffffffffffffffffffffffffffff90911660208301520162000152565b3480156200024757600080fd5b506200017362000566565b3480156200025f57600080fd5b5062000277620002713660046200262f565b62000640565b604051901515815260200162000152565b3480156200029557600080fd5b5062000173620002a73660046200269d565b604080517fffffffff0000000000000000000000000000000000000000000000000000000060e098891b81166020808401919091527fffffffffffffffffffffffffffffffffffffffff0000000000000000000000006060998a1b811660248501529790991b1660388201529390951b909316603c830152605082015260708082019290925282518082039092018252609001909152805191012090565b3480156200035257600080fd5b506200036a62000364366004620027b5565b62000740565b005b3480156200037957600080fd5b50620001316200038b3660046200289c565b60446020526000908152604090205473ffffffffffffffffffffffffffffffffffffffff1681565b348015620003c057600080fd5b506200036a620003d2366004620024d4565b620011f3565b6200036a620003e9366004620028b6565b62001471565b348015620003fc57600080fd5b50620001316200040e366004620024d4565b62001bcf565b3480156200042157600080fd5b50604254620004339063ffffffff1681565b60405163ffffffff909116815260200162000152565b3480156200045657600080fd5b50604654620001319073ffffffffffffffffffffffffffffffffffffffff1681565b3480156200048557600080fd5b5062000277620004973660046200289c565b60436020526000908152604090205460ff1681565b348015620004b957600080fd5b5062000433600081565b6040805160e084901b7fffffffff0000000000000000000000000000000000000000000000000000000016602080830191909152606084901b7fffffffffffffffffffffffffffffffffffffffff000000000000000000000000166024830152825160188184030181526038909201835281519181019190912060009081526044909152205473ffffffffffffffffffffffffffffffffffffffff165b92915050565b6041546000908190815b6020811015620006385781600116600103620005d057600181602081106200059c576200059c6200290c565b0154604080516020810192909252810184905260600160405160208183030381529060405280519060200120925062000614565b8260218260208110620005e757620005e76200290c565b01546040805160208101939093528201526060016040516020818303038152906040528051906020012092505b620006216002836200296a565b9150806200062f81620029a6565b91505062000570565b509092915050565b60008467ffffffffffffffff8416825b6020811015620007335781600116600103620006bd578681815181106200067b576200067b6200290c565b6020026020010151836040516020016200069f929190918252602082015260400190565b6040516020818303038152906040528051906020012092506200070f565b82878281518110620006d357620006d36200290c565b6020026020010151604051602001620006f6929190918252602082015260400190565b6040516020818303038152906040528051906020012092505b6200071c6002836200296a565b9150806200072a81620029a6565b91505062000650565b5050909114949350505050565b63ffffffff891660009081526043602052604090205460ff1615620007c6576040517f08c379a000000000000000000000000000000000000000000000000000000000815260206004820152601e60248201527f4272696467653a3a636c61696d3a20414c52454144595f434c41494d4544000060448201526064015b60405180910390fd5b6046546040805160208082018c90528183018b9052825180830384018152606083019384905280519101207f257b363200000000000000000000000000000000000000000000000000000000909252606481019190915273ffffffffffffffffffffffffffffffffffffffff9091169063257b3632906084016020604051808303816000875af11580156200085f573d6000803e3d6000fd5b505050506040513d601f19601f82011682018060405250810190620008859190620029e1565b60000362000916576040517f08c379a000000000000000000000000000000000000000000000000000000000815260206004820152602e60248201527f4272696467653a3a636c61696d3a20474c4f42414c5f455849545f524f4f545f60448201527f444f45535f4e4f545f4d415443480000000000000000000000000000000000006064820152608401620007bd565b60425463ffffffff858116911614620009b2576040517f08c379a000000000000000000000000000000000000000000000000000000000815260206004820152603160248201527f4272696467653a3a636c61696d3a2044455354494e4154494f4e5f4e4554574f60448201527f524b5f444f45535f4e4f545f4d415443480000000000000000000000000000006064820152608401620007bd565b60425463ffffffff1662000ae3578051602080830191909120604080517fffffffff0000000000000000000000000000000000000000000000000000000060e08b811b8216838701527fffffffffffffffffffffffffffffffffffffffff00000000000000000000000060608c811b82166024860152918b901b909216603884015288901b16603c82015260508101869052607080820193909352815180820390930183526090019052805191012062000a75908b8b63ffffffff168a62000640565b62000add576040517f08c379a000000000000000000000000000000000000000000000000000000000815260206004820152601a60248201527f4272696467653a3a636c61696d3a20534d545f494e56414c49440000000000006044820152606401620007bd565b62000c00565b8051602080830191909120604080517fffffffff0000000000000000000000000000000000000000000000000000000060e08b811b8216838701527fffffffffffffffffffffffffffffffffffffffff00000000000000000000000060608c811b82166024860152918b901b909216603884015288901b16603c82015260508101869052607080820193909352815180820390930183526090019052805191012062000b98908b8b63ffffffff168b62000640565b62000c00576040517f08c379a000000000000000000000000000000000000000000000000000000000815260206004820152601a60248201527f4272696467653a3a636c61696d3a20534d545f494e56414c49440000000000006044820152606401620007bd565b63ffffffff8916600090815260436020526040902080547fffffffffffffffffffffffffffffffffffffffffffffffffffffffffffffff0016600117905573ffffffffffffffffffffffffffffffffffffffff851662000d71576040805160008082526020820190925273ffffffffffffffffffffffffffffffffffffffff851690849060405162000c93919062002a2a565b60006040518083038185875af1925050503d806000811462000cd2576040519150601f19603f3d011682016040523d82523d6000602084013e62000cd7565b606091505b505090508062000d6a576040517f08c379a000000000000000000000000000000000000000000000000000000000815260206004820152602260248201527f4272696467653a3a636c61696d3a204554485f5452414e534645525f4641494c60448201527f45440000000000000000000000000000000000000000000000000000000000006064820152608401620007bd565b506200117c565b60425463ffffffff9081169087160362000dae5762000da873ffffffffffffffffffffffffffffffffffffffff8616848462001c98565b6200117c565b6040517fffffffff0000000000000000000000000000000000000000000000000000000060e088901b1660208201527fffffffffffffffffffffffffffffffffffffffff000000000000000000000000606087901b166024820152600090603801604080517fffffffffffffffffffffffffffffffffffffffffffffffffffffffffffffffe081840301815291815281516020928301206000818152604490935291205490915073ffffffffffffffffffffffffffffffffffffffff1680620010db5760475460009062000e999073ffffffffffffffffffffffffffffffffffffffff168462001d6e565b905060008060008680602001905181019062000eb6919062002aa6565b9250925092508373ffffffffffffffffffffffffffffffffffffffff16636c9452218484848d8d6040518663ffffffff1660e01b815260040162000eff95949392919062002b6f565b600060405180830381600087803b15801562000f1a57600080fd5b505af115801562000f2f573d6000803e3d6000fd5b50505050836044600088815260200190815260200160002060006101000a81548173ffffffffffffffffffffffffffffffffffffffff021916908373ffffffffffffffffffffffffffffffffffffffff16021790555060405180604001604052808d63ffffffff1681526020018c73ffffffffffffffffffffffffffffffffffffffff16815250604560008673ffffffffffffffffffffffffffffffffffffffff1673ffffffffffffffffffffffffffffffffffffffff16815260200190815260200160002060008201518160000160006101000a81548163ffffffff021916908363ffffffff16021790555060208201518160000160046101000a81548173ffffffffffffffffffffffffffffffffffffffff021916908373ffffffffffffffffffffffffffffffffffffffff1602179055509050507fccd7715648d1f2bb13e158f96b5b6c3aeda555d4cb87112e274a6f28bc571d598c8c86604051620010c99392919063ffffffff93909316835273ffffffffffffffffffffffffffffffffffffffff918216602084015216604082015260600190565b60405180910390a15050505062001179565b6040517f40c10f1900000000000000000000000000000000000000000000000000000000815273ffffffffffffffffffffffffffffffffffffffff8681166004830152602482018690528216906340c10f19906044016020604051808303816000875af115801562001151573d6000803e3d6000fd5b505050506040513d601f19601f8201168201806040525081019062001177919062002bcf565b505b50505b6040805163ffffffff8b811682528816602082015273ffffffffffffffffffffffffffffffffffffffff87811682840152851660608201526080810184905290517f25308c93ceeed162da955b3f7ce3e3f93606579e40fb92029faa9efe275459839181900360a00190a150505050505050505050565b600054610100900460ff1615808015620012145750600054600160ff909116105b80620012305750303b15801562001230575060005460ff166001145b620012be576040517f08c379a000000000000000000000000000000000000000000000000000000000815260206004820152602e60248201527f496e697469616c697a61626c653a20636f6e747261637420697320616c72656160448201527f647920696e697469616c697a65640000000000000000000000000000000000006064820152608401620007bd565b600080547fffffffffffffffffffffffffffffffffffffffffffffffffffffffffffffff0016600117905580156200131d57600080547fffffffffffffffffffffffffffffffffffffffffffffffffffffffffffff00ff166101001790555b604280547fffffffffffffffffffffffffffffffffffffffffffffffffffffffff000000001663ffffffff8516179055604680547fffffffffffffffffffffffff00000000000000000000000000000000000000001673ffffffffffffffffffffffffffffffffffffffff84161790556040516200139b906200247c565b604051809103906000f080158015620013b8573d6000803e3d6000fd5b50604780547fffffffffffffffffffffffff00000000000000000000000000000000000000001673ffffffffffffffffffffffffffffffffffffffff929092169190911790556200140862001e4e565b80156200146c57600080547fffffffffffffffffffffffffffffffffffffffffffffffffffffffffffff00ff169055604051600181527f7f26b83ff96e1f2b6a682f133852f6798a09c465da95921460cefb38474024989060200160405180910390a15b505050565b600054610100900460ff1615808015620014925750600054600160ff909116105b80620014ae5750303b158015620014ae575060005460ff166001145b6200153c576040517f08c379a000000000000000000000000000000000000000000000000000000000815260206004820152602e60248201527f496e697469616c697a61626c653a20636f6e747261637420697320616c72656160448201527f647920696e697469616c697a65640000000000000000000000000000000000006064820152608401620007bd565b600080547fffffffffffffffffffffffffffffffffffffffffffffffffffffffffffffff0016600117905580156200159b57600080547fffffffffffffffffffffffffffffffffffffffffffffffffffffffffffff00ff166101001790555b60425463ffffffff9081169085160362001638576040517f08c379a000000000000000000000000000000000000000000000000000000000815260206004820152602a60248201527f4272696467653a3a6272696467653a2044455354494e4154494f4e5f43414e5460448201527f5f42455f495453454c46000000000000000000000000000000000000000000006064820152608401620007bd565b600080606073ffffffffffffffffffffffffffffffffffffffff8816620016f457843414620016ea576040517f08c379a000000000000000000000000000000000000000000000000000000000815260206004820152602f60248201527f4272696467653a3a6272696467653a20414d4f554e545f444f45535f4e4f545f60448201527f4d415443485f4d53475f56414c554500000000000000000000000000000000006064820152608401620007bd565b60009150620019f3565b73ffffffffffffffffffffffffffffffffffffffff80891660009081526045602090815260409182902082518084019093525463ffffffff8116835264010000000090049092169181018290529015620017f5576040517f9dc29fac0000000000000000000000000000000000000000000000000000000081523360048201526024810187905273ffffffffffffffffffffffffffffffffffffffff8a1690639dc29fac906044016020604051808303816000875af1158015620017bc573d6000803e3d6000fd5b505050506040513d601f19601f82011682018060405250810190620017e2919062002bcf565b50602081015181519094509250620019f1565b6200181973ffffffffffffffffffffffffffffffffffffffff8a1633308962001f96565b889350604260009054906101000a900463ffffffff1692508873ffffffffffffffffffffffffffffffffffffffff166306fdde036040518163ffffffff1660e01b8152600401600060405180830381865afa1580156200187d573d6000803e3d6000fd5b505050506040513d6000823e601f3d9081017fffffffffffffffffffffffffffffffffffffffffffffffffffffffffffffffe0168201604052620018c5919081019062002bf3565b8973ffffffffffffffffffffffffffffffffffffffff166395d89b416040518163ffffffff1660e01b8152600401600060405180830381865afa15801562001911573d6000803e3d6000fd5b505050506040513d6000823e601f3d9081017fffffffffffffffffffffffffffffffffffffffffffffffffffffffffffffffe016820160405262001959919081019062002bf3565b8a73ffffffffffffffffffffffffffffffffffffffff1663313ce5676040518163ffffffff1660e01b8152600401602060405180830381865afa158015620019a5573d6000803e3d6000fd5b505050506040513d601f19601f82011682018060405250810190620019cb919062002c2c565b604051602001620019df9392919062002c4a565b60405160208183030381529060405291505b505b7ff0b963192bdc6349c23af9bd17294b4c7b9b5a73a2a9939610ea18ffd1c5dc2a82848989898660415460405162001a32979695949392919062002c87565b60405180910390a18051602080830191909120604080517fffffffff0000000000000000000000000000000000000000000000000000000060e087811b8216838701527fffffffffffffffffffffffffffffffffffffffff00000000000000000000000060608a811b82166024860152918e901b90921660388401528b901b16603c82015260508101899052607080820193909352815180820390930183526090019052805191012062001ae69062001ffc565b60465473ffffffffffffffffffffffffffffffffffffffff166333d6247d62001b0e62000566565b6040518263ffffffff1660e01b815260040162001b2d91815260200190565b600060405180830381600087803b15801562001b4857600080fd5b505af115801562001b5d573d6000803e3d6000fd5b50505050505050801562001bc857600080547fffffffffffffffffffffffffffffffffffffffffffffffffffffffffffff00ff169055604051600181527f7f26b83ff96e1f2b6a682f133852f6798a09c465da95921460cefb38474024989060200160405180910390a15b5050505050565b6040517fffffffff0000000000000000000000000000000000000000000000000000000060e084901b1660208201527fffffffffffffffffffffffffffffffffffffffff000000000000000000000000606083901b1660248201526000908190603801604080517fffffffffffffffffffffffffffffffffffffffffffffffffffffffffffffffe0818403018152919052805160209091012060475490915062001c909073ffffffffffffffffffffffffffffffffffffffff168262002175565b949350505050565b60405173ffffffffffffffffffffffffffffffffffffffff83166024820152604481018290526200146c9084907fa9059cbb00000000000000000000000000000000000000000000000000000000906064015b604080517fffffffffffffffffffffffffffffffffffffffffffffffffffffffffffffffe08184030181529190526020810180517bffffffffffffffffffffffffffffffffffffffffffffffffffffffff167fffffffff0000000000000000000000000000000000000000000000000000000090931692909217909152620021f9565b60006040517f3d602d80600a3d3981f3363d3d373d3d3d363d7300000000000000000000000081528360601b60148201527f5af43d82803e903d91602b57fd5bf300000000000000000000000000000000006028820152826037826000f591505073ffffffffffffffffffffffffffffffffffffffff811662000560576040517f08c379a000000000000000000000000000000000000000000000000000000000815260206004820152601760248201527f455243313136373a2063726561746532206661696c65640000000000000000006044820152606401620007bd565b600054610100900460ff1662001ee7576040517f08c379a000000000000000000000000000000000000000000000000000000000815260206004820152602b60248201527f496e697469616c697a61626c653a20636f6e7472616374206973206e6f74206960448201527f6e697469616c697a696e670000000000000000000000000000000000000000006064820152608401620007bd565b60005b62001ef86001602062002cf4565b81101562001f93576021816020811062001f165762001f166200290c565b01546021826020811062001f2e5762001f2e6200290c565b015460408051602081019390935282015260600160405160208183030381529060405280519060200120602182600162001f69919062002d0e565b6020811062001f7c5762001f7c6200290c565b01558062001f8a81620029a6565b91505062001eea565b50565b60405173ffffffffffffffffffffffffffffffffffffffff8085166024830152831660448201526064810182905262001ff69085907f23b872dd000000000000000000000000000000000000000000000000000000009060840162001ceb565b50505050565b8060016200200d6020600262002e62565b62002019919062002cf4565b60415410620020ab576040517f08c379a000000000000000000000000000000000000000000000000000000000815260206004820152602a60248201527f4465706f736974436f6e74726163743a5f6465706f7369743a204d45524b4c4560448201527f5f545245455f46554c4c000000000000000000000000000000000000000000006064820152608401620007bd565b600160416000828254620020c0919062002d0e565b909155505060415460005b60208110156200216a578160011660010362002100578260018260208110620020f857620020f86200290c565b015550505050565b600181602081106200211657620021166200290c565b015460408051602081019290925281018490526060016040516020818303038152906040528051906020012092506002826200215391906200296a565b9150806200216181620029a6565b915050620020cb565b506200146c62002e70565b6000620021f28383306040517f3d602d80600a3d3981f3363d3d373d3d3d363d730000000000000000000000008152606093841b60148201527f5af43d82803e903d91602b57fd5bf3ff000000000000000000000000000000006028820152921b6038830152604c8201526037808220606c830152605591012090565b9392505050565b60006200225d826040518060400160405280602081526020017f5361666545524332303a206c6f772d6c6576656c2063616c6c206661696c65648152508573ffffffffffffffffffffffffffffffffffffffff166200230c9092919063ffffffff16565b8051909150156200146c57808060200190518101906200227e919062002bcf565b6200146c576040517f08c379a000000000000000000000000000000000000000000000000000000000815260206004820152602a60248201527f5361666545524332303a204552433230206f7065726174696f6e20646964206e60448201527f6f742073756363656564000000000000000000000000000000000000000000006064820152608401620007bd565b606062001c9084846000858573ffffffffffffffffffffffffffffffffffffffff85163b62002398576040517f08c379a000000000000000000000000000000000000000000000000000000000815260206004820152601d60248201527f416464726573733a2063616c6c20746f206e6f6e2d636f6e74726163740000006044820152606401620007bd565b6000808673ffffffffffffffffffffffffffffffffffffffff168587604051620023c3919062002a2a565b60006040518083038185875af1925050503d806000811462002402576040519150601f19603f3d011682016040523d82523d6000602084013e62002407565b606091505b50915091506200241982828662002424565b979650505050505050565b6060831562002435575081620021f2565b825115620024465782518084602001fd5b816040517f08c379a0000000000000000000000000000000000000000000000000000000008152600401620007bd919062002e9f565b6118298062002eb583390190565b803563ffffffff811681146200249f57600080fd5b919050565b73ffffffffffffffffffffffffffffffffffffffff8116811462001f9357600080fd5b80356200249f81620024a4565b60008060408385031215620024e857600080fd5b620024f3836200248a565b915060208301356200250581620024a4565b809150509250929050565b6000602082840312156200252357600080fd5b8135620021f281620024a4565b7f4e487b7100000000000000000000000000000000000000000000000000000000600052604160045260246000fd5b604051601f82017fffffffffffffffffffffffffffffffffffffffffffffffffffffffffffffffe016810167ffffffffffffffff81118282101715620025a957620025a962002530565b604052919050565b600082601f830112620025c357600080fd5b8135602067ffffffffffffffff821115620025e257620025e262002530565b8160051b620025f38282016200255f565b92835284810182019282810190878511156200260e57600080fd5b83870192505b84831015620024195782358252918301919083019062002614565b600080600080608085870312156200264657600080fd5b84359350602085013567ffffffffffffffff808211156200266657600080fd5b6200267488838901620025b1565b94506040870135915080821682146200268c57600080fd5b509396929550929360600135925050565b60008060008060008060c08789031215620026b757600080fd5b620026c2876200248a565b95506020870135620026d481620024a4565b9450620026e4604088016200248a565b93506060870135620026f681620024a4565b9598949750929560808101359460a0909101359350915050565b600067ffffffffffffffff8211156200272d576200272d62002530565b50601f017fffffffffffffffffffffffffffffffffffffffffffffffffffffffffffffffe01660200190565b600082601f8301126200276b57600080fd5b8135620027826200277c8262002710565b6200255f565b8181528460208386010111156200279857600080fd5b816020850160208301376000918101602001919091529392505050565b6000806000806000806000806000806101408b8d031215620027d657600080fd5b8a3567ffffffffffffffff80821115620027ef57600080fd5b620027fd8e838f01620025b1565b9b506200280d60208e016200248a565b9a5060408d0135995060608d013598506200282b60808e016200248a565b97506200283b60a08e01620024c7565b96506200284b60c08e016200248a565b95506200285b60e08e01620024c7565b94506101008d013593506101208d01359150808211156200287b57600080fd5b506200288a8d828e0162002759565b9150509295989b9194979a5092959850565b600060208284031215620028af57600080fd5b5035919050565b60008060008060808587031215620028cd57600080fd5b8435620028da81620024a4565b9350620028ea602086016200248a565b92506040850135620028fc81620024a4565b9396929550929360600135925050565b7f4e487b7100000000000000000000000000000000000000000000000000000000600052603260045260246000fd5b7f4e487b7100000000000000000000000000000000000000000000000000000000600052601160045260246000fd5b600082620029a1577f4e487b7100000000000000000000000000000000000000000000000000000000600052601260045260246000fd5b500490565b60007fffffffffffffffffffffffffffffffffffffffffffffffffffffffffffffffff8203620029da57620029da6200293b565b5060010190565b600060208284031215620029f457600080fd5b5051919050565b60005b8381101562002a18578181015183820152602001620029fe565b8381111562001ff65750506000910152565b6000825162002a3e818460208701620029fb565b9190910192915050565b600082601f83011262002a5a57600080fd5b815162002a6b6200277c8262002710565b81815284602083860101111562002a8157600080fd5b62001c90826020830160208701620029fb565b805160ff811681146200249f57600080fd5b60008060006060848603121562002abc57600080fd5b835167ffffffffffffffff8082111562002ad557600080fd5b62002ae38783880162002a48565b9450602086015191508082111562002afa57600080fd5b5062002b098682870162002a48565b92505062002b1a6040850162002a94565b90509250925092565b6000815180845262002b3d816020860160208601620029fb565b601f017fffffffffffffffffffffffffffffffffffffffffffffffffffffffffffffffe0169290920160200192915050565b60a08152600062002b8460a083018862002b23565b828103602084015262002b98818862002b23565b60ff969096166040840152505073ffffffffffffffffffffffffffffffffffffffff92909216606083015260809091015292915050565b60006020828403121562002be257600080fd5b81518015158114620021f257600080fd5b60006020828403121562002c0657600080fd5b815167ffffffffffffffff81111562002c1e57600080fd5b62001c908482850162002a48565b60006020828403121562002c3f57600080fd5b620021f28262002a94565b60608152600062002c5f606083018662002b23565b828103602084015262002c73818662002b23565b91505060ff83166040830152949350505050565b600063ffffffff808a16835273ffffffffffffffffffffffffffffffffffffffff808a166020850152818916604085015280881660608501525085608084015260e060a084015262002cdd60e084018662002b23565b915080841660c08401525098975050505050505050565b60008282101562002d095762002d096200293b565b500390565b6000821982111562002d245762002d246200293b565b500190565b600181815b8085111562002d8857817fffffffffffffffffffffffffffffffffffffffffffffffffffffffffffffffff0482111562002d6c5762002d6c6200293b565b8085161562002d7a57918102915b93841c939080029062002d2e565b509250929050565b60008262002da15750600162000560565b8162002db05750600062000560565b816001811462002dc9576002811462002dd45762002df4565b600191505062000560565b60ff84111562002de85762002de86200293b565b50506001821b62000560565b5060208310610133831016604e8410600b841016171562002e19575081810a62000560565b62002e25838362002d29565b807fffffffffffffffffffffffffffffffffffffffffffffffffffffffffffffffff0482111562002e5a5762002e5a6200293b565b029392505050565b6000620021f2838362002d90565b7f4e487b7100000000000000000000000000000000000000000000000000000000600052600160045260246000fd5b602081526000620021f2602083018462002b2356fe60806040523480156200001157600080fd5b50600054610100900460ff1615808015620000335750600054600160ff909116105b8062000063575062000050306200013d60201b6200080a1760201c565b15801562000063575060005460ff166001145b620000cb5760405162461bcd60e51b815260206004820152602e60248201527f496e697469616c697a61626c653a20636f6e747261637420697320616c72656160448201526d191e481a5b9a5d1a585b1a5e995960921b606482015260840160405180910390fd5b6000805460ff191660011790558015620000ef576000805461ff0019166101001790555b801562000136576000805461ff0019169055604051600181527f7f26b83ff96e1f2b6a682f133852f6798a09c465da95921460cefb38474024989060200160405180910390a15b506200014c565b6001600160a01b03163b151590565b6116cd806200015c6000396000f3fe608060405234801561001057600080fd5b50600436106100f55760003560e01c80636c94522111610097578063a3c573eb11610066578063a3c573eb1461021c578063a457c2d714610261578063a9059cbb14610274578063dd62ed3e1461028757600080fd5b80636c945221146101b657806370a08231146101cb57806395d89b41146102015780639dc29fac1461020957600080fd5b806323b872dd116100d357806323b872dd1461014d578063313ce56714610160578063395093511461019057806340c10f19146101a357600080fd5b806306fdde03146100fa578063095ea7b31461011857806318160ddd1461013b575b600080fd5b6101026102cd565b60405161010f91906111c0565b60405180910390f35b61012b61012636600461125c565b61035f565b604051901515815260200161010f565b6035545b60405190815260200161010f565b61012b61015b366004611286565b610377565b60655474010000000000000000000000000000000000000000900460ff1660405160ff909116815260200161010f565b61012b61019e36600461125c565b61039b565b61012b6101b136600461125c565b6103e7565b6101c96101c436600461139c565b610483565b005b61013f6101d9366004611431565b73ffffffffffffffffffffffffffffffffffffffff1660009081526033602052604090205490565b61010261068e565b61012b61021736600461125c565b61069d565b60655461023c9073ffffffffffffffffffffffffffffffffffffffff1681565b60405173ffffffffffffffffffffffffffffffffffffffff909116815260200161010f565b61012b61026f36600461125c565b61072b565b61012b61028236600461125c565b6107fc565b61013f610295366004611453565b73ffffffffffffffffffffffffffffffffffffffff918216600090815260346020908152604080832093909416825291909152205490565b6060603680546102dc90611486565b80601f016020809104026020016040519081016040528092919081815260200182805461030890611486565b80156103555780601f1061032a57610100808354040283529160200191610355565b820191906000526020600020905b81548152906001019060200180831161033857829003601f168201915b5050505050905090565b60003361036d818585610826565b5060019392505050565b6000336103858582856109da565b610390858585610ab1565b506001949350505050565b33600081815260346020908152604080832073ffffffffffffffffffffffffffffffffffffffff8716845290915281205490919061036d90829086906103e2908790611508565b610826565b60655460009073ffffffffffffffffffffffffffffffffffffffff163314610470576040517f08c379a000000000000000000000000000000000000000000000000000000000815260206004820152601760248201527f546f6b656e577261707065643a4e4f545f42524944474500000000000000000060448201526064015b60405180910390fd5b61047a8383610d64565b50600192915050565b600054610100900460ff16158080156104a35750600054600160ff909116105b806104bd5750303b1580156104bd575060005460ff166001145b610549576040517f08c379a000000000000000000000000000000000000000000000000000000000815260206004820152602e60248201527f496e697469616c697a61626c653a20636f6e747261637420697320616c72656160448201527f647920696e697469616c697a65640000000000000000000000000000000000006064820152608401610467565b600080547fffffffffffffffffffffffffffffffffffffffffffffffffffffffffffffff0016600117905580156105a757600080547fffffffffffffffffffffffffffffffffffffffffffffffffffffffffffff00ff166101001790555b6105b18686610e85565b606580547fffffffffffffffffffffff00000000000000000000000000000000000000000016337fffffffffffffffffffffff00ffffffffffffffffffffffffffffffffffffffff16177401000000000000000000000000000000000000000060ff8716021790556106238383610d64565b801561068657600080547fffffffffffffffffffffffffffffffffffffffffffffffffffffffffffff00ff169055604051600181527f7f26b83ff96e1f2b6a682f133852f6798a09c465da95921460cefb38474024989060200160405180910390a15b505050505050565b6060603780546102dc90611486565b60655460009073ffffffffffffffffffffffffffffffffffffffff163314610721576040517f08c379a000000000000000000000000000000000000000000000000000000000815260206004820152601760248201527f546f6b656e577261707065643a4e4f545f4252494447450000000000000000006044820152606401610467565b61047a8383610f26565b33600081815260346020908152604080832073ffffffffffffffffffffffffffffffffffffffff87168452909152812054909190838110156107ef576040517f08c379a000000000000000000000000000000000000000000000000000000000815260206004820152602560248201527f45524332303a2064656372656173656420616c6c6f77616e63652062656c6f7760448201527f207a65726f0000000000000000000000000000000000000000000000000000006064820152608401610467565b6103908286868403610826565b60003361036d818585610ab1565b73ffffffffffffffffffffffffffffffffffffffff163b151590565b73ffffffffffffffffffffffffffffffffffffffff83166108c8576040517f08c379a0000000000000000000000000000000000000000000000000000000008152602060048201526024808201527f45524332303a20617070726f76652066726f6d20746865207a65726f2061646460448201527f72657373000000000000000000000000000000000000000000000000000000006064820152608401610467565b73ffffffffffffffffffffffffffffffffffffffff821661096b576040517f08c379a000000000000000000000000000000000000000000000000000000000815260206004820152602260248201527f45524332303a20617070726f766520746f20746865207a65726f20616464726560448201527f73730000000000000000000000000000000000000000000000000000000000006064820152608401610467565b73ffffffffffffffffffffffffffffffffffffffff83811660008181526034602090815260408083209487168084529482529182902085905590518481527f8c5be1e5ebec7d5bd14f71427d1e84f3dd0314c0f7b2291e5b200ac8c7c3b92591015b60405180910390a3505050565b73ffffffffffffffffffffffffffffffffffffffff8381166000908152603460209081526040808320938616835292905220547fffffffffffffffffffffffffffffffffffffffffffffffffffffffffffffffff8114610aab5781811015610a9e576040517f08c379a000000000000000000000000000000000000000000000000000000000815260206004820152601d60248201527f45524332303a20696e73756666696369656e7420616c6c6f77616e63650000006044820152606401610467565b610aab8484848403610826565b50505050565b73ffffffffffffffffffffffffffffffffffffffff8316610b54576040517f08c379a000000000000000000000000000000000000000000000000000000000815260206004820152602560248201527f45524332303a207472616e736665722066726f6d20746865207a65726f20616460448201527f64726573730000000000000000000000000000000000000000000000000000006064820152608401610467565b73ffffffffffffffffffffffffffffffffffffffff8216610bf7576040517f08c379a000000000000000000000000000000000000000000000000000000000815260206004820152602360248201527f45524332303a207472616e7366657220746f20746865207a65726f206164647260448201527f65737300000000000000000000000000000000000000000000000000000000006064820152608401610467565b73ffffffffffffffffffffffffffffffffffffffff831660009081526033602052604090205481811015610cad576040517f08c379a000000000000000000000000000000000000000000000000000000000815260206004820152602660248201527f45524332303a207472616e7366657220616d6f756e742065786365656473206260448201527f616c616e636500000000000000000000000000000000000000000000000000006064820152608401610467565b73ffffffffffffffffffffffffffffffffffffffff808516600090815260336020526040808220858503905591851681529081208054849290610cf1908490611508565b925050819055508273ffffffffffffffffffffffffffffffffffffffff168473ffffffffffffffffffffffffffffffffffffffff167fddf252ad1be2c89b69c2b068fc378daa952ba7f163c4a11628f55a4df523b3ef84604051610d5791815260200190565b60405180910390a3610aab565b73ffffffffffffffffffffffffffffffffffffffff8216610de1576040517f08c379a000000000000000000000000000000000000000000000000000000000815260206004820152601f60248201527f45524332303a206d696e7420746f20746865207a65726f2061646472657373006044820152606401610467565b8060356000828254610df39190611508565b909155505073ffffffffffffffffffffffffffffffffffffffff821660009081526033602052604081208054839290610e2d908490611508565b909155505060405181815273ffffffffffffffffffffffffffffffffffffffff8316906000907fddf252ad1be2c89b69c2b068fc378daa952ba7f163c4a11628f55a4df523b3ef9060200160405180910390a35b5050565b600054610100900460ff16610f1c576040517f08c379a000000000000000000000000000000000000000000000000000000000815260206004820152602b60248201527f496e697469616c697a61626c653a20636f6e7472616374206973206e6f74206960448201527f6e697469616c697a696e670000000000000000000000000000000000000000006064820152608401610467565b610e818282611110565b73ffffffffffffffffffffffffffffffffffffffff8216610fc9576040517f08c379a000000000000000000000000000000000000000000000000000000000815260206004820152602160248201527f45524332303a206275726e2066726f6d20746865207a65726f2061646472657360448201527f73000000000000000000000000000000000000000000000000000000000000006064820152608401610467565b73ffffffffffffffffffffffffffffffffffffffff82166000908152603360205260409020548181101561107f576040517f08c379a000000000000000000000000000000000000000000000000000000000815260206004820152602260248201527f45524332303a206275726e20616d6f756e7420657863656564732062616c616e60448201527f63650000000000000000000000000000000000000000000000000000000000006064820152608401610467565b73ffffffffffffffffffffffffffffffffffffffff831660009081526033602052604081208383039055603580548492906110bb908490611520565b909155505060405182815260009073ffffffffffffffffffffffffffffffffffffffff8516907fddf252ad1be2c89b69c2b068fc378daa952ba7f163c4a11628f55a4df523b3ef906020016109cd565b505050565b600054610100900460ff166111a7576040517f08c379a000000000000000000000000000000000000000000000000000000000815260206004820152602b60248201527f496e697469616c697a61626c653a20636f6e7472616374206973206e6f74206960448201527f6e697469616c697a696e670000000000000000000000000000000000000000006064820152608401610467565b60366111b3838261157d565b50603761110b828261157d565b600060208083528351808285015260005b818110156111ed578581018301518582016040015282016111d1565b818111156111ff576000604083870101525b50601f017fffffffffffffffffffffffffffffffffffffffffffffffffffffffffffffffe016929092016040019392505050565b803573ffffffffffffffffffffffffffffffffffffffff8116811461125757600080fd5b919050565b6000806040838503121561126f57600080fd5b61127883611233565b946020939093013593505050565b60008060006060848603121561129b57600080fd5b6112a484611233565b92506112b260208501611233565b9150604084013590509250925092565b7f4e487b7100000000000000000000000000000000000000000000000000000000600052604160045260246000fd5b600082601f83011261130257600080fd5b813567ffffffffffffffff8082111561131d5761131d6112c2565b604051601f83017fffffffffffffffffffffffffffffffffffffffffffffffffffffffffffffffe0908116603f01168101908282118183101715611363576113636112c2565b8160405283815286602085880101111561137c57600080fd5b836020870160208301376000602085830101528094505050505092915050565b600080600080600060a086880312156113b457600080fd5b853567ffffffffffffffff808211156113cc57600080fd5b6113d889838a016112f1565b965060208801359150808211156113ee57600080fd5b506113fb888289016112f1565b945050604086013560ff8116811461141257600080fd5b925061142060608701611233565b949793965091946080013592915050565b60006020828403121561144357600080fd5b61144c82611233565b9392505050565b6000806040838503121561146657600080fd5b61146f83611233565b915061147d60208401611233565b90509250929050565b600181811c9082168061149a57607f821691505b6020821081036114d3577f4e487b7100000000000000000000000000000000000000000000000000000000600052602260045260246000fd5b50919050565b7f4e487b7100000000000000000000000000000000000000000000000000000000600052601160045260246000fd5b6000821982111561151b5761151b6114d9565b500190565b600082821015611532576115326114d9565b500390565b601f82111561110b57600081815260208120601f850160051c8101602086101561155e5750805b601f850160051c820191505b818110156106865782815560010161156a565b815167ffffffffffffffff811115611597576115976112c2565b6115ab816115a58454611486565b84611537565b602080601f8311600181146115fe57600084156115c85750858301515b7fffffffffffffffffffffffffffffffffffffffffffffffffffffffffffffffff600386901b1c1916600185901b178555610686565b6000858152602081207fffffffffffffffffffffffffffffffffffffffffffffffffffffffffffffffe08616915b8281101561164b5788860151825594840194600190910190840161162c565b508582101561168757878501517fffffffffffffffffffffffffffffffffffffffffffffffffffffffffffffffff600388901b60f8161c191681555b5050505050600190811b0190555056fea264697066735822122015dd8047eba7f7221e0d7792549e5a01ba1b6dfaad0c6a70dc82ef386e0c5cc464736f6c634300080f0033a2646970667358221220a8cb5bdf1e19e311b08e44ee9c1f58abf2f857983368d6183c37a6eaa9cc261464736f6c634300080f0033",
  "linkReferences": {},
  "deployedLinkReferences": {}
}