{
  "_format": "hh-sol-artifact-1",
  "contractName": "Bridge",
  "sourceName": "contracts/Bridge.sol",
  "abi": [
    {
      "inputs": [
        {
          "internalType": "uint32",
          "name": "_networkID",
          "type": "uint32"
        },
        {
          "internalType": "contract IGlobalExitRootManager",
          "name": "_globalExitRootManager",
          "type": "address"
        }
      ],
      "stateMutability": "nonpayable",
      "type": "constructor"
    },
    {
      "anonymous": false,
      "inputs": [
        {
          "indexed": false,
          "internalType": "address",
          "name": "tokenAddres",
          "type": "address"
        },
        {
          "indexed": false,
          "internalType": "uint256",
          "name": "amount",
          "type": "uint256"
        },
        {
          "indexed": false,
          "internalType": "uint32",
          "name": "originNetwork",
          "type": "uint32"
        },
        {
          "indexed": false,
          "internalType": "uint32",
          "name": "destinationNetwork",
          "type": "uint32"
        },
        {
          "indexed": false,
          "internalType": "address",
          "name": "destinationAddress",
          "type": "address"
        },
        {
          "indexed": false,
          "internalType": "uint32",
          "name": "depositCount",
          "type": "uint32"
        }
      ],
      "name": "BridgeEvent",
      "type": "event"
    },
    {
      "anonymous": false,
      "inputs": [
        {
          "indexed": false,
          "internalType": "uint32",
          "name": "index",
          "type": "uint32"
        },
        {
          "indexed": false,
          "internalType": "uint32",
          "name": "originalNetwork",
          "type": "uint32"
        },
        {
          "indexed": false,
          "internalType": "address",
          "name": "token",
          "type": "address"
        },
        {
          "indexed": false,
          "internalType": "uint256",
          "name": "amount",
          "type": "uint256"
        },
        {
          "indexed": false,
          "internalType": "address",
          "name": "destinationAddress",
          "type": "address"
        }
      ],
      "name": "ClaimEvent",
      "type": "event"
    },
    {
      "anonymous": false,
      "inputs": [
        {
          "indexed": false,
          "internalType": "uint32",
          "name": "originalNetwork",
          "type": "uint32"
        },
        {
          "indexed": false,
          "internalType": "address",
          "name": "originalTokenAddress",
          "type": "address"
        },
        {
          "indexed": false,
          "internalType": "address",
          "name": "wrappedTokenAddress",
          "type": "address"
        }
      ],
      "name": "NewWrappedToken",
      "type": "event"
    },
    {
      "anonymous": false,
      "inputs": [
        {
          "indexed": true,
          "internalType": "address",
          "name": "previousOwner",
          "type": "address"
        },
        {
          "indexed": true,
          "internalType": "address",
          "name": "newOwner",
          "type": "address"
        }
      ],
      "name": "OwnershipTransferred",
      "type": "event"
    },
    {
      "inputs": [],
      "name": "MAINNET_NETWORK_ID",
      "outputs": [
        {
          "internalType": "uint32",
          "name": "",
          "type": "uint32"
        }
      ],
      "stateMutability": "view",
      "type": "function"
    },
    {
      "inputs": [
        {
          "internalType": "address",
          "name": "",
          "type": "address"
        }
      ],
      "name": "addressToTokenInfo",
      "outputs": [
        {
          "internalType": "uint32",
          "name": "originalNetwork",
          "type": "uint32"
        },
        {
          "internalType": "address",
          "name": "originalTokenAddress",
          "type": "address"
        }
      ],
      "stateMutability": "view",
      "type": "function"
    },
    {
      "inputs": [
        {
          "internalType": "address",
          "name": "token",
          "type": "address"
        },
        {
          "internalType": "uint256",
          "name": "amount",
          "type": "uint256"
        },
        {
          "internalType": "uint32",
          "name": "destinationNetwork",
          "type": "uint32"
        },
        {
          "internalType": "address",
          "name": "destinationAddress",
          "type": "address"
        }
      ],
      "name": "bridge",
      "outputs": [],
      "stateMutability": "payable",
      "type": "function"
    },
    {
      "inputs": [
        {
          "internalType": "address",
          "name": "originalTokenAddress",
          "type": "address"
        },
        {
          "internalType": "uint256",
          "name": "amount",
          "type": "uint256"
        },
        {
          "internalType": "uint32",
          "name": "originalNetwork",
          "type": "uint32"
        },
        {
          "internalType": "uint32",
          "name": "destinationNetwork",
          "type": "uint32"
        },
        {
          "internalType": "address",
          "name": "destinationAddress",
          "type": "address"
        },
        {
          "internalType": "bytes32[]",
          "name": "smtProof",
          "type": "bytes32[]"
        },
        {
          "internalType": "uint32",
          "name": "index",
          "type": "uint32"
        },
        {
          "internalType": "uint256",
          "name": "globalExitRootNum",
          "type": "uint256"
        },
        {
          "internalType": "bytes32",
          "name": "mainnetExitRoot",
          "type": "bytes32"
        },
        {
          "internalType": "bytes32",
          "name": "rollupExitRoot",
          "type": "bytes32"
        }
      ],
      "name": "claim",
      "outputs": [],
      "stateMutability": "nonpayable",
      "type": "function"
    },
    {
      "inputs": [
        {
          "internalType": "uint256",
          "name": "",
          "type": "uint256"
        }
      ],
      "name": "claimNullifier",
      "outputs": [
        {
          "internalType": "bool",
          "name": "",
          "type": "bool"
        }
      ],
      "stateMutability": "view",
      "type": "function"
    },
    {
      "inputs": [],
      "name": "depositCount",
      "outputs": [
        {
          "internalType": "uint256",
          "name": "",
          "type": "uint256"
        }
      ],
      "stateMutability": "view",
      "type": "function"
    },
    {
      "inputs": [],
      "name": "getDepositRoot",
      "outputs": [
        {
          "internalType": "bytes32",
          "name": "",
          "type": "bytes32"
        }
      ],
      "stateMutability": "view",
      "type": "function"
    },
    {
      "inputs": [
        {
          "internalType": "uint32",
          "name": "originalNetwork",
          "type": "uint32"
        },
        {
          "internalType": "address",
          "name": "originalTokenAddress",
          "type": "address"
        }
      ],
      "name": "getTokenWrappedAddress",
      "outputs": [
        {
          "internalType": "address",
          "name": "",
          "type": "address"
        }
      ],
      "stateMutability": "view",
      "type": "function"
    },
    {
      "inputs": [],
      "name": "globalExitRootManager",
      "outputs": [
        {
          "internalType": "contract IGlobalExitRootManager",
          "name": "",
          "type": "address"
        }
      ],
      "stateMutability": "view",
      "type": "function"
    },
    {
      "inputs": [],
      "name": "networkID",
      "outputs": [
        {
          "internalType": "uint32",
          "name": "",
          "type": "uint32"
        }
      ],
      "stateMutability": "view",
      "type": "function"
    },
    {
      "inputs": [],
      "name": "owner",
      "outputs": [
        {
          "internalType": "address",
          "name": "",
          "type": "address"
        }
      ],
      "stateMutability": "view",
      "type": "function"
    },
    {
      "inputs": [
        {
          "internalType": "uint32",
          "name": "originalNetwork",
          "type": "uint32"
        },
        {
          "internalType": "address",
          "name": "originalTokenAddress",
          "type": "address"
        }
      ],
      "name": "precalculatedWrapperAddress",
      "outputs": [
        {
          "internalType": "address",
          "name": "",
          "type": "address"
        }
      ],
      "stateMutability": "view",
      "type": "function"
    },
    {
      "inputs": [],
      "name": "renounceOwnership",
      "outputs": [],
      "stateMutability": "nonpayable",
      "type": "function"
    },
    {
      "inputs": [],
      "name": "tokenImplementation",
      "outputs": [
        {
          "internalType": "address",
          "name": "",
          "type": "address"
        }
      ],
      "stateMutability": "view",
      "type": "function"
    },
    {
      "inputs": [
        {
          "internalType": "bytes32",
          "name": "",
          "type": "bytes32"
        }
      ],
      "name": "tokenInfoToAddress",
      "outputs": [
        {
          "internalType": "address",
          "name": "",
          "type": "address"
        }
      ],
      "stateMutability": "view",
      "type": "function"
    },
    {
      "inputs": [
        {
          "internalType": "address",
          "name": "newOwner",
          "type": "address"
        }
      ],
      "name": "transferOwnership",
      "outputs": [],
      "stateMutability": "nonpayable",
      "type": "function"
    },
    {
      "inputs": [
        {
          "internalType": "address",
          "name": "token",
          "type": "address"
        },
        {
          "internalType": "uint256",
          "name": "amount",
          "type": "uint256"
        },
        {
          "internalType": "uint32",
          "name": "originalNetwork",
          "type": "uint32"
        },
        {
          "internalType": "uint32",
          "name": "destinationNetwork",
          "type": "uint32"
        },
        {
          "internalType": "address",
          "name": "destinationAddress",
          "type": "address"
        },
        {
          "internalType": "bytes32[]",
          "name": "smtProof",
          "type": "bytes32[]"
        },
        {
          "internalType": "uint64",
          "name": "index",
          "type": "uint64"
        },
        {
          "internalType": "bytes32",
          "name": "root",
          "type": "bytes32"
        }
      ],
      "name": "verifyMerkleProof",
      "outputs": [
        {
          "internalType": "bool",
          "name": "",
          "type": "bool"
        }
      ],
      "stateMutability": "pure",
      "type": "function"
    }
  ],
  "bytecode": "0x60a06040523480156200001157600080fd5b5060405162004072380380620040728339810160408190526200003491620001bb565b6200003f336200015d565b60005b620000506001602062000223565b811015620000eb57602181602081106200006e576200006e6200023d565b0154602182602081106200008657620000866200023d565b0154604080516020810193909352820152606001604051602081830303815290604052805190602001206021826001620000c1919062000253565b60208110620000d457620000d46200023d565b015580620000e2816200026e565b91505062000042565b506042805463ffffffff191663ffffffff8416179055604680546001600160a01b0319166001600160a01b0383161790556040516200012a90620001ad565b604051809103906000f08015801562000147573d6000803e3d6000fd5b506001600160a01b0316608052506200028c9050565b600080546001600160a01b038381166001600160a01b0319831681178455604051919092169283917f8be0079c531659141344cd1fd0a4f28419497f9722a3daafe3b4186f6b6457e09190a35050565b61188c80620027e683390190565b60008060408385031215620001cf57600080fd5b825163ffffffff81168114620001e457600080fd5b60208401519092506001600160a01b03811681146200020257600080fd5b809150509250929050565b634e487b7160e01b600052601160045260246000fd5b6000828210156200023857620002386200020d565b500390565b634e487b7160e01b600052603260045260246000fd5b600082198211156200026957620002696200020d565b500190565b60006000198214156200028557620002856200020d565b5060010190565b608051612530620002b66000396000818161020b01528181610d9901526115ad01526125306000f3fe60806040526004361061010e5760003560e01c8063715018a6116100a5578063bab161bf11610074578063e737588111610059578063e7375881146103b5578063ed6be5c9146103e5578063f2fde38b146103fa57600080fd5b8063bab161bf14610356578063d02103ca1461038857600080fd5b8063715018a6146102c65780637d8f0469146102db5780638da5cb5b1461030b578063b7e6a7d41461033657600080fd5b80632dfdf0b5116100e15780632dfdf0b5146101d55780632f3a3d5d146101f95780633ae050471461022d578063452a94b01461024257600080fd5b80630db4afff146101135780630e21fbd714610180578063122650ff1461019557806322e95f2c146101b5575b600080fd5b34801561011f57600080fd5b5061015661012e366004611e93565b60446020526000908152604090205473ffffffffffffffffffffffffffffffffffffffff1681565b60405173ffffffffffffffffffffffffffffffffffffffff90911681526020015b60405180910390f35b61019361018e366004611ee9565b61041a565b005b3480156101a157600080fd5b506101936101b0366004612013565b6107af565b3480156101c157600080fd5b506101566101d03660046120cc565b611184565b3480156101e157600080fd5b506101eb60415481565b604051908152602001610177565b34801561020557600080fd5b506101567f000000000000000000000000000000000000000000000000000000000000000081565b34801561023957600080fd5b506101eb611227565b34801561024e57600080fd5b5061029561025d3660046120ff565b60456020526000908152604090205463ffffffff811690640100000000900473ffffffffffffffffffffffffffffffffffffffff1682565b6040805163ffffffff909316835273ffffffffffffffffffffffffffffffffffffffff909116602083015201610177565b3480156102d257600080fd5b506101936112f4565b3480156102e757600080fd5b506102fb6102f636600461211a565b611381565b6040519015158152602001610177565b34801561031757600080fd5b5060005473ffffffffffffffffffffffffffffffffffffffff16610156565b34801561034257600080fd5b506101566103513660046120cc565b61152d565b34801561036257600080fd5b506042546103739063ffffffff1681565b60405163ffffffff9091168152602001610177565b34801561039457600080fd5b506046546101569073ffffffffffffffffffffffffffffffffffffffff1681565b3480156103c157600080fd5b506102fb6103d0366004611e93565b60436020526000908152604090205460ff1681565b3480156103f157600080fd5b50610373600081565b34801561040657600080fd5b506101936104153660046120ff565b6115da565b60425463ffffffff838116911614156104ba576040517f08c379a000000000000000000000000000000000000000000000000000000000815260206004820152602a60248201527f4272696467653a3a6272696467653a2044455354494e4154494f4e5f43414e5460448201527f5f42455f495453454c460000000000000000000000000000000000000000000060648201526084015b60405180910390fd5b60008073ffffffffffffffffffffffffffffffffffffffff861661056f57843414610567576040517f08c379a000000000000000000000000000000000000000000000000000000000815260206004820152602f60248201527f4272696467653a3a6272696467653a20414d4f554e545f444f45535f4e4f545f60448201527f4d415443485f4d53475f56414c5545000000000000000000000000000000000060648201526084016104b1565b5060006106ad565b73ffffffffffffffffffffffffffffffffffffffff80871660009081526045602090815260409182902082518084019093525463ffffffff811683526401000000009004909216918101829052901561067a576040517f9dc29fac0000000000000000000000000000000000000000000000000000000081523360048201526024810187905273ffffffffffffffffffffffffffffffffffffffff881690639dc29fac90604401602060405180830381600087803b15801561063057600080fd5b505af1158015610644573d6000803e3d6000fd5b505050506040513d601f19601f8201168201806040525081019061066891906121ca565b506020810151815190935091506106ab565b61069c73ffffffffffffffffffffffffffffffffffffffff881633308961170a565b60425487935063ffffffff1691505b505b6041546040805173ffffffffffffffffffffffffffffffffffffffff85811682526020820189905263ffffffff858116838501528881166060840152908716608083015290921660a0830152517fb9cc79b4411bd33ec9620f8fe3d6236a5d18050ca48e991864dc0556a83d1a2b9181900360c00190a161073182868387876117ec565b60465473ffffffffffffffffffffffffffffffffffffffff166333d6247d610757611227565b6040518263ffffffff1660e01b815260040161077591815260200190565b600060405180830381600087803b15801561078f57600080fd5b505af11580156107a3573d6000803e3d6000fd5b50505050505050505050565b63ffffffff841660009081526043602052604090205460ff161561082f576040517f08c379a000000000000000000000000000000000000000000000000000000000815260206004820152601e60248201527f4272696467653a3a636c61696d3a20414c52454144595f434c41494d4544000060448201526064016104b1565b60425463ffffffff8881169116146108c9576040517f08c379a000000000000000000000000000000000000000000000000000000000815260206004820152603160248201527f4272696467653a3a636c61696d3a2044455354494e4154494f4e5f4e4554574f60448201527f524b5f444f45535f4e4f545f4d4154434800000000000000000000000000000060648201526084016104b1565b6046546040517f3381fe900000000000000000000000000000000000000000000000000000000081526004810185905273ffffffffffffffffffffffffffffffffffffffff90911690633381fe9090602401602060405180830381600087803b15801561093557600080fd5b505af1158015610949573d6000803e3d6000fd5b505050506040513d601f19601f8201168201806040525081019061096d91906121ec565b60408051602081018590529081018390526060016040516020818303038152906040528051906020012014610a24576040517f08c379a000000000000000000000000000000000000000000000000000000000815260206004820152602e60248201527f4272696467653a3a636c61696d3a20474c4f42414c5f455849545f524f4f545f60448201527f444f45535f4e4f545f4d4154434800000000000000000000000000000000000060648201526084016104b1565b60425463ffffffff16610ab257610a478a8a8a8a8a8a8a63ffffffff1688611381565b610aad576040517f08c379a000000000000000000000000000000000000000000000000000000000815260206004820152601a60248201527f4272696467653a3a636c61696d3a20534d545f494e56414c494400000000000060448201526064016104b1565b610b2e565b610ac88a8a8a8a8a8a8a63ffffffff1689611381565b610b2e576040517f08c379a000000000000000000000000000000000000000000000000000000000815260206004820152601a60248201527f4272696467653a3a636c61696d3a20534d545f494e56414c494400000000000060448201526064016104b1565b63ffffffff8416600090815260436020526040902080547fffffffffffffffffffffffffffffffffffffffffffffffffffffffffffffff0016600117905573ffffffffffffffffffffffffffffffffffffffff8a16610c97576040805160008082526020820190925273ffffffffffffffffffffffffffffffffffffffff8816908b90604051610bbe9190612231565b60006040518083038185875af1925050503d8060008114610bfb576040519150601f19603f3d011682016040523d82523d6000602084013e610c00565b606091505b5050905080610c91576040517f08c379a000000000000000000000000000000000000000000000000000000000815260206004820152602260248201527f4272696467653a3a636c61696d3a204554485f5452414e534645525f4641494c60448201527f454400000000000000000000000000000000000000000000000000000000000060648201526084016104b1565b5061110d565b60425463ffffffff89811691161415610cd057610ccb73ffffffffffffffffffffffffffffffffffffffff8b16878b6119f4565b61110d565b6040517fffffffff0000000000000000000000000000000000000000000000000000000060e08a901b1660208201527fffffffffffffffffffffffffffffffffffffffff00000000000000000000000060608c901b166024820152600090603801604080517fffffffffffffffffffffffffffffffffffffffffffffffffffffffffffffffe081840301815291815281516020928301206000818152604490935291205490915073ffffffffffffffffffffffffffffffffffffffff1680611060576000610dbe7f000000000000000000000000000000000000000000000000000000000000000084611a4f565b6040517f6c94522100000000000000000000000000000000000000000000000000000000815260a060048083019190915260a48201527f6e616d650000000000000000000000000000000000000000000000000000000060c482015260e06024820152600660e48201527f73796d626f6c00000000000000000000000000000000000000000000000000006101048201526012604482015273ffffffffffffffffffffffffffffffffffffffff8b81166064830152608482018f905291925090821690636c9452219061012401600060405180830381600087803b158015610ea557600080fd5b505af1158015610eb9573d6000803e3d6000fd5b50505050806044600085815260200190815260200160002060006101000a81548173ffffffffffffffffffffffffffffffffffffffff021916908373ffffffffffffffffffffffffffffffffffffffff16021790555060405180604001604052808c63ffffffff1681526020018e73ffffffffffffffffffffffffffffffffffffffff16815250604560008373ffffffffffffffffffffffffffffffffffffffff1673ffffffffffffffffffffffffffffffffffffffff16815260200190815260200160002060008201518160000160006101000a81548163ffffffff021916908363ffffffff16021790555060208201518160000160046101000a81548173ffffffffffffffffffffffffffffffffffffffff021916908373ffffffffffffffffffffffffffffffffffffffff1602179055509050507fccd7715648d1f2bb13e158f96b5b6c3aeda555d4cb87112e274a6f28bc571d598b8e836040516110529392919063ffffffff93909316835273ffffffffffffffffffffffffffffffffffffffff918216602084015216604082015260600190565b60405180910390a15061110a565b6040517f40c10f1900000000000000000000000000000000000000000000000000000000815273ffffffffffffffffffffffffffffffffffffffff8981166004830152602482018d90528216906340c10f1990604401602060405180830381600087803b1580156110d057600080fd5b505af11580156110e4573d6000803e3d6000fd5b505050506040513d601f19601f8201168201806040525081019061110891906121ca565b505b50505b6040805163ffffffff86811682528a16602082015273ffffffffffffffffffffffffffffffffffffffff8c811682840152606082018c90528816608082015290517f6aec77db51699eb95c99cdf3d230d727c40d03cc47ade310b68e3c4185b90e729181900360a00190a150505050505050505050565b6040805160e084901b7fffffffff0000000000000000000000000000000000000000000000000000000016602080830191909152606084901b7fffffffffffffffffffffffffffffffffffffffff000000000000000000000000166024830152825160188184030181526038909201835281519181019190912060009081526044909152205473ffffffffffffffffffffffffffffffffffffffff165b92915050565b6041546000908190815b60208110156112ec57816001166001141561128c57600181602081106112595761125961224d565b015460408051602081019290925281018490526060016040516020818303038152906040528051906020012092506112cd565b82602182602081106112a0576112a061224d565b01546040805160208101939093528201526060016040516020818303038152906040528051906020012092505b6112d86002836122ab565b9150806112e4816122e6565b915050611231565b509092915050565b60005473ffffffffffffffffffffffffffffffffffffffff163314611375576040517f08c379a000000000000000000000000000000000000000000000000000000000815260206004820181905260248201527f4f776e61626c653a2063616c6c6572206973206e6f7420746865206f776e657260448201526064016104b1565b61137f6000611b2d565b565b6040517fffffffff0000000000000000000000000000000000000000000000000000000060e088811b821660208401527fffffffffffffffffffffffffffffffffffffffff00000000000000000000000060608c811b82166024860152603885018c90529189901b909216605884015286901b16605c8201526000908190607001604080517fffffffffffffffffffffffffffffffffffffffffffffffffffffffffffffffe08184030181529190528051602090910120905067ffffffffffffffff841660005b602081101561151c5781600116600114156114af5786818151811061146f5761146f61224d565b602002602001015183604051602001611492929190918252602082015260400190565b6040516020818303038152906040528051906020012092506114fd565b828782815181106114c2576114c261224d565b60200260200101516040516020016114e4929190918252602082015260400190565b6040516020818303038152906040528051906020012092505b6115086002836122ab565b915080611514816122e6565b915050611448565b505090911498975050505050505050565b6040517fffffffff0000000000000000000000000000000000000000000000000000000060e084901b1660208201527fffffffffffffffffffffffffffffffffffffffff000000000000000000000000606083901b16602482015260009081906038016040516020818303038152906040528051906020012090506115d27f000000000000000000000000000000000000000000000000000000000000000082611ba2565b949350505050565b60005473ffffffffffffffffffffffffffffffffffffffff16331461165b576040517f08c379a000000000000000000000000000000000000000000000000000000000815260206004820181905260248201527f4f776e61626c653a2063616c6c6572206973206e6f7420746865206f776e657260448201526064016104b1565b73ffffffffffffffffffffffffffffffffffffffff81166116fe576040517f08c379a000000000000000000000000000000000000000000000000000000000815260206004820152602660248201527f4f776e61626c653a206e6577206f776e657220697320746865207a65726f206160448201527f646472657373000000000000000000000000000000000000000000000000000060648201526084016104b1565b61170781611b2d565b50565b60405173ffffffffffffffffffffffffffffffffffffffff808516602483015283166044820152606481018290526117e69085907f23b872dd00000000000000000000000000000000000000000000000000000000906084015b604080517fffffffffffffffffffffffffffffffffffffffffffffffffffffffffffffffe08184030181529190526020810180517bffffffffffffffffffffffffffffffffffffffffffffffffffffffff167fffffffff0000000000000000000000000000000000000000000000000000000090931692909217909152611c25565b50505050565b6040517fffffffff0000000000000000000000000000000000000000000000000000000060e085811b821660208401527fffffffffffffffffffffffffffffffffffffffff000000000000000000000000606089811b82166024860152603885018990529186901b909216605884015283901b16605c820152600090607001604051602081830303815290604052805190602001209050600160206002611893919061243f565b61189d919061244b565b6041541061192d576040517f08c379a000000000000000000000000000000000000000000000000000000000815260206004820152602a60248201527f4465706f736974436f6e74726163743a5f6465706f7369743a204d45524b4c4560448201527f5f545245455f46554c4c0000000000000000000000000000000000000000000060648201526084016104b1565b6001604160008282546119409190612462565b909155505060415460005b60208110156119e157816001166001141561197f5782600182602081106119745761197461224d565b0155506119ed915050565b600181602081106119925761199261224d565b015460408051602081019290925281018490526060016040516020818303038152906040528051906020012092506002826119cd91906122ab565b9150806119d9816122e6565b91505061194b565b506119ea61247a565b50505b5050505050565b60405173ffffffffffffffffffffffffffffffffffffffff8316602482015260448101829052611a4a9084907fa9059cbb0000000000000000000000000000000000000000000000000000000090606401611764565b505050565b60006040517f3d602d80600a3d3981f3363d3d373d3d3d363d7300000000000000000000000081528360601b60148201527f5af43d82803e903d91602b57fd5bf300000000000000000000000000000000006028820152826037826000f591505073ffffffffffffffffffffffffffffffffffffffff8116611221576040517f08c379a000000000000000000000000000000000000000000000000000000000815260206004820152601760248201527f455243313136373a2063726561746532206661696c656400000000000000000060448201526064016104b1565b6000805473ffffffffffffffffffffffffffffffffffffffff8381167fffffffffffffffffffffffff0000000000000000000000000000000000000000831681178455604051919092169283917f8be0079c531659141344cd1fd0a4f28419497f9722a3daafe3b4186f6b6457e09190a35050565b6000611c1e8383306040517f3d602d80600a3d3981f3363d3d373d3d3d363d730000000000000000000000008152606093841b60148201527f5af43d82803e903d91602b57fd5bf3ff000000000000000000000000000000006028820152921b6038830152604c8201526037808220606c830152605591012090565b9392505050565b6000611c87826040518060400160405280602081526020017f5361666545524332303a206c6f772d6c6576656c2063616c6c206661696c65648152508573ffffffffffffffffffffffffffffffffffffffff16611d319092919063ffffffff16565b805190915015611a4a5780806020019051810190611ca591906121ca565b611a4a576040517f08c379a000000000000000000000000000000000000000000000000000000000815260206004820152602a60248201527f5361666545524332303a204552433230206f7065726174696f6e20646964206e60448201527f6f7420737563636565640000000000000000000000000000000000000000000060648201526084016104b1565b60606115d284846000858573ffffffffffffffffffffffffffffffffffffffff85163b611dba576040517f08c379a000000000000000000000000000000000000000000000000000000000815260206004820152601d60248201527f416464726573733a2063616c6c20746f206e6f6e2d636f6e747261637400000060448201526064016104b1565b6000808673ffffffffffffffffffffffffffffffffffffffff168587604051611de39190612231565b60006040518083038185875af1925050503d8060008114611e20576040519150601f19603f3d011682016040523d82523d6000602084013e611e25565b606091505b5091509150611e35828286611e40565b979650505050505050565b60608315611e4f575081611c1e565b825115611e5f5782518084602001fd5b816040517f08c379a00000000000000000000000000000000000000000000000000000000081526004016104b191906124a9565b600060208284031215611ea557600080fd5b5035919050565b803573ffffffffffffffffffffffffffffffffffffffff81168114611ed057600080fd5b919050565b803563ffffffff81168114611ed057600080fd5b60008060008060808587031215611eff57600080fd5b611f0885611eac565b935060208501359250611f1d60408601611ed5565b9150611f2b60608601611eac565b905092959194509250565b7f4e487b7100000000000000000000000000000000000000000000000000000000600052604160045260246000fd5b600082601f830112611f7657600080fd5b8135602067ffffffffffffffff80831115611f9357611f93611f36565b8260051b6040517fffffffffffffffffffffffffffffffffffffffffffffffffffffffffffffffe0603f83011681018181108482111715611fd657611fd6611f36565b604052938452858101830193838101925087851115611ff457600080fd5b83870191505b84821015611e3557813583529183019190830190611ffa565b6000806000806000806000806000806101408b8d03121561203357600080fd5b61203c8b611eac565b995060208b0135985061205160408c01611ed5565b975061205f60608c01611ed5565b965061206d60808c01611eac565b955060a08b013567ffffffffffffffff81111561208957600080fd5b6120958d828e01611f65565b9550506120a460c08c01611ed5565b935060e08b013592506101008b013591506101208b013590509295989b9194979a5092959850565b600080604083850312156120df57600080fd5b6120e883611ed5565b91506120f660208401611eac565b90509250929050565b60006020828403121561211157600080fd5b611c1e82611eac565b600080600080600080600080610100898b03121561213757600080fd5b61214089611eac565b97506020890135965061215560408a01611ed5565b955061216360608a01611ed5565b945061217160808a01611eac565b935060a089013567ffffffffffffffff8082111561218e57600080fd5b61219a8c838d01611f65565b945060c08b0135915080821682146121b157600080fd5b508092505060e089013590509295985092959890939650565b6000602082840312156121dc57600080fd5b81518015158114611c1e57600080fd5b6000602082840312156121fe57600080fd5b5051919050565b60005b83811015612220578181015183820152602001612208565b838111156117e65750506000910152565b60008251612243818460208701612205565b9190910192915050565b7f4e487b7100000000000000000000000000000000000000000000000000000000600052603260045260246000fd5b7f4e487b7100000000000000000000000000000000000000000000000000000000600052601160045260246000fd5b6000826122e1577f4e487b7100000000000000000000000000000000000000000000000000000000600052601260045260246000fd5b500490565b60007fffffffffffffffffffffffffffffffffffffffffffffffffffffffffffffffff8214156123185761231861227c565b5060010190565b600181815b8085111561237857817fffffffffffffffffffffffffffffffffffffffffffffffffffffffffffffffff0482111561235e5761235e61227c565b8085161561236b57918102915b93841c9390800290612324565b509250929050565b60008261238f57506001611221565b8161239c57506000611221565b81600181146123b257600281146123bc576123d8565b6001915050611221565b60ff8411156123cd576123cd61227c565b50506001821b611221565b5060208310610133831016604e8410600b84101617156123fb575081810a611221565b612405838361231f565b807fffffffffffffffffffffffffffffffffffffffffffffffffffffffffffffffff048211156124375761243761227c565b029392505050565b6000611c1e8383612380565b60008282101561245d5761245d61227c565b500390565b600082198211156124755761247561227c565b500190565b7f4e487b7100000000000000000000000000000000000000000000000000000000600052600160045260246000fd5b60208152600082518060208401526124c8816040850160208701612205565b601f017fffffffffffffffffffffffffffffffffffffffffffffffffffffffffffffffe016919091016040019291505056fea26469706673582212209cb6441a2dfbbf2a8f219c7a6e2abf8f69d4d9094fd54ea10c7e194d683c800f64736f6c6343000809003360806040523480156200001157600080fd5b50600062000020600162000087565b9050801562000039576000805461ff0019166101001790555b801562000080576000805461ff0019169055604051600181527f7f26b83ff96e1f2b6a682f133852f6798a09c465da95921460cefb38474024989060200160405180910390a15b50620001a8565b60008054610100900460ff161562000120578160ff166001148015620000c05750620000be306200019960201b620007271760201c565b155b620001185760405162461bcd60e51b815260206004820152602e60248201526000805160206200186c83398151915260448201526d191e481a5b9a5d1a585b1a5e995960921b60648201526084015b60405180910390fd5b506000919050565b60005460ff8084169116106200017f5760405162461bcd60e51b815260206004820152602e60248201526000805160206200186c83398151915260448201526d191e481a5b9a5d1a585b1a5e995960921b60648201526084016200010f565b506000805460ff191660ff92909216919091179055600190565b6001600160a01b03163b151590565b6116b480620001b86000396000f3fe608060405234801561001057600080fd5b50600436106100f55760003560e01c80636c94522111610097578063a3c573eb11610066578063a3c573eb1461021c578063a457c2d714610261578063a9059cbb14610274578063dd62ed3e1461028757600080fd5b80636c945221146101b657806370a08231146101cb57806395d89b41146102015780639dc29fac1461020957600080fd5b806323b872dd116100d357806323b872dd1461014d578063313ce56714610160578063395093511461019057806340c10f19146101a357600080fd5b806306fdde03146100fa578063095ea7b31461011857806318160ddd1461013b575b600080fd5b6101026102cd565b60405161010f919061130b565b60405180910390f35b61012b6101263660046113a2565b61035f565b604051901515815260200161010f565b6035545b60405190815260200161010f565b61012b61015b3660046113cc565b610377565b60655474010000000000000000000000000000000000000000900460ff1660405160ff909116815260200161010f565b61012b61019e3660046113a2565b61039b565b61012b6101b13660046113a2565b6103e7565b6101c96101c43660046114e2565b610483565b005b61013f6101d9366004611577565b73ffffffffffffffffffffffffffffffffffffffff1660009081526033602052604090205490565b6101026105ab565b61012b6102173660046113a2565b6105ba565b60655461023c9073ffffffffffffffffffffffffffffffffffffffff1681565b60405173ffffffffffffffffffffffffffffffffffffffff909116815260200161010f565b61012b61026f3660046113a2565b610648565b61012b6102823660046113a2565b610719565b61013f610295366004611599565b73ffffffffffffffffffffffffffffffffffffffff918216600090815260346020908152604080832093909416825291909152205490565b6060603680546102dc906115cc565b80601f0160208091040260200160405190810160405280929190818152602001828054610308906115cc565b80156103555780601f1061032a57610100808354040283529160200191610355565b820191906000526020600020905b81548152906001019060200180831161033857829003601f168201915b5050505050905090565b60003361036d818585610743565b5060019392505050565b6000336103858582856108f7565b6103908585856109ce565b506001949350505050565b33600081815260346020908152604080832073ffffffffffffffffffffffffffffffffffffffff8716845290915281205490919061036d90829086906103e290879061164f565b610743565b60655460009073ffffffffffffffffffffffffffffffffffffffff163314610470576040517f08c379a000000000000000000000000000000000000000000000000000000000815260206004820152601760248201527f546f6b656e577261707065643a4e4f545f42524944474500000000000000000060448201526064015b60405180910390fd5b61047a8383610c81565b50600192915050565b600061048f6001610da2565b905080156104c457600080547fffffffffffffffffffffffffffffffffffffffffffffffffffffffffffff00ff166101001790555b6104ce8686610f2d565b606580547fffffffffffffffffffffff00000000000000000000000000000000000000000016337fffffffffffffffffffffff00ffffffffffffffffffffffffffffffffffffffff16177401000000000000000000000000000000000000000060ff8716021790556105408383610c81565b80156105a357600080547fffffffffffffffffffffffffffffffffffffffffffffffffffffffffffff00ff169055604051600181527f7f26b83ff96e1f2b6a682f133852f6798a09c465da95921460cefb38474024989060200160405180910390a15b505050505050565b6060603780546102dc906115cc565b60655460009073ffffffffffffffffffffffffffffffffffffffff16331461063e576040517f08c379a000000000000000000000000000000000000000000000000000000000815260206004820152601760248201527f546f6b656e577261707065643a4e4f545f4252494447450000000000000000006044820152606401610467565b61047a8383610fce565b33600081815260346020908152604080832073ffffffffffffffffffffffffffffffffffffffff871684529091528120549091908381101561070c576040517f08c379a000000000000000000000000000000000000000000000000000000000815260206004820152602560248201527f45524332303a2064656372656173656420616c6c6f77616e63652062656c6f7760448201527f207a65726f0000000000000000000000000000000000000000000000000000006064820152608401610467565b6103908286868403610743565b60003361036d8185856109ce565b73ffffffffffffffffffffffffffffffffffffffff163b151590565b73ffffffffffffffffffffffffffffffffffffffff83166107e5576040517f08c379a0000000000000000000000000000000000000000000000000000000008152602060048201526024808201527f45524332303a20617070726f76652066726f6d20746865207a65726f2061646460448201527f72657373000000000000000000000000000000000000000000000000000000006064820152608401610467565b73ffffffffffffffffffffffffffffffffffffffff8216610888576040517f08c379a000000000000000000000000000000000000000000000000000000000815260206004820152602260248201527f45524332303a20617070726f766520746f20746865207a65726f20616464726560448201527f73730000000000000000000000000000000000000000000000000000000000006064820152608401610467565b73ffffffffffffffffffffffffffffffffffffffff83811660008181526034602090815260408083209487168084529482529182902085905590518481527f8c5be1e5ebec7d5bd14f71427d1e84f3dd0314c0f7b2291e5b200ac8c7c3b92591015b60405180910390a3505050565b73ffffffffffffffffffffffffffffffffffffffff8381166000908152603460209081526040808320938616835292905220547fffffffffffffffffffffffffffffffffffffffffffffffffffffffffffffffff81146109c857818110156109bb576040517f08c379a000000000000000000000000000000000000000000000000000000000815260206004820152601d60248201527f45524332303a20696e73756666696369656e7420616c6c6f77616e63650000006044820152606401610467565b6109c88484848403610743565b50505050565b73ffffffffffffffffffffffffffffffffffffffff8316610a71576040517f08c379a000000000000000000000000000000000000000000000000000000000815260206004820152602560248201527f45524332303a207472616e736665722066726f6d20746865207a65726f20616460448201527f64726573730000000000000000000000000000000000000000000000000000006064820152608401610467565b73ffffffffffffffffffffffffffffffffffffffff8216610b14576040517f08c379a000000000000000000000000000000000000000000000000000000000815260206004820152602360248201527f45524332303a207472616e7366657220746f20746865207a65726f206164647260448201527f65737300000000000000000000000000000000000000000000000000000000006064820152608401610467565b73ffffffffffffffffffffffffffffffffffffffff831660009081526033602052604090205481811015610bca576040517f08c379a000000000000000000000000000000000000000000000000000000000815260206004820152602660248201527f45524332303a207472616e7366657220616d6f756e742065786365656473206260448201527f616c616e636500000000000000000000000000000000000000000000000000006064820152608401610467565b73ffffffffffffffffffffffffffffffffffffffff808516600090815260336020526040808220858503905591851681529081208054849290610c0e90849061164f565b925050819055508273ffffffffffffffffffffffffffffffffffffffff168473ffffffffffffffffffffffffffffffffffffffff167fddf252ad1be2c89b69c2b068fc378daa952ba7f163c4a11628f55a4df523b3ef84604051610c7491815260200190565b60405180910390a36109c8565b73ffffffffffffffffffffffffffffffffffffffff8216610cfe576040517f08c379a000000000000000000000000000000000000000000000000000000000815260206004820152601f60248201527f45524332303a206d696e7420746f20746865207a65726f2061646472657373006044820152606401610467565b8060356000828254610d10919061164f565b909155505073ffffffffffffffffffffffffffffffffffffffff821660009081526033602052604081208054839290610d4a90849061164f565b909155505060405181815273ffffffffffffffffffffffffffffffffffffffff8316906000907fddf252ad1be2c89b69c2b068fc378daa952ba7f163c4a11628f55a4df523b3ef9060200160405180910390a35b5050565b60008054610100900460ff1615610e59578160ff166001148015610dc55750303b155b610e51576040517f08c379a000000000000000000000000000000000000000000000000000000000815260206004820152602e60248201527f496e697469616c697a61626c653a20636f6e747261637420697320616c72656160448201527f647920696e697469616c697a65640000000000000000000000000000000000006064820152608401610467565b506000919050565b60005460ff808416911610610ef0576040517f08c379a000000000000000000000000000000000000000000000000000000000815260206004820152602e60248201527f496e697469616c697a61626c653a20636f6e747261637420697320616c72656160448201527f647920696e697469616c697a65640000000000000000000000000000000000006064820152608401610467565b50600080547fffffffffffffffffffffffffffffffffffffffffffffffffffffffffffffff001660ff92909216919091179055600190565b919050565b600054610100900460ff16610fc4576040517f08c379a000000000000000000000000000000000000000000000000000000000815260206004820152602b60248201527f496e697469616c697a61626c653a20636f6e7472616374206973206e6f74206960448201527f6e697469616c697a696e670000000000000000000000000000000000000000006064820152608401610467565b610d9e82826111b8565b73ffffffffffffffffffffffffffffffffffffffff8216611071576040517f08c379a000000000000000000000000000000000000000000000000000000000815260206004820152602160248201527f45524332303a206275726e2066726f6d20746865207a65726f2061646472657360448201527f73000000000000000000000000000000000000000000000000000000000000006064820152608401610467565b73ffffffffffffffffffffffffffffffffffffffff821660009081526033602052604090205481811015611127576040517f08c379a000000000000000000000000000000000000000000000000000000000815260206004820152602260248201527f45524332303a206275726e20616d6f756e7420657863656564732062616c616e60448201527f63650000000000000000000000000000000000000000000000000000000000006064820152608401610467565b73ffffffffffffffffffffffffffffffffffffffff83166000908152603360205260408120838303905560358054849290611163908490611667565b909155505060405182815260009073ffffffffffffffffffffffffffffffffffffffff8516907fddf252ad1be2c89b69c2b068fc378daa952ba7f163c4a11628f55a4df523b3ef906020016108ea565b505050565b600054610100900460ff1661124f576040517f08c379a000000000000000000000000000000000000000000000000000000000815260206004820152602b60248201527f496e697469616c697a61626c653a20636f6e7472616374206973206e6f74206960448201527f6e697469616c697a696e670000000000000000000000000000000000000000006064820152608401610467565b8151611262906036906020850190611272565b5080516111b39060379060208401905b82805461127e906115cc565b90600052602060002090601f0160209004810192826112a057600085556112e6565b82601f106112b957805160ff19168380011785556112e6565b828001600101855582156112e6579182015b828111156112e65782518255916020019190600101906112cb565b506112f29291506112f6565b5090565b5b808211156112f257600081556001016112f7565b600060208083528351808285015260005b818110156113385785810183015185820160400152820161131c565b8181111561134a576000604083870101525b50601f017fffffffffffffffffffffffffffffffffffffffffffffffffffffffffffffffe016929092016040019392505050565b803573ffffffffffffffffffffffffffffffffffffffff81168114610f2857600080fd5b600080604083850312156113b557600080fd5b6113be8361137e565b946020939093013593505050565b6000806000606084860312156113e157600080fd5b6113ea8461137e565b92506113f86020850161137e565b9150604084013590509250925092565b7f4e487b7100000000000000000000000000000000000000000000000000000000600052604160045260246000fd5b600082601f83011261144857600080fd5b813567ffffffffffffffff8082111561146357611463611408565b604051601f83017fffffffffffffffffffffffffffffffffffffffffffffffffffffffffffffffe0908116603f011681019082821181831017156114a9576114a9611408565b816040528381528660208588010111156114c257600080fd5b836020870160208301376000602085830101528094505050505092915050565b600080600080600060a086880312156114fa57600080fd5b853567ffffffffffffffff8082111561151257600080fd5b61151e89838a01611437565b9650602088013591508082111561153457600080fd5b5061154188828901611437565b945050604086013560ff8116811461155857600080fd5b92506115666060870161137e565b949793965091946080013592915050565b60006020828403121561158957600080fd5b6115928261137e565b9392505050565b600080604083850312156115ac57600080fd5b6115b58361137e565b91506115c36020840161137e565b90509250929050565b600181811c908216806115e057607f821691505b6020821081141561161a577f4e487b7100000000000000000000000000000000000000000000000000000000600052602260045260246000fd5b50919050565b7f4e487b7100000000000000000000000000000000000000000000000000000000600052601160045260246000fd5b6000821982111561166257611662611620565b500190565b60008282101561167957611679611620565b50039056fea264697066735822122014609f1ca103e15245f63f26183fcc7c246196d9585d9afe2a4515e10663702864736f6c63430008090033496e697469616c697a61626c653a20636f6e747261637420697320616c726561",
  "linkReferences": {},
  "deployedLinkReferences": {}
}