{
  "_format": "hh-sol-artifact-1",
  "contractName": "BridgeMock",
  "sourceName": "contracts/mocks/BridgeMock.sol",
  "abi": [
    {
      "anonymous": false,
      "inputs": [
        {
          "indexed": false,
          "internalType": "uint8",
          "name": "leafType",
          "type": "uint8"
        },
        {
          "indexed": false,
          "internalType": "uint32",
          "name": "originNetwork",
          "type": "uint32"
        },
        {
          "indexed": false,
          "internalType": "address",
          "name": "originAddress",
          "type": "address"
        },
        {
          "indexed": false,
          "internalType": "uint32",
          "name": "destinationNetwork",
          "type": "uint32"
        },
        {
          "indexed": false,
          "internalType": "address",
          "name": "destinationAddress",
          "type": "address"
        },
        {
          "indexed": false,
          "internalType": "uint256",
          "name": "amount",
          "type": "uint256"
        },
        {
          "indexed": false,
          "internalType": "bytes",
          "name": "metadata",
          "type": "bytes"
        },
        {
          "indexed": false,
          "internalType": "uint32",
          "name": "depositCount",
          "type": "uint32"
        }
      ],
      "name": "BridgeEvent",
      "type": "event"
    },
    {
      "anonymous": false,
      "inputs": [
        {
          "indexed": false,
          "internalType": "uint32",
          "name": "index",
          "type": "uint32"
        },
        {
          "indexed": false,
          "internalType": "uint32",
          "name": "originNetwork",
          "type": "uint32"
        },
        {
          "indexed": false,
          "internalType": "address",
          "name": "originAddress",
          "type": "address"
        },
        {
          "indexed": false,
          "internalType": "address",
          "name": "destinationAddress",
          "type": "address"
        },
        {
          "indexed": false,
          "internalType": "uint256",
          "name": "amount",
          "type": "uint256"
        }
      ],
      "name": "ClaimEvent",
      "type": "event"
    },
    {
      "anonymous": false,
      "inputs": [],
      "name": "EmergencyStateActivated",
      "type": "event"
    },
    {
      "anonymous": false,
      "inputs": [],
      "name": "EmergencyStateDeactivated",
      "type": "event"
    },
    {
      "anonymous": false,
      "inputs": [
        {
          "indexed": false,
          "internalType": "uint8",
          "name": "version",
          "type": "uint8"
        }
      ],
      "name": "Initialized",
      "type": "event"
    },
    {
      "anonymous": false,
      "inputs": [
        {
          "indexed": false,
          "internalType": "uint32",
          "name": "originNetwork",
          "type": "uint32"
        },
        {
          "indexed": false,
          "internalType": "address",
          "name": "originTokenAddress",
          "type": "address"
        },
        {
          "indexed": false,
          "internalType": "address",
          "name": "wrappedTokenAddress",
          "type": "address"
        }
      ],
      "name": "NewWrappedToken",
      "type": "event"
    },
    {
      "anonymous": false,
      "inputs": [
        {
          "indexed": true,
          "internalType": "address",
          "name": "previousOwner",
          "type": "address"
        },
        {
          "indexed": true,
          "internalType": "address",
          "name": "newOwner",
          "type": "address"
        }
      ],
      "name": "OwnershipTransferred",
      "type": "event"
    },
    {
      "anonymous": false,
      "inputs": [
        {
          "indexed": false,
          "internalType": "uint256",
          "name": "newClaimTimeout",
          "type": "uint256"
        }
      ],
      "name": "SetClaimTimeout",
      "type": "event"
    },
    {
      "inputs": [],
      "name": "LEAF_TYPE_ASSET",
      "outputs": [
        {
          "internalType": "uint8",
          "name": "",
          "type": "uint8"
        }
      ],
      "stateMutability": "view",
      "type": "function"
    },
    {
      "inputs": [],
      "name": "LEAF_TYPE_MESSAGE",
      "outputs": [
        {
          "internalType": "uint8",
          "name": "",
          "type": "uint8"
        }
      ],
      "stateMutability": "view",
      "type": "function"
    },
    {
      "inputs": [],
      "name": "MAINNET_NETWORK_ID",
      "outputs": [
        {
          "internalType": "uint32",
          "name": "",
          "type": "uint32"
        }
      ],
      "stateMutability": "view",
      "type": "function"
    },
    {
      "inputs": [],
      "name": "activateEmergencyState",
      "outputs": [],
      "stateMutability": "nonpayable",
      "type": "function"
    },
    {
      "inputs": [
        {
          "internalType": "address",
          "name": "token",
          "type": "address"
        },
        {
          "internalType": "uint32",
          "name": "destinationNetwork",
          "type": "uint32"
        },
        {
          "internalType": "address",
          "name": "destinationAddress",
          "type": "address"
        },
        {
          "internalType": "uint256",
          "name": "amount",
          "type": "uint256"
        },
        {
          "internalType": "bytes",
          "name": "permitData",
          "type": "bytes"
        }
      ],
      "name": "bridgeAsset",
      "outputs": [],
      "stateMutability": "payable",
      "type": "function"
    },
    {
      "inputs": [
        {
          "internalType": "uint32",
          "name": "destinationNetwork",
          "type": "uint32"
        },
        {
          "internalType": "address",
          "name": "destinationAddress",
          "type": "address"
        },
        {
          "internalType": "bytes",
          "name": "metadata",
          "type": "bytes"
        }
      ],
      "name": "bridgeMessage",
      "outputs": [],
      "stateMutability": "payable",
      "type": "function"
    },
    {
      "inputs": [
        {
          "internalType": "bytes32[]",
          "name": "smtProof",
          "type": "bytes32[]"
        },
        {
          "internalType": "uint32",
          "name": "index",
          "type": "uint32"
        },
        {
          "internalType": "bytes32",
          "name": "mainnetExitRoot",
          "type": "bytes32"
        },
        {
          "internalType": "bytes32",
          "name": "rollupExitRoot",
          "type": "bytes32"
        },
        {
          "internalType": "uint32",
          "name": "originNetwork",
          "type": "uint32"
        },
        {
          "internalType": "address",
          "name": "originTokenAddress",
          "type": "address"
        },
        {
          "internalType": "uint32",
          "name": "destinationNetwork",
          "type": "uint32"
        },
        {
          "internalType": "address",
          "name": "destinationAddress",
          "type": "address"
        },
        {
          "internalType": "uint256",
          "name": "amount",
          "type": "uint256"
        },
        {
          "internalType": "bytes",
          "name": "metadata",
          "type": "bytes"
        }
      ],
      "name": "claimAsset",
      "outputs": [],
      "stateMutability": "nonpayable",
      "type": "function"
    },
    {
      "inputs": [
        {
          "internalType": "bytes32[]",
          "name": "smtProof",
          "type": "bytes32[]"
        },
        {
          "internalType": "uint32",
          "name": "index",
          "type": "uint32"
        },
        {
          "internalType": "bytes32",
          "name": "mainnetExitRoot",
          "type": "bytes32"
        },
        {
          "internalType": "bytes32",
          "name": "rollupExitRoot",
          "type": "bytes32"
        },
        {
          "internalType": "uint32",
          "name": "originNetwork",
          "type": "uint32"
        },
        {
          "internalType": "address",
          "name": "originAddress",
          "type": "address"
        },
        {
          "internalType": "uint32",
          "name": "destinationNetwork",
          "type": "uint32"
        },
        {
          "internalType": "address",
          "name": "destinationAddress",
          "type": "address"
        },
        {
          "internalType": "uint256",
          "name": "amount",
          "type": "uint256"
        },
        {
          "internalType": "bytes",
          "name": "metadata",
          "type": "bytes"
        }
      ],
      "name": "claimMessage",
      "outputs": [],
      "stateMutability": "nonpayable",
      "type": "function"
    },
    {
      "inputs": [],
      "name": "claimTimeout",
      "outputs": [
        {
          "internalType": "uint256",
          "name": "",
          "type": "uint256"
        }
      ],
      "stateMutability": "view",
      "type": "function"
    },
    {
      "inputs": [
        {
          "internalType": "uint256",
          "name": "",
          "type": "uint256"
        }
      ],
      "name": "claimedBitMap",
      "outputs": [
        {
          "internalType": "uint256",
          "name": "",
          "type": "uint256"
        }
      ],
      "stateMutability": "view",
      "type": "function"
    },
    {
      "inputs": [],
      "name": "deactivateEmergencyState",
      "outputs": [],
      "stateMutability": "nonpayable",
      "type": "function"
    },
    {
      "inputs": [],
      "name": "depositCount",
      "outputs": [
        {
          "internalType": "uint256",
          "name": "",
          "type": "uint256"
        }
      ],
      "stateMutability": "view",
      "type": "function"
    },
    {
      "inputs": [],
      "name": "getDepositRoot",
      "outputs": [
        {
          "internalType": "bytes32",
          "name": "",
          "type": "bytes32"
        }
      ],
      "stateMutability": "view",
      "type": "function"
    },
    {
      "inputs": [
        {
          "internalType": "uint8",
          "name": "leafType",
          "type": "uint8"
        },
        {
          "internalType": "uint32",
          "name": "originNetwork",
          "type": "uint32"
        },
        {
          "internalType": "address",
          "name": "originAddress",
          "type": "address"
        },
        {
          "internalType": "uint32",
          "name": "destinationNetwork",
          "type": "uint32"
        },
        {
          "internalType": "address",
          "name": "destinationAddress",
          "type": "address"
        },
        {
          "internalType": "uint256",
          "name": "amount",
          "type": "uint256"
        },
        {
          "internalType": "bytes32",
          "name": "metadataHash",
          "type": "bytes32"
        }
      ],
      "name": "getLeafValue",
      "outputs": [
        {
          "internalType": "bytes32",
          "name": "",
          "type": "bytes32"
        }
      ],
      "stateMutability": "pure",
      "type": "function"
    },
    {
      "inputs": [
        {
          "internalType": "uint32",
          "name": "originNetwork",
          "type": "uint32"
        },
        {
          "internalType": "address",
          "name": "originTokenAddress",
          "type": "address"
        }
      ],
      "name": "getTokenWrappedAddress",
      "outputs": [
        {
          "internalType": "address",
          "name": "",
          "type": "address"
        }
      ],
      "stateMutability": "view",
      "type": "function"
    },
    {
      "inputs": [],
      "name": "globalExitRootManager",
      "outputs": [
        {
          "internalType": "contract IGlobalExitRootManager",
          "name": "",
          "type": "address"
        }
      ],
      "stateMutability": "view",
      "type": "function"
    },
    {
      "inputs": [
        {
          "internalType": "uint32",
          "name": "_networkID",
          "type": "uint32"
        },
        {
          "internalType": "contract IGlobalExitRootManager",
          "name": "_globalExitRootManager",
          "type": "address"
        },
        {
          "internalType": "address",
          "name": "_poeAddress",
          "type": "address"
        },
        {
          "internalType": "uint256",
          "name": "_claimTimeout",
          "type": "uint256"
        }
      ],
      "name": "initialize",
      "outputs": [],
      "stateMutability": "nonpayable",
      "type": "function"
    },
    {
      "inputs": [
        {
          "internalType": "uint256",
          "name": "index",
          "type": "uint256"
        }
      ],
      "name": "isClaimed",
      "outputs": [
        {
          "internalType": "bool",
          "name": "",
          "type": "bool"
        }
      ],
      "stateMutability": "view",
      "type": "function"
    },
    {
      "inputs": [],
      "name": "isEmergencyState",
      "outputs": [
        {
          "internalType": "bool",
          "name": "",
          "type": "bool"
        }
      ],
      "stateMutability": "view",
      "type": "function"
    },
    {
      "inputs": [],
      "name": "maxEtherBridge",
      "outputs": [
        {
          "internalType": "uint256",
          "name": "",
          "type": "uint256"
        }
      ],
      "stateMutability": "view",
      "type": "function"
    },
    {
      "inputs": [],
      "name": "networkID",
      "outputs": [
        {
          "internalType": "uint32",
          "name": "",
          "type": "uint32"
        }
      ],
      "stateMutability": "view",
      "type": "function"
    },
    {
      "inputs": [],
      "name": "owner",
      "outputs": [
        {
          "internalType": "address",
          "name": "",
          "type": "address"
        }
      ],
      "stateMutability": "view",
      "type": "function"
    },
    {
      "inputs": [],
      "name": "poeAddress",
      "outputs": [
        {
          "internalType": "address",
          "name": "",
          "type": "address"
        }
      ],
      "stateMutability": "view",
      "type": "function"
    },
    {
      "inputs": [
        {
          "internalType": "uint32",
          "name": "originNetwork",
          "type": "uint32"
        },
        {
          "internalType": "address",
          "name": "originTokenAddress",
          "type": "address"
        },
        {
          "internalType": "string",
          "name": "name",
          "type": "string"
        },
        {
          "internalType": "string",
          "name": "symbol",
          "type": "string"
        },
        {
          "internalType": "uint8",
          "name": "decimals",
          "type": "uint8"
        }
      ],
      "name": "precalculatedWrapperAddress",
      "outputs": [
        {
          "internalType": "address",
          "name": "",
          "type": "address"
        }
      ],
      "stateMutability": "view",
      "type": "function"
    },
    {
      "inputs": [],
      "name": "renounceOwnership",
      "outputs": [],
      "stateMutability": "nonpayable",
      "type": "function"
    },
    {
      "inputs": [
        {
          "internalType": "uint256",
          "name": "newClaimTimeout",
          "type": "uint256"
        }
      ],
      "name": "setClaimTimeout",
      "outputs": [],
      "stateMutability": "nonpayable",
      "type": "function"
    },
    {
      "inputs": [
        {
          "internalType": "uint256",
          "name": "_maxEtherBridge",
          "type": "uint256"
        }
      ],
      "name": "setMaxEtherBridge",
      "outputs": [],
      "stateMutability": "nonpayable",
      "type": "function"
    },
    {
      "inputs": [
        {
          "internalType": "uint32",
          "name": "_networkID",
          "type": "uint32"
        }
      ],
      "name": "setNetworkID",
      "outputs": [],
      "stateMutability": "nonpayable",
      "type": "function"
    },
    {
      "inputs": [
        {
          "internalType": "bytes32",
          "name": "",
          "type": "bytes32"
        }
      ],
      "name": "tokenInfoToWrappedToken",
      "outputs": [
        {
          "internalType": "address",
          "name": "",
          "type": "address"
        }
      ],
      "stateMutability": "view",
      "type": "function"
    },
    {
      "inputs": [
        {
          "internalType": "address",
          "name": "newOwner",
          "type": "address"
        }
      ],
      "name": "transferOwnership",
      "outputs": [],
      "stateMutability": "nonpayable",
      "type": "function"
    },
    {
      "inputs": [
        {
          "internalType": "bytes32",
          "name": "leafHash",
          "type": "bytes32"
        },
        {
          "internalType": "bytes32[]",
          "name": "smtProof",
          "type": "bytes32[]"
        },
        {
          "internalType": "uint64",
          "name": "index",
          "type": "uint64"
        },
        {
          "internalType": "bytes32",
          "name": "root",
          "type": "bytes32"
        }
      ],
      "name": "verifyMerkleProof",
      "outputs": [
        {
          "internalType": "bool",
          "name": "",
          "type": "bool"
        }
      ],
      "stateMutability": "pure",
      "type": "function"
    },
    {
      "inputs": [
        {
          "internalType": "address",
          "name": "",
          "type": "address"
        }
      ],
      "name": "wrappedTokenToTokenInfo",
      "outputs": [
        {
          "internalType": "uint32",
          "name": "originNetwork",
          "type": "uint32"
        },
        {
          "internalType": "address",
          "name": "originTokenAddress",
          "type": "address"
        }
      ],
      "stateMutability": "view",
      "type": "function"
    }
  ],
  "bytecode": "0x608060405234801561001057600080fd5b50615b0d806100206000396000f3fe6080604052600436106200020b5760003560e01c806381b1c1741162000117578063d02103ca11620000a1578063ed6be5c9116200006c578063ed6be5c91462000700578063ee25560b1462000717578063f2fde38b1462000748578063ff634ed7146200076d57600080fd5b8063d02103ca146200068a578063d96a15f714620006ac578063dbc1697614620006c3578063e7a5b4ea14620006db57600080fd5b80639e34070f11620000e25780639e34070f14620005e1578063a08e8a081462000606578063aaa13cc21462000630578063bab161bf146200065557600080fd5b806381b1c174146200054d5780638da5cb5b14620005875780638f61151914620005a757806391e57e2d14620005c957600080fd5b8063318aee3d11620001995780634638554911620001645780634638554914620004c65780636555954014620004eb578063715018a614620005105780637b6323c1146200052857600080fd5b8063318aee3d14620003395780633ae0504714620003a85780633da8168214620003c05780633e19704314620003e557600080fd5b806322e95f2c11620001da57806322e95f2c14620002995780632b5e42e714620002d75780632c3f58cd14620002fc5780632dfdf0b5146200032157600080fd5b80630871e97114620002105780630e1da6c3146200022957806315064c9614620002545780632072f6c51462000281575b600080fd5b6200022762000221366004620033eb565b62000784565b005b3480156200023657600080fd5b5062000241608d5481565b6040519081526020015b60405180910390f35b3480156200026157600080fd5b50602254620002709060ff1681565b60405190151581526020016200024b565b3480156200028e57600080fd5b506200022762000840565b348015620002a657600080fd5b50620002be620002b836600462003478565b620008f4565b6040516001600160a01b0390911681526020016200024b565b348015620002e457600080fd5b5062000227620002f6366004620034b4565b62000977565b3480156200030957600080fd5b50620002276200031b366004620034ce565b62000986565b3480156200032e57600080fd5b506200024160215481565b3480156200034657600080fd5b506200038362000358366004620034f3565b608a6020526000908152604090205463ffffffff81169064010000000090046001600160a01b031682565b6040805163ffffffff90931683526001600160a01b039091166020830152016200024b565b348015620003b557600080fd5b5062000241620009c7565b348015620003cd57600080fd5b5062000270620003df366004620035f4565b62000aba565b348015620003f257600080fd5b50620002416200040436600462003672565b6040517fff0000000000000000000000000000000000000000000000000000000000000060f889901b1660208201527fffffffff0000000000000000000000000000000000000000000000000000000060e088811b821660218401526bffffffffffffffffffffffff19606089811b821660258601529188901b909216603984015285901b16603d8201526051810183905260718101829052600090609101604051602081830303815290604052805190602001209050979650505050505050565b348015620004d357600080fd5b5062000227620004e536600462003783565b62000bbc565b348015620004f857600080fd5b50620002276200050a3660046200386a565b62000e34565b3480156200051d57600080fd5b506200022762001044565b3480156200053557600080fd5b50620002276200054736600462003783565b6200105a565b3480156200055a57600080fd5b50620002be6200056c366004620034b4565b6089602052600090815260409020546001600160a01b031681565b3480156200059457600080fd5b506055546001600160a01b0316620002be565b348015620005b457600080fd5b50608c54620002be906001600160a01b031681565b348015620005d657600080fd5b5062000241608e5481565b348015620005ee57600080fd5b506200027062000600366004620034b4565b6200160d565b3480156200061357600080fd5b506200061d600081565b60405160ff90911681526020016200024b565b3480156200063d57600080fd5b50620002be6200064f366004620038c0565b62001652565b3480156200066257600080fd5b50608754620006749063ffffffff1681565b60405163ffffffff90911681526020016200024b565b3480156200069757600080fd5b50608b54620002be906001600160a01b031681565b62000227620006bd36600462003974565b620017be565b348015620006d057600080fd5b506200022762001a72565b348015620006e857600080fd5b5062000227620006fa366004620034b4565b62001b24565b3480156200070d57600080fd5b5062000674600081565b3480156200072457600080fd5b506200024162000736366004620034b4565b60886020526000908152604090205481565b3480156200075557600080fd5b506200022762000767366004620034f3565b62001b69565b3480156200077a57600080fd5b506200061d600181565b608e54341115620008285760405162461bcd60e51b815260206004820152604a60248201527f4272696467653a3a6272696467653a2043616e6e6f7420627269646765206d6f60448201527f7265207468616e206d6178457468657242726964676520696e20696e7465726e60648201527f616c20746573746e657400000000000000000000000000000000000000000000608482015260a4015b60405180910390fd5b6200083886868686868662001bff565b505050505050565b608c546001600160a01b03163314620008e85760405162461bcd60e51b815260206004820152604b60248201527f50726f6f664f66456666696369656e63793a3a6f6e6c7950726f6f664f66456660448201527f66696369656e63793a206f6e6c792050726f6f66206f6620456666696369656e60648201527f637920636f6e7472616374000000000000000000000000000000000000000000608482015260a4016200081f565b620008f2620021a5565b565b6040805160e084901b7fffffffff0000000000000000000000000000000000000000000000000000000016602080830191909152606084901b6bffffffffffffffffffffffff1916602483015282516018818403018152603890920183528151918101919091206000908152608990915220546001600160a01b03165b92915050565b620009816200229c565b608e55565b620009906200229c565b608780547fffffffffffffffffffffffffffffffffffffffffffffffffffffffff000000001663ffffffff92909216919091179055565b602154600090819081805b602081101562000ab1578260011660010362000a325760018160208110620009fe57620009fe620039dc565b0154604080516020810192909252810185905260600160405160208183030381529060405280519060200120935062000a5f565b60408051602081018690529081018390526060016040516020818303038152906040528051906020012093505b62000a6c60028462003a69565b6040805160208101859052908101849052909350606001604051602081830303815290604052805190602001209150808062000aa89062003a80565b915050620009d2565b50919392505050565b60008467ffffffffffffffff8416825b602081101562000bad578160011660010362000b375786818151811062000af55762000af5620039dc565b60200260200101518360405160200162000b19929190918252602082015260400190565b60405160208183030381529060405280519060200120925062000b89565b8287828151811062000b4d5762000b4d620039dc565b602002602001015160405160200162000b70929190918252602082015260400190565b6040516020818303038152906040528051906020012092505b62000b9660028362003a69565b91508062000ba48162003a80565b91505062000aca565b5050821490505b949350505050565b60225460ff161562000c5d5760405162461bcd60e51b815260206004820152604260248201527f456d657267656e63794d616e616765723a3a69664e6f74456d657267656e637960448201527f53746174653a206f6e6c79206966206e6f7420656d657267656e63792073746160648201527f7465000000000000000000000000000000000000000000000000000000000000608482015260a4016200081f565b62000c738a8a8a8a8a8a8a8a8a8a6001620022f8565b62000c848963ffffffff16620026a3565b6000836001600160a01b03168387898560405160240162000ca89392919062003b18565b60408051601f198184030181529181526020820180517bffffffffffffffffffffffffffffffffffffffffffffffffffffffff167f1806b5f2000000000000000000000000000000000000000000000000000000001790525162000d0d919062003b51565b60006040518083038185875af1925050503d806000811462000d4c576040519150601f19603f3d011682016040523d82523d6000602084013e62000d51565b606091505b505090508062000dc95760405162461bcd60e51b8152602060048201526024808201527f4272696467653a3a636c61696d4d6573736167653a204d4553534147455f464160448201527f494c45440000000000000000000000000000000000000000000000000000000060648201526084016200081f565b6040805163ffffffff8c81168252891660208201526001600160a01b0388811682840152861660608201526080810185905290517f25308c93ceeed162da955b3f7ce3e3f93606579e40fb92029faa9efe275459839181900360a00190a15050505050505050505050565b600054610100900460ff161580801562000e555750600054600160ff909116105b8062000e715750303b15801562000e71575060005460ff166001145b62000ee55760405162461bcd60e51b815260206004820152602e60248201527f496e697469616c697a61626c653a20636f6e747261637420697320616c72656160448201527f647920696e697469616c697a656400000000000000000000000000000000000060648201526084016200081f565b600080547fffffffffffffffffffffffffffffffffffffffffffffffffffffffffffffff00166001179055801562000f4457600080547fffffffffffffffffffffffffffffffffffffffffffffffffffffffffffff00ff166101001790555b6087805463ffffffff87167fffffffffffffffffffffffffffffffffffffffffffffffffffffffff00000000909116179055608b80546001600160a01b038087167fffffffffffffffffffffffff000000000000000000000000000000000000000092831617909255608c805492861692909116919091179055608d8290556703782dace9d90000608e5562000fd9620026e5565b80156200103d57600080547fffffffffffffffffffffffffffffffffffffffffffffffffffffffffffff00ff169055604051600181527f7f26b83ff96e1f2b6a682f133852f6798a09c465da95921460cefb38474024989060200160405180910390a15b5050505050565b6200104e6200229c565b620008f260006200276a565b60225460ff1615620010fb5760405162461bcd60e51b815260206004820152604260248201527f456d657267656e63794d616e616765723a3a69664e6f74456d657267656e637960448201527f53746174653a206f6e6c79206966206e6f7420656d657267656e63792073746160648201527f7465000000000000000000000000000000000000000000000000000000000000608482015260a4016200081f565b620011118a8a8a8a8a8a8a8a8a8a6000620022f8565b620011228963ffffffff16620026a3565b6001600160a01b0385166200122157604080516000808252602082019092526001600160a01b0385169084906040516200115d919062003b51565b60006040518083038185875af1925050503d80600081146200119c576040519150601f19603f3d011682016040523d82523d6000602084013e620011a1565b606091505b50509050806200121a5760405162461bcd60e51b815260206004820152602760248201527f4272696467653a3a636c61696d41737365743a204554485f5452414e5346455260448201527f5f4641494c45440000000000000000000000000000000000000000000000000060648201526084016200081f565b50620015a3565b60875463ffffffff9081169087160362001251576200124b6001600160a01b0386168484620027d4565b620015a3565b6040517fffffffff0000000000000000000000000000000000000000000000000000000060e088901b1660208201526bffffffffffffffffffffffff19606087901b16602482015260009060380160408051601f198184030181529181528151602092830120600081815260899093529120549091506001600160a01b0316806200150f57600080600085806020019051810190620012f1919062003bbb565b9250925092506000858484846040516200130b9062003354565b620013199392919062003c3c565b8190604051809103906000f59050801580156200133a573d6000803e3d6000fd5b506040517f40c10f190000000000000000000000000000000000000000000000000000000081526001600160a01b038b81166004830152602482018b9052919250908216906340c10f19906044016020604051808303816000875af1158015620013a8573d6000803e3d6000fd5b505050506040513d601f19601f82011682018060405250810190620013ce919062003c88565b50806089600088815260200190815260200160002060006101000a8154816001600160a01b0302191690836001600160a01b0316021790555060405180604001604052808d63ffffffff1681526020018c6001600160a01b0316815250608a6000836001600160a01b03166001600160a01b0316815260200190815260200160002060008201518160000160006101000a81548163ffffffff021916908363ffffffff16021790555060208201518160000160046101000a8154816001600160a01b0302191690836001600160a01b031602179055509050507fccd7715648d1f2bb13e158f96b5b6c3aeda555d4cb87112e274a6f28bc571d598c8c83604051620014fd9392919063ffffffff9390931683526001600160a01b03918216602084015216604082015260600190565b60405180910390a150505050620015a0565b6040517f40c10f190000000000000000000000000000000000000000000000000000000081526001600160a01b038681166004830152602482018690528216906340c10f19906044016020604051808303816000875af115801562001578573d6000803e3d6000fd5b505050506040513d601f19601f820116820180604052508101906200159e919062003c88565b505b50505b6040805163ffffffff8b81168252881660208201526001600160a01b0387811682840152851660608201526080810184905290517f25308c93ceeed162da955b3f7ce3e3f93606579e40fb92029faa9efe275459839181900360a00190a150505050505050505050565b6000806200161e6101008462003a69565b90506000620016306101008562003ca8565b60009283526088602052604090922054600190921b9182169091149392505050565b6040517fffffffff0000000000000000000000000000000000000000000000000000000060e089901b1660208201526bffffffffffffffffffffffff19606088901b1660248201526000908190603801604051602081830303815290604052805190602001209050600060ff60f81b308360405180602001620016d59062003354565b601f1982820381018352601f90910116604081905262001702908d908d908d908d908d9060200162003cea565b60408051601f198184030181529082905262001722929160200162003d2b565b604051602081830303815290604052805190602001206040516020016200179894939291907fff0000000000000000000000000000000000000000000000000000000000000094909416845260609290921b6bffffffffffffffffffffffff191660018401526015830152603582015260550190565b60408051808303601f1901815291905280516020909101209a9950505050505050505050565b60225460ff16156200185f5760405162461bcd60e51b815260206004820152604260248201527f456d657267656e63794d616e616765723a3a69664e6f74456d657267656e637960448201527f53746174653a206f6e6c79206966206e6f7420656d657267656e63792073746160648201527f7465000000000000000000000000000000000000000000000000000000000000608482015260a4016200081f565b60875463ffffffff90811690841603620018e25760405162461bcd60e51b815260206004820152602a60248201527f4272696467653a3a6272696467653a2044455354494e4154494f4e5f43414e5460448201527f5f42455f495453454c460000000000000000000000000000000000000000000060648201526084016200081f565b6087546021546040517f501781209a1f8899323b96b4ef08b168df93e0a90c673d1e4cce39366cb62f9b926200192f9260019263ffffffff9092169133918991899134918a919062003d5e565b60405180910390a16087548151602080840191909120604080517f0100000000000000000000000000000000000000000000000000000000000000818501527fffffffff0000000000000000000000000000000000000000000000000000000060e095861b811660218301526bffffffffffffffffffffffff1933606090811b82166025850152968a901b90911660398301529487901b909416603d8501523460518501526071808501929092528051808503909201825260919093019092528151910120620019ff9062002884565b608b546001600160a01b03166333d6247d62001a1a620009c7565b6040518263ffffffff1660e01b815260040162001a3991815260200190565b600060405180830381600087803b15801562001a5457600080fd5b505af115801562001a69573d6000803e3d6000fd5b50505050505050565b608c546001600160a01b0316331462001b1a5760405162461bcd60e51b815260206004820152604b60248201527f50726f6f664f66456666696369656e63793a3a6f6e6c7950726f6f664f66456660448201527f66696369656e63793a206f6e6c792050726f6f66206f6620456666696369656e60648201527f637920636f6e7472616374000000000000000000000000000000000000000000608482015260a4016200081f565b620008f2620029e3565b62001b2e6200229c565b608d8190556040518181527f126d6a8888996898896a660f1c9a7a4ef612bd6df82281a13079dd27cc38758d9060200160405180910390a150565b62001b736200229c565b6001600160a01b03811662001bf15760405162461bcd60e51b815260206004820152602660248201527f4f776e61626c653a206e6577206f776e657220697320746865207a65726f206160448201527f646472657373000000000000000000000000000000000000000000000000000060648201526084016200081f565b62001bfc816200276a565b50565b60225460ff161562001ca05760405162461bcd60e51b815260206004820152604260248201527f456d657267656e63794d616e616765723a3a69664e6f74456d657267656e637960448201527f53746174653a206f6e6c79206966206e6f7420656d657267656e63792073746160648201527f7465000000000000000000000000000000000000000000000000000000000000608482015260a4016200081f565b60875463ffffffff9081169086160362001d235760405162461bcd60e51b815260206004820152602a60248201527f4272696467653a3a6272696467653a2044455354494e4154494f4e5f43414e5460448201527f5f42455f495453454c460000000000000000000000000000000000000000000060648201526084016200081f565b60008060606001600160a01b03891662001db85785341462001dae5760405162461bcd60e51b815260206004820152602f60248201527f4272696467653a3a6272696467653a20414d4f554e545f444f45535f4e4f545f60448201527f4d415443485f4d53475f56414c5545000000000000000000000000000000000060648201526084016200081f565b6000915062002042565b6001600160a01b03808a166000908152608a602090815260409182902082518084019093525463ffffffff811683526401000000009004909216918101829052901562001e9f576040517f9dc29fac000000000000000000000000000000000000000000000000000000008152336004820152602481018890526001600160a01b038b1690639dc29fac906044016020604051808303816000875af115801562001e66573d6000803e3d6000fd5b505050506040513d601f19601f8201168201806040525081019062001e8c919062003c88565b5060208101518151909450925062002040565b841562001eb45762001eb48a88888862002ab0565b62001ecb6001600160a01b038b1633308a620030d5565b899350608760009054906101000a900463ffffffff169250896001600160a01b03166306fdde036040518163ffffffff1660e01b8152600401600060405180830381865afa15801562001f22573d6000803e3d6000fd5b505050506040513d6000823e601f3d908101601f1916820160405262001f4c919081019062003dca565b8a6001600160a01b03166395d89b416040518163ffffffff1660e01b8152600401600060405180830381865afa15801562001f8b573d6000803e3d6000fd5b505050506040513d6000823e601f3d908101601f1916820160405262001fb5919081019062003dca565b8b6001600160a01b031663313ce5676040518163ffffffff1660e01b8152600401602060405180830381865afa15801562001ff4573d6000803e3d6000fd5b505050506040513d601f19601f820116820180604052508101906200201a919062003e03565b6040516020016200202e9392919062003c3c565b60405160208183030381529060405291505b505b7f501781209a1f8899323b96b4ef08b168df93e0a90c673d1e4cce39366cb62f9b600083858b8b8b876021546040516200208498979695949392919062003d5e565b60405180910390a18051602080830191909120604080516000818501527fffffffff0000000000000000000000000000000000000000000000000000000060e087811b821660218401526bffffffffffffffffffffffff1960608a811b82166025860152918f901b90921660398401528c901b16603d820152605181018a905260718082019390935281518082039093018352609101905280519101206200212c9062002884565b608b546001600160a01b03166333d6247d62002147620009c7565b6040518263ffffffff1660e01b81526004016200216691815260200190565b600060405180830381600087803b1580156200218157600080fd5b505af115801562002196573d6000803e3d6000fd5b50505050505050505050505050565b60225460ff1615620022465760405162461bcd60e51b815260206004820152604260248201527f456d657267656e63794d616e616765723a3a69664e6f74456d657267656e637960448201527f53746174653a206f6e6c79206966206e6f7420656d657267656e63792073746160648201527f7465000000000000000000000000000000000000000000000000000000000000608482015260a4016200081f565b602280547fffffffffffffffffffffffffffffffffffffffffffffffffffffffffffffff001660011790556040517f2261efe5aef6fedc1fd1550b25facc9181745623049c7901287030b9ad1a549790600090a1565b6055546001600160a01b03163314620008f25760405162461bcd60e51b815260206004820181905260248201527f4f776e61626c653a2063616c6c6572206973206e6f7420746865206f776e657260448201526064016200081f565b620023098a63ffffffff166200160d565b156200237d5760405162461bcd60e51b8152602060048201526024808201527f4272696467653a3a5f7665726966794c6561663a20414c52454144595f434c4160448201527f494d45440000000000000000000000000000000000000000000000000000000060648201526084016200081f565b608b546040805160208082018d90528183018c9052825180830384018152606083019384905280519101207f257b36320000000000000000000000000000000000000000000000000000000090925260648101919091526000916001600160a01b03169063257b3632906084016020604051808303816000875af11580156200240a573d6000803e3d6000fd5b505050506040513d601f19601f8201168201806040525081019062002430919062003e23565b905080158015906200244f5750608d546200244c824262003e3d565b10155b620024e95760405162461bcd60e51b815260206004820152604260248201527f4272696467653a3a5f7665726966794c6561663a20474c4f42414c5f4558495460448201527f5f524f4f545f494e56414c49445f4f525f4e4f545f5945545f434c41494d414260648201527f4c45000000000000000000000000000000000000000000000000000000000000608482015260a4016200081f565b60875463ffffffff8781169116146200256b5760405162461bcd60e51b815260206004820152603760248201527f4272696467653a3a5f7665726966794c6561663a2044455354494e4154494f4e60448201527f5f4e4554574f524b5f444f45535f4e4f545f4d4154434800000000000000000060648201526084016200081f565b60875460009063ffffffff166200258457508862002587565b50895b8351602080860191909120604080517fff0000000000000000000000000000000000000000000000000000000000000060f888901b16818501527fffffffff0000000000000000000000000000000000000000000000000000000060e08e811b821660218401526bffffffffffffffffffffffff1960608f811b82166025860152918e901b90921660398401528b901b16603d82015260518101899052607180820193909352815180820390930183526091019052805191012062002655908e8e63ffffffff168462000aba565b620021965760405162461bcd60e51b815260206004820181905260248201527f4272696467653a3a5f7665726966794c6561663a20534d545f494e56414c494460448201526064016200081f565b6000620026b36101008362003a69565b90506000620026c56101008462003ca8565b6000928352608860205260409092208054600190931b9092179091555050565b600054610100900460ff16620027645760405162461bcd60e51b815260206004820152602b60248201527f496e697469616c697a61626c653a20636f6e7472616374206973206e6f74206960448201527f6e697469616c697a696e6700000000000000000000000000000000000000000060648201526084016200081f565b620008f2335b605580546001600160a01b038381167fffffffffffffffffffffffff0000000000000000000000000000000000000000831681179093556040519116919082907f8be0079c531659141344cd1fd0a4f28419497f9722a3daafe3b4186f6b6457e090600090a35050565b6040516001600160a01b0383166024820152604481018290526200287f9084907fa9059cbb00000000000000000000000000000000000000000000000000000000906064015b60408051601f198184030181529190526020810180517bffffffffffffffffffffffffffffffffffffffffffffffffffffffff167fffffffff00000000000000000000000000000000000000000000000000000000909316929092179091526200312e565b505050565b806001620028956020600262003f90565b620028a1919062003e3d565b60215410620029195760405162461bcd60e51b815260206004820152602a60248201527f4465706f736974436f6e74726163743a5f6465706f7369743a204d45524b4c4560448201527f5f545245455f46554c4c0000000000000000000000000000000000000000000060648201526084016200081f565b6001602160008282546200292e919062003f9e565b909155505060215460005b6020811015620029d857816001166001036200296e578260018260208110620029665762002966620039dc565b015550505050565b60018160208110620029845762002984620039dc565b01546040805160208101929092528101849052606001604051602081830303815290604052805190602001209250600282620029c1919062003a69565b915080620029cf8162003a80565b91505062002939565b506200287f62003fb9565b60225460ff1662002a5d5760405162461bcd60e51b815260206004820152603b60248201527f456d657267656e63794d616e616765723a3a6966456d657267656e637953746160448201527f74653a206f6e6c7920696620656d657267656e6379207374617465000000000060648201526084016200081f565b602280547fffffffffffffffffffffffffffffffffffffffffffffffffffffffffffffff001690556040517f1e5e34eea33501aecf2ebec9fe0e884a40804275ea7fe10b2ba084c8374308b390600090a1565b600062002af383838080601f0160208091040260200160405190810160405280939291908181526020018383808284376000920191909152506200321a92505050565b90507f2afa5331000000000000000000000000000000000000000000000000000000007fffffffff0000000000000000000000000000000000000000000000000000000082160162002df557600080808080808062002b56896004818d62003fe8565b81019062002b65919062004014565b9650965096509650965096509650336001600160a01b0316876001600160a01b03161462002bfc5760405162461bcd60e51b815260206004820152603060248201527f4272696467653a3a5f7065726d69743a205045524d49545f4f574e45525f4d5560448201527f53545f42455f5448455f53454e4445520000000000000000000000000000000060648201526084016200081f565b6001600160a01b038616301462002c7c5760405162461bcd60e51b815260206004820152602560248201527f4272696467653a3a5f7065726d69743a205350454e4445525f4d5553545f424560448201527f5f5448495300000000000000000000000000000000000000000000000000000060648201526084016200081f565b8a851462002cf35760405162461bcd60e51b815260206004820152602d60248201527f4272696467653a3a5f7065726d69743a205045524d49545f414d4f554e545f4460448201527f4f45535f4e4f545f4d415443480000000000000000000000000000000000000060648201526084016200081f565b604080516001600160a01b0389811660248301528881166044830152606482018890526084820187905260ff861660a483015260c4820185905260e48083018590528351808403909101815261010490920183526020820180517bffffffffffffffffffffffffffffffffffffffffffffffffffffffff167fd505accf000000000000000000000000000000000000000000000000000000001790529151918e169162002da1919062003b51565b6000604051808303816000865af19150503d806000811462002de0576040519150601f19603f3d011682016040523d82523d6000602084013e62002de5565b606091505b505050505050505050506200103d565b7fffffffff0000000000000000000000000000000000000000000000000000000081167f8fcbaf0c000000000000000000000000000000000000000000000000000000001462002e885760405162461bcd60e51b815260206004820152601f60248201527f4272696467653a3a5f7065726d69743a204e4f545f56414c49445f43414c4c0060448201526064016200081f565b60008080808080808062002ea08a6004818e62003fe8565b81019062002eaf91906200406f565b97509750975097509750975097509750336001600160a01b0316886001600160a01b03161462002f485760405162461bcd60e51b815260206004820152603060248201527f4272696467653a3a5f7065726d69743a205045524d49545f4f574e45525f4d5560448201527f53545f42455f5448455f53454e4445520000000000000000000000000000000060648201526084016200081f565b6001600160a01b038716301462002fc85760405162461bcd60e51b815260206004820152602560248201527f4272696467653a3a5f7065726d69743a205350454e4445525f4d5553545f424560448201527f5f5448495300000000000000000000000000000000000000000000000000000060648201526084016200081f565b604080516001600160a01b038a811660248301528981166044830152606482018990526084820188905286151560a483015260ff861660c483015260e482018590526101048083018590528351808403909101815261012490920183526020820180517bffffffffffffffffffffffffffffffffffffffffffffffffffffffff167f8fcbaf0c000000000000000000000000000000000000000000000000000000001790529151918f16916200307f919062003b51565b6000604051808303816000865af19150503d8060008114620030be576040519150601f19603f3d011682016040523d82523d6000602084013e620030c3565b606091505b50505050505050505050505050505050565b6040516001600160a01b0380851660248301528316604482015260648101829052620031289085907f23b872dd00000000000000000000000000000000000000000000000000000000906084016200281a565b50505050565b600062003185826040518060400160405280602081526020017f5361666545524332303a206c6f772d6c6576656c2063616c6c206661696c6564815250856001600160a01b0316620032219092919063ffffffff16565b8051909150156200287f5780806020019051810190620031a6919062003c88565b6200287f5760405162461bcd60e51b815260206004820152602a60248201527f5361666545524332303a204552433230206f7065726174696f6e20646964206e60448201527f6f7420737563636565640000000000000000000000000000000000000000000060648201526084016200081f565b6020015190565b606062000bb4848460008585600080866001600160a01b031685876040516200324b919062003b51565b60006040518083038185875af1925050503d80600081146200328a576040519150601f19603f3d011682016040523d82523d6000602084013e6200328f565b606091505b5091509150620032a287838387620032ad565b979650505050505050565b606083156200332157825160000362003319576001600160a01b0385163b620033195760405162461bcd60e51b815260206004820152601d60248201527f416464726573733a2063616c6c20746f206e6f6e2d636f6e747261637400000060448201526064016200081f565b508162000bb4565b62000bb48383815115620033385781518083602001fd5b8060405162461bcd60e51b81526004016200081f9190620040fb565b6119c7806200411183390190565b6001600160a01b038116811462001bfc57600080fd5b8035620033858162003362565b919050565b803563ffffffff811681146200338557600080fd5b60008083601f840112620033b257600080fd5b50813567ffffffffffffffff811115620033cb57600080fd5b602083019150836020828501011115620033e457600080fd5b9250929050565b60008060008060008060a087890312156200340557600080fd5b8635620034128162003362565b955062003422602088016200338a565b94506040870135620034348162003362565b935060608701359250608087013567ffffffffffffffff8111156200345857600080fd5b6200346689828a016200339f565b979a9699509497509295939492505050565b600080604083850312156200348c57600080fd5b62003497836200338a565b91506020830135620034a98162003362565b809150509250929050565b600060208284031215620034c757600080fd5b5035919050565b600060208284031215620034e157600080fd5b620034ec826200338a565b9392505050565b6000602082840312156200350657600080fd5b8135620034ec8162003362565b7f4e487b7100000000000000000000000000000000000000000000000000000000600052604160045260246000fd5b604051601f8201601f1916810167ffffffffffffffff811182821017156200356e576200356e62003513565b604052919050565b600082601f8301126200358857600080fd5b8135602067ffffffffffffffff821115620035a757620035a762003513565b8160051b620035b882820162003542565b9283528481018201928281019087851115620035d357600080fd5b83870192505b84831015620032a257823582529183019190830190620035d9565b600080600080608085870312156200360b57600080fd5b84359350602085013567ffffffffffffffff808211156200362b57600080fd5b620036398883890162003576565b94506040870135915080821682146200365157600080fd5b509396929550929360600135925050565b60ff8116811462001bfc57600080fd5b600080600080600080600060e0888a0312156200368e57600080fd5b87356200369b8162003662565b9650620036ab602089016200338a565b95506040880135620036bd8162003362565b9450620036cd606089016200338a565b93506080880135620036df8162003362565b9699959850939692959460a0840135945060c09093013592915050565b600067ffffffffffffffff82111562003719576200371962003513565b50601f01601f191660200190565b600082601f8301126200373957600080fd5b8135620037506200374a82620036fc565b62003542565b8181528460208386010111156200376657600080fd5b816020850160208301376000918101602001919091529392505050565b6000806000806000806000806000806101408b8d031215620037a457600080fd5b8a3567ffffffffffffffff80821115620037bd57600080fd5b620037cb8e838f0162003576565b9b50620037db60208e016200338a565b9a5060408d0135995060608d01359850620037f960808e016200338a565b97506200380960a08e0162003378565b96506200381960c08e016200338a565b95506200382960e08e0162003378565b94506101008d013593506101208d01359150808211156200384957600080fd5b50620038588d828e0162003727565b9150509295989b9194979a5092959850565b600080600080608085870312156200388157600080fd5b6200388c856200338a565b935060208501356200389e8162003362565b92506040850135620038b08162003362565b9396929550929360600135925050565b600080600080600080600060a0888a031215620038dc57600080fd5b620038e7886200338a565b96506020880135620038f98162003362565b9550604088013567ffffffffffffffff808211156200391757600080fd5b620039258b838c016200339f565b909750955060608a01359150808211156200393f57600080fd5b506200394e8a828b016200339f565b9094509250506080880135620039648162003662565b8091505092959891949750929550565b6000806000606084860312156200398a57600080fd5b62003995846200338a565b92506020840135620039a78162003362565b9150604084013567ffffffffffffffff811115620039c457600080fd5b620039d28682870162003727565b9150509250925092565b7f4e487b7100000000000000000000000000000000000000000000000000000000600052603260045260246000fd5b7f4e487b7100000000000000000000000000000000000000000000000000000000600052601260045260246000fd5b7f4e487b7100000000000000000000000000000000000000000000000000000000600052601160045260246000fd5b60008262003a7b5762003a7b62003a0b565b500490565b60007fffffffffffffffffffffffffffffffffffffffffffffffffffffffffffffffff820362003ab45762003ab462003a3a565b5060010190565b60005b8381101562003ad857818101518382015260200162003abe565b83811115620031285750506000910152565b6000815180845262003b0481602086016020860162003abb565b601f01601f19169290920160200192915050565b6001600160a01b038416815263ffffffff8316602082015260606040820152600062003b48606083018462003aea565b95945050505050565b6000825162003b6581846020870162003abb565b9190910192915050565b600082601f83011262003b8157600080fd5b815162003b926200374a82620036fc565b81815284602083860101111562003ba857600080fd5b62000bb482602083016020870162003abb565b60008060006060848603121562003bd157600080fd5b835167ffffffffffffffff8082111562003bea57600080fd5b62003bf88783880162003b6f565b9450602086015191508082111562003c0f57600080fd5b5062003c1e8682870162003b6f565b925050604084015162003c318162003662565b809150509250925092565b60608152600062003c51606083018662003aea565b828103602084015262003c65818662003aea565b91505060ff83166040830152949350505050565b801515811462001bfc57600080fd5b60006020828403121562003c9b57600080fd5b8151620034ec8162003c79565b60008262003cba5762003cba62003a0b565b500690565b818352818160208501375060006020828401015260006020601f19601f840116840101905092915050565b60608152600062003d0060608301878962003cbf565b828103602084015262003d1581868862003cbf565b91505060ff831660408301529695505050505050565b6000835162003d3f81846020880162003abb565b83519083019062003d5581836020880162003abb565b01949350505050565b600061010060ff8b16835263ffffffff808b1660208501526001600160a01b03808b166040860152818a1660608601528089166080860152508660a08501528160c085015262003db18285018762003aea565b925080851660e085015250509998505050505050505050565b60006020828403121562003ddd57600080fd5b815167ffffffffffffffff81111562003df557600080fd5b62000bb48482850162003b6f565b60006020828403121562003e1657600080fd5b8151620034ec8162003662565b60006020828403121562003e3657600080fd5b5051919050565b60008282101562003e525762003e5262003a3a565b500390565b600181815b8085111562003eb657817fffffffffffffffffffffffffffffffffffffffffffffffffffffffffffffffff0482111562003e9a5762003e9a62003a3a565b8085161562003ea857918102915b93841c939080029062003e5c565b509250929050565b60008262003ecf5750600162000971565b8162003ede5750600062000971565b816001811462003ef7576002811462003f025762003f22565b600191505062000971565b60ff84111562003f165762003f1662003a3a565b50506001821b62000971565b5060208310610133831016604e8410600b841016171562003f47575081810a62000971565b62003f53838362003e57565b807fffffffffffffffffffffffffffffffffffffffffffffffffffffffffffffffff0482111562003f885762003f8862003a3a565b029392505050565b6000620034ec838362003ebe565b6000821982111562003fb45762003fb462003a3a565b500190565b7f4e487b7100000000000000000000000000000000000000000000000000000000600052600160045260246000fd5b6000808585111562003ff957600080fd5b838611156200400757600080fd5b5050820193919092039150565b600080600080600080600060e0888a0312156200403057600080fd5b87356200403d8162003362565b965060208801356200404f8162003362565b955060408801359450606088013593506080880135620036df8162003662565b600080600080600080600080610100898b0312156200408d57600080fd5b88356200409a8162003362565b97506020890135620040ac8162003362565b965060408901359550606089013594506080890135620040cc8162003c79565b935060a0890135620040de8162003662565b979a969950949793969295929450505060c08201359160e0013590565b602081526000620034ec602083018462003aea56fe60c06040523480156200001157600080fd5b50604051620019c7380380620019c78339810160408190526200003491620002ad565b82826003620000448382620003c1565b506004620000538282620003c1565b5050600580546001600160a81b0319163360ff60a01b191617600160a01b60ff851602179055504660808190526200008b9062000098565b60a052506200048d915050565b60007f8b73c3c69bb8fe3d512ecc4cf759cc79239f7b179b0ffacaa9a75d522b39400f620000c562000146565b805160209182012060408051808201825260018152603160f81b90840152805192830193909352918101919091527fc89efdaa54c0f20c7adf612882df0950f5a951637e0307cdcb4c672f298b8bc66060820152608081018390523060a082015260c001604051602081830303815290604052805190602001209050919050565b606060038054620001579062000332565b80601f0160208091040260200160405190810160405280929190818152602001828054620001859062000332565b8015620001d65780601f10620001aa57610100808354040283529160200191620001d6565b820191906000526020600020905b815481529060010190602001808311620001b857829003601f168201915b5050505050905090565b634e487b7160e01b600052604160045260246000fd5b600082601f8301126200020857600080fd5b81516001600160401b0380821115620002255762000225620001e0565b604051601f8301601f19908116603f01168101908282118183101715620002505762000250620001e0565b816040528381526020925086838588010111156200026d57600080fd5b600091505b8382101562000291578582018301518183018401529082019062000272565b83821115620002a35760008385830101525b9695505050505050565b600080600060608486031215620002c357600080fd5b83516001600160401b0380821115620002db57600080fd5b620002e987838801620001f6565b945060208601519150808211156200030057600080fd5b506200030f86828701620001f6565b925050604084015160ff811681146200032757600080fd5b809150509250925092565b600181811c908216806200034757607f821691505b6020821081036200036857634e487b7160e01b600052602260045260246000fd5b50919050565b601f821115620003bc57600081815260208120601f850160051c81016020861015620003975750805b601f850160051c820191505b81811015620003b857828155600101620003a3565b5050505b505050565b81516001600160401b03811115620003dd57620003dd620001e0565b620003f581620003ee845462000332565b846200036e565b602080601f8311600181146200042d5760008415620004145750858301515b600019600386901b1c1916600185901b178555620003b8565b600085815260208120601f198616915b828110156200045e578886015182559484019460019091019084016200043d565b50858210156200047d5787850151600019600388901b60f8161c191681555b5050505050600190811b01905550565b60805160a05161150d620004ba600039600061053001526000818161036f01526104fa015261150d6000f3fe608060405234801561001057600080fd5b50600436106101775760003560e01c806370a08231116100d8578063a457c2d71161008c578063d505accf11610066578063d505accf14610391578063dd62ed3e146103a6578063ffa1ad74146103ec57600080fd5b8063a457c2d714610344578063a9059cbb14610357578063cd0d00961461036a57600080fd5b806395d89b41116100bd57806395d89b41146102e45780639dc29fac146102ec578063a3c573eb146102ff57600080fd5b806370a082311461028e5780637ecebe00146102c457600080fd5b806330adf81f1161012f5780633644e515116101145780633644e51514610260578063395093511461026857806340c10f191461027b57600080fd5b806330adf81f14610209578063313ce5671461023057600080fd5b806318160ddd1161016057806318160ddd146101bd57806320606b70146101cf57806323b872dd146101f657600080fd5b806306fdde031461017c578063095ea7b31461019a575b600080fd5b610184610428565b604051610191919061123b565b60405180910390f35b6101ad6101a83660046112d7565b6104ba565b6040519015158152602001610191565b6002545b604051908152602001610191565b6101c17f8b73c3c69bb8fe3d512ecc4cf759cc79239f7b179b0ffacaa9a75d522b39400f81565b6101ad610204366004611301565b6104d2565b6101c17f6e71edae12b1b97f4d1f60370fef10105fa2faae0126114a169c64845d6126c981565b60055474010000000000000000000000000000000000000000900460ff1660405160ff9091168152602001610191565b6101c16104f6565b6101ad6102763660046112d7565b610552565b6101ad6102893660046112d7565b61059e565b6101c161029c36600461133d565b73ffffffffffffffffffffffffffffffffffffffff1660009081526020819052604090205490565b6101c16102d236600461133d565b60066020526000908152604090205481565b610184610645565b6101ad6102fa3660046112d7565b610654565b60055461031f9073ffffffffffffffffffffffffffffffffffffffff1681565b60405173ffffffffffffffffffffffffffffffffffffffff9091168152602001610191565b6101ad6103523660046112d7565b6106ed565b6101ad6103653660046112d7565b6107a4565b6101c17f000000000000000000000000000000000000000000000000000000000000000081565b6103a461039f36600461135f565b6107b2565b005b6101c16103b43660046113d2565b73ffffffffffffffffffffffffffffffffffffffff918216600090815260016020908152604080832093909416825291909152205490565b6101846040518060400160405280600181526020017f310000000000000000000000000000000000000000000000000000000000000081525081565b60606003805461043790611405565b80601f016020809104026020016040519081016040528092919081815260200182805461046390611405565b80156104b05780601f10610485576101008083540402835291602001916104b0565b820191906000526020600020905b81548152906001019060200180831161049357829003601f168201915b5050505050905090565b6000336104c8818585610ab4565b5060019392505050565b6000336104e0858285610c34565b6104eb858585610cf1565b506001949350505050565b60007f0000000000000000000000000000000000000000000000000000000000000000461461052d5761052846610f12565b905090565b507f000000000000000000000000000000000000000000000000000000000000000090565b33600081815260016020908152604080832073ffffffffffffffffffffffffffffffffffffffff871684529091528120549091906104c89082908690610599908790611487565b610ab4565b60055460009073ffffffffffffffffffffffffffffffffffffffff1633146106325760405162461bcd60e51b8152602060048201526024808201527f546f6b656e577261707065643a3a6f6e6c794272696467653a204e4f545f425260448201527f494447450000000000000000000000000000000000000000000000000000000060648201526084015b60405180910390fd5b61063c8383610fda565b50600192915050565b60606004805461043790611405565b60055460009073ffffffffffffffffffffffffffffffffffffffff1633146106e35760405162461bcd60e51b8152602060048201526024808201527f546f6b656e577261707065643a3a6f6e6c794272696467653a204e4f545f425260448201527f49444745000000000000000000000000000000000000000000000000000000006064820152608401610629565b61063c83836110b3565b33600081815260016020908152604080832073ffffffffffffffffffffffffffffffffffffffff87168452909152812054909190838110156107975760405162461bcd60e51b815260206004820152602560248201527f45524332303a2064656372656173656420616c6c6f77616e63652062656c6f7760448201527f207a65726f0000000000000000000000000000000000000000000000000000006064820152608401610629565b6104eb8286868403610ab4565b6000336104c8818585610cf1565b834211156108275760405162461bcd60e51b8152602060048201526024808201527f546f6b656e577261707065643a3a7065726d69743a204578706972656420706560448201527f726d6974000000000000000000000000000000000000000000000000000000006064820152608401610629565b73ffffffffffffffffffffffffffffffffffffffff8716600090815260066020526040812080547f6e71edae12b1b97f4d1f60370fef10105fa2faae0126114a169c64845d6126c9918a918a918a9190866108818361149f565b9091555060408051602081019690965273ffffffffffffffffffffffffffffffffffffffff94851690860152929091166060840152608083015260a082015260c0810186905260e00160405160208183030381529060405280519060200120905060006108ec6104f6565b6040517f19010000000000000000000000000000000000000000000000000000000000006020820152602281019190915260428101839052606201604080517fffffffffffffffffffffffffffffffffffffffffffffffffffffffffffffffe08184030181528282528051602091820120600080855291840180845281905260ff89169284019290925260608301879052608083018690529092509060019060a0016020604051602081039080840390855afa1580156109b0573d6000803e3d6000fd5b50506040517fffffffffffffffffffffffffffffffffffffffffffffffffffffffffffffffe0015191505073ffffffffffffffffffffffffffffffffffffffff811615801590610a2b57508973ffffffffffffffffffffffffffffffffffffffff168173ffffffffffffffffffffffffffffffffffffffff16145b610a9d5760405162461bcd60e51b815260206004820152602760248201527f546f6b656e577261707065643a3a7065726d69743a20496e76616c696420736960448201527f676e6174757265000000000000000000000000000000000000000000000000006064820152608401610629565b610aa88a8a8a610ab4565b50505050505050505050565b73ffffffffffffffffffffffffffffffffffffffff8316610b3c5760405162461bcd60e51b8152602060048201526024808201527f45524332303a20617070726f76652066726f6d20746865207a65726f2061646460448201527f72657373000000000000000000000000000000000000000000000000000000006064820152608401610629565b73ffffffffffffffffffffffffffffffffffffffff8216610bc55760405162461bcd60e51b815260206004820152602260248201527f45524332303a20617070726f766520746f20746865207a65726f20616464726560448201527f73730000000000000000000000000000000000000000000000000000000000006064820152608401610629565b73ffffffffffffffffffffffffffffffffffffffff83811660008181526001602090815260408083209487168084529482529182902085905590518481527f8c5be1e5ebec7d5bd14f71427d1e84f3dd0314c0f7b2291e5b200ac8c7c3b92591015b60405180910390a3505050565b73ffffffffffffffffffffffffffffffffffffffff8381166000908152600160209081526040808320938616835292905220547fffffffffffffffffffffffffffffffffffffffffffffffffffffffffffffffff8114610ceb5781811015610cde5760405162461bcd60e51b815260206004820152601d60248201527f45524332303a20696e73756666696369656e7420616c6c6f77616e63650000006044820152606401610629565b610ceb8484848403610ab4565b50505050565b73ffffffffffffffffffffffffffffffffffffffff8316610d7a5760405162461bcd60e51b815260206004820152602560248201527f45524332303a207472616e736665722066726f6d20746865207a65726f20616460448201527f64726573730000000000000000000000000000000000000000000000000000006064820152608401610629565b73ffffffffffffffffffffffffffffffffffffffff8216610e035760405162461bcd60e51b815260206004820152602360248201527f45524332303a207472616e7366657220746f20746865207a65726f206164647260448201527f65737300000000000000000000000000000000000000000000000000000000006064820152608401610629565b73ffffffffffffffffffffffffffffffffffffffff831660009081526020819052604090205481811015610e9f5760405162461bcd60e51b815260206004820152602660248201527f45524332303a207472616e7366657220616d6f756e742065786365656473206260448201527f616c616e636500000000000000000000000000000000000000000000000000006064820152608401610629565b73ffffffffffffffffffffffffffffffffffffffff848116600081815260208181526040808320878703905593871680835291849020805487019055925185815290927fddf252ad1be2c89b69c2b068fc378daa952ba7f163c4a11628f55a4df523b3ef910160405180910390a3610ceb565b60007f8b73c3c69bb8fe3d512ecc4cf759cc79239f7b179b0ffacaa9a75d522b39400f610f3d610428565b8051602091820120604080518082018252600181527f310000000000000000000000000000000000000000000000000000000000000090840152805192830193909352918101919091527fc89efdaa54c0f20c7adf612882df0950f5a951637e0307cdcb4c672f298b8bc66060820152608081018390523060a082015260c001604051602081830303815290604052805190602001209050919050565b73ffffffffffffffffffffffffffffffffffffffff821661103d5760405162461bcd60e51b815260206004820152601f60248201527f45524332303a206d696e7420746f20746865207a65726f2061646472657373006044820152606401610629565b806002600082825461104f9190611487565b909155505073ffffffffffffffffffffffffffffffffffffffff8216600081815260208181526040808320805486019055518481527fddf252ad1be2c89b69c2b068fc378daa952ba7f163c4a11628f55a4df523b3ef910160405180910390a35050565b73ffffffffffffffffffffffffffffffffffffffff821661113c5760405162461bcd60e51b815260206004820152602160248201527f45524332303a206275726e2066726f6d20746865207a65726f2061646472657360448201527f73000000000000000000000000000000000000000000000000000000000000006064820152608401610629565b73ffffffffffffffffffffffffffffffffffffffff8216600090815260208190526040902054818110156111d85760405162461bcd60e51b815260206004820152602260248201527f45524332303a206275726e20616d6f756e7420657863656564732062616c616e60448201527f63650000000000000000000000000000000000000000000000000000000000006064820152608401610629565b73ffffffffffffffffffffffffffffffffffffffff83166000818152602081815260408083208686039055600280548790039055518581529192917fddf252ad1be2c89b69c2b068fc378daa952ba7f163c4a11628f55a4df523b3ef9101610c27565b600060208083528351808285015260005b818110156112685785810183015185820160400152820161124c565b8181111561127a576000604083870101525b50601f017fffffffffffffffffffffffffffffffffffffffffffffffffffffffffffffffe016929092016040019392505050565b803573ffffffffffffffffffffffffffffffffffffffff811681146112d257600080fd5b919050565b600080604083850312156112ea57600080fd5b6112f3836112ae565b946020939093013593505050565b60008060006060848603121561131657600080fd5b61131f846112ae565b925061132d602085016112ae565b9150604084013590509250925092565b60006020828403121561134f57600080fd5b611358826112ae565b9392505050565b600080600080600080600060e0888a03121561137a57600080fd5b611383886112ae565b9650611391602089016112ae565b95506040880135945060608801359350608088013560ff811681146113b557600080fd5b9699959850939692959460a0840135945060c09093013592915050565b600080604083850312156113e557600080fd5b6113ee836112ae565b91506113fc602084016112ae565b90509250929050565b600181811c9082168061141957607f821691505b602082108103611452577f4e487b7100000000000000000000000000000000000000000000000000000000600052602260045260246000fd5b50919050565b7f4e487b7100000000000000000000000000000000000000000000000000000000600052601160045260246000fd5b6000821982111561149a5761149a611458565b500190565b60007fffffffffffffffffffffffffffffffffffffffffffffffffffffffffffffffff82036114d0576114d0611458565b506001019056fea264697066735822122094134962e5fa2f6357086a2590b7f3a754d340b16e5312664d82a308bc23a0df64736f6c634300080f0033a264697066735822122079c63cbf9a7348de0a708229458c1d28fe1dfbf574549e2bbff8327bcfb9ed4d64736f6c634300080f0033",
  "linkReferences": {},
  "deployedLinkReferences": {}
}