{
  "_format": "hh-sol-artifact-1",
  "contractName": "Bridge",
  "sourceName": "contracts/Bridge.sol",
  "abi": [
    {
      "anonymous": false,
      "inputs": [
        {
          "indexed": false,
          "internalType": "uint8",
          "name": "leafType",
          "type": "uint8"
        },
        {
          "indexed": false,
          "internalType": "uint32",
          "name": "originNetwork",
          "type": "uint32"
        },
        {
          "indexed": false,
          "internalType": "address",
          "name": "originAddress",
          "type": "address"
        },
        {
          "indexed": false,
          "internalType": "uint32",
          "name": "destinationNetwork",
          "type": "uint32"
        },
        {
          "indexed": false,
          "internalType": "address",
          "name": "destinationAddress",
          "type": "address"
        },
        {
          "indexed": false,
          "internalType": "uint256",
          "name": "amount",
          "type": "uint256"
        },
        {
          "indexed": false,
          "internalType": "bytes",
          "name": "metadata",
          "type": "bytes"
        },
        {
          "indexed": false,
          "internalType": "uint32",
          "name": "depositCount",
          "type": "uint32"
        }
      ],
      "name": "BridgeEvent",
      "type": "event"
    },
    {
      "anonymous": false,
      "inputs": [
        {
          "indexed": false,
          "internalType": "uint32",
          "name": "index",
          "type": "uint32"
        },
        {
          "indexed": false,
          "internalType": "uint32",
          "name": "originNetwork",
          "type": "uint32"
        },
        {
          "indexed": false,
          "internalType": "address",
          "name": "originAddress",
          "type": "address"
        },
        {
          "indexed": false,
          "internalType": "address",
          "name": "destinationAddress",
          "type": "address"
        },
        {
          "indexed": false,
          "internalType": "uint256",
          "name": "amount",
          "type": "uint256"
        }
      ],
      "name": "ClaimEvent",
      "type": "event"
    },
    {
      "anonymous": false,
      "inputs": [],
      "name": "EmergencyStateActivated",
      "type": "event"
    },
    {
      "anonymous": false,
      "inputs": [],
      "name": "EmergencyStateDeactivated",
      "type": "event"
    },
    {
      "anonymous": false,
      "inputs": [
        {
          "indexed": false,
          "internalType": "uint8",
          "name": "version",
          "type": "uint8"
        }
      ],
      "name": "Initialized",
      "type": "event"
    },
    {
      "anonymous": false,
      "inputs": [
        {
          "indexed": false,
          "internalType": "uint32",
          "name": "originNetwork",
          "type": "uint32"
        },
        {
          "indexed": false,
          "internalType": "address",
          "name": "originTokenAddress",
          "type": "address"
        },
        {
          "indexed": false,
          "internalType": "address",
          "name": "wrappedTokenAddress",
          "type": "address"
        }
      ],
      "name": "NewWrappedToken",
      "type": "event"
    },
    {
      "anonymous": false,
      "inputs": [
        {
          "indexed": true,
          "internalType": "address",
          "name": "previousOwner",
          "type": "address"
        },
        {
          "indexed": true,
          "internalType": "address",
          "name": "newOwner",
          "type": "address"
        }
      ],
      "name": "OwnershipTransferred",
      "type": "event"
    },
    {
      "inputs": [],
      "name": "LEAF_TYPE_ASSET",
      "outputs": [
        {
          "internalType": "uint8",
          "name": "",
          "type": "uint8"
        }
      ],
      "stateMutability": "view",
      "type": "function"
    },
    {
      "inputs": [],
      "name": "LEAF_TYPE_MESSAGE",
      "outputs": [
        {
          "internalType": "uint8",
          "name": "",
          "type": "uint8"
        }
      ],
      "stateMutability": "view",
      "type": "function"
    },
    {
      "inputs": [],
      "name": "MAINNET_NETWORK_ID",
      "outputs": [
        {
          "internalType": "uint32",
          "name": "",
          "type": "uint32"
        }
      ],
      "stateMutability": "view",
      "type": "function"
    },
    {
      "inputs": [],
      "name": "activateEmergencyState",
      "outputs": [],
      "stateMutability": "nonpayable",
      "type": "function"
    },
    {
      "inputs": [
        {
          "internalType": "address",
          "name": "token",
          "type": "address"
        },
        {
          "internalType": "uint32",
          "name": "destinationNetwork",
          "type": "uint32"
        },
        {
          "internalType": "address",
          "name": "destinationAddress",
          "type": "address"
        },
        {
          "internalType": "uint256",
          "name": "amount",
          "type": "uint256"
        },
        {
          "internalType": "bytes",
          "name": "permitData",
          "type": "bytes"
        }
      ],
      "name": "bridgeAsset",
      "outputs": [],
      "stateMutability": "payable",
      "type": "function"
    },
    {
      "inputs": [
        {
          "internalType": "uint32",
          "name": "destinationNetwork",
          "type": "uint32"
        },
        {
          "internalType": "address",
          "name": "destinationAddress",
          "type": "address"
        },
        {
          "internalType": "bytes",
          "name": "metadata",
          "type": "bytes"
        }
      ],
      "name": "bridgeMessage",
      "outputs": [],
      "stateMutability": "payable",
      "type": "function"
    },
    {
      "inputs": [
        {
          "internalType": "bytes32[]",
          "name": "smtProof",
          "type": "bytes32[]"
        },
        {
          "internalType": "uint32",
          "name": "index",
          "type": "uint32"
        },
        {
          "internalType": "bytes32",
          "name": "mainnetExitRoot",
          "type": "bytes32"
        },
        {
          "internalType": "bytes32",
          "name": "rollupExitRoot",
          "type": "bytes32"
        },
        {
          "internalType": "uint32",
          "name": "originNetwork",
          "type": "uint32"
        },
        {
          "internalType": "address",
          "name": "originTokenAddress",
          "type": "address"
        },
        {
          "internalType": "uint32",
          "name": "destinationNetwork",
          "type": "uint32"
        },
        {
          "internalType": "address",
          "name": "destinationAddress",
          "type": "address"
        },
        {
          "internalType": "uint256",
          "name": "amount",
          "type": "uint256"
        },
        {
          "internalType": "bytes",
          "name": "metadata",
          "type": "bytes"
        }
      ],
      "name": "claimAsset",
      "outputs": [],
      "stateMutability": "nonpayable",
      "type": "function"
    },
    {
      "inputs": [
        {
          "internalType": "bytes32[]",
          "name": "smtProof",
          "type": "bytes32[]"
        },
        {
          "internalType": "uint32",
          "name": "index",
          "type": "uint32"
        },
        {
          "internalType": "bytes32",
          "name": "mainnetExitRoot",
          "type": "bytes32"
        },
        {
          "internalType": "bytes32",
          "name": "rollupExitRoot",
          "type": "bytes32"
        },
        {
          "internalType": "uint32",
          "name": "originNetwork",
          "type": "uint32"
        },
        {
          "internalType": "address",
          "name": "originAddress",
          "type": "address"
        },
        {
          "internalType": "uint32",
          "name": "destinationNetwork",
          "type": "uint32"
        },
        {
          "internalType": "address",
          "name": "destinationAddress",
          "type": "address"
        },
        {
          "internalType": "uint256",
          "name": "amount",
          "type": "uint256"
        },
        {
          "internalType": "bytes",
          "name": "metadata",
          "type": "bytes"
        }
      ],
      "name": "claimMessage",
      "outputs": [],
      "stateMutability": "nonpayable",
      "type": "function"
    },
    {
      "inputs": [
        {
          "internalType": "uint256",
          "name": "",
          "type": "uint256"
        }
      ],
      "name": "claimedBitMap",
      "outputs": [
        {
          "internalType": "uint256",
          "name": "",
          "type": "uint256"
        }
      ],
      "stateMutability": "view",
      "type": "function"
    },
    {
      "inputs": [],
      "name": "deactivateEmergencyState",
      "outputs": [],
      "stateMutability": "nonpayable",
      "type": "function"
    },
    {
      "inputs": [],
      "name": "depositCount",
      "outputs": [
        {
          "internalType": "uint256",
          "name": "",
          "type": "uint256"
        }
      ],
      "stateMutability": "view",
      "type": "function"
    },
    {
      "inputs": [],
      "name": "getDepositRoot",
      "outputs": [
        {
          "internalType": "bytes32",
          "name": "",
          "type": "bytes32"
        }
      ],
      "stateMutability": "view",
      "type": "function"
    },
    {
      "inputs": [
        {
          "internalType": "uint8",
          "name": "leafType",
          "type": "uint8"
        },
        {
          "internalType": "uint32",
          "name": "originNetwork",
          "type": "uint32"
        },
        {
          "internalType": "address",
          "name": "originAddress",
          "type": "address"
        },
        {
          "internalType": "uint32",
          "name": "destinationNetwork",
          "type": "uint32"
        },
        {
          "internalType": "address",
          "name": "destinationAddress",
          "type": "address"
        },
        {
          "internalType": "uint256",
          "name": "amount",
          "type": "uint256"
        },
        {
          "internalType": "bytes32",
          "name": "metadataHash",
          "type": "bytes32"
        }
      ],
      "name": "getLeafValue",
      "outputs": [
        {
          "internalType": "bytes32",
          "name": "",
          "type": "bytes32"
        }
      ],
      "stateMutability": "pure",
      "type": "function"
    },
    {
      "inputs": [
        {
          "internalType": "uint32",
          "name": "originNetwork",
          "type": "uint32"
        },
        {
          "internalType": "address",
          "name": "originTokenAddress",
          "type": "address"
        }
      ],
      "name": "getTokenWrappedAddress",
      "outputs": [
        {
          "internalType": "address",
          "name": "",
          "type": "address"
        }
      ],
      "stateMutability": "view",
      "type": "function"
    },
    {
      "inputs": [],
      "name": "globalExitRootManager",
      "outputs": [
        {
          "internalType": "contract IGlobalExitRootManager",
          "name": "",
          "type": "address"
        }
      ],
      "stateMutability": "view",
      "type": "function"
    },
    {
      "inputs": [
        {
          "internalType": "uint32",
          "name": "_networkID",
          "type": "uint32"
        },
        {
          "internalType": "contract IGlobalExitRootManager",
          "name": "_globalExitRootManager",
          "type": "address"
        },
        {
          "internalType": "address",
          "name": "_poeAddress",
          "type": "address"
        }
      ],
      "name": "initialize",
      "outputs": [],
      "stateMutability": "nonpayable",
      "type": "function"
    },
    {
      "inputs": [
        {
          "internalType": "uint256",
          "name": "index",
          "type": "uint256"
        }
      ],
      "name": "isClaimed",
      "outputs": [
        {
          "internalType": "bool",
          "name": "",
          "type": "bool"
        }
      ],
      "stateMutability": "view",
      "type": "function"
    },
    {
      "inputs": [],
      "name": "isEmergencyState",
      "outputs": [
        {
          "internalType": "bool",
          "name": "",
          "type": "bool"
        }
      ],
      "stateMutability": "view",
      "type": "function"
    },
    {
      "inputs": [],
      "name": "networkID",
      "outputs": [
        {
          "internalType": "uint32",
          "name": "",
          "type": "uint32"
        }
      ],
      "stateMutability": "view",
      "type": "function"
    },
    {
      "inputs": [],
      "name": "owner",
      "outputs": [
        {
          "internalType": "address",
          "name": "",
          "type": "address"
        }
      ],
      "stateMutability": "view",
      "type": "function"
    },
    {
      "inputs": [],
      "name": "poeAddress",
      "outputs": [
        {
          "internalType": "address",
          "name": "",
          "type": "address"
        }
      ],
      "stateMutability": "view",
      "type": "function"
    },
    {
      "inputs": [
        {
          "internalType": "uint32",
          "name": "originNetwork",
          "type": "uint32"
        },
        {
          "internalType": "address",
          "name": "originTokenAddress",
          "type": "address"
        },
        {
          "internalType": "string",
          "name": "name",
          "type": "string"
        },
        {
          "internalType": "string",
          "name": "symbol",
          "type": "string"
        },
        {
          "internalType": "uint8",
          "name": "decimals",
          "type": "uint8"
        }
      ],
      "name": "precalculatedWrapperAddress",
      "outputs": [
        {
          "internalType": "address",
          "name": "",
          "type": "address"
        }
      ],
      "stateMutability": "view",
      "type": "function"
    },
    {
      "inputs": [],
      "name": "renounceOwnership",
      "outputs": [],
      "stateMutability": "nonpayable",
      "type": "function"
    },
    {
      "inputs": [
        {
          "internalType": "bytes32",
          "name": "",
          "type": "bytes32"
        }
      ],
      "name": "tokenInfoToWrappedToken",
      "outputs": [
        {
          "internalType": "address",
          "name": "",
          "type": "address"
        }
      ],
      "stateMutability": "view",
      "type": "function"
    },
    {
      "inputs": [
        {
          "internalType": "address",
          "name": "newOwner",
          "type": "address"
        }
      ],
      "name": "transferOwnership",
      "outputs": [],
      "stateMutability": "nonpayable",
      "type": "function"
    },
    {
      "inputs": [
        {
          "internalType": "bytes32",
          "name": "leafHash",
          "type": "bytes32"
        },
        {
          "internalType": "bytes32[]",
          "name": "smtProof",
          "type": "bytes32[]"
        },
        {
          "internalType": "uint64",
          "name": "index",
          "type": "uint64"
        },
        {
          "internalType": "bytes32",
          "name": "root",
          "type": "bytes32"
        }
      ],
      "name": "verifyMerkleProof",
      "outputs": [
        {
          "internalType": "bool",
          "name": "",
          "type": "bool"
        }
      ],
      "stateMutability": "pure",
      "type": "function"
    },
    {
      "inputs": [
        {
          "internalType": "address",
          "name": "",
          "type": "address"
        }
      ],
      "name": "wrappedTokenToTokenInfo",
      "outputs": [
        {
          "internalType": "uint32",
          "name": "originNetwork",
          "type": "uint32"
        },
        {
          "internalType": "address",
          "name": "originTokenAddress",
          "type": "address"
        }
      ],
      "stateMutability": "view",
      "type": "function"
    }
  ],
  "bytecode": "0x608060405234801561001057600080fd5b50615020806100206000396000f3fe608060405260043610620001cf5760003560e01c806381b1c17411620000ff578063d02103ca1162000095578063ed6be5c9116200006c578063ed6be5c91462000569578063ee25560b1462000580578063f2fde38b14620005b1578063ff634ed714620005d657600080fd5b8063d02103ca1462000518578063d96a15f7146200053a578063dbc16976146200055157600080fd5b80639e34070f11620000d65780639e34070f146200046f578063a08e8a081462000494578063aaa13cc214620004be578063bab161bf14620004e357600080fd5b806381b1c17414620003f35780638da5cb5b146200042d5780638f611519146200044d57600080fd5b80633ae05047116200017557806346385549116200014c57806346385549146200036c578063647c576c1462000391578063715018a614620003b65780637b6323c114620003ce57600080fd5b80633ae05047146200030a5780633da8168214620003225780633e197043146200034757600080fd5b806322e95f2c11620001aa57806322e95f2c14620002365780632dfdf0b51462000274578063318aee3d146200029b57600080fd5b80630871e97114620001d457806315064c9614620001ed5780632072f6c5146200021e575b600080fd5b620001eb620001e536600462002c99565b620005ed565b005b348015620001fa57600080fd5b50602254620002099060ff1681565b60405190151581526020015b60405180910390f35b3480156200022b57600080fd5b50620001eb62000aec565b3480156200024357600080fd5b506200025b6200025536600462002d26565b62000b8e565b6040516001600160a01b03909116815260200162000215565b3480156200028157600080fd5b506200028c60215481565b60405190815260200162000215565b348015620002a857600080fd5b50620002e5620002ba36600462002d62565b608a6020526000908152604090205463ffffffff81169064010000000090046001600160a01b031682565b6040805163ffffffff90931683526001600160a01b0390911660208301520162000215565b3480156200031757600080fd5b506200028c62000bf9565b3480156200032f57600080fd5b50620002096200034136600462002e51565b62000cec565b3480156200035457600080fd5b506200028c6200036636600462002ecf565b62000dee565b3480156200037957600080fd5b50620001eb6200038b36600462002fe0565b62000e98565b3480156200039e57600080fd5b50620001eb620003b0366004620030c7565b620010e0565b348015620003c357600080fd5b50620001eb62001260565b348015620003db57600080fd5b50620001eb620003ed36600462002fe0565b62001276565b3480156200040057600080fd5b506200025b6200041236600462003117565b6089602052600090815260409020546001600160a01b031681565b3480156200043a57600080fd5b506055546001600160a01b03166200025b565b3480156200045a57600080fd5b50608c546200025b906001600160a01b031681565b3480156200047c57600080fd5b50620002096200048e36600462003117565b620017c4565b348015620004a157600080fd5b50620004ab600081565b60405160ff909116815260200162000215565b348015620004cb57600080fd5b506200025b620004dd36600462003131565b62001809565b348015620004f057600080fd5b50608754620005029063ffffffff1681565b60405163ffffffff909116815260200162000215565b3480156200052557600080fd5b50608b546200025b906001600160a01b031681565b620001eb6200054b366004620031e5565b6200195d565b3480156200055e57600080fd5b50620001eb62001b4a565b3480156200057657600080fd5b5062000502600081565b3480156200058d57600080fd5b506200028c6200059f36600462003117565b60886020526000908152604090205481565b348015620005be57600080fd5b50620001eb620005d036600462002d62565b62001bea565b348015620005e357600080fd5b50620004ab600181565b60225460ff1615620006775760405162461bcd60e51b815260206004820152604260248201527f456d657267656e63794d616e616765723a3a69664e6f74456d657267656e637960448201527f53746174653a206f6e6c79206966206e6f7420656d657267656e637920737461606482015261746560f01b608482015260a4015b60405180910390fd5b60875463ffffffff90811690861603620006e75760405162461bcd60e51b815260206004820152602a60248201527f4272696467653a3a6272696467653a2044455354494e4154494f4e5f43414e546044820152692fa122afa4aa29a2a62360b11b60648201526084016200066e565b60008060606001600160a01b0389166200077c57853414620007725760405162461bcd60e51b815260206004820152602f60248201527f4272696467653a3a6272696467653a20414d4f554e545f444f45535f4e4f545f60448201527f4d415443485f4d53475f56414c5545000000000000000000000000000000000060648201526084016200066e565b6000915062000a06565b6001600160a01b03808a166000908152608a602090815260409182902082518084019093525463ffffffff811683526401000000009004909216918101829052901562000863576040517f9dc29fac000000000000000000000000000000000000000000000000000000008152336004820152602481018890526001600160a01b038b1690639dc29fac906044016020604051808303816000875af11580156200082a573d6000803e3d6000fd5b505050506040513d601f19601f820116820180604052508101906200085091906200325c565b5060208101518151909450925062000a04565b84156200087857620008788a88888862001c80565b6200088f6001600160a01b038b1633308a620021ea565b899350608760009054906101000a900463ffffffff169250896001600160a01b03166306fdde036040518163ffffffff1660e01b8152600401600060405180830381865afa158015620008e6573d6000803e3d6000fd5b505050506040513d6000823e601f3d908101601f19168201604052620009109190810190620032f7565b8a6001600160a01b03166395d89b416040518163ffffffff1660e01b8152600401600060405180830381865afa1580156200094f573d6000803e3d6000fd5b505050506040513d6000823e601f3d908101601f19168201604052620009799190810190620032f7565b8b6001600160a01b031663313ce5676040518163ffffffff1660e01b8152600401602060405180830381865afa158015620009b8573d6000803e3d6000fd5b505050506040513d601f19601f82011682018060405250810190620009de919062003330565b604051602001620009f2939291906200337e565b60405160208183030381529060405291505b505b7f501781209a1f8899323b96b4ef08b168df93e0a90c673d1e4cce39366cb62f9b600083858b8b8b8760215460405162000a48989796959493929190620033bb565b60405180910390a162000a7362000a6d600084868c8c8c888051906020012062000dee565b62002270565b608b546001600160a01b03166333d6247d62000a8e62000bf9565b6040518263ffffffff1660e01b815260040162000aad91815260200190565b600060405180830381600087803b15801562000ac857600080fd5b505af115801562000add573d6000803e3d6000fd5b50505050505050505050505050565b608c546001600160a01b0316331462000b825760405162461bcd60e51b815260206004820152604b60248201527f50726f6f664f66456666696369656e63793a3a6f6e6c7950726f6f664f66456660448201527f66696369656e63793a206f6e6c792050726f6f66206f6620456666696369656e60648201526a18de4818dbdb9d1c9858dd60aa1b608482015260a4016200066e565b62000b8c620023d4565b565b6040805160e084901b6001600160e01b031916602080830191909152606084901b6bffffffffffffffffffffffff1916602483015282516018818403018152603890920183528151918101919091206000908152608990915220546001600160a01b03165b92915050565b602154600090819081805b602081101562000ce3578260011660010362000c64576001816020811062000c305762000c3062003427565b0154604080516020810192909252810185905260600160405160208183030381529060405280519060200120935062000c91565b60408051602081018690529081018390526060016040516020818303038152906040528051906020012093505b62000c9e60028462003469565b6040805160208101859052908101849052909350606001604051602081830303815290604052805190602001209150808062000cda9062003480565b91505062000c04565b50919392505050565b60008467ffffffffffffffff8416825b602081101562000ddf578160011660010362000d695786818151811062000d275762000d2762003427565b60200260200101518360405160200162000d4b929190918252602082015260400190565b60405160208183030381529060405280519060200120925062000dbb565b8287828151811062000d7f5762000d7f62003427565b602002602001015160405160200162000da2929190918252602082015260400190565b6040516020818303038152906040528051906020012092505b62000dc860028362003469565b91508062000dd68162003480565b91505062000cfc565b5050821490505b949350505050565b6040517fff0000000000000000000000000000000000000000000000000000000000000060f889901b1660208201526001600160e01b031960e088811b821660218401526bffffffffffffffffffffffff19606089811b821660258601529188901b909216603984015285901b16603d8201526051810183905260718101829052600090609101604051602081830303815290604052805190602001209050979650505050505050565b60225460ff161562000f1e5760405162461bcd60e51b815260206004820152604260248201527f456d657267656e63794d616e616765723a3a69664e6f74456d657267656e637960448201527f53746174653a206f6e6c79206966206e6f7420656d657267656e637920737461606482015261746560f01b608482015260a4016200066e565b62000f348a8a8a8a8a8a8a8a8a8a600162002492565b62000f458963ffffffff166200275b565b6000836001600160a01b03168387898560405160240162000f69939291906200349c565b60408051601f198184030181529181526020820180516001600160e01b03167f1806b5f2000000000000000000000000000000000000000000000000000000001790525162000fb99190620034d5565b60006040518083038185875af1925050503d806000811462000ff8576040519150601f19603f3d011682016040523d82523d6000602084013e62000ffd565b606091505b5050905080620010755760405162461bcd60e51b8152602060048201526024808201527f4272696467653a3a636c61696d4d6573736167653a204d4553534147455f464160448201527f494c45440000000000000000000000000000000000000000000000000000000060648201526084016200066e565b6040805163ffffffff8c81168252891660208201526001600160a01b0388811682840152861660608201526080810185905290517f25308c93ceeed162da955b3f7ce3e3f93606579e40fb92029faa9efe275459839181900360a00190a15050505050505050505050565b600054610100900460ff1615808015620011015750600054600160ff909116105b806200111d5750303b1580156200111d575060005460ff166001145b620011915760405162461bcd60e51b815260206004820152602e60248201527f496e697469616c697a61626c653a20636f6e747261637420697320616c72656160448201527f647920696e697469616c697a656400000000000000000000000000000000000060648201526084016200066e565b6000805460ff191660011790558015620011b5576000805461ff0019166101001790555b6087805463ffffffff861663ffffffff19909116179055608b80546001600160a01b0380861673ffffffffffffffffffffffffffffffffffffffff1992831617909255608c805492851692909116919091179055620012136200279d565b80156200125a576000805461ff0019169055604051600181527f7f26b83ff96e1f2b6a682f133852f6798a09c465da95921460cefb38474024989060200160405180910390a15b50505050565b6200126a62002827565b62000b8c600062002883565b60225460ff1615620012fc5760405162461bcd60e51b815260206004820152604260248201527f456d657267656e63794d616e616765723a3a69664e6f74456d657267656e637960448201527f53746174653a206f6e6c79206966206e6f7420656d657267656e637920737461606482015261746560f01b608482015260a4016200066e565b620013128a8a8a8a8a8a8a8a8a8a600062002492565b620013238963ffffffff166200275b565b6001600160a01b0385166200142257604080516000808252602082019092526001600160a01b0385169084906040516200135e9190620034d5565b60006040518083038185875af1925050503d80600081146200139d576040519150601f19603f3d011682016040523d82523d6000602084013e620013a2565b606091505b50509050806200141b5760405162461bcd60e51b815260206004820152602760248201527f4272696467653a3a636c61696d41737365743a204554485f5452414e5346455260448201527f5f4641494c45440000000000000000000000000000000000000000000000000060648201526084016200066e565b506200175a565b60875463ffffffff9081169087160362001452576200144c6001600160a01b0386168484620028e2565b6200175a565b6040516001600160e01b031960e088901b1660208201526bffffffffffffffffffffffff19606087901b16602482015260009060380160408051601f198184030181529181528151602092830120600081815260899093529120549091506001600160a01b031680620016df57600080600085806020019051810190620014da9190620034f3565b925092509250600085848484604051620014f49062002c02565b62001502939291906200337e565b8190604051809103906000f590508015801562001523573d6000803e3d6000fd5b506040516340c10f1960e01b81526001600160a01b038b81166004830152602482018b9052919250908216906340c10f19906044016020604051808303816000875af115801562001578573d6000803e3d6000fd5b505050506040513d601f19601f820116820180604052508101906200159e91906200325c565b50806089600088815260200190815260200160002060006101000a8154816001600160a01b0302191690836001600160a01b0316021790555060405180604001604052808d63ffffffff1681526020018c6001600160a01b0316815250608a6000836001600160a01b03166001600160a01b0316815260200190815260200160002060008201518160000160006101000a81548163ffffffff021916908363ffffffff16021790555060208201518160000160046101000a8154816001600160a01b0302191690836001600160a01b031602179055509050507fccd7715648d1f2bb13e158f96b5b6c3aeda555d4cb87112e274a6f28bc571d598c8c83604051620016cd9392919063ffffffff9390931683526001600160a01b03918216602084015216604082015260600190565b60405180910390a15050505062001757565b6040516340c10f1960e01b81526001600160a01b038681166004830152602482018690528216906340c10f19906044016020604051808303816000875af11580156200172f573d6000803e3d6000fd5b505050506040513d601f19601f820116820180604052508101906200175591906200325c565b505b50505b6040805163ffffffff8b81168252881660208201526001600160a01b0387811682840152851660608201526080810184905290517f25308c93ceeed162da955b3f7ce3e3f93606579e40fb92029faa9efe275459839181900360a00190a150505050505050505050565b600080620017d56101008462003469565b90506000620017e76101008562003569565b60009283526088602052604090922054600190921b9182169091149392505050565b6040516001600160e01b031960e089901b1660208201526bffffffffffffffffffffffff19606088901b1660248201526000908190603801604051602081830303815290604052805190602001209050600060ff60f81b308360405180602001620018749062002c02565b601f1982820381018352601f909101166040819052620018a1908d908d908d908d908d90602001620035a9565b60408051601f1981840301815290829052620018c19291602001620035ea565b604051602081830303815290604052805190602001206040516020016200193794939291907fff0000000000000000000000000000000000000000000000000000000000000094909416845260609290921b6bffffffffffffffffffffffff191660018401526015830152603582015260550190565b60408051808303601f1901815291905280516020909101209a9950505050505050505050565b60225460ff1615620019e35760405162461bcd60e51b815260206004820152604260248201527f456d657267656e63794d616e616765723a3a69664e6f74456d657267656e637960448201527f53746174653a206f6e6c79206966206e6f7420656d657267656e637920737461606482015261746560f01b608482015260a4016200066e565b60875463ffffffff9081169084160362001a535760405162461bcd60e51b815260206004820152602a60248201527f4272696467653a3a6272696467653a2044455354494e4154494f4e5f43414e546044820152692fa122afa4aa29a2a62360b11b60648201526084016200066e565b6087546021546040517f501781209a1f8899323b96b4ef08b168df93e0a90c673d1e4cce39366cb62f9b9262001aa09260019263ffffffff9092169133918991899134918a9190620033bb565b60405180910390a162001ad762000a6d6001608760009054906101000a900463ffffffff1633878734888051906020012062000dee565b608b546001600160a01b03166333d6247d62001af262000bf9565b6040518263ffffffff1660e01b815260040162001b1191815260200190565b600060405180830381600087803b15801562001b2c57600080fd5b505af115801562001b41573d6000803e3d6000fd5b50505050505050565b608c546001600160a01b0316331462001be05760405162461bcd60e51b815260206004820152604b60248201527f50726f6f664f66456666696369656e63793a3a6f6e6c7950726f6f664f66456660448201527f66696369656e63793a206f6e6c792050726f6f66206f6620456666696369656e60648201526a18de4818dbdb9d1c9858dd60aa1b608482015260a4016200066e565b62000b8c6200292d565b62001bf462002827565b6001600160a01b03811662001c725760405162461bcd60e51b815260206004820152602660248201527f4f776e61626c653a206e6577206f776e657220697320746865207a65726f206160448201527f646472657373000000000000000000000000000000000000000000000000000060648201526084016200066e565b62001c7d8162002883565b50565b600062001cc383838080601f016020809104026020016040519081016040528093929190818152602001838380828437600092019190915250620029dc92505050565b90507f2afa5331000000000000000000000000000000000000000000000000000000006001600160e01b031982160162001f8057600080808080808062001d0e896004818d6200361d565b81019062001d1d919062003649565b9650965096509650965096509650336001600160a01b0316876001600160a01b03161462001db45760405162461bcd60e51b815260206004820152603060248201527f4272696467653a3a5f7065726d69743a205045524d49545f4f574e45525f4d5560448201527f53545f42455f5448455f53454e4445520000000000000000000000000000000060648201526084016200066e565b6001600160a01b038616301462001e1c5760405162461bcd60e51b815260206004820152602560248201527f4272696467653a3a5f7065726d69743a205350454e4445525f4d5553545f42456044820152645f5448495360d81b60648201526084016200066e565b8a851462001e935760405162461bcd60e51b815260206004820152602d60248201527f4272696467653a3a5f7065726d69743a205045524d49545f414d4f554e545f4460448201527f4f45535f4e4f545f4d415443480000000000000000000000000000000000000060648201526084016200066e565b604080516001600160a01b0389811660248301528881166044830152606482018890526084820187905260ff861660a483015260c4820185905260e48083018590528351808403909101815261010490920183526020820180516001600160e01b03167fd505accf000000000000000000000000000000000000000000000000000000001790529151918e169162001f2c9190620034d5565b6000604051808303816000865af19150503d806000811462001f6b576040519150601f19603f3d011682016040523d82523d6000602084013e62001f70565b606091505b50505050505050505050620021e3565b6001600160e01b031981166323f2ebc360e21b1462001fe25760405162461bcd60e51b815260206004820152601f60248201527f4272696467653a3a5f7065726d69743a204e4f545f56414c49445f43414c4c0060448201526064016200066e565b60008080808080808062001ffa8a6004818e6200361d565b810190620020099190620036a4565b97509750975097509750975097509750336001600160a01b0316886001600160a01b031614620020a25760405162461bcd60e51b815260206004820152603060248201527f4272696467653a3a5f7065726d69743a205045524d49545f4f574e45525f4d5560448201527f53545f42455f5448455f53454e4445520000000000000000000000000000000060648201526084016200066e565b6001600160a01b03871630146200210a5760405162461bcd60e51b815260206004820152602560248201527f4272696467653a3a5f7065726d69743a205350454e4445525f4d5553545f42456044820152645f5448495360d81b60648201526084016200066e565b604080516001600160a01b038a811660248301528981166044830152606482018990526084820188905286151560a483015260ff861660c483015260e482018590526101048083018590528351808403909101815261012490920183526020820180516001600160e01b03166323f2ebc360e21b1790529151918f1691620021939190620034d5565b6000604051808303816000865af19150503d8060008114620021d2576040519150601f19603f3d011682016040523d82523d6000602084013e620021d7565b606091505b50505050505050505050505b5050505050565b6040516001600160a01b03808516602483015283166044820152606481018290526200125a9085907f23b872dd00000000000000000000000000000000000000000000000000000000906084015b60408051601f198184030181529190526020810180516001600160e01b03166001600160e01b031990931692909217909152620029e3565b80600162002281602060026200382d565b6200228d91906200383b565b60215410620023055760405162461bcd60e51b815260206004820152602a60248201527f4465706f736974436f6e74726163743a5f6465706f7369743a204d45524b4c4560448201527f5f545245455f46554c4c0000000000000000000000000000000000000000000060648201526084016200066e565b6001602160008282546200231a919062003855565b909155505060215460005b6020811015620023c457816001166001036200235a57826001826020811062002352576200235262003427565b015550505050565b6001816020811062002370576200237062003427565b01546040805160208101929092528101849052606001604051602081830303815290604052805190602001209250600282620023ad919062003469565b915080620023bb8162003480565b91505062002325565b50620023cf62003870565b505050565b60225460ff16156200245a5760405162461bcd60e51b815260206004820152604260248201527f456d657267656e63794d616e616765723a3a69664e6f74456d657267656e637960448201527f53746174653a206f6e6c79206966206e6f7420656d657267656e637920737461606482015261746560f01b608482015260a4016200066e565b6022805460ff191660011790556040517f2261efe5aef6fedc1fd1550b25facc9181745623049c7901287030b9ad1a549790600090a1565b620024a38a63ffffffff16620017c4565b15620025175760405162461bcd60e51b8152602060048201526024808201527f4272696467653a3a5f7665726966794c6561663a20414c52454144595f434c4160448201527f494d45440000000000000000000000000000000000000000000000000000000060648201526084016200066e565b608b546040805160208082018d90528183018c9052825180830384018152606083019384905280519101207f257b36320000000000000000000000000000000000000000000000000000000090925260648101919091526000916001600160a01b03169063257b3632906084016020604051808303816000875af1158015620025a4573d6000803e3d6000fd5b505050506040513d601f19601f82011682018060405250810190620025ca919062003886565b905080600003620026445760405162461bcd60e51b815260206004820152602d60248201527f4272696467653a3a5f7665726966794c6561663a20474c4f42414c5f4558495460448201527f5f524f4f545f494e56414c49440000000000000000000000000000000000000060648201526084016200066e565b60875463ffffffff878116911614620026c65760405162461bcd60e51b815260206004820152603760248201527f4272696467653a3a5f7665726966794c6561663a2044455354494e4154494f4e60448201527f5f4e4554574f524b5f444f45535f4e4f545f4d4154434800000000000000000060648201526084016200066e565b60875460009063ffffffff16620026df575088620026e2565b50895b6200270d620026fe848b8b8b8b8b8b8051906020012062000dee565b8e8e63ffffffff168462000cec565b62000add5760405162461bcd60e51b815260206004820181905260248201527f4272696467653a3a5f7665726966794c6561663a20534d545f494e56414c494460448201526064016200066e565b60006200276b6101008362003469565b905060006200277d6101008462003569565b6000928352608860205260409092208054600190931b9092179091555050565b600054610100900460ff166200281c5760405162461bcd60e51b815260206004820152602b60248201527f496e697469616c697a61626c653a20636f6e7472616374206973206e6f74206960448201527f6e697469616c697a696e6700000000000000000000000000000000000000000060648201526084016200066e565b62000b8c3362002883565b6055546001600160a01b0316331462000b8c5760405162461bcd60e51b815260206004820181905260248201527f4f776e61626c653a2063616c6c6572206973206e6f7420746865206f776e657260448201526064016200066e565b605580546001600160a01b0383811673ffffffffffffffffffffffffffffffffffffffff19831681179093556040519116919082907f8be0079c531659141344cd1fd0a4f28419497f9722a3daafe3b4186f6b6457e090600090a35050565b6040516001600160a01b038316602482015260448101829052620023cf9084907fa9059cbb000000000000000000000000000000000000000000000000000000009060640162002238565b60225460ff16620029a75760405162461bcd60e51b815260206004820152603b60248201527f456d657267656e63794d616e616765723a3a6966456d657267656e637953746160448201527f74653a206f6e6c7920696620656d657267656e6379207374617465000000000060648201526084016200066e565b6022805460ff191690556040517f1e5e34eea33501aecf2ebec9fe0e884a40804275ea7fe10b2ba084c8374308b390600090a1565b6020015190565b600062002a3a826040518060400160405280602081526020017f5361666545524332303a206c6f772d6c6576656c2063616c6c206661696c6564815250856001600160a01b031662002acf9092919063ffffffff16565b805190915015620023cf578080602001905181019062002a5b91906200325c565b620023cf5760405162461bcd60e51b815260206004820152602a60248201527f5361666545524332303a204552433230206f7065726174696f6e20646964206e60448201527f6f7420737563636565640000000000000000000000000000000000000000000060648201526084016200066e565b606062000de6848460008585600080866001600160a01b0316858760405162002af99190620034d5565b60006040518083038185875af1925050503d806000811462002b38576040519150601f19603f3d011682016040523d82523d6000602084013e62002b3d565b606091505b509150915062002b508783838762002b5b565b979650505050505050565b6060831562002bcf57825160000362002bc7576001600160a01b0385163b62002bc75760405162461bcd60e51b815260206004820152601d60248201527f416464726573733a2063616c6c20746f206e6f6e2d636f6e747261637400000060448201526064016200066e565b508162000de6565b62000de6838381511562002be65781518083602001fd5b8060405162461bcd60e51b81526004016200066e9190620038a0565b61173580620038b683390190565b6001600160a01b038116811462001c7d57600080fd5b803562002c338162002c10565b919050565b803563ffffffff8116811462002c3357600080fd5b60008083601f84011262002c6057600080fd5b50813567ffffffffffffffff81111562002c7957600080fd5b60208301915083602082850101111562002c9257600080fd5b9250929050565b60008060008060008060a0878903121562002cb357600080fd5b863562002cc08162002c10565b955062002cd06020880162002c38565b9450604087013562002ce28162002c10565b935060608701359250608087013567ffffffffffffffff81111562002d0657600080fd5b62002d1489828a0162002c4d565b979a9699509497509295939492505050565b6000806040838503121562002d3a57600080fd5b62002d458362002c38565b9150602083013562002d578162002c10565b809150509250929050565b60006020828403121562002d7557600080fd5b813562002d828162002c10565b9392505050565b634e487b7160e01b600052604160045260246000fd5b604051601f8201601f1916810167ffffffffffffffff8111828210171562002dcb5762002dcb62002d89565b604052919050565b600082601f83011262002de557600080fd5b8135602067ffffffffffffffff82111562002e045762002e0462002d89565b8160051b62002e1582820162002d9f565b928352848101820192828101908785111562002e3057600080fd5b83870192505b8483101562002b505782358252918301919083019062002e36565b6000806000806080858703121562002e6857600080fd5b84359350602085013567ffffffffffffffff8082111562002e8857600080fd5b62002e968883890162002dd3565b945060408701359150808216821462002eae57600080fd5b509396929550929360600135925050565b60ff8116811462001c7d57600080fd5b600080600080600080600060e0888a03121562002eeb57600080fd5b873562002ef88162002ebf565b965062002f086020890162002c38565b9550604088013562002f1a8162002c10565b945062002f2a6060890162002c38565b9350608088013562002f3c8162002c10565b9699959850939692959460a0840135945060c09093013592915050565b600067ffffffffffffffff82111562002f765762002f7662002d89565b50601f01601f191660200190565b600082601f83011262002f9657600080fd5b813562002fad62002fa78262002f59565b62002d9f565b81815284602083860101111562002fc357600080fd5b816020850160208301376000918101602001919091529392505050565b6000806000806000806000806000806101408b8d0312156200300157600080fd5b8a3567ffffffffffffffff808211156200301a57600080fd5b620030288e838f0162002dd3565b9b506200303860208e0162002c38565b9a5060408d0135995060608d013598506200305660808e0162002c38565b97506200306660a08e0162002c26565b96506200307660c08e0162002c38565b95506200308660e08e0162002c26565b94506101008d013593506101208d0135915080821115620030a657600080fd5b50620030b58d828e0162002f84565b9150509295989b9194979a5092959850565b600080600060608486031215620030dd57600080fd5b620030e88462002c38565b92506020840135620030fa8162002c10565b915060408401356200310c8162002c10565b809150509250925092565b6000602082840312156200312a57600080fd5b5035919050565b600080600080600080600060a0888a0312156200314d57600080fd5b620031588862002c38565b965060208801356200316a8162002c10565b9550604088013567ffffffffffffffff808211156200318857600080fd5b620031968b838c0162002c4d565b909750955060608a0135915080821115620031b057600080fd5b50620031bf8a828b0162002c4d565b9094509250506080880135620031d58162002ebf565b8091505092959891949750929550565b600080600060608486031215620031fb57600080fd5b620032068462002c38565b92506020840135620032188162002c10565b9150604084013567ffffffffffffffff8111156200323557600080fd5b620032438682870162002f84565b9150509250925092565b801515811462001c7d57600080fd5b6000602082840312156200326f57600080fd5b815162002d82816200324d565b60005b83811015620032995781810151838201526020016200327f565b838111156200125a5750506000910152565b600082601f830112620032bd57600080fd5b8151620032ce62002fa78262002f59565b818152846020838601011115620032e457600080fd5b62000de68260208301602087016200327c565b6000602082840312156200330a57600080fd5b815167ffffffffffffffff8111156200332257600080fd5b62000de684828501620032ab565b6000602082840312156200334357600080fd5b815162002d828162002ebf565b600081518084526200336a8160208601602086016200327c565b601f01601f19169290920160200192915050565b60608152600062003393606083018662003350565b8281036020840152620033a7818662003350565b91505060ff83166040830152949350505050565b600061010060ff8b16835263ffffffff808b1660208501526001600160a01b03808b166040860152818a1660608601528089166080860152508660a08501528160c08501526200340e8285018762003350565b925080851660e085015250509998505050505050505050565b634e487b7160e01b600052603260045260246000fd5b634e487b7160e01b600052601260045260246000fd5b634e487b7160e01b600052601160045260246000fd5b6000826200347b576200347b6200343d565b500490565b60006001820162003495576200349562003453565b5060010190565b6001600160a01b038416815263ffffffff83166020820152606060408201526000620034cc606083018462003350565b95945050505050565b60008251620034e98184602087016200327c565b9190910192915050565b6000806000606084860312156200350957600080fd5b835167ffffffffffffffff808211156200352257600080fd5b6200353087838801620032ab565b945060208601519150808211156200354757600080fd5b506200355686828701620032ab565b92505060408401516200310c8162002ebf565b6000826200357b576200357b6200343d565b500690565b81835281816020850137506000828201602090810191909152601f909101601f19169091010190565b606081526000620035bf60608301878962003580565b8281036020840152620035d481868862003580565b91505060ff831660408301529695505050505050565b60008351620035fe8184602088016200327c565b835190830190620036148183602088016200327c565b01949350505050565b600080858511156200362e57600080fd5b838611156200363c57600080fd5b5050820193919092039150565b600080600080600080600060e0888a0312156200366557600080fd5b8735620036728162002c10565b96506020880135620036848162002c10565b95506040880135945060608801359350608088013562002f3c8162002ebf565b600080600080600080600080610100898b031215620036c257600080fd5b8835620036cf8162002c10565b97506020890135620036e18162002c10565b96506040890135955060608901359450608089013562003701816200324d565b935060a0890135620037138162002ebf565b979a969950949793969295929450505060c08201359160e0013590565b600181815b808511156200377157816000190482111562003755576200375562003453565b808516156200376357918102915b93841c939080029062003735565b509250929050565b6000826200378a5750600162000bf3565b81620037995750600062000bf3565b8160018114620037b25760028114620037bd57620037dd565b600191505062000bf3565b60ff841115620037d157620037d162003453565b50506001821b62000bf3565b5060208310610133831016604e8410600b841016171562003802575081810a62000bf3565b6200380e838362003730565b806000190482111562003825576200382562003453565b029392505050565b600062002d82838362003779565b60008282101562003850576200385062003453565b500390565b600082198211156200386b576200386b62003453565b500190565b634e487b7160e01b600052600160045260246000fd5b6000602082840312156200389957600080fd5b5051919050565b60208152600062002d8260208301846200335056fe60c06040523480156200001157600080fd5b5060405162001735380380620017358339810160408190526200003491620002ad565b82826003620000448382620003c1565b506004620000538282620003c1565b5050600580546001600160a81b0319163360ff60a01b191617600160a01b60ff851602179055504660808190526200008b9062000098565b60a052506200048d915050565b60007f8b73c3c69bb8fe3d512ecc4cf759cc79239f7b179b0ffacaa9a75d522b39400f620000c562000146565b805160209182012060408051808201825260018152603160f81b90840152805192830193909352918101919091527fc89efdaa54c0f20c7adf612882df0950f5a951637e0307cdcb4c672f298b8bc66060820152608081018390523060a082015260c001604051602081830303815290604052805190602001209050919050565b606060038054620001579062000332565b80601f0160208091040260200160405190810160405280929190818152602001828054620001859062000332565b8015620001d65780601f10620001aa57610100808354040283529160200191620001d6565b820191906000526020600020905b815481529060010190602001808311620001b857829003601f168201915b5050505050905090565b634e487b7160e01b600052604160045260246000fd5b600082601f8301126200020857600080fd5b81516001600160401b0380821115620002255762000225620001e0565b604051601f8301601f19908116603f01168101908282118183101715620002505762000250620001e0565b816040528381526020925086838588010111156200026d57600080fd5b600091505b8382101562000291578582018301518183018401529082019062000272565b83821115620002a35760008385830101525b9695505050505050565b600080600060608486031215620002c357600080fd5b83516001600160401b0380821115620002db57600080fd5b620002e987838801620001f6565b945060208601519150808211156200030057600080fd5b506200030f86828701620001f6565b925050604084015160ff811681146200032757600080fd5b809150509250925092565b600181811c908216806200034757607f821691505b6020821081036200036857634e487b7160e01b600052602260045260246000fd5b50919050565b601f821115620003bc57600081815260208120601f850160051c81016020861015620003975750805b601f850160051c820191505b81811015620003b857828155600101620003a3565b5050505b505050565b81516001600160401b03811115620003dd57620003dd620001e0565b620003f581620003ee845462000332565b846200036e565b602080601f8311600181146200042d5760008415620004145750858301515b600019600386901b1c1916600185901b178555620003b8565b600085815260208120601f198616915b828110156200045e578886015182559484019460019091019084016200043d565b50858210156200047d5787850151600019600388901b60f8161c191681555b5050505050600190811b01905550565b60805160a05161127b620004ba60003960006104e001526000818161034801526104aa015261127b6000f3fe608060405234801561001057600080fd5b50600436106101775760003560e01c806370a08231116100d8578063a457c2d71161008c578063d505accf11610066578063d505accf1461036a578063dd62ed3e1461037f578063ffa1ad74146103b857600080fd5b8063a457c2d71461031d578063a9059cbb14610330578063cd0d00961461034357600080fd5b806395d89b41116100bd57806395d89b41146102d75780639dc29fac146102df578063a3c573eb146102f257600080fd5b806370a082311461028e5780637ecebe00146102b757600080fd5b806330adf81f1161012f5780633644e515116101145780633644e51514610260578063395093511461026857806340c10f191461027b57600080fd5b806330adf81f14610209578063313ce5671461023057600080fd5b806318160ddd1161016057806318160ddd146101bd57806320606b70146101cf57806323b872dd146101f657600080fd5b806306fdde031461017c578063095ea7b31461019a575b600080fd5b6101846103d8565b6040516101919190611025565b60405180910390f35b6101ad6101a8366004611096565b61046a565b6040519015158152602001610191565b6002545b604051908152602001610191565b6101c17f8b73c3c69bb8fe3d512ecc4cf759cc79239f7b179b0ffacaa9a75d522b39400f81565b6101ad6102043660046110c0565b610482565b6101c17f6e71edae12b1b97f4d1f60370fef10105fa2faae0126114a169c64845d6126c981565b60055474010000000000000000000000000000000000000000900460ff1660405160ff9091168152602001610191565b6101c16104a6565b6101ad610276366004611096565b610502565b6101ad610289366004611096565b610541565b6101c161029c3660046110fc565b6001600160a01b031660009081526020819052604090205490565b6101c16102c53660046110fc565b60066020526000908152604090205481565b6101846105c2565b6101ad6102ed366004611096565b6105d1565b600554610305906001600160a01b031681565b6040516001600160a01b039091168152602001610191565b6101ad61032b366004611096565b610644565b6101ad61033e366004611096565b6106ee565b6101c17f000000000000000000000000000000000000000000000000000000000000000081565b61037d61037836600461111e565b6106fc565b005b6101c161038d366004611191565b6001600160a01b03918216600090815260016020908152604080832093909416825291909152205490565b610184604051806040016040528060018152602001603160f81b81525081565b6060600380546103e7906111c4565b80601f0160208091040260200160405190810160405280929190818152602001828054610413906111c4565b80156104605780601f1061043557610100808354040283529160200191610460565b820191906000526020600020905b81548152906001019060200180831161044357829003601f168201915b5050505050905090565b600033610478818585610981565b5060019392505050565b600033610490858285610ada565b61049b858585610b6c565b506001949350505050565b60007f000000000000000000000000000000000000000000000000000000000000000046146104dd576104d846610d59565b905090565b507f000000000000000000000000000000000000000000000000000000000000000090565b3360008181526001602090815260408083206001600160a01b0387168452909152812054909190610478908290869061053c908790611214565b610981565b6005546000906001600160a01b031633146105af5760405162461bcd60e51b8152602060048201526024808201527f546f6b656e577261707065643a3a6f6e6c794272696467653a204e4f545f42526044820152634944474560e01b60648201526084015b60405180910390fd5b6105b98383610e05565b50600192915050565b6060600480546103e7906111c4565b6005546000906001600160a01b0316331461063a5760405162461bcd60e51b8152602060048201526024808201527f546f6b656e577261707065643a3a6f6e6c794272696467653a204e4f545f42526044820152634944474560e01b60648201526084016105a6565b6105b98383610ec4565b3360008181526001602090815260408083206001600160a01b0387168452909152812054909190838110156106e15760405162461bcd60e51b815260206004820152602560248201527f45524332303a2064656372656173656420616c6c6f77616e63652062656c6f7760448201527f207a65726f00000000000000000000000000000000000000000000000000000060648201526084016105a6565b61049b8286868403610981565b600033610478818585610b6c565b834211156107715760405162461bcd60e51b8152602060048201526024808201527f546f6b656e577261707065643a3a7065726d69743a204578706972656420706560448201527f726d69740000000000000000000000000000000000000000000000000000000060648201526084016105a6565b6001600160a01b038716600090815260066020526040812080547f6e71edae12b1b97f4d1f60370fef10105fa2faae0126114a169c64845d6126c9918a918a918a9190866107be8361122c565b909155506040805160208101969096526001600160a01b0394851690860152929091166060840152608083015260a082015260c0810186905260e001604051602081830303815290604052805190602001209050600061081c6104a6565b6040517f1901000000000000000000000000000000000000000000000000000000000000602082015260228101919091526042810183905260620160408051601f198184030181528282528051602091820120600080855291840180845281905260ff89169284019290925260608301879052608083018690529092509060019060a0016020604051602081039080840390855afa1580156108c2573d6000803e3d6000fd5b5050604051601f1901519150506001600160a01b038116158015906108f85750896001600160a01b0316816001600160a01b0316145b61096a5760405162461bcd60e51b815260206004820152602760248201527f546f6b656e577261707065643a3a7065726d69743a20496e76616c696420736960448201527f676e61747572650000000000000000000000000000000000000000000000000060648201526084016105a6565b6109758a8a8a610981565b50505050505050505050565b6001600160a01b0383166109fc5760405162461bcd60e51b8152602060048201526024808201527f45524332303a20617070726f76652066726f6d20746865207a65726f2061646460448201527f726573730000000000000000000000000000000000000000000000000000000060648201526084016105a6565b6001600160a01b038216610a785760405162461bcd60e51b815260206004820152602260248201527f45524332303a20617070726f766520746f20746865207a65726f20616464726560448201527f737300000000000000000000000000000000000000000000000000000000000060648201526084016105a6565b6001600160a01b0383811660008181526001602090815260408083209487168084529482529182902085905590518481527f8c5be1e5ebec7d5bd14f71427d1e84f3dd0314c0f7b2291e5b200ac8c7c3b92591015b60405180910390a3505050565b6001600160a01b038381166000908152600160209081526040808320938616835292905220546000198114610b665781811015610b595760405162461bcd60e51b815260206004820152601d60248201527f45524332303a20696e73756666696369656e7420616c6c6f77616e636500000060448201526064016105a6565b610b668484848403610981565b50505050565b6001600160a01b038316610be85760405162461bcd60e51b815260206004820152602560248201527f45524332303a207472616e736665722066726f6d20746865207a65726f20616460448201527f647265737300000000000000000000000000000000000000000000000000000060648201526084016105a6565b6001600160a01b038216610c645760405162461bcd60e51b815260206004820152602360248201527f45524332303a207472616e7366657220746f20746865207a65726f206164647260448201527f657373000000000000000000000000000000000000000000000000000000000060648201526084016105a6565b6001600160a01b03831660009081526020819052604090205481811015610cf35760405162461bcd60e51b815260206004820152602660248201527f45524332303a207472616e7366657220616d6f756e742065786365656473206260448201527f616c616e6365000000000000000000000000000000000000000000000000000060648201526084016105a6565b6001600160a01b03848116600081815260208181526040808320878703905593871680835291849020805487019055925185815290927fddf252ad1be2c89b69c2b068fc378daa952ba7f163c4a11628f55a4df523b3ef910160405180910390a3610b66565b60007f8b73c3c69bb8fe3d512ecc4cf759cc79239f7b179b0ffacaa9a75d522b39400f610d846103d8565b805160209182012060408051808201825260018152603160f81b90840152805192830193909352918101919091527fc89efdaa54c0f20c7adf612882df0950f5a951637e0307cdcb4c672f298b8bc66060820152608081018390523060a082015260c001604051602081830303815290604052805190602001209050919050565b6001600160a01b038216610e5b5760405162461bcd60e51b815260206004820152601f60248201527f45524332303a206d696e7420746f20746865207a65726f20616464726573730060448201526064016105a6565b8060026000828254610e6d9190611214565b90915550506001600160a01b038216600081815260208181526040808320805486019055518481527fddf252ad1be2c89b69c2b068fc378daa952ba7f163c4a11628f55a4df523b3ef910160405180910390a35050565b6001600160a01b038216610f405760405162461bcd60e51b815260206004820152602160248201527f45524332303a206275726e2066726f6d20746865207a65726f2061646472657360448201527f730000000000000000000000000000000000000000000000000000000000000060648201526084016105a6565b6001600160a01b03821660009081526020819052604090205481811015610fcf5760405162461bcd60e51b815260206004820152602260248201527f45524332303a206275726e20616d6f756e7420657863656564732062616c616e60448201527f636500000000000000000000000000000000000000000000000000000000000060648201526084016105a6565b6001600160a01b0383166000818152602081815260408083208686039055600280548790039055518581529192917fddf252ad1be2c89b69c2b068fc378daa952ba7f163c4a11628f55a4df523b3ef9101610acd565b600060208083528351808285015260005b8181101561105257858101830151858201604001528201611036565b81811115611064576000604083870101525b50601f01601f1916929092016040019392505050565b80356001600160a01b038116811461109157600080fd5b919050565b600080604083850312156110a957600080fd5b6110b28361107a565b946020939093013593505050565b6000806000606084860312156110d557600080fd5b6110de8461107a565b92506110ec6020850161107a565b9150604084013590509250925092565b60006020828403121561110e57600080fd5b6111178261107a565b9392505050565b600080600080600080600060e0888a03121561113957600080fd5b6111428861107a565b96506111506020890161107a565b95506040880135945060608801359350608088013560ff8116811461117457600080fd5b9699959850939692959460a0840135945060c09093013592915050565b600080604083850312156111a457600080fd5b6111ad8361107a565b91506111bb6020840161107a565b90509250929050565b600181811c908216806111d857607f821691505b6020821081036111f857634e487b7160e01b600052602260045260246000fd5b50919050565b634e487b7160e01b600052601160045260246000fd5b60008219821115611227576112276111fe565b500190565b60006001820161123e5761123e6111fe565b506001019056fea26469706673582212208d211c9f4713b5ecfa98c9624b9706e5d2d8ea80891a3a22c183e8d3de07b14f64736f6c634300080f0033a264697066735822122016a0bc6993f4dfcdbcd4bbbc56c9aa4c69b594806a3dda27757518badeaa6c4e64736f6c634300080f0033",
  "linkReferences": {},
  "deployedLinkReferences": {}
}