{
  "_format": "hh-sol-artifact-1",
  "contractName": "BridgeMock",
  "sourceName": "contracts/mocks/BridgeMock.sol",
  "abi": [
    {
      "anonymous": false,
      "inputs": [
        {
          "indexed": false,
          "internalType": "uint32",
          "name": "originNetwork",
          "type": "uint32"
        },
        {
          "indexed": false,
          "internalType": "address",
          "name": "originTokenAddress",
          "type": "address"
        },
        {
          "indexed": false,
          "internalType": "uint32",
          "name": "destinationNetwork",
          "type": "uint32"
        },
        {
          "indexed": false,
          "internalType": "address",
          "name": "destinationAddress",
          "type": "address"
        },
        {
          "indexed": false,
          "internalType": "uint256",
          "name": "amount",
          "type": "uint256"
        },
        {
          "indexed": false,
          "internalType": "bytes",
          "name": "metadata",
          "type": "bytes"
        },
        {
          "indexed": false,
          "internalType": "uint32",
          "name": "depositCount",
          "type": "uint32"
        }
      ],
      "name": "BridgeEvent",
      "type": "event"
    },
    {
      "anonymous": false,
      "inputs": [
        {
          "indexed": false,
          "internalType": "uint32",
          "name": "index",
          "type": "uint32"
        },
        {
          "indexed": false,
          "internalType": "uint32",
          "name": "originNetwork",
          "type": "uint32"
        },
        {
          "indexed": false,
          "internalType": "address",
          "name": "originTokenAddress",
          "type": "address"
        },
        {
          "indexed": false,
          "internalType": "address",
          "name": "destinationAddress",
          "type": "address"
        },
        {
          "indexed": false,
          "internalType": "uint256",
          "name": "amount",
          "type": "uint256"
        }
      ],
      "name": "ClaimEvent",
      "type": "event"
    },
    {
      "anonymous": false,
      "inputs": [
        {
          "indexed": false,
          "internalType": "uint8",
          "name": "version",
          "type": "uint8"
        }
      ],
      "name": "Initialized",
      "type": "event"
    },
    {
      "anonymous": false,
      "inputs": [
        {
          "indexed": false,
          "internalType": "uint32",
          "name": "originNetwork",
          "type": "uint32"
        },
        {
          "indexed": false,
          "internalType": "address",
          "name": "originTokenAddress",
          "type": "address"
        },
        {
          "indexed": false,
          "internalType": "address",
          "name": "wrappedTokenAddress",
          "type": "address"
        }
      ],
      "name": "NewWrappedToken",
      "type": "event"
    },
    {
      "anonymous": false,
      "inputs": [
        {
          "indexed": true,
          "internalType": "address",
          "name": "previousOwner",
          "type": "address"
        },
        {
          "indexed": true,
          "internalType": "address",
          "name": "newOwner",
          "type": "address"
        }
      ],
      "name": "OwnershipTransferred",
      "type": "event"
    },
    {
      "inputs": [],
      "name": "MAINNET_NETWORK_ID",
      "outputs": [
        {
          "internalType": "uint32",
          "name": "",
          "type": "uint32"
        }
      ],
      "stateMutability": "view",
      "type": "function"
    },
    {
      "inputs": [
        {
          "internalType": "address",
          "name": "token",
          "type": "address"
        },
        {
          "internalType": "uint32",
          "name": "destinationNetwork",
          "type": "uint32"
        },
        {
          "internalType": "address",
          "name": "destinationAddress",
          "type": "address"
        },
        {
          "internalType": "uint256",
          "name": "amount",
          "type": "uint256"
        },
        {
          "internalType": "bytes",
          "name": "permitData",
          "type": "bytes"
        }
      ],
      "name": "bridgeAsset",
      "outputs": [],
      "stateMutability": "payable",
      "type": "function"
    },
    {
      "inputs": [
        {
          "internalType": "uint32",
          "name": "destinationNetwork",
          "type": "uint32"
        },
        {
          "internalType": "address",
          "name": "destinationAddress",
          "type": "address"
        },
        {
          "internalType": "bytes",
          "name": "metadata",
          "type": "bytes"
        }
      ],
      "name": "bridgeMessage",
      "outputs": [],
      "stateMutability": "payable",
      "type": "function"
    },
    {
      "inputs": [
        {
          "internalType": "bytes32[]",
          "name": "smtProof",
          "type": "bytes32[]"
        },
        {
          "internalType": "uint32",
          "name": "index",
          "type": "uint32"
        },
        {
          "internalType": "bytes32",
          "name": "mainnetExitRoot",
          "type": "bytes32"
        },
        {
          "internalType": "bytes32",
          "name": "rollupExitRoot",
          "type": "bytes32"
        },
        {
          "internalType": "uint32",
          "name": "originNetwork",
          "type": "uint32"
        },
        {
          "internalType": "address",
          "name": "originTokenAddress",
          "type": "address"
        },
        {
          "internalType": "uint32",
          "name": "destinationNetwork",
          "type": "uint32"
        },
        {
          "internalType": "address",
          "name": "destinationAddress",
          "type": "address"
        },
        {
          "internalType": "uint256",
          "name": "amount",
          "type": "uint256"
        },
        {
          "internalType": "bytes",
          "name": "metadata",
          "type": "bytes"
        }
      ],
      "name": "claim",
      "outputs": [],
      "stateMutability": "nonpayable",
      "type": "function"
    },
    {
      "inputs": [
        {
          "internalType": "uint256",
          "name": "",
          "type": "uint256"
        }
      ],
      "name": "claimNullifier",
      "outputs": [
        {
          "internalType": "bool",
          "name": "",
          "type": "bool"
        }
      ],
      "stateMutability": "view",
      "type": "function"
    },
    {
      "inputs": [],
      "name": "depositCount",
      "outputs": [
        {
          "internalType": "uint256",
          "name": "",
          "type": "uint256"
        }
      ],
      "stateMutability": "view",
      "type": "function"
    },
    {
      "inputs": [],
      "name": "getDepositRoot",
      "outputs": [
        {
          "internalType": "bytes32",
          "name": "",
          "type": "bytes32"
        }
      ],
      "stateMutability": "view",
      "type": "function"
    },
    {
      "inputs": [
        {
          "internalType": "uint32",
          "name": "originNetwork",
          "type": "uint32"
        },
        {
          "internalType": "address",
          "name": "originTokenAddress",
          "type": "address"
        },
        {
          "internalType": "uint32",
          "name": "destinationNetwork",
          "type": "uint32"
        },
        {
          "internalType": "address",
          "name": "destinationAddress",
          "type": "address"
        },
        {
          "internalType": "uint256",
          "name": "amount",
          "type": "uint256"
        },
        {
          "internalType": "bytes32",
          "name": "metadataHash",
          "type": "bytes32"
        }
      ],
      "name": "getLeafValue",
      "outputs": [
        {
          "internalType": "bytes32",
          "name": "",
          "type": "bytes32"
        }
      ],
      "stateMutability": "pure",
      "type": "function"
    },
    {
      "inputs": [
        {
          "internalType": "uint32",
          "name": "originNetwork",
          "type": "uint32"
        },
        {
          "internalType": "address",
          "name": "originTokenAddress",
          "type": "address"
        }
      ],
      "name": "getTokenWrappedAddress",
      "outputs": [
        {
          "internalType": "address",
          "name": "",
          "type": "address"
        }
      ],
      "stateMutability": "view",
      "type": "function"
    },
    {
      "inputs": [],
      "name": "globalExitRootManager",
      "outputs": [
        {
          "internalType": "contract IGlobalExitRootManager",
          "name": "",
          "type": "address"
        }
      ],
      "stateMutability": "view",
      "type": "function"
    },
    {
      "inputs": [
        {
          "internalType": "uint32",
          "name": "_networkID",
          "type": "uint32"
        },
        {
          "internalType": "contract IGlobalExitRootManager",
          "name": "_globalExitRootManager",
          "type": "address"
        }
      ],
      "name": "initialize",
      "outputs": [],
      "stateMutability": "nonpayable",
      "type": "function"
    },
    {
      "inputs": [],
      "name": "maxEtherBridge",
      "outputs": [
        {
          "internalType": "uint256",
          "name": "",
          "type": "uint256"
        }
      ],
      "stateMutability": "view",
      "type": "function"
    },
    {
      "inputs": [],
      "name": "networkID",
      "outputs": [
        {
          "internalType": "uint32",
          "name": "",
          "type": "uint32"
        }
      ],
      "stateMutability": "view",
      "type": "function"
    },
    {
      "inputs": [],
      "name": "owner",
      "outputs": [
        {
          "internalType": "address",
          "name": "",
          "type": "address"
        }
      ],
      "stateMutability": "view",
      "type": "function"
    },
    {
      "inputs": [
        {
          "internalType": "uint32",
          "name": "originNetwork",
          "type": "uint32"
        },
        {
          "internalType": "address",
          "name": "originTokenAddress",
          "type": "address"
        }
      ],
      "name": "precalculatedWrapperAddress",
      "outputs": [
        {
          "internalType": "address",
          "name": "",
          "type": "address"
        }
      ],
      "stateMutability": "view",
      "type": "function"
    },
    {
      "inputs": [],
      "name": "renounceOwnership",
      "outputs": [],
      "stateMutability": "nonpayable",
      "type": "function"
    },
    {
      "inputs": [
        {
          "internalType": "uint256",
          "name": "_maxEtherBridge",
          "type": "uint256"
        }
      ],
      "name": "setMaxEtherBridge",
      "outputs": [],
      "stateMutability": "nonpayable",
      "type": "function"
    },
    {
      "inputs": [
        {
          "internalType": "uint32",
          "name": "_networkID",
          "type": "uint32"
        }
      ],
      "name": "setNetworkID",
      "outputs": [],
      "stateMutability": "nonpayable",
      "type": "function"
    },
    {
      "inputs": [],
      "name": "tokenImplementation",
      "outputs": [
        {
          "internalType": "address",
          "name": "",
          "type": "address"
        }
      ],
      "stateMutability": "view",
      "type": "function"
    },
    {
      "inputs": [
        {
          "internalType": "bytes32",
          "name": "",
          "type": "bytes32"
        }
      ],
      "name": "tokenInfoToWrappedToken",
      "outputs": [
        {
          "internalType": "address",
          "name": "",
          "type": "address"
        }
      ],
      "stateMutability": "view",
      "type": "function"
    },
    {
      "inputs": [
        {
          "internalType": "address",
          "name": "newOwner",
          "type": "address"
        }
      ],
      "name": "transferOwnership",
      "outputs": [],
      "stateMutability": "nonpayable",
      "type": "function"
    },
    {
      "inputs": [
        {
          "internalType": "bytes32",
          "name": "leafHash",
          "type": "bytes32"
        },
        {
          "internalType": "bytes32[]",
          "name": "smtProof",
          "type": "bytes32[]"
        },
        {
          "internalType": "uint64",
          "name": "index",
          "type": "uint64"
        },
        {
          "internalType": "bytes32",
          "name": "root",
          "type": "bytes32"
        }
      ],
      "name": "verifyMerkleProof",
      "outputs": [
        {
          "internalType": "bool",
          "name": "",
          "type": "bool"
        }
      ],
      "stateMutability": "pure",
      "type": "function"
    },
    {
      "inputs": [
        {
          "internalType": "address",
          "name": "",
          "type": "address"
        }
      ],
      "name": "wrappedTokenToTokenInfo",
      "outputs": [
        {
          "internalType": "uint32",
          "name": "originNetwork",
          "type": "uint32"
        },
        {
          "internalType": "address",
          "name": "originTokenAddress",
          "type": "address"
        }
      ],
      "stateMutability": "view",
      "type": "function"
    }
  ],
  "bytecode": "0x608060405234801561001057600080fd5b50615345806100206000396000f3fe6080604052600436106200019f5760003560e01c8063715018a611620000e7578063bab161bf1162000089578063e73758811162000060578063e737588114620005ce578063ed6be5c91462000602578063f2fde38b146200061957600080fd5b8063bab161bf1462000553578063d02103ca1462000588578063d96a15f714620005b757600080fd5b80638da5cb5b11620000be5780638da5cb5b14620004e957806391e57e2d1462000516578063b7e6a7d4146200052e57600080fd5b8063715018a6146200046557806381b1c174146200047d5780638624c35c14620004c457600080fd5b80632f3a3d5d11620001515780633da8168211620001285780633da81682146200034d5780635a64a1da14620003835780635d5d326f146200044057600080fd5b80632f3a3d5d146200027d578063318aee3d14620002ac5780633ae05047146200033557600080fd5b80632b5e42e711620001865780632b5e42e7146200020c5780632c3f58cd14620002315780632dfdf0b5146200025657600080fd5b80630871e97114620001a457806322e95f2c14620001bd575b600080fd5b620001bb620001b536600462002f72565b6200063e565b005b348015620001ca57600080fd5b50620001e2620001dc3660046200302e565b62000714565b60405173ffffffffffffffffffffffffffffffffffffffff90911681526020015b60405180910390f35b3480156200021957600080fd5b50620001bb6200022b3660046200306a565b620007b7565b3480156200023e57600080fd5b50620001bb6200025036600462003084565b620007c6565b3480156200026357600080fd5b506200026e60415481565b60405190815260200162000203565b3480156200028a57600080fd5b50604754620001e29073ffffffffffffffffffffffffffffffffffffffff1681565b348015620002b957600080fd5b5062000303620002cb366004620030a2565b60456020526000908152604090205463ffffffff811690640100000000900473ffffffffffffffffffffffffffffffffffffffff1682565b6040805163ffffffff909316835273ffffffffffffffffffffffffffffffffffffffff90911660208301520162000203565b3480156200034257600080fd5b506200026e62000807565b3480156200035a57600080fd5b50620003726200036c366004620031c1565b620008e1565b604051901515815260200162000203565b3480156200039057600080fd5b506200026e620003a23660046200322f565b604080517fffffffff0000000000000000000000000000000000000000000000000000000060e098891b81166020808401919091527fffffffffffffffffffffffffffffffffffffffff0000000000000000000000006060998a1b811660248501529790991b1660388201529390951b909316603c830152605082015260708082019290925282518082039092018252609001909152805191012090565b3480156200044d57600080fd5b50620001bb6200045f36600462003347565b620009e1565b3480156200047257600080fd5b50620001bb62001490565b3480156200048a57600080fd5b50620001e26200049c3660046200306a565b60446020526000908152604090205473ffffffffffffffffffffffffffffffffffffffff1681565b348015620004d157600080fd5b50620001bb620004e33660046200302e565b620014a8565b348015620004f657600080fd5b50607a5473ffffffffffffffffffffffffffffffffffffffff16620001e2565b3480156200052357600080fd5b506200026e60ac5481565b3480156200053b57600080fd5b50620001e26200054d3660046200302e565b6200173c565b3480156200056057600080fd5b50604254620005729063ffffffff1681565b60405163ffffffff909116815260200162000203565b3480156200059557600080fd5b50604654620001e29073ffffffffffffffffffffffffffffffffffffffff1681565b620001bb620005c83660046200342e565b62001805565b348015620005db57600080fd5b5062000372620005ed3660046200306a565b60436020526000908152604090205460ff1681565b3480156200060f57600080fd5b5062000572600081565b3480156200062657600080fd5b50620001bb62000638366004620030a2565b62001a23565b60ac54341115620006fc576040517f08c379a000000000000000000000000000000000000000000000000000000000815260206004820152604a60248201527f4272696467653a3a6272696467653a2043616e6e6f7420627269646765206d6f60448201527f7265207468616e206d6178457468657242726964676520696e20696e7465726e60648201527f616c20746573746e657400000000000000000000000000000000000000000000608482015260a4015b60405180910390fd5b6200070c86868686868662001ae0565b505050505050565b6040805160e084901b7fffffffff0000000000000000000000000000000000000000000000000000000016602080830191909152606084901b7fffffffffffffffffffffffffffffffffffffffff000000000000000000000000166024830152825160188184030181526038909201835281519181019190912060009081526044909152205473ffffffffffffffffffffffffffffffffffffffff165b92915050565b620007c1620020c6565b60ac55565b620007d0620020c6565b604280547fffffffffffffffffffffffffffffffffffffffffffffffffffffffff000000001663ffffffff92909216919091179055565b6041546000908190815b6020811015620008d957816001166001036200087157600181602081106200083d576200083d62003496565b01546040805160208101929092528101849052606001604051602081830303815290604052805190602001209250620008b5565b826021826020811062000888576200088862003496565b01546040805160208101939093528201526060016040516020818303038152906040528051906020012092505b620008c2600283620034f4565b915080620008d08162003530565b91505062000811565b509092915050565b60008467ffffffffffffffff8416825b6020811015620009d457816001166001036200095e578681815181106200091c576200091c62003496565b60200260200101518360405160200162000940929190918252602082015260400190565b604051602081830303815290604052805190602001209250620009b0565b8287828151811062000974576200097462003496565b602002602001015160405160200162000997929190918252602082015260400190565b6040516020818303038152906040528051906020012092505b620009bd600283620034f4565b915080620009cb8162003530565b915050620008f1565b5050909114949350505050565b63ffffffff891660009081526043602052604090205460ff161562000a63576040517f08c379a000000000000000000000000000000000000000000000000000000000815260206004820152601e60248201527f4272696467653a3a636c61696d3a20414c52454144595f434c41494d454400006044820152606401620006f3565b6046546040805160208082018c90528183018b9052825180830384018152606083019384905280519101207f257b363200000000000000000000000000000000000000000000000000000000909252606481019190915273ffffffffffffffffffffffffffffffffffffffff9091169063257b3632906084016020604051808303816000875af115801562000afc573d6000803e3d6000fd5b505050506040513d601f19601f8201168201806040525081019062000b2291906200356b565b60000362000bb3576040517f08c379a000000000000000000000000000000000000000000000000000000000815260206004820152602e60248201527f4272696467653a3a636c61696d3a20474c4f42414c5f455849545f524f4f545f60448201527f444f45535f4e4f545f4d415443480000000000000000000000000000000000006064820152608401620006f3565b60425463ffffffff85811691161462000c4f576040517f08c379a000000000000000000000000000000000000000000000000000000000815260206004820152603160248201527f4272696467653a3a636c61696d3a2044455354494e4154494f4e5f4e4554574f60448201527f524b5f444f45535f4e4f545f4d415443480000000000000000000000000000006064820152608401620006f3565b60425463ffffffff1662000d80578051602080830191909120604080517fffffffff0000000000000000000000000000000000000000000000000000000060e08b811b8216838701527fffffffffffffffffffffffffffffffffffffffff00000000000000000000000060608c811b82166024860152918b901b909216603884015288901b16603c82015260508101869052607080820193909352815180820390930183526090019052805191012062000d12908b8b63ffffffff168a620008e1565b62000d7a576040517f08c379a000000000000000000000000000000000000000000000000000000000815260206004820152601a60248201527f4272696467653a3a636c61696d3a20534d545f494e56414c49440000000000006044820152606401620006f3565b62000e9d565b8051602080830191909120604080517fffffffff0000000000000000000000000000000000000000000000000000000060e08b811b8216838701527fffffffffffffffffffffffffffffffffffffffff00000000000000000000000060608c811b82166024860152918b901b909216603884015288901b16603c82015260508101869052607080820193909352815180820390930183526090019052805191012062000e35908b8b63ffffffff168b620008e1565b62000e9d576040517f08c379a000000000000000000000000000000000000000000000000000000000815260206004820152601a60248201527f4272696467653a3a636c61696d3a20534d545f494e56414c49440000000000006044820152606401620006f3565b63ffffffff8916600090815260436020526040902080547fffffffffffffffffffffffffffffffffffffffffffffffffffffffffffffff0016600117905573ffffffffffffffffffffffffffffffffffffffff85166200100e576040805160008082526020820190925273ffffffffffffffffffffffffffffffffffffffff851690849060405162000f309190620035b4565b60006040518083038185875af1925050503d806000811462000f6f576040519150601f19603f3d011682016040523d82523d6000602084013e62000f74565b606091505b505090508062001007576040517f08c379a000000000000000000000000000000000000000000000000000000000815260206004820152602260248201527f4272696467653a3a636c61696d3a204554485f5452414e534645525f4641494c60448201527f45440000000000000000000000000000000000000000000000000000000000006064820152608401620006f3565b5062001419565b60425463ffffffff908116908716036200104b576200104573ffffffffffffffffffffffffffffffffffffffff8616848462002149565b62001419565b6040517fffffffff0000000000000000000000000000000000000000000000000000000060e088901b1660208201527fffffffffffffffffffffffffffffffffffffffff000000000000000000000000606087901b166024820152600090603801604080517fffffffffffffffffffffffffffffffffffffffffffffffffffffffffffffffe081840301815291815281516020928301206000818152604490935291205490915073ffffffffffffffffffffffffffffffffffffffff16806200137857604754600090620011369073ffffffffffffffffffffffffffffffffffffffff16846200221f565b90506000806000868060200190518101906200115391906200362e565b9250925092508373ffffffffffffffffffffffffffffffffffffffff16636c9452218484848d8d6040518663ffffffff1660e01b81526004016200119c959493929190620036fb565b600060405180830381600087803b158015620011b757600080fd5b505af1158015620011cc573d6000803e3d6000fd5b50505050836044600088815260200190815260200160002060006101000a81548173ffffffffffffffffffffffffffffffffffffffff021916908373ffffffffffffffffffffffffffffffffffffffff16021790555060405180604001604052808d63ffffffff1681526020018c73ffffffffffffffffffffffffffffffffffffffff16815250604560008673ffffffffffffffffffffffffffffffffffffffff1673ffffffffffffffffffffffffffffffffffffffff16815260200190815260200160002060008201518160000160006101000a81548163ffffffff021916908363ffffffff16021790555060208201518160000160046101000a81548173ffffffffffffffffffffffffffffffffffffffff021916908373ffffffffffffffffffffffffffffffffffffffff1602179055509050507fccd7715648d1f2bb13e158f96b5b6c3aeda555d4cb87112e274a6f28bc571d598c8c86604051620013669392919063ffffffff93909316835273ffffffffffffffffffffffffffffffffffffffff918216602084015216604082015260600190565b60405180910390a15050505062001416565b6040517f40c10f1900000000000000000000000000000000000000000000000000000000815273ffffffffffffffffffffffffffffffffffffffff8681166004830152602482018690528216906340c10f19906044016020604051808303816000875af1158015620013ee573d6000803e3d6000fd5b505050506040513d601f19601f820116820180604052508101906200141491906200375b565b505b50505b6040805163ffffffff8b811682528816602082015273ffffffffffffffffffffffffffffffffffffffff87811682840152851660608201526080810184905290517f25308c93ceeed162da955b3f7ce3e3f93606579e40fb92029faa9efe275459839181900360a00190a150505050505050505050565b6200149a620020c6565b620014a66000620022ff565b565b600054610100900460ff1615808015620014c95750600054600160ff909116105b80620014e55750303b158015620014e5575060005460ff166001145b62001573576040517f08c379a000000000000000000000000000000000000000000000000000000000815260206004820152602e60248201527f496e697469616c697a61626c653a20636f6e747261637420697320616c72656160448201527f647920696e697469616c697a65640000000000000000000000000000000000006064820152608401620006f3565b600080547fffffffffffffffffffffffffffffffffffffffffffffffffffffffffffffff001660011790558015620015d257600080547fffffffffffffffffffffffffffffffffffffffffffffffffffffffffffff00ff166101001790555b604280547fffffffffffffffffffffffffffffffffffffffffffffffffffffffff000000001663ffffffff8516179055604680547fffffffffffffffffffffffff00000000000000000000000000000000000000001673ffffffffffffffffffffffffffffffffffffffff8416179055604051620016509062002f1a565b604051809103906000f0801580156200166d573d6000803e3d6000fd5b50604780547fffffffffffffffffffffffff00000000000000000000000000000000000000001673ffffffffffffffffffffffffffffffffffffffff92909216919091179055620016bd62002376565b620016c7620024bb565b6703782dace9d9000060ac5580156200173757600080547fffffffffffffffffffffffffffffffffffffffffffffffffffffffffffff00ff169055604051600181527f7f26b83ff96e1f2b6a682f133852f6798a09c465da95921460cefb38474024989060200160405180910390a15b505050565b6040517fffffffff0000000000000000000000000000000000000000000000000000000060e084901b1660208201527fffffffffffffffffffffffffffffffffffffffff000000000000000000000000606083901b1660248201526000908190603801604080517fffffffffffffffffffffffffffffffffffffffffffffffffffffffffffffffe08184030181529190528051602090910120604754909150620017fd9073ffffffffffffffffffffffffffffffffffffffff16826200255e565b949350505050565b60425463ffffffff90811690841603620018a2576040517f08c379a000000000000000000000000000000000000000000000000000000000815260206004820152602a60248201527f4272696467653a3a6272696467653a2044455354494e4154494f4e5f43414e5460448201527f5f42455f495453454c46000000000000000000000000000000000000000000006064820152608401620006f3565b6042546041546040517ff0b963192bdc6349c23af9bd17294b4c7b9b5a73a2a9939610ea18ffd1c5dc2a92620018ed9263ffffffff909116916000918891889134918991906200377f565b60405180910390a16042548151602080840191909120604080517fffffffff0000000000000000000000000000000000000000000000000000000060e095861b811682860152600060248301529488901b9094166038850152606086901b7fffffffffffffffffffffffffffffffffffffffff00000000000000000000000016603c8501523460508501526070808501929092528051808503909201825260909093019092528151910120620019a390620025e2565b60465473ffffffffffffffffffffffffffffffffffffffff166333d6247d620019cb62000807565b6040518263ffffffff1660e01b8152600401620019ea91815260200190565b600060405180830381600087803b15801562001a0557600080fd5b505af115801562001a1a573d6000803e3d6000fd5b50505050505050565b62001a2d620020c6565b73ffffffffffffffffffffffffffffffffffffffff811662001ad2576040517f08c379a000000000000000000000000000000000000000000000000000000000815260206004820152602660248201527f4f776e61626c653a206e6577206f776e657220697320746865207a65726f206160448201527f64647265737300000000000000000000000000000000000000000000000000006064820152608401620006f3565b62001add81620022ff565b50565b60425463ffffffff9081169086160362001b7d576040517f08c379a000000000000000000000000000000000000000000000000000000000815260206004820152602a60248201527f4272696467653a3a6272696467653a2044455354494e4154494f4e5f43414e5460448201527f5f42455f495453454c46000000000000000000000000000000000000000000006064820152608401620006f3565b600080606073ffffffffffffffffffffffffffffffffffffffff891662001c395785341462001c2f576040517f08c379a000000000000000000000000000000000000000000000000000000000815260206004820152602f60248201527f4272696467653a3a6272696467653a20414d4f554e545f444f45535f4e4f545f60448201527f4d415443485f4d53475f56414c554500000000000000000000000000000000006064820152608401620006f3565b6000915062001f4d565b73ffffffffffffffffffffffffffffffffffffffff808a1660009081526045602090815260409182902082518084019093525463ffffffff811683526401000000009004909216918101829052901562001d3a576040517f9dc29fac0000000000000000000000000000000000000000000000000000000081523360048201526024810188905273ffffffffffffffffffffffffffffffffffffffff8b1690639dc29fac906044016020604051808303816000875af115801562001d01573d6000803e3d6000fd5b505050506040513d601f19601f8201168201806040525081019062001d2791906200375b565b5060208101518151909450925062001f4b565b841562001d4f5762001d4f8a8888886200275b565b62001d7373ffffffffffffffffffffffffffffffffffffffff8b1633308a62002b86565b899350604260009054906101000a900463ffffffff1692508973ffffffffffffffffffffffffffffffffffffffff166306fdde036040518163ffffffff1660e01b8152600401600060405180830381865afa15801562001dd7573d6000803e3d6000fd5b505050506040513d6000823e601f3d9081017fffffffffffffffffffffffffffffffffffffffffffffffffffffffffffffffe016820160405262001e1f9190810190620037ec565b8a73ffffffffffffffffffffffffffffffffffffffff166395d89b416040518163ffffffff1660e01b8152600401600060405180830381865afa15801562001e6b573d6000803e3d6000fd5b505050506040513d6000823e601f3d9081017fffffffffffffffffffffffffffffffffffffffffffffffffffffffffffffffe016820160405262001eb39190810190620037ec565b8b73ffffffffffffffffffffffffffffffffffffffff1663313ce5676040518163ffffffff1660e01b8152600401602060405180830381865afa15801562001eff573d6000803e3d6000fd5b505050506040513d601f19601f8201168201806040525081019062001f25919062003825565b60405160200162001f399392919062003845565b60405160208183030381529060405291505b505b7ff0b963192bdc6349c23af9bd17294b4c7b9b5a73a2a9939610ea18ffd1c5dc2a82848a8a8a8660415460405162001f8c97969594939291906200377f565b60405180910390a18051602080830191909120604080517fffffffff0000000000000000000000000000000000000000000000000000000060e087811b8216838701527fffffffffffffffffffffffffffffffffffffffff00000000000000000000000060608a811b82166024860152918f901b90921660388401528c901b16603c820152605081018a905260708082019390935281518082039093018352609001905280519101206200204090620025e2565b60465473ffffffffffffffffffffffffffffffffffffffff166333d6247d6200206862000807565b6040518263ffffffff1660e01b81526004016200208791815260200190565b600060405180830381600087803b158015620020a257600080fd5b505af1158015620020b7573d6000803e3d6000fd5b50505050505050505050505050565b607a5473ffffffffffffffffffffffffffffffffffffffff163314620014a6576040517f08c379a000000000000000000000000000000000000000000000000000000000815260206004820181905260248201527f4f776e61626c653a2063616c6c6572206973206e6f7420746865206f776e65726044820152606401620006f3565b60405173ffffffffffffffffffffffffffffffffffffffff8316602482015260448101829052620017379084907fa9059cbb00000000000000000000000000000000000000000000000000000000906064015b604080517fffffffffffffffffffffffffffffffffffffffffffffffffffffffffffffffe08184030181529190526020810180517bffffffffffffffffffffffffffffffffffffffffffffffffffffffff167fffffffff000000000000000000000000000000000000000000000000000000009093169290921790915262002bec565b60006040517f3d602d80600a3d3981f3363d3d373d3d3d363d7300000000000000000000000081528360601b60148201527f5af43d82803e903d91602b57fd5bf300000000000000000000000000000000006028820152826037826000f591505073ffffffffffffffffffffffffffffffffffffffff8116620007b1576040517f08c379a000000000000000000000000000000000000000000000000000000000815260206004820152601760248201527f455243313136373a2063726561746532206661696c65640000000000000000006044820152606401620006f3565b607a805473ffffffffffffffffffffffffffffffffffffffff8381167fffffffffffffffffffffffff0000000000000000000000000000000000000000831681179093556040519116919082907f8be0079c531659141344cd1fd0a4f28419497f9722a3daafe3b4186f6b6457e090600090a35050565b600054610100900460ff166200240f576040517f08c379a000000000000000000000000000000000000000000000000000000000815260206004820152602b60248201527f496e697469616c697a61626c653a20636f6e7472616374206973206e6f74206960448201527f6e697469616c697a696e670000000000000000000000000000000000000000006064820152608401620006f3565b60005b620024206001602062003882565b81101562001add57602181602081106200243e576200243e62003496565b01546021826020811062002456576200245662003496565b01546040805160208101939093528201526060016040516020818303038152906040528051906020012060218260016200249191906200389c565b60208110620024a457620024a462003496565b015580620024b28162003530565b91505062002412565b600054610100900460ff1662002554576040517f08c379a000000000000000000000000000000000000000000000000000000000815260206004820152602b60248201527f496e697469616c697a61626c653a20636f6e7472616374206973206e6f74206960448201527f6e697469616c697a696e670000000000000000000000000000000000000000006064820152608401620006f3565b620014a662002cff565b6000620025db8383306040517f3d602d80600a3d3981f3363d3d373d3d3d363d730000000000000000000000008152606093841b60148201527f5af43d82803e903d91602b57fd5bf3ff000000000000000000000000000000006028820152921b6038830152604c8201526037808220606c830152605591012090565b9392505050565b806001620025f360206002620039f0565b620025ff919062003882565b6041541062002691576040517f08c379a000000000000000000000000000000000000000000000000000000000815260206004820152602a60248201527f4465706f736974436f6e74726163743a5f6465706f7369743a204d45524b4c4560448201527f5f545245455f46554c4c000000000000000000000000000000000000000000006064820152608401620006f3565b600160416000828254620026a691906200389c565b909155505060415460005b6020811015620027505781600116600103620026e6578260018260208110620026de57620026de62003496565b015550505050565b60018160208110620026fc57620026fc62003496565b01546040805160208101929092528101849052606001604051602081830303815290604052805190602001209250600282620027399190620034f4565b915080620027478162003530565b915050620026b1565b5062001737620039fe565b60006200279e83838080601f01602080910402602001604051908101604052809392919081815260200183838082843760009201919091525062002da392505050565b90507fffffffff0000000000000000000000000000000000000000000000000000000081167fd505accf00000000000000000000000000000000000000000000000000000000146200284d576040517f08c379a000000000000000000000000000000000000000000000000000000000815260206004820152601f60248201527f4272696467653a3a5f7065726d69743a204e4f545f56414c49445f43414c4c006044820152606401620006f3565b600080808080808062002864896004818d62003a2d565b81019062002873919062003a59565b96509650965096509650965096503373ffffffffffffffffffffffffffffffffffffffff168773ffffffffffffffffffffffffffffffffffffffff16146200293e576040517f08c379a000000000000000000000000000000000000000000000000000000000815260206004820152603060248201527f4272696467653a3a5f7065726d69743a205045524d49545f4f574e45525f4d5560448201527f53545f42455f5448455f53454e444552000000000000000000000000000000006064820152608401620006f3565b73ffffffffffffffffffffffffffffffffffffffff86163014620029e5576040517f08c379a000000000000000000000000000000000000000000000000000000000815260206004820152602560248201527f4272696467653a3a5f7065726d69743a205350454e4445525f4d5553545f424560448201527f5f544849530000000000000000000000000000000000000000000000000000006064820152608401620006f3565b8a851462002a76576040517f08c379a000000000000000000000000000000000000000000000000000000000815260206004820152602d60248201527f4272696467653a3a5f7065726d69743a205045524d49545f414d4f554e545f4460448201527f4f45535f4e4f545f4d41544348000000000000000000000000000000000000006064820152608401620006f3565b6040805173ffffffffffffffffffffffffffffffffffffffff89811660248301528881166044830152606482018890526084820187905260ff861660a483015260c4820185905260e48083018590528351808403909101815261010490920183526020820180517bffffffffffffffffffffffffffffffffffffffffffffffffffffffff167fd505accf000000000000000000000000000000000000000000000000000000001790529151918e169162002b319190620035b4565b6000604051808303816000865af19150503d806000811462002b70576040519150601f19603f3d011682016040523d82523d6000602084013e62002b75565b606091505b505050505050505050505050505050565b60405173ffffffffffffffffffffffffffffffffffffffff8085166024830152831660448201526064810182905262002be69085907f23b872dd00000000000000000000000000000000000000000000000000000000906084016200219c565b50505050565b600062002c50826040518060400160405280602081526020017f5361666545524332303a206c6f772d6c6576656c2063616c6c206661696c65648152508573ffffffffffffffffffffffffffffffffffffffff1662002daa9092919063ffffffff16565b80519091501562001737578080602001905181019062002c7191906200375b565b62001737576040517f08c379a000000000000000000000000000000000000000000000000000000000815260206004820152602a60248201527f5361666545524332303a204552433230206f7065726174696f6e20646964206e60448201527f6f742073756363656564000000000000000000000000000000000000000000006064820152608401620006f3565b600054610100900460ff1662002d98576040517f08c379a000000000000000000000000000000000000000000000000000000000815260206004820152602b60248201527f496e697469616c697a61626c653a20636f6e7472616374206973206e6f74206960448201527f6e697469616c697a696e670000000000000000000000000000000000000000006064820152608401620006f3565b620014a633620022ff565b6020015190565b6060620017fd84846000858573ffffffffffffffffffffffffffffffffffffffff85163b62002e36576040517f08c379a000000000000000000000000000000000000000000000000000000000815260206004820152601d60248201527f416464726573733a2063616c6c20746f206e6f6e2d636f6e74726163740000006044820152606401620006f3565b6000808673ffffffffffffffffffffffffffffffffffffffff16858760405162002e619190620035b4565b60006040518083038185875af1925050503d806000811462002ea0576040519150601f19603f3d011682016040523d82523d6000602084013e62002ea5565b606091505b509150915062002eb782828662002ec2565b979650505050505050565b6060831562002ed3575081620025db565b82511562002ee45782518084602001fd5b816040517f08c379a0000000000000000000000000000000000000000000000000000000008152600401620006f3919062003ad1565b6118298062003ae783390190565b73ffffffffffffffffffffffffffffffffffffffff8116811462001add57600080fd5b803562002f588162002f28565b919050565b803563ffffffff8116811462002f5857600080fd5b60008060008060008060a0878903121562002f8c57600080fd5b863562002f998162002f28565b955062002fa96020880162002f5d565b9450604087013562002fbb8162002f28565b935060608701359250608087013567ffffffffffffffff8082111562002fe057600080fd5b818901915089601f83011262002ff557600080fd5b8135818111156200300557600080fd5b8a60208285010111156200301857600080fd5b6020830194508093505050509295509295509295565b600080604083850312156200304257600080fd5b6200304d8362002f5d565b915060208301356200305f8162002f28565b809150509250929050565b6000602082840312156200307d57600080fd5b5035919050565b6000602082840312156200309757600080fd5b620025db8262002f5d565b600060208284031215620030b557600080fd5b8135620025db8162002f28565b7f4e487b7100000000000000000000000000000000000000000000000000000000600052604160045260246000fd5b604051601f82017fffffffffffffffffffffffffffffffffffffffffffffffffffffffffffffffe016810167ffffffffffffffff811182821017156200313b576200313b620030c2565b604052919050565b600082601f8301126200315557600080fd5b8135602067ffffffffffffffff821115620031745762003174620030c2565b8160051b62003185828201620030f1565b9283528481018201928281019087851115620031a057600080fd5b83870192505b8483101562002eb757823582529183019190830190620031a6565b60008060008060808587031215620031d857600080fd5b84359350602085013567ffffffffffffffff80821115620031f857600080fd5b620032068883890162003143565b94506040870135915080821682146200321e57600080fd5b509396929550929360600135925050565b60008060008060008060c087890312156200324957600080fd5b620032548762002f5d565b95506020870135620032668162002f28565b9450620032766040880162002f5d565b93506060870135620032888162002f28565b9598949750929560808101359460a0909101359350915050565b600067ffffffffffffffff821115620032bf57620032bf620030c2565b50601f017fffffffffffffffffffffffffffffffffffffffffffffffffffffffffffffffe01660200190565b600082601f830112620032fd57600080fd5b8135620033146200330e82620032a2565b620030f1565b8181528460208386010111156200332a57600080fd5b816020850160208301376000918101602001919091529392505050565b6000806000806000806000806000806101408b8d0312156200336857600080fd5b8a3567ffffffffffffffff808211156200338157600080fd5b6200338f8e838f0162003143565b9b506200339f60208e0162002f5d565b9a5060408d0135995060608d01359850620033bd60808e0162002f5d565b9750620033cd60a08e0162002f4b565b9650620033dd60c08e0162002f5d565b9550620033ed60e08e0162002f4b565b94506101008d013593506101208d01359150808211156200340d57600080fd5b506200341c8d828e01620032eb565b9150509295989b9194979a5092959850565b6000806000606084860312156200344457600080fd5b6200344f8462002f5d565b92506020840135620034618162002f28565b9150604084013567ffffffffffffffff8111156200347e57600080fd5b6200348c86828701620032eb565b9150509250925092565b7f4e487b7100000000000000000000000000000000000000000000000000000000600052603260045260246000fd5b7f4e487b7100000000000000000000000000000000000000000000000000000000600052601160045260246000fd5b6000826200352b577f4e487b7100000000000000000000000000000000000000000000000000000000600052601260045260246000fd5b500490565b60007fffffffffffffffffffffffffffffffffffffffffffffffffffffffffffffffff8203620035645762003564620034c5565b5060010190565b6000602082840312156200357e57600080fd5b5051919050565b60005b83811015620035a257818101518382015260200162003588565b8381111562002be65750506000910152565b60008251620035c881846020870162003585565b9190910192915050565b600082601f830112620035e457600080fd5b8151620035f56200330e82620032a2565b8181528460208386010111156200360b57600080fd5b620017fd82602083016020870162003585565b60ff8116811462001add57600080fd5b6000806000606084860312156200364457600080fd5b835167ffffffffffffffff808211156200365d57600080fd5b6200366b87838801620035d2565b945060208601519150808211156200368257600080fd5b506200369186828701620035d2565b9250506040840151620036a4816200361e565b809150509250925092565b60008151808452620036c981602086016020860162003585565b601f017fffffffffffffffffffffffffffffffffffffffffffffffffffffffffffffffe0169290920160200192915050565b60a0815260006200371060a0830188620036af565b8281036020840152620037248188620036af565b60ff969096166040840152505073ffffffffffffffffffffffffffffffffffffffff92909216606083015260809091015292915050565b6000602082840312156200376e57600080fd5b81518015158114620025db57600080fd5b600063ffffffff808a16835273ffffffffffffffffffffffffffffffffffffffff808a166020850152818916604085015280881660608501525085608084015260e060a0840152620037d560e0840186620036af565b915080841660c08401525098975050505050505050565b600060208284031215620037ff57600080fd5b815167ffffffffffffffff8111156200381757600080fd5b620017fd84828501620035d2565b6000602082840312156200383857600080fd5b8151620025db816200361e565b6060815260006200385a6060830186620036af565b82810360208401526200386e8186620036af565b91505060ff83166040830152949350505050565b600082821015620038975762003897620034c5565b500390565b60008219821115620038b257620038b2620034c5565b500190565b600181815b808511156200391657817fffffffffffffffffffffffffffffffffffffffffffffffffffffffffffffffff04821115620038fa57620038fa620034c5565b808516156200390857918102915b93841c9390800290620038bc565b509250929050565b6000826200392f57506001620007b1565b816200393e57506000620007b1565b8160018114620039575760028114620039625762003982565b6001915050620007b1565b60ff841115620039765762003976620034c5565b50506001821b620007b1565b5060208310610133831016604e8410600b8410161715620039a7575081810a620007b1565b620039b38383620038b7565b807fffffffffffffffffffffffffffffffffffffffffffffffffffffffffffffffff04821115620039e857620039e8620034c5565b029392505050565b6000620025db83836200391e565b7f4e487b7100000000000000000000000000000000000000000000000000000000600052600160045260246000fd5b6000808585111562003a3e57600080fd5b8386111562003a4c57600080fd5b5050820193919092039150565b600080600080600080600060e0888a03121562003a7557600080fd5b873562003a828162002f28565b9650602088013562003a948162002f28565b95506040880135945060608801359350608088013562003ab4816200361e565b9699959850939692959460a0840135945060c09093013592915050565b602081526000620025db6020830184620036af56fe60806040523480156200001157600080fd5b50600054610100900460ff1615808015620000335750600054600160ff909116105b8062000063575062000050306200013d60201b6200080a1760201c565b15801562000063575060005460ff166001145b620000cb5760405162461bcd60e51b815260206004820152602e60248201527f496e697469616c697a61626c653a20636f6e747261637420697320616c72656160448201526d191e481a5b9a5d1a585b1a5e995960921b606482015260840160405180910390fd5b6000805460ff191660011790558015620000ef576000805461ff0019166101001790555b801562000136576000805461ff0019169055604051600181527f7f26b83ff96e1f2b6a682f133852f6798a09c465da95921460cefb38474024989060200160405180910390a15b506200014c565b6001600160a01b03163b151590565b6116cd806200015c6000396000f3fe608060405234801561001057600080fd5b50600436106100f55760003560e01c80636c94522111610097578063a3c573eb11610066578063a3c573eb1461021c578063a457c2d714610261578063a9059cbb14610274578063dd62ed3e1461028757600080fd5b80636c945221146101b657806370a08231146101cb57806395d89b41146102015780639dc29fac1461020957600080fd5b806323b872dd116100d357806323b872dd1461014d578063313ce56714610160578063395093511461019057806340c10f19146101a357600080fd5b806306fdde03146100fa578063095ea7b31461011857806318160ddd1461013b575b600080fd5b6101026102cd565b60405161010f91906111c0565b60405180910390f35b61012b61012636600461125c565b61035f565b604051901515815260200161010f565b6035545b60405190815260200161010f565b61012b61015b366004611286565b610377565b60655474010000000000000000000000000000000000000000900460ff1660405160ff909116815260200161010f565b61012b61019e36600461125c565b61039b565b61012b6101b136600461125c565b6103e7565b6101c96101c436600461139c565b610483565b005b61013f6101d9366004611431565b73ffffffffffffffffffffffffffffffffffffffff1660009081526033602052604090205490565b61010261068e565b61012b61021736600461125c565b61069d565b60655461023c9073ffffffffffffffffffffffffffffffffffffffff1681565b60405173ffffffffffffffffffffffffffffffffffffffff909116815260200161010f565b61012b61026f36600461125c565b61072b565b61012b61028236600461125c565b6107fc565b61013f610295366004611453565b73ffffffffffffffffffffffffffffffffffffffff918216600090815260346020908152604080832093909416825291909152205490565b6060603680546102dc90611486565b80601f016020809104026020016040519081016040528092919081815260200182805461030890611486565b80156103555780601f1061032a57610100808354040283529160200191610355565b820191906000526020600020905b81548152906001019060200180831161033857829003601f168201915b5050505050905090565b60003361036d818585610826565b5060019392505050565b6000336103858582856109da565b610390858585610ab1565b506001949350505050565b33600081815260346020908152604080832073ffffffffffffffffffffffffffffffffffffffff8716845290915281205490919061036d90829086906103e2908790611508565b610826565b60655460009073ffffffffffffffffffffffffffffffffffffffff163314610470576040517f08c379a000000000000000000000000000000000000000000000000000000000815260206004820152601760248201527f546f6b656e577261707065643a4e4f545f42524944474500000000000000000060448201526064015b60405180910390fd5b61047a8383610d64565b50600192915050565b600054610100900460ff16158080156104a35750600054600160ff909116105b806104bd5750303b1580156104bd575060005460ff166001145b610549576040517f08c379a000000000000000000000000000000000000000000000000000000000815260206004820152602e60248201527f496e697469616c697a61626c653a20636f6e747261637420697320616c72656160448201527f647920696e697469616c697a65640000000000000000000000000000000000006064820152608401610467565b600080547fffffffffffffffffffffffffffffffffffffffffffffffffffffffffffffff0016600117905580156105a757600080547fffffffffffffffffffffffffffffffffffffffffffffffffffffffffffff00ff166101001790555b6105b18686610e85565b606580547fffffffffffffffffffffff00000000000000000000000000000000000000000016337fffffffffffffffffffffff00ffffffffffffffffffffffffffffffffffffffff16177401000000000000000000000000000000000000000060ff8716021790556106238383610d64565b801561068657600080547fffffffffffffffffffffffffffffffffffffffffffffffffffffffffffff00ff169055604051600181527f7f26b83ff96e1f2b6a682f133852f6798a09c465da95921460cefb38474024989060200160405180910390a15b505050505050565b6060603780546102dc90611486565b60655460009073ffffffffffffffffffffffffffffffffffffffff163314610721576040517f08c379a000000000000000000000000000000000000000000000000000000000815260206004820152601760248201527f546f6b656e577261707065643a4e4f545f4252494447450000000000000000006044820152606401610467565b61047a8383610f26565b33600081815260346020908152604080832073ffffffffffffffffffffffffffffffffffffffff87168452909152812054909190838110156107ef576040517f08c379a000000000000000000000000000000000000000000000000000000000815260206004820152602560248201527f45524332303a2064656372656173656420616c6c6f77616e63652062656c6f7760448201527f207a65726f0000000000000000000000000000000000000000000000000000006064820152608401610467565b6103908286868403610826565b60003361036d818585610ab1565b73ffffffffffffffffffffffffffffffffffffffff163b151590565b73ffffffffffffffffffffffffffffffffffffffff83166108c8576040517f08c379a0000000000000000000000000000000000000000000000000000000008152602060048201526024808201527f45524332303a20617070726f76652066726f6d20746865207a65726f2061646460448201527f72657373000000000000000000000000000000000000000000000000000000006064820152608401610467565b73ffffffffffffffffffffffffffffffffffffffff821661096b576040517f08c379a000000000000000000000000000000000000000000000000000000000815260206004820152602260248201527f45524332303a20617070726f766520746f20746865207a65726f20616464726560448201527f73730000000000000000000000000000000000000000000000000000000000006064820152608401610467565b73ffffffffffffffffffffffffffffffffffffffff83811660008181526034602090815260408083209487168084529482529182902085905590518481527f8c5be1e5ebec7d5bd14f71427d1e84f3dd0314c0f7b2291e5b200ac8c7c3b92591015b60405180910390a3505050565b73ffffffffffffffffffffffffffffffffffffffff8381166000908152603460209081526040808320938616835292905220547fffffffffffffffffffffffffffffffffffffffffffffffffffffffffffffffff8114610aab5781811015610a9e576040517f08c379a000000000000000000000000000000000000000000000000000000000815260206004820152601d60248201527f45524332303a20696e73756666696369656e7420616c6c6f77616e63650000006044820152606401610467565b610aab8484848403610826565b50505050565b73ffffffffffffffffffffffffffffffffffffffff8316610b54576040517f08c379a000000000000000000000000000000000000000000000000000000000815260206004820152602560248201527f45524332303a207472616e736665722066726f6d20746865207a65726f20616460448201527f64726573730000000000000000000000000000000000000000000000000000006064820152608401610467565b73ffffffffffffffffffffffffffffffffffffffff8216610bf7576040517f08c379a000000000000000000000000000000000000000000000000000000000815260206004820152602360248201527f45524332303a207472616e7366657220746f20746865207a65726f206164647260448201527f65737300000000000000000000000000000000000000000000000000000000006064820152608401610467565b73ffffffffffffffffffffffffffffffffffffffff831660009081526033602052604090205481811015610cad576040517f08c379a000000000000000000000000000000000000000000000000000000000815260206004820152602660248201527f45524332303a207472616e7366657220616d6f756e742065786365656473206260448201527f616c616e636500000000000000000000000000000000000000000000000000006064820152608401610467565b73ffffffffffffffffffffffffffffffffffffffff808516600090815260336020526040808220858503905591851681529081208054849290610cf1908490611508565b925050819055508273ffffffffffffffffffffffffffffffffffffffff168473ffffffffffffffffffffffffffffffffffffffff167fddf252ad1be2c89b69c2b068fc378daa952ba7f163c4a11628f55a4df523b3ef84604051610d5791815260200190565b60405180910390a3610aab565b73ffffffffffffffffffffffffffffffffffffffff8216610de1576040517f08c379a000000000000000000000000000000000000000000000000000000000815260206004820152601f60248201527f45524332303a206d696e7420746f20746865207a65726f2061646472657373006044820152606401610467565b8060356000828254610df39190611508565b909155505073ffffffffffffffffffffffffffffffffffffffff821660009081526033602052604081208054839290610e2d908490611508565b909155505060405181815273ffffffffffffffffffffffffffffffffffffffff8316906000907fddf252ad1be2c89b69c2b068fc378daa952ba7f163c4a11628f55a4df523b3ef9060200160405180910390a35b5050565b600054610100900460ff16610f1c576040517f08c379a000000000000000000000000000000000000000000000000000000000815260206004820152602b60248201527f496e697469616c697a61626c653a20636f6e7472616374206973206e6f74206960448201527f6e697469616c697a696e670000000000000000000000000000000000000000006064820152608401610467565b610e818282611110565b73ffffffffffffffffffffffffffffffffffffffff8216610fc9576040517f08c379a000000000000000000000000000000000000000000000000000000000815260206004820152602160248201527f45524332303a206275726e2066726f6d20746865207a65726f2061646472657360448201527f73000000000000000000000000000000000000000000000000000000000000006064820152608401610467565b73ffffffffffffffffffffffffffffffffffffffff82166000908152603360205260409020548181101561107f576040517f08c379a000000000000000000000000000000000000000000000000000000000815260206004820152602260248201527f45524332303a206275726e20616d6f756e7420657863656564732062616c616e60448201527f63650000000000000000000000000000000000000000000000000000000000006064820152608401610467565b73ffffffffffffffffffffffffffffffffffffffff831660009081526033602052604081208383039055603580548492906110bb908490611520565b909155505060405182815260009073ffffffffffffffffffffffffffffffffffffffff8516907fddf252ad1be2c89b69c2b068fc378daa952ba7f163c4a11628f55a4df523b3ef906020016109cd565b505050565b600054610100900460ff166111a7576040517f08c379a000000000000000000000000000000000000000000000000000000000815260206004820152602b60248201527f496e697469616c697a61626c653a20636f6e7472616374206973206e6f74206960448201527f6e697469616c697a696e670000000000000000000000000000000000000000006064820152608401610467565b60366111b3838261157d565b50603761110b828261157d565b600060208083528351808285015260005b818110156111ed578581018301518582016040015282016111d1565b818111156111ff576000604083870101525b50601f017fffffffffffffffffffffffffffffffffffffffffffffffffffffffffffffffe016929092016040019392505050565b803573ffffffffffffffffffffffffffffffffffffffff8116811461125757600080fd5b919050565b6000806040838503121561126f57600080fd5b61127883611233565b946020939093013593505050565b60008060006060848603121561129b57600080fd5b6112a484611233565b92506112b260208501611233565b9150604084013590509250925092565b7f4e487b7100000000000000000000000000000000000000000000000000000000600052604160045260246000fd5b600082601f83011261130257600080fd5b813567ffffffffffffffff8082111561131d5761131d6112c2565b604051601f83017fffffffffffffffffffffffffffffffffffffffffffffffffffffffffffffffe0908116603f01168101908282118183101715611363576113636112c2565b8160405283815286602085880101111561137c57600080fd5b836020870160208301376000602085830101528094505050505092915050565b600080600080600060a086880312156113b457600080fd5b853567ffffffffffffffff808211156113cc57600080fd5b6113d889838a016112f1565b965060208801359150808211156113ee57600080fd5b506113fb888289016112f1565b945050604086013560ff8116811461141257600080fd5b925061142060608701611233565b949793965091946080013592915050565b60006020828403121561144357600080fd5b61144c82611233565b9392505050565b6000806040838503121561146657600080fd5b61146f83611233565b915061147d60208401611233565b90509250929050565b600181811c9082168061149a57607f821691505b6020821081036114d3577f4e487b7100000000000000000000000000000000000000000000000000000000600052602260045260246000fd5b50919050565b7f4e487b7100000000000000000000000000000000000000000000000000000000600052601160045260246000fd5b6000821982111561151b5761151b6114d9565b500190565b600082821015611532576115326114d9565b500390565b601f82111561110b57600081815260208120601f850160051c8101602086101561155e5750805b601f850160051c820191505b818110156106865782815560010161156a565b815167ffffffffffffffff811115611597576115976112c2565b6115ab816115a58454611486565b84611537565b602080601f8311600181146115fe57600084156115c85750858301515b7fffffffffffffffffffffffffffffffffffffffffffffffffffffffffffffffff600386901b1c1916600185901b178555610686565b6000858152602081207fffffffffffffffffffffffffffffffffffffffffffffffffffffffffffffffe08616915b8281101561164b5788860151825594840194600190910190840161162c565b508582101561168757878501517fffffffffffffffffffffffffffffffffffffffffffffffffffffffffffffffff600388901b60f8161c191681555b5050505050600190811b0190555056fea264697066735822122015dd8047eba7f7221e0d7792549e5a01ba1b6dfaad0c6a70dc82ef386e0c5cc464736f6c634300080f0033a264697066735822122018a37fb7657d795b029895949cfa8dd126ff1167bb157748993bdbcfe0285e3b64736f6c634300080f0033",
  "linkReferences": {},
  "deployedLinkReferences": {}
}