{
  "_format": "hh-sol-artifact-1",
  "contractName": "Bridge",
  "sourceName": "contracts/Bridge.sol",
  "abi": [
    {
      "anonymous": false,
      "inputs": [
        {
          "indexed": false,
          "internalType": "uint8",
          "name": "leafType",
          "type": "uint8"
        },
        {
          "indexed": false,
          "internalType": "uint32",
          "name": "originNetwork",
          "type": "uint32"
        },
        {
          "indexed": false,
          "internalType": "address",
          "name": "originAddress",
          "type": "address"
        },
        {
          "indexed": false,
          "internalType": "uint32",
          "name": "destinationNetwork",
          "type": "uint32"
        },
        {
          "indexed": false,
          "internalType": "address",
          "name": "destinationAddress",
          "type": "address"
        },
        {
          "indexed": false,
          "internalType": "uint256",
          "name": "amount",
          "type": "uint256"
        },
        {
          "indexed": false,
          "internalType": "bytes",
          "name": "metadata",
          "type": "bytes"
        },
        {
          "indexed": false,
          "internalType": "uint32",
          "name": "depositCount",
          "type": "uint32"
        }
      ],
      "name": "BridgeEvent",
      "type": "event"
    },
    {
      "anonymous": false,
      "inputs": [
        {
          "indexed": false,
          "internalType": "uint32",
          "name": "index",
          "type": "uint32"
        },
        {
          "indexed": false,
          "internalType": "uint32",
          "name": "originNetwork",
          "type": "uint32"
        },
        {
          "indexed": false,
          "internalType": "address",
          "name": "originAddress",
          "type": "address"
        },
        {
          "indexed": false,
          "internalType": "address",
          "name": "destinationAddress",
          "type": "address"
        },
        {
          "indexed": false,
          "internalType": "uint256",
          "name": "amount",
          "type": "uint256"
        }
      ],
      "name": "ClaimEvent",
      "type": "event"
    },
    {
      "anonymous": false,
      "inputs": [
        {
          "indexed": false,
          "internalType": "uint8",
          "name": "version",
          "type": "uint8"
        }
      ],
      "name": "Initialized",
      "type": "event"
    },
    {
      "anonymous": false,
      "inputs": [
        {
          "indexed": false,
          "internalType": "uint32",
          "name": "originNetwork",
          "type": "uint32"
        },
        {
          "indexed": false,
          "internalType": "address",
          "name": "originTokenAddress",
          "type": "address"
        },
        {
          "indexed": false,
          "internalType": "address",
          "name": "wrappedTokenAddress",
          "type": "address"
        }
      ],
      "name": "NewWrappedToken",
      "type": "event"
    },
    {
      "inputs": [],
      "name": "LEAF_TYPE_ASSET",
      "outputs": [
        {
          "internalType": "uint8",
          "name": "",
          "type": "uint8"
        }
      ],
      "stateMutability": "view",
      "type": "function"
    },
    {
      "inputs": [],
      "name": "LEAF_TYPE_MESSAGE",
      "outputs": [
        {
          "internalType": "uint8",
          "name": "",
          "type": "uint8"
        }
      ],
      "stateMutability": "view",
      "type": "function"
    },
    {
      "inputs": [],
      "name": "MAINNET_NETWORK_ID",
      "outputs": [
        {
          "internalType": "uint32",
          "name": "",
          "type": "uint32"
        }
      ],
      "stateMutability": "view",
      "type": "function"
    },
    {
      "inputs": [
        {
          "internalType": "address",
          "name": "token",
          "type": "address"
        },
        {
          "internalType": "uint32",
          "name": "destinationNetwork",
          "type": "uint32"
        },
        {
          "internalType": "address",
          "name": "destinationAddress",
          "type": "address"
        },
        {
          "internalType": "uint256",
          "name": "amount",
          "type": "uint256"
        },
        {
          "internalType": "bytes",
          "name": "permitData",
          "type": "bytes"
        }
      ],
      "name": "bridgeAsset",
      "outputs": [],
      "stateMutability": "payable",
      "type": "function"
    },
    {
      "inputs": [
        {
          "internalType": "uint32",
          "name": "destinationNetwork",
          "type": "uint32"
        },
        {
          "internalType": "address",
          "name": "destinationAddress",
          "type": "address"
        },
        {
          "internalType": "bytes",
          "name": "metadata",
          "type": "bytes"
        }
      ],
      "name": "bridgeMessage",
      "outputs": [],
      "stateMutability": "payable",
      "type": "function"
    },
    {
      "inputs": [
        {
          "internalType": "bytes32[]",
          "name": "smtProof",
          "type": "bytes32[]"
        },
        {
          "internalType": "uint32",
          "name": "index",
          "type": "uint32"
        },
        {
          "internalType": "bytes32",
          "name": "mainnetExitRoot",
          "type": "bytes32"
        },
        {
          "internalType": "bytes32",
          "name": "rollupExitRoot",
          "type": "bytes32"
        },
        {
          "internalType": "uint32",
          "name": "originNetwork",
          "type": "uint32"
        },
        {
          "internalType": "address",
          "name": "originTokenAddress",
          "type": "address"
        },
        {
          "internalType": "uint32",
          "name": "destinationNetwork",
          "type": "uint32"
        },
        {
          "internalType": "address",
          "name": "destinationAddress",
          "type": "address"
        },
        {
          "internalType": "uint256",
          "name": "amount",
          "type": "uint256"
        },
        {
          "internalType": "bytes",
          "name": "metadata",
          "type": "bytes"
        }
      ],
      "name": "claimAsset",
      "outputs": [],
      "stateMutability": "nonpayable",
      "type": "function"
    },
    {
      "inputs": [
        {
          "internalType": "bytes32[]",
          "name": "smtProof",
          "type": "bytes32[]"
        },
        {
          "internalType": "uint32",
          "name": "index",
          "type": "uint32"
        },
        {
          "internalType": "bytes32",
          "name": "mainnetExitRoot",
          "type": "bytes32"
        },
        {
          "internalType": "bytes32",
          "name": "rollupExitRoot",
          "type": "bytes32"
        },
        {
          "internalType": "uint32",
          "name": "originNetwork",
          "type": "uint32"
        },
        {
          "internalType": "address",
          "name": "originAddress",
          "type": "address"
        },
        {
          "internalType": "uint32",
          "name": "destinationNetwork",
          "type": "uint32"
        },
        {
          "internalType": "address",
          "name": "destinationAddress",
          "type": "address"
        },
        {
          "internalType": "uint256",
          "name": "amount",
          "type": "uint256"
        },
        {
          "internalType": "bytes",
          "name": "metadata",
          "type": "bytes"
        }
      ],
      "name": "claimMessage",
      "outputs": [],
      "stateMutability": "nonpayable",
      "type": "function"
    },
    {
      "inputs": [
        {
          "internalType": "uint256",
          "name": "",
          "type": "uint256"
        }
      ],
      "name": "claimNullifier",
      "outputs": [
        {
          "internalType": "bool",
          "name": "",
          "type": "bool"
        }
      ],
      "stateMutability": "view",
      "type": "function"
    },
    {
      "inputs": [],
      "name": "depositCount",
      "outputs": [
        {
          "internalType": "uint256",
          "name": "",
          "type": "uint256"
        }
      ],
      "stateMutability": "view",
      "type": "function"
    },
    {
      "inputs": [],
      "name": "getDepositRoot",
      "outputs": [
        {
          "internalType": "bytes32",
          "name": "",
          "type": "bytes32"
        }
      ],
      "stateMutability": "view",
      "type": "function"
    },
    {
      "inputs": [
        {
          "internalType": "uint8",
          "name": "leafType",
          "type": "uint8"
        },
        {
          "internalType": "uint32",
          "name": "originNetwork",
          "type": "uint32"
        },
        {
          "internalType": "address",
          "name": "originAddress",
          "type": "address"
        },
        {
          "internalType": "uint32",
          "name": "destinationNetwork",
          "type": "uint32"
        },
        {
          "internalType": "address",
          "name": "destinationAddress",
          "type": "address"
        },
        {
          "internalType": "uint256",
          "name": "amount",
          "type": "uint256"
        },
        {
          "internalType": "bytes32",
          "name": "metadataHash",
          "type": "bytes32"
        }
      ],
      "name": "getLeafValue",
      "outputs": [
        {
          "internalType": "bytes32",
          "name": "",
          "type": "bytes32"
        }
      ],
      "stateMutability": "pure",
      "type": "function"
    },
    {
      "inputs": [
        {
          "internalType": "uint32",
          "name": "originNetwork",
          "type": "uint32"
        },
        {
          "internalType": "address",
          "name": "originTokenAddress",
          "type": "address"
        }
      ],
      "name": "getTokenWrappedAddress",
      "outputs": [
        {
          "internalType": "address",
          "name": "",
          "type": "address"
        }
      ],
      "stateMutability": "view",
      "type": "function"
    },
    {
      "inputs": [],
      "name": "globalExitRootManager",
      "outputs": [
        {
          "internalType": "contract IGlobalExitRootManager",
          "name": "",
          "type": "address"
        }
      ],
      "stateMutability": "view",
      "type": "function"
    },
    {
      "inputs": [
        {
          "internalType": "uint32",
          "name": "_networkID",
          "type": "uint32"
        },
        {
          "internalType": "contract IGlobalExitRootManager",
          "name": "_globalExitRootManager",
          "type": "address"
        }
      ],
      "name": "initialize",
      "outputs": [],
      "stateMutability": "nonpayable",
      "type": "function"
    },
    {
      "inputs": [],
      "name": "networkID",
      "outputs": [
        {
          "internalType": "uint32",
          "name": "",
          "type": "uint32"
        }
      ],
      "stateMutability": "view",
      "type": "function"
    },
    {
      "inputs": [
        {
          "internalType": "uint32",
          "name": "originNetwork",
          "type": "uint32"
        },
        {
          "internalType": "address",
          "name": "originTokenAddress",
          "type": "address"
        }
      ],
      "name": "precalculatedWrapperAddress",
      "outputs": [
        {
          "internalType": "address",
          "name": "",
          "type": "address"
        }
      ],
      "stateMutability": "view",
      "type": "function"
    },
    {
      "inputs": [],
      "name": "tokenImplementation",
      "outputs": [
        {
          "internalType": "address",
          "name": "",
          "type": "address"
        }
      ],
      "stateMutability": "view",
      "type": "function"
    },
    {
      "inputs": [
        {
          "internalType": "bytes32",
          "name": "",
          "type": "bytes32"
        }
      ],
      "name": "tokenInfoToWrappedToken",
      "outputs": [
        {
          "internalType": "address",
          "name": "",
          "type": "address"
        }
      ],
      "stateMutability": "view",
      "type": "function"
    },
    {
      "inputs": [
        {
          "internalType": "bytes32",
          "name": "leafHash",
          "type": "bytes32"
        },
        {
          "internalType": "bytes32[]",
          "name": "smtProof",
          "type": "bytes32[]"
        },
        {
          "internalType": "uint64",
          "name": "index",
          "type": "uint64"
        },
        {
          "internalType": "bytes32",
          "name": "root",
          "type": "bytes32"
        }
      ],
      "name": "verifyMerkleProof",
      "outputs": [
        {
          "internalType": "bool",
          "name": "",
          "type": "bool"
        }
      ],
      "stateMutability": "pure",
      "type": "function"
    },
    {
      "inputs": [
        {
          "internalType": "address",
          "name": "",
          "type": "address"
        }
      ],
      "name": "wrappedTokenToTokenInfo",
      "outputs": [
        {
          "internalType": "uint32",
          "name": "originNetwork",
          "type": "uint32"
        },
        {
          "internalType": "address",
          "name": "originTokenAddress",
          "type": "address"
        }
      ],
      "stateMutability": "view",
      "type": "function"
    }
  ],
  "bytecode": "0x608060405234801561001057600080fd5b50615954806100206000396000f3fe6080604052600436106200017b5760003560e01c806381b1c17411620000cf578063d02103ca116200007d578063e73758811162000060578063e73758811462000589578063ed6be5c914620005bd578063ff634ed714620005d457600080fd5b8063d02103ca1462000543578063d96a15f7146200057257600080fd5b8063a08e8a0811620000b2578063a08e8a0814620004bf578063b7e6a7d414620004e9578063bab161bf146200050e57600080fd5b806381b1c17414620004535780638624c35c146200049a57600080fd5b80633ae05047116200012d5780633e19704311620001105780633e19704314620003155780634638554914620004095780637b6323c1146200042e57600080fd5b80633ae0504714620002c75780633da8168214620002df57600080fd5b80632dfdf0b511620001625780632dfdf0b514620001e85780632f3a3d5d146200020f578063318aee3d146200023e57600080fd5b80630871e971146200018057806322e95f2c1462000199575b600080fd5b6200019762000191366004620034bc565b620005eb565b005b348015620001a657600080fd5b50620001be620001b836600462003578565b62000bdf565b60405173ffffffffffffffffffffffffffffffffffffffff90911681526020015b60405180910390f35b348015620001f557600080fd5b506200020060215481565b604051908152602001620001df565b3480156200021c57600080fd5b50602754620001be9073ffffffffffffffffffffffffffffffffffffffff1681565b3480156200024b57600080fd5b50620002956200025d366004620035b4565b60256020526000908152604090205463ffffffff811690640100000000900473ffffffffffffffffffffffffffffffffffffffff1682565b6040805163ffffffff909316835273ffffffffffffffffffffffffffffffffffffffff909116602083015201620001df565b348015620002d457600080fd5b506200020062000cb1565b348015620002ec57600080fd5b5062000304620002fe366004620036d3565b62000da4565b6040519015158152602001620001df565b3480156200032257600080fd5b50620002006200033436600462003751565b6040517fff0000000000000000000000000000000000000000000000000000000000000060f889901b1660208201527fffffffff0000000000000000000000000000000000000000000000000000000060e088811b821660218401527fffffffffffffffffffffffffffffffffffffffff000000000000000000000000606089811b821660258601529188901b909216603984015285901b16603d8201526051810183905260718101829052600090609101604051602081830303815290604052805190602001209050979650505050505050565b3480156200041657600080fd5b50620001976200042836600462003880565b62000ea4565b3480156200043b57600080fd5b50620001976200044d36600462003880565b6200165f565b3480156200046057600080fd5b50620001be6200047236600462003967565b60246020526000908152604090205473ffffffffffffffffffffffffffffffffffffffff1681565b348015620004a757600080fd5b5062000197620004b936600462003578565b6200210a565b348015620004cc57600080fd5b50620004d6600081565b60405160ff9091168152602001620001df565b348015620004f657600080fd5b50620001be6200050836600462003578565b6200237e565b3480156200051b57600080fd5b506022546200052d9063ffffffff1681565b60405163ffffffff9091168152602001620001df565b3480156200055057600080fd5b50602654620001be9073ffffffffffffffffffffffffffffffffffffffff1681565b620001976200058336600462003981565b62002447565b3480156200059657600080fd5b5062000304620005a836600462003967565b60236020526000908152604090205460ff1681565b348015620005ca57600080fd5b506200052d600081565b348015620005e157600080fd5b50620004d6600181565b60225463ffffffff908116908616036200068c576040517f08c379a000000000000000000000000000000000000000000000000000000000815260206004820152602a60248201527f4272696467653a3a6272696467653a2044455354494e4154494f4e5f43414e5460448201527f5f42455f495453454c460000000000000000000000000000000000000000000060648201526084015b60405180910390fd5b600080606073ffffffffffffffffffffffffffffffffffffffff891662000748578534146200073e576040517f08c379a000000000000000000000000000000000000000000000000000000000815260206004820152602f60248201527f4272696467653a3a6272696467653a20414d4f554e545f444f45535f4e4f545f60448201527f4d415443485f4d53475f56414c55450000000000000000000000000000000000606482015260840162000683565b6000915062000a5c565b73ffffffffffffffffffffffffffffffffffffffff808a1660009081526025602090815260409182902082518084019093525463ffffffff811683526401000000009004909216918101829052901562000849576040517f9dc29fac0000000000000000000000000000000000000000000000000000000081523360048201526024810188905273ffffffffffffffffffffffffffffffffffffffff8b1690639dc29fac906044016020604051808303816000875af115801562000810573d6000803e3d6000fd5b505050506040513d601f19601f82011682018060405250810190620008369190620039f8565b5060208101518151909450925062000a5a565b84156200085e576200085e8a88888862002694565b6200088273ffffffffffffffffffffffffffffffffffffffff8b1633308a62002dbe565b899350602260009054906101000a900463ffffffff1692508973ffffffffffffffffffffffffffffffffffffffff166306fdde036040518163ffffffff1660e01b8152600401600060405180830381865afa158015620008e6573d6000803e3d6000fd5b505050506040513d6000823e601f3d9081017fffffffffffffffffffffffffffffffffffffffffffffffffffffffffffffffe01682016040526200092e919081019062003a93565b8a73ffffffffffffffffffffffffffffffffffffffff166395d89b416040518163ffffffff1660e01b8152600401600060405180830381865afa1580156200097a573d6000803e3d6000fd5b505050506040513d6000823e601f3d9081017fffffffffffffffffffffffffffffffffffffffffffffffffffffffffffffffe0168201604052620009c2919081019062003a93565b8b73ffffffffffffffffffffffffffffffffffffffff1663313ce5676040518163ffffffff1660e01b8152600401602060405180830381865afa15801562000a0e573d6000803e3d6000fd5b505050506040513d601f19601f8201168201806040525081019062000a34919062003acc565b60405160200162000a489392919062003b38565b60405160208183030381529060405291505b505b7f501781209a1f8899323b96b4ef08b168df93e0a90c673d1e4cce39366cb62f9b600083858b8b8b8760215460405162000a9e98979695949392919062003b75565b60405180910390a18051602080830191909120604080516000818501527fffffffff0000000000000000000000000000000000000000000000000000000060e087811b821660218401527fffffffffffffffffffffffffffffffffffffffff00000000000000000000000060608a811b82166025860152918f901b90921660398401528c901b16603d820152605181018a9052607180820193909352815180820390930183526091019052805191012062000b599062002ea2565b60265473ffffffffffffffffffffffffffffffffffffffff166333d6247d62000b8162000cb1565b6040518263ffffffff1660e01b815260040162000ba091815260200190565b600060405180830381600087803b15801562000bbb57600080fd5b505af115801562000bd0573d6000803e3d6000fd5b50505050505050505050505050565b600060246000848460405160200162000c4e92919060e09290921b7fffffffff0000000000000000000000000000000000000000000000000000000016825260601b7fffffffffffffffffffffffffffffffffffffffff00000000000000000000000016600482015260180190565b604080517fffffffffffffffffffffffffffffffffffffffffffffffffffffffffffffffe08184030181529181528151602092830120835290820192909252016000205473ffffffffffffffffffffffffffffffffffffffff1690505b92915050565b602154600090819081805b602081101562000d9b578260011660010362000d1c576001816020811062000ce85762000ce862003bee565b0154604080516020810192909252810185905260600160405160208183030381529060405280519060200120935062000d49565b60408051602081018690529081018390526060016040516020818303038152906040528051906020012093505b62000d5660028462003c4c565b6040805160208101859052908101849052909350606001604051602081830303815290604052805190602001209150808062000d929062003c88565b91505062000cbc565b50919392505050565b60008467ffffffffffffffff8416825b602081101562000e97578160011660010362000e215786818151811062000ddf5762000ddf62003bee565b60200260200101518360405160200162000e03929190918252602082015260400190565b60405160208183030381529060405280519060200120925062000e73565b8287828151811062000e375762000e3762003bee565b602002602001015160405160200162000e5a929190918252602082015260400190565b6040516020818303038152906040528051906020012092505b62000e8060028362003c4c565b91508062000e8e8162003c88565b91505062000db4565b5050909114949350505050565b63ffffffff891660009081526023602052604090205460ff161562000f4c576040517f08c379a000000000000000000000000000000000000000000000000000000000815260206004820152602560248201527f4272696467653a3a636c61696d4d6573736167653a20414c52454144595f434c60448201527f41494d4544000000000000000000000000000000000000000000000000000000606482015260840162000683565b6026546040805160208082018c90528183018b9052825180830384018152606083019384905280519101207f257b363200000000000000000000000000000000000000000000000000000000909252606481019190915273ffffffffffffffffffffffffffffffffffffffff9091169063257b3632906084016020604051808303816000875af115801562000fe5573d6000803e3d6000fd5b505050506040513d601f19601f820116820180604052508101906200100b919062003cc3565b6000036200109c576040517f08c379a000000000000000000000000000000000000000000000000000000000815260206004820152603560248201527f4272696467653a3a636c61696d4d6573736167653a20474c4f42414c5f45584960448201527f545f524f4f545f444f45535f4e4f545f4d415443480000000000000000000000606482015260840162000683565b60225463ffffffff85811691161462001138576040517f08c379a000000000000000000000000000000000000000000000000000000000815260206004820152603860248201527f4272696467653a3a636c61696d4d6573736167653a2044455354494e4154494f60448201527f4e5f4e4554574f524b5f444f45535f4e4f545f4d415443480000000000000000606482015260840162000683565b60225463ffffffff16620012b6578051602080830191909120604080517f0100000000000000000000000000000000000000000000000000000000000000818501527fffffffff0000000000000000000000000000000000000000000000000000000060e08b811b821660218401527fffffffffffffffffffffffffffffffffffffffff00000000000000000000000060608c811b82166025860152918b901b909216603984015288901b16603d82015260518101869052607180820193909352815180820390930183526091019052805191012062001222905b8b8b63ffffffff168a62000da4565b620012b0576040517f08c379a000000000000000000000000000000000000000000000000000000000815260206004820152602160248201527f4272696467653a3a636c61696d4d6573736167653a20534d545f494e56414c4960448201527f4400000000000000000000000000000000000000000000000000000000000000606482015260840162000683565b62001420565b8051602080830191909120604080517f0100000000000000000000000000000000000000000000000000000000000000818501527fffffffff0000000000000000000000000000000000000000000000000000000060e08b811b821660218401527fffffffffffffffffffffffffffffffffffffffff00000000000000000000000060608c811b82166025860152918b901b909216603984015288901b16603d82015260518101869052607180820193909352815180820390930183526091019052805191012062001392905b8b8b63ffffffff168b62000da4565b62001420576040517f08c379a000000000000000000000000000000000000000000000000000000000815260206004820152602160248201527f4272696467653a3a636c61696d4d6573736167653a20534d545f494e56414c4960448201527f4400000000000000000000000000000000000000000000000000000000000000606482015260840162000683565b63ffffffff891660009081526023602052604080822080547fffffffffffffffffffffffffffffffffffffffffffffffffffffffffffffff001660011790555173ffffffffffffffffffffffffffffffffffffffff85169084906200148e9089908b90879060240162003cdd565b604080517fffffffffffffffffffffffffffffffffffffffffffffffffffffffffffffffe08184030181529181526020820180517bffffffffffffffffffffffffffffffffffffffffffffffffffffffff167f1806b5f2000000000000000000000000000000000000000000000000000000001790525162001511919062003d23565b60006040518083038185875af1925050503d806000811462001550576040519150601f19603f3d011682016040523d82523d6000602084013e62001555565b606091505b5050905080620015e7576040517f08c379a0000000000000000000000000000000000000000000000000000000008152602060048201526024808201527f4272696467653a3a636c61696d4d6573736167653a204d4553534147455f464160448201527f494c454400000000000000000000000000000000000000000000000000000000606482015260840162000683565b6040805163ffffffff8c811682528916602082015273ffffffffffffffffffffffffffffffffffffffff88811682840152861660608201526080810185905290517f25308c93ceeed162da955b3f7ce3e3f93606579e40fb92029faa9efe275459839181900360a00190a15050505050505050505050565b63ffffffff891660009081526023602052604090205460ff1615620016e1576040517f08c379a000000000000000000000000000000000000000000000000000000000815260206004820152601e60248201527f4272696467653a3a636c61696d3a20414c52454144595f434c41494d45440000604482015260640162000683565b6026546040805160208082018c90528183018b9052825180830384018152606083019384905280519101207f257b363200000000000000000000000000000000000000000000000000000000909252606481019190915273ffffffffffffffffffffffffffffffffffffffff9091169063257b3632906084016020604051808303816000875af11580156200177a573d6000803e3d6000fd5b505050506040513d601f19601f82011682018060405250810190620017a0919062003cc3565b60000362001831576040517f08c379a000000000000000000000000000000000000000000000000000000000815260206004820152602e60248201527f4272696467653a3a636c61696d3a20474c4f42414c5f455849545f524f4f545f60448201527f444f45535f4e4f545f4d41544348000000000000000000000000000000000000606482015260840162000683565b60225463ffffffff858116911614620018cd576040517f08c379a000000000000000000000000000000000000000000000000000000000815260206004820152603160248201527f4272696467653a3a636c61696d3a2044455354494e4154494f4e5f4e4554574f60448201527f524b5f444f45535f4e4f545f4d41544348000000000000000000000000000000606482015260840162000683565b60225463ffffffff16620019fc578051602080830191909120604080516000818501527fffffffff0000000000000000000000000000000000000000000000000000000060e08b811b821660218401527fffffffffffffffffffffffffffffffffffffffff00000000000000000000000060608c811b82166025860152918b901b909216603984015288901b16603d8201526051810186905260718082019390935281518082039093018352609101905280519101206200198e9062001213565b620019f6576040517f08c379a000000000000000000000000000000000000000000000000000000000815260206004820152601a60248201527f4272696467653a3a636c61696d3a20534d545f494e56414c4944000000000000604482015260640162000683565b62001b17565b8051602080830191909120604080516000818501527fffffffff0000000000000000000000000000000000000000000000000000000060e08b811b821660218401527fffffffffffffffffffffffffffffffffffffffff00000000000000000000000060608c811b82166025860152918b901b909216603984015288901b16603d82015260518101869052607180820193909352815180820390930183526091019052805191012062001aaf9062001383565b62001b17576040517f08c379a000000000000000000000000000000000000000000000000000000000815260206004820152601a60248201527f4272696467653a3a636c61696d3a20534d545f494e56414c4944000000000000604482015260640162000683565b63ffffffff8916600090815260236020526040902080547fffffffffffffffffffffffffffffffffffffffffffffffffffffffffffffff0016600117905573ffffffffffffffffffffffffffffffffffffffff851662001c88576040805160008082526020820190925273ffffffffffffffffffffffffffffffffffffffff851690849060405162001baa919062003d23565b60006040518083038185875af1925050503d806000811462001be9576040519150601f19603f3d011682016040523d82523d6000602084013e62001bee565b606091505b505090508062001c81576040517f08c379a000000000000000000000000000000000000000000000000000000000815260206004820152602260248201527f4272696467653a3a636c61696d3a204554485f5452414e534645525f4641494c60448201527f4544000000000000000000000000000000000000000000000000000000000000606482015260840162000683565b5062002093565b60225463ffffffff9081169087160362001cc55762001cbf73ffffffffffffffffffffffffffffffffffffffff861684846200301b565b62002093565b6040517fffffffff0000000000000000000000000000000000000000000000000000000060e088901b1660208201527fffffffffffffffffffffffffffffffffffffffff000000000000000000000000606087901b166024820152600090603801604080517fffffffffffffffffffffffffffffffffffffffffffffffffffffffffffffffe081840301815291815281516020928301206000818152602490935291205490915073ffffffffffffffffffffffffffffffffffffffff168062001ff25760275460009062001db09073ffffffffffffffffffffffffffffffffffffffff168462003073565b905060008060008680602001905181019062001dcd919062003d41565b9250925092508373ffffffffffffffffffffffffffffffffffffffff16636c9452218484848d8d6040518663ffffffff1660e01b815260040162001e1695949392919062003dc2565b600060405180830381600087803b15801562001e3157600080fd5b505af115801562001e46573d6000803e3d6000fd5b50505050836024600088815260200190815260200160002060006101000a81548173ffffffffffffffffffffffffffffffffffffffff021916908373ffffffffffffffffffffffffffffffffffffffff16021790555060405180604001604052808d63ffffffff1681526020018c73ffffffffffffffffffffffffffffffffffffffff16815250602560008673ffffffffffffffffffffffffffffffffffffffff1673ffffffffffffffffffffffffffffffffffffffff16815260200190815260200160002060008201518160000160006101000a81548163ffffffff021916908363ffffffff16021790555060208201518160000160046101000a81548173ffffffffffffffffffffffffffffffffffffffff021916908373ffffffffffffffffffffffffffffffffffffffff1602179055509050507fccd7715648d1f2bb13e158f96b5b6c3aeda555d4cb87112e274a6f28bc571d598c8c8660405162001fe09392919063ffffffff93909316835273ffffffffffffffffffffffffffffffffffffffff918216602084015216604082015260600190565b60405180910390a15050505062002090565b6040517f40c10f1900000000000000000000000000000000000000000000000000000000815273ffffffffffffffffffffffffffffffffffffffff8681166004830152602482018690528216906340c10f19906044016020604051808303816000875af115801562002068573d6000803e3d6000fd5b505050506040513d601f19601f820116820180604052508101906200208e9190620039f8565b505b50505b6040805163ffffffff8b811682528816602082015273ffffffffffffffffffffffffffffffffffffffff87811682840152851660608201526080810184905290517f25308c93ceeed162da955b3f7ce3e3f93606579e40fb92029faa9efe275459839181900360a00190a150505050505050505050565b600054610100900460ff16158080156200212b5750600054600160ff909116105b80620021475750303b15801562002147575060005460ff166001145b620021d5576040517f08c379a000000000000000000000000000000000000000000000000000000000815260206004820152602e60248201527f496e697469616c697a61626c653a20636f6e747261637420697320616c72656160448201527f647920696e697469616c697a6564000000000000000000000000000000000000606482015260840162000683565b600080547fffffffffffffffffffffffffffffffffffffffffffffffffffffffffffffff0016600117905580156200223457600080547fffffffffffffffffffffffffffffffffffffffffffffffffffffffffffff00ff166101001790555b602280547fffffffffffffffffffffffffffffffffffffffffffffffffffffffff000000001663ffffffff8516179055602680547fffffffffffffffffffffffff00000000000000000000000000000000000000001673ffffffffffffffffffffffffffffffffffffffff8416179055604051620022b29062003461565b604051809103906000f080158015620022cf573d6000803e3d6000fd5b50602780547fffffffffffffffffffffffff00000000000000000000000000000000000000001673ffffffffffffffffffffffffffffffffffffffff9290921691909117905580156200237957600080547fffffffffffffffffffffffffffffffffffffffffffffffffffffffffffff00ff169055604051600181527f7f26b83ff96e1f2b6a682f133852f6798a09c465da95921460cefb38474024989060200160405180910390a15b505050565b6040517fffffffff0000000000000000000000000000000000000000000000000000000060e084901b1660208201527fffffffffffffffffffffffffffffffffffffffff000000000000000000000000606083901b1660248201526000908190603801604080517fffffffffffffffffffffffffffffffffffffffffffffffffffffffffffffffe081840301815291905280516020909101206027549091506200243f9073ffffffffffffffffffffffffffffffffffffffff168262003153565b949350505050565b60225463ffffffff90811690841603620024e4576040517f08c379a000000000000000000000000000000000000000000000000000000000815260206004820152602a60248201527f4272696467653a3a6272696467653a2044455354494e4154494f4e5f43414e5460448201527f5f42455f495453454c4600000000000000000000000000000000000000000000606482015260840162000683565b6022546021546040517f501781209a1f8899323b96b4ef08b168df93e0a90c673d1e4cce39366cb62f9b92620025319260019263ffffffff9092169133918991899134918a919062003b75565b60405180910390a16022548151602080840191909120604080517f0100000000000000000000000000000000000000000000000000000000000000818501527fffffffff0000000000000000000000000000000000000000000000000000000060e095861b811660218301527fffffffffffffffffffffffffffffffffffffffff00000000000000000000000033606090811b82166025850152968a901b90911660398301529487901b909416603d8501523460518501526071808501929092528051808503909201825260919093019092528151910120620026149062002ea2565b60265473ffffffffffffffffffffffffffffffffffffffff166333d6247d6200263c62000cb1565b6040518263ffffffff1660e01b81526004016200265b91815260200190565b600060405180830381600087803b1580156200267657600080fd5b505af11580156200268b573d6000803e3d6000fd5b50505050505050565b6000620026d783838080601f016020809104026020016040519081016040528093929190818152602001838380828437600092019190915250620031d792505050565b90507f2afa5331000000000000000000000000000000000000000000000000000000007fffffffff0000000000000000000000000000000000000000000000000000000082160162002a5b5760008080808080806200273a896004818d62003e22565b81019062002749919062003e4e565b96509650965096509650965096503373ffffffffffffffffffffffffffffffffffffffff168773ffffffffffffffffffffffffffffffffffffffff161462002814576040517f08c379a000000000000000000000000000000000000000000000000000000000815260206004820152603060248201527f4272696467653a3a5f7065726d69743a205045524d49545f4f574e45525f4d5560448201527f53545f42455f5448455f53454e44455200000000000000000000000000000000606482015260840162000683565b73ffffffffffffffffffffffffffffffffffffffff86163014620028bb576040517f08c379a000000000000000000000000000000000000000000000000000000000815260206004820152602560248201527f4272696467653a3a5f7065726d69743a205350454e4445525f4d5553545f424560448201527f5f54484953000000000000000000000000000000000000000000000000000000606482015260840162000683565b8a85146200294c576040517f08c379a000000000000000000000000000000000000000000000000000000000815260206004820152602d60248201527f4272696467653a3a5f7065726d69743a205045524d49545f414d4f554e545f4460448201527f4f45535f4e4f545f4d4154434800000000000000000000000000000000000000606482015260840162000683565b6040805173ffffffffffffffffffffffffffffffffffffffff89811660248301528881166044830152606482018890526084820187905260ff861660a483015260c4820185905260e48083018590528351808403909101815261010490920183526020820180517bffffffffffffffffffffffffffffffffffffffffffffffffffffffff167fd505accf000000000000000000000000000000000000000000000000000000001790529151918e169162002a07919062003d23565b6000604051808303816000865af19150503d806000811462002a46576040519150601f19603f3d011682016040523d82523d6000602084013e62002a4b565b606091505b5050505050505050505062002db7565b7fffffffff0000000000000000000000000000000000000000000000000000000081167f8fcbaf0c000000000000000000000000000000000000000000000000000000001462002b08576040517f08c379a000000000000000000000000000000000000000000000000000000000815260206004820152601f60248201527f4272696467653a3a5f7065726d69743a204e4f545f56414c49445f43414c4c00604482015260640162000683565b60008080808080808062002b208a6004818e62003e22565b81019062002b2f919062003ea9565b975097509750975097509750975097503373ffffffffffffffffffffffffffffffffffffffff168873ffffffffffffffffffffffffffffffffffffffff161462002bfc576040517f08c379a000000000000000000000000000000000000000000000000000000000815260206004820152603060248201527f4272696467653a3a5f7065726d69743a205045524d49545f4f574e45525f4d5560448201527f53545f42455f5448455f53454e44455200000000000000000000000000000000606482015260840162000683565b73ffffffffffffffffffffffffffffffffffffffff8716301462002ca3576040517f08c379a000000000000000000000000000000000000000000000000000000000815260206004820152602560248201527f4272696467653a3a5f7065726d69743a205350454e4445525f4d5553545f424560448201527f5f54484953000000000000000000000000000000000000000000000000000000606482015260840162000683565b6040805173ffffffffffffffffffffffffffffffffffffffff8a811660248301528981166044830152606482018990526084820188905286151560a483015260ff861660c483015260e482018590526101048083018590528351808403909101815261012490920183526020820180517bffffffffffffffffffffffffffffffffffffffffffffffffffffffff167f8fcbaf0c000000000000000000000000000000000000000000000000000000001790529151918f169162002d67919062003d23565b6000604051808303816000865af19150503d806000811462002da6576040519150601f19603f3d011682016040523d82523d6000602084013e62002dab565b606091505b50505050505050505050505b5050505050565b60405173ffffffffffffffffffffffffffffffffffffffff8085166024830152831660448201526064810182905262002e9c9085907f23b872dd00000000000000000000000000000000000000000000000000000000906084015b604080517fffffffffffffffffffffffffffffffffffffffffffffffffffffffffffffffe08184030181529190526020810180517bffffffffffffffffffffffffffffffffffffffffffffffffffffffff167fffffffff0000000000000000000000000000000000000000000000000000000090931692909217909152620031de565b50505050565b80600162002eb3602060026200406e565b62002ebf91906200407c565b6021541062002f51576040517f08c379a000000000000000000000000000000000000000000000000000000000815260206004820152602a60248201527f4465706f736974436f6e74726163743a5f6465706f7369743a204d45524b4c4560448201527f5f545245455f46554c4c00000000000000000000000000000000000000000000606482015260840162000683565b60016021600082825462002f66919062004096565b909155505060215460005b602081101562003010578160011660010362002fa657826001826020811062002f9e5762002f9e62003bee565b015550505050565b6001816020811062002fbc5762002fbc62003bee565b0154604080516020810192909252810184905260600160405160208183030381529060405280519060200120925060028262002ff9919062003c4c565b915080620030078162003c88565b91505062002f71565b5062002379620040b1565b60405173ffffffffffffffffffffffffffffffffffffffff8316602482015260448101829052620023799084907fa9059cbb000000000000000000000000000000000000000000000000000000009060640162002e19565b60006040517f3d602d80600a3d3981f3363d3d373d3d3d363d7300000000000000000000000081528360601b60148201527f5af43d82803e903d91602b57fd5bf300000000000000000000000000000000006028820152826037826000f591505073ffffffffffffffffffffffffffffffffffffffff811662000cab576040517f08c379a000000000000000000000000000000000000000000000000000000000815260206004820152601760248201527f455243313136373a2063726561746532206661696c6564000000000000000000604482015260640162000683565b6000620031d08383306040517f3d602d80600a3d3981f3363d3d373d3d3d363d730000000000000000000000008152606093841b60148201527f5af43d82803e903d91602b57fd5bf3ff000000000000000000000000000000006028820152921b6038830152604c8201526037808220606c830152605591012090565b9392505050565b6020015190565b600062003242826040518060400160405280602081526020017f5361666545524332303a206c6f772d6c6576656c2063616c6c206661696c65648152508573ffffffffffffffffffffffffffffffffffffffff16620032f19092919063ffffffff16565b805190915015620023795780806020019051810190620032639190620039f8565b62002379576040517f08c379a000000000000000000000000000000000000000000000000000000000815260206004820152602a60248201527f5361666545524332303a204552433230206f7065726174696f6e20646964206e60448201527f6f74207375636365656400000000000000000000000000000000000000000000606482015260840162000683565b60606200243f84846000858573ffffffffffffffffffffffffffffffffffffffff85163b6200337d576040517f08c379a000000000000000000000000000000000000000000000000000000000815260206004820152601d60248201527f416464726573733a2063616c6c20746f206e6f6e2d636f6e7472616374000000604482015260640162000683565b6000808673ffffffffffffffffffffffffffffffffffffffff168587604051620033a8919062003d23565b60006040518083038185875af1925050503d8060008114620033e7576040519150601f19603f3d011682016040523d82523d6000602084013e620033ec565b606091505b5091509150620033fe82828662003409565b979650505050505050565b606083156200341a575081620031d0565b8251156200342b5782518084602001fd5b816040517f08c379a0000000000000000000000000000000000000000000000000000000008152600401620006839190620040e0565b61182980620040f683390190565b73ffffffffffffffffffffffffffffffffffffffff811681146200349257600080fd5b50565b8035620034a2816200346f565b919050565b803563ffffffff81168114620034a257600080fd5b60008060008060008060a08789031215620034d657600080fd5b8635620034e3816200346f565b9550620034f360208801620034a7565b9450604087013562003505816200346f565b935060608701359250608087013567ffffffffffffffff808211156200352a57600080fd5b818901915089601f8301126200353f57600080fd5b8135818111156200354f57600080fd5b8a60208285010111156200356257600080fd5b6020830194508093505050509295509295509295565b600080604083850312156200358c57600080fd5b6200359783620034a7565b91506020830135620035a9816200346f565b809150509250929050565b600060208284031215620035c757600080fd5b8135620031d0816200346f565b7f4e487b7100000000000000000000000000000000000000000000000000000000600052604160045260246000fd5b604051601f82017fffffffffffffffffffffffffffffffffffffffffffffffffffffffffffffffe016810167ffffffffffffffff811182821017156200364d576200364d620035d4565b604052919050565b600082601f8301126200366757600080fd5b8135602067ffffffffffffffff821115620036865762003686620035d4565b8160051b6200369782820162003603565b9283528481018201928281019087851115620036b257600080fd5b83870192505b84831015620033fe57823582529183019190830190620036b8565b60008060008060808587031215620036ea57600080fd5b84359350602085013567ffffffffffffffff808211156200370a57600080fd5b620037188883890162003655565b94506040870135915080821682146200373057600080fd5b509396929550929360600135925050565b60ff811681146200349257600080fd5b600080600080600080600060e0888a0312156200376d57600080fd5b87356200377a8162003741565b96506200378a60208901620034a7565b955060408801356200379c816200346f565b9450620037ac60608901620034a7565b93506080880135620037be816200346f565b9699959850939692959460a0840135945060c09093013592915050565b600067ffffffffffffffff821115620037f857620037f8620035d4565b50601f017fffffffffffffffffffffffffffffffffffffffffffffffffffffffffffffffe01660200190565b600082601f8301126200383657600080fd5b81356200384d6200384782620037db565b62003603565b8181528460208386010111156200386357600080fd5b816020850160208301376000918101602001919091529392505050565b6000806000806000806000806000806101408b8d031215620038a157600080fd5b8a3567ffffffffffffffff80821115620038ba57600080fd5b620038c88e838f0162003655565b9b50620038d860208e01620034a7565b9a5060408d0135995060608d01359850620038f660808e01620034a7565b97506200390660a08e0162003495565b96506200391660c08e01620034a7565b95506200392660e08e0162003495565b94506101008d013593506101208d01359150808211156200394657600080fd5b50620039558d828e0162003824565b9150509295989b9194979a5092959850565b6000602082840312156200397a57600080fd5b5035919050565b6000806000606084860312156200399757600080fd5b620039a284620034a7565b92506020840135620039b4816200346f565b9150604084013567ffffffffffffffff811115620039d157600080fd5b620039df8682870162003824565b9150509250925092565b80151581146200349257600080fd5b60006020828403121562003a0b57600080fd5b8151620031d081620039e9565b60005b8381101562003a3557818101518382015260200162003a1b565b8381111562002e9c5750506000910152565b600082601f83011262003a5957600080fd5b815162003a6a6200384782620037db565b81815284602083860101111562003a8057600080fd5b6200243f82602083016020870162003a18565b60006020828403121562003aa657600080fd5b815167ffffffffffffffff81111562003abe57600080fd5b6200243f8482850162003a47565b60006020828403121562003adf57600080fd5b8151620031d08162003741565b6000815180845262003b0681602086016020860162003a18565b601f017fffffffffffffffffffffffffffffffffffffffffffffffffffffffffffffffe0169290920160200192915050565b60608152600062003b4d606083018662003aec565b828103602084015262003b61818662003aec565b91505060ff83166040830152949350505050565b600061010060ff8b16835263ffffffff808b16602085015273ffffffffffffffffffffffffffffffffffffffff808b166040860152818a1660608601528089166080860152508660a08501528160c085015262003bd58285018762003aec565b925080851660e085015250509998505050505050505050565b7f4e487b7100000000000000000000000000000000000000000000000000000000600052603260045260246000fd5b7f4e487b7100000000000000000000000000000000000000000000000000000000600052601160045260246000fd5b60008262003c83577f4e487b7100000000000000000000000000000000000000000000000000000000600052601260045260246000fd5b500490565b60007fffffffffffffffffffffffffffffffffffffffffffffffffffffffffffffffff820362003cbc5762003cbc62003c1d565b5060010190565b60006020828403121562003cd657600080fd5b5051919050565b73ffffffffffffffffffffffffffffffffffffffff8416815263ffffffff8316602082015260606040820152600062003d1a606083018462003aec565b95945050505050565b6000825162003d3781846020870162003a18565b9190910192915050565b60008060006060848603121562003d5757600080fd5b835167ffffffffffffffff8082111562003d7057600080fd5b62003d7e8783880162003a47565b9450602086015191508082111562003d9557600080fd5b5062003da48682870162003a47565b925050604084015162003db78162003741565b809150509250925092565b60a08152600062003dd760a083018862003aec565b828103602084015262003deb818862003aec565b60ff969096166040840152505073ffffffffffffffffffffffffffffffffffffffff92909216606083015260809091015292915050565b6000808585111562003e3357600080fd5b8386111562003e4157600080fd5b5050820193919092039150565b600080600080600080600060e0888a03121562003e6a57600080fd5b873562003e77816200346f565b9650602088013562003e89816200346f565b955060408801359450606088013593506080880135620037be8162003741565b600080600080600080600080610100898b03121562003ec757600080fd5b883562003ed4816200346f565b9750602089013562003ee6816200346f565b96506040890135955060608901359450608089013562003f0681620039e9565b935060a089013562003f188162003741565b979a969950949793969295929450505060c08201359160e0013590565b600181815b8085111562003f9457817fffffffffffffffffffffffffffffffffffffffffffffffffffffffffffffffff0482111562003f785762003f7862003c1d565b8085161562003f8657918102915b93841c939080029062003f3a565b509250929050565b60008262003fad5750600162000cab565b8162003fbc5750600062000cab565b816001811462003fd5576002811462003fe05762004000565b600191505062000cab565b60ff84111562003ff45762003ff462003c1d565b50506001821b62000cab565b5060208310610133831016604e8410600b841016171562004025575081810a62000cab565b62004031838362003f35565b807fffffffffffffffffffffffffffffffffffffffffffffffffffffffffffffffff0482111562004066576200406662003c1d565b029392505050565b6000620031d0838362003f9c565b60008282101562004091576200409162003c1d565b500390565b60008219821115620040ac57620040ac62003c1d565b500190565b7f4e487b7100000000000000000000000000000000000000000000000000000000600052600160045260246000fd5b602081526000620031d0602083018462003aec56fe60806040523480156200001157600080fd5b50600054610100900460ff1615808015620000335750600054600160ff909116105b8062000063575062000050306200013d60201b6200080a1760201c565b15801562000063575060005460ff166001145b620000cb5760405162461bcd60e51b815260206004820152602e60248201527f496e697469616c697a61626c653a20636f6e747261637420697320616c72656160448201526d191e481a5b9a5d1a585b1a5e995960921b606482015260840160405180910390fd5b6000805460ff191660011790558015620000ef576000805461ff0019166101001790555b801562000136576000805461ff0019169055604051600181527f7f26b83ff96e1f2b6a682f133852f6798a09c465da95921460cefb38474024989060200160405180910390a15b506200014c565b6001600160a01b03163b151590565b6116cd806200015c6000396000f3fe608060405234801561001057600080fd5b50600436106100f55760003560e01c80636c94522111610097578063a3c573eb11610066578063a3c573eb1461021c578063a457c2d714610261578063a9059cbb14610274578063dd62ed3e1461028757600080fd5b80636c945221146101b657806370a08231146101cb57806395d89b41146102015780639dc29fac1461020957600080fd5b806323b872dd116100d357806323b872dd1461014d578063313ce56714610160578063395093511461019057806340c10f19146101a357600080fd5b806306fdde03146100fa578063095ea7b31461011857806318160ddd1461013b575b600080fd5b6101026102cd565b60405161010f91906111c0565b60405180910390f35b61012b61012636600461125c565b61035f565b604051901515815260200161010f565b6035545b60405190815260200161010f565b61012b61015b366004611286565b610377565b60655474010000000000000000000000000000000000000000900460ff1660405160ff909116815260200161010f565b61012b61019e36600461125c565b61039b565b61012b6101b136600461125c565b6103e7565b6101c96101c436600461139c565b610483565b005b61013f6101d9366004611431565b73ffffffffffffffffffffffffffffffffffffffff1660009081526033602052604090205490565b61010261068e565b61012b61021736600461125c565b61069d565b60655461023c9073ffffffffffffffffffffffffffffffffffffffff1681565b60405173ffffffffffffffffffffffffffffffffffffffff909116815260200161010f565b61012b61026f36600461125c565b61072b565b61012b61028236600461125c565b6107fc565b61013f610295366004611453565b73ffffffffffffffffffffffffffffffffffffffff918216600090815260346020908152604080832093909416825291909152205490565b6060603680546102dc90611486565b80601f016020809104026020016040519081016040528092919081815260200182805461030890611486565b80156103555780601f1061032a57610100808354040283529160200191610355565b820191906000526020600020905b81548152906001019060200180831161033857829003601f168201915b5050505050905090565b60003361036d818585610826565b5060019392505050565b6000336103858582856109da565b610390858585610ab1565b506001949350505050565b33600081815260346020908152604080832073ffffffffffffffffffffffffffffffffffffffff8716845290915281205490919061036d90829086906103e2908790611508565b610826565b60655460009073ffffffffffffffffffffffffffffffffffffffff163314610470576040517f08c379a000000000000000000000000000000000000000000000000000000000815260206004820152601760248201527f546f6b656e577261707065643a4e4f545f42524944474500000000000000000060448201526064015b60405180910390fd5b61047a8383610d64565b50600192915050565b600054610100900460ff16158080156104a35750600054600160ff909116105b806104bd5750303b1580156104bd575060005460ff166001145b610549576040517f08c379a000000000000000000000000000000000000000000000000000000000815260206004820152602e60248201527f496e697469616c697a61626c653a20636f6e747261637420697320616c72656160448201527f647920696e697469616c697a65640000000000000000000000000000000000006064820152608401610467565b600080547fffffffffffffffffffffffffffffffffffffffffffffffffffffffffffffff0016600117905580156105a757600080547fffffffffffffffffffffffffffffffffffffffffffffffffffffffffffff00ff166101001790555b6105b18686610e85565b606580547fffffffffffffffffffffff00000000000000000000000000000000000000000016337fffffffffffffffffffffff00ffffffffffffffffffffffffffffffffffffffff16177401000000000000000000000000000000000000000060ff8716021790556106238383610d64565b801561068657600080547fffffffffffffffffffffffffffffffffffffffffffffffffffffffffffff00ff169055604051600181527f7f26b83ff96e1f2b6a682f133852f6798a09c465da95921460cefb38474024989060200160405180910390a15b505050505050565b6060603780546102dc90611486565b60655460009073ffffffffffffffffffffffffffffffffffffffff163314610721576040517f08c379a000000000000000000000000000000000000000000000000000000000815260206004820152601760248201527f546f6b656e577261707065643a4e4f545f4252494447450000000000000000006044820152606401610467565b61047a8383610f26565b33600081815260346020908152604080832073ffffffffffffffffffffffffffffffffffffffff87168452909152812054909190838110156107ef576040517f08c379a000000000000000000000000000000000000000000000000000000000815260206004820152602560248201527f45524332303a2064656372656173656420616c6c6f77616e63652062656c6f7760448201527f207a65726f0000000000000000000000000000000000000000000000000000006064820152608401610467565b6103908286868403610826565b60003361036d818585610ab1565b73ffffffffffffffffffffffffffffffffffffffff163b151590565b73ffffffffffffffffffffffffffffffffffffffff83166108c8576040517f08c379a0000000000000000000000000000000000000000000000000000000008152602060048201526024808201527f45524332303a20617070726f76652066726f6d20746865207a65726f2061646460448201527f72657373000000000000000000000000000000000000000000000000000000006064820152608401610467565b73ffffffffffffffffffffffffffffffffffffffff821661096b576040517f08c379a000000000000000000000000000000000000000000000000000000000815260206004820152602260248201527f45524332303a20617070726f766520746f20746865207a65726f20616464726560448201527f73730000000000000000000000000000000000000000000000000000000000006064820152608401610467565b73ffffffffffffffffffffffffffffffffffffffff83811660008181526034602090815260408083209487168084529482529182902085905590518481527f8c5be1e5ebec7d5bd14f71427d1e84f3dd0314c0f7b2291e5b200ac8c7c3b92591015b60405180910390a3505050565b73ffffffffffffffffffffffffffffffffffffffff8381166000908152603460209081526040808320938616835292905220547fffffffffffffffffffffffffffffffffffffffffffffffffffffffffffffffff8114610aab5781811015610a9e576040517f08c379a000000000000000000000000000000000000000000000000000000000815260206004820152601d60248201527f45524332303a20696e73756666696369656e7420616c6c6f77616e63650000006044820152606401610467565b610aab8484848403610826565b50505050565b73ffffffffffffffffffffffffffffffffffffffff8316610b54576040517f08c379a000000000000000000000000000000000000000000000000000000000815260206004820152602560248201527f45524332303a207472616e736665722066726f6d20746865207a65726f20616460448201527f64726573730000000000000000000000000000000000000000000000000000006064820152608401610467565b73ffffffffffffffffffffffffffffffffffffffff8216610bf7576040517f08c379a000000000000000000000000000000000000000000000000000000000815260206004820152602360248201527f45524332303a207472616e7366657220746f20746865207a65726f206164647260448201527f65737300000000000000000000000000000000000000000000000000000000006064820152608401610467565b73ffffffffffffffffffffffffffffffffffffffff831660009081526033602052604090205481811015610cad576040517f08c379a000000000000000000000000000000000000000000000000000000000815260206004820152602660248201527f45524332303a207472616e7366657220616d6f756e742065786365656473206260448201527f616c616e636500000000000000000000000000000000000000000000000000006064820152608401610467565b73ffffffffffffffffffffffffffffffffffffffff808516600090815260336020526040808220858503905591851681529081208054849290610cf1908490611508565b925050819055508273ffffffffffffffffffffffffffffffffffffffff168473ffffffffffffffffffffffffffffffffffffffff167fddf252ad1be2c89b69c2b068fc378daa952ba7f163c4a11628f55a4df523b3ef84604051610d5791815260200190565b60405180910390a3610aab565b73ffffffffffffffffffffffffffffffffffffffff8216610de1576040517f08c379a000000000000000000000000000000000000000000000000000000000815260206004820152601f60248201527f45524332303a206d696e7420746f20746865207a65726f2061646472657373006044820152606401610467565b8060356000828254610df39190611508565b909155505073ffffffffffffffffffffffffffffffffffffffff821660009081526033602052604081208054839290610e2d908490611508565b909155505060405181815273ffffffffffffffffffffffffffffffffffffffff8316906000907fddf252ad1be2c89b69c2b068fc378daa952ba7f163c4a11628f55a4df523b3ef9060200160405180910390a35b5050565b600054610100900460ff16610f1c576040517f08c379a000000000000000000000000000000000000000000000000000000000815260206004820152602b60248201527f496e697469616c697a61626c653a20636f6e7472616374206973206e6f74206960448201527f6e697469616c697a696e670000000000000000000000000000000000000000006064820152608401610467565b610e818282611110565b73ffffffffffffffffffffffffffffffffffffffff8216610fc9576040517f08c379a000000000000000000000000000000000000000000000000000000000815260206004820152602160248201527f45524332303a206275726e2066726f6d20746865207a65726f2061646472657360448201527f73000000000000000000000000000000000000000000000000000000000000006064820152608401610467565b73ffffffffffffffffffffffffffffffffffffffff82166000908152603360205260409020548181101561107f576040517f08c379a000000000000000000000000000000000000000000000000000000000815260206004820152602260248201527f45524332303a206275726e20616d6f756e7420657863656564732062616c616e60448201527f63650000000000000000000000000000000000000000000000000000000000006064820152608401610467565b73ffffffffffffffffffffffffffffffffffffffff831660009081526033602052604081208383039055603580548492906110bb908490611520565b909155505060405182815260009073ffffffffffffffffffffffffffffffffffffffff8516907fddf252ad1be2c89b69c2b068fc378daa952ba7f163c4a11628f55a4df523b3ef906020016109cd565b505050565b600054610100900460ff166111a7576040517f08c379a000000000000000000000000000000000000000000000000000000000815260206004820152602b60248201527f496e697469616c697a61626c653a20636f6e7472616374206973206e6f74206960448201527f6e697469616c697a696e670000000000000000000000000000000000000000006064820152608401610467565b60366111b3838261157d565b50603761110b828261157d565b600060208083528351808285015260005b818110156111ed578581018301518582016040015282016111d1565b818111156111ff576000604083870101525b50601f017fffffffffffffffffffffffffffffffffffffffffffffffffffffffffffffffe016929092016040019392505050565b803573ffffffffffffffffffffffffffffffffffffffff8116811461125757600080fd5b919050565b6000806040838503121561126f57600080fd5b61127883611233565b946020939093013593505050565b60008060006060848603121561129b57600080fd5b6112a484611233565b92506112b260208501611233565b9150604084013590509250925092565b7f4e487b7100000000000000000000000000000000000000000000000000000000600052604160045260246000fd5b600082601f83011261130257600080fd5b813567ffffffffffffffff8082111561131d5761131d6112c2565b604051601f83017fffffffffffffffffffffffffffffffffffffffffffffffffffffffffffffffe0908116603f01168101908282118183101715611363576113636112c2565b8160405283815286602085880101111561137c57600080fd5b836020870160208301376000602085830101528094505050505092915050565b600080600080600060a086880312156113b457600080fd5b853567ffffffffffffffff808211156113cc57600080fd5b6113d889838a016112f1565b965060208801359150808211156113ee57600080fd5b506113fb888289016112f1565b945050604086013560ff8116811461141257600080fd5b925061142060608701611233565b949793965091946080013592915050565b60006020828403121561144357600080fd5b61144c82611233565b9392505050565b6000806040838503121561146657600080fd5b61146f83611233565b915061147d60208401611233565b90509250929050565b600181811c9082168061149a57607f821691505b6020821081036114d3577f4e487b7100000000000000000000000000000000000000000000000000000000600052602260045260246000fd5b50919050565b7f4e487b7100000000000000000000000000000000000000000000000000000000600052601160045260246000fd5b6000821982111561151b5761151b6114d9565b500190565b600082821015611532576115326114d9565b500390565b601f82111561110b57600081815260208120601f850160051c8101602086101561155e5750805b601f850160051c820191505b818110156106865782815560010161156a565b815167ffffffffffffffff811115611597576115976112c2565b6115ab816115a58454611486565b84611537565b602080601f8311600181146115fe57600084156115c85750858301515b7fffffffffffffffffffffffffffffffffffffffffffffffffffffffffffffffff600386901b1c1916600185901b178555610686565b6000858152602081207fffffffffffffffffffffffffffffffffffffffffffffffffffffffffffffffe08616915b8281101561164b5788860151825594840194600190910190840161162c565b508582101561168757878501517fffffffffffffffffffffffffffffffffffffffffffffffffffffffffffffffff600388901b60f8161c191681555b5050505050600190811b0190555056fea264697066735822122015dd8047eba7f7221e0d7792549e5a01ba1b6dfaad0c6a70dc82ef386e0c5cc464736f6c634300080f0033a2646970667358221220bdf94d69e63e347f03bee03a33cb2ab4b50d84e75b48c38164c94a1a1647481d64736f6c634300080f0033",
  "linkReferences": {},
  "deployedLinkReferences": {}
}