{
  "_format": "hh-sol-artifact-1",
  "contractName": "BridgeMock",
  "sourceName": "contracts/mocks/BridgeMock.sol",
  "abi": [
    {
      "inputs": [
        {
          "internalType": "uint32",
          "name": "_networkID",
          "type": "uint32"
        },
        {
          "internalType": "contract IGlobalExitRootManager",
          "name": "_globalExitRootManager",
          "type": "address"
        }
      ],
      "stateMutability": "nonpayable",
      "type": "constructor"
    },
    {
      "anonymous": false,
      "inputs": [
        {
          "indexed": false,
          "internalType": "address",
          "name": "tokenAddres",
          "type": "address"
        },
        {
          "indexed": false,
          "internalType": "uint256",
          "name": "amount",
          "type": "uint256"
        },
        {
          "indexed": false,
          "internalType": "uint32",
          "name": "originNetwork",
          "type": "uint32"
        },
        {
          "indexed": false,
          "internalType": "uint32",
          "name": "destinationNetwork",
          "type": "uint32"
        },
        {
          "indexed": false,
          "internalType": "address",
          "name": "destinationAddress",
          "type": "address"
        },
        {
          "indexed": false,
          "internalType": "uint32",
          "name": "depositCount",
          "type": "uint32"
        }
      ],
      "name": "BridgeEvent",
      "type": "event"
    },
    {
      "anonymous": false,
      "inputs": [
        {
          "indexed": false,
          "internalType": "uint32",
          "name": "index",
          "type": "uint32"
        },
        {
          "indexed": false,
          "internalType": "uint32",
          "name": "originalNetwork",
          "type": "uint32"
        },
        {
          "indexed": false,
          "internalType": "address",
          "name": "token",
          "type": "address"
        },
        {
          "indexed": false,
          "internalType": "uint256",
          "name": "amount",
          "type": "uint256"
        },
        {
          "indexed": false,
          "internalType": "address",
          "name": "destinationAddress",
          "type": "address"
        }
      ],
      "name": "ClaimEvent",
      "type": "event"
    },
    {
      "anonymous": false,
      "inputs": [
        {
          "indexed": false,
          "internalType": "uint32",
          "name": "originalNetwork",
          "type": "uint32"
        },
        {
          "indexed": false,
          "internalType": "address",
          "name": "originalTokenAddress",
          "type": "address"
        },
        {
          "indexed": false,
          "internalType": "address",
          "name": "wrappedTokenAddress",
          "type": "address"
        }
      ],
      "name": "NewWrappedToken",
      "type": "event"
    },
    {
      "anonymous": false,
      "inputs": [
        {
          "indexed": true,
          "internalType": "address",
          "name": "previousOwner",
          "type": "address"
        },
        {
          "indexed": true,
          "internalType": "address",
          "name": "newOwner",
          "type": "address"
        }
      ],
      "name": "OwnershipTransferred",
      "type": "event"
    },
    {
      "inputs": [],
      "name": "MAINNET_NETWORK_ID",
      "outputs": [
        {
          "internalType": "uint32",
          "name": "",
          "type": "uint32"
        }
      ],
      "stateMutability": "view",
      "type": "function"
    },
    {
      "inputs": [
        {
          "internalType": "address",
          "name": "",
          "type": "address"
        }
      ],
      "name": "addressToTokenInfo",
      "outputs": [
        {
          "internalType": "uint32",
          "name": "originalNetwork",
          "type": "uint32"
        },
        {
          "internalType": "address",
          "name": "originalTokenAddress",
          "type": "address"
        }
      ],
      "stateMutability": "view",
      "type": "function"
    },
    {
      "inputs": [
        {
          "internalType": "address",
          "name": "token",
          "type": "address"
        },
        {
          "internalType": "uint256",
          "name": "amount",
          "type": "uint256"
        },
        {
          "internalType": "uint32",
          "name": "destinationNetwork",
          "type": "uint32"
        },
        {
          "internalType": "address",
          "name": "destinationAddress",
          "type": "address"
        }
      ],
      "name": "bridge",
      "outputs": [],
      "stateMutability": "payable",
      "type": "function"
    },
    {
      "inputs": [
        {
          "internalType": "address",
          "name": "originalTokenAddress",
          "type": "address"
        },
        {
          "internalType": "uint256",
          "name": "amount",
          "type": "uint256"
        },
        {
          "internalType": "uint32",
          "name": "originalNetwork",
          "type": "uint32"
        },
        {
          "internalType": "uint32",
          "name": "destinationNetwork",
          "type": "uint32"
        },
        {
          "internalType": "address",
          "name": "destinationAddress",
          "type": "address"
        },
        {
          "internalType": "bytes32[]",
          "name": "smtProof",
          "type": "bytes32[]"
        },
        {
          "internalType": "uint32",
          "name": "index",
          "type": "uint32"
        },
        {
          "internalType": "uint256",
          "name": "globalExitRootNum",
          "type": "uint256"
        },
        {
          "internalType": "bytes32",
          "name": "mainnetExitRoot",
          "type": "bytes32"
        },
        {
          "internalType": "bytes32",
          "name": "rollupExitRoot",
          "type": "bytes32"
        }
      ],
      "name": "claim",
      "outputs": [],
      "stateMutability": "nonpayable",
      "type": "function"
    },
    {
      "inputs": [
        {
          "internalType": "uint256",
          "name": "",
          "type": "uint256"
        }
      ],
      "name": "claimNullifier",
      "outputs": [
        {
          "internalType": "bool",
          "name": "",
          "type": "bool"
        }
      ],
      "stateMutability": "view",
      "type": "function"
    },
    {
      "inputs": [],
      "name": "depositCount",
      "outputs": [
        {
          "internalType": "uint256",
          "name": "",
          "type": "uint256"
        }
      ],
      "stateMutability": "view",
      "type": "function"
    },
    {
      "inputs": [],
      "name": "getDepositRoot",
      "outputs": [
        {
          "internalType": "bytes32",
          "name": "",
          "type": "bytes32"
        }
      ],
      "stateMutability": "view",
      "type": "function"
    },
    {
      "inputs": [
        {
          "internalType": "uint32",
          "name": "originalNetwork",
          "type": "uint32"
        },
        {
          "internalType": "address",
          "name": "originalTokenAddress",
          "type": "address"
        }
      ],
      "name": "getTokenWrappedAddress",
      "outputs": [
        {
          "internalType": "address",
          "name": "",
          "type": "address"
        }
      ],
      "stateMutability": "view",
      "type": "function"
    },
    {
      "inputs": [],
      "name": "globalExitRootManager",
      "outputs": [
        {
          "internalType": "contract IGlobalExitRootManager",
          "name": "",
          "type": "address"
        }
      ],
      "stateMutability": "view",
      "type": "function"
    },
    {
      "inputs": [],
      "name": "networkID",
      "outputs": [
        {
          "internalType": "uint32",
          "name": "",
          "type": "uint32"
        }
      ],
      "stateMutability": "view",
      "type": "function"
    },
    {
      "inputs": [],
      "name": "owner",
      "outputs": [
        {
          "internalType": "address",
          "name": "",
          "type": "address"
        }
      ],
      "stateMutability": "view",
      "type": "function"
    },
    {
      "inputs": [
        {
          "internalType": "uint32",
          "name": "originalNetwork",
          "type": "uint32"
        },
        {
          "internalType": "address",
          "name": "originalTokenAddress",
          "type": "address"
        }
      ],
      "name": "precalculatedWrapperAddress",
      "outputs": [
        {
          "internalType": "address",
          "name": "",
          "type": "address"
        }
      ],
      "stateMutability": "view",
      "type": "function"
    },
    {
      "inputs": [],
      "name": "renounceOwnership",
      "outputs": [],
      "stateMutability": "nonpayable",
      "type": "function"
    },
    {
      "inputs": [
        {
          "internalType": "uint32",
          "name": "_networkID",
          "type": "uint32"
        }
      ],
      "name": "setNetworkID",
      "outputs": [],
      "stateMutability": "nonpayable",
      "type": "function"
    },
    {
      "inputs": [],
      "name": "tokenImplementation",
      "outputs": [
        {
          "internalType": "address",
          "name": "",
          "type": "address"
        }
      ],
      "stateMutability": "view",
      "type": "function"
    },
    {
      "inputs": [
        {
          "internalType": "bytes32",
          "name": "",
          "type": "bytes32"
        }
      ],
      "name": "tokenInfoToAddress",
      "outputs": [
        {
          "internalType": "address",
          "name": "",
          "type": "address"
        }
      ],
      "stateMutability": "view",
      "type": "function"
    },
    {
      "inputs": [
        {
          "internalType": "address",
          "name": "newOwner",
          "type": "address"
        }
      ],
      "name": "transferOwnership",
      "outputs": [],
      "stateMutability": "nonpayable",
      "type": "function"
    },
    {
      "inputs": [
        {
          "internalType": "address",
          "name": "token",
          "type": "address"
        },
        {
          "internalType": "uint256",
          "name": "amount",
          "type": "uint256"
        },
        {
          "internalType": "uint32",
          "name": "originalNetwork",
          "type": "uint32"
        },
        {
          "internalType": "uint32",
          "name": "destinationNetwork",
          "type": "uint32"
        },
        {
          "internalType": "address",
          "name": "destinationAddress",
          "type": "address"
        },
        {
          "internalType": "bytes32[]",
          "name": "smtProof",
          "type": "bytes32[]"
        },
        {
          "internalType": "uint64",
          "name": "index",
          "type": "uint64"
        },
        {
          "internalType": "bytes32",
          "name": "root",
          "type": "bytes32"
        }
      ],
      "name": "verifyMerkleProof",
      "outputs": [
        {
          "internalType": "bool",
          "name": "",
          "type": "bool"
        }
      ],
      "stateMutability": "pure",
      "type": "function"
    }
  ],
  "bytecode": "0x60a06040523480156200001157600080fd5b5060405162003fb638038062003fb68339810160408190526200003491620001bf565b8181620000413362000161565b60005b620000526001602062000227565b811015620000ed576021816020811062000070576200007062000241565b01546021826020811062000088576200008862000241565b0154604080516020810193909352820152606001604051602081830303815290604052805190602001206021826001620000c3919062000257565b60208110620000d657620000d662000241565b015580620000e48162000272565b91505062000044565b506042805463ffffffff191663ffffffff8416179055604680546001600160a01b0319166001600160a01b0383161790556040516200012c90620001b1565b604051809103906000f08015801562000149573d6000803e3d6000fd5b506001600160a01b0316608052506200029092505050565b600080546001600160a01b038381166001600160a01b0319831681178455604051919092169283917f8be0079c531659141344cd1fd0a4f28419497f9722a3daafe3b4186f6b6457e09190a35050565b6116be80620028f883390190565b60008060408385031215620001d357600080fd5b825163ffffffff81168114620001e857600080fd5b60208401519092506001600160a01b03811681146200020657600080fd5b809150509250929050565b634e487b7160e01b600052601160045260246000fd5b6000828210156200023c576200023c62000211565b500390565b634e487b7160e01b600052603260045260246000fd5b600082198211156200026d576200026d62000211565b500190565b600060001982141562000289576200028962000211565b5060010190565b60805161263e620002ba6000396000818161024601528181610dd401526116a0015261263e6000f3fe6080604052600436106101295760003560e01c8063715018a6116100a5578063bab161bf11610074578063e737588111610059578063e7375881146103f0578063ed6be5c914610420578063f2fde38b1461043557600080fd5b8063bab161bf14610391578063d02103ca146103c357600080fd5b8063715018a6146103015780637d8f0469146103165780638da5cb5b14610346578063b7e6a7d41461037157600080fd5b80632c3f58cd116100fc5780632f3a3d5d116100e15780632f3a3d5d146102345780633ae0504714610268578063452a94b01461027d57600080fd5b80632c3f58cd146101f05780632dfdf0b51461021057600080fd5b80630db4afff1461012e5780630e21fbd71461019b578063122650ff146101b057806322e95f2c146101d0575b600080fd5b34801561013a57600080fd5b50610171610149366004611f86565b60446020526000908152604090205473ffffffffffffffffffffffffffffffffffffffff1681565b60405173ffffffffffffffffffffffffffffffffffffffff90911681526020015b60405180910390f35b6101ae6101a9366004611fdc565b610455565b005b3480156101bc57600080fd5b506101ae6101cb366004612106565b6107ea565b3480156101dc57600080fd5b506101716101eb3660046121bf565b6111bf565b3480156101fc57600080fd5b506101ae61020b3660046121f2565b611262565b34801561021c57600080fd5b5061022660415481565b604051908152602001610192565b34801561024057600080fd5b506101717f000000000000000000000000000000000000000000000000000000000000000081565b34801561027457600080fd5b5061022661131a565b34801561028957600080fd5b506102d061029836600461220d565b60456020526000908152604090205463ffffffff811690640100000000900473ffffffffffffffffffffffffffffffffffffffff1682565b6040805163ffffffff909316835273ffffffffffffffffffffffffffffffffffffffff909116602083015201610192565b34801561030d57600080fd5b506101ae6113e7565b34801561032257600080fd5b50610336610331366004612228565b611474565b6040519015158152602001610192565b34801561035257600080fd5b5060005473ffffffffffffffffffffffffffffffffffffffff16610171565b34801561037d57600080fd5b5061017161038c3660046121bf565b611620565b34801561039d57600080fd5b506042546103ae9063ffffffff1681565b60405163ffffffff9091168152602001610192565b3480156103cf57600080fd5b506046546101719073ffffffffffffffffffffffffffffffffffffffff1681565b3480156103fc57600080fd5b5061033661040b366004611f86565b60436020526000908152604090205460ff1681565b34801561042c57600080fd5b506103ae600081565b34801561044157600080fd5b506101ae61045036600461220d565b6116cd565b60425463ffffffff838116911614156104f5576040517f08c379a000000000000000000000000000000000000000000000000000000000815260206004820152602a60248201527f4272696467653a3a6272696467653a2044455354494e4154494f4e5f43414e5460448201527f5f42455f495453454c460000000000000000000000000000000000000000000060648201526084015b60405180910390fd5b60008073ffffffffffffffffffffffffffffffffffffffff86166105aa578434146105a2576040517f08c379a000000000000000000000000000000000000000000000000000000000815260206004820152602f60248201527f4272696467653a3a6272696467653a20414d4f554e545f444f45535f4e4f545f60448201527f4d415443485f4d53475f56414c5545000000000000000000000000000000000060648201526084016104ec565b5060006106e8565b73ffffffffffffffffffffffffffffffffffffffff80871660009081526045602090815260409182902082518084019093525463ffffffff81168352640100000000900490921691810182905290156106b5576040517f9dc29fac0000000000000000000000000000000000000000000000000000000081523360048201526024810187905273ffffffffffffffffffffffffffffffffffffffff881690639dc29fac90604401602060405180830381600087803b15801561066b57600080fd5b505af115801561067f573d6000803e3d6000fd5b505050506040513d601f19601f820116820180604052508101906106a391906122d8565b506020810151815190935091506106e6565b6106d773ffffffffffffffffffffffffffffffffffffffff88163330896117fd565b60425487935063ffffffff1691505b505b6041546040805173ffffffffffffffffffffffffffffffffffffffff85811682526020820189905263ffffffff858116838501528881166060840152908716608083015290921660a0830152517fb9cc79b4411bd33ec9620f8fe3d6236a5d18050ca48e991864dc0556a83d1a2b9181900360c00190a161076c82868387876118df565b60465473ffffffffffffffffffffffffffffffffffffffff166333d6247d61079261131a565b6040518263ffffffff1660e01b81526004016107b091815260200190565b600060405180830381600087803b1580156107ca57600080fd5b505af11580156107de573d6000803e3d6000fd5b50505050505050505050565b63ffffffff841660009081526043602052604090205460ff161561086a576040517f08c379a000000000000000000000000000000000000000000000000000000000815260206004820152601e60248201527f4272696467653a3a636c61696d3a20414c52454144595f434c41494d4544000060448201526064016104ec565b60425463ffffffff888116911614610904576040517f08c379a000000000000000000000000000000000000000000000000000000000815260206004820152603160248201527f4272696467653a3a636c61696d3a2044455354494e4154494f4e5f4e4554574f60448201527f524b5f444f45535f4e4f545f4d4154434800000000000000000000000000000060648201526084016104ec565b6046546040517f3381fe900000000000000000000000000000000000000000000000000000000081526004810185905273ffffffffffffffffffffffffffffffffffffffff90911690633381fe9090602401602060405180830381600087803b15801561097057600080fd5b505af1158015610984573d6000803e3d6000fd5b505050506040513d601f19601f820116820180604052508101906109a891906122fa565b60408051602081018590529081018390526060016040516020818303038152906040528051906020012014610a5f576040517f08c379a000000000000000000000000000000000000000000000000000000000815260206004820152602e60248201527f4272696467653a3a636c61696d3a20474c4f42414c5f455849545f524f4f545f60448201527f444f45535f4e4f545f4d4154434800000000000000000000000000000000000060648201526084016104ec565b60425463ffffffff16610aed57610a828a8a8a8a8a8a8a63ffffffff1688611474565b610ae8576040517f08c379a000000000000000000000000000000000000000000000000000000000815260206004820152601a60248201527f4272696467653a3a636c61696d3a20534d545f494e56414c494400000000000060448201526064016104ec565b610b69565b610b038a8a8a8a8a8a8a63ffffffff1689611474565b610b69576040517f08c379a000000000000000000000000000000000000000000000000000000000815260206004820152601a60248201527f4272696467653a3a636c61696d3a20534d545f494e56414c494400000000000060448201526064016104ec565b63ffffffff8416600090815260436020526040902080547fffffffffffffffffffffffffffffffffffffffffffffffffffffffffffffff0016600117905573ffffffffffffffffffffffffffffffffffffffff8a16610cd2576040805160008082526020820190925273ffffffffffffffffffffffffffffffffffffffff8816908b90604051610bf9919061233f565b60006040518083038185875af1925050503d8060008114610c36576040519150601f19603f3d011682016040523d82523d6000602084013e610c3b565b606091505b5050905080610ccc576040517f08c379a000000000000000000000000000000000000000000000000000000000815260206004820152602260248201527f4272696467653a3a636c61696d3a204554485f5452414e534645525f4641494c60448201527f454400000000000000000000000000000000000000000000000000000000000060648201526084016104ec565b50611148565b60425463ffffffff89811691161415610d0b57610d0673ffffffffffffffffffffffffffffffffffffffff8b16878b611ae7565b611148565b6040517fffffffff0000000000000000000000000000000000000000000000000000000060e08a901b1660208201527fffffffffffffffffffffffffffffffffffffffff00000000000000000000000060608c901b166024820152600090603801604080517fffffffffffffffffffffffffffffffffffffffffffffffffffffffffffffffe081840301815291815281516020928301206000818152604490935291205490915073ffffffffffffffffffffffffffffffffffffffff168061109b576000610df97f000000000000000000000000000000000000000000000000000000000000000084611b42565b6040517f6c94522100000000000000000000000000000000000000000000000000000000815260a060048083019190915260a48201527f6e616d650000000000000000000000000000000000000000000000000000000060c482015260e06024820152600660e48201527f73796d626f6c00000000000000000000000000000000000000000000000000006101048201526012604482015273ffffffffffffffffffffffffffffffffffffffff8b81166064830152608482018f905291925090821690636c9452219061012401600060405180830381600087803b158015610ee057600080fd5b505af1158015610ef4573d6000803e3d6000fd5b50505050806044600085815260200190815260200160002060006101000a81548173ffffffffffffffffffffffffffffffffffffffff021916908373ffffffffffffffffffffffffffffffffffffffff16021790555060405180604001604052808c63ffffffff1681526020018e73ffffffffffffffffffffffffffffffffffffffff16815250604560008373ffffffffffffffffffffffffffffffffffffffff1673ffffffffffffffffffffffffffffffffffffffff16815260200190815260200160002060008201518160000160006101000a81548163ffffffff021916908363ffffffff16021790555060208201518160000160046101000a81548173ffffffffffffffffffffffffffffffffffffffff021916908373ffffffffffffffffffffffffffffffffffffffff1602179055509050507fccd7715648d1f2bb13e158f96b5b6c3aeda555d4cb87112e274a6f28bc571d598b8e8360405161108d9392919063ffffffff93909316835273ffffffffffffffffffffffffffffffffffffffff918216602084015216604082015260600190565b60405180910390a150611145565b6040517f40c10f1900000000000000000000000000000000000000000000000000000000815273ffffffffffffffffffffffffffffffffffffffff8981166004830152602482018d90528216906340c10f1990604401602060405180830381600087803b15801561110b57600080fd5b505af115801561111f573d6000803e3d6000fd5b505050506040513d601f19601f8201168201806040525081019061114391906122d8565b505b50505b6040805163ffffffff86811682528a16602082015273ffffffffffffffffffffffffffffffffffffffff8c811682840152606082018c90528816608082015290517f6aec77db51699eb95c99cdf3d230d727c40d03cc47ade310b68e3c4185b90e729181900360a00190a150505050505050505050565b6040805160e084901b7fffffffff0000000000000000000000000000000000000000000000000000000016602080830191909152606084901b7fffffffffffffffffffffffffffffffffffffffff000000000000000000000000166024830152825160188184030181526038909201835281519181019190912060009081526044909152205473ffffffffffffffffffffffffffffffffffffffff165b92915050565b60005473ffffffffffffffffffffffffffffffffffffffff1633146112e3576040517f08c379a000000000000000000000000000000000000000000000000000000000815260206004820181905260248201527f4f776e61626c653a2063616c6c6572206973206e6f7420746865206f776e657260448201526064016104ec565b604280547fffffffffffffffffffffffffffffffffffffffffffffffffffffffff000000001663ffffffff92909216919091179055565b6041546000908190815b60208110156113df57816001166001141561137f576001816020811061134c5761134c61235b565b015460408051602081019290925281018490526060016040516020818303038152906040528051906020012092506113c0565b82602182602081106113935761139361235b565b01546040805160208101939093528201526060016040516020818303038152906040528051906020012092505b6113cb6002836123b9565b9150806113d7816123f4565b915050611324565b509092915050565b60005473ffffffffffffffffffffffffffffffffffffffff163314611468576040517f08c379a000000000000000000000000000000000000000000000000000000000815260206004820181905260248201527f4f776e61626c653a2063616c6c6572206973206e6f7420746865206f776e657260448201526064016104ec565b6114726000611c20565b565b6040517fffffffff0000000000000000000000000000000000000000000000000000000060e088811b821660208401527fffffffffffffffffffffffffffffffffffffffff00000000000000000000000060608c811b82166024860152603885018c90529189901b909216605884015286901b16605c8201526000908190607001604080517fffffffffffffffffffffffffffffffffffffffffffffffffffffffffffffffe08184030181529190528051602090910120905067ffffffffffffffff841660005b602081101561160f5781600116600114156115a2578681815181106115625761156261235b565b602002602001015183604051602001611585929190918252602082015260400190565b6040516020818303038152906040528051906020012092506115f0565b828782815181106115b5576115b561235b565b60200260200101516040516020016115d7929190918252602082015260400190565b6040516020818303038152906040528051906020012092505b6115fb6002836123b9565b915080611607816123f4565b91505061153b565b505090911498975050505050505050565b6040517fffffffff0000000000000000000000000000000000000000000000000000000060e084901b1660208201527fffffffffffffffffffffffffffffffffffffffff000000000000000000000000606083901b16602482015260009081906038016040516020818303038152906040528051906020012090506116c57f000000000000000000000000000000000000000000000000000000000000000082611c95565b949350505050565b60005473ffffffffffffffffffffffffffffffffffffffff16331461174e576040517f08c379a000000000000000000000000000000000000000000000000000000000815260206004820181905260248201527f4f776e61626c653a2063616c6c6572206973206e6f7420746865206f776e657260448201526064016104ec565b73ffffffffffffffffffffffffffffffffffffffff81166117f1576040517f08c379a000000000000000000000000000000000000000000000000000000000815260206004820152602660248201527f4f776e61626c653a206e6577206f776e657220697320746865207a65726f206160448201527f646472657373000000000000000000000000000000000000000000000000000060648201526084016104ec565b6117fa81611c20565b50565b60405173ffffffffffffffffffffffffffffffffffffffff808516602483015283166044820152606481018290526118d99085907f23b872dd00000000000000000000000000000000000000000000000000000000906084015b604080517fffffffffffffffffffffffffffffffffffffffffffffffffffffffffffffffe08184030181529190526020810180517bffffffffffffffffffffffffffffffffffffffffffffffffffffffff167fffffffff0000000000000000000000000000000000000000000000000000000090931692909217909152611d18565b50505050565b6040517fffffffff0000000000000000000000000000000000000000000000000000000060e085811b821660208401527fffffffffffffffffffffffffffffffffffffffff000000000000000000000000606089811b82166024860152603885018990529186901b909216605884015283901b16605c820152600090607001604051602081830303815290604052805190602001209050600160206002611986919061254d565b6119909190612559565b60415410611a20576040517f08c379a000000000000000000000000000000000000000000000000000000000815260206004820152602a60248201527f4465706f736974436f6e74726163743a5f6465706f7369743a204d45524b4c4560448201527f5f545245455f46554c4c0000000000000000000000000000000000000000000060648201526084016104ec565b600160416000828254611a339190612570565b909155505060415460005b6020811015611ad4578160011660011415611a72578260018260208110611a6757611a6761235b565b015550611ae0915050565b60018160208110611a8557611a8561235b565b01546040805160208101929092528101849052606001604051602081830303815290604052805190602001209250600282611ac091906123b9565b915080611acc816123f4565b915050611a3e565b50611add612588565b50505b5050505050565b60405173ffffffffffffffffffffffffffffffffffffffff8316602482015260448101829052611b3d9084907fa9059cbb0000000000000000000000000000000000000000000000000000000090606401611857565b505050565b60006040517f3d602d80600a3d3981f3363d3d373d3d3d363d7300000000000000000000000081528360601b60148201527f5af43d82803e903d91602b57fd5bf300000000000000000000000000000000006028820152826037826000f591505073ffffffffffffffffffffffffffffffffffffffff811661125c576040517f08c379a000000000000000000000000000000000000000000000000000000000815260206004820152601760248201527f455243313136373a2063726561746532206661696c656400000000000000000060448201526064016104ec565b6000805473ffffffffffffffffffffffffffffffffffffffff8381167fffffffffffffffffffffffff0000000000000000000000000000000000000000831681178455604051919092169283917f8be0079c531659141344cd1fd0a4f28419497f9722a3daafe3b4186f6b6457e09190a35050565b6000611d118383306040517f3d602d80600a3d3981f3363d3d373d3d3d363d730000000000000000000000008152606093841b60148201527f5af43d82803e903d91602b57fd5bf3ff000000000000000000000000000000006028820152921b6038830152604c8201526037808220606c830152605591012090565b9392505050565b6000611d7a826040518060400160405280602081526020017f5361666545524332303a206c6f772d6c6576656c2063616c6c206661696c65648152508573ffffffffffffffffffffffffffffffffffffffff16611e249092919063ffffffff16565b805190915015611b3d5780806020019051810190611d9891906122d8565b611b3d576040517f08c379a000000000000000000000000000000000000000000000000000000000815260206004820152602a60248201527f5361666545524332303a204552433230206f7065726174696f6e20646964206e60448201527f6f7420737563636565640000000000000000000000000000000000000000000060648201526084016104ec565b60606116c584846000858573ffffffffffffffffffffffffffffffffffffffff85163b611ead576040517f08c379a000000000000000000000000000000000000000000000000000000000815260206004820152601d60248201527f416464726573733a2063616c6c20746f206e6f6e2d636f6e747261637400000060448201526064016104ec565b6000808673ffffffffffffffffffffffffffffffffffffffff168587604051611ed6919061233f565b60006040518083038185875af1925050503d8060008114611f13576040519150601f19603f3d011682016040523d82523d6000602084013e611f18565b606091505b5091509150611f28828286611f33565b979650505050505050565b60608315611f42575081611d11565b825115611f525782518084602001fd5b816040517f08c379a00000000000000000000000000000000000000000000000000000000081526004016104ec91906125b7565b600060208284031215611f9857600080fd5b5035919050565b803573ffffffffffffffffffffffffffffffffffffffff81168114611fc357600080fd5b919050565b803563ffffffff81168114611fc357600080fd5b60008060008060808587031215611ff257600080fd5b611ffb85611f9f565b93506020850135925061201060408601611fc8565b915061201e60608601611f9f565b905092959194509250565b7f4e487b7100000000000000000000000000000000000000000000000000000000600052604160045260246000fd5b600082601f83011261206957600080fd5b8135602067ffffffffffffffff8083111561208657612086612029565b8260051b6040517fffffffffffffffffffffffffffffffffffffffffffffffffffffffffffffffe0603f830116810181811084821117156120c9576120c9612029565b6040529384528581018301938381019250878511156120e757600080fd5b83870191505b84821015611f28578135835291830191908301906120ed565b6000806000806000806000806000806101408b8d03121561212657600080fd5b61212f8b611f9f565b995060208b0135985061214460408c01611fc8565b975061215260608c01611fc8565b965061216060808c01611f9f565b955060a08b013567ffffffffffffffff81111561217c57600080fd5b6121888d828e01612058565b95505061219760c08c01611fc8565b935060e08b013592506101008b013591506101208b013590509295989b9194979a5092959850565b600080604083850312156121d257600080fd5b6121db83611fc8565b91506121e960208401611f9f565b90509250929050565b60006020828403121561220457600080fd5b611d1182611fc8565b60006020828403121561221f57600080fd5b611d1182611f9f565b600080600080600080600080610100898b03121561224557600080fd5b61224e89611f9f565b97506020890135965061226360408a01611fc8565b955061227160608a01611fc8565b945061227f60808a01611f9f565b935060a089013567ffffffffffffffff8082111561229c57600080fd5b6122a88c838d01612058565b945060c08b0135915080821682146122bf57600080fd5b508092505060e089013590509295985092959890939650565b6000602082840312156122ea57600080fd5b81518015158114611d1157600080fd5b60006020828403121561230c57600080fd5b5051919050565b60005b8381101561232e578181015183820152602001612316565b838111156118d95750506000910152565b60008251612351818460208701612313565b9190910192915050565b7f4e487b7100000000000000000000000000000000000000000000000000000000600052603260045260246000fd5b7f4e487b7100000000000000000000000000000000000000000000000000000000600052601160045260246000fd5b6000826123ef577f4e487b7100000000000000000000000000000000000000000000000000000000600052601260045260246000fd5b500490565b60007fffffffffffffffffffffffffffffffffffffffffffffffffffffffffffffffff8214156124265761242661238a565b5060010190565b600181815b8085111561248657817fffffffffffffffffffffffffffffffffffffffffffffffffffffffffffffffff0482111561246c5761246c61238a565b8085161561247957918102915b93841c9390800290612432565b509250929050565b60008261249d5750600161125c565b816124aa5750600061125c565b81600181146124c057600281146124ca576124e6565b600191505061125c565b60ff8411156124db576124db61238a565b50506001821b61125c565b5060208310610133831016604e8410600b8410161715612509575081810a61125c565b612513838361242d565b807fffffffffffffffffffffffffffffffffffffffffffffffffffffffffffffffff048211156125455761254561238a565b029392505050565b6000611d11838361248e565b60008282101561256b5761256b61238a565b500390565b600082198211156125835761258361238a565b500190565b7f4e487b7100000000000000000000000000000000000000000000000000000000600052600160045260246000fd5b60208152600082518060208401526125d6816040850160208701612313565b601f017fffffffffffffffffffffffffffffffffffffffffffffffffffffffffffffffe016919091016040019291505056fea26469706673582212202132246243ea0b8e4ddea88e4566576b4fd6568deec149773b0d274faeb47b7864736f6c6343000809003360806040523480156200001157600080fd5b50600054610100900460ff166200002f5760005460ff161562000039565b62000039620000de565b620000a15760405162461bcd60e51b815260206004820152602e60248201527f496e697469616c697a61626c653a20636f6e747261637420697320616c72656160448201526d191e481a5b9a5d1a585b1a5e995960921b606482015260840160405180910390fd5b600054610100900460ff16158015620000c4576000805461ffff19166101011790555b8015620000d7576000805461ff00191690555b506200010b565b6000620000f630620000fc60201b6200079c1760201c565b15905090565b6001600160a01b03163b151590565b6115a3806200011b6000396000f3fe608060405234801561001057600080fd5b50600436106100f55760003560e01c80636c94522111610097578063a3c573eb11610066578063a3c573eb1461021c578063a457c2d714610261578063a9059cbb14610274578063dd62ed3e1461028757600080fd5b80636c945221146101b657806370a08231146101cb57806395d89b41146102015780639dc29fac1461020957600080fd5b806323b872dd116100d357806323b872dd1461014d578063313ce56714610160578063395093511461019057806340c10f19146101a357600080fd5b806306fdde03146100fa578063095ea7b31461011857806318160ddd1461013b575b600080fd5b6101026102cd565b60405161010f91906111f5565b60405180910390f35b61012b610126366004611291565b61035f565b604051901515815260200161010f565b6035545b60405190815260200161010f565b61012b61015b3660046112bb565b610377565b60655474010000000000000000000000000000000000000000900460ff1660405160ff909116815260200161010f565b61012b61019e366004611291565b61039b565b61012b6101b1366004611291565b6103e7565b6101c96101c43660046113d1565b610483565b005b61013f6101d9366004611466565b73ffffffffffffffffffffffffffffffffffffffff1660009081526033602052604090205490565b610102610620565b61012b610217366004611291565b61062f565b60655461023c9073ffffffffffffffffffffffffffffffffffffffff1681565b60405173ffffffffffffffffffffffffffffffffffffffff909116815260200161010f565b61012b61026f366004611291565b6106bd565b61012b610282366004611291565b61078e565b61013f610295366004611488565b73ffffffffffffffffffffffffffffffffffffffff918216600090815260346020908152604080832093909416825291909152205490565b6060603680546102dc906114bb565b80601f0160208091040260200160405190810160405280929190818152602001828054610308906114bb565b80156103555780601f1061032a57610100808354040283529160200191610355565b820191906000526020600020905b81548152906001019060200180831161033857829003601f168201915b5050505050905090565b60003361036d8185856107b8565b5060019392505050565b60003361038585828561096c565b610390858585610a43565b506001949350505050565b33600081815260346020908152604080832073ffffffffffffffffffffffffffffffffffffffff8716845290915281205490919061036d90829086906103e290879061153e565b6107b8565b60655460009073ffffffffffffffffffffffffffffffffffffffff163314610470576040517f08c379a000000000000000000000000000000000000000000000000000000000815260206004820152601760248201527f546f6b656e577261707065643a4e4f545f42524944474500000000000000000060448201526064015b60405180910390fd5b61047a8383610cf6565b50600192915050565b600054610100900460ff1661049e5760005460ff16156104a2565b303b155b61052e576040517f08c379a000000000000000000000000000000000000000000000000000000000815260206004820152602e60248201527f496e697469616c697a61626c653a20636f6e747261637420697320616c72656160448201527f647920696e697469616c697a65640000000000000000000000000000000000006064820152608401610467565b600054610100900460ff1615801561056d57600080547fffffffffffffffffffffffffffffffffffffffffffffffffffffffffffff0000166101011790555b6105778686610e17565b606580547fffffffffffffffffffffff00000000000000000000000000000000000000000016337fffffffffffffffffffffff00ffffffffffffffffffffffffffffffffffffffff16177401000000000000000000000000000000000000000060ff8716021790556105e98383610cf6565b801561061857600080547fffffffffffffffffffffffffffffffffffffffffffffffffffffffffffff00ff1690555b505050505050565b6060603780546102dc906114bb565b60655460009073ffffffffffffffffffffffffffffffffffffffff1633146106b3576040517f08c379a000000000000000000000000000000000000000000000000000000000815260206004820152601760248201527f546f6b656e577261707065643a4e4f545f4252494447450000000000000000006044820152606401610467565b61047a8383610eb8565b33600081815260346020908152604080832073ffffffffffffffffffffffffffffffffffffffff8716845290915281205490919083811015610781576040517f08c379a000000000000000000000000000000000000000000000000000000000815260206004820152602560248201527f45524332303a2064656372656173656420616c6c6f77616e63652062656c6f7760448201527f207a65726f0000000000000000000000000000000000000000000000000000006064820152608401610467565b61039082868684036107b8565b60003361036d818585610a43565b73ffffffffffffffffffffffffffffffffffffffff163b151590565b73ffffffffffffffffffffffffffffffffffffffff831661085a576040517f08c379a0000000000000000000000000000000000000000000000000000000008152602060048201526024808201527f45524332303a20617070726f76652066726f6d20746865207a65726f2061646460448201527f72657373000000000000000000000000000000000000000000000000000000006064820152608401610467565b73ffffffffffffffffffffffffffffffffffffffff82166108fd576040517f08c379a000000000000000000000000000000000000000000000000000000000815260206004820152602260248201527f45524332303a20617070726f766520746f20746865207a65726f20616464726560448201527f73730000000000000000000000000000000000000000000000000000000000006064820152608401610467565b73ffffffffffffffffffffffffffffffffffffffff83811660008181526034602090815260408083209487168084529482529182902085905590518481527f8c5be1e5ebec7d5bd14f71427d1e84f3dd0314c0f7b2291e5b200ac8c7c3b92591015b60405180910390a3505050565b73ffffffffffffffffffffffffffffffffffffffff8381166000908152603460209081526040808320938616835292905220547fffffffffffffffffffffffffffffffffffffffffffffffffffffffffffffffff8114610a3d5781811015610a30576040517f08c379a000000000000000000000000000000000000000000000000000000000815260206004820152601d60248201527f45524332303a20696e73756666696369656e7420616c6c6f77616e63650000006044820152606401610467565b610a3d84848484036107b8565b50505050565b73ffffffffffffffffffffffffffffffffffffffff8316610ae6576040517f08c379a000000000000000000000000000000000000000000000000000000000815260206004820152602560248201527f45524332303a207472616e736665722066726f6d20746865207a65726f20616460448201527f64726573730000000000000000000000000000000000000000000000000000006064820152608401610467565b73ffffffffffffffffffffffffffffffffffffffff8216610b89576040517f08c379a000000000000000000000000000000000000000000000000000000000815260206004820152602360248201527f45524332303a207472616e7366657220746f20746865207a65726f206164647260448201527f65737300000000000000000000000000000000000000000000000000000000006064820152608401610467565b73ffffffffffffffffffffffffffffffffffffffff831660009081526033602052604090205481811015610c3f576040517f08c379a000000000000000000000000000000000000000000000000000000000815260206004820152602660248201527f45524332303a207472616e7366657220616d6f756e742065786365656473206260448201527f616c616e636500000000000000000000000000000000000000000000000000006064820152608401610467565b73ffffffffffffffffffffffffffffffffffffffff808516600090815260336020526040808220858503905591851681529081208054849290610c8390849061153e565b925050819055508273ffffffffffffffffffffffffffffffffffffffff168473ffffffffffffffffffffffffffffffffffffffff167fddf252ad1be2c89b69c2b068fc378daa952ba7f163c4a11628f55a4df523b3ef84604051610ce991815260200190565b60405180910390a3610a3d565b73ffffffffffffffffffffffffffffffffffffffff8216610d73576040517f08c379a000000000000000000000000000000000000000000000000000000000815260206004820152601f60248201527f45524332303a206d696e7420746f20746865207a65726f2061646472657373006044820152606401610467565b8060356000828254610d85919061153e565b909155505073ffffffffffffffffffffffffffffffffffffffff821660009081526033602052604081208054839290610dbf90849061153e565b909155505060405181815273ffffffffffffffffffffffffffffffffffffffff8316906000907fddf252ad1be2c89b69c2b068fc378daa952ba7f163c4a11628f55a4df523b3ef9060200160405180910390a35b5050565b600054610100900460ff16610eae576040517f08c379a000000000000000000000000000000000000000000000000000000000815260206004820152602b60248201527f496e697469616c697a61626c653a20636f6e7472616374206973206e6f74206960448201527f6e697469616c697a696e670000000000000000000000000000000000000000006064820152608401610467565b610e1382826110a2565b73ffffffffffffffffffffffffffffffffffffffff8216610f5b576040517f08c379a000000000000000000000000000000000000000000000000000000000815260206004820152602160248201527f45524332303a206275726e2066726f6d20746865207a65726f2061646472657360448201527f73000000000000000000000000000000000000000000000000000000000000006064820152608401610467565b73ffffffffffffffffffffffffffffffffffffffff821660009081526033602052604090205481811015611011576040517f08c379a000000000000000000000000000000000000000000000000000000000815260206004820152602260248201527f45524332303a206275726e20616d6f756e7420657863656564732062616c616e60448201527f63650000000000000000000000000000000000000000000000000000000000006064820152608401610467565b73ffffffffffffffffffffffffffffffffffffffff8316600090815260336020526040812083830390556035805484929061104d908490611556565b909155505060405182815260009073ffffffffffffffffffffffffffffffffffffffff8516907fddf252ad1be2c89b69c2b068fc378daa952ba7f163c4a11628f55a4df523b3ef9060200161095f565b505050565b600054610100900460ff16611139576040517f08c379a000000000000000000000000000000000000000000000000000000000815260206004820152602b60248201527f496e697469616c697a61626c653a20636f6e7472616374206973206e6f74206960448201527f6e697469616c697a696e670000000000000000000000000000000000000000006064820152608401610467565b815161114c90603690602085019061115c565b50805161109d9060379060208401905b828054611168906114bb565b90600052602060002090601f01602090048101928261118a57600085556111d0565b82601f106111a357805160ff19168380011785556111d0565b828001600101855582156111d0579182015b828111156111d05782518255916020019190600101906111b5565b506111dc9291506111e0565b5090565b5b808211156111dc57600081556001016111e1565b600060208083528351808285015260005b8181101561122257858101830151858201604001528201611206565b81811115611234576000604083870101525b50601f017fffffffffffffffffffffffffffffffffffffffffffffffffffffffffffffffe016929092016040019392505050565b803573ffffffffffffffffffffffffffffffffffffffff8116811461128c57600080fd5b919050565b600080604083850312156112a457600080fd5b6112ad83611268565b946020939093013593505050565b6000806000606084860312156112d057600080fd5b6112d984611268565b92506112e760208501611268565b9150604084013590509250925092565b7f4e487b7100000000000000000000000000000000000000000000000000000000600052604160045260246000fd5b600082601f83011261133757600080fd5b813567ffffffffffffffff80821115611352576113526112f7565b604051601f83017fffffffffffffffffffffffffffffffffffffffffffffffffffffffffffffffe0908116603f01168101908282118183101715611398576113986112f7565b816040528381528660208588010111156113b157600080fd5b836020870160208301376000602085830101528094505050505092915050565b600080600080600060a086880312156113e957600080fd5b853567ffffffffffffffff8082111561140157600080fd5b61140d89838a01611326565b9650602088013591508082111561142357600080fd5b5061143088828901611326565b945050604086013560ff8116811461144757600080fd5b925061145560608701611268565b949793965091946080013592915050565b60006020828403121561147857600080fd5b61148182611268565b9392505050565b6000806040838503121561149b57600080fd5b6114a483611268565b91506114b260208401611268565b90509250929050565b600181811c908216806114cf57607f821691505b60208210811415611509577f4e487b7100000000000000000000000000000000000000000000000000000000600052602260045260246000fd5b50919050565b7f4e487b7100000000000000000000000000000000000000000000000000000000600052601160045260246000fd5b600082198211156115515761155161150f565b500190565b6000828210156115685761156861150f565b50039056fea2646970667358221220eeb9fa8dacacadc3cfcbfa472587c722f506f65f5b67ebd9e7082b88b487c58a64736f6c63430008090033",
  "linkReferences": {},
  "deployedLinkReferences": {}
}