{
  "_format": "hh-sol-artifact-1",
  "contractName": "BridgeMock",
  "sourceName": "contracts/mocks/BridgeMock.sol",
  "abi": [
    {
      "anonymous": false,
      "inputs": [
        {
          "indexed": false,
          "internalType": "uint32",
          "name": "originNetwork",
          "type": "uint32"
        },
        {
          "indexed": false,
          "internalType": "address",
          "name": "originTokenAddress",
          "type": "address"
        },
        {
          "indexed": false,
          "internalType": "uint32",
          "name": "destinationNetwork",
          "type": "uint32"
        },
        {
          "indexed": false,
          "internalType": "address",
          "name": "destinationAddress",
          "type": "address"
        },
        {
          "indexed": false,
          "internalType": "uint256",
          "name": "amount",
          "type": "uint256"
        },
        {
          "indexed": false,
          "internalType": "bytes",
          "name": "metadata",
          "type": "bytes"
        },
        {
          "indexed": false,
          "internalType": "uint32",
          "name": "depositCount",
          "type": "uint32"
        }
      ],
      "name": "BridgeEvent",
      "type": "event"
    },
    {
      "anonymous": false,
      "inputs": [
        {
          "indexed": false,
          "internalType": "uint32",
          "name": "index",
          "type": "uint32"
        },
        {
          "indexed": false,
          "internalType": "uint32",
          "name": "originNetwork",
          "type": "uint32"
        },
        {
          "indexed": false,
          "internalType": "address",
          "name": "originTokenAddress",
          "type": "address"
        },
        {
          "indexed": false,
          "internalType": "address",
          "name": "destinationAddress",
          "type": "address"
        },
        {
          "indexed": false,
          "internalType": "uint256",
          "name": "amount",
          "type": "uint256"
        }
      ],
      "name": "ClaimEvent",
      "type": "event"
    },
    {
      "anonymous": false,
      "inputs": [
        {
          "indexed": false,
          "internalType": "uint8",
          "name": "version",
          "type": "uint8"
        }
      ],
      "name": "Initialized",
      "type": "event"
    },
    {
      "anonymous": false,
      "inputs": [
        {
          "indexed": false,
          "internalType": "uint32",
          "name": "originNetwork",
          "type": "uint32"
        },
        {
          "indexed": false,
          "internalType": "address",
          "name": "originTokenAddress",
          "type": "address"
        },
        {
          "indexed": false,
          "internalType": "address",
          "name": "wrappedTokenAddress",
          "type": "address"
        }
      ],
      "name": "NewWrappedToken",
      "type": "event"
    },
    {
      "anonymous": false,
      "inputs": [
        {
          "indexed": true,
          "internalType": "address",
          "name": "previousOwner",
          "type": "address"
        },
        {
          "indexed": true,
          "internalType": "address",
          "name": "newOwner",
          "type": "address"
        }
      ],
      "name": "OwnershipTransferred",
      "type": "event"
    },
    {
      "inputs": [],
      "name": "MAINNET_NETWORK_ID",
      "outputs": [
        {
          "internalType": "uint32",
          "name": "",
          "type": "uint32"
        }
      ],
      "stateMutability": "view",
      "type": "function"
    },
    {
      "inputs": [
        {
          "internalType": "address",
          "name": "token",
          "type": "address"
        },
        {
          "internalType": "uint32",
          "name": "destinationNetwork",
          "type": "uint32"
        },
        {
          "internalType": "address",
          "name": "destinationAddress",
          "type": "address"
        },
        {
          "internalType": "uint256",
          "name": "amount",
          "type": "uint256"
        },
        {
          "internalType": "bytes",
          "name": "permitData",
          "type": "bytes"
        }
      ],
      "name": "bridge",
      "outputs": [],
      "stateMutability": "payable",
      "type": "function"
    },
    {
      "inputs": [
        {
          "internalType": "bytes32[]",
          "name": "smtProof",
          "type": "bytes32[]"
        },
        {
          "internalType": "uint32",
          "name": "index",
          "type": "uint32"
        },
        {
          "internalType": "bytes32",
          "name": "mainnetExitRoot",
          "type": "bytes32"
        },
        {
          "internalType": "bytes32",
          "name": "rollupExitRoot",
          "type": "bytes32"
        },
        {
          "internalType": "uint32",
          "name": "originNetwork",
          "type": "uint32"
        },
        {
          "internalType": "address",
          "name": "originTokenAddress",
          "type": "address"
        },
        {
          "internalType": "uint32",
          "name": "destinationNetwork",
          "type": "uint32"
        },
        {
          "internalType": "address",
          "name": "destinationAddress",
          "type": "address"
        },
        {
          "internalType": "uint256",
          "name": "amount",
          "type": "uint256"
        },
        {
          "internalType": "bytes",
          "name": "metadata",
          "type": "bytes"
        }
      ],
      "name": "claim",
      "outputs": [],
      "stateMutability": "nonpayable",
      "type": "function"
    },
    {
      "inputs": [
        {
          "internalType": "uint256",
          "name": "",
          "type": "uint256"
        }
      ],
      "name": "claimNullifier",
      "outputs": [
        {
          "internalType": "bool",
          "name": "",
          "type": "bool"
        }
      ],
      "stateMutability": "view",
      "type": "function"
    },
    {
      "inputs": [],
      "name": "depositCount",
      "outputs": [
        {
          "internalType": "uint256",
          "name": "",
          "type": "uint256"
        }
      ],
      "stateMutability": "view",
      "type": "function"
    },
    {
      "inputs": [],
      "name": "getDepositRoot",
      "outputs": [
        {
          "internalType": "bytes32",
          "name": "",
          "type": "bytes32"
        }
      ],
      "stateMutability": "view",
      "type": "function"
    },
    {
      "inputs": [
        {
          "internalType": "uint32",
          "name": "originNetwork",
          "type": "uint32"
        },
        {
          "internalType": "address",
          "name": "originTokenAddress",
          "type": "address"
        },
        {
          "internalType": "uint32",
          "name": "destinationNetwork",
          "type": "uint32"
        },
        {
          "internalType": "address",
          "name": "destinationAddress",
          "type": "address"
        },
        {
          "internalType": "uint256",
          "name": "amount",
          "type": "uint256"
        },
        {
          "internalType": "bytes32",
          "name": "metadataHash",
          "type": "bytes32"
        }
      ],
      "name": "getLeafValue",
      "outputs": [
        {
          "internalType": "bytes32",
          "name": "",
          "type": "bytes32"
        }
      ],
      "stateMutability": "pure",
      "type": "function"
    },
    {
      "inputs": [
        {
          "internalType": "uint32",
          "name": "originNetwork",
          "type": "uint32"
        },
        {
          "internalType": "address",
          "name": "originTokenAddress",
          "type": "address"
        }
      ],
      "name": "getTokenWrappedAddress",
      "outputs": [
        {
          "internalType": "address",
          "name": "",
          "type": "address"
        }
      ],
      "stateMutability": "view",
      "type": "function"
    },
    {
      "inputs": [],
      "name": "globalExitRootManager",
      "outputs": [
        {
          "internalType": "contract IGlobalExitRootManager",
          "name": "",
          "type": "address"
        }
      ],
      "stateMutability": "view",
      "type": "function"
    },
    {
      "inputs": [
        {
          "internalType": "uint32",
          "name": "_networkID",
          "type": "uint32"
        },
        {
          "internalType": "contract IGlobalExitRootManager",
          "name": "_globalExitRootManager",
          "type": "address"
        }
      ],
      "name": "initialize",
      "outputs": [],
      "stateMutability": "nonpayable",
      "type": "function"
    },
    {
      "inputs": [],
      "name": "maxEtherBridge",
      "outputs": [
        {
          "internalType": "uint256",
          "name": "",
          "type": "uint256"
        }
      ],
      "stateMutability": "view",
      "type": "function"
    },
    {
      "inputs": [],
      "name": "networkID",
      "outputs": [
        {
          "internalType": "uint32",
          "name": "",
          "type": "uint32"
        }
      ],
      "stateMutability": "view",
      "type": "function"
    },
    {
      "inputs": [],
      "name": "owner",
      "outputs": [
        {
          "internalType": "address",
          "name": "",
          "type": "address"
        }
      ],
      "stateMutability": "view",
      "type": "function"
    },
    {
      "inputs": [
        {
          "internalType": "uint32",
          "name": "originNetwork",
          "type": "uint32"
        },
        {
          "internalType": "address",
          "name": "originTokenAddress",
          "type": "address"
        }
      ],
      "name": "precalculatedWrapperAddress",
      "outputs": [
        {
          "internalType": "address",
          "name": "",
          "type": "address"
        }
      ],
      "stateMutability": "view",
      "type": "function"
    },
    {
      "inputs": [],
      "name": "renounceOwnership",
      "outputs": [],
      "stateMutability": "nonpayable",
      "type": "function"
    },
    {
      "inputs": [
        {
          "internalType": "uint256",
          "name": "_maxEtherBridge",
          "type": "uint256"
        }
      ],
      "name": "setMaxEtherBridge",
      "outputs": [],
      "stateMutability": "nonpayable",
      "type": "function"
    },
    {
      "inputs": [
        {
          "internalType": "uint32",
          "name": "_networkID",
          "type": "uint32"
        }
      ],
      "name": "setNetworkID",
      "outputs": [],
      "stateMutability": "nonpayable",
      "type": "function"
    },
    {
      "inputs": [],
      "name": "tokenImplementation",
      "outputs": [
        {
          "internalType": "address",
          "name": "",
          "type": "address"
        }
      ],
      "stateMutability": "view",
      "type": "function"
    },
    {
      "inputs": [
        {
          "internalType": "bytes32",
          "name": "",
          "type": "bytes32"
        }
      ],
      "name": "tokenInfoToWrappedToken",
      "outputs": [
        {
          "internalType": "address",
          "name": "",
          "type": "address"
        }
      ],
      "stateMutability": "view",
      "type": "function"
    },
    {
      "inputs": [
        {
          "internalType": "address",
          "name": "newOwner",
          "type": "address"
        }
      ],
      "name": "transferOwnership",
      "outputs": [],
      "stateMutability": "nonpayable",
      "type": "function"
    },
    {
      "inputs": [
        {
          "internalType": "bytes32",
          "name": "leafHash",
          "type": "bytes32"
        },
        {
          "internalType": "bytes32[]",
          "name": "smtProof",
          "type": "bytes32[]"
        },
        {
          "internalType": "uint64",
          "name": "index",
          "type": "uint64"
        },
        {
          "internalType": "bytes32",
          "name": "root",
          "type": "bytes32"
        }
      ],
      "name": "verifyMerkleProof",
      "outputs": [
        {
          "internalType": "bool",
          "name": "",
          "type": "bool"
        }
      ],
      "stateMutability": "pure",
      "type": "function"
    },
    {
      "inputs": [
        {
          "internalType": "address",
          "name": "",
          "type": "address"
        }
      ],
      "name": "wrappedTokenToTokenInfo",
      "outputs": [
        {
          "internalType": "uint32",
          "name": "originNetwork",
          "type": "uint32"
        },
        {
          "internalType": "address",
          "name": "originTokenAddress",
          "type": "address"
        }
      ],
      "stateMutability": "view",
      "type": "function"
    }
  ],
  "bytecode": "0x608060405234801561001057600080fd5b50614fbe806100206000396000f3fe608060405260043610620001935760003560e01c8063715018a611620000db578063b7e6a7d41162000089578063e73758811162000060578063e737588114620005ab578063ed6be5c914620005df578063f2fde38b14620005f657600080fd5b8063b7e6a7d41462000522578063bab161bf1462000547578063d02103ca146200057c57600080fd5b80638624c35c11620000be5780638624c35c14620004b85780638da5cb5b14620004dd57806391e57e2d146200050a57600080fd5b8063715018a6146200045957806381b1c174146200047157600080fd5b8063318aee3d1162000145578063508935f8116200011c578063508935f814620003605780635a64a1da14620003775780635d5d326f146200043457600080fd5b8063318aee3d14620002895780633ae0504714620003125780633da81682146200032a57600080fd5b80632c3f58cd116200017a5780632c3f58cd146200020e5780632dfdf0b514620002335780632f3a3d5d146200025a57600080fd5b806322e95f2c14620001985780632b5e42e714620001e7575b600080fd5b348015620001a557600080fd5b50620001bd620001b736600462002d01565b6200061b565b60405173ffffffffffffffffffffffffffffffffffffffff90911681526020015b60405180910390f35b348015620001f457600080fd5b506200020c6200020636600462002d3d565b620006be565b005b3480156200021b57600080fd5b506200020c6200022d36600462002d57565b620006cd565b3480156200024057600080fd5b506200024b60415481565b604051908152602001620001de565b3480156200026757600080fd5b50604754620001bd9073ffffffffffffffffffffffffffffffffffffffff1681565b3480156200029657600080fd5b50620002e0620002a836600462002d75565b60456020526000908152604090205463ffffffff811690640100000000900473ffffffffffffffffffffffffffffffffffffffff1682565b6040805163ffffffff909316835273ffffffffffffffffffffffffffffffffffffffff909116602083015201620001de565b3480156200031f57600080fd5b506200024b6200070e565b3480156200033757600080fd5b506200034f6200034936600462002e94565b620007e8565b6040519015158152602001620001de565b6200020c6200037136600462002f02565b620008ea565b3480156200038457600080fd5b506200024b6200039636600462002fbe565b604080517fffffffff0000000000000000000000000000000000000000000000000000000060e098891b81166020808401919091527fffffffffffffffffffffffffffffffffffffffff0000000000000000000000006060998a1b811660248501529790991b1660388201529390951b909316603c830152605082015260708082019290925282518082039092018252609001909152805191012090565b3480156200044157600080fd5b506200020c62000453366004620030d6565b620009c0565b3480156200046657600080fd5b506200020c6200146f565b3480156200047e57600080fd5b50620001bd6200049036600462002d3d565b60446020526000908152604090205473ffffffffffffffffffffffffffffffffffffffff1681565b348015620004c557600080fd5b506200020c620004d736600462002d01565b62001487565b348015620004ea57600080fd5b50607a5473ffffffffffffffffffffffffffffffffffffffff16620001bd565b3480156200051757600080fd5b506200024b60ac5481565b3480156200052f57600080fd5b50620001bd6200054136600462002d01565b6200171b565b3480156200055457600080fd5b50604254620005669063ffffffff1681565b60405163ffffffff9091168152602001620001de565b3480156200058957600080fd5b50604654620001bd9073ffffffffffffffffffffffffffffffffffffffff1681565b348015620005b857600080fd5b506200034f620005ca36600462002d3d565b60436020526000908152604090205460ff1681565b348015620005ec57600080fd5b5062000566600081565b3480156200060357600080fd5b506200020c6200061536600462002d75565b620017dc565b6040805160e084901b7fffffffff0000000000000000000000000000000000000000000000000000000016602080830191909152606084901b7fffffffffffffffffffffffffffffffffffffffff000000000000000000000000166024830152825160188184030181526038909201835281519181019190912060009081526044909152205473ffffffffffffffffffffffffffffffffffffffff165b92915050565b620006c862001899565b60ac55565b620006d762001899565b604280547fffffffffffffffffffffffffffffffffffffffffffffffffffffffff000000001663ffffffff92909216919091179055565b6041546000908190815b6020811015620007e05781600116600103620007785760018160208110620007445762000744620031bd565b01546040805160208101929092528101849052606001604051602081830303815290604052805190602001209250620007bc565b82602182602081106200078f576200078f620031bd565b01546040805160208101939093528201526060016040516020818303038152906040528051906020012092505b620007c96002836200321b565b915080620007d78162003257565b91505062000718565b509092915050565b60008467ffffffffffffffff8416825b6020811015620008db57816001166001036200086557868181518110620008235762000823620031bd565b60200260200101518360405160200162000847929190918252602082015260400190565b604051602081830303815290604052805190602001209250620008b7565b828782815181106200087b576200087b620031bd565b60200260200101516040516020016200089e929190918252602082015260400190565b6040516020818303038152906040528051906020012092505b620008c46002836200321b565b915080620008d28162003257565b915050620007f8565b5050821490505b949350505050565b60ac54341115620009a8576040517f08c379a000000000000000000000000000000000000000000000000000000000815260206004820152604a60248201527f4272696467653a3a6272696467653a2043616e6e6f7420627269646765206d6f60448201527f7265207468616e206d6178457468657242726964676520696e20696e7465726e60648201527f616c20746573746e657400000000000000000000000000000000000000000000608482015260a4015b60405180910390fd5b620009b88686868686866200191c565b505050505050565b63ffffffff891660009081526043602052604090205460ff161562000a42576040517f08c379a000000000000000000000000000000000000000000000000000000000815260206004820152601e60248201527f4272696467653a3a636c61696d3a20414c52454144595f434c41494d4544000060448201526064016200099f565b6046546040805160208082018c90528183018b9052825180830384018152606083019384905280519101207f257b363200000000000000000000000000000000000000000000000000000000909252606481019190915273ffffffffffffffffffffffffffffffffffffffff9091169063257b3632906084016020604051808303816000875af115801562000adb573d6000803e3d6000fd5b505050506040513d601f19601f8201168201806040525081019062000b01919062003292565b60000362000b92576040517f08c379a000000000000000000000000000000000000000000000000000000000815260206004820152602e60248201527f4272696467653a3a636c61696d3a20474c4f42414c5f455849545f524f4f545f60448201527f444f45535f4e4f545f4d4154434800000000000000000000000000000000000060648201526084016200099f565b60425463ffffffff85811691161462000c2e576040517f08c379a000000000000000000000000000000000000000000000000000000000815260206004820152603160248201527f4272696467653a3a636c61696d3a2044455354494e4154494f4e5f4e4554574f60448201527f524b5f444f45535f4e4f545f4d4154434800000000000000000000000000000060648201526084016200099f565b60425463ffffffff1662000d5f578051602080830191909120604080517fffffffff0000000000000000000000000000000000000000000000000000000060e08b811b8216838701527fffffffffffffffffffffffffffffffffffffffff00000000000000000000000060608c811b82166024860152918b901b909216603884015288901b16603c82015260508101869052607080820193909352815180820390930183526090019052805191012062000cf1908b8b63ffffffff168a620007e8565b62000d59576040517f08c379a000000000000000000000000000000000000000000000000000000000815260206004820152601a60248201527f4272696467653a3a636c61696d3a20534d545f494e56414c494400000000000060448201526064016200099f565b62000e7c565b8051602080830191909120604080517fffffffff0000000000000000000000000000000000000000000000000000000060e08b811b8216838701527fffffffffffffffffffffffffffffffffffffffff00000000000000000000000060608c811b82166024860152918b901b909216603884015288901b16603c82015260508101869052607080820193909352815180820390930183526090019052805191012062000e14908b8b63ffffffff168b620007e8565b62000e7c576040517f08c379a000000000000000000000000000000000000000000000000000000000815260206004820152601a60248201527f4272696467653a3a636c61696d3a20534d545f494e56414c494400000000000060448201526064016200099f565b63ffffffff8916600090815260436020526040902080547fffffffffffffffffffffffffffffffffffffffffffffffffffffffffffffff0016600117905573ffffffffffffffffffffffffffffffffffffffff851662000fed576040805160008082526020820190925273ffffffffffffffffffffffffffffffffffffffff851690849060405162000f0f9190620032db565b60006040518083038185875af1925050503d806000811462000f4e576040519150601f19603f3d011682016040523d82523d6000602084013e62000f53565b606091505b505090508062000fe6576040517f08c379a000000000000000000000000000000000000000000000000000000000815260206004820152602260248201527f4272696467653a3a636c61696d3a204554485f5452414e534645525f4641494c60448201527f454400000000000000000000000000000000000000000000000000000000000060648201526084016200099f565b50620013f8565b60425463ffffffff908116908716036200102a576200102473ffffffffffffffffffffffffffffffffffffffff8616848462001f02565b620013f8565b6040517fffffffff0000000000000000000000000000000000000000000000000000000060e088901b1660208201527fffffffffffffffffffffffffffffffffffffffff000000000000000000000000606087901b166024820152600090603801604080517fffffffffffffffffffffffffffffffffffffffffffffffffffffffffffffffe081840301815291815281516020928301206000818152604490935291205490915073ffffffffffffffffffffffffffffffffffffffff16806200135757604754600090620011159073ffffffffffffffffffffffffffffffffffffffff168462001fd8565b905060008060008680602001905181019062001132919062003355565b9250925092508373ffffffffffffffffffffffffffffffffffffffff16636c9452218484848d8d6040518663ffffffff1660e01b81526004016200117b95949392919062003422565b600060405180830381600087803b1580156200119657600080fd5b505af1158015620011ab573d6000803e3d6000fd5b50505050836044600088815260200190815260200160002060006101000a81548173ffffffffffffffffffffffffffffffffffffffff021916908373ffffffffffffffffffffffffffffffffffffffff16021790555060405180604001604052808d63ffffffff1681526020018c73ffffffffffffffffffffffffffffffffffffffff16815250604560008673ffffffffffffffffffffffffffffffffffffffff1673ffffffffffffffffffffffffffffffffffffffff16815260200190815260200160002060008201518160000160006101000a81548163ffffffff021916908363ffffffff16021790555060208201518160000160046101000a81548173ffffffffffffffffffffffffffffffffffffffff021916908373ffffffffffffffffffffffffffffffffffffffff1602179055509050507fccd7715648d1f2bb13e158f96b5b6c3aeda555d4cb87112e274a6f28bc571d598c8c86604051620013459392919063ffffffff93909316835273ffffffffffffffffffffffffffffffffffffffff918216602084015216604082015260600190565b60405180910390a150505050620013f5565b6040517f40c10f1900000000000000000000000000000000000000000000000000000000815273ffffffffffffffffffffffffffffffffffffffff8681166004830152602482018690528216906340c10f19906044016020604051808303816000875af1158015620013cd573d6000803e3d6000fd5b505050506040513d601f19601f82011682018060405250810190620013f3919062003482565b505b50505b6040805163ffffffff8b811682528816602082015273ffffffffffffffffffffffffffffffffffffffff87811682840152851660608201526080810184905290517f25308c93ceeed162da955b3f7ce3e3f93606579e40fb92029faa9efe275459839181900360a00190a150505050505050505050565b6200147962001899565b6200148560006200209e565b565b600054610100900460ff1615808015620014a85750600054600160ff909116105b80620014c45750303b158015620014c4575060005460ff166001145b62001552576040517f08c379a000000000000000000000000000000000000000000000000000000000815260206004820152602e60248201527f496e697469616c697a61626c653a20636f6e747261637420697320616c72656160448201527f647920696e697469616c697a656400000000000000000000000000000000000060648201526084016200099f565b600080547fffffffffffffffffffffffffffffffffffffffffffffffffffffffffffffff001660011790558015620015b157600080547fffffffffffffffffffffffffffffffffffffffffffffffffffffffffffff00ff166101001790555b604280547fffffffffffffffffffffffffffffffffffffffffffffffffffffffff000000001663ffffffff8516179055604680547fffffffffffffffffffffffff00000000000000000000000000000000000000001673ffffffffffffffffffffffffffffffffffffffff84161790556040516200162f9062002ca9565b604051809103906000f0801580156200164c573d6000803e3d6000fd5b50604780547fffffffffffffffffffffffff00000000000000000000000000000000000000001673ffffffffffffffffffffffffffffffffffffffff929092169190911790556200169c62002115565b620016a66200225a565b6703782dace9d9000060ac5580156200171657600080547fffffffffffffffffffffffffffffffffffffffffffffffffffffffffffff00ff169055604051600181527f7f26b83ff96e1f2b6a682f133852f6798a09c465da95921460cefb38474024989060200160405180910390a15b505050565b6040517fffffffff0000000000000000000000000000000000000000000000000000000060e084901b1660208201527fffffffffffffffffffffffffffffffffffffffff000000000000000000000000606083901b1660248201526000908190603801604080517fffffffffffffffffffffffffffffffffffffffffffffffffffffffffffffffe08184030181529190528051602090910120604754909150620008e29073ffffffffffffffffffffffffffffffffffffffff1682620022fd565b620017e662001899565b73ffffffffffffffffffffffffffffffffffffffff81166200188b576040517f08c379a000000000000000000000000000000000000000000000000000000000815260206004820152602660248201527f4f776e61626c653a206e6577206f776e657220697320746865207a65726f206160448201527f646472657373000000000000000000000000000000000000000000000000000060648201526084016200099f565b62001896816200209e565b50565b607a5473ffffffffffffffffffffffffffffffffffffffff16331462001485576040517f08c379a000000000000000000000000000000000000000000000000000000000815260206004820181905260248201527f4f776e61626c653a2063616c6c6572206973206e6f7420746865206f776e657260448201526064016200099f565b60425463ffffffff90811690861603620019b9576040517f08c379a000000000000000000000000000000000000000000000000000000000815260206004820152602a60248201527f4272696467653a3a6272696467653a2044455354494e4154494f4e5f43414e5460448201527f5f42455f495453454c460000000000000000000000000000000000000000000060648201526084016200099f565b600080606073ffffffffffffffffffffffffffffffffffffffff891662001a755785341462001a6b576040517f08c379a000000000000000000000000000000000000000000000000000000000815260206004820152602f60248201527f4272696467653a3a6272696467653a20414d4f554e545f444f45535f4e4f545f60448201527f4d415443485f4d53475f56414c5545000000000000000000000000000000000060648201526084016200099f565b6000915062001d89565b73ffffffffffffffffffffffffffffffffffffffff808a1660009081526045602090815260409182902082518084019093525463ffffffff811683526401000000009004909216918101829052901562001b76576040517f9dc29fac0000000000000000000000000000000000000000000000000000000081523360048201526024810188905273ffffffffffffffffffffffffffffffffffffffff8b1690639dc29fac906044016020604051808303816000875af115801562001b3d573d6000803e3d6000fd5b505050506040513d601f19601f8201168201806040525081019062001b63919062003482565b5060208101518151909450925062001d87565b841562001b8b5762001b8b8a88888862002360565b62001baf73ffffffffffffffffffffffffffffffffffffffff8b1633308a6200278b565b899350604260009054906101000a900463ffffffff1692508973ffffffffffffffffffffffffffffffffffffffff166306fdde036040518163ffffffff1660e01b8152600401600060405180830381865afa15801562001c13573d6000803e3d6000fd5b505050506040513d6000823e601f3d9081017fffffffffffffffffffffffffffffffffffffffffffffffffffffffffffffffe016820160405262001c5b9190810190620034a6565b8a73ffffffffffffffffffffffffffffffffffffffff166395d89b416040518163ffffffff1660e01b8152600401600060405180830381865afa15801562001ca7573d6000803e3d6000fd5b505050506040513d6000823e601f3d9081017fffffffffffffffffffffffffffffffffffffffffffffffffffffffffffffffe016820160405262001cef9190810190620034a6565b8b73ffffffffffffffffffffffffffffffffffffffff1663313ce5676040518163ffffffff1660e01b8152600401602060405180830381865afa15801562001d3b573d6000803e3d6000fd5b505050506040513d601f19601f8201168201806040525081019062001d619190620034df565b60405160200162001d7593929190620034ff565b60405160208183030381529060405291505b505b7ff0b963192bdc6349c23af9bd17294b4c7b9b5a73a2a9939610ea18ffd1c5dc2a82848a8a8a8660415460405162001dc897969594939291906200353c565b60405180910390a18051602080830191909120604080517fffffffff0000000000000000000000000000000000000000000000000000000060e087811b8216838701527fffffffffffffffffffffffffffffffffffffffff00000000000000000000000060608a811b82166024860152918f901b90921660388401528c901b16603c820152605081018a9052607080820193909352815180820390930183526090019052805191012062001e7c90620027f1565b60465473ffffffffffffffffffffffffffffffffffffffff166333d6247d62001ea46200070e565b6040518263ffffffff1660e01b815260040162001ec391815260200190565b600060405180830381600087803b15801562001ede57600080fd5b505af115801562001ef3573d6000803e3d6000fd5b50505050505050505050505050565b60405173ffffffffffffffffffffffffffffffffffffffff8316602482015260448101829052620017169084907fa9059cbb00000000000000000000000000000000000000000000000000000000906064015b604080517fffffffffffffffffffffffffffffffffffffffffffffffffffffffffffffffe08184030181529190526020810180517bffffffffffffffffffffffffffffffffffffffffffffffffffffffff167fffffffff00000000000000000000000000000000000000000000000000000000909316929092179091526200296a565b6000763d602d80600a3d3981f3363d3d373d3d3d363d730000008360601b60e81c176000526e5af43d82803e903d91602b57fd5bf38360781b1760205281603760096000f5905073ffffffffffffffffffffffffffffffffffffffff8116620006b8576040517f08c379a000000000000000000000000000000000000000000000000000000000815260206004820152601760248201527f455243313136373a2063726561746532206661696c656400000000000000000060448201526064016200099f565b607a805473ffffffffffffffffffffffffffffffffffffffff8381167fffffffffffffffffffffffff0000000000000000000000000000000000000000831681179093556040519116919082907f8be0079c531659141344cd1fd0a4f28419497f9722a3daafe3b4186f6b6457e090600090a35050565b600054610100900460ff16620021ae576040517f08c379a000000000000000000000000000000000000000000000000000000000815260206004820152602b60248201527f496e697469616c697a61626c653a20636f6e7472616374206973206e6f74206960448201527f6e697469616c697a696e6700000000000000000000000000000000000000000060648201526084016200099f565b60005b620021bf60016020620035a9565b811015620018965760218160208110620021dd57620021dd620031bd565b015460218260208110620021f557620021f5620031bd565b0154604080516020810193909352820152606001604051602081830303815290604052805190602001206021826001620022309190620035c3565b60208110620022435762002243620031bd565b015580620022518162003257565b915050620021b1565b600054610100900460ff16620022f3576040517f08c379a000000000000000000000000000000000000000000000000000000000815260206004820152602b60248201527f496e697469616c697a61626c653a20636f6e7472616374206973206e6f74206960448201527f6e697469616c697a696e6700000000000000000000000000000000000000000060648201526084016200099f565b6200148562002a7d565b6040513060388201526f5af43d82803e903d91602b57fd5bf3ff602482015260148101839052733d602d80600a3d3981f3363d3d373d3d3d363d738152605881018290526037600c820120607882015260556043909101206000905b9392505050565b6000620023a383838080601f01602080910402602001604051908101604052809392919081815260200183838082843760009201919091525062002b2192505050565b90507fffffffff0000000000000000000000000000000000000000000000000000000081167fd505accf000000000000000000000000000000000000000000000000000000001462002452576040517f08c379a000000000000000000000000000000000000000000000000000000000815260206004820152601f60248201527f4272696467653a3a5f7065726d69743a204e4f545f56414c49445f43414c4c0060448201526064016200099f565b600080808080808062002469896004818d620035de565b8101906200247891906200360a565b96509650965096509650965096503373ffffffffffffffffffffffffffffffffffffffff168773ffffffffffffffffffffffffffffffffffffffff161462002543576040517f08c379a000000000000000000000000000000000000000000000000000000000815260206004820152603060248201527f4272696467653a3a5f7065726d69743a205045524d49545f4f574e45525f4d5560448201527f53545f42455f5448455f53454e4445520000000000000000000000000000000060648201526084016200099f565b73ffffffffffffffffffffffffffffffffffffffff86163014620025ea576040517f08c379a000000000000000000000000000000000000000000000000000000000815260206004820152602560248201527f4272696467653a3a5f7065726d69743a205350454e4445525f4d5553545f424560448201527f5f5448495300000000000000000000000000000000000000000000000000000060648201526084016200099f565b8a85146200267b576040517f08c379a000000000000000000000000000000000000000000000000000000000815260206004820152602d60248201527f4272696467653a3a5f7065726d69743a205045524d49545f414d4f554e545f4460448201527f4f45535f4e4f545f4d415443480000000000000000000000000000000000000060648201526084016200099f565b6040805173ffffffffffffffffffffffffffffffffffffffff89811660248301528881166044830152606482018890526084820187905260ff861660a483015260c4820185905260e48083018590528351808403909101815261010490920183526020820180517bffffffffffffffffffffffffffffffffffffffffffffffffffffffff167fd505accf000000000000000000000000000000000000000000000000000000001790529151918e1691620027369190620032db565b6000604051808303816000865af19150503d806000811462002775576040519150601f19603f3d011682016040523d82523d6000602084013e6200277a565b606091505b505050505050505050505050505050565b60405173ffffffffffffffffffffffffffffffffffffffff80851660248301528316604482015260648101829052620027eb9085907f23b872dd000000000000000000000000000000000000000000000000000000009060840162001f55565b50505050565b8060016200280260206002620037bb565b6200280e9190620035a9565b60415410620028a0576040517f08c379a000000000000000000000000000000000000000000000000000000000815260206004820152602a60248201527f4465706f736974436f6e74726163743a5f6465706f7369743a204d45524b4c4560448201527f5f545245455f46554c4c0000000000000000000000000000000000000000000060648201526084016200099f565b600160416000828254620028b59190620035c3565b909155505060415460005b60208110156200295f5781600116600103620028f5578260018260208110620028ed57620028ed620031bd565b015550505050565b600181602081106200290b576200290b620031bd565b015460408051602081019290925281018490526060016040516020818303038152906040528051906020012092506002826200294891906200321b565b915080620029568162003257565b915050620028c0565b5062001716620037c9565b6000620029ce826040518060400160405280602081526020017f5361666545524332303a206c6f772d6c6576656c2063616c6c206661696c65648152508573ffffffffffffffffffffffffffffffffffffffff1662002b289092919063ffffffff16565b805190915015620017165780806020019051810190620029ef919062003482565b62001716576040517f08c379a000000000000000000000000000000000000000000000000000000000815260206004820152602a60248201527f5361666545524332303a204552433230206f7065726174696f6e20646964206e60448201527f6f7420737563636565640000000000000000000000000000000000000000000060648201526084016200099f565b600054610100900460ff1662002b16576040517f08c379a000000000000000000000000000000000000000000000000000000000815260206004820152602b60248201527f496e697469616c697a61626c653a20636f6e7472616374206973206e6f74206960448201527f6e697469616c697a696e6700000000000000000000000000000000000000000060648201526084016200099f565b62001485336200209e565b6020015190565b6060620008e28484600085856000808673ffffffffffffffffffffffffffffffffffffffff16858760405162002b5f9190620032db565b60006040518083038185875af1925050503d806000811462002b9e576040519150601f19603f3d011682016040523d82523d6000602084013e62002ba3565b606091505b509150915062002bb68783838762002bc1565b979650505050505050565b6060831562002c5c57825160000362002c545773ffffffffffffffffffffffffffffffffffffffff85163b62002c54576040517f08c379a000000000000000000000000000000000000000000000000000000000815260206004820152601d60248201527f416464726573733a2063616c6c20746f206e6f6e2d636f6e747261637400000060448201526064016200099f565b5081620008e2565b620008e2838381511562002c735781518083602001fd5b806040517f08c379a00000000000000000000000000000000000000000000000000000000081526004016200099f9190620037f8565b61177b806200380e83390190565b803563ffffffff8116811462002ccc57600080fd5b919050565b73ffffffffffffffffffffffffffffffffffffffff811681146200189657600080fd5b803562002ccc8162002cd1565b6000806040838503121562002d1557600080fd5b62002d208362002cb7565b9150602083013562002d328162002cd1565b809150509250929050565b60006020828403121562002d5057600080fd5b5035919050565b60006020828403121562002d6a57600080fd5b620023598262002cb7565b60006020828403121562002d8857600080fd5b8135620023598162002cd1565b7f4e487b7100000000000000000000000000000000000000000000000000000000600052604160045260246000fd5b604051601f82017fffffffffffffffffffffffffffffffffffffffffffffffffffffffffffffffe016810167ffffffffffffffff8111828210171562002e0e5762002e0e62002d95565b604052919050565b600082601f83011262002e2857600080fd5b8135602067ffffffffffffffff82111562002e475762002e4762002d95565b8160051b62002e5882820162002dc4565b928352848101820192828101908785111562002e7357600080fd5b83870192505b8483101562002bb65782358252918301919083019062002e79565b6000806000806080858703121562002eab57600080fd5b84359350602085013567ffffffffffffffff8082111562002ecb57600080fd5b62002ed98883890162002e16565b945060408701359150808216821462002ef157600080fd5b509396929550929360600135925050565b60008060008060008060a0878903121562002f1c57600080fd5b863562002f298162002cd1565b955062002f396020880162002cb7565b9450604087013562002f4b8162002cd1565b935060608701359250608087013567ffffffffffffffff8082111562002f7057600080fd5b818901915089601f83011262002f8557600080fd5b81358181111562002f9557600080fd5b8a602082850101111562002fa857600080fd5b6020830194508093505050509295509295509295565b60008060008060008060c0878903121562002fd857600080fd5b62002fe38762002cb7565b9550602087013562002ff58162002cd1565b9450620030056040880162002cb7565b93506060870135620030178162002cd1565b9598949750929560808101359460a0909101359350915050565b600067ffffffffffffffff8211156200304e576200304e62002d95565b50601f017fffffffffffffffffffffffffffffffffffffffffffffffffffffffffffffffe01660200190565b600082601f8301126200308c57600080fd5b8135620030a36200309d8262003031565b62002dc4565b818152846020838601011115620030b957600080fd5b816020850160208301376000918101602001919091529392505050565b6000806000806000806000806000806101408b8d031215620030f757600080fd5b8a3567ffffffffffffffff808211156200311057600080fd5b6200311e8e838f0162002e16565b9b506200312e60208e0162002cb7565b9a5060408d0135995060608d013598506200314c60808e0162002cb7565b97506200315c60a08e0162002cf4565b96506200316c60c08e0162002cb7565b95506200317c60e08e0162002cf4565b94506101008d013593506101208d01359150808211156200319c57600080fd5b50620031ab8d828e016200307a565b9150509295989b9194979a5092959850565b7f4e487b7100000000000000000000000000000000000000000000000000000000600052603260045260246000fd5b7f4e487b7100000000000000000000000000000000000000000000000000000000600052601160045260246000fd5b60008262003252577f4e487b7100000000000000000000000000000000000000000000000000000000600052601260045260246000fd5b500490565b60007fffffffffffffffffffffffffffffffffffffffffffffffffffffffffffffffff82036200328b576200328b620031ec565b5060010190565b600060208284031215620032a557600080fd5b5051919050565b60005b83811015620032c9578181015183820152602001620032af565b83811115620027eb5750506000910152565b60008251620032ef818460208701620032ac565b9190910192915050565b600082601f8301126200330b57600080fd5b81516200331c6200309d8262003031565b8181528460208386010111156200333257600080fd5b620008e2826020830160208701620032ac565b60ff811681146200189657600080fd5b6000806000606084860312156200336b57600080fd5b835167ffffffffffffffff808211156200338457600080fd5b6200339287838801620032f9565b94506020860151915080821115620033a957600080fd5b50620033b886828701620032f9565b9250506040840151620033cb8162003345565b809150509250925092565b60008151808452620033f0816020860160208601620032ac565b601f017fffffffffffffffffffffffffffffffffffffffffffffffffffffffffffffffe0169290920160200192915050565b60a0815260006200343760a0830188620033d6565b82810360208401526200344b8188620033d6565b60ff969096166040840152505073ffffffffffffffffffffffffffffffffffffffff92909216606083015260809091015292915050565b6000602082840312156200349557600080fd5b815180151581146200235957600080fd5b600060208284031215620034b957600080fd5b815167ffffffffffffffff811115620034d157600080fd5b620008e284828501620032f9565b600060208284031215620034f257600080fd5b8151620023598162003345565b606081526000620035146060830186620033d6565b8281036020840152620035288186620033d6565b91505060ff83166040830152949350505050565b600063ffffffff808a16835273ffffffffffffffffffffffffffffffffffffffff808a166020850152818916604085015280881660608501525085608084015260e060a08401526200359260e0840186620033d6565b915080841660c08401525098975050505050505050565b600082821015620035be57620035be620031ec565b500390565b60008219821115620035d957620035d9620031ec565b500190565b60008085851115620035ef57600080fd5b83861115620035fd57600080fd5b5050820193919092039150565b600080600080600080600060e0888a0312156200362657600080fd5b8735620036338162002cd1565b96506020880135620036458162002cd1565b955060408801359450606088013593506080880135620036658162003345565b9699959850939692959460a0840135945060c09093013592915050565b600181815b80851115620036e157817fffffffffffffffffffffffffffffffffffffffffffffffffffffffffffffffff04821115620036c557620036c5620031ec565b80851615620036d357918102915b93841c939080029062003687565b509250929050565b600082620036fa57506001620006b8565b816200370957506000620006b8565b81600181146200372257600281146200372d576200374d565b6001915050620006b8565b60ff841115620037415762003741620031ec565b50506001821b620006b8565b5060208310610133831016604e8410600b841016171562003772575081810a620006b8565b6200377e838362003682565b807fffffffffffffffffffffffffffffffffffffffffffffffffffffffffffffffff04821115620037b357620037b3620031ec565b029392505050565b6000620023598383620036e9565b7f4e487b7100000000000000000000000000000000000000000000000000000000600052600160045260246000fd5b602081526000620023596020830184620033d656fe60806040523480156200001157600080fd5b50600054610100900460ff1615808015620000335750600054600160ff909116105b8062000063575062000050306200013d60201b6200080a1760201c565b15801562000063575060005460ff166001145b620000cb5760405162461bcd60e51b815260206004820152602e60248201527f496e697469616c697a61626c653a20636f6e747261637420697320616c72656160448201526d191e481a5b9a5d1a585b1a5e995960921b606482015260840160405180910390fd5b6000805460ff191660011790558015620000ef576000805461ff0019166101001790555b801562000136576000805461ff0019169055604051600181527f7f26b83ff96e1f2b6a682f133852f6798a09c465da95921460cefb38474024989060200160405180910390a15b506200014c565b6001600160a01b03163b151590565b61161f806200015c6000396000f3fe608060405234801561001057600080fd5b50600436106100f55760003560e01c80636c94522111610097578063a3c573eb11610066578063a3c573eb1461021c578063a457c2d714610261578063a9059cbb14610274578063dd62ed3e1461028757600080fd5b80636c945221146101b657806370a08231146101cb57806395d89b41146102015780639dc29fac1461020957600080fd5b806323b872dd116100d357806323b872dd1461014d578063313ce56714610160578063395093511461019057806340c10f19146101a357600080fd5b806306fdde03146100fa578063095ea7b31461011857806318160ddd1461013b575b600080fd5b6101026102cd565b60405161010f9190611131565b60405180910390f35b61012b6101263660046111cd565b61035f565b604051901515815260200161010f565b6035545b60405190815260200161010f565b61012b61015b3660046111f7565b610377565b60655474010000000000000000000000000000000000000000900460ff1660405160ff909116815260200161010f565b61012b61019e3660046111cd565b61039b565b61012b6101b13660046111cd565b6103e7565b6101c96101c436600461130d565b610483565b005b61013f6101d93660046113a2565b73ffffffffffffffffffffffffffffffffffffffff1660009081526033602052604090205490565b61010261068e565b61012b6102173660046111cd565b61069d565b60655461023c9073ffffffffffffffffffffffffffffffffffffffff1681565b60405173ffffffffffffffffffffffffffffffffffffffff909116815260200161010f565b61012b61026f3660046111cd565b61072b565b61012b6102823660046111cd565b6107fc565b61013f6102953660046113c4565b73ffffffffffffffffffffffffffffffffffffffff918216600090815260346020908152604080832093909416825291909152205490565b6060603680546102dc906113f7565b80601f0160208091040260200160405190810160405280929190818152602001828054610308906113f7565b80156103555780601f1061032a57610100808354040283529160200191610355565b820191906000526020600020905b81548152906001019060200180831161033857829003601f168201915b5050505050905090565b60003361036d818585610826565b5060019392505050565b6000336103858582856109da565b610390858585610ab1565b506001949350505050565b33600081815260346020908152604080832073ffffffffffffffffffffffffffffffffffffffff8716845290915281205490919061036d90829086906103e290879061144a565b610826565b60655460009073ffffffffffffffffffffffffffffffffffffffff163314610470576040517f08c379a000000000000000000000000000000000000000000000000000000000815260206004820152601760248201527f546f6b656e577261707065643a4e4f545f42524944474500000000000000000060448201526064015b60405180910390fd5b61047a8383610d27565b50600192915050565b600054610100900460ff16158080156104a35750600054600160ff909116105b806104bd5750303b1580156104bd575060005460ff166001145b610549576040517f08c379a000000000000000000000000000000000000000000000000000000000815260206004820152602e60248201527f496e697469616c697a61626c653a20636f6e747261637420697320616c72656160448201527f647920696e697469616c697a65640000000000000000000000000000000000006064820152608401610467565b600080547fffffffffffffffffffffffffffffffffffffffffffffffffffffffffffffff0016600117905580156105a757600080547fffffffffffffffffffffffffffffffffffffffffffffffffffffffffffff00ff166101001790555b6105b18686610e1d565b606580547fffffffffffffffffffffff00000000000000000000000000000000000000000016337fffffffffffffffffffffff00ffffffffffffffffffffffffffffffffffffffff16177401000000000000000000000000000000000000000060ff8716021790556106238383610d27565b801561068657600080547fffffffffffffffffffffffffffffffffffffffffffffffffffffffffffff00ff169055604051600181527f7f26b83ff96e1f2b6a682f133852f6798a09c465da95921460cefb38474024989060200160405180910390a15b505050505050565b6060603780546102dc906113f7565b60655460009073ffffffffffffffffffffffffffffffffffffffff163314610721576040517f08c379a000000000000000000000000000000000000000000000000000000000815260206004820152601760248201527f546f6b656e577261707065643a4e4f545f4252494447450000000000000000006044820152606401610467565b61047a8383610ebe565b33600081815260346020908152604080832073ffffffffffffffffffffffffffffffffffffffff87168452909152812054909190838110156107ef576040517f08c379a000000000000000000000000000000000000000000000000000000000815260206004820152602560248201527f45524332303a2064656372656173656420616c6c6f77616e63652062656c6f7760448201527f207a65726f0000000000000000000000000000000000000000000000000000006064820152608401610467565b6103908286868403610826565b60003361036d818585610ab1565b73ffffffffffffffffffffffffffffffffffffffff163b151590565b73ffffffffffffffffffffffffffffffffffffffff83166108c8576040517f08c379a0000000000000000000000000000000000000000000000000000000008152602060048201526024808201527f45524332303a20617070726f76652066726f6d20746865207a65726f2061646460448201527f72657373000000000000000000000000000000000000000000000000000000006064820152608401610467565b73ffffffffffffffffffffffffffffffffffffffff821661096b576040517f08c379a000000000000000000000000000000000000000000000000000000000815260206004820152602260248201527f45524332303a20617070726f766520746f20746865207a65726f20616464726560448201527f73730000000000000000000000000000000000000000000000000000000000006064820152608401610467565b73ffffffffffffffffffffffffffffffffffffffff83811660008181526034602090815260408083209487168084529482529182902085905590518481527f8c5be1e5ebec7d5bd14f71427d1e84f3dd0314c0f7b2291e5b200ac8c7c3b92591015b60405180910390a3505050565b73ffffffffffffffffffffffffffffffffffffffff8381166000908152603460209081526040808320938616835292905220547fffffffffffffffffffffffffffffffffffffffffffffffffffffffffffffffff8114610aab5781811015610a9e576040517f08c379a000000000000000000000000000000000000000000000000000000000815260206004820152601d60248201527f45524332303a20696e73756666696369656e7420616c6c6f77616e63650000006044820152606401610467565b610aab8484848403610826565b50505050565b73ffffffffffffffffffffffffffffffffffffffff8316610b54576040517f08c379a000000000000000000000000000000000000000000000000000000000815260206004820152602560248201527f45524332303a207472616e736665722066726f6d20746865207a65726f20616460448201527f64726573730000000000000000000000000000000000000000000000000000006064820152608401610467565b73ffffffffffffffffffffffffffffffffffffffff8216610bf7576040517f08c379a000000000000000000000000000000000000000000000000000000000815260206004820152602360248201527f45524332303a207472616e7366657220746f20746865207a65726f206164647260448201527f65737300000000000000000000000000000000000000000000000000000000006064820152608401610467565b73ffffffffffffffffffffffffffffffffffffffff831660009081526033602052604090205481811015610cad576040517f08c379a000000000000000000000000000000000000000000000000000000000815260206004820152602660248201527f45524332303a207472616e7366657220616d6f756e742065786365656473206260448201527f616c616e636500000000000000000000000000000000000000000000000000006064820152608401610467565b73ffffffffffffffffffffffffffffffffffffffff80851660008181526033602052604080822086860390559286168082529083902080548601905591517fddf252ad1be2c89b69c2b068fc378daa952ba7f163c4a11628f55a4df523b3ef90610d1a9086815260200190565b60405180910390a3610aab565b73ffffffffffffffffffffffffffffffffffffffff8216610da4576040517f08c379a000000000000000000000000000000000000000000000000000000000815260206004820152601f60248201527f45524332303a206d696e7420746f20746865207a65726f2061646472657373006044820152606401610467565b8060356000828254610db6919061144a565b909155505073ffffffffffffffffffffffffffffffffffffffff82166000818152603360209081526040808320805486019055518481527fddf252ad1be2c89b69c2b068fc378daa952ba7f163c4a11628f55a4df523b3ef910160405180910390a35b5050565b600054610100900460ff16610eb4576040517f08c379a000000000000000000000000000000000000000000000000000000000815260206004820152602b60248201527f496e697469616c697a61626c653a20636f6e7472616374206973206e6f74206960448201527f6e697469616c697a696e670000000000000000000000000000000000000000006064820152608401610467565b610e198282611081565b73ffffffffffffffffffffffffffffffffffffffff8216610f61576040517f08c379a000000000000000000000000000000000000000000000000000000000815260206004820152602160248201527f45524332303a206275726e2066726f6d20746865207a65726f2061646472657360448201527f73000000000000000000000000000000000000000000000000000000000000006064820152608401610467565b73ffffffffffffffffffffffffffffffffffffffff821660009081526033602052604090205481811015611017576040517f08c379a000000000000000000000000000000000000000000000000000000000815260206004820152602260248201527f45524332303a206275726e20616d6f756e7420657863656564732062616c616e60448201527f63650000000000000000000000000000000000000000000000000000000000006064820152608401610467565b73ffffffffffffffffffffffffffffffffffffffff831660008181526033602090815260408083208686039055603580548790039055518581529192917fddf252ad1be2c89b69c2b068fc378daa952ba7f163c4a11628f55a4df523b3ef91016109cd565b505050565b600054610100900460ff16611118576040517f08c379a000000000000000000000000000000000000000000000000000000000815260206004820152602b60248201527f496e697469616c697a61626c653a20636f6e7472616374206973206e6f74206960448201527f6e697469616c697a696e670000000000000000000000000000000000000000006064820152608401610467565b603661112483826114cf565b50603761107c82826114cf565b600060208083528351808285015260005b8181101561115e57858101830151858201604001528201611142565b81811115611170576000604083870101525b50601f017fffffffffffffffffffffffffffffffffffffffffffffffffffffffffffffffe016929092016040019392505050565b803573ffffffffffffffffffffffffffffffffffffffff811681146111c857600080fd5b919050565b600080604083850312156111e057600080fd5b6111e9836111a4565b946020939093013593505050565b60008060006060848603121561120c57600080fd5b611215846111a4565b9250611223602085016111a4565b9150604084013590509250925092565b7f4e487b7100000000000000000000000000000000000000000000000000000000600052604160045260246000fd5b600082601f83011261127357600080fd5b813567ffffffffffffffff8082111561128e5761128e611233565b604051601f83017fffffffffffffffffffffffffffffffffffffffffffffffffffffffffffffffe0908116603f011681019082821181831017156112d4576112d4611233565b816040528381528660208588010111156112ed57600080fd5b836020870160208301376000602085830101528094505050505092915050565b600080600080600060a0868803121561132557600080fd5b853567ffffffffffffffff8082111561133d57600080fd5b61134989838a01611262565b9650602088013591508082111561135f57600080fd5b5061136c88828901611262565b945050604086013560ff8116811461138357600080fd5b9250611391606087016111a4565b949793965091946080013592915050565b6000602082840312156113b457600080fd5b6113bd826111a4565b9392505050565b600080604083850312156113d757600080fd5b6113e0836111a4565b91506113ee602084016111a4565b90509250929050565b600181811c9082168061140b57607f821691505b602082108103611444577f4e487b7100000000000000000000000000000000000000000000000000000000600052602260045260246000fd5b50919050565b60008219821115611484577f4e487b7100000000000000000000000000000000000000000000000000000000600052601160045260246000fd5b500190565b601f82111561107c57600081815260208120601f850160051c810160208610156114b05750805b601f850160051c820191505b81811015610686578281556001016114bc565b815167ffffffffffffffff8111156114e9576114e9611233565b6114fd816114f784546113f7565b84611489565b602080601f831160018114611550576000841561151a5750858301515b7fffffffffffffffffffffffffffffffffffffffffffffffffffffffffffffffff600386901b1c1916600185901b178555610686565b6000858152602081207fffffffffffffffffffffffffffffffffffffffffffffffffffffffffffffffe08616915b8281101561159d5788860151825594840194600190910190840161157e565b50858210156115d957878501517fffffffffffffffffffffffffffffffffffffffffffffffffffffffffffffffff600388901b60f8161c191681555b5050505050600190811b0190555056fea2646970667358221220d0efd6c2e123a4c3de7765311c5c44ffec32dd16790d0826e1aafb15493875a964736f6c634300080f0033a2646970667358221220f7358b879cb16eb8325c967a9debb74c1bc74e7853a11f1d2e469c370f65503364736f6c634300080f0033",
  "linkReferences": {},
  "deployedLinkReferences": {}
}