{
  "_format": "hh-sol-artifact-1",
  "contractName": "BridgeMock",
  "sourceName": "contracts/mocks/BridgeMock.sol",
  "abi": [
    {
      "anonymous": false,
      "inputs": [
        {
          "indexed": false,
          "internalType": "uint8",
          "name": "leafType",
          "type": "uint8"
        },
        {
          "indexed": false,
          "internalType": "uint32",
          "name": "originNetwork",
          "type": "uint32"
        },
        {
          "indexed": false,
          "internalType": "address",
          "name": "originAddress",
          "type": "address"
        },
        {
          "indexed": false,
          "internalType": "uint32",
          "name": "destinationNetwork",
          "type": "uint32"
        },
        {
          "indexed": false,
          "internalType": "address",
          "name": "destinationAddress",
          "type": "address"
        },
        {
          "indexed": false,
          "internalType": "uint256",
          "name": "amount",
          "type": "uint256"
        },
        {
          "indexed": false,
          "internalType": "bytes",
          "name": "metadata",
          "type": "bytes"
        },
        {
          "indexed": false,
          "internalType": "uint32",
          "name": "depositCount",
          "type": "uint32"
        }
      ],
      "name": "BridgeEvent",
      "type": "event"
    },
    {
      "anonymous": false,
      "inputs": [
        {
          "indexed": false,
          "internalType": "uint32",
          "name": "index",
          "type": "uint32"
        },
        {
          "indexed": false,
          "internalType": "uint32",
          "name": "originNetwork",
          "type": "uint32"
        },
        {
          "indexed": false,
          "internalType": "address",
          "name": "originAddress",
          "type": "address"
        },
        {
          "indexed": false,
          "internalType": "address",
          "name": "destinationAddress",
          "type": "address"
        },
        {
          "indexed": false,
          "internalType": "uint256",
          "name": "amount",
          "type": "uint256"
        }
      ],
      "name": "ClaimEvent",
      "type": "event"
    },
    {
      "anonymous": false,
      "inputs": [],
      "name": "EmergencyStateActivated",
      "type": "event"
    },
    {
      "anonymous": false,
      "inputs": [],
      "name": "EmergencyStateDeactivated",
      "type": "event"
    },
    {
      "anonymous": false,
      "inputs": [
        {
          "indexed": false,
          "internalType": "uint8",
          "name": "version",
          "type": "uint8"
        }
      ],
      "name": "Initialized",
      "type": "event"
    },
    {
      "anonymous": false,
      "inputs": [
        {
          "indexed": false,
          "internalType": "uint32",
          "name": "originNetwork",
          "type": "uint32"
        },
        {
          "indexed": false,
          "internalType": "address",
          "name": "originTokenAddress",
          "type": "address"
        },
        {
          "indexed": false,
          "internalType": "address",
          "name": "wrappedTokenAddress",
          "type": "address"
        }
      ],
      "name": "NewWrappedToken",
      "type": "event"
    },
    {
      "anonymous": false,
      "inputs": [
        {
          "indexed": true,
          "internalType": "address",
          "name": "previousOwner",
          "type": "address"
        },
        {
          "indexed": true,
          "internalType": "address",
          "name": "newOwner",
          "type": "address"
        }
      ],
      "name": "OwnershipTransferred",
      "type": "event"
    },
    {
      "inputs": [],
      "name": "LEAF_TYPE_ASSET",
      "outputs": [
        {
          "internalType": "uint8",
          "name": "",
          "type": "uint8"
        }
      ],
      "stateMutability": "view",
      "type": "function"
    },
    {
      "inputs": [],
      "name": "LEAF_TYPE_MESSAGE",
      "outputs": [
        {
          "internalType": "uint8",
          "name": "",
          "type": "uint8"
        }
      ],
      "stateMutability": "view",
      "type": "function"
    },
    {
      "inputs": [],
      "name": "MAINNET_NETWORK_ID",
      "outputs": [
        {
          "internalType": "uint32",
          "name": "",
          "type": "uint32"
        }
      ],
      "stateMutability": "view",
      "type": "function"
    },
    {
      "inputs": [],
      "name": "activateEmergencyState",
      "outputs": [],
      "stateMutability": "nonpayable",
      "type": "function"
    },
    {
      "inputs": [
        {
          "internalType": "address",
          "name": "token",
          "type": "address"
        },
        {
          "internalType": "uint32",
          "name": "destinationNetwork",
          "type": "uint32"
        },
        {
          "internalType": "address",
          "name": "destinationAddress",
          "type": "address"
        },
        {
          "internalType": "uint256",
          "name": "amount",
          "type": "uint256"
        },
        {
          "internalType": "bytes",
          "name": "permitData",
          "type": "bytes"
        }
      ],
      "name": "bridgeAsset",
      "outputs": [],
      "stateMutability": "payable",
      "type": "function"
    },
    {
      "inputs": [
        {
          "internalType": "uint32",
          "name": "destinationNetwork",
          "type": "uint32"
        },
        {
          "internalType": "address",
          "name": "destinationAddress",
          "type": "address"
        },
        {
          "internalType": "bytes",
          "name": "metadata",
          "type": "bytes"
        }
      ],
      "name": "bridgeMessage",
      "outputs": [],
      "stateMutability": "payable",
      "type": "function"
    },
    {
      "inputs": [
        {
          "internalType": "bytes32[]",
          "name": "smtProof",
          "type": "bytes32[]"
        },
        {
          "internalType": "uint32",
          "name": "index",
          "type": "uint32"
        },
        {
          "internalType": "bytes32",
          "name": "mainnetExitRoot",
          "type": "bytes32"
        },
        {
          "internalType": "bytes32",
          "name": "rollupExitRoot",
          "type": "bytes32"
        },
        {
          "internalType": "uint32",
          "name": "originNetwork",
          "type": "uint32"
        },
        {
          "internalType": "address",
          "name": "originTokenAddress",
          "type": "address"
        },
        {
          "internalType": "uint32",
          "name": "destinationNetwork",
          "type": "uint32"
        },
        {
          "internalType": "address",
          "name": "destinationAddress",
          "type": "address"
        },
        {
          "internalType": "uint256",
          "name": "amount",
          "type": "uint256"
        },
        {
          "internalType": "bytes",
          "name": "metadata",
          "type": "bytes"
        }
      ],
      "name": "claimAsset",
      "outputs": [],
      "stateMutability": "nonpayable",
      "type": "function"
    },
    {
      "inputs": [
        {
          "internalType": "bytes32[]",
          "name": "smtProof",
          "type": "bytes32[]"
        },
        {
          "internalType": "uint32",
          "name": "index",
          "type": "uint32"
        },
        {
          "internalType": "bytes32",
          "name": "mainnetExitRoot",
          "type": "bytes32"
        },
        {
          "internalType": "bytes32",
          "name": "rollupExitRoot",
          "type": "bytes32"
        },
        {
          "internalType": "uint32",
          "name": "originNetwork",
          "type": "uint32"
        },
        {
          "internalType": "address",
          "name": "originAddress",
          "type": "address"
        },
        {
          "internalType": "uint32",
          "name": "destinationNetwork",
          "type": "uint32"
        },
        {
          "internalType": "address",
          "name": "destinationAddress",
          "type": "address"
        },
        {
          "internalType": "uint256",
          "name": "amount",
          "type": "uint256"
        },
        {
          "internalType": "bytes",
          "name": "metadata",
          "type": "bytes"
        }
      ],
      "name": "claimMessage",
      "outputs": [],
      "stateMutability": "nonpayable",
      "type": "function"
    },
    {
      "inputs": [
        {
          "internalType": "uint256",
          "name": "",
          "type": "uint256"
        }
      ],
      "name": "claimNullifier",
      "outputs": [
        {
          "internalType": "bool",
          "name": "",
          "type": "bool"
        }
      ],
      "stateMutability": "view",
      "type": "function"
    },
    {
      "inputs": [],
      "name": "deactivateEmergencyState",
      "outputs": [],
      "stateMutability": "nonpayable",
      "type": "function"
    },
    {
      "inputs": [],
      "name": "depositCount",
      "outputs": [
        {
          "internalType": "uint256",
          "name": "",
          "type": "uint256"
        }
      ],
      "stateMutability": "view",
      "type": "function"
    },
    {
      "inputs": [],
      "name": "getDepositRoot",
      "outputs": [
        {
          "internalType": "bytes32",
          "name": "",
          "type": "bytes32"
        }
      ],
      "stateMutability": "view",
      "type": "function"
    },
    {
      "inputs": [
        {
          "internalType": "uint8",
          "name": "leafType",
          "type": "uint8"
        },
        {
          "internalType": "uint32",
          "name": "originNetwork",
          "type": "uint32"
        },
        {
          "internalType": "address",
          "name": "originAddress",
          "type": "address"
        },
        {
          "internalType": "uint32",
          "name": "destinationNetwork",
          "type": "uint32"
        },
        {
          "internalType": "address",
          "name": "destinationAddress",
          "type": "address"
        },
        {
          "internalType": "uint256",
          "name": "amount",
          "type": "uint256"
        },
        {
          "internalType": "bytes32",
          "name": "metadataHash",
          "type": "bytes32"
        }
      ],
      "name": "getLeafValue",
      "outputs": [
        {
          "internalType": "bytes32",
          "name": "",
          "type": "bytes32"
        }
      ],
      "stateMutability": "pure",
      "type": "function"
    },
    {
      "inputs": [
        {
          "internalType": "uint32",
          "name": "originNetwork",
          "type": "uint32"
        },
        {
          "internalType": "address",
          "name": "originTokenAddress",
          "type": "address"
        }
      ],
      "name": "getTokenWrappedAddress",
      "outputs": [
        {
          "internalType": "address",
          "name": "",
          "type": "address"
        }
      ],
      "stateMutability": "view",
      "type": "function"
    },
    {
      "inputs": [],
      "name": "globalExitRootManager",
      "outputs": [
        {
          "internalType": "contract IGlobalExitRootManager",
          "name": "",
          "type": "address"
        }
      ],
      "stateMutability": "view",
      "type": "function"
    },
    {
      "inputs": [
        {
          "internalType": "uint32",
          "name": "_networkID",
          "type": "uint32"
        },
        {
          "internalType": "contract IGlobalExitRootManager",
          "name": "_globalExitRootManager",
          "type": "address"
        },
        {
          "internalType": "address",
          "name": "_poeAddress",
          "type": "address"
        }
      ],
      "name": "initialize",
      "outputs": [],
      "stateMutability": "nonpayable",
      "type": "function"
    },
    {
      "inputs": [],
      "name": "isEmergencyState",
      "outputs": [
        {
          "internalType": "bool",
          "name": "",
          "type": "bool"
        }
      ],
      "stateMutability": "view",
      "type": "function"
    },
    {
      "inputs": [],
      "name": "maxEtherBridge",
      "outputs": [
        {
          "internalType": "uint256",
          "name": "",
          "type": "uint256"
        }
      ],
      "stateMutability": "view",
      "type": "function"
    },
    {
      "inputs": [],
      "name": "networkID",
      "outputs": [
        {
          "internalType": "uint32",
          "name": "",
          "type": "uint32"
        }
      ],
      "stateMutability": "view",
      "type": "function"
    },
    {
      "inputs": [],
      "name": "owner",
      "outputs": [
        {
          "internalType": "address",
          "name": "",
          "type": "address"
        }
      ],
      "stateMutability": "view",
      "type": "function"
    },
    {
      "inputs": [],
      "name": "poeAddress",
      "outputs": [
        {
          "internalType": "address",
          "name": "",
          "type": "address"
        }
      ],
      "stateMutability": "view",
      "type": "function"
    },
    {
      "inputs": [
        {
          "internalType": "uint32",
          "name": "originNetwork",
          "type": "uint32"
        },
        {
          "internalType": "address",
          "name": "originTokenAddress",
          "type": "address"
        },
        {
          "internalType": "string",
          "name": "name",
          "type": "string"
        },
        {
          "internalType": "string",
          "name": "symbol",
          "type": "string"
        },
        {
          "internalType": "uint8",
          "name": "decimals",
          "type": "uint8"
        }
      ],
      "name": "precalculatedWrapperAddress",
      "outputs": [
        {
          "internalType": "address",
          "name": "",
          "type": "address"
        }
      ],
      "stateMutability": "view",
      "type": "function"
    },
    {
      "inputs": [],
      "name": "renounceOwnership",
      "outputs": [],
      "stateMutability": "nonpayable",
      "type": "function"
    },
    {
      "inputs": [
        {
          "internalType": "uint256",
          "name": "_maxEtherBridge",
          "type": "uint256"
        }
      ],
      "name": "setMaxEtherBridge",
      "outputs": [],
      "stateMutability": "nonpayable",
      "type": "function"
    },
    {
      "inputs": [
        {
          "internalType": "uint32",
          "name": "_networkID",
          "type": "uint32"
        }
      ],
      "name": "setNetworkID",
      "outputs": [],
      "stateMutability": "nonpayable",
      "type": "function"
    },
    {
      "inputs": [
        {
          "internalType": "bytes32",
          "name": "",
          "type": "bytes32"
        }
      ],
      "name": "tokenInfoToWrappedToken",
      "outputs": [
        {
          "internalType": "address",
          "name": "",
          "type": "address"
        }
      ],
      "stateMutability": "view",
      "type": "function"
    },
    {
      "inputs": [
        {
          "internalType": "address",
          "name": "newOwner",
          "type": "address"
        }
      ],
      "name": "transferOwnership",
      "outputs": [],
      "stateMutability": "nonpayable",
      "type": "function"
    },
    {
      "inputs": [
        {
          "internalType": "bytes32",
          "name": "leafHash",
          "type": "bytes32"
        },
        {
          "internalType": "bytes32[]",
          "name": "smtProof",
          "type": "bytes32[]"
        },
        {
          "internalType": "uint64",
          "name": "index",
          "type": "uint64"
        },
        {
          "internalType": "bytes32",
          "name": "root",
          "type": "bytes32"
        }
      ],
      "name": "verifyMerkleProof",
      "outputs": [
        {
          "internalType": "bool",
          "name": "",
          "type": "bool"
        }
      ],
      "stateMutability": "pure",
      "type": "function"
    },
    {
      "inputs": [
        {
          "internalType": "address",
          "name": "",
          "type": "address"
        }
      ],
      "name": "wrappedTokenToTokenInfo",
      "outputs": [
        {
          "internalType": "uint32",
          "name": "originNetwork",
          "type": "uint32"
        },
        {
          "internalType": "address",
          "name": "originTokenAddress",
          "type": "address"
        }
      ],
      "stateMutability": "view",
      "type": "function"
    }
  ],
  "bytecode": "0x608060405234801561001057600080fd5b50615cc5806100206000396000f3fe608060405260043610620001e75760003560e01c80637b6323c1116200010b578063bab161bf11620000a1578063e7375881116200006c578063e7375881146200067f578063ed6be5c914620006b3578063f2fde38b14620006ca578063ff634ed714620006ef57600080fd5b8063bab161bf14620005f4578063d02103ca146200062e578063d96a15f71462000650578063dbc16976146200066757600080fd5b80638f61151911620000e25780638f611519146200056b57806391e57e2d146200058d578063a08e8a0814620005a5578063aaa13cc214620005cf57600080fd5b80637b6323c114620004ec57806381b1c17414620005115780638da5cb5b146200054b57600080fd5b8063318aee3d11620001815780633e19704311620001585780633e19704314620003a957806346385549146200048a578063647c576c14620004af578063715018a614620004d457600080fd5b8063318aee3d14620002fd5780633ae05047146200036c5780633da81682146200038457600080fd5b806322e95f2c11620001c257806322e95f2c146200024e5780632b5e42e7146200028c5780632c3f58cd14620002b15780632dfdf0b514620002d657600080fd5b80630871e97114620001ec57806315064c9614620002055780632072f6c51462000236575b600080fd5b62000203620001fd36600462003523565b62000706565b005b3480156200021257600080fd5b50602254620002219060ff1681565b60405190151581526020015b60405180910390f35b3480156200024357600080fd5b5062000203620007c2565b3480156200025b57600080fd5b50620002736200026d366004620035b0565b62000876565b6040516001600160a01b0390911681526020016200022d565b3480156200029957600080fd5b5062000203620002ab366004620035ec565b6200090a565b348015620002be57600080fd5b5062000203620002d036600462003606565b62000919565b348015620002e357600080fd5b50620002ee60215481565b6040519081526020016200022d565b3480156200030a57600080fd5b50620003476200031c36600462003624565b60256020526000908152604090205463ffffffff81169064010000000090046001600160a01b031682565b6040805163ffffffff90931683526001600160a01b039091166020830152016200022d565b3480156200037957600080fd5b50620002ee6200095f565b3480156200039157600080fd5b5062000221620003a336600462003725565b62000a52565b348015620003b657600080fd5b50620002ee620003c8366004620037a3565b6040517fff0000000000000000000000000000000000000000000000000000000000000060f889901b1660208201527fffffffff0000000000000000000000000000000000000000000000000000000060e088811b821660218401526bffffffffffffffffffffffff19606089811b821660258601529188901b909216603984015285901b16603d8201526051810183905260718101829052600090609101604051602081830303815290604052805190602001209050979650505050505050565b3480156200049757600080fd5b5062000203620004a9366004620038b4565b62000b52565b348015620004bc57600080fd5b5062000203620004ce3660046200399b565b62000dd8565b348015620004e157600080fd5b506200020362000fc8565b348015620004f957600080fd5b50620002036200050b366004620038b4565b62000fde565b3480156200051e57600080fd5b506200027362000530366004620035ec565b6024602052600090815260409020546001600160a01b031681565b3480156200055857600080fd5b50605a546001600160a01b031662000273565b3480156200057857600080fd5b5060275462000273906001600160a01b031681565b3480156200059a57600080fd5b50620002ee608c5481565b348015620005b257600080fd5b50620005bc600081565b60405160ff90911681526020016200022d565b348015620005dc57600080fd5b5062000273620005ee366004620039eb565b620015d4565b3480156200060157600080fd5b506022546200061890610100900463ffffffff1681565b60405163ffffffff90911681526020016200022d565b3480156200063b57600080fd5b5060265462000273906001600160a01b031681565b620002036200066136600462003a9f565b62001740565b3480156200067457600080fd5b506200020362001a05565b3480156200068c57600080fd5b50620002216200069e366004620035ec565b60236020526000908152604090205460ff1681565b348015620006c057600080fd5b5062000618600081565b348015620006d757600080fd5b5062000203620006e936600462003624565b62001ab7565b348015620006fc57600080fd5b50620005bc600181565b608c54341115620007aa5760405162461bcd60e51b815260206004820152604a60248201527f4272696467653a3a6272696467653a2043616e6e6f7420627269646765206d6f60448201527f7265207468616e206d6178457468657242726964676520696e20696e7465726e60648201527f616c20746573746e657400000000000000000000000000000000000000000000608482015260a4015b60405180910390fd5b620007ba86868686868662001b4d565b505050505050565b6027546001600160a01b031633146200086a5760405162461bcd60e51b815260206004820152604b60248201527f50726f6f664f66456666696369656e63793a3a6f6e6c7950726f6f664f66456660448201527f66696369656e63793a206f6e6c792050726f6f66206f6620456666696369656e60648201527f637920636f6e7472616374000000000000000000000000000000000000000000608482015260a401620007a1565b62000874620020f8565b565b6000602460008484604051602001620008d292919060e09290921b7fffffffff0000000000000000000000000000000000000000000000000000000016825260601b6bffffffffffffffffffffffff1916600482015260180190565b60408051601f19818403018152918152815160209283012083529082019290925201600020546001600160a01b031690505b92915050565b62000914620021d1565b608c55565b62000923620021d1565b6022805463ffffffff909216610100027fffffffffffffffffffffffffffffffffffffffffffffffffffffff00000000ff909216919091179055565b602154600090819081805b602081101562000a495782600116600103620009ca576001816020811062000996576200099662003b07565b01546040805160208101929092528101859052606001604051602081830303815290604052805190602001209350620009f7565b60408051602081018690529081018390526060016040516020818303038152906040528051906020012093505b62000a0460028462003b65565b6040805160208101859052908101849052909350606001604051602081830303815290604052805190602001209150808062000a409062003ba1565b9150506200096a565b50919392505050565b60008467ffffffffffffffff8416825b602081101562000b45578160011660010362000acf5786818151811062000a8d5762000a8d62003b07565b60200260200101518360405160200162000ab1929190918252602082015260400190565b60405160208183030381529060405280519060200120925062000b21565b8287828151811062000ae55762000ae562003b07565b602002602001015160405160200162000b08929190918252602082015260400190565b6040516020818303038152906040528051906020012092505b62000b2e60028362003b65565b91508062000b3c8162003ba1565b91505062000a62565b5050909114949350505050565b60225460ff161562000bf35760405162461bcd60e51b815260206004820152604260248201527f456d657267656e63794d616e616765723a3a69664e6f74456d657267656e637960448201527f53746174653a206f6e6c79206966206e6f7420656d657267656e63792073746160648201527f7465000000000000000000000000000000000000000000000000000000000000608482015260a401620007a1565b62000c098a8a8a8a8a8a8a8a8a8a60016200222d565b63ffffffff8916600090815260236020526040808220805460ff19166001179055516001600160a01b03851690849062000c4c9089908b90879060240162003c39565b60408051601f198184030181529181526020820180517bffffffffffffffffffffffffffffffffffffffffffffffffffffffff167f1806b5f2000000000000000000000000000000000000000000000000000000001790525162000cb1919062003c72565b60006040518083038185875af1925050503d806000811462000cf0576040519150601f19603f3d011682016040523d82523d6000602084013e62000cf5565b606091505b505090508062000d6d5760405162461bcd60e51b8152602060048201526024808201527f4272696467653a3a636c61696d4d6573736167653a204d4553534147455f464160448201527f494c4544000000000000000000000000000000000000000000000000000000006064820152608401620007a1565b6040805163ffffffff8c81168252891660208201526001600160a01b0388811682840152861660608201526080810185905290517f25308c93ceeed162da955b3f7ce3e3f93606579e40fb92029faa9efe275459839181900360a00190a15050505050505050505050565b600054610100900460ff161580801562000df95750600054600160ff909116105b8062000e155750303b15801562000e15575060005460ff166001145b62000e895760405162461bcd60e51b815260206004820152602e60248201527f496e697469616c697a61626c653a20636f6e747261637420697320616c72656160448201527f647920696e697469616c697a65640000000000000000000000000000000000006064820152608401620007a1565b6000805460ff19166001179055801562000eca57600080547fffffffffffffffffffffffffffffffffffffffffffffffffffffffffffff00ff166101001790555b6022805463ffffffff8616610100027fffffffffffffffffffffffffffffffffffffffffffffffffffffff00000000ff909116179055602680546001600160a01b038086167fffffffffffffffffffffffff000000000000000000000000000000000000000092831617909255602780549285169290911691909117905562000f52620025b5565b6703782dace9d90000608c55801562000fc257600080547fffffffffffffffffffffffffffffffffffffffffffffffffffffffffffff00ff169055604051600181527f7f26b83ff96e1f2b6a682f133852f6798a09c465da95921460cefb38474024989060200160405180910390a15b50505050565b62000fd2620021d1565b6200087460006200263e565b60225460ff16156200107f5760405162461bcd60e51b815260206004820152604260248201527f456d657267656e63794d616e616765723a3a69664e6f74456d657267656e637960448201527f53746174653a206f6e6c79206966206e6f7420656d657267656e63792073746160648201527f7465000000000000000000000000000000000000000000000000000000000000608482015260a401620007a1565b620010958a8a8a8a8a8a8a8a8a8a60006200222d565b63ffffffff89166000908152602360205260409020805460ff191660011790556001600160a01b038516620011b457604080516000808252602082019092526001600160a01b038516908490604051620010f0919062003c72565b60006040518083038185875af1925050503d80600081146200112f576040519150601f19603f3d011682016040523d82523d6000602084013e62001134565b606091505b5050905080620011ad5760405162461bcd60e51b815260206004820152602760248201527f4272696467653a3a636c61696d41737365743a204554485f5452414e5346455260448201527f5f4641494c4544000000000000000000000000000000000000000000000000006064820152608401620007a1565b506200156a565b60225463ffffffff610100909104811690871603620011e957620011e36001600160a01b0386168484620026a8565b6200156a565b6040517fffffffff0000000000000000000000000000000000000000000000000000000060e088901b1660208201526bffffffffffffffffffffffff19606087901b16602482015260009060380160408051601f198184030181529181528151602092830120600081815260249093529120549091506001600160a01b031680620014d65760008060008580602001905181019062001289919062003ce4565b925092509250600085848484604051620012a3906200348c565b620012b19392919062003d5a565b8190604051809103906000f5905080158015620012d2573d6000803e3d6000fd5b506040517f40c10f190000000000000000000000000000000000000000000000000000000081526001600160a01b038b81166004830152602482018b9052919250908216906340c10f19906044016020604051808303816000875af115801562001340573d6000803e3d6000fd5b505050506040513d601f19601f8201168201806040525081019062001366919062003da6565b50620013728162002758565b6200137d84620027d0565b6200138883620027d0565b620013968260ff1662002845565b806024600088815260200190815260200160002060006101000a8154816001600160a01b0302191690836001600160a01b0316021790555060405180604001604052808d63ffffffff1681526020018c6001600160a01b031681525060256000836001600160a01b03166001600160a01b0316815260200190815260200160002060008201518160000160006101000a81548163ffffffff021916908363ffffffff16021790555060208201518160000160046101000a8154816001600160a01b0302191690836001600160a01b031602179055509050507fccd7715648d1f2bb13e158f96b5b6c3aeda555d4cb87112e274a6f28bc571d598c8c83604051620014c49392919063ffffffff9390931683526001600160a01b03918216602084015216604082015260600190565b60405180910390a15050505062001567565b6040517f40c10f190000000000000000000000000000000000000000000000000000000081526001600160a01b038681166004830152602482018690528216906340c10f19906044016020604051808303816000875af11580156200153f573d6000803e3d6000fd5b505050506040513d601f19601f8201168201806040525081019062001565919062003da6565b505b50505b6040805163ffffffff8b81168252881660208201526001600160a01b0387811682840152851660608201526080810184905290517f25308c93ceeed162da955b3f7ce3e3f93606579e40fb92029faa9efe275459839181900360a00190a150505050505050505050565b6040517fffffffff0000000000000000000000000000000000000000000000000000000060e089901b1660208201526bffffffffffffffffffffffff19606088901b1660248201526000908190603801604051602081830303815290604052805190602001209050600060ff60f81b30836040518060200162001657906200348c565b601f1982820381018352601f90910116604081905262001684908d908d908d908d908d9060200162003df1565b60408051601f1981840301815290829052620016a4929160200162003e32565b604051602081830303815290604052805190602001206040516020016200171a94939291907fff0000000000000000000000000000000000000000000000000000000000000094909416845260609290921b6bffffffffffffffffffffffff191660018401526015830152603582015260550190565b60408051808303601f1901815291905280516020909101209a9950505050505050505050565b60225460ff1615620017e15760405162461bcd60e51b815260206004820152604260248201527f456d657267656e63794d616e616765723a3a69664e6f74456d657267656e637960448201527f53746174653a206f6e6c79206966206e6f7420656d657267656e63792073746160648201527f7465000000000000000000000000000000000000000000000000000000000000608482015260a401620007a1565b60225463ffffffff610100909104811690841603620018695760405162461bcd60e51b815260206004820152602a60248201527f4272696467653a3a6272696467653a2044455354494e4154494f4e5f43414e5460448201527f5f42455f495453454c46000000000000000000000000000000000000000000006064820152608401620007a1565b7f501781209a1f8899323b96b4ef08b168df93e0a90c673d1e4cce39366cb62f9b6001602260019054906101000a900463ffffffff163386863487602154604051620018bd98979695949392919062003e65565b60405180910390a16022548151602080840191909120604080517f01000000000000000000000000000000000000000000000000000000000000008185015261010090940460e090811b7fffffffff00000000000000000000000000000000000000000000000000000000908116602187015233606090811b6bffffffffffffffffffffffff199081166025890152928a901b909116603987015287901b16603d85015234605185015260718085019290925280518085039092018252609190930190925281519101206200199290620028bb565b6026546001600160a01b03166333d6247d620019ad6200095f565b6040518263ffffffff1660e01b8152600401620019cc91815260200190565b600060405180830381600087803b158015620019e757600080fd5b505af1158015620019fc573d6000803e3d6000fd5b50505050505050565b6027546001600160a01b0316331462001aad5760405162461bcd60e51b815260206004820152604b60248201527f50726f6f664f66456666696369656e63793a3a6f6e6c7950726f6f664f66456660448201527f66696369656e63793a206f6e6c792050726f6f66206f6620456666696369656e60648201527f637920636f6e7472616374000000000000000000000000000000000000000000608482015260a401620007a1565b6200087462002a1a565b62001ac1620021d1565b6001600160a01b03811662001b3f5760405162461bcd60e51b815260206004820152602660248201527f4f776e61626c653a206e6577206f776e657220697320746865207a65726f206160448201527f64647265737300000000000000000000000000000000000000000000000000006064820152608401620007a1565b62001b4a816200263e565b50565b60225460ff161562001bee5760405162461bcd60e51b815260206004820152604260248201527f456d657267656e63794d616e616765723a3a69664e6f74456d657267656e637960448201527f53746174653a206f6e6c79206966206e6f7420656d657267656e63792073746160648201527f7465000000000000000000000000000000000000000000000000000000000000608482015260a401620007a1565b60225463ffffffff61010090910481169086160362001c765760405162461bcd60e51b815260206004820152602a60248201527f4272696467653a3a6272696467653a2044455354494e4154494f4e5f43414e5460448201527f5f42455f495453454c46000000000000000000000000000000000000000000006064820152608401620007a1565b60008060606001600160a01b03891662001d0b5785341462001d015760405162461bcd60e51b815260206004820152602f60248201527f4272696467653a3a6272696467653a20414d4f554e545f444f45535f4e4f545f60448201527f4d415443485f4d53475f56414c554500000000000000000000000000000000006064820152608401620007a1565b6000915062001f95565b6001600160a01b03808a1660009081526025602090815260409182902082518084019093525463ffffffff811683526401000000009004909216918101829052901562001df2576040517f9dc29fac000000000000000000000000000000000000000000000000000000008152336004820152602481018890526001600160a01b038b1690639dc29fac906044016020604051808303816000875af115801562001db9573d6000803e3d6000fd5b505050506040513d601f19601f8201168201806040525081019062001ddf919062003da6565b5060208101518151909450925062001f93565b841562001e075762001e078a88888862002aca565b62001e1e6001600160a01b038b1633308a620030f0565b899350602260019054906101000a900463ffffffff169250896001600160a01b03166306fdde036040518163ffffffff1660e01b8152600401600060405180830381865afa15801562001e75573d6000803e3d6000fd5b505050506040513d6000823e601f3d908101601f1916820160405262001e9f919081019062003ed1565b8a6001600160a01b03166395d89b416040518163ffffffff1660e01b8152600401600060405180830381865afa15801562001ede573d6000803e3d6000fd5b505050506040513d6000823e601f3d908101601f1916820160405262001f08919081019062003ed1565b8b6001600160a01b031663313ce5676040518163ffffffff1660e01b8152600401602060405180830381865afa15801562001f47573d6000803e3d6000fd5b505050506040513d601f19601f8201168201806040525081019062001f6d919062003f0a565b60405160200162001f819392919062003d5a565b60405160208183030381529060405291505b505b7f501781209a1f8899323b96b4ef08b168df93e0a90c673d1e4cce39366cb62f9b600083858b8b8b8760215460405162001fd798979695949392919062003e65565b60405180910390a18051602080830191909120604080516000818501527fffffffff0000000000000000000000000000000000000000000000000000000060e087811b821660218401526bffffffffffffffffffffffff1960608a811b82166025860152918f901b90921660398401528c901b16603d820152605181018a905260718082019390935281518082039093018352609101905280519101206200207f90620028bb565b6026546001600160a01b03166333d6247d6200209a6200095f565b6040518263ffffffff1660e01b8152600401620020b991815260200190565b600060405180830381600087803b158015620020d457600080fd5b505af1158015620020e9573d6000803e3d6000fd5b50505050505050505050505050565b60225460ff1615620021995760405162461bcd60e51b815260206004820152604260248201527f456d657267656e63794d616e616765723a3a69664e6f74456d657267656e637960448201527f53746174653a206f6e6c79206966206e6f7420656d657267656e63792073746160648201527f7465000000000000000000000000000000000000000000000000000000000000608482015260a401620007a1565b6022805460ff191660011790556040517f2261efe5aef6fedc1fd1550b25facc9181745623049c7901287030b9ad1a549790600090a1565b605a546001600160a01b03163314620008745760405162461bcd60e51b815260206004820181905260248201527f4f776e61626c653a2063616c6c6572206973206e6f7420746865206f776e65726044820152606401620007a1565b63ffffffff8a1660009081526023602052604090205460ff1615620022ba5760405162461bcd60e51b8152602060048201526024808201527f4272696467653a3a5f7665726966794c6561663a20414c52454144595f434c4160448201527f494d4544000000000000000000000000000000000000000000000000000000006064820152608401620007a1565b6026546040805160208082018d90528183018c9052825180830384018152606083019384905280519101207f257b36320000000000000000000000000000000000000000000000000000000090925260648101919091526001600160a01b039091169063257b3632906084016020604051808303816000875af115801562002346573d6000803e3d6000fd5b505050506040513d601f19601f820116820180604052508101906200236c919062003f2a565b600003620023e35760405162461bcd60e51b815260206004820152603460248201527f4272696467653a3a5f7665726966794c6561663a20474c4f42414c5f4558495460448201527f5f524f4f545f444f45535f4e4f545f4d415443480000000000000000000000006064820152608401620007a1565b60225463ffffffff86811661010090920416146200246a5760405162461bcd60e51b815260206004820152603760248201527f4272696467653a3a5f7665726966794c6561663a2044455354494e4154494f4e60448201527f5f4e4554574f524b5f444f45535f4e4f545f4d415443480000000000000000006064820152608401620007a1565b602254600090610100900463ffffffff16620024885750876200248b565b50885b8251602080850191909120604080517fff0000000000000000000000000000000000000000000000000000000000000060f887901b16818501527fffffffff0000000000000000000000000000000000000000000000000000000060e08d811b821660218401526bffffffffffffffffffffffff1960608e811b82166025860152918d901b90921660398401528a901b16603d82015260518101889052607180820193909352815180820390930183526091019052805191012062002559908d8d63ffffffff168462000a52565b620025a75760405162461bcd60e51b815260206004820181905260248201527f4272696467653a3a5f7665726966794c6561663a20534d545f494e56414c49446044820152606401620007a1565b505050505050505050505050565b600054610100900460ff16620026345760405162461bcd60e51b815260206004820152602b60248201527f496e697469616c697a61626c653a20636f6e7472616374206973206e6f74206960448201527f6e697469616c697a696e670000000000000000000000000000000000000000006064820152608401620007a1565b6200087462003143565b605a80546001600160a01b038381167fffffffffffffffffffffffff0000000000000000000000000000000000000000831681179093556040519116919082907f8be0079c531659141344cd1fd0a4f28419497f9722a3daafe3b4186f6b6457e090600090a35050565b6040516001600160a01b038316602482015260448101829052620027539084907fa9059cbb00000000000000000000000000000000000000000000000000000000906064015b60408051601f198184030181529190526020810180517bffffffffffffffffffffffffffffffffffffffffffffffffffffffff167fffffffff0000000000000000000000000000000000000000000000000000000090931692909217909152620031cd565b505050565b6040516001600160a01b038216602482015262001b4a9060440160408051601f198184030181529190526020810180517bffffffffffffffffffffffffffffffffffffffffffffffffffffffff167f2c2ecbc200000000000000000000000000000000000000000000000000000000179052620032b9565b62001b4a81604051602401620027e7919062003f44565b60408051601f198184030181529190526020810180517bffffffffffffffffffffffffffffffffffffffffffffffffffffffff167f41304fac00000000000000000000000000000000000000000000000000000000179052620032b9565b62001b4a816040516024016200285d91815260200190565b60408051601f198184030181529190526020810180517bffffffffffffffffffffffffffffffffffffffffffffffffffffffff167ff82c50f100000000000000000000000000000000000000000000000000000000179052620032b9565b806001620028cc6020600262004092565b620028d89190620040a0565b60215410620029505760405162461bcd60e51b815260206004820152602a60248201527f4465706f736974436f6e74726163743a5f6465706f7369743a204d45524b4c4560448201527f5f545245455f46554c4c000000000000000000000000000000000000000000006064820152608401620007a1565b600160216000828254620029659190620040ba565b909155505060215460005b602081101562002a0f5781600116600103620029a55782600182602081106200299d576200299d62003b07565b015550505050565b60018160208110620029bb57620029bb62003b07565b01546040805160208101929092528101849052606001604051602081830303815290604052805190602001209250600282620029f8919062003b65565b91508062002a068162003ba1565b91505062002970565b5062002753620040d5565b60225460ff161562002a955760405162461bcd60e51b815260206004820152603b60248201527f456d657267656e63794d616e616765723a3a6966456d657267656e637953746160448201527f74653a206f6e6c7920696620656d657267656e637920737461746500000000006064820152608401620007a1565b6022805460ff191690556040517f1e5e34eea33501aecf2ebec9fe0e884a40804275ea7fe10b2ba084c8374308b390600090a1565b600062002b0d83838080601f016020809104026020016040519081016040528093929190818152602001838380828437600092019190915250620032da92505050565b90507f2afa5331000000000000000000000000000000000000000000000000000000007fffffffff0000000000000000000000000000000000000000000000000000000082160162002e0f57600080808080808062002b70896004818d62004104565b81019062002b7f919062004130565b9650965096509650965096509650336001600160a01b0316876001600160a01b03161462002c165760405162461bcd60e51b815260206004820152603060248201527f4272696467653a3a5f7065726d69743a205045524d49545f4f574e45525f4d5560448201527f53545f42455f5448455f53454e444552000000000000000000000000000000006064820152608401620007a1565b6001600160a01b038616301462002c965760405162461bcd60e51b815260206004820152602560248201527f4272696467653a3a5f7065726d69743a205350454e4445525f4d5553545f424560448201527f5f544849530000000000000000000000000000000000000000000000000000006064820152608401620007a1565b8a851462002d0d5760405162461bcd60e51b815260206004820152602d60248201527f4272696467653a3a5f7065726d69743a205045524d49545f414d4f554e545f4460448201527f4f45535f4e4f545f4d41544348000000000000000000000000000000000000006064820152608401620007a1565b604080516001600160a01b0389811660248301528881166044830152606482018890526084820187905260ff861660a483015260c4820185905260e48083018590528351808403909101815261010490920183526020820180517bffffffffffffffffffffffffffffffffffffffffffffffffffffffff167fd505accf000000000000000000000000000000000000000000000000000000001790529151918e169162002dbb919062003c72565b6000604051808303816000865af19150503d806000811462002dfa576040519150601f19603f3d011682016040523d82523d6000602084013e62002dff565b606091505b50505050505050505050620030e9565b7fffffffff0000000000000000000000000000000000000000000000000000000081167f8fcbaf0c000000000000000000000000000000000000000000000000000000001462002ea25760405162461bcd60e51b815260206004820152601f60248201527f4272696467653a3a5f7065726d69743a204e4f545f56414c49445f43414c4c006044820152606401620007a1565b60008080808080808062002eba8a6004818e62004104565b81019062002ec991906200418b565b97509750975097509750975097509750336001600160a01b0316886001600160a01b03161462002f625760405162461bcd60e51b815260206004820152603060248201527f4272696467653a3a5f7065726d69743a205045524d49545f4f574e45525f4d5560448201527f53545f42455f5448455f53454e444552000000000000000000000000000000006064820152608401620007a1565b6001600160a01b038716301462002fe25760405162461bcd60e51b815260206004820152602560248201527f4272696467653a3a5f7065726d69743a205350454e4445525f4d5553545f424560448201527f5f544849530000000000000000000000000000000000000000000000000000006064820152608401620007a1565b604080516001600160a01b038a811660248301528981166044830152606482018990526084820188905286151560a483015260ff861660c483015260e482018590526101048083018590528351808403909101815261012490920183526020820180517bffffffffffffffffffffffffffffffffffffffffffffffffffffffff167f8fcbaf0c000000000000000000000000000000000000000000000000000000001790529151918f169162003099919062003c72565b6000604051808303816000865af19150503d8060008114620030d8576040519150601f19603f3d011682016040523d82523d6000602084013e620030dd565b606091505b50505050505050505050505b5050505050565b6040516001600160a01b038085166024830152831660448201526064810182905262000fc29085907f23b872dd0000000000000000000000000000000000000000000000000000000090608401620026ee565b600054610100900460ff16620031c25760405162461bcd60e51b815260206004820152602b60248201527f496e697469616c697a61626c653a20636f6e7472616374206973206e6f74206960448201527f6e697469616c697a696e670000000000000000000000000000000000000000006064820152608401620007a1565b62000874336200263e565b600062003224826040518060400160405280602081526020017f5361666545524332303a206c6f772d6c6576656c2063616c6c206661696c6564815250856001600160a01b0316620032e19092919063ffffffff16565b80519091501562002753578080602001905181019062003245919062003da6565b620027535760405162461bcd60e51b815260206004820152602a60248201527f5361666545524332303a204552433230206f7065726174696f6e20646964206e60448201527f6f742073756363656564000000000000000000000000000000000000000000006064820152608401620007a1565b80516a636f6e736f6c652e6c6f67602083016000808483855afa5050505050565b6020015190565b6060620032f28484600085620032fc565b90505b9392505050565b606082471015620033765760405162461bcd60e51b815260206004820152602660248201527f416464726573733a20696e73756666696369656e742062616c616e636520666f60448201527f722063616c6c00000000000000000000000000000000000000000000000000006064820152608401620007a1565b6001600160a01b0385163b620033cf5760405162461bcd60e51b815260206004820152601d60248201527f416464726573733a2063616c6c20746f206e6f6e2d636f6e74726163740000006044820152606401620007a1565b600080866001600160a01b03168587604051620033ed919062003c72565b60006040518083038185875af1925050503d80600081146200342c576040519150601f19603f3d011682016040523d82523d6000602084013e62003431565b606091505b5091509150620034438282866200344e565b979650505050505050565b606083156200345f575081620032f5565b825115620034705782518084602001fd5b8160405162461bcd60e51b8152600401620007a1919062003f44565b611a78806200421883390190565b6001600160a01b038116811462001b4a57600080fd5b8035620034bd816200349a565b919050565b803563ffffffff81168114620034bd57600080fd5b60008083601f840112620034ea57600080fd5b50813567ffffffffffffffff8111156200350357600080fd5b6020830191508360208285010111156200351c57600080fd5b9250929050565b60008060008060008060a087890312156200353d57600080fd5b86356200354a816200349a565b95506200355a60208801620034c2565b945060408701356200356c816200349a565b935060608701359250608087013567ffffffffffffffff8111156200359057600080fd5b6200359e89828a01620034d7565b979a9699509497509295939492505050565b60008060408385031215620035c457600080fd5b620035cf83620034c2565b91506020830135620035e1816200349a565b809150509250929050565b600060208284031215620035ff57600080fd5b5035919050565b6000602082840312156200361957600080fd5b620032f582620034c2565b6000602082840312156200363757600080fd5b8135620032f5816200349a565b7f4e487b7100000000000000000000000000000000000000000000000000000000600052604160045260246000fd5b604051601f8201601f1916810167ffffffffffffffff811182821017156200369f576200369f62003644565b604052919050565b600082601f830112620036b957600080fd5b8135602067ffffffffffffffff821115620036d857620036d862003644565b8160051b620036e982820162003673565b92835284810182019282810190878511156200370457600080fd5b83870192505b8483101562003443578235825291830191908301906200370a565b600080600080608085870312156200373c57600080fd5b84359350602085013567ffffffffffffffff808211156200375c57600080fd5b6200376a88838901620036a7565b94506040870135915080821682146200378257600080fd5b509396929550929360600135925050565b60ff8116811462001b4a57600080fd5b600080600080600080600060e0888a031215620037bf57600080fd5b8735620037cc8162003793565b9650620037dc60208901620034c2565b95506040880135620037ee816200349a565b9450620037fe60608901620034c2565b9350608088013562003810816200349a565b9699959850939692959460a0840135945060c09093013592915050565b600067ffffffffffffffff8211156200384a576200384a62003644565b50601f01601f191660200190565b600082601f8301126200386a57600080fd5b8135620038816200387b826200382d565b62003673565b8181528460208386010111156200389757600080fd5b816020850160208301376000918101602001919091529392505050565b6000806000806000806000806000806101408b8d031215620038d557600080fd5b8a3567ffffffffffffffff80821115620038ee57600080fd5b620038fc8e838f01620036a7565b9b506200390c60208e01620034c2565b9a5060408d0135995060608d013598506200392a60808e01620034c2565b97506200393a60a08e01620034b0565b96506200394a60c08e01620034c2565b95506200395a60e08e01620034b0565b94506101008d013593506101208d01359150808211156200397a57600080fd5b50620039898d828e0162003858565b9150509295989b9194979a5092959850565b600080600060608486031215620039b157600080fd5b620039bc84620034c2565b92506020840135620039ce816200349a565b91506040840135620039e0816200349a565b809150509250925092565b600080600080600080600060a0888a03121562003a0757600080fd5b62003a1288620034c2565b9650602088013562003a24816200349a565b9550604088013567ffffffffffffffff8082111562003a4257600080fd5b62003a508b838c01620034d7565b909750955060608a013591508082111562003a6a57600080fd5b5062003a798a828b01620034d7565b909450925050608088013562003a8f8162003793565b8091505092959891949750929550565b60008060006060848603121562003ab557600080fd5b62003ac084620034c2565b9250602084013562003ad2816200349a565b9150604084013567ffffffffffffffff81111562003aef57600080fd5b62003afd8682870162003858565b9150509250925092565b7f4e487b7100000000000000000000000000000000000000000000000000000000600052603260045260246000fd5b7f4e487b7100000000000000000000000000000000000000000000000000000000600052601160045260246000fd5b60008262003b9c577f4e487b7100000000000000000000000000000000000000000000000000000000600052601260045260246000fd5b500490565b60007fffffffffffffffffffffffffffffffffffffffffffffffffffffffffffffffff820362003bd55762003bd562003b36565b5060010190565b60005b8381101562003bf957818101518382015260200162003bdf565b8381111562000fc25750506000910152565b6000815180845262003c2581602086016020860162003bdc565b601f01601f19169290920160200192915050565b6001600160a01b038416815263ffffffff8316602082015260606040820152600062003c69606083018462003c0b565b95945050505050565b6000825162003c8681846020870162003bdc565b9190910192915050565b600082601f83011262003ca257600080fd5b815162003cb36200387b826200382d565b81815284602083860101111562003cc957600080fd5b62003cdc82602083016020870162003bdc565b949350505050565b60008060006060848603121562003cfa57600080fd5b835167ffffffffffffffff8082111562003d1357600080fd5b62003d218783880162003c90565b9450602086015191508082111562003d3857600080fd5b5062003d478682870162003c90565b9250506040840151620039e08162003793565b60608152600062003d6f606083018662003c0b565b828103602084015262003d83818662003c0b565b91505060ff83166040830152949350505050565b801515811462001b4a57600080fd5b60006020828403121562003db957600080fd5b8151620032f58162003d97565b818352818160208501375060006020828401015260006020601f19601f840116840101905092915050565b60608152600062003e0760608301878962003dc6565b828103602084015262003e1c81868862003dc6565b91505060ff831660408301529695505050505050565b6000835162003e4681846020880162003bdc565b83519083019062003e5c81836020880162003bdc565b01949350505050565b600061010060ff8b16835263ffffffff808b1660208501526001600160a01b03808b166040860152818a1660608601528089166080860152508660a08501528160c085015262003eb88285018762003c0b565b925080851660e085015250509998505050505050505050565b60006020828403121562003ee457600080fd5b815167ffffffffffffffff81111562003efc57600080fd5b62003cdc8482850162003c90565b60006020828403121562003f1d57600080fd5b8151620032f58162003793565b60006020828403121562003f3d57600080fd5b5051919050565b602081526000620032f5602083018462003c0b565b600181815b8085111562003fb857817fffffffffffffffffffffffffffffffffffffffffffffffffffffffffffffffff0482111562003f9c5762003f9c62003b36565b8085161562003faa57918102915b93841c939080029062003f5e565b509250929050565b60008262003fd15750600162000904565b8162003fe05750600062000904565b816001811462003ff95760028114620040045762004024565b600191505062000904565b60ff84111562004018576200401862003b36565b50506001821b62000904565b5060208310610133831016604e8410600b841016171562004049575081810a62000904565b62004055838362003f59565b807fffffffffffffffffffffffffffffffffffffffffffffffffffffffffffffffff048211156200408a576200408a62003b36565b029392505050565b6000620032f5838362003fc0565b600082821015620040b557620040b562003b36565b500390565b60008219821115620040d057620040d062003b36565b500190565b7f4e487b7100000000000000000000000000000000000000000000000000000000600052600160045260246000fd5b600080858511156200411557600080fd5b838611156200412357600080fd5b5050820193919092039150565b600080600080600080600060e0888a0312156200414c57600080fd5b873562004159816200349a565b965060208801356200416b816200349a565b955060408801359450606088013593506080880135620038108162003793565b600080600080600080600080610100898b031215620041a957600080fd5b8835620041b6816200349a565b97506020890135620041c8816200349a565b965060408901359550606089013594506080890135620041e88162003d97565b935060a0890135620041fa8162003793565b979a969950949793969295929450505060c08201359160e001359056fe60c06040523480156200001157600080fd5b5060405162001a7838038062001a788339810160408190526200003491620002ad565b82826003620000448382620003c1565b506004620000538282620003c1565b5050600580546001600160a81b0319163360ff60a01b191617600160a01b60ff851602179055504660808190526200008b9062000098565b60a052506200048d915050565b60007f8b73c3c69bb8fe3d512ecc4cf759cc79239f7b179b0ffacaa9a75d522b39400f620000c562000146565b805160209182012060408051808201825260018152603160f81b90840152805192830193909352918101919091527fc89efdaa54c0f20c7adf612882df0950f5a951637e0307cdcb4c672f298b8bc66060820152608081018390523060a082015260c001604051602081830303815290604052805190602001209050919050565b606060038054620001579062000332565b80601f0160208091040260200160405190810160405280929190818152602001828054620001859062000332565b8015620001d65780601f10620001aa57610100808354040283529160200191620001d6565b820191906000526020600020905b815481529060010190602001808311620001b857829003601f168201915b5050505050905090565b634e487b7160e01b600052604160045260246000fd5b600082601f8301126200020857600080fd5b81516001600160401b0380821115620002255762000225620001e0565b604051601f8301601f19908116603f01168101908282118183101715620002505762000250620001e0565b816040528381526020925086838588010111156200026d57600080fd5b600091505b8382101562000291578582018301518183018401529082019062000272565b83821115620002a35760008385830101525b9695505050505050565b600080600060608486031215620002c357600080fd5b83516001600160401b0380821115620002db57600080fd5b620002e987838801620001f6565b945060208601519150808211156200030057600080fd5b506200030f86828701620001f6565b925050604084015160ff811681146200032757600080fd5b809150509250925092565b600181811c908216806200034757607f821691505b6020821081036200036857634e487b7160e01b600052602260045260246000fd5b50919050565b601f821115620003bc57600081815260208120601f850160051c81016020861015620003975750805b601f850160051c820191505b81811015620003b857828155600101620003a3565b5050505b505050565b81516001600160401b03811115620003dd57620003dd620001e0565b620003f581620003ee845462000332565b846200036e565b602080601f8311600181146200042d5760008415620004145750858301515b600019600386901b1c1916600185901b178555620003b8565b600085815260208120601f198616915b828110156200045e578886015182559484019460019091019084016200043d565b50858210156200047d5787850151600019600388901b60f8161c191681555b5050505050600190811b01905550565b60805160a0516115be620004ba600039600061053001526000818161036f01526104fa01526115be6000f3fe608060405234801561001057600080fd5b50600436106101775760003560e01c806370a08231116100d8578063a457c2d71161008c578063d505accf11610066578063d505accf14610391578063dd62ed3e146103a6578063ffa1ad74146103ec57600080fd5b8063a457c2d714610344578063a9059cbb14610357578063cd0d00961461036a57600080fd5b806395d89b41116100bd57806395d89b41146102e45780639dc29fac146102ec578063a3c573eb146102ff57600080fd5b806370a082311461028e5780637ecebe00146102c457600080fd5b806330adf81f1161012f5780633644e515116101145780633644e51514610260578063395093511461026857806340c10f191461027b57600080fd5b806330adf81f14610209578063313ce5671461023057600080fd5b806318160ddd1161016057806318160ddd146101bd57806320606b70146101cf57806323b872dd146101f657600080fd5b806306fdde031461017c578063095ea7b31461019a575b600080fd5b610184610428565b60405161019191906112d5565b60405180910390f35b6101ad6101a8366004611371565b6104ba565b6040519015158152602001610191565b6002545b604051908152602001610191565b6101c17f8b73c3c69bb8fe3d512ecc4cf759cc79239f7b179b0ffacaa9a75d522b39400f81565b6101ad61020436600461139b565b6104d2565b6101c17f6e71edae12b1b97f4d1f60370fef10105fa2faae0126114a169c64845d6126c981565b60055474010000000000000000000000000000000000000000900460ff1660405160ff9091168152602001610191565b6101c16104f6565b6101ad610276366004611371565b610552565b6101ad610289366004611371565b61059e565b6101c161029c3660046113d7565b73ffffffffffffffffffffffffffffffffffffffff1660009081526020819052604090205490565b6101c16102d23660046113d7565b60066020526000908152604090205481565b610184610645565b6101ad6102fa366004611371565b610654565b60055461031f9073ffffffffffffffffffffffffffffffffffffffff1681565b60405173ffffffffffffffffffffffffffffffffffffffff9091168152602001610191565b6101ad610352366004611371565b6106ed565b6101ad610365366004611371565b6107a4565b6101c17f000000000000000000000000000000000000000000000000000000000000000081565b6103a461039f3660046113f9565b6107b2565b005b6101c16103b436600461146c565b73ffffffffffffffffffffffffffffffffffffffff918216600090815260016020908152604080832093909416825291909152205490565b6101846040518060400160405280600181526020017f310000000000000000000000000000000000000000000000000000000000000081525081565b6060600380546104379061149f565b80601f01602080910402602001604051908101604052809291908181526020018280546104639061149f565b80156104b05780601f10610485576101008083540402835291602001916104b0565b820191906000526020600020905b81548152906001019060200180831161049357829003601f168201915b5050505050905090565b6000336104c8818585610ab4565b5060019392505050565b6000336104e0858285610c34565b6104eb858585610cf1565b506001949350505050565b60007f0000000000000000000000000000000000000000000000000000000000000000461461052d5761052846610f56565b905090565b507f000000000000000000000000000000000000000000000000000000000000000090565b33600081815260016020908152604080832073ffffffffffffffffffffffffffffffffffffffff871684529091528120549091906104c89082908690610599908790611521565b610ab4565b60055460009073ffffffffffffffffffffffffffffffffffffffff1633146106325760405162461bcd60e51b8152602060048201526024808201527f546f6b656e577261707065643a3a6f6e6c794272696467653a204e4f545f425260448201527f494447450000000000000000000000000000000000000000000000000000000060648201526084015b60405180910390fd5b61063c838361101e565b50600192915050565b6060600480546104379061149f565b60055460009073ffffffffffffffffffffffffffffffffffffffff1633146106e35760405162461bcd60e51b8152602060048201526024808201527f546f6b656e577261707065643a3a6f6e6c794272696467653a204e4f545f425260448201527f49444745000000000000000000000000000000000000000000000000000000006064820152608401610629565b61063c8383611124565b33600081815260016020908152604080832073ffffffffffffffffffffffffffffffffffffffff87168452909152812054909190838110156107975760405162461bcd60e51b815260206004820152602560248201527f45524332303a2064656372656173656420616c6c6f77616e63652062656c6f7760448201527f207a65726f0000000000000000000000000000000000000000000000000000006064820152608401610629565b6104eb8286868403610ab4565b6000336104c8818585610cf1565b834211156108275760405162461bcd60e51b8152602060048201526024808201527f546f6b656e577261707065643a3a7065726d69743a204578706972656420706560448201527f726d6974000000000000000000000000000000000000000000000000000000006064820152608401610629565b73ffffffffffffffffffffffffffffffffffffffff8716600090815260066020526040812080547f6e71edae12b1b97f4d1f60370fef10105fa2faae0126114a169c64845d6126c9918a918a918a91908661088183611539565b9091555060408051602081019690965273ffffffffffffffffffffffffffffffffffffffff94851690860152929091166060840152608083015260a082015260c0810186905260e00160405160208183030381529060405280519060200120905060006108ec6104f6565b6040517f19010000000000000000000000000000000000000000000000000000000000006020820152602281019190915260428101839052606201604080517fffffffffffffffffffffffffffffffffffffffffffffffffffffffffffffffe08184030181528282528051602091820120600080855291840180845281905260ff89169284019290925260608301879052608083018690529092509060019060a0016020604051602081039080840390855afa1580156109b0573d6000803e3d6000fd5b50506040517fffffffffffffffffffffffffffffffffffffffffffffffffffffffffffffffe0015191505073ffffffffffffffffffffffffffffffffffffffff811615801590610a2b57508973ffffffffffffffffffffffffffffffffffffffff168173ffffffffffffffffffffffffffffffffffffffff16145b610a9d5760405162461bcd60e51b815260206004820152602760248201527f546f6b656e577261707065643a3a7065726d69743a20496e76616c696420736960448201527f676e6174757265000000000000000000000000000000000000000000000000006064820152608401610629565b610aa88a8a8a610ab4565b50505050505050505050565b73ffffffffffffffffffffffffffffffffffffffff8316610b3c5760405162461bcd60e51b8152602060048201526024808201527f45524332303a20617070726f76652066726f6d20746865207a65726f2061646460448201527f72657373000000000000000000000000000000000000000000000000000000006064820152608401610629565b73ffffffffffffffffffffffffffffffffffffffff8216610bc55760405162461bcd60e51b815260206004820152602260248201527f45524332303a20617070726f766520746f20746865207a65726f20616464726560448201527f73730000000000000000000000000000000000000000000000000000000000006064820152608401610629565b73ffffffffffffffffffffffffffffffffffffffff83811660008181526001602090815260408083209487168084529482529182902085905590518481527f8c5be1e5ebec7d5bd14f71427d1e84f3dd0314c0f7b2291e5b200ac8c7c3b92591015b60405180910390a3505050565b73ffffffffffffffffffffffffffffffffffffffff8381166000908152600160209081526040808320938616835292905220547fffffffffffffffffffffffffffffffffffffffffffffffffffffffffffffffff8114610ceb5781811015610cde5760405162461bcd60e51b815260206004820152601d60248201527f45524332303a20696e73756666696369656e7420616c6c6f77616e63650000006044820152606401610629565b610ceb8484848403610ab4565b50505050565b73ffffffffffffffffffffffffffffffffffffffff8316610d7a5760405162461bcd60e51b815260206004820152602560248201527f45524332303a207472616e736665722066726f6d20746865207a65726f20616460448201527f64726573730000000000000000000000000000000000000000000000000000006064820152608401610629565b73ffffffffffffffffffffffffffffffffffffffff8216610e035760405162461bcd60e51b815260206004820152602360248201527f45524332303a207472616e7366657220746f20746865207a65726f206164647260448201527f65737300000000000000000000000000000000000000000000000000000000006064820152608401610629565b73ffffffffffffffffffffffffffffffffffffffff831660009081526020819052604090205481811015610e9f5760405162461bcd60e51b815260206004820152602660248201527f45524332303a207472616e7366657220616d6f756e742065786365656473206260448201527f616c616e636500000000000000000000000000000000000000000000000000006064820152608401610629565b73ffffffffffffffffffffffffffffffffffffffff808516600090815260208190526040808220858503905591851681529081208054849290610ee3908490611521565b925050819055508273ffffffffffffffffffffffffffffffffffffffff168473ffffffffffffffffffffffffffffffffffffffff167fddf252ad1be2c89b69c2b068fc378daa952ba7f163c4a11628f55a4df523b3ef84604051610f4991815260200190565b60405180910390a3610ceb565b60007f8b73c3c69bb8fe3d512ecc4cf759cc79239f7b179b0ffacaa9a75d522b39400f610f81610428565b8051602091820120604080518082018252600181527f310000000000000000000000000000000000000000000000000000000000000090840152805192830193909352918101919091527fc89efdaa54c0f20c7adf612882df0950f5a951637e0307cdcb4c672f298b8bc66060820152608081018390523060a082015260c001604051602081830303815290604052805190602001209050919050565b73ffffffffffffffffffffffffffffffffffffffff82166110815760405162461bcd60e51b815260206004820152601f60248201527f45524332303a206d696e7420746f20746865207a65726f2061646472657373006044820152606401610629565b80600260008282546110939190611521565b909155505073ffffffffffffffffffffffffffffffffffffffff8216600090815260208190526040812080548392906110cd908490611521565b909155505060405181815273ffffffffffffffffffffffffffffffffffffffff8316906000907fddf252ad1be2c89b69c2b068fc378daa952ba7f163c4a11628f55a4df523b3ef9060200160405180910390a35050565b73ffffffffffffffffffffffffffffffffffffffff82166111ad5760405162461bcd60e51b815260206004820152602160248201527f45524332303a206275726e2066726f6d20746865207a65726f2061646472657360448201527f73000000000000000000000000000000000000000000000000000000000000006064820152608401610629565b73ffffffffffffffffffffffffffffffffffffffff8216600090815260208190526040902054818110156112495760405162461bcd60e51b815260206004820152602260248201527f45524332303a206275726e20616d6f756e7420657863656564732062616c616e60448201527f63650000000000000000000000000000000000000000000000000000000000006064820152608401610629565b73ffffffffffffffffffffffffffffffffffffffff83166000908152602081905260408120838303905560028054849290611285908490611571565b909155505060405182815260009073ffffffffffffffffffffffffffffffffffffffff8516907fddf252ad1be2c89b69c2b068fc378daa952ba7f163c4a11628f55a4df523b3ef90602001610c27565b600060208083528351808285015260005b81811015611302578581018301518582016040015282016112e6565b81811115611314576000604083870101525b50601f017fffffffffffffffffffffffffffffffffffffffffffffffffffffffffffffffe016929092016040019392505050565b803573ffffffffffffffffffffffffffffffffffffffff8116811461136c57600080fd5b919050565b6000806040838503121561138457600080fd5b61138d83611348565b946020939093013593505050565b6000806000606084860312156113b057600080fd5b6113b984611348565b92506113c760208501611348565b9150604084013590509250925092565b6000602082840312156113e957600080fd5b6113f282611348565b9392505050565b600080600080600080600060e0888a03121561141457600080fd5b61141d88611348565b965061142b60208901611348565b95506040880135945060608801359350608088013560ff8116811461144f57600080fd5b9699959850939692959460a0840135945060c09093013592915050565b6000806040838503121561147f57600080fd5b61148883611348565b915061149660208401611348565b90509250929050565b600181811c908216806114b357607f821691505b6020821081036114ec577f4e487b7100000000000000000000000000000000000000000000000000000000600052602260045260246000fd5b50919050565b7f4e487b7100000000000000000000000000000000000000000000000000000000600052601160045260246000fd5b60008219821115611534576115346114f2565b500190565b60007fffffffffffffffffffffffffffffffffffffffffffffffffffffffffffffffff820361156a5761156a6114f2565b5060010190565b600082821015611583576115836114f2565b50039056fea2646970667358221220dc9c54325b6ec8c11c8bc6a1630cfb64202b6d54611cd1004e705ceca7826a4f64736f6c634300080f0033a2646970667358221220d5e32f6ffbd5cc460bd0a72e00ddd4d753b780a14f41dfbed29efb3720e9bfdf64736f6c634300080f0033",
  "linkReferences": {},
  "deployedLinkReferences": {}
}