{
  "_format": "hh-sol-artifact-1",
  "contractName": "ClaimCompressor",
  "sourceName": "contracts/v2/utils/ClaimCompressor.sol",
  "abi": [
    {
      "inputs": [
        {
          "internalType": "address",
          "name": "__bridgeAddress",
          "type": "address"
        },
        {
          "internalType": "uint32",
          "name": "__networkID",
          "type": "uint32"
        }
      ],
      "stateMutability": "nonpayable",
      "type": "constructor"
    },
    {
      "inputs": [
        {
          "internalType": "bytes32",
          "name": "mainnetExitRoot",
          "type": "bytes32"
        },
        {
          "internalType": "bytes32",
          "name": "rollupExitRoot",
          "type": "bytes32"
        },
        {
          "components": [
            {
              "internalType": "bytes32[32]",
              "name": "smtProofLocalExitRoot",
              "type": "bytes32[32]"
            },
            {
              "internalType": "bytes32[32]",
              "name": "smtProofRollupExitRoot",
              "type": "bytes32[32]"
            },
            {
              "internalType": "uint256",
              "name": "globalIndex",
              "type": "uint256"
            },
            {
              "internalType": "uint32",
              "name": "originNetwork",
              "type": "uint32"
            },
            {
              "internalType": "address",
              "name": "originAddress",
              "type": "address"
            },
            {
              "internalType": "address",
              "name": "destinationAddress",
              "type": "address"
            },
            {
              "internalType": "uint256",
              "name": "amount",
              "type": "uint256"
            },
            {
              "internalType": "bytes",
              "name": "metadata",
              "type": "bytes"
            },
            {
              "internalType": "bool",
              "name": "isMessage",
              "type": "bool"
            }
          ],
          "internalType": "struct ClaimCompressor.CompressClaimCallData[]",
          "name": "compressClaimCalldata",
          "type": "tuple[]"
        }
      ],
      "name": "compressClaimCall",
      "outputs": [
        {
          "internalType": "bytes",
          "name": "",
          "type": "bytes"
        }
      ],
      "stateMutability": "pure",
      "type": "function"
    },
    {
      "inputs": [
        {
          "internalType": "bytes",
          "name": "compressedClaimCalls",
          "type": "bytes"
        }
      ],
      "name": "sendCompressedClaims",
      "outputs": [],
      "stateMutability": "nonpayable",
      "type": "function"
    }
  ],
  "bytecode": "0x60c060405234801561000f575f80fd5b50604051610dec380380610dec83398101604081905261002e9161004a565b6001600160a01b0390911660805263ffffffff1660a052610095565b5f806040838503121561005b575f80fd5b82516001600160a01b0381168114610071575f80fd5b602084015190925063ffffffff8116811461008a575f80fd5b809150509250929050565b60805160a051610d366100b65f395f61043601525f6104580152610d365ff3fe608060405234801561000f575f80fd5b5060043610610034575f3560e01c806304e5557b1461003857806397b1410f14610061575b5f80fd5b61004b610046366004610600565b610076565b604051610058919061069e565b60405180910390f35b61007461006f3660046106ee565b61042f565b005b60605f8585604051602001610095929190918252602082015260400190565b604080517fffffffffffffffffffffffffffffffffffffffffffffffffffffffffffffffe081840301815291905290505f805b84811015610423575f8686838181106100e3576100e361075a565b90506020028101906100f59190610787565b6100fe90610976565b90505f825f03610110575060206101a0565b5f5b602081101561019e578888610128600187610a6c565b8181106101375761013761075a565b90506020028101906101499190610787565b816020811061015a5761015a61075a565b6020020135835f015182602081106101745761017461075a565b60200201511461018c57610189816001610a85565b91505b8061019681610a98565b915050610112565b505b6040805160f883901b7fff000000000000000000000000000000000000000000000000000000000000001660208201528151600181830301815260219091019091525f5b8281101561023b578351829082602081106102015761020161075a565b6020020151604051602001610217929190610aea565b6040516020818303038152906040529150808061023390610a98565b9150506101e4565b5060208301516103e001515f92501561030157831580610259575084155b1561026757602091506102fc565b5f5b60208110156102fa57898961027f600188610a6c565b81811061028e5761028e61075a565b90506020028101906102a09190610787565b6104000181602081106102b5576102b561075a565b6020020135846020015182602081106102d0576102d061075a565b6020020151146102e8576102e5816001610a85565b92505b806102f281610a98565b915050610269565b505b600194505b8082604051602001610314929190610b0b565b60405160208183030381529060405290505f5b828110156103805781846020015182602081106103465761034661075a565b602002015160405160200161035c929190610aea565b6040516020818303038152906040529150808061037890610a98565b915050610327565b505f836101000151610392575f610395565b60015b6040858101516060870151608088015160a089015160c08a015160e08b0151805187516103d799988c989081901c979096909590949093909291602001610b54565b604051602081830303815290604052905086816040516020016103fb929190610cd2565b604051602081830303815290604052965050505050808061041b90610a98565b9150506100c8565b50909695505050505050565b63ffffffff7f0000000000000000000000000000000000000000000000000000000000000000167f000000000000000000000000000000000000000000000000000000000000000063ccaa2d1163f5efcd798585602082610824376020828101610844376108a486905261092061090452604082015b8183018110156105f557803560f81c80156104c757600181146104e4576104fd565b856003538560081c6002538560101c6001538560181c5f536104fd565b846003538460081c6002538460101c6001538460181c5f535b5060028101906004906001013560f81c60200280838337909101600181019161040001906020903560f81c02808383379190910190610400810190823560f81c9061041701536001820191506008826018830137600882019150606081019050600482601c830137600482019150602081019050601482600c83013760149182019160408201918390604c01376014820191506020810190506020828237602082013560e01c60408201819052602490920191606090910190808383375f9181019190915290810190601f808216602003160161094401622625a05a10156105e3575f80fd5b5f80825f808b621e8480f150506104a5565b505050505050505050565b5f805f8060608587031215610613575f80fd5b8435935060208501359250604085013567ffffffffffffffff80821115610638575f80fd5b818701915087601f83011261064b575f80fd5b813581811115610659575f80fd5b8860208260051b850101111561066d575f80fd5b95989497505060200194505050565b5f5b8381101561069657818101518382015260200161067e565b50505f910152565b602081525f82518060208401526106bc81604085016020870161067c565b601f017fffffffffffffffffffffffffffffffffffffffffffffffffffffffffffffffe0169190910160400192915050565b5f80602083850312156106ff575f80fd5b823567ffffffffffffffff80821115610716575f80fd5b818501915085601f830112610729575f80fd5b813581811115610737575f80fd5b866020828501011115610748575f80fd5b60209290920196919550909350505050565b7f4e487b71000000000000000000000000000000000000000000000000000000005f52603260045260245ffd5b5f82357ffffffffffffffffffffffffffffffffffffffffffffffffffffffffffffff7218336030181126107b9575f80fd5b9190910192915050565b7f4e487b71000000000000000000000000000000000000000000000000000000005f52604160045260245ffd5b604051610120810167ffffffffffffffff81118282101715610814576108146107c3565b60405290565b5f82601f830112610829575f80fd5b60405161040080820182811067ffffffffffffffff8211171561084e5761084e6107c3565b60405283018185821115610860575f80fd5b845b8281101561087a578035825260209182019101610862565b509195945050505050565b803563ffffffff81168114610898575f80fd5b919050565b803573ffffffffffffffffffffffffffffffffffffffff81168114610898575f80fd5b5f82601f8301126108cf575f80fd5b813567ffffffffffffffff808211156108ea576108ea6107c3565b604051601f83017fffffffffffffffffffffffffffffffffffffffffffffffffffffffffffffffe0908116603f01168101908282118183101715610930576109306107c3565b81604052838152866020858801011115610948575f80fd5b836020870160208301375f602085830101528094505050505092915050565b80358015158114610898575f80fd5b5f6108e08236031215610987575f80fd5b61098f6107f0565b610999368461081a565b81526109a936610400850161081a565b602082015261080083013560408201526109c66108208401610885565b60608201526109d8610840840161089d565b60808201526109ea610860840161089d565b60a082015261088083013560c08201526108a083013567ffffffffffffffff811115610a14575f80fd5b610a20368286016108c0565b60e083015250610a336108c08401610967565b61010082015292915050565b7f4e487b71000000000000000000000000000000000000000000000000000000005f52601160045260245ffd5b81810381811115610a7f57610a7f610a3f565b92915050565b80820180821115610a7f57610a7f610a3f565b5f7fffffffffffffffffffffffffffffffffffffffffffffffffffffffffffffffff8203610ac857610ac8610a3f565b5060010190565b5f8151610ae081856020860161067c565b9290920192915050565b5f8351610afb81846020880161067c565b9190910191825250602001919050565b5f8351610b1c81846020880161067c565b60f89390931b7fff00000000000000000000000000000000000000000000000000000000000000169190920190815260010192915050565b7fff000000000000000000000000000000000000000000000000000000000000008b60f81b1681525f8a51610b90816001850160208f0161067c565b7fff000000000000000000000000000000000000000000000000000000000000008b60f81b16600182850101527fffffffffffffffff0000000000000000000000000000000000000000000000008a60c01b16600282850101527fffffffff000000000000000000000000000000000000000000000000000000008960e01b16600a82850101527fffffffffffffffffffffffffffffffffffffffff0000000000000000000000008860601b16600e8285010152610c776022828501018860601b7fffffffffffffffffffffffffffffffffffffffff000000000000000000000000169052565b8560368285010152610cb26056828501018660e01b7fffffffff00000000000000000000000000000000000000000000000000000000169052565b610cc1605a8285010185610acf565b9d9c50505050505050505050505050565b5f8351610ce381846020880161067c565b835190830190610cf781836020880161067c565b0194935050505056fea2646970667358221220431d4b4962f6e0fedc7eff37b6b46383dff32ef58340bfd8486915afedccad0564736f6c63430008140033",
  "linkReferences": {},
  "deployedLinkReferences": {}
}