{
  "_format": "hh-sol-artifact-1",
  "contractName": "FflonkVerifier",
  "sourceName": "contracts/verifiers/FflonkVerifier.sol",
  "abi": [
    {
      "inputs": [
        {
          "internalType": "bytes",
          "name": "proof",
          "type": "bytes"
        },
        {
          "internalType": "uint256[1]",
          "name": "pubSignals",
          "type": "uint256[1]"
        }
      ],
      "name": "verifyProof",
      "outputs": [
        {
          "internalType": "bool",
          "name": "",
          "type": "bool"
        }
      ],
      "stateMutability": "view",
      "type": "function"
    }
  ],
  "bytecode": "0x608060405234801561001057600080fd5b50612ba9806100206000396000f3fe608060405234801561001057600080fd5b506004361061002b5760003560e01c80638d8f8a5c14610030575b600080fd5b61004361003e366004612a92565b610057565b604051901515815260200160405180910390f35b60006129d2565b6040518260208502840181516020830192505b818310156100b4578084527f30644e72e131a029b85045b68181585d2833e84879b9709143e1f593f0000001835182099050602084019350602083019250610071565b6103008501517f30644e72e131a029b85045b68181585d2833e84879b9709143e1f593f00000018183096001146100ef576000805260206000f35b8091506020850394506020840393508692505b82841115610189577f30644e72e131a029b85045b68181585d2833e84879b9709143e1f593f00000018551830990507f30644e72e131a029b85045b68181585d2833e84879b9709143e1f593f0000001845183098185527fffffffffffffffffffffffffffffffffffffffffffffffffffffffffffffffe095860195909401939150610102565b509091525050505050565b7f30644e72e131a029b85045b68181585d2833e84879b9709143e1f593f000000181106101c5576000805260206000f35b50565b805160208201517f30644e72e131a029b85045b68181585d97816a916871ca8d3c208c16d87cfd4760037f30644e72e131a029b85045b68181585d97816a916871ca8d3c208c16d87cfd478085860985090891507f30644e72e131a029b85045b68181585d97816a916871ca8d3c208c16d87cfd478182099050808214610253576000805260206000f35b505050565b610264602082016101c8565b610270606082016101c8565b61027c60a082016101c8565b61028860e082016101c8565b610296610120820151610194565b6102a4610140820151610194565b6102b2610160820151610194565b6102c0610180820151610194565b6102ce6101a0820151610194565b6102dc6101c0820151610194565b6102ea6101e0820151610194565b6102f8610200820151610194565b610306610220820151610194565b610314610240820151610194565b610322610260820151610194565b610330610280820151610194565b61033e6102a0820151610194565b61034c6102c0820151610194565b61035a6102e0820151610194565b6101c5610300820151610194565b7f12b43cc6585a7ad720935d09edea12c875a78eb49afb533b6c398716a4e0b44c6107808301527f013d26ff8b5448cdf67817737144b46682338e441ed915d7ceeab885b16bc3c56107a083015282356107c083015260208101516107e0830152602080018101516108008301527f30644e72e131a029b85045b68181585d2833e84879b9709143e1f593f000000160a06107808401200660208301527f30644e72e131a029b85045b68181585d2833e84879b9709143e1f593f0000001602080840120066040830152604082015161078083015260608101516107a083015260206060018101516107c08301527f30644e72e131a029b85045b68181585d2833e84879b9709143e1f593f00000016060610780840120068060808401527f30644e72e131a029b85045b68181585d2833e84879b9709143e1f593f000000181820960a0840181905260808401517f30644e72e131a029b85045b68181585d2833e84879b9709143e1f593f0000001910960e08401527f30644e72e131a029b85045b68181585d2833e84879b9709143e1f593f00000017f2b337de1c8c14f22ec9b9e2f96afef3652627366f8170a0a948dad4ac1bd5e8060e0850151096101008401527f30644e72e131a029b85045b68181585d2833e84879b9709143e1f593f00000017f30644e72e131a029048b6e193fd841045cea24f6fd736bec231204708f70363660e0850151096101208401527f30644e72e131a029b85045b68181585d2833e84879b9709143e1f593f00000017f1d59376149b959ccbd157ac850893a6f07c2d99b3852513ab8d01be8e846a56660e0850151096101408401527f30644e72e131a029b85045b68181585d2833e84879b9709143e1f593f00000017f30644e72e131a029b85045b68181585d2833e84879b9709143e1f593f000000060e0850151096101608401527f30644e72e131a029b85045b68181585d2833e84879b9709143e1f593f00000017f0530d09118705106cbb4a786ead16926d5d174e181a26686af5448492e42a18160e0850151096101808401527f30644e72e131a029b85045b68181585d2833e84879b9709143e1f593f000000177b3c4d79d41a91758cb49c3517c4604a520cff123608fc9cb60e0850151096101a08401527f30644e72e131a029b85045b68181585d2833e84879b9709143e1f593f00000017f130b17119778465cfb3acaee30f81dee20710ead41671f568b11d9ab07b95a9b60e0850151096101c084015260e08301517f30644e72e131a029b85045b68181585d2833e84879b9709143e1f593f00000019080096101e08401527f30644e72e131a029b85045b68181585d2833e84879b9709143e1f593f00000017f30644e72e131a029048b6e193fd841045cea24f6fd736bec231204708f7036366101e0850151096102008401527f30644e72e131a029b85045b68181585d2833e84879b9709143e1f593f00000017f30644e72e131a029b85045b68181585d2833e84879b9709143e1f593f00000006101e0850151096102208401527f30644e72e131a029b85045b68181585d2833e84879b9709143e1f593f000000177b3c4d79d41a91758cb49c3517c4604a520cff123608fc9cb6101e0850151096102408401527f30644e72e131a029b85045b68181585d2833e84879b9709143e1f593f000000160a08401516101e0850151096102608401527f30644e72e131a029b85045b68181585d2833e84879b9709143e1f593f00000017f30644e72e131a029048b6e193fd84104cc37a73fec2bc5e9b8ca0b2d36636f23610260850151096102808401527f30644e72e131a029b85045b68181585d2833e84879b9709143e1f593f000000177b3c4d79d41a917585bfc41088d8daaa78b17ea66b99c90dd610260850151096102a08401527f30644e72e131a029b85045b68181585d2833e84879b9709143e1f593f00000017f283ce45a2e5b8e4e78f9fbaf5f6a348bfcfaf76dd28e5ca7121b74ef68fdec2e610260850151096102c08401527f30644e72e131a029b85045b68181585d2833e84879b9709143e1f593f00000017f30644e72e131a029048b6e193fd84104cc37a73fec2bc5e9b8ca0b2d36636f236102c0850151096102e08401527f30644e72e131a029b85045b68181585d2833e84879b9709143e1f593f000000177b3c4d79d41a917585bfc41088d8daaa78b17ea66b99c90dd6102c0850151096103008401526102608301517f30644e72e131a029b85045b68181585d2833e84879b9709143e1f593f00000019081818009098060c08501527f30644e72e131a029b85045b68181585d2833e84879b9709143e1f593f000000181820990507f30644e72e131a029b85045b68181585d2833e84879b9709143e1f593f000000181820990507f30644e72e131a029b85045b68181585d2833e84879b9709143e1f593f000000181820990507f30644e72e131a029b85045b68181585d2833e84879b9709143e1f593f000000181820990507f30644e72e131a029b85045b68181585d2833e84879b9709143e1f593f000000181820990507f30644e72e131a029b85045b68181585d2833e84879b9709143e1f593f000000181820990507f30644e72e131a029b85045b68181585d2833e84879b9709143e1f593f000000181820990507f30644e72e131a029b85045b68181585d2833e84879b9709143e1f593f000000181820990507f30644e72e131a029b85045b68181585d2833e84879b9709143e1f593f000000181820990507f30644e72e131a029b85045b68181585d2833e84879b9709143e1f593f000000181820990507f30644e72e131a029b85045b68181585d2833e84879b9709143e1f593f000000181820990507f30644e72e131a029b85045b68181585d2833e84879b9709143e1f593f000000181820990507f30644e72e131a029b85045b68181585d2833e84879b9709143e1f593f000000181820990507f30644e72e131a029b85045b68181585d2833e84879b9709143e1f593f000000181820990507f30644e72e131a029b85045b68181585d2833e84879b9709143e1f593f000000181820990507f30644e72e131a029b85045b68181585d2833e84879b9709143e1f593f000000181820990507f30644e72e131a029b85045b68181585d2833e84879b9709143e1f593f000000181820990507f30644e72e131a029b85045b68181585d2833e84879b9709143e1f593f000000181820990507f30644e72e131a029b85045b68181585d2833e84879b9709143e1f593f000000181820990507f30644e72e131a029b85045b68181585d2833e84879b9709143e1f593f000000181820990507f30644e72e131a029b85045b68181585d2833e84879b9709143e1f593f000000181820990507f30644e72e131a029b85045b68181585d2833e84879b9709143e1f593f000000181820990507f30644e72e131a029b85045b68181585d2833e84879b9709143e1f593f000000181820990507f30644e72e131a029b85045b68181585d2833e84879b9709143e1f593f00000018182097f30644e72e131a029b85045b68181585d2833e84879b9709143e1f593f00000017f30644e72e131a029b85045b68181585d2833e84879b9709143e1f593f00000009091018190066104a086018190526104c086015261078085019283526101208401516107a086019081526101408501516107c087019081526101608601516107e08801526101808601516108008801526101a08601516108208801526101c08601516108408801526101e0860151610860880152610200808701516108808901526102208701516108a08901526102408701516108c08901526102608701516108e08901526102808701516109008901526102a08701516109208901526102c08701516109408901526102e08701516109608901528520839006808852855260a086015190915260c090940151909352506060908190209190910691015250565b60008260018501600192508684015160005b87811015610f5d5782600185010693507f30644e72e131a029b85045b68181585d2833e84879b9709143e1f593f0000001807f30644e72e131a029b85045b68181585d2833e84879b9709143e1f593f0000001602087028d018901517f30644e72e131a029b85045b68181585d2833e84879b9709143e1f593f00000010306840886099450600101610ed0565b5050505095945050505050565b60608201517f30644e72e131a029b85045b68181585d2833e84879b9709143e1f593f0000001806101e08501517f30644e72e131a029b85045b68181585d2833e84879b9709143e1f593f0000001030682087f30644e72e131a029b85045b68181585d2833e84879b9709143e1f593f0000001807f30644e72e131a029b85045b68181585d2833e84879b9709143e1f593f00000016102008701517f30644e72e131a029b85045b68181585d2833e84879b9709143e1f593f000000103068408820990507f30644e72e131a029b85045b68181585d2833e84879b9709143e1f593f0000001807f30644e72e131a029b85045b68181585d2833e84879b9709143e1f593f00000016102208701517f30644e72e131a029b85045b68181585d2833e84879b9709143e1f593f000000103068408820990507f30644e72e131a029b85045b68181585d2833e84879b9709143e1f593f0000001807f30644e72e131a029b85045b68181585d2833e84879b9709143e1f593f00000016102408701517f30644e72e131a029b85045b68181585d2833e84879b9709143e1f593f00000010306840882099050806104e08501527f30644e72e131a029b85045b68181585d2833e84879b9709143e1f593f0000001806102608601517f30644e72e131a029b85045b68181585d2833e84879b9709143e1f593f00000010306830890507f30644e72e131a029b85045b68181585d2833e84879b9709143e1f593f0000001807f30644e72e131a029b85045b68181585d2833e84879b9709143e1f593f00000016102808701517f30644e72e131a029b85045b68181585d2833e84879b9709143e1f593f000000103068408820990507f30644e72e131a029b85045b68181585d2833e84879b9709143e1f593f0000001807f30644e72e131a029b85045b68181585d2833e84879b9709143e1f593f00000016102a08701517f30644e72e131a029b85045b68181585d2833e84879b9709143e1f593f000000103068408820990507f30644e72e131a029b85045b68181585d2833e84879b9709143e1f593f0000001807f30644e72e131a029b85045b68181585d2833e84879b9709143e1f593f00000016102c08701517f30644e72e131a029b85045b68181585d2833e84879b9709143e1f593f000000103068408820990507f30644e72e131a029b85045b68181585d2833e84879b9709143e1f593f0000001807f30644e72e131a029b85045b68181585d2833e84879b9709143e1f593f00000016102e08701517f30644e72e131a029b85045b68181585d2833e84879b9709143e1f593f000000103068408820990507f30644e72e131a029b85045b68181585d2833e84879b9709143e1f593f0000001807f30644e72e131a029b85045b68181585d2833e84879b9709143e1f593f00000016103008701517f30644e72e131a029b85045b68181585d2833e84879b9709143e1f593f0000001030684088209610500850181905290506113ba60e0806007600088610ebe565b6105208501526113d260e06101006007600188610ebe565b6105408501526113ea60e06101206007600288610ebe565b61056085015261140260e06101406007600388610ebe565b61058085015261141a60e06101606007600488610ebe565b6105a085015261143260e06101806007600588610ebe565b6105c085015261144a60e06101a06007600688610ebe565b6105e085015261146160e06101c060078088610ebe565b6106008501526114786101e0806003600088610ebe565b6106208501526114916101e06102006003600188610ebe565b6106408501526114aa6101e06102206003600288610ebe565b6106608501526114c26101e061024060038088610ebe565b6106808501526114d9610260806005600088610ebe565b6106a08501526114f26102606102806005600188610ebe565b6106c085015261150b6102606102a06005600288610ebe565b6106e08501526115246102606102c06005600388610ebe565b61070085015261153d6102606102e06005600488610ebe565b61072085015261155561026061030060058088610ebe565b610740850152505060c082015160017f30644e72e131a029b85045b68181585d2833e84879b9709143e1f593f00000017f30644e72e131a029b85045b68181585d2833e84879b9709143e1f593f0000000830181900663010000000961076085015250506115c960166104c084018361005e565b5050565b6104a08101517f30644e72e131a029b85045b68181585d2833e84879b9709143e1f593f000000181610760840151096107608301525050565b60007f30644e72e131a029b85045b68181585d2833e84879b9709143e1f593f0000001807f30644e72e131a029b85045b68181585d2833e84879b9709143e1f593f000000185356107608601510983030106905080610320830152505050565b6000805b600881101561191a576020810260e0018401517f30644e72e131a029b85045b68181585d2833e84879b9709143e1f593f0000001808261014087015109610120860151087f30644e72e131a029b85045b68181585d2833e84879b9709143e1f593f00000018283097f30644e72e131a029b85045b68181585d2833e84879b9709143e1f593f0000001808261018089015109830891507f30644e72e131a029b85045b68181585d2833e84879b9709143e1f593f000000183820990507f30644e72e131a029b85045b68181585d2833e84879b9709143e1f593f0000001808261016089015109830891507f30644e72e131a029b85045b68181585d2833e84879b9709143e1f593f000000183820990507f30644e72e131a029b85045b68181585d2833e84879b9709143e1f593f000000180826101a089015109830891507f30644e72e131a029b85045b68181585d2833e84879b9709143e1f593f000000183820990507f30644e72e131a029b85045b68181585d2833e84879b9709143e1f593f000000180826101c089015109830891507f30644e72e131a029b85045b68181585d2833e84879b9709143e1f593f000000183820990507f30644e72e131a029b85045b68181585d2833e84879b9709143e1f593f000000180826101e089015109830891507f30644e72e131a029b85045b68181585d2833e84879b9709143e1f593f000000183820990507f30644e72e131a029b85045b68181585d2833e84879b9709143e1f593f000000180826102008901510983089150506118b560e060606007868a610ebe565b91507f30644e72e131a029b85045b68181585d2833e84879b9709143e1f593f00000016020840261052001870151830991507f30644e72e131a029b85045b68181585d2833e84879b9709143e1f593f00000018083830985089350505060010161166a565b5080610340840152505050565b60006102208201516102408301516102608401517f30644e72e131a029b85045b68181585d2833e84879b9709143e1f593f0000001836101208701510993507f30644e72e131a029b85045b68181585d2833e84879b9709143e1f593f0000001808361014088015109850893507f30644e72e131a029b85045b68181585d2833e84879b9709143e1f593f0000001807f30644e72e131a029b85045b68181585d2833e84879b9709143e1f593f000000184860961016088015109850893507f30644e72e131a029b85045b68181585d2833e84879b9709143e1f593f0000001808261018088015109850893507f30644e72e131a029b85045b68181585d2833e84879b9709143e1f593f00000016101a0860151850893507f30644e72e131a029b85045b68181585d2833e84879b9709143e1f593f0000001610320870151850893507f30644e72e131a029b85045b68181585d2833e84879b9709143e1f593f00000016104c0870151850993506000805b6004811015611be55784602082026101e0018901517f30644e72e131a029b85045b68181585d2833e84879b9709143e1f593f000000180878309830891507f30644e72e131a029b85045b68181585d2833e84879b9709143e1f593f00000018182097f30644e72e131a029b85045b68181585d2833e84879b9709143e1f593f000000180878309840892507f30644e72e131a029b85045b68181585d2833e84879b9709143e1f593f0000001808a7f30644e72e131a029b85045b68181585d2833e84879b9709143e1f593f000000185850909840892505050611b826101e060606003858d610ebe565b7f30644e72e131a029b85045b68181585d2833e84879b9709143e1f593f000000160208402610620018b0151820990507f30644e72e131a029b85045b68181585d2833e84879b9709143e1f593f000000180828409850893505050600101611a98565b508061036088015250505050505050565b6000807f30644e72e131a029b85045b68181585d2833e84879b9709143e1f593f000000160c085015160208601510960408501516102808501516102a08601517f30644e72e131a029b85045b68181585d2833e84879b9709143e1f593f0000001808486086102208901510894507f30644e72e131a029b85045b68181585d2833e84879b9709143e1f593f0000001807f30644e72e131a029b85045b68181585d2833e84879b9709143e1f593f0000001857f30644e72e131a029b85045b68181585d2833e84879b9709143e1f593f000000160028909086102408a015108860994507f30644e72e131a029b85045b68181585d2833e84879b9709143e1f593f0000001807f30644e72e131a029b85045b68181585d2833e84879b9709143e1f593f0000001857f30644e72e131a029b85045b68181585d2833e84879b9709143e1f593f000000160038909086102608a015108860994507f30644e72e131a029b85045b68181585d2833e84879b9709143e1f593f000000182860994507f30644e72e131a029b85045b68181585d2833e84879b9709143e1f593f000000180847f30644e72e131a029b85045b68181585d2833e84879b9709143e1f593f00000016101c08b015160208d015109086102208901510895507f30644e72e131a029b85045b68181585d2833e84879b9709143e1f593f0000001807f30644e72e131a029b85045b68181585d2833e84879b9709143e1f593f0000001857f30644e72e131a029b85045b68181585d2833e84879b9709143e1f593f00000016101e08c015160208e015109086102408a015108870995507f30644e72e131a029b85045b68181585d2833e84879b9709143e1f593f0000001807f30644e72e131a029b85045b68181585d2833e84879b9709143e1f593f0000001857f30644e72e131a029b85045b68181585d2833e84879b9709143e1f593f00000016102008c015160208e015109086102608a015108870995507f30644e72e131a029b85045b68181585d2833e84879b9709143e1f593f000000181870995507f30644e72e131a029b85045b68181585d2833e84879b9709143e1f593f000000180877f30644e72e131a029b85045b68181585d2833e84879b9709143e1f593f00000010306860894507f30644e72e131a029b85045b68181585d2833e84879b9709143e1f593f00000016104c0890151860994506001820395507f30644e72e131a029b85045b68181585d2833e84879b9709143e1f593f0000001610760890151870995507f30644e72e131a029b85045b68181585d2833e84879b9709143e1f593f00000016104c08901518709955060009250600093505b600684101561215f5760208402610260018801516000600386101561205d577f30644e72e131a029b85045b68181585d2833e84879b9709143e1f593f000000180898409850890507f30644e72e131a029b85045b68181585d2833e84879b9709143e1f593f000000180887f30644e72e131a029b85045b68181585d2833e84879b9709143e1f593f000000185860909820890505b60028611156120e6577f30644e72e131a029b85045b68181585d2833e84879b9709143e1f593f0000001806102c08b01518409840890507f30644e72e131a029b85045b68181585d2833e84879b9709143e1f593f0000001806102e08b01517f30644e72e131a029b85045b68181585d2833e84879b9709143e1f593f000000185860909820890505b6120f761026060606005898e610ebe565b91507f30644e72e131a029b85045b68181585d2833e84879b9709143e1f593f0000001602087026106a0018b0151830991507f30644e72e131a029b85045b68181585d2833e84879b9709143e1f593f000000180838309860894505050600184019350611fc8565b505080610380870152505050505050565b6040518151815260208201516020820152825160408201526020830151606082015260408260808360066107d05a03fa905080610253576000805260206000f35b6000604051835181526020840151602082015284604082015260408160608360076107d05a03fa9150816121e9576000805260206000f35b825160408201526020830151606082015260408360808360066107d05a03fa9150508061221a576000805260206000f35b50505050565b600060405183815284602082015285604082015260408160608360076107d05a03fa915081612253576000805260206000f35b825160408201526020830151606082015260408360808360066107d05a03fa91505080612284576000805260206000f35b5050505050565b60608201517f30644e72e131a029b85045b68181585d2833e84879b9709143e1f593f00000018060e08501517f30644e72e131a029b85045b68181585d2833e84879b9709143e1f593f0000001030682087f30644e72e131a029b85045b68181585d2833e84879b9709143e1f593f0000001807f30644e72e131a029b85045b68181585d2833e84879b9709143e1f593f00000016101008701517f30644e72e131a029b85045b68181585d2833e84879b9709143e1f593f000000103068408820990507f30644e72e131a029b85045b68181585d2833e84879b9709143e1f593f0000001807f30644e72e131a029b85045b68181585d2833e84879b9709143e1f593f00000016101208701517f30644e72e131a029b85045b68181585d2833e84879b9709143e1f593f000000103068408820990507f30644e72e131a029b85045b68181585d2833e84879b9709143e1f593f0000001807f30644e72e131a029b85045b68181585d2833e84879b9709143e1f593f00000016101408701517f30644e72e131a029b85045b68181585d2833e84879b9709143e1f593f000000103068408820990507f30644e72e131a029b85045b68181585d2833e84879b9709143e1f593f0000001807f30644e72e131a029b85045b68181585d2833e84879b9709143e1f593f00000016101608701517f30644e72e131a029b85045b68181585d2833e84879b9709143e1f593f000000103068408820990507f30644e72e131a029b85045b68181585d2833e84879b9709143e1f593f0000001807f30644e72e131a029b85045b68181585d2833e84879b9709143e1f593f00000016101808701517f30644e72e131a029b85045b68181585d2833e84879b9709143e1f593f000000103068408820990507f30644e72e131a029b85045b68181585d2833e84879b9709143e1f593f0000001807f30644e72e131a029b85045b68181585d2833e84879b9709143e1f593f00000016101a08701517f30644e72e131a029b85045b68181585d2833e84879b9709143e1f593f000000103068408820990507f30644e72e131a029b85045b68181585d2833e84879b9709143e1f593f0000001807f30644e72e131a029b85045b68181585d2833e84879b9709143e1f593f00000016101c08701517f30644e72e131a029b85045b68181585d2833e84879b9709143e1f593f000000103068408820990507f30644e72e131a029b85045b68181585d2833e84879b9709143e1f593f0000001806104e0860151830985510991507f30644e72e131a029b85045b68181585d2833e84879b9709143e1f593f000000180610500860151830985517f30644e72e131a029b85045b68181585d2833e84879b9709143e1f593f0000001908009097f12b43cc6585a7ad720935d09edea12c875a78eb49afb533b6c398716a4e0b44c6103a08601527f013d26ff8b5448cdf67817737144b46682338e441ed915d7ceeab885b16bc3c560206103a0018601526126dd83602086016103a088016121b1565b6126ef81606086016103a088016121b1565b61277c7f30644e72e131a029b85045b68181585d2833e84879b9709143e1f593f0000001807f30644e72e131a029b85045b68181585d2833e84879b9709143e1f593f000000161038089015185097f30644e72e131a029b85045b68181585d2833e84879b9709143e1f593f00000016103608a015188090861034088015108600260016103e08901612220565b5061221a8160a0850161042087016121b1565b604051610400830180517f30644e72e131a029b85045b68181585d97816a916871ca8d3c208c16d87cfd479081038190069091526104408401805182039190910690526000906127e76103e085016103a08601612170565b6127f961042085016103a08601612170565b61280f606085015160e085016103a087016121b1565b6103a0840151815260206103a08501015160208201527f198e9393920d483a7260bfb731fb5d25f1aa493335a9e71297e485b7aef312c260408201527f1800deef121f1e76426a00665e5c4479674322d4f75edadd46debd5cd992f6ed60608201527f090689d0585ff075ec9e99ad690c3395bc4b313370b38ef355acdadcd122975b60808201527f12c85ea5db8c6deb4aab71808dcb408fe3d1e7690c43d37b4ce6cc0166fa7daa60a082015260e083015160c0820152602060e0840101517f30644e72e131a029b85045b68181585d97816a916871ca8d3c208c16d87cfd47817f30644e72e131a029b85045b68181585d97816a916871ca8d3c208c16d87cfd47030690508060e0830152507f26186a2d65ee4d2f9c9a5b91f86597d35f192cd120caf7e935d8443d1938e23d6101008201527f30441fd1b5d3370482c42152a8899027716989a6996c2535bc9f7fee8aaef79e6101208201527f1970ea81dd6992adfbc571effb03503adbbb6a857f578403c6c40e22d65b3c026101408201527f054793348f12c0cf5622c340573cb277586319de359ab9389778f689786b1e486101608201526020816101808360086107d05a03fa9051169392505050565b60405161078081016040526129e684610258565b6129f1838286610368565b6129fb8185610f6a565b612a04816115cd565b612a0e8382611606565b612a188185611666565b612a228185611927565b612a2c8185611bf6565b612a36818561228b565b612a40818561278f565b90508060005260206000f35b7f4e487b7100000000000000000000000000000000000000000000000000000000600052604160045260246000fd5b8060208101831015612a8c57600080fd5b92915050565b60008060408385031215612aa557600080fd5b823567ffffffffffffffff80821115612abd57600080fd5b818501915085601f830112612ad157600080fd5b813581811115612ae357612ae3612a4c565b604051601f82017fffffffffffffffffffffffffffffffffffffffffffffffffffffffffffffffe0908116603f01168101908382118183101715612b2957612b29612a4c565b81604052828152886020848701011115612b4257600080fd5b826020860160208301376000602084830101528096505050505050612b6a8460208501612a7b565b9050925092905056fea26469706673582212205b7f4daf66d2ec28ca29e86ee1270f601bb1fc509b9d879770258508d85a036764736f6c63430008110033",
  "linkReferences": {},
  "deployedLinkReferences": {}
}