{
  "_format": "hh-sol-artifact-1",
  "contractName": "GlobalExitRootManagerL2",
  "sourceName": "contracts/GlobalExitRootManagerL2.sol",
  "abi": [
    {
      "inputs": [
        {
          "internalType": "address",
          "name": "_bridgeAddress",
          "type": "address"
        }
      ],
      "stateMutability": "nonpayable",
      "type": "constructor"
    },
    {
      "inputs": [],
      "name": "bridgeAddress",
      "outputs": [
        {
          "internalType": "address",
          "name": "",
          "type": "address"
        }
      ],
      "stateMutability": "view",
      "type": "function"
    },
    {
      "inputs": [],
      "name": "getLastGlobalExitRoot",
      "outputs": [
        {
          "internalType": "bytes32",
          "name": "",
          "type": "bytes32"
        }
      ],
      "stateMutability": "view",
      "type": "function"
    },
    {
      "inputs": [
        {
          "internalType": "uint256",
          "name": "",
          "type": "uint256"
        }
      ],
      "name": "globalExitRootMap",
      "outputs": [
        {
          "internalType": "bytes32",
          "name": "",
          "type": "bytes32"
        }
      ],
      "stateMutability": "view",
      "type": "function"
    },
    {
      "inputs": [],
      "name": "lastGlobalExitRootNum",
      "outputs": [
        {
          "internalType": "uint256",
          "name": "",
          "type": "uint256"
        }
      ],
      "stateMutability": "view",
      "type": "function"
    },
    {
      "inputs": [],
      "name": "lastRollupExitRoot",
      "outputs": [
        {
          "internalType": "bytes32",
          "name": "",
          "type": "bytes32"
        }
      ],
      "stateMutability": "view",
      "type": "function"
    },
    {
      "inputs": [
        {
          "internalType": "bytes32",
          "name": "newRoot",
          "type": "bytes32"
        }
      ],
      "name": "updateExitRoot",
      "outputs": [],
      "stateMutability": "nonpayable",
      "type": "function"
    }
  ],
  "bytecode": "0x608060405234801561001057600080fd5b506040516102bf3803806102bf83398101604081905261002f91610054565b600380546001600160a01b0319166001600160a01b0392909216919091179055610084565b60006020828403121561006657600080fd5b81516001600160a01b038116811461007d57600080fd5b9392505050565b61022c806100936000396000f3fe608060405234801561001057600080fd5b50600436106100725760003560e01c806333d6247d1161005057806333d6247d146100bc5780633ed691ef146100d1578063a3c573eb146100e857600080fd5b806301fd904414610077578063029f2793146100935780633381fe901461009c575b600080fd5b61008060025481565b6040519081526020015b60405180910390f35b61008060015481565b6100806100aa3660046101dd565b60006020819052908152604090205481565b6100cf6100ca3660046101dd565b61012d565b005b600154600090815260208190526040902054610080565b6003546101089073ffffffffffffffffffffffffffffffffffffffff1681565b60405173ffffffffffffffffffffffffffffffffffffffff909116815260200161008a565b60035473ffffffffffffffffffffffffffffffffffffffff1633146101d8576040517f08c379a000000000000000000000000000000000000000000000000000000000815260206004820152603460248201527f476c6f62616c45786974526f6f744d616e616765724c323a3a7570646174654560448201527f786974526f6f743a204f4e4c595f425249444745000000000000000000000000606482015260840160405180910390fd5b600255565b6000602082840312156101ef57600080fd5b503591905056fea26469706673582212208d83dbb306e44a942be2a2487d451a50db124104e31627143a2dd7ca2d9702a164736f6c63430008090033",
  "linkReferences": {},
  "deployedLinkReferences": {}
}