{
  "_format": "hh-sol-artifact-1",
  "contractName": "GlobalExitRootManagerMock",
  "sourceName": "contracts/mocks/GlobalExitRootManagerMock.sol",
  "abi": [
    {
      "inputs": [
        {
          "internalType": "address",
          "name": "_rollupAddress",
          "type": "address"
        },
        {
          "internalType": "address",
          "name": "_bridgeAddress",
          "type": "address"
        }
      ],
      "stateMutability": "nonpayable",
      "type": "constructor"
    },
    {
      "anonymous": false,
      "inputs": [
        {
          "indexed": true,
          "internalType": "address",
          "name": "previousOwner",
          "type": "address"
        },
        {
          "indexed": true,
          "internalType": "address",
          "name": "newOwner",
          "type": "address"
        }
      ],
      "name": "OwnershipTransferred",
      "type": "event"
    },
    {
      "anonymous": false,
      "inputs": [
        {
          "indexed": true,
          "internalType": "uint256",
          "name": "globalExitRootNum",
          "type": "uint256"
        },
        {
          "indexed": true,
          "internalType": "bytes32",
          "name": "mainnetExitRoot",
          "type": "bytes32"
        },
        {
          "indexed": true,
          "internalType": "bytes32",
          "name": "rollupExitRoot",
          "type": "bytes32"
        }
      ],
      "name": "UpdateGlobalExitRoot",
      "type": "event"
    },
    {
      "inputs": [],
      "name": "bridgeAddress",
      "outputs": [
        {
          "internalType": "address",
          "name": "",
          "type": "address"
        }
      ],
      "stateMutability": "view",
      "type": "function"
    },
    {
      "inputs": [],
      "name": "getLastGlobalExitRoot",
      "outputs": [
        {
          "internalType": "bytes32",
          "name": "",
          "type": "bytes32"
        }
      ],
      "stateMutability": "view",
      "type": "function"
    },
    {
      "inputs": [
        {
          "internalType": "bytes32",
          "name": "",
          "type": "bytes32"
        }
      ],
      "name": "globalExitRootMap",
      "outputs": [
        {
          "internalType": "uint256",
          "name": "",
          "type": "uint256"
        }
      ],
      "stateMutability": "view",
      "type": "function"
    },
    {
      "inputs": [],
      "name": "lastGlobalExitRootNum",
      "outputs": [
        {
          "internalType": "uint256",
          "name": "",
          "type": "uint256"
        }
      ],
      "stateMutability": "view",
      "type": "function"
    },
    {
      "inputs": [],
      "name": "lastMainnetExitRoot",
      "outputs": [
        {
          "internalType": "bytes32",
          "name": "",
          "type": "bytes32"
        }
      ],
      "stateMutability": "view",
      "type": "function"
    },
    {
      "inputs": [],
      "name": "lastRollupExitRoot",
      "outputs": [
        {
          "internalType": "bytes32",
          "name": "",
          "type": "bytes32"
        }
      ],
      "stateMutability": "view",
      "type": "function"
    },
    {
      "inputs": [],
      "name": "owner",
      "outputs": [
        {
          "internalType": "address",
          "name": "",
          "type": "address"
        }
      ],
      "stateMutability": "view",
      "type": "function"
    },
    {
      "inputs": [],
      "name": "renounceOwnership",
      "outputs": [],
      "stateMutability": "nonpayable",
      "type": "function"
    },
    {
      "inputs": [],
      "name": "rollupAddress",
      "outputs": [
        {
          "internalType": "address",
          "name": "",
          "type": "address"
        }
      ],
      "stateMutability": "view",
      "type": "function"
    },
    {
      "inputs": [
        {
          "internalType": "bytes32",
          "name": "globalExitRoot",
          "type": "bytes32"
        }
      ],
      "name": "setLastGlobalExitRoot",
      "outputs": [],
      "stateMutability": "nonpayable",
      "type": "function"
    },
    {
      "inputs": [
        {
          "internalType": "address",
          "name": "newOwner",
          "type": "address"
        }
      ],
      "name": "transferOwnership",
      "outputs": [],
      "stateMutability": "nonpayable",
      "type": "function"
    },
    {
      "inputs": [
        {
          "internalType": "bytes32",
          "name": "newRoot",
          "type": "bytes32"
        }
      ],
      "name": "updateExitRoot",
      "outputs": [],
      "stateMutability": "nonpayable",
      "type": "function"
    }
  ],
  "bytecode": "0x608060405234801561001057600080fd5b5060405161083738038061083783398101604081905261002f916100da565b818161003a3361006e565b600680546001600160a01b039384166001600160a01b031991821617909155600580549290931691161790555061010d9050565b600080546001600160a01b038381166001600160a01b0319831681178455604051919092169283917f8be0079c531659141344cd1fd0a4f28419497f9722a3daafe3b4186f6b6457e09190a35050565b80516001600160a01b03811681146100d557600080fd5b919050565b600080604083850312156100ed57600080fd5b6100f6836100be565b9150610104602084016100be565b90509250929050565b61071b8061011c6000396000f3fe608060405234801561001057600080fd5b50600436106100d45760003560e01c80635b820244116100815780638da5cb5b1161005b5780638da5cb5b146101e5578063a3c573eb14610203578063f2fde38b1461022357600080fd5b80635b820244146101755780635ec6a8df14610198578063715018a6146101dd57600080fd5b8063319cf735116100b2578063319cf7351461011e57806333d6247d146101275780633ed691ef1461013c57600080fd5b806301fd9044146100d9578063029f2793146100f5578063257b3632146100fe575b600080fd5b6100e260015481565b6040519081526020015b60405180910390f35b6100e260045481565b6100e261010c36600461062f565b60036020526000908152604090205481565b6100e260025481565b61013a61013536600461062f565b610236565b005b6100e260025460015460408051602081019390935282015260009060600160405160208183030381529060405280519060200120905090565b61013a61018336600461062f565b60045460009182526003602052604090912055565b6006546101b89073ffffffffffffffffffffffffffffffffffffffff1681565b60405173ffffffffffffffffffffffffffffffffffffffff90911681526020016100ec565b61013a6103fd565b60005473ffffffffffffffffffffffffffffffffffffffff166101b8565b6005546101b89073ffffffffffffffffffffffffffffffffffffffff1681565b61013a610231366004610648565b61048a565b60065473ffffffffffffffffffffffffffffffffffffffff16331480610273575060055473ffffffffffffffffffffffffffffffffffffffff1633145b610304576040517f08c379a000000000000000000000000000000000000000000000000000000000815260206004820152603d60248201527f476c6f62616c45786974526f6f744d616e616765723a3a75706461746545786960448201527f74526f6f743a204f4e4c595f414c4c4f5745445f434f4e54524143545300000060648201526084015b60405180910390fd5b60065473ffffffffffffffffffffffffffffffffffffffff1633141561032a5760018190555b60055473ffffffffffffffffffffffffffffffffffffffff163314156103505760028190555b6004805490600061036083610685565b9091555050600254600154604080516020810193909352820152600090606001604080517fffffffffffffffffffffffffffffffffffffffffffffffffffffffffffffffe0818403018152828252805160209182012060045460008281526003909352928220839055600154600254919550939092917fb7c409af8cb511116b88f38824d48a0196194596241fdb2d177210d3d3b89fbf91a45050565b60005473ffffffffffffffffffffffffffffffffffffffff16331461047e576040517f08c379a000000000000000000000000000000000000000000000000000000000815260206004820181905260248201527f4f776e61626c653a2063616c6c6572206973206e6f7420746865206f776e657260448201526064016102fb565b61048860006105ba565b565b60005473ffffffffffffffffffffffffffffffffffffffff16331461050b576040517f08c379a000000000000000000000000000000000000000000000000000000000815260206004820181905260248201527f4f776e61626c653a2063616c6c6572206973206e6f7420746865206f776e657260448201526064016102fb565b73ffffffffffffffffffffffffffffffffffffffff81166105ae576040517f08c379a000000000000000000000000000000000000000000000000000000000815260206004820152602660248201527f4f776e61626c653a206e6577206f776e657220697320746865207a65726f206160448201527f646472657373000000000000000000000000000000000000000000000000000060648201526084016102fb565b6105b7816105ba565b50565b6000805473ffffffffffffffffffffffffffffffffffffffff8381167fffffffffffffffffffffffff0000000000000000000000000000000000000000831681178455604051919092169283917f8be0079c531659141344cd1fd0a4f28419497f9722a3daafe3b4186f6b6457e09190a35050565b60006020828403121561064157600080fd5b5035919050565b60006020828403121561065a57600080fd5b813573ffffffffffffffffffffffffffffffffffffffff8116811461067e57600080fd5b9392505050565b60007fffffffffffffffffffffffffffffffffffffffffffffffffffffffffffffffff8214156106de577f4e487b7100000000000000000000000000000000000000000000000000000000600052601160045260246000fd5b506001019056fea2646970667358221220fde0e2bc6ad284c6245772d3ecaccd54809df75f9575984f690bea7db09adbac64736f6c63430008090033",
  "linkReferences": {},
  "deployedLinkReferences": {}
}