{
  "_format": "hh-sol-artifact-1",
  "contractName": "GlobalExitRootManagerMock",
  "sourceName": "contracts/mocks/GlobalExitRootManagerMock.sol",
  "abi": [
    {
      "inputs": [
        {
          "internalType": "address",
          "name": "_rollupAddress",
          "type": "address"
        },
        {
          "internalType": "address",
          "name": "_bridgeAddress",
          "type": "address"
        }
      ],
      "stateMutability": "nonpayable",
      "type": "constructor"
    },
    {
      "anonymous": false,
      "inputs": [
        {
          "indexed": false,
          "internalType": "uint8",
          "name": "version",
          "type": "uint8"
        }
      ],
      "name": "Initialized",
      "type": "event"
    },
    {
      "anonymous": false,
      "inputs": [
        {
          "indexed": true,
          "internalType": "uint256",
          "name": "globalExitRootNum",
          "type": "uint256"
        },
        {
          "indexed": true,
          "internalType": "bytes32",
          "name": "mainnetExitRoot",
          "type": "bytes32"
        },
        {
          "indexed": true,
          "internalType": "bytes32",
          "name": "rollupExitRoot",
          "type": "bytes32"
        }
      ],
      "name": "UpdateGlobalExitRoot",
      "type": "event"
    },
    {
      "inputs": [],
      "name": "bridgeAddress",
      "outputs": [
        {
          "internalType": "address",
          "name": "",
          "type": "address"
        }
      ],
      "stateMutability": "view",
      "type": "function"
    },
    {
      "inputs": [],
      "name": "getLastGlobalExitRoot",
      "outputs": [
        {
          "internalType": "bytes32",
          "name": "",
          "type": "bytes32"
        }
      ],
      "stateMutability": "view",
      "type": "function"
    },
    {
      "inputs": [
        {
          "internalType": "bytes32",
          "name": "",
          "type": "bytes32"
        }
      ],
      "name": "globalExitRootMap",
      "outputs": [
        {
          "internalType": "uint256",
          "name": "",
          "type": "uint256"
        }
      ],
      "stateMutability": "view",
      "type": "function"
    },
    {
      "inputs": [
        {
          "internalType": "address",
          "name": "_rollupAddress",
          "type": "address"
        },
        {
          "internalType": "address",
          "name": "_bridgeAddress",
          "type": "address"
        }
      ],
      "name": "initialize",
      "outputs": [],
      "stateMutability": "nonpayable",
      "type": "function"
    },
    {
      "inputs": [],
      "name": "lastGlobalExitRootNum",
      "outputs": [
        {
          "internalType": "uint256",
          "name": "",
          "type": "uint256"
        }
      ],
      "stateMutability": "view",
      "type": "function"
    },
    {
      "inputs": [],
      "name": "lastMainnetExitRoot",
      "outputs": [
        {
          "internalType": "bytes32",
          "name": "",
          "type": "bytes32"
        }
      ],
      "stateMutability": "view",
      "type": "function"
    },
    {
      "inputs": [],
      "name": "lastRollupExitRoot",
      "outputs": [
        {
          "internalType": "bytes32",
          "name": "",
          "type": "bytes32"
        }
      ],
      "stateMutability": "view",
      "type": "function"
    },
    {
      "inputs": [],
      "name": "rollupAddress",
      "outputs": [
        {
          "internalType": "address",
          "name": "",
          "type": "address"
        }
      ],
      "stateMutability": "view",
      "type": "function"
    },
    {
      "inputs": [
        {
          "internalType": "bytes32",
          "name": "globalExitRoot",
          "type": "bytes32"
        }
      ],
      "name": "setLastGlobalExitRoot",
      "outputs": [],
      "stateMutability": "nonpayable",
      "type": "function"
    },
    {
      "inputs": [
        {
          "internalType": "uint256",
          "name": "_lastGlobalExitRootNum",
          "type": "uint256"
        }
      ],
      "name": "setLastGlobalExitRootNum",
      "outputs": [],
      "stateMutability": "nonpayable",
      "type": "function"
    },
    {
      "inputs": [
        {
          "internalType": "bytes32",
          "name": "newRoot",
          "type": "bytes32"
        }
      ],
      "name": "updateExitRoot",
      "outputs": [],
      "stateMutability": "nonpayable",
      "type": "function"
    }
  ],
  "bytecode": "0x608060405234801561001057600080fd5b506040516108e13803806108e183398101604081905261002f916101bb565b6100398282610040565b50506101ee565b600054610100900460ff16158080156100605750600054600160ff909116105b8061008b57506100793061019060201b6105be1760201c565b15801561008b575060005460ff166001145b6100f25760405162461bcd60e51b815260206004820152602e60248201527f496e697469616c697a61626c653a20636f6e747261637420697320616c72656160448201526d191e481a5b9a5d1a585b1a5e995960921b606482015260840160405180910390fd5b6000805460ff191660011790558015610115576000805461ff0019166101001790555b600680546001600160a01b038086166001600160a01b0319928316179092556005805492851692909116919091179055801561018b576000805461ff0019169055604051600181527f7f26b83ff96e1f2b6a682f133852f6798a09c465da95921460cefb38474024989060200160405180910390a15b505050565b6001600160a01b03163b151590565b80516001600160a01b03811681146101b657600080fd5b919050565b600080604083850312156101ce57600080fd5b6101d78361019f565b91506101e56020840161019f565b90509250929050565b6106e4806101fd6000396000f3fe608060405234801561001057600080fd5b50600436106100c95760003560e01c80633ed691ef116100815780635ec6a8df1161005b5780635ec6a8df146101a0578063a3c573eb146101e5578063eb4157d21461020557600080fd5b80633ed691ef14610131578063485cc9551461016a5780635b8202441461017d57600080fd5b8063257b3632116100b2578063257b3632146100f3578063319cf7351461011357806333d6247d1461011c57600080fd5b806301fd9044146100ce578063029f2793146100ea575b600080fd5b6100d760015481565b6040519081526020015b60405180910390f35b6100d760045481565b6100d76101013660046105da565b60036020526000908152604090205481565b6100d760025481565b61012f61012a3660046105da565b610218565b005b6100d760025460015460408051602081019390935282015260009060600160405160208183030381529060405280519060200120905090565b61012f61017836600461061c565b6103dd565b61012f61018b3660046105da565b60045460009182526003602052604090912055565b6006546101c09073ffffffffffffffffffffffffffffffffffffffff1681565b60405173ffffffffffffffffffffffffffffffffffffffff90911681526020016100e1565b6005546101c09073ffffffffffffffffffffffffffffffffffffffff1681565b61012f6102133660046105da565b600455565b60065473ffffffffffffffffffffffffffffffffffffffff16331480610255575060055473ffffffffffffffffffffffffffffffffffffffff1633145b6102e6576040517f08c379a000000000000000000000000000000000000000000000000000000000815260206004820152603d60248201527f476c6f62616c45786974526f6f744d616e616765723a3a75706461746545786960448201527f74526f6f743a204f4e4c595f414c4c4f5745445f434f4e54524143545300000060648201526084015b60405180910390fd5b60065473ffffffffffffffffffffffffffffffffffffffff16330361030b5760018190555b60055473ffffffffffffffffffffffffffffffffffffffff1633036103305760028190555b600480549060006103408361064f565b9091555050600254600154604080516020810193909352820152600090606001604080517fffffffffffffffffffffffffffffffffffffffffffffffffffffffffffffffe0818403018152828252805160209182012060045460008281526003909352928220839055600154600254919550939092917fb7c409af8cb511116b88f38824d48a0196194596241fdb2d177210d3d3b89fbf91a45050565b600054610100900460ff16158080156103fd5750600054600160ff909116105b806104175750303b158015610417575060005460ff166001145b6104a3576040517f08c379a000000000000000000000000000000000000000000000000000000000815260206004820152602e60248201527f496e697469616c697a61626c653a20636f6e747261637420697320616c72656160448201527f647920696e697469616c697a656400000000000000000000000000000000000060648201526084016102dd565b600080547fffffffffffffffffffffffffffffffffffffffffffffffffffffffffffffff00166001179055801561050157600080547fffffffffffffffffffffffffffffffffffffffffffffffffffffffffffff00ff166101001790555b6006805473ffffffffffffffffffffffffffffffffffffffff8086167fffffffffffffffffffffffff000000000000000000000000000000000000000092831617909255600580549285169290911691909117905580156105b957600080547fffffffffffffffffffffffffffffffffffffffffffffffffffffffffffff00ff169055604051600181527f7f26b83ff96e1f2b6a682f133852f6798a09c465da95921460cefb38474024989060200160405180910390a15b505050565b73ffffffffffffffffffffffffffffffffffffffff163b151590565b6000602082840312156105ec57600080fd5b5035919050565b803573ffffffffffffffffffffffffffffffffffffffff8116811461061757600080fd5b919050565b6000806040838503121561062f57600080fd5b610638836105f3565b9150610646602084016105f3565b90509250929050565b60007fffffffffffffffffffffffffffffffffffffffffffffffffffffffffffffffff82036106a7577f4e487b7100000000000000000000000000000000000000000000000000000000600052601160045260246000fd5b506001019056fea264697066735822122048530d2d229ea6e7ef4e6b72e7db2eda340f70e5f83cbb0ad46110bcaa23e42f64736f6c634300080f0033",
  "linkReferences": {},
  "deployedLinkReferences": {}
}