{
  "_format": "hh-sol-artifact-1",
  "contractName": "GlobalExitRootManagerL2",
  "sourceName": "contracts/GlobalExitRootManagerL2.sol",
  "abi": [
    {
      "inputs": [
        {
          "internalType": "address",
          "name": "_bridgeAddress",
          "type": "address"
        }
      ],
      "stateMutability": "nonpayable",
      "type": "constructor"
    },
    {
      "inputs": [],
      "name": "bridgeAddress",
      "outputs": [
        {
          "internalType": "address",
          "name": "",
          "type": "address"
        }
      ],
      "stateMutability": "view",
      "type": "function"
    },
    {
      "inputs": [
        {
          "internalType": "bytes32",
          "name": "",
          "type": "bytes32"
        }
      ],
      "name": "globalExitRootMap",
      "outputs": [
        {
          "internalType": "uint256",
          "name": "",
          "type": "uint256"
        }
      ],
      "stateMutability": "view",
      "type": "function"
    },
    {
      "inputs": [],
      "name": "lastRollupExitRoot",
      "outputs": [
        {
          "internalType": "bytes32",
          "name": "",
          "type": "bytes32"
        }
      ],
      "stateMutability": "view",
      "type": "function"
    },
    {
      "inputs": [
        {
          "internalType": "bytes32",
          "name": "newRoot",
          "type": "bytes32"
        }
      ],
      "name": "updateExitRoot",
      "outputs": [],
      "stateMutability": "nonpayable",
      "type": "function"
    }
  ],
  "bytecode": "0x608060405234801561001057600080fd5b5060405161022f38038061022f83398101604081905261002f91610054565b600280546001600160a01b0319166001600160a01b0392909216919091179055610084565b60006020828403121561006657600080fd5b81516001600160a01b038116811461007d57600080fd5b9392505050565b61019c806100936000396000f3fe608060405234801561001057600080fd5b506004361061004c5760003560e01c806301fd904414610051578063257b36321461006d57806333d6247d1461008d578063a3c573eb146100a2575b600080fd5b61005a60015481565b6040519081526020015b60405180910390f35b61005a61007b36600461014d565b60006020819052908152604090205481565b6100a061009b36600461014d565b6100cd565b005b6002546100b5906001600160a01b031681565b6040516001600160a01b039091168152602001610064565b6002546001600160a01b031633146101485760405162461bcd60e51b815260206004820152603460248201527f476c6f62616c45786974526f6f744d616e616765724c323a3a75706461746545604482015273786974526f6f743a204f4e4c595f42524944474560601b606482015260840160405180910390fd5b600155565b60006020828403121561015f57600080fd5b503591905056fea2646970667358221220c3d468a91666aebe6b0b1c0d82e7915c70f7879e38ddb928138328ccd71d725164736f6c634300080f0033",
  "linkReferences": {},
  "deployedLinkReferences": {}
}