{
  "_format": "hh-sol-artifact-1",
  "contractName": "GlobalExitRootManager",
  "sourceName": "contracts/GlobalExitRootManager.sol",
  "abi": [
    {
      "inputs": [
        {
          "internalType": "address",
          "name": "_rollupAddress",
          "type": "address"
        },
        {
          "internalType": "address",
          "name": "_bridgeAddress",
          "type": "address"
        }
      ],
      "stateMutability": "nonpayable",
      "type": "constructor"
    },
    {
      "anonymous": false,
      "inputs": [
        {
          "indexed": true,
          "internalType": "address",
          "name": "previousOwner",
          "type": "address"
        },
        {
          "indexed": true,
          "internalType": "address",
          "name": "newOwner",
          "type": "address"
        }
      ],
      "name": "OwnershipTransferred",
      "type": "event"
    },
    {
      "anonymous": false,
      "inputs": [
        {
          "indexed": true,
          "internalType": "uint256",
          "name": "globalExitRootNum",
          "type": "uint256"
        },
        {
          "indexed": true,
          "internalType": "bytes32",
          "name": "mainnetExitRoot",
          "type": "bytes32"
        },
        {
          "indexed": true,
          "internalType": "bytes32",
          "name": "rollupExitRoot",
          "type": "bytes32"
        }
      ],
      "name": "UpdateGlobalExitRoot",
      "type": "event"
    },
    {
      "inputs": [],
      "name": "bridgeAddress",
      "outputs": [
        {
          "internalType": "address",
          "name": "",
          "type": "address"
        }
      ],
      "stateMutability": "view",
      "type": "function"
    },
    {
      "inputs": [],
      "name": "getLastGlobalExitRoot",
      "outputs": [
        {
          "internalType": "bytes32",
          "name": "",
          "type": "bytes32"
        }
      ],
      "stateMutability": "view",
      "type": "function"
    },
    {
      "inputs": [
        {
          "internalType": "bytes32",
          "name": "",
          "type": "bytes32"
        }
      ],
      "name": "globalExitRootMap",
      "outputs": [
        {
          "internalType": "uint256",
          "name": "",
          "type": "uint256"
        }
      ],
      "stateMutability": "view",
      "type": "function"
    },
    {
      "inputs": [],
      "name": "lastGlobalExitRootNum",
      "outputs": [
        {
          "internalType": "uint256",
          "name": "",
          "type": "uint256"
        }
      ],
      "stateMutability": "view",
      "type": "function"
    },
    {
      "inputs": [],
      "name": "lastMainnetExitRoot",
      "outputs": [
        {
          "internalType": "bytes32",
          "name": "",
          "type": "bytes32"
        }
      ],
      "stateMutability": "view",
      "type": "function"
    },
    {
      "inputs": [],
      "name": "lastRollupExitRoot",
      "outputs": [
        {
          "internalType": "bytes32",
          "name": "",
          "type": "bytes32"
        }
      ],
      "stateMutability": "view",
      "type": "function"
    },
    {
      "inputs": [],
      "name": "owner",
      "outputs": [
        {
          "internalType": "address",
          "name": "",
          "type": "address"
        }
      ],
      "stateMutability": "view",
      "type": "function"
    },
    {
      "inputs": [],
      "name": "renounceOwnership",
      "outputs": [],
      "stateMutability": "nonpayable",
      "type": "function"
    },
    {
      "inputs": [],
      "name": "rollupAddress",
      "outputs": [
        {
          "internalType": "address",
          "name": "",
          "type": "address"
        }
      ],
      "stateMutability": "view",
      "type": "function"
    },
    {
      "inputs": [
        {
          "internalType": "address",
          "name": "newOwner",
          "type": "address"
        }
      ],
      "name": "transferOwnership",
      "outputs": [],
      "stateMutability": "nonpayable",
      "type": "function"
    },
    {
      "inputs": [
        {
          "internalType": "bytes32",
          "name": "newRoot",
          "type": "bytes32"
        }
      ],
      "name": "updateExitRoot",
      "outputs": [],
      "stateMutability": "nonpayable",
      "type": "function"
    }
  ],
  "bytecode": "0x608060405234801561001057600080fd5b5060405161080438038061080483398101604081905261002f916100d5565b61003833610069565b600680546001600160a01b039384166001600160a01b03199182161790915560058054929093169116179055610108565b600080546001600160a01b038381166001600160a01b0319831681178455604051919092169283917f8be0079c531659141344cd1fd0a4f28419497f9722a3daafe3b4186f6b6457e09190a35050565b80516001600160a01b03811681146100d057600080fd5b919050565b600080604083850312156100e857600080fd5b6100f1836100b9565b91506100ff602084016100b9565b90509250929050565b6106ed806101176000396000f3fe608060405234801561001057600080fd5b50600436106100c95760003560e01c80633ed691ef116100815780638da5cb5b1161005b5780638da5cb5b146101b7578063a3c573eb146101d5578063f2fde38b146101f557600080fd5b80633ed691ef146101315780635ec6a8df1461016a578063715018a6146101af57600080fd5b8063257b3632116100b2578063257b3632146100f3578063319cf7351461011357806333d6247d1461011c57600080fd5b806301fd9044146100ce578063029f2793146100ea575b600080fd5b6100d760015481565b6040519081526020015b60405180910390f35b6100d760045481565b6100d7610101366004610601565b60036020526000908152604090205481565b6100d760025481565b61012f61012a366004610601565b610208565b005b6100d760025460015460408051602081019390935282015260009060600160405160208183030381529060405280519060200120905090565b60065461018a9073ffffffffffffffffffffffffffffffffffffffff1681565b60405173ffffffffffffffffffffffffffffffffffffffff90911681526020016100e1565b61012f6103cf565b60005473ffffffffffffffffffffffffffffffffffffffff1661018a565b60055461018a9073ffffffffffffffffffffffffffffffffffffffff1681565b61012f61020336600461061a565b61045c565b60065473ffffffffffffffffffffffffffffffffffffffff16331480610245575060055473ffffffffffffffffffffffffffffffffffffffff1633145b6102d6576040517f08c379a000000000000000000000000000000000000000000000000000000000815260206004820152603d60248201527f476c6f62616c45786974526f6f744d616e616765723a3a75706461746545786960448201527f74526f6f743a204f4e4c595f414c4c4f5745445f434f4e54524143545300000060648201526084015b60405180910390fd5b60065473ffffffffffffffffffffffffffffffffffffffff163314156102fc5760018190555b60055473ffffffffffffffffffffffffffffffffffffffff163314156103225760028190555b6004805490600061033283610657565b9091555050600254600154604080516020810193909352820152600090606001604080517fffffffffffffffffffffffffffffffffffffffffffffffffffffffffffffffe0818403018152828252805160209182012060045460008281526003909352928220839055600154600254919550939092917fb7c409af8cb511116b88f38824d48a0196194596241fdb2d177210d3d3b89fbf91a45050565b60005473ffffffffffffffffffffffffffffffffffffffff163314610450576040517f08c379a000000000000000000000000000000000000000000000000000000000815260206004820181905260248201527f4f776e61626c653a2063616c6c6572206973206e6f7420746865206f776e657260448201526064016102cd565b61045a600061058c565b565b60005473ffffffffffffffffffffffffffffffffffffffff1633146104dd576040517f08c379a000000000000000000000000000000000000000000000000000000000815260206004820181905260248201527f4f776e61626c653a2063616c6c6572206973206e6f7420746865206f776e657260448201526064016102cd565b73ffffffffffffffffffffffffffffffffffffffff8116610580576040517f08c379a000000000000000000000000000000000000000000000000000000000815260206004820152602660248201527f4f776e61626c653a206e6577206f776e657220697320746865207a65726f206160448201527f646472657373000000000000000000000000000000000000000000000000000060648201526084016102cd565b6105898161058c565b50565b6000805473ffffffffffffffffffffffffffffffffffffffff8381167fffffffffffffffffffffffff0000000000000000000000000000000000000000831681178455604051919092169283917f8be0079c531659141344cd1fd0a4f28419497f9722a3daafe3b4186f6b6457e09190a35050565b60006020828403121561061357600080fd5b5035919050565b60006020828403121561062c57600080fd5b813573ffffffffffffffffffffffffffffffffffffffff8116811461065057600080fd5b9392505050565b60007fffffffffffffffffffffffffffffffffffffffffffffffffffffffffffffffff8214156106b0577f4e487b7100000000000000000000000000000000000000000000000000000000600052601160045260246000fd5b506001019056fea26469706673582212201d8266723c84a726ed354f8885212018e09ba4daaf3fd2ae6fb58364cf06e9dc64736f6c63430008090033",
  "linkReferences": {},
  "deployedLinkReferences": {}
}