{
  "_format": "hh-sol-artifact-1",
  "contractName": "GlobalExitRootManagerMock",
  "sourceName": "contracts/mocks/GlobalExitRootManagerMock.sol",
  "abi": [
    {
      "inputs": [
        {
          "internalType": "address",
          "name": "_rollupAddress",
          "type": "address"
        },
        {
          "internalType": "address",
          "name": "_bridgeAddress",
          "type": "address"
        }
      ],
      "stateMutability": "nonpayable",
      "type": "constructor"
    },
    {
      "anonymous": false,
      "inputs": [
        {
          "indexed": false,
          "internalType": "uint8",
          "name": "version",
          "type": "uint8"
        }
      ],
      "name": "Initialized",
      "type": "event"
    },
    {
      "anonymous": false,
      "inputs": [
        {
          "indexed": true,
          "internalType": "bytes32",
          "name": "mainnetExitRoot",
          "type": "bytes32"
        },
        {
          "indexed": true,
          "internalType": "bytes32",
          "name": "rollupExitRoot",
          "type": "bytes32"
        }
      ],
      "name": "UpdateGlobalExitRoot",
      "type": "event"
    },
    {
      "inputs": [],
      "name": "bridgeAddress",
      "outputs": [
        {
          "internalType": "address",
          "name": "",
          "type": "address"
        }
      ],
      "stateMutability": "view",
      "type": "function"
    },
    {
      "inputs": [],
      "name": "getLastGlobalExitRoot",
      "outputs": [
        {
          "internalType": "bytes32",
          "name": "",
          "type": "bytes32"
        }
      ],
      "stateMutability": "view",
      "type": "function"
    },
    {
      "inputs": [
        {
          "internalType": "bytes32",
          "name": "",
          "type": "bytes32"
        }
      ],
      "name": "globalExitRootMap",
      "outputs": [
        {
          "internalType": "uint256",
          "name": "",
          "type": "uint256"
        }
      ],
      "stateMutability": "view",
      "type": "function"
    },
    {
      "inputs": [
        {
          "internalType": "address",
          "name": "_rollupAddress",
          "type": "address"
        },
        {
          "internalType": "address",
          "name": "_bridgeAddress",
          "type": "address"
        }
      ],
      "name": "initialize",
      "outputs": [],
      "stateMutability": "nonpayable",
      "type": "function"
    },
    {
      "inputs": [],
      "name": "lastMainnetExitRoot",
      "outputs": [
        {
          "internalType": "bytes32",
          "name": "",
          "type": "bytes32"
        }
      ],
      "stateMutability": "view",
      "type": "function"
    },
    {
      "inputs": [],
      "name": "lastRollupExitRoot",
      "outputs": [
        {
          "internalType": "bytes32",
          "name": "",
          "type": "bytes32"
        }
      ],
      "stateMutability": "view",
      "type": "function"
    },
    {
      "inputs": [],
      "name": "rollupAddress",
      "outputs": [
        {
          "internalType": "address",
          "name": "",
          "type": "address"
        }
      ],
      "stateMutability": "view",
      "type": "function"
    },
    {
      "inputs": [
        {
          "internalType": "bytes32",
          "name": "globalExitRoot",
          "type": "bytes32"
        },
        {
          "internalType": "uint256",
          "name": "timestamp",
          "type": "uint256"
        }
      ],
      "name": "setGlobalExitRoot",
      "outputs": [],
      "stateMutability": "nonpayable",
      "type": "function"
    },
    {
      "inputs": [
        {
          "internalType": "uint256",
          "name": "timestamp",
          "type": "uint256"
        }
      ],
      "name": "setLastGlobalExitRoot",
      "outputs": [],
      "stateMutability": "nonpayable",
      "type": "function"
    },
    {
      "inputs": [
        {
          "internalType": "bytes32",
          "name": "newRoot",
          "type": "bytes32"
        }
      ],
      "name": "updateExitRoot",
      "outputs": [],
      "stateMutability": "nonpayable",
      "type": "function"
    }
  ],
  "bytecode": "0x608060405234801561001057600080fd5b5060405161076f38038061076f83398101604081905261002f916101bb565b6100398282610040565b50506101ee565b600054610100900460ff16158080156100605750600054600160ff909116105b8061008b57506100793061019060201b6104a31760201c565b15801561008b575060005460ff166001145b6100f25760405162461bcd60e51b815260206004820152602e60248201527f496e697469616c697a61626c653a20636f6e747261637420697320616c72656160448201526d191e481a5b9a5d1a585b1a5e995960921b606482015260840160405180910390fd5b6000805460ff191660011790558015610115576000805461ff0019166101001790555b600580546001600160a01b038086166001600160a01b0319928316179092556004805492851692909116919091179055801561018b576000805461ff0019169055604051600181527f7f26b83ff96e1f2b6a682f133852f6798a09c465da95921460cefb38474024989060200160405180910390a15b505050565b6001600160a01b03163b151590565b80516001600160a01b03811681146101b657600080fd5b919050565b600080604083850312156101ce57600080fd5b6101d78361019f565b91506101e56020840161019f565b90509250929050565b610572806101fd6000396000f3fe608060405234801561001057600080fd5b506004361061009e5760003560e01c80633ed691ef116100665780633ed691ef14610110578063485cc955146101495780635bcef6731461015c5780635ec6a8df1461017c578063a3c573eb146101a757600080fd5b806301fd9044146100a3578063051a9e28146100bf578063257b3632146100d4578063319cf735146100f457806333d6247d146100fd575b600080fd5b6100ac60015481565b6040519081526020015b60405180910390f35b6100d26100cd3660046104b2565b6101ba565b005b6100ac6100e23660046104b2565b60036020526000908152604090205481565b6100ac60025481565b6100d261010b3660046104b2565b61020c565b6100ac60025460015460408051602081019390935282015260009060600160405160208183030381529060405280519060200120905090565b6100d26101573660046104e7565b610368565b6100d261016a36600461051a565b60009182526003602052604090912055565b60055461018f906001600160a01b031681565b6040516001600160a01b0390911681526020016100b6565b60045461018f906001600160a01b031681565b80600360006101f860025460015460408051602081019390935282015260009060600160405160208183030381529060405280519060200120905090565b815260208101919091526040016000205550565b6005546001600160a01b031633148061022f57506004546001600160a01b031633145b6102a65760405162461bcd60e51b815260206004820152603d60248201527f476c6f62616c45786974526f6f744d616e616765723a3a75706461746545786960448201527f74526f6f743a204f4e4c595f414c4c4f5745445f434f4e54524143545300000060648201526084015b60405180910390fd5b6005546001600160a01b031633036102be5760018190555b6004546001600160a01b031633036102d65760028190555b600254600154604080516020810193909352820152600090606001604051602081830303815290604052805190602001209050600360008281526020019081526020016000205460000361036457600081815260036020526040808220429055600154600254915190927f61014378f82a0d809aefaf87a8ac9505b89c321808287a6e7810f29304c1fce391a35b5050565b600054610100900460ff16158080156103885750600054600160ff909116105b806103a25750303b1580156103a2575060005460ff166001145b6104055760405162461bcd60e51b815260206004820152602e60248201527f496e697469616c697a61626c653a20636f6e747261637420697320616c72656160448201526d191e481a5b9a5d1a585b1a5e995960921b606482015260840161029d565b6000805460ff191660011790558015610428576000805461ff0019166101001790555b600580546001600160a01b038086166001600160a01b0319928316179092556004805492851692909116919091179055801561049e576000805461ff0019169055604051600181527f7f26b83ff96e1f2b6a682f133852f6798a09c465da95921460cefb38474024989060200160405180910390a15b505050565b6001600160a01b03163b151590565b6000602082840312156104c457600080fd5b5035919050565b80356001600160a01b03811681146104e257600080fd5b919050565b600080604083850312156104fa57600080fd5b610503836104cb565b9150610511602084016104cb565b90509250929050565b6000806040838503121561052d57600080fd5b5050803592602090910135915056fea264697066735822122082ea160a3ec4f829f851711f236acddc0f95056ee62214ad334ec9216e83c2ba64736f6c634300080f0033",
  "linkReferences": {},
  "deployedLinkReferences": {}
}