{
  "_format": "hh-sol-artifact-1",
  "contractName": "GlobalExitRootManagerMock",
  "sourceName": "contracts/mocks/GlobalExitRootManagerMock.sol",
  "abi": [
    {
      "inputs": [
        {
          "internalType": "address",
          "name": "_rollupAddress",
          "type": "address"
        },
        {
          "internalType": "address",
          "name": "_bridgeAddress",
          "type": "address"
        }
      ],
      "stateMutability": "nonpayable",
      "type": "constructor"
    },
    {
      "anonymous": false,
      "inputs": [
        {
          "indexed": false,
          "internalType": "uint8",
          "name": "version",
          "type": "uint8"
        }
      ],
      "name": "Initialized",
      "type": "event"
    },
    {
      "anonymous": false,
      "inputs": [
        {
          "indexed": true,
          "internalType": "bytes32",
          "name": "mainnetExitRoot",
          "type": "bytes32"
        },
        {
          "indexed": true,
          "internalType": "bytes32",
          "name": "rollupExitRoot",
          "type": "bytes32"
        }
      ],
      "name": "UpdateGlobalExitRoot",
      "type": "event"
    },
    {
      "inputs": [],
      "name": "bridgeAddress",
      "outputs": [
        {
          "internalType": "address",
          "name": "",
          "type": "address"
        }
      ],
      "stateMutability": "view",
      "type": "function"
    },
    {
      "inputs": [],
      "name": "getLastGlobalExitRoot",
      "outputs": [
        {
          "internalType": "bytes32",
          "name": "",
          "type": "bytes32"
        }
      ],
      "stateMutability": "view",
      "type": "function"
    },
    {
      "inputs": [
        {
          "internalType": "bytes32",
          "name": "",
          "type": "bytes32"
        }
      ],
      "name": "globalExitRootMap",
      "outputs": [
        {
          "internalType": "uint256",
          "name": "",
          "type": "uint256"
        }
      ],
      "stateMutability": "view",
      "type": "function"
    },
    {
      "inputs": [
        {
          "internalType": "address",
          "name": "_rollupAddress",
          "type": "address"
        },
        {
          "internalType": "address",
          "name": "_bridgeAddress",
          "type": "address"
        }
      ],
      "name": "initialize",
      "outputs": [],
      "stateMutability": "nonpayable",
      "type": "function"
    },
    {
      "inputs": [],
      "name": "lastMainnetExitRoot",
      "outputs": [
        {
          "internalType": "bytes32",
          "name": "",
          "type": "bytes32"
        }
      ],
      "stateMutability": "view",
      "type": "function"
    },
    {
      "inputs": [],
      "name": "lastRollupExitRoot",
      "outputs": [
        {
          "internalType": "bytes32",
          "name": "",
          "type": "bytes32"
        }
      ],
      "stateMutability": "view",
      "type": "function"
    },
    {
      "inputs": [],
      "name": "rollupAddress",
      "outputs": [
        {
          "internalType": "address",
          "name": "",
          "type": "address"
        }
      ],
      "stateMutability": "view",
      "type": "function"
    },
    {
      "inputs": [
        {
          "internalType": "uint256",
          "name": "timestamp",
          "type": "uint256"
        }
      ],
      "name": "setLastGlobalExitRoot",
      "outputs": [],
      "stateMutability": "nonpayable",
      "type": "function"
    },
    {
      "inputs": [
        {
          "internalType": "bytes32",
          "name": "newRoot",
          "type": "bytes32"
        }
      ],
      "name": "updateExitRoot",
      "outputs": [],
      "stateMutability": "nonpayable",
      "type": "function"
    }
  ],
  "bytecode": "0x608060405234801561001057600080fd5b5060405161086838038061086883398101604081905261002f916101bb565b6100398282610040565b50506101ee565b600054610100900460ff16158080156100605750600054600160ff909116105b8061008b57506100793061019060201b6105a41760201c565b15801561008b575060005460ff166001145b6100f25760405162461bcd60e51b815260206004820152602e60248201527f496e697469616c697a61626c653a20636f6e747261637420697320616c72656160448201526d191e481a5b9a5d1a585b1a5e995960921b606482015260840160405180910390fd5b6000805460ff191660011790558015610115576000805461ff0019166101001790555b600580546001600160a01b038086166001600160a01b0319928316179092556004805492851692909116919091179055801561018b576000805461ff0019169055604051600181527f7f26b83ff96e1f2b6a682f133852f6798a09c465da95921460cefb38474024989060200160405180910390a15b505050565b6001600160a01b03163b151590565b80516001600160a01b03811681146101b657600080fd5b919050565b600080604083850312156101ce57600080fd5b6101d78361019f565b91506101e56020840161019f565b90509250929050565b61066b806101fd6000396000f3fe608060405234801561001057600080fd5b50600436106100a35760003560e01c806333d6247d11610076578063485cc9551161005b578063485cc9551461014e5780635ec6a8df14610161578063a3c573eb146101a657600080fd5b806333d6247d146101025780633ed691ef1461011557600080fd5b806301fd9044146100a8578063051a9e28146100c4578063257b3632146100d9578063319cf735146100f9575b600080fd5b6100b160015481565b6040519081526020015b60405180910390f35b6100d76100d23660046105c0565b6101c6565b005b6100b16100e73660046105c0565b60036020526000908152604090205481565b6100b160025481565b6100d76101103660046105c0565b610218565b6100b160025460015460408051602081019390935282015260009060600160405160208183030381529060405280519060200120905090565b6100d761015c366004610602565b6103c3565b6005546101819073ffffffffffffffffffffffffffffffffffffffff1681565b60405173ffffffffffffffffffffffffffffffffffffffff90911681526020016100bb565b6004546101819073ffffffffffffffffffffffffffffffffffffffff1681565b806003600061020460025460015460408051602081019390935282015260009060600160405160208183030381529060405280519060200120905090565b815260208101919091526040016000205550565b60055473ffffffffffffffffffffffffffffffffffffffff16331480610255575060045473ffffffffffffffffffffffffffffffffffffffff1633145b6102e6576040517f08c379a000000000000000000000000000000000000000000000000000000000815260206004820152603d60248201527f476c6f62616c45786974526f6f744d616e616765723a3a75706461746545786960448201527f74526f6f743a204f4e4c595f414c4c4f5745445f434f4e54524143545300000060648201526084015b60405180910390fd5b60055473ffffffffffffffffffffffffffffffffffffffff16330361030b5760018190555b60045473ffffffffffffffffffffffffffffffffffffffff1633036103305760028190555b60025460015460408051602081019390935282015260009060600160405160208183030381529060405280519060200120905060036000828152602001908152602001600020546000036103905760008181526003602052604090204290555b6001546002546040517f61014378f82a0d809aefaf87a8ac9505b89c321808287a6e7810f29304c1fce390600090a35050565b600054610100900460ff16158080156103e35750600054600160ff909116105b806103fd5750303b1580156103fd575060005460ff166001145b610489576040517f08c379a000000000000000000000000000000000000000000000000000000000815260206004820152602e60248201527f496e697469616c697a61626c653a20636f6e747261637420697320616c72656160448201527f647920696e697469616c697a656400000000000000000000000000000000000060648201526084016102dd565b600080547fffffffffffffffffffffffffffffffffffffffffffffffffffffffffffffff0016600117905580156104e757600080547fffffffffffffffffffffffffffffffffffffffffffffffffffffffffffff00ff166101001790555b6005805473ffffffffffffffffffffffffffffffffffffffff8086167fffffffffffffffffffffffff0000000000000000000000000000000000000000928316179092556004805492851692909116919091179055801561059f57600080547fffffffffffffffffffffffffffffffffffffffffffffffffffffffffffff00ff169055604051600181527f7f26b83ff96e1f2b6a682f133852f6798a09c465da95921460cefb38474024989060200160405180910390a15b505050565b73ffffffffffffffffffffffffffffffffffffffff163b151590565b6000602082840312156105d257600080fd5b5035919050565b803573ffffffffffffffffffffffffffffffffffffffff811681146105fd57600080fd5b919050565b6000806040838503121561061557600080fd5b61061e836105d9565b915061062c602084016105d9565b9050925092905056fea2646970667358221220c20953716f47032c9608f2c9d1656cbadaf5e6708c4dfb96635026f6eb2f2b6764736f6c634300080f0033",
  "linkReferences": {},
  "deployedLinkReferences": {}
}