{
  "_format": "hh-sol-artifact-1",
  "contractName": "GlobalExitRootManager",
  "sourceName": "contracts/GlobalExitRootManager.sol",
  "abi": [
    {
      "inputs": [
        {
          "internalType": "address",
          "name": "_rollupAddress",
          "type": "address"
        },
        {
          "internalType": "address",
          "name": "_bridgeAddress",
          "type": "address"
        }
      ],
      "stateMutability": "nonpayable",
      "type": "constructor"
    },
    {
      "anonymous": false,
      "inputs": [
        {
          "indexed": true,
          "internalType": "uint256",
          "name": "globalExitRootNum",
          "type": "uint256"
        },
        {
          "indexed": true,
          "internalType": "bytes32",
          "name": "mainnetExitRoot",
          "type": "bytes32"
        },
        {
          "indexed": true,
          "internalType": "bytes32",
          "name": "rollupExitRoot",
          "type": "bytes32"
        }
      ],
      "name": "UpdateGlobalExitRoot",
      "type": "event"
    },
    {
      "inputs": [],
      "name": "bridgeAddress",
      "outputs": [
        {
          "internalType": "address",
          "name": "",
          "type": "address"
        }
      ],
      "stateMutability": "view",
      "type": "function"
    },
    {
      "inputs": [],
      "name": "getLastGlobalExitRoot",
      "outputs": [
        {
          "internalType": "bytes32",
          "name": "",
          "type": "bytes32"
        }
      ],
      "stateMutability": "view",
      "type": "function"
    },
    {
      "inputs": [],
      "name": "getLastGlobalExitRootNum",
      "outputs": [
        {
          "internalType": "uint256",
          "name": "",
          "type": "uint256"
        }
      ],
      "stateMutability": "view",
      "type": "function"
    },
    {
      "inputs": [
        {
          "internalType": "bytes32",
          "name": "",
          "type": "bytes32"
        }
      ],
      "name": "globalExitRootMap",
      "outputs": [
        {
          "internalType": "uint256",
          "name": "",
          "type": "uint256"
        }
      ],
      "stateMutability": "view",
      "type": "function"
    },
    {
      "inputs": [],
      "name": "lastMainnetExitRoot",
      "outputs": [
        {
          "internalType": "bytes32",
          "name": "",
          "type": "bytes32"
        }
      ],
      "stateMutability": "view",
      "type": "function"
    },
    {
      "inputs": [],
      "name": "lastRollupExitRoot",
      "outputs": [
        {
          "internalType": "bytes32",
          "name": "",
          "type": "bytes32"
        }
      ],
      "stateMutability": "view",
      "type": "function"
    },
    {
      "inputs": [],
      "name": "rollupAddress",
      "outputs": [
        {
          "internalType": "address",
          "name": "",
          "type": "address"
        }
      ],
      "stateMutability": "view",
      "type": "function"
    },
    {
      "inputs": [
        {
          "internalType": "bytes32",
          "name": "newRoot",
          "type": "bytes32"
        }
      ],
      "name": "updateExitRoot",
      "outputs": [],
      "stateMutability": "nonpayable",
      "type": "function"
    }
  ],
  "bytecode": "0x608060405234801561001057600080fd5b506040516104ff3803806104ff83398101604081905261002f9161007c565b600480546001600160a01b039384166001600160a01b031991821617909155600380549290931691161790556100af565b80516001600160a01b038116811461007757600080fd5b919050565b6000806040838503121561008f57600080fd5b61009883610060565b91506100a660208401610060565b90509250929050565b610441806100be6000396000f3fe608060405234801561001057600080fd5b50600436106100885760003560e01c80633ed691ef1161005b5780633ed691ef146100e75780635ec6a8df1461011f578063a3c573eb14610164578063e3f17c5b1461018457600080fd5b806301fd90441461008d578063257b3632146100a9578063319cf735146100c957806333d6247d146100d2575b600080fd5b61009660005481565b6040519081526020015b60405180910390f35b6100966100b7366004610393565b60026020526000908152604090205481565b61009660015481565b6100e56100e0366004610393565b61018c565b005b610096600154600080546040805160208101949094528301529060600160405160208183030381529060405280519060200120905090565b60045461013f9073ffffffffffffffffffffffffffffffffffffffff1681565b60405173ffffffffffffffffffffffffffffffffffffffff90911681526020016100a0565b60035461013f9073ffffffffffffffffffffffffffffffffffffffff1681565b610096610341565b60045473ffffffffffffffffffffffffffffffffffffffff163314806101c9575060035473ffffffffffffffffffffffffffffffffffffffff1633145b610259576040517f08c379a000000000000000000000000000000000000000000000000000000000815260206004820152603d60248201527f476c6f62616c45786974526f6f744d616e616765723a3a75706461746545786960448201527f74526f6f743a204f4e4c595f414c4c4f5745445f434f4e545241435453000000606482015260840160405180910390fd5b6000610263610341565b60045490915073ffffffffffffffffffffffffffffffffffffffff16330361028b5760008290555b60035473ffffffffffffffffffffffffffffffffffffffff1633036102b05760018290555b6102b9816103ac565b905080600260006102f8600154600080546040805160208101949094528301529060600160405160208183030381529060405280519060200120905090565b815260200190815260200160002081905550600054600154827fb7c409af8cb511116b88f38824d48a0196194596241fdb2d177210d3d3b89fbf60405160405180910390a45050565b60006002600061037f600154600080546040805160208101949094528301529060600160405160208183030381529060405280519060200120905090565b815260200190815260200160002054905090565b6000602082840312156103a557600080fd5b5035919050565b60007fffffffffffffffffffffffffffffffffffffffffffffffffffffffffffffffff8203610404577f4e487b7100000000000000000000000000000000000000000000000000000000600052601160045260246000fd5b506001019056fea26469706673582212205f4991794072063daa7524104b922048c48c310ba5a2234bc5b52d7da1c2d0dd64736f6c634300080f0033",
  "linkReferences": {},
  "deployedLinkReferences": {}
}