{
  "_format": "hh-sol-artifact-1",
  "contractName": "PolygonZkEVMGlobalExitRootV2",
  "sourceName": "contracts/v2/PolygonZkEVMGlobalExitRootV2.sol",
  "abi": [
    {
      "inputs": [
        {
          "internalType": "address",
          "name": "_rollupManager",
          "type": "address"
        },
        {
          "internalType": "address",
          "name": "_bridgeAddress",
          "type": "address"
        }
      ],
      "stateMutability": "nonpayable",
      "type": "constructor"
    },
    {
      "inputs": [],
      "name": "MerkleTreeFull",
      "type": "error"
    },
    {
      "inputs": [],
      "name": "OnlyAllowedContracts",
      "type": "error"
    },
    {
      "anonymous": false,
      "inputs": [
        {
          "indexed": false,
          "internalType": "uint8",
          "name": "version",
          "type": "uint8"
        }
      ],
      "name": "Initialized",
      "type": "event"
    },
    {
      "anonymous": false,
      "inputs": [
        {
          "indexed": true,
          "internalType": "bytes32",
          "name": "mainnetExitRoot",
          "type": "bytes32"
        },
        {
          "indexed": true,
          "internalType": "bytes32",
          "name": "rollupExitRoot",
          "type": "bytes32"
        }
      ],
      "name": "UpdateL1InfoTreeRecursive",
      "type": "event"
    },
    {
      "inputs": [],
      "name": "bridgeAddress",
      "outputs": [
        {
          "internalType": "address",
          "name": "",
          "type": "address"
        }
      ],
      "stateMutability": "view",
      "type": "function"
    },
    {
      "inputs": [
        {
          "internalType": "bytes32",
          "name": "leafHash",
          "type": "bytes32"
        },
        {
          "internalType": "bytes32[32]",
          "name": "smtProof",
          "type": "bytes32[32]"
        },
        {
          "internalType": "uint32",
          "name": "index",
          "type": "uint32"
        }
      ],
      "name": "calculateRoot",
      "outputs": [
        {
          "internalType": "bytes32",
          "name": "",
          "type": "bytes32"
        }
      ],
      "stateMutability": "pure",
      "type": "function"
    },
    {
      "inputs": [],
      "name": "depositCount",
      "outputs": [
        {
          "internalType": "uint256",
          "name": "",
          "type": "uint256"
        }
      ],
      "stateMutability": "view",
      "type": "function"
    },
    {
      "inputs": [
        {
          "internalType": "bytes32",
          "name": "newGlobalExitRoot",
          "type": "bytes32"
        },
        {
          "internalType": "uint256",
          "name": "lastBlockHash",
          "type": "uint256"
        },
        {
          "internalType": "uint64",
          "name": "timestamp",
          "type": "uint64"
        }
      ],
      "name": "getL1InfoTreeHash",
      "outputs": [
        {
          "internalType": "bytes32",
          "name": "",
          "type": "bytes32"
        }
      ],
      "stateMutability": "pure",
      "type": "function"
    },
    {
      "inputs": [],
      "name": "getLastGlobalExitRoot",
      "outputs": [
        {
          "internalType": "bytes32",
          "name": "",
          "type": "bytes32"
        }
      ],
      "stateMutability": "view",
      "type": "function"
    },
    {
      "inputs": [
        {
          "internalType": "bytes32",
          "name": "l1InfoRoot",
          "type": "bytes32"
        },
        {
          "internalType": "bytes32",
          "name": "l1InfoTreeHash",
          "type": "bytes32"
        }
      ],
      "name": "getLeafValue",
      "outputs": [
        {
          "internalType": "bytes32",
          "name": "",
          "type": "bytes32"
        }
      ],
      "stateMutability": "pure",
      "type": "function"
    },
    {
      "inputs": [],
      "name": "getRoot",
      "outputs": [
        {
          "internalType": "bytes32",
          "name": "",
          "type": "bytes32"
        }
      ],
      "stateMutability": "view",
      "type": "function"
    },
    {
      "inputs": [
        {
          "internalType": "bytes32",
          "name": "",
          "type": "bytes32"
        }
      ],
      "name": "globalExitRootMap",
      "outputs": [
        {
          "internalType": "uint256",
          "name": "",
          "type": "uint256"
        }
      ],
      "stateMutability": "view",
      "type": "function"
    },
    {
      "inputs": [],
      "name": "initialize",
      "outputs": [],
      "stateMutability": "nonpayable",
      "type": "function"
    },
    {
      "inputs": [
        {
          "internalType": "uint256",
          "name": "depositCount",
          "type": "uint256"
        }
      ],
      "name": "l1InfoLeafMap",
      "outputs": [
        {
          "internalType": "bytes32",
          "name": "l1InfoLeafHash",
          "type": "bytes32"
        }
      ],
      "stateMutability": "view",
      "type": "function"
    },
    {
      "inputs": [],
      "name": "lastMainnetExitRoot",
      "outputs": [
        {
          "internalType": "bytes32",
          "name": "",
          "type": "bytes32"
        }
      ],
      "stateMutability": "view",
      "type": "function"
    },
    {
      "inputs": [],
      "name": "lastRollupExitRoot",
      "outputs": [
        {
          "internalType": "bytes32",
          "name": "",
          "type": "bytes32"
        }
      ],
      "stateMutability": "view",
      "type": "function"
    },
    {
      "inputs": [],
      "name": "rollupManager",
      "outputs": [
        {
          "internalType": "address",
          "name": "",
          "type": "address"
        }
      ],
      "stateMutability": "view",
      "type": "function"
    },
    {
      "inputs": [
        {
          "internalType": "bytes32",
          "name": "newRoot",
          "type": "bytes32"
        }
      ],
      "name": "updateExitRoot",
      "outputs": [],
      "stateMutability": "nonpayable",
      "type": "function"
    },
    {
      "inputs": [
        {
          "internalType": "bytes32",
          "name": "leafHash",
          "type": "bytes32"
        },
        {
          "internalType": "bytes32[32]",
          "name": "smtProof",
          "type": "bytes32[32]"
        },
        {
          "internalType": "uint32",
          "name": "index",
          "type": "uint32"
        },
        {
          "internalType": "bytes32",
          "name": "root",
          "type": "bytes32"
        }
      ],
      "name": "verifyMerkleProof",
      "outputs": [
        {
          "internalType": "bool",
          "name": "",
          "type": "bool"
        }
      ],
      "stateMutability": "pure",
      "type": "function"
    }
  ],
  "bytecode": "0x60c060405234801561000f575f80fd5b50604051610e6e380380610e6e83398101604081905261002e91610060565b6001600160a01b0391821660a05216608052610091565b80516001600160a01b038116811461005b575f80fd5b919050565b5f8060408385031215610071575f80fd5b61007a83610045565b915061008860208401610045565b90509250929050565b60805160a051610dae6100c05f395f8181610181015261031501525f818161026b01526102c90152610dae5ff3fe608060405234801561000f575f80fd5b50600436106100f0575f3560e01c806349b7b802116100935780638129fc1c116100635780638129fc1c1461024b57806383f2440314610253578063a3c573eb14610266578063fb5708341461028d575f80fd5b806349b7b8021461017c5780635ca1e165146101c85780635e0bd481146101d057806365f438d0146101e3575f80fd5b80632dfdf0b5116100ce5780632dfdf0b51461014d578063319cf7351461015657806333d6247d1461015f5780633ed691ef14610174575f80fd5b806301fd9044146100f4578063257b36321461010f57806325eaabaf1461012e575b5f80fd5b6100fc5f5481565b6040519081526020015b60405180910390f35b6100fc61011d366004610a54565b60026020525f908152604090205481565b6100fc61013c366004610a54565b602f6020525f908152604090205481565b6100fc60235481565b6100fc60015481565b61017261016d366004610a54565b6102b0565b005b6100fc610474565b6101a37f000000000000000000000000000000000000000000000000000000000000000081565b60405173ffffffffffffffffffffffffffffffffffffffff9091168152602001610106565b6100fc610487565b6100fc6101de366004610a6b565b610490565b6100fc6101f1366004610a8b565b604080516020808201959095528082019390935260c09190911b7fffffffffffffffff0000000000000000000000000000000000000000000000001660608301528051604881840301815260689092019052805191012090565b6101726104bf565b6100fc610261366004610af6565b61076c565b6101a37f000000000000000000000000000000000000000000000000000000000000000081565b6102a061029b366004610b32565b610837565b6040519015158152602001610106565b5f8073ffffffffffffffffffffffffffffffffffffffff7f00000000000000000000000000000000000000000000000000000000000000001633036102fe57505060018190555f548161037d565b73ffffffffffffffffffffffffffffffffffffffff7f000000000000000000000000000000000000000000000000000000000000000016330361034b5750505f819055600154819061037d565b6040517fb49365dd00000000000000000000000000000000000000000000000000000000815260040160405180910390fd5b5f6103888284610490565b5f818152600260205260408120549192500361046e575f6103aa600143610ba4565b5f83815260026020908152604080832093409384905580518083018790528082018590527fffffffffffffffff0000000000000000000000000000000000000000000000004260c01b166060820152815180820360480181526068909101909152805191012091925090610421905b6101de610487565b6023545f908152602f60205260409020819055905061043f8161084e565b604051859085907f99d6f7ca42aad690b3768da4a5166fda058e4d023aea6eb922a08295c46360c4905f90a350505b50505050565b5f6104826001545f54610490565b905090565b5f610482610963565b604080516020808201859052818301849052825180830384018152606090920190925280519101205b92915050565b602e54610100900460ff16158080156104df5750602e54600160ff909116105b806104f95750303b1580156104f95750602e5460ff166001145b610589576040517f08c379a000000000000000000000000000000000000000000000000000000000815260206004820152602e60248201527f496e697469616c697a61626c653a20636f6e747261637420697320616c72656160448201527f647920696e697469616c697a6564000000000000000000000000000000000000606482015260840160405180910390fd5b602e80547fffffffffffffffffffffffffffffffffffffffffffffffffffffffffffffff0016600117905580156105e757602e80547fffffffffffffffffffffffffffffffffffffffffffffffffffffffffffff00ff166101001790555b602354156106fd575f5b6020811015610619576003816020811061060d5761060d610bb7565b5f9101556001016105f1565b505f6023819055610628610474565b90505f610636600143610ba4565b4090505f61069d610419848442604080516020808201959095528082019390935260c09190911b7fffffffffffffffff0000000000000000000000000000000000000000000000001660608301528051604881840301815260689092019052805191012090565b90506106a85f61084e565b6023545f908152602f602052604090208190556106c48161084e565b5f546001547f99d6f7ca42aad690b3768da4a5166fda058e4d023aea6eb922a08295c46360c460405160405180910390a3505050610706565b6107065f61084e565b801561076957602e80547fffffffffffffffffffffffffffffffffffffffffffffffffffffffffffff00ff169055604051600181527f7f26b83ff96e1f2b6a682f133852f6798a09c465da95921460cefb38474024989060200160405180910390a15b50565b5f83815b602081101561082e57600163ffffffff8516821c811690036107db5784816020811061079e5761079e610bb7565b6020020135826040516020016107be929190918252602082015260400190565b604051602081830303815290604052805190602001209150610826565b818582602081106107ee576107ee610bb7565b602002013560405160200161080d929190918252602082015260400190565b6040516020818303038152906040528051906020012091505b600101610770565b50949350505050565b5f8161084486868661076c565b1495945050505050565b80600161085d60206002610d02565b6108679190610ba4565b602354106108a1576040517fef5ccf6600000000000000000000000000000000000000000000000000000000815260040160405180910390fd5b5f60235f81546108b090610d14565b918290555090505f5b6020811015610955578082901c6001166001036108ec5782600382602081106108e4576108e4610bb7565b015550505050565b600381602081106108ff576108ff610bb7565b01546040805160208101929092528101849052606001604080517fffffffffffffffffffffffffffffffffffffffffffffffffffffffffffffffe0818403018152919052805160209091012092506001016108b9565b5061095e610d4b565b505050565b6023545f90819081805b6020811015610a4b578083901c6001166001036109ca576003816020811061099757610997610bb7565b015460408051602081019290925281018590526060016040516020818303038152906040528051906020012093506109f7565b60408051602081018690529081018390526060016040516020818303038152906040528051906020012093505b6040805160208101849052908101839052606001604080517fffffffffffffffffffffffffffffffffffffffffffffffffffffffffffffffe08184030181529190528051602090910120915060010161096d565b50919392505050565b5f60208284031215610a64575f80fd5b5035919050565b5f8060408385031215610a7c575f80fd5b50508035926020909101359150565b5f805f60608486031215610a9d575f80fd5b8335925060208401359150604084013567ffffffffffffffff81168114610ac2575f80fd5b809150509250925092565b8061040081018310156104b9575f80fd5b803563ffffffff81168114610af1575f80fd5b919050565b5f805f6104408486031215610b09575f80fd5b83359250610b1a8560208601610acd565b9150610b296104208501610ade565b90509250925092565b5f805f806104608587031215610b46575f80fd5b84359350610b578660208701610acd565b9250610b666104208601610ade565b939692955092936104400135925050565b7f4e487b71000000000000000000000000000000000000000000000000000000005f52601160045260245ffd5b818103818111156104b9576104b9610b77565b7f4e487b71000000000000000000000000000000000000000000000000000000005f52603260045260245ffd5b600181815b80851115610c3d57817fffffffffffffffffffffffffffffffffffffffffffffffffffffffffffffffff04821115610c2357610c23610b77565b80851615610c3057918102915b93841c9390800290610be9565b509250929050565b5f82610c53575060016104b9565b81610c5f57505f6104b9565b8160018114610c755760028114610c7f57610c9b565b60019150506104b9565b60ff841115610c9057610c90610b77565b50506001821b6104b9565b5060208310610133831016604e8410600b8410161715610cbe575081810a6104b9565b610cc88383610be4565b807fffffffffffffffffffffffffffffffffffffffffffffffffffffffffffffffff04821115610cfa57610cfa610b77565b029392505050565b5f610d0d8383610c45565b9392505050565b5f7fffffffffffffffffffffffffffffffffffffffffffffffffffffffffffffffff8203610d4457610d44610b77565b5060010190565b7f4e487b71000000000000000000000000000000000000000000000000000000005f52600160045260245ffdfea2646970667358221220871578336aa6be75bc24afcd4fe1fa219065615aec285b318915fb767e5e011c64736f6c63430008180033",
  "linkReferences": {},
  "deployedLinkReferences": {}
}