{
  "_format": "hh-sol-artifact-1",
  "contractName": "PolygonZkEVMBridgeV2",
  "sourceName": "contracts/v2/PolygonZkEVMBridgeV2.sol",
  "abi": [
    {
      "inputs": [],
      "stateMutability": "nonpayable",
      "type": "constructor"
    },
    {
      "inputs": [],
      "name": "AlreadyClaimed",
      "type": "error"
    },
    {
      "inputs": [],
      "name": "AmountDoesNotMatchMsgValue",
      "type": "error"
    },
    {
      "inputs": [],
      "name": "DestinationNetworkInvalid",
      "type": "error"
    },
    {
      "inputs": [],
      "name": "EtherTransferFailed",
      "type": "error"
    },
    {
      "inputs": [],
      "name": "FailedTokenWrappedDeployment",
      "type": "error"
    },
    {
      "inputs": [],
      "name": "GasTokenNetworkMustBeZeroOnEther",
      "type": "error"
    },
    {
      "inputs": [],
      "name": "GlobalExitRootInvalid",
      "type": "error"
    },
    {
      "inputs": [],
      "name": "InvalidSmtProof",
      "type": "error"
    },
    {
      "inputs": [],
      "name": "MerkleTreeFull",
      "type": "error"
    },
    {
      "inputs": [],
      "name": "MessageFailed",
      "type": "error"
    },
    {
      "inputs": [],
      "name": "MsgValueNotZero",
      "type": "error"
    },
    {
      "inputs": [],
      "name": "NativeTokenIsEther",
      "type": "error"
    },
    {
      "inputs": [],
      "name": "NoValueInMessagesOnGasTokenNetworks",
      "type": "error"
    },
    {
      "inputs": [],
      "name": "NotValidAmount",
      "type": "error"
    },
    {
      "inputs": [],
      "name": "NotValidOwner",
      "type": "error"
    },
    {
      "inputs": [],
      "name": "NotValidSignature",
      "type": "error"
    },
    {
      "inputs": [],
      "name": "NotValidSpender",
      "type": "error"
    },
    {
      "inputs": [],
      "name": "OnlyEmergencyState",
      "type": "error"
    },
    {
      "inputs": [],
      "name": "OnlyNotEmergencyState",
      "type": "error"
    },
    {
      "inputs": [],
      "name": "OnlyRollupManager",
      "type": "error"
    },
    {
      "anonymous": false,
      "inputs": [
        {
          "indexed": false,
          "internalType": "uint8",
          "name": "leafType",
          "type": "uint8"
        },
        {
          "indexed": false,
          "internalType": "uint32",
          "name": "originNetwork",
          "type": "uint32"
        },
        {
          "indexed": false,
          "internalType": "address",
          "name": "originAddress",
          "type": "address"
        },
        {
          "indexed": false,
          "internalType": "uint32",
          "name": "destinationNetwork",
          "type": "uint32"
        },
        {
          "indexed": false,
          "internalType": "address",
          "name": "destinationAddress",
          "type": "address"
        },
        {
          "indexed": false,
          "internalType": "uint256",
          "name": "amount",
          "type": "uint256"
        },
        {
          "indexed": false,
          "internalType": "bytes",
          "name": "metadata",
          "type": "bytes"
        },
        {
          "indexed": false,
          "internalType": "uint32",
          "name": "depositCount",
          "type": "uint32"
        }
      ],
      "name": "BridgeEvent",
      "type": "event"
    },
    {
      "anonymous": false,
      "inputs": [
        {
          "indexed": false,
          "internalType": "uint256",
          "name": "globalIndex",
          "type": "uint256"
        },
        {
          "indexed": false,
          "internalType": "uint32",
          "name": "originNetwork",
          "type": "uint32"
        },
        {
          "indexed": false,
          "internalType": "address",
          "name": "originAddress",
          "type": "address"
        },
        {
          "indexed": false,
          "internalType": "address",
          "name": "destinationAddress",
          "type": "address"
        },
        {
          "indexed": false,
          "internalType": "uint256",
          "name": "amount",
          "type": "uint256"
        }
      ],
      "name": "ClaimEvent",
      "type": "event"
    },
    {
      "anonymous": false,
      "inputs": [],
      "name": "EmergencyStateActivated",
      "type": "event"
    },
    {
      "anonymous": false,
      "inputs": [],
      "name": "EmergencyStateDeactivated",
      "type": "event"
    },
    {
      "anonymous": false,
      "inputs": [
        {
          "indexed": false,
          "internalType": "uint8",
          "name": "version",
          "type": "uint8"
        }
      ],
      "name": "Initialized",
      "type": "event"
    },
    {
      "anonymous": false,
      "inputs": [
        {
          "indexed": false,
          "internalType": "uint32",
          "name": "originNetwork",
          "type": "uint32"
        },
        {
          "indexed": false,
          "internalType": "address",
          "name": "originTokenAddress",
          "type": "address"
        },
        {
          "indexed": false,
          "internalType": "address",
          "name": "wrappedTokenAddress",
          "type": "address"
        },
        {
          "indexed": false,
          "internalType": "bytes",
          "name": "metadata",
          "type": "bytes"
        }
      ],
      "name": "NewWrappedToken",
      "type": "event"
    },
    {
      "inputs": [],
      "name": "BASE_INIT_BYTECODE_WRAPPED_TOKEN",
      "outputs": [
        {
          "internalType": "bytes",
          "name": "",
          "type": "bytes"
        }
      ],
      "stateMutability": "view",
      "type": "function"
    },
    {
      "inputs": [],
      "name": "WETHToken",
      "outputs": [
        {
          "internalType": "contract TokenWrapped",
          "name": "",
          "type": "address"
        }
      ],
      "stateMutability": "view",
      "type": "function"
    },
    {
      "inputs": [],
      "name": "activateEmergencyState",
      "outputs": [],
      "stateMutability": "nonpayable",
      "type": "function"
    },
    {
      "inputs": [
        {
          "internalType": "uint32",
          "name": "destinationNetwork",
          "type": "uint32"
        },
        {
          "internalType": "address",
          "name": "destinationAddress",
          "type": "address"
        },
        {
          "internalType": "uint256",
          "name": "amount",
          "type": "uint256"
        },
        {
          "internalType": "address",
          "name": "token",
          "type": "address"
        },
        {
          "internalType": "bool",
          "name": "forceUpdateGlobalExitRoot",
          "type": "bool"
        },
        {
          "internalType": "bytes",
          "name": "permitData",
          "type": "bytes"
        }
      ],
      "name": "bridgeAsset",
      "outputs": [],
      "stateMutability": "payable",
      "type": "function"
    },
    {
      "inputs": [
        {
          "internalType": "uint32",
          "name": "destinationNetwork",
          "type": "uint32"
        },
        {
          "internalType": "address",
          "name": "destinationAddress",
          "type": "address"
        },
        {
          "internalType": "bool",
          "name": "forceUpdateGlobalExitRoot",
          "type": "bool"
        },
        {
          "internalType": "bytes",
          "name": "metadata",
          "type": "bytes"
        }
      ],
      "name": "bridgeMessage",
      "outputs": [],
      "stateMutability": "payable",
      "type": "function"
    },
    {
      "inputs": [
        {
          "internalType": "uint32",
          "name": "destinationNetwork",
          "type": "uint32"
        },
        {
          "internalType": "address",
          "name": "destinationAddress",
          "type": "address"
        },
        {
          "internalType": "uint256",
          "name": "amountWETH",
          "type": "uint256"
        },
        {
          "internalType": "bool",
          "name": "forceUpdateGlobalExitRoot",
          "type": "bool"
        },
        {
          "internalType": "bytes",
          "name": "metadata",
          "type": "bytes"
        }
      ],
      "name": "bridgeMessageWETH",
      "outputs": [],
      "stateMutability": "nonpayable",
      "type": "function"
    },
    {
      "inputs": [
        {
          "internalType": "bytes32",
          "name": "leafHash",
          "type": "bytes32"
        },
        {
          "internalType": "bytes32[32]",
          "name": "smtProof",
          "type": "bytes32[32]"
        },
        {
          "internalType": "uint32",
          "name": "index",
          "type": "uint32"
        }
      ],
      "name": "calculateRoot",
      "outputs": [
        {
          "internalType": "bytes32",
          "name": "",
          "type": "bytes32"
        }
      ],
      "stateMutability": "pure",
      "type": "function"
    },
    {
      "inputs": [
        {
          "internalType": "uint32",
          "name": "originNetwork",
          "type": "uint32"
        },
        {
          "internalType": "address",
          "name": "originTokenAddress",
          "type": "address"
        },
        {
          "internalType": "address",
          "name": "token",
          "type": "address"
        }
      ],
      "name": "calculateTokenWrapperAddress",
      "outputs": [
        {
          "internalType": "address",
          "name": "",
          "type": "address"
        }
      ],
      "stateMutability": "view",
      "type": "function"
    },
    {
      "inputs": [
        {
          "internalType": "bytes32[32]",
          "name": "smtProofLocalExitRoot",
          "type": "bytes32[32]"
        },
        {
          "internalType": "bytes32[32]",
          "name": "smtProofRollupExitRoot",
          "type": "bytes32[32]"
        },
        {
          "internalType": "uint256",
          "name": "globalIndex",
          "type": "uint256"
        },
        {
          "internalType": "bytes32",
          "name": "mainnetExitRoot",
          "type": "bytes32"
        },
        {
          "internalType": "bytes32",
          "name": "rollupExitRoot",
          "type": "bytes32"
        },
        {
          "internalType": "uint32",
          "name": "originNetwork",
          "type": "uint32"
        },
        {
          "internalType": "address",
          "name": "originTokenAddress",
          "type": "address"
        },
        {
          "internalType": "uint32",
          "name": "destinationNetwork",
          "type": "uint32"
        },
        {
          "internalType": "address",
          "name": "destinationAddress",
          "type": "address"
        },
        {
          "internalType": "uint256",
          "name": "amount",
          "type": "uint256"
        },
        {
          "internalType": "bytes",
          "name": "metadata",
          "type": "bytes"
        }
      ],
      "name": "claimAsset",
      "outputs": [],
      "stateMutability": "nonpayable",
      "type": "function"
    },
    {
      "inputs": [
        {
          "internalType": "bytes32[32]",
          "name": "smtProofLocalExitRoot",
          "type": "bytes32[32]"
        },
        {
          "internalType": "bytes32[32]",
          "name": "smtProofRollupExitRoot",
          "type": "bytes32[32]"
        },
        {
          "internalType": "uint256",
          "name": "globalIndex",
          "type": "uint256"
        },
        {
          "internalType": "bytes32",
          "name": "mainnetExitRoot",
          "type": "bytes32"
        },
        {
          "internalType": "bytes32",
          "name": "rollupExitRoot",
          "type": "bytes32"
        },
        {
          "internalType": "uint32",
          "name": "originNetwork",
          "type": "uint32"
        },
        {
          "internalType": "address",
          "name": "originAddress",
          "type": "address"
        },
        {
          "internalType": "uint32",
          "name": "destinationNetwork",
          "type": "uint32"
        },
        {
          "internalType": "address",
          "name": "destinationAddress",
          "type": "address"
        },
        {
          "internalType": "uint256",
          "name": "amount",
          "type": "uint256"
        },
        {
          "internalType": "bytes",
          "name": "metadata",
          "type": "bytes"
        }
      ],
      "name": "claimMessage",
      "outputs": [],
      "stateMutability": "nonpayable",
      "type": "function"
    },
    {
      "inputs": [
        {
          "internalType": "uint256",
          "name": "",
          "type": "uint256"
        }
      ],
      "name": "claimedBitMap",
      "outputs": [
        {
          "internalType": "uint256",
          "name": "",
          "type": "uint256"
        }
      ],
      "stateMutability": "view",
      "type": "function"
    },
    {
      "inputs": [],
      "name": "deactivateEmergencyState",
      "outputs": [],
      "stateMutability": "nonpayable",
      "type": "function"
    },
    {
      "inputs": [],
      "name": "depositCount",
      "outputs": [
        {
          "internalType": "uint256",
          "name": "",
          "type": "uint256"
        }
      ],
      "stateMutability": "view",
      "type": "function"
    },
    {
      "inputs": [],
      "name": "gasTokenAddress",
      "outputs": [
        {
          "internalType": "address",
          "name": "",
          "type": "address"
        }
      ],
      "stateMutability": "view",
      "type": "function"
    },
    {
      "inputs": [],
      "name": "gasTokenMetadata",
      "outputs": [
        {
          "internalType": "bytes",
          "name": "",
          "type": "bytes"
        }
      ],
      "stateMutability": "view",
      "type": "function"
    },
    {
      "inputs": [],
      "name": "gasTokenNetwork",
      "outputs": [
        {
          "internalType": "uint32",
          "name": "",
          "type": "uint32"
        }
      ],
      "stateMutability": "view",
      "type": "function"
    },
    {
      "inputs": [
        {
          "internalType": "uint8",
          "name": "leafType",
          "type": "uint8"
        },
        {
          "internalType": "uint32",
          "name": "originNetwork",
          "type": "uint32"
        },
        {
          "internalType": "address",
          "name": "originAddress",
          "type": "address"
        },
        {
          "internalType": "uint32",
          "name": "destinationNetwork",
          "type": "uint32"
        },
        {
          "internalType": "address",
          "name": "destinationAddress",
          "type": "address"
        },
        {
          "internalType": "uint256",
          "name": "amount",
          "type": "uint256"
        },
        {
          "internalType": "bytes32",
          "name": "metadataHash",
          "type": "bytes32"
        }
      ],
      "name": "getLeafValue",
      "outputs": [
        {
          "internalType": "bytes32",
          "name": "",
          "type": "bytes32"
        }
      ],
      "stateMutability": "pure",
      "type": "function"
    },
    {
      "inputs": [],
      "name": "getRoot",
      "outputs": [
        {
          "internalType": "bytes32",
          "name": "",
          "type": "bytes32"
        }
      ],
      "stateMutability": "view",
      "type": "function"
    },
    {
      "inputs": [
        {
          "internalType": "address",
          "name": "token",
          "type": "address"
        }
      ],
      "name": "getTokenMetadata",
      "outputs": [
        {
          "internalType": "bytes",
          "name": "",
          "type": "bytes"
        }
      ],
      "stateMutability": "view",
      "type": "function"
    },
    {
      "inputs": [
        {
          "internalType": "uint32",
          "name": "originNetwork",
          "type": "uint32"
        },
        {
          "internalType": "address",
          "name": "originTokenAddress",
          "type": "address"
        }
      ],
      "name": "getTokenWrappedAddress",
      "outputs": [
        {
          "internalType": "address",
          "name": "",
          "type": "address"
        }
      ],
      "stateMutability": "view",
      "type": "function"
    },
    {
      "inputs": [],
      "name": "globalExitRootManager",
      "outputs": [
        {
          "internalType": "contract IBasePolygonZkEVMGlobalExitRoot",
          "name": "",
          "type": "address"
        }
      ],
      "stateMutability": "view",
      "type": "function"
    },
    {
      "inputs": [
        {
          "internalType": "uint32",
          "name": "_networkID",
          "type": "uint32"
        },
        {
          "internalType": "address",
          "name": "_gasTokenAddress",
          "type": "address"
        },
        {
          "internalType": "uint32",
          "name": "_gasTokenNetwork",
          "type": "uint32"
        },
        {
          "internalType": "contract IBasePolygonZkEVMGlobalExitRoot",
          "name": "_globalExitRootManager",
          "type": "address"
        },
        {
          "internalType": "address",
          "name": "_polygonRollupManager",
          "type": "address"
        },
        {
          "internalType": "bytes",
          "name": "_gasTokenMetadata",
          "type": "bytes"
        }
      ],
      "name": "initialize",
      "outputs": [],
      "stateMutability": "nonpayable",
      "type": "function"
    },
    {
      "inputs": [
        {
          "internalType": "uint32",
          "name": "leafIndex",
          "type": "uint32"
        },
        {
          "internalType": "uint32",
          "name": "sourceBridgeNetwork",
          "type": "uint32"
        }
      ],
      "name": "isClaimed",
      "outputs": [
        {
          "internalType": "bool",
          "name": "",
          "type": "bool"
        }
      ],
      "stateMutability": "view",
      "type": "function"
    },
    {
      "inputs": [],
      "name": "isEmergencyState",
      "outputs": [
        {
          "internalType": "bool",
          "name": "",
          "type": "bool"
        }
      ],
      "stateMutability": "view",
      "type": "function"
    },
    {
      "inputs": [],
      "name": "lastUpdatedDepositCount",
      "outputs": [
        {
          "internalType": "uint32",
          "name": "",
          "type": "uint32"
        }
      ],
      "stateMutability": "view",
      "type": "function"
    },
    {
      "inputs": [],
      "name": "networkID",
      "outputs": [
        {
          "internalType": "uint32",
          "name": "",
          "type": "uint32"
        }
      ],
      "stateMutability": "view",
      "type": "function"
    },
    {
      "inputs": [],
      "name": "polygonRollupManager",
      "outputs": [
        {
          "internalType": "address",
          "name": "",
          "type": "address"
        }
      ],
      "stateMutability": "view",
      "type": "function"
    },
    {
      "inputs": [
        {
          "internalType": "uint32",
          "name": "originNetwork",
          "type": "uint32"
        },
        {
          "internalType": "address",
          "name": "originTokenAddress",
          "type": "address"
        },
        {
          "internalType": "string",
          "name": "name",
          "type": "string"
        },
        {
          "internalType": "string",
          "name": "symbol",
          "type": "string"
        },
        {
          "internalType": "uint8",
          "name": "decimals",
          "type": "uint8"
        }
      ],
      "name": "precalculatedWrapperAddress",
      "outputs": [
        {
          "internalType": "address",
          "name": "",
          "type": "address"
        }
      ],
      "stateMutability": "view",
      "type": "function"
    },
    {
      "inputs": [
        {
          "internalType": "bytes32",
          "name": "",
          "type": "bytes32"
        }
      ],
      "name": "tokenInfoToWrappedToken",
      "outputs": [
        {
          "internalType": "address",
          "name": "",
          "type": "address"
        }
      ],
      "stateMutability": "view",
      "type": "function"
    },
    {
      "inputs": [],
      "name": "updateGlobalExitRoot",
      "outputs": [],
      "stateMutability": "nonpayable",
      "type": "function"
    },
    {
      "inputs": [
        {
          "internalType": "bytes32",
          "name": "leafHash",
          "type": "bytes32"
        },
        {
          "internalType": "bytes32[32]",
          "name": "smtProof",
          "type": "bytes32[32]"
        },
        {
          "internalType": "uint32",
          "name": "index",
          "type": "uint32"
        },
        {
          "internalType": "bytes32",
          "name": "root",
          "type": "bytes32"
        }
      ],
      "name": "verifyMerkleProof",
      "outputs": [
        {
          "internalType": "bool",
          "name": "",
          "type": "bool"
        }
      ],
      "stateMutability": "pure",
      "type": "function"
    },
    {
      "inputs": [
        {
          "internalType": "address",
          "name": "",
          "type": "address"
        }
      ],
      "name": "wrappedTokenToTokenInfo",
      "outputs": [
        {
          "internalType": "uint32",
          "name": "originNetwork",
          "type": "uint32"
        },
        {
          "internalType": "address",
          "name": "originTokenAddress",
          "type": "address"
        }
      ],
      "stateMutability": "view",
      "type": "function"
    }
  ],
  "bytecode": "0x608060405234801562000010575f80fd5b506200001b62000021565b620000e0565b5f54610100900460ff16156200008d5760405162461bcd60e51b815260206004820152602760248201527f496e697469616c697a61626c653a20636f6e747261637420697320696e697469604482015266616c697a696e6760c81b606482015260840160405180910390fd5b5f5460ff9081161015620000de575f805460ff191660ff9081179091556040519081527f7f26b83ff96e1f2b6a682f133852f6798a09c465da95921460cefb38474024989060200160405180910390a15b565b61591b80620000ee5f395ff3fe6080604052600436106101db575f3560e01c806383f24403116100fd578063ccaa2d1111610092578063ee25560b11610062578063ee25560b146105a9578063f5efcd79146105d4578063f811bff7146105f3578063fb57083414610612575f80fd5b8063ccaa2d111461053b578063cd5865791461055a578063d02103ca1461056d578063dbc1697614610595575f80fd5b8063bab161bf116100cd578063bab161bf146104b9578063be5831c7146104da578063c00f14ab146104fd578063cc4616321461051c575f80fd5b806383f244031461043d5780638ed7e3f21461045c578063aaa13cc21461047b578063b8b284d01461049a575f80fd5b80633cbc795b116101735780637843298b116101435780637843298b146103c257806379e2cf97146103e157806381b1c174146103f557806383c43a5514610429575f80fd5b80633cbc795b146103385780633e197043146103705780634b2f336d1461038f5780635ca1e165146103ae575f80fd5b806327aef4e8116101ae57806327aef4e81461026d5780632dfdf0b51461028e578063318aee3d146102b15780633c351e1014610319575f80fd5b806315064c96146101df5780632072f6c51461020d57806322e95f2c14610223578063240ff3781461025a575b5f80fd5b3480156101ea575f80fd5b506068546101f89060ff1681565b60405190151581526020015b60405180910390f35b348015610218575f80fd5b50610221610631565b005b34801561022e575f80fd5b5061024261023d366004612fb9565b610666565b6040516001600160a01b039091168152602001610204565b610221610268366004613040565b6106d0565b348015610278575f80fd5b50610281610759565b6040516102049190613102565b348015610299575f80fd5b506102a360535481565b604051908152602001610204565b3480156102bc575f80fd5b506102f56102cb36600461311b565b606b6020525f908152604090205463ffffffff81169064010000000090046001600160a01b031682565b6040805163ffffffff90931683526001600160a01b03909116602083015201610204565b348015610324575f80fd5b50606d54610242906001600160a01b031681565b348015610343575f80fd5b50606d5461035b90600160a01b900463ffffffff1681565b60405163ffffffff9091168152602001610204565b34801561037b575f80fd5b506102a361038a366004613144565b6107e5565b34801561039a575f80fd5b50606f54610242906001600160a01b031681565b3480156103b9575f80fd5b506102a361088e565b3480156103cd575f80fd5b506102426103dc3660046131be565b61096a565b3480156103ec575f80fd5b50610221610993565b348015610400575f80fd5b5061024261040f366004613204565b606a6020525f90815260409020546001600160a01b031681565b348015610434575f80fd5b506102816109b4565b348015610448575f80fd5b506102a361045736600461322c565b6109d3565b348015610467575f80fd5b50606c54610242906001600160a01b031681565b348015610486575f80fd5b5061024261049536600461332d565b610aa8565b3480156104a5575f80fd5b506102216104b43660046133c3565b610be7565b3480156104c4575f80fd5b5060685461035b90610100900463ffffffff1681565b3480156104e5575f80fd5b5060685461035b90600160c81b900463ffffffff1681565b348015610508575f80fd5b5061028161051736600461311b565b610cc2565b348015610527575f80fd5b506101f8610536366004613441565b610d07565b348015610546575f80fd5b50610221610555366004613472565b610d8f565b610221610568366004613556565b6112c0565b348015610578575f80fd5b50606854610242906501000000000090046001600160a01b031681565b3480156105a0575f80fd5b5061022161172c565b3480156105b4575f80fd5b506102a36105c3366004613204565b60696020525f908152604090205481565b3480156105df575f80fd5b506102216105ee366004613472565b61175f565b3480156105fe575f80fd5b5061022161060d3660046135e6565b611a25565b34801561061d575f80fd5b506101f861062c366004613689565b611d40565b606c546001600160a01b0316331461065c57604051631736745960e31b815260040160405180910390fd5b610664611d57565b565b6040805160e084901b6001600160e01b031916602080830191909152606084901b6bffffffffffffffffffffffff1916602483015282516018818403018152603890920183528151918101919091205f908152606a90915220546001600160a01b03165b92915050565b60685460ff16156106f457604051630bc011ff60e21b815260040160405180910390fd5b341580159061070d5750606f546001600160a01b031615155b15610744576040517f6f625c4000000000000000000000000000000000000000000000000000000000815260040160405180910390fd5b610752858534868686611db2565b5050505050565b606e8054610766906136ce565b80601f0160208091040260200160405190810160405280929190818152602001828054610792906136ce565b80156107dd5780601f106107b4576101008083540402835291602001916107dd565b820191905f5260205f20905b8154815290600101906020018083116107c057829003601f168201915b505050505081565b6040517fff0000000000000000000000000000000000000000000000000000000000000060f889901b1660208201526001600160e01b031960e088811b821660218401526bffffffffffffffffffffffff19606089811b821660258601529188901b909216603984015285901b16603d82015260518101839052607181018290525f90609101604051602081830303815290604052805190602001209050979650505050505050565b6053545f90819081805b6020811015610961578083901c6001166001036108f557603381602081106108c2576108c2613706565b01546040805160208101929092528101859052606001604051602081830303815290604052805190602001209350610922565b60408051602081018690529081018390526060016040516020818303038152906040528051906020012093505b604080516020810184905290810183905260600160405160208183030381529060405280519060200120915080806109599061372e565b915050610898565b50919392505050565b5f61098b848461097985611e7c565b61098286611f66565b61049587612047565b949350505050565b605354606854600160c81b900463ffffffff16101561066457610664612114565b60405180611ba00160405280611b668152602001613d80611b66913981565b5f83815b6020811015610a9f57600163ffffffff8516821c81169003610a4257848160208110610a0557610a05613706565b602002013582604051602001610a25929190918252602082015260400190565b604051602081830303815290604052805190602001209150610a8d565b81858260208110610a5557610a55613706565b6020020135604051602001610a74929190918252602082015260400190565b6040516020818303038152906040528051906020012091505b80610a978161372e565b9150506109d7565b50949350505050565b6040516001600160e01b031960e087901b1660208201526bffffffffffffffffffffffff19606086901b1660248201525f9081906038016040516020818303038152906040528051906020012090505f60ff60f81b308360405180611ba00160405280611b668152602001613d80611b669139898989604051602001610b3093929190613746565b60408051601f1981840301815290829052610b4e929160200161377e565b60405160208183030381529060405280519060200120604051602001610bc394939291907fff0000000000000000000000000000000000000000000000000000000000000094909416845260609290921b6bffffffffffffffffffffffff191660018401526015830152603582015260550190565b60408051808303601f19018152919052805160209091012098975050505050505050565b60685460ff1615610c0b57604051630bc011ff60e21b815260040160405180910390fd5b606f546001600160a01b0316610c4d576040517fdde3cda700000000000000000000000000000000000000000000000000000000815260040160405180910390fd5b606f54604051632770a7eb60e21b8152336004820152602481018690526001600160a01b0390911690639dc29fac906044015f604051808303815f87803b158015610c96575f80fd5b505af1158015610ca8573d5f803e3d5ffd5b50505050610cba868686868686611db2565b505050505050565b6060610ccd82611e7c565b610cd683611f66565b610cdf84612047565b604051602001610cf193929190613746565b6040516020818303038152906040529050919050565b6068545f908190610100900463ffffffff16158015610d2c575063ffffffff83166001145b15610d3e575063ffffffff8316610d66565b610d5364010000000063ffffffff85166137ac565b610d639063ffffffff86166137c3565b90505b600881901c5f90815260696020526040902054600160ff9092169190911b908116149392505050565b60685460ff1615610db357604051630bc011ff60e21b815260040160405180910390fd5b60685463ffffffff8681166101009092041614610de3576040516302caf51760e11b815260040160405180910390fd5b610e168c8c8c8c8c610e115f8e8e8e8e8e8e8e604051610e049291906137d6565b60405180910390206107e5565b6121c2565b6001600160a01b038616610f6057606f546001600160a01b0316610efa575f6001600160a01b03851684825b6040519080825280601f01601f191660200182016040528015610e6c576020820181803683370190505b50604051610e7a91906137e5565b5f6040518083038185875af1925050503d805f8114610eb4576040519150601f19603f3d011682016040523d82523d5f602084013e610eb9565b606091505b5050905080610ef4576040517f6747a28800000000000000000000000000000000000000000000000000000000815260040160405180910390fd5b50611256565b606f546040516340c10f1960e01b81526001600160a01b03868116600483015260248201869052909116906340c10f19906044015f604051808303815f87803b158015610f45575f80fd5b505af1158015610f57573d5f803e3d5ffd5b50505050611256565b606d546001600160a01b038781169116148015610f8e5750606d5463ffffffff888116600160a01b90920416145b15610fa5575f6001600160a01b0385168482610e42565b60685463ffffffff610100909104811690881603610fd657610fd16001600160a01b0387168585612354565b611256565b6040516001600160e01b031960e089901b1660208201526bffffffffffffffffffffffff19606088901b1660248201525f9060380160408051601f1981840301815291815281516020928301205f818152606a9093529120549091506001600160a01b0316806111f5575f6110808386868080601f0160208091040260200160405190810160405280939291908181526020018383808284375f920191909152506123d592505050565b6040516340c10f1960e01b81526001600160a01b03898116600483015260248201899052919250908216906340c10f19906044015f604051808303815f87803b1580156110cb575f80fd5b505af11580156110dd573d5f803e3d5ffd5b5050505080606a5f8581526020019081526020015f205f6101000a8154816001600160a01b0302191690836001600160a01b0316021790555060405180604001604052808b63ffffffff1681526020018a6001600160a01b0316815250606b5f836001600160a01b03166001600160a01b031681526020019081526020015f205f820151815f015f6101000a81548163ffffffff021916908363ffffffff1602179055506020820151815f0160046101000a8154816001600160a01b0302191690836001600160a01b031602179055509050507f490e59a1701b938786ac72570a1efeac994a3dbe96e2e883e19e902ace6e6a398a8a8388886040516111e7959493929190613828565b60405180910390a150611253565b6040516340c10f1960e01b81526001600160a01b038781166004830152602482018790528216906340c10f19906044015f604051808303815f87803b15801561123c575f80fd5b505af115801561124e573d5f803e3d5ffd5b505050505b50505b604080518b815263ffffffff891660208201526001600160a01b0388811682840152861660608201526080810185905290517f1df3f2a973a00d6635911755c260704e95e8a5876997546798770f76396fda4d9181900360a00190a1505050505050505050505050565b60685460ff16156112e457604051630bc011ff60e21b815260040160405180910390fd5b6112ec612468565b60685463ffffffff61010090910481169088160361131d576040516302caf51760e11b815260040160405180910390fd5b5f806060876001600160a01b03881661141957883414611369576040517fb89240f500000000000000000000000000000000000000000000000000000000815260040160405180910390fd5b606d54606e80546001600160a01b0383169650600160a01b90920463ffffffff16945090611396906136ce565b80601f01602080910402602001604051908101604052809291908181526020018280546113c2906136ce565b801561140d5780601f106113e45761010080835404028352916020019161140d565b820191905f5260205f20905b8154815290600101906020018083116113f057829003601f168201915b505050505091506116a3565b3415611451576040517f798ee6f100000000000000000000000000000000000000000000000000000000815260040160405180910390fd5b606f546001600160a01b03908116908916036114c757604051632770a7eb60e21b8152336004820152602481018a90526001600160a01b03891690639dc29fac906044015f604051808303815f87803b1580156114ac575f80fd5b505af11580156114be573d5f803e3d5ffd5b505050506116a3565b6001600160a01b038089165f908152606b602090815260409182902082518084019093525463ffffffff811683526401000000009004909216918101829052901561157957604051632770a7eb60e21b8152336004820152602481018b90526001600160a01b038a1690639dc29fac906044015f604051808303815f87803b158015611551575f80fd5b505af1158015611563573d5f803e3d5ffd5b5050505080602001519450805f01519350611696565b851561158b5761158b898b89896124c1565b6040516370a0823160e01b81523060048201525f906001600160a01b038b16906370a0823190602401602060405180830381865afa1580156115cf573d5f803e3d5ffd5b505050506040513d601f19601f820116820180604052508101906115f39190613860565b905061160a6001600160a01b038b1633308e612860565b6040516370a0823160e01b81523060048201525f906001600160a01b038c16906370a0823190602401602060405180830381865afa15801561164e573d5f803e3d5ffd5b505050506040513d601f19601f820116820180604052508101906116729190613860565b905061167e8282613877565b6068548c9850610100900463ffffffff169650935050505b61169f89610cc2565b9250505b7f501781209a1f8899323b96b4ef08b168df93e0a90c673d1e4cce39366cb62f9b5f84868e8e86886053546040516116e298979695949392919061388a565b60405180910390a16117086117035f85878f8f8789805190602001206107e5565b6128b1565b861561171657611716612114565b5050505061172360018055565b50505050505050565b606c546001600160a01b0316331461175757604051631736745960e31b815260040160405180910390fd5b6106646129b2565b60685460ff161561178357604051630bc011ff60e21b815260040160405180910390fd5b60685463ffffffff86811661010090920416146117b3576040516302caf51760e11b815260040160405180910390fd5b6117d58c8c8c8c8c610e1160018e8e8e8e8e8e8e604051610e049291906137d6565b606f545f906001600160a01b031661188857846001600160a01b031684888a868660405160240161180994939291906138f3565b60408051601f198184030181529181526020820180516001600160e01b0316630c035af960e11b1790525161183e91906137e5565b5f6040518083038185875af1925050503d805f8114611878576040519150601f19603f3d011682016040523d82523d5f602084013e61187d565b606091505b505080915050611983565b606f546040516340c10f1960e01b81526001600160a01b03878116600483015260248201879052909116906340c10f19906044015f604051808303815f87803b1580156118d3575f80fd5b505af11580156118e5573d5f803e3d5ffd5b50505050846001600160a01b03168789858560405160240161190a94939291906138f3565b60408051601f198184030181529181526020820180516001600160e01b0316630c035af960e11b1790525161193f91906137e5565b5f604051808303815f865af19150503d805f8114611978576040519150601f19603f3d011682016040523d82523d5f602084013e61197d565b606091505b50909150505b806119ba576040517f37e391c300000000000000000000000000000000000000000000000000000000815260040160405180910390fd5b604080518c815263ffffffff8a1660208201526001600160a01b0389811682840152871660608201526080810186905290517f1df3f2a973a00d6635911755c260704e95e8a5876997546798770f76396fda4d9181900360a00190a150505050505050505050505050565b5f54610100900460ff1615808015611a4357505f54600160ff909116105b80611a5c5750303b158015611a5c57505f5460ff166001145b611ad35760405162461bcd60e51b815260206004820152602e60248201527f496e697469616c697a61626c653a20636f6e747261637420697320616c72656160448201527f647920696e697469616c697a656400000000000000000000000000000000000060648201526084015b60405180910390fd5b5f805460ff191660011790558015611af4575f805461ff0019166101001790555b606880547fffffffffffffff000000000000000000000000000000000000000000000000ff1661010063ffffffff8a16027fffffffffffffff0000000000000000000000000000000000000000ffffffffff1617650100000000006001600160a01b038781169190910291909117909155606c805473ffffffffffffffffffffffffffffffffffffffff19168583161790558616611bcf5763ffffffff851615611bca576040517f1a874c1200000000000000000000000000000000000000000000000000000000815260040160405180910390fd5b611ceb565b606d805463ffffffff8716600160a01b027fffffffffffffffff0000000000000000000000000000000000000000000000009091166001600160a01b03891617179055606e611c1e8382613970565b50611cbd5f801b6012604051602001611ca991906060808252600d908201527f5772617070656420457468657200000000000000000000000000000000000000608082015260a0602082018190526004908201527f574554480000000000000000000000000000000000000000000000000000000060c082015260ff91909116604082015260e00190565b6040516020818303038152906040526123d5565b606f805473ffffffffffffffffffffffffffffffffffffffff19166001600160a01b03929092169190911790555b611cf3612a22565b8015611723575f805461ff0019169055604051600181527f7f26b83ff96e1f2b6a682f133852f6798a09c465da95921460cefb38474024989060200160405180910390a150505050505050565b5f81611d4d8686866109d3565b1495945050505050565b60685460ff1615611d7b57604051630bc011ff60e21b815260040160405180910390fd5b6068805460ff191660011790556040517f2261efe5aef6fedc1fd1550b25facc9181745623049c7901287030b9ad1a5497905f90a1565b60685463ffffffff610100909104811690871603611de3576040516302caf51760e11b815260040160405180910390fd5b7f501781209a1f8899323b96b4ef08b168df93e0a90c673d1e4cce39366cb62f9b6001606860019054906101000a900463ffffffff16338989898888605354604051611e3799989796959493929190613a2c565b60405180910390a1611e6e6117036001606860019054906101000a900463ffffffff16338a8a8a8989604051610e049291906137d6565b8215610cba57610cba612114565b60408051600481526024810182526020810180516001600160e01b03167f06fdde030000000000000000000000000000000000000000000000000000000017905290516060915f9182916001600160a01b03861691611edb91906137e5565b5f60405180830381855afa9150503d805f8114611f13576040519150601f19603f3d011682016040523d82523d5f602084013e611f18565b606091505b509150915081611f5d576040518060400160405280600781526020017f4e4f5f4e414d450000000000000000000000000000000000000000000000000081525061098b565b61098b81612a94565b60408051600481526024810182526020810180516001600160e01b03167f95d89b410000000000000000000000000000000000000000000000000000000017905290516060915f9182916001600160a01b03861691611fc591906137e5565b5f60405180830381855afa9150503d805f8114611ffd576040519150601f19603f3d011682016040523d82523d5f602084013e612002565b606091505b509150915081611f5d576040518060400160405280600981526020017f4e4f5f53594d424f4c000000000000000000000000000000000000000000000081525061098b565b60408051600481526024810182526020810180516001600160e01b03167f313ce5670000000000000000000000000000000000000000000000000000000017905290515f91829182916001600160a01b038616916120a591906137e5565b5f60405180830381855afa9150503d805f81146120dd576040519150601f19603f3d011682016040523d82523d5f602084013e6120e2565b606091505b50915091508180156120f5575080516020145b61210057601261098b565b8080602001905181019061098b9190613a97565b6053546068805463ffffffff909216600160c81b027fffffff00000000ffffffffffffffffffffffffffffffffffffffffffffffffff90921691909117908190556001600160a01b0365010000000000909104166333d6247d61217561088e565b6040518263ffffffff1660e01b815260040161219391815260200190565b5f604051808303815f87803b1580156121aa575f80fd5b505af11580156121bc573d5f803e3d5ffd5b50505050565b606854604080516020808201879052818301869052825180830384018152606083019384905280519101207f257b36320000000000000000000000000000000000000000000000000000000090925260648101919091525f916501000000000090046001600160a01b03169063257b3632906084016020604051808303815f875af1158015612253573d5f803e3d5ffd5b505050506040513d601f19601f820116820180604052508101906122779190613860565b9050805f036122b1576040517e2f6fad00000000000000000000000000000000000000000000000000000000815260040160405180910390fd5b5f80680100000000000000008716156122f5578691506122d3848a8489611d40565b6122f0576040516338105f3b60e21b815260040160405180910390fd5b61233f565b602087901c612305816001613ab2565b9150879250612320612318868c866109d3565b8a8389611d40565b61233d576040516338105f3b60e21b815260040160405180910390fd5b505b6123498282612c64565b505050505050505050565b6040516001600160a01b0383166024820152604481018290526123d09084907fa9059cbb00000000000000000000000000000000000000000000000000000000906064015b60408051601f198184030181529190526020810180516001600160e01b03166001600160e01b031990931692909217909152612d24565b505050565b5f8060405180611ba00160405280611b668152602001613d80611b6691398360405160200161240592919061377e565b6040516020818303038152906040529050838151602083015ff591506001600160a01b038216612461576040517fbefb092000000000000000000000000000000000000000000000000000000000815260040160405180910390fd5b5092915050565b6002600154036124ba5760405162461bcd60e51b815260206004820152601f60248201527f5265656e7472616e637947756172643a207265656e7472616e742063616c6c006044820152606401611aca565b6002600155565b5f6124cf6004828486613acf565b6124d891613af6565b90507f2afa5331000000000000000000000000000000000000000000000000000000006001600160e01b03198216016126b2575f80808080808061251f896004818d613acf565b81019061252c9190613b26565b9650965096509650965096509650336001600160a01b0316876001600160a01b03161461256c5760405163912ecce760e01b815260040160405180910390fd5b6001600160a01b03861630146125955760405163750643af60e01b815260040160405180910390fd5b8a85146125ce576040517f03fffc4b00000000000000000000000000000000000000000000000000000000815260040160405180910390fd5b604080516001600160a01b0389811660248301528881166044830152606482018890526084820187905260ff861660a483015260c4820185905260e48083018590528351808403909101815261010490920183526020820180516001600160e01b03167fd505accf000000000000000000000000000000000000000000000000000000001790529151918e169161266591906137e5565b5f604051808303815f865af19150503d805f811461269e576040519150601f19603f3d011682016040523d82523d5f602084013e6126a3565b606091505b50505050505050505050610752565b6001600160e01b031981166323f2ebc360e21b146126fc576040517fe282c0ba00000000000000000000000000000000000000000000000000000000815260040160405180910390fd5b5f808080808080806127118a6004818e613acf565b81019061271e9190613b75565b97509750975097509750975097509750336001600160a01b0316886001600160a01b0316146127605760405163912ecce760e01b815260040160405180910390fd5b6001600160a01b03871630146127895760405163750643af60e01b815260040160405180910390fd5b604080516001600160a01b038a811660248301528981166044830152606482018990526084820188905286151560a483015260ff861660c483015260e482018590526101048083018590528351808403909101815261012490920183526020820180516001600160e01b03166323f2ebc360e21b1790529151918f169161281091906137e5565b5f604051808303815f865af19150503d805f8114612849576040519150601f19603f3d011682016040523d82523d5f602084013e61284e565b606091505b50505050505050505050505050505050565b6040516001600160a01b03808516602483015283166044820152606481018290526121bc9085907f23b872dd0000000000000000000000000000000000000000000000000000000090608401612399565b8060016128c060206002613cd3565b6128ca9190613877565b60535410612904576040517fef5ccf6600000000000000000000000000000000000000000000000000000000815260040160405180910390fd5b5f60535f81546129139061372e565b918290555090505f5b60208110156129a3578082901c60011660010361294f57826033826020811061294757612947613706565b015550505050565b6033816020811061296257612962613706565b01546040805160208101929092528101849052606001604051602081830303815290604052805190602001209250808061299b9061372e565b91505061291c565b506123d0613cde565b60018055565b60685460ff166129ee576040517f5386698100000000000000000000000000000000000000000000000000000000815260040160405180910390fd5b6068805460ff191690556040517f1e5e34eea33501aecf2ebec9fe0e884a40804275ea7fe10b2ba084c8374308b3905f90a1565b5f54610100900460ff16612a8c5760405162461bcd60e51b815260206004820152602b60248201527f496e697469616c697a61626c653a20636f6e7472616374206973206e6f74206960448201526a6e697469616c697a696e6760a81b6064820152608401611aca565b610664612e08565b60606040825110612ab357818060200190518101906106ca9190613cf2565b8151602003612c26575f5b602081108015612b055750828181518110612adb57612adb613706565b01602001517fff000000000000000000000000000000000000000000000000000000000000001615155b15612b1c5780612b148161372e565b915050612abe565b805f03612b5e57505060408051808201909152601281527f4e4f545f56414c49445f454e434f44494e4700000000000000000000000000006020820152919050565b5f8167ffffffffffffffff811115612b7857612b78613268565b6040519080825280601f01601f191660200182016040528015612ba2576020820181803683370190505b5090505f5b82811015612c1e57848181518110612bc157612bc1613706565b602001015160f81c60f81b828281518110612bde57612bde613706565b60200101907effffffffffffffffffffffffffffffffffffffffffffffffffffffffffffff191690815f1a90535080612c168161372e565b915050612ba7565b509392505050565b505060408051808201909152601281527f4e4f545f56414c49445f454e434f44494e470000000000000000000000000000602082015290565b919050565b6068545f90610100900463ffffffff16158015612c87575063ffffffff82166001145b15612c99575063ffffffff8216612cc1565b612cae64010000000063ffffffff84166137ac565b612cbe9063ffffffff85166137c3565b90505b600881901c5f8181526069602052604081208054600160ff861690811b91821892839055929091908183169003611723576040517f646cf55800000000000000000000000000000000000000000000000000000000815260040160405180910390fd5b5f612d78826040518060400160405280602081526020017f5361666545524332303a206c6f772d6c6576656c2063616c6c206661696c6564815250856001600160a01b0316612e729092919063ffffffff16565b8051909150156123d05780806020019051810190612d969190613d64565b6123d05760405162461bcd60e51b815260206004820152602a60248201527f5361666545524332303a204552433230206f7065726174696f6e20646964206e60448201527f6f742073756363656564000000000000000000000000000000000000000000006064820152608401611aca565b5f54610100900460ff166129ac5760405162461bcd60e51b815260206004820152602b60248201527f496e697469616c697a61626c653a20636f6e7472616374206973206e6f74206960448201526a6e697469616c697a696e6760a81b6064820152608401611aca565b606061098b84845f85855f80866001600160a01b03168587604051612e9791906137e5565b5f6040518083038185875af1925050503d805f8114612ed1576040519150601f19603f3d011682016040523d82523d5f602084013e612ed6565b606091505b5091509150612ee787838387612ef2565b979650505050505050565b60608315612f605782515f03612f59576001600160a01b0385163b612f595760405162461bcd60e51b815260206004820152601d60248201527f416464726573733a2063616c6c20746f206e6f6e2d636f6e74726163740000006044820152606401611aca565b508161098b565b61098b8383815115612f755781518083602001fd5b8060405162461bcd60e51b8152600401611aca9190613102565b803563ffffffff81168114612c5f575f80fd5b6001600160a01b0381168114612fb6575f80fd5b50565b5f8060408385031215612fca575f80fd5b612fd383612f8f565b91506020830135612fe381612fa2565b809150509250929050565b8015158114612fb6575f80fd5b5f8083601f84011261300b575f80fd5b50813567ffffffffffffffff811115613022575f80fd5b602083019150836020828501011115613039575f80fd5b9250929050565b5f805f805f60808688031215613054575f80fd5b61305d86612f8f565b9450602086013561306d81612fa2565b9350604086013561307d81612fee565b9250606086013567ffffffffffffffff811115613098575f80fd5b6130a488828901612ffb565b969995985093965092949392505050565b5f5b838110156130cf5781810151838201526020016130b7565b50505f910152565b5f81518084526130ee8160208601602086016130b5565b601f01601f19169290920160200192915050565b602081525f61311460208301846130d7565b9392505050565b5f6020828403121561312b575f80fd5b813561311481612fa2565b60ff81168114612fb6575f80fd5b5f805f805f805f60e0888a03121561315a575f80fd5b873561316581613136565b965061317360208901612f8f565b9550604088013561318381612fa2565b945061319160608901612f8f565b935060808801356131a181612fa2565b9699959850939692959460a0840135945060c09093013592915050565b5f805f606084860312156131d0575f80fd5b6131d984612f8f565b925060208401356131e981612fa2565b915060408401356131f981612fa2565b809150509250925092565b5f60208284031215613214575f80fd5b5035919050565b8061040081018310156106ca575f80fd5b5f805f610440848603121561323f575f80fd5b83359250613250856020860161321b565b915061325f6104208501612f8f565b90509250925092565b634e487b7160e01b5f52604160045260245ffd5b604051601f8201601f1916810167ffffffffffffffff811182821017156132a5576132a5613268565b604052919050565b5f67ffffffffffffffff8211156132c6576132c6613268565b50601f01601f191660200190565b5f6132e66132e1846132ad565b61327c565b90508281528383830111156132f9575f80fd5b828260208301375f602084830101529392505050565b5f82601f83011261331e575f80fd5b613114838335602085016132d4565b5f805f805f60a08688031215613341575f80fd5b61334a86612f8f565b9450602086013561335a81612fa2565b9350604086013567ffffffffffffffff80821115613376575f80fd5b61338289838a0161330f565b94506060880135915080821115613397575f80fd5b506133a48882890161330f565b92505060808601356133b581613136565b809150509295509295909350565b5f805f805f8060a087890312156133d8575f80fd5b6133e187612f8f565b955060208701356133f181612fa2565b945060408701359350606087013561340881612fee565b9250608087013567ffffffffffffffff811115613423575f80fd5b61342f89828a01612ffb565b979a9699509497509295939492505050565b5f8060408385031215613452575f80fd5b61345b83612f8f565b915061346960208401612f8f565b90509250929050565b5f805f805f805f805f805f806109208d8f03121561348e575f80fd5b6134988e8e61321b565b9b506134a88e6104008f0161321b565b9a506108008d013599506108208d013598506108408d013597506134cf6108608e01612f8f565b96506134df6108808e0135612fa2565b6108808d013595506134f46108a08e01612f8f565b94506135046108c08e0135612fa2565b6108c08d013593506108e08d0135925067ffffffffffffffff6109008e0135111561352d575f80fd5b61353e8e6109008f01358f01612ffb565b81935080925050509295989b509295989b509295989b565b5f805f805f805f60c0888a03121561356c575f80fd5b61357588612f8f565b9650602088013561358581612fa2565b955060408801359450606088013561359c81612fa2565b935060808801356135ac81612fee565b925060a088013567ffffffffffffffff8111156135c7575f80fd5b6135d38a828b01612ffb565b989b979a50959850939692959293505050565b5f805f805f8060c087890312156135fb575f80fd5b61360487612f8f565b9550602087013561361481612fa2565b945061362260408801612f8f565b9350606087013561363281612fa2565b9250608087013561364281612fa2565b915060a087013567ffffffffffffffff81111561365d575f80fd5b8701601f8101891361366d575f80fd5b61367c898235602084016132d4565b9150509295509295509295565b5f805f80610460858703121561369d575f80fd5b843593506136ae866020870161321b565b92506136bd6104208601612f8f565b939692955092936104400135925050565b600181811c908216806136e257607f821691505b60208210810361370057634e487b7160e01b5f52602260045260245ffd5b50919050565b634e487b7160e01b5f52603260045260245ffd5b634e487b7160e01b5f52601160045260245ffd5b5f6001820161373f5761373f61371a565b5060010190565b606081525f61375860608301866130d7565b828103602084015261376a81866130d7565b91505060ff83166040830152949350505050565b5f835161378f8184602088016130b5565b8351908301906137a38183602088016130b5565b01949350505050565b80820281158282048414176106ca576106ca61371a565b808201808211156106ca576106ca61371a565b818382375f9101908152919050565b5f82516137f68184602087016130b5565b9190910192915050565b81835281816020850137505f828201602090810191909152601f909101601f19169091010190565b63ffffffff861681525f6001600160a01b03808716602084015280861660408401525060806060830152612ee7608083018486613800565b5f60208284031215613870575f80fd5b5051919050565b818103818111156106ca576106ca61371a565b5f61010060ff8b16835263ffffffff808b1660208501526001600160a01b03808b166040860152818a1660608601528089166080860152508660a08501528160c08501526138da828501876130d7565b925080851660e085015250509998505050505050505050565b6001600160a01b038516815263ffffffff84166020820152606060408201525f613921606083018486613800565b9695505050505050565b601f8211156123d0575f81815260208120601f850160051c810160208610156139515750805b601f850160051c820191505b81811015610cba5782815560010161395d565b815167ffffffffffffffff81111561398a5761398a613268565b61399e8161399884546136ce565b8461392b565b602080601f8311600181146139d1575f84156139ba5750858301515b5f19600386901b1c1916600185901b178555610cba565b5f85815260208120601f198616915b828110156139ff578886015182559484019460019091019084016139e0565b5085821015613a1c57878501515f19600388901b60f8161c191681555b5050505050600190811b01905550565b5f61010060ff8c16835263ffffffff808c1660208501526001600160a01b03808c166040860152818b166060860152808a166080860152508760a08501528160c0850152613a7d8285018789613800565b925080851660e085015250509a9950505050505050505050565b5f60208284031215613aa7575f80fd5b815161311481613136565b63ffffffff8181168382160190808211156124615761246161371a565b5f8085851115613add575f80fd5b83861115613ae9575f80fd5b5050820193919092039150565b6001600160e01b03198135818116916004851015613b1e5780818660040360031b1b83161692505b505092915050565b5f805f805f805f60e0888a031215613b3c575f80fd5b8735613b4781612fa2565b96506020880135613b5781612fa2565b9550604088013594506060880135935060808801356131a181613136565b5f805f805f805f80610100898b031215613b8d575f80fd5b8835613b9881612fa2565b97506020890135613ba881612fa2565b965060408901359550606089013594506080890135613bc681612fee565b935060a0890135613bd681613136565b979a969950949793969295929450505060c08201359160e0013590565b600181815b80851115613c2d57815f1904821115613c1357613c1361371a565b80851615613c2057918102915b93841c9390800290613bf8565b509250929050565b5f82613c43575060016106ca565b81613c4f57505f6106ca565b8160018114613c655760028114613c6f57613c8b565b60019150506106ca565b60ff841115613c8057613c8061371a565b50506001821b6106ca565b5060208310610133831016604e8410600b8410161715613cae575081810a6106ca565b613cb88383613bf3565b805f1904821115613ccb57613ccb61371a565b029392505050565b5f6131148383613c35565b634e487b7160e01b5f52600160045260245ffd5b5f60208284031215613d02575f80fd5b815167ffffffffffffffff811115613d18575f80fd5b8201601f81018413613d28575f80fd5b8051613d366132e1826132ad565b818152856020838501011115613d4a575f80fd5b613d5b8260208301602086016130b5565b95945050505050565b5f60208284031215613d74575f80fd5b815161311481612fee56fe6101006040523480156200001257600080fd5b5060405162001b6638038062001b6683398101604081905262000035916200028d565b82826003620000458382620003a1565b506004620000548282620003a1565b50503360c0525060ff811660e052466080819052620000739062000080565b60a052506200046d915050565b60007f8b73c3c69bb8fe3d512ecc4cf759cc79239f7b179b0ffacaa9a75d522b39400f620000ad6200012e565b805160209182012060408051808201825260018152603160f81b90840152805192830193909352918101919091527fc89efdaa54c0f20c7adf612882df0950f5a951637e0307cdcb4c672f298b8bc66060820152608081018390523060a082015260c001604051602081830303815290604052805190602001209050919050565b6060600380546200013f9062000312565b80601f01602080910402602001604051908101604052809291908181526020018280546200016d9062000312565b8015620001be5780601f106200019257610100808354040283529160200191620001be565b820191906000526020600020905b815481529060010190602001808311620001a057829003601f168201915b5050505050905090565b634e487b7160e01b600052604160045260246000fd5b600082601f830112620001f057600080fd5b81516001600160401b03808211156200020d576200020d620001c8565b604051601f8301601f19908116603f01168101908282118183101715620002385762000238620001c8565b816040528381526020925086838588010111156200025557600080fd5b600091505b838210156200027957858201830151818301840152908201906200025a565b600093810190920192909252949350505050565b600080600060608486031215620002a357600080fd5b83516001600160401b0380821115620002bb57600080fd5b620002c987838801620001de565b94506020860151915080821115620002e057600080fd5b50620002ef86828701620001de565b925050604084015160ff811681146200030757600080fd5b809150509250925092565b600181811c908216806200032757607f821691505b6020821081036200034857634e487b7160e01b600052602260045260246000fd5b50919050565b601f8211156200039c57600081815260208120601f850160051c81016020861015620003775750805b601f850160051c820191505b81811015620003985782815560010162000383565b5050505b505050565b81516001600160401b03811115620003bd57620003bd620001c8565b620003d581620003ce845462000312565b846200034e565b602080601f8311600181146200040d5760008415620003f45750858301515b600019600386901b1c1916600185901b17855562000398565b600085815260208120601f198616915b828110156200043e578886015182559484019460019091019084016200041d565b50858210156200045d5787850151600019600388901b60f8161c191681555b5050505050600190811b01905550565b60805160a05160c05160e0516116aa620004bc6000396000610237015260008181610307015281816105c001526106a70152600061053a015260008181610379015261050401526116aa6000f3fe608060405234801561001057600080fd5b50600436106101775760003560e01c806370a08231116100d8578063a457c2d71161008c578063d505accf11610066578063d505accf1461039b578063dd62ed3e146103ae578063ffa1ad74146103f457600080fd5b8063a457c2d71461034e578063a9059cbb14610361578063cd0d00961461037457600080fd5b806395d89b41116100bd57806395d89b41146102e75780639dc29fac146102ef578063a3c573eb1461030257600080fd5b806370a08231146102915780637ecebe00146102c757600080fd5b806330adf81f1161012f5780633644e515116101145780633644e51514610261578063395093511461026957806340c10f191461027c57600080fd5b806330adf81f14610209578063313ce5671461023057600080fd5b806318160ddd1161016057806318160ddd146101bd57806320606b70146101cf57806323b872dd146101f657600080fd5b806306fdde031461017c578063095ea7b31461019a575b600080fd5b610184610430565b60405161019191906113e4565b60405180910390f35b6101ad6101a8366004611479565b6104c2565b6040519015158152602001610191565b6002545b604051908152602001610191565b6101c17f8b73c3c69bb8fe3d512ecc4cf759cc79239f7b179b0ffacaa9a75d522b39400f81565b6101ad6102043660046114a3565b6104dc565b6101c17f6e71edae12b1b97f4d1f60370fef10105fa2faae0126114a169c64845d6126c981565b60405160ff7f0000000000000000000000000000000000000000000000000000000000000000168152602001610191565b6101c1610500565b6101ad610277366004611479565b61055c565b61028f61028a366004611479565b6105a8565b005b6101c161029f3660046114df565b73ffffffffffffffffffffffffffffffffffffffff1660009081526020819052604090205490565b6101c16102d53660046114df565b60056020526000908152604090205481565b610184610680565b61028f6102fd366004611479565b61068f565b6103297f000000000000000000000000000000000000000000000000000000000000000081565b60405173ffffffffffffffffffffffffffffffffffffffff9091168152602001610191565b6101ad61035c366004611479565b61075e565b6101ad61036f366004611479565b61082f565b6101c17f000000000000000000000000000000000000000000000000000000000000000081565b61028f6103a9366004611501565b61083d565b6101c16103bc366004611574565b73ffffffffffffffffffffffffffffffffffffffff918216600090815260016020908152604080832093909416825291909152205490565b6101846040518060400160405280600181526020017f310000000000000000000000000000000000000000000000000000000000000081525081565b60606003805461043f906115a7565b80601f016020809104026020016040519081016040528092919081815260200182805461046b906115a7565b80156104b85780601f1061048d576101008083540402835291602001916104b8565b820191906000526020600020905b81548152906001019060200180831161049b57829003601f168201915b5050505050905090565b6000336104d0818585610b73565b60019150505b92915050565b6000336104ea858285610d27565b6104f5858585610dfe565b506001949350505050565b60007f00000000000000000000000000000000000000000000000000000000000000004614610537576105324661106d565b905090565b507f000000000000000000000000000000000000000000000000000000000000000090565b33600081815260016020908152604080832073ffffffffffffffffffffffffffffffffffffffff871684529091528120549091906104d090829086906105a3908790611629565b610b73565b3373ffffffffffffffffffffffffffffffffffffffff7f00000000000000000000000000000000000000000000000000000000000000001614610672576040517f08c379a000000000000000000000000000000000000000000000000000000000815260206004820152603060248201527f546f6b656e577261707065643a3a6f6e6c794272696467653a204e6f7420506f60448201527f6c79676f6e5a6b45564d4272696467650000000000000000000000000000000060648201526084015b60405180910390fd5b61067c8282611135565b5050565b60606004805461043f906115a7565b3373ffffffffffffffffffffffffffffffffffffffff7f00000000000000000000000000000000000000000000000000000000000000001614610754576040517f08c379a000000000000000000000000000000000000000000000000000000000815260206004820152603060248201527f546f6b656e577261707065643a3a6f6e6c794272696467653a204e6f7420506f60448201527f6c79676f6e5a6b45564d427269646765000000000000000000000000000000006064820152608401610669565b61067c8282611228565b33600081815260016020908152604080832073ffffffffffffffffffffffffffffffffffffffff8716845290915281205490919083811015610822576040517f08c379a000000000000000000000000000000000000000000000000000000000815260206004820152602560248201527f45524332303a2064656372656173656420616c6c6f77616e63652062656c6f7760448201527f207a65726f0000000000000000000000000000000000000000000000000000006064820152608401610669565b6104f58286868403610b73565b6000336104d0818585610dfe565b834211156108cc576040517f08c379a0000000000000000000000000000000000000000000000000000000008152602060048201526024808201527f546f6b656e577261707065643a3a7065726d69743a204578706972656420706560448201527f726d6974000000000000000000000000000000000000000000000000000000006064820152608401610669565b73ffffffffffffffffffffffffffffffffffffffff8716600090815260056020526040812080547f6e71edae12b1b97f4d1f60370fef10105fa2faae0126114a169c64845d6126c9918a918a918a9190866109268361163c565b9091555060408051602081019690965273ffffffffffffffffffffffffffffffffffffffff94851690860152929091166060840152608083015260a082015260c0810186905260e0016040516020818303038152906040528051906020012090506000610991610500565b6040517f19010000000000000000000000000000000000000000000000000000000000006020820152602281019190915260428101839052606201604080517fffffffffffffffffffffffffffffffffffffffffffffffffffffffffffffffe08184030181528282528051602091820120600080855291840180845281905260ff89169284019290925260608301879052608083018690529092509060019060a0016020604051602081039080840390855afa158015610a55573d6000803e3d6000fd5b50506040517fffffffffffffffffffffffffffffffffffffffffffffffffffffffffffffffe0015191505073ffffffffffffffffffffffffffffffffffffffff811615801590610ad057508973ffffffffffffffffffffffffffffffffffffffff168173ffffffffffffffffffffffffffffffffffffffff16145b610b5c576040517f08c379a000000000000000000000000000000000000000000000000000000000815260206004820152602760248201527f546f6b656e577261707065643a3a7065726d69743a20496e76616c696420736960448201527f676e6174757265000000000000000000000000000000000000000000000000006064820152608401610669565b610b678a8a8a610b73565b50505050505050505050565b73ffffffffffffffffffffffffffffffffffffffff8316610c15576040517f08c379a0000000000000000000000000000000000000000000000000000000008152602060048201526024808201527f45524332303a20617070726f76652066726f6d20746865207a65726f2061646460448201527f72657373000000000000000000000000000000000000000000000000000000006064820152608401610669565b73ffffffffffffffffffffffffffffffffffffffff8216610cb8576040517f08c379a000000000000000000000000000000000000000000000000000000000815260206004820152602260248201527f45524332303a20617070726f766520746f20746865207a65726f20616464726560448201527f73730000000000000000000000000000000000000000000000000000000000006064820152608401610669565b73ffffffffffffffffffffffffffffffffffffffff83811660008181526001602090815260408083209487168084529482529182902085905590518481527f8c5be1e5ebec7d5bd14f71427d1e84f3dd0314c0f7b2291e5b200ac8c7c3b92591015b60405180910390a3505050565b73ffffffffffffffffffffffffffffffffffffffff8381166000908152600160209081526040808320938616835292905220547fffffffffffffffffffffffffffffffffffffffffffffffffffffffffffffffff8114610df85781811015610deb576040517f08c379a000000000000000000000000000000000000000000000000000000000815260206004820152601d60248201527f45524332303a20696e73756666696369656e7420616c6c6f77616e63650000006044820152606401610669565b610df88484848403610b73565b50505050565b73ffffffffffffffffffffffffffffffffffffffff8316610ea1576040517f08c379a000000000000000000000000000000000000000000000000000000000815260206004820152602560248201527f45524332303a207472616e736665722066726f6d20746865207a65726f20616460448201527f64726573730000000000000000000000000000000000000000000000000000006064820152608401610669565b73ffffffffffffffffffffffffffffffffffffffff8216610f44576040517f08c379a000000000000000000000000000000000000000000000000000000000815260206004820152602360248201527f45524332303a207472616e7366657220746f20746865207a65726f206164647260448201527f65737300000000000000000000000000000000000000000000000000000000006064820152608401610669565b73ffffffffffffffffffffffffffffffffffffffff831660009081526020819052604090205481811015610ffa576040517f08c379a000000000000000000000000000000000000000000000000000000000815260206004820152602660248201527f45524332303a207472616e7366657220616d6f756e742065786365656473206260448201527f616c616e636500000000000000000000000000000000000000000000000000006064820152608401610669565b73ffffffffffffffffffffffffffffffffffffffff848116600081815260208181526040808320878703905593871680835291849020805487019055925185815290927fddf252ad1be2c89b69c2b068fc378daa952ba7f163c4a11628f55a4df523b3ef910160405180910390a3610df8565b60007f8b73c3c69bb8fe3d512ecc4cf759cc79239f7b179b0ffacaa9a75d522b39400f611098610430565b8051602091820120604080518082018252600181527f310000000000000000000000000000000000000000000000000000000000000090840152805192830193909352918101919091527fc89efdaa54c0f20c7adf612882df0950f5a951637e0307cdcb4c672f298b8bc66060820152608081018390523060a082015260c001604051602081830303815290604052805190602001209050919050565b73ffffffffffffffffffffffffffffffffffffffff82166111b2576040517f08c379a000000000000000000000000000000000000000000000000000000000815260206004820152601f60248201527f45524332303a206d696e7420746f20746865207a65726f2061646472657373006044820152606401610669565b80600260008282546111c49190611629565b909155505073ffffffffffffffffffffffffffffffffffffffff8216600081815260208181526040808320805486019055518481527fddf252ad1be2c89b69c2b068fc378daa952ba7f163c4a11628f55a4df523b3ef910160405180910390a35050565b73ffffffffffffffffffffffffffffffffffffffff82166112cb576040517f08c379a000000000000000000000000000000000000000000000000000000000815260206004820152602160248201527f45524332303a206275726e2066726f6d20746865207a65726f2061646472657360448201527f73000000000000000000000000000000000000000000000000000000000000006064820152608401610669565b73ffffffffffffffffffffffffffffffffffffffff821660009081526020819052604090205481811015611381576040517f08c379a000000000000000000000000000000000000000000000000000000000815260206004820152602260248201527f45524332303a206275726e20616d6f756e7420657863656564732062616c616e60448201527f63650000000000000000000000000000000000000000000000000000000000006064820152608401610669565b73ffffffffffffffffffffffffffffffffffffffff83166000818152602081815260408083208686039055600280548790039055518581529192917fddf252ad1be2c89b69c2b068fc378daa952ba7f163c4a11628f55a4df523b3ef9101610d1a565b600060208083528351808285015260005b81811015611411578581018301518582016040015282016113f5565b5060006040828601015260407fffffffffffffffffffffffffffffffffffffffffffffffffffffffffffffffe0601f8301168501019250505092915050565b803573ffffffffffffffffffffffffffffffffffffffff8116811461147457600080fd5b919050565b6000806040838503121561148c57600080fd5b61149583611450565b946020939093013593505050565b6000806000606084860312156114b857600080fd5b6114c184611450565b92506114cf60208501611450565b9150604084013590509250925092565b6000602082840312156114f157600080fd5b6114fa82611450565b9392505050565b600080600080600080600060e0888a03121561151c57600080fd5b61152588611450565b965061153360208901611450565b95506040880135945060608801359350608088013560ff8116811461155757600080fd5b9699959850939692959460a0840135945060c09093013592915050565b6000806040838503121561158757600080fd5b61159083611450565b915061159e60208401611450565b90509250929050565b600181811c908216806115bb57607f821691505b6020821081036115f4577f4e487b7100000000000000000000000000000000000000000000000000000000600052602260045260246000fd5b50919050565b7f4e487b7100000000000000000000000000000000000000000000000000000000600052601160045260246000fd5b808201808211156104d6576104d66115fa565b60007fffffffffffffffffffffffffffffffffffffffffffffffffffffffffffffffff820361166d5761166d6115fa565b506001019056fea26469706673582212208d88fee561cff7120d381c345cfc534cef8229a272dc5809d4bbb685ad67141164736f6c63430008110033a2646970667358221220432f6d6b4446edbe1f73c19fd2115454d5c35d8b03b98a74fd46724151d7672264736f6c63430008140033",
  "linkReferences": {},
  "deployedLinkReferences": {}
}