{
  "_format": "hh-sol-artifact-1",
  "contractName": "PolygonZkEVMGlobalExitRootV2",
  "sourceName": "contracts/v2/PolygonZkEVMGlobalExitRootV2.sol",
  "abi": [
    {
      "inputs": [
        {
          "internalType": "address",
          "name": "_rollupManager",
          "type": "address"
        },
        {
          "internalType": "address",
          "name": "_bridgeAddress",
          "type": "address"
        }
      ],
      "stateMutability": "nonpayable",
      "type": "constructor"
    },
    {
      "inputs": [],
      "name": "MerkleTreeFull",
      "type": "error"
    },
    {
      "inputs": [],
      "name": "OnlyAllowedContracts",
      "type": "error"
    },
    {
      "anonymous": false,
      "inputs": [
        {
          "indexed": false,
          "internalType": "uint32",
          "name": "depositCount",
          "type": "uint32"
        },
        {
          "indexed": false,
          "internalType": "bytes32",
          "name": "currentL1InfoRoot",
          "type": "bytes32"
        }
      ],
      "name": "InitL1InfoRootMap",
      "type": "event"
    },
    {
      "anonymous": false,
      "inputs": [
        {
          "indexed": false,
          "internalType": "uint8",
          "name": "version",
          "type": "uint8"
        }
      ],
      "name": "Initialized",
      "type": "event"
    },
    {
      "anonymous": false,
      "inputs": [
        {
          "indexed": true,
          "internalType": "bytes32",
          "name": "mainnetExitRoot",
          "type": "bytes32"
        },
        {
          "indexed": true,
          "internalType": "bytes32",
          "name": "rollupExitRoot",
          "type": "bytes32"
        },
        {
          "indexed": false,
          "internalType": "bytes32",
          "name": "currentL1InfoRoot",
          "type": "bytes32"
        },
        {
          "indexed": true,
          "internalType": "uint32",
          "name": "index",
          "type": "uint32"
        },
        {
          "indexed": false,
          "internalType": "uint256",
          "name": "blockhash",
          "type": "uint256"
        }
      ],
      "name": "UpdateL1InfoTree",
      "type": "event"
    },
    {
      "inputs": [],
      "name": "bridgeAddress",
      "outputs": [
        {
          "internalType": "address",
          "name": "",
          "type": "address"
        }
      ],
      "stateMutability": "view",
      "type": "function"
    },
    {
      "inputs": [
        {
          "internalType": "bytes32",
          "name": "leafHash",
          "type": "bytes32"
        },
        {
          "internalType": "bytes32[32]",
          "name": "smtProof",
          "type": "bytes32[32]"
        },
        {
          "internalType": "uint32",
          "name": "index",
          "type": "uint32"
        }
      ],
      "name": "calculateRoot",
      "outputs": [
        {
          "internalType": "bytes32",
          "name": "",
          "type": "bytes32"
        }
      ],
      "stateMutability": "pure",
      "type": "function"
    },
    {
      "inputs": [],
      "name": "depositCount",
      "outputs": [
        {
          "internalType": "uint256",
          "name": "",
          "type": "uint256"
        }
      ],
      "stateMutability": "view",
      "type": "function"
    },
    {
      "inputs": [],
      "name": "getLastGlobalExitRoot",
      "outputs": [
        {
          "internalType": "bytes32",
          "name": "",
          "type": "bytes32"
        }
      ],
      "stateMutability": "view",
      "type": "function"
    },
    {
      "inputs": [
        {
          "internalType": "bytes32",
          "name": "newGlobalExitRoot",
          "type": "bytes32"
        },
        {
          "internalType": "uint256",
          "name": "lastBlockHash",
          "type": "uint256"
        },
        {
          "internalType": "uint64",
          "name": "timestamp",
          "type": "uint64"
        }
      ],
      "name": "getLeafValue",
      "outputs": [
        {
          "internalType": "bytes32",
          "name": "",
          "type": "bytes32"
        }
      ],
      "stateMutability": "pure",
      "type": "function"
    },
    {
      "inputs": [],
      "name": "getRoot",
      "outputs": [
        {
          "internalType": "bytes32",
          "name": "",
          "type": "bytes32"
        }
      ],
      "stateMutability": "view",
      "type": "function"
    },
    {
      "inputs": [
        {
          "internalType": "bytes32",
          "name": "",
          "type": "bytes32"
        }
      ],
      "name": "globalExitRootMap",
      "outputs": [
        {
          "internalType": "uint256",
          "name": "",
          "type": "uint256"
        }
      ],
      "stateMutability": "view",
      "type": "function"
    },
    {
      "inputs": [],
      "name": "initialize",
      "outputs": [],
      "stateMutability": "nonpayable",
      "type": "function"
    },
    {
      "inputs": [
        {
          "internalType": "uint32",
          "name": "depositCount",
          "type": "uint32"
        }
      ],
      "name": "l1InfoRootMap",
      "outputs": [
        {
          "internalType": "bytes32",
          "name": "l1InfoRoot",
          "type": "bytes32"
        }
      ],
      "stateMutability": "view",
      "type": "function"
    },
    {
      "inputs": [],
      "name": "lastMainnetExitRoot",
      "outputs": [
        {
          "internalType": "bytes32",
          "name": "",
          "type": "bytes32"
        }
      ],
      "stateMutability": "view",
      "type": "function"
    },
    {
      "inputs": [],
      "name": "lastRollupExitRoot",
      "outputs": [
        {
          "internalType": "bytes32",
          "name": "",
          "type": "bytes32"
        }
      ],
      "stateMutability": "view",
      "type": "function"
    },
    {
      "inputs": [],
      "name": "rollupManager",
      "outputs": [
        {
          "internalType": "address",
          "name": "",
          "type": "address"
        }
      ],
      "stateMutability": "view",
      "type": "function"
    },
    {
      "inputs": [
        {
          "internalType": "bytes32",
          "name": "newRoot",
          "type": "bytes32"
        }
      ],
      "name": "updateExitRoot",
      "outputs": [],
      "stateMutability": "nonpayable",
      "type": "function"
    },
    {
      "inputs": [
        {
          "internalType": "bytes32",
          "name": "leafHash",
          "type": "bytes32"
        },
        {
          "internalType": "bytes32[32]",
          "name": "smtProof",
          "type": "bytes32[32]"
        },
        {
          "internalType": "uint32",
          "name": "index",
          "type": "uint32"
        },
        {
          "internalType": "bytes32",
          "name": "root",
          "type": "bytes32"
        }
      ],
      "name": "verifyMerkleProof",
      "outputs": [
        {
          "internalType": "bool",
          "name": "",
          "type": "bool"
        }
      ],
      "stateMutability": "pure",
      "type": "function"
    }
  ],
  "bytecode": "0x60c060405234801561000f575f80fd5b50604051610e69380380610e6983398101604081905261002e9161012b565b6001600160a01b0380831660a0528116608052610049610050565b505061015c565b602e54610100900460ff16156100bc5760405162461bcd60e51b815260206004820152602760248201527f496e697469616c697a61626c653a20636f6e747261637420697320696e697469604482015266616c697a696e6760c81b606482015260840160405180910390fd5b602e5460ff908116101561010e57602e805460ff191660ff9081179091556040519081527f7f26b83ff96e1f2b6a682f133852f6798a09c465da95921460cefb38474024989060200160405180910390a15b565b80516001600160a01b0381168114610126575f80fd5b919050565b5f806040838503121561013c575f80fd5b61014583610110565b915061015360208401610110565b90509250929050565b60805160a051610cde61018b5f395f818161015701526102f701525f818161022e01526102ab0152610cde5ff3fe608060405234801561000f575f80fd5b50600436106100e5575f3560e01c80635ca1e1651161008857806383f244031161006357806383f2440314610216578063a3c573eb14610229578063ef4eeb3514610250578063fb5708341461026f575f80fd5b80635ca1e1651461019e5780635d810501146101a65780638129fc1c1461020e575f80fd5b8063319cf735116100c3578063319cf7351461012c57806333d6247d146101355780633ed691ef1461014a57806349b7b80214610152575f80fd5b806301fd9044146100e9578063257b3632146101045780632dfdf0b514610123575b5f80fd5b6100f15f5481565b6040519081526020015b60405180910390f35b6100f161011236600461098b565b60026020525f908152604090205481565b6100f160235481565b6100f160015481565b61014861014336600461098b565b610292565b005b6100f1610484565b6101797f000000000000000000000000000000000000000000000000000000000000000081565b60405173ffffffffffffffffffffffffffffffffffffffff90911681526020016100fb565b6100f1610497565b6100f16101b43660046109a2565b604080516020808201959095528082019390935260c09190911b7fffffffffffffffff0000000000000000000000000000000000000000000000001660608301528051604881840301815260689092019052805191012090565b6101486104a0565b6100f1610224366004610a0d565b610694565b6101797f000000000000000000000000000000000000000000000000000000000000000081565b6100f161025e366004610a49565b602f6020525f908152604090205481565b61028261027d366004610a69565b610769565b60405190151581526020016100fb565b5f8073ffffffffffffffffffffffffffffffffffffffff7f00000000000000000000000000000000000000000000000000000000000000001633036102e057505060018190555f548161035f565b73ffffffffffffffffffffffffffffffffffffffff7f000000000000000000000000000000000000000000000000000000000000000016330361032d5750505f819055600154819061035f565b6040517fb49365dd00000000000000000000000000000000000000000000000000000000815260040160405180910390fd5b5f61036a8284610780565b5f818152600260205260408120549192500361047e575f61038c600143610adb565b5f8381526002602090815260409182902092409283905581518082018690528083018490527fffffffffffffffff0000000000000000000000000000000000000000000000004260c01b16606082015282518082036048018152606890910190925281519101209091506103ff906107af565b5f610408610497565b905080602f5f60235463ffffffff1663ffffffff1681526020019081526020015f208190555060235463ffffffff1685857f0f9c47e2b0e02b7bc2c41c3d44ba97219b878bdceb463e18f3fd0c2a253c1c8c8486604051610473929190918252602082015260400190565b60405180910390a450505b50505050565b5f6104926001545f54610780565b905090565b5f6104926108af565b602e54610100900460ff16158080156104c05750602e54600160ff909116105b806104da5750303b1580156104da5750602e5460ff166001145b61056a576040517f08c379a000000000000000000000000000000000000000000000000000000000815260206004820152602e60248201527f496e697469616c697a61626c653a20636f6e747261637420697320616c72656160448201527f647920696e697469616c697a6564000000000000000000000000000000000000606482015260840160405180910390fd5b602e80547fffffffffffffffffffffffffffffffffffffffffffffffffffffffffffffff0016600117905580156105c857602e80547fffffffffffffffffffffffffffffffffffffffffffffffffffffffffffff00ff166101001790555b5f6105d1610497565b6023805463ffffffff9081165f908152602f602090815260409182902085905592548151921682529181018390529192507f11f50c71891002839c2637ce302087160298255a87f1ea60d40e8db081383fad910160405180910390a150801561069157602e80547fffffffffffffffffffffffffffffffffffffffffffffffffffffffffffff00ff169055604051600181527f7f26b83ff96e1f2b6a682f133852f6798a09c465da95921460cefb38474024989060200160405180910390a15b50565b5f83815b602081101561076057600163ffffffff8516821c81169003610703578481602081106106c6576106c6610aee565b6020020135826040516020016106e6929190918252602082015260400190565b60405160208183030381529060405280519060200120915061074e565b8185826020811061071657610716610aee565b6020020135604051602001610735929190918252602082015260400190565b6040516020818303038152906040528051906020012091505b8061075881610b1b565b915050610698565b50949350505050565b5f81610776868686610694565b1495945050505050565b604080516020808201859052818301849052825180830384018152606090920190925280519101205b92915050565b8060016107be60206002610c70565b6107c89190610adb565b60235410610802576040517fef5ccf6600000000000000000000000000000000000000000000000000000000815260040160405180910390fd5b5f60235f815461081190610b1b565b918290555090505f5b60208110156108a1578082901c60011660010361084d57826003826020811061084557610845610aee565b015550505050565b6003816020811061086057610860610aee565b01546040805160208101929092528101849052606001604051602081830303815290604052805190602001209250808061089990610b1b565b91505061081a565b506108aa610c7b565b505050565b6023545f90819081805b6020811015610982578083901c60011660010361091657600381602081106108e3576108e3610aee565b01546040805160208101929092528101859052606001604051602081830303815290604052805190602001209350610943565b60408051602081018690529081018390526060016040516020818303038152906040528051906020012093505b6040805160208101849052908101839052606001604051602081830303815290604052805190602001209150808061097a90610b1b565b9150506108b9565b50919392505050565b5f6020828403121561099b575f80fd5b5035919050565b5f805f606084860312156109b4575f80fd5b8335925060208401359150604084013567ffffffffffffffff811681146109d9575f80fd5b809150509250925092565b8061040081018310156107a9575f80fd5b803563ffffffff81168114610a08575f80fd5b919050565b5f805f6104408486031215610a20575f80fd5b83359250610a3185602086016109e4565b9150610a4061042085016109f5565b90509250925092565b5f60208284031215610a59575f80fd5b610a62826109f5565b9392505050565b5f805f806104608587031215610a7d575f80fd5b84359350610a8e86602087016109e4565b9250610a9d61042086016109f5565b939692955092936104400135925050565b7f4e487b71000000000000000000000000000000000000000000000000000000005f52601160045260245ffd5b818103818111156107a9576107a9610aae565b7f4e487b71000000000000000000000000000000000000000000000000000000005f52603260045260245ffd5b5f7fffffffffffffffffffffffffffffffffffffffffffffffffffffffffffffffff8203610b4b57610b4b610aae565b5060010190565b600181815b80851115610bab57817fffffffffffffffffffffffffffffffffffffffffffffffffffffffffffffffff04821115610b9157610b91610aae565b80851615610b9e57918102915b93841c9390800290610b57565b509250929050565b5f82610bc1575060016107a9565b81610bcd57505f6107a9565b8160018114610be35760028114610bed57610c09565b60019150506107a9565b60ff841115610bfe57610bfe610aae565b50506001821b6107a9565b5060208310610133831016604e8410600b8410161715610c2c575081810a6107a9565b610c368383610b52565b807fffffffffffffffffffffffffffffffffffffffffffffffffffffffffffffffff04821115610c6857610c68610aae565b029392505050565b5f610a628383610bb3565b7f4e487b71000000000000000000000000000000000000000000000000000000005f52600160045260245ffdfea2646970667358221220b210148a3215581f309de88e736bbef50227945487b25a2a1dd7a72867495f5064736f6c63430008140033",
  "linkReferences": {},
  "deployedLinkReferences": {}
}