{
  "_format": "hh-sol-artifact-1",
  "contractName": "PolygonZkEVMBridge",
  "sourceName": "contracts/PolygonZkEVMBridge.sol",
  "abi": [
    {
      "anonymous": false,
      "inputs": [
        {
          "indexed": false,
          "internalType": "uint8",
          "name": "leafType",
          "type": "uint8"
        },
        {
          "indexed": false,
          "internalType": "uint32",
          "name": "originNetwork",
          "type": "uint32"
        },
        {
          "indexed": false,
          "internalType": "address",
          "name": "originAddress",
          "type": "address"
        },
        {
          "indexed": false,
          "internalType": "uint32",
          "name": "destinationNetwork",
          "type": "uint32"
        },
        {
          "indexed": false,
          "internalType": "address",
          "name": "destinationAddress",
          "type": "address"
        },
        {
          "indexed": false,
          "internalType": "uint256",
          "name": "amount",
          "type": "uint256"
        },
        {
          "indexed": false,
          "internalType": "bytes",
          "name": "metadata",
          "type": "bytes"
        },
        {
          "indexed": false,
          "internalType": "uint32",
          "name": "depositCount",
          "type": "uint32"
        }
      ],
      "name": "BridgeEvent",
      "type": "event"
    },
    {
      "anonymous": false,
      "inputs": [
        {
          "indexed": false,
          "internalType": "uint32",
          "name": "index",
          "type": "uint32"
        },
        {
          "indexed": false,
          "internalType": "uint32",
          "name": "originNetwork",
          "type": "uint32"
        },
        {
          "indexed": false,
          "internalType": "address",
          "name": "originAddress",
          "type": "address"
        },
        {
          "indexed": false,
          "internalType": "address",
          "name": "destinationAddress",
          "type": "address"
        },
        {
          "indexed": false,
          "internalType": "uint256",
          "name": "amount",
          "type": "uint256"
        }
      ],
      "name": "ClaimEvent",
      "type": "event"
    },
    {
      "anonymous": false,
      "inputs": [],
      "name": "EmergencyStateActivated",
      "type": "event"
    },
    {
      "anonymous": false,
      "inputs": [],
      "name": "EmergencyStateDeactivated",
      "type": "event"
    },
    {
      "anonymous": false,
      "inputs": [
        {
          "indexed": false,
          "internalType": "uint8",
          "name": "version",
          "type": "uint8"
        }
      ],
      "name": "Initialized",
      "type": "event"
    },
    {
      "anonymous": false,
      "inputs": [
        {
          "indexed": false,
          "internalType": "uint32",
          "name": "originNetwork",
          "type": "uint32"
        },
        {
          "indexed": false,
          "internalType": "address",
          "name": "originTokenAddress",
          "type": "address"
        },
        {
          "indexed": false,
          "internalType": "address",
          "name": "wrappedTokenAddress",
          "type": "address"
        },
        {
          "indexed": false,
          "internalType": "bytes",
          "name": "metadata",
          "type": "bytes"
        }
      ],
      "name": "NewWrappedToken",
      "type": "event"
    },
    {
      "inputs": [],
      "name": "activateEmergencyState",
      "outputs": [],
      "stateMutability": "nonpayable",
      "type": "function"
    },
    {
      "inputs": [
        {
          "internalType": "address",
          "name": "token",
          "type": "address"
        },
        {
          "internalType": "uint32",
          "name": "destinationNetwork",
          "type": "uint32"
        },
        {
          "internalType": "address",
          "name": "destinationAddress",
          "type": "address"
        },
        {
          "internalType": "uint256",
          "name": "amount",
          "type": "uint256"
        },
        {
          "internalType": "bytes",
          "name": "permitData",
          "type": "bytes"
        }
      ],
      "name": "bridgeAsset",
      "outputs": [],
      "stateMutability": "payable",
      "type": "function"
    },
    {
      "inputs": [
        {
          "internalType": "uint32",
          "name": "destinationNetwork",
          "type": "uint32"
        },
        {
          "internalType": "address",
          "name": "destinationAddress",
          "type": "address"
        },
        {
          "internalType": "bytes",
          "name": "metadata",
          "type": "bytes"
        }
      ],
      "name": "bridgeMessage",
      "outputs": [],
      "stateMutability": "payable",
      "type": "function"
    },
    {
      "inputs": [
        {
          "internalType": "bytes32[32]",
          "name": "smtProof",
          "type": "bytes32[32]"
        },
        {
          "internalType": "uint32",
          "name": "index",
          "type": "uint32"
        },
        {
          "internalType": "bytes32",
          "name": "mainnetExitRoot",
          "type": "bytes32"
        },
        {
          "internalType": "bytes32",
          "name": "rollupExitRoot",
          "type": "bytes32"
        },
        {
          "internalType": "uint32",
          "name": "originNetwork",
          "type": "uint32"
        },
        {
          "internalType": "address",
          "name": "originTokenAddress",
          "type": "address"
        },
        {
          "internalType": "uint32",
          "name": "destinationNetwork",
          "type": "uint32"
        },
        {
          "internalType": "address",
          "name": "destinationAddress",
          "type": "address"
        },
        {
          "internalType": "uint256",
          "name": "amount",
          "type": "uint256"
        },
        {
          "internalType": "bytes",
          "name": "metadata",
          "type": "bytes"
        }
      ],
      "name": "claimAsset",
      "outputs": [],
      "stateMutability": "nonpayable",
      "type": "function"
    },
    {
      "inputs": [
        {
          "internalType": "bytes32[32]",
          "name": "smtProof",
          "type": "bytes32[32]"
        },
        {
          "internalType": "uint32",
          "name": "index",
          "type": "uint32"
        },
        {
          "internalType": "bytes32",
          "name": "mainnetExitRoot",
          "type": "bytes32"
        },
        {
          "internalType": "bytes32",
          "name": "rollupExitRoot",
          "type": "bytes32"
        },
        {
          "internalType": "uint32",
          "name": "originNetwork",
          "type": "uint32"
        },
        {
          "internalType": "address",
          "name": "originAddress",
          "type": "address"
        },
        {
          "internalType": "uint32",
          "name": "destinationNetwork",
          "type": "uint32"
        },
        {
          "internalType": "address",
          "name": "destinationAddress",
          "type": "address"
        },
        {
          "internalType": "uint256",
          "name": "amount",
          "type": "uint256"
        },
        {
          "internalType": "bytes",
          "name": "metadata",
          "type": "bytes"
        }
      ],
      "name": "claimMessage",
      "outputs": [],
      "stateMutability": "nonpayable",
      "type": "function"
    },
    {
      "inputs": [
        {
          "internalType": "uint256",
          "name": "",
          "type": "uint256"
        }
      ],
      "name": "claimedBitMap",
      "outputs": [
        {
          "internalType": "uint256",
          "name": "",
          "type": "uint256"
        }
      ],
      "stateMutability": "view",
      "type": "function"
    },
    {
      "inputs": [],
      "name": "deactivateEmergencyState",
      "outputs": [],
      "stateMutability": "nonpayable",
      "type": "function"
    },
    {
      "inputs": [],
      "name": "depositCount",
      "outputs": [
        {
          "internalType": "uint256",
          "name": "",
          "type": "uint256"
        }
      ],
      "stateMutability": "view",
      "type": "function"
    },
    {
      "inputs": [],
      "name": "getDepositRoot",
      "outputs": [
        {
          "internalType": "bytes32",
          "name": "",
          "type": "bytes32"
        }
      ],
      "stateMutability": "view",
      "type": "function"
    },
    {
      "inputs": [
        {
          "internalType": "uint8",
          "name": "leafType",
          "type": "uint8"
        },
        {
          "internalType": "uint32",
          "name": "originNetwork",
          "type": "uint32"
        },
        {
          "internalType": "address",
          "name": "originAddress",
          "type": "address"
        },
        {
          "internalType": "uint32",
          "name": "destinationNetwork",
          "type": "uint32"
        },
        {
          "internalType": "address",
          "name": "destinationAddress",
          "type": "address"
        },
        {
          "internalType": "uint256",
          "name": "amount",
          "type": "uint256"
        },
        {
          "internalType": "bytes32",
          "name": "metadataHash",
          "type": "bytes32"
        }
      ],
      "name": "getLeafValue",
      "outputs": [
        {
          "internalType": "bytes32",
          "name": "",
          "type": "bytes32"
        }
      ],
      "stateMutability": "pure",
      "type": "function"
    },
    {
      "inputs": [
        {
          "internalType": "uint32",
          "name": "originNetwork",
          "type": "uint32"
        },
        {
          "internalType": "address",
          "name": "originTokenAddress",
          "type": "address"
        }
      ],
      "name": "getTokenWrappedAddress",
      "outputs": [
        {
          "internalType": "address",
          "name": "",
          "type": "address"
        }
      ],
      "stateMutability": "view",
      "type": "function"
    },
    {
      "inputs": [],
      "name": "globalExitRootManager",
      "outputs": [
        {
          "internalType": "contract IPolygonZkEVMGlobalExitRoot",
          "name": "",
          "type": "address"
        }
      ],
      "stateMutability": "view",
      "type": "function"
    },
    {
      "inputs": [
        {
          "internalType": "uint32",
          "name": "_networkID",
          "type": "uint32"
        },
        {
          "internalType": "contract IPolygonZkEVMGlobalExitRoot",
          "name": "_globalExitRootManager",
          "type": "address"
        },
        {
          "internalType": "address",
          "name": "_polygonZkEVMaddress",
          "type": "address"
        }
      ],
      "name": "initialize",
      "outputs": [],
      "stateMutability": "nonpayable",
      "type": "function"
    },
    {
      "inputs": [
        {
          "internalType": "uint256",
          "name": "index",
          "type": "uint256"
        }
      ],
      "name": "isClaimed",
      "outputs": [
        {
          "internalType": "bool",
          "name": "",
          "type": "bool"
        }
      ],
      "stateMutability": "view",
      "type": "function"
    },
    {
      "inputs": [],
      "name": "isEmergencyState",
      "outputs": [
        {
          "internalType": "bool",
          "name": "",
          "type": "bool"
        }
      ],
      "stateMutability": "view",
      "type": "function"
    },
    {
      "inputs": [],
      "name": "networkID",
      "outputs": [
        {
          "internalType": "uint32",
          "name": "",
          "type": "uint32"
        }
      ],
      "stateMutability": "view",
      "type": "function"
    },
    {
      "inputs": [],
      "name": "polygonZkEVMaddress",
      "outputs": [
        {
          "internalType": "address",
          "name": "",
          "type": "address"
        }
      ],
      "stateMutability": "view",
      "type": "function"
    },
    {
      "inputs": [
        {
          "internalType": "uint32",
          "name": "originNetwork",
          "type": "uint32"
        },
        {
          "internalType": "address",
          "name": "originTokenAddress",
          "type": "address"
        },
        {
          "internalType": "string",
          "name": "name",
          "type": "string"
        },
        {
          "internalType": "string",
          "name": "symbol",
          "type": "string"
        },
        {
          "internalType": "uint8",
          "name": "decimals",
          "type": "uint8"
        }
      ],
      "name": "precalculatedWrapperAddress",
      "outputs": [
        {
          "internalType": "address",
          "name": "",
          "type": "address"
        }
      ],
      "stateMutability": "view",
      "type": "function"
    },
    {
      "inputs": [
        {
          "internalType": "bytes32",
          "name": "",
          "type": "bytes32"
        }
      ],
      "name": "tokenInfoToWrappedToken",
      "outputs": [
        {
          "internalType": "address",
          "name": "",
          "type": "address"
        }
      ],
      "stateMutability": "view",
      "type": "function"
    },
    {
      "inputs": [
        {
          "internalType": "bytes32",
          "name": "leafHash",
          "type": "bytes32"
        },
        {
          "internalType": "bytes32[32]",
          "name": "smtProof",
          "type": "bytes32[32]"
        },
        {
          "internalType": "uint32",
          "name": "index",
          "type": "uint32"
        },
        {
          "internalType": "bytes32",
          "name": "root",
          "type": "bytes32"
        }
      ],
      "name": "verifyMerkleProof",
      "outputs": [
        {
          "internalType": "bool",
          "name": "",
          "type": "bool"
        }
      ],
      "stateMutability": "pure",
      "type": "function"
    },
    {
      "inputs": [
        {
          "internalType": "address",
          "name": "",
          "type": "address"
        }
      ],
      "name": "wrappedTokenToTokenInfo",
      "outputs": [
        {
          "internalType": "uint32",
          "name": "originNetwork",
          "type": "uint32"
        },
        {
          "internalType": "address",
          "name": "originTokenAddress",
          "type": "address"
        }
      ],
      "stateMutability": "view",
      "type": "function"
    }
  ],
  "bytecode": "0x608060405234801561001057600080fd5b5061490a806100206000396000f3fe608060405260043610620001435760003560e01c80633e19704311620000b9578063bab161bf1162000078578063bab161bf14620003e6578063d02103ca1462000420578063d96a15f71462000449578063dbc169761462000460578063ee25560b1462000478578063fb57083414620004a957600080fd5b80633e19704314620002f8578063647c576c146200031d57806381b1c17414620003425780639e34070f146200037c578063aaa13cc214620003c157600080fd5b80632d2c9d9411620001065780632d2c9d9414620002035780632dfdf0b51462000228578063318aee3d146200024f57806334ac9cf214620002be5780633ae0504714620002e057600080fd5b80630871e971146200014857806315064c9614620001615780632072f6c5146200019257806322e95f2c14620001aa5780632cffd02e14620001de575b600080fd5b6200015f62000159366004620024aa565b620004ce565b005b3480156200016e57600080fd5b506036546200017d9060ff1681565b60405190151581526020015b60405180910390f35b3480156200019f57600080fd5b506200015f62000ae0565b348015620001b757600080fd5b50620001cf620001c936600462002536565b62000b19565b60405162000189919062002572565b348015620001eb57600080fd5b506200015f620001fd36600462002599565b62000b6c565b3480156200021057600080fd5b506200015f6200022236600462002599565b62000fbf565b3480156200023557600080fd5b506200024060215481565b60405190815260200162000189565b3480156200025c57600080fd5b50620002996200026e3660046200267e565b60396020526000908152604090205463ffffffff81169064010000000090046001600160a01b031682565b6040805163ffffffff90931683526001600160a01b0390911660208301520162000189565b348015620002cb57600080fd5b50603a54620001cf906001600160a01b031681565b348015620002ed57600080fd5b506200024062001158565b3480156200030557600080fd5b506200024062000317366004620026b5565b6200124b565b3480156200032a57600080fd5b506200015f6200033c3660046200273f565b620012d8565b3480156200034f57600080fd5b50620001cf620003613660046200278f565b6038602052600090815260409020546001600160a01b031681565b3480156200038957600080fd5b506200017d6200039b3660046200278f565b600881901c600090815260376020526040902054600160ff9092169190911b9081161490565b348015620003ce57600080fd5b50620001cf620003e0366004620027a9565b62001447565b348015620003f357600080fd5b506036546200040a90610100900463ffffffff1681565b60405163ffffffff909116815260200162000189565b3480156200042d57600080fd5b50603654620001cf90600160281b90046001600160a01b031681565b6200015f6200045a3660046200285c565b6200155e565b3480156200046d57600080fd5b506200015f62001726565b3480156200048557600080fd5b5062000240620004973660046200278f565b60376020526000908152604090205481565b348015620004b657600080fd5b506200017d620004c8366004620028c6565b6200175d565b60365460ff1615620004fd5760405162461bcd60e51b8152600401620004f49062002913565b60405180910390fd5b60365463ffffffff610100909104811690861603620005745760405162461bcd60e51b815260206004820152603d6024820152600080516020620048b583398151915260448201527f2044657374696e6174696f6e2063616e6e6f7420626520697473656c660000006064820152608401620004f4565b6000806060856001600160a01b038a166200060757863414620005fd5760405162461bcd60e51b815260206004820152604460248201819052600080516020620048b5833981519152908201527f20416d6f756e7420646f6573206e6f74206d61746368206d6573736167652e76606482015263616c756560e01b608482015260a401620004f4565b60009250620009f2565b3415620006925760405162461bcd60e51b815260206004820152605c6024820152600080516020620048b583398151915260448201527f204578706563746564207a65726f206e61746976652061737365742076616c7560648201527f65207768656e206272696467696e6720455243323020746f6b656e7300000000608482015260a401620004f4565b6001600160a01b03808b1660009081526039602090815260409182902082518084019093525463ffffffff81168352640100000000900490921691810182905290156200075157604051632770a7eb60e21b81526001600160a01b038c1690639dc29fac90620007099033908c906004016200297b565b600060405180830381600087803b1580156200072457600080fd5b505af115801562000739573d6000803e3d6000fd5b505050508060200151945080600001519350620009f0565b85156200076657620007668b89898962001855565b6040516370a0823160e01b81526000906001600160a01b038d16906370a08231906200079790309060040162002572565b602060405180830381865afa158015620007b5573d6000803e3d6000fd5b505050506040513d601f19601f82011682018060405250810190620007db919062002994565b9050620007f46001600160a01b038d1633308c62001c52565b6040516370a0823160e01b81526000906001600160a01b038e16906370a08231906200082590309060040162002572565b602060405180830381865afa15801562000843573d6000803e3d6000fd5b505050506040513d601f19601f8201168201806040525081019062000869919062002994565b9050620008778282620029c4565b93508c9650603660019054906101000a900463ffffffff1695508c6001600160a01b03166306fdde036040518163ffffffff1660e01b8152600401600060405180830381865afa158015620008d0573d6000803e3d6000fd5b505050506040513d6000823e601f3d908101601f19168201604052620008fa919081019062002a80565b8d6001600160a01b03166395d89b416040518163ffffffff1660e01b8152600401600060405180830381865afa15801562000939573d6000803e3d6000fd5b505050506040513d6000823e601f3d908101601f1916820160405262000963919081019062002a80565b8e6001600160a01b031663313ce5676040518163ffffffff1660e01b8152600401602060405180830381865afa158015620009a2573d6000803e3d6000fd5b505050506040513d601f19601f82011682018060405250810190620009c8919062002b05565b604051602001620009dc9392919062002b53565b604051602081830303815290604052945050505b505b7f501781209a1f8899323b96b4ef08b168df93e0a90c673d1e4cce39366cb62f9b600084868c8c868860215460405162000a3498979695949392919062002b90565b60405180910390a162000a5f62000a59600085878d8d8789805190602001206200124b565b62001cbf565b603654600160281b90046001600160a01b03166333d6247d62000a8162001158565b6040518263ffffffff1660e01b815260040162000aa091815260200190565b600060405180830381600087803b15801562000abb57600080fd5b505af115801562000ad0573d6000803e3d6000fd5b5050505050505050505050505050565b603a546001600160a01b0316331462000b0d5760405162461bcd60e51b8152600401620004f49062002bfd565b62000b1762001e0d565b565b600060386000848460405160200162000b3492919062002c5a565b60408051601f19818403018152918152815160209283012083529082019290925201600020546001600160a01b031690505b92915050565b60365460ff161562000b925760405162461bcd60e51b8152600401620004f49062002913565b62000ba98b8b8b8b8b8b8b8b8b8b8b600062001e6b565b6001600160a01b03861662000ca057604080516000808252602082019092526001600160a01b03861690859060405162000be4919062002c84565b60006040518083038185875af1925050503d806000811462000c23576040519150601f19603f3d011682016040523d82523d6000602084013e62000c28565b606091505b505090508062000c995760405162461bcd60e51b815260206004820152603560248201527f506f6c79676f6e5a6b45564d4272696467653a3a636c61696d41737365743a20604482015274115d1a195c881d1c985b9cd9995c8819985a5b1959605a1b6064820152608401620004f4565b5062000f71565b60365463ffffffff61010090910481169088160362000cd55762000ccf6001600160a01b0387168585620020a4565b62000f71565b6000878760405160200162000cec92919062002c5a565b60408051601f198184030181529181528151602092830120600081815260389093529120549091506001600160a01b03168062000f09576000808062000d358688018862002cf8565b92509250925060008584848460405162000d4f906200241e565b62000d5d9392919062002b53565b8190604051809103906000f590508015801562000d7e573d6000803e3d6000fd5b506040516340c10f1960e01b81529091506001600160a01b038216906340c10f199062000db2908d908d906004016200297b565b600060405180830381600087803b15801562000dcd57600080fd5b505af115801562000de2573d6000803e3d6000fd5b50505050806038600088815260200190815260200160002060006101000a8154816001600160a01b0302191690836001600160a01b0316021790555060405180604001604052808e63ffffffff1681526020018d6001600160a01b031681525060396000836001600160a01b03166001600160a01b0316815260200190815260200160002060008201518160000160006101000a81548163ffffffff021916908363ffffffff16021790555060208201518160000160046101000a8154816001600160a01b0302191690836001600160a01b031602179055509050507f490e59a1701b938786ac72570a1efeac994a3dbe96e2e883e19e902ace6e6a398d8d838b8b60405162000ef795949392919062002d96565b60405180910390a15050505062000f6e565b6040516340c10f1960e01b81526001600160a01b038216906340c10f199062000f3990899089906004016200297b565b600060405180830381600087803b15801562000f5457600080fd5b505af115801562000f69573d6000803e3d6000fd5b505050505b50505b7f25308c93ceeed162da955b3f7ce3e3f93606579e40fb92029faa9efe275459838a8888878760405162000faa95949392919062002dd1565b60405180910390a15050505050505050505050565b60365460ff161562000fe55760405162461bcd60e51b8152600401620004f49062002913565b62000ffc8b8b8b8b8b8b8b8b8b8b8b600162001e6b565b6000846001600160a01b031684888a868660405160240162001022949392919062002e08565b60408051601f198184030181529181526020820180516001600160e01b0316630c035af960e11b1790525162001059919062002c84565b60006040518083038185875af1925050503d806000811462001098576040519150601f19603f3d011682016040523d82523d6000602084013e6200109d565b606091505b5050905080620011095760405162461bcd60e51b815260206004820152603060248201527f506f6c79676f6e5a6b45564d4272696467653a3a636c61696d4d65737361676560448201526f0e8813595cdcd859d94819985a5b195960821b6064820152608401620004f4565b7f25308c93ceeed162da955b3f7ce3e3f93606579e40fb92029faa9efe275459838b898988886040516200114295949392919062002dd1565b60405180910390a1505050505050505050505050565b602154600090819081805b6020811015620012425782600116600103620011c357600181602081106200118f576200118f62002e45565b01546040805160208101929092528101859052606001604051602081830303815290604052805190602001209350620011f0565b60408051602081018690529081018390526060016040516020818303038152906040528051906020012093505b620011fd60028462002e5b565b60408051602081018590529081018490529093506060016040516020818303038152906040528051906020012091508080620012399062002e7e565b91505062001163565b50919392505050565b6040516001600160f81b031960f889901b1660208201526001600160e01b031960e088811b821660218401526001600160601b0319606089811b821660258601529188901b909216603984015285901b16603d8201526051810183905260718101829052600090609101604051602081830303815290604052805190602001209050979650505050505050565b600054610100900460ff1615808015620012f95750600054600160ff909116105b80620013155750303b15801562001315575060005460ff166001145b6200137a5760405162461bcd60e51b815260206004820152602e60248201527f496e697469616c697a61626c653a20636f6e747261637420697320616c72656160448201526d191e481a5b9a5d1a585b1a5e995960921b6064820152608401620004f4565b6000805460ff1916600117905580156200139e576000805461ff0019166101001790555b60368054610100600160c81b03191661010063ffffffff87160265010000000000600160c81b03191617600160281b6001600160a01b038681169190910291909117909155603a80546001600160a01b031916918416919091179055801562001441576000805461ff0019169055604051600181527f7f26b83ff96e1f2b6a682f133852f6798a09c465da95921460cefb38474024989060200160405180910390a15b50505050565b60008088886040516020016200145f92919062002c5a565b604051602081830303815290604052805190602001209050600060ff60f81b30836040518060200162001492906200241e565b601f1982820381018352601f909101166040819052620014bf908d908d908d908d908d9060200162002e9a565b60408051601f1981840301815290829052620014df929160200162002edb565b604051602081830303815290604052805190602001206040516020016200153894939291906001600160f81b031994909416845260609290921b6001600160601b03191660018401526015830152603582015260550190565b60408051808303601f1901815291905280516020909101209a9950505050505050505050565b60365460ff1615620015845760405162461bcd60e51b8152600401620004f49062002913565b60365463ffffffff6101009091048116908516036200160c5760405162461bcd60e51b815260206004820152603f60248201527f506f6c79676f6e5a6b45564d4272696467653a3a6272696467654d657373616760448201527f653a2044657374696e6174696f6e2063616e6e6f7420626520697473656c66006064820152608401620004f4565b7f501781209a1f8899323b96b4ef08b168df93e0a90c673d1e4cce39366cb62f9b6001603660019054906101000a900463ffffffff16338787348888602154604051620016629998979695949392919062002f0e565b60405180910390a1620016ab62000a596001603660019054906101000a900463ffffffff163388883489896040516200169d92919062002f7d565b60405180910390206200124b565b603654600160281b90046001600160a01b03166333d6247d620016cd62001158565b6040518263ffffffff1660e01b8152600401620016ec91815260200190565b600060405180830381600087803b1580156200170757600080fd5b505af11580156200171c573d6000803e3d6000fd5b5050505050505050565b603a546001600160a01b03163314620017535760405162461bcd60e51b8152600401620004f49062002bfd565b62000b17620020c6565b60008463ffffffff8416825b6020811015620018465781600116600103620017d35786816020811062001794576200179462002e45565b602002013583604051602001620017b5929190918252602082015260400190565b60405160208183030381529060405280519060200120925062001822565b82878260208110620017e957620017e962002e45565b602002013560405160200162001809929190918252602082015260400190565b6040516020818303038152906040528051906020012092505b6200182f60028362002e5b565b9150806200183d8162002e7e565b91505062001769565b5050821490505b949350505050565b600062001866600482848662002f8d565b620018719162002fb9565b9050632afa533160e01b6001600160e01b031982160162001a66576000808080808080620018a3896004818d62002f8d565b810190620018b2919062002fea565b9650965096509650965096509650336001600160a01b0316876001600160a01b031614620018f45760405162461bcd60e51b8152600401620004f49062003045565b6001600160a01b03861630146200191f5760405162461bcd60e51b8152600401620004f490620030a2565b8a8514620019925760405162461bcd60e51b815260206004820152603960248201527f506f6c79676f6e5a6b45564d4272696467653a3a5f7065726d69743a205065726044820152780dad2e840c2dadeeadce840c8decae640dcdee840dac2e8c6d603b1b6064820152608401620004f4565b604080516001600160a01b0389811660248301528881166044830152606482018890526084820187905260ff861660a483015260c4820185905260e48083018590528351808403909101815261010490920183526020820180516001600160e01b031663d505accf60e01b1790529151918e169162001a12919062002c84565b6000604051808303816000865af19150503d806000811462001a51576040519150601f19603f3d011682016040523d82523d6000602084013e62001a56565b606091505b5050505050505050505062001c4b565b6001600160e01b031981166323f2ebc360e21b1462001adc5760405162461bcd60e51b815260206004820152602b60248201527f506f6c79676f6e5a6b45564d4272696467653a3a5f7065726d69743a204e6f7460448201526a081d985b1a590818d85b1b60aa1b6064820152608401620004f4565b60008080808080808062001af48a6004818e62002f8d565b81019062001b03919062003104565b97509750975097509750975097509750336001600160a01b0316886001600160a01b03161462001b475760405162461bcd60e51b8152600401620004f49062003045565b6001600160a01b038716301462001b725760405162461bcd60e51b8152600401620004f490620030a2565b604080516001600160a01b038a811660248301528981166044830152606482018990526084820188905286151560a483015260ff861660c483015260e482018590526101048083018590528351808403909101815261012490920183526020820180516001600160e01b03166323f2ebc360e21b1790529151918f169162001bfb919062002c84565b6000604051808303816000865af19150503d806000811462001c3a576040519150601f19603f3d011682016040523d82523d6000602084013e62001c3f565b606091505b50505050505050505050505b5050505050565b6040516001600160a01b0380851660248301528316604482015260648101829052620014419085906323b872dd60e01b906084015b60408051601f198184030181529190526020810180516001600160e01b03166001600160e01b03199093169290921790915262002175565b80600162001cd0602060026200328d565b62001cdc9190620029c4565b6021541062001d415760405162461bcd60e51b815260206004820152602a60248201527f4465706f736974436f6e74726163743a5f6465706f7369743a204d65726b6c65604482015269081d1c995948199d5b1b60b21b6064820152608401620004f4565b600060216000815462001d549062002e7e565b9182905550905060005b602081101562001dfd578160011660010362001d9357826001826020811062001d8b5762001d8b62002e45565b015550505050565b6001816020811062001da95762001da962002e45565b0154604080516020810192909252810184905260600160405160208183030381529060405280519060200120925060028262001de6919062002e5b565b91508062001df48162002e7e565b91505062001d5e565b5062001e086200329b565b505050565b60365460ff161562001e335760405162461bcd60e51b8152600401620004f49062002913565b6036805460ff191660011790556040517f2261efe5aef6fedc1fd1550b25facc9181745623049c7901287030b9ad1a549790600090a1565b62001e7c8b63ffffffff166200224e565b6036546040805160208082018e90528183018d9052825180830384018152606083019384905280519101206312bd9b1960e11b9092526064810191909152600091600160281b90046001600160a01b03169063257b3632906084016020604051808303816000875af115801562001ef7573d6000803e3d6000fd5b505050506040513d601f19601f8201168201806040525081019062001f1d919062002994565b90508060000362001f805760405162461bcd60e51b81526020600482015260376024820152600080516020620048958339815191526044820152760811db1bd8985b115e1a5d149bdbdd081a5b9d985b1a59604a1b6064820152608401620004f4565b60365463ffffffff8881166101009092041614620020025760405162461bcd60e51b815260206004820152604360248201526000805160206200489583398151915260448201527f2044657374696e6174696f6e206e6574776f726b20646f6573206e6f74206d616064820152620e8c6d60eb1b608482015260a401620004f4565b603654600090610100900463ffffffff166200202057508962002023565b508a5b6200204c62002043848c8c8c8c8c8c8c6040516200169d92919062002f7d565b8f8f846200175d565b62000ad05760405162461bcd60e51b81526020600482015260326024820152600080516020620048958339815191526044820152711024b73b30b634b21039b6ba10383937b7b360711b6064820152608401620004f4565b62001e088363a9059cbb60e01b848460405160240162001c879291906200297b565b60365460ff16620021405760405162461bcd60e51b815260206004820152603b60248201527f456d657267656e63794d616e616765723a3a6966456d657267656e637953746160448201527f74653a206f6e6c7920696620656d657267656e637920737461746500000000006064820152608401620004f4565b6036805460ff191690556040517f1e5e34eea33501aecf2ebec9fe0e884a40804275ea7fe10b2ba084c8374308b390600090a1565b6000620021cc826040518060400160405280602081526020017f5361666545524332303a206c6f772d6c6576656c2063616c6c206661696c6564815250856001600160a01b0316620022eb9092919063ffffffff16565b80519091501562001e085780806020019051810190620021ed9190620032b1565b62001e085760405162461bcd60e51b815260206004820152602a60248201527f5361666545524332303a204552433230206f7065726174696f6e20646964206e6044820152691bdd081cdd58d8d9595960b21b6064820152608401620004f4565b600881901c60008181526037602052604081208054600160ff861690811b9182189283905592909190818316900362001c4b5760405162461bcd60e51b815260206004820152603860248201527f506f6c79676f6e5a6b45564d4272696467653a3a5f736574416e64436865636b60448201527710db185a5b59590e88105b1c9958591e4818db185a5b595960421b6064820152608401620004f4565b60606200184d848460008585600080866001600160a01b0316858760405162002315919062002c84565b60006040518083038185875af1925050503d806000811462002354576040519150601f19603f3d011682016040523d82523d6000602084013e62002359565b606091505b50915091506200236c8783838762002377565b979650505050505050565b60608315620023eb578251600003620023e3576001600160a01b0385163b620023e35760405162461bcd60e51b815260206004820152601d60248201527f416464726573733a2063616c6c20746f206e6f6e2d636f6e74726163740000006044820152606401620004f4565b50816200184d565b6200184d8383815115620024025781518083602001fd5b8060405162461bcd60e51b8152600401620004f49190620032d1565b6115ae80620032e783390190565b6001600160a01b03811681146200244257600080fd5b50565b803563ffffffff811681146200245a57600080fd5b919050565b60008083601f8401126200247257600080fd5b5081356001600160401b038111156200248a57600080fd5b602083019150836020828501011115620024a357600080fd5b9250929050565b60008060008060008060a08789031215620024c457600080fd5b8635620024d1816200242c565b9550620024e16020880162002445565b94506040870135620024f3816200242c565b93506060870135925060808701356001600160401b038111156200251657600080fd5b6200252489828a016200245f565b979a9699509497509295939492505050565b600080604083850312156200254a57600080fd5b620025558362002445565b9150602083013562002567816200242c565b809150509250929050565b6001600160a01b0391909116815260200190565b80610400810183101562000b6657600080fd5b60008060008060008060008060008060006105208c8e031215620025bc57600080fd5b620025c88d8d62002586565b9a50620025d96104008d0162002445565b99506104208c013598506104408c01359750620025fa6104608d0162002445565b96506104808c01356200260d816200242c565b95506200261e6104a08d0162002445565b94506104c08c013562002631816200242c565b93506104e08c013592506105008c01356001600160401b038111156200265657600080fd5b620026648e828f016200245f565b915080935050809150509295989b509295989b9093969950565b6000602082840312156200269157600080fd5b81356200269e816200242c565b9392505050565b60ff811681146200244257600080fd5b600080600080600080600060e0888a031215620026d157600080fd5b8735620026de81620026a5565b9650620026ee6020890162002445565b9550604088013562002700816200242c565b9450620027106060890162002445565b9350608088013562002722816200242c565b9699959850939692959460a0840135945060c09093013592915050565b6000806000606084860312156200275557600080fd5b620027608462002445565b9250602084013562002772816200242c565b9150604084013562002784816200242c565b809150509250925092565b600060208284031215620027a257600080fd5b5035919050565b600080600080600080600060a0888a031215620027c557600080fd5b620027d08862002445565b96506020880135620027e2816200242c565b955060408801356001600160401b0380821115620027ff57600080fd5b6200280d8b838c016200245f565b909750955060608a01359150808211156200282757600080fd5b50620028368a828b016200245f565b90945092505060808801356200284c81620026a5565b8091505092959891949750929550565b600080600080606085870312156200287357600080fd5b6200287e8562002445565b9350602085013562002890816200242c565b925060408501356001600160401b03811115620028ac57600080fd5b620028ba878288016200245f565b95989497509550505050565b6000806000806104608587031215620028de57600080fd5b84359350620028f1866020870162002586565b925062002902610420860162002445565b939692955092936104400135925050565b60208082526042908201527f456d657267656e63794d616e616765723a3a69664e6f74456d657267656e637960408201527f53746174653a206f6e6c79206966206e6f7420656d657267656e637920737461606082015261746560f01b608082015260a00190565b6001600160a01b03929092168252602082015260400190565b600060208284031215620029a757600080fd5b5051919050565b634e487b7160e01b600052601160045260246000fd5b600082821015620029d957620029d9620029ae565b500390565b634e487b7160e01b600052604160045260246000fd5b604051601f8201601f191681016001600160401b038111828210171562002a1f5762002a1f620029de565b604052919050565b60006001600160401b0382111562002a435762002a43620029de565b50601f01601f191660200190565b60005b8381101562002a6e57818101518382015260200162002a54565b83811115620014415750506000910152565b60006020828403121562002a9357600080fd5b81516001600160401b0381111562002aaa57600080fd5b8201601f8101841362002abc57600080fd5b805162002ad362002acd8262002a27565b620029f4565b81815285602083850101111562002ae957600080fd5b62002afc82602083016020860162002a51565b95945050505050565b60006020828403121562002b1857600080fd5b81516200269e81620026a5565b6000815180845262002b3f81602086016020860162002a51565b601f01601f19169290920160200192915050565b60608152600062002b68606083018662002b25565b828103602084015262002b7c818662002b25565b91505060ff83166040830152949350505050565b60ff8916815263ffffffff88811660208301526001600160a01b03888116604084015287821660608401528616608083015260a0820185905261010060c0830181905260009162002be48483018762002b25565b925080851660e085015250509998505050505050505050565b6020808252603a908201527f506f6c79676f6e5a6b45564d3a3a6f6e6c79506f6c79676f6e5a6b45564d3a2060408201527f6f6e6c7920506f6c79676f6e5a6b45564d20636f6e7472616374000000000000606082015260800190565b60e09290921b6001600160e01b031916825260601b6001600160601b031916600482015260180190565b6000825162002c9881846020870162002a51565b9190910192915050565b600082601f83011262002cb457600080fd5b813562002cc562002acd8262002a27565b81815284602083860101111562002cdb57600080fd5b816020850160208301376000918101602001919091529392505050565b60008060006060848603121562002d0e57600080fd5b83356001600160401b038082111562002d2657600080fd5b62002d348783880162002ca2565b9450602086013591508082111562002d4b57600080fd5b5062002d5a8682870162002ca2565b92505060408401356200278481620026a5565b81835281816020850137506000828201602090810191909152601f909101601f19169091010190565b63ffffffff861681526001600160a01b038581166020830152841660408201526080606082018190526000906200236c908301848662002d6d565b63ffffffff95861681529390941660208401526001600160a01b039182166040840152166060820152608081019190915260a00190565b6001600160a01b038516815263ffffffff8416602082015260606040820181905260009062002e3b908301848662002d6d565b9695505050505050565b634e487b7160e01b600052603260045260246000fd5b60008262002e7957634e487b7160e01b600052601260045260246000fd5b500490565b60006001820162002e935762002e93620029ae565b5060010190565b60608152600062002eb060608301878962002d6d565b828103602084015262002ec581868862002d6d565b91505060ff831660408301529695505050505050565b6000835162002eef81846020880162002a51565b83519083019062002f0581836020880162002a51565b01949350505050565b60ff8a16815263ffffffff89811660208301526001600160a01b03898116604084015288821660608401528716608083015260a0820186905261010060c0830181905260009162002f63848301878962002d6d565b925080851660e085015250509a9950505050505050505050565b8183823760009101908152919050565b6000808585111562002f9e57600080fd5b8386111562002fac57600080fd5b5050820193919092039150565b6001600160e01b0319813581811691600485101562002fe25780818660040360031b1b83161692505b505092915050565b600080600080600080600060e0888a0312156200300657600080fd5b873562003013816200242c565b9650602088013562003025816200242c565b9550604088013594506060880135935060808801356200272281620026a5565b6020808252603c908201527f506f6c79676f6e5a6b45564d4272696467653a3a5f7065726d69743a2050657260408201527f6d6974206f776e6572206d757374206265207468652073656e64657200000000606082015260800190565b60208082526033908201527f506f6c79676f6e5a6b45564d4272696467653a3a5f7065726d69743a205370656040820152726e646572206d7573742062652027746869732760681b606082015260800190565b80151581146200244257600080fd5b600080600080600080600080610100898b0312156200312257600080fd5b88356200312f816200242c565b9750602089013562003141816200242c565b9650604089013595506060890135945060808901356200316181620030f5565b935060a08901356200317381620026a5565b979a969950949793969295929450505060c08201359160e0013590565b600181815b80851115620031d1578160001904821115620031b557620031b5620029ae565b80851615620031c357918102915b93841c939080029062003195565b509250929050565b600082620031ea5750600162000b66565b81620031f95750600062000b66565b81600181146200321257600281146200321d576200323d565b600191505062000b66565b60ff841115620032315762003231620029ae565b50506001821b62000b66565b5060208310610133831016604e8410600b841016171562003262575081810a62000b66565b6200326e838362003190565b8060001904821115620032855762003285620029ae565b029392505050565b60006200269e8383620031d9565b634e487b7160e01b600052600160045260246000fd5b600060208284031215620032c457600080fd5b81516200269e81620030f5565b6020815260006200269e602083018462002b2556fe6101006040523480156200001257600080fd5b50604051620015ae380380620015ae833981016040819052620000359162000295565b82826003620000458382620003a9565b506004620000548282620003a9565b50503360c0525060ff811660e052466080819052620000739062000080565b60a0525062000475915050565b60007f8b73c3c69bb8fe3d512ecc4cf759cc79239f7b179b0ffacaa9a75d522b39400f620000ad6200012e565b805160209182012060408051808201825260018152603160f81b90840152805192830193909352918101919091527fc89efdaa54c0f20c7adf612882df0950f5a951637e0307cdcb4c672f298b8bc66060820152608081018390523060a082015260c001604051602081830303815290604052805190602001209050919050565b6060600380546200013f906200031a565b80601f01602080910402602001604051908101604052809291908181526020018280546200016d906200031a565b8015620001be5780601f106200019257610100808354040283529160200191620001be565b820191906000526020600020905b815481529060010190602001808311620001a057829003601f168201915b5050505050905090565b634e487b7160e01b600052604160045260246000fd5b600082601f830112620001f057600080fd5b81516001600160401b03808211156200020d576200020d620001c8565b604051601f8301601f19908116603f01168101908282118183101715620002385762000238620001c8565b816040528381526020925086838588010111156200025557600080fd5b600091505b838210156200027957858201830151818301840152908201906200025a565b838211156200028b5760008385830101525b9695505050505050565b600080600060608486031215620002ab57600080fd5b83516001600160401b0380821115620002c357600080fd5b620002d187838801620001de565b94506020860151915080821115620002e857600080fd5b50620002f786828701620001de565b925050604084015160ff811681146200030f57600080fd5b809150509250925092565b600181811c908216806200032f57607f821691505b6020821081036200035057634e487b7160e01b600052602260045260246000fd5b50919050565b601f821115620003a457600081815260208120601f850160051c810160208610156200037f5750805b601f850160051c820191505b81811015620003a0578281556001016200038b565b5050505b505050565b81516001600160401b03811115620003c557620003c5620001c8565b620003dd81620003d684546200031a565b8462000356565b602080601f831160018114620004155760008415620003fc5750858301515b600019600386901b1c1916600185901b178555620003a0565b600085815260208120601f198616915b82811015620004465788860151825594840194600190910190840162000425565b5085821015620004655787850151600019600388901b60f8161c191681555b5050505050600190811b01905550565b60805160a05160c05160e0516110ea620004c460003960006101f70152600081816102ba015281816104de015261054c0152600061048f01526000818161031f015261045901526110ea6000f3fe608060405234801561001057600080fd5b50600436106101375760003560e01c806370a08231116100b8578063a457c2d71161007c578063a457c2d7146102f4578063a9059cbb14610307578063cd0d00961461031a578063d505accf14610341578063dd62ed3e14610354578063ffa1ad741461036757600080fd5b806370a08231146102515780637ecebe001461027a57806395d89b411461029a5780639dc29fac146102a2578063a3c573eb146102b557600080fd5b806330adf81f116100ff57806330adf81f146101c9578063313ce567146101f05780633644e51514610221578063395093511461022957806340c10f191461023c57600080fd5b806306fdde031461013c578063095ea7b31461015a57806318160ddd1461017d57806320606b701461018f57806323b872dd146101b6575b600080fd5b610144610387565b6040516101519190610e24565b60405180910390f35b61016d610168366004610e95565b610419565b6040519015158152602001610151565b6002545b604051908152602001610151565b6101817f8b73c3c69bb8fe3d512ecc4cf759cc79239f7b179b0ffacaa9a75d522b39400f81565b61016d6101c4366004610ebf565b610431565b6101817f6e71edae12b1b97f4d1f60370fef10105fa2faae0126114a169c64845d6126c981565b60405160ff7f0000000000000000000000000000000000000000000000000000000000000000168152602001610151565b610181610455565b61016d610237366004610e95565b6104b1565b61024f61024a366004610e95565b6104d3565b005b61018161025f366004610efb565b6001600160a01b031660009081526020819052604090205490565b610181610288366004610efb565b60056020526000908152604090205481565b610144610532565b61024f6102b0366004610e95565b610541565b6102dc7f000000000000000000000000000000000000000000000000000000000000000081565b6040516001600160a01b039091168152602001610151565b61016d610302366004610e95565b610593565b61016d610315366004610e95565b61060e565b6101817f000000000000000000000000000000000000000000000000000000000000000081565b61024f61034f366004610f1d565b61061c565b610181610362366004610f90565b610857565b610144604051806040016040528060018152602001603160f81b81525081565b60606003805461039690610fc3565b80601f01602080910402602001604051908101604052809291908181526020018280546103c290610fc3565b801561040f5780601f106103e45761010080835404028352916020019161040f565b820191906000526020600020905b8154815290600101906020018083116103f257829003601f168201915b5050505050905090565b600033610427818585610882565b5060019392505050565b60003361043f8582856109a7565b61044a858585610a21565b506001949350505050565b60007f0000000000000000000000000000000000000000000000000000000000000000461461048c5761048746610bb3565b905090565b507f000000000000000000000000000000000000000000000000000000000000000090565b6000336104278185856104c48383610857565b6104ce9190611013565b610882565b336001600160a01b037f000000000000000000000000000000000000000000000000000000000000000016146105245760405162461bcd60e51b815260040161051b9061102b565b60405180910390fd5b61052e8282610c5f565b5050565b60606004805461039690610fc3565b336001600160a01b037f000000000000000000000000000000000000000000000000000000000000000016146105895760405162461bcd60e51b815260040161051b9061102b565b61052e8282610d0c565b600033816105a18286610857565b9050838110156106015760405162461bcd60e51b815260206004820152602560248201527f45524332303a2064656372656173656420616c6c6f77616e63652062656c6f77604482015264207a65726f60d81b606482015260840161051b565b61044a8286868403610882565b600033610427818585610a21565b834211156106785760405162461bcd60e51b8152602060048201526024808201527f546f6b656e577261707065643a3a7065726d69743a20457870697265642070656044820152631c9b5a5d60e21b606482015260840161051b565b6001600160a01b038716600090815260056020526040812080547f6e71edae12b1b97f4d1f60370fef10105fa2faae0126114a169c64845d6126c9918a918a918a9190866106c58361107b565b909155506040805160208101969096526001600160a01b0394851690860152929091166060840152608083015260a082015260c0810186905260e0016040516020818303038152906040528051906020012090506000610723610455565b60405161190160f01b602082015260228101919091526042810183905260620160408051601f198184030181528282528051602091820120600080855291840180845281905260ff89169284019290925260608301879052608083018690529092509060019060a0016020604051602081039080840390855afa1580156107ae573d6000803e3d6000fd5b5050604051601f1901519150506001600160a01b038116158015906107e45750896001600160a01b0316816001600160a01b0316145b6108405760405162461bcd60e51b815260206004820152602760248201527f546f6b656e577261707065643a3a7065726d69743a20496e76616c6964207369604482015266676e617475726560c81b606482015260840161051b565b61084b8a8a8a610882565b50505050505050505050565b6001600160a01b03918216600090815260016020908152604080832093909416825291909152205490565b6001600160a01b0383166108e45760405162461bcd60e51b8152602060048201526024808201527f45524332303a20617070726f76652066726f6d20746865207a65726f206164646044820152637265737360e01b606482015260840161051b565b6001600160a01b0382166109455760405162461bcd60e51b815260206004820152602260248201527f45524332303a20617070726f766520746f20746865207a65726f206164647265604482015261737360f01b606482015260840161051b565b6001600160a01b0383811660008181526001602090815260408083209487168084529482529182902085905590518481527f8c5be1e5ebec7d5bd14f71427d1e84f3dd0314c0f7b2291e5b200ac8c7c3b92591015b60405180910390a3505050565b60006109b38484610857565b90506000198114610a1b5781811015610a0e5760405162461bcd60e51b815260206004820152601d60248201527f45524332303a20696e73756666696369656e7420616c6c6f77616e6365000000604482015260640161051b565b610a1b8484848403610882565b50505050565b6001600160a01b038316610a855760405162461bcd60e51b815260206004820152602560248201527f45524332303a207472616e736665722066726f6d20746865207a65726f206164604482015264647265737360d81b606482015260840161051b565b6001600160a01b038216610ae75760405162461bcd60e51b815260206004820152602360248201527f45524332303a207472616e7366657220746f20746865207a65726f206164647260448201526265737360e81b606482015260840161051b565b6001600160a01b03831660009081526020819052604090205481811015610b5f5760405162461bcd60e51b815260206004820152602660248201527f45524332303a207472616e7366657220616d6f756e7420657863656564732062604482015265616c616e636560d01b606482015260840161051b565b6001600160a01b0384811660008181526020818152604080832087870390559387168083529184902080548701905592518581529092600080516020611095833981519152910160405180910390a3610a1b565b60007f8b73c3c69bb8fe3d512ecc4cf759cc79239f7b179b0ffacaa9a75d522b39400f610bde610387565b805160209182012060408051808201825260018152603160f81b90840152805192830193909352918101919091527fc89efdaa54c0f20c7adf612882df0950f5a951637e0307cdcb4c672f298b8bc66060820152608081018390523060a082015260c001604051602081830303815290604052805190602001209050919050565b6001600160a01b038216610cb55760405162461bcd60e51b815260206004820152601f60248201527f45524332303a206d696e7420746f20746865207a65726f206164647265737300604482015260640161051b565b8060026000828254610cc79190611013565b90915550506001600160a01b03821660008181526020818152604080832080548601905551848152600080516020611095833981519152910160405180910390a35050565b6001600160a01b038216610d6c5760405162461bcd60e51b815260206004820152602160248201527f45524332303a206275726e2066726f6d20746865207a65726f206164647265736044820152607360f81b606482015260840161051b565b6001600160a01b03821660009081526020819052604090205481811015610de05760405162461bcd60e51b815260206004820152602260248201527f45524332303a206275726e20616d6f756e7420657863656564732062616c616e604482015261636560f01b606482015260840161051b565b6001600160a01b038316600081815260208181526040808320868603905560028054879003905551858152919291600080516020611095833981519152910161099a565b600060208083528351808285015260005b81811015610e5157858101830151858201604001528201610e35565b81811115610e63576000604083870101525b50601f01601f1916929092016040019392505050565b80356001600160a01b0381168114610e9057600080fd5b919050565b60008060408385031215610ea857600080fd5b610eb183610e79565b946020939093013593505050565b600080600060608486031215610ed457600080fd5b610edd84610e79565b9250610eeb60208501610e79565b9150604084013590509250925092565b600060208284031215610f0d57600080fd5b610f1682610e79565b9392505050565b600080600080600080600060e0888a031215610f3857600080fd5b610f4188610e79565b9650610f4f60208901610e79565b95506040880135945060608801359350608088013560ff81168114610f7357600080fd5b9699959850939692959460a0840135945060c09093013592915050565b60008060408385031215610fa357600080fd5b610fac83610e79565b9150610fba60208401610e79565b90509250929050565b600181811c90821680610fd757607f821691505b602082108103610ff757634e487b7160e01b600052602260045260246000fd5b50919050565b634e487b7160e01b600052601160045260246000fd5b6000821982111561102657611026610ffd565b500190565b60208082526030908201527f546f6b656e577261707065643a3a6f6e6c794272696467653a204e6f7420506f60408201526f6c79676f6e5a6b45564d42726964676560801b606082015260800190565b60006001820161108d5761108d610ffd565b506001019056feddf252ad1be2c89b69c2b068fc378daa952ba7f163c4a11628f55a4df523b3efa26469706673582212205810bc8fb3e12350f8326f1af7def3581a3651488f4d7805bcf1ba5bbf315bd564736f6c634300080f0033506f6c79676f6e5a6b45564d4272696467653a3a5f7665726966794c6561663a506f6c79676f6e5a6b45564d4272696467653a3a62726964676541737365743aa26469706673582212204cc7b94ccc82e4b71f3b8270947ede729e801691c219f22cb0a71a70fee7c83b64736f6c634300080f0033",
  "linkReferences": {},
  "deployedLinkReferences": {}
}