{
  "_format": "hh-sol-artifact-1",
  "contractName": "PolygonZkEVMMock",
  "sourceName": "contracts/mocks/PolygonZkEVMMock.sol",
  "abi": [
    {
      "inputs": [
        {
          "internalType": "contract IPolygonZkEVMGlobalExitRoot",
          "name": "_globalExitRootManager",
          "type": "address"
        },
        {
          "internalType": "contract IERC20Upgradeable",
          "name": "_matic",
          "type": "address"
        },
        {
          "internalType": "contract IVerifierRollup",
          "name": "_rollupVerifier",
          "type": "address"
        },
        {
          "internalType": "contract IPolygonZkEVMBridge",
          "name": "_bridgeAddress",
          "type": "address"
        },
        {
          "internalType": "uint64",
          "name": "_chainID",
          "type": "uint64"
        },
        {
          "internalType": "uint64",
          "name": "_forkID",
          "type": "uint64"
        }
      ],
      "stateMutability": "nonpayable",
      "type": "constructor"
    },
    {
      "inputs": [],
      "name": "BatchAlreadyVerified",
      "type": "error"
    },
    {
      "inputs": [],
      "name": "BatchNotSequencedOrNotSequenceEnd",
      "type": "error"
    },
    {
      "inputs": [],
      "name": "ExceedMaxVerifyBatches",
      "type": "error"
    },
    {
      "inputs": [],
      "name": "FinalNumBatchBelowLastVerifiedBatch",
      "type": "error"
    },
    {
      "inputs": [],
      "name": "FinalNumBatchDoesNotMatchPendingState",
      "type": "error"
    },
    {
      "inputs": [],
      "name": "FinalPendingStateNumInvalid",
      "type": "error"
    },
    {
      "inputs": [],
      "name": "ForceBatchNotAllowed",
      "type": "error"
    },
    {
      "inputs": [],
      "name": "ForceBatchTimeoutNotExpired",
      "type": "error"
    },
    {
      "inputs": [],
      "name": "ForceBatchesAlreadyActive",
      "type": "error"
    },
    {
      "inputs": [],
      "name": "ForceBatchesOverflow",
      "type": "error"
    },
    {
      "inputs": [],
      "name": "ForcedDataDoesNotMatch",
      "type": "error"
    },
    {
      "inputs": [],
      "name": "GlobalExitRootNotExist",
      "type": "error"
    },
    {
      "inputs": [],
      "name": "HaltTimeoutNotExpired",
      "type": "error"
    },
    {
      "inputs": [],
      "name": "InitNumBatchAboveLastVerifiedBatch",
      "type": "error"
    },
    {
      "inputs": [],
      "name": "InitNumBatchDoesNotMatchPendingState",
      "type": "error"
    },
    {
      "inputs": [],
      "name": "InvalidProof",
      "type": "error"
    },
    {
      "inputs": [],
      "name": "InvalidRangeBatchTimeTarget",
      "type": "error"
    },
    {
      "inputs": [],
      "name": "InvalidRangeForceBatchTimeout",
      "type": "error"
    },
    {
      "inputs": [],
      "name": "InvalidRangeMultiplierBatchFee",
      "type": "error"
    },
    {
      "inputs": [],
      "name": "NewAccInputHashDoesNotExist",
      "type": "error"
    },
    {
      "inputs": [],
      "name": "NewPendingStateTimeoutMustBeLower",
      "type": "error"
    },
    {
      "inputs": [],
      "name": "NewStateRootNotInsidePrime",
      "type": "error"
    },
    {
      "inputs": [],
      "name": "NewTrustedAggregatorTimeoutMustBeLower",
      "type": "error"
    },
    {
      "inputs": [],
      "name": "NotEnoughMaticAmount",
      "type": "error"
    },
    {
      "inputs": [],
      "name": "OldAccInputHashDoesNotExist",
      "type": "error"
    },
    {
      "inputs": [],
      "name": "OldStateRootDoesNotExist",
      "type": "error"
    },
    {
      "inputs": [],
      "name": "OnlyAdmin",
      "type": "error"
    },
    {
      "inputs": [],
      "name": "OnlyEmergencyState",
      "type": "error"
    },
    {
      "inputs": [],
      "name": "OnlyNotEmergencyState",
      "type": "error"
    },
    {
      "inputs": [],
      "name": "OnlyPendingAdmin",
      "type": "error"
    },
    {
      "inputs": [],
      "name": "OnlyTrustedAggregator",
      "type": "error"
    },
    {
      "inputs": [],
      "name": "OnlyTrustedSequencer",
      "type": "error"
    },
    {
      "inputs": [],
      "name": "PendingStateDoesNotExist",
      "type": "error"
    },
    {
      "inputs": [],
      "name": "PendingStateInvalid",
      "type": "error"
    },
    {
      "inputs": [],
      "name": "PendingStateNotConsolidable",
      "type": "error"
    },
    {
      "inputs": [],
      "name": "PendingStateTimeoutExceedHaltAggregationTimeout",
      "type": "error"
    },
    {
      "inputs": [],
      "name": "SequenceZeroBatches",
      "type": "error"
    },
    {
      "inputs": [],
      "name": "SequencedTimestampBelowForcedTimestamp",
      "type": "error"
    },
    {
      "inputs": [],
      "name": "SequencedTimestampInvalid",
      "type": "error"
    },
    {
      "inputs": [],
      "name": "StoredRootMustBeDifferentThanNewRoot",
      "type": "error"
    },
    {
      "inputs": [],
      "name": "TransactionsLengthAboveMax",
      "type": "error"
    },
    {
      "inputs": [],
      "name": "TrustedAggregatorTimeoutExceedHaltAggregationTimeout",
      "type": "error"
    },
    {
      "inputs": [],
      "name": "TrustedAggregatorTimeoutNotExpired",
      "type": "error"
    },
    {
      "anonymous": false,
      "inputs": [
        {
          "indexed": false,
          "internalType": "address",
          "name": "newAdmin",
          "type": "address"
        }
      ],
      "name": "AcceptAdminRole",
      "type": "event"
    },
    {
      "anonymous": false,
      "inputs": [],
      "name": "ActivateForceBatches",
      "type": "event"
    },
    {
      "anonymous": false,
      "inputs": [
        {
          "indexed": true,
          "internalType": "uint64",
          "name": "numBatch",
          "type": "uint64"
        },
        {
          "indexed": false,
          "internalType": "bytes32",
          "name": "stateRoot",
          "type": "bytes32"
        },
        {
          "indexed": true,
          "internalType": "uint64",
          "name": "pendingStateNum",
          "type": "uint64"
        }
      ],
      "name": "ConsolidatePendingState",
      "type": "event"
    },
    {
      "anonymous": false,
      "inputs": [],
      "name": "EmergencyStateActivated",
      "type": "event"
    },
    {
      "anonymous": false,
      "inputs": [],
      "name": "EmergencyStateDeactivated",
      "type": "event"
    },
    {
      "anonymous": false,
      "inputs": [
        {
          "indexed": true,
          "internalType": "uint64",
          "name": "forceBatchNum",
          "type": "uint64"
        },
        {
          "indexed": false,
          "internalType": "bytes32",
          "name": "lastGlobalExitRoot",
          "type": "bytes32"
        },
        {
          "indexed": false,
          "internalType": "address",
          "name": "sequencer",
          "type": "address"
        },
        {
          "indexed": false,
          "internalType": "bytes",
          "name": "transactions",
          "type": "bytes"
        }
      ],
      "name": "ForceBatch",
      "type": "event"
    },
    {
      "anonymous": false,
      "inputs": [
        {
          "indexed": false,
          "internalType": "uint8",
          "name": "version",
          "type": "uint8"
        }
      ],
      "name": "Initialized",
      "type": "event"
    },
    {
      "anonymous": false,
      "inputs": [
        {
          "indexed": true,
          "internalType": "uint64",
          "name": "numBatch",
          "type": "uint64"
        },
        {
          "indexed": false,
          "internalType": "bytes32",
          "name": "stateRoot",
          "type": "bytes32"
        },
        {
          "indexed": true,
          "internalType": "address",
          "name": "aggregator",
          "type": "address"
        }
      ],
      "name": "OverridePendingState",
      "type": "event"
    },
    {
      "anonymous": false,
      "inputs": [
        {
          "indexed": true,
          "internalType": "address",
          "name": "previousOwner",
          "type": "address"
        },
        {
          "indexed": true,
          "internalType": "address",
          "name": "newOwner",
          "type": "address"
        }
      ],
      "name": "OwnershipTransferred",
      "type": "event"
    },
    {
      "anonymous": false,
      "inputs": [
        {
          "indexed": false,
          "internalType": "bytes32",
          "name": "storedStateRoot",
          "type": "bytes32"
        },
        {
          "indexed": false,
          "internalType": "bytes32",
          "name": "provedStateRoot",
          "type": "bytes32"
        }
      ],
      "name": "ProveNonDeterministicPendingState",
      "type": "event"
    },
    {
      "anonymous": false,
      "inputs": [
        {
          "indexed": true,
          "internalType": "uint64",
          "name": "numBatch",
          "type": "uint64"
        }
      ],
      "name": "SequenceBatches",
      "type": "event"
    },
    {
      "anonymous": false,
      "inputs": [
        {
          "indexed": true,
          "internalType": "uint64",
          "name": "numBatch",
          "type": "uint64"
        }
      ],
      "name": "SequenceForceBatches",
      "type": "event"
    },
    {
      "anonymous": false,
      "inputs": [
        {
          "indexed": false,
          "internalType": "uint64",
          "name": "newforceBatchTimeout",
          "type": "uint64"
        }
      ],
      "name": "SetForceBatchTimeout",
      "type": "event"
    },
    {
      "anonymous": false,
      "inputs": [
        {
          "indexed": false,
          "internalType": "uint16",
          "name": "newMultiplierBatchFee",
          "type": "uint16"
        }
      ],
      "name": "SetMultiplierBatchFee",
      "type": "event"
    },
    {
      "anonymous": false,
      "inputs": [
        {
          "indexed": false,
          "internalType": "uint64",
          "name": "newPendingStateTimeout",
          "type": "uint64"
        }
      ],
      "name": "SetPendingStateTimeout",
      "type": "event"
    },
    {
      "anonymous": false,
      "inputs": [
        {
          "indexed": false,
          "internalType": "address",
          "name": "newTrustedAggregator",
          "type": "address"
        }
      ],
      "name": "SetTrustedAggregator",
      "type": "event"
    },
    {
      "anonymous": false,
      "inputs": [
        {
          "indexed": false,
          "internalType": "uint64",
          "name": "newTrustedAggregatorTimeout",
          "type": "uint64"
        }
      ],
      "name": "SetTrustedAggregatorTimeout",
      "type": "event"
    },
    {
      "anonymous": false,
      "inputs": [
        {
          "indexed": false,
          "internalType": "address",
          "name": "newTrustedSequencer",
          "type": "address"
        }
      ],
      "name": "SetTrustedSequencer",
      "type": "event"
    },
    {
      "anonymous": false,
      "inputs": [
        {
          "indexed": false,
          "internalType": "string",
          "name": "newTrustedSequencerURL",
          "type": "string"
        }
      ],
      "name": "SetTrustedSequencerURL",
      "type": "event"
    },
    {
      "anonymous": false,
      "inputs": [
        {
          "indexed": false,
          "internalType": "uint64",
          "name": "newVerifyBatchTimeTarget",
          "type": "uint64"
        }
      ],
      "name": "SetVerifyBatchTimeTarget",
      "type": "event"
    },
    {
      "anonymous": false,
      "inputs": [
        {
          "indexed": false,
          "internalType": "address",
          "name": "newPendingAdmin",
          "type": "address"
        }
      ],
      "name": "TransferAdminRole",
      "type": "event"
    },
    {
      "anonymous": false,
      "inputs": [
        {
          "indexed": false,
          "internalType": "uint64",
          "name": "numBatch",
          "type": "uint64"
        },
        {
          "indexed": false,
          "internalType": "uint64",
          "name": "forkID",
          "type": "uint64"
        },
        {
          "indexed": false,
          "internalType": "string",
          "name": "version",
          "type": "string"
        }
      ],
      "name": "UpdateZkEVMVersion",
      "type": "event"
    },
    {
      "anonymous": false,
      "inputs": [
        {
          "indexed": true,
          "internalType": "uint64",
          "name": "numBatch",
          "type": "uint64"
        },
        {
          "indexed": false,
          "internalType": "bytes32",
          "name": "stateRoot",
          "type": "bytes32"
        },
        {
          "indexed": true,
          "internalType": "address",
          "name": "aggregator",
          "type": "address"
        }
      ],
      "name": "VerifyBatches",
      "type": "event"
    },
    {
      "anonymous": false,
      "inputs": [
        {
          "indexed": true,
          "internalType": "uint64",
          "name": "numBatch",
          "type": "uint64"
        },
        {
          "indexed": false,
          "internalType": "bytes32",
          "name": "stateRoot",
          "type": "bytes32"
        },
        {
          "indexed": true,
          "internalType": "address",
          "name": "aggregator",
          "type": "address"
        }
      ],
      "name": "VerifyBatchesTrustedAggregator",
      "type": "event"
    },
    {
      "inputs": [],
      "name": "acceptAdminRole",
      "outputs": [],
      "stateMutability": "nonpayable",
      "type": "function"
    },
    {
      "inputs": [
        {
          "internalType": "uint64",
          "name": "sequencedBatchNum",
          "type": "uint64"
        }
      ],
      "name": "activateEmergencyState",
      "outputs": [],
      "stateMutability": "nonpayable",
      "type": "function"
    },
    {
      "inputs": [],
      "name": "activateForceBatches",
      "outputs": [],
      "stateMutability": "nonpayable",
      "type": "function"
    },
    {
      "inputs": [],
      "name": "admin",
      "outputs": [
        {
          "internalType": "address",
          "name": "",
          "type": "address"
        }
      ],
      "stateMutability": "view",
      "type": "function"
    },
    {
      "inputs": [],
      "name": "batchFee",
      "outputs": [
        {
          "internalType": "uint256",
          "name": "",
          "type": "uint256"
        }
      ],
      "stateMutability": "view",
      "type": "function"
    },
    {
      "inputs": [
        {
          "internalType": "uint64",
          "name": "",
          "type": "uint64"
        }
      ],
      "name": "batchNumToStateRoot",
      "outputs": [
        {
          "internalType": "bytes32",
          "name": "",
          "type": "bytes32"
        }
      ],
      "stateMutability": "view",
      "type": "function"
    },
    {
      "inputs": [],
      "name": "bridgeAddress",
      "outputs": [
        {
          "internalType": "contract IPolygonZkEVMBridge",
          "name": "",
          "type": "address"
        }
      ],
      "stateMutability": "view",
      "type": "function"
    },
    {
      "inputs": [
        {
          "internalType": "bytes32",
          "name": "currentAccInputHash",
          "type": "bytes32"
        },
        {
          "internalType": "bytes",
          "name": "transactions",
          "type": "bytes"
        },
        {
          "internalType": "bytes32",
          "name": "globalExitRoot",
          "type": "bytes32"
        },
        {
          "internalType": "uint64",
          "name": "timestamp",
          "type": "uint64"
        },
        {
          "internalType": "address",
          "name": "sequencerAddress",
          "type": "address"
        },
        {
          "internalType": "bytes32",
          "name": "forcedBlockHashL1",
          "type": "bytes32"
        }
      ],
      "name": "calculateAccInputHash",
      "outputs": [
        {
          "internalType": "bytes32",
          "name": "",
          "type": "bytes32"
        }
      ],
      "stateMutability": "pure",
      "type": "function"
    },
    {
      "inputs": [],
      "name": "calculateRewardPerBatch",
      "outputs": [
        {
          "internalType": "uint256",
          "name": "",
          "type": "uint256"
        }
      ],
      "stateMutability": "view",
      "type": "function"
    },
    {
      "inputs": [],
      "name": "chainID",
      "outputs": [
        {
          "internalType": "uint64",
          "name": "",
          "type": "uint64"
        }
      ],
      "stateMutability": "view",
      "type": "function"
    },
    {
      "inputs": [
        {
          "internalType": "uint256",
          "name": "newStateRoot",
          "type": "uint256"
        }
      ],
      "name": "checkStateRootInsidePrime",
      "outputs": [
        {
          "internalType": "bool",
          "name": "",
          "type": "bool"
        }
      ],
      "stateMutability": "pure",
      "type": "function"
    },
    {
      "inputs": [
        {
          "internalType": "uint64",
          "name": "pendingStateNum",
          "type": "uint64"
        }
      ],
      "name": "consolidatePendingState",
      "outputs": [],
      "stateMutability": "nonpayable",
      "type": "function"
    },
    {
      "inputs": [],
      "name": "deactivateEmergencyState",
      "outputs": [],
      "stateMutability": "nonpayable",
      "type": "function"
    },
    {
      "inputs": [
        {
          "internalType": "bytes",
          "name": "transactions",
          "type": "bytes"
        },
        {
          "internalType": "uint256",
          "name": "maticAmount",
          "type": "uint256"
        }
      ],
      "name": "forceBatch",
      "outputs": [],
      "stateMutability": "nonpayable",
      "type": "function"
    },
    {
      "inputs": [],
      "name": "forceBatchTimeout",
      "outputs": [
        {
          "internalType": "uint64",
          "name": "",
          "type": "uint64"
        }
      ],
      "stateMutability": "view",
      "type": "function"
    },
    {
      "inputs": [
        {
          "internalType": "uint64",
          "name": "",
          "type": "uint64"
        }
      ],
      "name": "forcedBatches",
      "outputs": [
        {
          "internalType": "bytes32",
          "name": "",
          "type": "bytes32"
        }
      ],
      "stateMutability": "view",
      "type": "function"
    },
    {
      "inputs": [],
      "name": "forkID",
      "outputs": [
        {
          "internalType": "uint64",
          "name": "",
          "type": "uint64"
        }
      ],
      "stateMutability": "view",
      "type": "function"
    },
    {
      "inputs": [],
      "name": "gapLastTimestamp",
      "outputs": [
        {
          "internalType": "uint64",
          "name": "",
          "type": "uint64"
        }
      ],
      "stateMutability": "view",
      "type": "function"
    },
    {
      "inputs": [],
      "name": "getForcedBatchFee",
      "outputs": [
        {
          "internalType": "uint256",
          "name": "",
          "type": "uint256"
        }
      ],
      "stateMutability": "view",
      "type": "function"
    },
    {
      "inputs": [
        {
          "internalType": "uint64",
          "name": "initNumBatch",
          "type": "uint64"
        },
        {
          "internalType": "uint64",
          "name": "finalNewBatch",
          "type": "uint64"
        },
        {
          "internalType": "bytes32",
          "name": "newLocalExitRoot",
          "type": "bytes32"
        },
        {
          "internalType": "bytes32",
          "name": "oldStateRoot",
          "type": "bytes32"
        },
        {
          "internalType": "bytes32",
          "name": "newStateRoot",
          "type": "bytes32"
        }
      ],
      "name": "getInputSnarkBytes",
      "outputs": [
        {
          "internalType": "bytes",
          "name": "",
          "type": "bytes"
        }
      ],
      "stateMutability": "view",
      "type": "function"
    },
    {
      "inputs": [],
      "name": "getLastVerifiedBatch",
      "outputs": [
        {
          "internalType": "uint64",
          "name": "",
          "type": "uint64"
        }
      ],
      "stateMutability": "view",
      "type": "function"
    },
    {
      "inputs": [
        {
          "internalType": "uint64",
          "name": "pendingStateNum",
          "type": "uint64"
        },
        {
          "internalType": "uint64",
          "name": "initNumBatch",
          "type": "uint64"
        },
        {
          "internalType": "uint64",
          "name": "finalNewBatch",
          "type": "uint64"
        },
        {
          "internalType": "bytes32",
          "name": "newLocalExitRoot",
          "type": "bytes32"
        },
        {
          "internalType": "bytes32",
          "name": "newStateRoot",
          "type": "bytes32"
        }
      ],
      "name": "getNextSnarkInput",
      "outputs": [
        {
          "internalType": "uint256",
          "name": "",
          "type": "uint256"
        }
      ],
      "stateMutability": "view",
      "type": "function"
    },
    {
      "inputs": [],
      "name": "globalExitRootManager",
      "outputs": [
        {
          "internalType": "contract IPolygonZkEVMGlobalExitRoot",
          "name": "",
          "type": "address"
        }
      ],
      "stateMutability": "view",
      "type": "function"
    },
    {
      "inputs": [
        {
          "components": [
            {
              "internalType": "address",
              "name": "admin",
              "type": "address"
            },
            {
              "internalType": "address",
              "name": "trustedSequencer",
              "type": "address"
            },
            {
              "internalType": "uint64",
              "name": "pendingStateTimeout",
              "type": "uint64"
            },
            {
              "internalType": "address",
              "name": "trustedAggregator",
              "type": "address"
            },
            {
              "internalType": "uint64",
              "name": "trustedAggregatorTimeout",
              "type": "uint64"
            }
          ],
          "internalType": "struct PolygonZkEVM.InitializePackedParameters",
          "name": "initializePackedParameters",
          "type": "tuple"
        },
        {
          "internalType": "bytes32",
          "name": "genesisRoot",
          "type": "bytes32"
        },
        {
          "internalType": "string",
          "name": "_trustedSequencerURL",
          "type": "string"
        },
        {
          "internalType": "string",
          "name": "_networkName",
          "type": "string"
        },
        {
          "internalType": "string",
          "name": "_version",
          "type": "string"
        }
      ],
      "name": "initialize",
      "outputs": [],
      "stateMutability": "nonpayable",
      "type": "function"
    },
    {
      "inputs": [],
      "name": "isEmergencyState",
      "outputs": [
        {
          "internalType": "bool",
          "name": "",
          "type": "bool"
        }
      ],
      "stateMutability": "view",
      "type": "function"
    },
    {
      "inputs": [],
      "name": "isForcedBatchDisallowed",
      "outputs": [
        {
          "internalType": "bool",
          "name": "",
          "type": "bool"
        }
      ],
      "stateMutability": "view",
      "type": "function"
    },
    {
      "inputs": [
        {
          "internalType": "uint64",
          "name": "pendingStateNum",
          "type": "uint64"
        }
      ],
      "name": "isPendingStateConsolidable",
      "outputs": [
        {
          "internalType": "bool",
          "name": "",
          "type": "bool"
        }
      ],
      "stateMutability": "view",
      "type": "function"
    },
    {
      "inputs": [],
      "name": "lastBatchSequenced",
      "outputs": [
        {
          "internalType": "uint64",
          "name": "",
          "type": "uint64"
        }
      ],
      "stateMutability": "view",
      "type": "function"
    },
    {
      "inputs": [],
      "name": "lastForceBatch",
      "outputs": [
        {
          "internalType": "uint64",
          "name": "",
          "type": "uint64"
        }
      ],
      "stateMutability": "view",
      "type": "function"
    },
    {
      "inputs": [],
      "name": "lastForceBatchSequenced",
      "outputs": [
        {
          "internalType": "uint64",
          "name": "",
          "type": "uint64"
        }
      ],
      "stateMutability": "view",
      "type": "function"
    },
    {
      "inputs": [],
      "name": "lastPendingState",
      "outputs": [
        {
          "internalType": "uint64",
          "name": "",
          "type": "uint64"
        }
      ],
      "stateMutability": "view",
      "type": "function"
    },
    {
      "inputs": [],
      "name": "lastPendingStateConsolidated",
      "outputs": [
        {
          "internalType": "uint64",
          "name": "",
          "type": "uint64"
        }
      ],
      "stateMutability": "view",
      "type": "function"
    },
    {
      "inputs": [],
      "name": "lastVerifiedBatch",
      "outputs": [
        {
          "internalType": "uint64",
          "name": "",
          "type": "uint64"
        }
      ],
      "stateMutability": "view",
      "type": "function"
    },
    {
      "inputs": [],
      "name": "matic",
      "outputs": [
        {
          "internalType": "contract IERC20Upgradeable",
          "name": "",
          "type": "address"
        }
      ],
      "stateMutability": "view",
      "type": "function"
    },
    {
      "inputs": [],
      "name": "multiplierBatchFee",
      "outputs": [
        {
          "internalType": "uint16",
          "name": "",
          "type": "uint16"
        }
      ],
      "stateMutability": "view",
      "type": "function"
    },
    {
      "inputs": [],
      "name": "networkName",
      "outputs": [
        {
          "internalType": "string",
          "name": "",
          "type": "string"
        }
      ],
      "stateMutability": "view",
      "type": "function"
    },
    {
      "inputs": [
        {
          "internalType": "uint64",
          "name": "initPendingStateNum",
          "type": "uint64"
        },
        {
          "internalType": "uint64",
          "name": "finalPendingStateNum",
          "type": "uint64"
        },
        {
          "internalType": "uint64",
          "name": "initNumBatch",
          "type": "uint64"
        },
        {
          "internalType": "uint64",
          "name": "finalNewBatch",
          "type": "uint64"
        },
        {
          "internalType": "bytes32",
          "name": "newLocalExitRoot",
          "type": "bytes32"
        },
        {
          "internalType": "bytes32",
          "name": "newStateRoot",
          "type": "bytes32"
        },
        {
          "internalType": "bytes",
          "name": "proof",
          "type": "bytes"
        }
      ],
      "name": "overridePendingState",
      "outputs": [],
      "stateMutability": "nonpayable",
      "type": "function"
    },
    {
      "inputs": [],
      "name": "owner",
      "outputs": [
        {
          "internalType": "address",
          "name": "",
          "type": "address"
        }
      ],
      "stateMutability": "view",
      "type": "function"
    },
    {
      "inputs": [],
      "name": "pendingAdmin",
      "outputs": [
        {
          "internalType": "address",
          "name": "",
          "type": "address"
        }
      ],
      "stateMutability": "view",
      "type": "function"
    },
    {
      "inputs": [],
      "name": "pendingStateTimeout",
      "outputs": [
        {
          "internalType": "uint64",
          "name": "",
          "type": "uint64"
        }
      ],
      "stateMutability": "view",
      "type": "function"
    },
    {
      "inputs": [
        {
          "internalType": "uint256",
          "name": "",
          "type": "uint256"
        }
      ],
      "name": "pendingStateTransitions",
      "outputs": [
        {
          "internalType": "uint64",
          "name": "timestamp",
          "type": "uint64"
        },
        {
          "internalType": "uint64",
          "name": "lastVerifiedBatch",
          "type": "uint64"
        },
        {
          "internalType": "bytes32",
          "name": "exitRoot",
          "type": "bytes32"
        },
        {
          "internalType": "bytes32",
          "name": "stateRoot",
          "type": "bytes32"
        }
      ],
      "stateMutability": "view",
      "type": "function"
    },
    {
      "inputs": [
        {
          "internalType": "uint64",
          "name": "initPendingStateNum",
          "type": "uint64"
        },
        {
          "internalType": "uint64",
          "name": "finalPendingStateNum",
          "type": "uint64"
        },
        {
          "internalType": "uint64",
          "name": "initNumBatch",
          "type": "uint64"
        },
        {
          "internalType": "uint64",
          "name": "finalNewBatch",
          "type": "uint64"
        },
        {
          "internalType": "bytes32",
          "name": "newLocalExitRoot",
          "type": "bytes32"
        },
        {
          "internalType": "bytes32",
          "name": "newStateRoot",
          "type": "bytes32"
        },
        {
          "internalType": "bytes",
          "name": "proof",
          "type": "bytes"
        }
      ],
      "name": "proveNonDeterministicPendingState",
      "outputs": [],
      "stateMutability": "nonpayable",
      "type": "function"
    },
    {
      "inputs": [],
      "name": "renounceOwnership",
      "outputs": [],
      "stateMutability": "nonpayable",
      "type": "function"
    },
    {
      "inputs": [],
      "name": "rollupVerifier",
      "outputs": [
        {
          "internalType": "contract IVerifierRollup",
          "name": "",
          "type": "address"
        }
      ],
      "stateMutability": "view",
      "type": "function"
    },
    {
      "inputs": [
        {
          "components": [
            {
              "internalType": "bytes",
              "name": "transactions",
              "type": "bytes"
            },
            {
              "internalType": "bytes32",
              "name": "lastGlobalExitRoot",
              "type": "bytes32"
            },
            {
              "internalType": "uint64",
              "name": "minForcedTimestamp",
              "type": "uint64"
            },
            {
              "internalType": "bytes32",
              "name": "forcedBlockHashL1",
              "type": "bytes32"
            }
          ],
          "internalType": "struct PolygonZkEVM.BatchData[]",
          "name": "batches",
          "type": "tuple[]"
        },
        {
          "internalType": "address",
          "name": "l2Coinbase",
          "type": "address"
        }
      ],
      "name": "sequenceBatches",
      "outputs": [],
      "stateMutability": "nonpayable",
      "type": "function"
    },
    {
      "inputs": [
        {
          "components": [
            {
              "internalType": "bytes",
              "name": "transactions",
              "type": "bytes"
            },
            {
              "internalType": "bytes32",
              "name": "lastGlobalExitRoot",
              "type": "bytes32"
            },
            {
              "internalType": "uint64",
              "name": "minForcedTimestamp",
              "type": "uint64"
            },
            {
              "internalType": "bytes32",
              "name": "forcedBlockHashL1",
              "type": "bytes32"
            }
          ],
          "internalType": "struct PolygonZkEVM.BatchData[]",
          "name": "batches",
          "type": "tuple[]"
        }
      ],
      "name": "sequenceForceBatches",
      "outputs": [],
      "stateMutability": "nonpayable",
      "type": "function"
    },
    {
      "inputs": [
        {
          "internalType": "uint64",
          "name": "",
          "type": "uint64"
        }
      ],
      "name": "sequencedBatches",
      "outputs": [
        {
          "internalType": "bytes32",
          "name": "accInputHash",
          "type": "bytes32"
        },
        {
          "internalType": "uint64",
          "name": "sequencedTimestamp",
          "type": "uint64"
        },
        {
          "internalType": "uint64",
          "name": "previousLastBatchSequenced",
          "type": "uint64"
        }
      ],
      "stateMutability": "view",
      "type": "function"
    },
    {
      "inputs": [
        {
          "internalType": "uint64",
          "name": "newforceBatchTimeout",
          "type": "uint64"
        }
      ],
      "name": "setForceBatchTimeout",
      "outputs": [],
      "stateMutability": "nonpayable",
      "type": "function"
    },
    {
      "inputs": [
        {
          "internalType": "uint16",
          "name": "newMultiplierBatchFee",
          "type": "uint16"
        }
      ],
      "name": "setMultiplierBatchFee",
      "outputs": [],
      "stateMutability": "nonpayable",
      "type": "function"
    },
    {
      "inputs": [
        {
          "internalType": "string",
          "name": "_networkName",
          "type": "string"
        }
      ],
      "name": "setNetworkName",
      "outputs": [],
      "stateMutability": "nonpayable",
      "type": "function"
    },
    {
      "inputs": [
        {
          "internalType": "uint64",
          "name": "newPendingStateTimeout",
          "type": "uint64"
        }
      ],
      "name": "setPendingStateTimeout",
      "outputs": [],
      "stateMutability": "nonpayable",
      "type": "function"
    },
    {
      "inputs": [
        {
          "internalType": "uint64",
          "name": "_numBatch",
          "type": "uint64"
        }
      ],
      "name": "setSequencedBatch",
      "outputs": [],
      "stateMutability": "nonpayable",
      "type": "function"
    },
    {
      "inputs": [
        {
          "internalType": "uint64",
          "name": "batchNum",
          "type": "uint64"
        },
        {
          "internalType": "bytes32",
          "name": "accInputData",
          "type": "bytes32"
        },
        {
          "internalType": "uint64",
          "name": "timestamp",
          "type": "uint64"
        },
        {
          "internalType": "uint64",
          "name": "lastPendingStateConsolidated",
          "type": "uint64"
        }
      ],
      "name": "setSequencedBatches",
      "outputs": [],
      "stateMutability": "nonpayable",
      "type": "function"
    },
    {
      "inputs": [
        {
          "internalType": "bytes32",
          "name": "newStateRoot",
          "type": "bytes32"
        },
        {
          "internalType": "uint64",
          "name": "batchNum",
          "type": "uint64"
        }
      ],
      "name": "setStateRoot",
      "outputs": [],
      "stateMutability": "nonpayable",
      "type": "function"
    },
    {
      "inputs": [
        {
          "internalType": "address",
          "name": "newTrustedAggregator",
          "type": "address"
        }
      ],
      "name": "setTrustedAggregator",
      "outputs": [],
      "stateMutability": "nonpayable",
      "type": "function"
    },
    {
      "inputs": [
        {
          "internalType": "uint64",
          "name": "newTrustedAggregatorTimeout",
          "type": "uint64"
        }
      ],
      "name": "setTrustedAggregatorTimeout",
      "outputs": [],
      "stateMutability": "nonpayable",
      "type": "function"
    },
    {
      "inputs": [
        {
          "internalType": "address",
          "name": "newTrustedSequencer",
          "type": "address"
        }
      ],
      "name": "setTrustedSequencer",
      "outputs": [],
      "stateMutability": "nonpayable",
      "type": "function"
    },
    {
      "inputs": [
        {
          "internalType": "string",
          "name": "newTrustedSequencerURL",
          "type": "string"
        }
      ],
      "name": "setTrustedSequencerURL",
      "outputs": [],
      "stateMutability": "nonpayable",
      "type": "function"
    },
    {
      "inputs": [
        {
          "internalType": "uint64",
          "name": "_numBatch",
          "type": "uint64"
        }
      ],
      "name": "setVerifiedBatch",
      "outputs": [],
      "stateMutability": "nonpayable",
      "type": "function"
    },
    {
      "inputs": [
        {
          "internalType": "uint64",
          "name": "newVerifyBatchTimeTarget",
          "type": "uint64"
        }
      ],
      "name": "setVerifyBatchTimeTarget",
      "outputs": [],
      "stateMutability": "nonpayable",
      "type": "function"
    },
    {
      "inputs": [
        {
          "internalType": "address",
          "name": "newPendingAdmin",
          "type": "address"
        }
      ],
      "name": "transferAdminRole",
      "outputs": [],
      "stateMutability": "nonpayable",
      "type": "function"
    },
    {
      "inputs": [
        {
          "internalType": "address",
          "name": "newOwner",
          "type": "address"
        }
      ],
      "name": "transferOwnership",
      "outputs": [],
      "stateMutability": "nonpayable",
      "type": "function"
    },
    {
      "inputs": [],
      "name": "trustedAggregator",
      "outputs": [
        {
          "internalType": "address",
          "name": "",
          "type": "address"
        }
      ],
      "stateMutability": "view",
      "type": "function"
    },
    {
      "inputs": [],
      "name": "trustedAggregatorTimeout",
      "outputs": [
        {
          "internalType": "uint64",
          "name": "",
          "type": "uint64"
        }
      ],
      "stateMutability": "view",
      "type": "function"
    },
    {
      "inputs": [],
      "name": "trustedSequencer",
      "outputs": [
        {
          "internalType": "address",
          "name": "",
          "type": "address"
        }
      ],
      "stateMutability": "view",
      "type": "function"
    },
    {
      "inputs": [],
      "name": "trustedSequencerURL",
      "outputs": [
        {
          "internalType": "string",
          "name": "",
          "type": "string"
        }
      ],
      "stateMutability": "view",
      "type": "function"
    },
    {
      "inputs": [
        {
          "internalType": "uint64",
          "name": "pendingStateNum",
          "type": "uint64"
        },
        {
          "internalType": "uint64",
          "name": "initNumBatch",
          "type": "uint64"
        },
        {
          "internalType": "uint64",
          "name": "finalNewBatch",
          "type": "uint64"
        },
        {
          "internalType": "bytes32",
          "name": "newLocalExitRoot",
          "type": "bytes32"
        },
        {
          "internalType": "bytes32",
          "name": "newStateRoot",
          "type": "bytes32"
        },
        {
          "internalType": "uint256[2]",
          "name": "proofA",
          "type": "uint256[2]"
        },
        {
          "internalType": "uint256[2][2]",
          "name": "proofB",
          "type": "uint256[2][2]"
        },
        {
          "internalType": "uint256[2]",
          "name": "proofC",
          "type": "uint256[2]"
        }
      ],
      "name": "trustedVerifyBatchesMock",
      "outputs": [],
      "stateMutability": "nonpayable",
      "type": "function"
    },
    {
      "inputs": [
        {
          "internalType": "uint64",
          "name": "newLastVerifiedBatch",
          "type": "uint64"
        }
      ],
      "name": "updateBatchFee",
      "outputs": [],
      "stateMutability": "nonpayable",
      "type": "function"
    },
    {
      "inputs": [],
      "name": "verifyBatchTimeTarget",
      "outputs": [
        {
          "internalType": "uint64",
          "name": "",
          "type": "uint64"
        }
      ],
      "stateMutability": "view",
      "type": "function"
    },
    {
      "inputs": [
        {
          "internalType": "uint64",
          "name": "pendingStateNum",
          "type": "uint64"
        },
        {
          "internalType": "uint64",
          "name": "initNumBatch",
          "type": "uint64"
        },
        {
          "internalType": "uint64",
          "name": "finalNewBatch",
          "type": "uint64"
        },
        {
          "internalType": "bytes32",
          "name": "newLocalExitRoot",
          "type": "bytes32"
        },
        {
          "internalType": "bytes32",
          "name": "newStateRoot",
          "type": "bytes32"
        },
        {
          "internalType": "bytes",
          "name": "proof",
          "type": "bytes"
        }
      ],
      "name": "verifyBatches",
      "outputs": [],
      "stateMutability": "nonpayable",
      "type": "function"
    },
    {
      "inputs": [
        {
          "internalType": "uint64",
          "name": "pendingStateNum",
          "type": "uint64"
        },
        {
          "internalType": "uint64",
          "name": "initNumBatch",
          "type": "uint64"
        },
        {
          "internalType": "uint64",
          "name": "finalNewBatch",
          "type": "uint64"
        },
        {
          "internalType": "bytes32",
          "name": "newLocalExitRoot",
          "type": "bytes32"
        },
        {
          "internalType": "bytes32",
          "name": "newStateRoot",
          "type": "bytes32"
        },
        {
          "internalType": "bytes",
          "name": "proof",
          "type": "bytes"
        }
      ],
      "name": "verifyBatchesTrustedAggregator",
      "outputs": [],
      "stateMutability": "nonpayable",
      "type": "function"
    }
  ],
  "bytecode": "0x6101406040523480156200001257600080fd5b506040516200704a3803806200704a8339810160408190526200003591620000a5565b6001600160a01b0395861660c05293851660805291841660a05290921660e0526001600160401b0391821661010052166101205262000131565b6001600160a01b03811681146200008557600080fd5b50565b80516001600160401b0381168114620000a057600080fd5b919050565b60008060008060008060c08789031215620000bf57600080fd5b8651620000cc816200006f565b6020880151909650620000df816200006f565b6040880151909550620000f2816200006f565b606088015190945062000105816200006f565b9250620001156080880162000088565b91506200012560a0880162000088565b90509295509295509295565b60805160a05160c05160e0516101005161012051616e3d6200020d6000396000818161081c01528181611b4d0152613a590152600081816109c20152611b2301526000818161097501528181613b5101528181613fd70152818161441d01526150af015260008181610b54015281816117fd015281816121c1015281816132af01528181613d7e015281816140590152818161449f0152615300015260008181610c1401528181614f9c015261566c015260008181610a910152818161282501528181613fad01528181614a4a015261575b0152616e3d6000f3fe608060405234801561001057600080fd5b506004361061048d5760003560e01c806396dc3d391161026b578063c89e42df11610150578063e8bf92ed116100c8578063f14916d611610097578063f851a4401161007c578063f851a44014610caf578063f8b823e414610ccf578063fe16564f14610cd857600080fd5b8063f14916d614610c89578063f2fde38b14610c9c57600080fd5b8063e8bf92ed14610c0f578063eaeb077b14610c36578063ecef3f9914610c49578063ed6b010414610c5c57600080fd5b8063d939b3151161011f578063e0d1744111610104578063e0d1744114610bb9578063e6ad707e14610bcc578063e7a7ed0214610bdf57600080fd5b8063d939b31514610b89578063dbc1697614610bb157600080fd5b8063c89e42df14610b0d578063cfa8ed4714610b20578063d02103ca14610b4f578063d2e129f914610b7657600080fd5b8063adc879e9116101e3578063b6b0b097116101b2578063c0cad30211610197578063c0cad30214610ac6578063c0ed84e014610ad9578063c754c7ed14610ae157600080fd5b8063b6b0b09714610a8c578063ba58ae3914610ab357600080fd5b8063adc879e9146109bd578063afd23cbe146109e4578063b4d63f5814610a12578063b4f77ea914610a7957600080fd5b80639f26f8401161023a578063a3c573eb1161021f578063a3c573eb14610970578063a50a164b14610997578063ada8f919146109aa57600080fd5b80639f26f8401461094a578063a066215c1461095d57600080fd5b806396dc3d391461090957806399f5634e1461091c5780639b796760146109245780639c9f3dfe1461093757600080fd5b80634a910e6a11610391578063715018a611610309578063831c7ead116102d8578063841b24d7116102bd578063841b24d7146108b35780638c3d7301146108e35780638da5cb5b146108eb57600080fd5b8063831c7ead14610817578063837a47381461083e57600080fd5b8063715018a6146107355780637215541a1461073d5780637fcb365314610750578063801ede001461076457600080fd5b8063542028d511610360578063604691691161034557806360469169146106fa5780636b8616ce146107025780636ff512cc1461072257600080fd5b8063542028d5146106ea5780635ec91958146106f257600080fd5b80634a910e6a146106915780634e487706146106a45780634fd70464146106b75780635392c5e0146106ca57600080fd5b80632678224711610424578063394218e9116103f357806345605267116103d85780634560526714610635578063458c04771461065d5780634a1a89a71461067157600080fd5b8063394218e914610602578063423fa8561461061557600080fd5b8063267822471461056a57806329878983146105af5780632a9f208f146105db578063383b3be8146105ef57600080fd5b806310a01a721161046057806310a01a721461051457806315064c96146105275780631816b7e514610544578063220d78991461055757600080fd5b80630808270c146104925780630a0d9fbe146104a75780630eaa86ea146104de578063107bf28c146104ff575b600080fd5b6104a56104a0366004616101565b610ceb565b005b606f546104c090610100900467ffffffffffffffff1681565b60405167ffffffffffffffff90911681526020015b60405180910390f35b6104f16104ec36600461619a565b610d9e565b6040519081526020016104d5565b610507611276565b6040516104d5919061625d565b6104a561052236600461628e565b611304565b606f546105349060ff1681565b60405190151581526020016104d5565b6104a5610552366004616321565b6118bc565b610507610565366004616345565b6119d4565b607b5461058a9073ffffffffffffffffffffffffffffffffffffffff1681565b60405173ffffffffffffffffffffffffffffffffffffffff90911681526020016104d5565b60745461058a9068010000000000000000900473ffffffffffffffffffffffffffffffffffffffff1681565b6073546104c09067ffffffffffffffff1681565b6105346105fd366004616392565b611bab565b6104a5610610366004616392565b611c01565b6073546104c09068010000000000000000900467ffffffffffffffff1681565b6073546104c090700100000000000000000000000000000000900467ffffffffffffffff1681565b6079546104c09067ffffffffffffffff1681565b6079546104c09068010000000000000000900467ffffffffffffffff1681565b6104a561069f366004616392565b611d85565b6104a56106b2366004616392565b611e38565b6104a56106c53660046163ad565b611fbc565b6104f16106d8366004616392565b60756020526000908152604090205481565b610507612352565b6104a561235f565b6104f161245f565b6104f1610710366004616392565b60716020526000908152604090205481565b6104a561073036600461645a565b612475565b6104a561254a565b6104a561074b366004616392565b61255e565b6074546104c09067ffffffffffffffff1681565b6104f161077236600461654f565b845160208087019190912060408051928301899052820152606080820186905260c085901b7fffffffffffffffff00000000000000000000000000000000000000000000000016608083015283901b7fffffffffffffffffffffffffffffffffffffffff000000000000000000000000166088820152609c810182905260009060bc016040516020818303038152906040528051906020012090509695505050505050565b6104c07f000000000000000000000000000000000000000000000000000000000000000081565b61088761084c3660046165c9565b60786020526000908152604090208054600182015460029092015467ffffffffffffffff808316936801000000000000000090930416919084565b6040805167ffffffffffffffff95861681529490931660208501529183015260608201526080016104d5565b6079546104c0907801000000000000000000000000000000000000000000000000900467ffffffffffffffff1681565b6104a56126ce565b60335473ffffffffffffffffffffffffffffffffffffffff1661058a565b6104a5610917366004616392565b61279a565b6104f16127dd565b6104a5610932366004616392565b612936565b6104a5610945366004616392565b612985565b6104a5610958366004616627565b612b01565b6104a561096b366004616392565b613093565b61058a7f000000000000000000000000000000000000000000000000000000000000000081565b6104a56109a53660046163ad565b613199565b6104a56109b836600461645a565b61335e565b6104c07f000000000000000000000000000000000000000000000000000000000000000081565b606f546109ff906901000000000000000000900461ffff1681565b60405161ffff90911681526020016104d5565b610a53610a20366004616392565b6072602052600090815260409020805460019091015467ffffffffffffffff808216916801000000000000000090041683565b6040805193845267ffffffffffffffff92831660208501529116908201526060016104d5565b6104a5610a87366004616392565b613422565b61058a7f000000000000000000000000000000000000000000000000000000000000000081565b610534610ac13660046165c9565b613433565b6104a5610ad4366004616669565b6134bd565b6104c06134d5565b607b546104c09074010000000000000000000000000000000000000000900467ffffffffffffffff1681565b6104a5610b1b366004616669565b61352a565b606f5461058a906b010000000000000000000000900473ffffffffffffffffffffffffffffffffffffffff1681565b61058a7f000000000000000000000000000000000000000000000000000000000000000081565b6104a5610b8436600461669e565b6135b7565b6079546104c090700100000000000000000000000000000000900467ffffffffffffffff1681565b6104a5613afe565b6104a5610bc7366004616751565b613bd7565b6104a5610bda366004616101565b613c67565b6073546104c0907801000000000000000000000000000000000000000000000000900467ffffffffffffffff1681565b61058a7f000000000000000000000000000000000000000000000000000000000000000081565b6104a5610c4436600461679e565b613e77565b6104a5610c573660046167ea565b614306565b607b54610534907c0100000000000000000000000000000000000000000000000000000000900460ff1681565b6104a5610c9736600461645a565b614abc565b6104a5610caa36600461645a565b614b8e565b607a5461058a9073ffffffffffffffffffffffffffffffffffffffff1681565b6104f160705481565b6104a5610ce636600461683e565b614c42565b606f5460ff1615610d28576040517f2f0047fc00000000000000000000000000000000000000000000000000000000815260040160405180910390fd5b610d388888888888888888614c65565b67ffffffffffffffff85166000908152607560209081526040918290205482519081529081018590527f1f44c21118c4603cfb4e1b621dbcfa2b73efcececee2b99b620b2953d33a7010910160405180910390a1610d946150ad565b5050505050505050565b6000806000610dab6134d5565b905067ffffffffffffffff881615610f785760795467ffffffffffffffff9081169089161115610e88576040517f08c379a000000000000000000000000000000000000000000000000000000000815260206004820152605860248201527f506f6c79676f6e5a6b45564d3a3a766572696679426174636865733a2070656e60448201527f64696e6753746174654e756d206d757374206265206c657373206f722065717560648201527f616c207468616e206c61737450656e64696e6753746174650000000000000000608482015260a4015b60405180910390fd5b67ffffffffffffffff8089166000908152607860205260409020600281015481549094509091898116680100000000000000009092041614610f72576040517f08c379a000000000000000000000000000000000000000000000000000000000815260206004820152604c60248201527f506f6c79676f6e5a6b45564d3a3a766572696679426174636865733a20696e6960448201527f744e756d4261746368206d757374206d61746368207468652070656e64696e6760648201527f2073746174652062617463680000000000000000000000000000000000000000608482015260a401610e7f565b50611111565b67ffffffffffffffff8716600090815260756020526040902054915081611047576040517f08c379a000000000000000000000000000000000000000000000000000000000815260206004820152604360248201527f506f6c79676f6e5a6b45564d3a3a766572696679426174636865733a20696e6960448201527f744e756d426174636820737461746520726f6f7420646f6573206e6f7420657860648201527f6973740000000000000000000000000000000000000000000000000000000000608482015260a401610e7f565b8067ffffffffffffffff168767ffffffffffffffff161115611111576040517f08c379a000000000000000000000000000000000000000000000000000000000815260206004820152605d60248201527f506f6c79676f6e5a6b45564d3a3a766572696679426174636865733a20696e6960448201527f744e756d4261746368206d757374206265206c657373206f7220657175616c2060648201527f7468616e2063757272656e744c61737456657269666965644261746368000000608482015260a401610e7f565b8067ffffffffffffffff168667ffffffffffffffff16116111da576040517f08c379a000000000000000000000000000000000000000000000000000000000815260206004820152605760248201527f506f6c79676f6e5a6b45564d3a3a766572696679426174636865733a2066696e60448201527f616c4e65774261746368206d75737420626520626967676572207468616e206360648201527f757272656e744c61737456657269666965644261746368000000000000000000608482015260a401610e7f565b60006111e988888886896119d4565b905060007f30644e72e131a029b85045b68181585d2833e84879b9709143e1f593f000000160028360405161121e919061686a565b602060405180830381855afa15801561123b573d6000803e3d6000fd5b5050506040513d601f19601f8201168201806040525081019061125e9190616886565b61126891906168ce565b9a9950505050505050505050565b60778054611283906168e2565b80601f01602080910402602001604051908101604052809291908181526020018280546112af906168e2565b80156112fc5780601f106112d1576101008083540402835291602001916112fc565b820191906000526020600020905b8154815290600101906020018083116112df57829003601f168201915b505050505081565b61130c615135565b6000806113176134d5565b905067ffffffffffffffff8a16156114df5760795467ffffffffffffffff908116908b1611156113ef576040517f08c379a000000000000000000000000000000000000000000000000000000000815260206004820152605860248201527f506f6c79676f6e5a6b45564d3a3a766572696679426174636865733a2070656e60448201527f64696e6753746174654e756d206d757374206265206c657373206f722065717560648201527f616c207468616e206c61737450656e64696e6753746174650000000000000000608482015260a401610e7f565b67ffffffffffffffff808b1660009081526078602052604090206002810154815490945090918b81166801000000000000000090920416146114d9576040517f08c379a000000000000000000000000000000000000000000000000000000000815260206004820152604c60248201527f506f6c79676f6e5a6b45564d3a3a766572696679426174636865733a20696e6960448201527f744e756d4261746368206d757374206d61746368207468652070656e64696e6760648201527f2073746174652062617463680000000000000000000000000000000000000000608482015260a401610e7f565b50611678565b67ffffffffffffffff89166000908152607560205260409020549150816115ae576040517f08c379a000000000000000000000000000000000000000000000000000000000815260206004820152604360248201527f506f6c79676f6e5a6b45564d3a3a766572696679426174636865733a20696e6960448201527f744e756d426174636820737461746520726f6f7420646f6573206e6f7420657860648201527f6973740000000000000000000000000000000000000000000000000000000000608482015260a401610e7f565b8067ffffffffffffffff168967ffffffffffffffff161115611678576040517f08c379a000000000000000000000000000000000000000000000000000000000815260206004820152605d60248201527f506f6c79676f6e5a6b45564d3a3a766572696679426174636865733a20696e6960448201527f744e756d4261746368206d757374206265206c657373206f7220657175616c2060648201527f7468616e2063757272656e744c61737456657269666965644261746368000000608482015260a401610e7f565b8067ffffffffffffffff168867ffffffffffffffff1611611741576040517f08c379a000000000000000000000000000000000000000000000000000000000815260206004820152605760248201527f506f6c79676f6e5a6b45564d3a3a766572696679426174636865733a2066696e60448201527f616c4e65774261746368206d75737420626520626967676572207468616e206360648201527f757272656e744c61737456657269666965644261746368000000000000000000608482015260a401610e7f565b60006117508a8a8a868b6119d4565b607480547fffffffffffffffffffffffffffffffffffffffffffffffff00000000000000001667ffffffffffffffff8c8116918217909255600090815260756020526040902089905560795491925016156117ce57607980547fffffffffffffffffffffffffffffffff000000000000000000000000000000001690555b6040517f33d6247d000000000000000000000000000000000000000000000000000000008152600481018990527f000000000000000000000000000000000000000000000000000000000000000073ffffffffffffffffffffffffffffffffffffffff16906333d6247d90602401600060405180830381600087803b15801561185657600080fd5b505af115801561186a573d6000803e3d6000fd5b505060405189815233925067ffffffffffffffff8c1691507fcb339b570a7f0b25afa7333371ff11192092a0aeace12b671f4c212f2815c6fe9060200160405180910390a35050505050505050505050565b607a5473ffffffffffffffffffffffffffffffffffffffff16331461190d576040517f4755657900000000000000000000000000000000000000000000000000000000815260040160405180910390fd5b6103e88161ffff16108061192657506103ff8161ffff16115b1561195d576040517f4c2533c800000000000000000000000000000000000000000000000000000000815260040160405180910390fd5b606f80547fffffffffffffffffffffffffffffffffffffffffff0000ffffffffffffffffff16690100000000000000000061ffff8416908102919091179091556040519081527f7019933d795eba185c180209e8ae8bffbaa25bcef293364687702c31f4d302c5906020015b60405180910390a150565b67ffffffffffffffff8086166000818152607260205260408082205493881682529020546060929115801590611a08575081155b15611a3f576040517f6818c29e00000000000000000000000000000000000000000000000000000000815260040160405180910390fd5b80611a76576040517f66385b5100000000000000000000000000000000000000000000000000000000815260040160405180910390fd5b611a7f84613433565b611ab5576040517f176b913c00000000000000000000000000000000000000000000000000000000815260040160405180910390fd5b604080517fffffffffffffffffffffffffffffffffffffffff0000000000000000000000003360601b166020820152603481019690965260548601929092527fffffffffffffffff00000000000000000000000000000000000000000000000060c098891b811660748701527f0000000000000000000000000000000000000000000000000000000000000000891b8116607c8701527f0000000000000000000000000000000000000000000000000000000000000000891b81166084870152608c86019490945260ac85015260cc840194909452509290931b90911660ec830152805180830360d401815260f4909201905290565b60795467ffffffffffffffff82811660009081526078602052604081205490924292611bef9270010000000000000000000000000000000090920481169116616964565b67ffffffffffffffff16111592915050565b607a5473ffffffffffffffffffffffffffffffffffffffff163314611c52576040517f4755657900000000000000000000000000000000000000000000000000000000815260040160405180910390fd5b62093a8067ffffffffffffffff82161115611c99576040517f1d06e87900000000000000000000000000000000000000000000000000000000815260040160405180910390fd5b606f5460ff16611d085760795467ffffffffffffffff7801000000000000000000000000000000000000000000000000909104811690821610611d08576040517f401636df00000000000000000000000000000000000000000000000000000000815260040160405180910390fd5b6079805477ffffffffffffffffffffffffffffffffffffffffffffffff16780100000000000000000000000000000000000000000000000067ffffffffffffffff8416908102919091179091556040519081527f1f4fa24c2e4bad19a7f3ec5c5485f70d46c798461c2e684f55bbd0fc661373a1906020016119c9565b60745468010000000000000000900473ffffffffffffffffffffffffffffffffffffffff163314611e2c57606f5460ff1615611ded576040517f2f0047fc00000000000000000000000000000000000000000000000000000000815260040160405180910390fd5b611df681611bab565b611e2c576040517f0ce9e4a200000000000000000000000000000000000000000000000000000000815260040160405180910390fd5b611e35816151b6565b50565b607a5473ffffffffffffffffffffffffffffffffffffffff163314611e89576040517f4755657900000000000000000000000000000000000000000000000000000000815260040160405180910390fd5b62093a8067ffffffffffffffff82161115611ed0576040517ff5e37f2f00000000000000000000000000000000000000000000000000000000815260040160405180910390fd5b606f5460ff16611f3b57607b5467ffffffffffffffff74010000000000000000000000000000000000000000909104811690821610611f3b576040517ff5e37f2f00000000000000000000000000000000000000000000000000000000815260040160405180910390fd5b607b80547fffffffff0000000000000000ffffffffffffffffffffffffffffffffffffffff167401000000000000000000000000000000000000000067ffffffffffffffff8416908102919091179091556040519081527fa7eb6cb8a613eb4e8bddc1ac3d61ec6cf10898760f0b187bcca794c6ca6fa40b906020016119c9565b606f5460ff1615611ff9576040517f2f0047fc00000000000000000000000000000000000000000000000000000000815260040160405180910390fd5b60795467ffffffffffffffff868116600090815260726020526040902060010154429261204692780100000000000000000000000000000000000000000000000090910481169116616964565b67ffffffffffffffff161115612088576040517f8a0704d300000000000000000000000000000000000000000000000000000000815260040160405180910390fd5b6103e8612095878761698c565b67ffffffffffffffff1611156120d7576040517fb59f753a00000000000000000000000000000000000000000000000000000000815260040160405180910390fd5b6120e6878787878787876153c9565b6120ef85615782565b607954700100000000000000000000000000000000900467ffffffffffffffff1660000361223757607480547fffffffffffffffffffffffffffffffffffffffffffffffff00000000000000001667ffffffffffffffff8781169182179092556000908152607560205260409020849055607954161561219257607980547fffffffffffffffffffffffffffffffff000000000000000000000000000000001690555b6040517f33d6247d000000000000000000000000000000000000000000000000000000008152600481018590527f000000000000000000000000000000000000000000000000000000000000000073ffffffffffffffffffffffffffffffffffffffff16906333d6247d90602401600060405180830381600087803b15801561221a57600080fd5b505af115801561222e573d6000803e3d6000fd5b50505050612307565b61223f615962565b6079805467ffffffffffffffff16906000612259836169ad565b825467ffffffffffffffff9182166101009390930a92830292820219169190911790915560408051608081018252428316815288831660208083019182528284018a8152606084018a815260795487166000908152607890935294909120925183549251861668010000000000000000027fffffffffffffffffffffffffffffffff000000000000000000000000000000009093169516949094171781559151600183015551600290910155505b604051838152339067ffffffffffffffff8716907f9c72852172521097ba7e1482e6b44b351323df0155f97f4ea18fcec28e1f5966906020015b60405180910390a350505050505050565b60768054611283906168e2565b607a5473ffffffffffffffffffffffffffffffffffffffff1633146123b0576040517f4755657900000000000000000000000000000000000000000000000000000000815260040160405180910390fd5b607b547c0100000000000000000000000000000000000000000000000000000000900460ff1661240c576040517ff6ba91a100000000000000000000000000000000000000000000000000000000815260040160405180910390fd5b607b80547fffffff00ffffffffffffffffffffffffffffffffffffffffffffffffffffffff1690556040517f854dd6ce5a1445c4c54388b21cffd11cf5bba1b9e763aec48ce3da75d617412f90600090a1565b6000607054606461247091906169d4565b905090565b607a5473ffffffffffffffffffffffffffffffffffffffff1633146124c6576040517f4755657900000000000000000000000000000000000000000000000000000000815260040160405180910390fd5b606f80547fff0000000000000000000000000000000000000000ffffffffffffffffffffff166b01000000000000000000000073ffffffffffffffffffffffffffffffffffffffff8416908102919091179091556040519081527ff54144f9611984021529f814a1cb6a41e22c58351510a0d9f7e822618abb9cc0906020016119c9565b612552615135565b61255c6000615a0f565b565b60335473ffffffffffffffffffffffffffffffffffffffff1633146126c65760006125876134d5565b90508067ffffffffffffffff168267ffffffffffffffff16116125d6576040517f812a372d00000000000000000000000000000000000000000000000000000000815260040160405180910390fd5b60735467ffffffffffffffff680100000000000000009091048116908316118061261c575067ffffffffffffffff80831660009081526072602052604090206001015416155b15612653576040517f98c5c01400000000000000000000000000000000000000000000000000000000815260040160405180910390fd5b67ffffffffffffffff80831660009081526072602052604090206001015442916126829162093a809116616964565b67ffffffffffffffff1611156126c4576040517fd257555a00000000000000000000000000000000000000000000000000000000815260040160405180910390fd5b505b611e356150ad565b607b5473ffffffffffffffffffffffffffffffffffffffff16331461271f576040517fd1ec4b2300000000000000000000000000000000000000000000000000000000815260040160405180910390fd5b607b54607a80547fffffffffffffffffffffffff00000000000000000000000000000000000000001673ffffffffffffffffffffffffffffffffffffffff90921691821790556040519081527f056dc487bbf0795d0bbb1b4f0af523a855503cff740bfb4d5475f7a90c091e8e9060200160405180910390a1565b6127a2615135565b607480547fffffffffffffffffffffffffffffffffffffffffffffffff00000000000000001667ffffffffffffffff92909216919091179055565b6040517f70a08231000000000000000000000000000000000000000000000000000000008152306004820152600090819073ffffffffffffffffffffffffffffffffffffffff7f000000000000000000000000000000000000000000000000000000000000000016906370a0823190602401602060405180830381865afa15801561286c573d6000803e3d6000fd5b505050506040513d601f19601f820116820180604052508101906128909190616886565b9050600061289c6134d5565b60735467ffffffffffffffff6801000000000000000082048116916128f4917001000000000000000000000000000000008204811691780100000000000000000000000000000000000000000000000090041661698c565b6128fe9190616964565b612908919061698c565b67ffffffffffffffff169050806000036129255760009250505090565b61292f81836169eb565b9250505090565b61293e615135565b6073805467ffffffffffffffff90921668010000000000000000027fffffffffffffffffffffffffffffffff0000000000000000ffffffffffffffff909216919091179055565b607a5473ffffffffffffffffffffffffffffffffffffffff1633146129d6576040517f4755657900000000000000000000000000000000000000000000000000000000815260040160405180910390fd5b62093a8067ffffffffffffffff82161115612a1d576040517fcc96507000000000000000000000000000000000000000000000000000000000815260040160405180910390fd5b606f5460ff16612a845760795467ffffffffffffffff700100000000000000000000000000000000909104811690821610612a84576040517f48a05a9000000000000000000000000000000000000000000000000000000000815260040160405180910390fd5b607980547fffffffffffffffff0000000000000000ffffffffffffffffffffffffffffffff1670010000000000000000000000000000000067ffffffffffffffff8416908102919091179091556040519081527fc4121f4e22c69632ebb7cf1f462be0511dc034f999b52013eddfb24aab765c75906020016119c9565b607b547c0100000000000000000000000000000000000000000000000000000000900460ff1615612b5e576040517f24eff8c300000000000000000000000000000000000000000000000000000000815260040160405180910390fd5b606f5460ff1615612b9b576040517f2f0047fc00000000000000000000000000000000000000000000000000000000815260040160405180910390fd5b806000819003612bd7576040517fcb591a5f00000000000000000000000000000000000000000000000000000000815260040160405180910390fd5b6103e8811115612c13576040517fb59f753a00000000000000000000000000000000000000000000000000000000815260040160405180910390fd5b60735467ffffffffffffffff78010000000000000000000000000000000000000000000000008204811691612c5e9184917001000000000000000000000000000000009004166169ff565b1115612c96576040517fc630a00d00000000000000000000000000000000000000000000000000000000815260040160405180910390fd5b60735467ffffffffffffffff680100000000000000008204811660008181526072602052604081205491937001000000000000000000000000000000009004909216915b84811015612f59576000878783818110612cf657612cf6616a12565b9050602002810190612d089190616a41565b612d1190616a75565b905083612d1d816169ad565b825180516020918201208185015160408087015160608801519151959a50929550600094612d8a948794929101938452602084019290925260c01b7fffffffffffffffff000000000000000000000000000000000000000000000000166040830152604882015260680190565b604080517fffffffffffffffffffffffffffffffffffffffffffffffffffffffffffffffe0818403018152918152815160209283012067ffffffffffffffff8916600090815260719093529120549091508114612e13576040517fce3d755e00000000000000000000000000000000000000000000000000000000815260040160405180910390fd5b67ffffffffffffffff8616600090815260716020526040812055612e38600189616afc565b8403612ea75742607b60149054906101000a900467ffffffffffffffff168460400151612e659190616964565b67ffffffffffffffff161115612ea7576040517fc44a082100000000000000000000000000000000000000000000000000000000815260040160405180910390fd5b60208381015160408086015160608088015183519586018b90529285018790528481019390935260c01b7fffffffffffffffff0000000000000000000000000000000000000000000000001660808401523390911b7fffffffffffffffffffffffffffffffffffffffff000000000000000000000000166088830152609c82015260bc016040516020818303038152906040528051906020012094505050508080612f5190616b0f565b915050612cda565b50612f648484616964565b6040805160608101825283815267ffffffffffffffff4281166020808401918252607380546801000000000000000090819004851686880190815285891660008181526072909552888520975188559451600190970180549151871683027fffffffffffffffffffffffffffffffff0000000000000000000000000000000090921697871697909717179095558054938916700100000000000000000000000000000000027fffffffffffffffff0000000000000000ffffffffffffffffffffffffffffffff958402959095167fffffffffffffffff00000000000000000000000000000000ffffffffffffffff9094169390931793909317909155915192955090917f648a61dd2438f072f5a1960939abd30f37aea80d2e94c9792ad142d3e0a490a49190a2505050505050565b607a5473ffffffffffffffffffffffffffffffffffffffff1633146130e4576040517f4755657900000000000000000000000000000000000000000000000000000000815260040160405180910390fd5b620151808167ffffffffffffffff16111561312b576040517fe067dfe800000000000000000000000000000000000000000000000000000000815260040160405180910390fd5b606f80547fffffffffffffffffffffffffffffffffffffffffffffff0000000000000000ff1661010067ffffffffffffffff8416908102919091179091556040519081527f1b023231a1ab6b5d93992f168fb44498e1a7e64cef58daff6f1c216de6a68c28906020016119c9565b60745468010000000000000000900473ffffffffffffffffffffffffffffffffffffffff1633146131f6576040517fbbcbbc0500000000000000000000000000000000000000000000000000000000815260040160405180910390fd5b613205878787878787876153c9565b607480547fffffffffffffffffffffffffffffffffffffffffffffffff00000000000000001667ffffffffffffffff8781169182179092556000908152607560205260409020849055607954161561328057607980547fffffffffffffffffffffffffffffffff000000000000000000000000000000001690555b6040517f33d6247d000000000000000000000000000000000000000000000000000000008152600481018590527f000000000000000000000000000000000000000000000000000000000000000073ffffffffffffffffffffffffffffffffffffffff16906333d6247d90602401600060405180830381600087803b15801561330857600080fd5b505af115801561331c573d6000803e3d6000fd5b505060405185815233925067ffffffffffffffff881691507fcb339b570a7f0b25afa7333371ff11192092a0aeace12b671f4c212f2815c6fe90602001612341565b607a5473ffffffffffffffffffffffffffffffffffffffff1633146133af576040517f4755657900000000000000000000000000000000000000000000000000000000815260040160405180910390fd5b607b80547fffffffffffffffffffffffff00000000000000000000000000000000000000001673ffffffffffffffffffffffffffffffffffffffff83169081179091556040519081527fa5b56b7906fd0a20e3f35120dd8343db1e12e037a6c90111c7e42885e82a1ce6906020016119c9565b61342a615135565b611e3581615782565b600067ffffffff0000000167ffffffffffffffff831610801561346b575067ffffffff00000001604083901c67ffffffffffffffff16105b801561348c575067ffffffff00000001608083901c67ffffffffffffffff16105b80156134a3575067ffffffff0000000160c083901c105b156134b057506001919050565b506000919050565b919050565b6134c5615135565b60776134d18282616b95565b5050565b60795460009067ffffffffffffffff1615613519575060795467ffffffffffffffff9081166000908152607860205260409020546801000000000000000090041690565b5060745467ffffffffffffffff1690565b607a5473ffffffffffffffffffffffffffffffffffffffff16331461357b576040517f4755657900000000000000000000000000000000000000000000000000000000815260040160405180910390fd5b60766135878282616b95565b507f6b8f723a4c7a5335cafae8a598a0aa0301be1387c037dccc085b62add6448b20816040516119c9919061625d565b600054610100900460ff16158080156135d75750600054600160ff909116105b806135f15750303b1580156135f1575060005460ff166001145b61367d576040517f08c379a000000000000000000000000000000000000000000000000000000000815260206004820152602e60248201527f496e697469616c697a61626c653a20636f6e747261637420697320616c72656160448201527f647920696e697469616c697a65640000000000000000000000000000000000006064820152608401610e7f565b600080547fffffffffffffffffffffffffffffffffffffffffffffffffffffffffffffff0016600117905580156136db57600080547fffffffffffffffffffffffffffffffffffffffffffffffffffffffffffff00ff166101001790555b6136e8602088018861645a565b607a80547fffffffffffffffffffffffff00000000000000000000000000000000000000001673ffffffffffffffffffffffffffffffffffffffff9290921691909117905561373d604088016020890161645a565b606f805473ffffffffffffffffffffffffffffffffffffffff929092166b010000000000000000000000027fff0000000000000000000000000000000000000000ffffffffffffffffffffff9092169190911790556137a2608088016060890161645a565b6074805473ffffffffffffffffffffffffffffffffffffffff9290921668010000000000000000027fffffffff0000000000000000000000000000000000000000ffffffffffffffff9092169190911790556000805260756020527ff9e3fbf150b7a0077118526f473c53cb4734f166167e2c6213e3567dd390b4ad869055607661382d8682616b95565b50607761383a8582616b95565b5062093a8061384f6060890160408a01616392565b67ffffffffffffffff161115613891576040517fcc96507000000000000000000000000000000000000000000000000000000000815260040160405180910390fd5b6138a16060880160408901616392565b6079805467ffffffffffffffff92909216700100000000000000000000000000000000027fffffffffffffffff0000000000000000ffffffffffffffffffffffffffffffff90921691909117905562093a8061390360a0890160808a01616392565b67ffffffffffffffff161115613945576040517f1d06e87900000000000000000000000000000000000000000000000000000000815260040160405180910390fd5b61395560a0880160808901616392565b6079805477ffffffffffffffffffffffffffffffffffffffffffffffff16780100000000000000000000000000000000000000000000000067ffffffffffffffff939093169290920291909117905567016345785d8a0000607055606f80547fffffffffffffffffffffffffffffffffffffffffff00000000000000000000ff166a03ea000000000000070800179055607b80547fffffff000000000000000000ffffffffffffffffffffffffffffffffffffffff167c0100000000000697800000000000000000000000000000000000000000179055613a34615a86565b7fed7be53c9f1a96a481223b15568a5b1a475e01a74b347d6ca187c8bf0c078cd660007f00000000000000000000000000000000000000000000000000000000000000008585604051613a8a9493929190616cf8565b60405180910390a18015613af557600080547fffffffffffffffffffffffffffffffffffffffffffffffffffffffffffff00ff169055604051600181527f7f26b83ff96e1f2b6a682f133852f6798a09c465da95921460cefb38474024989060200160405180910390a15b50505050505050565b607a5473ffffffffffffffffffffffffffffffffffffffff163314613b4f576040517f4755657900000000000000000000000000000000000000000000000000000000815260040160405180910390fd5b7f000000000000000000000000000000000000000000000000000000000000000073ffffffffffffffffffffffffffffffffffffffff1663dbc169766040518163ffffffff1660e01b8152600401600060405180830381600087803b158015613bb757600080fd5b505af1158015613bcb573d6000803e3d6000fd5b5050505061255c615b26565b613bdf615135565b6040805160608101825293845267ffffffffffffffff92831660208086019182529284168583019081529584166000908152607290935291209251835551600190920180549351821668010000000000000000027fffffffffffffffffffffffffffffffff000000000000000000000000000000009094169290911691909117919091179055565b60745468010000000000000000900473ffffffffffffffffffffffffffffffffffffffff163314613cc4576040517fbbcbbc0500000000000000000000000000000000000000000000000000000000815260040160405180910390fd5b613cd48888888888888888614c65565b607480547fffffffffffffffffffffffffffffffffffffffffffffffff00000000000000001667ffffffffffffffff87811691821790925560009081526075602052604090208490556079541615613d4f57607980547fffffffffffffffffffffffffffffffff000000000000000000000000000000001690555b6040517f33d6247d000000000000000000000000000000000000000000000000000000008152600481018590527f000000000000000000000000000000000000000000000000000000000000000073ffffffffffffffffffffffffffffffffffffffff16906333d6247d90602401600060405180830381600087803b158015613dd757600080fd5b505af1158015613deb573d6000803e3d6000fd5b50506079805477ffffffffffffffffffffffffffffffffffffffffffffffff167a093a800000000000000000000000000000000000000000000000001790555050604051838152339067ffffffffffffffff8716907fcc1b5520188bf1dd3e63f98164b577c4d75c11a619ddea692112f0d1aec4cf729060200160405180910390a35050505050505050565b607b547c0100000000000000000000000000000000000000000000000000000000900460ff1615613ed4576040517f24eff8c300000000000000000000000000000000000000000000000000000000815260040160405180910390fd5b606f5460ff1615613f11576040517f2f0047fc00000000000000000000000000000000000000000000000000000000815260040160405180910390fd5b6000613f1b61245f565b905081811115613f57576040517f4732fdb500000000000000000000000000000000000000000000000000000000815260040160405180910390fd5b611388831115613f93576040517fa29a6c7c00000000000000000000000000000000000000000000000000000000815260040160405180910390fd5b613fd573ffffffffffffffffffffffffffffffffffffffff7f000000000000000000000000000000000000000000000000000000000000000016333084615bb5565b7f000000000000000000000000000000000000000000000000000000000000000073ffffffffffffffffffffffffffffffffffffffff166379e2cf976040518163ffffffff1660e01b8152600401600060405180830381600087803b15801561403d57600080fd5b505af1158015614051573d6000803e3d6000fd5b5050505060007f000000000000000000000000000000000000000000000000000000000000000073ffffffffffffffffffffffffffffffffffffffff16633ed691ef6040518163ffffffff1660e01b8152600401602060405180830381865afa1580156140c2573d6000803e3d6000fd5b505050506040513d601f19601f820116820180604052508101906140e69190616886565b60738054919250780100000000000000000000000000000000000000000000000090910467ffffffffffffffff16906018614120836169ad565b91906101000a81548167ffffffffffffffff021916908367ffffffffffffffff160217905550508484604051614157929190616d30565b604051908190039020814261416d600143616afc565b60408051602081019590955284019290925260c01b7fffffffffffffffff000000000000000000000000000000000000000000000000166060830152406068820152608801604080518083037fffffffffffffffffffffffffffffffffffffffffffffffffffffffffffffffe001815291815281516020928301206073547801000000000000000000000000000000000000000000000000900467ffffffffffffffff16600090815260719093529120553233036142a057607354604080518381523360208201526060918101829052600091810191909152780100000000000000000000000000000000000000000000000090910467ffffffffffffffff16907ff94bb37db835f1ab585ee00041849a09b12cd081d77fa15ca070757619cbc9319060800160405180910390a26142ff565b607360189054906101000a900467ffffffffffffffff1667ffffffffffffffff167ff94bb37db835f1ab585ee00041849a09b12cd081d77fa15ca070757619cbc931823388886040516142f69493929190616d40565b60405180910390a25b5050505050565b606f5460ff1615614343576040517f2f0047fc00000000000000000000000000000000000000000000000000000000815260040160405180910390fd5b606f546b010000000000000000000000900473ffffffffffffffffffffffffffffffffffffffff1633146143a3576040517f11e7be1500000000000000000000000000000000000000000000000000000000815260040160405180910390fd5b8160008190036143df576040517fcb591a5f00000000000000000000000000000000000000000000000000000000815260040160405180910390fd5b6103e881111561441b576040517fb59f753a00000000000000000000000000000000000000000000000000000000815260040160405180910390fd5b7f000000000000000000000000000000000000000000000000000000000000000073ffffffffffffffffffffffffffffffffffffffff166379e2cf976040518163ffffffff1660e01b8152600401600060405180830381600087803b15801561448357600080fd5b505af1158015614497573d6000803e3d6000fd5b5050505060007f000000000000000000000000000000000000000000000000000000000000000073ffffffffffffffffffffffffffffffffffffffff16635ca1e1656040518163ffffffff1660e01b8152600401602060405180830381865afa158015614508573d6000803e3d6000fd5b505050506040513d601f19601f8201168201806040525081019061452c9190616886565b60735467ffffffffffffffff68010000000000000000820481166000818152607260205260408120549495504294919370010000000000000000000000000000000090049092169182905b878110156148795760008b8b8381811061459357614593616a12565b90506020028101906145a59190616a41565b6145ae90616a75565b8051805160209091012060408201519192509067ffffffffffffffff161561479357856145da816169ad565b96505060008183602001518460400151856060015160405160200161463d9493929190938452602084019290925260c01b7fffffffffffffffff000000000000000000000000000000000000000000000000166040830152604882015260680190565b604080517fffffffffffffffffffffffffffffffffffffffffffffffffffffffffffffffe0818403018152918152815160209283012067ffffffffffffffff8a166000908152607190935291205490915081146146c6576040517fce3d755e00000000000000000000000000000000000000000000000000000000815260040160405180910390fd5b60208381015160408086015160608088015183519586018c90529285018790528481019390935260c01b7fffffffffffffffff000000000000000000000000000000000000000000000000166080840152908e901b7fffffffffffffffffffffffffffffffffffffffff000000000000000000000000166088830152609c82015260bc01604051602081830303815290604052805190602001209550607160008867ffffffffffffffff1667ffffffffffffffff1681526020019081526020016000206000905550614864565b8151516201d4c010156147d2576040517fa29a6c7c00000000000000000000000000000000000000000000000000000000815260040160405180910390fd5b604080516020810187905290810182905260608082018b905260c08a901b7fffffffffffffffff0000000000000000000000000000000000000000000000001660808301528c901b7fffffffffffffffffffffffffffffffffffffffff0000000000000000000000001660888201526000609c82015260bc016040516020818303038152906040528051906020012094505b5050808061487190616b0f565b915050614577565b506148848785616964565b60735490945067ffffffffffffffff7801000000000000000000000000000000000000000000000000909104811690841611156148ed576040517fc630a00d00000000000000000000000000000000000000000000000000000000815260040160405180910390fd5b604080516060810182528381524267ffffffffffffffff908116602080840191825260738054680100000000000000009081900485168688019081528b861660008181526072909552979093209551865592516001909501805492519585167fffffffffffffffffffffffffffffffff0000000000000000000000000000000090931692909217948416830294909417905582547fffffffffffffffffffffffffffffffff0000000000000000ffffffffffffffff169302929092179055879082811690851614614a20576149c2828561698c565b6149d69067ffffffffffffffff1682616afc565b607380547fffffffffffffffff0000000000000000ffffffffffffffffffffffffffffffff1670010000000000000000000000000000000067ffffffffffffffff88160217905590505b614a72333083607054614a3391906169d4565b73ffffffffffffffffffffffffffffffffffffffff7f000000000000000000000000000000000000000000000000000000000000000016929190615bb5565b614a7a615962565b60405167ffffffffffffffff8616907f303446e6a8cb73c83dff421c0b1d5e5ce0719dab1bff13660fc254e58cc17fce90600090a25050505050505050505050565b607a5473ffffffffffffffffffffffffffffffffffffffff163314614b0d576040517f4755657900000000000000000000000000000000000000000000000000000000815260040160405180910390fd5b607480547fffffffff0000000000000000000000000000000000000000ffffffffffffffff166801000000000000000073ffffffffffffffffffffffffffffffffffffffff8416908102919091179091556040519081527f61f8fec29495a3078e9271456f05fb0707fd4e41f7661865f80fc437d06681ca906020016119c9565b614b96615135565b73ffffffffffffffffffffffffffffffffffffffff8116614c39576040517f08c379a000000000000000000000000000000000000000000000000000000000815260206004820152602660248201527f4f776e61626c653a206e6577206f776e657220697320746865207a65726f206160448201527f64647265737300000000000000000000000000000000000000000000000000006064820152608401610e7f565b611e3581615a0f565b614c4a615135565b67ffffffffffffffff16600090815260756020526040902055565b600067ffffffffffffffff891615614d335760795467ffffffffffffffff908116908a161115614cc1576040517fbb14c20500000000000000000000000000000000000000000000000000000000815260040160405180910390fd5b5067ffffffffffffffff8089166000908152607860205260409020600281015481549092898116680100000000000000009092041614614d2d576040517f2bd2e3e700000000000000000000000000000000000000000000000000000000815260040160405180910390fd5b50614dcf565b5067ffffffffffffffff861660009081526075602052604090205480614d85576040517f4997b98600000000000000000000000000000000000000000000000000000000815260040160405180910390fd5b60745467ffffffffffffffff9081169088161115614dcf576040517f1e56e9e200000000000000000000000000000000000000000000000000000000815260040160405180910390fd5b60795467ffffffffffffffff9081169089161180614e0157508867ffffffffffffffff168867ffffffffffffffff1611155b80614e28575060795467ffffffffffffffff68010000000000000000909104811690891611155b15614e5f576040517fbfa7079f00000000000000000000000000000000000000000000000000000000815260040160405180910390fd5b67ffffffffffffffff888116600090815260786020526040902054680100000000000000009004811690871614614ec2576040517f32a2a77f00000000000000000000000000000000000000000000000000000000815260040160405180910390fd5b6000614ed188888885896119d4565b905060007f30644e72e131a029b85045b68181585d2833e84879b9709143e1f593f0000001600283604051614f06919061686a565b602060405180830381855afa158015614f23573d6000803e3d6000fd5b5050506040513d601f19601f82011682018060405250810190614f469190616886565b614f5091906168ce565b6040805160208101825282815290517f8d8f8a5c00000000000000000000000000000000000000000000000000000000815291925073ffffffffffffffffffffffffffffffffffffffff7f00000000000000000000000000000000000000000000000000000000000000001691638d8f8a5c91614fd39189918991600401616d76565b602060405180830381865afa158015614ff0573d6000803e3d6000fd5b505050506040513d601f19601f820116820180604052508101906150149190616dbe565b61504a576040517f09bde33900000000000000000000000000000000000000000000000000000000815260040160405180910390fd5b67ffffffffffffffff8a166000908152607860205260409020600201548690036150a0576040517fa47276bd00000000000000000000000000000000000000000000000000000000815260040160405180910390fd5b5050505050505050505050565b7f000000000000000000000000000000000000000000000000000000000000000073ffffffffffffffffffffffffffffffffffffffff16632072f6c56040518163ffffffff1660e01b8152600401600060405180830381600087803b15801561511557600080fd5b505af1158015615129573d6000803e3d6000fd5b5050505061255c615c97565b60335473ffffffffffffffffffffffffffffffffffffffff16331461255c576040517f08c379a000000000000000000000000000000000000000000000000000000000815260206004820181905260248201527f4f776e61626c653a2063616c6c6572206973206e6f7420746865206f776e65726044820152606401610e7f565b60795467ffffffffffffffff6801000000000000000090910481169082161115806151f0575060795467ffffffffffffffff908116908216115b15615227576040517fd086b70b00000000000000000000000000000000000000000000000000000000815260040160405180910390fd5b67ffffffffffffffff818116600081815260786020908152604080832080546074805468010000000000000000928390049098167fffffffffffffffffffffffffffffffffffffffffffffffff000000000000000090981688179055600282015487865260759094529382902092909255607980547fffffffffffffffffffffffffffffffff0000000000000000ffffffffffffffff169390940292909217909255600182015490517f33d6247d00000000000000000000000000000000000000000000000000000000815260048101919091529091907f000000000000000000000000000000000000000000000000000000000000000073ffffffffffffffffffffffffffffffffffffffff16906333d6247d90602401600060405180830381600087803b15801561535957600080fd5b505af115801561536d573d6000803e3d6000fd5b505050508267ffffffffffffffff168167ffffffffffffffff167f328d3c6c0fd6f1be0515e422f2d87e59f25922cbc2233568515a0c4bc3f8510e84600201546040516153bc91815260200190565b60405180910390a3505050565b6000806153d46134d5565b905067ffffffffffffffff8916156154a45760795467ffffffffffffffff908116908a161115615430576040517fbb14c20500000000000000000000000000000000000000000000000000000000815260040160405180910390fd5b67ffffffffffffffff808a1660009081526078602052604090206002810154815490945090918a811668010000000000000000909204161461549e576040517f2bd2e3e700000000000000000000000000000000000000000000000000000000815260040160405180910390fd5b50615545565b67ffffffffffffffff88166000908152607560205260409020549150816154f7576040517f4997b98600000000000000000000000000000000000000000000000000000000815260040160405180910390fd5b8067ffffffffffffffff168867ffffffffffffffff161115615545576040517f1e56e9e200000000000000000000000000000000000000000000000000000000815260040160405180910390fd5b8067ffffffffffffffff168767ffffffffffffffff1611615592576040517fb9b18f5700000000000000000000000000000000000000000000000000000000815260040160405180910390fd5b60006155a1898989868a6119d4565b905060007f30644e72e131a029b85045b68181585d2833e84879b9709143e1f593f00000016002836040516155d6919061686a565b602060405180830381855afa1580156155f3573d6000803e3d6000fd5b5050506040513d601f19601f820116820180604052508101906156169190616886565b61562091906168ce565b6040805160208101825282815290517f8d8f8a5c00000000000000000000000000000000000000000000000000000000815291925073ffffffffffffffffffffffffffffffffffffffff7f00000000000000000000000000000000000000000000000000000000000000001691638d8f8a5c916156a3918a918a91600401616d76565b602060405180830381865afa1580156156c0573d6000803e3d6000fd5b505050506040513d601f19601f820116820180604052508101906156e49190616dbe565b61571a576040517f09bde33900000000000000000000000000000000000000000000000000000000815260040160405180910390fd5b6150a033615728858c61698c565b67ffffffffffffffff1661573a6127dd565b61574491906169d4565b73ffffffffffffffffffffffffffffffffffffffff7f0000000000000000000000000000000000000000000000000000000000000000169190615d2a565b600061578c6134d5565b90508160008061579c848461698c565b606f5467ffffffffffffffff91821692506000916157c09161010090041642616afc565b90505b8467ffffffffffffffff168467ffffffffffffffff161461584b5767ffffffffffffffff8085166000908152607260205260409020600181015490911682101561582957600181015468010000000000000000900467ffffffffffffffff169450615845565b615833868661698c565b67ffffffffffffffff1693505061584b565b506157c3565b60006158578484616afc565b9050838110156158ae57808403600c81116158725780615875565b600c5b9050806103e80a81606f60099054906101000a900461ffff1661ffff160a60705402816158a4576158a461689f565b046070555061591e565b838103600c81116158bf57806158c2565b600c5b90506000816103e80a82606f60099054906101000a900461ffff1661ffff160a670de0b6b3a764000002816158f9576158f961689f565b04905080607054670de0b6b3a764000002816159175761591761689f565b0460705550505b683635c9adc5dea00000607054111561594357683635c9adc5dea00000607055613af5565b633b9aca006070541015613af557633b9aca0060705550505050505050565b60795467ffffffffffffffff68010000000000000000820481169116111561255c576079546000906159ab9068010000000000000000900467ffffffffffffffff166001616964565b90506159b681611bab565b15611e35576079546000906002906159d990849067ffffffffffffffff1661698c565b6159e39190616de0565b6159ed9083616964565b90506159f881611bab565b15615a06576134d1816151b6565b6134d1826151b6565b6033805473ffffffffffffffffffffffffffffffffffffffff8381167fffffffffffffffffffffffff0000000000000000000000000000000000000000831681179093556040519116919082907f8be0079c531659141344cd1fd0a4f28419497f9722a3daafe3b4186f6b6457e090600090a35050565b600054610100900460ff16615b1d576040517f08c379a000000000000000000000000000000000000000000000000000000000815260206004820152602b60248201527f496e697469616c697a61626c653a20636f6e7472616374206973206e6f74206960448201527f6e697469616c697a696e670000000000000000000000000000000000000000006064820152608401610e7f565b61255c33615a0f565b606f5460ff16615b62576040517f5386698100000000000000000000000000000000000000000000000000000000815260040160405180910390fd5b606f80547fffffffffffffffffffffffffffffffffffffffffffffffffffffffffffffff001690556040517f1e5e34eea33501aecf2ebec9fe0e884a40804275ea7fe10b2ba084c8374308b390600090a1565b60405173ffffffffffffffffffffffffffffffffffffffff80851660248301528316604482015260648101829052615c919085907f23b872dd00000000000000000000000000000000000000000000000000000000906084015b604080517fffffffffffffffffffffffffffffffffffffffffffffffffffffffffffffffe08184030181529190526020810180517bffffffffffffffffffffffffffffffffffffffffffffffffffffffff167fffffffff0000000000000000000000000000000000000000000000000000000090931692909217909152615d85565b50505050565b606f5460ff1615615cd4576040517f2f0047fc00000000000000000000000000000000000000000000000000000000815260040160405180910390fd5b606f80547fffffffffffffffffffffffffffffffffffffffffffffffffffffffffffffff001660011790556040517f2261efe5aef6fedc1fd1550b25facc9181745623049c7901287030b9ad1a549790600090a1565b60405173ffffffffffffffffffffffffffffffffffffffff8316602482015260448101829052615d809084907fa9059cbb0000000000000000000000000000000000000000000000000000000090606401615c0f565b505050565b6000615de7826040518060400160405280602081526020017f5361666545524332303a206c6f772d6c6576656c2063616c6c206661696c65648152508573ffffffffffffffffffffffffffffffffffffffff16615e919092919063ffffffff16565b805190915015615d805780806020019051810190615e059190616dbe565b615d80576040517f08c379a000000000000000000000000000000000000000000000000000000000815260206004820152602a60248201527f5361666545524332303a204552433230206f7065726174696f6e20646964206e60448201527f6f742073756363656564000000000000000000000000000000000000000000006064820152608401610e7f565b6060615ea08484600085615ea8565b949350505050565b606082471015615f3a576040517f08c379a000000000000000000000000000000000000000000000000000000000815260206004820152602660248201527f416464726573733a20696e73756666696369656e742062616c616e636520666f60448201527f722063616c6c00000000000000000000000000000000000000000000000000006064820152608401610e7f565b6000808673ffffffffffffffffffffffffffffffffffffffff168587604051615f63919061686a565b60006040518083038185875af1925050503d8060008114615fa0576040519150601f19603f3d011682016040523d82523d6000602084013e615fa5565b606091505b5091509150615fb687838387615fc1565b979650505050505050565b606083156160575782516000036160505773ffffffffffffffffffffffffffffffffffffffff85163b616050576040517f08c379a000000000000000000000000000000000000000000000000000000000815260206004820152601d60248201527f416464726573733a2063616c6c20746f206e6f6e2d636f6e74726163740000006044820152606401610e7f565b5081615ea0565b615ea0838381511561606c5781518083602001fd5b806040517f08c379a0000000000000000000000000000000000000000000000000000000008152600401610e7f919061625d565b803567ffffffffffffffff811681146134b857600080fd5b60008083601f8401126160ca57600080fd5b50813567ffffffffffffffff8111156160e257600080fd5b6020830191508360208285010111156160fa57600080fd5b9250929050565b60008060008060008060008060e0898b03121561611d57600080fd5b616126896160a0565b975061613460208a016160a0565b965061614260408a016160a0565b955061615060608a016160a0565b94506080890135935060a0890135925060c089013567ffffffffffffffff81111561617a57600080fd5b6161868b828c016160b8565b999c989b5096995094979396929594505050565b600080600080600060a086880312156161b257600080fd5b6161bb866160a0565b94506161c9602087016160a0565b93506161d7604087016160a0565b94979396509394606081013594506080013592915050565b60005b8381101561620a5781810151838201526020016161f2565b50506000910152565b6000815180845261622b8160208601602086016161ef565b601f017fffffffffffffffffffffffffffffffffffffffffffffffffffffffffffffffe0169290920160200192915050565b6020815260006162706020830184616213565b9392505050565b806040810183101561628857600080fd5b92915050565b6000806000806000806000806101a0898b0312156162ab57600080fd5b6162b4896160a0565b97506162c260208a016160a0565b96506162d060408a016160a0565b955060608901359450608089013593506162ed8a60a08b01616277565b925061016089018a81111561630157600080fd5b60e08a0192506163118b82616277565b9150509295985092959890939650565b60006020828403121561633357600080fd5b813561ffff8116811461627057600080fd5b600080600080600060a0868803121561635d57600080fd5b616366866160a0565b9450616374602087016160a0565b94979496505050506040830135926060810135926080909101359150565b6000602082840312156163a457600080fd5b616270826160a0565b600080600080600080600060c0888a0312156163c857600080fd5b6163d1886160a0565b96506163df602089016160a0565b95506163ed604089016160a0565b9450606088013593506080880135925060a088013567ffffffffffffffff81111561641757600080fd5b6164238a828b016160b8565b989b979a50959850939692959293505050565b803573ffffffffffffffffffffffffffffffffffffffff811681146134b857600080fd5b60006020828403121561646c57600080fd5b61627082616436565b7f4e487b7100000000000000000000000000000000000000000000000000000000600052604160045260246000fd5b600082601f8301126164b557600080fd5b813567ffffffffffffffff808211156164d0576164d0616475565b604051601f83017fffffffffffffffffffffffffffffffffffffffffffffffffffffffffffffffe0908116603f0116810190828211818310171561651657616516616475565b8160405283815286602085880101111561652f57600080fd5b836020870160208301376000602085830101528094505050505092915050565b60008060008060008060c0878903121561656857600080fd5b86359550602087013567ffffffffffffffff81111561658657600080fd5b61659289828a016164a4565b955050604087013593506165a8606088016160a0565b92506165b660808801616436565b915060a087013590509295509295509295565b6000602082840312156165db57600080fd5b5035919050565b60008083601f8401126165f457600080fd5b50813567ffffffffffffffff81111561660c57600080fd5b6020830191508360208260051b85010111156160fa57600080fd5b6000806020838503121561663a57600080fd5b823567ffffffffffffffff81111561665157600080fd5b61665d858286016165e2565b90969095509350505050565b60006020828403121561667b57600080fd5b813567ffffffffffffffff81111561669257600080fd5b615ea0848285016164a4565b6000806000806000808688036101208112156166b957600080fd5b60a08112156166c757600080fd5b5086955060a0870135945060c087013567ffffffffffffffff808211156166ed57600080fd5b6166f98a838b016164a4565b955060e089013591508082111561670f57600080fd5b61671b8a838b016164a4565b945061010089013591508082111561673257600080fd5b5061673f89828a016160b8565b979a9699509497509295939492505050565b6000806000806080858703121561676757600080fd5b616770856160a0565b935060208501359250616785604086016160a0565b9150616793606086016160a0565b905092959194509250565b6000806000604084860312156167b357600080fd5b833567ffffffffffffffff8111156167ca57600080fd5b6167d6868287016160b8565b909790965060209590950135949350505050565b6000806000604084860312156167ff57600080fd5b833567ffffffffffffffff81111561681657600080fd5b616822868287016165e2565b9094509250616835905060208501616436565b90509250925092565b6000806040838503121561685157600080fd5b82359150616861602084016160a0565b90509250929050565b6000825161687c8184602087016161ef565b9190910192915050565b60006020828403121561689857600080fd5b5051919050565b7f4e487b7100000000000000000000000000000000000000000000000000000000600052601260045260246000fd5b6000826168dd576168dd61689f565b500690565b600181811c908216806168f657607f821691505b60208210810361692f577f4e487b7100000000000000000000000000000000000000000000000000000000600052602260045260246000fd5b50919050565b7f4e487b7100000000000000000000000000000000000000000000000000000000600052601160045260246000fd5b67ffffffffffffffff81811683821601908082111561698557616985616935565b5092915050565b67ffffffffffffffff82811682821603908082111561698557616985616935565b600067ffffffffffffffff8083168181036169ca576169ca616935565b6001019392505050565b808202811582820484141761628857616288616935565b6000826169fa576169fa61689f565b500490565b8082018082111561628857616288616935565b7f4e487b7100000000000000000000000000000000000000000000000000000000600052603260045260246000fd5b600082357fffffffffffffffffffffffffffffffffffffffffffffffffffffffffffffff8183360301811261687c57600080fd5b600060808236031215616a8757600080fd5b6040516080810167ffffffffffffffff8282108183111715616aab57616aab616475565b816040528435915080821115616ac057600080fd5b50616acd368286016164a4565b82525060208301356020820152616ae6604084016160a0565b6040820152606092830135928101929092525090565b8181038181111561628857616288616935565b60007fffffffffffffffffffffffffffffffffffffffffffffffffffffffffffffffff8203616b4057616b40616935565b5060010190565b601f821115615d8057600081815260208120601f850160051c81016020861015616b6e5750805b601f850160051c820191505b81811015616b8d57828155600101616b7a565b505050505050565b815167ffffffffffffffff811115616baf57616baf616475565b616bc381616bbd84546168e2565b84616b47565b602080601f831160018114616c165760008415616be05750858301515b7fffffffffffffffffffffffffffffffffffffffffffffffffffffffffffffffff600386901b1c1916600185901b178555616b8d565b6000858152602081207fffffffffffffffffffffffffffffffffffffffffffffffffffffffffffffffe08616915b82811015616c6357888601518255948401946001909101908401616c44565b5085821015616c9f57878501517fffffffffffffffffffffffffffffffffffffffffffffffffffffffffffffffff600388901b60f8161c191681555b5050505050600190811b01905550565b8183528181602085013750600060208284010152600060207fffffffffffffffffffffffffffffffffffffffffffffffffffffffffffffffe0601f840116840101905092915050565b600067ffffffffffffffff808716835280861660208401525060606040830152616d26606083018486616caf565b9695505050505050565b8183823760009101908152919050565b84815273ffffffffffffffffffffffffffffffffffffffff84166020820152606060408201526000616d26606083018486616caf565b604081526000616d8a604083018587616caf565b905060208083018460005b6001811015616db257815183529183019190830190600101616d95565b50505050949350505050565b600060208284031215616dd057600080fd5b8151801515811461627057600080fd5b600067ffffffffffffffff80841680616dfb57616dfb61689f565b9216919091049291505056fea264697066735822122042c06a9e69cc0af7318e93b5ccc4a6dd3193479d35be9b1c643989cb732ec29c64736f6c63430008110033",
  "linkReferences": {},
  "deployedLinkReferences": {}
}