{
  "_format": "hh-sol-artifact-1",
  "contractName": "PolygonZkEVMBridge",
  "sourceName": "contracts/PolygonZkEVMBridge.sol",
  "abi": [
    {
      "anonymous": false,
      "inputs": [
        {
          "indexed": false,
          "internalType": "uint8",
          "name": "leafType",
          "type": "uint8"
        },
        {
          "indexed": false,
          "internalType": "uint32",
          "name": "originNetwork",
          "type": "uint32"
        },
        {
          "indexed": false,
          "internalType": "address",
          "name": "originAddress",
          "type": "address"
        },
        {
          "indexed": false,
          "internalType": "uint32",
          "name": "destinationNetwork",
          "type": "uint32"
        },
        {
          "indexed": false,
          "internalType": "address",
          "name": "destinationAddress",
          "type": "address"
        },
        {
          "indexed": false,
          "internalType": "uint256",
          "name": "amount",
          "type": "uint256"
        },
        {
          "indexed": false,
          "internalType": "bytes",
          "name": "metadata",
          "type": "bytes"
        },
        {
          "indexed": false,
          "internalType": "uint32",
          "name": "depositCount",
          "type": "uint32"
        }
      ],
      "name": "BridgeEvent",
      "type": "event"
    },
    {
      "anonymous": false,
      "inputs": [
        {
          "indexed": false,
          "internalType": "uint32",
          "name": "index",
          "type": "uint32"
        },
        {
          "indexed": false,
          "internalType": "uint32",
          "name": "originNetwork",
          "type": "uint32"
        },
        {
          "indexed": false,
          "internalType": "address",
          "name": "originAddress",
          "type": "address"
        },
        {
          "indexed": false,
          "internalType": "address",
          "name": "destinationAddress",
          "type": "address"
        },
        {
          "indexed": false,
          "internalType": "uint256",
          "name": "amount",
          "type": "uint256"
        }
      ],
      "name": "ClaimEvent",
      "type": "event"
    },
    {
      "anonymous": false,
      "inputs": [],
      "name": "EmergencyStateActivated",
      "type": "event"
    },
    {
      "anonymous": false,
      "inputs": [],
      "name": "EmergencyStateDeactivated",
      "type": "event"
    },
    {
      "anonymous": false,
      "inputs": [
        {
          "indexed": false,
          "internalType": "uint8",
          "name": "version",
          "type": "uint8"
        }
      ],
      "name": "Initialized",
      "type": "event"
    },
    {
      "anonymous": false,
      "inputs": [
        {
          "indexed": false,
          "internalType": "uint32",
          "name": "originNetwork",
          "type": "uint32"
        },
        {
          "indexed": false,
          "internalType": "address",
          "name": "originTokenAddress",
          "type": "address"
        },
        {
          "indexed": false,
          "internalType": "address",
          "name": "wrappedTokenAddress",
          "type": "address"
        },
        {
          "indexed": false,
          "internalType": "bytes",
          "name": "metadata",
          "type": "bytes"
        }
      ],
      "name": "NewWrappedToken",
      "type": "event"
    },
    {
      "inputs": [],
      "name": "LEAF_TYPE_ASSET",
      "outputs": [
        {
          "internalType": "uint8",
          "name": "",
          "type": "uint8"
        }
      ],
      "stateMutability": "view",
      "type": "function"
    },
    {
      "inputs": [],
      "name": "LEAF_TYPE_MESSAGE",
      "outputs": [
        {
          "internalType": "uint8",
          "name": "",
          "type": "uint8"
        }
      ],
      "stateMutability": "view",
      "type": "function"
    },
    {
      "inputs": [],
      "name": "MAINNET_NETWORK_ID",
      "outputs": [
        {
          "internalType": "uint32",
          "name": "",
          "type": "uint32"
        }
      ],
      "stateMutability": "view",
      "type": "function"
    },
    {
      "inputs": [],
      "name": "activateEmergencyState",
      "outputs": [],
      "stateMutability": "nonpayable",
      "type": "function"
    },
    {
      "inputs": [
        {
          "internalType": "address",
          "name": "token",
          "type": "address"
        },
        {
          "internalType": "uint32",
          "name": "destinationNetwork",
          "type": "uint32"
        },
        {
          "internalType": "address",
          "name": "destinationAddress",
          "type": "address"
        },
        {
          "internalType": "uint256",
          "name": "amount",
          "type": "uint256"
        },
        {
          "internalType": "bytes",
          "name": "permitData",
          "type": "bytes"
        }
      ],
      "name": "bridgeAsset",
      "outputs": [],
      "stateMutability": "payable",
      "type": "function"
    },
    {
      "inputs": [
        {
          "internalType": "uint32",
          "name": "destinationNetwork",
          "type": "uint32"
        },
        {
          "internalType": "address",
          "name": "destinationAddress",
          "type": "address"
        },
        {
          "internalType": "bytes",
          "name": "metadata",
          "type": "bytes"
        }
      ],
      "name": "bridgeMessage",
      "outputs": [],
      "stateMutability": "payable",
      "type": "function"
    },
    {
      "inputs": [
        {
          "internalType": "bytes32[32]",
          "name": "smtProof",
          "type": "bytes32[32]"
        },
        {
          "internalType": "uint32",
          "name": "index",
          "type": "uint32"
        },
        {
          "internalType": "bytes32",
          "name": "mainnetExitRoot",
          "type": "bytes32"
        },
        {
          "internalType": "bytes32",
          "name": "rollupExitRoot",
          "type": "bytes32"
        },
        {
          "internalType": "uint32",
          "name": "originNetwork",
          "type": "uint32"
        },
        {
          "internalType": "address",
          "name": "originTokenAddress",
          "type": "address"
        },
        {
          "internalType": "uint32",
          "name": "destinationNetwork",
          "type": "uint32"
        },
        {
          "internalType": "address",
          "name": "destinationAddress",
          "type": "address"
        },
        {
          "internalType": "uint256",
          "name": "amount",
          "type": "uint256"
        },
        {
          "internalType": "bytes",
          "name": "metadata",
          "type": "bytes"
        }
      ],
      "name": "claimAsset",
      "outputs": [],
      "stateMutability": "nonpayable",
      "type": "function"
    },
    {
      "inputs": [
        {
          "internalType": "bytes32[32]",
          "name": "smtProof",
          "type": "bytes32[32]"
        },
        {
          "internalType": "uint32",
          "name": "index",
          "type": "uint32"
        },
        {
          "internalType": "bytes32",
          "name": "mainnetExitRoot",
          "type": "bytes32"
        },
        {
          "internalType": "bytes32",
          "name": "rollupExitRoot",
          "type": "bytes32"
        },
        {
          "internalType": "uint32",
          "name": "originNetwork",
          "type": "uint32"
        },
        {
          "internalType": "address",
          "name": "originAddress",
          "type": "address"
        },
        {
          "internalType": "uint32",
          "name": "destinationNetwork",
          "type": "uint32"
        },
        {
          "internalType": "address",
          "name": "destinationAddress",
          "type": "address"
        },
        {
          "internalType": "uint256",
          "name": "amount",
          "type": "uint256"
        },
        {
          "internalType": "bytes",
          "name": "metadata",
          "type": "bytes"
        }
      ],
      "name": "claimMessage",
      "outputs": [],
      "stateMutability": "nonpayable",
      "type": "function"
    },
    {
      "inputs": [
        {
          "internalType": "uint256",
          "name": "",
          "type": "uint256"
        }
      ],
      "name": "claimedBitMap",
      "outputs": [
        {
          "internalType": "uint256",
          "name": "",
          "type": "uint256"
        }
      ],
      "stateMutability": "view",
      "type": "function"
    },
    {
      "inputs": [],
      "name": "deactivateEmergencyState",
      "outputs": [],
      "stateMutability": "nonpayable",
      "type": "function"
    },
    {
      "inputs": [],
      "name": "depositCount",
      "outputs": [
        {
          "internalType": "uint256",
          "name": "",
          "type": "uint256"
        }
      ],
      "stateMutability": "view",
      "type": "function"
    },
    {
      "inputs": [],
      "name": "getDepositRoot",
      "outputs": [
        {
          "internalType": "bytes32",
          "name": "",
          "type": "bytes32"
        }
      ],
      "stateMutability": "view",
      "type": "function"
    },
    {
      "inputs": [
        {
          "internalType": "uint8",
          "name": "leafType",
          "type": "uint8"
        },
        {
          "internalType": "uint32",
          "name": "originNetwork",
          "type": "uint32"
        },
        {
          "internalType": "address",
          "name": "originAddress",
          "type": "address"
        },
        {
          "internalType": "uint32",
          "name": "destinationNetwork",
          "type": "uint32"
        },
        {
          "internalType": "address",
          "name": "destinationAddress",
          "type": "address"
        },
        {
          "internalType": "uint256",
          "name": "amount",
          "type": "uint256"
        },
        {
          "internalType": "bytes32",
          "name": "metadataHash",
          "type": "bytes32"
        }
      ],
      "name": "getLeafValue",
      "outputs": [
        {
          "internalType": "bytes32",
          "name": "",
          "type": "bytes32"
        }
      ],
      "stateMutability": "pure",
      "type": "function"
    },
    {
      "inputs": [
        {
          "internalType": "uint32",
          "name": "originNetwork",
          "type": "uint32"
        },
        {
          "internalType": "address",
          "name": "originTokenAddress",
          "type": "address"
        }
      ],
      "name": "getTokenWrappedAddress",
      "outputs": [
        {
          "internalType": "address",
          "name": "",
          "type": "address"
        }
      ],
      "stateMutability": "view",
      "type": "function"
    },
    {
      "inputs": [],
      "name": "globalExitRootManager",
      "outputs": [
        {
          "internalType": "contract IPolygonZkEVMGlobalExitRoot",
          "name": "",
          "type": "address"
        }
      ],
      "stateMutability": "view",
      "type": "function"
    },
    {
      "inputs": [
        {
          "internalType": "uint32",
          "name": "_networkID",
          "type": "uint32"
        },
        {
          "internalType": "contract IPolygonZkEVMGlobalExitRoot",
          "name": "_globalExitRootManager",
          "type": "address"
        },
        {
          "internalType": "address",
          "name": "_polygonZkEVMaddress",
          "type": "address"
        }
      ],
      "name": "initialize",
      "outputs": [],
      "stateMutability": "nonpayable",
      "type": "function"
    },
    {
      "inputs": [
        {
          "internalType": "uint256",
          "name": "index",
          "type": "uint256"
        }
      ],
      "name": "isClaimed",
      "outputs": [
        {
          "internalType": "bool",
          "name": "",
          "type": "bool"
        }
      ],
      "stateMutability": "view",
      "type": "function"
    },
    {
      "inputs": [],
      "name": "isEmergencyState",
      "outputs": [
        {
          "internalType": "bool",
          "name": "",
          "type": "bool"
        }
      ],
      "stateMutability": "view",
      "type": "function"
    },
    {
      "inputs": [],
      "name": "networkID",
      "outputs": [
        {
          "internalType": "uint32",
          "name": "",
          "type": "uint32"
        }
      ],
      "stateMutability": "view",
      "type": "function"
    },
    {
      "inputs": [],
      "name": "polygonZkEVMaddress",
      "outputs": [
        {
          "internalType": "address",
          "name": "",
          "type": "address"
        }
      ],
      "stateMutability": "view",
      "type": "function"
    },
    {
      "inputs": [
        {
          "internalType": "uint32",
          "name": "originNetwork",
          "type": "uint32"
        },
        {
          "internalType": "address",
          "name": "originTokenAddress",
          "type": "address"
        },
        {
          "internalType": "string",
          "name": "name",
          "type": "string"
        },
        {
          "internalType": "string",
          "name": "symbol",
          "type": "string"
        },
        {
          "internalType": "uint8",
          "name": "decimals",
          "type": "uint8"
        }
      ],
      "name": "precalculatedWrapperAddress",
      "outputs": [
        {
          "internalType": "address",
          "name": "",
          "type": "address"
        }
      ],
      "stateMutability": "view",
      "type": "function"
    },
    {
      "inputs": [
        {
          "internalType": "bytes32",
          "name": "",
          "type": "bytes32"
        }
      ],
      "name": "tokenInfoToWrappedToken",
      "outputs": [
        {
          "internalType": "address",
          "name": "",
          "type": "address"
        }
      ],
      "stateMutability": "view",
      "type": "function"
    },
    {
      "inputs": [
        {
          "internalType": "bytes32",
          "name": "leafHash",
          "type": "bytes32"
        },
        {
          "internalType": "bytes32[32]",
          "name": "smtProof",
          "type": "bytes32[32]"
        },
        {
          "internalType": "uint32",
          "name": "index",
          "type": "uint32"
        },
        {
          "internalType": "bytes32",
          "name": "root",
          "type": "bytes32"
        }
      ],
      "name": "verifyMerkleProof",
      "outputs": [
        {
          "internalType": "bool",
          "name": "",
          "type": "bool"
        }
      ],
      "stateMutability": "pure",
      "type": "function"
    },
    {
      "inputs": [
        {
          "internalType": "address",
          "name": "",
          "type": "address"
        }
      ],
      "name": "wrappedTokenToTokenInfo",
      "outputs": [
        {
          "internalType": "uint32",
          "name": "originNetwork",
          "type": "uint32"
        },
        {
          "internalType": "address",
          "name": "originTokenAddress",
          "type": "address"
        }
      ],
      "stateMutability": "view",
      "type": "function"
    }
  ],
  "bytecode": "0x608060405234801561001057600080fd5b5061476b806100206000396000f3fe608060405260043610620001675760003560e01c806381b1c17411620000c5578063d96a15f71162000078578063d96a15f7146200049a578063dbc1697614620004b1578063ed6be5c914620004c9578063ee25560b14620004e0578063fb5708341462000511578063ff634ed7146200053657600080fd5b806381b1c17414620003705780639e34070f14620003aa578063a08e8a0814620003ef578063aaa13cc21462000419578063bab161bf146200043e578063d02103ca146200047857600080fd5b80632dfdf0b5116200011e5780632dfdf0b51462000256578063318aee3d146200027d57806334ac9cf214620002ec5780633ae05047146200030e5780633e1970431462000326578063647c576c146200034b57600080fd5b80630871e971146200016c57806315064c9614620001855780632072f6c514620001b657806322e95f2c14620001ce5780632cffd02e146200020c5780632d2c9d941462000231575b600080fd5b620001836200017d366004620023ab565b6200054d565b005b3480156200019257600080fd5b50602254620001a19060ff1681565b60405190151581526020015b60405180910390f35b348015620001c357600080fd5b5062000183620009ef565b348015620001db57600080fd5b50620001f3620001ed36600462002437565b62000a28565b6040516001600160a01b039091168152602001620001ad565b3480156200021957600080fd5b50620001836200022b36600462002486565b62000a7b565b3480156200023e57600080fd5b50620001836200025036600462002486565b62000ece565b3480156200026357600080fd5b506200026e60215481565b604051908152602001620001ad565b3480156200028a57600080fd5b50620002c76200029c3660046200256b565b60256020526000908152604090205463ffffffff81169064010000000090046001600160a01b031682565b6040805163ffffffff90931683526001600160a01b03909116602083015201620001ad565b348015620002f957600080fd5b50602754620001f3906001600160a01b031681565b3480156200031b57600080fd5b506200026e62001067565b3480156200033357600080fd5b506200026e62000345366004620025a2565b6200115a565b3480156200035857600080fd5b50620001836200036a3660046200262c565b620011e7565b3480156200037d57600080fd5b50620001f36200038f3660046200267c565b6024602052600090815260409020546001600160a01b031681565b348015620003b757600080fd5b50620001a1620003c93660046200267c565b600881901c600090815260236020526040902054600160ff9092169190911b9081161490565b348015620003fc57600080fd5b5062000406600081565b60405160ff9091168152602001620001ad565b3480156200042657600080fd5b50620001f36200043836600462002696565b62001346565b3480156200044b57600080fd5b506022546200046290610100900463ffffffff1681565b60405163ffffffff9091168152602001620001ad565b3480156200048557600080fd5b50602654620001f3906001600160a01b031681565b62000183620004ab36600462002749565b6200145d565b348015620004be57600080fd5b50620001836200161e565b348015620004d657600080fd5b5062000462600081565b348015620004ed57600080fd5b506200026e620004ff3660046200267c565b60236020526000908152604090205481565b3480156200051e57600080fd5b50620001a162000530366004620027b3565b62001655565b3480156200054357600080fd5b5062000406600181565b60225460ff16156200057c5760405162461bcd60e51b8152600401620005739062002800565b60405180910390fd5b60225463ffffffff610100909104811690861603620006045760405162461bcd60e51b815260206004820152603d60248201527f506f6c79676f6e5a6b45564d4272696467653a3a62726964676541737365743a60448201527f2044657374696e6174696f6e2063616e6e6f7420626520697473656c66000000606482015260840162000573565b60008060606001600160a01b038916620006a7578534146200069d5760405162461bcd60e51b8152602060048201526044602482018190527f506f6c79676f6e5a6b45564d4272696467653a3a62726964676541737365743a908201527f20416d6f756e7420646f6573206e6f74206d61746368206d6573736167652e76606482015263616c756560e01b608482015260a40162000573565b6000915062000909565b6001600160a01b03808a1660009081526025602090815260409182902082518084019093525463ffffffff81168352640100000000900490921691810182905290156200076657604051632770a7eb60e21b81526001600160a01b038b1690639dc29fac906200071e9033908b9060040162002868565b600060405180830381600087803b1580156200073957600080fd5b505af11580156200074e573d6000803e3d6000fd5b50505050806020015193508060000151925062000907565b84156200077b576200077b8a8888886200174d565b620007926001600160a01b038b1633308a62001b4a565b899350602260019054906101000a900463ffffffff169250896001600160a01b03166306fdde036040518163ffffffff1660e01b8152600401600060405180830381865afa158015620007e9573d6000803e3d6000fd5b505050506040513d6000823e601f3d908101601f1916820160405262000813919081019062002923565b8a6001600160a01b03166395d89b416040518163ffffffff1660e01b8152600401600060405180830381865afa15801562000852573d6000803e3d6000fd5b505050506040513d6000823e601f3d908101601f191682016040526200087c919081019062002923565b8b6001600160a01b031663313ce5676040518163ffffffff1660e01b8152600401602060405180830381865afa158015620008bb573d6000803e3d6000fd5b505050506040513d601f19601f82011682018060405250810190620008e19190620029a8565b604051602001620008f593929190620029f6565b60405160208183030381529060405291505b505b7f501781209a1f8899323b96b4ef08b168df93e0a90c673d1e4cce39366cb62f9b600083858b8b8b876021546040516200094b98979695949392919062002a33565b60405180910390a16200097662000970600084868c8c8c88805190602001206200115a565b62001bb7565b6026546001600160a01b03166333d6247d6200099162001067565b6040518263ffffffff1660e01b8152600401620009b091815260200190565b600060405180830381600087803b158015620009cb57600080fd5b505af1158015620009e0573d6000803e3d6000fd5b50505050505050505050505050565b6027546001600160a01b0316331462000a1c5760405162461bcd60e51b8152600401620005739062002aa0565b62000a2662001d05565b565b600060246000848460405160200162000a4392919062002afd565b60408051601f19818403018152918152815160209283012083529082019290925201600020546001600160a01b031690505b92915050565b60225460ff161562000aa15760405162461bcd60e51b8152600401620005739062002800565b62000ab88b8b8b8b8b8b8b8b8b8b8b600062001d63565b6001600160a01b03861662000baf57604080516000808252602082019092526001600160a01b03861690859060405162000af3919062002b27565b60006040518083038185875af1925050503d806000811462000b32576040519150601f19603f3d011682016040523d82523d6000602084013e62000b37565b606091505b505090508062000ba85760405162461bcd60e51b815260206004820152603560248201527f506f6c79676f6e5a6b45564d4272696467653a3a636c61696d41737365743a20604482015274115d1a195c881d1c985b9cd9995c8819985a5b1959605a1b606482015260840162000573565b5062000e80565b60225463ffffffff61010090910481169088160362000be45762000bde6001600160a01b038716858562001fa5565b62000e80565b6000878760405160200162000bfb92919062002afd565b60408051601f198184030181529181528151602092830120600081815260249093529120549091506001600160a01b03168062000e18576000808062000c448688018862002b9b565b92509250925060008584848460405162000c5e906200231f565b62000c6c93929190620029f6565b8190604051809103906000f590508015801562000c8d573d6000803e3d6000fd5b506040516340c10f1960e01b81529091506001600160a01b038216906340c10f199062000cc1908d908d9060040162002868565b600060405180830381600087803b15801562000cdc57600080fd5b505af115801562000cf1573d6000803e3d6000fd5b50505050806024600088815260200190815260200160002060006101000a8154816001600160a01b0302191690836001600160a01b0316021790555060405180604001604052808e63ffffffff1681526020018d6001600160a01b031681525060256000836001600160a01b03166001600160a01b0316815260200190815260200160002060008201518160000160006101000a81548163ffffffff021916908363ffffffff16021790555060208201518160000160046101000a8154816001600160a01b0302191690836001600160a01b031602179055509050507f490e59a1701b938786ac72570a1efeac994a3dbe96e2e883e19e902ace6e6a398d8d838b8b60405162000e0695949392919062002c39565b60405180910390a15050505062000e7d565b6040516340c10f1960e01b81526001600160a01b038216906340c10f199062000e48908990899060040162002868565b600060405180830381600087803b15801562000e6357600080fd5b505af115801562000e78573d6000803e3d6000fd5b505050505b50505b7f25308c93ceeed162da955b3f7ce3e3f93606579e40fb92029faa9efe275459838a8888878760405162000eb995949392919062002c74565b60405180910390a15050505050505050505050565b60225460ff161562000ef45760405162461bcd60e51b8152600401620005739062002800565b62000f0b8b8b8b8b8b8b8b8b8b8b8b600162001d63565b6000846001600160a01b031684888a868660405160240162000f31949392919062002cab565b60408051601f198184030181529181526020820180516001600160e01b0316630c035af960e11b1790525162000f68919062002b27565b60006040518083038185875af1925050503d806000811462000fa7576040519150601f19603f3d011682016040523d82523d6000602084013e62000fac565b606091505b5050905080620010185760405162461bcd60e51b815260206004820152603060248201527f506f6c79676f6e5a6b45564d4272696467653a3a636c61696d4d65737361676560448201526f0e8813595cdcd859d94819985a5b195960821b606482015260840162000573565b7f25308c93ceeed162da955b3f7ce3e3f93606579e40fb92029faa9efe275459838b898988886040516200105195949392919062002c74565b60405180910390a1505050505050505050505050565b602154600090819081805b6020811015620011515782600116600103620010d257600181602081106200109e576200109e62002ce8565b01546040805160208101929092528101859052606001604051602081830303815290604052805190602001209350620010ff565b60408051602081018690529081018390526060016040516020818303038152906040528051906020012093505b6200110c60028462002d14565b60408051602081018590529081018490529093506060016040516020818303038152906040528051906020012091508080620011489062002d37565b91505062001072565b50919392505050565b6040516001600160f81b031960f889901b1660208201526001600160e01b031960e088811b821660218401526001600160601b0319606089811b821660258601529188901b909216603984015285901b16603d8201526051810183905260718101829052600090609101604051602081830303815290604052805190602001209050979650505050505050565b600054610100900460ff1615808015620012085750600054600160ff909116105b80620012245750303b15801562001224575060005460ff166001145b620012895760405162461bcd60e51b815260206004820152602e60248201527f496e697469616c697a61626c653a20636f6e747261637420697320616c72656160448201526d191e481a5b9a5d1a585b1a5e995960921b606482015260840162000573565b6000805460ff191660011790558015620012ad576000805461ff0019166101001790555b6022805463ffffffff86166101000264ffffffff0019909116179055602680546001600160a01b038086166001600160a01b0319928316179092556027805492851692909116919091179055801562001340576000805461ff0019169055604051600181527f7f26b83ff96e1f2b6a682f133852f6798a09c465da95921460cefb38474024989060200160405180910390a15b50505050565b60008088886040516020016200135e92919062002afd565b604051602081830303815290604052805190602001209050600060ff60f81b30836040518060200162001391906200231f565b601f1982820381018352601f909101166040819052620013be908d908d908d908d908d9060200162002d53565b60408051601f1981840301815290829052620013de929160200162002d94565b604051602081830303815290604052805190602001206040516020016200143794939291906001600160f81b031994909416845260609290921b6001600160601b03191660018401526015830152603582015260550190565b60408051808303601f1901815291905280516020909101209a9950505050505050505050565b60225460ff1615620014835760405162461bcd60e51b8152600401620005739062002800565b60225463ffffffff6101009091048116908516036200150b5760405162461bcd60e51b815260206004820152603f60248201527f506f6c79676f6e5a6b45564d4272696467653a3a6272696467654d657373616760448201527f653a2044657374696e6174696f6e2063616e6e6f7420626520697473656c6600606482015260840162000573565b7f501781209a1f8899323b96b4ef08b168df93e0a90c673d1e4cce39366cb62f9b6001602260019054906101000a900463ffffffff16338787348888602154604051620015619998979695949392919062002dc7565b60405180910390a1620015aa620009706001602260019054906101000a900463ffffffff163388883489896040516200159c92919062002e36565b60405180910390206200115a565b6026546001600160a01b03166333d6247d620015c562001067565b6040518263ffffffff1660e01b8152600401620015e491815260200190565b600060405180830381600087803b158015620015ff57600080fd5b505af115801562001614573d6000803e3d6000fd5b5050505050505050565b6027546001600160a01b031633146200164b5760405162461bcd60e51b8152600401620005739062002aa0565b62000a2662001fc7565b60008463ffffffff8416825b60208110156200173e5781600116600103620016cb578681602081106200168c576200168c62002ce8565b602002013583604051602001620016ad929190918252602082015260400190565b6040516020818303038152906040528051906020012092506200171a565b82878260208110620016e157620016e162002ce8565b602002013560405160200162001701929190918252602082015260400190565b6040516020818303038152906040528051906020012092505b6200172760028362002d14565b915080620017358162002d37565b91505062001661565b5050821490505b949350505050565b60006200175e600482848662002e46565b620017699162002e72565b9050632afa533160e01b6001600160e01b03198216016200195e5760008080808080806200179b896004818d62002e46565b810190620017aa919062002ea3565b9650965096509650965096509650336001600160a01b0316876001600160a01b031614620017ec5760405162461bcd60e51b8152600401620005739062002efe565b6001600160a01b0386163014620018175760405162461bcd60e51b8152600401620005739062002f5b565b8a85146200188a5760405162461bcd60e51b815260206004820152603960248201527f506f6c79676f6e5a6b45564d4272696467653a3a5f7065726d69743a205065726044820152780dad2e840c2dadeeadce840c8decae640dcdee840dac2e8c6d603b1b606482015260840162000573565b604080516001600160a01b0389811660248301528881166044830152606482018890526084820187905260ff861660a483015260c4820185905260e48083018590528351808403909101815261010490920183526020820180516001600160e01b031663d505accf60e01b1790529151918e16916200190a919062002b27565b6000604051808303816000865af19150503d806000811462001949576040519150601f19603f3d011682016040523d82523d6000602084013e6200194e565b606091505b5050505050505050505062001b43565b6001600160e01b031981166323f2ebc360e21b14620019d45760405162461bcd60e51b815260206004820152602b60248201527f506f6c79676f6e5a6b45564d4272696467653a3a5f7065726d69743a204e6f7460448201526a081d985b1a590818d85b1b60aa1b606482015260840162000573565b600080808080808080620019ec8a6004818e62002e46565b810190620019fb919062002fbd565b97509750975097509750975097509750336001600160a01b0316886001600160a01b03161462001a3f5760405162461bcd60e51b8152600401620005739062002efe565b6001600160a01b038716301462001a6a5760405162461bcd60e51b8152600401620005739062002f5b565b604080516001600160a01b038a811660248301528981166044830152606482018990526084820188905286151560a483015260ff861660c483015260e482018590526101048083018590528351808403909101815261012490920183526020820180516001600160e01b03166323f2ebc360e21b1790529151918f169162001af3919062002b27565b6000604051808303816000865af19150503d806000811462001b32576040519150601f19603f3d011682016040523d82523d6000602084013e62001b37565b606091505b50505050505050505050505b5050505050565b6040516001600160a01b0380851660248301528316604482015260648101829052620013409085906323b872dd60e01b906084015b60408051601f198184030181529190526020810180516001600160e01b03166001600160e01b03199093169290921790915262002076565b80600162001bc86020600262003146565b62001bd4919062003154565b6021541062001c395760405162461bcd60e51b815260206004820152602a60248201527f4465706f736974436f6e74726163743a5f6465706f7369743a204d65726b6c65604482015269081d1c995948199d5b1b60b21b606482015260840162000573565b600060216000815462001c4c9062002d37565b9182905550905060005b602081101562001cf5578160011660010362001c8b57826001826020811062001c835762001c8362002ce8565b015550505050565b6001816020811062001ca15762001ca162002ce8565b0154604080516020810192909252810184905260600160405160208183030381529060405280519060200120925060028262001cde919062002d14565b91508062001cec8162002d37565b91505062001c56565b5062001d006200316e565b505050565b60225460ff161562001d2b5760405162461bcd60e51b8152600401620005739062002800565b6022805460ff191660011790556040517f2261efe5aef6fedc1fd1550b25facc9181745623049c7901287030b9ad1a549790600090a1565b62001d748b63ffffffff166200214f565b6026546040805160208082018e90528183018d9052825180830384018152606083019384905280519101206312bd9b1960e11b90925260648101919091526000916001600160a01b03169063257b3632906084016020604051808303816000875af115801562001de8573d6000803e3d6000fd5b505050506040513d601f19601f8201168201806040525081019062001e0e919062003184565b90508060000362001e715760405162461bcd60e51b81526020600482015260376024820152600080516020620047168339815191526044820152760811db1bd8985b115e1a5d149bdbdd081a5b9d985b1a59604a1b606482015260840162000573565b60225463ffffffff888116610100909204161462001ef35760405162461bcd60e51b815260206004820152604360248201526000805160206200471683398151915260448201527f2044657374696e6174696f6e206e6574776f726b20646f6573206e6f74206d616064820152620e8c6d60eb1b608482015260a40162000573565b602254600090610100900463ffffffff1662001f1157508962001f14565b508a5b62001f3d62001f34848c8c8c8c8c8c8c6040516200159c92919062002e36565b8f8f8462001655565b62001f955760405162461bcd60e51b81526020600482015260326024820152600080516020620047168339815191526044820152711024b73b30b634b21039b6ba10383937b7b360711b606482015260840162000573565b5050505050505050505050505050565b62001d008363a9059cbb60e01b848460405160240162001b7f92919062002868565b60225460ff16620020415760405162461bcd60e51b815260206004820152603b60248201527f456d657267656e63794d616e616765723a3a6966456d657267656e637953746160448201527f74653a206f6e6c7920696620656d657267656e63792073746174650000000000606482015260840162000573565b6022805460ff191690556040517f1e5e34eea33501aecf2ebec9fe0e884a40804275ea7fe10b2ba084c8374308b390600090a1565b6000620020cd826040518060400160405280602081526020017f5361666545524332303a206c6f772d6c6576656c2063616c6c206661696c6564815250856001600160a01b0316620021ec9092919063ffffffff16565b80519091501562001d005780806020019051810190620020ee91906200319e565b62001d005760405162461bcd60e51b815260206004820152602a60248201527f5361666545524332303a204552433230206f7065726174696f6e20646964206e6044820152691bdd081cdd58d8d9595960b21b606482015260840162000573565b600881901c60008181526023602052604081208054600160ff861690811b9182189283905592909190818316900362001b435760405162461bcd60e51b815260206004820152603860248201527f506f6c79676f6e5a6b45564d4272696467653a3a5f736574416e64436865636b60448201527710db185a5b59590e88105b1c9958591e4818db185a5b595960421b606482015260840162000573565b606062001745848460008585600080866001600160a01b0316858760405162002216919062002b27565b60006040518083038185875af1925050503d806000811462002255576040519150601f19603f3d011682016040523d82523d6000602084013e6200225a565b606091505b50915091506200226d8783838762002278565b979650505050505050565b60608315620022ec578251600003620022e4576001600160a01b0385163b620022e45760405162461bcd60e51b815260206004820152601d60248201527f416464726573733a2063616c6c20746f206e6f6e2d636f6e7472616374000000604482015260640162000573565b508162001745565b620017458383815115620023035781518083602001fd5b8060405162461bcd60e51b8152600401620005739190620031be565b61154280620031d483390190565b6001600160a01b03811681146200234357600080fd5b50565b803563ffffffff811681146200235b57600080fd5b919050565b60008083601f8401126200237357600080fd5b5081356001600160401b038111156200238b57600080fd5b602083019150836020828501011115620023a457600080fd5b9250929050565b60008060008060008060a08789031215620023c557600080fd5b8635620023d2816200232d565b9550620023e26020880162002346565b94506040870135620023f4816200232d565b93506060870135925060808701356001600160401b038111156200241757600080fd5b6200242589828a0162002360565b979a9699509497509295939492505050565b600080604083850312156200244b57600080fd5b620024568362002346565b9150602083013562002468816200232d565b809150509250929050565b80610400810183101562000a7557600080fd5b60008060008060008060008060008060006105208c8e031215620024a957600080fd5b620024b58d8d62002473565b9a50620024c66104008d0162002346565b99506104208c013598506104408c01359750620024e76104608d0162002346565b96506104808c0135620024fa816200232d565b95506200250b6104a08d0162002346565b94506104c08c01356200251e816200232d565b93506104e08c013592506105008c01356001600160401b038111156200254357600080fd5b620025518e828f0162002360565b915080935050809150509295989b509295989b9093969950565b6000602082840312156200257e57600080fd5b81356200258b816200232d565b9392505050565b60ff811681146200234357600080fd5b600080600080600080600060e0888a031215620025be57600080fd5b8735620025cb8162002592565b9650620025db6020890162002346565b95506040880135620025ed816200232d565b9450620025fd6060890162002346565b935060808801356200260f816200232d565b9699959850939692959460a0840135945060c09093013592915050565b6000806000606084860312156200264257600080fd5b6200264d8462002346565b925060208401356200265f816200232d565b9150604084013562002671816200232d565b809150509250925092565b6000602082840312156200268f57600080fd5b5035919050565b600080600080600080600060a0888a031215620026b257600080fd5b620026bd8862002346565b96506020880135620026cf816200232d565b955060408801356001600160401b0380821115620026ec57600080fd5b620026fa8b838c0162002360565b909750955060608a01359150808211156200271457600080fd5b50620027238a828b0162002360565b9094509250506080880135620027398162002592565b8091505092959891949750929550565b600080600080606085870312156200276057600080fd5b6200276b8562002346565b935060208501356200277d816200232d565b925060408501356001600160401b038111156200279957600080fd5b620027a78782880162002360565b95989497509550505050565b6000806000806104608587031215620027cb57600080fd5b84359350620027de866020870162002473565b9250620027ef610420860162002346565b939692955092936104400135925050565b60208082526042908201527f456d657267656e63794d616e616765723a3a69664e6f74456d657267656e637960408201527f53746174653a206f6e6c79206966206e6f7420656d657267656e637920737461606082015261746560f01b608082015260a00190565b6001600160a01b03929092168252602082015260400190565b634e487b7160e01b600052604160045260246000fd5b604051601f8201601f191681016001600160401b0381118282101715620028c257620028c262002881565b604052919050565b60006001600160401b03821115620028e657620028e662002881565b50601f01601f191660200190565b60005b8381101562002911578181015183820152602001620028f7565b83811115620013405750506000910152565b6000602082840312156200293657600080fd5b81516001600160401b038111156200294d57600080fd5b8201601f810184136200295f57600080fd5b8051620029766200297082620028ca565b62002897565b8181528560208385010111156200298c57600080fd5b6200299f826020830160208601620028f4565b95945050505050565b600060208284031215620029bb57600080fd5b81516200258b8162002592565b60008151808452620029e2816020860160208601620028f4565b601f01601f19169290920160200192915050565b60608152600062002a0b6060830186620029c8565b828103602084015262002a1f8186620029c8565b91505060ff83166040830152949350505050565b60ff8916815263ffffffff88811660208301526001600160a01b03888116604084015287821660608401528616608083015260a0820185905261010060c0830181905260009162002a8784830187620029c8565b925080851660e085015250509998505050505050505050565b6020808252603a908201527f506f6c79676f6e5a6b45564d3a3a6f6e6c79506f6c79676f6e5a6b45564d3a2060408201527f6f6e6c7920506f6c79676f6e5a6b45564d20636f6e7472616374000000000000606082015260800190565b60e09290921b6001600160e01b031916825260601b6001600160601b031916600482015260180190565b6000825162002b3b818460208701620028f4565b9190910192915050565b600082601f83011262002b5757600080fd5b813562002b686200297082620028ca565b81815284602083860101111562002b7e57600080fd5b816020850160208301376000918101602001919091529392505050565b60008060006060848603121562002bb157600080fd5b83356001600160401b038082111562002bc957600080fd5b62002bd78783880162002b45565b9450602086013591508082111562002bee57600080fd5b5062002bfd8682870162002b45565b9250506040840135620026718162002592565b81835281816020850137506000828201602090810191909152601f909101601f19169091010190565b63ffffffff861681526001600160a01b038581166020830152841660408201526080606082018190526000906200226d908301848662002c10565b63ffffffff95861681529390941660208401526001600160a01b039182166040840152166060820152608081019190915260a00190565b6001600160a01b038516815263ffffffff8416602082015260606040820181905260009062002cde908301848662002c10565b9695505050505050565b634e487b7160e01b600052603260045260246000fd5b634e487b7160e01b600052601160045260246000fd5b60008262002d3257634e487b7160e01b600052601260045260246000fd5b500490565b60006001820162002d4c5762002d4c62002cfe565b5060010190565b60608152600062002d6960608301878962002c10565b828103602084015262002d7e81868862002c10565b91505060ff831660408301529695505050505050565b6000835162002da8818460208801620028f4565b83519083019062002dbe818360208801620028f4565b01949350505050565b60ff8a16815263ffffffff89811660208301526001600160a01b03898116604084015288821660608401528716608083015260a0820186905261010060c0830181905260009162002e1c848301878962002c10565b925080851660e085015250509a9950505050505050505050565b8183823760009101908152919050565b6000808585111562002e5757600080fd5b8386111562002e6557600080fd5b5050820193919092039150565b6001600160e01b0319813581811691600485101562002e9b5780818660040360031b1b83161692505b505092915050565b600080600080600080600060e0888a03121562002ebf57600080fd5b873562002ecc816200232d565b9650602088013562002ede816200232d565b9550604088013594506060880135935060808801356200260f8162002592565b6020808252603c908201527f506f6c79676f6e5a6b45564d4272696467653a3a5f7065726d69743a2050657260408201527f6d6974206f776e6572206d757374206265207468652073656e64657200000000606082015260800190565b60208082526033908201527f506f6c79676f6e5a6b45564d4272696467653a3a5f7065726d69743a205370656040820152726e646572206d7573742062652027746869732760681b606082015260800190565b80151581146200234357600080fd5b600080600080600080600080610100898b03121562002fdb57600080fd5b883562002fe8816200232d565b9750602089013562002ffa816200232d565b9650604089013595506060890135945060808901356200301a8162002fae565b935060a08901356200302c8162002592565b979a969950949793969295929450505060c08201359160e0013590565b600181815b808511156200308a5781600019048211156200306e576200306e62002cfe565b808516156200307c57918102915b93841c93908002906200304e565b509250929050565b600082620030a35750600162000a75565b81620030b25750600062000a75565b8160018114620030cb5760028114620030d657620030f6565b600191505062000a75565b60ff841115620030ea57620030ea62002cfe565b50506001821b62000a75565b5060208310610133831016604e8410600b84101617156200311b575081810a62000a75565b62003127838362003049565b80600019048211156200313e576200313e62002cfe565b029392505050565b60006200258b838362003092565b60008282101562003169576200316962002cfe565b500390565b634e487b7160e01b600052600160045260246000fd5b6000602082840312156200319757600080fd5b5051919050565b600060208284031215620031b157600080fd5b81516200258b8162002fae565b6020815260006200258b6020830184620029c856fe60c06040523480156200001157600080fd5b5060405162001542380380620015428339810160408190526200003491620002ad565b82826003620000448382620003c1565b506004620000538282620003c1565b5050600580546001600160a81b0319163360ff60a01b191617600160a01b60ff851602179055504660808190526200008b9062000098565b60a052506200048d915050565b60007f8b73c3c69bb8fe3d512ecc4cf759cc79239f7b179b0ffacaa9a75d522b39400f620000c562000146565b805160209182012060408051808201825260018152603160f81b90840152805192830193909352918101919091527fc89efdaa54c0f20c7adf612882df0950f5a951637e0307cdcb4c672f298b8bc66060820152608081018390523060a082015260c001604051602081830303815290604052805190602001209050919050565b606060038054620001579062000332565b80601f0160208091040260200160405190810160405280929190818152602001828054620001859062000332565b8015620001d65780601f10620001aa57610100808354040283529160200191620001d6565b820191906000526020600020905b815481529060010190602001808311620001b857829003601f168201915b5050505050905090565b634e487b7160e01b600052604160045260246000fd5b600082601f8301126200020857600080fd5b81516001600160401b0380821115620002255762000225620001e0565b604051601f8301601f19908116603f01168101908282118183101715620002505762000250620001e0565b816040528381526020925086838588010111156200026d57600080fd5b600091505b8382101562000291578582018301518183018401529082019062000272565b83821115620002a35760008385830101525b9695505050505050565b600080600060608486031215620002c357600080fd5b83516001600160401b0380821115620002db57600080fd5b620002e987838801620001f6565b945060208601519150808211156200030057600080fd5b506200030f86828701620001f6565b925050604084015160ff811681146200032757600080fd5b809150509250925092565b600181811c908216806200034757607f821691505b6020821081036200036857634e487b7160e01b600052602260045260246000fd5b50919050565b601f821115620003bc57600081815260208120601f850160051c81016020861015620003975750805b601f850160051c820191505b81811015620003b857828155600101620003a3565b5050505b505050565b81516001600160401b03811115620003dd57620003dd620001e0565b620003f581620003ee845462000332565b846200036e565b602080601f8311600181146200042d5760008415620004145750858301515b600019600386901b1c1916600185901b178555620003b8565b600085815260208120601f198616915b828110156200045e578886015182559484019460019091019084016200043d565b50858210156200047d5787850151600019600388901b60f8161c191681555b5050505050600190811b01905550565b60805160a051611088620004ba60003960006104690152600081816102f9015261043301526110886000f3fe608060405234801561001057600080fd5b50600436106101375760003560e01c806370a08231116100b8578063a457c2d71161007c578063a457c2d7146102ce578063a9059cbb146102e1578063cd0d0096146102f4578063d505accf1461031b578063dd62ed3e1461032e578063ffa1ad741461034157600080fd5b806370a082311461023f5780637ecebe001461026857806395d89b41146102885780639dc29fac14610290578063a3c573eb146102a357600080fd5b806330adf81f116100ff57806330adf81f146101c9578063313ce567146101f05780633644e5151461020f578063395093511461021757806340c10f191461022a57600080fd5b806306fdde031461013c578063095ea7b31461015a57806318160ddd1461017d57806320606b701461018f57806323b872dd146101b6575b600080fd5b610144610361565b6040516101519190610dc2565b60405180910390f35b61016d610168366004610e33565b6103f3565b6040519015158152602001610151565b6002545b604051908152602001610151565b6101817f8b73c3c69bb8fe3d512ecc4cf759cc79239f7b179b0ffacaa9a75d522b39400f81565b61016d6101c4366004610e5d565b61040b565b6101817f6e71edae12b1b97f4d1f60370fef10105fa2faae0126114a169c64845d6126c981565b600554600160a01b900460ff1660405160ff9091168152602001610151565b61018161042f565b61016d610225366004610e33565b61048b565b61023d610238366004610e33565b6104ad565b005b61018161024d366004610e99565b6001600160a01b031660009081526020819052604090205490565b610181610276366004610e99565b60066020526000908152604090205481565b6101446104ee565b61023d61029e366004610e33565b6104fd565b6005546102b6906001600160a01b031681565b6040516001600160a01b039091168152602001610151565b61016d6102dc366004610e33565b610531565b61016d6102ef366004610e33565b6105ac565b6101817f000000000000000000000000000000000000000000000000000000000000000081565b61023d610329366004610ebb565b6105ba565b61018161033c366004610f2e565b6107f5565b610144604051806040016040528060018152602001603160f81b81525081565b60606003805461037090610f61565b80601f016020809104026020016040519081016040528092919081815260200182805461039c90610f61565b80156103e95780601f106103be576101008083540402835291602001916103e9565b820191906000526020600020905b8154815290600101906020018083116103cc57829003601f168201915b5050505050905090565b600033610401818585610820565b5060019392505050565b600033610419858285610945565b6104248585856109bf565b506001949350505050565b60007f000000000000000000000000000000000000000000000000000000000000000046146104665761046146610b51565b905090565b507f000000000000000000000000000000000000000000000000000000000000000090565b60003361040181858561049e83836107f5565b6104a89190610fb1565b610820565b6005546001600160a01b031633146104e05760405162461bcd60e51b81526004016104d790610fc9565b60405180910390fd5b6104ea8282610bfd565b5050565b60606004805461037090610f61565b6005546001600160a01b031633146105275760405162461bcd60e51b81526004016104d790610fc9565b6104ea8282610caa565b6000338161053f82866107f5565b90508381101561059f5760405162461bcd60e51b815260206004820152602560248201527f45524332303a2064656372656173656420616c6c6f77616e63652062656c6f77604482015264207a65726f60d81b60648201526084016104d7565b6104248286868403610820565b6000336104018185856109bf565b834211156106165760405162461bcd60e51b8152602060048201526024808201527f546f6b656e577261707065643a3a7065726d69743a20457870697265642070656044820152631c9b5a5d60e21b60648201526084016104d7565b6001600160a01b038716600090815260066020526040812080547f6e71edae12b1b97f4d1f60370fef10105fa2faae0126114a169c64845d6126c9918a918a918a91908661066383611019565b909155506040805160208101969096526001600160a01b0394851690860152929091166060840152608083015260a082015260c0810186905260e00160405160208183030381529060405280519060200120905060006106c161042f565b60405161190160f01b602082015260228101919091526042810183905260620160408051601f198184030181528282528051602091820120600080855291840180845281905260ff89169284019290925260608301879052608083018690529092509060019060a0016020604051602081039080840390855afa15801561074c573d6000803e3d6000fd5b5050604051601f1901519150506001600160a01b038116158015906107825750896001600160a01b0316816001600160a01b0316145b6107de5760405162461bcd60e51b815260206004820152602760248201527f546f6b656e577261707065643a3a7065726d69743a20496e76616c6964207369604482015266676e617475726560c81b60648201526084016104d7565b6107e98a8a8a610820565b50505050505050505050565b6001600160a01b03918216600090815260016020908152604080832093909416825291909152205490565b6001600160a01b0383166108825760405162461bcd60e51b8152602060048201526024808201527f45524332303a20617070726f76652066726f6d20746865207a65726f206164646044820152637265737360e01b60648201526084016104d7565b6001600160a01b0382166108e35760405162461bcd60e51b815260206004820152602260248201527f45524332303a20617070726f766520746f20746865207a65726f206164647265604482015261737360f01b60648201526084016104d7565b6001600160a01b0383811660008181526001602090815260408083209487168084529482529182902085905590518481527f8c5be1e5ebec7d5bd14f71427d1e84f3dd0314c0f7b2291e5b200ac8c7c3b92591015b60405180910390a3505050565b600061095184846107f5565b905060001981146109b957818110156109ac5760405162461bcd60e51b815260206004820152601d60248201527f45524332303a20696e73756666696369656e7420616c6c6f77616e636500000060448201526064016104d7565b6109b98484848403610820565b50505050565b6001600160a01b038316610a235760405162461bcd60e51b815260206004820152602560248201527f45524332303a207472616e736665722066726f6d20746865207a65726f206164604482015264647265737360d81b60648201526084016104d7565b6001600160a01b038216610a855760405162461bcd60e51b815260206004820152602360248201527f45524332303a207472616e7366657220746f20746865207a65726f206164647260448201526265737360e81b60648201526084016104d7565b6001600160a01b03831660009081526020819052604090205481811015610afd5760405162461bcd60e51b815260206004820152602660248201527f45524332303a207472616e7366657220616d6f756e7420657863656564732062604482015265616c616e636560d01b60648201526084016104d7565b6001600160a01b0384811660008181526020818152604080832087870390559387168083529184902080548701905592518581529092600080516020611033833981519152910160405180910390a36109b9565b60007f8b73c3c69bb8fe3d512ecc4cf759cc79239f7b179b0ffacaa9a75d522b39400f610b7c610361565b805160209182012060408051808201825260018152603160f81b90840152805192830193909352918101919091527fc89efdaa54c0f20c7adf612882df0950f5a951637e0307cdcb4c672f298b8bc66060820152608081018390523060a082015260c001604051602081830303815290604052805190602001209050919050565b6001600160a01b038216610c535760405162461bcd60e51b815260206004820152601f60248201527f45524332303a206d696e7420746f20746865207a65726f20616464726573730060448201526064016104d7565b8060026000828254610c659190610fb1565b90915550506001600160a01b03821660008181526020818152604080832080548601905551848152600080516020611033833981519152910160405180910390a35050565b6001600160a01b038216610d0a5760405162461bcd60e51b815260206004820152602160248201527f45524332303a206275726e2066726f6d20746865207a65726f206164647265736044820152607360f81b60648201526084016104d7565b6001600160a01b03821660009081526020819052604090205481811015610d7e5760405162461bcd60e51b815260206004820152602260248201527f45524332303a206275726e20616d6f756e7420657863656564732062616c616e604482015261636560f01b60648201526084016104d7565b6001600160a01b0383166000818152602081815260408083208686039055600280548790039055518581529192916000805160206110338339815191529101610938565b600060208083528351808285015260005b81811015610def57858101830151858201604001528201610dd3565b81811115610e01576000604083870101525b50601f01601f1916929092016040019392505050565b80356001600160a01b0381168114610e2e57600080fd5b919050565b60008060408385031215610e4657600080fd5b610e4f83610e17565b946020939093013593505050565b600080600060608486031215610e7257600080fd5b610e7b84610e17565b9250610e8960208501610e17565b9150604084013590509250925092565b600060208284031215610eab57600080fd5b610eb482610e17565b9392505050565b600080600080600080600060e0888a031215610ed657600080fd5b610edf88610e17565b9650610eed60208901610e17565b95506040880135945060608801359350608088013560ff81168114610f1157600080fd5b9699959850939692959460a0840135945060c09093013592915050565b60008060408385031215610f4157600080fd5b610f4a83610e17565b9150610f5860208401610e17565b90509250929050565b600181811c90821680610f7557607f821691505b602082108103610f9557634e487b7160e01b600052602260045260246000fd5b50919050565b634e487b7160e01b600052601160045260246000fd5b60008219821115610fc457610fc4610f9b565b500190565b60208082526030908201527f546f6b656e577261707065643a3a6f6e6c794272696467653a204e6f7420506f60408201526f6c79676f6e5a6b45564d42726964676560801b606082015260800190565b60006001820161102b5761102b610f9b565b506001019056feddf252ad1be2c89b69c2b068fc378daa952ba7f163c4a11628f55a4df523b3efa2646970667358221220f5cb1be5672e4b9171c8095c9a4178cafc4ff839299052ba2870adc8c1beaffb64736f6c634300080f0033506f6c79676f6e5a6b45564d4272696467653a3a5f7665726966794c6561663aa26469706673582212200a940eae0e66801b4d749e04fe18703fd72767f848a4db4e04ef6b96e86f588b64736f6c634300080f0033",
  "linkReferences": {},
  "deployedLinkReferences": {}
}