{
  "_format": "hh-sol-artifact-1",
  "contractName": "PolygonZkEVM",
  "sourceName": "contracts/PolygonZkEVM.sol",
  "abi": [
    {
      "anonymous": false,
      "inputs": [
        {
          "indexed": true,
          "internalType": "uint64",
          "name": "numBatch",
          "type": "uint64"
        },
        {
          "indexed": false,
          "internalType": "bytes32",
          "name": "stateRoot",
          "type": "bytes32"
        },
        {
          "indexed": true,
          "internalType": "uint64",
          "name": "pendingStateNum",
          "type": "uint64"
        }
      ],
      "name": "ConsolidatePendingState",
      "type": "event"
    },
    {
      "anonymous": false,
      "inputs": [],
      "name": "EmergencyStateActivated",
      "type": "event"
    },
    {
      "anonymous": false,
      "inputs": [],
      "name": "EmergencyStateDeactivated",
      "type": "event"
    },
    {
      "anonymous": false,
      "inputs": [
        {
          "indexed": true,
          "internalType": "uint64",
          "name": "forceBatchNum",
          "type": "uint64"
        },
        {
          "indexed": false,
          "internalType": "bytes32",
          "name": "lastGlobalExitRoot",
          "type": "bytes32"
        },
        {
          "indexed": false,
          "internalType": "address",
          "name": "sequencer",
          "type": "address"
        },
        {
          "indexed": false,
          "internalType": "bytes",
          "name": "transactions",
          "type": "bytes"
        }
      ],
      "name": "ForceBatch",
      "type": "event"
    },
    {
      "anonymous": false,
      "inputs": [
        {
          "indexed": false,
          "internalType": "uint8",
          "name": "version",
          "type": "uint8"
        }
      ],
      "name": "Initialized",
      "type": "event"
    },
    {
      "anonymous": false,
      "inputs": [
        {
          "indexed": true,
          "internalType": "uint64",
          "name": "numBatch",
          "type": "uint64"
        },
        {
          "indexed": false,
          "internalType": "bytes32",
          "name": "stateRoot",
          "type": "bytes32"
        },
        {
          "indexed": true,
          "internalType": "address",
          "name": "aggregator",
          "type": "address"
        }
      ],
      "name": "OverridePendingState",
      "type": "event"
    },
    {
      "anonymous": false,
      "inputs": [
        {
          "indexed": true,
          "internalType": "address",
          "name": "previousOwner",
          "type": "address"
        },
        {
          "indexed": true,
          "internalType": "address",
          "name": "newOwner",
          "type": "address"
        }
      ],
      "name": "OwnershipTransferred",
      "type": "event"
    },
    {
      "anonymous": false,
      "inputs": [
        {
          "indexed": false,
          "internalType": "bytes32",
          "name": "storedStateRoot",
          "type": "bytes32"
        },
        {
          "indexed": false,
          "internalType": "bytes32",
          "name": "provedStateRoot",
          "type": "bytes32"
        }
      ],
      "name": "ProveNonDeterministicPendingState",
      "type": "event"
    },
    {
      "anonymous": false,
      "inputs": [
        {
          "indexed": true,
          "internalType": "uint64",
          "name": "numBatch",
          "type": "uint64"
        }
      ],
      "name": "SequenceBatches",
      "type": "event"
    },
    {
      "anonymous": false,
      "inputs": [
        {
          "indexed": true,
          "internalType": "uint64",
          "name": "numBatch",
          "type": "uint64"
        }
      ],
      "name": "SequenceForceBatches",
      "type": "event"
    },
    {
      "anonymous": false,
      "inputs": [
        {
          "indexed": false,
          "internalType": "address",
          "name": "newAdmin",
          "type": "address"
        }
      ],
      "name": "SetAdmin",
      "type": "event"
    },
    {
      "anonymous": false,
      "inputs": [
        {
          "indexed": false,
          "internalType": "bool",
          "name": "newForceBatchAllowed",
          "type": "bool"
        }
      ],
      "name": "SetForceBatchAllowed",
      "type": "event"
    },
    {
      "anonymous": false,
      "inputs": [
        {
          "indexed": false,
          "internalType": "uint16",
          "name": "newMultiplierBatchFee",
          "type": "uint16"
        }
      ],
      "name": "SetMultiplierBatchFee",
      "type": "event"
    },
    {
      "anonymous": false,
      "inputs": [
        {
          "indexed": false,
          "internalType": "uint64",
          "name": "newPendingStateTimeout",
          "type": "uint64"
        }
      ],
      "name": "SetPendingStateTimeout",
      "type": "event"
    },
    {
      "anonymous": false,
      "inputs": [
        {
          "indexed": false,
          "internalType": "address",
          "name": "newTrustedAggregator",
          "type": "address"
        }
      ],
      "name": "SetTrustedAggregator",
      "type": "event"
    },
    {
      "anonymous": false,
      "inputs": [
        {
          "indexed": false,
          "internalType": "uint64",
          "name": "newTrustedAggregatorTimeout",
          "type": "uint64"
        }
      ],
      "name": "SetTrustedAggregatorTimeout",
      "type": "event"
    },
    {
      "anonymous": false,
      "inputs": [
        {
          "indexed": false,
          "internalType": "address",
          "name": "newTrustedSequencer",
          "type": "address"
        }
      ],
      "name": "SetTrustedSequencer",
      "type": "event"
    },
    {
      "anonymous": false,
      "inputs": [
        {
          "indexed": false,
          "internalType": "string",
          "name": "newTrustedSequencerURL",
          "type": "string"
        }
      ],
      "name": "SetTrustedSequencerURL",
      "type": "event"
    },
    {
      "anonymous": false,
      "inputs": [
        {
          "indexed": false,
          "internalType": "uint64",
          "name": "newVeryBatchTimeTarget",
          "type": "uint64"
        }
      ],
      "name": "SetVeryBatchTimeTarget",
      "type": "event"
    },
    {
      "anonymous": false,
      "inputs": [
        {
          "indexed": true,
          "internalType": "uint64",
          "name": "numBatch",
          "type": "uint64"
        },
        {
          "indexed": false,
          "internalType": "bytes32",
          "name": "stateRoot",
          "type": "bytes32"
        },
        {
          "indexed": true,
          "internalType": "address",
          "name": "aggregator",
          "type": "address"
        }
      ],
      "name": "TrustedVerifyBatches",
      "type": "event"
    },
    {
      "anonymous": false,
      "inputs": [
        {
          "indexed": true,
          "internalType": "uint64",
          "name": "numBatch",
          "type": "uint64"
        },
        {
          "indexed": false,
          "internalType": "bytes32",
          "name": "stateRoot",
          "type": "bytes32"
        },
        {
          "indexed": true,
          "internalType": "address",
          "name": "aggregator",
          "type": "address"
        }
      ],
      "name": "VerifyBatches",
      "type": "event"
    },
    {
      "inputs": [],
      "name": "FORCE_BATCH_TIMEOUT",
      "outputs": [
        {
          "internalType": "uint64",
          "name": "",
          "type": "uint64"
        }
      ],
      "stateMutability": "view",
      "type": "function"
    },
    {
      "inputs": [],
      "name": "HALT_AGGREGATION_TIMEOUT",
      "outputs": [
        {
          "internalType": "uint64",
          "name": "",
          "type": "uint64"
        }
      ],
      "stateMutability": "view",
      "type": "function"
    },
    {
      "inputs": [],
      "name": "MAX_BATCH_MULTIPLIER",
      "outputs": [
        {
          "internalType": "uint256",
          "name": "",
          "type": "uint256"
        }
      ],
      "stateMutability": "view",
      "type": "function"
    },
    {
      "inputs": [],
      "name": "MAX_TRANSACTIONS_BYTE_LENGTH",
      "outputs": [
        {
          "internalType": "uint256",
          "name": "",
          "type": "uint256"
        }
      ],
      "stateMutability": "view",
      "type": "function"
    },
    {
      "inputs": [],
      "name": "MAX_VERIFY_BATCHES",
      "outputs": [
        {
          "internalType": "uint64",
          "name": "",
          "type": "uint64"
        }
      ],
      "stateMutability": "view",
      "type": "function"
    },
    {
      "inputs": [
        {
          "internalType": "uint64",
          "name": "sequencedBatchNum",
          "type": "uint64"
        }
      ],
      "name": "activateEmergencyState",
      "outputs": [],
      "stateMutability": "nonpayable",
      "type": "function"
    },
    {
      "inputs": [],
      "name": "admin",
      "outputs": [
        {
          "internalType": "address",
          "name": "",
          "type": "address"
        }
      ],
      "stateMutability": "view",
      "type": "function"
    },
    {
      "inputs": [],
      "name": "batchFee",
      "outputs": [
        {
          "internalType": "uint256",
          "name": "",
          "type": "uint256"
        }
      ],
      "stateMutability": "view",
      "type": "function"
    },
    {
      "inputs": [
        {
          "internalType": "uint64",
          "name": "",
          "type": "uint64"
        }
      ],
      "name": "batchNumToStateRoot",
      "outputs": [
        {
          "internalType": "bytes32",
          "name": "",
          "type": "bytes32"
        }
      ],
      "stateMutability": "view",
      "type": "function"
    },
    {
      "inputs": [],
      "name": "bridgeAddress",
      "outputs": [
        {
          "internalType": "contract IPolygonZkEVMBridge",
          "name": "",
          "type": "address"
        }
      ],
      "stateMutability": "view",
      "type": "function"
    },
    {
      "inputs": [],
      "name": "calculateRewardPerBatch",
      "outputs": [
        {
          "internalType": "uint256",
          "name": "",
          "type": "uint256"
        }
      ],
      "stateMutability": "view",
      "type": "function"
    },
    {
      "inputs": [],
      "name": "chainID",
      "outputs": [
        {
          "internalType": "uint64",
          "name": "",
          "type": "uint64"
        }
      ],
      "stateMutability": "view",
      "type": "function"
    },
    {
      "inputs": [
        {
          "internalType": "uint64",
          "name": "pendingStateNum",
          "type": "uint64"
        }
      ],
      "name": "consolidatePendingState",
      "outputs": [],
      "stateMutability": "nonpayable",
      "type": "function"
    },
    {
      "inputs": [],
      "name": "deactivateEmergencyState",
      "outputs": [],
      "stateMutability": "nonpayable",
      "type": "function"
    },
    {
      "inputs": [
        {
          "internalType": "bytes",
          "name": "transactions",
          "type": "bytes"
        },
        {
          "internalType": "uint256",
          "name": "maticAmount",
          "type": "uint256"
        }
      ],
      "name": "forceBatch",
      "outputs": [],
      "stateMutability": "nonpayable",
      "type": "function"
    },
    {
      "inputs": [],
      "name": "forceBatchAllowed",
      "outputs": [
        {
          "internalType": "bool",
          "name": "",
          "type": "bool"
        }
      ],
      "stateMutability": "view",
      "type": "function"
    },
    {
      "inputs": [
        {
          "internalType": "uint64",
          "name": "",
          "type": "uint64"
        }
      ],
      "name": "forcedBatches",
      "outputs": [
        {
          "internalType": "bytes32",
          "name": "",
          "type": "bytes32"
        }
      ],
      "stateMutability": "view",
      "type": "function"
    },
    {
      "inputs": [],
      "name": "getCurrentBatchFee",
      "outputs": [
        {
          "internalType": "uint256",
          "name": "",
          "type": "uint256"
        }
      ],
      "stateMutability": "view",
      "type": "function"
    },
    {
      "inputs": [
        {
          "internalType": "uint64",
          "name": "initNumBatch",
          "type": "uint64"
        },
        {
          "internalType": "uint64",
          "name": "finalNewBatch",
          "type": "uint64"
        },
        {
          "internalType": "bytes32",
          "name": "newLocalExitRoot",
          "type": "bytes32"
        },
        {
          "internalType": "bytes32",
          "name": "oldStateRoot",
          "type": "bytes32"
        },
        {
          "internalType": "bytes32",
          "name": "newStateRoot",
          "type": "bytes32"
        }
      ],
      "name": "getInputSnarkBytes",
      "outputs": [
        {
          "internalType": "bytes",
          "name": "",
          "type": "bytes"
        }
      ],
      "stateMutability": "view",
      "type": "function"
    },
    {
      "inputs": [],
      "name": "getLastVerifiedBatch",
      "outputs": [
        {
          "internalType": "uint64",
          "name": "",
          "type": "uint64"
        }
      ],
      "stateMutability": "view",
      "type": "function"
    },
    {
      "inputs": [],
      "name": "globalExitRootManager",
      "outputs": [
        {
          "internalType": "contract IPolygonZkEVMGlobalExitRoot",
          "name": "",
          "type": "address"
        }
      ],
      "stateMutability": "view",
      "type": "function"
    },
    {
      "inputs": [
        {
          "internalType": "contract IPolygonZkEVMGlobalExitRoot",
          "name": "_globalExitRootManager",
          "type": "address"
        },
        {
          "internalType": "contract IERC20Upgradeable",
          "name": "_matic",
          "type": "address"
        },
        {
          "internalType": "contract IVerifierRollup",
          "name": "_rollupVerifier",
          "type": "address"
        },
        {
          "internalType": "contract IPolygonZkEVMBridge",
          "name": "_bridgeAddress",
          "type": "address"
        },
        {
          "components": [
            {
              "internalType": "address",
              "name": "admin",
              "type": "address"
            },
            {
              "internalType": "uint64",
              "name": "chainID",
              "type": "uint64"
            },
            {
              "internalType": "address",
              "name": "trustedSequencer",
              "type": "address"
            },
            {
              "internalType": "uint64",
              "name": "pendingStateTimeout",
              "type": "uint64"
            },
            {
              "internalType": "bool",
              "name": "forceBatchAllowed",
              "type": "bool"
            },
            {
              "internalType": "address",
              "name": "trustedAggregator",
              "type": "address"
            },
            {
              "internalType": "uint64",
              "name": "trustedAggregatorTimeout",
              "type": "uint64"
            }
          ],
          "internalType": "struct PolygonZkEVM.InitializePackedParameters",
          "name": "initializePackedParameters",
          "type": "tuple"
        },
        {
          "internalType": "bytes32",
          "name": "genesisRoot",
          "type": "bytes32"
        },
        {
          "internalType": "string",
          "name": "_trustedSequencerURL",
          "type": "string"
        },
        {
          "internalType": "string",
          "name": "_networkName",
          "type": "string"
        }
      ],
      "name": "initialize",
      "outputs": [],
      "stateMutability": "nonpayable",
      "type": "function"
    },
    {
      "inputs": [],
      "name": "isEmergencyState",
      "outputs": [
        {
          "internalType": "bool",
          "name": "",
          "type": "bool"
        }
      ],
      "stateMutability": "view",
      "type": "function"
    },
    {
      "inputs": [
        {
          "internalType": "uint64",
          "name": "pendingStateNum",
          "type": "uint64"
        }
      ],
      "name": "isPendingStateConsolidable",
      "outputs": [
        {
          "internalType": "bool",
          "name": "",
          "type": "bool"
        }
      ],
      "stateMutability": "view",
      "type": "function"
    },
    {
      "inputs": [],
      "name": "lastBatchSequenced",
      "outputs": [
        {
          "internalType": "uint64",
          "name": "",
          "type": "uint64"
        }
      ],
      "stateMutability": "view",
      "type": "function"
    },
    {
      "inputs": [],
      "name": "lastForceBatch",
      "outputs": [
        {
          "internalType": "uint64",
          "name": "",
          "type": "uint64"
        }
      ],
      "stateMutability": "view",
      "type": "function"
    },
    {
      "inputs": [],
      "name": "lastForceBatchSequenced",
      "outputs": [
        {
          "internalType": "uint64",
          "name": "",
          "type": "uint64"
        }
      ],
      "stateMutability": "view",
      "type": "function"
    },
    {
      "inputs": [],
      "name": "lastPendingState",
      "outputs": [
        {
          "internalType": "uint64",
          "name": "",
          "type": "uint64"
        }
      ],
      "stateMutability": "view",
      "type": "function"
    },
    {
      "inputs": [],
      "name": "lastPendingStateConsolidated",
      "outputs": [
        {
          "internalType": "uint64",
          "name": "",
          "type": "uint64"
        }
      ],
      "stateMutability": "view",
      "type": "function"
    },
    {
      "inputs": [],
      "name": "lastTimestamp",
      "outputs": [
        {
          "internalType": "uint64",
          "name": "",
          "type": "uint64"
        }
      ],
      "stateMutability": "view",
      "type": "function"
    },
    {
      "inputs": [],
      "name": "lastVerifiedBatch",
      "outputs": [
        {
          "internalType": "uint64",
          "name": "",
          "type": "uint64"
        }
      ],
      "stateMutability": "view",
      "type": "function"
    },
    {
      "inputs": [],
      "name": "matic",
      "outputs": [
        {
          "internalType": "contract IERC20Upgradeable",
          "name": "",
          "type": "address"
        }
      ],
      "stateMutability": "view",
      "type": "function"
    },
    {
      "inputs": [],
      "name": "multiplierBatchFee",
      "outputs": [
        {
          "internalType": "uint16",
          "name": "",
          "type": "uint16"
        }
      ],
      "stateMutability": "view",
      "type": "function"
    },
    {
      "inputs": [],
      "name": "networkName",
      "outputs": [
        {
          "internalType": "string",
          "name": "",
          "type": "string"
        }
      ],
      "stateMutability": "view",
      "type": "function"
    },
    {
      "inputs": [
        {
          "internalType": "uint64",
          "name": "initPendingStateNum",
          "type": "uint64"
        },
        {
          "internalType": "uint64",
          "name": "finalPendingStateNum",
          "type": "uint64"
        },
        {
          "internalType": "uint64",
          "name": "initNumBatch",
          "type": "uint64"
        },
        {
          "internalType": "uint64",
          "name": "finalNewBatch",
          "type": "uint64"
        },
        {
          "internalType": "bytes32",
          "name": "newLocalExitRoot",
          "type": "bytes32"
        },
        {
          "internalType": "bytes32",
          "name": "newStateRoot",
          "type": "bytes32"
        },
        {
          "internalType": "uint256[2]",
          "name": "proofA",
          "type": "uint256[2]"
        },
        {
          "internalType": "uint256[2][2]",
          "name": "proofB",
          "type": "uint256[2][2]"
        },
        {
          "internalType": "uint256[2]",
          "name": "proofC",
          "type": "uint256[2]"
        }
      ],
      "name": "overridePendingState",
      "outputs": [],
      "stateMutability": "nonpayable",
      "type": "function"
    },
    {
      "inputs": [],
      "name": "owner",
      "outputs": [
        {
          "internalType": "address",
          "name": "",
          "type": "address"
        }
      ],
      "stateMutability": "view",
      "type": "function"
    },
    {
      "inputs": [],
      "name": "pendingStateTimeout",
      "outputs": [
        {
          "internalType": "uint64",
          "name": "",
          "type": "uint64"
        }
      ],
      "stateMutability": "view",
      "type": "function"
    },
    {
      "inputs": [
        {
          "internalType": "uint256",
          "name": "",
          "type": "uint256"
        }
      ],
      "name": "pendingStateTransitions",
      "outputs": [
        {
          "internalType": "uint64",
          "name": "timestamp",
          "type": "uint64"
        },
        {
          "internalType": "uint64",
          "name": "lastVerifiedBatch",
          "type": "uint64"
        },
        {
          "internalType": "bytes32",
          "name": "exitRoot",
          "type": "bytes32"
        },
        {
          "internalType": "bytes32",
          "name": "stateRoot",
          "type": "bytes32"
        }
      ],
      "stateMutability": "view",
      "type": "function"
    },
    {
      "inputs": [
        {
          "internalType": "uint64",
          "name": "initPendingStateNum",
          "type": "uint64"
        },
        {
          "internalType": "uint64",
          "name": "finalPendingStateNum",
          "type": "uint64"
        },
        {
          "internalType": "uint64",
          "name": "initNumBatch",
          "type": "uint64"
        },
        {
          "internalType": "uint64",
          "name": "finalNewBatch",
          "type": "uint64"
        },
        {
          "internalType": "bytes32",
          "name": "newLocalExitRoot",
          "type": "bytes32"
        },
        {
          "internalType": "bytes32",
          "name": "newStateRoot",
          "type": "bytes32"
        },
        {
          "internalType": "uint256[2]",
          "name": "proofA",
          "type": "uint256[2]"
        },
        {
          "internalType": "uint256[2][2]",
          "name": "proofB",
          "type": "uint256[2][2]"
        },
        {
          "internalType": "uint256[2]",
          "name": "proofC",
          "type": "uint256[2]"
        }
      ],
      "name": "proveNonDeterministicPendingState",
      "outputs": [],
      "stateMutability": "nonpayable",
      "type": "function"
    },
    {
      "inputs": [],
      "name": "renounceOwnership",
      "outputs": [],
      "stateMutability": "nonpayable",
      "type": "function"
    },
    {
      "inputs": [],
      "name": "rollupVerifier",
      "outputs": [
        {
          "internalType": "contract IVerifierRollup",
          "name": "",
          "type": "address"
        }
      ],
      "stateMutability": "view",
      "type": "function"
    },
    {
      "inputs": [
        {
          "components": [
            {
              "internalType": "bytes",
              "name": "transactions",
              "type": "bytes"
            },
            {
              "internalType": "bytes32",
              "name": "globalExitRoot",
              "type": "bytes32"
            },
            {
              "internalType": "uint64",
              "name": "timestamp",
              "type": "uint64"
            },
            {
              "internalType": "uint64",
              "name": "minForcedTimestamp",
              "type": "uint64"
            }
          ],
          "internalType": "struct PolygonZkEVM.BatchData[]",
          "name": "batches",
          "type": "tuple[]"
        }
      ],
      "name": "sequenceBatches",
      "outputs": [],
      "stateMutability": "nonpayable",
      "type": "function"
    },
    {
      "inputs": [
        {
          "components": [
            {
              "internalType": "bytes",
              "name": "transactions",
              "type": "bytes"
            },
            {
              "internalType": "bytes32",
              "name": "globalExitRoot",
              "type": "bytes32"
            },
            {
              "internalType": "uint64",
              "name": "minForcedTimestamp",
              "type": "uint64"
            }
          ],
          "internalType": "struct PolygonZkEVM.ForcedBatchData[]",
          "name": "batches",
          "type": "tuple[]"
        }
      ],
      "name": "sequenceForceBatches",
      "outputs": [],
      "stateMutability": "nonpayable",
      "type": "function"
    },
    {
      "inputs": [
        {
          "internalType": "uint64",
          "name": "",
          "type": "uint64"
        }
      ],
      "name": "sequencedBatches",
      "outputs": [
        {
          "internalType": "bytes32",
          "name": "accInputHash",
          "type": "bytes32"
        },
        {
          "internalType": "uint64",
          "name": "sequencedTimestamp",
          "type": "uint64"
        },
        {
          "internalType": "uint64",
          "name": "previousLastBatchSequenced",
          "type": "uint64"
        }
      ],
      "stateMutability": "view",
      "type": "function"
    },
    {
      "inputs": [
        {
          "internalType": "address",
          "name": "newAdmin",
          "type": "address"
        }
      ],
      "name": "setAdmin",
      "outputs": [],
      "stateMutability": "nonpayable",
      "type": "function"
    },
    {
      "inputs": [
        {
          "internalType": "bool",
          "name": "newForceBatchAllowed",
          "type": "bool"
        }
      ],
      "name": "setForceBatchAllowed",
      "outputs": [],
      "stateMutability": "nonpayable",
      "type": "function"
    },
    {
      "inputs": [
        {
          "internalType": "uint16",
          "name": "newMultiplierBatchFee",
          "type": "uint16"
        }
      ],
      "name": "setMultiplierBatchFee",
      "outputs": [],
      "stateMutability": "nonpayable",
      "type": "function"
    },
    {
      "inputs": [
        {
          "internalType": "uint64",
          "name": "newPendingStateTimeout",
          "type": "uint64"
        }
      ],
      "name": "setPendingStateTimeout",
      "outputs": [],
      "stateMutability": "nonpayable",
      "type": "function"
    },
    {
      "inputs": [
        {
          "internalType": "address",
          "name": "newTrustedAggregator",
          "type": "address"
        }
      ],
      "name": "setTrustedAggregator",
      "outputs": [],
      "stateMutability": "nonpayable",
      "type": "function"
    },
    {
      "inputs": [
        {
          "internalType": "uint64",
          "name": "newTrustedAggregatorTimeout",
          "type": "uint64"
        }
      ],
      "name": "setTrustedAggregatorTimeout",
      "outputs": [],
      "stateMutability": "nonpayable",
      "type": "function"
    },
    {
      "inputs": [
        {
          "internalType": "address",
          "name": "newTrustedSequencer",
          "type": "address"
        }
      ],
      "name": "setTrustedSequencer",
      "outputs": [],
      "stateMutability": "nonpayable",
      "type": "function"
    },
    {
      "inputs": [
        {
          "internalType": "string",
          "name": "newTrustedSequencerURL",
          "type": "string"
        }
      ],
      "name": "setTrustedSequencerURL",
      "outputs": [],
      "stateMutability": "nonpayable",
      "type": "function"
    },
    {
      "inputs": [
        {
          "internalType": "uint64",
          "name": "newVeryBatchTimeTarget",
          "type": "uint64"
        }
      ],
      "name": "setVeryBatchTimeTarget",
      "outputs": [],
      "stateMutability": "nonpayable",
      "type": "function"
    },
    {
      "inputs": [
        {
          "internalType": "address",
          "name": "newOwner",
          "type": "address"
        }
      ],
      "name": "transferOwnership",
      "outputs": [],
      "stateMutability": "nonpayable",
      "type": "function"
    },
    {
      "inputs": [],
      "name": "trustedAggregator",
      "outputs": [
        {
          "internalType": "address",
          "name": "",
          "type": "address"
        }
      ],
      "stateMutability": "view",
      "type": "function"
    },
    {
      "inputs": [],
      "name": "trustedAggregatorTimeout",
      "outputs": [
        {
          "internalType": "uint64",
          "name": "",
          "type": "uint64"
        }
      ],
      "stateMutability": "view",
      "type": "function"
    },
    {
      "inputs": [],
      "name": "trustedSequencer",
      "outputs": [
        {
          "internalType": "address",
          "name": "",
          "type": "address"
        }
      ],
      "stateMutability": "view",
      "type": "function"
    },
    {
      "inputs": [],
      "name": "trustedSequencerURL",
      "outputs": [
        {
          "internalType": "string",
          "name": "",
          "type": "string"
        }
      ],
      "stateMutability": "view",
      "type": "function"
    },
    {
      "inputs": [
        {
          "internalType": "uint64",
          "name": "pendingStateNum",
          "type": "uint64"
        },
        {
          "internalType": "uint64",
          "name": "initNumBatch",
          "type": "uint64"
        },
        {
          "internalType": "uint64",
          "name": "finalNewBatch",
          "type": "uint64"
        },
        {
          "internalType": "bytes32",
          "name": "newLocalExitRoot",
          "type": "bytes32"
        },
        {
          "internalType": "bytes32",
          "name": "newStateRoot",
          "type": "bytes32"
        },
        {
          "internalType": "uint256[2]",
          "name": "proofA",
          "type": "uint256[2]"
        },
        {
          "internalType": "uint256[2][2]",
          "name": "proofB",
          "type": "uint256[2][2]"
        },
        {
          "internalType": "uint256[2]",
          "name": "proofC",
          "type": "uint256[2]"
        }
      ],
      "name": "trustedVerifyBatches",
      "outputs": [],
      "stateMutability": "nonpayable",
      "type": "function"
    },
    {
      "inputs": [
        {
          "internalType": "uint64",
          "name": "pendingStateNum",
          "type": "uint64"
        },
        {
          "internalType": "uint64",
          "name": "initNumBatch",
          "type": "uint64"
        },
        {
          "internalType": "uint64",
          "name": "finalNewBatch",
          "type": "uint64"
        },
        {
          "internalType": "bytes32",
          "name": "newLocalExitRoot",
          "type": "bytes32"
        },
        {
          "internalType": "bytes32",
          "name": "newStateRoot",
          "type": "bytes32"
        },
        {
          "internalType": "uint256[2]",
          "name": "proofA",
          "type": "uint256[2]"
        },
        {
          "internalType": "uint256[2][2]",
          "name": "proofB",
          "type": "uint256[2][2]"
        },
        {
          "internalType": "uint256[2]",
          "name": "proofC",
          "type": "uint256[2]"
        }
      ],
      "name": "verifyBatches",
      "outputs": [],
      "stateMutability": "nonpayable",
      "type": "function"
    },
    {
      "inputs": [],
      "name": "veryBatchTimeTarget",
      "outputs": [
        {
          "internalType": "uint64",
          "name": "",
          "type": "uint64"
        }
      ],
      "stateMutability": "view",
      "type": "function"
    }
  ],
  "bytecode": "0x608060405234801561001057600080fd5b50615503806100206000396000f3fe608060405234801561001057600080fd5b506004361061032f5760003560e01c80638da5cb5b116101b4578063cfa8ed47116100fa578063e7a7ed021161009d578063e7a7ed021461080e578063e8bf92ed14610828578063eaeb077b1461083b578063edc411211461084e578063f14916d614610861578063f2fde38b14610874578063f851a44014610887578063f8b823e41461089a57600080fd5b8063cfa8ed471461077c578063d02103ca14610796578063d8d1091b146107a9578063d8f54db0146107bc578063d939b315146107d0578063dbc16976146107ea578063e11f3f18146107f2578063e217cfd61461080557600080fd5b8063ab9fc5ef11610162578063ab9fc5ef14610688578063adc879e914610692578063afd23cbe146106ac578063b4d63f58146106d4578063b6b0b09714610734578063c0ed84e01461074e578063c89e42df14610756578063cf1363061461076957600080fd5b80638da5cb5b1461062157806399f5634e146106325780639c9f3dfe1461063a5780639eb831b91461064d5780639f0d039d14610655578063a3c573eb1461065d578063aa58bad61461067057600080fd5b80634a910e6a11610279578063715018a611610227578063715018a61461053b5780637215541a1461054357806375c508b3146105565780637fcb365314610569578063837a47381461057c578063841b24d7146105ea5780638b48931e146106045780638c4a0af71461060e57600080fd5b80634a910e6a146104a75780635392c5e0146104ba578063542028d5146104da57806360943d6a146104e25780636b8616ce146104f55780636ff512cc14610515578063704b6c021461052857600080fd5b8063383b3be8116102e1578063383b3be8146103fa578063394218e91461040d5780633c15826714610420578063423fa85614610433578063456052671461044d578063458c0477146104675780634834a3431461047a5780634a1a89a71461048d57600080fd5b8063107bf28c1461033457806315064c96146103525780631816b7e51461036f57806319d8ac6114610384578063220d7899146103af57806329878983146103c25780632d0889d3146103e2575b600080fd5b61033c6108a3565b6040516103499190614647565b60405180910390f35b60655461035f9060ff1681565b6040519015158152602001610349565b61038261037d366004614661565b610931565b005b606854610397906001600160401b031681565b6040516001600160401b039091168152602001610349565b61033c6103bd3660046146a1565b610a5b565b606a546103d5906001600160a01b031681565b60405161034991906146ee565b6103ec620493e081565b604051908152602001610349565b61035f610408366004614702565b610bfc565b61038261041b366004614702565b610c43565b61038261042e36600461483f565b610dff565b60685461039790600160401b90046001600160401b031681565b60685461039790600160801b90046001600160401b031681565b607254610397906001600160401b031681565b61038261048836600461497d565b6115c6565b60725461039790600160401b90046001600160401b031681565b6103826104b5366004614702565b61190f565b6103ec6104c8366004614702565b606d6020526000908152604090205481565b61033c611baa565b6103826104f0366004614a1f565b611bb7565b6103ec610503366004614702565b60666020526000908152604090205481565b610382610523366004614af6565b611f12565b610382610536366004614af6565b611f90565b610382612005565b610382610551366004614702565b612019565b610382610564366004614b13565b612223565b606954610397906001600160401b031681565b6105bf61058a366004614bb1565b6071602052600090815260409020805460018201546002909201546001600160401b0380831693600160401b90930416919084565b604080516001600160401b039586168152949093166020850152918301526060820152608001610349565b60725461039790600160c01b90046001600160401b031681565b61039762093a8081565b61038261061c366004614bd8565b6122b2565b6033546001600160a01b03166103d5565b6103ec612329565b610382610648366004614702565b612411565b6103ec600c81565b6074546103ec565b6070546103d5906001600160a01b031681565b6065546103979061010090046001600160401b031681565b6103976206978081565b606c5461039790600160a81b90046001600160401b031681565b6065546106c190600160481b900461ffff1681565b60405161ffff9091168152602001610349565b61070f6106e2366004614702565b606760205260009081526040902080546001909101546001600160401b0380821691600160401b90041683565b604080519384526001600160401b039283166020850152911690820152606001610349565b6065546103d590600160581b90046001600160a01b031681565b6103976125bf565b610382610764366004614bf5565b61260c565b610382610777366004614702565b612672565b6069546103d590600160401b90046001600160a01b031681565b606c546103d5906001600160a01b031681565b6103826107b7366004614c29565b6126f3565b606c5461035f90600160a01b900460ff1681565b60725461039790600160801b90046001600160401b031681565b610382612bb3565b610382610800366004614b13565b612c6f565b6103976103e881565b60685461039790600160c01b90046001600160401b031681565b606b546103d5906001600160a01b031681565b610382610849366004614d1b565b612db4565b61038261085c36600461497d565b6130dd565b61038261086f366004614af6565b6131fd565b610382610882366004614af6565b613272565b6073546103d5906001600160a01b031681565b6103ec60745481565b606f80546108b090614d5f565b80601f01602080910402602001604051908101604052809291908181526020018280546108dc90614d5f565b80156109295780601f106108fe57610100808354040283529160200191610929565b820191906000526020600020905b81548152906001019060200180831161090c57829003601f168201915b505050505081565b6073546001600160a01b031633146109645760405162461bcd60e51b815260040161095b90614d99565b60405180910390fd5b6103e88161ffff161015801561097f57506104008161ffff16105b610a045760405162461bcd60e51b815260206004820152604a60248201527f506f6c79676f6e5a6b45564d3a3a7365744d756c7469706c696572426174636860448201527f4665653a206e65774d756c7469706c696572426174636846656520696e636f72606482015269726563742072616e676560b01b608482015260a40161095b565b6065805461ffff60481b1916600160481b61ffff8416908102919091179091556040519081527f7019933d795eba185c180209e8ae8bffbaa25bcef293364687702c31f4d302c5906020015b60405180910390a150565b6001600160401b03808616600081815260676020526040808220549388168252902054606092911580610a8d57508115155b610b01576040805162461bcd60e51b81526020600482015260248101919091527f506f6c79676f6e5a6b45564d3a3a676574496e707574536e61726b427974657360448201527f3a206f6c64416363496e7075744861736820646f6573206e6f74206578697374606482015260840161095b565b80610b76576040805162461bcd60e51b81526020600482015260248101919091527f506f6c79676f6e5a6b45564d3a3a676574496e707574536e61726b427974657360448201527f3a206e6577416363496e7075744861736820646f6573206e6f74206578697374606482015260840161095b565b606c54604080516001600160601b03193360601b166020820152603481019790975260548701939093526001600160c01b031960c0998a1b81166074880152600160a81b909104891b8116607c870152608486019490945260a485015260c4840194909452509290931b90911660e4830152805180830360cc01815260ec909201905290565b6072546001600160401b0382811660009081526071602052604081205490924292610c3292600160801b90920481169116614df2565b6001600160401b0316111592915050565b6073546001600160a01b03163314610c6d5760405162461bcd60e51b815260040161095b90614d99565b62093a806001600160401b0382161115610d065760405162461bcd60e51b815260206004820152604e60248201527f506f6c79676f6e5a6b45564d3a3a73657454727573746564416767726567617460448201527f6f7254696d656f75743a20457863656564206d61782068616c7420616767726560648201526d19d85d1a5bdb881d1a5b595bdd5d60921b608482015260a40161095b565b60655460ff16610da9576072546001600160401b03600160c01b909104811690821610610da95760405162461bcd60e51b8152602060048201526044602482018190527f506f6c79676f6e5a6b45564d3a3a736574547275737465644167677265676174908201527f6f7254696d656f75743a204e65772074696d656f7574206d757374206265206c60648201526337bbb2b960e11b608482015260a40161095b565b607280546001600160c01b0316600160c01b6001600160401b038416908102919091179091556040519081527f1f4fa24c2e4bad19a7f3ec5c5485f70d46c798461c2e684f55bbd0fc661373a190602001610a50565b60655460ff1615610e225760405162461bcd60e51b815260040161095b90614e1d565b606954600160401b90046001600160a01b03163314610ea95760405162461bcd60e51b815260206004820152603a60248201527f506f6c79676f6e5a6b45564d3a3a6f6e6c795472757374656453657175656e6360448201527f65723a204f6e6c7920747275737465642073657175656e636572000000000000606482015260840161095b565b805180610f1e5760405162461bcd60e51b815260206004820152603d60248201527f506f6c79676f6e5a6b45564d3a3a73657175656e6365426174636865733a204160448201527f74206c65617374206d7573742073657175656e63652031206261746368000000606482015260840161095b565b6103e88110610f97576040805162461bcd60e51b81526020600482015260248101919091527f506f6c79676f6e5a6b45564d3a3a73657175656e6365426174636865733a204360448201527f616e6e6f742073657175656e63652074686174206d616e792062617463686573606482015260840161095b565b6068546001600160401b03600160401b82048116600081815260676020526040812054838516949293600160801b90930490921691905b858110156113fc576000878281518110610fea57610fea614e85565b60200260200101519050600081606001516001600160401b0316111561117a578361101481614e9b565b94505060008160000151805190602001208260200151836060015160405160200161104193929190614ec1565b60408051601f1981840301815291815281516020928301206001600160401b0388166000908152606690935291205490915081146110d55760405162461bcd60e51b815260206004820152603d60248201526000805160206154ae83398151915260448201527f6f7263656420626174636865732064617461206d757374206d61746368000000606482015260840161095b565b81606001516001600160401b031682604001516001600160401b031610156111745760405162461bcd60e51b815260206004820152605860248201526000805160206154ae83398151915260448201527f6f7263656420626174636865732074696d657374616d70206d757374206265206064820152773134b3b3b2b91037b91032b8bab0b6103a3430b71036b4b760411b608482015260a40161095b565b506112ef565b602081015115806112035750606c5460208201516040516312bd9b1960e11b81526001600160a01b039092169163257b3632916111bd9160040190815260200190565b6020604051808303816000875af11580156111dc573d6000803e3d6000fd5b505050506040513d601f19601f820116820180604052508101906112009190614ee4565b15155b6112755760405162461bcd60e51b815260206004820152603a60248201527f506f6c79676f6e5a6b45564d3a3a73657175656e6365426174636865733a204760448201527f6c6f62616c206578697420726f6f74206d757374206578697374000000000000606482015260840161095b565b805151620493e0116112ef5760405162461bcd60e51b815260206004820152603a60248201527f506f6c79676f6e5a6b45564d3a3a73657175656e6365426174636865733a205460448201527f72616e73616374696f6e73206279746573206f766572666c6f77000000000000606482015260840161095b565b856001600160401b031681604001516001600160401b03161015801561132257504281604001516001600160401b031611155b6113945760405162461bcd60e51b815260206004820152603d60248201527f506f6c79676f6e5a6b45564d3a3a73657175656e6365426174636865733a205460448201527f696d657374616d70206d75737420626520696e736964652072616e6765000000606482015260840161095b565b805180516020918201208183015160408085015190516113bb948894939291339101614efd565b60405160208183030381529060405280519060200120925084806113de90614e9b565b955050806040015195505080806113f490614f3c565b915050610fce565b506068546001600160401b03600160c01b9091048116908316111561146f5760405162461bcd60e51b815260206004820152603560248201526000805160206154ae8339815191526044820152746f7263652062617463686573206f766572666c6f7760581b606482015260840161095b565b60685460009061148f90600160801b90046001600160401b031684614f55565b6114a2906001600160401b031687614f7d565b60408051606081018252848152426001600160401b03908116602080840191825260688054600160401b9081900485168688019081528c861660008181526067909552979093209551865592516001909501805492519585166001600160801b03199384161795851684029590951790945583548b841691161793029290921767ffffffffffffffff60801b1916600160801b928716929092029190911790556074549091506115779033903090849061155c9190614f94565b606554600160581b90046001600160a01b03169291906132e8565b61157f613353565b606854604051600160401b9091046001600160401b0316907f303446e6a8cb73c83dff421c0b1d5e5ce0719dab1bff13660fc254e58cc17fce90600090a250505050505050565b60655460ff16156115e95760405162461bcd60e51b815260040161095b90614e1d565b6072546001600160401b03878116600090815260676020526040902060010154429261162092600160c01b90910481169116614df2565b6001600160401b031611156116a95760405162461bcd60e51b815260206004820152604360248201527f506f6c79676f6e5a6b45564d3a3a766572696679426174636865733a2054727560448201527f737465642061676772656761746f722074696d656f7574206e6f7420657870696064820152621c995960ea1b608482015260a40161095b565b6103e86116b68888614f55565b6001600160401b0316106117325760405162461bcd60e51b815260206004820152603c60248201527f506f6c79676f6e5a6b45564d3a3a766572696679426174636865733a2043616e60448201527f6e6f74207665726966792074686174206d616e79206261746368657300000000606482015260840161095b565b61174288888888888888886133f7565b61174b866138fa565b607254600160801b90046001600160401b0316600003611813576069805467ffffffffffffffff19166001600160401b038881169182179092556000908152606d6020526040902085905560725416156117b057607280546001600160801b03191690555b606c546040516333d6247d60e01b8152600481018790526001600160a01b03909116906333d6247d90602401600060405180830381600087803b1580156117f657600080fd5b505af115801561180a573d6000803e3d6000fd5b505050506118c4565b61181b613353565b607280546001600160401b031690600061183483614e9b565b82546001600160401b039182166101009390930a92830292820219169190911790915560408051608081018252428316815289831660208083019182528284018b8152606084018b8152607254871660009081526071909352949091209251835492518616600160401b026001600160801b03199093169516949094171781559151600183015551600290910155505b60405184815233906001600160401b038816907f9c72852172521097ba7e1482e6b44b351323df0155f97f4ea18fcec28e1f5966906020015b60405180910390a35050505050505050565b6001600160401b0381161580159061193c57506072546001600160401b03600160401b9091048116908216115b801561195757506072546001600160401b0390811690821611155b6119d55760405162461bcd60e51b815260206004820152604360248201527f506f6c79676f6e5a6b45564d3a3a636f6e736f6c696461746550656e64696e6760448201527f53746174653a2070656e64696e6753746174654e756d206d75737420696e76616064820152621b1a5960ea1b608482015260a40161095b565b606a546001600160a01b03163314611a7f576119f081610bfc565b611a7f5760405162461bcd60e51b815260206004820152605460248201527f506f6c79676f6e5a6b45564d3a3a636f6e736f6c696461746550656e64696e6760448201527f53746174653a2050656e64696e67207374617465206973206e6f7420726561646064820152731e481d1bc818994818dbdb9cdbdb1a59185d195960621b608482015260a40161095b565b6001600160401b038181166000818152607160209081526040808320805460698054600160401b9283900490981667ffffffffffffffff19909816881790556002820154878652606d90945293829020929092556072805467ffffffffffffffff60401b19169390940292909217909255606c54600183015491516333d6247d60e01b815260048101929092529192916001600160a01b0316906333d6247d90602401600060405180830381600087803b158015611b3c57600080fd5b505af1158015611b50573d6000803e3d6000fd5b50505050826001600160401b0316816001600160401b03167f328d3c6c0fd6f1be0515e422f2d87e59f25922cbc2233568515a0c4bc3f8510e8460020154604051611b9d91815260200190565b60405180910390a3505050565b606e80546108b090614d5f565b600054610100900460ff1615808015611bd75750600054600160ff909116105b80611bf15750303b158015611bf1575060005460ff166001145b611c545760405162461bcd60e51b815260206004820152602e60248201527f496e697469616c697a61626c653a20636f6e747261637420697320616c72656160448201526d191e481a5b9a5d1a585b1a5e995960921b606482015260840161095b565b6000805460ff191660011790558015611c77576000805461ff0019166101001790555b606c80546001600160a01b03199081166001600160a01b038c81169190911790925560658054600160581b600160f81b031916600160581b8c851602179055606b805482168a841617905560708054909116918816919091179055611cdf6020860186614af6565b607380546001600160a01b0319166001600160a01b0392909216919091179055611d0f6060860160408701614af6565b606980546001600160a01b0392909216600160401b02600160401b600160e01b0319909216919091179055611d4a60c0860160a08701614af6565b606a80546001600160a01b0319166001600160a01b039290921691909117905560008052606d6020527fda90043ba5b4096ba14704bc227ab0d3167da15b887e62ab2e76e37daa711356849055611da760e0860160c08701614702565b607280546001600160401b0392909216600160c01b026001600160c01b03909216919091179055611dde6040860160208701614702565b606c80546001600160401b0392909216600160a81b0267ffffffffffffffff60a81b19909216919091179055611e1a6080860160608701614702565b607280546001600160401b0392909216600160801b0267ffffffffffffffff60801b19909216919091179055611e5660a0860160808701614bd8565b606c8054911515600160a01b0260ff60a01b19909216919091179055606e611e7e8482614ff9565b50606f611e8b8382614ff9565b50670de0b6b3a7640000607455606580546affffffffffffffffffff0019166a03ea000000000000070800179055611ec1613ae0565b8015611f07576000805461ff0019169055604051600181527f7f26b83ff96e1f2b6a682f133852f6798a09c465da95921460cefb38474024989060200160405180910390a15b505050505050505050565b6073546001600160a01b03163314611f3c5760405162461bcd60e51b815260040161095b90614d99565b60698054600160401b600160e01b031916600160401b6001600160a01b038416021790556040517ff54144f9611984021529f814a1cb6a41e22c58351510a0d9f7e822618abb9cc090610a509083906146ee565b6073546001600160a01b03163314611fba5760405162461bcd60e51b815260040161095b90614d99565b607380546001600160a01b0319166001600160a01b0383161790556040517f5a272403b402d892977df56625f4164ccaf70ca3863991c43ecfe76a6905b0a190610a509083906146ee565b61200d613b54565b6120176000613bae565b565b6033546001600160a01b031633146122185760006120356125bf565b9050806001600160401b0316826001600160401b0316116120ac5760405162461bcd60e51b815260206004820152603c602482015260008051602061542e83398151915260448201527f746174653a20426174636820616c726561647920766572696669656400000000606482015260840161095b565b6068546001600160401b03600160401b9091048116908316118015906120ee57506001600160401b038083166000908152606760205260409020600101541615155b6121675760405162461bcd60e51b8152602060048201526050602482015260008051602061542e83398151915260448201527f746174653a204261746368206e6f742073657175656e636564206f72206e6f7460648201526f20656e64206f662073657175656e636560801b608482015260a40161095b565b6001600160401b0380831660009081526067602052604090206001015442916121959162093a809116614df2565b6001600160401b031611156122165760405162461bcd60e51b815260206004820152604d602482015260008051602061542e83398151915260448201527f746174653a204167677265676174696f6e2068616c742074696d656f7574206960648201526c1cc81b9bdd08195e1c1a5c9959609a1b608482015260a40161095b565b505b612220613c00565b50565b60655460ff16156122465760405162461bcd60e51b815260040161095b90614e1d565b612257898989898989898989613c70565b6001600160401b0386166000908152606d60209081526040918290205482519081529081018690527f1f44c21118c4603cfb4e1b621dbcfa2b73efcececee2b99b620b2953d33a7010910160405180910390a1611f07613c00565b6073546001600160a01b031633146122dc5760405162461bcd60e51b815260040161095b90614d99565b606c8054821515600160a01b0260ff60a01b199091161790556040517fbacda50a4a8575be1d91a7ebe29ee45056f3a94f12a2281eb6b43afa33bcefe690610a5090831515815260200190565b6065546040516370a0823160e01b81526000918291600160581b9091046001600160a01b0316906370a08231906123649030906004016146ee565b602060405180830381865afa158015612381573d6000803e3d6000fd5b505050506040513d601f19601f820116820180604052508101906123a59190614ee4565b905060006123b16125bf565b6068546001600160401b03600160401b82048116916123e191600160801b8204811691600160c01b900416614f55565b6123eb9190614df2565b6123f59190614f55565b6001600160401b0316905061240a81836150ce565b9250505090565b6073546001600160a01b0316331461243b5760405162461bcd60e51b815260040161095b90614d99565b62093a806001600160401b03821611156124cf5760405162461bcd60e51b815260206004820152604960248201527f506f6c79676f6e5a6b45564d3a3a73657450656e64696e67537461746554696d60448201527f656f75743a20457863656564206d61782068616c74206167677265676174696f6064820152681b881d1a5b595bdd5d60ba1b608482015260a40161095b565b60655460ff16612564576072546001600160401b03600160801b9091048116908216106125645760405162461bcd60e51b815260206004820152603f60248201527f506f6c79676f6e5a6b45564d3a3a73657450656e64696e67537461746554696d60448201527f656f75743a204e65772074696d656f7574206d757374206265206c6f77657200606482015260840161095b565b6072805467ffffffffffffffff60801b1916600160801b6001600160401b038416908102919091179091556040519081527fc4121f4e22c69632ebb7cf1f462be0511dc034f999b52013eddfb24aab765c7590602001610a50565b6072546000906001600160401b0316156125fc57506072546001600160401b03908116600090815260716020526040902054600160401b90041690565b506069546001600160401b031690565b6073546001600160a01b031633146126365760405162461bcd60e51b815260040161095b90614d99565b606e6126428282614ff9565b507f6b8f723a4c7a5335cafae8a598a0aa0301be1387c037dccc085b62add6448b2081604051610a509190614647565b6073546001600160a01b0316331461269c5760405162461bcd60e51b815260040161095b90614d99565b6065805468ffffffffffffffff0019166101006001600160401b038416908102919091179091556040519081527f03a12f7e53d2a9e31a9e913d85c12c4c38feb92abe003c111329298af088437f90602001610a50565b60655460ff16156127165760405162461bcd60e51b815260040161095b90614e1d565b606c54600160a01b900460ff1615156001146127445760405162461bcd60e51b815260040161095b906150e2565b8051806127a75760405162461bcd60e51b815260206004820152603f602482015260008051602061548e83398151915260448201527f65733a204d75737420666f726365206174206c65617374203120626174636800606482015260840161095b565b6103e881106128185760405162461bcd60e51b8152602060048201526043602482015260008051602061548e83398151915260448201527f65733a2043616e6e6f74207665726966792074686174206d616e79206261746360648201526268657360e81b608482015260a40161095b565b6068546001600160401b03600160c01b8204811691612840918491600160801b90041661514b565b111561289c5760405162461bcd60e51b8152602060048201526037602482015260008051602061548e833981519152604482015276195cce88119bdc98d94818985d18da081a5b9d985b1a59604a1b606482015260840161095b565b6068546001600160401b03600160401b820481166000818152606760205260408120549193600160801b9004909216915b84811015612aca5760008682815181106128e9576128e9614e85565b6020026020010151905083806128fe90614e9b565b94505060008160000151805190602001208260200151836040015160405160200161292b93929190614ec1565b60408051601f1981840301815291815281516020928301206001600160401b0388166000908152606690935291205490915081146129ca5760405162461bcd60e51b8152602060048201526042602482015260008051602061548e83398151915260448201527f65733a20466f7263656420626174636865732064617461206d757374206d61746064820152610c6d60f31b608482015260a40161095b565b6129d5600188614f7d565b8303612a6c57426206978083604001516129ef9190614df2565b6001600160401b03161115612a6c5760405162461bcd60e51b8152602060048201526049602482015260008051602061548e83398151915260448201527f65733a20466f72636564206261746368206973206e6f7420696e2074696d656f6064820152681d5d081c195c9a5bd960ba1b608482015260a40161095b565b8151805160209182012081840151604051612a8f93889392914291339101614efd565b6040516020818303038152906040528051906020012093508580612ab290614e9b565b96505050508080612ac290614f3c565b9150506128cd565b506068805467ffffffffffffffff1916426001600160401b03908116918217808455604080516060810182528681526020808201958652600160401b9384900485168284019081528a861660008181526067909352848320935184559651600193909301805491519387166001600160801b0319909216919091179286168502929092179091558554600160401b600160c01b03191694830267ffffffffffffffff60801b191694909417600160801b88851602179485905551930416917f648a61dd2438f072f5a1960939abd30f37aea80d2e94c9792ad142d3e0a490a49190a25050505050565b60655460ff16612bd55760405162461bcd60e51b815260040161095b90615163565b6073546001600160a01b03163314612bff5760405162461bcd60e51b815260040161095b90614d99565b607060009054906101000a90046001600160a01b03166001600160a01b031663dbc169766040518163ffffffff1660e01b8152600401600060405180830381600087803b158015612c4f57600080fd5b505af1158015612c63573d6000803e3d6000fd5b505050506120176142a6565b606a546001600160a01b03163314612c995760405162461bcd60e51b815260040161095b906151c0565b612caa898989898989898989613c70565b6069805467ffffffffffffffff19166001600160401b038881169182179092556000908152606d602052604090208590556072541615612cf557607280546001600160801b03191690555b606c546040516333d6247d60e01b8152600481018790526001600160a01b03909116906333d6247d90602401600060405180830381600087803b158015612d3b57600080fd5b505af1158015612d4f573d6000803e3d6000fd5b5050607280546001600160c01b031661127560c71b179055505060405184815233906001600160401b038816907fcc1b5520188bf1dd3e63f98164b577c4d75c11a619ddea692112f0d1aec4cf729060200160405180910390a3505050505050505050565b60655460ff1615612dd75760405162461bcd60e51b815260040161095b90614e1d565b606c54600160a01b900460ff161515600114612e055760405162461bcd60e51b815260040161095b906150e2565b6000612e1060745490565b905081811115612e755760405162461bcd60e51b815260206004820152602a60248201527f506f6c79676f6e5a6b45564d3a3a666f72636542617463683a204e6f7420656e6044820152696f756768206d6174696360b01b606482015260840161095b565b620493e0835110612ee65760405162461bcd60e51b815260206004820152603560248201527f506f6c79676f6e5a6b45564d3a3a666f72636542617463683a205472616e73616044820152746374696f6e73206279746573206f766572666c6f7760581b606482015260840161095b565b606554612f0590600160581b90046001600160a01b03163330846132e8565b606c5460408051633ed691ef60e01b815290516000926001600160a01b031691633ed691ef9160048083019260209291908290030181865afa158015612f4f573d6000803e3d6000fd5b505050506040513d601f19601f82011682018060405250810190612f739190614ee4565b60688054919250600160c01b9091046001600160401b0316906018612f9783614e9b565b91906101000a8154816001600160401b0302191690836001600160401b031602179055505083805190602001208142604051602001612fd893929190614ec1565b60408051808303601f190181529181528151602092830120606854600160c01b90046001600160401b03166000908152606690935291205532330361307c57606854604080518381523360208201526060918101829052600091810191909152600160c01b9091046001600160401b0316907ff94bb37db835f1ab585ee00041849a09b12cd081d77fa15ca070757619cbc9319060800160405180910390a26130d7565b606860189054906101000a90046001600160401b03166001600160401b03167ff94bb37db835f1ab585ee00041849a09b12cd081d77fa15ca070757619cbc9318233876040516130ce9392919061521d565b60405180910390a25b50505050565b606a546001600160a01b031633146131075760405162461bcd60e51b815260040161095b906151c0565b61311788888888888888886133f7565b6069805467ffffffffffffffff19166001600160401b038881169182179092556000908152606d60205260409020859055607254161561316257607280546001600160801b03191690555b606c546040516333d6247d60e01b8152600481018790526001600160a01b03909116906333d6247d90602401600060405180830381600087803b1580156131a857600080fd5b505af11580156131bc573d6000803e3d6000fd5b50506040518681523392506001600160401b03891691507f0c0ce073a7d7b5850c04ccc4b20ee7d3179d5f57d0ac44399565792c0f72fce7906020016118fd565b6073546001600160a01b031633146132275760405162461bcd60e51b815260040161095b90614d99565b606a80546001600160a01b0319166001600160a01b0383161790556040517f61f8fec29495a3078e9271456f05fb0707fd4e41f7661865f80fc437d06681ca90610a509083906146ee565b61327a613b54565b6001600160a01b0381166132df5760405162461bcd60e51b815260206004820152602660248201527f4f776e61626c653a206e6577206f776e657220697320746865207a65726f206160448201526564647265737360d01b606482015260840161095b565b61222081613bae565b6040516001600160a01b03808516602483015283166044820152606481018290526130d79085906323b872dd60e01b906084015b60408051601f198184030181529190526020810180516001600160e01b03166001600160e01b0319909316929092179091526142fd565b6072546001600160401b03600160401b82048116911611156120175760725460009061339090600160401b90046001600160401b03166001614df2565b905061339b81610bfc565b15612220576072546000906002906133bd9084906001600160401b0316614f55565b6133c79190615250565b6133d19083614df2565b90506133dc81610bfc565b156133ee576133ea8161190f565b5050565b6133ea8261190f565b6000806134026125bf565b90506001600160401b038a1615613568576072546001600160401b03908116908b1611156134ba5760405162461bcd60e51b815260206004820152605960248201527f506f6c79676f6e5a6b45564d3a3a5f766572696679426174636865733a20706560448201527f6e64696e6753746174654e756d206d757374206265206c657373206f7220657160648201527875616c207468616e206c61737450656e64696e67537461746560381b608482015260a40161095b565b6001600160401b03808b1660009081526071602052604090206002810154815490945090918b8116600160401b90920416146135625760405162461bcd60e51b815260206004820152604d602482015260008051602061544e83398151915260448201527f69744e756d4261746368206d757374206d61746368207468652070656e64696e60648201526c0ce40e6e8c2e8ca40c4c2e8c6d609b1b608482015260a40161095b565b5061368e565b6001600160401b0389166000908152606d60205260409020549150816135f25760405162461bcd60e51b81526020600482015260446024820181905260008051602061544e833981519152908201527f69744e756d426174636820737461746520726f6f7420646f6573206e6f7420656064820152631e1a5cdd60e21b608482015260a40161095b565b806001600160401b0316896001600160401b0316111561368e5760405162461bcd60e51b815260206004820152605e602482015260008051602061544e83398151915260448201527f69744e756d4261746368206d757374206265206c657373206f7220657175616c60648201527f207468616e2063757272656e744c617374566572696669656442617463680000608482015260a40161095b565b806001600160401b0316886001600160401b0316116137365760405162461bcd60e51b815260206004820152605860248201527f506f6c79676f6e5a6b45564d3a3a5f766572696679426174636865733a20666960448201527f6e616c4e65774261746368206d75737420626520626967676572207468616e206064820152770c6eae4e4cadce898c2e6e8accae4d2ccd2cac884c2e8c6d60431b608482015260a40161095b565b60006137458a8a8a868b610a5b565b905060007f30644e72e131a029b85045b68181585d2833e84879b9709143e1f593f000000160028360405161377a9190615276565b602060405180830381855afa158015613797573d6000803e3d6000fd5b5050506040513d601f19601f820116820180604052508101906137ba9190614ee4565b6137c49190615292565b606b546040805160208101825283815290516343753b4d60e01b81529293506001600160a01b03909116916343753b4d91613808918b918b918b91906004016152a6565b602060405180830381865afa158015613825573d6000803e3d6000fd5b505050506040513d601f19601f820116820180604052508101906138499190615320565b6138a95760405162461bcd60e51b815260206004820152602b60248201527f506f6c79676f6e5a6b45564d3a3a5f766572696679426174636865733a20496e60448201526a3b30b634b210383937b7b360a91b606482015260840161095b565b6138ec336138b7858d614f55565b6001600160401b03166138c8612329565b6138d29190614f94565b606554600160581b90046001600160a01b031691906143d4565b505050505050505050505050565b60006139046125bf565b9050816000806139148484614f55565b6001600160401b031690505b836001600160401b0316836001600160401b0316146139c6576001600160401b03808416600090815260676020526040902060655460018201549192610100909104811691613970911642614f7d565b11156139ab57600181015461399590600160401b90046001600160401b031685614f55565b6139a8906001600160401b03168461514b565b92505b60010154600160401b90046001600160401b03169250613920565b60006139d28383614f7d565b905082811015613a4c5760006139e88285614f7d565b9050600c81116139f857806139fb565b600c5b9050613a08816003614f94565b613a1390600a615421565b606554613a2c908390600160481b900461ffff16615421565b607454613a399190614f94565b613a4391906150ce565b60745550613ad8565b6000613a588483614f7d565b9050600c8111613a685780613a6b565b600c5b90506000613a7a826003614f94565b613a8590600a615421565b606554613a9e908490600160481b900461ffff16615421565b607454613aab9190614f94565b613ab591906150ce565b905080607454607454613ac89190614f94565b613ad291906150ce565b60745550505b505050505050565b600054610100900460ff16613b4b5760405162461bcd60e51b815260206004820152602b60248201527f496e697469616c697a61626c653a20636f6e7472616374206973206e6f74206960448201526a6e697469616c697a696e6760a81b606482015260840161095b565b61201733613bae565b6033546001600160a01b031633146120175760405162461bcd60e51b815260206004820181905260248201527f4f776e61626c653a2063616c6c6572206973206e6f7420746865206f776e6572604482015260640161095b565b603380546001600160a01b038381166001600160a01b0319831681179093556040519116919082907f8be0079c531659141344cd1fd0a4f28419497f9722a3daafe3b4186f6b6457e090600090a35050565b607060009054906101000a90046001600160a01b03166001600160a01b0316632072f6c56040518163ffffffff1660e01b8152600401600060405180830381600087803b158015613c5057600080fd5b505af1158015613c64573d6000803e3d6000fd5b50505050612017614404565b60006001600160401b038a1615613de0576072546001600160401b03908116908b161115613d285760405162461bcd60e51b8152602060048201526065602482015260008051602061546e83398151915260448201527f696e6753746174653a2070656e64696e6753746174654e756d206d757374206260648201527f65206c657373206f7220657175616c207468616e206c61737450656e64696e67608482015264537461746560d81b60a482015260c40161095b565b506001600160401b03808a1660009081526071602052604090206002810154815490928a8116600160401b9092041614613dda5760405162461bcd60e51b8152602060048201526059602482015260008051602061546e83398151915260448201527f696e6753746174653a20696e69744e756d4261746368206d757374206d6174636064820152780d040e8d0ca40e0cadcc8d2dcce40e6e8c2e8ca40c4c2e8c6d603b1b608482015260a40161095b565b50613f19565b506001600160401b0387166000908152606d602052604090205480613e745760405162461bcd60e51b8152602060048201526050602482015260008051602061546e83398151915260448201527f696e6753746174653a20696e69744e756d426174636820737461746520726f6f60648201526f1d08191bd95cc81b9bdd08195e1a5cdd60821b608482015260a40161095b565b6069546001600160401b039081169089161115613f195760405162461bcd60e51b8152602060048201526063602482015260008051602061546e83398151915260448201527f696e6753746174653a20696e69744e756d4261746368206d757374206265206c60648201527f657373206f7220657175616c207468616e206c617374566572696669656442616084820152620e8c6d60eb1b60a482015260c40161095b565b6072546001600160401b03908116908a1611801590613f495750896001600160401b0316896001600160401b0316115b8015613f6a57506072546001600160401b03600160401b9091048116908a16115b613fdb5760405162461bcd60e51b8152602060048201526048602482015260008051602061546e83398151915260448201527f696e6753746174653a2066696e616c50656e64696e6753746174654e756d20696064820152671b98dbdc9c9958dd60c21b608482015260a40161095b565b6001600160401b03898116600090815260716020526040902054600160401b90048116908816146140945760405162461bcd60e51b8152602060048201526063602482015260008051602061546e83398151915260448201527f696e6753746174653a2066696e616c4e65774261746368206d7573742062652060648201527f657175616c207468616e2063757272656e744c617374566572696669656442616084820152620e8c6d60eb1b60a482015260c40161095b565b60006140a3898989858a610a5b565b905060007f30644e72e131a029b85045b68181585d2833e84879b9709143e1f593f00000016002836040516140d89190615276565b602060405180830381855afa1580156140f5573d6000803e3d6000fd5b5050506040513d601f19601f820116820180604052508101906141189190614ee4565b6141229190615292565b606b546040805160208101825283815290516343753b4d60e01b81529293506001600160a01b03909116916343753b4d91614166918a918a918a91906004016152a6565b602060405180830381865afa158015614183573d6000803e3d6000fd5b505050506040513d601f19601f820116820180604052508101906141a79190615320565b6142015760405162461bcd60e51b8152602060048201526037602482015260008051602061546e83398151915260448201527634b733a9ba30ba329d1024b73b30b634b210383937b7b360491b606482015260840161095b565b6001600160401b038b166000908152607160205260409020600201548790036138ec5760405162461bcd60e51b815260206004820152605b602482015260008051602061546e83398151915260448201527f696e6753746174653a2053746f72656420726f6f74206d75737420626520646960648201527f66666572656e74207468616e206e657720737461746520726f6f740000000000608482015260a40161095b565b60655460ff166142c85760405162461bcd60e51b815260040161095b90615163565b6065805460ff191690556040517f1e5e34eea33501aecf2ebec9fe0e884a40804275ea7fe10b2ba084c8374308b390600090a1565b6000614352826040518060400160405280602081526020017f5361666545524332303a206c6f772d6c6576656c2063616c6c206661696c6564815250856001600160a01b031661445f9092919063ffffffff16565b8051909150156143cf57808060200190518101906143709190615320565b6143cf5760405162461bcd60e51b815260206004820152602a60248201527f5361666545524332303a204552433230206f7065726174696f6e20646964206e6044820152691bdd081cdd58d8d9595960b21b606482015260840161095b565b505050565b6040516001600160a01b0383166024820152604481018290526143cf90849063a9059cbb60e01b9060640161331c565b60655460ff16156144275760405162461bcd60e51b815260040161095b90614e1d565b6065805460ff191660011790556040517f2261efe5aef6fedc1fd1550b25facc9181745623049c7901287030b9ad1a549790600090a1565b606061446e8484600085614476565b949350505050565b6060824710156144d75760405162461bcd60e51b815260206004820152602660248201527f416464726573733a20696e73756666696369656e742062616c616e636520666f6044820152651c8818d85b1b60d21b606482015260840161095b565b600080866001600160a01b031685876040516144f39190615276565b60006040518083038185875af1925050503d8060008114614530576040519150601f19603f3d011682016040523d82523d6000602084013e614535565b606091505b509150915061454687838387614551565b979650505050505050565b606083156145c05782516000036145b9576001600160a01b0385163b6145b95760405162461bcd60e51b815260206004820152601d60248201527f416464726573733a2063616c6c20746f206e6f6e2d636f6e7472616374000000604482015260640161095b565b508161446e565b61446e83838151156145d55781518083602001fd5b8060405162461bcd60e51b815260040161095b9190614647565b60005b8381101561460a5781810151838201526020016145f2565b838111156130d75750506000910152565b600081518084526146338160208601602086016145ef565b601f01601f19169290920160200192915050565b60208152600061465a602083018461461b565b9392505050565b60006020828403121561467357600080fd5b813561ffff8116811461465a57600080fd5b80356001600160401b038116811461469c57600080fd5b919050565b600080600080600060a086880312156146b957600080fd5b6146c286614685565b94506146d060208701614685565b94979496505050506040830135926060810135926080909101359150565b6001600160a01b0391909116815260200190565b60006020828403121561471457600080fd5b61465a82614685565b634e487b7160e01b600052604160045260246000fd5b604051608081016001600160401b03811182821017156147555761475561471d565b60405290565b604051606081016001600160401b03811182821017156147555761475561471d565b604051601f8201601f191681016001600160401b03811182821017156147a5576147a561471d565b604052919050565b60006001600160401b038211156147c6576147c661471d565b5060051b60200190565b600082601f8301126147e157600080fd5b81356001600160401b038111156147fa576147fa61471d565b61480d601f8201601f191660200161477d565b81815284602083860101111561482257600080fd5b816020850160208301376000918101602001919091529392505050565b6000602080838503121561485257600080fd5b82356001600160401b038082111561486957600080fd5b818501915085601f83011261487d57600080fd5b813561489061488b826147ad565b61477d565b81815260059190911b830184019084810190888311156148af57600080fd5b8585015b83811015614948578035858111156148cb5760008081fd5b86016080818c03601f19018113156148e35760008081fd5b6148eb614733565b89830135888111156148fd5760008081fd5b61490b8e8c838701016147d0565b8252506040808401358b8301526060614925818601614685565b82840152614934848601614685565b9083015250855250509186019186016148b3565b5098975050505050505050565b806040810183101561496657600080fd5b92915050565b806080810183101561496657600080fd5b6000806000806000806000806101a0898b03121561499a57600080fd5b6149a389614685565b97506149b160208a01614685565b96506149bf60408a01614685565b955060608901359450608089013593506149dc8a60a08b01614955565b92506149eb8a60e08b0161496c565b91506149fb8a6101608b01614955565b90509295985092959890939650565b6001600160a01b038116811461222057600080fd5b600080600080600080600080888a036101c0811215614a3d57600080fd5b8935614a4881614a0a565b985060208a0135614a5881614a0a565b975060408a0135614a6881614a0a565b965060608a0135614a7881614a0a565b955060e0607f1982011215614a8c57600080fd5b5060808901935061016089013592506101808901356001600160401b0380821115614ab657600080fd5b614ac28c838d016147d0565b93506101a08b0135915080821115614ad957600080fd5b50614ae68b828c016147d0565b9150509295985092959890939650565b600060208284031215614b0857600080fd5b813561465a81614a0a565b60008060008060008060008060006101c08a8c031215614b3257600080fd5b614b3b8a614685565b9850614b4960208b01614685565b9750614b5760408b01614685565b9650614b6560608b01614685565b955060808a0135945060a08a01359350614b828b60c08c01614955565b9250614b928b6101008c0161496c565b9150614ba28b6101808c01614955565b90509295985092959850929598565b600060208284031215614bc357600080fd5b5035919050565b801515811461222057600080fd5b600060208284031215614bea57600080fd5b813561465a81614bca565b600060208284031215614c0757600080fd5b81356001600160401b03811115614c1d57600080fd5b61446e848285016147d0565b60006020808385031215614c3c57600080fd5b82356001600160401b0380821115614c5357600080fd5b818501915085601f830112614c6757600080fd5b8135614c7561488b826147ad565b81815260059190911b83018401908481019088831115614c9457600080fd5b8585015b8381101561494857803585811115614cb05760008081fd5b86016060818c03601f1901811315614cc85760008081fd5b614cd061475b565b8983013588811115614ce25760008081fd5b614cf08e8c838701016147d0565b8252506040808401358b830152614d08838501614685565b9082015285525050918601918601614c98565b60008060408385031215614d2e57600080fd5b82356001600160401b03811115614d4457600080fd5b614d50858286016147d0565b95602094909401359450505050565b600181811c90821680614d7357607f821691505b602082108103614d9357634e487b7160e01b600052602260045260246000fd5b50919050565b60208082526023908201527f506f6c79676f6e5a6b45564d3a3a6f6e6c7941646d696e3a204f6e6c7920616460408201526236b4b760e91b606082015260800190565b634e487b7160e01b600052601160045260246000fd5b60006001600160401b03808316818516808303821115614e1457614e14614ddc565b01949350505050565b60208082526042908201527f456d657267656e63794d616e616765723a3a69664e6f74456d657267656e637960408201527f53746174653a206f6e6c79206966206e6f7420656d657267656e637920737461606082015261746560f01b608082015260a00190565b634e487b7160e01b600052603260045260246000fd5b60006001600160401b03808316818103614eb757614eb7614ddc565b6001019392505050565b928352602083019190915260c01b6001600160c01b031916604082015260480190565b600060208284031215614ef657600080fd5b5051919050565b9485526020850193909352604084019190915260c01b6001600160c01b0319166060808401919091521b6001600160601b0319166068820152607c0190565b600060018201614f4e57614f4e614ddc565b5060010190565b60006001600160401b0383811690831681811015614f7557614f75614ddc565b039392505050565b600082821015614f8f57614f8f614ddc565b500390565b6000816000190483118215151615614fae57614fae614ddc565b500290565b601f8211156143cf57600081815260208120601f850160051c81016020861015614fda5750805b601f850160051c820191505b81811015613ad857828155600101614fe6565b81516001600160401b038111156150125761501261471d565b615026816150208454614d5f565b84614fb3565b602080601f83116001811461505b57600084156150435750858301515b600019600386901b1c1916600185901b178555613ad8565b600085815260208120601f198616915b8281101561508a5788860151825594840194600190910190840161506b565b50858210156150a85787850151600019600388901b60f8161c191681555b5050505050600190811b01905550565b634e487b7160e01b600052601260045260246000fd5b6000826150dd576150dd6150b8565b500490565b60208082526043908201527f506f6c79676f6e5a6b45564d3a3a6973466f7263654261746368416c6c6f776560408201527f643a204f6e6c7920696620666f72636520626174636820697320617661696c61606082015262626c6560e81b608082015260a00190565b6000821982111561515e5761515e614ddc565b500190565b6020808252603b908201527f456d657267656e63794d616e616765723a3a6966456d657267656e637953746160408201527f74653a206f6e6c7920696620656d657267656e63792073746174650000000000606082015260800190565b6020808252603c908201527f506f6c79676f6e5a6b45564d3a3a6f6e6c79547275737465644167677265676160408201527f746f723a204f6e6c7920747275737465642061676772656761746f7200000000606082015260800190565b8381526001600160a01b03831660208201526060604082018190526000906152479083018461461b565b95945050505050565b60006001600160401b038084168061526a5761526a6150b8565b92169190910492915050565b600082516152888184602087016145ef565b9190910192915050565b6000826152a1576152a16150b8565b500690565b61012081016040808784376000838201818152879190815b60028110156152de578484833790840182815292840192906001016152be565b5050828760c0870137610100850181815286935091505b60018110156153145782518252602092830192909101906001016152f5565b50505095945050505050565b60006020828403121561533257600080fd5b815161465a81614bca565b600181815b8085111561537857816000190482111561535e5761535e614ddc565b8085161561536b57918102915b93841c9390800290615342565b509250929050565b60008261538f57506001614966565b8161539c57506000614966565b81600181146153b257600281146153bc576153d8565b6001915050614966565b60ff8411156153cd576153cd614ddc565b50506001821b614966565b5060208310610133831016604e8410600b84101617156153fb575081810a614966565b615405838361533d565b806000190482111561541957615419614ddc565b029392505050565b600061465a838361538056fe506f6c79676f6e5a6b45564d3a3a6163746976617465456d657267656e637953506f6c79676f6e5a6b45564d3a3a5f766572696679426174636865733a20696e506f6c79676f6e5a6b45564d3a3a5f70726f766544697374696e637450656e64506f6c79676f6e5a6b45564d3a3a73657175656e6365466f7263654261746368506f6c79676f6e5a6b45564d3a3a73657175656e6365426174636865733a2046a26469706673582212208688772921966f41c65c26d2f18e6be61e5d1612ef2f8c43963f7a6022026d4d64736f6c634300080f0033",
  "linkReferences": {},
  "deployedLinkReferences": {}
}