{
  "_format": "hh-sol-artifact-1",
  "contractName": "PolygonZkEVM",
  "sourceName": "contracts/PolygonZkEVM.sol",
  "abi": [
    {
      "inputs": [
        {
          "internalType": "contract IPolygonZkEVMGlobalExitRoot",
          "name": "_globalExitRootManager",
          "type": "address"
        },
        {
          "internalType": "contract IERC20Upgradeable",
          "name": "_matic",
          "type": "address"
        },
        {
          "internalType": "contract IVerifierRollup",
          "name": "_rollupVerifier",
          "type": "address"
        },
        {
          "internalType": "contract IPolygonZkEVMBridge",
          "name": "_bridgeAddress",
          "type": "address"
        },
        {
          "internalType": "uint64",
          "name": "_chainID",
          "type": "uint64"
        },
        {
          "internalType": "uint64",
          "name": "_forkID",
          "type": "uint64"
        }
      ],
      "stateMutability": "nonpayable",
      "type": "constructor"
    },
    {
      "inputs": [],
      "name": "BatchAlreadyVerified",
      "type": "error"
    },
    {
      "inputs": [],
      "name": "BatchNotSequencedOrNotSequenceEnd",
      "type": "error"
    },
    {
      "inputs": [],
      "name": "ExceedMaxVerifyBatches",
      "type": "error"
    },
    {
      "inputs": [],
      "name": "FinalNumBatchBelowLastVerifiedBatch",
      "type": "error"
    },
    {
      "inputs": [],
      "name": "FinalNumBatchDoesNotMatchPendingState",
      "type": "error"
    },
    {
      "inputs": [],
      "name": "FinalPendingStateNumInvalid",
      "type": "error"
    },
    {
      "inputs": [],
      "name": "ForceBatchNotAllowed",
      "type": "error"
    },
    {
      "inputs": [],
      "name": "ForceBatchTimeoutNotExpired",
      "type": "error"
    },
    {
      "inputs": [],
      "name": "ForceBatchesAlreadyActive",
      "type": "error"
    },
    {
      "inputs": [],
      "name": "ForceBatchesOverflow",
      "type": "error"
    },
    {
      "inputs": [],
      "name": "ForcedDataDoesNotMatch",
      "type": "error"
    },
    {
      "inputs": [],
      "name": "GlobalExitRootNotExist",
      "type": "error"
    },
    {
      "inputs": [],
      "name": "HaltTimeoutNotExpired",
      "type": "error"
    },
    {
      "inputs": [],
      "name": "InitNumBatchAboveLastVerifiedBatch",
      "type": "error"
    },
    {
      "inputs": [],
      "name": "InitNumBatchDoesNotMatchPendingState",
      "type": "error"
    },
    {
      "inputs": [],
      "name": "InvalidProof",
      "type": "error"
    },
    {
      "inputs": [],
      "name": "InvalidRangeBatchTimeTarget",
      "type": "error"
    },
    {
      "inputs": [],
      "name": "InvalidRangeForceBatchTimeout",
      "type": "error"
    },
    {
      "inputs": [],
      "name": "InvalidRangeMultiplierBatchFee",
      "type": "error"
    },
    {
      "inputs": [],
      "name": "NewAccInputHashDoesNotExist",
      "type": "error"
    },
    {
      "inputs": [],
      "name": "NewPendingStateTimeoutMustBeLower",
      "type": "error"
    },
    {
      "inputs": [],
      "name": "NewStateRootNotInsidePrime",
      "type": "error"
    },
    {
      "inputs": [],
      "name": "NewTrustedAggregatorTimeoutMustBeLower",
      "type": "error"
    },
    {
      "inputs": [],
      "name": "NotEnoughMaticAmount",
      "type": "error"
    },
    {
      "inputs": [],
      "name": "OldAccInputHashDoesNotExist",
      "type": "error"
    },
    {
      "inputs": [],
      "name": "OldStateRootDoesNotExist",
      "type": "error"
    },
    {
      "inputs": [],
      "name": "OnlyAdmin",
      "type": "error"
    },
    {
      "inputs": [],
      "name": "OnlyEmergencyState",
      "type": "error"
    },
    {
      "inputs": [],
      "name": "OnlyNotEmergencyState",
      "type": "error"
    },
    {
      "inputs": [],
      "name": "OnlyPendingAdmin",
      "type": "error"
    },
    {
      "inputs": [],
      "name": "OnlyTrustedAggregator",
      "type": "error"
    },
    {
      "inputs": [],
      "name": "OnlyTrustedSequencer",
      "type": "error"
    },
    {
      "inputs": [],
      "name": "PendingStateDoesNotExist",
      "type": "error"
    },
    {
      "inputs": [],
      "name": "PendingStateInvalid",
      "type": "error"
    },
    {
      "inputs": [],
      "name": "PendingStateNotConsolidable",
      "type": "error"
    },
    {
      "inputs": [],
      "name": "PendingStateTimeoutExceedHaltAggregationTimeout",
      "type": "error"
    },
    {
      "inputs": [],
      "name": "SequenceZeroBatches",
      "type": "error"
    },
    {
      "inputs": [],
      "name": "SequencedTimestampBelowForcedTimestamp",
      "type": "error"
    },
    {
      "inputs": [],
      "name": "SequencedTimestampInvalid",
      "type": "error"
    },
    {
      "inputs": [],
      "name": "StoredRootMustBeDifferentThanNewRoot",
      "type": "error"
    },
    {
      "inputs": [],
      "name": "TransactionsLengthAboveMax",
      "type": "error"
    },
    {
      "inputs": [],
      "name": "TrustedAggregatorTimeoutExceedHaltAggregationTimeout",
      "type": "error"
    },
    {
      "inputs": [],
      "name": "TrustedAggregatorTimeoutNotExpired",
      "type": "error"
    },
    {
      "anonymous": false,
      "inputs": [
        {
          "indexed": false,
          "internalType": "address",
          "name": "newAdmin",
          "type": "address"
        }
      ],
      "name": "AcceptAdminRole",
      "type": "event"
    },
    {
      "anonymous": false,
      "inputs": [],
      "name": "ActivateForceBatches",
      "type": "event"
    },
    {
      "anonymous": false,
      "inputs": [
        {
          "indexed": true,
          "internalType": "uint64",
          "name": "numBatch",
          "type": "uint64"
        },
        {
          "indexed": false,
          "internalType": "bytes32",
          "name": "stateRoot",
          "type": "bytes32"
        },
        {
          "indexed": true,
          "internalType": "uint64",
          "name": "pendingStateNum",
          "type": "uint64"
        }
      ],
      "name": "ConsolidatePendingState",
      "type": "event"
    },
    {
      "anonymous": false,
      "inputs": [],
      "name": "EmergencyStateActivated",
      "type": "event"
    },
    {
      "anonymous": false,
      "inputs": [],
      "name": "EmergencyStateDeactivated",
      "type": "event"
    },
    {
      "anonymous": false,
      "inputs": [
        {
          "indexed": true,
          "internalType": "uint64",
          "name": "forceBatchNum",
          "type": "uint64"
        },
        {
          "indexed": false,
          "internalType": "bytes32",
          "name": "lastGlobalExitRoot",
          "type": "bytes32"
        },
        {
          "indexed": false,
          "internalType": "address",
          "name": "sequencer",
          "type": "address"
        },
        {
          "indexed": false,
          "internalType": "bytes",
          "name": "transactions",
          "type": "bytes"
        }
      ],
      "name": "ForceBatch",
      "type": "event"
    },
    {
      "anonymous": false,
      "inputs": [
        {
          "indexed": false,
          "internalType": "uint8",
          "name": "version",
          "type": "uint8"
        }
      ],
      "name": "Initialized",
      "type": "event"
    },
    {
      "anonymous": false,
      "inputs": [
        {
          "indexed": true,
          "internalType": "uint64",
          "name": "numBatch",
          "type": "uint64"
        },
        {
          "indexed": false,
          "internalType": "bytes32",
          "name": "stateRoot",
          "type": "bytes32"
        },
        {
          "indexed": true,
          "internalType": "address",
          "name": "aggregator",
          "type": "address"
        }
      ],
      "name": "OverridePendingState",
      "type": "event"
    },
    {
      "anonymous": false,
      "inputs": [
        {
          "indexed": true,
          "internalType": "address",
          "name": "previousOwner",
          "type": "address"
        },
        {
          "indexed": true,
          "internalType": "address",
          "name": "newOwner",
          "type": "address"
        }
      ],
      "name": "OwnershipTransferred",
      "type": "event"
    },
    {
      "anonymous": false,
      "inputs": [
        {
          "indexed": false,
          "internalType": "bytes32",
          "name": "storedStateRoot",
          "type": "bytes32"
        },
        {
          "indexed": false,
          "internalType": "bytes32",
          "name": "provedStateRoot",
          "type": "bytes32"
        }
      ],
      "name": "ProveNonDeterministicPendingState",
      "type": "event"
    },
    {
      "anonymous": false,
      "inputs": [
        {
          "indexed": true,
          "internalType": "uint64",
          "name": "numBatch",
          "type": "uint64"
        }
      ],
      "name": "SequenceBatches",
      "type": "event"
    },
    {
      "anonymous": false,
      "inputs": [
        {
          "indexed": true,
          "internalType": "uint64",
          "name": "numBatch",
          "type": "uint64"
        }
      ],
      "name": "SequenceForceBatches",
      "type": "event"
    },
    {
      "anonymous": false,
      "inputs": [
        {
          "indexed": false,
          "internalType": "uint64",
          "name": "newforceBatchTimeout",
          "type": "uint64"
        }
      ],
      "name": "SetForceBatchTimeout",
      "type": "event"
    },
    {
      "anonymous": false,
      "inputs": [
        {
          "indexed": false,
          "internalType": "uint16",
          "name": "newMultiplierBatchFee",
          "type": "uint16"
        }
      ],
      "name": "SetMultiplierBatchFee",
      "type": "event"
    },
    {
      "anonymous": false,
      "inputs": [
        {
          "indexed": false,
          "internalType": "uint64",
          "name": "newPendingStateTimeout",
          "type": "uint64"
        }
      ],
      "name": "SetPendingStateTimeout",
      "type": "event"
    },
    {
      "anonymous": false,
      "inputs": [
        {
          "indexed": false,
          "internalType": "address",
          "name": "newTrustedAggregator",
          "type": "address"
        }
      ],
      "name": "SetTrustedAggregator",
      "type": "event"
    },
    {
      "anonymous": false,
      "inputs": [
        {
          "indexed": false,
          "internalType": "uint64",
          "name": "newTrustedAggregatorTimeout",
          "type": "uint64"
        }
      ],
      "name": "SetTrustedAggregatorTimeout",
      "type": "event"
    },
    {
      "anonymous": false,
      "inputs": [
        {
          "indexed": false,
          "internalType": "address",
          "name": "newTrustedSequencer",
          "type": "address"
        }
      ],
      "name": "SetTrustedSequencer",
      "type": "event"
    },
    {
      "anonymous": false,
      "inputs": [
        {
          "indexed": false,
          "internalType": "string",
          "name": "newTrustedSequencerURL",
          "type": "string"
        }
      ],
      "name": "SetTrustedSequencerURL",
      "type": "event"
    },
    {
      "anonymous": false,
      "inputs": [
        {
          "indexed": false,
          "internalType": "uint64",
          "name": "newVerifyBatchTimeTarget",
          "type": "uint64"
        }
      ],
      "name": "SetVerifyBatchTimeTarget",
      "type": "event"
    },
    {
      "anonymous": false,
      "inputs": [
        {
          "indexed": false,
          "internalType": "address",
          "name": "newPendingAdmin",
          "type": "address"
        }
      ],
      "name": "TransferAdminRole",
      "type": "event"
    },
    {
      "anonymous": false,
      "inputs": [
        {
          "indexed": false,
          "internalType": "uint64",
          "name": "numBatch",
          "type": "uint64"
        },
        {
          "indexed": false,
          "internalType": "uint64",
          "name": "forkID",
          "type": "uint64"
        },
        {
          "indexed": false,
          "internalType": "string",
          "name": "version",
          "type": "string"
        }
      ],
      "name": "UpdateZkEVMVersion",
      "type": "event"
    },
    {
      "anonymous": false,
      "inputs": [
        {
          "indexed": true,
          "internalType": "uint64",
          "name": "numBatch",
          "type": "uint64"
        },
        {
          "indexed": false,
          "internalType": "bytes32",
          "name": "stateRoot",
          "type": "bytes32"
        },
        {
          "indexed": true,
          "internalType": "address",
          "name": "aggregator",
          "type": "address"
        }
      ],
      "name": "VerifyBatches",
      "type": "event"
    },
    {
      "anonymous": false,
      "inputs": [
        {
          "indexed": true,
          "internalType": "uint64",
          "name": "numBatch",
          "type": "uint64"
        },
        {
          "indexed": false,
          "internalType": "bytes32",
          "name": "stateRoot",
          "type": "bytes32"
        },
        {
          "indexed": true,
          "internalType": "address",
          "name": "aggregator",
          "type": "address"
        }
      ],
      "name": "VerifyBatchesTrustedAggregator",
      "type": "event"
    },
    {
      "inputs": [],
      "name": "acceptAdminRole",
      "outputs": [],
      "stateMutability": "nonpayable",
      "type": "function"
    },
    {
      "inputs": [
        {
          "internalType": "uint64",
          "name": "sequencedBatchNum",
          "type": "uint64"
        }
      ],
      "name": "activateEmergencyState",
      "outputs": [],
      "stateMutability": "nonpayable",
      "type": "function"
    },
    {
      "inputs": [],
      "name": "activateForceBatches",
      "outputs": [],
      "stateMutability": "nonpayable",
      "type": "function"
    },
    {
      "inputs": [],
      "name": "admin",
      "outputs": [
        {
          "internalType": "address",
          "name": "",
          "type": "address"
        }
      ],
      "stateMutability": "view",
      "type": "function"
    },
    {
      "inputs": [],
      "name": "batchFee",
      "outputs": [
        {
          "internalType": "uint256",
          "name": "",
          "type": "uint256"
        }
      ],
      "stateMutability": "view",
      "type": "function"
    },
    {
      "inputs": [
        {
          "internalType": "uint64",
          "name": "",
          "type": "uint64"
        }
      ],
      "name": "batchNumToStateRoot",
      "outputs": [
        {
          "internalType": "bytes32",
          "name": "",
          "type": "bytes32"
        }
      ],
      "stateMutability": "view",
      "type": "function"
    },
    {
      "inputs": [],
      "name": "bridgeAddress",
      "outputs": [
        {
          "internalType": "contract IPolygonZkEVMBridge",
          "name": "",
          "type": "address"
        }
      ],
      "stateMutability": "view",
      "type": "function"
    },
    {
      "inputs": [],
      "name": "calculateRewardPerBatch",
      "outputs": [
        {
          "internalType": "uint256",
          "name": "",
          "type": "uint256"
        }
      ],
      "stateMutability": "view",
      "type": "function"
    },
    {
      "inputs": [],
      "name": "chainID",
      "outputs": [
        {
          "internalType": "uint64",
          "name": "",
          "type": "uint64"
        }
      ],
      "stateMutability": "view",
      "type": "function"
    },
    {
      "inputs": [
        {
          "internalType": "uint256",
          "name": "newStateRoot",
          "type": "uint256"
        }
      ],
      "name": "checkStateRootInsidePrime",
      "outputs": [
        {
          "internalType": "bool",
          "name": "",
          "type": "bool"
        }
      ],
      "stateMutability": "pure",
      "type": "function"
    },
    {
      "inputs": [
        {
          "internalType": "uint64",
          "name": "pendingStateNum",
          "type": "uint64"
        }
      ],
      "name": "consolidatePendingState",
      "outputs": [],
      "stateMutability": "nonpayable",
      "type": "function"
    },
    {
      "inputs": [],
      "name": "deactivateEmergencyState",
      "outputs": [],
      "stateMutability": "nonpayable",
      "type": "function"
    },
    {
      "inputs": [
        {
          "internalType": "bytes",
          "name": "transactions",
          "type": "bytes"
        },
        {
          "internalType": "uint256",
          "name": "maticAmount",
          "type": "uint256"
        }
      ],
      "name": "forceBatch",
      "outputs": [],
      "stateMutability": "nonpayable",
      "type": "function"
    },
    {
      "inputs": [],
      "name": "forceBatchTimeout",
      "outputs": [
        {
          "internalType": "uint64",
          "name": "",
          "type": "uint64"
        }
      ],
      "stateMutability": "view",
      "type": "function"
    },
    {
      "inputs": [
        {
          "internalType": "uint64",
          "name": "",
          "type": "uint64"
        }
      ],
      "name": "forcedBatches",
      "outputs": [
        {
          "internalType": "bytes32",
          "name": "",
          "type": "bytes32"
        }
      ],
      "stateMutability": "view",
      "type": "function"
    },
    {
      "inputs": [],
      "name": "forkID",
      "outputs": [
        {
          "internalType": "uint64",
          "name": "",
          "type": "uint64"
        }
      ],
      "stateMutability": "view",
      "type": "function"
    },
    {
      "inputs": [],
      "name": "gapLastTimestamp",
      "outputs": [
        {
          "internalType": "uint64",
          "name": "",
          "type": "uint64"
        }
      ],
      "stateMutability": "view",
      "type": "function"
    },
    {
      "inputs": [],
      "name": "getForcedBatchFee",
      "outputs": [
        {
          "internalType": "uint256",
          "name": "",
          "type": "uint256"
        }
      ],
      "stateMutability": "view",
      "type": "function"
    },
    {
      "inputs": [
        {
          "internalType": "uint64",
          "name": "initNumBatch",
          "type": "uint64"
        },
        {
          "internalType": "uint64",
          "name": "finalNewBatch",
          "type": "uint64"
        },
        {
          "internalType": "bytes32",
          "name": "newLocalExitRoot",
          "type": "bytes32"
        },
        {
          "internalType": "bytes32",
          "name": "oldStateRoot",
          "type": "bytes32"
        },
        {
          "internalType": "bytes32",
          "name": "newStateRoot",
          "type": "bytes32"
        }
      ],
      "name": "getInputSnarkBytes",
      "outputs": [
        {
          "internalType": "bytes",
          "name": "",
          "type": "bytes"
        }
      ],
      "stateMutability": "view",
      "type": "function"
    },
    {
      "inputs": [],
      "name": "getLastVerifiedBatch",
      "outputs": [
        {
          "internalType": "uint64",
          "name": "",
          "type": "uint64"
        }
      ],
      "stateMutability": "view",
      "type": "function"
    },
    {
      "inputs": [],
      "name": "globalExitRootManager",
      "outputs": [
        {
          "internalType": "contract IPolygonZkEVMGlobalExitRoot",
          "name": "",
          "type": "address"
        }
      ],
      "stateMutability": "view",
      "type": "function"
    },
    {
      "inputs": [
        {
          "components": [
            {
              "internalType": "address",
              "name": "admin",
              "type": "address"
            },
            {
              "internalType": "address",
              "name": "trustedSequencer",
              "type": "address"
            },
            {
              "internalType": "uint64",
              "name": "pendingStateTimeout",
              "type": "uint64"
            },
            {
              "internalType": "address",
              "name": "trustedAggregator",
              "type": "address"
            },
            {
              "internalType": "uint64",
              "name": "trustedAggregatorTimeout",
              "type": "uint64"
            }
          ],
          "internalType": "struct PolygonZkEVM.InitializePackedParameters",
          "name": "initializePackedParameters",
          "type": "tuple"
        },
        {
          "internalType": "bytes32",
          "name": "genesisRoot",
          "type": "bytes32"
        },
        {
          "internalType": "string",
          "name": "_trustedSequencerURL",
          "type": "string"
        },
        {
          "internalType": "string",
          "name": "_networkName",
          "type": "string"
        },
        {
          "internalType": "string",
          "name": "_version",
          "type": "string"
        }
      ],
      "name": "initialize",
      "outputs": [],
      "stateMutability": "nonpayable",
      "type": "function"
    },
    {
      "inputs": [],
      "name": "isEmergencyState",
      "outputs": [
        {
          "internalType": "bool",
          "name": "",
          "type": "bool"
        }
      ],
      "stateMutability": "view",
      "type": "function"
    },
    {
      "inputs": [],
      "name": "isForcedBatchDisallowed",
      "outputs": [
        {
          "internalType": "bool",
          "name": "",
          "type": "bool"
        }
      ],
      "stateMutability": "view",
      "type": "function"
    },
    {
      "inputs": [
        {
          "internalType": "uint64",
          "name": "pendingStateNum",
          "type": "uint64"
        }
      ],
      "name": "isPendingStateConsolidable",
      "outputs": [
        {
          "internalType": "bool",
          "name": "",
          "type": "bool"
        }
      ],
      "stateMutability": "view",
      "type": "function"
    },
    {
      "inputs": [],
      "name": "lastBatchSequenced",
      "outputs": [
        {
          "internalType": "uint64",
          "name": "",
          "type": "uint64"
        }
      ],
      "stateMutability": "view",
      "type": "function"
    },
    {
      "inputs": [],
      "name": "lastForceBatch",
      "outputs": [
        {
          "internalType": "uint64",
          "name": "",
          "type": "uint64"
        }
      ],
      "stateMutability": "view",
      "type": "function"
    },
    {
      "inputs": [],
      "name": "lastForceBatchSequenced",
      "outputs": [
        {
          "internalType": "uint64",
          "name": "",
          "type": "uint64"
        }
      ],
      "stateMutability": "view",
      "type": "function"
    },
    {
      "inputs": [],
      "name": "lastPendingState",
      "outputs": [
        {
          "internalType": "uint64",
          "name": "",
          "type": "uint64"
        }
      ],
      "stateMutability": "view",
      "type": "function"
    },
    {
      "inputs": [],
      "name": "lastPendingStateConsolidated",
      "outputs": [
        {
          "internalType": "uint64",
          "name": "",
          "type": "uint64"
        }
      ],
      "stateMutability": "view",
      "type": "function"
    },
    {
      "inputs": [],
      "name": "lastVerifiedBatch",
      "outputs": [
        {
          "internalType": "uint64",
          "name": "",
          "type": "uint64"
        }
      ],
      "stateMutability": "view",
      "type": "function"
    },
    {
      "inputs": [],
      "name": "matic",
      "outputs": [
        {
          "internalType": "contract IERC20Upgradeable",
          "name": "",
          "type": "address"
        }
      ],
      "stateMutability": "view",
      "type": "function"
    },
    {
      "inputs": [],
      "name": "multiplierBatchFee",
      "outputs": [
        {
          "internalType": "uint16",
          "name": "",
          "type": "uint16"
        }
      ],
      "stateMutability": "view",
      "type": "function"
    },
    {
      "inputs": [],
      "name": "networkName",
      "outputs": [
        {
          "internalType": "string",
          "name": "",
          "type": "string"
        }
      ],
      "stateMutability": "view",
      "type": "function"
    },
    {
      "inputs": [
        {
          "internalType": "uint64",
          "name": "initPendingStateNum",
          "type": "uint64"
        },
        {
          "internalType": "uint64",
          "name": "finalPendingStateNum",
          "type": "uint64"
        },
        {
          "internalType": "uint64",
          "name": "initNumBatch",
          "type": "uint64"
        },
        {
          "internalType": "uint64",
          "name": "finalNewBatch",
          "type": "uint64"
        },
        {
          "internalType": "bytes32",
          "name": "newLocalExitRoot",
          "type": "bytes32"
        },
        {
          "internalType": "bytes32",
          "name": "newStateRoot",
          "type": "bytes32"
        },
        {
          "internalType": "bytes",
          "name": "proof",
          "type": "bytes"
        }
      ],
      "name": "overridePendingState",
      "outputs": [],
      "stateMutability": "nonpayable",
      "type": "function"
    },
    {
      "inputs": [],
      "name": "owner",
      "outputs": [
        {
          "internalType": "address",
          "name": "",
          "type": "address"
        }
      ],
      "stateMutability": "view",
      "type": "function"
    },
    {
      "inputs": [],
      "name": "pendingAdmin",
      "outputs": [
        {
          "internalType": "address",
          "name": "",
          "type": "address"
        }
      ],
      "stateMutability": "view",
      "type": "function"
    },
    {
      "inputs": [],
      "name": "pendingStateTimeout",
      "outputs": [
        {
          "internalType": "uint64",
          "name": "",
          "type": "uint64"
        }
      ],
      "stateMutability": "view",
      "type": "function"
    },
    {
      "inputs": [
        {
          "internalType": "uint256",
          "name": "",
          "type": "uint256"
        }
      ],
      "name": "pendingStateTransitions",
      "outputs": [
        {
          "internalType": "uint64",
          "name": "timestamp",
          "type": "uint64"
        },
        {
          "internalType": "uint64",
          "name": "lastVerifiedBatch",
          "type": "uint64"
        },
        {
          "internalType": "bytes32",
          "name": "exitRoot",
          "type": "bytes32"
        },
        {
          "internalType": "bytes32",
          "name": "stateRoot",
          "type": "bytes32"
        }
      ],
      "stateMutability": "view",
      "type": "function"
    },
    {
      "inputs": [
        {
          "internalType": "uint64",
          "name": "initPendingStateNum",
          "type": "uint64"
        },
        {
          "internalType": "uint64",
          "name": "finalPendingStateNum",
          "type": "uint64"
        },
        {
          "internalType": "uint64",
          "name": "initNumBatch",
          "type": "uint64"
        },
        {
          "internalType": "uint64",
          "name": "finalNewBatch",
          "type": "uint64"
        },
        {
          "internalType": "bytes32",
          "name": "newLocalExitRoot",
          "type": "bytes32"
        },
        {
          "internalType": "bytes32",
          "name": "newStateRoot",
          "type": "bytes32"
        },
        {
          "internalType": "bytes",
          "name": "proof",
          "type": "bytes"
        }
      ],
      "name": "proveNonDeterministicPendingState",
      "outputs": [],
      "stateMutability": "nonpayable",
      "type": "function"
    },
    {
      "inputs": [],
      "name": "renounceOwnership",
      "outputs": [],
      "stateMutability": "nonpayable",
      "type": "function"
    },
    {
      "inputs": [],
      "name": "rollupVerifier",
      "outputs": [
        {
          "internalType": "contract IVerifierRollup",
          "name": "",
          "type": "address"
        }
      ],
      "stateMutability": "view",
      "type": "function"
    },
    {
      "inputs": [
        {
          "components": [
            {
              "internalType": "bytes",
              "name": "transactions",
              "type": "bytes"
            },
            {
              "internalType": "bytes32",
              "name": "lastGlobalExitRoot",
              "type": "bytes32"
            },
            {
              "internalType": "uint64",
              "name": "minForcedTimestamp",
              "type": "uint64"
            },
            {
              "internalType": "bytes32",
              "name": "forcedBlockHashL1",
              "type": "bytes32"
            }
          ],
          "internalType": "struct PolygonZkEVM.BatchData[]",
          "name": "batches",
          "type": "tuple[]"
        },
        {
          "internalType": "address",
          "name": "l2Coinbase",
          "type": "address"
        }
      ],
      "name": "sequenceBatches",
      "outputs": [],
      "stateMutability": "nonpayable",
      "type": "function"
    },
    {
      "inputs": [
        {
          "components": [
            {
              "internalType": "bytes",
              "name": "transactions",
              "type": "bytes"
            },
            {
              "internalType": "bytes32",
              "name": "lastGlobalExitRoot",
              "type": "bytes32"
            },
            {
              "internalType": "uint64",
              "name": "minForcedTimestamp",
              "type": "uint64"
            },
            {
              "internalType": "bytes32",
              "name": "forcedBlockHashL1",
              "type": "bytes32"
            }
          ],
          "internalType": "struct PolygonZkEVM.BatchData[]",
          "name": "batches",
          "type": "tuple[]"
        }
      ],
      "name": "sequenceForceBatches",
      "outputs": [],
      "stateMutability": "nonpayable",
      "type": "function"
    },
    {
      "inputs": [
        {
          "internalType": "uint64",
          "name": "",
          "type": "uint64"
        }
      ],
      "name": "sequencedBatches",
      "outputs": [
        {
          "internalType": "bytes32",
          "name": "accInputHash",
          "type": "bytes32"
        },
        {
          "internalType": "uint64",
          "name": "sequencedTimestamp",
          "type": "uint64"
        },
        {
          "internalType": "uint64",
          "name": "previousLastBatchSequenced",
          "type": "uint64"
        }
      ],
      "stateMutability": "view",
      "type": "function"
    },
    {
      "inputs": [
        {
          "internalType": "uint64",
          "name": "newforceBatchTimeout",
          "type": "uint64"
        }
      ],
      "name": "setForceBatchTimeout",
      "outputs": [],
      "stateMutability": "nonpayable",
      "type": "function"
    },
    {
      "inputs": [
        {
          "internalType": "uint16",
          "name": "newMultiplierBatchFee",
          "type": "uint16"
        }
      ],
      "name": "setMultiplierBatchFee",
      "outputs": [],
      "stateMutability": "nonpayable",
      "type": "function"
    },
    {
      "inputs": [
        {
          "internalType": "uint64",
          "name": "newPendingStateTimeout",
          "type": "uint64"
        }
      ],
      "name": "setPendingStateTimeout",
      "outputs": [],
      "stateMutability": "nonpayable",
      "type": "function"
    },
    {
      "inputs": [
        {
          "internalType": "address",
          "name": "newTrustedAggregator",
          "type": "address"
        }
      ],
      "name": "setTrustedAggregator",
      "outputs": [],
      "stateMutability": "nonpayable",
      "type": "function"
    },
    {
      "inputs": [
        {
          "internalType": "uint64",
          "name": "newTrustedAggregatorTimeout",
          "type": "uint64"
        }
      ],
      "name": "setTrustedAggregatorTimeout",
      "outputs": [],
      "stateMutability": "nonpayable",
      "type": "function"
    },
    {
      "inputs": [
        {
          "internalType": "address",
          "name": "newTrustedSequencer",
          "type": "address"
        }
      ],
      "name": "setTrustedSequencer",
      "outputs": [],
      "stateMutability": "nonpayable",
      "type": "function"
    },
    {
      "inputs": [
        {
          "internalType": "string",
          "name": "newTrustedSequencerURL",
          "type": "string"
        }
      ],
      "name": "setTrustedSequencerURL",
      "outputs": [],
      "stateMutability": "nonpayable",
      "type": "function"
    },
    {
      "inputs": [
        {
          "internalType": "uint64",
          "name": "newVerifyBatchTimeTarget",
          "type": "uint64"
        }
      ],
      "name": "setVerifyBatchTimeTarget",
      "outputs": [],
      "stateMutability": "nonpayable",
      "type": "function"
    },
    {
      "inputs": [
        {
          "internalType": "address",
          "name": "newPendingAdmin",
          "type": "address"
        }
      ],
      "name": "transferAdminRole",
      "outputs": [],
      "stateMutability": "nonpayable",
      "type": "function"
    },
    {
      "inputs": [
        {
          "internalType": "address",
          "name": "newOwner",
          "type": "address"
        }
      ],
      "name": "transferOwnership",
      "outputs": [],
      "stateMutability": "nonpayable",
      "type": "function"
    },
    {
      "inputs": [],
      "name": "trustedAggregator",
      "outputs": [
        {
          "internalType": "address",
          "name": "",
          "type": "address"
        }
      ],
      "stateMutability": "view",
      "type": "function"
    },
    {
      "inputs": [],
      "name": "trustedAggregatorTimeout",
      "outputs": [
        {
          "internalType": "uint64",
          "name": "",
          "type": "uint64"
        }
      ],
      "stateMutability": "view",
      "type": "function"
    },
    {
      "inputs": [],
      "name": "trustedSequencer",
      "outputs": [
        {
          "internalType": "address",
          "name": "",
          "type": "address"
        }
      ],
      "stateMutability": "view",
      "type": "function"
    },
    {
      "inputs": [],
      "name": "trustedSequencerURL",
      "outputs": [
        {
          "internalType": "string",
          "name": "",
          "type": "string"
        }
      ],
      "stateMutability": "view",
      "type": "function"
    },
    {
      "inputs": [],
      "name": "verifyBatchTimeTarget",
      "outputs": [
        {
          "internalType": "uint64",
          "name": "",
          "type": "uint64"
        }
      ],
      "stateMutability": "view",
      "type": "function"
    },
    {
      "inputs": [
        {
          "internalType": "uint64",
          "name": "pendingStateNum",
          "type": "uint64"
        },
        {
          "internalType": "uint64",
          "name": "initNumBatch",
          "type": "uint64"
        },
        {
          "internalType": "uint64",
          "name": "finalNewBatch",
          "type": "uint64"
        },
        {
          "internalType": "bytes32",
          "name": "newLocalExitRoot",
          "type": "bytes32"
        },
        {
          "internalType": "bytes32",
          "name": "newStateRoot",
          "type": "bytes32"
        },
        {
          "internalType": "bytes",
          "name": "proof",
          "type": "bytes"
        }
      ],
      "name": "verifyBatches",
      "outputs": [],
      "stateMutability": "nonpayable",
      "type": "function"
    },
    {
      "inputs": [
        {
          "internalType": "uint64",
          "name": "pendingStateNum",
          "type": "uint64"
        },
        {
          "internalType": "uint64",
          "name": "initNumBatch",
          "type": "uint64"
        },
        {
          "internalType": "uint64",
          "name": "finalNewBatch",
          "type": "uint64"
        },
        {
          "internalType": "bytes32",
          "name": "newLocalExitRoot",
          "type": "bytes32"
        },
        {
          "internalType": "bytes32",
          "name": "newStateRoot",
          "type": "bytes32"
        },
        {
          "internalType": "bytes",
          "name": "proof",
          "type": "bytes"
        }
      ],
      "name": "verifyBatchesTrustedAggregator",
      "outputs": [],
      "stateMutability": "nonpayable",
      "type": "function"
    }
  ],
  "bytecode": "0x6101406040523480156200001257600080fd5b5060405162006061380380620060618339810160408190526200003591620000a5565b6001600160a01b0395861660c05293851660805291841660a05290921660e0526001600160401b0391821661010052166101205262000131565b6001600160a01b03811681146200008557600080fd5b50565b80516001600160401b0381168114620000a057600080fd5b919050565b60008060008060008060c08789031215620000bf57600080fd5b8651620000cc816200006f565b6020880151909650620000df816200006f565b6040880151909550620000f2816200006f565b606088015190945062000105816200006f565b9250620001156080880162000088565b91506200012560a0880162000088565b90509295509295509295565b60805160a05160c05160e0516101005161012051615e5b620002066000396000818161067001528181610e9f0152612cf50152600081816107f00152610e750152600081816107a301528181612ded015281816131e301528181613629015261429801526000818161095c015281816115130152818161256f01528181612f8a01528181613265015281816136ab0152614468015260008181610a090152818161418501526147d40152600081816108ac01528181611b34015281816131b901528181613c5601526148c30152615e5b6000f3fe608060405234801561001057600080fd5b50600436106103ba5760003560e01c80638da5cb5b116101f4578063c89e42df1161011a578063e8bf92ed116100ad578063f14916d61161007c578063f14916d614610a7e578063f2fde38b14610a91578063f851a44014610aa4578063f8b823e414610ac457600080fd5b8063e8bf92ed14610a04578063eaeb077b14610a2b578063ecef3f9914610a3e578063ed6b010414610a5157600080fd5b8063d939b315116100e9578063d939b31514610991578063dbc16976146109b9578063e6ad707e146109c1578063e7a7ed02146109d457600080fd5b8063c89e42df14610915578063cfa8ed4714610928578063d02103ca14610957578063d2e129f91461097e57600080fd5b8063ada8f91911610192578063b6b0b09711610161578063b6b0b097146108a7578063ba58ae39146108ce578063c0ed84e0146108e1578063c754c7ed146108e957600080fd5b8063ada8f919146107d8578063adc879e9146107eb578063afd23cbe14610812578063b4d63f581461084057600080fd5b80639f26f840116101ce5780639f26f84014610778578063a066215c1461078b578063a3c573eb1461079e578063a50a164b146107c557600080fd5b80638da5cb5b1461073f57806399f5634e1461075d5780639c9f3dfe1461076557600080fd5b80634a910e6a116102e45780636ff512cc11610277578063831c7ead11610246578063831c7ead1461066b578063837a473814610692578063841b24d7146107075780638c3d73011461073757600080fd5b80636ff512cc14610629578063715018a61461063c5780637215541a146106445780637fcb36531461065757600080fd5b8063542028d5116102b3578063542028d5146105f15780635ec91958146105f957806360469169146106015780636b8616ce1461060957600080fd5b80634a910e6a1461058a5780634e4877061461059d5780634fd70464146105b05780635392c5e0146105c357600080fd5b8063298789831161035c578063423fa8561161032b578063423fa8561461050e578063456052671461052e578063458c0477146105565780634a1a89a71461056a57600080fd5b806329878983146104a85780632a9f208f146104d4578063383b3be8146104e8578063394218e9146104fb57600080fd5b806315064c961161039857806315064c96146104205780631816b7e51461043d578063220d789914610450578063267822471461046357600080fd5b80630808270c146103bf5780630a0d9fbe146103d4578063107bf28c1461040b575b600080fd5b6103d26103cd3660046152ee565b610acd565b005b606f546103ed90610100900467ffffffffffffffff1681565b60405167ffffffffffffffff90911681526020015b60405180910390f35b610413610b80565b60405161040291906153f5565b606f5461042d9060ff1681565b6040519015158152602001610402565b6103d261044b36600461540f565b610c0e565b61041361045e366004615433565b610d26565b607b546104839073ffffffffffffffffffffffffffffffffffffffff1681565b60405173ffffffffffffffffffffffffffffffffffffffff9091168152602001610402565b6074546104839068010000000000000000900473ffffffffffffffffffffffffffffffffffffffff1681565b6073546103ed9067ffffffffffffffff1681565b61042d6104f6366004615480565b610efd565b6103d2610509366004615480565b610f53565b6073546103ed9068010000000000000000900467ffffffffffffffff1681565b6073546103ed90700100000000000000000000000000000000900467ffffffffffffffff1681565b6079546103ed9067ffffffffffffffff1681565b6079546103ed9068010000000000000000900467ffffffffffffffff1681565b6103d2610598366004615480565b6110d7565b6103d26105ab366004615480565b61118a565b6103d26105be36600461549b565b61130e565b6105e36105d1366004615480565b60756020526000908152604090205481565b604051908152602001610402565b6104136116a4565b6103d26116b1565b6105e36117b1565b6105e3610617366004615480565b60716020526000908152604090205481565b6103d2610637366004615548565b6117c7565b6103d261189c565b6103d2610652366004615480565b6118b0565b6074546103ed9067ffffffffffffffff1681565b6103ed7f000000000000000000000000000000000000000000000000000000000000000081565b6106db6106a0366004615563565b60786020526000908152604090208054600182015460029092015467ffffffffffffffff808316936801000000000000000090930416919084565b6040805167ffffffffffffffff9586168152949093166020850152918301526060820152608001610402565b6079546103ed907801000000000000000000000000000000000000000000000000900467ffffffffffffffff1681565b6103d2611a20565b60335473ffffffffffffffffffffffffffffffffffffffff16610483565b6105e3611aec565b6103d2610773366004615480565b611c45565b6103d26107863660046155c1565b611dc1565b6103d2610799366004615480565b612353565b6104837f000000000000000000000000000000000000000000000000000000000000000081565b6103d26107d336600461549b565b612459565b6103d26107e6366004615548565b61261e565b6103ed7f000000000000000000000000000000000000000000000000000000000000000081565b606f5461082d906901000000000000000000900461ffff1681565b60405161ffff9091168152602001610402565b61088161084e366004615480565b6072602052600090815260409020805460019091015467ffffffffffffffff808216916801000000000000000090041683565b6040805193845267ffffffffffffffff9283166020850152911690820152606001610402565b6104837f000000000000000000000000000000000000000000000000000000000000000081565b61042d6108dc366004615563565b6126e2565b6103ed61276c565b607b546103ed9074010000000000000000000000000000000000000000900467ffffffffffffffff1681565b6103d26109233660046156e6565b6127c1565b606f54610483906b010000000000000000000000900473ffffffffffffffffffffffffffffffffffffffff1681565b6104837f000000000000000000000000000000000000000000000000000000000000000081565b6103d261098c36600461571b565b61284e565b6079546103ed90700100000000000000000000000000000000900467ffffffffffffffff1681565b6103d2612d9a565b6103d26109cf3660046152ee565b612e73565b6073546103ed907801000000000000000000000000000000000000000000000000900467ffffffffffffffff1681565b6104837f000000000000000000000000000000000000000000000000000000000000000081565b6103d2610a393660046157ce565b613083565b6103d2610a4c36600461581a565b613512565b607b5461042d907c0100000000000000000000000000000000000000000000000000000000900460ff1681565b6103d2610a8c366004615548565b613cc8565b6103d2610a9f366004615548565b613d9a565b607a546104839073ffffffffffffffffffffffffffffffffffffffff1681565b6105e360705481565b606f5460ff1615610b0a576040517f2f0047fc00000000000000000000000000000000000000000000000000000000815260040160405180910390fd5b610b1a8888888888888888613e4e565b67ffffffffffffffff85166000908152607560209081526040918290205482519081529081018590527f1f44c21118c4603cfb4e1b621dbcfa2b73efcececee2b99b620b2953d33a7010910160405180910390a1610b76614296565b5050505050505050565b60778054610b8d9061586e565b80601f0160208091040260200160405190810160405280929190818152602001828054610bb99061586e565b8015610c065780601f10610bdb57610100808354040283529160200191610c06565b820191906000526020600020905b815481529060010190602001808311610be957829003601f168201915b505050505081565b607a5473ffffffffffffffffffffffffffffffffffffffff163314610c5f576040517f4755657900000000000000000000000000000000000000000000000000000000815260040160405180910390fd5b6103e88161ffff161080610c7857506103ff8161ffff16115b15610caf576040517f4c2533c800000000000000000000000000000000000000000000000000000000815260040160405180910390fd5b606f80547fffffffffffffffffffffffffffffffffffffffffff0000ffffffffffffffffff16690100000000000000000061ffff8416908102919091179091556040519081527f7019933d795eba185c180209e8ae8bffbaa25bcef293364687702c31f4d302c5906020015b60405180910390a150565b67ffffffffffffffff8086166000818152607260205260408082205493881682529020546060929115801590610d5a575081155b15610d91576040517f6818c29e00000000000000000000000000000000000000000000000000000000815260040160405180910390fd5b80610dc8576040517f66385b5100000000000000000000000000000000000000000000000000000000815260040160405180910390fd5b610dd1846126e2565b610e07576040517f176b913c00000000000000000000000000000000000000000000000000000000815260040160405180910390fd5b604080517fffffffffffffffffffffffffffffffffffffffff0000000000000000000000003360601b166020820152603481019690965260548601929092527fffffffffffffffff00000000000000000000000000000000000000000000000060c098891b811660748701527f0000000000000000000000000000000000000000000000000000000000000000891b8116607c8701527f0000000000000000000000000000000000000000000000000000000000000000891b81166084870152608c86019490945260ac85015260cc840194909452509290931b90911660ec830152805180830360d401815260f4909201905290565b60795467ffffffffffffffff82811660009081526078602052604081205490924292610f4192700100000000000000000000000000000000909204811691166158f0565b67ffffffffffffffff16111592915050565b607a5473ffffffffffffffffffffffffffffffffffffffff163314610fa4576040517f4755657900000000000000000000000000000000000000000000000000000000815260040160405180910390fd5b62093a8067ffffffffffffffff82161115610feb576040517f1d06e87900000000000000000000000000000000000000000000000000000000815260040160405180910390fd5b606f5460ff1661105a5760795467ffffffffffffffff780100000000000000000000000000000000000000000000000090910481169082161061105a576040517f401636df00000000000000000000000000000000000000000000000000000000815260040160405180910390fd5b6079805477ffffffffffffffffffffffffffffffffffffffffffffffff16780100000000000000000000000000000000000000000000000067ffffffffffffffff8416908102919091179091556040519081527f1f4fa24c2e4bad19a7f3ec5c5485f70d46c798461c2e684f55bbd0fc661373a190602001610d1b565b60745468010000000000000000900473ffffffffffffffffffffffffffffffffffffffff16331461117e57606f5460ff161561113f576040517f2f0047fc00000000000000000000000000000000000000000000000000000000815260040160405180910390fd5b61114881610efd565b61117e576040517f0ce9e4a200000000000000000000000000000000000000000000000000000000815260040160405180910390fd5b6111878161431e565b50565b607a5473ffffffffffffffffffffffffffffffffffffffff1633146111db576040517f4755657900000000000000000000000000000000000000000000000000000000815260040160405180910390fd5b62093a8067ffffffffffffffff82161115611222576040517ff5e37f2f00000000000000000000000000000000000000000000000000000000815260040160405180910390fd5b606f5460ff1661128d57607b5467ffffffffffffffff7401000000000000000000000000000000000000000090910481169082161061128d576040517ff5e37f2f00000000000000000000000000000000000000000000000000000000815260040160405180910390fd5b607b80547fffffffff0000000000000000ffffffffffffffffffffffffffffffffffffffff167401000000000000000000000000000000000000000067ffffffffffffffff8416908102919091179091556040519081527fa7eb6cb8a613eb4e8bddc1ac3d61ec6cf10898760f0b187bcca794c6ca6fa40b90602001610d1b565b606f5460ff161561134b576040517f2f0047fc00000000000000000000000000000000000000000000000000000000815260040160405180910390fd5b60795467ffffffffffffffff8681166000908152607260205260409020600101544292611398927801000000000000000000000000000000000000000000000000909104811691166158f0565b67ffffffffffffffff1611156113da576040517f8a0704d300000000000000000000000000000000000000000000000000000000815260040160405180910390fd5b6103e86113e78787615918565b67ffffffffffffffff161115611429576040517fb59f753a00000000000000000000000000000000000000000000000000000000815260040160405180910390fd5b61143887878787878787614531565b611441856148ea565b607954700100000000000000000000000000000000900467ffffffffffffffff1660000361158957607480547fffffffffffffffffffffffffffffffffffffffffffffffff00000000000000001667ffffffffffffffff878116918217909255600090815260756020526040902084905560795416156114e457607980547fffffffffffffffffffffffffffffffff000000000000000000000000000000001690555b6040517f33d6247d000000000000000000000000000000000000000000000000000000008152600481018590527f000000000000000000000000000000000000000000000000000000000000000073ffffffffffffffffffffffffffffffffffffffff16906333d6247d90602401600060405180830381600087803b15801561156c57600080fd5b505af1158015611580573d6000803e3d6000fd5b50505050611659565b611591614aca565b6079805467ffffffffffffffff169060006115ab83615939565b825467ffffffffffffffff9182166101009390930a92830292820219169190911790915560408051608081018252428316815288831660208083019182528284018a8152606084018a815260795487166000908152607890935294909120925183549251861668010000000000000000027fffffffffffffffffffffffffffffffff000000000000000000000000000000009093169516949094171781559151600183015551600290910155505b604051838152339067ffffffffffffffff8716907f9c72852172521097ba7e1482e6b44b351323df0155f97f4ea18fcec28e1f5966906020015b60405180910390a350505050505050565b60768054610b8d9061586e565b607a5473ffffffffffffffffffffffffffffffffffffffff163314611702576040517f4755657900000000000000000000000000000000000000000000000000000000815260040160405180910390fd5b607b547c0100000000000000000000000000000000000000000000000000000000900460ff1661175e576040517ff6ba91a100000000000000000000000000000000000000000000000000000000815260040160405180910390fd5b607b80547fffffff00ffffffffffffffffffffffffffffffffffffffffffffffffffffffff1690556040517f854dd6ce5a1445c4c54388b21cffd11cf5bba1b9e763aec48ce3da75d617412f90600090a1565b600060705460646117c29190615960565b905090565b607a5473ffffffffffffffffffffffffffffffffffffffff163314611818576040517f4755657900000000000000000000000000000000000000000000000000000000815260040160405180910390fd5b606f80547fff0000000000000000000000000000000000000000ffffffffffffffffffffff166b01000000000000000000000073ffffffffffffffffffffffffffffffffffffffff8416908102919091179091556040519081527ff54144f9611984021529f814a1cb6a41e22c58351510a0d9f7e822618abb9cc090602001610d1b565b6118a4614b7b565b6118ae6000614bfc565b565b60335473ffffffffffffffffffffffffffffffffffffffff163314611a185760006118d961276c565b90508067ffffffffffffffff168267ffffffffffffffff1611611928576040517f812a372d00000000000000000000000000000000000000000000000000000000815260040160405180910390fd5b60735467ffffffffffffffff680100000000000000009091048116908316118061196e575067ffffffffffffffff80831660009081526072602052604090206001015416155b156119a5576040517f98c5c01400000000000000000000000000000000000000000000000000000000815260040160405180910390fd5b67ffffffffffffffff80831660009081526072602052604090206001015442916119d49162093a8091166158f0565b67ffffffffffffffff161115611a16576040517fd257555a00000000000000000000000000000000000000000000000000000000815260040160405180910390fd5b505b611187614296565b607b5473ffffffffffffffffffffffffffffffffffffffff163314611a71576040517fd1ec4b2300000000000000000000000000000000000000000000000000000000815260040160405180910390fd5b607b54607a80547fffffffffffffffffffffffff00000000000000000000000000000000000000001673ffffffffffffffffffffffffffffffffffffffff90921691821790556040519081527f056dc487bbf0795d0bbb1b4f0af523a855503cff740bfb4d5475f7a90c091e8e9060200160405180910390a1565b6040517f70a08231000000000000000000000000000000000000000000000000000000008152306004820152600090819073ffffffffffffffffffffffffffffffffffffffff7f000000000000000000000000000000000000000000000000000000000000000016906370a0823190602401602060405180830381865afa158015611b7b573d6000803e3d6000fd5b505050506040513d601f19601f82011682018060405250810190611b9f919061597d565b90506000611bab61276c565b60735467ffffffffffffffff680100000000000000008204811691611c039170010000000000000000000000000000000082048116917801000000000000000000000000000000000000000000000000900416615918565b611c0d91906158f0565b611c179190615918565b67ffffffffffffffff16905080600003611c345760009250505090565b611c3e81836159c5565b9250505090565b607a5473ffffffffffffffffffffffffffffffffffffffff163314611c96576040517f4755657900000000000000000000000000000000000000000000000000000000815260040160405180910390fd5b62093a8067ffffffffffffffff82161115611cdd576040517fcc96507000000000000000000000000000000000000000000000000000000000815260040160405180910390fd5b606f5460ff16611d445760795467ffffffffffffffff700100000000000000000000000000000000909104811690821610611d44576040517f48a05a9000000000000000000000000000000000000000000000000000000000815260040160405180910390fd5b607980547fffffffffffffffff0000000000000000ffffffffffffffffffffffffffffffff1670010000000000000000000000000000000067ffffffffffffffff8416908102919091179091556040519081527fc4121f4e22c69632ebb7cf1f462be0511dc034f999b52013eddfb24aab765c7590602001610d1b565b607b547c0100000000000000000000000000000000000000000000000000000000900460ff1615611e1e576040517f24eff8c300000000000000000000000000000000000000000000000000000000815260040160405180910390fd5b606f5460ff1615611e5b576040517f2f0047fc00000000000000000000000000000000000000000000000000000000815260040160405180910390fd5b806000819003611e97576040517fcb591a5f00000000000000000000000000000000000000000000000000000000815260040160405180910390fd5b6103e8811115611ed3576040517fb59f753a00000000000000000000000000000000000000000000000000000000815260040160405180910390fd5b60735467ffffffffffffffff78010000000000000000000000000000000000000000000000008204811691611f1e9184917001000000000000000000000000000000009004166159d9565b1115611f56576040517fc630a00d00000000000000000000000000000000000000000000000000000000815260040160405180910390fd5b60735467ffffffffffffffff680100000000000000008204811660008181526072602052604081205491937001000000000000000000000000000000009004909216915b84811015612219576000878783818110611fb657611fb66159ec565b9050602002810190611fc89190615a1b565b611fd190615a59565b905083611fdd81615939565b825180516020918201208185015160408087015160608801519151959a5092955060009461204a948794929101938452602084019290925260c01b7fffffffffffffffff000000000000000000000000000000000000000000000000166040830152604882015260680190565b604080517fffffffffffffffffffffffffffffffffffffffffffffffffffffffffffffffe0818403018152918152815160209283012067ffffffffffffffff89166000908152607190935291205490915081146120d3576040517fce3d755e00000000000000000000000000000000000000000000000000000000815260040160405180910390fd5b67ffffffffffffffff86166000908152607160205260408120556120f8600189615af4565b84036121675742607b60149054906101000a900467ffffffffffffffff16846040015161212591906158f0565b67ffffffffffffffff161115612167576040517fc44a082100000000000000000000000000000000000000000000000000000000815260040160405180910390fd5b60208381015160408086015160608088015183519586018b90529285018790528481019390935260c01b7fffffffffffffffff0000000000000000000000000000000000000000000000001660808401523390911b7fffffffffffffffffffffffffffffffffffffffff000000000000000000000000166088830152609c82015260bc01604051602081830303815290604052805190602001209450505050808061221190615b07565b915050611f9a565b5061222484846158f0565b6040805160608101825283815267ffffffffffffffff4281166020808401918252607380546801000000000000000090819004851686880190815285891660008181526072909552888520975188559451600190970180549151871683027fffffffffffffffffffffffffffffffff0000000000000000000000000000000090921697871697909717179095558054938916700100000000000000000000000000000000027fffffffffffffffff0000000000000000ffffffffffffffffffffffffffffffff958402959095167fffffffffffffffff00000000000000000000000000000000ffffffffffffffff9094169390931793909317909155915192955090917f648a61dd2438f072f5a1960939abd30f37aea80d2e94c9792ad142d3e0a490a49190a2505050505050565b607a5473ffffffffffffffffffffffffffffffffffffffff1633146123a4576040517f4755657900000000000000000000000000000000000000000000000000000000815260040160405180910390fd5b620151808167ffffffffffffffff1611156123eb576040517fe067dfe800000000000000000000000000000000000000000000000000000000815260040160405180910390fd5b606f80547fffffffffffffffffffffffffffffffffffffffffffffff0000000000000000ff1661010067ffffffffffffffff8416908102919091179091556040519081527f1b023231a1ab6b5d93992f168fb44498e1a7e64cef58daff6f1c216de6a68c2890602001610d1b565b60745468010000000000000000900473ffffffffffffffffffffffffffffffffffffffff1633146124b6576040517fbbcbbc0500000000000000000000000000000000000000000000000000000000815260040160405180910390fd5b6124c587878787878787614531565b607480547fffffffffffffffffffffffffffffffffffffffffffffffff00000000000000001667ffffffffffffffff8781169182179092556000908152607560205260409020849055607954161561254057607980547fffffffffffffffffffffffffffffffff000000000000000000000000000000001690555b6040517f33d6247d000000000000000000000000000000000000000000000000000000008152600481018590527f000000000000000000000000000000000000000000000000000000000000000073ffffffffffffffffffffffffffffffffffffffff16906333d6247d90602401600060405180830381600087803b1580156125c857600080fd5b505af11580156125dc573d6000803e3d6000fd5b505060405185815233925067ffffffffffffffff881691507fcb339b570a7f0b25afa7333371ff11192092a0aeace12b671f4c212f2815c6fe90602001611693565b607a5473ffffffffffffffffffffffffffffffffffffffff16331461266f576040517f4755657900000000000000000000000000000000000000000000000000000000815260040160405180910390fd5b607b80547fffffffffffffffffffffffff00000000000000000000000000000000000000001673ffffffffffffffffffffffffffffffffffffffff83169081179091556040519081527fa5b56b7906fd0a20e3f35120dd8343db1e12e037a6c90111c7e42885e82a1ce690602001610d1b565b600067ffffffff0000000167ffffffffffffffff831610801561271a575067ffffffff00000001604083901c67ffffffffffffffff16105b801561273b575067ffffffff00000001608083901c67ffffffffffffffff16105b8015612752575067ffffffff0000000160c083901c105b1561275f57506001919050565b506000919050565b919050565b60795460009067ffffffffffffffff16156127b0575060795467ffffffffffffffff9081166000908152607860205260409020546801000000000000000090041690565b5060745467ffffffffffffffff1690565b607a5473ffffffffffffffffffffffffffffffffffffffff163314612812576040517f4755657900000000000000000000000000000000000000000000000000000000815260040160405180910390fd5b607661281e8282615b8d565b507f6b8f723a4c7a5335cafae8a598a0aa0301be1387c037dccc085b62add6448b2081604051610d1b91906153f5565b600054610100900460ff161580801561286e5750600054600160ff909116105b806128885750303b158015612888575060005460ff166001145b612919576040517f08c379a000000000000000000000000000000000000000000000000000000000815260206004820152602e60248201527f496e697469616c697a61626c653a20636f6e747261637420697320616c72656160448201527f647920696e697469616c697a656400000000000000000000000000000000000060648201526084015b60405180910390fd5b600080547fffffffffffffffffffffffffffffffffffffffffffffffffffffffffffffff00166001179055801561297757600080547fffffffffffffffffffffffffffffffffffffffffffffffffffffffffffff00ff166101001790555b6129846020880188615548565b607a80547fffffffffffffffffffffffff00000000000000000000000000000000000000001673ffffffffffffffffffffffffffffffffffffffff929092169190911790556129d96040880160208901615548565b606f805473ffffffffffffffffffffffffffffffffffffffff929092166b010000000000000000000000027fff0000000000000000000000000000000000000000ffffffffffffffffffffff909216919091179055612a3e6080880160608901615548565b6074805473ffffffffffffffffffffffffffffffffffffffff9290921668010000000000000000027fffffffff0000000000000000000000000000000000000000ffffffffffffffff9092169190911790556000805260756020527ff9e3fbf150b7a0077118526f473c53cb4734f166167e2c6213e3567dd390b4ad8690556076612ac98682615b8d565b506077612ad68582615b8d565b5062093a80612aeb6060890160408a01615480565b67ffffffffffffffff161115612b2d576040517fcc96507000000000000000000000000000000000000000000000000000000000815260040160405180910390fd5b612b3d6060880160408901615480565b6079805467ffffffffffffffff92909216700100000000000000000000000000000000027fffffffffffffffff0000000000000000ffffffffffffffffffffffffffffffff90921691909117905562093a80612b9f60a0890160808a01615480565b67ffffffffffffffff161115612be1576040517f1d06e87900000000000000000000000000000000000000000000000000000000815260040160405180910390fd5b612bf160a0880160808901615480565b6079805477ffffffffffffffffffffffffffffffffffffffffffffffff16780100000000000000000000000000000000000000000000000067ffffffffffffffff939093169290920291909117905567016345785d8a0000607055606f80547fffffffffffffffffffffffffffffffffffffffffff00000000000000000000ff166a03ea000000000000070800179055607b80547fffffff000000000000000000ffffffffffffffffffffffffffffffffffffffff167c0100000000000697800000000000000000000000000000000000000000179055612cd0614c73565b7fed7be53c9f1a96a481223b15568a5b1a475e01a74b347d6ca187c8bf0c078cd660007f00000000000000000000000000000000000000000000000000000000000000008585604051612d269493929190615cf0565b60405180910390a18015612d9157600080547fffffffffffffffffffffffffffffffffffffffffffffffffffffffffffff00ff169055604051600181527f7f26b83ff96e1f2b6a682f133852f6798a09c465da95921460cefb38474024989060200160405180910390a15b50505050505050565b607a5473ffffffffffffffffffffffffffffffffffffffff163314612deb576040517f4755657900000000000000000000000000000000000000000000000000000000815260040160405180910390fd5b7f000000000000000000000000000000000000000000000000000000000000000073ffffffffffffffffffffffffffffffffffffffff1663dbc169766040518163ffffffff1660e01b8152600401600060405180830381600087803b158015612e5357600080fd5b505af1158015612e67573d6000803e3d6000fd5b505050506118ae614d13565b60745468010000000000000000900473ffffffffffffffffffffffffffffffffffffffff163314612ed0576040517fbbcbbc0500000000000000000000000000000000000000000000000000000000815260040160405180910390fd5b612ee08888888888888888613e4e565b607480547fffffffffffffffffffffffffffffffffffffffffffffffff00000000000000001667ffffffffffffffff87811691821790925560009081526075602052604090208490556079541615612f5b57607980547fffffffffffffffffffffffffffffffff000000000000000000000000000000001690555b6040517f33d6247d000000000000000000000000000000000000000000000000000000008152600481018590527f000000000000000000000000000000000000000000000000000000000000000073ffffffffffffffffffffffffffffffffffffffff16906333d6247d90602401600060405180830381600087803b158015612fe357600080fd5b505af1158015612ff7573d6000803e3d6000fd5b50506079805477ffffffffffffffffffffffffffffffffffffffffffffffff167a093a800000000000000000000000000000000000000000000000001790555050604051838152339067ffffffffffffffff8716907fcc1b5520188bf1dd3e63f98164b577c4d75c11a619ddea692112f0d1aec4cf729060200160405180910390a35050505050505050565b607b547c0100000000000000000000000000000000000000000000000000000000900460ff16156130e0576040517f24eff8c300000000000000000000000000000000000000000000000000000000815260040160405180910390fd5b606f5460ff161561311d576040517f2f0047fc00000000000000000000000000000000000000000000000000000000815260040160405180910390fd5b60006131276117b1565b905081811115613163576040517f4732fdb500000000000000000000000000000000000000000000000000000000815260040160405180910390fd5b61138883111561319f576040517fa29a6c7c00000000000000000000000000000000000000000000000000000000815260040160405180910390fd5b6131e173ffffffffffffffffffffffffffffffffffffffff7f000000000000000000000000000000000000000000000000000000000000000016333084614da2565b7f000000000000000000000000000000000000000000000000000000000000000073ffffffffffffffffffffffffffffffffffffffff166379e2cf976040518163ffffffff1660e01b8152600401600060405180830381600087803b15801561324957600080fd5b505af115801561325d573d6000803e3d6000fd5b5050505060007f000000000000000000000000000000000000000000000000000000000000000073ffffffffffffffffffffffffffffffffffffffff16633ed691ef6040518163ffffffff1660e01b8152600401602060405180830381865afa1580156132ce573d6000803e3d6000fd5b505050506040513d601f19601f820116820180604052508101906132f2919061597d565b60738054919250780100000000000000000000000000000000000000000000000090910467ffffffffffffffff1690601861332c83615939565b91906101000a81548167ffffffffffffffff021916908367ffffffffffffffff160217905550508484604051613363929190615d28565b6040519081900390208142613379600143615af4565b60408051602081019590955284019290925260c01b7fffffffffffffffff000000000000000000000000000000000000000000000000166060830152406068820152608801604080518083037fffffffffffffffffffffffffffffffffffffffffffffffffffffffffffffffe001815291815281516020928301206073547801000000000000000000000000000000000000000000000000900467ffffffffffffffff16600090815260719093529120553233036134ac57607354604080518381523360208201526060918101829052600091810191909152780100000000000000000000000000000000000000000000000090910467ffffffffffffffff16907ff94bb37db835f1ab585ee00041849a09b12cd081d77fa15ca070757619cbc9319060800160405180910390a261350b565b607360189054906101000a900467ffffffffffffffff1667ffffffffffffffff167ff94bb37db835f1ab585ee00041849a09b12cd081d77fa15ca070757619cbc931823388886040516135029493929190615d38565b60405180910390a25b5050505050565b606f5460ff161561354f576040517f2f0047fc00000000000000000000000000000000000000000000000000000000815260040160405180910390fd5b606f546b010000000000000000000000900473ffffffffffffffffffffffffffffffffffffffff1633146135af576040517f11e7be1500000000000000000000000000000000000000000000000000000000815260040160405180910390fd5b8160008190036135eb576040517fcb591a5f00000000000000000000000000000000000000000000000000000000815260040160405180910390fd5b6103e8811115613627576040517fb59f753a00000000000000000000000000000000000000000000000000000000815260040160405180910390fd5b7f000000000000000000000000000000000000000000000000000000000000000073ffffffffffffffffffffffffffffffffffffffff166379e2cf976040518163ffffffff1660e01b8152600401600060405180830381600087803b15801561368f57600080fd5b505af11580156136a3573d6000803e3d6000fd5b5050505060007f000000000000000000000000000000000000000000000000000000000000000073ffffffffffffffffffffffffffffffffffffffff16635ca1e1656040518163ffffffff1660e01b8152600401602060405180830381865afa158015613714573d6000803e3d6000fd5b505050506040513d601f19601f82011682018060405250810190613738919061597d565b60735467ffffffffffffffff68010000000000000000820481166000818152607260205260408120549495504294919370010000000000000000000000000000000090049092169182905b87811015613a855760008b8b8381811061379f5761379f6159ec565b90506020028101906137b19190615a1b565b6137ba90615a59565b8051805160209091012060408201519192509067ffffffffffffffff161561399f57856137e681615939565b9650506000818360200151846040015185606001516040516020016138499493929190938452602084019290925260c01b7fffffffffffffffff000000000000000000000000000000000000000000000000166040830152604882015260680190565b604080517fffffffffffffffffffffffffffffffffffffffffffffffffffffffffffffffe0818403018152918152815160209283012067ffffffffffffffff8a166000908152607190935291205490915081146138d2576040517fce3d755e00000000000000000000000000000000000000000000000000000000815260040160405180910390fd5b60208381015160408086015160608088015183519586018c90529285018790528481019390935260c01b7fffffffffffffffff000000000000000000000000000000000000000000000000166080840152908e901b7fffffffffffffffffffffffffffffffffffffffff000000000000000000000000166088830152609c82015260bc01604051602081830303815290604052805190602001209550607160008867ffffffffffffffff1667ffffffffffffffff1681526020019081526020016000206000905550613a70565b8151516201d4c010156139de576040517fa29a6c7c00000000000000000000000000000000000000000000000000000000815260040160405180910390fd5b604080516020810187905290810182905260608082018b905260c08a901b7fffffffffffffffff0000000000000000000000000000000000000000000000001660808301528c901b7fffffffffffffffffffffffffffffffffffffffff0000000000000000000000001660888201526000609c82015260bc016040516020818303038152906040528051906020012094505b50508080613a7d90615b07565b915050613783565b50613a9087856158f0565b60735490945067ffffffffffffffff780100000000000000000000000000000000000000000000000090910481169084161115613af9576040517fc630a00d00000000000000000000000000000000000000000000000000000000815260040160405180910390fd5b604080516060810182528381524267ffffffffffffffff908116602080840191825260738054680100000000000000009081900485168688019081528b861660008181526072909552979093209551865592516001909501805492519585167fffffffffffffffffffffffffffffffff0000000000000000000000000000000090931692909217948416830294909417905582547fffffffffffffffffffffffffffffffff0000000000000000ffffffffffffffff169302929092179055879082811690851614613c2c57613bce8285615918565b613be29067ffffffffffffffff1682615af4565b607380547fffffffffffffffff0000000000000000ffffffffffffffffffffffffffffffff1670010000000000000000000000000000000067ffffffffffffffff88160217905590505b613c7e333083607054613c3f9190615960565b73ffffffffffffffffffffffffffffffffffffffff7f000000000000000000000000000000000000000000000000000000000000000016929190614da2565b613c86614aca565b60405167ffffffffffffffff8616907f303446e6a8cb73c83dff421c0b1d5e5ce0719dab1bff13660fc254e58cc17fce90600090a25050505050505050505050565b607a5473ffffffffffffffffffffffffffffffffffffffff163314613d19576040517f4755657900000000000000000000000000000000000000000000000000000000815260040160405180910390fd5b607480547fffffffff0000000000000000000000000000000000000000ffffffffffffffff166801000000000000000073ffffffffffffffffffffffffffffffffffffffff8416908102919091179091556040519081527f61f8fec29495a3078e9271456f05fb0707fd4e41f7661865f80fc437d06681ca90602001610d1b565b613da2614b7b565b73ffffffffffffffffffffffffffffffffffffffff8116613e45576040517f08c379a000000000000000000000000000000000000000000000000000000000815260206004820152602660248201527f4f776e61626c653a206e6577206f776e657220697320746865207a65726f206160448201527f64647265737300000000000000000000000000000000000000000000000000006064820152608401612910565b61118781614bfc565b600067ffffffffffffffff891615613f1c5760795467ffffffffffffffff908116908a161115613eaa576040517fbb14c20500000000000000000000000000000000000000000000000000000000815260040160405180910390fd5b5067ffffffffffffffff8089166000908152607860205260409020600281015481549092898116680100000000000000009092041614613f16576040517f2bd2e3e700000000000000000000000000000000000000000000000000000000815260040160405180910390fd5b50613fb8565b5067ffffffffffffffff861660009081526075602052604090205480613f6e576040517f4997b98600000000000000000000000000000000000000000000000000000000815260040160405180910390fd5b60745467ffffffffffffffff9081169088161115613fb8576040517f1e56e9e200000000000000000000000000000000000000000000000000000000815260040160405180910390fd5b60795467ffffffffffffffff9081169089161180613fea57508867ffffffffffffffff168867ffffffffffffffff1611155b80614011575060795467ffffffffffffffff68010000000000000000909104811690891611155b15614048576040517fbfa7079f00000000000000000000000000000000000000000000000000000000815260040160405180910390fd5b67ffffffffffffffff8881166000908152607860205260409020546801000000000000000090048116908716146140ab576040517f32a2a77f00000000000000000000000000000000000000000000000000000000815260040160405180910390fd5b60006140ba8888888589610d26565b905060007f30644e72e131a029b85045b68181585d2833e84879b9709143e1f593f00000016002836040516140ef9190615d6e565b602060405180830381855afa15801561410c573d6000803e3d6000fd5b5050506040513d601f19601f8201168201806040525081019061412f919061597d565b6141399190615d80565b6040805160208101825282815290517f8d8f8a5c00000000000000000000000000000000000000000000000000000000815291925073ffffffffffffffffffffffffffffffffffffffff7f00000000000000000000000000000000000000000000000000000000000000001691638d8f8a5c916141bc9189918991600401615d94565b602060405180830381865afa1580156141d9573d6000803e3d6000fd5b505050506040513d601f19601f820116820180604052508101906141fd9190615ddc565b614233576040517f09bde33900000000000000000000000000000000000000000000000000000000815260040160405180910390fd5b67ffffffffffffffff8a16600090815260786020526040902060020154869003614289576040517fa47276bd00000000000000000000000000000000000000000000000000000000815260040160405180910390fd5b5050505050505050505050565b7f000000000000000000000000000000000000000000000000000000000000000073ffffffffffffffffffffffffffffffffffffffff16632072f6c56040518163ffffffff1660e01b8152600401600060405180830381600087803b1580156142fe57600080fd5b505af1158015614312573d6000803e3d6000fd5b505050506118ae614e84565b60795467ffffffffffffffff680100000000000000009091048116908216111580614358575060795467ffffffffffffffff908116908216115b1561438f576040517fd086b70b00000000000000000000000000000000000000000000000000000000815260040160405180910390fd5b67ffffffffffffffff818116600081815260786020908152604080832080546074805468010000000000000000928390049098167fffffffffffffffffffffffffffffffffffffffffffffffff000000000000000090981688179055600282015487865260759094529382902092909255607980547fffffffffffffffffffffffffffffffff0000000000000000ffffffffffffffff169390940292909217909255600182015490517f33d6247d00000000000000000000000000000000000000000000000000000000815260048101919091529091907f000000000000000000000000000000000000000000000000000000000000000073ffffffffffffffffffffffffffffffffffffffff16906333d6247d90602401600060405180830381600087803b1580156144c157600080fd5b505af11580156144d5573d6000803e3d6000fd5b505050508267ffffffffffffffff168167ffffffffffffffff167f328d3c6c0fd6f1be0515e422f2d87e59f25922cbc2233568515a0c4bc3f8510e846002015460405161452491815260200190565b60405180910390a3505050565b60008061453c61276c565b905067ffffffffffffffff89161561460c5760795467ffffffffffffffff908116908a161115614598576040517fbb14c20500000000000000000000000000000000000000000000000000000000815260040160405180910390fd5b67ffffffffffffffff808a1660009081526078602052604090206002810154815490945090918a8116680100000000000000009092041614614606576040517f2bd2e3e700000000000000000000000000000000000000000000000000000000815260040160405180910390fd5b506146ad565b67ffffffffffffffff881660009081526075602052604090205491508161465f576040517f4997b98600000000000000000000000000000000000000000000000000000000815260040160405180910390fd5b8067ffffffffffffffff168867ffffffffffffffff1611156146ad576040517f1e56e9e200000000000000000000000000000000000000000000000000000000815260040160405180910390fd5b8067ffffffffffffffff168767ffffffffffffffff16116146fa576040517fb9b18f5700000000000000000000000000000000000000000000000000000000815260040160405180910390fd5b6000614709898989868a610d26565b905060007f30644e72e131a029b85045b68181585d2833e84879b9709143e1f593f000000160028360405161473e9190615d6e565b602060405180830381855afa15801561475b573d6000803e3d6000fd5b5050506040513d601f19601f8201168201806040525081019061477e919061597d565b6147889190615d80565b6040805160208101825282815290517f8d8f8a5c00000000000000000000000000000000000000000000000000000000815291925073ffffffffffffffffffffffffffffffffffffffff7f00000000000000000000000000000000000000000000000000000000000000001691638d8f8a5c9161480b918a918a91600401615d94565b602060405180830381865afa158015614828573d6000803e3d6000fd5b505050506040513d601f19601f8201168201806040525081019061484c9190615ddc565b614882576040517f09bde33900000000000000000000000000000000000000000000000000000000815260040160405180910390fd5b61428933614890858c615918565b67ffffffffffffffff166148a2611aec565b6148ac9190615960565b73ffffffffffffffffffffffffffffffffffffffff7f0000000000000000000000000000000000000000000000000000000000000000169190614f17565b60006148f461276c565b9050816000806149048484615918565b606f5467ffffffffffffffff91821692506000916149289161010090041642615af4565b90505b8467ffffffffffffffff168467ffffffffffffffff16146149b35767ffffffffffffffff8085166000908152607260205260409020600181015490911682101561499157600181015468010000000000000000900467ffffffffffffffff1694506149ad565b61499b8686615918565b67ffffffffffffffff169350506149b3565b5061492b565b60006149bf8484615af4565b905083811015614a1657808403600c81116149da57806149dd565b600c5b9050806103e80a81606f60099054906101000a900461ffff1661ffff160a6070540281614a0c57614a0c615996565b0460705550614a86565b838103600c8111614a275780614a2a565b600c5b90506000816103e80a82606f60099054906101000a900461ffff1661ffff160a670de0b6b3a76400000281614a6157614a61615996565b04905080607054670de0b6b3a76400000281614a7f57614a7f615996565b0460705550505b683635c9adc5dea000006070541115614aab57683635c9adc5dea00000607055612d91565b633b9aca006070541015612d9157633b9aca0060705550505050505050565b60795467ffffffffffffffff6801000000000000000082048116911611156118ae57607954600090614b139068010000000000000000900467ffffffffffffffff1660016158f0565b9050614b1e81610efd565b1561118757607954600090600290614b4190849067ffffffffffffffff16615918565b614b4b9190615dfe565b614b5590836158f0565b9050614b6081610efd565b15614b7257614b6e8161431e565b5050565b614b6e8261431e565b60335473ffffffffffffffffffffffffffffffffffffffff1633146118ae576040517f08c379a000000000000000000000000000000000000000000000000000000000815260206004820181905260248201527f4f776e61626c653a2063616c6c6572206973206e6f7420746865206f776e65726044820152606401612910565b6033805473ffffffffffffffffffffffffffffffffffffffff8381167fffffffffffffffffffffffff0000000000000000000000000000000000000000831681179093556040519116919082907f8be0079c531659141344cd1fd0a4f28419497f9722a3daafe3b4186f6b6457e090600090a35050565b600054610100900460ff16614d0a576040517f08c379a000000000000000000000000000000000000000000000000000000000815260206004820152602b60248201527f496e697469616c697a61626c653a20636f6e7472616374206973206e6f74206960448201527f6e697469616c697a696e670000000000000000000000000000000000000000006064820152608401612910565b6118ae33614bfc565b606f5460ff16614d4f576040517f5386698100000000000000000000000000000000000000000000000000000000815260040160405180910390fd5b606f80547fffffffffffffffffffffffffffffffffffffffffffffffffffffffffffffff001690556040517f1e5e34eea33501aecf2ebec9fe0e884a40804275ea7fe10b2ba084c8374308b390600090a1565b60405173ffffffffffffffffffffffffffffffffffffffff80851660248301528316604482015260648101829052614e7e9085907f23b872dd00000000000000000000000000000000000000000000000000000000906084015b604080517fffffffffffffffffffffffffffffffffffffffffffffffffffffffffffffffe08184030181529190526020810180517bffffffffffffffffffffffffffffffffffffffffffffffffffffffff167fffffffff0000000000000000000000000000000000000000000000000000000090931692909217909152614f72565b50505050565b606f5460ff1615614ec1576040517f2f0047fc00000000000000000000000000000000000000000000000000000000815260040160405180910390fd5b606f80547fffffffffffffffffffffffffffffffffffffffffffffffffffffffffffffff001660011790556040517f2261efe5aef6fedc1fd1550b25facc9181745623049c7901287030b9ad1a549790600090a1565b60405173ffffffffffffffffffffffffffffffffffffffff8316602482015260448101829052614f6d9084907fa9059cbb0000000000000000000000000000000000000000000000000000000090606401614dfc565b505050565b6000614fd4826040518060400160405280602081526020017f5361666545524332303a206c6f772d6c6576656c2063616c6c206661696c65648152508573ffffffffffffffffffffffffffffffffffffffff1661507e9092919063ffffffff16565b805190915015614f6d5780806020019051810190614ff29190615ddc565b614f6d576040517f08c379a000000000000000000000000000000000000000000000000000000000815260206004820152602a60248201527f5361666545524332303a204552433230206f7065726174696f6e20646964206e60448201527f6f742073756363656564000000000000000000000000000000000000000000006064820152608401612910565b606061508d8484600085615095565b949350505050565b606082471015615127576040517f08c379a000000000000000000000000000000000000000000000000000000000815260206004820152602660248201527f416464726573733a20696e73756666696369656e742062616c616e636520666f60448201527f722063616c6c00000000000000000000000000000000000000000000000000006064820152608401612910565b6000808673ffffffffffffffffffffffffffffffffffffffff1685876040516151509190615d6e565b60006040518083038185875af1925050503d806000811461518d576040519150601f19603f3d011682016040523d82523d6000602084013e615192565b606091505b50915091506151a3878383876151ae565b979650505050505050565b6060831561524457825160000361523d5773ffffffffffffffffffffffffffffffffffffffff85163b61523d576040517f08c379a000000000000000000000000000000000000000000000000000000000815260206004820152601d60248201527f416464726573733a2063616c6c20746f206e6f6e2d636f6e74726163740000006044820152606401612910565b508161508d565b61508d83838151156152595781518083602001fd5b806040517f08c379a000000000000000000000000000000000000000000000000000000000815260040161291091906153f5565b803567ffffffffffffffff8116811461276757600080fd5b60008083601f8401126152b757600080fd5b50813567ffffffffffffffff8111156152cf57600080fd5b6020830191508360208285010111156152e757600080fd5b9250929050565b60008060008060008060008060e0898b03121561530a57600080fd5b6153138961528d565b975061532160208a0161528d565b965061532f60408a0161528d565b955061533d60608a0161528d565b94506080890135935060a0890135925060c089013567ffffffffffffffff81111561536757600080fd5b6153738b828c016152a5565b999c989b5096995094979396929594505050565b60005b838110156153a257818101518382015260200161538a565b50506000910152565b600081518084526153c3816020860160208601615387565b601f017fffffffffffffffffffffffffffffffffffffffffffffffffffffffffffffffe0169290920160200192915050565b60208152600061540860208301846153ab565b9392505050565b60006020828403121561542157600080fd5b813561ffff8116811461540857600080fd5b600080600080600060a0868803121561544b57600080fd5b6154548661528d565b94506154626020870161528d565b94979496505050506040830135926060810135926080909101359150565b60006020828403121561549257600080fd5b6154088261528d565b600080600080600080600060c0888a0312156154b657600080fd5b6154bf8861528d565b96506154cd6020890161528d565b95506154db6040890161528d565b9450606088013593506080880135925060a088013567ffffffffffffffff81111561550557600080fd5b6155118a828b016152a5565b989b979a50959850939692959293505050565b803573ffffffffffffffffffffffffffffffffffffffff8116811461276757600080fd5b60006020828403121561555a57600080fd5b61540882615524565b60006020828403121561557557600080fd5b5035919050565b60008083601f84011261558e57600080fd5b50813567ffffffffffffffff8111156155a657600080fd5b6020830191508360208260051b85010111156152e757600080fd5b600080602083850312156155d457600080fd5b823567ffffffffffffffff8111156155eb57600080fd5b6155f78582860161557c565b90969095509350505050565b7f4e487b7100000000000000000000000000000000000000000000000000000000600052604160045260246000fd5b600067ffffffffffffffff8084111561564d5761564d615603565b604051601f85017fffffffffffffffffffffffffffffffffffffffffffffffffffffffffffffffe0908116603f0116810190828211818310171561569357615693615603565b816040528093508581528686860111156156ac57600080fd5b858560208301376000602087830101525050509392505050565b600082601f8301126156d757600080fd5b61540883833560208501615632565b6000602082840312156156f857600080fd5b813567ffffffffffffffff81111561570f57600080fd5b61508d848285016156c6565b60008060008060008086880361012081121561573657600080fd5b60a081121561574457600080fd5b5086955060a0870135945060c087013567ffffffffffffffff8082111561576a57600080fd5b6157768a838b016156c6565b955060e089013591508082111561578c57600080fd5b6157988a838b016156c6565b94506101008901359150808211156157af57600080fd5b506157bc89828a016152a5565b979a9699509497509295939492505050565b6000806000604084860312156157e357600080fd5b833567ffffffffffffffff8111156157fa57600080fd5b615806868287016152a5565b909790965060209590950135949350505050565b60008060006040848603121561582f57600080fd5b833567ffffffffffffffff81111561584657600080fd5b6158528682870161557c565b9094509250615865905060208501615524565b90509250925092565b600181811c9082168061588257607f821691505b6020821081036158bb577f4e487b7100000000000000000000000000000000000000000000000000000000600052602260045260246000fd5b50919050565b7f4e487b7100000000000000000000000000000000000000000000000000000000600052601160045260246000fd5b67ffffffffffffffff818116838216019080821115615911576159116158c1565b5092915050565b67ffffffffffffffff828116828216039080821115615911576159116158c1565b600067ffffffffffffffff808316818103615956576159566158c1565b6001019392505050565b8082028115828204841417615977576159776158c1565b92915050565b60006020828403121561598f57600080fd5b5051919050565b7f4e487b7100000000000000000000000000000000000000000000000000000000600052601260045260246000fd5b6000826159d4576159d4615996565b500490565b80820180821115615977576159776158c1565b7f4e487b7100000000000000000000000000000000000000000000000000000000600052603260045260246000fd5b600082357fffffffffffffffffffffffffffffffffffffffffffffffffffffffffffffff81833603018112615a4f57600080fd5b9190910192915050565b600060808236031215615a6b57600080fd5b6040516080810167ffffffffffffffff8282108183111715615a8f57615a8f615603565b816040528435915080821115615aa457600080fd5b50830136601f820112615ab657600080fd5b615ac536823560208401615632565b82525060208301356020820152615ade6040840161528d565b6040820152606092830135928101929092525090565b81810381811115615977576159776158c1565b60007fffffffffffffffffffffffffffffffffffffffffffffffffffffffffffffffff8203615b3857615b386158c1565b5060010190565b601f821115614f6d57600081815260208120601f850160051c81016020861015615b665750805b601f850160051c820191505b81811015615b8557828155600101615b72565b505050505050565b815167ffffffffffffffff811115615ba757615ba7615603565b615bbb81615bb5845461586e565b84615b3f565b602080601f831160018114615c0e5760008415615bd85750858301515b7fffffffffffffffffffffffffffffffffffffffffffffffffffffffffffffffff600386901b1c1916600185901b178555615b85565b6000858152602081207fffffffffffffffffffffffffffffffffffffffffffffffffffffffffffffffe08616915b82811015615c5b57888601518255948401946001909101908401615c3c565b5085821015615c9757878501517fffffffffffffffffffffffffffffffffffffffffffffffffffffffffffffffff600388901b60f8161c191681555b5050505050600190811b01905550565b8183528181602085013750600060208284010152600060207fffffffffffffffffffffffffffffffffffffffffffffffffffffffffffffffe0601f840116840101905092915050565b600067ffffffffffffffff808716835280861660208401525060606040830152615d1e606083018486615ca7565b9695505050505050565b8183823760009101908152919050565b84815273ffffffffffffffffffffffffffffffffffffffff84166020820152606060408201526000615d1e606083018486615ca7565b60008251615a4f818460208701615387565b600082615d8f57615d8f615996565b500690565b604081526000615da8604083018587615ca7565b905060208083018460005b6001811015615dd057815183529183019190830190600101615db3565b50505050949350505050565b600060208284031215615dee57600080fd5b8151801515811461540857600080fd5b600067ffffffffffffffff80841680615e1957615e19615996565b9216919091049291505056fea26469706673582212200147996a5bb505d5acaa3cd03f9ed70f885d7c4ec69a8fd043515cd698a861c064736f6c63430008110033",
  "linkReferences": {},
  "deployedLinkReferences": {}
}