{
  "_format": "hh-sol-artifact-1",
  "contractName": "PolygonZkEVMGlobalExitRoot",
  "sourceName": "contracts/PolygonZkEVMGlobalExitRoot.sol",
  "abi": [
    {
      "inputs": [
        {
          "internalType": "address",
          "name": "_rollupAddress",
          "type": "address"
        },
        {
          "internalType": "address",
          "name": "_bridgeAddress",
          "type": "address"
        }
      ],
      "stateMutability": "nonpayable",
      "type": "constructor"
    },
    {
      "anonymous": false,
      "inputs": [
        {
          "indexed": true,
          "internalType": "bytes32",
          "name": "mainnetExitRoot",
          "type": "bytes32"
        },
        {
          "indexed": true,
          "internalType": "bytes32",
          "name": "rollupExitRoot",
          "type": "bytes32"
        }
      ],
      "name": "UpdateGlobalExitRoot",
      "type": "event"
    },
    {
      "inputs": [],
      "name": "bridgeAddress",
      "outputs": [
        {
          "internalType": "address",
          "name": "",
          "type": "address"
        }
      ],
      "stateMutability": "view",
      "type": "function"
    },
    {
      "inputs": [],
      "name": "getLastGlobalExitRoot",
      "outputs": [
        {
          "internalType": "bytes32",
          "name": "",
          "type": "bytes32"
        }
      ],
      "stateMutability": "view",
      "type": "function"
    },
    {
      "inputs": [
        {
          "internalType": "bytes32",
          "name": "",
          "type": "bytes32"
        }
      ],
      "name": "globalExitRootMap",
      "outputs": [
        {
          "internalType": "uint256",
          "name": "",
          "type": "uint256"
        }
      ],
      "stateMutability": "view",
      "type": "function"
    },
    {
      "inputs": [],
      "name": "lastMainnetExitRoot",
      "outputs": [
        {
          "internalType": "bytes32",
          "name": "",
          "type": "bytes32"
        }
      ],
      "stateMutability": "view",
      "type": "function"
    },
    {
      "inputs": [],
      "name": "lastRollupExitRoot",
      "outputs": [
        {
          "internalType": "bytes32",
          "name": "",
          "type": "bytes32"
        }
      ],
      "stateMutability": "view",
      "type": "function"
    },
    {
      "inputs": [],
      "name": "rollupAddress",
      "outputs": [
        {
          "internalType": "address",
          "name": "",
          "type": "address"
        }
      ],
      "stateMutability": "view",
      "type": "function"
    },
    {
      "inputs": [
        {
          "internalType": "bytes32",
          "name": "newRoot",
          "type": "bytes32"
        }
      ],
      "name": "updateExitRoot",
      "outputs": [],
      "stateMutability": "nonpayable",
      "type": "function"
    }
  ],
  "bytecode": "0x60c060405234801561001057600080fd5b5060405161046738038061046783398101604081905261002f91610062565b6001600160a01b0391821660a05216608052610095565b80516001600160a01b038116811461005d57600080fd5b919050565b6000806040838503121561007557600080fd5b61007e83610046565b915061008c60208401610046565b90509250929050565b60805160a0516103916100d66000396000818161010901528181610175015261025a015260008181610148015281816101a7015261029301526103916000f3fe608060405234801561001057600080fd5b506004361061006d5760003560e01c806301fd904414610072578063257b36321461008e578063319cf735146100ae57806333d6247d146100b75780633ed691ef146100cc5780635ec6a8df14610104578063a3c573eb14610143575b600080fd5b61007b60005481565b6040519081526020015b60405180910390f35b61007b61009c366004610342565b60026020526000908152604090205481565b61007b60015481565b6100ca6100c5366004610342565b61016a565b005b61007b600154600080546040805160208101949094528301529060600160405160208183030381529060405280519060200120905090565b61012b7f000000000000000000000000000000000000000000000000000000000000000081565b6040516001600160a01b039091168152602001610085565b61012b7f000000000000000000000000000000000000000000000000000000000000000081565b336001600160a01b037f00000000000000000000000000000000000000000000000000000000000000001614806101c95750336001600160a01b037f000000000000000000000000000000000000000000000000000000000000000016145b61024a5760405162461bcd60e51b815260206004820152604260248201527f506f6c79676f6e5a6b45564d476c6f62616c45786974526f6f743a3a7570646160448201527f746545786974526f6f743a204f6e6c7920616c6c6f77656420636f6e74726163606482015261747360f01b608482015260a40160405180910390fd5b6000546001546001600160a01b037f00000000000000000000000000000000000000000000000000000000000000001633036102895760008390558291505b6001600160a01b037f00000000000000000000000000000000000000000000000000000000000000001633036102c157506001829055815b604080516020808201849052818301859052825180830384018152606090920183528151918101919091206000818152600290925291812054900361033c5760008181526002602052604080822042905551849184917f61014378f82a0d809aefaf87a8ac9505b89c321808287a6e7810f29304c1fce39190a35b50505050565b60006020828403121561035457600080fd5b503591905056fea2646970667358221220a22e59db918bb07908f4167596d0dd0a63da9af185c2faee88cbee759f2af04564736f6c634300080f0033",
  "linkReferences": {},
  "deployedLinkReferences": {}
}