{
  "_format": "hh-sol-artifact-1",
  "contractName": "PolygonZkEVMBridge",
  "sourceName": "contracts/PolygonZkEVMBridge.sol",
  "abi": [
    {
      "inputs": [],
      "name": "AlreadyClaimed",
      "type": "error"
    },
    {
      "inputs": [],
      "name": "AmountDoesNotMatchMsgValue",
      "type": "error"
    },
    {
      "inputs": [],
      "name": "DestinationNetworkInvalid",
      "type": "error"
    },
    {
      "inputs": [],
      "name": "EtherTransferFailed",
      "type": "error"
    },
    {
      "inputs": [],
      "name": "GlobalExitRootInvalid",
      "type": "error"
    },
    {
      "inputs": [],
      "name": "InvalidSmtProof",
      "type": "error"
    },
    {
      "inputs": [],
      "name": "MerkleTreeFull",
      "type": "error"
    },
    {
      "inputs": [],
      "name": "MessageFailed",
      "type": "error"
    },
    {
      "inputs": [],
      "name": "MsgValueNotZero",
      "type": "error"
    },
    {
      "inputs": [],
      "name": "NotValidAmount",
      "type": "error"
    },
    {
      "inputs": [],
      "name": "NotValidOwner",
      "type": "error"
    },
    {
      "inputs": [],
      "name": "NotValidSignature",
      "type": "error"
    },
    {
      "inputs": [],
      "name": "NotValidSpender",
      "type": "error"
    },
    {
      "inputs": [],
      "name": "OnlyEmergencyState",
      "type": "error"
    },
    {
      "inputs": [],
      "name": "OnlyNotEmergencyState",
      "type": "error"
    },
    {
      "inputs": [],
      "name": "OnlyPolygonZkEVM",
      "type": "error"
    },
    {
      "anonymous": false,
      "inputs": [
        {
          "indexed": false,
          "internalType": "uint8",
          "name": "leafType",
          "type": "uint8"
        },
        {
          "indexed": false,
          "internalType": "uint32",
          "name": "originNetwork",
          "type": "uint32"
        },
        {
          "indexed": false,
          "internalType": "address",
          "name": "originAddress",
          "type": "address"
        },
        {
          "indexed": false,
          "internalType": "uint32",
          "name": "destinationNetwork",
          "type": "uint32"
        },
        {
          "indexed": false,
          "internalType": "address",
          "name": "destinationAddress",
          "type": "address"
        },
        {
          "indexed": false,
          "internalType": "uint256",
          "name": "amount",
          "type": "uint256"
        },
        {
          "indexed": false,
          "internalType": "bytes",
          "name": "metadata",
          "type": "bytes"
        },
        {
          "indexed": false,
          "internalType": "uint32",
          "name": "depositCount",
          "type": "uint32"
        }
      ],
      "name": "BridgeEvent",
      "type": "event"
    },
    {
      "anonymous": false,
      "inputs": [
        {
          "indexed": false,
          "internalType": "uint32",
          "name": "index",
          "type": "uint32"
        },
        {
          "indexed": false,
          "internalType": "uint32",
          "name": "originNetwork",
          "type": "uint32"
        },
        {
          "indexed": false,
          "internalType": "address",
          "name": "originAddress",
          "type": "address"
        },
        {
          "indexed": false,
          "internalType": "address",
          "name": "destinationAddress",
          "type": "address"
        },
        {
          "indexed": false,
          "internalType": "uint256",
          "name": "amount",
          "type": "uint256"
        }
      ],
      "name": "ClaimEvent",
      "type": "event"
    },
    {
      "anonymous": false,
      "inputs": [],
      "name": "EmergencyStateActivated",
      "type": "event"
    },
    {
      "anonymous": false,
      "inputs": [],
      "name": "EmergencyStateDeactivated",
      "type": "event"
    },
    {
      "anonymous": false,
      "inputs": [
        {
          "indexed": false,
          "internalType": "uint8",
          "name": "version",
          "type": "uint8"
        }
      ],
      "name": "Initialized",
      "type": "event"
    },
    {
      "anonymous": false,
      "inputs": [
        {
          "indexed": false,
          "internalType": "uint32",
          "name": "originNetwork",
          "type": "uint32"
        },
        {
          "indexed": false,
          "internalType": "address",
          "name": "originTokenAddress",
          "type": "address"
        },
        {
          "indexed": false,
          "internalType": "address",
          "name": "wrappedTokenAddress",
          "type": "address"
        },
        {
          "indexed": false,
          "internalType": "bytes",
          "name": "metadata",
          "type": "bytes"
        }
      ],
      "name": "NewWrappedToken",
      "type": "event"
    },
    {
      "inputs": [],
      "name": "activateEmergencyState",
      "outputs": [],
      "stateMutability": "nonpayable",
      "type": "function"
    },
    {
      "inputs": [
        {
          "internalType": "address",
          "name": "token",
          "type": "address"
        },
        {
          "internalType": "uint32",
          "name": "destinationNetwork",
          "type": "uint32"
        },
        {
          "internalType": "address",
          "name": "destinationAddress",
          "type": "address"
        },
        {
          "internalType": "uint256",
          "name": "amount",
          "type": "uint256"
        },
        {
          "internalType": "bytes",
          "name": "permitData",
          "type": "bytes"
        }
      ],
      "name": "bridgeAsset",
      "outputs": [],
      "stateMutability": "payable",
      "type": "function"
    },
    {
      "inputs": [
        {
          "internalType": "uint32",
          "name": "destinationNetwork",
          "type": "uint32"
        },
        {
          "internalType": "address",
          "name": "destinationAddress",
          "type": "address"
        },
        {
          "internalType": "bytes",
          "name": "metadata",
          "type": "bytes"
        }
      ],
      "name": "bridgeMessage",
      "outputs": [],
      "stateMutability": "payable",
      "type": "function"
    },
    {
      "inputs": [
        {
          "internalType": "bytes32[32]",
          "name": "smtProof",
          "type": "bytes32[32]"
        },
        {
          "internalType": "uint32",
          "name": "index",
          "type": "uint32"
        },
        {
          "internalType": "bytes32",
          "name": "mainnetExitRoot",
          "type": "bytes32"
        },
        {
          "internalType": "bytes32",
          "name": "rollupExitRoot",
          "type": "bytes32"
        },
        {
          "internalType": "uint32",
          "name": "originNetwork",
          "type": "uint32"
        },
        {
          "internalType": "address",
          "name": "originTokenAddress",
          "type": "address"
        },
        {
          "internalType": "uint32",
          "name": "destinationNetwork",
          "type": "uint32"
        },
        {
          "internalType": "address",
          "name": "destinationAddress",
          "type": "address"
        },
        {
          "internalType": "uint256",
          "name": "amount",
          "type": "uint256"
        },
        {
          "internalType": "bytes",
          "name": "metadata",
          "type": "bytes"
        }
      ],
      "name": "claimAsset",
      "outputs": [],
      "stateMutability": "nonpayable",
      "type": "function"
    },
    {
      "inputs": [
        {
          "internalType": "bytes32[32]",
          "name": "smtProof",
          "type": "bytes32[32]"
        },
        {
          "internalType": "uint32",
          "name": "index",
          "type": "uint32"
        },
        {
          "internalType": "bytes32",
          "name": "mainnetExitRoot",
          "type": "bytes32"
        },
        {
          "internalType": "bytes32",
          "name": "rollupExitRoot",
          "type": "bytes32"
        },
        {
          "internalType": "uint32",
          "name": "originNetwork",
          "type": "uint32"
        },
        {
          "internalType": "address",
          "name": "originAddress",
          "type": "address"
        },
        {
          "internalType": "uint32",
          "name": "destinationNetwork",
          "type": "uint32"
        },
        {
          "internalType": "address",
          "name": "destinationAddress",
          "type": "address"
        },
        {
          "internalType": "uint256",
          "name": "amount",
          "type": "uint256"
        },
        {
          "internalType": "bytes",
          "name": "metadata",
          "type": "bytes"
        }
      ],
      "name": "claimMessage",
      "outputs": [],
      "stateMutability": "nonpayable",
      "type": "function"
    },
    {
      "inputs": [
        {
          "internalType": "uint256",
          "name": "",
          "type": "uint256"
        }
      ],
      "name": "claimedBitMap",
      "outputs": [
        {
          "internalType": "uint256",
          "name": "",
          "type": "uint256"
        }
      ],
      "stateMutability": "view",
      "type": "function"
    },
    {
      "inputs": [],
      "name": "deactivateEmergencyState",
      "outputs": [],
      "stateMutability": "nonpayable",
      "type": "function"
    },
    {
      "inputs": [],
      "name": "depositCount",
      "outputs": [
        {
          "internalType": "uint256",
          "name": "",
          "type": "uint256"
        }
      ],
      "stateMutability": "view",
      "type": "function"
    },
    {
      "inputs": [],
      "name": "getDepositRoot",
      "outputs": [
        {
          "internalType": "bytes32",
          "name": "",
          "type": "bytes32"
        }
      ],
      "stateMutability": "view",
      "type": "function"
    },
    {
      "inputs": [
        {
          "internalType": "uint8",
          "name": "leafType",
          "type": "uint8"
        },
        {
          "internalType": "uint32",
          "name": "originNetwork",
          "type": "uint32"
        },
        {
          "internalType": "address",
          "name": "originAddress",
          "type": "address"
        },
        {
          "internalType": "uint32",
          "name": "destinationNetwork",
          "type": "uint32"
        },
        {
          "internalType": "address",
          "name": "destinationAddress",
          "type": "address"
        },
        {
          "internalType": "uint256",
          "name": "amount",
          "type": "uint256"
        },
        {
          "internalType": "bytes32",
          "name": "metadataHash",
          "type": "bytes32"
        }
      ],
      "name": "getLeafValue",
      "outputs": [
        {
          "internalType": "bytes32",
          "name": "",
          "type": "bytes32"
        }
      ],
      "stateMutability": "pure",
      "type": "function"
    },
    {
      "inputs": [
        {
          "internalType": "uint32",
          "name": "originNetwork",
          "type": "uint32"
        },
        {
          "internalType": "address",
          "name": "originTokenAddress",
          "type": "address"
        }
      ],
      "name": "getTokenWrappedAddress",
      "outputs": [
        {
          "internalType": "address",
          "name": "",
          "type": "address"
        }
      ],
      "stateMutability": "view",
      "type": "function"
    },
    {
      "inputs": [],
      "name": "globalExitRootManager",
      "outputs": [
        {
          "internalType": "contract IBasePolygonZkEVMGlobalExitRoot",
          "name": "",
          "type": "address"
        }
      ],
      "stateMutability": "view",
      "type": "function"
    },
    {
      "inputs": [
        {
          "internalType": "uint32",
          "name": "_networkID",
          "type": "uint32"
        },
        {
          "internalType": "contract IBasePolygonZkEVMGlobalExitRoot",
          "name": "_globalExitRootManager",
          "type": "address"
        },
        {
          "internalType": "address",
          "name": "_polygonZkEVMaddress",
          "type": "address"
        }
      ],
      "name": "initialize",
      "outputs": [],
      "stateMutability": "nonpayable",
      "type": "function"
    },
    {
      "inputs": [
        {
          "internalType": "uint256",
          "name": "index",
          "type": "uint256"
        }
      ],
      "name": "isClaimed",
      "outputs": [
        {
          "internalType": "bool",
          "name": "",
          "type": "bool"
        }
      ],
      "stateMutability": "view",
      "type": "function"
    },
    {
      "inputs": [],
      "name": "isEmergencyState",
      "outputs": [
        {
          "internalType": "bool",
          "name": "",
          "type": "bool"
        }
      ],
      "stateMutability": "view",
      "type": "function"
    },
    {
      "inputs": [],
      "name": "networkID",
      "outputs": [
        {
          "internalType": "uint32",
          "name": "",
          "type": "uint32"
        }
      ],
      "stateMutability": "view",
      "type": "function"
    },
    {
      "inputs": [],
      "name": "polygonZkEVMaddress",
      "outputs": [
        {
          "internalType": "address",
          "name": "",
          "type": "address"
        }
      ],
      "stateMutability": "view",
      "type": "function"
    },
    {
      "inputs": [
        {
          "internalType": "uint32",
          "name": "originNetwork",
          "type": "uint32"
        },
        {
          "internalType": "address",
          "name": "originTokenAddress",
          "type": "address"
        },
        {
          "internalType": "string",
          "name": "name",
          "type": "string"
        },
        {
          "internalType": "string",
          "name": "symbol",
          "type": "string"
        },
        {
          "internalType": "uint8",
          "name": "decimals",
          "type": "uint8"
        }
      ],
      "name": "precalculatedWrapperAddress",
      "outputs": [
        {
          "internalType": "address",
          "name": "",
          "type": "address"
        }
      ],
      "stateMutability": "view",
      "type": "function"
    },
    {
      "inputs": [
        {
          "internalType": "bytes32",
          "name": "",
          "type": "bytes32"
        }
      ],
      "name": "tokenInfoToWrappedToken",
      "outputs": [
        {
          "internalType": "address",
          "name": "",
          "type": "address"
        }
      ],
      "stateMutability": "view",
      "type": "function"
    },
    {
      "inputs": [
        {
          "internalType": "bytes32",
          "name": "leafHash",
          "type": "bytes32"
        },
        {
          "internalType": "bytes32[32]",
          "name": "smtProof",
          "type": "bytes32[32]"
        },
        {
          "internalType": "uint32",
          "name": "index",
          "type": "uint32"
        },
        {
          "internalType": "bytes32",
          "name": "root",
          "type": "bytes32"
        }
      ],
      "name": "verifyMerkleProof",
      "outputs": [
        {
          "internalType": "bool",
          "name": "",
          "type": "bool"
        }
      ],
      "stateMutability": "pure",
      "type": "function"
    },
    {
      "inputs": [
        {
          "internalType": "address",
          "name": "",
          "type": "address"
        }
      ],
      "name": "wrappedTokenToTokenInfo",
      "outputs": [
        {
          "internalType": "uint32",
          "name": "originNetwork",
          "type": "uint32"
        },
        {
          "internalType": "address",
          "name": "originTokenAddress",
          "type": "address"
        }
      ],
      "stateMutability": "view",
      "type": "function"
    }
  ],
  "bytecode": "0x608060405234801561001057600080fd5b5061451c806100206000396000f3fe608060405260043610620001435760003560e01c80633e19704311620000b9578063bab161bf1162000078578063bab161bf14620003e6578063d02103ca1462000420578063d96a15f71462000449578063dbc169761462000460578063ee25560b1462000478578063fb57083414620004a957600080fd5b80633e19704314620002f8578063647c576c146200031d57806381b1c17414620003425780639e34070f146200037c578063aaa13cc214620003c157600080fd5b80632d2c9d9411620001065780632d2c9d9414620002035780632dfdf0b51462000228578063318aee3d146200024f57806334ac9cf214620002be5780633ae0504714620002e057600080fd5b80630871e971146200014857806315064c9614620001615780632072f6c5146200019257806322e95f2c14620001aa5780632cffd02e14620001de575b600080fd5b6200015f6200015936600462002294565b620004ce565b005b3480156200016e57600080fd5b506036546200017d9060ff1681565b60405190151581526020015b60405180910390f35b3480156200019f57600080fd5b506200015f620008cb565b348015620001b757600080fd5b50620001cf620001c936600462002320565b62000903565b6040516200018991906200235c565b348015620001eb57600080fd5b506200015f620001fd36600462002383565b62000956565b3480156200021057600080fd5b506200015f6200022236600462002383565b62000d5a565b3480156200023557600080fd5b506200024060215481565b60405190815260200162000189565b3480156200025c57600080fd5b50620002996200026e36600462002468565b60396020526000908152604090205463ffffffff81169064010000000090046001600160a01b031682565b6040805163ffffffff90931683526001600160a01b0390911660208301520162000189565b348015620002cb57600080fd5b50603a54620001cf906001600160a01b031681565b348015620002ed57600080fd5b506200024062000ea9565b3480156200030557600080fd5b5062000240620003173660046200249f565b62000f8f565b3480156200032a57600080fd5b506200015f6200033c36600462002529565b6200101c565b3480156200034f57600080fd5b50620001cf6200036136600462002579565b6038602052600090815260409020546001600160a01b031681565b3480156200038957600080fd5b506200017d6200039b36600462002579565b600881901c600090815260376020526040902054600160ff9092169190911b9081161490565b348015620003ce57600080fd5b50620001cf620003e036600462002593565b6200118f565b348015620003f357600080fd5b506036546200040a90610100900463ffffffff1681565b60405163ffffffff909116815260200162000189565b3480156200042d57600080fd5b50603654620001cf90600160281b90046001600160a01b031681565b6200015f6200045a36600462002646565b620012a6565b3480156200046d57600080fd5b506200015f6200142a565b3480156200048557600080fd5b50620002406200049736600462002579565b60376020526000908152604090205481565b348015620004b657600080fd5b506200017d620004c8366004620026b0565b62001460565b60365460ff1615620004f357604051630bc011ff60e21b815260040160405180910390fd5b60365463ffffffff868116610100909204161480620005195750600263ffffffff861610155b1562000538576040516302caf51760e11b815260040160405180910390fd5b6000806060856001600160a01b038a1662000578578634146200056e5760405163b89240f560e01b815260040160405180910390fd5b60009250620007dd565b3415620005985760405163798ee6f160e01b815260040160405180910390fd5b6001600160a01b03808b1660009081526039602090815260409182902082518084019093525463ffffffff81168352640100000000900490921691810182905290156200065757604051632770a7eb60e21b81526001600160a01b038c1690639dc29fac906200060f9033908c90600401620026fd565b600060405180830381600087803b1580156200062a57600080fd5b505af11580156200063f573d6000803e3d6000fd5b505050508060200151945080600001519350620007db565b85156200066c576200066c8b89898962001549565b6040516370a0823160e01b81526000906001600160a01b038d16906370a08231906200069d9030906004016200235c565b602060405180830381865afa158015620006bb573d6000803e3d6000fd5b505050506040513d601f19601f82011682018060405250810190620006e1919062002716565b9050620006fa6001600160a01b038d1633308c620018ac565b6040516370a0823160e01b81526000906001600160a01b038e16906370a08231906200072b9030906004016200235c565b602060405180830381865afa15801562000749573d6000803e3d6000fd5b505050506040513d601f19601f820116820180604052508101906200076f919062002716565b90506200077d828262002746565b6036548e9850610100900463ffffffff16965093506200079d8762001919565b620007a88e620019dc565b620007b38f62001a25565b604051602001620007c793929190620027bd565b604051602081830303815290604052945050505b505b7f501781209a1f8899323b96b4ef08b168df93e0a90c673d1e4cce39366cb62f9b600084868c8c86886021546040516200081f989796959493929190620027fa565b60405180910390a16200084a62000844600085878d8d87898051906020012062000f8f565b62001ae6565b603654600160281b90046001600160a01b03166333d6247d6200086c62000ea9565b6040518263ffffffff1660e01b81526004016200088b91815260200190565b600060405180830381600087803b158015620008a657600080fd5b505af1158015620008bb573d6000803e3d6000fd5b5050505050505050505050505050565b603a546001600160a01b03163314620008f75760405163e2e8106b60e01b815260040160405180910390fd5b6200090162001be4565b565b60006038600084846040516020016200091e92919062002867565b60408051601f19818403018152918152815160209283012083529082019290925201600020546001600160a01b031690505b92915050565b60365460ff16156200097b57604051630bc011ff60e21b815260040160405180910390fd5b620009928b8b8b8b8b8b8b8b8b8b8b600062001c41565b6001600160a01b03861662000a3b57604080516000808252602082019092526001600160a01b038616908590604051620009cd9190620028a7565b60006040518083038185875af1925050503d806000811462000a0c576040519150601f19603f3d011682016040523d82523d6000602084013e62000a11565b606091505b505090508062000a3457604051630ce8f45160e31b815260040160405180910390fd5b5062000d0c565b60365463ffffffff61010090910481169088160362000a705762000a6a6001600160a01b038716858562001daf565b62000d0c565b6000878760405160200162000a8792919062002867565b60408051601f198184030181529181528151602092830120600081815260389093529120549091506001600160a01b03168062000ca4576000808062000ad0868801886200297e565b92509250925060008584848460405162000aea906200220d565b62000af893929190620027bd565b8190604051809103906000f590508015801562000b19573d6000803e3d6000fd5b506040516340c10f1960e01b81529091506001600160a01b038216906340c10f199062000b4d908d908d90600401620026fd565b600060405180830381600087803b15801562000b6857600080fd5b505af115801562000b7d573d6000803e3d6000fd5b50505050806038600088815260200190815260200160002060006101000a8154816001600160a01b0302191690836001600160a01b0316021790555060405180604001604052808e63ffffffff1681526020018d6001600160a01b031681525060396000836001600160a01b03166001600160a01b0316815260200190815260200160002060008201518160000160006101000a81548163ffffffff021916908363ffffffff16021790555060208201518160000160046101000a8154816001600160a01b0302191690836001600160a01b031602179055509050507f490e59a1701b938786ac72570a1efeac994a3dbe96e2e883e19e902ace6e6a398d8d838b8b60405162000c9295949392919062002a1c565b60405180910390a15050505062000d09565b6040516340c10f1960e01b81526001600160a01b038216906340c10f199062000cd49089908990600401620026fd565b600060405180830381600087803b15801562000cef57600080fd5b505af115801562000d04573d6000803e3d6000fd5b505050505b50505b7f25308c93ceeed162da955b3f7ce3e3f93606579e40fb92029faa9efe275459838a8888878760405162000d4595949392919062002a57565b60405180910390a15050505050505050505050565b60365460ff161562000d7f57604051630bc011ff60e21b815260040160405180910390fd5b62000d968b8b8b8b8b8b8b8b8b8b8b600162001c41565b6000846001600160a01b031684888a868660405160240162000dbc949392919062002a8e565b60408051601f198184030181529181526020820180516001600160e01b0316630c035af960e11b1790525162000df39190620028a7565b60006040518083038185875af1925050503d806000811462000e32576040519150601f19603f3d011682016040523d82523d6000602084013e62000e37565b606091505b505090508062000e5a576040516337e391c360e01b815260040160405180910390fd5b7f25308c93ceeed162da955b3f7ce3e3f93606579e40fb92029faa9efe275459838b8989888860405162000e9395949392919062002a57565b60405180910390a1505050505050505050505050565b602154600090819081805b602081101562000f86578083901c60011660010362000f17576001816020811062000ee35762000ee362002acb565b0154604080516020810192909252810185905260600160405160208183030381529060405280519060200120935062000f44565b60408051602081018690529081018390526060016040516020818303038152906040528051906020012093505b6040805160208101849052908101839052606001604051602081830303815290604052805190602001209150808062000f7d9062002ae1565b91505062000eb4565b50919392505050565b6040516001600160f81b031960f889901b1660208201526001600160e01b031960e088811b821660218401526001600160601b0319606089811b821660258601529188901b909216603984015285901b16603d8201526051810183905260718101829052600090609101604051602081830303815290604052805190602001209050979650505050505050565b600054610100900460ff16158080156200103d5750600054600160ff909116105b80620010595750303b15801562001059575060005460ff166001145b620010c25760405162461bcd60e51b815260206004820152602e60248201527f496e697469616c697a61626c653a20636f6e747261637420697320616c72656160448201526d191e481a5b9a5d1a585b1a5e995960921b60648201526084015b60405180910390fd5b6000805460ff191660011790558015620010e6576000805461ff0019166101001790555b60368054610100600160c81b03191661010063ffffffff87160265010000000000600160c81b03191617600160281b6001600160a01b038681169190910291909117909155603a80546001600160a01b031916918416919091179055801562001189576000805461ff0019169055604051600181527f7f26b83ff96e1f2b6a682f133852f6798a09c465da95921460cefb38474024989060200160405180910390a15b50505050565b6000808888604051602001620011a792919062002867565b604051602081830303815290604052805190602001209050600060ff60f81b308360405180602001620011da906200220d565b601f1982820381018352601f90910116604081905262001207908d908d908d908d908d9060200162002afd565b60408051601f198184030181529082905262001227929160200162002b3e565b604051602081830303815290604052805190602001206040516020016200128094939291906001600160f81b031994909416845260609290921b6001600160601b03191660018401526015830152603582015260550190565b60408051808303601f1901815291905280516020909101209a9950505050505050505050565b60365460ff1615620012cb57604051630bc011ff60e21b815260040160405180910390fd5b60365463ffffffff858116610100909204161480620012f15750600263ffffffff851610155b1562001310576040516302caf51760e11b815260040160405180910390fd5b7f501781209a1f8899323b96b4ef08b168df93e0a90c673d1e4cce39366cb62f9b6001603660019054906101000a900463ffffffff16338787348888602154604051620013669998979695949392919062002b71565b60405180910390a1620013af620008446001603660019054906101000a900463ffffffff16338888348989604051620013a192919062002be0565b604051809103902062000f8f565b603654600160281b90046001600160a01b03166333d6247d620013d162000ea9565b6040518263ffffffff1660e01b8152600401620013f091815260200190565b600060405180830381600087803b1580156200140b57600080fd5b505af115801562001420573d6000803e3d6000fd5b5050505050505050565b603a546001600160a01b03163314620014565760405163e2e8106b60e01b815260040160405180910390fd5b6200090162001dd1565b600084815b60208110156200153b57600163ffffffff8616821c81169003620014d75785816020811062001498576200149862002acb565b602002013582604051602001620014b9929190918252602082015260400190565b60405160208183030381529060405280519060200120915062001526565b81868260208110620014ed57620014ed62002acb565b60200201356040516020016200150d929190918252602082015260400190565b6040516020818303038152906040528051906020012091505b80620015328162002ae1565b91505062001465565b50821490505b949350505050565b60006200155a600482848662002bf0565b620015659162002c1c565b9050632afa533160e01b6001600160e01b03198216016200170657600080808080808062001597896004818d62002bf0565b810190620015a6919062002c4d565b9650965096509650965096509650336001600160a01b0316876001600160a01b031614620015e75760405163912ecce760e01b815260040160405180910390fd5b6001600160a01b0386163014620016115760405163750643af60e01b815260040160405180910390fd5b8a851462001632576040516303fffc4b60e01b815260040160405180910390fd5b604080516001600160a01b0389811660248301528881166044830152606482018890526084820187905260ff861660a483015260c4820185905260e48083018590528351808403909101815261010490920183526020820180516001600160e01b031663d505accf60e01b1790529151918e1691620016b29190620028a7565b6000604051808303816000865af19150503d8060008114620016f1576040519150601f19603f3d011682016040523d82523d6000602084013e620016f6565b606091505b50505050505050505050620018a5565b6001600160e01b031981166323f2ebc360e21b146200173857604051637141605d60e11b815260040160405180910390fd5b600080808080808080620017508a6004818e62002bf0565b8101906200175f919062002cb7565b97509750975097509750975097509750336001600160a01b0316886001600160a01b031614620017a25760405163912ecce760e01b815260040160405180910390fd5b6001600160a01b0387163014620017cc5760405163750643af60e01b815260040160405180910390fd5b604080516001600160a01b038a811660248301528981166044830152606482018990526084820188905286151560a483015260ff861660c483015260e482018590526101048083018590528351808403909101815261012490920183526020820180516001600160e01b03166323f2ebc360e21b1790529151918f1691620018559190620028a7565b6000604051808303816000865af19150503d806000811462001894576040519150601f19603f3d011682016040523d82523d6000602084013e62001899565b606091505b50505050505050505050505b5050505050565b6040516001600160a01b0380851660248301528316604482015260648101829052620011899085906323b872dd60e01b906084015b60408051601f198184030181529190526020810180516001600160e01b03166001600160e01b03199093169290921790915262001e2a565b60408051600481526024810182526020810180516001600160e01b03166306fdde0360e01b179052905160609160009182916001600160a01b03861691620019629190620028a7565b600060405180830381855afa9150503d80600081146200199f576040519150601f19603f3d011682016040523d82523d6000602084013e620019a4565b606091505b509150915081620019d157604051806040016040528060038152602001623f3f3f60e81b81525062001541565b620015418162001f03565b60408051600481526024810182526020810180516001600160e01b03166395d89b4160e01b179052905160609160009182916001600160a01b03861691620019629190620028a7565b60408051600481526024810182526020810180516001600160e01b031663313ce56760e01b1790529051600091829182916001600160a01b0386169162001a6d9190620028a7565b600060405180830381855afa9150503d806000811462001aaa576040519150601f19603f3d011682016040523d82523d6000602084013e62001aaf565b606091505b509150915081801562001ac3575080516020145b62001ad057601262001541565b8080602001905181019062001541919062002d43565b80600162001af76020600262002e60565b62001b03919062002746565b6021541062001b25576040516377ae67b360e11b815260040160405180910390fd5b600060216000815462001b389062002ae1565b9182905550905060005b602081101562001bd4578082901c60011660010362001b7a57826001826020811062001b725762001b7262002acb565b015550505050565b6001816020811062001b905762001b9062002acb565b01546040805160208101929092528101849052606001604051602081830303815290604052805190602001209250808062001bcb9062002ae1565b91505062001b42565b5062001bdf62002e6e565b505050565b60365460ff161562001c0957604051630bc011ff60e21b815260040160405180910390fd5b6036805460ff191660011790556040517f2261efe5aef6fedc1fd1550b25facc9181745623049c7901287030b9ad1a549790600090a1565b62001c528b63ffffffff166200208e565b6036546040805160208082018e90528183018d9052825180830384018152606083019384905280519101206312bd9b1960e11b9092526064810191909152600091600160281b90046001600160a01b03169063257b3632906084016020604051808303816000875af115801562001ccd573d6000803e3d6000fd5b505050506040513d601f19601f8201168201806040525081019062001cf3919062002716565b90508060000362001d1657604051622f6fad60e01b815260040160405180910390fd5b60365463ffffffff888116610100909204161462001d47576040516302caf51760e11b815260040160405180910390fd5b603654600090610100900463ffffffff1662001d6557508962001d68565b508a5b62001d9162001d88848c8c8c8c8c8c8c604051620013a192919062002be0565b8f8f8462001460565b620008bb576040516338105f3b60e21b815260040160405180910390fd5b62001bdf8363a9059cbb60e01b8484604051602401620018e1929190620026fd565b60365460ff1662001df557604051635386698160e01b815260040160405180910390fd5b6036805460ff191690556040517f1e5e34eea33501aecf2ebec9fe0e884a40804275ea7fe10b2ba084c8374308b390600090a1565b600062001e81826040518060400160405280602081526020017f5361666545524332303a206c6f772d6c6576656c2063616c6c206661696c6564815250856001600160a01b0316620020da9092919063ffffffff16565b80519091501562001bdf578080602001905181019062001ea2919062002e84565b62001bdf5760405162461bcd60e51b815260206004820152602a60248201527f5361666545524332303a204552433230206f7065726174696f6e20646964206e6044820152691bdd081cdd58d8d9595960b21b6064820152608401620010b9565b6060604082511062001f25578180602001905181019062000950919062002ea4565b81516020036200206a5760005b60208110801562001f65575082818151811062001f535762001f5362002acb565b01602001516001600160f81b03191615155b1562001f80578062001f778162002ae1565b91505062001f32565b8060000362001faa5750506040805180820190915260038152623f3f3f60e81b6020820152919050565b6000816001600160401b0381111562001fc75762001fc762002891565b6040519080825280601f01601f19166020018201604052801562001ff2576020820181803683370190505b50905060005b82811015620020625784818151811062002016576200201662002acb565b602001015160f81c60f81b82828151811062002036576200203662002acb565b60200101906001600160f81b031916908160001a90535080620020598162002ae1565b91505062001ff8565b509392505050565b50506040805180820190915260038152623f3f3f60e81b602082015290565b919050565b600881901c60008181526037602052604081208054600160ff861690811b91821892839055929091908183169003620018a557604051630c8d9eab60e31b815260040160405180910390fd5b606062001541848460008585600080866001600160a01b03168587604051620021049190620028a7565b60006040518083038185875af1925050503d806000811462002143576040519150601f19603f3d011682016040523d82523d6000602084013e62002148565b606091505b50915091506200215b8783838762002166565b979650505050505050565b60608315620021da578251600003620021d2576001600160a01b0385163b620021d25760405162461bcd60e51b815260206004820152601d60248201527f416464726573733a2063616c6c20746f206e6f6e2d636f6e74726163740000006044820152606401620010b9565b508162001541565b620015418383815115620021f15781518083602001fd5b8060405162461bcd60e51b8152600401620010b9919062002f23565b6115ae8062002f3983390190565b6001600160a01b03811681146200223157600080fd5b50565b803563ffffffff811681146200208957600080fd5b60008083601f8401126200225c57600080fd5b5081356001600160401b038111156200227457600080fd5b6020830191508360208285010111156200228d57600080fd5b9250929050565b60008060008060008060a08789031215620022ae57600080fd5b8635620022bb816200221b565b9550620022cb6020880162002234565b94506040870135620022dd816200221b565b93506060870135925060808701356001600160401b038111156200230057600080fd5b6200230e89828a0162002249565b979a9699509497509295939492505050565b600080604083850312156200233457600080fd5b6200233f8362002234565b9150602083013562002351816200221b565b809150509250929050565b6001600160a01b0391909116815260200190565b8061040081018310156200095057600080fd5b60008060008060008060008060008060006105208c8e031215620023a657600080fd5b620023b28d8d62002370565b9a50620023c36104008d0162002234565b99506104208c013598506104408c01359750620023e46104608d0162002234565b96506104808c0135620023f7816200221b565b9550620024086104a08d0162002234565b94506104c08c01356200241b816200221b565b93506104e08c013592506105008c01356001600160401b038111156200244057600080fd5b6200244e8e828f0162002249565b915080935050809150509295989b509295989b9093969950565b6000602082840312156200247b57600080fd5b813562002488816200221b565b9392505050565b60ff811681146200223157600080fd5b600080600080600080600060e0888a031215620024bb57600080fd5b8735620024c8816200248f565b9650620024d86020890162002234565b95506040880135620024ea816200221b565b9450620024fa6060890162002234565b935060808801356200250c816200221b565b9699959850939692959460a0840135945060c09093013592915050565b6000806000606084860312156200253f57600080fd5b6200254a8462002234565b925060208401356200255c816200221b565b915060408401356200256e816200221b565b809150509250925092565b6000602082840312156200258c57600080fd5b5035919050565b600080600080600080600060a0888a031215620025af57600080fd5b620025ba8862002234565b96506020880135620025cc816200221b565b955060408801356001600160401b0380821115620025e957600080fd5b620025f78b838c0162002249565b909750955060608a01359150808211156200261157600080fd5b50620026208a828b0162002249565b909450925050608088013562002636816200248f565b8091505092959891949750929550565b600080600080606085870312156200265d57600080fd5b620026688562002234565b935060208501356200267a816200221b565b925060408501356001600160401b038111156200269657600080fd5b620026a48782880162002249565b95989497509550505050565b6000806000806104608587031215620026c857600080fd5b84359350620026db866020870162002370565b9250620026ec610420860162002234565b939692955092936104400135925050565b6001600160a01b03929092168252602082015260400190565b6000602082840312156200272957600080fd5b5051919050565b634e487b7160e01b600052601160045260246000fd5b6000828210156200275b576200275b62002730565b500390565b60005b838110156200277d57818101518382015260200162002763565b83811115620011895750506000910152565b60008151808452620027a981602086016020860162002760565b601f01601f19169290920160200192915050565b606081526000620027d260608301866200278f565b8281036020840152620027e681866200278f565b91505060ff83166040830152949350505050565b60ff8916815263ffffffff88811660208301526001600160a01b03888116604084015287821660608401528616608083015260a0820185905261010060c083018190526000916200284e848301876200278f565b925080851660e085015250509998505050505050505050565b60e09290921b6001600160e01b031916825260601b6001600160601b031916600482015260180190565b634e487b7160e01b600052604160045260246000fd5b60008251620028bb81846020870162002760565b9190910192915050565b604051601f8201601f191681016001600160401b0381118282101715620028f057620028f062002891565b604052919050565b60006001600160401b0382111562002914576200291462002891565b50601f01601f191660200190565b600082601f8301126200293457600080fd5b81356200294b6200294582620028f8565b620028c5565b8181528460208386010111156200296157600080fd5b816020850160208301376000918101602001919091529392505050565b6000806000606084860312156200299457600080fd5b83356001600160401b0380821115620029ac57600080fd5b620029ba8783880162002922565b94506020860135915080821115620029d157600080fd5b50620029e08682870162002922565b92505060408401356200256e816200248f565b81835281816020850137506000828201602090810191909152601f909101601f19169091010190565b63ffffffff861681526001600160a01b038581166020830152841660408201526080606082018190526000906200215b9083018486620029f3565b63ffffffff95861681529390941660208401526001600160a01b039182166040840152166060820152608081019190915260a00190565b6001600160a01b038516815263ffffffff8416602082015260606040820181905260009062002ac19083018486620029f3565b9695505050505050565b634e487b7160e01b600052603260045260246000fd5b60006001820162002af65762002af662002730565b5060010190565b60608152600062002b13606083018789620029f3565b828103602084015262002b28818688620029f3565b91505060ff831660408301529695505050505050565b6000835162002b5281846020880162002760565b83519083019062002b6881836020880162002760565b01949350505050565b60ff8a16815263ffffffff89811660208301526001600160a01b03898116604084015288821660608401528716608083015260a0820186905261010060c0830181905260009162002bc68483018789620029f3565b925080851660e085015250509a9950505050505050505050565b8183823760009101908152919050565b6000808585111562002c0157600080fd5b8386111562002c0f57600080fd5b5050820193919092039150565b6001600160e01b0319813581811691600485101562002c455780818660040360031b1b83161692505b505092915050565b600080600080600080600060e0888a03121562002c6957600080fd5b873562002c76816200221b565b9650602088013562002c88816200221b565b9550604088013594506060880135935060808801356200250c816200248f565b80151581146200223157600080fd5b600080600080600080600080610100898b03121562002cd557600080fd5b883562002ce2816200221b565b9750602089013562002cf4816200221b565b96506040890135955060608901359450608089013562002d148162002ca8565b935060a089013562002d26816200248f565b979a969950949793969295929450505060c08201359160e0013590565b60006020828403121562002d5657600080fd5b815162002488816200248f565b600181815b8085111562002da457816000190482111562002d885762002d8862002730565b8085161562002d9657918102915b93841c939080029062002d68565b509250929050565b60008262002dbd5750600162000950565b8162002dcc5750600062000950565b816001811462002de5576002811462002df05762002e10565b600191505062000950565b60ff84111562002e045762002e0462002730565b50506001821b62000950565b5060208310610133831016604e8410600b841016171562002e35575081810a62000950565b62002e41838362002d63565b806000190482111562002e585762002e5862002730565b029392505050565b600062002488838362002dac565b634e487b7160e01b600052600160045260246000fd5b60006020828403121562002e9757600080fd5b8151620024888162002ca8565b60006020828403121562002eb757600080fd5b81516001600160401b0381111562002ece57600080fd5b8201601f8101841362002ee057600080fd5b805162002ef16200294582620028f8565b81815285602083850101111562002f0757600080fd5b62002f1a82602083016020860162002760565b95945050505050565b6020815260006200248860208301846200278f56fe6101006040523480156200001257600080fd5b50604051620015ae380380620015ae833981016040819052620000359162000295565b82826003620000458382620003a9565b506004620000548282620003a9565b50503360c0525060ff811660e052466080819052620000739062000080565b60a0525062000475915050565b60007f8b73c3c69bb8fe3d512ecc4cf759cc79239f7b179b0ffacaa9a75d522b39400f620000ad6200012e565b805160209182012060408051808201825260018152603160f81b90840152805192830193909352918101919091527fc89efdaa54c0f20c7adf612882df0950f5a951637e0307cdcb4c672f298b8bc66060820152608081018390523060a082015260c001604051602081830303815290604052805190602001209050919050565b6060600380546200013f906200031a565b80601f01602080910402602001604051908101604052809291908181526020018280546200016d906200031a565b8015620001be5780601f106200019257610100808354040283529160200191620001be565b820191906000526020600020905b815481529060010190602001808311620001a057829003601f168201915b5050505050905090565b634e487b7160e01b600052604160045260246000fd5b600082601f830112620001f057600080fd5b81516001600160401b03808211156200020d576200020d620001c8565b604051601f8301601f19908116603f01168101908282118183101715620002385762000238620001c8565b816040528381526020925086838588010111156200025557600080fd5b600091505b838210156200027957858201830151818301840152908201906200025a565b838211156200028b5760008385830101525b9695505050505050565b600080600060608486031215620002ab57600080fd5b83516001600160401b0380821115620002c357600080fd5b620002d187838801620001de565b94506020860151915080821115620002e857600080fd5b50620002f786828701620001de565b925050604084015160ff811681146200030f57600080fd5b809150509250925092565b600181811c908216806200032f57607f821691505b6020821081036200035057634e487b7160e01b600052602260045260246000fd5b50919050565b601f821115620003a457600081815260208120601f850160051c810160208610156200037f5750805b601f850160051c820191505b81811015620003a0578281556001016200038b565b5050505b505050565b81516001600160401b03811115620003c557620003c5620001c8565b620003dd81620003d684546200031a565b8462000356565b602080601f831160018114620004155760008415620003fc5750858301515b600019600386901b1c1916600185901b178555620003a0565b600085815260208120601f198616915b82811015620004465788860151825594840194600190910190840162000425565b5085821015620004655787850151600019600388901b60f8161c191681555b5050505050600190811b01905550565b60805160a05160c05160e0516110ea620004c460003960006101f70152600081816102ba015281816104de015261054c0152600061048f01526000818161031f015261045901526110ea6000f3fe608060405234801561001057600080fd5b50600436106101375760003560e01c806370a08231116100b8578063a457c2d71161007c578063a457c2d7146102f4578063a9059cbb14610307578063cd0d00961461031a578063d505accf14610341578063dd62ed3e14610354578063ffa1ad741461036757600080fd5b806370a08231146102515780637ecebe001461027a57806395d89b411461029a5780639dc29fac146102a2578063a3c573eb146102b557600080fd5b806330adf81f116100ff57806330adf81f146101c9578063313ce567146101f05780633644e51514610221578063395093511461022957806340c10f191461023c57600080fd5b806306fdde031461013c578063095ea7b31461015a57806318160ddd1461017d57806320606b701461018f57806323b872dd146101b6575b600080fd5b610144610387565b6040516101519190610e24565b60405180910390f35b61016d610168366004610e95565b610419565b6040519015158152602001610151565b6002545b604051908152602001610151565b6101817f8b73c3c69bb8fe3d512ecc4cf759cc79239f7b179b0ffacaa9a75d522b39400f81565b61016d6101c4366004610ebf565b610431565b6101817f6e71edae12b1b97f4d1f60370fef10105fa2faae0126114a169c64845d6126c981565b60405160ff7f0000000000000000000000000000000000000000000000000000000000000000168152602001610151565b610181610455565b61016d610237366004610e95565b6104b1565b61024f61024a366004610e95565b6104d3565b005b61018161025f366004610efb565b6001600160a01b031660009081526020819052604090205490565b610181610288366004610efb565b60056020526000908152604090205481565b610144610532565b61024f6102b0366004610e95565b610541565b6102dc7f000000000000000000000000000000000000000000000000000000000000000081565b6040516001600160a01b039091168152602001610151565b61016d610302366004610e95565b610593565b61016d610315366004610e95565b61060e565b6101817f000000000000000000000000000000000000000000000000000000000000000081565b61024f61034f366004610f1d565b61061c565b610181610362366004610f90565b610857565b610144604051806040016040528060018152602001603160f81b81525081565b60606003805461039690610fc3565b80601f01602080910402602001604051908101604052809291908181526020018280546103c290610fc3565b801561040f5780601f106103e45761010080835404028352916020019161040f565b820191906000526020600020905b8154815290600101906020018083116103f257829003601f168201915b5050505050905090565b600033610427818585610882565b5060019392505050565b60003361043f8582856109a7565b61044a858585610a21565b506001949350505050565b60007f0000000000000000000000000000000000000000000000000000000000000000461461048c5761048746610bb3565b905090565b507f000000000000000000000000000000000000000000000000000000000000000090565b6000336104278185856104c48383610857565b6104ce9190611013565b610882565b336001600160a01b037f000000000000000000000000000000000000000000000000000000000000000016146105245760405162461bcd60e51b815260040161051b9061102b565b60405180910390fd5b61052e8282610c5f565b5050565b60606004805461039690610fc3565b336001600160a01b037f000000000000000000000000000000000000000000000000000000000000000016146105895760405162461bcd60e51b815260040161051b9061102b565b61052e8282610d0c565b600033816105a18286610857565b9050838110156106015760405162461bcd60e51b815260206004820152602560248201527f45524332303a2064656372656173656420616c6c6f77616e63652062656c6f77604482015264207a65726f60d81b606482015260840161051b565b61044a8286868403610882565b600033610427818585610a21565b834211156106785760405162461bcd60e51b8152602060048201526024808201527f546f6b656e577261707065643a3a7065726d69743a20457870697265642070656044820152631c9b5a5d60e21b606482015260840161051b565b6001600160a01b038716600090815260056020526040812080547f6e71edae12b1b97f4d1f60370fef10105fa2faae0126114a169c64845d6126c9918a918a918a9190866106c58361107b565b909155506040805160208101969096526001600160a01b0394851690860152929091166060840152608083015260a082015260c0810186905260e0016040516020818303038152906040528051906020012090506000610723610455565b60405161190160f01b602082015260228101919091526042810183905260620160408051601f198184030181528282528051602091820120600080855291840180845281905260ff89169284019290925260608301879052608083018690529092509060019060a0016020604051602081039080840390855afa1580156107ae573d6000803e3d6000fd5b5050604051601f1901519150506001600160a01b038116158015906107e45750896001600160a01b0316816001600160a01b0316145b6108405760405162461bcd60e51b815260206004820152602760248201527f546f6b656e577261707065643a3a7065726d69743a20496e76616c6964207369604482015266676e617475726560c81b606482015260840161051b565b61084b8a8a8a610882565b50505050505050505050565b6001600160a01b03918216600090815260016020908152604080832093909416825291909152205490565b6001600160a01b0383166108e45760405162461bcd60e51b8152602060048201526024808201527f45524332303a20617070726f76652066726f6d20746865207a65726f206164646044820152637265737360e01b606482015260840161051b565b6001600160a01b0382166109455760405162461bcd60e51b815260206004820152602260248201527f45524332303a20617070726f766520746f20746865207a65726f206164647265604482015261737360f01b606482015260840161051b565b6001600160a01b0383811660008181526001602090815260408083209487168084529482529182902085905590518481527f8c5be1e5ebec7d5bd14f71427d1e84f3dd0314c0f7b2291e5b200ac8c7c3b92591015b60405180910390a3505050565b60006109b38484610857565b90506000198114610a1b5781811015610a0e5760405162461bcd60e51b815260206004820152601d60248201527f45524332303a20696e73756666696369656e7420616c6c6f77616e6365000000604482015260640161051b565b610a1b8484848403610882565b50505050565b6001600160a01b038316610a855760405162461bcd60e51b815260206004820152602560248201527f45524332303a207472616e736665722066726f6d20746865207a65726f206164604482015264647265737360d81b606482015260840161051b565b6001600160a01b038216610ae75760405162461bcd60e51b815260206004820152602360248201527f45524332303a207472616e7366657220746f20746865207a65726f206164647260448201526265737360e81b606482015260840161051b565b6001600160a01b03831660009081526020819052604090205481811015610b5f5760405162461bcd60e51b815260206004820152602660248201527f45524332303a207472616e7366657220616d6f756e7420657863656564732062604482015265616c616e636560d01b606482015260840161051b565b6001600160a01b0384811660008181526020818152604080832087870390559387168083529184902080548701905592518581529092600080516020611095833981519152910160405180910390a3610a1b565b60007f8b73c3c69bb8fe3d512ecc4cf759cc79239f7b179b0ffacaa9a75d522b39400f610bde610387565b805160209182012060408051808201825260018152603160f81b90840152805192830193909352918101919091527fc89efdaa54c0f20c7adf612882df0950f5a951637e0307cdcb4c672f298b8bc66060820152608081018390523060a082015260c001604051602081830303815290604052805190602001209050919050565b6001600160a01b038216610cb55760405162461bcd60e51b815260206004820152601f60248201527f45524332303a206d696e7420746f20746865207a65726f206164647265737300604482015260640161051b565b8060026000828254610cc79190611013565b90915550506001600160a01b03821660008181526020818152604080832080548601905551848152600080516020611095833981519152910160405180910390a35050565b6001600160a01b038216610d6c5760405162461bcd60e51b815260206004820152602160248201527f45524332303a206275726e2066726f6d20746865207a65726f206164647265736044820152607360f81b606482015260840161051b565b6001600160a01b03821660009081526020819052604090205481811015610de05760405162461bcd60e51b815260206004820152602260248201527f45524332303a206275726e20616d6f756e7420657863656564732062616c616e604482015261636560f01b606482015260840161051b565b6001600160a01b038316600081815260208181526040808320868603905560028054879003905551858152919291600080516020611095833981519152910161099a565b600060208083528351808285015260005b81811015610e5157858101830151858201604001528201610e35565b81811115610e63576000604083870101525b50601f01601f1916929092016040019392505050565b80356001600160a01b0381168114610e9057600080fd5b919050565b60008060408385031215610ea857600080fd5b610eb183610e79565b946020939093013593505050565b600080600060608486031215610ed457600080fd5b610edd84610e79565b9250610eeb60208501610e79565b9150604084013590509250925092565b600060208284031215610f0d57600080fd5b610f1682610e79565b9392505050565b600080600080600080600060e0888a031215610f3857600080fd5b610f4188610e79565b9650610f4f60208901610e79565b95506040880135945060608801359350608088013560ff81168114610f7357600080fd5b9699959850939692959460a0840135945060c09093013592915050565b60008060408385031215610fa357600080fd5b610fac83610e79565b9150610fba60208401610e79565b90509250929050565b600181811c90821680610fd757607f821691505b602082108103610ff757634e487b7160e01b600052602260045260246000fd5b50919050565b634e487b7160e01b600052601160045260246000fd5b6000821982111561102657611026610ffd565b500190565b60208082526030908201527f546f6b656e577261707065643a3a6f6e6c794272696467653a204e6f7420506f60408201526f6c79676f6e5a6b45564d42726964676560801b606082015260800190565b60006001820161108d5761108d610ffd565b506001019056feddf252ad1be2c89b69c2b068fc378daa952ba7f163c4a11628f55a4df523b3efa2646970667358221220cd986ae11dd78c5ae5cc818524281c49b6830096f538f51172bc94aa3d53335564736f6c634300080f0033a26469706673582212205fb87e9e166ec233303193cb474cbdfd1776f590e9ae89db2dc9fc4ff0b91f2c64736f6c634300080f0033",
  "linkReferences": {},
  "deployedLinkReferences": {}
}