{
  "_format": "hh-sol-artifact-1",
  "contractName": "PolygonZkEVMMock",
  "sourceName": "contracts/mocks/PolygonZkEVMMock.sol",
  "abi": [
    {
      "inputs": [
        {
          "internalType": "contract IPolygonZkEVMGlobalExitRoot",
          "name": "_globalExitRootManager",
          "type": "address"
        },
        {
          "internalType": "contract IERC20Upgradeable",
          "name": "_matic",
          "type": "address"
        },
        {
          "internalType": "contract IVerifierRollup",
          "name": "_rollupVerifier",
          "type": "address"
        },
        {
          "internalType": "contract IPolygonZkEVMBridge",
          "name": "_bridgeAddress",
          "type": "address"
        },
        {
          "internalType": "uint64",
          "name": "_chainID",
          "type": "uint64"
        },
        {
          "internalType": "uint64",
          "name": "_forkID",
          "type": "uint64"
        }
      ],
      "stateMutability": "nonpayable",
      "type": "constructor"
    },
    {
      "inputs": [],
      "name": "BatchAlreadyVerified",
      "type": "error"
    },
    {
      "inputs": [],
      "name": "BatchNotSequencedOrNotSequenceEnd",
      "type": "error"
    },
    {
      "inputs": [],
      "name": "ExceedMaxVerifyBatches",
      "type": "error"
    },
    {
      "inputs": [],
      "name": "FinalNumBatchBelowLastVerifiedBatch",
      "type": "error"
    },
    {
      "inputs": [],
      "name": "FinalNumBatchDoesNotMatchPendingState",
      "type": "error"
    },
    {
      "inputs": [],
      "name": "FinalPendingStateNumInvalid",
      "type": "error"
    },
    {
      "inputs": [],
      "name": "ForceBatchNowAllowed",
      "type": "error"
    },
    {
      "inputs": [],
      "name": "ForceBatchTimeoutNotExpired",
      "type": "error"
    },
    {
      "inputs": [],
      "name": "ForceBatchesOverflow",
      "type": "error"
    },
    {
      "inputs": [],
      "name": "ForcedDataDoesNotMatch",
      "type": "error"
    },
    {
      "inputs": [],
      "name": "GlobalExitRootNotExist",
      "type": "error"
    },
    {
      "inputs": [],
      "name": "HaltTimeoutNotExpired",
      "type": "error"
    },
    {
      "inputs": [],
      "name": "InitNumBatchAboveLastVerifiedBatch",
      "type": "error"
    },
    {
      "inputs": [],
      "name": "InitNumBatchDoesNotMatchPendingState",
      "type": "error"
    },
    {
      "inputs": [],
      "name": "InvalidProof",
      "type": "error"
    },
    {
      "inputs": [],
      "name": "InvalidRangeBatchTimeTarget",
      "type": "error"
    },
    {
      "inputs": [],
      "name": "InvalidRangeMultiplierBatchFee",
      "type": "error"
    },
    {
      "inputs": [],
      "name": "NewAccInputHashDoesNotExist",
      "type": "error"
    },
    {
      "inputs": [],
      "name": "NewPendingStateTimeoutMustBeLower",
      "type": "error"
    },
    {
      "inputs": [],
      "name": "NewTrustedAggregatorTimeoutMustBeLower",
      "type": "error"
    },
    {
      "inputs": [],
      "name": "NotEnoughMaticAmount",
      "type": "error"
    },
    {
      "inputs": [],
      "name": "OldAccInputHashDoesNotExist",
      "type": "error"
    },
    {
      "inputs": [],
      "name": "OldStateRootDoesNotExist",
      "type": "error"
    },
    {
      "inputs": [],
      "name": "OnlyAdmin",
      "type": "error"
    },
    {
      "inputs": [],
      "name": "OnlyEmergencyState",
      "type": "error"
    },
    {
      "inputs": [],
      "name": "OnlyNotEmergencyState",
      "type": "error"
    },
    {
      "inputs": [],
      "name": "OnlyPendingAdmin",
      "type": "error"
    },
    {
      "inputs": [],
      "name": "OnlyTrustedAggregator",
      "type": "error"
    },
    {
      "inputs": [],
      "name": "OnlyTrustedSequencer",
      "type": "error"
    },
    {
      "inputs": [],
      "name": "PendingStateDoesNotExist",
      "type": "error"
    },
    {
      "inputs": [],
      "name": "PendingStateInvalid",
      "type": "error"
    },
    {
      "inputs": [],
      "name": "PendingStateNotConsolidable",
      "type": "error"
    },
    {
      "inputs": [],
      "name": "PendingStateTimeoutExceedHaltAggregationTimeout",
      "type": "error"
    },
    {
      "inputs": [],
      "name": "SequenceZeroBatches",
      "type": "error"
    },
    {
      "inputs": [],
      "name": "SequencedTimestampBelowForcedTimestamp",
      "type": "error"
    },
    {
      "inputs": [],
      "name": "SequencedTimestampInvalid",
      "type": "error"
    },
    {
      "inputs": [],
      "name": "StoredRootMustBeDifferentThanNewRoot",
      "type": "error"
    },
    {
      "inputs": [],
      "name": "TransactionsLengthAboveMax",
      "type": "error"
    },
    {
      "inputs": [],
      "name": "TrustedAggregatorTimeoutExceedHaltAggregationTimeout",
      "type": "error"
    },
    {
      "inputs": [],
      "name": "TrustedAggregatorTimeoutNotExpired",
      "type": "error"
    },
    {
      "anonymous": false,
      "inputs": [
        {
          "indexed": false,
          "internalType": "address",
          "name": "newAdmin",
          "type": "address"
        }
      ],
      "name": "AcceptAdminRole",
      "type": "event"
    },
    {
      "anonymous": false,
      "inputs": [
        {
          "indexed": true,
          "internalType": "uint64",
          "name": "numBatch",
          "type": "uint64"
        },
        {
          "indexed": false,
          "internalType": "bytes32",
          "name": "stateRoot",
          "type": "bytes32"
        },
        {
          "indexed": true,
          "internalType": "uint64",
          "name": "pendingStateNum",
          "type": "uint64"
        }
      ],
      "name": "ConsolidatePendingState",
      "type": "event"
    },
    {
      "anonymous": false,
      "inputs": [],
      "name": "EmergencyStateActivated",
      "type": "event"
    },
    {
      "anonymous": false,
      "inputs": [],
      "name": "EmergencyStateDeactivated",
      "type": "event"
    },
    {
      "anonymous": false,
      "inputs": [
        {
          "indexed": true,
          "internalType": "uint64",
          "name": "forceBatchNum",
          "type": "uint64"
        },
        {
          "indexed": false,
          "internalType": "bytes32",
          "name": "lastGlobalExitRoot",
          "type": "bytes32"
        },
        {
          "indexed": false,
          "internalType": "address",
          "name": "sequencer",
          "type": "address"
        },
        {
          "indexed": false,
          "internalType": "bytes",
          "name": "transactions",
          "type": "bytes"
        }
      ],
      "name": "ForceBatch",
      "type": "event"
    },
    {
      "anonymous": false,
      "inputs": [
        {
          "indexed": false,
          "internalType": "uint8",
          "name": "version",
          "type": "uint8"
        }
      ],
      "name": "Initialized",
      "type": "event"
    },
    {
      "anonymous": false,
      "inputs": [
        {
          "indexed": true,
          "internalType": "uint64",
          "name": "numBatch",
          "type": "uint64"
        },
        {
          "indexed": false,
          "internalType": "bytes32",
          "name": "stateRoot",
          "type": "bytes32"
        },
        {
          "indexed": true,
          "internalType": "address",
          "name": "aggregator",
          "type": "address"
        }
      ],
      "name": "OverridePendingState",
      "type": "event"
    },
    {
      "anonymous": false,
      "inputs": [
        {
          "indexed": true,
          "internalType": "address",
          "name": "previousOwner",
          "type": "address"
        },
        {
          "indexed": true,
          "internalType": "address",
          "name": "newOwner",
          "type": "address"
        }
      ],
      "name": "OwnershipTransferred",
      "type": "event"
    },
    {
      "anonymous": false,
      "inputs": [
        {
          "indexed": false,
          "internalType": "bytes32",
          "name": "storedStateRoot",
          "type": "bytes32"
        },
        {
          "indexed": false,
          "internalType": "bytes32",
          "name": "provedStateRoot",
          "type": "bytes32"
        }
      ],
      "name": "ProveNonDeterministicPendingState",
      "type": "event"
    },
    {
      "anonymous": false,
      "inputs": [
        {
          "indexed": true,
          "internalType": "uint64",
          "name": "numBatch",
          "type": "uint64"
        }
      ],
      "name": "SequenceBatches",
      "type": "event"
    },
    {
      "anonymous": false,
      "inputs": [
        {
          "indexed": true,
          "internalType": "uint64",
          "name": "numBatch",
          "type": "uint64"
        }
      ],
      "name": "SequenceForceBatches",
      "type": "event"
    },
    {
      "anonymous": false,
      "inputs": [
        {
          "indexed": false,
          "internalType": "uint16",
          "name": "newMultiplierBatchFee",
          "type": "uint16"
        }
      ],
      "name": "SetMultiplierBatchFee",
      "type": "event"
    },
    {
      "anonymous": false,
      "inputs": [
        {
          "indexed": false,
          "internalType": "uint64",
          "name": "newPendingStateTimeout",
          "type": "uint64"
        }
      ],
      "name": "SetPendingStateTimeout",
      "type": "event"
    },
    {
      "anonymous": false,
      "inputs": [
        {
          "indexed": false,
          "internalType": "address",
          "name": "newTrustedAggregator",
          "type": "address"
        }
      ],
      "name": "SetTrustedAggregator",
      "type": "event"
    },
    {
      "anonymous": false,
      "inputs": [
        {
          "indexed": false,
          "internalType": "uint64",
          "name": "newTrustedAggregatorTimeout",
          "type": "uint64"
        }
      ],
      "name": "SetTrustedAggregatorTimeout",
      "type": "event"
    },
    {
      "anonymous": false,
      "inputs": [
        {
          "indexed": false,
          "internalType": "address",
          "name": "newTrustedSequencer",
          "type": "address"
        }
      ],
      "name": "SetTrustedSequencer",
      "type": "event"
    },
    {
      "anonymous": false,
      "inputs": [
        {
          "indexed": false,
          "internalType": "string",
          "name": "newTrustedSequencerURL",
          "type": "string"
        }
      ],
      "name": "SetTrustedSequencerURL",
      "type": "event"
    },
    {
      "anonymous": false,
      "inputs": [
        {
          "indexed": false,
          "internalType": "uint64",
          "name": "newVerifyBatchTimeTarget",
          "type": "uint64"
        }
      ],
      "name": "SetVerifyBatchTimeTarget",
      "type": "event"
    },
    {
      "anonymous": false,
      "inputs": [
        {
          "indexed": false,
          "internalType": "address",
          "name": "newPendingAdmin",
          "type": "address"
        }
      ],
      "name": "TransferAdminRole",
      "type": "event"
    },
    {
      "anonymous": false,
      "inputs": [
        {
          "indexed": false,
          "internalType": "uint64",
          "name": "numBatch",
          "type": "uint64"
        },
        {
          "indexed": false,
          "internalType": "uint64",
          "name": "forkID",
          "type": "uint64"
        },
        {
          "indexed": false,
          "internalType": "string",
          "name": "version",
          "type": "string"
        }
      ],
      "name": "UpdateZkEVMVersion",
      "type": "event"
    },
    {
      "anonymous": false,
      "inputs": [
        {
          "indexed": true,
          "internalType": "uint64",
          "name": "numBatch",
          "type": "uint64"
        },
        {
          "indexed": false,
          "internalType": "bytes32",
          "name": "stateRoot",
          "type": "bytes32"
        },
        {
          "indexed": true,
          "internalType": "address",
          "name": "aggregator",
          "type": "address"
        }
      ],
      "name": "VerifyBatches",
      "type": "event"
    },
    {
      "anonymous": false,
      "inputs": [
        {
          "indexed": true,
          "internalType": "uint64",
          "name": "numBatch",
          "type": "uint64"
        },
        {
          "indexed": false,
          "internalType": "bytes32",
          "name": "stateRoot",
          "type": "bytes32"
        },
        {
          "indexed": true,
          "internalType": "address",
          "name": "aggregator",
          "type": "address"
        }
      ],
      "name": "VerifyBatchesTrustedAggregator",
      "type": "event"
    },
    {
      "inputs": [],
      "name": "acceptAdminRole",
      "outputs": [],
      "stateMutability": "nonpayable",
      "type": "function"
    },
    {
      "inputs": [
        {
          "internalType": "uint64",
          "name": "sequencedBatchNum",
          "type": "uint64"
        }
      ],
      "name": "activateEmergencyState",
      "outputs": [],
      "stateMutability": "nonpayable",
      "type": "function"
    },
    {
      "inputs": [],
      "name": "admin",
      "outputs": [
        {
          "internalType": "address",
          "name": "",
          "type": "address"
        }
      ],
      "stateMutability": "view",
      "type": "function"
    },
    {
      "inputs": [],
      "name": "batchFee",
      "outputs": [
        {
          "internalType": "uint256",
          "name": "",
          "type": "uint256"
        }
      ],
      "stateMutability": "view",
      "type": "function"
    },
    {
      "inputs": [
        {
          "internalType": "uint64",
          "name": "",
          "type": "uint64"
        }
      ],
      "name": "batchNumToStateRoot",
      "outputs": [
        {
          "internalType": "bytes32",
          "name": "",
          "type": "bytes32"
        }
      ],
      "stateMutability": "view",
      "type": "function"
    },
    {
      "inputs": [],
      "name": "bridgeAddress",
      "outputs": [
        {
          "internalType": "contract IPolygonZkEVMBridge",
          "name": "",
          "type": "address"
        }
      ],
      "stateMutability": "view",
      "type": "function"
    },
    {
      "inputs": [
        {
          "internalType": "bytes32",
          "name": "currentAccInputHash",
          "type": "bytes32"
        },
        {
          "internalType": "bytes",
          "name": "transactions",
          "type": "bytes"
        },
        {
          "internalType": "bytes32",
          "name": "globalExitRoot",
          "type": "bytes32"
        },
        {
          "internalType": "uint64",
          "name": "timestamp",
          "type": "uint64"
        },
        {
          "internalType": "address",
          "name": "sequencerAddress",
          "type": "address"
        }
      ],
      "name": "calculateAccInputHash",
      "outputs": [
        {
          "internalType": "bytes32",
          "name": "",
          "type": "bytes32"
        }
      ],
      "stateMutability": "pure",
      "type": "function"
    },
    {
      "inputs": [],
      "name": "calculateRewardPerBatch",
      "outputs": [
        {
          "internalType": "uint256",
          "name": "",
          "type": "uint256"
        }
      ],
      "stateMutability": "view",
      "type": "function"
    },
    {
      "inputs": [],
      "name": "chainID",
      "outputs": [
        {
          "internalType": "uint64",
          "name": "",
          "type": "uint64"
        }
      ],
      "stateMutability": "view",
      "type": "function"
    },
    {
      "inputs": [
        {
          "internalType": "uint64",
          "name": "pendingStateNum",
          "type": "uint64"
        }
      ],
      "name": "consolidatePendingState",
      "outputs": [],
      "stateMutability": "nonpayable",
      "type": "function"
    },
    {
      "inputs": [],
      "name": "deactivateEmergencyState",
      "outputs": [],
      "stateMutability": "nonpayable",
      "type": "function"
    },
    {
      "inputs": [
        {
          "internalType": "bytes",
          "name": "transactions",
          "type": "bytes"
        },
        {
          "internalType": "uint256",
          "name": "maticAmount",
          "type": "uint256"
        }
      ],
      "name": "forceBatch",
      "outputs": [],
      "stateMutability": "nonpayable",
      "type": "function"
    },
    {
      "inputs": [],
      "name": "forceBatchTimeout",
      "outputs": [
        {
          "internalType": "uint256",
          "name": "",
          "type": "uint256"
        }
      ],
      "stateMutability": "view",
      "type": "function"
    },
    {
      "inputs": [
        {
          "internalType": "uint64",
          "name": "",
          "type": "uint64"
        }
      ],
      "name": "forcedBatches",
      "outputs": [
        {
          "internalType": "bytes32",
          "name": "",
          "type": "bytes32"
        }
      ],
      "stateMutability": "view",
      "type": "function"
    },
    {
      "inputs": [],
      "name": "forcedBatchesAllowed",
      "outputs": [
        {
          "internalType": "uint256",
          "name": "",
          "type": "uint256"
        }
      ],
      "stateMutability": "view",
      "type": "function"
    },
    {
      "inputs": [],
      "name": "forkID",
      "outputs": [
        {
          "internalType": "uint64",
          "name": "",
          "type": "uint64"
        }
      ],
      "stateMutability": "view",
      "type": "function"
    },
    {
      "inputs": [],
      "name": "getCurrentBatchFee",
      "outputs": [
        {
          "internalType": "uint256",
          "name": "",
          "type": "uint256"
        }
      ],
      "stateMutability": "view",
      "type": "function"
    },
    {
      "inputs": [],
      "name": "getForceBatchTimeout",
      "outputs": [
        {
          "internalType": "uint64",
          "name": "",
          "type": "uint64"
        }
      ],
      "stateMutability": "view",
      "type": "function"
    },
    {
      "inputs": [
        {
          "internalType": "uint64",
          "name": "initNumBatch",
          "type": "uint64"
        },
        {
          "internalType": "uint64",
          "name": "finalNewBatch",
          "type": "uint64"
        },
        {
          "internalType": "bytes32",
          "name": "newLocalExitRoot",
          "type": "bytes32"
        },
        {
          "internalType": "bytes32",
          "name": "oldStateRoot",
          "type": "bytes32"
        },
        {
          "internalType": "bytes32",
          "name": "newStateRoot",
          "type": "bytes32"
        }
      ],
      "name": "getInputSnarkBytes",
      "outputs": [
        {
          "internalType": "bytes",
          "name": "",
          "type": "bytes"
        }
      ],
      "stateMutability": "view",
      "type": "function"
    },
    {
      "inputs": [],
      "name": "getLastVerifiedBatch",
      "outputs": [
        {
          "internalType": "uint64",
          "name": "",
          "type": "uint64"
        }
      ],
      "stateMutability": "view",
      "type": "function"
    },
    {
      "inputs": [
        {
          "internalType": "uint64",
          "name": "pendingStateNum",
          "type": "uint64"
        },
        {
          "internalType": "uint64",
          "name": "initNumBatch",
          "type": "uint64"
        },
        {
          "internalType": "uint64",
          "name": "finalNewBatch",
          "type": "uint64"
        },
        {
          "internalType": "bytes32",
          "name": "newLocalExitRoot",
          "type": "bytes32"
        },
        {
          "internalType": "bytes32",
          "name": "newStateRoot",
          "type": "bytes32"
        }
      ],
      "name": "getNextSnarkInput",
      "outputs": [
        {
          "internalType": "uint256",
          "name": "",
          "type": "uint256"
        }
      ],
      "stateMutability": "view",
      "type": "function"
    },
    {
      "inputs": [],
      "name": "globalExitRootManager",
      "outputs": [
        {
          "internalType": "contract IPolygonZkEVMGlobalExitRoot",
          "name": "",
          "type": "address"
        }
      ],
      "stateMutability": "view",
      "type": "function"
    },
    {
      "inputs": [
        {
          "components": [
            {
              "internalType": "address",
              "name": "admin",
              "type": "address"
            },
            {
              "internalType": "address",
              "name": "trustedSequencer",
              "type": "address"
            },
            {
              "internalType": "uint64",
              "name": "pendingStateTimeout",
              "type": "uint64"
            },
            {
              "internalType": "address",
              "name": "trustedAggregator",
              "type": "address"
            },
            {
              "internalType": "uint64",
              "name": "trustedAggregatorTimeout",
              "type": "uint64"
            }
          ],
          "internalType": "struct PolygonZkEVM.InitializePackedParameters",
          "name": "initializePackedParameters",
          "type": "tuple"
        },
        {
          "internalType": "bytes32",
          "name": "genesisRoot",
          "type": "bytes32"
        },
        {
          "internalType": "string",
          "name": "_trustedSequencerURL",
          "type": "string"
        },
        {
          "internalType": "string",
          "name": "_networkName",
          "type": "string"
        },
        {
          "internalType": "string",
          "name": "_version",
          "type": "string"
        }
      ],
      "name": "initialize",
      "outputs": [],
      "stateMutability": "nonpayable",
      "type": "function"
    },
    {
      "inputs": [],
      "name": "isEmergencyState",
      "outputs": [
        {
          "internalType": "bool",
          "name": "",
          "type": "bool"
        }
      ],
      "stateMutability": "view",
      "type": "function"
    },
    {
      "inputs": [
        {
          "internalType": "uint64",
          "name": "pendingStateNum",
          "type": "uint64"
        }
      ],
      "name": "isPendingStateConsolidable",
      "outputs": [
        {
          "internalType": "bool",
          "name": "",
          "type": "bool"
        }
      ],
      "stateMutability": "view",
      "type": "function"
    },
    {
      "inputs": [],
      "name": "lastBatchSequenced",
      "outputs": [
        {
          "internalType": "uint64",
          "name": "",
          "type": "uint64"
        }
      ],
      "stateMutability": "view",
      "type": "function"
    },
    {
      "inputs": [],
      "name": "lastForceBatch",
      "outputs": [
        {
          "internalType": "uint64",
          "name": "",
          "type": "uint64"
        }
      ],
      "stateMutability": "view",
      "type": "function"
    },
    {
      "inputs": [],
      "name": "lastForceBatchSequenced",
      "outputs": [
        {
          "internalType": "uint64",
          "name": "",
          "type": "uint64"
        }
      ],
      "stateMutability": "view",
      "type": "function"
    },
    {
      "inputs": [],
      "name": "lastPendingState",
      "outputs": [
        {
          "internalType": "uint64",
          "name": "",
          "type": "uint64"
        }
      ],
      "stateMutability": "view",
      "type": "function"
    },
    {
      "inputs": [],
      "name": "lastPendingStateConsolidated",
      "outputs": [
        {
          "internalType": "uint64",
          "name": "",
          "type": "uint64"
        }
      ],
      "stateMutability": "view",
      "type": "function"
    },
    {
      "inputs": [],
      "name": "lastTimestamp",
      "outputs": [
        {
          "internalType": "uint64",
          "name": "",
          "type": "uint64"
        }
      ],
      "stateMutability": "view",
      "type": "function"
    },
    {
      "inputs": [],
      "name": "lastVerifiedBatch",
      "outputs": [
        {
          "internalType": "uint64",
          "name": "",
          "type": "uint64"
        }
      ],
      "stateMutability": "view",
      "type": "function"
    },
    {
      "inputs": [],
      "name": "matic",
      "outputs": [
        {
          "internalType": "contract IERC20Upgradeable",
          "name": "",
          "type": "address"
        }
      ],
      "stateMutability": "view",
      "type": "function"
    },
    {
      "inputs": [],
      "name": "multiplierBatchFee",
      "outputs": [
        {
          "internalType": "uint16",
          "name": "",
          "type": "uint16"
        }
      ],
      "stateMutability": "view",
      "type": "function"
    },
    {
      "inputs": [],
      "name": "networkName",
      "outputs": [
        {
          "internalType": "string",
          "name": "",
          "type": "string"
        }
      ],
      "stateMutability": "view",
      "type": "function"
    },
    {
      "inputs": [
        {
          "internalType": "uint64",
          "name": "initPendingStateNum",
          "type": "uint64"
        },
        {
          "internalType": "uint64",
          "name": "finalPendingStateNum",
          "type": "uint64"
        },
        {
          "internalType": "uint64",
          "name": "initNumBatch",
          "type": "uint64"
        },
        {
          "internalType": "uint64",
          "name": "finalNewBatch",
          "type": "uint64"
        },
        {
          "internalType": "bytes32",
          "name": "newLocalExitRoot",
          "type": "bytes32"
        },
        {
          "internalType": "bytes32",
          "name": "newStateRoot",
          "type": "bytes32"
        },
        {
          "internalType": "bytes",
          "name": "proof",
          "type": "bytes"
        }
      ],
      "name": "overridePendingState",
      "outputs": [],
      "stateMutability": "nonpayable",
      "type": "function"
    },
    {
      "inputs": [],
      "name": "owner",
      "outputs": [
        {
          "internalType": "address",
          "name": "",
          "type": "address"
        }
      ],
      "stateMutability": "view",
      "type": "function"
    },
    {
      "inputs": [],
      "name": "pendingAdmin",
      "outputs": [
        {
          "internalType": "address",
          "name": "",
          "type": "address"
        }
      ],
      "stateMutability": "view",
      "type": "function"
    },
    {
      "inputs": [],
      "name": "pendingStateTimeout",
      "outputs": [
        {
          "internalType": "uint64",
          "name": "",
          "type": "uint64"
        }
      ],
      "stateMutability": "view",
      "type": "function"
    },
    {
      "inputs": [
        {
          "internalType": "uint256",
          "name": "",
          "type": "uint256"
        }
      ],
      "name": "pendingStateTransitions",
      "outputs": [
        {
          "internalType": "uint64",
          "name": "timestamp",
          "type": "uint64"
        },
        {
          "internalType": "uint64",
          "name": "lastVerifiedBatch",
          "type": "uint64"
        },
        {
          "internalType": "bytes32",
          "name": "exitRoot",
          "type": "bytes32"
        },
        {
          "internalType": "bytes32",
          "name": "stateRoot",
          "type": "bytes32"
        }
      ],
      "stateMutability": "view",
      "type": "function"
    },
    {
      "inputs": [
        {
          "internalType": "uint64",
          "name": "initPendingStateNum",
          "type": "uint64"
        },
        {
          "internalType": "uint64",
          "name": "finalPendingStateNum",
          "type": "uint64"
        },
        {
          "internalType": "uint64",
          "name": "initNumBatch",
          "type": "uint64"
        },
        {
          "internalType": "uint64",
          "name": "finalNewBatch",
          "type": "uint64"
        },
        {
          "internalType": "bytes32",
          "name": "newLocalExitRoot",
          "type": "bytes32"
        },
        {
          "internalType": "bytes32",
          "name": "newStateRoot",
          "type": "bytes32"
        },
        {
          "internalType": "bytes",
          "name": "proof",
          "type": "bytes"
        }
      ],
      "name": "proveNonDeterministicPendingState",
      "outputs": [],
      "stateMutability": "nonpayable",
      "type": "function"
    },
    {
      "inputs": [],
      "name": "renounceOwnership",
      "outputs": [],
      "stateMutability": "nonpayable",
      "type": "function"
    },
    {
      "inputs": [],
      "name": "rollupVerifier",
      "outputs": [
        {
          "internalType": "contract IVerifierRollup",
          "name": "",
          "type": "address"
        }
      ],
      "stateMutability": "view",
      "type": "function"
    },
    {
      "inputs": [
        {
          "components": [
            {
              "internalType": "bytes",
              "name": "transactions",
              "type": "bytes"
            },
            {
              "internalType": "bytes32",
              "name": "globalExitRoot",
              "type": "bytes32"
            },
            {
              "internalType": "uint64",
              "name": "timestamp",
              "type": "uint64"
            },
            {
              "internalType": "uint64",
              "name": "minForcedTimestamp",
              "type": "uint64"
            }
          ],
          "internalType": "struct PolygonZkEVM.BatchData[]",
          "name": "batches",
          "type": "tuple[]"
        },
        {
          "internalType": "address",
          "name": "l2Coinbase",
          "type": "address"
        }
      ],
      "name": "sequenceBatches",
      "outputs": [],
      "stateMutability": "nonpayable",
      "type": "function"
    },
    {
      "inputs": [
        {
          "components": [
            {
              "internalType": "bytes",
              "name": "transactions",
              "type": "bytes"
            },
            {
              "internalType": "bytes32",
              "name": "globalExitRoot",
              "type": "bytes32"
            },
            {
              "internalType": "uint64",
              "name": "minForcedTimestamp",
              "type": "uint64"
            }
          ],
          "internalType": "struct PolygonZkEVM.ForcedBatchData[]",
          "name": "batches",
          "type": "tuple[]"
        }
      ],
      "name": "sequenceForceBatches",
      "outputs": [],
      "stateMutability": "nonpayable",
      "type": "function"
    },
    {
      "inputs": [
        {
          "internalType": "uint64",
          "name": "",
          "type": "uint64"
        }
      ],
      "name": "sequencedBatches",
      "outputs": [
        {
          "internalType": "bytes32",
          "name": "accInputHash",
          "type": "bytes32"
        },
        {
          "internalType": "uint64",
          "name": "sequencedTimestamp",
          "type": "uint64"
        },
        {
          "internalType": "uint64",
          "name": "previousLastBatchSequenced",
          "type": "uint64"
        }
      ],
      "stateMutability": "view",
      "type": "function"
    },
    {
      "inputs": [
        {
          "internalType": "uint64",
          "name": "newforceBatchTimeout",
          "type": "uint64"
        }
      ],
      "name": "setForceBatchTimeout",
      "outputs": [],
      "stateMutability": "nonpayable",
      "type": "function"
    },
    {
      "inputs": [
        {
          "internalType": "uint256",
          "name": "newForcedBatchesAllowed",
          "type": "uint256"
        }
      ],
      "name": "setForcedBatchesAllowed",
      "outputs": [],
      "stateMutability": "nonpayable",
      "type": "function"
    },
    {
      "inputs": [
        {
          "internalType": "uint16",
          "name": "newMultiplierBatchFee",
          "type": "uint16"
        }
      ],
      "name": "setMultiplierBatchFee",
      "outputs": [],
      "stateMutability": "nonpayable",
      "type": "function"
    },
    {
      "inputs": [
        {
          "internalType": "string",
          "name": "_networkName",
          "type": "string"
        }
      ],
      "name": "setNetworkName",
      "outputs": [],
      "stateMutability": "nonpayable",
      "type": "function"
    },
    {
      "inputs": [
        {
          "internalType": "uint64",
          "name": "newPendingStateTimeout",
          "type": "uint64"
        }
      ],
      "name": "setPendingStateTimeout",
      "outputs": [],
      "stateMutability": "nonpayable",
      "type": "function"
    },
    {
      "inputs": [
        {
          "internalType": "uint64",
          "name": "_numBatch",
          "type": "uint64"
        }
      ],
      "name": "setSequencedBatch",
      "outputs": [],
      "stateMutability": "nonpayable",
      "type": "function"
    },
    {
      "inputs": [
        {
          "internalType": "uint64",
          "name": "batchNum",
          "type": "uint64"
        },
        {
          "internalType": "bytes32",
          "name": "accInputData",
          "type": "bytes32"
        },
        {
          "internalType": "uint64",
          "name": "timestamp",
          "type": "uint64"
        },
        {
          "internalType": "uint64",
          "name": "lastPendingStateConsolidated",
          "type": "uint64"
        }
      ],
      "name": "setSequencedBatches",
      "outputs": [],
      "stateMutability": "nonpayable",
      "type": "function"
    },
    {
      "inputs": [
        {
          "internalType": "bytes32",
          "name": "newStateRoot",
          "type": "bytes32"
        },
        {
          "internalType": "uint64",
          "name": "batchNum",
          "type": "uint64"
        }
      ],
      "name": "setStateRoot",
      "outputs": [],
      "stateMutability": "nonpayable",
      "type": "function"
    },
    {
      "inputs": [
        {
          "internalType": "address",
          "name": "newTrustedAggregator",
          "type": "address"
        }
      ],
      "name": "setTrustedAggregator",
      "outputs": [],
      "stateMutability": "nonpayable",
      "type": "function"
    },
    {
      "inputs": [
        {
          "internalType": "uint64",
          "name": "newTrustedAggregatorTimeout",
          "type": "uint64"
        }
      ],
      "name": "setTrustedAggregatorTimeout",
      "outputs": [],
      "stateMutability": "nonpayable",
      "type": "function"
    },
    {
      "inputs": [
        {
          "internalType": "address",
          "name": "newTrustedSequencer",
          "type": "address"
        }
      ],
      "name": "setTrustedSequencer",
      "outputs": [],
      "stateMutability": "nonpayable",
      "type": "function"
    },
    {
      "inputs": [
        {
          "internalType": "string",
          "name": "newTrustedSequencerURL",
          "type": "string"
        }
      ],
      "name": "setTrustedSequencerURL",
      "outputs": [],
      "stateMutability": "nonpayable",
      "type": "function"
    },
    {
      "inputs": [
        {
          "internalType": "uint64",
          "name": "_numBatch",
          "type": "uint64"
        }
      ],
      "name": "setVerifiedBatch",
      "outputs": [],
      "stateMutability": "nonpayable",
      "type": "function"
    },
    {
      "inputs": [
        {
          "internalType": "uint64",
          "name": "newVerifyBatchTimeTarget",
          "type": "uint64"
        }
      ],
      "name": "setVerifyBatchTimeTarget",
      "outputs": [],
      "stateMutability": "nonpayable",
      "type": "function"
    },
    {
      "inputs": [
        {
          "internalType": "address",
          "name": "newPendingAdmin",
          "type": "address"
        }
      ],
      "name": "transferAdminRole",
      "outputs": [],
      "stateMutability": "nonpayable",
      "type": "function"
    },
    {
      "inputs": [
        {
          "internalType": "address",
          "name": "newOwner",
          "type": "address"
        }
      ],
      "name": "transferOwnership",
      "outputs": [],
      "stateMutability": "nonpayable",
      "type": "function"
    },
    {
      "inputs": [],
      "name": "trustedAggregator",
      "outputs": [
        {
          "internalType": "address",
          "name": "",
          "type": "address"
        }
      ],
      "stateMutability": "view",
      "type": "function"
    },
    {
      "inputs": [],
      "name": "trustedAggregatorTimeout",
      "outputs": [
        {
          "internalType": "uint64",
          "name": "",
          "type": "uint64"
        }
      ],
      "stateMutability": "view",
      "type": "function"
    },
    {
      "inputs": [],
      "name": "trustedSequencer",
      "outputs": [
        {
          "internalType": "address",
          "name": "",
          "type": "address"
        }
      ],
      "stateMutability": "view",
      "type": "function"
    },
    {
      "inputs": [],
      "name": "trustedSequencerURL",
      "outputs": [
        {
          "internalType": "string",
          "name": "",
          "type": "string"
        }
      ],
      "stateMutability": "view",
      "type": "function"
    },
    {
      "inputs": [
        {
          "internalType": "uint64",
          "name": "pendingStateNum",
          "type": "uint64"
        },
        {
          "internalType": "uint64",
          "name": "initNumBatch",
          "type": "uint64"
        },
        {
          "internalType": "uint64",
          "name": "finalNewBatch",
          "type": "uint64"
        },
        {
          "internalType": "bytes32",
          "name": "newLocalExitRoot",
          "type": "bytes32"
        },
        {
          "internalType": "bytes32",
          "name": "newStateRoot",
          "type": "bytes32"
        },
        {
          "internalType": "uint256[2]",
          "name": "proofA",
          "type": "uint256[2]"
        },
        {
          "internalType": "uint256[2][2]",
          "name": "proofB",
          "type": "uint256[2][2]"
        },
        {
          "internalType": "uint256[2]",
          "name": "proofC",
          "type": "uint256[2]"
        }
      ],
      "name": "trustedVerifyBatchesMock",
      "outputs": [],
      "stateMutability": "nonpayable",
      "type": "function"
    },
    {
      "inputs": [
        {
          "internalType": "uint64",
          "name": "newLastVerifiedBatch",
          "type": "uint64"
        }
      ],
      "name": "updateBatchFee",
      "outputs": [],
      "stateMutability": "nonpayable",
      "type": "function"
    },
    {
      "inputs": [],
      "name": "verifyBatchTimeTarget",
      "outputs": [
        {
          "internalType": "uint64",
          "name": "",
          "type": "uint64"
        }
      ],
      "stateMutability": "view",
      "type": "function"
    },
    {
      "inputs": [
        {
          "internalType": "uint64",
          "name": "pendingStateNum",
          "type": "uint64"
        },
        {
          "internalType": "uint64",
          "name": "initNumBatch",
          "type": "uint64"
        },
        {
          "internalType": "uint64",
          "name": "finalNewBatch",
          "type": "uint64"
        },
        {
          "internalType": "bytes32",
          "name": "newLocalExitRoot",
          "type": "bytes32"
        },
        {
          "internalType": "bytes32",
          "name": "newStateRoot",
          "type": "bytes32"
        },
        {
          "internalType": "bytes",
          "name": "proof",
          "type": "bytes"
        }
      ],
      "name": "verifyBatches",
      "outputs": [],
      "stateMutability": "nonpayable",
      "type": "function"
    },
    {
      "inputs": [
        {
          "internalType": "uint64",
          "name": "pendingStateNum",
          "type": "uint64"
        },
        {
          "internalType": "uint64",
          "name": "initNumBatch",
          "type": "uint64"
        },
        {
          "internalType": "uint64",
          "name": "finalNewBatch",
          "type": "uint64"
        },
        {
          "internalType": "bytes32",
          "name": "newLocalExitRoot",
          "type": "bytes32"
        },
        {
          "internalType": "bytes32",
          "name": "newStateRoot",
          "type": "bytes32"
        },
        {
          "internalType": "bytes",
          "name": "proof",
          "type": "bytes"
        }
      ],
      "name": "verifyBatchesTrustedAggregator",
      "outputs": [],
      "stateMutability": "nonpayable",
      "type": "function"
    }
  ],
  "bytecode": "0x6101406040523480156200001257600080fd5b50604051620051a2380380620051a28339810160408190526200003591620000a5565b6001600160a01b0395861660c05293851660805291841660a05290921660e0526001600160401b0391821661010052166101205262000131565b6001600160a01b03811681146200008557600080fd5b50565b80516001600160401b0381168114620000a057600080fd5b919050565b60008060008060008060c08789031215620000bf57600080fd5b8651620000cc816200006f565b6020880151909650620000df816200006f565b6040880151909550620000f2816200006f565b606088015190945062000105816200006f565b9250620001156080880162000088565b91506200012560a0880162000088565b90509295509295509295565b60805160a05160c05160e0516101005161012051614fa3620001ff600039600081816106390152818161112c01526126510152600081816107b2015261110201526000818161076501528181612a75015261313e01526000818161090801528181610eeb0152818161148e015281816118670152818161216001528181612c02015281816132f00152613b4c0152600081816109b70152818161305e015261358b01526000818161088701528181611b0201528181611de0015281816136530152613b200152614fa36000f3fe608060405234801561001057600080fd5b506004361061039d5760003560e01c8063971450dc116101eb578063c89e42df11610110578063e6ad707e116100a8578063e6ad707e14610985578063e7a7ed0214610998578063e8bf92ed146109b2578063eaeb077b146109d9578063f14916d6146109ec578063f2fde38b146109ff578063f851a44014610a12578063f8b823e414610a25578063fe16564f14610a2e57600080fd5b8063c89e42df146108cd578063cc4c2249146108e0578063cfa8ed47146108e9578063d02103ca14610903578063d2e129f91461092a578063d8d1091b1461093d578063d939b31514610950578063dbc169761461096a578063e0d174411461097257600080fd5b8063adc879e911610183578063adc879e9146107ad578063afd23cbe146107d4578063b4d63f58146107fc578063b4f77ea91461085c578063b68f3c3b1461086f578063b6b0b09714610882578063c0cad302146108a9578063c0ed84e0146108bc578063c754c7ed146108c457600080fd5b8063971450dc1461070f57806399f5634e146107175780639b7967601461071f5780639c9f3dfe146107325780639f0d039d14610745578063a066215c1461074d578063a3c573eb14610760578063a50a164b14610787578063ada8f9191461079a57600080fd5b80634a910e6a116102d1578063715018a611610269578063715018a6146106065780637215541a1461060e5780637fcb365314610621578063831c7ead14610634578063837a47381461065b578063841b24d7146106c95780638c3d7301146106e35780638da5cb5b146106eb57806396dc3d39146106fc57600080fd5b80634a910e6a1461054c5780634e4877061461055f5780634fd70464146105725780635392c5e014610585578063542028d5146105a5578063574f649e146105ad5780635e9145c9146105c05780636b8616ce146105d35780636ff512cc146105f357600080fd5b8063220d789911610344578063220d789914610478578063267822471461048b57806329878983146104ab578063383b3be8146104c5578063394218e9146104d8578063423fa856146104eb5780634560526714610505578063458c04771461051f5780634a1a89a71461053257600080fd5b80630808270c146103a25780630a0d9fbe146103b75780630eaa86ea146103ec578063107bf28c1461040d57806310a01a721461042257806315064c96146104355780631816b7e51461045257806319d8ac6114610465575b600080fd5b6103b56103b0366004614098565b610a41565b005b606f546103cf9061010090046001600160401b031681565b6040516001600160401b0390911681526020015b60405180910390f35b6103ff6103fa366004614130565b610ada565b6040519081526020016103e3565b610415610ca9565b6040516103e391906141d5565b6103b5610430366004614206565b610d37565b606f546104429060ff1681565b60405190151581526020016103e3565b6103b5610460366004614299565b610f9c565b6073546103cf906001600160401b031681565b6104156104863660046142bd565b611055565b607b5461049e906001600160a01b031681565b6040516103e3919061430a565b60745461049e90600160401b90046001600160a01b031681565b6104426104d336600461431e565b61118a565b6103b56104e636600461431e565b6111d1565b6073546103cf90600160401b90046001600160401b031681565b6073546103cf90600160801b90046001600160401b031681565b6079546103cf906001600160401b031681565b6079546103cf90600160401b90046001600160401b031681565b6103b561055a36600461431e565b6112bf565b6103b561056d36600461431e565b61132e565b6103b5610580366004614339565b611344565b6103ff61059336600461431e565b60756020526000908152604090205481565b6104156115f2565b6103ff6105bb36600461447a565b6115ff565b6103b56105ce36600461452f565b611642565b6103ff6105e136600461431e565b60716020526000908152604090205481565b6103b5610601366004614582565b611b72565b6103b5611bf1565b6103b561061c36600461431e565b611c05565b6074546103cf906001600160401b031681565b6103cf7f000000000000000000000000000000000000000000000000000000000000000081565b61069e61066936600461459d565b6078602052600090815260409020805460018201546002909201546001600160401b0380831693600160401b90930416919084565b604080516001600160401b0395861681529490931660208501529183015260608201526080016103e3565b6079546103cf90600160c01b90046001600160401b031681565b6103b5611d12565b6033546001600160a01b031661049e565b6103b561070a36600461431e565b611d96565b6103cf611dc0565b6103ff611ddb565b6103b561072d36600461431e565b611ee8565b6103b561074036600461431e565b611f1d565b6070546103ff565b6103b561075b36600461431e565b612010565b61049e7f000000000000000000000000000000000000000000000000000000000000000081565b6103b5610795366004614339565b6120bf565b6103b56107a8366004614582565b612201565b6103cf7f000000000000000000000000000000000000000000000000000000000000000081565b606f546107e990600160481b900461ffff1681565b60405161ffff90911681526020016103e3565b61083761080a36600461431e565b607260205260009081526040902080546001909101546001600160401b0380821691600160401b90041683565b604080519384526001600160401b0392831660208501529116908201526060016103e3565b6103b561086a36600461431e565b612277565b6103b561087d36600461459d565b612288565b61049e7f000000000000000000000000000000000000000000000000000000000000000081565b6103b56108b73660046145b6565b612295565b6103cf6122ad565b6103ff607d5481565b6103b56108db3660046145b6565b6122fa565b6103ff607c5481565b606f5461049e90600160581b90046001600160a01b031681565b61049e7f000000000000000000000000000000000000000000000000000000000000000081565b6103b56109383660046145ea565b612361565b6103b561094b36600461469c565b6126d9565b6079546103cf90600160801b90046001600160401b031681565b6103b5612a48565b6103b56109803660046146dd565b612aee565b6103b5610993366004614098565b612b60565b6073546103cf90600160c01b90046001600160401b031681565b61049e7f000000000000000000000000000000000000000000000000000000000000000081565b6103b56109e736600461472a565b612cc6565b6103b56109fa366004614582565b612cf7565b6103b5610a0d366004614582565b612d76565b607a5461049e906001600160a01b031681565b6103ff60705481565b6103b5610a3c366004614775565b612dec565b606f5460ff1615610a6557604051630bc011ff60e21b815260040160405180910390fd5b610a758888888888888888612e0e565b6001600160401b0385166000908152607560209081526040918290205482519081529081018590527f1f44c21118c4603cfb4e1b621dbcfa2b73efcececee2b99b620b2953d33a7010910160405180910390a1610ad061313c565b5050505050505050565b6000806000610ae76122ad565b90506001600160401b03881615610b84576079546001600160401b039081169089161115610b305760405162461bcd60e51b8152600401610b27906147a1565b60405180910390fd5b6001600160401b038089166000908152607860205260409020600281015481549094509091898116600160401b9092041614610b7e5760405162461bcd60e51b8152600401610b279061481f565b50610bee565b6001600160401b038716600090815260756020526040902054915081610bbc5760405162461bcd60e51b8152600401610b279061487f565b806001600160401b0316876001600160401b03161115610bee5760405162461bcd60e51b8152600401610b27906148d6565b806001600160401b0316866001600160401b031611610c1f5760405162461bcd60e51b8152600401610b2790614947565b6000610c2e8888888689611055565b90506000600080516020614f4e833981519152600283604051610c5191906149c4565b602060405180830381855afa158015610c6e573d6000803e3d6000fd5b5050506040513d601f19601f82011682018060405250810190610c9191906149e0565b610c9b9190614a0f565b9a9950505050505050505050565b60778054610cb690614a23565b80601f0160208091040260200160405190810160405280929190818152602001828054610ce290614a23565b8015610d2f5780601f10610d0457610100808354040283529160200191610d2f565b820191906000526020600020905b815481529060010190602001808311610d1257829003601f168201915b505050505081565b610d3f6131b7565b600080610d4a6122ad565b90506001600160401b038a1615610dde576079546001600160401b03908116908b161115610d8a5760405162461bcd60e51b8152600401610b27906147a1565b6001600160401b03808b1660009081526078602052604090206002810154815490945090918b8116600160401b9092041614610dd85760405162461bcd60e51b8152600401610b279061481f565b50610e48565b6001600160401b038916600090815260756020526040902054915081610e165760405162461bcd60e51b8152600401610b279061487f565b806001600160401b0316896001600160401b03161115610e485760405162461bcd60e51b8152600401610b27906148d6565b806001600160401b0316886001600160401b031611610e795760405162461bcd60e51b8152600401610b2790614947565b6000610e888a8a8a868b611055565b607480546001600160401b0319166001600160401b038c811691821790925560009081526075602052604090208990556079549192501615610ed557607980546001600160801b03191690555b6040516333d6247d60e01b8152600481018990527f00000000000000000000000000000000000000000000000000000000000000006001600160a01b0316906333d6247d90602401600060405180830381600087803b158015610f3757600080fd5b505af1158015610f4b573d6000803e3d6000fd5b50506040518981523392506001600160401b038c1691507fcb339b570a7f0b25afa7333371ff11192092a0aeace12b671f4c212f2815c6fe9060200160405180910390a35050505050505050505050565b607a546001600160a01b03163314610fc757604051634755657960e01b815260040160405180910390fd5b6103e88161ffff161080610fe057506103ff8161ffff16115b15610ffe57604051630984a67960e31b815260040160405180910390fd5b606f805461ffff60481b1916600160481b61ffff8416908102919091179091556040519081527f7019933d795eba185c180209e8ae8bffbaa25bcef293364687702c31f4d302c5906020015b60405180910390a150565b6001600160401b038086166000818152607260205260408082205493881682529020546060929115801590611088575081155b156110a65760405163340c614f60e11b815260040160405180910390fd5b806110c4576040516366385b5160e01b815260040160405180910390fd5b604080516001600160601b03193360601b166020820152603481019690965260548601929092526001600160c01b031960c098891b811660748701527f0000000000000000000000000000000000000000000000000000000000000000891b8116607c8701527f0000000000000000000000000000000000000000000000000000000000000000891b81166084870152608c86019490945260ac85015260cc840194909452509290931b90911660ec830152805180830360d401815260f4909201905290565b6079546001600160401b03828116600090815260786020526040812054909242926111c092600160801b90920481169116614a73565b6001600160401b0316111592915050565b607a546001600160a01b031633146111fc57604051634755657960e01b815260040160405180910390fd5b62093a806001600160401b038216111561122957604051631d06e87960e01b815260040160405180910390fd5b606f5460ff16611269576079546001600160401b03600160c01b9091048116908216106112695760405163401636df60e01b815260040160405180910390fd5b607980546001600160c01b0316600160c01b6001600160401b038416908102919091179091556040519081527f1f4fa24c2e4bad19a7f3ec5c5485f70d46c798461c2e684f55bbd0fc661373a19060200161104a565b607454600160401b90046001600160a01b0316331461132257606f5460ff16156112fc57604051630bc011ff60e21b815260040160405180910390fd5b6113058161118a565b61132257604051630674f25160e11b815260040160405180910390fd5b61132b81613211565b50565b6113366131b7565b6001600160401b0316607d55565b606f5460ff161561136857604051630bc011ff60e21b815260040160405180910390fd5b6079546001600160401b03868116600090815260726020526040902060010154429261139f92600160c01b90910481169116614a73565b6001600160401b031611156113c757604051638a0704d360e01b815260040160405180910390fd5b6103e86113d48787614a9a565b6001600160401b031611156113fc57604051635acfba9d60e11b815260040160405180910390fd5b61140b878787878787876133aa565b6114148561367a565b607954600160801b90046001600160401b03166000036114f757607480546001600160401b0319166001600160401b038781169182179092556000908152607560205260409020849055607954161561147857607980546001600160801b03191690555b6040516333d6247d60e01b8152600481018590527f00000000000000000000000000000000000000000000000000000000000000006001600160a01b0316906333d6247d90602401600060405180830381600087803b1580156114da57600080fd5b505af11580156114ee573d6000803e3d6000fd5b505050506115a8565b6114ff61386e565b607980546001600160401b031690600061151883614aba565b82546001600160401b039182166101009390930a92830292820219169190911790915560408051608081018252428316815288831660208083019182528284018a8152606084018a8152607954871660009081526078909352949091209251835492518616600160401b026001600160801b03199093169516949094171781559151600183015551600290910155505b60405183815233906001600160401b038716907f9c72852172521097ba7e1482e6b44b351323df0155f97f4ea18fcec28e1f5966906020015b60405180910390a350505050505050565b60768054610cb690614a23565b6000858580519060200120858585604051602001611621959493929190614ae0565b60405160208183030381529060405280519060200120905095945050505050565b606f5460ff161561166657604051630bc011ff60e21b815260040160405180910390fd5b606f54600160581b90046001600160a01b03163314611698576040516311e7be1560e01b815260040160405180910390fd5b8160008190036116bb5760405163cb591a5f60e01b815260040160405180910390fd5b6103e88111156116de57604051635acfba9d60e11b815260040160405180910390fd5b6073546001600160401b03600160401b82048116600081815260726020526040812054838516949293600160801b909304909216919082905b868110156119c55760008a8a8381811061173357611733614b1f565b90506020028101906117459190614b35565b61174e90614b4b565b805180516020909101206060820151919250906001600160401b03161561183d578561177981614aba565b9650506000818360200151846060015160405160200161179b93929190614bd7565b60408051601f1981840301815291815281516020928301206001600160401b038a166000908152607190935291205490915081146117ec5760405163671ebaaf60e11b815260040160405180910390fd5b6001600160401b03808816600090815260716020526040808220919091556060850151908501519082169116101561183757604051633fbd5c3960e11b815260040160405180910390fd5b50611922565b6020820151158015906118de575060208201516040516312bd9b1960e11b815260048101919091527f00000000000000000000000000000000000000000000000000000000000000006001600160a01b03169063257b3632906024016020604051808303816000875af11580156118b8573d6000803e3d6000fd5b505050506040513d601f19601f820116820180604052508101906118dc91906149e0565b155b156118fc576040516373bd668d60e01b815260040160405180910390fd5b815151620493e01015611922576040516328a69b1f60e21b815260040160405180910390fd5b876001600160401b031682604001516001600160401b0316108061195257504282604001516001600160401b0316115b15611970576040516375413c8b60e11b815260040160405180910390fd5b8481836020015184604001518d604051602001611991959493929190614ae0565b60405160208183030381529060405280519060200120945081604001519750505080806119bd90614bfa565b915050611717565b506119d08685614a73565b6073549094506001600160401b03600160c01b90910481169084161115611a0a5760405163c630a00d60e01b815260040160405180910390fd5b6000611a168285614a9a565b611a29906001600160401b031688614c13565b60408051606081018252858152426001600160401b03908116602080840191825260738054600160401b9081900485168688019081528d861660008181526072909552979093209551865592516001909501805492519585166001600160801b03199384161795851684029590951790945583548c8416911617930292909217905590915082811690851614611adf576073805467ffffffffffffffff60801b1916600160801b6001600160401b038716021790555b611b2a333083611aee60705490565b611af89190614c26565b6001600160a01b037f00000000000000000000000000000000000000000000000000000000000000001692919061390e565b611b3261386e565b6040516001600160401b038616907f303446e6a8cb73c83dff421c0b1d5e5ce0719dab1bff13660fc254e58cc17fce90600090a250505050505050505050565b607a546001600160a01b03163314611b9d57604051634755657960e01b815260040160405180910390fd5b606f8054600160581b600160f81b031916600160581b6001600160a01b038416021790556040517ff54144f9611984021529f814a1cb6a41e22c58351510a0d9f7e822618abb9cc09061104a90839061430a565b611bf96131b7565b611c03600061397f565b565b6033546001600160a01b03163314611d0a576000611c216122ad565b9050806001600160401b0316826001600160401b031611611c555760405163812a372d60e01b815260040160405180910390fd5b6073546001600160401b03600160401b90910481169083161180611c9457506001600160401b0380831660009081526072602052604090206001015416155b15611cb257604051632631700560e21b815260040160405180910390fd5b6001600160401b038083166000908152607260205260409020600101544291611ce09162093a809116614a73565b6001600160401b03161115611d085760405163692baaad60e11b815260040160405180910390fd5b505b61132b61313c565b607b546001600160a01b03163314611d3d5760405163d1ec4b2360e01b815260040160405180910390fd5b607b54607a80546001600160a01b0319166001600160a01b0390921691821790556040517f056dc487bbf0795d0bbb1b4f0af523a855503cff740bfb4d5475f7a90c091e8e91611d8c9161430a565b60405180910390a1565b611d9e6131b7565b607480546001600160401b0319166001600160401b0392909216919091179055565b6000607d54600003611dd457506206978090565b50607d5490565b6000807f00000000000000000000000000000000000000000000000000000000000000006001600160a01b03166370a08231306040518263ffffffff1660e01b8152600401611e2a919061430a565b602060405180830381865afa158015611e47573d6000803e3d6000fd5b505050506040513d601f19601f82011682018060405250810190611e6b91906149e0565b90506000611e776122ad565b6073546001600160401b03600160401b8204811691611ea791600160801b8204811691600160c01b900416614a9a565b611eb19190614a73565b611ebb9190614a9a565b6001600160401b0316905080600003611ed75760009250505090565b611ee18183614c3d565b9250505090565b611ef06131b7565b607380546001600160401b03909216600160401b0267ffffffffffffffff60401b19909216919091179055565b607a546001600160a01b03163314611f4857604051634755657960e01b815260040160405180910390fd5b62093a806001600160401b0382161115611f7557604051630cc9650760e41b815260040160405180910390fd5b606f5460ff16611fb5576079546001600160401b03600160801b909104811690821610611fb55760405163048a05a960e41b815260040160405180910390fd5b6079805467ffffffffffffffff60801b1916600160801b6001600160401b038416908102919091179091556040519081527fc4121f4e22c69632ebb7cf1f462be0511dc034f999b52013eddfb24aab765c759060200161104a565b607a546001600160a01b0316331461203b57604051634755657960e01b815260040160405180910390fd5b62015180816001600160401b0316111561206857604051631c0cfbfd60e31b815260040160405180910390fd5b606f805468ffffffffffffffff0019166101006001600160401b038416908102919091179091556040519081527f1b023231a1ab6b5d93992f168fb44498e1a7e64cef58daff6f1c216de6a68c289060200161104a565b607454600160401b90046001600160a01b031633146120f15760405163bbcbbc0560e01b815260040160405180910390fd5b612100878787878787876133aa565b607480546001600160401b0319166001600160401b038781169182179092556000908152607560205260409020849055607954161561214a57607980546001600160801b03191690555b6040516333d6247d60e01b8152600481018590527f00000000000000000000000000000000000000000000000000000000000000006001600160a01b0316906333d6247d90602401600060405180830381600087803b1580156121ac57600080fd5b505af11580156121c0573d6000803e3d6000fd5b50506040518581523392506001600160401b03881691507fcb339b570a7f0b25afa7333371ff11192092a0aeace12b671f4c212f2815c6fe906020016115e1565b607a546001600160a01b0316331461222c57604051634755657960e01b815260040160405180910390fd5b607b80546001600160a01b0319166001600160a01b0383161790556040517fa5b56b7906fd0a20e3f35120dd8343db1e12e037a6c90111c7e42885e82a1ce69061104a90839061430a565b61227f6131b7565b61132b8161367a565b6122906131b7565b607c55565b61229d6131b7565b60776122a98282614c9f565b5050565b6079546000906001600160401b0316156122ea57506079546001600160401b03908116600090815260786020526040902054600160401b90041690565b506074546001600160401b031690565b607a546001600160a01b0316331461232557604051634755657960e01b815260040160405180910390fd5b60766123318282614c9f565b507f6b8f723a4c7a5335cafae8a598a0aa0301be1387c037dccc085b62add6448b208160405161104a91906141d5565b600054610100900460ff16158080156123815750600054600160ff909116105b8061239b5750303b15801561239b575060005460ff166001145b6123fe5760405162461bcd60e51b815260206004820152602e60248201527f496e697469616c697a61626c653a20636f6e747261637420697320616c72656160448201526d191e481a5b9a5d1a585b1a5e995960921b6064820152608401610b27565b6000805460ff191660011790558015612421576000805461ff0019166101001790555b61242e6020880188614582565b607a80546001600160a01b0319166001600160a01b039290921691909117905561245e6040880160208901614582565b606f80546001600160a01b0392909216600160581b02600160581b600160f81b03199092169190911790556124996080880160608901614582565b607480546001600160a01b0392909216600160401b02600160401b600160e01b03199092169190911790556000805260756020527ff9e3fbf150b7a0077118526f473c53cb4734f166167e2c6213e3567dd390b4ad86905560766124fd8682614c9f565b50607761250a8582614c9f565b5062093a8061251f6060890160408a0161431e565b6001600160401b0316111561254757604051630cc9650760e41b815260040160405180910390fd5b612557606088016040890161431e565b607980546001600160401b0392909216600160801b0267ffffffffffffffff60801b1990921691909117905562093a8061259760a0890160808a0161431e565b6001600160401b031611156125bf57604051631d06e87960e01b815260040160405180910390fd5b6125cf60a088016080890161431e565b607980546001600160c01b0316600160c01b6001600160401b039390931692909202919091179055670de0b6b3a7640000607055606f80546affffffffffffffffffff0019166a03ea00000000000007080017905561262c6139d1565b7fed7be53c9f1a96a481223b15568a5b1a475e01a74b347d6ca187c8bf0c078cd660007f000000000000000000000000000000000000000000000000000000000000000085856040516126829493929190614d87565b60405180910390a180156126d0576000805461ff0019169055604051600181527f7f26b83ff96e1f2b6a682f133852f6798a09c465da95921460cefb38474024989060200160405180910390a15b50505050505050565b607c54156126fa57604051634f60026960e11b815260040160405180910390fd5b606f5460ff161561271e57604051630bc011ff60e21b815260040160405180910390fd5b8060008190036127415760405163cb591a5f60e01b815260040160405180910390fd5b6103e881111561276457604051635acfba9d60e11b815260040160405180910390fd5b6073546001600160401b03600160c01b820481169161278c918491600160801b900416614dbe565b11156127ab5760405163c630a00d60e01b815260040160405180910390fd5b6073546001600160401b03600160401b820481166000818152607260205260408120549193600160801b9004909216915b848110156129515760008787838181106127f8576127f8614b1f565b905060200281019061280a9190614dd1565b61281390614de7565b90508361281f81614aba565b8251805160209182012081850151604080870151905194995091945060009361284b9386939101614bd7565b60408051601f1981840301815291815281516020928301206001600160401b03891660009081526071909352912054909150811461289c5760405163671ebaaf60e11b815260040160405180910390fd5b6001600160401b0386166000908152607160205260408120556128c0600189614c13565b840361290657426128cf611dc0565b84604001516128de9190614a73565b6001600160401b031611156129065760405163c44a082160e01b815260040160405180910390fd5b848284602001514233604051602001612923959493929190614ae0565b604051602081830303815290604052805190602001209450505050808061294990614bfa565b9150506127dc565b5061295c8484614a73565b607380546001600160401b034281166001600160401b03199092168217808455604080516060810182528781526020808201958652600160401b9384900485168284019081528589166000818152607290935284832093518455965160019390930180549151871686026001600160801b031990921693871693909317179091558554938916600160801b0267ffffffffffffffff60801b1993860293909316600160401b600160c01b031990941693909317919091179093559151929550917f648a61dd2438f072f5a1960939abd30f37aea80d2e94c9792ad142d3e0a490a49190a2505050505050565b607a546001600160a01b03163314612a7357604051634755657960e01b815260040160405180910390fd5b7f00000000000000000000000000000000000000000000000000000000000000006001600160a01b031663dbc169766040518163ffffffff1660e01b8152600401600060405180830381600087803b158015612ace57600080fd5b505af1158015612ae2573d6000803e3d6000fd5b50505050611c03613a45565b612af66131b7565b604080516060810182529384526001600160401b03928316602080860191825292841685830190815295841660009081526072909352912092518355516001909201805493518216600160401b026001600160801b03199094169290911691909117919091179055565b607454600160401b90046001600160a01b03163314612b925760405163bbcbbc0560e01b815260040160405180910390fd5b612ba28888888888888888612e0e565b607480546001600160401b0319166001600160401b0387811691821790925560009081526075602052604090208490556079541615612bec57607980546001600160801b03191690555b6040516333d6247d60e01b8152600481018590527f00000000000000000000000000000000000000000000000000000000000000006001600160a01b0316906333d6247d90602401600060405180830381600087803b158015612c4e57600080fd5b505af1158015612c62573d6000803e3d6000fd5b5050607980546001600160c01b031661127560c71b179055505060405183815233906001600160401b038716907fcc1b5520188bf1dd3e63f98164b577c4d75c11a619ddea692112f0d1aec4cf729060200160405180910390a35050505050505050565b607c5415612ce757604051634f60026960e11b815260040160405180910390fd5b612cf2838383613a9d565b505050565b607a546001600160a01b03163314612d2257604051634755657960e01b815260040160405180910390fd5b60748054600160401b600160e01b031916600160401b6001600160a01b038416021790556040517f61f8fec29495a3078e9271456f05fb0707fd4e41f7661865f80fc437d06681ca9061104a90839061430a565b612d7e6131b7565b6001600160a01b038116612de35760405162461bcd60e51b815260206004820152602660248201527f4f776e61626c653a206e6577206f776e657220697320746865207a65726f206160448201526564647265737360d01b6064820152608401610b27565b61132b8161397f565b612df46131b7565b6001600160401b0316600090815260756020526040902055565b60006001600160401b03891615612ea2576079546001600160401b03908116908a161115612e4f5760405163bb14c20560e01b815260040160405180910390fd5b506001600160401b038089166000908152607860205260409020600281015481549092898116600160401b9092041614612e9c57604051632bd2e3e760e01b815260040160405180910390fd5b50612f0a565b506001600160401b03861660009081526075602052604090205480612eda576040516324cbdcc360e11b815260040160405180910390fd5b6074546001600160401b039081169088161115612f0a57604051630f2b74f160e11b815260040160405180910390fd5b6079546001600160401b039081169089161180612f395750886001600160401b0316886001600160401b031611155b80612f5a57506079546001600160401b03600160401b909104811690891611155b15612f785760405163bfa7079f60e01b815260040160405180910390fd5b6001600160401b03888116600090815260786020526040902054600160401b9004811690871614612fbc576040516332a2a77f60e01b815260040160405180910390fd5b6000612fcb8888888589611055565b90506000600080516020614f4e833981519152600283604051612fee91906149c4565b602060405180830381855afa15801561300b573d6000803e3d6000fd5b5050506040513d601f19601f8201168201806040525081019061302e91906149e0565b6130389190614a0f565b604080516020810182528281529051632363e29760e21b81529192506001600160a01b037f00000000000000000000000000000000000000000000000000000000000000001691638d8f8a5c916130959189918991600401614e62565b602060405180830381865afa1580156130b2573d6000803e3d6000fd5b505050506040513d601f19601f820116820180604052508101906130d69190614eaa565b6130f3576040516309bde33960e01b815260040160405180910390fd5b6001600160401b038a1660009081526078602052604090206002015486900361312f5760405163a47276bd60e01b815260040160405180910390fd5b5050505050505050505050565b7f00000000000000000000000000000000000000000000000000000000000000006001600160a01b0316632072f6c56040518163ffffffff1660e01b8152600401600060405180830381600087803b15801561319757600080fd5b505af11580156131ab573d6000803e3d6000fd5b50505050611c03613d46565b6033546001600160a01b03163314611c035760405162461bcd60e51b815260206004820181905260248201527f4f776e61626c653a2063616c6c6572206973206e6f7420746865206f776e65726044820152606401610b27565b6079546001600160401b03600160401b909104811690821611158061324457506079546001600160401b03908116908216115b156132625760405163d086b70b60e01b815260040160405180910390fd5b6001600160401b038181166000818152607860209081526040808320805460748054600160401b928390049098166001600160401b0319909816881790556002820154878652607590945293829020929092556079805467ffffffffffffffff60401b19169390940292909217909255600182015490516333d6247d60e01b815260048101919091529091907f00000000000000000000000000000000000000000000000000000000000000006001600160a01b0316906333d6247d90602401600060405180830381600087803b15801561333c57600080fd5b505af1158015613350573d6000803e3d6000fd5b50505050826001600160401b0316816001600160401b03167f328d3c6c0fd6f1be0515e422f2d87e59f25922cbc2233568515a0c4bc3f8510e846002015460405161339d91815260200190565b60405180910390a3505050565b6000806133b56122ad565b90506001600160401b0389161561344b576079546001600160401b03908116908a1611156133f65760405163bb14c20560e01b815260040160405180910390fd5b6001600160401b03808a1660009081526078602052604090206002810154815490945090918a8116600160401b909204161461344557604051632bd2e3e760e01b815260040160405180910390fd5b506134b7565b6001600160401b038816600090815260756020526040902054915081613484576040516324cbdcc360e11b815260040160405180910390fd5b806001600160401b0316886001600160401b031611156134b757604051630f2b74f160e11b815260040160405180910390fd5b806001600160401b0316876001600160401b0316116134e95760405163b9b18f5760e01b815260040160405180910390fd5b60006134f8898989868a611055565b90506000600080516020614f4e83398151915260028360405161351b91906149c4565b602060405180830381855afa158015613538573d6000803e3d6000fd5b5050506040513d601f19601f8201168201806040525081019061355b91906149e0565b6135659190614a0f565b604080516020810182528281529051632363e29760e21b81529192506001600160a01b037f00000000000000000000000000000000000000000000000000000000000000001691638d8f8a5c916135c2918a918a91600401614e62565b602060405180830381865afa1580156135df573d6000803e3d6000fd5b505050506040513d601f19601f820116820180604052508101906136039190614eaa565b613620576040516309bde33960e01b815260040160405180910390fd5b61312f3361362e858c614a9a565b6001600160401b031661363f611ddb565b6136499190614c26565b6001600160a01b037f0000000000000000000000000000000000000000000000000000000000000000169190613da2565b60006136846122ad565b9050816000806136948484614a9a565b606f546001600160401b0391821692506000916136b79161010090041642614c13565b90505b846001600160401b0316846001600160401b031614613757576001600160401b038085166000908152607260205260409020600181015490911682101561374b57600181015461371a90600160401b90046001600160401b031686614a9a565b61372d906001600160401b031685614dbe565b6001820154600160401b90046001600160401b031695509350613751565b50613757565b506136ba565b60006137638484614c13565b9050808410156137ba57838103600c811161377e5780613781565b600c5b9050806103e80a81606f60099054906101000a900461ffff1661ffff160a60705402816137b0576137b06149f9565b046070555061382a565b808403600c81116137cb57806137ce565b600c5b90506000816103e80a82606f60099054906101000a900461ffff1661ffff160a670de0b6b3a76400000281613805576138056149f9565b04905080607054670de0b6b3a76400000281613823576138236149f9565b0460705550505b683635c9adc5dea00000607054111561384f57683635c9adc5dea000006070556126d0565b633b9aca0060705410156126d057633b9aca0060705550505050505050565b6079546001600160401b03600160401b8204811691161115611c03576079546000906138ab90600160401b90046001600160401b03166001614a73565b90506138b68161118a565b1561132b576079546000906002906138d89084906001600160401b0316614a9a565b6138e29190614ecc565b6138ec9083614a73565b90506138f78161118a565b15613905576122a981613211565b6122a982613211565b6040516001600160a01b03808516602483015283166044820152606481018290526139799085906323b872dd60e01b906084015b60408051601f198184030181529190526020810180516001600160e01b03166001600160e01b031990931692909217909152613dd2565b50505050565b603380546001600160a01b038381166001600160a01b0319831681179093556040519116919082907f8be0079c531659141344cd1fd0a4f28419497f9722a3daafe3b4186f6b6457e090600090a35050565b600054610100900460ff16613a3c5760405162461bcd60e51b815260206004820152602b60248201527f496e697469616c697a61626c653a20636f6e7472616374206973206e6f74206960448201526a6e697469616c697a696e6760a81b6064820152608401610b27565b611c033361397f565b606f5460ff16613a6857604051635386698160e01b815260040160405180910390fd5b606f805460ff191690556040517f1e5e34eea33501aecf2ebec9fe0e884a40804275ea7fe10b2ba084c8374308b390600090a1565b606f5460ff1615613ac157604051630bc011ff60e21b815260040160405180910390fd5b6000613acc60705490565b905081811115613aef57604051634732fdb560e01b815260040160405180910390fd5b620493e0831115613b13576040516328a69b1f60e21b815260040160405180910390fd5b613b486001600160a01b037f00000000000000000000000000000000000000000000000000000000000000001633308461390e565b60007f00000000000000000000000000000000000000000000000000000000000000006001600160a01b0316633ed691ef6040518163ffffffff1660e01b8152600401602060405180830381865afa158015613ba8573d6000803e3d6000fd5b505050506040513d601f19601f82011682018060405250810190613bcc91906149e0565b60738054919250600160c01b9091046001600160401b0316906018613bf083614aba565b91906101000a8154816001600160401b0302191690836001600160401b03160217905550508484604051613c25929190614ef2565b604051908190038120613c3e9183904290602001614bd7565b60408051808303601f190181529181528151602092830120607354600160c01b90046001600160401b031660009081526071909352912055323303613ce257607354604080518381523360208201526060918101829052600091810191909152600160c01b9091046001600160401b0316907ff94bb37db835f1ab585ee00041849a09b12cd081d77fa15ca070757619cbc9319060800160405180910390a2613d3f565b607360189054906101000a90046001600160401b03166001600160401b03167ff94bb37db835f1ab585ee00041849a09b12cd081d77fa15ca070757619cbc93182338888604051613d369493929190614f02565b60405180910390a25b5050505050565b606f5460ff1615613d6a57604051630bc011ff60e21b815260040160405180910390fd5b606f805460ff191660011790556040517f2261efe5aef6fedc1fd1550b25facc9181745623049c7901287030b9ad1a549790600090a1565b6040516001600160a01b038316602482015260448101829052612cf290849063a9059cbb60e01b90606401613942565b6000613e27826040518060400160405280602081526020017f5361666545524332303a206c6f772d6c6576656c2063616c6c206661696c6564815250856001600160a01b0316613ea49092919063ffffffff16565b805190915015612cf25780806020019051810190613e459190614eaa565b612cf25760405162461bcd60e51b815260206004820152602a60248201527f5361666545524332303a204552433230206f7065726174696f6e20646964206e6044820152691bdd081cdd58d8d9595960b21b6064820152608401610b27565b6060613eb38484600085613ebb565b949350505050565b606082471015613f1c5760405162461bcd60e51b815260206004820152602660248201527f416464726573733a20696e73756666696369656e742062616c616e636520666f6044820152651c8818d85b1b60d21b6064820152608401610b27565b600080866001600160a01b03168587604051613f3891906149c4565b60006040518083038185875af1925050503d8060008114613f75576040519150601f19603f3d011682016040523d82523d6000602084013e613f7a565b606091505b5091509150613f8b87838387613f96565b979650505050505050565b60608315614005578251600003613ffe576001600160a01b0385163b613ffe5760405162461bcd60e51b815260206004820152601d60248201527f416464726573733a2063616c6c20746f206e6f6e2d636f6e74726163740000006044820152606401610b27565b5081613eb3565b613eb3838381511561401a5781518083602001fd5b8060405162461bcd60e51b8152600401610b2791906141d5565b80356001600160401b038116811461404b57600080fd5b919050565b60008083601f84011261406257600080fd5b5081356001600160401b0381111561407957600080fd5b60208301915083602082850101111561409157600080fd5b9250929050565b60008060008060008060008060e0898b0312156140b457600080fd5b6140bd89614034565b97506140cb60208a01614034565b96506140d960408a01614034565b95506140e760608a01614034565b94506080890135935060a0890135925060c08901356001600160401b0381111561411057600080fd5b61411c8b828c01614050565b999c989b5096995094979396929594505050565b600080600080600060a0868803121561414857600080fd5b61415186614034565b945061415f60208701614034565b935061416d60408701614034565b94979396509394606081013594506080013592915050565b60005b838110156141a0578181015183820152602001614188565b50506000910152565b600081518084526141c1816020860160208601614185565b601f01601f19169290920160200192915050565b6020815260006141e860208301846141a9565b9392505050565b806040810183101561420057600080fd5b92915050565b6000806000806000806000806101a0898b03121561422357600080fd5b61422c89614034565b975061423a60208a01614034565b965061424860408a01614034565b955060608901359450608089013593506142658a60a08b016141ef565b925061016089018a81111561427957600080fd5b60e08a0192506142898b826141ef565b9150509295985092959890939650565b6000602082840312156142ab57600080fd5b813561ffff811681146141e857600080fd5b600080600080600060a086880312156142d557600080fd5b6142de86614034565b94506142ec60208701614034565b94979496505050506040830135926060810135926080909101359150565b6001600160a01b0391909116815260200190565b60006020828403121561433057600080fd5b6141e882614034565b600080600080600080600060c0888a03121561435457600080fd5b61435d88614034565b965061436b60208901614034565b955061437960408901614034565b9450606088013593506080880135925060a08801356001600160401b038111156143a257600080fd5b6143ae8a828b01614050565b989b979a50959850939692959293505050565b634e487b7160e01b600052604160045260246000fd5b600082601f8301126143e857600080fd5b81356001600160401b0380821115614402576144026143c1565b604051601f8301601f19908116603f0116810190828211818310171561442a5761442a6143c1565b8160405283815286602085880101111561444357600080fd5b836020870160208301376000602085830101528094505050505092915050565b80356001600160a01b038116811461404b57600080fd5b600080600080600060a0868803121561449257600080fd5b8535945060208601356001600160401b038111156144af57600080fd5b6144bb888289016143d7565b945050604086013592506144d160608701614034565b91506144df60808701614463565b90509295509295909350565b60008083601f8401126144fd57600080fd5b5081356001600160401b0381111561451457600080fd5b6020830191508360208260051b850101111561409157600080fd5b60008060006040848603121561454457600080fd5b83356001600160401b0381111561455a57600080fd5b614566868287016144eb565b9094509250614579905060208501614463565b90509250925092565b60006020828403121561459457600080fd5b6141e882614463565b6000602082840312156145af57600080fd5b5035919050565b6000602082840312156145c857600080fd5b81356001600160401b038111156145de57600080fd5b613eb3848285016143d7565b60008060008060008086880361012081121561460557600080fd5b60a081121561461357600080fd5b5086955060a0870135945060c08701356001600160401b038082111561463857600080fd5b6146448a838b016143d7565b955060e089013591508082111561465a57600080fd5b6146668a838b016143d7565b945061010089013591508082111561467d57600080fd5b5061468a89828a01614050565b979a9699509497509295939492505050565b600080602083850312156146af57600080fd5b82356001600160401b038111156146c557600080fd5b6146d1858286016144eb565b90969095509350505050565b600080600080608085870312156146f357600080fd5b6146fc85614034565b93506020850135925061471160408601614034565b915061471f60608601614034565b905092959194509250565b60008060006040848603121561473f57600080fd5b83356001600160401b0381111561475557600080fd5b61476186828701614050565b909790965060209590950135949350505050565b6000806040838503121561478857600080fd5b8235915061479860208401614034565b90509250929050565b60208082526058908201527f506f6c79676f6e5a6b45564d3a3a766572696679426174636865733a2070656e60408201527f64696e6753746174654e756d206d757374206265206c657373206f7220657175606082015277616c207468616e206c61737450656e64696e67537461746560401b608082015260a00190565b6020808252604c90820152600080516020614f2e83398151915260408201527f744e756d4261746368206d757374206d61746368207468652070656e64696e6760608201526b040e6e8c2e8ca40c4c2e8c6d60a31b608082015260a00190565b6020808252604390820152600080516020614f2e83398151915260408201527f744e756d426174636820737461746520726f6f7420646f6573206e6f742065786060820152621a5cdd60ea1b608082015260a00190565b6020808252605d90820152600080516020614f2e83398151915260408201527f744e756d4261746368206d757374206265206c657373206f7220657175616c2060608201527f7468616e2063757272656e744c61737456657269666965644261746368000000608082015260a00190565b60208082526057908201527f506f6c79676f6e5a6b45564d3a3a766572696679426174636865733a2066696e60408201527f616c4e65774261746368206d75737420626520626967676572207468616e20636060820152760eae4e4cadce898c2e6e8accae4d2ccd2cac884c2e8c6d604b1b608082015260a00190565b600082516149d6818460208701614185565b9190910192915050565b6000602082840312156149f257600080fd5b5051919050565b634e487b7160e01b600052601260045260246000fd5b600082614a1e57614a1e6149f9565b500690565b600181811c90821680614a3757607f821691505b602082108103614a5757634e487b7160e01b600052602260045260246000fd5b50919050565b634e487b7160e01b600052601160045260246000fd5b6001600160401b03818116838216019080821115614a9357614a93614a5d565b5092915050565b6001600160401b03828116828216039080821115614a9357614a93614a5d565b60006001600160401b03808316818103614ad657614ad6614a5d565b6001019392505050565b9485526020850193909352604084019190915260c01b6001600160c01b0319166060808401919091521b6001600160601b0319166068820152607c0190565b634e487b7160e01b600052603260045260246000fd5b60008235607e198336030181126149d657600080fd5b600060808236031215614b5d57600080fd5b604051608081016001600160401b038282108183111715614b8057614b806143c1565b816040528435915080821115614b9557600080fd5b50614ba2368286016143d7565b82525060208301356020820152614bbb60408401614034565b6040820152614bcc60608401614034565b606082015292915050565b928352602083019190915260c01b6001600160c01b031916604082015260480190565b600060018201614c0c57614c0c614a5d565b5060010190565b8181038181111561420057614200614a5d565b808202811582820484141761420057614200614a5d565b600082614c4c57614c4c6149f9565b500490565b601f821115612cf257600081815260208120601f850160051c81016020861015614c785750805b601f850160051c820191505b81811015614c9757828155600101614c84565b505050505050565b81516001600160401b03811115614cb857614cb86143c1565b614ccc81614cc68454614a23565b84614c51565b602080601f831160018114614d015760008415614ce95750858301515b600019600386901b1c1916600185901b178555614c97565b600085815260208120601f198616915b82811015614d3057888601518255948401946001909101908401614d11565b5085821015614d4e5787850151600019600388901b60f8161c191681555b5050505050600190811b01905550565b81835281816020850137506000828201602090810191909152601f909101601f19169091010190565b60006001600160401b03808716835280861660208401525060606040830152614db4606083018486614d5e565b9695505050505050565b8082018082111561420057614200614a5d565b60008235605e198336030181126149d657600080fd5b600060608236031215614df957600080fd5b604051606081016001600160401b038282108183111715614e1c57614e1c6143c1565b816040528435915080821115614e3157600080fd5b50614e3e368286016143d7565b82525060208301356020820152614e5760408401614034565b604082015292915050565b604081526000614e76604083018587614d5e565b905060208083018460005b6001811015614e9e57815183529183019190830190600101614e81565b50505050949350505050565b600060208284031215614ebc57600080fd5b815180151581146141e857600080fd5b60006001600160401b0380841680614ee657614ee66149f9565b92169190910492915050565b8183823760009101908152919050565b8481526001600160a01b0384166020820152606060408201819052600090614db49083018486614d5e56fe506f6c79676f6e5a6b45564d3a3a766572696679426174636865733a20696e6930644e72e131a029b85045b68181585d2833e84879b9709143e1f593f0000001a26469706673582212208677f442e7000a2e795264cacfe7311dbc1d359d253313861e3b529d92453a7764736f6c63430008110033",
  "linkReferences": {},
  "deployedLinkReferences": {}
}