{
  "_format": "hh-sol-artifact-1",
  "contractName": "PolygonZkEVMMock",
  "sourceName": "contracts/mocks/PolygonZkEVMMock.sol",
  "abi": [
    {
      "inputs": [
        {
          "internalType": "contract IPolygonZkEVMGlobalExitRoot",
          "name": "_globalExitRootManager",
          "type": "address"
        },
        {
          "internalType": "contract IERC20Upgradeable",
          "name": "_matic",
          "type": "address"
        },
        {
          "internalType": "contract IVerifierRollup",
          "name": "_rollupVerifier",
          "type": "address"
        },
        {
          "internalType": "contract IPolygonZkEVMBridge",
          "name": "_bridgeAddress",
          "type": "address"
        },
        {
          "internalType": "uint64",
          "name": "_chainID",
          "type": "uint64"
        },
        {
          "internalType": "uint64",
          "name": "_forkID",
          "type": "uint64"
        }
      ],
      "stateMutability": "nonpayable",
      "type": "constructor"
    },
    {
      "inputs": [],
      "name": "BatchAlreadyVerified",
      "type": "error"
    },
    {
      "inputs": [],
      "name": "BatchNotSequencedOrNotSequenceEnd",
      "type": "error"
    },
    {
      "inputs": [],
      "name": "ExceedMaxVerifyBatches",
      "type": "error"
    },
    {
      "inputs": [],
      "name": "FinalNumBatchBelowLastVerifiedBatch",
      "type": "error"
    },
    {
      "inputs": [],
      "name": "FinalNumBatchDoesNotMatchPendingState",
      "type": "error"
    },
    {
      "inputs": [],
      "name": "FinalPendingStateNumInvalid",
      "type": "error"
    },
    {
      "inputs": [],
      "name": "ForceBatchNotAllowed",
      "type": "error"
    },
    {
      "inputs": [],
      "name": "ForceBatchTimeoutNotExpired",
      "type": "error"
    },
    {
      "inputs": [],
      "name": "ForceBatchesAlreadyActive",
      "type": "error"
    },
    {
      "inputs": [],
      "name": "ForceBatchesOverflow",
      "type": "error"
    },
    {
      "inputs": [],
      "name": "ForcedDataDoesNotMatch",
      "type": "error"
    },
    {
      "inputs": [],
      "name": "GlobalExitRootNotExist",
      "type": "error"
    },
    {
      "inputs": [],
      "name": "HaltTimeoutNotExpired",
      "type": "error"
    },
    {
      "inputs": [],
      "name": "InitNumBatchAboveLastVerifiedBatch",
      "type": "error"
    },
    {
      "inputs": [],
      "name": "InitNumBatchDoesNotMatchPendingState",
      "type": "error"
    },
    {
      "inputs": [],
      "name": "InvalidProof",
      "type": "error"
    },
    {
      "inputs": [],
      "name": "InvalidRangeBatchTimeTarget",
      "type": "error"
    },
    {
      "inputs": [],
      "name": "InvalidRangeForceBatchTimeout",
      "type": "error"
    },
    {
      "inputs": [],
      "name": "InvalidRangeMultiplierBatchFee",
      "type": "error"
    },
    {
      "inputs": [],
      "name": "NewAccInputHashDoesNotExist",
      "type": "error"
    },
    {
      "inputs": [],
      "name": "NewPendingStateTimeoutMustBeLower",
      "type": "error"
    },
    {
      "inputs": [],
      "name": "NewStateRootNotInsidePrime",
      "type": "error"
    },
    {
      "inputs": [],
      "name": "NewTrustedAggregatorTimeoutMustBeLower",
      "type": "error"
    },
    {
      "inputs": [],
      "name": "NotEnoughMaticAmount",
      "type": "error"
    },
    {
      "inputs": [],
      "name": "OldAccInputHashDoesNotExist",
      "type": "error"
    },
    {
      "inputs": [],
      "name": "OldStateRootDoesNotExist",
      "type": "error"
    },
    {
      "inputs": [],
      "name": "OnlyAdmin",
      "type": "error"
    },
    {
      "inputs": [],
      "name": "OnlyEmergencyState",
      "type": "error"
    },
    {
      "inputs": [],
      "name": "OnlyNotEmergencyState",
      "type": "error"
    },
    {
      "inputs": [],
      "name": "OnlyPendingAdmin",
      "type": "error"
    },
    {
      "inputs": [],
      "name": "OnlyTrustedAggregator",
      "type": "error"
    },
    {
      "inputs": [],
      "name": "OnlyTrustedSequencer",
      "type": "error"
    },
    {
      "inputs": [],
      "name": "PendingStateDoesNotExist",
      "type": "error"
    },
    {
      "inputs": [],
      "name": "PendingStateInvalid",
      "type": "error"
    },
    {
      "inputs": [],
      "name": "PendingStateNotConsolidable",
      "type": "error"
    },
    {
      "inputs": [],
      "name": "PendingStateTimeoutExceedHaltAggregationTimeout",
      "type": "error"
    },
    {
      "inputs": [],
      "name": "SequenceZeroBatches",
      "type": "error"
    },
    {
      "inputs": [],
      "name": "SequencedTimestampBelowForcedTimestamp",
      "type": "error"
    },
    {
      "inputs": [],
      "name": "SequencedTimestampInvalid",
      "type": "error"
    },
    {
      "inputs": [],
      "name": "StoredRootMustBeDifferentThanNewRoot",
      "type": "error"
    },
    {
      "inputs": [],
      "name": "TransactionsLengthAboveMax",
      "type": "error"
    },
    {
      "inputs": [],
      "name": "TrustedAggregatorTimeoutExceedHaltAggregationTimeout",
      "type": "error"
    },
    {
      "inputs": [],
      "name": "TrustedAggregatorTimeoutNotExpired",
      "type": "error"
    },
    {
      "anonymous": false,
      "inputs": [
        {
          "indexed": false,
          "internalType": "address",
          "name": "newAdmin",
          "type": "address"
        }
      ],
      "name": "AcceptAdminRole",
      "type": "event"
    },
    {
      "anonymous": false,
      "inputs": [],
      "name": "ActivateForceBatches",
      "type": "event"
    },
    {
      "anonymous": false,
      "inputs": [
        {
          "indexed": true,
          "internalType": "uint64",
          "name": "numBatch",
          "type": "uint64"
        },
        {
          "indexed": false,
          "internalType": "bytes32",
          "name": "stateRoot",
          "type": "bytes32"
        },
        {
          "indexed": true,
          "internalType": "uint64",
          "name": "pendingStateNum",
          "type": "uint64"
        }
      ],
      "name": "ConsolidatePendingState",
      "type": "event"
    },
    {
      "anonymous": false,
      "inputs": [],
      "name": "EmergencyStateActivated",
      "type": "event"
    },
    {
      "anonymous": false,
      "inputs": [],
      "name": "EmergencyStateDeactivated",
      "type": "event"
    },
    {
      "anonymous": false,
      "inputs": [
        {
          "indexed": true,
          "internalType": "uint64",
          "name": "forceBatchNum",
          "type": "uint64"
        },
        {
          "indexed": false,
          "internalType": "bytes32",
          "name": "lastGlobalExitRoot",
          "type": "bytes32"
        },
        {
          "indexed": false,
          "internalType": "address",
          "name": "sequencer",
          "type": "address"
        },
        {
          "indexed": false,
          "internalType": "bytes",
          "name": "transactions",
          "type": "bytes"
        }
      ],
      "name": "ForceBatch",
      "type": "event"
    },
    {
      "anonymous": false,
      "inputs": [
        {
          "indexed": false,
          "internalType": "uint8",
          "name": "version",
          "type": "uint8"
        }
      ],
      "name": "Initialized",
      "type": "event"
    },
    {
      "anonymous": false,
      "inputs": [
        {
          "indexed": true,
          "internalType": "uint64",
          "name": "numBatch",
          "type": "uint64"
        },
        {
          "indexed": false,
          "internalType": "bytes32",
          "name": "stateRoot",
          "type": "bytes32"
        },
        {
          "indexed": true,
          "internalType": "address",
          "name": "aggregator",
          "type": "address"
        }
      ],
      "name": "OverridePendingState",
      "type": "event"
    },
    {
      "anonymous": false,
      "inputs": [
        {
          "indexed": true,
          "internalType": "address",
          "name": "previousOwner",
          "type": "address"
        },
        {
          "indexed": true,
          "internalType": "address",
          "name": "newOwner",
          "type": "address"
        }
      ],
      "name": "OwnershipTransferred",
      "type": "event"
    },
    {
      "anonymous": false,
      "inputs": [
        {
          "indexed": false,
          "internalType": "bytes32",
          "name": "storedStateRoot",
          "type": "bytes32"
        },
        {
          "indexed": false,
          "internalType": "bytes32",
          "name": "provedStateRoot",
          "type": "bytes32"
        }
      ],
      "name": "ProveNonDeterministicPendingState",
      "type": "event"
    },
    {
      "anonymous": false,
      "inputs": [
        {
          "indexed": true,
          "internalType": "uint64",
          "name": "numBatch",
          "type": "uint64"
        }
      ],
      "name": "SequenceBatches",
      "type": "event"
    },
    {
      "anonymous": false,
      "inputs": [
        {
          "indexed": true,
          "internalType": "uint64",
          "name": "numBatch",
          "type": "uint64"
        }
      ],
      "name": "SequenceForceBatches",
      "type": "event"
    },
    {
      "anonymous": false,
      "inputs": [
        {
          "indexed": false,
          "internalType": "uint64",
          "name": "newforceBatchTimeout",
          "type": "uint64"
        }
      ],
      "name": "SetForceBatchTimeout",
      "type": "event"
    },
    {
      "anonymous": false,
      "inputs": [
        {
          "indexed": false,
          "internalType": "uint16",
          "name": "newMultiplierBatchFee",
          "type": "uint16"
        }
      ],
      "name": "SetMultiplierBatchFee",
      "type": "event"
    },
    {
      "anonymous": false,
      "inputs": [
        {
          "indexed": false,
          "internalType": "uint64",
          "name": "newPendingStateTimeout",
          "type": "uint64"
        }
      ],
      "name": "SetPendingStateTimeout",
      "type": "event"
    },
    {
      "anonymous": false,
      "inputs": [
        {
          "indexed": false,
          "internalType": "address",
          "name": "newTrustedAggregator",
          "type": "address"
        }
      ],
      "name": "SetTrustedAggregator",
      "type": "event"
    },
    {
      "anonymous": false,
      "inputs": [
        {
          "indexed": false,
          "internalType": "uint64",
          "name": "newTrustedAggregatorTimeout",
          "type": "uint64"
        }
      ],
      "name": "SetTrustedAggregatorTimeout",
      "type": "event"
    },
    {
      "anonymous": false,
      "inputs": [
        {
          "indexed": false,
          "internalType": "address",
          "name": "newTrustedSequencer",
          "type": "address"
        }
      ],
      "name": "SetTrustedSequencer",
      "type": "event"
    },
    {
      "anonymous": false,
      "inputs": [
        {
          "indexed": false,
          "internalType": "string",
          "name": "newTrustedSequencerURL",
          "type": "string"
        }
      ],
      "name": "SetTrustedSequencerURL",
      "type": "event"
    },
    {
      "anonymous": false,
      "inputs": [
        {
          "indexed": false,
          "internalType": "uint64",
          "name": "newVerifyBatchTimeTarget",
          "type": "uint64"
        }
      ],
      "name": "SetVerifyBatchTimeTarget",
      "type": "event"
    },
    {
      "anonymous": false,
      "inputs": [
        {
          "indexed": false,
          "internalType": "address",
          "name": "newPendingAdmin",
          "type": "address"
        }
      ],
      "name": "TransferAdminRole",
      "type": "event"
    },
    {
      "anonymous": false,
      "inputs": [
        {
          "indexed": false,
          "internalType": "uint64",
          "name": "numBatch",
          "type": "uint64"
        },
        {
          "indexed": false,
          "internalType": "uint64",
          "name": "forkID",
          "type": "uint64"
        },
        {
          "indexed": false,
          "internalType": "string",
          "name": "version",
          "type": "string"
        }
      ],
      "name": "UpdateZkEVMVersion",
      "type": "event"
    },
    {
      "anonymous": false,
      "inputs": [
        {
          "indexed": true,
          "internalType": "uint64",
          "name": "numBatch",
          "type": "uint64"
        },
        {
          "indexed": false,
          "internalType": "bytes32",
          "name": "stateRoot",
          "type": "bytes32"
        },
        {
          "indexed": true,
          "internalType": "address",
          "name": "aggregator",
          "type": "address"
        }
      ],
      "name": "VerifyBatches",
      "type": "event"
    },
    {
      "anonymous": false,
      "inputs": [
        {
          "indexed": true,
          "internalType": "uint64",
          "name": "numBatch",
          "type": "uint64"
        },
        {
          "indexed": false,
          "internalType": "bytes32",
          "name": "stateRoot",
          "type": "bytes32"
        },
        {
          "indexed": true,
          "internalType": "address",
          "name": "aggregator",
          "type": "address"
        }
      ],
      "name": "VerifyBatchesTrustedAggregator",
      "type": "event"
    },
    {
      "inputs": [],
      "name": "acceptAdminRole",
      "outputs": [],
      "stateMutability": "nonpayable",
      "type": "function"
    },
    {
      "inputs": [
        {
          "internalType": "uint64",
          "name": "sequencedBatchNum",
          "type": "uint64"
        }
      ],
      "name": "activateEmergencyState",
      "outputs": [],
      "stateMutability": "nonpayable",
      "type": "function"
    },
    {
      "inputs": [],
      "name": "activateForceBatches",
      "outputs": [],
      "stateMutability": "nonpayable",
      "type": "function"
    },
    {
      "inputs": [],
      "name": "admin",
      "outputs": [
        {
          "internalType": "address",
          "name": "",
          "type": "address"
        }
      ],
      "stateMutability": "view",
      "type": "function"
    },
    {
      "inputs": [],
      "name": "batchFee",
      "outputs": [
        {
          "internalType": "uint256",
          "name": "",
          "type": "uint256"
        }
      ],
      "stateMutability": "view",
      "type": "function"
    },
    {
      "inputs": [
        {
          "internalType": "uint64",
          "name": "",
          "type": "uint64"
        }
      ],
      "name": "batchNumToStateRoot",
      "outputs": [
        {
          "internalType": "bytes32",
          "name": "",
          "type": "bytes32"
        }
      ],
      "stateMutability": "view",
      "type": "function"
    },
    {
      "inputs": [],
      "name": "bridgeAddress",
      "outputs": [
        {
          "internalType": "contract IPolygonZkEVMBridge",
          "name": "",
          "type": "address"
        }
      ],
      "stateMutability": "view",
      "type": "function"
    },
    {
      "inputs": [
        {
          "internalType": "bytes32",
          "name": "currentAccInputHash",
          "type": "bytes32"
        },
        {
          "internalType": "bytes",
          "name": "transactions",
          "type": "bytes"
        },
        {
          "internalType": "bytes32",
          "name": "globalExitRoot",
          "type": "bytes32"
        },
        {
          "internalType": "uint64",
          "name": "timestamp",
          "type": "uint64"
        },
        {
          "internalType": "address",
          "name": "sequencerAddress",
          "type": "address"
        }
      ],
      "name": "calculateAccInputHash",
      "outputs": [
        {
          "internalType": "bytes32",
          "name": "",
          "type": "bytes32"
        }
      ],
      "stateMutability": "pure",
      "type": "function"
    },
    {
      "inputs": [],
      "name": "calculateRewardPerBatch",
      "outputs": [
        {
          "internalType": "uint256",
          "name": "",
          "type": "uint256"
        }
      ],
      "stateMutability": "view",
      "type": "function"
    },
    {
      "inputs": [],
      "name": "chainID",
      "outputs": [
        {
          "internalType": "uint64",
          "name": "",
          "type": "uint64"
        }
      ],
      "stateMutability": "view",
      "type": "function"
    },
    {
      "inputs": [
        {
          "internalType": "uint256",
          "name": "newStateRoot",
          "type": "uint256"
        }
      ],
      "name": "checkStateRootInsidePrime",
      "outputs": [
        {
          "internalType": "bool",
          "name": "",
          "type": "bool"
        }
      ],
      "stateMutability": "pure",
      "type": "function"
    },
    {
      "inputs": [
        {
          "internalType": "uint64",
          "name": "pendingStateNum",
          "type": "uint64"
        }
      ],
      "name": "consolidatePendingState",
      "outputs": [],
      "stateMutability": "nonpayable",
      "type": "function"
    },
    {
      "inputs": [],
      "name": "deactivateEmergencyState",
      "outputs": [],
      "stateMutability": "nonpayable",
      "type": "function"
    },
    {
      "inputs": [
        {
          "internalType": "bytes",
          "name": "transactions",
          "type": "bytes"
        },
        {
          "internalType": "uint256",
          "name": "maticAmount",
          "type": "uint256"
        }
      ],
      "name": "forceBatch",
      "outputs": [],
      "stateMutability": "nonpayable",
      "type": "function"
    },
    {
      "inputs": [],
      "name": "forceBatchTimeout",
      "outputs": [
        {
          "internalType": "uint64",
          "name": "",
          "type": "uint64"
        }
      ],
      "stateMutability": "view",
      "type": "function"
    },
    {
      "inputs": [
        {
          "internalType": "uint64",
          "name": "",
          "type": "uint64"
        }
      ],
      "name": "forcedBatches",
      "outputs": [
        {
          "internalType": "bytes32",
          "name": "",
          "type": "bytes32"
        }
      ],
      "stateMutability": "view",
      "type": "function"
    },
    {
      "inputs": [],
      "name": "forkID",
      "outputs": [
        {
          "internalType": "uint64",
          "name": "",
          "type": "uint64"
        }
      ],
      "stateMutability": "view",
      "type": "function"
    },
    {
      "inputs": [],
      "name": "getForcedBatchFee",
      "outputs": [
        {
          "internalType": "uint256",
          "name": "",
          "type": "uint256"
        }
      ],
      "stateMutability": "view",
      "type": "function"
    },
    {
      "inputs": [
        {
          "internalType": "uint64",
          "name": "initNumBatch",
          "type": "uint64"
        },
        {
          "internalType": "uint64",
          "name": "finalNewBatch",
          "type": "uint64"
        },
        {
          "internalType": "bytes32",
          "name": "newLocalExitRoot",
          "type": "bytes32"
        },
        {
          "internalType": "bytes32",
          "name": "oldStateRoot",
          "type": "bytes32"
        },
        {
          "internalType": "bytes32",
          "name": "newStateRoot",
          "type": "bytes32"
        }
      ],
      "name": "getInputSnarkBytes",
      "outputs": [
        {
          "internalType": "bytes",
          "name": "",
          "type": "bytes"
        }
      ],
      "stateMutability": "view",
      "type": "function"
    },
    {
      "inputs": [],
      "name": "getLastVerifiedBatch",
      "outputs": [
        {
          "internalType": "uint64",
          "name": "",
          "type": "uint64"
        }
      ],
      "stateMutability": "view",
      "type": "function"
    },
    {
      "inputs": [
        {
          "internalType": "uint64",
          "name": "pendingStateNum",
          "type": "uint64"
        },
        {
          "internalType": "uint64",
          "name": "initNumBatch",
          "type": "uint64"
        },
        {
          "internalType": "uint64",
          "name": "finalNewBatch",
          "type": "uint64"
        },
        {
          "internalType": "bytes32",
          "name": "newLocalExitRoot",
          "type": "bytes32"
        },
        {
          "internalType": "bytes32",
          "name": "newStateRoot",
          "type": "bytes32"
        }
      ],
      "name": "getNextSnarkInput",
      "outputs": [
        {
          "internalType": "uint256",
          "name": "",
          "type": "uint256"
        }
      ],
      "stateMutability": "view",
      "type": "function"
    },
    {
      "inputs": [],
      "name": "globalExitRootManager",
      "outputs": [
        {
          "internalType": "contract IPolygonZkEVMGlobalExitRoot",
          "name": "",
          "type": "address"
        }
      ],
      "stateMutability": "view",
      "type": "function"
    },
    {
      "inputs": [
        {
          "components": [
            {
              "internalType": "address",
              "name": "admin",
              "type": "address"
            },
            {
              "internalType": "address",
              "name": "trustedSequencer",
              "type": "address"
            },
            {
              "internalType": "uint64",
              "name": "pendingStateTimeout",
              "type": "uint64"
            },
            {
              "internalType": "address",
              "name": "trustedAggregator",
              "type": "address"
            },
            {
              "internalType": "uint64",
              "name": "trustedAggregatorTimeout",
              "type": "uint64"
            }
          ],
          "internalType": "struct PolygonZkEVM.InitializePackedParameters",
          "name": "initializePackedParameters",
          "type": "tuple"
        },
        {
          "internalType": "bytes32",
          "name": "genesisRoot",
          "type": "bytes32"
        },
        {
          "internalType": "string",
          "name": "_trustedSequencerURL",
          "type": "string"
        },
        {
          "internalType": "string",
          "name": "_networkName",
          "type": "string"
        },
        {
          "internalType": "string",
          "name": "_version",
          "type": "string"
        }
      ],
      "name": "initialize",
      "outputs": [],
      "stateMutability": "nonpayable",
      "type": "function"
    },
    {
      "inputs": [],
      "name": "isEmergencyState",
      "outputs": [
        {
          "internalType": "bool",
          "name": "",
          "type": "bool"
        }
      ],
      "stateMutability": "view",
      "type": "function"
    },
    {
      "inputs": [],
      "name": "isForcedBatchDisallowed",
      "outputs": [
        {
          "internalType": "bool",
          "name": "",
          "type": "bool"
        }
      ],
      "stateMutability": "view",
      "type": "function"
    },
    {
      "inputs": [
        {
          "internalType": "uint64",
          "name": "pendingStateNum",
          "type": "uint64"
        }
      ],
      "name": "isPendingStateConsolidable",
      "outputs": [
        {
          "internalType": "bool",
          "name": "",
          "type": "bool"
        }
      ],
      "stateMutability": "view",
      "type": "function"
    },
    {
      "inputs": [],
      "name": "lastBatchSequenced",
      "outputs": [
        {
          "internalType": "uint64",
          "name": "",
          "type": "uint64"
        }
      ],
      "stateMutability": "view",
      "type": "function"
    },
    {
      "inputs": [],
      "name": "lastForceBatch",
      "outputs": [
        {
          "internalType": "uint64",
          "name": "",
          "type": "uint64"
        }
      ],
      "stateMutability": "view",
      "type": "function"
    },
    {
      "inputs": [],
      "name": "lastForceBatchSequenced",
      "outputs": [
        {
          "internalType": "uint64",
          "name": "",
          "type": "uint64"
        }
      ],
      "stateMutability": "view",
      "type": "function"
    },
    {
      "inputs": [],
      "name": "lastPendingState",
      "outputs": [
        {
          "internalType": "uint64",
          "name": "",
          "type": "uint64"
        }
      ],
      "stateMutability": "view",
      "type": "function"
    },
    {
      "inputs": [],
      "name": "lastPendingStateConsolidated",
      "outputs": [
        {
          "internalType": "uint64",
          "name": "",
          "type": "uint64"
        }
      ],
      "stateMutability": "view",
      "type": "function"
    },
    {
      "inputs": [],
      "name": "lastTimestamp",
      "outputs": [
        {
          "internalType": "uint64",
          "name": "",
          "type": "uint64"
        }
      ],
      "stateMutability": "view",
      "type": "function"
    },
    {
      "inputs": [],
      "name": "lastVerifiedBatch",
      "outputs": [
        {
          "internalType": "uint64",
          "name": "",
          "type": "uint64"
        }
      ],
      "stateMutability": "view",
      "type": "function"
    },
    {
      "inputs": [],
      "name": "matic",
      "outputs": [
        {
          "internalType": "contract IERC20Upgradeable",
          "name": "",
          "type": "address"
        }
      ],
      "stateMutability": "view",
      "type": "function"
    },
    {
      "inputs": [],
      "name": "multiplierBatchFee",
      "outputs": [
        {
          "internalType": "uint16",
          "name": "",
          "type": "uint16"
        }
      ],
      "stateMutability": "view",
      "type": "function"
    },
    {
      "inputs": [],
      "name": "networkName",
      "outputs": [
        {
          "internalType": "string",
          "name": "",
          "type": "string"
        }
      ],
      "stateMutability": "view",
      "type": "function"
    },
    {
      "inputs": [
        {
          "internalType": "uint64",
          "name": "initPendingStateNum",
          "type": "uint64"
        },
        {
          "internalType": "uint64",
          "name": "finalPendingStateNum",
          "type": "uint64"
        },
        {
          "internalType": "uint64",
          "name": "initNumBatch",
          "type": "uint64"
        },
        {
          "internalType": "uint64",
          "name": "finalNewBatch",
          "type": "uint64"
        },
        {
          "internalType": "bytes32",
          "name": "newLocalExitRoot",
          "type": "bytes32"
        },
        {
          "internalType": "bytes32",
          "name": "newStateRoot",
          "type": "bytes32"
        },
        {
          "internalType": "bytes",
          "name": "proof",
          "type": "bytes"
        }
      ],
      "name": "overridePendingState",
      "outputs": [],
      "stateMutability": "nonpayable",
      "type": "function"
    },
    {
      "inputs": [],
      "name": "owner",
      "outputs": [
        {
          "internalType": "address",
          "name": "",
          "type": "address"
        }
      ],
      "stateMutability": "view",
      "type": "function"
    },
    {
      "inputs": [],
      "name": "pendingAdmin",
      "outputs": [
        {
          "internalType": "address",
          "name": "",
          "type": "address"
        }
      ],
      "stateMutability": "view",
      "type": "function"
    },
    {
      "inputs": [],
      "name": "pendingStateTimeout",
      "outputs": [
        {
          "internalType": "uint64",
          "name": "",
          "type": "uint64"
        }
      ],
      "stateMutability": "view",
      "type": "function"
    },
    {
      "inputs": [
        {
          "internalType": "uint256",
          "name": "",
          "type": "uint256"
        }
      ],
      "name": "pendingStateTransitions",
      "outputs": [
        {
          "internalType": "uint64",
          "name": "timestamp",
          "type": "uint64"
        },
        {
          "internalType": "uint64",
          "name": "lastVerifiedBatch",
          "type": "uint64"
        },
        {
          "internalType": "bytes32",
          "name": "exitRoot",
          "type": "bytes32"
        },
        {
          "internalType": "bytes32",
          "name": "stateRoot",
          "type": "bytes32"
        }
      ],
      "stateMutability": "view",
      "type": "function"
    },
    {
      "inputs": [
        {
          "internalType": "uint64",
          "name": "initPendingStateNum",
          "type": "uint64"
        },
        {
          "internalType": "uint64",
          "name": "finalPendingStateNum",
          "type": "uint64"
        },
        {
          "internalType": "uint64",
          "name": "initNumBatch",
          "type": "uint64"
        },
        {
          "internalType": "uint64",
          "name": "finalNewBatch",
          "type": "uint64"
        },
        {
          "internalType": "bytes32",
          "name": "newLocalExitRoot",
          "type": "bytes32"
        },
        {
          "internalType": "bytes32",
          "name": "newStateRoot",
          "type": "bytes32"
        },
        {
          "internalType": "bytes",
          "name": "proof",
          "type": "bytes"
        }
      ],
      "name": "proveNonDeterministicPendingState",
      "outputs": [],
      "stateMutability": "nonpayable",
      "type": "function"
    },
    {
      "inputs": [],
      "name": "renounceOwnership",
      "outputs": [],
      "stateMutability": "nonpayable",
      "type": "function"
    },
    {
      "inputs": [],
      "name": "rollupVerifier",
      "outputs": [
        {
          "internalType": "contract IVerifierRollup",
          "name": "",
          "type": "address"
        }
      ],
      "stateMutability": "view",
      "type": "function"
    },
    {
      "inputs": [
        {
          "components": [
            {
              "internalType": "bytes",
              "name": "transactions",
              "type": "bytes"
            },
            {
              "internalType": "bytes32",
              "name": "globalExitRoot",
              "type": "bytes32"
            },
            {
              "internalType": "uint64",
              "name": "timestamp",
              "type": "uint64"
            },
            {
              "internalType": "uint64",
              "name": "minForcedTimestamp",
              "type": "uint64"
            }
          ],
          "internalType": "struct PolygonZkEVM.BatchData[]",
          "name": "batches",
          "type": "tuple[]"
        },
        {
          "internalType": "address",
          "name": "l2Coinbase",
          "type": "address"
        }
      ],
      "name": "sequenceBatches",
      "outputs": [],
      "stateMutability": "nonpayable",
      "type": "function"
    },
    {
      "inputs": [
        {
          "components": [
            {
              "internalType": "bytes",
              "name": "transactions",
              "type": "bytes"
            },
            {
              "internalType": "bytes32",
              "name": "globalExitRoot",
              "type": "bytes32"
            },
            {
              "internalType": "uint64",
              "name": "minForcedTimestamp",
              "type": "uint64"
            }
          ],
          "internalType": "struct PolygonZkEVM.ForcedBatchData[]",
          "name": "batches",
          "type": "tuple[]"
        }
      ],
      "name": "sequenceForceBatches",
      "outputs": [],
      "stateMutability": "nonpayable",
      "type": "function"
    },
    {
      "inputs": [
        {
          "internalType": "uint64",
          "name": "",
          "type": "uint64"
        }
      ],
      "name": "sequencedBatches",
      "outputs": [
        {
          "internalType": "bytes32",
          "name": "accInputHash",
          "type": "bytes32"
        },
        {
          "internalType": "uint64",
          "name": "sequencedTimestamp",
          "type": "uint64"
        },
        {
          "internalType": "uint64",
          "name": "previousLastBatchSequenced",
          "type": "uint64"
        }
      ],
      "stateMutability": "view",
      "type": "function"
    },
    {
      "inputs": [
        {
          "internalType": "uint64",
          "name": "newforceBatchTimeout",
          "type": "uint64"
        }
      ],
      "name": "setForceBatchTimeout",
      "outputs": [],
      "stateMutability": "nonpayable",
      "type": "function"
    },
    {
      "inputs": [
        {
          "internalType": "uint16",
          "name": "newMultiplierBatchFee",
          "type": "uint16"
        }
      ],
      "name": "setMultiplierBatchFee",
      "outputs": [],
      "stateMutability": "nonpayable",
      "type": "function"
    },
    {
      "inputs": [
        {
          "internalType": "string",
          "name": "_networkName",
          "type": "string"
        }
      ],
      "name": "setNetworkName",
      "outputs": [],
      "stateMutability": "nonpayable",
      "type": "function"
    },
    {
      "inputs": [
        {
          "internalType": "uint64",
          "name": "newPendingStateTimeout",
          "type": "uint64"
        }
      ],
      "name": "setPendingStateTimeout",
      "outputs": [],
      "stateMutability": "nonpayable",
      "type": "function"
    },
    {
      "inputs": [
        {
          "internalType": "uint64",
          "name": "_numBatch",
          "type": "uint64"
        }
      ],
      "name": "setSequencedBatch",
      "outputs": [],
      "stateMutability": "nonpayable",
      "type": "function"
    },
    {
      "inputs": [
        {
          "internalType": "uint64",
          "name": "batchNum",
          "type": "uint64"
        },
        {
          "internalType": "bytes32",
          "name": "accInputData",
          "type": "bytes32"
        },
        {
          "internalType": "uint64",
          "name": "timestamp",
          "type": "uint64"
        },
        {
          "internalType": "uint64",
          "name": "lastPendingStateConsolidated",
          "type": "uint64"
        }
      ],
      "name": "setSequencedBatches",
      "outputs": [],
      "stateMutability": "nonpayable",
      "type": "function"
    },
    {
      "inputs": [
        {
          "internalType": "bytes32",
          "name": "newStateRoot",
          "type": "bytes32"
        },
        {
          "internalType": "uint64",
          "name": "batchNum",
          "type": "uint64"
        }
      ],
      "name": "setStateRoot",
      "outputs": [],
      "stateMutability": "nonpayable",
      "type": "function"
    },
    {
      "inputs": [
        {
          "internalType": "address",
          "name": "newTrustedAggregator",
          "type": "address"
        }
      ],
      "name": "setTrustedAggregator",
      "outputs": [],
      "stateMutability": "nonpayable",
      "type": "function"
    },
    {
      "inputs": [
        {
          "internalType": "uint64",
          "name": "newTrustedAggregatorTimeout",
          "type": "uint64"
        }
      ],
      "name": "setTrustedAggregatorTimeout",
      "outputs": [],
      "stateMutability": "nonpayable",
      "type": "function"
    },
    {
      "inputs": [
        {
          "internalType": "address",
          "name": "newTrustedSequencer",
          "type": "address"
        }
      ],
      "name": "setTrustedSequencer",
      "outputs": [],
      "stateMutability": "nonpayable",
      "type": "function"
    },
    {
      "inputs": [
        {
          "internalType": "string",
          "name": "newTrustedSequencerURL",
          "type": "string"
        }
      ],
      "name": "setTrustedSequencerURL",
      "outputs": [],
      "stateMutability": "nonpayable",
      "type": "function"
    },
    {
      "inputs": [
        {
          "internalType": "uint64",
          "name": "_numBatch",
          "type": "uint64"
        }
      ],
      "name": "setVerifiedBatch",
      "outputs": [],
      "stateMutability": "nonpayable",
      "type": "function"
    },
    {
      "inputs": [
        {
          "internalType": "uint64",
          "name": "newVerifyBatchTimeTarget",
          "type": "uint64"
        }
      ],
      "name": "setVerifyBatchTimeTarget",
      "outputs": [],
      "stateMutability": "nonpayable",
      "type": "function"
    },
    {
      "inputs": [
        {
          "internalType": "address",
          "name": "newPendingAdmin",
          "type": "address"
        }
      ],
      "name": "transferAdminRole",
      "outputs": [],
      "stateMutability": "nonpayable",
      "type": "function"
    },
    {
      "inputs": [
        {
          "internalType": "address",
          "name": "newOwner",
          "type": "address"
        }
      ],
      "name": "transferOwnership",
      "outputs": [],
      "stateMutability": "nonpayable",
      "type": "function"
    },
    {
      "inputs": [],
      "name": "trustedAggregator",
      "outputs": [
        {
          "internalType": "address",
          "name": "",
          "type": "address"
        }
      ],
      "stateMutability": "view",
      "type": "function"
    },
    {
      "inputs": [],
      "name": "trustedAggregatorTimeout",
      "outputs": [
        {
          "internalType": "uint64",
          "name": "",
          "type": "uint64"
        }
      ],
      "stateMutability": "view",
      "type": "function"
    },
    {
      "inputs": [],
      "name": "trustedSequencer",
      "outputs": [
        {
          "internalType": "address",
          "name": "",
          "type": "address"
        }
      ],
      "stateMutability": "view",
      "type": "function"
    },
    {
      "inputs": [],
      "name": "trustedSequencerURL",
      "outputs": [
        {
          "internalType": "string",
          "name": "",
          "type": "string"
        }
      ],
      "stateMutability": "view",
      "type": "function"
    },
    {
      "inputs": [
        {
          "internalType": "uint64",
          "name": "pendingStateNum",
          "type": "uint64"
        },
        {
          "internalType": "uint64",
          "name": "initNumBatch",
          "type": "uint64"
        },
        {
          "internalType": "uint64",
          "name": "finalNewBatch",
          "type": "uint64"
        },
        {
          "internalType": "bytes32",
          "name": "newLocalExitRoot",
          "type": "bytes32"
        },
        {
          "internalType": "bytes32",
          "name": "newStateRoot",
          "type": "bytes32"
        },
        {
          "internalType": "uint256[2]",
          "name": "proofA",
          "type": "uint256[2]"
        },
        {
          "internalType": "uint256[2][2]",
          "name": "proofB",
          "type": "uint256[2][2]"
        },
        {
          "internalType": "uint256[2]",
          "name": "proofC",
          "type": "uint256[2]"
        }
      ],
      "name": "trustedVerifyBatchesMock",
      "outputs": [],
      "stateMutability": "nonpayable",
      "type": "function"
    },
    {
      "inputs": [
        {
          "internalType": "uint64",
          "name": "newLastVerifiedBatch",
          "type": "uint64"
        }
      ],
      "name": "updateBatchFee",
      "outputs": [],
      "stateMutability": "nonpayable",
      "type": "function"
    },
    {
      "inputs": [],
      "name": "verifyBatchTimeTarget",
      "outputs": [
        {
          "internalType": "uint64",
          "name": "",
          "type": "uint64"
        }
      ],
      "stateMutability": "view",
      "type": "function"
    },
    {
      "inputs": [
        {
          "internalType": "uint64",
          "name": "pendingStateNum",
          "type": "uint64"
        },
        {
          "internalType": "uint64",
          "name": "initNumBatch",
          "type": "uint64"
        },
        {
          "internalType": "uint64",
          "name": "finalNewBatch",
          "type": "uint64"
        },
        {
          "internalType": "bytes32",
          "name": "newLocalExitRoot",
          "type": "bytes32"
        },
        {
          "internalType": "bytes32",
          "name": "newStateRoot",
          "type": "bytes32"
        },
        {
          "internalType": "bytes",
          "name": "proof",
          "type": "bytes"
        }
      ],
      "name": "verifyBatches",
      "outputs": [],
      "stateMutability": "nonpayable",
      "type": "function"
    },
    {
      "inputs": [
        {
          "internalType": "uint64",
          "name": "pendingStateNum",
          "type": "uint64"
        },
        {
          "internalType": "uint64",
          "name": "initNumBatch",
          "type": "uint64"
        },
        {
          "internalType": "uint64",
          "name": "finalNewBatch",
          "type": "uint64"
        },
        {
          "internalType": "bytes32",
          "name": "newLocalExitRoot",
          "type": "bytes32"
        },
        {
          "internalType": "bytes32",
          "name": "newStateRoot",
          "type": "bytes32"
        },
        {
          "internalType": "bytes",
          "name": "proof",
          "type": "bytes"
        }
      ],
      "name": "verifyBatchesTrustedAggregator",
      "outputs": [],
      "stateMutability": "nonpayable",
      "type": "function"
    }
  ],
  "bytecode": "0x6101406040523480156200001257600080fd5b50604051620070aa380380620070aa8339810160408190526200003591620000a5565b6001600160a01b0395861660c05293851660805291841660a05290921660e0526001600160401b0391821661010052166101205262000131565b6001600160a01b03811681146200008557600080fd5b50565b80516001600160401b0381168114620000a057600080fd5b919050565b60008060008060008060c08789031215620000bf57600080fd5b8651620000cc816200006f565b6020880151909650620000df816200006f565b6040880151909550620000f2816200006f565b606088015190945062000105816200006f565b9250620001156080880162000088565b91506200012560a0880162000088565b90509295509295509295565b60805160a05160c05160e0516101005161012051616ea4620002066000396000818161081d01528181611b3b0152613cbf0152600081816109b00152611b1101526000818161096301528181612a98015281816143590152615068015260008181610b42015281816117eb015281816121af015281816126a00152818161351501528181614586015281816147e101526152b9015260008181610c1501528181614f550152615625015260008181610a7f01528181612a660152818161301d015281816147b501526157140152616ea46000f3fe608060405234801561001057600080fd5b506004361061048d5760003560e01c80638da5cb5b1161026b578063c89e42df11610150578063e7a7ed02116100c8578063f14916d611610097578063f851a4401161007c578063f851a44014610c9d578063f8b823e414610cbd578063fe16564f14610cc657600080fd5b8063f14916d614610c77578063f2fde38b14610c8a57600080fd5b8063e7a7ed0214610be0578063e8bf92ed14610c10578063eaeb077b14610c37578063ed6b010414610c4a57600080fd5b8063d8d1091b1161011f578063dbc1697611610104578063dbc1697614610bb2578063e0d1744114610bba578063e6ad707e14610bcd57600080fd5b8063d8d1091b14610b77578063d939b31514610b8a57600080fd5b8063c89e42df14610afb578063cfa8ed4714610b0e578063d02103ca14610b3d578063d2e129f914610b6457600080fd5b8063adc879e9116101e3578063b6b0b097116101b2578063c0cad30211610197578063c0cad30214610ab4578063c0ed84e014610ac7578063c754c7ed14610acf57600080fd5b8063b6b0b09714610a7a578063ba58ae3914610aa157600080fd5b8063adc879e9146109ab578063afd23cbe146109d2578063b4d63f5814610a00578063b4f77ea914610a6757600080fd5b80639c9f3dfe1161023a578063a3c573eb1161021f578063a3c573eb1461095e578063a50a164b14610985578063ada8f9191461099857600080fd5b80639c9f3dfe14610938578063a066215c1461094b57600080fd5b80638da5cb5b146108ec57806396dc3d391461090a57806399f5634e1461091d5780639b7967601461092557600080fd5b80634a910e6a116103915780636b8616ce116103095780637fcb3653116102d8578063837a4738116102bd578063837a47381461083f578063841b24d7146108b45780638c3d7301146108e457600080fd5b80637fcb365314610804578063831c7ead1461081857600080fd5b80636b8616ce146107b65780636ff512cc146107d6578063715018a6146107e95780637215541a146107f157600080fd5b8063542028d5116103605780635e9145c9116103455780635e9145c9146107935780635ec91958146107a657806360469169146107ae57600080fd5b8063542028d5146106ea578063574f649e146106f257600080fd5b80634a910e6a146106915780634e487706146106a45780634fd70464146106b75780635392c5e0146106ca57600080fd5b8063220d789911610424578063394218e9116103f357806345605267116103d85780634560526714610635578063458c04771461065d5780634a1a89a71461067157600080fd5b8063394218e914610602578063423fa8561461061557600080fd5b8063220d78991461056b578063267822471461057e57806329878983146105c3578063383b3be8146105ef57600080fd5b806310a01a721161046057806310a01a721461051457806315064c96146105275780631816b7e51461054457806319d8ac611461055757600080fd5b80630808270c146104925780630a0d9fbe146104a75780630eaa86ea146104de578063107bf28c146104ff575b600080fd5b6104a56104a03660046160ba565b610cd9565b005b606f546104c090610100900467ffffffffffffffff1681565b60405167ffffffffffffffff90911681526020015b60405180910390f35b6104f16104ec366004616153565b610d8c565b6040519081526020016104d5565b610507611264565b6040516104d59190616216565b6104a5610522366004616247565b6112f2565b606f546105349060ff1681565b60405190151581526020016104d5565b6104a56105523660046162da565b6118aa565b6073546104c09067ffffffffffffffff1681565b6105076105793660046162fe565b6119c2565b607b5461059e9073ffffffffffffffffffffffffffffffffffffffff1681565b60405173ffffffffffffffffffffffffffffffffffffffff90911681526020016104d5565b60745461059e9068010000000000000000900473ffffffffffffffffffffffffffffffffffffffff1681565b6105346105fd36600461634b565b611b99565b6104a561061036600461634b565b611bef565b6073546104c09068010000000000000000900467ffffffffffffffff1681565b6073546104c090700100000000000000000000000000000000900467ffffffffffffffff1681565b6079546104c09067ffffffffffffffff1681565b6079546104c09068010000000000000000900467ffffffffffffffff1681565b6104a561069f36600461634b565b611d73565b6104a56106b236600461634b565b611e26565b6104a56106c5366004616366565b611faa565b6104f16106d836600461634b565b60756020526000908152604090205481565b610507612340565b6104f16107003660046164ed565b835160209485012060408051808701979097528681019190915260608087019490945260c09290921b7fffffffffffffffff00000000000000000000000000000000000000000000000016608086015290911b7fffffffffffffffffffffffffffffffffffffffff0000000000000000000000001660888401528051808403607c018152609c9093019052815191012090565b6104a56107a13660046165a4565b61234d565b6104a5612b57565b6104f1612c57565b6104f16107c436600461634b565b60716020526000908152604090205481565b6104a56107e43660046165f8565b612c6d565b6104a5612d42565b6104a56107ff36600461634b565b612d56565b6074546104c09067ffffffffffffffff1681565b6104c07f000000000000000000000000000000000000000000000000000000000000000081565b61088861084d366004616613565b60786020526000908152604090208054600182015460029092015467ffffffffffffffff808316936801000000000000000090930416919084565b6040805167ffffffffffffffff95861681529490931660208501529183015260608201526080016104d5565b6079546104c0907801000000000000000000000000000000000000000000000000900467ffffffffffffffff1681565b6104a5612ec6565b60335473ffffffffffffffffffffffffffffffffffffffff1661059e565b6104a561091836600461634b565b612f92565b6104f1612fd5565b6104a561093336600461634b565b61312e565b6104a561094636600461634b565b61317d565b6104a561095936600461634b565b6132f9565b61059e7f000000000000000000000000000000000000000000000000000000000000000081565b6104a5610993366004616366565b6133ff565b6104a56109a63660046165f8565b6135c4565b6104c07f000000000000000000000000000000000000000000000000000000000000000081565b606f546109ed906901000000000000000000900461ffff1681565b60405161ffff90911681526020016104d5565b610a41610a0e36600461634b565b6072602052600090815260409020805460019091015467ffffffffffffffff808216916801000000000000000090041683565b6040805193845267ffffffffffffffff92831660208501529116908201526060016104d5565b6104a5610a7536600461634b565b613688565b61059e7f000000000000000000000000000000000000000000000000000000000000000081565b610534610aaf366004616613565b613699565b6104a5610ac236600461662c565b613723565b6104c061373b565b607b546104c09074010000000000000000000000000000000000000000900467ffffffffffffffff1681565b6104a5610b0936600461662c565b613790565b606f5461059e906b010000000000000000000000900473ffffffffffffffffffffffffffffffffffffffff1681565b61059e7f000000000000000000000000000000000000000000000000000000000000000081565b6104a5610b72366004616661565b61381d565b6104a5610b85366004616714565b613d64565b6079546104c090700100000000000000000000000000000000900467ffffffffffffffff1681565b6104a5614306565b6104a5610bc8366004616756565b6143df565b6104a5610bdb3660046160ba565b61446f565b6073546104c0907801000000000000000000000000000000000000000000000000900467ffffffffffffffff1681565b61059e7f000000000000000000000000000000000000000000000000000000000000000081565b6104a5610c453660046167a3565b61467f565b607b54610534907c0100000000000000000000000000000000000000000000000000000000900460ff1681565b6104a5610c853660046165f8565b614a75565b6104a5610c983660046165f8565b614b47565b607a5461059e9073ffffffffffffffffffffffffffffffffffffffff1681565b6104f160705481565b6104a5610cd43660046167ef565b614bfb565b606f5460ff1615610d16576040517f2f0047fc00000000000000000000000000000000000000000000000000000000815260040160405180910390fd5b610d268888888888888888614c1e565b67ffffffffffffffff85166000908152607560209081526040918290205482519081529081018590527f1f44c21118c4603cfb4e1b621dbcfa2b73efcececee2b99b620b2953d33a7010910160405180910390a1610d82615066565b5050505050505050565b6000806000610d9961373b565b905067ffffffffffffffff881615610f665760795467ffffffffffffffff9081169089161115610e76576040517f08c379a000000000000000000000000000000000000000000000000000000000815260206004820152605860248201527f506f6c79676f6e5a6b45564d3a3a766572696679426174636865733a2070656e60448201527f64696e6753746174654e756d206d757374206265206c657373206f722065717560648201527f616c207468616e206c61737450656e64696e6753746174650000000000000000608482015260a4015b60405180910390fd5b67ffffffffffffffff8089166000908152607860205260409020600281015481549094509091898116680100000000000000009092041614610f60576040517f08c379a000000000000000000000000000000000000000000000000000000000815260206004820152604c60248201527f506f6c79676f6e5a6b45564d3a3a766572696679426174636865733a20696e6960448201527f744e756d4261746368206d757374206d61746368207468652070656e64696e6760648201527f2073746174652062617463680000000000000000000000000000000000000000608482015260a401610e6d565b506110ff565b67ffffffffffffffff8716600090815260756020526040902054915081611035576040517f08c379a000000000000000000000000000000000000000000000000000000000815260206004820152604360248201527f506f6c79676f6e5a6b45564d3a3a766572696679426174636865733a20696e6960448201527f744e756d426174636820737461746520726f6f7420646f6573206e6f7420657860648201527f6973740000000000000000000000000000000000000000000000000000000000608482015260a401610e6d565b8067ffffffffffffffff168767ffffffffffffffff1611156110ff576040517f08c379a000000000000000000000000000000000000000000000000000000000815260206004820152605d60248201527f506f6c79676f6e5a6b45564d3a3a766572696679426174636865733a20696e6960448201527f744e756d4261746368206d757374206265206c657373206f7220657175616c2060648201527f7468616e2063757272656e744c61737456657269666965644261746368000000608482015260a401610e6d565b8067ffffffffffffffff168667ffffffffffffffff16116111c8576040517f08c379a000000000000000000000000000000000000000000000000000000000815260206004820152605760248201527f506f6c79676f6e5a6b45564d3a3a766572696679426174636865733a2066696e60448201527f616c4e65774261746368206d75737420626520626967676572207468616e206360648201527f757272656e744c61737456657269666965644261746368000000000000000000608482015260a401610e6d565b60006111d788888886896119c2565b905060007f30644e72e131a029b85045b68181585d2833e84879b9709143e1f593f000000160028360405161120c919061681b565b602060405180830381855afa158015611229573d6000803e3d6000fd5b5050506040513d601f19601f8201168201806040525081019061124c9190616837565b611256919061687f565b9a9950505050505050505050565b6077805461127190616893565b80601f016020809104026020016040519081016040528092919081815260200182805461129d90616893565b80156112ea5780601f106112bf576101008083540402835291602001916112ea565b820191906000526020600020905b8154815290600101906020018083116112cd57829003601f168201915b505050505081565b6112fa6150ee565b60008061130561373b565b905067ffffffffffffffff8a16156114cd5760795467ffffffffffffffff908116908b1611156113dd576040517f08c379a000000000000000000000000000000000000000000000000000000000815260206004820152605860248201527f506f6c79676f6e5a6b45564d3a3a766572696679426174636865733a2070656e60448201527f64696e6753746174654e756d206d757374206265206c657373206f722065717560648201527f616c207468616e206c61737450656e64696e6753746174650000000000000000608482015260a401610e6d565b67ffffffffffffffff808b1660009081526078602052604090206002810154815490945090918b81166801000000000000000090920416146114c7576040517f08c379a000000000000000000000000000000000000000000000000000000000815260206004820152604c60248201527f506f6c79676f6e5a6b45564d3a3a766572696679426174636865733a20696e6960448201527f744e756d4261746368206d757374206d61746368207468652070656e64696e6760648201527f2073746174652062617463680000000000000000000000000000000000000000608482015260a401610e6d565b50611666565b67ffffffffffffffff891660009081526075602052604090205491508161159c576040517f08c379a000000000000000000000000000000000000000000000000000000000815260206004820152604360248201527f506f6c79676f6e5a6b45564d3a3a766572696679426174636865733a20696e6960448201527f744e756d426174636820737461746520726f6f7420646f6573206e6f7420657860648201527f6973740000000000000000000000000000000000000000000000000000000000608482015260a401610e6d565b8067ffffffffffffffff168967ffffffffffffffff161115611666576040517f08c379a000000000000000000000000000000000000000000000000000000000815260206004820152605d60248201527f506f6c79676f6e5a6b45564d3a3a766572696679426174636865733a20696e6960448201527f744e756d4261746368206d757374206265206c657373206f7220657175616c2060648201527f7468616e2063757272656e744c61737456657269666965644261746368000000608482015260a401610e6d565b8067ffffffffffffffff168867ffffffffffffffff161161172f576040517f08c379a000000000000000000000000000000000000000000000000000000000815260206004820152605760248201527f506f6c79676f6e5a6b45564d3a3a766572696679426174636865733a2066696e60448201527f616c4e65774261746368206d75737420626520626967676572207468616e206360648201527f757272656e744c61737456657269666965644261746368000000000000000000608482015260a401610e6d565b600061173e8a8a8a868b6119c2565b607480547fffffffffffffffffffffffffffffffffffffffffffffffff00000000000000001667ffffffffffffffff8c8116918217909255600090815260756020526040902089905560795491925016156117bc57607980547fffffffffffffffffffffffffffffffff000000000000000000000000000000001690555b6040517f33d6247d000000000000000000000000000000000000000000000000000000008152600481018990527f000000000000000000000000000000000000000000000000000000000000000073ffffffffffffffffffffffffffffffffffffffff16906333d6247d90602401600060405180830381600087803b15801561184457600080fd5b505af1158015611858573d6000803e3d6000fd5b505060405189815233925067ffffffffffffffff8c1691507fcb339b570a7f0b25afa7333371ff11192092a0aeace12b671f4c212f2815c6fe9060200160405180910390a35050505050505050505050565b607a5473ffffffffffffffffffffffffffffffffffffffff1633146118fb576040517f4755657900000000000000000000000000000000000000000000000000000000815260040160405180910390fd5b6103e88161ffff16108061191457506103ff8161ffff16115b1561194b576040517f4c2533c800000000000000000000000000000000000000000000000000000000815260040160405180910390fd5b606f80547fffffffffffffffffffffffffffffffffffffffffff0000ffffffffffffffffff16690100000000000000000061ffff8416908102919091179091556040519081527f7019933d795eba185c180209e8ae8bffbaa25bcef293364687702c31f4d302c5906020015b60405180910390a150565b67ffffffffffffffff80861660008181526072602052604080822054938816825290205460609291158015906119f6575081155b15611a2d576040517f6818c29e00000000000000000000000000000000000000000000000000000000815260040160405180910390fd5b80611a64576040517f66385b5100000000000000000000000000000000000000000000000000000000815260040160405180910390fd5b611a6d84613699565b611aa3576040517f176b913c00000000000000000000000000000000000000000000000000000000815260040160405180910390fd5b604080517fffffffffffffffffffffffffffffffffffffffff0000000000000000000000003360601b166020820152603481019690965260548601929092527fffffffffffffffff00000000000000000000000000000000000000000000000060c098891b811660748701527f0000000000000000000000000000000000000000000000000000000000000000891b8116607c8701527f0000000000000000000000000000000000000000000000000000000000000000891b81166084870152608c86019490945260ac85015260cc840194909452509290931b90911660ec830152805180830360d401815260f4909201905290565b60795467ffffffffffffffff82811660009081526078602052604081205490924292611bdd9270010000000000000000000000000000000090920481169116616915565b67ffffffffffffffff16111592915050565b607a5473ffffffffffffffffffffffffffffffffffffffff163314611c40576040517f4755657900000000000000000000000000000000000000000000000000000000815260040160405180910390fd5b62093a8067ffffffffffffffff82161115611c87576040517f1d06e87900000000000000000000000000000000000000000000000000000000815260040160405180910390fd5b606f5460ff16611cf65760795467ffffffffffffffff7801000000000000000000000000000000000000000000000000909104811690821610611cf6576040517f401636df00000000000000000000000000000000000000000000000000000000815260040160405180910390fd5b6079805477ffffffffffffffffffffffffffffffffffffffffffffffff16780100000000000000000000000000000000000000000000000067ffffffffffffffff8416908102919091179091556040519081527f1f4fa24c2e4bad19a7f3ec5c5485f70d46c798461c2e684f55bbd0fc661373a1906020016119b7565b60745468010000000000000000900473ffffffffffffffffffffffffffffffffffffffff163314611e1a57606f5460ff1615611ddb576040517f2f0047fc00000000000000000000000000000000000000000000000000000000815260040160405180910390fd5b611de481611b99565b611e1a576040517f0ce9e4a200000000000000000000000000000000000000000000000000000000815260040160405180910390fd5b611e238161516f565b50565b607a5473ffffffffffffffffffffffffffffffffffffffff163314611e77576040517f4755657900000000000000000000000000000000000000000000000000000000815260040160405180910390fd5b62093a8067ffffffffffffffff82161115611ebe576040517ff5e37f2f00000000000000000000000000000000000000000000000000000000815260040160405180910390fd5b606f5460ff16611f2957607b5467ffffffffffffffff74010000000000000000000000000000000000000000909104811690821610611f29576040517ff5e37f2f00000000000000000000000000000000000000000000000000000000815260040160405180910390fd5b607b80547fffffffff0000000000000000ffffffffffffffffffffffffffffffffffffffff167401000000000000000000000000000000000000000067ffffffffffffffff8416908102919091179091556040519081527fa7eb6cb8a613eb4e8bddc1ac3d61ec6cf10898760f0b187bcca794c6ca6fa40b906020016119b7565b606f5460ff1615611fe7576040517f2f0047fc00000000000000000000000000000000000000000000000000000000815260040160405180910390fd5b60795467ffffffffffffffff868116600090815260726020526040902060010154429261203492780100000000000000000000000000000000000000000000000090910481169116616915565b67ffffffffffffffff161115612076576040517f8a0704d300000000000000000000000000000000000000000000000000000000815260040160405180910390fd5b6103e8612083878761693d565b67ffffffffffffffff1611156120c5576040517fb59f753a00000000000000000000000000000000000000000000000000000000815260040160405180910390fd5b6120d487878787878787615382565b6120dd8561573b565b607954700100000000000000000000000000000000900467ffffffffffffffff1660000361222557607480547fffffffffffffffffffffffffffffffffffffffffffffffff00000000000000001667ffffffffffffffff8781169182179092556000908152607560205260409020849055607954161561218057607980547fffffffffffffffffffffffffffffffff000000000000000000000000000000001690555b6040517f33d6247d000000000000000000000000000000000000000000000000000000008152600481018590527f000000000000000000000000000000000000000000000000000000000000000073ffffffffffffffffffffffffffffffffffffffff16906333d6247d90602401600060405180830381600087803b15801561220857600080fd5b505af115801561221c573d6000803e3d6000fd5b505050506122f5565b61222d61591b565b6079805467ffffffffffffffff169060006122478361695e565b825467ffffffffffffffff9182166101009390930a92830292820219169190911790915560408051608081018252428316815288831660208083019182528284018a8152606084018a815260795487166000908152607890935294909120925183549251861668010000000000000000027fffffffffffffffffffffffffffffffff000000000000000000000000000000009093169516949094171781559151600183015551600290910155505b604051838152339067ffffffffffffffff8716907f9c72852172521097ba7e1482e6b44b351323df0155f97f4ea18fcec28e1f5966906020015b60405180910390a350505050505050565b6076805461127190616893565b606f5460ff161561238a576040517f2f0047fc00000000000000000000000000000000000000000000000000000000815260040160405180910390fd5b606f546b010000000000000000000000900473ffffffffffffffffffffffffffffffffffffffff1633146123ea576040517f11e7be1500000000000000000000000000000000000000000000000000000000815260040160405180910390fd5b816000819003612426576040517fcb591a5f00000000000000000000000000000000000000000000000000000000815260040160405180910390fd5b6103e8811115612462576040517fb59f753a00000000000000000000000000000000000000000000000000000000815260040160405180910390fd5b60735467ffffffffffffffff6801000000000000000082048116600081815260726020526040812054838516949293700100000000000000000000000000000000909304909216919082905b868110156128b25760008a8a838181106124ca576124ca616985565b90506020028101906124dc91906169b4565b6124e5906169e8565b8051805160209091012060608201519192509067ffffffffffffffff161561265d57856125118161695e565b9650506000818360200151846060015160405160200161256993929190928352602083019190915260c01b7fffffffffffffffff00000000000000000000000000000000000000000000000016604082015260480190565b604080517fffffffffffffffffffffffffffffffffffffffffffffffffffffffffffffffe0818403018152918152815160209283012067ffffffffffffffff8a166000908152607190935291205490915081146125f2576040517fce3d755e00000000000000000000000000000000000000000000000000000000815260040160405180910390fd5b67ffffffffffffffff8088166000908152607160205260408082209190915560608501519085015190821691161015612657576040517f7f7ab87200000000000000000000000000000000000000000000000000000000815260040160405180910390fd5b5061279a565b602082015115801590612724575060208201516040517f257b363200000000000000000000000000000000000000000000000000000000815260048101919091527f000000000000000000000000000000000000000000000000000000000000000073ffffffffffffffffffffffffffffffffffffffff169063257b3632906024016020604051808303816000875af11580156126fe573d6000803e3d6000fd5b505050506040513d601f19601f820116820180604052508101906127229190616837565b155b1561275b576040517f73bd668d00000000000000000000000000000000000000000000000000000000815260040160405180910390fd5b8151516201d4c0101561279a576040517fa29a6c7c00000000000000000000000000000000000000000000000000000000815260040160405180910390fd5b8767ffffffffffffffff16826040015167ffffffffffffffff1610806127cd575042826040015167ffffffffffffffff16115b15612804576040517fea82791600000000000000000000000000000000000000000000000000000000815260040160405180910390fd5b602082810151604080850151815193840189905290830184905260608084019290925260c01b7fffffffffffffffff0000000000000000000000000000000000000000000000001660808301528b901b7fffffffffffffffffffffffffffffffffffffffff000000000000000000000000166088820152609c0160405160208183030381529060405280519060200120945081604001519750505080806128aa90616a75565b9150506124ae565b506128bd8685616915565b60735490945067ffffffffffffffff780100000000000000000000000000000000000000000000000090910481169084161115612926576040517fc630a00d00000000000000000000000000000000000000000000000000000000815260040160405180910390fd5b6000612932828561693d565b6129469067ffffffffffffffff1688616aad565b604080516060810182528581524267ffffffffffffffff908116602080840191825260738054680100000000000000009081900485168688019081528d861660008181526072909552979093209551865592516001909501805492519585167fffffffffffffffffffffffffffffffff000000000000000000000000000000009384161795851684029590951790945583548c8416911617930292909217905590915082811690851614612a3c57607380547fffffffffffffffff0000000000000000ffffffffffffffffffffffffffffffff1670010000000000000000000000000000000067ffffffffffffffff8716021790555b612a8e333083607054612a4f9190616ac0565b73ffffffffffffffffffffffffffffffffffffffff7f0000000000000000000000000000000000000000000000000000000000000000169291906159c8565b612a9661591b565b7f000000000000000000000000000000000000000000000000000000000000000073ffffffffffffffffffffffffffffffffffffffff166379e2cf976040518163ffffffff1660e01b8152600401600060405180830381600087803b158015612afe57600080fd5b505af1158015612b12573d6000803e3d6000fd5b505060405167ffffffffffffffff881692507f303446e6a8cb73c83dff421c0b1d5e5ce0719dab1bff13660fc254e58cc17fce9150600090a250505050505050505050565b607a5473ffffffffffffffffffffffffffffffffffffffff163314612ba8576040517f4755657900000000000000000000000000000000000000000000000000000000815260040160405180910390fd5b607b547c0100000000000000000000000000000000000000000000000000000000900460ff16612c04576040517ff6ba91a100000000000000000000000000000000000000000000000000000000815260040160405180910390fd5b607b80547fffffff00ffffffffffffffffffffffffffffffffffffffffffffffffffffffff1690556040517f854dd6ce5a1445c4c54388b21cffd11cf5bba1b9e763aec48ce3da75d617412f90600090a1565b60006070546064612c689190616ac0565b905090565b607a5473ffffffffffffffffffffffffffffffffffffffff163314612cbe576040517f4755657900000000000000000000000000000000000000000000000000000000815260040160405180910390fd5b606f80547fff0000000000000000000000000000000000000000ffffffffffffffffffffff166b01000000000000000000000073ffffffffffffffffffffffffffffffffffffffff8416908102919091179091556040519081527ff54144f9611984021529f814a1cb6a41e22c58351510a0d9f7e822618abb9cc0906020016119b7565b612d4a6150ee565b612d546000615aaa565b565b60335473ffffffffffffffffffffffffffffffffffffffff163314612ebe576000612d7f61373b565b90508067ffffffffffffffff168267ffffffffffffffff1611612dce576040517f812a372d00000000000000000000000000000000000000000000000000000000815260040160405180910390fd5b60735467ffffffffffffffff6801000000000000000090910481169083161180612e14575067ffffffffffffffff80831660009081526072602052604090206001015416155b15612e4b576040517f98c5c01400000000000000000000000000000000000000000000000000000000815260040160405180910390fd5b67ffffffffffffffff8083166000908152607260205260409020600101544291612e7a9162093a809116616915565b67ffffffffffffffff161115612ebc576040517fd257555a00000000000000000000000000000000000000000000000000000000815260040160405180910390fd5b505b611e23615066565b607b5473ffffffffffffffffffffffffffffffffffffffff163314612f17576040517fd1ec4b2300000000000000000000000000000000000000000000000000000000815260040160405180910390fd5b607b54607a80547fffffffffffffffffffffffff00000000000000000000000000000000000000001673ffffffffffffffffffffffffffffffffffffffff90921691821790556040519081527f056dc487bbf0795d0bbb1b4f0af523a855503cff740bfb4d5475f7a90c091e8e9060200160405180910390a1565b612f9a6150ee565b607480547fffffffffffffffffffffffffffffffffffffffffffffffff00000000000000001667ffffffffffffffff92909216919091179055565b6040517f70a08231000000000000000000000000000000000000000000000000000000008152306004820152600090819073ffffffffffffffffffffffffffffffffffffffff7f000000000000000000000000000000000000000000000000000000000000000016906370a0823190602401602060405180830381865afa158015613064573d6000803e3d6000fd5b505050506040513d601f19601f820116820180604052508101906130889190616837565b9050600061309461373b565b60735467ffffffffffffffff6801000000000000000082048116916130ec917001000000000000000000000000000000008204811691780100000000000000000000000000000000000000000000000090041661693d565b6130f69190616915565b613100919061693d565b67ffffffffffffffff1690508060000361311d5760009250505090565b6131278183616ad7565b9250505090565b6131366150ee565b6073805467ffffffffffffffff90921668010000000000000000027fffffffffffffffffffffffffffffffff0000000000000000ffffffffffffffff909216919091179055565b607a5473ffffffffffffffffffffffffffffffffffffffff1633146131ce576040517f4755657900000000000000000000000000000000000000000000000000000000815260040160405180910390fd5b62093a8067ffffffffffffffff82161115613215576040517fcc96507000000000000000000000000000000000000000000000000000000000815260040160405180910390fd5b606f5460ff1661327c5760795467ffffffffffffffff70010000000000000000000000000000000090910481169082161061327c576040517f48a05a9000000000000000000000000000000000000000000000000000000000815260040160405180910390fd5b607980547fffffffffffffffff0000000000000000ffffffffffffffffffffffffffffffff1670010000000000000000000000000000000067ffffffffffffffff8416908102919091179091556040519081527fc4121f4e22c69632ebb7cf1f462be0511dc034f999b52013eddfb24aab765c75906020016119b7565b607a5473ffffffffffffffffffffffffffffffffffffffff16331461334a576040517f4755657900000000000000000000000000000000000000000000000000000000815260040160405180910390fd5b620151808167ffffffffffffffff161115613391576040517fe067dfe800000000000000000000000000000000000000000000000000000000815260040160405180910390fd5b606f80547fffffffffffffffffffffffffffffffffffffffffffffff0000000000000000ff1661010067ffffffffffffffff8416908102919091179091556040519081527f1b023231a1ab6b5d93992f168fb44498e1a7e64cef58daff6f1c216de6a68c28906020016119b7565b60745468010000000000000000900473ffffffffffffffffffffffffffffffffffffffff16331461345c576040517fbbcbbc0500000000000000000000000000000000000000000000000000000000815260040160405180910390fd5b61346b87878787878787615382565b607480547fffffffffffffffffffffffffffffffffffffffffffffffff00000000000000001667ffffffffffffffff878116918217909255600090815260756020526040902084905560795416156134e657607980547fffffffffffffffffffffffffffffffff000000000000000000000000000000001690555b6040517f33d6247d000000000000000000000000000000000000000000000000000000008152600481018590527f000000000000000000000000000000000000000000000000000000000000000073ffffffffffffffffffffffffffffffffffffffff16906333d6247d90602401600060405180830381600087803b15801561356e57600080fd5b505af1158015613582573d6000803e3d6000fd5b505060405185815233925067ffffffffffffffff881691507fcb339b570a7f0b25afa7333371ff11192092a0aeace12b671f4c212f2815c6fe9060200161232f565b607a5473ffffffffffffffffffffffffffffffffffffffff163314613615576040517f4755657900000000000000000000000000000000000000000000000000000000815260040160405180910390fd5b607b80547fffffffffffffffffffffffff00000000000000000000000000000000000000001673ffffffffffffffffffffffffffffffffffffffff83169081179091556040519081527fa5b56b7906fd0a20e3f35120dd8343db1e12e037a6c90111c7e42885e82a1ce6906020016119b7565b6136906150ee565b611e238161573b565b600067ffffffff0000000167ffffffffffffffff83161080156136d1575067ffffffff00000001604083901c67ffffffffffffffff16105b80156136f2575067ffffffff00000001608083901c67ffffffffffffffff16105b8015613709575067ffffffff0000000160c083901c105b1561371657506001919050565b506000919050565b919050565b61372b6150ee565b60776137378282616b39565b5050565b60795460009067ffffffffffffffff161561377f575060795467ffffffffffffffff9081166000908152607860205260409020546801000000000000000090041690565b5060745467ffffffffffffffff1690565b607a5473ffffffffffffffffffffffffffffffffffffffff1633146137e1576040517f4755657900000000000000000000000000000000000000000000000000000000815260040160405180910390fd5b60766137ed8282616b39565b507f6b8f723a4c7a5335cafae8a598a0aa0301be1387c037dccc085b62add6448b20816040516119b79190616216565b600054610100900460ff161580801561383d5750600054600160ff909116105b806138575750303b158015613857575060005460ff166001145b6138e3576040517f08c379a000000000000000000000000000000000000000000000000000000000815260206004820152602e60248201527f496e697469616c697a61626c653a20636f6e747261637420697320616c72656160448201527f647920696e697469616c697a65640000000000000000000000000000000000006064820152608401610e6d565b600080547fffffffffffffffffffffffffffffffffffffffffffffffffffffffffffffff00166001179055801561394157600080547fffffffffffffffffffffffffffffffffffffffffffffffffffffffffffff00ff166101001790555b61394e60208801886165f8565b607a80547fffffffffffffffffffffffff00000000000000000000000000000000000000001673ffffffffffffffffffffffffffffffffffffffff929092169190911790556139a360408801602089016165f8565b606f805473ffffffffffffffffffffffffffffffffffffffff929092166b010000000000000000000000027fff0000000000000000000000000000000000000000ffffffffffffffffffffff909216919091179055613a0860808801606089016165f8565b6074805473ffffffffffffffffffffffffffffffffffffffff9290921668010000000000000000027fffffffff0000000000000000000000000000000000000000ffffffffffffffff9092169190911790556000805260756020527ff9e3fbf150b7a0077118526f473c53cb4734f166167e2c6213e3567dd390b4ad8690556076613a938682616b39565b506077613aa08582616b39565b5062093a80613ab56060890160408a0161634b565b67ffffffffffffffff161115613af7576040517fcc96507000000000000000000000000000000000000000000000000000000000815260040160405180910390fd5b613b07606088016040890161634b565b6079805467ffffffffffffffff92909216700100000000000000000000000000000000027fffffffffffffffff0000000000000000ffffffffffffffffffffffffffffffff90921691909117905562093a80613b6960a0890160808a0161634b565b67ffffffffffffffff161115613bab576040517f1d06e87900000000000000000000000000000000000000000000000000000000815260040160405180910390fd5b613bbb60a088016080890161634b565b6079805477ffffffffffffffffffffffffffffffffffffffffffffffff16780100000000000000000000000000000000000000000000000067ffffffffffffffff939093169290920291909117905567016345785d8a0000607055606f80547fffffffffffffffffffffffffffffffffffffffffff00000000000000000000ff166a03ea000000000000070800179055607b80547fffffff000000000000000000ffffffffffffffffffffffffffffffffffffffff167c0100000000000697800000000000000000000000000000000000000000179055613c9a615b21565b7fed7be53c9f1a96a481223b15568a5b1a475e01a74b347d6ca187c8bf0c078cd660007f00000000000000000000000000000000000000000000000000000000000000008585604051613cf09493929190616c9c565b60405180910390a18015613d5b57600080547fffffffffffffffffffffffffffffffffffffffffffffffffffffffffffff00ff169055604051600181527f7f26b83ff96e1f2b6a682f133852f6798a09c465da95921460cefb38474024989060200160405180910390a15b50505050505050565b607b547c0100000000000000000000000000000000000000000000000000000000900460ff1615613dc1576040517f24eff8c300000000000000000000000000000000000000000000000000000000815260040160405180910390fd5b606f5460ff1615613dfe576040517f2f0047fc00000000000000000000000000000000000000000000000000000000815260040160405180910390fd5b806000819003613e3a576040517fcb591a5f00000000000000000000000000000000000000000000000000000000815260040160405180910390fd5b6103e8811115613e76576040517fb59f753a00000000000000000000000000000000000000000000000000000000815260040160405180910390fd5b60735467ffffffffffffffff78010000000000000000000000000000000000000000000000008204811691613ec1918491700100000000000000000000000000000000900416616cd4565b1115613ef9576040517fc630a00d00000000000000000000000000000000000000000000000000000000815260040160405180910390fd5b60735467ffffffffffffffff680100000000000000008204811660008181526072602052604081205491937001000000000000000000000000000000009004909216915b848110156141a3576000878783818110613f5957613f59616985565b9050602002810190613f6b9190616ce7565b613f7490616d1b565b905083613f808161695e565b82518051602091820120818501516040808701519051949950919450600093613fe29386939101928352602083019190915260c01b7fffffffffffffffff00000000000000000000000000000000000000000000000016604082015260480190565b604080517fffffffffffffffffffffffffffffffffffffffffffffffffffffffffffffffe0818403018152918152815160209283012067ffffffffffffffff891660009081526071909352912054909150811461406b576040517fce3d755e00000000000000000000000000000000000000000000000000000000815260040160405180910390fd5b67ffffffffffffffff8616600090815260716020526040812055614090600189616aad565b84036140ff5742607b60149054906101000a900467ffffffffffffffff1684604001516140bd9190616915565b67ffffffffffffffff1611156140ff576040517fc44a082100000000000000000000000000000000000000000000000000000000815260040160405180910390fd5b6020838101516040805192830188905282018490526060808301919091524260c01b7fffffffffffffffff00000000000000000000000000000000000000000000000016608083015233901b7fffffffffffffffffffffffffffffffffffffffff000000000000000000000000166088820152609c01604051602081830303815290604052805190602001209450505050808061419b90616a75565b915050613f3d565b506141ae8484616915565b6073805467ffffffffffffffff4281167fffffffffffffffffffffffffffffffffffffffffffffffff00000000000000009092168217808455604080516060810182528781526020808201958652680100000000000000009384900485168284019081528589166000818152607290935284832093518455965160019390930180549151871686027fffffffffffffffffffffffffffffffff0000000000000000000000000000000090921693871693909317179091558554938916700100000000000000000000000000000000027fffffffffffffffff0000000000000000ffffffffffffffffffffffffffffffff938602939093167fffffffffffffffff00000000000000000000000000000000ffffffffffffffff90941693909317919091179093559151929550917f648a61dd2438f072f5a1960939abd30f37aea80d2e94c9792ad142d3e0a490a49190a2505050505050565b607a5473ffffffffffffffffffffffffffffffffffffffff163314614357576040517f4755657900000000000000000000000000000000000000000000000000000000815260040160405180910390fd5b7f000000000000000000000000000000000000000000000000000000000000000073ffffffffffffffffffffffffffffffffffffffff1663dbc169766040518163ffffffff1660e01b8152600401600060405180830381600087803b1580156143bf57600080fd5b505af11580156143d3573d6000803e3d6000fd5b50505050612d54615bc1565b6143e76150ee565b6040805160608101825293845267ffffffffffffffff92831660208086019182529284168583019081529584166000908152607290935291209251835551600190920180549351821668010000000000000000027fffffffffffffffffffffffffffffffff000000000000000000000000000000009094169290911691909117919091179055565b60745468010000000000000000900473ffffffffffffffffffffffffffffffffffffffff1633146144cc576040517fbbcbbc0500000000000000000000000000000000000000000000000000000000815260040160405180910390fd5b6144dc8888888888888888614c1e565b607480547fffffffffffffffffffffffffffffffffffffffffffffffff00000000000000001667ffffffffffffffff8781169182179092556000908152607560205260409020849055607954161561455757607980547fffffffffffffffffffffffffffffffff000000000000000000000000000000001690555b6040517f33d6247d000000000000000000000000000000000000000000000000000000008152600481018590527f000000000000000000000000000000000000000000000000000000000000000073ffffffffffffffffffffffffffffffffffffffff16906333d6247d90602401600060405180830381600087803b1580156145df57600080fd5b505af11580156145f3573d6000803e3d6000fd5b50506079805477ffffffffffffffffffffffffffffffffffffffffffffffff167a093a800000000000000000000000000000000000000000000000001790555050604051838152339067ffffffffffffffff8716907fcc1b5520188bf1dd3e63f98164b577c4d75c11a619ddea692112f0d1aec4cf729060200160405180910390a35050505050505050565b607b547c0100000000000000000000000000000000000000000000000000000000900460ff16156146dc576040517f24eff8c300000000000000000000000000000000000000000000000000000000815260040160405180910390fd5b606f5460ff1615614719576040517f2f0047fc00000000000000000000000000000000000000000000000000000000815260040160405180910390fd5b6000614723612c57565b90508181111561475f576040517f4732fdb500000000000000000000000000000000000000000000000000000000815260040160405180910390fd5b61138883111561479b576040517fa29a6c7c00000000000000000000000000000000000000000000000000000000815260040160405180910390fd5b6147dd73ffffffffffffffffffffffffffffffffffffffff7f0000000000000000000000000000000000000000000000000000000000000000163330846159c8565b60007f000000000000000000000000000000000000000000000000000000000000000073ffffffffffffffffffffffffffffffffffffffff16633ed691ef6040518163ffffffff1660e01b8152600401602060405180830381865afa15801561484a573d6000803e3d6000fd5b505050506040513d601f19601f8201168201806040525081019061486e9190616837565b60738054919250780100000000000000000000000000000000000000000000000090910467ffffffffffffffff169060186148a88361695e565b91906101000a81548167ffffffffffffffff021916908367ffffffffffffffff1602179055505084846040516148df929190616d97565b60408051918290038220602083015281018290527fffffffffffffffff0000000000000000000000000000000000000000000000004260c01b166060820152606801604080518083037fffffffffffffffffffffffffffffffffffffffffffffffffffffffffffffffe001815291815281516020928301206073547801000000000000000000000000000000000000000000000000900467ffffffffffffffff1660009081526071909352912055323303614a0f57607354604080518381523360208201526060918101829052600091810191909152780100000000000000000000000000000000000000000000000090910467ffffffffffffffff16907ff94bb37db835f1ab585ee00041849a09b12cd081d77fa15ca070757619cbc9319060800160405180910390a2614a6e565b607360189054906101000a900467ffffffffffffffff1667ffffffffffffffff167ff94bb37db835f1ab585ee00041849a09b12cd081d77fa15ca070757619cbc93182338888604051614a659493929190616da7565b60405180910390a25b5050505050565b607a5473ffffffffffffffffffffffffffffffffffffffff163314614ac6576040517f4755657900000000000000000000000000000000000000000000000000000000815260040160405180910390fd5b607480547fffffffff0000000000000000000000000000000000000000ffffffffffffffff166801000000000000000073ffffffffffffffffffffffffffffffffffffffff8416908102919091179091556040519081527f61f8fec29495a3078e9271456f05fb0707fd4e41f7661865f80fc437d06681ca906020016119b7565b614b4f6150ee565b73ffffffffffffffffffffffffffffffffffffffff8116614bf2576040517f08c379a000000000000000000000000000000000000000000000000000000000815260206004820152602660248201527f4f776e61626c653a206e6577206f776e657220697320746865207a65726f206160448201527f64647265737300000000000000000000000000000000000000000000000000006064820152608401610e6d565b611e2381615aaa565b614c036150ee565b67ffffffffffffffff16600090815260756020526040902055565b600067ffffffffffffffff891615614cec5760795467ffffffffffffffff908116908a161115614c7a576040517fbb14c20500000000000000000000000000000000000000000000000000000000815260040160405180910390fd5b5067ffffffffffffffff8089166000908152607860205260409020600281015481549092898116680100000000000000009092041614614ce6576040517f2bd2e3e700000000000000000000000000000000000000000000000000000000815260040160405180910390fd5b50614d88565b5067ffffffffffffffff861660009081526075602052604090205480614d3e576040517f4997b98600000000000000000000000000000000000000000000000000000000815260040160405180910390fd5b60745467ffffffffffffffff9081169088161115614d88576040517f1e56e9e200000000000000000000000000000000000000000000000000000000815260040160405180910390fd5b60795467ffffffffffffffff9081169089161180614dba57508867ffffffffffffffff168867ffffffffffffffff1611155b80614de1575060795467ffffffffffffffff68010000000000000000909104811690891611155b15614e18576040517fbfa7079f00000000000000000000000000000000000000000000000000000000815260040160405180910390fd5b67ffffffffffffffff888116600090815260786020526040902054680100000000000000009004811690871614614e7b576040517f32a2a77f00000000000000000000000000000000000000000000000000000000815260040160405180910390fd5b6000614e8a88888885896119c2565b905060007f30644e72e131a029b85045b68181585d2833e84879b9709143e1f593f0000001600283604051614ebf919061681b565b602060405180830381855afa158015614edc573d6000803e3d6000fd5b5050506040513d601f19601f82011682018060405250810190614eff9190616837565b614f09919061687f565b6040805160208101825282815290517f8d8f8a5c00000000000000000000000000000000000000000000000000000000815291925073ffffffffffffffffffffffffffffffffffffffff7f00000000000000000000000000000000000000000000000000000000000000001691638d8f8a5c91614f8c9189918991600401616ddd565b602060405180830381865afa158015614fa9573d6000803e3d6000fd5b505050506040513d601f19601f82011682018060405250810190614fcd9190616e25565b615003576040517f09bde33900000000000000000000000000000000000000000000000000000000815260040160405180910390fd5b67ffffffffffffffff8a16600090815260786020526040902060020154869003615059576040517fa47276bd00000000000000000000000000000000000000000000000000000000815260040160405180910390fd5b5050505050505050505050565b7f000000000000000000000000000000000000000000000000000000000000000073ffffffffffffffffffffffffffffffffffffffff16632072f6c56040518163ffffffff1660e01b8152600401600060405180830381600087803b1580156150ce57600080fd5b505af11580156150e2573d6000803e3d6000fd5b50505050612d54615c50565b60335473ffffffffffffffffffffffffffffffffffffffff163314612d54576040517f08c379a000000000000000000000000000000000000000000000000000000000815260206004820181905260248201527f4f776e61626c653a2063616c6c6572206973206e6f7420746865206f776e65726044820152606401610e6d565b60795467ffffffffffffffff6801000000000000000090910481169082161115806151a9575060795467ffffffffffffffff908116908216115b156151e0576040517fd086b70b00000000000000000000000000000000000000000000000000000000815260040160405180910390fd5b67ffffffffffffffff818116600081815260786020908152604080832080546074805468010000000000000000928390049098167fffffffffffffffffffffffffffffffffffffffffffffffff000000000000000090981688179055600282015487865260759094529382902092909255607980547fffffffffffffffffffffffffffffffff0000000000000000ffffffffffffffff169390940292909217909255600182015490517f33d6247d00000000000000000000000000000000000000000000000000000000815260048101919091529091907f000000000000000000000000000000000000000000000000000000000000000073ffffffffffffffffffffffffffffffffffffffff16906333d6247d90602401600060405180830381600087803b15801561531257600080fd5b505af1158015615326573d6000803e3d6000fd5b505050508267ffffffffffffffff168167ffffffffffffffff167f328d3c6c0fd6f1be0515e422f2d87e59f25922cbc2233568515a0c4bc3f8510e846002015460405161537591815260200190565b60405180910390a3505050565b60008061538d61373b565b905067ffffffffffffffff89161561545d5760795467ffffffffffffffff908116908a1611156153e9576040517fbb14c20500000000000000000000000000000000000000000000000000000000815260040160405180910390fd5b67ffffffffffffffff808a1660009081526078602052604090206002810154815490945090918a8116680100000000000000009092041614615457576040517f2bd2e3e700000000000000000000000000000000000000000000000000000000815260040160405180910390fd5b506154fe565b67ffffffffffffffff88166000908152607560205260409020549150816154b0576040517f4997b98600000000000000000000000000000000000000000000000000000000815260040160405180910390fd5b8067ffffffffffffffff168867ffffffffffffffff1611156154fe576040517f1e56e9e200000000000000000000000000000000000000000000000000000000815260040160405180910390fd5b8067ffffffffffffffff168767ffffffffffffffff161161554b576040517fb9b18f5700000000000000000000000000000000000000000000000000000000815260040160405180910390fd5b600061555a898989868a6119c2565b905060007f30644e72e131a029b85045b68181585d2833e84879b9709143e1f593f000000160028360405161558f919061681b565b602060405180830381855afa1580156155ac573d6000803e3d6000fd5b5050506040513d601f19601f820116820180604052508101906155cf9190616837565b6155d9919061687f565b6040805160208101825282815290517f8d8f8a5c00000000000000000000000000000000000000000000000000000000815291925073ffffffffffffffffffffffffffffffffffffffff7f00000000000000000000000000000000000000000000000000000000000000001691638d8f8a5c9161565c918a918a91600401616ddd565b602060405180830381865afa158015615679573d6000803e3d6000fd5b505050506040513d601f19601f8201168201806040525081019061569d9190616e25565b6156d3576040517f09bde33900000000000000000000000000000000000000000000000000000000815260040160405180910390fd5b615059336156e1858c61693d565b67ffffffffffffffff166156f3612fd5565b6156fd9190616ac0565b73ffffffffffffffffffffffffffffffffffffffff7f0000000000000000000000000000000000000000000000000000000000000000169190615ce3565b600061574561373b565b905081600080615755848461693d565b606f5467ffffffffffffffff91821692506000916157799161010090041642616aad565b90505b8467ffffffffffffffff168467ffffffffffffffff16146158045767ffffffffffffffff808516600090815260726020526040902060018101549091168210156157e257600181015468010000000000000000900467ffffffffffffffff1694506157fe565b6157ec868661693d565b67ffffffffffffffff16935050615804565b5061577c565b60006158108484616aad565b90508381101561586757808403600c811161582b578061582e565b600c5b9050806103e80a81606f60099054906101000a900461ffff1661ffff160a607054028161585d5761585d616850565b04607055506158d7565b838103600c8111615878578061587b565b600c5b90506000816103e80a82606f60099054906101000a900461ffff1661ffff160a670de0b6b3a764000002816158b2576158b2616850565b04905080607054670de0b6b3a764000002816158d0576158d0616850565b0460705550505b683635c9adc5dea0000060705411156158fc57683635c9adc5dea00000607055613d5b565b633b9aca006070541015613d5b57633b9aca0060705550505050505050565b60795467ffffffffffffffff680100000000000000008204811691161115612d54576079546000906159649068010000000000000000900467ffffffffffffffff166001616915565b905061596f81611b99565b15611e235760795460009060029061599290849067ffffffffffffffff1661693d565b61599c9190616e47565b6159a69083616915565b90506159b181611b99565b156159bf576137378161516f565b6137378261516f565b60405173ffffffffffffffffffffffffffffffffffffffff80851660248301528316604482015260648101829052615aa49085907f23b872dd00000000000000000000000000000000000000000000000000000000906084015b604080517fffffffffffffffffffffffffffffffffffffffffffffffffffffffffffffffe08184030181529190526020810180517bffffffffffffffffffffffffffffffffffffffffffffffffffffffff167fffffffff0000000000000000000000000000000000000000000000000000000090931692909217909152615d3e565b50505050565b6033805473ffffffffffffffffffffffffffffffffffffffff8381167fffffffffffffffffffffffff0000000000000000000000000000000000000000831681179093556040519116919082907f8be0079c531659141344cd1fd0a4f28419497f9722a3daafe3b4186f6b6457e090600090a35050565b600054610100900460ff16615bb8576040517f08c379a000000000000000000000000000000000000000000000000000000000815260206004820152602b60248201527f496e697469616c697a61626c653a20636f6e7472616374206973206e6f74206960448201527f6e697469616c697a696e670000000000000000000000000000000000000000006064820152608401610e6d565b612d5433615aaa565b606f5460ff16615bfd576040517f5386698100000000000000000000000000000000000000000000000000000000815260040160405180910390fd5b606f80547fffffffffffffffffffffffffffffffffffffffffffffffffffffffffffffff001690556040517f1e5e34eea33501aecf2ebec9fe0e884a40804275ea7fe10b2ba084c8374308b390600090a1565b606f5460ff1615615c8d576040517f2f0047fc00000000000000000000000000000000000000000000000000000000815260040160405180910390fd5b606f80547fffffffffffffffffffffffffffffffffffffffffffffffffffffffffffffff001660011790556040517f2261efe5aef6fedc1fd1550b25facc9181745623049c7901287030b9ad1a549790600090a1565b60405173ffffffffffffffffffffffffffffffffffffffff8316602482015260448101829052615d399084907fa9059cbb0000000000000000000000000000000000000000000000000000000090606401615a22565b505050565b6000615da0826040518060400160405280602081526020017f5361666545524332303a206c6f772d6c6576656c2063616c6c206661696c65648152508573ffffffffffffffffffffffffffffffffffffffff16615e4a9092919063ffffffff16565b805190915015615d395780806020019051810190615dbe9190616e25565b615d39576040517f08c379a000000000000000000000000000000000000000000000000000000000815260206004820152602a60248201527f5361666545524332303a204552433230206f7065726174696f6e20646964206e60448201527f6f742073756363656564000000000000000000000000000000000000000000006064820152608401610e6d565b6060615e598484600085615e61565b949350505050565b606082471015615ef3576040517f08c379a000000000000000000000000000000000000000000000000000000000815260206004820152602660248201527f416464726573733a20696e73756666696369656e742062616c616e636520666f60448201527f722063616c6c00000000000000000000000000000000000000000000000000006064820152608401610e6d565b6000808673ffffffffffffffffffffffffffffffffffffffff168587604051615f1c919061681b565b60006040518083038185875af1925050503d8060008114615f59576040519150601f19603f3d011682016040523d82523d6000602084013e615f5e565b606091505b5091509150615f6f87838387615f7a565b979650505050505050565b606083156160105782516000036160095773ffffffffffffffffffffffffffffffffffffffff85163b616009576040517f08c379a000000000000000000000000000000000000000000000000000000000815260206004820152601d60248201527f416464726573733a2063616c6c20746f206e6f6e2d636f6e74726163740000006044820152606401610e6d565b5081615e59565b615e5983838151156160255781518083602001fd5b806040517f08c379a0000000000000000000000000000000000000000000000000000000008152600401610e6d9190616216565b803567ffffffffffffffff8116811461371e57600080fd5b60008083601f84011261608357600080fd5b50813567ffffffffffffffff81111561609b57600080fd5b6020830191508360208285010111156160b357600080fd5b9250929050565b60008060008060008060008060e0898b0312156160d657600080fd5b6160df89616059565b97506160ed60208a01616059565b96506160fb60408a01616059565b955061610960608a01616059565b94506080890135935060a0890135925060c089013567ffffffffffffffff81111561613357600080fd5b61613f8b828c01616071565b999c989b5096995094979396929594505050565b600080600080600060a0868803121561616b57600080fd5b61617486616059565b945061618260208701616059565b935061619060408701616059565b94979396509394606081013594506080013592915050565b60005b838110156161c35781810151838201526020016161ab565b50506000910152565b600081518084526161e48160208601602086016161a8565b601f017fffffffffffffffffffffffffffffffffffffffffffffffffffffffffffffffe0169290920160200192915050565b60208152600061622960208301846161cc565b9392505050565b806040810183101561624157600080fd5b92915050565b6000806000806000806000806101a0898b03121561626457600080fd5b61626d89616059565b975061627b60208a01616059565b965061628960408a01616059565b955060608901359450608089013593506162a68a60a08b01616230565b925061016089018a8111156162ba57600080fd5b60e08a0192506162ca8b82616230565b9150509295985092959890939650565b6000602082840312156162ec57600080fd5b813561ffff8116811461622957600080fd5b600080600080600060a0868803121561631657600080fd5b61631f86616059565b945061632d60208701616059565b94979496505050506040830135926060810135926080909101359150565b60006020828403121561635d57600080fd5b61622982616059565b600080600080600080600060c0888a03121561638157600080fd5b61638a88616059565b965061639860208901616059565b95506163a660408901616059565b9450606088013593506080880135925060a088013567ffffffffffffffff8111156163d057600080fd5b6163dc8a828b01616071565b989b979a50959850939692959293505050565b7f4e487b7100000000000000000000000000000000000000000000000000000000600052604160045260246000fd5b600082601f83011261642f57600080fd5b813567ffffffffffffffff8082111561644a5761644a6163ef565b604051601f83017fffffffffffffffffffffffffffffffffffffffffffffffffffffffffffffffe0908116603f01168101908282118183101715616490576164906163ef565b816040528381528660208588010111156164a957600080fd5b836020870160208301376000602085830101528094505050505092915050565b803573ffffffffffffffffffffffffffffffffffffffff8116811461371e57600080fd5b600080600080600060a0868803121561650557600080fd5b85359450602086013567ffffffffffffffff81111561652357600080fd5b61652f8882890161641e565b9450506040860135925061654560608701616059565b9150616553608087016164c9565b90509295509295909350565b60008083601f84011261657157600080fd5b50813567ffffffffffffffff81111561658957600080fd5b6020830191508360208260051b85010111156160b357600080fd5b6000806000604084860312156165b957600080fd5b833567ffffffffffffffff8111156165d057600080fd5b6165dc8682870161655f565b90945092506165ef9050602085016164c9565b90509250925092565b60006020828403121561660a57600080fd5b616229826164c9565b60006020828403121561662557600080fd5b5035919050565b60006020828403121561663e57600080fd5b813567ffffffffffffffff81111561665557600080fd5b615e598482850161641e565b60008060008060008086880361012081121561667c57600080fd5b60a081121561668a57600080fd5b5086955060a0870135945060c087013567ffffffffffffffff808211156166b057600080fd5b6166bc8a838b0161641e565b955060e08901359150808211156166d257600080fd5b6166de8a838b0161641e565b94506101008901359150808211156166f557600080fd5b5061670289828a01616071565b979a9699509497509295939492505050565b6000806020838503121561672757600080fd5b823567ffffffffffffffff81111561673e57600080fd5b61674a8582860161655f565b90969095509350505050565b6000806000806080858703121561676c57600080fd5b61677585616059565b93506020850135925061678a60408601616059565b915061679860608601616059565b905092959194509250565b6000806000604084860312156167b857600080fd5b833567ffffffffffffffff8111156167cf57600080fd5b6167db86828701616071565b909790965060209590950135949350505050565b6000806040838503121561680257600080fd5b8235915061681260208401616059565b90509250929050565b6000825161682d8184602087016161a8565b9190910192915050565b60006020828403121561684957600080fd5b5051919050565b7f4e487b7100000000000000000000000000000000000000000000000000000000600052601260045260246000fd5b60008261688e5761688e616850565b500690565b600181811c908216806168a757607f821691505b6020821081036168e0577f4e487b7100000000000000000000000000000000000000000000000000000000600052602260045260246000fd5b50919050565b7f4e487b7100000000000000000000000000000000000000000000000000000000600052601160045260246000fd5b67ffffffffffffffff818116838216019080821115616936576169366168e6565b5092915050565b67ffffffffffffffff828116828216039080821115616936576169366168e6565b600067ffffffffffffffff80831681810361697b5761697b6168e6565b6001019392505050565b7f4e487b7100000000000000000000000000000000000000000000000000000000600052603260045260246000fd5b600082357fffffffffffffffffffffffffffffffffffffffffffffffffffffffffffffff8183360301811261682d57600080fd5b6000608082360312156169fa57600080fd5b6040516080810167ffffffffffffffff8282108183111715616a1e57616a1e6163ef565b816040528435915080821115616a3357600080fd5b50616a403682860161641e565b82525060208301356020820152616a5960408401616059565b6040820152616a6a60608401616059565b606082015292915050565b60007fffffffffffffffffffffffffffffffffffffffffffffffffffffffffffffffff8203616aa657616aa66168e6565b5060010190565b81810381811115616241576162416168e6565b8082028115828204841417616241576162416168e6565b600082616ae657616ae6616850565b500490565b601f821115615d3957600081815260208120601f850160051c81016020861015616b125750805b601f850160051c820191505b81811015616b3157828155600101616b1e565b505050505050565b815167ffffffffffffffff811115616b5357616b536163ef565b616b6781616b618454616893565b84616aeb565b602080601f831160018114616bba5760008415616b845750858301515b7fffffffffffffffffffffffffffffffffffffffffffffffffffffffffffffffff600386901b1c1916600185901b178555616b31565b6000858152602081207fffffffffffffffffffffffffffffffffffffffffffffffffffffffffffffffe08616915b82811015616c0757888601518255948401946001909101908401616be8565b5085821015616c4357878501517fffffffffffffffffffffffffffffffffffffffffffffffffffffffffffffffff600388901b60f8161c191681555b5050505050600190811b01905550565b8183528181602085013750600060208284010152600060207fffffffffffffffffffffffffffffffffffffffffffffffffffffffffffffffe0601f840116840101905092915050565b600067ffffffffffffffff808716835280861660208401525060606040830152616cca606083018486616c53565b9695505050505050565b80820180821115616241576162416168e6565b600082357fffffffffffffffffffffffffffffffffffffffffffffffffffffffffffffffa183360301811261682d57600080fd5b600060608236031215616d2d57600080fd5b6040516060810167ffffffffffffffff8282108183111715616d5157616d516163ef565b816040528435915080821115616d6657600080fd5b50616d733682860161641e565b82525060208301356020820152616d8c60408401616059565b604082015292915050565b8183823760009101908152919050565b84815273ffffffffffffffffffffffffffffffffffffffff84166020820152606060408201526000616cca606083018486616c53565b604081526000616df1604083018587616c53565b905060208083018460005b6001811015616e1957815183529183019190830190600101616dfc565b50505050949350505050565b600060208284031215616e3757600080fd5b8151801515811461622957600080fd5b600067ffffffffffffffff80841680616e6257616e62616850565b9216919091049291505056fea2646970667358221220e9dde110193dabbe20664c0d05ccbf1d147e7b8d6ab12e70bdb7b13aa9cd850a64736f6c63430008110033",
  "linkReferences": {},
  "deployedLinkReferences": {}
}