{
  "_format": "hh-sol-artifact-1",
  "contractName": "PolygonZkEVMTimelock",
  "sourceName": "contracts/PolygonZkEVMTimelock.sol",
  "abi": [
    {
      "inputs": [
        {
          "internalType": "uint256",
          "name": "minDelay",
          "type": "uint256"
        },
        {
          "internalType": "address[]",
          "name": "proposers",
          "type": "address[]"
        },
        {
          "internalType": "address[]",
          "name": "executors",
          "type": "address[]"
        },
        {
          "internalType": "address",
          "name": "admin",
          "type": "address"
        },
        {
          "internalType": "contract PolygonZkEVM",
          "name": "_polygonZkEVM",
          "type": "address"
        }
      ],
      "stateMutability": "nonpayable",
      "type": "constructor"
    },
    {
      "anonymous": false,
      "inputs": [
        {
          "indexed": true,
          "internalType": "bytes32",
          "name": "id",
          "type": "bytes32"
        },
        {
          "indexed": true,
          "internalType": "uint256",
          "name": "index",
          "type": "uint256"
        },
        {
          "indexed": false,
          "internalType": "address",
          "name": "target",
          "type": "address"
        },
        {
          "indexed": false,
          "internalType": "uint256",
          "name": "value",
          "type": "uint256"
        },
        {
          "indexed": false,
          "internalType": "bytes",
          "name": "data",
          "type": "bytes"
        }
      ],
      "name": "CallExecuted",
      "type": "event"
    },
    {
      "anonymous": false,
      "inputs": [
        {
          "indexed": true,
          "internalType": "bytes32",
          "name": "id",
          "type": "bytes32"
        },
        {
          "indexed": true,
          "internalType": "uint256",
          "name": "index",
          "type": "uint256"
        },
        {
          "indexed": false,
          "internalType": "address",
          "name": "target",
          "type": "address"
        },
        {
          "indexed": false,
          "internalType": "uint256",
          "name": "value",
          "type": "uint256"
        },
        {
          "indexed": false,
          "internalType": "bytes",
          "name": "data",
          "type": "bytes"
        },
        {
          "indexed": false,
          "internalType": "bytes32",
          "name": "predecessor",
          "type": "bytes32"
        },
        {
          "indexed": false,
          "internalType": "uint256",
          "name": "delay",
          "type": "uint256"
        }
      ],
      "name": "CallScheduled",
      "type": "event"
    },
    {
      "anonymous": false,
      "inputs": [
        {
          "indexed": true,
          "internalType": "bytes32",
          "name": "id",
          "type": "bytes32"
        }
      ],
      "name": "Cancelled",
      "type": "event"
    },
    {
      "anonymous": false,
      "inputs": [
        {
          "indexed": false,
          "internalType": "uint256",
          "name": "oldDuration",
          "type": "uint256"
        },
        {
          "indexed": false,
          "internalType": "uint256",
          "name": "newDuration",
          "type": "uint256"
        }
      ],
      "name": "MinDelayChange",
      "type": "event"
    },
    {
      "anonymous": false,
      "inputs": [
        {
          "indexed": true,
          "internalType": "bytes32",
          "name": "role",
          "type": "bytes32"
        },
        {
          "indexed": true,
          "internalType": "bytes32",
          "name": "previousAdminRole",
          "type": "bytes32"
        },
        {
          "indexed": true,
          "internalType": "bytes32",
          "name": "newAdminRole",
          "type": "bytes32"
        }
      ],
      "name": "RoleAdminChanged",
      "type": "event"
    },
    {
      "anonymous": false,
      "inputs": [
        {
          "indexed": true,
          "internalType": "bytes32",
          "name": "role",
          "type": "bytes32"
        },
        {
          "indexed": true,
          "internalType": "address",
          "name": "account",
          "type": "address"
        },
        {
          "indexed": true,
          "internalType": "address",
          "name": "sender",
          "type": "address"
        }
      ],
      "name": "RoleGranted",
      "type": "event"
    },
    {
      "anonymous": false,
      "inputs": [
        {
          "indexed": true,
          "internalType": "bytes32",
          "name": "role",
          "type": "bytes32"
        },
        {
          "indexed": true,
          "internalType": "address",
          "name": "account",
          "type": "address"
        },
        {
          "indexed": true,
          "internalType": "address",
          "name": "sender",
          "type": "address"
        }
      ],
      "name": "RoleRevoked",
      "type": "event"
    },
    {
      "inputs": [],
      "name": "CANCELLER_ROLE",
      "outputs": [
        {
          "internalType": "bytes32",
          "name": "",
          "type": "bytes32"
        }
      ],
      "stateMutability": "view",
      "type": "function"
    },
    {
      "inputs": [],
      "name": "DEFAULT_ADMIN_ROLE",
      "outputs": [
        {
          "internalType": "bytes32",
          "name": "",
          "type": "bytes32"
        }
      ],
      "stateMutability": "view",
      "type": "function"
    },
    {
      "inputs": [],
      "name": "EXECUTOR_ROLE",
      "outputs": [
        {
          "internalType": "bytes32",
          "name": "",
          "type": "bytes32"
        }
      ],
      "stateMutability": "view",
      "type": "function"
    },
    {
      "inputs": [],
      "name": "PROPOSER_ROLE",
      "outputs": [
        {
          "internalType": "bytes32",
          "name": "",
          "type": "bytes32"
        }
      ],
      "stateMutability": "view",
      "type": "function"
    },
    {
      "inputs": [],
      "name": "TIMELOCK_ADMIN_ROLE",
      "outputs": [
        {
          "internalType": "bytes32",
          "name": "",
          "type": "bytes32"
        }
      ],
      "stateMutability": "view",
      "type": "function"
    },
    {
      "inputs": [
        {
          "internalType": "bytes32",
          "name": "id",
          "type": "bytes32"
        }
      ],
      "name": "cancel",
      "outputs": [],
      "stateMutability": "nonpayable",
      "type": "function"
    },
    {
      "inputs": [
        {
          "internalType": "address",
          "name": "target",
          "type": "address"
        },
        {
          "internalType": "uint256",
          "name": "value",
          "type": "uint256"
        },
        {
          "internalType": "bytes",
          "name": "payload",
          "type": "bytes"
        },
        {
          "internalType": "bytes32",
          "name": "predecessor",
          "type": "bytes32"
        },
        {
          "internalType": "bytes32",
          "name": "salt",
          "type": "bytes32"
        }
      ],
      "name": "execute",
      "outputs": [],
      "stateMutability": "payable",
      "type": "function"
    },
    {
      "inputs": [
        {
          "internalType": "address[]",
          "name": "targets",
          "type": "address[]"
        },
        {
          "internalType": "uint256[]",
          "name": "values",
          "type": "uint256[]"
        },
        {
          "internalType": "bytes[]",
          "name": "payloads",
          "type": "bytes[]"
        },
        {
          "internalType": "bytes32",
          "name": "predecessor",
          "type": "bytes32"
        },
        {
          "internalType": "bytes32",
          "name": "salt",
          "type": "bytes32"
        }
      ],
      "name": "executeBatch",
      "outputs": [],
      "stateMutability": "payable",
      "type": "function"
    },
    {
      "inputs": [],
      "name": "getMinDelay",
      "outputs": [
        {
          "internalType": "uint256",
          "name": "duration",
          "type": "uint256"
        }
      ],
      "stateMutability": "view",
      "type": "function"
    },
    {
      "inputs": [
        {
          "internalType": "bytes32",
          "name": "role",
          "type": "bytes32"
        }
      ],
      "name": "getRoleAdmin",
      "outputs": [
        {
          "internalType": "bytes32",
          "name": "",
          "type": "bytes32"
        }
      ],
      "stateMutability": "view",
      "type": "function"
    },
    {
      "inputs": [
        {
          "internalType": "bytes32",
          "name": "id",
          "type": "bytes32"
        }
      ],
      "name": "getTimestamp",
      "outputs": [
        {
          "internalType": "uint256",
          "name": "timestamp",
          "type": "uint256"
        }
      ],
      "stateMutability": "view",
      "type": "function"
    },
    {
      "inputs": [
        {
          "internalType": "bytes32",
          "name": "role",
          "type": "bytes32"
        },
        {
          "internalType": "address",
          "name": "account",
          "type": "address"
        }
      ],
      "name": "grantRole",
      "outputs": [],
      "stateMutability": "nonpayable",
      "type": "function"
    },
    {
      "inputs": [
        {
          "internalType": "bytes32",
          "name": "role",
          "type": "bytes32"
        },
        {
          "internalType": "address",
          "name": "account",
          "type": "address"
        }
      ],
      "name": "hasRole",
      "outputs": [
        {
          "internalType": "bool",
          "name": "",
          "type": "bool"
        }
      ],
      "stateMutability": "view",
      "type": "function"
    },
    {
      "inputs": [
        {
          "internalType": "address",
          "name": "target",
          "type": "address"
        },
        {
          "internalType": "uint256",
          "name": "value",
          "type": "uint256"
        },
        {
          "internalType": "bytes",
          "name": "data",
          "type": "bytes"
        },
        {
          "internalType": "bytes32",
          "name": "predecessor",
          "type": "bytes32"
        },
        {
          "internalType": "bytes32",
          "name": "salt",
          "type": "bytes32"
        }
      ],
      "name": "hashOperation",
      "outputs": [
        {
          "internalType": "bytes32",
          "name": "hash",
          "type": "bytes32"
        }
      ],
      "stateMutability": "pure",
      "type": "function"
    },
    {
      "inputs": [
        {
          "internalType": "address[]",
          "name": "targets",
          "type": "address[]"
        },
        {
          "internalType": "uint256[]",
          "name": "values",
          "type": "uint256[]"
        },
        {
          "internalType": "bytes[]",
          "name": "payloads",
          "type": "bytes[]"
        },
        {
          "internalType": "bytes32",
          "name": "predecessor",
          "type": "bytes32"
        },
        {
          "internalType": "bytes32",
          "name": "salt",
          "type": "bytes32"
        }
      ],
      "name": "hashOperationBatch",
      "outputs": [
        {
          "internalType": "bytes32",
          "name": "hash",
          "type": "bytes32"
        }
      ],
      "stateMutability": "pure",
      "type": "function"
    },
    {
      "inputs": [
        {
          "internalType": "bytes32",
          "name": "id",
          "type": "bytes32"
        }
      ],
      "name": "isOperation",
      "outputs": [
        {
          "internalType": "bool",
          "name": "registered",
          "type": "bool"
        }
      ],
      "stateMutability": "view",
      "type": "function"
    },
    {
      "inputs": [
        {
          "internalType": "bytes32",
          "name": "id",
          "type": "bytes32"
        }
      ],
      "name": "isOperationDone",
      "outputs": [
        {
          "internalType": "bool",
          "name": "done",
          "type": "bool"
        }
      ],
      "stateMutability": "view",
      "type": "function"
    },
    {
      "inputs": [
        {
          "internalType": "bytes32",
          "name": "id",
          "type": "bytes32"
        }
      ],
      "name": "isOperationPending",
      "outputs": [
        {
          "internalType": "bool",
          "name": "pending",
          "type": "bool"
        }
      ],
      "stateMutability": "view",
      "type": "function"
    },
    {
      "inputs": [
        {
          "internalType": "bytes32",
          "name": "id",
          "type": "bytes32"
        }
      ],
      "name": "isOperationReady",
      "outputs": [
        {
          "internalType": "bool",
          "name": "ready",
          "type": "bool"
        }
      ],
      "stateMutability": "view",
      "type": "function"
    },
    {
      "inputs": [
        {
          "internalType": "address",
          "name": "",
          "type": "address"
        },
        {
          "internalType": "address",
          "name": "",
          "type": "address"
        },
        {
          "internalType": "uint256[]",
          "name": "",
          "type": "uint256[]"
        },
        {
          "internalType": "uint256[]",
          "name": "",
          "type": "uint256[]"
        },
        {
          "internalType": "bytes",
          "name": "",
          "type": "bytes"
        }
      ],
      "name": "onERC1155BatchReceived",
      "outputs": [
        {
          "internalType": "bytes4",
          "name": "",
          "type": "bytes4"
        }
      ],
      "stateMutability": "nonpayable",
      "type": "function"
    },
    {
      "inputs": [
        {
          "internalType": "address",
          "name": "",
          "type": "address"
        },
        {
          "internalType": "address",
          "name": "",
          "type": "address"
        },
        {
          "internalType": "uint256",
          "name": "",
          "type": "uint256"
        },
        {
          "internalType": "uint256",
          "name": "",
          "type": "uint256"
        },
        {
          "internalType": "bytes",
          "name": "",
          "type": "bytes"
        }
      ],
      "name": "onERC1155Received",
      "outputs": [
        {
          "internalType": "bytes4",
          "name": "",
          "type": "bytes4"
        }
      ],
      "stateMutability": "nonpayable",
      "type": "function"
    },
    {
      "inputs": [
        {
          "internalType": "address",
          "name": "",
          "type": "address"
        },
        {
          "internalType": "address",
          "name": "",
          "type": "address"
        },
        {
          "internalType": "uint256",
          "name": "",
          "type": "uint256"
        },
        {
          "internalType": "bytes",
          "name": "",
          "type": "bytes"
        }
      ],
      "name": "onERC721Received",
      "outputs": [
        {
          "internalType": "bytes4",
          "name": "",
          "type": "bytes4"
        }
      ],
      "stateMutability": "nonpayable",
      "type": "function"
    },
    {
      "inputs": [],
      "name": "polygonZkEVM",
      "outputs": [
        {
          "internalType": "contract PolygonZkEVM",
          "name": "",
          "type": "address"
        }
      ],
      "stateMutability": "view",
      "type": "function"
    },
    {
      "inputs": [
        {
          "internalType": "bytes32",
          "name": "role",
          "type": "bytes32"
        },
        {
          "internalType": "address",
          "name": "account",
          "type": "address"
        }
      ],
      "name": "renounceRole",
      "outputs": [],
      "stateMutability": "nonpayable",
      "type": "function"
    },
    {
      "inputs": [
        {
          "internalType": "bytes32",
          "name": "role",
          "type": "bytes32"
        },
        {
          "internalType": "address",
          "name": "account",
          "type": "address"
        }
      ],
      "name": "revokeRole",
      "outputs": [],
      "stateMutability": "nonpayable",
      "type": "function"
    },
    {
      "inputs": [
        {
          "internalType": "address",
          "name": "target",
          "type": "address"
        },
        {
          "internalType": "uint256",
          "name": "value",
          "type": "uint256"
        },
        {
          "internalType": "bytes",
          "name": "data",
          "type": "bytes"
        },
        {
          "internalType": "bytes32",
          "name": "predecessor",
          "type": "bytes32"
        },
        {
          "internalType": "bytes32",
          "name": "salt",
          "type": "bytes32"
        },
        {
          "internalType": "uint256",
          "name": "delay",
          "type": "uint256"
        }
      ],
      "name": "schedule",
      "outputs": [],
      "stateMutability": "nonpayable",
      "type": "function"
    },
    {
      "inputs": [
        {
          "internalType": "address[]",
          "name": "targets",
          "type": "address[]"
        },
        {
          "internalType": "uint256[]",
          "name": "values",
          "type": "uint256[]"
        },
        {
          "internalType": "bytes[]",
          "name": "payloads",
          "type": "bytes[]"
        },
        {
          "internalType": "bytes32",
          "name": "predecessor",
          "type": "bytes32"
        },
        {
          "internalType": "bytes32",
          "name": "salt",
          "type": "bytes32"
        },
        {
          "internalType": "uint256",
          "name": "delay",
          "type": "uint256"
        }
      ],
      "name": "scheduleBatch",
      "outputs": [],
      "stateMutability": "nonpayable",
      "type": "function"
    },
    {
      "inputs": [
        {
          "internalType": "bytes4",
          "name": "interfaceId",
          "type": "bytes4"
        }
      ],
      "name": "supportsInterface",
      "outputs": [
        {
          "internalType": "bool",
          "name": "",
          "type": "bool"
        }
      ],
      "stateMutability": "view",
      "type": "function"
    },
    {
      "inputs": [
        {
          "internalType": "uint256",
          "name": "newDelay",
          "type": "uint256"
        }
      ],
      "name": "updateDelay",
      "outputs": [],
      "stateMutability": "nonpayable",
      "type": "function"
    },
    {
      "stateMutability": "payable",
      "type": "receive"
    }
  ],
  "bytecode": "0x60a06040523480156200001157600080fd5b5060405162002ce838038062002ce883398101604081905262000034916200042b565b848484846200005360008051602062002c688339815191528062000242565b6200007d60008051602062002c8883398151915260008051602062002c6883398151915262000242565b620000a760008051602062002ca883398151915260008051602062002c6883398151915262000242565b620000d160008051602062002cc883398151915260008051602062002c6883398151915262000242565b620000ec60008051602062002c68833981519152306200028d565b6001600160a01b0381161562000117576200011760008051602062002c68833981519152826200028d565b60005b83518110156200019d576200016160008051602062002c888339815191528583815181106200014d576200014d620004cc565b60200260200101516200028d60201b60201c565b6200018a60008051602062002cc88339815191528583815181106200014d576200014d620004cc565b6200019581620004e2565b90506200011a565b5060005b8251811015620001e757620001d460008051602062002ca88339815191528483815181106200014d576200014d620004cc565b620001df81620004e2565b9050620001a1565b5060028490556040805160008152602081018690527f11c24f4ead16507c69ac467fbd5e4eed5fb5c699626d2cc6d66421df253886d5910160405180910390a1505050506001600160a01b0316608052506200050a92505050565b600082815260208190526040808220600101805490849055905190918391839186917fbd79b86ffe0ab8e8776151514217cd7cacd52c909f66475c3af44e129f0b00ff9190a4505050565b6200029982826200029d565b5050565b6000828152602081815260408083206001600160a01b038516845290915290205460ff1662000299576000828152602081815260408083206001600160a01b03851684529091529020805460ff19166001179055620002f93390565b6001600160a01b0316816001600160a01b0316837f2f8788117e7eff1d82e926ec794901d17c78024a50270940304540a733656f0d60405160405180910390a45050565b634e487b7160e01b600052604160045260246000fd5b6001600160a01b03811681146200036957600080fd5b50565b8051620003798162000353565b919050565b600082601f8301126200039057600080fd5b815160206001600160401b0380831115620003af57620003af6200033d565b8260051b604051601f19603f83011681018181108482111715620003d757620003d76200033d565b604052938452858101830193838101925087851115620003f657600080fd5b83870191505b84821015620004205762000410826200036c565b83529183019190830190620003fc565b979650505050505050565b600080600080600060a086880312156200044457600080fd5b855160208701519095506001600160401b03808211156200046457600080fd5b6200047289838a016200037e565b955060408801519150808211156200048957600080fd5b5062000498888289016200037e565b9350506060860151620004ab8162000353565b6080870151909250620004be8162000353565b809150509295509295909350565b634e487b7160e01b600052603260045260246000fd5b6000600182016200050357634e487b7160e01b600052601160045260246000fd5b5060010190565b60805161273b6200052d6000396000818161041a0152611165015261273b6000f3fe6080604052600436106101c65760003560e01c806364d62353116100f7578063b1c5f42711610095578063d547741f11610064578063d547741f14610661578063e38335e514610681578063f23a6e6114610694578063f27a0c92146106d957600080fd5b8063b1c5f427146105af578063bc197c81146105cf578063c4d252f514610614578063d45c44351461063457600080fd5b80638f61f4f5116100d15780638f61f4f5146104e157806391d1485414610515578063a217fddf14610566578063b08e51c01461057b57600080fd5b806364d62353146104815780638065657f146104a15780638f2a0bb0146104c157600080fd5b8063248a9ca31161016457806331d507501161013e57806331d50750146103c857806336568abe146103e85780633a6aae7214610408578063584b153e1461046157600080fd5b8063248a9ca3146103475780632ab0f529146103775780632f2ff15d146103a857600080fd5b80630d3cf6fc116101a05780630d3cf6fc1461026b578063134008d31461029f57806313bc9f20146102b2578063150b7a02146102d257600080fd5b806301d5062a146101d257806301ffc9a7146101f457806307bd02651461022957600080fd5b366101cd57005b600080fd5b3480156101de57600080fd5b506101f26101ed366004611c12565b6106ee565b005b34801561020057600080fd5b5061021461020f366004611c87565b610783565b60405190151581526020015b60405180910390f35b34801561023557600080fd5b5061025d7fd8aa0f3194971a2a116679f7c2090f6939c8d4e01a2a8d7e41d55e5351469e6381565b604051908152602001610220565b34801561027757600080fd5b5061025d7f5f58e3a2316349923ce3780f8d587db2d72378aed66a8261c916544fa6846ca581565b6101f26102ad366004611cc9565b6107df565b3480156102be57600080fd5b506102146102cd366004611d35565b6108d7565b3480156102de57600080fd5b506103166102ed366004611e5a565b7f150b7a0200000000000000000000000000000000000000000000000000000000949350505050565b6040517fffffffff000000000000000000000000000000000000000000000000000000009091168152602001610220565b34801561035357600080fd5b5061025d610362366004611d35565b60009081526020819052604090206001015490565b34801561038357600080fd5b50610214610392366004611d35565b6000908152600160208190526040909120541490565b3480156103b457600080fd5b506101f26103c3366004611ec2565b6108fd565b3480156103d457600080fd5b506102146103e3366004611d35565b610927565b3480156103f457600080fd5b506101f2610403366004611ec2565b610940565b34801561041457600080fd5b5061043c7f000000000000000000000000000000000000000000000000000000000000000081565b60405173ffffffffffffffffffffffffffffffffffffffff9091168152602001610220565b34801561046d57600080fd5b5061021461047c366004611d35565b6109f8565b34801561048d57600080fd5b506101f261049c366004611d35565b610a0e565b3480156104ad57600080fd5b5061025d6104bc366004611cc9565b610ade565b3480156104cd57600080fd5b506101f26104dc366004611f33565b610b1d565b3480156104ed57600080fd5b5061025d7fb09aa5aeb3702cfd50b6b62bc4532604938f21248a27a1d5ca736082b6819cc181565b34801561052157600080fd5b50610214610530366004611ec2565b60009182526020828152604080842073ffffffffffffffffffffffffffffffffffffffff93909316845291905290205460ff1690565b34801561057257600080fd5b5061025d600081565b34801561058757600080fd5b5061025d7ffd643c72710c63c0180259aba6b2d05451e3591a24e58b62239378085726f78381565b3480156105bb57600080fd5b5061025d6105ca366004611fe5565b610d4f565b3480156105db57600080fd5b506103166105ea36600461210e565b7fbc197c810000000000000000000000000000000000000000000000000000000095945050505050565b34801561062057600080fd5b506101f261062f366004611d35565b610d94565b34801561064057600080fd5b5061025d61064f366004611d35565b60009081526001602052604090205490565b34801561066d57600080fd5b506101f261067c366004611ec2565b610e8f565b6101f261068f366004611fe5565b610eb4565b3480156106a057600080fd5b506103166106af3660046121b8565b7ff23a6e610000000000000000000000000000000000000000000000000000000095945050505050565b3480156106e557600080fd5b5061025d611161565b7fb09aa5aeb3702cfd50b6b62bc4532604938f21248a27a1d5ca736082b6819cc161071881611204565b6000610728898989898989610ade565b90506107348184611211565b6000817f4cf4410cc57040e44862ef0f45f3dd5a5e02db8eb8add648d4b0e236f1d07dca8b8b8b8b8b8a60405161077096959493929190612266565b60405180910390a3505050505050505050565b60007fffffffff0000000000000000000000000000000000000000000000000000000082167f4e2312e00000000000000000000000000000000000000000000000000000000014806107d957506107d98261135e565b92915050565b600080527fdae2aa361dfd1ca020a396615627d436107c35eff9fe7738a3512819782d70696020527f5ba6852781629bcdcd4bdaa6de76d786f1c64b16acdac474e55bebc0ea157951547fd8aa0f3194971a2a116679f7c2090f6939c8d4e01a2a8d7e41d55e5351469e639060ff1661085c5761085c81336113f5565b600061086c888888888888610ade565b905061087881856114ad565b610884888888886115ea565b6000817fc2617efa69bab66782fa219543714338489c4e9e178271560a91b82c3f612b588a8a8a8a6040516108bc94939291906122b1565b60405180910390a36108cd816116ee565b5050505050505050565b6000818152600160205260408120546001811180156108f65750428111155b9392505050565b60008281526020819052604090206001015461091881611204565b6109228383611797565b505050565b60008181526001602052604081205481905b1192915050565b73ffffffffffffffffffffffffffffffffffffffff811633146109ea576040517f08c379a000000000000000000000000000000000000000000000000000000000815260206004820152602f60248201527f416363657373436f6e74726f6c3a2063616e206f6e6c792072656e6f756e636560448201527f20726f6c657320666f722073656c66000000000000000000000000000000000060648201526084015b60405180910390fd5b6109f48282611887565b5050565b6000818152600160208190526040822054610939565b333014610a9d576040517f08c379a000000000000000000000000000000000000000000000000000000000815260206004820152602b60248201527f54696d656c6f636b436f6e74726f6c6c65723a2063616c6c6572206d7573742060448201527f62652074696d656c6f636b00000000000000000000000000000000000000000060648201526084016109e1565b60025460408051918252602082018390527f11c24f4ead16507c69ac467fbd5e4eed5fb5c699626d2cc6d66421df253886d5910160405180910390a1600255565b6000868686868686604051602001610afb96959493929190612266565b6040516020818303038152906040528051906020012090509695505050505050565b7fb09aa5aeb3702cfd50b6b62bc4532604938f21248a27a1d5ca736082b6819cc1610b4781611204565b888714610bd6576040517f08c379a000000000000000000000000000000000000000000000000000000000815260206004820152602360248201527f54696d656c6f636b436f6e74726f6c6c65723a206c656e677468206d69736d6160448201527f746368000000000000000000000000000000000000000000000000000000000060648201526084016109e1565b888514610c65576040517f08c379a000000000000000000000000000000000000000000000000000000000815260206004820152602360248201527f54696d656c6f636b436f6e74726f6c6c65723a206c656e677468206d69736d6160448201527f746368000000000000000000000000000000000000000000000000000000000060648201526084016109e1565b6000610c778b8b8b8b8b8b8b8b610d4f565b9050610c838184611211565b60005b8a811015610d415780827f4cf4410cc57040e44862ef0f45f3dd5a5e02db8eb8add648d4b0e236f1d07dca8e8e85818110610cc357610cc36122f1565b9050602002016020810190610cd89190612320565b8d8d86818110610cea57610cea6122f1565b905060200201358c8c87818110610d0357610d036122f1565b9050602002810190610d15919061233b565b8c8b604051610d2996959493929190612266565b60405180910390a3610d3a816123cf565b9050610c86565b505050505050505050505050565b60008888888888888888604051602001610d709897969594939291906124b7565b60405160208183030381529060405280519060200120905098975050505050505050565b7ffd643c72710c63c0180259aba6b2d05451e3591a24e58b62239378085726f783610dbe81611204565b610dc7826109f8565b610e53576040517f08c379a000000000000000000000000000000000000000000000000000000000815260206004820152603160248201527f54696d656c6f636b436f6e74726f6c6c65723a206f7065726174696f6e20636160448201527f6e6e6f742062652063616e63656c6c656400000000000000000000000000000060648201526084016109e1565b6000828152600160205260408082208290555183917fbaa1eb22f2a492ba1a5fea61b8df4d27c6c8b5f3971e63bb58fa14ff72eedb7091a25050565b600082815260208190526040902060010154610eaa81611204565b6109228383611887565b600080527fdae2aa361dfd1ca020a396615627d436107c35eff9fe7738a3512819782d70696020527f5ba6852781629bcdcd4bdaa6de76d786f1c64b16acdac474e55bebc0ea157951547fd8aa0f3194971a2a116679f7c2090f6939c8d4e01a2a8d7e41d55e5351469e639060ff16610f3157610f3181336113f5565b878614610fc0576040517f08c379a000000000000000000000000000000000000000000000000000000000815260206004820152602360248201527f54696d656c6f636b436f6e74726f6c6c65723a206c656e677468206d69736d6160448201527f746368000000000000000000000000000000000000000000000000000000000060648201526084016109e1565b87841461104f576040517f08c379a000000000000000000000000000000000000000000000000000000000815260206004820152602360248201527f54696d656c6f636b436f6e74726f6c6c65723a206c656e677468206d69736d6160448201527f746368000000000000000000000000000000000000000000000000000000000060648201526084016109e1565b60006110618a8a8a8a8a8a8a8a610d4f565b905061106d81856114ad565b60005b8981101561114b5760008b8b8381811061108c5761108c6122f1565b90506020020160208101906110a19190612320565b905060008a8a848181106110b7576110b76122f1565b9050602002013590503660008a8a868181106110d5576110d56122f1565b90506020028101906110e7919061233b565b915091506110f7848484846115ea565b84867fc2617efa69bab66782fa219543714338489c4e9e178271560a91b82c3f612b588686868660405161112e94939291906122b1565b60405180910390a35050505080611144906123cf565b9050611070565b50611155816116ee565b50505050505050505050565b60007f000000000000000000000000000000000000000000000000000000000000000073ffffffffffffffffffffffffffffffffffffffff166315064c966040518163ffffffff1660e01b8152600401602060405180830381865afa1580156111ce573d6000803e3d6000fd5b505050506040513d601f19601f820116820180604052508101906111f2919061257e565b156111fd5750600090565b5060025490565b61120e81336113f5565b50565b61121a82610927565b156112a7576040517f08c379a000000000000000000000000000000000000000000000000000000000815260206004820152602f60248201527f54696d656c6f636b436f6e74726f6c6c65723a206f7065726174696f6e20616c60448201527f7265616479207363686564756c6564000000000000000000000000000000000060648201526084016109e1565b6112af611161565b81101561133e576040517f08c379a000000000000000000000000000000000000000000000000000000000815260206004820152602660248201527f54696d656c6f636b436f6e74726f6c6c65723a20696e73756666696369656e7460448201527f2064656c6179000000000000000000000000000000000000000000000000000060648201526084016109e1565b61134881426125a0565b6000928352600160205260409092209190915550565b60007fffffffff0000000000000000000000000000000000000000000000000000000082167f7965db0b0000000000000000000000000000000000000000000000000000000014806107d957507f01ffc9a7000000000000000000000000000000000000000000000000000000007fffffffff000000000000000000000000000000000000000000000000000000008316146107d9565b60008281526020818152604080832073ffffffffffffffffffffffffffffffffffffffff8516845290915290205460ff166109f4576114338161193e565b61143e83602061195d565b60405160200161144f9291906125d7565b604080517fffffffffffffffffffffffffffffffffffffffffffffffffffffffffffffffe0818403018152908290527f08c379a00000000000000000000000000000000000000000000000000000000082526109e191600401612658565b6114b6826108d7565b611542576040517f08c379a000000000000000000000000000000000000000000000000000000000815260206004820152602a60248201527f54696d656c6f636b436f6e74726f6c6c65723a206f7065726174696f6e20697360448201527f206e6f742072656164790000000000000000000000000000000000000000000060648201526084016109e1565b80158061155e5750600081815260016020819052604090912054145b6109f4576040517f08c379a000000000000000000000000000000000000000000000000000000000815260206004820152602660248201527f54696d656c6f636b436f6e74726f6c6c65723a206d697373696e67206465706560448201527f6e64656e6379000000000000000000000000000000000000000000000000000060648201526084016109e1565b60008473ffffffffffffffffffffffffffffffffffffffff168484846040516116149291906126a9565b60006040518083038185875af1925050503d8060008114611651576040519150601f19603f3d011682016040523d82523d6000602084013e611656565b606091505b50509050806116e7576040517f08c379a000000000000000000000000000000000000000000000000000000000815260206004820152603360248201527f54696d656c6f636b436f6e74726f6c6c65723a20756e6465726c79696e67207460448201527f72616e73616374696f6e2072657665727465640000000000000000000000000060648201526084016109e1565b5050505050565b6116f7816108d7565b611783576040517f08c379a000000000000000000000000000000000000000000000000000000000815260206004820152602a60248201527f54696d656c6f636b436f6e74726f6c6c65723a206f7065726174696f6e20697360448201527f206e6f742072656164790000000000000000000000000000000000000000000060648201526084016109e1565b600090815260016020819052604090912055565b60008281526020818152604080832073ffffffffffffffffffffffffffffffffffffffff8516845290915290205460ff166109f45760008281526020818152604080832073ffffffffffffffffffffffffffffffffffffffff85168452909152902080547fffffffffffffffffffffffffffffffffffffffffffffffffffffffffffffff001660011790556118293390565b73ffffffffffffffffffffffffffffffffffffffff168173ffffffffffffffffffffffffffffffffffffffff16837f2f8788117e7eff1d82e926ec794901d17c78024a50270940304540a733656f0d60405160405180910390a45050565b60008281526020818152604080832073ffffffffffffffffffffffffffffffffffffffff8516845290915290205460ff16156109f45760008281526020818152604080832073ffffffffffffffffffffffffffffffffffffffff8516808552925280832080547fffffffffffffffffffffffffffffffffffffffffffffffffffffffffffffff0016905551339285917ff6391f5c32d9c69d2a47ea670b442974b53935d1edc7fd64eb21e047a839171b9190a45050565b60606107d973ffffffffffffffffffffffffffffffffffffffff831660145b6060600061196c8360026126b9565b6119779060026125a0565b67ffffffffffffffff81111561198f5761198f611d4e565b6040519080825280601f01601f1916602001820160405280156119b9576020820181803683370190505b5090507f3000000000000000000000000000000000000000000000000000000000000000816000815181106119f0576119f06122f1565b60200101907effffffffffffffffffffffffffffffffffffffffffffffffffffffffffffff1916908160001a9053507f780000000000000000000000000000000000000000000000000000000000000081600181518110611a5357611a536122f1565b60200101907effffffffffffffffffffffffffffffffffffffffffffffffffffffffffffff1916908160001a9053506000611a8f8460026126b9565b611a9a9060016125a0565b90505b6001811115611b37577f303132333435363738396162636465660000000000000000000000000000000085600f1660108110611adb57611adb6122f1565b1a60f81b828281518110611af157611af16122f1565b60200101907effffffffffffffffffffffffffffffffffffffffffffffffffffffffffffff1916908160001a90535060049490941c93611b30816126d0565b9050611a9d565b5083156108f6576040517f08c379a000000000000000000000000000000000000000000000000000000000815260206004820181905260248201527f537472696e67733a20686578206c656e67746820696e73756666696369656e7460448201526064016109e1565b803573ffffffffffffffffffffffffffffffffffffffff81168114611bc457600080fd5b919050565b60008083601f840112611bdb57600080fd5b50813567ffffffffffffffff811115611bf357600080fd5b602083019150836020828501011115611c0b57600080fd5b9250929050565b600080600080600080600060c0888a031215611c2d57600080fd5b611c3688611ba0565b965060208801359550604088013567ffffffffffffffff811115611c5957600080fd5b611c658a828b01611bc9565b989b979a50986060810135976080820135975060a09091013595509350505050565b600060208284031215611c9957600080fd5b81357fffffffff00000000000000000000000000000000000000000000000000000000811681146108f657600080fd5b60008060008060008060a08789031215611ce257600080fd5b611ceb87611ba0565b955060208701359450604087013567ffffffffffffffff811115611d0e57600080fd5b611d1a89828a01611bc9565b979a9699509760608101359660809091013595509350505050565b600060208284031215611d4757600080fd5b5035919050565b7f4e487b7100000000000000000000000000000000000000000000000000000000600052604160045260246000fd5b604051601f82017fffffffffffffffffffffffffffffffffffffffffffffffffffffffffffffffe016810167ffffffffffffffff81118282101715611dc457611dc4611d4e565b604052919050565b600082601f830112611ddd57600080fd5b813567ffffffffffffffff811115611df757611df7611d4e565b611e2860207fffffffffffffffffffffffffffffffffffffffffffffffffffffffffffffffe0601f84011601611d7d565b818152846020838601011115611e3d57600080fd5b816020850160208301376000918101602001919091529392505050565b60008060008060808587031215611e7057600080fd5b611e7985611ba0565b9350611e8760208601611ba0565b925060408501359150606085013567ffffffffffffffff811115611eaa57600080fd5b611eb687828801611dcc565b91505092959194509250565b60008060408385031215611ed557600080fd5b82359150611ee560208401611ba0565b90509250929050565b60008083601f840112611f0057600080fd5b50813567ffffffffffffffff811115611f1857600080fd5b6020830191508360208260051b8501011115611c0b57600080fd5b600080600080600080600080600060c08a8c031215611f5157600080fd5b893567ffffffffffffffff80821115611f6957600080fd5b611f758d838e01611eee565b909b50995060208c0135915080821115611f8e57600080fd5b611f9a8d838e01611eee565b909950975060408c0135915080821115611fb357600080fd5b50611fc08c828d01611eee565b9a9d999c50979a969997986060880135976080810135975060a0013595509350505050565b60008060008060008060008060a0898b03121561200157600080fd5b883567ffffffffffffffff8082111561201957600080fd5b6120258c838d01611eee565b909a50985060208b013591508082111561203e57600080fd5b61204a8c838d01611eee565b909850965060408b013591508082111561206357600080fd5b506120708b828c01611eee565b999c989b509699959896976060870135966080013595509350505050565b600082601f83011261209f57600080fd5b8135602067ffffffffffffffff8211156120bb576120bb611d4e565b8160051b6120ca828201611d7d565b92835284810182019282810190878511156120e457600080fd5b83870192505b84831015612103578235825291830191908301906120ea565b979650505050505050565b600080600080600060a0868803121561212657600080fd5b61212f86611ba0565b945061213d60208701611ba0565b9350604086013567ffffffffffffffff8082111561215a57600080fd5b61216689838a0161208e565b9450606088013591508082111561217c57600080fd5b61218889838a0161208e565b9350608088013591508082111561219e57600080fd5b506121ab88828901611dcc565b9150509295509295909350565b600080600080600060a086880312156121d057600080fd5b6121d986611ba0565b94506121e760208701611ba0565b93506040860135925060608601359150608086013567ffffffffffffffff81111561221157600080fd5b6121ab88828901611dcc565b8183528181602085013750600060208284010152600060207fffffffffffffffffffffffffffffffffffffffffffffffffffffffffffffffe0601f840116840101905092915050565b73ffffffffffffffffffffffffffffffffffffffff8716815285602082015260a06040820152600061229c60a08301868861221d565b60608301949094525060800152949350505050565b73ffffffffffffffffffffffffffffffffffffffff851681528360208201526060604082015260006122e760608301848661221d565b9695505050505050565b7f4e487b7100000000000000000000000000000000000000000000000000000000600052603260045260246000fd5b60006020828403121561233257600080fd5b6108f682611ba0565b60008083357fffffffffffffffffffffffffffffffffffffffffffffffffffffffffffffffe184360301811261237057600080fd5b83018035915067ffffffffffffffff82111561238b57600080fd5b602001915036819003821315611c0b57600080fd5b7f4e487b7100000000000000000000000000000000000000000000000000000000600052601160045260246000fd5b60007fffffffffffffffffffffffffffffffffffffffffffffffffffffffffffffffff8203612400576124006123a0565b5060010190565b81835260006020808501808196508560051b810191508460005b878110156124aa57828403895281357fffffffffffffffffffffffffffffffffffffffffffffffffffffffffffffffe188360301811261246057600080fd5b8701858101903567ffffffffffffffff81111561247c57600080fd5b80360382131561248b57600080fd5b61249686828461221d565b9a87019a9550505090840190600101612421565b5091979650505050505050565b60a0808252810188905260008960c08301825b8b8110156125055773ffffffffffffffffffffffffffffffffffffffff6124f084611ba0565b168252602092830192909101906001016124ca565b5083810360208501528881527f07ffffffffffffffffffffffffffffffffffffffffffffffffffffffffffffff89111561253e57600080fd5b8860051b9150818a602083013701828103602090810160408501526125669082018789612407565b60608401959095525050608001529695505050505050565b60006020828403121561259057600080fd5b815180151581146108f657600080fd5b808201808211156107d9576107d96123a0565b60005b838110156125ce5781810151838201526020016125b6565b50506000910152565b7f416363657373436f6e74726f6c3a206163636f756e742000000000000000000081526000835161260f8160178501602088016125b3565b7f206973206d697373696e6720726f6c6520000000000000000000000000000000601791840191820152835161264c8160288401602088016125b3565b01602801949350505050565b60208152600082518060208401526126778160408501602087016125b3565b601f017fffffffffffffffffffffffffffffffffffffffffffffffffffffffffffffffe0169190910160400192915050565b8183823760009101908152919050565b80820281158282048414176107d9576107d96123a0565b6000816126df576126df6123a0565b507fffffffffffffffffffffffffffffffffffffffffffffffffffffffffffffffff019056fea2646970667358221220288c3dd40a2ba96edf066502722584177809ebdb47c0cf9ee8df6f07954c373064736f6c634300081100335f58e3a2316349923ce3780f8d587db2d72378aed66a8261c916544fa6846ca5b09aa5aeb3702cfd50b6b62bc4532604938f21248a27a1d5ca736082b6819cc1d8aa0f3194971a2a116679f7c2090f6939c8d4e01a2a8d7e41d55e5351469e63fd643c72710c63c0180259aba6b2d05451e3591a24e58b62239378085726f783",
  "linkReferences": {},
  "deployedLinkReferences": {}
}