{
  "_format": "hh-sol-artifact-1",
  "contractName": "PolygonZkEVMGlobalExitRoot",
  "sourceName": "contracts/PolygonZkEVMGlobalExitRoot.sol",
  "abi": [
    {
      "anonymous": false,
      "inputs": [
        {
          "indexed": false,
          "internalType": "uint8",
          "name": "version",
          "type": "uint8"
        }
      ],
      "name": "Initialized",
      "type": "event"
    },
    {
      "anonymous": false,
      "inputs": [
        {
          "indexed": true,
          "internalType": "bytes32",
          "name": "mainnetExitRoot",
          "type": "bytes32"
        },
        {
          "indexed": true,
          "internalType": "bytes32",
          "name": "rollupExitRoot",
          "type": "bytes32"
        }
      ],
      "name": "UpdateGlobalExitRoot",
      "type": "event"
    },
    {
      "inputs": [],
      "name": "bridgeAddress",
      "outputs": [
        {
          "internalType": "address",
          "name": "",
          "type": "address"
        }
      ],
      "stateMutability": "view",
      "type": "function"
    },
    {
      "inputs": [],
      "name": "getLastGlobalExitRoot",
      "outputs": [
        {
          "internalType": "bytes32",
          "name": "",
          "type": "bytes32"
        }
      ],
      "stateMutability": "view",
      "type": "function"
    },
    {
      "inputs": [
        {
          "internalType": "bytes32",
          "name": "",
          "type": "bytes32"
        }
      ],
      "name": "globalExitRootMap",
      "outputs": [
        {
          "internalType": "uint256",
          "name": "",
          "type": "uint256"
        }
      ],
      "stateMutability": "view",
      "type": "function"
    },
    {
      "inputs": [
        {
          "internalType": "address",
          "name": "_rollupAddress",
          "type": "address"
        },
        {
          "internalType": "address",
          "name": "_bridgeAddress",
          "type": "address"
        }
      ],
      "name": "initialize",
      "outputs": [],
      "stateMutability": "nonpayable",
      "type": "function"
    },
    {
      "inputs": [],
      "name": "lastMainnetExitRoot",
      "outputs": [
        {
          "internalType": "bytes32",
          "name": "",
          "type": "bytes32"
        }
      ],
      "stateMutability": "view",
      "type": "function"
    },
    {
      "inputs": [],
      "name": "lastRollupExitRoot",
      "outputs": [
        {
          "internalType": "bytes32",
          "name": "",
          "type": "bytes32"
        }
      ],
      "stateMutability": "view",
      "type": "function"
    },
    {
      "inputs": [],
      "name": "rollupAddress",
      "outputs": [
        {
          "internalType": "address",
          "name": "",
          "type": "address"
        }
      ],
      "stateMutability": "view",
      "type": "function"
    },
    {
      "inputs": [
        {
          "internalType": "bytes32",
          "name": "newRoot",
          "type": "bytes32"
        }
      ],
      "name": "updateExitRoot",
      "outputs": [],
      "stateMutability": "nonpayable",
      "type": "function"
    }
  ],
  "bytecode": "0x608060405234801561001057600080fd5b506104b1806100206000396000f3fe608060405234801561001057600080fd5b50600436106100885760003560e01c80633ed691ef1161005b5780633ed691ef146100e7578063485cc955146101205780635ec6a8df14610133578063a3c573eb1461015e57600080fd5b806301fd90441461008d578063257b3632146100a9578063319cf735146100c957806333d6247d146100d2575b600080fd5b61009660015481565b6040519081526020015b60405180910390f35b6100966100b7366004610413565b60036020526000908152604090205481565b61009660025481565b6100e56100e0366004610413565b610171565b005b61009660025460015460408051602081019390935282015260009060600160405160208183030381529060405280519060200120905090565b6100e561012e366004610448565b6102d8565b600554610146906001600160a01b031681565b6040516001600160a01b0390911681526020016100a0565b600454610146906001600160a01b031681565b6005546001600160a01b031633148061019457506004546001600160a01b031633145b6102165760405162461bcd60e51b815260206004820152604260248201527f506f6c79676f6e5a6b45564d476c6f62616c45786974526f6f743a3a7570646160448201527f746545786974526f6f743a204f4e4c595f414c4c4f5745445f434f4e54524143606482015261545360f01b608482015260a4015b60405180910390fd5b6005546001600160a01b0316330361022e5760018190555b6004546001600160a01b031633036102465760028190555b60025460015460408051602081019390935282015260009060600160405160208183030381529060405280519060200120905060036000828152602001908152602001600020546000036102d457600081815260036020526040808220429055600154600254915190927f61014378f82a0d809aefaf87a8ac9505b89c321808287a6e7810f29304c1fce391a35b5050565b600054610100900460ff16158080156102f85750600054600160ff909116105b806103125750303b158015610312575060005460ff166001145b6103755760405162461bcd60e51b815260206004820152602e60248201527f496e697469616c697a61626c653a20636f6e747261637420697320616c72656160448201526d191e481a5b9a5d1a585b1a5e995960921b606482015260840161020d565b6000805460ff191660011790558015610398576000805461ff0019166101001790555b600580546001600160a01b038086166001600160a01b0319928316179092556004805492851692909116919091179055801561040e576000805461ff0019169055604051600181527f7f26b83ff96e1f2b6a682f133852f6798a09c465da95921460cefb38474024989060200160405180910390a15b505050565b60006020828403121561042557600080fd5b5035919050565b80356001600160a01b038116811461044357600080fd5b919050565b6000806040838503121561045b57600080fd5b6104648361042c565b91506104726020840161042c565b9050925092905056fea2646970667358221220ce8b45efb7da0764427464ebd7d943575cbb66b2e7381bbc1e119d374d35c81f64736f6c634300080f0033",
  "linkReferences": {},
  "deployedLinkReferences": {}
}