{
  "_format": "hh-sol-artifact-1",
  "contractName": "PolygonZkEVMGlobalExitRootMock",
  "sourceName": "contracts/mocks/PolygonZkEVMGlobalExitRootMock.sol",
  "abi": [
    {
      "inputs": [
        {
          "internalType": "address",
          "name": "_rollupAddress",
          "type": "address"
        },
        {
          "internalType": "address",
          "name": "_bridgeAddress",
          "type": "address"
        }
      ],
      "stateMutability": "nonpayable",
      "type": "constructor"
    },
    {
      "inputs": [],
      "name": "MerkleTreeFull",
      "type": "error"
    },
    {
      "inputs": [],
      "name": "OnlyAllowedContracts",
      "type": "error"
    },
    {
      "anonymous": false,
      "inputs": [
        {
          "indexed": true,
          "internalType": "bytes32",
          "name": "mainnetExitRoot",
          "type": "bytes32"
        },
        {
          "indexed": true,
          "internalType": "bytes32",
          "name": "rollupExitRoot",
          "type": "bytes32"
        }
      ],
      "name": "UpdateGlobalExitRoot",
      "type": "event"
    },
    {
      "inputs": [],
      "name": "bridgeAddress",
      "outputs": [
        {
          "internalType": "address",
          "name": "",
          "type": "address"
        }
      ],
      "stateMutability": "view",
      "type": "function"
    },
    {
      "inputs": [],
      "name": "depositCount",
      "outputs": [
        {
          "internalType": "uint256",
          "name": "",
          "type": "uint256"
        }
      ],
      "stateMutability": "view",
      "type": "function"
    },
    {
      "inputs": [],
      "name": "getLastGlobalExitRoot",
      "outputs": [
        {
          "internalType": "bytes32",
          "name": "",
          "type": "bytes32"
        }
      ],
      "stateMutability": "view",
      "type": "function"
    },
    {
      "inputs": [],
      "name": "getRoot",
      "outputs": [
        {
          "internalType": "bytes32",
          "name": "",
          "type": "bytes32"
        }
      ],
      "stateMutability": "view",
      "type": "function"
    },
    {
      "inputs": [
        {
          "internalType": "bytes32",
          "name": "",
          "type": "bytes32"
        }
      ],
      "name": "globalExitRootMap",
      "outputs": [
        {
          "internalType": "uint256",
          "name": "",
          "type": "uint256"
        }
      ],
      "stateMutability": "view",
      "type": "function"
    },
    {
      "inputs": [],
      "name": "lastMainnetExitRoot",
      "outputs": [
        {
          "internalType": "bytes32",
          "name": "",
          "type": "bytes32"
        }
      ],
      "stateMutability": "view",
      "type": "function"
    },
    {
      "inputs": [],
      "name": "lastRollupExitRoot",
      "outputs": [
        {
          "internalType": "bytes32",
          "name": "",
          "type": "bytes32"
        }
      ],
      "stateMutability": "view",
      "type": "function"
    },
    {
      "inputs": [],
      "name": "rollupAddress",
      "outputs": [
        {
          "internalType": "address",
          "name": "",
          "type": "address"
        }
      ],
      "stateMutability": "view",
      "type": "function"
    },
    {
      "inputs": [
        {
          "internalType": "bytes32",
          "name": "globalExitRoot",
          "type": "bytes32"
        },
        {
          "internalType": "uint256",
          "name": "timestamp",
          "type": "uint256"
        }
      ],
      "name": "setGlobalExitRoot",
      "outputs": [],
      "stateMutability": "nonpayable",
      "type": "function"
    },
    {
      "inputs": [
        {
          "internalType": "uint256",
          "name": "timestamp",
          "type": "uint256"
        }
      ],
      "name": "setLastGlobalExitRoot",
      "outputs": [],
      "stateMutability": "nonpayable",
      "type": "function"
    },
    {
      "inputs": [
        {
          "internalType": "bytes32",
          "name": "newRoot",
          "type": "bytes32"
        }
      ],
      "name": "updateExitRoot",
      "outputs": [],
      "stateMutability": "nonpayable",
      "type": "function"
    },
    {
      "inputs": [
        {
          "internalType": "bytes32",
          "name": "leafHash",
          "type": "bytes32"
        },
        {
          "internalType": "bytes32[32]",
          "name": "smtProof",
          "type": "bytes32[32]"
        },
        {
          "internalType": "uint32",
          "name": "index",
          "type": "uint32"
        },
        {
          "internalType": "bytes32",
          "name": "root",
          "type": "bytes32"
        }
      ],
      "name": "verifyMerkleProof",
      "outputs": [
        {
          "internalType": "bool",
          "name": "",
          "type": "bool"
        }
      ],
      "stateMutability": "pure",
      "type": "function"
    }
  ],
  "bytecode": "0x60c060405234801561001057600080fd5b50604051610a10380380610a1083398101604081905261002f91610062565b6001600160a01b0391821660a05216608052610095565b80516001600160a01b038116811461005d57600080fd5b919050565b6000806040838503121561007557600080fd5b61007e83610046565b915061008c60208401610046565b90509250929050565b60805160a0516109486100c860003960008181610184015261029c0152600081816101d0015261025301526109486000f3fe608060405234801561001057600080fd5b50600436106100d45760003560e01c80633ed691ef116100815780635ec6a8df1161005b5780635ec6a8df1461017f578063a3c573eb146101cb578063fb570834146101f257600080fd5b80633ed691ef1461014f5780635bcef673146101575780635ca1e1651461017757600080fd5b80632dfdf0b5116100b25780632dfdf0b51461012a578063319cf7351461013357806333d6247d1461013c57600080fd5b806301fd9044146100d9578063051a9e28146100f5578063257b36321461010a575b600080fd5b6100e2602b5481565b6040519081526020015b60405180910390f35b610108610103366004610675565b610215565b005b6100e2610118366004610675565b602d6020526000908152604090205481565b6100e260205481565b6100e2602c5481565b61010861014a366004610675565b610236565b6100e261036e565b61010861016536600461068e565b6000918252602d602052604090912055565b6100e2610383565b6101a67f000000000000000000000000000000000000000000000000000000000000000081565b60405173ffffffffffffffffffffffffffffffffffffffff90911681526020016100ec565b6101a67f000000000000000000000000000000000000000000000000000000000000000081565b6102056102003660046106b0565b61038d565b60405190151581526020016100ec565b80602d600061022261036e565b815260208101919091526040016000205550565b602b54602c5473ffffffffffffffffffffffffffffffffffffffff7f00000000000000000000000000000000000000000000000000000000000000001633036102855750602c82905581610301565b73ffffffffffffffffffffffffffffffffffffffff7f00000000000000000000000000000000000000000000000000000000000000001633036102cf57602b839055829150610301565b6040517fb49365dd00000000000000000000000000000000000000000000000000000000815260040160405180910390fd5b600061030d8284610466565b6000818152602d602052604081205491925003610368576000818152602d602052604080822042905551849184917f61014378f82a0d809aefaf87a8ac9505b89c321808287a6e7810f29304c1fce39190a361036881610495565b50505050565b600061037e602c54602b54610466565b905090565b600061037e610598565b600084815b602081101561045a57600163ffffffff8616821c811690036103fd578581602081106103c0576103c0610707565b6020020135826040516020016103e0929190918252602082015260400190565b604051602081830303815290604052805190602001209150610448565b8186826020811061041057610410610707565b602002013560405160200161042f929190918252602082015260400190565b6040516020818303038152906040528051906020012091505b8061045281610765565b915050610392565b50909114949350505050565b604080516020808201859052818301849052825180830384018152606090920190925280519101205b92915050565b8060016104a4602060026108bd565b6104ae91906108d0565b602054106104e8576040517fef5ccf6600000000000000000000000000000000000000000000000000000000815260040160405180910390fd5b60006020600081546104f990610765565b9182905550905060005b602081101561058a578082901c60011660010361053657826000826020811061052e5761052e610707565b015550505050565b6000816020811061054957610549610707565b01546040805160208101929092528101849052606001604051602081830303815290604052805190602001209250808061058290610765565b915050610503565b506105936108e3565b505050565b602054600090819081805b602081101561066c578083901c60011660010361060057600081602081106105cd576105cd610707565b0154604080516020810192909252810185905260600160405160208183030381529060405280519060200120935061062d565b60408051602081018690529081018390526060016040516020818303038152906040528051906020012093505b6040805160208101849052908101839052606001604051602081830303815290604052805190602001209150808061066490610765565b9150506105a3565b50919392505050565b60006020828403121561068757600080fd5b5035919050565b600080604083850312156106a157600080fd5b50508035926020909101359150565b60008060008061046085870312156106c757600080fd5b843593506104208501868111156106dd57600080fd5b6020860193503563ffffffff811681146106f657600080fd5b939692955092936104400135925050565b7f4e487b7100000000000000000000000000000000000000000000000000000000600052603260045260246000fd5b7f4e487b7100000000000000000000000000000000000000000000000000000000600052601160045260246000fd5b60007fffffffffffffffffffffffffffffffffffffffffffffffffffffffffffffffff820361079657610796610736565b5060010190565b600181815b808511156107f657817fffffffffffffffffffffffffffffffffffffffffffffffffffffffffffffffff048211156107dc576107dc610736565b808516156107e957918102915b93841c93908002906107a2565b509250929050565b60008261080d5750600161048f565b8161081a5750600061048f565b8160018114610830576002811461083a57610856565b600191505061048f565b60ff84111561084b5761084b610736565b50506001821b61048f565b5060208310610133831016604e8410600b8410161715610879575081810a61048f565b610883838361079d565b807fffffffffffffffffffffffffffffffffffffffffffffffffffffffffffffffff048211156108b5576108b5610736565b029392505050565b60006108c983836107fe565b9392505050565b8181038181111561048f5761048f610736565b7f4e487b7100000000000000000000000000000000000000000000000000000000600052600160045260246000fdfea2646970667358221220dcdf34bfa85487a0e11dd9097598103e986242f64a70fc39b8d78446326bb10f64736f6c63430008110033",
  "linkReferences": {},
  "deployedLinkReferences": {}
}