{
  "_format": "hh-sol-artifact-1",
  "contractName": "PolygonZkEVMBridgeMock",
  "sourceName": "contracts/mocks/PolygonZkEVMBridgeMock.sol",
  "abi": [
    {
      "anonymous": false,
      "inputs": [
        {
          "indexed": false,
          "internalType": "uint8",
          "name": "leafType",
          "type": "uint8"
        },
        {
          "indexed": false,
          "internalType": "uint32",
          "name": "originNetwork",
          "type": "uint32"
        },
        {
          "indexed": false,
          "internalType": "address",
          "name": "originAddress",
          "type": "address"
        },
        {
          "indexed": false,
          "internalType": "uint32",
          "name": "destinationNetwork",
          "type": "uint32"
        },
        {
          "indexed": false,
          "internalType": "address",
          "name": "destinationAddress",
          "type": "address"
        },
        {
          "indexed": false,
          "internalType": "uint256",
          "name": "amount",
          "type": "uint256"
        },
        {
          "indexed": false,
          "internalType": "bytes",
          "name": "metadata",
          "type": "bytes"
        },
        {
          "indexed": false,
          "internalType": "uint32",
          "name": "depositCount",
          "type": "uint32"
        }
      ],
      "name": "BridgeEvent",
      "type": "event"
    },
    {
      "anonymous": false,
      "inputs": [
        {
          "indexed": false,
          "internalType": "uint32",
          "name": "index",
          "type": "uint32"
        },
        {
          "indexed": false,
          "internalType": "uint32",
          "name": "originNetwork",
          "type": "uint32"
        },
        {
          "indexed": false,
          "internalType": "address",
          "name": "originAddress",
          "type": "address"
        },
        {
          "indexed": false,
          "internalType": "address",
          "name": "destinationAddress",
          "type": "address"
        },
        {
          "indexed": false,
          "internalType": "uint256",
          "name": "amount",
          "type": "uint256"
        }
      ],
      "name": "ClaimEvent",
      "type": "event"
    },
    {
      "anonymous": false,
      "inputs": [],
      "name": "EmergencyStateActivated",
      "type": "event"
    },
    {
      "anonymous": false,
      "inputs": [],
      "name": "EmergencyStateDeactivated",
      "type": "event"
    },
    {
      "anonymous": false,
      "inputs": [
        {
          "indexed": false,
          "internalType": "uint8",
          "name": "version",
          "type": "uint8"
        }
      ],
      "name": "Initialized",
      "type": "event"
    },
    {
      "anonymous": false,
      "inputs": [
        {
          "indexed": false,
          "internalType": "uint32",
          "name": "originNetwork",
          "type": "uint32"
        },
        {
          "indexed": false,
          "internalType": "address",
          "name": "originTokenAddress",
          "type": "address"
        },
        {
          "indexed": false,
          "internalType": "address",
          "name": "wrappedTokenAddress",
          "type": "address"
        }
      ],
      "name": "NewWrappedToken",
      "type": "event"
    },
    {
      "anonymous": false,
      "inputs": [
        {
          "indexed": true,
          "internalType": "address",
          "name": "previousOwner",
          "type": "address"
        },
        {
          "indexed": true,
          "internalType": "address",
          "name": "newOwner",
          "type": "address"
        }
      ],
      "name": "OwnershipTransferred",
      "type": "event"
    },
    {
      "inputs": [],
      "name": "LEAF_TYPE_ASSET",
      "outputs": [
        {
          "internalType": "uint8",
          "name": "",
          "type": "uint8"
        }
      ],
      "stateMutability": "view",
      "type": "function"
    },
    {
      "inputs": [],
      "name": "LEAF_TYPE_MESSAGE",
      "outputs": [
        {
          "internalType": "uint8",
          "name": "",
          "type": "uint8"
        }
      ],
      "stateMutability": "view",
      "type": "function"
    },
    {
      "inputs": [],
      "name": "MAINNET_NETWORK_ID",
      "outputs": [
        {
          "internalType": "uint32",
          "name": "",
          "type": "uint32"
        }
      ],
      "stateMutability": "view",
      "type": "function"
    },
    {
      "inputs": [],
      "name": "activateEmergencyState",
      "outputs": [],
      "stateMutability": "nonpayable",
      "type": "function"
    },
    {
      "inputs": [
        {
          "internalType": "address",
          "name": "token",
          "type": "address"
        },
        {
          "internalType": "uint32",
          "name": "destinationNetwork",
          "type": "uint32"
        },
        {
          "internalType": "address",
          "name": "destinationAddress",
          "type": "address"
        },
        {
          "internalType": "uint256",
          "name": "amount",
          "type": "uint256"
        },
        {
          "internalType": "bytes",
          "name": "permitData",
          "type": "bytes"
        }
      ],
      "name": "bridgeAsset",
      "outputs": [],
      "stateMutability": "payable",
      "type": "function"
    },
    {
      "inputs": [
        {
          "internalType": "uint32",
          "name": "destinationNetwork",
          "type": "uint32"
        },
        {
          "internalType": "address",
          "name": "destinationAddress",
          "type": "address"
        },
        {
          "internalType": "bytes",
          "name": "metadata",
          "type": "bytes"
        }
      ],
      "name": "bridgeMessage",
      "outputs": [],
      "stateMutability": "payable",
      "type": "function"
    },
    {
      "inputs": [
        {
          "internalType": "bytes32[]",
          "name": "smtProof",
          "type": "bytes32[]"
        },
        {
          "internalType": "uint32",
          "name": "index",
          "type": "uint32"
        },
        {
          "internalType": "bytes32",
          "name": "mainnetExitRoot",
          "type": "bytes32"
        },
        {
          "internalType": "bytes32",
          "name": "rollupExitRoot",
          "type": "bytes32"
        },
        {
          "internalType": "uint32",
          "name": "originNetwork",
          "type": "uint32"
        },
        {
          "internalType": "address",
          "name": "originTokenAddress",
          "type": "address"
        },
        {
          "internalType": "uint32",
          "name": "destinationNetwork",
          "type": "uint32"
        },
        {
          "internalType": "address",
          "name": "destinationAddress",
          "type": "address"
        },
        {
          "internalType": "uint256",
          "name": "amount",
          "type": "uint256"
        },
        {
          "internalType": "bytes",
          "name": "metadata",
          "type": "bytes"
        }
      ],
      "name": "claimAsset",
      "outputs": [],
      "stateMutability": "nonpayable",
      "type": "function"
    },
    {
      "inputs": [
        {
          "internalType": "bytes32[]",
          "name": "smtProof",
          "type": "bytes32[]"
        },
        {
          "internalType": "uint32",
          "name": "index",
          "type": "uint32"
        },
        {
          "internalType": "bytes32",
          "name": "mainnetExitRoot",
          "type": "bytes32"
        },
        {
          "internalType": "bytes32",
          "name": "rollupExitRoot",
          "type": "bytes32"
        },
        {
          "internalType": "uint32",
          "name": "originNetwork",
          "type": "uint32"
        },
        {
          "internalType": "address",
          "name": "originAddress",
          "type": "address"
        },
        {
          "internalType": "uint32",
          "name": "destinationNetwork",
          "type": "uint32"
        },
        {
          "internalType": "address",
          "name": "destinationAddress",
          "type": "address"
        },
        {
          "internalType": "uint256",
          "name": "amount",
          "type": "uint256"
        },
        {
          "internalType": "bytes",
          "name": "metadata",
          "type": "bytes"
        }
      ],
      "name": "claimMessage",
      "outputs": [],
      "stateMutability": "nonpayable",
      "type": "function"
    },
    {
      "inputs": [
        {
          "internalType": "uint256",
          "name": "",
          "type": "uint256"
        }
      ],
      "name": "claimedBitMap",
      "outputs": [
        {
          "internalType": "uint256",
          "name": "",
          "type": "uint256"
        }
      ],
      "stateMutability": "view",
      "type": "function"
    },
    {
      "inputs": [],
      "name": "deactivateEmergencyState",
      "outputs": [],
      "stateMutability": "nonpayable",
      "type": "function"
    },
    {
      "inputs": [],
      "name": "depositCount",
      "outputs": [
        {
          "internalType": "uint256",
          "name": "",
          "type": "uint256"
        }
      ],
      "stateMutability": "view",
      "type": "function"
    },
    {
      "inputs": [],
      "name": "getDepositRoot",
      "outputs": [
        {
          "internalType": "bytes32",
          "name": "",
          "type": "bytes32"
        }
      ],
      "stateMutability": "view",
      "type": "function"
    },
    {
      "inputs": [
        {
          "internalType": "uint8",
          "name": "leafType",
          "type": "uint8"
        },
        {
          "internalType": "uint32",
          "name": "originNetwork",
          "type": "uint32"
        },
        {
          "internalType": "address",
          "name": "originAddress",
          "type": "address"
        },
        {
          "internalType": "uint32",
          "name": "destinationNetwork",
          "type": "uint32"
        },
        {
          "internalType": "address",
          "name": "destinationAddress",
          "type": "address"
        },
        {
          "internalType": "uint256",
          "name": "amount",
          "type": "uint256"
        },
        {
          "internalType": "bytes32",
          "name": "metadataHash",
          "type": "bytes32"
        }
      ],
      "name": "getLeafValue",
      "outputs": [
        {
          "internalType": "bytes32",
          "name": "",
          "type": "bytes32"
        }
      ],
      "stateMutability": "pure",
      "type": "function"
    },
    {
      "inputs": [
        {
          "internalType": "uint32",
          "name": "originNetwork",
          "type": "uint32"
        },
        {
          "internalType": "address",
          "name": "originTokenAddress",
          "type": "address"
        }
      ],
      "name": "getTokenWrappedAddress",
      "outputs": [
        {
          "internalType": "address",
          "name": "",
          "type": "address"
        }
      ],
      "stateMutability": "view",
      "type": "function"
    },
    {
      "inputs": [],
      "name": "globalExitRootManager",
      "outputs": [
        {
          "internalType": "contract IPolygonZkEVMGlobalExitRoot",
          "name": "",
          "type": "address"
        }
      ],
      "stateMutability": "view",
      "type": "function"
    },
    {
      "inputs": [
        {
          "internalType": "uint32",
          "name": "_networkID",
          "type": "uint32"
        },
        {
          "internalType": "contract IPolygonZkEVMGlobalExitRoot",
          "name": "_globalExitRootManager",
          "type": "address"
        },
        {
          "internalType": "address",
          "name": "_poeAddress",
          "type": "address"
        }
      ],
      "name": "initialize",
      "outputs": [],
      "stateMutability": "nonpayable",
      "type": "function"
    },
    {
      "inputs": [
        {
          "internalType": "uint256",
          "name": "index",
          "type": "uint256"
        }
      ],
      "name": "isClaimed",
      "outputs": [
        {
          "internalType": "bool",
          "name": "",
          "type": "bool"
        }
      ],
      "stateMutability": "view",
      "type": "function"
    },
    {
      "inputs": [],
      "name": "isEmergencyState",
      "outputs": [
        {
          "internalType": "bool",
          "name": "",
          "type": "bool"
        }
      ],
      "stateMutability": "view",
      "type": "function"
    },
    {
      "inputs": [],
      "name": "maxEtherBridge",
      "outputs": [
        {
          "internalType": "uint256",
          "name": "",
          "type": "uint256"
        }
      ],
      "stateMutability": "view",
      "type": "function"
    },
    {
      "inputs": [],
      "name": "networkID",
      "outputs": [
        {
          "internalType": "uint32",
          "name": "",
          "type": "uint32"
        }
      ],
      "stateMutability": "view",
      "type": "function"
    },
    {
      "inputs": [],
      "name": "owner",
      "outputs": [
        {
          "internalType": "address",
          "name": "",
          "type": "address"
        }
      ],
      "stateMutability": "view",
      "type": "function"
    },
    {
      "inputs": [],
      "name": "poeAddress",
      "outputs": [
        {
          "internalType": "address",
          "name": "",
          "type": "address"
        }
      ],
      "stateMutability": "view",
      "type": "function"
    },
    {
      "inputs": [
        {
          "internalType": "uint32",
          "name": "originNetwork",
          "type": "uint32"
        },
        {
          "internalType": "address",
          "name": "originTokenAddress",
          "type": "address"
        },
        {
          "internalType": "string",
          "name": "name",
          "type": "string"
        },
        {
          "internalType": "string",
          "name": "symbol",
          "type": "string"
        },
        {
          "internalType": "uint8",
          "name": "decimals",
          "type": "uint8"
        }
      ],
      "name": "precalculatedWrapperAddress",
      "outputs": [
        {
          "internalType": "address",
          "name": "",
          "type": "address"
        }
      ],
      "stateMutability": "view",
      "type": "function"
    },
    {
      "inputs": [],
      "name": "renounceOwnership",
      "outputs": [],
      "stateMutability": "nonpayable",
      "type": "function"
    },
    {
      "inputs": [
        {
          "internalType": "uint256",
          "name": "_maxEtherBridge",
          "type": "uint256"
        }
      ],
      "name": "setMaxEtherBridge",
      "outputs": [],
      "stateMutability": "nonpayable",
      "type": "function"
    },
    {
      "inputs": [
        {
          "internalType": "uint32",
          "name": "_networkID",
          "type": "uint32"
        }
      ],
      "name": "setNetworkID",
      "outputs": [],
      "stateMutability": "nonpayable",
      "type": "function"
    },
    {
      "inputs": [
        {
          "internalType": "bytes32",
          "name": "",
          "type": "bytes32"
        }
      ],
      "name": "tokenInfoToWrappedToken",
      "outputs": [
        {
          "internalType": "address",
          "name": "",
          "type": "address"
        }
      ],
      "stateMutability": "view",
      "type": "function"
    },
    {
      "inputs": [
        {
          "internalType": "address",
          "name": "newOwner",
          "type": "address"
        }
      ],
      "name": "transferOwnership",
      "outputs": [],
      "stateMutability": "nonpayable",
      "type": "function"
    },
    {
      "inputs": [
        {
          "internalType": "bytes32",
          "name": "leafHash",
          "type": "bytes32"
        },
        {
          "internalType": "bytes32[]",
          "name": "smtProof",
          "type": "bytes32[]"
        },
        {
          "internalType": "uint64",
          "name": "index",
          "type": "uint64"
        },
        {
          "internalType": "bytes32",
          "name": "root",
          "type": "bytes32"
        }
      ],
      "name": "verifyMerkleProof",
      "outputs": [
        {
          "internalType": "bool",
          "name": "",
          "type": "bool"
        }
      ],
      "stateMutability": "pure",
      "type": "function"
    },
    {
      "inputs": [
        {
          "internalType": "address",
          "name": "",
          "type": "address"
        }
      ],
      "name": "wrappedTokenToTokenInfo",
      "outputs": [
        {
          "internalType": "uint32",
          "name": "originNetwork",
          "type": "uint32"
        },
        {
          "internalType": "address",
          "name": "originTokenAddress",
          "type": "address"
        }
      ],
      "stateMutability": "view",
      "type": "function"
    }
  ],
  "bytecode": "0x608060405234801561001057600080fd5b50614c1a806100206000396000f3fe608060405260043610620001f35760003560e01c806381b1c174116200010b578063bab161bf11620000a1578063ed6be5c9116200006c578063ed6be5c914620005f4578063ee25560b146200060b578063f2fde38b146200063c578063ff634ed7146200066157600080fd5b8063bab161bf1462000569578063d02103ca14620005a3578063d96a15f714620005c5578063dbc1697614620005dc57600080fd5b806391e57e2d11620000e257806391e57e2d14620004dd5780639e34070f14620004f5578063a08e8a08146200051a578063aaa13cc2146200054457600080fd5b806381b1c17414620004615780638da5cb5b146200049b5780638f61151914620004bb57600080fd5b8063318aee3d116200018d5780634638554911620001585780634638554914620003da578063647c576c14620003ff578063715018a614620004245780637b6323c1146200043c57600080fd5b8063318aee3d14620003095780633ae0504714620003785780633da8168214620003905780633e19704314620003b557600080fd5b806322e95f2c11620001ce57806322e95f2c146200025a5780632b5e42e714620002985780632c3f58cd14620002bd5780632dfdf0b514620002e257600080fd5b80630871e97114620001f857806315064c9614620002115780632072f6c51462000242575b600080fd5b6200020f620002093660046200285c565b62000678565b005b3480156200021e57600080fd5b506022546200022d9060ff1681565b60405190151581526020015b60405180910390f35b3480156200024f57600080fd5b506200020f6200071e565b3480156200026757600080fd5b506200027f62000279366004620028e9565b62000757565b6040516001600160a01b03909116815260200162000239565b348015620002a557600080fd5b506200020f620002b736600462002925565b620007aa565b348015620002ca57600080fd5b506200020f620002dc3660046200293f565b620007b9565b348015620002ef57600080fd5b50620002fa60215481565b60405190815260200162000239565b3480156200031657600080fd5b50620003536200032836600462002964565b60256020526000908152604090205463ffffffff81169064010000000090046001600160a01b031682565b6040805163ffffffff90931683526001600160a01b0390911660208301520162000239565b3480156200038557600080fd5b50620002fa620007e5565b3480156200039d57600080fd5b506200022d620003af36600462002a4c565b620008d8565b348015620003c257600080fd5b50620002fa620003d436600462002aca565b620009da565b348015620003e757600080fd5b506200020f620003f936600462002bdb565b62000a67565b3480156200040c57600080fd5b506200020f6200041e36600462002cc2565b62000c0d565b3480156200043157600080fd5b506200020f62000d82565b3480156200044957600080fd5b506200020f6200045b36600462002bdb565b62000d98565b3480156200046e57600080fd5b506200027f6200048036600462002925565b6024602052600090815260409020546001600160a01b031681565b348015620004a857600080fd5b50605a546001600160a01b03166200027f565b348015620004c857600080fd5b506027546200027f906001600160a01b031681565b348015620004ea57600080fd5b50620002fa608c5481565b3480156200050257600080fd5b506200022d6200051436600462002925565b62001245565b3480156200052757600080fd5b5062000531600081565b60405160ff909116815260200162000239565b3480156200055157600080fd5b506200027f6200056336600462002d12565b6200128a565b3480156200057657600080fd5b506022546200058d90610100900463ffffffff1681565b60405163ffffffff909116815260200162000239565b348015620005b057600080fd5b506026546200027f906001600160a01b031681565b6200020f620005d636600462002dc6565b620013a1565b348015620005e957600080fd5b506200020f62001553565b3480156200060157600080fd5b506200058d600081565b3480156200061857600080fd5b50620002fa6200062a36600462002925565b60236020526000908152604090205481565b3480156200064957600080fd5b506200020f6200065b36600462002964565b6200158a565b3480156200066e57600080fd5b5062000531600181565b608c54341115620007065760405162461bcd60e51b815260206004820152604760248201527f506f6c79676f6e5a6b45564d4272696467653a3a62726964676541737365743a60448201527f2043616e6e6f7420627269646765206d6f7265207468616e206d6178457468656064820152667242726964676560c81b608482015260a4015b60405180910390fd5b6200071686868686868662001609565b505050505050565b6027546001600160a01b031633146200074b5760405162461bcd60e51b8152600401620006fd9062002e2e565b6200075562001a9f565b565b60006024600084846040516020016200077292919062002e8b565b60408051601f19818403018152918152815160209283012083529082019290925201600020546001600160a01b031690505b92915050565b620007b462001afd565b608c55565b620007c362001afd565b6022805463ffffffff9092166101000264ffffffff0019909216919091179055565b602154600090819081805b6020811015620008cf57826001166001036200085057600181602081106200081c576200081c62002eb5565b015460408051602081019290925281018590526060016040516020818303038152906040528051906020012093506200087d565b60408051602081018690529081018390526060016040516020818303038152906040528051906020012093505b6200088a60028462002ef7565b60408051602081018590529081018490529093506060016040516020818303038152906040528051906020012091508080620008c69062002f0e565b915050620007f0565b50919392505050565b60008467ffffffffffffffff8416825b6020811015620009cb5781600116600103620009555786818151811062000913576200091362002eb5565b60200260200101518360405160200162000937929190918252602082015260400190565b604051602081830303815290604052805190602001209250620009a7565b828782815181106200096b576200096b62002eb5565b60200260200101516040516020016200098e929190918252602082015260400190565b6040516020818303038152906040528051906020012092505b620009b460028362002ef7565b915080620009c28162002f0e565b915050620008e8565b5050821490505b949350505050565b6040516001600160f81b031960f889901b1660208201526001600160e01b031960e088811b821660218401526001600160601b0319606089811b821660258601529188901b909216603984015285901b16603d8201526051810183905260718101829052600090609101604051602081830303815290604052805190602001209050979650505050505050565b60225460ff161562000a8d5760405162461bcd60e51b8152600401620006fd9062002f2a565b62000aa38a8a8a8a8a8a8a8a8a8a600162001b59565b62000ab48963ffffffff1662001de4565b6000836001600160a01b03168387898560405160240162000ad89392919062002fef565b60408051601f198184030181529181526020820180516001600160e01b0316630c035af960e11b1790525162000b0f91906200302a565b60006040518083038185875af1925050503d806000811462000b4e576040519150601f19603f3d011682016040523d82523d6000602084013e62000b53565b606091505b505090508062000bbf5760405162461bcd60e51b815260206004820152603060248201527f506f6c79676f6e5a6b45564d4272696467653a3a636c61696d4d65737361676560448201526f0e88135154d4d051d157d1905253115160821b6064820152608401620006fd565b7f25308c93ceeed162da955b3f7ce3e3f93606579e40fb92029faa9efe275459838a8888878760405162000bf895949392919062003048565b60405180910390a15050505050505050505050565b600054610100900460ff161580801562000c2e5750600054600160ff909116105b8062000c4a5750303b15801562000c4a575060005460ff166001145b62000caf5760405162461bcd60e51b815260206004820152602e60248201527f496e697469616c697a61626c653a20636f6e747261637420697320616c72656160448201526d191e481a5b9a5d1a585b1a5e995960921b6064820152608401620006fd565b6000805460ff19166001179055801562000cd3576000805461ff0019166101001790555b6022805463ffffffff86166101000264ffffffff0019909116179055602680546001600160a01b038086166001600160a01b03199283161790925560278054928516929091169190911790556703782dace9d90000608c5562000d3562001e26565b801562000d7c576000805461ff0019169055604051600181527f7f26b83ff96e1f2b6a682f133852f6798a09c465da95921460cefb38474024989060200160405180910390a15b50505050565b62000d8c62001afd565b62000755600062001e99565b60225460ff161562000dbe5760405162461bcd60e51b8152600401620006fd9062002f2a565b62000dd48a8a8a8a8a8a8a8a8a8a600062001b59565b62000de58963ffffffff1662001de4565b6001600160a01b03851662000eda57604080516000808252602082019092526001600160a01b03851690849060405162000e2091906200302a565b60006040518083038185875af1925050503d806000811462000e5f576040519150601f19603f3d011682016040523d82523d6000602084013e62000e64565b606091505b505090508062000ed35760405162461bcd60e51b815260206004820152603360248201527f506f6c79676f6e5a6b45564d4272696467653a3a636c61696d41737365743a2060448201527211551217d514905394d1915497d19052531151606a1b6064820152608401620006fd565b50620011f8565b60225463ffffffff61010090910481169087160362000f0f5762000f096001600160a01b038616848462001eeb565b620011f8565b6000868660405160200162000f2692919062002e8b565b60408051601f198184030181529181528151602092830120600081815260249093529120549091506001600160a01b0316806200117d5760008060008580602001905181019062000f789190620030cb565b92509250925060008584848460405162000f9290620027c5565b62000fa09392919062003141565b8190604051809103906000f590508015801562000fc1573d6000803e3d6000fd5b506040516340c10f1960e01b81526001600160a01b038b81166004830152602482018b9052919250908216906340c10f19906044016020604051808303816000875af115801562001016573d6000803e3d6000fd5b505050506040513d601f19601f820116820180604052508101906200103c91906200318d565b50806024600088815260200190815260200160002060006101000a8154816001600160a01b0302191690836001600160a01b0316021790555060405180604001604052808d63ffffffff1681526020018c6001600160a01b031681525060256000836001600160a01b03166001600160a01b0316815260200190815260200160002060008201518160000160006101000a81548163ffffffff021916908363ffffffff16021790555060208201518160000160046101000a8154816001600160a01b0302191690836001600160a01b031602179055509050507fccd7715648d1f2bb13e158f96b5b6c3aeda555d4cb87112e274a6f28bc571d598c8c836040516200116b9392919063ffffffff9390931683526001600160a01b03918216602084015216604082015260600190565b60405180910390a150505050620011f5565b6040516340c10f1960e01b81526001600160a01b038681166004830152602482018690528216906340c10f19906044016020604051808303816000875af1158015620011cd573d6000803e3d6000fd5b505050506040513d601f19601f82011682018060405250810190620011f391906200318d565b505b50505b7f25308c93ceeed162da955b3f7ce3e3f93606579e40fb92029faa9efe2754598389878786866040516200123195949392919062003048565b60405180910390a150505050505050505050565b600080620012566101008462002ef7565b905060006200126861010085620031ad565b60009283526023602052604090922054600190921b9182169091149392505050565b6000808888604051602001620012a292919062002e8b565b604051602081830303815290604052805190602001209050600060ff60f81b308360405180602001620012d590620027c5565b601f1982820381018352601f90910116604081905262001302908d908d908d908d908d90602001620031ed565b60408051601f19818403018152908290526200132292916020016200322e565b604051602081830303815290604052805190602001206040516020016200137b94939291906001600160f81b031994909416845260609290921b6001600160601b03191660018401526015830152603582015260550190565b60408051808303601f1901815291905280516020909101209a9950505050505050505050565b60225460ff1615620013c75760405162461bcd60e51b8152600401620006fd9062002f2a565b60225463ffffffff6101009091048116908416036200144f5760405162461bcd60e51b815260206004820152603d60248201527f506f6c79676f6e5a6b45564d4272696467653a3a6272696467654d657373616760448201527f653a2044455354494e4154494f4e5f43414e545f42455f495453454c460000006064820152608401620006fd565b7f501781209a1f8899323b96b4ef08b168df93e0a90c673d1e4cce39366cb62f9b6001602260019054906101000a900463ffffffff163386863487602154604051620014a398979695949392919062003261565b60405180910390a1620014e0620014da6001602260019054906101000a900463ffffffff16338787348880519060200120620009da565b62001f55565b6026546001600160a01b03166333d6247d620014fb620007e5565b6040518263ffffffff1660e01b81526004016200151a91815260200190565b600060405180830381600087803b1580156200153557600080fd5b505af11580156200154a573d6000803e3d6000fd5b50505050505050565b6027546001600160a01b03163314620015805760405162461bcd60e51b8152600401620006fd9062002e2e565b62000755620020a1565b6200159462001afd565b6001600160a01b038116620015fb5760405162461bcd60e51b815260206004820152602660248201527f4f776e61626c653a206e6577206f776e657220697320746865207a65726f206160448201526564647265737360d01b6064820152608401620006fd565b620016068162001e99565b50565b60225460ff16156200162f5760405162461bcd60e51b8152600401620006fd9062002f2a565b60225463ffffffff610100909104811690861603620016b75760405162461bcd60e51b815260206004820152603b60248201527f506f6c79676f6e5a6b45564d4272696467653a3a62726964676541737365743a60448201527f2044455354494e4154494f4e5f43414e545f42455f495453454c4600000000006064820152608401620006fd565b60008060606001600160a01b0389166200174e5785341462001744576040805162461bcd60e51b81526020600482015260248101919091527f506f6c79676f6e5a6b45564d4272696467653a3a62726964676541737365743a60448201527f20414d4f554e545f444f45535f4e4f545f4d415443485f4d53475f56414c55456064820152608401620006fd565b60009150620019bf565b6001600160a01b03808a1660009081526025602090815260409182902082518084019093525463ffffffff81168352640100000000900490921691810182905290156200181c57604051632770a7eb60e21b8152336004820152602481018890526001600160a01b038b1690639dc29fac906044016020604051808303816000875af1158015620017e3573d6000803e3d6000fd5b505050506040513d601f19601f820116820180604052508101906200180991906200318d565b50602081015181519094509250620019bd565b84156200183157620018318a88888862002150565b620018486001600160a01b038b1633308a62002578565b899350602260019054906101000a900463ffffffff169250896001600160a01b03166306fdde036040518163ffffffff1660e01b8152600401600060405180830381865afa1580156200189f573d6000803e3d6000fd5b505050506040513d6000823e601f3d908101601f19168201604052620018c99190810190620032ce565b8a6001600160a01b03166395d89b416040518163ffffffff1660e01b8152600401600060405180830381865afa15801562001908573d6000803e3d6000fd5b505050506040513d6000823e601f3d908101601f19168201604052620019329190810190620032ce565b8b6001600160a01b031663313ce5676040518163ffffffff1660e01b8152600401602060405180830381865afa15801562001971573d6000803e3d6000fd5b505050506040513d601f19601f8201168201806040525081019062001997919062003307565b604051602001620019ab9392919062003141565b60405160208183030381529060405291505b505b7f501781209a1f8899323b96b4ef08b168df93e0a90c673d1e4cce39366cb62f9b600083858b8b8b8760215460405162001a0198979695949392919062003261565b60405180910390a162001a26620014da600084868c8c8c8880519060200120620009da565b6026546001600160a01b03166333d6247d62001a41620007e5565b6040518263ffffffff1660e01b815260040162001a6091815260200190565b600060405180830381600087803b15801562001a7b57600080fd5b505af115801562001a90573d6000803e3d6000fd5b50505050505050505050505050565b60225460ff161562001ac55760405162461bcd60e51b8152600401620006fd9062002f2a565b6022805460ff191660011790556040517f2261efe5aef6fedc1fd1550b25facc9181745623049c7901287030b9ad1a549790600090a1565b605a546001600160a01b03163314620007555760405162461bcd60e51b815260206004820181905260248201527f4f776e61626c653a2063616c6c6572206973206e6f7420746865206f776e65726044820152606401620006fd565b62001b6a8a63ffffffff1662001245565b1562001bc15760405162461bcd60e51b8152602060048201526030602482015260008051602062004bc583398151915260448201526f081053149150511657d0d3105253515160821b6064820152608401620006fd565b6026546040805160208082018d90528183018c9052825180830384018152606083019384905280519101206312bd9b1960e11b90925260648101919091526000916001600160a01b03169063257b3632906084016020604051808303816000875af115801562001c35573d6000803e3d6000fd5b505050506040513d601f19601f8201168201806040525081019062001c5b919062003327565b90508060000362001cc45760405162461bcd60e51b8152602060048201526039602482015260008051602062004bc583398151915260448201527f20474c4f42414c5f455849545f524f4f545f494e56414c4944000000000000006064820152608401620006fd565b60225463ffffffff878116610100909204161462001d465760405162461bcd60e51b8152602060048201526043602482015260008051602062004bc583398151915260448201527f2044455354494e4154494f4e5f4e4554574f524b5f444f45535f4e4f545f4d416064820152620a886960eb1b608482015260a401620006fd565b602254600090610100900463ffffffff1662001d6457508862001d67565b50895b62001d9262001d83848b8b8b8b8b8b80519060200120620009da565b8e8e63ffffffff1684620008d8565b62001a905760405162461bcd60e51b815260206004820152602c602482015260008051602062004bc583398151915260448201526b0814d35517d253959053125160a21b6064820152608401620006fd565b600062001df46101008362002ef7565b9050600062001e0661010084620031ad565b6000928352602360205260409092208054600190931b9092179091555050565b600054610100900460ff1662001e935760405162461bcd60e51b815260206004820152602b60248201527f496e697469616c697a61626c653a20636f6e7472616374206973206e6f74206960448201526a6e697469616c697a696e6760a81b6064820152608401620006fd565b62000755335b605a80546001600160a01b038381166001600160a01b0319831681179093556040519116919082907f8be0079c531659141344cd1fd0a4f28419497f9722a3daafe3b4186f6b6457e090600090a35050565b6040516001600160a01b03831660248201526044810182905262001f5090849063a9059cbb60e01b906064015b60408051601f198184030181529190526020810180516001600160e01b03166001600160e01b031990931692909217909152620025b2565b505050565b80600162001f66602060026200343e565b62001f7291906200344c565b6021541062001fd75760405162461bcd60e51b815260206004820152602a60248201527f4465706f736974436f6e74726163743a5f6465706f7369743a204d45524b4c4560448201526917d514915157d195531360b21b6064820152608401620006fd565b60016021600082825462001fec919062003466565b909155505060215460005b60208110156200209657816001166001036200202c57826001826020811062002024576200202462002eb5565b015550505050565b6001816020811062002042576200204262002eb5565b015460408051602081019290925281018490526060016040516020818303038152906040528051906020012092506002826200207f919062002ef7565b9150806200208d8162002f0e565b91505062001ff7565b5062001f5062003481565b60225460ff166200211b5760405162461bcd60e51b815260206004820152603b60248201527f456d657267656e63794d616e616765723a3a6966456d657267656e637953746160448201527f74653a206f6e6c7920696620656d657267656e637920737461746500000000006064820152608401620006fd565b6022805460ff191690556040517f1e5e34eea33501aecf2ebec9fe0e884a40804275ea7fe10b2ba084c8374308b390600090a1565b60006200219383838080601f0160208091040260200160405190810160405280939291908181526020018383808284376000920191909152506200268b92505050565b9050632afa533160e01b6001600160e01b03198216016200238c576000808080808080620021c5896004818d62003497565b810190620021d49190620034c3565b9650965096509650965096509650336001600160a01b0316876001600160a01b031614620022165760405162461bcd60e51b8152600401620006fd906200351e565b6001600160a01b0386163014620022415760405162461bcd60e51b8152600401620006fd906200357b565b8a8514620022b85760405162461bcd60e51b815260206004820152603960248201527f506f6c79676f6e5a6b45564d4272696467653a3a5f7065726d69743a2050455260448201527f4d49545f414d4f554e545f444f45535f4e4f545f4d41544348000000000000006064820152608401620006fd565b604080516001600160a01b0389811660248301528881166044830152606482018890526084820187905260ff861660a483015260c4820185905260e48083018590528351808403909101815261010490920183526020820180516001600160e01b031663d505accf60e01b1790529151918e16916200233891906200302a565b6000604051808303816000865af19150503d806000811462002377576040519150601f19603f3d011682016040523d82523d6000602084013e6200237c565b606091505b5050505050505050505062002571565b6001600160e01b031981166323f2ebc360e21b14620024025760405162461bcd60e51b815260206004820152602b60248201527f506f6c79676f6e5a6b45564d4272696467653a3a5f7065726d69743a204e4f5460448201526a17d59053125117d0d0531360aa1b6064820152608401620006fd565b6000808080808080806200241a8a6004818e62003497565b810190620024299190620035cc565b97509750975097509750975097509750336001600160a01b0316886001600160a01b0316146200246d5760405162461bcd60e51b8152600401620006fd906200351e565b6001600160a01b0387163014620024985760405162461bcd60e51b8152600401620006fd906200357b565b604080516001600160a01b038a811660248301528981166044830152606482018990526084820188905286151560a483015260ff861660c483015260e482018590526101048083018590528351808403909101815261012490920183526020820180516001600160e01b03166323f2ebc360e21b1790529151918f16916200252191906200302a565b6000604051808303816000865af19150503d806000811462002560576040519150601f19603f3d011682016040523d82523d6000602084013e62002565565b606091505b50505050505050505050505b5050505050565b6040516001600160a01b038085166024830152831660448201526064810182905262000d7c9085906323b872dd60e01b9060840162001f18565b600062002609826040518060400160405280602081526020017f5361666545524332303a206c6f772d6c6576656c2063616c6c206661696c6564815250856001600160a01b0316620026929092919063ffffffff16565b80519091501562001f5057808060200190518101906200262a91906200318d565b62001f505760405162461bcd60e51b815260206004820152602a60248201527f5361666545524332303a204552433230206f7065726174696f6e20646964206e6044820152691bdd081cdd58d8d9595960b21b6064820152608401620006fd565b6020015190565b6060620009d2848460008585600080866001600160a01b03168587604051620026bc91906200302a565b60006040518083038185875af1925050503d8060008114620026fb576040519150601f19603f3d011682016040523d82523d6000602084013e62002700565b606091505b509150915062002713878383876200271e565b979650505050505050565b60608315620027925782516000036200278a576001600160a01b0385163b6200278a5760405162461bcd60e51b815260206004820152601d60248201527f416464726573733a2063616c6c20746f206e6f6e2d636f6e74726163740000006044820152606401620006fd565b5081620009d2565b620009d28383815115620027a95781518083602001fd5b8060405162461bcd60e51b8152600401620006fd919062003658565b611557806200366e83390190565b6001600160a01b03811681146200160657600080fd5b8035620027f681620027d3565b919050565b803563ffffffff81168114620027f657600080fd5b60008083601f8401126200282357600080fd5b50813567ffffffffffffffff8111156200283c57600080fd5b6020830191508360208285010111156200285557600080fd5b9250929050565b60008060008060008060a087890312156200287657600080fd5b86356200288381620027d3565b95506200289360208801620027fb565b94506040870135620028a581620027d3565b935060608701359250608087013567ffffffffffffffff811115620028c957600080fd5b620028d789828a0162002810565b979a9699509497509295939492505050565b60008060408385031215620028fd57600080fd5b6200290883620027fb565b915060208301356200291a81620027d3565b809150509250929050565b6000602082840312156200293857600080fd5b5035919050565b6000602082840312156200295257600080fd5b6200295d82620027fb565b9392505050565b6000602082840312156200297757600080fd5b81356200295d81620027d3565b634e487b7160e01b600052604160045260246000fd5b604051601f8201601f1916810167ffffffffffffffff81118282101715620029c657620029c662002984565b604052919050565b600082601f830112620029e057600080fd5b8135602067ffffffffffffffff821115620029ff57620029ff62002984565b8160051b62002a108282016200299a565b928352848101820192828101908785111562002a2b57600080fd5b83870192505b84831015620027135782358252918301919083019062002a31565b6000806000806080858703121562002a6357600080fd5b84359350602085013567ffffffffffffffff8082111562002a8357600080fd5b62002a9188838901620029ce565b945060408701359150808216821462002aa957600080fd5b509396929550929360600135925050565b60ff811681146200160657600080fd5b600080600080600080600060e0888a03121562002ae657600080fd5b873562002af38162002aba565b965062002b0360208901620027fb565b9550604088013562002b1581620027d3565b945062002b2560608901620027fb565b9350608088013562002b3781620027d3565b9699959850939692959460a0840135945060c09093013592915050565b600067ffffffffffffffff82111562002b715762002b7162002984565b50601f01601f191660200190565b600082601f83011262002b9157600080fd5b813562002ba862002ba28262002b54565b6200299a565b81815284602083860101111562002bbe57600080fd5b816020850160208301376000918101602001919091529392505050565b6000806000806000806000806000806101408b8d03121562002bfc57600080fd5b8a3567ffffffffffffffff8082111562002c1557600080fd5b62002c238e838f01620029ce565b9b5062002c3360208e01620027fb565b9a5060408d0135995060608d0135985062002c5160808e01620027fb565b975062002c6160a08e01620027e9565b965062002c7160c08e01620027fb565b955062002c8160e08e01620027e9565b94506101008d013593506101208d013591508082111562002ca157600080fd5b5062002cb08d828e0162002b7f565b9150509295989b9194979a5092959850565b60008060006060848603121562002cd857600080fd5b62002ce384620027fb565b9250602084013562002cf581620027d3565b9150604084013562002d0781620027d3565b809150509250925092565b600080600080600080600060a0888a03121562002d2e57600080fd5b62002d3988620027fb565b9650602088013562002d4b81620027d3565b9550604088013567ffffffffffffffff8082111562002d6957600080fd5b62002d778b838c0162002810565b909750955060608a013591508082111562002d9157600080fd5b5062002da08a828b0162002810565b909450925050608088013562002db68162002aba565b8091505092959891949750929550565b60008060006060848603121562002ddc57600080fd5b62002de784620027fb565b9250602084013562002df981620027d3565b9150604084013567ffffffffffffffff81111562002e1657600080fd5b62002e248682870162002b7f565b9150509250925092565b6020808252603d908201527f506f6c79676f6e5a6b45564d3a3a6f6e6c79506f6c79676f6e5a6b45564d3a2060408201527f6f6e6c7920506f6c79676f6e205a4b2d45564d20636f6e747261637474000000606082015260800190565b60e09290921b6001600160e01b031916825260601b6001600160601b031916600482015260180190565b634e487b7160e01b600052603260045260246000fd5b634e487b7160e01b600052601260045260246000fd5b634e487b7160e01b600052601160045260246000fd5b60008262002f095762002f0962002ecb565b500490565b60006001820162002f235762002f2362002ee1565b5060010190565b60208082526042908201527f456d657267656e63794d616e616765723a3a69664e6f74456d657267656e637960408201527f53746174653a206f6e6c79206966206e6f7420656d657267656e637920737461606082015261746560f01b608082015260a00190565b60005b8381101562002faf57818101518382015260200162002f95565b8381111562000d7c5750506000910152565b6000815180845262002fdb81602086016020860162002f92565b601f01601f19169290920160200192915050565b6001600160a01b038416815263ffffffff83166020820152606060408201819052600090620030219083018462002fc1565b95945050505050565b600082516200303e81846020870162002f92565b9190910192915050565b63ffffffff95861681529390941660208401526001600160a01b039182166040840152166060820152608081019190915260a00190565b600082601f8301126200309157600080fd5b8151620030a262002ba28262002b54565b818152846020838601011115620030b857600080fd5b620009d282602083016020870162002f92565b600080600060608486031215620030e157600080fd5b835167ffffffffffffffff80821115620030fa57600080fd5b62003108878388016200307f565b945060208601519150808211156200311f57600080fd5b506200312e868287016200307f565b925050604084015162002d078162002aba565b60608152600062003156606083018662002fc1565b82810360208401526200316a818662002fc1565b91505060ff83166040830152949350505050565b80151581146200160657600080fd5b600060208284031215620031a057600080fd5b81516200295d816200317e565b600082620031bf57620031bf62002ecb565b500690565b81835281816020850137506000828201602090810191909152601f909101601f19169091010190565b60608152600062003203606083018789620031c4565b828103602084015262003218818688620031c4565b91505060ff831660408301529695505050505050565b600083516200324281846020880162002f92565b8351908301906200325881836020880162002f92565b01949350505050565b60ff8916815263ffffffff88811660208301526001600160a01b03888116604084015287821660608401528616608083015260a0820185905261010060c08301819052600091620032b58483018762002fc1565b925080851660e085015250509998505050505050505050565b600060208284031215620032e157600080fd5b815167ffffffffffffffff811115620032f957600080fd5b620009d2848285016200307f565b6000602082840312156200331a57600080fd5b81516200295d8162002aba565b6000602082840312156200333a57600080fd5b5051919050565b600181815b808511156200338257816000190482111562003366576200336662002ee1565b808516156200337457918102915b93841c939080029062003346565b509250929050565b6000826200339b57506001620007a4565b81620033aa57506000620007a4565b8160018114620033c35760028114620033ce57620033ee565b6001915050620007a4565b60ff841115620033e257620033e262002ee1565b50506001821b620007a4565b5060208310610133831016604e8410600b841016171562003413575081810a620007a4565b6200341f838362003341565b806000190482111562003436576200343662002ee1565b029392505050565b60006200295d83836200338a565b60008282101562003461576200346162002ee1565b500390565b600082198211156200347c576200347c62002ee1565b500190565b634e487b7160e01b600052600160045260246000fd5b60008085851115620034a857600080fd5b83861115620034b657600080fd5b5050820193919092039150565b600080600080600080600060e0888a031215620034df57600080fd5b8735620034ec81620027d3565b96506020880135620034fe81620027d3565b95506040880135945060608801359350608088013562002b378162002aba565b6020808252603c908201527f506f6c79676f6e5a6b45564d4272696467653a3a5f7065726d69743a2050455260408201527f4d49545f4f574e45525f4d5553545f42455f5448455f53454e44455200000000606082015260800190565b60208082526031908201527f506f6c79676f6e5a6b45564d4272696467653a3a5f7065726d69743a205350456040820152704e4445525f4d5553545f42455f5448495360781b606082015260800190565b600080600080600080600080610100898b031215620035ea57600080fd5b8835620035f781620027d3565b975060208901356200360981620027d3565b96506040890135955060608901359450608089013562003629816200317e565b935060a08901356200363b8162002aba565b979a969950949793969295929450505060c08201359160e0013590565b6020815260006200295d602083018462002fc156fe60c06040523480156200001157600080fd5b5060405162001557380380620015578339810160408190526200003491620002ad565b82826003620000448382620003c1565b506004620000538282620003c1565b5050600580546001600160a81b0319163360ff60a01b191617600160a01b60ff851602179055504660808190526200008b9062000098565b60a052506200048d915050565b60007f8b73c3c69bb8fe3d512ecc4cf759cc79239f7b179b0ffacaa9a75d522b39400f620000c562000146565b805160209182012060408051808201825260018152603160f81b90840152805192830193909352918101919091527fc89efdaa54c0f20c7adf612882df0950f5a951637e0307cdcb4c672f298b8bc66060820152608081018390523060a082015260c001604051602081830303815290604052805190602001209050919050565b606060038054620001579062000332565b80601f0160208091040260200160405190810160405280929190818152602001828054620001859062000332565b8015620001d65780601f10620001aa57610100808354040283529160200191620001d6565b820191906000526020600020905b815481529060010190602001808311620001b857829003601f168201915b5050505050905090565b634e487b7160e01b600052604160045260246000fd5b600082601f8301126200020857600080fd5b81516001600160401b0380821115620002255762000225620001e0565b604051601f8301601f19908116603f01168101908282118183101715620002505762000250620001e0565b816040528381526020925086838588010111156200026d57600080fd5b600091505b8382101562000291578582018301518183018401529082019062000272565b83821115620002a35760008385830101525b9695505050505050565b600080600060608486031215620002c357600080fd5b83516001600160401b0380821115620002db57600080fd5b620002e987838801620001f6565b945060208601519150808211156200030057600080fd5b506200030f86828701620001f6565b925050604084015160ff811681146200032757600080fd5b809150509250925092565b600181811c908216806200034757607f821691505b6020821081036200036857634e487b7160e01b600052602260045260246000fd5b50919050565b601f821115620003bc57600081815260208120601f850160051c81016020861015620003975750805b601f850160051c820191505b81811015620003b857828155600101620003a3565b5050505b505050565b81516001600160401b03811115620003dd57620003dd620001e0565b620003f581620003ee845462000332565b846200036e565b602080601f8311600181146200042d5760008415620004145750858301515b600019600386901b1c1916600185901b178555620003b8565b600085815260208120601f198616915b828110156200045e578886015182559484019460019091019084016200043d565b50858210156200047d5787850151600019600388901b60f8161c191681555b5050505050600190811b01905550565b60805160a05161109d620004ba60003960006104690152600081816102f70152610433015261109d6000f3fe608060405234801561001057600080fd5b50600436106101375760003560e01c806370a08231116100b8578063a457c2d71161007c578063a457c2d7146102cc578063a9059cbb146102df578063cd0d0096146102f2578063d505accf14610319578063dd62ed3e1461032e578063ffa1ad741461034157600080fd5b806370a082311461023d5780637ecebe001461026657806395d89b41146102865780639dc29fac1461028e578063a3c573eb146102a157600080fd5b806330adf81f116100ff57806330adf81f146101c9578063313ce567146101f05780633644e5151461020f578063395093511461021757806340c10f191461022a57600080fd5b806306fdde031461013c578063095ea7b31461015a57806318160ddd1461017d57806320606b701461018f57806323b872dd146101b6575b600080fd5b610144610361565b6040516101519190610e03565b60405180910390f35b61016d610168366004610e74565b6103f3565b6040519015158152602001610151565b6002545b604051908152602001610151565b6101817f8b73c3c69bb8fe3d512ecc4cf759cc79239f7b179b0ffacaa9a75d522b39400f81565b61016d6101c4366004610e9e565b61040b565b6101817f6e71edae12b1b97f4d1f60370fef10105fa2faae0126114a169c64845d6126c981565b600554600160a01b900460ff1660405160ff9091168152602001610151565b61018161042f565b61016d610225366004610e74565b61048b565b61016d610238366004610e74565b6104ad565b61018161024b366004610eda565b6001600160a01b031660009081526020819052604090205490565b610181610274366004610eda565b60066020526000908152604090205481565b6101446104f6565b61016d61029c366004610e74565b610505565b6005546102b4906001600160a01b031681565b6040516001600160a01b039091168152602001610151565b61016d6102da366004610e74565b61053c565b61016d6102ed366004610e74565b6105b7565b6101817f000000000000000000000000000000000000000000000000000000000000000081565b61032c610327366004610efc565b6105c5565b005b61018161033c366004610f6f565b610800565b610144604051806040016040528060018152602001603160f81b81525081565b60606003805461037090610fa2565b80601f016020809104026020016040519081016040528092919081815260200182805461039c90610fa2565b80156103e95780601f106103be576101008083540402835291602001916103e9565b820191906000526020600020905b8154815290600101906020018083116103cc57829003601f168201915b5050505050905090565b60003361040181858561082b565b5060019392505050565b600033610419858285610950565b6104248585856109ca565b506001949350505050565b60007f000000000000000000000000000000000000000000000000000000000000000046146104665761046146610b6e565b905090565b507f000000000000000000000000000000000000000000000000000000000000000090565b60003361040181858561049e8383610800565b6104a89190610ff2565b61082b565b6005546000906001600160a01b031633146104e35760405162461bcd60e51b81526004016104da9061100a565b60405180910390fd5b6104ed8383610c1a565b50600192915050565b60606004805461037090610fa2565b6005546000906001600160a01b031633146105325760405162461bcd60e51b81526004016104da9061100a565b6104ed8383610cd9565b6000338161054a8286610800565b9050838110156105aa5760405162461bcd60e51b815260206004820152602560248201527f45524332303a2064656372656173656420616c6c6f77616e63652062656c6f77604482015264207a65726f60d81b60648201526084016104da565b610424828686840361082b565b6000336104018185856109ca565b834211156106215760405162461bcd60e51b8152602060048201526024808201527f546f6b656e577261707065643a3a7065726d69743a20457870697265642070656044820152631c9b5a5d60e21b60648201526084016104da565b6001600160a01b038716600090815260066020526040812080547f6e71edae12b1b97f4d1f60370fef10105fa2faae0126114a169c64845d6126c9918a918a918a91908661066e8361104e565b909155506040805160208101969096526001600160a01b0394851690860152929091166060840152608083015260a082015260c0810186905260e00160405160208183030381529060405280519060200120905060006106cc61042f565b60405161190160f01b602082015260228101919091526042810183905260620160408051601f198184030181528282528051602091820120600080855291840180845281905260ff89169284019290925260608301879052608083018690529092509060019060a0016020604051602081039080840390855afa158015610757573d6000803e3d6000fd5b5050604051601f1901519150506001600160a01b0381161580159061078d5750896001600160a01b0316816001600160a01b0316145b6107e95760405162461bcd60e51b815260206004820152602760248201527f546f6b656e577261707065643a3a7065726d69743a20496e76616c6964207369604482015266676e617475726560c81b60648201526084016104da565b6107f48a8a8a61082b565b50505050505050505050565b6001600160a01b03918216600090815260016020908152604080832093909416825291909152205490565b6001600160a01b03831661088d5760405162461bcd60e51b8152602060048201526024808201527f45524332303a20617070726f76652066726f6d20746865207a65726f206164646044820152637265737360e01b60648201526084016104da565b6001600160a01b0382166108ee5760405162461bcd60e51b815260206004820152602260248201527f45524332303a20617070726f766520746f20746865207a65726f206164647265604482015261737360f01b60648201526084016104da565b6001600160a01b0383811660008181526001602090815260408083209487168084529482529182902085905590518481527f8c5be1e5ebec7d5bd14f71427d1e84f3dd0314c0f7b2291e5b200ac8c7c3b92591015b60405180910390a3505050565b600061095c8484610800565b905060001981146109c457818110156109b75760405162461bcd60e51b815260206004820152601d60248201527f45524332303a20696e73756666696369656e7420616c6c6f77616e636500000060448201526064016104da565b6109c4848484840361082b565b50505050565b6001600160a01b038316610a2e5760405162461bcd60e51b815260206004820152602560248201527f45524332303a207472616e736665722066726f6d20746865207a65726f206164604482015264647265737360d81b60648201526084016104da565b6001600160a01b038216610a905760405162461bcd60e51b815260206004820152602360248201527f45524332303a207472616e7366657220746f20746865207a65726f206164647260448201526265737360e81b60648201526084016104da565b6001600160a01b03831660009081526020819052604090205481811015610b085760405162461bcd60e51b815260206004820152602660248201527f45524332303a207472616e7366657220616d6f756e7420657863656564732062604482015265616c616e636560d01b60648201526084016104da565b6001600160a01b03848116600081815260208181526040808320878703905593871680835291849020805487019055925185815290927fddf252ad1be2c89b69c2b068fc378daa952ba7f163c4a11628f55a4df523b3ef910160405180910390a36109c4565b60007f8b73c3c69bb8fe3d512ecc4cf759cc79239f7b179b0ffacaa9a75d522b39400f610b99610361565b805160209182012060408051808201825260018152603160f81b90840152805192830193909352918101919091527fc89efdaa54c0f20c7adf612882df0950f5a951637e0307cdcb4c672f298b8bc66060820152608081018390523060a082015260c001604051602081830303815290604052805190602001209050919050565b6001600160a01b038216610c705760405162461bcd60e51b815260206004820152601f60248201527f45524332303a206d696e7420746f20746865207a65726f20616464726573730060448201526064016104da565b8060026000828254610c829190610ff2565b90915550506001600160a01b038216600081815260208181526040808320805486019055518481527fddf252ad1be2c89b69c2b068fc378daa952ba7f163c4a11628f55a4df523b3ef910160405180910390a35050565b6001600160a01b038216610d395760405162461bcd60e51b815260206004820152602160248201527f45524332303a206275726e2066726f6d20746865207a65726f206164647265736044820152607360f81b60648201526084016104da565b6001600160a01b03821660009081526020819052604090205481811015610dad5760405162461bcd60e51b815260206004820152602260248201527f45524332303a206275726e20616d6f756e7420657863656564732062616c616e604482015261636560f01b60648201526084016104da565b6001600160a01b0383166000818152602081815260408083208686039055600280548790039055518581529192917fddf252ad1be2c89b69c2b068fc378daa952ba7f163c4a11628f55a4df523b3ef9101610943565b600060208083528351808285015260005b81811015610e3057858101830151858201604001528201610e14565b81811115610e42576000604083870101525b50601f01601f1916929092016040019392505050565b80356001600160a01b0381168114610e6f57600080fd5b919050565b60008060408385031215610e8757600080fd5b610e9083610e58565b946020939093013593505050565b600080600060608486031215610eb357600080fd5b610ebc84610e58565b9250610eca60208501610e58565b9150604084013590509250925092565b600060208284031215610eec57600080fd5b610ef582610e58565b9392505050565b600080600080600080600060e0888a031215610f1757600080fd5b610f2088610e58565b9650610f2e60208901610e58565b95506040880135945060608801359350608088013560ff81168114610f5257600080fd5b9699959850939692959460a0840135945060c09093013592915050565b60008060408385031215610f8257600080fd5b610f8b83610e58565b9150610f9960208401610e58565b90509250929050565b600181811c90821680610fb657607f821691505b602082108103610fd657634e487b7160e01b600052602260045260246000fd5b50919050565b634e487b7160e01b600052601160045260246000fd5b6000821982111561100557611005610fdc565b500190565b60208082526024908201527f546f6b656e577261707065643a3a6f6e6c794272696467653a204e4f545f42526040820152634944474560e01b606082015260800190565b60006001820161106057611060610fdc565b506001019056fea264697066735822122070fae8b3daebe7fc894d50296739b7a26e638f37239109230c7dfd552785f2a264736f6c634300080f0033506f6c79676f6e5a6b45564d4272696467653a3a5f7665726966794c6561663aa26469706673582212200c1a9aa1f10dc47f955539f6956404fe6851250ffeda1aee8fe15bdecba13e3564736f6c634300080f0033",
  "linkReferences": {},
  "deployedLinkReferences": {}
}