{
  "_format": "hh-sol-artifact-1",
  "contractName": "PolygonZkEVMGlobalExitRoot",
  "sourceName": "contracts/PolygonZkEVMGlobalExitRoot.sol",
  "abi": [
    {
      "inputs": [
        {
          "internalType": "address",
          "name": "_rollupAddress",
          "type": "address"
        },
        {
          "internalType": "address",
          "name": "_bridgeAddress",
          "type": "address"
        }
      ],
      "stateMutability": "nonpayable",
      "type": "constructor"
    },
    {
      "inputs": [],
      "name": "MerkleTreeFull",
      "type": "error"
    },
    {
      "inputs": [],
      "name": "OnlyAllowedContracts",
      "type": "error"
    },
    {
      "anonymous": false,
      "inputs": [
        {
          "indexed": true,
          "internalType": "bytes32",
          "name": "mainnetExitRoot",
          "type": "bytes32"
        },
        {
          "indexed": true,
          "internalType": "bytes32",
          "name": "rollupExitRoot",
          "type": "bytes32"
        }
      ],
      "name": "UpdateGlobalExitRoot",
      "type": "event"
    },
    {
      "inputs": [],
      "name": "bridgeAddress",
      "outputs": [
        {
          "internalType": "address",
          "name": "",
          "type": "address"
        }
      ],
      "stateMutability": "view",
      "type": "function"
    },
    {
      "inputs": [],
      "name": "depositCount",
      "outputs": [
        {
          "internalType": "uint256",
          "name": "",
          "type": "uint256"
        }
      ],
      "stateMutability": "view",
      "type": "function"
    },
    {
      "inputs": [],
      "name": "getLastGlobalExitRoot",
      "outputs": [
        {
          "internalType": "bytes32",
          "name": "",
          "type": "bytes32"
        }
      ],
      "stateMutability": "view",
      "type": "function"
    },
    {
      "inputs": [],
      "name": "getRoot",
      "outputs": [
        {
          "internalType": "bytes32",
          "name": "",
          "type": "bytes32"
        }
      ],
      "stateMutability": "view",
      "type": "function"
    },
    {
      "inputs": [
        {
          "internalType": "bytes32",
          "name": "",
          "type": "bytes32"
        }
      ],
      "name": "globalExitRootMap",
      "outputs": [
        {
          "internalType": "uint256",
          "name": "",
          "type": "uint256"
        }
      ],
      "stateMutability": "view",
      "type": "function"
    },
    {
      "inputs": [],
      "name": "lastMainnetExitRoot",
      "outputs": [
        {
          "internalType": "bytes32",
          "name": "",
          "type": "bytes32"
        }
      ],
      "stateMutability": "view",
      "type": "function"
    },
    {
      "inputs": [],
      "name": "lastRollupExitRoot",
      "outputs": [
        {
          "internalType": "bytes32",
          "name": "",
          "type": "bytes32"
        }
      ],
      "stateMutability": "view",
      "type": "function"
    },
    {
      "inputs": [],
      "name": "rollupAddress",
      "outputs": [
        {
          "internalType": "address",
          "name": "",
          "type": "address"
        }
      ],
      "stateMutability": "view",
      "type": "function"
    },
    {
      "inputs": [
        {
          "internalType": "bytes32",
          "name": "newRoot",
          "type": "bytes32"
        }
      ],
      "name": "updateExitRoot",
      "outputs": [],
      "stateMutability": "nonpayable",
      "type": "function"
    },
    {
      "inputs": [
        {
          "internalType": "bytes32",
          "name": "leafHash",
          "type": "bytes32"
        },
        {
          "internalType": "bytes32[32]",
          "name": "smtProof",
          "type": "bytes32[32]"
        },
        {
          "internalType": "uint32",
          "name": "index",
          "type": "uint32"
        },
        {
          "internalType": "bytes32",
          "name": "root",
          "type": "bytes32"
        }
      ],
      "name": "verifyMerkleProof",
      "outputs": [
        {
          "internalType": "bool",
          "name": "",
          "type": "bool"
        }
      ],
      "stateMutability": "pure",
      "type": "function"
    }
  ],
  "bytecode": "0x60c060405234801561001057600080fd5b5060405161098438038061098483398101604081905261002f91610062565b6001600160a01b0391821660a05216608052610095565b80516001600160a01b038116811461005d57600080fd5b919050565b6000806040838503121561007557600080fd5b61007e83610046565b915061008c60208401610046565b90509250929050565b60805160a0516108bc6100c86000396000818161013b015261023201526000818161018701526101e901526108bc6000f3fe608060405234801561001057600080fd5b50600436106100be5760003560e01c80633ed691ef116100765780635ec6a8df1161005b5780635ec6a8df14610136578063a3c573eb14610182578063fb570834146101a957600080fd5b80633ed691ef146101265780635ca1e1651461012e57600080fd5b80632dfdf0b5116100a75780632dfdf0b5146100ff578063319cf7351461010857806333d6247d1461011157600080fd5b806301fd9044146100c3578063257b3632146100df575b600080fd5b6100cc602b5481565b6040519081526020015b60405180910390f35b6100cc6100ed36600461060b565b602d6020526000908152604090205481565b6100cc60205481565b6100cc602c5481565b61012461011f36600461060b565b6101cc565b005b6100cc610304565b6100cc610319565b61015d7f000000000000000000000000000000000000000000000000000000000000000081565b60405173ffffffffffffffffffffffffffffffffffffffff90911681526020016100d6565b61015d7f000000000000000000000000000000000000000000000000000000000000000081565b6101bc6101b7366004610624565b610323565b60405190151581526020016100d6565b602b54602c5473ffffffffffffffffffffffffffffffffffffffff7f000000000000000000000000000000000000000000000000000000000000000016330361021b5750602c82905581610297565b73ffffffffffffffffffffffffffffffffffffffff7f000000000000000000000000000000000000000000000000000000000000000016330361026557602b839055829150610297565b6040517fb49365dd00000000000000000000000000000000000000000000000000000000815260040160405180910390fd5b60006102a382846103fc565b6000818152602d6020526040812054919250036102fe576000818152602d602052604080822042905551849184917f61014378f82a0d809aefaf87a8ac9505b89c321808287a6e7810f29304c1fce39190a36102fe8161042b565b50505050565b6000610314602c54602b546103fc565b905090565b600061031461052e565b600084815b60208110156103f057600163ffffffff8616821c81169003610393578581602081106103565761035661067b565b602002013582604051602001610376929190918252602082015260400190565b6040516020818303038152906040528051906020012091506103de565b818682602081106103a6576103a661067b565b60200201356040516020016103c5929190918252602082015260400190565b6040516020818303038152906040528051906020012091505b806103e8816106d9565b915050610328565b50909114949350505050565b604080516020808201859052818301849052825180830384018152606090920190925280519101205b92915050565b80600161043a60206002610831565b6104449190610844565b6020541061047e576040517fef5ccf6600000000000000000000000000000000000000000000000000000000815260040160405180910390fd5b600060206000815461048f906106d9565b9182905550905060005b6020811015610520578082901c6001166001036104cc5782600082602081106104c4576104c461067b565b015550505050565b600081602081106104df576104df61067b565b015460408051602081019290925281018490526060016040516020818303038152906040528051906020012092508080610518906106d9565b915050610499565b50610529610857565b505050565b602054600090819081805b6020811015610602578083901c60011660010361059657600081602081106105635761056361067b565b015460408051602081019290925281018590526060016040516020818303038152906040528051906020012093506105c3565b60408051602081018690529081018390526060016040516020818303038152906040528051906020012093505b604080516020810184905290810183905260600160405160208183030381529060405280519060200120915080806105fa906106d9565b915050610539565b50919392505050565b60006020828403121561061d57600080fd5b5035919050565b600080600080610460858703121561063b57600080fd5b8435935061042085018681111561065157600080fd5b6020860193503563ffffffff8116811461066a57600080fd5b939692955092936104400135925050565b7f4e487b7100000000000000000000000000000000000000000000000000000000600052603260045260246000fd5b7f4e487b7100000000000000000000000000000000000000000000000000000000600052601160045260246000fd5b60007fffffffffffffffffffffffffffffffffffffffffffffffffffffffffffffffff820361070a5761070a6106aa565b5060010190565b600181815b8085111561076a57817fffffffffffffffffffffffffffffffffffffffffffffffffffffffffffffffff04821115610750576107506106aa565b8085161561075d57918102915b93841c9390800290610716565b509250929050565b60008261078157506001610425565b8161078e57506000610425565b81600181146107a457600281146107ae576107ca565b6001915050610425565b60ff8411156107bf576107bf6106aa565b50506001821b610425565b5060208310610133831016604e8410600b84101617156107ed575081810a610425565b6107f78383610711565b807fffffffffffffffffffffffffffffffffffffffffffffffffffffffffffffffff04821115610829576108296106aa565b029392505050565b600061083d8383610772565b9392505050565b81810381811115610425576104256106aa565b7f4e487b7100000000000000000000000000000000000000000000000000000000600052600160045260246000fdfea26469706673582212205394b6f8fc22eaa22111523b4e7eba4ef10c6ef66fe3500e7ac63a04fbb4cdee64736f6c63430008110033",
  "linkReferences": {},
  "deployedLinkReferences": {}
}