{
  "_format": "hh-sol-artifact-1",
  "contractName": "PolygonZkEVMMock",
  "sourceName": "contracts/mocks/PolygonZkEVMMock.sol",
  "abi": [
    {
      "anonymous": false,
      "inputs": [
        {
          "indexed": false,
          "internalType": "address",
          "name": "newAdmin",
          "type": "address"
        }
      ],
      "name": "AcceptAdminRole",
      "type": "event"
    },
    {
      "anonymous": false,
      "inputs": [
        {
          "indexed": true,
          "internalType": "uint64",
          "name": "numBatch",
          "type": "uint64"
        },
        {
          "indexed": false,
          "internalType": "bytes32",
          "name": "stateRoot",
          "type": "bytes32"
        },
        {
          "indexed": true,
          "internalType": "uint64",
          "name": "pendingStateNum",
          "type": "uint64"
        }
      ],
      "name": "ConsolidatePendingState",
      "type": "event"
    },
    {
      "anonymous": false,
      "inputs": [],
      "name": "EmergencyStateActivated",
      "type": "event"
    },
    {
      "anonymous": false,
      "inputs": [],
      "name": "EmergencyStateDeactivated",
      "type": "event"
    },
    {
      "anonymous": false,
      "inputs": [
        {
          "indexed": true,
          "internalType": "uint64",
          "name": "forceBatchNum",
          "type": "uint64"
        },
        {
          "indexed": false,
          "internalType": "bytes32",
          "name": "lastGlobalExitRoot",
          "type": "bytes32"
        },
        {
          "indexed": false,
          "internalType": "address",
          "name": "sequencer",
          "type": "address"
        },
        {
          "indexed": false,
          "internalType": "bytes",
          "name": "transactions",
          "type": "bytes"
        }
      ],
      "name": "ForceBatch",
      "type": "event"
    },
    {
      "anonymous": false,
      "inputs": [
        {
          "indexed": false,
          "internalType": "uint8",
          "name": "version",
          "type": "uint8"
        }
      ],
      "name": "Initialized",
      "type": "event"
    },
    {
      "anonymous": false,
      "inputs": [
        {
          "indexed": true,
          "internalType": "uint64",
          "name": "numBatch",
          "type": "uint64"
        },
        {
          "indexed": false,
          "internalType": "bytes32",
          "name": "stateRoot",
          "type": "bytes32"
        },
        {
          "indexed": true,
          "internalType": "address",
          "name": "aggregator",
          "type": "address"
        }
      ],
      "name": "OverridePendingState",
      "type": "event"
    },
    {
      "anonymous": false,
      "inputs": [
        {
          "indexed": true,
          "internalType": "address",
          "name": "previousOwner",
          "type": "address"
        },
        {
          "indexed": true,
          "internalType": "address",
          "name": "newOwner",
          "type": "address"
        }
      ],
      "name": "OwnershipTransferred",
      "type": "event"
    },
    {
      "anonymous": false,
      "inputs": [
        {
          "indexed": false,
          "internalType": "bytes32",
          "name": "storedStateRoot",
          "type": "bytes32"
        },
        {
          "indexed": false,
          "internalType": "bytes32",
          "name": "provedStateRoot",
          "type": "bytes32"
        }
      ],
      "name": "ProveNonDeterministicPendingState",
      "type": "event"
    },
    {
      "anonymous": false,
      "inputs": [
        {
          "indexed": true,
          "internalType": "uint64",
          "name": "numBatch",
          "type": "uint64"
        }
      ],
      "name": "SequenceBatches",
      "type": "event"
    },
    {
      "anonymous": false,
      "inputs": [
        {
          "indexed": true,
          "internalType": "uint64",
          "name": "numBatch",
          "type": "uint64"
        }
      ],
      "name": "SequenceForceBatches",
      "type": "event"
    },
    {
      "anonymous": false,
      "inputs": [
        {
          "indexed": false,
          "internalType": "uint16",
          "name": "newMultiplierBatchFee",
          "type": "uint16"
        }
      ],
      "name": "SetMultiplierBatchFee",
      "type": "event"
    },
    {
      "anonymous": false,
      "inputs": [
        {
          "indexed": false,
          "internalType": "uint64",
          "name": "newPendingStateTimeout",
          "type": "uint64"
        }
      ],
      "name": "SetPendingStateTimeout",
      "type": "event"
    },
    {
      "anonymous": false,
      "inputs": [
        {
          "indexed": false,
          "internalType": "address",
          "name": "newTrustedAggregator",
          "type": "address"
        }
      ],
      "name": "SetTrustedAggregator",
      "type": "event"
    },
    {
      "anonymous": false,
      "inputs": [
        {
          "indexed": false,
          "internalType": "uint64",
          "name": "newTrustedAggregatorTimeout",
          "type": "uint64"
        }
      ],
      "name": "SetTrustedAggregatorTimeout",
      "type": "event"
    },
    {
      "anonymous": false,
      "inputs": [
        {
          "indexed": false,
          "internalType": "address",
          "name": "newTrustedSequencer",
          "type": "address"
        }
      ],
      "name": "SetTrustedSequencer",
      "type": "event"
    },
    {
      "anonymous": false,
      "inputs": [
        {
          "indexed": false,
          "internalType": "string",
          "name": "newTrustedSequencerURL",
          "type": "string"
        }
      ],
      "name": "SetTrustedSequencerURL",
      "type": "event"
    },
    {
      "anonymous": false,
      "inputs": [
        {
          "indexed": false,
          "internalType": "uint64",
          "name": "newVerifyBatchTimeTarget",
          "type": "uint64"
        }
      ],
      "name": "SetVerifyBatchTimeTarget",
      "type": "event"
    },
    {
      "anonymous": false,
      "inputs": [
        {
          "indexed": false,
          "internalType": "address",
          "name": "newPendingAdmin",
          "type": "address"
        }
      ],
      "name": "TransferAdminRole",
      "type": "event"
    },
    {
      "anonymous": false,
      "inputs": [
        {
          "indexed": true,
          "internalType": "uint64",
          "name": "numBatch",
          "type": "uint64"
        },
        {
          "indexed": false,
          "internalType": "bytes32",
          "name": "stateRoot",
          "type": "bytes32"
        },
        {
          "indexed": true,
          "internalType": "address",
          "name": "aggregator",
          "type": "address"
        }
      ],
      "name": "TrustedVerifyBatches",
      "type": "event"
    },
    {
      "anonymous": false,
      "inputs": [
        {
          "indexed": true,
          "internalType": "uint64",
          "name": "numBatch",
          "type": "uint64"
        },
        {
          "indexed": false,
          "internalType": "bytes32",
          "name": "stateRoot",
          "type": "bytes32"
        },
        {
          "indexed": true,
          "internalType": "address",
          "name": "aggregator",
          "type": "address"
        }
      ],
      "name": "VerifyBatches",
      "type": "event"
    },
    {
      "inputs": [],
      "name": "acceptAdminRole",
      "outputs": [],
      "stateMutability": "nonpayable",
      "type": "function"
    },
    {
      "inputs": [
        {
          "internalType": "uint64",
          "name": "sequencedBatchNum",
          "type": "uint64"
        }
      ],
      "name": "activateEmergencyState",
      "outputs": [],
      "stateMutability": "nonpayable",
      "type": "function"
    },
    {
      "inputs": [],
      "name": "admin",
      "outputs": [
        {
          "internalType": "address",
          "name": "",
          "type": "address"
        }
      ],
      "stateMutability": "view",
      "type": "function"
    },
    {
      "inputs": [],
      "name": "batchFee",
      "outputs": [
        {
          "internalType": "uint256",
          "name": "",
          "type": "uint256"
        }
      ],
      "stateMutability": "view",
      "type": "function"
    },
    {
      "inputs": [
        {
          "internalType": "uint64",
          "name": "",
          "type": "uint64"
        }
      ],
      "name": "batchNumToStateRoot",
      "outputs": [
        {
          "internalType": "bytes32",
          "name": "",
          "type": "bytes32"
        }
      ],
      "stateMutability": "view",
      "type": "function"
    },
    {
      "inputs": [],
      "name": "bridgeAddress",
      "outputs": [
        {
          "internalType": "contract IPolygonZkEVMBridge",
          "name": "",
          "type": "address"
        }
      ],
      "stateMutability": "view",
      "type": "function"
    },
    {
      "inputs": [
        {
          "internalType": "bytes32",
          "name": "currentAccInputHash",
          "type": "bytes32"
        },
        {
          "internalType": "bytes",
          "name": "transactions",
          "type": "bytes"
        },
        {
          "internalType": "bytes32",
          "name": "globalExitRoot",
          "type": "bytes32"
        },
        {
          "internalType": "uint64",
          "name": "timestamp",
          "type": "uint64"
        },
        {
          "internalType": "address",
          "name": "sequencerAddress",
          "type": "address"
        }
      ],
      "name": "calculateAccInputHash",
      "outputs": [
        {
          "internalType": "bytes32",
          "name": "",
          "type": "bytes32"
        }
      ],
      "stateMutability": "pure",
      "type": "function"
    },
    {
      "inputs": [],
      "name": "calculateRewardPerBatch",
      "outputs": [
        {
          "internalType": "uint256",
          "name": "",
          "type": "uint256"
        }
      ],
      "stateMutability": "view",
      "type": "function"
    },
    {
      "inputs": [],
      "name": "chainID",
      "outputs": [
        {
          "internalType": "uint64",
          "name": "",
          "type": "uint64"
        }
      ],
      "stateMutability": "view",
      "type": "function"
    },
    {
      "inputs": [
        {
          "internalType": "uint64",
          "name": "pendingStateNum",
          "type": "uint64"
        }
      ],
      "name": "consolidatePendingState",
      "outputs": [],
      "stateMutability": "nonpayable",
      "type": "function"
    },
    {
      "inputs": [],
      "name": "deactivateEmergencyState",
      "outputs": [],
      "stateMutability": "nonpayable",
      "type": "function"
    },
    {
      "inputs": [
        {
          "internalType": "bytes",
          "name": "transactions",
          "type": "bytes"
        },
        {
          "internalType": "uint256",
          "name": "maticAmount",
          "type": "uint256"
        }
      ],
      "name": "forceBatch",
      "outputs": [],
      "stateMutability": "nonpayable",
      "type": "function"
    },
    {
      "inputs": [
        {
          "internalType": "uint64",
          "name": "",
          "type": "uint64"
        }
      ],
      "name": "forcedBatches",
      "outputs": [
        {
          "internalType": "bytes32",
          "name": "",
          "type": "bytes32"
        }
      ],
      "stateMutability": "view",
      "type": "function"
    },
    {
      "inputs": [],
      "name": "getCurrentBatchFee",
      "outputs": [
        {
          "internalType": "uint256",
          "name": "",
          "type": "uint256"
        }
      ],
      "stateMutability": "view",
      "type": "function"
    },
    {
      "inputs": [
        {
          "internalType": "uint64",
          "name": "initNumBatch",
          "type": "uint64"
        },
        {
          "internalType": "uint64",
          "name": "finalNewBatch",
          "type": "uint64"
        },
        {
          "internalType": "bytes32",
          "name": "newLocalExitRoot",
          "type": "bytes32"
        },
        {
          "internalType": "bytes32",
          "name": "oldStateRoot",
          "type": "bytes32"
        },
        {
          "internalType": "bytes32",
          "name": "newStateRoot",
          "type": "bytes32"
        }
      ],
      "name": "getInputSnarkBytes",
      "outputs": [
        {
          "internalType": "bytes",
          "name": "",
          "type": "bytes"
        }
      ],
      "stateMutability": "view",
      "type": "function"
    },
    {
      "inputs": [],
      "name": "getLastVerifiedBatch",
      "outputs": [
        {
          "internalType": "uint64",
          "name": "",
          "type": "uint64"
        }
      ],
      "stateMutability": "view",
      "type": "function"
    },
    {
      "inputs": [
        {
          "internalType": "uint64",
          "name": "pendingStateNum",
          "type": "uint64"
        },
        {
          "internalType": "uint64",
          "name": "initNumBatch",
          "type": "uint64"
        },
        {
          "internalType": "uint64",
          "name": "finalNewBatch",
          "type": "uint64"
        },
        {
          "internalType": "bytes32",
          "name": "newLocalExitRoot",
          "type": "bytes32"
        },
        {
          "internalType": "bytes32",
          "name": "newStateRoot",
          "type": "bytes32"
        }
      ],
      "name": "getNextSnarkInput",
      "outputs": [
        {
          "internalType": "uint256",
          "name": "",
          "type": "uint256"
        }
      ],
      "stateMutability": "view",
      "type": "function"
    },
    {
      "inputs": [],
      "name": "globalExitRootManager",
      "outputs": [
        {
          "internalType": "contract IPolygonZkEVMGlobalExitRoot",
          "name": "",
          "type": "address"
        }
      ],
      "stateMutability": "view",
      "type": "function"
    },
    {
      "inputs": [
        {
          "internalType": "contract IPolygonZkEVMGlobalExitRoot",
          "name": "_globalExitRootManager",
          "type": "address"
        },
        {
          "internalType": "contract IERC20Upgradeable",
          "name": "_matic",
          "type": "address"
        },
        {
          "internalType": "contract IVerifierRollup",
          "name": "_rollupVerifier",
          "type": "address"
        },
        {
          "internalType": "contract IPolygonZkEVMBridge",
          "name": "_bridgeAddress",
          "type": "address"
        },
        {
          "components": [
            {
              "internalType": "address",
              "name": "admin",
              "type": "address"
            },
            {
              "internalType": "uint64",
              "name": "chainID",
              "type": "uint64"
            },
            {
              "internalType": "address",
              "name": "trustedSequencer",
              "type": "address"
            },
            {
              "internalType": "uint64",
              "name": "pendingStateTimeout",
              "type": "uint64"
            },
            {
              "internalType": "address",
              "name": "trustedAggregator",
              "type": "address"
            },
            {
              "internalType": "uint64",
              "name": "trustedAggregatorTimeout",
              "type": "uint64"
            }
          ],
          "internalType": "struct PolygonZkEVM.InitializePackedParameters",
          "name": "initializePackedParameters",
          "type": "tuple"
        },
        {
          "internalType": "bytes32",
          "name": "genesisRoot",
          "type": "bytes32"
        },
        {
          "internalType": "string",
          "name": "_trustedSequencerURL",
          "type": "string"
        },
        {
          "internalType": "string",
          "name": "_networkName",
          "type": "string"
        }
      ],
      "name": "initialize",
      "outputs": [],
      "stateMutability": "nonpayable",
      "type": "function"
    },
    {
      "inputs": [],
      "name": "isEmergencyState",
      "outputs": [
        {
          "internalType": "bool",
          "name": "",
          "type": "bool"
        }
      ],
      "stateMutability": "view",
      "type": "function"
    },
    {
      "inputs": [
        {
          "internalType": "uint64",
          "name": "pendingStateNum",
          "type": "uint64"
        }
      ],
      "name": "isPendingStateConsolidable",
      "outputs": [
        {
          "internalType": "bool",
          "name": "",
          "type": "bool"
        }
      ],
      "stateMutability": "view",
      "type": "function"
    },
    {
      "inputs": [],
      "name": "lastBatchSequenced",
      "outputs": [
        {
          "internalType": "uint64",
          "name": "",
          "type": "uint64"
        }
      ],
      "stateMutability": "view",
      "type": "function"
    },
    {
      "inputs": [],
      "name": "lastForceBatch",
      "outputs": [
        {
          "internalType": "uint64",
          "name": "",
          "type": "uint64"
        }
      ],
      "stateMutability": "view",
      "type": "function"
    },
    {
      "inputs": [],
      "name": "lastForceBatchSequenced",
      "outputs": [
        {
          "internalType": "uint64",
          "name": "",
          "type": "uint64"
        }
      ],
      "stateMutability": "view",
      "type": "function"
    },
    {
      "inputs": [],
      "name": "lastPendingState",
      "outputs": [
        {
          "internalType": "uint64",
          "name": "",
          "type": "uint64"
        }
      ],
      "stateMutability": "view",
      "type": "function"
    },
    {
      "inputs": [],
      "name": "lastPendingStateConsolidated",
      "outputs": [
        {
          "internalType": "uint64",
          "name": "",
          "type": "uint64"
        }
      ],
      "stateMutability": "view",
      "type": "function"
    },
    {
      "inputs": [],
      "name": "lastTimestamp",
      "outputs": [
        {
          "internalType": "uint64",
          "name": "",
          "type": "uint64"
        }
      ],
      "stateMutability": "view",
      "type": "function"
    },
    {
      "inputs": [],
      "name": "lastVerifiedBatch",
      "outputs": [
        {
          "internalType": "uint64",
          "name": "",
          "type": "uint64"
        }
      ],
      "stateMutability": "view",
      "type": "function"
    },
    {
      "inputs": [],
      "name": "matic",
      "outputs": [
        {
          "internalType": "contract IERC20Upgradeable",
          "name": "",
          "type": "address"
        }
      ],
      "stateMutability": "view",
      "type": "function"
    },
    {
      "inputs": [],
      "name": "multiplierBatchFee",
      "outputs": [
        {
          "internalType": "uint16",
          "name": "",
          "type": "uint16"
        }
      ],
      "stateMutability": "view",
      "type": "function"
    },
    {
      "inputs": [],
      "name": "networkName",
      "outputs": [
        {
          "internalType": "string",
          "name": "",
          "type": "string"
        }
      ],
      "stateMutability": "view",
      "type": "function"
    },
    {
      "inputs": [
        {
          "internalType": "uint64",
          "name": "initPendingStateNum",
          "type": "uint64"
        },
        {
          "internalType": "uint64",
          "name": "finalPendingStateNum",
          "type": "uint64"
        },
        {
          "internalType": "uint64",
          "name": "initNumBatch",
          "type": "uint64"
        },
        {
          "internalType": "uint64",
          "name": "finalNewBatch",
          "type": "uint64"
        },
        {
          "internalType": "bytes32",
          "name": "newLocalExitRoot",
          "type": "bytes32"
        },
        {
          "internalType": "bytes32",
          "name": "newStateRoot",
          "type": "bytes32"
        },
        {
          "internalType": "uint256[2]",
          "name": "proofA",
          "type": "uint256[2]"
        },
        {
          "internalType": "uint256[2][2]",
          "name": "proofB",
          "type": "uint256[2][2]"
        },
        {
          "internalType": "uint256[2]",
          "name": "proofC",
          "type": "uint256[2]"
        }
      ],
      "name": "overridePendingState",
      "outputs": [],
      "stateMutability": "nonpayable",
      "type": "function"
    },
    {
      "inputs": [],
      "name": "owner",
      "outputs": [
        {
          "internalType": "address",
          "name": "",
          "type": "address"
        }
      ],
      "stateMutability": "view",
      "type": "function"
    },
    {
      "inputs": [],
      "name": "pendingAdmin",
      "outputs": [
        {
          "internalType": "address",
          "name": "",
          "type": "address"
        }
      ],
      "stateMutability": "view",
      "type": "function"
    },
    {
      "inputs": [],
      "name": "pendingStateTimeout",
      "outputs": [
        {
          "internalType": "uint64",
          "name": "",
          "type": "uint64"
        }
      ],
      "stateMutability": "view",
      "type": "function"
    },
    {
      "inputs": [
        {
          "internalType": "uint256",
          "name": "",
          "type": "uint256"
        }
      ],
      "name": "pendingStateTransitions",
      "outputs": [
        {
          "internalType": "uint64",
          "name": "timestamp",
          "type": "uint64"
        },
        {
          "internalType": "uint64",
          "name": "lastVerifiedBatch",
          "type": "uint64"
        },
        {
          "internalType": "bytes32",
          "name": "exitRoot",
          "type": "bytes32"
        },
        {
          "internalType": "bytes32",
          "name": "stateRoot",
          "type": "bytes32"
        }
      ],
      "stateMutability": "view",
      "type": "function"
    },
    {
      "inputs": [
        {
          "internalType": "uint64",
          "name": "initPendingStateNum",
          "type": "uint64"
        },
        {
          "internalType": "uint64",
          "name": "finalPendingStateNum",
          "type": "uint64"
        },
        {
          "internalType": "uint64",
          "name": "initNumBatch",
          "type": "uint64"
        },
        {
          "internalType": "uint64",
          "name": "finalNewBatch",
          "type": "uint64"
        },
        {
          "internalType": "bytes32",
          "name": "newLocalExitRoot",
          "type": "bytes32"
        },
        {
          "internalType": "bytes32",
          "name": "newStateRoot",
          "type": "bytes32"
        },
        {
          "internalType": "uint256[2]",
          "name": "proofA",
          "type": "uint256[2]"
        },
        {
          "internalType": "uint256[2][2]",
          "name": "proofB",
          "type": "uint256[2][2]"
        },
        {
          "internalType": "uint256[2]",
          "name": "proofC",
          "type": "uint256[2]"
        }
      ],
      "name": "proveNonDeterministicPendingState",
      "outputs": [],
      "stateMutability": "nonpayable",
      "type": "function"
    },
    {
      "inputs": [],
      "name": "renounceOwnership",
      "outputs": [],
      "stateMutability": "nonpayable",
      "type": "function"
    },
    {
      "inputs": [],
      "name": "rollupVerifier",
      "outputs": [
        {
          "internalType": "contract IVerifierRollup",
          "name": "",
          "type": "address"
        }
      ],
      "stateMutability": "view",
      "type": "function"
    },
    {
      "inputs": [
        {
          "components": [
            {
              "internalType": "bytes",
              "name": "transactions",
              "type": "bytes"
            },
            {
              "internalType": "bytes32",
              "name": "globalExitRoot",
              "type": "bytes32"
            },
            {
              "internalType": "uint64",
              "name": "timestamp",
              "type": "uint64"
            },
            {
              "internalType": "uint64",
              "name": "minForcedTimestamp",
              "type": "uint64"
            }
          ],
          "internalType": "struct PolygonZkEVM.BatchData[]",
          "name": "batches",
          "type": "tuple[]"
        }
      ],
      "name": "sequenceBatches",
      "outputs": [],
      "stateMutability": "nonpayable",
      "type": "function"
    },
    {
      "inputs": [
        {
          "components": [
            {
              "internalType": "bytes",
              "name": "transactions",
              "type": "bytes"
            },
            {
              "internalType": "bytes32",
              "name": "globalExitRoot",
              "type": "bytes32"
            },
            {
              "internalType": "uint64",
              "name": "minForcedTimestamp",
              "type": "uint64"
            }
          ],
          "internalType": "struct PolygonZkEVM.ForcedBatchData[]",
          "name": "batches",
          "type": "tuple[]"
        }
      ],
      "name": "sequenceForceBatches",
      "outputs": [],
      "stateMutability": "nonpayable",
      "type": "function"
    },
    {
      "inputs": [
        {
          "internalType": "uint64",
          "name": "",
          "type": "uint64"
        }
      ],
      "name": "sequencedBatches",
      "outputs": [
        {
          "internalType": "bytes32",
          "name": "accInputHash",
          "type": "bytes32"
        },
        {
          "internalType": "uint64",
          "name": "sequencedTimestamp",
          "type": "uint64"
        },
        {
          "internalType": "uint64",
          "name": "previousLastBatchSequenced",
          "type": "uint64"
        }
      ],
      "stateMutability": "view",
      "type": "function"
    },
    {
      "inputs": [
        {
          "internalType": "uint16",
          "name": "newMultiplierBatchFee",
          "type": "uint16"
        }
      ],
      "name": "setMultiplierBatchFee",
      "outputs": [],
      "stateMutability": "nonpayable",
      "type": "function"
    },
    {
      "inputs": [
        {
          "internalType": "string",
          "name": "_networkName",
          "type": "string"
        }
      ],
      "name": "setNetworkName",
      "outputs": [],
      "stateMutability": "nonpayable",
      "type": "function"
    },
    {
      "inputs": [
        {
          "internalType": "uint64",
          "name": "newPendingStateTimeout",
          "type": "uint64"
        }
      ],
      "name": "setPendingStateTimeout",
      "outputs": [],
      "stateMutability": "nonpayable",
      "type": "function"
    },
    {
      "inputs": [
        {
          "internalType": "uint64",
          "name": "_numBatch",
          "type": "uint64"
        }
      ],
      "name": "setSequencedBatch",
      "outputs": [],
      "stateMutability": "nonpayable",
      "type": "function"
    },
    {
      "inputs": [
        {
          "internalType": "uint64",
          "name": "batchNum",
          "type": "uint64"
        },
        {
          "internalType": "bytes32",
          "name": "accInputData",
          "type": "bytes32"
        },
        {
          "internalType": "uint64",
          "name": "timestamp",
          "type": "uint64"
        },
        {
          "internalType": "uint64",
          "name": "lastPendingStateConsolidated",
          "type": "uint64"
        }
      ],
      "name": "setSequencedBatches",
      "outputs": [],
      "stateMutability": "nonpayable",
      "type": "function"
    },
    {
      "inputs": [
        {
          "internalType": "bytes32",
          "name": "newStateRoot",
          "type": "bytes32"
        },
        {
          "internalType": "uint64",
          "name": "batchNum",
          "type": "uint64"
        }
      ],
      "name": "setStateRoot",
      "outputs": [],
      "stateMutability": "nonpayable",
      "type": "function"
    },
    {
      "inputs": [
        {
          "internalType": "address",
          "name": "newTrustedAggregator",
          "type": "address"
        }
      ],
      "name": "setTrustedAggregator",
      "outputs": [],
      "stateMutability": "nonpayable",
      "type": "function"
    },
    {
      "inputs": [
        {
          "internalType": "uint64",
          "name": "newTrustedAggregatorTimeout",
          "type": "uint64"
        }
      ],
      "name": "setTrustedAggregatorTimeout",
      "outputs": [],
      "stateMutability": "nonpayable",
      "type": "function"
    },
    {
      "inputs": [
        {
          "internalType": "address",
          "name": "newTrustedSequencer",
          "type": "address"
        }
      ],
      "name": "setTrustedSequencer",
      "outputs": [],
      "stateMutability": "nonpayable",
      "type": "function"
    },
    {
      "inputs": [
        {
          "internalType": "string",
          "name": "newTrustedSequencerURL",
          "type": "string"
        }
      ],
      "name": "setTrustedSequencerURL",
      "outputs": [],
      "stateMutability": "nonpayable",
      "type": "function"
    },
    {
      "inputs": [
        {
          "internalType": "uint64",
          "name": "_numBatch",
          "type": "uint64"
        }
      ],
      "name": "setVerifiedBatch",
      "outputs": [],
      "stateMutability": "nonpayable",
      "type": "function"
    },
    {
      "inputs": [
        {
          "internalType": "contract IVerifierRollup",
          "name": "_rollupVerifier",
          "type": "address"
        }
      ],
      "name": "setVerifier",
      "outputs": [],
      "stateMutability": "nonpayable",
      "type": "function"
    },
    {
      "inputs": [
        {
          "internalType": "uint64",
          "name": "newVerifyBatchTimeTarget",
          "type": "uint64"
        }
      ],
      "name": "setVerifyBatchTimeTarget",
      "outputs": [],
      "stateMutability": "nonpayable",
      "type": "function"
    },
    {
      "inputs": [
        {
          "internalType": "address",
          "name": "newPendingAdmin",
          "type": "address"
        }
      ],
      "name": "transferAdminRole",
      "outputs": [],
      "stateMutability": "nonpayable",
      "type": "function"
    },
    {
      "inputs": [
        {
          "internalType": "address",
          "name": "newOwner",
          "type": "address"
        }
      ],
      "name": "transferOwnership",
      "outputs": [],
      "stateMutability": "nonpayable",
      "type": "function"
    },
    {
      "inputs": [],
      "name": "trustedAggregator",
      "outputs": [
        {
          "internalType": "address",
          "name": "",
          "type": "address"
        }
      ],
      "stateMutability": "view",
      "type": "function"
    },
    {
      "inputs": [],
      "name": "trustedAggregatorTimeout",
      "outputs": [
        {
          "internalType": "uint64",
          "name": "",
          "type": "uint64"
        }
      ],
      "stateMutability": "view",
      "type": "function"
    },
    {
      "inputs": [],
      "name": "trustedSequencer",
      "outputs": [
        {
          "internalType": "address",
          "name": "",
          "type": "address"
        }
      ],
      "stateMutability": "view",
      "type": "function"
    },
    {
      "inputs": [],
      "name": "trustedSequencerURL",
      "outputs": [
        {
          "internalType": "string",
          "name": "",
          "type": "string"
        }
      ],
      "stateMutability": "view",
      "type": "function"
    },
    {
      "inputs": [
        {
          "internalType": "uint64",
          "name": "pendingStateNum",
          "type": "uint64"
        },
        {
          "internalType": "uint64",
          "name": "initNumBatch",
          "type": "uint64"
        },
        {
          "internalType": "uint64",
          "name": "finalNewBatch",
          "type": "uint64"
        },
        {
          "internalType": "bytes32",
          "name": "newLocalExitRoot",
          "type": "bytes32"
        },
        {
          "internalType": "bytes32",
          "name": "newStateRoot",
          "type": "bytes32"
        },
        {
          "internalType": "uint256[2]",
          "name": "proofA",
          "type": "uint256[2]"
        },
        {
          "internalType": "uint256[2][2]",
          "name": "proofB",
          "type": "uint256[2][2]"
        },
        {
          "internalType": "uint256[2]",
          "name": "proofC",
          "type": "uint256[2]"
        }
      ],
      "name": "trustedVerifyBatches",
      "outputs": [],
      "stateMutability": "nonpayable",
      "type": "function"
    },
    {
      "inputs": [
        {
          "internalType": "uint64",
          "name": "pendingStateNum",
          "type": "uint64"
        },
        {
          "internalType": "uint64",
          "name": "initNumBatch",
          "type": "uint64"
        },
        {
          "internalType": "uint64",
          "name": "finalNewBatch",
          "type": "uint64"
        },
        {
          "internalType": "bytes32",
          "name": "newLocalExitRoot",
          "type": "bytes32"
        },
        {
          "internalType": "bytes32",
          "name": "newStateRoot",
          "type": "bytes32"
        },
        {
          "internalType": "uint256[2]",
          "name": "proofA",
          "type": "uint256[2]"
        },
        {
          "internalType": "uint256[2][2]",
          "name": "proofB",
          "type": "uint256[2][2]"
        },
        {
          "internalType": "uint256[2]",
          "name": "proofC",
          "type": "uint256[2]"
        }
      ],
      "name": "trustedVerifyBatchesMock",
      "outputs": [],
      "stateMutability": "nonpayable",
      "type": "function"
    },
    {
      "inputs": [
        {
          "internalType": "uint64",
          "name": "newLastVerifiedBatch",
          "type": "uint64"
        }
      ],
      "name": "updateBatchFee",
      "outputs": [],
      "stateMutability": "nonpayable",
      "type": "function"
    },
    {
      "inputs": [],
      "name": "verifyBatchTimeTarget",
      "outputs": [
        {
          "internalType": "uint64",
          "name": "",
          "type": "uint64"
        }
      ],
      "stateMutability": "view",
      "type": "function"
    },
    {
      "inputs": [
        {
          "internalType": "uint64",
          "name": "pendingStateNum",
          "type": "uint64"
        },
        {
          "internalType": "uint64",
          "name": "initNumBatch",
          "type": "uint64"
        },
        {
          "internalType": "uint64",
          "name": "finalNewBatch",
          "type": "uint64"
        },
        {
          "internalType": "bytes32",
          "name": "newLocalExitRoot",
          "type": "bytes32"
        },
        {
          "internalType": "bytes32",
          "name": "newStateRoot",
          "type": "bytes32"
        },
        {
          "internalType": "uint256[2]",
          "name": "proofA",
          "type": "uint256[2]"
        },
        {
          "internalType": "uint256[2][2]",
          "name": "proofB",
          "type": "uint256[2][2]"
        },
        {
          "internalType": "uint256[2]",
          "name": "proofC",
          "type": "uint256[2]"
        }
      ],
      "name": "verifyBatches",
      "outputs": [],
      "stateMutability": "nonpayable",
      "type": "function"
    }
  ],
  "bytecode": "0x608060405234801561001057600080fd5b50615fb280620000216000396000f3fe608060405234801561001057600080fd5b50600436106103665760003560e01c80638da5cb5b116101ca578063c89e42df11610105578063e7a7ed02116100a8578063e7a7ed02146108b1578063e8bf92ed146108cb578063eaeb077b146108de578063edc41121146108f1578063f14916d614610904578063f2fde38b14610917578063f851a4401461092a578063f8b823e41461093d578063fe16564f1461094657600080fd5b8063c89e42df14610816578063cfa8ed4714610829578063d02103ca14610843578063d8d1091b14610856578063d939b31514610869578063dbc1697614610883578063e0d174411461088b578063e11f3f181461089e57600080fd5b8063ada8f9191161016d578063ada8f91914610719578063adc879e91461072c578063afd23cbe14610746578063b4d63f581461076e578063b4f77ea9146107ce578063b6b0b097146107e1578063c0cad302146107fb578063c0ed84e01461080e57600080fd5b80638da5cb5b1461069957806396dc3d39146106aa57806399f5634e146106bd5780639b796760146106c55780639c9f3dfe146106d85780639f0d039d146106eb578063a066215c146106f3578063a3c573eb1461070657600080fd5b8063458c0477116102a55780636b8616ce116102485780636b8616ce146105955780636ff512cc146105b5578063715018a6146105c85780637215541a146105d057806375c508b3146105e35780637fcb3653146105f6578063837a473814610609578063841b24d7146106775780638c3d73011461069157600080fd5b8063458c0477146104f45780634834a343146105075780634a1a89a71461051a5780634a910e6a146105345780635392c5e014610547578063542028d5146105675780635437988d1461056f578063574f649e1461058257600080fd5b8063248ca0531161030d578063248ca0531461044157806326782247146104545780632987898314610474578063383b3be814610487578063394218e91461049a5780633c158267146104ad578063423fa856146104c057806345605267146104da57600080fd5b80630a0d9fbe1461036b5780630eaa86ea146103a0578063107bf28c146103c157806310a01a72146103d657806315064c96146103eb5780631816b7e51461040857806319d8ac611461041b578063220d78991461042e575b600080fd5b6065546103839061010090046001600160401b031681565b6040516001600160401b0390911681526020015b60405180910390f35b6103b36103ae366004614e19565b610959565b604051908152602001610397565b6103c9610b28565b6040516103979190614ec6565b6103e96103e4366004614f08565b610bb6565b005b6065546103f89060ff1681565b6040519015158152602001610397565b6103e9610416366004614f95565b610dff565b606854610383906001600160401b031681565b6103c961043c366004614fb9565b610f20565b6103e961044f3660046150bd565b6110c1565b607454610467906001600160a01b031681565b6040516103979190615194565b606a54610467906001600160a01b031681565b6103f86104953660046151a8565b611469565b6103e96104a83660046151a8565b6114b0565b6103e96104bb36600461520e565b61166c565b60685461038390600160401b90046001600160401b031681565b60685461038390600160801b90046001600160401b031681565b607254610383906001600160401b031681565b6103e9610515366004614f08565b611e4a565b60725461038390600160401b90046001600160401b031681565b6103e96105423660046151a8565b612193565b6103b36105553660046151a8565b606d6020526000908152604090205481565b6103c96122cd565b6103e961057d36600461524f565b6122da565b6103b361059036600461526c565b612304565b6103b36105a33660046151a8565b60666020526000908152604090205481565b6103e96105c336600461524f565b612347565b6103e96123c5565b6103e96105de3660046151a8565b6123d9565b6103e96105f13660046152e1565b6125e0565b606954610383906001600160401b031681565b61064c61061736600461537f565b6071602052600090815260409020805460018201546002909201546001600160401b0380831693600160401b90930416919084565b604080516001600160401b039586168152949093166020850152918301526060820152608001610397565b60725461038390600160c01b90046001600160401b031681565b6103e961266f565b6033546001600160a01b0316610467565b6103e96106b83660046151a8565b612744565b6103b361276e565b6103e96106d33660046151a8565b612867565b6103e96106e63660046151a8565b61289c565b6075546103b3565b6103e96107013660046151a8565b612a4a565b607054610467906001600160a01b031681565b6103e961072736600461524f565b612b65565b606c5461038390600160a01b90046001600160401b031681565b60655461075b90600160481b900461ffff1681565b60405161ffff9091168152602001610397565b6107a961077c3660046151a8565b606760205260009081526040902080546001909101546001600160401b0380821691600160401b90041683565b604080519384526001600160401b039283166020850152911690820152606001610397565b6103e96107dc3660046151a8565b612bda565b60655461046790600160581b90046001600160a01b031681565b6103e9610809366004615398565b612beb565b610383612c03565b6103e9610824366004615398565b612c50565b60695461046790600160401b90046001600160a01b031681565b606c54610467906001600160a01b031681565b6103e961086436600461520e565b612cb6565b60725461038390600160801b90046001600160401b031681565b6103e961316d565b6103e96108993660046153cc565b613207565b6103e96108ac3660046152e1565b613279565b60685461038390600160c01b90046001600160401b031681565b606b54610467906001600160a01b031681565b6103e96108ec366004615419565b6133bd565b6103e96108ff366004614f08565b6136c8565b6103e961091236600461524f565b6137e7565b6103e961092536600461524f565b61385c565b607354610467906001600160a01b031681565b6103b360755481565b6103e9610954366004615490565b6138d2565b6000806000610966612c03565b90506001600160401b03881615610a03576072546001600160401b0390811690891611156109af5760405162461bcd60e51b81526004016109a6906154bc565b60405180910390fd5b6001600160401b038089166000908152607160205260409020600281015481549094509091898116600160401b90920416146109fd5760405162461bcd60e51b81526004016109a69061553a565b50610a6d565b6001600160401b0387166000908152606d6020526040902054915081610a3b5760405162461bcd60e51b81526004016109a69061559a565b806001600160401b0316876001600160401b03161115610a6d5760405162461bcd60e51b81526004016109a6906155f1565b806001600160401b0316866001600160401b031611610a9e5760405162461bcd60e51b81526004016109a690615662565b6000610aad8888888689610f20565b90506000600080516020615f3d833981519152600283604051610ad091906156df565b602060405180830381855afa158015610aed573d6000803e3d6000fd5b5050506040513d601f19601f82011682018060405250810190610b1091906156fb565b610b1a919061572a565b9a9950505050505050505050565b606f8054610b359061573e565b80601f0160208091040260200160405190810160405280929190818152602001828054610b619061573e565b8015610bae5780601f10610b8357610100808354040283529160200191610bae565b820191906000526020600020905b815481529060010190602001808311610b9157829003601f168201915b505050505081565b610bbe6138f4565b600080610bc9612c03565b90506001600160401b038a1615610c5d576072546001600160401b03908116908b161115610c095760405162461bcd60e51b81526004016109a6906154bc565b6001600160401b03808b1660009081526071602052604090206002810154815490945090918b8116600160401b9092041614610c575760405162461bcd60e51b81526004016109a69061553a565b50610cc7565b6001600160401b0389166000908152606d6020526040902054915081610c955760405162461bcd60e51b81526004016109a69061559a565b806001600160401b0316896001600160401b03161115610cc75760405162461bcd60e51b81526004016109a6906155f1565b806001600160401b0316886001600160401b031611610cf85760405162461bcd60e51b81526004016109a690615662565b6000610d078a8a8a868b610f20565b606980546001600160401b0319166001600160401b038c81169182179092556000908152606d602052604090208990556072549192501615610d5457607280546001600160801b03191690555b606c546040516333d6247d60e01b8152600481018a90526001600160a01b03909116906333d6247d90602401600060405180830381600087803b158015610d9a57600080fd5b505af1158015610dae573d6000803e3d6000fd5b50506040518981523392506001600160401b038c1691507f0c0ce073a7d7b5850c04ccc4b20ee7d3179d5f57d0ac44399565792c0f72fce79060200160405180910390a35050505050505050505050565b6073546001600160a01b03163314610e295760405162461bcd60e51b81526004016109a690615778565b6103e88161ffff1610158015610e4457506104008161ffff16105b610ec95760405162461bcd60e51b815260206004820152604a60248201527f506f6c79676f6e5a6b45564d3a3a7365744d756c7469706c696572426174636860448201527f4665653a206e65774d756c7469706c696572426174636846656520696e636f72606482015269726563742072616e676560b01b608482015260a4016109a6565b6065805461ffff60481b1916600160481b61ffff8416908102919091179091556040519081527f7019933d795eba185c180209e8ae8bffbaa25bcef293364687702c31f4d302c5906020015b60405180910390a150565b6001600160401b03808616600081815260676020526040808220549388168252902054606092911580610f5257508115155b610fc6576040805162461bcd60e51b81526020600482015260248101919091527f506f6c79676f6e5a6b45564d3a3a676574496e707574536e61726b427974657360448201527f3a206f6c64416363496e7075744861736820646f6573206e6f7420657869737460648201526084016109a6565b8061103b576040805162461bcd60e51b81526020600482015260248101919091527f506f6c79676f6e5a6b45564d3a3a676574496e707574536e61726b427974657360448201527f3a206e6577416363496e7075744861736820646f6573206e6f7420657869737460648201526084016109a6565b606c54604080516001600160601b03193360601b166020820152603481019790975260548701939093526001600160c01b031960c0998a1b81166074880152600160a01b909104891b8116607c870152608486019490945260a485015260c4840194909452509290931b90911660e4830152805180830360cc01815260ec909201905290565b600054610100900460ff16158080156110e15750600054600160ff909116105b806110fb5750303b1580156110fb575060005460ff166001145b61115e5760405162461bcd60e51b815260206004820152602e60248201527f496e697469616c697a61626c653a20636f6e747261637420697320616c72656160448201526d191e481a5b9a5d1a585b1a5e995960921b60648201526084016109a6565b6000805460ff191660011790558015611181576000805461ff0019166101001790555b606c80546001600160a01b03199081166001600160a01b038c81169190911790925560658054600160581b600160f81b031916600160581b8c851602179055606b805482168a8416179055607080549091169188169190911790556111e9602086018661524f565b607380546001600160a01b0319166001600160a01b0392909216919091179055611219606086016040870161524f565b606980546001600160a01b0392909216600160401b02600160401b600160e01b031990921691909117905561125460a086016080870161524f565b606a80546001600160a01b0319166001600160a01b039290921691909117905560008052606d60209081527fda90043ba5b4096ba14704bc227ab0d3167da15b887e62ab2e76e37daa7113568590556112b390604087019087016151a8565b606c80546001600160401b0392909216600160a01b0267ffffffffffffffff60a01b19909216919091179055606e6112eb8482615801565b50606f6112f88382615801565b5062093a8061130d60808701606088016151a8565b6001600160401b031611156113345760405162461bcd60e51b81526004016109a6906158c0565b61134460808601606087016151a8565b607280546001600160401b0392909216600160801b0267ffffffffffffffff60801b1990921691909117905562093a8061138460c0870160a088016151a8565b6001600160401b031611156113ab5760405162461bcd60e51b81526004016109a6906158c0565b6113bb60c0860160a087016151a8565b607280546001600160c01b0316600160c01b6001600160401b039390931692909202919091179055670de0b6b3a7640000607555606580546affffffffffffffffffff0019166a03ea00000000000007080017905561141861394e565b801561145e576000805461ff0019169055604051600181527f7f26b83ff96e1f2b6a682f133852f6798a09c465da95921460cefb38474024989060200160405180910390a15b505050505050505050565b6072546001600160401b038281166000908152607160205260408120549092429261149f92600160801b9092048116911661592f565b6001600160401b0316111592915050565b6073546001600160a01b031633146114da5760405162461bcd60e51b81526004016109a690615778565b62093a806001600160401b03821611156115735760405162461bcd60e51b815260206004820152604e60248201527f506f6c79676f6e5a6b45564d3a3a73657454727573746564416767726567617460448201527f6f7254696d656f75743a20457863656564206d61782068616c7420616767726560648201526d19d85d1a5bdb881d1a5b595bdd5d60921b608482015260a4016109a6565b60655460ff16611616576072546001600160401b03600160c01b9091048116908216106116165760405162461bcd60e51b8152602060048201526044602482018190527f506f6c79676f6e5a6b45564d3a3a736574547275737465644167677265676174908201527f6f7254696d656f75743a204e65772074696d656f7574206d757374206265206c60648201526337bbb2b960e11b608482015260a4016109a6565b607280546001600160c01b0316600160c01b6001600160401b038416908102919091179091556040519081527f1f4fa24c2e4bad19a7f3ec5c5485f70d46c798461c2e684f55bbd0fc661373a190602001610f15565b60655460ff161561168f5760405162461bcd60e51b81526004016109a69061595a565b606954600160401b90046001600160a01b031633146117165760405162461bcd60e51b815260206004820152603a60248201527f506f6c79676f6e5a6b45564d3a3a6f6e6c795472757374656453657175656e6360448201527f65723a204f6e6c7920747275737465642073657175656e63657200000000000060648201526084016109a6565b808061178a5760405162461bcd60e51b815260206004820152603d60248201527f506f6c79676f6e5a6b45564d3a3a73657175656e6365426174636865733a204160448201527f74206c65617374206d7573742073657175656e6365203120626174636800000060648201526084016109a6565b6103e8811115611804576040805162461bcd60e51b81526020600482015260248101919091527f506f6c79676f6e5a6b45564d3a3a73657175656e6365426174636865733a204360448201527f616e6e6f742073657175656e63652074686174206d616e79206261746368657360648201526084016109a6565b6068546001600160401b03600160401b82048116600081815260676020526040812054838516949293600160801b909304909216919082905b86811015611c7a576000898983818110611859576118596159c2565b905060200281019061186b91906159d8565b611874906159ee565b805180516020909101206060820151919250906001600160401b031615611a0a578561189f81615a7a565b965050600081836020015184606001516040516020016118c193929190615aa0565b60408051601f1981840301815291815281516020928301206001600160401b038a166000908152606690935291205490915081146119555760405162461bcd60e51b815260206004820152603d6024820152600080516020615f5d83398151915260448201527f6f7263656420626174636865732064617461206d757374206d6174636800000060648201526084016109a6565b6001600160401b038088166000908152606660205260408082209190915560608501519085015190821691161015611a045760405162461bcd60e51b81526020600482015260586024820152600080516020615f5d83398151915260448201527f6f7263656420626174636865732074696d657374616d70206d757374206265206064820152773134b3b3b2b91037b91032b8bab0b6103a3430b71036b4b760411b608482015260a4016109a6565b50611b80565b60208201511580611a935750606c5460208301516040516312bd9b1960e11b81526001600160a01b039092169163257b363291611a4d9160040190815260200190565b6020604051808303816000875af1158015611a6c573d6000803e3d6000fd5b505050506040513d601f19601f82011682018060405250810190611a9091906156fb565b15155b611b055760405162461bcd60e51b815260206004820152603a60248201527f506f6c79676f6e5a6b45564d3a3a73657175656e6365426174636865733a204760448201527f6c6f62616c206578697420726f6f74206d75737420657869737400000000000060648201526084016109a6565b815151620493e01015611b805760405162461bcd60e51b815260206004820152603a60248201527f506f6c79676f6e5a6b45564d3a3a73657175656e6365426174636865733a205460448201527f72616e73616374696f6e73206279746573206f766572666c6f7700000000000060648201526084016109a6565b876001600160401b031682604001516001600160401b031610158015611bb357504282604001516001600160401b031611155b611c255760405162461bcd60e51b815260206004820152603d60248201527f506f6c79676f6e5a6b45564d3a3a73657175656e6365426174636865733a205460448201527f696d657374616d70206d75737420626520696e736964652072616e676500000060648201526084016109a6565b84818360200151846040015133604051602001611c46959493929190615ac3565b6040516020818303038152906040528051906020012094508160400151975050508080611c7290615b02565b91505061183d565b50611c85868561592f565b6068549094506001600160401b03600160c01b90910481169084161115611cfa5760405162461bcd60e51b81526020600482015260356024820152600080516020615f5d8339815191526044820152746f7263652062617463686573206f766572666c6f7760581b60648201526084016109a6565b6000611d068285615b1b565b611d19906001600160401b031688615b43565b60408051606081018252858152426001600160401b03908116602080840191825260688054600160401b9081900485168688019081528d861660008181526067909552979093209551865592516001909501805492519585166001600160801b03199384161795851684029590951790945583548c8416911617930292909217905590915082811690851614611dcf576068805467ffffffffffffffff60801b1916600160801b6001600160401b038716021790555b611e03333083611dde60755490565b611de89190615b5a565b606554600160581b90046001600160a01b03169291906139c2565b611e0b613a33565b6040516001600160401b038616907f303446e6a8cb73c83dff421c0b1d5e5ce0719dab1bff13660fc254e58cc17fce90600090a2505050505050505050565b60655460ff1615611e6d5760405162461bcd60e51b81526004016109a69061595a565b6072546001600160401b038781166000908152606760205260409020600101544292611ea492600160c01b9091048116911661592f565b6001600160401b03161115611f2d5760405162461bcd60e51b815260206004820152604360248201527f506f6c79676f6e5a6b45564d3a3a766572696679426174636865733a2054727560448201527f737465642061676772656761746f722074696d656f7574206e6f7420657870696064820152621c995960ea1b608482015260a4016109a6565b6103e8611f3a8888615b1b565b6001600160401b03161115611fb75760405162461bcd60e51b815260206004820152603c60248201527f506f6c79676f6e5a6b45564d3a3a766572696679426174636865733a2043616e60448201527f6e6f74207665726966792074686174206d616e7920626174636865730000000060648201526084016109a6565b611fc78888888888888888613ad3565b611fd086613fc4565b607254600160801b90046001600160401b031660000361209757606980546001600160401b0319166001600160401b038881169182179092556000908152606d60205260409020859055607254161561203457607280546001600160801b03191690555b606c546040516333d6247d60e01b8152600481018790526001600160a01b03909116906333d6247d90602401600060405180830381600087803b15801561207a57600080fd5b505af115801561208e573d6000803e3d6000fd5b50505050612148565b61209f613a33565b607280546001600160401b03169060006120b883615a7a565b82546001600160401b039182166101009390930a92830292820219169190911790915560408051608081018252428316815289831660208083019182528284018b8152606084018b8152607254871660009081526071909352949091209251835492518616600160401b026001600160801b03199093169516949094171781559151600183015551600290910155505b60405184815233906001600160401b038816907f9c72852172521097ba7e1482e6b44b351323df0155f97f4ea18fcec28e1f5966906020015b60405180910390a35050505050505050565b606a546001600160a01b031633146122c15760655460ff16156122295760405162461bcd60e51b815260206004820152604260248201527f506f6c79676f6e5a6b45564d3a3a636f6e736f6c696461746550656e64696e6760448201527f53746174653a206f6e6c79206966206e6f7420656d657267656e637920737461606482015261746560f01b608482015260a4016109a6565b61223281611469565b6122c15760405162461bcd60e51b815260206004820152605460248201527f506f6c79676f6e5a6b45564d3a3a636f6e736f6c696461746550656e64696e6760448201527f53746174653a2050656e64696e67207374617465206973206e6f7420726561646064820152731e481d1bc818994818dbdb9cdbdb1a59185d195960621b608482015260a4016109a6565b6122ca816141aa565b50565b606e8054610b359061573e565b6122e26138f4565b606b80546001600160a01b0319166001600160a01b0392909216919091179055565b6000858580519060200120858585604051602001612326959493929190615ac3565b60405160208183030381529060405280519060200120905095945050505050565b6073546001600160a01b031633146123715760405162461bcd60e51b81526004016109a690615778565b60698054600160401b600160e01b031916600160401b6001600160a01b038416021790556040517ff54144f9611984021529f814a1cb6a41e22c58351510a0d9f7e822618abb9cc090610f15908390615194565b6123cd6138f4565b6123d7600061437a565b565b6033546001600160a01b031633146125d85760006123f5612c03565b9050806001600160401b0316826001600160401b03161161246c5760405162461bcd60e51b815260206004820152603c6024820152600080516020615ebd83398151915260448201527f746174653a20426174636820616c72656164792076657269666965640000000060648201526084016109a6565b6068546001600160401b03600160401b9091048116908316118015906124ae57506001600160401b038083166000908152606760205260409020600101541615155b6125275760405162461bcd60e51b81526020600482015260506024820152600080516020615ebd83398151915260448201527f746174653a204261746368206e6f742073657175656e636564206f72206e6f7460648201526f20656e64206f662073657175656e636560801b608482015260a4016109a6565b6001600160401b0380831660009081526067602052604090206001015442916125559162093a80911661592f565b6001600160401b031611156125d65760405162461bcd60e51b815260206004820152604d6024820152600080516020615ebd83398151915260448201527f746174653a204167677265676174696f6e2068616c742074696d656f7574206960648201526c1cc81b9bdd08195e1c1a5c9959609a1b608482015260a4016109a6565b505b6122ca6143cc565b60655460ff16156126035760405162461bcd60e51b81526004016109a69061595a565b61261489898989898989898961443c565b6001600160401b0386166000908152606d60209081526040918290205482519081529081018690527f1f44c21118c4603cfb4e1b621dbcfa2b73efcececee2b99b620b2953d33a7010910160405180910390a161145e6143cc565b6074546001600160a01b031633146126eb5760405162461bcd60e51b815260206004820152603960248201527f506f6c79676f6e5a6b45564d3a3a61636365707441646d696e526f6c653a206360448201527830b63632b91034b9903737ba103832b73234b733a0b236b4b760391b60648201526084016109a6565b607454607380546001600160a01b0319166001600160a01b0390921691821790556040517f056dc487bbf0795d0bbb1b4f0af523a855503cff740bfb4d5475f7a90c091e8e9161273a91615194565b60405180910390a1565b61274c6138f4565b606980546001600160401b0319166001600160401b0392909216919091179055565b6065546040516370a0823160e01b81526000918291600160581b9091046001600160a01b0316906370a08231906127a9903090600401615194565b602060405180830381865afa1580156127c6573d6000803e3d6000fd5b505050506040513d601f19601f820116820180604052508101906127ea91906156fb565b905060006127f6612c03565b6068546001600160401b03600160401b820481169161282691600160801b8204811691600160c01b900416615b1b565b612830919061592f565b61283a9190615b1b565b6001600160401b03169050806000036128565760009250505090565b6128608183615b79565b9250505090565b61286f6138f4565b606880546001600160401b03909216600160401b0267ffffffffffffffff60401b19909216919091179055565b6073546001600160a01b031633146128c65760405162461bcd60e51b81526004016109a690615778565b62093a806001600160401b038216111561295a5760405162461bcd60e51b815260206004820152604960248201527f506f6c79676f6e5a6b45564d3a3a73657450656e64696e67537461746554696d60448201527f656f75743a20457863656564206d61782068616c74206167677265676174696f6064820152681b881d1a5b595bdd5d60ba1b608482015260a4016109a6565b60655460ff166129ef576072546001600160401b03600160801b9091048116908216106129ef5760405162461bcd60e51b815260206004820152603f60248201527f506f6c79676f6e5a6b45564d3a3a73657450656e64696e67537461746554696d60448201527f656f75743a204e65772074696d656f7574206d757374206265206c6f7765720060648201526084016109a6565b6072805467ffffffffffffffff60801b1916600160801b6001600160401b038416908102919091179091556040519081527fc4121f4e22c69632ebb7cf1f462be0511dc034f999b52013eddfb24aab765c7590602001610f15565b6073546001600160a01b03163314612a745760405162461bcd60e51b81526004016109a690615778565b62015180816001600160401b031610612b0e5760405162461bcd60e51b815260206004820152605060248201527f506f6c79676f6e5a6b45564d3a3a736574566572696679426174636854696d6560448201527f5461726765743a20736574566572696679426174636854696d6554617267657460648201526f20696e636f72726563742072616e676560801b608482015260a4016109a6565b6065805468ffffffffffffffff0019166101006001600160401b038416908102919091179091556040519081527f1b023231a1ab6b5d93992f168fb44498e1a7e64cef58daff6f1c216de6a68c2890602001610f15565b6073546001600160a01b03163314612b8f5760405162461bcd60e51b81526004016109a690615778565b607480546001600160a01b0319166001600160a01b0383161790556040517fa5b56b7906fd0a20e3f35120dd8343db1e12e037a6c90111c7e42885e82a1ce690610f15908390615194565b612be26138f4565b6122ca81613fc4565b612bf36138f4565b606f612bff8282615801565b5050565b6072546000906001600160401b031615612c4057506072546001600160401b03908116600090815260716020526040902054600160401b90041690565b506069546001600160401b031690565b6073546001600160a01b03163314612c7a5760405162461bcd60e51b81526004016109a690615778565b606e612c868282615801565b507f6b8f723a4c7a5335cafae8a598a0aa0301be1387c037dccc085b62add6448b2081604051610f159190614ec6565b60655460ff1615612cd95760405162461bcd60e51b81526004016109a69061595a565b8080612d3b5760405162461bcd60e51b815260206004820152603f6024820152600080516020615f1d83398151915260448201527f65733a204d75737420666f726365206174206c6561737420312062617463680060648201526084016109a6565b6103e8811115612dad5760405162461bcd60e51b81526020600482015260436024820152600080516020615f1d83398151915260448201527f65733a2043616e6e6f74207665726966792074686174206d616e79206261746360648201526268657360e81b608482015260a4016109a6565b6068546001600160401b03600160c01b8204811691612dd5918491600160801b900416615b8d565b1115612e315760405162461bcd60e51b81526020600482015260376024820152600080516020615f1d833981519152604482015276195cce88119bdc98d94818985d18da081a5b9d985b1a59604a1b60648201526084016109a6565b6068546001600160401b03600160401b820481166000818152606760205260408120549193600160801b9004909216915b84811015613076576000878783818110612e7e57612e7e6159c2565b9050602002810190612e909190615ba5565b612e9990615bbb565b905083612ea581615a7a565b82518051602091820120818501516040808701519051949950919450600093612ed19386939101615aa0565b60408051601f1981840301815291815281516020928301206001600160401b038916600090815260669093529120549091508114612f705760405162461bcd60e51b81526020600482015260426024820152600080516020615f1d83398151915260448201527f65733a20466f7263656420626174636865732064617461206d757374206d61746064820152610c6d60f31b608482015260a4016109a6565b6001600160401b038616600090815260666020526040812055612f94600189615b43565b840361302b5742620697808460400151612fae919061592f565b6001600160401b0316111561302b5760405162461bcd60e51b81526020600482015260496024820152600080516020615f1d83398151915260448201527f65733a20466f72636564206261746368206973206e6f7420696e2074696d656f6064820152681d5d081c195c9a5bd960ba1b608482015260a4016109a6565b848284602001514233604051602001613048959493929190615ac3565b604051602081830303815290604052805190602001209450505050808061306e90615b02565b915050612e62565b50613081848461592f565b606880546001600160401b034281166001600160401b03199092168217808455604080516060810182528781526020808201958652600160401b9384900485168284019081528589166000818152606790935284832093518455965160019390930180549151871686026001600160801b031990921693871693909317179091558554938916600160801b0267ffffffffffffffff60801b1993860293909316600160401b600160c01b031990941693909317919091179093559151929550917f648a61dd2438f072f5a1960939abd30f37aea80d2e94c9792ad142d3e0a490a49190a2505050505050565b6073546001600160a01b031633146131975760405162461bcd60e51b81526004016109a690615778565b607060009054906101000a90046001600160a01b03166001600160a01b031663dbc169766040518163ffffffff1660e01b8152600401600060405180830381600087803b1580156131e757600080fd5b505af11580156131fb573d6000803e3d6000fd5b505050506123d7614a5e565b61320f6138f4565b604080516060810182529384526001600160401b03928316602080860191825292841685830190815295841660009081526067909352912092518355516001909201805493518216600160401b026001600160801b03199094169290911691909117919091179055565b606a546001600160a01b031633146132a35760405162461bcd60e51b81526004016109a690615c36565b6132b489898989898989898961443c565b606980546001600160401b0319166001600160401b038881169182179092556000908152606d6020526040902085905560725416156132fe57607280546001600160801b03191690555b606c546040516333d6247d60e01b8152600481018790526001600160a01b03909116906333d6247d90602401600060405180830381600087803b15801561334457600080fd5b505af1158015613358573d6000803e3d6000fd5b5050607280546001600160c01b031661127560c71b179055505060405184815233906001600160401b038816907fcc1b5520188bf1dd3e63f98164b577c4d75c11a619ddea692112f0d1aec4cf729060200160405180910390a3505050505050505050565b60655460ff16156133e05760405162461bcd60e51b81526004016109a69061595a565b60006133eb60755490565b9050818111156134505760405162461bcd60e51b815260206004820152602a60248201527f506f6c79676f6e5a6b45564d3a3a666f72636542617463683a204e6f7420656e6044820152696f756768206d6174696360b01b60648201526084016109a6565b620493e08311156134c15760405162461bcd60e51b815260206004820152603560248201527f506f6c79676f6e5a6b45564d3a3a666f72636542617463683a205472616e73616044820152746374696f6e73206279746573206f766572666c6f7760581b60648201526084016109a6565b6065546134e090600160581b90046001600160a01b03163330846139c2565b606c5460408051633ed691ef60e01b815290516000926001600160a01b031691633ed691ef9160048083019260209291908290030181865afa15801561352a573d6000803e3d6000fd5b505050506040513d601f19601f8201168201806040525081019061354e91906156fb565b60688054919250600160c01b9091046001600160401b031690601861357283615a7a565b91906101000a8154816001600160401b0302191690836001600160401b031602179055505084846040516135a7929190615c93565b6040519081900381206135c09183904290602001615aa0565b60408051808303601f190181529181528151602092830120606854600160c01b90046001600160401b03166000908152606690935291205532330361366457606854604080518381523360208201526060918101829052600091810191909152600160c01b9091046001600160401b0316907ff94bb37db835f1ab585ee00041849a09b12cd081d77fa15ca070757619cbc9319060800160405180910390a26136c1565b606860189054906101000a90046001600160401b03166001600160401b03167ff94bb37db835f1ab585ee00041849a09b12cd081d77fa15ca070757619cbc931823388886040516136b89493929190615ca3565b60405180910390a25b5050505050565b606a546001600160a01b031633146136f25760405162461bcd60e51b81526004016109a690615c36565b6137028888888888888888613ad3565b606980546001600160401b0319166001600160401b038881169182179092556000908152606d60205260409020859055607254161561374c57607280546001600160801b03191690555b606c546040516333d6247d60e01b8152600481018790526001600160a01b03909116906333d6247d90602401600060405180830381600087803b15801561379257600080fd5b505af11580156137a6573d6000803e3d6000fd5b50506040518681523392506001600160401b03891691507f0c0ce073a7d7b5850c04ccc4b20ee7d3179d5f57d0ac44399565792c0f72fce790602001612181565b6073546001600160a01b031633146138115760405162461bcd60e51b81526004016109a690615778565b606a80546001600160a01b0319166001600160a01b0383161790556040517f61f8fec29495a3078e9271456f05fb0707fd4e41f7661865f80fc437d06681ca90610f15908390615194565b6138646138f4565b6001600160a01b0381166138c95760405162461bcd60e51b815260206004820152602660248201527f4f776e61626c653a206e6577206f776e657220697320746865207a65726f206160448201526564647265737360d01b60648201526084016109a6565b6122ca8161437a565b6138da6138f4565b6001600160401b03166000908152606d6020526040902055565b6033546001600160a01b031633146123d75760405162461bcd60e51b815260206004820181905260248201527f4f776e61626c653a2063616c6c6572206973206e6f7420746865206f776e657260448201526064016109a6565b600054610100900460ff166139b95760405162461bcd60e51b815260206004820152602b60248201527f496e697469616c697a61626c653a20636f6e7472616374206973206e6f74206960448201526a6e697469616c697a696e6760a81b60648201526084016109a6565b6123d73361437a565b6040516001600160a01b0380851660248301528316604482015260648101829052613a2d9085906323b872dd60e01b906084015b60408051601f198184030181529190526020810180516001600160e01b03166001600160e01b031990931692909217909152614b0b565b50505050565b6072546001600160401b03600160401b82048116911611156123d757607254600090613a7090600160401b90046001600160401b0316600161592f565b9050613a7b81611469565b156122ca57607254600090600290613a9d9084906001600160401b0316615b1b565b613aa79190615cea565b613ab1908361592f565b9050613abc81611469565b15613aca57612bff816141aa565b612bff826141aa565b600080613ade612c03565b90506001600160401b038a1615613c44576072546001600160401b03908116908b161115613b965760405162461bcd60e51b815260206004820152605960248201527f506f6c79676f6e5a6b45564d3a3a5f766572696679426174636865733a20706560448201527f6e64696e6753746174654e756d206d757374206265206c657373206f7220657160648201527875616c207468616e206c61737450656e64696e67537461746560381b608482015260a4016109a6565b6001600160401b03808b1660009081526071602052604090206002810154815490945090918b8116600160401b9092041614613c3e5760405162461bcd60e51b815260206004820152604d6024820152600080516020615edd83398151915260448201527f69744e756d4261746368206d757374206d61746368207468652070656e64696e60648201526c0ce40e6e8c2e8ca40c4c2e8c6d609b1b608482015260a4016109a6565b50613d6a565b6001600160401b0389166000908152606d6020526040902054915081613cce5760405162461bcd60e51b815260206004820152604460248201819052600080516020615edd833981519152908201527f69744e756d426174636820737461746520726f6f7420646f6573206e6f7420656064820152631e1a5cdd60e21b608482015260a4016109a6565b806001600160401b0316896001600160401b03161115613d6a5760405162461bcd60e51b815260206004820152605e6024820152600080516020615edd83398151915260448201527f69744e756d4261746368206d757374206265206c657373206f7220657175616c60648201527f207468616e2063757272656e744c617374566572696669656442617463680000608482015260a4016109a6565b806001600160401b0316886001600160401b031611613e125760405162461bcd60e51b815260206004820152605860248201527f506f6c79676f6e5a6b45564d3a3a5f766572696679426174636865733a20666960448201527f6e616c4e65774261746368206d75737420626520626967676572207468616e206064820152770c6eae4e4cadce898c2e6e8accae4d2ccd2cac884c2e8c6d60431b608482015260a4016109a6565b6000613e218a8a8a868b610f20565b90506000600080516020615f3d833981519152600283604051613e4491906156df565b602060405180830381855afa158015613e61573d6000803e3d6000fd5b5050506040513d601f19601f82011682018060405250810190613e8491906156fb565b613e8e919061572a565b606b546040805160208101825283815290516343753b4d60e01b81529293506001600160a01b03909116916343753b4d91613ed2918b918b918b9190600401615d10565b602060405180830381865afa158015613eef573d6000803e3d6000fd5b505050506040513d601f19601f82011682018060405250810190613f139190615d8a565b613f735760405162461bcd60e51b815260206004820152602b60248201527f506f6c79676f6e5a6b45564d3a3a5f766572696679426174636865733a20496e60448201526a3b30b634b210383937b7b360a91b60648201526084016109a6565b613fb633613f81858d615b1b565b6001600160401b0316613f9261276e565b613f9c9190615b5a565b606554600160581b90046001600160a01b03169190614be2565b505050505050505050505050565b6000613fce612c03565b905081600080613fde8484615b1b565b6001600160401b031690505b836001600160401b0316836001600160401b031614614090576001600160401b0380841660009081526067602052604090206065546001820154919261010090910481169161403a911642615b43565b111561407557600181015461405f90600160401b90046001600160401b031685615b1b565b614072906001600160401b031684615b8d565b92505b60010154600160401b90046001600160401b03169250613fea565b600061409c8383615b43565b9050828110156141165760006140b28285615b43565b9050600c81116140c257806140c5565b600c5b90506140d2816003615b5a565b6140dd90600a615e90565b6065546140f6908390600160481b900461ffff16615e90565b6075546141039190615b5a565b61410d9190615b79565b607555506141a2565b60006141228483615b43565b9050600c81116141325780614135565b600c5b90506000614144826003615b5a565b61414f90600a615e90565b606554614168908490600160481b900461ffff16615e90565b6075546141759190615b5a565b61417f9190615b79565b9050806075546075546141929190615b5a565b61419c9190615b79565b60755550505b505050505050565b6072546001600160401b03600160401b90910481169082161180156141de57506072546001600160401b0390811690821611155b6142505760405162461bcd60e51b815260206004820152603f60248201527f506f6c79676f6e5a6b45564d3a3a5f636f6e736f6c696461746550656e64696e60448201527f6753746174653a2070656e64696e6753746174654e756d20696e76616c69640060648201526084016109a6565b6001600160401b038181166000818152607160209081526040808320805460698054600160401b928390049098166001600160401b0319909816881790556002820154878652606d90945293829020929092556072805467ffffffffffffffff60401b19169390940292909217909255606c54600183015491516333d6247d60e01b815260048101929092529192916001600160a01b0316906333d6247d90602401600060405180830381600087803b15801561430c57600080fd5b505af1158015614320573d6000803e3d6000fd5b50505050826001600160401b0316816001600160401b03167f328d3c6c0fd6f1be0515e422f2d87e59f25922cbc2233568515a0c4bc3f8510e846002015460405161436d91815260200190565b60405180910390a3505050565b603380546001600160a01b038381166001600160a01b0319831681179093556040519116919082907f8be0079c531659141344cd1fd0a4f28419497f9722a3daafe3b4186f6b6457e090600090a35050565b607060009054906101000a90046001600160a01b03166001600160a01b0316632072f6c56040518163ffffffff1660e01b8152600401600060405180830381600087803b15801561441c57600080fd5b505af1158015614430573d6000803e3d6000fd5b505050506123d7614c12565b60006001600160401b038a16156145ac576072546001600160401b03908116908b1611156144f45760405162461bcd60e51b81526020600482015260656024820152600080516020615efd83398151915260448201527f696e6753746174653a2070656e64696e6753746174654e756d206d757374206260648201527f65206c657373206f7220657175616c207468616e206c61737450656e64696e67608482015264537461746560d81b60a482015260c4016109a6565b506001600160401b03808a1660009081526071602052604090206002810154815490928a8116600160401b90920416146145a65760405162461bcd60e51b81526020600482015260596024820152600080516020615efd83398151915260448201527f696e6753746174653a20696e69744e756d4261746368206d757374206d6174636064820152780d040e8d0ca40e0cadcc8d2dcce40e6e8c2e8ca40c4c2e8c6d603b1b608482015260a4016109a6565b506146e5565b506001600160401b0387166000908152606d6020526040902054806146405760405162461bcd60e51b81526020600482015260506024820152600080516020615efd83398151915260448201527f696e6753746174653a20696e69744e756d426174636820737461746520726f6f60648201526f1d08191bd95cc81b9bdd08195e1a5cdd60821b608482015260a4016109a6565b6069546001600160401b0390811690891611156146e55760405162461bcd60e51b81526020600482015260636024820152600080516020615efd83398151915260448201527f696e6753746174653a20696e69744e756d4261746368206d757374206265206c60648201527f657373206f7220657175616c207468616e206c617374566572696669656442616084820152620e8c6d60eb1b60a482015260c4016109a6565b6072546001600160401b03908116908a16118015906147155750896001600160401b0316896001600160401b0316115b801561473657506072546001600160401b03600160401b9091048116908a16115b6147a75760405162461bcd60e51b81526020600482015260486024820152600080516020615efd83398151915260448201527f696e6753746174653a2066696e616c50656e64696e6753746174654e756d20696064820152671b98dbdc9c9958dd60c21b608482015260a4016109a6565b6001600160401b03898116600090815260716020526040902054600160401b900481169088161461485e5760405162461bcd60e51b81526020600482015260616024820152600080516020615efd83398151915260448201527f696e6753746174653a2066696e616c4e65774261746368206d7573742062652060648201527f657175616c20746f2063757272656e744c6173745665726966696564426174636084820152600d60fb1b60a482015260c4016109a6565b600061486d898989858a610f20565b90506000600080516020615f3d83398151915260028360405161489091906156df565b602060405180830381855afa1580156148ad573d6000803e3d6000fd5b5050506040513d601f19601f820116820180604052508101906148d091906156fb565b6148da919061572a565b606b546040805160208101825283815290516343753b4d60e01b81529293506001600160a01b03909116916343753b4d9161491e918a918a918a9190600401615d10565b602060405180830381865afa15801561493b573d6000803e3d6000fd5b505050506040513d601f19601f8201168201806040525081019061495f9190615d8a565b6149b95760405162461bcd60e51b81526020600482015260376024820152600080516020615efd83398151915260448201527634b733a9ba30ba329d1024b73b30b634b210383937b7b360491b60648201526084016109a6565b6001600160401b038b16600090815260716020526040902060020154879003613fb65760405162461bcd60e51b815260206004820152605b6024820152600080516020615efd83398151915260448201527f696e6753746174653a2053746f72656420726f6f74206d75737420626520646960648201527f66666572656e74207468616e206e657720737461746520726f6f740000000000608482015260a4016109a6565b60655460ff16614ad65760405162461bcd60e51b815260206004820152603b60248201527f456d657267656e63794d616e616765723a3a6966456d657267656e637953746160448201527f74653a206f6e6c7920696620656d657267656e6379207374617465000000000060648201526084016109a6565b6065805460ff191690556040517f1e5e34eea33501aecf2ebec9fe0e884a40804275ea7fe10b2ba084c8374308b390600090a1565b6000614b60826040518060400160405280602081526020017f5361666545524332303a206c6f772d6c6576656c2063616c6c206661696c6564815250856001600160a01b0316614c6d9092919063ffffffff16565b805190915015614bdd5780806020019051810190614b7e9190615d8a565b614bdd5760405162461bcd60e51b815260206004820152602a60248201527f5361666545524332303a204552433230206f7065726174696f6e20646964206e6044820152691bdd081cdd58d8d9595960b21b60648201526084016109a6565b505050565b6040516001600160a01b038316602482015260448101829052614bdd90849063a9059cbb60e01b906064016139f6565b60655460ff1615614c355760405162461bcd60e51b81526004016109a69061595a565b6065805460ff191660011790556040517f2261efe5aef6fedc1fd1550b25facc9181745623049c7901287030b9ad1a549790600090a1565b6060614c7c8484600085614c84565b949350505050565b606082471015614ce55760405162461bcd60e51b815260206004820152602660248201527f416464726573733a20696e73756666696369656e742062616c616e636520666f6044820152651c8818d85b1b60d21b60648201526084016109a6565b600080866001600160a01b03168587604051614d0191906156df565b60006040518083038185875af1925050503d8060008114614d3e576040519150601f19603f3d011682016040523d82523d6000602084013e614d43565b606091505b5091509150614d5487838387614d5f565b979650505050505050565b60608315614dce578251600003614dc7576001600160a01b0385163b614dc75760405162461bcd60e51b815260206004820152601d60248201527f416464726573733a2063616c6c20746f206e6f6e2d636f6e747261637400000060448201526064016109a6565b5081614c7c565b614c7c8383815115614de35781518083602001fd5b8060405162461bcd60e51b81526004016109a69190614ec6565b80356001600160401b0381168114614e1457600080fd5b919050565b600080600080600060a08688031215614e3157600080fd5b614e3a86614dfd565b9450614e4860208701614dfd565b9350614e5660408701614dfd565b94979396509394606081013594506080013592915050565b60005b83811015614e89578181015183820152602001614e71565b83811115613a2d5750506000910152565b60008151808452614eb2816020860160208601614e6e565b601f01601f19169290920160200192915050565b602081526000614ed96020830184614e9a565b9392505050565b8060408101831015614ef157600080fd5b92915050565b8060808101831015614ef157600080fd5b6000806000806000806000806101a0898b031215614f2557600080fd5b614f2e89614dfd565b9750614f3c60208a01614dfd565b9650614f4a60408a01614dfd565b95506060890135945060808901359350614f678a60a08b01614ee0565b9250614f768a60e08b01614ef7565b9150614f868a6101608b01614ee0565b90509295985092959890939650565b600060208284031215614fa757600080fd5b813561ffff81168114614ed957600080fd5b600080600080600060a08688031215614fd157600080fd5b614fda86614dfd565b9450614fe860208701614dfd565b94979496505050506040830135926060810135926080909101359150565b6001600160a01b03811681146122ca57600080fd5b634e487b7160e01b600052604160045260246000fd5b600082601f83011261504257600080fd5b81356001600160401b038082111561505c5761505c61501b565b604051601f8301601f19908116603f011681019082821181831017156150845761508461501b565b8160405283815286602085880101111561509d57600080fd5b836020870160208301376000602085830101528094505050505092915050565b600080600080600080600080888a036101a08112156150db57600080fd5b89356150e681615006565b985060208a01356150f681615006565b975060408a013561510681615006565b965060608a013561511681615006565b955060c0607f198201121561512a57600080fd5b5060808901935061014089013592506101608901356001600160401b038082111561515457600080fd5b6151608c838d01615031565b93506101808b013591508082111561517757600080fd5b506151848b828c01615031565b9150509295985092959890939650565b6001600160a01b0391909116815260200190565b6000602082840312156151ba57600080fd5b614ed982614dfd565b60008083601f8401126151d557600080fd5b5081356001600160401b038111156151ec57600080fd5b6020830191508360208260051b850101111561520757600080fd5b9250929050565b6000806020838503121561522157600080fd5b82356001600160401b0381111561523757600080fd5b615243858286016151c3565b90969095509350505050565b60006020828403121561526157600080fd5b8135614ed981615006565b600080600080600060a0868803121561528457600080fd5b8535945060208601356001600160401b038111156152a157600080fd5b6152ad88828901615031565b945050604086013592506152c360608701614dfd565b915060808601356152d381615006565b809150509295509295909350565b60008060008060008060008060006101c08a8c03121561530057600080fd5b6153098a614dfd565b985061531760208b01614dfd565b975061532560408b01614dfd565b965061533360608b01614dfd565b955060808a0135945060a08a013593506153508b60c08c01614ee0565b92506153608b6101008c01614ef7565b91506153708b6101808c01614ee0565b90509295985092959850929598565b60006020828403121561539157600080fd5b5035919050565b6000602082840312156153aa57600080fd5b81356001600160401b038111156153c057600080fd5b614c7c84828501615031565b600080600080608085870312156153e257600080fd5b6153eb85614dfd565b93506020850135925061540060408601614dfd565b915061540e60608601614dfd565b905092959194509250565b60008060006040848603121561542e57600080fd5b83356001600160401b038082111561544557600080fd5b818601915086601f83011261545957600080fd5b81358181111561546857600080fd5b87602082850101111561547a57600080fd5b6020928301989097509590910135949350505050565b600080604083850312156154a357600080fd5b823591506154b360208401614dfd565b90509250929050565b60208082526058908201527f506f6c79676f6e5a6b45564d3a3a766572696679426174636865733a2070656e60408201527f64696e6753746174654e756d206d757374206265206c657373206f7220657175606082015277616c207468616e206c61737450656e64696e67537461746560401b608082015260a00190565b6020808252604c90820152600080516020615e9d83398151915260408201527f744e756d4261746368206d757374206d61746368207468652070656e64696e6760608201526b040e6e8c2e8ca40c4c2e8c6d60a31b608082015260a00190565b6020808252604390820152600080516020615e9d83398151915260408201527f744e756d426174636820737461746520726f6f7420646f6573206e6f742065786060820152621a5cdd60ea1b608082015260a00190565b6020808252605d90820152600080516020615e9d83398151915260408201527f744e756d4261746368206d757374206265206c657373206f7220657175616c2060608201527f7468616e2063757272656e744c61737456657269666965644261746368000000608082015260a00190565b60208082526057908201527f506f6c79676f6e5a6b45564d3a3a766572696679426174636865733a2066696e60408201527f616c4e65774261746368206d75737420626520626967676572207468616e20636060820152760eae4e4cadce898c2e6e8accae4d2ccd2cac884c2e8c6d604b1b608082015260a00190565b600082516156f1818460208701614e6e565b9190910192915050565b60006020828403121561570d57600080fd5b5051919050565b634e487b7160e01b600052601260045260246000fd5b60008261573957615739615714565b500690565b600181811c9082168061575257607f821691505b60208210810361577257634e487b7160e01b600052602260045260246000fd5b50919050565b60208082526023908201527f506f6c79676f6e5a6b45564d3a3a6f6e6c7941646d696e3a204f6e6c7920616460408201526236b4b760e91b606082015260800190565b601f821115614bdd57600081815260208120601f850160051c810160208610156157e25750805b601f850160051c820191505b818110156141a2578281556001016157ee565b81516001600160401b0381111561581a5761581a61501b565b61582e81615828845461573e565b846157bb565b602080601f831160018114615863576000841561584b5750858301515b600019600386901b1c1916600185901b1785556141a2565b600085815260208120601f198616915b8281101561589257888601518255948401946001909101908401615873565b50858210156158b05787850151600019600388901b60f8161c191681555b5050505050600190811b01905550565b60208082526039908201527f506f6c79676f6e5a6b45564d3a3a696e697469616c697a653a20457863656564604082015278081a185b1d081859d9dc9959d85d1a5bdb881d1a5b595bdd5d603a1b606082015260800190565b634e487b7160e01b600052601160045260246000fd5b60006001600160401b0380831681851680830382111561595157615951615919565b01949350505050565b60208082526042908201527f456d657267656e63794d616e616765723a3a69664e6f74456d657267656e637960408201527f53746174653a206f6e6c79206966206e6f7420656d657267656e637920737461606082015261746560f01b608082015260a00190565b634e487b7160e01b600052603260045260246000fd5b60008235607e198336030181126156f157600080fd5b600060808236031215615a0057600080fd5b604051608081016001600160401b038282108183111715615a2357615a2361501b565b816040528435915080821115615a3857600080fd5b50615a4536828601615031565b82525060208301356020820152615a5e60408401614dfd565b6040820152615a6f60608401614dfd565b606082015292915050565b60006001600160401b03808316818103615a9657615a96615919565b6001019392505050565b928352602083019190915260c01b6001600160c01b031916604082015260480190565b9485526020850193909352604084019190915260c01b6001600160c01b0319166060808401919091521b6001600160601b0319166068820152607c0190565b600060018201615b1457615b14615919565b5060010190565b60006001600160401b0383811690831681811015615b3b57615b3b615919565b039392505050565b600082821015615b5557615b55615919565b500390565b6000816000190483118215151615615b7457615b74615919565b500290565b600082615b8857615b88615714565b500490565b60008219821115615ba057615ba0615919565b500190565b60008235605e198336030181126156f157600080fd5b600060608236031215615bcd57600080fd5b604051606081016001600160401b038282108183111715615bf057615bf061501b565b816040528435915080821115615c0557600080fd5b50615c1236828601615031565b82525060208301356020820152615c2b60408401614dfd565b604082015292915050565b6020808252603c908201527f506f6c79676f6e5a6b45564d3a3a6f6e6c79547275737465644167677265676160408201527f746f723a204f6e6c7920747275737465642061676772656761746f7200000000606082015260800190565b8183823760009101908152919050565b8481526001600160a01b03841660208201526060604082018190528101829052818360808301376000818301608090810191909152601f909201601f191601019392505050565b60006001600160401b0380841680615d0457615d04615714565b92169190910492915050565b61012081016040808784376000838201818152879190815b6002811015615d4857848483379084018281529284019290600101615d28565b5050828760c0870137610100850181815286935091505b6001811015615d7e578251825260209283019290910190600101615d5f565b50505095945050505050565b600060208284031215615d9c57600080fd5b81518015158114614ed957600080fd5b600181815b80851115615de7578160001904821115615dcd57615dcd615919565b80851615615dda57918102915b93841c9390800290615db1565b509250929050565b600082615dfe57506001614ef1565b81615e0b57506000614ef1565b8160018114615e215760028114615e2b57615e47565b6001915050614ef1565b60ff841115615e3c57615e3c615919565b50506001821b614ef1565b5060208310610133831016604e8410600b8410161715615e6a575081810a614ef1565b615e748383615dac565b8060001904821115615e8857615e88615919565b029392505050565b6000614ed98383615def56fe506f6c79676f6e5a6b45564d3a3a766572696679426174636865733a20696e69506f6c79676f6e5a6b45564d3a3a6163746976617465456d657267656e637953506f6c79676f6e5a6b45564d3a3a5f766572696679426174636865733a20696e506f6c79676f6e5a6b45564d3a3a5f70726f766544697374696e637450656e64506f6c79676f6e5a6b45564d3a3a73657175656e6365466f726365426174636830644e72e131a029b85045b68181585d2833e84879b9709143e1f593f0000001506f6c79676f6e5a6b45564d3a3a73657175656e6365426174636865733a2046a26469706673582212206c5ecf65f224aa6bd522579bbd77de7c00feffee123fc597d7630b38e7c1869464736f6c634300080f0033",
  "linkReferences": {},
  "deployedLinkReferences": {}
}