{
  "_format": "hh-sol-artifact-1",
  "contractName": "PolygonDataCommittee",
  "sourceName": "contracts/v2/consensus/validium/PolygonDataCommittee.sol",
  "abi": [
    {
      "inputs": [],
      "stateMutability": "nonpayable",
      "type": "constructor"
    },
    {
      "inputs": [],
      "name": "CommitteeAddressDoesNotExist",
      "type": "error"
    },
    {
      "inputs": [],
      "name": "EmptyURLNotAllowed",
      "type": "error"
    },
    {
      "inputs": [],
      "name": "TooManyRequiredSignatures",
      "type": "error"
    },
    {
      "inputs": [],
      "name": "UnexpectedAddrsAndSignaturesSize",
      "type": "error"
    },
    {
      "inputs": [],
      "name": "UnexpectedAddrsBytesLength",
      "type": "error"
    },
    {
      "inputs": [],
      "name": "UnexpectedCommitteeHash",
      "type": "error"
    },
    {
      "inputs": [],
      "name": "WrongAddrOrder",
      "type": "error"
    },
    {
      "anonymous": false,
      "inputs": [
        {
          "indexed": false,
          "internalType": "bytes32",
          "name": "committeeHash",
          "type": "bytes32"
        }
      ],
      "name": "CommitteeUpdated",
      "type": "event"
    },
    {
      "anonymous": false,
      "inputs": [
        {
          "indexed": false,
          "internalType": "uint8",
          "name": "version",
          "type": "uint8"
        }
      ],
      "name": "Initialized",
      "type": "event"
    },
    {
      "anonymous": false,
      "inputs": [
        {
          "indexed": true,
          "internalType": "address",
          "name": "previousOwner",
          "type": "address"
        },
        {
          "indexed": true,
          "internalType": "address",
          "name": "newOwner",
          "type": "address"
        }
      ],
      "name": "OwnershipTransferred",
      "type": "event"
    },
    {
      "inputs": [],
      "name": "committeeHash",
      "outputs": [
        {
          "internalType": "bytes32",
          "name": "",
          "type": "bytes32"
        }
      ],
      "stateMutability": "view",
      "type": "function"
    },
    {
      "inputs": [],
      "name": "getAmountOfMembers",
      "outputs": [
        {
          "internalType": "uint256",
          "name": "",
          "type": "uint256"
        }
      ],
      "stateMutability": "view",
      "type": "function"
    },
    {
      "inputs": [],
      "name": "getProcotolName",
      "outputs": [
        {
          "internalType": "string",
          "name": "",
          "type": "string"
        }
      ],
      "stateMutability": "pure",
      "type": "function"
    },
    {
      "inputs": [],
      "name": "initialize",
      "outputs": [],
      "stateMutability": "nonpayable",
      "type": "function"
    },
    {
      "inputs": [
        {
          "internalType": "uint256",
          "name": "",
          "type": "uint256"
        }
      ],
      "name": "members",
      "outputs": [
        {
          "internalType": "string",
          "name": "url",
          "type": "string"
        },
        {
          "internalType": "address",
          "name": "addr",
          "type": "address"
        }
      ],
      "stateMutability": "view",
      "type": "function"
    },
    {
      "inputs": [],
      "name": "owner",
      "outputs": [
        {
          "internalType": "address",
          "name": "",
          "type": "address"
        }
      ],
      "stateMutability": "view",
      "type": "function"
    },
    {
      "inputs": [],
      "name": "renounceOwnership",
      "outputs": [],
      "stateMutability": "nonpayable",
      "type": "function"
    },
    {
      "inputs": [],
      "name": "requiredAmountOfSignatures",
      "outputs": [
        {
          "internalType": "uint256",
          "name": "",
          "type": "uint256"
        }
      ],
      "stateMutability": "view",
      "type": "function"
    },
    {
      "inputs": [
        {
          "internalType": "uint256",
          "name": "_requiredAmountOfSignatures",
          "type": "uint256"
        },
        {
          "internalType": "string[]",
          "name": "urls",
          "type": "string[]"
        },
        {
          "internalType": "bytes",
          "name": "addrsBytes",
          "type": "bytes"
        }
      ],
      "name": "setupCommittee",
      "outputs": [],
      "stateMutability": "nonpayable",
      "type": "function"
    },
    {
      "inputs": [
        {
          "internalType": "address",
          "name": "newOwner",
          "type": "address"
        }
      ],
      "name": "transferOwnership",
      "outputs": [],
      "stateMutability": "nonpayable",
      "type": "function"
    },
    {
      "inputs": [
        {
          "internalType": "bytes32",
          "name": "signedHash",
          "type": "bytes32"
        },
        {
          "internalType": "bytes",
          "name": "signaturesAndAddrs",
          "type": "bytes"
        }
      ],
      "name": "verifyMessage",
      "outputs": [],
      "stateMutability": "view",
      "type": "function"
    }
  ],
  "bytecode": "0x608060405234801561000f575f80fd5b5061001861001d565b6100da565b5f54610100900460ff16156100885760405162461bcd60e51b815260206004820152602760248201527f496e697469616c697a61626c653a20636f6e747261637420697320696e697469604482015266616c697a696e6760c81b606482015260840160405180910390fd5b5f5460ff90811610156100d8575f805460ff191660ff9081179091556040519081527f7f26b83ff96e1f2b6a682f133852f6798a09c465da95921460cefb38474024989060200160405180910390a15b565b6115d7806100e75f395ff3fe608060405234801561000f575f80fd5b50600436106100c4575f3560e01c8063715018a61161007d578063dce1e2b611610058578063dce1e2b614610172578063e4f171201461017a578063f2fde38b146101b9575f80fd5b8063715018a61461013a5780638129fc1c146101425780638da5cb5b1461014a575f80fd5b80635daf08ca116100ad5780635daf08ca146100f0578063609d45441461011a5780636beedd3914610131575f80fd5b8063078fba2a146100c85780633b51be4b146100dd575b5f80fd5b6100db6100d6366004610fab565b6101cc565b005b6100db6100eb36600461104d565b6104c8565b6101036100fe366004611095565b61070a565b60405161011192919061110d565b60405180910390f35b61012360665481565b604051908152602001610111565b61012360655481565b6100db6107d5565b6100db6107e8565b60335460405173ffffffffffffffffffffffffffffffffffffffff9091168152602001610111565b606754610123565b604080518082018252601981527f44617461417661696c6162696c697479436f6d6d697474656500000000000000602082015290516101119190611144565b6100db6101c736600461115d565b610979565b6101d4610a2d565b828581101561020f576040517f2e7dcd6e00000000000000000000000000000000000000000000000000000000815260040160405180910390fd5b61021a6014826111bd565b8214610252576040517f2ab6a12900000000000000000000000000000000000000000000000000000000815260040160405180910390fd5b61025d60675f610ec3565b5f805b8281101561046c575f6102746014836111bd565b90505f8682876102856014836111d4565b92610292939291906111e7565b61029b9161120e565b60601c90508888848181106102b2576102b2611256565b90506020028101906102c49190611283565b90505f036102fe576040517fb54b70e400000000000000000000000000000000000000000000000000000000815260040160405180910390fd5b8073ffffffffffffffffffffffffffffffffffffffff168473ffffffffffffffffffffffffffffffffffffffff1610610363576040517fd53cfbe000000000000000000000000000000000000000000000000000000000815260040160405180910390fd5b606760405180604001604052808b8b8781811061038257610382611256565b90506020028101906103949190611283565b8080601f0160208091040260200160405190810160405280939291908181526020018383808284375f92018290525093855250505073ffffffffffffffffffffffffffffffffffffffff8516602092830152835460018101855593815220815191926002020190819061040790826113b0565b5060209190910151600190910180547fffffffffffffffffffffffff00000000000000000000000000000000000000001673ffffffffffffffffffffffffffffffffffffffff9092169190911790559250819050610464816114c8565b915050610260565b50838360405161047d9291906114ff565b6040519081900381206066819055606589905581527f831403fd381b3e6ac875d912ec2eee0e0203d0d29f7b3e0c96fc8f582d6db6579060200160405180910390a150505050505050565b6065545f6104d78260416111bd565b9050808310806104fb575060146104ee828561150e565b6104f8919061154e565b15155b15610532576040517f6b8eec4600000000000000000000000000000000000000000000000000000000815260040160405180910390fd5b606654610541848381886111e7565b60405161054f9291906114ff565b60405180910390201461058e576040517f6b156b2800000000000000000000000000000000000000000000000000000000815260040160405180910390fd5b5f80601461059c848761150e565b6105a69190611561565b90505f5b84811015610700575f6105be6041836111bd565b90505f6106198a8a848b6105d36041836111d4565b926105e0939291906111e7565b8080601f0160208091040260200160405190810160405280939291908181526020018383808284375f92019190915250610aae92505050565b90505f855b858110156106b2575f6106326014836111bd565b61063c908a6111d4565b90505f8c828d61064d6014836111d4565b9261065a939291906111e7565b6106639161120e565b60601c905073ffffffffffffffffffffffffffffffffffffffff8516810361069d576106908360016111d4565b98506001935050506106b2565b505080806106aa906114c8565b91505061061e565b50806106ea576040517fe12afaf500000000000000000000000000000000000000000000000000000000815260040160405180910390fd5b50505080806106f8906114c8565b9150506105aa565b5050505050505050565b60678181548110610719575f80fd5b905f5260205f2090600202015f91509050805f01805461073890611311565b80601f016020809104026020016040519081016040528092919081815260200182805461076490611311565b80156107af5780601f10610786576101008083540402835291602001916107af565b820191905f5260205f20905b81548152906001019060200180831161079257829003601f168201915b5050506001909301549192505073ffffffffffffffffffffffffffffffffffffffff1682565b6107dd610a2d565b6107e65f610ad2565b565b5f54610100900460ff161580801561080657505f54600160ff909116105b8061081f5750303b15801561081f57505f5460ff166001145b6108b0576040517f08c379a000000000000000000000000000000000000000000000000000000000815260206004820152602e60248201527f496e697469616c697a61626c653a20636f6e747261637420697320616c72656160448201527f647920696e697469616c697a656400000000000000000000000000000000000060648201526084015b60405180910390fd5b5f80547fffffffffffffffffffffffffffffffffffffffffffffffffffffffffffffff00166001179055801561090c575f80547fffffffffffffffffffffffffffffffffffffffffffffffffffffffffffff00ff166101001790555b610914610b48565b8015610976575f80547fffffffffffffffffffffffffffffffffffffffffffffffffffffffffffff00ff169055604051600181527f7f26b83ff96e1f2b6a682f133852f6798a09c465da95921460cefb38474024989060200160405180910390a15b50565b610981610a2d565b73ffffffffffffffffffffffffffffffffffffffff8116610a24576040517f08c379a000000000000000000000000000000000000000000000000000000000815260206004820152602660248201527f4f776e61626c653a206e6577206f776e657220697320746865207a65726f206160448201527f646472657373000000000000000000000000000000000000000000000000000060648201526084016108a7565b61097681610ad2565b60335473ffffffffffffffffffffffffffffffffffffffff1633146107e6576040517f08c379a000000000000000000000000000000000000000000000000000000000815260206004820181905260248201527f4f776e61626c653a2063616c6c6572206973206e6f7420746865206f776e657260448201526064016108a7565b5f805f610abb8585610be7565b91509150610ac881610c29565b5090505b92915050565b6033805473ffffffffffffffffffffffffffffffffffffffff8381167fffffffffffffffffffffffff0000000000000000000000000000000000000000831681179093556040519116919082907f8be0079c531659141344cd1fd0a4f28419497f9722a3daafe3b4186f6b6457e0905f90a35050565b5f54610100900460ff16610bde576040517f08c379a000000000000000000000000000000000000000000000000000000000815260206004820152602b60248201527f496e697469616c697a61626c653a20636f6e7472616374206973206e6f74206960448201527f6e697469616c697a696e6700000000000000000000000000000000000000000060648201526084016108a7565b6107e633610ad2565b5f808251604103610c1b576020830151604084015160608501515f1a610c0f87828585610ddb565b94509450505050610c22565b505f905060025b9250929050565b5f816004811115610c3c57610c3c611574565b03610c445750565b6001816004811115610c5857610c58611574565b03610cbf576040517f08c379a000000000000000000000000000000000000000000000000000000000815260206004820152601860248201527f45434453413a20696e76616c6964207369676e6174757265000000000000000060448201526064016108a7565b6002816004811115610cd357610cd3611574565b03610d3a576040517f08c379a000000000000000000000000000000000000000000000000000000000815260206004820152601f60248201527f45434453413a20696e76616c6964207369676e6174757265206c656e6774680060448201526064016108a7565b6003816004811115610d4e57610d4e611574565b03610976576040517f08c379a000000000000000000000000000000000000000000000000000000000815260206004820152602260248201527f45434453413a20696e76616c6964207369676e6174757265202773272076616c60448201527f756500000000000000000000000000000000000000000000000000000000000060648201526084016108a7565b5f807f7fffffffffffffffffffffffffffffff5d576e7357a4501ddfe92f46681b20a0831115610e1057505f90506003610eba565b604080515f8082526020820180845289905260ff881692820192909252606081018690526080810185905260019060a0016020604051602081039080840390855afa158015610e61573d5f803e3d5ffd5b50506040517fffffffffffffffffffffffffffffffffffffffffffffffffffffffffffffffe0015191505073ffffffffffffffffffffffffffffffffffffffff8116610eb4575f60019250925050610eba565b91505f90505b94509492505050565b5080545f8255600202905f5260205f209081019061097691905b80821115610f23575f610ef08282610f27565b506001810180547fffffffffffffffffffffffff0000000000000000000000000000000000000000169055600201610edd565b5090565b508054610f3390611311565b5f825580601f10610f42575050565b601f0160209004905f5260205f209081019061097691905b80821115610f23575f8155600101610f5a565b5f8083601f840112610f7d575f80fd5b50813567ffffffffffffffff811115610f94575f80fd5b602083019150836020828501011115610c22575f80fd5b5f805f805f60608688031215610fbf575f80fd5b85359450602086013567ffffffffffffffff80821115610fdd575f80fd5b818801915088601f830112610ff0575f80fd5b813581811115610ffe575f80fd5b8960208260051b8501011115611012575f80fd5b60208301965080955050604088013591508082111561102f575f80fd5b5061103c88828901610f6d565b969995985093965092949392505050565b5f805f6040848603121561105f575f80fd5b83359250602084013567ffffffffffffffff81111561107c575f80fd5b61108886828701610f6d565b9497909650939450505050565b5f602082840312156110a5575f80fd5b5035919050565b5f81518084525f5b818110156110d0576020818501810151868301820152016110b4565b505f6020828601015260207fffffffffffffffffffffffffffffffffffffffffffffffffffffffffffffffe0601f83011685010191505092915050565b604081525f61111f60408301856110ac565b905073ffffffffffffffffffffffffffffffffffffffff831660208301529392505050565b602081525f61115660208301846110ac565b9392505050565b5f6020828403121561116d575f80fd5b813573ffffffffffffffffffffffffffffffffffffffff81168114611156575f80fd5b7f4e487b71000000000000000000000000000000000000000000000000000000005f52601160045260245ffd5b8082028115828204841417610acc57610acc611190565b80820180821115610acc57610acc611190565b5f80858511156111f5575f80fd5b83861115611201575f80fd5b5050820193919092039150565b7fffffffffffffffffffffffffffffffffffffffff000000000000000000000000813581811691601485101561124e5780818660140360031b1b83161692505b505092915050565b7f4e487b71000000000000000000000000000000000000000000000000000000005f52603260045260245ffd5b5f8083357fffffffffffffffffffffffffffffffffffffffffffffffffffffffffffffffe18436030181126112b6575f80fd5b83018035915067ffffffffffffffff8211156112d0575f80fd5b602001915036819003821315610c22575f80fd5b7f4e487b71000000000000000000000000000000000000000000000000000000005f52604160045260245ffd5b600181811c9082168061132557607f821691505b60208210810361135c577f4e487b71000000000000000000000000000000000000000000000000000000005f52602260045260245ffd5b50919050565b601f8211156113ab575f81815260208120601f850160051c810160208610156113885750805b601f850160051c820191505b818110156113a757828155600101611394565b5050505b505050565b815167ffffffffffffffff8111156113ca576113ca6112e4565b6113de816113d88454611311565b84611362565b602080601f831160018114611430575f84156113fa5750858301515b7fffffffffffffffffffffffffffffffffffffffffffffffffffffffffffffffff600386901b1c1916600185901b1785556113a7565b5f858152602081207fffffffffffffffffffffffffffffffffffffffffffffffffffffffffffffffe08616915b8281101561147c5788860151825594840194600190910190840161145d565b50858210156114b857878501517fffffffffffffffffffffffffffffffffffffffffffffffffffffffffffffffff600388901b60f8161c191681555b5050505050600190811b01905550565b5f7fffffffffffffffffffffffffffffffffffffffffffffffffffffffffffffffff82036114f8576114f8611190565b5060010190565b818382375f9101908152919050565b81810381811115610acc57610acc611190565b7f4e487b71000000000000000000000000000000000000000000000000000000005f52601260045260245ffd5b5f8261155c5761155c611521565b500690565b5f8261156f5761156f611521565b500490565b7f4e487b71000000000000000000000000000000000000000000000000000000005f52602160045260245ffdfea2646970667358221220c5a31942a7d3cb96f5b9df10b4a4ec6779e0daf93e3bcdcf92b7684fbc5585cf64736f6c63430008140033",
  "linkReferences": {},
  "deployedLinkReferences": {}
}