{
  "_format": "hh-sol-artifact-1",
  "contractName": "PolygonZkEVMEtrog",
  "sourceName": "contracts/v2/consensus/zkEVM/PolygonZkEVMEtrog.sol",
  "abi": [
    {
      "inputs": [
        {
          "internalType": "contract IPolygonZkEVMGlobalExitRootV2",
          "name": "_globalExitRootManager",
          "type": "address"
        },
        {
          "internalType": "contract IERC20Upgradeable",
          "name": "_pol",
          "type": "address"
        },
        {
          "internalType": "contract IPolygonZkEVMBridgeV2",
          "name": "_bridgeAddress",
          "type": "address"
        },
        {
          "internalType": "contract PolygonRollupManager",
          "name": "_rollupManager",
          "type": "address"
        }
      ],
      "stateMutability": "nonpayable",
      "type": "constructor"
    },
    {
      "inputs": [],
      "name": "BatchAlreadyVerified",
      "type": "error"
    },
    {
      "inputs": [],
      "name": "BatchNotSequencedOrNotSequenceEnd",
      "type": "error"
    },
    {
      "inputs": [],
      "name": "ExceedMaxVerifyBatches",
      "type": "error"
    },
    {
      "inputs": [],
      "name": "FinalNumBatchBelowLastVerifiedBatch",
      "type": "error"
    },
    {
      "inputs": [],
      "name": "FinalNumBatchDoesNotMatchPendingState",
      "type": "error"
    },
    {
      "inputs": [],
      "name": "FinalPendingStateNumInvalid",
      "type": "error"
    },
    {
      "inputs": [],
      "name": "ForceBatchNotAllowed",
      "type": "error"
    },
    {
      "inputs": [],
      "name": "ForceBatchTimeoutNotExpired",
      "type": "error"
    },
    {
      "inputs": [],
      "name": "ForceBatchesAlreadyActive",
      "type": "error"
    },
    {
      "inputs": [],
      "name": "ForceBatchesDecentralized",
      "type": "error"
    },
    {
      "inputs": [],
      "name": "ForceBatchesNotAllowedOnEmergencyState",
      "type": "error"
    },
    {
      "inputs": [],
      "name": "ForceBatchesOverflow",
      "type": "error"
    },
    {
      "inputs": [],
      "name": "ForcedDataDoesNotMatch",
      "type": "error"
    },
    {
      "inputs": [],
      "name": "GasTokenNetworkMustBeZeroOnEther",
      "type": "error"
    },
    {
      "inputs": [],
      "name": "GlobalExitRootNotExist",
      "type": "error"
    },
    {
      "inputs": [],
      "name": "HaltTimeoutNotExpired",
      "type": "error"
    },
    {
      "inputs": [],
      "name": "HaltTimeoutNotExpiredAfterEmergencyState",
      "type": "error"
    },
    {
      "inputs": [],
      "name": "HugeTokenMetadataNotSupported",
      "type": "error"
    },
    {
      "inputs": [],
      "name": "InitNumBatchAboveLastVerifiedBatch",
      "type": "error"
    },
    {
      "inputs": [],
      "name": "InitNumBatchDoesNotMatchPendingState",
      "type": "error"
    },
    {
      "inputs": [],
      "name": "InitSequencedBatchDoesNotMatch",
      "type": "error"
    },
    {
      "inputs": [],
      "name": "InvalidInitializeTransaction",
      "type": "error"
    },
    {
      "inputs": [],
      "name": "InvalidProof",
      "type": "error"
    },
    {
      "inputs": [],
      "name": "InvalidRangeBatchTimeTarget",
      "type": "error"
    },
    {
      "inputs": [],
      "name": "InvalidRangeForceBatchTimeout",
      "type": "error"
    },
    {
      "inputs": [],
      "name": "InvalidRangeMultiplierBatchFee",
      "type": "error"
    },
    {
      "inputs": [],
      "name": "MaxTimestampSequenceInvalid",
      "type": "error"
    },
    {
      "inputs": [],
      "name": "NewAccInputHashDoesNotExist",
      "type": "error"
    },
    {
      "inputs": [],
      "name": "NewPendingStateTimeoutMustBeLower",
      "type": "error"
    },
    {
      "inputs": [],
      "name": "NewStateRootNotInsidePrime",
      "type": "error"
    },
    {
      "inputs": [],
      "name": "NewTrustedAggregatorTimeoutMustBeLower",
      "type": "error"
    },
    {
      "inputs": [],
      "name": "NotEnoughMaticAmount",
      "type": "error"
    },
    {
      "inputs": [],
      "name": "NotEnoughPOLAmount",
      "type": "error"
    },
    {
      "inputs": [],
      "name": "OldAccInputHashDoesNotExist",
      "type": "error"
    },
    {
      "inputs": [],
      "name": "OldStateRootDoesNotExist",
      "type": "error"
    },
    {
      "inputs": [],
      "name": "OnlyAdmin",
      "type": "error"
    },
    {
      "inputs": [],
      "name": "OnlyPendingAdmin",
      "type": "error"
    },
    {
      "inputs": [],
      "name": "OnlyRollupManager",
      "type": "error"
    },
    {
      "inputs": [],
      "name": "OnlyTrustedAggregator",
      "type": "error"
    },
    {
      "inputs": [],
      "name": "OnlyTrustedSequencer",
      "type": "error"
    },
    {
      "inputs": [],
      "name": "PendingStateDoesNotExist",
      "type": "error"
    },
    {
      "inputs": [],
      "name": "PendingStateInvalid",
      "type": "error"
    },
    {
      "inputs": [],
      "name": "PendingStateNotConsolidable",
      "type": "error"
    },
    {
      "inputs": [],
      "name": "PendingStateTimeoutExceedHaltAggregationTimeout",
      "type": "error"
    },
    {
      "inputs": [],
      "name": "SequenceZeroBatches",
      "type": "error"
    },
    {
      "inputs": [],
      "name": "SequencedTimestampBelowForcedTimestamp",
      "type": "error"
    },
    {
      "inputs": [],
      "name": "SequencedTimestampInvalid",
      "type": "error"
    },
    {
      "inputs": [],
      "name": "StoredRootMustBeDifferentThanNewRoot",
      "type": "error"
    },
    {
      "inputs": [],
      "name": "TransactionsLengthAboveMax",
      "type": "error"
    },
    {
      "inputs": [],
      "name": "TrustedAggregatorTimeoutExceedHaltAggregationTimeout",
      "type": "error"
    },
    {
      "inputs": [],
      "name": "TrustedAggregatorTimeoutNotExpired",
      "type": "error"
    },
    {
      "anonymous": false,
      "inputs": [
        {
          "indexed": false,
          "internalType": "address",
          "name": "newAdmin",
          "type": "address"
        }
      ],
      "name": "AcceptAdminRole",
      "type": "event"
    },
    {
      "anonymous": false,
      "inputs": [
        {
          "indexed": true,
          "internalType": "uint64",
          "name": "forceBatchNum",
          "type": "uint64"
        },
        {
          "indexed": false,
          "internalType": "bytes32",
          "name": "lastGlobalExitRoot",
          "type": "bytes32"
        },
        {
          "indexed": false,
          "internalType": "address",
          "name": "sequencer",
          "type": "address"
        },
        {
          "indexed": false,
          "internalType": "bytes",
          "name": "transactions",
          "type": "bytes"
        }
      ],
      "name": "ForceBatch",
      "type": "event"
    },
    {
      "anonymous": false,
      "inputs": [
        {
          "indexed": false,
          "internalType": "bytes",
          "name": "transactions",
          "type": "bytes"
        },
        {
          "indexed": false,
          "internalType": "bytes32",
          "name": "lastGlobalExitRoot",
          "type": "bytes32"
        },
        {
          "indexed": false,
          "internalType": "address",
          "name": "sequencer",
          "type": "address"
        }
      ],
      "name": "InitialSequenceBatches",
      "type": "event"
    },
    {
      "anonymous": false,
      "inputs": [
        {
          "indexed": false,
          "internalType": "uint8",
          "name": "version",
          "type": "uint8"
        }
      ],
      "name": "Initialized",
      "type": "event"
    },
    {
      "anonymous": false,
      "inputs": [
        {
          "indexed": true,
          "internalType": "uint64",
          "name": "numBatch",
          "type": "uint64"
        },
        {
          "indexed": false,
          "internalType": "bytes32",
          "name": "l1InfoRoot",
          "type": "bytes32"
        }
      ],
      "name": "SequenceBatches",
      "type": "event"
    },
    {
      "anonymous": false,
      "inputs": [
        {
          "indexed": true,
          "internalType": "uint64",
          "name": "numBatch",
          "type": "uint64"
        }
      ],
      "name": "SequenceForceBatches",
      "type": "event"
    },
    {
      "anonymous": false,
      "inputs": [
        {
          "indexed": false,
          "internalType": "address",
          "name": "newForceBatchAddress",
          "type": "address"
        }
      ],
      "name": "SetForceBatchAddress",
      "type": "event"
    },
    {
      "anonymous": false,
      "inputs": [
        {
          "indexed": false,
          "internalType": "uint64",
          "name": "newforceBatchTimeout",
          "type": "uint64"
        }
      ],
      "name": "SetForceBatchTimeout",
      "type": "event"
    },
    {
      "anonymous": false,
      "inputs": [
        {
          "indexed": false,
          "internalType": "address",
          "name": "newTrustedSequencer",
          "type": "address"
        }
      ],
      "name": "SetTrustedSequencer",
      "type": "event"
    },
    {
      "anonymous": false,
      "inputs": [
        {
          "indexed": false,
          "internalType": "string",
          "name": "newTrustedSequencerURL",
          "type": "string"
        }
      ],
      "name": "SetTrustedSequencerURL",
      "type": "event"
    },
    {
      "anonymous": false,
      "inputs": [
        {
          "indexed": false,
          "internalType": "address",
          "name": "newPendingAdmin",
          "type": "address"
        }
      ],
      "name": "TransferAdminRole",
      "type": "event"
    },
    {
      "anonymous": false,
      "inputs": [
        {
          "indexed": true,
          "internalType": "uint64",
          "name": "numBatch",
          "type": "uint64"
        },
        {
          "indexed": false,
          "internalType": "bytes32",
          "name": "stateRoot",
          "type": "bytes32"
        },
        {
          "indexed": true,
          "internalType": "address",
          "name": "aggregator",
          "type": "address"
        }
      ],
      "name": "VerifyBatches",
      "type": "event"
    },
    {
      "inputs": [],
      "name": "GLOBAL_EXIT_ROOT_MANAGER_L2",
      "outputs": [
        {
          "internalType": "contract IBasePolygonZkEVMGlobalExitRoot",
          "name": "",
          "type": "address"
        }
      ],
      "stateMutability": "view",
      "type": "function"
    },
    {
      "inputs": [],
      "name": "INITIALIZE_TX_BRIDGE_LIST_LEN_LEN",
      "outputs": [
        {
          "internalType": "uint8",
          "name": "",
          "type": "uint8"
        }
      ],
      "stateMutability": "view",
      "type": "function"
    },
    {
      "inputs": [],
      "name": "INITIALIZE_TX_BRIDGE_PARAMS",
      "outputs": [
        {
          "internalType": "bytes",
          "name": "",
          "type": "bytes"
        }
      ],
      "stateMutability": "view",
      "type": "function"
    },
    {
      "inputs": [],
      "name": "INITIALIZE_TX_BRIDGE_PARAMS_AFTER_BRIDGE_ADDRESS",
      "outputs": [
        {
          "internalType": "bytes",
          "name": "",
          "type": "bytes"
        }
      ],
      "stateMutability": "view",
      "type": "function"
    },
    {
      "inputs": [],
      "name": "INITIALIZE_TX_BRIDGE_PARAMS_AFTER_BRIDGE_ADDRESS_EMPTY_METADATA",
      "outputs": [
        {
          "internalType": "bytes",
          "name": "",
          "type": "bytes"
        }
      ],
      "stateMutability": "view",
      "type": "function"
    },
    {
      "inputs": [],
      "name": "INITIALIZE_TX_CONSTANT_BYTES",
      "outputs": [
        {
          "internalType": "uint16",
          "name": "",
          "type": "uint16"
        }
      ],
      "stateMutability": "view",
      "type": "function"
    },
    {
      "inputs": [],
      "name": "INITIALIZE_TX_CONSTANT_BYTES_EMPTY_METADATA",
      "outputs": [
        {
          "internalType": "uint16",
          "name": "",
          "type": "uint16"
        }
      ],
      "stateMutability": "view",
      "type": "function"
    },
    {
      "inputs": [],
      "name": "INITIALIZE_TX_DATA_LEN_EMPTY_METADATA",
      "outputs": [
        {
          "internalType": "uint8",
          "name": "",
          "type": "uint8"
        }
      ],
      "stateMutability": "view",
      "type": "function"
    },
    {
      "inputs": [],
      "name": "INITIALIZE_TX_EFFECTIVE_PERCENTAGE",
      "outputs": [
        {
          "internalType": "bytes1",
          "name": "",
          "type": "bytes1"
        }
      ],
      "stateMutability": "view",
      "type": "function"
    },
    {
      "inputs": [],
      "name": "SIGNATURE_INITIALIZE_TX_R",
      "outputs": [
        {
          "internalType": "bytes32",
          "name": "",
          "type": "bytes32"
        }
      ],
      "stateMutability": "view",
      "type": "function"
    },
    {
      "inputs": [],
      "name": "SIGNATURE_INITIALIZE_TX_S",
      "outputs": [
        {
          "internalType": "bytes32",
          "name": "",
          "type": "bytes32"
        }
      ],
      "stateMutability": "view",
      "type": "function"
    },
    {
      "inputs": [],
      "name": "SIGNATURE_INITIALIZE_TX_V",
      "outputs": [
        {
          "internalType": "uint8",
          "name": "",
          "type": "uint8"
        }
      ],
      "stateMutability": "view",
      "type": "function"
    },
    {
      "inputs": [],
      "name": "TIMESTAMP_RANGE",
      "outputs": [
        {
          "internalType": "uint256",
          "name": "",
          "type": "uint256"
        }
      ],
      "stateMutability": "view",
      "type": "function"
    },
    {
      "inputs": [],
      "name": "acceptAdminRole",
      "outputs": [],
      "stateMutability": "nonpayable",
      "type": "function"
    },
    {
      "inputs": [],
      "name": "admin",
      "outputs": [
        {
          "internalType": "address",
          "name": "",
          "type": "address"
        }
      ],
      "stateMutability": "view",
      "type": "function"
    },
    {
      "inputs": [],
      "name": "bridgeAddress",
      "outputs": [
        {
          "internalType": "contract IPolygonZkEVMBridgeV2",
          "name": "",
          "type": "address"
        }
      ],
      "stateMutability": "view",
      "type": "function"
    },
    {
      "inputs": [],
      "name": "calculatePolPerForceBatch",
      "outputs": [
        {
          "internalType": "uint256",
          "name": "",
          "type": "uint256"
        }
      ],
      "stateMutability": "view",
      "type": "function"
    },
    {
      "inputs": [
        {
          "internalType": "bytes",
          "name": "transactions",
          "type": "bytes"
        },
        {
          "internalType": "uint256",
          "name": "polAmount",
          "type": "uint256"
        }
      ],
      "name": "forceBatch",
      "outputs": [],
      "stateMutability": "nonpayable",
      "type": "function"
    },
    {
      "inputs": [],
      "name": "forceBatchAddress",
      "outputs": [
        {
          "internalType": "address",
          "name": "",
          "type": "address"
        }
      ],
      "stateMutability": "view",
      "type": "function"
    },
    {
      "inputs": [],
      "name": "forceBatchTimeout",
      "outputs": [
        {
          "internalType": "uint64",
          "name": "",
          "type": "uint64"
        }
      ],
      "stateMutability": "view",
      "type": "function"
    },
    {
      "inputs": [
        {
          "internalType": "uint64",
          "name": "",
          "type": "uint64"
        }
      ],
      "name": "forcedBatches",
      "outputs": [
        {
          "internalType": "bytes32",
          "name": "",
          "type": "bytes32"
        }
      ],
      "stateMutability": "view",
      "type": "function"
    },
    {
      "inputs": [],
      "name": "gasTokenAddress",
      "outputs": [
        {
          "internalType": "address",
          "name": "",
          "type": "address"
        }
      ],
      "stateMutability": "view",
      "type": "function"
    },
    {
      "inputs": [],
      "name": "gasTokenNetwork",
      "outputs": [
        {
          "internalType": "uint32",
          "name": "",
          "type": "uint32"
        }
      ],
      "stateMutability": "view",
      "type": "function"
    },
    {
      "inputs": [
        {
          "internalType": "uint32",
          "name": "networkID",
          "type": "uint32"
        },
        {
          "internalType": "address",
          "name": "_gasTokenAddress",
          "type": "address"
        },
        {
          "internalType": "uint32",
          "name": "_gasTokenNetwork",
          "type": "uint32"
        },
        {
          "internalType": "bytes",
          "name": "_gasTokenMetadata",
          "type": "bytes"
        }
      ],
      "name": "generateInitializeTransaction",
      "outputs": [
        {
          "internalType": "bytes",
          "name": "",
          "type": "bytes"
        }
      ],
      "stateMutability": "view",
      "type": "function"
    },
    {
      "inputs": [],
      "name": "globalExitRootManager",
      "outputs": [
        {
          "internalType": "contract IPolygonZkEVMGlobalExitRootV2",
          "name": "",
          "type": "address"
        }
      ],
      "stateMutability": "view",
      "type": "function"
    },
    {
      "inputs": [
        {
          "internalType": "address",
          "name": "_admin",
          "type": "address"
        },
        {
          "internalType": "address",
          "name": "sequencer",
          "type": "address"
        },
        {
          "internalType": "uint32",
          "name": "networkID",
          "type": "uint32"
        },
        {
          "internalType": "address",
          "name": "_gasTokenAddress",
          "type": "address"
        },
        {
          "internalType": "string",
          "name": "sequencerURL",
          "type": "string"
        },
        {
          "internalType": "string",
          "name": "_networkName",
          "type": "string"
        }
      ],
      "name": "initialize",
      "outputs": [],
      "stateMutability": "nonpayable",
      "type": "function"
    },
    {
      "inputs": [],
      "name": "lastAccInputHash",
      "outputs": [
        {
          "internalType": "bytes32",
          "name": "",
          "type": "bytes32"
        }
      ],
      "stateMutability": "view",
      "type": "function"
    },
    {
      "inputs": [],
      "name": "lastForceBatch",
      "outputs": [
        {
          "internalType": "uint64",
          "name": "",
          "type": "uint64"
        }
      ],
      "stateMutability": "view",
      "type": "function"
    },
    {
      "inputs": [],
      "name": "lastForceBatchSequenced",
      "outputs": [
        {
          "internalType": "uint64",
          "name": "",
          "type": "uint64"
        }
      ],
      "stateMutability": "view",
      "type": "function"
    },
    {
      "inputs": [],
      "name": "networkName",
      "outputs": [
        {
          "internalType": "string",
          "name": "",
          "type": "string"
        }
      ],
      "stateMutability": "view",
      "type": "function"
    },
    {
      "inputs": [
        {
          "internalType": "uint64",
          "name": "lastVerifiedBatch",
          "type": "uint64"
        },
        {
          "internalType": "bytes32",
          "name": "newStateRoot",
          "type": "bytes32"
        },
        {
          "internalType": "address",
          "name": "aggregator",
          "type": "address"
        }
      ],
      "name": "onVerifyBatches",
      "outputs": [],
      "stateMutability": "nonpayable",
      "type": "function"
    },
    {
      "inputs": [],
      "name": "pendingAdmin",
      "outputs": [
        {
          "internalType": "address",
          "name": "",
          "type": "address"
        }
      ],
      "stateMutability": "view",
      "type": "function"
    },
    {
      "inputs": [],
      "name": "pol",
      "outputs": [
        {
          "internalType": "contract IERC20Upgradeable",
          "name": "",
          "type": "address"
        }
      ],
      "stateMutability": "view",
      "type": "function"
    },
    {
      "inputs": [],
      "name": "rollupManager",
      "outputs": [
        {
          "internalType": "contract PolygonRollupManager",
          "name": "",
          "type": "address"
        }
      ],
      "stateMutability": "view",
      "type": "function"
    },
    {
      "inputs": [
        {
          "components": [
            {
              "internalType": "bytes",
              "name": "transactions",
              "type": "bytes"
            },
            {
              "internalType": "bytes32",
              "name": "forcedGlobalExitRoot",
              "type": "bytes32"
            },
            {
              "internalType": "uint64",
              "name": "forcedTimestamp",
              "type": "uint64"
            },
            {
              "internalType": "bytes32",
              "name": "forcedBlockHashL1",
              "type": "bytes32"
            }
          ],
          "internalType": "struct PolygonRollupBaseEtrog.BatchData[]",
          "name": "batches",
          "type": "tuple[]"
        },
        {
          "internalType": "uint64",
          "name": "maxSequenceTimestamp",
          "type": "uint64"
        },
        {
          "internalType": "uint64",
          "name": "initSequencedBatch",
          "type": "uint64"
        },
        {
          "internalType": "address",
          "name": "l2Coinbase",
          "type": "address"
        }
      ],
      "name": "sequenceBatches",
      "outputs": [],
      "stateMutability": "nonpayable",
      "type": "function"
    },
    {
      "inputs": [
        {
          "components": [
            {
              "internalType": "bytes",
              "name": "transactions",
              "type": "bytes"
            },
            {
              "internalType": "bytes32",
              "name": "forcedGlobalExitRoot",
              "type": "bytes32"
            },
            {
              "internalType": "uint64",
              "name": "forcedTimestamp",
              "type": "uint64"
            },
            {
              "internalType": "bytes32",
              "name": "forcedBlockHashL1",
              "type": "bytes32"
            }
          ],
          "internalType": "struct PolygonRollupBaseEtrog.BatchData[]",
          "name": "batches",
          "type": "tuple[]"
        }
      ],
      "name": "sequenceForceBatches",
      "outputs": [],
      "stateMutability": "nonpayable",
      "type": "function"
    },
    {
      "inputs": [
        {
          "internalType": "address",
          "name": "newForceBatchAddress",
          "type": "address"
        }
      ],
      "name": "setForceBatchAddress",
      "outputs": [],
      "stateMutability": "nonpayable",
      "type": "function"
    },
    {
      "inputs": [
        {
          "internalType": "uint64",
          "name": "newforceBatchTimeout",
          "type": "uint64"
        }
      ],
      "name": "setForceBatchTimeout",
      "outputs": [],
      "stateMutability": "nonpayable",
      "type": "function"
    },
    {
      "inputs": [
        {
          "internalType": "address",
          "name": "newTrustedSequencer",
          "type": "address"
        }
      ],
      "name": "setTrustedSequencer",
      "outputs": [],
      "stateMutability": "nonpayable",
      "type": "function"
    },
    {
      "inputs": [
        {
          "internalType": "string",
          "name": "newTrustedSequencerURL",
          "type": "string"
        }
      ],
      "name": "setTrustedSequencerURL",
      "outputs": [],
      "stateMutability": "nonpayable",
      "type": "function"
    },
    {
      "inputs": [
        {
          "internalType": "address",
          "name": "newPendingAdmin",
          "type": "address"
        }
      ],
      "name": "transferAdminRole",
      "outputs": [],
      "stateMutability": "nonpayable",
      "type": "function"
    },
    {
      "inputs": [],
      "name": "trustedSequencer",
      "outputs": [
        {
          "internalType": "address",
          "name": "",
          "type": "address"
        }
      ],
      "stateMutability": "view",
      "type": "function"
    },
    {
      "inputs": [],
      "name": "trustedSequencerURL",
      "outputs": [
        {
          "internalType": "string",
          "name": "",
          "type": "string"
        }
      ],
      "stateMutability": "view",
      "type": "function"
    }
  ],
  "bytecode": "0x61010060405234801562000011575f80fd5b50604051620043293803806200432983398101604081905262000034916200006f565b6001600160a01b0393841660a052918316608052821660c0521660e052620000d4565b6001600160a01b03811681146200006c575f80fd5b50565b5f805f806080858703121562000083575f80fd5b8451620000908162000057565b6020860151909450620000a38162000057565b6040860151909350620000b68162000057565b6060860151909250620000c98162000057565b939692955090935050565b60805160a05160c05160e051614172620001b75f395f81816104f10152818161095501528181610ac101528181610d09015281816112db0152818161177601528181611bc501528181611cba01528181612889015281816129020152818161292401528181612a3901528181612bd90152612c9e01525f818161064a01528181610efd01528181610fd201528181611e8401528181611f8c01526123d701525f818161070601528181611152015281816124530152612de601525f818161074b0152818161080801528181611c0e015281816129d00152612dbb01526141725ff3fe608060405234801561000f575f80fd5b50600436106102d7575f3560e01c80637125702211610187578063c7fffd4b116100dd578063def57e5411610093578063eaeb077b1161006e578063eaeb077b14610781578063f35dda4714610794578063f851a4401461079c575f80fd5b8063def57e5414610733578063e46761c414610746578063e7a7ed021461076d575f80fd5b8063cfa8ed47116100c3578063cfa8ed47146106e1578063d02103ca14610701578063d7bc90ff14610728575f80fd5b8063c7fffd4b146106c6578063c89e42df146106ce575f80fd5b80639f26f8401161013d578063ada8f91911610118578063ada8f9191461067f578063b0afe15414610692578063c754c7ed1461069e575f80fd5b80639f26f84014610632578063a3c573eb14610645578063a652f26c1461066c575f80fd5b80638c3d73011161016d5780638c3d7301146105fc57806391cafe32146106045780639e00187714610617575f80fd5b806371257022146105ad5780637a5460c5146105c0575f80fd5b806340b5de6c1161023c57806352bdeb6d116101f25780636b8616ce116101cd5780636b8616ce146105725780636e05d2cd146105915780636ff512cc1461059a575f80fd5b806352bdeb6d14610526578063542028d514610562578063676870d21461056a575f80fd5b8063456052671161022257806345605267146104b357806349b7b802146104ec5780634e48770614610513575f80fd5b806340b5de6c1461045357806342308fab146104ab575f80fd5b8063267822471161029157806332c2d1531161027757806332c2d153146103e15780633c351e10146103f65780633cbc795b14610416575f80fd5b8063267822471461037c5780632c111c06146103c1575f80fd5b806305835f37116102c157806305835f3714610311578063107bf28c1461035a57806311e892d414610362575f80fd5b8062d0295d146102db57806303508963146102f6575b5f80fd5b6102e36107c1565b6040519081526020015b60405180910390f35b6102fe602081565b60405161ffff90911681526020016102ed565b61034d6040518060400160405280600881526020017f80808401c9c3809400000000000000000000000000000000000000000000000081525081565b6040516102ed9190613447565b61034d6108c7565b61036a60f981565b60405160ff90911681526020016102ed565b60015461039c9073ffffffffffffffffffffffffffffffffffffffff1681565b60405173ffffffffffffffffffffffffffffffffffffffff90911681526020016102ed565b60085461039c9073ffffffffffffffffffffffffffffffffffffffff1681565b6103f46103ef366004613499565b610953565b005b60095461039c9073ffffffffffffffffffffffffffffffffffffffff1681565b60095461043e9074010000000000000000000000000000000000000000900463ffffffff1681565b60405163ffffffff90911681526020016102ed565b61047a7fff0000000000000000000000000000000000000000000000000000000000000081565b6040517fff0000000000000000000000000000000000000000000000000000000000000090911681526020016102ed565b6102e3602481565b6007546104d39068010000000000000000900467ffffffffffffffff1681565b60405167ffffffffffffffff90911681526020016102ed565b61039c7f000000000000000000000000000000000000000000000000000000000000000081565b6103f46105213660046134d8565b610a22565b61034d6040518060400160405280600281526020017f80b800000000000000000000000000000000000000000000000000000000000081525081565b61034d610c31565b6102fe601f81565b6102e36105803660046134d8565b60066020525f908152604090205481565b6102e360055481565b6103f46105a83660046134f3565b610c3e565b6103f46105bb366004613632565b610d07565b61034d6040518060400160405280600281526020017f80b900000000000000000000000000000000000000000000000000000000000081525081565b6103f4611510565b6103f46106123660046134f3565b6115e2565b61039c73a40d5f56745a118d0906a34e69aec8c0db1cb8fa81565b6103f4610640366004613721565b6116fa565b61039c7f000000000000000000000000000000000000000000000000000000000000000081565b61034d61067a366004613760565b611d86565b6103f461068d3660046134f3565b612164565b6102e36405ca1ab1e081565b6007546104d390700100000000000000000000000000000000900467ffffffffffffffff1681565b61036a60e481565b6103f46106dc3660046137d1565b61222d565b60025461039c9073ffffffffffffffffffffffffffffffffffffffff1681565b61039c7f000000000000000000000000000000000000000000000000000000000000000081565b6102e3635ca1ab1e81565b6103f4610741366004613803565b6122bf565b61039c7f000000000000000000000000000000000000000000000000000000000000000081565b6007546104d39067ffffffffffffffff1681565b6103f461078f36600461387b565b612b62565b61036a601b81565b5f5461039c9062010000900473ffffffffffffffffffffffffffffffffffffffff1681565b6040517f70a082310000000000000000000000000000000000000000000000000000000081523060048201525f90819073ffffffffffffffffffffffffffffffffffffffff7f000000000000000000000000000000000000000000000000000000000000000016906370a0823190602401602060405180830381865afa15801561084d573d5f803e3d5ffd5b505050506040513d601f19601f8201168201806040525081019061087191906138ec565b6007549091505f9061089b9067ffffffffffffffff68010000000000000000820481169116613930565b67ffffffffffffffff169050805f036108b6575f9250505090565b6108c08183613958565b9250505090565b600480546108d490613990565b80601f016020809104026020016040519081016040528092919081815260200182805461090090613990565b801561094b5780601f106109225761010080835404028352916020019161094b565b820191905f5260205f20905b81548152906001019060200180831161092e57829003601f168201915b505050505081565b7f000000000000000000000000000000000000000000000000000000000000000073ffffffffffffffffffffffffffffffffffffffff1633146109c2576040517fb9b3a2c800000000000000000000000000000000000000000000000000000000815260040160405180910390fd5b8073ffffffffffffffffffffffffffffffffffffffff168367ffffffffffffffff167f9c72852172521097ba7e1482e6b44b351323df0155f97f4ea18fcec28e1f596684604051610a1591815260200190565b60405180910390a3505050565b5f5462010000900473ffffffffffffffffffffffffffffffffffffffff163314610a78576040517f4755657900000000000000000000000000000000000000000000000000000000815260040160405180910390fd5b62093a8067ffffffffffffffff82161115610abf576040517ff5e37f2f00000000000000000000000000000000000000000000000000000000815260040160405180910390fd5b7f000000000000000000000000000000000000000000000000000000000000000073ffffffffffffffffffffffffffffffffffffffff166315064c966040518163ffffffff1660e01b8152600401602060405180830381865afa158015610b28573d5f803e3d5ffd5b505050506040513d601f19601f82011682018060405250810190610b4c91906139e1565b610bad5760075467ffffffffffffffff700100000000000000000000000000000000909104811690821610610bad576040517ff5e37f2f00000000000000000000000000000000000000000000000000000000815260040160405180910390fd5b600780547fffffffffffffffff0000000000000000ffffffffffffffffffffffffffffffff1670010000000000000000000000000000000067ffffffffffffffff8416908102919091179091556040519081527fa7eb6cb8a613eb4e8bddc1ac3d61ec6cf10898760f0b187bcca794c6ca6fa40b906020015b60405180910390a150565b600380546108d490613990565b5f5462010000900473ffffffffffffffffffffffffffffffffffffffff163314610c94576040517f4755657900000000000000000000000000000000000000000000000000000000815260040160405180910390fd5b600280547fffffffffffffffffffffffff00000000000000000000000000000000000000001673ffffffffffffffffffffffffffffffffffffffff83169081179091556040519081527ff54144f9611984021529f814a1cb6a41e22c58351510a0d9f7e822618abb9cc090602001610c26565b7f000000000000000000000000000000000000000000000000000000000000000073ffffffffffffffffffffffffffffffffffffffff163314610d76576040517fb9b3a2c800000000000000000000000000000000000000000000000000000000815260040160405180910390fd5b5f54610100900460ff1615808015610d9457505f54600160ff909116105b80610dad5750303b158015610dad57505f5460ff166001145b610e3e576040517f08c379a000000000000000000000000000000000000000000000000000000000815260206004820152602e60248201527f496e697469616c697a61626c653a20636f6e747261637420697320616c72656160448201527f647920696e697469616c697a656400000000000000000000000000000000000060648201526084015b60405180910390fd5b5f80547fffffffffffffffffffffffffffffffffffffffffffffffffffffffffffffff001660011790558015610e9a575f80547fffffffffffffffffffffffffffffffffffffffffffffffffffffffffffff00ff166101001790555b606073ffffffffffffffffffffffffffffffffffffffff8516156110f7576040517fc00f14ab00000000000000000000000000000000000000000000000000000000815273ffffffffffffffffffffffffffffffffffffffff86811660048301527f0000000000000000000000000000000000000000000000000000000000000000169063c00f14ab906024015f60405180830381865afa158015610f41573d5f803e3d5ffd5b505050506040513d5f823e601f3d9081017fffffffffffffffffffffffffffffffffffffffffffffffffffffffffffffffe0168201604052610f869190810190613a00565b6040517f318aee3d00000000000000000000000000000000000000000000000000000000815273ffffffffffffffffffffffffffffffffffffffff87811660048301529192505f9182917f00000000000000000000000000000000000000000000000000000000000000009091169063318aee3d906024016040805180830381865afa158015611018573d5f803e3d5ffd5b505050506040513d601f19601f8201168201806040525081019061103c9190613a72565b915091508163ffffffff165f146110b3576009805463ffffffff841674010000000000000000000000000000000000000000027fffffffffffffffff00000000000000000000000000000000000000000000000090911673ffffffffffffffffffffffffffffffffffffffff8416171790556110f4565b600980547fffffffffffffffffffffffff00000000000000000000000000000000000000001673ffffffffffffffffffffffffffffffffffffffff89161790555b50505b6009545f9061113e90889073ffffffffffffffffffffffffffffffffffffffff81169074010000000000000000000000000000000000000000900463ffffffff1685611d86565b90505f818051906020012090505f4290505f7f000000000000000000000000000000000000000000000000000000000000000073ffffffffffffffffffffffffffffffffffffffff16633ed691ef6040518163ffffffff1660e01b8152600401602060405180830381865afa1580156111b9573d5f803e3d5ffd5b505050506040513d601f19601f820116820180604052508101906111dd91906138ec565b90505f808483858f6111f0600143613aaa565b60408051602081019790975286019490945260608086019390935260c09190911b7fffffffffffffffff000000000000000000000000000000000000000000000000166080850152901b7fffffffffffffffffffffffffffffffffffffffff00000000000000000000000016608883015240609c82015260bc01604080518083037fffffffffffffffffffffffffffffffffffffffffffffffffffffffffffffffe001815290829052805160209091012060058190557f9a908e73000000000000000000000000000000000000000000000000000000008252600160048301526024820181905291507f000000000000000000000000000000000000000000000000000000000000000073ffffffffffffffffffffffffffffffffffffffff1690639a908e73906044016020604051808303815f875af1158015611336573d5f803e3d5ffd5b505050506040513d601f19601f8201168201806040525081019061135a9190613ac3565b508c5f60026101000a81548173ffffffffffffffffffffffffffffffffffffffff021916908373ffffffffffffffffffffffffffffffffffffffff1602179055508b60025f6101000a81548173ffffffffffffffffffffffffffffffffffffffff021916908373ffffffffffffffffffffffffffffffffffffffff16021790555088600390816113ea9190613b23565b5060046113f78982613b23565b508c60085f6101000a81548173ffffffffffffffffffffffffffffffffffffffff021916908373ffffffffffffffffffffffffffffffffffffffff16021790555062069780600760106101000a81548167ffffffffffffffff021916908367ffffffffffffffff1602179055507f060116213bcbf54ca19fd649dc84b59ab2bbd200ab199770e4d923e222a28e7f85838e60405161149793929190613c3b565b60405180910390a15050505050508015611507575f80547fffffffffffffffffffffffffffffffffffffffffffffffffffffffffffff00ff169055604051600181527f7f26b83ff96e1f2b6a682f133852f6798a09c465da95921460cefb38474024989060200160405180910390a15b50505050505050565b60015473ffffffffffffffffffffffffffffffffffffffff163314611561576040517fd1ec4b2300000000000000000000000000000000000000000000000000000000815260040160405180910390fd5b6001545f80547fffffffffffffffffffff0000000000000000000000000000000000000000ffff1673ffffffffffffffffffffffffffffffffffffffff9092166201000081029290921790556040519081527f056dc487bbf0795d0bbb1b4f0af523a855503cff740bfb4d5475f7a90c091e8e9060200160405180910390a1565b5f5462010000900473ffffffffffffffffffffffffffffffffffffffff163314611638576040517f4755657900000000000000000000000000000000000000000000000000000000815260040160405180910390fd5b60085473ffffffffffffffffffffffffffffffffffffffff16611687576040517fc89374d800000000000000000000000000000000000000000000000000000000815260040160405180910390fd5b600880547fffffffffffffffffffffffff00000000000000000000000000000000000000001673ffffffffffffffffffffffffffffffffffffffff83169081179091556040519081527f5fbd7dd171301c4a1611a84aac4ba86d119478560557755f7927595b082634fb90602001610c26565b60085473ffffffffffffffffffffffffffffffffffffffff168015801590611738575073ffffffffffffffffffffffffffffffffffffffff81163314155b1561176f576040517f24eff8c300000000000000000000000000000000000000000000000000000000815260040160405180910390fd5b4262093a807f000000000000000000000000000000000000000000000000000000000000000073ffffffffffffffffffffffffffffffffffffffff166330c27dde6040518163ffffffff1660e01b8152600401602060405180830381865afa1580156117dd573d5f803e3d5ffd5b505050506040513d601f19601f820116820180604052508101906118019190613ac3565b61180b9190613c79565b67ffffffffffffffff16111561184d576040517f3d49ed4c00000000000000000000000000000000000000000000000000000000815260040160405180910390fd5b815f819003611888576040517fcb591a5f00000000000000000000000000000000000000000000000000000000815260040160405180910390fd5b6103e88111156118c4576040517fb59f753a00000000000000000000000000000000000000000000000000000000815260040160405180910390fd5b60075467ffffffffffffffff808216916118ec91849168010000000000000000900416613c9a565b1115611924576040517fc630a00d00000000000000000000000000000000000000000000000000000000815260040160405180910390fd5b6007546005546801000000000000000090910467ffffffffffffffff16905f5b83811015611bbf575f87878381811061195f5761195f613cad565b90506020028101906119719190613cda565b61197a90613d16565b90508361198681613d9c565b825180516020918201208185015160408087015160608801519151959a509295505f946119f2948794929101938452602084019290925260c01b7fffffffffffffffff000000000000000000000000000000000000000000000000166040830152604882015260680190565b604080517fffffffffffffffffffffffffffffffffffffffffffffffffffffffffffffffe0818403018152918152815160209283012067ffffffffffffffff89165f90815260069093529120549091508114611a7a576040517fce3d755e00000000000000000000000000000000000000000000000000000000815260040160405180910390fd5b67ffffffffffffffff86165f90815260066020526040812055611a9e600188613aaa565b8403611b0d5742600760109054906101000a900467ffffffffffffffff168460400151611acb9190613c79565b67ffffffffffffffff161115611b0d576040517fc44a082100000000000000000000000000000000000000000000000000000000815260040160405180910390fd5b60208381015160408086015160608088015183519586018b90529285018790528481019390935260c01b7fffffffffffffffff0000000000000000000000000000000000000000000000001660808401523390911b7fffffffffffffffffffffffffffffffffffffffff000000000000000000000000166088830152609c82015260bc016040516020818303038152906040528051906020012094505050508080611bb790613dc2565b915050611944565b50611c357f000000000000000000000000000000000000000000000000000000000000000084611bed6107c1565b611bf79190613df9565b73ffffffffffffffffffffffffffffffffffffffff7f0000000000000000000000000000000000000000000000000000000000000000169190613029565b60058190556007805467ffffffffffffffff841668010000000000000000027fffffffffffffffffffffffffffffffff0000000000000000ffffffffffffffff9091161790556040517f9a908e730000000000000000000000000000000000000000000000000000000081525f9073ffffffffffffffffffffffffffffffffffffffff7f00000000000000000000000000000000000000000000000000000000000000001690639a908e7390611d06908790869060040167ffffffffffffffff929092168252602082015260400190565b6020604051808303815f875af1158015611d22573d5f803e3d5ffd5b505050506040513d601f19601f82011682018060405250810190611d469190613ac3565b60405190915067ffffffffffffffff8216907f648a61dd2438f072f5a1960939abd30f37aea80d2e94c9792ad142d3e0a490a4905f90a250505050505050565b60605f85858573a40d5f56745a118d0906a34e69aec8c0db1cb8fa5f87604051602401611db896959493929190613e10565b604080517fffffffffffffffffffffffffffffffffffffffffffffffffffffffffffffffe08184030181529190526020810180517bffffffffffffffffffffffffffffffffffffffffffffffffffffffff167ff811bff70000000000000000000000000000000000000000000000000000000017905283519091506060905f03611f085760f9601f8351611e4c9190613e72565b6040518060400160405280600881526020017f80808401c9c380940000000000000000000000000000000000000000000000008152507f00000000000000000000000000000000000000000000000000000000000000006040518060400160405280600281526020017f80b800000000000000000000000000000000000000000000000000000000000081525060e487604051602001611ef29796959493929190613e8d565b604051602081830303815290604052905061200c565b815161ffff1015611f45576040517f248b8f8200000000000000000000000000000000000000000000000000000000815260040160405180910390fd5b815160f9611f54602083613e72565b6040518060400160405280600881526020017f80808401c9c380940000000000000000000000000000000000000000000000008152507f00000000000000000000000000000000000000000000000000000000000000006040518060400160405280600281526020017f80b90000000000000000000000000000000000000000000000000000000000008152508588604051602001611ff99796959493929190613f6f565b6040516020818303038152906040529150505b8051602080830191909120604080515f80825293810180835292909252601b908201526405ca1ab1e06060820152635ca1ab1e608082015260019060a0016020604051602081039080840390855afa15801561206a573d5f803e3d5ffd5b50506040517fffffffffffffffffffffffffffffffffffffffffffffffffffffffffffffffe0015191505073ffffffffffffffffffffffffffffffffffffffff81166120e2576040517fcd16196600000000000000000000000000000000000000000000000000000000815260040160405180910390fd5b6040515f906121279084906405ca1ab1e090635ca1ab1e90601b907fff0000000000000000000000000000000000000000000000000000000000000090602001614051565b604080517fffffffffffffffffffffffffffffffffffffffffffffffffffffffffffffffe08184030181529190529450505050505b949350505050565b5f5462010000900473ffffffffffffffffffffffffffffffffffffffff1633146121ba576040517f4755657900000000000000000000000000000000000000000000000000000000815260040160405180910390fd5b600180547fffffffffffffffffffffffff00000000000000000000000000000000000000001673ffffffffffffffffffffffffffffffffffffffff83169081179091556040519081527fa5b56b7906fd0a20e3f35120dd8343db1e12e037a6c90111c7e42885e82a1ce690602001610c26565b5f5462010000900473ffffffffffffffffffffffffffffffffffffffff163314612283576040517f4755657900000000000000000000000000000000000000000000000000000000815260040160405180910390fd5b600361228f8282613b23565b507f6b8f723a4c7a5335cafae8a598a0aa0301be1387c037dccc085b62add6448b2081604051610c269190613447565b60025473ffffffffffffffffffffffffffffffffffffffff163314612310576040517f11e7be1500000000000000000000000000000000000000000000000000000000815260040160405180910390fd5b835f81900361234b576040517fcb591a5f00000000000000000000000000000000000000000000000000000000815260040160405180910390fd5b6103e8811115612387576040517fb59f753a00000000000000000000000000000000000000000000000000000000815260040160405180910390fd5b612392602442613c9a565b8467ffffffffffffffff1611156123d5576040517f0a00feb300000000000000000000000000000000000000000000000000000000815260040160405180910390fd5b7f000000000000000000000000000000000000000000000000000000000000000073ffffffffffffffffffffffffffffffffffffffff166379e2cf976040518163ffffffff1660e01b81526004015f604051808303815f87803b15801561243a575f80fd5b505af115801561244c573d5f803e3d5ffd5b505050505f7f000000000000000000000000000000000000000000000000000000000000000073ffffffffffffffffffffffffffffffffffffffff16635ca1e1656040518163ffffffff1660e01b8152600401602060405180830381865afa1580156124ba573d5f803e3d5ffd5b505050506040513d601f19601f820116820180604052508101906124de91906138ec565b60075460055491925068010000000000000000900467ffffffffffffffff1690815f5b858110156127fc575f8b8b8381811061251c5761251c613cad565b905060200281019061252e9190613cda565b61253790613d16565b8051805160209091012060408201519192509067ffffffffffffffff1615612717578561256381613d9c565b9650505f818360200151846040015185606001516040516020016125c59493929190938452602084019290925260c01b7fffffffffffffffff000000000000000000000000000000000000000000000000166040830152604882015260680190565b604080517fffffffffffffffffffffffffffffffffffffffffffffffffffffffffffffffe0818403018152918152815160209283012067ffffffffffffffff8a165f9081526006909352912054909150811461264d576040517fce3d755e00000000000000000000000000000000000000000000000000000000815260040160405180910390fd5b60208381015160408086015160608088015183519586018c90529285018790528481019390935260c01b7fffffffffffffffff000000000000000000000000000000000000000000000000166080840152908c901b7fffffffffffffffffffffffffffffffffffffffff000000000000000000000000166088830152609c82015260bc0160405160208183030381529060405280519060200120955060065f8867ffffffffffffffff1667ffffffffffffffff1681526020019081526020015f205f9055506127e7565b8151516201d4c01015612756576040517fa29a6c7c00000000000000000000000000000000000000000000000000000000815260040160405180910390fd5b6040805160208101879052908101829052606080820189905260c08d901b7fffffffffffffffff0000000000000000000000000000000000000000000000001660808301528a901b7fffffffffffffffffffffffffffffffffffffffff0000000000000000000000001660888201525f609c82015260bc016040516020818303038152906040528051906020012094505b505080806127f490613dc2565b915050612501565b5060075467ffffffffffffffff9081169084161115612847576040517fc630a00d00000000000000000000000000000000000000000000000000000000815260040160405180910390fd5b60058290558467ffffffffffffffff848116908316146128fc575f61286c8386613930565b905061288267ffffffffffffffff821683613aaa565b91506128bb7f00000000000000000000000000000000000000000000000000000000000000008267ffffffffffffffff16611bed6107c1565b50600780547fffffffffffffffffffffffffffffffff0000000000000000ffffffffffffffff166801000000000000000067ffffffffffffffff8716021790555b6129f8337f0000000000000000000000000000000000000000000000000000000000000000837f000000000000000000000000000000000000000000000000000000000000000073ffffffffffffffffffffffffffffffffffffffff1663477fa2706040518163ffffffff1660e01b8152600401602060405180830381865afa15801561298b573d5f803e3d5ffd5b505050506040513d601f19601f820116820180604052508101906129af91906138ec565b6129b99190613df9565b73ffffffffffffffffffffffffffffffffffffffff7f000000000000000000000000000000000000000000000000000000000000000016929190613102565b6040517f9a908e7300000000000000000000000000000000000000000000000000000000815267ffffffffffffffff87166004820152602481018490525f907f000000000000000000000000000000000000000000000000000000000000000073ffffffffffffffffffffffffffffffffffffffff1690639a908e73906044016020604051808303815f875af1158015612a94573d5f803e3d5ffd5b505050506040513d601f19601f82011682018060405250810190612ab89190613ac3565b9050612ac48782613930565b67ffffffffffffffff168967ffffffffffffffff1614612b10576040517f1a070d9a00000000000000000000000000000000000000000000000000000000815260040160405180910390fd5b8067ffffffffffffffff167f3e54d0825ed78523037d00a81759237eb436ce774bd546993ee67a1b67b6e76687604051612b4c91815260200190565b60405180910390a2505050505050505050505050565b60085473ffffffffffffffffffffffffffffffffffffffff168015801590612ba0575073ffffffffffffffffffffffffffffffffffffffff81163314155b15612bd7576040517f24eff8c300000000000000000000000000000000000000000000000000000000815260040160405180910390fd5b7f000000000000000000000000000000000000000000000000000000000000000073ffffffffffffffffffffffffffffffffffffffff166315064c966040518163ffffffff1660e01b8152600401602060405180830381865afa158015612c40573d5f803e3d5ffd5b505050506040513d601f19601f82011682018060405250810190612c6491906139e1565b15612c9b576040517f39258d1800000000000000000000000000000000000000000000000000000000815260040160405180910390fd5b5f7f000000000000000000000000000000000000000000000000000000000000000073ffffffffffffffffffffffffffffffffffffffff1663604691696040518163ffffffff1660e01b8152600401602060405180830381865afa158015612d05573d5f803e3d5ffd5b505050506040513d601f19601f82011682018060405250810190612d2991906138ec565b905082811115612d65576040517f2354600f00000000000000000000000000000000000000000000000000000000815260040160405180910390fd5b611388841115612da1576040517fa29a6c7c00000000000000000000000000000000000000000000000000000000815260040160405180910390fd5b612de373ffffffffffffffffffffffffffffffffffffffff7f000000000000000000000000000000000000000000000000000000000000000016333084613102565b5f7f000000000000000000000000000000000000000000000000000000000000000073ffffffffffffffffffffffffffffffffffffffff16633ed691ef6040518163ffffffff1660e01b8152600401602060405180830381865afa158015612e4d573d5f803e3d5ffd5b505050506040513d601f19601f82011682018060405250810190612e7191906138ec565b6007805491925067ffffffffffffffff909116905f612e8f83613d9c565b91906101000a81548167ffffffffffffffff021916908367ffffffffffffffff160217905550508585604051612ec69291906140ac565b6040519081900390208142612edc600143613aaa565b60408051602081019590955284019290925260c01b7fffffffffffffffff000000000000000000000000000000000000000000000000166060830152406068820152608801604080517fffffffffffffffffffffffffffffffffffffffffffffffffffffffffffffffe0818403018152918152815160209283012060075467ffffffffffffffff165f9081526006909352912055323303612fd2576007546040805183815233602082015260608183018190525f90820152905167ffffffffffffffff909216917ff94bb37db835f1ab585ee00041849a09b12cd081d77fa15ca070757619cbc9319181900360800190a2613021565b60075460405167ffffffffffffffff909116907ff94bb37db835f1ab585ee00041849a09b12cd081d77fa15ca070757619cbc9319061301890849033908b908b906140bb565b60405180910390a25b505050505050565b60405173ffffffffffffffffffffffffffffffffffffffff83166024820152604481018290526130fd9084907fa9059cbb00000000000000000000000000000000000000000000000000000000906064015b604080517fffffffffffffffffffffffffffffffffffffffffffffffffffffffffffffffe08184030181529190526020810180517bffffffffffffffffffffffffffffffffffffffffffffffffffffffff167fffffffff0000000000000000000000000000000000000000000000000000000090931692909217909152613166565b505050565b60405173ffffffffffffffffffffffffffffffffffffffff808516602483015283166044820152606481018290526131609085907f23b872dd000000000000000000000000000000000000000000000000000000009060840161307b565b50505050565b5f6131c7826040518060400160405280602081526020017f5361666545524332303a206c6f772d6c6576656c2063616c6c206661696c65648152508573ffffffffffffffffffffffffffffffffffffffff166132719092919063ffffffff16565b8051909150156130fd57808060200190518101906131e591906139e1565b6130fd576040517f08c379a000000000000000000000000000000000000000000000000000000000815260206004820152602a60248201527f5361666545524332303a204552433230206f7065726174696f6e20646964206e60448201527f6f742073756363656564000000000000000000000000000000000000000000006064820152608401610e35565b606061215c84845f85855f808673ffffffffffffffffffffffffffffffffffffffff1685876040516132a3919061412b565b5f6040518083038185875af1925050503d805f81146132dd576040519150601f19603f3d011682016040523d82523d5f602084013e6132e2565b606091505b50915091506132f3878383876132fe565b979650505050505050565b606083156133935782515f0361338c5773ffffffffffffffffffffffffffffffffffffffff85163b61338c576040517f08c379a000000000000000000000000000000000000000000000000000000000815260206004820152601d60248201527f416464726573733a2063616c6c20746f206e6f6e2d636f6e74726163740000006044820152606401610e35565b508161215c565b61215c83838151156133a85781518083602001fd5b806040517f08c379a0000000000000000000000000000000000000000000000000000000008152600401610e359190613447565b5f5b838110156133f65781810151838201526020016133de565b50505f910152565b5f81518084526134158160208601602086016133dc565b601f017fffffffffffffffffffffffffffffffffffffffffffffffffffffffffffffffe0169290920160200192915050565b602081525f61345960208301846133fe565b9392505050565b67ffffffffffffffff81168114613475575f80fd5b50565b73ffffffffffffffffffffffffffffffffffffffff81168114613475575f80fd5b5f805f606084860312156134ab575f80fd5b83356134b681613460565b92506020840135915060408401356134cd81613478565b809150509250925092565b5f602082840312156134e8575f80fd5b813561345981613460565b5f60208284031215613503575f80fd5b813561345981613478565b63ffffffff81168114613475575f80fd5b7f4e487b71000000000000000000000000000000000000000000000000000000005f52604160045260245ffd5b604051601f82017fffffffffffffffffffffffffffffffffffffffffffffffffffffffffffffffe016810167ffffffffffffffff811182821017156135935761359361351f565b604052919050565b5f67ffffffffffffffff8211156135b4576135b461351f565b50601f017fffffffffffffffffffffffffffffffffffffffffffffffffffffffffffffffe01660200190565b5f82601f8301126135ef575f80fd5b81356136026135fd8261359b565b61354c565b818152846020838601011115613616575f80fd5b816020850160208301375f918101602001919091529392505050565b5f805f805f8060c08789031215613647575f80fd5b863561365281613478565b9550602087013561366281613478565b945060408701356136728161350e565b9350606087013561368281613478565b9250608087013567ffffffffffffffff8082111561369e575f80fd5b6136aa8a838b016135e0565b935060a08901359150808211156136bf575f80fd5b506136cc89828a016135e0565b9150509295509295509295565b5f8083601f8401126136e9575f80fd5b50813567ffffffffffffffff811115613700575f80fd5b6020830191508360208260051b850101111561371a575f80fd5b9250929050565b5f8060208385031215613732575f80fd5b823567ffffffffffffffff811115613748575f80fd5b613754858286016136d9565b90969095509350505050565b5f805f8060808587031215613773575f80fd5b843561377e8161350e565b9350602085013561378e81613478565b9250604085013561379e8161350e565b9150606085013567ffffffffffffffff8111156137b9575f80fd5b6137c5878288016135e0565b91505092959194509250565b5f602082840312156137e1575f80fd5b813567ffffffffffffffff8111156137f7575f80fd5b61215c848285016135e0565b5f805f805f60808688031215613817575f80fd5b853567ffffffffffffffff81111561382d575f80fd5b613839888289016136d9565b909650945050602086013561384d81613460565b9250604086013561385d81613460565b9150606086013561386d81613478565b809150509295509295909350565b5f805f6040848603121561388d575f80fd5b833567ffffffffffffffff808211156138a4575f80fd5b818601915086601f8301126138b7575f80fd5b8135818111156138c5575f80fd5b8760208285010111156138d6575f80fd5b6020928301989097509590910135949350505050565b5f602082840312156138fc575f80fd5b5051919050565b7f4e487b71000000000000000000000000000000000000000000000000000000005f52601160045260245ffd5b67ffffffffffffffff82811682821603908082111561395157613951613903565b5092915050565b5f8261398b577f4e487b71000000000000000000000000000000000000000000000000000000005f52601260045260245ffd5b500490565b600181811c908216806139a457607f821691505b6020821081036139db577f4e487b71000000000000000000000000000000000000000000000000000000005f52602260045260245ffd5b50919050565b5f602082840312156139f1575f80fd5b81518015158114613459575f80fd5b5f60208284031215613a10575f80fd5b815167ffffffffffffffff811115613a26575f80fd5b8201601f81018413613a36575f80fd5b8051613a446135fd8261359b565b818152856020838501011115613a58575f80fd5b613a698260208301602086016133dc565b95945050505050565b5f8060408385031215613a83575f80fd5b8251613a8e8161350e565b6020840151909250613a9f81613478565b809150509250929050565b81810381811115613abd57613abd613903565b92915050565b5f60208284031215613ad3575f80fd5b815161345981613460565b601f8211156130fd575f81815260208120601f850160051c81016020861015613b045750805b601f850160051c820191505b8181101561302157828155600101613b10565b815167ffffffffffffffff811115613b3d57613b3d61351f565b613b5181613b4b8454613990565b84613ade565b602080601f831160018114613ba3575f8415613b6d5750858301515b7fffffffffffffffffffffffffffffffffffffffffffffffffffffffffffffffff600386901b1c1916600185901b178555613021565b5f858152602081207fffffffffffffffffffffffffffffffffffffffffffffffffffffffffffffffe08616915b82811015613bef57888601518255948401946001909101908401613bd0565b5085821015613c2b57878501517fffffffffffffffffffffffffffffffffffffffffffffffffffffffffffffffff600388901b60f8161c191681555b5050505050600190811b01905550565b606081525f613c4d60608301866133fe565b905083602083015273ffffffffffffffffffffffffffffffffffffffff83166040830152949350505050565b67ffffffffffffffff81811683821601908082111561395157613951613903565b80820180821115613abd57613abd613903565b7f4e487b71000000000000000000000000000000000000000000000000000000005f52603260045260245ffd5b5f82357fffffffffffffffffffffffffffffffffffffffffffffffffffffffffffffff81833603018112613d0c575f80fd5b9190910192915050565b5f60808236031215613d26575f80fd5b6040516080810167ffffffffffffffff8282108183111715613d4a57613d4a61351f565b816040528435915080821115613d5e575f80fd5b50613d6b368286016135e0565b825250602083013560208201526040830135613d8681613460565b6040820152606092830135928101929092525090565b5f67ffffffffffffffff808316818103613db857613db8613903565b6001019392505050565b5f7fffffffffffffffffffffffffffffffffffffffffffffffffffffffffffffffff8203613df257613df2613903565b5060010190565b8082028115828204841417613abd57613abd613903565b5f63ffffffff808916835273ffffffffffffffffffffffffffffffffffffffff8089166020850152818816604085015280871660608501528086166080850152505060c060a0830152613e6660c08301846133fe565b98975050505050505050565b61ffff81811683821601908082111561395157613951613903565b5f7fff00000000000000000000000000000000000000000000000000000000000000808a60f81b1683527fffff0000000000000000000000000000000000000000000000000000000000008960f01b1660018401528751613ef5816003860160208c016133dc565b80840190507fffffffffffffffffffffffffffffffffffffffff0000000000000000000000008860601b1660038201528651613f38816017840160208b016133dc565b808201915050818660f81b16601782015284519150613f5e8260188301602088016133dc565b016018019998505050505050505050565b7fff000000000000000000000000000000000000000000000000000000000000008860f81b1681525f7fffff000000000000000000000000000000000000000000000000000000000000808960f01b1660018401528751613fd7816003860160208c016133dc565b80840190507fffffffffffffffffffffffffffffffffffffffff0000000000000000000000008860601b166003820152865161401a816017840160208b016133dc565b808201915050818660f01b166017820152845191506140408260198301602088016133dc565b016019019998505050505050505050565b5f8651614062818460208b016133dc565b9190910194855250602084019290925260f81b7fff000000000000000000000000000000000000000000000000000000000000009081166040840152166041820152604201919050565b818382375f9101908152919050565b84815273ffffffffffffffffffffffffffffffffffffffff8416602082015260606040820152816060820152818360808301375f818301608090810191909152601f9092017fffffffffffffffffffffffffffffffffffffffffffffffffffffffffffffffe01601019392505050565b5f8251613d0c8184602087016133dc56fea26469706673582212204199bee75172b6df87456fbd3d395b9339cfeb50c9ce237e7bfa7cdbbc43d07364736f6c63430008140033",
  "linkReferences": {},
  "deployedLinkReferences": {}
}