{
  "_format": "hh-sol-artifact-1",
  "contractName": "PolygonDataCommittee",
  "sourceName": "contracts/v2/consensus/feijoa/validium/PolygonDataCommittee.sol",
  "abi": [
    {
      "inputs": [],
      "stateMutability": "nonpayable",
      "type": "constructor"
    },
    {
      "inputs": [],
      "name": "CommitteeAddressDoesNotExist",
      "type": "error"
    },
    {
      "inputs": [],
      "name": "EmptyURLNotAllowed",
      "type": "error"
    },
    {
      "inputs": [],
      "name": "TooManyRequiredSignatures",
      "type": "error"
    },
    {
      "inputs": [],
      "name": "UnexpectedAddrsAndSignaturesSize",
      "type": "error"
    },
    {
      "inputs": [],
      "name": "UnexpectedAddrsBytesLength",
      "type": "error"
    },
    {
      "inputs": [],
      "name": "UnexpectedCommitteeHash",
      "type": "error"
    },
    {
      "inputs": [],
      "name": "WrongAddrOrder",
      "type": "error"
    },
    {
      "anonymous": false,
      "inputs": [
        {
          "indexed": false,
          "internalType": "bytes32",
          "name": "committeeHash",
          "type": "bytes32"
        }
      ],
      "name": "CommitteeUpdated",
      "type": "event"
    },
    {
      "anonymous": false,
      "inputs": [
        {
          "indexed": false,
          "internalType": "uint8",
          "name": "version",
          "type": "uint8"
        }
      ],
      "name": "Initialized",
      "type": "event"
    },
    {
      "anonymous": false,
      "inputs": [
        {
          "indexed": true,
          "internalType": "address",
          "name": "previousOwner",
          "type": "address"
        },
        {
          "indexed": true,
          "internalType": "address",
          "name": "newOwner",
          "type": "address"
        }
      ],
      "name": "OwnershipTransferred",
      "type": "event"
    },
    {
      "inputs": [],
      "name": "committeeHash",
      "outputs": [
        {
          "internalType": "bytes32",
          "name": "",
          "type": "bytes32"
        }
      ],
      "stateMutability": "view",
      "type": "function"
    },
    {
      "inputs": [],
      "name": "getAmountOfMembers",
      "outputs": [
        {
          "internalType": "uint256",
          "name": "",
          "type": "uint256"
        }
      ],
      "stateMutability": "view",
      "type": "function"
    },
    {
      "inputs": [],
      "name": "getProcotolName",
      "outputs": [
        {
          "internalType": "string",
          "name": "",
          "type": "string"
        }
      ],
      "stateMutability": "pure",
      "type": "function"
    },
    {
      "inputs": [],
      "name": "initialize",
      "outputs": [],
      "stateMutability": "nonpayable",
      "type": "function"
    },
    {
      "inputs": [
        {
          "internalType": "uint256",
          "name": "",
          "type": "uint256"
        }
      ],
      "name": "members",
      "outputs": [
        {
          "internalType": "string",
          "name": "url",
          "type": "string"
        },
        {
          "internalType": "address",
          "name": "addr",
          "type": "address"
        }
      ],
      "stateMutability": "view",
      "type": "function"
    },
    {
      "inputs": [],
      "name": "owner",
      "outputs": [
        {
          "internalType": "address",
          "name": "",
          "type": "address"
        }
      ],
      "stateMutability": "view",
      "type": "function"
    },
    {
      "inputs": [],
      "name": "renounceOwnership",
      "outputs": [],
      "stateMutability": "nonpayable",
      "type": "function"
    },
    {
      "inputs": [],
      "name": "requiredAmountOfSignatures",
      "outputs": [
        {
          "internalType": "uint256",
          "name": "",
          "type": "uint256"
        }
      ],
      "stateMutability": "view",
      "type": "function"
    },
    {
      "inputs": [
        {
          "internalType": "uint256",
          "name": "_requiredAmountOfSignatures",
          "type": "uint256"
        },
        {
          "internalType": "string[]",
          "name": "urls",
          "type": "string[]"
        },
        {
          "internalType": "bytes",
          "name": "addrsBytes",
          "type": "bytes"
        }
      ],
      "name": "setupCommittee",
      "outputs": [],
      "stateMutability": "nonpayable",
      "type": "function"
    },
    {
      "inputs": [
        {
          "internalType": "address",
          "name": "newOwner",
          "type": "address"
        }
      ],
      "name": "transferOwnership",
      "outputs": [],
      "stateMutability": "nonpayable",
      "type": "function"
    },
    {
      "inputs": [
        {
          "internalType": "bytes32",
          "name": "signedHash",
          "type": "bytes32"
        },
        {
          "internalType": "bytes",
          "name": "signaturesAndAddrs",
          "type": "bytes"
        }
      ],
      "name": "verifyMessage",
      "outputs": [],
      "stateMutability": "view",
      "type": "function"
    }
  ],
  "bytecode": "0x608060405234801561000f575f80fd5b5061001861001d565b6100da565b5f54610100900460ff16156100885760405162461bcd60e51b815260206004820152602760248201527f496e697469616c697a61626c653a20636f6e747261637420697320696e697469604482015266616c697a696e6760c81b606482015260840160405180910390fd5b5f5460ff90811610156100d8575f805460ff191660ff9081179091556040519081527f7f26b83ff96e1f2b6a682f133852f6798a09c465da95921460cefb38474024989060200160405180910390a15b565b611584806100e75f395ff3fe608060405234801561000f575f80fd5b50600436106100c4575f3560e01c8063715018a61161007d578063dce1e2b611610058578063dce1e2b614610172578063e4f171201461017a578063f2fde38b146101b9575f80fd5b8063715018a61461013a5780638129fc1c146101425780638da5cb5b1461014a575f80fd5b80635daf08ca116100ad5780635daf08ca146100f0578063609d45441461011a5780636beedd3914610131575f80fd5b8063078fba2a146100c85780633b51be4b146100dd575b5f80fd5b6100db6100d6366004610f8d565b6101cc565b005b6100db6100eb36600461102f565b6104c0565b6101036100fe366004611077565b6106ec565b6040516101119291906110ef565b60405180910390f35b61012360665481565b604051908152602001610111565b61012360655481565b6100db6107b7565b6100db6107ca565b60335460405173ffffffffffffffffffffffffffffffffffffffff9091168152602001610111565b606754610123565b604080518082018252601981527f44617461417661696c6162696c697479436f6d6d697474656500000000000000602082015290516101119190611126565b6100db6101c736600461113f565b61095b565b6101d4610a0f565b828581101561020f576040517f2e7dcd6e00000000000000000000000000000000000000000000000000000000815260040160405180910390fd5b61021a60148261119f565b8214610252576040517f2ab6a12900000000000000000000000000000000000000000000000000000000815260040160405180910390fd5b61025d60675f610ea5565b5f805b82811015610464575f61027460148361119f565b90505f8682876102856014836111b6565b92610292939291906111c9565b61029b916111f0565b60601c90508888848181106102b2576102b2611238565b90506020028101906102c49190611265565b90505f036102fe576040517fb54b70e400000000000000000000000000000000000000000000000000000000815260040160405180910390fd5b8073ffffffffffffffffffffffffffffffffffffffff168473ffffffffffffffffffffffffffffffffffffffff1610610363576040517fd53cfbe000000000000000000000000000000000000000000000000000000000815260040160405180910390fd5b606760405180604001604052808b8b8781811061038257610382611238565b90506020028101906103949190611265565b8080601f0160208091040260200160405190810160405280939291908181526020018383808284375f92018290525093855250505073ffffffffffffffffffffffffffffffffffffffff851660209283015283546001810185559381522081519192600202019081906104079082611390565b5060209190910151600191820180547fffffffffffffffffffffffff00000000000000000000000000000000000000001673ffffffffffffffffffffffffffffffffffffffff909216919091179055909350919091019050610260565b5083836040516104759291906114ac565b6040519081900381206066819055606589905581527f831403fd381b3e6ac875d912ec2eee0e0203d0d29f7b3e0c96fc8f582d6db6579060200160405180910390a150505050505050565b6065545f6104cf82604161119f565b9050808310806104f3575060146104e682856114bb565b6104f091906114fb565b15155b1561052a576040517f6b8eec4600000000000000000000000000000000000000000000000000000000815260040160405180910390fd5b606654610539848381886111c9565b6040516105479291906114ac565b604051809103902014610586576040517f6b156b2800000000000000000000000000000000000000000000000000000000815260040160405180910390fd5b5f80601461059484876114bb565b61059e919061150e565b90505f5b848110156106e2575f6105b660418361119f565b90505f6106118a8a848b6105cb6041836111b6565b926105d8939291906111c9565b8080601f0160208091040260200160405190810160405280939291908181526020018383808284375f92019190915250610a9092505050565b90505f855b8581101561069f575f61062a60148361119f565b610634908a6111b6565b90505f8c828d6106456014836111b6565b92610652939291906111c9565b61065b916111f0565b60601c905073ffffffffffffffffffffffffffffffffffffffff85168103610695576106888360016111b6565b985060019350505061069f565b5050600101610616565b50806106d7576040517fe12afaf500000000000000000000000000000000000000000000000000000000815260040160405180910390fd5b5050506001016105a2565b5050505050505050565b606781815481106106fb575f80fd5b905f5260205f2090600202015f91509050805f01805461071a906112f3565b80601f0160208091040260200160405190810160405280929190818152602001828054610746906112f3565b80156107915780601f1061076857610100808354040283529160200191610791565b820191905f5260205f20905b81548152906001019060200180831161077457829003601f168201915b5050506001909301549192505073ffffffffffffffffffffffffffffffffffffffff1682565b6107bf610a0f565b6107c85f610ab4565b565b5f54610100900460ff16158080156107e857505f54600160ff909116105b806108015750303b15801561080157505f5460ff166001145b610892576040517f08c379a000000000000000000000000000000000000000000000000000000000815260206004820152602e60248201527f496e697469616c697a61626c653a20636f6e747261637420697320616c72656160448201527f647920696e697469616c697a656400000000000000000000000000000000000060648201526084015b60405180910390fd5b5f80547fffffffffffffffffffffffffffffffffffffffffffffffffffffffffffffff0016600117905580156108ee575f80547fffffffffffffffffffffffffffffffffffffffffffffffffffffffffffff00ff166101001790555b6108f6610b2a565b8015610958575f80547fffffffffffffffffffffffffffffffffffffffffffffffffffffffffffff00ff169055604051600181527f7f26b83ff96e1f2b6a682f133852f6798a09c465da95921460cefb38474024989060200160405180910390a15b50565b610963610a0f565b73ffffffffffffffffffffffffffffffffffffffff8116610a06576040517f08c379a000000000000000000000000000000000000000000000000000000000815260206004820152602660248201527f4f776e61626c653a206e6577206f776e657220697320746865207a65726f206160448201527f64647265737300000000000000000000000000000000000000000000000000006064820152608401610889565b61095881610ab4565b60335473ffffffffffffffffffffffffffffffffffffffff1633146107c8576040517f08c379a000000000000000000000000000000000000000000000000000000000815260206004820181905260248201527f4f776e61626c653a2063616c6c6572206973206e6f7420746865206f776e65726044820152606401610889565b5f805f610a9d8585610bc9565b91509150610aaa81610c0b565b5090505b92915050565b6033805473ffffffffffffffffffffffffffffffffffffffff8381167fffffffffffffffffffffffff0000000000000000000000000000000000000000831681179093556040519116919082907f8be0079c531659141344cd1fd0a4f28419497f9722a3daafe3b4186f6b6457e0905f90a35050565b5f54610100900460ff16610bc0576040517f08c379a000000000000000000000000000000000000000000000000000000000815260206004820152602b60248201527f496e697469616c697a61626c653a20636f6e7472616374206973206e6f74206960448201527f6e697469616c697a696e670000000000000000000000000000000000000000006064820152608401610889565b6107c833610ab4565b5f808251604103610bfd576020830151604084015160608501515f1a610bf187828585610dbd565b94509450505050610c04565b505f905060025b9250929050565b5f816004811115610c1e57610c1e611521565b03610c265750565b6001816004811115610c3a57610c3a611521565b03610ca1576040517f08c379a000000000000000000000000000000000000000000000000000000000815260206004820152601860248201527f45434453413a20696e76616c6964207369676e617475726500000000000000006044820152606401610889565b6002816004811115610cb557610cb5611521565b03610d1c576040517f08c379a000000000000000000000000000000000000000000000000000000000815260206004820152601f60248201527f45434453413a20696e76616c6964207369676e6174757265206c656e677468006044820152606401610889565b6003816004811115610d3057610d30611521565b03610958576040517f08c379a000000000000000000000000000000000000000000000000000000000815260206004820152602260248201527f45434453413a20696e76616c6964207369676e6174757265202773272076616c60448201527f75650000000000000000000000000000000000000000000000000000000000006064820152608401610889565b5f807f7fffffffffffffffffffffffffffffff5d576e7357a4501ddfe92f46681b20a0831115610df257505f90506003610e9c565b604080515f8082526020820180845289905260ff881692820192909252606081018690526080810185905260019060a0016020604051602081039080840390855afa158015610e43573d5f803e3d5ffd5b50506040517fffffffffffffffffffffffffffffffffffffffffffffffffffffffffffffffe0015191505073ffffffffffffffffffffffffffffffffffffffff8116610e96575f60019250925050610e9c565b91505f90505b94509492505050565b5080545f8255600202905f5260205f209081019061095891905b80821115610f05575f610ed28282610f09565b506001810180547fffffffffffffffffffffffff0000000000000000000000000000000000000000169055600201610ebf565b5090565b508054610f15906112f3565b5f825580601f10610f24575050565b601f0160209004905f5260205f209081019061095891905b80821115610f05575f8155600101610f3c565b5f8083601f840112610f5f575f80fd5b50813567ffffffffffffffff811115610f76575f80fd5b602083019150836020828501011115610c04575f80fd5b5f805f805f60608688031215610fa1575f80fd5b85359450602086013567ffffffffffffffff80821115610fbf575f80fd5b818801915088601f830112610fd2575f80fd5b813581811115610fe0575f80fd5b8960208260051b8501011115610ff4575f80fd5b602083019650809550506040880135915080821115611011575f80fd5b5061101e88828901610f4f565b969995985093965092949392505050565b5f805f60408486031215611041575f80fd5b83359250602084013567ffffffffffffffff81111561105e575f80fd5b61106a86828701610f4f565b9497909650939450505050565b5f60208284031215611087575f80fd5b5035919050565b5f81518084525f5b818110156110b257602081850181015186830182015201611096565b505f6020828601015260207fffffffffffffffffffffffffffffffffffffffffffffffffffffffffffffffe0601f83011685010191505092915050565b604081525f611101604083018561108e565b905073ffffffffffffffffffffffffffffffffffffffff831660208301529392505050565b602081525f611138602083018461108e565b9392505050565b5f6020828403121561114f575f80fd5b813573ffffffffffffffffffffffffffffffffffffffff81168114611138575f80fd5b7f4e487b71000000000000000000000000000000000000000000000000000000005f52601160045260245ffd5b8082028115828204841417610aae57610aae611172565b80820180821115610aae57610aae611172565b5f80858511156111d7575f80fd5b838611156111e3575f80fd5b5050820193919092039150565b7fffffffffffffffffffffffffffffffffffffffff00000000000000000000000081358181169160148510156112305780818660140360031b1b83161692505b505092915050565b7f4e487b71000000000000000000000000000000000000000000000000000000005f52603260045260245ffd5b5f8083357fffffffffffffffffffffffffffffffffffffffffffffffffffffffffffffffe1843603018112611298575f80fd5b83018035915067ffffffffffffffff8211156112b2575f80fd5b602001915036819003821315610c04575f80fd5b7f4e487b71000000000000000000000000000000000000000000000000000000005f52604160045260245ffd5b600181811c9082168061130757607f821691505b60208210810361133e577f4e487b71000000000000000000000000000000000000000000000000000000005f52602260045260245ffd5b50919050565b601f82111561138b57805f5260205f20601f840160051c810160208510156113695750805b601f840160051c820191505b81811015611388575f8155600101611375565b50505b505050565b815167ffffffffffffffff8111156113aa576113aa6112c6565b6113be816113b884546112f3565b84611344565b602080601f831160018114611410575f84156113da5750858301515b7fffffffffffffffffffffffffffffffffffffffffffffffffffffffffffffffff600386901b1c1916600185901b1785556114a4565b5f858152602081207fffffffffffffffffffffffffffffffffffffffffffffffffffffffffffffffe08616915b8281101561145c5788860151825594840194600190910190840161143d565b508582101561149857878501517fffffffffffffffffffffffffffffffffffffffffffffffffffffffffffffffff600388901b60f8161c191681555b505060018460011b0185555b505050505050565b818382375f9101908152919050565b81810381811115610aae57610aae611172565b7f4e487b71000000000000000000000000000000000000000000000000000000005f52601260045260245ffd5b5f82611509576115096114ce565b500690565b5f8261151c5761151c6114ce565b500490565b7f4e487b71000000000000000000000000000000000000000000000000000000005f52602160045260245ffdfea2646970667358221220561352598ede77438e77bd19ad899bd2beb740423f3c071b94949ee63df01d0e64736f6c63430008180033",
  "linkReferences": {},
  "deployedLinkReferences": {}
}