{
  "_format": "hh-sol-artifact-1",
  "contractName": "PolygonZkEVMGlobalExitRootMock",
  "sourceName": "contracts/mocks/PolygonZkEVMGlobalExitRootMock.sol",
  "abi": [
    {
      "inputs": [
        {
          "internalType": "address",
          "name": "_rollupAddress",
          "type": "address"
        },
        {
          "internalType": "address",
          "name": "_bridgeAddress",
          "type": "address"
        }
      ],
      "stateMutability": "nonpayable",
      "type": "constructor"
    },
    {
      "anonymous": false,
      "inputs": [
        {
          "indexed": false,
          "internalType": "uint8",
          "name": "version",
          "type": "uint8"
        }
      ],
      "name": "Initialized",
      "type": "event"
    },
    {
      "anonymous": false,
      "inputs": [
        {
          "indexed": true,
          "internalType": "bytes32",
          "name": "mainnetExitRoot",
          "type": "bytes32"
        },
        {
          "indexed": true,
          "internalType": "bytes32",
          "name": "rollupExitRoot",
          "type": "bytes32"
        }
      ],
      "name": "UpdateGlobalExitRoot",
      "type": "event"
    },
    {
      "inputs": [],
      "name": "bridgeAddress",
      "outputs": [
        {
          "internalType": "address",
          "name": "",
          "type": "address"
        }
      ],
      "stateMutability": "view",
      "type": "function"
    },
    {
      "inputs": [],
      "name": "getLastGlobalExitRoot",
      "outputs": [
        {
          "internalType": "bytes32",
          "name": "",
          "type": "bytes32"
        }
      ],
      "stateMutability": "view",
      "type": "function"
    },
    {
      "inputs": [
        {
          "internalType": "bytes32",
          "name": "",
          "type": "bytes32"
        }
      ],
      "name": "globalExitRootMap",
      "outputs": [
        {
          "internalType": "uint256",
          "name": "",
          "type": "uint256"
        }
      ],
      "stateMutability": "view",
      "type": "function"
    },
    {
      "inputs": [
        {
          "internalType": "address",
          "name": "_rollupAddress",
          "type": "address"
        },
        {
          "internalType": "address",
          "name": "_bridgeAddress",
          "type": "address"
        }
      ],
      "name": "initialize",
      "outputs": [],
      "stateMutability": "nonpayable",
      "type": "function"
    },
    {
      "inputs": [],
      "name": "lastMainnetExitRoot",
      "outputs": [
        {
          "internalType": "bytes32",
          "name": "",
          "type": "bytes32"
        }
      ],
      "stateMutability": "view",
      "type": "function"
    },
    {
      "inputs": [],
      "name": "lastRollupExitRoot",
      "outputs": [
        {
          "internalType": "bytes32",
          "name": "",
          "type": "bytes32"
        }
      ],
      "stateMutability": "view",
      "type": "function"
    },
    {
      "inputs": [],
      "name": "rollupAddress",
      "outputs": [
        {
          "internalType": "address",
          "name": "",
          "type": "address"
        }
      ],
      "stateMutability": "view",
      "type": "function"
    },
    {
      "inputs": [
        {
          "internalType": "bytes32",
          "name": "globalExitRoot",
          "type": "bytes32"
        },
        {
          "internalType": "uint256",
          "name": "timestamp",
          "type": "uint256"
        }
      ],
      "name": "setGlobalExitRoot",
      "outputs": [],
      "stateMutability": "nonpayable",
      "type": "function"
    },
    {
      "inputs": [
        {
          "internalType": "uint256",
          "name": "timestamp",
          "type": "uint256"
        }
      ],
      "name": "setLastGlobalExitRoot",
      "outputs": [],
      "stateMutability": "nonpayable",
      "type": "function"
    },
    {
      "inputs": [
        {
          "internalType": "bytes32",
          "name": "newRoot",
          "type": "bytes32"
        }
      ],
      "name": "updateExitRoot",
      "outputs": [],
      "stateMutability": "nonpayable",
      "type": "function"
    }
  ],
  "bytecode": "0x608060405234801561001057600080fd5b5060405161074f38038061074f83398101604081905261002f916101bb565b6100398282610040565b50506101ee565b600054610100900460ff16158080156100605750600054600160ff909116105b8061008b57506100793061019060201b6104831760201c565b15801561008b575060005460ff166001145b6100f25760405162461bcd60e51b815260206004820152602e60248201527f496e697469616c697a61626c653a20636f6e747261637420697320616c72656160448201526d191e481a5b9a5d1a585b1a5e995960921b606482015260840160405180910390fd5b6000805460ff191660011790558015610115576000805461ff0019166101001790555b600580546001600160a01b038086166001600160a01b0319928316179092556004805492851692909116919091179055801561018b576000805461ff0019169055604051600181527f7f26b83ff96e1f2b6a682f133852f6798a09c465da95921460cefb38474024989060200160405180910390a15b505050565b6001600160a01b03163b151590565b80516001600160a01b03811681146101b657600080fd5b919050565b600080604083850312156101ce57600080fd5b6101d78361019f565b91506101e56020840161019f565b90509250929050565b610552806101fd6000396000f3fe608060405234801561001057600080fd5b506004361061009e5760003560e01c80633ed691ef116100665780633ed691ef14610110578063485cc955146101185780635bcef6731461012b5780635ec6a8df1461014b578063a3c573eb1461017657600080fd5b806301fd9044146100a3578063051a9e28146100bf578063257b3632146100d4578063319cf735146100f457806333d6247d146100fd575b600080fd5b6100ac60015481565b6040519081526020015b60405180910390f35b6100d26100cd366004610492565b610189565b005b6100ac6100e2366004610492565b60036020526000908152604090205481565b6100ac60025481565b6100d261010b366004610492565b6101aa565b6100ac61030b565b6100d26101263660046104c7565b610341565b6100d26101393660046104fa565b60009182526003602052604090912055565b60055461015e906001600160a01b031681565b6040516001600160a01b0390911681526020016100b6565b60045461015e906001600160a01b031681565b806003600061019661030b565b815260208101919091526040016000205550565b6005546001600160a01b03163314806101cd57506004546001600160a01b031633145b61024f5760405162461bcd60e51b815260206004820152604260248201527f506f6c79676f6e5a6b45564d476c6f62616c45786974526f6f743a3a7570646160448201527f746545786974526f6f743a204f6e6c7920616c6c6f77656420636f6e74726163606482015261747360f01b608482015260a4015b60405180910390fd5b6001546002546005546001600160a01b031633036102705760018390558291505b6004546001600160a01b0316330361028a57506002829055815b60408051602080820184905281830185905282518083038401815260609092018352815191810191909120600081815260039092529181205490036103055760008181526003602052604080822042905551849184917f61014378f82a0d809aefaf87a8ac9505b89c321808287a6e7810f29304c1fce39190a35b50505050565b60025460015460408051602081019390935282015260009060600160405160208183030381529060405280519060200120905090565b600054610100900460ff16158080156103615750600054600160ff909116105b80610382575061037030610483565b158015610382575060005460ff166001145b6103e55760405162461bcd60e51b815260206004820152602e60248201527f496e697469616c697a61626c653a20636f6e747261637420697320616c72656160448201526d191e481a5b9a5d1a585b1a5e995960921b6064820152608401610246565b6000805460ff191660011790558015610408576000805461ff0019166101001790555b600580546001600160a01b038086166001600160a01b0319928316179092556004805492851692909116919091179055801561047e576000805461ff0019169055604051600181527f7f26b83ff96e1f2b6a682f133852f6798a09c465da95921460cefb38474024989060200160405180910390a15b505050565b6001600160a01b03163b151590565b6000602082840312156104a457600080fd5b5035919050565b80356001600160a01b03811681146104c257600080fd5b919050565b600080604083850312156104da57600080fd5b6104e3836104ab565b91506104f1602084016104ab565b90509250929050565b6000806040838503121561050d57600080fd5b5050803592602090910135915056fea2646970667358221220256d07af2847216ebec7109b85e49fd25f1f5a791975403f07587d18189c2c2b64736f6c634300080f0033",
  "linkReferences": {},
  "deployedLinkReferences": {}
}