{
  "_format": "hh-sol-artifact-1",
  "contractName": "PolygonRollupManagerMockInternalTest",
  "sourceName": "contracts/v2/mocks/PolygonRollupManagerMockInternalTest.sol",
  "abi": [
    {
      "inputs": [
        {
          "internalType": "contract IPolygonZkEVMGlobalExitRootV2",
          "name": "_globalExitRootManager",
          "type": "address"
        },
        {
          "internalType": "contract IERC20Upgradeable",
          "name": "_pol",
          "type": "address"
        },
        {
          "internalType": "contract IPolygonZkEVMBridge",
          "name": "_bridgeAddress",
          "type": "address"
        }
      ],
      "stateMutability": "nonpayable",
      "type": "constructor"
    },
    {
      "inputs": [],
      "name": "AccessControlOnlyCanRenounceRolesForSelf",
      "type": "error"
    },
    {
      "inputs": [],
      "name": "AddressDoNotHaveRequiredRole",
      "type": "error"
    },
    {
      "inputs": [],
      "name": "AllBatchesMustBeVerified",
      "type": "error"
    },
    {
      "inputs": [],
      "name": "AllSequencedMustBeVerified",
      "type": "error"
    },
    {
      "inputs": [],
      "name": "AllzkEVMSequencedBatchesMustBeVerified",
      "type": "error"
    },
    {
      "inputs": [],
      "name": "BatchFeeOutOfRange",
      "type": "error"
    },
    {
      "inputs": [],
      "name": "CannotUpdateWithUnconsolidatedPendingState",
      "type": "error"
    },
    {
      "inputs": [],
      "name": "ChainIDAlreadyExist",
      "type": "error"
    },
    {
      "inputs": [],
      "name": "ChainIDOutOfRange",
      "type": "error"
    },
    {
      "inputs": [],
      "name": "EmptyVerifySequencesData",
      "type": "error"
    },
    {
      "inputs": [],
      "name": "ExceedMaxVerifyBatches",
      "type": "error"
    },
    {
      "inputs": [],
      "name": "FinalNumBatchBelowLastVerifiedBatch",
      "type": "error"
    },
    {
      "inputs": [],
      "name": "FinalNumBatchDoesNotMatchPendingState",
      "type": "error"
    },
    {
      "inputs": [],
      "name": "FinalNumSequenceBelowLastVerifiedSequence",
      "type": "error"
    },
    {
      "inputs": [],
      "name": "FinalNumSequenceDoesNotMatchPendingState",
      "type": "error"
    },
    {
      "inputs": [],
      "name": "FinalPendingStateNumInvalid",
      "type": "error"
    },
    {
      "inputs": [],
      "name": "GlobalExitRootNotExist",
      "type": "error"
    },
    {
      "inputs": [],
      "name": "HaltTimeoutNotExpired",
      "type": "error"
    },
    {
      "inputs": [],
      "name": "InitBatchMustMatchCurrentForkID",
      "type": "error"
    },
    {
      "inputs": [],
      "name": "InitNumBatchAboveLastVerifiedBatch",
      "type": "error"
    },
    {
      "inputs": [],
      "name": "InitNumBatchDoesNotMatchPendingState",
      "type": "error"
    },
    {
      "inputs": [],
      "name": "InitSequenceMustMatchCurrentForkID",
      "type": "error"
    },
    {
      "inputs": [],
      "name": "InitSequenceNumDoesNotMatchPendingState",
      "type": "error"
    },
    {
      "inputs": [],
      "name": "InvalidPessimisticProof",
      "type": "error"
    },
    {
      "inputs": [],
      "name": "InvalidProof",
      "type": "error"
    },
    {
      "inputs": [],
      "name": "InvalidRangeBatchTimeTarget",
      "type": "error"
    },
    {
      "inputs": [],
      "name": "InvalidRangeMultiplierBatchFee",
      "type": "error"
    },
    {
      "inputs": [],
      "name": "InvalidRangeMultiplierZkGasPrice",
      "type": "error"
    },
    {
      "inputs": [],
      "name": "InvalidRangeSequenceTimeTarget",
      "type": "error"
    },
    {
      "inputs": [],
      "name": "InvalidRollup",
      "type": "error"
    },
    {
      "inputs": [],
      "name": "InvalidRollupType",
      "type": "error"
    },
    {
      "inputs": [],
      "name": "MustSequenceSomeBatch",
      "type": "error"
    },
    {
      "inputs": [],
      "name": "MustSequenceSomeBlob",
      "type": "error"
    },
    {
      "inputs": [],
      "name": "NewAccInputHashDoesNotExist",
      "type": "error"
    },
    {
      "inputs": [],
      "name": "NewPendingStateTimeoutMustBeLower",
      "type": "error"
    },
    {
      "inputs": [],
      "name": "NewStateRootNotInsidePrime",
      "type": "error"
    },
    {
      "inputs": [],
      "name": "NewTrustedAggregatorTimeoutMustBeLower",
      "type": "error"
    },
    {
      "inputs": [],
      "name": "NotAllowedAddress",
      "type": "error"
    },
    {
      "inputs": [],
      "name": "OldAccInputHashDoesNotExist",
      "type": "error"
    },
    {
      "inputs": [],
      "name": "OldStateRootDoesNotExist",
      "type": "error"
    },
    {
      "inputs": [],
      "name": "OnlyChainsWithPessimisticProofs",
      "type": "error"
    },
    {
      "inputs": [],
      "name": "OnlyEmergencyState",
      "type": "error"
    },
    {
      "inputs": [],
      "name": "OnlyNotEmergencyState",
      "type": "error"
    },
    {
      "inputs": [],
      "name": "OnlyRollupAdmin",
      "type": "error"
    },
    {
      "inputs": [],
      "name": "OnlyStateTransitionChains",
      "type": "error"
    },
    {
      "inputs": [],
      "name": "PendingStateDoesNotExist",
      "type": "error"
    },
    {
      "inputs": [],
      "name": "PendingStateInvalid",
      "type": "error"
    },
    {
      "inputs": [],
      "name": "PendingStateNotConsolidable",
      "type": "error"
    },
    {
      "inputs": [],
      "name": "PendingStateNumExist",
      "type": "error"
    },
    {
      "inputs": [],
      "name": "RollbackBatchIsNotEndOfSequence",
      "type": "error"
    },
    {
      "inputs": [],
      "name": "RollbackBatchIsNotValid",
      "type": "error"
    },
    {
      "inputs": [],
      "name": "RollupAddressAlreadyExist",
      "type": "error"
    },
    {
      "inputs": [],
      "name": "RollupIDNotAscendingOrder",
      "type": "error"
    },
    {
      "inputs": [],
      "name": "RollupMustExist",
      "type": "error"
    },
    {
      "inputs": [],
      "name": "RollupTypeDoesNotExist",
      "type": "error"
    },
    {
      "inputs": [],
      "name": "RollupTypeObsolete",
      "type": "error"
    },
    {
      "inputs": [],
      "name": "SenderMustBeRollup",
      "type": "error"
    },
    {
      "inputs": [],
      "name": "StoredRootMustBeDifferentThanNewRoot",
      "type": "error"
    },
    {
      "inputs": [],
      "name": "TrustedAggregatorTimeoutNotExpired",
      "type": "error"
    },
    {
      "inputs": [],
      "name": "UpdateNotCompatible",
      "type": "error"
    },
    {
      "inputs": [],
      "name": "UpdateToOldRollupTypeID",
      "type": "error"
    },
    {
      "inputs": [],
      "name": "UpdateToSameRollupTypeID",
      "type": "error"
    },
    {
      "inputs": [],
      "name": "zkGasPriceOfRange",
      "type": "error"
    },
    {
      "anonymous": false,
      "inputs": [
        {
          "indexed": true,
          "internalType": "uint32",
          "name": "rollupID",
          "type": "uint32"
        },
        {
          "indexed": false,
          "internalType": "uint64",
          "name": "forkID",
          "type": "uint64"
        },
        {
          "indexed": false,
          "internalType": "address",
          "name": "rollupAddress",
          "type": "address"
        },
        {
          "indexed": false,
          "internalType": "uint64",
          "name": "chainID",
          "type": "uint64"
        },
        {
          "indexed": false,
          "internalType": "enum PolygonRollupManager.VerifierType",
          "name": "rollupVerifierType",
          "type": "uint8"
        },
        {
          "indexed": false,
          "internalType": "uint64",
          "name": "lastVerifiedBatchBeforeUpgrade",
          "type": "uint64"
        },
        {
          "indexed": false,
          "internalType": "bytes32",
          "name": "programVKey",
          "type": "bytes32"
        }
      ],
      "name": "AddExistingRollup",
      "type": "event"
    },
    {
      "anonymous": false,
      "inputs": [
        {
          "indexed": true,
          "internalType": "uint32",
          "name": "rollupTypeID",
          "type": "uint32"
        },
        {
          "indexed": false,
          "internalType": "address",
          "name": "consensusImplementation",
          "type": "address"
        },
        {
          "indexed": false,
          "internalType": "address",
          "name": "verifier",
          "type": "address"
        },
        {
          "indexed": false,
          "internalType": "uint64",
          "name": "forkID",
          "type": "uint64"
        },
        {
          "indexed": false,
          "internalType": "enum PolygonRollupManager.VerifierType",
          "name": "rollupVerifierType",
          "type": "uint8"
        },
        {
          "indexed": false,
          "internalType": "bytes32",
          "name": "genesis",
          "type": "bytes32"
        },
        {
          "indexed": false,
          "internalType": "string",
          "name": "description",
          "type": "string"
        },
        {
          "indexed": false,
          "internalType": "bytes32",
          "name": "programVKey",
          "type": "bytes32"
        }
      ],
      "name": "AddNewRollupType",
      "type": "event"
    },
    {
      "anonymous": false,
      "inputs": [
        {
          "indexed": true,
          "internalType": "uint32",
          "name": "rollupID",
          "type": "uint32"
        },
        {
          "indexed": false,
          "internalType": "uint32",
          "name": "rollupTypeID",
          "type": "uint32"
        },
        {
          "indexed": false,
          "internalType": "address",
          "name": "rollupAddress",
          "type": "address"
        },
        {
          "indexed": false,
          "internalType": "uint64",
          "name": "chainID",
          "type": "uint64"
        },
        {
          "indexed": false,
          "internalType": "address",
          "name": "gasTokenAddress",
          "type": "address"
        }
      ],
      "name": "CreateNewRollup",
      "type": "event"
    },
    {
      "anonymous": false,
      "inputs": [],
      "name": "EmergencyStateActivated",
      "type": "event"
    },
    {
      "anonymous": false,
      "inputs": [],
      "name": "EmergencyStateDeactivated",
      "type": "event"
    },
    {
      "anonymous": false,
      "inputs": [
        {
          "indexed": false,
          "internalType": "uint8",
          "name": "version",
          "type": "uint8"
        }
      ],
      "name": "Initialized",
      "type": "event"
    },
    {
      "anonymous": false,
      "inputs": [
        {
          "indexed": true,
          "internalType": "uint32",
          "name": "rollupTypeID",
          "type": "uint32"
        }
      ],
      "name": "ObsoleteRollupType",
      "type": "event"
    },
    {
      "anonymous": false,
      "inputs": [
        {
          "indexed": true,
          "internalType": "uint32",
          "name": "rollupID",
          "type": "uint32"
        },
        {
          "indexed": false,
          "internalType": "uint64",
          "name": "lastBatchSequenced",
          "type": "uint64"
        }
      ],
      "name": "OnSequenceBatches",
      "type": "event"
    },
    {
      "anonymous": false,
      "inputs": [
        {
          "indexed": true,
          "internalType": "bytes32",
          "name": "role",
          "type": "bytes32"
        },
        {
          "indexed": true,
          "internalType": "bytes32",
          "name": "previousAdminRole",
          "type": "bytes32"
        },
        {
          "indexed": true,
          "internalType": "bytes32",
          "name": "newAdminRole",
          "type": "bytes32"
        }
      ],
      "name": "RoleAdminChanged",
      "type": "event"
    },
    {
      "anonymous": false,
      "inputs": [
        {
          "indexed": true,
          "internalType": "bytes32",
          "name": "role",
          "type": "bytes32"
        },
        {
          "indexed": true,
          "internalType": "address",
          "name": "account",
          "type": "address"
        },
        {
          "indexed": true,
          "internalType": "address",
          "name": "sender",
          "type": "address"
        }
      ],
      "name": "RoleGranted",
      "type": "event"
    },
    {
      "anonymous": false,
      "inputs": [
        {
          "indexed": true,
          "internalType": "bytes32",
          "name": "role",
          "type": "bytes32"
        },
        {
          "indexed": true,
          "internalType": "address",
          "name": "account",
          "type": "address"
        },
        {
          "indexed": true,
          "internalType": "address",
          "name": "sender",
          "type": "address"
        }
      ],
      "name": "RoleRevoked",
      "type": "event"
    },
    {
      "anonymous": false,
      "inputs": [
        {
          "indexed": true,
          "internalType": "uint32",
          "name": "rollupID",
          "type": "uint32"
        },
        {
          "indexed": true,
          "internalType": "uint64",
          "name": "targetBatch",
          "type": "uint64"
        },
        {
          "indexed": false,
          "internalType": "bytes32",
          "name": "accInputHashToRollback",
          "type": "bytes32"
        }
      ],
      "name": "RollbackBatches",
      "type": "event"
    },
    {
      "anonymous": false,
      "inputs": [
        {
          "indexed": false,
          "internalType": "uint256",
          "name": "newBatchFee",
          "type": "uint256"
        }
      ],
      "name": "SetBatchFee",
      "type": "event"
    },
    {
      "anonymous": false,
      "inputs": [
        {
          "indexed": false,
          "internalType": "address",
          "name": "newTrustedAggregator",
          "type": "address"
        }
      ],
      "name": "SetTrustedAggregator",
      "type": "event"
    },
    {
      "anonymous": false,
      "inputs": [
        {
          "indexed": true,
          "internalType": "uint32",
          "name": "rollupID",
          "type": "uint32"
        },
        {
          "indexed": false,
          "internalType": "uint32",
          "name": "newRollupTypeID",
          "type": "uint32"
        },
        {
          "indexed": false,
          "internalType": "uint64",
          "name": "lastVerifiedBatchBeforeUpgrade",
          "type": "uint64"
        }
      ],
      "name": "UpdateRollup",
      "type": "event"
    },
    {
      "anonymous": false,
      "inputs": [
        {
          "indexed": true,
          "internalType": "uint32",
          "name": "rollupID",
          "type": "uint32"
        },
        {
          "indexed": false,
          "internalType": "uint64",
          "name": "numBatch",
          "type": "uint64"
        },
        {
          "indexed": false,
          "internalType": "bytes32",
          "name": "stateRoot",
          "type": "bytes32"
        },
        {
          "indexed": false,
          "internalType": "bytes32",
          "name": "exitRoot",
          "type": "bytes32"
        },
        {
          "indexed": true,
          "internalType": "address",
          "name": "aggregator",
          "type": "address"
        }
      ],
      "name": "VerifyBatchesTrustedAggregator",
      "type": "event"
    },
    {
      "inputs": [],
      "name": "DEFAULT_ADMIN_ROLE",
      "outputs": [
        {
          "internalType": "bytes32",
          "name": "",
          "type": "bytes32"
        }
      ],
      "stateMutability": "view",
      "type": "function"
    },
    {
      "inputs": [],
      "name": "activateEmergencyState",
      "outputs": [],
      "stateMutability": "nonpayable",
      "type": "function"
    },
    {
      "inputs": [
        {
          "internalType": "contract IPolygonRollupBase",
          "name": "rollupAddress",
          "type": "address"
        },
        {
          "internalType": "address",
          "name": "verifier",
          "type": "address"
        },
        {
          "internalType": "uint64",
          "name": "forkID",
          "type": "uint64"
        },
        {
          "internalType": "uint64",
          "name": "chainID",
          "type": "uint64"
        },
        {
          "internalType": "bytes32",
          "name": "initRoot",
          "type": "bytes32"
        },
        {
          "internalType": "enum PolygonRollupManager.VerifierType",
          "name": "rollupVerifierType",
          "type": "uint8"
        },
        {
          "internalType": "bytes32",
          "name": "programVKey",
          "type": "bytes32"
        }
      ],
      "name": "addExistingRollup",
      "outputs": [],
      "stateMutability": "nonpayable",
      "type": "function"
    },
    {
      "inputs": [
        {
          "internalType": "address",
          "name": "consensusImplementation",
          "type": "address"
        },
        {
          "internalType": "address",
          "name": "verifier",
          "type": "address"
        },
        {
          "internalType": "uint64",
          "name": "forkID",
          "type": "uint64"
        },
        {
          "internalType": "enum PolygonRollupManager.VerifierType",
          "name": "rollupVerifierType",
          "type": "uint8"
        },
        {
          "internalType": "bytes32",
          "name": "genesis",
          "type": "bytes32"
        },
        {
          "internalType": "string",
          "name": "description",
          "type": "string"
        },
        {
          "internalType": "bytes32",
          "name": "programVKey",
          "type": "bytes32"
        }
      ],
      "name": "addNewRollupType",
      "outputs": [],
      "stateMutability": "nonpayable",
      "type": "function"
    },
    {
      "inputs": [],
      "name": "bridgeAddress",
      "outputs": [
        {
          "internalType": "contract IPolygonZkEVMBridge",
          "name": "",
          "type": "address"
        }
      ],
      "stateMutability": "view",
      "type": "function"
    },
    {
      "inputs": [],
      "name": "calculateRewardPerBatch",
      "outputs": [
        {
          "internalType": "uint256",
          "name": "",
          "type": "uint256"
        }
      ],
      "stateMutability": "view",
      "type": "function"
    },
    {
      "inputs": [
        {
          "internalType": "uint64",
          "name": "chainID",
          "type": "uint64"
        }
      ],
      "name": "chainIDToRollupID",
      "outputs": [
        {
          "internalType": "uint32",
          "name": "rollupID",
          "type": "uint32"
        }
      ],
      "stateMutability": "view",
      "type": "function"
    },
    {
      "inputs": [
        {
          "internalType": "uint32",
          "name": "rollupTypeID",
          "type": "uint32"
        },
        {
          "internalType": "uint64",
          "name": "chainID",
          "type": "uint64"
        },
        {
          "internalType": "address",
          "name": "admin",
          "type": "address"
        },
        {
          "internalType": "address",
          "name": "sequencer",
          "type": "address"
        },
        {
          "internalType": "address",
          "name": "gasTokenAddress",
          "type": "address"
        },
        {
          "internalType": "string",
          "name": "sequencerURL",
          "type": "string"
        },
        {
          "internalType": "string",
          "name": "networkName",
          "type": "string"
        }
      ],
      "name": "createNewRollup",
      "outputs": [],
      "stateMutability": "nonpayable",
      "type": "function"
    },
    {
      "inputs": [],
      "name": "deactivateEmergencyState",
      "outputs": [],
      "stateMutability": "nonpayable",
      "type": "function"
    },
    {
      "inputs": [],
      "name": "getBatchFee",
      "outputs": [
        {
          "internalType": "uint256",
          "name": "",
          "type": "uint256"
        }
      ],
      "stateMutability": "view",
      "type": "function"
    },
    {
      "inputs": [],
      "name": "getForcedBatchFee",
      "outputs": [
        {
          "internalType": "uint256",
          "name": "",
          "type": "uint256"
        }
      ],
      "stateMutability": "view",
      "type": "function"
    },
    {
      "inputs": [
        {
          "internalType": "uint32",
          "name": "rollupID",
          "type": "uint32"
        },
        {
          "internalType": "bytes32",
          "name": "selectedGlobalExitRoot",
          "type": "bytes32"
        },
        {
          "internalType": "bytes32",
          "name": "newLocalExitRoot",
          "type": "bytes32"
        },
        {
          "internalType": "bytes32",
          "name": "newPessimisticRoot",
          "type": "bytes32"
        }
      ],
      "name": "getInputPessimisticBytes",
      "outputs": [
        {
          "internalType": "bytes",
          "name": "",
          "type": "bytes"
        }
      ],
      "stateMutability": "view",
      "type": "function"
    },
    {
      "inputs": [
        {
          "internalType": "uint32",
          "name": "rollupID",
          "type": "uint32"
        },
        {
          "internalType": "uint64",
          "name": "initNumBatch",
          "type": "uint64"
        },
        {
          "internalType": "uint64",
          "name": "finalNewBatch",
          "type": "uint64"
        },
        {
          "internalType": "bytes32",
          "name": "newLocalExitRoot",
          "type": "bytes32"
        },
        {
          "internalType": "bytes32",
          "name": "oldStateRoot",
          "type": "bytes32"
        },
        {
          "internalType": "bytes32",
          "name": "newStateRoot",
          "type": "bytes32"
        }
      ],
      "name": "getInputSnarkBytes",
      "outputs": [
        {
          "internalType": "bytes",
          "name": "",
          "type": "bytes"
        }
      ],
      "stateMutability": "view",
      "type": "function"
    },
    {
      "inputs": [
        {
          "internalType": "uint32",
          "name": "rollupID",
          "type": "uint32"
        }
      ],
      "name": "getLastVerifiedBatch",
      "outputs": [
        {
          "internalType": "uint64",
          "name": "",
          "type": "uint64"
        }
      ],
      "stateMutability": "view",
      "type": "function"
    },
    {
      "inputs": [
        {
          "internalType": "bytes32",
          "name": "role",
          "type": "bytes32"
        }
      ],
      "name": "getRoleAdmin",
      "outputs": [
        {
          "internalType": "bytes32",
          "name": "",
          "type": "bytes32"
        }
      ],
      "stateMutability": "view",
      "type": "function"
    },
    {
      "inputs": [
        {
          "internalType": "uint32",
          "name": "rollupID",
          "type": "uint32"
        },
        {
          "internalType": "uint64",
          "name": "batchNum",
          "type": "uint64"
        }
      ],
      "name": "getRollupBatchNumToStateRoot",
      "outputs": [
        {
          "internalType": "bytes32",
          "name": "",
          "type": "bytes32"
        }
      ],
      "stateMutability": "view",
      "type": "function"
    },
    {
      "inputs": [],
      "name": "getRollupExitRoot",
      "outputs": [
        {
          "internalType": "bytes32",
          "name": "",
          "type": "bytes32"
        }
      ],
      "stateMutability": "view",
      "type": "function"
    },
    {
      "inputs": [
        {
          "internalType": "uint32",
          "name": "rollupID",
          "type": "uint32"
        },
        {
          "internalType": "uint64",
          "name": "batchNum",
          "type": "uint64"
        }
      ],
      "name": "getRollupSequencedBatches",
      "outputs": [
        {
          "components": [
            {
              "internalType": "bytes32",
              "name": "accInputHash",
              "type": "bytes32"
            },
            {
              "internalType": "uint64",
              "name": "sequencedTimestamp",
              "type": "uint64"
            },
            {
              "internalType": "uint64",
              "name": "previousLastBatchSequenced",
              "type": "uint64"
            }
          ],
          "internalType": "struct LegacyZKEVMStateVariables.SequencedBatchData",
          "name": "",
          "type": "tuple"
        }
      ],
      "stateMutability": "view",
      "type": "function"
    },
    {
      "inputs": [],
      "name": "globalExitRootManager",
      "outputs": [
        {
          "internalType": "contract IPolygonZkEVMGlobalExitRootV2",
          "name": "",
          "type": "address"
        }
      ],
      "stateMutability": "view",
      "type": "function"
    },
    {
      "inputs": [
        {
          "internalType": "bytes32",
          "name": "role",
          "type": "bytes32"
        },
        {
          "internalType": "address",
          "name": "account",
          "type": "address"
        }
      ],
      "name": "grantRole",
      "outputs": [],
      "stateMutability": "nonpayable",
      "type": "function"
    },
    {
      "inputs": [
        {
          "internalType": "bytes32",
          "name": "role",
          "type": "bytes32"
        },
        {
          "internalType": "address",
          "name": "account",
          "type": "address"
        }
      ],
      "name": "hasRole",
      "outputs": [
        {
          "internalType": "bool",
          "name": "",
          "type": "bool"
        }
      ],
      "stateMutability": "view",
      "type": "function"
    },
    {
      "inputs": [
        {
          "internalType": "address",
          "name": "trustedAggregator",
          "type": "address"
        },
        {
          "internalType": "uint64",
          "name": "_pendingStateTimeout",
          "type": "uint64"
        },
        {
          "internalType": "uint64",
          "name": "_trustedAggregatorTimeout",
          "type": "uint64"
        },
        {
          "internalType": "address",
          "name": "admin",
          "type": "address"
        },
        {
          "internalType": "address",
          "name": "timelock",
          "type": "address"
        },
        {
          "internalType": "address",
          "name": "emergencyCouncil",
          "type": "address"
        },
        {
          "internalType": "contract PolygonZkEVMExistentEtrog",
          "name": "polygonZkEVM",
          "type": "address"
        },
        {
          "internalType": "contract IVerifierRollup",
          "name": "zkEVMVerifier",
          "type": "address"
        },
        {
          "internalType": "uint64",
          "name": "zkEVMForkID",
          "type": "uint64"
        },
        {
          "internalType": "uint64",
          "name": "zkEVMChainID",
          "type": "uint64"
        }
      ],
      "name": "initialize",
      "outputs": [],
      "stateMutability": "nonpayable",
      "type": "function"
    },
    {
      "inputs": [],
      "name": "isEmergencyState",
      "outputs": [
        {
          "internalType": "bool",
          "name": "",
          "type": "bool"
        }
      ],
      "stateMutability": "view",
      "type": "function"
    },
    {
      "inputs": [],
      "name": "lastAggregationTimestamp",
      "outputs": [
        {
          "internalType": "uint64",
          "name": "",
          "type": "uint64"
        }
      ],
      "stateMutability": "view",
      "type": "function"
    },
    {
      "inputs": [],
      "name": "lastDeactivatedEmergencyStateTimestamp",
      "outputs": [
        {
          "internalType": "uint64",
          "name": "",
          "type": "uint64"
        }
      ],
      "stateMutability": "view",
      "type": "function"
    },
    {
      "inputs": [
        {
          "internalType": "uint32",
          "name": "rollupTypeID",
          "type": "uint32"
        }
      ],
      "name": "obsoleteRollupType",
      "outputs": [],
      "stateMutability": "nonpayable",
      "type": "function"
    },
    {
      "inputs": [
        {
          "internalType": "uint64",
          "name": "newSequencedBatches",
          "type": "uint64"
        },
        {
          "internalType": "bytes32",
          "name": "newAccInputHash",
          "type": "bytes32"
        }
      ],
      "name": "onSequenceBatches",
      "outputs": [
        {
          "internalType": "uint64",
          "name": "",
          "type": "uint64"
        }
      ],
      "stateMutability": "nonpayable",
      "type": "function"
    },
    {
      "inputs": [],
      "name": "pol",
      "outputs": [
        {
          "internalType": "contract IERC20Upgradeable",
          "name": "",
          "type": "address"
        }
      ],
      "stateMutability": "view",
      "type": "function"
    },
    {
      "inputs": [
        {
          "internalType": "bytes32",
          "name": "role",
          "type": "bytes32"
        },
        {
          "internalType": "address",
          "name": "account",
          "type": "address"
        }
      ],
      "name": "renounceRole",
      "outputs": [],
      "stateMutability": "nonpayable",
      "type": "function"
    },
    {
      "inputs": [
        {
          "internalType": "bytes32",
          "name": "role",
          "type": "bytes32"
        },
        {
          "internalType": "address",
          "name": "account",
          "type": "address"
        }
      ],
      "name": "revokeRole",
      "outputs": [],
      "stateMutability": "nonpayable",
      "type": "function"
    },
    {
      "inputs": [
        {
          "internalType": "contract IPolygonRollupBase",
          "name": "rollupContract",
          "type": "address"
        },
        {
          "internalType": "uint64",
          "name": "targetBatch",
          "type": "uint64"
        }
      ],
      "name": "rollbackBatches",
      "outputs": [],
      "stateMutability": "nonpayable",
      "type": "function"
    },
    {
      "inputs": [
        {
          "internalType": "address",
          "name": "rollupAddress",
          "type": "address"
        }
      ],
      "name": "rollupAddressToID",
      "outputs": [
        {
          "internalType": "uint32",
          "name": "rollupID",
          "type": "uint32"
        }
      ],
      "stateMutability": "view",
      "type": "function"
    },
    {
      "inputs": [],
      "name": "rollupCount",
      "outputs": [
        {
          "internalType": "uint32",
          "name": "",
          "type": "uint32"
        }
      ],
      "stateMutability": "view",
      "type": "function"
    },
    {
      "inputs": [
        {
          "internalType": "uint32",
          "name": "rollupID",
          "type": "uint32"
        }
      ],
      "name": "rollupIDToRollupData",
      "outputs": [
        {
          "internalType": "contract IPolygonRollupBase",
          "name": "rollupContract",
          "type": "address"
        },
        {
          "internalType": "uint64",
          "name": "chainID",
          "type": "uint64"
        },
        {
          "internalType": "address",
          "name": "verifier",
          "type": "address"
        },
        {
          "internalType": "uint64",
          "name": "forkID",
          "type": "uint64"
        },
        {
          "internalType": "bytes32",
          "name": "lastLocalExitRoot",
          "type": "bytes32"
        },
        {
          "internalType": "uint64",
          "name": "lastBatchSequenced",
          "type": "uint64"
        },
        {
          "internalType": "uint64",
          "name": "lastVerifiedBatch",
          "type": "uint64"
        },
        {
          "internalType": "uint128",
          "name": "_legacyPendingStateGap",
          "type": "uint128"
        },
        {
          "internalType": "uint64",
          "name": "lastVerifiedBatchBeforeUpgrade",
          "type": "uint64"
        },
        {
          "internalType": "uint64",
          "name": "rollupTypeID",
          "type": "uint64"
        },
        {
          "internalType": "enum PolygonRollupManager.VerifierType",
          "name": "rollupVerifierType",
          "type": "uint8"
        },
        {
          "internalType": "bytes32",
          "name": "lastPessimisticRoot",
          "type": "bytes32"
        },
        {
          "internalType": "bytes32",
          "name": "programVKey",
          "type": "bytes32"
        }
      ],
      "stateMutability": "view",
      "type": "function"
    },
    {
      "inputs": [],
      "name": "rollupTypeCount",
      "outputs": [
        {
          "internalType": "uint32",
          "name": "",
          "type": "uint32"
        }
      ],
      "stateMutability": "view",
      "type": "function"
    },
    {
      "inputs": [
        {
          "internalType": "uint32",
          "name": "rollupTypeID",
          "type": "uint32"
        }
      ],
      "name": "rollupTypeMap",
      "outputs": [
        {
          "internalType": "address",
          "name": "consensusImplementation",
          "type": "address"
        },
        {
          "internalType": "address",
          "name": "verifier",
          "type": "address"
        },
        {
          "internalType": "uint64",
          "name": "forkID",
          "type": "uint64"
        },
        {
          "internalType": "enum PolygonRollupManager.VerifierType",
          "name": "rollupVerifierType",
          "type": "uint8"
        },
        {
          "internalType": "bool",
          "name": "obsolete",
          "type": "bool"
        },
        {
          "internalType": "bytes32",
          "name": "genesis",
          "type": "bytes32"
        },
        {
          "internalType": "bytes32",
          "name": "programVKey",
          "type": "bytes32"
        }
      ],
      "stateMutability": "view",
      "type": "function"
    },
    {
      "inputs": [
        {
          "internalType": "uint256",
          "name": "newBatchFee",
          "type": "uint256"
        }
      ],
      "name": "setBatchFee",
      "outputs": [],
      "stateMutability": "nonpayable",
      "type": "function"
    },
    {
      "inputs": [],
      "name": "totalSequencedBatches",
      "outputs": [
        {
          "internalType": "uint64",
          "name": "",
          "type": "uint64"
        }
      ],
      "stateMutability": "view",
      "type": "function"
    },
    {
      "inputs": [],
      "name": "totalVerifiedBatches",
      "outputs": [
        {
          "internalType": "uint64",
          "name": "",
          "type": "uint64"
        }
      ],
      "stateMutability": "view",
      "type": "function"
    },
    {
      "inputs": [
        {
          "internalType": "contract ITransparentUpgradeableProxy",
          "name": "rollupContract",
          "type": "address"
        },
        {
          "internalType": "uint32",
          "name": "newRollupTypeID",
          "type": "uint32"
        },
        {
          "internalType": "bytes",
          "name": "upgradeData",
          "type": "bytes"
        }
      ],
      "name": "updateRollup",
      "outputs": [],
      "stateMutability": "nonpayable",
      "type": "function"
    },
    {
      "inputs": [
        {
          "internalType": "contract ITransparentUpgradeableProxy",
          "name": "rollupContract",
          "type": "address"
        },
        {
          "internalType": "uint32",
          "name": "newRollupTypeID",
          "type": "uint32"
        }
      ],
      "name": "updateRollupByRollupAdmin",
      "outputs": [],
      "stateMutability": "nonpayable",
      "type": "function"
    },
    {
      "inputs": [
        {
          "internalType": "uint32",
          "name": "rollupID",
          "type": "uint32"
        },
        {
          "internalType": "uint64",
          "name": "pendingStateNum",
          "type": "uint64"
        },
        {
          "internalType": "uint64",
          "name": "initNumBatch",
          "type": "uint64"
        },
        {
          "internalType": "uint64",
          "name": "finalNewBatch",
          "type": "uint64"
        },
        {
          "internalType": "bytes32",
          "name": "newLocalExitRoot",
          "type": "bytes32"
        },
        {
          "internalType": "bytes32",
          "name": "newStateRoot",
          "type": "bytes32"
        },
        {
          "internalType": "address",
          "name": "beneficiary",
          "type": "address"
        },
        {
          "internalType": "bytes32[24]",
          "name": "proof",
          "type": "bytes32[24]"
        }
      ],
      "name": "verifyBatchesTrustedAggregator",
      "outputs": [],
      "stateMutability": "nonpayable",
      "type": "function"
    },
    {
      "inputs": [
        {
          "internalType": "uint32",
          "name": "rollupID",
          "type": "uint32"
        },
        {
          "internalType": "bytes32",
          "name": "selectedGlobalExitRoot",
          "type": "bytes32"
        },
        {
          "internalType": "bytes32",
          "name": "newLocalExitRoot",
          "type": "bytes32"
        },
        {
          "internalType": "bytes32",
          "name": "newPessimisticRoot",
          "type": "bytes32"
        },
        {
          "internalType": "bytes",
          "name": "proof",
          "type": "bytes"
        }
      ],
      "name": "verifyPessimisticTrustedAggregator",
      "outputs": [],
      "stateMutability": "nonpayable",
      "type": "function"
    }
  ],
  "bytecode": "0x60e060405234801562000010575f80fd5b506040516200640d3803806200640d83398101604081905262000033916200013c565b6001600160a01b0380841660805280831660c052811660a0528282826200005962000065565b5050505050506200018d565b5f54610100900460ff1615620000d15760405162461bcd60e51b815260206004820152602760248201527f496e697469616c697a61626c653a20636f6e747261637420697320696e697469604482015266616c697a696e6760c81b606482015260840160405180910390fd5b5f5460ff908116101562000122575f805460ff191660ff9081179091556040519081527f7f26b83ff96e1f2b6a682f133852f6798a09c465da95921460cefb38474024989060200160405180910390a15b565b6001600160a01b038116811462000139575f80fd5b50565b5f805f606084860312156200014f575f80fd5b83516200015c8162000124565b60208501519093506200016f8162000124565b6040850151909250620001828162000124565b809150509250925092565b60805160a05160c051616224620001e95f395f81816108e4015281816122b1015261399301525f818161077f01528181612ee70152613aa801525f818161084c01528181610fdb015281816132d3015261348801526162245ff3fe608060405234801562000010575f80fd5b506004361062000314575f3560e01c806391d1485411620001a7578063ceee281d11620000ef578063dde0ff77116200009f578063e4a4b6a21162000077578063e4a4b6a21462000906578063f4e92675146200091d578063f9c4c2ae146200092e575f80fd5b8063dde0ff7714620008a6578063dfdb8c5e14620008c7578063e46761c414620008de575f80fd5b8063d5073f6f11620000d3578063d5073f6f146200086e578063d547741f1462000885578063dbc16976146200089c575f80fd5b8063ceee281d146200081e578063d02103ca1462000846575f80fd5b8063a217fddf1162000157578063abcb5198116200012f578063abcb519814620007c7578063c1acbc3414620007de578063c4c928c21462000807575f80fd5b8063a217fddf1462000767578063a2967d99146200076f578063a3c573eb1462000779575f80fd5b806399f5634e116200018b57806399f5634e146200072f5780639a908e7314620007395780639e36c5651462000750575f80fd5b806391d1485414620006d057806397bf07e81462000718575f80fd5b806330c27dde116200026b57806365c0504d116200021b5780637975fcfe11620001f35780637975fcfe146200066b5780637fb6e76a14620006915780638fd88cc214620006b9575f80fd5b806365c0504d146200056b5780637222020f146200063d578063727885e91462000654575f80fd5b8063477fa270116200024f578063477fa270146200051457806355a71ee0146200051d578063604691691462000561575f80fd5b806330c27dde14620004e857806336568abe14620004fd575f80fd5b80631796a1ae11620002c7578063248a9ca311620002ab578063248a9ca314620003e25780632528016914620004165780632f2ff15d14620004d1575f80fd5b80631796a1ae14620003b15780632072f6c514620003d8575f80fd5b806311f6b28711620002fb57806311f6b28714620003645780631489ed10146200037b57806315064c961462000392575f80fd5b80630645af091462000318578063066ec0121462000331575b5f80fd5b6200032f6200032936600462004985565b62000a24565b005b608454620003469067ffffffffffffffff1681565b60405167ffffffffffffffff90911681526020015b60405180910390f35b620003466200037536600462004a6e565b62000e47565b6200032f6200038c36600462004a91565b62000e7c565b606f54620003a09060ff1681565b60405190151581526020016200035b565b607e54620003c29063ffffffff1681565b60405163ffffffff90911681526020016200035b565b6200032f620010ce565b62000407620003f336600462004b2b565b5f9081526034602052604090206001015490565b6040519081526020016200035b565b6200049c6200042736600462004b43565b60408051606080820183525f808352602080840182905292840181905263ffffffff9590951685526081825282852067ffffffffffffffff9485168652600301825293829020825194850183528054855260010154808416918501919091526801000000000000000090049091169082015290565b604080518251815260208084015167ffffffffffffffff9081169183019190915292820151909216908201526060016200035b565b6200032f620004e236600462004b79565b620011e2565b608754620003469067ffffffffffffffff1681565b6200032f6200050e36600462004b79565b6200120f565b60865462000407565b620004076200052e36600462004b43565b63ffffffff82165f90815260816020908152604080832067ffffffffffffffff8516845260020190915290205492915050565b620004076200126f565b620006286200057c36600462004a6e565b607f6020525f9081526040902080546001820154600283015460039093015473ffffffffffffffffffffffffffffffffffffffff928316939282169267ffffffffffffffff740100000000000000000000000000000000000000008404169260ff7c010000000000000000000000000000000000000000000000000000000082048116937d01000000000000000000000000000000000000000000000000000000000090920416919087565b6040516200035b979695949392919062004c11565b6200032f6200064e36600462004a6e565b62001286565b6200032f6200066536600462004d59565b62001401565b620006826200067c36600462004e20565b620019b9565b6040516200035b919062004ef1565b620003c2620006a236600462004f05565b60836020525f908152604090205463ffffffff1681565b6200032f620006ca36600462004f21565b620019eb565b620003a0620006e136600462004b79565b5f91825260346020908152604080842073ffffffffffffffffffffffffffffffffffffffff93909316845291905290205460ff1690565b6200032f6200072936600462004f4f565b62001ea4565b620004076200226a565b620003466200074a36600462004fd1565b62002378565b620006826200076136600462004ffc565b620025af565b620004075f81565b62000407620025df565b620007a17f000000000000000000000000000000000000000000000000000000000000000081565b60405173ffffffffffffffffffffffffffffffffffffffff90911681526020016200035b565b6200032f620007d836600462005035565b620029c7565b6084546200034690700100000000000000000000000000000000900467ffffffffffffffff1681565b6200032f62000818366004620050d2565b62002d3a565b620003c26200082f3660046200514a565b60826020525f908152604090205463ffffffff1681565b620007a17f000000000000000000000000000000000000000000000000000000000000000081565b6200032f6200087f36600462004b2b565b62002d79565b6200032f6200089636600462004b79565b62002e34565b6200032f62002e5c565b608454620003469068010000000000000000900467ffffffffffffffff1681565b6200032f620008d836600462005168565b62002f66565b620007a17f000000000000000000000000000000000000000000000000000000000000000081565b6200032f6200091736600462005197565b620031fa565b608054620003c29063ffffffff1681565b62000a096200093f36600462004a6e565b60816020525f9081526040902080546001820154600583015460068401546007850154600886015460099096015473ffffffffffffffffffffffffffffffffffffffff80871697740100000000000000000000000000000000000000009788900467ffffffffffffffff908116989288169792909204821695948281169468010000000000000000808304851695700100000000000000000000000000000000938490046fffffffffffffffffffffffffffffffff169580841695928404169390920460ff16918d565b6040516200035b9d9c9b9a9998979695949392919062005235565b5f54600290610100900460ff1615801562000a4557505f5460ff8083169116105b62000ad7576040517f08c379a000000000000000000000000000000000000000000000000000000000815260206004820152602e60248201527f496e697469616c697a61626c653a20636f6e747261637420697320616c72656160448201527f647920696e697469616c697a656400000000000000000000000000000000000060648201526084015b60405180910390fd5b5f80547fffffffffffffffffffffffffffffffffffffffffffffffffffffffffffff00001660ff83161761010017905567016345785d8a000060865562000b1d6200356f565b62000b497f084e94f375e9d647f87f5b2ceffba1e062c70f6009fdbcf80291e803b5c9edd48c62003607565b62000b555f8862003607565b62000b817fac75d24dbb35ea80e25fab167da4dea46c1915260426570db84f184891f5f5908862003607565b62000bad7f3dfe277d2a2c04b75fb2eb3743fa00005ae3678a20c299e65fdf4df76517f68e8862003607565b62000bd97f66156603fe29d13f97c6f3e3dff4ef71919f9aa61c555be0182d954e94221aac8862003607565b62000c057fab66e11c4f712cd06ab11bf9339b48bef39e12d4a22eeef71d2860a0c90482bd8962003607565b62000c317fa0fab074aba36a6fa69f1a83ee86e5abfb8433966eb57efb13dc2fc2f24ddd088962003607565b62000c5d7f62ba6ba2ffed8cfe316b583325ea41ac6e7ba9e5864d2bc6fabba7ac26d2f0f48962003607565b62000c897fa5c5790f581d443ed43873ab47cfb8c5d66a6db268e58b5971bb33fc66e07db18962003607565b62000cd57f084e94f375e9d647f87f5b2ceffba1e062c70f6009fdbcf80291e803b5c9edd47f73cb0569fdbea2544dae03fdb2fe10eda92a72a2e8cd2bd496e85b762505a3f062003613565b62000d017f73cb0569fdbea2544dae03fdb2fe10eda92a72a2e8cd2bd496e85b762505a3f08962003607565b62000d2d7f8cf807f6970720f8e2c208c7c5037595982c7bd9ed93c380d09df743d0dcc3fb8962003607565b62000d797f141f8f32ce6198eee741f695cec728bfd32d289f1acf73621fb303581000545e7f9b6f082d8d3644ae2f24a3c32e356d6f2d9b2844d9b26164fbc82663ff28595162003613565b62000da57f141f8f32ce6198eee741f695cec728bfd32d289f1acf73621fb303581000545e8762003607565b62000dd17f9b6f082d8d3644ae2f24a3c32e356d6f2d9b2844d9b26164fbc82663ff2859518762003607565b62000ddd5f3362003607565b5f80547fffffffffffffffffffffffffffffffffffffffffffffffffffffffffffff00ff16905560405160ff821681527f7f26b83ff96e1f2b6a682f133852f6798a09c465da95921460cefb38474024989060200160405180910390a15050505050505050505050565b63ffffffff81165f9081526081602052604081206006015468010000000000000000900467ffffffffffffffff165b92915050565b7f084e94f375e9d647f87f5b2ceffba1e062c70f6009fdbcf80291e803b5c9edd462000ea8816200365d565b67ffffffffffffffff88161562000eeb576040517f60dbf8ae00000000000000000000000000000000000000000000000000000000815260040160405180910390fd5b63ffffffff89165f908152608160205260408120906007820154700100000000000000000000000000000000900460ff16600181111562000f305762000f3062004baa565b1462000f68576040517f90db0d0700000000000000000000000000000000000000000000000000000000815260040160405180910390fd5b62000f798189898989898962003669565b6006810180547fffffffffffffffffffffffffffffffff0000000000000000ffffffffffffffff166801000000000000000067ffffffffffffffff8a16908102919091179091555f9081526002820160205260409020859055600581018690557f000000000000000000000000000000000000000000000000000000000000000073ffffffffffffffffffffffffffffffffffffffff166333d6247d6200101f620025df565b6040518263ffffffff1660e01b81526004016200103e91815260200190565b5f604051808303815f87803b15801562001056575f80fd5b505af115801562001069573d5f803e3d5ffd5b50506040805167ffffffffffffffff8b1681526020810189905290810189905233925063ffffffff8d1691507fd1ec3a1216f08b6eff72e169ceb548b782db18a6614852618d86bb19f3f9b0d39060600160405180910390a350505050505050505050565b335f9081527f8875b94af5657a2903def9906d67a3f42d8a836d24b5602c00f00fc855339fcd602052604090205460ff16620011d657608454700100000000000000000000000000000000900467ffffffffffffffff1615806200116c57506084544290620011609062093a8090700100000000000000000000000000000000900467ffffffffffffffff166200531f565b67ffffffffffffffff16115b806200119e57506087544290620011929062093a809067ffffffffffffffff166200531f565b67ffffffffffffffff16115b15620011d6576040517fd257555a00000000000000000000000000000000000000000000000000000000815260040160405180910390fd5b620011e062003aa6565b565b5f82815260346020526040902060010154620011fe816200365d565b6200120a838362003b2d565b505050565b73ffffffffffffffffffffffffffffffffffffffff811633146200125f576040517f5a568e6800000000000000000000000000000000000000000000000000000000815260040160405180910390fd5b6200126b828262003be9565b5050565b5f60865460646200128191906200534a565b905090565b7fab66e11c4f712cd06ab11bf9339b48bef39e12d4a22eeef71d2860a0c90482bd620012b2816200365d565b63ffffffff82161580620012d15750607e5463ffffffff908116908316115b1562001309576040517f7512e5cb00000000000000000000000000000000000000000000000000000000815260040160405180910390fd5b63ffffffff82165f908152607f602052604090206001808201547d010000000000000000000000000000000000000000000000000000000000900460ff161515900362001382576040517f3b8d3d9900000000000000000000000000000000000000000000000000000000815260040160405180910390fd5b6001810180547fffff00ffffffffffffffffffffffffffffffffffffffffffffffffffffffffff167d01000000000000000000000000000000000000000000000000000000000017905560405163ffffffff8416907f4710d2ee567ef1ed6eb2f651dde4589524bcf7cebc62147a99b281cc836e7e44905f90a2505050565b7fa0fab074aba36a6fa69f1a83ee86e5abfb8433966eb57efb13dc2fc2f24ddd086200142d816200365d565b63ffffffff881615806200144c5750607e5463ffffffff908116908916115b1562001484576040517f7512e5cb00000000000000000000000000000000000000000000000000000000815260040160405180910390fd5b63ffffffff88165f908152607f602052604090206001808201547d010000000000000000000000000000000000000000000000000000000000900460ff1615159003620014fd576040517f3b8d3d9900000000000000000000000000000000000000000000000000000000815260040160405180910390fd5b63ffffffff67ffffffffffffffff8916111562001546576040517f4c753f5700000000000000000000000000000000000000000000000000000000815260040160405180910390fd5b67ffffffffffffffff88165f9081526083602052604090205463ffffffff16156200159d576040517f6f91fc1200000000000000000000000000000000000000000000000000000000815260040160405180910390fd5b608080545f91908290620015b79063ffffffff1662005364565b825463ffffffff8281166101009490940a93840293021916919091179091558254604080515f808252602082019283905293945073ffffffffffffffffffffffffffffffffffffffff90921691309162001611906200493d565b6200161f9392919062005389565b604051809103905ff08015801562001639573d5f803e3d5ffd5b5090508160835f8c67ffffffffffffffff1667ffffffffffffffff1681526020019081526020015f205f6101000a81548163ffffffff021916908363ffffffff1602179055508160825f8373ffffffffffffffffffffffffffffffffffffffff1673ffffffffffffffffffffffffffffffffffffffff1681526020019081526020015f205f6101000a81548163ffffffff021916908363ffffffff1602179055505f60815f8463ffffffff1663ffffffff1681526020019081526020015f20905081815f015f6101000a81548173ffffffffffffffffffffffffffffffffffffffff021916908373ffffffffffffffffffffffffffffffffffffffff1602179055508360010160149054906101000a900467ffffffffffffffff168160010160146101000a81548167ffffffffffffffff021916908367ffffffffffffffff160217905550836001015f9054906101000a900473ffffffffffffffffffffffffffffffffffffffff16816001015f6101000a81548173ffffffffffffffffffffffffffffffffffffffff021916908373ffffffffffffffffffffffffffffffffffffffff1602179055508a815f0160146101000a81548167ffffffffffffffff021916908367ffffffffffffffff1602179055508360020154816002015f8067ffffffffffffffff1681526020019081526020015f20819055508b63ffffffff168160070160086101000a81548167ffffffffffffffff021916908367ffffffffffffffff16021790555083600101601c9054906101000a900460ff168160070160106101000a81548160ff021916908360018111156200189e576200189e62004baa565b0217905550600384015460098201556040805163ffffffff8e8116825273ffffffffffffffffffffffffffffffffffffffff858116602084015267ffffffffffffffff8f16838501528b1660608301529151918516917f194c983456df6701c6a50830b90fe80e72b823411d0d524970c9590dc277a6419181900360800190a26040517f7125702200000000000000000000000000000000000000000000000000000000815273ffffffffffffffffffffffffffffffffffffffff8316906371257022906200197c908d908d9088908e908e908e90600401620053c3565b5f604051808303815f87803b15801562001994575f80fd5b505af1158015620019a7573d5f803e3d5ffd5b50505050505050505050505050505050565b63ffffffff86165f908152608160205260409020606090620019e090878787878762003ca3565b979650505050505050565b335f9081527ff14f5a8ad59d90593602e905b358229bff5ceea677d5bf0f5a1701793550a9a6602052604090205460ff1615801562001ac657503373ffffffffffffffffffffffffffffffffffffffff168273ffffffffffffffffffffffffffffffffffffffff1663f851a4406040518163ffffffff1660e01b81526004016020604051808303815f875af115801562001a87573d5f803e3d5ffd5b505050506040513d601f19601f8201168201806040525081019062001aad919062005432565b73ffffffffffffffffffffffffffffffffffffffff1614155b1562001afe576040517f1a06d0fe00000000000000000000000000000000000000000000000000000000815260040160405180910390fd5b73ffffffffffffffffffffffffffffffffffffffff82165f9081526082602052604081205463ffffffff169081900362001b64576040517f74a086a300000000000000000000000000000000000000000000000000000000815260040160405180910390fd5b63ffffffff81165f908152608160205260408120906007820154700100000000000000000000000000000000900460ff16600181111562001ba95762001ba962004baa565b1462001be1576040517f90db0d0700000000000000000000000000000000000000000000000000000000815260040160405180910390fd5b600681015467ffffffffffffffff9081169084168111158062001c215750600682015467ffffffffffffffff680100000000000000009091048116908516105b1562001c59576040517fcb23ebdf00000000000000000000000000000000000000000000000000000000815260040160405180910390fd5b805b8467ffffffffffffffff168167ffffffffffffffff161462001d2e5767ffffffffffffffff8082165f908152600385016020526040902060010154680100000000000000009004811690861681101562001ce1576040517f9753965f00000000000000000000000000000000000000000000000000000000815260040160405180910390fd5b67ffffffffffffffff9091165f908152600384016020526040812090815560010180547fffffffffffffffffffffffffffffffff0000000000000000000000000000000016905562001c5b565b6006830180547fffffffffffffffffffffffffffffffffffffffffffffffff00000000000000001667ffffffffffffffff871617905562001d70858362005450565b608480545f9062001d8d90849067ffffffffffffffff1662005450565b82546101009290920a67ffffffffffffffff81810219909316918316021790915586165f818152600386016020526040908190205490517f669adece0000000000000000000000000000000000000000000000000000000081526004810192909252602482015273ffffffffffffffffffffffffffffffffffffffff8816915063669adece906044015f604051808303815f87803b15801562001e2e575f80fd5b505af115801562001e41573d5f803e3d5ffd5b5050505067ffffffffffffffff85165f81815260038501602090815260409182902054915191825263ffffffff8716917f80a6d395a55aed8126079cb8247f0a6848b1440ca2cdca3b4386f250c3529402910160405180910390a3505050505050565b7f3dfe277d2a2c04b75fb2eb3743fa00005ae3678a20c299e65fdf4df76517f68e62001ed0816200365d565b67ffffffffffffffff85165f9081526083602052604090205463ffffffff161562001f27576040517f6f91fc1200000000000000000000000000000000000000000000000000000000815260040160405180910390fd5b63ffffffff67ffffffffffffffff8616111562001f70576040517f4c753f5700000000000000000000000000000000000000000000000000000000815260040160405180910390fd5b73ffffffffffffffffffffffffffffffffffffffff88165f9081526082602052604090205463ffffffff161562001fd3576040517fd409b93000000000000000000000000000000000000000000000000000000000815260040160405180910390fd5b608080545f9190829062001fed9063ffffffff1662005364565b91906101000a81548163ffffffff021916908363ffffffff160217905590508060835f8867ffffffffffffffff1667ffffffffffffffff1681526020019081526020015f205f6101000a81548163ffffffff021916908363ffffffff1602179055508060825f8b73ffffffffffffffffffffffffffffffffffffffff1673ffffffffffffffffffffffffffffffffffffffff1681526020019081526020015f205f6101000a81548163ffffffff021916908363ffffffff1602179055505f60815f8363ffffffff1663ffffffff1681526020019081526020015f20905089815f015f6101000a81548173ffffffffffffffffffffffffffffffffffffffff021916908373ffffffffffffffffffffffffffffffffffffffff160217905550878160010160146101000a81548167ffffffffffffffff021916908367ffffffffffffffff16021790555088816001015f6101000a81548173ffffffffffffffffffffffffffffffffffffffff021916908373ffffffffffffffffffffffffffffffffffffffff16021790555086815f0160146101000a81548167ffffffffffffffff021916908367ffffffffffffffff160217905550848160070160106101000a81548160ff02191690836001811115620021cb57620021cb62004baa565b02179055506001856001811115620021e757620021e762004baa565b036200220157600981018490556005810186905562002214565b5f80805260028201602052604090208690555b8163ffffffff167fd490df184152edba8455dac3228134939c71f8cb4c8f310c3145dec9037147ac898c8a895f8a604051620022569695949392919062005474565b60405180910390a250505050505050505050565b6040517f70a082310000000000000000000000000000000000000000000000000000000081523060048201525f90819073ffffffffffffffffffffffffffffffffffffffff7f000000000000000000000000000000000000000000000000000000000000000016906370a0823190602401602060405180830381865afa158015620022f7573d5f803e3d5ffd5b505050506040513d601f19601f820116820180604052508101906200231d9190620054cf565b6084549091505f90620023499067ffffffffffffffff6801000000000000000082048116911662005450565b67ffffffffffffffff169050805f0362002365575f9250505090565b62002371818362005514565b9250505090565b606f545f9060ff1615620023b8576040517f2f0047fc00000000000000000000000000000000000000000000000000000000815260040160405180910390fd5b335f9081526082602052604081205463ffffffff169081900362002408576040517f71653c1500000000000000000000000000000000000000000000000000000000815260040160405180910390fd5b8367ffffffffffffffff165f036200244c576040517f2590ccf900000000000000000000000000000000000000000000000000000000815260040160405180910390fd5b63ffffffff81165f90815260816020526040812060848054919287926200247f90849067ffffffffffffffff166200531f565b82546101009290920a67ffffffffffffffff81810219909316918316021790915560068301541690505f620024b587836200531f565b60068401805467ffffffffffffffff8381167fffffffffffffffffffffffffffffffffffffffffffffffff00000000000000009092168217909255604080516060810182528a815242841660208083019182528886168385019081525f86815260038c01835285902093518455915160019390930180549251871668010000000000000000027fffffffffffffffffffffffffffffffff000000000000000000000000000000009093169390961692909217179093555190815291925063ffffffff8616917f1d9f30260051d51d70339da239ea7b080021adcaabfa71c9b0ea339a20cf9a25910160405180910390a29695505050505050565b63ffffffff84165f908152608160205260409020606090620025d49085858562003e6a565b90505b949350505050565b6080545f9063ffffffff16808203620025f957505f919050565b5f8167ffffffffffffffff81111562002616576200261662004c73565b60405190808252806020026020018201604052801562002640578160200160208202803683370190505b5090505f5b82811015620026b05760815f6200265e8360016200552a565b63ffffffff1663ffffffff1681526020019081526020015f206005015482828151811062002690576200269062005540565b602090810291909101015280620026a7816200556d565b91505062002645565b505f60205b8360011462002909575f620026cc600286620055a7565b620026d960028762005514565b620026e591906200552a565b90505f8167ffffffffffffffff81111562002704576200270462004c73565b6040519080825280602002602001820160405280156200272e578160200160208202803683370190505b5090505f5b82811015620028b55762002749600184620055bd565b8114801562002764575062002760600288620055a7565b6001145b15620027ec5785620027788260026200534a565b815181106200278b576200278b62005540565b602002602001015185604051602001620027af929190918252602082015260400190565b60405160208183030381529060405280519060200120828281518110620027da57620027da62005540565b602002602001018181525050620028a0565b85620027fa8260026200534a565b815181106200280d576200280d62005540565b6020026020010151868260026200282591906200534a565b620028329060016200552a565b8151811062002845576200284562005540565b602002602001015160405160200162002868929190918252602082015260400190565b6040516020818303038152906040528051906020012082828151811062002893576200289362005540565b6020026020010181815250505b80620028ac816200556d565b91505062002733565b508094508195508384604051602001620028d9929190918252602082015260400190565b6040516020818303038152906040528051906020012093508280620028fe90620055d3565b9350505050620026b5565b5f835f815181106200291f576200291f62005540565b602002602001015190505f5b82811015620029bd576040805160208101849052908101859052606001604080517fffffffffffffffffffffffffffffffffffffffffffffffffffffffffffffffe0818403018152828252805160209182012090830187905290820186905292506060016040516020818303038152906040528051906020012093508080620029b4906200556d565b9150506200292b565b5095945050505050565b7fac75d24dbb35ea80e25fab167da4dea46c1915260426570db84f184891f5f590620029f3816200365d565b607e80545f9190829062002a0d9063ffffffff1662005364565b91906101000a81548163ffffffff021916908363ffffffff1602179055905060018081111562002a415762002a4162004baa565b86600181111562002a565762002a5662004baa565b0362002a9b57841562002a95576040517f63d722e700000000000000000000000000000000000000000000000000000000815260040160405180910390fd5b62002ad4565b821562002ad4576040517f63d722e700000000000000000000000000000000000000000000000000000000815260040160405180910390fd5b6040518060e001604052808a73ffffffffffffffffffffffffffffffffffffffff1681526020018973ffffffffffffffffffffffffffffffffffffffff1681526020018867ffffffffffffffff16815260200187600181111562002b3c5762002b3c62004baa565b81525f602080830182905260408084018a9052606093840188905263ffffffff86168352607f8252918290208451815473ffffffffffffffffffffffffffffffffffffffff9182167fffffffffffffffffffffffff000000000000000000000000000000000000000090911617825591850151600182810180549588015167ffffffffffffffff1674010000000000000000000000000000000000000000027fffffffff0000000000000000000000000000000000000000000000000000000090961692909416919091179390931780835593850151909390927fffffff00ffffffffffffffffffffffffffffffffffffffffffffffffffffffff909116907c010000000000000000000000000000000000000000000000000000000090849081111562002c6e5762002c6e62004baa565b021790555060808201516001820180549115157d010000000000000000000000000000000000000000000000000000000000027fffff00ffffffffffffffffffffffffffffffffffffffffffffffffffffffffff90921691909117905560a0820151600282015560c09091015160039091015560405163ffffffff8216907f9eaf2ecbddb14889c9e141a63175c55ac25e0cd7cdea312cdfbd0397976b383a9062002d27908c908c908c908c908c908c908c906200560a565b60405180910390a2505050505050505050565b7f66156603fe29d13f97c6f3e3dff4ef71919f9aa61c555be0182d954e94221aac62002d66816200365d565b62002d7384848462003f54565b50505050565b7f8cf807f6970720f8e2c208c7c5037595982c7bd9ed93c380d09df743d0dcc3fb62002da5816200365d565b683635c9adc5dea0000082118062002dc05750633b9aca0082105b1562002df8576040517f8586952500000000000000000000000000000000000000000000000000000000815260040160405180910390fd5b60868290556040518281527ffb383653f53ee079978d0c9aff7aeff04a10166ce244cca9c9f9d8d96bed45b29060200160405180910390a15050565b5f8281526034602052604090206001015462002e50816200365d565b6200120a838362003be9565b7f62ba6ba2ffed8cfe316b583325ea41ac6e7ba9e5864d2bc6fabba7ac26d2f0f462002e88816200365d565b608780547fffffffffffffffffffffffffffffffffffffffffffffffff0000000000000000164267ffffffffffffffff16179055604080517fdbc1697600000000000000000000000000000000000000000000000000000000815290517f000000000000000000000000000000000000000000000000000000000000000073ffffffffffffffffffffffffffffffffffffffff169163dbc16976916004808301925f92919082900301818387803b15801562002f42575f80fd5b505af115801562002f55573d5f803e3d5ffd5b5050505062002f636200441b565b50565b3373ffffffffffffffffffffffffffffffffffffffff168273ffffffffffffffffffffffffffffffffffffffff1663f851a4406040518163ffffffff1660e01b81526004016020604051808303815f875af115801562002fc8573d5f803e3d5ffd5b505050506040513d601f19601f8201168201806040525081019062002fee919062005432565b73ffffffffffffffffffffffffffffffffffffffff16146200303c576040517f696072e900000000000000000000000000000000000000000000000000000000815260040160405180910390fd5b73ffffffffffffffffffffffffffffffffffffffff82165f9081526082602090815260408083205463ffffffff16835260819091529020600681015467ffffffffffffffff808216680100000000000000009092041614620030ca576040517fcc862d4a00000000000000000000000000000000000000000000000000000000815260040160405180910390fd5b600781015463ffffffff83166801000000000000000090910467ffffffffffffffff161062003125576040517f3e37e23300000000000000000000000000000000000000000000000000000000815260040160405180910390fd5b63ffffffff82165f908152607f602052604090206001908101547c0100000000000000000000000000000000000000000000000000000000900460ff169081111562003175576200317562004baa565b6007820154700100000000000000000000000000000000900460ff166001811115620031a557620031a562004baa565b14620031dd576040517fb541abe200000000000000000000000000000000000000000000000000000000815260040160405180910390fd5b604080515f8152602081019091526200120a908490849062003f54565b7f084e94f375e9d647f87f5b2ceffba1e062c70f6009fdbcf80291e803b5c9edd462003226816200365d565b63ffffffff87165f90815260816020526040902060016007820154700100000000000000000000000000000000900460ff1660018111156200326c576200326c62004baa565b14620032a4576040517f3a64d97300000000000000000000000000000000000000000000000000000000815260040160405180910390fd5b6040517f257b3632000000000000000000000000000000000000000000000000000000008152600481018890527f000000000000000000000000000000000000000000000000000000000000000073ffffffffffffffffffffffffffffffffffffffff169063257b3632906024016020604051808303815f875af11580156200332f573d5f803e3d5ffd5b505050506040513d601f19601f82011682018060405250810190620033559190620054cf565b5f036200338e576040517f73bd668d00000000000000000000000000000000000000000000000000000000815260040160405180910390fd5b5f6200339d8289898962003e6a565b600183015460098401546040517f41493c6000000000000000000000000000000000000000000000000000000000815292935073ffffffffffffffffffffffffffffffffffffffff909116916341493c6091620034039185908a908a906004016200567b565b5f6040518083038186803b1580156200341a575f80fd5b505afa1580156200342d573d5f803e3d5ffd5b5050608480547fffffffffffffffff0000000000000000ffffffffffffffffffffffffffffffff167001000000000000000000000000000000004267ffffffffffffffff1602179055505060058201879055600882018690557f000000000000000000000000000000000000000000000000000000000000000073ffffffffffffffffffffffffffffffffffffffff166333d6247d620034cc620025df565b6040518263ffffffff1660e01b8152600401620034eb91815260200190565b5f604051808303815f87803b15801562003503575f80fd5b505af115801562003516573d5f803e3d5ffd5b5050604080515f80825260208201529081018a905233925063ffffffff8c1691507fd1ec3a1216f08b6eff72e169ceb548b782db18a6614852618d86bb19f3f9b0d39060600160405180910390a3505050505050505050565b5f54610100900460ff16620011e0576040517f08c379a000000000000000000000000000000000000000000000000000000000815260206004820152602b60248201527f496e697469616c697a61626c653a20636f6e7472616374206973206e6f74206960448201527f6e697469616c697a696e67000000000000000000000000000000000000000000606482015260840162000ace565b6200126b828262003b2d565b5f82815260346020526040808220600101805490849055905190918391839186917fbd79b86ffe0ab8e8776151514217cd7cacd52c909f66475c3af44e129f0b00ff9190a4505050565b62002f638133620044aa565b5f806200368e896006015467ffffffffffffffff680100000000000000009091041690565b60078a015490915067ffffffffffffffff9081169089161015620036de576040517fead1340b00000000000000000000000000000000000000000000000000000000815260040160405180910390fd5b67ffffffffffffffff88165f90815260028a01602052604090205491508162003733576040517f4997b98600000000000000000000000000000000000000000000000000000000815260040160405180910390fd5b8067ffffffffffffffff168867ffffffffffffffff16111562003782576040517f1e56e9e200000000000000000000000000000000000000000000000000000000815260040160405180910390fd5b8067ffffffffffffffff168767ffffffffffffffff1611620037d0576040517fb9b18f5700000000000000000000000000000000000000000000000000000000815260040160405180910390fd5b5f620037e18a8a8a8a878b62003ca3565b90505f7f30644e72e131a029b85045b68181585d2833e84879b9709143e1f593f0000001600283604051620038179190620056e6565b602060405180830381855afa15801562003833573d5f803e3d5ffd5b5050506040513d601f19601f82011682018060405250810190620038589190620054cf565b620038649190620055a7565b60018c01546040805160208101825283815290517f9121da8a00000000000000000000000000000000000000000000000000000000815292935073ffffffffffffffffffffffffffffffffffffffff90911691639121da8a91620038ce9189919060040162005703565b602060405180830381865afa158015620038ea573d5f803e3d5ffd5b505050506040513d601f19601f820116820180604052508101906200391091906200573f565b62003947576040517f09bde33900000000000000000000000000000000000000000000000000000000815260040160405180910390fd5b5f62003954848b62005450565b9050620039bb878267ffffffffffffffff16620039706200226a565b6200397c91906200534a565b73ffffffffffffffffffffffffffffffffffffffff7f000000000000000000000000000000000000000000000000000000000000000016919062004513565b80608460088282829054906101000a900467ffffffffffffffff16620039e291906200531f565b82546101009290920a67ffffffffffffffff818102199093169183160217909155608480547fffffffffffffffff0000000000000000ffffffffffffffffffffffffffffffff16700100000000000000000000000000000000428416021790558d546040517f32c2d153000000000000000000000000000000000000000000000000000000008152918d166004830152602482018b905233604483015273ffffffffffffffffffffffffffffffffffffffff1691506332c2d153906064016200197c565b7f000000000000000000000000000000000000000000000000000000000000000073ffffffffffffffffffffffffffffffffffffffff16632072f6c56040518163ffffffff1660e01b81526004015f604051808303815f87803b15801562003b0c575f80fd5b505af115801562003b1f573d5f803e3d5ffd5b50505050620011e0620045a2565b5f82815260346020908152604080832073ffffffffffffffffffffffffffffffffffffffff8516845290915290205460ff166200126b575f82815260346020908152604080832073ffffffffffffffffffffffffffffffffffffffff8516808552925280832080547fffffffffffffffffffffffffffffffffffffffffffffffffffffffffffffff0016600117905551339285917f2f8788117e7eff1d82e926ec794901d17c78024a50270940304540a733656f0d9190a45050565b5f82815260346020908152604080832073ffffffffffffffffffffffffffffffffffffffff8516845290915290205460ff16156200126b575f82815260346020908152604080832073ffffffffffffffffffffffffffffffffffffffff8516808552925280832080547fffffffffffffffffffffffffffffffffffffffffffffffffffffffffffffff0016905551339285917ff6391f5c32d9c69d2a47ea670b442974b53935d1edc7fd64eb21e047a839171b9190a45050565b67ffffffffffffffff8086165f818152600389016020526040808220549388168252902054606092911580159062003cd9575081155b1562003d11576040517f6818c29e00000000000000000000000000000000000000000000000000000000815260040160405180910390fd5b8062003d49576040517f66385b5100000000000000000000000000000000000000000000000000000000815260040160405180910390fd5b62003d548462004635565b62003d8b576040517f176b913c00000000000000000000000000000000000000000000000000000000815260040160405180910390fd5b885460018a01546040517fffffffffffffffffffffffffffffffffffffffff0000000000000000000000003360601b16602082015260348101889052605481018590527fffffffffffffffff00000000000000000000000000000000000000000000000060c08c811b821660748401527401000000000000000000000000000000000000000094859004811b8216607c84015293909204831b82166084820152608c810187905260ac810184905260cc81018990529189901b1660ec82015260f401604051602081830303815290604052925050509695505050505050565b60605f855f015f9054906101000a900473ffffffffffffffffffffffffffffffffffffffff1673ffffffffffffffffffffffffffffffffffffffff1663ad1edf346040518163ffffffff1660e01b8152600401602060405180830381865afa15801562003ed9573d5f803e3d5ffd5b505050506040513d601f19601f8201168201806040525081019062003eff9190620054cf565b60058701546008880154604080516020810193909352820152606081018790526080810182905260a0810186905260c0810185905290915060e001604051602081830303815290604052915050949350505050565b63ffffffff8216158062003f735750607e5463ffffffff908116908316115b1562003fab576040517f7512e5cb00000000000000000000000000000000000000000000000000000000815260040160405180910390fd5b73ffffffffffffffffffffffffffffffffffffffff83165f9081526082602052604081205463ffffffff169081900362004011576040517f74a086a300000000000000000000000000000000000000000000000000000000815260040160405180910390fd5b63ffffffff8181165f9081526081602052604090206007810154909185166801000000000000000090910467ffffffffffffffff16036200407e576040517f4f61d51900000000000000000000000000000000000000000000000000000000815260040160405180910390fd5b63ffffffff84165f908152607f602052604090206001808201547d010000000000000000000000000000000000000000000000000000000000900460ff1615159003620040f7576040517f3b8d3d9900000000000000000000000000000000000000000000000000000000815260040160405180910390fd5b6001818101547c0100000000000000000000000000000000000000000000000000000000900460ff169081111562004133576200413362004baa565b6007830154700100000000000000000000000000000000900460ff16600181111562004163576200416362004baa565b14620042135760016007830154700100000000000000000000000000000000900460ff1660018111156200419b576200419b62004baa565b03620041d3576040517f3b8d3d9900000000000000000000000000000000000000000000000000000000815260040160405180910390fd5b80600101601c9054906101000a900460ff168260070160106101000a81548160ff021916908360018111156200420d576200420d62004baa565b02179055505b6001808201805491840180547fffffffffffffffffffffffff0000000000000000000000000000000000000000811673ffffffffffffffffffffffffffffffffffffffff9094169384178255915467ffffffffffffffff740100000000000000000000000000000000000000009182900416027fffffffff00000000000000000000000000000000000000000000000000000000909216909217179055600381015460098301556007820180546801000000000000000063ffffffff8816027fffffffffffffffffffffffffffffffff0000000000000000ffffffffffffffff9091161790555f620043058462000e47565b6007840180547fffffffffffffffffffffffffffffffffffffffffffffffff00000000000000001667ffffffffffffffff831617905582546040517f4f1ef28600000000000000000000000000000000000000000000000000000000815291925073ffffffffffffffffffffffffffffffffffffffff89811692634f1ef2869262004397921690899060040162005760565b5f604051808303815f87803b158015620043af575f80fd5b505af1158015620043c2573d5f803e3d5ffd5b50506040805163ffffffff8a8116825267ffffffffffffffff86166020830152881693507ff585e04c05d396901170247783d3e5f0ee9c1df23072985b50af089f5e48b19d92500160405180910390a250505050505050565b606f5460ff1662004458576040517f5386698100000000000000000000000000000000000000000000000000000000815260040160405180910390fd5b606f80547fffffffffffffffffffffffffffffffffffffffffffffffffffffffffffffff001690556040517f1e5e34eea33501aecf2ebec9fe0e884a40804275ea7fe10b2ba084c8374308b3905f90a1565b5f82815260346020908152604080832073ffffffffffffffffffffffffffffffffffffffff8516845290915290205460ff166200126b576040517fec2b7c3e00000000000000000000000000000000000000000000000000000000815260040160405180910390fd5b6040805173ffffffffffffffffffffffffffffffffffffffff8416602482015260448082018490528251808303909101815260649091019091526020810180517bffffffffffffffffffffffffffffffffffffffffffffffffffffffff167fa9059cbb000000000000000000000000000000000000000000000000000000001790526200120a908490620046c1565b606f5460ff1615620045e0576040517f2f0047fc00000000000000000000000000000000000000000000000000000000815260040160405180910390fd5b606f80547fffffffffffffffffffffffffffffffffffffffffffffffffffffffffffffff001660011790556040517f2261efe5aef6fedc1fd1550b25facc9181745623049c7901287030b9ad1a5497905f90a1565b5f67ffffffff0000000167ffffffffffffffff83161080156200466d575067ffffffff00000001604083901c67ffffffffffffffff16105b80156200468f575067ffffffff00000001608083901c67ffffffffffffffff16105b8015620046a7575067ffffffff0000000160c083901c105b15620046b557506001919050565b505f919050565b919050565b5f62004724826040518060400160405280602081526020017f5361666545524332303a206c6f772d6c6576656c2063616c6c206661696c65648152508573ffffffffffffffffffffffffffffffffffffffff16620047d39092919063ffffffff16565b8051909150156200120a57808060200190518101906200474591906200573f565b6200120a576040517f08c379a000000000000000000000000000000000000000000000000000000000815260206004820152602a60248201527f5361666545524332303a204552433230206f7065726174696f6e20646964206e60448201527f6f74207375636365656400000000000000000000000000000000000000000000606482015260840162000ace565b6060620025d784845f85855f808673ffffffffffffffffffffffffffffffffffffffff168587604051620048089190620056e6565b5f6040518083038185875af1925050503d805f811462004844576040519150601f19603f3d011682016040523d82523d5f602084013e62004849565b606091505b5091509150620019e08783838760608315620048f05782515f03620048e85773ffffffffffffffffffffffffffffffffffffffff85163b620048e8576040517f08c379a000000000000000000000000000000000000000000000000000000000815260206004820152601d60248201527f416464726573733a2063616c6c20746f206e6f6e2d636f6e7472616374000000604482015260640162000ace565b5081620025d7565b620025d78383815115620049075781518083602001fd5b806040517f08c379a000000000000000000000000000000000000000000000000000000000815260040162000ace919062004ef1565b610a5e806200579183390190565b73ffffffffffffffffffffffffffffffffffffffff8116811462002f63575f80fd5b803567ffffffffffffffff81168114620046bc575f80fd5b5f805f805f805f805f806101408b8d031215620049a0575f80fd5b8a35620049ad816200494b565b9950620049bd60208c016200496d565b9850620049cd60408c016200496d565b975060608b0135620049df816200494b565b965060808b0135620049f1816200494b565b955060a08b013562004a03816200494b565b945060c08b013562004a15816200494b565b935060e08b013562004a27816200494b565b925062004a386101008c016200496d565b915062004a496101208c016200496d565b90509295989b9194979a5092959850565b803563ffffffff81168114620046bc575f80fd5b5f6020828403121562004a7f575f80fd5b62004a8a8262004a5a565b9392505050565b5f805f805f805f806103e0808a8c03121562004aab575f80fd5b62004ab68a62004a5a565b985062004ac660208b016200496d565b975062004ad660408b016200496d565b965062004ae660608b016200496d565b955060808a0135945060a08a0135935060c08a013562004b06816200494b565b92508981018b101562004b17575f80fd5b5060e0890190509295985092959890939650565b5f6020828403121562004b3c575f80fd5b5035919050565b5f806040838503121562004b55575f80fd5b62004b608362004a5a565b915062004b70602084016200496d565b90509250929050565b5f806040838503121562004b8b575f80fd5b82359150602083013562004b9f816200494b565b809150509250929050565b7f4e487b71000000000000000000000000000000000000000000000000000000005f52602160045260245ffd5b6002811062004c0d577f4e487b71000000000000000000000000000000000000000000000000000000005f52602160045260245ffd5b9052565b73ffffffffffffffffffffffffffffffffffffffff88811682528716602082015267ffffffffffffffff8616604082015260e0810162004c55606083018762004bd7565b931515608082015260a081019290925260c090910152949350505050565b7f4e487b71000000000000000000000000000000000000000000000000000000005f52604160045260245ffd5b5f67ffffffffffffffff8084111562004cbd5762004cbd62004c73565b604051601f85017fffffffffffffffffffffffffffffffffffffffffffffffffffffffffffffffe0908116603f0116810190828211818310171562004d065762004d0662004c73565b8160405280935085815286868601111562004d1f575f80fd5b858560208301375f602087830101525050509392505050565b5f82601f83011262004d48575f80fd5b62004a8a8383356020850162004ca0565b5f805f805f805f60e0888a03121562004d70575f80fd5b62004d7b8862004a5a565b965062004d8b602089016200496d565b9550604088013562004d9d816200494b565b9450606088013562004daf816200494b565b9350608088013562004dc1816200494b565b925060a088013567ffffffffffffffff8082111562004dde575f80fd5b62004dec8b838c0162004d38565b935060c08a013591508082111562004e02575f80fd5b5062004e118a828b0162004d38565b91505092959891949750929550565b5f805f805f8060c0878903121562004e36575f80fd5b62004e418762004a5a565b955062004e51602088016200496d565b945062004e61604088016200496d565b9350606087013592506080870135915060a087013590509295509295509295565b5f5b8381101562004e9e57818101518382015260200162004e84565b50505f910152565b5f815180845262004ebf81602086016020860162004e82565b601f017fffffffffffffffffffffffffffffffffffffffffffffffffffffffffffffffe0169290920160200192915050565b602081525f62004a8a602083018462004ea6565b5f6020828403121562004f16575f80fd5b62004a8a826200496d565b5f806040838503121562004f33575f80fd5b823562004b60816200494b565b803560028110620046bc575f80fd5b5f805f805f805f60e0888a03121562004f66575f80fd5b873562004f73816200494b565b9650602088013562004f85816200494b565b955062004f95604089016200496d565b945062004fa5606089016200496d565b93506080880135925062004fbc60a0890162004f40565b915060c0880135905092959891949750929550565b5f806040838503121562004fe3575f80fd5b62004fee836200496d565b946020939093013593505050565b5f805f806080858703121562005010575f80fd5b6200501b8562004a5a565b966020860135965060408601359560600135945092505050565b5f805f805f805f60e0888a0312156200504c575f80fd5b873562005059816200494b565b965060208801356200506b816200494b565b95506200507b604089016200496d565b94506200508b6060890162004f40565b93506080880135925060a088013567ffffffffffffffff811115620050ae575f80fd5b620050bc8a828b0162004d38565b92505060c0880135905092959891949750929550565b5f805f60608486031215620050e5575f80fd5b8335620050f2816200494b565b9250620051026020850162004a5a565b9150604084013567ffffffffffffffff8111156200511e575f80fd5b8401601f810186136200512f575f80fd5b620051408682356020840162004ca0565b9150509250925092565b5f602082840312156200515b575f80fd5b813562004a8a816200494b565b5f80604083850312156200517a575f80fd5b823562005187816200494b565b915062004b706020840162004a5a565b5f805f805f8060a08789031215620051ad575f80fd5b620051b88762004a5a565b9550602087013594506040870135935060608701359250608087013567ffffffffffffffff80821115620051ea575f80fd5b818901915089601f830112620051fe575f80fd5b8135818111156200520d575f80fd5b8a60208285010111156200521f575f80fd5b6020830194508093505050509295509295509295565b73ffffffffffffffffffffffffffffffffffffffff8e8116825267ffffffffffffffff8e81166020840152908d1660408301528b81166060830152608082018b905289811660a0830152881660c08201526101a081016fffffffffffffffffffffffffffffffff881660e083015267ffffffffffffffff871661010083015267ffffffffffffffff8616610120830152620052d561014083018662004bd7565b61016082019390935261018001529b9a5050505050505050505050565b7f4e487b71000000000000000000000000000000000000000000000000000000005f52601160045260245ffd5b67ffffffffffffffff818116838216019080821115620053435762005343620052f2565b5092915050565b808202811582820484141762000e765762000e76620052f2565b5f63ffffffff8083168181036200537f576200537f620052f2565b6001019392505050565b5f73ffffffffffffffffffffffffffffffffffffffff808616835280851660208401525060606040830152620025d4606083018462004ea6565b5f73ffffffffffffffffffffffffffffffffffffffff8089168352808816602084015263ffffffff8716604084015280861660608401525060c060808301526200541160c083018562004ea6565b82810360a084015262005425818562004ea6565b9998505050505050505050565b5f6020828403121562005443575f80fd5b815162004a8a816200494b565b67ffffffffffffffff828116828216039080821115620053435762005343620052f2565b67ffffffffffffffff878116825273ffffffffffffffffffffffffffffffffffffffff87166020830152858116604083015260c0820190620054ba606084018762004bd7565b93909316608082015260a00152949350505050565b5f60208284031215620054e0575f80fd5b5051919050565b7f4e487b71000000000000000000000000000000000000000000000000000000005f52601260045260245ffd5b5f82620055255762005525620054e7565b500490565b8082018082111562000e765762000e76620052f2565b7f4e487b71000000000000000000000000000000000000000000000000000000005f52603260045260245ffd5b5f7fffffffffffffffffffffffffffffffffffffffffffffffffffffffffffffffff8203620055a057620055a0620052f2565b5060010190565b5f82620055b857620055b8620054e7565b500690565b8181038181111562000e765762000e76620052f2565b5f81620055e457620055e4620052f2565b507fffffffffffffffffffffffffffffffffffffffffffffffffffffffffffffffff0190565b73ffffffffffffffffffffffffffffffffffffffff88811682528716602082015267ffffffffffffffff861660408201525f6200564b606083018762004bd7565b84608083015260e060a08301526200566760e083018562004ea6565b90508260c083015298975050505050505050565b848152606060208201525f62005695606083018662004ea6565b8281036040840152838152838560208301375f6020858301015260207fffffffffffffffffffffffffffffffffffffffffffffffffffffffffffffffe0601f86011682010191505095945050505050565b5f8251620056f981846020870162004e82565b9190910192915050565b6103208101610300808584378201835f5b60018110156200573557815183526020928301929091019060010162005714565b5050509392505050565b5f6020828403121562005750575f80fd5b8151801515811462004a8a575f80fd5b73ffffffffffffffffffffffffffffffffffffffff83168152604060208201525f620025d7604083018462004ea656fe60a060405260405162000a5e38038062000a5e833981016040819052620000269162000375565b828162000034828262000060565b50506001600160a01b038216608052620000576200005160805190565b620000c5565b5050506200046c565b6200006b8262000136565b6040516001600160a01b038316907fbc7cd75a20ee27fd9adebab32041f755214dbc6bffa90cc0225b39da2e5c2d3b905f90a2805115620000b757620000b28282620001b5565b505050565b620000c16200022e565b5050565b7f7e644d79422f17c01e4894b5f4f588d331ebfa28653d42ae832dc59e38c9798f620001065f8051602062000a3e833981519152546001600160a01b031690565b604080516001600160a01b03928316815291841660208301520160405180910390a1620001338162000250565b50565b806001600160a01b03163b5f036200017157604051634c9c8ce360e01b81526001600160a01b03821660048201526024015b60405180910390fd5b807f360894a13ba1a3210667c828492db98dca3e2076cc3735a920a3ca505d382bbc5b80546001600160a01b0319166001600160a01b039290921691909117905550565b60605f80846001600160a01b031684604051620001d391906200044f565b5f60405180830381855af49150503d805f81146200020d576040519150601f19603f3d011682016040523d82523d5f602084013e62000212565b606091505b5090925090506200022585838362000291565b95945050505050565b34156200024e5760405163b398979f60e01b815260040160405180910390fd5b565b6001600160a01b0381166200027b57604051633173bdd160e11b81525f600482015260240162000168565b805f8051602062000a3e83398151915262000194565b606082620002aa57620002a482620002f7565b620002f0565b8151158015620002c257506001600160a01b0384163b155b15620002ed57604051639996b31560e01b81526001600160a01b038516600482015260240162000168565b50805b9392505050565b805115620003085780518082602001fd5b604051630a12f52160e11b815260040160405180910390fd5b80516001600160a01b038116811462000338575f80fd5b919050565b634e487b7160e01b5f52604160045260245ffd5b5f5b838110156200036d57818101518382015260200162000353565b50505f910152565b5f805f6060848603121562000388575f80fd5b620003938462000321565b9250620003a36020850162000321565b60408501519092506001600160401b0380821115620003c0575f80fd5b818601915086601f830112620003d4575f80fd5b815181811115620003e957620003e96200033d565b604051601f8201601f19908116603f011681019083821181831017156200041457620004146200033d565b816040528281528960208487010111156200042d575f80fd5b6200044083602083016020880162000351565b80955050505050509250925092565b5f82516200046281846020870162000351565b9190910192915050565b6080516105ba620004845f395f601001526105ba5ff3fe608060405261000c61000e565b005b7f000000000000000000000000000000000000000000000000000000000000000073ffffffffffffffffffffffffffffffffffffffff1633036100a7575f357fffffffff00000000000000000000000000000000000000000000000000000000167f4f1ef286000000000000000000000000000000000000000000000000000000001461009f5761009d6100ab565b565b61009d6100bb565b61009d5b61009d6100b66100e9565b61012d565b5f806100ca3660048184610410565b8101906100d79190610464565b915091506100e5828261014b565b5050565b5f6101287f360894a13ba1a3210667c828492db98dca3e2076cc3735a920a3ca505d382bbc5473ffffffffffffffffffffffffffffffffffffffff1690565b905090565b365f80375f80365f845af43d5f803e808015610147573d5ff35b3d5ffd5b610154826101b2565b60405173ffffffffffffffffffffffffffffffffffffffff8316907fbc7cd75a20ee27fd9adebab32041f755214dbc6bffa90cc0225b39da2e5c2d3b905f90a28051156101aa576101a58282610285565b505050565b6100e5610304565b8073ffffffffffffffffffffffffffffffffffffffff163b5f0361021f576040517f4c9c8ce300000000000000000000000000000000000000000000000000000000815273ffffffffffffffffffffffffffffffffffffffff821660048201526024015b60405180910390fd5b7f360894a13ba1a3210667c828492db98dca3e2076cc3735a920a3ca505d382bbc80547fffffffffffffffffffffffff00000000000000000000000000000000000000001673ffffffffffffffffffffffffffffffffffffffff92909216919091179055565b60605f808473ffffffffffffffffffffffffffffffffffffffff16846040516102ae9190610558565b5f60405180830381855af49150503d805f81146102e6576040519150601f19603f3d011682016040523d82523d5f602084013e6102eb565b606091505b50915091506102fb85838361033c565b95945050505050565b341561009d576040517fb398979f00000000000000000000000000000000000000000000000000000000815260040160405180910390fd5b6060826103515761034c826103ce565b6103c7565b8151158015610375575073ffffffffffffffffffffffffffffffffffffffff84163b155b156103c4576040517f9996b31500000000000000000000000000000000000000000000000000000000815273ffffffffffffffffffffffffffffffffffffffff85166004820152602401610216565b50805b9392505050565b8051156103de5780518082602001fd5b6040517f1425ea4200000000000000000000000000000000000000000000000000000000815260040160405180910390fd5b5f808585111561041e575f80fd5b8386111561042a575f80fd5b5050820193919092039150565b7f4e487b71000000000000000000000000000000000000000000000000000000005f52604160045260245ffd5b5f8060408385031215610475575f80fd5b823573ffffffffffffffffffffffffffffffffffffffff81168114610498575f80fd5b9150602083013567ffffffffffffffff808211156104b4575f80fd5b818501915085601f8301126104c7575f80fd5b8135818111156104d9576104d9610437565b604051601f82017fffffffffffffffffffffffffffffffffffffffffffffffffffffffffffffffe0908116603f0116810190838211818310171561051f5761051f610437565b81604052828152886020848701011115610537575f80fd5b826020860160208301375f6020848301015280955050505050509250929050565b5f82515f5b81811015610577576020818601810151858301520161055d565b505f92019182525091905056fea26469706673582212200ca61bd1e45d482203caba1d216b11bb6992f1ce0f6427bfe86e65b2f53457a264736f6c63430008140033b53127684a568b3173ae13b9f8a6016e243e63b6e8ee1178d6a717850b5d6103a2646970667358221220e4d8e775bc16e3096e264facd5c1bc0823072095a414988875e4750fb379cd0864736f6c63430008140033",
  "linkReferences": {},
  "deployedLinkReferences": {}
}