{
  "_format": "hh-sol-artifact-1",
  "contractName": "PolygonZkEVM",
  "sourceName": "contracts/PolygonZkEVM.sol",
  "abi": [
    {
      "inputs": [
        {
          "internalType": "contract IPolygonZkEVMGlobalExitRoot",
          "name": "_globalExitRootManager",
          "type": "address"
        },
        {
          "internalType": "contract IERC20Upgradeable",
          "name": "_matic",
          "type": "address"
        },
        {
          "internalType": "contract IVerifierRollup",
          "name": "_rollupVerifier",
          "type": "address"
        },
        {
          "internalType": "contract IPolygonZkEVMBridge",
          "name": "_bridgeAddress",
          "type": "address"
        },
        {
          "internalType": "uint64",
          "name": "_chainID",
          "type": "uint64"
        },
        {
          "internalType": "uint64",
          "name": "_forkID",
          "type": "uint64"
        }
      ],
      "stateMutability": "nonpayable",
      "type": "constructor"
    },
    {
      "inputs": [],
      "name": "BatchAlreadyVerified",
      "type": "error"
    },
    {
      "inputs": [],
      "name": "BatchNotSequencedOrNotSequenceEnd",
      "type": "error"
    },
    {
      "inputs": [],
      "name": "ExceedMaxVerifyBatches",
      "type": "error"
    },
    {
      "inputs": [],
      "name": "FinalNumBatchBelowLastVerifiedBatch",
      "type": "error"
    },
    {
      "inputs": [],
      "name": "FinalNumBatchDoesNotMatchPendingState",
      "type": "error"
    },
    {
      "inputs": [],
      "name": "FinalPendingStateNumInvalid",
      "type": "error"
    },
    {
      "inputs": [],
      "name": "ForceBatchNotAllowed",
      "type": "error"
    },
    {
      "inputs": [],
      "name": "ForceBatchTimeoutNotExpired",
      "type": "error"
    },
    {
      "inputs": [],
      "name": "ForceBatchesAlreadyActive",
      "type": "error"
    },
    {
      "inputs": [],
      "name": "ForceBatchesOverflow",
      "type": "error"
    },
    {
      "inputs": [],
      "name": "ForcedDataDoesNotMatch",
      "type": "error"
    },
    {
      "inputs": [],
      "name": "GlobalExitRootNotExist",
      "type": "error"
    },
    {
      "inputs": [],
      "name": "HaltTimeoutNotExpired",
      "type": "error"
    },
    {
      "inputs": [],
      "name": "InitNumBatchAboveLastVerifiedBatch",
      "type": "error"
    },
    {
      "inputs": [],
      "name": "InitNumBatchDoesNotMatchPendingState",
      "type": "error"
    },
    {
      "inputs": [],
      "name": "InvalidProof",
      "type": "error"
    },
    {
      "inputs": [],
      "name": "InvalidRangeBatchTimeTarget",
      "type": "error"
    },
    {
      "inputs": [],
      "name": "InvalidRangeForceBatchTimeout",
      "type": "error"
    },
    {
      "inputs": [],
      "name": "InvalidRangeMultiplierBatchFee",
      "type": "error"
    },
    {
      "inputs": [],
      "name": "NewAccInputHashDoesNotExist",
      "type": "error"
    },
    {
      "inputs": [],
      "name": "NewPendingStateTimeoutMustBeLower",
      "type": "error"
    },
    {
      "inputs": [],
      "name": "NewStateRootNotInsidePrime",
      "type": "error"
    },
    {
      "inputs": [],
      "name": "NewTrustedAggregatorTimeoutMustBeLower",
      "type": "error"
    },
    {
      "inputs": [],
      "name": "NotEnoughMaticAmount",
      "type": "error"
    },
    {
      "inputs": [],
      "name": "OldAccInputHashDoesNotExist",
      "type": "error"
    },
    {
      "inputs": [],
      "name": "OldStateRootDoesNotExist",
      "type": "error"
    },
    {
      "inputs": [],
      "name": "OnlyAdmin",
      "type": "error"
    },
    {
      "inputs": [],
      "name": "OnlyEmergencyState",
      "type": "error"
    },
    {
      "inputs": [],
      "name": "OnlyNotEmergencyState",
      "type": "error"
    },
    {
      "inputs": [],
      "name": "OnlyPendingAdmin",
      "type": "error"
    },
    {
      "inputs": [],
      "name": "OnlyTrustedAggregator",
      "type": "error"
    },
    {
      "inputs": [],
      "name": "OnlyTrustedSequencer",
      "type": "error"
    },
    {
      "inputs": [],
      "name": "PendingStateDoesNotExist",
      "type": "error"
    },
    {
      "inputs": [],
      "name": "PendingStateInvalid",
      "type": "error"
    },
    {
      "inputs": [],
      "name": "PendingStateNotConsolidable",
      "type": "error"
    },
    {
      "inputs": [],
      "name": "PendingStateTimeoutExceedHaltAggregationTimeout",
      "type": "error"
    },
    {
      "inputs": [],
      "name": "SequenceZeroBatches",
      "type": "error"
    },
    {
      "inputs": [],
      "name": "SequencedTimestampBelowForcedTimestamp",
      "type": "error"
    },
    {
      "inputs": [],
      "name": "SequencedTimestampInvalid",
      "type": "error"
    },
    {
      "inputs": [],
      "name": "StoredRootMustBeDifferentThanNewRoot",
      "type": "error"
    },
    {
      "inputs": [],
      "name": "TransactionsLengthAboveMax",
      "type": "error"
    },
    {
      "inputs": [],
      "name": "TrustedAggregatorTimeoutExceedHaltAggregationTimeout",
      "type": "error"
    },
    {
      "inputs": [],
      "name": "TrustedAggregatorTimeoutNotExpired",
      "type": "error"
    },
    {
      "anonymous": false,
      "inputs": [
        {
          "indexed": false,
          "internalType": "address",
          "name": "newAdmin",
          "type": "address"
        }
      ],
      "name": "AcceptAdminRole",
      "type": "event"
    },
    {
      "anonymous": false,
      "inputs": [],
      "name": "ActivateForceBatches",
      "type": "event"
    },
    {
      "anonymous": false,
      "inputs": [
        {
          "indexed": true,
          "internalType": "uint64",
          "name": "numBatch",
          "type": "uint64"
        },
        {
          "indexed": false,
          "internalType": "bytes32",
          "name": "stateRoot",
          "type": "bytes32"
        },
        {
          "indexed": true,
          "internalType": "uint64",
          "name": "pendingStateNum",
          "type": "uint64"
        }
      ],
      "name": "ConsolidatePendingState",
      "type": "event"
    },
    {
      "anonymous": false,
      "inputs": [],
      "name": "EmergencyStateActivated",
      "type": "event"
    },
    {
      "anonymous": false,
      "inputs": [],
      "name": "EmergencyStateDeactivated",
      "type": "event"
    },
    {
      "anonymous": false,
      "inputs": [
        {
          "indexed": true,
          "internalType": "uint64",
          "name": "forceBatchNum",
          "type": "uint64"
        },
        {
          "indexed": false,
          "internalType": "bytes32",
          "name": "lastGlobalExitRoot",
          "type": "bytes32"
        },
        {
          "indexed": false,
          "internalType": "address",
          "name": "sequencer",
          "type": "address"
        },
        {
          "indexed": false,
          "internalType": "bytes",
          "name": "transactions",
          "type": "bytes"
        }
      ],
      "name": "ForceBatch",
      "type": "event"
    },
    {
      "anonymous": false,
      "inputs": [
        {
          "indexed": false,
          "internalType": "uint8",
          "name": "version",
          "type": "uint8"
        }
      ],
      "name": "Initialized",
      "type": "event"
    },
    {
      "anonymous": false,
      "inputs": [
        {
          "indexed": true,
          "internalType": "uint64",
          "name": "numBatch",
          "type": "uint64"
        },
        {
          "indexed": false,
          "internalType": "bytes32",
          "name": "stateRoot",
          "type": "bytes32"
        },
        {
          "indexed": true,
          "internalType": "address",
          "name": "aggregator",
          "type": "address"
        }
      ],
      "name": "OverridePendingState",
      "type": "event"
    },
    {
      "anonymous": false,
      "inputs": [
        {
          "indexed": true,
          "internalType": "address",
          "name": "previousOwner",
          "type": "address"
        },
        {
          "indexed": true,
          "internalType": "address",
          "name": "newOwner",
          "type": "address"
        }
      ],
      "name": "OwnershipTransferred",
      "type": "event"
    },
    {
      "anonymous": false,
      "inputs": [
        {
          "indexed": false,
          "internalType": "bytes32",
          "name": "storedStateRoot",
          "type": "bytes32"
        },
        {
          "indexed": false,
          "internalType": "bytes32",
          "name": "provedStateRoot",
          "type": "bytes32"
        }
      ],
      "name": "ProveNonDeterministicPendingState",
      "type": "event"
    },
    {
      "anonymous": false,
      "inputs": [
        {
          "indexed": true,
          "internalType": "uint64",
          "name": "numBatch",
          "type": "uint64"
        }
      ],
      "name": "SequenceBatches",
      "type": "event"
    },
    {
      "anonymous": false,
      "inputs": [
        {
          "indexed": true,
          "internalType": "uint64",
          "name": "numBatch",
          "type": "uint64"
        }
      ],
      "name": "SequenceForceBatches",
      "type": "event"
    },
    {
      "anonymous": false,
      "inputs": [
        {
          "indexed": false,
          "internalType": "uint64",
          "name": "newforceBatchTimeout",
          "type": "uint64"
        }
      ],
      "name": "SetForceBatchTimeout",
      "type": "event"
    },
    {
      "anonymous": false,
      "inputs": [
        {
          "indexed": false,
          "internalType": "uint16",
          "name": "newMultiplierBatchFee",
          "type": "uint16"
        }
      ],
      "name": "SetMultiplierBatchFee",
      "type": "event"
    },
    {
      "anonymous": false,
      "inputs": [
        {
          "indexed": false,
          "internalType": "uint64",
          "name": "newPendingStateTimeout",
          "type": "uint64"
        }
      ],
      "name": "SetPendingStateTimeout",
      "type": "event"
    },
    {
      "anonymous": false,
      "inputs": [
        {
          "indexed": false,
          "internalType": "address",
          "name": "newTrustedAggregator",
          "type": "address"
        }
      ],
      "name": "SetTrustedAggregator",
      "type": "event"
    },
    {
      "anonymous": false,
      "inputs": [
        {
          "indexed": false,
          "internalType": "uint64",
          "name": "newTrustedAggregatorTimeout",
          "type": "uint64"
        }
      ],
      "name": "SetTrustedAggregatorTimeout",
      "type": "event"
    },
    {
      "anonymous": false,
      "inputs": [
        {
          "indexed": false,
          "internalType": "address",
          "name": "newTrustedSequencer",
          "type": "address"
        }
      ],
      "name": "SetTrustedSequencer",
      "type": "event"
    },
    {
      "anonymous": false,
      "inputs": [
        {
          "indexed": false,
          "internalType": "string",
          "name": "newTrustedSequencerURL",
          "type": "string"
        }
      ],
      "name": "SetTrustedSequencerURL",
      "type": "event"
    },
    {
      "anonymous": false,
      "inputs": [
        {
          "indexed": false,
          "internalType": "uint64",
          "name": "newVerifyBatchTimeTarget",
          "type": "uint64"
        }
      ],
      "name": "SetVerifyBatchTimeTarget",
      "type": "event"
    },
    {
      "anonymous": false,
      "inputs": [
        {
          "indexed": false,
          "internalType": "address",
          "name": "newPendingAdmin",
          "type": "address"
        }
      ],
      "name": "TransferAdminRole",
      "type": "event"
    },
    {
      "anonymous": false,
      "inputs": [
        {
          "indexed": false,
          "internalType": "uint64",
          "name": "numBatch",
          "type": "uint64"
        },
        {
          "indexed": false,
          "internalType": "uint64",
          "name": "forkID",
          "type": "uint64"
        },
        {
          "indexed": false,
          "internalType": "string",
          "name": "version",
          "type": "string"
        }
      ],
      "name": "UpdateZkEVMVersion",
      "type": "event"
    },
    {
      "anonymous": false,
      "inputs": [
        {
          "indexed": true,
          "internalType": "uint64",
          "name": "numBatch",
          "type": "uint64"
        },
        {
          "indexed": false,
          "internalType": "bytes32",
          "name": "stateRoot",
          "type": "bytes32"
        },
        {
          "indexed": true,
          "internalType": "address",
          "name": "aggregator",
          "type": "address"
        }
      ],
      "name": "VerifyBatches",
      "type": "event"
    },
    {
      "anonymous": false,
      "inputs": [
        {
          "indexed": true,
          "internalType": "uint64",
          "name": "numBatch",
          "type": "uint64"
        },
        {
          "indexed": false,
          "internalType": "bytes32",
          "name": "stateRoot",
          "type": "bytes32"
        },
        {
          "indexed": true,
          "internalType": "address",
          "name": "aggregator",
          "type": "address"
        }
      ],
      "name": "VerifyBatchesTrustedAggregator",
      "type": "event"
    },
    {
      "inputs": [],
      "name": "acceptAdminRole",
      "outputs": [],
      "stateMutability": "nonpayable",
      "type": "function"
    },
    {
      "inputs": [
        {
          "internalType": "uint64",
          "name": "sequencedBatchNum",
          "type": "uint64"
        }
      ],
      "name": "activateEmergencyState",
      "outputs": [],
      "stateMutability": "nonpayable",
      "type": "function"
    },
    {
      "inputs": [],
      "name": "activateForceBatches",
      "outputs": [],
      "stateMutability": "nonpayable",
      "type": "function"
    },
    {
      "inputs": [],
      "name": "admin",
      "outputs": [
        {
          "internalType": "address",
          "name": "",
          "type": "address"
        }
      ],
      "stateMutability": "view",
      "type": "function"
    },
    {
      "inputs": [],
      "name": "batchFee",
      "outputs": [
        {
          "internalType": "uint256",
          "name": "",
          "type": "uint256"
        }
      ],
      "stateMutability": "view",
      "type": "function"
    },
    {
      "inputs": [
        {
          "internalType": "uint64",
          "name": "",
          "type": "uint64"
        }
      ],
      "name": "batchNumToStateRoot",
      "outputs": [
        {
          "internalType": "bytes32",
          "name": "",
          "type": "bytes32"
        }
      ],
      "stateMutability": "view",
      "type": "function"
    },
    {
      "inputs": [],
      "name": "bridgeAddress",
      "outputs": [
        {
          "internalType": "contract IPolygonZkEVMBridge",
          "name": "",
          "type": "address"
        }
      ],
      "stateMutability": "view",
      "type": "function"
    },
    {
      "inputs": [],
      "name": "calculateRewardPerBatch",
      "outputs": [
        {
          "internalType": "uint256",
          "name": "",
          "type": "uint256"
        }
      ],
      "stateMutability": "view",
      "type": "function"
    },
    {
      "inputs": [],
      "name": "chainID",
      "outputs": [
        {
          "internalType": "uint64",
          "name": "",
          "type": "uint64"
        }
      ],
      "stateMutability": "view",
      "type": "function"
    },
    {
      "inputs": [
        {
          "internalType": "uint256",
          "name": "newStateRoot",
          "type": "uint256"
        }
      ],
      "name": "checkStateRootInsidePrime",
      "outputs": [
        {
          "internalType": "bool",
          "name": "",
          "type": "bool"
        }
      ],
      "stateMutability": "pure",
      "type": "function"
    },
    {
      "inputs": [
        {
          "internalType": "uint64",
          "name": "pendingStateNum",
          "type": "uint64"
        }
      ],
      "name": "consolidatePendingState",
      "outputs": [],
      "stateMutability": "nonpayable",
      "type": "function"
    },
    {
      "inputs": [],
      "name": "deactivateEmergencyState",
      "outputs": [],
      "stateMutability": "nonpayable",
      "type": "function"
    },
    {
      "inputs": [
        {
          "internalType": "bytes",
          "name": "transactions",
          "type": "bytes"
        },
        {
          "internalType": "uint256",
          "name": "maticAmount",
          "type": "uint256"
        }
      ],
      "name": "forceBatch",
      "outputs": [],
      "stateMutability": "nonpayable",
      "type": "function"
    },
    {
      "inputs": [],
      "name": "forceBatchTimeout",
      "outputs": [
        {
          "internalType": "uint64",
          "name": "",
          "type": "uint64"
        }
      ],
      "stateMutability": "view",
      "type": "function"
    },
    {
      "inputs": [
        {
          "internalType": "uint64",
          "name": "",
          "type": "uint64"
        }
      ],
      "name": "forcedBatches",
      "outputs": [
        {
          "internalType": "bytes32",
          "name": "",
          "type": "bytes32"
        }
      ],
      "stateMutability": "view",
      "type": "function"
    },
    {
      "inputs": [],
      "name": "forkID",
      "outputs": [
        {
          "internalType": "uint64",
          "name": "",
          "type": "uint64"
        }
      ],
      "stateMutability": "view",
      "type": "function"
    },
    {
      "inputs": [],
      "name": "getForcedBatchFee",
      "outputs": [
        {
          "internalType": "uint256",
          "name": "",
          "type": "uint256"
        }
      ],
      "stateMutability": "view",
      "type": "function"
    },
    {
      "inputs": [
        {
          "internalType": "uint64",
          "name": "initNumBatch",
          "type": "uint64"
        },
        {
          "internalType": "uint64",
          "name": "finalNewBatch",
          "type": "uint64"
        },
        {
          "internalType": "bytes32",
          "name": "newLocalExitRoot",
          "type": "bytes32"
        },
        {
          "internalType": "bytes32",
          "name": "oldStateRoot",
          "type": "bytes32"
        },
        {
          "internalType": "bytes32",
          "name": "newStateRoot",
          "type": "bytes32"
        }
      ],
      "name": "getInputSnarkBytes",
      "outputs": [
        {
          "internalType": "bytes",
          "name": "",
          "type": "bytes"
        }
      ],
      "stateMutability": "view",
      "type": "function"
    },
    {
      "inputs": [],
      "name": "getLastVerifiedBatch",
      "outputs": [
        {
          "internalType": "uint64",
          "name": "",
          "type": "uint64"
        }
      ],
      "stateMutability": "view",
      "type": "function"
    },
    {
      "inputs": [],
      "name": "globalExitRootManager",
      "outputs": [
        {
          "internalType": "contract IPolygonZkEVMGlobalExitRoot",
          "name": "",
          "type": "address"
        }
      ],
      "stateMutability": "view",
      "type": "function"
    },
    {
      "inputs": [
        {
          "components": [
            {
              "internalType": "address",
              "name": "admin",
              "type": "address"
            },
            {
              "internalType": "address",
              "name": "trustedSequencer",
              "type": "address"
            },
            {
              "internalType": "uint64",
              "name": "pendingStateTimeout",
              "type": "uint64"
            },
            {
              "internalType": "address",
              "name": "trustedAggregator",
              "type": "address"
            },
            {
              "internalType": "uint64",
              "name": "trustedAggregatorTimeout",
              "type": "uint64"
            }
          ],
          "internalType": "struct PolygonZkEVM.InitializePackedParameters",
          "name": "initializePackedParameters",
          "type": "tuple"
        },
        {
          "internalType": "bytes32",
          "name": "genesisRoot",
          "type": "bytes32"
        },
        {
          "internalType": "string",
          "name": "_trustedSequencerURL",
          "type": "string"
        },
        {
          "internalType": "string",
          "name": "_networkName",
          "type": "string"
        },
        {
          "internalType": "string",
          "name": "_version",
          "type": "string"
        }
      ],
      "name": "initialize",
      "outputs": [],
      "stateMutability": "nonpayable",
      "type": "function"
    },
    {
      "inputs": [],
      "name": "isEmergencyState",
      "outputs": [
        {
          "internalType": "bool",
          "name": "",
          "type": "bool"
        }
      ],
      "stateMutability": "view",
      "type": "function"
    },
    {
      "inputs": [],
      "name": "isForcedBatchDisallowed",
      "outputs": [
        {
          "internalType": "bool",
          "name": "",
          "type": "bool"
        }
      ],
      "stateMutability": "view",
      "type": "function"
    },
    {
      "inputs": [
        {
          "internalType": "uint64",
          "name": "pendingStateNum",
          "type": "uint64"
        }
      ],
      "name": "isPendingStateConsolidable",
      "outputs": [
        {
          "internalType": "bool",
          "name": "",
          "type": "bool"
        }
      ],
      "stateMutability": "view",
      "type": "function"
    },
    {
      "inputs": [],
      "name": "lastBatchSequenced",
      "outputs": [
        {
          "internalType": "uint64",
          "name": "",
          "type": "uint64"
        }
      ],
      "stateMutability": "view",
      "type": "function"
    },
    {
      "inputs": [],
      "name": "lastForceBatch",
      "outputs": [
        {
          "internalType": "uint64",
          "name": "",
          "type": "uint64"
        }
      ],
      "stateMutability": "view",
      "type": "function"
    },
    {
      "inputs": [],
      "name": "lastForceBatchSequenced",
      "outputs": [
        {
          "internalType": "uint64",
          "name": "",
          "type": "uint64"
        }
      ],
      "stateMutability": "view",
      "type": "function"
    },
    {
      "inputs": [],
      "name": "lastPendingState",
      "outputs": [
        {
          "internalType": "uint64",
          "name": "",
          "type": "uint64"
        }
      ],
      "stateMutability": "view",
      "type": "function"
    },
    {
      "inputs": [],
      "name": "lastPendingStateConsolidated",
      "outputs": [
        {
          "internalType": "uint64",
          "name": "",
          "type": "uint64"
        }
      ],
      "stateMutability": "view",
      "type": "function"
    },
    {
      "inputs": [],
      "name": "lastTimestamp",
      "outputs": [
        {
          "internalType": "uint64",
          "name": "",
          "type": "uint64"
        }
      ],
      "stateMutability": "view",
      "type": "function"
    },
    {
      "inputs": [],
      "name": "lastVerifiedBatch",
      "outputs": [
        {
          "internalType": "uint64",
          "name": "",
          "type": "uint64"
        }
      ],
      "stateMutability": "view",
      "type": "function"
    },
    {
      "inputs": [],
      "name": "matic",
      "outputs": [
        {
          "internalType": "contract IERC20Upgradeable",
          "name": "",
          "type": "address"
        }
      ],
      "stateMutability": "view",
      "type": "function"
    },
    {
      "inputs": [],
      "name": "multiplierBatchFee",
      "outputs": [
        {
          "internalType": "uint16",
          "name": "",
          "type": "uint16"
        }
      ],
      "stateMutability": "view",
      "type": "function"
    },
    {
      "inputs": [],
      "name": "networkName",
      "outputs": [
        {
          "internalType": "string",
          "name": "",
          "type": "string"
        }
      ],
      "stateMutability": "view",
      "type": "function"
    },
    {
      "inputs": [
        {
          "internalType": "uint64",
          "name": "initPendingStateNum",
          "type": "uint64"
        },
        {
          "internalType": "uint64",
          "name": "finalPendingStateNum",
          "type": "uint64"
        },
        {
          "internalType": "uint64",
          "name": "initNumBatch",
          "type": "uint64"
        },
        {
          "internalType": "uint64",
          "name": "finalNewBatch",
          "type": "uint64"
        },
        {
          "internalType": "bytes32",
          "name": "newLocalExitRoot",
          "type": "bytes32"
        },
        {
          "internalType": "bytes32",
          "name": "newStateRoot",
          "type": "bytes32"
        },
        {
          "internalType": "bytes32[24]",
          "name": "proof",
          "type": "bytes32[24]"
        }
      ],
      "name": "overridePendingState",
      "outputs": [],
      "stateMutability": "nonpayable",
      "type": "function"
    },
    {
      "inputs": [],
      "name": "owner",
      "outputs": [
        {
          "internalType": "address",
          "name": "",
          "type": "address"
        }
      ],
      "stateMutability": "view",
      "type": "function"
    },
    {
      "inputs": [],
      "name": "pendingAdmin",
      "outputs": [
        {
          "internalType": "address",
          "name": "",
          "type": "address"
        }
      ],
      "stateMutability": "view",
      "type": "function"
    },
    {
      "inputs": [],
      "name": "pendingStateTimeout",
      "outputs": [
        {
          "internalType": "uint64",
          "name": "",
          "type": "uint64"
        }
      ],
      "stateMutability": "view",
      "type": "function"
    },
    {
      "inputs": [
        {
          "internalType": "uint256",
          "name": "",
          "type": "uint256"
        }
      ],
      "name": "pendingStateTransitions",
      "outputs": [
        {
          "internalType": "uint64",
          "name": "timestamp",
          "type": "uint64"
        },
        {
          "internalType": "uint64",
          "name": "lastVerifiedBatch",
          "type": "uint64"
        },
        {
          "internalType": "bytes32",
          "name": "exitRoot",
          "type": "bytes32"
        },
        {
          "internalType": "bytes32",
          "name": "stateRoot",
          "type": "bytes32"
        }
      ],
      "stateMutability": "view",
      "type": "function"
    },
    {
      "inputs": [
        {
          "internalType": "uint64",
          "name": "initPendingStateNum",
          "type": "uint64"
        },
        {
          "internalType": "uint64",
          "name": "finalPendingStateNum",
          "type": "uint64"
        },
        {
          "internalType": "uint64",
          "name": "initNumBatch",
          "type": "uint64"
        },
        {
          "internalType": "uint64",
          "name": "finalNewBatch",
          "type": "uint64"
        },
        {
          "internalType": "bytes32",
          "name": "newLocalExitRoot",
          "type": "bytes32"
        },
        {
          "internalType": "bytes32",
          "name": "newStateRoot",
          "type": "bytes32"
        },
        {
          "internalType": "bytes32[24]",
          "name": "proof",
          "type": "bytes32[24]"
        }
      ],
      "name": "proveNonDeterministicPendingState",
      "outputs": [],
      "stateMutability": "nonpayable",
      "type": "function"
    },
    {
      "inputs": [],
      "name": "renounceOwnership",
      "outputs": [],
      "stateMutability": "nonpayable",
      "type": "function"
    },
    {
      "inputs": [],
      "name": "rollupVerifier",
      "outputs": [
        {
          "internalType": "contract IVerifierRollup",
          "name": "",
          "type": "address"
        }
      ],
      "stateMutability": "view",
      "type": "function"
    },
    {
      "inputs": [
        {
          "components": [
            {
              "internalType": "bytes",
              "name": "transactions",
              "type": "bytes"
            },
            {
              "internalType": "bytes32",
              "name": "globalExitRoot",
              "type": "bytes32"
            },
            {
              "internalType": "uint64",
              "name": "timestamp",
              "type": "uint64"
            },
            {
              "internalType": "uint64",
              "name": "minForcedTimestamp",
              "type": "uint64"
            }
          ],
          "internalType": "struct PolygonZkEVM.BatchData[]",
          "name": "batches",
          "type": "tuple[]"
        },
        {
          "internalType": "address",
          "name": "l2Coinbase",
          "type": "address"
        }
      ],
      "name": "sequenceBatches",
      "outputs": [],
      "stateMutability": "nonpayable",
      "type": "function"
    },
    {
      "inputs": [
        {
          "components": [
            {
              "internalType": "bytes",
              "name": "transactions",
              "type": "bytes"
            },
            {
              "internalType": "bytes32",
              "name": "globalExitRoot",
              "type": "bytes32"
            },
            {
              "internalType": "uint64",
              "name": "minForcedTimestamp",
              "type": "uint64"
            }
          ],
          "internalType": "struct PolygonZkEVM.ForcedBatchData[]",
          "name": "batches",
          "type": "tuple[]"
        }
      ],
      "name": "sequenceForceBatches",
      "outputs": [],
      "stateMutability": "nonpayable",
      "type": "function"
    },
    {
      "inputs": [
        {
          "internalType": "uint64",
          "name": "",
          "type": "uint64"
        }
      ],
      "name": "sequencedBatches",
      "outputs": [
        {
          "internalType": "bytes32",
          "name": "accInputHash",
          "type": "bytes32"
        },
        {
          "internalType": "uint64",
          "name": "sequencedTimestamp",
          "type": "uint64"
        },
        {
          "internalType": "uint64",
          "name": "previousLastBatchSequenced",
          "type": "uint64"
        }
      ],
      "stateMutability": "view",
      "type": "function"
    },
    {
      "inputs": [
        {
          "internalType": "uint64",
          "name": "newforceBatchTimeout",
          "type": "uint64"
        }
      ],
      "name": "setForceBatchTimeout",
      "outputs": [],
      "stateMutability": "nonpayable",
      "type": "function"
    },
    {
      "inputs": [
        {
          "internalType": "uint16",
          "name": "newMultiplierBatchFee",
          "type": "uint16"
        }
      ],
      "name": "setMultiplierBatchFee",
      "outputs": [],
      "stateMutability": "nonpayable",
      "type": "function"
    },
    {
      "inputs": [
        {
          "internalType": "uint64",
          "name": "newPendingStateTimeout",
          "type": "uint64"
        }
      ],
      "name": "setPendingStateTimeout",
      "outputs": [],
      "stateMutability": "nonpayable",
      "type": "function"
    },
    {
      "inputs": [
        {
          "internalType": "address",
          "name": "newTrustedAggregator",
          "type": "address"
        }
      ],
      "name": "setTrustedAggregator",
      "outputs": [],
      "stateMutability": "nonpayable",
      "type": "function"
    },
    {
      "inputs": [
        {
          "internalType": "uint64",
          "name": "newTrustedAggregatorTimeout",
          "type": "uint64"
        }
      ],
      "name": "setTrustedAggregatorTimeout",
      "outputs": [],
      "stateMutability": "nonpayable",
      "type": "function"
    },
    {
      "inputs": [
        {
          "internalType": "address",
          "name": "newTrustedSequencer",
          "type": "address"
        }
      ],
      "name": "setTrustedSequencer",
      "outputs": [],
      "stateMutability": "nonpayable",
      "type": "function"
    },
    {
      "inputs": [
        {
          "internalType": "string",
          "name": "newTrustedSequencerURL",
          "type": "string"
        }
      ],
      "name": "setTrustedSequencerURL",
      "outputs": [],
      "stateMutability": "nonpayable",
      "type": "function"
    },
    {
      "inputs": [
        {
          "internalType": "uint64",
          "name": "newVerifyBatchTimeTarget",
          "type": "uint64"
        }
      ],
      "name": "setVerifyBatchTimeTarget",
      "outputs": [],
      "stateMutability": "nonpayable",
      "type": "function"
    },
    {
      "inputs": [
        {
          "internalType": "address",
          "name": "newPendingAdmin",
          "type": "address"
        }
      ],
      "name": "transferAdminRole",
      "outputs": [],
      "stateMutability": "nonpayable",
      "type": "function"
    },
    {
      "inputs": [
        {
          "internalType": "address",
          "name": "newOwner",
          "type": "address"
        }
      ],
      "name": "transferOwnership",
      "outputs": [],
      "stateMutability": "nonpayable",
      "type": "function"
    },
    {
      "inputs": [],
      "name": "trustedAggregator",
      "outputs": [
        {
          "internalType": "address",
          "name": "",
          "type": "address"
        }
      ],
      "stateMutability": "view",
      "type": "function"
    },
    {
      "inputs": [],
      "name": "trustedAggregatorTimeout",
      "outputs": [
        {
          "internalType": "uint64",
          "name": "",
          "type": "uint64"
        }
      ],
      "stateMutability": "view",
      "type": "function"
    },
    {
      "inputs": [],
      "name": "trustedSequencer",
      "outputs": [
        {
          "internalType": "address",
          "name": "",
          "type": "address"
        }
      ],
      "stateMutability": "view",
      "type": "function"
    },
    {
      "inputs": [],
      "name": "trustedSequencerURL",
      "outputs": [
        {
          "internalType": "string",
          "name": "",
          "type": "string"
        }
      ],
      "stateMutability": "view",
      "type": "function"
    },
    {
      "inputs": [],
      "name": "verifyBatchTimeTarget",
      "outputs": [
        {
          "internalType": "uint64",
          "name": "",
          "type": "uint64"
        }
      ],
      "stateMutability": "view",
      "type": "function"
    },
    {
      "inputs": [
        {
          "internalType": "uint64",
          "name": "pendingStateNum",
          "type": "uint64"
        },
        {
          "internalType": "uint64",
          "name": "initNumBatch",
          "type": "uint64"
        },
        {
          "internalType": "uint64",
          "name": "finalNewBatch",
          "type": "uint64"
        },
        {
          "internalType": "bytes32",
          "name": "newLocalExitRoot",
          "type": "bytes32"
        },
        {
          "internalType": "bytes32",
          "name": "newStateRoot",
          "type": "bytes32"
        },
        {
          "internalType": "bytes32[24]",
          "name": "proof",
          "type": "bytes32[24]"
        }
      ],
      "name": "verifyBatches",
      "outputs": [],
      "stateMutability": "nonpayable",
      "type": "function"
    },
    {
      "inputs": [
        {
          "internalType": "uint64",
          "name": "pendingStateNum",
          "type": "uint64"
        },
        {
          "internalType": "uint64",
          "name": "initNumBatch",
          "type": "uint64"
        },
        {
          "internalType": "uint64",
          "name": "finalNewBatch",
          "type": "uint64"
        },
        {
          "internalType": "bytes32",
          "name": "newLocalExitRoot",
          "type": "bytes32"
        },
        {
          "internalType": "bytes32",
          "name": "newStateRoot",
          "type": "bytes32"
        },
        {
          "internalType": "bytes32[24]",
          "name": "proof",
          "type": "bytes32[24]"
        }
      ],
      "name": "verifyBatchesTrustedAggregator",
      "outputs": [],
      "stateMutability": "nonpayable",
      "type": "function"
    }
  ],
  "bytecode": "0x61014060405234801562000011575f80fd5b5060405162005f3338038062005f338339810160408190526200003491620000a2565b6001600160a01b0395861660c05293851660805291841660a05290921660e0526001600160401b039182166101005216610120526200012a565b6001600160a01b038116811462000083575f80fd5b50565b80516001600160401b03811681146200009d575f80fd5b919050565b5f805f805f8060c08789031215620000b8575f80fd5b8651620000c5816200006e565b6020880151909650620000d8816200006e565b6040880151909550620000eb816200006e565b6060880151909450620000fe816200006e565b92506200010e6080880162000086565b91506200011e60a0880162000086565b90509295509295509295565b60805160a05160c05160e0516101005161012051615d43620001f05f395f818161068201528181610dd3015261313301525f81816107ee0152610da901525f81816107b401528181611d76015281816137b90152614c0b01525f818161095901528181610f45015281816111100152818161196d015281816121440152818161399a01526146e301525f8181610a060152818161404c015261449a01525f81816108a901528181611d44015281816126290152818161396f01526141380152615d435ff3fe608060405234801561000f575f80fd5b50600436106103a9575f3560e01c8063841b24d7116101ea578063c754c7ed11610114578063e7a7ed02116100a9578063f14916d611610079578063f14916d614610a68578063f2fde38b14610a7b578063f851a44014610a8e578063f8b823e414610aae575f80fd5b8063e7a7ed02146109d1578063e8bf92ed14610a01578063eaeb077b14610a28578063ed6b010414610a3b575f80fd5b8063d2e129f9116100e4578063d2e129f91461097b578063d8d1091b1461098e578063d939b315146109a1578063dbc16976146109c9575f80fd5b8063c754c7ed146108e6578063c89e42df14610912578063cfa8ed4714610925578063d02103ca14610954575f80fd5b8063a3c573eb1161018a578063b4d63f581161015a578063b4d63f581461083e578063b6b0b097146108a4578063ba58ae39146108cb578063c0ed84e0146108de575f80fd5b8063a3c573eb146107af578063ada8f919146107d6578063adc879e9146107e9578063afd23cbe14610810575f80fd5b806399f5634e116101c557806399f5634e1461076e5780639aa972a3146107765780639c9f3dfe14610789578063a066215c1461079c575f80fd5b8063841b24d7146107185780638c3d7301146107485780638da5cb5b14610750575f80fd5b80634a1a89a7116102d6578063621dd4111161026b5780637215541a1161023b5780637215541a146106565780637fcb365314610669578063831c7ead1461067d578063837a4738146106a4575f80fd5b8063621dd411146106095780636b8616ce1461061c5780636ff512cc1461063b578063715018a61461064e575f80fd5b8063542028d5116102a6578063542028d5146105de5780635e9145c9146105e65780635ec91958146105f95780636046916914610601575f80fd5b80634a1a89a71461056b5780634a910e6a1461058b5780634e4877061461059e5780635392c5e0146105b1575f80fd5b8063298789831161034c578063394218e91161031c578063394218e9146104fc578063423fa8561461050f578063456052671461052f578063458c047714610557575f80fd5b806329878983146104975780632b0006fa146104c35780632c1f816a146104d6578063383b3be8146104e9575f80fd5b80631816b7e5116103875780631816b7e51461041657806319d8ac611461042b578063220d78991461043f5780632678224714610452575f80fd5b80630a0d9fbe146103ad578063107bf28c146103e457806315064c96146103f9575b5f80fd5b606f546103c690610100900467ffffffffffffffff1681565b60405167ffffffffffffffff90911681526020015b60405180910390f35b6103ec610ab7565b6040516103db9190615225565b606f546104069060ff1681565b60405190151581526020016103db565b61042961042436600461523e565b610b43565b005b6073546103c69067ffffffffffffffff1681565b6103ec61044d366004615276565b610c5b565b607b546104729073ffffffffffffffffffffffffffffffffffffffff1681565b60405173ffffffffffffffffffffffffffffffffffffffff90911681526020016103db565b6074546104729068010000000000000000900473ffffffffffffffffffffffffffffffffffffffff1681565b6104296104d13660046152d6565b610e31565b6104296104e436600461533a565b610ffb565b6104066104f73660046153af565b611203565b61042961050a3660046153af565b611258565b6073546103c69068010000000000000000900467ffffffffffffffff1681565b6073546103c690700100000000000000000000000000000000900467ffffffffffffffff1681565b6079546103c69067ffffffffffffffff1681565b6079546103c69068010000000000000000900467ffffffffffffffff1681565b6104296105993660046153af565b6113dc565b6104296105ac3660046153af565b61148f565b6105d06105bf3660046153af565b60756020525f908152604090205481565b6040519081526020016103db565b6103ec611613565b6104296105f4366004615433565b611620565b610429611e2f565b6105d0611f2e565b6104296106173660046152d6565b611f43565b6105d061062a3660046153af565b60716020525f908152604090205481565b610429610649366004615483565b6122c1565b610429612396565b6104296106643660046153af565b6123a9565b6074546103c69067ffffffffffffffff1681565b6103c67f000000000000000000000000000000000000000000000000000000000000000081565b6106ec6106b236600461549c565b60786020525f908152604090208054600182015460029092015467ffffffffffffffff808316936801000000000000000090930416919084565b6040805167ffffffffffffffff95861681529490931660208501529183015260608201526080016103db565b6079546103c6907801000000000000000000000000000000000000000000000000900467ffffffffffffffff1681565b610429612516565b60335473ffffffffffffffffffffffffffffffffffffffff16610472565b6105d06125e2565b61042961078436600461533a565b612735565b6104296107973660046153af565b6127e5565b6104296107aa3660046153af565b612961565b6104727f000000000000000000000000000000000000000000000000000000000000000081565b6104296107e4366004615483565b612a67565b6103c67f000000000000000000000000000000000000000000000000000000000000000081565b606f5461082b906901000000000000000000900461ffff1681565b60405161ffff90911681526020016103db565b61087e61084c3660046153af565b60726020525f90815260409020805460019091015467ffffffffffffffff808216916801000000000000000090041683565b6040805193845267ffffffffffffffff92831660208501529116908201526060016103db565b6104727f000000000000000000000000000000000000000000000000000000000000000081565b6104066108d936600461549c565b612b2b565b6103c6612bb3565b607b546103c69074010000000000000000000000000000000000000000900467ffffffffffffffff1681565b610429610920366004615587565b612c06565b606f54610472906b010000000000000000000000900473ffffffffffffffffffffffffffffffffffffffff1681565b6104727f000000000000000000000000000000000000000000000000000000000000000081565b6104296109893660046155f7565b612c93565b61042961099c3660046156a2565b6131d6565b6079546103c690700100000000000000000000000000000000900467ffffffffffffffff1681565b610429613766565b6073546103c6907801000000000000000000000000000000000000000000000000900467ffffffffffffffff1681565b6104727f000000000000000000000000000000000000000000000000000000000000000081565b610429610a363660046156e1565b61383a565b607b54610406907c0100000000000000000000000000000000000000000000000000000000900460ff1681565b610429610a76366004615483565b613c2a565b610429610a89366004615483565b613cfc565b607a546104729073ffffffffffffffffffffffffffffffffffffffff1681565b6105d060705481565b60778054610ac490615729565b80601f0160208091040260200160405190810160405280929190818152602001828054610af090615729565b8015610b3b5780601f10610b1257610100808354040283529160200191610b3b565b820191905f5260205f20905b815481529060010190602001808311610b1e57829003601f168201915b505050505081565b607a5473ffffffffffffffffffffffffffffffffffffffff163314610b94576040517f4755657900000000000000000000000000000000000000000000000000000000815260040160405180910390fd5b6103e88161ffff161080610bad57506103ff8161ffff16115b15610be4576040517f4c2533c800000000000000000000000000000000000000000000000000000000815260040160405180910390fd5b606f80547fffffffffffffffffffffffffffffffffffffffffff0000ffffffffffffffffff16690100000000000000000061ffff8416908102919091179091556040519081527f7019933d795eba185c180209e8ae8bffbaa25bcef293364687702c31f4d302c5906020015b60405180910390a150565b67ffffffffffffffff8086165f818152607260205260408082205493881682529020546060929115801590610c8e575081155b15610cc5576040517f6818c29e00000000000000000000000000000000000000000000000000000000815260040160405180910390fd5b80610cfc576040517f66385b5100000000000000000000000000000000000000000000000000000000815260040160405180910390fd5b610d0584612b2b565b610d3b576040517f176b913c00000000000000000000000000000000000000000000000000000000815260040160405180910390fd5b604080517fffffffffffffffffffffffffffffffffffffffff0000000000000000000000003360601b166020820152603481019690965260548601929092527fffffffffffffffff00000000000000000000000000000000000000000000000060c098891b811660748701527f0000000000000000000000000000000000000000000000000000000000000000891b8116607c8701527f0000000000000000000000000000000000000000000000000000000000000000891b81166084870152608c86019490945260ac85015260cc840194909452509290931b90911660ec830152805180830360d401815260f4909201905290565b60745468010000000000000000900473ffffffffffffffffffffffffffffffffffffffff163314610e8e576040517fbbcbbc0500000000000000000000000000000000000000000000000000000000815260040160405180910390fd5b610e9c868686868686613db0565b607480547fffffffffffffffffffffffffffffffffffffffffffffffff00000000000000001667ffffffffffffffff8681169182179092555f9081526075602052604090208390556079541615610f1657607980547fffffffffffffffffffffffffffffffff000000000000000000000000000000001690555b6040517f33d6247d000000000000000000000000000000000000000000000000000000008152600481018490527f000000000000000000000000000000000000000000000000000000000000000073ffffffffffffffffffffffffffffffffffffffff16906333d6247d906024015f604051808303815f87803b158015610f9b575f80fd5b505af1158015610fad573d5f803e3d5ffd5b505060405184815233925067ffffffffffffffff871691507fcb339b570a7f0b25afa7333371ff11192092a0aeace12b671f4c212f2815c6fe906020015b60405180910390a3505050505050565b60745468010000000000000000900473ffffffffffffffffffffffffffffffffffffffff163314611058576040517fbbcbbc0500000000000000000000000000000000000000000000000000000000815260040160405180910390fd5b6110678787878787878761416b565b607480547fffffffffffffffffffffffffffffffffffffffffffffffff00000000000000001667ffffffffffffffff8681169182179092555f90815260756020526040902083905560795416156110e157607980547fffffffffffffffffffffffffffffffff000000000000000000000000000000001690555b6040517f33d6247d000000000000000000000000000000000000000000000000000000008152600481018490527f000000000000000000000000000000000000000000000000000000000000000073ffffffffffffffffffffffffffffffffffffffff16906333d6247d906024015f604051808303815f87803b158015611166575f80fd5b505af1158015611178573d5f803e3d5ffd5b50506079805477ffffffffffffffffffffffffffffffffffffffffffffffff167a093a800000000000000000000000000000000000000000000000001790555050604051828152339067ffffffffffffffff8616907fcc1b5520188bf1dd3e63f98164b577c4d75c11a619ddea692112f0d1aec4cf729060200160405180910390a350505050505050565b60795467ffffffffffffffff8281165f908152607860205260408120549092429261124692700100000000000000000000000000000000909204811691166157a7565b67ffffffffffffffff16111592915050565b607a5473ffffffffffffffffffffffffffffffffffffffff1633146112a9576040517f4755657900000000000000000000000000000000000000000000000000000000815260040160405180910390fd5b62093a8067ffffffffffffffff821611156112f0576040517f1d06e87900000000000000000000000000000000000000000000000000000000815260040160405180910390fd5b606f5460ff1661135f5760795467ffffffffffffffff780100000000000000000000000000000000000000000000000090910481169082161061135f576040517f401636df00000000000000000000000000000000000000000000000000000000815260040160405180910390fd5b6079805477ffffffffffffffffffffffffffffffffffffffffffffffff16780100000000000000000000000000000000000000000000000067ffffffffffffffff8416908102919091179091556040519081527f1f4fa24c2e4bad19a7f3ec5c5485f70d46c798461c2e684f55bbd0fc661373a190602001610c50565b60745468010000000000000000900473ffffffffffffffffffffffffffffffffffffffff16331461148357606f5460ff1615611444576040517f2f0047fc00000000000000000000000000000000000000000000000000000000815260040160405180910390fd5b61144d81611203565b611483576040517f0ce9e4a200000000000000000000000000000000000000000000000000000000815260040160405180910390fd5b61148c8161459a565b50565b607a5473ffffffffffffffffffffffffffffffffffffffff1633146114e0576040517f4755657900000000000000000000000000000000000000000000000000000000815260040160405180910390fd5b62093a8067ffffffffffffffff82161115611527576040517ff5e37f2f00000000000000000000000000000000000000000000000000000000815260040160405180910390fd5b606f5460ff1661159257607b5467ffffffffffffffff74010000000000000000000000000000000000000000909104811690821610611592576040517ff5e37f2f00000000000000000000000000000000000000000000000000000000815260040160405180910390fd5b607b80547fffffffff0000000000000000ffffffffffffffffffffffffffffffffffffffff167401000000000000000000000000000000000000000067ffffffffffffffff8416908102919091179091556040519081527fa7eb6cb8a613eb4e8bddc1ac3d61ec6cf10898760f0b187bcca794c6ca6fa40b90602001610c50565b60768054610ac490615729565b606f5460ff161561165d576040517f2f0047fc00000000000000000000000000000000000000000000000000000000815260040160405180910390fd5b606f546b010000000000000000000000900473ffffffffffffffffffffffffffffffffffffffff1633146116bd576040517f11e7be1500000000000000000000000000000000000000000000000000000000815260040160405180910390fd5b815f8190036116f8576040517fcb591a5f00000000000000000000000000000000000000000000000000000000815260040160405180910390fd5b6103e8811115611734576040517fb59f753a00000000000000000000000000000000000000000000000000000000815260040160405180910390fd5b60735467ffffffffffffffff68010000000000000000820481165f81815260726020526040812054838516949293700100000000000000000000000000000000909304909216919082905b86811015611b92575f8a8a8381811061179a5761179a6157cf565b90506020028101906117ac91906157fc565b6117b590615838565b8051805160209091012060608201519192509067ffffffffffffffff161561192a57856117e1816158c2565b9650505f818360200151846060015160405160200161183893929190928352602083019190915260c01b7fffffffffffffffff00000000000000000000000000000000000000000000000016604082015260480190565b604080517fffffffffffffffffffffffffffffffffffffffffffffffffffffffffffffffe0818403018152918152815160209283012067ffffffffffffffff8a165f908152607190935291205490915081146118c0576040517fce3d755e00000000000000000000000000000000000000000000000000000000815260040160405180910390fd5b67ffffffffffffffff8088165f908152607160205260408082209190915560608501519085015190821691161015611924576040517f7f7ab87200000000000000000000000000000000000000000000000000000000815260040160405180910390fd5b50611a64565b6020820151158015906119ee575060208201516040517f257b363200000000000000000000000000000000000000000000000000000000815260048101919091527f000000000000000000000000000000000000000000000000000000000000000073ffffffffffffffffffffffffffffffffffffffff169063257b3632906024016020604051808303815f875af11580156119c8573d5f803e3d5ffd5b505050506040513d601f19601f820116820180604052508101906119ec91906158e8565b155b15611a25576040517f73bd668d00000000000000000000000000000000000000000000000000000000815260040160405180910390fd5b8151516201d4c01015611a64576040517fa29a6c7c00000000000000000000000000000000000000000000000000000000815260040160405180910390fd5b8767ffffffffffffffff16826040015167ffffffffffffffff161080611a97575042826040015167ffffffffffffffff16115b15611ace576040517fea82791600000000000000000000000000000000000000000000000000000000815260040160405180910390fd5b602082810151604080850151815193840189905290830184905260608084019290925260c01b7fffffffffffffffff0000000000000000000000000000000000000000000000001660808301528b901b7fffffffffffffffffffffffffffffffffffffffff000000000000000000000000166088820152609c01604080517fffffffffffffffffffffffffffffffffffffffffffffffffffffffffffffffe0818403018152918152815160209092019190912092015197509093505060010161177f565b50611b9d86856157a7565b60735490945067ffffffffffffffff780100000000000000000000000000000000000000000000000090910481169084161115611c06576040517fc630a00d00000000000000000000000000000000000000000000000000000000815260040160405180910390fd5b5f611c1182856158ff565b611c259067ffffffffffffffff1688615920565b604080516060810182528581524267ffffffffffffffff908116602080840191825260738054680100000000000000009081900485168688019081528d86165f8181526072909552979093209551865592516001909501805492519585167fffffffffffffffffffffffffffffffff000000000000000000000000000000009384161795851684029590951790945583548c8416911617930292909217905590915082811690851614611d1a57607380547fffffffffffffffff0000000000000000ffffffffffffffffffffffffffffffff1670010000000000000000000000000000000067ffffffffffffffff8716021790555b611d6c333083607054611d2d9190615933565b73ffffffffffffffffffffffffffffffffffffffff7f0000000000000000000000000000000000000000000000000000000000000000169291906147a7565b611d74614889565b7f000000000000000000000000000000000000000000000000000000000000000073ffffffffffffffffffffffffffffffffffffffff166379e2cf976040518163ffffffff1660e01b81526004015f604051808303815f87803b158015611dd9575f80fd5b505af1158015611deb573d5f803e3d5ffd5b505060405167ffffffffffffffff881692507f303446e6a8cb73c83dff421c0b1d5e5ce0719dab1bff13660fc254e58cc17fce91505f90a250505050505050505050565b607a5473ffffffffffffffffffffffffffffffffffffffff163314611e80576040517f4755657900000000000000000000000000000000000000000000000000000000815260040160405180910390fd5b607b547c0100000000000000000000000000000000000000000000000000000000900460ff16611edc576040517ff6ba91a100000000000000000000000000000000000000000000000000000000815260040160405180910390fd5b607b80547fffffff00ffffffffffffffffffffffffffffffffffffffffffffffffffffffff1690556040517f854dd6ce5a1445c4c54388b21cffd11cf5bba1b9e763aec48ce3da75d617412f905f90a1565b5f6070546064611f3e9190615933565b905090565b606f5460ff1615611f80576040517f2f0047fc00000000000000000000000000000000000000000000000000000000815260040160405180910390fd5b60795467ffffffffffffffff8581165f908152607260205260409020600101544292611fcc927801000000000000000000000000000000000000000000000000909104811691166157a7565b67ffffffffffffffff16111561200e576040517f8a0704d300000000000000000000000000000000000000000000000000000000815260040160405180910390fd5b6103e861201b86866158ff565b67ffffffffffffffff16111561205d576040517fb59f753a00000000000000000000000000000000000000000000000000000000815260040160405180910390fd5b61206b868686868686613db0565b61207484614938565b607954700100000000000000000000000000000000900467ffffffffffffffff165f036121b557607480547fffffffffffffffffffffffffffffffffffffffffffffffff00000000000000001667ffffffffffffffff8681169182179092555f908152607560205260409020839055607954161561211557607980547fffffffffffffffffffffffffffffffff000000000000000000000000000000001690555b6040517f33d6247d000000000000000000000000000000000000000000000000000000008152600481018490527f000000000000000000000000000000000000000000000000000000000000000073ffffffffffffffffffffffffffffffffffffffff16906333d6247d906024015f604051808303815f87803b15801561219a575f80fd5b505af11580156121ac573d5f803e3d5ffd5b50505050612283565b6121bd614889565b6079805467ffffffffffffffff16905f6121d6836158c2565b825467ffffffffffffffff9182166101009390930a92830292820219169190911790915560408051608081018252428316815287831660208083019182528284018981526060840189815260795487165f908152607890935294909120925183549251861668010000000000000000027fffffffffffffffffffffffffffffffff000000000000000000000000000000009093169516949094171781559151600183015551600290910155505b604051828152339067ffffffffffffffff8616907f9c72852172521097ba7e1482e6b44b351323df0155f97f4ea18fcec28e1f596690602001610feb565b607a5473ffffffffffffffffffffffffffffffffffffffff163314612312576040517f4755657900000000000000000000000000000000000000000000000000000000815260040160405180910390fd5b606f80547fff0000000000000000000000000000000000000000ffffffffffffffffffffff166b01000000000000000000000073ffffffffffffffffffffffffffffffffffffffff8416908102919091179091556040519081527ff54144f9611984021529f814a1cb6a41e22c58351510a0d9f7e822618abb9cc090602001610c50565b61239e614b12565b6123a75f614b93565b565b60335473ffffffffffffffffffffffffffffffffffffffff16331461250e575f6123d1612bb3565b90508067ffffffffffffffff168267ffffffffffffffff1611612420576040517f812a372d00000000000000000000000000000000000000000000000000000000815260040160405180910390fd5b60735467ffffffffffffffff6801000000000000000090910481169083161180612465575067ffffffffffffffff8083165f9081526072602052604090206001015416155b1561249c576040517f98c5c01400000000000000000000000000000000000000000000000000000000815260040160405180910390fd5b67ffffffffffffffff8083165f9081526072602052604090206001015442916124ca9162093a8091166157a7565b67ffffffffffffffff16111561250c576040517fd257555a00000000000000000000000000000000000000000000000000000000815260040160405180910390fd5b505b61148c614c09565b607b5473ffffffffffffffffffffffffffffffffffffffff163314612567576040517fd1ec4b2300000000000000000000000000000000000000000000000000000000815260040160405180910390fd5b607b54607a80547fffffffffffffffffffffffff00000000000000000000000000000000000000001673ffffffffffffffffffffffffffffffffffffffff90921691821790556040519081527f056dc487bbf0795d0bbb1b4f0af523a855503cff740bfb4d5475f7a90c091e8e9060200160405180910390a1565b6040517f70a082310000000000000000000000000000000000000000000000000000000081523060048201525f90819073ffffffffffffffffffffffffffffffffffffffff7f000000000000000000000000000000000000000000000000000000000000000016906370a0823190602401602060405180830381865afa15801561266e573d5f803e3d5ffd5b505050506040513d601f19601f8201168201806040525081019061269291906158e8565b90505f61269d612bb3565b60735467ffffffffffffffff6801000000000000000082048116916126f591700100000000000000000000000000000000820481169178010000000000000000000000000000000000000000000000009004166158ff565b6126ff91906157a7565b61270991906158ff565b67ffffffffffffffff169050805f03612724575f9250505090565b61272e8183615977565b9250505090565b606f5460ff1615612772576040517f2f0047fc00000000000000000000000000000000000000000000000000000000815260040160405180910390fd5b6127818787878787878761416b565b67ffffffffffffffff84165f908152607560209081526040918290205482519081529081018490527f1f44c21118c4603cfb4e1b621dbcfa2b73efcececee2b99b620b2953d33a7010910160405180910390a16127dc614c09565b50505050505050565b607a5473ffffffffffffffffffffffffffffffffffffffff163314612836576040517f4755657900000000000000000000000000000000000000000000000000000000815260040160405180910390fd5b62093a8067ffffffffffffffff8216111561287d576040517fcc96507000000000000000000000000000000000000000000000000000000000815260040160405180910390fd5b606f5460ff166128e45760795467ffffffffffffffff7001000000000000000000000000000000009091048116908216106128e4576040517f48a05a9000000000000000000000000000000000000000000000000000000000815260040160405180910390fd5b607980547fffffffffffffffff0000000000000000ffffffffffffffffffffffffffffffff1670010000000000000000000000000000000067ffffffffffffffff8416908102919091179091556040519081527fc4121f4e22c69632ebb7cf1f462be0511dc034f999b52013eddfb24aab765c7590602001610c50565b607a5473ffffffffffffffffffffffffffffffffffffffff1633146129b2576040517f4755657900000000000000000000000000000000000000000000000000000000815260040160405180910390fd5b620151808167ffffffffffffffff1611156129f9576040517fe067dfe800000000000000000000000000000000000000000000000000000000815260040160405180910390fd5b606f80547fffffffffffffffffffffffffffffffffffffffffffffff0000000000000000ff1661010067ffffffffffffffff8416908102919091179091556040519081527f1b023231a1ab6b5d93992f168fb44498e1a7e64cef58daff6f1c216de6a68c2890602001610c50565b607a5473ffffffffffffffffffffffffffffffffffffffff163314612ab8576040517f4755657900000000000000000000000000000000000000000000000000000000815260040160405180910390fd5b607b80547fffffffffffffffffffffffff00000000000000000000000000000000000000001673ffffffffffffffffffffffffffffffffffffffff83169081179091556040519081527fa5b56b7906fd0a20e3f35120dd8343db1e12e037a6c90111c7e42885e82a1ce690602001610c50565b5f67ffffffff0000000167ffffffffffffffff8316108015612b62575067ffffffff00000001604083901c67ffffffffffffffff16105b8015612b83575067ffffffff00000001608083901c67ffffffffffffffff16105b8015612b9a575067ffffffff0000000160c083901c105b15612ba757506001919050565b505f919050565b919050565b6079545f9067ffffffffffffffff1615612bf5575060795467ffffffffffffffff9081165f908152607860205260409020546801000000000000000090041690565b5060745467ffffffffffffffff1690565b607a5473ffffffffffffffffffffffffffffffffffffffff163314612c57576040517f4755657900000000000000000000000000000000000000000000000000000000815260040160405180910390fd5b6076612c6382826159ce565b507f6b8f723a4c7a5335cafae8a598a0aa0301be1387c037dccc085b62add6448b2081604051610c509190615225565b5f54610100900460ff1615808015612cb157505f54600160ff909116105b80612cca5750303b158015612cca57505f5460ff166001145b612d5b576040517f08c379a000000000000000000000000000000000000000000000000000000000815260206004820152602e60248201527f496e697469616c697a61626c653a20636f6e747261637420697320616c72656160448201527f647920696e697469616c697a656400000000000000000000000000000000000060648201526084015b60405180910390fd5b5f80547fffffffffffffffffffffffffffffffffffffffffffffffffffffffffffffff001660011790558015612db7575f80547fffffffffffffffffffffffffffffffffffffffffffffffffffffffffffff00ff166101001790555b612dc46020880188615483565b607a80547fffffffffffffffffffffffff00000000000000000000000000000000000000001673ffffffffffffffffffffffffffffffffffffffff92909216919091179055612e196040880160208901615483565b606f805473ffffffffffffffffffffffffffffffffffffffff929092166b010000000000000000000000027fff0000000000000000000000000000000000000000ffffffffffffffffffffff909216919091179055612e7e6080880160608901615483565b6074805473ffffffffffffffffffffffffffffffffffffffff9290921668010000000000000000027fffffffff0000000000000000000000000000000000000000ffffffffffffffff9092169190911790555f805260756020527ff9e3fbf150b7a0077118526f473c53cb4734f166167e2c6213e3567dd390b4ad8690556076612f0886826159ce565b506077612f1585826159ce565b5062093a80612f2a6060890160408a016153af565b67ffffffffffffffff161115612f6c576040517fcc96507000000000000000000000000000000000000000000000000000000000815260040160405180910390fd5b612f7c60608801604089016153af565b6079805467ffffffffffffffff92909216700100000000000000000000000000000000027fffffffffffffffff0000000000000000ffffffffffffffffffffffffffffffff90921691909117905562093a80612fde60a0890160808a016153af565b67ffffffffffffffff161115613020576040517f1d06e87900000000000000000000000000000000000000000000000000000000815260040160405180910390fd5b61303060a08801608089016153af565b6079805477ffffffffffffffffffffffffffffffffffffffffffffffff16780100000000000000000000000000000000000000000000000067ffffffffffffffff939093169290920291909117905567016345785d8a0000607055606f80547fffffffffffffffffffffffffffffffffffffffffff00000000000000000000ff166a03ea000000000000070800179055607b80547fffffff000000000000000000ffffffffffffffffffffffffffffffffffffffff167c010000000000069780000000000000000000000000000000000000000017905561310f614c8c565b7fed7be53c9f1a96a481223b15568a5b1a475e01a74b347d6ca187c8bf0c078cd65f7f000000000000000000000000000000000000000000000000000000000000000085856040516131649493929190615b31565b60405180910390a180156127dc575f80547fffffffffffffffffffffffffffffffffffffffffffffffffffffffffffff00ff169055604051600181527f7f26b83ff96e1f2b6a682f133852f6798a09c465da95921460cefb38474024989060200160405180910390a150505050505050565b607b547c0100000000000000000000000000000000000000000000000000000000900460ff1615613233576040517f24eff8c300000000000000000000000000000000000000000000000000000000815260040160405180910390fd5b606f5460ff1615613270576040517f2f0047fc00000000000000000000000000000000000000000000000000000000815260040160405180910390fd5b805f8190036132ab576040517fcb591a5f00000000000000000000000000000000000000000000000000000000815260040160405180910390fd5b6103e88111156132e7576040517fb59f753a00000000000000000000000000000000000000000000000000000000815260040160405180910390fd5b60735467ffffffffffffffff78010000000000000000000000000000000000000000000000008204811691613332918491700100000000000000000000000000000000900416615b68565b111561336a576040517fc630a00d00000000000000000000000000000000000000000000000000000000815260040160405180910390fd5b60735467ffffffffffffffff68010000000000000000820481165f8181526072602052604081205491937001000000000000000000000000000000009004909216915b84811015613604575f8787838181106133c8576133c86157cf565b90506020028101906133da9190615b7b565b6133e390615bad565b9050836133ef816158c2565b825180516020918201208185015160408087015190519499509194505f936134509386939101928352602083019190915260c01b7fffffffffffffffff00000000000000000000000000000000000000000000000016604082015260480190565b604080517fffffffffffffffffffffffffffffffffffffffffffffffffffffffffffffffe0818403018152918152815160209283012067ffffffffffffffff89165f908152607190935291205490915081146134d8576040517fce3d755e00000000000000000000000000000000000000000000000000000000815260040160405180910390fd5b67ffffffffffffffff86165f908152607160205260408120556134fc600189615920565b840361356b5742607b60149054906101000a900467ffffffffffffffff16846040015161352991906157a7565b67ffffffffffffffff16111561356b576040517fc44a082100000000000000000000000000000000000000000000000000000000815260040160405180910390fd5b506020918201516040805180850196909652858101929092526060808601919091524260c01b7fffffffffffffffff00000000000000000000000000000000000000000000000016608086015233901b7fffffffffffffffffffffffffffffffffffffffff0000000000000000000000001660888501528051808503607c018152609c90940190528251920191909120906001016133ad565b5061360f84846157a7565b6073805467ffffffffffffffff4281167fffffffffffffffffffffffffffffffffffffffffffffffff00000000000000009092168217808455604080516060810182528781526020808201958652680100000000000000009384900485168284019081528589165f818152607290935284832093518455965160019390930180549151871686027fffffffffffffffffffffffffffffffff0000000000000000000000000000000090921693871693909317179091558554938916700100000000000000000000000000000000027fffffffffffffffff0000000000000000ffffffffffffffffffffffffffffffff938602939093167fffffffffffffffff00000000000000000000000000000000ffffffffffffffff90941693909317919091179093559151929550917f648a61dd2438f072f5a1960939abd30f37aea80d2e94c9792ad142d3e0a490a49190a2505050505050565b607a5473ffffffffffffffffffffffffffffffffffffffff1633146137b7576040517f4755657900000000000000000000000000000000000000000000000000000000815260040160405180910390fd5b7f000000000000000000000000000000000000000000000000000000000000000073ffffffffffffffffffffffffffffffffffffffff1663dbc169766040518163ffffffff1660e01b81526004015f604051808303815f87803b15801561381c575f80fd5b505af115801561382e573d5f803e3d5ffd5b505050506123a7614d2b565b607b547c0100000000000000000000000000000000000000000000000000000000900460ff1615613897576040517f24eff8c300000000000000000000000000000000000000000000000000000000815260040160405180910390fd5b606f5460ff16156138d4576040517f2f0047fc00000000000000000000000000000000000000000000000000000000815260040160405180910390fd5b5f6138dd611f2e565b905081811115613919576040517f4732fdb500000000000000000000000000000000000000000000000000000000815260040160405180910390fd5b611388831115613955576040517fa29a6c7c00000000000000000000000000000000000000000000000000000000815260040160405180910390fd5b61399773ffffffffffffffffffffffffffffffffffffffff7f0000000000000000000000000000000000000000000000000000000000000000163330846147a7565b5f7f000000000000000000000000000000000000000000000000000000000000000073ffffffffffffffffffffffffffffffffffffffff16633ed691ef6040518163ffffffff1660e01b8152600401602060405180830381865afa158015613a01573d5f803e3d5ffd5b505050506040513d601f19601f82011682018060405250810190613a2591906158e8565b60738054919250780100000000000000000000000000000000000000000000000090910467ffffffffffffffff16906018613a5f836158c2565b91906101000a81548167ffffffffffffffff021916908367ffffffffffffffff160217905550508484604051613a96929190615c26565b60408051918290038220602083015281018290527fffffffffffffffff0000000000000000000000000000000000000000000000004260c01b166060820152606801604080518083037fffffffffffffffffffffffffffffffffffffffffffffffffffffffffffffffe001815291815281516020928301206073547801000000000000000000000000000000000000000000000000900467ffffffffffffffff165f9081526071909352912055323303613bc4576073546040805183815233602082015260609181018290525f91810191909152780100000000000000000000000000000000000000000000000090910467ffffffffffffffff16907ff94bb37db835f1ab585ee00041849a09b12cd081d77fa15ca070757619cbc9319060800160405180910390a2613c23565b607360189054906101000a900467ffffffffffffffff1667ffffffffffffffff167ff94bb37db835f1ab585ee00041849a09b12cd081d77fa15ca070757619cbc93182338888604051613c1a9493929190615c35565b60405180910390a25b5050505050565b607a5473ffffffffffffffffffffffffffffffffffffffff163314613c7b576040517f4755657900000000000000000000000000000000000000000000000000000000815260040160405180910390fd5b607480547fffffffff0000000000000000000000000000000000000000ffffffffffffffff166801000000000000000073ffffffffffffffffffffffffffffffffffffffff8416908102919091179091556040519081527f61f8fec29495a3078e9271456f05fb0707fd4e41f7661865f80fc437d06681ca90602001610c50565b613d04614b12565b73ffffffffffffffffffffffffffffffffffffffff8116613da7576040517f08c379a000000000000000000000000000000000000000000000000000000000815260206004820152602660248201527f4f776e61626c653a206e6577206f776e657220697320746865207a65726f206160448201527f64647265737300000000000000000000000000000000000000000000000000006064820152608401612d52565b61148c81614b93565b5f80613dba612bb3565b905067ffffffffffffffff881615613e895760795467ffffffffffffffff9081169089161115613e16576040517fbb14c20500000000000000000000000000000000000000000000000000000000815260040160405180910390fd5b67ffffffffffffffff8089165f908152607860205260409020600281015481549094509091898116680100000000000000009092041614613e83576040517f2bd2e3e700000000000000000000000000000000000000000000000000000000815260040160405180910390fd5b50613f29565b67ffffffffffffffff87165f90815260756020526040902054915081613edb576040517f4997b98600000000000000000000000000000000000000000000000000000000815260040160405180910390fd5b8067ffffffffffffffff168767ffffffffffffffff161115613f29576040517f1e56e9e200000000000000000000000000000000000000000000000000000000815260040160405180910390fd5b8067ffffffffffffffff168667ffffffffffffffff1611613f76576040517fb9b18f5700000000000000000000000000000000000000000000000000000000815260040160405180910390fd5b5f613f848888888689610c5b565b90505f7f30644e72e131a029b85045b68181585d2833e84879b9709143e1f593f0000001600283604051613fb89190615c6a565b602060405180830381855afa158015613fd3573d5f803e3d5ffd5b5050506040513d601f19601f82011682018060405250810190613ff691906158e8565b6140009190615c7b565b6040805160208101825282815290517f9121da8a00000000000000000000000000000000000000000000000000000000815291925073ffffffffffffffffffffffffffffffffffffffff7f00000000000000000000000000000000000000000000000000000000000000001691639121da8a9161408291899190600401615c8e565b602060405180830381865afa15801561409d573d5f803e3d5ffd5b505050506040513d601f19601f820116820180604052508101906140c19190615cc8565b6140f7576040517f09bde33900000000000000000000000000000000000000000000000000000000815260040160405180910390fd5b61415f33614105858b6158ff565b67ffffffffffffffff166141176125e2565b6141219190615933565b73ffffffffffffffffffffffffffffffffffffffff7f0000000000000000000000000000000000000000000000000000000000000000169190614db9565b50505050505050505050565b5f67ffffffffffffffff8816156142375760795467ffffffffffffffff90811690891611156141c6576040517fbb14c20500000000000000000000000000000000000000000000000000000000815260040160405180910390fd5b5067ffffffffffffffff8088165f908152607860205260409020600281015481549092888116680100000000000000009092041614614231576040517f2bd2e3e700000000000000000000000000000000000000000000000000000000815260040160405180910390fd5b506142d2565b5067ffffffffffffffff85165f9081526075602052604090205480614288576040517f4997b98600000000000000000000000000000000000000000000000000000000815260040160405180910390fd5b60745467ffffffffffffffff90811690871611156142d2576040517f1e56e9e200000000000000000000000000000000000000000000000000000000815260040160405180910390fd5b60795467ffffffffffffffff908116908816118061430457508767ffffffffffffffff168767ffffffffffffffff1611155b8061432b575060795467ffffffffffffffff68010000000000000000909104811690881611155b15614362576040517fbfa7079f00000000000000000000000000000000000000000000000000000000815260040160405180910390fd5b67ffffffffffffffff8781165f908152607860205260409020546801000000000000000090048116908616146143c4576040517f32a2a77f00000000000000000000000000000000000000000000000000000000815260040160405180910390fd5b5f6143d28787878588610c5b565b90505f7f30644e72e131a029b85045b68181585d2833e84879b9709143e1f593f00000016002836040516144069190615c6a565b602060405180830381855afa158015614421573d5f803e3d5ffd5b5050506040513d601f19601f8201168201806040525081019061444491906158e8565b61444e9190615c7b565b6040805160208101825282815290517f9121da8a00000000000000000000000000000000000000000000000000000000815291925073ffffffffffffffffffffffffffffffffffffffff7f00000000000000000000000000000000000000000000000000000000000000001691639121da8a916144d091889190600401615c8e565b602060405180830381865afa1580156144eb573d5f803e3d5ffd5b505050506040513d601f19601f8201168201806040525081019061450f9190615cc8565b614545576040517f09bde33900000000000000000000000000000000000000000000000000000000815260040160405180910390fd5b67ffffffffffffffff89165f9081526078602052604090206002015485900361415f576040517fa47276bd00000000000000000000000000000000000000000000000000000000815260040160405180910390fd5b60795467ffffffffffffffff6801000000000000000090910481169082161115806145d4575060795467ffffffffffffffff908116908216115b1561460b576040517fd086b70b00000000000000000000000000000000000000000000000000000000815260040160405180910390fd5b67ffffffffffffffff8181165f81815260786020908152604080832080546074805468010000000000000000928390049098167fffffffffffffffffffffffffffffffffffffffffffffffff000000000000000090981688179055600282015487865260759094529382902092909255607980547fffffffffffffffffffffffffffffffff0000000000000000ffffffffffffffff169390940292909217909255600182015490517f33d6247d00000000000000000000000000000000000000000000000000000000815260048101919091529091907f000000000000000000000000000000000000000000000000000000000000000073ffffffffffffffffffffffffffffffffffffffff16906333d6247d906024015f604051808303815f87803b158015614739575f80fd5b505af115801561474b573d5f803e3d5ffd5b505050508267ffffffffffffffff168167ffffffffffffffff167f328d3c6c0fd6f1be0515e422f2d87e59f25922cbc2233568515a0c4bc3f8510e846002015460405161479a91815260200190565b60405180910390a3505050565b60405173ffffffffffffffffffffffffffffffffffffffff808516602483015283166044820152606481018290526148839085907f23b872dd00000000000000000000000000000000000000000000000000000000906084015b604080517fffffffffffffffffffffffffffffffffffffffffffffffffffffffffffffffe08184030181529190526020810180517bffffffffffffffffffffffffffffffffffffffffffffffffffffffff167fffffffff0000000000000000000000000000000000000000000000000000000090931692909217909152614e14565b50505050565b60795467ffffffffffffffff6801000000000000000082048116911611156123a7576079545f906148d19068010000000000000000900467ffffffffffffffff1660016157a7565b90506148dc81611203565b1561148c576079545f906002906148fe90849067ffffffffffffffff166158ff565b6149089190615ce7565b61491290836157a7565b905061491d81611203565b1561492f5761492b8161459a565b5050565b61492b8261459a565b5f614941612bb3565b9050815f8061495084846158ff565b606f5467ffffffffffffffff91821692505f916149739161010090041642615920565b90505b8467ffffffffffffffff168467ffffffffffffffff16146149fd5767ffffffffffffffff8085165f90815260726020526040902060018101549091168210156149db57600181015468010000000000000000900467ffffffffffffffff1694506149f7565b6149e586866158ff565b67ffffffffffffffff169350506149fd565b50614976565b5f614a088484615920565b905083811015614a5f57808403600c8111614a235780614a26565b600c5b9050806103e80a81606f60099054906101000a900461ffff1661ffff160a6070540281614a5557614a5561594a565b0460705550614ace565b838103600c8111614a705780614a73565b600c5b90505f816103e80a82606f60099054906101000a900461ffff1661ffff160a670de0b6b3a76400000281614aa957614aa961594a565b04905080607054670de0b6b3a76400000281614ac757614ac761594a565b0460705550505b683635c9adc5dea000006070541115614af357683635c9adc5dea000006070556127dc565b633b9aca0060705410156127dc57633b9aca0060705550505050505050565b60335473ffffffffffffffffffffffffffffffffffffffff1633146123a7576040517f08c379a000000000000000000000000000000000000000000000000000000000815260206004820181905260248201527f4f776e61626c653a2063616c6c6572206973206e6f7420746865206f776e65726044820152606401612d52565b6033805473ffffffffffffffffffffffffffffffffffffffff8381167fffffffffffffffffffffffff0000000000000000000000000000000000000000831681179093556040519116919082907f8be0079c531659141344cd1fd0a4f28419497f9722a3daafe3b4186f6b6457e0905f90a35050565b7f000000000000000000000000000000000000000000000000000000000000000073ffffffffffffffffffffffffffffffffffffffff16632072f6c56040518163ffffffff1660e01b81526004015f604051808303815f87803b158015614c6e575f80fd5b505af1158015614c80573d5f803e3d5ffd5b505050506123a7614f1f565b5f54610100900460ff16614d22576040517f08c379a000000000000000000000000000000000000000000000000000000000815260206004820152602b60248201527f496e697469616c697a61626c653a20636f6e7472616374206973206e6f74206960448201527f6e697469616c697a696e670000000000000000000000000000000000000000006064820152608401612d52565b6123a733614b93565b606f5460ff16614d67576040517f5386698100000000000000000000000000000000000000000000000000000000815260040160405180910390fd5b606f80547fffffffffffffffffffffffffffffffffffffffffffffffffffffffffffffff001690556040517f1e5e34eea33501aecf2ebec9fe0e884a40804275ea7fe10b2ba084c8374308b3905f90a1565b60405173ffffffffffffffffffffffffffffffffffffffff8316602482015260448101829052614e0f9084907fa9059cbb0000000000000000000000000000000000000000000000000000000090606401614801565b505050565b5f614e75826040518060400160405280602081526020017f5361666545524332303a206c6f772d6c6576656c2063616c6c206661696c65648152508573ffffffffffffffffffffffffffffffffffffffff16614fb19092919063ffffffff16565b805190915015614e0f5780806020019051810190614e939190615cc8565b614e0f576040517f08c379a000000000000000000000000000000000000000000000000000000000815260206004820152602a60248201527f5361666545524332303a204552433230206f7065726174696f6e20646964206e60448201527f6f742073756363656564000000000000000000000000000000000000000000006064820152608401612d52565b606f5460ff1615614f5c576040517f2f0047fc00000000000000000000000000000000000000000000000000000000815260040160405180910390fd5b606f80547fffffffffffffffffffffffffffffffffffffffffffffffffffffffffffffff001660011790556040517f2261efe5aef6fedc1fd1550b25facc9181745623049c7901287030b9ad1a5497905f90a1565b6060614fbf84845f85614fc7565b949350505050565b606082471015615059576040517f08c379a000000000000000000000000000000000000000000000000000000000815260206004820152602660248201527f416464726573733a20696e73756666696369656e742062616c616e636520666f60448201527f722063616c6c00000000000000000000000000000000000000000000000000006064820152608401612d52565b5f808673ffffffffffffffffffffffffffffffffffffffff1685876040516150819190615c6a565b5f6040518083038185875af1925050503d805f81146150bb576040519150601f19603f3d011682016040523d82523d5f602084013e6150c0565b606091505b50915091506150d1878383876150dc565b979650505050505050565b606083156151715782515f0361516a5773ffffffffffffffffffffffffffffffffffffffff85163b61516a576040517f08c379a000000000000000000000000000000000000000000000000000000000815260206004820152601d60248201527f416464726573733a2063616c6c20746f206e6f6e2d636f6e74726163740000006044820152606401612d52565b5081614fbf565b614fbf83838151156151865781518083602001fd5b806040517f08c379a0000000000000000000000000000000000000000000000000000000008152600401612d529190615225565b5f5b838110156151d45781810151838201526020016151bc565b50505f910152565b5f81518084526151f38160208601602086016151ba565b601f017fffffffffffffffffffffffffffffffffffffffffffffffffffffffffffffffe0169290920160200192915050565b602081525f61523760208301846151dc565b9392505050565b5f6020828403121561524e575f80fd5b813561ffff81168114615237575f80fd5b803567ffffffffffffffff81168114612bae575f80fd5b5f805f805f60a0868803121561528a575f80fd5b6152938661525f565b94506152a16020870161525f565b94979496505050506040830135926060810135926080909101359150565b8061030081018310156152d0575f80fd5b92915050565b5f805f805f806103a087890312156152ec575f80fd5b6152f58761525f565b95506153036020880161525f565b94506153116040880161525f565b9350606087013592506080870135915061532e8860a089016152bf565b90509295509295509295565b5f805f805f805f6103c0888a031215615351575f80fd5b61535a8861525f565b96506153686020890161525f565b95506153766040890161525f565b94506153846060890161525f565b93506080880135925060a088013591506153a18960c08a016152bf565b905092959891949750929550565b5f602082840312156153bf575f80fd5b6152378261525f565b5f8083601f8401126153d8575f80fd5b50813567ffffffffffffffff8111156153ef575f80fd5b6020830191508360208260051b8501011115615409575f80fd5b9250929050565b803573ffffffffffffffffffffffffffffffffffffffff81168114612bae575f80fd5b5f805f60408486031215615445575f80fd5b833567ffffffffffffffff81111561545b575f80fd5b615467868287016153c8565b909450925061547a905060208501615410565b90509250925092565b5f60208284031215615493575f80fd5b61523782615410565b5f602082840312156154ac575f80fd5b5035919050565b7f4e487b71000000000000000000000000000000000000000000000000000000005f52604160045260245ffd5b5f82601f8301126154ef575f80fd5b813567ffffffffffffffff8082111561550a5761550a6154b3565b604051601f83017fffffffffffffffffffffffffffffffffffffffffffffffffffffffffffffffe0908116603f01168101908282118183101715615550576155506154b3565b81604052838152866020858801011115615568575f80fd5b836020870160208301375f602085830101528094505050505092915050565b5f60208284031215615597575f80fd5b813567ffffffffffffffff8111156155ad575f80fd5b614fbf848285016154e0565b5f8083601f8401126155c9575f80fd5b50813567ffffffffffffffff8111156155e0575f80fd5b602083019150836020828501011115615409575f80fd5b5f805f805f8086880361012081121561560e575f80fd5b60a081121561561b575f80fd5b5086955060a0870135945060c087013567ffffffffffffffff80821115615640575f80fd5b61564c8a838b016154e0565b955060e0890135915080821115615661575f80fd5b61566d8a838b016154e0565b9450610100890135915080821115615683575f80fd5b5061569089828a016155b9565b979a9699509497509295939492505050565b5f80602083850312156156b3575f80fd5b823567ffffffffffffffff8111156156c9575f80fd5b6156d5858286016153c8565b90969095509350505050565b5f805f604084860312156156f3575f80fd5b833567ffffffffffffffff811115615709575f80fd5b615715868287016155b9565b909790965060209590950135949350505050565b600181811c9082168061573d57607f821691505b602082108103615774577f4e487b71000000000000000000000000000000000000000000000000000000005f52602260045260245ffd5b50919050565b7f4e487b71000000000000000000000000000000000000000000000000000000005f52601160045260245ffd5b67ffffffffffffffff8181168382160190808211156157c8576157c861577a565b5092915050565b7f4e487b71000000000000000000000000000000000000000000000000000000005f52603260045260245ffd5b5f82357fffffffffffffffffffffffffffffffffffffffffffffffffffffffffffffff8183360301811261582e575f80fd5b9190910192915050565b5f60808236031215615848575f80fd5b6040516080810167ffffffffffffffff828210818311171561586c5761586c6154b3565b816040528435915080821115615880575f80fd5b5061588d368286016154e0565b825250602083013560208201526158a66040840161525f565b60408201526158b76060840161525f565b606082015292915050565b5f67ffffffffffffffff8083168181036158de576158de61577a565b6001019392505050565b5f602082840312156158f8575f80fd5b5051919050565b67ffffffffffffffff8281168282160390808211156157c8576157c861577a565b818103818111156152d0576152d061577a565b80820281158282048414176152d0576152d061577a565b7f4e487b71000000000000000000000000000000000000000000000000000000005f52601260045260245ffd5b5f826159855761598561594a565b500490565b601f821115614e0f57805f5260205f20601f840160051c810160208510156159af5750805b601f840160051c820191505b81811015613c23575f81556001016159bb565b815167ffffffffffffffff8111156159e8576159e86154b3565b6159fc816159f68454615729565b8461598a565b602080601f831160018114615a4e575f8415615a185750858301515b7fffffffffffffffffffffffffffffffffffffffffffffffffffffffffffffffff600386901b1c1916600185901b178555615ae2565b5f858152602081207fffffffffffffffffffffffffffffffffffffffffffffffffffffffffffffffe08616915b82811015615a9a57888601518255948401946001909101908401615a7b565b5085821015615ad657878501517fffffffffffffffffffffffffffffffffffffffffffffffffffffffffffffffff600388901b60f8161c191681555b505060018460011b0185555b505050505050565b81835281816020850137505f602082840101525f60207fffffffffffffffffffffffffffffffffffffffffffffffffffffffffffffffe0601f840116840101905092915050565b5f67ffffffffffffffff808716835280861660208401525060606040830152615b5e606083018486615aea565b9695505050505050565b808201808211156152d0576152d061577a565b5f82357fffffffffffffffffffffffffffffffffffffffffffffffffffffffffffffffa183360301811261582e575f80fd5b5f60608236031215615bbd575f80fd5b6040516060810167ffffffffffffffff8282108183111715615be157615be16154b3565b816040528435915080821115615bf5575f80fd5b50615c02368286016154e0565b82525060208301356020820152615c1b6040840161525f565b604082015292915050565b818382375f9101908152919050565b84815273ffffffffffffffffffffffffffffffffffffffff84166020820152606060408201525f615b5e606083018486615aea565b5f825161582e8184602087016151ba565b5f82615c8957615c8961594a565b500690565b6103208101610300808584378201835f5b6001811015615cbe578151835260209283019290910190600101615c9f565b5050509392505050565b5f60208284031215615cd8575f80fd5b81518015158114615237575f80fd5b5f67ffffffffffffffff80841680615d0157615d0161594a565b9216919091049291505056fea2646970667358221220d90ef4a04bc1122b5efe99fd503f4e8da68975a1b9bf4af83d185e23a837a60b64736f6c63430008180033",
  "linkReferences": {},
  "deployedLinkReferences": {}
}