{
  "_format": "hh-sol-artifact-1",
  "contractName": "PolygonZkEVMMock",
  "sourceName": "contracts/mocks/PolygonZkEVMMock.sol",
  "abi": [
    {
      "anonymous": false,
      "inputs": [
        {
          "indexed": true,
          "internalType": "uint64",
          "name": "numBatch",
          "type": "uint64"
        },
        {
          "indexed": false,
          "internalType": "bytes32",
          "name": "stateRoot",
          "type": "bytes32"
        },
        {
          "indexed": true,
          "internalType": "uint64",
          "name": "pendingStateNum",
          "type": "uint64"
        }
      ],
      "name": "ConsolidatePendingState",
      "type": "event"
    },
    {
      "anonymous": false,
      "inputs": [],
      "name": "EmergencyStateActivated",
      "type": "event"
    },
    {
      "anonymous": false,
      "inputs": [],
      "name": "EmergencyStateDeactivated",
      "type": "event"
    },
    {
      "anonymous": false,
      "inputs": [
        {
          "indexed": true,
          "internalType": "uint64",
          "name": "forceBatchNum",
          "type": "uint64"
        },
        {
          "indexed": false,
          "internalType": "bytes32",
          "name": "lastGlobalExitRoot",
          "type": "bytes32"
        },
        {
          "indexed": false,
          "internalType": "address",
          "name": "sequencer",
          "type": "address"
        },
        {
          "indexed": false,
          "internalType": "bytes",
          "name": "transactions",
          "type": "bytes"
        }
      ],
      "name": "ForceBatch",
      "type": "event"
    },
    {
      "anonymous": false,
      "inputs": [
        {
          "indexed": false,
          "internalType": "uint8",
          "name": "version",
          "type": "uint8"
        }
      ],
      "name": "Initialized",
      "type": "event"
    },
    {
      "anonymous": false,
      "inputs": [
        {
          "indexed": true,
          "internalType": "uint64",
          "name": "numBatch",
          "type": "uint64"
        },
        {
          "indexed": false,
          "internalType": "bytes32",
          "name": "stateRoot",
          "type": "bytes32"
        },
        {
          "indexed": true,
          "internalType": "address",
          "name": "aggregator",
          "type": "address"
        }
      ],
      "name": "OverridePendingState",
      "type": "event"
    },
    {
      "anonymous": false,
      "inputs": [
        {
          "indexed": true,
          "internalType": "address",
          "name": "previousOwner",
          "type": "address"
        },
        {
          "indexed": true,
          "internalType": "address",
          "name": "newOwner",
          "type": "address"
        }
      ],
      "name": "OwnershipTransferred",
      "type": "event"
    },
    {
      "anonymous": false,
      "inputs": [
        {
          "indexed": false,
          "internalType": "bytes32",
          "name": "storedStateRoot",
          "type": "bytes32"
        },
        {
          "indexed": false,
          "internalType": "bytes32",
          "name": "provedStateRoot",
          "type": "bytes32"
        }
      ],
      "name": "ProveNonDeterministicPendingState",
      "type": "event"
    },
    {
      "anonymous": false,
      "inputs": [
        {
          "indexed": true,
          "internalType": "uint64",
          "name": "numBatch",
          "type": "uint64"
        }
      ],
      "name": "SequenceBatches",
      "type": "event"
    },
    {
      "anonymous": false,
      "inputs": [
        {
          "indexed": true,
          "internalType": "uint64",
          "name": "numBatch",
          "type": "uint64"
        }
      ],
      "name": "SequenceForceBatches",
      "type": "event"
    },
    {
      "anonymous": false,
      "inputs": [
        {
          "indexed": false,
          "internalType": "address",
          "name": "newAdmin",
          "type": "address"
        }
      ],
      "name": "SetAdmin",
      "type": "event"
    },
    {
      "anonymous": false,
      "inputs": [
        {
          "indexed": false,
          "internalType": "bool",
          "name": "newForceBatchAllowed",
          "type": "bool"
        }
      ],
      "name": "SetForceBatchAllowed",
      "type": "event"
    },
    {
      "anonymous": false,
      "inputs": [
        {
          "indexed": false,
          "internalType": "uint16",
          "name": "newMultiplierBatchFee",
          "type": "uint16"
        }
      ],
      "name": "SetMultiplierBatchFee",
      "type": "event"
    },
    {
      "anonymous": false,
      "inputs": [
        {
          "indexed": false,
          "internalType": "uint64",
          "name": "newPendingStateTimeout",
          "type": "uint64"
        }
      ],
      "name": "SetPendingStateTimeout",
      "type": "event"
    },
    {
      "anonymous": false,
      "inputs": [
        {
          "indexed": false,
          "internalType": "address",
          "name": "newTrustedAggregator",
          "type": "address"
        }
      ],
      "name": "SetTrustedAggregator",
      "type": "event"
    },
    {
      "anonymous": false,
      "inputs": [
        {
          "indexed": false,
          "internalType": "uint64",
          "name": "newTrustedAggregatorTimeout",
          "type": "uint64"
        }
      ],
      "name": "SetTrustedAggregatorTimeout",
      "type": "event"
    },
    {
      "anonymous": false,
      "inputs": [
        {
          "indexed": false,
          "internalType": "address",
          "name": "newTrustedSequencer",
          "type": "address"
        }
      ],
      "name": "SetTrustedSequencer",
      "type": "event"
    },
    {
      "anonymous": false,
      "inputs": [
        {
          "indexed": false,
          "internalType": "string",
          "name": "newTrustedSequencerURL",
          "type": "string"
        }
      ],
      "name": "SetTrustedSequencerURL",
      "type": "event"
    },
    {
      "anonymous": false,
      "inputs": [
        {
          "indexed": false,
          "internalType": "uint64",
          "name": "newVeryBatchTimeTarget",
          "type": "uint64"
        }
      ],
      "name": "SetVeryBatchTimeTarget",
      "type": "event"
    },
    {
      "anonymous": false,
      "inputs": [
        {
          "indexed": true,
          "internalType": "uint64",
          "name": "numBatch",
          "type": "uint64"
        },
        {
          "indexed": false,
          "internalType": "bytes32",
          "name": "stateRoot",
          "type": "bytes32"
        },
        {
          "indexed": true,
          "internalType": "address",
          "name": "aggregator",
          "type": "address"
        }
      ],
      "name": "TrustedVerifyBatches",
      "type": "event"
    },
    {
      "anonymous": false,
      "inputs": [
        {
          "indexed": true,
          "internalType": "uint64",
          "name": "numBatch",
          "type": "uint64"
        },
        {
          "indexed": false,
          "internalType": "bytes32",
          "name": "stateRoot",
          "type": "bytes32"
        },
        {
          "indexed": true,
          "internalType": "address",
          "name": "aggregator",
          "type": "address"
        }
      ],
      "name": "VerifyBatches",
      "type": "event"
    },
    {
      "inputs": [],
      "name": "FORCE_BATCH_TIMEOUT",
      "outputs": [
        {
          "internalType": "uint64",
          "name": "",
          "type": "uint64"
        }
      ],
      "stateMutability": "view",
      "type": "function"
    },
    {
      "inputs": [],
      "name": "HALT_AGGREGATION_TIMEOUT",
      "outputs": [
        {
          "internalType": "uint64",
          "name": "",
          "type": "uint64"
        }
      ],
      "stateMutability": "view",
      "type": "function"
    },
    {
      "inputs": [],
      "name": "MAX_BATCH_MULTIPLIER",
      "outputs": [
        {
          "internalType": "uint256",
          "name": "",
          "type": "uint256"
        }
      ],
      "stateMutability": "view",
      "type": "function"
    },
    {
      "inputs": [],
      "name": "MAX_TRANSACTIONS_BYTE_LENGTH",
      "outputs": [
        {
          "internalType": "uint256",
          "name": "",
          "type": "uint256"
        }
      ],
      "stateMutability": "view",
      "type": "function"
    },
    {
      "inputs": [],
      "name": "MAX_VERIFY_BATCHES",
      "outputs": [
        {
          "internalType": "uint64",
          "name": "",
          "type": "uint64"
        }
      ],
      "stateMutability": "view",
      "type": "function"
    },
    {
      "inputs": [
        {
          "internalType": "uint64",
          "name": "sequencedBatchNum",
          "type": "uint64"
        }
      ],
      "name": "activateEmergencyState",
      "outputs": [],
      "stateMutability": "nonpayable",
      "type": "function"
    },
    {
      "inputs": [],
      "name": "admin",
      "outputs": [
        {
          "internalType": "address",
          "name": "",
          "type": "address"
        }
      ],
      "stateMutability": "view",
      "type": "function"
    },
    {
      "inputs": [],
      "name": "batchFee",
      "outputs": [
        {
          "internalType": "uint256",
          "name": "",
          "type": "uint256"
        }
      ],
      "stateMutability": "view",
      "type": "function"
    },
    {
      "inputs": [
        {
          "internalType": "uint64",
          "name": "",
          "type": "uint64"
        }
      ],
      "name": "batchNumToStateRoot",
      "outputs": [
        {
          "internalType": "bytes32",
          "name": "",
          "type": "bytes32"
        }
      ],
      "stateMutability": "view",
      "type": "function"
    },
    {
      "inputs": [],
      "name": "bridgeAddress",
      "outputs": [
        {
          "internalType": "contract IPolygonZkEVMBridge",
          "name": "",
          "type": "address"
        }
      ],
      "stateMutability": "view",
      "type": "function"
    },
    {
      "inputs": [
        {
          "internalType": "bytes32",
          "name": "currentAccInputHash",
          "type": "bytes32"
        },
        {
          "internalType": "bytes",
          "name": "transactions",
          "type": "bytes"
        },
        {
          "internalType": "bytes32",
          "name": "globalExitRoot",
          "type": "bytes32"
        },
        {
          "internalType": "uint64",
          "name": "timestamp",
          "type": "uint64"
        },
        {
          "internalType": "address",
          "name": "sequencerAddress",
          "type": "address"
        }
      ],
      "name": "calculateAccInputHash",
      "outputs": [
        {
          "internalType": "bytes32",
          "name": "",
          "type": "bytes32"
        }
      ],
      "stateMutability": "pure",
      "type": "function"
    },
    {
      "inputs": [],
      "name": "calculateRewardPerBatch",
      "outputs": [
        {
          "internalType": "uint256",
          "name": "",
          "type": "uint256"
        }
      ],
      "stateMutability": "view",
      "type": "function"
    },
    {
      "inputs": [],
      "name": "chainID",
      "outputs": [
        {
          "internalType": "uint64",
          "name": "",
          "type": "uint64"
        }
      ],
      "stateMutability": "view",
      "type": "function"
    },
    {
      "inputs": [
        {
          "internalType": "uint64",
          "name": "pendingStateNum",
          "type": "uint64"
        }
      ],
      "name": "consolidatePendingState",
      "outputs": [],
      "stateMutability": "nonpayable",
      "type": "function"
    },
    {
      "inputs": [],
      "name": "deactivateEmergencyState",
      "outputs": [],
      "stateMutability": "nonpayable",
      "type": "function"
    },
    {
      "inputs": [
        {
          "internalType": "bytes",
          "name": "transactions",
          "type": "bytes"
        },
        {
          "internalType": "uint256",
          "name": "maticAmount",
          "type": "uint256"
        }
      ],
      "name": "forceBatch",
      "outputs": [],
      "stateMutability": "nonpayable",
      "type": "function"
    },
    {
      "inputs": [],
      "name": "forceBatchAllowed",
      "outputs": [
        {
          "internalType": "bool",
          "name": "",
          "type": "bool"
        }
      ],
      "stateMutability": "view",
      "type": "function"
    },
    {
      "inputs": [
        {
          "internalType": "uint64",
          "name": "",
          "type": "uint64"
        }
      ],
      "name": "forcedBatches",
      "outputs": [
        {
          "internalType": "bytes32",
          "name": "",
          "type": "bytes32"
        }
      ],
      "stateMutability": "view",
      "type": "function"
    },
    {
      "inputs": [],
      "name": "getCurrentBatchFee",
      "outputs": [
        {
          "internalType": "uint256",
          "name": "",
          "type": "uint256"
        }
      ],
      "stateMutability": "view",
      "type": "function"
    },
    {
      "inputs": [
        {
          "internalType": "uint64",
          "name": "initNumBatch",
          "type": "uint64"
        },
        {
          "internalType": "uint64",
          "name": "finalNewBatch",
          "type": "uint64"
        },
        {
          "internalType": "bytes32",
          "name": "newLocalExitRoot",
          "type": "bytes32"
        },
        {
          "internalType": "bytes32",
          "name": "oldStateRoot",
          "type": "bytes32"
        },
        {
          "internalType": "bytes32",
          "name": "newStateRoot",
          "type": "bytes32"
        }
      ],
      "name": "getInputSnarkBytes",
      "outputs": [
        {
          "internalType": "bytes",
          "name": "",
          "type": "bytes"
        }
      ],
      "stateMutability": "view",
      "type": "function"
    },
    {
      "inputs": [],
      "name": "getLastVerifiedBatch",
      "outputs": [
        {
          "internalType": "uint64",
          "name": "",
          "type": "uint64"
        }
      ],
      "stateMutability": "view",
      "type": "function"
    },
    {
      "inputs": [
        {
          "internalType": "uint64",
          "name": "pendingStateNum",
          "type": "uint64"
        },
        {
          "internalType": "uint64",
          "name": "initNumBatch",
          "type": "uint64"
        },
        {
          "internalType": "uint64",
          "name": "finalNewBatch",
          "type": "uint64"
        },
        {
          "internalType": "bytes32",
          "name": "newLocalExitRoot",
          "type": "bytes32"
        },
        {
          "internalType": "bytes32",
          "name": "newStateRoot",
          "type": "bytes32"
        }
      ],
      "name": "getNextSnarkInput",
      "outputs": [
        {
          "internalType": "uint256",
          "name": "",
          "type": "uint256"
        }
      ],
      "stateMutability": "view",
      "type": "function"
    },
    {
      "inputs": [],
      "name": "globalExitRootManager",
      "outputs": [
        {
          "internalType": "contract IPolygonZkEVMGlobalExitRoot",
          "name": "",
          "type": "address"
        }
      ],
      "stateMutability": "view",
      "type": "function"
    },
    {
      "inputs": [
        {
          "internalType": "contract IPolygonZkEVMGlobalExitRoot",
          "name": "_globalExitRootManager",
          "type": "address"
        },
        {
          "internalType": "contract IERC20Upgradeable",
          "name": "_matic",
          "type": "address"
        },
        {
          "internalType": "contract IVerifierRollup",
          "name": "_rollupVerifier",
          "type": "address"
        },
        {
          "internalType": "contract IPolygonZkEVMBridge",
          "name": "_bridgeAddress",
          "type": "address"
        },
        {
          "components": [
            {
              "internalType": "address",
              "name": "admin",
              "type": "address"
            },
            {
              "internalType": "uint64",
              "name": "chainID",
              "type": "uint64"
            },
            {
              "internalType": "address",
              "name": "trustedSequencer",
              "type": "address"
            },
            {
              "internalType": "uint64",
              "name": "pendingStateTimeout",
              "type": "uint64"
            },
            {
              "internalType": "bool",
              "name": "forceBatchAllowed",
              "type": "bool"
            },
            {
              "internalType": "address",
              "name": "trustedAggregator",
              "type": "address"
            },
            {
              "internalType": "uint64",
              "name": "trustedAggregatorTimeout",
              "type": "uint64"
            }
          ],
          "internalType": "struct PolygonZkEVM.InitializePackedParameters",
          "name": "initializePackedParameters",
          "type": "tuple"
        },
        {
          "internalType": "bytes32",
          "name": "genesisRoot",
          "type": "bytes32"
        },
        {
          "internalType": "string",
          "name": "_trustedSequencerURL",
          "type": "string"
        },
        {
          "internalType": "string",
          "name": "_networkName",
          "type": "string"
        }
      ],
      "name": "initialize",
      "outputs": [],
      "stateMutability": "nonpayable",
      "type": "function"
    },
    {
      "inputs": [],
      "name": "isEmergencyState",
      "outputs": [
        {
          "internalType": "bool",
          "name": "",
          "type": "bool"
        }
      ],
      "stateMutability": "view",
      "type": "function"
    },
    {
      "inputs": [
        {
          "internalType": "uint64",
          "name": "pendingStateNum",
          "type": "uint64"
        }
      ],
      "name": "isPendingStateConsolidable",
      "outputs": [
        {
          "internalType": "bool",
          "name": "",
          "type": "bool"
        }
      ],
      "stateMutability": "view",
      "type": "function"
    },
    {
      "inputs": [],
      "name": "lastBatchSequenced",
      "outputs": [
        {
          "internalType": "uint64",
          "name": "",
          "type": "uint64"
        }
      ],
      "stateMutability": "view",
      "type": "function"
    },
    {
      "inputs": [],
      "name": "lastForceBatch",
      "outputs": [
        {
          "internalType": "uint64",
          "name": "",
          "type": "uint64"
        }
      ],
      "stateMutability": "view",
      "type": "function"
    },
    {
      "inputs": [],
      "name": "lastForceBatchSequenced",
      "outputs": [
        {
          "internalType": "uint64",
          "name": "",
          "type": "uint64"
        }
      ],
      "stateMutability": "view",
      "type": "function"
    },
    {
      "inputs": [],
      "name": "lastPendingState",
      "outputs": [
        {
          "internalType": "uint64",
          "name": "",
          "type": "uint64"
        }
      ],
      "stateMutability": "view",
      "type": "function"
    },
    {
      "inputs": [],
      "name": "lastPendingStateConsolidated",
      "outputs": [
        {
          "internalType": "uint64",
          "name": "",
          "type": "uint64"
        }
      ],
      "stateMutability": "view",
      "type": "function"
    },
    {
      "inputs": [],
      "name": "lastTimestamp",
      "outputs": [
        {
          "internalType": "uint64",
          "name": "",
          "type": "uint64"
        }
      ],
      "stateMutability": "view",
      "type": "function"
    },
    {
      "inputs": [],
      "name": "lastVerifiedBatch",
      "outputs": [
        {
          "internalType": "uint64",
          "name": "",
          "type": "uint64"
        }
      ],
      "stateMutability": "view",
      "type": "function"
    },
    {
      "inputs": [],
      "name": "matic",
      "outputs": [
        {
          "internalType": "contract IERC20Upgradeable",
          "name": "",
          "type": "address"
        }
      ],
      "stateMutability": "view",
      "type": "function"
    },
    {
      "inputs": [],
      "name": "multiplierBatchFee",
      "outputs": [
        {
          "internalType": "uint16",
          "name": "",
          "type": "uint16"
        }
      ],
      "stateMutability": "view",
      "type": "function"
    },
    {
      "inputs": [],
      "name": "networkName",
      "outputs": [
        {
          "internalType": "string",
          "name": "",
          "type": "string"
        }
      ],
      "stateMutability": "view",
      "type": "function"
    },
    {
      "inputs": [
        {
          "internalType": "uint64",
          "name": "initPendingStateNum",
          "type": "uint64"
        },
        {
          "internalType": "uint64",
          "name": "finalPendingStateNum",
          "type": "uint64"
        },
        {
          "internalType": "uint64",
          "name": "initNumBatch",
          "type": "uint64"
        },
        {
          "internalType": "uint64",
          "name": "finalNewBatch",
          "type": "uint64"
        },
        {
          "internalType": "bytes32",
          "name": "newLocalExitRoot",
          "type": "bytes32"
        },
        {
          "internalType": "bytes32",
          "name": "newStateRoot",
          "type": "bytes32"
        },
        {
          "internalType": "uint256[2]",
          "name": "proofA",
          "type": "uint256[2]"
        },
        {
          "internalType": "uint256[2][2]",
          "name": "proofB",
          "type": "uint256[2][2]"
        },
        {
          "internalType": "uint256[2]",
          "name": "proofC",
          "type": "uint256[2]"
        }
      ],
      "name": "overridePendingState",
      "outputs": [],
      "stateMutability": "nonpayable",
      "type": "function"
    },
    {
      "inputs": [],
      "name": "owner",
      "outputs": [
        {
          "internalType": "address",
          "name": "",
          "type": "address"
        }
      ],
      "stateMutability": "view",
      "type": "function"
    },
    {
      "inputs": [],
      "name": "pendingStateTimeout",
      "outputs": [
        {
          "internalType": "uint64",
          "name": "",
          "type": "uint64"
        }
      ],
      "stateMutability": "view",
      "type": "function"
    },
    {
      "inputs": [
        {
          "internalType": "uint256",
          "name": "",
          "type": "uint256"
        }
      ],
      "name": "pendingStateTransitions",
      "outputs": [
        {
          "internalType": "uint64",
          "name": "timestamp",
          "type": "uint64"
        },
        {
          "internalType": "uint64",
          "name": "lastVerifiedBatch",
          "type": "uint64"
        },
        {
          "internalType": "bytes32",
          "name": "exitRoot",
          "type": "bytes32"
        },
        {
          "internalType": "bytes32",
          "name": "stateRoot",
          "type": "bytes32"
        }
      ],
      "stateMutability": "view",
      "type": "function"
    },
    {
      "inputs": [
        {
          "internalType": "uint64",
          "name": "initPendingStateNum",
          "type": "uint64"
        },
        {
          "internalType": "uint64",
          "name": "finalPendingStateNum",
          "type": "uint64"
        },
        {
          "internalType": "uint64",
          "name": "initNumBatch",
          "type": "uint64"
        },
        {
          "internalType": "uint64",
          "name": "finalNewBatch",
          "type": "uint64"
        },
        {
          "internalType": "bytes32",
          "name": "newLocalExitRoot",
          "type": "bytes32"
        },
        {
          "internalType": "bytes32",
          "name": "newStateRoot",
          "type": "bytes32"
        },
        {
          "internalType": "uint256[2]",
          "name": "proofA",
          "type": "uint256[2]"
        },
        {
          "internalType": "uint256[2][2]",
          "name": "proofB",
          "type": "uint256[2][2]"
        },
        {
          "internalType": "uint256[2]",
          "name": "proofC",
          "type": "uint256[2]"
        }
      ],
      "name": "proveNonDeterministicPendingState",
      "outputs": [],
      "stateMutability": "nonpayable",
      "type": "function"
    },
    {
      "inputs": [],
      "name": "renounceOwnership",
      "outputs": [],
      "stateMutability": "nonpayable",
      "type": "function"
    },
    {
      "inputs": [],
      "name": "rollupVerifier",
      "outputs": [
        {
          "internalType": "contract IVerifierRollup",
          "name": "",
          "type": "address"
        }
      ],
      "stateMutability": "view",
      "type": "function"
    },
    {
      "inputs": [
        {
          "components": [
            {
              "internalType": "bytes",
              "name": "transactions",
              "type": "bytes"
            },
            {
              "internalType": "bytes32",
              "name": "globalExitRoot",
              "type": "bytes32"
            },
            {
              "internalType": "uint64",
              "name": "timestamp",
              "type": "uint64"
            },
            {
              "internalType": "uint64",
              "name": "minForcedTimestamp",
              "type": "uint64"
            }
          ],
          "internalType": "struct PolygonZkEVM.BatchData[]",
          "name": "batches",
          "type": "tuple[]"
        }
      ],
      "name": "sequenceBatches",
      "outputs": [],
      "stateMutability": "nonpayable",
      "type": "function"
    },
    {
      "inputs": [
        {
          "components": [
            {
              "internalType": "bytes",
              "name": "transactions",
              "type": "bytes"
            },
            {
              "internalType": "bytes32",
              "name": "globalExitRoot",
              "type": "bytes32"
            },
            {
              "internalType": "uint64",
              "name": "minForcedTimestamp",
              "type": "uint64"
            }
          ],
          "internalType": "struct PolygonZkEVM.ForcedBatchData[]",
          "name": "batches",
          "type": "tuple[]"
        }
      ],
      "name": "sequenceForceBatches",
      "outputs": [],
      "stateMutability": "nonpayable",
      "type": "function"
    },
    {
      "inputs": [
        {
          "internalType": "uint64",
          "name": "",
          "type": "uint64"
        }
      ],
      "name": "sequencedBatches",
      "outputs": [
        {
          "internalType": "bytes32",
          "name": "accInputHash",
          "type": "bytes32"
        },
        {
          "internalType": "uint64",
          "name": "sequencedTimestamp",
          "type": "uint64"
        },
        {
          "internalType": "uint64",
          "name": "previousLastBatchSequenced",
          "type": "uint64"
        }
      ],
      "stateMutability": "view",
      "type": "function"
    },
    {
      "inputs": [
        {
          "internalType": "address",
          "name": "newAdmin",
          "type": "address"
        }
      ],
      "name": "setAdmin",
      "outputs": [],
      "stateMutability": "nonpayable",
      "type": "function"
    },
    {
      "inputs": [
        {
          "internalType": "bool",
          "name": "newForceBatchAllowed",
          "type": "bool"
        }
      ],
      "name": "setForceBatchAllowed",
      "outputs": [],
      "stateMutability": "nonpayable",
      "type": "function"
    },
    {
      "inputs": [
        {
          "internalType": "uint16",
          "name": "newMultiplierBatchFee",
          "type": "uint16"
        }
      ],
      "name": "setMultiplierBatchFee",
      "outputs": [],
      "stateMutability": "nonpayable",
      "type": "function"
    },
    {
      "inputs": [
        {
          "internalType": "string",
          "name": "_networkName",
          "type": "string"
        }
      ],
      "name": "setNetworkName",
      "outputs": [],
      "stateMutability": "nonpayable",
      "type": "function"
    },
    {
      "inputs": [
        {
          "internalType": "uint64",
          "name": "newPendingStateTimeout",
          "type": "uint64"
        }
      ],
      "name": "setPendingStateTimeout",
      "outputs": [],
      "stateMutability": "nonpayable",
      "type": "function"
    },
    {
      "inputs": [
        {
          "internalType": "uint64",
          "name": "_numBatch",
          "type": "uint64"
        }
      ],
      "name": "setSequencedBatch",
      "outputs": [],
      "stateMutability": "nonpayable",
      "type": "function"
    },
    {
      "inputs": [
        {
          "internalType": "uint64",
          "name": "batchNum",
          "type": "uint64"
        },
        {
          "internalType": "bytes32",
          "name": "accInputData",
          "type": "bytes32"
        },
        {
          "internalType": "uint64",
          "name": "timestamp",
          "type": "uint64"
        },
        {
          "internalType": "uint64",
          "name": "lastPendingStateConsolidated",
          "type": "uint64"
        }
      ],
      "name": "setSequencedBatches",
      "outputs": [],
      "stateMutability": "nonpayable",
      "type": "function"
    },
    {
      "inputs": [
        {
          "internalType": "bytes32",
          "name": "newStateRoot",
          "type": "bytes32"
        },
        {
          "internalType": "uint64",
          "name": "batchNum",
          "type": "uint64"
        }
      ],
      "name": "setStateRoot",
      "outputs": [],
      "stateMutability": "nonpayable",
      "type": "function"
    },
    {
      "inputs": [
        {
          "internalType": "address",
          "name": "newTrustedAggregator",
          "type": "address"
        }
      ],
      "name": "setTrustedAggregator",
      "outputs": [],
      "stateMutability": "nonpayable",
      "type": "function"
    },
    {
      "inputs": [
        {
          "internalType": "uint64",
          "name": "newTrustedAggregatorTimeout",
          "type": "uint64"
        }
      ],
      "name": "setTrustedAggregatorTimeout",
      "outputs": [],
      "stateMutability": "nonpayable",
      "type": "function"
    },
    {
      "inputs": [
        {
          "internalType": "address",
          "name": "newTrustedSequencer",
          "type": "address"
        }
      ],
      "name": "setTrustedSequencer",
      "outputs": [],
      "stateMutability": "nonpayable",
      "type": "function"
    },
    {
      "inputs": [
        {
          "internalType": "string",
          "name": "newTrustedSequencerURL",
          "type": "string"
        }
      ],
      "name": "setTrustedSequencerURL",
      "outputs": [],
      "stateMutability": "nonpayable",
      "type": "function"
    },
    {
      "inputs": [
        {
          "internalType": "uint64",
          "name": "_numBatch",
          "type": "uint64"
        }
      ],
      "name": "setVerifiedBatch",
      "outputs": [],
      "stateMutability": "nonpayable",
      "type": "function"
    },
    {
      "inputs": [
        {
          "internalType": "contract IVerifierRollup",
          "name": "_rollupVerifier",
          "type": "address"
        }
      ],
      "name": "setVerifier",
      "outputs": [],
      "stateMutability": "nonpayable",
      "type": "function"
    },
    {
      "inputs": [
        {
          "internalType": "uint64",
          "name": "newVeryBatchTimeTarget",
          "type": "uint64"
        }
      ],
      "name": "setVeryBatchTimeTarget",
      "outputs": [],
      "stateMutability": "nonpayable",
      "type": "function"
    },
    {
      "inputs": [
        {
          "internalType": "address",
          "name": "newOwner",
          "type": "address"
        }
      ],
      "name": "transferOwnership",
      "outputs": [],
      "stateMutability": "nonpayable",
      "type": "function"
    },
    {
      "inputs": [],
      "name": "trustedAggregator",
      "outputs": [
        {
          "internalType": "address",
          "name": "",
          "type": "address"
        }
      ],
      "stateMutability": "view",
      "type": "function"
    },
    {
      "inputs": [],
      "name": "trustedAggregatorTimeout",
      "outputs": [
        {
          "internalType": "uint64",
          "name": "",
          "type": "uint64"
        }
      ],
      "stateMutability": "view",
      "type": "function"
    },
    {
      "inputs": [],
      "name": "trustedSequencer",
      "outputs": [
        {
          "internalType": "address",
          "name": "",
          "type": "address"
        }
      ],
      "stateMutability": "view",
      "type": "function"
    },
    {
      "inputs": [],
      "name": "trustedSequencerURL",
      "outputs": [
        {
          "internalType": "string",
          "name": "",
          "type": "string"
        }
      ],
      "stateMutability": "view",
      "type": "function"
    },
    {
      "inputs": [
        {
          "internalType": "uint64",
          "name": "pendingStateNum",
          "type": "uint64"
        },
        {
          "internalType": "uint64",
          "name": "initNumBatch",
          "type": "uint64"
        },
        {
          "internalType": "uint64",
          "name": "finalNewBatch",
          "type": "uint64"
        },
        {
          "internalType": "bytes32",
          "name": "newLocalExitRoot",
          "type": "bytes32"
        },
        {
          "internalType": "bytes32",
          "name": "newStateRoot",
          "type": "bytes32"
        },
        {
          "internalType": "uint256[2]",
          "name": "proofA",
          "type": "uint256[2]"
        },
        {
          "internalType": "uint256[2][2]",
          "name": "proofB",
          "type": "uint256[2][2]"
        },
        {
          "internalType": "uint256[2]",
          "name": "proofC",
          "type": "uint256[2]"
        }
      ],
      "name": "trustedVerifyBatches",
      "outputs": [],
      "stateMutability": "nonpayable",
      "type": "function"
    },
    {
      "inputs": [
        {
          "internalType": "uint64",
          "name": "pendingStateNum",
          "type": "uint64"
        },
        {
          "internalType": "uint64",
          "name": "initNumBatch",
          "type": "uint64"
        },
        {
          "internalType": "uint64",
          "name": "finalNewBatch",
          "type": "uint64"
        },
        {
          "internalType": "bytes32",
          "name": "newLocalExitRoot",
          "type": "bytes32"
        },
        {
          "internalType": "bytes32",
          "name": "newStateRoot",
          "type": "bytes32"
        },
        {
          "internalType": "uint256[2]",
          "name": "proofA",
          "type": "uint256[2]"
        },
        {
          "internalType": "uint256[2][2]",
          "name": "proofB",
          "type": "uint256[2][2]"
        },
        {
          "internalType": "uint256[2]",
          "name": "proofC",
          "type": "uint256[2]"
        }
      ],
      "name": "trustedVerifyBatchesMock",
      "outputs": [],
      "stateMutability": "nonpayable",
      "type": "function"
    },
    {
      "inputs": [
        {
          "internalType": "uint64",
          "name": "newLastVerifiedBatch",
          "type": "uint64"
        }
      ],
      "name": "updateBatchFee",
      "outputs": [],
      "stateMutability": "nonpayable",
      "type": "function"
    },
    {
      "inputs": [
        {
          "internalType": "uint64",
          "name": "pendingStateNum",
          "type": "uint64"
        },
        {
          "internalType": "uint64",
          "name": "initNumBatch",
          "type": "uint64"
        },
        {
          "internalType": "uint64",
          "name": "finalNewBatch",
          "type": "uint64"
        },
        {
          "internalType": "bytes32",
          "name": "newLocalExitRoot",
          "type": "bytes32"
        },
        {
          "internalType": "bytes32",
          "name": "newStateRoot",
          "type": "bytes32"
        },
        {
          "internalType": "uint256[2]",
          "name": "proofA",
          "type": "uint256[2]"
        },
        {
          "internalType": "uint256[2][2]",
          "name": "proofB",
          "type": "uint256[2][2]"
        },
        {
          "internalType": "uint256[2]",
          "name": "proofC",
          "type": "uint256[2]"
        }
      ],
      "name": "verifyBatches",
      "outputs": [],
      "stateMutability": "nonpayable",
      "type": "function"
    },
    {
      "inputs": [],
      "name": "veryBatchTimeTarget",
      "outputs": [
        {
          "internalType": "uint64",
          "name": "",
          "type": "uint64"
        }
      ],
      "stateMutability": "view",
      "type": "function"
    }
  ],
  "bytecode": "0x608060405234801561001057600080fd5b50615ed280620000216000396000f3fe608060405234801561001057600080fd5b506004361061039d5760003560e01c806396dc3d39116101eb578063cfa8ed4711610110578063e7a7ed02116100a8578063e7a7ed0214610923578063e8bf92ed1461093d578063eaeb077b14610950578063edc4112114610963578063f14916d614610976578063f2fde38b14610989578063f851a4401461099c578063f8b823e4146109af578063fe16564f146109b857600080fd5b8063cfa8ed471461087e578063d02103ca14610898578063d8d1091b146108ab578063d8f54db0146108be578063d939b315146108d2578063dbc16976146108ec578063e0d17441146108f4578063e11f3f1814610907578063e217cfd61461091a57600080fd5b8063adc879e911610183578063adc879e91461076e578063afd23cbe14610788578063b4d63f58146107b0578063b4f77ea914610810578063b6b0b09714610823578063c0cad3021461083d578063c0ed84e014610850578063c89e42df14610858578063cf1363061461086b57600080fd5b806396dc3d39146106e857806399f5634e146106fb5780639b796760146107035780639c9f3dfe146107165780639eb831b9146107295780639f0d039d14610731578063a3c573eb14610739578063aa58bad61461074c578063ab9fc5ef1461076457600080fd5b80634a910e6a116102d1578063715018a611610269578063715018a6146105f15780637215541a146105f957806375c508b31461060c5780637fcb36531461061f578063837a473814610632578063841b24d7146106a05780638b48931e146106ba5780638c4a0af7146106c45780638da5cb5b146106d757600080fd5b80634a910e6a146105375780635392c5e01461054a578063542028d51461056a5780635437988d14610572578063574f649e1461058557806360943d6a146105985780636b8616ce146105ab5780636ff512cc146105cb578063704b6c02146105de57600080fd5b80632d0889d3116103445780632d0889d314610480578063383b3be81461048a578063394218e91461049d5780633c158267146104b0578063423fa856146104c357806345605267146104dd578063458c0477146104f75780634834a3431461050a5780634a1a89a71461051d57600080fd5b80630eaa86ea146103a2578063107bf28c146103c857806310a01a72146103dd57806315064c96146103f25780631816b7e51461040f57806319d8ac6114610422578063220d78991461044d5780632987898314610460575b600080fd5b6103b56103b0366004614d03565b6109cb565b6040519081526020015b60405180910390f35b6103d0610b9a565b6040516103bf9190614db0565b6103f06103eb366004614df2565b610c28565b005b6065546103ff9060ff1681565b60405190151581526020016103bf565b6103f061041d366004614e7f565b610e71565b606854610435906001600160401b031681565b6040516001600160401b0390911681526020016103bf565b6103d061045b366004614ea3565b610f92565b606a54610473906001600160a01b031681565b6040516103bf9190614ef0565b6103b5620493e081565b6103ff610498366004614f04565b611133565b6103f06104ab366004614f04565b61117a565b6103f06104be366004614f6a565b611336565b60685461043590600160401b90046001600160401b031681565b60685461043590600160801b90046001600160401b031681565b607254610435906001600160401b031681565b6103f0610518366004614df2565b611b0e565b60725461043590600160401b90046001600160401b031681565b6103f0610545366004614f04565b611e56565b6103b5610558366004614f04565b606d6020526000908152604090205481565b6103d0611f0c565b6103f0610580366004614fc0565b611f19565b6103b561059336600461507f565b611f43565b6103f06105a63660046150f4565b611f86565b6103b56105b9366004614f04565b60666020526000908152604090205481565b6103f06105d9366004614fc0565b6122e1565b6103f06105ec366004614fc0565b61235f565b6103f06123d4565b6103f0610607366004614f04565b6123e8565b6103f061061a3660046151cb565b6125ef565b606954610435906001600160401b031681565b610675610640366004615269565b6071602052600090815260409020805460018201546002909201546001600160401b0380831693600160401b90930416919084565b604080516001600160401b0395861681529490931660208501529183015260608201526080016103bf565b60725461043590600160c01b90046001600160401b031681565b61043562093a8081565b6103f06106d2366004615290565b61267e565b6033546001600160a01b0316610473565b6103f06106f6366004614f04565b6126f5565b6103b561271f565b6103f0610711366004614f04565b612807565b6103f0610724366004614f04565b61283c565b6103b5600c81565b6074546103b5565b607054610473906001600160a01b031681565b6065546104359061010090046001600160401b031681565b6104356206978081565b606c5461043590600160a81b90046001600160401b031681565b60655461079d90600160481b900461ffff1681565b60405161ffff90911681526020016103bf565b6107eb6107be366004614f04565b606760205260009081526040902080546001909101546001600160401b0380821691600160401b90041683565b604080519384526001600160401b0392831660208501529116908201526060016103bf565b6103f061081e366004614f04565b6129ea565b60655461047390600160581b90046001600160a01b031681565b6103f061084b3660046152ad565b6129fb565b610435612a13565b6103f06108663660046152ad565b612a60565b6103f0610879366004614f04565b612ac6565b60695461047390600160401b90046001600160a01b031681565b606c54610473906001600160a01b031681565b6103f06108b9366004614f6a565b612b47565b606c546103ff90600160a01b900460ff1681565b60725461043590600160801b90046001600160401b031681565b6103f0613018565b6103f06109023660046152e1565b6130b2565b6103f06109153660046151cb565b613124565b6104356103e881565b60685461043590600160c01b90046001600160401b031681565b606b54610473906001600160a01b031681565b6103f061095e36600461532e565b613268565b6103f0610971366004614df2565b6135a0565b6103f0610984366004614fc0565b6136bf565b6103f0610997366004614fc0565b613734565b607354610473906001600160a01b031681565b6103b560745481565b6103f06109c63660046153a5565b6137aa565b60008060006109d8612a13565b90506001600160401b03881615610a75576072546001600160401b039081169089161115610a215760405162461bcd60e51b8152600401610a18906153d1565b60405180910390fd5b6001600160401b038089166000908152607160205260409020600281015481549094509091898116600160401b9092041614610a6f5760405162461bcd60e51b8152600401610a189061544f565b50610adf565b6001600160401b0387166000908152606d6020526040902054915081610aad5760405162461bcd60e51b8152600401610a18906154af565b806001600160401b0316876001600160401b03161115610adf5760405162461bcd60e51b8152600401610a1890615506565b806001600160401b0316866001600160401b031611610b105760405162461bcd60e51b8152600401610a1890615577565b6000610b1f8888888689610f92565b90506000600080516020615e5d833981519152600283604051610b4291906155f4565b602060405180830381855afa158015610b5f573d6000803e3d6000fd5b5050506040513d601f19601f82011682018060405250810190610b829190615610565b610b8c919061563f565b9a9950505050505050505050565b606f8054610ba790615653565b80601f0160208091040260200160405190810160405280929190818152602001828054610bd390615653565b8015610c205780601f10610bf557610100808354040283529160200191610c20565b820191906000526020600020905b815481529060010190602001808311610c0357829003601f168201915b505050505081565b610c306137cc565b600080610c3b612a13565b90506001600160401b038a1615610ccf576072546001600160401b03908116908b161115610c7b5760405162461bcd60e51b8152600401610a18906153d1565b6001600160401b03808b1660009081526071602052604090206002810154815490945090918b8116600160401b9092041614610cc95760405162461bcd60e51b8152600401610a189061544f565b50610d39565b6001600160401b0389166000908152606d6020526040902054915081610d075760405162461bcd60e51b8152600401610a18906154af565b806001600160401b0316896001600160401b03161115610d395760405162461bcd60e51b8152600401610a1890615506565b806001600160401b0316886001600160401b031611610d6a5760405162461bcd60e51b8152600401610a1890615577565b6000610d798a8a8a868b610f92565b606980546001600160401b0319166001600160401b038c81169182179092556000908152606d602052604090208990556072549192501615610dc657607280546001600160801b03191690555b606c546040516333d6247d60e01b8152600481018a90526001600160a01b03909116906333d6247d90602401600060405180830381600087803b158015610e0c57600080fd5b505af1158015610e20573d6000803e3d6000fd5b50506040518981523392506001600160401b038c1691507f0c0ce073a7d7b5850c04ccc4b20ee7d3179d5f57d0ac44399565792c0f72fce79060200160405180910390a35050505050505050505050565b6073546001600160a01b03163314610e9b5760405162461bcd60e51b8152600401610a189061568d565b6103e88161ffff1610158015610eb657506104008161ffff16105b610f3b5760405162461bcd60e51b815260206004820152604a60248201527f506f6c79676f6e5a6b45564d3a3a7365744d756c7469706c696572426174636860448201527f4665653a206e65774d756c7469706c696572426174636846656520696e636f72606482015269726563742072616e676560b01b608482015260a401610a18565b6065805461ffff60481b1916600160481b61ffff8416908102919091179091556040519081527f7019933d795eba185c180209e8ae8bffbaa25bcef293364687702c31f4d302c5906020015b60405180910390a150565b6001600160401b03808616600081815260676020526040808220549388168252902054606092911580610fc457508115155b611038576040805162461bcd60e51b81526020600482015260248101919091527f506f6c79676f6e5a6b45564d3a3a676574496e707574536e61726b427974657360448201527f3a206f6c64416363496e7075744861736820646f6573206e6f742065786973746064820152608401610a18565b806110ad576040805162461bcd60e51b81526020600482015260248101919091527f506f6c79676f6e5a6b45564d3a3a676574496e707574536e61726b427974657360448201527f3a206e6577416363496e7075744861736820646f6573206e6f742065786973746064820152608401610a18565b606c54604080516001600160601b03193360601b166020820152603481019790975260548701939093526001600160c01b031960c0998a1b81166074880152600160a81b909104891b8116607c870152608486019490945260a485015260c4840194909452509290931b90911660e4830152805180830360cc01815260ec909201905290565b6072546001600160401b038281166000908152607160205260408120549092429261116992600160801b909204811691166156e6565b6001600160401b0316111592915050565b6073546001600160a01b031633146111a45760405162461bcd60e51b8152600401610a189061568d565b62093a806001600160401b038216111561123d5760405162461bcd60e51b815260206004820152604e60248201527f506f6c79676f6e5a6b45564d3a3a73657454727573746564416767726567617460448201527f6f7254696d656f75743a20457863656564206d61782068616c7420616767726560648201526d19d85d1a5bdb881d1a5b595bdd5d60921b608482015260a401610a18565b60655460ff166112e0576072546001600160401b03600160c01b9091048116908216106112e05760405162461bcd60e51b8152602060048201526044602482018190527f506f6c79676f6e5a6b45564d3a3a736574547275737465644167677265676174908201527f6f7254696d656f75743a204e65772074696d656f7574206d757374206265206c60648201526337bbb2b960e11b608482015260a401610a18565b607280546001600160c01b0316600160c01b6001600160401b038416908102919091179091556040519081527f1f4fa24c2e4bad19a7f3ec5c5485f70d46c798461c2e684f55bbd0fc661373a190602001610f87565b60655460ff16156113595760405162461bcd60e51b8152600401610a1890615711565b606954600160401b90046001600160a01b031633146113e05760405162461bcd60e51b815260206004820152603a60248201527f506f6c79676f6e5a6b45564d3a3a6f6e6c795472757374656453657175656e6360448201527f65723a204f6e6c7920747275737465642073657175656e6365720000000000006064820152608401610a18565b80806114545760405162461bcd60e51b815260206004820152603d60248201527f506f6c79676f6e5a6b45564d3a3a73657175656e6365426174636865733a204160448201527f74206c65617374206d7573742073657175656e636520312062617463680000006064820152608401610a18565b6103e881106114cd576040805162461bcd60e51b81526020600482015260248101919091527f506f6c79676f6e5a6b45564d3a3a73657175656e6365426174636865733a204360448201527f616e6e6f742073657175656e63652074686174206d616e7920626174636865736064820152608401610a18565b6068546001600160401b03600160401b82048116600081815260676020526040812054838516949293600160801b90930490921691905b8581101561194357600088888381811061152057611520615779565b9050602002810190611532919061578f565b61153b906157a5565b60608101519091506001600160401b0316156116c1578361155b81615831565b94505060008160000151805190602001208260200151836060015160405160200161158893929190615857565b60408051601f1981840301815291815281516020928301206001600160401b03881660009081526066909352912054909150811461161c5760405162461bcd60e51b815260206004820152603d6024820152600080516020615e7d83398151915260448201527f6f7263656420626174636865732064617461206d757374206d617463680000006064820152608401610a18565b81606001516001600160401b031682604001516001600160401b031610156116bb5760405162461bcd60e51b81526020600482015260586024820152600080516020615e7d83398151915260448201527f6f7263656420626174636865732074696d657374616d70206d757374206265206064820152773134b3b3b2b91037b91032b8bab0b6103a3430b71036b4b760411b608482015260a401610a18565b50611836565b6020810151158061174a5750606c5460208201516040516312bd9b1960e11b81526001600160a01b039092169163257b3632916117049160040190815260200190565b6020604051808303816000875af1158015611723573d6000803e3d6000fd5b505050506040513d601f19601f820116820180604052508101906117479190615610565b15155b6117bc5760405162461bcd60e51b815260206004820152603a60248201527f506f6c79676f6e5a6b45564d3a3a73657175656e6365426174636865733a204760448201527f6c6f62616c206578697420726f6f74206d7573742065786973740000000000006064820152608401610a18565b805151620493e0116118365760405162461bcd60e51b815260206004820152603a60248201527f506f6c79676f6e5a6b45564d3a3a73657175656e6365426174636865733a205460448201527f72616e73616374696f6e73206279746573206f766572666c6f770000000000006064820152608401610a18565b856001600160401b031681604001516001600160401b03161015801561186957504281604001516001600160401b031611155b6118db5760405162461bcd60e51b815260206004820152603d60248201527f506f6c79676f6e5a6b45564d3a3a73657175656e6365426174636865733a205460448201527f696d657374616d70206d75737420626520696e736964652072616e67650000006064820152608401610a18565b8051805160209182012081830151604080850151905161190294889493929133910161587a565b604051602081830303815290604052805190602001209250848061192590615831565b9550508060400151955050808061193b906158b9565b915050611504565b506068546001600160401b03600160c01b909104811690831611156119b65760405162461bcd60e51b81526020600482015260356024820152600080516020615e7d8339815191526044820152746f7263652062617463686573206f766572666c6f7760581b6064820152608401610a18565b6068546000906119d690600160801b90046001600160401b0316846158d2565b6119e9906001600160401b0316876158fa565b60408051606081018252848152426001600160401b03908116602080840191825260688054600160401b9081900485168688019081528c861660008181526067909552979093209551865592516001909501805492519585166001600160801b03199384161795851684029590951790945583548b841691161793029290921767ffffffffffffffff60801b1916600160801b92871692909202919091179055607454909150611abe90339030908490611aa39190615911565b606554600160581b90046001600160a01b0316929190613826565b611ac6613897565b606854604051600160401b9091046001600160401b0316907f303446e6a8cb73c83dff421c0b1d5e5ce0719dab1bff13660fc254e58cc17fce90600090a25050505050505050565b60655460ff1615611b315760405162461bcd60e51b8152600401610a1890615711565b6072546001600160401b038781166000908152606760205260409020600101544292611b6892600160c01b909104811691166156e6565b6001600160401b03161115611bf15760405162461bcd60e51b815260206004820152604360248201527f506f6c79676f6e5a6b45564d3a3a766572696679426174636865733a2054727560448201527f737465642061676772656761746f722074696d656f7574206e6f7420657870696064820152621c995960ea1b608482015260a401610a18565b6103e8611bfe88886158d2565b6001600160401b031610611c7a5760405162461bcd60e51b815260206004820152603c60248201527f506f6c79676f6e5a6b45564d3a3a766572696679426174636865733a2043616e60448201527f6e6f74207665726966792074686174206d616e792062617463686573000000006064820152608401610a18565b611c8a8888888888888888613937565b611c9386613e28565b607254600160801b90046001600160401b0316600003611d5a57606980546001600160401b0319166001600160401b038881169182179092556000908152606d602052604090208590556072541615611cf757607280546001600160801b03191690555b606c546040516333d6247d60e01b8152600481018790526001600160a01b03909116906333d6247d90602401600060405180830381600087803b158015611d3d57600080fd5b505af1158015611d51573d6000803e3d6000fd5b50505050611e0b565b611d62613897565b607280546001600160401b0316906000611d7b83615831565b82546001600160401b039182166101009390930a92830292820219169190911790915560408051608081018252428316815289831660208083019182528284018b8152606084018b8152607254871660009081526071909352949091209251835492518616600160401b026001600160801b03199093169516949094171781559151600183015551600290910155505b60405184815233906001600160401b038816907f9c72852172521097ba7e1482e6b44b351323df0155f97f4ea18fcec28e1f5966906020015b60405180910390a35050505050505050565b606a546001600160a01b03163314611f0057611e7181611133565b611f005760405162461bcd60e51b815260206004820152605460248201527f506f6c79676f6e5a6b45564d3a3a636f6e736f6c696461746550656e64696e6760448201527f53746174653a2050656e64696e67207374617465206973206e6f7420726561646064820152731e481d1bc818994818dbdb9cdbdb1a59185d195960621b608482015260a401610a18565b611f098161400e565b50565b606e8054610ba790615653565b611f216137cc565b606b80546001600160a01b0319166001600160a01b0392909216919091179055565b6000858580519060200120858585604051602001611f6595949392919061587a565b60405160208183030381529060405280519060200120905095945050505050565b600054610100900460ff1615808015611fa65750600054600160ff909116105b80611fc05750303b158015611fc0575060005460ff166001145b6120235760405162461bcd60e51b815260206004820152602e60248201527f496e697469616c697a61626c653a20636f6e747261637420697320616c72656160448201526d191e481a5b9a5d1a585b1a5e995960921b6064820152608401610a18565b6000805460ff191660011790558015612046576000805461ff0019166101001790555b606c80546001600160a01b03199081166001600160a01b038c81169190911790925560658054600160581b600160f81b031916600160581b8c851602179055606b805482168a8416179055607080549091169188169190911790556120ae6020860186614fc0565b607380546001600160a01b0319166001600160a01b03929092169190911790556120de6060860160408701614fc0565b606980546001600160a01b0392909216600160401b02600160401b600160e01b031990921691909117905561211960c0860160a08701614fc0565b606a80546001600160a01b0319166001600160a01b039290921691909117905560008052606d6020527fda90043ba5b4096ba14704bc227ab0d3167da15b887e62ab2e76e37daa71135684905561217660e0860160c08701614f04565b607280546001600160401b0392909216600160c01b026001600160c01b039092169190911790556121ad6040860160208701614f04565b606c80546001600160401b0392909216600160a81b0267ffffffffffffffff60a81b199092169190911790556121e96080860160608701614f04565b607280546001600160401b0392909216600160801b0267ffffffffffffffff60801b1990921691909117905561222560a0860160808701615290565b606c8054911515600160a01b0260ff60a01b19909216919091179055606e61224d8482615976565b50606f61225a8382615976565b50670de0b6b3a7640000607455606580546affffffffffffffffffff0019166a03ea0000000000000708001790556122906141f2565b80156122d6576000805461ff0019169055604051600181527f7f26b83ff96e1f2b6a682f133852f6798a09c465da95921460cefb38474024989060200160405180910390a15b505050505050505050565b6073546001600160a01b0316331461230b5760405162461bcd60e51b8152600401610a189061568d565b60698054600160401b600160e01b031916600160401b6001600160a01b038416021790556040517ff54144f9611984021529f814a1cb6a41e22c58351510a0d9f7e822618abb9cc090610f87908390614ef0565b6073546001600160a01b031633146123895760405162461bcd60e51b8152600401610a189061568d565b607380546001600160a01b0319166001600160a01b0383161790556040517f5a272403b402d892977df56625f4164ccaf70ca3863991c43ecfe76a6905b0a190610f87908390614ef0565b6123dc6137cc565b6123e66000614262565b565b6033546001600160a01b031633146125e7576000612404612a13565b9050806001600160401b0316826001600160401b03161161247b5760405162461bcd60e51b815260206004820152603c6024820152600080516020615ddd83398151915260448201527f746174653a20426174636820616c7265616479207665726966696564000000006064820152608401610a18565b6068546001600160401b03600160401b9091048116908316118015906124bd57506001600160401b038083166000908152606760205260409020600101541615155b6125365760405162461bcd60e51b81526020600482015260506024820152600080516020615ddd83398151915260448201527f746174653a204261746368206e6f742073657175656e636564206f72206e6f7460648201526f20656e64206f662073657175656e636560801b608482015260a401610a18565b6001600160401b0380831660009081526067602052604090206001015442916125649162093a8091166156e6565b6001600160401b031611156125e55760405162461bcd60e51b815260206004820152604d6024820152600080516020615ddd83398151915260448201527f746174653a204167677265676174696f6e2068616c742074696d656f7574206960648201526c1cc81b9bdd08195e1c1a5c9959609a1b608482015260a401610a18565b505b611f096142b4565b60655460ff16156126125760405162461bcd60e51b8152600401610a1890615711565b612623898989898989898989614324565b6001600160401b0386166000908152606d60209081526040918290205482519081529081018690527f1f44c21118c4603cfb4e1b621dbcfa2b73efcececee2b99b620b2953d33a7010910160405180910390a16122d66142b4565b6073546001600160a01b031633146126a85760405162461bcd60e51b8152600401610a189061568d565b606c8054821515600160a01b0260ff60a01b199091161790556040517fbacda50a4a8575be1d91a7ebe29ee45056f3a94f12a2281eb6b43afa33bcefe690610f8790831515815260200190565b6126fd6137cc565b606980546001600160401b0319166001600160401b0392909216919091179055565b6065546040516370a0823160e01b81526000918291600160581b9091046001600160a01b0316906370a082319061275a903090600401614ef0565b602060405180830381865afa158015612777573d6000803e3d6000fd5b505050506040513d601f19601f8201168201806040525081019061279b9190615610565b905060006127a7612a13565b6068546001600160401b03600160401b82048116916127d791600160801b8204811691600160c01b9004166158d2565b6127e191906156e6565b6127eb91906158d2565b6001600160401b031690506128008183615a35565b9250505090565b61280f6137cc565b606880546001600160401b03909216600160401b0267ffffffffffffffff60401b19909216919091179055565b6073546001600160a01b031633146128665760405162461bcd60e51b8152600401610a189061568d565b62093a806001600160401b03821611156128fa5760405162461bcd60e51b815260206004820152604960248201527f506f6c79676f6e5a6b45564d3a3a73657450656e64696e67537461746554696d60448201527f656f75743a20457863656564206d61782068616c74206167677265676174696f6064820152681b881d1a5b595bdd5d60ba1b608482015260a401610a18565b60655460ff1661298f576072546001600160401b03600160801b90910481169082161061298f5760405162461bcd60e51b815260206004820152603f60248201527f506f6c79676f6e5a6b45564d3a3a73657450656e64696e67537461746554696d60448201527f656f75743a204e65772074696d656f7574206d757374206265206c6f776572006064820152608401610a18565b6072805467ffffffffffffffff60801b1916600160801b6001600160401b038416908102919091179091556040519081527fc4121f4e22c69632ebb7cf1f462be0511dc034f999b52013eddfb24aab765c7590602001610f87565b6129f26137cc565b611f0981613e28565b612a036137cc565b606f612a0f8282615976565b5050565b6072546000906001600160401b031615612a5057506072546001600160401b03908116600090815260716020526040902054600160401b90041690565b506069546001600160401b031690565b6073546001600160a01b03163314612a8a5760405162461bcd60e51b8152600401610a189061568d565b606e612a968282615976565b507f6b8f723a4c7a5335cafae8a598a0aa0301be1387c037dccc085b62add6448b2081604051610f879190614db0565b6073546001600160a01b03163314612af05760405162461bcd60e51b8152600401610a189061568d565b6065805468ffffffffffffffff0019166101006001600160401b038416908102919091179091556040519081527f03a12f7e53d2a9e31a9e913d85c12c4c38feb92abe003c111329298af088437f90602001610f87565b60655460ff1615612b6a5760405162461bcd60e51b8152600401610a1890615711565b606c54600160a01b900460ff161515600114612b985760405162461bcd60e51b8152600401610a1890615a49565b8080612bfa5760405162461bcd60e51b815260206004820152603f6024820152600080516020615e3d83398151915260448201527f65733a204d75737420666f726365206174206c656173742031206261746368006064820152608401610a18565b6103e88110612c6b5760405162461bcd60e51b81526020600482015260436024820152600080516020615e3d83398151915260448201527f65733a2043616e6e6f74207665726966792074686174206d616e79206261746360648201526268657360e81b608482015260a401610a18565b6068546001600160401b03600160c01b8204811691612c93918491600160801b900416615ab2565b1115612cef5760405162461bcd60e51b81526020600482015260376024820152600080516020615e3d833981519152604482015276195cce88119bdc98d94818985d18da081a5b9d985b1a59604a1b6064820152608401610a18565b6068546001600160401b03600160401b820481166000818152606760205260408120549193600160801b9004909216915b84811015612f2f576000878783818110612d3c57612d3c615779565b9050602002810190612d4e9190615aca565b612d5790615ae0565b905083612d6381615831565b945050600081600001518051906020012082602001518360400151604051602001612d9093929190615857565b60408051601f1981840301815291815281516020928301206001600160401b038816600090815260669093529120549091508114612e2f5760405162461bcd60e51b81526020600482015260426024820152600080516020615e3d83398151915260448201527f65733a20466f7263656420626174636865732064617461206d757374206d61746064820152610c6d60f31b608482015260a401610a18565b612e3a6001886158fa565b8303612ed15742620697808360400151612e5491906156e6565b6001600160401b03161115612ed15760405162461bcd60e51b81526020600482015260496024820152600080516020615e3d83398151915260448201527f65733a20466f72636564206261746368206973206e6f7420696e2074696d656f6064820152681d5d081c195c9a5bd960ba1b608482015260a401610a18565b8151805160209182012081840151604051612ef49388939291429133910161587a565b6040516020818303038152906040528051906020012093508580612f1790615831565b96505050508080612f27906158b9565b915050612d20565b50606880546001600160401b031916426001600160401b03908116918217808455604080516060810182528681526020808201958652600160401b9384900485168284019081528a861660008181526067909352848320935184559651600193909301805491519387166001600160801b0319909216919091179286168502929092179091558554600160401b600160c01b03191694830267ffffffffffffffff60801b191694909417600160801b88851602179485905551930416917f648a61dd2438f072f5a1960939abd30f37aea80d2e94c9792ad142d3e0a490a49190a2505050505050565b6073546001600160a01b031633146130425760405162461bcd60e51b8152600401610a189061568d565b607060009054906101000a90046001600160a01b03166001600160a01b031663dbc169766040518163ffffffff1660e01b8152600401600060405180830381600087803b15801561309257600080fd5b505af11580156130a6573d6000803e3d6000fd5b505050506123e6614948565b6130ba6137cc565b604080516060810182529384526001600160401b03928316602080860191825292841685830190815295841660009081526067909352912092518355516001909201805493518216600160401b026001600160801b03199094169290911691909117919091179055565b606a546001600160a01b0316331461314e5760405162461bcd60e51b8152600401610a1890615b5b565b61315f898989898989898989614324565b606980546001600160401b0319166001600160401b038881169182179092556000908152606d6020526040902085905560725416156131a957607280546001600160801b03191690555b606c546040516333d6247d60e01b8152600481018790526001600160a01b03909116906333d6247d90602401600060405180830381600087803b1580156131ef57600080fd5b505af1158015613203573d6000803e3d6000fd5b5050607280546001600160c01b031661127560c71b179055505060405184815233906001600160401b038816907fcc1b5520188bf1dd3e63f98164b577c4d75c11a619ddea692112f0d1aec4cf729060200160405180910390a3505050505050505050565b60655460ff161561328b5760405162461bcd60e51b8152600401610a1890615711565b606c54600160a01b900460ff1615156001146132b95760405162461bcd60e51b8152600401610a1890615a49565b60006132c460745490565b9050818111156133295760405162461bcd60e51b815260206004820152602a60248201527f506f6c79676f6e5a6b45564d3a3a666f72636542617463683a204e6f7420656e6044820152696f756768206d6174696360b01b6064820152608401610a18565b620493e083106133995760405162461bcd60e51b815260206004820152603560248201527f506f6c79676f6e5a6b45564d3a3a666f72636542617463683a205472616e73616044820152746374696f6e73206279746573206f766572666c6f7760581b6064820152608401610a18565b6065546133b890600160581b90046001600160a01b0316333084613826565b606c5460408051633ed691ef60e01b815290516000926001600160a01b031691633ed691ef9160048083019260209291908290030181865afa158015613402573d6000803e3d6000fd5b505050506040513d601f19601f820116820180604052508101906134269190615610565b60688054919250600160c01b9091046001600160401b031690601861344a83615831565b91906101000a8154816001600160401b0302191690836001600160401b0316021790555050848460405161347f929190615bb8565b6040519081900381206134989183904290602001615857565b60408051808303601f190181529181528151602092830120606854600160c01b90046001600160401b03166000908152606690935291205532330361353c57606854604080518381523360208201526060918101829052600091810191909152600160c01b9091046001600160401b0316907ff94bb37db835f1ab585ee00041849a09b12cd081d77fa15ca070757619cbc9319060800160405180910390a2613599565b606860189054906101000a90046001600160401b03166001600160401b03167ff94bb37db835f1ab585ee00041849a09b12cd081d77fa15ca070757619cbc931823388886040516135909493929190615bc8565b60405180910390a25b5050505050565b606a546001600160a01b031633146135ca5760405162461bcd60e51b8152600401610a1890615b5b565b6135da8888888888888888613937565b606980546001600160401b0319166001600160401b038881169182179092556000908152606d60205260409020859055607254161561362457607280546001600160801b03191690555b606c546040516333d6247d60e01b8152600481018790526001600160a01b03909116906333d6247d90602401600060405180830381600087803b15801561366a57600080fd5b505af115801561367e573d6000803e3d6000fd5b50506040518681523392506001600160401b03891691507f0c0ce073a7d7b5850c04ccc4b20ee7d3179d5f57d0ac44399565792c0f72fce790602001611e44565b6073546001600160a01b031633146136e95760405162461bcd60e51b8152600401610a189061568d565b606a80546001600160a01b0319166001600160a01b0383161790556040517f61f8fec29495a3078e9271456f05fb0707fd4e41f7661865f80fc437d06681ca90610f87908390614ef0565b61373c6137cc565b6001600160a01b0381166137a15760405162461bcd60e51b815260206004820152602660248201527f4f776e61626c653a206e6577206f776e657220697320746865207a65726f206160448201526564647265737360d01b6064820152608401610a18565b611f0981614262565b6137b26137cc565b6001600160401b03166000908152606d6020526040902055565b6033546001600160a01b031633146123e65760405162461bcd60e51b815260206004820181905260248201527f4f776e61626c653a2063616c6c6572206973206e6f7420746865206f776e65726044820152606401610a18565b6040516001600160a01b03808516602483015283166044820152606481018290526138919085906323b872dd60e01b906084015b60408051601f198184030181529190526020810180516001600160e01b03166001600160e01b0319909316929092179091526149f5565b50505050565b6072546001600160401b03600160401b82048116911611156123e6576072546000906138d490600160401b90046001600160401b031660016156e6565b90506138df81611133565b15611f09576072546000906002906139019084906001600160401b03166158d2565b61390b9190615c0f565b61391590836156e6565b905061392081611133565b1561392e57612a0f8161400e565b612a0f8261400e565b600080613942612a13565b90506001600160401b038a1615613aa8576072546001600160401b03908116908b1611156139fa5760405162461bcd60e51b815260206004820152605960248201527f506f6c79676f6e5a6b45564d3a3a5f766572696679426174636865733a20706560448201527f6e64696e6753746174654e756d206d757374206265206c657373206f7220657160648201527875616c207468616e206c61737450656e64696e67537461746560381b608482015260a401610a18565b6001600160401b03808b1660009081526071602052604090206002810154815490945090918b8116600160401b9092041614613aa25760405162461bcd60e51b815260206004820152604d6024820152600080516020615dfd83398151915260448201527f69744e756d4261746368206d757374206d61746368207468652070656e64696e60648201526c0ce40e6e8c2e8ca40c4c2e8c6d609b1b608482015260a401610a18565b50613bce565b6001600160401b0389166000908152606d6020526040902054915081613b325760405162461bcd60e51b815260206004820152604460248201819052600080516020615dfd833981519152908201527f69744e756d426174636820737461746520726f6f7420646f6573206e6f7420656064820152631e1a5cdd60e21b608482015260a401610a18565b806001600160401b0316896001600160401b03161115613bce5760405162461bcd60e51b815260206004820152605e6024820152600080516020615dfd83398151915260448201527f69744e756d4261746368206d757374206265206c657373206f7220657175616c60648201527f207468616e2063757272656e744c617374566572696669656442617463680000608482015260a401610a18565b806001600160401b0316886001600160401b031611613c765760405162461bcd60e51b815260206004820152605860248201527f506f6c79676f6e5a6b45564d3a3a5f766572696679426174636865733a20666960448201527f6e616c4e65774261746368206d75737420626520626967676572207468616e206064820152770c6eae4e4cadce898c2e6e8accae4d2ccd2cac884c2e8c6d60431b608482015260a401610a18565b6000613c858a8a8a868b610f92565b90506000600080516020615e5d833981519152600283604051613ca891906155f4565b602060405180830381855afa158015613cc5573d6000803e3d6000fd5b5050506040513d601f19601f82011682018060405250810190613ce89190615610565b613cf2919061563f565b606b546040805160208101825283815290516343753b4d60e01b81529293506001600160a01b03909116916343753b4d91613d36918b918b918b9190600401615c35565b602060405180830381865afa158015613d53573d6000803e3d6000fd5b505050506040513d601f19601f82011682018060405250810190613d779190615caf565b613dd75760405162461bcd60e51b815260206004820152602b60248201527f506f6c79676f6e5a6b45564d3a3a5f766572696679426174636865733a20496e60448201526a3b30b634b210383937b7b360a91b6064820152608401610a18565b613e1a33613de5858d6158d2565b6001600160401b0316613df661271f565b613e009190615911565b606554600160581b90046001600160a01b03169190614acc565b505050505050505050505050565b6000613e32612a13565b905081600080613e4284846158d2565b6001600160401b031690505b836001600160401b0316836001600160401b031614613ef4576001600160401b03808416600090815260676020526040902060655460018201549192610100909104811691613e9e9116426158fa565b1115613ed9576001810154613ec390600160401b90046001600160401b0316856158d2565b613ed6906001600160401b031684615ab2565b92505b60010154600160401b90046001600160401b03169250613e4e565b6000613f0083836158fa565b905082811015613f7a576000613f1682856158fa565b9050600c8111613f265780613f29565b600c5b9050613f36816003615911565b613f4190600a615db0565b606554613f5a908390600160481b900461ffff16615db0565b607454613f679190615911565b613f719190615a35565b60745550614006565b6000613f8684836158fa565b9050600c8111613f965780613f99565b600c5b90506000613fa8826003615911565b613fb390600a615db0565b606554613fcc908490600160481b900461ffff16615db0565b607454613fd99190615911565b613fe39190615a35565b905080607454607454613ff69190615911565b6140009190615a35565b60745550505b505050505050565b6001600160401b0381161580159061403b57506072546001600160401b03600160401b9091048116908216115b801561405657506072546001600160401b0390811690821611155b6140c85760405162461bcd60e51b815260206004820152603f60248201527f506f6c79676f6e5a6b45564d3a3a5f636f6e736f6c696461746550656e64696e60448201527f6753746174653a2070656e64696e6753746174654e756d20696e76616c6964006064820152608401610a18565b6001600160401b038181166000818152607160209081526040808320805460698054600160401b928390049098166001600160401b0319909816881790556002820154878652606d90945293829020929092556072805467ffffffffffffffff60401b19169390940292909217909255606c54600183015491516333d6247d60e01b815260048101929092529192916001600160a01b0316906333d6247d90602401600060405180830381600087803b15801561418457600080fd5b505af1158015614198573d6000803e3d6000fd5b50505050826001600160401b0316816001600160401b03167f328d3c6c0fd6f1be0515e422f2d87e59f25922cbc2233568515a0c4bc3f8510e84600201546040516141e591815260200190565b60405180910390a3505050565b600054610100900460ff1661425d5760405162461bcd60e51b815260206004820152602b60248201527f496e697469616c697a61626c653a20636f6e7472616374206973206e6f74206960448201526a6e697469616c697a696e6760a81b6064820152608401610a18565b6123e6335b603380546001600160a01b038381166001600160a01b0319831681179093556040519116919082907f8be0079c531659141344cd1fd0a4f28419497f9722a3daafe3b4186f6b6457e090600090a35050565b607060009054906101000a90046001600160a01b03166001600160a01b0316632072f6c56040518163ffffffff1660e01b8152600401600060405180830381600087803b15801561430457600080fd5b505af1158015614318573d6000803e3d6000fd5b505050506123e6614afc565b60006001600160401b038a1615614494576072546001600160401b03908116908b1611156143dc5760405162461bcd60e51b81526020600482015260656024820152600080516020615e1d83398151915260448201527f696e6753746174653a2070656e64696e6753746174654e756d206d757374206260648201527f65206c657373206f7220657175616c207468616e206c61737450656e64696e67608482015264537461746560d81b60a482015260c401610a18565b506001600160401b03808a1660009081526071602052604090206002810154815490928a8116600160401b909204161461448e5760405162461bcd60e51b81526020600482015260596024820152600080516020615e1d83398151915260448201527f696e6753746174653a20696e69744e756d4261746368206d757374206d6174636064820152780d040e8d0ca40e0cadcc8d2dcce40e6e8c2e8ca40c4c2e8c6d603b1b608482015260a401610a18565b506145cd565b506001600160401b0387166000908152606d6020526040902054806145285760405162461bcd60e51b81526020600482015260506024820152600080516020615e1d83398151915260448201527f696e6753746174653a20696e69744e756d426174636820737461746520726f6f60648201526f1d08191bd95cc81b9bdd08195e1a5cdd60821b608482015260a401610a18565b6069546001600160401b0390811690891611156145cd5760405162461bcd60e51b81526020600482015260636024820152600080516020615e1d83398151915260448201527f696e6753746174653a20696e69744e756d4261746368206d757374206265206c60648201527f657373206f7220657175616c207468616e206c617374566572696669656442616084820152620e8c6d60eb1b60a482015260c401610a18565b6072546001600160401b03908116908a16118015906145fd5750896001600160401b0316896001600160401b0316115b801561461e57506072546001600160401b03600160401b9091048116908a16115b61468f5760405162461bcd60e51b81526020600482015260486024820152600080516020615e1d83398151915260448201527f696e6753746174653a2066696e616c50656e64696e6753746174654e756d20696064820152671b98dbdc9c9958dd60c21b608482015260a401610a18565b6001600160401b03898116600090815260716020526040902054600160401b90048116908816146147485760405162461bcd60e51b81526020600482015260636024820152600080516020615e1d83398151915260448201527f696e6753746174653a2066696e616c4e65774261746368206d7573742062652060648201527f657175616c207468616e2063757272656e744c617374566572696669656442616084820152620e8c6d60eb1b60a482015260c401610a18565b6000614757898989858a610f92565b90506000600080516020615e5d83398151915260028360405161477a91906155f4565b602060405180830381855afa158015614797573d6000803e3d6000fd5b5050506040513d601f19601f820116820180604052508101906147ba9190615610565b6147c4919061563f565b606b546040805160208101825283815290516343753b4d60e01b81529293506001600160a01b03909116916343753b4d91614808918a918a918a9190600401615c35565b602060405180830381865afa158015614825573d6000803e3d6000fd5b505050506040513d601f19601f820116820180604052508101906148499190615caf565b6148a35760405162461bcd60e51b81526020600482015260376024820152600080516020615e1d83398151915260448201527634b733a9ba30ba329d1024b73b30b634b210383937b7b360491b6064820152608401610a18565b6001600160401b038b16600090815260716020526040902060020154879003613e1a5760405162461bcd60e51b815260206004820152605b6024820152600080516020615e1d83398151915260448201527f696e6753746174653a2053746f72656420726f6f74206d75737420626520646960648201527f66666572656e74207468616e206e657720737461746520726f6f740000000000608482015260a401610a18565b60655460ff166149c05760405162461bcd60e51b815260206004820152603b60248201527f456d657267656e63794d616e616765723a3a6966456d657267656e637953746160448201527f74653a206f6e6c7920696620656d657267656e637920737461746500000000006064820152608401610a18565b6065805460ff191690556040517f1e5e34eea33501aecf2ebec9fe0e884a40804275ea7fe10b2ba084c8374308b390600090a1565b6000614a4a826040518060400160405280602081526020017f5361666545524332303a206c6f772d6c6576656c2063616c6c206661696c6564815250856001600160a01b0316614b579092919063ffffffff16565b805190915015614ac75780806020019051810190614a689190615caf565b614ac75760405162461bcd60e51b815260206004820152602a60248201527f5361666545524332303a204552433230206f7065726174696f6e20646964206e6044820152691bdd081cdd58d8d9595960b21b6064820152608401610a18565b505050565b6040516001600160a01b038316602482015260448101829052614ac790849063a9059cbb60e01b9060640161385a565b60655460ff1615614b1f5760405162461bcd60e51b8152600401610a1890615711565b6065805460ff191660011790556040517f2261efe5aef6fedc1fd1550b25facc9181745623049c7901287030b9ad1a549790600090a1565b6060614b668484600085614b6e565b949350505050565b606082471015614bcf5760405162461bcd60e51b815260206004820152602660248201527f416464726573733a20696e73756666696369656e742062616c616e636520666f6044820152651c8818d85b1b60d21b6064820152608401610a18565b600080866001600160a01b03168587604051614beb91906155f4565b60006040518083038185875af1925050503d8060008114614c28576040519150601f19603f3d011682016040523d82523d6000602084013e614c2d565b606091505b5091509150614c3e87838387614c49565b979650505050505050565b60608315614cb8578251600003614cb1576001600160a01b0385163b614cb15760405162461bcd60e51b815260206004820152601d60248201527f416464726573733a2063616c6c20746f206e6f6e2d636f6e74726163740000006044820152606401610a18565b5081614b66565b614b668383815115614ccd5781518083602001fd5b8060405162461bcd60e51b8152600401610a189190614db0565b80356001600160401b0381168114614cfe57600080fd5b919050565b600080600080600060a08688031215614d1b57600080fd5b614d2486614ce7565b9450614d3260208701614ce7565b9350614d4060408701614ce7565b94979396509394606081013594506080013592915050565b60005b83811015614d73578181015183820152602001614d5b565b838111156138915750506000910152565b60008151808452614d9c816020860160208601614d58565b601f01601f19169290920160200192915050565b602081526000614dc36020830184614d84565b9392505050565b8060408101831015614ddb57600080fd5b92915050565b8060808101831015614ddb57600080fd5b6000806000806000806000806101a0898b031215614e0f57600080fd5b614e1889614ce7565b9750614e2660208a01614ce7565b9650614e3460408a01614ce7565b95506060890135945060808901359350614e518a60a08b01614dca565b9250614e608a60e08b01614de1565b9150614e708a6101608b01614dca565b90509295985092959890939650565b600060208284031215614e9157600080fd5b813561ffff81168114614dc357600080fd5b600080600080600060a08688031215614ebb57600080fd5b614ec486614ce7565b9450614ed260208701614ce7565b94979496505050506040830135926060810135926080909101359150565b6001600160a01b0391909116815260200190565b600060208284031215614f1657600080fd5b614dc382614ce7565b60008083601f840112614f3157600080fd5b5081356001600160401b03811115614f4857600080fd5b6020830191508360208260051b8501011115614f6357600080fd5b9250929050565b60008060208385031215614f7d57600080fd5b82356001600160401b03811115614f9357600080fd5b614f9f85828601614f1f565b90969095509350505050565b6001600160a01b0381168114611f0957600080fd5b600060208284031215614fd257600080fd5b8135614dc381614fab565b634e487b7160e01b600052604160045260246000fd5b600082601f83011261500457600080fd5b81356001600160401b038082111561501e5761501e614fdd565b604051601f8301601f19908116603f0116810190828211818310171561504657615046614fdd565b8160405283815286602085880101111561505f57600080fd5b836020870160208301376000602085830101528094505050505092915050565b600080600080600060a0868803121561509757600080fd5b8535945060208601356001600160401b038111156150b457600080fd5b6150c088828901614ff3565b945050604086013592506150d660608701614ce7565b915060808601356150e681614fab565b809150509295509295909350565b600080600080600080600080888a036101c081121561511257600080fd5b893561511d81614fab565b985060208a013561512d81614fab565b975060408a013561513d81614fab565b965060608a013561514d81614fab565b955060e0607f198201121561516157600080fd5b5060808901935061016089013592506101808901356001600160401b038082111561518b57600080fd5b6151978c838d01614ff3565b93506101a08b01359150808211156151ae57600080fd5b506151bb8b828c01614ff3565b9150509295985092959890939650565b60008060008060008060008060006101c08a8c0312156151ea57600080fd5b6151f38a614ce7565b985061520160208b01614ce7565b975061520f60408b01614ce7565b965061521d60608b01614ce7565b955060808a0135945060a08a0135935061523a8b60c08c01614dca565b925061524a8b6101008c01614de1565b915061525a8b6101808c01614dca565b90509295985092959850929598565b60006020828403121561527b57600080fd5b5035919050565b8015158114611f0957600080fd5b6000602082840312156152a257600080fd5b8135614dc381615282565b6000602082840312156152bf57600080fd5b81356001600160401b038111156152d557600080fd5b614b6684828501614ff3565b600080600080608085870312156152f757600080fd5b61530085614ce7565b93506020850135925061531560408601614ce7565b915061532360608601614ce7565b905092959194509250565b60008060006040848603121561534357600080fd5b83356001600160401b038082111561535a57600080fd5b818601915086601f83011261536e57600080fd5b81358181111561537d57600080fd5b87602082850101111561538f57600080fd5b6020928301989097509590910135949350505050565b600080604083850312156153b857600080fd5b823591506153c860208401614ce7565b90509250929050565b60208082526058908201527f506f6c79676f6e5a6b45564d3a3a766572696679426174636865733a2070656e60408201527f64696e6753746174654e756d206d757374206265206c657373206f7220657175606082015277616c207468616e206c61737450656e64696e67537461746560401b608082015260a00190565b6020808252604c90820152600080516020615dbd83398151915260408201527f744e756d4261746368206d757374206d61746368207468652070656e64696e6760608201526b040e6e8c2e8ca40c4c2e8c6d60a31b608082015260a00190565b6020808252604390820152600080516020615dbd83398151915260408201527f744e756d426174636820737461746520726f6f7420646f6573206e6f742065786060820152621a5cdd60ea1b608082015260a00190565b6020808252605d90820152600080516020615dbd83398151915260408201527f744e756d4261746368206d757374206265206c657373206f7220657175616c2060608201527f7468616e2063757272656e744c61737456657269666965644261746368000000608082015260a00190565b60208082526057908201527f506f6c79676f6e5a6b45564d3a3a766572696679426174636865733a2066696e60408201527f616c4e65774261746368206d75737420626520626967676572207468616e20636060820152760eae4e4cadce898c2e6e8accae4d2ccd2cac884c2e8c6d604b1b608082015260a00190565b60008251615606818460208701614d58565b9190910192915050565b60006020828403121561562257600080fd5b5051919050565b634e487b7160e01b600052601260045260246000fd5b60008261564e5761564e615629565b500690565b600181811c9082168061566757607f821691505b60208210810361568757634e487b7160e01b600052602260045260246000fd5b50919050565b60208082526023908201527f506f6c79676f6e5a6b45564d3a3a6f6e6c7941646d696e3a204f6e6c7920616460408201526236b4b760e91b606082015260800190565b634e487b7160e01b600052601160045260246000fd5b60006001600160401b03808316818516808303821115615708576157086156d0565b01949350505050565b60208082526042908201527f456d657267656e63794d616e616765723a3a69664e6f74456d657267656e637960408201527f53746174653a206f6e6c79206966206e6f7420656d657267656e637920737461606082015261746560f01b608082015260a00190565b634e487b7160e01b600052603260045260246000fd5b60008235607e1983360301811261560657600080fd5b6000608082360312156157b757600080fd5b604051608081016001600160401b0382821081831117156157da576157da614fdd565b8160405284359150808211156157ef57600080fd5b506157fc36828601614ff3565b8252506020830135602082015261581560408401614ce7565b604082015261582660608401614ce7565b606082015292915050565b60006001600160401b0380831681810361584d5761584d6156d0565b6001019392505050565b928352602083019190915260c01b6001600160c01b031916604082015260480190565b9485526020850193909352604084019190915260c01b6001600160c01b0319166060808401919091521b6001600160601b0319166068820152607c0190565b6000600182016158cb576158cb6156d0565b5060010190565b60006001600160401b03838116908316818110156158f2576158f26156d0565b039392505050565b60008282101561590c5761590c6156d0565b500390565b600081600019048311821515161561592b5761592b6156d0565b500290565b601f821115614ac757600081815260208120601f850160051c810160208610156159575750805b601f850160051c820191505b8181101561400657828155600101615963565b81516001600160401b0381111561598f5761598f614fdd565b6159a38161599d8454615653565b84615930565b602080601f8311600181146159d857600084156159c05750858301515b600019600386901b1c1916600185901b178555614006565b600085815260208120601f198616915b82811015615a07578886015182559484019460019091019084016159e8565b5085821015615a255787850151600019600388901b60f8161c191681555b5050505050600190811b01905550565b600082615a4457615a44615629565b500490565b60208082526043908201527f506f6c79676f6e5a6b45564d3a3a6973466f7263654261746368416c6c6f776560408201527f643a204f6e6c7920696620666f72636520626174636820697320617661696c61606082015262626c6560e81b608082015260a00190565b60008219821115615ac557615ac56156d0565b500190565b60008235605e1983360301811261560657600080fd5b600060608236031215615af257600080fd5b604051606081016001600160401b038282108183111715615b1557615b15614fdd565b816040528435915080821115615b2a57600080fd5b50615b3736828601614ff3565b82525060208301356020820152615b5060408401614ce7565b604082015292915050565b6020808252603c908201527f506f6c79676f6e5a6b45564d3a3a6f6e6c79547275737465644167677265676160408201527f746f723a204f6e6c7920747275737465642061676772656761746f7200000000606082015260800190565b8183823760009101908152919050565b8481526001600160a01b03841660208201526060604082018190528101829052818360808301376000818301608090810191909152601f909201601f191601019392505050565b60006001600160401b0380841680615c2957615c29615629565b92169190910492915050565b61012081016040808784376000838201818152879190815b6002811015615c6d57848483379084018281529284019290600101615c4d565b5050828760c0870137610100850181815286935091505b6001811015615ca3578251825260209283019290910190600101615c84565b50505095945050505050565b600060208284031215615cc157600080fd5b8151614dc381615282565b600181815b80851115615d07578160001904821115615ced57615ced6156d0565b80851615615cfa57918102915b93841c9390800290615cd1565b509250929050565b600082615d1e57506001614ddb565b81615d2b57506000614ddb565b8160018114615d415760028114615d4b57615d67565b6001915050614ddb565b60ff841115615d5c57615d5c6156d0565b50506001821b614ddb565b5060208310610133831016604e8410600b8410161715615d8a575081810a614ddb565b615d948383615ccc565b8060001904821115615da857615da86156d0565b029392505050565b6000614dc38383615d0f56fe506f6c79676f6e5a6b45564d3a3a766572696679426174636865733a20696e69506f6c79676f6e5a6b45564d3a3a6163746976617465456d657267656e637953506f6c79676f6e5a6b45564d3a3a5f766572696679426174636865733a20696e506f6c79676f6e5a6b45564d3a3a5f70726f766544697374696e637450656e64506f6c79676f6e5a6b45564d3a3a73657175656e6365466f726365426174636830644e72e131a029b85045b68181585d2833e84879b9709143e1f593f0000001506f6c79676f6e5a6b45564d3a3a73657175656e6365426174636865733a2046a26469706673582212202084cc3d68106d69768cd5d79a937034b7a2b77fbaec19ed6cee2bbf4971ea3264736f6c634300080f0033",
  "linkReferences": {},
  "deployedLinkReferences": {}
}