{
  "_format": "hh-sol-artifact-1",
  "contractName": "PolygonZkEVMMock",
  "sourceName": "contracts/mocks/PolygonZkEVMMock.sol",
  "abi": [
    {
      "anonymous": false,
      "inputs": [
        {
          "indexed": true,
          "internalType": "uint64",
          "name": "numBatch",
          "type": "uint64"
        },
        {
          "indexed": false,
          "internalType": "bytes32",
          "name": "stateRoot",
          "type": "bytes32"
        },
        {
          "indexed": true,
          "internalType": "uint64",
          "name": "pendingStateNum",
          "type": "uint64"
        }
      ],
      "name": "ConsolidatePendingState",
      "type": "event"
    },
    {
      "anonymous": false,
      "inputs": [],
      "name": "EmergencyStateActivated",
      "type": "event"
    },
    {
      "anonymous": false,
      "inputs": [],
      "name": "EmergencyStateDeactivated",
      "type": "event"
    },
    {
      "anonymous": false,
      "inputs": [
        {
          "indexed": true,
          "internalType": "uint64",
          "name": "forceBatchNum",
          "type": "uint64"
        },
        {
          "indexed": false,
          "internalType": "bytes32",
          "name": "lastGlobalExitRoot",
          "type": "bytes32"
        },
        {
          "indexed": false,
          "internalType": "address",
          "name": "sequencer",
          "type": "address"
        },
        {
          "indexed": false,
          "internalType": "bytes",
          "name": "transactions",
          "type": "bytes"
        }
      ],
      "name": "ForceBatch",
      "type": "event"
    },
    {
      "anonymous": false,
      "inputs": [
        {
          "indexed": false,
          "internalType": "uint8",
          "name": "version",
          "type": "uint8"
        }
      ],
      "name": "Initialized",
      "type": "event"
    },
    {
      "anonymous": false,
      "inputs": [
        {
          "indexed": true,
          "internalType": "uint64",
          "name": "numBatch",
          "type": "uint64"
        },
        {
          "indexed": false,
          "internalType": "bytes32",
          "name": "stateRoot",
          "type": "bytes32"
        },
        {
          "indexed": true,
          "internalType": "address",
          "name": "aggregator",
          "type": "address"
        }
      ],
      "name": "OverridePendingState",
      "type": "event"
    },
    {
      "anonymous": false,
      "inputs": [
        {
          "indexed": true,
          "internalType": "address",
          "name": "previousOwner",
          "type": "address"
        },
        {
          "indexed": true,
          "internalType": "address",
          "name": "newOwner",
          "type": "address"
        }
      ],
      "name": "OwnershipTransferred",
      "type": "event"
    },
    {
      "anonymous": false,
      "inputs": [
        {
          "indexed": false,
          "internalType": "bytes32",
          "name": "storedStateRoot",
          "type": "bytes32"
        },
        {
          "indexed": false,
          "internalType": "bytes32",
          "name": "provedStateRoot",
          "type": "bytes32"
        }
      ],
      "name": "ProveNonDeterministicPendingState",
      "type": "event"
    },
    {
      "anonymous": false,
      "inputs": [
        {
          "indexed": true,
          "internalType": "uint64",
          "name": "numBatch",
          "type": "uint64"
        }
      ],
      "name": "SequenceBatches",
      "type": "event"
    },
    {
      "anonymous": false,
      "inputs": [
        {
          "indexed": true,
          "internalType": "uint64",
          "name": "numBatch",
          "type": "uint64"
        }
      ],
      "name": "SequenceForceBatches",
      "type": "event"
    },
    {
      "anonymous": false,
      "inputs": [
        {
          "indexed": false,
          "internalType": "address",
          "name": "newAdmin",
          "type": "address"
        }
      ],
      "name": "SetAdmin",
      "type": "event"
    },
    {
      "anonymous": false,
      "inputs": [
        {
          "indexed": false,
          "internalType": "bool",
          "name": "newForceBatchAllowed",
          "type": "bool"
        }
      ],
      "name": "SetForceBatchAllowed",
      "type": "event"
    },
    {
      "anonymous": false,
      "inputs": [
        {
          "indexed": false,
          "internalType": "uint16",
          "name": "newMultiplierBatchFee",
          "type": "uint16"
        }
      ],
      "name": "SetMultiplierBatchFee",
      "type": "event"
    },
    {
      "anonymous": false,
      "inputs": [
        {
          "indexed": false,
          "internalType": "uint64",
          "name": "newPendingStateTimeout",
          "type": "uint64"
        }
      ],
      "name": "SetPendingStateTimeout",
      "type": "event"
    },
    {
      "anonymous": false,
      "inputs": [
        {
          "indexed": false,
          "internalType": "address",
          "name": "newTrustedAggregator",
          "type": "address"
        }
      ],
      "name": "SetTrustedAggregator",
      "type": "event"
    },
    {
      "anonymous": false,
      "inputs": [
        {
          "indexed": false,
          "internalType": "uint64",
          "name": "newTrustedAggregatorTimeout",
          "type": "uint64"
        }
      ],
      "name": "SetTrustedAggregatorTimeout",
      "type": "event"
    },
    {
      "anonymous": false,
      "inputs": [
        {
          "indexed": false,
          "internalType": "address",
          "name": "newTrustedSequencer",
          "type": "address"
        }
      ],
      "name": "SetTrustedSequencer",
      "type": "event"
    },
    {
      "anonymous": false,
      "inputs": [
        {
          "indexed": false,
          "internalType": "string",
          "name": "newTrustedSequencerURL",
          "type": "string"
        }
      ],
      "name": "SetTrustedSequencerURL",
      "type": "event"
    },
    {
      "anonymous": false,
      "inputs": [
        {
          "indexed": false,
          "internalType": "uint64",
          "name": "newVeryBatchTimeTarget",
          "type": "uint64"
        }
      ],
      "name": "SetVeryBatchTimeTarget",
      "type": "event"
    },
    {
      "anonymous": false,
      "inputs": [
        {
          "indexed": true,
          "internalType": "uint64",
          "name": "numBatch",
          "type": "uint64"
        },
        {
          "indexed": false,
          "internalType": "bytes32",
          "name": "stateRoot",
          "type": "bytes32"
        },
        {
          "indexed": true,
          "internalType": "address",
          "name": "aggregator",
          "type": "address"
        }
      ],
      "name": "TrustedVerifyBatches",
      "type": "event"
    },
    {
      "anonymous": false,
      "inputs": [
        {
          "indexed": true,
          "internalType": "uint64",
          "name": "numBatch",
          "type": "uint64"
        },
        {
          "indexed": false,
          "internalType": "bytes32",
          "name": "stateRoot",
          "type": "bytes32"
        },
        {
          "indexed": true,
          "internalType": "address",
          "name": "aggregator",
          "type": "address"
        }
      ],
      "name": "VerifyBatches",
      "type": "event"
    },
    {
      "inputs": [],
      "name": "FORCE_BATCH_TIMEOUT",
      "outputs": [
        {
          "internalType": "uint64",
          "name": "",
          "type": "uint64"
        }
      ],
      "stateMutability": "view",
      "type": "function"
    },
    {
      "inputs": [],
      "name": "HALT_AGGREGATION_TIMEOUT",
      "outputs": [
        {
          "internalType": "uint64",
          "name": "",
          "type": "uint64"
        }
      ],
      "stateMutability": "view",
      "type": "function"
    },
    {
      "inputs": [],
      "name": "MAX_BATCH_MULTIPLIER",
      "outputs": [
        {
          "internalType": "uint256",
          "name": "",
          "type": "uint256"
        }
      ],
      "stateMutability": "view",
      "type": "function"
    },
    {
      "inputs": [],
      "name": "MAX_TRANSACTIONS_BYTE_LENGTH",
      "outputs": [
        {
          "internalType": "uint256",
          "name": "",
          "type": "uint256"
        }
      ],
      "stateMutability": "view",
      "type": "function"
    },
    {
      "inputs": [],
      "name": "MAX_VERIFY_BATCHES",
      "outputs": [
        {
          "internalType": "uint64",
          "name": "",
          "type": "uint64"
        }
      ],
      "stateMutability": "view",
      "type": "function"
    },
    {
      "inputs": [
        {
          "internalType": "uint64",
          "name": "sequencedBatchNum",
          "type": "uint64"
        }
      ],
      "name": "activateEmergencyState",
      "outputs": [],
      "stateMutability": "nonpayable",
      "type": "function"
    },
    {
      "inputs": [],
      "name": "admin",
      "outputs": [
        {
          "internalType": "address",
          "name": "",
          "type": "address"
        }
      ],
      "stateMutability": "view",
      "type": "function"
    },
    {
      "inputs": [],
      "name": "batchFee",
      "outputs": [
        {
          "internalType": "uint256",
          "name": "",
          "type": "uint256"
        }
      ],
      "stateMutability": "view",
      "type": "function"
    },
    {
      "inputs": [
        {
          "internalType": "uint64",
          "name": "",
          "type": "uint64"
        }
      ],
      "name": "batchNumToStateRoot",
      "outputs": [
        {
          "internalType": "bytes32",
          "name": "",
          "type": "bytes32"
        }
      ],
      "stateMutability": "view",
      "type": "function"
    },
    {
      "inputs": [],
      "name": "bridgeAddress",
      "outputs": [
        {
          "internalType": "contract IPolygonZkEVMBridge",
          "name": "",
          "type": "address"
        }
      ],
      "stateMutability": "view",
      "type": "function"
    },
    {
      "inputs": [
        {
          "internalType": "bytes32",
          "name": "currentAccInputHash",
          "type": "bytes32"
        },
        {
          "internalType": "bytes",
          "name": "transactions",
          "type": "bytes"
        },
        {
          "internalType": "bytes32",
          "name": "globalExitRoot",
          "type": "bytes32"
        },
        {
          "internalType": "uint64",
          "name": "timestamp",
          "type": "uint64"
        },
        {
          "internalType": "address",
          "name": "sequencerAddress",
          "type": "address"
        }
      ],
      "name": "calculateAccInputHash",
      "outputs": [
        {
          "internalType": "bytes32",
          "name": "",
          "type": "bytes32"
        }
      ],
      "stateMutability": "pure",
      "type": "function"
    },
    {
      "inputs": [],
      "name": "calculateRewardPerBatch",
      "outputs": [
        {
          "internalType": "uint256",
          "name": "",
          "type": "uint256"
        }
      ],
      "stateMutability": "view",
      "type": "function"
    },
    {
      "inputs": [],
      "name": "chainID",
      "outputs": [
        {
          "internalType": "uint64",
          "name": "",
          "type": "uint64"
        }
      ],
      "stateMutability": "view",
      "type": "function"
    },
    {
      "inputs": [
        {
          "internalType": "uint64",
          "name": "pendingStateNum",
          "type": "uint64"
        }
      ],
      "name": "consolidatePendingState",
      "outputs": [],
      "stateMutability": "nonpayable",
      "type": "function"
    },
    {
      "inputs": [],
      "name": "deactivateEmergencyState",
      "outputs": [],
      "stateMutability": "nonpayable",
      "type": "function"
    },
    {
      "inputs": [
        {
          "internalType": "bytes",
          "name": "transactions",
          "type": "bytes"
        },
        {
          "internalType": "uint256",
          "name": "maticAmount",
          "type": "uint256"
        }
      ],
      "name": "forceBatch",
      "outputs": [],
      "stateMutability": "nonpayable",
      "type": "function"
    },
    {
      "inputs": [],
      "name": "forceBatchAllowed",
      "outputs": [
        {
          "internalType": "bool",
          "name": "",
          "type": "bool"
        }
      ],
      "stateMutability": "view",
      "type": "function"
    },
    {
      "inputs": [
        {
          "internalType": "uint64",
          "name": "",
          "type": "uint64"
        }
      ],
      "name": "forcedBatches",
      "outputs": [
        {
          "internalType": "bytes32",
          "name": "",
          "type": "bytes32"
        }
      ],
      "stateMutability": "view",
      "type": "function"
    },
    {
      "inputs": [],
      "name": "getCurrentBatchFee",
      "outputs": [
        {
          "internalType": "uint256",
          "name": "",
          "type": "uint256"
        }
      ],
      "stateMutability": "view",
      "type": "function"
    },
    {
      "inputs": [
        {
          "internalType": "uint64",
          "name": "initNumBatch",
          "type": "uint64"
        },
        {
          "internalType": "uint64",
          "name": "finalNewBatch",
          "type": "uint64"
        },
        {
          "internalType": "bytes32",
          "name": "newLocalExitRoot",
          "type": "bytes32"
        },
        {
          "internalType": "bytes32",
          "name": "oldStateRoot",
          "type": "bytes32"
        },
        {
          "internalType": "bytes32",
          "name": "newStateRoot",
          "type": "bytes32"
        }
      ],
      "name": "getInputSnarkBytes",
      "outputs": [
        {
          "internalType": "bytes",
          "name": "",
          "type": "bytes"
        }
      ],
      "stateMutability": "view",
      "type": "function"
    },
    {
      "inputs": [],
      "name": "getLastVerifiedBatch",
      "outputs": [
        {
          "internalType": "uint64",
          "name": "",
          "type": "uint64"
        }
      ],
      "stateMutability": "view",
      "type": "function"
    },
    {
      "inputs": [
        {
          "internalType": "uint64",
          "name": "pendingStateNum",
          "type": "uint64"
        },
        {
          "internalType": "uint64",
          "name": "initNumBatch",
          "type": "uint64"
        },
        {
          "internalType": "uint64",
          "name": "finalNewBatch",
          "type": "uint64"
        },
        {
          "internalType": "bytes32",
          "name": "newLocalExitRoot",
          "type": "bytes32"
        },
        {
          "internalType": "bytes32",
          "name": "newStateRoot",
          "type": "bytes32"
        }
      ],
      "name": "getNextSnarkInput",
      "outputs": [
        {
          "internalType": "uint256",
          "name": "",
          "type": "uint256"
        }
      ],
      "stateMutability": "view",
      "type": "function"
    },
    {
      "inputs": [],
      "name": "globalExitRootManager",
      "outputs": [
        {
          "internalType": "contract IPolygonZkEVMGlobalExitRoot",
          "name": "",
          "type": "address"
        }
      ],
      "stateMutability": "view",
      "type": "function"
    },
    {
      "inputs": [
        {
          "internalType": "contract IPolygonZkEVMGlobalExitRoot",
          "name": "_globalExitRootManager",
          "type": "address"
        },
        {
          "internalType": "contract IERC20Upgradeable",
          "name": "_matic",
          "type": "address"
        },
        {
          "internalType": "contract IVerifierRollup",
          "name": "_rollupVerifier",
          "type": "address"
        },
        {
          "internalType": "contract IPolygonZkEVMBridge",
          "name": "_bridgeAddress",
          "type": "address"
        },
        {
          "components": [
            {
              "internalType": "address",
              "name": "admin",
              "type": "address"
            },
            {
              "internalType": "uint64",
              "name": "chainID",
              "type": "uint64"
            },
            {
              "internalType": "address",
              "name": "trustedSequencer",
              "type": "address"
            },
            {
              "internalType": "uint64",
              "name": "pendingStateTimeout",
              "type": "uint64"
            },
            {
              "internalType": "bool",
              "name": "forceBatchAllowed",
              "type": "bool"
            },
            {
              "internalType": "address",
              "name": "trustedAggregator",
              "type": "address"
            },
            {
              "internalType": "uint64",
              "name": "trustedAggregatorTimeout",
              "type": "uint64"
            }
          ],
          "internalType": "struct PolygonZkEVM.InitializePackedParameters",
          "name": "initializePackedParameters",
          "type": "tuple"
        },
        {
          "internalType": "bytes32",
          "name": "genesisRoot",
          "type": "bytes32"
        },
        {
          "internalType": "string",
          "name": "_trustedSequencerURL",
          "type": "string"
        },
        {
          "internalType": "string",
          "name": "_networkName",
          "type": "string"
        }
      ],
      "name": "initialize",
      "outputs": [],
      "stateMutability": "nonpayable",
      "type": "function"
    },
    {
      "inputs": [],
      "name": "isEmergencyState",
      "outputs": [
        {
          "internalType": "bool",
          "name": "",
          "type": "bool"
        }
      ],
      "stateMutability": "view",
      "type": "function"
    },
    {
      "inputs": [
        {
          "internalType": "uint64",
          "name": "pendingStateNum",
          "type": "uint64"
        }
      ],
      "name": "isPendingStateConsolidable",
      "outputs": [
        {
          "internalType": "bool",
          "name": "",
          "type": "bool"
        }
      ],
      "stateMutability": "view",
      "type": "function"
    },
    {
      "inputs": [],
      "name": "lastBatchSequenced",
      "outputs": [
        {
          "internalType": "uint64",
          "name": "",
          "type": "uint64"
        }
      ],
      "stateMutability": "view",
      "type": "function"
    },
    {
      "inputs": [],
      "name": "lastForceBatch",
      "outputs": [
        {
          "internalType": "uint64",
          "name": "",
          "type": "uint64"
        }
      ],
      "stateMutability": "view",
      "type": "function"
    },
    {
      "inputs": [],
      "name": "lastForceBatchSequenced",
      "outputs": [
        {
          "internalType": "uint64",
          "name": "",
          "type": "uint64"
        }
      ],
      "stateMutability": "view",
      "type": "function"
    },
    {
      "inputs": [],
      "name": "lastPendingState",
      "outputs": [
        {
          "internalType": "uint64",
          "name": "",
          "type": "uint64"
        }
      ],
      "stateMutability": "view",
      "type": "function"
    },
    {
      "inputs": [],
      "name": "lastPendingStateConsolidated",
      "outputs": [
        {
          "internalType": "uint64",
          "name": "",
          "type": "uint64"
        }
      ],
      "stateMutability": "view",
      "type": "function"
    },
    {
      "inputs": [],
      "name": "lastTimestamp",
      "outputs": [
        {
          "internalType": "uint64",
          "name": "",
          "type": "uint64"
        }
      ],
      "stateMutability": "view",
      "type": "function"
    },
    {
      "inputs": [],
      "name": "lastVerifiedBatch",
      "outputs": [
        {
          "internalType": "uint64",
          "name": "",
          "type": "uint64"
        }
      ],
      "stateMutability": "view",
      "type": "function"
    },
    {
      "inputs": [],
      "name": "matic",
      "outputs": [
        {
          "internalType": "contract IERC20Upgradeable",
          "name": "",
          "type": "address"
        }
      ],
      "stateMutability": "view",
      "type": "function"
    },
    {
      "inputs": [],
      "name": "multiplierBatchFee",
      "outputs": [
        {
          "internalType": "uint16",
          "name": "",
          "type": "uint16"
        }
      ],
      "stateMutability": "view",
      "type": "function"
    },
    {
      "inputs": [],
      "name": "networkName",
      "outputs": [
        {
          "internalType": "string",
          "name": "",
          "type": "string"
        }
      ],
      "stateMutability": "view",
      "type": "function"
    },
    {
      "inputs": [
        {
          "internalType": "uint64",
          "name": "initPendingStateNum",
          "type": "uint64"
        },
        {
          "internalType": "uint64",
          "name": "finalPendingStateNum",
          "type": "uint64"
        },
        {
          "internalType": "uint64",
          "name": "initNumBatch",
          "type": "uint64"
        },
        {
          "internalType": "uint64",
          "name": "finalNewBatch",
          "type": "uint64"
        },
        {
          "internalType": "bytes32",
          "name": "newLocalExitRoot",
          "type": "bytes32"
        },
        {
          "internalType": "bytes32",
          "name": "newStateRoot",
          "type": "bytes32"
        },
        {
          "internalType": "uint256[2]",
          "name": "proofA",
          "type": "uint256[2]"
        },
        {
          "internalType": "uint256[2][2]",
          "name": "proofB",
          "type": "uint256[2][2]"
        },
        {
          "internalType": "uint256[2]",
          "name": "proofC",
          "type": "uint256[2]"
        }
      ],
      "name": "overridePendingState",
      "outputs": [],
      "stateMutability": "nonpayable",
      "type": "function"
    },
    {
      "inputs": [],
      "name": "owner",
      "outputs": [
        {
          "internalType": "address",
          "name": "",
          "type": "address"
        }
      ],
      "stateMutability": "view",
      "type": "function"
    },
    {
      "inputs": [],
      "name": "pendingStateTimeout",
      "outputs": [
        {
          "internalType": "uint64",
          "name": "",
          "type": "uint64"
        }
      ],
      "stateMutability": "view",
      "type": "function"
    },
    {
      "inputs": [
        {
          "internalType": "uint256",
          "name": "",
          "type": "uint256"
        }
      ],
      "name": "pendingStateTransitions",
      "outputs": [
        {
          "internalType": "uint64",
          "name": "timestamp",
          "type": "uint64"
        },
        {
          "internalType": "uint64",
          "name": "lastVerifiedBatch",
          "type": "uint64"
        },
        {
          "internalType": "bytes32",
          "name": "exitRoot",
          "type": "bytes32"
        },
        {
          "internalType": "bytes32",
          "name": "stateRoot",
          "type": "bytes32"
        }
      ],
      "stateMutability": "view",
      "type": "function"
    },
    {
      "inputs": [
        {
          "internalType": "uint64",
          "name": "initPendingStateNum",
          "type": "uint64"
        },
        {
          "internalType": "uint64",
          "name": "finalPendingStateNum",
          "type": "uint64"
        },
        {
          "internalType": "uint64",
          "name": "initNumBatch",
          "type": "uint64"
        },
        {
          "internalType": "uint64",
          "name": "finalNewBatch",
          "type": "uint64"
        },
        {
          "internalType": "bytes32",
          "name": "newLocalExitRoot",
          "type": "bytes32"
        },
        {
          "internalType": "bytes32",
          "name": "newStateRoot",
          "type": "bytes32"
        },
        {
          "internalType": "uint256[2]",
          "name": "proofA",
          "type": "uint256[2]"
        },
        {
          "internalType": "uint256[2][2]",
          "name": "proofB",
          "type": "uint256[2][2]"
        },
        {
          "internalType": "uint256[2]",
          "name": "proofC",
          "type": "uint256[2]"
        }
      ],
      "name": "proveNonDeterministicPendingState",
      "outputs": [],
      "stateMutability": "nonpayable",
      "type": "function"
    },
    {
      "inputs": [],
      "name": "renounceOwnership",
      "outputs": [],
      "stateMutability": "nonpayable",
      "type": "function"
    },
    {
      "inputs": [],
      "name": "rollupVerifier",
      "outputs": [
        {
          "internalType": "contract IVerifierRollup",
          "name": "",
          "type": "address"
        }
      ],
      "stateMutability": "view",
      "type": "function"
    },
    {
      "inputs": [
        {
          "components": [
            {
              "internalType": "bytes",
              "name": "transactions",
              "type": "bytes"
            },
            {
              "internalType": "bytes32",
              "name": "globalExitRoot",
              "type": "bytes32"
            },
            {
              "internalType": "uint64",
              "name": "timestamp",
              "type": "uint64"
            },
            {
              "internalType": "uint64",
              "name": "minForcedTimestamp",
              "type": "uint64"
            }
          ],
          "internalType": "struct PolygonZkEVM.BatchData[]",
          "name": "batches",
          "type": "tuple[]"
        }
      ],
      "name": "sequenceBatches",
      "outputs": [],
      "stateMutability": "nonpayable",
      "type": "function"
    },
    {
      "inputs": [
        {
          "components": [
            {
              "internalType": "bytes",
              "name": "transactions",
              "type": "bytes"
            },
            {
              "internalType": "bytes32",
              "name": "globalExitRoot",
              "type": "bytes32"
            },
            {
              "internalType": "uint64",
              "name": "minForcedTimestamp",
              "type": "uint64"
            }
          ],
          "internalType": "struct PolygonZkEVM.ForcedBatchData[]",
          "name": "batches",
          "type": "tuple[]"
        }
      ],
      "name": "sequenceForceBatches",
      "outputs": [],
      "stateMutability": "nonpayable",
      "type": "function"
    },
    {
      "inputs": [
        {
          "internalType": "uint64",
          "name": "",
          "type": "uint64"
        }
      ],
      "name": "sequencedBatches",
      "outputs": [
        {
          "internalType": "bytes32",
          "name": "accInputHash",
          "type": "bytes32"
        },
        {
          "internalType": "uint64",
          "name": "sequencedTimestamp",
          "type": "uint64"
        },
        {
          "internalType": "uint64",
          "name": "previousLastBatchSequenced",
          "type": "uint64"
        }
      ],
      "stateMutability": "view",
      "type": "function"
    },
    {
      "inputs": [
        {
          "internalType": "address",
          "name": "newAdmin",
          "type": "address"
        }
      ],
      "name": "setAdmin",
      "outputs": [],
      "stateMutability": "nonpayable",
      "type": "function"
    },
    {
      "inputs": [
        {
          "internalType": "bool",
          "name": "newForceBatchAllowed",
          "type": "bool"
        }
      ],
      "name": "setForceBatchAllowed",
      "outputs": [],
      "stateMutability": "nonpayable",
      "type": "function"
    },
    {
      "inputs": [
        {
          "internalType": "uint16",
          "name": "newMultiplierBatchFee",
          "type": "uint16"
        }
      ],
      "name": "setMultiplierBatchFee",
      "outputs": [],
      "stateMutability": "nonpayable",
      "type": "function"
    },
    {
      "inputs": [
        {
          "internalType": "string",
          "name": "_networkName",
          "type": "string"
        }
      ],
      "name": "setNetworkName",
      "outputs": [],
      "stateMutability": "nonpayable",
      "type": "function"
    },
    {
      "inputs": [
        {
          "internalType": "uint64",
          "name": "newPendingStateTimeout",
          "type": "uint64"
        }
      ],
      "name": "setPendingStateTimeout",
      "outputs": [],
      "stateMutability": "nonpayable",
      "type": "function"
    },
    {
      "inputs": [
        {
          "internalType": "uint64",
          "name": "_numBatch",
          "type": "uint64"
        }
      ],
      "name": "setSequencedBatch",
      "outputs": [],
      "stateMutability": "nonpayable",
      "type": "function"
    },
    {
      "inputs": [
        {
          "internalType": "uint64",
          "name": "batchNum",
          "type": "uint64"
        },
        {
          "internalType": "bytes32",
          "name": "accInputData",
          "type": "bytes32"
        },
        {
          "internalType": "uint64",
          "name": "timestamp",
          "type": "uint64"
        },
        {
          "internalType": "uint64",
          "name": "lastPendingStateConsolidated",
          "type": "uint64"
        }
      ],
      "name": "setSequencedBatches",
      "outputs": [],
      "stateMutability": "nonpayable",
      "type": "function"
    },
    {
      "inputs": [
        {
          "internalType": "bytes32",
          "name": "newStateRoot",
          "type": "bytes32"
        },
        {
          "internalType": "uint64",
          "name": "batchNum",
          "type": "uint64"
        }
      ],
      "name": "setStateRoot",
      "outputs": [],
      "stateMutability": "nonpayable",
      "type": "function"
    },
    {
      "inputs": [
        {
          "internalType": "address",
          "name": "newTrustedAggregator",
          "type": "address"
        }
      ],
      "name": "setTrustedAggregator",
      "outputs": [],
      "stateMutability": "nonpayable",
      "type": "function"
    },
    {
      "inputs": [
        {
          "internalType": "uint64",
          "name": "newTrustedAggregatorTimeout",
          "type": "uint64"
        }
      ],
      "name": "setTrustedAggregatorTimeout",
      "outputs": [],
      "stateMutability": "nonpayable",
      "type": "function"
    },
    {
      "inputs": [
        {
          "internalType": "address",
          "name": "newTrustedSequencer",
          "type": "address"
        }
      ],
      "name": "setTrustedSequencer",
      "outputs": [],
      "stateMutability": "nonpayable",
      "type": "function"
    },
    {
      "inputs": [
        {
          "internalType": "string",
          "name": "newTrustedSequencerURL",
          "type": "string"
        }
      ],
      "name": "setTrustedSequencerURL",
      "outputs": [],
      "stateMutability": "nonpayable",
      "type": "function"
    },
    {
      "inputs": [
        {
          "internalType": "uint64",
          "name": "_numBatch",
          "type": "uint64"
        }
      ],
      "name": "setVerifiedBatch",
      "outputs": [],
      "stateMutability": "nonpayable",
      "type": "function"
    },
    {
      "inputs": [
        {
          "internalType": "contract IVerifierRollup",
          "name": "_rollupVerifier",
          "type": "address"
        }
      ],
      "name": "setVerifier",
      "outputs": [],
      "stateMutability": "nonpayable",
      "type": "function"
    },
    {
      "inputs": [
        {
          "internalType": "uint64",
          "name": "newVeryBatchTimeTarget",
          "type": "uint64"
        }
      ],
      "name": "setVeryBatchTimeTarget",
      "outputs": [],
      "stateMutability": "nonpayable",
      "type": "function"
    },
    {
      "inputs": [
        {
          "internalType": "address",
          "name": "newOwner",
          "type": "address"
        }
      ],
      "name": "transferOwnership",
      "outputs": [],
      "stateMutability": "nonpayable",
      "type": "function"
    },
    {
      "inputs": [],
      "name": "trustedAggregator",
      "outputs": [
        {
          "internalType": "address",
          "name": "",
          "type": "address"
        }
      ],
      "stateMutability": "view",
      "type": "function"
    },
    {
      "inputs": [],
      "name": "trustedAggregatorTimeout",
      "outputs": [
        {
          "internalType": "uint64",
          "name": "",
          "type": "uint64"
        }
      ],
      "stateMutability": "view",
      "type": "function"
    },
    {
      "inputs": [],
      "name": "trustedSequencer",
      "outputs": [
        {
          "internalType": "address",
          "name": "",
          "type": "address"
        }
      ],
      "stateMutability": "view",
      "type": "function"
    },
    {
      "inputs": [],
      "name": "trustedSequencerURL",
      "outputs": [
        {
          "internalType": "string",
          "name": "",
          "type": "string"
        }
      ],
      "stateMutability": "view",
      "type": "function"
    },
    {
      "inputs": [
        {
          "internalType": "uint64",
          "name": "pendingStateNum",
          "type": "uint64"
        },
        {
          "internalType": "uint64",
          "name": "initNumBatch",
          "type": "uint64"
        },
        {
          "internalType": "uint64",
          "name": "finalNewBatch",
          "type": "uint64"
        },
        {
          "internalType": "bytes32",
          "name": "newLocalExitRoot",
          "type": "bytes32"
        },
        {
          "internalType": "bytes32",
          "name": "newStateRoot",
          "type": "bytes32"
        },
        {
          "internalType": "uint256[2]",
          "name": "proofA",
          "type": "uint256[2]"
        },
        {
          "internalType": "uint256[2][2]",
          "name": "proofB",
          "type": "uint256[2][2]"
        },
        {
          "internalType": "uint256[2]",
          "name": "proofC",
          "type": "uint256[2]"
        }
      ],
      "name": "trustedVerifyBatches",
      "outputs": [],
      "stateMutability": "nonpayable",
      "type": "function"
    },
    {
      "inputs": [
        {
          "internalType": "uint64",
          "name": "pendingStateNum",
          "type": "uint64"
        },
        {
          "internalType": "uint64",
          "name": "initNumBatch",
          "type": "uint64"
        },
        {
          "internalType": "uint64",
          "name": "finalNewBatch",
          "type": "uint64"
        },
        {
          "internalType": "bytes32",
          "name": "newLocalExitRoot",
          "type": "bytes32"
        },
        {
          "internalType": "bytes32",
          "name": "newStateRoot",
          "type": "bytes32"
        },
        {
          "internalType": "uint256[2]",
          "name": "proofA",
          "type": "uint256[2]"
        },
        {
          "internalType": "uint256[2][2]",
          "name": "proofB",
          "type": "uint256[2][2]"
        },
        {
          "internalType": "uint256[2]",
          "name": "proofC",
          "type": "uint256[2]"
        }
      ],
      "name": "trustedVerifyBatchesMock",
      "outputs": [],
      "stateMutability": "nonpayable",
      "type": "function"
    },
    {
      "inputs": [
        {
          "internalType": "uint64",
          "name": "newLastVerifiedBatch",
          "type": "uint64"
        }
      ],
      "name": "updateBatchFee",
      "outputs": [],
      "stateMutability": "nonpayable",
      "type": "function"
    },
    {
      "inputs": [
        {
          "internalType": "uint64",
          "name": "pendingStateNum",
          "type": "uint64"
        },
        {
          "internalType": "uint64",
          "name": "initNumBatch",
          "type": "uint64"
        },
        {
          "internalType": "uint64",
          "name": "finalNewBatch",
          "type": "uint64"
        },
        {
          "internalType": "bytes32",
          "name": "newLocalExitRoot",
          "type": "bytes32"
        },
        {
          "internalType": "bytes32",
          "name": "newStateRoot",
          "type": "bytes32"
        },
        {
          "internalType": "uint256[2]",
          "name": "proofA",
          "type": "uint256[2]"
        },
        {
          "internalType": "uint256[2][2]",
          "name": "proofB",
          "type": "uint256[2][2]"
        },
        {
          "internalType": "uint256[2]",
          "name": "proofC",
          "type": "uint256[2]"
        }
      ],
      "name": "verifyBatches",
      "outputs": [],
      "stateMutability": "nonpayable",
      "type": "function"
    },
    {
      "inputs": [],
      "name": "veryBatchTimeTarget",
      "outputs": [
        {
          "internalType": "uint64",
          "name": "",
          "type": "uint64"
        }
      ],
      "stateMutability": "view",
      "type": "function"
    }
  ],
  "bytecode": "0x608060405234801561001057600080fd5b50615f9980620000216000396000f3fe608060405234801561001057600080fd5b506004361061039d5760003560e01c806396dc3d39116101eb578063cfa8ed4711610110578063e7a7ed02116100a8578063e7a7ed0214610923578063e8bf92ed1461093d578063eaeb077b14610950578063edc4112114610963578063f14916d614610976578063f2fde38b14610989578063f851a4401461099c578063f8b823e4146109af578063fe16564f146109b857600080fd5b8063cfa8ed471461087e578063d02103ca14610898578063d8d1091b146108ab578063d8f54db0146108be578063d939b315146108d2578063dbc16976146108ec578063e0d17441146108f4578063e11f3f1814610907578063e217cfd61461091a57600080fd5b8063adc879e911610183578063adc879e91461076e578063afd23cbe14610788578063b4d63f58146107b0578063b4f77ea914610810578063b6b0b09714610823578063c0cad3021461083d578063c0ed84e014610850578063c89e42df14610858578063cf1363061461086b57600080fd5b806396dc3d39146106e857806399f5634e146106fb5780639b796760146107035780639c9f3dfe146107165780639eb831b9146107295780639f0d039d14610731578063a3c573eb14610739578063aa58bad61461074c578063ab9fc5ef1461076457600080fd5b80634a910e6a116102d1578063715018a611610269578063715018a6146105f15780637215541a146105f957806375c508b31461060c5780637fcb36531461061f578063837a473814610632578063841b24d7146106a05780638b48931e146106ba5780638c4a0af7146106c45780638da5cb5b146106d757600080fd5b80634a910e6a146105375780635392c5e01461054a578063542028d51461056a5780635437988d14610572578063574f649e1461058557806360943d6a146105985780636b8616ce146105ab5780636ff512cc146105cb578063704b6c02146105de57600080fd5b80632d0889d3116103445780632d0889d314610480578063383b3be81461048a578063394218e91461049d5780633c158267146104b0578063423fa856146104c357806345605267146104dd578063458c0477146104f75780634834a3431461050a5780634a1a89a71461051d57600080fd5b80630eaa86ea146103a2578063107bf28c146103c857806310a01a72146103dd57806315064c96146103f25780631816b7e51461040f57806319d8ac6114610422578063220d78991461044d5780632987898314610460575b600080fd5b6103b56103b0366004614d71565b6109cb565b6040519081526020015b60405180910390f35b6103d0610b9a565b6040516103bf9190614e1e565b6103f06103eb366004614e60565b610c28565b005b6065546103ff9060ff1681565b60405190151581526020016103bf565b6103f061041d366004614eed565b610e71565b606854610435906001600160401b031681565b6040516001600160401b0390911681526020016103bf565b6103d061045b366004614f11565b610f92565b606a54610473906001600160a01b031681565b6040516103bf9190614f5e565b6103b5620493e081565b6103ff610498366004614f72565b611133565b6103f06104ab366004614f72565b61117a565b6103f06104be366004614fd8565b611336565b60685461043590600160401b90046001600160401b031681565b60685461043590600160801b90046001600160401b031681565b607254610435906001600160401b031681565b6103f0610518366004614e60565b611b09565b60725461043590600160401b90046001600160401b031681565b6103f0610545366004614f72565b611e51565b6103b5610558366004614f72565b606d6020526000908152604090205481565b6103d0611f07565b6103f061058036600461502e565b611f14565b6103b56105933660046150ed565b611f3e565b6103f06105a6366004615162565b611f81565b6103b56105b9366004614f72565b60666020526000908152604090205481565b6103f06105d936600461502e565b612355565b6103f06105ec36600461502e565b6123d3565b6103f0612448565b6103f0610607366004614f72565b61245c565b6103f061061a366004615239565b612663565b606954610435906001600160401b031681565b6106756106403660046152d7565b6071602052600090815260409020805460018201546002909201546001600160401b0380831693600160401b90930416919084565b604080516001600160401b0395861681529490931660208501529183015260608201526080016103bf565b60725461043590600160c01b90046001600160401b031681565b61043562093a8081565b6103f06106d23660046152fe565b6126f2565b6033546001600160a01b0316610473565b6103f06106f6366004614f72565b612769565b6103b5612793565b6103f0610711366004614f72565b61287b565b6103f0610724366004614f72565b6128b0565b6103b5600c81565b6074546103b5565b607054610473906001600160a01b031681565b6065546104359061010090046001600160401b031681565b6104356206978081565b606c5461043590600160a81b90046001600160401b031681565b60655461079d90600160481b900461ffff1681565b60405161ffff90911681526020016103bf565b6107eb6107be366004614f72565b606760205260009081526040902080546001909101546001600160401b0380821691600160401b90041683565b604080519384526001600160401b0392831660208501529116908201526060016103bf565b6103f061081e366004614f72565b612a5e565b60655461047390600160581b90046001600160a01b031681565b6103f061084b36600461531b565b612a6f565b610435612a87565b6103f061086636600461531b565b612ad4565b6103f0610879366004614f72565b612b3a565b60695461047390600160401b90046001600160a01b031681565b606c54610473906001600160a01b031681565b6103f06108b9366004614fd8565b612bbb565b606c546103ff90600160a01b900460ff1681565b60725461043590600160801b90046001600160401b031681565b6103f0613086565b6103f061090236600461534f565b613120565b6103f0610915366004615239565b613192565b6104356103e881565b60685461043590600160c01b90046001600160401b031681565b606b54610473906001600160a01b031681565b6103f061095e36600461539c565b6132d6565b6103f0610971366004614e60565b61360e565b6103f061098436600461502e565b61372d565b6103f061099736600461502e565b6137a2565b607354610473906001600160a01b031681565b6103b560745481565b6103f06109c6366004615413565b613818565b60008060006109d8612a87565b90506001600160401b03881615610a75576072546001600160401b039081169089161115610a215760405162461bcd60e51b8152600401610a189061543f565b60405180910390fd5b6001600160401b038089166000908152607160205260409020600281015481549094509091898116600160401b9092041614610a6f5760405162461bcd60e51b8152600401610a18906154bd565b50610adf565b6001600160401b0387166000908152606d6020526040902054915081610aad5760405162461bcd60e51b8152600401610a189061551d565b806001600160401b0316876001600160401b03161115610adf5760405162461bcd60e51b8152600401610a1890615574565b806001600160401b0316866001600160401b031611610b105760405162461bcd60e51b8152600401610a18906155e5565b6000610b1f8888888689610f92565b90506000600080516020615f24833981519152600283604051610b429190615662565b602060405180830381855afa158015610b5f573d6000803e3d6000fd5b5050506040513d601f19601f82011682018060405250810190610b82919061567e565b610b8c91906156ad565b9a9950505050505050505050565b606f8054610ba7906156c1565b80601f0160208091040260200160405190810160405280929190818152602001828054610bd3906156c1565b8015610c205780601f10610bf557610100808354040283529160200191610c20565b820191906000526020600020905b815481529060010190602001808311610c0357829003601f168201915b505050505081565b610c3061383a565b600080610c3b612a87565b90506001600160401b038a1615610ccf576072546001600160401b03908116908b161115610c7b5760405162461bcd60e51b8152600401610a189061543f565b6001600160401b03808b1660009081526071602052604090206002810154815490945090918b8116600160401b9092041614610cc95760405162461bcd60e51b8152600401610a18906154bd565b50610d39565b6001600160401b0389166000908152606d6020526040902054915081610d075760405162461bcd60e51b8152600401610a189061551d565b806001600160401b0316896001600160401b03161115610d395760405162461bcd60e51b8152600401610a1890615574565b806001600160401b0316886001600160401b031611610d6a5760405162461bcd60e51b8152600401610a18906155e5565b6000610d798a8a8a868b610f92565b606980546001600160401b0319166001600160401b038c81169182179092556000908152606d602052604090208990556072549192501615610dc657607280546001600160801b03191690555b606c546040516333d6247d60e01b8152600481018a90526001600160a01b03909116906333d6247d90602401600060405180830381600087803b158015610e0c57600080fd5b505af1158015610e20573d6000803e3d6000fd5b50506040518981523392506001600160401b038c1691507f0c0ce073a7d7b5850c04ccc4b20ee7d3179d5f57d0ac44399565792c0f72fce79060200160405180910390a35050505050505050505050565b6073546001600160a01b03163314610e9b5760405162461bcd60e51b8152600401610a18906156fb565b6103e88161ffff1610158015610eb657506104008161ffff16105b610f3b5760405162461bcd60e51b815260206004820152604a60248201527f506f6c79676f6e5a6b45564d3a3a7365744d756c7469706c696572426174636860448201527f4665653a206e65774d756c7469706c696572426174636846656520696e636f72606482015269726563742072616e676560b01b608482015260a401610a18565b6065805461ffff60481b1916600160481b61ffff8416908102919091179091556040519081527f7019933d795eba185c180209e8ae8bffbaa25bcef293364687702c31f4d302c5906020015b60405180910390a150565b6001600160401b03808616600081815260676020526040808220549388168252902054606092911580610fc457508115155b611038576040805162461bcd60e51b81526020600482015260248101919091527f506f6c79676f6e5a6b45564d3a3a676574496e707574536e61726b427974657360448201527f3a206f6c64416363496e7075744861736820646f6573206e6f742065786973746064820152608401610a18565b806110ad576040805162461bcd60e51b81526020600482015260248101919091527f506f6c79676f6e5a6b45564d3a3a676574496e707574536e61726b427974657360448201527f3a206e6577416363496e7075744861736820646f6573206e6f742065786973746064820152608401610a18565b606c54604080516001600160601b03193360601b166020820152603481019790975260548701939093526001600160c01b031960c0998a1b81166074880152600160a81b909104891b8116607c870152608486019490945260a485015260c4840194909452509290931b90911660e4830152805180830360cc01815260ec909201905290565b6072546001600160401b038281166000908152607160205260408120549092429261116992600160801b90920481169116615754565b6001600160401b0316111592915050565b6073546001600160a01b031633146111a45760405162461bcd60e51b8152600401610a18906156fb565b62093a806001600160401b038216111561123d5760405162461bcd60e51b815260206004820152604e60248201527f506f6c79676f6e5a6b45564d3a3a73657454727573746564416767726567617460448201527f6f7254696d656f75743a20457863656564206d61782068616c7420616767726560648201526d19d85d1a5bdb881d1a5b595bdd5d60921b608482015260a401610a18565b60655460ff166112e0576072546001600160401b03600160c01b9091048116908216106112e05760405162461bcd60e51b8152602060048201526044602482018190527f506f6c79676f6e5a6b45564d3a3a736574547275737465644167677265676174908201527f6f7254696d656f75743a204e65772074696d656f7574206d757374206265206c60648201526337bbb2b960e11b608482015260a401610a18565b607280546001600160c01b0316600160c01b6001600160401b038416908102919091179091556040519081527f1f4fa24c2e4bad19a7f3ec5c5485f70d46c798461c2e684f55bbd0fc661373a190602001610f87565b60655460ff16156113595760405162461bcd60e51b8152600401610a189061577f565b606954600160401b90046001600160a01b031633146113e05760405162461bcd60e51b815260206004820152603a60248201527f506f6c79676f6e5a6b45564d3a3a6f6e6c795472757374656453657175656e6360448201527f65723a204f6e6c7920747275737465642073657175656e6365720000000000006064820152608401610a18565b80806114545760405162461bcd60e51b815260206004820152603d60248201527f506f6c79676f6e5a6b45564d3a3a73657175656e6365426174636865733a204160448201527f74206c65617374206d7573742073657175656e636520312062617463680000006064820152608401610a18565b6103e881106114cd576040805162461bcd60e51b81526020600482015260248101919091527f506f6c79676f6e5a6b45564d3a3a73657175656e6365426174636865733a204360448201527f616e6e6f742073657175656e63652074686174206d616e7920626174636865736064820152608401610a18565b6068546001600160401b03600160401b82048116600081815260676020526040812054838516949293600160801b90930490921691905b8581101561193e576000888883818110611520576115206157e7565b905060200281019061153291906157fd565b61153b90615813565b805180516020909101206060820151919250906001600160401b0316156116c157846115668161589f565b95505060008183602001518460600151604051602001611588939291906158c5565b60408051601f1981840301815291815281516020928301206001600160401b03891660009081526066909352912054909150811461161c5760405162461bcd60e51b815260206004820152603d6024820152600080516020615f4483398151915260448201527f6f7263656420626174636865732064617461206d757374206d617463680000006064820152608401610a18565b82606001516001600160401b031683604001516001600160401b031610156116bb5760405162461bcd60e51b81526020600482015260586024820152600080516020615f4483398151915260448201527f6f7263656420626174636865732074696d657374616d70206d757374206265206064820152773134b3b3b2b91037b91032b8bab0b6103a3430b71036b4b760411b608482015260a401610a18565b50611836565b6020820151158061174a5750606c5460208301516040516312bd9b1960e11b81526001600160a01b039092169163257b3632916117049160040190815260200190565b6020604051808303816000875af1158015611723573d6000803e3d6000fd5b505050506040513d601f19601f82011682018060405250810190611747919061567e565b15155b6117bc5760405162461bcd60e51b815260206004820152603a60248201527f506f6c79676f6e5a6b45564d3a3a73657175656e6365426174636865733a204760448201527f6c6f62616c206578697420726f6f74206d7573742065786973740000000000006064820152608401610a18565b815151620493e0116118365760405162461bcd60e51b815260206004820152603a60248201527f506f6c79676f6e5a6b45564d3a3a73657175656e6365426174636865733a205460448201527f72616e73616374696f6e73206279746573206f766572666c6f770000000000006064820152608401610a18565b866001600160401b031682604001516001600160401b03161015801561186957504282604001516001600160401b031611155b6118db5760405162461bcd60e51b815260206004820152603d60248201527f506f6c79676f6e5a6b45564d3a3a73657175656e6365426174636865733a205460448201527f696d657374616d70206d75737420626520696e736964652072616e67650000006064820152608401610a18565b838183602001518460400151336040516020016118fc9594939291906158e8565b604051602081830303815290604052805190602001209350858061191f9061589f565b965050816040015196505050808061193690615927565b915050611504565b506068546001600160401b03600160c01b909104811690831611156119b15760405162461bcd60e51b81526020600482015260356024820152600080516020615f448339815191526044820152746f7263652062617463686573206f766572666c6f7760581b6064820152608401610a18565b6068546000906119d190600160801b90046001600160401b031684615940565b6119e4906001600160401b031687615968565b60408051606081018252848152426001600160401b03908116602080840191825260688054600160401b9081900485168688019081528c861660008181526067909552979093209551865592516001909501805492519585166001600160801b03199384161795851684029590951790945583548b841691161793029290921767ffffffffffffffff60801b1916600160801b92871692909202919091179055607454909150611ab990339030908490611a9e919061597f565b606554600160581b90046001600160a01b0316929190613894565b611ac1613905565b606854604051600160401b9091046001600160401b0316907f303446e6a8cb73c83dff421c0b1d5e5ce0719dab1bff13660fc254e58cc17fce90600090a25050505050505050565b60655460ff1615611b2c5760405162461bcd60e51b8152600401610a189061577f565b6072546001600160401b038781166000908152606760205260409020600101544292611b6392600160c01b90910481169116615754565b6001600160401b03161115611bec5760405162461bcd60e51b815260206004820152604360248201527f506f6c79676f6e5a6b45564d3a3a766572696679426174636865733a2054727560448201527f737465642061676772656761746f722074696d656f7574206e6f7420657870696064820152621c995960ea1b608482015260a401610a18565b6103e8611bf98888615940565b6001600160401b031610611c755760405162461bcd60e51b815260206004820152603c60248201527f506f6c79676f6e5a6b45564d3a3a766572696679426174636865733a2043616e60448201527f6e6f74207665726966792074686174206d616e792062617463686573000000006064820152608401610a18565b611c8588888888888888886139a5565b611c8e86613e96565b607254600160801b90046001600160401b0316600003611d5557606980546001600160401b0319166001600160401b038881169182179092556000908152606d602052604090208590556072541615611cf257607280546001600160801b03191690555b606c546040516333d6247d60e01b8152600481018790526001600160a01b03909116906333d6247d90602401600060405180830381600087803b158015611d3857600080fd5b505af1158015611d4c573d6000803e3d6000fd5b50505050611e06565b611d5d613905565b607280546001600160401b0316906000611d768361589f565b82546001600160401b039182166101009390930a92830292820219169190911790915560408051608081018252428316815289831660208083019182528284018b8152606084018b8152607254871660009081526071909352949091209251835492518616600160401b026001600160801b03199093169516949094171781559151600183015551600290910155505b60405184815233906001600160401b038816907f9c72852172521097ba7e1482e6b44b351323df0155f97f4ea18fcec28e1f5966906020015b60405180910390a35050505050505050565b606a546001600160a01b03163314611efb57611e6c81611133565b611efb5760405162461bcd60e51b815260206004820152605460248201527f506f6c79676f6e5a6b45564d3a3a636f6e736f6c696461746550656e64696e6760448201527f53746174653a2050656e64696e67207374617465206973206e6f7420726561646064820152731e481d1bc818994818dbdb9cdbdb1a59185d195960621b608482015260a401610a18565b611f048161407c565b50565b606e8054610ba7906156c1565b611f1c61383a565b606b80546001600160a01b0319166001600160a01b0392909216919091179055565b6000858580519060200120858585604051602001611f609594939291906158e8565b60405160208183030381529060405280519060200120905095945050505050565b600054610100900460ff1615808015611fa15750600054600160ff909116105b80611fbb5750303b158015611fbb575060005460ff166001145b61201e5760405162461bcd60e51b815260206004820152602e60248201527f496e697469616c697a61626c653a20636f6e747261637420697320616c72656160448201526d191e481a5b9a5d1a585b1a5e995960921b6064820152608401610a18565b6000805460ff191660011790558015612041576000805461ff0019166101001790555b606c80546001600160a01b03199081166001600160a01b038c81169190911790925560658054600160581b600160f81b031916600160581b8c851602179055606b805482168a8416179055607080549091169188169190911790556120a9602086018661502e565b607380546001600160a01b0319166001600160a01b03929092169190911790556120d9606086016040870161502e565b606980546001600160a01b0392909216600160401b02600160401b600160e01b031990921691909117905561211460c0860160a0870161502e565b606a80546001600160a01b0319166001600160a01b039290921691909117905560008052606d60209081527fda90043ba5b4096ba14704bc227ab0d3167da15b887e62ab2e76e37daa7113568590556121739060408701908701614f72565b606c80546001600160401b0392909216600160a81b0267ffffffffffffffff60a81b199092169190911790556121af60a08601608087016152fe565b606c8054911515600160a01b0260ff60a01b19909216919091179055606e6121d784826159e4565b50606f6121e483826159e4565b5062093a806121f96080870160608801614f72565b6001600160401b031611156122205760405162461bcd60e51b8152600401610a1890615aa3565b6122306080860160608701614f72565b607280546001600160401b0392909216600160801b0267ffffffffffffffff60801b1990921691909117905562093a8061227060e0870160c08801614f72565b6001600160401b031611156122975760405162461bcd60e51b8152600401610a1890615aa3565b6122a760e0860160c08701614f72565b607280546001600160c01b0316600160c01b6001600160401b039390931692909202919091179055670de0b6b3a7640000607455606580546affffffffffffffffffff0019166a03ea000000000000070800179055612304614260565b801561234a576000805461ff0019169055604051600181527f7f26b83ff96e1f2b6a682f133852f6798a09c465da95921460cefb38474024989060200160405180910390a15b505050505050505050565b6073546001600160a01b0316331461237f5760405162461bcd60e51b8152600401610a18906156fb565b60698054600160401b600160e01b031916600160401b6001600160a01b038416021790556040517ff54144f9611984021529f814a1cb6a41e22c58351510a0d9f7e822618abb9cc090610f87908390614f5e565b6073546001600160a01b031633146123fd5760405162461bcd60e51b8152600401610a18906156fb565b607380546001600160a01b0319166001600160a01b0383161790556040517f5a272403b402d892977df56625f4164ccaf70ca3863991c43ecfe76a6905b0a190610f87908390614f5e565b61245061383a565b61245a60006142d0565b565b6033546001600160a01b0316331461265b576000612478612a87565b9050806001600160401b0316826001600160401b0316116124ef5760405162461bcd60e51b815260206004820152603c6024820152600080516020615ea483398151915260448201527f746174653a20426174636820616c7265616479207665726966696564000000006064820152608401610a18565b6068546001600160401b03600160401b90910481169083161180159061253157506001600160401b038083166000908152606760205260409020600101541615155b6125aa5760405162461bcd60e51b81526020600482015260506024820152600080516020615ea483398151915260448201527f746174653a204261746368206e6f742073657175656e636564206f72206e6f7460648201526f20656e64206f662073657175656e636560801b608482015260a401610a18565b6001600160401b0380831660009081526067602052604090206001015442916125d89162093a809116615754565b6001600160401b031611156126595760405162461bcd60e51b815260206004820152604d6024820152600080516020615ea483398151915260448201527f746174653a204167677265676174696f6e2068616c742074696d656f7574206960648201526c1cc81b9bdd08195e1c1a5c9959609a1b608482015260a401610a18565b505b611f04614322565b60655460ff16156126865760405162461bcd60e51b8152600401610a189061577f565b612697898989898989898989614392565b6001600160401b0386166000908152606d60209081526040918290205482519081529081018690527f1f44c21118c4603cfb4e1b621dbcfa2b73efcececee2b99b620b2953d33a7010910160405180910390a161234a614322565b6073546001600160a01b0316331461271c5760405162461bcd60e51b8152600401610a18906156fb565b606c8054821515600160a01b0260ff60a01b199091161790556040517fbacda50a4a8575be1d91a7ebe29ee45056f3a94f12a2281eb6b43afa33bcefe690610f8790831515815260200190565b61277161383a565b606980546001600160401b0319166001600160401b0392909216919091179055565b6065546040516370a0823160e01b81526000918291600160581b9091046001600160a01b0316906370a08231906127ce903090600401614f5e565b602060405180830381865afa1580156127eb573d6000803e3d6000fd5b505050506040513d601f19601f8201168201806040525081019061280f919061567e565b9050600061281b612a87565b6068546001600160401b03600160401b820481169161284b91600160801b8204811691600160c01b900416615940565b6128559190615754565b61285f9190615940565b6001600160401b031690506128748183615afc565b9250505090565b61288361383a565b606880546001600160401b03909216600160401b0267ffffffffffffffff60401b19909216919091179055565b6073546001600160a01b031633146128da5760405162461bcd60e51b8152600401610a18906156fb565b62093a806001600160401b038216111561296e5760405162461bcd60e51b815260206004820152604960248201527f506f6c79676f6e5a6b45564d3a3a73657450656e64696e67537461746554696d60448201527f656f75743a20457863656564206d61782068616c74206167677265676174696f6064820152681b881d1a5b595bdd5d60ba1b608482015260a401610a18565b60655460ff16612a03576072546001600160401b03600160801b909104811690821610612a035760405162461bcd60e51b815260206004820152603f60248201527f506f6c79676f6e5a6b45564d3a3a73657450656e64696e67537461746554696d60448201527f656f75743a204e65772074696d656f7574206d757374206265206c6f776572006064820152608401610a18565b6072805467ffffffffffffffff60801b1916600160801b6001600160401b038416908102919091179091556040519081527fc4121f4e22c69632ebb7cf1f462be0511dc034f999b52013eddfb24aab765c7590602001610f87565b612a6661383a565b611f0481613e96565b612a7761383a565b606f612a8382826159e4565b5050565b6072546000906001600160401b031615612ac457506072546001600160401b03908116600090815260716020526040902054600160401b90041690565b506069546001600160401b031690565b6073546001600160a01b03163314612afe5760405162461bcd60e51b8152600401610a18906156fb565b606e612b0a82826159e4565b507f6b8f723a4c7a5335cafae8a598a0aa0301be1387c037dccc085b62add6448b2081604051610f879190614e1e565b6073546001600160a01b03163314612b645760405162461bcd60e51b8152600401610a18906156fb565b6065805468ffffffffffffffff0019166101006001600160401b038416908102919091179091556040519081527f03a12f7e53d2a9e31a9e913d85c12c4c38feb92abe003c111329298af088437f90602001610f87565b60655460ff1615612bde5760405162461bcd60e51b8152600401610a189061577f565b606c54600160a01b900460ff161515600114612c0c5760405162461bcd60e51b8152600401610a1890615b10565b8080612c6e5760405162461bcd60e51b815260206004820152603f6024820152600080516020615f0483398151915260448201527f65733a204d75737420666f726365206174206c656173742031206261746368006064820152608401610a18565b6103e88110612cdf5760405162461bcd60e51b81526020600482015260436024820152600080516020615f0483398151915260448201527f65733a2043616e6e6f74207665726966792074686174206d616e79206261746360648201526268657360e81b608482015260a401610a18565b6068546001600160401b03600160c01b8204811691612d07918491600160801b900416615b79565b1115612d635760405162461bcd60e51b81526020600482015260376024820152600080516020615f04833981519152604482015276195cce88119bdc98d94818985d18da081a5b9d985b1a59604a1b6064820152608401610a18565b6068546001600160401b03600160401b820481166000818152606760205260408120549193600160801b9004909216915b84811015612f9d576000878783818110612db057612db06157e7565b9050602002810190612dc29190615b91565b612dcb90615ba7565b905083612dd78161589f565b82518051602091820120818501516040808701519051949950919450600093612e0393869391016158c5565b60408051601f1981840301815291815281516020928301206001600160401b038916600090815260669093529120549091508114612ea25760405162461bcd60e51b81526020600482015260426024820152600080516020615f0483398151915260448201527f65733a20466f7263656420626174636865732064617461206d757374206d61746064820152610c6d60f31b608482015260a401610a18565b612ead600189615968565b8403612f445742620697808460400151612ec79190615754565b6001600160401b03161115612f445760405162461bcd60e51b81526020600482015260496024820152600080516020615f0483398151915260448201527f65733a20466f72636564206261746368206973206e6f7420696e2074696d656f6064820152681d5d081c195c9a5bd960ba1b608482015260a401610a18565b848284602001514233604051602001612f619594939291906158e8565b6040516020818303038152906040528051906020012094508680612f849061589f565b9750505050508080612f9590615927565b915050612d94565b50606880546001600160401b031916426001600160401b03908116918217808455604080516060810182528681526020808201958652600160401b9384900485168284019081528a861660008181526067909352848320935184559651600193909301805491519387166001600160801b0319909216919091179286168502929092179091558554600160401b600160c01b03191694830267ffffffffffffffff60801b191694909417600160801b88851602179485905551930416917f648a61dd2438f072f5a1960939abd30f37aea80d2e94c9792ad142d3e0a490a49190a2505050505050565b6073546001600160a01b031633146130b05760405162461bcd60e51b8152600401610a18906156fb565b607060009054906101000a90046001600160a01b03166001600160a01b031663dbc169766040518163ffffffff1660e01b8152600401600060405180830381600087803b15801561310057600080fd5b505af1158015613114573d6000803e3d6000fd5b5050505061245a6149b6565b61312861383a565b604080516060810182529384526001600160401b03928316602080860191825292841685830190815295841660009081526067909352912092518355516001909201805493518216600160401b026001600160801b03199094169290911691909117919091179055565b606a546001600160a01b031633146131bc5760405162461bcd60e51b8152600401610a1890615c22565b6131cd898989898989898989614392565b606980546001600160401b0319166001600160401b038881169182179092556000908152606d60205260409020859055607254161561321757607280546001600160801b03191690555b606c546040516333d6247d60e01b8152600481018790526001600160a01b03909116906333d6247d90602401600060405180830381600087803b15801561325d57600080fd5b505af1158015613271573d6000803e3d6000fd5b5050607280546001600160c01b031661127560c71b179055505060405184815233906001600160401b038816907fcc1b5520188bf1dd3e63f98164b577c4d75c11a619ddea692112f0d1aec4cf729060200160405180910390a3505050505050505050565b60655460ff16156132f95760405162461bcd60e51b8152600401610a189061577f565b606c54600160a01b900460ff1615156001146133275760405162461bcd60e51b8152600401610a1890615b10565b600061333260745490565b9050818111156133975760405162461bcd60e51b815260206004820152602a60248201527f506f6c79676f6e5a6b45564d3a3a666f72636542617463683a204e6f7420656e6044820152696f756768206d6174696360b01b6064820152608401610a18565b620493e083106134075760405162461bcd60e51b815260206004820152603560248201527f506f6c79676f6e5a6b45564d3a3a666f72636542617463683a205472616e73616044820152746374696f6e73206279746573206f766572666c6f7760581b6064820152608401610a18565b60655461342690600160581b90046001600160a01b0316333084613894565b606c5460408051633ed691ef60e01b815290516000926001600160a01b031691633ed691ef9160048083019260209291908290030181865afa158015613470573d6000803e3d6000fd5b505050506040513d601f19601f82011682018060405250810190613494919061567e565b60688054919250600160c01b9091046001600160401b03169060186134b88361589f565b91906101000a8154816001600160401b0302191690836001600160401b031602179055505084846040516134ed929190615c7f565b60405190819003812061350691839042906020016158c5565b60408051808303601f190181529181528151602092830120606854600160c01b90046001600160401b0316600090815260669093529120553233036135aa57606854604080518381523360208201526060918101829052600091810191909152600160c01b9091046001600160401b0316907ff94bb37db835f1ab585ee00041849a09b12cd081d77fa15ca070757619cbc9319060800160405180910390a2613607565b606860189054906101000a90046001600160401b03166001600160401b03167ff94bb37db835f1ab585ee00041849a09b12cd081d77fa15ca070757619cbc931823388886040516135fe9493929190615c8f565b60405180910390a25b5050505050565b606a546001600160a01b031633146136385760405162461bcd60e51b8152600401610a1890615c22565b61364888888888888888886139a5565b606980546001600160401b0319166001600160401b038881169182179092556000908152606d60205260409020859055607254161561369257607280546001600160801b03191690555b606c546040516333d6247d60e01b8152600481018790526001600160a01b03909116906333d6247d90602401600060405180830381600087803b1580156136d857600080fd5b505af11580156136ec573d6000803e3d6000fd5b50506040518681523392506001600160401b03891691507f0c0ce073a7d7b5850c04ccc4b20ee7d3179d5f57d0ac44399565792c0f72fce790602001611e3f565b6073546001600160a01b031633146137575760405162461bcd60e51b8152600401610a18906156fb565b606a80546001600160a01b0319166001600160a01b0383161790556040517f61f8fec29495a3078e9271456f05fb0707fd4e41f7661865f80fc437d06681ca90610f87908390614f5e565b6137aa61383a565b6001600160a01b03811661380f5760405162461bcd60e51b815260206004820152602660248201527f4f776e61626c653a206e6577206f776e657220697320746865207a65726f206160448201526564647265737360d01b6064820152608401610a18565b611f04816142d0565b61382061383a565b6001600160401b03166000908152606d6020526040902055565b6033546001600160a01b0316331461245a5760405162461bcd60e51b815260206004820181905260248201527f4f776e61626c653a2063616c6c6572206973206e6f7420746865206f776e65726044820152606401610a18565b6040516001600160a01b03808516602483015283166044820152606481018290526138ff9085906323b872dd60e01b906084015b60408051601f198184030181529190526020810180516001600160e01b03166001600160e01b031990931692909217909152614a63565b50505050565b6072546001600160401b03600160401b820481169116111561245a5760725460009061394290600160401b90046001600160401b03166001615754565b905061394d81611133565b15611f045760725460009060029061396f9084906001600160401b0316615940565b6139799190615cd6565b6139839083615754565b905061398e81611133565b1561399c57612a838161407c565b612a838261407c565b6000806139b0612a87565b90506001600160401b038a1615613b16576072546001600160401b03908116908b161115613a685760405162461bcd60e51b815260206004820152605960248201527f506f6c79676f6e5a6b45564d3a3a5f766572696679426174636865733a20706560448201527f6e64696e6753746174654e756d206d757374206265206c657373206f7220657160648201527875616c207468616e206c61737450656e64696e67537461746560381b608482015260a401610a18565b6001600160401b03808b1660009081526071602052604090206002810154815490945090918b8116600160401b9092041614613b105760405162461bcd60e51b815260206004820152604d6024820152600080516020615ec483398151915260448201527f69744e756d4261746368206d757374206d61746368207468652070656e64696e60648201526c0ce40e6e8c2e8ca40c4c2e8c6d609b1b608482015260a401610a18565b50613c3c565b6001600160401b0389166000908152606d6020526040902054915081613ba05760405162461bcd60e51b815260206004820152604460248201819052600080516020615ec4833981519152908201527f69744e756d426174636820737461746520726f6f7420646f6573206e6f7420656064820152631e1a5cdd60e21b608482015260a401610a18565b806001600160401b0316896001600160401b03161115613c3c5760405162461bcd60e51b815260206004820152605e6024820152600080516020615ec483398151915260448201527f69744e756d4261746368206d757374206265206c657373206f7220657175616c60648201527f207468616e2063757272656e744c617374566572696669656442617463680000608482015260a401610a18565b806001600160401b0316886001600160401b031611613ce45760405162461bcd60e51b815260206004820152605860248201527f506f6c79676f6e5a6b45564d3a3a5f766572696679426174636865733a20666960448201527f6e616c4e65774261746368206d75737420626520626967676572207468616e206064820152770c6eae4e4cadce898c2e6e8accae4d2ccd2cac884c2e8c6d60431b608482015260a401610a18565b6000613cf38a8a8a868b610f92565b90506000600080516020615f24833981519152600283604051613d169190615662565b602060405180830381855afa158015613d33573d6000803e3d6000fd5b5050506040513d601f19601f82011682018060405250810190613d56919061567e565b613d6091906156ad565b606b546040805160208101825283815290516343753b4d60e01b81529293506001600160a01b03909116916343753b4d91613da4918b918b918b9190600401615cfc565b602060405180830381865afa158015613dc1573d6000803e3d6000fd5b505050506040513d601f19601f82011682018060405250810190613de59190615d76565b613e455760405162461bcd60e51b815260206004820152602b60248201527f506f6c79676f6e5a6b45564d3a3a5f766572696679426174636865733a20496e60448201526a3b30b634b210383937b7b360a91b6064820152608401610a18565b613e8833613e53858d615940565b6001600160401b0316613e64612793565b613e6e919061597f565b606554600160581b90046001600160a01b03169190614b3a565b505050505050505050505050565b6000613ea0612a87565b905081600080613eb08484615940565b6001600160401b031690505b836001600160401b0316836001600160401b031614613f62576001600160401b03808416600090815260676020526040902060655460018201549192610100909104811691613f0c911642615968565b1115613f47576001810154613f3190600160401b90046001600160401b031685615940565b613f44906001600160401b031684615b79565b92505b60010154600160401b90046001600160401b03169250613ebc565b6000613f6e8383615968565b905082811015613fe8576000613f848285615968565b9050600c8111613f945780613f97565b600c5b9050613fa481600361597f565b613faf90600a615e77565b606554613fc8908390600160481b900461ffff16615e77565b607454613fd5919061597f565b613fdf9190615afc565b60745550614074565b6000613ff48483615968565b9050600c81116140045780614007565b600c5b9050600061401682600361597f565b61402190600a615e77565b60655461403a908490600160481b900461ffff16615e77565b607454614047919061597f565b6140519190615afc565b905080607454607454614064919061597f565b61406e9190615afc565b60745550505b505050505050565b6001600160401b038116158015906140a957506072546001600160401b03600160401b9091048116908216115b80156140c457506072546001600160401b0390811690821611155b6141365760405162461bcd60e51b815260206004820152603f60248201527f506f6c79676f6e5a6b45564d3a3a5f636f6e736f6c696461746550656e64696e60448201527f6753746174653a2070656e64696e6753746174654e756d20696e76616c6964006064820152608401610a18565b6001600160401b038181166000818152607160209081526040808320805460698054600160401b928390049098166001600160401b0319909816881790556002820154878652606d90945293829020929092556072805467ffffffffffffffff60401b19169390940292909217909255606c54600183015491516333d6247d60e01b815260048101929092529192916001600160a01b0316906333d6247d90602401600060405180830381600087803b1580156141f257600080fd5b505af1158015614206573d6000803e3d6000fd5b50505050826001600160401b0316816001600160401b03167f328d3c6c0fd6f1be0515e422f2d87e59f25922cbc2233568515a0c4bc3f8510e846002015460405161425391815260200190565b60405180910390a3505050565b600054610100900460ff166142cb5760405162461bcd60e51b815260206004820152602b60248201527f496e697469616c697a61626c653a20636f6e7472616374206973206e6f74206960448201526a6e697469616c697a696e6760a81b6064820152608401610a18565b61245a335b603380546001600160a01b038381166001600160a01b0319831681179093556040519116919082907f8be0079c531659141344cd1fd0a4f28419497f9722a3daafe3b4186f6b6457e090600090a35050565b607060009054906101000a90046001600160a01b03166001600160a01b0316632072f6c56040518163ffffffff1660e01b8152600401600060405180830381600087803b15801561437257600080fd5b505af1158015614386573d6000803e3d6000fd5b5050505061245a614b6a565b60006001600160401b038a1615614502576072546001600160401b03908116908b16111561444a5760405162461bcd60e51b81526020600482015260656024820152600080516020615ee483398151915260448201527f696e6753746174653a2070656e64696e6753746174654e756d206d757374206260648201527f65206c657373206f7220657175616c207468616e206c61737450656e64696e67608482015264537461746560d81b60a482015260c401610a18565b506001600160401b03808a1660009081526071602052604090206002810154815490928a8116600160401b90920416146144fc5760405162461bcd60e51b81526020600482015260596024820152600080516020615ee483398151915260448201527f696e6753746174653a20696e69744e756d4261746368206d757374206d6174636064820152780d040e8d0ca40e0cadcc8d2dcce40e6e8c2e8ca40c4c2e8c6d603b1b608482015260a401610a18565b5061463b565b506001600160401b0387166000908152606d6020526040902054806145965760405162461bcd60e51b81526020600482015260506024820152600080516020615ee483398151915260448201527f696e6753746174653a20696e69744e756d426174636820737461746520726f6f60648201526f1d08191bd95cc81b9bdd08195e1a5cdd60821b608482015260a401610a18565b6069546001600160401b03908116908916111561463b5760405162461bcd60e51b81526020600482015260636024820152600080516020615ee483398151915260448201527f696e6753746174653a20696e69744e756d4261746368206d757374206265206c60648201527f657373206f7220657175616c207468616e206c617374566572696669656442616084820152620e8c6d60eb1b60a482015260c401610a18565b6072546001600160401b03908116908a161180159061466b5750896001600160401b0316896001600160401b0316115b801561468c57506072546001600160401b03600160401b9091048116908a16115b6146fd5760405162461bcd60e51b81526020600482015260486024820152600080516020615ee483398151915260448201527f696e6753746174653a2066696e616c50656e64696e6753746174654e756d20696064820152671b98dbdc9c9958dd60c21b608482015260a401610a18565b6001600160401b03898116600090815260716020526040902054600160401b90048116908816146147b65760405162461bcd60e51b81526020600482015260636024820152600080516020615ee483398151915260448201527f696e6753746174653a2066696e616c4e65774261746368206d7573742062652060648201527f657175616c207468616e2063757272656e744c617374566572696669656442616084820152620e8c6d60eb1b60a482015260c401610a18565b60006147c5898989858a610f92565b90506000600080516020615f248339815191526002836040516147e89190615662565b602060405180830381855afa158015614805573d6000803e3d6000fd5b5050506040513d601f19601f82011682018060405250810190614828919061567e565b61483291906156ad565b606b546040805160208101825283815290516343753b4d60e01b81529293506001600160a01b03909116916343753b4d91614876918a918a918a9190600401615cfc565b602060405180830381865afa158015614893573d6000803e3d6000fd5b505050506040513d601f19601f820116820180604052508101906148b79190615d76565b6149115760405162461bcd60e51b81526020600482015260376024820152600080516020615ee483398151915260448201527634b733a9ba30ba329d1024b73b30b634b210383937b7b360491b6064820152608401610a18565b6001600160401b038b16600090815260716020526040902060020154879003613e885760405162461bcd60e51b815260206004820152605b6024820152600080516020615ee483398151915260448201527f696e6753746174653a2053746f72656420726f6f74206d75737420626520646960648201527f66666572656e74207468616e206e657720737461746520726f6f740000000000608482015260a401610a18565b60655460ff16614a2e5760405162461bcd60e51b815260206004820152603b60248201527f456d657267656e63794d616e616765723a3a6966456d657267656e637953746160448201527f74653a206f6e6c7920696620656d657267656e637920737461746500000000006064820152608401610a18565b6065805460ff191690556040517f1e5e34eea33501aecf2ebec9fe0e884a40804275ea7fe10b2ba084c8374308b390600090a1565b6000614ab8826040518060400160405280602081526020017f5361666545524332303a206c6f772d6c6576656c2063616c6c206661696c6564815250856001600160a01b0316614bc59092919063ffffffff16565b805190915015614b355780806020019051810190614ad69190615d76565b614b355760405162461bcd60e51b815260206004820152602a60248201527f5361666545524332303a204552433230206f7065726174696f6e20646964206e6044820152691bdd081cdd58d8d9595960b21b6064820152608401610a18565b505050565b6040516001600160a01b038316602482015260448101829052614b3590849063a9059cbb60e01b906064016138c8565b60655460ff1615614b8d5760405162461bcd60e51b8152600401610a189061577f565b6065805460ff191660011790556040517f2261efe5aef6fedc1fd1550b25facc9181745623049c7901287030b9ad1a549790600090a1565b6060614bd48484600085614bdc565b949350505050565b606082471015614c3d5760405162461bcd60e51b815260206004820152602660248201527f416464726573733a20696e73756666696369656e742062616c616e636520666f6044820152651c8818d85b1b60d21b6064820152608401610a18565b600080866001600160a01b03168587604051614c599190615662565b60006040518083038185875af1925050503d8060008114614c96576040519150601f19603f3d011682016040523d82523d6000602084013e614c9b565b606091505b5091509150614cac87838387614cb7565b979650505050505050565b60608315614d26578251600003614d1f576001600160a01b0385163b614d1f5760405162461bcd60e51b815260206004820152601d60248201527f416464726573733a2063616c6c20746f206e6f6e2d636f6e74726163740000006044820152606401610a18565b5081614bd4565b614bd48383815115614d3b5781518083602001fd5b8060405162461bcd60e51b8152600401610a189190614e1e565b80356001600160401b0381168114614d6c57600080fd5b919050565b600080600080600060a08688031215614d8957600080fd5b614d9286614d55565b9450614da060208701614d55565b9350614dae60408701614d55565b94979396509394606081013594506080013592915050565b60005b83811015614de1578181015183820152602001614dc9565b838111156138ff5750506000910152565b60008151808452614e0a816020860160208601614dc6565b601f01601f19169290920160200192915050565b602081526000614e316020830184614df2565b9392505050565b8060408101831015614e4957600080fd5b92915050565b8060808101831015614e4957600080fd5b6000806000806000806000806101a0898b031215614e7d57600080fd5b614e8689614d55565b9750614e9460208a01614d55565b9650614ea260408a01614d55565b95506060890135945060808901359350614ebf8a60a08b01614e38565b9250614ece8a60e08b01614e4f565b9150614ede8a6101608b01614e38565b90509295985092959890939650565b600060208284031215614eff57600080fd5b813561ffff81168114614e3157600080fd5b600080600080600060a08688031215614f2957600080fd5b614f3286614d55565b9450614f4060208701614d55565b94979496505050506040830135926060810135926080909101359150565b6001600160a01b0391909116815260200190565b600060208284031215614f8457600080fd5b614e3182614d55565b60008083601f840112614f9f57600080fd5b5081356001600160401b03811115614fb657600080fd5b6020830191508360208260051b8501011115614fd157600080fd5b9250929050565b60008060208385031215614feb57600080fd5b82356001600160401b0381111561500157600080fd5b61500d85828601614f8d565b90969095509350505050565b6001600160a01b0381168114611f0457600080fd5b60006020828403121561504057600080fd5b8135614e3181615019565b634e487b7160e01b600052604160045260246000fd5b600082601f83011261507257600080fd5b81356001600160401b038082111561508c5761508c61504b565b604051601f8301601f19908116603f011681019082821181831017156150b4576150b461504b565b816040528381528660208588010111156150cd57600080fd5b836020870160208301376000602085830101528094505050505092915050565b600080600080600060a0868803121561510557600080fd5b8535945060208601356001600160401b0381111561512257600080fd5b61512e88828901615061565b9450506040860135925061514460608701614d55565b9150608086013561515481615019565b809150509295509295909350565b600080600080600080600080888a036101c081121561518057600080fd5b893561518b81615019565b985060208a013561519b81615019565b975060408a01356151ab81615019565b965060608a01356151bb81615019565b955060e0607f19820112156151cf57600080fd5b5060808901935061016089013592506101808901356001600160401b03808211156151f957600080fd5b6152058c838d01615061565b93506101a08b013591508082111561521c57600080fd5b506152298b828c01615061565b9150509295985092959890939650565b60008060008060008060008060006101c08a8c03121561525857600080fd5b6152618a614d55565b985061526f60208b01614d55565b975061527d60408b01614d55565b965061528b60608b01614d55565b955060808a0135945060a08a013593506152a88b60c08c01614e38565b92506152b88b6101008c01614e4f565b91506152c88b6101808c01614e38565b90509295985092959850929598565b6000602082840312156152e957600080fd5b5035919050565b8015158114611f0457600080fd5b60006020828403121561531057600080fd5b8135614e31816152f0565b60006020828403121561532d57600080fd5b81356001600160401b0381111561534357600080fd5b614bd484828501615061565b6000806000806080858703121561536557600080fd5b61536e85614d55565b93506020850135925061538360408601614d55565b915061539160608601614d55565b905092959194509250565b6000806000604084860312156153b157600080fd5b83356001600160401b03808211156153c857600080fd5b818601915086601f8301126153dc57600080fd5b8135818111156153eb57600080fd5b8760208285010111156153fd57600080fd5b6020928301989097509590910135949350505050565b6000806040838503121561542657600080fd5b8235915061543660208401614d55565b90509250929050565b60208082526058908201527f506f6c79676f6e5a6b45564d3a3a766572696679426174636865733a2070656e60408201527f64696e6753746174654e756d206d757374206265206c657373206f7220657175606082015277616c207468616e206c61737450656e64696e67537461746560401b608082015260a00190565b6020808252604c90820152600080516020615e8483398151915260408201527f744e756d4261746368206d757374206d61746368207468652070656e64696e6760608201526b040e6e8c2e8ca40c4c2e8c6d60a31b608082015260a00190565b6020808252604390820152600080516020615e8483398151915260408201527f744e756d426174636820737461746520726f6f7420646f6573206e6f742065786060820152621a5cdd60ea1b608082015260a00190565b6020808252605d90820152600080516020615e8483398151915260408201527f744e756d4261746368206d757374206265206c657373206f7220657175616c2060608201527f7468616e2063757272656e744c61737456657269666965644261746368000000608082015260a00190565b60208082526057908201527f506f6c79676f6e5a6b45564d3a3a766572696679426174636865733a2066696e60408201527f616c4e65774261746368206d75737420626520626967676572207468616e20636060820152760eae4e4cadce898c2e6e8accae4d2ccd2cac884c2e8c6d604b1b608082015260a00190565b60008251615674818460208701614dc6565b9190910192915050565b60006020828403121561569057600080fd5b5051919050565b634e487b7160e01b600052601260045260246000fd5b6000826156bc576156bc615697565b500690565b600181811c908216806156d557607f821691505b6020821081036156f557634e487b7160e01b600052602260045260246000fd5b50919050565b60208082526023908201527f506f6c79676f6e5a6b45564d3a3a6f6e6c7941646d696e3a204f6e6c7920616460408201526236b4b760e91b606082015260800190565b634e487b7160e01b600052601160045260246000fd5b60006001600160401b038083168185168083038211156157765761577661573e565b01949350505050565b60208082526042908201527f456d657267656e63794d616e616765723a3a69664e6f74456d657267656e637960408201527f53746174653a206f6e6c79206966206e6f7420656d657267656e637920737461606082015261746560f01b608082015260a00190565b634e487b7160e01b600052603260045260246000fd5b60008235607e1983360301811261567457600080fd5b60006080823603121561582557600080fd5b604051608081016001600160401b0382821081831117156158485761584861504b565b81604052843591508082111561585d57600080fd5b5061586a36828601615061565b8252506020830135602082015261588360408401614d55565b604082015261589460608401614d55565b606082015292915050565b60006001600160401b038083168181036158bb576158bb61573e565b6001019392505050565b928352602083019190915260c01b6001600160c01b031916604082015260480190565b9485526020850193909352604084019190915260c01b6001600160c01b0319166060808401919091521b6001600160601b0319166068820152607c0190565b6000600182016159395761593961573e565b5060010190565b60006001600160401b03838116908316818110156159605761596061573e565b039392505050565b60008282101561597a5761597a61573e565b500390565b60008160001904831182151516156159995761599961573e565b500290565b601f821115614b3557600081815260208120601f850160051c810160208610156159c55750805b601f850160051c820191505b81811015614074578281556001016159d1565b81516001600160401b038111156159fd576159fd61504b565b615a1181615a0b84546156c1565b8461599e565b602080601f831160018114615a465760008415615a2e5750858301515b600019600386901b1c1916600185901b178555614074565b600085815260208120601f198616915b82811015615a7557888601518255948401946001909101908401615a56565b5085821015615a935787850151600019600388901b60f8161c191681555b5050505050600190811b01905550565b60208082526039908201527f506f6c79676f6e5a6b45564d3a3a696e697469616c697a653a20457863656564604082015278081a185b1d081859d9dc9959d85d1a5bdb881d1a5b595bdd5d603a1b606082015260800190565b600082615b0b57615b0b615697565b500490565b60208082526043908201527f506f6c79676f6e5a6b45564d3a3a6973466f7263654261746368416c6c6f776560408201527f643a204f6e6c7920696620666f72636520626174636820697320617661696c61606082015262626c6560e81b608082015260a00190565b60008219821115615b8c57615b8c61573e565b500190565b60008235605e1983360301811261567457600080fd5b600060608236031215615bb957600080fd5b604051606081016001600160401b038282108183111715615bdc57615bdc61504b565b816040528435915080821115615bf157600080fd5b50615bfe36828601615061565b82525060208301356020820152615c1760408401614d55565b604082015292915050565b6020808252603c908201527f506f6c79676f6e5a6b45564d3a3a6f6e6c79547275737465644167677265676160408201527f746f723a204f6e6c7920747275737465642061676772656761746f7200000000606082015260800190565b8183823760009101908152919050565b8481526001600160a01b03841660208201526060604082018190528101829052818360808301376000818301608090810191909152601f909201601f191601019392505050565b60006001600160401b0380841680615cf057615cf0615697565b92169190910492915050565b61012081016040808784376000838201818152879190815b6002811015615d3457848483379084018281529284019290600101615d14565b5050828760c0870137610100850181815286935091505b6001811015615d6a578251825260209283019290910190600101615d4b565b50505095945050505050565b600060208284031215615d8857600080fd5b8151614e31816152f0565b600181815b80851115615dce578160001904821115615db457615db461573e565b80851615615dc157918102915b93841c9390800290615d98565b509250929050565b600082615de557506001614e49565b81615df257506000614e49565b8160018114615e085760028114615e1257615e2e565b6001915050614e49565b60ff841115615e2357615e2361573e565b50506001821b614e49565b5060208310610133831016604e8410600b8410161715615e51575081810a614e49565b615e5b8383615d93565b8060001904821115615e6f57615e6f61573e565b029392505050565b6000614e318383615dd656fe506f6c79676f6e5a6b45564d3a3a766572696679426174636865733a20696e69506f6c79676f6e5a6b45564d3a3a6163746976617465456d657267656e637953506f6c79676f6e5a6b45564d3a3a5f766572696679426174636865733a20696e506f6c79676f6e5a6b45564d3a3a5f70726f766544697374696e637450656e64506f6c79676f6e5a6b45564d3a3a73657175656e6365466f726365426174636830644e72e131a029b85045b68181585d2833e84879b9709143e1f593f0000001506f6c79676f6e5a6b45564d3a3a73657175656e6365426174636865733a2046a264697066735822122069b5d25403d1e881af3f76163d6b855b776733e70642a4dc7221e6a823a4947f64736f6c634300080f0033",
  "linkReferences": {},
  "deployedLinkReferences": {}
}