{
  "_format": "hh-sol-artifact-1",
  "contractName": "PolygonRollupManagerMock",
  "sourceName": "contracts/v2/mocks/PolygonRollupManagerMock.sol",
  "abi": [
    {
      "inputs": [
        {
          "internalType": "contract IPolygonZkEVMGlobalExitRootV2",
          "name": "_globalExitRootManager",
          "type": "address"
        },
        {
          "internalType": "contract IERC20Upgradeable",
          "name": "_pol",
          "type": "address"
        },
        {
          "internalType": "contract IPolygonZkEVMBridge",
          "name": "_bridgeAddress",
          "type": "address"
        }
      ],
      "stateMutability": "nonpayable",
      "type": "constructor"
    },
    {
      "inputs": [],
      "name": "AccessControlOnlyCanRenounceRolesForSelf",
      "type": "error"
    },
    {
      "inputs": [],
      "name": "AddressDoNotHaveRequiredRole",
      "type": "error"
    },
    {
      "inputs": [],
      "name": "AllBatchesMustBeVerified",
      "type": "error"
    },
    {
      "inputs": [],
      "name": "AllSequencedMustBeVerified",
      "type": "error"
    },
    {
      "inputs": [],
      "name": "AllzkEVMSequencedBatchesMustBeVerified",
      "type": "error"
    },
    {
      "inputs": [],
      "name": "BatchFeeOutOfRange",
      "type": "error"
    },
    {
      "inputs": [],
      "name": "CannotUpdateWithUnconsolidatedPendingState",
      "type": "error"
    },
    {
      "inputs": [],
      "name": "ChainIDAlreadyExist",
      "type": "error"
    },
    {
      "inputs": [],
      "name": "ChainIDOutOfRange",
      "type": "error"
    },
    {
      "inputs": [],
      "name": "EmptyVerifySequencesData",
      "type": "error"
    },
    {
      "inputs": [],
      "name": "ExceedMaxVerifyBatches",
      "type": "error"
    },
    {
      "inputs": [],
      "name": "FinalNumBatchBelowLastVerifiedBatch",
      "type": "error"
    },
    {
      "inputs": [],
      "name": "FinalNumBatchDoesNotMatchPendingState",
      "type": "error"
    },
    {
      "inputs": [],
      "name": "FinalNumSequenceBelowLastVerifiedSequence",
      "type": "error"
    },
    {
      "inputs": [],
      "name": "FinalNumSequenceDoesNotMatchPendingState",
      "type": "error"
    },
    {
      "inputs": [],
      "name": "FinalPendingStateNumInvalid",
      "type": "error"
    },
    {
      "inputs": [],
      "name": "GlobalExitRootNotExist",
      "type": "error"
    },
    {
      "inputs": [],
      "name": "HaltTimeoutNotExpired",
      "type": "error"
    },
    {
      "inputs": [],
      "name": "InitBatchMustMatchCurrentForkID",
      "type": "error"
    },
    {
      "inputs": [],
      "name": "InitNumBatchAboveLastVerifiedBatch",
      "type": "error"
    },
    {
      "inputs": [],
      "name": "InitNumBatchDoesNotMatchPendingState",
      "type": "error"
    },
    {
      "inputs": [],
      "name": "InitSequenceMustMatchCurrentForkID",
      "type": "error"
    },
    {
      "inputs": [],
      "name": "InitSequenceNumDoesNotMatchPendingState",
      "type": "error"
    },
    {
      "inputs": [],
      "name": "InvalidPessimisticProof",
      "type": "error"
    },
    {
      "inputs": [],
      "name": "InvalidProof",
      "type": "error"
    },
    {
      "inputs": [],
      "name": "InvalidRangeBatchTimeTarget",
      "type": "error"
    },
    {
      "inputs": [],
      "name": "InvalidRangeMultiplierBatchFee",
      "type": "error"
    },
    {
      "inputs": [],
      "name": "InvalidRangeMultiplierZkGasPrice",
      "type": "error"
    },
    {
      "inputs": [],
      "name": "InvalidRangeSequenceTimeTarget",
      "type": "error"
    },
    {
      "inputs": [],
      "name": "InvalidRollup",
      "type": "error"
    },
    {
      "inputs": [],
      "name": "InvalidRollupType",
      "type": "error"
    },
    {
      "inputs": [],
      "name": "InvalidVerifierType",
      "type": "error"
    },
    {
      "inputs": [],
      "name": "MustSequenceSomeBatch",
      "type": "error"
    },
    {
      "inputs": [],
      "name": "MustSequenceSomeBlob",
      "type": "error"
    },
    {
      "inputs": [],
      "name": "NewAccInputHashDoesNotExist",
      "type": "error"
    },
    {
      "inputs": [],
      "name": "NewPendingStateTimeoutMustBeLower",
      "type": "error"
    },
    {
      "inputs": [],
      "name": "NewStateRootNotInsidePrime",
      "type": "error"
    },
    {
      "inputs": [],
      "name": "NewTrustedAggregatorTimeoutMustBeLower",
      "type": "error"
    },
    {
      "inputs": [],
      "name": "NotAllowedAddress",
      "type": "error"
    },
    {
      "inputs": [],
      "name": "OldAccInputHashDoesNotExist",
      "type": "error"
    },
    {
      "inputs": [],
      "name": "OldStateRootDoesNotExist",
      "type": "error"
    },
    {
      "inputs": [],
      "name": "OnlyChainsWithPessimisticProofs",
      "type": "error"
    },
    {
      "inputs": [],
      "name": "OnlyEmergencyState",
      "type": "error"
    },
    {
      "inputs": [],
      "name": "OnlyNotEmergencyState",
      "type": "error"
    },
    {
      "inputs": [],
      "name": "OnlyRollupAdmin",
      "type": "error"
    },
    {
      "inputs": [],
      "name": "OnlyStateTransitionChains",
      "type": "error"
    },
    {
      "inputs": [],
      "name": "PendingStateDoesNotExist",
      "type": "error"
    },
    {
      "inputs": [],
      "name": "PendingStateInvalid",
      "type": "error"
    },
    {
      "inputs": [],
      "name": "PendingStateNotConsolidable",
      "type": "error"
    },
    {
      "inputs": [],
      "name": "PendingStateNumExist",
      "type": "error"
    },
    {
      "inputs": [],
      "name": "RollbackBatchIsNotEndOfSequence",
      "type": "error"
    },
    {
      "inputs": [],
      "name": "RollbackBatchIsNotValid",
      "type": "error"
    },
    {
      "inputs": [],
      "name": "RollupAddressAlreadyExist",
      "type": "error"
    },
    {
      "inputs": [],
      "name": "RollupIDNotAscendingOrder",
      "type": "error"
    },
    {
      "inputs": [],
      "name": "RollupMustExist",
      "type": "error"
    },
    {
      "inputs": [],
      "name": "RollupTypeDoesNotExist",
      "type": "error"
    },
    {
      "inputs": [],
      "name": "RollupTypeObsolete",
      "type": "error"
    },
    {
      "inputs": [],
      "name": "SenderMustBeRollup",
      "type": "error"
    },
    {
      "inputs": [],
      "name": "StoredRootMustBeDifferentThanNewRoot",
      "type": "error"
    },
    {
      "inputs": [],
      "name": "TrustedAggregatorTimeoutNotExpired",
      "type": "error"
    },
    {
      "inputs": [],
      "name": "UpdateNotCompatible",
      "type": "error"
    },
    {
      "inputs": [],
      "name": "UpdateToOldRollupTypeID",
      "type": "error"
    },
    {
      "inputs": [],
      "name": "UpdateToSameRollupTypeID",
      "type": "error"
    },
    {
      "inputs": [],
      "name": "zkGasPriceOfRange",
      "type": "error"
    },
    {
      "anonymous": false,
      "inputs": [
        {
          "indexed": true,
          "internalType": "uint32",
          "name": "rollupID",
          "type": "uint32"
        },
        {
          "indexed": false,
          "internalType": "uint64",
          "name": "forkID",
          "type": "uint64"
        },
        {
          "indexed": false,
          "internalType": "address",
          "name": "rollupAddress",
          "type": "address"
        },
        {
          "indexed": false,
          "internalType": "uint64",
          "name": "chainID",
          "type": "uint64"
        },
        {
          "indexed": false,
          "internalType": "enum IPolygonRollupManager.VerifierType",
          "name": "rollupVerifierType",
          "type": "uint8"
        },
        {
          "indexed": false,
          "internalType": "uint64",
          "name": "lastVerifiedBatchBeforeUpgrade",
          "type": "uint64"
        },
        {
          "indexed": false,
          "internalType": "bytes32",
          "name": "programVKey",
          "type": "bytes32"
        }
      ],
      "name": "AddExistingRollup",
      "type": "event"
    },
    {
      "anonymous": false,
      "inputs": [
        {
          "indexed": true,
          "internalType": "uint32",
          "name": "rollupTypeID",
          "type": "uint32"
        },
        {
          "indexed": false,
          "internalType": "address",
          "name": "consensusImplementation",
          "type": "address"
        },
        {
          "indexed": false,
          "internalType": "address",
          "name": "verifier",
          "type": "address"
        },
        {
          "indexed": false,
          "internalType": "uint64",
          "name": "forkID",
          "type": "uint64"
        },
        {
          "indexed": false,
          "internalType": "enum IPolygonRollupManager.VerifierType",
          "name": "rollupVerifierType",
          "type": "uint8"
        },
        {
          "indexed": false,
          "internalType": "bytes32",
          "name": "genesis",
          "type": "bytes32"
        },
        {
          "indexed": false,
          "internalType": "string",
          "name": "description",
          "type": "string"
        },
        {
          "indexed": false,
          "internalType": "bytes32",
          "name": "programVKey",
          "type": "bytes32"
        }
      ],
      "name": "AddNewRollupType",
      "type": "event"
    },
    {
      "anonymous": false,
      "inputs": [
        {
          "indexed": true,
          "internalType": "uint32",
          "name": "rollupID",
          "type": "uint32"
        },
        {
          "indexed": false,
          "internalType": "uint32",
          "name": "rollupTypeID",
          "type": "uint32"
        },
        {
          "indexed": false,
          "internalType": "address",
          "name": "rollupAddress",
          "type": "address"
        },
        {
          "indexed": false,
          "internalType": "uint64",
          "name": "chainID",
          "type": "uint64"
        },
        {
          "indexed": false,
          "internalType": "address",
          "name": "gasTokenAddress",
          "type": "address"
        }
      ],
      "name": "CreateNewRollup",
      "type": "event"
    },
    {
      "anonymous": false,
      "inputs": [],
      "name": "EmergencyStateActivated",
      "type": "event"
    },
    {
      "anonymous": false,
      "inputs": [],
      "name": "EmergencyStateDeactivated",
      "type": "event"
    },
    {
      "anonymous": false,
      "inputs": [
        {
          "indexed": false,
          "internalType": "uint8",
          "name": "version",
          "type": "uint8"
        }
      ],
      "name": "Initialized",
      "type": "event"
    },
    {
      "anonymous": false,
      "inputs": [
        {
          "indexed": true,
          "internalType": "uint32",
          "name": "rollupTypeID",
          "type": "uint32"
        }
      ],
      "name": "ObsoleteRollupType",
      "type": "event"
    },
    {
      "anonymous": false,
      "inputs": [
        {
          "indexed": true,
          "internalType": "uint32",
          "name": "rollupID",
          "type": "uint32"
        },
        {
          "indexed": false,
          "internalType": "uint64",
          "name": "lastBatchSequenced",
          "type": "uint64"
        }
      ],
      "name": "OnSequenceBatches",
      "type": "event"
    },
    {
      "anonymous": false,
      "inputs": [
        {
          "indexed": true,
          "internalType": "bytes32",
          "name": "role",
          "type": "bytes32"
        },
        {
          "indexed": true,
          "internalType": "bytes32",
          "name": "previousAdminRole",
          "type": "bytes32"
        },
        {
          "indexed": true,
          "internalType": "bytes32",
          "name": "newAdminRole",
          "type": "bytes32"
        }
      ],
      "name": "RoleAdminChanged",
      "type": "event"
    },
    {
      "anonymous": false,
      "inputs": [
        {
          "indexed": true,
          "internalType": "bytes32",
          "name": "role",
          "type": "bytes32"
        },
        {
          "indexed": true,
          "internalType": "address",
          "name": "account",
          "type": "address"
        },
        {
          "indexed": true,
          "internalType": "address",
          "name": "sender",
          "type": "address"
        }
      ],
      "name": "RoleGranted",
      "type": "event"
    },
    {
      "anonymous": false,
      "inputs": [
        {
          "indexed": true,
          "internalType": "bytes32",
          "name": "role",
          "type": "bytes32"
        },
        {
          "indexed": true,
          "internalType": "address",
          "name": "account",
          "type": "address"
        },
        {
          "indexed": true,
          "internalType": "address",
          "name": "sender",
          "type": "address"
        }
      ],
      "name": "RoleRevoked",
      "type": "event"
    },
    {
      "anonymous": false,
      "inputs": [
        {
          "indexed": true,
          "internalType": "uint32",
          "name": "rollupID",
          "type": "uint32"
        },
        {
          "indexed": true,
          "internalType": "uint64",
          "name": "targetBatch",
          "type": "uint64"
        },
        {
          "indexed": false,
          "internalType": "bytes32",
          "name": "accInputHashToRollback",
          "type": "bytes32"
        }
      ],
      "name": "RollbackBatches",
      "type": "event"
    },
    {
      "anonymous": false,
      "inputs": [
        {
          "indexed": false,
          "internalType": "uint256",
          "name": "newBatchFee",
          "type": "uint256"
        }
      ],
      "name": "SetBatchFee",
      "type": "event"
    },
    {
      "anonymous": false,
      "inputs": [
        {
          "indexed": false,
          "internalType": "address",
          "name": "newTrustedAggregator",
          "type": "address"
        }
      ],
      "name": "SetTrustedAggregator",
      "type": "event"
    },
    {
      "anonymous": false,
      "inputs": [
        {
          "indexed": true,
          "internalType": "uint32",
          "name": "rollupID",
          "type": "uint32"
        },
        {
          "indexed": false,
          "internalType": "uint32",
          "name": "newRollupTypeID",
          "type": "uint32"
        },
        {
          "indexed": false,
          "internalType": "uint64",
          "name": "lastVerifiedBatchBeforeUpgrade",
          "type": "uint64"
        }
      ],
      "name": "UpdateRollup",
      "type": "event"
    },
    {
      "anonymous": false,
      "inputs": [
        {
          "indexed": true,
          "internalType": "uint32",
          "name": "rollupID",
          "type": "uint32"
        },
        {
          "indexed": false,
          "internalType": "uint64",
          "name": "numBatch",
          "type": "uint64"
        },
        {
          "indexed": false,
          "internalType": "bytes32",
          "name": "stateRoot",
          "type": "bytes32"
        },
        {
          "indexed": false,
          "internalType": "bytes32",
          "name": "exitRoot",
          "type": "bytes32"
        },
        {
          "indexed": true,
          "internalType": "address",
          "name": "aggregator",
          "type": "address"
        }
      ],
      "name": "VerifyBatchesTrustedAggregator",
      "type": "event"
    },
    {
      "inputs": [],
      "name": "DEFAULT_ADMIN_ROLE",
      "outputs": [
        {
          "internalType": "bytes32",
          "name": "",
          "type": "bytes32"
        }
      ],
      "stateMutability": "view",
      "type": "function"
    },
    {
      "inputs": [],
      "name": "activateEmergencyState",
      "outputs": [],
      "stateMutability": "nonpayable",
      "type": "function"
    },
    {
      "inputs": [
        {
          "internalType": "contract IPolygonRollupBase",
          "name": "rollupAddress",
          "type": "address"
        },
        {
          "internalType": "address",
          "name": "verifier",
          "type": "address"
        },
        {
          "internalType": "uint64",
          "name": "forkID",
          "type": "uint64"
        },
        {
          "internalType": "uint64",
          "name": "chainID",
          "type": "uint64"
        },
        {
          "internalType": "bytes32",
          "name": "initRoot",
          "type": "bytes32"
        },
        {
          "internalType": "enum IPolygonRollupManager.VerifierType",
          "name": "rollupVerifierType",
          "type": "uint8"
        },
        {
          "internalType": "bytes32",
          "name": "programVKey",
          "type": "bytes32"
        }
      ],
      "name": "addExistingRollup",
      "outputs": [],
      "stateMutability": "nonpayable",
      "type": "function"
    },
    {
      "inputs": [
        {
          "internalType": "address",
          "name": "consensusImplementation",
          "type": "address"
        },
        {
          "internalType": "address",
          "name": "verifier",
          "type": "address"
        },
        {
          "internalType": "uint64",
          "name": "forkID",
          "type": "uint64"
        },
        {
          "internalType": "enum IPolygonRollupManager.VerifierType",
          "name": "rollupVerifierType",
          "type": "uint8"
        },
        {
          "internalType": "bytes32",
          "name": "genesis",
          "type": "bytes32"
        },
        {
          "internalType": "string",
          "name": "description",
          "type": "string"
        },
        {
          "internalType": "bytes32",
          "name": "programVKey",
          "type": "bytes32"
        }
      ],
      "name": "addNewRollupType",
      "outputs": [],
      "stateMutability": "nonpayable",
      "type": "function"
    },
    {
      "inputs": [],
      "name": "bridgeAddress",
      "outputs": [
        {
          "internalType": "contract IPolygonZkEVMBridge",
          "name": "",
          "type": "address"
        }
      ],
      "stateMutability": "view",
      "type": "function"
    },
    {
      "inputs": [],
      "name": "calculateRewardPerBatch",
      "outputs": [
        {
          "internalType": "uint256",
          "name": "",
          "type": "uint256"
        }
      ],
      "stateMutability": "view",
      "type": "function"
    },
    {
      "inputs": [
        {
          "internalType": "uint64",
          "name": "chainID",
          "type": "uint64"
        }
      ],
      "name": "chainIDToRollupID",
      "outputs": [
        {
          "internalType": "uint32",
          "name": "rollupID",
          "type": "uint32"
        }
      ],
      "stateMutability": "view",
      "type": "function"
    },
    {
      "inputs": [
        {
          "internalType": "uint32",
          "name": "rollupTypeID",
          "type": "uint32"
        },
        {
          "internalType": "uint64",
          "name": "chainID",
          "type": "uint64"
        },
        {
          "internalType": "address",
          "name": "admin",
          "type": "address"
        },
        {
          "internalType": "address",
          "name": "sequencer",
          "type": "address"
        },
        {
          "internalType": "address",
          "name": "gasTokenAddress",
          "type": "address"
        },
        {
          "internalType": "string",
          "name": "sequencerURL",
          "type": "string"
        },
        {
          "internalType": "string",
          "name": "networkName",
          "type": "string"
        }
      ],
      "name": "createNewRollup",
      "outputs": [],
      "stateMutability": "nonpayable",
      "type": "function"
    },
    {
      "inputs": [],
      "name": "deactivateEmergencyState",
      "outputs": [],
      "stateMutability": "nonpayable",
      "type": "function"
    },
    {
      "inputs": [
        {
          "internalType": "uint256",
          "name": "newStateRoot",
          "type": "uint256"
        }
      ],
      "name": "exposed_checkStateRootInsidePrime",
      "outputs": [
        {
          "internalType": "bool",
          "name": "",
          "type": "bool"
        }
      ],
      "stateMutability": "pure",
      "type": "function"
    },
    {
      "inputs": [],
      "name": "getBatchFee",
      "outputs": [
        {
          "internalType": "uint256",
          "name": "",
          "type": "uint256"
        }
      ],
      "stateMutability": "view",
      "type": "function"
    },
    {
      "inputs": [],
      "name": "getForcedBatchFee",
      "outputs": [
        {
          "internalType": "uint256",
          "name": "",
          "type": "uint256"
        }
      ],
      "stateMutability": "view",
      "type": "function"
    },
    {
      "inputs": [
        {
          "internalType": "uint32",
          "name": "rollupID",
          "type": "uint32"
        },
        {
          "internalType": "bytes32",
          "name": "selectedGlobalExitRoot",
          "type": "bytes32"
        },
        {
          "internalType": "bytes32",
          "name": "newLocalExitRoot",
          "type": "bytes32"
        },
        {
          "internalType": "bytes32",
          "name": "newPessimisticRoot",
          "type": "bytes32"
        }
      ],
      "name": "getInputPessimisticBytes",
      "outputs": [
        {
          "internalType": "bytes",
          "name": "",
          "type": "bytes"
        }
      ],
      "stateMutability": "view",
      "type": "function"
    },
    {
      "inputs": [
        {
          "internalType": "uint32",
          "name": "rollupID",
          "type": "uint32"
        },
        {
          "internalType": "uint64",
          "name": "initNumBatch",
          "type": "uint64"
        },
        {
          "internalType": "uint64",
          "name": "finalNewBatch",
          "type": "uint64"
        },
        {
          "internalType": "bytes32",
          "name": "newLocalExitRoot",
          "type": "bytes32"
        },
        {
          "internalType": "bytes32",
          "name": "oldStateRoot",
          "type": "bytes32"
        },
        {
          "internalType": "bytes32",
          "name": "newStateRoot",
          "type": "bytes32"
        }
      ],
      "name": "getInputSnarkBytes",
      "outputs": [
        {
          "internalType": "bytes",
          "name": "",
          "type": "bytes"
        }
      ],
      "stateMutability": "view",
      "type": "function"
    },
    {
      "inputs": [
        {
          "internalType": "uint32",
          "name": "rollupID",
          "type": "uint32"
        }
      ],
      "name": "getLastVerifiedBatch",
      "outputs": [
        {
          "internalType": "uint64",
          "name": "",
          "type": "uint64"
        }
      ],
      "stateMutability": "view",
      "type": "function"
    },
    {
      "inputs": [
        {
          "internalType": "bytes32",
          "name": "role",
          "type": "bytes32"
        }
      ],
      "name": "getRoleAdmin",
      "outputs": [
        {
          "internalType": "bytes32",
          "name": "",
          "type": "bytes32"
        }
      ],
      "stateMutability": "view",
      "type": "function"
    },
    {
      "inputs": [
        {
          "internalType": "uint32",
          "name": "rollupID",
          "type": "uint32"
        },
        {
          "internalType": "uint64",
          "name": "batchNum",
          "type": "uint64"
        }
      ],
      "name": "getRollupBatchNumToStateRoot",
      "outputs": [
        {
          "internalType": "bytes32",
          "name": "",
          "type": "bytes32"
        }
      ],
      "stateMutability": "view",
      "type": "function"
    },
    {
      "inputs": [],
      "name": "getRollupExitRoot",
      "outputs": [
        {
          "internalType": "bytes32",
          "name": "",
          "type": "bytes32"
        }
      ],
      "stateMutability": "view",
      "type": "function"
    },
    {
      "inputs": [
        {
          "internalType": "uint32",
          "name": "rollupID",
          "type": "uint32"
        },
        {
          "internalType": "uint64",
          "name": "batchNum",
          "type": "uint64"
        }
      ],
      "name": "getRollupSequencedBatches",
      "outputs": [
        {
          "components": [
            {
              "internalType": "bytes32",
              "name": "accInputHash",
              "type": "bytes32"
            },
            {
              "internalType": "uint64",
              "name": "sequencedTimestamp",
              "type": "uint64"
            },
            {
              "internalType": "uint64",
              "name": "previousLastBatchSequenced",
              "type": "uint64"
            }
          ],
          "internalType": "struct LegacyZKEVMStateVariables.SequencedBatchData",
          "name": "",
          "type": "tuple"
        }
      ],
      "stateMutability": "view",
      "type": "function"
    },
    {
      "inputs": [],
      "name": "globalExitRootManager",
      "outputs": [
        {
          "internalType": "contract IPolygonZkEVMGlobalExitRootV2",
          "name": "",
          "type": "address"
        }
      ],
      "stateMutability": "view",
      "type": "function"
    },
    {
      "inputs": [
        {
          "internalType": "bytes32",
          "name": "role",
          "type": "bytes32"
        },
        {
          "internalType": "address",
          "name": "account",
          "type": "address"
        }
      ],
      "name": "grantRole",
      "outputs": [],
      "stateMutability": "nonpayable",
      "type": "function"
    },
    {
      "inputs": [
        {
          "internalType": "bytes32",
          "name": "role",
          "type": "bytes32"
        },
        {
          "internalType": "address",
          "name": "account",
          "type": "address"
        }
      ],
      "name": "hasRole",
      "outputs": [
        {
          "internalType": "bool",
          "name": "",
          "type": "bool"
        }
      ],
      "stateMutability": "view",
      "type": "function"
    },
    {
      "inputs": [
        {
          "internalType": "address",
          "name": "trustedAggregator",
          "type": "address"
        },
        {
          "internalType": "uint64",
          "name": "_pendingStateTimeout",
          "type": "uint64"
        },
        {
          "internalType": "uint64",
          "name": "_trustedAggregatorTimeout",
          "type": "uint64"
        },
        {
          "internalType": "address",
          "name": "admin",
          "type": "address"
        },
        {
          "internalType": "address",
          "name": "timelock",
          "type": "address"
        },
        {
          "internalType": "address",
          "name": "emergencyCouncil",
          "type": "address"
        }
      ],
      "name": "initializeMock",
      "outputs": [],
      "stateMutability": "nonpayable",
      "type": "function"
    },
    {
      "inputs": [],
      "name": "isEmergencyState",
      "outputs": [
        {
          "internalType": "bool",
          "name": "",
          "type": "bool"
        }
      ],
      "stateMutability": "view",
      "type": "function"
    },
    {
      "inputs": [],
      "name": "lastAggregationTimestamp",
      "outputs": [
        {
          "internalType": "uint64",
          "name": "",
          "type": "uint64"
        }
      ],
      "stateMutability": "view",
      "type": "function"
    },
    {
      "inputs": [],
      "name": "lastDeactivatedEmergencyStateTimestamp",
      "outputs": [
        {
          "internalType": "uint64",
          "name": "",
          "type": "uint64"
        }
      ],
      "stateMutability": "view",
      "type": "function"
    },
    {
      "inputs": [
        {
          "internalType": "uint32",
          "name": "rollupTypeID",
          "type": "uint32"
        }
      ],
      "name": "obsoleteRollupType",
      "outputs": [],
      "stateMutability": "nonpayable",
      "type": "function"
    },
    {
      "inputs": [
        {
          "internalType": "uint64",
          "name": "newSequencedBatches",
          "type": "uint64"
        },
        {
          "internalType": "bytes32",
          "name": "newAccInputHash",
          "type": "bytes32"
        }
      ],
      "name": "onSequenceBatches",
      "outputs": [
        {
          "internalType": "uint64",
          "name": "",
          "type": "uint64"
        }
      ],
      "stateMutability": "nonpayable",
      "type": "function"
    },
    {
      "inputs": [],
      "name": "pol",
      "outputs": [
        {
          "internalType": "contract IERC20Upgradeable",
          "name": "",
          "type": "address"
        }
      ],
      "stateMutability": "view",
      "type": "function"
    },
    {
      "inputs": [
        {
          "internalType": "bytes32[]",
          "name": "localExitRoots",
          "type": "bytes32[]"
        }
      ],
      "name": "prepareMockCalculateRoot",
      "outputs": [],
      "stateMutability": "nonpayable",
      "type": "function"
    },
    {
      "inputs": [
        {
          "internalType": "bytes32",
          "name": "role",
          "type": "bytes32"
        },
        {
          "internalType": "address",
          "name": "account",
          "type": "address"
        }
      ],
      "name": "renounceRole",
      "outputs": [],
      "stateMutability": "nonpayable",
      "type": "function"
    },
    {
      "inputs": [
        {
          "internalType": "bytes32",
          "name": "role",
          "type": "bytes32"
        },
        {
          "internalType": "address",
          "name": "account",
          "type": "address"
        }
      ],
      "name": "revokeRole",
      "outputs": [],
      "stateMutability": "nonpayable",
      "type": "function"
    },
    {
      "inputs": [
        {
          "internalType": "contract IPolygonRollupBase",
          "name": "rollupContract",
          "type": "address"
        },
        {
          "internalType": "uint64",
          "name": "targetBatch",
          "type": "uint64"
        }
      ],
      "name": "rollbackBatches",
      "outputs": [],
      "stateMutability": "nonpayable",
      "type": "function"
    },
    {
      "inputs": [
        {
          "internalType": "address",
          "name": "rollupAddress",
          "type": "address"
        }
      ],
      "name": "rollupAddressToID",
      "outputs": [
        {
          "internalType": "uint32",
          "name": "rollupID",
          "type": "uint32"
        }
      ],
      "stateMutability": "view",
      "type": "function"
    },
    {
      "inputs": [],
      "name": "rollupCount",
      "outputs": [
        {
          "internalType": "uint32",
          "name": "",
          "type": "uint32"
        }
      ],
      "stateMutability": "view",
      "type": "function"
    },
    {
      "inputs": [
        {
          "internalType": "uint32",
          "name": "rollupID",
          "type": "uint32"
        }
      ],
      "name": "rollupIDToRollupData",
      "outputs": [
        {
          "components": [
            {
              "internalType": "contract IPolygonRollupBase",
              "name": "rollupContract",
              "type": "address"
            },
            {
              "internalType": "uint64",
              "name": "chainID",
              "type": "uint64"
            },
            {
              "internalType": "address",
              "name": "verifier",
              "type": "address"
            },
            {
              "internalType": "uint64",
              "name": "forkID",
              "type": "uint64"
            },
            {
              "internalType": "bytes32",
              "name": "lastLocalExitRoot",
              "type": "bytes32"
            },
            {
              "internalType": "uint64",
              "name": "lastBatchSequenced",
              "type": "uint64"
            },
            {
              "internalType": "uint64",
              "name": "lastVerifiedBatch",
              "type": "uint64"
            },
            {
              "internalType": "uint64",
              "name": "_legacyLastPendingState",
              "type": "uint64"
            },
            {
              "internalType": "uint64",
              "name": "_legacyLastPendingStateConsolidated",
              "type": "uint64"
            },
            {
              "internalType": "uint64",
              "name": "lastVerifiedBatchBeforeUpgrade",
              "type": "uint64"
            },
            {
              "internalType": "uint64",
              "name": "rollupTypeID",
              "type": "uint64"
            },
            {
              "internalType": "enum IPolygonRollupManager.VerifierType",
              "name": "rollupVerifierType",
              "type": "uint8"
            }
          ],
          "internalType": "struct PolygonRollupManager.RollupDataReturn",
          "name": "rollupData",
          "type": "tuple"
        }
      ],
      "stateMutability": "view",
      "type": "function"
    },
    {
      "inputs": [
        {
          "internalType": "uint32",
          "name": "rollupID",
          "type": "uint32"
        }
      ],
      "name": "rollupIDToRollupDataV2",
      "outputs": [
        {
          "components": [
            {
              "internalType": "contract IPolygonRollupBase",
              "name": "rollupContract",
              "type": "address"
            },
            {
              "internalType": "uint64",
              "name": "chainID",
              "type": "uint64"
            },
            {
              "internalType": "address",
              "name": "verifier",
              "type": "address"
            },
            {
              "internalType": "uint64",
              "name": "forkID",
              "type": "uint64"
            },
            {
              "internalType": "bytes32",
              "name": "lastLocalExitRoot",
              "type": "bytes32"
            },
            {
              "internalType": "uint64",
              "name": "lastBatchSequenced",
              "type": "uint64"
            },
            {
              "internalType": "uint64",
              "name": "lastVerifiedBatch",
              "type": "uint64"
            },
            {
              "internalType": "uint64",
              "name": "lastVerifiedBatchBeforeUpgrade",
              "type": "uint64"
            },
            {
              "internalType": "uint64",
              "name": "rollupTypeID",
              "type": "uint64"
            },
            {
              "internalType": "enum IPolygonRollupManager.VerifierType",
              "name": "rollupVerifierType",
              "type": "uint8"
            },
            {
              "internalType": "bytes32",
              "name": "lastPessimisticRoot",
              "type": "bytes32"
            },
            {
              "internalType": "bytes32",
              "name": "programVKey",
              "type": "bytes32"
            }
          ],
          "internalType": "struct PolygonRollupManager.RollupDataReturnV2",
          "name": "rollupData",
          "type": "tuple"
        }
      ],
      "stateMutability": "view",
      "type": "function"
    },
    {
      "inputs": [],
      "name": "rollupTypeCount",
      "outputs": [
        {
          "internalType": "uint32",
          "name": "",
          "type": "uint32"
        }
      ],
      "stateMutability": "view",
      "type": "function"
    },
    {
      "inputs": [
        {
          "internalType": "uint32",
          "name": "rollupTypeID",
          "type": "uint32"
        }
      ],
      "name": "rollupTypeMap",
      "outputs": [
        {
          "internalType": "address",
          "name": "consensusImplementation",
          "type": "address"
        },
        {
          "internalType": "address",
          "name": "verifier",
          "type": "address"
        },
        {
          "internalType": "uint64",
          "name": "forkID",
          "type": "uint64"
        },
        {
          "internalType": "enum IPolygonRollupManager.VerifierType",
          "name": "rollupVerifierType",
          "type": "uint8"
        },
        {
          "internalType": "bool",
          "name": "obsolete",
          "type": "bool"
        },
        {
          "internalType": "bytes32",
          "name": "genesis",
          "type": "bytes32"
        },
        {
          "internalType": "bytes32",
          "name": "programVKey",
          "type": "bytes32"
        }
      ],
      "stateMutability": "view",
      "type": "function"
    },
    {
      "inputs": [
        {
          "internalType": "uint256",
          "name": "newBatchFee",
          "type": "uint256"
        }
      ],
      "name": "setBatchFee",
      "outputs": [],
      "stateMutability": "nonpayable",
      "type": "function"
    },
    {
      "inputs": [],
      "name": "totalSequencedBatches",
      "outputs": [
        {
          "internalType": "uint64",
          "name": "",
          "type": "uint64"
        }
      ],
      "stateMutability": "view",
      "type": "function"
    },
    {
      "inputs": [],
      "name": "totalVerifiedBatches",
      "outputs": [
        {
          "internalType": "uint64",
          "name": "",
          "type": "uint64"
        }
      ],
      "stateMutability": "view",
      "type": "function"
    },
    {
      "inputs": [
        {
          "internalType": "contract ITransparentUpgradeableProxy",
          "name": "rollupContract",
          "type": "address"
        },
        {
          "internalType": "uint32",
          "name": "newRollupTypeID",
          "type": "uint32"
        },
        {
          "internalType": "bytes",
          "name": "upgradeData",
          "type": "bytes"
        }
      ],
      "name": "updateRollup",
      "outputs": [],
      "stateMutability": "nonpayable",
      "type": "function"
    },
    {
      "inputs": [
        {
          "internalType": "contract ITransparentUpgradeableProxy",
          "name": "rollupContract",
          "type": "address"
        },
        {
          "internalType": "uint32",
          "name": "newRollupTypeID",
          "type": "uint32"
        }
      ],
      "name": "updateRollupByRollupAdmin",
      "outputs": [],
      "stateMutability": "nonpayable",
      "type": "function"
    },
    {
      "inputs": [
        {
          "internalType": "uint32",
          "name": "rollupID",
          "type": "uint32"
        },
        {
          "internalType": "uint64",
          "name": "pendingStateNum",
          "type": "uint64"
        },
        {
          "internalType": "uint64",
          "name": "initNumBatch",
          "type": "uint64"
        },
        {
          "internalType": "uint64",
          "name": "finalNewBatch",
          "type": "uint64"
        },
        {
          "internalType": "bytes32",
          "name": "newLocalExitRoot",
          "type": "bytes32"
        },
        {
          "internalType": "bytes32",
          "name": "newStateRoot",
          "type": "bytes32"
        },
        {
          "internalType": "address",
          "name": "beneficiary",
          "type": "address"
        },
        {
          "internalType": "bytes32[24]",
          "name": "proof",
          "type": "bytes32[24]"
        }
      ],
      "name": "verifyBatchesTrustedAggregator",
      "outputs": [],
      "stateMutability": "nonpayable",
      "type": "function"
    },
    {
      "inputs": [
        {
          "internalType": "uint32",
          "name": "rollupID",
          "type": "uint32"
        },
        {
          "internalType": "bytes32",
          "name": "selectedGlobalExitRoot",
          "type": "bytes32"
        },
        {
          "internalType": "bytes32",
          "name": "newLocalExitRoot",
          "type": "bytes32"
        },
        {
          "internalType": "bytes32",
          "name": "newPessimisticRoot",
          "type": "bytes32"
        },
        {
          "internalType": "bytes",
          "name": "proof",
          "type": "bytes"
        }
      ],
      "name": "verifyPessimisticTrustedAggregator",
      "outputs": [],
      "stateMutability": "nonpayable",
      "type": "function"
    }
  ],
  "bytecode": "0x60e060405234801562000010575f80fd5b50604051620054cc380380620054cc83398101604081905262000033916200013c565b6001600160a01b0380841660805280831660c052811660a0528282826200005962000065565b5050505050506200018d565b5f54610100900460ff1615620000d15760405162461bcd60e51b815260206004820152602760248201527f496e697469616c697a61626c653a20636f6e747261637420697320696e697469604482015266616c697a696e6760c81b606482015260840160405180910390fd5b5f5460ff908116101562000122575f805460ff191660ff9081179091556040519081527f7f26b83ff96e1f2b6a682f133852f6798a09c465da95921460cefb38474024989060200160405180910390a15b565b6001600160a01b038116811462000139575f80fd5b50565b5f805f606084860312156200014f575f80fd5b83516200015c8162000124565b60208501519093506200016f8162000124565b6040850151909250620001828162000124565b809150509250925092565b60805160a05160c0516152e3620001e95f395f81816107a501528181611c020152612f0101525f818161066b015281816126000152612fcc01525f818161071301528181610bda0152818161284b015261299201526152e35ff3fe608060405234801562000010575f80fd5b506004361062000248575f3560e01c8063066ec012146200024c5780630e36f582146200027d57806311f6b28714620002965780631489ed1014620002ad57806315064c9614620002c45780631796a1ae14620002e35780632072f6c5146200030a578063248a9ca3146200031457806325280169146200033a5780632f2ff15d14620003ee57806330c27dde146200040557806336568abe1462000419578063477fa270146200043057806355a71ee0146200043957806360469169146200047c57806362d87e66146200048657806365c0504d146200049d5780637222020f146200051d578063727885e9146200053457806374d9c244146200054b5780637975fcfe14620005715780637fb6e76a14620005975780638f698ec514620005bf5780638fd88cc214620005d657806391d1485414620005ed57806397bf07e8146200060457806399f5634e146200061b5780639a908e7314620006255780639e36c565146200063c578063a217fddf1462000653578063a2967d99146200065b578063a3c573eb1462000665578063abcb5198146200069c578063c1acbc3414620006b3578063c4c928c214620006ce578063ceee281d14620006e5578063d02103ca146200070d578063d5073f6f1462000735578063d547741f146200074c578063dbc169761462000763578063dde0ff77146200076d578063dfdb8c5e1462000788578063e46761c4146200079f578063e4a4b6a214620007c7578063f4e9267514620007de578063f9c4c2ae14620007ef575b5f80fd5b60845462000260906001600160401b031681565b6040516001600160401b0390911681526020015b60405180910390f35b620002946200028e36600462003a03565b62000815565b005b62000260620002a736600462003a9e565b62000ac3565b62000294620002be36600462003ac1565b62000ae8565b606f54620002d29060ff1681565b604051901515815260200162000274565b607e54620002f49063ffffffff1681565b60405163ffffffff909116815260200162000274565b6200029462000ca7565b6200032b6200032536600462003b5b565b62000d6c565b60405190815260200162000274565b620003ba6200034b36600462003b73565b60408051606080820183525f808352602080840182905292840181905263ffffffff959095168552608182528285206001600160401b03948516865260030182529382902082519485018352805485526001015480841691850191909152600160401b90049091169082015290565b60408051825181526020808401516001600160401b0390811691830191909152928201519092169082015260600162000274565b62000294620003ff36600462003ba9565b62000d80565b60875462000260906001600160401b031681565b620002946200042a36600462003ba9565b62000da7565b6086546200032b565b6200032b6200044a36600462003b73565b63ffffffff82165f9081526081602090815260408083206001600160401b038516845260020190915290205492915050565b6200032b62000de1565b620002d26200049736600462003b5b565b62000df8565b62000508620004ae36600462003a9e565b607f6020525f908152604090208054600182015460028301546003909301546001600160a01b0392831693928216926001600160401b03600160a01b8404169260ff600160e01b8204811693600160e81b90920416919087565b60405162000274979695949392919062003c1c565b620002946200052e36600462003a9e565b62000e04565b620002946200054536600462003d32565b62000eec565b620005626200055c36600462003a9e565b6200136c565b60405162000274919062003df8565b620005886200058236600462003ee0565b6200149e565b60405162000274919062003f93565b620002f4620005a836600462003fa7565b60836020525f908152604090205463ffffffff1681565b62000294620005d036600462003fc3565b620014d0565b62000294620005e73660046200406e565b62001554565b620002d2620005fe36600462003ba9565b620018ce565b62000294620006153660046200409c565b620018f8565b6200032b62001bfe565b62000260620006363660046200411e565b62001ce4565b620005886200064d36600462004149565b62001e97565b6200032b5f81565b6200032b62001ec9565b6200068d7f000000000000000000000000000000000000000000000000000000000000000081565b60405162000274919062004182565b62000294620006ad36600462004196565b6200227e565b6084546200026090600160801b90046001600160401b031681565b62000294620006df36600462004232565b620024da565b620002f4620006f6366004620042a9565b60826020525f908152604090205463ffffffff1681565b6200068d7f000000000000000000000000000000000000000000000000000000000000000081565b620002946200074636600462003b5b565b62002507565b620002946200075d36600462003ba9565b62002597565b62000294620025b9565b6084546200026090600160401b90046001600160401b031681565b6200029462000799366004620042c7565b62002672565b6200068d7f000000000000000000000000000000000000000000000000000000000000000081565b62000294620007d8366004620042f6565b620027c3565b608054620002f49063ffffffff1681565b620008066200080036600462003a9e565b62002a58565b60405162000274919062004393565b5f54600290610100900460ff161580156200083657505f5460ff8083169116105b6200089f5760405162461bcd60e51b815260206004820152602e60248201527f496e697469616c697a61626c653a20636f6e747261637420697320616c72656160448201526d191e481a5b9a5d1a585b1a5e995960921b60648201526084015b60405180910390fd5b5f805461ffff191660ff83161761010017905567016345785d8a0000608655620008c862002bb8565b620008e25f805160206200528e8339815191528862002c24565b620008ee5f8462002c24565b620009085f80516020620051ce8339815191528462002c24565b620009225f805160206200520e8339815191528462002c24565b6200093c5f805160206200516e8339815191528462002c24565b620009565f80516020620051ae8339815191528562002c24565b620009705f805160206200526e8339815191528562002c24565b6200098a5f80516020620051ee8339815191528562002c24565b620009b67fa5c5790f581d443ed43873ab47cfb8c5d66a6db268e58b5971bb33fc66e07db18562002c24565b620009de5f805160206200528e8339815191525f805160206200512e83398151915262002c30565b620009f85f805160206200512e8339815191528562002c24565b62000a125f805160206200518e8339815191528562002c24565b62000a3a5f805160206200524e8339815191525f805160206200522e83398151915262002c30565b62000a545f805160206200524e8339815191528362002c24565b62000a6e5f805160206200522e8339815191528362002c24565b62000a7a5f3362002c24565b5f805461ff001916905560405160ff821681527f7f26b83ff96e1f2b6a682f133852f6798a09c465da95921460cefb38474024989060200160405180910390a150505050505050565b63ffffffff81165f90815260816020526040812062000ae29062002c83565b92915050565b5f805160206200528e83398151915262000b028162002c9a565b6001600160401b0388161562000b2b5760405163306dfc5760e11b815260040160405180910390fd5b63ffffffff89165f908152608160205260408120906007820154600160801b900460ff16600181111562000b635762000b6362003be7565b1462000b82576040516390db0d0760e01b815260040160405180910390fd5b62000b938189898989898962002ca6565b600681018054600160401b600160801b031916600160401b6001600160401b038a16908102919091179091555f9081526002820160205260409020859055600581018690557f00000000000000000000000000000000000000000000000000000000000000006001600160a01b03166333d6247d62000c1162001ec9565b6040518263ffffffff1660e01b815260040162000c3091815260200190565b5f604051808303815f87803b15801562000c48575f80fd5b505af115801562000c5b573d5f803e3d5ffd5b50505050336001600160a01b03168a63ffffffff165f805160206200514e83398151915289888a60405162000c939392919062004492565b60405180910390a350505050505050505050565b62000cc15f805160206200524e83398151915233620018ce565b62000d6057608454600160801b90046001600160401b0316158062000d115750608454429062000d069062093a8090600160801b90046001600160401b0316620044c7565b6001600160401b0316115b8062000d415750608754429062000d369062093a80906001600160401b0316620044c7565b6001600160401b0316115b1562000d605760405163692baaad60e11b815260040160405180910390fd5b62000d6a62002fca565b565b5f9081526034602052604090206001015490565b62000d8b8262000d6c565b62000d968162002c9a565b62000da2838362003044565b505050565b6001600160a01b038116331462000dd157604051630b4ad1cd60e31b815260040160405180910390fd5b62000ddd8282620030af565b5050565b5f608654606462000df39190620044f1565b905090565b5f62000ae28262003118565b5f80516020620051ae83398151915262000e1e8162002c9a565b63ffffffff8216158062000e3d5750607e5463ffffffff908116908316115b1562000e5c57604051637512e5cb60e01b815260040160405180910390fd5b63ffffffff82165f908152607f60205260409020600180820154600160e81b900460ff161515900362000ea257604051633b8d3d9960e01b815260040160405180910390fd5b60018101805460ff60e81b1916600160e81b17905560405163ffffffff8416907f4710d2ee567ef1ed6eb2f651dde4589524bcf7cebc62147a99b281cc836e7e44905f90a2505050565b5f805160206200526e83398151915262000f068162002c9a565b63ffffffff8816158062000f255750607e5463ffffffff908116908916115b1562000f4457604051637512e5cb60e01b815260040160405180910390fd5b63ffffffff88165f908152607f60205260409020600180820154600160e81b900460ff161515900362000f8a57604051633b8d3d9960e01b815260040160405180910390fd5b63ffffffff6001600160401b038916111562000fb957604051634c753f5760e01b815260040160405180910390fd5b6001600160401b0388165f9081526083602052604090205463ffffffff161562000ff6576040516337c8fe0960e11b815260040160405180910390fd5b608080545f91908290620010109063ffffffff166200450b565b825463ffffffff8281166101009490940a93840293021916919091179091558254604080515f80825260208201928390529394506001600160a01b039092169130916200105d90620039bc565b6200106b9392919062004530565b604051809103905ff08015801562001085573d5f803e3d5ffd5b5090508160835f8c6001600160401b03166001600160401b031681526020019081526020015f205f6101000a81548163ffffffff021916908363ffffffff1602179055508160825f836001600160a01b03166001600160a01b031681526020019081526020015f205f6101000a81548163ffffffff021916908363ffffffff1602179055505f60815f8463ffffffff1663ffffffff1681526020019081526020015f20905081815f015f6101000a8154816001600160a01b0302191690836001600160a01b031602179055508360010160149054906101000a90046001600160401b03168160010160146101000a8154816001600160401b0302191690836001600160401b03160217905550836001015f9054906101000a90046001600160a01b0316816001015f6101000a8154816001600160a01b0302191690836001600160a01b031602179055508a815f0160146101000a8154816001600160401b0302191690836001600160401b031602179055508360020154816002015f806001600160401b031681526020019081526020015f20819055508b63ffffffff168160070160086101000a8154816001600160401b0302191690836001600160401b0316021790555083600101601c9054906101000a900460ff168160070160106101000a81548160ff0219169083600181111562001285576200128562003be7565b0217905550600384015460098201556040805163ffffffff8e811682526001600160a01b0385811660208401526001600160401b038f16838501528b1660608301529151918516917f194c983456df6701c6a50830b90fe80e72b823411d0d524970c9590dc277a6419181900360800190a2604051633892b81160e11b81526001600160a01b038316906371257022906200132f908d908d9088908e908e908e906004016200455d565b5f604051808303815f87803b15801562001347575f80fd5b505af11580156200135a573d5f803e3d5ffd5b50505050505050505050505050505050565b60408051610180810182525f8082526020808301828152838501838152606085018481526080860185815260a0870186815260c0880187815260e089018881526101008a018981526101208b018a81526101408c018b90526101608c018b905263ffffffff8e168b5260819099529a90982080546001600160a01b038082168c52600160a01b918290046001600160401b0390811690995260018084015491821690985204871690945260058401549092526006830154808616909152600160401b9081900485169091526007820154808516909652850490921690955292939091600160801b900460ff16908111156200146b576200146b62003be7565b9081600181111562001481576200148162003be7565b905250600881015461014083015260090154610160820152919050565b63ffffffff86165f908152608160205260409020606090620014c5908787878787620031a1565b979650505050505050565b80516080805463ffffffff191663ffffffff9092169190911790555f5b815181101562000ddd578181815181106200150c576200150c620045bf565b602002602001015160815f836001620015269190620045d3565b63ffffffff16815260208101919091526040015f2060050155806200154b81620045e9565b915050620014ed565b6200156e5f805160206200516e83398151915233620018ce565b158015620015f15750336001600160a01b0316826001600160a01b031663f851a4406040518163ffffffff1660e01b81526004016020604051808303815f875af1158015620015bf573d5f803e3d5ffd5b505050506040513d601f19601f82011682018060405250810190620015e5919062004604565b6001600160a01b031614155b156200161057604051630d03687f60e11b815260040160405180910390fd5b6001600160a01b0382165f9081526082602052604081205463ffffffff169081900362001650576040516374a086a360e01b815260040160405180910390fd5b63ffffffff81165f908152608160205260408120906007820154600160801b900460ff16600181111562001688576200168862003be7565b14620016a7576040516390db0d0760e01b815260040160405180910390fd5b60068101546001600160401b0390811690841681111580620016e0575060068201546001600160401b03600160401b9091048116908516105b15620016ff5760405163cb23ebdf60e01b815260040160405180910390fd5b805b846001600160401b0316816001600160401b0316146200179a576001600160401b038082165f908152600385016020526040902060010154600160401b900481169086168110156200176657604051639753965f60e01b815260040160405180910390fd5b6001600160401b039091165f908152600384016020526040812090815560010180546001600160801b031916905562001701565b6006830180546001600160401b0319166001600160401b038716179055620017c3858362004622565b608480545f90620017df9084906001600160401b031662004622565b82546101009290920a6001600160401b0381810219909316918316021790915586165f8181526003860160205260409081902054905163334d6f6760e11b8152600481019290925260248201526001600160a01b038816915063669adece906044015f604051808303815f87803b15801562001859575f80fd5b505af11580156200186c573d5f803e3d5ffd5b505050506001600160401b0385165f81815260038501602090815260409182902054915191825263ffffffff8716917f80a6d395a55aed8126079cb8247f0a6848b1440ca2cdca3b4386f250c3529402910160405180910390a3505050505050565b5f9182526034602090815260408084206001600160a01b0393909316845291905290205460ff1690565b5f805160206200520e833981519152620019128162002c9a565b6001600160401b0385165f9081526083602052604090205463ffffffff16156200194f576040516337c8fe0960e11b815260040160405180910390fd5b63ffffffff6001600160401b03861611156200197e57604051634c753f5760e01b815260040160405180910390fd5b6001600160a01b0388165f9081526082602052604090205463ffffffff1615620019bb57604051630d409b9360e41b815260040160405180910390fd5b608080545f91908290620019d59063ffffffff166200450b565b91906101000a81548163ffffffff021916908363ffffffff160217905590508060835f886001600160401b03166001600160401b031681526020019081526020015f205f6101000a81548163ffffffff021916908363ffffffff1602179055508060825f8b6001600160a01b03166001600160a01b031681526020019081526020015f205f6101000a81548163ffffffff021916908363ffffffff1602179055505f60815f8363ffffffff1663ffffffff1681526020019081526020015f20905089815f015f6101000a8154816001600160a01b0302191690836001600160a01b03160217905550878160010160146101000a8154816001600160401b0302191690836001600160401b0316021790555088816001015f6101000a8154816001600160a01b0302191690836001600160a01b0316021790555086815f0160146101000a8154816001600160401b0302191690836001600160401b03160217905550848160070160106101000a81548160ff0219169083600181111562001b5f5762001b5f62003be7565b0217905550600185600181111562001b7b5762001b7b62003be7565b0362001b9557600981018490556005810186905562001ba8565b5f80805260028201602052604090208690555b8163ffffffff167fd490df184152edba8455dac3228134939c71f8cb4c8f310c3145dec9037147ac898c8a895f8a60405162001bea9695949392919062004645565b60405180910390a250505050505050505050565b5f807f00000000000000000000000000000000000000000000000000000000000000006001600160a01b03166370a08231306040518263ffffffff1660e01b815260040162001c4e919062004182565b602060405180830381865afa15801562001c6a573d5f803e3d5ffd5b505050506040513d601f19601f8201168201806040525081019062001c90919062004692565b6084549091505f9062001cb6906001600160401b03600160401b82048116911662004622565b6001600160401b03169050805f0362001cd1575f9250505090565b62001cdd8183620046be565b9250505090565b606f545f9060ff161562001d0b57604051630bc011ff60e21b815260040160405180910390fd5b335f9081526082602052604081205463ffffffff169081900362001d42576040516371653c1560e01b815260040160405180910390fd5b836001600160401b03165f0362001d6c57604051632590ccf960e01b815260040160405180910390fd5b63ffffffff81165f908152608160205260408120608480549192879262001d9e9084906001600160401b0316620044c7565b82546101009290920a6001600160401b0381810219909316918316021790915560068301541690505f62001dd38783620044c7565b6006840180546001600160401b038381166001600160401b03199092168217909255604080516060810182528a815242841660208083019182528886168385019081525f86815260038c018352859020935184559151600193909301805492518716600160401b026001600160801b03199093169390961692909217179093555190815291925063ffffffff8616917f1d9f30260051d51d70339da239ea7b080021adcaabfa71c9b0ea339a20cf9a25910160405180910390a29695505050505050565b63ffffffff84165f90815260816020526040902060609062001ebe908690868686620032db565b90505b949350505050565b6080545f9063ffffffff1680820362001ee357505f919050565b5f816001600160401b0381111562001eff5762001eff62003c70565b60405190808252806020026020018201604052801562001f29578160200160208202803683370190505b5090505f5b8281101562001f995760815f62001f47836001620045d3565b63ffffffff1663ffffffff1681526020019081526020015f206005015482828151811062001f795762001f79620045bf565b60209081029190910101528062001f9081620045e9565b91505062001f2e565b505f60205b83600114620021d9575f62001fb5600286620046d4565b62001fc2600287620046be565b62001fce9190620045d3565b90505f816001600160401b0381111562001fec5762001fec62003c70565b60405190808252806020026020018201604052801562002016578160200160208202803683370190505b5090505f5b828110156200218d5762002031600184620046ea565b811480156200204c575062002048600288620046d4565b6001145b15620020cc578562002060826002620044f1565b81518110620020735762002073620045bf565b6020026020010151856040516020016200208f92919062004700565b60405160208183030381529060405280519060200120828281518110620020ba57620020ba620045bf565b60200260200101818152505062002178565b85620020da826002620044f1565b81518110620020ed57620020ed620045bf565b602002602001015186826002620021059190620044f1565b62002112906001620045d3565b81518110620021255762002125620045bf565b60200260200101516040516020016200214092919062004700565b604051602081830303815290604052805190602001208282815181106200216b576200216b620045bf565b6020026020010181815250505b806200218481620045e9565b9150506200201b565b508094508195508384604051602001620021a992919062004700565b6040516020818303038152906040528051906020012093508280620021ce906200470e565b935050505062001f9e565b5f835f81518110620021ef57620021ef620045bf565b602002602001015190505f5b82811015620022745781846040516020016200221992919062004700565b60405160208183030381529060405280519060200120915083846040516020016200224692919062004700565b60405160208183030381529060405280519060200120935080806200226b90620045e9565b915050620021fb565b5095945050505050565b5f80516020620051ce833981519152620022988162002c9a565b607e80545f91908290620022b29063ffffffff166200450b565b91906101000a81548163ffffffff021916908363ffffffff16021790559050600180811115620022e657620022e662003be7565b866001811115620022fb57620022fb62003be7565b036200232757841562002321576040516363d722e760e01b815260040160405180910390fd5b62002347565b821562002347576040516363d722e760e01b815260040160405180910390fd5b6040518060e001604052808a6001600160a01b03168152602001896001600160a01b03168152602001886001600160401b0316815260200187600181111562002394576200239462003be7565b81525f602080830182905260408084018a9052606093840188905263ffffffff86168352607f825291829020845181546001600160a01b039182166001600160a01b03199091161782559185015160018281018054958801516001600160401b0316600160a01b026001600160e01b0319909616929094169190911793909317808355938501519093909260ff60e01b1990911690600160e01b90849081111562002443576200244362003be7565b02179055506080820151600182018054911515600160e81b0260ff60e81b1990921691909117905560a0820151600282015560c09091015160039091015560405163ffffffff8216907f9eaf2ecbddb14889c9e141a63175c55ac25e0cd7cdea312cdfbd0397976b383a90620024c7908c908c908c908c908c908c908c9062004726565b60405180910390a2505050505050505050565b5f805160206200516e833981519152620024f48162002c9a565b62002501848484620033c0565b50505050565b5f805160206200518e833981519152620025218162002c9a565b683635c9adc5dea000008211806200253c5750633b9aca0082105b156200255b57604051638586952560e01b815260040160405180910390fd5b60868290556040518281527ffb383653f53ee079978d0c9aff7aeff04a10166ce244cca9c9f9d8d96bed45b29060200160405180910390a15050565b620025a28262000d6c565b620025ad8162002c9a565b62000da28383620030af565b5f80516020620051ee833981519152620025d38162002c9a565b608780546001600160401b031916426001600160401b031617905560408051636de0b4bb60e11b815290517f00000000000000000000000000000000000000000000000000000000000000006001600160a01b03169163dbc16976916004808301925f92919082900301818387803b1580156200264e575f80fd5b505af115801562002661573d5f803e3d5ffd5b505050506200266f62003696565b50565b336001600160a01b0316826001600160a01b031663f851a4406040518163ffffffff1660e01b81526004016020604051808303815f875af1158015620026ba573d5f803e3d5ffd5b505050506040513d601f19601f82011682018060405250810190620026e0919062004604565b6001600160a01b031614620027085760405163696072e960e01b815260040160405180910390fd5b6001600160a01b0382165f9081526082602090815260408083205463ffffffff1683526081909152902060068101546001600160401b03808216600160401b90920416146200276a5760405163664316a560e11b815260040160405180910390fd5b600781015463ffffffff8316600160401b9091046001600160401b031610620027a657604051633e37e23360e01b815260040160405180910390fd5b604080515f81526020810190915262000da29084908490620033c0565b5f805160206200528e833981519152620027dd8162002c9a565b63ffffffff87165f90815260816020526040902060016007820154600160801b900460ff16600181111562002816576200281662003be7565b146200283557604051633a64d97360e01b815260040160405180910390fd5b6040516312bd9b1960e11b8152600481018890527f00000000000000000000000000000000000000000000000000000000000000006001600160a01b03169063257b3632906024016020604051808303815f875af11580156200289a573d5f803e3d5ffd5b505050506040513d601f19601f82011682018060405250810190620028c0919062004692565b5f03620028e0576040516373bd668d60e01b815260040160405180910390fd5b5f620028f089838a8a8a620032db565b6001830154600984015460405163020a49e360e51b81529293506001600160a01b03909116916341493c6091620029309185908a908a9060040162004789565b5f6040518083038186803b15801562002947575f80fd5b505afa1580156200295a573d5f803e3d5ffd5b505060848054600160801b600160c01b031916600160801b426001600160401b031602179055505060058201879055600882018690557f00000000000000000000000000000000000000000000000000000000000000006001600160a01b03166333d6247d620029c962001ec9565b6040518263ffffffff1660e01b8152600401620029e891815260200190565b5f604051808303815f87803b15801562002a00575f80fd5b505af115801562002a13573d5f803e3d5ffd5b505060405133925063ffffffff8c1691505f805160206200514e8339815191529062002a45905f9081908d9062004492565b60405180910390a3505050505050505050565b62002abd60408051610180810182525f80825260208201819052918101829052606081018290526080810182905260a0810182905260c0810182905260e081018290526101008101829052610120810182905261014081018290529061016082015290565b63ffffffff82165f9081526081602090815260409182902080546001600160a01b038082168652600160a01b918290046001600160401b039081169487019490945260018084015491821695870195909552048216606085015260058101546080850152600681015480831660a0860152600160401b808204841660c0870152600160801b808304851660e0880152600160c01b9092048416610100870152600783015480851661012088015290810490931661014086015290926101608501929190910460ff169081111562002b985762002b9862003be7565b9081600181111562002bae5762002bae62003be7565b8152505050919050565b5f54610100900460ff1662000d6a5760405162461bcd60e51b815260206004820152602b60248201527f496e697469616c697a61626c653a20636f6e7472616374206973206e6f74206960448201526a6e697469616c697a696e6760a81b606482015260840162000896565b62000ddd828262003044565b5f62002c3c8362000d6c565b5f84815260346020526040808220600101859055519192508391839186917fbd79b86ffe0ab8e8776151514217cd7cacd52c909f66475c3af44e129f0b00ff9190a4505050565b60060154600160401b90046001600160401b031690565b6200266f8133620036ee565b5f8062002cb38962002c83565b60078a01549091506001600160401b03908116908916101562002ce95760405163ead1340b60e01b815260040160405180910390fd5b6001600160401b0388165f90815260028a01602052604090205491508162002d24576040516324cbdcc360e11b815260040160405180910390fd5b806001600160401b0316886001600160401b0316111562002d5857604051630f2b74f160e11b815260040160405180910390fd5b806001600160401b0316876001600160401b03161162002d8b5760405163b9b18f5760e01b815260040160405180910390fd5b5f62002d9c8a8a8a8a878b620031a1565b90505f7f30644e72e131a029b85045b68181585d2833e84879b9709143e1f593f000000160028360405162002dd29190620047d6565b602060405180830381855afa15801562002dee573d5f803e3d5ffd5b5050506040513d601f19601f8201168201806040525081019062002e13919062004692565b62002e1f9190620046d4565b60018c0154604080516020810182528381529051634890ed4560e11b81529293506001600160a01b0390911691639121da8a9162002e6391899190600401620047f3565b602060405180830381865afa15801562002e7f573d5f803e3d5ffd5b505050506040513d601f19601f8201168201806040525081019062002ea591906200482f565b62002ec3576040516309bde33960e01b815260040160405180910390fd5b5f62002ed0848b62004622565b905062002f2987826001600160401b031662002eeb62001bfe565b62002ef79190620044f1565b6001600160a01b037f000000000000000000000000000000000000000000000000000000000000000016919062003718565b80608460088282829054906101000a90046001600160401b031662002f4f9190620044c7565b82546101009290920a6001600160401b0381810219909316918316021790915560848054600160801b600160c01b031916600160801b428416021790558d546040516332c2d15360e01b8152918d166004830152602482018b90523360448301526001600160a01b031691506332c2d153906064016200132f565b7f00000000000000000000000000000000000000000000000000000000000000006001600160a01b0316632072f6c56040518163ffffffff1660e01b81526004015f604051808303815f87803b15801562003023575f80fd5b505af115801562003036573d5f803e3d5ffd5b5050505062000d6a6200376c565b620030508282620018ce565b62000ddd575f8281526034602090815260408083206001600160a01b0385168085529252808320805460ff1916600117905551339285917f2f8788117e7eff1d82e926ec794901d17c78024a50270940304540a733656f0d9190a45050565b620030bb8282620018ce565b1562000ddd575f8281526034602090815260408083206001600160a01b0385168085529252808320805460ff1916905551339285917ff6391f5c32d9c69d2a47ea670b442974b53935d1edc7fd64eb21e047a839171b9190a45050565b5f67ffffffff000000016001600160401b0383161080156200314e575067ffffffff00000001604083901c6001600160401b0316105b80156200316f575067ffffffff00000001608083901c6001600160401b0316105b801562003187575067ffffffff0000000160c083901c105b156200319557506001919050565b505f919050565b919050565b6001600160401b038086165f8181526003890160205260408082205493881682529020546060929115801590620031d6575081155b15620031f55760405163340c614f60e11b815260040160405180910390fd5b8062003214576040516366385b5160e01b815260040160405180910390fd5b6200321f8462003118565b6200323d576040516305dae44f60e21b815260040160405180910390fd5b885460018a01546040516001600160601b03193360601b16602082015260348101889052605481018590526001600160c01b031960c08c811b82166074840152600160a01b94859004811b8216607c84015293909204831b82166084820152608c810187905260ac810184905260cc81018990529189901b1660ec82015260f401604051602081830303815290604052925050509695505050505050565b60605f855f015f9054906101000a90046001600160a01b03166001600160a01b031663ad1edf346040518163ffffffff1660e01b8152600401602060405180830381865afa15801562003330573d5f803e3d5ffd5b505050506040513d601f19601f8201168201806040525081019062003356919062004692565b60058701546008880154604080516020810193909352820152606081018790526001600160e01b031960e08a901b1660808201526084810182905260a4810186905260c4810185905290915060e40160405160208183030381529060405291505095945050505050565b63ffffffff82161580620033df5750607e5463ffffffff908116908316115b15620033fe57604051637512e5cb60e01b815260040160405180910390fd5b6001600160a01b0383165f9081526082602052604081205463ffffffff16908190036200343e576040516374a086a360e01b815260040160405180910390fd5b63ffffffff8181165f908152608160205260409020600781015490918516600160401b9091046001600160401b0316036200348c57604051634f61d51960e01b815260040160405180910390fd5b63ffffffff84165f908152607f60205260409020600180820154600160e81b900460ff1615159003620034d257604051633b8d3d9960e01b815260040160405180910390fd5b600181810154600160e01b900460ff1690811115620034f557620034f562003be7565b6007830154600160801b900460ff16600181111562003518576200351862003be7565b146200353757604051635aa0d5f160e11b815260040160405180910390fd5b6001808201805491840180546001600160a01b031981166001600160a01b03909416938417825591546001600160401b03600160a01b9182900416026001600160e01b031990921690921717905560038101546009830155600782018054600160401b63ffffffff881602600160401b600160801b03199091161790555f620035c08462000ac3565b6007840180546001600160401b0319166001600160401b038316179055825460405163278f794360e11b81529192506001600160a01b0389811692634f1ef2869262003613921690899060040162004850565b5f604051808303815f87803b1580156200362b575f80fd5b505af11580156200363e573d5f803e3d5ffd5b50506040805163ffffffff8a811682526001600160401b0386166020830152881693507ff585e04c05d396901170247783d3e5f0ee9c1df23072985b50af089f5e48b19d92500160405180910390a250505050505050565b606f5460ff16620036ba57604051635386698160e01b815260040160405180910390fd5b606f805460ff191690556040517f1e5e34eea33501aecf2ebec9fe0e884a40804275ea7fe10b2ba084c8374308b3905f90a1565b620036fa8282620018ce565b62000ddd57604051637615be1f60e11b815260040160405180910390fd5b604080516001600160a01b038416602482015260448082018490528251808303909101815260649091019091526020810180516001600160e01b031663a9059cbb60e01b17905262000da2908490620037c8565b606f5460ff16156200379157604051630bc011ff60e21b815260040160405180910390fd5b606f805460ff191660011790556040517f2261efe5aef6fedc1fd1550b25facc9181745623049c7901287030b9ad1a5497905f90a1565b5f6200381e826040518060400160405280602081526020017f5361666545524332303a206c6f772d6c6576656c2063616c6c206661696c6564815250856001600160a01b0316620038a09092919063ffffffff16565b80519091501562000da257808060200190518101906200383f91906200482f565b62000da25760405162461bcd60e51b815260206004820152602a60248201527f5361666545524332303a204552433230206f7065726174696f6e20646964206e6044820152691bdd081cdd58d8d9595960b21b606482015260840162000896565b606062001ec184845f85855f80866001600160a01b03168587604051620038c89190620047d6565b5f6040518083038185875af1925050503d805f811462003904576040519150601f19603f3d011682016040523d82523d5f602084013e62003909565b606091505b5091509150620014c58783838760608315620039895782515f0362003981576001600160a01b0385163b620039815760405162461bcd60e51b815260206004820152601d60248201527f416464726573733a2063616c6c20746f206e6f6e2d636f6e7472616374000000604482015260640162000896565b508162001ec1565b62001ec18383815115620039a05781518083602001fd5b8060405162461bcd60e51b815260040162000896919062003f93565b6108b8806200487683390190565b6001600160401b03169052565b6001600160a01b03811681146200266f575f80fd5b80356001600160401b03811681146200319c575f80fd5b5f805f805f8060c0878903121562003a19575f80fd5b863562003a2681620039d7565b955062003a3660208801620039ec565b945062003a4660408801620039ec565b9350606087013562003a5881620039d7565b9250608087013562003a6a81620039d7565b915060a087013562003a7c81620039d7565b809150509295509295509295565b803563ffffffff811681146200319c575f80fd5b5f6020828403121562003aaf575f80fd5b62003aba8262003a8a565b9392505050565b5f805f805f805f806103e0808a8c03121562003adb575f80fd5b62003ae68a62003a8a565b985062003af660208b01620039ec565b975062003b0660408b01620039ec565b965062003b1660608b01620039ec565b955060808a0135945060a08a0135935060c08a013562003b3681620039d7565b92508981018b101562003b47575f80fd5b5060e0890190509295985092959890939650565b5f6020828403121562003b6c575f80fd5b5035919050565b5f806040838503121562003b85575f80fd5b62003b908362003a8a565b915062003ba060208401620039ec565b90509250929050565b5f806040838503121562003bbb575f80fd5b82359150602083013562003bcf81620039d7565b809150509250929050565b6001600160a01b03169052565b634e487b7160e01b5f52602160045260245ffd5b6002811062003c1857634e487b7160e01b5f52602160045260245ffd5b9052565b6001600160a01b038881168252871660208201526001600160401b038616604082015260e0810162003c52606083018762003bfb565b931515608082015260a081019290925260c090910152949350505050565b634e487b7160e01b5f52604160045260245ffd5b604051601f8201601f191681016001600160401b038111828210171562003caf5762003caf62003c70565b604052919050565b5f6001600160401b0383111562003cd25762003cd262003c70565b62003ce7601f8401601f191660200162003c84565b905082815283838301111562003cfb575f80fd5b828260208301375f602084830101529392505050565b5f82601f83011262003d21575f80fd5b62003aba8383356020850162003cb7565b5f805f805f805f60e0888a03121562003d49575f80fd5b62003d548862003a8a565b965062003d6460208901620039ec565b9550604088013562003d7681620039d7565b9450606088013562003d8881620039d7565b9350608088013562003d9a81620039d7565b925060a08801356001600160401b038082111562003db6575f80fd5b62003dc48b838c0162003d11565b935060c08a013591508082111562003dda575f80fd5b5062003de98a828b0162003d11565b91505092959891949750929550565b5f6101808201905062003e0d82845162003bda565b602083015162003e216020840182620039ca565b50604083015162003e36604084018262003bda565b50606083015162003e4b6060840182620039ca565b506080830151608083015260a083015162003e6a60a0840182620039ca565b5060c083015162003e7f60c0840182620039ca565b5060e083015162003e9460e0840182620039ca565b506101008084015162003eaa82850182620039ca565b50506101208084015162003ec18285018262003bfb565b5050610140838101519083015261016092830151929091019190915290565b5f805f805f8060c0878903121562003ef6575f80fd5b62003f018762003a8a565b955062003f1160208801620039ec565b945062003f2160408801620039ec565b9350606087013592506080870135915060a087013590509295509295509295565b5f5b8381101562003f5e57818101518382015260200162003f44565b50505f910152565b5f815180845262003f7f81602086016020860162003f42565b601f01601f19169290920160200192915050565b602081525f62003aba602083018462003f66565b5f6020828403121562003fb8575f80fd5b62003aba82620039ec565b5f602080838503121562003fd5575f80fd5b82356001600160401b038082111562003fec575f80fd5b818501915085601f83011262004000575f80fd5b81358181111562004015576200401562003c70565b8060051b91506200402884830162003c84565b818152918301840191848101908884111562004042575f80fd5b938501935b83851015620040625784358252938501939085019062004047565b98975050505050505050565b5f806040838503121562004080575f80fd5b823562003b9081620039d7565b8035600281106200319c575f80fd5b5f805f805f805f60e0888a031215620040b3575f80fd5b8735620040c081620039d7565b96506020880135620040d281620039d7565b9550620040e260408901620039ec565b9450620040f260608901620039ec565b9350608088013592506200410960a089016200408d565b915060c0880135905092959891949750929550565b5f806040838503121562004130575f80fd5b6200413b83620039ec565b946020939093013593505050565b5f805f80608085870312156200415d575f80fd5b620041688562003a8a565b966020860135965060408601359560600135945092505050565b6001600160a01b0391909116815260200190565b5f805f805f805f60e0888a031215620041ad575f80fd5b8735620041ba81620039d7565b96506020880135620041cc81620039d7565b9550620041dc60408901620039ec565b9450620041ec606089016200408d565b93506080880135925060a08801356001600160401b038111156200420e575f80fd5b6200421c8a828b0162003d11565b92505060c0880135905092959891949750929550565b5f805f6060848603121562004245575f80fd5b83356200425281620039d7565b9250620042626020850162003a8a565b915060408401356001600160401b038111156200427d575f80fd5b8401601f810186136200428e575f80fd5b6200429f8682356020840162003cb7565b9150509250925092565b5f60208284031215620042ba575f80fd5b813562003aba81620039d7565b5f8060408385031215620042d9575f80fd5b8235620042e681620039d7565b915062003ba06020840162003a8a565b5f805f805f8060a087890312156200430c575f80fd5b620043178762003a8a565b955060208701359450604087013593506060870135925060808701356001600160401b038082111562004348575f80fd5b818901915089601f8301126200435c575f80fd5b8135818111156200436b575f80fd5b8a60208285010111156200437d575f80fd5b6020830194508093505050509295509295509295565b5f61018082019050620043a882845162003bda565b6020830151620043bc6020840182620039ca565b506040830151620043d1604084018262003bda565b506060830151620043e66060840182620039ca565b506080830151608083015260a08301516200440560a0840182620039ca565b5060c08301516200441a60c0840182620039ca565b5060e08301516200442f60e0840182620039ca565b50610100808401516200444582850182620039ca565b5050610120808401516200445c82850182620039ca565b5050610140808401516200447382850182620039ca565b5050610160808401516200448a8285018262003bfb565b505092915050565b6001600160401b039390931683526020830191909152604082015260600190565b634e487b7160e01b5f52601160045260245ffd5b6001600160401b03818116838216019080821115620044ea57620044ea620044b3565b5092915050565b808202811582820484141762000ae25762000ae2620044b3565b5f63ffffffff808316818103620045265762004526620044b3565b6001019392505050565b6001600160a01b038481168252831660208201526060604082018190525f9062001ebe9083018462003f66565b6001600160a01b038781168252868116602083015263ffffffff861660408301528416606082015260c0608082018190525f906200459e9083018562003f66565b82810360a0840152620045b2818562003f66565b9998505050505050505050565b634e487b7160e01b5f52603260045260245ffd5b8082018082111562000ae25762000ae2620044b3565b5f60018201620045fd57620045fd620044b3565b5060010190565b5f6020828403121562004615575f80fd5b815162003aba81620039d7565b6001600160401b03828116828216039080821115620044ea57620044ea620044b3565b6001600160401b0387811682526001600160a01b0387166020830152858116604083015260c08201906200467d606084018762003bfb565b93909316608082015260a00152949350505050565b5f60208284031215620046a3575f80fd5b5051919050565b634e487b7160e01b5f52601260045260245ffd5b5f82620046cf57620046cf620046aa565b500490565b5f82620046e557620046e5620046aa565b500690565b8181038181111562000ae25762000ae2620044b3565b918252602082015260400190565b5f816200471f576200471f620044b3565b505f190190565b6001600160a01b038881168252871660208201526001600160401b03861660408201525f62004759606083018762003bfb565b84608083015260e060a08301526200477560e083018562003f66565b90508260c083015298975050505050505050565b848152606060208201525f620047a3606083018662003f66565b8281036040840152838152838560208301375f602085830101526020601f19601f86011682010191505095945050505050565b5f8251620047e981846020870162003f42565b9190910192915050565b6103208101610300808584378201835f5b60018110156200482557815183526020928301929091019060010162004804565b5050509392505050565b5f6020828403121562004840575f80fd5b8151801515811462003aba575f80fd5b6001600160a01b03831681526040602082018190525f9062001ec19083018462003f6656fe60a06040526040516108b83803806108b883398101604081905261002291610349565b828161002e8282610056565b50506001600160a01b03821660805261004e61004960805190565b6100b4565b50505061042e565b61005f82610121565b6040516001600160a01b038316907fbc7cd75a20ee27fd9adebab32041f755214dbc6bffa90cc0225b39da2e5c2d3b905f90a28051156100a8576100a3828261019f565b505050565b6100b0610212565b5050565b7f7e644d79422f17c01e4894b5f4f588d331ebfa28653d42ae832dc59e38c9798f6100f35f80516020610898833981519152546001600160a01b031690565b604080516001600160a01b03928316815291841660208301520160405180910390a161011e81610233565b50565b806001600160a01b03163b5f0361015b57604051634c9c8ce360e01b81526001600160a01b03821660048201526024015b60405180910390fd5b807f360894a13ba1a3210667c828492db98dca3e2076cc3735a920a3ca505d382bbc5b80546001600160a01b0319166001600160a01b039290921691909117905550565b60605f80846001600160a01b0316846040516101bb9190610413565b5f60405180830381855af49150503d805f81146101f3576040519150601f19603f3d011682016040523d82523d5f602084013e6101f8565b606091505b509092509050610209858383610270565b95945050505050565b34156102315760405163b398979f60e01b815260040160405180910390fd5b565b6001600160a01b03811661025c57604051633173bdd160e11b81525f6004820152602401610152565b805f8051602061089883398151915261017e565b60608261028557610280826102cf565b6102c8565b815115801561029c57506001600160a01b0384163b155b156102c557604051639996b31560e01b81526001600160a01b0385166004820152602401610152565b50805b9392505050565b8051156102df5780518082602001fd5b604051630a12f52160e11b815260040160405180910390fd5b80516001600160a01b038116811461030e575f80fd5b919050565b634e487b7160e01b5f52604160045260245ffd5b5f5b83811015610341578181015183820152602001610329565b50505f910152565b5f805f6060848603121561035b575f80fd5b610364846102f8565b9250610372602085016102f8565b60408501519092506001600160401b038082111561038e575f80fd5b818601915086601f8301126103a1575f80fd5b8151818111156103b3576103b3610313565b604051601f8201601f19908116603f011681019083821181831017156103db576103db610313565b816040528281528960208487010111156103f3575f80fd5b610404836020830160208801610327565b80955050505050509250925092565b5f8251610424818460208701610327565b9190910192915050565b6080516104536104455f395f601001526104535ff3fe608060405261000c61000e565b005b7f00000000000000000000000000000000000000000000000000000000000000006001600160a01b03163303610069575f356001600160e01b03191663278f794360e11b146100615761005f61006d565b565b61005f61007d565b61005f5b61005f6100786100ab565b6100cf565b5f8061008c36600481846102ba565b81019061009991906102f5565b915091506100a782826100ed565b5050565b5f6100ca5f805160206103fe833981519152546001600160a01b031690565b905090565b365f80375f80365f845af43d5f803e8080156100e9573d5ff35b3d5ffd5b6100f682610147565b6040516001600160a01b038316907fbc7cd75a20ee27fd9adebab32041f755214dbc6bffa90cc0225b39da2e5c2d3b905f90a280511561013f5761013a82826101aa565b505050565b6100a761021c565b806001600160a01b03163b5f0361017c5780604051634c9c8ce360e01b815260040161017391906103bd565b60405180910390fd5b5f805160206103fe83398151915280546001600160a01b0319166001600160a01b0392909216919091179055565b60605f80846001600160a01b0316846040516101c691906103d1565b5f60405180830381855af49150503d805f81146101fe576040519150601f19603f3d011682016040523d82523d5f602084013e610203565b606091505b509150915061021385838361023b565b95945050505050565b341561005f5760405163b398979f60e01b815260040160405180910390fd5b6060826102505761024b82610291565b61028a565b815115801561026757506001600160a01b0384163b155b156102875783604051639996b31560e01b815260040161017391906103bd565b50805b9392505050565b8051156102a15780518082602001fd5b604051630a12f52160e11b815260040160405180910390fd5b5f80858511156102c8575f80fd5b838611156102d4575f80fd5b5050820193919092039150565b634e487b7160e01b5f52604160045260245ffd5b5f8060408385031215610306575f80fd5b82356001600160a01b038116811461031c575f80fd5b915060208301356001600160401b0380821115610337575f80fd5b818501915085601f83011261034a575f80fd5b81358181111561035c5761035c6102e1565b604051601f8201601f19908116603f01168101908382118183101715610384576103846102e1565b8160405282815288602084870101111561039c575f80fd5b826020860160208301375f6020848301015280955050505050509250929050565b6001600160a01b0391909116815260200190565b5f82515f5b818110156103f057602081860181015185830152016103d6565b505f92019182525091905056fe360894a13ba1a3210667c828492db98dca3e2076cc3735a920a3ca505d382bbca2646970667358221220d3b91b386436af95579d7d767b3c6e83ae79b09bd8dd9344bddb95185404c56564736f6c63430008140033b53127684a568b3173ae13b9f8a6016e243e63b6e8ee1178d6a717850b5d610373cb0569fdbea2544dae03fdb2fe10eda92a72a2e8cd2bd496e85b762505a3f0d1ec3a1216f08b6eff72e169ceb548b782db18a6614852618d86bb19f3f9b0d366156603fe29d13f97c6f3e3dff4ef71919f9aa61c555be0182d954e94221aac8cf807f6970720f8e2c208c7c5037595982c7bd9ed93c380d09df743d0dcc3fbab66e11c4f712cd06ab11bf9339b48bef39e12d4a22eeef71d2860a0c90482bdac75d24dbb35ea80e25fab167da4dea46c1915260426570db84f184891f5f59062ba6ba2ffed8cfe316b583325ea41ac6e7ba9e5864d2bc6fabba7ac26d2f0f43dfe277d2a2c04b75fb2eb3743fa00005ae3678a20c299e65fdf4df76517f68e9b6f082d8d3644ae2f24a3c32e356d6f2d9b2844d9b26164fbc82663ff285951141f8f32ce6198eee741f695cec728bfd32d289f1acf73621fb303581000545ea0fab074aba36a6fa69f1a83ee86e5abfb8433966eb57efb13dc2fc2f24ddd08084e94f375e9d647f87f5b2ceffba1e062c70f6009fdbcf80291e803b5c9edd4a2646970667358221220cd6494d1f4b466e41b5ab370eb9fc0af2995752f9a6102811d22d26d63406e4f64736f6c63430008140033",
  "linkReferences": {},
  "deployedLinkReferences": {}
}