{
  "_format": "hh-sol-artifact-1",
  "contractName": "PolygonZkEVMBridgeMock",
  "sourceName": "contracts/mocks/PolygonZkEVMBridgeMock.sol",
  "abi": [
    {
      "anonymous": false,
      "inputs": [
        {
          "indexed": false,
          "internalType": "uint8",
          "name": "leafType",
          "type": "uint8"
        },
        {
          "indexed": false,
          "internalType": "uint32",
          "name": "originNetwork",
          "type": "uint32"
        },
        {
          "indexed": false,
          "internalType": "address",
          "name": "originAddress",
          "type": "address"
        },
        {
          "indexed": false,
          "internalType": "uint32",
          "name": "destinationNetwork",
          "type": "uint32"
        },
        {
          "indexed": false,
          "internalType": "address",
          "name": "destinationAddress",
          "type": "address"
        },
        {
          "indexed": false,
          "internalType": "uint256",
          "name": "amount",
          "type": "uint256"
        },
        {
          "indexed": false,
          "internalType": "bytes",
          "name": "metadata",
          "type": "bytes"
        },
        {
          "indexed": false,
          "internalType": "uint32",
          "name": "depositCount",
          "type": "uint32"
        }
      ],
      "name": "BridgeEvent",
      "type": "event"
    },
    {
      "anonymous": false,
      "inputs": [
        {
          "indexed": false,
          "internalType": "uint32",
          "name": "index",
          "type": "uint32"
        },
        {
          "indexed": false,
          "internalType": "uint32",
          "name": "originNetwork",
          "type": "uint32"
        },
        {
          "indexed": false,
          "internalType": "address",
          "name": "originAddress",
          "type": "address"
        },
        {
          "indexed": false,
          "internalType": "address",
          "name": "destinationAddress",
          "type": "address"
        },
        {
          "indexed": false,
          "internalType": "uint256",
          "name": "amount",
          "type": "uint256"
        }
      ],
      "name": "ClaimEvent",
      "type": "event"
    },
    {
      "anonymous": false,
      "inputs": [],
      "name": "EmergencyStateActivated",
      "type": "event"
    },
    {
      "anonymous": false,
      "inputs": [],
      "name": "EmergencyStateDeactivated",
      "type": "event"
    },
    {
      "anonymous": false,
      "inputs": [
        {
          "indexed": false,
          "internalType": "uint8",
          "name": "version",
          "type": "uint8"
        }
      ],
      "name": "Initialized",
      "type": "event"
    },
    {
      "anonymous": false,
      "inputs": [
        {
          "indexed": false,
          "internalType": "uint32",
          "name": "originNetwork",
          "type": "uint32"
        },
        {
          "indexed": false,
          "internalType": "address",
          "name": "originTokenAddress",
          "type": "address"
        },
        {
          "indexed": false,
          "internalType": "address",
          "name": "wrappedTokenAddress",
          "type": "address"
        },
        {
          "indexed": false,
          "internalType": "bytes",
          "name": "metadata",
          "type": "bytes"
        }
      ],
      "name": "NewWrappedToken",
      "type": "event"
    },
    {
      "anonymous": false,
      "inputs": [
        {
          "indexed": true,
          "internalType": "address",
          "name": "previousOwner",
          "type": "address"
        },
        {
          "indexed": true,
          "internalType": "address",
          "name": "newOwner",
          "type": "address"
        }
      ],
      "name": "OwnershipTransferred",
      "type": "event"
    },
    {
      "inputs": [],
      "name": "LEAF_TYPE_ASSET",
      "outputs": [
        {
          "internalType": "uint8",
          "name": "",
          "type": "uint8"
        }
      ],
      "stateMutability": "view",
      "type": "function"
    },
    {
      "inputs": [],
      "name": "LEAF_TYPE_MESSAGE",
      "outputs": [
        {
          "internalType": "uint8",
          "name": "",
          "type": "uint8"
        }
      ],
      "stateMutability": "view",
      "type": "function"
    },
    {
      "inputs": [],
      "name": "MAINNET_NETWORK_ID",
      "outputs": [
        {
          "internalType": "uint32",
          "name": "",
          "type": "uint32"
        }
      ],
      "stateMutability": "view",
      "type": "function"
    },
    {
      "inputs": [],
      "name": "activateEmergencyState",
      "outputs": [],
      "stateMutability": "nonpayable",
      "type": "function"
    },
    {
      "inputs": [
        {
          "internalType": "address",
          "name": "token",
          "type": "address"
        },
        {
          "internalType": "uint32",
          "name": "destinationNetwork",
          "type": "uint32"
        },
        {
          "internalType": "address",
          "name": "destinationAddress",
          "type": "address"
        },
        {
          "internalType": "uint256",
          "name": "amount",
          "type": "uint256"
        },
        {
          "internalType": "bytes",
          "name": "permitData",
          "type": "bytes"
        }
      ],
      "name": "bridgeAsset",
      "outputs": [],
      "stateMutability": "payable",
      "type": "function"
    },
    {
      "inputs": [
        {
          "internalType": "uint32",
          "name": "destinationNetwork",
          "type": "uint32"
        },
        {
          "internalType": "address",
          "name": "destinationAddress",
          "type": "address"
        },
        {
          "internalType": "bytes",
          "name": "metadata",
          "type": "bytes"
        }
      ],
      "name": "bridgeMessage",
      "outputs": [],
      "stateMutability": "payable",
      "type": "function"
    },
    {
      "inputs": [
        {
          "internalType": "bytes32[]",
          "name": "smtProof",
          "type": "bytes32[]"
        },
        {
          "internalType": "uint32",
          "name": "index",
          "type": "uint32"
        },
        {
          "internalType": "bytes32",
          "name": "mainnetExitRoot",
          "type": "bytes32"
        },
        {
          "internalType": "bytes32",
          "name": "rollupExitRoot",
          "type": "bytes32"
        },
        {
          "internalType": "uint32",
          "name": "originNetwork",
          "type": "uint32"
        },
        {
          "internalType": "address",
          "name": "originTokenAddress",
          "type": "address"
        },
        {
          "internalType": "uint32",
          "name": "destinationNetwork",
          "type": "uint32"
        },
        {
          "internalType": "address",
          "name": "destinationAddress",
          "type": "address"
        },
        {
          "internalType": "uint256",
          "name": "amount",
          "type": "uint256"
        },
        {
          "internalType": "bytes",
          "name": "metadata",
          "type": "bytes"
        }
      ],
      "name": "claimAsset",
      "outputs": [],
      "stateMutability": "nonpayable",
      "type": "function"
    },
    {
      "inputs": [
        {
          "internalType": "bytes32[]",
          "name": "smtProof",
          "type": "bytes32[]"
        },
        {
          "internalType": "uint32",
          "name": "index",
          "type": "uint32"
        },
        {
          "internalType": "bytes32",
          "name": "mainnetExitRoot",
          "type": "bytes32"
        },
        {
          "internalType": "bytes32",
          "name": "rollupExitRoot",
          "type": "bytes32"
        },
        {
          "internalType": "uint32",
          "name": "originNetwork",
          "type": "uint32"
        },
        {
          "internalType": "address",
          "name": "originAddress",
          "type": "address"
        },
        {
          "internalType": "uint32",
          "name": "destinationNetwork",
          "type": "uint32"
        },
        {
          "internalType": "address",
          "name": "destinationAddress",
          "type": "address"
        },
        {
          "internalType": "uint256",
          "name": "amount",
          "type": "uint256"
        },
        {
          "internalType": "bytes",
          "name": "metadata",
          "type": "bytes"
        }
      ],
      "name": "claimMessage",
      "outputs": [],
      "stateMutability": "nonpayable",
      "type": "function"
    },
    {
      "inputs": [
        {
          "internalType": "uint256",
          "name": "",
          "type": "uint256"
        }
      ],
      "name": "claimedBitMap",
      "outputs": [
        {
          "internalType": "uint256",
          "name": "",
          "type": "uint256"
        }
      ],
      "stateMutability": "view",
      "type": "function"
    },
    {
      "inputs": [],
      "name": "deactivateEmergencyState",
      "outputs": [],
      "stateMutability": "nonpayable",
      "type": "function"
    },
    {
      "inputs": [],
      "name": "depositCount",
      "outputs": [
        {
          "internalType": "uint256",
          "name": "",
          "type": "uint256"
        }
      ],
      "stateMutability": "view",
      "type": "function"
    },
    {
      "inputs": [],
      "name": "getDepositRoot",
      "outputs": [
        {
          "internalType": "bytes32",
          "name": "",
          "type": "bytes32"
        }
      ],
      "stateMutability": "view",
      "type": "function"
    },
    {
      "inputs": [
        {
          "internalType": "uint8",
          "name": "leafType",
          "type": "uint8"
        },
        {
          "internalType": "uint32",
          "name": "originNetwork",
          "type": "uint32"
        },
        {
          "internalType": "address",
          "name": "originAddress",
          "type": "address"
        },
        {
          "internalType": "uint32",
          "name": "destinationNetwork",
          "type": "uint32"
        },
        {
          "internalType": "address",
          "name": "destinationAddress",
          "type": "address"
        },
        {
          "internalType": "uint256",
          "name": "amount",
          "type": "uint256"
        },
        {
          "internalType": "bytes32",
          "name": "metadataHash",
          "type": "bytes32"
        }
      ],
      "name": "getLeafValue",
      "outputs": [
        {
          "internalType": "bytes32",
          "name": "",
          "type": "bytes32"
        }
      ],
      "stateMutability": "pure",
      "type": "function"
    },
    {
      "inputs": [
        {
          "internalType": "uint32",
          "name": "originNetwork",
          "type": "uint32"
        },
        {
          "internalType": "address",
          "name": "originTokenAddress",
          "type": "address"
        }
      ],
      "name": "getTokenWrappedAddress",
      "outputs": [
        {
          "internalType": "address",
          "name": "",
          "type": "address"
        }
      ],
      "stateMutability": "view",
      "type": "function"
    },
    {
      "inputs": [],
      "name": "globalExitRootManager",
      "outputs": [
        {
          "internalType": "contract IPolygonZkEVMGlobalExitRoot",
          "name": "",
          "type": "address"
        }
      ],
      "stateMutability": "view",
      "type": "function"
    },
    {
      "inputs": [
        {
          "internalType": "uint32",
          "name": "_networkID",
          "type": "uint32"
        },
        {
          "internalType": "contract IPolygonZkEVMGlobalExitRoot",
          "name": "_globalExitRootManager",
          "type": "address"
        },
        {
          "internalType": "address",
          "name": "_polygonZkEVMaddress",
          "type": "address"
        }
      ],
      "name": "initialize",
      "outputs": [],
      "stateMutability": "nonpayable",
      "type": "function"
    },
    {
      "inputs": [
        {
          "internalType": "uint256",
          "name": "index",
          "type": "uint256"
        }
      ],
      "name": "isClaimed",
      "outputs": [
        {
          "internalType": "bool",
          "name": "",
          "type": "bool"
        }
      ],
      "stateMutability": "view",
      "type": "function"
    },
    {
      "inputs": [],
      "name": "isEmergencyState",
      "outputs": [
        {
          "internalType": "bool",
          "name": "",
          "type": "bool"
        }
      ],
      "stateMutability": "view",
      "type": "function"
    },
    {
      "inputs": [],
      "name": "maxEtherBridge",
      "outputs": [
        {
          "internalType": "uint256",
          "name": "",
          "type": "uint256"
        }
      ],
      "stateMutability": "view",
      "type": "function"
    },
    {
      "inputs": [],
      "name": "networkID",
      "outputs": [
        {
          "internalType": "uint32",
          "name": "",
          "type": "uint32"
        }
      ],
      "stateMutability": "view",
      "type": "function"
    },
    {
      "inputs": [],
      "name": "owner",
      "outputs": [
        {
          "internalType": "address",
          "name": "",
          "type": "address"
        }
      ],
      "stateMutability": "view",
      "type": "function"
    },
    {
      "inputs": [],
      "name": "polygonZkEVMaddress",
      "outputs": [
        {
          "internalType": "address",
          "name": "",
          "type": "address"
        }
      ],
      "stateMutability": "view",
      "type": "function"
    },
    {
      "inputs": [
        {
          "internalType": "uint32",
          "name": "originNetwork",
          "type": "uint32"
        },
        {
          "internalType": "address",
          "name": "originTokenAddress",
          "type": "address"
        },
        {
          "internalType": "string",
          "name": "name",
          "type": "string"
        },
        {
          "internalType": "string",
          "name": "symbol",
          "type": "string"
        },
        {
          "internalType": "uint8",
          "name": "decimals",
          "type": "uint8"
        }
      ],
      "name": "precalculatedWrapperAddress",
      "outputs": [
        {
          "internalType": "address",
          "name": "",
          "type": "address"
        }
      ],
      "stateMutability": "view",
      "type": "function"
    },
    {
      "inputs": [],
      "name": "renounceOwnership",
      "outputs": [],
      "stateMutability": "nonpayable",
      "type": "function"
    },
    {
      "inputs": [
        {
          "internalType": "uint256",
          "name": "_maxEtherBridge",
          "type": "uint256"
        }
      ],
      "name": "setMaxEtherBridge",
      "outputs": [],
      "stateMutability": "nonpayable",
      "type": "function"
    },
    {
      "inputs": [
        {
          "internalType": "uint32",
          "name": "_networkID",
          "type": "uint32"
        }
      ],
      "name": "setNetworkID",
      "outputs": [],
      "stateMutability": "nonpayable",
      "type": "function"
    },
    {
      "inputs": [
        {
          "internalType": "bytes32",
          "name": "",
          "type": "bytes32"
        }
      ],
      "name": "tokenInfoToWrappedToken",
      "outputs": [
        {
          "internalType": "address",
          "name": "",
          "type": "address"
        }
      ],
      "stateMutability": "view",
      "type": "function"
    },
    {
      "inputs": [
        {
          "internalType": "address",
          "name": "newOwner",
          "type": "address"
        }
      ],
      "name": "transferOwnership",
      "outputs": [],
      "stateMutability": "nonpayable",
      "type": "function"
    },
    {
      "inputs": [
        {
          "internalType": "bytes32",
          "name": "leafHash",
          "type": "bytes32"
        },
        {
          "internalType": "bytes32[]",
          "name": "smtProof",
          "type": "bytes32[]"
        },
        {
          "internalType": "uint32",
          "name": "index",
          "type": "uint32"
        },
        {
          "internalType": "bytes32",
          "name": "root",
          "type": "bytes32"
        }
      ],
      "name": "verifyMerkleProof",
      "outputs": [
        {
          "internalType": "bool",
          "name": "",
          "type": "bool"
        }
      ],
      "stateMutability": "pure",
      "type": "function"
    },
    {
      "inputs": [
        {
          "internalType": "address",
          "name": "",
          "type": "address"
        }
      ],
      "name": "wrappedTokenToTokenInfo",
      "outputs": [
        {
          "internalType": "uint32",
          "name": "originNetwork",
          "type": "uint32"
        },
        {
          "internalType": "address",
          "name": "originTokenAddress",
          "type": "address"
        }
      ],
      "stateMutability": "view",
      "type": "function"
    }
  ],
  "bytecode": "0x608060405234801561001057600080fd5b50614b99806100206000396000f3fe608060405260043610620001af5760003560e01c80637b6323c111620000e9578063bab161bf1162000090578063bab161bf1462000525578063d02103ca146200055f578063d96a15f71462000581578063dbc169761462000598578063ed6be5c914620005b0578063ee25560b14620005c7578063f2fde38b14620005f8578063ff634ed7146200061d57600080fd5b80637b6323c1146200041a57806381b1c174146200043f5780638da5cb5b146200047957806391e57e2d14620004995780639e34070f14620004b1578063a08e8a0814620004d6578063aaa13cc2146200050057600080fd5b8063318aee3d116200015a578063318aee3d14620002c557806334ac9cf214620003345780633ae0504714620003565780633e197043146200036e578063463855491462000393578063647c576c14620003b8578063715018a614620003dd5780637524b83814620003f557600080fd5b80630871e97114620001b457806315064c9614620001cd5780632072f6c514620001fe57806322e95f2c14620002165780632b5e42e714620002545780632c3f58cd14620002795780632dfdf0b5146200029e575b600080fd5b620001cb620001c536600462002784565b62000634565b005b348015620001da57600080fd5b50602254620001e99060ff1681565b60405190151581526020015b60405180910390f35b3480156200020b57600080fd5b50620001cb620006c9565b3480156200022357600080fd5b506200023b6200023536600462002810565b62000702565b6040516001600160a01b039091168152602001620001f5565b3480156200026157600080fd5b50620001cb620002733660046200284c565b62000755565b3480156200028657600080fd5b50620001cb6200029836600462002866565b62000764565b348015620002ab57600080fd5b50620002b660215481565b604051908152602001620001f5565b348015620002d257600080fd5b506200030f620002e43660046200288b565b60256020526000908152604090205463ffffffff81169064010000000090046001600160a01b031682565b6040805163ffffffff90931683526001600160a01b03909116602083015201620001f5565b3480156200034157600080fd5b506027546200023b906001600160a01b031681565b3480156200036357600080fd5b50620002b662000790565b3480156200037b57600080fd5b50620002b66200038d366004620028bb565b62000883565b348015620003a057600080fd5b50620001cb620003b236600462002a91565b62000910565b348015620003c557600080fd5b50620001cb620003d736600462002b77565b62000ab6565b348015620003ea57600080fd5b50620001cb62000c2b565b3480156200040257600080fd5b50620001e96200041436600462002bc7565b62000c41565b3480156200042757600080fd5b50620001cb6200043936600462002a91565b62000d3f565b3480156200044c57600080fd5b506200023b6200045e3660046200284c565b6024602052600090815260409020546001600160a01b031681565b3480156200048657600080fd5b50605a546001600160a01b03166200023b565b348015620004a657600080fd5b50620002b6608c5481565b348015620004be57600080fd5b50620001e9620004d03660046200284c565b620011a8565b348015620004e357600080fd5b50620004ed600081565b60405160ff9091168152602001620001f5565b3480156200050d57600080fd5b506200023b6200051f36600462002c2b565b620011ed565b3480156200053257600080fd5b506022546200054990610100900463ffffffff1681565b60405163ffffffff9091168152602001620001f5565b3480156200056c57600080fd5b506026546200023b906001600160a01b031681565b620001cb6200059236600462002cde565b62001304565b348015620005a557600080fd5b50620001cb620014b6565b348015620005bd57600080fd5b5062000549600081565b348015620005d457600080fd5b50620002b6620005e63660046200284c565b60236020526000908152604090205481565b3480156200060557600080fd5b50620001cb620006173660046200288b565b620014ed565b3480156200062a57600080fd5b50620004ed600181565b608c54341115620006b15760405162461bcd60e51b8152602060048201526047602482015260008051602062004b4483398151915260448201527f2043616e6e6f7420627269646765206d6f7265207468616e206d6178457468656064820152667242726964676560c81b608482015260a4015b60405180910390fd5b620006c18686868686866200156c565b505050505050565b6027546001600160a01b03163314620006f65760405162461bcd60e51b8152600401620006a89062002d45565b62000700620019dd565b565b60006024600084846040516020016200071d92919062002da2565b60408051601f19818403018152918152815160209283012083529082019290925201600020546001600160a01b031690505b92915050565b6200075f62001a3b565b608c55565b6200076e62001a3b565b6022805463ffffffff9092166101000264ffffffff0019909216919091179055565b602154600090819081805b60208110156200087a5782600116600103620007fb5760018160208110620007c757620007c762002dcc565b0154604080516020810192909252810185905260600160405160208183030381529060405280519060200120935062000828565b60408051602081018690529081018390526060016040516020818303038152906040528051906020012093505b6200083560028462002e0e565b60408051602081018590529081018490529093506060016040516020818303038152906040528051906020012091508080620008719062002e25565b9150506200079b565b50919392505050565b6040516001600160f81b031960f889901b1660208201526001600160e01b031960e088811b821660218401526001600160601b0319606089811b821660258601529188901b909216603984015285901b16603d8201526051810183905260718101829052600090609101604051602081830303815290604052805190602001209050979650505050505050565b60225460ff1615620009365760405162461bcd60e51b8152600401620006a89062002e41565b6200094c8a8a8a8a8a8a8a8a8a8a600162001a97565b6200095d8963ffffffff1662001d1c565b6000836001600160a01b031683878985604051602401620009819392919062002f06565b60408051601f198184030181529181526020820180516001600160e01b0316630c035af960e11b17905251620009b8919062002f41565b60006040518083038185875af1925050503d8060008114620009f7576040519150601f19603f3d011682016040523d82523d6000602084013e620009fc565b606091505b505090508062000a685760405162461bcd60e51b815260206004820152603060248201527f506f6c79676f6e5a6b45564d4272696467653a3a636c61696d4d65737361676560448201526f0e8813595cdcd859d94819985a5b195960821b6064820152608401620006a8565b7f25308c93ceeed162da955b3f7ce3e3f93606579e40fb92029faa9efe275459838a8888878760405162000aa195949392919062002f5f565b60405180910390a15050505050505050505050565b600054610100900460ff161580801562000ad75750600054600160ff909116105b8062000af35750303b15801562000af3575060005460ff166001145b62000b585760405162461bcd60e51b815260206004820152602e60248201527f496e697469616c697a61626c653a20636f6e747261637420697320616c72656160448201526d191e481a5b9a5d1a585b1a5e995960921b6064820152608401620006a8565b6000805460ff19166001179055801562000b7c576000805461ff0019166101001790555b6022805463ffffffff86166101000264ffffffff0019909116179055602680546001600160a01b038086166001600160a01b03199283161790925560278054928516929091169190911790556703782dace9d90000608c5562000bde62001d5e565b801562000c25576000805461ff0019169055604051600181527f7f26b83ff96e1f2b6a682f133852f6798a09c465da95921460cefb38474024989060200160405180910390a15b50505050565b62000c3562001a3b565b62000700600062001dd1565b60008463ffffffff8416825b602081101562000d30578160011660010362000cba5786818151811062000c785762000c7862002dcc565b60200260200101518360405160200162000c9c929190918252602082015260400190565b60405160208183030381529060405280519060200120925062000d0c565b8287828151811062000cd05762000cd062002dcc565b602002602001015160405160200162000cf3929190918252602082015260400190565b6040516020818303038152906040528051906020012092505b62000d1960028362002e0e565b91508062000d278162002e25565b91505062000c4d565b5050821490505b949350505050565b60225460ff161562000d655760405162461bcd60e51b8152600401620006a89062002e41565b62000d7b8a8a8a8a8a8a8a8a8a8a600062001a97565b62000d8c8963ffffffff1662001d1c565b6001600160a01b03851662000e8357604080516000808252602082019092526001600160a01b03851690849060405162000dc7919062002f41565b60006040518083038185875af1925050503d806000811462000e06576040519150601f19603f3d011682016040523d82523d6000602084013e62000e0b565b606091505b505090508062000e7c5760405162461bcd60e51b815260206004820152603560248201527f506f6c79676f6e5a6b45564d4272696467653a3a636c61696d41737365743a20604482015274115d1a195c881d1c985b9cd9995c8819985a5b1959605a1b6064820152608401620006a8565b506200115b565b60225463ffffffff61010090910481169087160362000eb85762000eb26001600160a01b038616848462001e23565b6200115b565b6000868660405160200162000ecf92919062002da2565b60408051601f198184030181529181528151602092830120600081815260249093529120549091506001600160a01b031680620010f35760008060008580602001905181019062000f21919062002fe2565b92509250925060008584848460405162000f3b90620026ee565b62000f499392919062003057565b8190604051809103906000f590508015801562000f6a573d6000803e3d6000fd5b506040516340c10f1960e01b81529091506001600160a01b038216906340c10f199062000f9e908c908c9060040162003094565b600060405180830381600087803b15801562000fb957600080fd5b505af115801562000fce573d6000803e3d6000fd5b50505050806024600088815260200190815260200160002060006101000a8154816001600160a01b0302191690836001600160a01b0316021790555060405180604001604052808d63ffffffff1681526020018c6001600160a01b031681525060256000836001600160a01b03166001600160a01b0316815260200190815260200160002060008201518160000160006101000a81548163ffffffff021916908363ffffffff16021790555060208201518160000160046101000a8154816001600160a01b0302191690836001600160a01b031602179055509050507f490e59a1701b938786ac72570a1efeac994a3dbe96e2e883e19e902ace6e6a398c8c838a604051620010e19493929190620030ad565b60405180910390a15050505062001158565b6040516340c10f1960e01b81526001600160a01b038216906340c10f199062001123908890889060040162003094565b600060405180830381600087803b1580156200113e57600080fd5b505af115801562001153573d6000803e3d6000fd5b505050505b50505b7f25308c93ceeed162da955b3f7ce3e3f93606579e40fb92029faa9efe2754598389878786866040516200119495949392919062002f5f565b60405180910390a150505050505050505050565b600080620011b96101008462002e0e565b90506000620011cb61010085620030f1565b60009283526023602052604090922054600190921b9182169091149392505050565b60008088886040516020016200120592919062002da2565b604051602081830303815290604052805190602001209050600060ff60f81b3083604051806020016200123890620026ee565b601f1982820381018352601f90910116604081905262001265908d908d908d908d908d9060200162003131565b60408051601f198184030181529082905262001285929160200162003172565b60405160208183030381529060405280519060200120604051602001620012de94939291906001600160f81b031994909416845260609290921b6001600160601b03191660018401526015830152603582015260550190565b60408051808303601f1901815291905280516020909101209a9950505050505050505050565b60225460ff16156200132a5760405162461bcd60e51b8152600401620006a89062002e41565b60225463ffffffff610100909104811690841603620013b25760405162461bcd60e51b815260206004820152603f60248201527f506f6c79676f6e5a6b45564d4272696467653a3a6272696467654d657373616760448201527f653a2044657374696e6174696f6e2063616e6e6f7420626520697473656c66006064820152608401620006a8565b7f501781209a1f8899323b96b4ef08b168df93e0a90c673d1e4cce39366cb62f9b6001602260019054906101000a900463ffffffff16338686348760215460405162001406989796959493929190620031a5565b60405180910390a1620014436200143d6001602260019054906101000a900463ffffffff1633878734888051906020012062000883565b62001e82565b6026546001600160a01b03166333d6247d6200145e62000790565b6040518263ffffffff1660e01b81526004016200147d91815260200190565b600060405180830381600087803b1580156200149857600080fd5b505af1158015620014ad573d6000803e3d6000fd5b50505050505050565b6027546001600160a01b03163314620014e35760405162461bcd60e51b8152600401620006a89062002d45565b6200070062001fce565b620014f762001a3b565b6001600160a01b0381166200155e5760405162461bcd60e51b815260206004820152602660248201527f4f776e61626c653a206e6577206f776e657220697320746865207a65726f206160448201526564647265737360d01b6064820152608401620006a8565b620015698162001dd1565b50565b60225460ff1615620015925760405162461bcd60e51b8152600401620006a89062002e41565b60225463ffffffff610100909104811690861603620016095760405162461bcd60e51b815260206004820152603d602482015260008051602062004b4483398151915260448201527f2044657374696e6174696f6e2063616e6e6f7420626520697473656c660000006064820152608401620006a8565b60008060606001600160a01b0389166200169b57853414620016915760405162461bcd60e51b81526020600482015260446024820181905260008051602062004b44833981519152908201527f20416d6f756e7420646f6573206e6f74206d61746368206d6573736167652e76606482015263616c756560e01b608482015260a401620006a8565b60009150620018fd565b6001600160a01b03808a1660009081526025602090815260409182902082518084019093525463ffffffff81168352640100000000900490921691810182905290156200175a57604051632770a7eb60e21b81526001600160a01b038b1690639dc29fac90620017129033908b9060040162003094565b600060405180830381600087803b1580156200172d57600080fd5b505af115801562001742573d6000803e3d6000fd5b505050508060200151935080600001519250620018fb565b84156200176f576200176f8a8888886200207d565b620017866001600160a01b038b1633308a620024a1565b899350602260019054906101000a900463ffffffff169250896001600160a01b03166306fdde036040518163ffffffff1660e01b8152600401600060405180830381865afa158015620017dd573d6000803e3d6000fd5b505050506040513d6000823e601f3d908101601f1916820160405262001807919081019062003212565b8a6001600160a01b03166395d89b416040518163ffffffff1660e01b8152600401600060405180830381865afa15801562001846573d6000803e3d6000fd5b505050506040513d6000823e601f3d908101601f1916820160405262001870919081019062003212565b8b6001600160a01b031663313ce5676040518163ffffffff1660e01b8152600401602060405180830381865afa158015620018af573d6000803e3d6000fd5b505050506040513d601f19601f82011682018060405250810190620018d591906200324a565b604051602001620018e99392919062003057565b60405160208183030381529060405291505b505b7f501781209a1f8899323b96b4ef08b168df93e0a90c673d1e4cce39366cb62f9b600083858b8b8b876021546040516200193f989796959493929190620031a5565b60405180910390a1620019646200143d600084868c8c8c888051906020012062000883565b6026546001600160a01b03166333d6247d6200197f62000790565b6040518263ffffffff1660e01b81526004016200199e91815260200190565b600060405180830381600087803b158015620019b957600080fd5b505af1158015620019ce573d6000803e3d6000fd5b50505050505050505050505050565b60225460ff161562001a035760405162461bcd60e51b8152600401620006a89062002e41565b6022805460ff191660011790556040517f2261efe5aef6fedc1fd1550b25facc9181745623049c7901287030b9ad1a549790600090a1565b605a546001600160a01b03163314620007005760405162461bcd60e51b815260206004820181905260248201527f4f776e61626c653a2063616c6c6572206973206e6f7420746865206f776e65726044820152606401620006a8565b62001aa88a63ffffffff16620011a8565b1562001aff5760405162461bcd60e51b8152602060048201526030602482015260008051602062004b2483398151915260448201526f08105b1c9958591e4818db185a5b595960821b6064820152608401620006a8565b6026546040805160208082018d90528183018c9052825180830384018152606083019384905280519101206312bd9b1960e11b90925260648101919091526000916001600160a01b03169063257b3632906084016020604051808303816000875af115801562001b73573d6000803e3d6000fd5b505050506040513d601f19601f8201168201806040525081019062001b9991906200326a565b90508060000362001bfc5760405162461bcd60e51b8152602060048201526037602482015260008051602062004b248339815191526044820152760811db1bd8985b115e1a5d149bdbdd081a5b9d985b1a59604a1b6064820152608401620006a8565b60225463ffffffff878116610100909204161462001c7e5760405162461bcd60e51b8152602060048201526043602482015260008051602062004b2483398151915260448201527f2044657374696e6174696f6e206e6574776f726b20646f6573206e6f74206d616064820152620e8c6d60eb1b608482015260a401620006a8565b602254600090610100900463ffffffff1662001c9c57508862001c9f565b50895b62001cc462001cbb848b8b8b8b8b8b8051906020012062000883565b8e8e8462000c41565b620019ce5760405162461bcd60e51b8152602060048201526032602482015260008051602062004b248339815191526044820152711024b73b30b634b21039b6ba10383937b7b360711b6064820152608401620006a8565b600062001d2c6101008362002e0e565b9050600062001d3e61010084620030f1565b6000928352602360205260409092208054600190931b9092179091555050565b600054610100900460ff1662001dcb5760405162461bcd60e51b815260206004820152602b60248201527f496e697469616c697a61626c653a20636f6e7472616374206973206e6f74206960448201526a6e697469616c697a696e6760a81b6064820152608401620006a8565b62000700335b605a80546001600160a01b038381166001600160a01b0319831681179093556040519116919082907f8be0079c531659141344cd1fd0a4f28419497f9722a3daafe3b4186f6b6457e090600090a35050565b62001e7d8363a9059cbb60e01b848460405160240162001e4592919062003094565b60408051601f198184030181529190526020810180516001600160e01b03166001600160e01b031990931692909217909152620024db565b505050565b80600162001e936020600262003381565b62001e9f91906200338f565b6021541062001f045760405162461bcd60e51b815260206004820152602a60248201527f4465706f736974436f6e74726163743a5f6465706f7369743a204d65726b6c65604482015269081d1c995948199d5b1b60b21b6064820152608401620006a8565b60016021600082825462001f199190620033a9565b909155505060215460005b602081101562001fc3578160011660010362001f5957826001826020811062001f515762001f5162002dcc565b015550505050565b6001816020811062001f6f5762001f6f62002dcc565b0154604080516020810192909252810184905260600160405160208183030381529060405280519060200120925060028262001fac919062002e0e565b91508062001fba8162002e25565b91505062001f24565b5062001e7d620033c4565b60225460ff16620020485760405162461bcd60e51b815260206004820152603b60248201527f456d657267656e63794d616e616765723a3a6966456d657267656e637953746160448201527f74653a206f6e6c7920696620656d657267656e637920737461746500000000006064820152608401620006a8565b6022805460ff191690556040517f1e5e34eea33501aecf2ebec9fe0e884a40804275ea7fe10b2ba084c8374308b390600090a1565b6000620020c083838080601f016020809104026020016040519081016040528093929190818152602001838380828437600092019190915250620025b492505050565b9050632afa533160e01b6001600160e01b0319821601620022b5576000808080808080620020f2896004818d620033da565b81019062002101919062003406565b9650965096509650965096509650336001600160a01b0316876001600160a01b031614620021435760405162461bcd60e51b8152600401620006a89062003461565b6001600160a01b03861630146200216e5760405162461bcd60e51b8152600401620006a890620034be565b8a8514620021e15760405162461bcd60e51b815260206004820152603960248201527f506f6c79676f6e5a6b45564d4272696467653a3a5f7065726d69743a205065726044820152780dad2e840c2dadeeadce840c8decae640dcdee840dac2e8c6d603b1b6064820152608401620006a8565b604080516001600160a01b0389811660248301528881166044830152606482018890526084820187905260ff861660a483015260c4820185905260e48083018590528351808403909101815261010490920183526020820180516001600160e01b031663d505accf60e01b1790529151918e169162002261919062002f41565b6000604051808303816000865af19150503d8060008114620022a0576040519150601f19603f3d011682016040523d82523d6000602084013e620022a5565b606091505b505050505050505050506200249a565b6001600160e01b031981166323f2ebc360e21b146200232b5760405162461bcd60e51b815260206004820152602b60248201527f506f6c79676f6e5a6b45564d4272696467653a3a5f7065726d69743a204e6f7460448201526a081d985b1a590818d85b1b60aa1b6064820152608401620006a8565b600080808080808080620023438a6004818e620033da565b81019062002352919062003520565b97509750975097509750975097509750336001600160a01b0316886001600160a01b031614620023965760405162461bcd60e51b8152600401620006a89062003461565b6001600160a01b0387163014620023c15760405162461bcd60e51b8152600401620006a890620034be565b604080516001600160a01b038a811660248301528981166044830152606482018990526084820188905286151560a483015260ff861660c483015260e482018590526101048083018590528351808403909101815261012490920183526020820180516001600160e01b03166323f2ebc360e21b1790529151918f16916200244a919062002f41565b6000604051808303816000865af19150503d806000811462002489576040519150601f19603f3d011682016040523d82523d6000602084013e6200248e565b606091505b50505050505050505050505b5050505050565b6040516001600160a01b038085166024830152831660448201526064810182905262000c259085906323b872dd60e01b9060840162001e45565b600062002532826040518060400160405280602081526020017f5361666545524332303a206c6f772d6c6576656c2063616c6c206661696c6564815250856001600160a01b0316620025bb9092919063ffffffff16565b80519091501562001e7d5780806020019051810190620025539190620035ac565b62001e7d5760405162461bcd60e51b815260206004820152602a60248201527f5361666545524332303a204552433230206f7065726174696f6e20646964206e6044820152691bdd081cdd58d8d9595960b21b6064820152608401620006a8565b6020015190565b606062000d37848460008585600080866001600160a01b03168587604051620025e5919062002f41565b60006040518083038185875af1925050503d806000811462002624576040519150601f19603f3d011682016040523d82523d6000602084013e62002629565b606091505b50915091506200263c8783838762002647565b979650505050505050565b60608315620026bb578251600003620026b3576001600160a01b0385163b620026b35760405162461bcd60e51b815260206004820152601d60248201527f416464726573733a2063616c6c20746f206e6f6e2d636f6e74726163740000006044820152606401620006a8565b508162000d37565b62000d378383815115620026d25781518083602001fd5b8060405162461bcd60e51b8152600401620006a89190620035cc565b61154280620035e283390190565b6001600160a01b03811681146200156957600080fd5b80356200271f81620026fc565b919050565b803563ffffffff811681146200271f57600080fd5b60008083601f8401126200274c57600080fd5b5081356001600160401b038111156200276457600080fd5b6020830191508360208285010111156200277d57600080fd5b9250929050565b60008060008060008060a087890312156200279e57600080fd5b8635620027ab81620026fc565b9550620027bb6020880162002724565b94506040870135620027cd81620026fc565b93506060870135925060808701356001600160401b03811115620027f057600080fd5b620027fe89828a0162002739565b979a9699509497509295939492505050565b600080604083850312156200282457600080fd5b6200282f8362002724565b915060208301356200284181620026fc565b809150509250929050565b6000602082840312156200285f57600080fd5b5035919050565b6000602082840312156200287957600080fd5b620028848262002724565b9392505050565b6000602082840312156200289e57600080fd5b81356200288481620026fc565b60ff811681146200156957600080fd5b600080600080600080600060e0888a031215620028d757600080fd5b8735620028e481620028ab565b9650620028f46020890162002724565b955060408801356200290681620026fc565b9450620029166060890162002724565b935060808801356200292881620026fc565b9699959850939692959460a0840135945060c09093013592915050565b634e487b7160e01b600052604160045260246000fd5b604051601f8201601f191681016001600160401b038111828210171562002986576200298662002945565b604052919050565b600082601f830112620029a057600080fd5b813560206001600160401b03821115620029be57620029be62002945565b8160051b620029cf8282016200295b565b9283528481018201928281019087851115620029ea57600080fd5b83870192505b848310156200263c57823582529183019190830190620029f0565b60006001600160401b0382111562002a275762002a2762002945565b50601f01601f191660200190565b600082601f83011262002a4757600080fd5b813562002a5e62002a588262002a0b565b6200295b565b81815284602083860101111562002a7457600080fd5b816020850160208301376000918101602001919091529392505050565b6000806000806000806000806000806101408b8d03121562002ab257600080fd5b8a356001600160401b038082111562002aca57600080fd5b62002ad88e838f016200298e565b9b5062002ae860208e0162002724565b9a5060408d0135995060608d0135985062002b0660808e0162002724565b975062002b1660a08e0162002712565b965062002b2660c08e0162002724565b955062002b3660e08e0162002712565b94506101008d013593506101208d013591508082111562002b5657600080fd5b5062002b658d828e0162002a35565b9150509295989b9194979a5092959850565b60008060006060848603121562002b8d57600080fd5b62002b988462002724565b9250602084013562002baa81620026fc565b9150604084013562002bbc81620026fc565b809150509250925092565b6000806000806080858703121562002bde57600080fd5b8435935060208501356001600160401b0381111562002bfc57600080fd5b62002c0a878288016200298e565b93505062002c1b6040860162002724565b9396929550929360600135925050565b600080600080600080600060a0888a03121562002c4757600080fd5b62002c528862002724565b9650602088013562002c6481620026fc565b955060408801356001600160401b038082111562002c8157600080fd5b62002c8f8b838c0162002739565b909750955060608a013591508082111562002ca957600080fd5b5062002cb88a828b0162002739565b909450925050608088013562002cce81620028ab565b8091505092959891949750929550565b60008060006060848603121562002cf457600080fd5b62002cff8462002724565b9250602084013562002d1181620026fc565b915060408401356001600160401b0381111562002d2d57600080fd5b62002d3b8682870162002a35565b9150509250925092565b6020808252603a908201527f506f6c79676f6e5a6b45564d3a3a6f6e6c79506f6c79676f6e5a6b45564d3a2060408201527f6f6e6c7920506f6c79676f6e5a6b45564d20636f6e7472616374000000000000606082015260800190565b60e09290921b6001600160e01b031916825260601b6001600160601b031916600482015260180190565b634e487b7160e01b600052603260045260246000fd5b634e487b7160e01b600052601260045260246000fd5b634e487b7160e01b600052601160045260246000fd5b60008262002e205762002e2062002de2565b500490565b60006001820162002e3a5762002e3a62002df8565b5060010190565b60208082526042908201527f456d657267656e63794d616e616765723a3a69664e6f74456d657267656e637960408201527f53746174653a206f6e6c79206966206e6f7420656d657267656e637920737461606082015261746560f01b608082015260a00190565b60005b8381101562002ec657818101518382015260200162002eac565b8381111562000c255750506000910152565b6000815180845262002ef281602086016020860162002ea9565b601f01601f19169290920160200192915050565b6001600160a01b038416815263ffffffff8316602082015260606040820181905260009062002f389083018462002ed8565b95945050505050565b6000825162002f5581846020870162002ea9565b9190910192915050565b63ffffffff95861681529390941660208401526001600160a01b039182166040840152166060820152608081019190915260a00190565b600082601f83011262002fa857600080fd5b815162002fb962002a588262002a0b565b81815284602083860101111562002fcf57600080fd5b62000d3782602083016020870162002ea9565b60008060006060848603121562002ff857600080fd5b83516001600160401b03808211156200301057600080fd5b6200301e8783880162002f96565b945060208601519150808211156200303557600080fd5b50620030448682870162002f96565b925050604084015162002bbc81620028ab565b6060815260006200306c606083018662002ed8565b828103602084015262003080818662002ed8565b91505060ff83166040830152949350505050565b6001600160a01b03929092168252602082015260400190565b63ffffffff851681526001600160a01b03848116602083015283166040820152608060608201819052600090620030e79083018462002ed8565b9695505050505050565b60008262003103576200310362002de2565b500690565b81835281816020850137506000828201602090810191909152601f909101601f19169091010190565b6060815260006200314760608301878962003108565b82810360208401526200315c81868862003108565b91505060ff831660408301529695505050505050565b600083516200318681846020880162002ea9565b8351908301906200319c81836020880162002ea9565b01949350505050565b60ff8916815263ffffffff88811660208301526001600160a01b03888116604084015287821660608401528616608083015260a0820185905261010060c08301819052600091620031f98483018762002ed8565b925080851660e085015250509998505050505050505050565b6000602082840312156200322557600080fd5b81516001600160401b038111156200323c57600080fd5b62000d378482850162002f96565b6000602082840312156200325d57600080fd5b81516200288481620028ab565b6000602082840312156200327d57600080fd5b5051919050565b600181815b80851115620032c5578160001904821115620032a957620032a962002df8565b80851615620032b757918102915b93841c939080029062003289565b509250929050565b600082620032de575060016200074f565b81620032ed575060006200074f565b8160018114620033065760028114620033115762003331565b60019150506200074f565b60ff84111562003325576200332562002df8565b50506001821b6200074f565b5060208310610133831016604e8410600b841016171562003356575081810a6200074f565b62003362838362003284565b806000190482111562003379576200337962002df8565b029392505050565b6000620028848383620032cd565b600082821015620033a457620033a462002df8565b500390565b60008219821115620033bf57620033bf62002df8565b500190565b634e487b7160e01b600052600160045260246000fd5b60008085851115620033eb57600080fd5b83861115620033f957600080fd5b5050820193919092039150565b600080600080600080600060e0888a0312156200342257600080fd5b87356200342f81620026fc565b965060208801356200344181620026fc565b9550604088013594506060880135935060808801356200292881620028ab565b6020808252603c908201527f506f6c79676f6e5a6b45564d4272696467653a3a5f7065726d69743a2050657260408201527f6d6974206f776e6572206d757374206265207468652073656e64657200000000606082015260800190565b60208082526033908201527f506f6c79676f6e5a6b45564d4272696467653a3a5f7065726d69743a205370656040820152726e646572206d7573742062652027746869732760681b606082015260800190565b80151581146200156957600080fd5b600080600080600080600080610100898b0312156200353e57600080fd5b88356200354b81620026fc565b975060208901356200355d81620026fc565b9650604089013595506060890135945060808901356200357d8162003511565b935060a08901356200358f81620028ab565b979a969950949793969295929450505060c08201359160e0013590565b600060208284031215620035bf57600080fd5b8151620028848162003511565b60208152600062002884602083018462002ed856fe60c06040523480156200001157600080fd5b5060405162001542380380620015428339810160408190526200003491620002ad565b82826003620000448382620003c1565b506004620000538282620003c1565b5050600580546001600160a81b0319163360ff60a01b191617600160a01b60ff851602179055504660808190526200008b9062000098565b60a052506200048d915050565b60007f8b73c3c69bb8fe3d512ecc4cf759cc79239f7b179b0ffacaa9a75d522b39400f620000c562000146565b805160209182012060408051808201825260018152603160f81b90840152805192830193909352918101919091527fc89efdaa54c0f20c7adf612882df0950f5a951637e0307cdcb4c672f298b8bc66060820152608081018390523060a082015260c001604051602081830303815290604052805190602001209050919050565b606060038054620001579062000332565b80601f0160208091040260200160405190810160405280929190818152602001828054620001859062000332565b8015620001d65780601f10620001aa57610100808354040283529160200191620001d6565b820191906000526020600020905b815481529060010190602001808311620001b857829003601f168201915b5050505050905090565b634e487b7160e01b600052604160045260246000fd5b600082601f8301126200020857600080fd5b81516001600160401b0380821115620002255762000225620001e0565b604051601f8301601f19908116603f01168101908282118183101715620002505762000250620001e0565b816040528381526020925086838588010111156200026d57600080fd5b600091505b8382101562000291578582018301518183018401529082019062000272565b83821115620002a35760008385830101525b9695505050505050565b600080600060608486031215620002c357600080fd5b83516001600160401b0380821115620002db57600080fd5b620002e987838801620001f6565b945060208601519150808211156200030057600080fd5b506200030f86828701620001f6565b925050604084015160ff811681146200032757600080fd5b809150509250925092565b600181811c908216806200034757607f821691505b6020821081036200036857634e487b7160e01b600052602260045260246000fd5b50919050565b601f821115620003bc57600081815260208120601f850160051c81016020861015620003975750805b601f850160051c820191505b81811015620003b857828155600101620003a3565b5050505b505050565b81516001600160401b03811115620003dd57620003dd620001e0565b620003f581620003ee845462000332565b846200036e565b602080601f8311600181146200042d5760008415620004145750858301515b600019600386901b1c1916600185901b178555620003b8565b600085815260208120601f198616915b828110156200045e578886015182559484019460019091019084016200043d565b50858210156200047d5787850151600019600388901b60f8161c191681555b5050505050600190811b01905550565b60805160a051611088620004ba60003960006104690152600081816102f9015261043301526110886000f3fe608060405234801561001057600080fd5b50600436106101375760003560e01c806370a08231116100b8578063a457c2d71161007c578063a457c2d7146102ce578063a9059cbb146102e1578063cd0d0096146102f4578063d505accf1461031b578063dd62ed3e1461032e578063ffa1ad741461034157600080fd5b806370a082311461023f5780637ecebe001461026857806395d89b41146102885780639dc29fac14610290578063a3c573eb146102a357600080fd5b806330adf81f116100ff57806330adf81f146101c9578063313ce567146101f05780633644e5151461020f578063395093511461021757806340c10f191461022a57600080fd5b806306fdde031461013c578063095ea7b31461015a57806318160ddd1461017d57806320606b701461018f57806323b872dd146101b6575b600080fd5b610144610361565b6040516101519190610dc2565b60405180910390f35b61016d610168366004610e33565b6103f3565b6040519015158152602001610151565b6002545b604051908152602001610151565b6101817f8b73c3c69bb8fe3d512ecc4cf759cc79239f7b179b0ffacaa9a75d522b39400f81565b61016d6101c4366004610e5d565b61040b565b6101817f6e71edae12b1b97f4d1f60370fef10105fa2faae0126114a169c64845d6126c981565b600554600160a01b900460ff1660405160ff9091168152602001610151565b61018161042f565b61016d610225366004610e33565b61048b565b61023d610238366004610e33565b6104ad565b005b61018161024d366004610e99565b6001600160a01b031660009081526020819052604090205490565b610181610276366004610e99565b60066020526000908152604090205481565b6101446104ee565b61023d61029e366004610e33565b6104fd565b6005546102b6906001600160a01b031681565b6040516001600160a01b039091168152602001610151565b61016d6102dc366004610e33565b610531565b61016d6102ef366004610e33565b6105ac565b6101817f000000000000000000000000000000000000000000000000000000000000000081565b61023d610329366004610ebb565b6105ba565b61018161033c366004610f2e565b6107f5565b610144604051806040016040528060018152602001603160f81b81525081565b60606003805461037090610f61565b80601f016020809104026020016040519081016040528092919081815260200182805461039c90610f61565b80156103e95780601f106103be576101008083540402835291602001916103e9565b820191906000526020600020905b8154815290600101906020018083116103cc57829003601f168201915b5050505050905090565b600033610401818585610820565b5060019392505050565b600033610419858285610945565b6104248585856109bf565b506001949350505050565b60007f000000000000000000000000000000000000000000000000000000000000000046146104665761046146610b51565b905090565b507f000000000000000000000000000000000000000000000000000000000000000090565b60003361040181858561049e83836107f5565b6104a89190610fb1565b610820565b6005546001600160a01b031633146104e05760405162461bcd60e51b81526004016104d790610fc9565b60405180910390fd5b6104ea8282610bfd565b5050565b60606004805461037090610f61565b6005546001600160a01b031633146105275760405162461bcd60e51b81526004016104d790610fc9565b6104ea8282610caa565b6000338161053f82866107f5565b90508381101561059f5760405162461bcd60e51b815260206004820152602560248201527f45524332303a2064656372656173656420616c6c6f77616e63652062656c6f77604482015264207a65726f60d81b60648201526084016104d7565b6104248286868403610820565b6000336104018185856109bf565b834211156106165760405162461bcd60e51b8152602060048201526024808201527f546f6b656e577261707065643a3a7065726d69743a20457870697265642070656044820152631c9b5a5d60e21b60648201526084016104d7565b6001600160a01b038716600090815260066020526040812080547f6e71edae12b1b97f4d1f60370fef10105fa2faae0126114a169c64845d6126c9918a918a918a91908661066383611019565b909155506040805160208101969096526001600160a01b0394851690860152929091166060840152608083015260a082015260c0810186905260e00160405160208183030381529060405280519060200120905060006106c161042f565b60405161190160f01b602082015260228101919091526042810183905260620160408051601f198184030181528282528051602091820120600080855291840180845281905260ff89169284019290925260608301879052608083018690529092509060019060a0016020604051602081039080840390855afa15801561074c573d6000803e3d6000fd5b5050604051601f1901519150506001600160a01b038116158015906107825750896001600160a01b0316816001600160a01b0316145b6107de5760405162461bcd60e51b815260206004820152602760248201527f546f6b656e577261707065643a3a7065726d69743a20496e76616c6964207369604482015266676e617475726560c81b60648201526084016104d7565b6107e98a8a8a610820565b50505050505050505050565b6001600160a01b03918216600090815260016020908152604080832093909416825291909152205490565b6001600160a01b0383166108825760405162461bcd60e51b8152602060048201526024808201527f45524332303a20617070726f76652066726f6d20746865207a65726f206164646044820152637265737360e01b60648201526084016104d7565b6001600160a01b0382166108e35760405162461bcd60e51b815260206004820152602260248201527f45524332303a20617070726f766520746f20746865207a65726f206164647265604482015261737360f01b60648201526084016104d7565b6001600160a01b0383811660008181526001602090815260408083209487168084529482529182902085905590518481527f8c5be1e5ebec7d5bd14f71427d1e84f3dd0314c0f7b2291e5b200ac8c7c3b92591015b60405180910390a3505050565b600061095184846107f5565b905060001981146109b957818110156109ac5760405162461bcd60e51b815260206004820152601d60248201527f45524332303a20696e73756666696369656e7420616c6c6f77616e636500000060448201526064016104d7565b6109b98484848403610820565b50505050565b6001600160a01b038316610a235760405162461bcd60e51b815260206004820152602560248201527f45524332303a207472616e736665722066726f6d20746865207a65726f206164604482015264647265737360d81b60648201526084016104d7565b6001600160a01b038216610a855760405162461bcd60e51b815260206004820152602360248201527f45524332303a207472616e7366657220746f20746865207a65726f206164647260448201526265737360e81b60648201526084016104d7565b6001600160a01b03831660009081526020819052604090205481811015610afd5760405162461bcd60e51b815260206004820152602660248201527f45524332303a207472616e7366657220616d6f756e7420657863656564732062604482015265616c616e636560d01b60648201526084016104d7565b6001600160a01b0384811660008181526020818152604080832087870390559387168083529184902080548701905592518581529092600080516020611033833981519152910160405180910390a36109b9565b60007f8b73c3c69bb8fe3d512ecc4cf759cc79239f7b179b0ffacaa9a75d522b39400f610b7c610361565b805160209182012060408051808201825260018152603160f81b90840152805192830193909352918101919091527fc89efdaa54c0f20c7adf612882df0950f5a951637e0307cdcb4c672f298b8bc66060820152608081018390523060a082015260c001604051602081830303815290604052805190602001209050919050565b6001600160a01b038216610c535760405162461bcd60e51b815260206004820152601f60248201527f45524332303a206d696e7420746f20746865207a65726f20616464726573730060448201526064016104d7565b8060026000828254610c659190610fb1565b90915550506001600160a01b03821660008181526020818152604080832080548601905551848152600080516020611033833981519152910160405180910390a35050565b6001600160a01b038216610d0a5760405162461bcd60e51b815260206004820152602160248201527f45524332303a206275726e2066726f6d20746865207a65726f206164647265736044820152607360f81b60648201526084016104d7565b6001600160a01b03821660009081526020819052604090205481811015610d7e5760405162461bcd60e51b815260206004820152602260248201527f45524332303a206275726e20616d6f756e7420657863656564732062616c616e604482015261636560f01b60648201526084016104d7565b6001600160a01b0383166000818152602081815260408083208686039055600280548790039055518581529192916000805160206110338339815191529101610938565b600060208083528351808285015260005b81811015610def57858101830151858201604001528201610dd3565b81811115610e01576000604083870101525b50601f01601f1916929092016040019392505050565b80356001600160a01b0381168114610e2e57600080fd5b919050565b60008060408385031215610e4657600080fd5b610e4f83610e17565b946020939093013593505050565b600080600060608486031215610e7257600080fd5b610e7b84610e17565b9250610e8960208501610e17565b9150604084013590509250925092565b600060208284031215610eab57600080fd5b610eb482610e17565b9392505050565b600080600080600080600060e0888a031215610ed657600080fd5b610edf88610e17565b9650610eed60208901610e17565b95506040880135945060608801359350608088013560ff81168114610f1157600080fd5b9699959850939692959460a0840135945060c09093013592915050565b60008060408385031215610f4157600080fd5b610f4a83610e17565b9150610f5860208401610e17565b90509250929050565b600181811c90821680610f7557607f821691505b602082108103610f9557634e487b7160e01b600052602260045260246000fd5b50919050565b634e487b7160e01b600052601160045260246000fd5b60008219821115610fc457610fc4610f9b565b500190565b60208082526030908201527f546f6b656e577261707065643a3a6f6e6c794272696467653a204e6f7420506f60408201526f6c79676f6e5a6b45564d42726964676560801b606082015260800190565b60006001820161102b5761102b610f9b565b506001019056feddf252ad1be2c89b69c2b068fc378daa952ba7f163c4a11628f55a4df523b3efa26469706673582212208b7986f78e961ad6c0885b86b24ce427045be98073c1f3d7fe18180542ab873564736f6c634300080f0033506f6c79676f6e5a6b45564d4272696467653a3a5f7665726966794c6561663a506f6c79676f6e5a6b45564d4272696467653a3a62726964676541737365743aa2646970667358221220b4188492b941be8b8f4c8bba04a5ae4675396b3b72db0237c8fba438dd1b12bc64736f6c634300080f0033",
  "linkReferences": {},
  "deployedLinkReferences": {}
}