{
  "_format": "hh-sol-artifact-1",
  "contractName": "PolygonZkEVMGlobalExitRootL2",
  "sourceName": "contracts/PolygonZkEVMGlobalExitRootL2.sol",
  "abi": [
    {
      "inputs": [
        {
          "internalType": "address",
          "name": "_bridgeAddress",
          "type": "address"
        }
      ],
      "stateMutability": "nonpayable",
      "type": "constructor"
    },
    {
      "inputs": [],
      "name": "OnlyAllowedContracts",
      "type": "error"
    },
    {
      "inputs": [],
      "name": "bridgeAddress",
      "outputs": [
        {
          "internalType": "address",
          "name": "",
          "type": "address"
        }
      ],
      "stateMutability": "view",
      "type": "function"
    },
    {
      "inputs": [
        {
          "internalType": "bytes32",
          "name": "",
          "type": "bytes32"
        }
      ],
      "name": "globalExitRootMap",
      "outputs": [
        {
          "internalType": "uint256",
          "name": "",
          "type": "uint256"
        }
      ],
      "stateMutability": "view",
      "type": "function"
    },
    {
      "inputs": [],
      "name": "lastRollupExitRoot",
      "outputs": [
        {
          "internalType": "bytes32",
          "name": "",
          "type": "bytes32"
        }
      ],
      "stateMutability": "view",
      "type": "function"
    },
    {
      "inputs": [
        {
          "internalType": "bytes32",
          "name": "newRoot",
          "type": "bytes32"
        }
      ],
      "name": "updateExitRoot",
      "outputs": [],
      "stateMutability": "nonpayable",
      "type": "function"
    }
  ],
  "bytecode": "0x60a060405234801561000f575f80fd5b5060405161023538038061023583398101604081905261002e9161003f565b6001600160a01b031660805261006c565b5f6020828403121561004f575f80fd5b81516001600160a01b0381168114610065575f80fd5b9392505050565b6080516101ab61008a5f395f818160a3015261010201526101ab5ff3fe608060405234801561000f575f80fd5b506004361061004a575f3560e01c806301fd90441461004e578063257b36321461006a57806333d6247d14610089578063a3c573eb1461009e575b5f80fd5b61005760015481565b6040519081526020015b60405180910390f35b61005761007836600461015e565b5f6020819052908152604090205481565b61009c61009736600461015e565b6100ea565b005b6100c57f000000000000000000000000000000000000000000000000000000000000000081565b60405173ffffffffffffffffffffffffffffffffffffffff9091168152602001610061565b3373ffffffffffffffffffffffffffffffffffffffff7f00000000000000000000000000000000000000000000000000000000000000001614610159576040517fb49365dd00000000000000000000000000000000000000000000000000000000815260040160405180910390fd5b600155565b5f6020828403121561016e575f80fd5b503591905056fea26469706673582212205108c6c4f924146b736832a1bdf696e20d900450207b7452462368d150f2c71c64736f6c63430008140033",
  "linkReferences": {},
  "deployedLinkReferences": {}
}