{
  "_format": "hh-sol-artifact-1",
  "contractName": "PolygonDataComittee",
  "sourceName": "contracts/v2/consensus/dataComittee/PolygonDataComittee.sol",
  "abi": [
    {
      "inputs": [
        {
          "internalType": "contract IPolygonZkEVMGlobalExitRoot",
          "name": "_globalExitRootManager",
          "type": "address"
        },
        {
          "internalType": "contract IERC20Upgradeable",
          "name": "_pol",
          "type": "address"
        },
        {
          "internalType": "contract IPolygonZkEVMBridge",
          "name": "_bridgeAddress",
          "type": "address"
        },
        {
          "internalType": "contract PolygonRollupManager",
          "name": "_rollupManager",
          "type": "address"
        },
        {
          "internalType": "contract IPolygonDataAvailabilityProtocol",
          "name": "_validium",
          "type": "address"
        }
      ],
      "stateMutability": "nonpayable",
      "type": "constructor"
    },
    {
      "inputs": [],
      "name": "BatchAlreadyVerified",
      "type": "error"
    },
    {
      "inputs": [],
      "name": "BatchNotSequencedOrNotSequenceEnd",
      "type": "error"
    },
    {
      "inputs": [],
      "name": "ExceedMaxVerifyBatches",
      "type": "error"
    },
    {
      "inputs": [],
      "name": "FinalNumBatchBelowLastVerifiedBatch",
      "type": "error"
    },
    {
      "inputs": [],
      "name": "FinalNumBatchDoesNotMatchPendingState",
      "type": "error"
    },
    {
      "inputs": [],
      "name": "FinalPendingStateNumInvalid",
      "type": "error"
    },
    {
      "inputs": [],
      "name": "ForceBatchNotAllowed",
      "type": "error"
    },
    {
      "inputs": [],
      "name": "ForceBatchTimeoutNotExpired",
      "type": "error"
    },
    {
      "inputs": [],
      "name": "ForceBatchesAlreadyActive",
      "type": "error"
    },
    {
      "inputs": [],
      "name": "ForceBatchesOverflow",
      "type": "error"
    },
    {
      "inputs": [],
      "name": "ForcedDataDoesNotMatch",
      "type": "error"
    },
    {
      "inputs": [],
      "name": "GasTokenNetworkMustBeZeroOnEther",
      "type": "error"
    },
    {
      "inputs": [],
      "name": "GlobalExitRootNotExist",
      "type": "error"
    },
    {
      "inputs": [],
      "name": "HaltTimeoutNotExpired",
      "type": "error"
    },
    {
      "inputs": [],
      "name": "InitNumBatchAboveLastVerifiedBatch",
      "type": "error"
    },
    {
      "inputs": [],
      "name": "InitNumBatchDoesNotMatchPendingState",
      "type": "error"
    },
    {
      "inputs": [],
      "name": "InvalidInitializeTransaction",
      "type": "error"
    },
    {
      "inputs": [],
      "name": "InvalidProof",
      "type": "error"
    },
    {
      "inputs": [],
      "name": "InvalidRangeBatchTimeTarget",
      "type": "error"
    },
    {
      "inputs": [],
      "name": "InvalidRangeForceBatchTimeout",
      "type": "error"
    },
    {
      "inputs": [],
      "name": "InvalidRangeMultiplierBatchFee",
      "type": "error"
    },
    {
      "inputs": [],
      "name": "NewAccInputHashDoesNotExist",
      "type": "error"
    },
    {
      "inputs": [],
      "name": "NewPendingStateTimeoutMustBeLower",
      "type": "error"
    },
    {
      "inputs": [],
      "name": "NewStateRootNotInsidePrime",
      "type": "error"
    },
    {
      "inputs": [],
      "name": "NewTrustedAggregatorTimeoutMustBeLower",
      "type": "error"
    },
    {
      "inputs": [],
      "name": "NotEnoughMaticAmount",
      "type": "error"
    },
    {
      "inputs": [],
      "name": "NotEnoughPOLAmount",
      "type": "error"
    },
    {
      "inputs": [],
      "name": "OldAccInputHashDoesNotExist",
      "type": "error"
    },
    {
      "inputs": [],
      "name": "OldStateRootDoesNotExist",
      "type": "error"
    },
    {
      "inputs": [],
      "name": "OnlyAdmin",
      "type": "error"
    },
    {
      "inputs": [],
      "name": "OnlyPendingAdmin",
      "type": "error"
    },
    {
      "inputs": [],
      "name": "OnlyRollupManager",
      "type": "error"
    },
    {
      "inputs": [],
      "name": "OnlyTrustedAggregator",
      "type": "error"
    },
    {
      "inputs": [],
      "name": "OnlyTrustedSequencer",
      "type": "error"
    },
    {
      "inputs": [],
      "name": "PendingStateDoesNotExist",
      "type": "error"
    },
    {
      "inputs": [],
      "name": "PendingStateInvalid",
      "type": "error"
    },
    {
      "inputs": [],
      "name": "PendingStateNotConsolidable",
      "type": "error"
    },
    {
      "inputs": [],
      "name": "PendingStateTimeoutExceedHaltAggregationTimeout",
      "type": "error"
    },
    {
      "inputs": [],
      "name": "SequenceWithDataAvailabilityNotAllowed",
      "type": "error"
    },
    {
      "inputs": [],
      "name": "SequenceZeroBatches",
      "type": "error"
    },
    {
      "inputs": [],
      "name": "SequencedTimestampBelowForcedTimestamp",
      "type": "error"
    },
    {
      "inputs": [],
      "name": "SequencedTimestampInvalid",
      "type": "error"
    },
    {
      "inputs": [],
      "name": "StoredRootMustBeDifferentThanNewRoot",
      "type": "error"
    },
    {
      "inputs": [],
      "name": "TransactionsLengthAboveMax",
      "type": "error"
    },
    {
      "inputs": [],
      "name": "TrustedAggregatorTimeoutExceedHaltAggregationTimeout",
      "type": "error"
    },
    {
      "inputs": [],
      "name": "TrustedAggregatorTimeoutNotExpired",
      "type": "error"
    },
    {
      "anonymous": false,
      "inputs": [
        {
          "indexed": false,
          "internalType": "address",
          "name": "newAdmin",
          "type": "address"
        }
      ],
      "name": "AcceptAdminRole",
      "type": "event"
    },
    {
      "anonymous": false,
      "inputs": [],
      "name": "ActivateForceBatches",
      "type": "event"
    },
    {
      "anonymous": false,
      "inputs": [
        {
          "indexed": true,
          "internalType": "uint64",
          "name": "forceBatchNum",
          "type": "uint64"
        },
        {
          "indexed": false,
          "internalType": "bytes32",
          "name": "lastGlobalExitRoot",
          "type": "bytes32"
        },
        {
          "indexed": false,
          "internalType": "address",
          "name": "sequencer",
          "type": "address"
        },
        {
          "indexed": false,
          "internalType": "bytes",
          "name": "transactions",
          "type": "bytes"
        }
      ],
      "name": "ForceBatch",
      "type": "event"
    },
    {
      "anonymous": false,
      "inputs": [
        {
          "indexed": false,
          "internalType": "uint8",
          "name": "version",
          "type": "uint8"
        }
      ],
      "name": "Initialized",
      "type": "event"
    },
    {
      "anonymous": false,
      "inputs": [
        {
          "indexed": true,
          "internalType": "uint64",
          "name": "numBatch",
          "type": "uint64"
        }
      ],
      "name": "SequenceBatches",
      "type": "event"
    },
    {
      "anonymous": false,
      "inputs": [
        {
          "indexed": true,
          "internalType": "uint64",
          "name": "numBatch",
          "type": "uint64"
        }
      ],
      "name": "SequenceForceBatches",
      "type": "event"
    },
    {
      "anonymous": false,
      "inputs": [
        {
          "indexed": false,
          "internalType": "uint64",
          "name": "newforceBatchTimeout",
          "type": "uint64"
        }
      ],
      "name": "SetForceBatchTimeout",
      "type": "event"
    },
    {
      "anonymous": false,
      "inputs": [
        {
          "indexed": false,
          "internalType": "address",
          "name": "newTrustedSequencer",
          "type": "address"
        }
      ],
      "name": "SetTrustedSequencer",
      "type": "event"
    },
    {
      "anonymous": false,
      "inputs": [
        {
          "indexed": false,
          "internalType": "string",
          "name": "newTrustedSequencerURL",
          "type": "string"
        }
      ],
      "name": "SetTrustedSequencerURL",
      "type": "event"
    },
    {
      "anonymous": false,
      "inputs": [],
      "name": "SwitchSequenceWithDataAvailability",
      "type": "event"
    },
    {
      "anonymous": false,
      "inputs": [
        {
          "indexed": false,
          "internalType": "address",
          "name": "newPendingAdmin",
          "type": "address"
        }
      ],
      "name": "TransferAdminRole",
      "type": "event"
    },
    {
      "anonymous": false,
      "inputs": [
        {
          "indexed": true,
          "internalType": "uint64",
          "name": "numBatch",
          "type": "uint64"
        },
        {
          "indexed": false,
          "internalType": "bytes32",
          "name": "stateRoot",
          "type": "bytes32"
        },
        {
          "indexed": true,
          "internalType": "address",
          "name": "aggregator",
          "type": "address"
        }
      ],
      "name": "VerifyBatches",
      "type": "event"
    },
    {
      "inputs": [],
      "name": "BASE_INITIALIZE_TX_BRIDGE",
      "outputs": [
        {
          "internalType": "bytes",
          "name": "",
          "type": "bytes"
        }
      ],
      "stateMutability": "view",
      "type": "function"
    },
    {
      "inputs": [],
      "name": "GLOBAL_EXIT_ROOT_MANAGER_L2",
      "outputs": [
        {
          "internalType": "contract IBasePolygonZkEVMGlobalExitRoot",
          "name": "",
          "type": "address"
        }
      ],
      "stateMutability": "view",
      "type": "function"
    },
    {
      "inputs": [],
      "name": "INITIALIZE_TX_EFFECTIVE_PERCENTAGE",
      "outputs": [
        {
          "internalType": "bytes1",
          "name": "",
          "type": "bytes1"
        }
      ],
      "stateMutability": "view",
      "type": "function"
    },
    {
      "inputs": [],
      "name": "SIGNATURE_INITIALIZE_TX_R",
      "outputs": [
        {
          "internalType": "bytes32",
          "name": "",
          "type": "bytes32"
        }
      ],
      "stateMutability": "view",
      "type": "function"
    },
    {
      "inputs": [],
      "name": "SIGNATURE_INITIALIZE_TX_S",
      "outputs": [
        {
          "internalType": "bytes32",
          "name": "",
          "type": "bytes32"
        }
      ],
      "stateMutability": "view",
      "type": "function"
    },
    {
      "inputs": [],
      "name": "SIGNATURE_INITIALIZE_TX_V",
      "outputs": [
        {
          "internalType": "uint8",
          "name": "",
          "type": "uint8"
        }
      ],
      "stateMutability": "view",
      "type": "function"
    },
    {
      "inputs": [],
      "name": "acceptAdminRole",
      "outputs": [],
      "stateMutability": "nonpayable",
      "type": "function"
    },
    {
      "inputs": [],
      "name": "activateForceBatches",
      "outputs": [],
      "stateMutability": "nonpayable",
      "type": "function"
    },
    {
      "inputs": [],
      "name": "admin",
      "outputs": [
        {
          "internalType": "address",
          "name": "",
          "type": "address"
        }
      ],
      "stateMutability": "view",
      "type": "function"
    },
    {
      "inputs": [],
      "name": "bridgeAddress",
      "outputs": [
        {
          "internalType": "contract IPolygonZkEVMBridge",
          "name": "",
          "type": "address"
        }
      ],
      "stateMutability": "view",
      "type": "function"
    },
    {
      "inputs": [],
      "name": "calculatePolPerForceBatch",
      "outputs": [
        {
          "internalType": "uint256",
          "name": "",
          "type": "uint256"
        }
      ],
      "stateMutability": "view",
      "type": "function"
    },
    {
      "inputs": [],
      "name": "validium",
      "outputs": [
        {
          "internalType": "contract IPolygonDataAvailabilityProtocol",
          "name": "",
          "type": "address"
        }
      ],
      "stateMutability": "view",
      "type": "function"
    },
    {
      "inputs": [
        {
          "internalType": "bytes",
          "name": "transactions",
          "type": "bytes"
        },
        {
          "internalType": "uint256",
          "name": "polAmount",
          "type": "uint256"
        }
      ],
      "name": "forceBatch",
      "outputs": [],
      "stateMutability": "nonpayable",
      "type": "function"
    },
    {
      "inputs": [],
      "name": "forceBatchTimeout",
      "outputs": [
        {
          "internalType": "uint64",
          "name": "",
          "type": "uint64"
        }
      ],
      "stateMutability": "view",
      "type": "function"
    },
    {
      "inputs": [
        {
          "internalType": "uint64",
          "name": "",
          "type": "uint64"
        }
      ],
      "name": "forcedBatches",
      "outputs": [
        {
          "internalType": "bytes32",
          "name": "",
          "type": "bytes32"
        }
      ],
      "stateMutability": "view",
      "type": "function"
    },
    {
      "inputs": [],
      "name": "gasTokenAddress",
      "outputs": [
        {
          "internalType": "address",
          "name": "",
          "type": "address"
        }
      ],
      "stateMutability": "view",
      "type": "function"
    },
    {
      "inputs": [],
      "name": "gasTokenNetwork",
      "outputs": [
        {
          "internalType": "uint32",
          "name": "",
          "type": "uint32"
        }
      ],
      "stateMutability": "view",
      "type": "function"
    },
    {
      "inputs": [
        {
          "internalType": "uint32",
          "name": "networkID",
          "type": "uint32"
        },
        {
          "internalType": "address",
          "name": "_gasTokenAddress",
          "type": "address"
        },
        {
          "internalType": "uint32",
          "name": "_gasTokenNetwork",
          "type": "uint32"
        }
      ],
      "name": "generateInitializeTransaction",
      "outputs": [
        {
          "internalType": "bytes",
          "name": "",
          "type": "bytes"
        }
      ],
      "stateMutability": "pure",
      "type": "function"
    },
    {
      "inputs": [],
      "name": "globalExitRootManager",
      "outputs": [
        {
          "internalType": "contract IPolygonZkEVMGlobalExitRoot",
          "name": "",
          "type": "address"
        }
      ],
      "stateMutability": "view",
      "type": "function"
    },
    {
      "inputs": [
        {
          "internalType": "address",
          "name": "_admin",
          "type": "address"
        },
        {
          "internalType": "address",
          "name": "sequencer",
          "type": "address"
        },
        {
          "internalType": "uint32",
          "name": "networkID",
          "type": "uint32"
        },
        {
          "internalType": "address",
          "name": "_gasTokenAddress",
          "type": "address"
        },
        {
          "internalType": "uint32",
          "name": "_gasTokenNetwork",
          "type": "uint32"
        },
        {
          "internalType": "string",
          "name": "sequencerURL",
          "type": "string"
        },
        {
          "internalType": "string",
          "name": "_networkName",
          "type": "string"
        }
      ],
      "name": "initialize",
      "outputs": [],
      "stateMutability": "nonpayable",
      "type": "function"
    },
    {
      "inputs": [],
      "name": "isForcedBatchAllowed",
      "outputs": [
        {
          "internalType": "bool",
          "name": "",
          "type": "bool"
        }
      ],
      "stateMutability": "view",
      "type": "function"
    },
    {
      "inputs": [],
      "name": "isSequenceWithDataAvailabilityAllowed",
      "outputs": [
        {
          "internalType": "bool",
          "name": "",
          "type": "bool"
        }
      ],
      "stateMutability": "view",
      "type": "function"
    },
    {
      "inputs": [],
      "name": "lastAccInputHash",
      "outputs": [
        {
          "internalType": "bytes32",
          "name": "",
          "type": "bytes32"
        }
      ],
      "stateMutability": "view",
      "type": "function"
    },
    {
      "inputs": [],
      "name": "lastForceBatch",
      "outputs": [
        {
          "internalType": "uint64",
          "name": "",
          "type": "uint64"
        }
      ],
      "stateMutability": "view",
      "type": "function"
    },
    {
      "inputs": [],
      "name": "lastForceBatchSequenced",
      "outputs": [
        {
          "internalType": "uint64",
          "name": "",
          "type": "uint64"
        }
      ],
      "stateMutability": "view",
      "type": "function"
    },
    {
      "inputs": [],
      "name": "lastTimestamp",
      "outputs": [
        {
          "internalType": "uint64",
          "name": "",
          "type": "uint64"
        }
      ],
      "stateMutability": "view",
      "type": "function"
    },
    {
      "inputs": [],
      "name": "networkName",
      "outputs": [
        {
          "internalType": "string",
          "name": "",
          "type": "string"
        }
      ],
      "stateMutability": "view",
      "type": "function"
    },
    {
      "inputs": [
        {
          "internalType": "uint64",
          "name": "lastVerifiedBatch",
          "type": "uint64"
        },
        {
          "internalType": "bytes32",
          "name": "newStateRoot",
          "type": "bytes32"
        },
        {
          "internalType": "address",
          "name": "aggregator",
          "type": "address"
        }
      ],
      "name": "onVerifyBatches",
      "outputs": [],
      "stateMutability": "nonpayable",
      "type": "function"
    },
    {
      "inputs": [],
      "name": "pendingAdmin",
      "outputs": [
        {
          "internalType": "address",
          "name": "",
          "type": "address"
        }
      ],
      "stateMutability": "view",
      "type": "function"
    },
    {
      "inputs": [],
      "name": "pol",
      "outputs": [
        {
          "internalType": "contract IERC20Upgradeable",
          "name": "",
          "type": "address"
        }
      ],
      "stateMutability": "view",
      "type": "function"
    },
    {
      "inputs": [],
      "name": "rollupManager",
      "outputs": [
        {
          "internalType": "contract PolygonRollupManager",
          "name": "",
          "type": "address"
        }
      ],
      "stateMutability": "view",
      "type": "function"
    },
    {
      "inputs": [
        {
          "components": [
            {
              "internalType": "bytes",
              "name": "transactions",
              "type": "bytes"
            },
            {
              "internalType": "bytes32",
              "name": "globalExitRoot",
              "type": "bytes32"
            },
            {
              "internalType": "uint64",
              "name": "timestamp",
              "type": "uint64"
            },
            {
              "internalType": "uint64",
              "name": "minForcedTimestamp",
              "type": "uint64"
            }
          ],
          "internalType": "struct PolygonRollupBase.BatchData[]",
          "name": "batches",
          "type": "tuple[]"
        },
        {
          "internalType": "address",
          "name": "l2Coinbase",
          "type": "address"
        }
      ],
      "name": "sequenceBatches",
      "outputs": [],
      "stateMutability": "nonpayable",
      "type": "function"
    },
    {
      "inputs": [
        {
          "components": [
            {
              "internalType": "bytes32",
              "name": "transactionsHash",
              "type": "bytes32"
            },
            {
              "internalType": "bytes32",
              "name": "globalExitRoot",
              "type": "bytes32"
            },
            {
              "internalType": "uint64",
              "name": "timestamp",
              "type": "uint64"
            },
            {
              "internalType": "uint64",
              "name": "minForcedTimestamp",
              "type": "uint64"
            }
          ],
          "internalType": "struct PolygonDataComittee.ValidiumBatchData[]",
          "name": "batches",
          "type": "tuple[]"
        },
        {
          "internalType": "address",
          "name": "l2Coinbase",
          "type": "address"
        },
        {
          "internalType": "bytes",
          "name": "dataAvailabilityMessage",
          "type": "bytes"
        }
      ],
      "name": "sequenceBatchesDataCommittee",
      "outputs": [],
      "stateMutability": "nonpayable",
      "type": "function"
    },
    {
      "inputs": [
        {
          "components": [
            {
              "internalType": "bytes",
              "name": "transactions",
              "type": "bytes"
            },
            {
              "internalType": "bytes32",
              "name": "globalExitRoot",
              "type": "bytes32"
            },
            {
              "internalType": "uint64",
              "name": "minForcedTimestamp",
              "type": "uint64"
            }
          ],
          "internalType": "struct PolygonRollupBase.ForcedBatchData[]",
          "name": "batches",
          "type": "tuple[]"
        }
      ],
      "name": "sequenceForceBatches",
      "outputs": [],
      "stateMutability": "nonpayable",
      "type": "function"
    },
    {
      "inputs": [
        {
          "internalType": "uint64",
          "name": "newforceBatchTimeout",
          "type": "uint64"
        }
      ],
      "name": "setForceBatchTimeout",
      "outputs": [],
      "stateMutability": "nonpayable",
      "type": "function"
    },
    {
      "inputs": [
        {
          "internalType": "address",
          "name": "newTrustedSequencer",
          "type": "address"
        }
      ],
      "name": "setTrustedSequencer",
      "outputs": [],
      "stateMutability": "nonpayable",
      "type": "function"
    },
    {
      "inputs": [
        {
          "internalType": "string",
          "name": "newTrustedSequencerURL",
          "type": "string"
        }
      ],
      "name": "setTrustedSequencerURL",
      "outputs": [],
      "stateMutability": "nonpayable",
      "type": "function"
    },
    {
      "inputs": [],
      "name": "switchSequenceWithDataAvailability",
      "outputs": [],
      "stateMutability": "nonpayable",
      "type": "function"
    },
    {
      "inputs": [
        {
          "internalType": "address",
          "name": "newPendingAdmin",
          "type": "address"
        }
      ],
      "name": "transferAdminRole",
      "outputs": [],
      "stateMutability": "nonpayable",
      "type": "function"
    },
    {
      "inputs": [],
      "name": "trustedSequencer",
      "outputs": [
        {
          "internalType": "address",
          "name": "",
          "type": "address"
        }
      ],
      "stateMutability": "view",
      "type": "function"
    },
    {
      "inputs": [],
      "name": "trustedSequencerURL",
      "outputs": [
        {
          "internalType": "string",
          "name": "",
          "type": "string"
        }
      ],
      "stateMutability": "view",
      "type": "function"
    }
  ],
  "bytecode": "0x61012060405234801562000011575f80fd5b506040516200466438038062004664833981016040819052620000349162000076565b6001600160a01b0394851660a05292841660805290831660c052821660e0521661010052620000f2565b6001600160a01b038116811462000073575f80fd5b50565b5f805f805f60a086880312156200008b575f80fd5b855162000098816200005e565b6020870151909550620000ab816200005e565b6040870151909450620000be816200005e565b6060870151909350620000d1816200005e565b6080870151909250620000e4816200005e565b809150509295509295909350565b60805160a05160c05160e05161010051614485620001df5f395f81816105000152611dfc01525f818161049401528181610900015281816109cf01528181610e4a0152818161101001528181611eb901528181611f8201528181611fa4015281816121330152818161265c01528181612729015281816128110152818161317f0152818161320001528181613222015261334401525f81816105b30152818161207a015261328b01525f818161067701528181611b72015281816129590152612ea601525f81816106c40152818161079f01528181611f0c01528181612050015261292e01526144855ff3fe608060405234801561000f575f80fd5b50600436106102c1575f3560e01c80636ff512cc1161017c578063c89e42df116100dd578063d8d1091b11610093578063eaeb077b1161006e578063eaeb077b14610706578063f35dda4714610719578063f851a44014610733575f80fd5b8063d8d1091b146106ac578063e46761c4146106bf578063e7a7ed02146106e6575f80fd5b8063d02103ca116100c3578063d02103ca14610672578063d690be3114610699578063d7bc90ff146106a1575f80fd5b8063c89e42df1461063f578063cfa8ed4714610652575f80fd5b8063aa3587d311610132578063b0afe15411610118578063b0afe154146105f0578063b81fcafd146105fc578063c754c7ed1461060f575f80fd5b8063aa3587d3146105d5578063ada8f919146105dd575f80fd5b806399af03971161016257806399af0397146105805780639e00187714610593578063a3c573eb146105ae575f80fd5b80636ff512cc146105655780638c3d730114610578575f80fd5b806347ebf1081161022657806356e29435116101dc5780635ec91958116101c25780635ec91958146105355780636b8616ce1461053d5780636e05d2cd1461055c575f80fd5b806356e29435146104fb5780635e9145c914610522575f80fd5b80634c21fef31161020c5780634c21fef3146104b65780634e487706146104e0578063542028d5146104f3575f80fd5b806347ebf1081461047c57806349b7b8021461048f575f80fd5b806332c2d1531161027b5780633cbc795b116102615780633cbc795b146103be57806340b5de6c146103fc5780634560526714610454575f80fd5b806332c2d153146103845780633c351e1014610399575f80fd5b806319d8ac61116102ab57806319d8ac61146102f557806326782247146103225780632b35b3ac14610367575f80fd5b8062d0295d146102c5578063107bf28c146102e0575b5f80fd5b6102cd610758565b6040519081526020015b60405180910390f35b6102e8610872565b6040516102d791906138be565b6007546103099067ffffffffffffffff1681565b60405167ffffffffffffffff90911681526020016102d7565b6001546103429073ffffffffffffffffffffffffffffffffffffffff1681565b60405173ffffffffffffffffffffffffffffffffffffffff90911681526020016102d7565b6008546103749060ff1681565b60405190151581526020016102d7565b610397610392366004613917565b6108fe565b005b60085461034290610100900473ffffffffffffffffffffffffffffffffffffffff1681565b6008546103e7907501000000000000000000000000000000000000000000900463ffffffff1681565b60405163ffffffff90911681526020016102d7565b6104237fff0000000000000000000000000000000000000000000000000000000000000081565b6040517fff0000000000000000000000000000000000000000000000000000000000000090911681526020016102d7565b60075461030990700100000000000000000000000000000000900467ffffffffffffffff1681565b61039761048a366004613a62565b6109cd565b6103427f000000000000000000000000000000000000000000000000000000000000000081565b60085461037490790100000000000000000000000000000000000000000000000000900460ff1681565b6103976104ee366004613b12565b610f71565b6102e8611188565b6103427f000000000000000000000000000000000000000000000000000000000000000081565b610397610530366004613b75565b611195565b6103976111fe565b6102cd61054b366004613b12565b60066020525f908152604090205481565b6102cd60055481565b610397610573366004613bbc565b6112e6565b6103976113af565b6102e861058e366004613bd5565b611481565b61034273a40d5f56745a118d0906a34e69aec8c0db1cb8fa81565b6103427f000000000000000000000000000000000000000000000000000000000000000081565b6103976116f9565b6103976105eb366004613bbc565b6117c9565b6102cd6405ca1ab1e081565b61039761060a366004613c4a565b611892565b600754610309907801000000000000000000000000000000000000000000000000900467ffffffffffffffff1681565b61039761064d366004613cf3565b6121f8565b6002546103429073ffffffffffffffffffffffffffffffffffffffff1681565b6103427f000000000000000000000000000000000000000000000000000000000000000081565b6102e861228a565b6102cd635ca1ab1e81565b6103976106ba366004613d25565b6122a6565b6103427f000000000000000000000000000000000000000000000000000000000000000081565b6007546103099068010000000000000000900467ffffffffffffffff1681565b610397610714366004613d64565b6127d2565b610721601b81565b60405160ff90911681526020016102d7565b5f546103429062010000900473ffffffffffffffffffffffffffffffffffffffff1681565b6040517f70a082310000000000000000000000000000000000000000000000000000000081523060048201525f90819073ffffffffffffffffffffffffffffffffffffffff7f000000000000000000000000000000000000000000000000000000000000000016906370a0823190602401602060405180830381865afa1580156107e4573d5f803e3d5ffd5b505050506040513d601f19601f820116820180604052508101906108089190613dac565b6007549091505f906108469067ffffffffffffffff700100000000000000000000000000000000820481169168010000000000000000900416613df0565b67ffffffffffffffff169050805f03610861575f9250505090565b61086b8183613e18565b9250505090565b6004805461087f90613e50565b80601f01602080910402602001604051908101604052809291908181526020018280546108ab90613e50565b80156108f65780601f106108cd576101008083540402835291602001916108f6565b820191905f5260205f20905b8154815290600101906020018083116108d957829003601f168201915b505050505081565b7f000000000000000000000000000000000000000000000000000000000000000073ffffffffffffffffffffffffffffffffffffffff16331461096d576040517fb9b3a2c800000000000000000000000000000000000000000000000000000000815260040160405180910390fd5b8073ffffffffffffffffffffffffffffffffffffffff168367ffffffffffffffff167f9c72852172521097ba7e1482e6b44b351323df0155f97f4ea18fcec28e1f5966846040516109c091815260200190565b60405180910390a3505050565b7f000000000000000000000000000000000000000000000000000000000000000073ffffffffffffffffffffffffffffffffffffffff163314610a3c576040517fb9b3a2c800000000000000000000000000000000000000000000000000000000815260040160405180910390fd5b5f54610100900460ff1615808015610a5a57505f54600160ff909116105b80610a735750303b158015610a7357505f5460ff166001145b610b04576040517f08c379a000000000000000000000000000000000000000000000000000000000815260206004820152602e60248201527f496e697469616c697a61626c653a20636f6e747261637420697320616c72656160448201527f647920696e697469616c697a656400000000000000000000000000000000000060648201526084015b60405180910390fd5b5f80547fffffffffffffffffffffffffffffffffffffffffffffffffffffffffffffff001660011790558015610b60575f80547fffffffffffffffffffffffffffffffffffffffffffffffffffffffffffff00ff166101001790555b5f80547fffffffffffffffffffff0000000000000000000000000000000000000000ffff166201000073ffffffffffffffffffffffffffffffffffffffff8b81169190910291909117909155600280547fffffffffffffffffffffffff0000000000000000000000000000000000000000169189169190911790556003610be78482613eee565b506004610bf48382613eee565b506007805477ffffffffffffffffffffffffffffffffffffffffffffffff167a06978000000000000000000000000000000000000000000000000017905573ffffffffffffffffffffffffffffffffffffffff8516610c8b5763ffffffff841615610c8b576040517f1a874c1200000000000000000000000000000000000000000000000000000000815260040160405180910390fd5b600880547fffffffffffffff000000000000000000000000000000000000000000000000ff1661010073ffffffffffffffffffffffffffffffffffffffff8816027fffffffffffffff00000000ffffffffffffffffffffffffffffffffffffffffff1617750100000000000000000000000000000000000000000063ffffffff8716021790555f610d1d878787611481565b8051602080830191909120604080515f93810184905290810182905260608082018490524260c081901b7fffffffffffffffff000000000000000000000000000000000000000000000000166080840152908d901b7fffffffffffffffffffffffffffffffffffffffff00000000000000000000000016608883015293945090929190609c01604080518083037fffffffffffffffffffffffffffffffffffffffffffffffffffffffffffffffe0018152908290528051602090910120600780547fffffffffffffffffffffffffffffffffffffffffffffffff00000000000000001667ffffffffffffffff861617905560058190557f9a908e73000000000000000000000000000000000000000000000000000000008252600160048301526024820181905291505f907f000000000000000000000000000000000000000000000000000000000000000073ffffffffffffffffffffffffffffffffffffffff1690639a908e73906044016020604051808303815f875af1158015610ea5573d5f803e3d5ffd5b505050506040513d601f19601f82011682018060405250810190610ec99190614006565b60405190915067ffffffffffffffff8216907f303446e6a8cb73c83dff421c0b1d5e5ce0719dab1bff13660fc254e58cc17fce905f90a250505050508015610f67575f80547fffffffffffffffffffffffffffffffffffffffffffffffffffffffffffff00ff169055604051600181527f7f26b83ff96e1f2b6a682f133852f6798a09c465da95921460cefb38474024989060200160405180910390a15b5050505050505050565b5f5462010000900473ffffffffffffffffffffffffffffffffffffffff163314610fc7576040517f4755657900000000000000000000000000000000000000000000000000000000815260040160405180910390fd5b62093a8067ffffffffffffffff8216111561100e576040517ff5e37f2f00000000000000000000000000000000000000000000000000000000815260040160405180910390fd5b7f000000000000000000000000000000000000000000000000000000000000000073ffffffffffffffffffffffffffffffffffffffff166315064c966040518163ffffffff1660e01b8152600401602060405180830381865afa158015611077573d5f803e3d5ffd5b505050506040513d601f19601f8201168201806040525081019061109b9190614021565b6111045760075467ffffffffffffffff7801000000000000000000000000000000000000000000000000909104811690821610611104576040517ff5e37f2f00000000000000000000000000000000000000000000000000000000815260040160405180910390fd5b6007805477ffffffffffffffffffffffffffffffffffffffffffffffff16780100000000000000000000000000000000000000000000000067ffffffffffffffff8416908102919091179091556040519081527fa7eb6cb8a613eb4e8bddc1ac3d61ec6cf10898760f0b187bcca794c6ca6fa40b906020015b60405180910390a150565b6003805461087f90613e50565b600854790100000000000000000000000000000000000000000000000000900460ff166111ee576040517f821935b400000000000000000000000000000000000000000000000000000000815260040160405180910390fd5b6111f9838383612bb9565b505050565b5f5462010000900473ffffffffffffffffffffffffffffffffffffffff163314611254576040517f4755657900000000000000000000000000000000000000000000000000000000815260040160405180910390fd5b60085460ff1615611291576040517ff6ba91a100000000000000000000000000000000000000000000000000000000815260040160405180910390fd5b600880547fffffffffffffffffffffffffffffffffffffffffffffffffffffffffffffff001660011790556040517f854dd6ce5a1445c4c54388b21cffd11cf5bba1b9e763aec48ce3da75d617412f905f90a1565b5f5462010000900473ffffffffffffffffffffffffffffffffffffffff16331461133c576040517f4755657900000000000000000000000000000000000000000000000000000000815260040160405180910390fd5b600280547fffffffffffffffffffffffff00000000000000000000000000000000000000001673ffffffffffffffffffffffffffffffffffffffff83169081179091556040519081527ff54144f9611984021529f814a1cb6a41e22c58351510a0d9f7e822618abb9cc09060200161117d565b60015473ffffffffffffffffffffffffffffffffffffffff163314611400576040517fd1ec4b2300000000000000000000000000000000000000000000000000000000815260040160405180910390fd5b6001545f80547fffffffffffffffffffff0000000000000000000000000000000000000000ffff1673ffffffffffffffffffffffffffffffffffffffff9092166201000081029290921790556040519081527f056dc487bbf0795d0bbb1b4f0af523a855503cff740bfb4d5475f7a90c091e8e9060200160405180910390a1565b60605f60405180606001604052806021815260200161442f6021913960405163ffffffff808816602483015273ffffffffffffffffffffffffffffffffffffffff871660448301528516606482015273a40d5f56745a118d0906a34e69aec8c0db1cb8fa60848201525f60a482015260c401604080517fffffffffffffffffffffffffffffffffffffffffffffffffffffffffffffffe0818403018152918152602080830180517bffffffffffffffffffffffffffffffffffffffffffffffffffffffff167fd3476afe00000000000000000000000000000000000000000000000000000000179052905161157893929101614040565b604080517fffffffffffffffffffffffffffffffffffffffffffffffffffffffffffffffe081840301815282825280516020808301919091205f80865291850180855252601b928401929092526405ca1ab1e06060840152635ca1ab1e608084015292509060019060a0016020604051602081039080840390855afa158015611603573d5f803e3d5ffd5b50506040517fffffffffffffffffffffffffffffffffffffffffffffffffffffffffffffffe0015191505073ffffffffffffffffffffffffffffffffffffffff811661167b576040517fcd16196600000000000000000000000000000000000000000000000000000000815260040160405180910390fd5b6040515f906116c09084906405ca1ab1e090635ca1ab1e90601b907fff000000000000000000000000000000000000000000000000000000000000009060200161406e565b604080518083037fffffffffffffffffffffffffffffffffffffffffffffffffffffffffffffffe0018152919052979650505050505050565b5f5462010000900473ffffffffffffffffffffffffffffffffffffffff16331461174f576040517f4755657900000000000000000000000000000000000000000000000000000000815260040160405180910390fd5b600880547fffffffffffff00ffffffffffffffffffffffffffffffffffffffffffffffffff81167901000000000000000000000000000000000000000000000000009182900460ff16159091021790556040517ff32a0473f809a720a4f8af1e50d353f1caf7452030626fdaac4273f5e6587f41905f90a1565b5f5462010000900473ffffffffffffffffffffffffffffffffffffffff16331461181f576040517f4755657900000000000000000000000000000000000000000000000000000000815260040160405180910390fd5b600180547fffffffffffffffffffffffff00000000000000000000000000000000000000001673ffffffffffffffffffffffffffffffffffffffff83169081179091556040519081527fa5b56b7906fd0a20e3f35120dd8343db1e12e037a6c90111c7e42885e82a1ce69060200161117d565b60025473ffffffffffffffffffffffffffffffffffffffff1633146118e3576040517f11e7be1500000000000000000000000000000000000000000000000000000000815260040160405180910390fd5b835f81900361191e576040517fcb591a5f00000000000000000000000000000000000000000000000000000000815260040160405180910390fd5b6103e881111561195a576040517fb59f753a00000000000000000000000000000000000000000000000000000000815260040160405180910390fd5b60075460055467ffffffffffffffff8083169270010000000000000000000000000000000090041690815f5b85811015611d42575f8b8b838181106119a1576119a16140c9565b9050608002018036038101906119b791906140f6565b805160608201519192509067ffffffffffffffff1615611b2f57856119db81614149565b9650505f8183602001518460600151604051602001611a3293929190928352602083019190915260c01b7fffffffffffffffff00000000000000000000000000000000000000000000000016604082015260480190565b604080517fffffffffffffffffffffffffffffffffffffffffffffffffffffffffffffffe0818403018152918152815160209283012067ffffffffffffffff8a165f90815260069093529120549091508114611aba576040517fce3d755e00000000000000000000000000000000000000000000000000000000815260040160405180910390fd5b826060015167ffffffffffffffff16836040015167ffffffffffffffff161015611b10576040517f7f7ab87200000000000000000000000000000000000000000000000000000000815260040160405180910390fd5b5067ffffffffffffffff86165f90815260066020526040812055611c2a565b602082015115801590611bf3575060208201516040517f257b363200000000000000000000000000000000000000000000000000000000815260048101919091527f000000000000000000000000000000000000000000000000000000000000000073ffffffffffffffffffffffffffffffffffffffff169063257b3632906024016020604051808303815f875af1158015611bcd573d5f803e3d5ffd5b505050506040513d601f19601f82011682018060405250810190611bf19190613dac565b155b15611c2a576040517f73bd668d00000000000000000000000000000000000000000000000000000000815260040160405180910390fd5b8667ffffffffffffffff16826040015167ffffffffffffffff161080611c5d575042826040015167ffffffffffffffff16115b15611c94576040517fea82791600000000000000000000000000000000000000000000000000000000815260040160405180910390fd5b602082810151604080850151815193840189905290830184905260608084019290925260c01b7fffffffffffffffff0000000000000000000000000000000000000000000000001660808301528c901b7fffffffffffffffffffffffffffffffffffffffff000000000000000000000000166088820152609c016040516020818303038152906040528051906020012094508160400151965050508080611d3a9061416f565b915050611986565b5060075467ffffffffffffffff6801000000000000000090910481169084161115611d99576040517fc630a00d00000000000000000000000000000000000000000000000000000000815260040160405180910390fd5b600780547fffffffffffffffffffffffffffffffffffffffffffffffff00000000000000001667ffffffffffffffff861617905560058290556040517fc7a823e000000000000000000000000000000000000000000000000000000000815285907f000000000000000000000000000000000000000000000000000000000000000073ffffffffffffffffffffffffffffffffffffffff169063c7a823e090611e4a9086908c908c906004016141ed565b5f6040518083038186803b158015611e60575f80fd5b505afa158015611e72573d5f803e3d5ffd5b505050508167ffffffffffffffff168467ffffffffffffffff1614611f7c575f611e9c8386613df0565b9050611eb267ffffffffffffffff82168361420f565b9150611f337f00000000000000000000000000000000000000000000000000000000000000008267ffffffffffffffff16611eeb610758565b611ef59190614228565b73ffffffffffffffffffffffffffffffffffffffff7f0000000000000000000000000000000000000000000000000000000000000000169190613407565b50600780547fffffffffffffffff0000000000000000ffffffffffffffffffffffffffffffff1670010000000000000000000000000000000067ffffffffffffffff8716021790555b612078337f0000000000000000000000000000000000000000000000000000000000000000837f000000000000000000000000000000000000000000000000000000000000000073ffffffffffffffffffffffffffffffffffffffff1663477fa2706040518163ffffffff1660e01b8152600401602060405180830381865afa15801561200b573d5f803e3d5ffd5b505050506040513d601f19601f8201168201806040525081019061202f9190613dac565b6120399190614228565b73ffffffffffffffffffffffffffffffffffffffff7f0000000000000000000000000000000000000000000000000000000000000000169291906134db565b7f000000000000000000000000000000000000000000000000000000000000000073ffffffffffffffffffffffffffffffffffffffff166379e2cf976040518163ffffffff1660e01b81526004015f604051808303815f87803b1580156120dd575f80fd5b505af11580156120ef573d5f803e3d5ffd5b50506040517f9a908e7300000000000000000000000000000000000000000000000000000000815267ffffffffffffffff89166004820152602481018690525f92507f000000000000000000000000000000000000000000000000000000000000000073ffffffffffffffffffffffffffffffffffffffff169150639a908e73906044016020604051808303815f875af115801561218f573d5f803e3d5ffd5b505050506040513d601f19601f820116820180604052508101906121b39190614006565b60405190915067ffffffffffffffff8216907f303446e6a8cb73c83dff421c0b1d5e5ce0719dab1bff13660fc254e58cc17fce905f90a2505050505050505050505050565b5f5462010000900473ffffffffffffffffffffffffffffffffffffffff16331461224e576040517f4755657900000000000000000000000000000000000000000000000000000000815260040160405180910390fd5b600361225a8282613eee565b507f6b8f723a4c7a5335cafae8a598a0aa0301be1387c037dccc085b62add6448b208160405161117d91906138be565b60405180606001604052806021815260200161442f6021913981565b60085460ff166122e2576040517f24eff8c300000000000000000000000000000000000000000000000000000000815260040160405180910390fd5b805f81900361231d576040517fcb591a5f00000000000000000000000000000000000000000000000000000000815260040160405180910390fd5b6103e8811115612359576040517fb59f753a00000000000000000000000000000000000000000000000000000000815260040160405180910390fd5b60075467ffffffffffffffff68010000000000000000820481169161239491849170010000000000000000000000000000000090041661423f565b11156123cc576040517fc630a00d00000000000000000000000000000000000000000000000000000000815260040160405180910390fd5b60075460055470010000000000000000000000000000000090910467ffffffffffffffff16905f5b83811015612656575f86868381811061240f5761240f6140c9565b90506020028101906124219190614252565b61242a9061428e565b90508361243681614149565b825180516020918201208185015160408087015190519499509194505f936124979386939101928352602083019190915260c01b7fffffffffffffffff00000000000000000000000000000000000000000000000016604082015260480190565b604080517fffffffffffffffffffffffffffffffffffffffffffffffffffffffffffffffe0818403018152918152815160209283012067ffffffffffffffff89165f9081526006909352912054909150811461251f576040517fce3d755e00000000000000000000000000000000000000000000000000000000815260040160405180910390fd5b67ffffffffffffffff86165f9081526006602052604081205561254360018861420f565b84036125b25742600760189054906101000a900467ffffffffffffffff1684604001516125709190614309565b67ffffffffffffffff1611156125b2576040517fc44a082100000000000000000000000000000000000000000000000000000000815260040160405180910390fd5b6020838101516040805192830188905282018490526060808301919091524260c01b7fffffffffffffffff00000000000000000000000000000000000000000000000016608083015233901b7fffffffffffffffffffffffffffffffffffffffff000000000000000000000000166088820152609c01604051602081830303815290604052805190602001209450505050808061264e9061416f565b9150506123f4565b506126847f000000000000000000000000000000000000000000000000000000000000000084611eeb610758565b60058190556007805467ffffffffffffffff848116700100000000000000000000000000000000027fffffffffffffffff0000000000000000ffffffffffffffff000000000000000090921642821617919091179091556040517f9a908e730000000000000000000000000000000000000000000000000000000081529084166004820152602481018290525f9073ffffffffffffffffffffffffffffffffffffffff7f00000000000000000000000000000000000000000000000000000000000000001690639a908e73906044016020604051808303815f875af115801561276f573d5f803e3d5ffd5b505050506040513d601f19601f820116820180604052508101906127939190614006565b60405190915067ffffffffffffffff8216907f648a61dd2438f072f5a1960939abd30f37aea80d2e94c9792ad142d3e0a490a4905f90a2505050505050565b60085460ff1661280e576040517f24eff8c300000000000000000000000000000000000000000000000000000000815260040160405180910390fd5b5f7f000000000000000000000000000000000000000000000000000000000000000073ffffffffffffffffffffffffffffffffffffffff1663604691696040518163ffffffff1660e01b8152600401602060405180830381865afa158015612878573d5f803e3d5ffd5b505050506040513d601f19601f8201168201806040525081019061289c9190613dac565b9050818111156128d8576040517f2354600f00000000000000000000000000000000000000000000000000000000815260040160405180910390fd5b611388831115612914576040517fa29a6c7c00000000000000000000000000000000000000000000000000000000815260040160405180910390fd5b61295673ffffffffffffffffffffffffffffffffffffffff7f0000000000000000000000000000000000000000000000000000000000000000163330846134db565b5f7f000000000000000000000000000000000000000000000000000000000000000073ffffffffffffffffffffffffffffffffffffffff16633ed691ef6040518163ffffffff1660e01b8152600401602060405180830381865afa1580156129c0573d5f803e3d5ffd5b505050506040513d601f19601f820116820180604052508101906129e49190613dac565b600780549192506801000000000000000090910467ffffffffffffffff16906008612a0e83614149565b91906101000a81548167ffffffffffffffff021916908367ffffffffffffffff160217905550508484604051612a4592919061432a565b60408051918290038220602083015281018290527fffffffffffffffff0000000000000000000000000000000000000000000000004260c01b166060820152606801604080518083037fffffffffffffffffffffffffffffffffffffffffffffffffffffffffffffffe0018152918152815160209283012060075468010000000000000000900467ffffffffffffffff165f9081526006909352912055323303612b53576007546040805183815233602082015260609181018290525f918101919091526801000000000000000090910467ffffffffffffffff16907ff94bb37db835f1ab585ee00041849a09b12cd081d77fa15ca070757619cbc9319060800160405180910390a2612bb2565b600760089054906101000a900467ffffffffffffffff1667ffffffffffffffff167ff94bb37db835f1ab585ee00041849a09b12cd081d77fa15ca070757619cbc93182338888604051612ba99493929190614339565b60405180910390a25b5050505050565b60025473ffffffffffffffffffffffffffffffffffffffff163314612c0a576040517f11e7be1500000000000000000000000000000000000000000000000000000000815260040160405180910390fd5b815f819003612c45576040517fcb591a5f00000000000000000000000000000000000000000000000000000000815260040160405180910390fd5b6103e8811115612c81576040517fb59f753a00000000000000000000000000000000000000000000000000000000815260040160405180910390fd5b60075460055467ffffffffffffffff8083169270010000000000000000000000000000000090041690815f5b858110156130b5575f898983818110612cc857612cc86140c9565b9050602002810190612cda9190614378565b612ce3906143aa565b8051805160209091012060608201519192509067ffffffffffffffff1615612e635785612d0f81614149565b9650505f8183602001518460600151604051602001612d6693929190928352602083019190915260c01b7fffffffffffffffff00000000000000000000000000000000000000000000000016604082015260480190565b604080517fffffffffffffffffffffffffffffffffffffffffffffffffffffffffffffffe0818403018152918152815160209283012067ffffffffffffffff8a165f90815260069093529120549091508114612dee576040517fce3d755e00000000000000000000000000000000000000000000000000000000815260040160405180910390fd5b826060015167ffffffffffffffff16836040015167ffffffffffffffff161015612e44576040517f7f7ab87200000000000000000000000000000000000000000000000000000000815260040160405180910390fd5b5067ffffffffffffffff86165f90815260066020526040812055612f9d565b602082015115801590612f27575060208201516040517f257b363200000000000000000000000000000000000000000000000000000000815260048101919091527f000000000000000000000000000000000000000000000000000000000000000073ffffffffffffffffffffffffffffffffffffffff169063257b3632906024016020604051808303815f875af1158015612f01573d5f803e3d5ffd5b505050506040513d601f19601f82011682018060405250810190612f259190613dac565b155b15612f5e576040517f73bd668d00000000000000000000000000000000000000000000000000000000815260040160405180910390fd5b8151516201d4c01015612f9d576040517fa29a6c7c00000000000000000000000000000000000000000000000000000000815260040160405180910390fd5b8667ffffffffffffffff16826040015167ffffffffffffffff161080612fd0575042826040015167ffffffffffffffff16115b15613007576040517fea82791600000000000000000000000000000000000000000000000000000000815260040160405180910390fd5b602082810151604080850151815193840189905290830184905260608084019290925260c01b7fffffffffffffffff0000000000000000000000000000000000000000000000001660808301528a901b7fffffffffffffffffffffffffffffffffffffffff000000000000000000000000166088820152609c0160405160208183030381529060405280519060200120945081604001519650505080806130ad9061416f565b915050612cad565b5060075467ffffffffffffffff680100000000000000009091048116908416111561310c576040517fc630a00d00000000000000000000000000000000000000000000000000000000815260040160405180910390fd5b600780547fffffffffffffffffffffffffffffffffffffffffffffffff00000000000000001667ffffffffffffffff8681169190911790915560058390558590828116908516146131fa575f6131628386613df0565b905061317867ffffffffffffffff82168361420f565b91506131b17f00000000000000000000000000000000000000000000000000000000000000008267ffffffffffffffff16611eeb610758565b50600780547fffffffffffffffff0000000000000000ffffffffffffffffffffffffffffffff1670010000000000000000000000000000000067ffffffffffffffff8716021790555b613289337f0000000000000000000000000000000000000000000000000000000000000000837f000000000000000000000000000000000000000000000000000000000000000073ffffffffffffffffffffffffffffffffffffffff1663477fa2706040518163ffffffff1660e01b8152600401602060405180830381865afa15801561200b573d5f803e3d5ffd5b7f000000000000000000000000000000000000000000000000000000000000000073ffffffffffffffffffffffffffffffffffffffff166379e2cf976040518163ffffffff1660e01b81526004015f604051808303815f87803b1580156132ee575f80fd5b505af1158015613300573d5f803e3d5ffd5b50506040517f9a908e7300000000000000000000000000000000000000000000000000000000815267ffffffffffffffff89166004820152602481018690525f92507f000000000000000000000000000000000000000000000000000000000000000073ffffffffffffffffffffffffffffffffffffffff169150639a908e73906044016020604051808303815f875af11580156133a0573d5f803e3d5ffd5b505050506040513d601f19601f820116820180604052508101906133c49190614006565b60405190915067ffffffffffffffff8216907f303446e6a8cb73c83dff421c0b1d5e5ce0719dab1bff13660fc254e58cc17fce905f90a250505050505050505050565b60405173ffffffffffffffffffffffffffffffffffffffff83166024820152604481018290526111f99084907fa9059cbb00000000000000000000000000000000000000000000000000000000906064015b604080517fffffffffffffffffffffffffffffffffffffffffffffffffffffffffffffffe08184030181529190526020810180517bffffffffffffffffffffffffffffffffffffffffffffffffffffffff167fffffffff000000000000000000000000000000000000000000000000000000009093169290921790915261353f565b60405173ffffffffffffffffffffffffffffffffffffffff808516602483015283166044820152606481018290526135399085907f23b872dd0000000000000000000000000000000000000000000000000000000090608401613459565b50505050565b5f6135a0826040518060400160405280602081526020017f5361666545524332303a206c6f772d6c6576656c2063616c6c206661696c65648152508573ffffffffffffffffffffffffffffffffffffffff1661364a9092919063ffffffff16565b8051909150156111f957808060200190518101906135be9190614021565b6111f9576040517f08c379a000000000000000000000000000000000000000000000000000000000815260206004820152602a60248201527f5361666545524332303a204552433230206f7065726174696f6e20646964206e60448201527f6f742073756363656564000000000000000000000000000000000000000000006064820152608401610afb565b606061365884845f85613660565b949350505050565b6060824710156136f2576040517f08c379a000000000000000000000000000000000000000000000000000000000815260206004820152602660248201527f416464726573733a20696e73756666696369656e742062616c616e636520666f60448201527f722063616c6c00000000000000000000000000000000000000000000000000006064820152608401610afb565b5f808673ffffffffffffffffffffffffffffffffffffffff16858760405161371a919061441d565b5f6040518083038185875af1925050503d805f8114613754576040519150601f19603f3d011682016040523d82523d5f602084013e613759565b606091505b509150915061376a87838387613775565b979650505050505050565b6060831561380a5782515f036138035773ffffffffffffffffffffffffffffffffffffffff85163b613803576040517f08c379a000000000000000000000000000000000000000000000000000000000815260206004820152601d60248201527f416464726573733a2063616c6c20746f206e6f6e2d636f6e74726163740000006044820152606401610afb565b5081613658565b613658838381511561381f5781518083602001fd5b806040517f08c379a0000000000000000000000000000000000000000000000000000000008152600401610afb91906138be565b5f5b8381101561386d578181015183820152602001613855565b50505f910152565b5f815180845261388c816020860160208601613853565b601f017fffffffffffffffffffffffffffffffffffffffffffffffffffffffffffffffe0169290920160200192915050565b602081525f6138d06020830184613875565b9392505050565b67ffffffffffffffff811681146138ec575f80fd5b50565b803573ffffffffffffffffffffffffffffffffffffffff81168114613912575f80fd5b919050565b5f805f60608486031215613929575f80fd5b8335613934816138d7565b925060208401359150613949604085016138ef565b90509250925092565b803563ffffffff81168114613912575f80fd5b7f4e487b71000000000000000000000000000000000000000000000000000000005f52604160045260245ffd5b6040516080810167ffffffffffffffff811182821017156139b5576139b5613965565b60405290565b5f82601f8301126139ca575f80fd5b813567ffffffffffffffff808211156139e5576139e5613965565b604051601f83017fffffffffffffffffffffffffffffffffffffffffffffffffffffffffffffffe0908116603f01168101908282118183101715613a2b57613a2b613965565b81604052838152866020858801011115613a43575f80fd5b836020870160208301375f602085830101528094505050505092915050565b5f805f805f805f60e0888a031215613a78575f80fd5b613a81886138ef565b9650613a8f602089016138ef565b9550613a9d60408901613952565b9450613aab606089016138ef565b9350613ab960808901613952565b925060a088013567ffffffffffffffff80821115613ad5575f80fd5b613ae18b838c016139bb565b935060c08a0135915080821115613af6575f80fd5b50613b038a828b016139bb565b91505092959891949750929550565b5f60208284031215613b22575f80fd5b81356138d0816138d7565b5f8083601f840112613b3d575f80fd5b50813567ffffffffffffffff811115613b54575f80fd5b6020830191508360208260051b8501011115613b6e575f80fd5b9250929050565b5f805f60408486031215613b87575f80fd5b833567ffffffffffffffff811115613b9d575f80fd5b613ba986828701613b2d565b90945092506139499050602085016138ef565b5f60208284031215613bcc575f80fd5b6138d0826138ef565b5f805f60608486031215613be7575f80fd5b613bf084613952565b9250613bfe602085016138ef565b915061394960408501613952565b5f8083601f840112613c1c575f80fd5b50813567ffffffffffffffff811115613c33575f80fd5b602083019150836020828501011115613b6e575f80fd5b5f805f805f60608688031215613c5e575f80fd5b853567ffffffffffffffff80821115613c75575f80fd5b818801915088601f830112613c88575f80fd5b813581811115613c96575f80fd5b8960208260071b8501011115613caa575f80fd5b60208301975080965050613cc0602089016138ef565b94506040880135915080821115613cd5575f80fd5b50613ce288828901613c0c565b969995985093965092949392505050565b5f60208284031215613d03575f80fd5b813567ffffffffffffffff811115613d19575f80fd5b613658848285016139bb565b5f8060208385031215613d36575f80fd5b823567ffffffffffffffff811115613d4c575f80fd5b613d5885828601613b2d565b90969095509350505050565b5f805f60408486031215613d76575f80fd5b833567ffffffffffffffff811115613d8c575f80fd5b613d9886828701613c0c565b909790965060209590950135949350505050565b5f60208284031215613dbc575f80fd5b5051919050565b7f4e487b71000000000000000000000000000000000000000000000000000000005f52601160045260245ffd5b67ffffffffffffffff828116828216039080821115613e1157613e11613dc3565b5092915050565b5f82613e4b577f4e487b71000000000000000000000000000000000000000000000000000000005f52601260045260245ffd5b500490565b600181811c90821680613e6457607f821691505b602082108103613e9b577f4e487b71000000000000000000000000000000000000000000000000000000005f52602260045260245ffd5b50919050565b601f8211156111f9575f81815260208120601f850160051c81016020861015613ec75750805b601f850160051c820191505b81811015613ee657828155600101613ed3565b505050505050565b815167ffffffffffffffff811115613f0857613f08613965565b613f1c81613f168454613e50565b84613ea1565b602080601f831160018114613f6e575f8415613f385750858301515b7fffffffffffffffffffffffffffffffffffffffffffffffffffffffffffffffff600386901b1c1916600185901b178555613ee6565b5f858152602081207fffffffffffffffffffffffffffffffffffffffffffffffffffffffffffffffe08616915b82811015613fba57888601518255948401946001909101908401613f9b565b5085821015613ff657878501517fffffffffffffffffffffffffffffffffffffffffffffffffffffffffffffffff600388901b60f8161c191681555b5050505050600190811b01905550565b5f60208284031215614016575f80fd5b81516138d0816138d7565b5f60208284031215614031575f80fd5b815180151581146138d0575f80fd5b5f8351614051818460208801613853565b835190830190614065818360208801613853565b01949350505050565b5f865161407f818460208b01613853565b9190910194855250602084019290925260f81b7fff000000000000000000000000000000000000000000000000000000000000009081166040840152166041820152604201919050565b7f4e487b71000000000000000000000000000000000000000000000000000000005f52603260045260245ffd5b5f60808284031215614106575f80fd5b61410e613992565b8235815260208301356020820152604083013561412a816138d7565b6040820152606083013561413d816138d7565b60608201529392505050565b5f67ffffffffffffffff80831681810361416557614165613dc3565b6001019392505050565b5f7fffffffffffffffffffffffffffffffffffffffffffffffffffffffffffffffff820361419f5761419f613dc3565b5060010190565b81835281816020850137505f602082840101525f60207fffffffffffffffffffffffffffffffffffffffffffffffffffffffffffffffe0601f840116840101905092915050565b838152604060208201525f6142066040830184866141a6565b95945050505050565b8181038181111561422257614222613dc3565b92915050565b808202811582820484141761422257614222613dc3565b8082018082111561422257614222613dc3565b5f82357fffffffffffffffffffffffffffffffffffffffffffffffffffffffffffffffa1833603018112614284575f80fd5b9190910192915050565b5f6060823603121561429e575f80fd5b6040516060810167ffffffffffffffff82821081831117156142c2576142c2613965565b8160405284359150808211156142d6575f80fd5b506142e3368286016139bb565b8252506020830135602082015260408301356142fe816138d7565b604082015292915050565b67ffffffffffffffff818116838216019080821115613e1157613e11613dc3565b818382375f9101908152919050565b84815273ffffffffffffffffffffffffffffffffffffffff84166020820152606060408201525f61436e6060830184866141a6565b9695505050505050565b5f82357fffffffffffffffffffffffffffffffffffffffffffffffffffffffffffffff81833603018112614284575f80fd5b5f608082360312156143ba575f80fd5b6143c2613992565b823567ffffffffffffffff8111156143d8575f80fd5b6143e4368286016139bb565b8252506020830135602082015260408301356143ff816138d7565b60408201526060830135614412816138d7565b606082015292915050565b5f825161428481846020870161385356fef8c380808401c9c380942a3dd3eb832af982ec71669e178424b10dca2ede80b8a4a2646970667358221220e3dd0944c8635ef7e774cd50f37780a6963276b54f0e9e544486d1482271dffa64736f6c63430008140033",
  "linkReferences": {},
  "deployedLinkReferences": {}
}