{
  "_format": "hh-sol-artifact-1",
  "contractName": "PolygonZkEVMMock",
  "sourceName": "contracts/mocks/PolygonZkEVMMock.sol",
  "abi": [
    {
      "inputs": [
        {
          "internalType": "contract IPolygonZkEVMGlobalExitRoot",
          "name": "_globalExitRootManager",
          "type": "address"
        },
        {
          "internalType": "contract IERC20Upgradeable",
          "name": "_matic",
          "type": "address"
        },
        {
          "internalType": "contract IVerifierRollup",
          "name": "_rollupVerifier",
          "type": "address"
        },
        {
          "internalType": "contract IPolygonZkEVMBridge",
          "name": "_bridgeAddress",
          "type": "address"
        },
        {
          "internalType": "uint64",
          "name": "_chainID",
          "type": "uint64"
        },
        {
          "internalType": "uint64",
          "name": "_forkID",
          "type": "uint64"
        }
      ],
      "stateMutability": "nonpayable",
      "type": "constructor"
    },
    {
      "inputs": [],
      "name": "BatchAlreadyVerified",
      "type": "error"
    },
    {
      "inputs": [],
      "name": "BatchNotSequencedOrNotSequenceEnd",
      "type": "error"
    },
    {
      "inputs": [],
      "name": "ExceedMaxVerifyBatches",
      "type": "error"
    },
    {
      "inputs": [],
      "name": "FinalNumBatchBelowLastVerifiedBatch",
      "type": "error"
    },
    {
      "inputs": [],
      "name": "FinalNumBatchDoesNotMatchPendingState",
      "type": "error"
    },
    {
      "inputs": [],
      "name": "FinalPendingStateNumInvalid",
      "type": "error"
    },
    {
      "inputs": [],
      "name": "ForceBatchNotAllowed",
      "type": "error"
    },
    {
      "inputs": [],
      "name": "ForceBatchTimeoutNotExpired",
      "type": "error"
    },
    {
      "inputs": [],
      "name": "ForceBatchesAlreadyActive",
      "type": "error"
    },
    {
      "inputs": [],
      "name": "ForceBatchesOverflow",
      "type": "error"
    },
    {
      "inputs": [],
      "name": "ForcedDataDoesNotMatch",
      "type": "error"
    },
    {
      "inputs": [],
      "name": "GlobalExitRootNotExist",
      "type": "error"
    },
    {
      "inputs": [],
      "name": "HaltTimeoutNotExpired",
      "type": "error"
    },
    {
      "inputs": [],
      "name": "InitNumBatchAboveLastVerifiedBatch",
      "type": "error"
    },
    {
      "inputs": [],
      "name": "InitNumBatchDoesNotMatchPendingState",
      "type": "error"
    },
    {
      "inputs": [],
      "name": "InvalidProof",
      "type": "error"
    },
    {
      "inputs": [],
      "name": "InvalidRangeBatchTimeTarget",
      "type": "error"
    },
    {
      "inputs": [],
      "name": "InvalidRangeForceBatchTimeout",
      "type": "error"
    },
    {
      "inputs": [],
      "name": "InvalidRangeMultiplierBatchFee",
      "type": "error"
    },
    {
      "inputs": [],
      "name": "NewAccInputHashDoesNotExist",
      "type": "error"
    },
    {
      "inputs": [],
      "name": "NewPendingStateTimeoutMustBeLower",
      "type": "error"
    },
    {
      "inputs": [],
      "name": "NewStateRootNotInsidePrime",
      "type": "error"
    },
    {
      "inputs": [],
      "name": "NewTrustedAggregatorTimeoutMustBeLower",
      "type": "error"
    },
    {
      "inputs": [],
      "name": "NotEnoughMaticAmount",
      "type": "error"
    },
    {
      "inputs": [],
      "name": "OldAccInputHashDoesNotExist",
      "type": "error"
    },
    {
      "inputs": [],
      "name": "OldStateRootDoesNotExist",
      "type": "error"
    },
    {
      "inputs": [],
      "name": "OnlyAdmin",
      "type": "error"
    },
    {
      "inputs": [],
      "name": "OnlyEmergencyState",
      "type": "error"
    },
    {
      "inputs": [],
      "name": "OnlyNotEmergencyState",
      "type": "error"
    },
    {
      "inputs": [],
      "name": "OnlyPendingAdmin",
      "type": "error"
    },
    {
      "inputs": [],
      "name": "OnlyTrustedAggregator",
      "type": "error"
    },
    {
      "inputs": [],
      "name": "OnlyTrustedSequencer",
      "type": "error"
    },
    {
      "inputs": [],
      "name": "PendingStateDoesNotExist",
      "type": "error"
    },
    {
      "inputs": [],
      "name": "PendingStateInvalid",
      "type": "error"
    },
    {
      "inputs": [],
      "name": "PendingStateNotConsolidable",
      "type": "error"
    },
    {
      "inputs": [],
      "name": "PendingStateTimeoutExceedHaltAggregationTimeout",
      "type": "error"
    },
    {
      "inputs": [],
      "name": "SequenceZeroBatches",
      "type": "error"
    },
    {
      "inputs": [],
      "name": "SequencedTimestampBelowForcedTimestamp",
      "type": "error"
    },
    {
      "inputs": [],
      "name": "SequencedTimestampInvalid",
      "type": "error"
    },
    {
      "inputs": [],
      "name": "StoredRootMustBeDifferentThanNewRoot",
      "type": "error"
    },
    {
      "inputs": [],
      "name": "TransactionsLengthAboveMax",
      "type": "error"
    },
    {
      "inputs": [],
      "name": "TrustedAggregatorTimeoutExceedHaltAggregationTimeout",
      "type": "error"
    },
    {
      "inputs": [],
      "name": "TrustedAggregatorTimeoutNotExpired",
      "type": "error"
    },
    {
      "anonymous": false,
      "inputs": [
        {
          "indexed": false,
          "internalType": "address",
          "name": "newAdmin",
          "type": "address"
        }
      ],
      "name": "AcceptAdminRole",
      "type": "event"
    },
    {
      "anonymous": false,
      "inputs": [],
      "name": "ActivateForceBatches",
      "type": "event"
    },
    {
      "anonymous": false,
      "inputs": [
        {
          "indexed": true,
          "internalType": "uint64",
          "name": "numBatch",
          "type": "uint64"
        },
        {
          "indexed": false,
          "internalType": "bytes32",
          "name": "stateRoot",
          "type": "bytes32"
        },
        {
          "indexed": true,
          "internalType": "uint64",
          "name": "pendingStateNum",
          "type": "uint64"
        }
      ],
      "name": "ConsolidatePendingState",
      "type": "event"
    },
    {
      "anonymous": false,
      "inputs": [],
      "name": "EmergencyStateActivated",
      "type": "event"
    },
    {
      "anonymous": false,
      "inputs": [],
      "name": "EmergencyStateDeactivated",
      "type": "event"
    },
    {
      "anonymous": false,
      "inputs": [
        {
          "indexed": true,
          "internalType": "uint64",
          "name": "forceBatchNum",
          "type": "uint64"
        },
        {
          "indexed": false,
          "internalType": "bytes32",
          "name": "lastGlobalExitRoot",
          "type": "bytes32"
        },
        {
          "indexed": false,
          "internalType": "address",
          "name": "sequencer",
          "type": "address"
        },
        {
          "indexed": false,
          "internalType": "bytes",
          "name": "transactions",
          "type": "bytes"
        }
      ],
      "name": "ForceBatch",
      "type": "event"
    },
    {
      "anonymous": false,
      "inputs": [
        {
          "indexed": false,
          "internalType": "uint8",
          "name": "version",
          "type": "uint8"
        }
      ],
      "name": "Initialized",
      "type": "event"
    },
    {
      "anonymous": false,
      "inputs": [
        {
          "indexed": true,
          "internalType": "uint64",
          "name": "numBatch",
          "type": "uint64"
        },
        {
          "indexed": false,
          "internalType": "bytes32",
          "name": "stateRoot",
          "type": "bytes32"
        },
        {
          "indexed": true,
          "internalType": "address",
          "name": "aggregator",
          "type": "address"
        }
      ],
      "name": "OverridePendingState",
      "type": "event"
    },
    {
      "anonymous": false,
      "inputs": [
        {
          "indexed": true,
          "internalType": "address",
          "name": "previousOwner",
          "type": "address"
        },
        {
          "indexed": true,
          "internalType": "address",
          "name": "newOwner",
          "type": "address"
        }
      ],
      "name": "OwnershipTransferred",
      "type": "event"
    },
    {
      "anonymous": false,
      "inputs": [
        {
          "indexed": false,
          "internalType": "bytes32",
          "name": "storedStateRoot",
          "type": "bytes32"
        },
        {
          "indexed": false,
          "internalType": "bytes32",
          "name": "provedStateRoot",
          "type": "bytes32"
        }
      ],
      "name": "ProveNonDeterministicPendingState",
      "type": "event"
    },
    {
      "anonymous": false,
      "inputs": [
        {
          "indexed": true,
          "internalType": "uint64",
          "name": "numBatch",
          "type": "uint64"
        }
      ],
      "name": "SequenceBatches",
      "type": "event"
    },
    {
      "anonymous": false,
      "inputs": [
        {
          "indexed": true,
          "internalType": "uint64",
          "name": "numBatch",
          "type": "uint64"
        }
      ],
      "name": "SequenceForceBatches",
      "type": "event"
    },
    {
      "anonymous": false,
      "inputs": [
        {
          "indexed": false,
          "internalType": "uint64",
          "name": "newforceBatchTimeout",
          "type": "uint64"
        }
      ],
      "name": "SetForceBatchTimeout",
      "type": "event"
    },
    {
      "anonymous": false,
      "inputs": [
        {
          "indexed": false,
          "internalType": "uint16",
          "name": "newMultiplierBatchFee",
          "type": "uint16"
        }
      ],
      "name": "SetMultiplierBatchFee",
      "type": "event"
    },
    {
      "anonymous": false,
      "inputs": [
        {
          "indexed": false,
          "internalType": "uint64",
          "name": "newPendingStateTimeout",
          "type": "uint64"
        }
      ],
      "name": "SetPendingStateTimeout",
      "type": "event"
    },
    {
      "anonymous": false,
      "inputs": [
        {
          "indexed": false,
          "internalType": "address",
          "name": "newTrustedAggregator",
          "type": "address"
        }
      ],
      "name": "SetTrustedAggregator",
      "type": "event"
    },
    {
      "anonymous": false,
      "inputs": [
        {
          "indexed": false,
          "internalType": "uint64",
          "name": "newTrustedAggregatorTimeout",
          "type": "uint64"
        }
      ],
      "name": "SetTrustedAggregatorTimeout",
      "type": "event"
    },
    {
      "anonymous": false,
      "inputs": [
        {
          "indexed": false,
          "internalType": "address",
          "name": "newTrustedSequencer",
          "type": "address"
        }
      ],
      "name": "SetTrustedSequencer",
      "type": "event"
    },
    {
      "anonymous": false,
      "inputs": [
        {
          "indexed": false,
          "internalType": "string",
          "name": "newTrustedSequencerURL",
          "type": "string"
        }
      ],
      "name": "SetTrustedSequencerURL",
      "type": "event"
    },
    {
      "anonymous": false,
      "inputs": [
        {
          "indexed": false,
          "internalType": "uint64",
          "name": "newVerifyBatchTimeTarget",
          "type": "uint64"
        }
      ],
      "name": "SetVerifyBatchTimeTarget",
      "type": "event"
    },
    {
      "anonymous": false,
      "inputs": [
        {
          "indexed": false,
          "internalType": "address",
          "name": "newPendingAdmin",
          "type": "address"
        }
      ],
      "name": "TransferAdminRole",
      "type": "event"
    },
    {
      "anonymous": false,
      "inputs": [
        {
          "indexed": false,
          "internalType": "uint64",
          "name": "numBatch",
          "type": "uint64"
        },
        {
          "indexed": false,
          "internalType": "uint64",
          "name": "forkID",
          "type": "uint64"
        },
        {
          "indexed": false,
          "internalType": "string",
          "name": "version",
          "type": "string"
        }
      ],
      "name": "UpdateZkEVMVersion",
      "type": "event"
    },
    {
      "anonymous": false,
      "inputs": [
        {
          "indexed": true,
          "internalType": "uint64",
          "name": "numBatch",
          "type": "uint64"
        },
        {
          "indexed": false,
          "internalType": "bytes32",
          "name": "stateRoot",
          "type": "bytes32"
        },
        {
          "indexed": true,
          "internalType": "address",
          "name": "aggregator",
          "type": "address"
        }
      ],
      "name": "VerifyBatches",
      "type": "event"
    },
    {
      "anonymous": false,
      "inputs": [
        {
          "indexed": true,
          "internalType": "uint64",
          "name": "numBatch",
          "type": "uint64"
        },
        {
          "indexed": false,
          "internalType": "bytes32",
          "name": "stateRoot",
          "type": "bytes32"
        },
        {
          "indexed": true,
          "internalType": "address",
          "name": "aggregator",
          "type": "address"
        }
      ],
      "name": "VerifyBatchesTrustedAggregator",
      "type": "event"
    },
    {
      "inputs": [],
      "name": "acceptAdminRole",
      "outputs": [],
      "stateMutability": "nonpayable",
      "type": "function"
    },
    {
      "inputs": [
        {
          "internalType": "uint64",
          "name": "sequencedBatchNum",
          "type": "uint64"
        }
      ],
      "name": "activateEmergencyState",
      "outputs": [],
      "stateMutability": "nonpayable",
      "type": "function"
    },
    {
      "inputs": [],
      "name": "activateForceBatches",
      "outputs": [],
      "stateMutability": "nonpayable",
      "type": "function"
    },
    {
      "inputs": [],
      "name": "admin",
      "outputs": [
        {
          "internalType": "address",
          "name": "",
          "type": "address"
        }
      ],
      "stateMutability": "view",
      "type": "function"
    },
    {
      "inputs": [],
      "name": "batchFee",
      "outputs": [
        {
          "internalType": "uint256",
          "name": "",
          "type": "uint256"
        }
      ],
      "stateMutability": "view",
      "type": "function"
    },
    {
      "inputs": [
        {
          "internalType": "uint64",
          "name": "",
          "type": "uint64"
        }
      ],
      "name": "batchNumToStateRoot",
      "outputs": [
        {
          "internalType": "bytes32",
          "name": "",
          "type": "bytes32"
        }
      ],
      "stateMutability": "view",
      "type": "function"
    },
    {
      "inputs": [],
      "name": "bridgeAddress",
      "outputs": [
        {
          "internalType": "contract IPolygonZkEVMBridge",
          "name": "",
          "type": "address"
        }
      ],
      "stateMutability": "view",
      "type": "function"
    },
    {
      "inputs": [
        {
          "internalType": "bytes32",
          "name": "currentAccInputHash",
          "type": "bytes32"
        },
        {
          "internalType": "bytes",
          "name": "transactions",
          "type": "bytes"
        },
        {
          "internalType": "bytes32",
          "name": "globalExitRoot",
          "type": "bytes32"
        },
        {
          "internalType": "uint64",
          "name": "timestamp",
          "type": "uint64"
        },
        {
          "internalType": "address",
          "name": "sequencerAddress",
          "type": "address"
        }
      ],
      "name": "calculateAccInputHash",
      "outputs": [
        {
          "internalType": "bytes32",
          "name": "",
          "type": "bytes32"
        }
      ],
      "stateMutability": "pure",
      "type": "function"
    },
    {
      "inputs": [],
      "name": "calculateRewardPerBatch",
      "outputs": [
        {
          "internalType": "uint256",
          "name": "",
          "type": "uint256"
        }
      ],
      "stateMutability": "view",
      "type": "function"
    },
    {
      "inputs": [],
      "name": "chainID",
      "outputs": [
        {
          "internalType": "uint64",
          "name": "",
          "type": "uint64"
        }
      ],
      "stateMutability": "view",
      "type": "function"
    },
    {
      "inputs": [
        {
          "internalType": "uint256",
          "name": "newStateRoot",
          "type": "uint256"
        }
      ],
      "name": "checkStateRootInsidePrime",
      "outputs": [
        {
          "internalType": "bool",
          "name": "",
          "type": "bool"
        }
      ],
      "stateMutability": "pure",
      "type": "function"
    },
    {
      "inputs": [
        {
          "internalType": "uint64",
          "name": "pendingStateNum",
          "type": "uint64"
        }
      ],
      "name": "consolidatePendingState",
      "outputs": [],
      "stateMutability": "nonpayable",
      "type": "function"
    },
    {
      "inputs": [],
      "name": "deactivateEmergencyState",
      "outputs": [],
      "stateMutability": "nonpayable",
      "type": "function"
    },
    {
      "inputs": [
        {
          "internalType": "bytes",
          "name": "transactions",
          "type": "bytes"
        },
        {
          "internalType": "uint256",
          "name": "maticAmount",
          "type": "uint256"
        }
      ],
      "name": "forceBatch",
      "outputs": [],
      "stateMutability": "nonpayable",
      "type": "function"
    },
    {
      "inputs": [],
      "name": "forceBatchTimeout",
      "outputs": [
        {
          "internalType": "uint64",
          "name": "",
          "type": "uint64"
        }
      ],
      "stateMutability": "view",
      "type": "function"
    },
    {
      "inputs": [
        {
          "internalType": "uint64",
          "name": "",
          "type": "uint64"
        }
      ],
      "name": "forcedBatches",
      "outputs": [
        {
          "internalType": "bytes32",
          "name": "",
          "type": "bytes32"
        }
      ],
      "stateMutability": "view",
      "type": "function"
    },
    {
      "inputs": [],
      "name": "forkID",
      "outputs": [
        {
          "internalType": "uint64",
          "name": "",
          "type": "uint64"
        }
      ],
      "stateMutability": "view",
      "type": "function"
    },
    {
      "inputs": [],
      "name": "getCurrentBatchFee",
      "outputs": [
        {
          "internalType": "uint256",
          "name": "",
          "type": "uint256"
        }
      ],
      "stateMutability": "view",
      "type": "function"
    },
    {
      "inputs": [
        {
          "internalType": "uint64",
          "name": "initNumBatch",
          "type": "uint64"
        },
        {
          "internalType": "uint64",
          "name": "finalNewBatch",
          "type": "uint64"
        },
        {
          "internalType": "bytes32",
          "name": "newLocalExitRoot",
          "type": "bytes32"
        },
        {
          "internalType": "bytes32",
          "name": "oldStateRoot",
          "type": "bytes32"
        },
        {
          "internalType": "bytes32",
          "name": "newStateRoot",
          "type": "bytes32"
        }
      ],
      "name": "getInputSnarkBytes",
      "outputs": [
        {
          "internalType": "bytes",
          "name": "",
          "type": "bytes"
        }
      ],
      "stateMutability": "view",
      "type": "function"
    },
    {
      "inputs": [],
      "name": "getLastVerifiedBatch",
      "outputs": [
        {
          "internalType": "uint64",
          "name": "",
          "type": "uint64"
        }
      ],
      "stateMutability": "view",
      "type": "function"
    },
    {
      "inputs": [
        {
          "internalType": "uint64",
          "name": "pendingStateNum",
          "type": "uint64"
        },
        {
          "internalType": "uint64",
          "name": "initNumBatch",
          "type": "uint64"
        },
        {
          "internalType": "uint64",
          "name": "finalNewBatch",
          "type": "uint64"
        },
        {
          "internalType": "bytes32",
          "name": "newLocalExitRoot",
          "type": "bytes32"
        },
        {
          "internalType": "bytes32",
          "name": "newStateRoot",
          "type": "bytes32"
        }
      ],
      "name": "getNextSnarkInput",
      "outputs": [
        {
          "internalType": "uint256",
          "name": "",
          "type": "uint256"
        }
      ],
      "stateMutability": "view",
      "type": "function"
    },
    {
      "inputs": [],
      "name": "globalExitRootManager",
      "outputs": [
        {
          "internalType": "contract IPolygonZkEVMGlobalExitRoot",
          "name": "",
          "type": "address"
        }
      ],
      "stateMutability": "view",
      "type": "function"
    },
    {
      "inputs": [
        {
          "components": [
            {
              "internalType": "address",
              "name": "admin",
              "type": "address"
            },
            {
              "internalType": "address",
              "name": "trustedSequencer",
              "type": "address"
            },
            {
              "internalType": "uint64",
              "name": "pendingStateTimeout",
              "type": "uint64"
            },
            {
              "internalType": "address",
              "name": "trustedAggregator",
              "type": "address"
            },
            {
              "internalType": "uint64",
              "name": "trustedAggregatorTimeout",
              "type": "uint64"
            }
          ],
          "internalType": "struct PolygonZkEVM.InitializePackedParameters",
          "name": "initializePackedParameters",
          "type": "tuple"
        },
        {
          "internalType": "bytes32",
          "name": "genesisRoot",
          "type": "bytes32"
        },
        {
          "internalType": "string",
          "name": "_trustedSequencerURL",
          "type": "string"
        },
        {
          "internalType": "string",
          "name": "_networkName",
          "type": "string"
        },
        {
          "internalType": "string",
          "name": "_version",
          "type": "string"
        }
      ],
      "name": "initialize",
      "outputs": [],
      "stateMutability": "nonpayable",
      "type": "function"
    },
    {
      "inputs": [],
      "name": "isEmergencyState",
      "outputs": [
        {
          "internalType": "bool",
          "name": "",
          "type": "bool"
        }
      ],
      "stateMutability": "view",
      "type": "function"
    },
    {
      "inputs": [],
      "name": "isForcedBatchDisallowed",
      "outputs": [
        {
          "internalType": "bool",
          "name": "",
          "type": "bool"
        }
      ],
      "stateMutability": "view",
      "type": "function"
    },
    {
      "inputs": [
        {
          "internalType": "uint64",
          "name": "pendingStateNum",
          "type": "uint64"
        }
      ],
      "name": "isPendingStateConsolidable",
      "outputs": [
        {
          "internalType": "bool",
          "name": "",
          "type": "bool"
        }
      ],
      "stateMutability": "view",
      "type": "function"
    },
    {
      "inputs": [],
      "name": "lastBatchSequenced",
      "outputs": [
        {
          "internalType": "uint64",
          "name": "",
          "type": "uint64"
        }
      ],
      "stateMutability": "view",
      "type": "function"
    },
    {
      "inputs": [],
      "name": "lastForceBatch",
      "outputs": [
        {
          "internalType": "uint64",
          "name": "",
          "type": "uint64"
        }
      ],
      "stateMutability": "view",
      "type": "function"
    },
    {
      "inputs": [],
      "name": "lastForceBatchSequenced",
      "outputs": [
        {
          "internalType": "uint64",
          "name": "",
          "type": "uint64"
        }
      ],
      "stateMutability": "view",
      "type": "function"
    },
    {
      "inputs": [],
      "name": "lastPendingState",
      "outputs": [
        {
          "internalType": "uint64",
          "name": "",
          "type": "uint64"
        }
      ],
      "stateMutability": "view",
      "type": "function"
    },
    {
      "inputs": [],
      "name": "lastPendingStateConsolidated",
      "outputs": [
        {
          "internalType": "uint64",
          "name": "",
          "type": "uint64"
        }
      ],
      "stateMutability": "view",
      "type": "function"
    },
    {
      "inputs": [],
      "name": "lastTimestamp",
      "outputs": [
        {
          "internalType": "uint64",
          "name": "",
          "type": "uint64"
        }
      ],
      "stateMutability": "view",
      "type": "function"
    },
    {
      "inputs": [],
      "name": "lastVerifiedBatch",
      "outputs": [
        {
          "internalType": "uint64",
          "name": "",
          "type": "uint64"
        }
      ],
      "stateMutability": "view",
      "type": "function"
    },
    {
      "inputs": [],
      "name": "matic",
      "outputs": [
        {
          "internalType": "contract IERC20Upgradeable",
          "name": "",
          "type": "address"
        }
      ],
      "stateMutability": "view",
      "type": "function"
    },
    {
      "inputs": [],
      "name": "multiplierBatchFee",
      "outputs": [
        {
          "internalType": "uint16",
          "name": "",
          "type": "uint16"
        }
      ],
      "stateMutability": "view",
      "type": "function"
    },
    {
      "inputs": [],
      "name": "networkName",
      "outputs": [
        {
          "internalType": "string",
          "name": "",
          "type": "string"
        }
      ],
      "stateMutability": "view",
      "type": "function"
    },
    {
      "inputs": [
        {
          "internalType": "uint64",
          "name": "initPendingStateNum",
          "type": "uint64"
        },
        {
          "internalType": "uint64",
          "name": "finalPendingStateNum",
          "type": "uint64"
        },
        {
          "internalType": "uint64",
          "name": "initNumBatch",
          "type": "uint64"
        },
        {
          "internalType": "uint64",
          "name": "finalNewBatch",
          "type": "uint64"
        },
        {
          "internalType": "bytes32",
          "name": "newLocalExitRoot",
          "type": "bytes32"
        },
        {
          "internalType": "bytes32",
          "name": "newStateRoot",
          "type": "bytes32"
        },
        {
          "internalType": "bytes",
          "name": "proof",
          "type": "bytes"
        }
      ],
      "name": "overridePendingState",
      "outputs": [],
      "stateMutability": "nonpayable",
      "type": "function"
    },
    {
      "inputs": [],
      "name": "owner",
      "outputs": [
        {
          "internalType": "address",
          "name": "",
          "type": "address"
        }
      ],
      "stateMutability": "view",
      "type": "function"
    },
    {
      "inputs": [],
      "name": "pendingAdmin",
      "outputs": [
        {
          "internalType": "address",
          "name": "",
          "type": "address"
        }
      ],
      "stateMutability": "view",
      "type": "function"
    },
    {
      "inputs": [],
      "name": "pendingStateTimeout",
      "outputs": [
        {
          "internalType": "uint64",
          "name": "",
          "type": "uint64"
        }
      ],
      "stateMutability": "view",
      "type": "function"
    },
    {
      "inputs": [
        {
          "internalType": "uint256",
          "name": "",
          "type": "uint256"
        }
      ],
      "name": "pendingStateTransitions",
      "outputs": [
        {
          "internalType": "uint64",
          "name": "timestamp",
          "type": "uint64"
        },
        {
          "internalType": "uint64",
          "name": "lastVerifiedBatch",
          "type": "uint64"
        },
        {
          "internalType": "bytes32",
          "name": "exitRoot",
          "type": "bytes32"
        },
        {
          "internalType": "bytes32",
          "name": "stateRoot",
          "type": "bytes32"
        }
      ],
      "stateMutability": "view",
      "type": "function"
    },
    {
      "inputs": [
        {
          "internalType": "uint64",
          "name": "initPendingStateNum",
          "type": "uint64"
        },
        {
          "internalType": "uint64",
          "name": "finalPendingStateNum",
          "type": "uint64"
        },
        {
          "internalType": "uint64",
          "name": "initNumBatch",
          "type": "uint64"
        },
        {
          "internalType": "uint64",
          "name": "finalNewBatch",
          "type": "uint64"
        },
        {
          "internalType": "bytes32",
          "name": "newLocalExitRoot",
          "type": "bytes32"
        },
        {
          "internalType": "bytes32",
          "name": "newStateRoot",
          "type": "bytes32"
        },
        {
          "internalType": "bytes",
          "name": "proof",
          "type": "bytes"
        }
      ],
      "name": "proveNonDeterministicPendingState",
      "outputs": [],
      "stateMutability": "nonpayable",
      "type": "function"
    },
    {
      "inputs": [],
      "name": "renounceOwnership",
      "outputs": [],
      "stateMutability": "nonpayable",
      "type": "function"
    },
    {
      "inputs": [],
      "name": "rollupVerifier",
      "outputs": [
        {
          "internalType": "contract IVerifierRollup",
          "name": "",
          "type": "address"
        }
      ],
      "stateMutability": "view",
      "type": "function"
    },
    {
      "inputs": [
        {
          "components": [
            {
              "internalType": "bytes",
              "name": "transactions",
              "type": "bytes"
            },
            {
              "internalType": "bytes32",
              "name": "globalExitRoot",
              "type": "bytes32"
            },
            {
              "internalType": "uint64",
              "name": "timestamp",
              "type": "uint64"
            },
            {
              "internalType": "uint64",
              "name": "minForcedTimestamp",
              "type": "uint64"
            }
          ],
          "internalType": "struct PolygonZkEVM.BatchData[]",
          "name": "batches",
          "type": "tuple[]"
        },
        {
          "internalType": "address",
          "name": "l2Coinbase",
          "type": "address"
        }
      ],
      "name": "sequenceBatches",
      "outputs": [],
      "stateMutability": "nonpayable",
      "type": "function"
    },
    {
      "inputs": [
        {
          "components": [
            {
              "internalType": "bytes",
              "name": "transactions",
              "type": "bytes"
            },
            {
              "internalType": "bytes32",
              "name": "globalExitRoot",
              "type": "bytes32"
            },
            {
              "internalType": "uint64",
              "name": "minForcedTimestamp",
              "type": "uint64"
            }
          ],
          "internalType": "struct PolygonZkEVM.ForcedBatchData[]",
          "name": "batches",
          "type": "tuple[]"
        }
      ],
      "name": "sequenceForceBatches",
      "outputs": [],
      "stateMutability": "nonpayable",
      "type": "function"
    },
    {
      "inputs": [
        {
          "internalType": "uint64",
          "name": "",
          "type": "uint64"
        }
      ],
      "name": "sequencedBatches",
      "outputs": [
        {
          "internalType": "bytes32",
          "name": "accInputHash",
          "type": "bytes32"
        },
        {
          "internalType": "uint64",
          "name": "sequencedTimestamp",
          "type": "uint64"
        },
        {
          "internalType": "uint64",
          "name": "previousLastBatchSequenced",
          "type": "uint64"
        }
      ],
      "stateMutability": "view",
      "type": "function"
    },
    {
      "inputs": [
        {
          "internalType": "uint64",
          "name": "newforceBatchTimeout",
          "type": "uint64"
        }
      ],
      "name": "setForceBatchTimeout",
      "outputs": [],
      "stateMutability": "nonpayable",
      "type": "function"
    },
    {
      "inputs": [
        {
          "internalType": "uint16",
          "name": "newMultiplierBatchFee",
          "type": "uint16"
        }
      ],
      "name": "setMultiplierBatchFee",
      "outputs": [],
      "stateMutability": "nonpayable",
      "type": "function"
    },
    {
      "inputs": [
        {
          "internalType": "string",
          "name": "_networkName",
          "type": "string"
        }
      ],
      "name": "setNetworkName",
      "outputs": [],
      "stateMutability": "nonpayable",
      "type": "function"
    },
    {
      "inputs": [
        {
          "internalType": "uint64",
          "name": "newPendingStateTimeout",
          "type": "uint64"
        }
      ],
      "name": "setPendingStateTimeout",
      "outputs": [],
      "stateMutability": "nonpayable",
      "type": "function"
    },
    {
      "inputs": [
        {
          "internalType": "uint64",
          "name": "_numBatch",
          "type": "uint64"
        }
      ],
      "name": "setSequencedBatch",
      "outputs": [],
      "stateMutability": "nonpayable",
      "type": "function"
    },
    {
      "inputs": [
        {
          "internalType": "uint64",
          "name": "batchNum",
          "type": "uint64"
        },
        {
          "internalType": "bytes32",
          "name": "accInputData",
          "type": "bytes32"
        },
        {
          "internalType": "uint64",
          "name": "timestamp",
          "type": "uint64"
        },
        {
          "internalType": "uint64",
          "name": "lastPendingStateConsolidated",
          "type": "uint64"
        }
      ],
      "name": "setSequencedBatches",
      "outputs": [],
      "stateMutability": "nonpayable",
      "type": "function"
    },
    {
      "inputs": [
        {
          "internalType": "bytes32",
          "name": "newStateRoot",
          "type": "bytes32"
        },
        {
          "internalType": "uint64",
          "name": "batchNum",
          "type": "uint64"
        }
      ],
      "name": "setStateRoot",
      "outputs": [],
      "stateMutability": "nonpayable",
      "type": "function"
    },
    {
      "inputs": [
        {
          "internalType": "address",
          "name": "newTrustedAggregator",
          "type": "address"
        }
      ],
      "name": "setTrustedAggregator",
      "outputs": [],
      "stateMutability": "nonpayable",
      "type": "function"
    },
    {
      "inputs": [
        {
          "internalType": "uint64",
          "name": "newTrustedAggregatorTimeout",
          "type": "uint64"
        }
      ],
      "name": "setTrustedAggregatorTimeout",
      "outputs": [],
      "stateMutability": "nonpayable",
      "type": "function"
    },
    {
      "inputs": [
        {
          "internalType": "address",
          "name": "newTrustedSequencer",
          "type": "address"
        }
      ],
      "name": "setTrustedSequencer",
      "outputs": [],
      "stateMutability": "nonpayable",
      "type": "function"
    },
    {
      "inputs": [
        {
          "internalType": "string",
          "name": "newTrustedSequencerURL",
          "type": "string"
        }
      ],
      "name": "setTrustedSequencerURL",
      "outputs": [],
      "stateMutability": "nonpayable",
      "type": "function"
    },
    {
      "inputs": [
        {
          "internalType": "uint64",
          "name": "_numBatch",
          "type": "uint64"
        }
      ],
      "name": "setVerifiedBatch",
      "outputs": [],
      "stateMutability": "nonpayable",
      "type": "function"
    },
    {
      "inputs": [
        {
          "internalType": "uint64",
          "name": "newVerifyBatchTimeTarget",
          "type": "uint64"
        }
      ],
      "name": "setVerifyBatchTimeTarget",
      "outputs": [],
      "stateMutability": "nonpayable",
      "type": "function"
    },
    {
      "inputs": [
        {
          "internalType": "address",
          "name": "newPendingAdmin",
          "type": "address"
        }
      ],
      "name": "transferAdminRole",
      "outputs": [],
      "stateMutability": "nonpayable",
      "type": "function"
    },
    {
      "inputs": [
        {
          "internalType": "address",
          "name": "newOwner",
          "type": "address"
        }
      ],
      "name": "transferOwnership",
      "outputs": [],
      "stateMutability": "nonpayable",
      "type": "function"
    },
    {
      "inputs": [],
      "name": "trustedAggregator",
      "outputs": [
        {
          "internalType": "address",
          "name": "",
          "type": "address"
        }
      ],
      "stateMutability": "view",
      "type": "function"
    },
    {
      "inputs": [],
      "name": "trustedAggregatorTimeout",
      "outputs": [
        {
          "internalType": "uint64",
          "name": "",
          "type": "uint64"
        }
      ],
      "stateMutability": "view",
      "type": "function"
    },
    {
      "inputs": [],
      "name": "trustedSequencer",
      "outputs": [
        {
          "internalType": "address",
          "name": "",
          "type": "address"
        }
      ],
      "stateMutability": "view",
      "type": "function"
    },
    {
      "inputs": [],
      "name": "trustedSequencerURL",
      "outputs": [
        {
          "internalType": "string",
          "name": "",
          "type": "string"
        }
      ],
      "stateMutability": "view",
      "type": "function"
    },
    {
      "inputs": [
        {
          "internalType": "uint64",
          "name": "pendingStateNum",
          "type": "uint64"
        },
        {
          "internalType": "uint64",
          "name": "initNumBatch",
          "type": "uint64"
        },
        {
          "internalType": "uint64",
          "name": "finalNewBatch",
          "type": "uint64"
        },
        {
          "internalType": "bytes32",
          "name": "newLocalExitRoot",
          "type": "bytes32"
        },
        {
          "internalType": "bytes32",
          "name": "newStateRoot",
          "type": "bytes32"
        },
        {
          "internalType": "uint256[2]",
          "name": "proofA",
          "type": "uint256[2]"
        },
        {
          "internalType": "uint256[2][2]",
          "name": "proofB",
          "type": "uint256[2][2]"
        },
        {
          "internalType": "uint256[2]",
          "name": "proofC",
          "type": "uint256[2]"
        }
      ],
      "name": "trustedVerifyBatchesMock",
      "outputs": [],
      "stateMutability": "nonpayable",
      "type": "function"
    },
    {
      "inputs": [
        {
          "internalType": "uint64",
          "name": "newLastVerifiedBatch",
          "type": "uint64"
        }
      ],
      "name": "updateBatchFee",
      "outputs": [],
      "stateMutability": "nonpayable",
      "type": "function"
    },
    {
      "inputs": [],
      "name": "verifyBatchTimeTarget",
      "outputs": [
        {
          "internalType": "uint64",
          "name": "",
          "type": "uint64"
        }
      ],
      "stateMutability": "view",
      "type": "function"
    },
    {
      "inputs": [
        {
          "internalType": "uint64",
          "name": "pendingStateNum",
          "type": "uint64"
        },
        {
          "internalType": "uint64",
          "name": "initNumBatch",
          "type": "uint64"
        },
        {
          "internalType": "uint64",
          "name": "finalNewBatch",
          "type": "uint64"
        },
        {
          "internalType": "bytes32",
          "name": "newLocalExitRoot",
          "type": "bytes32"
        },
        {
          "internalType": "bytes32",
          "name": "newStateRoot",
          "type": "bytes32"
        },
        {
          "internalType": "bytes",
          "name": "proof",
          "type": "bytes"
        }
      ],
      "name": "verifyBatches",
      "outputs": [],
      "stateMutability": "nonpayable",
      "type": "function"
    },
    {
      "inputs": [
        {
          "internalType": "uint64",
          "name": "pendingStateNum",
          "type": "uint64"
        },
        {
          "internalType": "uint64",
          "name": "initNumBatch",
          "type": "uint64"
        },
        {
          "internalType": "uint64",
          "name": "finalNewBatch",
          "type": "uint64"
        },
        {
          "internalType": "bytes32",
          "name": "newLocalExitRoot",
          "type": "bytes32"
        },
        {
          "internalType": "bytes32",
          "name": "newStateRoot",
          "type": "bytes32"
        },
        {
          "internalType": "bytes",
          "name": "proof",
          "type": "bytes"
        }
      ],
      "name": "verifyBatchesTrustedAggregator",
      "outputs": [],
      "stateMutability": "nonpayable",
      "type": "function"
    }
  ],
  "bytecode": "0x6101406040523480156200001257600080fd5b506040516200709c3803806200709c8339810160408190526200003591620000a5565b6001600160a01b0395861660c05293851660805291841660a05290921660e0526001600160401b0391821661010052166101205262000131565b6001600160a01b03811681146200008557600080fd5b50565b80516001600160401b0381168114620000a057600080fd5b919050565b60008060008060008060c08789031215620000bf57600080fd5b8651620000cc816200006f565b6020880151909650620000df816200006f565b6040880151909550620000f2816200006f565b606088015190945062000105816200006f565b9250620001156080880162000088565b91506200012560a0880162000088565b90509295509295509295565b60805160a05160c05160e0516101005161012051616e96620002066000396000818161081501528181611b3b0152613caf0152600081816109b00152611b1101526000818161096301528181612a9e01528181614349015261505a015260008181610b42015281816117eb015281816121af015281816126a00152818161350501528181614576015281816147d301526152ab015260008181610c1501528181614f470152615617015260008181610a7f01528181612a6c0152818161300d015281816147a701526157060152616e966000f3fe608060405234801561001057600080fd5b506004361061048d5760003560e01c806396dc3d391161026b578063c89e42df11610150578063e7a7ed02116100c8578063f14916d611610097578063f851a4401161007c578063f851a44014610c9d578063f8b823e414610cbd578063fe16564f14610cc657600080fd5b8063f14916d614610c77578063f2fde38b14610c8a57600080fd5b8063e7a7ed0214610be0578063e8bf92ed14610c10578063eaeb077b14610c37578063ed6b010414610c4a57600080fd5b8063d8d1091b1161011f578063dbc1697611610104578063dbc1697614610bb2578063e0d1744114610bba578063e6ad707e14610bcd57600080fd5b8063d8d1091b14610b77578063d939b31514610b8a57600080fd5b8063c89e42df14610afb578063cfa8ed4714610b0e578063d02103ca14610b3d578063d2e129f914610b6457600080fd5b8063adc879e9116101e3578063b6b0b097116101b2578063c0cad30211610197578063c0cad30214610ab4578063c0ed84e014610ac7578063c754c7ed14610acf57600080fd5b8063b6b0b09714610a7a578063ba58ae3914610aa157600080fd5b8063adc879e9146109ab578063afd23cbe146109d2578063b4d63f5814610a00578063b4f77ea914610a6757600080fd5b80639f0d039d1161023a578063a3c573eb1161021f578063a3c573eb1461095e578063a50a164b14610985578063ada8f9191461099857600080fd5b80639f0d039d14610943578063a066215c1461094b57600080fd5b806396dc3d391461090257806399f5634e146109155780639b7967601461091d5780639c9f3dfe1461093057600080fd5b80634a910e6a116103915780636ff512cc11610309578063831c7ead116102d8578063841b24d7116102bd578063841b24d7146108ac5780638c3d7301146108dc5780638da5cb5b146108e457600080fd5b8063831c7ead14610810578063837a47381461083757600080fd5b80636ff512cc146107ce578063715018a6146107e15780637215541a146107e95780637fcb3653146107fc57600080fd5b8063542028d5116103605780635e9145c9116103455780635e9145c9146107935780635ec91958146107a65780636b8616ce146107ae57600080fd5b8063542028d5146106ea578063574f649e146106f257600080fd5b80634a910e6a146106915780634e487706146106a45780634fd70464146106b75780635392c5e0146106ca57600080fd5b8063220d789911610424578063394218e9116103f357806345605267116103d85780634560526714610635578063458c04771461065d5780634a1a89a71461067157600080fd5b8063394218e914610602578063423fa8561461061557600080fd5b8063220d78991461056b578063267822471461057e57806329878983146105c3578063383b3be8146105ef57600080fd5b806310a01a721161046057806310a01a721461051457806315064c96146105275780631816b7e51461054457806319d8ac611461055757600080fd5b80630808270c146104925780630a0d9fbe146104a75780630eaa86ea146104de578063107bf28c146104ff575b600080fd5b6104a56104a03660046160ac565b610cd9565b005b606f546104c090610100900467ffffffffffffffff1681565b60405167ffffffffffffffff90911681526020015b60405180910390f35b6104f16104ec366004616145565b610d8c565b6040519081526020016104d5565b610507611264565b6040516104d59190616208565b6104a5610522366004616239565b6112f2565b606f546105349060ff1681565b60405190151581526020016104d5565b6104a56105523660046162cc565b6118aa565b6073546104c09067ffffffffffffffff1681565b6105076105793660046162f0565b6119c2565b607b5461059e9073ffffffffffffffffffffffffffffffffffffffff1681565b60405173ffffffffffffffffffffffffffffffffffffffff90911681526020016104d5565b60745461059e9068010000000000000000900473ffffffffffffffffffffffffffffffffffffffff1681565b6105346105fd36600461633d565b611b99565b6104a561061036600461633d565b611bef565b6073546104c09068010000000000000000900467ffffffffffffffff1681565b6073546104c090700100000000000000000000000000000000900467ffffffffffffffff1681565b6079546104c09067ffffffffffffffff1681565b6079546104c09068010000000000000000900467ffffffffffffffff1681565b6104a561069f36600461633d565b611d73565b6104a56106b236600461633d565b611e26565b6104a56106c5366004616358565b611faa565b6104f16106d836600461633d565b60756020526000908152604090205481565b610507612340565b6104f16107003660046164df565b835160209485012060408051808701979097528681019190915260608087019490945260c09290921b7fffffffffffffffff00000000000000000000000000000000000000000000000016608086015290911b7fffffffffffffffffffffffffffffffffffffffff0000000000000000000000001660888401528051808403607c018152609c9093019052815191012090565b6104a56107a1366004616596565b61234d565b6104a5612b5d565b6104f16107bc36600461633d565b60716020526000908152604090205481565b6104a56107dc3660046165ea565b612c5d565b6104a5612d32565b6104a56107f736600461633d565b612d46565b6074546104c09067ffffffffffffffff1681565b6104c07f000000000000000000000000000000000000000000000000000000000000000081565b610880610845366004616605565b60786020526000908152604090208054600182015460029092015467ffffffffffffffff808316936801000000000000000090930416919084565b6040805167ffffffffffffffff95861681529490931660208501529183015260608201526080016104d5565b6079546104c0907801000000000000000000000000000000000000000000000000900467ffffffffffffffff1681565b6104a5612eb6565b60335473ffffffffffffffffffffffffffffffffffffffff1661059e565b6104a561091036600461633d565b612f82565b6104f1612fc5565b6104a561092b36600461633d565b61311e565b6104a561093e36600461633d565b61316d565b6070546104f1565b6104a561095936600461633d565b6132e9565b61059e7f000000000000000000000000000000000000000000000000000000000000000081565b6104a5610993366004616358565b6133ef565b6104a56109a63660046165ea565b6135b4565b6104c07f000000000000000000000000000000000000000000000000000000000000000081565b606f546109ed906901000000000000000000900461ffff1681565b60405161ffff90911681526020016104d5565b610a41610a0e36600461633d565b6072602052600090815260409020805460019091015467ffffffffffffffff808216916801000000000000000090041683565b6040805193845267ffffffffffffffff92831660208501529116908201526060016104d5565b6104a5610a7536600461633d565b613678565b61059e7f000000000000000000000000000000000000000000000000000000000000000081565b610534610aaf366004616605565b613689565b6104a5610ac236600461661e565b613713565b6104c061372b565b607b546104c09074010000000000000000000000000000000000000000900467ffffffffffffffff1681565b6104a5610b0936600461661e565b613780565b606f5461059e906b010000000000000000000000900473ffffffffffffffffffffffffffffffffffffffff1681565b61059e7f000000000000000000000000000000000000000000000000000000000000000081565b6104a5610b72366004616653565b61380d565b6104a5610b85366004616706565b613d54565b6079546104c090700100000000000000000000000000000000900467ffffffffffffffff1681565b6104a56142f6565b6104a5610bc8366004616748565b6143cf565b6104a5610bdb3660046160ac565b61445f565b6073546104c0907801000000000000000000000000000000000000000000000000900467ffffffffffffffff1681565b61059e7f000000000000000000000000000000000000000000000000000000000000000081565b6104a5610c45366004616795565b61466f565b607b54610534907c0100000000000000000000000000000000000000000000000000000000900460ff1681565b6104a5610c853660046165ea565b614a67565b6104a5610c983660046165ea565b614b39565b607a5461059e9073ffffffffffffffffffffffffffffffffffffffff1681565b6104f160705481565b6104a5610cd43660046167e1565b614bed565b606f5460ff1615610d16576040517f2f0047fc00000000000000000000000000000000000000000000000000000000815260040160405180910390fd5b610d268888888888888888614c10565b67ffffffffffffffff85166000908152607560209081526040918290205482519081529081018590527f1f44c21118c4603cfb4e1b621dbcfa2b73efcececee2b99b620b2953d33a7010910160405180910390a1610d82615058565b5050505050505050565b6000806000610d9961372b565b905067ffffffffffffffff881615610f665760795467ffffffffffffffff9081169089161115610e76576040517f08c379a000000000000000000000000000000000000000000000000000000000815260206004820152605860248201527f506f6c79676f6e5a6b45564d3a3a766572696679426174636865733a2070656e60448201527f64696e6753746174654e756d206d757374206265206c657373206f722065717560648201527f616c207468616e206c61737450656e64696e6753746174650000000000000000608482015260a4015b60405180910390fd5b67ffffffffffffffff8089166000908152607860205260409020600281015481549094509091898116680100000000000000009092041614610f60576040517f08c379a000000000000000000000000000000000000000000000000000000000815260206004820152604c60248201527f506f6c79676f6e5a6b45564d3a3a766572696679426174636865733a20696e6960448201527f744e756d4261746368206d757374206d61746368207468652070656e64696e6760648201527f2073746174652062617463680000000000000000000000000000000000000000608482015260a401610e6d565b506110ff565b67ffffffffffffffff8716600090815260756020526040902054915081611035576040517f08c379a000000000000000000000000000000000000000000000000000000000815260206004820152604360248201527f506f6c79676f6e5a6b45564d3a3a766572696679426174636865733a20696e6960448201527f744e756d426174636820737461746520726f6f7420646f6573206e6f7420657860648201527f6973740000000000000000000000000000000000000000000000000000000000608482015260a401610e6d565b8067ffffffffffffffff168767ffffffffffffffff1611156110ff576040517f08c379a000000000000000000000000000000000000000000000000000000000815260206004820152605d60248201527f506f6c79676f6e5a6b45564d3a3a766572696679426174636865733a20696e6960448201527f744e756d4261746368206d757374206265206c657373206f7220657175616c2060648201527f7468616e2063757272656e744c61737456657269666965644261746368000000608482015260a401610e6d565b8067ffffffffffffffff168667ffffffffffffffff16116111c8576040517f08c379a000000000000000000000000000000000000000000000000000000000815260206004820152605760248201527f506f6c79676f6e5a6b45564d3a3a766572696679426174636865733a2066696e60448201527f616c4e65774261746368206d75737420626520626967676572207468616e206360648201527f757272656e744c61737456657269666965644261746368000000000000000000608482015260a401610e6d565b60006111d788888886896119c2565b905060007f30644e72e131a029b85045b68181585d2833e84879b9709143e1f593f000000160028360405161120c919061680d565b602060405180830381855afa158015611229573d6000803e3d6000fd5b5050506040513d601f19601f8201168201806040525081019061124c9190616829565b6112569190616871565b9a9950505050505050505050565b6077805461127190616885565b80601f016020809104026020016040519081016040528092919081815260200182805461129d90616885565b80156112ea5780601f106112bf576101008083540402835291602001916112ea565b820191906000526020600020905b8154815290600101906020018083116112cd57829003601f168201915b505050505081565b6112fa6150e0565b60008061130561372b565b905067ffffffffffffffff8a16156114cd5760795467ffffffffffffffff908116908b1611156113dd576040517f08c379a000000000000000000000000000000000000000000000000000000000815260206004820152605860248201527f506f6c79676f6e5a6b45564d3a3a766572696679426174636865733a2070656e60448201527f64696e6753746174654e756d206d757374206265206c657373206f722065717560648201527f616c207468616e206c61737450656e64696e6753746174650000000000000000608482015260a401610e6d565b67ffffffffffffffff808b1660009081526078602052604090206002810154815490945090918b81166801000000000000000090920416146114c7576040517f08c379a000000000000000000000000000000000000000000000000000000000815260206004820152604c60248201527f506f6c79676f6e5a6b45564d3a3a766572696679426174636865733a20696e6960448201527f744e756d4261746368206d757374206d61746368207468652070656e64696e6760648201527f2073746174652062617463680000000000000000000000000000000000000000608482015260a401610e6d565b50611666565b67ffffffffffffffff891660009081526075602052604090205491508161159c576040517f08c379a000000000000000000000000000000000000000000000000000000000815260206004820152604360248201527f506f6c79676f6e5a6b45564d3a3a766572696679426174636865733a20696e6960448201527f744e756d426174636820737461746520726f6f7420646f6573206e6f7420657860648201527f6973740000000000000000000000000000000000000000000000000000000000608482015260a401610e6d565b8067ffffffffffffffff168967ffffffffffffffff161115611666576040517f08c379a000000000000000000000000000000000000000000000000000000000815260206004820152605d60248201527f506f6c79676f6e5a6b45564d3a3a766572696679426174636865733a20696e6960448201527f744e756d4261746368206d757374206265206c657373206f7220657175616c2060648201527f7468616e2063757272656e744c61737456657269666965644261746368000000608482015260a401610e6d565b8067ffffffffffffffff168867ffffffffffffffff161161172f576040517f08c379a000000000000000000000000000000000000000000000000000000000815260206004820152605760248201527f506f6c79676f6e5a6b45564d3a3a766572696679426174636865733a2066696e60448201527f616c4e65774261746368206d75737420626520626967676572207468616e206360648201527f757272656e744c61737456657269666965644261746368000000000000000000608482015260a401610e6d565b600061173e8a8a8a868b6119c2565b607480547fffffffffffffffffffffffffffffffffffffffffffffffff00000000000000001667ffffffffffffffff8c8116918217909255600090815260756020526040902089905560795491925016156117bc57607980547fffffffffffffffffffffffffffffffff000000000000000000000000000000001690555b6040517f33d6247d000000000000000000000000000000000000000000000000000000008152600481018990527f000000000000000000000000000000000000000000000000000000000000000073ffffffffffffffffffffffffffffffffffffffff16906333d6247d90602401600060405180830381600087803b15801561184457600080fd5b505af1158015611858573d6000803e3d6000fd5b505060405189815233925067ffffffffffffffff8c1691507fcb339b570a7f0b25afa7333371ff11192092a0aeace12b671f4c212f2815c6fe9060200160405180910390a35050505050505050505050565b607a5473ffffffffffffffffffffffffffffffffffffffff1633146118fb576040517f4755657900000000000000000000000000000000000000000000000000000000815260040160405180910390fd5b6103e88161ffff16108061191457506103ff8161ffff16115b1561194b576040517f4c2533c800000000000000000000000000000000000000000000000000000000815260040160405180910390fd5b606f80547fffffffffffffffffffffffffffffffffffffffffff0000ffffffffffffffffff16690100000000000000000061ffff8416908102919091179091556040519081527f7019933d795eba185c180209e8ae8bffbaa25bcef293364687702c31f4d302c5906020015b60405180910390a150565b67ffffffffffffffff80861660008181526072602052604080822054938816825290205460609291158015906119f6575081155b15611a2d576040517f6818c29e00000000000000000000000000000000000000000000000000000000815260040160405180910390fd5b80611a64576040517f66385b5100000000000000000000000000000000000000000000000000000000815260040160405180910390fd5b611a6d84613689565b611aa3576040517f176b913c00000000000000000000000000000000000000000000000000000000815260040160405180910390fd5b604080517fffffffffffffffffffffffffffffffffffffffff0000000000000000000000003360601b166020820152603481019690965260548601929092527fffffffffffffffff00000000000000000000000000000000000000000000000060c098891b811660748701527f0000000000000000000000000000000000000000000000000000000000000000891b8116607c8701527f0000000000000000000000000000000000000000000000000000000000000000891b81166084870152608c86019490945260ac85015260cc840194909452509290931b90911660ec830152805180830360d401815260f4909201905290565b60795467ffffffffffffffff82811660009081526078602052604081205490924292611bdd9270010000000000000000000000000000000090920481169116616907565b67ffffffffffffffff16111592915050565b607a5473ffffffffffffffffffffffffffffffffffffffff163314611c40576040517f4755657900000000000000000000000000000000000000000000000000000000815260040160405180910390fd5b62093a8067ffffffffffffffff82161115611c87576040517f1d06e87900000000000000000000000000000000000000000000000000000000815260040160405180910390fd5b606f5460ff16611cf65760795467ffffffffffffffff7801000000000000000000000000000000000000000000000000909104811690821610611cf6576040517f401636df00000000000000000000000000000000000000000000000000000000815260040160405180910390fd5b6079805477ffffffffffffffffffffffffffffffffffffffffffffffff16780100000000000000000000000000000000000000000000000067ffffffffffffffff8416908102919091179091556040519081527f1f4fa24c2e4bad19a7f3ec5c5485f70d46c798461c2e684f55bbd0fc661373a1906020016119b7565b60745468010000000000000000900473ffffffffffffffffffffffffffffffffffffffff163314611e1a57606f5460ff1615611ddb576040517f2f0047fc00000000000000000000000000000000000000000000000000000000815260040160405180910390fd5b611de481611b99565b611e1a576040517f0ce9e4a200000000000000000000000000000000000000000000000000000000815260040160405180910390fd5b611e2381615161565b50565b607a5473ffffffffffffffffffffffffffffffffffffffff163314611e77576040517f4755657900000000000000000000000000000000000000000000000000000000815260040160405180910390fd5b62093a8067ffffffffffffffff82161115611ebe576040517ff5e37f2f00000000000000000000000000000000000000000000000000000000815260040160405180910390fd5b606f5460ff16611f2957607b5467ffffffffffffffff74010000000000000000000000000000000000000000909104811690821610611f29576040517ff5e37f2f00000000000000000000000000000000000000000000000000000000815260040160405180910390fd5b607b80547fffffffff0000000000000000ffffffffffffffffffffffffffffffffffffffff167401000000000000000000000000000000000000000067ffffffffffffffff8416908102919091179091556040519081527fa7eb6cb8a613eb4e8bddc1ac3d61ec6cf10898760f0b187bcca794c6ca6fa40b906020016119b7565b606f5460ff1615611fe7576040517f2f0047fc00000000000000000000000000000000000000000000000000000000815260040160405180910390fd5b60795467ffffffffffffffff868116600090815260726020526040902060010154429261203492780100000000000000000000000000000000000000000000000090910481169116616907565b67ffffffffffffffff161115612076576040517f8a0704d300000000000000000000000000000000000000000000000000000000815260040160405180910390fd5b6103e8612083878761692f565b67ffffffffffffffff1611156120c5576040517fb59f753a00000000000000000000000000000000000000000000000000000000815260040160405180910390fd5b6120d487878787878787615374565b6120dd8561572d565b607954700100000000000000000000000000000000900467ffffffffffffffff1660000361222557607480547fffffffffffffffffffffffffffffffffffffffffffffffff00000000000000001667ffffffffffffffff8781169182179092556000908152607560205260409020849055607954161561218057607980547fffffffffffffffffffffffffffffffff000000000000000000000000000000001690555b6040517f33d6247d000000000000000000000000000000000000000000000000000000008152600481018590527f000000000000000000000000000000000000000000000000000000000000000073ffffffffffffffffffffffffffffffffffffffff16906333d6247d90602401600060405180830381600087803b15801561220857600080fd5b505af115801561221c573d6000803e3d6000fd5b505050506122f5565b61222d61590d565b6079805467ffffffffffffffff1690600061224783616950565b825467ffffffffffffffff9182166101009390930a92830292820219169190911790915560408051608081018252428316815288831660208083019182528284018a8152606084018a815260795487166000908152607890935294909120925183549251861668010000000000000000027fffffffffffffffffffffffffffffffff000000000000000000000000000000009093169516949094171781559151600183015551600290910155505b604051838152339067ffffffffffffffff8716907f9c72852172521097ba7e1482e6b44b351323df0155f97f4ea18fcec28e1f5966906020015b60405180910390a350505050505050565b6076805461127190616885565b606f5460ff161561238a576040517f2f0047fc00000000000000000000000000000000000000000000000000000000815260040160405180910390fd5b606f546b010000000000000000000000900473ffffffffffffffffffffffffffffffffffffffff1633146123ea576040517f11e7be1500000000000000000000000000000000000000000000000000000000815260040160405180910390fd5b816000819003612426576040517fcb591a5f00000000000000000000000000000000000000000000000000000000815260040160405180910390fd5b6103e8811115612462576040517fb59f753a00000000000000000000000000000000000000000000000000000000815260040160405180910390fd5b60735467ffffffffffffffff6801000000000000000082048116600081815260726020526040812054838516949293700100000000000000000000000000000000909304909216919082905b868110156128b25760008a8a838181106124ca576124ca616977565b90506020028101906124dc91906169a6565b6124e5906169da565b8051805160209091012060608201519192509067ffffffffffffffff161561265d578561251181616950565b9650506000818360200151846060015160405160200161256993929190928352602083019190915260c01b7fffffffffffffffff00000000000000000000000000000000000000000000000016604082015260480190565b604080517fffffffffffffffffffffffffffffffffffffffffffffffffffffffffffffffe0818403018152918152815160209283012067ffffffffffffffff8a166000908152607190935291205490915081146125f2576040517fce3d755e00000000000000000000000000000000000000000000000000000000815260040160405180910390fd5b67ffffffffffffffff8088166000908152607160205260408082209190915560608501519085015190821691161015612657576040517f7f7ab87200000000000000000000000000000000000000000000000000000000815260040160405180910390fd5b5061279a565b602082015115801590612724575060208201516040517f257b363200000000000000000000000000000000000000000000000000000000815260048101919091527f000000000000000000000000000000000000000000000000000000000000000073ffffffffffffffffffffffffffffffffffffffff169063257b3632906024016020604051808303816000875af11580156126fe573d6000803e3d6000fd5b505050506040513d601f19601f820116820180604052508101906127229190616829565b155b1561275b576040517f73bd668d00000000000000000000000000000000000000000000000000000000815260040160405180910390fd5b815151620493e0101561279a576040517fa29a6c7c00000000000000000000000000000000000000000000000000000000815260040160405180910390fd5b8767ffffffffffffffff16826040015167ffffffffffffffff1610806127cd575042826040015167ffffffffffffffff16115b15612804576040517fea82791600000000000000000000000000000000000000000000000000000000815260040160405180910390fd5b602082810151604080850151815193840189905290830184905260608084019290925260c01b7fffffffffffffffff0000000000000000000000000000000000000000000000001660808301528b901b7fffffffffffffffffffffffffffffffffffffffff000000000000000000000000166088820152609c0160405160208183030381529060405280519060200120945081604001519750505080806128aa90616a67565b9150506124ae565b506128bd8685616907565b60735490945067ffffffffffffffff780100000000000000000000000000000000000000000000000090910481169084161115612926576040517fc630a00d00000000000000000000000000000000000000000000000000000000815260040160405180910390fd5b6000612932828561692f565b6129469067ffffffffffffffff1688616a9f565b604080516060810182528581524267ffffffffffffffff908116602080840191825260738054680100000000000000009081900485168688019081528d861660008181526072909552979093209551865592516001909501805492519585167fffffffffffffffffffffffffffffffff000000000000000000000000000000009384161795851684029590951790945583548c8416911617930292909217905590915082811690851614612a3c57607380547fffffffffffffffff0000000000000000ffffffffffffffffffffffffffffffff1670010000000000000000000000000000000067ffffffffffffffff8716021790555b612a94333083612a4b60705490565b612a559190616ab2565b73ffffffffffffffffffffffffffffffffffffffff7f0000000000000000000000000000000000000000000000000000000000000000169291906159ba565b612a9c61590d565b7f000000000000000000000000000000000000000000000000000000000000000073ffffffffffffffffffffffffffffffffffffffff166379e2cf976040518163ffffffff1660e01b8152600401600060405180830381600087803b158015612b0457600080fd5b505af1158015612b18573d6000803e3d6000fd5b505060405167ffffffffffffffff881692507f303446e6a8cb73c83dff421c0b1d5e5ce0719dab1bff13660fc254e58cc17fce9150600090a250505050505050505050565b607a5473ffffffffffffffffffffffffffffffffffffffff163314612bae576040517f4755657900000000000000000000000000000000000000000000000000000000815260040160405180910390fd5b607b547c0100000000000000000000000000000000000000000000000000000000900460ff16612c0a576040517ff6ba91a100000000000000000000000000000000000000000000000000000000815260040160405180910390fd5b607b80547fffffff00ffffffffffffffffffffffffffffffffffffffffffffffffffffffff1690556040517f854dd6ce5a1445c4c54388b21cffd11cf5bba1b9e763aec48ce3da75d617412f90600090a1565b607a5473ffffffffffffffffffffffffffffffffffffffff163314612cae576040517f4755657900000000000000000000000000000000000000000000000000000000815260040160405180910390fd5b606f80547fff0000000000000000000000000000000000000000ffffffffffffffffffffff166b01000000000000000000000073ffffffffffffffffffffffffffffffffffffffff8416908102919091179091556040519081527ff54144f9611984021529f814a1cb6a41e22c58351510a0d9f7e822618abb9cc0906020016119b7565b612d3a6150e0565b612d446000615a9c565b565b60335473ffffffffffffffffffffffffffffffffffffffff163314612eae576000612d6f61372b565b90508067ffffffffffffffff168267ffffffffffffffff1611612dbe576040517f812a372d00000000000000000000000000000000000000000000000000000000815260040160405180910390fd5b60735467ffffffffffffffff6801000000000000000090910481169083161180612e04575067ffffffffffffffff80831660009081526072602052604090206001015416155b15612e3b576040517f98c5c01400000000000000000000000000000000000000000000000000000000815260040160405180910390fd5b67ffffffffffffffff8083166000908152607260205260409020600101544291612e6a9162093a809116616907565b67ffffffffffffffff161115612eac576040517fd257555a00000000000000000000000000000000000000000000000000000000815260040160405180910390fd5b505b611e23615058565b607b5473ffffffffffffffffffffffffffffffffffffffff163314612f07576040517fd1ec4b2300000000000000000000000000000000000000000000000000000000815260040160405180910390fd5b607b54607a80547fffffffffffffffffffffffff00000000000000000000000000000000000000001673ffffffffffffffffffffffffffffffffffffffff90921691821790556040519081527f056dc487bbf0795d0bbb1b4f0af523a855503cff740bfb4d5475f7a90c091e8e9060200160405180910390a1565b612f8a6150e0565b607480547fffffffffffffffffffffffffffffffffffffffffffffffff00000000000000001667ffffffffffffffff92909216919091179055565b6040517f70a08231000000000000000000000000000000000000000000000000000000008152306004820152600090819073ffffffffffffffffffffffffffffffffffffffff7f000000000000000000000000000000000000000000000000000000000000000016906370a0823190602401602060405180830381865afa158015613054573d6000803e3d6000fd5b505050506040513d601f19601f820116820180604052508101906130789190616829565b9050600061308461372b565b60735467ffffffffffffffff6801000000000000000082048116916130dc917001000000000000000000000000000000008204811691780100000000000000000000000000000000000000000000000090041661692f565b6130e69190616907565b6130f0919061692f565b67ffffffffffffffff1690508060000361310d5760009250505090565b6131178183616ac9565b9250505090565b6131266150e0565b6073805467ffffffffffffffff90921668010000000000000000027fffffffffffffffffffffffffffffffff0000000000000000ffffffffffffffff909216919091179055565b607a5473ffffffffffffffffffffffffffffffffffffffff1633146131be576040517f4755657900000000000000000000000000000000000000000000000000000000815260040160405180910390fd5b62093a8067ffffffffffffffff82161115613205576040517fcc96507000000000000000000000000000000000000000000000000000000000815260040160405180910390fd5b606f5460ff1661326c5760795467ffffffffffffffff70010000000000000000000000000000000090910481169082161061326c576040517f48a05a9000000000000000000000000000000000000000000000000000000000815260040160405180910390fd5b607980547fffffffffffffffff0000000000000000ffffffffffffffffffffffffffffffff1670010000000000000000000000000000000067ffffffffffffffff8416908102919091179091556040519081527fc4121f4e22c69632ebb7cf1f462be0511dc034f999b52013eddfb24aab765c75906020016119b7565b607a5473ffffffffffffffffffffffffffffffffffffffff16331461333a576040517f4755657900000000000000000000000000000000000000000000000000000000815260040160405180910390fd5b620151808167ffffffffffffffff161115613381576040517fe067dfe800000000000000000000000000000000000000000000000000000000815260040160405180910390fd5b606f80547fffffffffffffffffffffffffffffffffffffffffffffff0000000000000000ff1661010067ffffffffffffffff8416908102919091179091556040519081527f1b023231a1ab6b5d93992f168fb44498e1a7e64cef58daff6f1c216de6a68c28906020016119b7565b60745468010000000000000000900473ffffffffffffffffffffffffffffffffffffffff16331461344c576040517fbbcbbc0500000000000000000000000000000000000000000000000000000000815260040160405180910390fd5b61345b87878787878787615374565b607480547fffffffffffffffffffffffffffffffffffffffffffffffff00000000000000001667ffffffffffffffff878116918217909255600090815260756020526040902084905560795416156134d657607980547fffffffffffffffffffffffffffffffff000000000000000000000000000000001690555b6040517f33d6247d000000000000000000000000000000000000000000000000000000008152600481018590527f000000000000000000000000000000000000000000000000000000000000000073ffffffffffffffffffffffffffffffffffffffff16906333d6247d90602401600060405180830381600087803b15801561355e57600080fd5b505af1158015613572573d6000803e3d6000fd5b505060405185815233925067ffffffffffffffff881691507fcb339b570a7f0b25afa7333371ff11192092a0aeace12b671f4c212f2815c6fe9060200161232f565b607a5473ffffffffffffffffffffffffffffffffffffffff163314613605576040517f4755657900000000000000000000000000000000000000000000000000000000815260040160405180910390fd5b607b80547fffffffffffffffffffffffff00000000000000000000000000000000000000001673ffffffffffffffffffffffffffffffffffffffff83169081179091556040519081527fa5b56b7906fd0a20e3f35120dd8343db1e12e037a6c90111c7e42885e82a1ce6906020016119b7565b6136806150e0565b611e238161572d565b600067ffffffff0000000167ffffffffffffffff83161080156136c1575067ffffffff00000001604083901c67ffffffffffffffff16105b80156136e2575067ffffffff00000001608083901c67ffffffffffffffff16105b80156136f9575067ffffffff0000000160c083901c105b1561370657506001919050565b506000919050565b919050565b61371b6150e0565b60776137278282616b2b565b5050565b60795460009067ffffffffffffffff161561376f575060795467ffffffffffffffff9081166000908152607860205260409020546801000000000000000090041690565b5060745467ffffffffffffffff1690565b607a5473ffffffffffffffffffffffffffffffffffffffff1633146137d1576040517f4755657900000000000000000000000000000000000000000000000000000000815260040160405180910390fd5b60766137dd8282616b2b565b507f6b8f723a4c7a5335cafae8a598a0aa0301be1387c037dccc085b62add6448b20816040516119b79190616208565b600054610100900460ff161580801561382d5750600054600160ff909116105b806138475750303b158015613847575060005460ff166001145b6138d3576040517f08c379a000000000000000000000000000000000000000000000000000000000815260206004820152602e60248201527f496e697469616c697a61626c653a20636f6e747261637420697320616c72656160448201527f647920696e697469616c697a65640000000000000000000000000000000000006064820152608401610e6d565b600080547fffffffffffffffffffffffffffffffffffffffffffffffffffffffffffffff00166001179055801561393157600080547fffffffffffffffffffffffffffffffffffffffffffffffffffffffffffff00ff166101001790555b61393e60208801886165ea565b607a80547fffffffffffffffffffffffff00000000000000000000000000000000000000001673ffffffffffffffffffffffffffffffffffffffff9290921691909117905561399360408801602089016165ea565b606f805473ffffffffffffffffffffffffffffffffffffffff929092166b010000000000000000000000027fff0000000000000000000000000000000000000000ffffffffffffffffffffff9092169190911790556139f860808801606089016165ea565b6074805473ffffffffffffffffffffffffffffffffffffffff9290921668010000000000000000027fffffffff0000000000000000000000000000000000000000ffffffffffffffff9092169190911790556000805260756020527ff9e3fbf150b7a0077118526f473c53cb4734f166167e2c6213e3567dd390b4ad8690556076613a838682616b2b565b506077613a908582616b2b565b5062093a80613aa56060890160408a0161633d565b67ffffffffffffffff161115613ae7576040517fcc96507000000000000000000000000000000000000000000000000000000000815260040160405180910390fd5b613af7606088016040890161633d565b6079805467ffffffffffffffff92909216700100000000000000000000000000000000027fffffffffffffffff0000000000000000ffffffffffffffffffffffffffffffff90921691909117905562093a80613b5960a0890160808a0161633d565b67ffffffffffffffff161115613b9b576040517f1d06e87900000000000000000000000000000000000000000000000000000000815260040160405180910390fd5b613bab60a088016080890161633d565b6079805477ffffffffffffffffffffffffffffffffffffffffffffffff16780100000000000000000000000000000000000000000000000067ffffffffffffffff939093169290920291909117905567016345785d8a0000607055606f80547fffffffffffffffffffffffffffffffffffffffffff00000000000000000000ff166a03ea000000000000070800179055607b80547fffffff000000000000000000ffffffffffffffffffffffffffffffffffffffff167c0100000000000697800000000000000000000000000000000000000000179055613c8a615b13565b7fed7be53c9f1a96a481223b15568a5b1a475e01a74b347d6ca187c8bf0c078cd660007f00000000000000000000000000000000000000000000000000000000000000008585604051613ce09493929190616c8e565b60405180910390a18015613d4b57600080547fffffffffffffffffffffffffffffffffffffffffffffffffffffffffffff00ff169055604051600181527f7f26b83ff96e1f2b6a682f133852f6798a09c465da95921460cefb38474024989060200160405180910390a15b50505050505050565b607b547c0100000000000000000000000000000000000000000000000000000000900460ff1615613db1576040517f24eff8c300000000000000000000000000000000000000000000000000000000815260040160405180910390fd5b606f5460ff1615613dee576040517f2f0047fc00000000000000000000000000000000000000000000000000000000815260040160405180910390fd5b806000819003613e2a576040517fcb591a5f00000000000000000000000000000000000000000000000000000000815260040160405180910390fd5b6103e8811115613e66576040517fb59f753a00000000000000000000000000000000000000000000000000000000815260040160405180910390fd5b60735467ffffffffffffffff78010000000000000000000000000000000000000000000000008204811691613eb1918491700100000000000000000000000000000000900416616cc6565b1115613ee9576040517fc630a00d00000000000000000000000000000000000000000000000000000000815260040160405180910390fd5b60735467ffffffffffffffff680100000000000000008204811660008181526072602052604081205491937001000000000000000000000000000000009004909216915b84811015614193576000878783818110613f4957613f49616977565b9050602002810190613f5b9190616cd9565b613f6490616d0d565b905083613f7081616950565b82518051602091820120818501516040808701519051949950919450600093613fd29386939101928352602083019190915260c01b7fffffffffffffffff00000000000000000000000000000000000000000000000016604082015260480190565b604080517fffffffffffffffffffffffffffffffffffffffffffffffffffffffffffffffe0818403018152918152815160209283012067ffffffffffffffff891660009081526071909352912054909150811461405b576040517fce3d755e00000000000000000000000000000000000000000000000000000000815260040160405180910390fd5b67ffffffffffffffff8616600090815260716020526040812055614080600189616a9f565b84036140ef5742607b60149054906101000a900467ffffffffffffffff1684604001516140ad9190616907565b67ffffffffffffffff1611156140ef576040517fc44a082100000000000000000000000000000000000000000000000000000000815260040160405180910390fd5b6020838101516040805192830188905282018490526060808301919091524260c01b7fffffffffffffffff00000000000000000000000000000000000000000000000016608083015233901b7fffffffffffffffffffffffffffffffffffffffff000000000000000000000000166088820152609c01604051602081830303815290604052805190602001209450505050808061418b90616a67565b915050613f2d565b5061419e8484616907565b6073805467ffffffffffffffff4281167fffffffffffffffffffffffffffffffffffffffffffffffff00000000000000009092168217808455604080516060810182528781526020808201958652680100000000000000009384900485168284019081528589166000818152607290935284832093518455965160019390930180549151871686027fffffffffffffffffffffffffffffffff0000000000000000000000000000000090921693871693909317179091558554938916700100000000000000000000000000000000027fffffffffffffffff0000000000000000ffffffffffffffffffffffffffffffff938602939093167fffffffffffffffff00000000000000000000000000000000ffffffffffffffff90941693909317919091179093559151929550917f648a61dd2438f072f5a1960939abd30f37aea80d2e94c9792ad142d3e0a490a49190a2505050505050565b607a5473ffffffffffffffffffffffffffffffffffffffff163314614347576040517f4755657900000000000000000000000000000000000000000000000000000000815260040160405180910390fd5b7f000000000000000000000000000000000000000000000000000000000000000073ffffffffffffffffffffffffffffffffffffffff1663dbc169766040518163ffffffff1660e01b8152600401600060405180830381600087803b1580156143af57600080fd5b505af11580156143c3573d6000803e3d6000fd5b50505050612d44615bb3565b6143d76150e0565b6040805160608101825293845267ffffffffffffffff92831660208086019182529284168583019081529584166000908152607290935291209251835551600190920180549351821668010000000000000000027fffffffffffffffffffffffffffffffff000000000000000000000000000000009094169290911691909117919091179055565b60745468010000000000000000900473ffffffffffffffffffffffffffffffffffffffff1633146144bc576040517fbbcbbc0500000000000000000000000000000000000000000000000000000000815260040160405180910390fd5b6144cc8888888888888888614c10565b607480547fffffffffffffffffffffffffffffffffffffffffffffffff00000000000000001667ffffffffffffffff8781169182179092556000908152607560205260409020849055607954161561454757607980547fffffffffffffffffffffffffffffffff000000000000000000000000000000001690555b6040517f33d6247d000000000000000000000000000000000000000000000000000000008152600481018590527f000000000000000000000000000000000000000000000000000000000000000073ffffffffffffffffffffffffffffffffffffffff16906333d6247d90602401600060405180830381600087803b1580156145cf57600080fd5b505af11580156145e3573d6000803e3d6000fd5b50506079805477ffffffffffffffffffffffffffffffffffffffffffffffff167a093a800000000000000000000000000000000000000000000000001790555050604051838152339067ffffffffffffffff8716907fcc1b5520188bf1dd3e63f98164b577c4d75c11a619ddea692112f0d1aec4cf729060200160405180910390a35050505050505050565b607b547c0100000000000000000000000000000000000000000000000000000000900460ff16156146cc576040517f24eff8c300000000000000000000000000000000000000000000000000000000815260040160405180910390fd5b606f5460ff1615614709576040517f2f0047fc00000000000000000000000000000000000000000000000000000000815260040160405180910390fd5b600061471460705490565b905081811115614750576040517f4732fdb500000000000000000000000000000000000000000000000000000000815260040160405180910390fd5b620493e083111561478d576040517fa29a6c7c00000000000000000000000000000000000000000000000000000000815260040160405180910390fd5b6147cf73ffffffffffffffffffffffffffffffffffffffff7f0000000000000000000000000000000000000000000000000000000000000000163330846159ba565b60007f000000000000000000000000000000000000000000000000000000000000000073ffffffffffffffffffffffffffffffffffffffff16633ed691ef6040518163ffffffff1660e01b8152600401602060405180830381865afa15801561483c573d6000803e3d6000fd5b505050506040513d601f19601f820116820180604052508101906148609190616829565b60738054919250780100000000000000000000000000000000000000000000000090910467ffffffffffffffff1690601861489a83616950565b91906101000a81548167ffffffffffffffff021916908367ffffffffffffffff1602179055505084846040516148d1929190616d89565b60408051918290038220602083015281018290527fffffffffffffffff0000000000000000000000000000000000000000000000004260c01b166060820152606801604080518083037fffffffffffffffffffffffffffffffffffffffffffffffffffffffffffffffe001815291815281516020928301206073547801000000000000000000000000000000000000000000000000900467ffffffffffffffff1660009081526071909352912055323303614a0157607354604080518381523360208201526060918101829052600091810191909152780100000000000000000000000000000000000000000000000090910467ffffffffffffffff16907ff94bb37db835f1ab585ee00041849a09b12cd081d77fa15ca070757619cbc9319060800160405180910390a2614a60565b607360189054906101000a900467ffffffffffffffff1667ffffffffffffffff167ff94bb37db835f1ab585ee00041849a09b12cd081d77fa15ca070757619cbc93182338888604051614a579493929190616d99565b60405180910390a25b5050505050565b607a5473ffffffffffffffffffffffffffffffffffffffff163314614ab8576040517f4755657900000000000000000000000000000000000000000000000000000000815260040160405180910390fd5b607480547fffffffff0000000000000000000000000000000000000000ffffffffffffffff166801000000000000000073ffffffffffffffffffffffffffffffffffffffff8416908102919091179091556040519081527f61f8fec29495a3078e9271456f05fb0707fd4e41f7661865f80fc437d06681ca906020016119b7565b614b416150e0565b73ffffffffffffffffffffffffffffffffffffffff8116614be4576040517f08c379a000000000000000000000000000000000000000000000000000000000815260206004820152602660248201527f4f776e61626c653a206e6577206f776e657220697320746865207a65726f206160448201527f64647265737300000000000000000000000000000000000000000000000000006064820152608401610e6d565b611e2381615a9c565b614bf56150e0565b67ffffffffffffffff16600090815260756020526040902055565b600067ffffffffffffffff891615614cde5760795467ffffffffffffffff908116908a161115614c6c576040517fbb14c20500000000000000000000000000000000000000000000000000000000815260040160405180910390fd5b5067ffffffffffffffff8089166000908152607860205260409020600281015481549092898116680100000000000000009092041614614cd8576040517f2bd2e3e700000000000000000000000000000000000000000000000000000000815260040160405180910390fd5b50614d7a565b5067ffffffffffffffff861660009081526075602052604090205480614d30576040517f4997b98600000000000000000000000000000000000000000000000000000000815260040160405180910390fd5b60745467ffffffffffffffff9081169088161115614d7a576040517f1e56e9e200000000000000000000000000000000000000000000000000000000815260040160405180910390fd5b60795467ffffffffffffffff9081169089161180614dac57508867ffffffffffffffff168867ffffffffffffffff1611155b80614dd3575060795467ffffffffffffffff68010000000000000000909104811690891611155b15614e0a576040517fbfa7079f00000000000000000000000000000000000000000000000000000000815260040160405180910390fd5b67ffffffffffffffff888116600090815260786020526040902054680100000000000000009004811690871614614e6d576040517f32a2a77f00000000000000000000000000000000000000000000000000000000815260040160405180910390fd5b6000614e7c88888885896119c2565b905060007f30644e72e131a029b85045b68181585d2833e84879b9709143e1f593f0000001600283604051614eb1919061680d565b602060405180830381855afa158015614ece573d6000803e3d6000fd5b5050506040513d601f19601f82011682018060405250810190614ef19190616829565b614efb9190616871565b6040805160208101825282815290517f8d8f8a5c00000000000000000000000000000000000000000000000000000000815291925073ffffffffffffffffffffffffffffffffffffffff7f00000000000000000000000000000000000000000000000000000000000000001691638d8f8a5c91614f7e9189918991600401616dcf565b602060405180830381865afa158015614f9b573d6000803e3d6000fd5b505050506040513d601f19601f82011682018060405250810190614fbf9190616e17565b614ff5576040517f09bde33900000000000000000000000000000000000000000000000000000000815260040160405180910390fd5b67ffffffffffffffff8a1660009081526078602052604090206002015486900361504b576040517fa47276bd00000000000000000000000000000000000000000000000000000000815260040160405180910390fd5b5050505050505050505050565b7f000000000000000000000000000000000000000000000000000000000000000073ffffffffffffffffffffffffffffffffffffffff16632072f6c56040518163ffffffff1660e01b8152600401600060405180830381600087803b1580156150c057600080fd5b505af11580156150d4573d6000803e3d6000fd5b50505050612d44615c42565b60335473ffffffffffffffffffffffffffffffffffffffff163314612d44576040517f08c379a000000000000000000000000000000000000000000000000000000000815260206004820181905260248201527f4f776e61626c653a2063616c6c6572206973206e6f7420746865206f776e65726044820152606401610e6d565b60795467ffffffffffffffff68010000000000000000909104811690821611158061519b575060795467ffffffffffffffff908116908216115b156151d2576040517fd086b70b00000000000000000000000000000000000000000000000000000000815260040160405180910390fd5b67ffffffffffffffff818116600081815260786020908152604080832080546074805468010000000000000000928390049098167fffffffffffffffffffffffffffffffffffffffffffffffff000000000000000090981688179055600282015487865260759094529382902092909255607980547fffffffffffffffffffffffffffffffff0000000000000000ffffffffffffffff169390940292909217909255600182015490517f33d6247d00000000000000000000000000000000000000000000000000000000815260048101919091529091907f000000000000000000000000000000000000000000000000000000000000000073ffffffffffffffffffffffffffffffffffffffff16906333d6247d90602401600060405180830381600087803b15801561530457600080fd5b505af1158015615318573d6000803e3d6000fd5b505050508267ffffffffffffffff168167ffffffffffffffff167f328d3c6c0fd6f1be0515e422f2d87e59f25922cbc2233568515a0c4bc3f8510e846002015460405161536791815260200190565b60405180910390a3505050565b60008061537f61372b565b905067ffffffffffffffff89161561544f5760795467ffffffffffffffff908116908a1611156153db576040517fbb14c20500000000000000000000000000000000000000000000000000000000815260040160405180910390fd5b67ffffffffffffffff808a1660009081526078602052604090206002810154815490945090918a8116680100000000000000009092041614615449576040517f2bd2e3e700000000000000000000000000000000000000000000000000000000815260040160405180910390fd5b506154f0565b67ffffffffffffffff88166000908152607560205260409020549150816154a2576040517f4997b98600000000000000000000000000000000000000000000000000000000815260040160405180910390fd5b8067ffffffffffffffff168867ffffffffffffffff1611156154f0576040517f1e56e9e200000000000000000000000000000000000000000000000000000000815260040160405180910390fd5b8067ffffffffffffffff168767ffffffffffffffff161161553d576040517fb9b18f5700000000000000000000000000000000000000000000000000000000815260040160405180910390fd5b600061554c898989868a6119c2565b905060007f30644e72e131a029b85045b68181585d2833e84879b9709143e1f593f0000001600283604051615581919061680d565b602060405180830381855afa15801561559e573d6000803e3d6000fd5b5050506040513d601f19601f820116820180604052508101906155c19190616829565b6155cb9190616871565b6040805160208101825282815290517f8d8f8a5c00000000000000000000000000000000000000000000000000000000815291925073ffffffffffffffffffffffffffffffffffffffff7f00000000000000000000000000000000000000000000000000000000000000001691638d8f8a5c9161564e918a918a91600401616dcf565b602060405180830381865afa15801561566b573d6000803e3d6000fd5b505050506040513d601f19601f8201168201806040525081019061568f9190616e17565b6156c5576040517f09bde33900000000000000000000000000000000000000000000000000000000815260040160405180910390fd5b61504b336156d3858c61692f565b67ffffffffffffffff166156e5612fc5565b6156ef9190616ab2565b73ffffffffffffffffffffffffffffffffffffffff7f0000000000000000000000000000000000000000000000000000000000000000169190615cd5565b600061573761372b565b905081600080615747848461692f565b606f5467ffffffffffffffff918216925060009161576b9161010090041642616a9f565b90505b8467ffffffffffffffff168467ffffffffffffffff16146157f65767ffffffffffffffff808516600090815260726020526040902060018101549091168210156157d457600181015468010000000000000000900467ffffffffffffffff1694506157f0565b6157de868661692f565b67ffffffffffffffff169350506157f6565b5061576e565b60006158028484616a9f565b90508381101561585957808403600c811161581d5780615820565b600c5b9050806103e80a81606f60099054906101000a900461ffff1661ffff160a607054028161584f5761584f616842565b04607055506158c9565b838103600c811161586a578061586d565b600c5b90506000816103e80a82606f60099054906101000a900461ffff1661ffff160a670de0b6b3a764000002816158a4576158a4616842565b04905080607054670de0b6b3a764000002816158c2576158c2616842565b0460705550505b683635c9adc5dea0000060705411156158ee57683635c9adc5dea00000607055613d4b565b633b9aca006070541015613d4b57633b9aca0060705550505050505050565b60795467ffffffffffffffff680100000000000000008204811691161115612d44576079546000906159569068010000000000000000900467ffffffffffffffff166001616907565b905061596181611b99565b15611e235760795460009060029061598490849067ffffffffffffffff1661692f565b61598e9190616e39565b6159989083616907565b90506159a381611b99565b156159b15761372781615161565b61372782615161565b60405173ffffffffffffffffffffffffffffffffffffffff80851660248301528316604482015260648101829052615a969085907f23b872dd00000000000000000000000000000000000000000000000000000000906084015b604080517fffffffffffffffffffffffffffffffffffffffffffffffffffffffffffffffe08184030181529190526020810180517bffffffffffffffffffffffffffffffffffffffffffffffffffffffff167fffffffff0000000000000000000000000000000000000000000000000000000090931692909217909152615d30565b50505050565b6033805473ffffffffffffffffffffffffffffffffffffffff8381167fffffffffffffffffffffffff0000000000000000000000000000000000000000831681179093556040519116919082907f8be0079c531659141344cd1fd0a4f28419497f9722a3daafe3b4186f6b6457e090600090a35050565b600054610100900460ff16615baa576040517f08c379a000000000000000000000000000000000000000000000000000000000815260206004820152602b60248201527f496e697469616c697a61626c653a20636f6e7472616374206973206e6f74206960448201527f6e697469616c697a696e670000000000000000000000000000000000000000006064820152608401610e6d565b612d4433615a9c565b606f5460ff16615bef576040517f5386698100000000000000000000000000000000000000000000000000000000815260040160405180910390fd5b606f80547fffffffffffffffffffffffffffffffffffffffffffffffffffffffffffffff001690556040517f1e5e34eea33501aecf2ebec9fe0e884a40804275ea7fe10b2ba084c8374308b390600090a1565b606f5460ff1615615c7f576040517f2f0047fc00000000000000000000000000000000000000000000000000000000815260040160405180910390fd5b606f80547fffffffffffffffffffffffffffffffffffffffffffffffffffffffffffffff001660011790556040517f2261efe5aef6fedc1fd1550b25facc9181745623049c7901287030b9ad1a549790600090a1565b60405173ffffffffffffffffffffffffffffffffffffffff8316602482015260448101829052615d2b9084907fa9059cbb0000000000000000000000000000000000000000000000000000000090606401615a14565b505050565b6000615d92826040518060400160405280602081526020017f5361666545524332303a206c6f772d6c6576656c2063616c6c206661696c65648152508573ffffffffffffffffffffffffffffffffffffffff16615e3c9092919063ffffffff16565b805190915015615d2b5780806020019051810190615db09190616e17565b615d2b576040517f08c379a000000000000000000000000000000000000000000000000000000000815260206004820152602a60248201527f5361666545524332303a204552433230206f7065726174696f6e20646964206e60448201527f6f742073756363656564000000000000000000000000000000000000000000006064820152608401610e6d565b6060615e4b8484600085615e53565b949350505050565b606082471015615ee5576040517f08c379a000000000000000000000000000000000000000000000000000000000815260206004820152602660248201527f416464726573733a20696e73756666696369656e742062616c616e636520666f60448201527f722063616c6c00000000000000000000000000000000000000000000000000006064820152608401610e6d565b6000808673ffffffffffffffffffffffffffffffffffffffff168587604051615f0e919061680d565b60006040518083038185875af1925050503d8060008114615f4b576040519150601f19603f3d011682016040523d82523d6000602084013e615f50565b606091505b5091509150615f6187838387615f6c565b979650505050505050565b60608315616002578251600003615ffb5773ffffffffffffffffffffffffffffffffffffffff85163b615ffb576040517f08c379a000000000000000000000000000000000000000000000000000000000815260206004820152601d60248201527f416464726573733a2063616c6c20746f206e6f6e2d636f6e74726163740000006044820152606401610e6d565b5081615e4b565b615e4b83838151156160175781518083602001fd5b806040517f08c379a0000000000000000000000000000000000000000000000000000000008152600401610e6d9190616208565b803567ffffffffffffffff8116811461370e57600080fd5b60008083601f84011261607557600080fd5b50813567ffffffffffffffff81111561608d57600080fd5b6020830191508360208285010111156160a557600080fd5b9250929050565b60008060008060008060008060e0898b0312156160c857600080fd5b6160d18961604b565b97506160df60208a0161604b565b96506160ed60408a0161604b565b95506160fb60608a0161604b565b94506080890135935060a0890135925060c089013567ffffffffffffffff81111561612557600080fd5b6161318b828c01616063565b999c989b5096995094979396929594505050565b600080600080600060a0868803121561615d57600080fd5b6161668661604b565b94506161746020870161604b565b93506161826040870161604b565b94979396509394606081013594506080013592915050565b60005b838110156161b557818101518382015260200161619d565b50506000910152565b600081518084526161d681602086016020860161619a565b601f017fffffffffffffffffffffffffffffffffffffffffffffffffffffffffffffffe0169290920160200192915050565b60208152600061621b60208301846161be565b9392505050565b806040810183101561623357600080fd5b92915050565b6000806000806000806000806101a0898b03121561625657600080fd5b61625f8961604b565b975061626d60208a0161604b565b965061627b60408a0161604b565b955060608901359450608089013593506162988a60a08b01616222565b925061016089018a8111156162ac57600080fd5b60e08a0192506162bc8b82616222565b9150509295985092959890939650565b6000602082840312156162de57600080fd5b813561ffff8116811461621b57600080fd5b600080600080600060a0868803121561630857600080fd5b6163118661604b565b945061631f6020870161604b565b94979496505050506040830135926060810135926080909101359150565b60006020828403121561634f57600080fd5b61621b8261604b565b600080600080600080600060c0888a03121561637357600080fd5b61637c8861604b565b965061638a6020890161604b565b95506163986040890161604b565b9450606088013593506080880135925060a088013567ffffffffffffffff8111156163c257600080fd5b6163ce8a828b01616063565b989b979a50959850939692959293505050565b7f4e487b7100000000000000000000000000000000000000000000000000000000600052604160045260246000fd5b600082601f83011261642157600080fd5b813567ffffffffffffffff8082111561643c5761643c6163e1565b604051601f83017fffffffffffffffffffffffffffffffffffffffffffffffffffffffffffffffe0908116603f01168101908282118183101715616482576164826163e1565b8160405283815286602085880101111561649b57600080fd5b836020870160208301376000602085830101528094505050505092915050565b803573ffffffffffffffffffffffffffffffffffffffff8116811461370e57600080fd5b600080600080600060a086880312156164f757600080fd5b85359450602086013567ffffffffffffffff81111561651557600080fd5b61652188828901616410565b945050604086013592506165376060870161604b565b9150616545608087016164bb565b90509295509295909350565b60008083601f84011261656357600080fd5b50813567ffffffffffffffff81111561657b57600080fd5b6020830191508360208260051b85010111156160a557600080fd5b6000806000604084860312156165ab57600080fd5b833567ffffffffffffffff8111156165c257600080fd5b6165ce86828701616551565b90945092506165e19050602085016164bb565b90509250925092565b6000602082840312156165fc57600080fd5b61621b826164bb565b60006020828403121561661757600080fd5b5035919050565b60006020828403121561663057600080fd5b813567ffffffffffffffff81111561664757600080fd5b615e4b84828501616410565b60008060008060008086880361012081121561666e57600080fd5b60a081121561667c57600080fd5b5086955060a0870135945060c087013567ffffffffffffffff808211156166a257600080fd5b6166ae8a838b01616410565b955060e08901359150808211156166c457600080fd5b6166d08a838b01616410565b94506101008901359150808211156166e757600080fd5b506166f489828a01616063565b979a9699509497509295939492505050565b6000806020838503121561671957600080fd5b823567ffffffffffffffff81111561673057600080fd5b61673c85828601616551565b90969095509350505050565b6000806000806080858703121561675e57600080fd5b6167678561604b565b93506020850135925061677c6040860161604b565b915061678a6060860161604b565b905092959194509250565b6000806000604084860312156167aa57600080fd5b833567ffffffffffffffff8111156167c157600080fd5b6167cd86828701616063565b909790965060209590950135949350505050565b600080604083850312156167f457600080fd5b823591506168046020840161604b565b90509250929050565b6000825161681f81846020870161619a565b9190910192915050565b60006020828403121561683b57600080fd5b5051919050565b7f4e487b7100000000000000000000000000000000000000000000000000000000600052601260045260246000fd5b60008261688057616880616842565b500690565b600181811c9082168061689957607f821691505b6020821081036168d2577f4e487b7100000000000000000000000000000000000000000000000000000000600052602260045260246000fd5b50919050565b7f4e487b7100000000000000000000000000000000000000000000000000000000600052601160045260246000fd5b67ffffffffffffffff818116838216019080821115616928576169286168d8565b5092915050565b67ffffffffffffffff828116828216039080821115616928576169286168d8565b600067ffffffffffffffff80831681810361696d5761696d6168d8565b6001019392505050565b7f4e487b7100000000000000000000000000000000000000000000000000000000600052603260045260246000fd5b600082357fffffffffffffffffffffffffffffffffffffffffffffffffffffffffffffff8183360301811261681f57600080fd5b6000608082360312156169ec57600080fd5b6040516080810167ffffffffffffffff8282108183111715616a1057616a106163e1565b816040528435915080821115616a2557600080fd5b50616a3236828601616410565b82525060208301356020820152616a4b6040840161604b565b6040820152616a5c6060840161604b565b606082015292915050565b60007fffffffffffffffffffffffffffffffffffffffffffffffffffffffffffffffff8203616a9857616a986168d8565b5060010190565b81810381811115616233576162336168d8565b8082028115828204841417616233576162336168d8565b600082616ad857616ad8616842565b500490565b601f821115615d2b57600081815260208120601f850160051c81016020861015616b045750805b601f850160051c820191505b81811015616b2357828155600101616b10565b505050505050565b815167ffffffffffffffff811115616b4557616b456163e1565b616b5981616b538454616885565b84616add565b602080601f831160018114616bac5760008415616b765750858301515b7fffffffffffffffffffffffffffffffffffffffffffffffffffffffffffffffff600386901b1c1916600185901b178555616b23565b6000858152602081207fffffffffffffffffffffffffffffffffffffffffffffffffffffffffffffffe08616915b82811015616bf957888601518255948401946001909101908401616bda565b5085821015616c3557878501517fffffffffffffffffffffffffffffffffffffffffffffffffffffffffffffffff600388901b60f8161c191681555b5050505050600190811b01905550565b8183528181602085013750600060208284010152600060207fffffffffffffffffffffffffffffffffffffffffffffffffffffffffffffffe0601f840116840101905092915050565b600067ffffffffffffffff808716835280861660208401525060606040830152616cbc606083018486616c45565b9695505050505050565b80820180821115616233576162336168d8565b600082357fffffffffffffffffffffffffffffffffffffffffffffffffffffffffffffffa183360301811261681f57600080fd5b600060608236031215616d1f57600080fd5b6040516060810167ffffffffffffffff8282108183111715616d4357616d436163e1565b816040528435915080821115616d5857600080fd5b50616d6536828601616410565b82525060208301356020820152616d7e6040840161604b565b604082015292915050565b8183823760009101908152919050565b84815273ffffffffffffffffffffffffffffffffffffffff84166020820152606060408201526000616cbc606083018486616c45565b604081526000616de3604083018587616c45565b905060208083018460005b6001811015616e0b57815183529183019190830190600101616dee565b50505050949350505050565b600060208284031215616e2957600080fd5b8151801515811461621b57600080fd5b600067ffffffffffffffff80841680616e5457616e54616842565b9216919091049291505056fea2646970667358221220f31182b7be9fc893c30ab76ea1e6d21dde97347319d990a8b8dff1ec7e3ad34464736f6c63430008110033",
  "linkReferences": {},
  "deployedLinkReferences": {}
}