{
  "_format": "hh-sol-artifact-1",
  "contractName": "PolygonZkEVMGlobalExitRootMock",
  "sourceName": "contracts/mocks/PolygonZkEVMGlobalExitRootMock.sol",
  "abi": [
    {
      "inputs": [
        {
          "internalType": "address",
          "name": "_rollupAddress",
          "type": "address"
        },
        {
          "internalType": "address",
          "name": "_bridgeAddress",
          "type": "address"
        }
      ],
      "stateMutability": "nonpayable",
      "type": "constructor"
    },
    {
      "inputs": [],
      "name": "MerkleTreeFull",
      "type": "error"
    },
    {
      "inputs": [],
      "name": "OnlyAllowedContracts",
      "type": "error"
    },
    {
      "anonymous": false,
      "inputs": [
        {
          "indexed": true,
          "internalType": "bytes32",
          "name": "mainnetExitRoot",
          "type": "bytes32"
        },
        {
          "indexed": true,
          "internalType": "bytes32",
          "name": "rollupExitRoot",
          "type": "bytes32"
        }
      ],
      "name": "UpdateGlobalExitRoot",
      "type": "event"
    },
    {
      "inputs": [],
      "name": "bridgeAddress",
      "outputs": [
        {
          "internalType": "address",
          "name": "",
          "type": "address"
        }
      ],
      "stateMutability": "view",
      "type": "function"
    },
    {
      "inputs": [],
      "name": "depositCount",
      "outputs": [
        {
          "internalType": "uint256",
          "name": "",
          "type": "uint256"
        }
      ],
      "stateMutability": "view",
      "type": "function"
    },
    {
      "inputs": [],
      "name": "getLastGlobalExitRoot",
      "outputs": [
        {
          "internalType": "bytes32",
          "name": "",
          "type": "bytes32"
        }
      ],
      "stateMutability": "view",
      "type": "function"
    },
    {
      "inputs": [],
      "name": "getRoot",
      "outputs": [
        {
          "internalType": "bytes32",
          "name": "",
          "type": "bytes32"
        }
      ],
      "stateMutability": "view",
      "type": "function"
    },
    {
      "inputs": [
        {
          "internalType": "bytes32",
          "name": "",
          "type": "bytes32"
        }
      ],
      "name": "globalExitRootMap",
      "outputs": [
        {
          "internalType": "uint256",
          "name": "",
          "type": "uint256"
        }
      ],
      "stateMutability": "view",
      "type": "function"
    },
    {
      "inputs": [],
      "name": "lastMainnetExitRoot",
      "outputs": [
        {
          "internalType": "bytes32",
          "name": "",
          "type": "bytes32"
        }
      ],
      "stateMutability": "view",
      "type": "function"
    },
    {
      "inputs": [],
      "name": "lastRollupExitRoot",
      "outputs": [
        {
          "internalType": "bytes32",
          "name": "",
          "type": "bytes32"
        }
      ],
      "stateMutability": "view",
      "type": "function"
    },
    {
      "inputs": [],
      "name": "rollupAddress",
      "outputs": [
        {
          "internalType": "address",
          "name": "",
          "type": "address"
        }
      ],
      "stateMutability": "view",
      "type": "function"
    },
    {
      "inputs": [
        {
          "internalType": "bytes32",
          "name": "globalExitRoot",
          "type": "bytes32"
        },
        {
          "internalType": "uint256",
          "name": "timestamp",
          "type": "uint256"
        }
      ],
      "name": "setGlobalExitRoot",
      "outputs": [],
      "stateMutability": "nonpayable",
      "type": "function"
    },
    {
      "inputs": [
        {
          "internalType": "uint256",
          "name": "timestamp",
          "type": "uint256"
        }
      ],
      "name": "setLastGlobalExitRoot",
      "outputs": [],
      "stateMutability": "nonpayable",
      "type": "function"
    },
    {
      "inputs": [
        {
          "internalType": "bytes32",
          "name": "newRoot",
          "type": "bytes32"
        }
      ],
      "name": "updateExitRoot",
      "outputs": [],
      "stateMutability": "nonpayable",
      "type": "function"
    },
    {
      "inputs": [
        {
          "internalType": "bytes32",
          "name": "leafHash",
          "type": "bytes32"
        },
        {
          "internalType": "bytes32[32]",
          "name": "smtProof",
          "type": "bytes32[32]"
        },
        {
          "internalType": "uint32",
          "name": "index",
          "type": "uint32"
        },
        {
          "internalType": "bytes32",
          "name": "root",
          "type": "bytes32"
        }
      ],
      "name": "verifyMerkleProof",
      "outputs": [
        {
          "internalType": "bool",
          "name": "",
          "type": "bool"
        }
      ],
      "stateMutability": "pure",
      "type": "function"
    }
  ],
  "bytecode": "0x60c060405234801561000f575f80fd5b506040516109de3803806109de83398101604081905261002e91610060565b6001600160a01b0391821660a05216608052610091565b80516001600160a01b038116811461005b575f80fd5b919050565b5f8060408385031215610071575f80fd5b61007a83610045565b915061008860208401610045565b90509250929050565b60805160a05161091e6100c05f395f818161017c015261029201525f81816101c80152610249015261091e5ff3fe608060405234801561000f575f80fd5b50600436106100cf575f3560e01c80633ed691ef1161007d5780635ec6a8df116100585780635ec6a8df14610177578063a3c573eb146101c3578063fb570834146101ea575f80fd5b80633ed691ef146101485780635bcef673146101505780635ca1e1651461016f575f80fd5b80632dfdf0b5116100ad5780632dfdf0b514610123578063319cf7351461012c57806333d6247d14610135575f80fd5b806301fd9044146100d3578063051a9e28146100ef578063257b363214610104575b5f80fd5b6100dc602b5481565b6040519081526020015b60405180910390f35b6101026100fd36600461065e565b61020d565b005b6100dc61011236600461065e565b602d6020525f908152604090205481565b6100dc60205481565b6100dc602c5481565b61010261014336600461065e565b61022c565b6100dc610361565b61010261015e366004610675565b5f918252602d602052604090912055565b6100dc610375565b61019e7f000000000000000000000000000000000000000000000000000000000000000081565b60405173ffffffffffffffffffffffffffffffffffffffff90911681526020016100e6565b61019e7f000000000000000000000000000000000000000000000000000000000000000081565b6101fd6101f8366004610695565b61037e565b60405190151581526020016100e6565b80602d5f610219610361565b815260208101919091526040015f205550565b602b54602c5473ffffffffffffffffffffffffffffffffffffffff7f000000000000000000000000000000000000000000000000000000000000000016330361027b5750602c829055816102f7565b73ffffffffffffffffffffffffffffffffffffffff7f00000000000000000000000000000000000000000000000000000000000000001633036102c557602b8390558291506102f7565b6040517fb49365dd00000000000000000000000000000000000000000000000000000000815260040160405180910390fd5b5f6103028284610456565b5f818152602d60205260408120549192500361035b575f818152602d602052604080822042905551849184917f61014378f82a0d809aefaf87a8ac9505b89c321808287a6e7810f29304c1fce39190a361035b81610485565b50505050565b5f610370602c54602b54610456565b905090565b5f610370610583565b5f84815b602081101561044a57600163ffffffff8616821c811690036103ed578581602081106103b0576103b06106e7565b6020020135826040516020016103d0929190918252602082015260400190565b604051602081830303815290604052805190602001209150610438565b81868260208110610400576104006106e7565b602002013560405160200161041f929190918252602082015260400190565b6040516020818303038152906040528051906020012091505b8061044281610741565b915050610382565b50909114949350505050565b604080516020808201859052818301849052825180830384018152606090920190925280519101205b92915050565b80600161049460206002610896565b61049e91906108a8565b602054106104d8576040517fef5ccf6600000000000000000000000000000000000000000000000000000000815260040160405180910390fd5b5f60205f81546104e790610741565b918290555090505f5b6020811015610575578082901c60011660010361052257825f826020811061051a5761051a6106e7565b015550505050565b5f8160208110610534576105346106e7565b01546040805160208101929092528101849052606001604051602081830303815290604052805190602001209250808061056d90610741565b9150506104f0565b5061057e6108bb565b505050565b6020545f90819081805b6020811015610655578083901c6001166001036105e9575f81602081106105b6576105b66106e7565b01546040805160208101929092528101859052606001604051602081830303815290604052805190602001209350610616565b60408051602081018690529081018390526060016040516020818303038152906040528051906020012093505b6040805160208101849052908101839052606001604051602081830303815290604052805190602001209150808061064d90610741565b91505061058d565b50919392505050565b5f6020828403121561066e575f80fd5b5035919050565b5f8060408385031215610686575f80fd5b50508035926020909101359150565b5f805f8061046085870312156106a9575f80fd5b843593506104208501868111156106be575f80fd5b6020860193503563ffffffff811681146106d6575f80fd5b939692955092936104400135925050565b7f4e487b71000000000000000000000000000000000000000000000000000000005f52603260045260245ffd5b7f4e487b71000000000000000000000000000000000000000000000000000000005f52601160045260245ffd5b5f7fffffffffffffffffffffffffffffffffffffffffffffffffffffffffffffffff820361077157610771610714565b5060010190565b600181815b808511156107d157817fffffffffffffffffffffffffffffffffffffffffffffffffffffffffffffffff048211156107b7576107b7610714565b808516156107c457918102915b93841c939080029061077d565b509250929050565b5f826107e75750600161047f565b816107f357505f61047f565b816001811461080957600281146108135761082f565b600191505061047f565b60ff84111561082457610824610714565b50506001821b61047f565b5060208310610133831016604e8410600b8410161715610852575081810a61047f565b61085c8383610778565b807fffffffffffffffffffffffffffffffffffffffffffffffffffffffffffffffff0482111561088e5761088e610714565b029392505050565b5f6108a183836107d9565b9392505050565b8181038181111561047f5761047f610714565b7f4e487b71000000000000000000000000000000000000000000000000000000005f52600160045260245ffdfea2646970667358221220bf3f4de702c9ce3edf71d69ca8d09c648531ae2831a2dbb3496a5daa427876e264736f6c63430008140033",
  "linkReferences": {},
  "deployedLinkReferences": {}
}