{
  "_format": "hh-sol-artifact-1",
  "contractName": "PolygonZkEVMMock",
  "sourceName": "contracts/mocks/PolygonZkEVMMock.sol",
  "abi": [
    {
      "inputs": [
        {
          "internalType": "contract IPolygonZkEVMGlobalExitRoot",
          "name": "_globalExitRootManager",
          "type": "address"
        },
        {
          "internalType": "contract IERC20Upgradeable",
          "name": "_matic",
          "type": "address"
        },
        {
          "internalType": "contract IVerifierRollup",
          "name": "_rollupVerifier",
          "type": "address"
        },
        {
          "internalType": "contract IPolygonZkEVMBridge",
          "name": "_bridgeAddress",
          "type": "address"
        },
        {
          "internalType": "uint64",
          "name": "_chainID",
          "type": "uint64"
        },
        {
          "internalType": "uint64",
          "name": "_forkID",
          "type": "uint64"
        }
      ],
      "stateMutability": "nonpayable",
      "type": "constructor"
    },
    {
      "inputs": [],
      "name": "BatchAlreadyVerified",
      "type": "error"
    },
    {
      "inputs": [],
      "name": "BatchNotSequencedOrNotSequenceEnd",
      "type": "error"
    },
    {
      "inputs": [],
      "name": "ExceedMaxVerifyBatches",
      "type": "error"
    },
    {
      "inputs": [],
      "name": "FinalNumBatchBelowLastVerifiedBatch",
      "type": "error"
    },
    {
      "inputs": [],
      "name": "FinalNumBatchDoesNotMatchPendingState",
      "type": "error"
    },
    {
      "inputs": [],
      "name": "FinalPendingStateNumInvalid",
      "type": "error"
    },
    {
      "inputs": [],
      "name": "ForceBatchTimeoutNotExpired",
      "type": "error"
    },
    {
      "inputs": [],
      "name": "ForceBatchesOverflow",
      "type": "error"
    },
    {
      "inputs": [],
      "name": "ForcedDataDoesNotMatch",
      "type": "error"
    },
    {
      "inputs": [],
      "name": "GlobalExitRootNotExist",
      "type": "error"
    },
    {
      "inputs": [],
      "name": "HaltTimeoutNotExpired",
      "type": "error"
    },
    {
      "inputs": [],
      "name": "InitNumBatchAboveLastVerifiedBatch",
      "type": "error"
    },
    {
      "inputs": [],
      "name": "InitNumBatchDoesNotMatchPendingState",
      "type": "error"
    },
    {
      "inputs": [],
      "name": "InvalidProof",
      "type": "error"
    },
    {
      "inputs": [],
      "name": "InvalidRangeBatchTimeTarget",
      "type": "error"
    },
    {
      "inputs": [],
      "name": "InvalidRangeMultiplierBatchFee",
      "type": "error"
    },
    {
      "inputs": [],
      "name": "NewAccInputHashDoesNotExist",
      "type": "error"
    },
    {
      "inputs": [],
      "name": "NewPendingStateTimeoutMustBeLower",
      "type": "error"
    },
    {
      "inputs": [],
      "name": "NewTrustedAggregatorTimeoutMustBeLower",
      "type": "error"
    },
    {
      "inputs": [],
      "name": "NotEnoughMaticAmount",
      "type": "error"
    },
    {
      "inputs": [],
      "name": "OldAccInputHashDoesNotExist",
      "type": "error"
    },
    {
      "inputs": [],
      "name": "OldStateRootDoesNotExist",
      "type": "error"
    },
    {
      "inputs": [],
      "name": "OnlyAdmin",
      "type": "error"
    },
    {
      "inputs": [],
      "name": "OnlyEmergencyState",
      "type": "error"
    },
    {
      "inputs": [],
      "name": "OnlyNotEmergencyState",
      "type": "error"
    },
    {
      "inputs": [],
      "name": "OnlyPendingAdmin",
      "type": "error"
    },
    {
      "inputs": [],
      "name": "OnlyTrustedAggregator",
      "type": "error"
    },
    {
      "inputs": [],
      "name": "OnlyTrustedSequencer",
      "type": "error"
    },
    {
      "inputs": [],
      "name": "PendingStateDoesNotExist",
      "type": "error"
    },
    {
      "inputs": [],
      "name": "PendingStateInvalid",
      "type": "error"
    },
    {
      "inputs": [],
      "name": "PendingStateNotConsolidable",
      "type": "error"
    },
    {
      "inputs": [],
      "name": "PendingStateTimeoutExceedHaltAggregationTimeout",
      "type": "error"
    },
    {
      "inputs": [],
      "name": "SequenceZeroBatches",
      "type": "error"
    },
    {
      "inputs": [],
      "name": "SequencedTimestampBelowForcedTimestamp",
      "type": "error"
    },
    {
      "inputs": [],
      "name": "SequencedTimestampInvalid",
      "type": "error"
    },
    {
      "inputs": [],
      "name": "StoredRootMustBeDifferentThanNewRoot",
      "type": "error"
    },
    {
      "inputs": [],
      "name": "TransactionsLengthAboveMax",
      "type": "error"
    },
    {
      "inputs": [],
      "name": "TrustedAggregatorTimeoutExceedHaltAggregationTimeout",
      "type": "error"
    },
    {
      "inputs": [],
      "name": "TrustedAggregatorTimeoutNotExpired",
      "type": "error"
    },
    {
      "anonymous": false,
      "inputs": [
        {
          "indexed": false,
          "internalType": "address",
          "name": "newAdmin",
          "type": "address"
        }
      ],
      "name": "AcceptAdminRole",
      "type": "event"
    },
    {
      "anonymous": false,
      "inputs": [
        {
          "indexed": true,
          "internalType": "uint64",
          "name": "numBatch",
          "type": "uint64"
        },
        {
          "indexed": false,
          "internalType": "bytes32",
          "name": "stateRoot",
          "type": "bytes32"
        },
        {
          "indexed": true,
          "internalType": "uint64",
          "name": "pendingStateNum",
          "type": "uint64"
        }
      ],
      "name": "ConsolidatePendingState",
      "type": "event"
    },
    {
      "anonymous": false,
      "inputs": [],
      "name": "EmergencyStateActivated",
      "type": "event"
    },
    {
      "anonymous": false,
      "inputs": [],
      "name": "EmergencyStateDeactivated",
      "type": "event"
    },
    {
      "anonymous": false,
      "inputs": [
        {
          "indexed": true,
          "internalType": "uint64",
          "name": "forceBatchNum",
          "type": "uint64"
        },
        {
          "indexed": false,
          "internalType": "bytes32",
          "name": "lastGlobalExitRoot",
          "type": "bytes32"
        },
        {
          "indexed": false,
          "internalType": "address",
          "name": "sequencer",
          "type": "address"
        },
        {
          "indexed": false,
          "internalType": "bytes",
          "name": "transactions",
          "type": "bytes"
        }
      ],
      "name": "ForceBatch",
      "type": "event"
    },
    {
      "anonymous": false,
      "inputs": [
        {
          "indexed": false,
          "internalType": "uint8",
          "name": "version",
          "type": "uint8"
        }
      ],
      "name": "Initialized",
      "type": "event"
    },
    {
      "anonymous": false,
      "inputs": [
        {
          "indexed": true,
          "internalType": "uint64",
          "name": "numBatch",
          "type": "uint64"
        },
        {
          "indexed": false,
          "internalType": "bytes32",
          "name": "stateRoot",
          "type": "bytes32"
        },
        {
          "indexed": true,
          "internalType": "address",
          "name": "aggregator",
          "type": "address"
        }
      ],
      "name": "OverridePendingState",
      "type": "event"
    },
    {
      "anonymous": false,
      "inputs": [
        {
          "indexed": true,
          "internalType": "address",
          "name": "previousOwner",
          "type": "address"
        },
        {
          "indexed": true,
          "internalType": "address",
          "name": "newOwner",
          "type": "address"
        }
      ],
      "name": "OwnershipTransferred",
      "type": "event"
    },
    {
      "anonymous": false,
      "inputs": [
        {
          "indexed": false,
          "internalType": "bytes32",
          "name": "storedStateRoot",
          "type": "bytes32"
        },
        {
          "indexed": false,
          "internalType": "bytes32",
          "name": "provedStateRoot",
          "type": "bytes32"
        }
      ],
      "name": "ProveNonDeterministicPendingState",
      "type": "event"
    },
    {
      "anonymous": false,
      "inputs": [
        {
          "indexed": true,
          "internalType": "uint64",
          "name": "numBatch",
          "type": "uint64"
        }
      ],
      "name": "SequenceBatches",
      "type": "event"
    },
    {
      "anonymous": false,
      "inputs": [
        {
          "indexed": true,
          "internalType": "uint64",
          "name": "numBatch",
          "type": "uint64"
        }
      ],
      "name": "SequenceForceBatches",
      "type": "event"
    },
    {
      "anonymous": false,
      "inputs": [
        {
          "indexed": false,
          "internalType": "uint16",
          "name": "newMultiplierBatchFee",
          "type": "uint16"
        }
      ],
      "name": "SetMultiplierBatchFee",
      "type": "event"
    },
    {
      "anonymous": false,
      "inputs": [
        {
          "indexed": false,
          "internalType": "uint64",
          "name": "newPendingStateTimeout",
          "type": "uint64"
        }
      ],
      "name": "SetPendingStateTimeout",
      "type": "event"
    },
    {
      "anonymous": false,
      "inputs": [
        {
          "indexed": false,
          "internalType": "address",
          "name": "newTrustedAggregator",
          "type": "address"
        }
      ],
      "name": "SetTrustedAggregator",
      "type": "event"
    },
    {
      "anonymous": false,
      "inputs": [
        {
          "indexed": false,
          "internalType": "uint64",
          "name": "newTrustedAggregatorTimeout",
          "type": "uint64"
        }
      ],
      "name": "SetTrustedAggregatorTimeout",
      "type": "event"
    },
    {
      "anonymous": false,
      "inputs": [
        {
          "indexed": false,
          "internalType": "address",
          "name": "newTrustedSequencer",
          "type": "address"
        }
      ],
      "name": "SetTrustedSequencer",
      "type": "event"
    },
    {
      "anonymous": false,
      "inputs": [
        {
          "indexed": false,
          "internalType": "string",
          "name": "newTrustedSequencerURL",
          "type": "string"
        }
      ],
      "name": "SetTrustedSequencerURL",
      "type": "event"
    },
    {
      "anonymous": false,
      "inputs": [
        {
          "indexed": false,
          "internalType": "uint64",
          "name": "newVerifyBatchTimeTarget",
          "type": "uint64"
        }
      ],
      "name": "SetVerifyBatchTimeTarget",
      "type": "event"
    },
    {
      "anonymous": false,
      "inputs": [
        {
          "indexed": false,
          "internalType": "address",
          "name": "newPendingAdmin",
          "type": "address"
        }
      ],
      "name": "TransferAdminRole",
      "type": "event"
    },
    {
      "anonymous": false,
      "inputs": [
        {
          "indexed": false,
          "internalType": "uint64",
          "name": "numBatch",
          "type": "uint64"
        },
        {
          "indexed": false,
          "internalType": "uint64",
          "name": "forkID",
          "type": "uint64"
        },
        {
          "indexed": false,
          "internalType": "string",
          "name": "version",
          "type": "string"
        }
      ],
      "name": "UpdateZkEVMVersion",
      "type": "event"
    },
    {
      "anonymous": false,
      "inputs": [
        {
          "indexed": true,
          "internalType": "uint64",
          "name": "numBatch",
          "type": "uint64"
        },
        {
          "indexed": false,
          "internalType": "bytes32",
          "name": "stateRoot",
          "type": "bytes32"
        },
        {
          "indexed": true,
          "internalType": "address",
          "name": "aggregator",
          "type": "address"
        }
      ],
      "name": "VerifyBatches",
      "type": "event"
    },
    {
      "anonymous": false,
      "inputs": [
        {
          "indexed": true,
          "internalType": "uint64",
          "name": "numBatch",
          "type": "uint64"
        },
        {
          "indexed": false,
          "internalType": "bytes32",
          "name": "stateRoot",
          "type": "bytes32"
        },
        {
          "indexed": true,
          "internalType": "address",
          "name": "aggregator",
          "type": "address"
        }
      ],
      "name": "VerifyBatchesTrusted",
      "type": "event"
    },
    {
      "inputs": [],
      "name": "acceptAdminRole",
      "outputs": [],
      "stateMutability": "nonpayable",
      "type": "function"
    },
    {
      "inputs": [
        {
          "internalType": "uint64",
          "name": "sequencedBatchNum",
          "type": "uint64"
        }
      ],
      "name": "activateEmergencyState",
      "outputs": [],
      "stateMutability": "nonpayable",
      "type": "function"
    },
    {
      "inputs": [],
      "name": "admin",
      "outputs": [
        {
          "internalType": "address",
          "name": "",
          "type": "address"
        }
      ],
      "stateMutability": "view",
      "type": "function"
    },
    {
      "inputs": [],
      "name": "batchFee",
      "outputs": [
        {
          "internalType": "uint256",
          "name": "",
          "type": "uint256"
        }
      ],
      "stateMutability": "view",
      "type": "function"
    },
    {
      "inputs": [
        {
          "internalType": "uint64",
          "name": "",
          "type": "uint64"
        }
      ],
      "name": "batchNumToStateRoot",
      "outputs": [
        {
          "internalType": "bytes32",
          "name": "",
          "type": "bytes32"
        }
      ],
      "stateMutability": "view",
      "type": "function"
    },
    {
      "inputs": [],
      "name": "bridgeAddress",
      "outputs": [
        {
          "internalType": "contract IPolygonZkEVMBridge",
          "name": "",
          "type": "address"
        }
      ],
      "stateMutability": "view",
      "type": "function"
    },
    {
      "inputs": [
        {
          "internalType": "bytes32",
          "name": "currentAccInputHash",
          "type": "bytes32"
        },
        {
          "internalType": "bytes",
          "name": "transactions",
          "type": "bytes"
        },
        {
          "internalType": "bytes32",
          "name": "globalExitRoot",
          "type": "bytes32"
        },
        {
          "internalType": "uint64",
          "name": "timestamp",
          "type": "uint64"
        },
        {
          "internalType": "address",
          "name": "sequencerAddress",
          "type": "address"
        }
      ],
      "name": "calculateAccInputHash",
      "outputs": [
        {
          "internalType": "bytes32",
          "name": "",
          "type": "bytes32"
        }
      ],
      "stateMutability": "pure",
      "type": "function"
    },
    {
      "inputs": [],
      "name": "calculateRewardPerBatch",
      "outputs": [
        {
          "internalType": "uint256",
          "name": "",
          "type": "uint256"
        }
      ],
      "stateMutability": "view",
      "type": "function"
    },
    {
      "inputs": [],
      "name": "chainID",
      "outputs": [
        {
          "internalType": "uint64",
          "name": "",
          "type": "uint64"
        }
      ],
      "stateMutability": "view",
      "type": "function"
    },
    {
      "inputs": [
        {
          "internalType": "uint64",
          "name": "pendingStateNum",
          "type": "uint64"
        }
      ],
      "name": "consolidatePendingState",
      "outputs": [],
      "stateMutability": "nonpayable",
      "type": "function"
    },
    {
      "inputs": [],
      "name": "deactivateEmergencyState",
      "outputs": [],
      "stateMutability": "nonpayable",
      "type": "function"
    },
    {
      "inputs": [
        {
          "internalType": "bytes",
          "name": "transactions",
          "type": "bytes"
        },
        {
          "internalType": "uint256",
          "name": "maticAmount",
          "type": "uint256"
        }
      ],
      "name": "forceBatch",
      "outputs": [],
      "stateMutability": "nonpayable",
      "type": "function"
    },
    {
      "inputs": [
        {
          "internalType": "uint64",
          "name": "",
          "type": "uint64"
        }
      ],
      "name": "forcedBatches",
      "outputs": [
        {
          "internalType": "bytes32",
          "name": "",
          "type": "bytes32"
        }
      ],
      "stateMutability": "view",
      "type": "function"
    },
    {
      "inputs": [],
      "name": "forkID",
      "outputs": [
        {
          "internalType": "uint64",
          "name": "",
          "type": "uint64"
        }
      ],
      "stateMutability": "view",
      "type": "function"
    },
    {
      "inputs": [],
      "name": "getCurrentBatchFee",
      "outputs": [
        {
          "internalType": "uint256",
          "name": "",
          "type": "uint256"
        }
      ],
      "stateMutability": "view",
      "type": "function"
    },
    {
      "inputs": [
        {
          "internalType": "uint64",
          "name": "initNumBatch",
          "type": "uint64"
        },
        {
          "internalType": "uint64",
          "name": "finalNewBatch",
          "type": "uint64"
        },
        {
          "internalType": "bytes32",
          "name": "newLocalExitRoot",
          "type": "bytes32"
        },
        {
          "internalType": "bytes32",
          "name": "oldStateRoot",
          "type": "bytes32"
        },
        {
          "internalType": "bytes32",
          "name": "newStateRoot",
          "type": "bytes32"
        }
      ],
      "name": "getInputSnarkBytes",
      "outputs": [
        {
          "internalType": "bytes",
          "name": "",
          "type": "bytes"
        }
      ],
      "stateMutability": "view",
      "type": "function"
    },
    {
      "inputs": [],
      "name": "getLastVerifiedBatch",
      "outputs": [
        {
          "internalType": "uint64",
          "name": "",
          "type": "uint64"
        }
      ],
      "stateMutability": "view",
      "type": "function"
    },
    {
      "inputs": [
        {
          "internalType": "uint64",
          "name": "pendingStateNum",
          "type": "uint64"
        },
        {
          "internalType": "uint64",
          "name": "initNumBatch",
          "type": "uint64"
        },
        {
          "internalType": "uint64",
          "name": "finalNewBatch",
          "type": "uint64"
        },
        {
          "internalType": "bytes32",
          "name": "newLocalExitRoot",
          "type": "bytes32"
        },
        {
          "internalType": "bytes32",
          "name": "newStateRoot",
          "type": "bytes32"
        }
      ],
      "name": "getNextSnarkInput",
      "outputs": [
        {
          "internalType": "uint256",
          "name": "",
          "type": "uint256"
        }
      ],
      "stateMutability": "view",
      "type": "function"
    },
    {
      "inputs": [],
      "name": "globalExitRootManager",
      "outputs": [
        {
          "internalType": "contract IPolygonZkEVMGlobalExitRoot",
          "name": "",
          "type": "address"
        }
      ],
      "stateMutability": "view",
      "type": "function"
    },
    {
      "inputs": [
        {
          "components": [
            {
              "internalType": "address",
              "name": "admin",
              "type": "address"
            },
            {
              "internalType": "address",
              "name": "trustedSequencer",
              "type": "address"
            },
            {
              "internalType": "uint64",
              "name": "pendingStateTimeout",
              "type": "uint64"
            },
            {
              "internalType": "address",
              "name": "trustedAggregator",
              "type": "address"
            },
            {
              "internalType": "uint64",
              "name": "trustedAggregatorTimeout",
              "type": "uint64"
            }
          ],
          "internalType": "struct PolygonZkEVM.InitializePackedParameters",
          "name": "initializePackedParameters",
          "type": "tuple"
        },
        {
          "internalType": "bytes32",
          "name": "genesisRoot",
          "type": "bytes32"
        },
        {
          "internalType": "string",
          "name": "_trustedSequencerURL",
          "type": "string"
        },
        {
          "internalType": "string",
          "name": "_networkName",
          "type": "string"
        },
        {
          "internalType": "string",
          "name": "_version",
          "type": "string"
        }
      ],
      "name": "initialize",
      "outputs": [],
      "stateMutability": "nonpayable",
      "type": "function"
    },
    {
      "inputs": [],
      "name": "isEmergencyState",
      "outputs": [
        {
          "internalType": "bool",
          "name": "",
          "type": "bool"
        }
      ],
      "stateMutability": "view",
      "type": "function"
    },
    {
      "inputs": [
        {
          "internalType": "uint64",
          "name": "pendingStateNum",
          "type": "uint64"
        }
      ],
      "name": "isPendingStateConsolidable",
      "outputs": [
        {
          "internalType": "bool",
          "name": "",
          "type": "bool"
        }
      ],
      "stateMutability": "view",
      "type": "function"
    },
    {
      "inputs": [],
      "name": "lastBatchSequenced",
      "outputs": [
        {
          "internalType": "uint64",
          "name": "",
          "type": "uint64"
        }
      ],
      "stateMutability": "view",
      "type": "function"
    },
    {
      "inputs": [],
      "name": "lastForceBatch",
      "outputs": [
        {
          "internalType": "uint64",
          "name": "",
          "type": "uint64"
        }
      ],
      "stateMutability": "view",
      "type": "function"
    },
    {
      "inputs": [],
      "name": "lastForceBatchSequenced",
      "outputs": [
        {
          "internalType": "uint64",
          "name": "",
          "type": "uint64"
        }
      ],
      "stateMutability": "view",
      "type": "function"
    },
    {
      "inputs": [],
      "name": "lastPendingState",
      "outputs": [
        {
          "internalType": "uint64",
          "name": "",
          "type": "uint64"
        }
      ],
      "stateMutability": "view",
      "type": "function"
    },
    {
      "inputs": [],
      "name": "lastPendingStateConsolidated",
      "outputs": [
        {
          "internalType": "uint64",
          "name": "",
          "type": "uint64"
        }
      ],
      "stateMutability": "view",
      "type": "function"
    },
    {
      "inputs": [],
      "name": "lastTimestamp",
      "outputs": [
        {
          "internalType": "uint64",
          "name": "",
          "type": "uint64"
        }
      ],
      "stateMutability": "view",
      "type": "function"
    },
    {
      "inputs": [],
      "name": "lastVerifiedBatch",
      "outputs": [
        {
          "internalType": "uint64",
          "name": "",
          "type": "uint64"
        }
      ],
      "stateMutability": "view",
      "type": "function"
    },
    {
      "inputs": [],
      "name": "matic",
      "outputs": [
        {
          "internalType": "contract IERC20Upgradeable",
          "name": "",
          "type": "address"
        }
      ],
      "stateMutability": "view",
      "type": "function"
    },
    {
      "inputs": [],
      "name": "multiplierBatchFee",
      "outputs": [
        {
          "internalType": "uint16",
          "name": "",
          "type": "uint16"
        }
      ],
      "stateMutability": "view",
      "type": "function"
    },
    {
      "inputs": [],
      "name": "networkName",
      "outputs": [
        {
          "internalType": "string",
          "name": "",
          "type": "string"
        }
      ],
      "stateMutability": "view",
      "type": "function"
    },
    {
      "inputs": [
        {
          "internalType": "uint64",
          "name": "initPendingStateNum",
          "type": "uint64"
        },
        {
          "internalType": "uint64",
          "name": "finalPendingStateNum",
          "type": "uint64"
        },
        {
          "internalType": "uint64",
          "name": "initNumBatch",
          "type": "uint64"
        },
        {
          "internalType": "uint64",
          "name": "finalNewBatch",
          "type": "uint64"
        },
        {
          "internalType": "bytes32",
          "name": "newLocalExitRoot",
          "type": "bytes32"
        },
        {
          "internalType": "bytes32",
          "name": "newStateRoot",
          "type": "bytes32"
        },
        {
          "internalType": "uint256[2]",
          "name": "proofA",
          "type": "uint256[2]"
        },
        {
          "internalType": "uint256[2][2]",
          "name": "proofB",
          "type": "uint256[2][2]"
        },
        {
          "internalType": "uint256[2]",
          "name": "proofC",
          "type": "uint256[2]"
        }
      ],
      "name": "overridePendingState",
      "outputs": [],
      "stateMutability": "nonpayable",
      "type": "function"
    },
    {
      "inputs": [],
      "name": "owner",
      "outputs": [
        {
          "internalType": "address",
          "name": "",
          "type": "address"
        }
      ],
      "stateMutability": "view",
      "type": "function"
    },
    {
      "inputs": [],
      "name": "pendingAdmin",
      "outputs": [
        {
          "internalType": "address",
          "name": "",
          "type": "address"
        }
      ],
      "stateMutability": "view",
      "type": "function"
    },
    {
      "inputs": [],
      "name": "pendingStateTimeout",
      "outputs": [
        {
          "internalType": "uint64",
          "name": "",
          "type": "uint64"
        }
      ],
      "stateMutability": "view",
      "type": "function"
    },
    {
      "inputs": [
        {
          "internalType": "uint256",
          "name": "",
          "type": "uint256"
        }
      ],
      "name": "pendingStateTransitions",
      "outputs": [
        {
          "internalType": "uint64",
          "name": "timestamp",
          "type": "uint64"
        },
        {
          "internalType": "uint64",
          "name": "lastVerifiedBatch",
          "type": "uint64"
        },
        {
          "internalType": "bytes32",
          "name": "exitRoot",
          "type": "bytes32"
        },
        {
          "internalType": "bytes32",
          "name": "stateRoot",
          "type": "bytes32"
        }
      ],
      "stateMutability": "view",
      "type": "function"
    },
    {
      "inputs": [
        {
          "internalType": "uint64",
          "name": "initPendingStateNum",
          "type": "uint64"
        },
        {
          "internalType": "uint64",
          "name": "finalPendingStateNum",
          "type": "uint64"
        },
        {
          "internalType": "uint64",
          "name": "initNumBatch",
          "type": "uint64"
        },
        {
          "internalType": "uint64",
          "name": "finalNewBatch",
          "type": "uint64"
        },
        {
          "internalType": "bytes32",
          "name": "newLocalExitRoot",
          "type": "bytes32"
        },
        {
          "internalType": "bytes32",
          "name": "newStateRoot",
          "type": "bytes32"
        },
        {
          "internalType": "uint256[2]",
          "name": "proofA",
          "type": "uint256[2]"
        },
        {
          "internalType": "uint256[2][2]",
          "name": "proofB",
          "type": "uint256[2][2]"
        },
        {
          "internalType": "uint256[2]",
          "name": "proofC",
          "type": "uint256[2]"
        }
      ],
      "name": "proveNonDeterministicPendingState",
      "outputs": [],
      "stateMutability": "nonpayable",
      "type": "function"
    },
    {
      "inputs": [],
      "name": "renounceOwnership",
      "outputs": [],
      "stateMutability": "nonpayable",
      "type": "function"
    },
    {
      "inputs": [],
      "name": "rollupVerifier",
      "outputs": [
        {
          "internalType": "contract IVerifierRollup",
          "name": "",
          "type": "address"
        }
      ],
      "stateMutability": "view",
      "type": "function"
    },
    {
      "inputs": [
        {
          "components": [
            {
              "internalType": "bytes",
              "name": "transactions",
              "type": "bytes"
            },
            {
              "internalType": "bytes32",
              "name": "globalExitRoot",
              "type": "bytes32"
            },
            {
              "internalType": "uint64",
              "name": "timestamp",
              "type": "uint64"
            },
            {
              "internalType": "uint64",
              "name": "minForcedTimestamp",
              "type": "uint64"
            }
          ],
          "internalType": "struct PolygonZkEVM.BatchData[]",
          "name": "batches",
          "type": "tuple[]"
        },
        {
          "internalType": "address",
          "name": "feeRecipient",
          "type": "address"
        }
      ],
      "name": "sequenceBatches",
      "outputs": [],
      "stateMutability": "nonpayable",
      "type": "function"
    },
    {
      "inputs": [
        {
          "components": [
            {
              "internalType": "bytes",
              "name": "transactions",
              "type": "bytes"
            },
            {
              "internalType": "bytes32",
              "name": "globalExitRoot",
              "type": "bytes32"
            },
            {
              "internalType": "uint64",
              "name": "minForcedTimestamp",
              "type": "uint64"
            }
          ],
          "internalType": "struct PolygonZkEVM.ForcedBatchData[]",
          "name": "batches",
          "type": "tuple[]"
        }
      ],
      "name": "sequenceForceBatches",
      "outputs": [],
      "stateMutability": "nonpayable",
      "type": "function"
    },
    {
      "inputs": [
        {
          "internalType": "uint64",
          "name": "",
          "type": "uint64"
        }
      ],
      "name": "sequencedBatches",
      "outputs": [
        {
          "internalType": "bytes32",
          "name": "accInputHash",
          "type": "bytes32"
        },
        {
          "internalType": "uint64",
          "name": "sequencedTimestamp",
          "type": "uint64"
        },
        {
          "internalType": "uint64",
          "name": "previousLastBatchSequenced",
          "type": "uint64"
        }
      ],
      "stateMutability": "view",
      "type": "function"
    },
    {
      "inputs": [
        {
          "internalType": "uint16",
          "name": "newMultiplierBatchFee",
          "type": "uint16"
        }
      ],
      "name": "setMultiplierBatchFee",
      "outputs": [],
      "stateMutability": "nonpayable",
      "type": "function"
    },
    {
      "inputs": [
        {
          "internalType": "string",
          "name": "_networkName",
          "type": "string"
        }
      ],
      "name": "setNetworkName",
      "outputs": [],
      "stateMutability": "nonpayable",
      "type": "function"
    },
    {
      "inputs": [
        {
          "internalType": "uint64",
          "name": "newPendingStateTimeout",
          "type": "uint64"
        }
      ],
      "name": "setPendingStateTimeout",
      "outputs": [],
      "stateMutability": "nonpayable",
      "type": "function"
    },
    {
      "inputs": [
        {
          "internalType": "uint64",
          "name": "_numBatch",
          "type": "uint64"
        }
      ],
      "name": "setSequencedBatch",
      "outputs": [],
      "stateMutability": "nonpayable",
      "type": "function"
    },
    {
      "inputs": [
        {
          "internalType": "uint64",
          "name": "batchNum",
          "type": "uint64"
        },
        {
          "internalType": "bytes32",
          "name": "accInputData",
          "type": "bytes32"
        },
        {
          "internalType": "uint64",
          "name": "timestamp",
          "type": "uint64"
        },
        {
          "internalType": "uint64",
          "name": "lastPendingStateConsolidated",
          "type": "uint64"
        }
      ],
      "name": "setSequencedBatches",
      "outputs": [],
      "stateMutability": "nonpayable",
      "type": "function"
    },
    {
      "inputs": [
        {
          "internalType": "bytes32",
          "name": "newStateRoot",
          "type": "bytes32"
        },
        {
          "internalType": "uint64",
          "name": "batchNum",
          "type": "uint64"
        }
      ],
      "name": "setStateRoot",
      "outputs": [],
      "stateMutability": "nonpayable",
      "type": "function"
    },
    {
      "inputs": [
        {
          "internalType": "address",
          "name": "newTrustedAggregator",
          "type": "address"
        }
      ],
      "name": "setTrustedAggregator",
      "outputs": [],
      "stateMutability": "nonpayable",
      "type": "function"
    },
    {
      "inputs": [
        {
          "internalType": "uint64",
          "name": "newTrustedAggregatorTimeout",
          "type": "uint64"
        }
      ],
      "name": "setTrustedAggregatorTimeout",
      "outputs": [],
      "stateMutability": "nonpayable",
      "type": "function"
    },
    {
      "inputs": [
        {
          "internalType": "address",
          "name": "newTrustedSequencer",
          "type": "address"
        }
      ],
      "name": "setTrustedSequencer",
      "outputs": [],
      "stateMutability": "nonpayable",
      "type": "function"
    },
    {
      "inputs": [
        {
          "internalType": "string",
          "name": "newTrustedSequencerURL",
          "type": "string"
        }
      ],
      "name": "setTrustedSequencerURL",
      "outputs": [],
      "stateMutability": "nonpayable",
      "type": "function"
    },
    {
      "inputs": [
        {
          "internalType": "uint64",
          "name": "_numBatch",
          "type": "uint64"
        }
      ],
      "name": "setVerifiedBatch",
      "outputs": [],
      "stateMutability": "nonpayable",
      "type": "function"
    },
    {
      "inputs": [
        {
          "internalType": "uint64",
          "name": "newVerifyBatchTimeTarget",
          "type": "uint64"
        }
      ],
      "name": "setVerifyBatchTimeTarget",
      "outputs": [],
      "stateMutability": "nonpayable",
      "type": "function"
    },
    {
      "inputs": [
        {
          "internalType": "address",
          "name": "newPendingAdmin",
          "type": "address"
        }
      ],
      "name": "transferAdminRole",
      "outputs": [],
      "stateMutability": "nonpayable",
      "type": "function"
    },
    {
      "inputs": [
        {
          "internalType": "address",
          "name": "newOwner",
          "type": "address"
        }
      ],
      "name": "transferOwnership",
      "outputs": [],
      "stateMutability": "nonpayable",
      "type": "function"
    },
    {
      "inputs": [],
      "name": "trustedAggregator",
      "outputs": [
        {
          "internalType": "address",
          "name": "",
          "type": "address"
        }
      ],
      "stateMutability": "view",
      "type": "function"
    },
    {
      "inputs": [],
      "name": "trustedAggregatorTimeout",
      "outputs": [
        {
          "internalType": "uint64",
          "name": "",
          "type": "uint64"
        }
      ],
      "stateMutability": "view",
      "type": "function"
    },
    {
      "inputs": [],
      "name": "trustedSequencer",
      "outputs": [
        {
          "internalType": "address",
          "name": "",
          "type": "address"
        }
      ],
      "stateMutability": "view",
      "type": "function"
    },
    {
      "inputs": [],
      "name": "trustedSequencerURL",
      "outputs": [
        {
          "internalType": "string",
          "name": "",
          "type": "string"
        }
      ],
      "stateMutability": "view",
      "type": "function"
    },
    {
      "inputs": [
        {
          "internalType": "uint64",
          "name": "pendingStateNum",
          "type": "uint64"
        },
        {
          "internalType": "uint64",
          "name": "initNumBatch",
          "type": "uint64"
        },
        {
          "internalType": "uint64",
          "name": "finalNewBatch",
          "type": "uint64"
        },
        {
          "internalType": "bytes32",
          "name": "newLocalExitRoot",
          "type": "bytes32"
        },
        {
          "internalType": "bytes32",
          "name": "newStateRoot",
          "type": "bytes32"
        },
        {
          "internalType": "uint256[2]",
          "name": "proofA",
          "type": "uint256[2]"
        },
        {
          "internalType": "uint256[2][2]",
          "name": "proofB",
          "type": "uint256[2][2]"
        },
        {
          "internalType": "uint256[2]",
          "name": "proofC",
          "type": "uint256[2]"
        }
      ],
      "name": "trustedVerifyBatchesMock",
      "outputs": [],
      "stateMutability": "nonpayable",
      "type": "function"
    },
    {
      "inputs": [
        {
          "internalType": "uint64",
          "name": "newLastVerifiedBatch",
          "type": "uint64"
        }
      ],
      "name": "updateBatchFee",
      "outputs": [],
      "stateMutability": "nonpayable",
      "type": "function"
    },
    {
      "inputs": [],
      "name": "verifyBatchTimeTarget",
      "outputs": [
        {
          "internalType": "uint64",
          "name": "",
          "type": "uint64"
        }
      ],
      "stateMutability": "view",
      "type": "function"
    },
    {
      "inputs": [
        {
          "internalType": "uint64",
          "name": "pendingStateNum",
          "type": "uint64"
        },
        {
          "internalType": "uint64",
          "name": "initNumBatch",
          "type": "uint64"
        },
        {
          "internalType": "uint64",
          "name": "finalNewBatch",
          "type": "uint64"
        },
        {
          "internalType": "bytes32",
          "name": "newLocalExitRoot",
          "type": "bytes32"
        },
        {
          "internalType": "bytes32",
          "name": "newStateRoot",
          "type": "bytes32"
        },
        {
          "internalType": "uint256[2]",
          "name": "proofA",
          "type": "uint256[2]"
        },
        {
          "internalType": "uint256[2][2]",
          "name": "proofB",
          "type": "uint256[2][2]"
        },
        {
          "internalType": "uint256[2]",
          "name": "proofC",
          "type": "uint256[2]"
        }
      ],
      "name": "verifyBatches",
      "outputs": [],
      "stateMutability": "nonpayable",
      "type": "function"
    },
    {
      "inputs": [
        {
          "internalType": "uint64",
          "name": "pendingStateNum",
          "type": "uint64"
        },
        {
          "internalType": "uint64",
          "name": "initNumBatch",
          "type": "uint64"
        },
        {
          "internalType": "uint64",
          "name": "finalNewBatch",
          "type": "uint64"
        },
        {
          "internalType": "bytes32",
          "name": "newLocalExitRoot",
          "type": "bytes32"
        },
        {
          "internalType": "bytes32",
          "name": "newStateRoot",
          "type": "bytes32"
        },
        {
          "internalType": "uint256[2]",
          "name": "proofA",
          "type": "uint256[2]"
        },
        {
          "internalType": "uint256[2][2]",
          "name": "proofB",
          "type": "uint256[2][2]"
        },
        {
          "internalType": "uint256[2]",
          "name": "proofC",
          "type": "uint256[2]"
        }
      ],
      "name": "verifyBatchesTrusted",
      "outputs": [],
      "stateMutability": "nonpayable",
      "type": "function"
    }
  ],
  "bytecode": "0x6101406040523480156200001257600080fd5b5060405162005055380380620050558339810160408190526200003591620000a5565b6001600160a01b0395861660c05293851660805291841660a05290921660e0526001600160401b0391821661010052166101205262000131565b6001600160a01b03811681146200008557600080fd5b50565b80516001600160401b0381168114620000a057600080fd5b919050565b60008060008060008060c08789031215620000bf57600080fd5b8651620000cc816200006f565b6020880151909650620000df816200006f565b6040880151909550620000f2816200006f565b606088015190945062000105816200006f565b9250620001156080880162000088565b91506200012560a0880162000088565b90509295509295509295565b60805160a05160c05160e0516101005161012051614e56620001ff600039600081816105ef0152818161101c01526125a10152600081816107600152610ff2015260008181610726015281816129a001526137dc01526000818161089101528181610ddb015281816112fa0152818161174301528181611dd901528181612b2e01528181612ca2015261365d015260008181610940015281816131ee0152613aa5015260008181610822015281816119de01528181611e7f01528181612c7601526132b90152614e566000f3fe608060405234801561001057600080fd5b50600436106103665760003560e01c806396dc3d39116101ca578063c89e42df11610105578063e11f3f18116100a8578063e11f3f181461090e578063e7a7ed0214610921578063e8bf92ed1461093b578063eaeb077b14610962578063f14916d614610975578063f2fde38b14610988578063f851a4401461099b578063f8b823e4146109ae578063fe16564f146109b757600080fd5b8063c89e42df1461085f578063cfa8ed4714610872578063d02103ca1461088c578063d2e129f9146108b3578063d8d1091b146108c6578063d939b315146108d9578063dbc16976146108f3578063e0d17441146108fb57600080fd5b8063ada8f9191161016d578063ada8f91914610748578063adc879e91461075b578063afd23cbe14610782578063b4d63f58146107aa578063b4f77ea91461080a578063b6b0b0971461081d578063c0cad30214610844578063c0ed84e01461085757600080fd5b806396dc3d39146106b2578063984d5f5b146106c557806399f5634e146106d85780639b796760146106e05780639c9f3dfe146106f35780639f0d039d14610706578063a066215c1461070e578063a3c573eb1461072157600080fd5b80634a1a89a7116102a5578063715018a611610248578063715018a6146105a95780637215541a146105b157806375c508b3146105c45780637fcb3653146105d7578063831c7ead146105ea578063837a473814610611578063841b24d71461067f5780638c3d7301146106995780638da5cb5b146106a157600080fd5b80634a1a89a7146104fb5780634a910e6a146105155780635392c5e014610528578063542028d514610548578063574f649e146105505780635e9145c9146105635780636b8616ce146105765780636ff512cc1461059657600080fd5b8063267822471161030d57806326782247146104415780632987898314610461578063383b3be81461047b578063394218e91461048e578063423fa856146104a157806345605267146104bb578063458c0477146104d55780634834a343146104e857600080fd5b80630a0d9fbe1461036b5780630eaa86ea146103a0578063107bf28c146103c157806310a01a72146103d657806315064c96146103eb5780631816b7e51461040857806319d8ac611461041b578063220d78991461042e575b600080fd5b606f546103839061010090046001600160401b031681565b6040516001600160401b0390911681526020015b60405180910390f35b6103b36103ae366004613f54565b6109ca565b604051908152602001610397565b6103c9610b99565b6040516103979190613ff9565b6103e96103e436600461403b565b610c27565b005b606f546103f89060ff1681565b6040519015158152602001610397565b6103e96104163660046140c8565b610e8c565b607354610383906001600160401b031681565b6103c961043c3660046140ec565b610f45565b607b54610454906001600160a01b031681565b6040516103979190614139565b60745461045490600160401b90046001600160a01b031681565b6103f861048936600461414d565b61107a565b6103e961049c36600461414d565b6110c1565b60735461038390600160401b90046001600160401b031681565b60735461038390600160801b90046001600160401b031681565b607954610383906001600160401b031681565b6103e96104f636600461403b565b6111af565b60795461038390600160401b90046001600160401b031681565b6103e961052336600461414d565b61145f565b6103b361053636600461414d565b60756020526000908152604090205481565b6103c96114ce565b6103b361055e366004614221565b6114db565b6103e96105713660046142dd565b61151e565b6103b361058436600461414d565b60716020526000908152604090205481565b6103e96105a4366004614330565b611a4e565b6103e9611acd565b6103e96105bf36600461414d565b611ae1565b6103e96105d236600461434b565b611bee565b607454610383906001600160401b031681565b6103837f000000000000000000000000000000000000000000000000000000000000000081565b61065461061f3660046143e9565b6078602052600090815260409020805460018201546002909201546001600160401b0380831693600160401b90930416919084565b604080516001600160401b039586168152949093166020850152918301526060820152608001610397565b60795461038390600160c01b90046001600160401b031681565b6103e9611c89565b6033546001600160a01b0316610454565b6103e96106c036600461414d565b611d0d565b6103e96106d336600461403b565b611d37565b6103b3611e7a565b6103e96106ee36600461414d565b611f87565b6103e961070136600461414d565b611fbc565b6070546103b3565b6103e961071c36600461414d565b6120af565b6104547f000000000000000000000000000000000000000000000000000000000000000081565b6103e9610756366004614330565b61215e565b6103837f000000000000000000000000000000000000000000000000000000000000000081565b606f5461079790600160481b900461ffff1681565b60405161ffff9091168152602001610397565b6107e56107b836600461414d565b607260205260009081526040902080546001909101546001600160401b0380821691600160401b90041683565b604080519384526001600160401b039283166020850152911690820152606001610397565b6103e961081836600461414d565b6121d4565b6104547f000000000000000000000000000000000000000000000000000000000000000081565b6103e9610852366004614402565b6121e5565b6103836121fd565b6103e961086d366004614402565b61224a565b606f5461045490600160581b90046001600160a01b031681565b6104547f000000000000000000000000000000000000000000000000000000000000000081565b6103e96108c1366004614477565b6122b1565b6103e96108d4366004614529565b612629565b60795461038390600160801b90046001600160401b031681565b6103e9612973565b6103e961090936600461456a565b612a19565b6103e961091c36600461434b565b612a8b565b60735461038390600160c01b90046001600160401b031681565b6104547f000000000000000000000000000000000000000000000000000000000000000081565b6103e96109703660046145b7565b612bf3565b6103e9610983366004614330565b612e9c565b6103e9610996366004614330565b612f1b565b607a54610454906001600160a01b031681565b6103b360705481565b6103e96109c5366004614602565b612f91565b60008060006109d76121fd565b90506001600160401b03881615610a74576079546001600160401b039081169089161115610a205760405162461bcd60e51b8152600401610a179061462e565b60405180910390fd5b6001600160401b038089166000908152607860205260409020600281015481549094509091898116600160401b9092041614610a6e5760405162461bcd60e51b8152600401610a17906146ac565b50610ade565b6001600160401b038716600090815260756020526040902054915081610aac5760405162461bcd60e51b8152600401610a179061470c565b806001600160401b0316876001600160401b03161115610ade5760405162461bcd60e51b8152600401610a1790614763565b806001600160401b0316866001600160401b031611610b0f5760405162461bcd60e51b8152600401610a17906147d4565b6000610b1e8888888689610f45565b90506000600080516020614e01833981519152600283604051610b419190614851565b602060405180830381855afa158015610b5e573d6000803e3d6000fd5b5050506040513d601f19601f82011682018060405250810190610b81919061486d565b610b8b919061489c565b9a9950505050505050505050565b60778054610ba6906148b0565b80601f0160208091040260200160405190810160405280929190818152602001828054610bd2906148b0565b8015610c1f5780601f10610bf457610100808354040283529160200191610c1f565b820191906000526020600020905b815481529060010190602001808311610c0257829003601f168201915b505050505081565b610c2f612fb3565b600080610c3a6121fd565b90506001600160401b038a1615610cce576079546001600160401b03908116908b161115610c7a5760405162461bcd60e51b8152600401610a179061462e565b6001600160401b03808b1660009081526078602052604090206002810154815490945090918b8116600160401b9092041614610cc85760405162461bcd60e51b8152600401610a17906146ac565b50610d38565b6001600160401b038916600090815260756020526040902054915081610d065760405162461bcd60e51b8152600401610a179061470c565b806001600160401b0316896001600160401b03161115610d385760405162461bcd60e51b8152600401610a1790614763565b806001600160401b0316886001600160401b031611610d695760405162461bcd60e51b8152600401610a17906147d4565b6000610d788a8a8a868b610f45565b607480546001600160401b0319166001600160401b038c811691821790925560009081526075602052604090208990556079549192501615610dc557607980546001600160801b03191690555b6040516333d6247d60e01b8152600481018990527f00000000000000000000000000000000000000000000000000000000000000006001600160a01b0316906333d6247d90602401600060405180830381600087803b158015610e2757600080fd5b505af1158015610e3b573d6000803e3d6000fd5b50506040518981523392506001600160401b038c1691507f0d31fc6506398e9fae8f51f5d0c555cb72e90ed99cabee565d1b34de6c5abae39060200160405180910390a35050505050505050505050565b607a546001600160a01b03163314610eb757604051634755657960e01b815260040160405180910390fd5b6103e88161ffff161080610ed057506103ff8161ffff16115b15610eee57604051630984a67960e31b815260040160405180910390fd5b606f805461ffff60481b1916600160481b61ffff8416908102919091179091556040519081527f7019933d795eba185c180209e8ae8bffbaa25bcef293364687702c31f4d302c5906020015b60405180910390a150565b6001600160401b038086166000818152607260205260408082205493881682529020546060929115801590610f78575081155b15610f965760405163340c614f60e11b815260040160405180910390fd5b80610fb4576040516366385b5160e01b815260040160405180910390fd5b604080516001600160601b03193360601b166020820152603481019690965260548601929092526001600160c01b031960c098891b811660748701527f0000000000000000000000000000000000000000000000000000000000000000891b8116607c8701527f0000000000000000000000000000000000000000000000000000000000000000891b81166084870152608c86019490945260ac85015260cc840194909452509290931b90911660ec830152805180830360d401815260f4909201905290565b6079546001600160401b03828116600090815260786020526040812054909242926110b092600160801b90920481169116614900565b6001600160401b0316111592915050565b607a546001600160a01b031633146110ec57604051634755657960e01b815260040160405180910390fd5b62093a806001600160401b038216111561111957604051631d06e87960e01b815260040160405180910390fd5b606f5460ff16611159576079546001600160401b03600160c01b9091048116908216106111595760405163401636df60e01b815260040160405180910390fd5b607980546001600160c01b0316600160c01b6001600160401b038416908102919091179091556040519081527f1f4fa24c2e4bad19a7f3ec5c5485f70d46c798461c2e684f55bbd0fc661373a190602001610f3a565b606f5460ff16156111d357604051630bc011ff60e21b815260040160405180910390fd5b6079546001600160401b03878116600090815260726020526040902060010154429261120a92600160c01b90910481169116614900565b6001600160401b0316111561123257604051638a0704d360e01b815260040160405180910390fd5b6103e861123f8888614927565b6001600160401b0316111561126757604051635acfba9d60e11b815260040160405180910390fd5b611277888888888888888861300d565b611280866132ee565b607954600160801b90046001600160401b031660000361136357607480546001600160401b0319166001600160401b03888116918217909255600090815260756020526040902085905560795416156112e457607980546001600160801b03191690555b6040516333d6247d60e01b8152600481018690527f00000000000000000000000000000000000000000000000000000000000000006001600160a01b0316906333d6247d90602401600060405180830381600087803b15801561134657600080fd5b505af115801561135a573d6000803e3d6000fd5b50505050611414565b61136b6134e2565b607980546001600160401b031690600061138483614947565b82546001600160401b039182166101009390930a92830292820219169190911790915560408051608081018252428316815289831660208083019182528284018b8152606084018b8152607954871660009081526078909352949091209251835492518616600160401b026001600160801b03199093169516949094171781559151600183015551600290910155505b60405184815233906001600160401b038816907f9c72852172521097ba7e1482e6b44b351323df0155f97f4ea18fcec28e1f5966906020015b60405180910390a35050505050505050565b607454600160401b90046001600160a01b031633146114c257606f5460ff161561149c57604051630bc011ff60e21b815260040160405180910390fd5b6114a58161107a565b6114c257604051630674f25160e11b815260040160405180910390fd5b6114cb8161357e565b50565b60768054610ba6906148b0565b60008585805190602001208585856040516020016114fd95949392919061496d565b60405160208183030381529060405280519060200120905095945050505050565b606f5460ff161561154257604051630bc011ff60e21b815260040160405180910390fd5b606f54600160581b90046001600160a01b03163314611574576040516311e7be1560e01b815260040160405180910390fd5b8160008190036115975760405163cb591a5f60e01b815260040160405180910390fd5b6103e88111156115ba57604051635acfba9d60e11b815260040160405180910390fd5b6073546001600160401b03600160401b82048116600081815260726020526040812054838516949293600160801b909304909216919082905b868110156118a15760008a8a8381811061160f5761160f6149ac565b905060200281019061162191906149c2565b61162a906149d8565b805180516020909101206060820151919250906001600160401b031615611719578561165581614947565b9650506000818360200151846060015160405160200161167793929190614a64565b60408051601f1981840301815291815281516020928301206001600160401b038a166000908152607190935291205490915081146116c85760405163671ebaaf60e11b815260040160405180910390fd5b6001600160401b03808816600090815260716020526040808220919091556060850151908501519082169116101561171357604051633fbd5c3960e11b815260040160405180910390fd5b506117fe565b6020820151158015906117ba575060208201516040516312bd9b1960e11b815260048101919091527f00000000000000000000000000000000000000000000000000000000000000006001600160a01b03169063257b3632906024016020604051808303816000875af1158015611794573d6000803e3d6000fd5b505050506040513d601f19601f820116820180604052508101906117b8919061486d565b155b156117d8576040516373bd668d60e01b815260040160405180910390fd5b815151620493e010156117fe576040516328a69b1f60e21b815260040160405180910390fd5b876001600160401b031682604001516001600160401b0316108061182e57504282604001516001600160401b0316115b1561184c576040516375413c8b60e11b815260040160405180910390fd5b8481836020015184604001518d60405160200161186d95949392919061496d565b604051602081830303815290604052805190602001209450816040015197505050808061189990614a87565b9150506115f3565b506118ac8685614900565b6073549094506001600160401b03600160c01b909104811690841611156118e65760405163c630a00d60e01b815260040160405180910390fd5b60006118f28285614927565b611905906001600160401b031688614aa0565b60408051606081018252858152426001600160401b03908116602080840191825260738054600160401b9081900485168688019081528d861660008181526072909552979093209551865592516001909501805492519585166001600160801b03199384161795851684029590951790945583548c84169116179302929092179055909150828116908516146119bb576073805467ffffffffffffffff60801b1916600160801b6001600160401b038716021790555b611a063330836119ca60705490565b6119d49190614ab3565b6001600160a01b037f000000000000000000000000000000000000000000000000000000000000000016929190613717565b611a0e6134e2565b6040516001600160401b038616907f303446e6a8cb73c83dff421c0b1d5e5ce0719dab1bff13660fc254e58cc17fce90600090a250505050505050505050565b607a546001600160a01b03163314611a7957604051634755657960e01b815260040160405180910390fd5b606f8054600160581b600160f81b031916600160581b6001600160a01b038416021790556040517ff54144f9611984021529f814a1cb6a41e22c58351510a0d9f7e822618abb9cc090610f3a908390614139565b611ad5612fb3565b611adf6000613788565b565b6033546001600160a01b03163314611be6576000611afd6121fd565b9050806001600160401b0316826001600160401b031611611b315760405163812a372d60e01b815260040160405180910390fd5b6073546001600160401b03600160401b90910481169083161180611b7057506001600160401b0380831660009081526072602052604090206001015416155b15611b8e57604051632631700560e21b815260040160405180910390fd5b6001600160401b038083166000908152607260205260409020600101544291611bbc9162093a809116614900565b6001600160401b03161115611be45760405163692baaad60e11b815260040160405180910390fd5b505b6114cb6137da565b606f5460ff1615611c1257604051630bc011ff60e21b815260040160405180910390fd5b611c23898989898989898989613855565b6001600160401b0386166000908152607560209081526040918290205482519081529081018690527f1f44c21118c4603cfb4e1b621dbcfa2b73efcececee2b99b620b2953d33a7010910160405180910390a1611c7e6137da565b505050505050505050565b607b546001600160a01b03163314611cb45760405163d1ec4b2360e01b815260040160405180910390fd5b607b54607a80546001600160a01b0319166001600160a01b0390921691821790556040517f056dc487bbf0795d0bbb1b4f0af523a855503cff740bfb4d5475f7a90c091e8e91611d0391614139565b60405180910390a1565b611d15612fb3565b607480546001600160401b0319166001600160401b0392909216919091179055565b607454600160401b90046001600160a01b03163314611d695760405163bbcbbc0560e01b815260040160405180910390fd5b611d79888888888888888861300d565b607480546001600160401b0319166001600160401b0388811691821790925560009081526075602052604090208590556079541615611dc357607980546001600160801b03191690555b6040516333d6247d60e01b8152600481018690527f00000000000000000000000000000000000000000000000000000000000000006001600160a01b0316906333d6247d90602401600060405180830381600087803b158015611e2557600080fd5b505af1158015611e39573d6000803e3d6000fd5b50506040518681523392506001600160401b03891691507f0d31fc6506398e9fae8f51f5d0c555cb72e90ed99cabee565d1b34de6c5abae39060200161144d565b6000807f00000000000000000000000000000000000000000000000000000000000000006001600160a01b03166370a08231306040518263ffffffff1660e01b8152600401611ec99190614139565b602060405180830381865afa158015611ee6573d6000803e3d6000fd5b505050506040513d601f19601f82011682018060405250810190611f0a919061486d565b90506000611f166121fd565b6073546001600160401b03600160401b8204811691611f4691600160801b8204811691600160c01b900416614927565b611f509190614900565b611f5a9190614927565b6001600160401b0316905080600003611f765760009250505090565b611f808183614aca565b9250505090565b611f8f612fb3565b607380546001600160401b03909216600160401b0267ffffffffffffffff60401b19909216919091179055565b607a546001600160a01b03163314611fe757604051634755657960e01b815260040160405180910390fd5b62093a806001600160401b038216111561201457604051630cc9650760e41b815260040160405180910390fd5b606f5460ff16612054576079546001600160401b03600160801b9091048116908216106120545760405163048a05a960e41b815260040160405180910390fd5b6079805467ffffffffffffffff60801b1916600160801b6001600160401b038416908102919091179091556040519081527fc4121f4e22c69632ebb7cf1f462be0511dc034f999b52013eddfb24aab765c7590602001610f3a565b607a546001600160a01b031633146120da57604051634755657960e01b815260040160405180910390fd5b62015180816001600160401b0316111561210757604051631c0cfbfd60e31b815260040160405180910390fd5b606f805468ffffffffffffffff0019166101006001600160401b038416908102919091179091556040519081527f1b023231a1ab6b5d93992f168fb44498e1a7e64cef58daff6f1c216de6a68c2890602001610f3a565b607a546001600160a01b0316331461218957604051634755657960e01b815260040160405180910390fd5b607b80546001600160a01b0319166001600160a01b0383161790556040517fa5b56b7906fd0a20e3f35120dd8343db1e12e037a6c90111c7e42885e82a1ce690610f3a908390614139565b6121dc612fb3565b6114cb816132ee565b6121ed612fb3565b60776121f98282614b2c565b5050565b6079546000906001600160401b03161561223a57506079546001600160401b03908116600090815260786020526040902054600160401b90041690565b506074546001600160401b031690565b607a546001600160a01b0316331461227557604051634755657960e01b815260040160405180910390fd5b60766122818282614b2c565b507f6b8f723a4c7a5335cafae8a598a0aa0301be1387c037dccc085b62add6448b2081604051610f3a9190613ff9565b600054610100900460ff16158080156122d15750600054600160ff909116105b806122eb5750303b1580156122eb575060005460ff166001145b61234e5760405162461bcd60e51b815260206004820152602e60248201527f496e697469616c697a61626c653a20636f6e747261637420697320616c72656160448201526d191e481a5b9a5d1a585b1a5e995960921b6064820152608401610a17565b6000805460ff191660011790558015612371576000805461ff0019166101001790555b61237e6020880188614330565b607a80546001600160a01b0319166001600160a01b03929092169190911790556123ae6040880160208901614330565b606f80546001600160a01b0392909216600160581b02600160581b600160f81b03199092169190911790556123e96080880160608901614330565b607480546001600160a01b0392909216600160401b02600160401b600160e01b03199092169190911790556000805260756020527ff9e3fbf150b7a0077118526f473c53cb4734f166167e2c6213e3567dd390b4ad869055607661244d8682614b2c565b50607761245a8582614b2c565b5062093a8061246f6060890160408a0161414d565b6001600160401b0316111561249757604051630cc9650760e41b815260040160405180910390fd5b6124a7606088016040890161414d565b607980546001600160401b0392909216600160801b0267ffffffffffffffff60801b1990921691909117905562093a806124e760a0890160808a0161414d565b6001600160401b0316111561250f57604051631d06e87960e01b815260040160405180910390fd5b61251f60a088016080890161414d565b607980546001600160c01b0316600160c01b6001600160401b039390931692909202919091179055670de0b6b3a7640000607055606f80546affffffffffffffffffff0019166a03ea00000000000007080017905561257c613b79565b7fed7be53c9f1a96a481223b15568a5b1a475e01a74b347d6ca187c8bf0c078cd660007f000000000000000000000000000000000000000000000000000000000000000085856040516125d29493929190614c14565b60405180910390a18015612620576000805461ff0019169055604051600181527f7f26b83ff96e1f2b6a682f133852f6798a09c465da95921460cefb38474024989060200160405180910390a15b50505050505050565b606f5460ff161561264d57604051630bc011ff60e21b815260040160405180910390fd5b8060008190036126705760405163cb591a5f60e01b815260040160405180910390fd5b6103e881111561269357604051635acfba9d60e11b815260040160405180910390fd5b6073546001600160401b03600160c01b82048116916126bb918491600160801b900416614c4b565b11156126da5760405163c630a00d60e01b815260040160405180910390fd5b6073546001600160401b03600160401b820481166000818152607260205260408120549193600160801b9004909216915b8481101561287c576000878783818110612727576127276149ac565b90506020028101906127399190614c5e565b61274290614c74565b90508361274e81614947565b8251805160209182012081850151604080870151905194995091945060009361277a9386939101614a64565b60408051601f1981840301815291815281516020928301206001600160401b0389166000908152607190935291205490915081146127cb5760405163671ebaaf60e11b815260040160405180910390fd5b6001600160401b0386166000908152607160205260408120556127ef600189614aa0565b840361283157426206978084604001516128099190614900565b6001600160401b031611156128315760405163c44a082160e01b815260040160405180910390fd5b84828460200151423360405160200161284e95949392919061496d565b604051602081830303815290604052805190602001209450505050808061287490614a87565b91505061270b565b506128878484614900565b607380546001600160401b034281166001600160401b03199092168217808455604080516060810182528781526020808201958652600160401b9384900485168284019081528589166000818152607290935284832093518455965160019390930180549151871686026001600160801b031990921693871693909317179091558554938916600160801b0267ffffffffffffffff60801b1993860293909316600160401b600160c01b031990941693909317919091179093559151929550917f648a61dd2438f072f5a1960939abd30f37aea80d2e94c9792ad142d3e0a490a49190a2505050505050565b607a546001600160a01b0316331461299e57604051634755657960e01b815260040160405180910390fd5b7f00000000000000000000000000000000000000000000000000000000000000006001600160a01b031663dbc169766040518163ffffffff1660e01b8152600401600060405180830381600087803b1580156129f957600080fd5b505af1158015612a0d573d6000803e3d6000fd5b50505050611adf613bed565b612a21612fb3565b604080516060810182529384526001600160401b03928316602080860191825292841685830190815295841660009081526072909352912092518355516001909201805493518216600160401b026001600160801b03199094169290911691909117919091179055565b607454600160401b90046001600160a01b03163314612abd5760405163bbcbbc0560e01b815260040160405180910390fd5b612ace898989898989898989613855565b607480546001600160401b0319166001600160401b0388811691821790925560009081526075602052604090208590556079541615612b1857607980546001600160801b03191690555b6040516333d6247d60e01b8152600481018690527f00000000000000000000000000000000000000000000000000000000000000006001600160a01b0316906333d6247d90602401600060405180830381600087803b158015612b7a57600080fd5b505af1158015612b8e573d6000803e3d6000fd5b5050607980546001600160c01b031661127560c71b179055505060405184815233906001600160401b038816907fcc1b5520188bf1dd3e63f98164b577c4d75c11a619ddea692112f0d1aec4cf729060200160405180910390a3505050505050505050565b606f5460ff1615612c1757604051630bc011ff60e21b815260040160405180910390fd5b6000612c2260705490565b905081811115612c4557604051634732fdb560e01b815260040160405180910390fd5b620493e0831115612c69576040516328a69b1f60e21b815260040160405180910390fd5b612c9e6001600160a01b037f000000000000000000000000000000000000000000000000000000000000000016333084613717565b60007f00000000000000000000000000000000000000000000000000000000000000006001600160a01b0316633ed691ef6040518163ffffffff1660e01b8152600401602060405180830381865afa158015612cfe573d6000803e3d6000fd5b505050506040513d601f19601f82011682018060405250810190612d22919061486d565b60738054919250600160c01b9091046001600160401b0316906018612d4683614947565b91906101000a8154816001600160401b0302191690836001600160401b03160217905550508484604051612d7b929190614cef565b604051908190038120612d949183904290602001614a64565b60408051808303601f190181529181528151602092830120607354600160c01b90046001600160401b031660009081526071909352912055323303612e3857607354604080518381523360208201526060918101829052600091810191909152600160c01b9091046001600160401b0316907ff94bb37db835f1ab585ee00041849a09b12cd081d77fa15ca070757619cbc9319060800160405180910390a2612e95565b607360189054906101000a90046001600160401b03166001600160401b03167ff94bb37db835f1ab585ee00041849a09b12cd081d77fa15ca070757619cbc93182338888604051612e8c9493929190614cff565b60405180910390a25b5050505050565b607a546001600160a01b03163314612ec757604051634755657960e01b815260040160405180910390fd5b60748054600160401b600160e01b031916600160401b6001600160a01b038416021790556040517f61f8fec29495a3078e9271456f05fb0707fd4e41f7661865f80fc437d06681ca90610f3a908390614139565b612f23612fb3565b6001600160a01b038116612f885760405162461bcd60e51b815260206004820152602660248201527f4f776e61626c653a206e6577206f776e657220697320746865207a65726f206160448201526564647265737360d01b6064820152608401610a17565b6114cb81613788565b612f99612fb3565b6001600160401b0316600090815260756020526040902055565b6033546001600160a01b03163314611adf5760405162461bcd60e51b815260206004820181905260248201527f4f776e61626c653a2063616c6c6572206973206e6f7420746865206f776e65726044820152606401610a17565b6000806130186121fd565b90506001600160401b038a16156130ae576079546001600160401b03908116908b1611156130595760405163bb14c20560e01b815260040160405180910390fd5b6001600160401b03808b1660009081526078602052604090206002810154815490945090918b8116600160401b90920416146130a857604051632bd2e3e760e01b815260040160405180910390fd5b5061311a565b6001600160401b0389166000908152607560205260409020549150816130e7576040516324cbdcc360e11b815260040160405180910390fd5b806001600160401b0316896001600160401b0316111561311a57604051630f2b74f160e11b815260040160405180910390fd5b806001600160401b0316886001600160401b03161161314c5760405163b9b18f5760e01b815260040160405180910390fd5b600061315b8a8a8a868b610f45565b90506000600080516020614e0183398151915260028360405161317e9190614851565b602060405180830381855afa15801561319b573d6000803e3d6000fd5b5050506040513d601f19601f820116820180604052508101906131be919061486d565b6131c8919061489c565b6040805160208101825282815290516343753b4d60e01b81529192506001600160a01b037f000000000000000000000000000000000000000000000000000000000000000016916343753b4d91613228918b918b918b9190600401614d2a565b602060405180830381865afa158015613245573d6000803e3d6000fd5b505050506040513d601f19601f820116820180604052508101906132699190614d98565b613286576040516309bde33960e01b815260040160405180910390fd5b6132e033613294858d614927565b6001600160401b03166132a5611e7a565b6132af9190614ab3565b6001600160a01b037f0000000000000000000000000000000000000000000000000000000000000000169190613c45565b505050505050505050505050565b60006132f86121fd565b9050816000806133088484614927565b606f546001600160401b03918216925060009161332b9161010090041642614aa0565b90505b846001600160401b0316846001600160401b0316146133cb576001600160401b03808516600090815260726020526040902060018101549091168210156133bf57600181015461338e90600160401b90046001600160401b031686614927565b6133a1906001600160401b031685614c4b565b6001820154600160401b90046001600160401b0316955093506133c5565b506133cb565b5061332e565b60006133d78484614aa0565b90508084101561342e57838103600c81116133f257806133f5565b600c5b9050806103e80a81606f60099054906101000a900461ffff1661ffff160a607054028161342457613424614886565b046070555061349e565b808403600c811161343f5780613442565b600c5b90506000816103e80a82606f60099054906101000a900461ffff1661ffff160a670de0b6b3a7640000028161347957613479614886565b04905080607054670de0b6b3a7640000028161349757613497614886565b0460705550505b683635c9adc5dea0000060705411156134c357683635c9adc5dea00000607055612620565b633b9aca00607054101561262057633b9aca0060705550505050505050565b6079546001600160401b03600160401b8204811691161115611adf5760795460009061351f90600160401b90046001600160401b03166001614900565b905061352a8161107a565b156114cb5760795460009060029061354c9084906001600160401b0316614927565b6135569190614dba565b6135609083614900565b905061356b8161107a565b15613579576121f98161357e565b6121f9825b6079546001600160401b03600160401b90910481169082161115806135b157506079546001600160401b03908116908216115b156135cf5760405163d086b70b60e01b815260040160405180910390fd5b6001600160401b038181166000818152607860209081526040808320805460748054600160401b928390049098166001600160401b0319909816881790556002820154878652607590945293829020929092556079805467ffffffffffffffff60401b19169390940292909217909255600182015490516333d6247d60e01b815260048101919091529091907f00000000000000000000000000000000000000000000000000000000000000006001600160a01b0316906333d6247d90602401600060405180830381600087803b1580156136a957600080fd5b505af11580156136bd573d6000803e3d6000fd5b50505050826001600160401b0316816001600160401b03167f328d3c6c0fd6f1be0515e422f2d87e59f25922cbc2233568515a0c4bc3f8510e846002015460405161370a91815260200190565b60405180910390a3505050565b6040516001600160a01b03808516602483015283166044820152606481018290526137829085906323b872dd60e01b906084015b60408051601f198184030181529190526020810180516001600160e01b03166001600160e01b031990931692909217909152613c7a565b50505050565b603380546001600160a01b038381166001600160a01b0319831681179093556040519116919082907f8be0079c531659141344cd1fd0a4f28419497f9722a3daafe3b4186f6b6457e090600090a35050565b7f00000000000000000000000000000000000000000000000000000000000000006001600160a01b0316632072f6c56040518163ffffffff1660e01b8152600401600060405180830381600087803b15801561383557600080fd5b505af1158015613849573d6000803e3d6000fd5b50505050611adf613d4c565b60006001600160401b038a16156138e9576079546001600160401b03908116908b1611156138965760405163bb14c20560e01b815260040160405180910390fd5b506001600160401b03808a1660009081526078602052604090206002810154815490928a8116600160401b90920416146138e357604051632bd2e3e760e01b815260040160405180910390fd5b50613951565b506001600160401b03871660009081526075602052604090205480613921576040516324cbdcc360e11b815260040160405180910390fd5b6074546001600160401b03908116908916111561395157604051630f2b74f160e11b815260040160405180910390fd5b6079546001600160401b03908116908a1611806139805750896001600160401b0316896001600160401b031611155b806139a157506079546001600160401b03600160401b9091048116908a1611155b156139bf5760405163bfa7079f60e01b815260040160405180910390fd5b6001600160401b03898116600090815260786020526040902054600160401b9004811690881614613a03576040516332a2a77f60e01b815260040160405180910390fd5b6000613a12898989858a610f45565b90506000600080516020614e01833981519152600283604051613a359190614851565b602060405180830381855afa158015613a52573d6000803e3d6000fd5b5050506040513d601f19601f82011682018060405250810190613a75919061486d565b613a7f919061489c565b6040805160208101825282815290516343753b4d60e01b81529192506001600160a01b037f000000000000000000000000000000000000000000000000000000000000000016916343753b4d91613adf918a918a918a9190600401614d2a565b602060405180830381865afa158015613afc573d6000803e3d6000fd5b505050506040513d601f19601f82011682018060405250810190613b209190614d98565b613b3d576040516309bde33960e01b815260040160405180910390fd5b6001600160401b038b166000908152607860205260409020600201548790036132e05760405163a47276bd60e01b815260040160405180910390fd5b600054610100900460ff16613be45760405162461bcd60e51b815260206004820152602b60248201527f496e697469616c697a61626c653a20636f6e7472616374206973206e6f74206960448201526a6e697469616c697a696e6760a81b6064820152608401610a17565b611adf33613788565b606f5460ff16613c1057604051635386698160e01b815260040160405180910390fd5b606f805460ff191690556040517f1e5e34eea33501aecf2ebec9fe0e884a40804275ea7fe10b2ba084c8374308b390600090a1565b6040516001600160a01b038316602482015260448101829052613c7590849063a9059cbb60e01b9060640161374b565b505050565b6000613ccf826040518060400160405280602081526020017f5361666545524332303a206c6f772d6c6576656c2063616c6c206661696c6564815250856001600160a01b0316613da89092919063ffffffff16565b805190915015613c755780806020019051810190613ced9190614d98565b613c755760405162461bcd60e51b815260206004820152602a60248201527f5361666545524332303a204552433230206f7065726174696f6e20646964206e6044820152691bdd081cdd58d8d9595960b21b6064820152608401610a17565b606f5460ff1615613d7057604051630bc011ff60e21b815260040160405180910390fd5b606f805460ff191660011790556040517f2261efe5aef6fedc1fd1550b25facc9181745623049c7901287030b9ad1a549790600090a1565b6060613db78484600085613dbf565b949350505050565b606082471015613e205760405162461bcd60e51b815260206004820152602660248201527f416464726573733a20696e73756666696369656e742062616c616e636520666f6044820152651c8818d85b1b60d21b6064820152608401610a17565b600080866001600160a01b03168587604051613e3c9190614851565b60006040518083038185875af1925050503d8060008114613e79576040519150601f19603f3d011682016040523d82523d6000602084013e613e7e565b606091505b5091509150613e8f87838387613e9a565b979650505050505050565b60608315613f09578251600003613f02576001600160a01b0385163b613f025760405162461bcd60e51b815260206004820152601d60248201527f416464726573733a2063616c6c20746f206e6f6e2d636f6e74726163740000006044820152606401610a17565b5081613db7565b613db78383815115613f1e5781518083602001fd5b8060405162461bcd60e51b8152600401610a179190613ff9565b80356001600160401b0381168114613f4f57600080fd5b919050565b600080600080600060a08688031215613f6c57600080fd5b613f7586613f38565b9450613f8360208701613f38565b9350613f9160408701613f38565b94979396509394606081013594506080013592915050565b60005b83811015613fc4578181015183820152602001613fac565b50506000910152565b60008151808452613fe5816020860160208601613fa9565b601f01601f19169290920160200192915050565b60208152600061400c6020830184613fcd565b9392505050565b806040810183101561402457600080fd5b92915050565b806080810183101561402457600080fd5b6000806000806000806000806101a0898b03121561405857600080fd5b61406189613f38565b975061406f60208a01613f38565b965061407d60408a01613f38565b9550606089013594506080890135935061409a8a60a08b01614013565b92506140a98a60e08b0161402a565b91506140b98a6101608b01614013565b90509295985092959890939650565b6000602082840312156140da57600080fd5b813561ffff8116811461400c57600080fd5b600080600080600060a0868803121561410457600080fd5b61410d86613f38565b945061411b60208701613f38565b94979496505050506040830135926060810135926080909101359150565b6001600160a01b0391909116815260200190565b60006020828403121561415f57600080fd5b61400c82613f38565b634e487b7160e01b600052604160045260246000fd5b600082601f83011261418f57600080fd5b81356001600160401b03808211156141a9576141a9614168565b604051601f8301601f19908116603f011681019082821181831017156141d1576141d1614168565b816040528381528660208588010111156141ea57600080fd5b836020870160208301376000602085830101528094505050505092915050565b80356001600160a01b0381168114613f4f57600080fd5b600080600080600060a0868803121561423957600080fd5b8535945060208601356001600160401b0381111561425657600080fd5b6142628882890161417e565b9450506040860135925061427860608701613f38565b91506142866080870161420a565b90509295509295909350565b60008083601f8401126142a457600080fd5b5081356001600160401b038111156142bb57600080fd5b6020830191508360208260051b85010111156142d657600080fd5b9250929050565b6000806000604084860312156142f257600080fd5b83356001600160401b0381111561430857600080fd5b61431486828701614292565b909450925061432790506020850161420a565b90509250925092565b60006020828403121561434257600080fd5b61400c8261420a565b60008060008060008060008060006101c08a8c03121561436a57600080fd5b6143738a613f38565b985061438160208b01613f38565b975061438f60408b01613f38565b965061439d60608b01613f38565b955060808a0135945060a08a013593506143ba8b60c08c01614013565b92506143ca8b6101008c0161402a565b91506143da8b6101808c01614013565b90509295985092959850929598565b6000602082840312156143fb57600080fd5b5035919050565b60006020828403121561441457600080fd5b81356001600160401b0381111561442a57600080fd5b613db78482850161417e565b60008083601f84011261444857600080fd5b5081356001600160401b0381111561445f57600080fd5b6020830191508360208285010111156142d657600080fd5b60008060008060008086880361012081121561449257600080fd5b60a08112156144a057600080fd5b5086955060a0870135945060c08701356001600160401b03808211156144c557600080fd5b6144d18a838b0161417e565b955060e08901359150808211156144e757600080fd5b6144f38a838b0161417e565b945061010089013591508082111561450a57600080fd5b5061451789828a01614436565b979a9699509497509295939492505050565b6000806020838503121561453c57600080fd5b82356001600160401b0381111561455257600080fd5b61455e85828601614292565b90969095509350505050565b6000806000806080858703121561458057600080fd5b61458985613f38565b93506020850135925061459e60408601613f38565b91506145ac60608601613f38565b905092959194509250565b6000806000604084860312156145cc57600080fd5b83356001600160401b038111156145e257600080fd5b6145ee86828701614436565b909790965060209590950135949350505050565b6000806040838503121561461557600080fd5b8235915061462560208401613f38565b90509250929050565b60208082526058908201527f506f6c79676f6e5a6b45564d3a3a766572696679426174636865733a2070656e60408201527f64696e6753746174654e756d206d757374206265206c657373206f7220657175606082015277616c207468616e206c61737450656e64696e67537461746560401b608082015260a00190565b6020808252604c90820152600080516020614de183398151915260408201527f744e756d4261746368206d757374206d61746368207468652070656e64696e6760608201526b040e6e8c2e8ca40c4c2e8c6d60a31b608082015260a00190565b6020808252604390820152600080516020614de183398151915260408201527f744e756d426174636820737461746520726f6f7420646f6573206e6f742065786060820152621a5cdd60ea1b608082015260a00190565b6020808252605d90820152600080516020614de183398151915260408201527f744e756d4261746368206d757374206265206c657373206f7220657175616c2060608201527f7468616e2063757272656e744c61737456657269666965644261746368000000608082015260a00190565b60208082526057908201527f506f6c79676f6e5a6b45564d3a3a766572696679426174636865733a2066696e60408201527f616c4e65774261746368206d75737420626520626967676572207468616e20636060820152760eae4e4cadce898c2e6e8accae4d2ccd2cac884c2e8c6d604b1b608082015260a00190565b60008251614863818460208701613fa9565b9190910192915050565b60006020828403121561487f57600080fd5b5051919050565b634e487b7160e01b600052601260045260246000fd5b6000826148ab576148ab614886565b500690565b600181811c908216806148c457607f821691505b6020821081036148e457634e487b7160e01b600052602260045260246000fd5b50919050565b634e487b7160e01b600052601160045260246000fd5b6001600160401b03818116838216019080821115614920576149206148ea565b5092915050565b6001600160401b03828116828216039080821115614920576149206148ea565b60006001600160401b03808316818103614963576149636148ea565b6001019392505050565b9485526020850193909352604084019190915260c01b6001600160c01b0319166060808401919091521b6001600160601b0319166068820152607c0190565b634e487b7160e01b600052603260045260246000fd5b60008235607e1983360301811261486357600080fd5b6000608082360312156149ea57600080fd5b604051608081016001600160401b038282108183111715614a0d57614a0d614168565b816040528435915080821115614a2257600080fd5b50614a2f3682860161417e565b82525060208301356020820152614a4860408401613f38565b6040820152614a5960608401613f38565b606082015292915050565b928352602083019190915260c01b6001600160c01b031916604082015260480190565b600060018201614a9957614a996148ea565b5060010190565b81810381811115614024576140246148ea565b8082028115828204841417614024576140246148ea565b600082614ad957614ad9614886565b500490565b601f821115613c7557600081815260208120601f850160051c81016020861015614b055750805b601f850160051c820191505b81811015614b2457828155600101614b11565b505050505050565b81516001600160401b03811115614b4557614b45614168565b614b5981614b5384546148b0565b84614ade565b602080601f831160018114614b8e5760008415614b765750858301515b600019600386901b1c1916600185901b178555614b24565b600085815260208120601f198616915b82811015614bbd57888601518255948401946001909101908401614b9e565b5085821015614bdb5787850151600019600388901b60f8161c191681555b5050505050600190811b01905550565b81835281816020850137506000828201602090810191909152601f909101601f19169091010190565b60006001600160401b03808716835280861660208401525060606040830152614c41606083018486614beb565b9695505050505050565b80820180821115614024576140246148ea565b60008235605e1983360301811261486357600080fd5b600060608236031215614c8657600080fd5b604051606081016001600160401b038282108183111715614ca957614ca9614168565b816040528435915080821115614cbe57600080fd5b50614ccb3682860161417e565b82525060208301356020820152614ce460408401613f38565b604082015292915050565b8183823760009101908152919050565b8481526001600160a01b0384166020820152606060408201819052600090614c419083018486614beb565b61012081016040808784378083018660005b6002811015614d5957838284379183019190830190600101614d3c565b505050808560c08501375061010082018360005b6001811015614d8c578151835260209283019290910190600101614d6d565b50505095945050505050565b600060208284031215614daa57600080fd5b8151801515811461400c57600080fd5b60006001600160401b0380841680614dd457614dd4614886565b9216919091049291505056fe506f6c79676f6e5a6b45564d3a3a766572696679426174636865733a20696e6930644e72e131a029b85045b68181585d2833e84879b9709143e1f593f0000001a26469706673582212209e294f05eef615c3bfcfd0fb7459f702081a8e4075994ad64f9ca6c21bc41f2364736f6c63430008110033",
  "linkReferences": {},
  "deployedLinkReferences": {}
}