{
  "_format": "hh-sol-artifact-1",
  "contractName": "PolygonZkEVMMock",
  "sourceName": "contracts/mocks/PolygonZkEVMMock.sol",
  "abi": [
    {
      "anonymous": false,
      "inputs": [
        {
          "indexed": false,
          "internalType": "address",
          "name": "newAdmin",
          "type": "address"
        }
      ],
      "name": "AcceptAdminRole",
      "type": "event"
    },
    {
      "anonymous": false,
      "inputs": [
        {
          "indexed": true,
          "internalType": "uint64",
          "name": "numBatch",
          "type": "uint64"
        },
        {
          "indexed": false,
          "internalType": "bytes32",
          "name": "stateRoot",
          "type": "bytes32"
        },
        {
          "indexed": true,
          "internalType": "uint64",
          "name": "pendingStateNum",
          "type": "uint64"
        }
      ],
      "name": "ConsolidatePendingState",
      "type": "event"
    },
    {
      "anonymous": false,
      "inputs": [],
      "name": "EmergencyStateActivated",
      "type": "event"
    },
    {
      "anonymous": false,
      "inputs": [],
      "name": "EmergencyStateDeactivated",
      "type": "event"
    },
    {
      "anonymous": false,
      "inputs": [
        {
          "indexed": true,
          "internalType": "uint64",
          "name": "forceBatchNum",
          "type": "uint64"
        },
        {
          "indexed": false,
          "internalType": "bytes32",
          "name": "lastGlobalExitRoot",
          "type": "bytes32"
        },
        {
          "indexed": false,
          "internalType": "address",
          "name": "sequencer",
          "type": "address"
        },
        {
          "indexed": false,
          "internalType": "bytes",
          "name": "transactions",
          "type": "bytes"
        }
      ],
      "name": "ForceBatch",
      "type": "event"
    },
    {
      "anonymous": false,
      "inputs": [
        {
          "indexed": false,
          "internalType": "uint8",
          "name": "version",
          "type": "uint8"
        }
      ],
      "name": "Initialized",
      "type": "event"
    },
    {
      "anonymous": false,
      "inputs": [
        {
          "indexed": true,
          "internalType": "uint64",
          "name": "numBatch",
          "type": "uint64"
        },
        {
          "indexed": false,
          "internalType": "bytes32",
          "name": "stateRoot",
          "type": "bytes32"
        },
        {
          "indexed": true,
          "internalType": "address",
          "name": "aggregator",
          "type": "address"
        }
      ],
      "name": "OverridePendingState",
      "type": "event"
    },
    {
      "anonymous": false,
      "inputs": [
        {
          "indexed": true,
          "internalType": "address",
          "name": "previousOwner",
          "type": "address"
        },
        {
          "indexed": true,
          "internalType": "address",
          "name": "newOwner",
          "type": "address"
        }
      ],
      "name": "OwnershipTransferred",
      "type": "event"
    },
    {
      "anonymous": false,
      "inputs": [
        {
          "indexed": false,
          "internalType": "bytes32",
          "name": "storedStateRoot",
          "type": "bytes32"
        },
        {
          "indexed": false,
          "internalType": "bytes32",
          "name": "provedStateRoot",
          "type": "bytes32"
        }
      ],
      "name": "ProveNonDeterministicPendingState",
      "type": "event"
    },
    {
      "anonymous": false,
      "inputs": [
        {
          "indexed": true,
          "internalType": "uint64",
          "name": "numBatch",
          "type": "uint64"
        }
      ],
      "name": "SequenceBatches",
      "type": "event"
    },
    {
      "anonymous": false,
      "inputs": [
        {
          "indexed": true,
          "internalType": "uint64",
          "name": "numBatch",
          "type": "uint64"
        }
      ],
      "name": "SequenceForceBatches",
      "type": "event"
    },
    {
      "anonymous": false,
      "inputs": [
        {
          "indexed": false,
          "internalType": "bool",
          "name": "newForceBatchAllowed",
          "type": "bool"
        }
      ],
      "name": "SetForceBatchAllowed",
      "type": "event"
    },
    {
      "anonymous": false,
      "inputs": [
        {
          "indexed": false,
          "internalType": "uint16",
          "name": "newMultiplierBatchFee",
          "type": "uint16"
        }
      ],
      "name": "SetMultiplierBatchFee",
      "type": "event"
    },
    {
      "anonymous": false,
      "inputs": [
        {
          "indexed": false,
          "internalType": "uint64",
          "name": "newPendingStateTimeout",
          "type": "uint64"
        }
      ],
      "name": "SetPendingStateTimeout",
      "type": "event"
    },
    {
      "anonymous": false,
      "inputs": [
        {
          "indexed": false,
          "internalType": "address",
          "name": "newTrustedAggregator",
          "type": "address"
        }
      ],
      "name": "SetTrustedAggregator",
      "type": "event"
    },
    {
      "anonymous": false,
      "inputs": [
        {
          "indexed": false,
          "internalType": "uint64",
          "name": "newTrustedAggregatorTimeout",
          "type": "uint64"
        }
      ],
      "name": "SetTrustedAggregatorTimeout",
      "type": "event"
    },
    {
      "anonymous": false,
      "inputs": [
        {
          "indexed": false,
          "internalType": "address",
          "name": "newTrustedSequencer",
          "type": "address"
        }
      ],
      "name": "SetTrustedSequencer",
      "type": "event"
    },
    {
      "anonymous": false,
      "inputs": [
        {
          "indexed": false,
          "internalType": "string",
          "name": "newTrustedSequencerURL",
          "type": "string"
        }
      ],
      "name": "SetTrustedSequencerURL",
      "type": "event"
    },
    {
      "anonymous": false,
      "inputs": [
        {
          "indexed": false,
          "internalType": "uint64",
          "name": "newVeryBatchTimeTarget",
          "type": "uint64"
        }
      ],
      "name": "SetVeryBatchTimeTarget",
      "type": "event"
    },
    {
      "anonymous": false,
      "inputs": [
        {
          "indexed": false,
          "internalType": "address",
          "name": "newPendingAdmin",
          "type": "address"
        }
      ],
      "name": "TransferAdminRole",
      "type": "event"
    },
    {
      "anonymous": false,
      "inputs": [
        {
          "indexed": true,
          "internalType": "uint64",
          "name": "numBatch",
          "type": "uint64"
        },
        {
          "indexed": false,
          "internalType": "bytes32",
          "name": "stateRoot",
          "type": "bytes32"
        },
        {
          "indexed": true,
          "internalType": "address",
          "name": "aggregator",
          "type": "address"
        }
      ],
      "name": "TrustedVerifyBatches",
      "type": "event"
    },
    {
      "anonymous": false,
      "inputs": [
        {
          "indexed": true,
          "internalType": "uint64",
          "name": "numBatch",
          "type": "uint64"
        },
        {
          "indexed": false,
          "internalType": "bytes32",
          "name": "stateRoot",
          "type": "bytes32"
        },
        {
          "indexed": true,
          "internalType": "address",
          "name": "aggregator",
          "type": "address"
        }
      ],
      "name": "VerifyBatches",
      "type": "event"
    },
    {
      "inputs": [],
      "name": "FORCE_BATCH_TIMEOUT",
      "outputs": [
        {
          "internalType": "uint64",
          "name": "",
          "type": "uint64"
        }
      ],
      "stateMutability": "view",
      "type": "function"
    },
    {
      "inputs": [],
      "name": "HALT_AGGREGATION_TIMEOUT",
      "outputs": [
        {
          "internalType": "uint64",
          "name": "",
          "type": "uint64"
        }
      ],
      "stateMutability": "view",
      "type": "function"
    },
    {
      "inputs": [],
      "name": "MAX_BATCH_MULTIPLIER",
      "outputs": [
        {
          "internalType": "uint256",
          "name": "",
          "type": "uint256"
        }
      ],
      "stateMutability": "view",
      "type": "function"
    },
    {
      "inputs": [],
      "name": "MAX_TRANSACTIONS_BYTE_LENGTH",
      "outputs": [
        {
          "internalType": "uint256",
          "name": "",
          "type": "uint256"
        }
      ],
      "stateMutability": "view",
      "type": "function"
    },
    {
      "inputs": [],
      "name": "MAX_VERIFY_BATCHES",
      "outputs": [
        {
          "internalType": "uint64",
          "name": "",
          "type": "uint64"
        }
      ],
      "stateMutability": "view",
      "type": "function"
    },
    {
      "inputs": [],
      "name": "acceptAdminRole",
      "outputs": [],
      "stateMutability": "nonpayable",
      "type": "function"
    },
    {
      "inputs": [
        {
          "internalType": "uint64",
          "name": "sequencedBatchNum",
          "type": "uint64"
        }
      ],
      "name": "activateEmergencyState",
      "outputs": [],
      "stateMutability": "nonpayable",
      "type": "function"
    },
    {
      "inputs": [],
      "name": "admin",
      "outputs": [
        {
          "internalType": "address",
          "name": "",
          "type": "address"
        }
      ],
      "stateMutability": "view",
      "type": "function"
    },
    {
      "inputs": [],
      "name": "batchFee",
      "outputs": [
        {
          "internalType": "uint256",
          "name": "",
          "type": "uint256"
        }
      ],
      "stateMutability": "view",
      "type": "function"
    },
    {
      "inputs": [
        {
          "internalType": "uint64",
          "name": "",
          "type": "uint64"
        }
      ],
      "name": "batchNumToStateRoot",
      "outputs": [
        {
          "internalType": "bytes32",
          "name": "",
          "type": "bytes32"
        }
      ],
      "stateMutability": "view",
      "type": "function"
    },
    {
      "inputs": [],
      "name": "bridgeAddress",
      "outputs": [
        {
          "internalType": "contract IPolygonZkEVMBridge",
          "name": "",
          "type": "address"
        }
      ],
      "stateMutability": "view",
      "type": "function"
    },
    {
      "inputs": [
        {
          "internalType": "bytes32",
          "name": "currentAccInputHash",
          "type": "bytes32"
        },
        {
          "internalType": "bytes",
          "name": "transactions",
          "type": "bytes"
        },
        {
          "internalType": "bytes32",
          "name": "globalExitRoot",
          "type": "bytes32"
        },
        {
          "internalType": "uint64",
          "name": "timestamp",
          "type": "uint64"
        },
        {
          "internalType": "address",
          "name": "sequencerAddress",
          "type": "address"
        }
      ],
      "name": "calculateAccInputHash",
      "outputs": [
        {
          "internalType": "bytes32",
          "name": "",
          "type": "bytes32"
        }
      ],
      "stateMutability": "pure",
      "type": "function"
    },
    {
      "inputs": [],
      "name": "calculateRewardPerBatch",
      "outputs": [
        {
          "internalType": "uint256",
          "name": "",
          "type": "uint256"
        }
      ],
      "stateMutability": "view",
      "type": "function"
    },
    {
      "inputs": [],
      "name": "chainID",
      "outputs": [
        {
          "internalType": "uint64",
          "name": "",
          "type": "uint64"
        }
      ],
      "stateMutability": "view",
      "type": "function"
    },
    {
      "inputs": [
        {
          "internalType": "uint64",
          "name": "pendingStateNum",
          "type": "uint64"
        }
      ],
      "name": "consolidatePendingState",
      "outputs": [],
      "stateMutability": "nonpayable",
      "type": "function"
    },
    {
      "inputs": [],
      "name": "deactivateEmergencyState",
      "outputs": [],
      "stateMutability": "nonpayable",
      "type": "function"
    },
    {
      "inputs": [
        {
          "internalType": "bytes",
          "name": "transactions",
          "type": "bytes"
        },
        {
          "internalType": "uint256",
          "name": "maticAmount",
          "type": "uint256"
        }
      ],
      "name": "forceBatch",
      "outputs": [],
      "stateMutability": "nonpayable",
      "type": "function"
    },
    {
      "inputs": [],
      "name": "forceBatchAllowed",
      "outputs": [
        {
          "internalType": "bool",
          "name": "",
          "type": "bool"
        }
      ],
      "stateMutability": "view",
      "type": "function"
    },
    {
      "inputs": [
        {
          "internalType": "uint64",
          "name": "",
          "type": "uint64"
        }
      ],
      "name": "forcedBatches",
      "outputs": [
        {
          "internalType": "bytes32",
          "name": "",
          "type": "bytes32"
        }
      ],
      "stateMutability": "view",
      "type": "function"
    },
    {
      "inputs": [],
      "name": "getCurrentBatchFee",
      "outputs": [
        {
          "internalType": "uint256",
          "name": "",
          "type": "uint256"
        }
      ],
      "stateMutability": "view",
      "type": "function"
    },
    {
      "inputs": [
        {
          "internalType": "uint64",
          "name": "initNumBatch",
          "type": "uint64"
        },
        {
          "internalType": "uint64",
          "name": "finalNewBatch",
          "type": "uint64"
        },
        {
          "internalType": "bytes32",
          "name": "newLocalExitRoot",
          "type": "bytes32"
        },
        {
          "internalType": "bytes32",
          "name": "oldStateRoot",
          "type": "bytes32"
        },
        {
          "internalType": "bytes32",
          "name": "newStateRoot",
          "type": "bytes32"
        }
      ],
      "name": "getInputSnarkBytes",
      "outputs": [
        {
          "internalType": "bytes",
          "name": "",
          "type": "bytes"
        }
      ],
      "stateMutability": "view",
      "type": "function"
    },
    {
      "inputs": [],
      "name": "getLastVerifiedBatch",
      "outputs": [
        {
          "internalType": "uint64",
          "name": "",
          "type": "uint64"
        }
      ],
      "stateMutability": "view",
      "type": "function"
    },
    {
      "inputs": [
        {
          "internalType": "uint64",
          "name": "pendingStateNum",
          "type": "uint64"
        },
        {
          "internalType": "uint64",
          "name": "initNumBatch",
          "type": "uint64"
        },
        {
          "internalType": "uint64",
          "name": "finalNewBatch",
          "type": "uint64"
        },
        {
          "internalType": "bytes32",
          "name": "newLocalExitRoot",
          "type": "bytes32"
        },
        {
          "internalType": "bytes32",
          "name": "newStateRoot",
          "type": "bytes32"
        }
      ],
      "name": "getNextSnarkInput",
      "outputs": [
        {
          "internalType": "uint256",
          "name": "",
          "type": "uint256"
        }
      ],
      "stateMutability": "view",
      "type": "function"
    },
    {
      "inputs": [],
      "name": "globalExitRootManager",
      "outputs": [
        {
          "internalType": "contract IPolygonZkEVMGlobalExitRoot",
          "name": "",
          "type": "address"
        }
      ],
      "stateMutability": "view",
      "type": "function"
    },
    {
      "inputs": [
        {
          "internalType": "contract IPolygonZkEVMGlobalExitRoot",
          "name": "_globalExitRootManager",
          "type": "address"
        },
        {
          "internalType": "contract IERC20Upgradeable",
          "name": "_matic",
          "type": "address"
        },
        {
          "internalType": "contract IVerifierRollup",
          "name": "_rollupVerifier",
          "type": "address"
        },
        {
          "internalType": "contract IPolygonZkEVMBridge",
          "name": "_bridgeAddress",
          "type": "address"
        },
        {
          "components": [
            {
              "internalType": "address",
              "name": "admin",
              "type": "address"
            },
            {
              "internalType": "uint64",
              "name": "chainID",
              "type": "uint64"
            },
            {
              "internalType": "address",
              "name": "trustedSequencer",
              "type": "address"
            },
            {
              "internalType": "uint64",
              "name": "pendingStateTimeout",
              "type": "uint64"
            },
            {
              "internalType": "bool",
              "name": "forceBatchAllowed",
              "type": "bool"
            },
            {
              "internalType": "address",
              "name": "trustedAggregator",
              "type": "address"
            },
            {
              "internalType": "uint64",
              "name": "trustedAggregatorTimeout",
              "type": "uint64"
            }
          ],
          "internalType": "struct PolygonZkEVM.InitializePackedParameters",
          "name": "initializePackedParameters",
          "type": "tuple"
        },
        {
          "internalType": "bytes32",
          "name": "genesisRoot",
          "type": "bytes32"
        },
        {
          "internalType": "string",
          "name": "_trustedSequencerURL",
          "type": "string"
        },
        {
          "internalType": "string",
          "name": "_networkName",
          "type": "string"
        }
      ],
      "name": "initialize",
      "outputs": [],
      "stateMutability": "nonpayable",
      "type": "function"
    },
    {
      "inputs": [],
      "name": "isEmergencyState",
      "outputs": [
        {
          "internalType": "bool",
          "name": "",
          "type": "bool"
        }
      ],
      "stateMutability": "view",
      "type": "function"
    },
    {
      "inputs": [
        {
          "internalType": "uint64",
          "name": "pendingStateNum",
          "type": "uint64"
        }
      ],
      "name": "isPendingStateConsolidable",
      "outputs": [
        {
          "internalType": "bool",
          "name": "",
          "type": "bool"
        }
      ],
      "stateMutability": "view",
      "type": "function"
    },
    {
      "inputs": [],
      "name": "lastBatchSequenced",
      "outputs": [
        {
          "internalType": "uint64",
          "name": "",
          "type": "uint64"
        }
      ],
      "stateMutability": "view",
      "type": "function"
    },
    {
      "inputs": [],
      "name": "lastForceBatch",
      "outputs": [
        {
          "internalType": "uint64",
          "name": "",
          "type": "uint64"
        }
      ],
      "stateMutability": "view",
      "type": "function"
    },
    {
      "inputs": [],
      "name": "lastForceBatchSequenced",
      "outputs": [
        {
          "internalType": "uint64",
          "name": "",
          "type": "uint64"
        }
      ],
      "stateMutability": "view",
      "type": "function"
    },
    {
      "inputs": [],
      "name": "lastPendingState",
      "outputs": [
        {
          "internalType": "uint64",
          "name": "",
          "type": "uint64"
        }
      ],
      "stateMutability": "view",
      "type": "function"
    },
    {
      "inputs": [],
      "name": "lastPendingStateConsolidated",
      "outputs": [
        {
          "internalType": "uint64",
          "name": "",
          "type": "uint64"
        }
      ],
      "stateMutability": "view",
      "type": "function"
    },
    {
      "inputs": [],
      "name": "lastTimestamp",
      "outputs": [
        {
          "internalType": "uint64",
          "name": "",
          "type": "uint64"
        }
      ],
      "stateMutability": "view",
      "type": "function"
    },
    {
      "inputs": [],
      "name": "lastVerifiedBatch",
      "outputs": [
        {
          "internalType": "uint64",
          "name": "",
          "type": "uint64"
        }
      ],
      "stateMutability": "view",
      "type": "function"
    },
    {
      "inputs": [],
      "name": "matic",
      "outputs": [
        {
          "internalType": "contract IERC20Upgradeable",
          "name": "",
          "type": "address"
        }
      ],
      "stateMutability": "view",
      "type": "function"
    },
    {
      "inputs": [],
      "name": "multiplierBatchFee",
      "outputs": [
        {
          "internalType": "uint16",
          "name": "",
          "type": "uint16"
        }
      ],
      "stateMutability": "view",
      "type": "function"
    },
    {
      "inputs": [],
      "name": "networkName",
      "outputs": [
        {
          "internalType": "string",
          "name": "",
          "type": "string"
        }
      ],
      "stateMutability": "view",
      "type": "function"
    },
    {
      "inputs": [
        {
          "internalType": "uint64",
          "name": "initPendingStateNum",
          "type": "uint64"
        },
        {
          "internalType": "uint64",
          "name": "finalPendingStateNum",
          "type": "uint64"
        },
        {
          "internalType": "uint64",
          "name": "initNumBatch",
          "type": "uint64"
        },
        {
          "internalType": "uint64",
          "name": "finalNewBatch",
          "type": "uint64"
        },
        {
          "internalType": "bytes32",
          "name": "newLocalExitRoot",
          "type": "bytes32"
        },
        {
          "internalType": "bytes32",
          "name": "newStateRoot",
          "type": "bytes32"
        },
        {
          "internalType": "uint256[2]",
          "name": "proofA",
          "type": "uint256[2]"
        },
        {
          "internalType": "uint256[2][2]",
          "name": "proofB",
          "type": "uint256[2][2]"
        },
        {
          "internalType": "uint256[2]",
          "name": "proofC",
          "type": "uint256[2]"
        }
      ],
      "name": "overridePendingState",
      "outputs": [],
      "stateMutability": "nonpayable",
      "type": "function"
    },
    {
      "inputs": [],
      "name": "owner",
      "outputs": [
        {
          "internalType": "address",
          "name": "",
          "type": "address"
        }
      ],
      "stateMutability": "view",
      "type": "function"
    },
    {
      "inputs": [],
      "name": "pendingAdmin",
      "outputs": [
        {
          "internalType": "address",
          "name": "",
          "type": "address"
        }
      ],
      "stateMutability": "view",
      "type": "function"
    },
    {
      "inputs": [],
      "name": "pendingStateTimeout",
      "outputs": [
        {
          "internalType": "uint64",
          "name": "",
          "type": "uint64"
        }
      ],
      "stateMutability": "view",
      "type": "function"
    },
    {
      "inputs": [
        {
          "internalType": "uint256",
          "name": "",
          "type": "uint256"
        }
      ],
      "name": "pendingStateTransitions",
      "outputs": [
        {
          "internalType": "uint64",
          "name": "timestamp",
          "type": "uint64"
        },
        {
          "internalType": "uint64",
          "name": "lastVerifiedBatch",
          "type": "uint64"
        },
        {
          "internalType": "bytes32",
          "name": "exitRoot",
          "type": "bytes32"
        },
        {
          "internalType": "bytes32",
          "name": "stateRoot",
          "type": "bytes32"
        }
      ],
      "stateMutability": "view",
      "type": "function"
    },
    {
      "inputs": [
        {
          "internalType": "uint64",
          "name": "initPendingStateNum",
          "type": "uint64"
        },
        {
          "internalType": "uint64",
          "name": "finalPendingStateNum",
          "type": "uint64"
        },
        {
          "internalType": "uint64",
          "name": "initNumBatch",
          "type": "uint64"
        },
        {
          "internalType": "uint64",
          "name": "finalNewBatch",
          "type": "uint64"
        },
        {
          "internalType": "bytes32",
          "name": "newLocalExitRoot",
          "type": "bytes32"
        },
        {
          "internalType": "bytes32",
          "name": "newStateRoot",
          "type": "bytes32"
        },
        {
          "internalType": "uint256[2]",
          "name": "proofA",
          "type": "uint256[2]"
        },
        {
          "internalType": "uint256[2][2]",
          "name": "proofB",
          "type": "uint256[2][2]"
        },
        {
          "internalType": "uint256[2]",
          "name": "proofC",
          "type": "uint256[2]"
        }
      ],
      "name": "proveNonDeterministicPendingState",
      "outputs": [],
      "stateMutability": "nonpayable",
      "type": "function"
    },
    {
      "inputs": [],
      "name": "renounceOwnership",
      "outputs": [],
      "stateMutability": "nonpayable",
      "type": "function"
    },
    {
      "inputs": [],
      "name": "rollupVerifier",
      "outputs": [
        {
          "internalType": "contract IVerifierRollup",
          "name": "",
          "type": "address"
        }
      ],
      "stateMutability": "view",
      "type": "function"
    },
    {
      "inputs": [
        {
          "components": [
            {
              "internalType": "bytes",
              "name": "transactions",
              "type": "bytes"
            },
            {
              "internalType": "bytes32",
              "name": "globalExitRoot",
              "type": "bytes32"
            },
            {
              "internalType": "uint64",
              "name": "timestamp",
              "type": "uint64"
            },
            {
              "internalType": "uint64",
              "name": "minForcedTimestamp",
              "type": "uint64"
            }
          ],
          "internalType": "struct PolygonZkEVM.BatchData[]",
          "name": "batches",
          "type": "tuple[]"
        }
      ],
      "name": "sequenceBatches",
      "outputs": [],
      "stateMutability": "nonpayable",
      "type": "function"
    },
    {
      "inputs": [
        {
          "components": [
            {
              "internalType": "bytes",
              "name": "transactions",
              "type": "bytes"
            },
            {
              "internalType": "bytes32",
              "name": "globalExitRoot",
              "type": "bytes32"
            },
            {
              "internalType": "uint64",
              "name": "minForcedTimestamp",
              "type": "uint64"
            }
          ],
          "internalType": "struct PolygonZkEVM.ForcedBatchData[]",
          "name": "batches",
          "type": "tuple[]"
        }
      ],
      "name": "sequenceForceBatches",
      "outputs": [],
      "stateMutability": "nonpayable",
      "type": "function"
    },
    {
      "inputs": [
        {
          "internalType": "uint64",
          "name": "",
          "type": "uint64"
        }
      ],
      "name": "sequencedBatches",
      "outputs": [
        {
          "internalType": "bytes32",
          "name": "accInputHash",
          "type": "bytes32"
        },
        {
          "internalType": "uint64",
          "name": "sequencedTimestamp",
          "type": "uint64"
        },
        {
          "internalType": "uint64",
          "name": "previousLastBatchSequenced",
          "type": "uint64"
        }
      ],
      "stateMutability": "view",
      "type": "function"
    },
    {
      "inputs": [
        {
          "internalType": "bool",
          "name": "newForceBatchAllowed",
          "type": "bool"
        }
      ],
      "name": "setForceBatchAllowed",
      "outputs": [],
      "stateMutability": "nonpayable",
      "type": "function"
    },
    {
      "inputs": [
        {
          "internalType": "uint16",
          "name": "newMultiplierBatchFee",
          "type": "uint16"
        }
      ],
      "name": "setMultiplierBatchFee",
      "outputs": [],
      "stateMutability": "nonpayable",
      "type": "function"
    },
    {
      "inputs": [
        {
          "internalType": "string",
          "name": "_networkName",
          "type": "string"
        }
      ],
      "name": "setNetworkName",
      "outputs": [],
      "stateMutability": "nonpayable",
      "type": "function"
    },
    {
      "inputs": [
        {
          "internalType": "uint64",
          "name": "newPendingStateTimeout",
          "type": "uint64"
        }
      ],
      "name": "setPendingStateTimeout",
      "outputs": [],
      "stateMutability": "nonpayable",
      "type": "function"
    },
    {
      "inputs": [
        {
          "internalType": "uint64",
          "name": "_numBatch",
          "type": "uint64"
        }
      ],
      "name": "setSequencedBatch",
      "outputs": [],
      "stateMutability": "nonpayable",
      "type": "function"
    },
    {
      "inputs": [
        {
          "internalType": "uint64",
          "name": "batchNum",
          "type": "uint64"
        },
        {
          "internalType": "bytes32",
          "name": "accInputData",
          "type": "bytes32"
        },
        {
          "internalType": "uint64",
          "name": "timestamp",
          "type": "uint64"
        },
        {
          "internalType": "uint64",
          "name": "lastPendingStateConsolidated",
          "type": "uint64"
        }
      ],
      "name": "setSequencedBatches",
      "outputs": [],
      "stateMutability": "nonpayable",
      "type": "function"
    },
    {
      "inputs": [
        {
          "internalType": "bytes32",
          "name": "newStateRoot",
          "type": "bytes32"
        },
        {
          "internalType": "uint64",
          "name": "batchNum",
          "type": "uint64"
        }
      ],
      "name": "setStateRoot",
      "outputs": [],
      "stateMutability": "nonpayable",
      "type": "function"
    },
    {
      "inputs": [
        {
          "internalType": "address",
          "name": "newTrustedAggregator",
          "type": "address"
        }
      ],
      "name": "setTrustedAggregator",
      "outputs": [],
      "stateMutability": "nonpayable",
      "type": "function"
    },
    {
      "inputs": [
        {
          "internalType": "uint64",
          "name": "newTrustedAggregatorTimeout",
          "type": "uint64"
        }
      ],
      "name": "setTrustedAggregatorTimeout",
      "outputs": [],
      "stateMutability": "nonpayable",
      "type": "function"
    },
    {
      "inputs": [
        {
          "internalType": "address",
          "name": "newTrustedSequencer",
          "type": "address"
        }
      ],
      "name": "setTrustedSequencer",
      "outputs": [],
      "stateMutability": "nonpayable",
      "type": "function"
    },
    {
      "inputs": [
        {
          "internalType": "string",
          "name": "newTrustedSequencerURL",
          "type": "string"
        }
      ],
      "name": "setTrustedSequencerURL",
      "outputs": [],
      "stateMutability": "nonpayable",
      "type": "function"
    },
    {
      "inputs": [
        {
          "internalType": "uint64",
          "name": "_numBatch",
          "type": "uint64"
        }
      ],
      "name": "setVerifiedBatch",
      "outputs": [],
      "stateMutability": "nonpayable",
      "type": "function"
    },
    {
      "inputs": [
        {
          "internalType": "contract IVerifierRollup",
          "name": "_rollupVerifier",
          "type": "address"
        }
      ],
      "name": "setVerifier",
      "outputs": [],
      "stateMutability": "nonpayable",
      "type": "function"
    },
    {
      "inputs": [
        {
          "internalType": "uint64",
          "name": "newVeryBatchTimeTarget",
          "type": "uint64"
        }
      ],
      "name": "setVeryBatchTimeTarget",
      "outputs": [],
      "stateMutability": "nonpayable",
      "type": "function"
    },
    {
      "inputs": [
        {
          "internalType": "address",
          "name": "newPendingAdmin",
          "type": "address"
        }
      ],
      "name": "transferAdminRole",
      "outputs": [],
      "stateMutability": "nonpayable",
      "type": "function"
    },
    {
      "inputs": [
        {
          "internalType": "address",
          "name": "newOwner",
          "type": "address"
        }
      ],
      "name": "transferOwnership",
      "outputs": [],
      "stateMutability": "nonpayable",
      "type": "function"
    },
    {
      "inputs": [],
      "name": "trustedAggregator",
      "outputs": [
        {
          "internalType": "address",
          "name": "",
          "type": "address"
        }
      ],
      "stateMutability": "view",
      "type": "function"
    },
    {
      "inputs": [],
      "name": "trustedAggregatorTimeout",
      "outputs": [
        {
          "internalType": "uint64",
          "name": "",
          "type": "uint64"
        }
      ],
      "stateMutability": "view",
      "type": "function"
    },
    {
      "inputs": [],
      "name": "trustedSequencer",
      "outputs": [
        {
          "internalType": "address",
          "name": "",
          "type": "address"
        }
      ],
      "stateMutability": "view",
      "type": "function"
    },
    {
      "inputs": [],
      "name": "trustedSequencerURL",
      "outputs": [
        {
          "internalType": "string",
          "name": "",
          "type": "string"
        }
      ],
      "stateMutability": "view",
      "type": "function"
    },
    {
      "inputs": [
        {
          "internalType": "uint64",
          "name": "pendingStateNum",
          "type": "uint64"
        },
        {
          "internalType": "uint64",
          "name": "initNumBatch",
          "type": "uint64"
        },
        {
          "internalType": "uint64",
          "name": "finalNewBatch",
          "type": "uint64"
        },
        {
          "internalType": "bytes32",
          "name": "newLocalExitRoot",
          "type": "bytes32"
        },
        {
          "internalType": "bytes32",
          "name": "newStateRoot",
          "type": "bytes32"
        },
        {
          "internalType": "uint256[2]",
          "name": "proofA",
          "type": "uint256[2]"
        },
        {
          "internalType": "uint256[2][2]",
          "name": "proofB",
          "type": "uint256[2][2]"
        },
        {
          "internalType": "uint256[2]",
          "name": "proofC",
          "type": "uint256[2]"
        }
      ],
      "name": "trustedVerifyBatches",
      "outputs": [],
      "stateMutability": "nonpayable",
      "type": "function"
    },
    {
      "inputs": [
        {
          "internalType": "uint64",
          "name": "pendingStateNum",
          "type": "uint64"
        },
        {
          "internalType": "uint64",
          "name": "initNumBatch",
          "type": "uint64"
        },
        {
          "internalType": "uint64",
          "name": "finalNewBatch",
          "type": "uint64"
        },
        {
          "internalType": "bytes32",
          "name": "newLocalExitRoot",
          "type": "bytes32"
        },
        {
          "internalType": "bytes32",
          "name": "newStateRoot",
          "type": "bytes32"
        },
        {
          "internalType": "uint256[2]",
          "name": "proofA",
          "type": "uint256[2]"
        },
        {
          "internalType": "uint256[2][2]",
          "name": "proofB",
          "type": "uint256[2][2]"
        },
        {
          "internalType": "uint256[2]",
          "name": "proofC",
          "type": "uint256[2]"
        }
      ],
      "name": "trustedVerifyBatchesMock",
      "outputs": [],
      "stateMutability": "nonpayable",
      "type": "function"
    },
    {
      "inputs": [
        {
          "internalType": "uint64",
          "name": "newLastVerifiedBatch",
          "type": "uint64"
        }
      ],
      "name": "updateBatchFee",
      "outputs": [],
      "stateMutability": "nonpayable",
      "type": "function"
    },
    {
      "inputs": [
        {
          "internalType": "uint64",
          "name": "pendingStateNum",
          "type": "uint64"
        },
        {
          "internalType": "uint64",
          "name": "initNumBatch",
          "type": "uint64"
        },
        {
          "internalType": "uint64",
          "name": "finalNewBatch",
          "type": "uint64"
        },
        {
          "internalType": "bytes32",
          "name": "newLocalExitRoot",
          "type": "bytes32"
        },
        {
          "internalType": "bytes32",
          "name": "newStateRoot",
          "type": "bytes32"
        },
        {
          "internalType": "uint256[2]",
          "name": "proofA",
          "type": "uint256[2]"
        },
        {
          "internalType": "uint256[2][2]",
          "name": "proofB",
          "type": "uint256[2][2]"
        },
        {
          "internalType": "uint256[2]",
          "name": "proofC",
          "type": "uint256[2]"
        }
      ],
      "name": "verifyBatches",
      "outputs": [],
      "stateMutability": "nonpayable",
      "type": "function"
    },
    {
      "inputs": [],
      "name": "veryBatchTimeTarget",
      "outputs": [
        {
          "internalType": "uint64",
          "name": "",
          "type": "uint64"
        }
      ],
      "stateMutability": "view",
      "type": "function"
    }
  ],
  "bytecode": "0x608060405234801561001057600080fd5b5061613f80620000216000396000f3fe608060405234801561001057600080fd5b50600436106103c35760003560e01c806396dc3d3911610206578063cf1363061161012b578063e217cfd6116100c3578063f14916d611610087578063f14916d6146109b7578063f2fde38b146109ca578063f851a440146109dd578063f8b823e4146109f0578063fe16564f146109f957600080fd5b8063e217cfd61461095b578063e7a7ed0214610964578063e8bf92ed1461097e578063eaeb077b14610991578063edc41121146109a457600080fd5b8063cf136306146108ac578063cfa8ed47146108bf578063d02103ca146108d9578063d8d1091b146108ec578063d8f54db0146108ff578063d939b31514610913578063dbc169761461092d578063e0d1744114610935578063e11f3f181461094857600080fd5b8063ada8f9191161019e578063ada8f9191461079c578063adc879e9146107af578063afd23cbe146107c9578063b4d63f58146107f1578063b4f77ea914610851578063b6b0b09714610864578063c0cad3021461087e578063c0ed84e014610891578063c89e42df1461089957600080fd5b806396dc3d391461071657806399f5634e146107295780639b796760146107315780639c9f3dfe146107445780639eb831b9146107575780639f0d039d1461075f578063a3c573eb14610767578063aa58bad61461077a578063ab9fc5ef1461079257600080fd5b80634a910e6a116102ec5780637215541a116102845780637215541a1461061f57806375c508b3146106325780637fcb365314610645578063837a473814610658578063841b24d7146106c65780638b48931e146106e05780638c3d7301146106ea5780638c4a0af7146106f25780638da5cb5b1461070557600080fd5b80634a910e6a146105705780635392c5e014610583578063542028d5146105a35780635437988d146105ab578063574f649e146105be57806360943d6a146105d15780636b8616ce146105e45780636ff512cc14610604578063715018a61461061757600080fd5b80632d0889d31161035f5780632d0889d3146104b9578063383b3be8146104c3578063394218e9146104d65780633c158267146104e9578063423fa856146104fc5780634560526714610516578063458c0477146105305780634834a343146105435780634a1a89a71461055657600080fd5b80630eaa86ea146103c8578063107bf28c146103ee57806310a01a721461040357806315064c96146104185780631816b7e51461043557806319d8ac6114610448578063220d789914610473578063267822471461048657806329878983146104a6575b600080fd5b6103db6103d6366004614f17565b610a0c565b6040519081526020015b60405180910390f35b6103f6610bdb565b6040516103e59190614fc4565b610416610411366004615006565b610c69565b005b6065546104259060ff1681565b60405190151581526020016103e5565b610416610443366004615093565b610eb2565b60685461045b906001600160401b031681565b6040516001600160401b0390911681526020016103e5565b6103f66104813660046150b7565b610fd3565b607454610499906001600160a01b031681565b6040516103e59190615104565b606a54610499906001600160a01b031681565b6103db620493e081565b6104256104d1366004615118565b611174565b6104166104e4366004615118565b6111bb565b6104166104f736600461517e565b611377565b60685461045b90600160401b90046001600160401b031681565b60685461045b90600160801b90046001600160401b031681565b60725461045b906001600160401b031681565b610416610551366004615006565b611b53565b60725461045b90600160401b90046001600160401b031681565b61041661057e366004615118565b611e9b565b6103db610591366004615118565b606d6020526000908152604090205481565b6103f6611fd5565b6104166105b93660046151d4565b611fe2565b6103db6105cc366004615293565b61200c565b6104166105df366004615308565b61204f565b6103db6105f2366004615118565b60666020526000908152604090205481565b6104166106123660046151d4565b612423565b6104166124a1565b61041661062d366004615118565b6124b5565b6104166106403660046153df565b6126bc565b60695461045b906001600160401b031681565b61069b61066636600461547d565b6071602052600090815260409020805460018201546002909201546001600160401b0380831693600160401b90930416919084565b604080516001600160401b0395861681529490931660208501529183015260608201526080016103e5565b60725461045b90600160c01b90046001600160401b031681565b61045b62093a8081565b61041661274b565b6104166107003660046154a4565b612820565b6033546001600160a01b0316610499565b610416610724366004615118565b612897565b6103db6128c1565b61041661073f366004615118565b6129a9565b610416610752366004615118565b6129de565b6103db600c81565b6075546103db565b607054610499906001600160a01b031681565b60655461045b9061010090046001600160401b031681565b61045b6206978081565b6104166107aa3660046151d4565b612b8c565b606c5461045b90600160a81b90046001600160401b031681565b6065546107de90600160481b900461ffff1681565b60405161ffff90911681526020016103e5565b61082c6107ff366004615118565b606760205260009081526040902080546001909101546001600160401b0380821691600160401b90041683565b604080519384526001600160401b0392831660208501529116908201526060016103e5565b61041661085f366004615118565b612c01565b60655461049990600160581b90046001600160a01b031681565b61041661088c3660046154c1565b612c12565b61045b612c2a565b6104166108a73660046154c1565b612c77565b6104166108ba366004615118565b612cdd565b60695461049990600160401b90046001600160a01b031681565b606c54610499906001600160a01b031681565b6104166108fa36600461517e565b612d5e565b606c5461042590600160a01b900460ff1681565b60725461045b90600160801b90046001600160401b031681565b610416613242565b6104166109433660046154f5565b6132dc565b6104166109563660046153df565b61334e565b61045b6103e881565b60685461045b90600160c01b90046001600160401b031681565b606b54610499906001600160a01b031681565b61041661099f366004615542565b613492565b6104166109b2366004615006565b6137ca565b6104166109c53660046151d4565b6138e9565b6104166109d83660046151d4565b61395e565b607354610499906001600160a01b031681565b6103db60755481565b610416610a073660046155b9565b6139d4565b6000806000610a19612c2a565b90506001600160401b03881615610ab6576072546001600160401b039081169089161115610a625760405162461bcd60e51b8152600401610a59906155e5565b60405180910390fd5b6001600160401b038089166000908152607160205260409020600281015481549094509091898116600160401b9092041614610ab05760405162461bcd60e51b8152600401610a5990615663565b50610b20565b6001600160401b0387166000908152606d6020526040902054915081610aee5760405162461bcd60e51b8152600401610a59906156c3565b806001600160401b0316876001600160401b03161115610b205760405162461bcd60e51b8152600401610a599061571a565b806001600160401b0316866001600160401b031611610b515760405162461bcd60e51b8152600401610a599061578b565b6000610b608888888689610fd3565b905060006000805160206160ca833981519152600283604051610b839190615808565b602060405180830381855afa158015610ba0573d6000803e3d6000fd5b5050506040513d601f19601f82011682018060405250810190610bc39190615824565b610bcd9190615853565b9a9950505050505050505050565b606f8054610be890615867565b80601f0160208091040260200160405190810160405280929190818152602001828054610c1490615867565b8015610c615780601f10610c3657610100808354040283529160200191610c61565b820191906000526020600020905b815481529060010190602001808311610c4457829003601f168201915b505050505081565b610c716139f6565b600080610c7c612c2a565b90506001600160401b038a1615610d10576072546001600160401b03908116908b161115610cbc5760405162461bcd60e51b8152600401610a59906155e5565b6001600160401b03808b1660009081526071602052604090206002810154815490945090918b8116600160401b9092041614610d0a5760405162461bcd60e51b8152600401610a5990615663565b50610d7a565b6001600160401b0389166000908152606d6020526040902054915081610d485760405162461bcd60e51b8152600401610a59906156c3565b806001600160401b0316896001600160401b03161115610d7a5760405162461bcd60e51b8152600401610a599061571a565b806001600160401b0316886001600160401b031611610dab5760405162461bcd60e51b8152600401610a599061578b565b6000610dba8a8a8a868b610fd3565b606980546001600160401b0319166001600160401b038c81169182179092556000908152606d602052604090208990556072549192501615610e0757607280546001600160801b03191690555b606c546040516333d6247d60e01b8152600481018a90526001600160a01b03909116906333d6247d90602401600060405180830381600087803b158015610e4d57600080fd5b505af1158015610e61573d6000803e3d6000fd5b50506040518981523392506001600160401b038c1691507f0c0ce073a7d7b5850c04ccc4b20ee7d3179d5f57d0ac44399565792c0f72fce79060200160405180910390a35050505050505050505050565b6073546001600160a01b03163314610edc5760405162461bcd60e51b8152600401610a59906158a1565b6103e88161ffff1610158015610ef757506104008161ffff16105b610f7c5760405162461bcd60e51b815260206004820152604a60248201527f506f6c79676f6e5a6b45564d3a3a7365744d756c7469706c696572426174636860448201527f4665653a206e65774d756c7469706c696572426174636846656520696e636f72606482015269726563742072616e676560b01b608482015260a401610a59565b6065805461ffff60481b1916600160481b61ffff8416908102919091179091556040519081527f7019933d795eba185c180209e8ae8bffbaa25bcef293364687702c31f4d302c5906020015b60405180910390a150565b6001600160401b0380861660008181526067602052604080822054938816825290205460609291158061100557508115155b611079576040805162461bcd60e51b81526020600482015260248101919091527f506f6c79676f6e5a6b45564d3a3a676574496e707574536e61726b427974657360448201527f3a206f6c64416363496e7075744861736820646f6573206e6f742065786973746064820152608401610a59565b806110ee576040805162461bcd60e51b81526020600482015260248101919091527f506f6c79676f6e5a6b45564d3a3a676574496e707574536e61726b427974657360448201527f3a206e6577416363496e7075744861736820646f6573206e6f742065786973746064820152608401610a59565b606c54604080516001600160601b03193360601b166020820152603481019790975260548701939093526001600160c01b031960c0998a1b81166074880152600160a81b909104891b8116607c870152608486019490945260a485015260c4840194909452509290931b90911660e4830152805180830360cc01815260ec909201905290565b6072546001600160401b03828116600090815260716020526040812054909242926111aa92600160801b909204811691166158fa565b6001600160401b0316111592915050565b6073546001600160a01b031633146111e55760405162461bcd60e51b8152600401610a59906158a1565b62093a806001600160401b038216111561127e5760405162461bcd60e51b815260206004820152604e60248201527f506f6c79676f6e5a6b45564d3a3a73657454727573746564416767726567617460448201527f6f7254696d656f75743a20457863656564206d61782068616c7420616767726560648201526d19d85d1a5bdb881d1a5b595bdd5d60921b608482015260a401610a59565b60655460ff16611321576072546001600160401b03600160c01b9091048116908216106113215760405162461bcd60e51b8152602060048201526044602482018190527f506f6c79676f6e5a6b45564d3a3a736574547275737465644167677265676174908201527f6f7254696d656f75743a204e65772074696d656f7574206d757374206265206c60648201526337bbb2b960e11b608482015260a401610a59565b607280546001600160c01b0316600160c01b6001600160401b038416908102919091179091556040519081527f1f4fa24c2e4bad19a7f3ec5c5485f70d46c798461c2e684f55bbd0fc661373a190602001610fc8565b60655460ff161561139a5760405162461bcd60e51b8152600401610a5990615925565b606954600160401b90046001600160a01b031633146114215760405162461bcd60e51b815260206004820152603a60248201527f506f6c79676f6e5a6b45564d3a3a6f6e6c795472757374656453657175656e6360448201527f65723a204f6e6c7920747275737465642073657175656e6365720000000000006064820152608401610a59565b80806114955760405162461bcd60e51b815260206004820152603d60248201527f506f6c79676f6e5a6b45564d3a3a73657175656e6365426174636865733a204160448201527f74206c65617374206d7573742073657175656e636520312062617463680000006064820152608401610a59565b6103e8811061150e576040805162461bcd60e51b81526020600482015260248101919091527f506f6c79676f6e5a6b45564d3a3a73657175656e6365426174636865733a204360448201527f616e6e6f742073657175656e63652074686174206d616e7920626174636865736064820152608401610a59565b6068546001600160401b03600160401b82048116600081815260676020526040812054838516949293600160801b909304909216919082905b868110156119835760008989838181106115635761156361598d565b905060200281019061157591906159a3565b61157e906159b9565b805180516020909101206060820151919250906001600160401b03161561171457856115a981615a45565b965050600081836020015184606001516040516020016115cb93929190615a6b565b60408051601f1981840301815291815281516020928301206001600160401b038a1660009081526066909352912054909150811461165f5760405162461bcd60e51b815260206004820152603d60248201526000805160206160ea83398151915260448201527f6f7263656420626174636865732064617461206d757374206d617463680000006064820152608401610a59565b6001600160401b03808816600090815260666020526040808220919091556060850151908501519082169116101561170e5760405162461bcd60e51b815260206004820152605860248201526000805160206160ea83398151915260448201527f6f7263656420626174636865732074696d657374616d70206d757374206265206064820152773134b3b3b2b91037b91032b8bab0b6103a3430b71036b4b760411b608482015260a401610a59565b50611889565b6020820151158061179d5750606c5460208301516040516312bd9b1960e11b81526001600160a01b039092169163257b3632916117579160040190815260200190565b6020604051808303816000875af1158015611776573d6000803e3d6000fd5b505050506040513d601f19601f8201168201806040525081019061179a9190615824565b15155b61180f5760405162461bcd60e51b815260206004820152603a60248201527f506f6c79676f6e5a6b45564d3a3a73657175656e6365426174636865733a204760448201527f6c6f62616c206578697420726f6f74206d7573742065786973740000000000006064820152608401610a59565b815151620493e0116118895760405162461bcd60e51b815260206004820152603a60248201527f506f6c79676f6e5a6b45564d3a3a73657175656e6365426174636865733a205460448201527f72616e73616374696f6e73206279746573206f766572666c6f770000000000006064820152608401610a59565b876001600160401b031682604001516001600160401b0316101580156118bc57504282604001516001600160401b031611155b61192e5760405162461bcd60e51b815260206004820152603d60248201527f506f6c79676f6e5a6b45564d3a3a73657175656e6365426174636865733a205460448201527f696d657374616d70206d75737420626520696e736964652072616e67650000006064820152608401610a59565b8481836020015184604001513360405160200161194f959493929190615a8e565b604051602081830303815290604052805190602001209450816040015197505050808061197b90615acd565b915050611547565b5061198e86856158fa565b6068549094506001600160401b03600160c01b90910481169084161115611a035760405162461bcd60e51b815260206004820152603560248201526000805160206160ea8339815191526044820152746f7263652062617463686573206f766572666c6f7760581b6064820152608401610a59565b6000611a0f8285615ae6565b611a22906001600160401b031688615b0e565b60408051606081018252858152426001600160401b03908116602080840191825260688054600160401b9081900485168688019081528d861660008181526067909552979093209551865592516001909501805492519585166001600160801b03199384161795851684029590951790945583548c8416911617930292909217905590915082811690851614611ad8576068805467ffffffffffffffff60801b1916600160801b6001600160401b038716021790555b611b0c333083611ae760755490565b611af19190615b25565b606554600160581b90046001600160a01b0316929190613a50565b611b14613ac1565b6040516001600160401b038616907f303446e6a8cb73c83dff421c0b1d5e5ce0719dab1bff13660fc254e58cc17fce90600090a2505050505050505050565b60655460ff1615611b765760405162461bcd60e51b8152600401610a5990615925565b6072546001600160401b038781166000908152606760205260409020600101544292611bad92600160c01b909104811691166158fa565b6001600160401b03161115611c365760405162461bcd60e51b815260206004820152604360248201527f506f6c79676f6e5a6b45564d3a3a766572696679426174636865733a2054727560448201527f737465642061676772656761746f722074696d656f7574206e6f7420657870696064820152621c995960ea1b608482015260a401610a59565b6103e8611c438888615ae6565b6001600160401b031610611cbf5760405162461bcd60e51b815260206004820152603c60248201527f506f6c79676f6e5a6b45564d3a3a766572696679426174636865733a2043616e60448201527f6e6f74207665726966792074686174206d616e792062617463686573000000006064820152608401610a59565b611ccf8888888888888888613b61565b611cd886614052565b607254600160801b90046001600160401b0316600003611d9f57606980546001600160401b0319166001600160401b038881169182179092556000908152606d602052604090208590556072541615611d3c57607280546001600160801b03191690555b606c546040516333d6247d60e01b8152600481018790526001600160a01b03909116906333d6247d90602401600060405180830381600087803b158015611d8257600080fd5b505af1158015611d96573d6000803e3d6000fd5b50505050611e50565b611da7613ac1565b607280546001600160401b0316906000611dc083615a45565b82546001600160401b039182166101009390930a92830292820219169190911790915560408051608081018252428316815289831660208083019182528284018b8152606084018b8152607254871660009081526071909352949091209251835492518616600160401b026001600160801b03199093169516949094171781559151600183015551600290910155505b60405184815233906001600160401b038816907f9c72852172521097ba7e1482e6b44b351323df0155f97f4ea18fcec28e1f5966906020015b60405180910390a35050505050505050565b606a546001600160a01b03163314611fc95760655460ff1615611f315760405162461bcd60e51b815260206004820152604260248201527f506f6c79676f6e5a6b45564d3a3a636f6e736f6c696461746550656e64696e6760448201527f53746174653a206f6e6c79206966206e6f7420656d657267656e637920737461606482015261746560f01b608482015260a401610a59565b611f3a81611174565b611fc95760405162461bcd60e51b815260206004820152605460248201527f506f6c79676f6e5a6b45564d3a3a636f6e736f6c696461746550656e64696e6760448201527f53746174653a2050656e64696e67207374617465206973206e6f7420726561646064820152731e481d1bc818994818dbdb9cdbdb1a59185d195960621b608482015260a401610a59565b611fd281614238565b50565b606e8054610be890615867565b611fea6139f6565b606b80546001600160a01b0319166001600160a01b0392909216919091179055565b600085858051906020012085858560405160200161202e959493929190615a8e565b60405160208183030381529060405280519060200120905095945050505050565b600054610100900460ff161580801561206f5750600054600160ff909116105b806120895750303b158015612089575060005460ff166001145b6120ec5760405162461bcd60e51b815260206004820152602e60248201527f496e697469616c697a61626c653a20636f6e747261637420697320616c72656160448201526d191e481a5b9a5d1a585b1a5e995960921b6064820152608401610a59565b6000805460ff19166001179055801561210f576000805461ff0019166101001790555b606c80546001600160a01b03199081166001600160a01b038c81169190911790925560658054600160581b600160f81b031916600160581b8c851602179055606b805482168a84161790556070805490911691881691909117905561217760208601866151d4565b607380546001600160a01b0319166001600160a01b03929092169190911790556121a760608601604087016151d4565b606980546001600160a01b0392909216600160401b02600160401b600160e01b03199092169190911790556121e260c0860160a087016151d4565b606a80546001600160a01b0319166001600160a01b039290921691909117905560008052606d60209081527fda90043ba5b4096ba14704bc227ab0d3167da15b887e62ab2e76e37daa7113568590556122419060408701908701615118565b606c80546001600160401b0392909216600160a81b0267ffffffffffffffff60a81b1990921691909117905561227d60a08601608087016154a4565b606c8054911515600160a01b0260ff60a01b19909216919091179055606e6122a58482615b8a565b50606f6122b28382615b8a565b5062093a806122c76080870160608801615118565b6001600160401b031611156122ee5760405162461bcd60e51b8152600401610a5990615c49565b6122fe6080860160608701615118565b607280546001600160401b0392909216600160801b0267ffffffffffffffff60801b1990921691909117905562093a8061233e60e0870160c08801615118565b6001600160401b031611156123655760405162461bcd60e51b8152600401610a5990615c49565b61237560e0860160c08701615118565b607280546001600160c01b0316600160c01b6001600160401b039390931692909202919091179055670de0b6b3a7640000607555606580546affffffffffffffffffff0019166a03ea0000000000000708001790556123d2614408565b8015612418576000805461ff0019169055604051600181527f7f26b83ff96e1f2b6a682f133852f6798a09c465da95921460cefb38474024989060200160405180910390a15b505050505050505050565b6073546001600160a01b0316331461244d5760405162461bcd60e51b8152600401610a59906158a1565b60698054600160401b600160e01b031916600160401b6001600160a01b038416021790556040517ff54144f9611984021529f814a1cb6a41e22c58351510a0d9f7e822618abb9cc090610fc8908390615104565b6124a96139f6565b6124b36000614478565b565b6033546001600160a01b031633146126b45760006124d1612c2a565b9050806001600160401b0316826001600160401b0316116125485760405162461bcd60e51b815260206004820152603c602482015260008051602061604a83398151915260448201527f746174653a20426174636820616c7265616479207665726966696564000000006064820152608401610a59565b6068546001600160401b03600160401b90910481169083161180159061258a57506001600160401b038083166000908152606760205260409020600101541615155b6126035760405162461bcd60e51b8152602060048201526050602482015260008051602061604a83398151915260448201527f746174653a204261746368206e6f742073657175656e636564206f72206e6f7460648201526f20656e64206f662073657175656e636560801b608482015260a401610a59565b6001600160401b0380831660009081526067602052604090206001015442916126319162093a8091166158fa565b6001600160401b031611156126b25760405162461bcd60e51b815260206004820152604d602482015260008051602061604a83398151915260448201527f746174653a204167677265676174696f6e2068616c742074696d656f7574206960648201526c1cc81b9bdd08195e1c1a5c9959609a1b608482015260a401610a59565b505b611fd26144ca565b60655460ff16156126df5760405162461bcd60e51b8152600401610a5990615925565b6126f089898989898989898961453a565b6001600160401b0386166000908152606d60209081526040918290205482519081529081018690527f1f44c21118c4603cfb4e1b621dbcfa2b73efcececee2b99b620b2953d33a7010910160405180910390a16124186144ca565b6074546001600160a01b031633146127c75760405162461bcd60e51b815260206004820152603960248201527f506f6c79676f6e5a6b45564d3a3a61636365707441646d696e526f6c653a206360448201527830b63632b91034b9903737ba103832b73234b733a0b236b4b760391b6064820152608401610a59565b607454607380546001600160a01b0319166001600160a01b0390921691821790556040517f056dc487bbf0795d0bbb1b4f0af523a855503cff740bfb4d5475f7a90c091e8e9161281691615104565b60405180910390a1565b6073546001600160a01b0316331461284a5760405162461bcd60e51b8152600401610a59906158a1565b606c8054821515600160a01b0260ff60a01b199091161790556040517fbacda50a4a8575be1d91a7ebe29ee45056f3a94f12a2281eb6b43afa33bcefe690610fc890831515815260200190565b61289f6139f6565b606980546001600160401b0319166001600160401b0392909216919091179055565b6065546040516370a0823160e01b81526000918291600160581b9091046001600160a01b0316906370a08231906128fc903090600401615104565b602060405180830381865afa158015612919573d6000803e3d6000fd5b505050506040513d601f19601f8201168201806040525081019061293d9190615824565b90506000612949612c2a565b6068546001600160401b03600160401b820481169161297991600160801b8204811691600160c01b900416615ae6565b61298391906158fa565b61298d9190615ae6565b6001600160401b031690506129a28183615ca2565b9250505090565b6129b16139f6565b606880546001600160401b03909216600160401b0267ffffffffffffffff60401b19909216919091179055565b6073546001600160a01b03163314612a085760405162461bcd60e51b8152600401610a59906158a1565b62093a806001600160401b0382161115612a9c5760405162461bcd60e51b815260206004820152604960248201527f506f6c79676f6e5a6b45564d3a3a73657450656e64696e67537461746554696d60448201527f656f75743a20457863656564206d61782068616c74206167677265676174696f6064820152681b881d1a5b595bdd5d60ba1b608482015260a401610a59565b60655460ff16612b31576072546001600160401b03600160801b909104811690821610612b315760405162461bcd60e51b815260206004820152603f60248201527f506f6c79676f6e5a6b45564d3a3a73657450656e64696e67537461746554696d60448201527f656f75743a204e65772074696d656f7574206d757374206265206c6f776572006064820152608401610a59565b6072805467ffffffffffffffff60801b1916600160801b6001600160401b038416908102919091179091556040519081527fc4121f4e22c69632ebb7cf1f462be0511dc034f999b52013eddfb24aab765c7590602001610fc8565b6073546001600160a01b03163314612bb65760405162461bcd60e51b8152600401610a59906158a1565b607480546001600160a01b0319166001600160a01b0383161790556040517fa5b56b7906fd0a20e3f35120dd8343db1e12e037a6c90111c7e42885e82a1ce690610fc8908390615104565b612c096139f6565b611fd281614052565b612c1a6139f6565b606f612c268282615b8a565b5050565b6072546000906001600160401b031615612c6757506072546001600160401b03908116600090815260716020526040902054600160401b90041690565b506069546001600160401b031690565b6073546001600160a01b03163314612ca15760405162461bcd60e51b8152600401610a59906158a1565b606e612cad8282615b8a565b507f6b8f723a4c7a5335cafae8a598a0aa0301be1387c037dccc085b62add6448b2081604051610fc89190614fc4565b6073546001600160a01b03163314612d075760405162461bcd60e51b8152600401610a59906158a1565b6065805468ffffffffffffffff0019166101006001600160401b038416908102919091179091556040519081527f03a12f7e53d2a9e31a9e913d85c12c4c38feb92abe003c111329298af088437f90602001610fc8565b60655460ff1615612d815760405162461bcd60e51b8152600401610a5990615925565b606c54600160a01b900460ff161515600114612daf5760405162461bcd60e51b8152600401610a5990615cb6565b8080612e115760405162461bcd60e51b815260206004820152603f60248201526000805160206160aa83398151915260448201527f65733a204d75737420666f726365206174206c656173742031206261746368006064820152608401610a59565b6103e88110612e825760405162461bcd60e51b815260206004820152604360248201526000805160206160aa83398151915260448201527f65733a2043616e6e6f74207665726966792074686174206d616e79206261746360648201526268657360e81b608482015260a401610a59565b6068546001600160401b03600160c01b8204811691612eaa918491600160801b900416615d1f565b1115612f065760405162461bcd60e51b815260206004820152603760248201526000805160206160aa833981519152604482015276195cce88119bdc98d94818985d18da081a5b9d985b1a59604a1b6064820152608401610a59565b6068546001600160401b03600160401b820481166000818152606760205260408120549193600160801b9004909216915b8481101561314b576000878783818110612f5357612f5361598d565b9050602002810190612f659190615d37565b612f6e90615d4d565b905083612f7a81615a45565b82518051602091820120818501516040808701519051949950919450600093612fa69386939101615a6b565b60408051601f1981840301815291815281516020928301206001600160401b0389166000908152606690935291205490915081146130455760405162461bcd60e51b815260206004820152604260248201526000805160206160aa83398151915260448201527f65733a20466f7263656420626174636865732064617461206d757374206d61746064820152610c6d60f31b608482015260a401610a59565b6001600160401b038616600090815260666020526040812055613069600189615b0e565b8403613100574262069780846040015161308391906158fa565b6001600160401b031611156131005760405162461bcd60e51b815260206004820152604960248201526000805160206160aa83398151915260448201527f65733a20466f72636564206261746368206973206e6f7420696e2074696d656f6064820152681d5d081c195c9a5bd960ba1b608482015260a401610a59565b84828460200151423360405160200161311d959493929190615a8e565b604051602081830303815290604052805190602001209450505050808061314390615acd565b915050612f37565b5061315684846158fa565b606880546001600160401b034281166001600160401b03199092168217808455604080516060810182528781526020808201958652600160401b9384900485168284019081528589166000818152606790935284832093518455965160019390930180549151871686026001600160801b031990921693871693909317179091558554938916600160801b0267ffffffffffffffff60801b1993860293909316600160401b600160c01b031990941693909317919091179093559151929550917f648a61dd2438f072f5a1960939abd30f37aea80d2e94c9792ad142d3e0a490a49190a2505050505050565b6073546001600160a01b0316331461326c5760405162461bcd60e51b8152600401610a59906158a1565b607060009054906101000a90046001600160a01b03166001600160a01b031663dbc169766040518163ffffffff1660e01b8152600401600060405180830381600087803b1580156132bc57600080fd5b505af11580156132d0573d6000803e3d6000fd5b505050506124b3614b5c565b6132e46139f6565b604080516060810182529384526001600160401b03928316602080860191825292841685830190815295841660009081526067909352912092518355516001909201805493518216600160401b026001600160801b03199094169290911691909117919091179055565b606a546001600160a01b031633146133785760405162461bcd60e51b8152600401610a5990615dc8565b61338989898989898989898961453a565b606980546001600160401b0319166001600160401b038881169182179092556000908152606d6020526040902085905560725416156133d357607280546001600160801b03191690555b606c546040516333d6247d60e01b8152600481018790526001600160a01b03909116906333d6247d90602401600060405180830381600087803b15801561341957600080fd5b505af115801561342d573d6000803e3d6000fd5b5050607280546001600160c01b031661127560c71b179055505060405184815233906001600160401b038816907fcc1b5520188bf1dd3e63f98164b577c4d75c11a619ddea692112f0d1aec4cf729060200160405180910390a3505050505050505050565b60655460ff16156134b55760405162461bcd60e51b8152600401610a5990615925565b606c54600160a01b900460ff1615156001146134e35760405162461bcd60e51b8152600401610a5990615cb6565b60006134ee60755490565b9050818111156135535760405162461bcd60e51b815260206004820152602a60248201527f506f6c79676f6e5a6b45564d3a3a666f72636542617463683a204e6f7420656e6044820152696f756768206d6174696360b01b6064820152608401610a59565b620493e083106135c35760405162461bcd60e51b815260206004820152603560248201527f506f6c79676f6e5a6b45564d3a3a666f72636542617463683a205472616e73616044820152746374696f6e73206279746573206f766572666c6f7760581b6064820152608401610a59565b6065546135e290600160581b90046001600160a01b0316333084613a50565b606c5460408051633ed691ef60e01b815290516000926001600160a01b031691633ed691ef9160048083019260209291908290030181865afa15801561362c573d6000803e3d6000fd5b505050506040513d601f19601f820116820180604052508101906136509190615824565b60688054919250600160c01b9091046001600160401b031690601861367483615a45565b91906101000a8154816001600160401b0302191690836001600160401b031602179055505084846040516136a9929190615e25565b6040519081900381206136c29183904290602001615a6b565b60408051808303601f190181529181528151602092830120606854600160c01b90046001600160401b03166000908152606690935291205532330361376657606854604080518381523360208201526060918101829052600091810191909152600160c01b9091046001600160401b0316907ff94bb37db835f1ab585ee00041849a09b12cd081d77fa15ca070757619cbc9319060800160405180910390a26137c3565b606860189054906101000a90046001600160401b03166001600160401b03167ff94bb37db835f1ab585ee00041849a09b12cd081d77fa15ca070757619cbc931823388886040516137ba9493929190615e35565b60405180910390a25b5050505050565b606a546001600160a01b031633146137f45760405162461bcd60e51b8152600401610a5990615dc8565b6138048888888888888888613b61565b606980546001600160401b0319166001600160401b038881169182179092556000908152606d60205260409020859055607254161561384e57607280546001600160801b03191690555b606c546040516333d6247d60e01b8152600481018790526001600160a01b03909116906333d6247d90602401600060405180830381600087803b15801561389457600080fd5b505af11580156138a8573d6000803e3d6000fd5b50506040518681523392506001600160401b03891691507f0c0ce073a7d7b5850c04ccc4b20ee7d3179d5f57d0ac44399565792c0f72fce790602001611e89565b6073546001600160a01b031633146139135760405162461bcd60e51b8152600401610a59906158a1565b606a80546001600160a01b0319166001600160a01b0383161790556040517f61f8fec29495a3078e9271456f05fb0707fd4e41f7661865f80fc437d06681ca90610fc8908390615104565b6139666139f6565b6001600160a01b0381166139cb5760405162461bcd60e51b815260206004820152602660248201527f4f776e61626c653a206e6577206f776e657220697320746865207a65726f206160448201526564647265737360d01b6064820152608401610a59565b611fd281614478565b6139dc6139f6565b6001600160401b03166000908152606d6020526040902055565b6033546001600160a01b031633146124b35760405162461bcd60e51b815260206004820181905260248201527f4f776e61626c653a2063616c6c6572206973206e6f7420746865206f776e65726044820152606401610a59565b6040516001600160a01b0380851660248301528316604482015260648101829052613abb9085906323b872dd60e01b906084015b60408051601f198184030181529190526020810180516001600160e01b03166001600160e01b031990931692909217909152614c09565b50505050565b6072546001600160401b03600160401b82048116911611156124b357607254600090613afe90600160401b90046001600160401b031660016158fa565b9050613b0981611174565b15611fd257607254600090600290613b2b9084906001600160401b0316615ae6565b613b359190615e7c565b613b3f90836158fa565b9050613b4a81611174565b15613b5857612c2681614238565b612c2682614238565b600080613b6c612c2a565b90506001600160401b038a1615613cd2576072546001600160401b03908116908b161115613c245760405162461bcd60e51b815260206004820152605960248201527f506f6c79676f6e5a6b45564d3a3a5f766572696679426174636865733a20706560448201527f6e64696e6753746174654e756d206d757374206265206c657373206f7220657160648201527875616c207468616e206c61737450656e64696e67537461746560381b608482015260a401610a59565b6001600160401b03808b1660009081526071602052604090206002810154815490945090918b8116600160401b9092041614613ccc5760405162461bcd60e51b815260206004820152604d602482015260008051602061606a83398151915260448201527f69744e756d4261746368206d757374206d61746368207468652070656e64696e60648201526c0ce40e6e8c2e8ca40c4c2e8c6d609b1b608482015260a401610a59565b50613df8565b6001600160401b0389166000908152606d6020526040902054915081613d5c5760405162461bcd60e51b81526020600482015260446024820181905260008051602061606a833981519152908201527f69744e756d426174636820737461746520726f6f7420646f6573206e6f7420656064820152631e1a5cdd60e21b608482015260a401610a59565b806001600160401b0316896001600160401b03161115613df85760405162461bcd60e51b815260206004820152605e602482015260008051602061606a83398151915260448201527f69744e756d4261746368206d757374206265206c657373206f7220657175616c60648201527f207468616e2063757272656e744c617374566572696669656442617463680000608482015260a401610a59565b806001600160401b0316886001600160401b031611613ea05760405162461bcd60e51b815260206004820152605860248201527f506f6c79676f6e5a6b45564d3a3a5f766572696679426174636865733a20666960448201527f6e616c4e65774261746368206d75737420626520626967676572207468616e206064820152770c6eae4e4cadce898c2e6e8accae4d2ccd2cac884c2e8c6d60431b608482015260a401610a59565b6000613eaf8a8a8a868b610fd3565b905060006000805160206160ca833981519152600283604051613ed29190615808565b602060405180830381855afa158015613eef573d6000803e3d6000fd5b5050506040513d601f19601f82011682018060405250810190613f129190615824565b613f1c9190615853565b606b546040805160208101825283815290516343753b4d60e01b81529293506001600160a01b03909116916343753b4d91613f60918b918b918b9190600401615ea2565b602060405180830381865afa158015613f7d573d6000803e3d6000fd5b505050506040513d601f19601f82011682018060405250810190613fa19190615f1c565b6140015760405162461bcd60e51b815260206004820152602b60248201527f506f6c79676f6e5a6b45564d3a3a5f766572696679426174636865733a20496e60448201526a3b30b634b210383937b7b360a91b6064820152608401610a59565b6140443361400f858d615ae6565b6001600160401b03166140206128c1565b61402a9190615b25565b606554600160581b90046001600160a01b03169190614ce0565b505050505050505050505050565b600061405c612c2a565b90508160008061406c8484615ae6565b6001600160401b031690505b836001600160401b0316836001600160401b03161461411e576001600160401b038084166000908152606760205260409020606554600182015491926101009091048116916140c8911642615b0e565b11156141035760018101546140ed90600160401b90046001600160401b031685615ae6565b614100906001600160401b031684615d1f565b92505b60010154600160401b90046001600160401b03169250614078565b600061412a8383615b0e565b9050828110156141a45760006141408285615b0e565b9050600c81116141505780614153565b600c5b9050614160816003615b25565b61416b90600a61601d565b606554614184908390600160481b900461ffff1661601d565b6075546141919190615b25565b61419b9190615ca2565b60755550614230565b60006141b08483615b0e565b9050600c81116141c057806141c3565b600c5b905060006141d2826003615b25565b6141dd90600a61601d565b6065546141f6908490600160481b900461ffff1661601d565b6075546142039190615b25565b61420d9190615ca2565b9050806075546075546142209190615b25565b61422a9190615ca2565b60755550505b505050505050565b6072546001600160401b03600160401b909104811690821611801561426c57506072546001600160401b0390811690821611155b6142de5760405162461bcd60e51b815260206004820152603f60248201527f506f6c79676f6e5a6b45564d3a3a5f636f6e736f6c696461746550656e64696e60448201527f6753746174653a2070656e64696e6753746174654e756d20696e76616c6964006064820152608401610a59565b6001600160401b038181166000818152607160209081526040808320805460698054600160401b928390049098166001600160401b0319909816881790556002820154878652606d90945293829020929092556072805467ffffffffffffffff60401b19169390940292909217909255606c54600183015491516333d6247d60e01b815260048101929092529192916001600160a01b0316906333d6247d90602401600060405180830381600087803b15801561439a57600080fd5b505af11580156143ae573d6000803e3d6000fd5b50505050826001600160401b0316816001600160401b03167f328d3c6c0fd6f1be0515e422f2d87e59f25922cbc2233568515a0c4bc3f8510e84600201546040516143fb91815260200190565b60405180910390a3505050565b600054610100900460ff166144735760405162461bcd60e51b815260206004820152602b60248201527f496e697469616c697a61626c653a20636f6e7472616374206973206e6f74206960448201526a6e697469616c697a696e6760a81b6064820152608401610a59565b6124b3335b603380546001600160a01b038381166001600160a01b0319831681179093556040519116919082907f8be0079c531659141344cd1fd0a4f28419497f9722a3daafe3b4186f6b6457e090600090a35050565b607060009054906101000a90046001600160a01b03166001600160a01b0316632072f6c56040518163ffffffff1660e01b8152600401600060405180830381600087803b15801561451a57600080fd5b505af115801561452e573d6000803e3d6000fd5b505050506124b3614d10565b60006001600160401b038a16156146aa576072546001600160401b03908116908b1611156145f25760405162461bcd60e51b8152602060048201526065602482015260008051602061608a83398151915260448201527f696e6753746174653a2070656e64696e6753746174654e756d206d757374206260648201527f65206c657373206f7220657175616c207468616e206c61737450656e64696e67608482015264537461746560d81b60a482015260c401610a59565b506001600160401b03808a1660009081526071602052604090206002810154815490928a8116600160401b90920416146146a45760405162461bcd60e51b8152602060048201526059602482015260008051602061608a83398151915260448201527f696e6753746174653a20696e69744e756d4261746368206d757374206d6174636064820152780d040e8d0ca40e0cadcc8d2dcce40e6e8c2e8ca40c4c2e8c6d603b1b608482015260a401610a59565b506147e3565b506001600160401b0387166000908152606d60205260409020548061473e5760405162461bcd60e51b8152602060048201526050602482015260008051602061608a83398151915260448201527f696e6753746174653a20696e69744e756d426174636820737461746520726f6f60648201526f1d08191bd95cc81b9bdd08195e1a5cdd60821b608482015260a401610a59565b6069546001600160401b0390811690891611156147e35760405162461bcd60e51b8152602060048201526063602482015260008051602061608a83398151915260448201527f696e6753746174653a20696e69744e756d4261746368206d757374206265206c60648201527f657373206f7220657175616c207468616e206c617374566572696669656442616084820152620e8c6d60eb1b60a482015260c401610a59565b6072546001600160401b03908116908a16118015906148135750896001600160401b0316896001600160401b0316115b801561483457506072546001600160401b03600160401b9091048116908a16115b6148a55760405162461bcd60e51b8152602060048201526048602482015260008051602061608a83398151915260448201527f696e6753746174653a2066696e616c50656e64696e6753746174654e756d20696064820152671b98dbdc9c9958dd60c21b608482015260a401610a59565b6001600160401b03898116600090815260716020526040902054600160401b900481169088161461495c5760405162461bcd60e51b8152602060048201526061602482015260008051602061608a83398151915260448201527f696e6753746174653a2066696e616c4e65774261746368206d7573742062652060648201527f657175616c20746f2063757272656e744c6173745665726966696564426174636084820152600d60fb1b60a482015260c401610a59565b600061496b898989858a610fd3565b905060006000805160206160ca83398151915260028360405161498e9190615808565b602060405180830381855afa1580156149ab573d6000803e3d6000fd5b5050506040513d601f19601f820116820180604052508101906149ce9190615824565b6149d89190615853565b606b546040805160208101825283815290516343753b4d60e01b81529293506001600160a01b03909116916343753b4d91614a1c918a918a918a9190600401615ea2565b602060405180830381865afa158015614a39573d6000803e3d6000fd5b505050506040513d601f19601f82011682018060405250810190614a5d9190615f1c565b614ab75760405162461bcd60e51b8152602060048201526037602482015260008051602061608a83398151915260448201527634b733a9ba30ba329d1024b73b30b634b210383937b7b360491b6064820152608401610a59565b6001600160401b038b166000908152607160205260409020600201548790036140445760405162461bcd60e51b815260206004820152605b602482015260008051602061608a83398151915260448201527f696e6753746174653a2053746f72656420726f6f74206d75737420626520646960648201527f66666572656e74207468616e206e657720737461746520726f6f740000000000608482015260a401610a59565b60655460ff16614bd45760405162461bcd60e51b815260206004820152603b60248201527f456d657267656e63794d616e616765723a3a6966456d657267656e637953746160448201527f74653a206f6e6c7920696620656d657267656e637920737461746500000000006064820152608401610a59565b6065805460ff191690556040517f1e5e34eea33501aecf2ebec9fe0e884a40804275ea7fe10b2ba084c8374308b390600090a1565b6000614c5e826040518060400160405280602081526020017f5361666545524332303a206c6f772d6c6576656c2063616c6c206661696c6564815250856001600160a01b0316614d6b9092919063ffffffff16565b805190915015614cdb5780806020019051810190614c7c9190615f1c565b614cdb5760405162461bcd60e51b815260206004820152602a60248201527f5361666545524332303a204552433230206f7065726174696f6e20646964206e6044820152691bdd081cdd58d8d9595960b21b6064820152608401610a59565b505050565b6040516001600160a01b038316602482015260448101829052614cdb90849063a9059cbb60e01b90606401613a84565b60655460ff1615614d335760405162461bcd60e51b8152600401610a5990615925565b6065805460ff191660011790556040517f2261efe5aef6fedc1fd1550b25facc9181745623049c7901287030b9ad1a549790600090a1565b6060614d7a8484600085614d82565b949350505050565b606082471015614de35760405162461bcd60e51b815260206004820152602660248201527f416464726573733a20696e73756666696369656e742062616c616e636520666f6044820152651c8818d85b1b60d21b6064820152608401610a59565b600080866001600160a01b03168587604051614dff9190615808565b60006040518083038185875af1925050503d8060008114614e3c576040519150601f19603f3d011682016040523d82523d6000602084013e614e41565b606091505b5091509150614e5287838387614e5d565b979650505050505050565b60608315614ecc578251600003614ec5576001600160a01b0385163b614ec55760405162461bcd60e51b815260206004820152601d60248201527f416464726573733a2063616c6c20746f206e6f6e2d636f6e74726163740000006044820152606401610a59565b5081614d7a565b614d7a8383815115614ee15781518083602001fd5b8060405162461bcd60e51b8152600401610a599190614fc4565b80356001600160401b0381168114614f1257600080fd5b919050565b600080600080600060a08688031215614f2f57600080fd5b614f3886614efb565b9450614f4660208701614efb565b9350614f5460408701614efb565b94979396509394606081013594506080013592915050565b60005b83811015614f87578181015183820152602001614f6f565b83811115613abb5750506000910152565b60008151808452614fb0816020860160208601614f6c565b601f01601f19169290920160200192915050565b602081526000614fd76020830184614f98565b9392505050565b8060408101831015614fef57600080fd5b92915050565b8060808101831015614fef57600080fd5b6000806000806000806000806101a0898b03121561502357600080fd5b61502c89614efb565b975061503a60208a01614efb565b965061504860408a01614efb565b955060608901359450608089013593506150658a60a08b01614fde565b92506150748a60e08b01614ff5565b91506150848a6101608b01614fde565b90509295985092959890939650565b6000602082840312156150a557600080fd5b813561ffff81168114614fd757600080fd5b600080600080600060a086880312156150cf57600080fd5b6150d886614efb565b94506150e660208701614efb565b94979496505050506040830135926060810135926080909101359150565b6001600160a01b0391909116815260200190565b60006020828403121561512a57600080fd5b614fd782614efb565b60008083601f84011261514557600080fd5b5081356001600160401b0381111561515c57600080fd5b6020830191508360208260051b850101111561517757600080fd5b9250929050565b6000806020838503121561519157600080fd5b82356001600160401b038111156151a757600080fd5b6151b385828601615133565b90969095509350505050565b6001600160a01b0381168114611fd257600080fd5b6000602082840312156151e657600080fd5b8135614fd7816151bf565b634e487b7160e01b600052604160045260246000fd5b600082601f83011261521857600080fd5b81356001600160401b0380821115615232576152326151f1565b604051601f8301601f19908116603f0116810190828211818310171561525a5761525a6151f1565b8160405283815286602085880101111561527357600080fd5b836020870160208301376000602085830101528094505050505092915050565b600080600080600060a086880312156152ab57600080fd5b8535945060208601356001600160401b038111156152c857600080fd5b6152d488828901615207565b945050604086013592506152ea60608701614efb565b915060808601356152fa816151bf565b809150509295509295909350565b600080600080600080600080888a036101c081121561532657600080fd5b8935615331816151bf565b985060208a0135615341816151bf565b975060408a0135615351816151bf565b965060608a0135615361816151bf565b955060e0607f198201121561537557600080fd5b5060808901935061016089013592506101808901356001600160401b038082111561539f57600080fd5b6153ab8c838d01615207565b93506101a08b01359150808211156153c257600080fd5b506153cf8b828c01615207565b9150509295985092959890939650565b60008060008060008060008060006101c08a8c0312156153fe57600080fd5b6154078a614efb565b985061541560208b01614efb565b975061542360408b01614efb565b965061543160608b01614efb565b955060808a0135945060a08a0135935061544e8b60c08c01614fde565b925061545e8b6101008c01614ff5565b915061546e8b6101808c01614fde565b90509295985092959850929598565b60006020828403121561548f57600080fd5b5035919050565b8015158114611fd257600080fd5b6000602082840312156154b657600080fd5b8135614fd781615496565b6000602082840312156154d357600080fd5b81356001600160401b038111156154e957600080fd5b614d7a84828501615207565b6000806000806080858703121561550b57600080fd5b61551485614efb565b93506020850135925061552960408601614efb565b915061553760608601614efb565b905092959194509250565b60008060006040848603121561555757600080fd5b83356001600160401b038082111561556e57600080fd5b818601915086601f83011261558257600080fd5b81358181111561559157600080fd5b8760208285010111156155a357600080fd5b6020928301989097509590910135949350505050565b600080604083850312156155cc57600080fd5b823591506155dc60208401614efb565b90509250929050565b60208082526058908201527f506f6c79676f6e5a6b45564d3a3a766572696679426174636865733a2070656e60408201527f64696e6753746174654e756d206d757374206265206c657373206f7220657175606082015277616c207468616e206c61737450656e64696e67537461746560401b608082015260a00190565b6020808252604c9082015260008051602061602a83398151915260408201527f744e756d4261746368206d757374206d61746368207468652070656e64696e6760608201526b040e6e8c2e8ca40c4c2e8c6d60a31b608082015260a00190565b602080825260439082015260008051602061602a83398151915260408201527f744e756d426174636820737461746520726f6f7420646f6573206e6f742065786060820152621a5cdd60ea1b608082015260a00190565b6020808252605d9082015260008051602061602a83398151915260408201527f744e756d4261746368206d757374206265206c657373206f7220657175616c2060608201527f7468616e2063757272656e744c61737456657269666965644261746368000000608082015260a00190565b60208082526057908201527f506f6c79676f6e5a6b45564d3a3a766572696679426174636865733a2066696e60408201527f616c4e65774261746368206d75737420626520626967676572207468616e20636060820152760eae4e4cadce898c2e6e8accae4d2ccd2cac884c2e8c6d604b1b608082015260a00190565b6000825161581a818460208701614f6c565b9190910192915050565b60006020828403121561583657600080fd5b5051919050565b634e487b7160e01b600052601260045260246000fd5b6000826158625761586261583d565b500690565b600181811c9082168061587b57607f821691505b60208210810361589b57634e487b7160e01b600052602260045260246000fd5b50919050565b60208082526023908201527f506f6c79676f6e5a6b45564d3a3a6f6e6c7941646d696e3a204f6e6c7920616460408201526236b4b760e91b606082015260800190565b634e487b7160e01b600052601160045260246000fd5b60006001600160401b0380831681851680830382111561591c5761591c6158e4565b01949350505050565b60208082526042908201527f456d657267656e63794d616e616765723a3a69664e6f74456d657267656e637960408201527f53746174653a206f6e6c79206966206e6f7420656d657267656e637920737461606082015261746560f01b608082015260a00190565b634e487b7160e01b600052603260045260246000fd5b60008235607e1983360301811261581a57600080fd5b6000608082360312156159cb57600080fd5b604051608081016001600160401b0382821081831117156159ee576159ee6151f1565b816040528435915080821115615a0357600080fd5b50615a1036828601615207565b82525060208301356020820152615a2960408401614efb565b6040820152615a3a60608401614efb565b606082015292915050565b60006001600160401b03808316818103615a6157615a616158e4565b6001019392505050565b928352602083019190915260c01b6001600160c01b031916604082015260480190565b9485526020850193909352604084019190915260c01b6001600160c01b0319166060808401919091521b6001600160601b0319166068820152607c0190565b600060018201615adf57615adf6158e4565b5060010190565b60006001600160401b0383811690831681811015615b0657615b066158e4565b039392505050565b600082821015615b2057615b206158e4565b500390565b6000816000190483118215151615615b3f57615b3f6158e4565b500290565b601f821115614cdb57600081815260208120601f850160051c81016020861015615b6b5750805b601f850160051c820191505b8181101561423057828155600101615b77565b81516001600160401b03811115615ba357615ba36151f1565b615bb781615bb18454615867565b84615b44565b602080601f831160018114615bec5760008415615bd45750858301515b600019600386901b1c1916600185901b178555614230565b600085815260208120601f198616915b82811015615c1b57888601518255948401946001909101908401615bfc565b5085821015615c395787850151600019600388901b60f8161c191681555b5050505050600190811b01905550565b60208082526039908201527f506f6c79676f6e5a6b45564d3a3a696e697469616c697a653a20457863656564604082015278081a185b1d081859d9dc9959d85d1a5bdb881d1a5b595bdd5d603a1b606082015260800190565b600082615cb157615cb161583d565b500490565b60208082526043908201527f506f6c79676f6e5a6b45564d3a3a6973466f7263654261746368416c6c6f776560408201527f643a204f6e6c7920696620666f72636520626174636820697320617661696c61606082015262626c6560e81b608082015260a00190565b60008219821115615d3257615d326158e4565b500190565b60008235605e1983360301811261581a57600080fd5b600060608236031215615d5f57600080fd5b604051606081016001600160401b038282108183111715615d8257615d826151f1565b816040528435915080821115615d9757600080fd5b50615da436828601615207565b82525060208301356020820152615dbd60408401614efb565b604082015292915050565b6020808252603c908201527f506f6c79676f6e5a6b45564d3a3a6f6e6c79547275737465644167677265676160408201527f746f723a204f6e6c7920747275737465642061676772656761746f7200000000606082015260800190565b8183823760009101908152919050565b8481526001600160a01b03841660208201526060604082018190528101829052818360808301376000818301608090810191909152601f909201601f191601019392505050565b60006001600160401b0380841680615e9657615e9661583d565b92169190910492915050565b61012081016040808784376000838201818152879190815b6002811015615eda57848483379084018281529284019290600101615eba565b5050828760c0870137610100850181815286935091505b6001811015615f10578251825260209283019290910190600101615ef1565b50505095945050505050565b600060208284031215615f2e57600080fd5b8151614fd781615496565b600181815b80851115615f74578160001904821115615f5a57615f5a6158e4565b80851615615f6757918102915b93841c9390800290615f3e565b509250929050565b600082615f8b57506001614fef565b81615f9857506000614fef565b8160018114615fae5760028114615fb857615fd4565b6001915050614fef565b60ff841115615fc957615fc96158e4565b50506001821b614fef565b5060208310610133831016604e8410600b8410161715615ff7575081810a614fef565b6160018383615f39565b8060001904821115616015576160156158e4565b029392505050565b6000614fd78383615f7c56fe506f6c79676f6e5a6b45564d3a3a766572696679426174636865733a20696e69506f6c79676f6e5a6b45564d3a3a6163746976617465456d657267656e637953506f6c79676f6e5a6b45564d3a3a5f766572696679426174636865733a20696e506f6c79676f6e5a6b45564d3a3a5f70726f766544697374696e637450656e64506f6c79676f6e5a6b45564d3a3a73657175656e6365466f726365426174636830644e72e131a029b85045b68181585d2833e84879b9709143e1f593f0000001506f6c79676f6e5a6b45564d3a3a73657175656e6365426174636865733a2046a2646970667358221220fe970a9c0ad266c21e0252bc1b57b4b85153ef4cb88634e3331cc9321777e75e64736f6c634300080f0033",
  "linkReferences": {},
  "deployedLinkReferences": {}
}