{
  "_format": "hh-sol-artifact-1",
  "contractName": "PolygonRollupManager",
  "sourceName": "contracts/v2/PolygonRollupManager.sol",
  "abi": [
    {
      "inputs": [
        {
          "internalType": "contract IPolygonZkEVMGlobalExitRootV2",
          "name": "_globalExitRootManager",
          "type": "address"
        },
        {
          "internalType": "contract IERC20Upgradeable",
          "name": "_pol",
          "type": "address"
        },
        {
          "internalType": "contract IPolygonZkEVMBridge",
          "name": "_bridgeAddress",
          "type": "address"
        }
      ],
      "stateMutability": "nonpayable",
      "type": "constructor"
    },
    {
      "inputs": [],
      "name": "AccessControlOnlyCanRenounceRolesForSelf",
      "type": "error"
    },
    {
      "inputs": [],
      "name": "AddressDoNotHaveRequiredRole",
      "type": "error"
    },
    {
      "inputs": [],
      "name": "AllSequencedMustBeVerified",
      "type": "error"
    },
    {
      "inputs": [],
      "name": "AllzkEVMSequencedBatchesMustBeVerified",
      "type": "error"
    },
    {
      "inputs": [],
      "name": "BatchFeeOutOfRange",
      "type": "error"
    },
    {
      "inputs": [],
      "name": "CannotUpdateWithUnconsolidatedPendingState",
      "type": "error"
    },
    {
      "inputs": [],
      "name": "ChainIDAlreadyExist",
      "type": "error"
    },
    {
      "inputs": [],
      "name": "ChainIDOutOfRange",
      "type": "error"
    },
    {
      "inputs": [],
      "name": "ExceedMaxVerifyBatches",
      "type": "error"
    },
    {
      "inputs": [],
      "name": "FinalNumBatchBelowLastVerifiedBatch",
      "type": "error"
    },
    {
      "inputs": [],
      "name": "FinalNumBatchDoesNotMatchPendingState",
      "type": "error"
    },
    {
      "inputs": [],
      "name": "FinalNumSequenceBelowLastVerifiedSequence",
      "type": "error"
    },
    {
      "inputs": [],
      "name": "FinalNumSequenceDoesNotMatchPendingState",
      "type": "error"
    },
    {
      "inputs": [],
      "name": "FinalPendingStateNumInvalid",
      "type": "error"
    },
    {
      "inputs": [],
      "name": "HaltTimeoutNotExpired",
      "type": "error"
    },
    {
      "inputs": [],
      "name": "InitBatchMustMatchCurrentForkID",
      "type": "error"
    },
    {
      "inputs": [],
      "name": "InitNumBatchAboveLastVerifiedBatch",
      "type": "error"
    },
    {
      "inputs": [],
      "name": "InitNumBatchDoesNotMatchPendingState",
      "type": "error"
    },
    {
      "inputs": [],
      "name": "InitSequenceMustMatchCurrentForkID",
      "type": "error"
    },
    {
      "inputs": [],
      "name": "InitSequenceNumDoesNotMatchPendingState",
      "type": "error"
    },
    {
      "inputs": [],
      "name": "InvalidProof",
      "type": "error"
    },
    {
      "inputs": [],
      "name": "InvalidRangeBatchTimeTarget",
      "type": "error"
    },
    {
      "inputs": [],
      "name": "InvalidRangeMultiplierBatchFee",
      "type": "error"
    },
    {
      "inputs": [],
      "name": "InvalidRangeMultiplierZkGasPrice",
      "type": "error"
    },
    {
      "inputs": [],
      "name": "InvalidRangeSequenceTimeTarget",
      "type": "error"
    },
    {
      "inputs": [],
      "name": "MustSequenceSomeBatch",
      "type": "error"
    },
    {
      "inputs": [],
      "name": "MustSequenceSomeBlob",
      "type": "error"
    },
    {
      "inputs": [],
      "name": "NewAccInputHashDoesNotExist",
      "type": "error"
    },
    {
      "inputs": [],
      "name": "NewPendingStateTimeoutMustBeLower",
      "type": "error"
    },
    {
      "inputs": [],
      "name": "NewStateRootNotInsidePrime",
      "type": "error"
    },
    {
      "inputs": [],
      "name": "NewTrustedAggregatorTimeoutMustBeLower",
      "type": "error"
    },
    {
      "inputs": [],
      "name": "OldAccInputHashDoesNotExist",
      "type": "error"
    },
    {
      "inputs": [],
      "name": "OldStateRootDoesNotExist",
      "type": "error"
    },
    {
      "inputs": [],
      "name": "OnlyEmergencyState",
      "type": "error"
    },
    {
      "inputs": [],
      "name": "OnlyNotEmergencyState",
      "type": "error"
    },
    {
      "inputs": [],
      "name": "OnlyRollupAdmin",
      "type": "error"
    },
    {
      "inputs": [],
      "name": "PendingStateDoesNotExist",
      "type": "error"
    },
    {
      "inputs": [],
      "name": "PendingStateInvalid",
      "type": "error"
    },
    {
      "inputs": [],
      "name": "PendingStateNotConsolidable",
      "type": "error"
    },
    {
      "inputs": [],
      "name": "RollupAddressAlreadyExist",
      "type": "error"
    },
    {
      "inputs": [],
      "name": "RollupIDNotAscendingOrder",
      "type": "error"
    },
    {
      "inputs": [],
      "name": "RollupMustExist",
      "type": "error"
    },
    {
      "inputs": [],
      "name": "RollupTypeDoesNotExist",
      "type": "error"
    },
    {
      "inputs": [],
      "name": "RollupTypeObsolete",
      "type": "error"
    },
    {
      "inputs": [],
      "name": "SenderMustBeRollup",
      "type": "error"
    },
    {
      "inputs": [],
      "name": "StoredRootMustBeDifferentThanNewRoot",
      "type": "error"
    },
    {
      "inputs": [],
      "name": "TrustedAggregatorTimeoutNotExpired",
      "type": "error"
    },
    {
      "inputs": [],
      "name": "UpdateNotCompatible",
      "type": "error"
    },
    {
      "inputs": [],
      "name": "UpdateToSameRollupTypeID",
      "type": "error"
    },
    {
      "inputs": [],
      "name": "zkGasPriceOfRange",
      "type": "error"
    },
    {
      "anonymous": false,
      "inputs": [
        {
          "indexed": true,
          "internalType": "uint32",
          "name": "rollupID",
          "type": "uint32"
        },
        {
          "indexed": false,
          "internalType": "uint64",
          "name": "forkID",
          "type": "uint64"
        },
        {
          "indexed": false,
          "internalType": "address",
          "name": "rollupAddress",
          "type": "address"
        },
        {
          "indexed": false,
          "internalType": "uint64",
          "name": "chainID",
          "type": "uint64"
        },
        {
          "indexed": false,
          "internalType": "uint8",
          "name": "rollupCompatibilityID",
          "type": "uint8"
        },
        {
          "indexed": false,
          "internalType": "uint64",
          "name": "lastVerifiedSequenceBeforeUpgrade",
          "type": "uint64"
        }
      ],
      "name": "AddExistingRollup",
      "type": "event"
    },
    {
      "anonymous": false,
      "inputs": [
        {
          "indexed": true,
          "internalType": "uint32",
          "name": "rollupTypeID",
          "type": "uint32"
        },
        {
          "indexed": false,
          "internalType": "address",
          "name": "consensusImplementation",
          "type": "address"
        },
        {
          "indexed": false,
          "internalType": "address",
          "name": "verifier",
          "type": "address"
        },
        {
          "indexed": false,
          "internalType": "uint64",
          "name": "forkID",
          "type": "uint64"
        },
        {
          "indexed": false,
          "internalType": "uint8",
          "name": "rollupCompatibilityID",
          "type": "uint8"
        },
        {
          "indexed": false,
          "internalType": "bytes32",
          "name": "genesis",
          "type": "bytes32"
        },
        {
          "indexed": false,
          "internalType": "string",
          "name": "description",
          "type": "string"
        }
      ],
      "name": "AddNewRollupType",
      "type": "event"
    },
    {
      "anonymous": false,
      "inputs": [
        {
          "indexed": true,
          "internalType": "uint32",
          "name": "rollupID",
          "type": "uint32"
        },
        {
          "indexed": false,
          "internalType": "uint64",
          "name": "numSequence",
          "type": "uint64"
        },
        {
          "indexed": false,
          "internalType": "bytes32",
          "name": "stateRoot",
          "type": "bytes32"
        },
        {
          "indexed": false,
          "internalType": "bytes32",
          "name": "exitRoot",
          "type": "bytes32"
        },
        {
          "indexed": false,
          "internalType": "uint64",
          "name": "pendingStateNum",
          "type": "uint64"
        }
      ],
      "name": "ConsolidatePendingState",
      "type": "event"
    },
    {
      "anonymous": false,
      "inputs": [
        {
          "indexed": true,
          "internalType": "uint32",
          "name": "rollupID",
          "type": "uint32"
        },
        {
          "indexed": false,
          "internalType": "uint32",
          "name": "rollupTypeID",
          "type": "uint32"
        },
        {
          "indexed": false,
          "internalType": "address",
          "name": "rollupAddress",
          "type": "address"
        },
        {
          "indexed": false,
          "internalType": "uint64",
          "name": "chainID",
          "type": "uint64"
        },
        {
          "indexed": false,
          "internalType": "address",
          "name": "gasTokenAddress",
          "type": "address"
        }
      ],
      "name": "CreateNewRollup",
      "type": "event"
    },
    {
      "anonymous": false,
      "inputs": [],
      "name": "EmergencyStateActivated",
      "type": "event"
    },
    {
      "anonymous": false,
      "inputs": [],
      "name": "EmergencyStateDeactivated",
      "type": "event"
    },
    {
      "anonymous": false,
      "inputs": [
        {
          "indexed": false,
          "internalType": "uint8",
          "name": "version",
          "type": "uint8"
        }
      ],
      "name": "Initialized",
      "type": "event"
    },
    {
      "anonymous": false,
      "inputs": [
        {
          "indexed": true,
          "internalType": "uint32",
          "name": "rollupTypeID",
          "type": "uint32"
        }
      ],
      "name": "ObsoleteRollupType",
      "type": "event"
    },
    {
      "anonymous": false,
      "inputs": [
        {
          "indexed": true,
          "internalType": "uint32",
          "name": "rollupID",
          "type": "uint32"
        },
        {
          "indexed": false,
          "internalType": "uint128",
          "name": "zkGasLimit",
          "type": "uint128"
        },
        {
          "indexed": false,
          "internalType": "uint64",
          "name": "blobsSequenced",
          "type": "uint64"
        }
      ],
      "name": "OnSequence",
      "type": "event"
    },
    {
      "anonymous": false,
      "inputs": [
        {
          "indexed": true,
          "internalType": "uint32",
          "name": "rollupID",
          "type": "uint32"
        },
        {
          "indexed": false,
          "internalType": "uint64",
          "name": "numSequence",
          "type": "uint64"
        },
        {
          "indexed": false,
          "internalType": "bytes32",
          "name": "stateRoot",
          "type": "bytes32"
        },
        {
          "indexed": false,
          "internalType": "bytes32",
          "name": "exitRoot",
          "type": "bytes32"
        },
        {
          "indexed": false,
          "internalType": "address",
          "name": "aggregator",
          "type": "address"
        }
      ],
      "name": "OverridePendingState",
      "type": "event"
    },
    {
      "anonymous": false,
      "inputs": [
        {
          "indexed": false,
          "internalType": "bytes32",
          "name": "storedStateRoot",
          "type": "bytes32"
        },
        {
          "indexed": false,
          "internalType": "bytes32",
          "name": "provedStateRoot",
          "type": "bytes32"
        }
      ],
      "name": "ProveNonDeterministicPendingState",
      "type": "event"
    },
    {
      "anonymous": false,
      "inputs": [
        {
          "indexed": true,
          "internalType": "bytes32",
          "name": "role",
          "type": "bytes32"
        },
        {
          "indexed": true,
          "internalType": "bytes32",
          "name": "previousAdminRole",
          "type": "bytes32"
        },
        {
          "indexed": true,
          "internalType": "bytes32",
          "name": "newAdminRole",
          "type": "bytes32"
        }
      ],
      "name": "RoleAdminChanged",
      "type": "event"
    },
    {
      "anonymous": false,
      "inputs": [
        {
          "indexed": true,
          "internalType": "bytes32",
          "name": "role",
          "type": "bytes32"
        },
        {
          "indexed": true,
          "internalType": "address",
          "name": "account",
          "type": "address"
        },
        {
          "indexed": true,
          "internalType": "address",
          "name": "sender",
          "type": "address"
        }
      ],
      "name": "RoleGranted",
      "type": "event"
    },
    {
      "anonymous": false,
      "inputs": [
        {
          "indexed": true,
          "internalType": "bytes32",
          "name": "role",
          "type": "bytes32"
        },
        {
          "indexed": true,
          "internalType": "address",
          "name": "account",
          "type": "address"
        },
        {
          "indexed": true,
          "internalType": "address",
          "name": "sender",
          "type": "address"
        }
      ],
      "name": "RoleRevoked",
      "type": "event"
    },
    {
      "anonymous": false,
      "inputs": [
        {
          "indexed": false,
          "internalType": "contract IVerifierRollup",
          "name": "aggregateRollupVerifier",
          "type": "address"
        }
      ],
      "name": "SetAggregateRollupVerifier",
      "type": "event"
    },
    {
      "anonymous": false,
      "inputs": [
        {
          "indexed": false,
          "internalType": "uint16",
          "name": "newMultiplierSequenceFee",
          "type": "uint16"
        }
      ],
      "name": "SetMultiplierZkGasPrice",
      "type": "event"
    },
    {
      "anonymous": false,
      "inputs": [
        {
          "indexed": false,
          "internalType": "uint64",
          "name": "newPendingStateTimeout",
          "type": "uint64"
        }
      ],
      "name": "SetPendingStateTimeout",
      "type": "event"
    },
    {
      "anonymous": false,
      "inputs": [
        {
          "indexed": false,
          "internalType": "uint256",
          "name": "newSequenceFee",
          "type": "uint256"
        }
      ],
      "name": "SetSequenceFee",
      "type": "event"
    },
    {
      "anonymous": false,
      "inputs": [
        {
          "indexed": false,
          "internalType": "address",
          "name": "newTrustedAggregator",
          "type": "address"
        }
      ],
      "name": "SetTrustedAggregator",
      "type": "event"
    },
    {
      "anonymous": false,
      "inputs": [
        {
          "indexed": false,
          "internalType": "uint64",
          "name": "newTrustedAggregatorTimeout",
          "type": "uint64"
        }
      ],
      "name": "SetTrustedAggregatorTimeout",
      "type": "event"
    },
    {
      "anonymous": false,
      "inputs": [
        {
          "indexed": false,
          "internalType": "uint64",
          "name": "newVerifySequenceTimeTarget",
          "type": "uint64"
        }
      ],
      "name": "SetVerifySequenceTimeTarget",
      "type": "event"
    },
    {
      "anonymous": false,
      "inputs": [
        {
          "indexed": true,
          "internalType": "uint32",
          "name": "rollupID",
          "type": "uint32"
        },
        {
          "indexed": false,
          "internalType": "uint32",
          "name": "newRollupTypeID",
          "type": "uint32"
        },
        {
          "indexed": false,
          "internalType": "uint64",
          "name": "lastVerifiedSequenceBeforeUpgrade",
          "type": "uint64"
        }
      ],
      "name": "UpdateRollup",
      "type": "event"
    },
    {
      "anonymous": false,
      "inputs": [
        {
          "indexed": true,
          "internalType": "uint32",
          "name": "rollupID",
          "type": "uint32"
        },
        {
          "indexed": false,
          "internalType": "uint64",
          "name": "sequenceNum",
          "type": "uint64"
        },
        {
          "indexed": false,
          "internalType": "bytes32",
          "name": "stateRoot",
          "type": "bytes32"
        },
        {
          "indexed": false,
          "internalType": "bytes32",
          "name": "exitRoot",
          "type": "bytes32"
        },
        {
          "indexed": true,
          "internalType": "address",
          "name": "aggregator",
          "type": "address"
        }
      ],
      "name": "VerifySequences",
      "type": "event"
    },
    {
      "anonymous": false,
      "inputs": [
        {
          "indexed": true,
          "internalType": "address",
          "name": "aggregator",
          "type": "address"
        }
      ],
      "name": "VerifySequencesMultiProof",
      "type": "event"
    },
    {
      "anonymous": false,
      "inputs": [
        {
          "indexed": true,
          "internalType": "uint32",
          "name": "rollupID",
          "type": "uint32"
        },
        {
          "indexed": false,
          "internalType": "uint64",
          "name": "numSequence",
          "type": "uint64"
        },
        {
          "indexed": false,
          "internalType": "bytes32",
          "name": "stateRoot",
          "type": "bytes32"
        },
        {
          "indexed": false,
          "internalType": "bytes32",
          "name": "exitRoot",
          "type": "bytes32"
        },
        {
          "indexed": true,
          "internalType": "address",
          "name": "aggregator",
          "type": "address"
        }
      ],
      "name": "VerifySequencesTrustedAggregator",
      "type": "event"
    },
    {
      "anonymous": false,
      "inputs": [
        {
          "indexed": true,
          "internalType": "address",
          "name": "aggregator",
          "type": "address"
        }
      ],
      "name": "VerifySequencesTrustedAggregatorMultiProof",
      "type": "event"
    },
    {
      "inputs": [],
      "name": "DEFAULT_ADMIN_ROLE",
      "outputs": [
        {
          "internalType": "bytes32",
          "name": "",
          "type": "bytes32"
        }
      ],
      "stateMutability": "view",
      "type": "function"
    },
    {
      "inputs": [],
      "name": "ZK_GAS_LIMIT_BATCH",
      "outputs": [
        {
          "internalType": "uint64",
          "name": "",
          "type": "uint64"
        }
      ],
      "stateMutability": "view",
      "type": "function"
    },
    {
      "inputs": [],
      "name": "activateEmergencyState",
      "outputs": [],
      "stateMutability": "nonpayable",
      "type": "function"
    },
    {
      "inputs": [
        {
          "internalType": "contract IPolygonRollupBaseFeijoa",
          "name": "rollupAddress",
          "type": "address"
        },
        {
          "internalType": "contract IVerifierRollup",
          "name": "verifier",
          "type": "address"
        },
        {
          "internalType": "uint64",
          "name": "forkID",
          "type": "uint64"
        },
        {
          "internalType": "uint64",
          "name": "chainID",
          "type": "uint64"
        },
        {
          "internalType": "bytes32",
          "name": "genesis",
          "type": "bytes32"
        },
        {
          "internalType": "uint8",
          "name": "rollupCompatibilityID",
          "type": "uint8"
        }
      ],
      "name": "addExistingRollup",
      "outputs": [],
      "stateMutability": "nonpayable",
      "type": "function"
    },
    {
      "inputs": [
        {
          "internalType": "address",
          "name": "consensusImplementation",
          "type": "address"
        },
        {
          "internalType": "contract IVerifierRollup",
          "name": "verifier",
          "type": "address"
        },
        {
          "internalType": "uint64",
          "name": "forkID",
          "type": "uint64"
        },
        {
          "internalType": "uint8",
          "name": "rollupCompatibilityID",
          "type": "uint8"
        },
        {
          "internalType": "bytes32",
          "name": "genesis",
          "type": "bytes32"
        },
        {
          "internalType": "string",
          "name": "description",
          "type": "string"
        }
      ],
      "name": "addNewRollupType",
      "outputs": [],
      "stateMutability": "nonpayable",
      "type": "function"
    },
    {
      "inputs": [],
      "name": "aggregateRollupVerifier",
      "outputs": [
        {
          "internalType": "contract IVerifierRollup",
          "name": "",
          "type": "address"
        }
      ],
      "stateMutability": "view",
      "type": "function"
    },
    {
      "inputs": [],
      "name": "bridgeAddress",
      "outputs": [
        {
          "internalType": "contract IPolygonZkEVMBridge",
          "name": "",
          "type": "address"
        }
      ],
      "stateMutability": "view",
      "type": "function"
    },
    {
      "inputs": [],
      "name": "calculateRewardPerZkGas",
      "outputs": [
        {
          "internalType": "uint256",
          "name": "",
          "type": "uint256"
        }
      ],
      "stateMutability": "view",
      "type": "function"
    },
    {
      "inputs": [
        {
          "internalType": "uint64",
          "name": "chainID",
          "type": "uint64"
        }
      ],
      "name": "chainIDToRollupID",
      "outputs": [
        {
          "internalType": "uint32",
          "name": "rollupID",
          "type": "uint32"
        }
      ],
      "stateMutability": "view",
      "type": "function"
    },
    {
      "inputs": [
        {
          "internalType": "uint32",
          "name": "rollupID",
          "type": "uint32"
        },
        {
          "internalType": "uint64",
          "name": "pendingStateNum",
          "type": "uint64"
        }
      ],
      "name": "consolidatePendingState",
      "outputs": [],
      "stateMutability": "nonpayable",
      "type": "function"
    },
    {
      "inputs": [
        {
          "internalType": "uint32",
          "name": "rollupTypeID",
          "type": "uint32"
        },
        {
          "internalType": "uint64",
          "name": "chainID",
          "type": "uint64"
        },
        {
          "internalType": "address",
          "name": "admin",
          "type": "address"
        },
        {
          "internalType": "address",
          "name": "sequencer",
          "type": "address"
        },
        {
          "internalType": "address",
          "name": "gasTokenAddress",
          "type": "address"
        },
        {
          "internalType": "string",
          "name": "sequencerURL",
          "type": "string"
        },
        {
          "internalType": "string",
          "name": "networkName",
          "type": "string"
        }
      ],
      "name": "createNewRollup",
      "outputs": [],
      "stateMutability": "nonpayable",
      "type": "function"
    },
    {
      "inputs": [],
      "name": "deactivateEmergencyState",
      "outputs": [],
      "stateMutability": "nonpayable",
      "type": "function"
    },
    {
      "inputs": [],
      "name": "getForcedZkGasPrice",
      "outputs": [
        {
          "internalType": "uint256",
          "name": "",
          "type": "uint256"
        }
      ],
      "stateMutability": "view",
      "type": "function"
    },
    {
      "inputs": [
        {
          "internalType": "uint32",
          "name": "rollupID",
          "type": "uint32"
        }
      ],
      "name": "getLastVerifiedSequence",
      "outputs": [
        {
          "internalType": "uint64",
          "name": "",
          "type": "uint64"
        }
      ],
      "stateMutability": "view",
      "type": "function"
    },
    {
      "inputs": [
        {
          "internalType": "bytes32",
          "name": "role",
          "type": "bytes32"
        }
      ],
      "name": "getRoleAdmin",
      "outputs": [
        {
          "internalType": "bytes32",
          "name": "",
          "type": "bytes32"
        }
      ],
      "stateMutability": "view",
      "type": "function"
    },
    {
      "inputs": [],
      "name": "getRollupExitRoot",
      "outputs": [
        {
          "internalType": "bytes32",
          "name": "",
          "type": "bytes32"
        }
      ],
      "stateMutability": "view",
      "type": "function"
    },
    {
      "inputs": [
        {
          "internalType": "uint32",
          "name": "rollupID",
          "type": "uint32"
        },
        {
          "internalType": "uint64",
          "name": "sequenceNum",
          "type": "uint64"
        }
      ],
      "name": "getRollupPendingStateTransitions",
      "outputs": [
        {
          "components": [
            {
              "internalType": "uint64",
              "name": "timestamp",
              "type": "uint64"
            },
            {
              "internalType": "uint64",
              "name": "lastVerifiedSequence",
              "type": "uint64"
            },
            {
              "internalType": "bytes32",
              "name": "exitRoot",
              "type": "bytes32"
            },
            {
              "internalType": "bytes32",
              "name": "stateRoot",
              "type": "bytes32"
            }
          ],
          "internalType": "struct PolygonRollupManager.PendingStateSequenceBased",
          "name": "",
          "type": "tuple"
        }
      ],
      "stateMutability": "view",
      "type": "function"
    },
    {
      "inputs": [
        {
          "internalType": "uint32",
          "name": "rollupID",
          "type": "uint32"
        },
        {
          "internalType": "uint64",
          "name": "sequenceNum",
          "type": "uint64"
        }
      ],
      "name": "getRollupSequencedSequences",
      "outputs": [
        {
          "components": [
            {
              "internalType": "bytes32",
              "name": "accInputHash",
              "type": "bytes32"
            },
            {
              "internalType": "uint64",
              "name": "sequencedTimestamp",
              "type": "uint64"
            },
            {
              "internalType": "uint64",
              "name": "currentBlobNum",
              "type": "uint64"
            },
            {
              "internalType": "uint128",
              "name": "accZkGasLimit",
              "type": "uint128"
            }
          ],
          "internalType": "struct PolygonRollupManager.SequencedData",
          "name": "",
          "type": "tuple"
        }
      ],
      "stateMutability": "view",
      "type": "function"
    },
    {
      "inputs": [
        {
          "internalType": "uint32",
          "name": "rollupID",
          "type": "uint32"
        },
        {
          "internalType": "uint64",
          "name": "sequenceNum",
          "type": "uint64"
        }
      ],
      "name": "getRollupsequenceNumToStateRoot",
      "outputs": [
        {
          "internalType": "bytes32",
          "name": "",
          "type": "bytes32"
        }
      ],
      "stateMutability": "view",
      "type": "function"
    },
    {
      "inputs": [],
      "name": "getZkGasPrice",
      "outputs": [
        {
          "internalType": "uint256",
          "name": "",
          "type": "uint256"
        }
      ],
      "stateMutability": "view",
      "type": "function"
    },
    {
      "inputs": [],
      "name": "globalExitRootManager",
      "outputs": [
        {
          "internalType": "contract IPolygonZkEVMGlobalExitRootV2",
          "name": "",
          "type": "address"
        }
      ],
      "stateMutability": "view",
      "type": "function"
    },
    {
      "inputs": [
        {
          "internalType": "bytes32",
          "name": "role",
          "type": "bytes32"
        },
        {
          "internalType": "address",
          "name": "account",
          "type": "address"
        }
      ],
      "name": "grantRole",
      "outputs": [],
      "stateMutability": "nonpayable",
      "type": "function"
    },
    {
      "inputs": [
        {
          "internalType": "bytes32",
          "name": "role",
          "type": "bytes32"
        },
        {
          "internalType": "address",
          "name": "account",
          "type": "address"
        }
      ],
      "name": "hasRole",
      "outputs": [
        {
          "internalType": "bool",
          "name": "",
          "type": "bool"
        }
      ],
      "stateMutability": "view",
      "type": "function"
    },
    {
      "inputs": [],
      "name": "initialize",
      "outputs": [],
      "stateMutability": "nonpayable",
      "type": "function"
    },
    {
      "inputs": [],
      "name": "isEmergencyState",
      "outputs": [
        {
          "internalType": "bool",
          "name": "",
          "type": "bool"
        }
      ],
      "stateMutability": "view",
      "type": "function"
    },
    {
      "inputs": [
        {
          "internalType": "uint32",
          "name": "rollupID",
          "type": "uint32"
        },
        {
          "internalType": "uint64",
          "name": "pendingStateNum",
          "type": "uint64"
        }
      ],
      "name": "isPendingStateConsolidable",
      "outputs": [
        {
          "internalType": "bool",
          "name": "",
          "type": "bool"
        }
      ],
      "stateMutability": "view",
      "type": "function"
    },
    {
      "inputs": [],
      "name": "lastAggregationTimestamp",
      "outputs": [
        {
          "internalType": "uint64",
          "name": "",
          "type": "uint64"
        }
      ],
      "stateMutability": "view",
      "type": "function"
    },
    {
      "inputs": [],
      "name": "lastDeactivatedEmergencyStateTimestamp",
      "outputs": [
        {
          "internalType": "uint64",
          "name": "",
          "type": "uint64"
        }
      ],
      "stateMutability": "view",
      "type": "function"
    },
    {
      "inputs": [],
      "name": "multiplierZkGasPrice",
      "outputs": [
        {
          "internalType": "uint16",
          "name": "",
          "type": "uint16"
        }
      ],
      "stateMutability": "view",
      "type": "function"
    },
    {
      "inputs": [
        {
          "internalType": "uint32",
          "name": "rollupTypeID",
          "type": "uint32"
        }
      ],
      "name": "obsoleteRollupType",
      "outputs": [],
      "stateMutability": "nonpayable",
      "type": "function"
    },
    {
      "inputs": [
        {
          "internalType": "uint128",
          "name": "zkGasLimitSequenced",
          "type": "uint128"
        },
        {
          "internalType": "uint64",
          "name": "blobsSequenced",
          "type": "uint64"
        },
        {
          "internalType": "bytes32",
          "name": "newAccInputHash",
          "type": "bytes32"
        }
      ],
      "name": "onSequence",
      "outputs": [
        {
          "internalType": "uint64",
          "name": "",
          "type": "uint64"
        }
      ],
      "stateMutability": "nonpayable",
      "type": "function"
    },
    {
      "inputs": [
        {
          "internalType": "uint32",
          "name": "rollupID",
          "type": "uint32"
        },
        {
          "internalType": "uint64",
          "name": "initPendingStateNum",
          "type": "uint64"
        },
        {
          "internalType": "uint64",
          "name": "finalPendingStateNum",
          "type": "uint64"
        },
        {
          "internalType": "uint64",
          "name": "initSequenceNum",
          "type": "uint64"
        },
        {
          "internalType": "uint64",
          "name": "finalSequenceNum",
          "type": "uint64"
        },
        {
          "internalType": "bytes32",
          "name": "newLocalExitRoot",
          "type": "bytes32"
        },
        {
          "internalType": "bytes32",
          "name": "newStateRoot",
          "type": "bytes32"
        },
        {
          "internalType": "bytes32[24]",
          "name": "proof",
          "type": "bytes32[24]"
        }
      ],
      "name": "overridePendingState",
      "outputs": [],
      "stateMutability": "nonpayable",
      "type": "function"
    },
    {
      "inputs": [],
      "name": "pendingStateTimeout",
      "outputs": [
        {
          "internalType": "uint64",
          "name": "",
          "type": "uint64"
        }
      ],
      "stateMutability": "view",
      "type": "function"
    },
    {
      "inputs": [],
      "name": "pol",
      "outputs": [
        {
          "internalType": "contract IERC20Upgradeable",
          "name": "",
          "type": "address"
        }
      ],
      "stateMutability": "view",
      "type": "function"
    },
    {
      "inputs": [
        {
          "internalType": "uint32",
          "name": "rollupID",
          "type": "uint32"
        },
        {
          "internalType": "uint64",
          "name": "initPendingStateNum",
          "type": "uint64"
        },
        {
          "internalType": "uint64",
          "name": "finalPendingStateNum",
          "type": "uint64"
        },
        {
          "internalType": "uint64",
          "name": "initSequenceNum",
          "type": "uint64"
        },
        {
          "internalType": "uint64",
          "name": "finalSequenceNum",
          "type": "uint64"
        },
        {
          "internalType": "bytes32",
          "name": "newLocalExitRoot",
          "type": "bytes32"
        },
        {
          "internalType": "bytes32",
          "name": "newStateRoot",
          "type": "bytes32"
        },
        {
          "internalType": "bytes32[24]",
          "name": "proof",
          "type": "bytes32[24]"
        }
      ],
      "name": "proveNonDeterministicPendingState",
      "outputs": [],
      "stateMutability": "nonpayable",
      "type": "function"
    },
    {
      "inputs": [
        {
          "internalType": "bytes32",
          "name": "role",
          "type": "bytes32"
        },
        {
          "internalType": "address",
          "name": "account",
          "type": "address"
        }
      ],
      "name": "renounceRole",
      "outputs": [],
      "stateMutability": "nonpayable",
      "type": "function"
    },
    {
      "inputs": [
        {
          "internalType": "bytes32",
          "name": "role",
          "type": "bytes32"
        },
        {
          "internalType": "address",
          "name": "account",
          "type": "address"
        }
      ],
      "name": "revokeRole",
      "outputs": [],
      "stateMutability": "nonpayable",
      "type": "function"
    },
    {
      "inputs": [
        {
          "internalType": "address",
          "name": "rollupAddress",
          "type": "address"
        }
      ],
      "name": "rollupAddressToID",
      "outputs": [
        {
          "internalType": "uint32",
          "name": "rollupID",
          "type": "uint32"
        }
      ],
      "stateMutability": "view",
      "type": "function"
    },
    {
      "inputs": [],
      "name": "rollupCount",
      "outputs": [
        {
          "internalType": "uint32",
          "name": "",
          "type": "uint32"
        }
      ],
      "stateMutability": "view",
      "type": "function"
    },
    {
      "inputs": [
        {
          "internalType": "uint32",
          "name": "rollupID",
          "type": "uint32"
        }
      ],
      "name": "rollupIDToRollupData",
      "outputs": [
        {
          "internalType": "contract IPolygonRollupBaseFeijoa",
          "name": "rollupContract",
          "type": "address"
        },
        {
          "internalType": "uint64",
          "name": "chainID",
          "type": "uint64"
        },
        {
          "internalType": "contract IVerifierRollup",
          "name": "verifier",
          "type": "address"
        },
        {
          "internalType": "uint64",
          "name": "forkID",
          "type": "uint64"
        },
        {
          "internalType": "bytes32",
          "name": "lastLocalExitRoot",
          "type": "bytes32"
        },
        {
          "internalType": "uint64",
          "name": "lastSequenceNum",
          "type": "uint64"
        },
        {
          "internalType": "uint64",
          "name": "lastVerifiedSequenceNum",
          "type": "uint64"
        },
        {
          "internalType": "uint64",
          "name": "lastPendingState",
          "type": "uint64"
        },
        {
          "internalType": "uint64",
          "name": "lastPendingStateConsolidated",
          "type": "uint64"
        },
        {
          "internalType": "uint64",
          "name": "lastVerifiedSequenceBeforeUpgrade",
          "type": "uint64"
        },
        {
          "internalType": "uint64",
          "name": "rollupTypeID",
          "type": "uint64"
        },
        {
          "internalType": "uint8",
          "name": "rollupCompatibilityID",
          "type": "uint8"
        }
      ],
      "stateMutability": "view",
      "type": "function"
    },
    {
      "inputs": [],
      "name": "rollupTypeCount",
      "outputs": [
        {
          "internalType": "uint32",
          "name": "",
          "type": "uint32"
        }
      ],
      "stateMutability": "view",
      "type": "function"
    },
    {
      "inputs": [
        {
          "internalType": "uint32",
          "name": "rollupTypeID",
          "type": "uint32"
        }
      ],
      "name": "rollupTypeMap",
      "outputs": [
        {
          "internalType": "address",
          "name": "consensusImplementation",
          "type": "address"
        },
        {
          "internalType": "contract IVerifierRollup",
          "name": "verifier",
          "type": "address"
        },
        {
          "internalType": "uint64",
          "name": "forkID",
          "type": "uint64"
        },
        {
          "internalType": "uint8",
          "name": "rollupCompatibilityID",
          "type": "uint8"
        },
        {
          "internalType": "bool",
          "name": "obsolete",
          "type": "bool"
        },
        {
          "internalType": "bytes32",
          "name": "genesis",
          "type": "bytes32"
        }
      ],
      "stateMutability": "view",
      "type": "function"
    },
    {
      "inputs": [
        {
          "internalType": "contract IVerifierRollup",
          "name": "newAggregateRollupVerifier",
          "type": "address"
        }
      ],
      "name": "setAggregateRollupVerifier",
      "outputs": [],
      "stateMutability": "nonpayable",
      "type": "function"
    },
    {
      "inputs": [
        {
          "internalType": "uint16",
          "name": "newMultiplierZkGasPrice",
          "type": "uint16"
        }
      ],
      "name": "setMultiplierZkGasPrice",
      "outputs": [],
      "stateMutability": "nonpayable",
      "type": "function"
    },
    {
      "inputs": [
        {
          "internalType": "uint64",
          "name": "newPendingStateTimeout",
          "type": "uint64"
        }
      ],
      "name": "setPendingStateTimeout",
      "outputs": [],
      "stateMutability": "nonpayable",
      "type": "function"
    },
    {
      "inputs": [
        {
          "internalType": "uint64",
          "name": "newTrustedAggregatorTimeout",
          "type": "uint64"
        }
      ],
      "name": "setTrustedAggregatorTimeout",
      "outputs": [],
      "stateMutability": "nonpayable",
      "type": "function"
    },
    {
      "inputs": [
        {
          "internalType": "uint64",
          "name": "newVerifySequenceTimeTarget",
          "type": "uint64"
        }
      ],
      "name": "setVerifySequenceTimeTarget",
      "outputs": [],
      "stateMutability": "nonpayable",
      "type": "function"
    },
    {
      "inputs": [
        {
          "internalType": "uint256",
          "name": "newZkGasPrice",
          "type": "uint256"
        }
      ],
      "name": "setZkGasPrice",
      "outputs": [],
      "stateMutability": "nonpayable",
      "type": "function"
    },
    {
      "inputs": [],
      "name": "totalVerifiedZkGasLimit",
      "outputs": [
        {
          "internalType": "uint128",
          "name": "",
          "type": "uint128"
        }
      ],
      "stateMutability": "view",
      "type": "function"
    },
    {
      "inputs": [],
      "name": "totalZkGasLimit",
      "outputs": [
        {
          "internalType": "uint128",
          "name": "",
          "type": "uint128"
        }
      ],
      "stateMutability": "view",
      "type": "function"
    },
    {
      "inputs": [],
      "name": "trustedAggregatorTimeout",
      "outputs": [
        {
          "internalType": "uint64",
          "name": "",
          "type": "uint64"
        }
      ],
      "stateMutability": "view",
      "type": "function"
    },
    {
      "inputs": [
        {
          "internalType": "contract ITransparentUpgradeableProxy",
          "name": "rollupContract",
          "type": "address"
        },
        {
          "internalType": "uint32",
          "name": "newRollupTypeID",
          "type": "uint32"
        },
        {
          "internalType": "bytes",
          "name": "upgradeData",
          "type": "bytes"
        }
      ],
      "name": "updateRollup",
      "outputs": [],
      "stateMutability": "nonpayable",
      "type": "function"
    },
    {
      "inputs": [
        {
          "internalType": "contract ITransparentUpgradeableProxy",
          "name": "rollupContract",
          "type": "address"
        },
        {
          "internalType": "uint32",
          "name": "newRollupTypeID",
          "type": "uint32"
        }
      ],
      "name": "updateRollupByRollupAdmin",
      "outputs": [],
      "stateMutability": "nonpayable",
      "type": "function"
    },
    {
      "inputs": [],
      "name": "verifySequenceTimeTarget",
      "outputs": [
        {
          "internalType": "uint64",
          "name": "",
          "type": "uint64"
        }
      ],
      "stateMutability": "view",
      "type": "function"
    },
    {
      "inputs": [
        {
          "components": [
            {
              "internalType": "uint32",
              "name": "rollupID",
              "type": "uint32"
            },
            {
              "internalType": "uint64",
              "name": "pendingStateNum",
              "type": "uint64"
            },
            {
              "internalType": "uint64",
              "name": "initSequenceNum",
              "type": "uint64"
            },
            {
              "internalType": "uint64",
              "name": "finalSequenceNum",
              "type": "uint64"
            },
            {
              "internalType": "bytes32",
              "name": "newLocalExitRoot",
              "type": "bytes32"
            },
            {
              "internalType": "bytes32",
              "name": "newStateRoot",
              "type": "bytes32"
            }
          ],
          "internalType": "struct PolygonRollupManager.VerifySequenceData[]",
          "name": "verifySequencesData",
          "type": "tuple[]"
        },
        {
          "internalType": "address",
          "name": "beneficiary",
          "type": "address"
        },
        {
          "internalType": "bytes32[24]",
          "name": "proof",
          "type": "bytes32[24]"
        }
      ],
      "name": "verifySequencesMultiProof",
      "outputs": [],
      "stateMutability": "nonpayable",
      "type": "function"
    },
    {
      "inputs": [
        {
          "components": [
            {
              "internalType": "uint32",
              "name": "rollupID",
              "type": "uint32"
            },
            {
              "internalType": "uint64",
              "name": "pendingStateNum",
              "type": "uint64"
            },
            {
              "internalType": "uint64",
              "name": "initSequenceNum",
              "type": "uint64"
            },
            {
              "internalType": "uint64",
              "name": "finalSequenceNum",
              "type": "uint64"
            },
            {
              "internalType": "bytes32",
              "name": "newLocalExitRoot",
              "type": "bytes32"
            },
            {
              "internalType": "bytes32",
              "name": "newStateRoot",
              "type": "bytes32"
            }
          ],
          "internalType": "struct PolygonRollupManager.VerifySequenceData[]",
          "name": "verifySequencesData",
          "type": "tuple[]"
        },
        {
          "internalType": "address",
          "name": "beneficiary",
          "type": "address"
        },
        {
          "internalType": "bytes32[24]",
          "name": "proof",
          "type": "bytes32[24]"
        }
      ],
      "name": "verifySequencesTrustedAggregatorMultiProof",
      "outputs": [],
      "stateMutability": "nonpayable",
      "type": "function"
    }
  ],
  "bytecode": "0x60e060405234801562000010575f80fd5b506040516200600c3803806200600c833981016040819052620000339162000136565b6001600160a01b0380841660805282811660c052811660a052620000566200005f565b50505062000187565b5f54610100900460ff1615620000cb5760405162461bcd60e51b815260206004820152602760248201527f496e697469616c697a61626c653a20636f6e747261637420697320696e697469604482015266616c697a696e6760c81b606482015260840160405180910390fd5b5f5460ff90811610156200011c575f805460ff191660ff9081179091556040519081527f7f26b83ff96e1f2b6a682f133852f6798a09c465da95921460cefb38474024989060200160405180910390a15b565b6001600160a01b038116811462000133575f80fd5b50565b5f805f6060848603121562000149575f80fd5b835162000156816200011e565b602085015190935062000169816200011e565b60408501519092506200017c816200011e565b809150509250925092565b60805160a05160c051615e22620001ea5f395f8181610ae501528181611bf60152613d7701525f818161078d0152818161229601526135ec01525f8181610a2c01528181610dda0152818161250c01528181612bae01526134e10152615e225ff3fe608060405234801562000010575f80fd5b5060043610620003b0575f3560e01c80639ff22cb511620001ef578063d939b3151162000113578063eb142b4011620000ab578063f4174a171162000083578063f4174a171462000b78578063f4e926751462000b81578063f9c4c2ae1462000b92578063fe01d89e1462000ca8575f80fd5b8063eb142b401462000b07578063f00bdaa41462000b4a578063f34eb8eb1462000b61575f80fd5b8063dfdb8c5e11620000eb578063dfdb8c5e1462000a9a578063e0bfd3d21462000ab1578063e2bfe8b31462000ac8578063e46761c41462000adf575f80fd5b8063d939b3151462000a65578063dbc169761462000a79578063de7948501462000a83575f80fd5b8063b99d0ad71162000187578063c4c928c2116200015f578063c4c928c214620009e7578063ceee281d14620009fe578063d02103ca1462000a26578063d547741f1462000a4e575f80fd5b8063b99d0ad714620008d7578063ba988cef14620009b1578063c1acbc3414620009cc575f80fd5b8063a2967d9911620001c7578063a2967d99146200077d578063a3c573eb1462000787578063a9a7703114620007c8578063b739753614620008bc575f80fd5b80639ff22cb51462000734578063a1094df3146200075e578063a217fddf1462000775575f80fd5b806365c0504d11620002d75780638185f9d3116200026f5780638bd4f07111620002475780638bd4f07114620006c157806390031d5c14620006d857806391d1485414620006e25780639c9f3dfe146200071d575f80fd5b80638185f9d31462000683578063838a2503146200069a578063841b24d714620006a6575f80fd5b8063727885e911620002af578063727885e914620006235780637ec31def146200063a5780637fb6e76a14620006515780638129fc1c1462000679575f80fd5b806365c0504d146200054a5780636c6be9eb14620005f85780637222020f146200060c575f80fd5b80632072f6c5116200034b5780632f2ff15d11620003235780632f2ff15d14620004f157806330c27dde146200050857806336568abe146200051c578063394218e91462000533575f80fd5b80632072f6c5146200048e578063248a9ca3146200049857806327696c5e14620004bd575f80fd5b806312b86e19116200038b57806312b86e19146200042957806315064c9614620004425780631608859c14620004505780631796a1ae1462000467575f80fd5b806302f3fa6014620003b4578063080b311114620003d15780630a7eef7a14620003f9575b5f80fd5b620003be62000cbf565b6040519081526020015b60405180910390f35b620003e8620003e236600462004a5d565b62000cd6565b6040519015158152602001620003c8565b620004106200040a36600462004a93565b62000cff565b6040516001600160401b039091168152602001620003c8565b620004406200043a36600462004ac1565b62000d1e565b005b606f54620003e89060ff1681565b620004406200046136600462004a5d565b62000ed9565b607e54620004789063ffffffff1681565b60405163ffffffff9091168152602001620003c8565b6200044062000f83565b620003be620004a936600462004b53565b5f9081526034602052604090206001015490565b608954620004d890600160801b90046001600160801b031681565b6040516001600160801b039091168152602001620003c8565b620004406200050236600462004b80565b6200105f565b60875462000410906001600160401b031681565b620004406200052d36600462004b80565b62001087565b620004406200054436600462004bb1565b620010c1565b620005ae6200055b36600462004a93565b607f6020525f90815260409020805460018201546002909201546001600160a01b0391821692918216916001600160401b03600160a01b8204169160ff600160e01b8304811692600160e81b9004169086565b604080516001600160a01b0397881681529690951660208701526001600160401b039093169385019390935260ff166060840152901515608083015260a082015260c001620003c8565b608954620004d8906001600160801b031681565b620004406200061d36600462004a93565b6200118d565b620004406200063436600462004c7b565b62001287565b620004406200064b36600462004b53565b62001713565b620004786200066236600462004bb1565b60836020525f908152604090205463ffffffff1681565b62000440620017ab565b620004406200069436600462004bb1565b62001a68565b620004106305f5e10081565b6084546200041090600160c01b90046001600160401b031681565b62000440620006d236600462004ac1565b62001b1e565b620003be62001bd5565b620003e8620006f336600462004b80565b5f9182526034602090815260408084206001600160a01b0393909316845291905290205460ff1690565b620004406200072e36600462004bb1565b62001cb6565b6085546200074a90600160801b900461ffff1681565b60405161ffff9091168152602001620003c8565b620004406200076f36600462004d41565b62001d6d565b620003be5f81565b620003be62001e30565b620007af7f000000000000000000000000000000000000000000000000000000000000000081565b6040516001600160a01b039091168152602001620003c8565b62000871620007d936600462004a5d565b604080516080810182525f8082526020820181905291810182905260608101919091525063ffffffff919091165f9081526088602090815260408083206001600160401b03948516845260030182529182902082516080810184528154815260019091015480851692820192909252600160401b820490931691830191909152600160801b90046001600160801b0316606082015290565b60408051825181526020808401516001600160401b03908116918301919091528383015116918101919091526060918201516001600160801b031691810191909152608001620003c8565b6085546200041090600160401b90046001600160401b031681565b6200096c620008e836600462004a5d565b60408051608080820183525f8083526020808401829052838501829052606093840182905263ffffffff969096168152608886528381206001600160401b03958616825260040186528390208351918201845280548086168352600160401b9004909416948101949094526001830154918401919091526002909101549082015290565b604051620003c891905f6080820190506001600160401b0380845116835280602085015116602084015250604083015160408301526060830151606083015292915050565b608754620007af90600160401b90046001600160a01b031681565b6084546200041090600160801b90046001600160401b031681565b62000440620009f836600462004d6b565b620021d5565b6200047862000a0f36600462004de2565b60826020525f908152604090205463ffffffff1681565b620007af7f000000000000000000000000000000000000000000000000000000000000000081565b6200044062000a5f36600462004b80565b62002214565b60855462000410906001600160401b031681565b620004406200223c565b6200044062000a9436600462004e00565b62002308565b6200044062000aab36600462004e98565b6200258d565b6200044062000ac236600462004ed8565b620026de565b6200044062000ad936600462004de2565b620027b1565b620007af7f000000000000000000000000000000000000000000000000000000000000000081565b620003be62000b1836600462004a5d565b63ffffffff82165f9081526088602090815260408083206001600160401b038516845260020190915290205492915050565b6200044062000b5b36600462004e00565b6200284d565b6200044062000b7236600462004f50565b62002c39565b608a54620003be565b608054620004789063ffffffff1681565b62000c2862000ba336600462004a93565b60886020525f9081526040902080546001820154600583015460068401546007909401546001600160a01b0380851695600160a01b958690046001600160401b039081169692861695929092048216939282821692600160401b808404821693600160801b808204841694600160c01b90920484169380831693830416910460ff168c565b604080516001600160a01b039d8e1681526001600160401b039c8d1660208201529c909a16998c019990995296891660608b015260808a019590955292871660a089015290861660c0880152851660e0870152841661010086015283166101208501529190911661014083015260ff1661016082015261018001620003c8565b6200041062000cb936600462004fe2565b62002e2d565b5f608a54606462000cd1919062005040565b905090565b63ffffffff82165f90815260886020526040812062000cf69083620030b5565b90505b92915050565b63ffffffff81165f90815260886020526040812062000cf990620030f9565b7f084e94f375e9d647f87f5b2ceffba1e062c70f6009fdbcf80291e803b5c9edd462000d4a8162003168565b63ffffffff89165f90815260886020526040902062000d70818a8a8a8a8a8a8a62003174565b60068101805467ffffffffffffffff60401b1916600160401b6001600160401b038981169182029290921783555f9081526002840160205260409020869055600583018790559054600160801b9004161562000dd8576006810180546001600160801b031690555b7f00000000000000000000000000000000000000000000000000000000000000006001600160a01b03166333d6247d62000e1162001e30565b6040518263ffffffff1660e01b815260040162000e3091815260200190565b5f604051808303815f87803b15801562000e48575f80fd5b505af115801562000e5b573d5f803e3d5ffd5b5050608480546001600160c01b031661127560c71b1790555050604080516001600160401b03881681526020810186905290810186905233606082015263ffffffff8b16907f3182bd6e6f74fc1fdc88b60f3a4f4c7f79db6ae6f5b88a1b3f5a1e28ec210d5e9060800160405180910390a250505050505050505050565b63ffffffff82165f9081526088602090815260408083203384527fc17b14a573f65366cdad721c7c0a0f76536bb4a86b935cdac44610e4f010b52a9092529091205460ff1662000f7257606f5460ff161562000f4857604051630bc011ff60e21b815260040160405180910390fd5b62000f548183620030b5565b62000f7257604051630674f25160e11b815260040160405180910390fd5b62000f7e8183620033fe565b505050565b335f9081527f8875b94af5657a2903def9906d67a3f42d8a836d24b5602c00f00fc855339fcd602052604090205460ff166200105357608454600160801b90046001600160401b03161580620010045750608454429062000ff99062093a8090600160801b90046001600160401b03166200505a565b6001600160401b0316115b806200103457506087544290620010299062093a80906001600160401b03166200505a565b6001600160401b0316115b15620010535760405163692baaad60e11b815260040160405180910390fd5b6200105d620035ea565b565b5f828152603460205260409020600101546200107b8162003168565b62000f7e838362003664565b6001600160a01b0381163314620010b157604051630b4ad1cd60e31b815260040160405180910390fd5b620010bd8282620036e8565b5050565b7fa5c5790f581d443ed43873ab47cfb8c5d66a6db268e58b5971bb33fc66e07db1620010ed8162003168565b606f5460ff166200112f576084546001600160401b03600160c01b9091048116908316106200112f5760405163401636df60e01b815260040160405180910390fd5b608480546001600160c01b0316600160c01b6001600160401b038516908102919091179091556040519081527f1f4fa24c2e4bad19a7f3ec5c5485f70d46c798461c2e684f55bbd0fc661373a1906020015b60405180910390a15050565b7fab66e11c4f712cd06ab11bf9339b48bef39e12d4a22eeef71d2860a0c90482bd620011b98162003168565b63ffffffff82161580620011d85750607e5463ffffffff908116908316115b15620011f757604051637512e5cb60e01b815260040160405180910390fd5b63ffffffff82165f908152607f60205260409020600180820154600160e81b900460ff16151590036200123d57604051633b8d3d9960e01b815260040160405180910390fd5b60018101805460ff60e81b1916600160e81b17905560405163ffffffff8416907f4710d2ee567ef1ed6eb2f651dde4589524bcf7cebc62147a99b281cc836e7e44905f90a2505050565b7fa0fab074aba36a6fa69f1a83ee86e5abfb8433966eb57efb13dc2fc2f24ddd08620012b38162003168565b63ffffffff88161580620012d25750607e5463ffffffff908116908916115b15620012f157604051637512e5cb60e01b815260040160405180910390fd5b63ffffffff88165f908152607f60205260409020600180820154600160e81b900460ff16151590036200133757604051633b8d3d9960e01b815260040160405180910390fd5b63ffffffff6001600160401b03891611156200136657604051634c753f5760e01b815260040160405180910390fd5b6001600160401b0388165f9081526083602052604090205463ffffffff1615620013a3576040516337c8fe0960e11b815260040160405180910390fd5b608080545f91908290620013bd9063ffffffff1662005084565b825463ffffffff8281166101009490940a93840293021916919091179091558254604080515f80825260208201928390529394506001600160a01b039092169130916200140a9062004a24565b6200141893929190620050fa565b604051809103905ff08015801562001432573d5f803e3d5ffd5b5090508160835f8c6001600160401b03166001600160401b031681526020019081526020015f205f6101000a81548163ffffffff021916908363ffffffff1602179055508160825f836001600160a01b03166001600160a01b031681526020019081526020015f205f6101000a81548163ffffffff021916908363ffffffff1602179055505f60885f8463ffffffff1663ffffffff1681526020019081526020015f20905081815f015f6101000a8154816001600160a01b0302191690836001600160a01b031602179055508360010160149054906101000a90046001600160401b03168160010160146101000a8154816001600160401b0302191690836001600160401b03160217905550836001015f9054906101000a90046001600160a01b0316816001015f6101000a8154816001600160a01b0302191690836001600160a01b031602179055508a815f0160146101000a8154816001600160401b0302191690836001600160401b031602179055508360020154816002015f806001600160401b031681526020019081526020015f20819055508b63ffffffff168160070160086101000a8154816001600160401b0302191690836001600160401b0316021790555083600101601c9054906101000a900460ff168160070160106101000a81548160ff021916908360ff1602179055508263ffffffff167f194c983456df6701c6a50830b90fe80e72b823411d0d524970c9590dc277a6418d848e8c60405162001696949392919063ffffffff9490941684526001600160a01b0392831660208501526001600160401b0391909116604084015216606082015260800190565b60405180910390a2604051633892b81160e11b81526001600160a01b03831690637125702290620016d6908d908d9088908e908e908e9060040162005130565b5f604051808303815f87803b158015620016ee575f80fd5b505af115801562001701573d5f803e3d5ffd5b50505050505050505050505050505050565b7f8cf807f6970720f8e2c208c7c5037595982c7bd9ed93c380d09df743d0dcc3fb6200173f8162003168565b670de0b6b3a7640000821180620017565750600182105b156200177557604051630c0bbd2760e01b815260040160405180910390fd5b608a8290556040518281527f13b1c630ad78354572e9ad473455d51831407e164b79dda20732f5acac5033829060200162001181565b5f54600390610100900460ff16158015620017cc57505f5460ff8083169116105b620018445760405162461bcd60e51b815260206004820152602e60248201527f496e697469616c697a61626c653a20636f6e747261637420697320616c72656160448201527f647920696e697469616c697a656400000000000000000000000000000000000060648201526084015b60405180910390fd5b5f805461ffff191660ff83161761010017905560015b60805463ffffffff16811162001a245763ffffffff81165f9081526081602090815260408083206088909252909120815481546001600160401b03600160a01b92839004811683027fffffffff0000000000000000ffffffffffffffffffffffffffffffffffffffff90921691909117835560018085018054918501805473ffffffffffffffffffffffffffffffffffffffff1981166001600160a01b039094169384178255915485900484169094026001600160e01b03199091169091171790915560058084015490830155600780840180549184018054600160401b938490048516840267ffffffffffffffff60401b19821681178355925460ff600160801b91829004160270ff000000000000000000000000000000001990931670ffffffffffffffffff000000000000000019909116179190911790556006840154908104821691168114620019ac575f80fd5b6001600160401b0381165f81815260028086016020908152604080842054848052928701825280842092909255928252600380870184528183205483805290860190935290205560705462001a07906305f5e10090620051a6565b608a555082915062001a1b905081620051bc565b9150506200185a565b505f805461ff001916905560405160ff821681527f7f26b83ff96e1f2b6a682f133852f6798a09c465da95921460cefb38474024989060200160405180910390a150565b7fa5c5790f581d443ed43873ab47cfb8c5d66a6db268e58b5971bb33fc66e07db162001a948162003168565b62015180826001600160401b0316111562001ac257604051633812d75d60e21b815260040160405180910390fd5b6085805467ffffffffffffffff60401b1916600160401b6001600160401b038516908102919091179091556040519081527fe84eacb10b29a9cd283d1c48f59cd87da8c2f99c554576228566d69aeba740cd9060200162001181565b606f5460ff161562001b4357604051630bc011ff60e21b815260040160405180910390fd5b63ffffffff88165f90815260886020526040902062001b69818989898989898962003174565b6001600160401b0387165f9081526004820160209081526040918290206002015482519081529081018590527f1f44c21118c4603cfb4e1b621dbcfa2b73efcececee2b99b620b2953d33a7010910160405180910390a162001bca620035ea565b505050505050505050565b6040516370a0823160e01b81523060048201525f9081906001600160a01b037f000000000000000000000000000000000000000000000000000000000000000016906370a0823190602401602060405180830381865afa15801562001c3c573d5f803e3d5ffd5b505050506040513d601f19601f8201168201806040525081019062001c629190620051d7565b6089549091505f9062001c88906001600160801b03600160801b820481169116620051ef565b6001600160801b03169050805f0362001ca3575f9250505090565b62001caf8183620051a6565b9250505090565b7fa5c5790f581d443ed43873ab47cfb8c5d66a6db268e58b5971bb33fc66e07db162001ce28162003168565b606f5460ff1662001d1d576085546001600160401b039081169083161062001d1d5760405163048a05a960e41b815260040160405180910390fd5b6085805467ffffffffffffffff19166001600160401b0384169081179091556040519081527fc4121f4e22c69632ebb7cf1f462be0511dc034f999b52013eddfb24aab765c759060200162001181565b7fa5c5790f581d443ed43873ab47cfb8c5d66a6db268e58b5971bb33fc66e07db162001d998162003168565b6103e88261ffff16108062001db357506103ff8261ffff16115b1562001dd2576040516344ceee7360e01b815260040160405180910390fd5b6085805471ffff000000000000000000000000000000001916600160801b61ffff8516908102919091179091556040519081527f5c8a9e64670a8ec12a8004aa047cbb455403a6c4f2d2ad4e52328400dc8142659060200162001181565b6080545f9063ffffffff1680820362001e4a57505f919050565b5f816001600160401b0381111562001e665762001e6662004bcd565b60405190808252806020026020018201604052801562001e90578160200160208202803683370190505b5090505f5b8281101562001ef45760885f62001eae83600162005212565b63ffffffff1663ffffffff1681526020019081526020015f206005015482828151811062001ee05762001ee062005228565b602090810291909101015260010162001e95565b505f60205b8360011462002140575f62001f106002866200523c565b62001f1d600287620051a6565b62001f29919062005212565b90505f816001600160401b0381111562001f475762001f4762004bcd565b60405190808252806020026020018201604052801562001f71578160200160208202803683370190505b5090505f5b82811015620020ec5762001f8c60018462005252565b8114801562001fa7575062001fa36002886200523c565b6001145b156200202f578562001fbb82600262005040565b8151811062001fce5762001fce62005228565b60200260200101518560405160200162001ff2929190918252602082015260400190565b604051602081830303815290604052805190602001208282815181106200201d576200201d62005228565b602002602001018181525050620020e3565b856200203d82600262005040565b8151811062002050576200205062005228565b60200260200101518682600262002068919062005040565b6200207590600162005212565b8151811062002088576200208862005228565b6020026020010151604051602001620020ab929190918252602082015260400190565b60405160208183030381529060405280519060200120828281518110620020d657620020d662005228565b6020026020010181815250505b60010162001f76565b50809450819550838460405160200162002110929190918252602082015260400190565b6040516020818303038152906040528051906020012093508280620021359062005268565b935050505062001ef9565b5f835f8151811062002156576200215662005228565b602002602001015190505f5b82811015620021cb57604080516020810184905290810185905260600160408051601f198184030181528282528051602091820120908301879052908201869052925060600160408051601f198184030181529190528051602090910120935060010162002162565b5095945050505050565b7f66156603fe29d13f97c6f3e3dff4ef71919f9aa61c555be0182d954e94221aac620022018162003168565b6200220e8484846200376a565b50505050565b5f82815260346020526040902060010154620022308162003168565b62000f7e8383620036e8565b7f62ba6ba2ffed8cfe316b583325ea41ac6e7ba9e5864d2bc6fabba7ac26d2f0f4620022688162003168565b6087805467ffffffffffffffff1916426001600160401b031617905560408051636de0b4bb60e11b815290517f00000000000000000000000000000000000000000000000000000000000000006001600160a01b03169163dbc16976916004808301925f92919082900301818387803b158015620022e4575f80fd5b505af1158015620022f7573d5f803e3d5ffd5b505050506200230562003a57565b50565b7f084e94f375e9d647f87f5b2ceffba1e062c70f6009fdbcf80291e803b5c9edd4620023348162003168565b620023428585858562003aaf565b5f5b8481101562002509575f86868381811062002363576200236362005228565b905060c002018036038101906200237b919062005280565b805163ffffffff165f908152608860209081526040808320606085015160068201805467ffffffffffffffff60401b1916600160401b6001600160401b0393841690810291909117825560a0880151908752600284019095529290942092909255608084015160058301555492935091600160801b900416156200240b576006810180546001600160801b031690555b815163ffffffff165f908152608860205260409081902054606084015160a0850151925163444e7ebd60e11b81526001600160401b03909116600482015260248101929092523360448301526001600160a01b03169063889cfd7a906064015f604051808303815f87803b15801562002482575f80fd5b505af115801562002495573d5f803e3d5ffd5b5050835160608086015160a08701516080880151604080516001600160401b03909416845260208401929092529082015233945063ffffffff90921692507fba7fad50a32b4eb9847ff1f56dd7528178eae3cd0b008c7a798e0d5375de88da910160405180910390a3505060010162002344565b507f00000000000000000000000000000000000000000000000000000000000000006001600160a01b03166333d6247d6200254362001e30565b6040518263ffffffff1660e01b81526004016200256291815260200190565b5f604051808303815f87803b1580156200257a575f80fd5b505af115801562001bca573d5f803e3d5ffd5b336001600160a01b0316826001600160a01b031663f851a4406040518163ffffffff1660e01b81526004016020604051808303815f875af1158015620025d5573d5f803e3d5ffd5b505050506040513d601f19601f82011682018060405250810190620025fb91906200531d565b6001600160a01b031614620026235760405163696072e960e01b815260040160405180910390fd5b6001600160a01b0382165f9081526082602090815260408083205463ffffffff1683526088909152902060068101546001600160401b03808216600160401b9092041614620026855760405163664316a560e11b815260040160405180910390fd5b600781015463ffffffff8316600160401b9091046001600160401b031610620026c157604051634f61d51960e01b815260040160405180910390fd5b604080515f81526020810190915262000f7e90849084906200376a565b7f3dfe277d2a2c04b75fb2eb3743fa00005ae3678a20c299e65fdf4df76517f68e6200270a8162003168565b6001600160401b0384165f9081526083602052604090205463ffffffff161562002747576040516337c8fe0960e11b815260040160405180910390fd5b6001600160a01b0387165f9081526082602052604090205463ffffffff16156200278457604051630d409b9360e41b815260040160405180910390fd5b5f62002794888888888762003df2565b5f8080526002909101602052604090209390935550505050505050565b7f3dfe277d2a2c04b75fb2eb3743fa00005ae3678a20c299e65fdf4df76517f68e620027dd8162003168565b608780547fffffffff0000000000000000000000000000000000000000ffffffffffffffff16600160401b6001600160a01b038516908102919091179091556040519081527f53ab89ca5f00e99098ada1782f593e3f76b5489459ece48450e554c2928daa5e9060200162001181565b606f5460ff16156200287257604051630bc011ff60e21b815260040160405180910390fd5b620028808484848462003aaf565b5f5b8381101562002bab575f858583818110620028a157620028a162005228565b905060c00201803603810190620028b9919062005280565b805163ffffffff165f90815260886020908152604080832060845460608601516001600160401b039081168652600383019094529190932060010154939450919242926200291392600160c01b909104811691166200505a565b6001600160401b031611156200293c57604051638a0704d360e01b815260040160405180910390fd5b6200294c81836060015162004012565b6085546001600160401b03165f03620029cc57606082015160068201805467ffffffffffffffff19166001600160401b03928316908117825560a08501515f918252600285016020526040909120556080840151600584015554600160801b90041615620029c6576006810180546001600160801b031690555b62002aad565b620029d78162004260565b600681018054600160801b90046001600160401b0316906010620029fb836200533b565b82546001600160401b039182166101009390930a92830292820219169190911790915560408051608080820183524284168252606080880151851660208085019182529289015184860190815260a08a01519285019283526006890154600160801b900487165f90815260048a01909452949092209251835492518616600160401b026fffffffffffffffffffffffffffffffff19909316951694909417178155905160018201559051600290910155505b815163ffffffff165f908152608860205260409081902054606084015160a0850151925163444e7ebd60e11b81526001600160401b03909116600482015260248101929092523360448301526001600160a01b03169063889cfd7a906064015f604051808303815f87803b15801562002b24575f80fd5b505af115801562002b37573d5f803e3d5ffd5b5050835160608086015160a08701516080880151604080516001600160401b03909416845260208401929092529082015233945063ffffffff90921692507f716b8543c1c3c328a13d34cd51e064a780149a2d06455e44097de219b150e8b4910160405180910390a3505060010162002882565b507f00000000000000000000000000000000000000000000000000000000000000006001600160a01b03166333d6247d62002be562001e30565b6040518263ffffffff1660e01b815260040162002c0491815260200190565b5f604051808303815f87803b15801562002c1c575f80fd5b505af115801562002c2f573d5f803e3d5ffd5b5050505050505050565b7fac75d24dbb35ea80e25fab167da4dea46c1915260426570db84f184891f5f59062002c658162003168565b607e80545f9190829062002c7f9063ffffffff1662005084565b91906101000a81548163ffffffff021916908363ffffffff160217905590506040518060c00160405280896001600160a01b03168152602001886001600160a01b03168152602001876001600160401b031681526020018660ff1681526020015f1515815260200185815250607f5f8363ffffffff1663ffffffff1681526020019081526020015f205f820151815f015f6101000a8154816001600160a01b0302191690836001600160a01b031602179055506020820151816001015f6101000a8154816001600160a01b0302191690836001600160a01b0316021790555060408201518160010160146101000a8154816001600160401b0302191690836001600160401b03160217905550606082015181600101601c6101000a81548160ff021916908360ff160217905550608082015181600101601d6101000a81548160ff02191690831515021790555060a082015181600201559050508063ffffffff167fa2970448b3bd66ba7e524e7b2a5b9cf94fa29e32488fb942afdfe70dd4b77b5289898989898960405162002e1b9695949392919062005359565b60405180910390a25050505050505050565b606f545f9060ff161562002e5457604051630bc011ff60e21b815260040160405180910390fd5b335f9081526082602052604081205463ffffffff169081900362002e8b576040516371653c1560e01b815260040160405180910390fd5b836001600160401b03165f0362002eb55760405163158aa4dd60e21b815260040160405180910390fd5b63ffffffff81165f908152608860205260408120608980549192889262002ee79084906001600160801b0316620053b0565b82546001600160801b039182166101009390930a92830291909202199091161790555060068101546001600160401b03165f62002f268260016200505a565b6001600160401b0383165f9081526003850160205260408120600101549192509062002f64908a90600160801b90046001600160801b0316620053b0565b6001600160401b038085165f9081526003870160205260408120600101549293509162002f9b918b91600160401b9004166200505a565b6006860180546001600160401b0380871667ffffffffffffffff199092168217909255604080516080810182528c815242841660208083019182528587168385019081526001600160801b03808b16606086019081525f97885260038f01909352949095209251835590516001929092018054945191518416600160801b02918616600160401b026fffffffffffffffffffffffffffffffff19909516929095169190911792909217161790559050620030558562004260565b604080516001600160801b038c1681526001600160401b038b16602082015263ffffffff8816917fd3104eaeb2b51fc52b7d354a19bf146d10ed8d047b43764be8f78cbb3ffd8be4910160405180910390a2509098975050505050505050565b6085546001600160401b038281165f90815260048501602052604081205490924292620030e79291811691166200505a565b6001600160401b031611159392505050565b60068101545f90600160801b90046001600160401b0316156200314b575060068101546001600160401b03600160801b90910481165f9081526004909201602052604090912054600160401b90041690565b5060060154600160401b90046001600160401b031690565b919050565b62002305813362004329565b5f620031828989886200436c565b60068a01549091506001600160401b03600160801b90910481169088161180620031be5750876001600160401b0316876001600160401b031611155b80620031e2575060068901546001600160401b03600160c01b909104811690881611155b15620032015760405163bfa7079f60e01b815260040160405180910390fd5b6001600160401b038781165f90815260048b016020526040902054600160401b9004811690861614620032475760405163b7d5b4a360e01b815260040160405180910390fd5b60605f806200325a610100601462005212565b90506040519250806040840101604052808352602083019150620032848c8a8a8a888b8862004484565b3360601b815291505f7f30644e72e131a029b85045b68181585d2833e84879b9709143e1f593f0000001600285604051620032c09190620053d3565b602060405180830381855afa158015620032dc573d5f803e3d5ffd5b5050506040513d601f19601f82011682018060405250810190620033019190620051d7565b6200330d91906200523c565b60018e0154604080516020810182528381529051634890ed4560e11b81529293506001600160a01b0390911691639121da8a9162003351918a9190600401620053f0565b602060405180830381865afa1580156200336d573d5f803e3d5ffd5b505050506040513d601f19601f820116820180604052508101906200339391906200542c565b620033b1576040516309bde33960e01b815260040160405180910390fd5b6001600160401b038b165f90815260048e016020526040902060020154879003620033ef5760405163a47276bd60e01b815260040160405180910390fd5b50505050505050505050505050565b60068201546001600160401b03600160c01b90910481169082161115806200343d575060068201546001600160401b03600160801b9091048116908216115b156200345c5760405163d086b70b60e01b815260040160405180910390fd5b6001600160401b038181165f8181526004850160209081526040808320805460068901805467ffffffffffffffff60401b1916600160401b92839004909816918202979097178755600280830154828752908a0190945291909320919091556001820154600587015583546001600160c01b0316600160c01b909302929092179092557f00000000000000000000000000000000000000000000000000000000000000006001600160a01b03166333d6247d6200351862001e30565b6040518263ffffffff1660e01b81526004016200353791815260200190565b5f604051808303815f87803b1580156200354f575f80fd5b505af115801562003562573d5f803e3d5ffd5b505085546001600160a01b03165f90815260826020908152604091829020546002870154600188015484516001600160401b03898116825294810192909252818501529188166060830152915163ffffffff90921693507f581910eb7a27738945c2f00a91f2284b2d6de9d4e472b12f901c2b0df045e21b925081900360800190a250505050565b7f00000000000000000000000000000000000000000000000000000000000000006001600160a01b0316632072f6c56040518163ffffffff1660e01b81526004015f604051808303815f87803b15801562003643575f80fd5b505af115801562003656573d5f803e3d5ffd5b505050506200105d620045d9565b5f8281526034602090815260408083206001600160a01b038516845290915290205460ff16620010bd575f8281526034602090815260408083206001600160a01b0385168085529252808320805460ff1916600117905551339285917f2f8788117e7eff1d82e926ec794901d17c78024a50270940304540a733656f0d9190a45050565b5f8281526034602090815260408083206001600160a01b038516845290915290205460ff1615620010bd575f8281526034602090815260408083206001600160a01b0385168085529252808320805460ff1916905551339285917ff6391f5c32d9c69d2a47ea670b442974b53935d1edc7fd64eb21e047a839171b9190a45050565b63ffffffff82161580620037895750607e5463ffffffff908116908316115b15620037a857604051637512e5cb60e01b815260040160405180910390fd5b6001600160a01b0383165f9081526082602052604081205463ffffffff1690819003620037e8576040516374a086a360e01b815260040160405180910390fd5b63ffffffff8181165f908152608860205260409020600781015490918516600160401b9091046001600160401b0316036200383657604051634f61d51960e01b815260040160405180910390fd5b63ffffffff84165f908152607f60205260409020600180820154600160e81b900460ff16151590036200387c57604051633b8d3d9960e01b815260040160405180910390fd5b60018101546007830154600160801b900460ff908116600160e01b9092041614620038ba57604051635aa0d5f160e11b815260040160405180910390fd5b6001818101805491840180546001600160a01b0390931673ffffffffffffffffffffffffffffffffffffffff1984168117825591546001600160e01b0319909316909117600160a01b928390046001600160401b0390811690930217905560078301805467ffffffffffffffff60401b191663ffffffff8816600160401b021790556006830154600160c01b81048216600160801b909104909116146200397457604051639d59507b60e01b815260040160405180910390fd5b5f620039808462000cff565b60078401805467ffffffffffffffff19166001600160401b038316179055825460405163278f794360e11b81529192506001600160a01b0389811692634f1ef28692620039d492169089906004016200544d565b5f604051808303815f87803b158015620039ec575f80fd5b505af1158015620039ff573d5f803e3d5ffd5b50506040805163ffffffff8a811682526001600160401b0386166020830152881693507ff585e04c05d396901170247783d3e5f0ee9c1df23072985b50af089f5e48b19d92500160405180910390a250505050505050565b606f5460ff1662003a7b57604051635386698160e01b815260040160405180910390fd5b606f805460ff191690556040517f1e5e34eea33501aecf2ebec9fe0e884a40804275ea7fe10b2ba084c8374308b3905f90a1565b60605f8062003ac18661010062005040565b62003ace90601462005212565b905060405192508060408401016040528083526020830191505f805f5b8881101562003baa575f8a8a8381811062003b0a5762003b0a62005228565b62003b2292602060c090920201908101915062004a93565b90508363ffffffff168163ffffffff161162003b51576040516328fe7b1560e11b815260040160405180910390fd5b8093505f62003b8d8c8c8581811062003b6e5762003b6e62005228565b905060c0020180360381019062003b86919062005280565b8862004635565b9750905062003b9d8185620053b0565b9350505060010162003aeb565b503360601b84525f7f30644e72e131a029b85045b68181585d2833e84879b9709143e1f593f000000160028760405162003be59190620053d3565b602060405180830381855afa15801562003c01573d5f803e3d5ffd5b5050506040513d601f19601f8201168201806040525081019062003c269190620051d7565b62003c3291906200523c565b90505f60018a900362003c995760885f8c8c5f81811062003c575762003c5762005228565b62003c6f92602060c090920201908101915062004a93565b63ffffffff16815260208101919091526040015f20600101546001600160a01b0316905062003cae565b50608754600160401b90046001600160a01b03165b604080516020810182528381529051634890ed4560e11b81526001600160a01b03831691639121da8a9162003ce8918c91600401620053f0565b602060405180830381865afa15801562003d04573d5f803e3d5ffd5b505050506040513d601f19601f8201168201806040525081019062003d2a91906200542c565b62003d48576040516309bde33960e01b815260040160405180910390fd5b62003d9f89846001600160801b031662003d6162001bd5565b62003d6d919062005040565b6001600160a01b037f000000000000000000000000000000000000000000000000000000000000000016919062004732565b62003dab8380620053b0565b5050608480547fffffffffffffffff0000000000000000ffffffffffffffffffffffffffffffff16600160801b426001600160401b03160217905550505050505050505050565b608080545f918291829062003e0d9063ffffffff1662005084565b91906101000a81548163ffffffff021916908363ffffffff160217905590508060835f866001600160401b03166001600160401b031681526020019081526020015f205f6101000a81548163ffffffff021916908363ffffffff1602179055508060825f896001600160a01b03166001600160a01b031681526020019081526020015f205f6101000a81548163ffffffff021916908363ffffffff16021790555060885f8263ffffffff1663ffffffff1681526020019081526020015f20915086825f015f6101000a8154816001600160a01b0302191690836001600160a01b03160217905550848260010160146101000a8154816001600160401b0302191690836001600160401b0316021790555085826001015f6101000a8154816001600160a01b0302191690836001600160a01b0316021790555083825f0160146101000a8154816001600160401b0302191690836001600160401b03160217905550828260070160106101000a81548160ff021916908360ff1602179055508063ffffffff167fadfc7d56f7e39b08b321534f14bfb135ad27698f7d2f5ad0edc2356ea9a3f850868987875f604051620040009594939291906001600160401b0395861681526001600160a01b03949094166020850152918416604084015260ff166060830152909116608082015260a00190565b60405180910390a25095945050505050565b5f6200401e83620030f9565b6001600160401b038082165f9081526003860160205260408082206001908101549387168352908220015492935084929091829162004076916001600160801b03600160801b918290048116929190910416620051ef565b6085546001600160801b039190911691505f90620040a590600160401b90046001600160401b03164262005252565b90505b846001600160401b0316846001600160401b03161462004132576001600160401b038085165f908152600389016020526040902060018101549091168210156200410157620040f960018662005470565b94506200412b565b60018101546200412290600160801b90046001600160801b03168462005252565b93505062004132565b50620040a8565b5f6200413f848462005252565b905080841015620041a3576305f5e10084820304600c811162004163578062004166565b600c5b9050806103e80a81608560109054906101000a900461ffff1661ffff160a608a54028162004198576200419862005192565b04608a555062004220565b6305f5e10081850304600c8111620041bc5780620041bf565b600c5b90505f816103e80a82608560109054906101000a900461ffff1661ffff160a670de0b6b3a76400000281620041f857620041f862005192565b04905080608a54670de0b6b3a7640000028162004219576200421962005192565b04608a5550505b670de0b6b3a7640000608a5411156200424557670de0b6b3a7640000608a5562002c2f565b6001608a54101562002c2f576001608a555050505050505050565b60068101546001600160401b03600160c01b82048116600160801b909204161115620023055760068101545f90620042aa90600160c01b90046001600160401b031660016200505a565b9050620042b88282620030b5565b15620010bd5760068201545f90600290620042e5908490600160801b90046001600160401b031662005470565b620042f1919062005493565b620042fd90836200505a565b90506200430b8382620030b5565b156200431d5762000f7e8382620033fe565b62000f7e8383620033fe565b5f8281526034602090815260408083206001600160a01b038516845290915290205460ff16620010bd57604051637615be1f60e11b815260040160405180910390fd5b60078301545f906001600160401b039081169083161015620043a15760405163f5f2eb1360e01b815260040160405180910390fd5b5f6001600160401b03841615620044425760068501546001600160401b03600160801b90910481169085161115620043ec5760405163bb14c20560e01b815260040160405180910390fd5b506001600160401b038084165f9081526004860160205260409020600281015481549092858116600160401b90920416146200443b5760405163686446b160e01b815260040160405180910390fd5b506200447c565b506001600160401b0382165f908152600285016020526040902054806200447c576040516324cbdcc360e11b815260040160405180910390fd5b949350505050565b6001600160401b038087165f81815260038a01602052604080822054938916825281205490929115801590620044b8575081155b15620044d75760405163340c614f60e11b815260040160405180910390fd5b80620044f6576040516366385b5160e01b815260040160405180910390fd5b62004501856200479b565b6200451f576040516305dae44f60e21b815260040160405180910390fd5b6001600160401b039889165f90815260038b01602090815260408083206001908101549b909c1683528083208c01549887528682018390528601939093527fffffffffffffffff000000000000000000000000000000000000000000000000600160401b998a900460c090811b821660608801528c54851b60688801529a909b015490921b6070850152607884019490945260988301525060b881019190915292900490921b90921660d883015260e08201526101000190565b606f5460ff1615620045fe57604051630bc011ff60e21b815260040160405180910390fd5b606f805460ff191660011790556040517f2261efe5aef6fedc1fd1550b25facc9181745623049c7901287030b9ad1a5497905f90a1565b815163ffffffff165f90815260886020908152604080832091850151908501518392918391620046679184916200436c565b90505f6200467583620030f9565b9050806001600160401b031687606001516001600160401b031611620046ae576040516321798fc960e11b815260040160405180910390fd5b5f620046d08489604001518a606001518b60800151878d60a001518d62004484565b6001600160401b038084165f90815260038701602052604080822060019081015460608e015190941683529120015491925062004725916001600160801b03600160801b9283900481169290910416620051ef565b9890975095505050505050565b604080516001600160a01b038416602482015260448082018490528251808303909101815260649091019091526020810180517bffffffffffffffffffffffffffffffffffffffffffffffffffffffff1663a9059cbb60e01b17905262000f7e9084906200481f565b5f67ffffffff000000016001600160401b038316108015620047d1575067ffffffff00000001604083901c6001600160401b0316105b8015620047f2575067ffffffff00000001608083901c6001600160401b0316105b80156200480a575067ffffffff0000000160c083901c105b156200481857506001919050565b505f919050565b5f62004875826040518060400160405280602081526020017f5361666545524332303a206c6f772d6c6576656c2063616c6c206661696c6564815250856001600160a01b0316620048f79092919063ffffffff16565b80519091501562000f7e57808060200190518101906200489691906200542c565b62000f7e5760405162461bcd60e51b815260206004820152602a60248201527f5361666545524332303a204552433230206f7065726174696f6e20646964206e6044820152691bdd081cdd58d8d9595960b21b60648201526084016200183b565b60606200447c84845f85855f80866001600160a01b031685876040516200491f9190620053d3565b5f6040518083038185875af1925050503d805f81146200495b576040519150601f19603f3d011682016040523d82523d5f602084013e62004960565b606091505b509150915062004973878383876200497e565b979650505050505050565b60608315620049f15782515f03620049e9576001600160a01b0385163b620049e95760405162461bcd60e51b815260206004820152601d60248201527f416464726573733a2063616c6c20746f206e6f6e2d636f6e747261637400000060448201526064016200183b565b50816200447c565b6200447c838381511562004a085781518083602001fd5b8060405162461bcd60e51b81526004016200183b9190620054bb565b61091d80620054d083390190565b803563ffffffff8116811462003163575f80fd5b80356001600160401b038116811462003163575f80fd5b5f806040838503121562004a6f575f80fd5b62004a7a8362004a32565b915062004a8a6020840162004a46565b90509250929050565b5f6020828403121562004aa4575f80fd5b62000cf68262004a32565b80610300810183101562000cf9575f80fd5b5f805f805f805f806103e0898b03121562004ada575f80fd5b62004ae58962004a32565b975062004af560208a0162004a46565b965062004b0560408a0162004a46565b955062004b1560608a0162004a46565b945062004b2560808a0162004a46565b935060a0890135925060c0890135915062004b448a60e08b0162004aaf565b90509295985092959890939650565b5f6020828403121562004b64575f80fd5b5035919050565b6001600160a01b038116811462002305575f80fd5b5f806040838503121562004b92575f80fd5b82359150602083013562004ba68162004b6b565b809150509250929050565b5f6020828403121562004bc2575f80fd5b62000cf68262004a46565b634e487b7160e01b5f52604160045260245ffd5b5f6001600160401b038084111562004bfd5762004bfd62004bcd565b604051601f8501601f19908116603f0116810190828211818310171562004c285762004c2862004bcd565b8160405280935085815286868601111562004c41575f80fd5b858560208301375f602087830101525050509392505050565b5f82601f83011262004c6a575f80fd5b62000cf68383356020850162004be1565b5f805f805f805f60e0888a03121562004c92575f80fd5b62004c9d8862004a32565b965062004cad6020890162004a46565b9550604088013562004cbf8162004b6b565b9450606088013562004cd18162004b6b565b9350608088013562004ce38162004b6b565b925060a08801356001600160401b038082111562004cff575f80fd5b62004d0d8b838c0162004c5a565b935060c08a013591508082111562004d23575f80fd5b5062004d328a828b0162004c5a565b91505092959891949750929550565b5f6020828403121562004d52575f80fd5b813561ffff8116811462004d64575f80fd5b9392505050565b5f805f6060848603121562004d7e575f80fd5b833562004d8b8162004b6b565b925062004d9b6020850162004a32565b915060408401356001600160401b0381111562004db6575f80fd5b8401601f8101861362004dc7575f80fd5b62004dd88682356020840162004be1565b9150509250925092565b5f6020828403121562004df3575f80fd5b813562004d648162004b6b565b5f805f80610340858703121562004e15575f80fd5b84356001600160401b038082111562004e2c575f80fd5b818701915087601f83011262004e40575f80fd5b81358181111562004e4f575f80fd5b88602060c08302850101111562004e64575f80fd5b6020928301965094505085013562004e7c8162004b6b565b915062004e8d866040870162004aaf565b905092959194509250565b5f806040838503121562004eaa575f80fd5b823562004eb78162004b6b565b915062004a8a6020840162004a32565b803560ff8116811462003163575f80fd5b5f805f805f8060c0878903121562004eee575f80fd5b863562004efb8162004b6b565b9550602087013562004f0d8162004b6b565b945062004f1d6040880162004a46565b935062004f2d6060880162004a46565b92506080870135915062004f4460a0880162004ec7565b90509295509295509295565b5f805f805f8060c0878903121562004f66575f80fd5b863562004f738162004b6b565b9550602087013562004f858162004b6b565b945062004f956040880162004a46565b935062004fa56060880162004ec7565b92506080870135915060a08701356001600160401b0381111562004fc7575f80fd5b62004fd589828a0162004c5a565b9150509295509295509295565b5f805f6060848603121562004ff5575f80fd5b83356001600160801b03811681146200500c575f80fd5b92506200501c6020850162004a46565b9150604084013590509250925092565b634e487b7160e01b5f52601160045260245ffd5b808202811582820484141762000cf95762000cf96200502c565b6001600160401b038181168382160190808211156200507d576200507d6200502c565b5092915050565b5f63ffffffff8083168181036200509f576200509f6200502c565b6001019392505050565b5f5b83811015620050c5578181015183820152602001620050ab565b50505f910152565b5f8151808452620050e6816020860160208601620050a9565b601f01601f19169290920160200192915050565b5f6001600160a01b03808616835280851660208401525060606040830152620051276060830184620050cd565b95945050505050565b5f6001600160a01b038089168352808816602084015263ffffffff8716604084015280861660608401525060c060808301526200517160c0830185620050cd565b82810360a0840152620051858185620050cd565b9998505050505050505050565b634e487b7160e01b5f52601260045260245ffd5b5f82620051b757620051b762005192565b500490565b5f60018201620051d057620051d06200502c565b5060010190565b5f60208284031215620051e8575f80fd5b5051919050565b6001600160801b038281168282160390808211156200507d576200507d6200502c565b8082018082111562000cf95762000cf96200502c565b634e487b7160e01b5f52603260045260245ffd5b5f826200524d576200524d62005192565b500690565b8181038181111562000cf95762000cf96200502c565b5f816200527957620052796200502c565b505f190190565b5f60c0828403121562005291575f80fd5b60405160c081018181106001600160401b0382111715620052b657620052b662004bcd565b604052620052c48362004a32565b8152620052d46020840162004a46565b6020820152620052e76040840162004a46565b6040820152620052fa6060840162004a46565b60608201526080830135608082015260a083013560a08201528091505092915050565b5f602082840312156200532e575f80fd5b815162004d648162004b6b565b5f6001600160401b038083168181036200509f576200509f6200502c565b5f6001600160a01b0380891683528088166020840152506001600160401b038616604083015260ff8516606083015283608083015260c060a0830152620053a460c0830184620050cd565b98975050505050505050565b6001600160801b038181168382160190808211156200507d576200507d6200502c565b5f8251620053e6818460208701620050a9565b9190910192915050565b6103208101610300808584378201835f5b60018110156200542257815183526020928301929091019060010162005401565b5050509392505050565b5f602082840312156200543d575f80fd5b8151801515811462004d64575f80fd5b6001600160a01b0383168152604060208201525f6200447c6040830184620050cd565b6001600160401b038281168282160390808211156200507d576200507d6200502c565b5f6001600160401b0380841680620054af57620054af62005192565b92169190910492915050565b602081525f62000cf66020830184620050cd56fe60a06040526040516200091d3803806200091d833981016040819052620000269162000375565b828162000034828262000060565b50506001600160a01b038216608052620000576200005160805190565b620000c5565b5050506200046c565b6200006b8262000136565b6040516001600160a01b038316907fbc7cd75a20ee27fd9adebab32041f755214dbc6bffa90cc0225b39da2e5c2d3b905f90a2805115620000b757620000b28282620001b5565b505050565b620000c16200022e565b5050565b7f7e644d79422f17c01e4894b5f4f588d331ebfa28653d42ae832dc59e38c9798f620001065f80516020620008fd833981519152546001600160a01b031690565b604080516001600160a01b03928316815291841660208301520160405180910390a1620001338162000250565b50565b806001600160a01b03163b5f036200017157604051634c9c8ce360e01b81526001600160a01b03821660048201526024015b60405180910390fd5b807f360894a13ba1a3210667c828492db98dca3e2076cc3735a920a3ca505d382bbc5b80546001600160a01b0319166001600160a01b039290921691909117905550565b60605f80846001600160a01b031684604051620001d391906200044f565b5f60405180830381855af49150503d805f81146200020d576040519150601f19603f3d011682016040523d82523d5f602084013e62000212565b606091505b5090925090506200022585838362000291565b95945050505050565b34156200024e5760405163b398979f60e01b815260040160405180910390fd5b565b6001600160a01b0381166200027b57604051633173bdd160e11b81525f600482015260240162000168565b805f80516020620008fd83398151915262000194565b606082620002aa57620002a482620002f7565b620002f0565b8151158015620002c257506001600160a01b0384163b155b15620002ed57604051639996b31560e01b81526001600160a01b038516600482015260240162000168565b50805b9392505050565b805115620003085780518082602001fd5b604051630a12f52160e11b815260040160405180910390fd5b80516001600160a01b038116811462000338575f80fd5b919050565b634e487b7160e01b5f52604160045260245ffd5b5f5b838110156200036d57818101518382015260200162000353565b50505f910152565b5f805f6060848603121562000388575f80fd5b620003938462000321565b9250620003a36020850162000321565b60408501519092506001600160401b0380821115620003c0575f80fd5b818601915086601f830112620003d4575f80fd5b815181811115620003e957620003e96200033d565b604051601f8201601f19908116603f011681019083821181831017156200041457620004146200033d565b816040528281528960208487010111156200042d575f80fd5b6200044083602083016020880162000351565b80955050505050509250925092565b5f82516200046281846020870162000351565b9190910192915050565b608051610479620004845f395f601001526104795ff3fe608060405261000c61000e565b005b7f00000000000000000000000000000000000000000000000000000000000000006001600160a01b03163303610081575f357fffffffff000000000000000000000000000000000000000000000000000000001663278f794360e11b1461007957610077610085565b565b610077610095565b6100775b6100776100906100c3565b6100fa565b5f806100a43660048184610313565b8101906100b1919061034e565b915091506100bf8282610118565b5050565b5f6100f57f360894a13ba1a3210667c828492db98dca3e2076cc3735a920a3ca505d382bbc546001600160a01b031690565b905090565b365f80375f80365f845af43d5f803e808015610114573d5ff35b3d5ffd5b61012182610172565b6040516001600160a01b038316907fbc7cd75a20ee27fd9adebab32041f755214dbc6bffa90cc0225b39da2e5c2d3b905f90a280511561016a5761016582826101fa565b505050565b6100bf61026c565b806001600160a01b03163b5f036101ac57604051634c9c8ce360e01b81526001600160a01b03821660048201526024015b60405180910390fd5b7f360894a13ba1a3210667c828492db98dca3e2076cc3735a920a3ca505d382bbc805473ffffffffffffffffffffffffffffffffffffffff19166001600160a01b0392909216919091179055565b60605f80846001600160a01b0316846040516102169190610417565b5f60405180830381855af49150503d805f811461024e576040519150601f19603f3d011682016040523d82523d5f602084013e610253565b606091505b509150915061026385838361028b565b95945050505050565b34156100775760405163b398979f60e01b815260040160405180910390fd5b6060826102a05761029b826102ea565b6102e3565b81511580156102b757506001600160a01b0384163b155b156102e057604051639996b31560e01b81526001600160a01b03851660048201526024016101a3565b50805b9392505050565b8051156102fa5780518082602001fd5b604051630a12f52160e11b815260040160405180910390fd5b5f8085851115610321575f80fd5b8386111561032d575f80fd5b5050820193919092039150565b634e487b7160e01b5f52604160045260245ffd5b5f806040838503121561035f575f80fd5b82356001600160a01b0381168114610375575f80fd5b9150602083013567ffffffffffffffff80821115610391575f80fd5b818501915085601f8301126103a4575f80fd5b8135818111156103b6576103b661033a565b604051601f8201601f19908116603f011681019083821181831017156103de576103de61033a565b816040528281528860208487010111156103f6575f80fd5b826020860160208301375f6020848301015280955050505050509250929050565b5f82515f5b81811015610436576020818601810151858301520161041c565b505f92019182525091905056fea2646970667358221220cdb50aeb657f43ff038a16fe0b1c0e5f0d88a7122cf9eee7cfe0167fe21044db64736f6c63430008180033b53127684a568b3173ae13b9f8a6016e243e63b6e8ee1178d6a717850b5d6103a2646970667358221220f04deec52f95bd17f45524f0387264f4a659e8c8f0679527fc3ccc9b491277c064736f6c63430008180033",
  "linkReferences": {},
  "deployedLinkReferences": {}
}