{
  "_format": "hh-sol-artifact-1",
  "contractName": "PolygonRollupManager",
  "sourceName": "contracts/v2/PolygonRollupManager.sol",
  "abi": [
    {
      "inputs": [
        {
          "internalType": "contract IPolygonZkEVMGlobalExitRootV2",
          "name": "_globalExitRootManager",
          "type": "address"
        },
        {
          "internalType": "contract IERC20Upgradeable",
          "name": "_pol",
          "type": "address"
        },
        {
          "internalType": "contract IPolygonZkEVMBridge",
          "name": "_bridgeAddress",
          "type": "address"
        }
      ],
      "stateMutability": "nonpayable",
      "type": "constructor"
    },
    {
      "inputs": [],
      "name": "AccessControlOnlyCanRenounceRolesForSelf",
      "type": "error"
    },
    {
      "inputs": [],
      "name": "AddressDoNotHaveRequiredRole",
      "type": "error"
    },
    {
      "inputs": [],
      "name": "AllBatchesMustBeVerified",
      "type": "error"
    },
    {
      "inputs": [],
      "name": "AllSequencedMustBeVerified",
      "type": "error"
    },
    {
      "inputs": [],
      "name": "AllzkEVMSequencedBatchesMustBeVerified",
      "type": "error"
    },
    {
      "inputs": [],
      "name": "BatchFeeOutOfRange",
      "type": "error"
    },
    {
      "inputs": [],
      "name": "CannotUpdateWithUnconsolidatedPendingState",
      "type": "error"
    },
    {
      "inputs": [],
      "name": "ChainIDAlreadyExist",
      "type": "error"
    },
    {
      "inputs": [],
      "name": "ChainIDOutOfRange",
      "type": "error"
    },
    {
      "inputs": [],
      "name": "EmptyVerifySequencesData",
      "type": "error"
    },
    {
      "inputs": [],
      "name": "ExceedMaxVerifyBatches",
      "type": "error"
    },
    {
      "inputs": [],
      "name": "FinalNumBatchBelowLastVerifiedBatch",
      "type": "error"
    },
    {
      "inputs": [],
      "name": "FinalNumBatchDoesNotMatchPendingState",
      "type": "error"
    },
    {
      "inputs": [],
      "name": "FinalNumSequenceBelowLastVerifiedSequence",
      "type": "error"
    },
    {
      "inputs": [],
      "name": "FinalNumSequenceDoesNotMatchPendingState",
      "type": "error"
    },
    {
      "inputs": [],
      "name": "FinalPendingStateNumInvalid",
      "type": "error"
    },
    {
      "inputs": [],
      "name": "GlobalExitRootNotExist",
      "type": "error"
    },
    {
      "inputs": [],
      "name": "HaltTimeoutNotExpired",
      "type": "error"
    },
    {
      "inputs": [],
      "name": "InitBatchMustMatchCurrentForkID",
      "type": "error"
    },
    {
      "inputs": [],
      "name": "InitNumBatchAboveLastVerifiedBatch",
      "type": "error"
    },
    {
      "inputs": [],
      "name": "InitNumBatchDoesNotMatchPendingState",
      "type": "error"
    },
    {
      "inputs": [],
      "name": "InitSequenceMustMatchCurrentForkID",
      "type": "error"
    },
    {
      "inputs": [],
      "name": "InitSequenceNumDoesNotMatchPendingState",
      "type": "error"
    },
    {
      "inputs": [],
      "name": "InvalidPessimisticProof",
      "type": "error"
    },
    {
      "inputs": [],
      "name": "InvalidProof",
      "type": "error"
    },
    {
      "inputs": [],
      "name": "InvalidRangeBatchTimeTarget",
      "type": "error"
    },
    {
      "inputs": [],
      "name": "InvalidRangeMultiplierBatchFee",
      "type": "error"
    },
    {
      "inputs": [],
      "name": "InvalidRangeMultiplierZkGasPrice",
      "type": "error"
    },
    {
      "inputs": [],
      "name": "InvalidRangeSequenceTimeTarget",
      "type": "error"
    },
    {
      "inputs": [],
      "name": "InvalidRollup",
      "type": "error"
    },
    {
      "inputs": [],
      "name": "InvalidRollupType",
      "type": "error"
    },
    {
      "inputs": [],
      "name": "MustSequenceSomeBatch",
      "type": "error"
    },
    {
      "inputs": [],
      "name": "MustSequenceSomeBlob",
      "type": "error"
    },
    {
      "inputs": [],
      "name": "NewAccInputHashDoesNotExist",
      "type": "error"
    },
    {
      "inputs": [],
      "name": "NewPendingStateTimeoutMustBeLower",
      "type": "error"
    },
    {
      "inputs": [],
      "name": "NewStateRootNotInsidePrime",
      "type": "error"
    },
    {
      "inputs": [],
      "name": "NewTrustedAggregatorTimeoutMustBeLower",
      "type": "error"
    },
    {
      "inputs": [],
      "name": "NotAllowedAddress",
      "type": "error"
    },
    {
      "inputs": [],
      "name": "OldAccInputHashDoesNotExist",
      "type": "error"
    },
    {
      "inputs": [],
      "name": "OldStateRootDoesNotExist",
      "type": "error"
    },
    {
      "inputs": [],
      "name": "OnlyChainsWithPessimisticProofs",
      "type": "error"
    },
    {
      "inputs": [],
      "name": "OnlyEmergencyState",
      "type": "error"
    },
    {
      "inputs": [],
      "name": "OnlyNotEmergencyState",
      "type": "error"
    },
    {
      "inputs": [],
      "name": "OnlyPessimisticChains",
      "type": "error"
    },
    {
      "inputs": [],
      "name": "OnlyRollupAdmin",
      "type": "error"
    },
    {
      "inputs": [],
      "name": "OnlyStateTransitionChains",
      "type": "error"
    },
    {
      "inputs": [],
      "name": "PendingStateDoesNotExist",
      "type": "error"
    },
    {
      "inputs": [],
      "name": "PendingStateInvalid",
      "type": "error"
    },
    {
      "inputs": [],
      "name": "PendingStateNotConsolidable",
      "type": "error"
    },
    {
      "inputs": [],
      "name": "PendingStateNumExist",
      "type": "error"
    },
    {
      "inputs": [],
      "name": "RollbackBatchIsNotEndOfSequence",
      "type": "error"
    },
    {
      "inputs": [],
      "name": "RollbackBatchIsNotValid",
      "type": "error"
    },
    {
      "inputs": [],
      "name": "RollupAddressAlreadyExist",
      "type": "error"
    },
    {
      "inputs": [],
      "name": "RollupIDNotAscendingOrder",
      "type": "error"
    },
    {
      "inputs": [],
      "name": "RollupMustExist",
      "type": "error"
    },
    {
      "inputs": [],
      "name": "RollupTypeDoesNotExist",
      "type": "error"
    },
    {
      "inputs": [],
      "name": "RollupTypeObsolete",
      "type": "error"
    },
    {
      "inputs": [],
      "name": "SenderMustBeRollup",
      "type": "error"
    },
    {
      "inputs": [],
      "name": "StoredRootMustBeDifferentThanNewRoot",
      "type": "error"
    },
    {
      "inputs": [],
      "name": "TrustedAggregatorTimeoutNotExpired",
      "type": "error"
    },
    {
      "inputs": [],
      "name": "UpdateNotCompatible",
      "type": "error"
    },
    {
      "inputs": [],
      "name": "UpdateToOldRollupTypeID",
      "type": "error"
    },
    {
      "inputs": [],
      "name": "UpdateToSameRollupTypeID",
      "type": "error"
    },
    {
      "inputs": [],
      "name": "zkGasPriceOfRange",
      "type": "error"
    },
    {
      "anonymous": false,
      "inputs": [
        {
          "indexed": true,
          "internalType": "uint32",
          "name": "rollupID",
          "type": "uint32"
        },
        {
          "indexed": false,
          "internalType": "uint64",
          "name": "forkID",
          "type": "uint64"
        },
        {
          "indexed": false,
          "internalType": "address",
          "name": "rollupAddress",
          "type": "address"
        },
        {
          "indexed": false,
          "internalType": "uint64",
          "name": "chainID",
          "type": "uint64"
        },
        {
          "indexed": false,
          "internalType": "enum PolygonRollupManager.VerifierType",
          "name": "rollupVerifierType",
          "type": "uint8"
        },
        {
          "indexed": false,
          "internalType": "uint64",
          "name": "lastVerifiedBatchBeforeUpgrade",
          "type": "uint64"
        },
        {
          "indexed": false,
          "internalType": "bytes32",
          "name": "programVKey",
          "type": "bytes32"
        }
      ],
      "name": "AddExistingRollup",
      "type": "event"
    },
    {
      "anonymous": false,
      "inputs": [
        {
          "indexed": true,
          "internalType": "uint32",
          "name": "rollupTypeID",
          "type": "uint32"
        },
        {
          "indexed": false,
          "internalType": "address",
          "name": "consensusImplementation",
          "type": "address"
        },
        {
          "indexed": false,
          "internalType": "address",
          "name": "verifier",
          "type": "address"
        },
        {
          "indexed": false,
          "internalType": "uint64",
          "name": "forkID",
          "type": "uint64"
        },
        {
          "indexed": false,
          "internalType": "enum PolygonRollupManager.VerifierType",
          "name": "rollupVerifierType",
          "type": "uint8"
        },
        {
          "indexed": false,
          "internalType": "bytes32",
          "name": "genesis",
          "type": "bytes32"
        },
        {
          "indexed": false,
          "internalType": "string",
          "name": "description",
          "type": "string"
        }
      ],
      "name": "AddNewRollupType",
      "type": "event"
    },
    {
      "anonymous": false,
      "inputs": [
        {
          "indexed": true,
          "internalType": "uint32",
          "name": "rollupID",
          "type": "uint32"
        },
        {
          "indexed": false,
          "internalType": "uint32",
          "name": "rollupTypeID",
          "type": "uint32"
        },
        {
          "indexed": false,
          "internalType": "address",
          "name": "rollupAddress",
          "type": "address"
        },
        {
          "indexed": false,
          "internalType": "uint64",
          "name": "chainID",
          "type": "uint64"
        },
        {
          "indexed": false,
          "internalType": "address",
          "name": "gasTokenAddress",
          "type": "address"
        }
      ],
      "name": "CreateNewRollup",
      "type": "event"
    },
    {
      "anonymous": false,
      "inputs": [],
      "name": "EmergencyStateActivated",
      "type": "event"
    },
    {
      "anonymous": false,
      "inputs": [],
      "name": "EmergencyStateDeactivated",
      "type": "event"
    },
    {
      "anonymous": false,
      "inputs": [
        {
          "indexed": false,
          "internalType": "uint8",
          "name": "version",
          "type": "uint8"
        }
      ],
      "name": "Initialized",
      "type": "event"
    },
    {
      "anonymous": false,
      "inputs": [
        {
          "indexed": true,
          "internalType": "uint32",
          "name": "rollupTypeID",
          "type": "uint32"
        }
      ],
      "name": "ObsoleteRollupType",
      "type": "event"
    },
    {
      "anonymous": false,
      "inputs": [
        {
          "indexed": true,
          "internalType": "uint32",
          "name": "rollupID",
          "type": "uint32"
        },
        {
          "indexed": false,
          "internalType": "uint64",
          "name": "lastBatchSequenced",
          "type": "uint64"
        }
      ],
      "name": "OnSequenceBatches",
      "type": "event"
    },
    {
      "anonymous": false,
      "inputs": [
        {
          "indexed": true,
          "internalType": "bytes32",
          "name": "role",
          "type": "bytes32"
        },
        {
          "indexed": true,
          "internalType": "bytes32",
          "name": "previousAdminRole",
          "type": "bytes32"
        },
        {
          "indexed": true,
          "internalType": "bytes32",
          "name": "newAdminRole",
          "type": "bytes32"
        }
      ],
      "name": "RoleAdminChanged",
      "type": "event"
    },
    {
      "anonymous": false,
      "inputs": [
        {
          "indexed": true,
          "internalType": "bytes32",
          "name": "role",
          "type": "bytes32"
        },
        {
          "indexed": true,
          "internalType": "address",
          "name": "account",
          "type": "address"
        },
        {
          "indexed": true,
          "internalType": "address",
          "name": "sender",
          "type": "address"
        }
      ],
      "name": "RoleGranted",
      "type": "event"
    },
    {
      "anonymous": false,
      "inputs": [
        {
          "indexed": true,
          "internalType": "bytes32",
          "name": "role",
          "type": "bytes32"
        },
        {
          "indexed": true,
          "internalType": "address",
          "name": "account",
          "type": "address"
        },
        {
          "indexed": true,
          "internalType": "address",
          "name": "sender",
          "type": "address"
        }
      ],
      "name": "RoleRevoked",
      "type": "event"
    },
    {
      "anonymous": false,
      "inputs": [
        {
          "indexed": true,
          "internalType": "uint32",
          "name": "rollupID",
          "type": "uint32"
        },
        {
          "indexed": true,
          "internalType": "uint64",
          "name": "targetBatch",
          "type": "uint64"
        },
        {
          "indexed": false,
          "internalType": "bytes32",
          "name": "accInputHashToRollback",
          "type": "bytes32"
        }
      ],
      "name": "RollbackBatches",
      "type": "event"
    },
    {
      "anonymous": false,
      "inputs": [
        {
          "indexed": false,
          "internalType": "uint256",
          "name": "newBatchFee",
          "type": "uint256"
        }
      ],
      "name": "SetBatchFee",
      "type": "event"
    },
    {
      "anonymous": false,
      "inputs": [
        {
          "indexed": false,
          "internalType": "address",
          "name": "newTrustedAggregator",
          "type": "address"
        }
      ],
      "name": "SetTrustedAggregator",
      "type": "event"
    },
    {
      "anonymous": false,
      "inputs": [
        {
          "indexed": true,
          "internalType": "uint32",
          "name": "rollupID",
          "type": "uint32"
        },
        {
          "indexed": false,
          "internalType": "uint32",
          "name": "newRollupTypeID",
          "type": "uint32"
        },
        {
          "indexed": false,
          "internalType": "uint64",
          "name": "lastVerifiedBatchBeforeUpgrade",
          "type": "uint64"
        }
      ],
      "name": "UpdateRollup",
      "type": "event"
    },
    {
      "anonymous": false,
      "inputs": [
        {
          "indexed": true,
          "internalType": "uint32",
          "name": "rollupID",
          "type": "uint32"
        },
        {
          "indexed": false,
          "internalType": "uint64",
          "name": "numBatch",
          "type": "uint64"
        },
        {
          "indexed": false,
          "internalType": "bytes32",
          "name": "stateRoot",
          "type": "bytes32"
        },
        {
          "indexed": false,
          "internalType": "bytes32",
          "name": "exitRoot",
          "type": "bytes32"
        },
        {
          "indexed": true,
          "internalType": "address",
          "name": "aggregator",
          "type": "address"
        }
      ],
      "name": "VerifyBatchesTrustedAggregator",
      "type": "event"
    },
    {
      "inputs": [],
      "name": "DEFAULT_ADMIN_ROLE",
      "outputs": [
        {
          "internalType": "bytes32",
          "name": "",
          "type": "bytes32"
        }
      ],
      "stateMutability": "view",
      "type": "function"
    },
    {
      "inputs": [],
      "name": "activateEmergencyState",
      "outputs": [],
      "stateMutability": "nonpayable",
      "type": "function"
    },
    {
      "inputs": [
        {
          "internalType": "contract IPolygonRollupBase",
          "name": "rollupAddress",
          "type": "address"
        },
        {
          "internalType": "contract IVerifierRollup",
          "name": "verifier",
          "type": "address"
        },
        {
          "internalType": "uint64",
          "name": "forkID",
          "type": "uint64"
        },
        {
          "internalType": "uint64",
          "name": "chainID",
          "type": "uint64"
        },
        {
          "internalType": "bytes32",
          "name": "genesis",
          "type": "bytes32"
        },
        {
          "internalType": "enum PolygonRollupManager.VerifierType",
          "name": "rollupVerifierType",
          "type": "uint8"
        },
        {
          "internalType": "bytes32",
          "name": "programVKey",
          "type": "bytes32"
        }
      ],
      "name": "addExistingRollup",
      "outputs": [],
      "stateMutability": "nonpayable",
      "type": "function"
    },
    {
      "inputs": [
        {
          "internalType": "address",
          "name": "consensusImplementation",
          "type": "address"
        },
        {
          "internalType": "contract IVerifierRollup",
          "name": "verifier",
          "type": "address"
        },
        {
          "internalType": "uint64",
          "name": "forkID",
          "type": "uint64"
        },
        {
          "internalType": "enum PolygonRollupManager.VerifierType",
          "name": "rollupVerifierType",
          "type": "uint8"
        },
        {
          "internalType": "bytes32",
          "name": "genesis",
          "type": "bytes32"
        },
        {
          "internalType": "string",
          "name": "description",
          "type": "string"
        },
        {
          "internalType": "bytes32",
          "name": "programVKey",
          "type": "bytes32"
        }
      ],
      "name": "addNewRollupType",
      "outputs": [],
      "stateMutability": "nonpayable",
      "type": "function"
    },
    {
      "inputs": [],
      "name": "bridgeAddress",
      "outputs": [
        {
          "internalType": "contract IPolygonZkEVMBridge",
          "name": "",
          "type": "address"
        }
      ],
      "stateMutability": "view",
      "type": "function"
    },
    {
      "inputs": [],
      "name": "calculateRewardPerBatch",
      "outputs": [
        {
          "internalType": "uint256",
          "name": "",
          "type": "uint256"
        }
      ],
      "stateMutability": "view",
      "type": "function"
    },
    {
      "inputs": [
        {
          "internalType": "uint64",
          "name": "chainID",
          "type": "uint64"
        }
      ],
      "name": "chainIDToRollupID",
      "outputs": [
        {
          "internalType": "uint32",
          "name": "rollupID",
          "type": "uint32"
        }
      ],
      "stateMutability": "view",
      "type": "function"
    },
    {
      "inputs": [
        {
          "internalType": "uint32",
          "name": "rollupTypeID",
          "type": "uint32"
        },
        {
          "internalType": "uint64",
          "name": "chainID",
          "type": "uint64"
        },
        {
          "internalType": "address",
          "name": "admin",
          "type": "address"
        },
        {
          "internalType": "address",
          "name": "sequencer",
          "type": "address"
        },
        {
          "internalType": "address",
          "name": "gasTokenAddress",
          "type": "address"
        },
        {
          "internalType": "string",
          "name": "sequencerURL",
          "type": "string"
        },
        {
          "internalType": "string",
          "name": "networkName",
          "type": "string"
        }
      ],
      "name": "createNewRollup",
      "outputs": [],
      "stateMutability": "nonpayable",
      "type": "function"
    },
    {
      "inputs": [],
      "name": "deactivateEmergencyState",
      "outputs": [],
      "stateMutability": "nonpayable",
      "type": "function"
    },
    {
      "inputs": [],
      "name": "getBatchFee",
      "outputs": [
        {
          "internalType": "uint256",
          "name": "",
          "type": "uint256"
        }
      ],
      "stateMutability": "view",
      "type": "function"
    },
    {
      "inputs": [],
      "name": "getForcedBatchFee",
      "outputs": [
        {
          "internalType": "uint256",
          "name": "",
          "type": "uint256"
        }
      ],
      "stateMutability": "view",
      "type": "function"
    },
    {
      "inputs": [
        {
          "internalType": "uint32",
          "name": "rollupID",
          "type": "uint32"
        },
        {
          "internalType": "uint64",
          "name": "initNumBatch",
          "type": "uint64"
        },
        {
          "internalType": "uint64",
          "name": "finalNewBatch",
          "type": "uint64"
        },
        {
          "internalType": "bytes32",
          "name": "newLocalExitRoot",
          "type": "bytes32"
        },
        {
          "internalType": "bytes32",
          "name": "oldStateRoot",
          "type": "bytes32"
        },
        {
          "internalType": "bytes32",
          "name": "newStateRoot",
          "type": "bytes32"
        }
      ],
      "name": "getInputSnarkBytes",
      "outputs": [
        {
          "internalType": "bytes",
          "name": "",
          "type": "bytes"
        }
      ],
      "stateMutability": "view",
      "type": "function"
    },
    {
      "inputs": [
        {
          "internalType": "uint32",
          "name": "rollupID",
          "type": "uint32"
        }
      ],
      "name": "getLastVerifiedBatch",
      "outputs": [
        {
          "internalType": "uint64",
          "name": "",
          "type": "uint64"
        }
      ],
      "stateMutability": "view",
      "type": "function"
    },
    {
      "inputs": [
        {
          "internalType": "bytes32",
          "name": "role",
          "type": "bytes32"
        }
      ],
      "name": "getRoleAdmin",
      "outputs": [
        {
          "internalType": "bytes32",
          "name": "",
          "type": "bytes32"
        }
      ],
      "stateMutability": "view",
      "type": "function"
    },
    {
      "inputs": [
        {
          "internalType": "uint32",
          "name": "rollupID",
          "type": "uint32"
        },
        {
          "internalType": "uint64",
          "name": "batchNum",
          "type": "uint64"
        }
      ],
      "name": "getRollupBatchNumToStateRoot",
      "outputs": [
        {
          "internalType": "bytes32",
          "name": "",
          "type": "bytes32"
        }
      ],
      "stateMutability": "view",
      "type": "function"
    },
    {
      "inputs": [],
      "name": "getRollupExitRoot",
      "outputs": [
        {
          "internalType": "bytes32",
          "name": "",
          "type": "bytes32"
        }
      ],
      "stateMutability": "view",
      "type": "function"
    },
    {
      "inputs": [
        {
          "internalType": "uint32",
          "name": "rollupID",
          "type": "uint32"
        },
        {
          "internalType": "uint64",
          "name": "batchNum",
          "type": "uint64"
        }
      ],
      "name": "getRollupSequencedBatches",
      "outputs": [
        {
          "components": [
            {
              "internalType": "bytes32",
              "name": "accInputHash",
              "type": "bytes32"
            },
            {
              "internalType": "uint64",
              "name": "sequencedTimestamp",
              "type": "uint64"
            },
            {
              "internalType": "uint64",
              "name": "previousLastBatchSequenced",
              "type": "uint64"
            }
          ],
          "internalType": "struct LegacyZKEVMStateVariables.SequencedBatchData",
          "name": "",
          "type": "tuple"
        }
      ],
      "stateMutability": "view",
      "type": "function"
    },
    {
      "inputs": [],
      "name": "globalExitRootManager",
      "outputs": [
        {
          "internalType": "contract IPolygonZkEVMGlobalExitRootV2",
          "name": "",
          "type": "address"
        }
      ],
      "stateMutability": "view",
      "type": "function"
    },
    {
      "inputs": [
        {
          "internalType": "bytes32",
          "name": "role",
          "type": "bytes32"
        },
        {
          "internalType": "address",
          "name": "account",
          "type": "address"
        }
      ],
      "name": "grantRole",
      "outputs": [],
      "stateMutability": "nonpayable",
      "type": "function"
    },
    {
      "inputs": [
        {
          "internalType": "bytes32",
          "name": "role",
          "type": "bytes32"
        },
        {
          "internalType": "address",
          "name": "account",
          "type": "address"
        }
      ],
      "name": "hasRole",
      "outputs": [
        {
          "internalType": "bool",
          "name": "",
          "type": "bool"
        }
      ],
      "stateMutability": "view",
      "type": "function"
    },
    {
      "inputs": [],
      "name": "isEmergencyState",
      "outputs": [
        {
          "internalType": "bool",
          "name": "",
          "type": "bool"
        }
      ],
      "stateMutability": "view",
      "type": "function"
    },
    {
      "inputs": [],
      "name": "lastAggregationTimestamp",
      "outputs": [
        {
          "internalType": "uint64",
          "name": "",
          "type": "uint64"
        }
      ],
      "stateMutability": "view",
      "type": "function"
    },
    {
      "inputs": [],
      "name": "lastDeactivatedEmergencyStateTimestamp",
      "outputs": [
        {
          "internalType": "uint64",
          "name": "",
          "type": "uint64"
        }
      ],
      "stateMutability": "view",
      "type": "function"
    },
    {
      "inputs": [
        {
          "internalType": "uint32",
          "name": "rollupTypeID",
          "type": "uint32"
        }
      ],
      "name": "obsoleteRollupType",
      "outputs": [],
      "stateMutability": "nonpayable",
      "type": "function"
    },
    {
      "inputs": [
        {
          "internalType": "uint64",
          "name": "newSequencedBatches",
          "type": "uint64"
        },
        {
          "internalType": "bytes32",
          "name": "newAccInputHash",
          "type": "bytes32"
        }
      ],
      "name": "onSequenceBatches",
      "outputs": [
        {
          "internalType": "uint64",
          "name": "",
          "type": "uint64"
        }
      ],
      "stateMutability": "nonpayable",
      "type": "function"
    },
    {
      "inputs": [],
      "name": "pol",
      "outputs": [
        {
          "internalType": "contract IERC20Upgradeable",
          "name": "",
          "type": "address"
        }
      ],
      "stateMutability": "view",
      "type": "function"
    },
    {
      "inputs": [
        {
          "internalType": "bytes32",
          "name": "role",
          "type": "bytes32"
        },
        {
          "internalType": "address",
          "name": "account",
          "type": "address"
        }
      ],
      "name": "renounceRole",
      "outputs": [],
      "stateMutability": "nonpayable",
      "type": "function"
    },
    {
      "inputs": [
        {
          "internalType": "bytes32",
          "name": "role",
          "type": "bytes32"
        },
        {
          "internalType": "address",
          "name": "account",
          "type": "address"
        }
      ],
      "name": "revokeRole",
      "outputs": [],
      "stateMutability": "nonpayable",
      "type": "function"
    },
    {
      "inputs": [
        {
          "internalType": "contract IPolygonRollupBase",
          "name": "rollupContract",
          "type": "address"
        },
        {
          "internalType": "uint64",
          "name": "targetBatch",
          "type": "uint64"
        }
      ],
      "name": "rollbackBatches",
      "outputs": [],
      "stateMutability": "nonpayable",
      "type": "function"
    },
    {
      "inputs": [
        {
          "internalType": "contract IPolygonRollupBase",
          "name": "rollupContract",
          "type": "address"
        },
        {
          "internalType": "uint64",
          "name": "targetBatch",
          "type": "uint64"
        }
      ],
      "name": "rollbackBatches",
      "outputs": [],
      "stateMutability": "nonpayable",
      "type": "function"
    },
    {
      "inputs": [
        {
          "internalType": "address",
          "name": "rollupAddress",
          "type": "address"
        }
      ],
      "name": "rollupAddressToID",
      "outputs": [
        {
          "internalType": "uint32",
          "name": "rollupID",
          "type": "uint32"
        }
      ],
      "stateMutability": "view",
      "type": "function"
    },
    {
      "inputs": [],
      "name": "rollupCount",
      "outputs": [
        {
          "internalType": "uint32",
          "name": "",
          "type": "uint32"
        }
      ],
      "stateMutability": "view",
      "type": "function"
    },
    {
      "inputs": [
        {
          "internalType": "uint32",
          "name": "rollupID",
          "type": "uint32"
        }
      ],
      "name": "rollupIDToRollupData",
      "outputs": [
        {
          "internalType": "contract IPolygonRollupBase",
          "name": "rollupContract",
          "type": "address"
        },
        {
          "internalType": "uint64",
          "name": "chainID",
          "type": "uint64"
        },
        {
          "internalType": "contract IVerifierRollup",
          "name": "verifier",
          "type": "address"
        },
        {
          "internalType": "uint64",
          "name": "forkID",
          "type": "uint64"
        },
        {
          "internalType": "bytes32",
          "name": "lastLocalExitRoot",
          "type": "bytes32"
        },
        {
          "internalType": "uint64",
          "name": "lastBatchSequenced",
          "type": "uint64"
        },
        {
          "internalType": "uint64",
          "name": "lastVerifiedBatch",
          "type": "uint64"
        },
        {
          "internalType": "uint128",
          "name": "_legacyLastPendingState",
          "type": "uint128"
        },
        {
          "internalType": "uint64",
          "name": "lastVerifiedBatchBeforeUpgrade",
          "type": "uint64"
        },
        {
          "internalType": "uint64",
          "name": "rollupTypeID",
          "type": "uint64"
        },
        {
          "internalType": "enum PolygonRollupManager.VerifierType",
          "name": "rollupVerifierType",
          "type": "uint8"
        },
        {
          "internalType": "bytes32",
          "name": "lastPessimisticRoot",
          "type": "bytes32"
        },
        {
          "internalType": "bytes32",
          "name": "programVKey",
          "type": "bytes32"
        }
      ],
      "stateMutability": "view",
      "type": "function"
    },
    {
      "inputs": [],
      "name": "rollupTypeCount",
      "outputs": [
        {
          "internalType": "uint32",
          "name": "",
          "type": "uint32"
        }
      ],
      "stateMutability": "view",
      "type": "function"
    },
    {
      "inputs": [
        {
          "internalType": "uint32",
          "name": "rollupTypeID",
          "type": "uint32"
        }
      ],
      "name": "rollupTypeMap",
      "outputs": [
        {
          "internalType": "address",
          "name": "consensusImplementation",
          "type": "address"
        },
        {
          "internalType": "contract IVerifierRollup",
          "name": "verifier",
          "type": "address"
        },
        {
          "internalType": "uint64",
          "name": "forkID",
          "type": "uint64"
        },
        {
          "internalType": "enum PolygonRollupManager.VerifierType",
          "name": "rollupVerifierType",
          "type": "uint8"
        },
        {
          "internalType": "bool",
          "name": "obsolete",
          "type": "bool"
        },
        {
          "internalType": "bytes32",
          "name": "genesis",
          "type": "bytes32"
        },
        {
          "internalType": "bytes32",
          "name": "programVKey",
          "type": "bytes32"
        }
      ],
      "stateMutability": "view",
      "type": "function"
    },
    {
      "inputs": [
        {
          "internalType": "uint256",
          "name": "newBatchFee",
          "type": "uint256"
        }
      ],
      "name": "setBatchFee",
      "outputs": [],
      "stateMutability": "nonpayable",
      "type": "function"
    },
    {
      "inputs": [],
      "name": "totalSequencedBatches",
      "outputs": [
        {
          "internalType": "uint64",
          "name": "",
          "type": "uint64"
        }
      ],
      "stateMutability": "view",
      "type": "function"
    },
    {
      "inputs": [],
      "name": "totalVerifiedBatches",
      "outputs": [
        {
          "internalType": "uint64",
          "name": "",
          "type": "uint64"
        }
      ],
      "stateMutability": "view",
      "type": "function"
    },
    {
      "inputs": [
        {
          "internalType": "contract ITransparentUpgradeableProxy",
          "name": "rollupContract",
          "type": "address"
        },
        {
          "internalType": "uint32",
          "name": "newRollupTypeID",
          "type": "uint32"
        },
        {
          "internalType": "bytes",
          "name": "upgradeData",
          "type": "bytes"
        }
      ],
      "name": "updateRollup",
      "outputs": [],
      "stateMutability": "nonpayable",
      "type": "function"
    },
    {
      "inputs": [
        {
          "internalType": "contract ITransparentUpgradeableProxy",
          "name": "rollupContract",
          "type": "address"
        },
        {
          "internalType": "uint32",
          "name": "newRollupTypeID",
          "type": "uint32"
        }
      ],
      "name": "updateRollupByRollupAdmin",
      "outputs": [],
      "stateMutability": "nonpayable",
      "type": "function"
    },
    {
      "inputs": [
        {
          "internalType": "uint32",
          "name": "rollupID",
          "type": "uint32"
        },
        {
          "internalType": "uint64",
          "name": "pendingStateNum",
          "type": "uint64"
        },
        {
          "internalType": "uint64",
          "name": "initNumBatch",
          "type": "uint64"
        },
        {
          "internalType": "uint64",
          "name": "finalNewBatch",
          "type": "uint64"
        },
        {
          "internalType": "bytes32",
          "name": "newLocalExitRoot",
          "type": "bytes32"
        },
        {
          "internalType": "bytes32",
          "name": "newStateRoot",
          "type": "bytes32"
        },
        {
          "internalType": "address",
          "name": "beneficiary",
          "type": "address"
        },
        {
          "internalType": "bytes32[24]",
          "name": "proof",
          "type": "bytes32[24]"
        }
      ],
      "name": "verifyBatchesTrustedAggregator",
      "outputs": [],
      "stateMutability": "nonpayable",
      "type": "function"
    },
    {
      "inputs": [
        {
          "internalType": "uint32",
          "name": "rollupID",
          "type": "uint32"
        },
        {
          "internalType": "bytes32",
          "name": "selectedGlobalExitRoot",
          "type": "bytes32"
        },
        {
          "internalType": "bytes32",
          "name": "newLocalExitRoot",
          "type": "bytes32"
        },
        {
          "internalType": "bytes32",
          "name": "newPessimisticRoot",
          "type": "bytes32"
        },
        {
          "internalType": "bytes",
          "name": "proof",
          "type": "bytes"
        }
      ],
      "name": "verifyPessimisticTrustedAggregator",
      "outputs": [],
      "stateMutability": "nonpayable",
      "type": "function"
    }
  ],
  "bytecode": "0x60e060405234801562000010575f80fd5b5060405162004c0e38038062004c0e833981016040819052620000339162000136565b6001600160a01b0380841660805282811660c052811660a052620000566200005f565b50505062000187565b5f54610100900460ff1615620000cb5760405162461bcd60e51b815260206004820152602760248201527f496e697469616c697a61626c653a20636f6e747261637420697320696e697469604482015266616c697a696e6760c81b606482015260840160405180910390fd5b5f5460ff90811610156200011c575f805460ff191660ff9081179091556040519081527f7f26b83ff96e1f2b6a682f133852f6798a09c465da95921460cefb38474024989060200160405180910390a15b565b6001600160a01b038116811462000133575f80fd5b50565b5f805f6060848603121562000149575f80fd5b835162000156816200011e565b602085015190935062000169816200011e565b60408501519092506200017c816200011e565b809150509250925092565b60805160a05160c051614a2b620001e35f395f81816107a3015281816118bd0152612ac901525f818161065f015281816122be0152612b9501525f8181610711015281816109eb0152818161259401526127830152614a2b5ff3fe608060405234801562000010575f80fd5b50600436106200028c575f3560e01c806391d14854116200016b578063ceee281d11620000df578063dde0ff77116200009f578063e4a4b6a21162000077578063e4a4b6a214620007c5578063f4e9267514620007dc578063f9c4c2ae14620007ed575f80fd5b8063dde0ff77146200076b578063dfdb8c5e1462000786578063e46761c4146200079d575f80fd5b8063ceee281d14620006e3578063d02103ca146200070b578063d5073f6f1462000733578063d547741f146200074a578063dbc169761462000761575f80fd5b8063a2967d99116200012b578063a2967d99146200064f578063a3c573eb1462000659578063abcb5198146200069a578063c1acbc3414620006b1578063c4c928c214620006cc575f80fd5b806391d1485414620005d457806397bf07e8146200060f57806399f5634e14620006265780639a908e731462000630578063a217fddf1462000647575f80fd5b806336568abe11620002035780637222020f11620001c35780637222020f1462000541578063727885e914620005585780637975fcfe146200056f5780637fb6e76a14620005955780638fd88cc214620005bd575f80fd5b806336568abe1462000454578063477fa270146200046b57806355a71ee014620004745780636046916914620004b757806365c0504d14620004c1575f80fd5b80632072f6c5116200024f5780632072f6c51462000337578063248a9ca314620003415780632528016914620003755780632f2ff15d146200042957806330c27dde1462000440575f80fd5b8063066ec012146200029057806311f6b28714620002c15780631489ed1014620002d857806315064c9614620002f15780631796a1ae1462000310575b5f80fd5b608454620002a4906001600160401b031681565b6040516001600160401b0390911681526020015b60405180910390f35b620002a4620002d236600462003558565b620008b2565b620002ef620002e9366004620035a7565b620008e1565b005b606f54620002ff9060ff1681565b6040519015158152602001620002b8565b607e54620003219063ffffffff1681565b60405163ffffffff9091168152602001620002b8565b620002ef62000ad1565b620003666200035236600462003641565b5f9081526034602052604090206001015490565b604051908152602001620002b8565b620003f56200038636600462003659565b60408051606080820183525f808352602080840182905292840181905263ffffffff959095168552608182528285206001600160401b03948516865260030182529382902082519485018352805485526001015480841691850191909152600160401b90049091169082015290565b60408051825181526020808401516001600160401b03908116918301919091529282015190921690820152606001620002b8565b620002ef6200043a3660046200368f565b62000bad565b608754620002a4906001600160401b031681565b620002ef620004653660046200368f565b62000bda565b60865462000366565b620003666200048536600462003659565b63ffffffff82165f9081526081602090815260408083206001600160401b038516845260020190915290205492915050565b6200036662000c14565b6200052c620004d236600462003558565b607f6020525f908152604090208054600182015460028301546003909301546001600160a01b0392831693928216926001600160401b03600160a01b8404169260ff600160e01b8204811693600160e81b90920416919087565b604051620002b89796959493929190620036f5565b620002ef6200055236600462003558565b62000c2b565b620002ef62000569366004620037f7565b62000d25565b6200058662000580366004620038bd565b620011b7565b604051620002b8919062003970565b62000321620005a636600462003984565b60836020525f908152604090205463ffffffff1681565b620002ef620005ce366004620039a0565b620011e9565b620002ff620005e53660046200368f565b5f9182526034602090815260408084206001600160a01b0393909316845291905290205460ff1690565b620002ef62000620366004620039ce565b62001584565b620003666200189c565b620002a46200064136600462003a50565b6200197d565b620003665f81565b6200036662001b3a565b620006817f000000000000000000000000000000000000000000000000000000000000000081565b6040516001600160a01b039091168152602001620002b8565b620002ef620006ab36600462003a7b565b62001f02565b608454620002a490600160801b90046001600160401b031681565b620002ef620006dd36600462003b17565b6200215b565b62000321620006f436600462003b8e565b60826020525f908152604090205463ffffffff1681565b620006817f000000000000000000000000000000000000000000000000000000000000000081565b620002ef6200074436600462003641565b6200219a565b620002ef6200075b3660046200368f565b6200223c565b620002ef62002264565b608454620002a490600160401b90046001600160401b031681565b620002ef6200079736600462003bac565b62002330565b620006817f000000000000000000000000000000000000000000000000000000000000000081565b620002ef620007d636600462003bdb565b620024fa565b608054620003219063ffffffff1681565b62000897620007fe36600462003558565b60816020525f908152604090208054600182015460058301546006840154600785015460088601546009909601546001600160a01b0380871697600160a01b978890046001600160401b039081169892881697929092048216959482811694600160401b808304851695600160801b938490046fffffffffffffffffffffffffffffffff169580841695928404169390920460ff16918d565b604051620002b89d9c9b9a9998979695949392919062003c78565b63ffffffff81165f90815260816020526040812060060154600160401b90046001600160401b03165b92915050565b7f084e94f375e9d647f87f5b2ceffba1e062c70f6009fdbcf80291e803b5c9edd46200090d8162002850565b6001600160401b03881615620009365760405163306dfc5760e11b815260040160405180910390fd5b63ffffffff89165f908152608160205260408120906007820154600160801b900460ff1660018111156200096e576200096e620036c0565b146200098d576040516390db0d0760e01b815260040160405180910390fd5b6200099e818989898989896200285c565b6006810180546fffffffffffffffff00000000000000001916600160401b6001600160401b038a16908102919091179091555f9081526002820160205260409020859055600581018690557f00000000000000000000000000000000000000000000000000000000000000006001600160a01b03166333d6247d62000a2262001b3a565b6040518263ffffffff1660e01b815260040162000a4191815260200190565b5f604051808303815f87803b15801562000a59575f80fd5b505af115801562000a6c573d5f803e3d5ffd5b5050604080516001600160401b038b1681526020810189905290810189905233925063ffffffff8d1691507fd1ec3a1216f08b6eff72e169ceb548b782db18a6614852618d86bb19f3f9b0d3906060015b60405180910390a350505050505050505050565b335f9081527f8875b94af5657a2903def9906d67a3f42d8a836d24b5602c00f00fc855339fcd602052604090205460ff1662000ba157608454600160801b90046001600160401b0316158062000b525750608454429062000b479062093a8090600160801b90046001600160401b031662003d39565b6001600160401b0316115b8062000b825750608754429062000b779062093a80906001600160401b031662003d39565b6001600160401b0316115b1562000ba15760405163692baaad60e11b815260040160405180910390fd5b62000bab62002b93565b565b5f8281526034602052604090206001015462000bc98162002850565b62000bd5838362002c0d565b505050565b6001600160a01b038116331462000c0457604051630b4ad1cd60e31b815260040160405180910390fd5b62000c10828262002c91565b5050565b5f608654606462000c26919062003d63565b905090565b7fab66e11c4f712cd06ab11bf9339b48bef39e12d4a22eeef71d2860a0c90482bd62000c578162002850565b63ffffffff8216158062000c765750607e5463ffffffff908116908316115b1562000c9557604051637512e5cb60e01b815260040160405180910390fd5b63ffffffff82165f908152607f60205260409020600180820154600160e81b900460ff161515900362000cdb57604051633b8d3d9960e01b815260040160405180910390fd5b60018101805460ff60e81b1916600160e81b17905560405163ffffffff8416907f4710d2ee567ef1ed6eb2f651dde4589524bcf7cebc62147a99b281cc836e7e44905f90a2505050565b7fa0fab074aba36a6fa69f1a83ee86e5abfb8433966eb57efb13dc2fc2f24ddd0862000d518162002850565b63ffffffff8816158062000d705750607e5463ffffffff908116908916115b1562000d8f57604051637512e5cb60e01b815260040160405180910390fd5b63ffffffff88165f908152607f60205260409020600180820154600160e81b900460ff161515900362000dd557604051633b8d3d9960e01b815260040160405180910390fd5b63ffffffff6001600160401b038916111562000e0457604051634c753f5760e01b815260040160405180910390fd5b6001600160401b0388165f9081526083602052604090205463ffffffff161562000e41576040516337c8fe0960e11b815260040160405180910390fd5b608080545f9190829062000e5b9063ffffffff1662003d7d565b825463ffffffff8281166101009490940a93840293021916919091179091558254604080515f80825260208201928390529394506001600160a01b0390921691309162000ea89062003536565b62000eb69392919062003da2565b604051809103905ff08015801562000ed0573d5f803e3d5ffd5b5090508160835f8c6001600160401b03166001600160401b031681526020019081526020015f205f6101000a81548163ffffffff021916908363ffffffff1602179055508160825f836001600160a01b03166001600160a01b031681526020019081526020015f205f6101000a81548163ffffffff021916908363ffffffff1602179055505f60815f8463ffffffff1663ffffffff1681526020019081526020015f20905081815f015f6101000a8154816001600160a01b0302191690836001600160a01b031602179055508360010160149054906101000a90046001600160401b03168160010160146101000a8154816001600160401b0302191690836001600160401b03160217905550836001015f9054906101000a90046001600160a01b0316816001015f6101000a8154816001600160a01b0302191690836001600160a01b031602179055508a815f0160146101000a8154816001600160401b0302191690836001600160401b031602179055508360020154816002015f806001600160401b031681526020019081526020015f20819055508b63ffffffff168160070160086101000a8154816001600160401b0302191690836001600160401b0316021790555083600101601c9054906101000a900460ff168160070160106101000a81548160ff02191690836001811115620010d057620010d0620036c0565b0217905550600384015460098201556040805163ffffffff8e811682526001600160a01b0385811660208401526001600160401b038f16838501528b1660608301529151918516917f194c983456df6701c6a50830b90fe80e72b823411d0d524970c9590dc277a6419181900360800190a2604051633892b81160e11b81526001600160a01b038316906371257022906200117a908d908d9088908e908e908e9060040162003dd8565b5f604051808303815f87803b15801562001192575f80fd5b505af1158015620011a5573d5f803e3d5ffd5b50505050505050505050505050505050565b63ffffffff86165f908152608160205260409020606090620011de90878787878762002d13565b979650505050505050565b335f9081527ff14f5a8ad59d90593602e905b358229bff5ceea677d5bf0f5a1701793550a9a6602052604090205460ff161580156200129d5750336001600160a01b0316826001600160a01b031663f851a4406040518163ffffffff1660e01b81526004016020604051808303815f875af11580156200126b573d5f803e3d5ffd5b505050506040513d601f19601f8201168201806040525081019062001291919062003e3a565b6001600160a01b031614155b15620012bc57604051630d03687f60e11b815260040160405180910390fd5b6001600160a01b0382165f9081526082602052604081205463ffffffff1690819003620012fc576040516374a086a360e01b815260040160405180910390fd5b63ffffffff81165f908152608160205260408120906007820154600160801b900460ff166001811115620013345762001334620036c0565b1462001353576040516390db0d0760e01b815260040160405180910390fd5b60068101546001600160401b03908116908416811115806200138c575060068201546001600160401b03600160401b9091048116908516105b15620013ab5760405163cb23ebdf60e01b815260040160405180910390fd5b805b846001600160401b0316816001600160401b0316146200144f576001600160401b038082165f908152600385016020526040902060010154600160401b900481169086168110156200141257604051639753965f60e01b815260040160405180910390fd5b6001600160401b039091165f908152600384016020526040812090815560010180546fffffffffffffffffffffffffffffffff19169055620013ad565b60068301805467ffffffffffffffff19166001600160401b03871617905562001479858362003e58565b608480545f90620014959084906001600160401b031662003e58565b82546101009290920a6001600160401b0381810219909316918316021790915586165f8181526003860160205260409081902054905163334d6f6760e11b8152600481019290925260248201526001600160a01b038816915063669adece906044015f604051808303815f87803b1580156200150f575f80fd5b505af115801562001522573d5f803e3d5ffd5b505050506001600160401b0385165f81815260038501602090815260409182902054915191825263ffffffff8716917f80a6d395a55aed8126079cb8247f0a6848b1440ca2cdca3b4386f250c3529402910160405180910390a3505050505050565b7f3dfe277d2a2c04b75fb2eb3743fa00005ae3678a20c299e65fdf4df76517f68e620015b08162002850565b6001600160401b0385165f9081526083602052604090205463ffffffff1615620015ed576040516337c8fe0960e11b815260040160405180910390fd5b63ffffffff6001600160401b03861611156200161c57604051634c753f5760e01b815260040160405180910390fd5b6001600160a01b0388165f9081526082602052604090205463ffffffff16156200165957604051630d409b9360e41b815260040160405180910390fd5b608080545f91908290620016739063ffffffff1662003d7d565b91906101000a81548163ffffffff021916908363ffffffff160217905590508060835f886001600160401b03166001600160401b031681526020019081526020015f205f6101000a81548163ffffffff021916908363ffffffff1602179055508060825f8b6001600160a01b03166001600160a01b031681526020019081526020015f205f6101000a81548163ffffffff021916908363ffffffff1602179055505f60815f8363ffffffff1663ffffffff1681526020019081526020015f20905089815f015f6101000a8154816001600160a01b0302191690836001600160a01b03160217905550878160010160146101000a8154816001600160401b0302191690836001600160401b0316021790555088816001015f6101000a8154816001600160a01b0302191690836001600160a01b0316021790555086815f0160146101000a8154816001600160401b0302191690836001600160401b03160217905550848160070160106101000a81548160ff02191690836001811115620017fd57620017fd620036c0565b02179055506001856001811115620018195762001819620036c0565b036200183357600981018490556005810186905562001846565b5f80805260028201602052604090208690555b8163ffffffff167fd490df184152edba8455dac3228134939c71f8cb4c8f310c3145dec9037147ac898c8a895f8a604051620018889695949392919062003e7b565b60405180910390a250505050505050505050565b6040516370a0823160e01b81523060048201525f9081906001600160a01b037f000000000000000000000000000000000000000000000000000000000000000016906370a0823190602401602060405180830381865afa15801562001903573d5f803e3d5ffd5b505050506040513d601f19601f8201168201806040525081019062001929919062003ec8565b6084549091505f906200194f906001600160401b03600160401b82048116911662003e58565b6001600160401b03169050805f036200196a575f9250505090565b62001976818362003ef4565b9250505090565b606f545f9060ff1615620019a457604051630bc011ff60e21b815260040160405180910390fd5b335f9081526082602052604081205463ffffffff1690819003620019db576040516371653c1560e01b815260040160405180910390fd5b836001600160401b03165f0362001a0557604051632590ccf960e01b815260040160405180910390fd5b63ffffffff81165f908152608160205260408120608480549192879262001a379084906001600160401b031662003d39565b82546101009290920a6001600160401b0381810219909316918316021790915560068301541690505f62001a6c878362003d39565b6006840180546001600160401b0383811667ffffffffffffffff199092168217909255604080516060810182528a815242841660208083019182528886168385019081525f86815260038c018352859020935184559151600193909301805492518716600160401b026fffffffffffffffffffffffffffffffff199093169390961692909217179093555190815291925063ffffffff8616917f1d9f30260051d51d70339da239ea7b080021adcaabfa71c9b0ea339a20cf9a25910160405180910390a29695505050505050565b6080545f9063ffffffff1680820362001b5457505f919050565b5f816001600160401b0381111562001b705762001b7062003749565b60405190808252806020026020018201604052801562001b9a578160200160208202803683370190505b5090505f5b8281101562001c0a5760815f62001bb883600162003f0a565b63ffffffff1663ffffffff1681526020019081526020015f206005015482828151811062001bea5762001bea62003f20565b60209081029190910101528062001c018162003f34565b91505062001b9f565b505f60205b8360011462001e62575f62001c2660028662003f4f565b62001c3360028762003ef4565b62001c3f919062003f0a565b90505f816001600160401b0381111562001c5d5762001c5d62003749565b60405190808252806020026020018201604052801562001c87578160200160208202803683370190505b5090505f5b8281101562001e0e5762001ca260018462003f65565b8114801562001cbd575062001cb960028862003f4f565b6001145b1562001d45578562001cd182600262003d63565b8151811062001ce45762001ce462003f20565b60200260200101518560405160200162001d08929190918252602082015260400190565b6040516020818303038152906040528051906020012082828151811062001d335762001d3362003f20565b60200260200101818152505062001df9565b8562001d5382600262003d63565b8151811062001d665762001d6662003f20565b60200260200101518682600262001d7e919062003d63565b62001d8b90600162003f0a565b8151811062001d9e5762001d9e62003f20565b602002602001015160405160200162001dc1929190918252602082015260400190565b6040516020818303038152906040528051906020012082828151811062001dec5762001dec62003f20565b6020026020010181815250505b8062001e058162003f34565b91505062001c8c565b50809450819550838460405160200162001e32929190918252602082015260400190565b604051602081830303815290604052805190602001209350828062001e579062003f7b565b935050505062001c0f565b5f835f8151811062001e785762001e7862003f20565b602002602001015190505f5b8281101562001ef857604080516020810184905290810185905260600160408051601f1981840301815282825280516020918201209083018790529082018690529250606001604051602081830303815290604052805190602001209350808062001eef9062003f34565b91505062001e84565b5095945050505050565b7fac75d24dbb35ea80e25fab167da4dea46c1915260426570db84f184891f5f59062001f2e8162002850565b607e80545f9190829062001f489063ffffffff1662003d7d565b91906101000a81548163ffffffff021916908363ffffffff1602179055905060018081111562001f7c5762001f7c620036c0565b86600181111562001f915762001f91620036c0565b14801562001f9e57508415155b1562001fbd576040516363d722e760e01b815260040160405180910390fd5b6040518060e001604052808a6001600160a01b03168152602001896001600160a01b03168152602001886001600160401b031681526020018760018111156200200a576200200a620036c0565b81525f602080830182905260408084018a9052606093840188905263ffffffff86168352607f825291829020845181546001600160a01b0391821673ffffffffffffffffffffffffffffffffffffffff199091161782559185015160018281018054958801516001600160401b0316600160a01b026001600160e01b0319909616929094169190911793909317808355938501519093909260ff60e01b1990911690600160e01b908490811115620020c657620020c6620036c0565b02179055506080820151600182018054911515600160e81b0260ff60e81b1990921691909117905560a0820151600282015560c09091015160039091015560405163ffffffff8216907fa2970448b3bd66ba7e524e7b2a5b9cf94fa29e32488fb942afdfe70dd4b77b529062002148908c908c908c908c908c908c9062003f93565b60405180910390a2505050505050505050565b7f66156603fe29d13f97c6f3e3dff4ef71919f9aa61c555be0182d954e94221aac620021878162002850565b6200219484848462002e6a565b50505050565b7f8cf807f6970720f8e2c208c7c5037595982c7bd9ed93c380d09df743d0dcc3fb620021c68162002850565b683635c9adc5dea00000821180620021e15750633b9aca0082105b156200220057604051638586952560e01b815260040160405180910390fd5b60868290556040518281527ffb383653f53ee079978d0c9aff7aeff04a10166ce244cca9c9f9d8d96bed45b29060200160405180910390a15050565b5f82815260346020526040902060010154620022588162002850565b62000bd5838362002c91565b7f62ba6ba2ffed8cfe316b583325ea41ac6e7ba9e5864d2bc6fabba7ac26d2f0f4620022908162002850565b6087805467ffffffffffffffff1916426001600160401b031617905560408051636de0b4bb60e11b815290517f00000000000000000000000000000000000000000000000000000000000000006001600160a01b03169163dbc16976916004808301925f92919082900301818387803b1580156200230c575f80fd5b505af11580156200231f573d5f803e3d5ffd5b505050506200232d620030e5565b50565b336001600160a01b0316826001600160a01b031663f851a4406040518163ffffffff1660e01b81526004016020604051808303815f875af115801562002378573d5f803e3d5ffd5b505050506040513d601f19601f820116820180604052508101906200239e919062003e3a565b6001600160a01b031614620023c65760405163696072e960e01b815260040160405180910390fd5b6001600160a01b0382165f9081526082602090815260408083205463ffffffff1683526081909152902060068101546001600160401b03808216600160401b9092041614620024285760405163664316a560e11b815260040160405180910390fd5b600781015463ffffffff8316600160401b9091046001600160401b0316106200246457604051633e37e23360e01b815260040160405180910390fd5b63ffffffff82165f908152607f60205260409020600190810154600160e01b900460ff16908111156200249b576200249b620036c0565b6007820154600160801b900460ff166001811115620024be57620024be620036c0565b14620024dd57604051635aa0d5f160e11b815260040160405180910390fd5b604080515f81526020810190915262000bd5908490849062002e6a565b7f084e94f375e9d647f87f5b2ceffba1e062c70f6009fdbcf80291e803b5c9edd4620025268162002850565b63ffffffff87165f90815260816020526040902060016007820154600160801b900460ff1660018111156200255f576200255f620036c0565b146200257e57604051633a64d97360e01b815260040160405180910390fd5b6040516312bd9b1960e11b8152600481018890527f00000000000000000000000000000000000000000000000000000000000000006001600160a01b03169063257b3632906024016020604051808303815f875af1158015620025e3573d5f803e3d5ffd5b505050506040513d601f19601f8201168201806040525081019062002609919062003ec8565b5f0362002629576040516373bd668d60e01b815260040160405180910390fd5b805460408051632b47b7cd60e21b815290515f926001600160a01b03169163ad1edf34916004808301926020929190829003018187875af115801562002671573d5f803e3d5ffd5b505050506040513d601f19601f8201168201806040525081019062002697919062003ec8565b60058301546008840154604080516020810193909352820152606081018a90526080810182905260a0810189905260c081018890529091505f9060e00160408051601f19818403018152908290526001850154600986015463020a49e360e51b84529193506001600160a01b0316916341493c6091620027209185908b908b9060040162003fee565b5f6040518083038186803b15801562002737575f80fd5b505afa1580156200274a573d5f803e3d5ffd5b50506084805467ffffffffffffffff60801b1916600160801b426001600160401b031602179055505060058301889055600883018790557f00000000000000000000000000000000000000000000000000000000000000006001600160a01b03166333d6247d620027ba62001b3a565b6040518263ffffffff1660e01b8152600401620027d991815260200190565b5f604051808303815f87803b158015620027f1575f80fd5b505af115801562002804573d5f803e3d5ffd5b5050604080515f80825260208201529081018b905233925063ffffffff8d1691507fd1ec3a1216f08b6eff72e169ceb548b782db18a6614852618d86bb19f3f9b0d39060600162000abd565b6200232d81336200313d565b5f806200287b89600601546001600160401b03600160401b9091041690565b60078a01549091506001600160401b039081169089161015620028b15760405163ead1340b60e01b815260040160405180910390fd5b6001600160401b0388165f90815260028a016020526040902054915081620028ec576040516324cbdcc360e11b815260040160405180910390fd5b806001600160401b0316886001600160401b031611156200292057604051630f2b74f160e11b815260040160405180910390fd5b806001600160401b0316876001600160401b031611620029535760405163b9b18f5760e01b815260040160405180910390fd5b5f620029648a8a8a8a878b62002d13565b90505f7f30644e72e131a029b85045b68181585d2833e84879b9709143e1f593f00000016002836040516200299a91906200403b565b602060405180830381855afa158015620029b6573d5f803e3d5ffd5b5050506040513d601f19601f82011682018060405250810190620029db919062003ec8565b620029e7919062003f4f565b60018c0154604080516020810182528381529051634890ed4560e11b81529293506001600160a01b0390911691639121da8a9162002a2b9189919060040162004058565b602060405180830381865afa15801562002a47573d5f803e3d5ffd5b505050506040513d601f19601f8201168201806040525081019062002a6d919062004094565b62002a8b576040516309bde33960e01b815260040160405180910390fd5b5f62002a98848b62003e58565b905062002af187826001600160401b031662002ab36200189c565b62002abf919062003d63565b6001600160a01b037f000000000000000000000000000000000000000000000000000000000000000016919062003180565b80608460088282829054906101000a90046001600160401b031662002b17919062003d39565b82546101009290920a6001600160401b038181021990931691831602179091556084805467ffffffffffffffff60801b1916600160801b428416021790558d546040516332c2d15360e01b8152918d166004830152602482018b90523360448301526001600160a01b031691506332c2d153906064016200117a565b7f00000000000000000000000000000000000000000000000000000000000000006001600160a01b0316632072f6c56040518163ffffffff1660e01b81526004015f604051808303815f87803b15801562002bec575f80fd5b505af115801562002bff573d5f803e3d5ffd5b5050505062000bab620031e9565b5f8281526034602090815260408083206001600160a01b038516845290915290205460ff1662000c10575f8281526034602090815260408083206001600160a01b0385168085529252808320805460ff1916600117905551339285917f2f8788117e7eff1d82e926ec794901d17c78024a50270940304540a733656f0d9190a45050565b5f8281526034602090815260408083206001600160a01b038516845290915290205460ff161562000c10575f8281526034602090815260408083206001600160a01b0385168085529252808320805460ff1916905551339285917ff6391f5c32d9c69d2a47ea670b442974b53935d1edc7fd64eb21e047a839171b9190a45050565b6001600160401b038086165f818152600389016020526040808220549388168252902054606092911580159062002d48575081155b1562002d675760405163340c614f60e11b815260040160405180910390fd5b8062002d86576040516366385b5160e01b815260040160405180910390fd5b62002d918462003245565b62002daf576040516305dae44f60e21b815260040160405180910390fd5b885460018a01546040516bffffffffffffffffffffffff193360601b16602082015260348101889052605481018590527fffffffffffffffff00000000000000000000000000000000000000000000000060c08c811b82166074840152600160a01b94859004811b8216607c84015293909204831b82166084820152608c810187905260ac810184905260cc81018990529189901b1660ec82015260f401604051602081830303815290604052925050509695505050505050565b63ffffffff8216158062002e895750607e5463ffffffff908116908316115b1562002ea857604051637512e5cb60e01b815260040160405180910390fd5b6001600160a01b0383165f9081526082602052604081205463ffffffff169081900362002ee8576040516374a086a360e01b815260040160405180910390fd5b63ffffffff8181165f908152608160205260409020600781015490918516600160401b9091046001600160401b03160362002f3657604051634f61d51960e01b815260040160405180910390fd5b63ffffffff84165f908152607f60205260409020600180820154600160e81b900460ff161515900362002f7c57604051633b8d3d9960e01b815260040160405180910390fd5b60018082018054918401805473ffffffffffffffffffffffffffffffffffffffff1981166001600160a01b03909416938417825591546001600160401b03600160a01b9182900416026001600160e01b0319909216909217179055600782018054600160401b63ffffffff8816026fffffffffffffffff0000000000000000199091161790555f6200300e84620008b2565b60078401805467ffffffffffffffff19166001600160401b038316179055825460405163278f794360e11b81529192506001600160a01b0389811692634f1ef28692620030629216908990600401620040b5565b5f604051808303815f87803b1580156200307a575f80fd5b505af11580156200308d573d5f803e3d5ffd5b50506040805163ffffffff8a811682526001600160401b0386166020830152881693507ff585e04c05d396901170247783d3e5f0ee9c1df23072985b50af089f5e48b19d92500160405180910390a250505050505050565b606f5460ff166200310957604051635386698160e01b815260040160405180910390fd5b606f805460ff191690556040517f1e5e34eea33501aecf2ebec9fe0e884a40804275ea7fe10b2ba084c8374308b3905f90a1565b5f8281526034602090815260408083206001600160a01b038516845290915290205460ff1662000c1057604051637615be1f60e11b815260040160405180910390fd5b604080516001600160a01b038416602482015260448082018490528251808303909101815260649091019091526020810180517bffffffffffffffffffffffffffffffffffffffffffffffffffffffff1663a9059cbb60e01b17905262000bd5908490620032ce565b606f5460ff16156200320e57604051630bc011ff60e21b815260040160405180910390fd5b606f805460ff191660011790556040517f2261efe5aef6fedc1fd1550b25facc9181745623049c7901287030b9ad1a5497905f90a1565b5f67ffffffff000000016001600160401b0383161080156200327b575067ffffffff00000001604083901c6001600160401b0316105b80156200329c575067ffffffff00000001608083901c6001600160401b0316105b8015620032b4575067ffffffff0000000160c083901c105b15620032c257506001919050565b505f919050565b919050565b5f62003324826040518060400160405280602081526020017f5361666545524332303a206c6f772d6c6576656c2063616c6c206661696c6564815250856001600160a01b0316620033aa9092919063ffffffff16565b80519091501562000bd5578080602001905181019062003345919062004094565b62000bd55760405162461bcd60e51b815260206004820152602a60248201527f5361666545524332303a204552433230206f7065726174696f6e20646964206e6044820152691bdd081cdd58d8d9595960b21b60648201526084015b60405180910390fd5b6060620033ba84845f85620033c2565b949350505050565b606082471015620034255760405162461bcd60e51b815260206004820152602660248201527f416464726573733a20696e73756666696369656e742062616c616e636520666f6044820152651c8818d85b1b60d21b6064820152608401620033a1565b5f80866001600160a01b031685876040516200344291906200403b565b5f6040518083038185875af1925050503d805f81146200347e576040519150601f19603f3d011682016040523d82523d5f602084013e62003483565b606091505b5091509150620011de8783838760608315620035035782515f03620034fb576001600160a01b0385163b620034fb5760405162461bcd60e51b815260206004820152601d60248201527f416464726573733a2063616c6c20746f206e6f6e2d636f6e74726163740000006044820152606401620033a1565b5081620033ba565b620033ba83838151156200351a5781518083602001fd5b8060405162461bcd60e51b8152600401620033a1919062003970565b61091d80620040d983390190565b803563ffffffff81168114620032c9575f80fd5b5f6020828403121562003569575f80fd5b620035748262003544565b9392505050565b80356001600160401b0381168114620032c9575f80fd5b6001600160a01b03811681146200232d575f80fd5b5f805f805f805f806103e0808a8c031215620035c1575f80fd5b620035cc8a62003544565b9850620035dc60208b016200357b565b9750620035ec60408b016200357b565b9650620035fc60608b016200357b565b955060808a0135945060a08a0135935060c08a01356200361c8162003592565b92508981018b10156200362d575f80fd5b5060e0890190509295985092959890939650565b5f6020828403121562003652575f80fd5b5035919050565b5f80604083850312156200366b575f80fd5b620036768362003544565b915062003686602084016200357b565b90509250929050565b5f8060408385031215620036a1575f80fd5b823591506020830135620036b58162003592565b809150509250929050565b634e487b7160e01b5f52602160045260245ffd5b60028110620036f157634e487b7160e01b5f52602160045260245ffd5b9052565b6001600160a01b038881168252871660208201526001600160401b038616604082015260e081016200372b6060830187620036d4565b931515608082015260a081019290925260c090910152949350505050565b634e487b7160e01b5f52604160045260245ffd5b5f6001600160401b038084111562003779576200377962003749565b604051601f8501601f19908116603f01168101908282118183101715620037a457620037a462003749565b81604052809350858152868686011115620037bd575f80fd5b858560208301375f602087830101525050509392505050565b5f82601f830112620037e6575f80fd5b62003574838335602085016200375d565b5f805f805f805f60e0888a0312156200380e575f80fd5b620038198862003544565b965062003829602089016200357b565b955060408801356200383b8162003592565b945060608801356200384d8162003592565b935060808801356200385f8162003592565b925060a08801356001600160401b03808211156200387b575f80fd5b620038898b838c01620037d6565b935060c08a01359150808211156200389f575f80fd5b50620038ae8a828b01620037d6565b91505092959891949750929550565b5f805f805f8060c08789031215620038d3575f80fd5b620038de8762003544565b9550620038ee602088016200357b565b9450620038fe604088016200357b565b9350606087013592506080870135915060a087013590509295509295509295565b5f5b838110156200393b57818101518382015260200162003921565b50505f910152565b5f81518084526200395c8160208601602086016200391f565b601f01601f19169290920160200192915050565b602081525f62003574602083018462003943565b5f6020828403121562003995575f80fd5b62003574826200357b565b5f8060408385031215620039b2575f80fd5b8235620036768162003592565b803560028110620032c9575f80fd5b5f805f805f805f60e0888a031215620039e5575f80fd5b8735620039f28162003592565b9650602088013562003a048162003592565b955062003a14604089016200357b565b945062003a24606089016200357b565b93506080880135925062003a3b60a08901620039bf565b915060c0880135905092959891949750929550565b5f806040838503121562003a62575f80fd5b62003a6d836200357b565b946020939093013593505050565b5f805f805f805f60e0888a03121562003a92575f80fd5b873562003a9f8162003592565b9650602088013562003ab18162003592565b955062003ac1604089016200357b565b945062003ad160608901620039bf565b93506080880135925060a08801356001600160401b0381111562003af3575f80fd5b62003b018a828b01620037d6565b92505060c0880135905092959891949750929550565b5f805f6060848603121562003b2a575f80fd5b833562003b378162003592565b925062003b476020850162003544565b915060408401356001600160401b0381111562003b62575f80fd5b8401601f8101861362003b73575f80fd5b62003b84868235602084016200375d565b9150509250925092565b5f6020828403121562003b9f575f80fd5b8135620035748162003592565b5f806040838503121562003bbe575f80fd5b823562003bcb8162003592565b9150620036866020840162003544565b5f805f805f8060a0878903121562003bf1575f80fd5b62003bfc8762003544565b955060208701359450604087013593506060870135925060808701356001600160401b038082111562003c2d575f80fd5b818901915089601f83011262003c41575f80fd5b81358181111562003c50575f80fd5b8a602082850101111562003c62575f80fd5b6020830194508093505050509295509295509295565b6001600160a01b038e811682526001600160401b038e81166020840152908d1660408301528b81166060830152608082018b905289811660a0830152881660c08201526101a081016fffffffffffffffffffffffffffffffff881660e08301526001600160401b0387166101008301526001600160401b03861661012083015262003d08610140830186620036d4565b61016082019390935261018001529b9a5050505050505050505050565b634e487b7160e01b5f52601160045260245ffd5b6001600160401b0381811683821601908082111562003d5c5762003d5c62003d25565b5092915050565b8082028115828204841417620008db57620008db62003d25565b5f63ffffffff80831681810362003d985762003d9862003d25565b6001019392505050565b5f6001600160a01b0380861683528085166020840152506060604083015262003dcf606083018462003943565b95945050505050565b5f6001600160a01b038089168352808816602084015263ffffffff8716604084015280861660608401525060c0608083015262003e1960c083018562003943565b82810360a084015262003e2d818562003943565b9998505050505050505050565b5f6020828403121562003e4b575f80fd5b8151620035748162003592565b6001600160401b0382811682821603908082111562003d5c5762003d5c62003d25565b6001600160401b0387811682526001600160a01b0387166020830152858116604083015260c082019062003eb36060840187620036d4565b93909316608082015260a00152949350505050565b5f6020828403121562003ed9575f80fd5b5051919050565b634e487b7160e01b5f52601260045260245ffd5b5f8262003f055762003f0562003ee0565b500490565b80820180821115620008db57620008db62003d25565b634e487b7160e01b5f52603260045260245ffd5b5f6001820162003f485762003f4862003d25565b5060010190565b5f8262003f605762003f6062003ee0565b500690565b81810381811115620008db57620008db62003d25565b5f8162003f8c5762003f8c62003d25565b505f190190565b6001600160a01b038781168252861660208201526001600160401b03851660408201525f62003fc66060830186620036d4565b83608083015260c060a083015262003fe260c083018462003943565b98975050505050505050565b848152606060208201525f62004008606083018662003943565b8281036040840152838152838560208301375f602085830101526020601f19601f86011682010191505095945050505050565b5f82516200404e8184602087016200391f565b9190910192915050565b6103208101610300808584378201835f5b60018110156200408a57815183526020928301929091019060010162004069565b5050509392505050565b5f60208284031215620040a5575f80fd5b8151801515811462003574575f80fd5b6001600160a01b0383168152604060208201525f620033ba60408301846200394356fe60a06040526040516200091d3803806200091d833981016040819052620000269162000375565b828162000034828262000060565b50506001600160a01b038216608052620000576200005160805190565b620000c5565b5050506200046c565b6200006b8262000136565b6040516001600160a01b038316907fbc7cd75a20ee27fd9adebab32041f755214dbc6bffa90cc0225b39da2e5c2d3b905f90a2805115620000b757620000b28282620001b5565b505050565b620000c16200022e565b5050565b7f7e644d79422f17c01e4894b5f4f588d331ebfa28653d42ae832dc59e38c9798f620001065f80516020620008fd833981519152546001600160a01b031690565b604080516001600160a01b03928316815291841660208301520160405180910390a1620001338162000250565b50565b806001600160a01b03163b5f036200017157604051634c9c8ce360e01b81526001600160a01b03821660048201526024015b60405180910390fd5b807f360894a13ba1a3210667c828492db98dca3e2076cc3735a920a3ca505d382bbc5b80546001600160a01b0319166001600160a01b039290921691909117905550565b60605f80846001600160a01b031684604051620001d391906200044f565b5f60405180830381855af49150503d805f81146200020d576040519150601f19603f3d011682016040523d82523d5f602084013e62000212565b606091505b5090925090506200022585838362000291565b95945050505050565b34156200024e5760405163b398979f60e01b815260040160405180910390fd5b565b6001600160a01b0381166200027b57604051633173bdd160e11b81525f600482015260240162000168565b805f80516020620008fd83398151915262000194565b606082620002aa57620002a482620002f7565b620002f0565b8151158015620002c257506001600160a01b0384163b155b15620002ed57604051639996b31560e01b81526001600160a01b038516600482015260240162000168565b50805b9392505050565b805115620003085780518082602001fd5b604051630a12f52160e11b815260040160405180910390fd5b80516001600160a01b038116811462000338575f80fd5b919050565b634e487b7160e01b5f52604160045260245ffd5b5f5b838110156200036d57818101518382015260200162000353565b50505f910152565b5f805f6060848603121562000388575f80fd5b620003938462000321565b9250620003a36020850162000321565b60408501519092506001600160401b0380821115620003c0575f80fd5b818601915086601f830112620003d4575f80fd5b815181811115620003e957620003e96200033d565b604051601f8201601f19908116603f011681019083821181831017156200041457620004146200033d565b816040528281528960208487010111156200042d575f80fd5b6200044083602083016020880162000351565b80955050505050509250925092565b5f82516200046281846020870162000351565b9190910192915050565b608051610479620004845f395f601001526104795ff3fe608060405261000c61000e565b005b7f00000000000000000000000000000000000000000000000000000000000000006001600160a01b03163303610081575f357fffffffff000000000000000000000000000000000000000000000000000000001663278f794360e11b1461007957610077610085565b565b610077610095565b6100775b6100776100906100c3565b6100fa565b5f806100a43660048184610313565b8101906100b1919061034e565b915091506100bf8282610118565b5050565b5f6100f57f360894a13ba1a3210667c828492db98dca3e2076cc3735a920a3ca505d382bbc546001600160a01b031690565b905090565b365f80375f80365f845af43d5f803e808015610114573d5ff35b3d5ffd5b61012182610172565b6040516001600160a01b038316907fbc7cd75a20ee27fd9adebab32041f755214dbc6bffa90cc0225b39da2e5c2d3b905f90a280511561016a5761016582826101fa565b505050565b6100bf61026c565b806001600160a01b03163b5f036101ac57604051634c9c8ce360e01b81526001600160a01b03821660048201526024015b60405180910390fd5b7f360894a13ba1a3210667c828492db98dca3e2076cc3735a920a3ca505d382bbc805473ffffffffffffffffffffffffffffffffffffffff19166001600160a01b0392909216919091179055565b60605f80846001600160a01b0316846040516102169190610417565b5f60405180830381855af49150503d805f811461024e576040519150601f19603f3d011682016040523d82523d5f602084013e610253565b606091505b509150915061026385838361028b565b95945050505050565b34156100775760405163b398979f60e01b815260040160405180910390fd5b6060826102a05761029b826102ea565b6102e3565b81511580156102b757506001600160a01b0384163b155b156102e057604051639996b31560e01b81526001600160a01b03851660048201526024016101a3565b50805b9392505050565b8051156102fa5780518082602001fd5b604051630a12f52160e11b815260040160405180910390fd5b5f8085851115610321575f80fd5b8386111561032d575f80fd5b5050820193919092039150565b634e487b7160e01b5f52604160045260245ffd5b5f806040838503121561035f575f80fd5b82356001600160a01b0381168114610375575f80fd5b9150602083013567ffffffffffffffff80821115610391575f80fd5b818501915085601f8301126103a4575f80fd5b8135818111156103b6576103b661033a565b604051601f8201601f19908116603f011681019083821181831017156103de576103de61033a565b816040528281528860208487010111156103f6575f80fd5b826020860160208301375f6020848301015280955050505050509250929050565b5f82515f5b81811015610436576020818601810151858301520161041c565b505f92019182525091905056fea264697066735822122021e23b4641727aa4aa8fd2d3ef7960a43cab420d4c8632503bedc3eb2d30690764736f6c63430008140033b53127684a568b3173ae13b9f8a6016e243e63b6e8ee1178d6a717850b5d6103a26469706673582212208b796c9b46b854ceb4255cc1861b41d0aeaf1d3f2480a9dd1481544cfdd105f064736f6c63430008140033",
  "linkReferences": {},
  "deployedLinkReferences": {}
}