{
  "_format": "hh-sol-artifact-1",
  "contractName": "PolygonRollupManager",
  "sourceName": "contracts/v2/PolygonRollupManager.sol",
  "abi": [
    {
      "inputs": [
        {
          "internalType": "contract IPolygonZkEVMGlobalExitRootV2",
          "name": "_globalExitRootManager",
          "type": "address"
        },
        {
          "internalType": "contract IERC20Upgradeable",
          "name": "_pol",
          "type": "address"
        },
        {
          "internalType": "contract IPolygonZkEVMBridge",
          "name": "_bridgeAddress",
          "type": "address"
        }
      ],
      "stateMutability": "nonpayable",
      "type": "constructor"
    },
    {
      "inputs": [],
      "name": "AccessControlOnlyCanRenounceRolesForSelf",
      "type": "error"
    },
    {
      "inputs": [],
      "name": "AddressDoNotHaveRequiredRole",
      "type": "error"
    },
    {
      "inputs": [],
      "name": "AllzkEVMSequencedBatchesMustBeVerified",
      "type": "error"
    },
    {
      "inputs": [],
      "name": "BatchFeeOutOfRange",
      "type": "error"
    },
    {
      "inputs": [],
      "name": "ChainIDAlreadyExist",
      "type": "error"
    },
    {
      "inputs": [],
      "name": "ExceedMaxVerifyBatches",
      "type": "error"
    },
    {
      "inputs": [],
      "name": "FinalNumBatchBelowLastVerifiedBatch",
      "type": "error"
    },
    {
      "inputs": [],
      "name": "FinalNumBatchDoesNotMatchPendingState",
      "type": "error"
    },
    {
      "inputs": [],
      "name": "FinalPendingStateNumInvalid",
      "type": "error"
    },
    {
      "inputs": [],
      "name": "HaltTimeoutNotExpired",
      "type": "error"
    },
    {
      "inputs": [],
      "name": "InitBatchMustMatchCurrentForkID",
      "type": "error"
    },
    {
      "inputs": [],
      "name": "InitNumBatchAboveLastVerifiedBatch",
      "type": "error"
    },
    {
      "inputs": [],
      "name": "InitNumBatchDoesNotMatchPendingState",
      "type": "error"
    },
    {
      "inputs": [],
      "name": "InvalidProof",
      "type": "error"
    },
    {
      "inputs": [],
      "name": "InvalidRangeBatchTimeTarget",
      "type": "error"
    },
    {
      "inputs": [],
      "name": "InvalidRangeMultiplierBatchFee",
      "type": "error"
    },
    {
      "inputs": [],
      "name": "MustSequenceSomeBatch",
      "type": "error"
    },
    {
      "inputs": [],
      "name": "NewAccInputHashDoesNotExist",
      "type": "error"
    },
    {
      "inputs": [],
      "name": "NewPendingStateTimeoutMustBeLower",
      "type": "error"
    },
    {
      "inputs": [],
      "name": "NewStateRootNotInsidePrime",
      "type": "error"
    },
    {
      "inputs": [],
      "name": "NewTrustedAggregatorTimeoutMustBeLower",
      "type": "error"
    },
    {
      "inputs": [],
      "name": "OldAccInputHashDoesNotExist",
      "type": "error"
    },
    {
      "inputs": [],
      "name": "OldStateRootDoesNotExist",
      "type": "error"
    },
    {
      "inputs": [],
      "name": "OnlyEmergencyState",
      "type": "error"
    },
    {
      "inputs": [],
      "name": "OnlyNotEmergencyState",
      "type": "error"
    },
    {
      "inputs": [],
      "name": "PendingStateDoesNotExist",
      "type": "error"
    },
    {
      "inputs": [],
      "name": "PendingStateInvalid",
      "type": "error"
    },
    {
      "inputs": [],
      "name": "PendingStateNotConsolidable",
      "type": "error"
    },
    {
      "inputs": [],
      "name": "RollupAddressAlreadyExist",
      "type": "error"
    },
    {
      "inputs": [],
      "name": "RollupMustExist",
      "type": "error"
    },
    {
      "inputs": [],
      "name": "RollupTypeDoesNotExist",
      "type": "error"
    },
    {
      "inputs": [],
      "name": "RollupTypeObsolete",
      "type": "error"
    },
    {
      "inputs": [],
      "name": "SenderMustBeRollup",
      "type": "error"
    },
    {
      "inputs": [],
      "name": "StoredRootMustBeDifferentThanNewRoot",
      "type": "error"
    },
    {
      "inputs": [],
      "name": "TrustedAggregatorTimeoutNotExpired",
      "type": "error"
    },
    {
      "inputs": [],
      "name": "UpdateNotCompatible",
      "type": "error"
    },
    {
      "inputs": [],
      "name": "UpdateToSameRollupTypeID",
      "type": "error"
    },
    {
      "anonymous": false,
      "inputs": [
        {
          "indexed": true,
          "internalType": "uint32",
          "name": "rollupID",
          "type": "uint32"
        },
        {
          "indexed": false,
          "internalType": "uint64",
          "name": "forkID",
          "type": "uint64"
        },
        {
          "indexed": false,
          "internalType": "address",
          "name": "rollupAddress",
          "type": "address"
        },
        {
          "indexed": false,
          "internalType": "uint64",
          "name": "chainID",
          "type": "uint64"
        },
        {
          "indexed": false,
          "internalType": "uint8",
          "name": "rollupCompatibilityID",
          "type": "uint8"
        },
        {
          "indexed": false,
          "internalType": "uint64",
          "name": "lastVerifiedBatchBeforeUpgrade",
          "type": "uint64"
        }
      ],
      "name": "AddExistingRollup",
      "type": "event"
    },
    {
      "anonymous": false,
      "inputs": [
        {
          "indexed": true,
          "internalType": "uint32",
          "name": "rollupTypeID",
          "type": "uint32"
        },
        {
          "indexed": false,
          "internalType": "address",
          "name": "consensusImplementation",
          "type": "address"
        },
        {
          "indexed": false,
          "internalType": "address",
          "name": "verifier",
          "type": "address"
        },
        {
          "indexed": false,
          "internalType": "uint64",
          "name": "forkID",
          "type": "uint64"
        },
        {
          "indexed": false,
          "internalType": "uint8",
          "name": "rollupCompatibilityID",
          "type": "uint8"
        },
        {
          "indexed": false,
          "internalType": "bytes32",
          "name": "genesis",
          "type": "bytes32"
        },
        {
          "indexed": false,
          "internalType": "string",
          "name": "description",
          "type": "string"
        }
      ],
      "name": "AddNewRollupType",
      "type": "event"
    },
    {
      "anonymous": false,
      "inputs": [
        {
          "indexed": true,
          "internalType": "uint32",
          "name": "rollupID",
          "type": "uint32"
        },
        {
          "indexed": false,
          "internalType": "uint64",
          "name": "numBatch",
          "type": "uint64"
        },
        {
          "indexed": false,
          "internalType": "bytes32",
          "name": "stateRoot",
          "type": "bytes32"
        },
        {
          "indexed": false,
          "internalType": "bytes32",
          "name": "exitRoot",
          "type": "bytes32"
        },
        {
          "indexed": false,
          "internalType": "uint64",
          "name": "pendingStateNum",
          "type": "uint64"
        }
      ],
      "name": "ConsolidatePendingState",
      "type": "event"
    },
    {
      "anonymous": false,
      "inputs": [
        {
          "indexed": true,
          "internalType": "uint32",
          "name": "rollupID",
          "type": "uint32"
        },
        {
          "indexed": false,
          "internalType": "uint32",
          "name": "rollupTypeID",
          "type": "uint32"
        },
        {
          "indexed": false,
          "internalType": "address",
          "name": "rollupAddress",
          "type": "address"
        },
        {
          "indexed": false,
          "internalType": "uint64",
          "name": "chainID",
          "type": "uint64"
        },
        {
          "indexed": false,
          "internalType": "address",
          "name": "gasTokenAddress",
          "type": "address"
        }
      ],
      "name": "CreateNewRollup",
      "type": "event"
    },
    {
      "anonymous": false,
      "inputs": [],
      "name": "EmergencyStateActivated",
      "type": "event"
    },
    {
      "anonymous": false,
      "inputs": [],
      "name": "EmergencyStateDeactivated",
      "type": "event"
    },
    {
      "anonymous": false,
      "inputs": [
        {
          "indexed": false,
          "internalType": "uint8",
          "name": "version",
          "type": "uint8"
        }
      ],
      "name": "Initialized",
      "type": "event"
    },
    {
      "anonymous": false,
      "inputs": [
        {
          "indexed": true,
          "internalType": "uint32",
          "name": "rollupTypeID",
          "type": "uint32"
        }
      ],
      "name": "ObsoleteRollupType",
      "type": "event"
    },
    {
      "anonymous": false,
      "inputs": [
        {
          "indexed": true,
          "internalType": "uint32",
          "name": "rollupID",
          "type": "uint32"
        },
        {
          "indexed": false,
          "internalType": "uint64",
          "name": "lastBatchSequenced",
          "type": "uint64"
        }
      ],
      "name": "OnSequenceBatches",
      "type": "event"
    },
    {
      "anonymous": false,
      "inputs": [
        {
          "indexed": true,
          "internalType": "uint32",
          "name": "rollupID",
          "type": "uint32"
        },
        {
          "indexed": false,
          "internalType": "uint64",
          "name": "numBatch",
          "type": "uint64"
        },
        {
          "indexed": false,
          "internalType": "bytes32",
          "name": "stateRoot",
          "type": "bytes32"
        },
        {
          "indexed": false,
          "internalType": "bytes32",
          "name": "exitRoot",
          "type": "bytes32"
        },
        {
          "indexed": false,
          "internalType": "address",
          "name": "aggregator",
          "type": "address"
        }
      ],
      "name": "OverridePendingState",
      "type": "event"
    },
    {
      "anonymous": false,
      "inputs": [
        {
          "indexed": false,
          "internalType": "bytes32",
          "name": "storedStateRoot",
          "type": "bytes32"
        },
        {
          "indexed": false,
          "internalType": "bytes32",
          "name": "provedStateRoot",
          "type": "bytes32"
        }
      ],
      "name": "ProveNonDeterministicPendingState",
      "type": "event"
    },
    {
      "anonymous": false,
      "inputs": [
        {
          "indexed": true,
          "internalType": "bytes32",
          "name": "role",
          "type": "bytes32"
        },
        {
          "indexed": true,
          "internalType": "bytes32",
          "name": "previousAdminRole",
          "type": "bytes32"
        },
        {
          "indexed": true,
          "internalType": "bytes32",
          "name": "newAdminRole",
          "type": "bytes32"
        }
      ],
      "name": "RoleAdminChanged",
      "type": "event"
    },
    {
      "anonymous": false,
      "inputs": [
        {
          "indexed": true,
          "internalType": "bytes32",
          "name": "role",
          "type": "bytes32"
        },
        {
          "indexed": true,
          "internalType": "address",
          "name": "account",
          "type": "address"
        },
        {
          "indexed": true,
          "internalType": "address",
          "name": "sender",
          "type": "address"
        }
      ],
      "name": "RoleGranted",
      "type": "event"
    },
    {
      "anonymous": false,
      "inputs": [
        {
          "indexed": true,
          "internalType": "bytes32",
          "name": "role",
          "type": "bytes32"
        },
        {
          "indexed": true,
          "internalType": "address",
          "name": "account",
          "type": "address"
        },
        {
          "indexed": true,
          "internalType": "address",
          "name": "sender",
          "type": "address"
        }
      ],
      "name": "RoleRevoked",
      "type": "event"
    },
    {
      "anonymous": false,
      "inputs": [
        {
          "indexed": false,
          "internalType": "uint256",
          "name": "newBatchFee",
          "type": "uint256"
        }
      ],
      "name": "SetBatchFee",
      "type": "event"
    },
    {
      "anonymous": false,
      "inputs": [
        {
          "indexed": false,
          "internalType": "uint16",
          "name": "newMultiplierBatchFee",
          "type": "uint16"
        }
      ],
      "name": "SetMultiplierBatchFee",
      "type": "event"
    },
    {
      "anonymous": false,
      "inputs": [
        {
          "indexed": false,
          "internalType": "uint64",
          "name": "newPendingStateTimeout",
          "type": "uint64"
        }
      ],
      "name": "SetPendingStateTimeout",
      "type": "event"
    },
    {
      "anonymous": false,
      "inputs": [
        {
          "indexed": false,
          "internalType": "address",
          "name": "newTrustedAggregator",
          "type": "address"
        }
      ],
      "name": "SetTrustedAggregator",
      "type": "event"
    },
    {
      "anonymous": false,
      "inputs": [
        {
          "indexed": false,
          "internalType": "uint64",
          "name": "newTrustedAggregatorTimeout",
          "type": "uint64"
        }
      ],
      "name": "SetTrustedAggregatorTimeout",
      "type": "event"
    },
    {
      "anonymous": false,
      "inputs": [
        {
          "indexed": false,
          "internalType": "uint64",
          "name": "newVerifyBatchTimeTarget",
          "type": "uint64"
        }
      ],
      "name": "SetVerifyBatchTimeTarget",
      "type": "event"
    },
    {
      "anonymous": false,
      "inputs": [
        {
          "indexed": true,
          "internalType": "uint32",
          "name": "rollupID",
          "type": "uint32"
        },
        {
          "indexed": false,
          "internalType": "uint32",
          "name": "newRollupTypeID",
          "type": "uint32"
        },
        {
          "indexed": false,
          "internalType": "uint64",
          "name": "lastVerifiedBatchBeforeUpgrade",
          "type": "uint64"
        }
      ],
      "name": "UpdateRollup",
      "type": "event"
    },
    {
      "anonymous": false,
      "inputs": [
        {
          "indexed": true,
          "internalType": "uint32",
          "name": "rollupID",
          "type": "uint32"
        },
        {
          "indexed": false,
          "internalType": "uint64",
          "name": "numBatch",
          "type": "uint64"
        },
        {
          "indexed": false,
          "internalType": "bytes32",
          "name": "stateRoot",
          "type": "bytes32"
        },
        {
          "indexed": false,
          "internalType": "bytes32",
          "name": "exitRoot",
          "type": "bytes32"
        },
        {
          "indexed": true,
          "internalType": "address",
          "name": "aggregator",
          "type": "address"
        }
      ],
      "name": "VerifyBatches",
      "type": "event"
    },
    {
      "anonymous": false,
      "inputs": [
        {
          "indexed": true,
          "internalType": "uint32",
          "name": "rollupID",
          "type": "uint32"
        },
        {
          "indexed": false,
          "internalType": "uint64",
          "name": "numBatch",
          "type": "uint64"
        },
        {
          "indexed": false,
          "internalType": "bytes32",
          "name": "stateRoot",
          "type": "bytes32"
        },
        {
          "indexed": false,
          "internalType": "bytes32",
          "name": "exitRoot",
          "type": "bytes32"
        },
        {
          "indexed": true,
          "internalType": "address",
          "name": "aggregator",
          "type": "address"
        }
      ],
      "name": "VerifyBatchesTrustedAggregator",
      "type": "event"
    },
    {
      "inputs": [],
      "name": "DEFAULT_ADMIN_ROLE",
      "outputs": [
        {
          "internalType": "bytes32",
          "name": "",
          "type": "bytes32"
        }
      ],
      "stateMutability": "view",
      "type": "function"
    },
    {
      "inputs": [],
      "name": "activateEmergencyState",
      "outputs": [],
      "stateMutability": "nonpayable",
      "type": "function"
    },
    {
      "inputs": [
        {
          "internalType": "contract IPolygonRollupBase",
          "name": "rollupAddress",
          "type": "address"
        },
        {
          "internalType": "contract IVerifierRollup",
          "name": "verifier",
          "type": "address"
        },
        {
          "internalType": "uint64",
          "name": "forkID",
          "type": "uint64"
        },
        {
          "internalType": "uint64",
          "name": "chainID",
          "type": "uint64"
        },
        {
          "internalType": "bytes32",
          "name": "genesis",
          "type": "bytes32"
        },
        {
          "internalType": "uint8",
          "name": "rollupCompatibilityID",
          "type": "uint8"
        }
      ],
      "name": "addExistingRollup",
      "outputs": [],
      "stateMutability": "nonpayable",
      "type": "function"
    },
    {
      "inputs": [
        {
          "internalType": "address",
          "name": "consensusImplementation",
          "type": "address"
        },
        {
          "internalType": "contract IVerifierRollup",
          "name": "verifier",
          "type": "address"
        },
        {
          "internalType": "uint64",
          "name": "forkID",
          "type": "uint64"
        },
        {
          "internalType": "uint8",
          "name": "rollupCompatibilityID",
          "type": "uint8"
        },
        {
          "internalType": "bytes32",
          "name": "genesis",
          "type": "bytes32"
        },
        {
          "internalType": "string",
          "name": "description",
          "type": "string"
        }
      ],
      "name": "addNewRollupType",
      "outputs": [],
      "stateMutability": "nonpayable",
      "type": "function"
    },
    {
      "inputs": [],
      "name": "bridgeAddress",
      "outputs": [
        {
          "internalType": "contract IPolygonZkEVMBridge",
          "name": "",
          "type": "address"
        }
      ],
      "stateMutability": "view",
      "type": "function"
    },
    {
      "inputs": [],
      "name": "calculateRewardPerBatch",
      "outputs": [
        {
          "internalType": "uint256",
          "name": "",
          "type": "uint256"
        }
      ],
      "stateMutability": "view",
      "type": "function"
    },
    {
      "inputs": [
        {
          "internalType": "uint64",
          "name": "chainID",
          "type": "uint64"
        }
      ],
      "name": "chainIDToRollupID",
      "outputs": [
        {
          "internalType": "uint32",
          "name": "rollupID",
          "type": "uint32"
        }
      ],
      "stateMutability": "view",
      "type": "function"
    },
    {
      "inputs": [
        {
          "internalType": "uint32",
          "name": "rollupID",
          "type": "uint32"
        },
        {
          "internalType": "uint64",
          "name": "pendingStateNum",
          "type": "uint64"
        }
      ],
      "name": "consolidatePendingState",
      "outputs": [],
      "stateMutability": "nonpayable",
      "type": "function"
    },
    {
      "inputs": [
        {
          "internalType": "uint32",
          "name": "rollupTypeID",
          "type": "uint32"
        },
        {
          "internalType": "uint64",
          "name": "chainID",
          "type": "uint64"
        },
        {
          "internalType": "address",
          "name": "admin",
          "type": "address"
        },
        {
          "internalType": "address",
          "name": "sequencer",
          "type": "address"
        },
        {
          "internalType": "address",
          "name": "gasTokenAddress",
          "type": "address"
        },
        {
          "internalType": "string",
          "name": "sequencerURL",
          "type": "string"
        },
        {
          "internalType": "string",
          "name": "networkName",
          "type": "string"
        }
      ],
      "name": "createNewRollup",
      "outputs": [],
      "stateMutability": "nonpayable",
      "type": "function"
    },
    {
      "inputs": [],
      "name": "deactivateEmergencyState",
      "outputs": [],
      "stateMutability": "nonpayable",
      "type": "function"
    },
    {
      "inputs": [],
      "name": "getBatchFee",
      "outputs": [
        {
          "internalType": "uint256",
          "name": "",
          "type": "uint256"
        }
      ],
      "stateMutability": "view",
      "type": "function"
    },
    {
      "inputs": [],
      "name": "getForcedBatchFee",
      "outputs": [
        {
          "internalType": "uint256",
          "name": "",
          "type": "uint256"
        }
      ],
      "stateMutability": "view",
      "type": "function"
    },
    {
      "inputs": [
        {
          "internalType": "uint32",
          "name": "rollupID",
          "type": "uint32"
        },
        {
          "internalType": "uint64",
          "name": "initNumBatch",
          "type": "uint64"
        },
        {
          "internalType": "uint64",
          "name": "finalNewBatch",
          "type": "uint64"
        },
        {
          "internalType": "bytes32",
          "name": "newLocalExitRoot",
          "type": "bytes32"
        },
        {
          "internalType": "bytes32",
          "name": "oldStateRoot",
          "type": "bytes32"
        },
        {
          "internalType": "bytes32",
          "name": "newStateRoot",
          "type": "bytes32"
        }
      ],
      "name": "getInputSnarkBytes",
      "outputs": [
        {
          "internalType": "bytes",
          "name": "",
          "type": "bytes"
        }
      ],
      "stateMutability": "view",
      "type": "function"
    },
    {
      "inputs": [
        {
          "internalType": "uint32",
          "name": "rollupID",
          "type": "uint32"
        }
      ],
      "name": "getLastVerifiedBatch",
      "outputs": [
        {
          "internalType": "uint64",
          "name": "",
          "type": "uint64"
        }
      ],
      "stateMutability": "view",
      "type": "function"
    },
    {
      "inputs": [
        {
          "internalType": "bytes32",
          "name": "role",
          "type": "bytes32"
        }
      ],
      "name": "getRoleAdmin",
      "outputs": [
        {
          "internalType": "bytes32",
          "name": "",
          "type": "bytes32"
        }
      ],
      "stateMutability": "view",
      "type": "function"
    },
    {
      "inputs": [
        {
          "internalType": "uint32",
          "name": "rollupID",
          "type": "uint32"
        },
        {
          "internalType": "uint64",
          "name": "batchNum",
          "type": "uint64"
        }
      ],
      "name": "getRollupBatchNumToStateRoot",
      "outputs": [
        {
          "internalType": "bytes32",
          "name": "",
          "type": "bytes32"
        }
      ],
      "stateMutability": "view",
      "type": "function"
    },
    {
      "inputs": [],
      "name": "getRollupExitRoot",
      "outputs": [
        {
          "internalType": "bytes32",
          "name": "",
          "type": "bytes32"
        }
      ],
      "stateMutability": "view",
      "type": "function"
    },
    {
      "inputs": [
        {
          "internalType": "uint32",
          "name": "rollupID",
          "type": "uint32"
        },
        {
          "internalType": "uint64",
          "name": "batchNum",
          "type": "uint64"
        }
      ],
      "name": "getRollupPendingStateTransitions",
      "outputs": [
        {
          "components": [
            {
              "internalType": "uint64",
              "name": "timestamp",
              "type": "uint64"
            },
            {
              "internalType": "uint64",
              "name": "lastVerifiedBatch",
              "type": "uint64"
            },
            {
              "internalType": "bytes32",
              "name": "exitRoot",
              "type": "bytes32"
            },
            {
              "internalType": "bytes32",
              "name": "stateRoot",
              "type": "bytes32"
            }
          ],
          "internalType": "struct LegacyZKEVMStateVariables.PendingState",
          "name": "",
          "type": "tuple"
        }
      ],
      "stateMutability": "view",
      "type": "function"
    },
    {
      "inputs": [
        {
          "internalType": "uint32",
          "name": "rollupID",
          "type": "uint32"
        },
        {
          "internalType": "uint64",
          "name": "batchNum",
          "type": "uint64"
        }
      ],
      "name": "getRollupSequencedBatches",
      "outputs": [
        {
          "components": [
            {
              "internalType": "bytes32",
              "name": "accInputHash",
              "type": "bytes32"
            },
            {
              "internalType": "uint64",
              "name": "sequencedTimestamp",
              "type": "uint64"
            },
            {
              "internalType": "uint64",
              "name": "previousLastBatchSequenced",
              "type": "uint64"
            }
          ],
          "internalType": "struct LegacyZKEVMStateVariables.SequencedBatchData",
          "name": "",
          "type": "tuple"
        }
      ],
      "stateMutability": "view",
      "type": "function"
    },
    {
      "inputs": [],
      "name": "globalExitRootManager",
      "outputs": [
        {
          "internalType": "contract IPolygonZkEVMGlobalExitRootV2",
          "name": "",
          "type": "address"
        }
      ],
      "stateMutability": "view",
      "type": "function"
    },
    {
      "inputs": [
        {
          "internalType": "bytes32",
          "name": "role",
          "type": "bytes32"
        },
        {
          "internalType": "address",
          "name": "account",
          "type": "address"
        }
      ],
      "name": "grantRole",
      "outputs": [],
      "stateMutability": "nonpayable",
      "type": "function"
    },
    {
      "inputs": [
        {
          "internalType": "bytes32",
          "name": "role",
          "type": "bytes32"
        },
        {
          "internalType": "address",
          "name": "account",
          "type": "address"
        }
      ],
      "name": "hasRole",
      "outputs": [
        {
          "internalType": "bool",
          "name": "",
          "type": "bool"
        }
      ],
      "stateMutability": "view",
      "type": "function"
    },
    {
      "inputs": [
        {
          "internalType": "address",
          "name": "trustedAggregator",
          "type": "address"
        },
        {
          "internalType": "uint64",
          "name": "_pendingStateTimeout",
          "type": "uint64"
        },
        {
          "internalType": "uint64",
          "name": "_trustedAggregatorTimeout",
          "type": "uint64"
        },
        {
          "internalType": "address",
          "name": "admin",
          "type": "address"
        },
        {
          "internalType": "address",
          "name": "timelock",
          "type": "address"
        },
        {
          "internalType": "address",
          "name": "emergencyCouncil",
          "type": "address"
        },
        {
          "internalType": "contract PolygonZkEVMExistentEtrog",
          "name": "polygonZkEVM",
          "type": "address"
        },
        {
          "internalType": "contract IVerifierRollup",
          "name": "zkEVMVerifier",
          "type": "address"
        },
        {
          "internalType": "uint64",
          "name": "zkEVMForkID",
          "type": "uint64"
        },
        {
          "internalType": "uint64",
          "name": "zkEVMChainID",
          "type": "uint64"
        }
      ],
      "name": "initialize",
      "outputs": [],
      "stateMutability": "nonpayable",
      "type": "function"
    },
    {
      "inputs": [],
      "name": "isEmergencyState",
      "outputs": [
        {
          "internalType": "bool",
          "name": "",
          "type": "bool"
        }
      ],
      "stateMutability": "view",
      "type": "function"
    },
    {
      "inputs": [
        {
          "internalType": "uint32",
          "name": "rollupID",
          "type": "uint32"
        },
        {
          "internalType": "uint64",
          "name": "pendingStateNum",
          "type": "uint64"
        }
      ],
      "name": "isPendingStateConsolidable",
      "outputs": [
        {
          "internalType": "bool",
          "name": "",
          "type": "bool"
        }
      ],
      "stateMutability": "view",
      "type": "function"
    },
    {
      "inputs": [],
      "name": "lastAggregationTimestamp",
      "outputs": [
        {
          "internalType": "uint64",
          "name": "",
          "type": "uint64"
        }
      ],
      "stateMutability": "view",
      "type": "function"
    },
    {
      "inputs": [],
      "name": "lastDeactivatedEmergencyStateTimestamp",
      "outputs": [
        {
          "internalType": "uint64",
          "name": "",
          "type": "uint64"
        }
      ],
      "stateMutability": "view",
      "type": "function"
    },
    {
      "inputs": [],
      "name": "multiplierBatchFee",
      "outputs": [
        {
          "internalType": "uint16",
          "name": "",
          "type": "uint16"
        }
      ],
      "stateMutability": "view",
      "type": "function"
    },
    {
      "inputs": [
        {
          "internalType": "uint32",
          "name": "rollupTypeID",
          "type": "uint32"
        }
      ],
      "name": "obsoleteRollupType",
      "outputs": [],
      "stateMutability": "nonpayable",
      "type": "function"
    },
    {
      "inputs": [
        {
          "internalType": "uint64",
          "name": "newSequencedBatches",
          "type": "uint64"
        },
        {
          "internalType": "bytes32",
          "name": "newAccInputHash",
          "type": "bytes32"
        }
      ],
      "name": "onSequenceBatches",
      "outputs": [
        {
          "internalType": "uint64",
          "name": "",
          "type": "uint64"
        }
      ],
      "stateMutability": "nonpayable",
      "type": "function"
    },
    {
      "inputs": [
        {
          "internalType": "uint32",
          "name": "rollupID",
          "type": "uint32"
        },
        {
          "internalType": "uint64",
          "name": "initPendingStateNum",
          "type": "uint64"
        },
        {
          "internalType": "uint64",
          "name": "finalPendingStateNum",
          "type": "uint64"
        },
        {
          "internalType": "uint64",
          "name": "initNumBatch",
          "type": "uint64"
        },
        {
          "internalType": "uint64",
          "name": "finalNewBatch",
          "type": "uint64"
        },
        {
          "internalType": "bytes32",
          "name": "newLocalExitRoot",
          "type": "bytes32"
        },
        {
          "internalType": "bytes32",
          "name": "newStateRoot",
          "type": "bytes32"
        },
        {
          "internalType": "bytes32[24]",
          "name": "proof",
          "type": "bytes32[24]"
        }
      ],
      "name": "overridePendingState",
      "outputs": [],
      "stateMutability": "nonpayable",
      "type": "function"
    },
    {
      "inputs": [],
      "name": "pendingStateTimeout",
      "outputs": [
        {
          "internalType": "uint64",
          "name": "",
          "type": "uint64"
        }
      ],
      "stateMutability": "view",
      "type": "function"
    },
    {
      "inputs": [],
      "name": "pol",
      "outputs": [
        {
          "internalType": "contract IERC20Upgradeable",
          "name": "",
          "type": "address"
        }
      ],
      "stateMutability": "view",
      "type": "function"
    },
    {
      "inputs": [
        {
          "internalType": "uint32",
          "name": "rollupID",
          "type": "uint32"
        },
        {
          "internalType": "uint64",
          "name": "initPendingStateNum",
          "type": "uint64"
        },
        {
          "internalType": "uint64",
          "name": "finalPendingStateNum",
          "type": "uint64"
        },
        {
          "internalType": "uint64",
          "name": "initNumBatch",
          "type": "uint64"
        },
        {
          "internalType": "uint64",
          "name": "finalNewBatch",
          "type": "uint64"
        },
        {
          "internalType": "bytes32",
          "name": "newLocalExitRoot",
          "type": "bytes32"
        },
        {
          "internalType": "bytes32",
          "name": "newStateRoot",
          "type": "bytes32"
        },
        {
          "internalType": "bytes32[24]",
          "name": "proof",
          "type": "bytes32[24]"
        }
      ],
      "name": "proveNonDeterministicPendingState",
      "outputs": [],
      "stateMutability": "nonpayable",
      "type": "function"
    },
    {
      "inputs": [
        {
          "internalType": "bytes32",
          "name": "role",
          "type": "bytes32"
        },
        {
          "internalType": "address",
          "name": "account",
          "type": "address"
        }
      ],
      "name": "renounceRole",
      "outputs": [],
      "stateMutability": "nonpayable",
      "type": "function"
    },
    {
      "inputs": [
        {
          "internalType": "bytes32",
          "name": "role",
          "type": "bytes32"
        },
        {
          "internalType": "address",
          "name": "account",
          "type": "address"
        }
      ],
      "name": "revokeRole",
      "outputs": [],
      "stateMutability": "nonpayable",
      "type": "function"
    },
    {
      "inputs": [
        {
          "internalType": "address",
          "name": "rollupAddress",
          "type": "address"
        }
      ],
      "name": "rollupAddressToID",
      "outputs": [
        {
          "internalType": "uint32",
          "name": "rollupID",
          "type": "uint32"
        }
      ],
      "stateMutability": "view",
      "type": "function"
    },
    {
      "inputs": [],
      "name": "rollupCount",
      "outputs": [
        {
          "internalType": "uint32",
          "name": "",
          "type": "uint32"
        }
      ],
      "stateMutability": "view",
      "type": "function"
    },
    {
      "inputs": [
        {
          "internalType": "uint32",
          "name": "rollupID",
          "type": "uint32"
        }
      ],
      "name": "rollupIDToRollupData",
      "outputs": [
        {
          "internalType": "contract IPolygonRollupBase",
          "name": "rollupContract",
          "type": "address"
        },
        {
          "internalType": "uint64",
          "name": "chainID",
          "type": "uint64"
        },
        {
          "internalType": "contract IVerifierRollup",
          "name": "verifier",
          "type": "address"
        },
        {
          "internalType": "uint64",
          "name": "forkID",
          "type": "uint64"
        },
        {
          "internalType": "bytes32",
          "name": "lastLocalExitRoot",
          "type": "bytes32"
        },
        {
          "internalType": "uint64",
          "name": "lastBatchSequenced",
          "type": "uint64"
        },
        {
          "internalType": "uint64",
          "name": "lastVerifiedBatch",
          "type": "uint64"
        },
        {
          "internalType": "uint64",
          "name": "lastPendingState",
          "type": "uint64"
        },
        {
          "internalType": "uint64",
          "name": "lastPendingStateConsolidated",
          "type": "uint64"
        },
        {
          "internalType": "uint64",
          "name": "lastVerifiedBatchBeforeUpgrade",
          "type": "uint64"
        },
        {
          "internalType": "uint64",
          "name": "rollupTypeID",
          "type": "uint64"
        },
        {
          "internalType": "uint8",
          "name": "rollupCompatibilityID",
          "type": "uint8"
        }
      ],
      "stateMutability": "view",
      "type": "function"
    },
    {
      "inputs": [],
      "name": "rollupTypeCount",
      "outputs": [
        {
          "internalType": "uint32",
          "name": "",
          "type": "uint32"
        }
      ],
      "stateMutability": "view",
      "type": "function"
    },
    {
      "inputs": [
        {
          "internalType": "uint32",
          "name": "rollupTypeID",
          "type": "uint32"
        }
      ],
      "name": "rollupTypeMap",
      "outputs": [
        {
          "internalType": "address",
          "name": "consensusImplementation",
          "type": "address"
        },
        {
          "internalType": "contract IVerifierRollup",
          "name": "verifier",
          "type": "address"
        },
        {
          "internalType": "uint64",
          "name": "forkID",
          "type": "uint64"
        },
        {
          "internalType": "uint8",
          "name": "rollupCompatibilityID",
          "type": "uint8"
        },
        {
          "internalType": "bool",
          "name": "obsolete",
          "type": "bool"
        },
        {
          "internalType": "bytes32",
          "name": "genesis",
          "type": "bytes32"
        }
      ],
      "stateMutability": "view",
      "type": "function"
    },
    {
      "inputs": [
        {
          "internalType": "uint256",
          "name": "newBatchFee",
          "type": "uint256"
        }
      ],
      "name": "setBatchFee",
      "outputs": [],
      "stateMutability": "nonpayable",
      "type": "function"
    },
    {
      "inputs": [
        {
          "internalType": "uint16",
          "name": "newMultiplierBatchFee",
          "type": "uint16"
        }
      ],
      "name": "setMultiplierBatchFee",
      "outputs": [],
      "stateMutability": "nonpayable",
      "type": "function"
    },
    {
      "inputs": [
        {
          "internalType": "uint64",
          "name": "newPendingStateTimeout",
          "type": "uint64"
        }
      ],
      "name": "setPendingStateTimeout",
      "outputs": [],
      "stateMutability": "nonpayable",
      "type": "function"
    },
    {
      "inputs": [
        {
          "internalType": "uint64",
          "name": "newTrustedAggregatorTimeout",
          "type": "uint64"
        }
      ],
      "name": "setTrustedAggregatorTimeout",
      "outputs": [],
      "stateMutability": "nonpayable",
      "type": "function"
    },
    {
      "inputs": [
        {
          "internalType": "uint64",
          "name": "newVerifyBatchTimeTarget",
          "type": "uint64"
        }
      ],
      "name": "setVerifyBatchTimeTarget",
      "outputs": [],
      "stateMutability": "nonpayable",
      "type": "function"
    },
    {
      "inputs": [],
      "name": "totalSequencedBatches",
      "outputs": [
        {
          "internalType": "uint64",
          "name": "",
          "type": "uint64"
        }
      ],
      "stateMutability": "view",
      "type": "function"
    },
    {
      "inputs": [],
      "name": "totalVerifiedBatches",
      "outputs": [
        {
          "internalType": "uint64",
          "name": "",
          "type": "uint64"
        }
      ],
      "stateMutability": "view",
      "type": "function"
    },
    {
      "inputs": [],
      "name": "trustedAggregatorTimeout",
      "outputs": [
        {
          "internalType": "uint64",
          "name": "",
          "type": "uint64"
        }
      ],
      "stateMutability": "view",
      "type": "function"
    },
    {
      "inputs": [
        {
          "internalType": "contract ITransparentUpgradeableProxy",
          "name": "rollupContract",
          "type": "address"
        },
        {
          "internalType": "uint32",
          "name": "newRollupTypeID",
          "type": "uint32"
        },
        {
          "internalType": "bytes",
          "name": "upgradeData",
          "type": "bytes"
        }
      ],
      "name": "updateRollup",
      "outputs": [],
      "stateMutability": "nonpayable",
      "type": "function"
    },
    {
      "inputs": [],
      "name": "verifyBatchTimeTarget",
      "outputs": [
        {
          "internalType": "uint64",
          "name": "",
          "type": "uint64"
        }
      ],
      "stateMutability": "view",
      "type": "function"
    },
    {
      "inputs": [
        {
          "internalType": "uint32",
          "name": "rollupID",
          "type": "uint32"
        },
        {
          "internalType": "uint64",
          "name": "pendingStateNum",
          "type": "uint64"
        },
        {
          "internalType": "uint64",
          "name": "initNumBatch",
          "type": "uint64"
        },
        {
          "internalType": "uint64",
          "name": "finalNewBatch",
          "type": "uint64"
        },
        {
          "internalType": "bytes32",
          "name": "newLocalExitRoot",
          "type": "bytes32"
        },
        {
          "internalType": "bytes32",
          "name": "newStateRoot",
          "type": "bytes32"
        },
        {
          "internalType": "address",
          "name": "beneficiary",
          "type": "address"
        },
        {
          "internalType": "bytes32[24]",
          "name": "proof",
          "type": "bytes32[24]"
        }
      ],
      "name": "verifyBatches",
      "outputs": [],
      "stateMutability": "nonpayable",
      "type": "function"
    },
    {
      "inputs": [
        {
          "internalType": "uint32",
          "name": "rollupID",
          "type": "uint32"
        },
        {
          "internalType": "uint64",
          "name": "pendingStateNum",
          "type": "uint64"
        },
        {
          "internalType": "uint64",
          "name": "initNumBatch",
          "type": "uint64"
        },
        {
          "internalType": "uint64",
          "name": "finalNewBatch",
          "type": "uint64"
        },
        {
          "internalType": "bytes32",
          "name": "newLocalExitRoot",
          "type": "bytes32"
        },
        {
          "internalType": "bytes32",
          "name": "newStateRoot",
          "type": "bytes32"
        },
        {
          "internalType": "address",
          "name": "beneficiary",
          "type": "address"
        },
        {
          "internalType": "bytes32[24]",
          "name": "proof",
          "type": "bytes32[24]"
        }
      ],
      "name": "verifyBatchesTrustedAggregator",
      "outputs": [],
      "stateMutability": "nonpayable",
      "type": "function"
    }
  ],
  "bytecode": "0x60e060405234801562000010575f80fd5b5060405162005fb638038062005fb6833981016040819052620000339162000136565b6001600160a01b0380841660805282811660c052811660a052620000566200005f565b50505062000187565b5f54610100900460ff1615620000cb5760405162461bcd60e51b815260206004820152602760248201527f496e697469616c697a61626c653a20636f6e747261637420697320696e697469604482015266616c697a696e6760c81b606482015260840160405180910390fd5b5f5460ff90811610156200011c575f805460ff191660ff9081179091556040519081527f7f26b83ff96e1f2b6a682f133852f6798a09c465da95921460cefb38474024989060200160405180910390a15b565b6001600160a01b038116811462000133575f80fd5b50565b5f805f6060848603121562000149575f80fd5b835162000156816200011e565b602085015190935062000169816200011e565b60408501519092506200017c816200011e565b809150509250925092565b60805160a05160c051615dcc620001ea5f395f8181610ac0015281816122b00152613bf201525f818161087b01528181612e8b0152613ef601525f8181610a1a015281816112fa015281816114be015281816120250152613deb0152615dcc5ff3fe608060405234801562000010575f80fd5b50600436106200038c575f3560e01c8063841b24d711620001e3578063c1acbc341162000113578063dbc1697611620000ab578063e46761c41162000083578063e46761c41462000aba578063f34eb8eb1462000ae2578063f4e926751462000af9578063f9c4c2ae1462000b0a575f80fd5b8063dbc169761462000a7e578063dde0ff771462000a88578063e0bfd3d21462000aa3575f80fd5b8063d02103ca11620000eb578063d02103ca1462000a14578063d5073f6f1462000a3c578063d547741f1462000a53578063d939b3151462000a6a575f80fd5b8063c1acbc3414620009ba578063c4c928c214620009d5578063ceee281d14620009ec575f80fd5b80639c9f3dfe1162000187578063a2967d99116200015f578063a2967d99146200086b578063a3c573eb1462000875578063afd23cbe14620008b6578063b99d0ad714620008e0575f80fd5b80639c9f3dfe1462000835578063a066215c146200084c578063a217fddf1462000863575f80fd5b806391d1485411620001bb57806391d1485414620007d957806399f5634e14620008145780639a908e73146200081e575f80fd5b8063841b24d7146200079057806387c20c0114620007ab5780638bd4f07114620007c2575f80fd5b80632528016911620002bf57806355a71ee011620002635780637222020f116200023b5780637222020f1462000714578063727885e9146200072b5780637975fcfe14620007425780637fb6e76a1462000768575f80fd5b806355a71ee0146200061957806360469169146200065c57806365c0504d1462000666575f80fd5b806336568abe116200029757806336568abe14620005e2578063394218e914620005f9578063477fa2701462000610575f80fd5b80632528016914620005035780632f2ff15d14620005b757806330c27dde14620005ce575f80fd5b80631489ed1011620003335780631796a1ae116200030b5780631796a1ae14620004875780631816b7e514620004ae5780632072f6c514620004c5578063248a9ca314620004cf575f80fd5b80631489ed10146200044b57806315064c9614620004625780631608859c1462000470575f80fd5b80630a0d9fbe11620003675780630a0d9fbe146200040257806311f6b287146200041d57806312b86e191462000434575f80fd5b80630645af091462000390578063066ec01214620003a9578063080b311114620003da575b5f80fd5b620003a7620003a13660046200490d565b62000c20565b005b608454620003bd906001600160401b031681565b6040516001600160401b0390911681526020015b60405180910390f35b620003f1620003eb366004620049f6565b620011ed565b6040519015158152602001620003d1565b608554620003bd90600160401b90046001600160401b031681565b620003bd6200042e36600462004a2c565b62001216565b620003a76200044536600462004a5a565b62001235565b620003a76200045c36600462004aec565b620013f9565b606f54620003f19060ff1681565b620003a762000481366004620049f6565b620015a3565b607e54620004989063ffffffff1681565b60405163ffffffff9091168152602001620003d1565b620003a7620004bf36600462004b71565b6200164d565b620003a76200170a565b620004f4620004e036600462004b9b565b5f9081526034602052604090206001015490565b604051908152602001620003d1565b6200058362000514366004620049f6565b60408051606080820183525f808352602080840182905292840181905263ffffffff959095168552608182528285206001600160401b03948516865260030182529382902082519485018352805485526001015480841691850191909152600160401b90049091169082015290565b60408051825181526020808401516001600160401b03908116918301919091529282015190921690820152606001620003d1565b620003a7620005c836600462004bb3565b620017e6565b608754620003bd906001600160401b031681565b620003a7620005f336600462004bb3565b6200180e565b620003a76200060a36600462004be4565b62001848565b608654620004f4565b620004f46200062a366004620049f6565b63ffffffff82165f9081526081602090815260408083206001600160401b038516845260020190915290205492915050565b620004f46200190d565b620006ca6200067736600462004a2c565b607f6020525f90815260409020805460018201546002909201546001600160a01b0391821692918216916001600160401b03600160a01b8204169160ff600160e01b8304811692600160e81b9004169086565b604080516001600160a01b0397881681529690951660208701526001600160401b039093169385019390935260ff166060840152901515608083015260a082015260c001620003d1565b620003a76200072536600462004a2c565b62001924565b620003a76200073c36600462004ca4565b62001a1e565b620007596200075336600462004d6a565b62001e7b565b604051620003d1919062004e1d565b620004986200077936600462004be4565b60836020525f908152604090205463ffffffff1681565b608454620003bd90600160c01b90046001600160401b031681565b620003a7620007bc36600462004aec565b62001ead565b620003a7620007d336600462004a5a565b620021d8565b620003f1620007ea36600462004bb3565b5f9182526034602090815260408084206001600160a01b0393909316845291905290205460ff1690565b620004f46200228f565b620003bd6200082f36600462004e31565b62002370565b620003a76200084636600462004be4565b6200253c565b620003a76200085d36600462004be4565b620025f3565b620004f45f81565b620004f4620026a9565b6200089d7f000000000000000000000000000000000000000000000000000000000000000081565b6040516001600160a01b039091168152602001620003d1565b608554620008cc90600160801b900461ffff1681565b60405161ffff9091168152602001620003d1565b62000975620008f1366004620049f6565b60408051608080820183525f8083526020808401829052838501829052606093840182905263ffffffff969096168152608186528381206001600160401b03958616825260040186528390208351918201845280548086168352600160401b9004909416948101949094526001830154918401919091526002909101549082015290565b604051620003d191905f6080820190506001600160401b0380845116835280602085015116602084015250604083015160408301526060830151606083015292915050565b608454620003bd90600160801b90046001600160401b031681565b620003a7620009e636600462004e5c565b62002a71565b62000498620009fd36600462004eed565b60826020525f908152604090205463ffffffff1681565b6200089d7f000000000000000000000000000000000000000000000000000000000000000081565b620003a762000a4d36600462004b9b565b62002d6d565b620003a762000a6436600462004bb3565b62002e09565b608554620003bd906001600160401b031681565b620003a762002e31565b608454620003bd90600160401b90046001600160401b031681565b620003a762000ab436600462004f1c565b62002efd565b6200089d7f000000000000000000000000000000000000000000000000000000000000000081565b620003a762000af336600462004f94565b62002fd1565b608054620004989063ffffffff1681565b62000ba062000b1b36600462004a2c565b60816020525f9081526040902080546001820154600583015460068401546007909401546001600160a01b0380851695600160a01b958690046001600160401b039081169692861695929092048216939282821692600160401b808404821693600160801b808204841694600160c01b90920484169380831693830416910460ff168c565b604080516001600160a01b039d8e1681526001600160401b039c8d1660208201529c909a16998c019990995296891660608b015260808a019590955292871660a089015290861660c0880152851660e0870152841661010086015283166101208501529190911661014083015260ff1661016082015261018001620003d1565b5f54600290610100900460ff1615801562000c4157505f5460ff8083169116105b62000cb95760405162461bcd60e51b815260206004820152602e60248201527f496e697469616c697a61626c653a20636f6e747261637420697320616c72656160448201527f647920696e697469616c697a656400000000000000000000000000000000000060648201526084015b60405180910390fd5b5f805461010060ff841661ffff199092169190911717905560858054608480546001600160c01b0316600160c01b6001600160401b038e8116919091029190911790915567016345785d8a00006086558c166001600160801b03199091161769070800000000000000001761ffff60801b19167103ea0000000000000000000000000000000017905562000d4c620031c5565b62000d787f084e94f375e9d647f87f5b2ceffba1e062c70f6009fdbcf80291e803b5c9edd48c62003231565b62000d845f8862003231565b62000db07fac75d24dbb35ea80e25fab167da4dea46c1915260426570db84f184891f5f5908862003231565b62000ddc7f3dfe277d2a2c04b75fb2eb3743fa00005ae3678a20c299e65fdf4df76517f68e8862003231565b62000e087f66156603fe29d13f97c6f3e3dff4ef71919f9aa61c555be0182d954e94221aac8862003231565b62000e347fab66e11c4f712cd06ab11bf9339b48bef39e12d4a22eeef71d2860a0c90482bd8962003231565b62000e607fa0fab074aba36a6fa69f1a83ee86e5abfb8433966eb57efb13dc2fc2f24ddd088962003231565b62000e8c7f62ba6ba2ffed8cfe316b583325ea41ac6e7ba9e5864d2bc6fabba7ac26d2f0f48962003231565b62000eb87fa5c5790f581d443ed43873ab47cfb8c5d66a6db268e58b5971bb33fc66e07db18962003231565b62000f047f084e94f375e9d647f87f5b2ceffba1e062c70f6009fdbcf80291e803b5c9edd47f73cb0569fdbea2544dae03fdb2fe10eda92a72a2e8cd2bd496e85b762505a3f06200323d565b62000f307f73cb0569fdbea2544dae03fdb2fe10eda92a72a2e8cd2bd496e85b762505a3f08962003231565b62000f5c7f8cf807f6970720f8e2c208c7c5037595982c7bd9ed93c380d09df743d0dcc3fb8962003231565b62000fa87f141f8f32ce6198eee741f695cec728bfd32d289f1acf73621fb303581000545e7f9b6f082d8d3644ae2f24a3c32e356d6f2d9b2844d9b26164fbc82663ff2859516200323d565b62000fd47f141f8f32ce6198eee741f695cec728bfd32d289f1acf73621fb303581000545e8762003231565b620010007f9b6f082d8d3644ae2f24a3c32e356d6f2d9b2844d9b26164fbc82663ff2859518762003231565b6073546074546001600160401b03600160401b909204821691168082146200103b57604051632e4cc54360e11b815260040160405180910390fd5b5f62001060888888885f60745f9054906101000a90046001600160401b031662003287565b6001600160401b038381165f81815260756020908152604080832054600287018352818420558885168084526072808452828520600389018552948390208554815560018087018054919092018054918a1667ffffffffffffffff198084168217835593546001600160801b0319938416909117600160401b91829004909b1681029a909a17905560068a01805490911690931797870297909717909155600787018054909616909417909455607a54606f549390915290549251635d6717a560e01b81529394506001600160a01b038c811694635d6717a5946200116694938316936b01000000000000000000000090049092169160769160779190600401620050cd565b5f604051808303815f87803b1580156200117e575f80fd5b505af115801562001191573d5f803e3d5ffd5b50505f805461ff0019169055505060405160ff851681527f7f26b83ff96e1f2b6a682f133852f6798a09c465da95921460cefb384740249893506020019150620011d89050565b60405180910390a15050505050505050505050565b63ffffffff82165f9081526081602052604081206200120d9083620034a8565b90505b92915050565b63ffffffff81165f9081526081602052604081206200121090620034ec565b7f084e94f375e9d647f87f5b2ceffba1e062c70f6009fdbcf80291e803b5c9edd462001261816200355b565b63ffffffff89165f90815260816020526040902062001287818a8a8a8a8a8a8a62003567565b60068101805467ffffffffffffffff60401b1916600160401b6001600160401b038981169182029290921783555f9081526002840160205260409020869055600583018790559054600160801b90041615620012f8576006810180546fffffffffffffffffffffffffffffffff1690555b7f00000000000000000000000000000000000000000000000000000000000000006001600160a01b03166333d6247d62001331620026a9565b6040518263ffffffff1660e01b81526004016200135091815260200190565b5f604051808303815f87803b15801562001368575f80fd5b505af11580156200137b573d5f803e3d5ffd5b5050608480546001600160c01b031661127560c71b1790555050604080516001600160401b03881681526020810186905290810186905233606082015263ffffffff8b16907f3182bd6e6f74fc1fdc88b60f3a4f4c7f79db6ae6f5b88a1b3f5a1e28ec210d5e9060800160405180910390a250505050505050505050565b7f084e94f375e9d647f87f5b2ceffba1e062c70f6009fdbcf80291e803b5c9edd462001425816200355b565b63ffffffff89165f9081526081602052604090206200144b818a8a8a8a8a8a8a620038f5565b60068101805467ffffffffffffffff60401b1916600160401b6001600160401b038a81169182029290921783555f9081526002840160205260409020879055600583018890559054600160801b90041615620014bc576006810180546fffffffffffffffffffffffffffffffff1690555b7f00000000000000000000000000000000000000000000000000000000000000006001600160a01b03166333d6247d620014f5620026a9565b6040518263ffffffff1660e01b81526004016200151491815260200190565b5f604051808303815f87803b1580156200152c575f80fd5b505af11580156200153f573d5f803e3d5ffd5b5050604080516001600160401b038b1681526020810189905290810189905233925063ffffffff8d1691507fd1ec3a1216f08b6eff72e169ceb548b782db18a6614852618d86bb19f3f9b0d39060600160405180910390a350505050505050505050565b63ffffffff82165f9081526081602090815260408083203384527fc17b14a573f65366cdad721c7c0a0f76536bb4a86b935cdac44610e4f010b52a9092529091205460ff166200163c57606f5460ff16156200161257604051630bc011ff60e21b815260040160405180910390fd5b6200161e8183620034a8565b6200163c57604051630674f25160e11b815260040160405180910390fd5b62001648818362003d08565b505050565b7fa5c5790f581d443ed43873ab47cfb8c5d66a6db268e58b5971bb33fc66e07db162001679816200355b565b6103e88261ffff1610806200169357506103ff8261ffff16115b15620016b257604051630984a67960e31b815260040160405180910390fd5b6085805461ffff60801b1916600160801b61ffff8516908102919091179091556040519081527f7019933d795eba185c180209e8ae8bffbaa25bcef293364687702c31f4d302c5906020015b60405180910390a15050565b335f9081527f8875b94af5657a2903def9906d67a3f42d8a836d24b5602c00f00fc855339fcd602052604090205460ff16620017da57608454600160801b90046001600160401b031615806200178b57506084544290620017809062093a8090600160801b90046001600160401b031662005135565b6001600160401b0316115b80620017bb57506087544290620017b09062093a80906001600160401b031662005135565b6001600160401b0316115b15620017da5760405163692baaad60e11b815260040160405180910390fd5b620017e462003ef4565b565b5f8281526034602052604090206001015462001802816200355b565b62001648838362003f6e565b6001600160a01b03811633146200183857604051630b4ad1cd60e31b815260040160405180910390fd5b62001844828262003ff2565b5050565b7fa5c5790f581d443ed43873ab47cfb8c5d66a6db268e58b5971bb33fc66e07db162001874816200355b565b606f5460ff16620018b6576084546001600160401b03600160c01b909104811690831610620018b65760405163401636df60e01b815260040160405180910390fd5b608480546001600160c01b0316600160c01b6001600160401b038516908102919091179091556040519081527f1f4fa24c2e4bad19a7f3ec5c5485f70d46c798461c2e684f55bbd0fc661373a190602001620016fe565b5f60865460646200191f91906200515f565b905090565b7fab66e11c4f712cd06ab11bf9339b48bef39e12d4a22eeef71d2860a0c90482bd62001950816200355b565b63ffffffff821615806200196f5750607e5463ffffffff908116908316115b156200198e57604051637512e5cb60e01b815260040160405180910390fd5b63ffffffff82165f908152607f60205260409020600180820154600160e81b900460ff1615159003620019d457604051633b8d3d9960e01b815260040160405180910390fd5b60018101805460ff60e81b1916600160e81b17905560405163ffffffff8416907f4710d2ee567ef1ed6eb2f651dde4589524bcf7cebc62147a99b281cc836e7e44905f90a2505050565b7fa0fab074aba36a6fa69f1a83ee86e5abfb8433966eb57efb13dc2fc2f24ddd0862001a4a816200355b565b63ffffffff8816158062001a695750607e5463ffffffff908116908916115b1562001a8857604051637512e5cb60e01b815260040160405180910390fd5b63ffffffff88165f908152607f60205260409020600180820154600160e81b900460ff161515900362001ace57604051633b8d3d9960e01b815260040160405180910390fd5b6001600160401b0388165f9081526083602052604090205463ffffffff161562001b0b576040516337c8fe0960e11b815260040160405180910390fd5b608080545f9190829062001b259063ffffffff1662005179565b825463ffffffff8281166101009490940a93840293021916919091179091558254604080515f80825260208201928390529394506001600160a01b0390921691309162001b7290620048d3565b62001b80939291906200519e565b604051809103905ff08015801562001b9a573d5f803e3d5ffd5b5090508160835f8c6001600160401b03166001600160401b031681526020019081526020015f205f6101000a81548163ffffffff021916908363ffffffff1602179055508160825f836001600160a01b03166001600160a01b031681526020019081526020015f205f6101000a81548163ffffffff021916908363ffffffff1602179055505f60815f8463ffffffff1663ffffffff1681526020019081526020015f20905081815f015f6101000a8154816001600160a01b0302191690836001600160a01b031602179055508360010160149054906101000a90046001600160401b03168160010160146101000a8154816001600160401b0302191690836001600160401b03160217905550836001015f9054906101000a90046001600160a01b0316816001015f6101000a8154816001600160a01b0302191690836001600160a01b031602179055508a815f0160146101000a8154816001600160401b0302191690836001600160401b031602179055508360020154816002015f806001600160401b031681526020019081526020015f20819055508b63ffffffff168160070160086101000a8154816001600160401b0302191690836001600160401b0316021790555083600101601c9054906101000a900460ff168160070160106101000a81548160ff021916908360ff1602179055508263ffffffff167f194c983456df6701c6a50830b90fe80e72b823411d0d524970c9590dc277a6418d848e8c60405162001dfe949392919063ffffffff9490941684526001600160a01b0392831660208501526001600160401b0391909116604084015216606082015260800190565b60405180910390a2604051633892b81160e11b81526001600160a01b0383169063712570229062001e3e908d908d9088908e908e908e90600401620051d4565b5f604051808303815f87803b15801562001e56575f80fd5b505af115801562001e69573d5f803e3d5ffd5b50505050505050505050505050505050565b63ffffffff86165f90815260816020526040902060609062001ea290878787878762004074565b979650505050505050565b606f5460ff161562001ed257604051630bc011ff60e21b815260040160405180910390fd5b63ffffffff88165f9081526081602090815260408083206084546001600160401b038a81168652600383019094529190932060010154429262001f2092600160c01b90048116911662005135565b6001600160401b0316111562001f4957604051638a0704d360e01b815260040160405180910390fd5b6103e862001f58888862005236565b6001600160401b0316111562001f8157604051635acfba9d60e11b815260040160405180910390fd5b62001f938189898989898989620038f5565b62001f9f8187620041cb565b6085546001600160401b03165f03620020b05760068101805467ffffffffffffffff60401b1916600160401b6001600160401b038981169182029290921783555f9081526002840160205260409020869055600583018790559054600160801b9004161562002023576006810180546fffffffffffffffffffffffffffffffff1690555b7f00000000000000000000000000000000000000000000000000000000000000006001600160a01b03166333d6247d6200205c620026a9565b6040518263ffffffff1660e01b81526004016200207b91815260200190565b5f604051808303815f87803b15801562002093575f80fd5b505af1158015620020a6573d5f803e3d5ffd5b5050505062002179565b620020bb81620043c2565b600681018054600160801b90046001600160401b0316906010620020df8362005259565b82546001600160401b039182166101009390930a92830292820219169190911790915560408051608081018252428316815289831660208083019182528284018b8152606084018b81526006890154600160801b900487165f90815260048a01909352949091209251835492518616600160401b026001600160801b03199093169516949094171781559151600183015551600290910155505b604080516001600160401b038816815260208101869052908101869052339063ffffffff8b16907faac1e7a157b259544ebacd6e8a82ae5d6c8f174e12aa48696277bcc9a661f0b49060600160405180910390a3505050505050505050565b606f5460ff1615620021fd57604051630bc011ff60e21b815260040160405180910390fd5b63ffffffff88165f90815260816020526040902062002223818989898989898962003567565b6001600160401b0387165f9081526004820160209081526040918290206002015482519081529081018590527f1f44c21118c4603cfb4e1b621dbcfa2b73efcececee2b99b620b2953d33a7010910160405180910390a16200228462003ef4565b505050505050505050565b6040516370a0823160e01b81523060048201525f9081906001600160a01b037f000000000000000000000000000000000000000000000000000000000000000016906370a0823190602401602060405180830381865afa158015620022f6573d5f803e3d5ffd5b505050506040513d601f19601f820116820180604052508101906200231c919062005277565b6084549091505f9062002342906001600160401b03600160401b82048116911662005236565b6001600160401b03169050805f036200235d575f9250505090565b620023698183620052a3565b9250505090565b606f545f9060ff16156200239757604051630bc011ff60e21b815260040160405180910390fd5b335f9081526082602052604081205463ffffffff1690819003620023ce576040516371653c1560e01b815260040160405180910390fd5b836001600160401b03165f03620023f857604051632590ccf960e01b815260040160405180910390fd5b63ffffffff81165f90815260816020526040812060848054919287926200242a9084906001600160401b031662005135565b82546101009290920a6001600160401b0381810219909316918316021790915560068301541690505f6200245f878362005135565b6006840180546001600160401b0380841667ffffffffffffffff199092168217909255604080516060810182528a815242841660208083019182528886168385019081525f95865260038b0190915292909320905181559151600192909201805491518416600160401b026001600160801b031990921692909316919091171790559050620024ee83620043c2565b6040516001600160401b038216815263ffffffff8516907f1d9f30260051d51d70339da239ea7b080021adcaabfa71c9b0ea339a20cf9a259060200160405180910390a29695505050505050565b7fa5c5790f581d443ed43873ab47cfb8c5d66a6db268e58b5971bb33fc66e07db162002568816200355b565b606f5460ff16620025a3576085546001600160401b0390811690831610620025a35760405163048a05a960e41b815260040160405180910390fd5b6085805467ffffffffffffffff19166001600160401b0384169081179091556040519081527fc4121f4e22c69632ebb7cf1f462be0511dc034f999b52013eddfb24aab765c7590602001620016fe565b7fa5c5790f581d443ed43873ab47cfb8c5d66a6db268e58b5971bb33fc66e07db16200261f816200355b565b62015180826001600160401b031611156200264d57604051631c0cfbfd60e31b815260040160405180910390fd5b6085805467ffffffffffffffff60401b1916600160401b6001600160401b038516908102919091179091556040519081527f1b023231a1ab6b5d93992f168fb44498e1a7e64cef58daff6f1c216de6a68c2890602001620016fe565b6080545f9063ffffffff16808203620026c357505f919050565b5f816001600160401b03811115620026df57620026df62004c00565b60405190808252806020026020018201604052801562002709578160200160208202803683370190505b5090505f5b82811015620027795760815f62002727836001620052b9565b63ffffffff1663ffffffff1681526020019081526020015f2060050154828281518110620027595762002759620052cf565b6020908102919091010152806200277081620052e3565b9150506200270e565b505f60205b83600114620029d1575f62002795600286620052fe565b620027a2600287620052a3565b620027ae9190620052b9565b90505f816001600160401b03811115620027cc57620027cc62004c00565b604051908082528060200260200182016040528015620027f6578160200160208202803683370190505b5090505f5b828110156200297d576200281160018462005314565b811480156200282c575062002828600288620052fe565b6001145b15620028b45785620028408260026200515f565b81518110620028535762002853620052cf565b60200260200101518560405160200162002877929190918252602082015260400190565b60405160208183030381529060405280519060200120828281518110620028a257620028a2620052cf565b60200260200101818152505062002968565b85620028c28260026200515f565b81518110620028d557620028d5620052cf565b602002602001015186826002620028ed91906200515f565b620028fa906001620052b9565b815181106200290d576200290d620052cf565b602002602001015160405160200162002930929190918252602082015260400190565b604051602081830303815290604052805190602001208282815181106200295b576200295b620052cf565b6020026020010181815250505b806200297481620052e3565b915050620027fb565b508094508195508384604051602001620029a1929190918252602082015260400190565b6040516020818303038152906040528051906020012093508280620029c6906200532a565b93505050506200277e565b5f835f81518110620029e757620029e7620052cf565b602002602001015190505f5b8281101562002a6757604080516020810184905290810185905260600160408051601f1981840301815282825280516020918201209083018790529082018690529250606001604051602081830303815290604052805190602001209350808062002a5e90620052e3565b915050620029f3565b5095945050505050565b7f66156603fe29d13f97c6f3e3dff4ef71919f9aa61c555be0182d954e94221aac62002a9d816200355b565b63ffffffff8416158062002abc5750607e5463ffffffff908116908516115b1562002adb57604051637512e5cb60e01b815260040160405180910390fd5b6001600160a01b0385165f9081526082602052604081205463ffffffff169081900362002b1b576040516374a086a360e01b815260040160405180910390fd5b63ffffffff8181165f908152608160205260409020600781015490918716600160401b9091046001600160401b03160362002b6957604051634f61d51960e01b815260040160405180910390fd5b63ffffffff86165f908152607f60205260409020600180820154600160e81b900460ff161515900362002baf57604051633b8d3d9960e01b815260040160405180910390fd5b60018101546007830154600160801b900460ff908116600160e01b909204161462002bed57604051635aa0d5f160e11b815260040160405180910390fd5b60018082018054918401805473ffffffffffffffffffffffffffffffffffffffff1981166001600160a01b03909416938417825591546001600160401b03600160a01b9182900416027fffffffff00000000000000000000000000000000000000000000000000000000909216909217179055600782018054600160401b63ffffffff8a160267ffffffffffffffff60401b199091161790555f62002c928462001216565b60078401805467ffffffffffffffff19166001600160401b038316179055825460405163278f794360e11b81529192506001600160a01b038b811692634f1ef2869262002ce89216908b908b9060040162005342565b5f604051808303815f87803b15801562002d00575f80fd5b505af115801562002d13573d5f803e3d5ffd5b50506040805163ffffffff8c811682526001600160401b0386166020830152881693507ff585e04c05d396901170247783d3e5f0ee9c1df23072985b50af089f5e48b19d92500160405180910390a2505050505050505050565b7f8cf807f6970720f8e2c208c7c5037595982c7bd9ed93c380d09df743d0dcc3fb62002d99816200355b565b683635c9adc5dea0000082118062002db45750633b9aca0082105b1562002dd357604051638586952560e01b815260040160405180910390fd5b60868290556040518281527ffb383653f53ee079978d0c9aff7aeff04a10166ce244cca9c9f9d8d96bed45b290602001620016fe565b5f8281526034602052604090206001015462002e25816200355b565b62001648838362003ff2565b7f62ba6ba2ffed8cfe316b583325ea41ac6e7ba9e5864d2bc6fabba7ac26d2f0f462002e5d816200355b565b6087805467ffffffffffffffff1916426001600160401b031617905560408051636de0b4bb60e11b815290517f00000000000000000000000000000000000000000000000000000000000000006001600160a01b03169163dbc16976916004808301925f92919082900301818387803b15801562002ed9575f80fd5b505af115801562002eec573d5f803e3d5ffd5b5050505062002efa6200448b565b50565b7f3dfe277d2a2c04b75fb2eb3743fa00005ae3678a20c299e65fdf4df76517f68e62002f29816200355b565b6001600160401b0384165f9081526083602052604090205463ffffffff161562002f66576040516337c8fe0960e11b815260040160405180910390fd5b6001600160a01b0387165f9081526082602052604090205463ffffffff161562002fa357604051630d409b9360e41b815260040160405180910390fd5b5f62002fb488888888875f62003287565b5f8080526002909101602052604090209390935550505050505050565b7fac75d24dbb35ea80e25fab167da4dea46c1915260426570db84f184891f5f59062002ffd816200355b565b607e80545f91908290620030179063ffffffff1662005179565b91906101000a81548163ffffffff021916908363ffffffff160217905590506040518060c00160405280896001600160a01b03168152602001886001600160a01b03168152602001876001600160401b031681526020018660ff1681526020015f1515815260200185815250607f5f8363ffffffff1663ffffffff1681526020019081526020015f205f820151815f015f6101000a8154816001600160a01b0302191690836001600160a01b031602179055506020820151816001015f6101000a8154816001600160a01b0302191690836001600160a01b0316021790555060408201518160010160146101000a8154816001600160401b0302191690836001600160401b03160217905550606082015181600101601c6101000a81548160ff021916908360ff160217905550608082015181600101601d6101000a81548160ff02191690831515021790555060a082015181600201559050508063ffffffff167fa2970448b3bd66ba7e524e7b2a5b9cf94fa29e32488fb942afdfe70dd4b77b52898989898989604051620031b39695949392919062005380565b60405180910390a25050505050505050565b5f54610100900460ff16620017e45760405162461bcd60e51b815260206004820152602b60248201527f496e697469616c697a61626c653a20636f6e7472616374206973206e6f74206960448201526a6e697469616c697a696e6760a81b606482015260840162000cb0565b62001844828262003f6e565b5f82815260346020526040808220600101805490849055905190918391839186917fbd79b86ffe0ab8e8776151514217cd7cacd52c909f66475c3af44e129f0b00ff9190a4505050565b608080545f9182918290620032a29063ffffffff1662005179565b91906101000a81548163ffffffff021916908363ffffffff160217905590508060835f876001600160401b03166001600160401b031681526020019081526020015f205f6101000a81548163ffffffff021916908363ffffffff1602179055508060825f8a6001600160a01b03166001600160a01b031681526020019081526020015f205f6101000a81548163ffffffff021916908363ffffffff16021790555060815f8263ffffffff1663ffffffff1681526020019081526020015f20915087825f015f6101000a8154816001600160a01b0302191690836001600160a01b03160217905550858260010160146101000a8154816001600160401b0302191690836001600160401b0316021790555086826001015f6101000a8154816001600160a01b0302191690836001600160a01b0316021790555084825f0160146101000a8154816001600160401b0302191690836001600160401b03160217905550838260070160106101000a81548160ff021916908360ff1602179055508063ffffffff167fadfc7d56f7e39b08b321534f14bfb135ad27698f7d2f5ad0edc2356ea9a3f850878a888888604051620034959594939291906001600160401b0395861681526001600160a01b03949094166020850152918416604084015260ff166060830152909116608082015260a00190565b60405180910390a2509695505050505050565b6085546001600160401b038281165f90815260048501602052604081205490924292620034da92918116911662005135565b6001600160401b031611159392505050565b60068101545f90600160801b90046001600160401b0316156200353e575060068101546001600160401b03600160801b90910481165f9081526004909201602052604090912054600160401b90041690565b5060060154600160401b90046001600160401b031690565b919050565b62002efa8133620044e3565b60078801545f906001600160401b0390811690871610156200359c5760405163ead1340b60e01b815260040160405180910390fd5b6001600160401b038816156200363c5760068901546001600160401b03600160801b90910481169089161115620035e65760405163bb14c20560e01b815260040160405180910390fd5b506001600160401b038088165f90815260048a0160205260409020600281015481549092888116600160401b90920416146200363557604051632bd2e3e760e01b815260040160405180910390fd5b50620036b0565b506001600160401b0385165f9081526002890160205260409020548062003676576040516324cbdcc360e11b815260040160405180910390fd5b60068901546001600160401b03600160401b90910481169087161115620036b057604051630f2b74f160e11b815260040160405180910390fd5b60068901546001600160401b03600160801b90910481169088161180620036e95750876001600160401b0316876001600160401b031611155b806200370d575060068901546001600160401b03600160c01b909104811690881611155b156200372c5760405163bfa7079f60e01b815260040160405180910390fd5b6001600160401b038781165f90815260048b016020526040902054600160401b900481169086161462003772576040516332a2a77f60e01b815260040160405180910390fd5b5f620037838a888888868962004074565b90505f7f30644e72e131a029b85045b68181585d2833e84879b9709143e1f593f0000001600283604051620037b99190620053d7565b602060405180830381855afa158015620037d5573d5f803e3d5ffd5b5050506040513d601f19601f82011682018060405250810190620037fa919062005277565b620038069190620052fe565b60018c0154604080516020810182528381529051634890ed4560e11b81529293506001600160a01b0390911691639121da8a916200384a91889190600401620053f4565b602060405180830381865afa15801562003866573d5f803e3d5ffd5b505050506040513d601f19601f820116820180604052508101906200388c919062005430565b620038aa576040516309bde33960e01b815260040160405180910390fd5b6001600160401b0389165f90815260048c016020526040902060020154859003620038e85760405163a47276bd60e01b815260040160405180910390fd5b5050505050505050505050565b5f80620039028a620034ec565b60078b01549091506001600160401b039081169089161015620039385760405163ead1340b60e01b815260040160405180910390fd5b6001600160401b03891615620039da5760068a01546001600160401b03600160801b9091048116908a161115620039825760405163bb14c20560e01b815260040160405180910390fd5b6001600160401b03808a165f90815260048c01602052604090206002810154815490945090918a8116600160401b9092041614620039d357604051632bd2e3e760e01b815260040160405180910390fd5b5062003a49565b6001600160401b0388165f90815260028b01602052604090205491508162003a15576040516324cbdcc360e11b815260040160405180910390fd5b806001600160401b0316886001600160401b0316111562003a4957604051630f2b74f160e11b815260040160405180910390fd5b806001600160401b0316876001600160401b03161162003a7c5760405163b9b18f5760e01b815260040160405180910390fd5b5f62003a8d8b8a8a8a878b62004074565b90505f7f30644e72e131a029b85045b68181585d2833e84879b9709143e1f593f000000160028360405162003ac39190620053d7565b602060405180830381855afa15801562003adf573d5f803e3d5ffd5b5050506040513d601f19601f8201168201806040525081019062003b04919062005277565b62003b109190620052fe565b60018d0154604080516020810182528381529051634890ed4560e11b81529293506001600160a01b0390911691639121da8a9162003b5491899190600401620053f4565b602060405180830381865afa15801562003b70573d5f803e3d5ffd5b505050506040513d601f19601f8201168201806040525081019062003b96919062005430565b62003bb4576040516309bde33960e01b815260040160405180910390fd5b5f62003bc1848b62005236565b905062003c1a87826001600160401b031662003bdc6200228f565b62003be891906200515f565b6001600160a01b037f000000000000000000000000000000000000000000000000000000000000000016919062004526565b80608460088282829054906101000a90046001600160401b031662003c40919062005135565b82546101009290920a6001600160401b03818102199093169183160217909155608480547fffffffffffffffff0000000000000000ffffffffffffffffffffffffffffffff16600160801b428416021790558e546040516332c2d15360e01b8152918d166004830152602482018b90523360448301526001600160a01b031691506332c2d153906064015f604051808303815f87803b15801562003ce2575f80fd5b505af115801562003cf5573d5f803e3d5ffd5b5050505050505050505050505050505050565b60068201546001600160401b03600160c01b909104811690821611158062003d47575060068201546001600160401b03600160801b9091048116908216115b1562003d665760405163d086b70b60e01b815260040160405180910390fd5b6001600160401b038181165f8181526004850160209081526040808320805460068901805467ffffffffffffffff60401b1916600160401b92839004909816918202979097178755600280830154828752908a0190945291909320919091556001820154600587015583546001600160c01b0316600160c01b909302929092179092557f00000000000000000000000000000000000000000000000000000000000000006001600160a01b03166333d6247d62003e22620026a9565b6040518263ffffffff1660e01b815260040162003e4191815260200190565b5f604051808303815f87803b15801562003e59575f80fd5b505af115801562003e6c573d5f803e3d5ffd5b505085546001600160a01b03165f90815260826020908152604091829020546002870154600188015484516001600160401b03898116825294810192909252818501529188166060830152915163ffffffff90921693507f581910eb7a27738945c2f00a91f2284b2d6de9d4e472b12f901c2b0df045e21b925081900360800190a250505050565b7f00000000000000000000000000000000000000000000000000000000000000006001600160a01b0316632072f6c56040518163ffffffff1660e01b81526004015f604051808303815f87803b15801562003f4d575f80fd5b505af115801562003f60573d5f803e3d5ffd5b50505050620017e46200458f565b5f8281526034602090815260408083206001600160a01b038516845290915290205460ff1662001844575f8281526034602090815260408083206001600160a01b0385168085529252808320805460ff1916600117905551339285917f2f8788117e7eff1d82e926ec794901d17c78024a50270940304540a733656f0d9190a45050565b5f8281526034602090815260408083206001600160a01b038516845290915290205460ff161562001844575f8281526034602090815260408083206001600160a01b0385168085529252808320805460ff1916905551339285917ff6391f5c32d9c69d2a47ea670b442974b53935d1edc7fd64eb21e047a839171b9190a45050565b6001600160401b038086165f8181526003890160205260408082205493881682529020546060929115801590620040a9575081155b15620040c85760405163340c614f60e11b815260040160405180910390fd5b80620040e7576040516366385b5160e01b815260040160405180910390fd5b620040f284620045eb565b62004110576040516305dae44f60e21b815260040160405180910390fd5b885460018a01546040516bffffffffffffffffffffffff193360601b16602082015260348101889052605481018590527fffffffffffffffff00000000000000000000000000000000000000000000000060c08c811b82166074840152600160a01b94859004811b8216607c84015293909204831b82166084820152608c810187905260ac810184905260cc81018990529189901b1660ec82015260f401604051602081830303815290604052925050509695505050505050565b5f620041d783620034ec565b9050815f80620041e8848462005236565b6085546001600160401b0391821692505f916200420e91600160401b9004164262005314565b90505b846001600160401b0316846001600160401b03161462004297576001600160401b038085165f9081526003890160205260409020600181015490911682101562004272576001810154600160401b90046001600160401b0316945062004290565b6200427e868662005236565b6001600160401b031693505062004297565b5062004211565b5f620042a4848462005314565b9050838110156200430257808403600c8111620042c25780620042c5565b600c5b9050806103e80a81608560109054906101000a900461ffff1661ffff160a6086540281620042f757620042f76200528f565b046086555062004379565b838103600c811162004315578062004318565b600c5b90505f816103e80a82608560109054906101000a900461ffff1661ffff160a670de0b6b3a764000002816200435157620043516200528f565b04905080608654670de0b6b3a764000002816200437257620043726200528f565b0460865550505b683635c9adc5dea000006086541115620043a057683635c9adc5dea00000608655620043b8565b633b9aca006086541015620043b857633b9aca006086555b5050505050505050565b60068101546001600160401b03600160c01b82048116600160801b90920416111562002efa5760068101545f906200440c90600160c01b90046001600160401b0316600162005135565b90506200441a8282620034a8565b15620018445760068201545f9060029062004447908490600160801b90046001600160401b031662005236565b62004453919062005451565b6200445f908362005135565b90506200446d8382620034a8565b156200447f5762001648838262003d08565b62001648838362003d08565b606f5460ff16620044af57604051635386698160e01b815260040160405180910390fd5b606f805460ff191690556040517f1e5e34eea33501aecf2ebec9fe0e884a40804275ea7fe10b2ba084c8374308b3905f90a1565b5f8281526034602090815260408083206001600160a01b038516845290915290205460ff166200184457604051637615be1f60e11b815260040160405180910390fd5b604080516001600160a01b038416602482015260448082018490528251808303909101815260649091019091526020810180517bffffffffffffffffffffffffffffffffffffffffffffffffffffffff1663a9059cbb60e01b179052620016489084906200466f565b606f5460ff1615620045b457604051630bc011ff60e21b815260040160405180910390fd5b606f805460ff191660011790556040517f2261efe5aef6fedc1fd1550b25facc9181745623049c7901287030b9ad1a5497905f90a1565b5f67ffffffff000000016001600160401b03831610801562004621575067ffffffff00000001604083901c6001600160401b0316105b801562004642575067ffffffff00000001608083901c6001600160401b0316105b80156200465a575067ffffffff0000000160c083901c105b156200466857506001919050565b505f919050565b5f620046c5826040518060400160405280602081526020017f5361666545524332303a206c6f772d6c6576656c2063616c6c206661696c6564815250856001600160a01b0316620047479092919063ffffffff16565b805190915015620016485780806020019051810190620046e6919062005430565b620016485760405162461bcd60e51b815260206004820152602a60248201527f5361666545524332303a204552433230206f7065726174696f6e20646964206e6044820152691bdd081cdd58d8d9595960b21b606482015260840162000cb0565b60606200475784845f856200475f565b949350505050565b606082471015620047c25760405162461bcd60e51b815260206004820152602660248201527f416464726573733a20696e73756666696369656e742062616c616e636520666f6044820152651c8818d85b1b60d21b606482015260840162000cb0565b5f80866001600160a01b03168587604051620047df9190620053d7565b5f6040518083038185875af1925050503d805f81146200481b576040519150601f19603f3d011682016040523d82523d5f602084013e62004820565b606091505b509150915062001ea28783838760608315620048a05782515f0362004898576001600160a01b0385163b620048985760405162461bcd60e51b815260206004820152601d60248201527f416464726573733a2063616c6c20746f206e6f6e2d636f6e7472616374000000604482015260640162000cb0565b508162004757565b620047578383815115620048b75781518083602001fd5b8060405162461bcd60e51b815260040162000cb0919062004e1d565b61091d806200547a83390190565b6001600160a01b038116811462002efa575f80fd5b80356001600160401b038116811462003556575f80fd5b5f805f805f805f805f806101408b8d03121562004928575f80fd5b8a356200493581620048e1565b99506200494560208c01620048f6565b98506200495560408c01620048f6565b975060608b01356200496781620048e1565b965060808b01356200497981620048e1565b955060a08b01356200498b81620048e1565b945060c08b01356200499d81620048e1565b935060e08b0135620049af81620048e1565b9250620049c06101008c01620048f6565b9150620049d16101208c01620048f6565b90509295989b9194979a5092959850565b803563ffffffff8116811462003556575f80fd5b5f806040838503121562004a08575f80fd5b62004a1383620049e2565b915062004a2360208401620048f6565b90509250929050565b5f6020828403121562004a3d575f80fd5b6200120d82620049e2565b80610300810183101562001210575f80fd5b5f805f805f805f806103e0898b03121562004a73575f80fd5b62004a7e89620049e2565b975062004a8e60208a01620048f6565b965062004a9e60408a01620048f6565b955062004aae60608a01620048f6565b945062004abe60808a01620048f6565b935060a0890135925060c0890135915062004add8a60e08b0162004a48565b90509295985092959890939650565b5f805f805f805f806103e0898b03121562004b05575f80fd5b62004b1089620049e2565b975062004b2060208a01620048f6565b965062004b3060408a01620048f6565b955062004b4060608a01620048f6565b94506080890135935060a0890135925060c089013562004b6081620048e1565b915062004add8a60e08b0162004a48565b5f6020828403121562004b82575f80fd5b813561ffff8116811462004b94575f80fd5b9392505050565b5f6020828403121562004bac575f80fd5b5035919050565b5f806040838503121562004bc5575f80fd5b82359150602083013562004bd981620048e1565b809150509250929050565b5f6020828403121562004bf5575f80fd5b6200120d82620048f6565b634e487b7160e01b5f52604160045260245ffd5b5f82601f83011262004c24575f80fd5b81356001600160401b038082111562004c415762004c4162004c00565b604051601f8301601f19908116603f0116810190828211818310171562004c6c5762004c6c62004c00565b8160405283815286602085880101111562004c85575f80fd5b836020870160208301375f602085830101528094505050505092915050565b5f805f805f805f60e0888a03121562004cbb575f80fd5b62004cc688620049e2565b965062004cd660208901620048f6565b9550604088013562004ce881620048e1565b9450606088013562004cfa81620048e1565b9350608088013562004d0c81620048e1565b925060a08801356001600160401b038082111562004d28575f80fd5b62004d368b838c0162004c14565b935060c08a013591508082111562004d4c575f80fd5b5062004d5b8a828b0162004c14565b91505092959891949750929550565b5f805f805f8060c0878903121562004d80575f80fd5b62004d8b87620049e2565b955062004d9b60208801620048f6565b945062004dab60408801620048f6565b9350606087013592506080870135915060a087013590509295509295509295565b5f5b8381101562004de857818101518382015260200162004dce565b50505f910152565b5f815180845262004e0981602086016020860162004dcc565b601f01601f19169290920160200192915050565b602081525f6200120d602083018462004df0565b5f806040838503121562004e43575f80fd5b62004e4e83620048f6565b946020939093013593505050565b5f805f806060858703121562004e70575f80fd5b843562004e7d81620048e1565b935062004e8d60208601620049e2565b925060408501356001600160401b038082111562004ea9575f80fd5b818701915087601f83011262004ebd575f80fd5b81358181111562004ecc575f80fd5b88602082850101111562004ede575f80fd5b95989497505060200194505050565b5f6020828403121562004efe575f80fd5b813562004b9481620048e1565b803560ff8116811462003556575f80fd5b5f805f805f8060c0878903121562004f32575f80fd5b863562004f3f81620048e1565b9550602087013562004f5181620048e1565b945062004f6160408801620048f6565b935062004f7160608801620048f6565b92506080870135915062004f8860a0880162004f0b565b90509295509295509295565b5f805f805f8060c0878903121562004faa575f80fd5b863562004fb781620048e1565b9550602087013562004fc981620048e1565b945062004fd960408801620048f6565b935062004fe96060880162004f0b565b92506080870135915060a08701356001600160401b038111156200500b575f80fd5b6200501989828a0162004c14565b9150509295509295509295565b80545f90600181811c90808316806200504057607f831692505b602080841082036200506057634e487b7160e01b5f52602260045260245ffd5b838852602088018280156200507e57600181146200509557620050c0565b60ff198716825285151560051b82019750620050c0565b5f898152602090205f5b87811015620050ba578154848201529086019084016200509f565b83019850505b5050505050505092915050565b5f6001600160a01b03808816835280871660208401525060a06040830152620050fa60a083018662005026565b82810360608401526200510e818662005026565b9150508260808301529695505050505050565b634e487b7160e01b5f52601160045260245ffd5b6001600160401b0381811683821601908082111562005158576200515862005121565b5092915050565b808202811582820484141762001210576200121062005121565b5f63ffffffff80831681810362005194576200519462005121565b6001019392505050565b5f6001600160a01b03808616835280851660208401525060606040830152620051cb606083018462004df0565b95945050505050565b5f6001600160a01b038089168352808816602084015263ffffffff8716604084015280861660608401525060c060808301526200521560c083018562004df0565b82810360a084015262005229818562004df0565b9998505050505050505050565b6001600160401b0382811682821603908082111562005158576200515862005121565b5f6001600160401b0380831681810362005194576200519462005121565b5f6020828403121562005288575f80fd5b5051919050565b634e487b7160e01b5f52601260045260245ffd5b5f82620052b457620052b46200528f565b500490565b8082018082111562001210576200121062005121565b634e487b7160e01b5f52603260045260245ffd5b5f60018201620052f757620052f762005121565b5060010190565b5f826200530f576200530f6200528f565b500690565b8181038181111562001210576200121062005121565b5f816200533b576200533b62005121565b505f190190565b6001600160a01b038416815260406020820152816040820152818360608301375f818301606090810191909152601f909201601f1916010192915050565b5f6001600160a01b0380891683528088166020840152506001600160401b038616604083015260ff8516606083015283608083015260c060a0830152620053cb60c083018462004df0565b98975050505050505050565b5f8251620053ea81846020870162004dcc565b9190910192915050565b6103208101610300808584378201835f5b60018110156200542657815183526020928301929091019060010162005405565b5050509392505050565b5f6020828403121562005441575f80fd5b8151801515811462004b94575f80fd5b5f6001600160401b03808416806200546d576200546d6200528f565b9216919091049291505056fe60a06040526040516200091d3803806200091d833981016040819052620000269162000375565b828162000034828262000060565b50506001600160a01b038216608052620000576200005160805190565b620000c5565b5050506200046c565b6200006b8262000136565b6040516001600160a01b038316907fbc7cd75a20ee27fd9adebab32041f755214dbc6bffa90cc0225b39da2e5c2d3b905f90a2805115620000b757620000b28282620001b5565b505050565b620000c16200022e565b5050565b7f7e644d79422f17c01e4894b5f4f588d331ebfa28653d42ae832dc59e38c9798f620001065f80516020620008fd833981519152546001600160a01b031690565b604080516001600160a01b03928316815291841660208301520160405180910390a1620001338162000250565b50565b806001600160a01b03163b5f036200017157604051634c9c8ce360e01b81526001600160a01b03821660048201526024015b60405180910390fd5b807f360894a13ba1a3210667c828492db98dca3e2076cc3735a920a3ca505d382bbc5b80546001600160a01b0319166001600160a01b039290921691909117905550565b60605f80846001600160a01b031684604051620001d391906200044f565b5f60405180830381855af49150503d805f81146200020d576040519150601f19603f3d011682016040523d82523d5f602084013e62000212565b606091505b5090925090506200022585838362000291565b95945050505050565b34156200024e5760405163b398979f60e01b815260040160405180910390fd5b565b6001600160a01b0381166200027b57604051633173bdd160e11b81525f600482015260240162000168565b805f80516020620008fd83398151915262000194565b606082620002aa57620002a482620002f7565b620002f0565b8151158015620002c257506001600160a01b0384163b155b15620002ed57604051639996b31560e01b81526001600160a01b038516600482015260240162000168565b50805b9392505050565b805115620003085780518082602001fd5b604051630a12f52160e11b815260040160405180910390fd5b80516001600160a01b038116811462000338575f80fd5b919050565b634e487b7160e01b5f52604160045260245ffd5b5f5b838110156200036d57818101518382015260200162000353565b50505f910152565b5f805f6060848603121562000388575f80fd5b620003938462000321565b9250620003a36020850162000321565b60408501519092506001600160401b0380821115620003c0575f80fd5b818601915086601f830112620003d4575f80fd5b815181811115620003e957620003e96200033d565b604051601f8201601f19908116603f011681019083821181831017156200041457620004146200033d565b816040528281528960208487010111156200042d575f80fd5b6200044083602083016020880162000351565b80955050505050509250925092565b5f82516200046281846020870162000351565b9190910192915050565b608051610479620004845f395f601001526104795ff3fe608060405261000c61000e565b005b7f00000000000000000000000000000000000000000000000000000000000000006001600160a01b03163303610081575f357fffffffff000000000000000000000000000000000000000000000000000000001663278f794360e11b1461007957610077610085565b565b610077610095565b6100775b6100776100906100c3565b6100fa565b5f806100a43660048184610313565b8101906100b1919061034e565b915091506100bf8282610118565b5050565b5f6100f57f360894a13ba1a3210667c828492db98dca3e2076cc3735a920a3ca505d382bbc546001600160a01b031690565b905090565b365f80375f80365f845af43d5f803e808015610114573d5ff35b3d5ffd5b61012182610172565b6040516001600160a01b038316907fbc7cd75a20ee27fd9adebab32041f755214dbc6bffa90cc0225b39da2e5c2d3b905f90a280511561016a5761016582826101fa565b505050565b6100bf61026c565b806001600160a01b03163b5f036101ac57604051634c9c8ce360e01b81526001600160a01b03821660048201526024015b60405180910390fd5b7f360894a13ba1a3210667c828492db98dca3e2076cc3735a920a3ca505d382bbc805473ffffffffffffffffffffffffffffffffffffffff19166001600160a01b0392909216919091179055565b60605f80846001600160a01b0316846040516102169190610417565b5f60405180830381855af49150503d805f811461024e576040519150601f19603f3d011682016040523d82523d5f602084013e610253565b606091505b509150915061026385838361028b565b95945050505050565b34156100775760405163b398979f60e01b815260040160405180910390fd5b6060826102a05761029b826102ea565b6102e3565b81511580156102b757506001600160a01b0384163b155b156102e057604051639996b31560e01b81526001600160a01b03851660048201526024016101a3565b50805b9392505050565b8051156102fa5780518082602001fd5b604051630a12f52160e11b815260040160405180910390fd5b5f8085851115610321575f80fd5b8386111561032d575f80fd5b5050820193919092039150565b634e487b7160e01b5f52604160045260245ffd5b5f806040838503121561035f575f80fd5b82356001600160a01b0381168114610375575f80fd5b9150602083013567ffffffffffffffff80821115610391575f80fd5b818501915085601f8301126103a4575f80fd5b8135818111156103b6576103b661033a565b604051601f8201601f19908116603f011681019083821181831017156103de576103de61033a565b816040528281528860208487010111156103f6575f80fd5b826020860160208301375f6020848301015280955050505050509250929050565b5f82515f5b81811015610436576020818601810151858301520161041c565b505f92019182525091905056fea264697066735822122021e23b4641727aa4aa8fd2d3ef7960a43cab420d4c8632503bedc3eb2d30690764736f6c63430008140033b53127684a568b3173ae13b9f8a6016e243e63b6e8ee1178d6a717850b5d6103a2646970667358221220e44c31f40e8863e278ad7aad94a497e0764f056da13a4ee3106a7db2c90d2b4064736f6c63430008140033",
  "linkReferences": {},
  "deployedLinkReferences": {}
}