{
  "_format": "hh-sol-artifact-1",
  "contractName": "PolygonZkEVMGlobalExitRoot",
  "sourceName": "contracts/PolygonZkEVMGlobalExitRoot.sol",
  "abi": [
    {
      "inputs": [
        {
          "internalType": "address",
          "name": "_rollupAddress",
          "type": "address"
        },
        {
          "internalType": "address",
          "name": "_bridgeAddress",
          "type": "address"
        }
      ],
      "stateMutability": "nonpayable",
      "type": "constructor"
    },
    {
      "inputs": [],
      "name": "MerkleTreeFull",
      "type": "error"
    },
    {
      "inputs": [],
      "name": "OnlyAllowedContracts",
      "type": "error"
    },
    {
      "anonymous": false,
      "inputs": [
        {
          "indexed": true,
          "internalType": "bytes32",
          "name": "mainnetExitRoot",
          "type": "bytes32"
        },
        {
          "indexed": true,
          "internalType": "bytes32",
          "name": "rollupExitRoot",
          "type": "bytes32"
        }
      ],
      "name": "UpdateGlobalExitRoot",
      "type": "event"
    },
    {
      "inputs": [],
      "name": "bridgeAddress",
      "outputs": [
        {
          "internalType": "address",
          "name": "",
          "type": "address"
        }
      ],
      "stateMutability": "view",
      "type": "function"
    },
    {
      "inputs": [
        {
          "internalType": "bytes32",
          "name": "leafHash",
          "type": "bytes32"
        },
        {
          "internalType": "bytes32[32]",
          "name": "smtProof",
          "type": "bytes32[32]"
        },
        {
          "internalType": "uint32",
          "name": "index",
          "type": "uint32"
        }
      ],
      "name": "calculateRoot",
      "outputs": [
        {
          "internalType": "bytes32",
          "name": "",
          "type": "bytes32"
        }
      ],
      "stateMutability": "pure",
      "type": "function"
    },
    {
      "inputs": [],
      "name": "depositCount",
      "outputs": [
        {
          "internalType": "uint256",
          "name": "",
          "type": "uint256"
        }
      ],
      "stateMutability": "view",
      "type": "function"
    },
    {
      "inputs": [],
      "name": "getLastGlobalExitRoot",
      "outputs": [
        {
          "internalType": "bytes32",
          "name": "",
          "type": "bytes32"
        }
      ],
      "stateMutability": "view",
      "type": "function"
    },
    {
      "inputs": [],
      "name": "getRoot",
      "outputs": [
        {
          "internalType": "bytes32",
          "name": "",
          "type": "bytes32"
        }
      ],
      "stateMutability": "view",
      "type": "function"
    },
    {
      "inputs": [
        {
          "internalType": "bytes32",
          "name": "",
          "type": "bytes32"
        }
      ],
      "name": "globalExitRootMap",
      "outputs": [
        {
          "internalType": "uint256",
          "name": "",
          "type": "uint256"
        }
      ],
      "stateMutability": "view",
      "type": "function"
    },
    {
      "inputs": [],
      "name": "lastMainnetExitRoot",
      "outputs": [
        {
          "internalType": "bytes32",
          "name": "",
          "type": "bytes32"
        }
      ],
      "stateMutability": "view",
      "type": "function"
    },
    {
      "inputs": [],
      "name": "lastRollupExitRoot",
      "outputs": [
        {
          "internalType": "bytes32",
          "name": "",
          "type": "bytes32"
        }
      ],
      "stateMutability": "view",
      "type": "function"
    },
    {
      "inputs": [],
      "name": "rollupAddress",
      "outputs": [
        {
          "internalType": "address",
          "name": "",
          "type": "address"
        }
      ],
      "stateMutability": "view",
      "type": "function"
    },
    {
      "inputs": [
        {
          "internalType": "bytes32",
          "name": "newRoot",
          "type": "bytes32"
        }
      ],
      "name": "updateExitRoot",
      "outputs": [],
      "stateMutability": "nonpayable",
      "type": "function"
    },
    {
      "inputs": [
        {
          "internalType": "bytes32",
          "name": "leafHash",
          "type": "bytes32"
        },
        {
          "internalType": "bytes32[32]",
          "name": "smtProof",
          "type": "bytes32[32]"
        },
        {
          "internalType": "uint32",
          "name": "index",
          "type": "uint32"
        },
        {
          "internalType": "bytes32",
          "name": "root",
          "type": "bytes32"
        }
      ],
      "name": "verifyMerkleProof",
      "outputs": [
        {
          "internalType": "bool",
          "name": "",
          "type": "bool"
        }
      ],
      "stateMutability": "pure",
      "type": "function"
    }
  ],
  "bytecode": "0x60c060405234801561000f575f80fd5b50604051610aa2380380610aa283398101604081905261002e91610060565b6001600160a01b0391821660a05216608052610091565b80516001600160a01b038116811461005b575f80fd5b919050565b5f8060408385031215610071575f80fd5b61007a83610045565b915061008860208401610045565b90509250929050565b60805160a0516109e26100c05f395f818161013f015261024901525f818161019e015261020001526109e25ff3fe608060405234801561000f575f80fd5b50600436106100c4575f3560e01c80633ed691ef1161007d57806383f244031161005857806383f2440314610186578063a3c573eb14610199578063fb570834146101c0575f80fd5b80633ed691ef1461012a5780635ca1e165146101325780635ec6a8df1461013a575f80fd5b80632dfdf0b5116100ad5780632dfdf0b514610103578063319cf7351461010c57806333d6247d14610115575f80fd5b806301fd9044146100c8578063257b3632146100e4575b5f80fd5b6100d1602b5481565b6040519081526020015b60405180910390f35b6100d16100f23660046106ea565b602d6020525f908152604090205481565b6100d160205481565b6100d1602c5481565b6101286101233660046106ea565b6101e3565b005b6100d1610318565b6100d161032c565b6101617f000000000000000000000000000000000000000000000000000000000000000081565b60405173ffffffffffffffffffffffffffffffffffffffff90911681526020016100db565b6100d161019436600461072a565b610335565b6101617f000000000000000000000000000000000000000000000000000000000000000081565b6101d36101ce366004610766565b61040a565b60405190151581526020016100db565b602b54602c5473ffffffffffffffffffffffffffffffffffffffff7f00000000000000000000000000000000000000000000000000000000000000001633036102325750602c829055816102ae565b73ffffffffffffffffffffffffffffffffffffffff7f000000000000000000000000000000000000000000000000000000000000000016330361027c57602b8390558291506102ae565b6040517fb49365dd00000000000000000000000000000000000000000000000000000000815260040160405180910390fd5b5f6102b982846104e2565b5f818152602d602052604081205491925003610312575f818152602d602052604080822042905551849184917f61014378f82a0d809aefaf87a8ac9505b89c321808287a6e7810f29304c1fce39190a361031281610511565b50505050565b5f610327602c54602b546104e2565b905090565b5f61032761060f565b5f83815b602081101561040157600163ffffffff8516821c811690036103a457848160208110610367576103676107ab565b602002013582604051602001610387929190918252602082015260400190565b6040516020818303038152906040528051906020012091506103ef565b818582602081106103b7576103b76107ab565b60200201356040516020016103d6929190918252602082015260400190565b6040516020818303038152906040528051906020012091505b806103f981610805565b915050610339565b50949350505050565b5f84815b60208110156104d657600163ffffffff8616821c811690036104795785816020811061043c5761043c6107ab565b60200201358260405160200161045c929190918252602082015260400190565b6040516020818303038152906040528051906020012091506104c4565b8186826020811061048c5761048c6107ab565b60200201356040516020016104ab929190918252602082015260400190565b6040516020818303038152906040528051906020012091505b806104ce81610805565b91505061040e565b50909114949350505050565b604080516020808201859052818301849052825180830384018152606090920190925280519101205b92915050565b8060016105206020600261095a565b61052a919061096c565b60205410610564576040517fef5ccf6600000000000000000000000000000000000000000000000000000000815260040160405180910390fd5b5f60205f815461057390610805565b918290555090505f5b6020811015610601578082901c6001166001036105ae57825f82602081106105a6576105a66107ab565b015550505050565b5f81602081106105c0576105c06107ab565b0154604080516020810192909252810184905260600160405160208183030381529060405280519060200120925080806105f990610805565b91505061057c565b5061060a61097f565b505050565b6020545f90819081805b60208110156106e1578083901c600116600103610675575f8160208110610642576106426107ab565b015460408051602081019290925281018590526060016040516020818303038152906040528051906020012093506106a2565b60408051602081018690529081018390526060016040516020818303038152906040528051906020012093505b604080516020810184905290810183905260600160405160208183030381529060405280519060200120915080806106d990610805565b915050610619565b50919392505050565b5f602082840312156106fa575f80fd5b5035919050565b80610400810183101561050b575f80fd5b803563ffffffff81168114610725575f80fd5b919050565b5f805f610440848603121561073d575f80fd5b8335925061074e8560208601610701565b915061075d6104208501610712565b90509250925092565b5f805f80610460858703121561077a575f80fd5b8435935061078b8660208701610701565b925061079a6104208601610712565b939692955092936104400135925050565b7f4e487b71000000000000000000000000000000000000000000000000000000005f52603260045260245ffd5b7f4e487b71000000000000000000000000000000000000000000000000000000005f52601160045260245ffd5b5f7fffffffffffffffffffffffffffffffffffffffffffffffffffffffffffffffff8203610835576108356107d8565b5060010190565b600181815b8085111561089557817fffffffffffffffffffffffffffffffffffffffffffffffffffffffffffffffff0482111561087b5761087b6107d8565b8085161561088857918102915b93841c9390800290610841565b509250929050565b5f826108ab5750600161050b565b816108b757505f61050b565b81600181146108cd57600281146108d7576108f3565b600191505061050b565b60ff8411156108e8576108e86107d8565b50506001821b61050b565b5060208310610133831016604e8410600b8410161715610916575081810a61050b565b610920838361083c565b807fffffffffffffffffffffffffffffffffffffffffffffffffffffffffffffffff04821115610952576109526107d8565b029392505050565b5f610965838361089d565b9392505050565b8181038181111561050b5761050b6107d8565b7f4e487b71000000000000000000000000000000000000000000000000000000005f52600160045260245ffdfea2646970667358221220620178600a1135c1880ab6872ead11bab365c627812a5c5944b802aa54e9004364736f6c63430008140033",
  "linkReferences": {},
  "deployedLinkReferences": {}
}