{
  "_format": "hh-sol-artifact-1",
  "contractName": "PolygonZkEVM",
  "sourceName": "contracts/PolygonZkEVM.sol",
  "abi": [
    {
      "inputs": [
        {
          "internalType": "contract IPolygonZkEVMGlobalExitRoot",
          "name": "_globalExitRootManager",
          "type": "address"
        },
        {
          "internalType": "contract IERC20Upgradeable",
          "name": "_matic",
          "type": "address"
        },
        {
          "internalType": "contract IVerifierRollup",
          "name": "_rollupVerifier",
          "type": "address"
        },
        {
          "internalType": "contract IPolygonZkEVMBridge",
          "name": "_bridgeAddress",
          "type": "address"
        },
        {
          "internalType": "uint64",
          "name": "_chainID",
          "type": "uint64"
        }
      ],
      "stateMutability": "nonpayable",
      "type": "constructor"
    },
    {
      "anonymous": false,
      "inputs": [
        {
          "indexed": false,
          "internalType": "address",
          "name": "newAdmin",
          "type": "address"
        }
      ],
      "name": "AcceptAdminRole",
      "type": "event"
    },
    {
      "anonymous": false,
      "inputs": [
        {
          "indexed": true,
          "internalType": "uint64",
          "name": "numBatch",
          "type": "uint64"
        },
        {
          "indexed": false,
          "internalType": "bytes32",
          "name": "stateRoot",
          "type": "bytes32"
        },
        {
          "indexed": true,
          "internalType": "uint64",
          "name": "pendingStateNum",
          "type": "uint64"
        }
      ],
      "name": "ConsolidatePendingState",
      "type": "event"
    },
    {
      "anonymous": false,
      "inputs": [],
      "name": "EmergencyStateActivated",
      "type": "event"
    },
    {
      "anonymous": false,
      "inputs": [],
      "name": "EmergencyStateDeactivated",
      "type": "event"
    },
    {
      "anonymous": false,
      "inputs": [
        {
          "indexed": true,
          "internalType": "uint64",
          "name": "forceBatchNum",
          "type": "uint64"
        },
        {
          "indexed": false,
          "internalType": "bytes32",
          "name": "lastGlobalExitRoot",
          "type": "bytes32"
        },
        {
          "indexed": false,
          "internalType": "address",
          "name": "sequencer",
          "type": "address"
        },
        {
          "indexed": false,
          "internalType": "bytes",
          "name": "transactions",
          "type": "bytes"
        }
      ],
      "name": "ForceBatch",
      "type": "event"
    },
    {
      "anonymous": false,
      "inputs": [
        {
          "indexed": false,
          "internalType": "uint8",
          "name": "version",
          "type": "uint8"
        }
      ],
      "name": "Initialized",
      "type": "event"
    },
    {
      "anonymous": false,
      "inputs": [
        {
          "indexed": true,
          "internalType": "uint64",
          "name": "numBatch",
          "type": "uint64"
        },
        {
          "indexed": false,
          "internalType": "bytes32",
          "name": "stateRoot",
          "type": "bytes32"
        },
        {
          "indexed": true,
          "internalType": "address",
          "name": "aggregator",
          "type": "address"
        }
      ],
      "name": "OverridePendingState",
      "type": "event"
    },
    {
      "anonymous": false,
      "inputs": [
        {
          "indexed": true,
          "internalType": "address",
          "name": "previousOwner",
          "type": "address"
        },
        {
          "indexed": true,
          "internalType": "address",
          "name": "newOwner",
          "type": "address"
        }
      ],
      "name": "OwnershipTransferred",
      "type": "event"
    },
    {
      "anonymous": false,
      "inputs": [
        {
          "indexed": false,
          "internalType": "bytes32",
          "name": "storedStateRoot",
          "type": "bytes32"
        },
        {
          "indexed": false,
          "internalType": "bytes32",
          "name": "provedStateRoot",
          "type": "bytes32"
        }
      ],
      "name": "ProveNonDeterministicPendingState",
      "type": "event"
    },
    {
      "anonymous": false,
      "inputs": [
        {
          "indexed": true,
          "internalType": "uint64",
          "name": "numBatch",
          "type": "uint64"
        }
      ],
      "name": "SequenceBatches",
      "type": "event"
    },
    {
      "anonymous": false,
      "inputs": [
        {
          "indexed": true,
          "internalType": "uint64",
          "name": "numBatch",
          "type": "uint64"
        }
      ],
      "name": "SequenceForceBatches",
      "type": "event"
    },
    {
      "anonymous": false,
      "inputs": [
        {
          "indexed": false,
          "internalType": "uint16",
          "name": "newMultiplierBatchFee",
          "type": "uint16"
        }
      ],
      "name": "SetMultiplierBatchFee",
      "type": "event"
    },
    {
      "anonymous": false,
      "inputs": [
        {
          "indexed": false,
          "internalType": "uint64",
          "name": "newPendingStateTimeout",
          "type": "uint64"
        }
      ],
      "name": "SetPendingStateTimeout",
      "type": "event"
    },
    {
      "anonymous": false,
      "inputs": [
        {
          "indexed": false,
          "internalType": "address",
          "name": "newTrustedAggregator",
          "type": "address"
        }
      ],
      "name": "SetTrustedAggregator",
      "type": "event"
    },
    {
      "anonymous": false,
      "inputs": [
        {
          "indexed": false,
          "internalType": "uint64",
          "name": "newTrustedAggregatorTimeout",
          "type": "uint64"
        }
      ],
      "name": "SetTrustedAggregatorTimeout",
      "type": "event"
    },
    {
      "anonymous": false,
      "inputs": [
        {
          "indexed": false,
          "internalType": "address",
          "name": "newTrustedSequencer",
          "type": "address"
        }
      ],
      "name": "SetTrustedSequencer",
      "type": "event"
    },
    {
      "anonymous": false,
      "inputs": [
        {
          "indexed": false,
          "internalType": "string",
          "name": "newTrustedSequencerURL",
          "type": "string"
        }
      ],
      "name": "SetTrustedSequencerURL",
      "type": "event"
    },
    {
      "anonymous": false,
      "inputs": [
        {
          "indexed": false,
          "internalType": "uint64",
          "name": "newVerifyBatchTimeTarget",
          "type": "uint64"
        }
      ],
      "name": "SetVerifyBatchTimeTarget",
      "type": "event"
    },
    {
      "anonymous": false,
      "inputs": [
        {
          "indexed": false,
          "internalType": "address",
          "name": "newPendingAdmin",
          "type": "address"
        }
      ],
      "name": "TransferAdminRole",
      "type": "event"
    },
    {
      "anonymous": false,
      "inputs": [
        {
          "indexed": true,
          "internalType": "uint64",
          "name": "numBatch",
          "type": "uint64"
        },
        {
          "indexed": false,
          "internalType": "bytes32",
          "name": "stateRoot",
          "type": "bytes32"
        },
        {
          "indexed": true,
          "internalType": "address",
          "name": "aggregator",
          "type": "address"
        }
      ],
      "name": "TrustedVerifyBatches",
      "type": "event"
    },
    {
      "anonymous": false,
      "inputs": [
        {
          "indexed": true,
          "internalType": "uint64",
          "name": "numBatch",
          "type": "uint64"
        },
        {
          "indexed": false,
          "internalType": "bytes32",
          "name": "stateRoot",
          "type": "bytes32"
        },
        {
          "indexed": true,
          "internalType": "address",
          "name": "aggregator",
          "type": "address"
        }
      ],
      "name": "VerifyBatches",
      "type": "event"
    },
    {
      "inputs": [],
      "name": "acceptAdminRole",
      "outputs": [],
      "stateMutability": "nonpayable",
      "type": "function"
    },
    {
      "inputs": [
        {
          "internalType": "uint64",
          "name": "sequencedBatchNum",
          "type": "uint64"
        }
      ],
      "name": "activateEmergencyState",
      "outputs": [],
      "stateMutability": "nonpayable",
      "type": "function"
    },
    {
      "inputs": [],
      "name": "admin",
      "outputs": [
        {
          "internalType": "address",
          "name": "",
          "type": "address"
        }
      ],
      "stateMutability": "view",
      "type": "function"
    },
    {
      "inputs": [],
      "name": "batchFee",
      "outputs": [
        {
          "internalType": "uint256",
          "name": "",
          "type": "uint256"
        }
      ],
      "stateMutability": "view",
      "type": "function"
    },
    {
      "inputs": [
        {
          "internalType": "uint64",
          "name": "",
          "type": "uint64"
        }
      ],
      "name": "batchNumToStateRoot",
      "outputs": [
        {
          "internalType": "bytes32",
          "name": "",
          "type": "bytes32"
        }
      ],
      "stateMutability": "view",
      "type": "function"
    },
    {
      "inputs": [],
      "name": "bridgeAddress",
      "outputs": [
        {
          "internalType": "contract IPolygonZkEVMBridge",
          "name": "",
          "type": "address"
        }
      ],
      "stateMutability": "view",
      "type": "function"
    },
    {
      "inputs": [],
      "name": "calculateRewardPerBatch",
      "outputs": [
        {
          "internalType": "uint256",
          "name": "",
          "type": "uint256"
        }
      ],
      "stateMutability": "view",
      "type": "function"
    },
    {
      "inputs": [],
      "name": "chainID",
      "outputs": [
        {
          "internalType": "uint64",
          "name": "",
          "type": "uint64"
        }
      ],
      "stateMutability": "view",
      "type": "function"
    },
    {
      "inputs": [
        {
          "internalType": "uint64",
          "name": "pendingStateNum",
          "type": "uint64"
        }
      ],
      "name": "consolidatePendingState",
      "outputs": [],
      "stateMutability": "nonpayable",
      "type": "function"
    },
    {
      "inputs": [],
      "name": "deactivateEmergencyState",
      "outputs": [],
      "stateMutability": "nonpayable",
      "type": "function"
    },
    {
      "inputs": [
        {
          "internalType": "bytes",
          "name": "transactions",
          "type": "bytes"
        },
        {
          "internalType": "uint256",
          "name": "maticAmount",
          "type": "uint256"
        }
      ],
      "name": "forceBatch",
      "outputs": [],
      "stateMutability": "nonpayable",
      "type": "function"
    },
    {
      "inputs": [
        {
          "internalType": "uint64",
          "name": "",
          "type": "uint64"
        }
      ],
      "name": "forcedBatches",
      "outputs": [
        {
          "internalType": "bytes32",
          "name": "",
          "type": "bytes32"
        }
      ],
      "stateMutability": "view",
      "type": "function"
    },
    {
      "inputs": [],
      "name": "getCurrentBatchFee",
      "outputs": [
        {
          "internalType": "uint256",
          "name": "",
          "type": "uint256"
        }
      ],
      "stateMutability": "view",
      "type": "function"
    },
    {
      "inputs": [
        {
          "internalType": "uint64",
          "name": "initNumBatch",
          "type": "uint64"
        },
        {
          "internalType": "uint64",
          "name": "finalNewBatch",
          "type": "uint64"
        },
        {
          "internalType": "bytes32",
          "name": "newLocalExitRoot",
          "type": "bytes32"
        },
        {
          "internalType": "bytes32",
          "name": "oldStateRoot",
          "type": "bytes32"
        },
        {
          "internalType": "bytes32",
          "name": "newStateRoot",
          "type": "bytes32"
        }
      ],
      "name": "getInputSnarkBytes",
      "outputs": [
        {
          "internalType": "bytes",
          "name": "",
          "type": "bytes"
        }
      ],
      "stateMutability": "view",
      "type": "function"
    },
    {
      "inputs": [],
      "name": "getLastVerifiedBatch",
      "outputs": [
        {
          "internalType": "uint64",
          "name": "",
          "type": "uint64"
        }
      ],
      "stateMutability": "view",
      "type": "function"
    },
    {
      "inputs": [],
      "name": "globalExitRootManager",
      "outputs": [
        {
          "internalType": "contract IPolygonZkEVMGlobalExitRoot",
          "name": "",
          "type": "address"
        }
      ],
      "stateMutability": "view",
      "type": "function"
    },
    {
      "inputs": [
        {
          "components": [
            {
              "internalType": "address",
              "name": "admin",
              "type": "address"
            },
            {
              "internalType": "address",
              "name": "trustedSequencer",
              "type": "address"
            },
            {
              "internalType": "uint64",
              "name": "pendingStateTimeout",
              "type": "uint64"
            },
            {
              "internalType": "address",
              "name": "trustedAggregator",
              "type": "address"
            },
            {
              "internalType": "uint64",
              "name": "trustedAggregatorTimeout",
              "type": "uint64"
            }
          ],
          "internalType": "struct PolygonZkEVM.InitializePackedParameters",
          "name": "initializePackedParameters",
          "type": "tuple"
        },
        {
          "internalType": "bytes32",
          "name": "genesisRoot",
          "type": "bytes32"
        },
        {
          "internalType": "string",
          "name": "_trustedSequencerURL",
          "type": "string"
        },
        {
          "internalType": "string",
          "name": "_networkName",
          "type": "string"
        }
      ],
      "name": "initialize",
      "outputs": [],
      "stateMutability": "nonpayable",
      "type": "function"
    },
    {
      "inputs": [],
      "name": "isEmergencyState",
      "outputs": [
        {
          "internalType": "bool",
          "name": "",
          "type": "bool"
        }
      ],
      "stateMutability": "view",
      "type": "function"
    },
    {
      "inputs": [
        {
          "internalType": "uint64",
          "name": "pendingStateNum",
          "type": "uint64"
        }
      ],
      "name": "isPendingStateConsolidable",
      "outputs": [
        {
          "internalType": "bool",
          "name": "",
          "type": "bool"
        }
      ],
      "stateMutability": "view",
      "type": "function"
    },
    {
      "inputs": [],
      "name": "lastBatchSequenced",
      "outputs": [
        {
          "internalType": "uint64",
          "name": "",
          "type": "uint64"
        }
      ],
      "stateMutability": "view",
      "type": "function"
    },
    {
      "inputs": [],
      "name": "lastForceBatch",
      "outputs": [
        {
          "internalType": "uint64",
          "name": "",
          "type": "uint64"
        }
      ],
      "stateMutability": "view",
      "type": "function"
    },
    {
      "inputs": [],
      "name": "lastForceBatchSequenced",
      "outputs": [
        {
          "internalType": "uint64",
          "name": "",
          "type": "uint64"
        }
      ],
      "stateMutability": "view",
      "type": "function"
    },
    {
      "inputs": [],
      "name": "lastPendingState",
      "outputs": [
        {
          "internalType": "uint64",
          "name": "",
          "type": "uint64"
        }
      ],
      "stateMutability": "view",
      "type": "function"
    },
    {
      "inputs": [],
      "name": "lastPendingStateConsolidated",
      "outputs": [
        {
          "internalType": "uint64",
          "name": "",
          "type": "uint64"
        }
      ],
      "stateMutability": "view",
      "type": "function"
    },
    {
      "inputs": [],
      "name": "lastTimestamp",
      "outputs": [
        {
          "internalType": "uint64",
          "name": "",
          "type": "uint64"
        }
      ],
      "stateMutability": "view",
      "type": "function"
    },
    {
      "inputs": [],
      "name": "lastVerifiedBatch",
      "outputs": [
        {
          "internalType": "uint64",
          "name": "",
          "type": "uint64"
        }
      ],
      "stateMutability": "view",
      "type": "function"
    },
    {
      "inputs": [],
      "name": "matic",
      "outputs": [
        {
          "internalType": "contract IERC20Upgradeable",
          "name": "",
          "type": "address"
        }
      ],
      "stateMutability": "view",
      "type": "function"
    },
    {
      "inputs": [],
      "name": "multiplierBatchFee",
      "outputs": [
        {
          "internalType": "uint16",
          "name": "",
          "type": "uint16"
        }
      ],
      "stateMutability": "view",
      "type": "function"
    },
    {
      "inputs": [],
      "name": "networkName",
      "outputs": [
        {
          "internalType": "string",
          "name": "",
          "type": "string"
        }
      ],
      "stateMutability": "view",
      "type": "function"
    },
    {
      "inputs": [
        {
          "internalType": "uint64",
          "name": "initPendingStateNum",
          "type": "uint64"
        },
        {
          "internalType": "uint64",
          "name": "finalPendingStateNum",
          "type": "uint64"
        },
        {
          "internalType": "uint64",
          "name": "initNumBatch",
          "type": "uint64"
        },
        {
          "internalType": "uint64",
          "name": "finalNewBatch",
          "type": "uint64"
        },
        {
          "internalType": "bytes32",
          "name": "newLocalExitRoot",
          "type": "bytes32"
        },
        {
          "internalType": "bytes32",
          "name": "newStateRoot",
          "type": "bytes32"
        },
        {
          "internalType": "uint256[2]",
          "name": "proofA",
          "type": "uint256[2]"
        },
        {
          "internalType": "uint256[2][2]",
          "name": "proofB",
          "type": "uint256[2][2]"
        },
        {
          "internalType": "uint256[2]",
          "name": "proofC",
          "type": "uint256[2]"
        }
      ],
      "name": "overridePendingState",
      "outputs": [],
      "stateMutability": "nonpayable",
      "type": "function"
    },
    {
      "inputs": [],
      "name": "owner",
      "outputs": [
        {
          "internalType": "address",
          "name": "",
          "type": "address"
        }
      ],
      "stateMutability": "view",
      "type": "function"
    },
    {
      "inputs": [],
      "name": "pendingAdmin",
      "outputs": [
        {
          "internalType": "address",
          "name": "",
          "type": "address"
        }
      ],
      "stateMutability": "view",
      "type": "function"
    },
    {
      "inputs": [],
      "name": "pendingStateTimeout",
      "outputs": [
        {
          "internalType": "uint64",
          "name": "",
          "type": "uint64"
        }
      ],
      "stateMutability": "view",
      "type": "function"
    },
    {
      "inputs": [
        {
          "internalType": "uint256",
          "name": "",
          "type": "uint256"
        }
      ],
      "name": "pendingStateTransitions",
      "outputs": [
        {
          "internalType": "uint64",
          "name": "timestamp",
          "type": "uint64"
        },
        {
          "internalType": "uint64",
          "name": "lastVerifiedBatch",
          "type": "uint64"
        },
        {
          "internalType": "bytes32",
          "name": "exitRoot",
          "type": "bytes32"
        },
        {
          "internalType": "bytes32",
          "name": "stateRoot",
          "type": "bytes32"
        }
      ],
      "stateMutability": "view",
      "type": "function"
    },
    {
      "inputs": [
        {
          "internalType": "uint64",
          "name": "initPendingStateNum",
          "type": "uint64"
        },
        {
          "internalType": "uint64",
          "name": "finalPendingStateNum",
          "type": "uint64"
        },
        {
          "internalType": "uint64",
          "name": "initNumBatch",
          "type": "uint64"
        },
        {
          "internalType": "uint64",
          "name": "finalNewBatch",
          "type": "uint64"
        },
        {
          "internalType": "bytes32",
          "name": "newLocalExitRoot",
          "type": "bytes32"
        },
        {
          "internalType": "bytes32",
          "name": "newStateRoot",
          "type": "bytes32"
        },
        {
          "internalType": "uint256[2]",
          "name": "proofA",
          "type": "uint256[2]"
        },
        {
          "internalType": "uint256[2][2]",
          "name": "proofB",
          "type": "uint256[2][2]"
        },
        {
          "internalType": "uint256[2]",
          "name": "proofC",
          "type": "uint256[2]"
        }
      ],
      "name": "proveNonDeterministicPendingState",
      "outputs": [],
      "stateMutability": "nonpayable",
      "type": "function"
    },
    {
      "inputs": [],
      "name": "renounceOwnership",
      "outputs": [],
      "stateMutability": "nonpayable",
      "type": "function"
    },
    {
      "inputs": [],
      "name": "rollupVerifier",
      "outputs": [
        {
          "internalType": "contract IVerifierRollup",
          "name": "",
          "type": "address"
        }
      ],
      "stateMutability": "view",
      "type": "function"
    },
    {
      "inputs": [
        {
          "components": [
            {
              "internalType": "bytes",
              "name": "transactions",
              "type": "bytes"
            },
            {
              "internalType": "bytes32",
              "name": "globalExitRoot",
              "type": "bytes32"
            },
            {
              "internalType": "uint64",
              "name": "timestamp",
              "type": "uint64"
            },
            {
              "internalType": "uint64",
              "name": "minForcedTimestamp",
              "type": "uint64"
            }
          ],
          "internalType": "struct PolygonZkEVM.BatchData[]",
          "name": "batches",
          "type": "tuple[]"
        }
      ],
      "name": "sequenceBatches",
      "outputs": [],
      "stateMutability": "nonpayable",
      "type": "function"
    },
    {
      "inputs": [
        {
          "components": [
            {
              "internalType": "bytes",
              "name": "transactions",
              "type": "bytes"
            },
            {
              "internalType": "bytes32",
              "name": "globalExitRoot",
              "type": "bytes32"
            },
            {
              "internalType": "uint64",
              "name": "minForcedTimestamp",
              "type": "uint64"
            }
          ],
          "internalType": "struct PolygonZkEVM.ForcedBatchData[]",
          "name": "batches",
          "type": "tuple[]"
        }
      ],
      "name": "sequenceForceBatches",
      "outputs": [],
      "stateMutability": "nonpayable",
      "type": "function"
    },
    {
      "inputs": [
        {
          "internalType": "uint64",
          "name": "",
          "type": "uint64"
        }
      ],
      "name": "sequencedBatches",
      "outputs": [
        {
          "internalType": "bytes32",
          "name": "accInputHash",
          "type": "bytes32"
        },
        {
          "internalType": "uint64",
          "name": "sequencedTimestamp",
          "type": "uint64"
        },
        {
          "internalType": "uint64",
          "name": "previousLastBatchSequenced",
          "type": "uint64"
        }
      ],
      "stateMutability": "view",
      "type": "function"
    },
    {
      "inputs": [
        {
          "internalType": "uint16",
          "name": "newMultiplierBatchFee",
          "type": "uint16"
        }
      ],
      "name": "setMultiplierBatchFee",
      "outputs": [],
      "stateMutability": "nonpayable",
      "type": "function"
    },
    {
      "inputs": [
        {
          "internalType": "uint64",
          "name": "newPendingStateTimeout",
          "type": "uint64"
        }
      ],
      "name": "setPendingStateTimeout",
      "outputs": [],
      "stateMutability": "nonpayable",
      "type": "function"
    },
    {
      "inputs": [
        {
          "internalType": "address",
          "name": "newTrustedAggregator",
          "type": "address"
        }
      ],
      "name": "setTrustedAggregator",
      "outputs": [],
      "stateMutability": "nonpayable",
      "type": "function"
    },
    {
      "inputs": [
        {
          "internalType": "uint64",
          "name": "newTrustedAggregatorTimeout",
          "type": "uint64"
        }
      ],
      "name": "setTrustedAggregatorTimeout",
      "outputs": [],
      "stateMutability": "nonpayable",
      "type": "function"
    },
    {
      "inputs": [
        {
          "internalType": "address",
          "name": "newTrustedSequencer",
          "type": "address"
        }
      ],
      "name": "setTrustedSequencer",
      "outputs": [],
      "stateMutability": "nonpayable",
      "type": "function"
    },
    {
      "inputs": [
        {
          "internalType": "string",
          "name": "newTrustedSequencerURL",
          "type": "string"
        }
      ],
      "name": "setTrustedSequencerURL",
      "outputs": [],
      "stateMutability": "nonpayable",
      "type": "function"
    },
    {
      "inputs": [
        {
          "internalType": "uint64",
          "name": "newVerifyBatchTimeTarget",
          "type": "uint64"
        }
      ],
      "name": "setVerifyBatchTimeTarget",
      "outputs": [],
      "stateMutability": "nonpayable",
      "type": "function"
    },
    {
      "inputs": [
        {
          "internalType": "address",
          "name": "newPendingAdmin",
          "type": "address"
        }
      ],
      "name": "transferAdminRole",
      "outputs": [],
      "stateMutability": "nonpayable",
      "type": "function"
    },
    {
      "inputs": [
        {
          "internalType": "address",
          "name": "newOwner",
          "type": "address"
        }
      ],
      "name": "transferOwnership",
      "outputs": [],
      "stateMutability": "nonpayable",
      "type": "function"
    },
    {
      "inputs": [],
      "name": "trustedAggregator",
      "outputs": [
        {
          "internalType": "address",
          "name": "",
          "type": "address"
        }
      ],
      "stateMutability": "view",
      "type": "function"
    },
    {
      "inputs": [],
      "name": "trustedAggregatorTimeout",
      "outputs": [
        {
          "internalType": "uint64",
          "name": "",
          "type": "uint64"
        }
      ],
      "stateMutability": "view",
      "type": "function"
    },
    {
      "inputs": [],
      "name": "trustedSequencer",
      "outputs": [
        {
          "internalType": "address",
          "name": "",
          "type": "address"
        }
      ],
      "stateMutability": "view",
      "type": "function"
    },
    {
      "inputs": [],
      "name": "trustedSequencerURL",
      "outputs": [
        {
          "internalType": "string",
          "name": "",
          "type": "string"
        }
      ],
      "stateMutability": "view",
      "type": "function"
    },
    {
      "inputs": [
        {
          "internalType": "uint64",
          "name": "pendingStateNum",
          "type": "uint64"
        },
        {
          "internalType": "uint64",
          "name": "initNumBatch",
          "type": "uint64"
        },
        {
          "internalType": "uint64",
          "name": "finalNewBatch",
          "type": "uint64"
        },
        {
          "internalType": "bytes32",
          "name": "newLocalExitRoot",
          "type": "bytes32"
        },
        {
          "internalType": "bytes32",
          "name": "newStateRoot",
          "type": "bytes32"
        },
        {
          "internalType": "uint256[2]",
          "name": "proofA",
          "type": "uint256[2]"
        },
        {
          "internalType": "uint256[2][2]",
          "name": "proofB",
          "type": "uint256[2][2]"
        },
        {
          "internalType": "uint256[2]",
          "name": "proofC",
          "type": "uint256[2]"
        }
      ],
      "name": "trustedVerifyBatches",
      "outputs": [],
      "stateMutability": "nonpayable",
      "type": "function"
    },
    {
      "inputs": [],
      "name": "verifyBatchTimeTarget",
      "outputs": [
        {
          "internalType": "uint64",
          "name": "",
          "type": "uint64"
        }
      ],
      "stateMutability": "view",
      "type": "function"
    },
    {
      "inputs": [
        {
          "internalType": "uint64",
          "name": "pendingStateNum",
          "type": "uint64"
        },
        {
          "internalType": "uint64",
          "name": "initNumBatch",
          "type": "uint64"
        },
        {
          "internalType": "uint64",
          "name": "finalNewBatch",
          "type": "uint64"
        },
        {
          "internalType": "bytes32",
          "name": "newLocalExitRoot",
          "type": "bytes32"
        },
        {
          "internalType": "bytes32",
          "name": "newStateRoot",
          "type": "bytes32"
        },
        {
          "internalType": "uint256[2]",
          "name": "proofA",
          "type": "uint256[2]"
        },
        {
          "internalType": "uint256[2][2]",
          "name": "proofB",
          "type": "uint256[2][2]"
        },
        {
          "internalType": "uint256[2]",
          "name": "proofC",
          "type": "uint256[2]"
        }
      ],
      "name": "verifyBatches",
      "outputs": [],
      "stateMutability": "nonpayable",
      "type": "function"
    }
  ],
  "bytecode": "0x6101206040523480156200001257600080fd5b50604051620057f3380380620057f3833981016040819052620000359162000081565b6001600160a01b0394851660c05292841660805290831660a052909116610100526001600160401b031660e0526200010c565b6001600160a01b03811681146200007e57600080fd5b50565b600080600080600060a086880312156200009a57600080fd5b8551620000a78162000068565b6020870151909550620000ba8162000068565b6040870151909450620000cd8162000068565b6060870151909350620000e08162000068565b60808701519092506001600160401b0381168114620000fe57600080fd5b809150509295509295909350565b60805160a05160c05160e05161010051615639620001ba6000396000818161061801528181612ba30152613da80152600081816106520152610b94015260008181610770015281816111bb0152818161180201528181612cb801528181612eba0152818161314e0152613c400152600081816107f9015281816137e201526142f70152600081816107140152818161159201528181611ebb01528181612e8e01526138f001526156396000f3fe608060405234801561001057600080fd5b50600436106102f85760003560e01c80638da5cb5b11610193578063cfa8ed47116100e4578063e8bf92ed11610092578063e8bf92ed146107f4578063eaeb077b1461081b578063edc411211461082e578063f14916d614610841578063f2fde38b14610854578063f851a44014610867578063f8b823e41461087a57600080fd5b8063cfa8ed4714610751578063d02103ca1461076b578063d8d1091b14610792578063d939b315146107a5578063dbc16976146107bf578063e11f3f18146107c7578063e7a7ed02146107da57600080fd5b8063adc879e911610141578063adc879e91461064d578063afd23cbe14610674578063b2291b3f1461069c578063b4d63f58146106af578063b6b0b0971461070f578063c0ed84e014610736578063c89e42df1461073e57600080fd5b80638da5cb5b146105cc57806399f5634e146105dd5780639c9f3dfe146105e55780639f0d039d146105f8578063a066215c14610600578063a3c573eb14610613578063ada8f9191461063a57600080fd5b80634834a3431161024d578063715018a6116101fb578063715018a6146104fb5780637215541a1461050357806375c508b3146105165780637fcb365314610529578063837a47381461053c578063841b24d7146105aa5780638c3d7301146105c457600080fd5b80634834a343146104525780634a1a89a7146104655780634a910e6a1461047f5780635392c5e014610492578063542028d5146104c05780636b8616ce146104c85780636ff512cc146104e857600080fd5b806329878983116102aa57806329878983146103bf578063383b3be8146103d2578063394218e9146103e55780633c158267146103f8578063423fa8561461040b5780634560526714610425578063458c04771461043f57600080fd5b80630a0d9fbe146102fd578063107bf28c1461033257806315064c96146103475780631816b7e51461036457806319d8ac6114610379578063220d78991461038c578063267822471461039f575b600080fd5b6065546103159061010090046001600160401b031681565b6040516001600160401b0390911681526020015b60405180910390f35b61033a610883565b60405161032991906148dc565b6065546103549060ff1681565b6040519015158152602001610329565b6103776103723660046148f6565b610911565b005b606854610315906001600160401b031681565b61033a61039a366004614936565b610a3b565b6071546103b2906001600160a01b031681565b6040516103299190614983565b606a546103b2906001600160a01b031681565b6103546103e0366004614997565b610bf2565b6103776103f3366004614997565b610c39565b6103776104063660046149fd565b610df5565b60685461031590600160401b90046001600160401b031681565b60685461031590600160801b90046001600160401b031681565b606f54610315906001600160401b031681565b610377610460366004614a66565b611601565b606f5461031590600160401b90046001600160401b031681565b61037761048d366004614997565b611967565b6104b26104a0366004614997565b606b6020526000908152604090205481565b604051908152602001610329565b61033a611aa1565b6104b26104d6366004614997565b60666020526000908152604090205481565b6103776104f6366004614af3565b611aae565b610377611b2c565b610377610511366004614997565b611b40565b610377610524366004614b1c565b611d47565b606954610315906001600160401b031681565b61057f61054a366004614bba565b606e602052600090815260409020805460018201546002909201546001600160401b0380831693600160401b90930416919084565b604080516001600160401b039586168152949093166020850152918301526060820152608001610329565b606f5461031590600160c01b90046001600160401b031681565b610377611de1565b6033546001600160a01b03166103b2565b6104b2611eb6565b6103776105f3366004614997565b611fc3565b6072546104b2565b61037761060e366004614997565b612171565b6103b27f000000000000000000000000000000000000000000000000000000000000000081565b610377610648366004614af3565b61228c565b6103157f000000000000000000000000000000000000000000000000000000000000000081565b60655461068990600160481b900461ffff1681565b60405161ffff9091168152602001610329565b6103776106aa366004614c75565b612301565b6106ea6106bd366004614997565b606760205260009081526040902080546001909101546001600160401b0380821691600160401b90041683565b604080519384526001600160401b039283166020850152911690820152606001610329565b6103b27f000000000000000000000000000000000000000000000000000000000000000081565b61031561260c565b61037761074c366004614cfb565b612659565b6069546103b290600160401b90046001600160a01b031681565b6103b27f000000000000000000000000000000000000000000000000000000000000000081565b6103776107a03660046149fd565b6126bf565b606f5461031590600160801b90046001600160401b031681565b610377612b77565b6103776107d5366004614b1c565b612c1c565b60685461031590600160c01b90046001600160401b031681565b6103b27f000000000000000000000000000000000000000000000000000000000000000081565b610377610829366004614d2f565b612d7d565b61037761083c366004614a66565b6130b3565b61037761084f366004614af3565b6131ef565b610377610862366004614af3565b613264565b6070546103b2906001600160a01b031681565b6104b260725481565b606d805461089090614da6565b80601f01602080910402602001604051908101604052809291908181526020018280546108bc90614da6565b80156109095780601f106108de57610100808354040283529160200191610909565b820191906000526020600020905b8154815290600101906020018083116108ec57829003601f168201915b505050505081565b6070546001600160a01b031633146109445760405162461bcd60e51b815260040161093b90614de0565b60405180910390fd5b6103e88161ffff161015801561095f57506104008161ffff16105b6109e45760405162461bcd60e51b815260206004820152604a60248201527f506f6c79676f6e5a6b45564d3a3a7365744d756c7469706c696572426174636860448201527f4665653a206e65774d756c7469706c696572426174636846656520696e636f72606482015269726563742072616e676560b01b608482015260a40161093b565b6065805461ffff60481b1916600160481b61ffff8416908102919091179091556040519081527f7019933d795eba185c180209e8ae8bffbaa25bcef293364687702c31f4d302c5906020015b60405180910390a150565b6001600160401b03808616600081815260676020526040808220549388168252902054606092911580610a6d57508115155b610ae1576040805162461bcd60e51b81526020600482015260248101919091527f506f6c79676f6e5a6b45564d3a3a676574496e707574536e61726b427974657360448201527f3a206f6c64416363496e7075744861736820646f6573206e6f74206578697374606482015260840161093b565b80610b56576040805162461bcd60e51b81526020600482015260248101919091527f506f6c79676f6e5a6b45564d3a3a676574496e707574536e61726b427974657360448201527f3a206e6577416363496e7075744861736820646f6573206e6f74206578697374606482015260840161093b565b604080516001600160601b03193360601b166020820152603481019690965260548601929092526001600160c01b031960c098891b811660748701527f0000000000000000000000000000000000000000000000000000000000000000891b8116607c870152608486019490945260a485015260c4840194909452509290931b90911660e4830152805180830360cc01815260ec909201905290565b606f546001600160401b038281166000908152606e602052604081205490924292610c2892600160801b90920481169116614e39565b6001600160401b0316111592915050565b6070546001600160a01b03163314610c635760405162461bcd60e51b815260040161093b90614de0565b62093a806001600160401b0382161115610cfc5760405162461bcd60e51b815260206004820152604e60248201527f506f6c79676f6e5a6b45564d3a3a73657454727573746564416767726567617460448201527f6f7254696d656f75743a20457863656564206d61782068616c7420616767726560648201526d19d85d1a5bdb881d1a5b595bdd5d60921b608482015260a40161093b565b60655460ff16610d9f57606f546001600160401b03600160c01b909104811690821610610d9f5760405162461bcd60e51b8152602060048201526044602482018190527f506f6c79676f6e5a6b45564d3a3a736574547275737465644167677265676174908201527f6f7254696d656f75743a204e65772074696d656f7574206d757374206265206c60648201526337bbb2b960e11b608482015260a40161093b565b606f80546001600160c01b0316600160c01b6001600160401b038416908102919091179091556040519081527f1f4fa24c2e4bad19a7f3ec5c5485f70d46c798461c2e684f55bbd0fc661373a190602001610a30565b60655460ff1615610e185760405162461bcd60e51b815260040161093b90614e64565b606954600160401b90046001600160a01b03163314610e9f5760405162461bcd60e51b815260206004820152603a60248201527f506f6c79676f6e5a6b45564d3a3a6f6e6c795472757374656453657175656e6360448201527f65723a204f6e6c7920747275737465642073657175656e636572000000000000606482015260840161093b565b8080610f135760405162461bcd60e51b815260206004820152603d60248201527f506f6c79676f6e5a6b45564d3a3a73657175656e6365426174636865733a204160448201527f74206c65617374206d7573742073657175656e63652031206261746368000000606482015260840161093b565b6103e8811115610f8d576040805162461bcd60e51b81526020600482015260248101919091527f506f6c79676f6e5a6b45564d3a3a73657175656e6365426174636865733a204360448201527f616e6e6f742073657175656e63652074686174206d616e792062617463686573606482015260840161093b565b6068546001600160401b03600160401b82048116600081815260676020526040812054838516949293600160801b909304909216919082905b8681101561141a576000898983818110610fe257610fe2614ecc565b9050602002810190610ff49190614ee2565b610ffd90614f02565b805180516020909101206060820151919250906001600160401b031615611193578561102881614f8e565b9650506000818360200151846060015160405160200161104a93929190614fb4565b60408051601f1981840301815291815281516020928301206001600160401b038a166000908152606690935291205490915081146110de5760405162461bcd60e51b815260206004820152603d60248201526000805160206155e483398151915260448201527f6f7263656420626174636865732064617461206d757374206d61746368000000606482015260840161093b565b6001600160401b03808816600090815260666020526040808220919091556060850151908501519082169116101561118d5760405162461bcd60e51b815260206004820152605860248201526000805160206155e483398151915260448201527f6f7263656420626174636865732074696d657374616d70206d757374206265206064820152773134b3b3b2b91037b91032b8bab0b6103a3430b71036b4b760411b608482015260a40161093b565b50611320565b60208201511580611233575060208201516040516312bd9b1960e11b815260048101919091527f00000000000000000000000000000000000000000000000000000000000000006001600160a01b03169063257b3632906024016020604051808303816000875af115801561120c573d6000803e3d6000fd5b505050506040513d601f19601f820116820180604052508101906112309190614fd7565b15155b6112a55760405162461bcd60e51b815260206004820152603a60248201527f506f6c79676f6e5a6b45564d3a3a73657175656e6365426174636865733a204760448201527f6c6f62616c206578697420726f6f74206d757374206578697374000000000000606482015260840161093b565b815151620493e010156113205760405162461bcd60e51b815260206004820152603a60248201527f506f6c79676f6e5a6b45564d3a3a73657175656e6365426174636865733a205460448201527f72616e73616374696f6e73206279746573206f766572666c6f77000000000000606482015260840161093b565b876001600160401b031682604001516001600160401b03161015801561135357504282604001516001600160401b031611155b6113c55760405162461bcd60e51b815260206004820152603d60248201527f506f6c79676f6e5a6b45564d3a3a73657175656e6365426174636865733a205460448201527f696d657374616d70206d75737420626520696e736964652072616e6765000000606482015260840161093b565b848183602001518460400151336040516020016113e6959493929190614ff0565b60405160208183030381529060405280519060200120945081604001519750505080806114129061502f565b915050610fc6565b506114258685614e39565b6068549094506001600160401b03600160c01b9091048116908416111561149a5760405162461bcd60e51b815260206004820152603560248201526000805160206155e48339815191526044820152746f7263652062617463686573206f766572666c6f7760581b606482015260840161093b565b60006114a68285615048565b6114b9906001600160401b031688615070565b60408051606081018252858152426001600160401b03908116602080840191825260688054600160401b9081900485168688019081528d861660008181526067909552979093209551865592516001909501805492519585166001600160801b03199384161795851684029590951790945583548c841691161793029290921790559091508281169085161461156f576068805467ffffffffffffffff60801b1916600160801b6001600160401b038716021790555b6115ba33308361157e60725490565b6115889190615087565b6001600160a01b037f0000000000000000000000000000000000000000000000000000000000000000169291906132da565b6115c261334b565b6040516001600160401b038616907f303446e6a8cb73c83dff421c0b1d5e5ce0719dab1bff13660fc254e58cc17fce90600090a2505050505050505050565b60655460ff16156116245760405162461bcd60e51b815260040161093b90614e64565b606f546001600160401b03878116600090815260676020526040902060010154429261165b92600160c01b90910481169116614e39565b6001600160401b031611156116e45760405162461bcd60e51b815260206004820152604360248201527f506f6c79676f6e5a6b45564d3a3a766572696679426174636865733a2054727560448201527f737465642061676772656761746f722074696d656f7574206e6f7420657870696064820152621c995960ea1b608482015260a40161093b565b6103e86116f18888615048565b6001600160401b0316111561176e5760405162461bcd60e51b815260206004820152603c60248201527f506f6c79676f6e5a6b45564d3a3a766572696679426174636865733a2043616e60448201527f6e6f74207665726966792074686174206d616e79206261746368657300000000606482015260840161093b565b61177e88888888888888886133ef565b61178786613925565b606f54600160801b90046001600160401b031660000361186b576069805467ffffffffffffffff19166001600160401b038881169182179092556000908152606b60205260409020859055606f5416156117ec57606f80546001600160801b03191690555b6040516333d6247d60e01b8152600481018690527f00000000000000000000000000000000000000000000000000000000000000006001600160a01b0316906333d6247d90602401600060405180830381600087803b15801561184e57600080fd5b505af1158015611862573d6000803e3d6000fd5b5050505061191c565b61187361334b565b606f80546001600160401b031690600061188c83614f8e565b82546001600160401b039182166101009390930a92830292820219169190911790915560408051608081018252428316815289831660208083019182528284018b8152606084018b8152606f5487166000908152606e909352949091209251835492518616600160401b026001600160801b03199093169516949094171781559151600183015551600290910155505b60405184815233906001600160401b038816907f9c72852172521097ba7e1482e6b44b351323df0155f97f4ea18fcec28e1f5966906020015b60405180910390a35050505050505050565b606a546001600160a01b03163314611a955760655460ff16156119fd5760405162461bcd60e51b815260206004820152604260248201527f506f6c79676f6e5a6b45564d3a3a636f6e736f6c696461746550656e64696e6760448201527f53746174653a206f6e6c79206966206e6f7420656d657267656e637920737461606482015261746560f01b608482015260a40161093b565b611a0681610bf2565b611a955760405162461bcd60e51b815260206004820152605460248201527f506f6c79676f6e5a6b45564d3a3a636f6e736f6c696461746550656e64696e6760448201527f53746174653a2050656e64696e67207374617465206973206e6f7420726561646064820152731e481d1bc818994818dbdb9cdbdb1a59185d195960621b608482015260a40161093b565b611a9e81613b0b565b50565b606c805461089090614da6565b6070546001600160a01b03163314611ad85760405162461bcd60e51b815260040161093b90614de0565b60698054600160401b600160e01b031916600160401b6001600160a01b038416021790556040517ff54144f9611984021529f814a1cb6a41e22c58351510a0d9f7e822618abb9cc090610a30908390614983565b611b34613cfa565b611b3e6000613d54565b565b6033546001600160a01b03163314611d3f576000611b5c61260c565b9050806001600160401b0316826001600160401b031611611bd35760405162461bcd60e51b815260206004820152603c602482015260008051602061556483398151915260448201527f746174653a20426174636820616c726561647920766572696669656400000000606482015260840161093b565b6068546001600160401b03600160401b909104811690831611801590611c1557506001600160401b038083166000908152606760205260409020600101541615155b611c8e5760405162461bcd60e51b8152602060048201526050602482015260008051602061556483398151915260448201527f746174653a204261746368206e6f742073657175656e636564206f72206e6f7460648201526f20656e64206f662073657175656e636560801b608482015260a40161093b565b6001600160401b038083166000908152606760205260409020600101544291611cbc9162093a809116614e39565b6001600160401b03161115611d3d5760405162461bcd60e51b815260206004820152604d602482015260008051602061556483398151915260448201527f746174653a204167677265676174696f6e2068616c742074696d656f7574206960648201526c1cc81b9bdd08195e1c1a5c9959609a1b608482015260a40161093b565b505b611a9e613da6565b60655460ff1615611d6a5760405162461bcd60e51b815260040161093b90614e64565b611d7b898989898989898989613e21565b6001600160401b0386166000908152606b60209081526040918290205482519081529081018690527f1f44c21118c4603cfb4e1b621dbcfa2b73efcececee2b99b620b2953d33a7010910160405180910390a1611dd6613da6565b505050505050505050565b6071546001600160a01b03163314611e5d5760405162461bcd60e51b815260206004820152603960248201527f506f6c79676f6e5a6b45564d3a3a61636365707441646d696e526f6c653a206360448201527830b63632b91034b9903737ba103832b73234b733a0b236b4b760391b606482015260840161093b565b607154607080546001600160a01b0319166001600160a01b0390921691821790556040517f056dc487bbf0795d0bbb1b4f0af523a855503cff740bfb4d5475f7a90c091e8e91611eac91614983565b60405180910390a1565b6000807f00000000000000000000000000000000000000000000000000000000000000006001600160a01b03166370a08231306040518263ffffffff1660e01b8152600401611f059190614983565b602060405180830381865afa158015611f22573d6000803e3d6000fd5b505050506040513d601f19601f82011682018060405250810190611f469190614fd7565b90506000611f5261260c565b6068546001600160401b03600160401b8204811691611f8291600160801b8204811691600160c01b900416615048565b611f8c9190614e39565b611f969190615048565b6001600160401b0316905080600003611fb25760009250505090565b611fbc81836150bc565b9250505090565b6070546001600160a01b03163314611fed5760405162461bcd60e51b815260040161093b90614de0565b62093a806001600160401b03821611156120815760405162461bcd60e51b815260206004820152604960248201527f506f6c79676f6e5a6b45564d3a3a73657450656e64696e67537461746554696d60448201527f656f75743a20457863656564206d61782068616c74206167677265676174696f6064820152681b881d1a5b595bdd5d60ba1b608482015260a40161093b565b60655460ff1661211657606f546001600160401b03600160801b9091048116908216106121165760405162461bcd60e51b815260206004820152603f60248201527f506f6c79676f6e5a6b45564d3a3a73657450656e64696e67537461746554696d60448201527f656f75743a204e65772074696d656f7574206d757374206265206c6f77657200606482015260840161093b565b606f805467ffffffffffffffff60801b1916600160801b6001600160401b038416908102919091179091556040519081527fc4121f4e22c69632ebb7cf1f462be0511dc034f999b52013eddfb24aab765c7590602001610a30565b6070546001600160a01b0316331461219b5760405162461bcd60e51b815260040161093b90614de0565b62015180816001600160401b0316106122355760405162461bcd60e51b815260206004820152605060248201527f506f6c79676f6e5a6b45564d3a3a736574566572696679426174636854696d6560448201527f5461726765743a20736574566572696679426174636854696d6554617267657460648201526f20696e636f72726563742072616e676560801b608482015260a40161093b565b6065805468ffffffffffffffff0019166101006001600160401b038416908102919091179091556040519081527f1b023231a1ab6b5d93992f168fb44498e1a7e64cef58daff6f1c216de6a68c2890602001610a30565b6070546001600160a01b031633146122b65760405162461bcd60e51b815260040161093b90614de0565b607180546001600160a01b0319166001600160a01b0383161790556040517fa5b56b7906fd0a20e3f35120dd8343db1e12e037a6c90111c7e42885e82a1ce690610a30908390614983565b600054610100900460ff16158080156123215750600054600160ff909116105b8061233b5750303b15801561233b575060005460ff166001145b61239e5760405162461bcd60e51b815260206004820152602e60248201527f496e697469616c697a61626c653a20636f6e747261637420697320616c72656160448201526d191e481a5b9a5d1a585b1a5e995960921b606482015260840161093b565b6000805460ff1916600117905580156123c1576000805461ff0019166101001790555b6123ce6020860186614af3565b607080546001600160a01b0319166001600160a01b03929092169190911790556123fe6040860160208701614af3565b606980546001600160a01b0392909216600160401b02600160401b600160e01b03199092169190911790556124396080860160608701614af3565b606a80546001600160a01b0319166001600160a01b039290921691909117905560008052606b6020527fc8cc8bda7ad4886bea3ebbdafa02e79d37c39bf4011696b26a31a0802fd9458b849055606c6124928482615116565b50606d61249f8382615116565b5062093a806124b46060870160408801614997565b6001600160401b031611156124db5760405162461bcd60e51b815260040161093b906151d5565b6124eb6060860160408701614997565b606f80546001600160401b0392909216600160801b0267ffffffffffffffff60801b1990921691909117905562093a8061252b60a0870160808801614997565b6001600160401b031611156125525760405162461bcd60e51b815260040161093b906151d5565b61256260a0860160808701614997565b606f80546001600160c01b0316600160c01b6001600160401b039390931692909202919091179055670de0b6b3a7640000607255606580546affffffffffffffffffff0019166a03ea0000000000000708001790556125bf614471565b8015612605576000805461ff0019169055604051600181527f7f26b83ff96e1f2b6a682f133852f6798a09c465da95921460cefb38474024989060200160405180910390a15b5050505050565b606f546000906001600160401b0316156126495750606f546001600160401b039081166000908152606e6020526040902054600160401b90041690565b506069546001600160401b031690565b6070546001600160a01b031633146126835760405162461bcd60e51b815260040161093b90614de0565b606c61268f8282615116565b507f6b8f723a4c7a5335cafae8a598a0aa0301be1387c037dccc085b62add6448b2081604051610a3091906148dc565b60655460ff16156126e25760405162461bcd60e51b815260040161093b90614e64565b80806127445760405162461bcd60e51b815260206004820152603f60248201526000805160206155c483398151915260448201527f65733a204d75737420666f726365206174206c65617374203120626174636800606482015260840161093b565b6103e88111156127b65760405162461bcd60e51b815260206004820152604360248201526000805160206155c483398151915260448201527f65733a2043616e6e6f74207665726966792074686174206d616e79206261746360648201526268657360e81b608482015260a40161093b565b6068546001600160401b03600160c01b82048116916127de918491600160801b90041661522e565b111561283a5760405162461bcd60e51b815260206004820152603760248201526000805160206155c4833981519152604482015276195cce88119bdc98d94818985d18da081a5b9d985b1a59604a1b606482015260840161093b565b6068546001600160401b03600160401b820481166000818152606760205260408120549193600160801b9004909216915b84811015612a7f57600087878381811061288757612887614ecc565b90506020028101906128999190615246565b6128a29061525c565b9050836128ae81614f8e565b825180516020918201208185015160408087015190519499509194506000936128da9386939101614fb4565b60408051601f1981840301815291815281516020928301206001600160401b0389166000908152606690935291205490915081146129795760405162461bcd60e51b815260206004820152604260248201526000805160206155c483398151915260448201527f65733a20466f7263656420626174636865732064617461206d757374206d61746064820152610c6d60f31b608482015260a40161093b565b6001600160401b03861660009081526066602052604081205561299d600189615070565b8403612a3457426206978084604001516129b79190614e39565b6001600160401b03161115612a345760405162461bcd60e51b815260206004820152604960248201526000805160206155c483398151915260448201527f65733a20466f72636564206261746368206973206e6f7420696e2074696d656f6064820152681d5d081c195c9a5bd960ba1b608482015260a40161093b565b848284602001514233604051602001612a51959493929190614ff0565b6040516020818303038152906040528051906020012094505050508080612a779061502f565b91505061286b565b50612a8a8484614e39565b606880546001600160401b0342811667ffffffffffffffff199092168217808455604080516060810182528781526020808201958652600160401b9384900485168284019081528589166000818152606790935284832093518455965160019390930180549151871686026001600160801b031990921693871693909317179091558554938916600160801b0267ffffffffffffffff60801b1993860293909316600160401b600160c01b031990941693909317919091179093559151929550917f648a61dd2438f072f5a1960939abd30f37aea80d2e94c9792ad142d3e0a490a49190a2505050505050565b6070546001600160a01b03163314612ba15760405162461bcd60e51b815260040161093b90614de0565b7f00000000000000000000000000000000000000000000000000000000000000006001600160a01b031663dbc169766040518163ffffffff1660e01b8152600401600060405180830381600087803b158015612bfc57600080fd5b505af1158015612c10573d6000803e3d6000fd5b50505050611b3e6144e5565b606a546001600160a01b03163314612c465760405162461bcd60e51b815260040161093b906152d7565b612c57898989898989898989613e21565b6069805467ffffffffffffffff19166001600160401b038881169182179092556000908152606b60205260409020859055606f541615612ca257606f80546001600160801b03191690555b6040516333d6247d60e01b8152600481018690527f00000000000000000000000000000000000000000000000000000000000000006001600160a01b0316906333d6247d90602401600060405180830381600087803b158015612d0457600080fd5b505af1158015612d18573d6000803e3d6000fd5b5050606f80546001600160c01b031661127560c71b179055505060405184815233906001600160401b038816907fcc1b5520188bf1dd3e63f98164b577c4d75c11a619ddea692112f0d1aec4cf729060200160405180910390a3505050505050505050565b60655460ff1615612da05760405162461bcd60e51b815260040161093b90614e64565b6000612dab60725490565b905081811115612e105760405162461bcd60e51b815260206004820152602a60248201527f506f6c79676f6e5a6b45564d3a3a666f72636542617463683a204e6f7420656e6044820152696f756768206d6174696360b01b606482015260840161093b565b620493e0831115612e815760405162461bcd60e51b815260206004820152603560248201527f506f6c79676f6e5a6b45564d3a3a666f72636542617463683a205472616e73616044820152746374696f6e73206279746573206f766572666c6f7760581b606482015260840161093b565b612eb66001600160a01b037f0000000000000000000000000000000000000000000000000000000000000000163330846132da565b60007f00000000000000000000000000000000000000000000000000000000000000006001600160a01b0316633ed691ef6040518163ffffffff1660e01b8152600401602060405180830381865afa158015612f16573d6000803e3d6000fd5b505050506040513d601f19601f82011682018060405250810190612f3a9190614fd7565b60688054919250600160c01b9091046001600160401b0316906018612f5e83614f8e565b91906101000a8154816001600160401b0302191690836001600160401b03160217905550508484604051612f93929190615334565b604051908190038120612fac9183904290602001614fb4565b60408051808303601f190181529181528151602092830120606854600160c01b90046001600160401b03166000908152606690935291205532330361305057606854604080518381523360208201526060918101829052600091810191909152600160c01b9091046001600160401b0316907ff94bb37db835f1ab585ee00041849a09b12cd081d77fa15ca070757619cbc9319060800160405180910390a2612605565b606860189054906101000a90046001600160401b03166001600160401b03167ff94bb37db835f1ab585ee00041849a09b12cd081d77fa15ca070757619cbc931823388886040516130a49493929190615344565b60405180910390a25050505050565b606a546001600160a01b031633146130dd5760405162461bcd60e51b815260040161093b906152d7565b6130ed88888888888888886133ef565b6069805467ffffffffffffffff19166001600160401b038881169182179092556000908152606b60205260409020859055606f54161561313857606f80546001600160801b03191690555b6040516333d6247d60e01b8152600481018690527f00000000000000000000000000000000000000000000000000000000000000006001600160a01b0316906333d6247d90602401600060405180830381600087803b15801561319a57600080fd5b505af11580156131ae573d6000803e3d6000fd5b50506040518681523392506001600160401b03891691507f0c0ce073a7d7b5850c04ccc4b20ee7d3179d5f57d0ac44399565792c0f72fce790602001611955565b6070546001600160a01b031633146132195760405162461bcd60e51b815260040161093b90614de0565b606a80546001600160a01b0319166001600160a01b0383161790556040517f61f8fec29495a3078e9271456f05fb0707fd4e41f7661865f80fc437d06681ca90610a30908390614983565b61326c613cfa565b6001600160a01b0381166132d15760405162461bcd60e51b815260206004820152602660248201527f4f776e61626c653a206e6577206f776e657220697320746865207a65726f206160448201526564647265737360d01b606482015260840161093b565b611a9e81613d54565b6040516001600160a01b03808516602483015283166044820152606481018290526133459085906323b872dd60e01b906084015b60408051601f198184030181529190526020810180516001600160e01b03166001600160e01b031990931692909217909152614592565b50505050565b606f546001600160401b03600160401b8204811691161115611b3e57606f5460009061338890600160401b90046001600160401b03166001614e39565b905061339381610bf2565b15611a9e57606f546000906002906133b59084906001600160401b0316615048565b6133bf919061538b565b6133c99083614e39565b90506133d481610bf2565b156133e6576133e281613b0b565b5050565b6133e282613b0b565b6000806133fa61260c565b90506001600160401b038a161561356057606f546001600160401b03908116908b1611156134b25760405162461bcd60e51b815260206004820152605960248201527f506f6c79676f6e5a6b45564d3a3a5f766572696679426174636865733a20706560448201527f6e64696e6753746174654e756d206d757374206265206c657373206f7220657160648201527875616c207468616e206c61737450656e64696e67537461746560381b608482015260a40161093b565b6001600160401b03808b166000908152606e602052604090206002810154815490945090918b8116600160401b909204161461355a5760405162461bcd60e51b815260206004820152604d602482015260008051602061558483398151915260448201527f69744e756d4261746368206d757374206d61746368207468652070656e64696e60648201526c0ce40e6e8c2e8ca40c4c2e8c6d609b1b608482015260a40161093b565b50613686565b6001600160401b0389166000908152606b60205260409020549150816135ea5760405162461bcd60e51b815260206004820152604460248201819052600080516020615584833981519152908201527f69744e756d426174636820737461746520726f6f7420646f6573206e6f7420656064820152631e1a5cdd60e21b608482015260a40161093b565b806001600160401b0316896001600160401b031611156136865760405162461bcd60e51b815260206004820152605e602482015260008051602061558483398151915260448201527f69744e756d4261746368206d757374206265206c657373206f7220657175616c60648201527f207468616e2063757272656e744c617374566572696669656442617463680000608482015260a40161093b565b806001600160401b0316886001600160401b03161161372e5760405162461bcd60e51b815260206004820152605860248201527f506f6c79676f6e5a6b45564d3a3a5f766572696679426174636865733a20666960448201527f6e616c4e65774261746368206d75737420626520626967676572207468616e206064820152770c6eae4e4cadce898c2e6e8accae4d2ccd2cac884c2e8c6d60431b608482015260a40161093b565b600061373d8a8a8a868b610a3b565b905060007f30644e72e131a029b85045b68181585d2833e84879b9709143e1f593f000000160028360405161377291906153b1565b602060405180830381855afa15801561378f573d6000803e3d6000fd5b5050506040513d601f19601f820116820180604052508101906137b29190614fd7565b6137bc91906153c3565b6040805160208101825282815290516343753b4d60e01b81529192506001600160a01b037f000000000000000000000000000000000000000000000000000000000000000016916343753b4d9161381c918b918b918b91906004016153d7565b602060405180830381865afa158015613839573d6000803e3d6000fd5b505050506040513d601f19601f8201168201806040525081019061385d9190615451565b6138bd5760405162461bcd60e51b815260206004820152602b60248201527f506f6c79676f6e5a6b45564d3a3a5f766572696679426174636865733a20496e60448201526a3b30b634b210383937b7b360a91b606482015260840161093b565b613917336138cb858d615048565b6001600160401b03166138dc611eb6565b6138e69190615087565b6001600160a01b037f0000000000000000000000000000000000000000000000000000000000000000169190614669565b505050505050505050505050565b600061392f61260c565b90508160008061393f8484615048565b6001600160401b031690505b836001600160401b0316836001600160401b0316146139f1576001600160401b0380841660009081526067602052604090206065546001820154919261010090910481169161399b911642615070565b11156139d65760018101546139c090600160401b90046001600160401b031685615048565b6139d3906001600160401b03168461522e565b92505b60010154600160401b90046001600160401b0316925061394b565b60006139fd8383615070565b905082811015613a77576000613a138285615070565b9050600c8111613a235780613a26565b600c5b9050613a33816003615087565b613a3e90600a615557565b606554613a57908390600160481b900461ffff16615557565b607254613a649190615087565b613a6e91906150bc565b60725550613b03565b6000613a838483615070565b9050600c8111613a935780613a96565b600c5b90506000613aa5826003615087565b613ab090600a615557565b606554613ac9908490600160481b900461ffff16615557565b607254613ad69190615087565b613ae091906150bc565b905080607254607254613af39190615087565b613afd91906150bc565b60725550505b505050505050565b606f546001600160401b03600160401b9091048116908216118015613b3f5750606f546001600160401b0390811690821611155b613bb15760405162461bcd60e51b815260206004820152603f60248201527f506f6c79676f6e5a6b45564d3a3a5f636f6e736f6c696461746550656e64696e60448201527f6753746174653a2070656e64696e6753746174654e756d20696e76616c696400606482015260840161093b565b6001600160401b038181166000818152606e60209081526040808320805460698054600160401b9283900490981667ffffffffffffffff19909816881790556002820154878652606b9094529382902092909255606f805467ffffffffffffffff60401b19169390940292909217909255600182015490516333d6247d60e01b815260048101919091529091907f00000000000000000000000000000000000000000000000000000000000000006001600160a01b0316906333d6247d90602401600060405180830381600087803b158015613c8c57600080fd5b505af1158015613ca0573d6000803e3d6000fd5b50505050826001600160401b0316816001600160401b03167f328d3c6c0fd6f1be0515e422f2d87e59f25922cbc2233568515a0c4bc3f8510e8460020154604051613ced91815260200190565b60405180910390a3505050565b6033546001600160a01b03163314611b3e5760405162461bcd60e51b815260206004820181905260248201527f4f776e61626c653a2063616c6c6572206973206e6f7420746865206f776e6572604482015260640161093b565b603380546001600160a01b038381166001600160a01b0319831681179093556040519116919082907f8be0079c531659141344cd1fd0a4f28419497f9722a3daafe3b4186f6b6457e090600090a35050565b7f00000000000000000000000000000000000000000000000000000000000000006001600160a01b0316632072f6c56040518163ffffffff1660e01b8152600401600060405180830381600087803b158015613e0157600080fd5b505af1158015613e15573d6000803e3d6000fd5b50505050611b3e614699565b60006001600160401b038a1615613f9157606f546001600160401b03908116908b161115613ed95760405162461bcd60e51b815260206004820152606560248201526000805160206155a483398151915260448201527f696e6753746174653a2070656e64696e6753746174654e756d206d757374206260648201527f65206c657373206f7220657175616c207468616e206c61737450656e64696e67608482015264537461746560d81b60a482015260c40161093b565b506001600160401b03808a166000908152606e602052604090206002810154815490928a8116600160401b9092041614613f8b5760405162461bcd60e51b815260206004820152605960248201526000805160206155a483398151915260448201527f696e6753746174653a20696e69744e756d4261746368206d757374206d6174636064820152780d040e8d0ca40e0cadcc8d2dcce40e6e8c2e8ca40c4c2e8c6d603b1b608482015260a40161093b565b506140ca565b506001600160401b0387166000908152606b6020526040902054806140255760405162461bcd60e51b815260206004820152605060248201526000805160206155a483398151915260448201527f696e6753746174653a20696e69744e756d426174636820737461746520726f6f60648201526f1d08191bd95cc81b9bdd08195e1a5cdd60821b608482015260a40161093b565b6069546001600160401b0390811690891611156140ca5760405162461bcd60e51b815260206004820152606360248201526000805160206155a483398151915260448201527f696e6753746174653a20696e69744e756d4261746368206d757374206265206c60648201527f657373206f7220657175616c207468616e206c617374566572696669656442616084820152620e8c6d60eb1b60a482015260c40161093b565b606f546001600160401b03908116908a16118015906140fa5750896001600160401b0316896001600160401b0316115b801561411b5750606f546001600160401b03600160401b9091048116908a16115b61418c5760405162461bcd60e51b815260206004820152604860248201526000805160206155a483398151915260448201527f696e6753746174653a2066696e616c50656e64696e6753746174654e756d20696064820152671b98dbdc9c9958dd60c21b608482015260a40161093b565b6001600160401b038981166000908152606e6020526040902054600160401b90048116908816146142435760405162461bcd60e51b815260206004820152606160248201526000805160206155a483398151915260448201527f696e6753746174653a2066696e616c4e65774261746368206d7573742062652060648201527f657175616c20746f2063757272656e744c6173745665726966696564426174636084820152600d60fb1b60a482015260c40161093b565b6000614252898989858a610a3b565b905060007f30644e72e131a029b85045b68181585d2833e84879b9709143e1f593f000000160028360405161428791906153b1565b602060405180830381855afa1580156142a4573d6000803e3d6000fd5b5050506040513d601f19601f820116820180604052508101906142c79190614fd7565b6142d191906153c3565b6040805160208101825282815290516343753b4d60e01b81529192506001600160a01b037f000000000000000000000000000000000000000000000000000000000000000016916343753b4d91614331918a918a918a91906004016153d7565b602060405180830381865afa15801561434e573d6000803e3d6000fd5b505050506040513d601f19601f820116820180604052508101906143729190615451565b6143cc5760405162461bcd60e51b815260206004820152603760248201526000805160206155a483398151915260448201527634b733a9ba30ba329d1024b73b30b634b210383937b7b360491b606482015260840161093b565b6001600160401b038b166000908152606e60205260409020600201548790036139175760405162461bcd60e51b815260206004820152605b60248201526000805160206155a483398151915260448201527f696e6753746174653a2053746f72656420726f6f74206d75737420626520646960648201527f66666572656e74207468616e206e657720737461746520726f6f740000000000608482015260a40161093b565b600054610100900460ff166144dc5760405162461bcd60e51b815260206004820152602b60248201527f496e697469616c697a61626c653a20636f6e7472616374206973206e6f74206960448201526a6e697469616c697a696e6760a81b606482015260840161093b565b611b3e33613d54565b60655460ff1661455d5760405162461bcd60e51b815260206004820152603b60248201527f456d657267656e63794d616e616765723a3a6966456d657267656e637953746160448201527f74653a206f6e6c7920696620656d657267656e63792073746174650000000000606482015260840161093b565b6065805460ff191690556040517f1e5e34eea33501aecf2ebec9fe0e884a40804275ea7fe10b2ba084c8374308b390600090a1565b60006145e7826040518060400160405280602081526020017f5361666545524332303a206c6f772d6c6576656c2063616c6c206661696c6564815250856001600160a01b03166146f49092919063ffffffff16565b80519091501561466457808060200190518101906146059190615451565b6146645760405162461bcd60e51b815260206004820152602a60248201527f5361666545524332303a204552433230206f7065726174696f6e20646964206e6044820152691bdd081cdd58d8d9595960b21b606482015260840161093b565b505050565b6040516001600160a01b03831660248201526044810182905261466490849063a9059cbb60e01b9060640161330e565b60655460ff16156146bc5760405162461bcd60e51b815260040161093b90614e64565b6065805460ff191660011790556040517f2261efe5aef6fedc1fd1550b25facc9181745623049c7901287030b9ad1a549790600090a1565b6060614703848460008561470b565b949350505050565b60608247101561476c5760405162461bcd60e51b815260206004820152602660248201527f416464726573733a20696e73756666696369656e742062616c616e636520666f6044820152651c8818d85b1b60d21b606482015260840161093b565b600080866001600160a01b0316858760405161478891906153b1565b60006040518083038185875af1925050503d80600081146147c5576040519150601f19603f3d011682016040523d82523d6000602084013e6147ca565b606091505b50915091506147db878383876147e6565b979650505050505050565b6060831561485557825160000361484e576001600160a01b0385163b61484e5760405162461bcd60e51b815260206004820152601d60248201527f416464726573733a2063616c6c20746f206e6f6e2d636f6e7472616374000000604482015260640161093b565b5081614703565b614703838381511561486a5781518083602001fd5b8060405162461bcd60e51b815260040161093b91906148dc565b60005b8381101561489f578181015183820152602001614887565b838111156133455750506000910152565b600081518084526148c8816020860160208601614884565b601f01601f19169290920160200192915050565b6020815260006148ef60208301846148b0565b9392505050565b60006020828403121561490857600080fd5b813561ffff811681146148ef57600080fd5b80356001600160401b038116811461493157600080fd5b919050565b600080600080600060a0868803121561494e57600080fd5b6149578661491a565b94506149656020870161491a565b94979496505050506040830135926060810135926080909101359150565b6001600160a01b0391909116815260200190565b6000602082840312156149a957600080fd5b6148ef8261491a565b60008083601f8401126149c457600080fd5b5081356001600160401b038111156149db57600080fd5b6020830191508360208260051b85010111156149f657600080fd5b9250929050565b60008060208385031215614a1057600080fd5b82356001600160401b03811115614a2657600080fd5b614a32858286016149b2565b90969095509350505050565b8060408101831015614a4f57600080fd5b92915050565b8060808101831015614a4f57600080fd5b6000806000806000806000806101a0898b031215614a8357600080fd5b614a8c8961491a565b9750614a9a60208a0161491a565b9650614aa860408a0161491a565b95506060890135945060808901359350614ac58a60a08b01614a3e565b9250614ad48a60e08b01614a55565b9150614ae48a6101608b01614a3e565b90509295985092959890939650565b600060208284031215614b0557600080fd5b81356001600160a01b03811681146148ef57600080fd5b60008060008060008060008060006101c08a8c031215614b3b57600080fd5b614b448a61491a565b9850614b5260208b0161491a565b9750614b6060408b0161491a565b9650614b6e60608b0161491a565b955060808a0135945060a08a01359350614b8b8b60c08c01614a3e565b9250614b9b8b6101008c01614a55565b9150614bab8b6101808c01614a3e565b90509295985092959850929598565b600060208284031215614bcc57600080fd5b5035919050565b634e487b7160e01b600052604160045260246000fd5b600082601f830112614bfa57600080fd5b81356001600160401b0380821115614c1457614c14614bd3565b604051601f8301601f19908116603f01168101908282118183101715614c3c57614c3c614bd3565b81604052838152866020858801011115614c5557600080fd5b836020870160208301376000602085830101528094505050505092915050565b600080600080848603610100811215614c8d57600080fd5b60a0811215614c9b57600080fd5b5084935060a0850135925060c08501356001600160401b0380821115614cc057600080fd5b614ccc88838901614be9565b935060e0870135915080821115614ce257600080fd5b50614cef87828801614be9565b91505092959194509250565b600060208284031215614d0d57600080fd5b81356001600160401b03811115614d2357600080fd5b61470384828501614be9565b600080600060408486031215614d4457600080fd5b83356001600160401b0380821115614d5b57600080fd5b818601915086601f830112614d6f57600080fd5b813581811115614d7e57600080fd5b876020828501011115614d9057600080fd5b6020928301989097509590910135949350505050565b600181811c90821680614dba57607f821691505b602082108103614dda57634e487b7160e01b600052602260045260246000fd5b50919050565b60208082526023908201527f506f6c79676f6e5a6b45564d3a3a6f6e6c7941646d696e3a204f6e6c7920616460408201526236b4b760e91b606082015260800190565b634e487b7160e01b600052601160045260246000fd5b60006001600160401b03808316818516808303821115614e5b57614e5b614e23565b01949350505050565b60208082526042908201527f456d657267656e63794d616e616765723a3a69664e6f74456d657267656e637960408201527f53746174653a206f6e6c79206966206e6f7420656d657267656e637920737461606082015261746560f01b608082015260a00190565b634e487b7160e01b600052603260045260246000fd5b60008235607e19833603018112614ef857600080fd5b9190910192915050565b600060808236031215614f1457600080fd5b604051608081016001600160401b038282108183111715614f3757614f37614bd3565b816040528435915080821115614f4c57600080fd5b50614f5936828601614be9565b82525060208301356020820152614f726040840161491a565b6040820152614f836060840161491a565b606082015292915050565b60006001600160401b03808316818103614faa57614faa614e23565b6001019392505050565b928352602083019190915260c01b6001600160c01b031916604082015260480190565b600060208284031215614fe957600080fd5b5051919050565b9485526020850193909352604084019190915260c01b6001600160c01b0319166060808401919091521b6001600160601b0319166068820152607c0190565b60006001820161504157615041614e23565b5060010190565b60006001600160401b038381169083168181101561506857615068614e23565b039392505050565b60008282101561508257615082614e23565b500390565b60008160001904831182151516156150a1576150a1614e23565b500290565b634e487b7160e01b600052601260045260246000fd5b6000826150cb576150cb6150a6565b500490565b601f82111561466457600081815260208120601f850160051c810160208610156150f75750805b601f850160051c820191505b81811015613b0357828155600101615103565b81516001600160401b0381111561512f5761512f614bd3565b6151438161513d8454614da6565b846150d0565b602080601f83116001811461517857600084156151605750858301515b600019600386901b1c1916600185901b178555613b03565b600085815260208120601f198616915b828110156151a757888601518255948401946001909101908401615188565b50858210156151c55787850151600019600388901b60f8161c191681555b5050505050600190811b01905550565b60208082526039908201527f506f6c79676f6e5a6b45564d3a3a696e697469616c697a653a20457863656564604082015278081a185b1d081859d9dc9959d85d1a5bdb881d1a5b595bdd5d603a1b606082015260800190565b6000821982111561524157615241614e23565b500190565b60008235605e19833603018112614ef857600080fd5b60006060823603121561526e57600080fd5b604051606081016001600160401b03828210818311171561529157615291614bd3565b8160405284359150808211156152a657600080fd5b506152b336828601614be9565b825250602083013560208201526152cc6040840161491a565b604082015292915050565b6020808252603c908201527f506f6c79676f6e5a6b45564d3a3a6f6e6c79547275737465644167677265676160408201527f746f723a204f6e6c7920747275737465642061676772656761746f7200000000606082015260800190565b8183823760009101908152919050565b8481526001600160a01b03841660208201526060604082018190528101829052818360808301376000818301608090810191909152601f909201601f191601019392505050565b60006001600160401b03808416806153a5576153a56150a6565b92169190910492915050565b60008251614ef8818460208701614884565b6000826153d2576153d26150a6565b500690565b61012081016040808784376000838201818152879190815b600281101561540f578484833790840182815292840192906001016153ef565b5050828760c0870137610100850181815286935091505b6001811015615445578251825260209283019290910190600101615426565b50505095945050505050565b60006020828403121561546357600080fd5b815180151581146148ef57600080fd5b600181815b808511156154ae57816000190482111561549457615494614e23565b808516156154a157918102915b93841c9390800290615478565b509250929050565b6000826154c557506001614a4f565b816154d257506000614a4f565b81600181146154e857600281146154f25761550e565b6001915050614a4f565b60ff84111561550357615503614e23565b50506001821b614a4f565b5060208310610133831016604e8410600b8410161715615531575081810a614a4f565b61553b8383615473565b806000190482111561554f5761554f614e23565b029392505050565b60006148ef83836154b656fe506f6c79676f6e5a6b45564d3a3a6163746976617465456d657267656e637953506f6c79676f6e5a6b45564d3a3a5f766572696679426174636865733a20696e506f6c79676f6e5a6b45564d3a3a5f70726f766544697374696e637450656e64506f6c79676f6e5a6b45564d3a3a73657175656e6365466f7263654261746368506f6c79676f6e5a6b45564d3a3a73657175656e6365426174636865733a2046a2646970667358221220558af3a697ec91e5303b7089aad0ade91f0b88835d109ba9e3c2c6b12637c38664736f6c634300080f0033",
  "linkReferences": {},
  "deployedLinkReferences": {}
}