{
  "_format": "hh-sol-artifact-1",
  "contractName": "PolygonValidiumEtrog",
  "sourceName": "contracts/v2/consensus/validium/PolygonValidiumEtrog.sol",
  "abi": [
    {
      "inputs": [
        {
          "internalType": "contract IPolygonZkEVMGlobalExitRootV2",
          "name": "_globalExitRootManager",
          "type": "address"
        },
        {
          "internalType": "contract IERC20Upgradeable",
          "name": "_pol",
          "type": "address"
        },
        {
          "internalType": "contract IPolygonZkEVMBridgeV2",
          "name": "_bridgeAddress",
          "type": "address"
        },
        {
          "internalType": "contract PolygonRollupManager",
          "name": "_rollupManager",
          "type": "address"
        }
      ],
      "stateMutability": "nonpayable",
      "type": "constructor"
    },
    {
      "inputs": [],
      "name": "BatchAlreadyVerified",
      "type": "error"
    },
    {
      "inputs": [],
      "name": "BatchNotSequencedOrNotSequenceEnd",
      "type": "error"
    },
    {
      "inputs": [],
      "name": "ExceedMaxVerifyBatches",
      "type": "error"
    },
    {
      "inputs": [],
      "name": "FinalNumBatchBelowLastVerifiedBatch",
      "type": "error"
    },
    {
      "inputs": [],
      "name": "FinalNumBatchDoesNotMatchPendingState",
      "type": "error"
    },
    {
      "inputs": [],
      "name": "FinalPendingStateNumInvalid",
      "type": "error"
    },
    {
      "inputs": [],
      "name": "ForceBatchNotAllowed",
      "type": "error"
    },
    {
      "inputs": [],
      "name": "ForceBatchTimeoutNotExpired",
      "type": "error"
    },
    {
      "inputs": [],
      "name": "ForceBatchesAlreadyActive",
      "type": "error"
    },
    {
      "inputs": [],
      "name": "ForceBatchesDecentralized",
      "type": "error"
    },
    {
      "inputs": [],
      "name": "ForceBatchesNotAllowedOnEmergencyState",
      "type": "error"
    },
    {
      "inputs": [],
      "name": "ForceBatchesOverflow",
      "type": "error"
    },
    {
      "inputs": [],
      "name": "ForcedDataDoesNotMatch",
      "type": "error"
    },
    {
      "inputs": [],
      "name": "GasTokenNetworkMustBeZeroOnEther",
      "type": "error"
    },
    {
      "inputs": [],
      "name": "GlobalExitRootNotExist",
      "type": "error"
    },
    {
      "inputs": [],
      "name": "HaltTimeoutNotExpired",
      "type": "error"
    },
    {
      "inputs": [],
      "name": "HaltTimeoutNotExpiredAfterEmergencyState",
      "type": "error"
    },
    {
      "inputs": [],
      "name": "HugeTokenMetadataNotSupported",
      "type": "error"
    },
    {
      "inputs": [],
      "name": "InitNumBatchAboveLastVerifiedBatch",
      "type": "error"
    },
    {
      "inputs": [],
      "name": "InitNumBatchDoesNotMatchPendingState",
      "type": "error"
    },
    {
      "inputs": [],
      "name": "InitSequencedBatchDoesNotMatch",
      "type": "error"
    },
    {
      "inputs": [],
      "name": "InvalidInitializeTransaction",
      "type": "error"
    },
    {
      "inputs": [],
      "name": "InvalidProof",
      "type": "error"
    },
    {
      "inputs": [],
      "name": "InvalidRangeBatchTimeTarget",
      "type": "error"
    },
    {
      "inputs": [],
      "name": "InvalidRangeForceBatchTimeout",
      "type": "error"
    },
    {
      "inputs": [],
      "name": "InvalidRangeMultiplierBatchFee",
      "type": "error"
    },
    {
      "inputs": [],
      "name": "MaxTimestampSequenceInvalid",
      "type": "error"
    },
    {
      "inputs": [],
      "name": "NewAccInputHashDoesNotExist",
      "type": "error"
    },
    {
      "inputs": [],
      "name": "NewPendingStateTimeoutMustBeLower",
      "type": "error"
    },
    {
      "inputs": [],
      "name": "NewStateRootNotInsidePrime",
      "type": "error"
    },
    {
      "inputs": [],
      "name": "NewTrustedAggregatorTimeoutMustBeLower",
      "type": "error"
    },
    {
      "inputs": [],
      "name": "NotEnoughMaticAmount",
      "type": "error"
    },
    {
      "inputs": [],
      "name": "NotEnoughPOLAmount",
      "type": "error"
    },
    {
      "inputs": [],
      "name": "OldAccInputHashDoesNotExist",
      "type": "error"
    },
    {
      "inputs": [],
      "name": "OldStateRootDoesNotExist",
      "type": "error"
    },
    {
      "inputs": [],
      "name": "OnlyAdmin",
      "type": "error"
    },
    {
      "inputs": [],
      "name": "OnlyPendingAdmin",
      "type": "error"
    },
    {
      "inputs": [],
      "name": "OnlyRollupManager",
      "type": "error"
    },
    {
      "inputs": [],
      "name": "OnlyTrustedAggregator",
      "type": "error"
    },
    {
      "inputs": [],
      "name": "OnlyTrustedSequencer",
      "type": "error"
    },
    {
      "inputs": [],
      "name": "PendingStateDoesNotExist",
      "type": "error"
    },
    {
      "inputs": [],
      "name": "PendingStateInvalid",
      "type": "error"
    },
    {
      "inputs": [],
      "name": "PendingStateNotConsolidable",
      "type": "error"
    },
    {
      "inputs": [],
      "name": "PendingStateTimeoutExceedHaltAggregationTimeout",
      "type": "error"
    },
    {
      "inputs": [],
      "name": "SequenceWithDataAvailabilityNotAllowed",
      "type": "error"
    },
    {
      "inputs": [],
      "name": "SequenceZeroBatches",
      "type": "error"
    },
    {
      "inputs": [],
      "name": "SequencedTimestampBelowForcedTimestamp",
      "type": "error"
    },
    {
      "inputs": [],
      "name": "SequencedTimestampInvalid",
      "type": "error"
    },
    {
      "inputs": [],
      "name": "StoredRootMustBeDifferentThanNewRoot",
      "type": "error"
    },
    {
      "inputs": [],
      "name": "SwitchToSameValue",
      "type": "error"
    },
    {
      "inputs": [],
      "name": "TransactionsLengthAboveMax",
      "type": "error"
    },
    {
      "inputs": [],
      "name": "TrustedAggregatorTimeoutExceedHaltAggregationTimeout",
      "type": "error"
    },
    {
      "inputs": [],
      "name": "TrustedAggregatorTimeoutNotExpired",
      "type": "error"
    },
    {
      "anonymous": false,
      "inputs": [
        {
          "indexed": false,
          "internalType": "address",
          "name": "newAdmin",
          "type": "address"
        }
      ],
      "name": "AcceptAdminRole",
      "type": "event"
    },
    {
      "anonymous": false,
      "inputs": [
        {
          "indexed": true,
          "internalType": "uint64",
          "name": "forceBatchNum",
          "type": "uint64"
        },
        {
          "indexed": false,
          "internalType": "bytes32",
          "name": "lastGlobalExitRoot",
          "type": "bytes32"
        },
        {
          "indexed": false,
          "internalType": "address",
          "name": "sequencer",
          "type": "address"
        },
        {
          "indexed": false,
          "internalType": "bytes",
          "name": "transactions",
          "type": "bytes"
        }
      ],
      "name": "ForceBatch",
      "type": "event"
    },
    {
      "anonymous": false,
      "inputs": [
        {
          "indexed": false,
          "internalType": "bytes",
          "name": "transactions",
          "type": "bytes"
        },
        {
          "indexed": false,
          "internalType": "bytes32",
          "name": "lastGlobalExitRoot",
          "type": "bytes32"
        },
        {
          "indexed": false,
          "internalType": "address",
          "name": "sequencer",
          "type": "address"
        }
      ],
      "name": "InitialSequenceBatches",
      "type": "event"
    },
    {
      "anonymous": false,
      "inputs": [
        {
          "indexed": false,
          "internalType": "uint8",
          "name": "version",
          "type": "uint8"
        }
      ],
      "name": "Initialized",
      "type": "event"
    },
    {
      "anonymous": false,
      "inputs": [
        {
          "indexed": true,
          "internalType": "uint64",
          "name": "numBatch",
          "type": "uint64"
        },
        {
          "indexed": false,
          "internalType": "bytes32",
          "name": "l1InfoRoot",
          "type": "bytes32"
        }
      ],
      "name": "SequenceBatches",
      "type": "event"
    },
    {
      "anonymous": false,
      "inputs": [
        {
          "indexed": true,
          "internalType": "uint64",
          "name": "numBatch",
          "type": "uint64"
        }
      ],
      "name": "SequenceForceBatches",
      "type": "event"
    },
    {
      "anonymous": false,
      "inputs": [
        {
          "indexed": false,
          "internalType": "address",
          "name": "newDataAvailabilityProtocol",
          "type": "address"
        }
      ],
      "name": "SetDataAvailabilityProtocol",
      "type": "event"
    },
    {
      "anonymous": false,
      "inputs": [
        {
          "indexed": false,
          "internalType": "address",
          "name": "newForceBatchAddress",
          "type": "address"
        }
      ],
      "name": "SetForceBatchAddress",
      "type": "event"
    },
    {
      "anonymous": false,
      "inputs": [
        {
          "indexed": false,
          "internalType": "uint64",
          "name": "newforceBatchTimeout",
          "type": "uint64"
        }
      ],
      "name": "SetForceBatchTimeout",
      "type": "event"
    },
    {
      "anonymous": false,
      "inputs": [
        {
          "indexed": false,
          "internalType": "address",
          "name": "newTrustedSequencer",
          "type": "address"
        }
      ],
      "name": "SetTrustedSequencer",
      "type": "event"
    },
    {
      "anonymous": false,
      "inputs": [
        {
          "indexed": false,
          "internalType": "string",
          "name": "newTrustedSequencerURL",
          "type": "string"
        }
      ],
      "name": "SetTrustedSequencerURL",
      "type": "event"
    },
    {
      "anonymous": false,
      "inputs": [],
      "name": "SwitchSequenceWithDataAvailability",
      "type": "event"
    },
    {
      "anonymous": false,
      "inputs": [
        {
          "indexed": false,
          "internalType": "address",
          "name": "newPendingAdmin",
          "type": "address"
        }
      ],
      "name": "TransferAdminRole",
      "type": "event"
    },
    {
      "anonymous": false,
      "inputs": [
        {
          "indexed": true,
          "internalType": "uint64",
          "name": "numBatch",
          "type": "uint64"
        },
        {
          "indexed": false,
          "internalType": "bytes32",
          "name": "stateRoot",
          "type": "bytes32"
        },
        {
          "indexed": true,
          "internalType": "address",
          "name": "aggregator",
          "type": "address"
        }
      ],
      "name": "VerifyBatches",
      "type": "event"
    },
    {
      "inputs": [],
      "name": "GLOBAL_EXIT_ROOT_MANAGER_L2",
      "outputs": [
        {
          "internalType": "contract IBasePolygonZkEVMGlobalExitRoot",
          "name": "",
          "type": "address"
        }
      ],
      "stateMutability": "view",
      "type": "function"
    },
    {
      "inputs": [],
      "name": "INITIALIZE_TX_BRIDGE_LIST_LEN_LEN",
      "outputs": [
        {
          "internalType": "uint8",
          "name": "",
          "type": "uint8"
        }
      ],
      "stateMutability": "view",
      "type": "function"
    },
    {
      "inputs": [],
      "name": "INITIALIZE_TX_BRIDGE_PARAMS",
      "outputs": [
        {
          "internalType": "bytes",
          "name": "",
          "type": "bytes"
        }
      ],
      "stateMutability": "view",
      "type": "function"
    },
    {
      "inputs": [],
      "name": "INITIALIZE_TX_BRIDGE_PARAMS_AFTER_BRIDGE_ADDRESS",
      "outputs": [
        {
          "internalType": "bytes",
          "name": "",
          "type": "bytes"
        }
      ],
      "stateMutability": "view",
      "type": "function"
    },
    {
      "inputs": [],
      "name": "INITIALIZE_TX_BRIDGE_PARAMS_AFTER_BRIDGE_ADDRESS_EMPTY_METADATA",
      "outputs": [
        {
          "internalType": "bytes",
          "name": "",
          "type": "bytes"
        }
      ],
      "stateMutability": "view",
      "type": "function"
    },
    {
      "inputs": [],
      "name": "INITIALIZE_TX_CONSTANT_BYTES",
      "outputs": [
        {
          "internalType": "uint16",
          "name": "",
          "type": "uint16"
        }
      ],
      "stateMutability": "view",
      "type": "function"
    },
    {
      "inputs": [],
      "name": "INITIALIZE_TX_CONSTANT_BYTES_EMPTY_METADATA",
      "outputs": [
        {
          "internalType": "uint16",
          "name": "",
          "type": "uint16"
        }
      ],
      "stateMutability": "view",
      "type": "function"
    },
    {
      "inputs": [],
      "name": "INITIALIZE_TX_DATA_LEN_EMPTY_METADATA",
      "outputs": [
        {
          "internalType": "uint8",
          "name": "",
          "type": "uint8"
        }
      ],
      "stateMutability": "view",
      "type": "function"
    },
    {
      "inputs": [],
      "name": "INITIALIZE_TX_EFFECTIVE_PERCENTAGE",
      "outputs": [
        {
          "internalType": "bytes1",
          "name": "",
          "type": "bytes1"
        }
      ],
      "stateMutability": "view",
      "type": "function"
    },
    {
      "inputs": [],
      "name": "SIGNATURE_INITIALIZE_TX_R",
      "outputs": [
        {
          "internalType": "bytes32",
          "name": "",
          "type": "bytes32"
        }
      ],
      "stateMutability": "view",
      "type": "function"
    },
    {
      "inputs": [],
      "name": "SIGNATURE_INITIALIZE_TX_S",
      "outputs": [
        {
          "internalType": "bytes32",
          "name": "",
          "type": "bytes32"
        }
      ],
      "stateMutability": "view",
      "type": "function"
    },
    {
      "inputs": [],
      "name": "SIGNATURE_INITIALIZE_TX_V",
      "outputs": [
        {
          "internalType": "uint8",
          "name": "",
          "type": "uint8"
        }
      ],
      "stateMutability": "view",
      "type": "function"
    },
    {
      "inputs": [],
      "name": "TIMESTAMP_RANGE",
      "outputs": [
        {
          "internalType": "uint256",
          "name": "",
          "type": "uint256"
        }
      ],
      "stateMutability": "view",
      "type": "function"
    },
    {
      "inputs": [],
      "name": "acceptAdminRole",
      "outputs": [],
      "stateMutability": "nonpayable",
      "type": "function"
    },
    {
      "inputs": [],
      "name": "admin",
      "outputs": [
        {
          "internalType": "address",
          "name": "",
          "type": "address"
        }
      ],
      "stateMutability": "view",
      "type": "function"
    },
    {
      "inputs": [],
      "name": "bridgeAddress",
      "outputs": [
        {
          "internalType": "contract IPolygonZkEVMBridgeV2",
          "name": "",
          "type": "address"
        }
      ],
      "stateMutability": "view",
      "type": "function"
    },
    {
      "inputs": [],
      "name": "calculatePolPerForceBatch",
      "outputs": [
        {
          "internalType": "uint256",
          "name": "",
          "type": "uint256"
        }
      ],
      "stateMutability": "view",
      "type": "function"
    },
    {
      "inputs": [],
      "name": "dataAvailabilityProtocol",
      "outputs": [
        {
          "internalType": "contract IDataAvailabilityProtocol",
          "name": "",
          "type": "address"
        }
      ],
      "stateMutability": "view",
      "type": "function"
    },
    {
      "inputs": [
        {
          "internalType": "bytes",
          "name": "transactions",
          "type": "bytes"
        },
        {
          "internalType": "uint256",
          "name": "polAmount",
          "type": "uint256"
        }
      ],
      "name": "forceBatch",
      "outputs": [],
      "stateMutability": "nonpayable",
      "type": "function"
    },
    {
      "inputs": [],
      "name": "forceBatchAddress",
      "outputs": [
        {
          "internalType": "address",
          "name": "",
          "type": "address"
        }
      ],
      "stateMutability": "view",
      "type": "function"
    },
    {
      "inputs": [],
      "name": "forceBatchTimeout",
      "outputs": [
        {
          "internalType": "uint64",
          "name": "",
          "type": "uint64"
        }
      ],
      "stateMutability": "view",
      "type": "function"
    },
    {
      "inputs": [
        {
          "internalType": "uint64",
          "name": "",
          "type": "uint64"
        }
      ],
      "name": "forcedBatches",
      "outputs": [
        {
          "internalType": "bytes32",
          "name": "",
          "type": "bytes32"
        }
      ],
      "stateMutability": "view",
      "type": "function"
    },
    {
      "inputs": [],
      "name": "gasTokenAddress",
      "outputs": [
        {
          "internalType": "address",
          "name": "",
          "type": "address"
        }
      ],
      "stateMutability": "view",
      "type": "function"
    },
    {
      "inputs": [],
      "name": "gasTokenNetwork",
      "outputs": [
        {
          "internalType": "uint32",
          "name": "",
          "type": "uint32"
        }
      ],
      "stateMutability": "view",
      "type": "function"
    },
    {
      "inputs": [
        {
          "internalType": "uint32",
          "name": "networkID",
          "type": "uint32"
        },
        {
          "internalType": "address",
          "name": "_gasTokenAddress",
          "type": "address"
        },
        {
          "internalType": "uint32",
          "name": "_gasTokenNetwork",
          "type": "uint32"
        },
        {
          "internalType": "bytes",
          "name": "_gasTokenMetadata",
          "type": "bytes"
        }
      ],
      "name": "generateInitializeTransaction",
      "outputs": [
        {
          "internalType": "bytes",
          "name": "",
          "type": "bytes"
        }
      ],
      "stateMutability": "view",
      "type": "function"
    },
    {
      "inputs": [],
      "name": "globalExitRootManager",
      "outputs": [
        {
          "internalType": "contract IPolygonZkEVMGlobalExitRootV2",
          "name": "",
          "type": "address"
        }
      ],
      "stateMutability": "view",
      "type": "function"
    },
    {
      "inputs": [
        {
          "internalType": "address",
          "name": "_admin",
          "type": "address"
        },
        {
          "internalType": "address",
          "name": "sequencer",
          "type": "address"
        },
        {
          "internalType": "uint32",
          "name": "networkID",
          "type": "uint32"
        },
        {
          "internalType": "address",
          "name": "_gasTokenAddress",
          "type": "address"
        },
        {
          "internalType": "string",
          "name": "sequencerURL",
          "type": "string"
        },
        {
          "internalType": "string",
          "name": "_networkName",
          "type": "string"
        }
      ],
      "name": "initialize",
      "outputs": [],
      "stateMutability": "nonpayable",
      "type": "function"
    },
    {
      "inputs": [],
      "name": "isSequenceWithDataAvailabilityAllowed",
      "outputs": [
        {
          "internalType": "bool",
          "name": "",
          "type": "bool"
        }
      ],
      "stateMutability": "view",
      "type": "function"
    },
    {
      "inputs": [],
      "name": "lastAccInputHash",
      "outputs": [
        {
          "internalType": "bytes32",
          "name": "",
          "type": "bytes32"
        }
      ],
      "stateMutability": "view",
      "type": "function"
    },
    {
      "inputs": [],
      "name": "lastForceBatch",
      "outputs": [
        {
          "internalType": "uint64",
          "name": "",
          "type": "uint64"
        }
      ],
      "stateMutability": "view",
      "type": "function"
    },
    {
      "inputs": [],
      "name": "lastForceBatchSequenced",
      "outputs": [
        {
          "internalType": "uint64",
          "name": "",
          "type": "uint64"
        }
      ],
      "stateMutability": "view",
      "type": "function"
    },
    {
      "inputs": [],
      "name": "networkName",
      "outputs": [
        {
          "internalType": "string",
          "name": "",
          "type": "string"
        }
      ],
      "stateMutability": "view",
      "type": "function"
    },
    {
      "inputs": [
        {
          "internalType": "uint64",
          "name": "lastVerifiedBatch",
          "type": "uint64"
        },
        {
          "internalType": "bytes32",
          "name": "newStateRoot",
          "type": "bytes32"
        },
        {
          "internalType": "address",
          "name": "aggregator",
          "type": "address"
        }
      ],
      "name": "onVerifyBatches",
      "outputs": [],
      "stateMutability": "nonpayable",
      "type": "function"
    },
    {
      "inputs": [],
      "name": "pendingAdmin",
      "outputs": [
        {
          "internalType": "address",
          "name": "",
          "type": "address"
        }
      ],
      "stateMutability": "view",
      "type": "function"
    },
    {
      "inputs": [],
      "name": "pol",
      "outputs": [
        {
          "internalType": "contract IERC20Upgradeable",
          "name": "",
          "type": "address"
        }
      ],
      "stateMutability": "view",
      "type": "function"
    },
    {
      "inputs": [],
      "name": "rollupManager",
      "outputs": [
        {
          "internalType": "contract PolygonRollupManager",
          "name": "",
          "type": "address"
        }
      ],
      "stateMutability": "view",
      "type": "function"
    },
    {
      "inputs": [
        {
          "components": [
            {
              "internalType": "bytes",
              "name": "transactions",
              "type": "bytes"
            },
            {
              "internalType": "bytes32",
              "name": "forcedGlobalExitRoot",
              "type": "bytes32"
            },
            {
              "internalType": "uint64",
              "name": "forcedTimestamp",
              "type": "uint64"
            },
            {
              "internalType": "bytes32",
              "name": "forcedBlockHashL1",
              "type": "bytes32"
            }
          ],
          "internalType": "struct PolygonRollupBaseEtrog.BatchData[]",
          "name": "batches",
          "type": "tuple[]"
        },
        {
          "internalType": "uint64",
          "name": "maxSequenceTimestamp",
          "type": "uint64"
        },
        {
          "internalType": "uint64",
          "name": "initSequencedBatch",
          "type": "uint64"
        },
        {
          "internalType": "address",
          "name": "l2Coinbase",
          "type": "address"
        }
      ],
      "name": "sequenceBatches",
      "outputs": [],
      "stateMutability": "nonpayable",
      "type": "function"
    },
    {
      "inputs": [
        {
          "components": [
            {
              "internalType": "bytes32",
              "name": "transactionsHash",
              "type": "bytes32"
            },
            {
              "internalType": "bytes32",
              "name": "forcedGlobalExitRoot",
              "type": "bytes32"
            },
            {
              "internalType": "uint64",
              "name": "forcedTimestamp",
              "type": "uint64"
            },
            {
              "internalType": "bytes32",
              "name": "forcedBlockHashL1",
              "type": "bytes32"
            }
          ],
          "internalType": "struct PolygonValidiumEtrog.ValidiumBatchData[]",
          "name": "batches",
          "type": "tuple[]"
        },
        {
          "internalType": "uint64",
          "name": "maxSequenceTimestamp",
          "type": "uint64"
        },
        {
          "internalType": "uint64",
          "name": "initSequencedBatch",
          "type": "uint64"
        },
        {
          "internalType": "address",
          "name": "l2Coinbase",
          "type": "address"
        },
        {
          "internalType": "bytes",
          "name": "dataAvailabilityMessage",
          "type": "bytes"
        }
      ],
      "name": "sequenceBatchesValidium",
      "outputs": [],
      "stateMutability": "nonpayable",
      "type": "function"
    },
    {
      "inputs": [
        {
          "components": [
            {
              "internalType": "bytes",
              "name": "transactions",
              "type": "bytes"
            },
            {
              "internalType": "bytes32",
              "name": "forcedGlobalExitRoot",
              "type": "bytes32"
            },
            {
              "internalType": "uint64",
              "name": "forcedTimestamp",
              "type": "uint64"
            },
            {
              "internalType": "bytes32",
              "name": "forcedBlockHashL1",
              "type": "bytes32"
            }
          ],
          "internalType": "struct PolygonRollupBaseEtrog.BatchData[]",
          "name": "batches",
          "type": "tuple[]"
        }
      ],
      "name": "sequenceForceBatches",
      "outputs": [],
      "stateMutability": "nonpayable",
      "type": "function"
    },
    {
      "inputs": [
        {
          "internalType": "contract IDataAvailabilityProtocol",
          "name": "newDataAvailabilityProtocol",
          "type": "address"
        }
      ],
      "name": "setDataAvailabilityProtocol",
      "outputs": [],
      "stateMutability": "nonpayable",
      "type": "function"
    },
    {
      "inputs": [
        {
          "internalType": "address",
          "name": "newForceBatchAddress",
          "type": "address"
        }
      ],
      "name": "setForceBatchAddress",
      "outputs": [],
      "stateMutability": "nonpayable",
      "type": "function"
    },
    {
      "inputs": [
        {
          "internalType": "uint64",
          "name": "newforceBatchTimeout",
          "type": "uint64"
        }
      ],
      "name": "setForceBatchTimeout",
      "outputs": [],
      "stateMutability": "nonpayable",
      "type": "function"
    },
    {
      "inputs": [
        {
          "internalType": "address",
          "name": "newTrustedSequencer",
          "type": "address"
        }
      ],
      "name": "setTrustedSequencer",
      "outputs": [],
      "stateMutability": "nonpayable",
      "type": "function"
    },
    {
      "inputs": [
        {
          "internalType": "string",
          "name": "newTrustedSequencerURL",
          "type": "string"
        }
      ],
      "name": "setTrustedSequencerURL",
      "outputs": [],
      "stateMutability": "nonpayable",
      "type": "function"
    },
    {
      "inputs": [
        {
          "internalType": "bool",
          "name": "newIsSequenceWithDataAvailabilityAllowed",
          "type": "bool"
        }
      ],
      "name": "switchSequenceWithDataAvailability",
      "outputs": [],
      "stateMutability": "nonpayable",
      "type": "function"
    },
    {
      "inputs": [
        {
          "internalType": "address",
          "name": "newPendingAdmin",
          "type": "address"
        }
      ],
      "name": "transferAdminRole",
      "outputs": [],
      "stateMutability": "nonpayable",
      "type": "function"
    },
    {
      "inputs": [],
      "name": "trustedSequencer",
      "outputs": [
        {
          "internalType": "address",
          "name": "",
          "type": "address"
        }
      ],
      "stateMutability": "view",
      "type": "function"
    },
    {
      "inputs": [],
      "name": "trustedSequencerURL",
      "outputs": [
        {
          "internalType": "string",
          "name": "",
          "type": "string"
        }
      ],
      "stateMutability": "view",
      "type": "function"
    }
  ],
  "bytecode": "0x61010060405234801562000011575f80fd5b50604051620050e6380380620050e683398101604081905262000034916200006f565b6001600160a01b0393841660a052918316608052821660c0521660e052620000d4565b6001600160a01b03811681146200006c575f80fd5b50565b5f805f806080858703121562000083575f80fd5b8451620000908162000057565b6020860151909450620000a38162000057565b6040860151909350620000b68162000057565b6060860151909250620000c98162000057565b939692955090935050565b60805160a05160c05160e051614f05620001e15f395f818161053b01528181610b3801528181610ca401528181610eec015281816114be01528181611a2201528181611e7101528181611f6601528181612b4801528181612bc701528181612be901528181612d8501528181612f900152818161305501528181613ae701528181613b6001528181613b820152613c2a01525f81816106dc015281816110e0015281816111b5015281816121300152818161223801528181612683015261363501525f818161079801528181611335015281816126ff0152818161319d01526136b101525f81816107f0015281816108cd01528181611eba01528181612c9501526131720152614f055ff3fe608060405234801561000f575f80fd5b506004361061030e575f3560e01c80637a5460c51161019d578063c89e42df116100e8578063e46761c411610093578063eaeb077b1161006e578063eaeb077b14610846578063f35dda4714610859578063f851a44014610861575f80fd5b8063e46761c4146107eb578063e57a0b4c14610812578063e7a7ed0214610832575f80fd5b8063d7bc90ff116100c3578063d7bc90ff146107ba578063db5b0ed7146107c5578063def57e54146107d8575f80fd5b8063c89e42df14610760578063cfa8ed4714610773578063d02103ca14610793575f80fd5b8063a3c573eb11610148578063b0afe15411610123578063b0afe15414610724578063c754c7ed14610730578063c7fffd4b14610758575f80fd5b8063a3c573eb146106d7578063a652f26c146106fe578063ada8f91914610711575f80fd5b806391cafe321161017857806391cafe32146106965780639e001877146106a95780639f26f840146106c4575f80fd5b80637a5460c51461063f5780637cd76b8b1461067b5780638c3d73011461068e575f80fd5b806342308fab1161025d578063542028d5116102085780636e05d2cd116101e35780636e05d2cd146106105780636ff512cc14610619578063712570221461062c575f80fd5b8063542028d5146105e1578063676870d2146105e95780636b8616ce146105f1575f80fd5b80634c21fef3116102385780634c21fef31461055d5780634e4877061461059257806352bdeb6d146105a5575f80fd5b806342308fab146104f557806345605267146104fd57806349b7b80214610536575f80fd5b80632acdc2b6116102bd5780633c351e10116102985780633c351e10146104405780633cbc795b1461046057806340b5de6c1461049d575f80fd5b80632acdc2b6146103f85780632c111c061461040d57806332c2d1531461042d575f80fd5b8063107bf28c116102ed578063107bf28c1461039157806311e892d41461039957806326782247146103b3575f80fd5b8062d0295d14610312578063035089631461032d57806305835f3714610348575b5f80fd5b61031a610886565b6040519081526020015b60405180910390f35b610335602081565b60405161ffff9091168152602001610324565b6103846040518060400160405280600881526020017f80808401c9c3809400000000000000000000000000000000000000000000000081525081565b6040516103249190614034565b61038461098c565b6103a160f981565b60405160ff9091168152602001610324565b6001546103d39073ffffffffffffffffffffffffffffffffffffffff1681565b60405173ffffffffffffffffffffffffffffffffffffffff9091168152602001610324565b61040b61040636600461405d565b610a18565b005b6008546103d39073ffffffffffffffffffffffffffffffffffffffff1681565b61040b61043b3660046140c9565b610b36565b6009546103d39073ffffffffffffffffffffffffffffffffffffffff1681565b6009546104889074010000000000000000000000000000000000000000900463ffffffff1681565b60405163ffffffff9091168152602001610324565b6104c47fff0000000000000000000000000000000000000000000000000000000000000081565b6040517fff000000000000000000000000000000000000000000000000000000000000009091168152602001610324565b61031a602481565b60075461051d9068010000000000000000900467ffffffffffffffff1681565b60405167ffffffffffffffff9091168152602001610324565b6103d37f000000000000000000000000000000000000000000000000000000000000000081565b603c546105829074010000000000000000000000000000000000000000900460ff1681565b6040519015158152602001610324565b61040b6105a0366004614108565b610c05565b6103846040518060400160405280600281526020017f80b800000000000000000000000000000000000000000000000000000000000081525081565b610384610e14565b610335601f81565b61031a6105ff366004614108565b60066020525f908152604090205481565b61031a60055481565b61040b610627366004614123565b610e21565b61040b61063a36600461428b565b610eea565b6103846040518060400160405280600281526020017f80b900000000000000000000000000000000000000000000000000000000000081525081565b61040b610689366004614123565b6116f3565b61040b6117bc565b61040b6106a4366004614123565b61188e565b6103d373a40d5f56745a118d0906a34e69aec8c0db1cb8fa81565b61040b6106d236600461437a565b6119a6565b6103d37f000000000000000000000000000000000000000000000000000000000000000081565b61038461070c3660046143b9565b612032565b61040b61071f366004614123565b612410565b61031a6405ca1ab1e081565b60075461051d90700100000000000000000000000000000000900467ffffffffffffffff1681565b6103a160e481565b61040b61076e36600461442a565b6124d9565b6002546103d39073ffffffffffffffffffffffffffffffffffffffff1681565b6103d37f000000000000000000000000000000000000000000000000000000000000000081565b61031a635ca1ab1e81565b61040b6107d336600461449a565b61256b565b61040b6107e6366004614563565b612eb1565b6103d37f000000000000000000000000000000000000000000000000000000000000000081565b603c546103d39073ffffffffffffffffffffffffffffffffffffffff1681565b60075461051d9067ffffffffffffffff1681565b61040b6108543660046145db565b612f19565b6103a1601b81565b5f546103d39062010000900473ffffffffffffffffffffffffffffffffffffffff1681565b6040517f70a082310000000000000000000000000000000000000000000000000000000081523060048201525f90819073ffffffffffffffffffffffffffffffffffffffff7f000000000000000000000000000000000000000000000000000000000000000016906370a0823190602401602060405180830381865afa158015610912573d5f803e3d5ffd5b505050506040513d601f19601f820116820180604052508101906109369190614623565b6007549091505f906109609067ffffffffffffffff68010000000000000000820481169116614667565b67ffffffffffffffff169050805f0361097b575f9250505090565b610985818361468f565b9250505090565b60048054610999906146c7565b80601f01602080910402602001604051908101604052809291908181526020018280546109c5906146c7565b8015610a105780601f106109e757610100808354040283529160200191610a10565b820191905f5260205f20905b8154815290600101906020018083116109f357829003601f168201915b505050505081565b5f5462010000900473ffffffffffffffffffffffffffffffffffffffff163314610a6e576040517f4755657900000000000000000000000000000000000000000000000000000000815260040160405180910390fd5b603c5474010000000000000000000000000000000000000000900460ff16151581151503610ac8576040517f5f0e7abe00000000000000000000000000000000000000000000000000000000815260040160405180910390fd5b603c80547fffffffffffffffffffffff00ffffffffffffffffffffffffffffffffffffffff1674010000000000000000000000000000000000000000831515021790556040517ff32a0473f809a720a4f8af1e50d353f1caf7452030626fdaac4273f5e6587f41905f90a150565b7f000000000000000000000000000000000000000000000000000000000000000073ffffffffffffffffffffffffffffffffffffffff163314610ba5576040517fb9b3a2c800000000000000000000000000000000000000000000000000000000815260040160405180910390fd5b8073ffffffffffffffffffffffffffffffffffffffff168367ffffffffffffffff167f9c72852172521097ba7e1482e6b44b351323df0155f97f4ea18fcec28e1f596684604051610bf891815260200190565b60405180910390a3505050565b5f5462010000900473ffffffffffffffffffffffffffffffffffffffff163314610c5b576040517f4755657900000000000000000000000000000000000000000000000000000000815260040160405180910390fd5b62093a8067ffffffffffffffff82161115610ca2576040517ff5e37f2f00000000000000000000000000000000000000000000000000000000815260040160405180910390fd5b7f000000000000000000000000000000000000000000000000000000000000000073ffffffffffffffffffffffffffffffffffffffff166315064c966040518163ffffffff1660e01b8152600401602060405180830381865afa158015610d0b573d5f803e3d5ffd5b505050506040513d601f19601f82011682018060405250810190610d2f9190614718565b610d905760075467ffffffffffffffff700100000000000000000000000000000000909104811690821610610d90576040517ff5e37f2f00000000000000000000000000000000000000000000000000000000815260040160405180910390fd5b600780547fffffffffffffffff0000000000000000ffffffffffffffffffffffffffffffff1670010000000000000000000000000000000067ffffffffffffffff8416908102919091179091556040519081527fa7eb6cb8a613eb4e8bddc1ac3d61ec6cf10898760f0b187bcca794c6ca6fa40b906020015b60405180910390a150565b60038054610999906146c7565b5f5462010000900473ffffffffffffffffffffffffffffffffffffffff163314610e77576040517f4755657900000000000000000000000000000000000000000000000000000000815260040160405180910390fd5b600280547fffffffffffffffffffffffff00000000000000000000000000000000000000001673ffffffffffffffffffffffffffffffffffffffff83169081179091556040519081527ff54144f9611984021529f814a1cb6a41e22c58351510a0d9f7e822618abb9cc090602001610e09565b7f000000000000000000000000000000000000000000000000000000000000000073ffffffffffffffffffffffffffffffffffffffff163314610f59576040517fb9b3a2c800000000000000000000000000000000000000000000000000000000815260040160405180910390fd5b5f54610100900460ff1615808015610f7757505f54600160ff909116105b80610f905750303b158015610f9057505f5460ff166001145b611021576040517f08c379a000000000000000000000000000000000000000000000000000000000815260206004820152602e60248201527f496e697469616c697a61626c653a20636f6e747261637420697320616c72656160448201527f647920696e697469616c697a656400000000000000000000000000000000000060648201526084015b60405180910390fd5b5f80547fffffffffffffffffffffffffffffffffffffffffffffffffffffffffffffff00166001179055801561107d575f80547fffffffffffffffffffffffffffffffffffffffffffffffffffffffffffff00ff166101001790555b606073ffffffffffffffffffffffffffffffffffffffff8516156112da576040517fc00f14ab00000000000000000000000000000000000000000000000000000000815273ffffffffffffffffffffffffffffffffffffffff86811660048301527f0000000000000000000000000000000000000000000000000000000000000000169063c00f14ab906024015f60405180830381865afa158015611124573d5f803e3d5ffd5b505050506040513d5f823e601f3d9081017fffffffffffffffffffffffffffffffffffffffffffffffffffffffffffffffe01682016040526111699190810190614733565b6040517f318aee3d00000000000000000000000000000000000000000000000000000000815273ffffffffffffffffffffffffffffffffffffffff87811660048301529192505f9182917f00000000000000000000000000000000000000000000000000000000000000009091169063318aee3d906024016040805180830381865afa1580156111fb573d5f803e3d5ffd5b505050506040513d601f19601f8201168201806040525081019061121f91906147a5565b915091508163ffffffff165f14611296576009805463ffffffff841674010000000000000000000000000000000000000000027fffffffffffffffff00000000000000000000000000000000000000000000000090911673ffffffffffffffffffffffffffffffffffffffff8416171790556112d7565b600980547fffffffffffffffffffffffff00000000000000000000000000000000000000001673ffffffffffffffffffffffffffffffffffffffff89161790555b50505b6009545f9061132190889073ffffffffffffffffffffffffffffffffffffffff81169074010000000000000000000000000000000000000000900463ffffffff1685612032565b90505f818051906020012090505f4290505f7f000000000000000000000000000000000000000000000000000000000000000073ffffffffffffffffffffffffffffffffffffffff16633ed691ef6040518163ffffffff1660e01b8152600401602060405180830381865afa15801561139c573d5f803e3d5ffd5b505050506040513d601f19601f820116820180604052508101906113c09190614623565b90505f808483858f6113d36001436147dd565b60408051602081019790975286019490945260608086019390935260c09190911b7fffffffffffffffff000000000000000000000000000000000000000000000000166080850152901b7fffffffffffffffffffffffffffffffffffffffff00000000000000000000000016608883015240609c82015260bc01604080518083037fffffffffffffffffffffffffffffffffffffffffffffffffffffffffffffffe001815290829052805160209091012060058190557f9a908e73000000000000000000000000000000000000000000000000000000008252600160048301526024820181905291507f000000000000000000000000000000000000000000000000000000000000000073ffffffffffffffffffffffffffffffffffffffff1690639a908e73906044016020604051808303815f875af1158015611519573d5f803e3d5ffd5b505050506040513d601f19601f8201168201806040525081019061153d91906147f6565b508c5f60026101000a81548173ffffffffffffffffffffffffffffffffffffffff021916908373ffffffffffffffffffffffffffffffffffffffff1602179055508b60025f6101000a81548173ffffffffffffffffffffffffffffffffffffffff021916908373ffffffffffffffffffffffffffffffffffffffff16021790555088600390816115cd9190614856565b5060046115da8982614856565b508c60085f6101000a81548173ffffffffffffffffffffffffffffffffffffffff021916908373ffffffffffffffffffffffffffffffffffffffff16021790555062069780600760106101000a81548167ffffffffffffffff021916908367ffffffffffffffff1602179055507f060116213bcbf54ca19fd649dc84b59ab2bbd200ab199770e4d923e222a28e7f85838e60405161167a9392919061496e565b60405180910390a150505050505080156116ea575f80547fffffffffffffffffffffffffffffffffffffffffffffffffffffffffffff00ff169055604051600181527f7f26b83ff96e1f2b6a682f133852f6798a09c465da95921460cefb38474024989060200160405180910390a15b50505050505050565b5f5462010000900473ffffffffffffffffffffffffffffffffffffffff163314611749576040517f4755657900000000000000000000000000000000000000000000000000000000815260040160405180910390fd5b603c80547fffffffffffffffffffffffff00000000000000000000000000000000000000001673ffffffffffffffffffffffffffffffffffffffff83169081179091556040519081527fd331bd4c4cd1afecb94a225184bded161ff3213624ba4fb58c4f30c5a861144a90602001610e09565b60015473ffffffffffffffffffffffffffffffffffffffff16331461180d576040517fd1ec4b2300000000000000000000000000000000000000000000000000000000815260040160405180910390fd5b6001545f80547fffffffffffffffffffff0000000000000000000000000000000000000000ffff1673ffffffffffffffffffffffffffffffffffffffff9092166201000081029290921790556040519081527f056dc487bbf0795d0bbb1b4f0af523a855503cff740bfb4d5475f7a90c091e8e9060200160405180910390a1565b5f5462010000900473ffffffffffffffffffffffffffffffffffffffff1633146118e4576040517f4755657900000000000000000000000000000000000000000000000000000000815260040160405180910390fd5b60085473ffffffffffffffffffffffffffffffffffffffff16611933576040517fc89374d800000000000000000000000000000000000000000000000000000000815260040160405180910390fd5b600880547fffffffffffffffffffffffff00000000000000000000000000000000000000001673ffffffffffffffffffffffffffffffffffffffff83169081179091556040519081527f5fbd7dd171301c4a1611a84aac4ba86d119478560557755f7927595b082634fb90602001610e09565b60085473ffffffffffffffffffffffffffffffffffffffff1680158015906119e4575073ffffffffffffffffffffffffffffffffffffffff81163314155b15611a1b576040517f24eff8c300000000000000000000000000000000000000000000000000000000815260040160405180910390fd5b4262093a807f000000000000000000000000000000000000000000000000000000000000000073ffffffffffffffffffffffffffffffffffffffff166330c27dde6040518163ffffffff1660e01b8152600401602060405180830381865afa158015611a89573d5f803e3d5ffd5b505050506040513d601f19601f82011682018060405250810190611aad91906147f6565b611ab791906149ac565b67ffffffffffffffff161115611af9576040517f3d49ed4c00000000000000000000000000000000000000000000000000000000815260040160405180910390fd5b815f819003611b34576040517fcb591a5f00000000000000000000000000000000000000000000000000000000815260040160405180910390fd5b6103e8811115611b70576040517fb59f753a00000000000000000000000000000000000000000000000000000000815260040160405180910390fd5b60075467ffffffffffffffff80821691611b98918491680100000000000000009004166149cd565b1115611bd0576040517fc630a00d00000000000000000000000000000000000000000000000000000000815260040160405180910390fd5b6007546005546801000000000000000090910467ffffffffffffffff16905f5b83811015611e6b575f878783818110611c0b57611c0b6149e0565b9050602002810190611c1d9190614a0d565b611c2690614a49565b905083611c3281614ab4565b825180516020918201208185015160408087015160608801519151959a509295505f94611c9e948794929101938452602084019290925260c01b7fffffffffffffffff000000000000000000000000000000000000000000000000166040830152604882015260680190565b604080517fffffffffffffffffffffffffffffffffffffffffffffffffffffffffffffffe0818403018152918152815160209283012067ffffffffffffffff89165f90815260069093529120549091508114611d26576040517fce3d755e00000000000000000000000000000000000000000000000000000000815260040160405180910390fd5b67ffffffffffffffff86165f90815260066020526040812055611d4a6001886147dd565b8403611db95742600760109054906101000a900467ffffffffffffffff168460400151611d7791906149ac565b67ffffffffffffffff161115611db9576040517fc44a082100000000000000000000000000000000000000000000000000000000815260040160405180910390fd5b60208381015160408086015160608088015183519586018b90529285018790528481019390935260c01b7fffffffffffffffff0000000000000000000000000000000000000000000000001660808401523390911b7fffffffffffffffffffffffffffffffffffffffff000000000000000000000000166088830152609c82015260bc016040516020818303038152906040528051906020012094505050508080611e6390614ada565b915050611bf0565b50611ee17f000000000000000000000000000000000000000000000000000000000000000084611e99610886565b611ea39190614b11565b73ffffffffffffffffffffffffffffffffffffffff7f00000000000000000000000000000000000000000000000000000000000000001691906133e0565b60058190556007805467ffffffffffffffff841668010000000000000000027fffffffffffffffffffffffffffffffff0000000000000000ffffffffffffffff9091161790556040517f9a908e730000000000000000000000000000000000000000000000000000000081525f9073ffffffffffffffffffffffffffffffffffffffff7f00000000000000000000000000000000000000000000000000000000000000001690639a908e7390611fb2908790869060040167ffffffffffffffff929092168252602082015260400190565b6020604051808303815f875af1158015611fce573d5f803e3d5ffd5b505050506040513d601f19601f82011682018060405250810190611ff291906147f6565b60405190915067ffffffffffffffff8216907f648a61dd2438f072f5a1960939abd30f37aea80d2e94c9792ad142d3e0a490a4905f90a250505050505050565b60605f85858573a40d5f56745a118d0906a34e69aec8c0db1cb8fa5f8760405160240161206496959493929190614b28565b604080517fffffffffffffffffffffffffffffffffffffffffffffffffffffffffffffffe08184030181529190526020810180517bffffffffffffffffffffffffffffffffffffffffffffffffffffffff167ff811bff70000000000000000000000000000000000000000000000000000000017905283519091506060905f036121b45760f9601f83516120f89190614b8a565b6040518060400160405280600881526020017f80808401c9c380940000000000000000000000000000000000000000000000008152507f00000000000000000000000000000000000000000000000000000000000000006040518060400160405280600281526020017f80b800000000000000000000000000000000000000000000000000000000000081525060e48760405160200161219e9796959493929190614ba5565b60405160208183030381529060405290506122b8565b815161ffff10156121f1576040517f248b8f8200000000000000000000000000000000000000000000000000000000815260040160405180910390fd5b815160f9612200602083614b8a565b6040518060400160405280600881526020017f80808401c9c380940000000000000000000000000000000000000000000000008152507f00000000000000000000000000000000000000000000000000000000000000006040518060400160405280600281526020017f80b900000000000000000000000000000000000000000000000000000000000081525085886040516020016122a59796959493929190614c87565b6040516020818303038152906040529150505b8051602080830191909120604080515f80825293810180835292909252601b908201526405ca1ab1e06060820152635ca1ab1e608082015260019060a0016020604051602081039080840390855afa158015612316573d5f803e3d5ffd5b50506040517fffffffffffffffffffffffffffffffffffffffffffffffffffffffffffffffe0015191505073ffffffffffffffffffffffffffffffffffffffff811661238e576040517fcd16196600000000000000000000000000000000000000000000000000000000815260040160405180910390fd5b6040515f906123d39084906405ca1ab1e090635ca1ab1e90601b907fff0000000000000000000000000000000000000000000000000000000000000090602001614d69565b604080517fffffffffffffffffffffffffffffffffffffffffffffffffffffffffffffffe08184030181529190529450505050505b949350505050565b5f5462010000900473ffffffffffffffffffffffffffffffffffffffff163314612466576040517f4755657900000000000000000000000000000000000000000000000000000000815260040160405180910390fd5b600180547fffffffffffffffffffffffff00000000000000000000000000000000000000001673ffffffffffffffffffffffffffffffffffffffff83169081179091556040519081527fa5b56b7906fd0a20e3f35120dd8343db1e12e037a6c90111c7e42885e82a1ce690602001610e09565b5f5462010000900473ffffffffffffffffffffffffffffffffffffffff16331461252f576040517f4755657900000000000000000000000000000000000000000000000000000000815260040160405180910390fd5b600361253b8282614856565b507f6b8f723a4c7a5335cafae8a598a0aa0301be1387c037dccc085b62add6448b2081604051610e099190614034565b60025473ffffffffffffffffffffffffffffffffffffffff1633146125bc576040517f11e7be1500000000000000000000000000000000000000000000000000000000815260040160405180910390fd5b855f8190036125f7576040517fcb591a5f00000000000000000000000000000000000000000000000000000000815260040160405180910390fd5b6103e8811115612633576040517fb59f753a00000000000000000000000000000000000000000000000000000000815260040160405180910390fd5b61263e6024426149cd565b8667ffffffffffffffff161115612681576040517f0a00feb300000000000000000000000000000000000000000000000000000000815260040160405180910390fd5b7f000000000000000000000000000000000000000000000000000000000000000073ffffffffffffffffffffffffffffffffffffffff166379e2cf976040518163ffffffff1660e01b81526004015f604051808303815f87803b1580156126e6575f80fd5b505af11580156126f8573d5f803e3d5ffd5b505050505f7f000000000000000000000000000000000000000000000000000000000000000073ffffffffffffffffffffffffffffffffffffffff16635ca1e1656040518163ffffffff1660e01b8152600401602060405180830381865afa158015612766573d5f803e3d5ffd5b505050506040513d601f19601f8201168201806040525081019061278a9190614623565b60075460055491925068010000000000000000900467ffffffffffffffff1690815f805b86811015612abb575f8e8e838181106127c9576127c96149e0565b9050608002018036038101906127df9190614dc4565b604081015190915067ffffffffffffffff16156129cc578561280081614ab4565b9650505f815f01518260200151836040015184606001516040516020016128659493929190938452602084019290925260c01b7fffffffffffffffff000000000000000000000000000000000000000000000000166040830152604882015260680190565b604080517fffffffffffffffffffffffffffffffffffffffffffffffffffffffffffffffe0818403018152918152815160209283012067ffffffffffffffff8a165f908152600690935291205490915081146128ed576040517fce3d755e00000000000000000000000000000000000000000000000000000000815260040160405180910390fd5b85825f0151836020015184604001518f8660600151604051602001612986969594939291909586526020860194909452604085019290925260c01b7fffffffffffffffff000000000000000000000000000000000000000000000000166060808501919091521b7fffffffffffffffffffffffffffffffffffffffff000000000000000000000000166068830152607c820152609c0190565b60405160208183030381529060405280519060200120955060065f8867ffffffffffffffff1667ffffffffffffffff1681526020019081526020015f205f905550612aa8565b80516040516129e8918591602001918252602082015260400190565b60405160208183030381529060405280519060200120925084815f0151888f8e5f801b604051602001612a8f969594939291909586526020860194909452604085019290925260c01b7fffffffffffffffff000000000000000000000000000000000000000000000000166060808501919091521b7fffffffffffffffffffffffffffffffffffffffff000000000000000000000000166068830152607c820152609c0190565b6040516020818303038152906040528051906020012094505b5080612ab381614ada565b9150506127ae565b5060075467ffffffffffffffff9081169085161115612b06576040517fc630a00d00000000000000000000000000000000000000000000000000000000815260040160405180910390fd5b60058390558567ffffffffffffffff85811690841614612bbb575f612b2b8487614667565b9050612b4167ffffffffffffffff8216836147dd565b9150612b7a7f00000000000000000000000000000000000000000000000000000000000000008267ffffffffffffffff16611e99610886565b50600780547fffffffffffffffffffffffffffffffff0000000000000000ffffffffffffffff166801000000000000000067ffffffffffffffff8816021790555b8015612d4457612cbd337f0000000000000000000000000000000000000000000000000000000000000000837f000000000000000000000000000000000000000000000000000000000000000073ffffffffffffffffffffffffffffffffffffffff1663477fa2706040518163ffffffff1660e01b8152600401602060405180830381865afa158015612c50573d5f803e3d5ffd5b505050506040513d601f19601f82011682018060405250810190612c749190614623565b612c7e9190614b11565b73ffffffffffffffffffffffffffffffffffffffff7f0000000000000000000000000000000000000000000000000000000000000000169291906134b9565b603c546040517f3b51be4b00000000000000000000000000000000000000000000000000000000815273ffffffffffffffffffffffffffffffffffffffff90911690633b51be4b90612d179085908d908d90600401614e57565b5f6040518083038186803b158015612d2d575f80fd5b505afa158015612d3f573d5f803e3d5ffd5b505050505b6040517f9a908e7300000000000000000000000000000000000000000000000000000000815267ffffffffffffffff88166004820152602481018590525f907f000000000000000000000000000000000000000000000000000000000000000073ffffffffffffffffffffffffffffffffffffffff1690639a908e73906044016020604051808303815f875af1158015612de0573d5f803e3d5ffd5b505050506040513d601f19601f82011682018060405250810190612e0491906147f6565b9050612e108882614667565b67ffffffffffffffff168c67ffffffffffffffff1614612e5c576040517f1a070d9a00000000000000000000000000000000000000000000000000000000815260040160405180910390fd5b8067ffffffffffffffff167f3e54d0825ed78523037d00a81759237eb436ce774bd546993ee67a1b67b6e76688604051612e9891815260200190565b60405180910390a2505050505050505050505050505050565b603c5474010000000000000000000000000000000000000000900460ff16612f05576040517f821935b400000000000000000000000000000000000000000000000000000000815260040160405180910390fd5b612f12858585858561351d565b5050505050565b60085473ffffffffffffffffffffffffffffffffffffffff168015801590612f57575073ffffffffffffffffffffffffffffffffffffffff81163314155b15612f8e576040517f24eff8c300000000000000000000000000000000000000000000000000000000815260040160405180910390fd5b7f000000000000000000000000000000000000000000000000000000000000000073ffffffffffffffffffffffffffffffffffffffff166315064c966040518163ffffffff1660e01b8152600401602060405180830381865afa158015612ff7573d5f803e3d5ffd5b505050506040513d601f19601f8201168201806040525081019061301b9190614718565b15613052576040517f39258d1800000000000000000000000000000000000000000000000000000000815260040160405180910390fd5b5f7f000000000000000000000000000000000000000000000000000000000000000073ffffffffffffffffffffffffffffffffffffffff1663604691696040518163ffffffff1660e01b8152600401602060405180830381865afa1580156130bc573d5f803e3d5ffd5b505050506040513d601f19601f820116820180604052508101906130e09190614623565b90508281111561311c576040517f2354600f00000000000000000000000000000000000000000000000000000000815260040160405180910390fd5b611388841115613158576040517fa29a6c7c00000000000000000000000000000000000000000000000000000000815260040160405180910390fd5b61319a73ffffffffffffffffffffffffffffffffffffffff7f0000000000000000000000000000000000000000000000000000000000000000163330846134b9565b5f7f000000000000000000000000000000000000000000000000000000000000000073ffffffffffffffffffffffffffffffffffffffff16633ed691ef6040518163ffffffff1660e01b8152600401602060405180830381865afa158015613204573d5f803e3d5ffd5b505050506040513d601f19601f820116820180604052508101906132289190614623565b6007805491925067ffffffffffffffff909116905f61324683614ab4565b91906101000a81548167ffffffffffffffff021916908367ffffffffffffffff16021790555050858560405161327d929190614e70565b60405190819003902081426132936001436147dd565b60408051602081019590955284019290925260c01b7fffffffffffffffff000000000000000000000000000000000000000000000000166060830152406068820152608801604080517fffffffffffffffffffffffffffffffffffffffffffffffffffffffffffffffe0818403018152918152815160209283012060075467ffffffffffffffff165f9081526006909352912055323303613389576007546040805183815233602082015260608183018190525f90820152905167ffffffffffffffff909216917ff94bb37db835f1ab585ee00041849a09b12cd081d77fa15ca070757619cbc9319181900360800190a26133d8565b60075460405167ffffffffffffffff909116907ff94bb37db835f1ab585ee00041849a09b12cd081d77fa15ca070757619cbc931906133cf90849033908b908b90614e7f565b60405180910390a25b505050505050565b60405173ffffffffffffffffffffffffffffffffffffffff83166024820152604481018290526134b49084907fa9059cbb00000000000000000000000000000000000000000000000000000000906064015b604080517fffffffffffffffffffffffffffffffffffffffffffffffffffffffffffffffe08184030181529190526020810180517bffffffffffffffffffffffffffffffffffffffffffffffffffffffff167fffffffff0000000000000000000000000000000000000000000000000000000090931692909217909152613d53565b505050565b60405173ffffffffffffffffffffffffffffffffffffffff808516602483015283166044820152606481018290526135179085907f23b872dd0000000000000000000000000000000000000000000000000000000090608401613432565b50505050565b60025473ffffffffffffffffffffffffffffffffffffffff16331461356e576040517f11e7be1500000000000000000000000000000000000000000000000000000000815260040160405180910390fd5b835f8190036135a9576040517fcb591a5f00000000000000000000000000000000000000000000000000000000815260040160405180910390fd5b6103e88111156135e5576040517fb59f753a00000000000000000000000000000000000000000000000000000000815260040160405180910390fd5b6135f06024426149cd565b8467ffffffffffffffff161115613633576040517f0a00feb300000000000000000000000000000000000000000000000000000000815260040160405180910390fd5b7f000000000000000000000000000000000000000000000000000000000000000073ffffffffffffffffffffffffffffffffffffffff166379e2cf976040518163ffffffff1660e01b81526004015f604051808303815f87803b158015613698575f80fd5b505af11580156136aa573d5f803e3d5ffd5b505050505f7f000000000000000000000000000000000000000000000000000000000000000073ffffffffffffffffffffffffffffffffffffffff16635ca1e1656040518163ffffffff1660e01b8152600401602060405180830381865afa158015613718573d5f803e3d5ffd5b505050506040513d601f19601f8201168201806040525081019061373c9190614623565b60075460055491925068010000000000000000900467ffffffffffffffff1690815f5b85811015613a5a575f8b8b8381811061377a5761377a6149e0565b905060200281019061378c9190614a0d565b61379590614a49565b8051805160209091012060408201519192509067ffffffffffffffff161561397557856137c181614ab4565b9650505f818360200151846040015185606001516040516020016138239493929190938452602084019290925260c01b7fffffffffffffffff000000000000000000000000000000000000000000000000166040830152604882015260680190565b604080517fffffffffffffffffffffffffffffffffffffffffffffffffffffffffffffffe0818403018152918152815160209283012067ffffffffffffffff8a165f908152600690935291205490915081146138ab576040517fce3d755e00000000000000000000000000000000000000000000000000000000815260040160405180910390fd5b60208381015160408086015160608088015183519586018c90529285018790528481019390935260c01b7fffffffffffffffff000000000000000000000000000000000000000000000000166080840152908c901b7fffffffffffffffffffffffffffffffffffffffff000000000000000000000000166088830152609c82015260bc0160405160208183030381529060405280519060200120955060065f8867ffffffffffffffff1667ffffffffffffffff1681526020019081526020015f205f905550613a45565b8151516201d4c010156139b4576040517fa29a6c7c00000000000000000000000000000000000000000000000000000000815260040160405180910390fd5b6040805160208101879052908101829052606080820189905260c08d901b7fffffffffffffffff0000000000000000000000000000000000000000000000001660808301528a901b7fffffffffffffffffffffffffffffffffffffffff0000000000000000000000001660888201525f609c82015260bc016040516020818303038152906040528051906020012094505b50508080613a5290614ada565b91505061375f565b5060075467ffffffffffffffff9081169084161115613aa5576040517fc630a00d00000000000000000000000000000000000000000000000000000000815260040160405180910390fd5b60058290558467ffffffffffffffff84811690831614613b5a575f613aca8386614667565b9050613ae067ffffffffffffffff8216836147dd565b9150613b197f00000000000000000000000000000000000000000000000000000000000000008267ffffffffffffffff16611e99610886565b50600780547fffffffffffffffffffffffffffffffff0000000000000000ffffffffffffffff166801000000000000000067ffffffffffffffff8716021790555b613be9337f0000000000000000000000000000000000000000000000000000000000000000837f000000000000000000000000000000000000000000000000000000000000000073ffffffffffffffffffffffffffffffffffffffff1663477fa2706040518163ffffffff1660e01b8152600401602060405180830381865afa158015612c50573d5f803e3d5ffd5b6040517f9a908e7300000000000000000000000000000000000000000000000000000000815267ffffffffffffffff87166004820152602481018490525f907f000000000000000000000000000000000000000000000000000000000000000073ffffffffffffffffffffffffffffffffffffffff1690639a908e73906044016020604051808303815f875af1158015613c85573d5f803e3d5ffd5b505050506040513d601f19601f82011682018060405250810190613ca991906147f6565b9050613cb58782614667565b67ffffffffffffffff168967ffffffffffffffff1614613d01576040517f1a070d9a00000000000000000000000000000000000000000000000000000000815260040160405180910390fd5b8067ffffffffffffffff167f3e54d0825ed78523037d00a81759237eb436ce774bd546993ee67a1b67b6e76687604051613d3d91815260200190565b60405180910390a2505050505050505050505050565b5f613db4826040518060400160405280602081526020017f5361666545524332303a206c6f772d6c6576656c2063616c6c206661696c65648152508573ffffffffffffffffffffffffffffffffffffffff16613e5e9092919063ffffffff16565b8051909150156134b45780806020019051810190613dd29190614718565b6134b4576040517f08c379a000000000000000000000000000000000000000000000000000000000815260206004820152602a60248201527f5361666545524332303a204552433230206f7065726174696f6e20646964206e60448201527f6f742073756363656564000000000000000000000000000000000000000000006064820152608401611018565b606061240884845f85855f808673ffffffffffffffffffffffffffffffffffffffff168587604051613e909190614ebe565b5f6040518083038185875af1925050503d805f8114613eca576040519150601f19603f3d011682016040523d82523d5f602084013e613ecf565b606091505b5091509150613ee087838387613eeb565b979650505050505050565b60608315613f805782515f03613f795773ffffffffffffffffffffffffffffffffffffffff85163b613f79576040517f08c379a000000000000000000000000000000000000000000000000000000000815260206004820152601d60248201527f416464726573733a2063616c6c20746f206e6f6e2d636f6e74726163740000006044820152606401611018565b5081612408565b6124088383815115613f955781518083602001fd5b806040517f08c379a00000000000000000000000000000000000000000000000000000000081526004016110189190614034565b5f5b83811015613fe3578181015183820152602001613fcb565b50505f910152565b5f8151808452614002816020860160208601613fc9565b601f017fffffffffffffffffffffffffffffffffffffffffffffffffffffffffffffffe0169290920160200192915050565b602081525f6140466020830184613feb565b9392505050565b801515811461405a575f80fd5b50565b5f6020828403121561406d575f80fd5b81356140468161404d565b67ffffffffffffffff8116811461405a575f80fd5b803561409881614078565b919050565b73ffffffffffffffffffffffffffffffffffffffff8116811461405a575f80fd5b80356140988161409d565b5f805f606084860312156140db575f80fd5b83356140e681614078565b92506020840135915060408401356140fd8161409d565b809150509250925092565b5f60208284031215614118575f80fd5b813561404681614078565b5f60208284031215614133575f80fd5b81356140468161409d565b63ffffffff8116811461405a575f80fd5b7f4e487b71000000000000000000000000000000000000000000000000000000005f52604160045260245ffd5b6040516080810167ffffffffffffffff8111828210171561419f5761419f61414f565b60405290565b604051601f82017fffffffffffffffffffffffffffffffffffffffffffffffffffffffffffffffe016810167ffffffffffffffff811182821017156141ec576141ec61414f565b604052919050565b5f67ffffffffffffffff82111561420d5761420d61414f565b50601f017fffffffffffffffffffffffffffffffffffffffffffffffffffffffffffffffe01660200190565b5f82601f830112614248575f80fd5b813561425b614256826141f4565b6141a5565b81815284602083860101111561426f575f80fd5b816020850160208301375f918101602001919091529392505050565b5f805f805f8060c087890312156142a0575f80fd5b86356142ab8161409d565b955060208701356142bb8161409d565b945060408701356142cb8161413e565b935060608701356142db8161409d565b9250608087013567ffffffffffffffff808211156142f7575f80fd5b6143038a838b01614239565b935060a0890135915080821115614318575f80fd5b5061432589828a01614239565b9150509295509295509295565b5f8083601f840112614342575f80fd5b50813567ffffffffffffffff811115614359575f80fd5b6020830191508360208260051b8501011115614373575f80fd5b9250929050565b5f806020838503121561438b575f80fd5b823567ffffffffffffffff8111156143a1575f80fd5b6143ad85828601614332565b90969095509350505050565b5f805f80608085870312156143cc575f80fd5b84356143d78161413e565b935060208501356143e78161409d565b925060408501356143f78161413e565b9150606085013567ffffffffffffffff811115614412575f80fd5b61441e87828801614239565b91505092959194509250565b5f6020828403121561443a575f80fd5b813567ffffffffffffffff811115614450575f80fd5b61240884828501614239565b5f8083601f84011261446c575f80fd5b50813567ffffffffffffffff811115614483575f80fd5b602083019150836020828501011115614373575f80fd5b5f805f805f805f60a0888a0312156144b0575f80fd5b873567ffffffffffffffff808211156144c7575f80fd5b818a0191508a601f8301126144da575f80fd5b8135818111156144e8575f80fd5b8b60208260071b85010111156144fc575f80fd5b6020830199508098505061451260208b0161408d565b965061452060408b0161408d565b955061452e60608b016140be565b945060808a0135915080821115614543575f80fd5b506145508a828b0161445c565b989b979a50959850939692959293505050565b5f805f805f60808688031215614577575f80fd5b853567ffffffffffffffff81111561458d575f80fd5b61459988828901614332565b90965094505060208601356145ad81614078565b925060408601356145bd81614078565b915060608601356145cd8161409d565b809150509295509295909350565b5f805f604084860312156145ed575f80fd5b833567ffffffffffffffff811115614603575f80fd5b61460f8682870161445c565b909790965060209590950135949350505050565b5f60208284031215614633575f80fd5b5051919050565b7f4e487b71000000000000000000000000000000000000000000000000000000005f52601160045260245ffd5b67ffffffffffffffff8281168282160390808211156146885761468861463a565b5092915050565b5f826146c2577f4e487b71000000000000000000000000000000000000000000000000000000005f52601260045260245ffd5b500490565b600181811c908216806146db57607f821691505b602082108103614712577f4e487b71000000000000000000000000000000000000000000000000000000005f52602260045260245ffd5b50919050565b5f60208284031215614728575f80fd5b81516140468161404d565b5f60208284031215614743575f80fd5b815167ffffffffffffffff811115614759575f80fd5b8201601f81018413614769575f80fd5b8051614777614256826141f4565b81815285602083850101111561478b575f80fd5b61479c826020830160208601613fc9565b95945050505050565b5f80604083850312156147b6575f80fd5b82516147c18161413e565b60208401519092506147d28161409d565b809150509250929050565b818103818111156147f0576147f061463a565b92915050565b5f60208284031215614806575f80fd5b815161404681614078565b601f8211156134b4575f81815260208120601f850160051c810160208610156148375750805b601f850160051c820191505b818110156133d857828155600101614843565b815167ffffffffffffffff8111156148705761487061414f565b6148848161487e84546146c7565b84614811565b602080601f8311600181146148d6575f84156148a05750858301515b7fffffffffffffffffffffffffffffffffffffffffffffffffffffffffffffffff600386901b1c1916600185901b1785556133d8565b5f858152602081207fffffffffffffffffffffffffffffffffffffffffffffffffffffffffffffffe08616915b8281101561492257888601518255948401946001909101908401614903565b508582101561495e57878501517fffffffffffffffffffffffffffffffffffffffffffffffffffffffffffffffff600388901b60f8161c191681555b5050505050600190811b01905550565b606081525f6149806060830186613feb565b905083602083015273ffffffffffffffffffffffffffffffffffffffff83166040830152949350505050565b67ffffffffffffffff8181168382160190808211156146885761468861463a565b808201808211156147f0576147f061463a565b7f4e487b71000000000000000000000000000000000000000000000000000000005f52603260045260245ffd5b5f82357fffffffffffffffffffffffffffffffffffffffffffffffffffffffffffffff81833603018112614a3f575f80fd5b9190910192915050565b5f60808236031215614a59575f80fd5b614a6161417c565b823567ffffffffffffffff811115614a77575f80fd5b614a8336828601614239565b825250602083013560208201526040830135614a9e81614078565b6040820152606092830135928101929092525090565b5f67ffffffffffffffff808316818103614ad057614ad061463a565b6001019392505050565b5f7fffffffffffffffffffffffffffffffffffffffffffffffffffffffffffffffff8203614b0a57614b0a61463a565b5060010190565b80820281158282048414176147f0576147f061463a565b5f63ffffffff808916835273ffffffffffffffffffffffffffffffffffffffff8089166020850152818816604085015280871660608501528086166080850152505060c060a0830152614b7e60c0830184613feb565b98975050505050505050565b61ffff8181168382160190808211156146885761468861463a565b5f7fff00000000000000000000000000000000000000000000000000000000000000808a60f81b1683527fffff0000000000000000000000000000000000000000000000000000000000008960f01b1660018401528751614c0d816003860160208c01613fc9565b80840190507fffffffffffffffffffffffffffffffffffffffff0000000000000000000000008860601b1660038201528651614c50816017840160208b01613fc9565b808201915050818660f81b16601782015284519150614c76826018830160208801613fc9565b016018019998505050505050505050565b7fff000000000000000000000000000000000000000000000000000000000000008860f81b1681525f7fffff000000000000000000000000000000000000000000000000000000000000808960f01b1660018401528751614cef816003860160208c01613fc9565b80840190507fffffffffffffffffffffffffffffffffffffffff0000000000000000000000008860601b1660038201528651614d32816017840160208b01613fc9565b808201915050818660f01b16601782015284519150614d58826019830160208801613fc9565b016019019998505050505050505050565b5f8651614d7a818460208b01613fc9565b9190910194855250602084019290925260f81b7fff000000000000000000000000000000000000000000000000000000000000009081166040840152166041820152604201919050565b5f60808284031215614dd4575f80fd5b614ddc61417c565b82358152602083013560208201526040830135614df881614078565b60408201526060928301359281019290925250919050565b81835281816020850137505f602082840101525f60207fffffffffffffffffffffffffffffffffffffffffffffffffffffffffffffffe0601f840116840101905092915050565b838152604060208201525f61479c604083018486614e10565b818382375f9101908152919050565b84815273ffffffffffffffffffffffffffffffffffffffff84166020820152606060408201525f614eb4606083018486614e10565b9695505050505050565b5f8251614a3f818460208701613fc956fea2646970667358221220afc20b00ef4889deeb5eada329ef176775231f092c36162bd0e46f54f3842def64736f6c63430008140033",
  "linkReferences": {},
  "deployedLinkReferences": {}
}