{
  "_format": "hh-sol-artifact-1",
  "contractName": "PolygonZkEVM",
  "sourceName": "contracts/PolygonZkEVM.sol",
  "abi": [
    {
      "inputs": [
        {
          "internalType": "contract IPolygonZkEVMGlobalExitRoot",
          "name": "_globalExitRootManager",
          "type": "address"
        },
        {
          "internalType": "contract IERC20Upgradeable",
          "name": "_matic",
          "type": "address"
        },
        {
          "internalType": "contract IVerifierRollup",
          "name": "_rollupVerifier",
          "type": "address"
        },
        {
          "internalType": "contract IPolygonZkEVMBridge",
          "name": "_bridgeAddress",
          "type": "address"
        },
        {
          "internalType": "uint64",
          "name": "_chainID",
          "type": "uint64"
        },
        {
          "internalType": "uint64",
          "name": "_forkID",
          "type": "uint64"
        }
      ],
      "stateMutability": "nonpayable",
      "type": "constructor"
    },
    {
      "inputs": [],
      "name": "BatchAlreadyVerified",
      "type": "error"
    },
    {
      "inputs": [],
      "name": "BatchNotSequencedOrNotSequenceEnd",
      "type": "error"
    },
    {
      "inputs": [],
      "name": "ExceedMaxVerifyBatches",
      "type": "error"
    },
    {
      "inputs": [],
      "name": "FinalNumBatchBelowLastVerifiedBatch",
      "type": "error"
    },
    {
      "inputs": [],
      "name": "FinalNumBatchDoesNotMatchPendingState",
      "type": "error"
    },
    {
      "inputs": [],
      "name": "FinalPendingStateNumInvalid",
      "type": "error"
    },
    {
      "inputs": [],
      "name": "ForceBatchNotAllowed",
      "type": "error"
    },
    {
      "inputs": [],
      "name": "ForceBatchTimeoutNotExpired",
      "type": "error"
    },
    {
      "inputs": [],
      "name": "ForceBatchesAlreadyActive",
      "type": "error"
    },
    {
      "inputs": [],
      "name": "ForceBatchesOverflow",
      "type": "error"
    },
    {
      "inputs": [],
      "name": "ForcedDataDoesNotMatch",
      "type": "error"
    },
    {
      "inputs": [],
      "name": "GlobalExitRootNotExist",
      "type": "error"
    },
    {
      "inputs": [],
      "name": "HaltTimeoutNotExpired",
      "type": "error"
    },
    {
      "inputs": [],
      "name": "InitNumBatchAboveLastVerifiedBatch",
      "type": "error"
    },
    {
      "inputs": [],
      "name": "InitNumBatchDoesNotMatchPendingState",
      "type": "error"
    },
    {
      "inputs": [],
      "name": "InvalidProof",
      "type": "error"
    },
    {
      "inputs": [],
      "name": "InvalidRangeBatchTimeTarget",
      "type": "error"
    },
    {
      "inputs": [],
      "name": "InvalidRangeForceBatchTimeout",
      "type": "error"
    },
    {
      "inputs": [],
      "name": "InvalidRangeMultiplierBatchFee",
      "type": "error"
    },
    {
      "inputs": [],
      "name": "NewAccInputHashDoesNotExist",
      "type": "error"
    },
    {
      "inputs": [],
      "name": "NewPendingStateTimeoutMustBeLower",
      "type": "error"
    },
    {
      "inputs": [],
      "name": "NewStateRootNotInsidePrime",
      "type": "error"
    },
    {
      "inputs": [],
      "name": "NewTrustedAggregatorTimeoutMustBeLower",
      "type": "error"
    },
    {
      "inputs": [],
      "name": "NotEnoughMaticAmount",
      "type": "error"
    },
    {
      "inputs": [],
      "name": "OldAccInputHashDoesNotExist",
      "type": "error"
    },
    {
      "inputs": [],
      "name": "OldStateRootDoesNotExist",
      "type": "error"
    },
    {
      "inputs": [],
      "name": "OnlyAdmin",
      "type": "error"
    },
    {
      "inputs": [],
      "name": "OnlyEmergencyState",
      "type": "error"
    },
    {
      "inputs": [],
      "name": "OnlyNotEmergencyState",
      "type": "error"
    },
    {
      "inputs": [],
      "name": "OnlyPendingAdmin",
      "type": "error"
    },
    {
      "inputs": [],
      "name": "OnlyTrustedAggregator",
      "type": "error"
    },
    {
      "inputs": [],
      "name": "OnlyTrustedSequencer",
      "type": "error"
    },
    {
      "inputs": [],
      "name": "PendingStateDoesNotExist",
      "type": "error"
    },
    {
      "inputs": [],
      "name": "PendingStateInvalid",
      "type": "error"
    },
    {
      "inputs": [],
      "name": "PendingStateNotConsolidable",
      "type": "error"
    },
    {
      "inputs": [],
      "name": "PendingStateTimeoutExceedHaltAggregationTimeout",
      "type": "error"
    },
    {
      "inputs": [],
      "name": "SequenceZeroBatches",
      "type": "error"
    },
    {
      "inputs": [],
      "name": "SequencedTimestampBelowForcedTimestamp",
      "type": "error"
    },
    {
      "inputs": [],
      "name": "SequencedTimestampInvalid",
      "type": "error"
    },
    {
      "inputs": [],
      "name": "StoredRootMustBeDifferentThanNewRoot",
      "type": "error"
    },
    {
      "inputs": [],
      "name": "TransactionsLengthAboveMax",
      "type": "error"
    },
    {
      "inputs": [],
      "name": "TrustedAggregatorTimeoutExceedHaltAggregationTimeout",
      "type": "error"
    },
    {
      "inputs": [],
      "name": "TrustedAggregatorTimeoutNotExpired",
      "type": "error"
    },
    {
      "anonymous": false,
      "inputs": [
        {
          "indexed": false,
          "internalType": "address",
          "name": "newAdmin",
          "type": "address"
        }
      ],
      "name": "AcceptAdminRole",
      "type": "event"
    },
    {
      "anonymous": false,
      "inputs": [],
      "name": "ActivateForceBatches",
      "type": "event"
    },
    {
      "anonymous": false,
      "inputs": [
        {
          "indexed": true,
          "internalType": "uint64",
          "name": "numBatch",
          "type": "uint64"
        },
        {
          "indexed": false,
          "internalType": "bytes32",
          "name": "stateRoot",
          "type": "bytes32"
        },
        {
          "indexed": true,
          "internalType": "uint64",
          "name": "pendingStateNum",
          "type": "uint64"
        }
      ],
      "name": "ConsolidatePendingState",
      "type": "event"
    },
    {
      "anonymous": false,
      "inputs": [],
      "name": "EmergencyStateActivated",
      "type": "event"
    },
    {
      "anonymous": false,
      "inputs": [],
      "name": "EmergencyStateDeactivated",
      "type": "event"
    },
    {
      "anonymous": false,
      "inputs": [
        {
          "indexed": true,
          "internalType": "uint64",
          "name": "forceBatchNum",
          "type": "uint64"
        },
        {
          "indexed": false,
          "internalType": "bytes32",
          "name": "lastGlobalExitRoot",
          "type": "bytes32"
        },
        {
          "indexed": false,
          "internalType": "address",
          "name": "sequencer",
          "type": "address"
        },
        {
          "indexed": false,
          "internalType": "bytes",
          "name": "transactions",
          "type": "bytes"
        }
      ],
      "name": "ForceBatch",
      "type": "event"
    },
    {
      "anonymous": false,
      "inputs": [
        {
          "indexed": false,
          "internalType": "uint8",
          "name": "version",
          "type": "uint8"
        }
      ],
      "name": "Initialized",
      "type": "event"
    },
    {
      "anonymous": false,
      "inputs": [
        {
          "indexed": true,
          "internalType": "uint64",
          "name": "numBatch",
          "type": "uint64"
        },
        {
          "indexed": false,
          "internalType": "bytes32",
          "name": "stateRoot",
          "type": "bytes32"
        },
        {
          "indexed": true,
          "internalType": "address",
          "name": "aggregator",
          "type": "address"
        }
      ],
      "name": "OverridePendingState",
      "type": "event"
    },
    {
      "anonymous": false,
      "inputs": [
        {
          "indexed": true,
          "internalType": "address",
          "name": "previousOwner",
          "type": "address"
        },
        {
          "indexed": true,
          "internalType": "address",
          "name": "newOwner",
          "type": "address"
        }
      ],
      "name": "OwnershipTransferred",
      "type": "event"
    },
    {
      "anonymous": false,
      "inputs": [
        {
          "indexed": false,
          "internalType": "bytes32",
          "name": "storedStateRoot",
          "type": "bytes32"
        },
        {
          "indexed": false,
          "internalType": "bytes32",
          "name": "provedStateRoot",
          "type": "bytes32"
        }
      ],
      "name": "ProveNonDeterministicPendingState",
      "type": "event"
    },
    {
      "anonymous": false,
      "inputs": [
        {
          "indexed": true,
          "internalType": "uint64",
          "name": "numBatch",
          "type": "uint64"
        }
      ],
      "name": "SequenceBatches",
      "type": "event"
    },
    {
      "anonymous": false,
      "inputs": [
        {
          "indexed": true,
          "internalType": "uint64",
          "name": "numBatch",
          "type": "uint64"
        }
      ],
      "name": "SequenceForceBatches",
      "type": "event"
    },
    {
      "anonymous": false,
      "inputs": [
        {
          "indexed": false,
          "internalType": "uint64",
          "name": "newforceBatchTimeout",
          "type": "uint64"
        }
      ],
      "name": "SetForceBatchTimeout",
      "type": "event"
    },
    {
      "anonymous": false,
      "inputs": [
        {
          "indexed": false,
          "internalType": "uint16",
          "name": "newMultiplierBatchFee",
          "type": "uint16"
        }
      ],
      "name": "SetMultiplierBatchFee",
      "type": "event"
    },
    {
      "anonymous": false,
      "inputs": [
        {
          "indexed": false,
          "internalType": "uint64",
          "name": "newPendingStateTimeout",
          "type": "uint64"
        }
      ],
      "name": "SetPendingStateTimeout",
      "type": "event"
    },
    {
      "anonymous": false,
      "inputs": [
        {
          "indexed": false,
          "internalType": "address",
          "name": "newTrustedAggregator",
          "type": "address"
        }
      ],
      "name": "SetTrustedAggregator",
      "type": "event"
    },
    {
      "anonymous": false,
      "inputs": [
        {
          "indexed": false,
          "internalType": "uint64",
          "name": "newTrustedAggregatorTimeout",
          "type": "uint64"
        }
      ],
      "name": "SetTrustedAggregatorTimeout",
      "type": "event"
    },
    {
      "anonymous": false,
      "inputs": [
        {
          "indexed": false,
          "internalType": "address",
          "name": "newTrustedSequencer",
          "type": "address"
        }
      ],
      "name": "SetTrustedSequencer",
      "type": "event"
    },
    {
      "anonymous": false,
      "inputs": [
        {
          "indexed": false,
          "internalType": "string",
          "name": "newTrustedSequencerURL",
          "type": "string"
        }
      ],
      "name": "SetTrustedSequencerURL",
      "type": "event"
    },
    {
      "anonymous": false,
      "inputs": [
        {
          "indexed": false,
          "internalType": "uint64",
          "name": "newVerifyBatchTimeTarget",
          "type": "uint64"
        }
      ],
      "name": "SetVerifyBatchTimeTarget",
      "type": "event"
    },
    {
      "anonymous": false,
      "inputs": [
        {
          "indexed": false,
          "internalType": "address",
          "name": "newPendingAdmin",
          "type": "address"
        }
      ],
      "name": "TransferAdminRole",
      "type": "event"
    },
    {
      "anonymous": false,
      "inputs": [
        {
          "indexed": false,
          "internalType": "uint64",
          "name": "numBatch",
          "type": "uint64"
        },
        {
          "indexed": false,
          "internalType": "uint64",
          "name": "forkID",
          "type": "uint64"
        },
        {
          "indexed": false,
          "internalType": "string",
          "name": "version",
          "type": "string"
        }
      ],
      "name": "UpdateZkEVMVersion",
      "type": "event"
    },
    {
      "anonymous": false,
      "inputs": [
        {
          "indexed": true,
          "internalType": "uint64",
          "name": "numBatch",
          "type": "uint64"
        },
        {
          "indexed": false,
          "internalType": "bytes32",
          "name": "stateRoot",
          "type": "bytes32"
        },
        {
          "indexed": true,
          "internalType": "address",
          "name": "aggregator",
          "type": "address"
        }
      ],
      "name": "VerifyBatches",
      "type": "event"
    },
    {
      "anonymous": false,
      "inputs": [
        {
          "indexed": true,
          "internalType": "uint64",
          "name": "numBatch",
          "type": "uint64"
        },
        {
          "indexed": false,
          "internalType": "bytes32",
          "name": "stateRoot",
          "type": "bytes32"
        },
        {
          "indexed": true,
          "internalType": "address",
          "name": "aggregator",
          "type": "address"
        }
      ],
      "name": "VerifyBatchesTrustedAggregator",
      "type": "event"
    },
    {
      "inputs": [],
      "name": "acceptAdminRole",
      "outputs": [],
      "stateMutability": "nonpayable",
      "type": "function"
    },
    {
      "inputs": [
        {
          "internalType": "uint64",
          "name": "sequencedBatchNum",
          "type": "uint64"
        }
      ],
      "name": "activateEmergencyState",
      "outputs": [],
      "stateMutability": "nonpayable",
      "type": "function"
    },
    {
      "inputs": [],
      "name": "activateForceBatches",
      "outputs": [],
      "stateMutability": "nonpayable",
      "type": "function"
    },
    {
      "inputs": [],
      "name": "admin",
      "outputs": [
        {
          "internalType": "address",
          "name": "",
          "type": "address"
        }
      ],
      "stateMutability": "view",
      "type": "function"
    },
    {
      "inputs": [],
      "name": "batchFee",
      "outputs": [
        {
          "internalType": "uint256",
          "name": "",
          "type": "uint256"
        }
      ],
      "stateMutability": "view",
      "type": "function"
    },
    {
      "inputs": [
        {
          "internalType": "uint64",
          "name": "",
          "type": "uint64"
        }
      ],
      "name": "batchNumToStateRoot",
      "outputs": [
        {
          "internalType": "bytes32",
          "name": "",
          "type": "bytes32"
        }
      ],
      "stateMutability": "view",
      "type": "function"
    },
    {
      "inputs": [],
      "name": "bridgeAddress",
      "outputs": [
        {
          "internalType": "contract IPolygonZkEVMBridge",
          "name": "",
          "type": "address"
        }
      ],
      "stateMutability": "view",
      "type": "function"
    },
    {
      "inputs": [],
      "name": "calculateRewardPerBatch",
      "outputs": [
        {
          "internalType": "uint256",
          "name": "",
          "type": "uint256"
        }
      ],
      "stateMutability": "view",
      "type": "function"
    },
    {
      "inputs": [],
      "name": "chainID",
      "outputs": [
        {
          "internalType": "uint64",
          "name": "",
          "type": "uint64"
        }
      ],
      "stateMutability": "view",
      "type": "function"
    },
    {
      "inputs": [
        {
          "internalType": "uint256",
          "name": "newStateRoot",
          "type": "uint256"
        }
      ],
      "name": "checkStateRootInsidePrime",
      "outputs": [
        {
          "internalType": "bool",
          "name": "",
          "type": "bool"
        }
      ],
      "stateMutability": "pure",
      "type": "function"
    },
    {
      "inputs": [
        {
          "internalType": "uint64",
          "name": "pendingStateNum",
          "type": "uint64"
        }
      ],
      "name": "consolidatePendingState",
      "outputs": [],
      "stateMutability": "nonpayable",
      "type": "function"
    },
    {
      "inputs": [],
      "name": "deactivateEmergencyState",
      "outputs": [],
      "stateMutability": "nonpayable",
      "type": "function"
    },
    {
      "inputs": [
        {
          "internalType": "bytes",
          "name": "transactions",
          "type": "bytes"
        },
        {
          "internalType": "uint256",
          "name": "maticAmount",
          "type": "uint256"
        }
      ],
      "name": "forceBatch",
      "outputs": [],
      "stateMutability": "nonpayable",
      "type": "function"
    },
    {
      "inputs": [],
      "name": "forceBatchTimeout",
      "outputs": [
        {
          "internalType": "uint64",
          "name": "",
          "type": "uint64"
        }
      ],
      "stateMutability": "view",
      "type": "function"
    },
    {
      "inputs": [
        {
          "internalType": "uint64",
          "name": "",
          "type": "uint64"
        }
      ],
      "name": "forcedBatches",
      "outputs": [
        {
          "internalType": "bytes32",
          "name": "",
          "type": "bytes32"
        }
      ],
      "stateMutability": "view",
      "type": "function"
    },
    {
      "inputs": [],
      "name": "forkID",
      "outputs": [
        {
          "internalType": "uint64",
          "name": "",
          "type": "uint64"
        }
      ],
      "stateMutability": "view",
      "type": "function"
    },
    {
      "inputs": [],
      "name": "gapLastTimestamp",
      "outputs": [
        {
          "internalType": "uint64",
          "name": "",
          "type": "uint64"
        }
      ],
      "stateMutability": "view",
      "type": "function"
    },
    {
      "inputs": [],
      "name": "getForcedBatchFee",
      "outputs": [
        {
          "internalType": "uint256",
          "name": "",
          "type": "uint256"
        }
      ],
      "stateMutability": "view",
      "type": "function"
    },
    {
      "inputs": [
        {
          "internalType": "uint64",
          "name": "initNumBatch",
          "type": "uint64"
        },
        {
          "internalType": "uint64",
          "name": "finalNewBatch",
          "type": "uint64"
        },
        {
          "internalType": "bytes32",
          "name": "newLocalExitRoot",
          "type": "bytes32"
        },
        {
          "internalType": "bytes32",
          "name": "oldStateRoot",
          "type": "bytes32"
        },
        {
          "internalType": "bytes32",
          "name": "newStateRoot",
          "type": "bytes32"
        }
      ],
      "name": "getInputSnarkBytes",
      "outputs": [
        {
          "internalType": "bytes",
          "name": "",
          "type": "bytes"
        }
      ],
      "stateMutability": "view",
      "type": "function"
    },
    {
      "inputs": [],
      "name": "getLastVerifiedBatch",
      "outputs": [
        {
          "internalType": "uint64",
          "name": "",
          "type": "uint64"
        }
      ],
      "stateMutability": "view",
      "type": "function"
    },
    {
      "inputs": [],
      "name": "globalExitRootManager",
      "outputs": [
        {
          "internalType": "contract IPolygonZkEVMGlobalExitRoot",
          "name": "",
          "type": "address"
        }
      ],
      "stateMutability": "view",
      "type": "function"
    },
    {
      "inputs": [
        {
          "components": [
            {
              "internalType": "address",
              "name": "admin",
              "type": "address"
            },
            {
              "internalType": "address",
              "name": "trustedSequencer",
              "type": "address"
            },
            {
              "internalType": "uint64",
              "name": "pendingStateTimeout",
              "type": "uint64"
            },
            {
              "internalType": "address",
              "name": "trustedAggregator",
              "type": "address"
            },
            {
              "internalType": "uint64",
              "name": "trustedAggregatorTimeout",
              "type": "uint64"
            }
          ],
          "internalType": "struct PolygonZkEVM.InitializePackedParameters",
          "name": "initializePackedParameters",
          "type": "tuple"
        },
        {
          "internalType": "bytes32",
          "name": "genesisRoot",
          "type": "bytes32"
        },
        {
          "internalType": "string",
          "name": "_trustedSequencerURL",
          "type": "string"
        },
        {
          "internalType": "string",
          "name": "_networkName",
          "type": "string"
        },
        {
          "internalType": "string",
          "name": "_version",
          "type": "string"
        }
      ],
      "name": "initialize",
      "outputs": [],
      "stateMutability": "nonpayable",
      "type": "function"
    },
    {
      "inputs": [],
      "name": "isEmergencyState",
      "outputs": [
        {
          "internalType": "bool",
          "name": "",
          "type": "bool"
        }
      ],
      "stateMutability": "view",
      "type": "function"
    },
    {
      "inputs": [],
      "name": "isForcedBatchDisallowed",
      "outputs": [
        {
          "internalType": "bool",
          "name": "",
          "type": "bool"
        }
      ],
      "stateMutability": "view",
      "type": "function"
    },
    {
      "inputs": [
        {
          "internalType": "uint64",
          "name": "pendingStateNum",
          "type": "uint64"
        }
      ],
      "name": "isPendingStateConsolidable",
      "outputs": [
        {
          "internalType": "bool",
          "name": "",
          "type": "bool"
        }
      ],
      "stateMutability": "view",
      "type": "function"
    },
    {
      "inputs": [],
      "name": "lastBatchSequenced",
      "outputs": [
        {
          "internalType": "uint64",
          "name": "",
          "type": "uint64"
        }
      ],
      "stateMutability": "view",
      "type": "function"
    },
    {
      "inputs": [],
      "name": "lastForceBatch",
      "outputs": [
        {
          "internalType": "uint64",
          "name": "",
          "type": "uint64"
        }
      ],
      "stateMutability": "view",
      "type": "function"
    },
    {
      "inputs": [],
      "name": "lastForceBatchSequenced",
      "outputs": [
        {
          "internalType": "uint64",
          "name": "",
          "type": "uint64"
        }
      ],
      "stateMutability": "view",
      "type": "function"
    },
    {
      "inputs": [],
      "name": "lastPendingState",
      "outputs": [
        {
          "internalType": "uint64",
          "name": "",
          "type": "uint64"
        }
      ],
      "stateMutability": "view",
      "type": "function"
    },
    {
      "inputs": [],
      "name": "lastPendingStateConsolidated",
      "outputs": [
        {
          "internalType": "uint64",
          "name": "",
          "type": "uint64"
        }
      ],
      "stateMutability": "view",
      "type": "function"
    },
    {
      "inputs": [],
      "name": "lastVerifiedBatch",
      "outputs": [
        {
          "internalType": "uint64",
          "name": "",
          "type": "uint64"
        }
      ],
      "stateMutability": "view",
      "type": "function"
    },
    {
      "inputs": [],
      "name": "matic",
      "outputs": [
        {
          "internalType": "contract IERC20Upgradeable",
          "name": "",
          "type": "address"
        }
      ],
      "stateMutability": "view",
      "type": "function"
    },
    {
      "inputs": [],
      "name": "multiplierBatchFee",
      "outputs": [
        {
          "internalType": "uint16",
          "name": "",
          "type": "uint16"
        }
      ],
      "stateMutability": "view",
      "type": "function"
    },
    {
      "inputs": [],
      "name": "networkName",
      "outputs": [
        {
          "internalType": "string",
          "name": "",
          "type": "string"
        }
      ],
      "stateMutability": "view",
      "type": "function"
    },
    {
      "inputs": [
        {
          "internalType": "uint64",
          "name": "initPendingStateNum",
          "type": "uint64"
        },
        {
          "internalType": "uint64",
          "name": "finalPendingStateNum",
          "type": "uint64"
        },
        {
          "internalType": "uint64",
          "name": "initNumBatch",
          "type": "uint64"
        },
        {
          "internalType": "uint64",
          "name": "finalNewBatch",
          "type": "uint64"
        },
        {
          "internalType": "bytes32",
          "name": "newLocalExitRoot",
          "type": "bytes32"
        },
        {
          "internalType": "bytes32",
          "name": "newStateRoot",
          "type": "bytes32"
        },
        {
          "internalType": "bytes",
          "name": "proof",
          "type": "bytes"
        }
      ],
      "name": "overridePendingState",
      "outputs": [],
      "stateMutability": "nonpayable",
      "type": "function"
    },
    {
      "inputs": [],
      "name": "owner",
      "outputs": [
        {
          "internalType": "address",
          "name": "",
          "type": "address"
        }
      ],
      "stateMutability": "view",
      "type": "function"
    },
    {
      "inputs": [],
      "name": "pendingAdmin",
      "outputs": [
        {
          "internalType": "address",
          "name": "",
          "type": "address"
        }
      ],
      "stateMutability": "view",
      "type": "function"
    },
    {
      "inputs": [],
      "name": "pendingStateTimeout",
      "outputs": [
        {
          "internalType": "uint64",
          "name": "",
          "type": "uint64"
        }
      ],
      "stateMutability": "view",
      "type": "function"
    },
    {
      "inputs": [
        {
          "internalType": "uint256",
          "name": "",
          "type": "uint256"
        }
      ],
      "name": "pendingStateTransitions",
      "outputs": [
        {
          "internalType": "uint64",
          "name": "timestamp",
          "type": "uint64"
        },
        {
          "internalType": "uint64",
          "name": "lastVerifiedBatch",
          "type": "uint64"
        },
        {
          "internalType": "bytes32",
          "name": "exitRoot",
          "type": "bytes32"
        },
        {
          "internalType": "bytes32",
          "name": "stateRoot",
          "type": "bytes32"
        }
      ],
      "stateMutability": "view",
      "type": "function"
    },
    {
      "inputs": [
        {
          "internalType": "uint64",
          "name": "initPendingStateNum",
          "type": "uint64"
        },
        {
          "internalType": "uint64",
          "name": "finalPendingStateNum",
          "type": "uint64"
        },
        {
          "internalType": "uint64",
          "name": "initNumBatch",
          "type": "uint64"
        },
        {
          "internalType": "uint64",
          "name": "finalNewBatch",
          "type": "uint64"
        },
        {
          "internalType": "bytes32",
          "name": "newLocalExitRoot",
          "type": "bytes32"
        },
        {
          "internalType": "bytes32",
          "name": "newStateRoot",
          "type": "bytes32"
        },
        {
          "internalType": "bytes",
          "name": "proof",
          "type": "bytes"
        }
      ],
      "name": "proveNonDeterministicPendingState",
      "outputs": [],
      "stateMutability": "nonpayable",
      "type": "function"
    },
    {
      "inputs": [],
      "name": "renounceOwnership",
      "outputs": [],
      "stateMutability": "nonpayable",
      "type": "function"
    },
    {
      "inputs": [],
      "name": "rollupVerifier",
      "outputs": [
        {
          "internalType": "contract IVerifierRollup",
          "name": "",
          "type": "address"
        }
      ],
      "stateMutability": "view",
      "type": "function"
    },
    {
      "inputs": [
        {
          "components": [
            {
              "internalType": "bytes",
              "name": "transactions",
              "type": "bytes"
            },
            {
              "internalType": "bytes32",
              "name": "historicGlobalExitRoot",
              "type": "bytes32"
            },
            {
              "internalType": "uint64",
              "name": "minForcedTimestamp",
              "type": "uint64"
            }
          ],
          "internalType": "struct PolygonZkEVM.BatchData[]",
          "name": "batches",
          "type": "tuple[]"
        },
        {
          "internalType": "address",
          "name": "l2Coinbase",
          "type": "address"
        }
      ],
      "name": "sequenceBatches",
      "outputs": [],
      "stateMutability": "nonpayable",
      "type": "function"
    },
    {
      "inputs": [
        {
          "components": [
            {
              "internalType": "bytes",
              "name": "transactions",
              "type": "bytes"
            },
            {
              "internalType": "bytes32",
              "name": "historicGlobalExitRoot",
              "type": "bytes32"
            },
            {
              "internalType": "uint64",
              "name": "minForcedTimestamp",
              "type": "uint64"
            }
          ],
          "internalType": "struct PolygonZkEVM.ForcedBatchData[]",
          "name": "batches",
          "type": "tuple[]"
        }
      ],
      "name": "sequenceForceBatches",
      "outputs": [],
      "stateMutability": "nonpayable",
      "type": "function"
    },
    {
      "inputs": [
        {
          "internalType": "uint64",
          "name": "",
          "type": "uint64"
        }
      ],
      "name": "sequencedBatches",
      "outputs": [
        {
          "internalType": "bytes32",
          "name": "accInputHash",
          "type": "bytes32"
        },
        {
          "internalType": "uint64",
          "name": "sequencedTimestamp",
          "type": "uint64"
        },
        {
          "internalType": "uint64",
          "name": "previousLastBatchSequenced",
          "type": "uint64"
        }
      ],
      "stateMutability": "view",
      "type": "function"
    },
    {
      "inputs": [
        {
          "internalType": "uint64",
          "name": "newforceBatchTimeout",
          "type": "uint64"
        }
      ],
      "name": "setForceBatchTimeout",
      "outputs": [],
      "stateMutability": "nonpayable",
      "type": "function"
    },
    {
      "inputs": [
        {
          "internalType": "uint16",
          "name": "newMultiplierBatchFee",
          "type": "uint16"
        }
      ],
      "name": "setMultiplierBatchFee",
      "outputs": [],
      "stateMutability": "nonpayable",
      "type": "function"
    },
    {
      "inputs": [
        {
          "internalType": "uint64",
          "name": "newPendingStateTimeout",
          "type": "uint64"
        }
      ],
      "name": "setPendingStateTimeout",
      "outputs": [],
      "stateMutability": "nonpayable",
      "type": "function"
    },
    {
      "inputs": [
        {
          "internalType": "address",
          "name": "newTrustedAggregator",
          "type": "address"
        }
      ],
      "name": "setTrustedAggregator",
      "outputs": [],
      "stateMutability": "nonpayable",
      "type": "function"
    },
    {
      "inputs": [
        {
          "internalType": "uint64",
          "name": "newTrustedAggregatorTimeout",
          "type": "uint64"
        }
      ],
      "name": "setTrustedAggregatorTimeout",
      "outputs": [],
      "stateMutability": "nonpayable",
      "type": "function"
    },
    {
      "inputs": [
        {
          "internalType": "address",
          "name": "newTrustedSequencer",
          "type": "address"
        }
      ],
      "name": "setTrustedSequencer",
      "outputs": [],
      "stateMutability": "nonpayable",
      "type": "function"
    },
    {
      "inputs": [
        {
          "internalType": "string",
          "name": "newTrustedSequencerURL",
          "type": "string"
        }
      ],
      "name": "setTrustedSequencerURL",
      "outputs": [],
      "stateMutability": "nonpayable",
      "type": "function"
    },
    {
      "inputs": [
        {
          "internalType": "uint64",
          "name": "newVerifyBatchTimeTarget",
          "type": "uint64"
        }
      ],
      "name": "setVerifyBatchTimeTarget",
      "outputs": [],
      "stateMutability": "nonpayable",
      "type": "function"
    },
    {
      "inputs": [
        {
          "internalType": "address",
          "name": "newPendingAdmin",
          "type": "address"
        }
      ],
      "name": "transferAdminRole",
      "outputs": [],
      "stateMutability": "nonpayable",
      "type": "function"
    },
    {
      "inputs": [
        {
          "internalType": "address",
          "name": "newOwner",
          "type": "address"
        }
      ],
      "name": "transferOwnership",
      "outputs": [],
      "stateMutability": "nonpayable",
      "type": "function"
    },
    {
      "inputs": [],
      "name": "trustedAggregator",
      "outputs": [
        {
          "internalType": "address",
          "name": "",
          "type": "address"
        }
      ],
      "stateMutability": "view",
      "type": "function"
    },
    {
      "inputs": [],
      "name": "trustedAggregatorTimeout",
      "outputs": [
        {
          "internalType": "uint64",
          "name": "",
          "type": "uint64"
        }
      ],
      "stateMutability": "view",
      "type": "function"
    },
    {
      "inputs": [],
      "name": "trustedSequencer",
      "outputs": [
        {
          "internalType": "address",
          "name": "",
          "type": "address"
        }
      ],
      "stateMutability": "view",
      "type": "function"
    },
    {
      "inputs": [],
      "name": "trustedSequencerURL",
      "outputs": [
        {
          "internalType": "string",
          "name": "",
          "type": "string"
        }
      ],
      "stateMutability": "view",
      "type": "function"
    },
    {
      "inputs": [],
      "name": "verifyBatchTimeTarget",
      "outputs": [
        {
          "internalType": "uint64",
          "name": "",
          "type": "uint64"
        }
      ],
      "stateMutability": "view",
      "type": "function"
    },
    {
      "inputs": [
        {
          "internalType": "uint64",
          "name": "pendingStateNum",
          "type": "uint64"
        },
        {
          "internalType": "uint64",
          "name": "initNumBatch",
          "type": "uint64"
        },
        {
          "internalType": "uint64",
          "name": "finalNewBatch",
          "type": "uint64"
        },
        {
          "internalType": "bytes32",
          "name": "newLocalExitRoot",
          "type": "bytes32"
        },
        {
          "internalType": "bytes32",
          "name": "newStateRoot",
          "type": "bytes32"
        },
        {
          "internalType": "bytes",
          "name": "proof",
          "type": "bytes"
        }
      ],
      "name": "verifyBatches",
      "outputs": [],
      "stateMutability": "nonpayable",
      "type": "function"
    },
    {
      "inputs": [
        {
          "internalType": "uint64",
          "name": "pendingStateNum",
          "type": "uint64"
        },
        {
          "internalType": "uint64",
          "name": "initNumBatch",
          "type": "uint64"
        },
        {
          "internalType": "uint64",
          "name": "finalNewBatch",
          "type": "uint64"
        },
        {
          "internalType": "bytes32",
          "name": "newLocalExitRoot",
          "type": "bytes32"
        },
        {
          "internalType": "bytes32",
          "name": "newStateRoot",
          "type": "bytes32"
        },
        {
          "internalType": "bytes",
          "name": "proof",
          "type": "bytes"
        }
      ],
      "name": "verifyBatchesTrustedAggregator",
      "outputs": [],
      "stateMutability": "nonpayable",
      "type": "function"
    }
  ],
  "bytecode": "0x6101406040523480156200001257600080fd5b5060405162005fe838038062005fe88339810160408190526200003591620000a5565b6001600160a01b0395861660c05293851660805291841660a05290921660e0526001600160401b0391821661010052166101205262000131565b6001600160a01b03811681146200008557600080fd5b50565b80516001600160401b0381168114620000a057600080fd5b919050565b60008060008060008060c08789031215620000bf57600080fd5b8651620000cc816200006f565b6020880151909650620000df816200006f565b6040880151909550620000f2816200006f565b606088015190945062000105816200006f565b9250620001156080880162000088565b91506200012560a0880162000088565b90509295509295509295565b60805160a05160c05160e0516101005161012051615de9620001ff6000396000818161067001528181610e9f0152612f2a0152600081816107dd0152610e75015260008181610790015281816122f1015281816135c5015261422101526000818161095c0152818161151301528181611fdd0152818161237301528181613762015281816139bd01526143f1015260008181610a1c0152818161410e015261475d01526000818161089901528181611b340152818161292f01528181613991015261484c0152615de96000f3fe608060405234801561001057600080fd5b50600436106103ba5760003560e01c80638da5cb5b116101f4578063c89e42df1161011a578063e7a7ed02116100ad578063f14916d61161007c578063f14916d614610a7e578063f2fde38b14610a91578063f851a44014610aa4578063f8b823e414610ac457600080fd5b8063e7a7ed02146109e7578063e8bf92ed14610a17578063eaeb077b14610a3e578063ed6b010414610a5157600080fd5b8063d8d1091b116100e9578063d8d1091b14610991578063d939b315146109a4578063dbc16976146109cc578063e6ad707e146109d457600080fd5b8063c89e42df14610915578063cfa8ed4714610928578063d02103ca14610957578063d2e129f91461097e57600080fd5b8063adc879e911610192578063ba58ae3911610161578063ba58ae39146108bb578063c00e0dc9146108ce578063c0ed84e0146108e1578063c754c7ed146108e957600080fd5b8063adc879e9146107d8578063afd23cbe146107ff578063b4d63f581461082d578063b6b0b0971461089457600080fd5b8063a066215c116101ce578063a066215c14610778578063a3c573eb1461078b578063a50a164b146107b2578063ada8f919146107c557600080fd5b80638da5cb5b1461073f57806399f5634e1461075d5780639c9f3dfe1461076557600080fd5b80634a910e6a116102e45780636ff512cc11610277578063831c7ead11610246578063831c7ead1461066b578063837a473814610692578063841b24d7146107075780638c3d73011461073757600080fd5b80636ff512cc14610629578063715018a61461063c5780637215541a146106445780637fcb36531461065757600080fd5b8063542028d5116102b3578063542028d5146105f15780635ec91958146105f957806360469169146106015780636b8616ce1461060957600080fd5b80634a910e6a1461058a5780634e4877061461059d5780634fd70464146105b05780635392c5e0146105c357600080fd5b8063298789831161035c578063423fa8561161032b578063423fa8561461050e578063456052671461052e578063458c0477146105565780634a1a89a71461056a57600080fd5b806329878983146104a85780632a9f208f146104d4578063383b3be8146104e8578063394218e9146104fb57600080fd5b806315064c961161039857806315064c96146104205780631816b7e51461043d578063220d789914610450578063267822471461046357600080fd5b80630808270c146103bf5780630a0d9fbe146103d4578063107bf28c1461040b575b600080fd5b6103d26103cd366004615277565b610acd565b005b606f546103ed90610100900467ffffffffffffffff1681565b60405167ffffffffffffffff90911681526020015b60405180910390f35b610413610b80565b604051610402919061537e565b606f5461042d9060ff1681565b6040519015158152602001610402565b6103d261044b366004615398565b610c0e565b61041361045e3660046153bc565b610d26565b607b546104839073ffffffffffffffffffffffffffffffffffffffff1681565b60405173ffffffffffffffffffffffffffffffffffffffff9091168152602001610402565b6074546104839068010000000000000000900473ffffffffffffffffffffffffffffffffffffffff1681565b6073546103ed9067ffffffffffffffff1681565b61042d6104f6366004615409565b610efd565b6103d2610509366004615409565b610f53565b6073546103ed9068010000000000000000900467ffffffffffffffff1681565b6073546103ed90700100000000000000000000000000000000900467ffffffffffffffff1681565b6079546103ed9067ffffffffffffffff1681565b6079546103ed9068010000000000000000900467ffffffffffffffff1681565b6103d2610598366004615409565b6110d7565b6103d26105ab366004615409565b61118a565b6103d26105be366004615424565b61130e565b6105e36105d1366004615409565b60756020526000908152604090205481565b604051908152602001610402565b6104136116a4565b6103d26116b1565b6105e36117b1565b6105e3610617366004615409565b60716020526000908152604090205481565b6103d26106373660046154d1565b6117c7565b6103d261189c565b6103d2610652366004615409565b6118b0565b6074546103ed9067ffffffffffffffff1681565b6103ed7f000000000000000000000000000000000000000000000000000000000000000081565b6106db6106a03660046154ec565b60786020526000908152604090208054600182015460029092015467ffffffffffffffff808316936801000000000000000090930416919084565b6040805167ffffffffffffffff9586168152949093166020850152918301526060820152608001610402565b6079546103ed907801000000000000000000000000000000000000000000000000900467ffffffffffffffff1681565b6103d2611a20565b60335473ffffffffffffffffffffffffffffffffffffffff16610483565b6105e3611aec565b6103d2610773366004615409565b611c45565b6103d2610786366004615409565b611dc1565b6104837f000000000000000000000000000000000000000000000000000000000000000081565b6103d26107c0366004615424565b611ec7565b6103d26107d33660046154d1565b61208c565b6103ed7f000000000000000000000000000000000000000000000000000000000000000081565b606f5461081a906901000000000000000000900461ffff1681565b60405161ffff9091168152602001610402565b61086e61083b366004615409565b6072602052600090815260409020805460019091015467ffffffffffffffff808216916801000000000000000090041683565b6040805193845267ffffffffffffffff9283166020850152911690820152606001610402565b6104837f000000000000000000000000000000000000000000000000000000000000000081565b61042d6108c93660046154ec565b612150565b6103d26108dc36600461554a565b6121da565b6103ed6129a1565b607b546103ed9074010000000000000000000000000000000000000000900467ffffffffffffffff1681565b6103d2610923366004615681565b6129f6565b606f54610483906b010000000000000000000000900473ffffffffffffffffffffffffffffffffffffffff1681565b6104837f000000000000000000000000000000000000000000000000000000000000000081565b6103d261098c3660046156b6565b612a83565b6103d261099f366004615769565b612fcf565b6079546103ed90700100000000000000000000000000000000900467ffffffffffffffff1681565b6103d2613572565b6103d26109e2366004615277565b61364b565b6073546103ed907801000000000000000000000000000000000000000000000000900467ffffffffffffffff1681565b6104837f000000000000000000000000000000000000000000000000000000000000000081565b6103d2610a4c3660046157ab565b61385b565b607b5461042d907c0100000000000000000000000000000000000000000000000000000000900460ff1681565b6103d2610a8c3660046154d1565b613c51565b6103d2610a9f3660046154d1565b613d23565b607a546104839073ffffffffffffffffffffffffffffffffffffffff1681565b6105e360705481565b606f5460ff1615610b0a576040517f2f0047fc00000000000000000000000000000000000000000000000000000000815260040160405180910390fd5b610b1a8888888888888888613dd7565b67ffffffffffffffff85166000908152607560209081526040918290205482519081529081018590527f1f44c21118c4603cfb4e1b621dbcfa2b73efcececee2b99b620b2953d33a7010910160405180910390a1610b7661421f565b5050505050505050565b60778054610b8d906157f7565b80601f0160208091040260200160405190810160405280929190818152602001828054610bb9906157f7565b8015610c065780601f10610bdb57610100808354040283529160200191610c06565b820191906000526020600020905b815481529060010190602001808311610be957829003601f168201915b505050505081565b607a5473ffffffffffffffffffffffffffffffffffffffff163314610c5f576040517f4755657900000000000000000000000000000000000000000000000000000000815260040160405180910390fd5b6103e88161ffff161080610c7857506103ff8161ffff16115b15610caf576040517f4c2533c800000000000000000000000000000000000000000000000000000000815260040160405180910390fd5b606f80547fffffffffffffffffffffffffffffffffffffffffff0000ffffffffffffffffff16690100000000000000000061ffff8416908102919091179091556040519081527f7019933d795eba185c180209e8ae8bffbaa25bcef293364687702c31f4d302c5906020015b60405180910390a150565b67ffffffffffffffff8086166000818152607260205260408082205493881682529020546060929115801590610d5a575081155b15610d91576040517f6818c29e00000000000000000000000000000000000000000000000000000000815260040160405180910390fd5b80610dc8576040517f66385b5100000000000000000000000000000000000000000000000000000000815260040160405180910390fd5b610dd184612150565b610e07576040517f176b913c00000000000000000000000000000000000000000000000000000000815260040160405180910390fd5b604080517fffffffffffffffffffffffffffffffffffffffff0000000000000000000000003360601b166020820152603481019690965260548601929092527fffffffffffffffff00000000000000000000000000000000000000000000000060c098891b811660748701527f0000000000000000000000000000000000000000000000000000000000000000891b8116607c8701527f0000000000000000000000000000000000000000000000000000000000000000891b81166084870152608c86019490945260ac85015260cc840194909452509290931b90911660ec830152805180830360d401815260f4909201905290565b60795467ffffffffffffffff82811660009081526078602052604081205490924292610f419270010000000000000000000000000000000090920481169116615879565b67ffffffffffffffff16111592915050565b607a5473ffffffffffffffffffffffffffffffffffffffff163314610fa4576040517f4755657900000000000000000000000000000000000000000000000000000000815260040160405180910390fd5b62093a8067ffffffffffffffff82161115610feb576040517f1d06e87900000000000000000000000000000000000000000000000000000000815260040160405180910390fd5b606f5460ff1661105a5760795467ffffffffffffffff780100000000000000000000000000000000000000000000000090910481169082161061105a576040517f401636df00000000000000000000000000000000000000000000000000000000815260040160405180910390fd5b6079805477ffffffffffffffffffffffffffffffffffffffffffffffff16780100000000000000000000000000000000000000000000000067ffffffffffffffff8416908102919091179091556040519081527f1f4fa24c2e4bad19a7f3ec5c5485f70d46c798461c2e684f55bbd0fc661373a190602001610d1b565b60745468010000000000000000900473ffffffffffffffffffffffffffffffffffffffff16331461117e57606f5460ff161561113f576040517f2f0047fc00000000000000000000000000000000000000000000000000000000815260040160405180910390fd5b61114881610efd565b61117e576040517f0ce9e4a200000000000000000000000000000000000000000000000000000000815260040160405180910390fd5b611187816142a7565b50565b607a5473ffffffffffffffffffffffffffffffffffffffff1633146111db576040517f4755657900000000000000000000000000000000000000000000000000000000815260040160405180910390fd5b62093a8067ffffffffffffffff82161115611222576040517ff5e37f2f00000000000000000000000000000000000000000000000000000000815260040160405180910390fd5b606f5460ff1661128d57607b5467ffffffffffffffff7401000000000000000000000000000000000000000090910481169082161061128d576040517ff5e37f2f00000000000000000000000000000000000000000000000000000000815260040160405180910390fd5b607b80547fffffffff0000000000000000ffffffffffffffffffffffffffffffffffffffff167401000000000000000000000000000000000000000067ffffffffffffffff8416908102919091179091556040519081527fa7eb6cb8a613eb4e8bddc1ac3d61ec6cf10898760f0b187bcca794c6ca6fa40b90602001610d1b565b606f5460ff161561134b576040517f2f0047fc00000000000000000000000000000000000000000000000000000000815260040160405180910390fd5b60795467ffffffffffffffff868116600090815260726020526040902060010154429261139892780100000000000000000000000000000000000000000000000090910481169116615879565b67ffffffffffffffff1611156113da576040517f8a0704d300000000000000000000000000000000000000000000000000000000815260040160405180910390fd5b6103e86113e787876158a1565b67ffffffffffffffff161115611429576040517fb59f753a00000000000000000000000000000000000000000000000000000000815260040160405180910390fd5b611438878787878787876144ba565b61144185614873565b607954700100000000000000000000000000000000900467ffffffffffffffff1660000361158957607480547fffffffffffffffffffffffffffffffffffffffffffffffff00000000000000001667ffffffffffffffff878116918217909255600090815260756020526040902084905560795416156114e457607980547fffffffffffffffffffffffffffffffff000000000000000000000000000000001690555b6040517f33d6247d000000000000000000000000000000000000000000000000000000008152600481018590527f000000000000000000000000000000000000000000000000000000000000000073ffffffffffffffffffffffffffffffffffffffff16906333d6247d90602401600060405180830381600087803b15801561156c57600080fd5b505af1158015611580573d6000803e3d6000fd5b50505050611659565b611591614a53565b6079805467ffffffffffffffff169060006115ab836158c2565b825467ffffffffffffffff9182166101009390930a92830292820219169190911790915560408051608081018252428316815288831660208083019182528284018a8152606084018a815260795487166000908152607890935294909120925183549251861668010000000000000000027fffffffffffffffffffffffffffffffff000000000000000000000000000000009093169516949094171781559151600183015551600290910155505b604051838152339067ffffffffffffffff8716907f9c72852172521097ba7e1482e6b44b351323df0155f97f4ea18fcec28e1f5966906020015b60405180910390a350505050505050565b60768054610b8d906157f7565b607a5473ffffffffffffffffffffffffffffffffffffffff163314611702576040517f4755657900000000000000000000000000000000000000000000000000000000815260040160405180910390fd5b607b547c0100000000000000000000000000000000000000000000000000000000900460ff1661175e576040517ff6ba91a100000000000000000000000000000000000000000000000000000000815260040160405180910390fd5b607b80547fffffff00ffffffffffffffffffffffffffffffffffffffffffffffffffffffff1690556040517f854dd6ce5a1445c4c54388b21cffd11cf5bba1b9e763aec48ce3da75d617412f90600090a1565b600060705460646117c291906158e9565b905090565b607a5473ffffffffffffffffffffffffffffffffffffffff163314611818576040517f4755657900000000000000000000000000000000000000000000000000000000815260040160405180910390fd5b606f80547fff0000000000000000000000000000000000000000ffffffffffffffffffffff166b01000000000000000000000073ffffffffffffffffffffffffffffffffffffffff8416908102919091179091556040519081527ff54144f9611984021529f814a1cb6a41e22c58351510a0d9f7e822618abb9cc090602001610d1b565b6118a4614b04565b6118ae6000614b85565b565b60335473ffffffffffffffffffffffffffffffffffffffff163314611a185760006118d96129a1565b90508067ffffffffffffffff168267ffffffffffffffff1611611928576040517f812a372d00000000000000000000000000000000000000000000000000000000815260040160405180910390fd5b60735467ffffffffffffffff680100000000000000009091048116908316118061196e575067ffffffffffffffff80831660009081526072602052604090206001015416155b156119a5576040517f98c5c01400000000000000000000000000000000000000000000000000000000815260040160405180910390fd5b67ffffffffffffffff80831660009081526072602052604090206001015442916119d49162093a809116615879565b67ffffffffffffffff161115611a16576040517fd257555a00000000000000000000000000000000000000000000000000000000815260040160405180910390fd5b505b61118761421f565b607b5473ffffffffffffffffffffffffffffffffffffffff163314611a71576040517fd1ec4b2300000000000000000000000000000000000000000000000000000000815260040160405180910390fd5b607b54607a80547fffffffffffffffffffffffff00000000000000000000000000000000000000001673ffffffffffffffffffffffffffffffffffffffff90921691821790556040519081527f056dc487bbf0795d0bbb1b4f0af523a855503cff740bfb4d5475f7a90c091e8e9060200160405180910390a1565b6040517f70a08231000000000000000000000000000000000000000000000000000000008152306004820152600090819073ffffffffffffffffffffffffffffffffffffffff7f000000000000000000000000000000000000000000000000000000000000000016906370a0823190602401602060405180830381865afa158015611b7b573d6000803e3d6000fd5b505050506040513d601f19601f82011682018060405250810190611b9f9190615906565b90506000611bab6129a1565b60735467ffffffffffffffff680100000000000000008204811691611c0391700100000000000000000000000000000000820481169178010000000000000000000000000000000000000000000000009004166158a1565b611c0d9190615879565b611c1791906158a1565b67ffffffffffffffff16905080600003611c345760009250505090565b611c3e818361594e565b9250505090565b607a5473ffffffffffffffffffffffffffffffffffffffff163314611c96576040517f4755657900000000000000000000000000000000000000000000000000000000815260040160405180910390fd5b62093a8067ffffffffffffffff82161115611cdd576040517fcc96507000000000000000000000000000000000000000000000000000000000815260040160405180910390fd5b606f5460ff16611d445760795467ffffffffffffffff700100000000000000000000000000000000909104811690821610611d44576040517f48a05a9000000000000000000000000000000000000000000000000000000000815260040160405180910390fd5b607980547fffffffffffffffff0000000000000000ffffffffffffffffffffffffffffffff1670010000000000000000000000000000000067ffffffffffffffff8416908102919091179091556040519081527fc4121f4e22c69632ebb7cf1f462be0511dc034f999b52013eddfb24aab765c7590602001610d1b565b607a5473ffffffffffffffffffffffffffffffffffffffff163314611e12576040517f4755657900000000000000000000000000000000000000000000000000000000815260040160405180910390fd5b620151808167ffffffffffffffff161115611e59576040517fe067dfe800000000000000000000000000000000000000000000000000000000815260040160405180910390fd5b606f80547fffffffffffffffffffffffffffffffffffffffffffffff0000000000000000ff1661010067ffffffffffffffff8416908102919091179091556040519081527f1b023231a1ab6b5d93992f168fb44498e1a7e64cef58daff6f1c216de6a68c2890602001610d1b565b60745468010000000000000000900473ffffffffffffffffffffffffffffffffffffffff163314611f24576040517fbbcbbc0500000000000000000000000000000000000000000000000000000000815260040160405180910390fd5b611f33878787878787876144ba565b607480547fffffffffffffffffffffffffffffffffffffffffffffffff00000000000000001667ffffffffffffffff87811691821790925560009081526075602052604090208490556079541615611fae57607980547fffffffffffffffffffffffffffffffff000000000000000000000000000000001690555b6040517f33d6247d000000000000000000000000000000000000000000000000000000008152600481018590527f000000000000000000000000000000000000000000000000000000000000000073ffffffffffffffffffffffffffffffffffffffff16906333d6247d90602401600060405180830381600087803b15801561203657600080fd5b505af115801561204a573d6000803e3d6000fd5b505060405185815233925067ffffffffffffffff881691507fcb339b570a7f0b25afa7333371ff11192092a0aeace12b671f4c212f2815c6fe90602001611693565b607a5473ffffffffffffffffffffffffffffffffffffffff1633146120dd576040517f4755657900000000000000000000000000000000000000000000000000000000815260040160405180910390fd5b607b80547fffffffffffffffffffffffff00000000000000000000000000000000000000001673ffffffffffffffffffffffffffffffffffffffff83169081179091556040519081527fa5b56b7906fd0a20e3f35120dd8343db1e12e037a6c90111c7e42885e82a1ce690602001610d1b565b600067ffffffff0000000167ffffffffffffffff8316108015612188575067ffffffff00000001604083901c67ffffffffffffffff16105b80156121a9575067ffffffff00000001608083901c67ffffffffffffffff16105b80156121c0575067ffffffff0000000160c083901c105b156121cd57506001919050565b506000919050565b919050565b606f5460ff1615612217576040517f2f0047fc00000000000000000000000000000000000000000000000000000000815260040160405180910390fd5b606f546b010000000000000000000000900473ffffffffffffffffffffffffffffffffffffffff163314612277576040517f11e7be1500000000000000000000000000000000000000000000000000000000815260040160405180910390fd5b8160008190036122b3576040517fcb591a5f00000000000000000000000000000000000000000000000000000000815260040160405180910390fd5b6103e88111156122ef576040517fb59f753a00000000000000000000000000000000000000000000000000000000815260040160405180910390fd5b7f000000000000000000000000000000000000000000000000000000000000000073ffffffffffffffffffffffffffffffffffffffff166379e2cf976040518163ffffffff1660e01b8152600401600060405180830381600087803b15801561235757600080fd5b505af115801561236b573d6000803e3d6000fd5b5050505060007f000000000000000000000000000000000000000000000000000000000000000073ffffffffffffffffffffffffffffffffffffffff16635ca1e1656040518163ffffffff1660e01b8152600401602060405180830381865afa1580156123dc573d6000803e3d6000fd5b505050506040513d601f19601f820116820180604052508101906124009190615906565b60735467ffffffffffffffff68010000000000000000820481166000818152607260205260408120549495504294919370010000000000000000000000000000000090049092169182905b8781101561275e5760008b8b8381811061246757612467615962565b90506020028101906124799190615991565b61248290615a63565b8051805160209091012060408201519192509067ffffffffffffffff161561267857856124ae816158c2565b9650506000818360200151846040015160405160200161250693929190928352602083019190915260c01b7fffffffffffffffff00000000000000000000000000000000000000000000000016604082015260480190565b604080517fffffffffffffffffffffffffffffffffffffffffffffffffffffffffffffffe0818403018152918152815160209283012067ffffffffffffffff8a1660009081526071909352912054909150811461258f576040517fce3d755e00000000000000000000000000000000000000000000000000000000815260040160405180910390fd5b60208381015160408086015181519384018a905290830185905260608084019290925260c01b7fffffffffffffffff0000000000000000000000000000000000000000000000001660808301528d901b7fffffffffffffffffffffffffffffffffffffffff0000000000000000000000001660888201527f0100000000000000000000000000000000000000000000000000000000000000609c820152609d01604051602081830303815290604052805190602001209550607160008867ffffffffffffffff1667ffffffffffffffff1681526020019081526020016000206000905550612749565b8151516201d4c010156126b7576040517fa29a6c7c00000000000000000000000000000000000000000000000000000000815260040160405180910390fd5b604080516020810187905290810182905260608082018b905260c08a901b7fffffffffffffffff0000000000000000000000000000000000000000000000001660808301528c901b7fffffffffffffffffffffffffffffffffffffffff0000000000000000000000001660888201526000609c820152609d016040516020818303038152906040528051906020012094505b5050808061275690615a6f565b91505061244b565b506127698785615879565b60735490945067ffffffffffffffff7801000000000000000000000000000000000000000000000000909104811690841611156127d2576040517fc630a00d00000000000000000000000000000000000000000000000000000000815260040160405180910390fd5b604080516060810182528381524267ffffffffffffffff908116602080840191825260738054680100000000000000009081900485168688019081528b861660008181526072909552979093209551865592516001909501805492519585167fffffffffffffffffffffffffffffffff0000000000000000000000000000000090931692909217948416830294909417905582547fffffffffffffffffffffffffffffffff0000000000000000ffffffffffffffff169302929092179055879082811690851614612905576128a782856158a1565b6128bb9067ffffffffffffffff1682615aa7565b607380547fffffffffffffffff0000000000000000ffffffffffffffffffffffffffffffff1670010000000000000000000000000000000067ffffffffffffffff88160217905590505b61295733308360705461291891906158e9565b73ffffffffffffffffffffffffffffffffffffffff7f000000000000000000000000000000000000000000000000000000000000000016929190614bfc565b61295f614a53565b60405167ffffffffffffffff8616907f303446e6a8cb73c83dff421c0b1d5e5ce0719dab1bff13660fc254e58cc17fce90600090a25050505050505050505050565b60795460009067ffffffffffffffff16156129e5575060795467ffffffffffffffff9081166000908152607860205260409020546801000000000000000090041690565b5060745467ffffffffffffffff1690565b607a5473ffffffffffffffffffffffffffffffffffffffff163314612a47576040517f4755657900000000000000000000000000000000000000000000000000000000815260040160405180910390fd5b6076612a538282615b08565b507f6b8f723a4c7a5335cafae8a598a0aa0301be1387c037dccc085b62add6448b2081604051610d1b919061537e565b600054610100900460ff1615808015612aa35750600054600160ff909116105b80612abd5750303b158015612abd575060005460ff166001145b612b4e576040517f08c379a000000000000000000000000000000000000000000000000000000000815260206004820152602e60248201527f496e697469616c697a61626c653a20636f6e747261637420697320616c72656160448201527f647920696e697469616c697a656400000000000000000000000000000000000060648201526084015b60405180910390fd5b600080547fffffffffffffffffffffffffffffffffffffffffffffffffffffffffffffff001660011790558015612bac57600080547fffffffffffffffffffffffffffffffffffffffffffffffffffffffffffff00ff166101001790555b612bb960208801886154d1565b607a80547fffffffffffffffffffffffff00000000000000000000000000000000000000001673ffffffffffffffffffffffffffffffffffffffff92909216919091179055612c0e60408801602089016154d1565b606f805473ffffffffffffffffffffffffffffffffffffffff929092166b010000000000000000000000027fff0000000000000000000000000000000000000000ffffffffffffffffffffff909216919091179055612c7360808801606089016154d1565b6074805473ffffffffffffffffffffffffffffffffffffffff9290921668010000000000000000027fffffffff0000000000000000000000000000000000000000ffffffffffffffff9092169190911790556000805260756020527ff9e3fbf150b7a0077118526f473c53cb4734f166167e2c6213e3567dd390b4ad8690556076612cfe8682615b08565b506077612d0b8582615b08565b5062093a80612d206060890160408a01615409565b67ffffffffffffffff161115612d62576040517fcc96507000000000000000000000000000000000000000000000000000000000815260040160405180910390fd5b612d726060880160408901615409565b6079805467ffffffffffffffff92909216700100000000000000000000000000000000027fffffffffffffffff0000000000000000ffffffffffffffffffffffffffffffff90921691909117905562093a80612dd460a0890160808a01615409565b67ffffffffffffffff161115612e16576040517f1d06e87900000000000000000000000000000000000000000000000000000000815260040160405180910390fd5b612e2660a0880160808901615409565b6079805477ffffffffffffffffffffffffffffffffffffffffffffffff16780100000000000000000000000000000000000000000000000067ffffffffffffffff939093169290920291909117905567016345785d8a0000607055606f80547fffffffffffffffffffffffffffffffffffffffffff00000000000000000000ff166a03ea000000000000070800179055607b80547fffffff000000000000000000ffffffffffffffffffffffffffffffffffffffff167c0100000000000697800000000000000000000000000000000000000000179055612f05614cde565b7fed7be53c9f1a96a481223b15568a5b1a475e01a74b347d6ca187c8bf0c078cd660007f00000000000000000000000000000000000000000000000000000000000000008585604051612f5b9493929190615c6b565b60405180910390a18015612fc657600080547fffffffffffffffffffffffffffffffffffffffffffffffffffffffffffff00ff169055604051600181527f7f26b83ff96e1f2b6a682f133852f6798a09c465da95921460cefb38474024989060200160405180910390a15b50505050505050565b607b547c0100000000000000000000000000000000000000000000000000000000900460ff161561302c576040517f24eff8c300000000000000000000000000000000000000000000000000000000815260040160405180910390fd5b606f5460ff1615613069576040517f2f0047fc00000000000000000000000000000000000000000000000000000000815260040160405180910390fd5b8060008190036130a5576040517fcb591a5f00000000000000000000000000000000000000000000000000000000815260040160405180910390fd5b6103e88111156130e1576040517fb59f753a00000000000000000000000000000000000000000000000000000000815260040160405180910390fd5b60735467ffffffffffffffff7801000000000000000000000000000000000000000000000000820481169161312c918491700100000000000000000000000000000000900416615ca3565b1115613164576040517fc630a00d00000000000000000000000000000000000000000000000000000000815260040160405180910390fd5b60735467ffffffffffffffff680100000000000000008204811660008181526072602052604081205491937001000000000000000000000000000000009004909216915b848110156134385760008787838181106131c4576131c4615962565b90506020028101906131d69190615991565b6131df90615a63565b9050836131eb816158c2565b8251805160209182012081850151604080870151905194995091945060009361324d9386939101928352602083019190915260c01b7fffffffffffffffff00000000000000000000000000000000000000000000000016604082015260480190565b604080517fffffffffffffffffffffffffffffffffffffffffffffffffffffffffffffffe0818403018152918152815160209283012067ffffffffffffffff89166000908152607190935291205490915081146132d6576040517fce3d755e00000000000000000000000000000000000000000000000000000000815260040160405180910390fd5b67ffffffffffffffff86166000908152607160205260408120556132fb600189615aa7565b840361336a5742607b60149054906101000a900467ffffffffffffffff1684604001516133289190615879565b67ffffffffffffffff16111561336a576040517fc44a082100000000000000000000000000000000000000000000000000000000815260040160405180910390fd5b602083810151604080860151815193840189905290830185905260608084019290925260c01b7fffffffffffffffff00000000000000000000000000000000000000000000000016608083015233901b7fffffffffffffffffffffffffffffffffffffffff0000000000000000000000001660888201527f0100000000000000000000000000000000000000000000000000000000000000609c820152609d01604051602081830303815290604052805190602001209450505050808061343090615a6f565b9150506131a8565b506134438484615879565b6040805160608101825283815267ffffffffffffffff4281166020808401918252607380546801000000000000000090819004851686880190815285891660008181526072909552888520975188559451600190970180549151871683027fffffffffffffffffffffffffffffffff0000000000000000000000000000000090921697871697909717179095558054938916700100000000000000000000000000000000027fffffffffffffffff0000000000000000ffffffffffffffffffffffffffffffff958402959095167fffffffffffffffff00000000000000000000000000000000ffffffffffffffff9094169390931793909317909155915192955090917f648a61dd2438f072f5a1960939abd30f37aea80d2e94c9792ad142d3e0a490a49190a2505050505050565b607a5473ffffffffffffffffffffffffffffffffffffffff1633146135c3576040517f4755657900000000000000000000000000000000000000000000000000000000815260040160405180910390fd5b7f000000000000000000000000000000000000000000000000000000000000000073ffffffffffffffffffffffffffffffffffffffff1663dbc169766040518163ffffffff1660e01b8152600401600060405180830381600087803b15801561362b57600080fd5b505af115801561363f573d6000803e3d6000fd5b505050506118ae614d7e565b60745468010000000000000000900473ffffffffffffffffffffffffffffffffffffffff1633146136a8576040517fbbcbbc0500000000000000000000000000000000000000000000000000000000815260040160405180910390fd5b6136b88888888888888888613dd7565b607480547fffffffffffffffffffffffffffffffffffffffffffffffff00000000000000001667ffffffffffffffff8781169182179092556000908152607560205260409020849055607954161561373357607980547fffffffffffffffffffffffffffffffff000000000000000000000000000000001690555b6040517f33d6247d000000000000000000000000000000000000000000000000000000008152600481018590527f000000000000000000000000000000000000000000000000000000000000000073ffffffffffffffffffffffffffffffffffffffff16906333d6247d90602401600060405180830381600087803b1580156137bb57600080fd5b505af11580156137cf573d6000803e3d6000fd5b50506079805477ffffffffffffffffffffffffffffffffffffffffffffffff167a093a800000000000000000000000000000000000000000000000001790555050604051838152339067ffffffffffffffff8716907fcc1b5520188bf1dd3e63f98164b577c4d75c11a619ddea692112f0d1aec4cf729060200160405180910390a35050505050505050565b607b547c0100000000000000000000000000000000000000000000000000000000900460ff16156138b8576040517f24eff8c300000000000000000000000000000000000000000000000000000000815260040160405180910390fd5b606f5460ff16156138f5576040517f2f0047fc00000000000000000000000000000000000000000000000000000000815260040160405180910390fd5b60006138ff6117b1565b90508181111561393b576040517f4732fdb500000000000000000000000000000000000000000000000000000000815260040160405180910390fd5b611388831115613977576040517fa29a6c7c00000000000000000000000000000000000000000000000000000000815260040160405180910390fd5b6139b973ffffffffffffffffffffffffffffffffffffffff7f000000000000000000000000000000000000000000000000000000000000000016333084614bfc565b60007f000000000000000000000000000000000000000000000000000000000000000073ffffffffffffffffffffffffffffffffffffffff16635ca1e1656040518163ffffffff1660e01b8152600401602060405180830381865afa158015613a26573d6000803e3d6000fd5b505050506040513d601f19601f82011682018060405250810190613a4a9190615906565b60738054919250780100000000000000000000000000000000000000000000000090910467ffffffffffffffff16906018613a84836158c2565b91906101000a81548167ffffffffffffffff021916908367ffffffffffffffff160217905550508484604051613abb929190615cb6565b60408051918290038220602083015281018290527fffffffffffffffff0000000000000000000000000000000000000000000000004260c01b166060820152606801604080518083037fffffffffffffffffffffffffffffffffffffffffffffffffffffffffffffffe001815291815281516020928301206073547801000000000000000000000000000000000000000000000000900467ffffffffffffffff1660009081526071909352912055323303613beb57607354604080518381523360208201526060918101829052600091810191909152780100000000000000000000000000000000000000000000000090910467ffffffffffffffff16907ff94bb37db835f1ab585ee00041849a09b12cd081d77fa15ca070757619cbc9319060800160405180910390a2613c4a565b607360189054906101000a900467ffffffffffffffff1667ffffffffffffffff167ff94bb37db835f1ab585ee00041849a09b12cd081d77fa15ca070757619cbc93182338888604051613c419493929190615cc6565b60405180910390a25b5050505050565b607a5473ffffffffffffffffffffffffffffffffffffffff163314613ca2576040517f4755657900000000000000000000000000000000000000000000000000000000815260040160405180910390fd5b607480547fffffffff0000000000000000000000000000000000000000ffffffffffffffff166801000000000000000073ffffffffffffffffffffffffffffffffffffffff8416908102919091179091556040519081527f61f8fec29495a3078e9271456f05fb0707fd4e41f7661865f80fc437d06681ca90602001610d1b565b613d2b614b04565b73ffffffffffffffffffffffffffffffffffffffff8116613dce576040517f08c379a000000000000000000000000000000000000000000000000000000000815260206004820152602660248201527f4f776e61626c653a206e6577206f776e657220697320746865207a65726f206160448201527f64647265737300000000000000000000000000000000000000000000000000006064820152608401612b45565b61118781614b85565b600067ffffffffffffffff891615613ea55760795467ffffffffffffffff908116908a161115613e33576040517fbb14c20500000000000000000000000000000000000000000000000000000000815260040160405180910390fd5b5067ffffffffffffffff8089166000908152607860205260409020600281015481549092898116680100000000000000009092041614613e9f576040517f2bd2e3e700000000000000000000000000000000000000000000000000000000815260040160405180910390fd5b50613f41565b5067ffffffffffffffff861660009081526075602052604090205480613ef7576040517f4997b98600000000000000000000000000000000000000000000000000000000815260040160405180910390fd5b60745467ffffffffffffffff9081169088161115613f41576040517f1e56e9e200000000000000000000000000000000000000000000000000000000815260040160405180910390fd5b60795467ffffffffffffffff9081169089161180613f7357508867ffffffffffffffff168867ffffffffffffffff1611155b80613f9a575060795467ffffffffffffffff68010000000000000000909104811690891611155b15613fd1576040517fbfa7079f00000000000000000000000000000000000000000000000000000000815260040160405180910390fd5b67ffffffffffffffff888116600090815260786020526040902054680100000000000000009004811690871614614034576040517f32a2a77f00000000000000000000000000000000000000000000000000000000815260040160405180910390fd5b60006140438888888589610d26565b905060007f30644e72e131a029b85045b68181585d2833e84879b9709143e1f593f00000016002836040516140789190615cfc565b602060405180830381855afa158015614095573d6000803e3d6000fd5b5050506040513d601f19601f820116820180604052508101906140b89190615906565b6140c29190615d0e565b6040805160208101825282815290517f8d8f8a5c00000000000000000000000000000000000000000000000000000000815291925073ffffffffffffffffffffffffffffffffffffffff7f00000000000000000000000000000000000000000000000000000000000000001691638d8f8a5c916141459189918991600401615d22565b602060405180830381865afa158015614162573d6000803e3d6000fd5b505050506040513d601f19601f820116820180604052508101906141869190615d6a565b6141bc576040517f09bde33900000000000000000000000000000000000000000000000000000000815260040160405180910390fd5b67ffffffffffffffff8a16600090815260786020526040902060020154869003614212576040517fa47276bd00000000000000000000000000000000000000000000000000000000815260040160405180910390fd5b5050505050505050505050565b7f000000000000000000000000000000000000000000000000000000000000000073ffffffffffffffffffffffffffffffffffffffff16632072f6c56040518163ffffffff1660e01b8152600401600060405180830381600087803b15801561428757600080fd5b505af115801561429b573d6000803e3d6000fd5b505050506118ae614e0d565b60795467ffffffffffffffff6801000000000000000090910481169082161115806142e1575060795467ffffffffffffffff908116908216115b15614318576040517fd086b70b00000000000000000000000000000000000000000000000000000000815260040160405180910390fd5b67ffffffffffffffff818116600081815260786020908152604080832080546074805468010000000000000000928390049098167fffffffffffffffffffffffffffffffffffffffffffffffff000000000000000090981688179055600282015487865260759094529382902092909255607980547fffffffffffffffffffffffffffffffff0000000000000000ffffffffffffffff169390940292909217909255600182015490517f33d6247d00000000000000000000000000000000000000000000000000000000815260048101919091529091907f000000000000000000000000000000000000000000000000000000000000000073ffffffffffffffffffffffffffffffffffffffff16906333d6247d90602401600060405180830381600087803b15801561444a57600080fd5b505af115801561445e573d6000803e3d6000fd5b505050508267ffffffffffffffff168167ffffffffffffffff167f328d3c6c0fd6f1be0515e422f2d87e59f25922cbc2233568515a0c4bc3f8510e84600201546040516144ad91815260200190565b60405180910390a3505050565b6000806144c56129a1565b905067ffffffffffffffff8916156145955760795467ffffffffffffffff908116908a161115614521576040517fbb14c20500000000000000000000000000000000000000000000000000000000815260040160405180910390fd5b67ffffffffffffffff808a1660009081526078602052604090206002810154815490945090918a811668010000000000000000909204161461458f576040517f2bd2e3e700000000000000000000000000000000000000000000000000000000815260040160405180910390fd5b50614636565b67ffffffffffffffff88166000908152607560205260409020549150816145e8576040517f4997b98600000000000000000000000000000000000000000000000000000000815260040160405180910390fd5b8067ffffffffffffffff168867ffffffffffffffff161115614636576040517f1e56e9e200000000000000000000000000000000000000000000000000000000815260040160405180910390fd5b8067ffffffffffffffff168767ffffffffffffffff1611614683576040517fb9b18f5700000000000000000000000000000000000000000000000000000000815260040160405180910390fd5b6000614692898989868a610d26565b905060007f30644e72e131a029b85045b68181585d2833e84879b9709143e1f593f00000016002836040516146c79190615cfc565b602060405180830381855afa1580156146e4573d6000803e3d6000fd5b5050506040513d601f19601f820116820180604052508101906147079190615906565b6147119190615d0e565b6040805160208101825282815290517f8d8f8a5c00000000000000000000000000000000000000000000000000000000815291925073ffffffffffffffffffffffffffffffffffffffff7f00000000000000000000000000000000000000000000000000000000000000001691638d8f8a5c91614794918a918a91600401615d22565b602060405180830381865afa1580156147b1573d6000803e3d6000fd5b505050506040513d601f19601f820116820180604052508101906147d59190615d6a565b61480b576040517f09bde33900000000000000000000000000000000000000000000000000000000815260040160405180910390fd5b61421233614819858c6158a1565b67ffffffffffffffff1661482b611aec565b61483591906158e9565b73ffffffffffffffffffffffffffffffffffffffff7f0000000000000000000000000000000000000000000000000000000000000000169190614ea0565b600061487d6129a1565b90508160008061488d84846158a1565b606f5467ffffffffffffffff91821692506000916148b19161010090041642615aa7565b90505b8467ffffffffffffffff168467ffffffffffffffff161461493c5767ffffffffffffffff8085166000908152607260205260409020600181015490911682101561491a57600181015468010000000000000000900467ffffffffffffffff169450614936565b61492486866158a1565b67ffffffffffffffff1693505061493c565b506148b4565b60006149488484615aa7565b90508381101561499f57808403600c81116149635780614966565b600c5b9050806103e80a81606f60099054906101000a900461ffff1661ffff160a60705402816149955761499561591f565b0460705550614a0f565b838103600c81116149b057806149b3565b600c5b90506000816103e80a82606f60099054906101000a900461ffff1661ffff160a670de0b6b3a764000002816149ea576149ea61591f565b04905080607054670de0b6b3a76400000281614a0857614a0861591f565b0460705550505b683635c9adc5dea000006070541115614a3457683635c9adc5dea00000607055612fc6565b633b9aca006070541015612fc657633b9aca0060705550505050505050565b60795467ffffffffffffffff6801000000000000000082048116911611156118ae57607954600090614a9c9068010000000000000000900467ffffffffffffffff166001615879565b9050614aa781610efd565b1561118757607954600090600290614aca90849067ffffffffffffffff166158a1565b614ad49190615d8c565b614ade9083615879565b9050614ae981610efd565b15614afb57614af7816142a7565b5050565b614af7826142a7565b60335473ffffffffffffffffffffffffffffffffffffffff1633146118ae576040517f08c379a000000000000000000000000000000000000000000000000000000000815260206004820181905260248201527f4f776e61626c653a2063616c6c6572206973206e6f7420746865206f776e65726044820152606401612b45565b6033805473ffffffffffffffffffffffffffffffffffffffff8381167fffffffffffffffffffffffff0000000000000000000000000000000000000000831681179093556040519116919082907f8be0079c531659141344cd1fd0a4f28419497f9722a3daafe3b4186f6b6457e090600090a35050565b60405173ffffffffffffffffffffffffffffffffffffffff80851660248301528316604482015260648101829052614cd89085907f23b872dd00000000000000000000000000000000000000000000000000000000906084015b604080517fffffffffffffffffffffffffffffffffffffffffffffffffffffffffffffffe08184030181529190526020810180517bffffffffffffffffffffffffffffffffffffffffffffffffffffffff167fffffffff0000000000000000000000000000000000000000000000000000000090931692909217909152614efb565b50505050565b600054610100900460ff16614d75576040517f08c379a000000000000000000000000000000000000000000000000000000000815260206004820152602b60248201527f496e697469616c697a61626c653a20636f6e7472616374206973206e6f74206960448201527f6e697469616c697a696e670000000000000000000000000000000000000000006064820152608401612b45565b6118ae33614b85565b606f5460ff16614dba576040517f5386698100000000000000000000000000000000000000000000000000000000815260040160405180910390fd5b606f80547fffffffffffffffffffffffffffffffffffffffffffffffffffffffffffffff001690556040517f1e5e34eea33501aecf2ebec9fe0e884a40804275ea7fe10b2ba084c8374308b390600090a1565b606f5460ff1615614e4a576040517f2f0047fc00000000000000000000000000000000000000000000000000000000815260040160405180910390fd5b606f80547fffffffffffffffffffffffffffffffffffffffffffffffffffffffffffffff001660011790556040517f2261efe5aef6fedc1fd1550b25facc9181745623049c7901287030b9ad1a549790600090a1565b60405173ffffffffffffffffffffffffffffffffffffffff8316602482015260448101829052614ef69084907fa9059cbb0000000000000000000000000000000000000000000000000000000090606401614c56565b505050565b6000614f5d826040518060400160405280602081526020017f5361666545524332303a206c6f772d6c6576656c2063616c6c206661696c65648152508573ffffffffffffffffffffffffffffffffffffffff166150079092919063ffffffff16565b805190915015614ef65780806020019051810190614f7b9190615d6a565b614ef6576040517f08c379a000000000000000000000000000000000000000000000000000000000815260206004820152602a60248201527f5361666545524332303a204552433230206f7065726174696f6e20646964206e60448201527f6f742073756363656564000000000000000000000000000000000000000000006064820152608401612b45565b6060615016848460008561501e565b949350505050565b6060824710156150b0576040517f08c379a000000000000000000000000000000000000000000000000000000000815260206004820152602660248201527f416464726573733a20696e73756666696369656e742062616c616e636520666f60448201527f722063616c6c00000000000000000000000000000000000000000000000000006064820152608401612b45565b6000808673ffffffffffffffffffffffffffffffffffffffff1685876040516150d99190615cfc565b60006040518083038185875af1925050503d8060008114615116576040519150601f19603f3d011682016040523d82523d6000602084013e61511b565b606091505b509150915061512c87838387615137565b979650505050505050565b606083156151cd5782516000036151c65773ffffffffffffffffffffffffffffffffffffffff85163b6151c6576040517f08c379a000000000000000000000000000000000000000000000000000000000815260206004820152601d60248201527f416464726573733a2063616c6c20746f206e6f6e2d636f6e74726163740000006044820152606401612b45565b5081615016565b61501683838151156151e25781518083602001fd5b806040517f08c379a0000000000000000000000000000000000000000000000000000000008152600401612b45919061537e565b803567ffffffffffffffff811681146121d557600080fd5b60008083601f84011261524057600080fd5b50813567ffffffffffffffff81111561525857600080fd5b60208301915083602082850101111561527057600080fd5b9250929050565b60008060008060008060008060e0898b03121561529357600080fd5b61529c89615216565b97506152aa60208a01615216565b96506152b860408a01615216565b95506152c660608a01615216565b94506080890135935060a0890135925060c089013567ffffffffffffffff8111156152f057600080fd5b6152fc8b828c0161522e565b999c989b5096995094979396929594505050565b60005b8381101561532b578181015183820152602001615313565b50506000910152565b6000815180845261534c816020860160208601615310565b601f017fffffffffffffffffffffffffffffffffffffffffffffffffffffffffffffffe0169290920160200192915050565b6020815260006153916020830184615334565b9392505050565b6000602082840312156153aa57600080fd5b813561ffff8116811461539157600080fd5b600080600080600060a086880312156153d457600080fd5b6153dd86615216565b94506153eb60208701615216565b94979496505050506040830135926060810135926080909101359150565b60006020828403121561541b57600080fd5b61539182615216565b600080600080600080600060c0888a03121561543f57600080fd5b61544888615216565b965061545660208901615216565b955061546460408901615216565b9450606088013593506080880135925060a088013567ffffffffffffffff81111561548e57600080fd5b61549a8a828b0161522e565b989b979a50959850939692959293505050565b803573ffffffffffffffffffffffffffffffffffffffff811681146121d557600080fd5b6000602082840312156154e357600080fd5b615391826154ad565b6000602082840312156154fe57600080fd5b5035919050565b60008083601f84011261551757600080fd5b50813567ffffffffffffffff81111561552f57600080fd5b6020830191508360208260051b850101111561527057600080fd5b60008060006040848603121561555f57600080fd5b833567ffffffffffffffff81111561557657600080fd5b61558286828701615505565b90945092506155959050602085016154ad565b90509250925092565b7f4e487b7100000000000000000000000000000000000000000000000000000000600052604160045260246000fd5b600067ffffffffffffffff808411156155e8576155e861559e565b604051601f85017fffffffffffffffffffffffffffffffffffffffffffffffffffffffffffffffe0908116603f0116810190828211818310171561562e5761562e61559e565b8160405280935085815286868601111561564757600080fd5b858560208301376000602087830101525050509392505050565b600082601f83011261567257600080fd5b615391838335602085016155cd565b60006020828403121561569357600080fd5b813567ffffffffffffffff8111156156aa57600080fd5b61501684828501615661565b6000806000806000808688036101208112156156d157600080fd5b60a08112156156df57600080fd5b5086955060a0870135945060c087013567ffffffffffffffff8082111561570557600080fd5b6157118a838b01615661565b955060e089013591508082111561572757600080fd5b6157338a838b01615661565b945061010089013591508082111561574a57600080fd5b5061575789828a0161522e565b979a9699509497509295939492505050565b6000806020838503121561577c57600080fd5b823567ffffffffffffffff81111561579357600080fd5b61579f85828601615505565b90969095509350505050565b6000806000604084860312156157c057600080fd5b833567ffffffffffffffff8111156157d757600080fd5b6157e38682870161522e565b909790965060209590950135949350505050565b600181811c9082168061580b57607f821691505b602082108103615844577f4e487b7100000000000000000000000000000000000000000000000000000000600052602260045260246000fd5b50919050565b7f4e487b7100000000000000000000000000000000000000000000000000000000600052601160045260246000fd5b67ffffffffffffffff81811683821601908082111561589a5761589a61584a565b5092915050565b67ffffffffffffffff82811682821603908082111561589a5761589a61584a565b600067ffffffffffffffff8083168181036158df576158df61584a565b6001019392505050565b80820281158282048414176159005761590061584a565b92915050565b60006020828403121561591857600080fd5b5051919050565b7f4e487b7100000000000000000000000000000000000000000000000000000000600052601260045260246000fd5b60008261595d5761595d61591f565b500490565b7f4e487b7100000000000000000000000000000000000000000000000000000000600052603260045260246000fd5b600082357fffffffffffffffffffffffffffffffffffffffffffffffffffffffffffffffa18336030181126159c557600080fd5b9190910192915050565b6000606082840312156159e157600080fd5b6040516060810167ffffffffffffffff8282108183111715615a0557615a0561559e565b816040528293508435915080821115615a1d57600080fd5b508301601f81018513615a2f57600080fd5b615a3e858235602084016155cd565b82525060208301356020820152615a5760408401615216565b60408201525092915050565b600061590036836159cf565b60007fffffffffffffffffffffffffffffffffffffffffffffffffffffffffffffffff8203615aa057615aa061584a565b5060010190565b818103818111156159005761590061584a565b601f821115614ef657600081815260208120601f850160051c81016020861015615ae15750805b601f850160051c820191505b81811015615b0057828155600101615aed565b505050505050565b815167ffffffffffffffff811115615b2257615b2261559e565b615b3681615b3084546157f7565b84615aba565b602080601f831160018114615b895760008415615b535750858301515b7fffffffffffffffffffffffffffffffffffffffffffffffffffffffffffffffff600386901b1c1916600185901b178555615b00565b6000858152602081207fffffffffffffffffffffffffffffffffffffffffffffffffffffffffffffffe08616915b82811015615bd657888601518255948401946001909101908401615bb7565b5085821015615c1257878501517fffffffffffffffffffffffffffffffffffffffffffffffffffffffffffffffff600388901b60f8161c191681555b5050505050600190811b01905550565b8183528181602085013750600060208284010152600060207fffffffffffffffffffffffffffffffffffffffffffffffffffffffffffffffe0601f840116840101905092915050565b600067ffffffffffffffff808716835280861660208401525060606040830152615c99606083018486615c22565b9695505050505050565b808201808211156159005761590061584a565b8183823760009101908152919050565b84815273ffffffffffffffffffffffffffffffffffffffff84166020820152606060408201526000615c99606083018486615c22565b600082516159c5818460208701615310565b600082615d1d57615d1d61591f565b500690565b604081526000615d36604083018587615c22565b905060208083018460005b6001811015615d5e57815183529183019190830190600101615d41565b50505050949350505050565b600060208284031215615d7c57600080fd5b8151801515811461539157600080fd5b600067ffffffffffffffff80841680615da757615da761591f565b9216919091049291505056fea2646970667358221220da0d190ebf8563c643471acb99983f193c9de99dd52da52e08b505fc88484c4264736f6c63430008110033",
  "linkReferences": {},
  "deployedLinkReferences": {}
}