{
  "_format": "hh-sol-artifact-1",
  "contractName": "PolygonZkEVM",
  "sourceName": "contracts/PolygonZkEVM.sol",
  "abi": [
    {
      "anonymous": false,
      "inputs": [
        {
          "indexed": false,
          "internalType": "address",
          "name": "newAdmin",
          "type": "address"
        }
      ],
      "name": "AcceptAdminRole",
      "type": "event"
    },
    {
      "anonymous": false,
      "inputs": [
        {
          "indexed": true,
          "internalType": "uint64",
          "name": "numBatch",
          "type": "uint64"
        },
        {
          "indexed": false,
          "internalType": "bytes32",
          "name": "stateRoot",
          "type": "bytes32"
        },
        {
          "indexed": true,
          "internalType": "uint64",
          "name": "pendingStateNum",
          "type": "uint64"
        }
      ],
      "name": "ConsolidatePendingState",
      "type": "event"
    },
    {
      "anonymous": false,
      "inputs": [],
      "name": "EmergencyStateActivated",
      "type": "event"
    },
    {
      "anonymous": false,
      "inputs": [],
      "name": "EmergencyStateDeactivated",
      "type": "event"
    },
    {
      "anonymous": false,
      "inputs": [
        {
          "indexed": true,
          "internalType": "uint64",
          "name": "forceBatchNum",
          "type": "uint64"
        },
        {
          "indexed": false,
          "internalType": "bytes32",
          "name": "lastGlobalExitRoot",
          "type": "bytes32"
        },
        {
          "indexed": false,
          "internalType": "address",
          "name": "sequencer",
          "type": "address"
        },
        {
          "indexed": false,
          "internalType": "bytes",
          "name": "transactions",
          "type": "bytes"
        }
      ],
      "name": "ForceBatch",
      "type": "event"
    },
    {
      "anonymous": false,
      "inputs": [
        {
          "indexed": false,
          "internalType": "uint8",
          "name": "version",
          "type": "uint8"
        }
      ],
      "name": "Initialized",
      "type": "event"
    },
    {
      "anonymous": false,
      "inputs": [
        {
          "indexed": true,
          "internalType": "uint64",
          "name": "numBatch",
          "type": "uint64"
        },
        {
          "indexed": false,
          "internalType": "bytes32",
          "name": "stateRoot",
          "type": "bytes32"
        },
        {
          "indexed": true,
          "internalType": "address",
          "name": "aggregator",
          "type": "address"
        }
      ],
      "name": "OverridePendingState",
      "type": "event"
    },
    {
      "anonymous": false,
      "inputs": [
        {
          "indexed": true,
          "internalType": "address",
          "name": "previousOwner",
          "type": "address"
        },
        {
          "indexed": true,
          "internalType": "address",
          "name": "newOwner",
          "type": "address"
        }
      ],
      "name": "OwnershipTransferred",
      "type": "event"
    },
    {
      "anonymous": false,
      "inputs": [
        {
          "indexed": false,
          "internalType": "bytes32",
          "name": "storedStateRoot",
          "type": "bytes32"
        },
        {
          "indexed": false,
          "internalType": "bytes32",
          "name": "provedStateRoot",
          "type": "bytes32"
        }
      ],
      "name": "ProveNonDeterministicPendingState",
      "type": "event"
    },
    {
      "anonymous": false,
      "inputs": [
        {
          "indexed": true,
          "internalType": "uint64",
          "name": "numBatch",
          "type": "uint64"
        }
      ],
      "name": "SequenceBatches",
      "type": "event"
    },
    {
      "anonymous": false,
      "inputs": [
        {
          "indexed": true,
          "internalType": "uint64",
          "name": "numBatch",
          "type": "uint64"
        }
      ],
      "name": "SequenceForceBatches",
      "type": "event"
    },
    {
      "anonymous": false,
      "inputs": [
        {
          "indexed": false,
          "internalType": "bool",
          "name": "newForceBatchAllowed",
          "type": "bool"
        }
      ],
      "name": "SetForceBatchAllowed",
      "type": "event"
    },
    {
      "anonymous": false,
      "inputs": [
        {
          "indexed": false,
          "internalType": "uint16",
          "name": "newMultiplierBatchFee",
          "type": "uint16"
        }
      ],
      "name": "SetMultiplierBatchFee",
      "type": "event"
    },
    {
      "anonymous": false,
      "inputs": [
        {
          "indexed": false,
          "internalType": "uint64",
          "name": "newPendingStateTimeout",
          "type": "uint64"
        }
      ],
      "name": "SetPendingStateTimeout",
      "type": "event"
    },
    {
      "anonymous": false,
      "inputs": [
        {
          "indexed": false,
          "internalType": "address",
          "name": "newTrustedAggregator",
          "type": "address"
        }
      ],
      "name": "SetTrustedAggregator",
      "type": "event"
    },
    {
      "anonymous": false,
      "inputs": [
        {
          "indexed": false,
          "internalType": "uint64",
          "name": "newTrustedAggregatorTimeout",
          "type": "uint64"
        }
      ],
      "name": "SetTrustedAggregatorTimeout",
      "type": "event"
    },
    {
      "anonymous": false,
      "inputs": [
        {
          "indexed": false,
          "internalType": "address",
          "name": "newTrustedSequencer",
          "type": "address"
        }
      ],
      "name": "SetTrustedSequencer",
      "type": "event"
    },
    {
      "anonymous": false,
      "inputs": [
        {
          "indexed": false,
          "internalType": "string",
          "name": "newTrustedSequencerURL",
          "type": "string"
        }
      ],
      "name": "SetTrustedSequencerURL",
      "type": "event"
    },
    {
      "anonymous": false,
      "inputs": [
        {
          "indexed": false,
          "internalType": "uint64",
          "name": "newVeryBatchTimeTarget",
          "type": "uint64"
        }
      ],
      "name": "SetVeryBatchTimeTarget",
      "type": "event"
    },
    {
      "anonymous": false,
      "inputs": [
        {
          "indexed": false,
          "internalType": "address",
          "name": "newPendingAdmin",
          "type": "address"
        }
      ],
      "name": "TransferAdminRole",
      "type": "event"
    },
    {
      "anonymous": false,
      "inputs": [
        {
          "indexed": true,
          "internalType": "uint64",
          "name": "numBatch",
          "type": "uint64"
        },
        {
          "indexed": false,
          "internalType": "bytes32",
          "name": "stateRoot",
          "type": "bytes32"
        },
        {
          "indexed": true,
          "internalType": "address",
          "name": "aggregator",
          "type": "address"
        }
      ],
      "name": "TrustedVerifyBatches",
      "type": "event"
    },
    {
      "anonymous": false,
      "inputs": [
        {
          "indexed": true,
          "internalType": "uint64",
          "name": "numBatch",
          "type": "uint64"
        },
        {
          "indexed": false,
          "internalType": "bytes32",
          "name": "stateRoot",
          "type": "bytes32"
        },
        {
          "indexed": true,
          "internalType": "address",
          "name": "aggregator",
          "type": "address"
        }
      ],
      "name": "VerifyBatches",
      "type": "event"
    },
    {
      "inputs": [],
      "name": "acceptAdminRole",
      "outputs": [],
      "stateMutability": "nonpayable",
      "type": "function"
    },
    {
      "inputs": [
        {
          "internalType": "uint64",
          "name": "sequencedBatchNum",
          "type": "uint64"
        }
      ],
      "name": "activateEmergencyState",
      "outputs": [],
      "stateMutability": "nonpayable",
      "type": "function"
    },
    {
      "inputs": [],
      "name": "admin",
      "outputs": [
        {
          "internalType": "address",
          "name": "",
          "type": "address"
        }
      ],
      "stateMutability": "view",
      "type": "function"
    },
    {
      "inputs": [],
      "name": "batchFee",
      "outputs": [
        {
          "internalType": "uint256",
          "name": "",
          "type": "uint256"
        }
      ],
      "stateMutability": "view",
      "type": "function"
    },
    {
      "inputs": [
        {
          "internalType": "uint64",
          "name": "",
          "type": "uint64"
        }
      ],
      "name": "batchNumToStateRoot",
      "outputs": [
        {
          "internalType": "bytes32",
          "name": "",
          "type": "bytes32"
        }
      ],
      "stateMutability": "view",
      "type": "function"
    },
    {
      "inputs": [],
      "name": "bridgeAddress",
      "outputs": [
        {
          "internalType": "contract IPolygonZkEVMBridge",
          "name": "",
          "type": "address"
        }
      ],
      "stateMutability": "view",
      "type": "function"
    },
    {
      "inputs": [],
      "name": "calculateRewardPerBatch",
      "outputs": [
        {
          "internalType": "uint256",
          "name": "",
          "type": "uint256"
        }
      ],
      "stateMutability": "view",
      "type": "function"
    },
    {
      "inputs": [],
      "name": "chainID",
      "outputs": [
        {
          "internalType": "uint64",
          "name": "",
          "type": "uint64"
        }
      ],
      "stateMutability": "view",
      "type": "function"
    },
    {
      "inputs": [
        {
          "internalType": "uint64",
          "name": "pendingStateNum",
          "type": "uint64"
        }
      ],
      "name": "consolidatePendingState",
      "outputs": [],
      "stateMutability": "nonpayable",
      "type": "function"
    },
    {
      "inputs": [],
      "name": "deactivateEmergencyState",
      "outputs": [],
      "stateMutability": "nonpayable",
      "type": "function"
    },
    {
      "inputs": [
        {
          "internalType": "bytes",
          "name": "transactions",
          "type": "bytes"
        },
        {
          "internalType": "uint256",
          "name": "maticAmount",
          "type": "uint256"
        }
      ],
      "name": "forceBatch",
      "outputs": [],
      "stateMutability": "nonpayable",
      "type": "function"
    },
    {
      "inputs": [],
      "name": "forceBatchAllowed",
      "outputs": [
        {
          "internalType": "bool",
          "name": "",
          "type": "bool"
        }
      ],
      "stateMutability": "view",
      "type": "function"
    },
    {
      "inputs": [
        {
          "internalType": "uint64",
          "name": "",
          "type": "uint64"
        }
      ],
      "name": "forcedBatches",
      "outputs": [
        {
          "internalType": "bytes32",
          "name": "",
          "type": "bytes32"
        }
      ],
      "stateMutability": "view",
      "type": "function"
    },
    {
      "inputs": [],
      "name": "getCurrentBatchFee",
      "outputs": [
        {
          "internalType": "uint256",
          "name": "",
          "type": "uint256"
        }
      ],
      "stateMutability": "view",
      "type": "function"
    },
    {
      "inputs": [
        {
          "internalType": "uint64",
          "name": "initNumBatch",
          "type": "uint64"
        },
        {
          "internalType": "uint64",
          "name": "finalNewBatch",
          "type": "uint64"
        },
        {
          "internalType": "bytes32",
          "name": "newLocalExitRoot",
          "type": "bytes32"
        },
        {
          "internalType": "bytes32",
          "name": "oldStateRoot",
          "type": "bytes32"
        },
        {
          "internalType": "bytes32",
          "name": "newStateRoot",
          "type": "bytes32"
        }
      ],
      "name": "getInputSnarkBytes",
      "outputs": [
        {
          "internalType": "bytes",
          "name": "",
          "type": "bytes"
        }
      ],
      "stateMutability": "view",
      "type": "function"
    },
    {
      "inputs": [],
      "name": "getLastVerifiedBatch",
      "outputs": [
        {
          "internalType": "uint64",
          "name": "",
          "type": "uint64"
        }
      ],
      "stateMutability": "view",
      "type": "function"
    },
    {
      "inputs": [],
      "name": "globalExitRootManager",
      "outputs": [
        {
          "internalType": "contract IPolygonZkEVMGlobalExitRoot",
          "name": "",
          "type": "address"
        }
      ],
      "stateMutability": "view",
      "type": "function"
    },
    {
      "inputs": [
        {
          "internalType": "contract IPolygonZkEVMGlobalExitRoot",
          "name": "_globalExitRootManager",
          "type": "address"
        },
        {
          "internalType": "contract IERC20Upgradeable",
          "name": "_matic",
          "type": "address"
        },
        {
          "internalType": "contract IVerifierRollup",
          "name": "_rollupVerifier",
          "type": "address"
        },
        {
          "internalType": "contract IPolygonZkEVMBridge",
          "name": "_bridgeAddress",
          "type": "address"
        },
        {
          "components": [
            {
              "internalType": "address",
              "name": "admin",
              "type": "address"
            },
            {
              "internalType": "uint64",
              "name": "chainID",
              "type": "uint64"
            },
            {
              "internalType": "address",
              "name": "trustedSequencer",
              "type": "address"
            },
            {
              "internalType": "uint64",
              "name": "pendingStateTimeout",
              "type": "uint64"
            },
            {
              "internalType": "bool",
              "name": "forceBatchAllowed",
              "type": "bool"
            },
            {
              "internalType": "address",
              "name": "trustedAggregator",
              "type": "address"
            },
            {
              "internalType": "uint64",
              "name": "trustedAggregatorTimeout",
              "type": "uint64"
            }
          ],
          "internalType": "struct PolygonZkEVM.InitializePackedParameters",
          "name": "initializePackedParameters",
          "type": "tuple"
        },
        {
          "internalType": "bytes32",
          "name": "genesisRoot",
          "type": "bytes32"
        },
        {
          "internalType": "string",
          "name": "_trustedSequencerURL",
          "type": "string"
        },
        {
          "internalType": "string",
          "name": "_networkName",
          "type": "string"
        }
      ],
      "name": "initialize",
      "outputs": [],
      "stateMutability": "nonpayable",
      "type": "function"
    },
    {
      "inputs": [],
      "name": "isEmergencyState",
      "outputs": [
        {
          "internalType": "bool",
          "name": "",
          "type": "bool"
        }
      ],
      "stateMutability": "view",
      "type": "function"
    },
    {
      "inputs": [
        {
          "internalType": "uint64",
          "name": "pendingStateNum",
          "type": "uint64"
        }
      ],
      "name": "isPendingStateConsolidable",
      "outputs": [
        {
          "internalType": "bool",
          "name": "",
          "type": "bool"
        }
      ],
      "stateMutability": "view",
      "type": "function"
    },
    {
      "inputs": [],
      "name": "lastBatchSequenced",
      "outputs": [
        {
          "internalType": "uint64",
          "name": "",
          "type": "uint64"
        }
      ],
      "stateMutability": "view",
      "type": "function"
    },
    {
      "inputs": [],
      "name": "lastForceBatch",
      "outputs": [
        {
          "internalType": "uint64",
          "name": "",
          "type": "uint64"
        }
      ],
      "stateMutability": "view",
      "type": "function"
    },
    {
      "inputs": [],
      "name": "lastForceBatchSequenced",
      "outputs": [
        {
          "internalType": "uint64",
          "name": "",
          "type": "uint64"
        }
      ],
      "stateMutability": "view",
      "type": "function"
    },
    {
      "inputs": [],
      "name": "lastPendingState",
      "outputs": [
        {
          "internalType": "uint64",
          "name": "",
          "type": "uint64"
        }
      ],
      "stateMutability": "view",
      "type": "function"
    },
    {
      "inputs": [],
      "name": "lastPendingStateConsolidated",
      "outputs": [
        {
          "internalType": "uint64",
          "name": "",
          "type": "uint64"
        }
      ],
      "stateMutability": "view",
      "type": "function"
    },
    {
      "inputs": [],
      "name": "lastTimestamp",
      "outputs": [
        {
          "internalType": "uint64",
          "name": "",
          "type": "uint64"
        }
      ],
      "stateMutability": "view",
      "type": "function"
    },
    {
      "inputs": [],
      "name": "lastVerifiedBatch",
      "outputs": [
        {
          "internalType": "uint64",
          "name": "",
          "type": "uint64"
        }
      ],
      "stateMutability": "view",
      "type": "function"
    },
    {
      "inputs": [],
      "name": "matic",
      "outputs": [
        {
          "internalType": "contract IERC20Upgradeable",
          "name": "",
          "type": "address"
        }
      ],
      "stateMutability": "view",
      "type": "function"
    },
    {
      "inputs": [],
      "name": "multiplierBatchFee",
      "outputs": [
        {
          "internalType": "uint16",
          "name": "",
          "type": "uint16"
        }
      ],
      "stateMutability": "view",
      "type": "function"
    },
    {
      "inputs": [],
      "name": "networkName",
      "outputs": [
        {
          "internalType": "string",
          "name": "",
          "type": "string"
        }
      ],
      "stateMutability": "view",
      "type": "function"
    },
    {
      "inputs": [
        {
          "internalType": "uint64",
          "name": "initPendingStateNum",
          "type": "uint64"
        },
        {
          "internalType": "uint64",
          "name": "finalPendingStateNum",
          "type": "uint64"
        },
        {
          "internalType": "uint64",
          "name": "initNumBatch",
          "type": "uint64"
        },
        {
          "internalType": "uint64",
          "name": "finalNewBatch",
          "type": "uint64"
        },
        {
          "internalType": "bytes32",
          "name": "newLocalExitRoot",
          "type": "bytes32"
        },
        {
          "internalType": "bytes32",
          "name": "newStateRoot",
          "type": "bytes32"
        },
        {
          "internalType": "uint256[2]",
          "name": "proofA",
          "type": "uint256[2]"
        },
        {
          "internalType": "uint256[2][2]",
          "name": "proofB",
          "type": "uint256[2][2]"
        },
        {
          "internalType": "uint256[2]",
          "name": "proofC",
          "type": "uint256[2]"
        }
      ],
      "name": "overridePendingState",
      "outputs": [],
      "stateMutability": "nonpayable",
      "type": "function"
    },
    {
      "inputs": [],
      "name": "owner",
      "outputs": [
        {
          "internalType": "address",
          "name": "",
          "type": "address"
        }
      ],
      "stateMutability": "view",
      "type": "function"
    },
    {
      "inputs": [],
      "name": "pendingAdmin",
      "outputs": [
        {
          "internalType": "address",
          "name": "",
          "type": "address"
        }
      ],
      "stateMutability": "view",
      "type": "function"
    },
    {
      "inputs": [],
      "name": "pendingStateTimeout",
      "outputs": [
        {
          "internalType": "uint64",
          "name": "",
          "type": "uint64"
        }
      ],
      "stateMutability": "view",
      "type": "function"
    },
    {
      "inputs": [
        {
          "internalType": "uint256",
          "name": "",
          "type": "uint256"
        }
      ],
      "name": "pendingStateTransitions",
      "outputs": [
        {
          "internalType": "uint64",
          "name": "timestamp",
          "type": "uint64"
        },
        {
          "internalType": "uint64",
          "name": "lastVerifiedBatch",
          "type": "uint64"
        },
        {
          "internalType": "bytes32",
          "name": "exitRoot",
          "type": "bytes32"
        },
        {
          "internalType": "bytes32",
          "name": "stateRoot",
          "type": "bytes32"
        }
      ],
      "stateMutability": "view",
      "type": "function"
    },
    {
      "inputs": [
        {
          "internalType": "uint64",
          "name": "initPendingStateNum",
          "type": "uint64"
        },
        {
          "internalType": "uint64",
          "name": "finalPendingStateNum",
          "type": "uint64"
        },
        {
          "internalType": "uint64",
          "name": "initNumBatch",
          "type": "uint64"
        },
        {
          "internalType": "uint64",
          "name": "finalNewBatch",
          "type": "uint64"
        },
        {
          "internalType": "bytes32",
          "name": "newLocalExitRoot",
          "type": "bytes32"
        },
        {
          "internalType": "bytes32",
          "name": "newStateRoot",
          "type": "bytes32"
        },
        {
          "internalType": "uint256[2]",
          "name": "proofA",
          "type": "uint256[2]"
        },
        {
          "internalType": "uint256[2][2]",
          "name": "proofB",
          "type": "uint256[2][2]"
        },
        {
          "internalType": "uint256[2]",
          "name": "proofC",
          "type": "uint256[2]"
        }
      ],
      "name": "proveNonDeterministicPendingState",
      "outputs": [],
      "stateMutability": "nonpayable",
      "type": "function"
    },
    {
      "inputs": [],
      "name": "renounceOwnership",
      "outputs": [],
      "stateMutability": "nonpayable",
      "type": "function"
    },
    {
      "inputs": [],
      "name": "rollupVerifier",
      "outputs": [
        {
          "internalType": "contract IVerifierRollup",
          "name": "",
          "type": "address"
        }
      ],
      "stateMutability": "view",
      "type": "function"
    },
    {
      "inputs": [
        {
          "components": [
            {
              "internalType": "bytes",
              "name": "transactions",
              "type": "bytes"
            },
            {
              "internalType": "bytes32",
              "name": "globalExitRoot",
              "type": "bytes32"
            },
            {
              "internalType": "uint64",
              "name": "timestamp",
              "type": "uint64"
            },
            {
              "internalType": "uint64",
              "name": "minForcedTimestamp",
              "type": "uint64"
            }
          ],
          "internalType": "struct PolygonZkEVM.BatchData[]",
          "name": "batches",
          "type": "tuple[]"
        }
      ],
      "name": "sequenceBatches",
      "outputs": [],
      "stateMutability": "nonpayable",
      "type": "function"
    },
    {
      "inputs": [
        {
          "components": [
            {
              "internalType": "bytes",
              "name": "transactions",
              "type": "bytes"
            },
            {
              "internalType": "bytes32",
              "name": "globalExitRoot",
              "type": "bytes32"
            },
            {
              "internalType": "uint64",
              "name": "minForcedTimestamp",
              "type": "uint64"
            }
          ],
          "internalType": "struct PolygonZkEVM.ForcedBatchData[]",
          "name": "batches",
          "type": "tuple[]"
        }
      ],
      "name": "sequenceForceBatches",
      "outputs": [],
      "stateMutability": "nonpayable",
      "type": "function"
    },
    {
      "inputs": [
        {
          "internalType": "uint64",
          "name": "",
          "type": "uint64"
        }
      ],
      "name": "sequencedBatches",
      "outputs": [
        {
          "internalType": "bytes32",
          "name": "accInputHash",
          "type": "bytes32"
        },
        {
          "internalType": "uint64",
          "name": "sequencedTimestamp",
          "type": "uint64"
        },
        {
          "internalType": "uint64",
          "name": "previousLastBatchSequenced",
          "type": "uint64"
        }
      ],
      "stateMutability": "view",
      "type": "function"
    },
    {
      "inputs": [
        {
          "internalType": "bool",
          "name": "newForceBatchAllowed",
          "type": "bool"
        }
      ],
      "name": "setForceBatchAllowed",
      "outputs": [],
      "stateMutability": "nonpayable",
      "type": "function"
    },
    {
      "inputs": [
        {
          "internalType": "uint16",
          "name": "newMultiplierBatchFee",
          "type": "uint16"
        }
      ],
      "name": "setMultiplierBatchFee",
      "outputs": [],
      "stateMutability": "nonpayable",
      "type": "function"
    },
    {
      "inputs": [
        {
          "internalType": "uint64",
          "name": "newPendingStateTimeout",
          "type": "uint64"
        }
      ],
      "name": "setPendingStateTimeout",
      "outputs": [],
      "stateMutability": "nonpayable",
      "type": "function"
    },
    {
      "inputs": [
        {
          "internalType": "address",
          "name": "newTrustedAggregator",
          "type": "address"
        }
      ],
      "name": "setTrustedAggregator",
      "outputs": [],
      "stateMutability": "nonpayable",
      "type": "function"
    },
    {
      "inputs": [
        {
          "internalType": "uint64",
          "name": "newTrustedAggregatorTimeout",
          "type": "uint64"
        }
      ],
      "name": "setTrustedAggregatorTimeout",
      "outputs": [],
      "stateMutability": "nonpayable",
      "type": "function"
    },
    {
      "inputs": [
        {
          "internalType": "address",
          "name": "newTrustedSequencer",
          "type": "address"
        }
      ],
      "name": "setTrustedSequencer",
      "outputs": [],
      "stateMutability": "nonpayable",
      "type": "function"
    },
    {
      "inputs": [
        {
          "internalType": "string",
          "name": "newTrustedSequencerURL",
          "type": "string"
        }
      ],
      "name": "setTrustedSequencerURL",
      "outputs": [],
      "stateMutability": "nonpayable",
      "type": "function"
    },
    {
      "inputs": [
        {
          "internalType": "uint64",
          "name": "newVeryBatchTimeTarget",
          "type": "uint64"
        }
      ],
      "name": "setVeryBatchTimeTarget",
      "outputs": [],
      "stateMutability": "nonpayable",
      "type": "function"
    },
    {
      "inputs": [
        {
          "internalType": "address",
          "name": "newPendingAdmin",
          "type": "address"
        }
      ],
      "name": "transferAdminRole",
      "outputs": [],
      "stateMutability": "nonpayable",
      "type": "function"
    },
    {
      "inputs": [
        {
          "internalType": "address",
          "name": "newOwner",
          "type": "address"
        }
      ],
      "name": "transferOwnership",
      "outputs": [],
      "stateMutability": "nonpayable",
      "type": "function"
    },
    {
      "inputs": [],
      "name": "trustedAggregator",
      "outputs": [
        {
          "internalType": "address",
          "name": "",
          "type": "address"
        }
      ],
      "stateMutability": "view",
      "type": "function"
    },
    {
      "inputs": [],
      "name": "trustedAggregatorTimeout",
      "outputs": [
        {
          "internalType": "uint64",
          "name": "",
          "type": "uint64"
        }
      ],
      "stateMutability": "view",
      "type": "function"
    },
    {
      "inputs": [],
      "name": "trustedSequencer",
      "outputs": [
        {
          "internalType": "address",
          "name": "",
          "type": "address"
        }
      ],
      "stateMutability": "view",
      "type": "function"
    },
    {
      "inputs": [],
      "name": "trustedSequencerURL",
      "outputs": [
        {
          "internalType": "string",
          "name": "",
          "type": "string"
        }
      ],
      "stateMutability": "view",
      "type": "function"
    },
    {
      "inputs": [
        {
          "internalType": "uint64",
          "name": "pendingStateNum",
          "type": "uint64"
        },
        {
          "internalType": "uint64",
          "name": "initNumBatch",
          "type": "uint64"
        },
        {
          "internalType": "uint64",
          "name": "finalNewBatch",
          "type": "uint64"
        },
        {
          "internalType": "bytes32",
          "name": "newLocalExitRoot",
          "type": "bytes32"
        },
        {
          "internalType": "bytes32",
          "name": "newStateRoot",
          "type": "bytes32"
        },
        {
          "internalType": "uint256[2]",
          "name": "proofA",
          "type": "uint256[2]"
        },
        {
          "internalType": "uint256[2][2]",
          "name": "proofB",
          "type": "uint256[2][2]"
        },
        {
          "internalType": "uint256[2]",
          "name": "proofC",
          "type": "uint256[2]"
        }
      ],
      "name": "trustedVerifyBatches",
      "outputs": [],
      "stateMutability": "nonpayable",
      "type": "function"
    },
    {
      "inputs": [
        {
          "internalType": "uint64",
          "name": "pendingStateNum",
          "type": "uint64"
        },
        {
          "internalType": "uint64",
          "name": "initNumBatch",
          "type": "uint64"
        },
        {
          "internalType": "uint64",
          "name": "finalNewBatch",
          "type": "uint64"
        },
        {
          "internalType": "bytes32",
          "name": "newLocalExitRoot",
          "type": "bytes32"
        },
        {
          "internalType": "bytes32",
          "name": "newStateRoot",
          "type": "bytes32"
        },
        {
          "internalType": "uint256[2]",
          "name": "proofA",
          "type": "uint256[2]"
        },
        {
          "internalType": "uint256[2][2]",
          "name": "proofB",
          "type": "uint256[2][2]"
        },
        {
          "internalType": "uint256[2]",
          "name": "proofC",
          "type": "uint256[2]"
        }
      ],
      "name": "verifyBatches",
      "outputs": [],
      "stateMutability": "nonpayable",
      "type": "function"
    },
    {
      "inputs": [],
      "name": "veryBatchTimeTarget",
      "outputs": [
        {
          "internalType": "uint64",
          "name": "",
          "type": "uint64"
        }
      ],
      "stateMutability": "view",
      "type": "function"
    }
  ],
  "bytecode": "0x608060405234801561001057600080fd5b5061569480620000216000396000f3fe608060405234801561001057600080fd5b506004361061030e5760003560e01c80638da5cb5b1161019e578063cfa8ed47116100ef578063e7a7ed021161009d578063e7a7ed02146107d9578063e8bf92ed146107f3578063eaeb077b14610806578063edc4112114610819578063f14916d61461082c578063f2fde38b1461083f578063f851a44014610852578063f8b823e41461086557600080fd5b8063cfa8ed4714610750578063d02103ca1461076a578063d8d1091b1461077d578063d8f54db014610790578063d939b315146107a4578063dbc16976146107be578063e11f3f18146107c657600080fd5b8063adc879e91161014c578063adc879e914610666578063afd23cbe14610680578063b4d63f58146106a8578063b6b0b09714610708578063c0ed84e014610722578063c89e42df1461072a578063cf1363061461073d57600080fd5b80638da5cb5b146105f457806399f5634e146106055780639c9f3dfe1461060d5780639f0d039d14610620578063a3c573eb14610628578063aa58bad61461063b578063ada8f9191461065357600080fd5b80634a1a89a711610263578063715018a611610211578063715018a6146105105780637215541a1461051857806375c508b31461052b5780637fcb36531461053e578063837a473814610551578063841b24d7146105bf5780638c3d7301146105d95780638c4a0af7146105e157600080fd5b80634a1a89a7146104675780634a910e6a146104815780635392c5e014610494578063542028d5146104c257806360943d6a146104ca5780636b8616ce146104dd5780636ff512cc146104fd57600080fd5b8063383b3be8116102c0578063383b3be8146103d4578063394218e9146103e75780633c158267146103fa578063423fa8561461040d5780634560526714610427578063458c0477146104415780634834a3431461045457600080fd5b8063107bf28c1461031357806315064c96146103315780631816b7e51461034e57806319d8ac6114610363578063220d78991461038e57806326782247146103a157806329878983146103c1575b600080fd5b61031b61086e565b604051610328919061484e565b60405180910390f35b60655461033e9060ff1681565b6040519015158152602001610328565b61036161035c366004614868565b6108fc565b005b606854610376906001600160401b031681565b6040516001600160401b039091168152602001610328565b61031b61039c3660046148a8565b610a26565b6074546103b4906001600160a01b031681565b60405161032891906148f5565b606a546103b4906001600160a01b031681565b61033e6103e2366004614909565b610bc7565b6103616103f5366004614909565b610c0e565b61036161040836600461496f565b610dca565b60685461037690600160401b90046001600160401b031681565b60685461037690600160801b90046001600160401b031681565b607254610376906001600160401b031681565b6103616104623660046149d8565b6115a6565b60725461037690600160401b90046001600160401b031681565b61036161048f366004614909565b6118ef565b6104b46104a2366004614909565b606d6020526000908152604090205481565b604051908152602001610328565b61031b611a29565b6103616104d8366004614b1c565b611a36565b6104b46104eb366004614909565b60666020526000908152604090205481565b61036161050b366004614bf3565b611e0a565b610361611e88565b610361610526366004614909565b611e9c565b610361610539366004614c10565b6120a3565b606954610376906001600160401b031681565b61059461055f366004614cae565b6071602052600090815260409020805460018201546002909201546001600160401b0380831693600160401b90930416919084565b604080516001600160401b039586168152949093166020850152918301526060820152608001610328565b60725461037690600160c01b90046001600160401b031681565b610361612132565b6103616105ef366004614cd5565b612207565b6033546001600160a01b03166103b4565b6104b461227e565b61036161061b366004614909565b612366565b6075546104b4565b6070546103b4906001600160a01b031681565b6065546103769061010090046001600160401b031681565b610361610661366004614bf3565b612514565b606c5461037690600160a81b90046001600160401b031681565b60655461069590600160481b900461ffff1681565b60405161ffff9091168152602001610328565b6106e36106b6366004614909565b606760205260009081526040902080546001909101546001600160401b0380821691600160401b90041683565b604080519384526001600160401b039283166020850152911690820152606001610328565b6065546103b490600160581b90046001600160a01b031681565b610376612589565b610361610738366004614cf2565b6125d6565b61036161074b366004614909565b61263c565b6069546103b490600160401b90046001600160a01b031681565b606c546103b4906001600160a01b031681565b61036161078b36600461496f565b6126bd565b606c5461033e90600160a01b900460ff1681565b60725461037690600160801b90046001600160401b031681565b610361612ba2565b6103616107d4366004614c10565b612c3c565b60685461037690600160c01b90046001600160401b031681565b606b546103b4906001600160a01b031681565b610361610814366004614d26565b612d81565b6103616108273660046149d8565b6130b9565b61036161083a366004614bf3565b6131d9565b61036161084d366004614bf3565b61324e565b6073546103b4906001600160a01b031681565b6104b460755481565b606f805461087b90614d9d565b80601f01602080910402602001604051908101604052809291908181526020018280546108a790614d9d565b80156108f45780601f106108c9576101008083540402835291602001916108f4565b820191906000526020600020905b8154815290600101906020018083116108d757829003601f168201915b505050505081565b6073546001600160a01b0316331461092f5760405162461bcd60e51b815260040161092690614dd7565b60405180910390fd5b6103e88161ffff161015801561094a57506104008161ffff16105b6109cf5760405162461bcd60e51b815260206004820152604a60248201527f506f6c79676f6e5a6b45564d3a3a7365744d756c7469706c696572426174636860448201527f4665653a206e65774d756c7469706c696572426174636846656520696e636f72606482015269726563742072616e676560b01b608482015260a401610926565b6065805461ffff60481b1916600160481b61ffff8416908102919091179091556040519081527f7019933d795eba185c180209e8ae8bffbaa25bcef293364687702c31f4d302c5906020015b60405180910390a150565b6001600160401b03808616600081815260676020526040808220549388168252902054606092911580610a5857508115155b610acc576040805162461bcd60e51b81526020600482015260248101919091527f506f6c79676f6e5a6b45564d3a3a676574496e707574536e61726b427974657360448201527f3a206f6c64416363496e7075744861736820646f6573206e6f742065786973746064820152608401610926565b80610b41576040805162461bcd60e51b81526020600482015260248101919091527f506f6c79676f6e5a6b45564d3a3a676574496e707574536e61726b427974657360448201527f3a206e6577416363496e7075744861736820646f6573206e6f742065786973746064820152608401610926565b606c54604080516001600160601b03193360601b166020820152603481019790975260548701939093526001600160c01b031960c0998a1b81166074880152600160a81b909104891b8116607c870152608486019490945260a485015260c4840194909452509290931b90911660e4830152805180830360cc01815260ec909201905290565b6072546001600160401b0382811660009081526071602052604081205490924292610bfd92600160801b90920481169116614e30565b6001600160401b0316111592915050565b6073546001600160a01b03163314610c385760405162461bcd60e51b815260040161092690614dd7565b62093a806001600160401b0382161115610cd15760405162461bcd60e51b815260206004820152604e60248201527f506f6c79676f6e5a6b45564d3a3a73657454727573746564416767726567617460448201527f6f7254696d656f75743a20457863656564206d61782068616c7420616767726560648201526d19d85d1a5bdb881d1a5b595bdd5d60921b608482015260a401610926565b60655460ff16610d74576072546001600160401b03600160c01b909104811690821610610d745760405162461bcd60e51b8152602060048201526044602482018190527f506f6c79676f6e5a6b45564d3a3a736574547275737465644167677265676174908201527f6f7254696d656f75743a204e65772074696d656f7574206d757374206265206c60648201526337bbb2b960e11b608482015260a401610926565b607280546001600160c01b0316600160c01b6001600160401b038416908102919091179091556040519081527f1f4fa24c2e4bad19a7f3ec5c5485f70d46c798461c2e684f55bbd0fc661373a190602001610a1b565b60655460ff1615610ded5760405162461bcd60e51b815260040161092690614e5b565b606954600160401b90046001600160a01b03163314610e745760405162461bcd60e51b815260206004820152603a60248201527f506f6c79676f6e5a6b45564d3a3a6f6e6c795472757374656453657175656e6360448201527f65723a204f6e6c7920747275737465642073657175656e6365720000000000006064820152608401610926565b8080610ee85760405162461bcd60e51b815260206004820152603d60248201527f506f6c79676f6e5a6b45564d3a3a73657175656e6365426174636865733a204160448201527f74206c65617374206d7573742073657175656e636520312062617463680000006064820152608401610926565b6103e88110610f61576040805162461bcd60e51b81526020600482015260248101919091527f506f6c79676f6e5a6b45564d3a3a73657175656e6365426174636865733a204360448201527f616e6e6f742073657175656e63652074686174206d616e7920626174636865736064820152608401610926565b6068546001600160401b03600160401b82048116600081815260676020526040812054838516949293600160801b909304909216919082905b868110156113d6576000898983818110610fb657610fb6614ec3565b9050602002810190610fc89190614ed9565b610fd190614ef9565b805180516020909101206060820151919250906001600160401b0316156111675785610ffc81614f85565b9650506000818360200151846060015160405160200161101e93929190614fab565b60408051601f1981840301815291815281516020928301206001600160401b038a166000908152606690935291205490915081146110b25760405162461bcd60e51b815260206004820152603d602482015260008051602061563f83398151915260448201527f6f7263656420626174636865732064617461206d757374206d617463680000006064820152608401610926565b6001600160401b0380881660009081526066602052604080822091909155606085015190850151908216911610156111615760405162461bcd60e51b8152602060048201526058602482015260008051602061563f83398151915260448201527f6f7263656420626174636865732074696d657374616d70206d757374206265206064820152773134b3b3b2b91037b91032b8bab0b6103a3430b71036b4b760411b608482015260a401610926565b506112dc565b602082015115806111f05750606c5460208301516040516312bd9b1960e11b81526001600160a01b039092169163257b3632916111aa9160040190815260200190565b6020604051808303816000875af11580156111c9573d6000803e3d6000fd5b505050506040513d601f19601f820116820180604052508101906111ed9190614fce565b15155b6112625760405162461bcd60e51b815260206004820152603a60248201527f506f6c79676f6e5a6b45564d3a3a73657175656e6365426174636865733a204760448201527f6c6f62616c206578697420726f6f74206d7573742065786973740000000000006064820152608401610926565b815151620493e0116112dc5760405162461bcd60e51b815260206004820152603a60248201527f506f6c79676f6e5a6b45564d3a3a73657175656e6365426174636865733a205460448201527f72616e73616374696f6e73206279746573206f766572666c6f770000000000006064820152608401610926565b876001600160401b031682604001516001600160401b03161015801561130f57504282604001516001600160401b031611155b6113815760405162461bcd60e51b815260206004820152603d60248201527f506f6c79676f6e5a6b45564d3a3a73657175656e6365426174636865733a205460448201527f696d657374616d70206d75737420626520696e736964652072616e67650000006064820152608401610926565b848183602001518460400151336040516020016113a2959493929190614fe7565b60405160208183030381529060405280519060200120945081604001519750505080806113ce90615026565b915050610f9a565b506113e18685614e30565b6068549094506001600160401b03600160c01b909104811690841611156114565760405162461bcd60e51b8152602060048201526035602482015260008051602061563f8339815191526044820152746f7263652062617463686573206f766572666c6f7760581b6064820152608401610926565b6000611462828561503f565b611475906001600160401b031688615067565b60408051606081018252858152426001600160401b03908116602080840191825260688054600160401b9081900485168688019081528d861660008181526067909552979093209551865592516001909501805492519585166001600160801b03199384161795851684029590951790945583548c841691161793029290921790559091508281169085161461152b576068805467ffffffffffffffff60801b1916600160801b6001600160401b038716021790555b61155f33308361153a60755490565b611544919061507e565b606554600160581b90046001600160a01b03169291906132c4565b611567613335565b6040516001600160401b038616907f303446e6a8cb73c83dff421c0b1d5e5ce0719dab1bff13660fc254e58cc17fce90600090a2505050505050505050565b60655460ff16156115c95760405162461bcd60e51b815260040161092690614e5b565b6072546001600160401b03878116600090815260676020526040902060010154429261160092600160c01b90910481169116614e30565b6001600160401b031611156116895760405162461bcd60e51b815260206004820152604360248201527f506f6c79676f6e5a6b45564d3a3a766572696679426174636865733a2054727560448201527f737465642061676772656761746f722074696d656f7574206e6f7420657870696064820152621c995960ea1b608482015260a401610926565b6103e8611696888861503f565b6001600160401b0316106117125760405162461bcd60e51b815260206004820152603c60248201527f506f6c79676f6e5a6b45564d3a3a766572696679426174636865733a2043616e60448201527f6e6f74207665726966792074686174206d616e792062617463686573000000006064820152608401610926565b61172288888888888888886133d9565b61172b866138dc565b607254600160801b90046001600160401b03166000036117f3576069805467ffffffffffffffff19166001600160401b038881169182179092556000908152606d60205260409020859055607254161561179057607280546001600160801b03191690555b606c546040516333d6247d60e01b8152600481018790526001600160a01b03909116906333d6247d90602401600060405180830381600087803b1580156117d657600080fd5b505af11580156117ea573d6000803e3d6000fd5b505050506118a4565b6117fb613335565b607280546001600160401b031690600061181483614f85565b82546001600160401b039182166101009390930a92830292820219169190911790915560408051608081018252428316815289831660208083019182528284018b8152606084018b8152607254871660009081526071909352949091209251835492518616600160401b026001600160801b03199093169516949094171781559151600183015551600290910155505b60405184815233906001600160401b038816907f9c72852172521097ba7e1482e6b44b351323df0155f97f4ea18fcec28e1f5966906020015b60405180910390a35050505050505050565b606a546001600160a01b03163314611a1d5760655460ff16156119855760405162461bcd60e51b815260206004820152604260248201527f506f6c79676f6e5a6b45564d3a3a636f6e736f6c696461746550656e64696e6760448201527f53746174653a206f6e6c79206966206e6f7420656d657267656e637920737461606482015261746560f01b608482015260a401610926565b61198e81610bc7565b611a1d5760405162461bcd60e51b815260206004820152605460248201527f506f6c79676f6e5a6b45564d3a3a636f6e736f6c696461746550656e64696e6760448201527f53746174653a2050656e64696e67207374617465206973206e6f7420726561646064820152731e481d1bc818994818dbdb9cdbdb1a59185d195960621b608482015260a401610926565b611a2681613ac2565b50565b606e805461087b90614d9d565b600054610100900460ff1615808015611a565750600054600160ff909116105b80611a705750303b158015611a70575060005460ff166001145b611ad35760405162461bcd60e51b815260206004820152602e60248201527f496e697469616c697a61626c653a20636f6e747261637420697320616c72656160448201526d191e481a5b9a5d1a585b1a5e995960921b6064820152608401610926565b6000805460ff191660011790558015611af6576000805461ff0019166101001790555b606c80546001600160a01b03199081166001600160a01b038c81169190911790925560658054600160581b600160f81b031916600160581b8c851602179055606b805482168a841617905560708054909116918816919091179055611b5e6020860186614bf3565b607380546001600160a01b0319166001600160a01b0392909216919091179055611b8e6060860160408701614bf3565b606980546001600160a01b0392909216600160401b02600160401b600160e01b0319909216919091179055611bc960c0860160a08701614bf3565b606a80546001600160a01b0319166001600160a01b039290921691909117905560008052606d60209081527fda90043ba5b4096ba14704bc227ab0d3167da15b887e62ab2e76e37daa711356859055611c289060408701908701614909565b606c80546001600160401b0392909216600160a81b0267ffffffffffffffff60a81b19909216919091179055611c6460a0860160808701614cd5565b606c8054911515600160a01b0260ff60a01b19909216919091179055606e611c8c84826150e3565b50606f611c9983826150e3565b5062093a80611cae6080870160608801614909565b6001600160401b03161115611cd55760405162461bcd60e51b8152600401610926906151a2565b611ce56080860160608701614909565b607280546001600160401b0392909216600160801b0267ffffffffffffffff60801b1990921691909117905562093a80611d2560e0870160c08801614909565b6001600160401b03161115611d4c5760405162461bcd60e51b8152600401610926906151a2565b611d5c60e0860160c08701614909565b607280546001600160c01b0316600160c01b6001600160401b039390931692909202919091179055670de0b6b3a7640000607555606580546affffffffffffffffffff0019166a03ea000000000000070800179055611db9613c93565b8015611dff576000805461ff0019169055604051600181527f7f26b83ff96e1f2b6a682f133852f6798a09c465da95921460cefb38474024989060200160405180910390a15b505050505050505050565b6073546001600160a01b03163314611e345760405162461bcd60e51b815260040161092690614dd7565b60698054600160401b600160e01b031916600160401b6001600160a01b038416021790556040517ff54144f9611984021529f814a1cb6a41e22c58351510a0d9f7e822618abb9cc090610a1b9083906148f5565b611e90613d07565b611e9a6000613d61565b565b6033546001600160a01b0316331461209b576000611eb8612589565b9050806001600160401b0316826001600160401b031611611f2f5760405162461bcd60e51b815260206004820152603c60248201526000805160206155bf83398151915260448201527f746174653a20426174636820616c7265616479207665726966696564000000006064820152608401610926565b6068546001600160401b03600160401b909104811690831611801590611f7157506001600160401b038083166000908152606760205260409020600101541615155b611fea5760405162461bcd60e51b815260206004820152605060248201526000805160206155bf83398151915260448201527f746174653a204261746368206e6f742073657175656e636564206f72206e6f7460648201526f20656e64206f662073657175656e636560801b608482015260a401610926565b6001600160401b0380831660009081526067602052604090206001015442916120189162093a809116614e30565b6001600160401b031611156120995760405162461bcd60e51b815260206004820152604d60248201526000805160206155bf83398151915260448201527f746174653a204167677265676174696f6e2068616c742074696d656f7574206960648201526c1cc81b9bdd08195e1c1a5c9959609a1b608482015260a401610926565b505b611a26613db3565b60655460ff16156120c65760405162461bcd60e51b815260040161092690614e5b565b6120d7898989898989898989613e23565b6001600160401b0386166000908152606d60209081526040918290205482519081529081018690527f1f44c21118c4603cfb4e1b621dbcfa2b73efcececee2b99b620b2953d33a7010910160405180910390a1611dff613db3565b6074546001600160a01b031633146121ae5760405162461bcd60e51b815260206004820152603960248201527f506f6c79676f6e5a6b45564d3a3a61636365707441646d696e526f6c653a206360448201527830b63632b91034b9903737ba103832b73234b733a0b236b4b760391b6064820152608401610926565b607454607380546001600160a01b0319166001600160a01b0390921691821790556040517f056dc487bbf0795d0bbb1b4f0af523a855503cff740bfb4d5475f7a90c091e8e916121fd916148f5565b60405180910390a1565b6073546001600160a01b031633146122315760405162461bcd60e51b815260040161092690614dd7565b606c8054821515600160a01b0260ff60a01b199091161790556040517fbacda50a4a8575be1d91a7ebe29ee45056f3a94f12a2281eb6b43afa33bcefe690610a1b90831515815260200190565b6065546040516370a0823160e01b81526000918291600160581b9091046001600160a01b0316906370a08231906122b99030906004016148f5565b602060405180830381865afa1580156122d6573d6000803e3d6000fd5b505050506040513d601f19601f820116820180604052508101906122fa9190614fce565b90506000612306612589565b6068546001600160401b03600160401b820481169161233691600160801b8204811691600160c01b90041661503f565b6123409190614e30565b61234a919061503f565b6001600160401b0316905061235f8183615211565b9250505090565b6073546001600160a01b031633146123905760405162461bcd60e51b815260040161092690614dd7565b62093a806001600160401b03821611156124245760405162461bcd60e51b815260206004820152604960248201527f506f6c79676f6e5a6b45564d3a3a73657450656e64696e67537461746554696d60448201527f656f75743a20457863656564206d61782068616c74206167677265676174696f6064820152681b881d1a5b595bdd5d60ba1b608482015260a401610926565b60655460ff166124b9576072546001600160401b03600160801b9091048116908216106124b95760405162461bcd60e51b815260206004820152603f60248201527f506f6c79676f6e5a6b45564d3a3a73657450656e64696e67537461746554696d60448201527f656f75743a204e65772074696d656f7574206d757374206265206c6f776572006064820152608401610926565b6072805467ffffffffffffffff60801b1916600160801b6001600160401b038416908102919091179091556040519081527fc4121f4e22c69632ebb7cf1f462be0511dc034f999b52013eddfb24aab765c7590602001610a1b565b6073546001600160a01b0316331461253e5760405162461bcd60e51b815260040161092690614dd7565b607480546001600160a01b0319166001600160a01b0383161790556040517fa5b56b7906fd0a20e3f35120dd8343db1e12e037a6c90111c7e42885e82a1ce690610a1b9083906148f5565b6072546000906001600160401b0316156125c657506072546001600160401b03908116600090815260716020526040902054600160401b90041690565b506069546001600160401b031690565b6073546001600160a01b031633146126005760405162461bcd60e51b815260040161092690614dd7565b606e61260c82826150e3565b507f6b8f723a4c7a5335cafae8a598a0aa0301be1387c037dccc085b62add6448b2081604051610a1b919061484e565b6073546001600160a01b031633146126665760405162461bcd60e51b815260040161092690614dd7565b6065805468ffffffffffffffff0019166101006001600160401b038416908102919091179091556040519081527f03a12f7e53d2a9e31a9e913d85c12c4c38feb92abe003c111329298af088437f90602001610a1b565b60655460ff16156126e05760405162461bcd60e51b815260040161092690614e5b565b606c54600160a01b900460ff16151560011461270e5760405162461bcd60e51b815260040161092690615225565b80806127705760405162461bcd60e51b815260206004820152603f602482015260008051602061561f83398151915260448201527f65733a204d75737420666f726365206174206c656173742031206261746368006064820152608401610926565b6103e881106127e15760405162461bcd60e51b8152602060048201526043602482015260008051602061561f83398151915260448201527f65733a2043616e6e6f74207665726966792074686174206d616e79206261746360648201526268657360e81b608482015260a401610926565b6068546001600160401b03600160c01b8204811691612809918491600160801b90041661528e565b11156128655760405162461bcd60e51b8152602060048201526037602482015260008051602061561f833981519152604482015276195cce88119bdc98d94818985d18da081a5b9d985b1a59604a1b6064820152608401610926565b6068546001600160401b03600160401b820481166000818152606760205260408120549193600160801b9004909216915b84811015612aaa5760008787838181106128b2576128b2614ec3565b90506020028101906128c491906152a6565b6128cd906152bc565b9050836128d981614f85565b825180516020918201208185015160408087015190519499509194506000936129059386939101614fab565b60408051601f1981840301815291815281516020928301206001600160401b0389166000908152606690935291205490915081146129a45760405162461bcd60e51b8152602060048201526042602482015260008051602061561f83398151915260448201527f65733a20466f7263656420626174636865732064617461206d757374206d61746064820152610c6d60f31b608482015260a401610926565b6001600160401b0386166000908152606660205260408120556129c8600189615067565b8403612a5f57426206978084604001516129e29190614e30565b6001600160401b03161115612a5f5760405162461bcd60e51b8152602060048201526049602482015260008051602061561f83398151915260448201527f65733a20466f72636564206261746368206973206e6f7420696e2074696d656f6064820152681d5d081c195c9a5bd960ba1b608482015260a401610926565b848284602001514233604051602001612a7c959493929190614fe7565b6040516020818303038152906040528051906020012094505050508080612aa290615026565b915050612896565b50612ab58484614e30565b606880546001600160401b0342811667ffffffffffffffff199092168217808455604080516060810182528781526020808201958652600160401b9384900485168284019081528589166000818152606790935284832093518455965160019390930180549151871686026001600160801b031990921693871693909317179091558554938916600160801b0267ffffffffffffffff60801b1993860293909316600160401b600160c01b031990941693909317919091179093559151929550917f648a61dd2438f072f5a1960939abd30f37aea80d2e94c9792ad142d3e0a490a49190a2505050505050565b6073546001600160a01b03163314612bcc5760405162461bcd60e51b815260040161092690614dd7565b607060009054906101000a90046001600160a01b03166001600160a01b031663dbc169766040518163ffffffff1660e01b8152600401600060405180830381600087803b158015612c1c57600080fd5b505af1158015612c30573d6000803e3d6000fd5b50505050611e9a614457565b606a546001600160a01b03163314612c665760405162461bcd60e51b815260040161092690615337565b612c77898989898989898989613e23565b6069805467ffffffffffffffff19166001600160401b038881169182179092556000908152606d602052604090208590556072541615612cc257607280546001600160801b03191690555b606c546040516333d6247d60e01b8152600481018790526001600160a01b03909116906333d6247d90602401600060405180830381600087803b158015612d0857600080fd5b505af1158015612d1c573d6000803e3d6000fd5b5050607280546001600160c01b031661127560c71b179055505060405184815233906001600160401b038816907fcc1b5520188bf1dd3e63f98164b577c4d75c11a619ddea692112f0d1aec4cf729060200160405180910390a3505050505050505050565b60655460ff1615612da45760405162461bcd60e51b815260040161092690614e5b565b606c54600160a01b900460ff161515600114612dd25760405162461bcd60e51b815260040161092690615225565b6000612ddd60755490565b905081811115612e425760405162461bcd60e51b815260206004820152602a60248201527f506f6c79676f6e5a6b45564d3a3a666f72636542617463683a204e6f7420656e6044820152696f756768206d6174696360b01b6064820152608401610926565b620493e08310612eb25760405162461bcd60e51b815260206004820152603560248201527f506f6c79676f6e5a6b45564d3a3a666f72636542617463683a205472616e73616044820152746374696f6e73206279746573206f766572666c6f7760581b6064820152608401610926565b606554612ed190600160581b90046001600160a01b03163330846132c4565b606c5460408051633ed691ef60e01b815290516000926001600160a01b031691633ed691ef9160048083019260209291908290030181865afa158015612f1b573d6000803e3d6000fd5b505050506040513d601f19601f82011682018060405250810190612f3f9190614fce565b60688054919250600160c01b9091046001600160401b0316906018612f6383614f85565b91906101000a8154816001600160401b0302191690836001600160401b03160217905550508484604051612f98929190615394565b604051908190038120612fb19183904290602001614fab565b60408051808303601f190181529181528151602092830120606854600160c01b90046001600160401b03166000908152606690935291205532330361305557606854604080518381523360208201526060918101829052600091810191909152600160c01b9091046001600160401b0316907ff94bb37db835f1ab585ee00041849a09b12cd081d77fa15ca070757619cbc9319060800160405180910390a26130b2565b606860189054906101000a90046001600160401b03166001600160401b03167ff94bb37db835f1ab585ee00041849a09b12cd081d77fa15ca070757619cbc931823388886040516130a994939291906153a4565b60405180910390a25b5050505050565b606a546001600160a01b031633146130e35760405162461bcd60e51b815260040161092690615337565b6130f388888888888888886133d9565b6069805467ffffffffffffffff19166001600160401b038881169182179092556000908152606d60205260409020859055607254161561313e57607280546001600160801b03191690555b606c546040516333d6247d60e01b8152600481018790526001600160a01b03909116906333d6247d90602401600060405180830381600087803b15801561318457600080fd5b505af1158015613198573d6000803e3d6000fd5b50506040518681523392506001600160401b03891691507f0c0ce073a7d7b5850c04ccc4b20ee7d3179d5f57d0ac44399565792c0f72fce7906020016118dd565b6073546001600160a01b031633146132035760405162461bcd60e51b815260040161092690614dd7565b606a80546001600160a01b0319166001600160a01b0383161790556040517f61f8fec29495a3078e9271456f05fb0707fd4e41f7661865f80fc437d06681ca90610a1b9083906148f5565b613256613d07565b6001600160a01b0381166132bb5760405162461bcd60e51b815260206004820152602660248201527f4f776e61626c653a206e6577206f776e657220697320746865207a65726f206160448201526564647265737360d01b6064820152608401610926565b611a2681613d61565b6040516001600160a01b038085166024830152831660448201526064810182905261332f9085906323b872dd60e01b906084015b60408051601f198184030181529190526020810180516001600160e01b03166001600160e01b031990931692909217909152614504565b50505050565b6072546001600160401b03600160401b8204811691161115611e9a5760725460009061337290600160401b90046001600160401b03166001614e30565b905061337d81610bc7565b15611a265760725460009060029061339f9084906001600160401b031661503f565b6133a991906153eb565b6133b39083614e30565b90506133be81610bc7565b156133d0576133cc81613ac2565b5050565b6133cc82613ac2565b6000806133e4612589565b90506001600160401b038a161561354a576072546001600160401b03908116908b16111561349c5760405162461bcd60e51b815260206004820152605960248201527f506f6c79676f6e5a6b45564d3a3a5f766572696679426174636865733a20706560448201527f6e64696e6753746174654e756d206d757374206265206c657373206f7220657160648201527875616c207468616e206c61737450656e64696e67537461746560381b608482015260a401610926565b6001600160401b03808b1660009081526071602052604090206002810154815490945090918b8116600160401b90920416146135445760405162461bcd60e51b815260206004820152604d60248201526000805160206155df83398151915260448201527f69744e756d4261746368206d757374206d61746368207468652070656e64696e60648201526c0ce40e6e8c2e8ca40c4c2e8c6d609b1b608482015260a401610926565b50613670565b6001600160401b0389166000908152606d60205260409020549150816135d45760405162461bcd60e51b8152602060048201526044602482018190526000805160206155df833981519152908201527f69744e756d426174636820737461746520726f6f7420646f6573206e6f7420656064820152631e1a5cdd60e21b608482015260a401610926565b806001600160401b0316896001600160401b031611156136705760405162461bcd60e51b815260206004820152605e60248201526000805160206155df83398151915260448201527f69744e756d4261746368206d757374206265206c657373206f7220657175616c60648201527f207468616e2063757272656e744c617374566572696669656442617463680000608482015260a401610926565b806001600160401b0316886001600160401b0316116137185760405162461bcd60e51b815260206004820152605860248201527f506f6c79676f6e5a6b45564d3a3a5f766572696679426174636865733a20666960448201527f6e616c4e65774261746368206d75737420626520626967676572207468616e206064820152770c6eae4e4cadce898c2e6e8accae4d2ccd2cac884c2e8c6d60431b608482015260a401610926565b60006137278a8a8a868b610a26565b905060007f30644e72e131a029b85045b68181585d2833e84879b9709143e1f593f000000160028360405161375c9190615411565b602060405180830381855afa158015613779573d6000803e3d6000fd5b5050506040513d601f19601f8201168201806040525081019061379c9190614fce565b6137a69190615423565b606b546040805160208101825283815290516343753b4d60e01b81529293506001600160a01b03909116916343753b4d916137ea918b918b918b9190600401615437565b602060405180830381865afa158015613807573d6000803e3d6000fd5b505050506040513d601f19601f8201168201806040525081019061382b91906154b1565b61388b5760405162461bcd60e51b815260206004820152602b60248201527f506f6c79676f6e5a6b45564d3a3a5f766572696679426174636865733a20496e60448201526a3b30b634b210383937b7b360a91b6064820152608401610926565b6138ce33613899858d61503f565b6001600160401b03166138aa61227e565b6138b4919061507e565b606554600160581b90046001600160a01b031691906145db565b505050505050505050505050565b60006138e6612589565b9050816000806138f6848461503f565b6001600160401b031690505b836001600160401b0316836001600160401b0316146139a8576001600160401b03808416600090815260676020526040902060655460018201549192610100909104811691613952911642615067565b111561398d57600181015461397790600160401b90046001600160401b03168561503f565b61398a906001600160401b03168461528e565b92505b60010154600160401b90046001600160401b03169250613902565b60006139b48383615067565b905082811015613a2e5760006139ca8285615067565b9050600c81116139da57806139dd565b600c5b90506139ea81600361507e565b6139f590600a6155b2565b606554613a0e908390600160481b900461ffff166155b2565b607554613a1b919061507e565b613a259190615211565b60755550613aba565b6000613a3a8483615067565b9050600c8111613a4a5780613a4d565b600c5b90506000613a5c82600361507e565b613a6790600a6155b2565b606554613a80908490600160481b900461ffff166155b2565b607554613a8d919061507e565b613a979190615211565b905080607554607554613aaa919061507e565b613ab49190615211565b60755550505b505050505050565b6072546001600160401b03600160401b9091048116908216118015613af657506072546001600160401b0390811690821611155b613b685760405162461bcd60e51b815260206004820152603f60248201527f506f6c79676f6e5a6b45564d3a3a5f636f6e736f6c696461746550656e64696e60448201527f6753746174653a2070656e64696e6753746174654e756d20696e76616c6964006064820152608401610926565b6001600160401b038181166000818152607160209081526040808320805460698054600160401b9283900490981667ffffffffffffffff19909816881790556002820154878652606d90945293829020929092556072805467ffffffffffffffff60401b19169390940292909217909255606c54600183015491516333d6247d60e01b815260048101929092529192916001600160a01b0316906333d6247d90602401600060405180830381600087803b158015613c2557600080fd5b505af1158015613c39573d6000803e3d6000fd5b50505050826001600160401b0316816001600160401b03167f328d3c6c0fd6f1be0515e422f2d87e59f25922cbc2233568515a0c4bc3f8510e8460020154604051613c8691815260200190565b60405180910390a3505050565b600054610100900460ff16613cfe5760405162461bcd60e51b815260206004820152602b60248201527f496e697469616c697a61626c653a20636f6e7472616374206973206e6f74206960448201526a6e697469616c697a696e6760a81b6064820152608401610926565b611e9a33613d61565b6033546001600160a01b03163314611e9a5760405162461bcd60e51b815260206004820181905260248201527f4f776e61626c653a2063616c6c6572206973206e6f7420746865206f776e65726044820152606401610926565b603380546001600160a01b038381166001600160a01b0319831681179093556040519116919082907f8be0079c531659141344cd1fd0a4f28419497f9722a3daafe3b4186f6b6457e090600090a35050565b607060009054906101000a90046001600160a01b03166001600160a01b0316632072f6c56040518163ffffffff1660e01b8152600401600060405180830381600087803b158015613e0357600080fd5b505af1158015613e17573d6000803e3d6000fd5b50505050611e9a61460b565b60006001600160401b038a1615613f93576072546001600160401b03908116908b161115613edb5760405162461bcd60e51b815260206004820152606560248201526000805160206155ff83398151915260448201527f696e6753746174653a2070656e64696e6753746174654e756d206d757374206260648201527f65206c657373206f7220657175616c207468616e206c61737450656e64696e67608482015264537461746560d81b60a482015260c401610926565b506001600160401b03808a1660009081526071602052604090206002810154815490928a8116600160401b9092041614613f8d5760405162461bcd60e51b815260206004820152605960248201526000805160206155ff83398151915260448201527f696e6753746174653a20696e69744e756d4261746368206d757374206d6174636064820152780d040e8d0ca40e0cadcc8d2dcce40e6e8c2e8ca40c4c2e8c6d603b1b608482015260a401610926565b506140cc565b506001600160401b0387166000908152606d6020526040902054806140275760405162461bcd60e51b815260206004820152605060248201526000805160206155ff83398151915260448201527f696e6753746174653a20696e69744e756d426174636820737461746520726f6f60648201526f1d08191bd95cc81b9bdd08195e1a5cdd60821b608482015260a401610926565b6069546001600160401b0390811690891611156140cc5760405162461bcd60e51b815260206004820152606360248201526000805160206155ff83398151915260448201527f696e6753746174653a20696e69744e756d4261746368206d757374206265206c60648201527f657373206f7220657175616c207468616e206c617374566572696669656442616084820152620e8c6d60eb1b60a482015260c401610926565b6072546001600160401b03908116908a16118015906140fc5750896001600160401b0316896001600160401b0316115b801561411d57506072546001600160401b03600160401b9091048116908a16115b61418e5760405162461bcd60e51b815260206004820152604860248201526000805160206155ff83398151915260448201527f696e6753746174653a2066696e616c50656e64696e6753746174654e756d20696064820152671b98dbdc9c9958dd60c21b608482015260a401610926565b6001600160401b03898116600090815260716020526040902054600160401b90048116908816146142455760405162461bcd60e51b815260206004820152606160248201526000805160206155ff83398151915260448201527f696e6753746174653a2066696e616c4e65774261746368206d7573742062652060648201527f657175616c20746f2063757272656e744c6173745665726966696564426174636084820152600d60fb1b60a482015260c401610926565b6000614254898989858a610a26565b905060007f30644e72e131a029b85045b68181585d2833e84879b9709143e1f593f00000016002836040516142899190615411565b602060405180830381855afa1580156142a6573d6000803e3d6000fd5b5050506040513d601f19601f820116820180604052508101906142c99190614fce565b6142d39190615423565b606b546040805160208101825283815290516343753b4d60e01b81529293506001600160a01b03909116916343753b4d91614317918a918a918a9190600401615437565b602060405180830381865afa158015614334573d6000803e3d6000fd5b505050506040513d601f19601f8201168201806040525081019061435891906154b1565b6143b25760405162461bcd60e51b815260206004820152603760248201526000805160206155ff83398151915260448201527634b733a9ba30ba329d1024b73b30b634b210383937b7b360491b6064820152608401610926565b6001600160401b038b166000908152607160205260409020600201548790036138ce5760405162461bcd60e51b815260206004820152605b60248201526000805160206155ff83398151915260448201527f696e6753746174653a2053746f72656420726f6f74206d75737420626520646960648201527f66666572656e74207468616e206e657720737461746520726f6f740000000000608482015260a401610926565b60655460ff166144cf5760405162461bcd60e51b815260206004820152603b60248201527f456d657267656e63794d616e616765723a3a6966456d657267656e637953746160448201527f74653a206f6e6c7920696620656d657267656e637920737461746500000000006064820152608401610926565b6065805460ff191690556040517f1e5e34eea33501aecf2ebec9fe0e884a40804275ea7fe10b2ba084c8374308b390600090a1565b6000614559826040518060400160405280602081526020017f5361666545524332303a206c6f772d6c6576656c2063616c6c206661696c6564815250856001600160a01b03166146669092919063ffffffff16565b8051909150156145d6578080602001905181019061457791906154b1565b6145d65760405162461bcd60e51b815260206004820152602a60248201527f5361666545524332303a204552433230206f7065726174696f6e20646964206e6044820152691bdd081cdd58d8d9595960b21b6064820152608401610926565b505050565b6040516001600160a01b0383166024820152604481018290526145d690849063a9059cbb60e01b906064016132f8565b60655460ff161561462e5760405162461bcd60e51b815260040161092690614e5b565b6065805460ff191660011790556040517f2261efe5aef6fedc1fd1550b25facc9181745623049c7901287030b9ad1a549790600090a1565b6060614675848460008561467d565b949350505050565b6060824710156146de5760405162461bcd60e51b815260206004820152602660248201527f416464726573733a20696e73756666696369656e742062616c616e636520666f6044820152651c8818d85b1b60d21b6064820152608401610926565b600080866001600160a01b031685876040516146fa9190615411565b60006040518083038185875af1925050503d8060008114614737576040519150601f19603f3d011682016040523d82523d6000602084013e61473c565b606091505b509150915061474d87838387614758565b979650505050505050565b606083156147c75782516000036147c0576001600160a01b0385163b6147c05760405162461bcd60e51b815260206004820152601d60248201527f416464726573733a2063616c6c20746f206e6f6e2d636f6e74726163740000006044820152606401610926565b5081614675565b61467583838151156147dc5781518083602001fd5b8060405162461bcd60e51b8152600401610926919061484e565b60005b838110156148115781810151838201526020016147f9565b8381111561332f5750506000910152565b6000815180845261483a8160208601602086016147f6565b601f01601f19169290920160200192915050565b6020815260006148616020830184614822565b9392505050565b60006020828403121561487a57600080fd5b813561ffff8116811461486157600080fd5b80356001600160401b03811681146148a357600080fd5b919050565b600080600080600060a086880312156148c057600080fd5b6148c98661488c565b94506148d76020870161488c565b94979496505050506040830135926060810135926080909101359150565b6001600160a01b0391909116815260200190565b60006020828403121561491b57600080fd5b6148618261488c565b60008083601f84011261493657600080fd5b5081356001600160401b0381111561494d57600080fd5b6020830191508360208260051b850101111561496857600080fd5b9250929050565b6000806020838503121561498257600080fd5b82356001600160401b0381111561499857600080fd5b6149a485828601614924565b90969095509350505050565b80604081018310156149c157600080fd5b92915050565b80608081018310156149c157600080fd5b6000806000806000806000806101a0898b0312156149f557600080fd5b6149fe8961488c565b9750614a0c60208a0161488c565b9650614a1a60408a0161488c565b95506060890135945060808901359350614a378a60a08b016149b0565b9250614a468a60e08b016149c7565b9150614a568a6101608b016149b0565b90509295985092959890939650565b6001600160a01b0381168114611a2657600080fd5b634e487b7160e01b600052604160045260246000fd5b600082601f830112614aa157600080fd5b81356001600160401b0380821115614abb57614abb614a7a565b604051601f8301601f19908116603f01168101908282118183101715614ae357614ae3614a7a565b81604052838152866020858801011115614afc57600080fd5b836020870160208301376000602085830101528094505050505092915050565b600080600080600080600080888a036101c0811215614b3a57600080fd5b8935614b4581614a65565b985060208a0135614b5581614a65565b975060408a0135614b6581614a65565b965060608a0135614b7581614a65565b955060e0607f1982011215614b8957600080fd5b5060808901935061016089013592506101808901356001600160401b0380821115614bb357600080fd5b614bbf8c838d01614a90565b93506101a08b0135915080821115614bd657600080fd5b50614be38b828c01614a90565b9150509295985092959890939650565b600060208284031215614c0557600080fd5b813561486181614a65565b60008060008060008060008060006101c08a8c031215614c2f57600080fd5b614c388a61488c565b9850614c4660208b0161488c565b9750614c5460408b0161488c565b9650614c6260608b0161488c565b955060808a0135945060a08a01359350614c7f8b60c08c016149b0565b9250614c8f8b6101008c016149c7565b9150614c9f8b6101808c016149b0565b90509295985092959850929598565b600060208284031215614cc057600080fd5b5035919050565b8015158114611a2657600080fd5b600060208284031215614ce757600080fd5b813561486181614cc7565b600060208284031215614d0457600080fd5b81356001600160401b03811115614d1a57600080fd5b61467584828501614a90565b600080600060408486031215614d3b57600080fd5b83356001600160401b0380821115614d5257600080fd5b818601915086601f830112614d6657600080fd5b813581811115614d7557600080fd5b876020828501011115614d8757600080fd5b6020928301989097509590910135949350505050565b600181811c90821680614db157607f821691505b602082108103614dd157634e487b7160e01b600052602260045260246000fd5b50919050565b60208082526023908201527f506f6c79676f6e5a6b45564d3a3a6f6e6c7941646d696e3a204f6e6c7920616460408201526236b4b760e91b606082015260800190565b634e487b7160e01b600052601160045260246000fd5b60006001600160401b03808316818516808303821115614e5257614e52614e1a565b01949350505050565b60208082526042908201527f456d657267656e63794d616e616765723a3a69664e6f74456d657267656e637960408201527f53746174653a206f6e6c79206966206e6f7420656d657267656e637920737461606082015261746560f01b608082015260a00190565b634e487b7160e01b600052603260045260246000fd5b60008235607e19833603018112614eef57600080fd5b9190910192915050565b600060808236031215614f0b57600080fd5b604051608081016001600160401b038282108183111715614f2e57614f2e614a7a565b816040528435915080821115614f4357600080fd5b50614f5036828601614a90565b82525060208301356020820152614f696040840161488c565b6040820152614f7a6060840161488c565b606082015292915050565b60006001600160401b03808316818103614fa157614fa1614e1a565b6001019392505050565b928352602083019190915260c01b6001600160c01b031916604082015260480190565b600060208284031215614fe057600080fd5b5051919050565b9485526020850193909352604084019190915260c01b6001600160c01b0319166060808401919091521b6001600160601b0319166068820152607c0190565b60006001820161503857615038614e1a565b5060010190565b60006001600160401b038381169083168181101561505f5761505f614e1a565b039392505050565b60008282101561507957615079614e1a565b500390565b600081600019048311821515161561509857615098614e1a565b500290565b601f8211156145d657600081815260208120601f850160051c810160208610156150c45750805b601f850160051c820191505b81811015613aba578281556001016150d0565b81516001600160401b038111156150fc576150fc614a7a565b6151108161510a8454614d9d565b8461509d565b602080601f831160018114615145576000841561512d5750858301515b600019600386901b1c1916600185901b178555613aba565b600085815260208120601f198616915b8281101561517457888601518255948401946001909101908401615155565b50858210156151925787850151600019600388901b60f8161c191681555b5050505050600190811b01905550565b60208082526039908201527f506f6c79676f6e5a6b45564d3a3a696e697469616c697a653a20457863656564604082015278081a185b1d081859d9dc9959d85d1a5bdb881d1a5b595bdd5d603a1b606082015260800190565b634e487b7160e01b600052601260045260246000fd5b600082615220576152206151fb565b500490565b60208082526043908201527f506f6c79676f6e5a6b45564d3a3a6973466f7263654261746368416c6c6f776560408201527f643a204f6e6c7920696620666f72636520626174636820697320617661696c61606082015262626c6560e81b608082015260a00190565b600082198211156152a1576152a1614e1a565b500190565b60008235605e19833603018112614eef57600080fd5b6000606082360312156152ce57600080fd5b604051606081016001600160401b0382821081831117156152f1576152f1614a7a565b81604052843591508082111561530657600080fd5b5061531336828601614a90565b8252506020830135602082015261532c6040840161488c565b604082015292915050565b6020808252603c908201527f506f6c79676f6e5a6b45564d3a3a6f6e6c79547275737465644167677265676160408201527f746f723a204f6e6c7920747275737465642061676772656761746f7200000000606082015260800190565b8183823760009101908152919050565b8481526001600160a01b03841660208201526060604082018190528101829052818360808301376000818301608090810191909152601f909201601f191601019392505050565b60006001600160401b0380841680615405576154056151fb565b92169190910492915050565b60008251614eef8184602087016147f6565b600082615432576154326151fb565b500690565b61012081016040808784376000838201818152879190815b600281101561546f5784848337908401828152928401929060010161544f565b5050828760c0870137610100850181815286935091505b60018110156154a5578251825260209283019290910190600101615486565b50505095945050505050565b6000602082840312156154c357600080fd5b815161486181614cc7565b600181815b808511156155095781600019048211156154ef576154ef614e1a565b808516156154fc57918102915b93841c93908002906154d3565b509250929050565b600082615520575060016149c1565b8161552d575060006149c1565b8160018114615543576002811461554d57615569565b60019150506149c1565b60ff84111561555e5761555e614e1a565b50506001821b6149c1565b5060208310610133831016604e8410600b841016171561558c575081810a6149c1565b61559683836154ce565b80600019048211156155aa576155aa614e1a565b029392505050565b6000614861838361551156fe506f6c79676f6e5a6b45564d3a3a6163746976617465456d657267656e637953506f6c79676f6e5a6b45564d3a3a5f766572696679426174636865733a20696e506f6c79676f6e5a6b45564d3a3a5f70726f766544697374696e637450656e64506f6c79676f6e5a6b45564d3a3a73657175656e6365466f7263654261746368506f6c79676f6e5a6b45564d3a3a73657175656e6365426174636865733a2046a26469706673582212207b81e0d9e6e6955f97494855559da7b1e8a2c205f150cf19370acd894993df7e64736f6c634300080f0033",
  "linkReferences": {},
  "deployedLinkReferences": {}
}