{
  "_format": "hh-sol-artifact-1",
  "contractName": "PolygonRollupManagerMock",
  "sourceName": "contracts/v2/mocks/PolygonRollupManagerMock.sol",
  "abi": [
    {
      "inputs": [
        {
          "internalType": "contract IPolygonZkEVMGlobalExitRootV2",
          "name": "_globalExitRootManager",
          "type": "address"
        },
        {
          "internalType": "contract IERC20Upgradeable",
          "name": "_pol",
          "type": "address"
        },
        {
          "internalType": "contract IPolygonZkEVMBridge",
          "name": "_bridgeAddress",
          "type": "address"
        }
      ],
      "stateMutability": "nonpayable",
      "type": "constructor"
    },
    {
      "inputs": [],
      "name": "AccessControlOnlyCanRenounceRolesForSelf",
      "type": "error"
    },
    {
      "inputs": [],
      "name": "AddressDoNotHaveRequiredRole",
      "type": "error"
    },
    {
      "inputs": [],
      "name": "AllBatchesMustBeVerified",
      "type": "error"
    },
    {
      "inputs": [],
      "name": "AllSequencedMustBeVerified",
      "type": "error"
    },
    {
      "inputs": [],
      "name": "AllzkEVMSequencedBatchesMustBeVerified",
      "type": "error"
    },
    {
      "inputs": [],
      "name": "BatchFeeOutOfRange",
      "type": "error"
    },
    {
      "inputs": [],
      "name": "CannotUpdateWithUnconsolidatedPendingState",
      "type": "error"
    },
    {
      "inputs": [],
      "name": "ChainIDAlreadyExist",
      "type": "error"
    },
    {
      "inputs": [],
      "name": "ChainIDOutOfRange",
      "type": "error"
    },
    {
      "inputs": [],
      "name": "EmptyVerifySequencesData",
      "type": "error"
    },
    {
      "inputs": [],
      "name": "ExceedMaxVerifyBatches",
      "type": "error"
    },
    {
      "inputs": [],
      "name": "FinalNumBatchBelowLastVerifiedBatch",
      "type": "error"
    },
    {
      "inputs": [],
      "name": "FinalNumBatchDoesNotMatchPendingState",
      "type": "error"
    },
    {
      "inputs": [],
      "name": "FinalNumSequenceBelowLastVerifiedSequence",
      "type": "error"
    },
    {
      "inputs": [],
      "name": "FinalNumSequenceDoesNotMatchPendingState",
      "type": "error"
    },
    {
      "inputs": [],
      "name": "FinalPendingStateNumInvalid",
      "type": "error"
    },
    {
      "inputs": [],
      "name": "GlobalExitRootNotExist",
      "type": "error"
    },
    {
      "inputs": [],
      "name": "HaltTimeoutNotExpired",
      "type": "error"
    },
    {
      "inputs": [],
      "name": "InitBatchMustMatchCurrentForkID",
      "type": "error"
    },
    {
      "inputs": [],
      "name": "InitNumBatchAboveLastVerifiedBatch",
      "type": "error"
    },
    {
      "inputs": [],
      "name": "InitNumBatchDoesNotMatchPendingState",
      "type": "error"
    },
    {
      "inputs": [],
      "name": "InitSequenceMustMatchCurrentForkID",
      "type": "error"
    },
    {
      "inputs": [],
      "name": "InitSequenceNumDoesNotMatchPendingState",
      "type": "error"
    },
    {
      "inputs": [],
      "name": "InvalidPessimisticProof",
      "type": "error"
    },
    {
      "inputs": [],
      "name": "InvalidProof",
      "type": "error"
    },
    {
      "inputs": [],
      "name": "InvalidRangeBatchTimeTarget",
      "type": "error"
    },
    {
      "inputs": [],
      "name": "InvalidRangeMultiplierBatchFee",
      "type": "error"
    },
    {
      "inputs": [],
      "name": "InvalidRangeMultiplierZkGasPrice",
      "type": "error"
    },
    {
      "inputs": [],
      "name": "InvalidRangeSequenceTimeTarget",
      "type": "error"
    },
    {
      "inputs": [],
      "name": "InvalidRollup",
      "type": "error"
    },
    {
      "inputs": [],
      "name": "InvalidRollupType",
      "type": "error"
    },
    {
      "inputs": [],
      "name": "MustSequenceSomeBatch",
      "type": "error"
    },
    {
      "inputs": [],
      "name": "MustSequenceSomeBlob",
      "type": "error"
    },
    {
      "inputs": [],
      "name": "NewAccInputHashDoesNotExist",
      "type": "error"
    },
    {
      "inputs": [],
      "name": "NewPendingStateTimeoutMustBeLower",
      "type": "error"
    },
    {
      "inputs": [],
      "name": "NewStateRootNotInsidePrime",
      "type": "error"
    },
    {
      "inputs": [],
      "name": "NewTrustedAggregatorTimeoutMustBeLower",
      "type": "error"
    },
    {
      "inputs": [],
      "name": "NotAllowedAddress",
      "type": "error"
    },
    {
      "inputs": [],
      "name": "OldAccInputHashDoesNotExist",
      "type": "error"
    },
    {
      "inputs": [],
      "name": "OldStateRootDoesNotExist",
      "type": "error"
    },
    {
      "inputs": [],
      "name": "OnlyChainsWithPessimisticProofs",
      "type": "error"
    },
    {
      "inputs": [],
      "name": "OnlyEmergencyState",
      "type": "error"
    },
    {
      "inputs": [],
      "name": "OnlyNotEmergencyState",
      "type": "error"
    },
    {
      "inputs": [],
      "name": "OnlyRollupAdmin",
      "type": "error"
    },
    {
      "inputs": [],
      "name": "OnlyStateTransitionChains",
      "type": "error"
    },
    {
      "inputs": [],
      "name": "PendingStateDoesNotExist",
      "type": "error"
    },
    {
      "inputs": [],
      "name": "PendingStateInvalid",
      "type": "error"
    },
    {
      "inputs": [],
      "name": "PendingStateNotConsolidable",
      "type": "error"
    },
    {
      "inputs": [],
      "name": "PendingStateNumExist",
      "type": "error"
    },
    {
      "inputs": [],
      "name": "RollbackBatchIsNotEndOfSequence",
      "type": "error"
    },
    {
      "inputs": [],
      "name": "RollbackBatchIsNotValid",
      "type": "error"
    },
    {
      "inputs": [],
      "name": "RollupAddressAlreadyExist",
      "type": "error"
    },
    {
      "inputs": [],
      "name": "RollupIDNotAscendingOrder",
      "type": "error"
    },
    {
      "inputs": [],
      "name": "RollupMustExist",
      "type": "error"
    },
    {
      "inputs": [],
      "name": "RollupTypeDoesNotExist",
      "type": "error"
    },
    {
      "inputs": [],
      "name": "RollupTypeObsolete",
      "type": "error"
    },
    {
      "inputs": [],
      "name": "SenderMustBeRollup",
      "type": "error"
    },
    {
      "inputs": [],
      "name": "StoredRootMustBeDifferentThanNewRoot",
      "type": "error"
    },
    {
      "inputs": [],
      "name": "TrustedAggregatorTimeoutNotExpired",
      "type": "error"
    },
    {
      "inputs": [],
      "name": "UpdateNotCompatible",
      "type": "error"
    },
    {
      "inputs": [],
      "name": "UpdateToOldRollupTypeID",
      "type": "error"
    },
    {
      "inputs": [],
      "name": "UpdateToSameRollupTypeID",
      "type": "error"
    },
    {
      "inputs": [],
      "name": "zkGasPriceOfRange",
      "type": "error"
    },
    {
      "anonymous": false,
      "inputs": [
        {
          "indexed": true,
          "internalType": "uint32",
          "name": "rollupID",
          "type": "uint32"
        },
        {
          "indexed": false,
          "internalType": "uint64",
          "name": "forkID",
          "type": "uint64"
        },
        {
          "indexed": false,
          "internalType": "address",
          "name": "rollupAddress",
          "type": "address"
        },
        {
          "indexed": false,
          "internalType": "uint64",
          "name": "chainID",
          "type": "uint64"
        },
        {
          "indexed": false,
          "internalType": "enum PolygonRollupManager.VerifierType",
          "name": "rollupVerifierType",
          "type": "uint8"
        },
        {
          "indexed": false,
          "internalType": "uint64",
          "name": "lastVerifiedBatchBeforeUpgrade",
          "type": "uint64"
        },
        {
          "indexed": false,
          "internalType": "bytes32",
          "name": "programVKey",
          "type": "bytes32"
        }
      ],
      "name": "AddExistingRollup",
      "type": "event"
    },
    {
      "anonymous": false,
      "inputs": [
        {
          "indexed": true,
          "internalType": "uint32",
          "name": "rollupTypeID",
          "type": "uint32"
        },
        {
          "indexed": false,
          "internalType": "address",
          "name": "consensusImplementation",
          "type": "address"
        },
        {
          "indexed": false,
          "internalType": "address",
          "name": "verifier",
          "type": "address"
        },
        {
          "indexed": false,
          "internalType": "uint64",
          "name": "forkID",
          "type": "uint64"
        },
        {
          "indexed": false,
          "internalType": "enum PolygonRollupManager.VerifierType",
          "name": "rollupVerifierType",
          "type": "uint8"
        },
        {
          "indexed": false,
          "internalType": "bytes32",
          "name": "genesis",
          "type": "bytes32"
        },
        {
          "indexed": false,
          "internalType": "string",
          "name": "description",
          "type": "string"
        },
        {
          "indexed": false,
          "internalType": "bytes32",
          "name": "programVKey",
          "type": "bytes32"
        }
      ],
      "name": "AddNewRollupType",
      "type": "event"
    },
    {
      "anonymous": false,
      "inputs": [
        {
          "indexed": true,
          "internalType": "uint32",
          "name": "rollupID",
          "type": "uint32"
        },
        {
          "indexed": false,
          "internalType": "uint32",
          "name": "rollupTypeID",
          "type": "uint32"
        },
        {
          "indexed": false,
          "internalType": "address",
          "name": "rollupAddress",
          "type": "address"
        },
        {
          "indexed": false,
          "internalType": "uint64",
          "name": "chainID",
          "type": "uint64"
        },
        {
          "indexed": false,
          "internalType": "address",
          "name": "gasTokenAddress",
          "type": "address"
        }
      ],
      "name": "CreateNewRollup",
      "type": "event"
    },
    {
      "anonymous": false,
      "inputs": [],
      "name": "EmergencyStateActivated",
      "type": "event"
    },
    {
      "anonymous": false,
      "inputs": [],
      "name": "EmergencyStateDeactivated",
      "type": "event"
    },
    {
      "anonymous": false,
      "inputs": [
        {
          "indexed": false,
          "internalType": "uint8",
          "name": "version",
          "type": "uint8"
        }
      ],
      "name": "Initialized",
      "type": "event"
    },
    {
      "anonymous": false,
      "inputs": [
        {
          "indexed": true,
          "internalType": "uint32",
          "name": "rollupTypeID",
          "type": "uint32"
        }
      ],
      "name": "ObsoleteRollupType",
      "type": "event"
    },
    {
      "anonymous": false,
      "inputs": [
        {
          "indexed": true,
          "internalType": "uint32",
          "name": "rollupID",
          "type": "uint32"
        },
        {
          "indexed": false,
          "internalType": "uint64",
          "name": "lastBatchSequenced",
          "type": "uint64"
        }
      ],
      "name": "OnSequenceBatches",
      "type": "event"
    },
    {
      "anonymous": false,
      "inputs": [
        {
          "indexed": true,
          "internalType": "bytes32",
          "name": "role",
          "type": "bytes32"
        },
        {
          "indexed": true,
          "internalType": "bytes32",
          "name": "previousAdminRole",
          "type": "bytes32"
        },
        {
          "indexed": true,
          "internalType": "bytes32",
          "name": "newAdminRole",
          "type": "bytes32"
        }
      ],
      "name": "RoleAdminChanged",
      "type": "event"
    },
    {
      "anonymous": false,
      "inputs": [
        {
          "indexed": true,
          "internalType": "bytes32",
          "name": "role",
          "type": "bytes32"
        },
        {
          "indexed": true,
          "internalType": "address",
          "name": "account",
          "type": "address"
        },
        {
          "indexed": true,
          "internalType": "address",
          "name": "sender",
          "type": "address"
        }
      ],
      "name": "RoleGranted",
      "type": "event"
    },
    {
      "anonymous": false,
      "inputs": [
        {
          "indexed": true,
          "internalType": "bytes32",
          "name": "role",
          "type": "bytes32"
        },
        {
          "indexed": true,
          "internalType": "address",
          "name": "account",
          "type": "address"
        },
        {
          "indexed": true,
          "internalType": "address",
          "name": "sender",
          "type": "address"
        }
      ],
      "name": "RoleRevoked",
      "type": "event"
    },
    {
      "anonymous": false,
      "inputs": [
        {
          "indexed": true,
          "internalType": "uint32",
          "name": "rollupID",
          "type": "uint32"
        },
        {
          "indexed": true,
          "internalType": "uint64",
          "name": "targetBatch",
          "type": "uint64"
        },
        {
          "indexed": false,
          "internalType": "bytes32",
          "name": "accInputHashToRollback",
          "type": "bytes32"
        }
      ],
      "name": "RollbackBatches",
      "type": "event"
    },
    {
      "anonymous": false,
      "inputs": [
        {
          "indexed": false,
          "internalType": "uint256",
          "name": "newBatchFee",
          "type": "uint256"
        }
      ],
      "name": "SetBatchFee",
      "type": "event"
    },
    {
      "anonymous": false,
      "inputs": [
        {
          "indexed": false,
          "internalType": "address",
          "name": "newTrustedAggregator",
          "type": "address"
        }
      ],
      "name": "SetTrustedAggregator",
      "type": "event"
    },
    {
      "anonymous": false,
      "inputs": [
        {
          "indexed": true,
          "internalType": "uint32",
          "name": "rollupID",
          "type": "uint32"
        },
        {
          "indexed": false,
          "internalType": "uint32",
          "name": "newRollupTypeID",
          "type": "uint32"
        },
        {
          "indexed": false,
          "internalType": "uint64",
          "name": "lastVerifiedBatchBeforeUpgrade",
          "type": "uint64"
        }
      ],
      "name": "UpdateRollup",
      "type": "event"
    },
    {
      "anonymous": false,
      "inputs": [
        {
          "indexed": true,
          "internalType": "uint32",
          "name": "rollupID",
          "type": "uint32"
        },
        {
          "indexed": false,
          "internalType": "uint64",
          "name": "numBatch",
          "type": "uint64"
        },
        {
          "indexed": false,
          "internalType": "bytes32",
          "name": "stateRoot",
          "type": "bytes32"
        },
        {
          "indexed": false,
          "internalType": "bytes32",
          "name": "exitRoot",
          "type": "bytes32"
        },
        {
          "indexed": true,
          "internalType": "address",
          "name": "aggregator",
          "type": "address"
        }
      ],
      "name": "VerifyBatchesTrustedAggregator",
      "type": "event"
    },
    {
      "inputs": [],
      "name": "DEFAULT_ADMIN_ROLE",
      "outputs": [
        {
          "internalType": "bytes32",
          "name": "",
          "type": "bytes32"
        }
      ],
      "stateMutability": "view",
      "type": "function"
    },
    {
      "inputs": [],
      "name": "activateEmergencyState",
      "outputs": [],
      "stateMutability": "nonpayable",
      "type": "function"
    },
    {
      "inputs": [
        {
          "internalType": "contract IPolygonRollupBase",
          "name": "rollupAddress",
          "type": "address"
        },
        {
          "internalType": "address",
          "name": "verifier",
          "type": "address"
        },
        {
          "internalType": "uint64",
          "name": "forkID",
          "type": "uint64"
        },
        {
          "internalType": "uint64",
          "name": "chainID",
          "type": "uint64"
        },
        {
          "internalType": "bytes32",
          "name": "initRoot",
          "type": "bytes32"
        },
        {
          "internalType": "enum PolygonRollupManager.VerifierType",
          "name": "rollupVerifierType",
          "type": "uint8"
        },
        {
          "internalType": "bytes32",
          "name": "programVKey",
          "type": "bytes32"
        }
      ],
      "name": "addExistingRollup",
      "outputs": [],
      "stateMutability": "nonpayable",
      "type": "function"
    },
    {
      "inputs": [
        {
          "internalType": "address",
          "name": "consensusImplementation",
          "type": "address"
        },
        {
          "internalType": "address",
          "name": "verifier",
          "type": "address"
        },
        {
          "internalType": "uint64",
          "name": "forkID",
          "type": "uint64"
        },
        {
          "internalType": "enum PolygonRollupManager.VerifierType",
          "name": "rollupVerifierType",
          "type": "uint8"
        },
        {
          "internalType": "bytes32",
          "name": "genesis",
          "type": "bytes32"
        },
        {
          "internalType": "string",
          "name": "description",
          "type": "string"
        },
        {
          "internalType": "bytes32",
          "name": "programVKey",
          "type": "bytes32"
        }
      ],
      "name": "addNewRollupType",
      "outputs": [],
      "stateMutability": "nonpayable",
      "type": "function"
    },
    {
      "inputs": [],
      "name": "bridgeAddress",
      "outputs": [
        {
          "internalType": "contract IPolygonZkEVMBridge",
          "name": "",
          "type": "address"
        }
      ],
      "stateMutability": "view",
      "type": "function"
    },
    {
      "inputs": [],
      "name": "calculateRewardPerBatch",
      "outputs": [
        {
          "internalType": "uint256",
          "name": "",
          "type": "uint256"
        }
      ],
      "stateMutability": "view",
      "type": "function"
    },
    {
      "inputs": [
        {
          "internalType": "uint64",
          "name": "chainID",
          "type": "uint64"
        }
      ],
      "name": "chainIDToRollupID",
      "outputs": [
        {
          "internalType": "uint32",
          "name": "rollupID",
          "type": "uint32"
        }
      ],
      "stateMutability": "view",
      "type": "function"
    },
    {
      "inputs": [
        {
          "internalType": "uint32",
          "name": "rollupTypeID",
          "type": "uint32"
        },
        {
          "internalType": "uint64",
          "name": "chainID",
          "type": "uint64"
        },
        {
          "internalType": "address",
          "name": "admin",
          "type": "address"
        },
        {
          "internalType": "address",
          "name": "sequencer",
          "type": "address"
        },
        {
          "internalType": "address",
          "name": "gasTokenAddress",
          "type": "address"
        },
        {
          "internalType": "string",
          "name": "sequencerURL",
          "type": "string"
        },
        {
          "internalType": "string",
          "name": "networkName",
          "type": "string"
        }
      ],
      "name": "createNewRollup",
      "outputs": [],
      "stateMutability": "nonpayable",
      "type": "function"
    },
    {
      "inputs": [],
      "name": "deactivateEmergencyState",
      "outputs": [],
      "stateMutability": "nonpayable",
      "type": "function"
    },
    {
      "inputs": [],
      "name": "getBatchFee",
      "outputs": [
        {
          "internalType": "uint256",
          "name": "",
          "type": "uint256"
        }
      ],
      "stateMutability": "view",
      "type": "function"
    },
    {
      "inputs": [],
      "name": "getForcedBatchFee",
      "outputs": [
        {
          "internalType": "uint256",
          "name": "",
          "type": "uint256"
        }
      ],
      "stateMutability": "view",
      "type": "function"
    },
    {
      "inputs": [
        {
          "internalType": "uint32",
          "name": "rollupID",
          "type": "uint32"
        },
        {
          "internalType": "bytes32",
          "name": "selectedGlobalExitRoot",
          "type": "bytes32"
        },
        {
          "internalType": "bytes32",
          "name": "newLocalExitRoot",
          "type": "bytes32"
        },
        {
          "internalType": "bytes32",
          "name": "newPessimisticRoot",
          "type": "bytes32"
        }
      ],
      "name": "getInputPessimisticBytes",
      "outputs": [
        {
          "internalType": "bytes",
          "name": "",
          "type": "bytes"
        }
      ],
      "stateMutability": "view",
      "type": "function"
    },
    {
      "inputs": [
        {
          "internalType": "uint32",
          "name": "rollupID",
          "type": "uint32"
        },
        {
          "internalType": "uint64",
          "name": "initNumBatch",
          "type": "uint64"
        },
        {
          "internalType": "uint64",
          "name": "finalNewBatch",
          "type": "uint64"
        },
        {
          "internalType": "bytes32",
          "name": "newLocalExitRoot",
          "type": "bytes32"
        },
        {
          "internalType": "bytes32",
          "name": "oldStateRoot",
          "type": "bytes32"
        },
        {
          "internalType": "bytes32",
          "name": "newStateRoot",
          "type": "bytes32"
        }
      ],
      "name": "getInputSnarkBytes",
      "outputs": [
        {
          "internalType": "bytes",
          "name": "",
          "type": "bytes"
        }
      ],
      "stateMutability": "view",
      "type": "function"
    },
    {
      "inputs": [
        {
          "internalType": "uint32",
          "name": "rollupID",
          "type": "uint32"
        }
      ],
      "name": "getLastVerifiedBatch",
      "outputs": [
        {
          "internalType": "uint64",
          "name": "",
          "type": "uint64"
        }
      ],
      "stateMutability": "view",
      "type": "function"
    },
    {
      "inputs": [
        {
          "internalType": "bytes32",
          "name": "role",
          "type": "bytes32"
        }
      ],
      "name": "getRoleAdmin",
      "outputs": [
        {
          "internalType": "bytes32",
          "name": "",
          "type": "bytes32"
        }
      ],
      "stateMutability": "view",
      "type": "function"
    },
    {
      "inputs": [
        {
          "internalType": "uint32",
          "name": "rollupID",
          "type": "uint32"
        },
        {
          "internalType": "uint64",
          "name": "batchNum",
          "type": "uint64"
        }
      ],
      "name": "getRollupBatchNumToStateRoot",
      "outputs": [
        {
          "internalType": "bytes32",
          "name": "",
          "type": "bytes32"
        }
      ],
      "stateMutability": "view",
      "type": "function"
    },
    {
      "inputs": [],
      "name": "getRollupExitRoot",
      "outputs": [
        {
          "internalType": "bytes32",
          "name": "",
          "type": "bytes32"
        }
      ],
      "stateMutability": "view",
      "type": "function"
    },
    {
      "inputs": [
        {
          "internalType": "uint32",
          "name": "rollupID",
          "type": "uint32"
        },
        {
          "internalType": "uint64",
          "name": "batchNum",
          "type": "uint64"
        }
      ],
      "name": "getRollupSequencedBatches",
      "outputs": [
        {
          "components": [
            {
              "internalType": "bytes32",
              "name": "accInputHash",
              "type": "bytes32"
            },
            {
              "internalType": "uint64",
              "name": "sequencedTimestamp",
              "type": "uint64"
            },
            {
              "internalType": "uint64",
              "name": "previousLastBatchSequenced",
              "type": "uint64"
            }
          ],
          "internalType": "struct LegacyZKEVMStateVariables.SequencedBatchData",
          "name": "",
          "type": "tuple"
        }
      ],
      "stateMutability": "view",
      "type": "function"
    },
    {
      "inputs": [],
      "name": "globalExitRootManager",
      "outputs": [
        {
          "internalType": "contract IPolygonZkEVMGlobalExitRootV2",
          "name": "",
          "type": "address"
        }
      ],
      "stateMutability": "view",
      "type": "function"
    },
    {
      "inputs": [
        {
          "internalType": "bytes32",
          "name": "role",
          "type": "bytes32"
        },
        {
          "internalType": "address",
          "name": "account",
          "type": "address"
        }
      ],
      "name": "grantRole",
      "outputs": [],
      "stateMutability": "nonpayable",
      "type": "function"
    },
    {
      "inputs": [
        {
          "internalType": "bytes32",
          "name": "role",
          "type": "bytes32"
        },
        {
          "internalType": "address",
          "name": "account",
          "type": "address"
        }
      ],
      "name": "hasRole",
      "outputs": [
        {
          "internalType": "bool",
          "name": "",
          "type": "bool"
        }
      ],
      "stateMutability": "view",
      "type": "function"
    },
    {
      "inputs": [
        {
          "internalType": "address",
          "name": "trustedAggregator",
          "type": "address"
        },
        {
          "internalType": "uint64",
          "name": "_pendingStateTimeout",
          "type": "uint64"
        },
        {
          "internalType": "uint64",
          "name": "_trustedAggregatorTimeout",
          "type": "uint64"
        },
        {
          "internalType": "address",
          "name": "admin",
          "type": "address"
        },
        {
          "internalType": "address",
          "name": "timelock",
          "type": "address"
        },
        {
          "internalType": "address",
          "name": "emergencyCouncil",
          "type": "address"
        }
      ],
      "name": "initializeMock",
      "outputs": [],
      "stateMutability": "nonpayable",
      "type": "function"
    },
    {
      "inputs": [],
      "name": "isEmergencyState",
      "outputs": [
        {
          "internalType": "bool",
          "name": "",
          "type": "bool"
        }
      ],
      "stateMutability": "view",
      "type": "function"
    },
    {
      "inputs": [],
      "name": "lastAggregationTimestamp",
      "outputs": [
        {
          "internalType": "uint64",
          "name": "",
          "type": "uint64"
        }
      ],
      "stateMutability": "view",
      "type": "function"
    },
    {
      "inputs": [],
      "name": "lastDeactivatedEmergencyStateTimestamp",
      "outputs": [
        {
          "internalType": "uint64",
          "name": "",
          "type": "uint64"
        }
      ],
      "stateMutability": "view",
      "type": "function"
    },
    {
      "inputs": [
        {
          "internalType": "uint32",
          "name": "rollupTypeID",
          "type": "uint32"
        }
      ],
      "name": "obsoleteRollupType",
      "outputs": [],
      "stateMutability": "nonpayable",
      "type": "function"
    },
    {
      "inputs": [
        {
          "internalType": "uint64",
          "name": "newSequencedBatches",
          "type": "uint64"
        },
        {
          "internalType": "bytes32",
          "name": "newAccInputHash",
          "type": "bytes32"
        }
      ],
      "name": "onSequenceBatches",
      "outputs": [
        {
          "internalType": "uint64",
          "name": "",
          "type": "uint64"
        }
      ],
      "stateMutability": "nonpayable",
      "type": "function"
    },
    {
      "inputs": [],
      "name": "pol",
      "outputs": [
        {
          "internalType": "contract IERC20Upgradeable",
          "name": "",
          "type": "address"
        }
      ],
      "stateMutability": "view",
      "type": "function"
    },
    {
      "inputs": [
        {
          "internalType": "bytes32[]",
          "name": "localExitRoots",
          "type": "bytes32[]"
        }
      ],
      "name": "prepareMockCalculateRoot",
      "outputs": [],
      "stateMutability": "nonpayable",
      "type": "function"
    },
    {
      "inputs": [
        {
          "internalType": "bytes32",
          "name": "role",
          "type": "bytes32"
        },
        {
          "internalType": "address",
          "name": "account",
          "type": "address"
        }
      ],
      "name": "renounceRole",
      "outputs": [],
      "stateMutability": "nonpayable",
      "type": "function"
    },
    {
      "inputs": [
        {
          "internalType": "bytes32",
          "name": "role",
          "type": "bytes32"
        },
        {
          "internalType": "address",
          "name": "account",
          "type": "address"
        }
      ],
      "name": "revokeRole",
      "outputs": [],
      "stateMutability": "nonpayable",
      "type": "function"
    },
    {
      "inputs": [
        {
          "internalType": "contract IPolygonRollupBase",
          "name": "rollupContract",
          "type": "address"
        },
        {
          "internalType": "uint64",
          "name": "targetBatch",
          "type": "uint64"
        }
      ],
      "name": "rollbackBatches",
      "outputs": [],
      "stateMutability": "nonpayable",
      "type": "function"
    },
    {
      "inputs": [
        {
          "internalType": "address",
          "name": "rollupAddress",
          "type": "address"
        }
      ],
      "name": "rollupAddressToID",
      "outputs": [
        {
          "internalType": "uint32",
          "name": "rollupID",
          "type": "uint32"
        }
      ],
      "stateMutability": "view",
      "type": "function"
    },
    {
      "inputs": [],
      "name": "rollupCount",
      "outputs": [
        {
          "internalType": "uint32",
          "name": "",
          "type": "uint32"
        }
      ],
      "stateMutability": "view",
      "type": "function"
    },
    {
      "inputs": [
        {
          "internalType": "uint32",
          "name": "rollupID",
          "type": "uint32"
        }
      ],
      "name": "rollupIDToRollupData",
      "outputs": [
        {
          "internalType": "contract IPolygonRollupBase",
          "name": "rollupContract",
          "type": "address"
        },
        {
          "internalType": "uint64",
          "name": "chainID",
          "type": "uint64"
        },
        {
          "internalType": "address",
          "name": "verifier",
          "type": "address"
        },
        {
          "internalType": "uint64",
          "name": "forkID",
          "type": "uint64"
        },
        {
          "internalType": "bytes32",
          "name": "lastLocalExitRoot",
          "type": "bytes32"
        },
        {
          "internalType": "uint64",
          "name": "lastBatchSequenced",
          "type": "uint64"
        },
        {
          "internalType": "uint64",
          "name": "lastVerifiedBatch",
          "type": "uint64"
        },
        {
          "internalType": "uint128",
          "name": "_legacyPendingStateGap",
          "type": "uint128"
        },
        {
          "internalType": "uint64",
          "name": "lastVerifiedBatchBeforeUpgrade",
          "type": "uint64"
        },
        {
          "internalType": "uint64",
          "name": "rollupTypeID",
          "type": "uint64"
        },
        {
          "internalType": "enum PolygonRollupManager.VerifierType",
          "name": "rollupVerifierType",
          "type": "uint8"
        },
        {
          "internalType": "bytes32",
          "name": "lastPessimisticRoot",
          "type": "bytes32"
        },
        {
          "internalType": "bytes32",
          "name": "programVKey",
          "type": "bytes32"
        }
      ],
      "stateMutability": "view",
      "type": "function"
    },
    {
      "inputs": [],
      "name": "rollupTypeCount",
      "outputs": [
        {
          "internalType": "uint32",
          "name": "",
          "type": "uint32"
        }
      ],
      "stateMutability": "view",
      "type": "function"
    },
    {
      "inputs": [
        {
          "internalType": "uint32",
          "name": "rollupTypeID",
          "type": "uint32"
        }
      ],
      "name": "rollupTypeMap",
      "outputs": [
        {
          "internalType": "address",
          "name": "consensusImplementation",
          "type": "address"
        },
        {
          "internalType": "address",
          "name": "verifier",
          "type": "address"
        },
        {
          "internalType": "uint64",
          "name": "forkID",
          "type": "uint64"
        },
        {
          "internalType": "enum PolygonRollupManager.VerifierType",
          "name": "rollupVerifierType",
          "type": "uint8"
        },
        {
          "internalType": "bool",
          "name": "obsolete",
          "type": "bool"
        },
        {
          "internalType": "bytes32",
          "name": "genesis",
          "type": "bytes32"
        },
        {
          "internalType": "bytes32",
          "name": "programVKey",
          "type": "bytes32"
        }
      ],
      "stateMutability": "view",
      "type": "function"
    },
    {
      "inputs": [
        {
          "internalType": "uint256",
          "name": "newBatchFee",
          "type": "uint256"
        }
      ],
      "name": "setBatchFee",
      "outputs": [],
      "stateMutability": "nonpayable",
      "type": "function"
    },
    {
      "inputs": [],
      "name": "totalSequencedBatches",
      "outputs": [
        {
          "internalType": "uint64",
          "name": "",
          "type": "uint64"
        }
      ],
      "stateMutability": "view",
      "type": "function"
    },
    {
      "inputs": [],
      "name": "totalVerifiedBatches",
      "outputs": [
        {
          "internalType": "uint64",
          "name": "",
          "type": "uint64"
        }
      ],
      "stateMutability": "view",
      "type": "function"
    },
    {
      "inputs": [
        {
          "internalType": "contract ITransparentUpgradeableProxy",
          "name": "rollupContract",
          "type": "address"
        },
        {
          "internalType": "uint32",
          "name": "newRollupTypeID",
          "type": "uint32"
        },
        {
          "internalType": "bytes",
          "name": "upgradeData",
          "type": "bytes"
        }
      ],
      "name": "updateRollup",
      "outputs": [],
      "stateMutability": "nonpayable",
      "type": "function"
    },
    {
      "inputs": [
        {
          "internalType": "contract ITransparentUpgradeableProxy",
          "name": "rollupContract",
          "type": "address"
        },
        {
          "internalType": "uint32",
          "name": "newRollupTypeID",
          "type": "uint32"
        }
      ],
      "name": "updateRollupByRollupAdmin",
      "outputs": [],
      "stateMutability": "nonpayable",
      "type": "function"
    },
    {
      "inputs": [
        {
          "internalType": "uint32",
          "name": "rollupID",
          "type": "uint32"
        },
        {
          "internalType": "uint64",
          "name": "pendingStateNum",
          "type": "uint64"
        },
        {
          "internalType": "uint64",
          "name": "initNumBatch",
          "type": "uint64"
        },
        {
          "internalType": "uint64",
          "name": "finalNewBatch",
          "type": "uint64"
        },
        {
          "internalType": "bytes32",
          "name": "newLocalExitRoot",
          "type": "bytes32"
        },
        {
          "internalType": "bytes32",
          "name": "newStateRoot",
          "type": "bytes32"
        },
        {
          "internalType": "address",
          "name": "beneficiary",
          "type": "address"
        },
        {
          "internalType": "bytes32[24]",
          "name": "proof",
          "type": "bytes32[24]"
        }
      ],
      "name": "verifyBatchesTrustedAggregator",
      "outputs": [],
      "stateMutability": "nonpayable",
      "type": "function"
    },
    {
      "inputs": [
        {
          "internalType": "uint32",
          "name": "rollupID",
          "type": "uint32"
        },
        {
          "internalType": "bytes32",
          "name": "selectedGlobalExitRoot",
          "type": "bytes32"
        },
        {
          "internalType": "bytes32",
          "name": "newLocalExitRoot",
          "type": "bytes32"
        },
        {
          "internalType": "bytes32",
          "name": "newPessimisticRoot",
          "type": "bytes32"
        },
        {
          "internalType": "bytes",
          "name": "proof",
          "type": "bytes"
        }
      ],
      "name": "verifyPessimisticTrustedAggregator",
      "outputs": [],
      "stateMutability": "nonpayable",
      "type": "function"
    }
  ],
  "bytecode": "0x60e060405234801562000010575f80fd5b50604051620051de380380620051de83398101604081905262000033916200013c565b6001600160a01b0380841660805280831660c052811660a0528282826200005962000065565b5050505050506200018d565b5f54610100900460ff1615620000d15760405162461bcd60e51b815260206004820152602760248201527f496e697469616c697a61626c653a20636f6e747261637420697320696e697469604482015266616c697a696e6760c81b606482015260840160405180910390fd5b5f5460ff908116101562000122575f805460ff191660ff9081179091556040519081527f7f26b83ff96e1f2b6a682f133852f6798a09c465da95921460cefb38474024989060200160405180910390a15b565b6001600160a01b038116811462000139575f80fd5b50565b5f805f606084860312156200014f575f80fd5b83516200015c8162000124565b60208501519093506200016f8162000124565b6040850151909250620001828162000124565b809150509250925092565b60805160a05160c051614ff5620001e95f395f818161075001528181611b050152612d1a01525f8181610616015281816125010152612de501525f81816106be01528181610c1b015281816127c5015261290b0152614ff55ff3fe608060405234801562000010575f80fd5b506004361062000230575f3560e01c8063066ec01214620002345780630e36f582146200026557806311f6b287146200027e5780631489ed10146200029557806315064c9614620002ac5780631796a1ae14620002cb5780632072f6c514620002f2578063248a9ca314620002fc5780632528016914620003225780632f2ff15d14620003d657806330c27dde14620003ed57806336568abe1462000401578063477fa270146200041857806355a71ee0146200042157806360469169146200046457806365c0504d146200046e5780637222020f14620004ee578063727885e914620005055780637975fcfe146200051c5780637fb6e76a14620005425780638f698ec5146200056a5780638fd88cc2146200058157806391d14854146200059857806397bf07e814620005af57806399f5634e14620005c65780639a908e7314620005d05780639e36c56514620005e7578063a217fddf14620005fe578063a2967d991462000606578063a3c573eb1462000610578063abcb51981462000647578063c1acbc34146200065e578063c4c928c21462000679578063ceee281d1462000690578063d02103ca14620006b8578063d5073f6f14620006e0578063d547741f14620006f7578063dbc16976146200070e578063dde0ff771462000718578063dfdb8c5e1462000733578063e46761c4146200074a578063e4a4b6a21462000772578063f4e926751462000789578063f9c4c2ae146200079a575b5f80fd5b60845462000248906001600160401b031681565b6040516001600160401b0390911681526020015b60405180910390f35b6200027c6200027636600462003865565b62000856565b005b620002486200028f36600462003900565b62000b04565b6200027c620002a636600462003923565b62000b29565b606f54620002ba9060ff1681565b60405190151581526020016200025c565b607e54620002dc9063ffffffff1681565b60405163ffffffff90911681526020016200025c565b6200027c62000ce8565b620003136200030d366004620039bd565b62000dad565b6040519081526020016200025c565b620003a262000333366004620039d5565b60408051606080820183525f808352602080840182905292840181905263ffffffff959095168552608182528285206001600160401b03948516865260030182529382902082519485018352805485526001015480841691850191909152600160401b90049091169082015290565b60408051825181526020808401516001600160401b039081169183019190915292820151909216908201526060016200025c565b6200027c620003e736600462003a0b565b62000dc1565b60875462000248906001600160401b031681565b6200027c6200041236600462003a0b565b62000de8565b60865462000313565b6200031362000432366004620039d5565b63ffffffff82165f9081526081602090815260408083206001600160401b038516845260020190915290205492915050565b6200031362000e22565b620004d96200047f36600462003900565b607f6020525f908152604090208054600182015460028301546003909301546001600160a01b0392831693928216926001600160401b03600160a01b8404169260ff600160e01b8204811693600160e81b90920416919087565b6040516200025c979695949392919062003a71565b6200027c620004ff36600462003900565b62000e39565b6200027c6200051636600462003b87565b62000f21565b620005336200052d36600462003c4d565b620013a1565b6040516200025c919062003d00565b620002dc6200055336600462003d14565b60836020525f908152604090205463ffffffff1681565b6200027c6200057b36600462003d30565b620013d3565b6200027c6200059236600462003ddb565b62001457565b620002ba620005a936600462003a0b565b620017d1565b6200027c620005c036600462003e09565b620017fb565b6200031362001b01565b62000248620005e136600462003e8b565b62001be7565b62000533620005f836600462003eb6565b62001d9a565b620003135f81565b6200031362001dca565b620006387f000000000000000000000000000000000000000000000000000000000000000081565b6040516200025c919062003eef565b6200027c6200065836600462003f03565b6200217f565b6084546200024890600160801b90046001600160401b031681565b6200027c6200068a36600462003f9f565b620023db565b620002dc620006a136600462004016565b60826020525f908152604090205463ffffffff1681565b620006387f000000000000000000000000000000000000000000000000000000000000000081565b6200027c620006f1366004620039bd565b62002408565b6200027c6200070836600462003a0b565b62002498565b6200027c620024ba565b6084546200024890600160401b90046001600160401b031681565b6200027c6200074436600462004034565b62002573565b620006387f000000000000000000000000000000000000000000000000000000000000000081565b6200027c6200078336600462004063565b6200273d565b608054620002dc9063ffffffff1681565b6200083b620007ab36600462003900565b60816020525f908152604090208054600182015460058301546006840154600785015460088601546009909601546001600160a01b0380871697600160a01b978890046001600160401b039081169892881697929092048216959482811694600160401b808304851695600160801b938490046001600160801b03169580841695928404169390920460ff16918d565b6040516200025c9d9c9b9a9998979695949392919062004100565b5f54600290610100900460ff161580156200087757505f5460ff8083169116105b620008e05760405162461bcd60e51b815260206004820152602e60248201527f496e697469616c697a61626c653a20636f6e747261637420697320616c72656160448201526d191e481a5b9a5d1a585b1a5e995960921b60648201526084015b60405180910390fd5b5f805461ffff191660ff83161761010017905567016345785d8a000060865562000909620029d1565b620009235f8051602062004fa08339815191528862002a3d565b6200092f5f8462002a3d565b620009495f8051602062004ee08339815191528462002a3d565b620009635f8051602062004f208339815191528462002a3d565b6200097d5f8051602062004e808339815191528462002a3d565b620009975f8051602062004ec08339815191528562002a3d565b620009b15f8051602062004f808339815191528562002a3d565b620009cb5f8051602062004f008339815191528562002a3d565b620009f77fa5c5790f581d443ed43873ab47cfb8c5d66a6db268e58b5971bb33fc66e07db18562002a3d565b62000a1f5f8051602062004fa08339815191525f8051602062004e4083398151915262002a49565b62000a395f8051602062004e408339815191528562002a3d565b62000a535f8051602062004ea08339815191528562002a3d565b62000a7b5f8051602062004f608339815191525f8051602062004f4083398151915262002a49565b62000a955f8051602062004f608339815191528362002a3d565b62000aaf5f8051602062004f408339815191528362002a3d565b62000abb5f3362002a3d565b5f805461ff001916905560405160ff821681527f7f26b83ff96e1f2b6a682f133852f6798a09c465da95921460cefb38474024989060200160405180910390a150505050505050565b63ffffffff81165f90815260816020526040812062000b239062002a9c565b92915050565b5f8051602062004fa083398151915262000b438162002ab3565b6001600160401b0388161562000b6c5760405163306dfc5760e11b815260040160405180910390fd5b63ffffffff89165f908152608160205260408120906007820154600160801b900460ff16600181111562000ba45762000ba462003a3c565b1462000bc3576040516390db0d0760e01b815260040160405180910390fd5b62000bd48189898989898962002abf565b600681018054600160401b600160801b031916600160401b6001600160401b038a16908102919091179091555f9081526002820160205260409020859055600581018690557f00000000000000000000000000000000000000000000000000000000000000006001600160a01b03166333d6247d62000c5262001dca565b6040518263ffffffff1660e01b815260040162000c7191815260200190565b5f604051808303815f87803b15801562000c89575f80fd5b505af115801562000c9c573d5f803e3d5ffd5b50505050336001600160a01b03168a63ffffffff165f8051602062004e6083398151915289888a60405162000cd493929190620041a4565b60405180910390a350505050505050505050565b62000d025f8051602062004f6083398151915233620017d1565b62000da157608454600160801b90046001600160401b0316158062000d525750608454429062000d479062093a8090600160801b90046001600160401b0316620041d9565b6001600160401b0316115b8062000d825750608754429062000d779062093a80906001600160401b0316620041d9565b6001600160401b0316115b1562000da15760405163692baaad60e11b815260040160405180910390fd5b62000dab62002de3565b565b5f9081526034602052604090206001015490565b62000dcc8262000dad565b62000dd78162002ab3565b62000de3838362002e5d565b505050565b6001600160a01b038116331462000e1257604051630b4ad1cd60e31b815260040160405180910390fd5b62000e1e828262002ec8565b5050565b5f608654606462000e34919062004203565b905090565b5f8051602062004ec083398151915262000e538162002ab3565b63ffffffff8216158062000e725750607e5463ffffffff908116908316115b1562000e9157604051637512e5cb60e01b815260040160405180910390fd5b63ffffffff82165f908152607f60205260409020600180820154600160e81b900460ff161515900362000ed757604051633b8d3d9960e01b815260040160405180910390fd5b60018101805460ff60e81b1916600160e81b17905560405163ffffffff8416907f4710d2ee567ef1ed6eb2f651dde4589524bcf7cebc62147a99b281cc836e7e44905f90a2505050565b5f8051602062004f8083398151915262000f3b8162002ab3565b63ffffffff8816158062000f5a5750607e5463ffffffff908116908916115b1562000f7957604051637512e5cb60e01b815260040160405180910390fd5b63ffffffff88165f908152607f60205260409020600180820154600160e81b900460ff161515900362000fbf57604051633b8d3d9960e01b815260040160405180910390fd5b63ffffffff6001600160401b038916111562000fee57604051634c753f5760e01b815260040160405180910390fd5b6001600160401b0388165f9081526083602052604090205463ffffffff16156200102b576040516337c8fe0960e11b815260040160405180910390fd5b608080545f91908290620010459063ffffffff166200421d565b825463ffffffff8281166101009490940a93840293021916919091179091558254604080515f80825260208201928390529394506001600160a01b0390921691309162001092906200382b565b620010a09392919062004242565b604051809103905ff080158015620010ba573d5f803e3d5ffd5b5090508160835f8c6001600160401b03166001600160401b031681526020019081526020015f205f6101000a81548163ffffffff021916908363ffffffff1602179055508160825f836001600160a01b03166001600160a01b031681526020019081526020015f205f6101000a81548163ffffffff021916908363ffffffff1602179055505f60815f8463ffffffff1663ffffffff1681526020019081526020015f20905081815f015f6101000a8154816001600160a01b0302191690836001600160a01b031602179055508360010160149054906101000a90046001600160401b03168160010160146101000a8154816001600160401b0302191690836001600160401b03160217905550836001015f9054906101000a90046001600160a01b0316816001015f6101000a8154816001600160a01b0302191690836001600160a01b031602179055508a815f0160146101000a8154816001600160401b0302191690836001600160401b031602179055508360020154816002015f806001600160401b031681526020019081526020015f20819055508b63ffffffff168160070160086101000a8154816001600160401b0302191690836001600160401b0316021790555083600101601c9054906101000a900460ff168160070160106101000a81548160ff02191690836001811115620012ba57620012ba62003a3c565b0217905550600384015460098201556040805163ffffffff8e811682526001600160a01b0385811660208401526001600160401b038f16838501528b1660608301529151918516917f194c983456df6701c6a50830b90fe80e72b823411d0d524970c9590dc277a6419181900360800190a2604051633892b81160e11b81526001600160a01b0383169063712570229062001364908d908d9088908e908e908e906004016200426f565b5f604051808303815f87803b1580156200137c575f80fd5b505af11580156200138f573d5f803e3d5ffd5b50505050505050505050505050505050565b63ffffffff86165f908152608160205260409020606090620013c890878787878762002f31565b979650505050505050565b80516080805463ffffffff191663ffffffff9092169190911790555f5b815181101562000e1e578181815181106200140f576200140f620042d1565b602002602001015160815f836001620014299190620042e5565b63ffffffff16815260208101919091526040015f2060050155806200144e81620042fb565b915050620013f0565b620014715f8051602062004e8083398151915233620017d1565b158015620014f45750336001600160a01b0316826001600160a01b031663f851a4406040518163ffffffff1660e01b81526004016020604051808303815f875af1158015620014c2573d5f803e3d5ffd5b505050506040513d601f19601f82011682018060405250810190620014e8919062004316565b6001600160a01b031614155b156200151357604051630d03687f60e11b815260040160405180910390fd5b6001600160a01b0382165f9081526082602052604081205463ffffffff169081900362001553576040516374a086a360e01b815260040160405180910390fd5b63ffffffff81165f908152608160205260408120906007820154600160801b900460ff1660018111156200158b576200158b62003a3c565b14620015aa576040516390db0d0760e01b815260040160405180910390fd5b60068101546001600160401b0390811690841681111580620015e3575060068201546001600160401b03600160401b9091048116908516105b15620016025760405163cb23ebdf60e01b815260040160405180910390fd5b805b846001600160401b0316816001600160401b0316146200169d576001600160401b038082165f908152600385016020526040902060010154600160401b900481169086168110156200166957604051639753965f60e01b815260040160405180910390fd5b6001600160401b039091165f908152600384016020526040812090815560010180546001600160801b031916905562001604565b6006830180546001600160401b0319166001600160401b038716179055620016c6858362004334565b608480545f90620016e29084906001600160401b031662004334565b82546101009290920a6001600160401b0381810219909316918316021790915586165f8181526003860160205260409081902054905163334d6f6760e11b8152600481019290925260248201526001600160a01b038816915063669adece906044015f604051808303815f87803b1580156200175c575f80fd5b505af11580156200176f573d5f803e3d5ffd5b505050506001600160401b0385165f81815260038501602090815260409182902054915191825263ffffffff8716917f80a6d395a55aed8126079cb8247f0a6848b1440ca2cdca3b4386f250c3529402910160405180910390a3505050505050565b5f9182526034602090815260408084206001600160a01b0393909316845291905290205460ff1690565b5f8051602062004f20833981519152620018158162002ab3565b6001600160401b0385165f9081526083602052604090205463ffffffff161562001852576040516337c8fe0960e11b815260040160405180910390fd5b63ffffffff6001600160401b03861611156200188157604051634c753f5760e01b815260040160405180910390fd5b6001600160a01b0388165f9081526082602052604090205463ffffffff1615620018be57604051630d409b9360e41b815260040160405180910390fd5b608080545f91908290620018d89063ffffffff166200421d565b91906101000a81548163ffffffff021916908363ffffffff160217905590508060835f886001600160401b03166001600160401b031681526020019081526020015f205f6101000a81548163ffffffff021916908363ffffffff1602179055508060825f8b6001600160a01b03166001600160a01b031681526020019081526020015f205f6101000a81548163ffffffff021916908363ffffffff1602179055505f60815f8363ffffffff1663ffffffff1681526020019081526020015f20905089815f015f6101000a8154816001600160a01b0302191690836001600160a01b03160217905550878160010160146101000a8154816001600160401b0302191690836001600160401b0316021790555088816001015f6101000a8154816001600160a01b0302191690836001600160a01b0316021790555086815f0160146101000a8154816001600160401b0302191690836001600160401b03160217905550848160070160106101000a81548160ff0219169083600181111562001a625762001a6262003a3c565b0217905550600185600181111562001a7e5762001a7e62003a3c565b0362001a9857600981018490556005810186905562001aab565b5f80805260028201602052604090208690555b8163ffffffff167fd490df184152edba8455dac3228134939c71f8cb4c8f310c3145dec9037147ac898c8a895f8a60405162001aed9695949392919062004357565b60405180910390a250505050505050505050565b5f807f00000000000000000000000000000000000000000000000000000000000000006001600160a01b03166370a08231306040518263ffffffff1660e01b815260040162001b51919062003eef565b602060405180830381865afa15801562001b6d573d5f803e3d5ffd5b505050506040513d601f19601f8201168201806040525081019062001b939190620043a4565b6084549091505f9062001bb9906001600160401b03600160401b82048116911662004334565b6001600160401b03169050805f0362001bd4575f9250505090565b62001be08183620043d0565b9250505090565b606f545f9060ff161562001c0e57604051630bc011ff60e21b815260040160405180910390fd5b335f9081526082602052604081205463ffffffff169081900362001c45576040516371653c1560e01b815260040160405180910390fd5b836001600160401b03165f0362001c6f57604051632590ccf960e01b815260040160405180910390fd5b63ffffffff81165f908152608160205260408120608480549192879262001ca19084906001600160401b0316620041d9565b82546101009290920a6001600160401b0381810219909316918316021790915560068301541690505f62001cd68783620041d9565b6006840180546001600160401b038381166001600160401b03199092168217909255604080516060810182528a815242841660208083019182528886168385019081525f86815260038c018352859020935184559151600193909301805492518716600160401b026001600160801b03199093169390961692909217179093555190815291925063ffffffff8616917f1d9f30260051d51d70339da239ea7b080021adcaabfa71c9b0ea339a20cf9a25910160405180910390a29695505050505050565b63ffffffff84165f90815260816020526040902060609062001dbf908585856200306b565b90505b949350505050565b6080545f9063ffffffff1680820362001de457505f919050565b5f816001600160401b0381111562001e005762001e0062003ac5565b60405190808252806020026020018201604052801562001e2a578160200160208202803683370190505b5090505f5b8281101562001e9a5760815f62001e48836001620042e5565b63ffffffff1663ffffffff1681526020019081526020015f206005015482828151811062001e7a5762001e7a620042d1565b60209081029190910101528062001e9181620042fb565b91505062001e2f565b505f60205b83600114620020da575f62001eb6600286620043e6565b62001ec3600287620043d0565b62001ecf9190620042e5565b90505f816001600160401b0381111562001eed5762001eed62003ac5565b60405190808252806020026020018201604052801562001f17578160200160208202803683370190505b5090505f5b828110156200208e5762001f32600184620043fc565b8114801562001f4d575062001f49600288620043e6565b6001145b1562001fcd578562001f6182600262004203565b8151811062001f745762001f74620042d1565b60200260200101518560405160200162001f9092919062004412565b6040516020818303038152906040528051906020012082828151811062001fbb5762001fbb620042d1565b60200260200101818152505062002079565b8562001fdb82600262004203565b8151811062001fee5762001fee620042d1565b60200260200101518682600262002006919062004203565b62002013906001620042e5565b81518110620020265762002026620042d1565b60200260200101516040516020016200204192919062004412565b604051602081830303815290604052805190602001208282815181106200206c576200206c620042d1565b6020026020010181815250505b806200208581620042fb565b91505062001f1c565b508094508195508384604051602001620020aa92919062004412565b6040516020818303038152906040528051906020012093508280620020cf9062004420565b935050505062001e9f565b5f835f81518110620020f057620020f0620042d1565b602002602001015190505f5b82811015620021755781846040516020016200211a92919062004412565b60405160208183030381529060405280519060200120915083846040516020016200214792919062004412565b60405160208183030381529060405280519060200120935080806200216c90620042fb565b915050620020fc565b5095945050505050565b5f8051602062004ee0833981519152620021998162002ab3565b607e80545f91908290620021b39063ffffffff166200421d565b91906101000a81548163ffffffff021916908363ffffffff16021790559050600180811115620021e757620021e762003a3c565b866001811115620021fc57620021fc62003a3c565b036200222857841562002222576040516363d722e760e01b815260040160405180910390fd5b62002248565b821562002248576040516363d722e760e01b815260040160405180910390fd5b6040518060e001604052808a6001600160a01b03168152602001896001600160a01b03168152602001886001600160401b0316815260200187600181111562002295576200229562003a3c565b81525f602080830182905260408084018a9052606093840188905263ffffffff86168352607f825291829020845181546001600160a01b039182166001600160a01b03199091161782559185015160018281018054958801516001600160401b0316600160a01b026001600160e01b0319909616929094169190911793909317808355938501519093909260ff60e01b1990911690600160e01b90849081111562002344576200234462003a3c565b02179055506080820151600182018054911515600160e81b0260ff60e81b1990921691909117905560a0820151600282015560c09091015160039091015560405163ffffffff8216907f9eaf2ecbddb14889c9e141a63175c55ac25e0cd7cdea312cdfbd0397976b383a90620023c8908c908c908c908c908c908c908c9062004438565b60405180910390a2505050505050505050565b5f8051602062004e80833981519152620023f58162002ab3565b620024028484846200313b565b50505050565b5f8051602062004ea0833981519152620024228162002ab3565b683635c9adc5dea000008211806200243d5750633b9aca0082105b156200245c57604051638586952560e01b815260040160405180910390fd5b60868290556040518281527ffb383653f53ee079978d0c9aff7aeff04a10166ce244cca9c9f9d8d96bed45b29060200160405180910390a15050565b620024a38262000dad565b620024ae8162002ab3565b62000de3838362002ec8565b5f8051602062004f00833981519152620024d48162002ab3565b608780546001600160401b031916426001600160401b031617905560408051636de0b4bb60e11b815290517f00000000000000000000000000000000000000000000000000000000000000006001600160a01b03169163dbc16976916004808301925f92919082900301818387803b1580156200254f575f80fd5b505af115801562002562573d5f803e3d5ffd5b50505050620025706200347c565b50565b336001600160a01b0316826001600160a01b031663f851a4406040518163ffffffff1660e01b81526004016020604051808303815f875af1158015620025bb573d5f803e3d5ffd5b505050506040513d601f19601f82011682018060405250810190620025e1919062004316565b6001600160a01b031614620026095760405163696072e960e01b815260040160405180910390fd5b6001600160a01b0382165f9081526082602090815260408083205463ffffffff1683526081909152902060068101546001600160401b03808216600160401b90920416146200266b5760405163664316a560e11b815260040160405180910390fd5b600781015463ffffffff8316600160401b9091046001600160401b031610620026a757604051633e37e23360e01b815260040160405180910390fd5b63ffffffff82165f908152607f60205260409020600190810154600160e01b900460ff1690811115620026de57620026de62003a3c565b6007820154600160801b900460ff16600181111562002701576200270162003a3c565b146200272057604051635aa0d5f160e11b815260040160405180910390fd5b604080515f81526020810190915262000de390849084906200313b565b5f8051602062004fa0833981519152620027578162002ab3565b63ffffffff87165f90815260816020526040902060016007820154600160801b900460ff16600181111562002790576200279062003a3c565b14620027af57604051633a64d97360e01b815260040160405180910390fd5b6040516312bd9b1960e11b8152600481018890527f00000000000000000000000000000000000000000000000000000000000000006001600160a01b03169063257b3632906024016020604051808303815f875af115801562002814573d5f803e3d5ffd5b505050506040513d601f19601f820116820180604052508101906200283a9190620043a4565b5f036200285a576040516373bd668d60e01b815260040160405180910390fd5b5f62002869828989896200306b565b6001830154600984015460405163020a49e360e51b81529293506001600160a01b03909116916341493c6091620028a99185908a908a906004016200449b565b5f6040518083038186803b158015620028c0575f80fd5b505afa158015620028d3573d5f803e3d5ffd5b505060848054600160801b600160c01b031916600160801b426001600160401b031602179055505060058201879055600882018690557f00000000000000000000000000000000000000000000000000000000000000006001600160a01b03166333d6247d6200294262001dca565b6040518263ffffffff1660e01b81526004016200296191815260200190565b5f604051808303815f87803b15801562002979575f80fd5b505af11580156200298c573d5f803e3d5ffd5b505060405133925063ffffffff8c1691505f8051602062004e6083398151915290620029be905f9081908d90620041a4565b60405180910390a3505050505050505050565b5f54610100900460ff1662000dab5760405162461bcd60e51b815260206004820152602b60248201527f496e697469616c697a61626c653a20636f6e7472616374206973206e6f74206960448201526a6e697469616c697a696e6760a81b6064820152608401620008d7565b62000e1e828262002e5d565b5f62002a558362000dad565b5f84815260346020526040808220600101859055519192508391839186917fbd79b86ffe0ab8e8776151514217cd7cacd52c909f66475c3af44e129f0b00ff9190a4505050565b60060154600160401b90046001600160401b031690565b620025708133620034d4565b5f8062002acc8962002a9c565b60078a01549091506001600160401b03908116908916101562002b025760405163ead1340b60e01b815260040160405180910390fd5b6001600160401b0388165f90815260028a01602052604090205491508162002b3d576040516324cbdcc360e11b815260040160405180910390fd5b806001600160401b0316886001600160401b0316111562002b7157604051630f2b74f160e11b815260040160405180910390fd5b806001600160401b0316876001600160401b03161162002ba45760405163b9b18f5760e01b815260040160405180910390fd5b5f62002bb58a8a8a8a878b62002f31565b90505f7f30644e72e131a029b85045b68181585d2833e84879b9709143e1f593f000000160028360405162002beb9190620044e8565b602060405180830381855afa15801562002c07573d5f803e3d5ffd5b5050506040513d601f19601f8201168201806040525081019062002c2c9190620043a4565b62002c389190620043e6565b60018c0154604080516020810182528381529051634890ed4560e11b81529293506001600160a01b0390911691639121da8a9162002c7c9189919060040162004505565b602060405180830381865afa15801562002c98573d5f803e3d5ffd5b505050506040513d601f19601f8201168201806040525081019062002cbe919062004541565b62002cdc576040516309bde33960e01b815260040160405180910390fd5b5f62002ce9848b62004334565b905062002d4287826001600160401b031662002d0462001b01565b62002d10919062004203565b6001600160a01b037f0000000000000000000000000000000000000000000000000000000000000000169190620034fe565b80608460088282829054906101000a90046001600160401b031662002d689190620041d9565b82546101009290920a6001600160401b0381810219909316918316021790915560848054600160801b600160c01b031916600160801b428416021790558d546040516332c2d15360e01b8152918d166004830152602482018b90523360448301526001600160a01b031691506332c2d1539060640162001364565b7f00000000000000000000000000000000000000000000000000000000000000006001600160a01b0316632072f6c56040518163ffffffff1660e01b81526004015f604051808303815f87803b15801562002e3c575f80fd5b505af115801562002e4f573d5f803e3d5ffd5b5050505062000dab62003552565b62002e698282620017d1565b62000e1e575f8281526034602090815260408083206001600160a01b0385168085529252808320805460ff1916600117905551339285917f2f8788117e7eff1d82e926ec794901d17c78024a50270940304540a733656f0d9190a45050565b62002ed48282620017d1565b1562000e1e575f8281526034602090815260408083206001600160a01b0385168085529252808320805460ff1916905551339285917ff6391f5c32d9c69d2a47ea670b442974b53935d1edc7fd64eb21e047a839171b9190a45050565b6001600160401b038086165f818152600389016020526040808220549388168252902054606092911580159062002f66575081155b1562002f855760405163340c614f60e11b815260040160405180910390fd5b8062002fa4576040516366385b5160e01b815260040160405180910390fd5b62002faf84620035ae565b62002fcd576040516305dae44f60e21b815260040160405180910390fd5b885460018a01546040516001600160601b03193360601b16602082015260348101889052605481018590526001600160c01b031960c08c811b82166074840152600160a01b94859004811b8216607c84015293909204831b82166084820152608c810187905260ac810184905260cc81018990529189901b1660ec82015260f401604051602081830303815290604052925050509695505050505050565b60605f855f015f9054906101000a90046001600160a01b03166001600160a01b031663ad1edf346040518163ffffffff1660e01b8152600401602060405180830381865afa158015620030c0573d5f803e3d5ffd5b505050506040513d601f19601f82011682018060405250810190620030e69190620043a4565b60058701546008880154604080516020810193909352820152606081018790526080810182905260a0810186905260c0810185905290915060e001604051602081830303815290604052915050949350505050565b63ffffffff821615806200315a5750607e5463ffffffff908116908316115b156200317957604051637512e5cb60e01b815260040160405180910390fd5b6001600160a01b0383165f9081526082602052604081205463ffffffff1690819003620031b9576040516374a086a360e01b815260040160405180910390fd5b63ffffffff8181165f908152608160205260409020600781015490918516600160401b9091046001600160401b0316036200320757604051634f61d51960e01b815260040160405180910390fd5b63ffffffff84165f908152607f60205260409020600180820154600160e81b900460ff16151590036200324d57604051633b8d3d9960e01b815260040160405180910390fd5b600181810154600160e01b900460ff169081111562003270576200327062003a3c565b6007830154600160801b900460ff16600181111562003293576200329362003a3c565b146200331d5760016007830154600160801b900460ff166001811115620032be57620032be62003a3c565b03620032dd57604051633b8d3d9960e01b815260040160405180910390fd5b80600101601c9054906101000a900460ff168260070160106101000a81548160ff0219169083600181111562003317576200331762003a3c565b02179055505b6001808201805491840180546001600160a01b031981166001600160a01b03909416938417825591546001600160401b03600160a01b9182900416026001600160e01b031990921690921717905560038101546009830155600782018054600160401b63ffffffff881602600160401b600160801b03199091161790555f620033a68462000b04565b6007840180546001600160401b0319166001600160401b038316179055825460405163278f794360e11b81529192506001600160a01b0389811692634f1ef28692620033f9921690899060040162004562565b5f604051808303815f87803b15801562003411575f80fd5b505af115801562003424573d5f803e3d5ffd5b50506040805163ffffffff8a811682526001600160401b0386166020830152881693507ff585e04c05d396901170247783d3e5f0ee9c1df23072985b50af089f5e48b19d92500160405180910390a250505050505050565b606f5460ff16620034a057604051635386698160e01b815260040160405180910390fd5b606f805460ff191690556040517f1e5e34eea33501aecf2ebec9fe0e884a40804275ea7fe10b2ba084c8374308b3905f90a1565b620034e08282620017d1565b62000e1e57604051637615be1f60e11b815260040160405180910390fd5b604080516001600160a01b038416602482015260448082018490528251808303909101815260649091019091526020810180516001600160e01b031663a9059cbb60e01b17905262000de390849062003637565b606f5460ff16156200357757604051630bc011ff60e21b815260040160405180910390fd5b606f805460ff191660011790556040517f2261efe5aef6fedc1fd1550b25facc9181745623049c7901287030b9ad1a5497905f90a1565b5f67ffffffff000000016001600160401b038316108015620035e4575067ffffffff00000001604083901c6001600160401b0316105b801562003605575067ffffffff00000001608083901c6001600160401b0316105b80156200361d575067ffffffff0000000160c083901c105b156200362b57506001919050565b505f919050565b919050565b5f6200368d826040518060400160405280602081526020017f5361666545524332303a206c6f772d6c6576656c2063616c6c206661696c6564815250856001600160a01b03166200370f9092919063ffffffff16565b80519091501562000de35780806020019051810190620036ae919062004541565b62000de35760405162461bcd60e51b815260206004820152602a60248201527f5361666545524332303a204552433230206f7065726174696f6e20646964206e6044820152691bdd081cdd58d8d9595960b21b6064820152608401620008d7565b606062001dc284845f85855f80866001600160a01b03168587604051620037379190620044e8565b5f6040518083038185875af1925050503d805f811462003773576040519150601f19603f3d011682016040523d82523d5f602084013e62003778565b606091505b5091509150620013c88783838760608315620037f85782515f03620037f0576001600160a01b0385163b620037f05760405162461bcd60e51b815260206004820152601d60248201527f416464726573733a2063616c6c20746f206e6f6e2d636f6e74726163740000006044820152606401620008d7565b508162001dc2565b62001dc283838151156200380f5781518083602001fd5b8060405162461bcd60e51b8152600401620008d7919062003d00565b6108b8806200458883390190565b6001600160a01b038116811462002570575f80fd5b80356001600160401b038116811462003632575f80fd5b5f805f805f8060c087890312156200387b575f80fd5b8635620038888162003839565b955062003898602088016200384e565b9450620038a8604088016200384e565b93506060870135620038ba8162003839565b92506080870135620038cc8162003839565b915060a0870135620038de8162003839565b809150509295509295509295565b803563ffffffff8116811462003632575f80fd5b5f6020828403121562003911575f80fd5b6200391c82620038ec565b9392505050565b5f805f805f805f806103e0808a8c0312156200393d575f80fd5b620039488a620038ec565b98506200395860208b016200384e565b97506200396860408b016200384e565b96506200397860608b016200384e565b955060808a0135945060a08a0135935060c08a0135620039988162003839565b92508981018b1015620039a9575f80fd5b5060e0890190509295985092959890939650565b5f60208284031215620039ce575f80fd5b5035919050565b5f8060408385031215620039e7575f80fd5b620039f283620038ec565b915062003a02602084016200384e565b90509250929050565b5f806040838503121562003a1d575f80fd5b82359150602083013562003a318162003839565b809150509250929050565b634e487b7160e01b5f52602160045260245ffd5b6002811062003a6d57634e487b7160e01b5f52602160045260245ffd5b9052565b6001600160a01b038881168252871660208201526001600160401b038616604082015260e0810162003aa7606083018762003a50565b931515608082015260a081019290925260c090910152949350505050565b634e487b7160e01b5f52604160045260245ffd5b604051601f8201601f191681016001600160401b038111828210171562003b045762003b0462003ac5565b604052919050565b5f6001600160401b0383111562003b275762003b2762003ac5565b62003b3c601f8401601f191660200162003ad9565b905082815283838301111562003b50575f80fd5b828260208301375f602084830101529392505050565b5f82601f83011262003b76575f80fd5b6200391c8383356020850162003b0c565b5f805f805f805f60e0888a03121562003b9e575f80fd5b62003ba988620038ec565b965062003bb9602089016200384e565b9550604088013562003bcb8162003839565b9450606088013562003bdd8162003839565b9350608088013562003bef8162003839565b925060a08801356001600160401b038082111562003c0b575f80fd5b62003c198b838c0162003b66565b935060c08a013591508082111562003c2f575f80fd5b5062003c3e8a828b0162003b66565b91505092959891949750929550565b5f805f805f8060c0878903121562003c63575f80fd5b62003c6e87620038ec565b955062003c7e602088016200384e565b945062003c8e604088016200384e565b9350606087013592506080870135915060a087013590509295509295509295565b5f5b8381101562003ccb57818101518382015260200162003cb1565b50505f910152565b5f815180845262003cec81602086016020860162003caf565b601f01601f19169290920160200192915050565b602081525f6200391c602083018462003cd3565b5f6020828403121562003d25575f80fd5b6200391c826200384e565b5f602080838503121562003d42575f80fd5b82356001600160401b038082111562003d59575f80fd5b818501915085601f83011262003d6d575f80fd5b81358181111562003d825762003d8262003ac5565b8060051b915062003d9584830162003ad9565b818152918301840191848101908884111562003daf575f80fd5b938501935b8385101562003dcf5784358252938501939085019062003db4565b98975050505050505050565b5f806040838503121562003ded575f80fd5b8235620039f28162003839565b80356002811062003632575f80fd5b5f805f805f805f60e0888a03121562003e20575f80fd5b873562003e2d8162003839565b9650602088013562003e3f8162003839565b955062003e4f604089016200384e565b945062003e5f606089016200384e565b93506080880135925062003e7660a0890162003dfa565b915060c0880135905092959891949750929550565b5f806040838503121562003e9d575f80fd5b62003ea8836200384e565b946020939093013593505050565b5f805f806080858703121562003eca575f80fd5b62003ed585620038ec565b966020860135965060408601359560600135945092505050565b6001600160a01b0391909116815260200190565b5f805f805f805f60e0888a03121562003f1a575f80fd5b873562003f278162003839565b9650602088013562003f398162003839565b955062003f49604089016200384e565b945062003f596060890162003dfa565b93506080880135925060a08801356001600160401b0381111562003f7b575f80fd5b62003f898a828b0162003b66565b92505060c0880135905092959891949750929550565b5f805f6060848603121562003fb2575f80fd5b833562003fbf8162003839565b925062003fcf60208501620038ec565b915060408401356001600160401b0381111562003fea575f80fd5b8401601f8101861362003ffb575f80fd5b6200400c8682356020840162003b0c565b9150509250925092565b5f6020828403121562004027575f80fd5b81356200391c8162003839565b5f806040838503121562004046575f80fd5b8235620040538162003839565b915062003a0260208401620038ec565b5f805f805f8060a0878903121562004079575f80fd5b6200408487620038ec565b955060208701359450604087013593506060870135925060808701356001600160401b0380821115620040b5575f80fd5b818901915089601f830112620040c9575f80fd5b813581811115620040d8575f80fd5b8a6020828501011115620040ea575f80fd5b6020830194508093505050509295509295509295565b6001600160a01b038e811682526001600160401b038e81166020840152908d1660408301528b81166060830152608082018b905289811660a0830152881660c08201526101a081016001600160801b03881660e08301526001600160401b0387166101008301526001600160401b0386166101208301526200418761014083018662003a50565b61016082019390935261018001529b9a5050505050505050505050565b6001600160401b039390931683526020830191909152604082015260600190565b634e487b7160e01b5f52601160045260245ffd5b6001600160401b03818116838216019080821115620041fc57620041fc620041c5565b5092915050565b808202811582820484141762000b235762000b23620041c5565b5f63ffffffff808316818103620042385762004238620041c5565b6001019392505050565b6001600160a01b038481168252831660208201526060604082018190525f9062001dbf9083018462003cd3565b6001600160a01b038781168252868116602083015263ffffffff861660408301528416606082015260c0608082018190525f90620042b09083018562003cd3565b82810360a0840152620042c4818562003cd3565b9998505050505050505050565b634e487b7160e01b5f52603260045260245ffd5b8082018082111562000b235762000b23620041c5565b5f600182016200430f576200430f620041c5565b5060010190565b5f6020828403121562004327575f80fd5b81516200391c8162003839565b6001600160401b03828116828216039080821115620041fc57620041fc620041c5565b6001600160401b0387811682526001600160a01b0387166020830152858116604083015260c08201906200438f606084018762003a50565b93909316608082015260a00152949350505050565b5f60208284031215620043b5575f80fd5b5051919050565b634e487b7160e01b5f52601260045260245ffd5b5f82620043e157620043e1620043bc565b500490565b5f82620043f757620043f7620043bc565b500690565b8181038181111562000b235762000b23620041c5565b918252602082015260400190565b5f81620044315762004431620041c5565b505f190190565b6001600160a01b038881168252871660208201526001600160401b03861660408201525f6200446b606083018762003a50565b84608083015260e060a08301526200448760e083018562003cd3565b90508260c083015298975050505050505050565b848152606060208201525f620044b5606083018662003cd3565b8281036040840152838152838560208301375f602085830101526020601f19601f86011682010191505095945050505050565b5f8251620044fb81846020870162003caf565b9190910192915050565b6103208101610300808584378201835f5b60018110156200453757815183526020928301929091019060010162004516565b5050509392505050565b5f6020828403121562004552575f80fd5b815180151581146200391c575f80fd5b6001600160a01b03831681526040602082018190525f9062001dc29083018462003cd356fe60a06040526040516108b83803806108b883398101604081905261002291610349565b828161002e8282610056565b50506001600160a01b03821660805261004e61004960805190565b6100b4565b50505061042e565b61005f82610121565b6040516001600160a01b038316907fbc7cd75a20ee27fd9adebab32041f755214dbc6bffa90cc0225b39da2e5c2d3b905f90a28051156100a8576100a3828261019f565b505050565b6100b0610212565b5050565b7f7e644d79422f17c01e4894b5f4f588d331ebfa28653d42ae832dc59e38c9798f6100f35f80516020610898833981519152546001600160a01b031690565b604080516001600160a01b03928316815291841660208301520160405180910390a161011e81610233565b50565b806001600160a01b03163b5f0361015b57604051634c9c8ce360e01b81526001600160a01b03821660048201526024015b60405180910390fd5b807f360894a13ba1a3210667c828492db98dca3e2076cc3735a920a3ca505d382bbc5b80546001600160a01b0319166001600160a01b039290921691909117905550565b60605f80846001600160a01b0316846040516101bb9190610413565b5f60405180830381855af49150503d805f81146101f3576040519150601f19603f3d011682016040523d82523d5f602084013e6101f8565b606091505b509092509050610209858383610270565b95945050505050565b34156102315760405163b398979f60e01b815260040160405180910390fd5b565b6001600160a01b03811661025c57604051633173bdd160e11b81525f6004820152602401610152565b805f8051602061089883398151915261017e565b60608261028557610280826102cf565b6102c8565b815115801561029c57506001600160a01b0384163b155b156102c557604051639996b31560e01b81526001600160a01b0385166004820152602401610152565b50805b9392505050565b8051156102df5780518082602001fd5b604051630a12f52160e11b815260040160405180910390fd5b80516001600160a01b038116811461030e575f80fd5b919050565b634e487b7160e01b5f52604160045260245ffd5b5f5b83811015610341578181015183820152602001610329565b50505f910152565b5f805f6060848603121561035b575f80fd5b610364846102f8565b9250610372602085016102f8565b60408501519092506001600160401b038082111561038e575f80fd5b818601915086601f8301126103a1575f80fd5b8151818111156103b3576103b3610313565b604051601f8201601f19908116603f011681019083821181831017156103db576103db610313565b816040528281528960208487010111156103f3575f80fd5b610404836020830160208801610327565b80955050505050509250925092565b5f8251610424818460208701610327565b9190910192915050565b6080516104536104455f395f601001526104535ff3fe608060405261000c61000e565b005b7f00000000000000000000000000000000000000000000000000000000000000006001600160a01b03163303610069575f356001600160e01b03191663278f794360e11b146100615761005f61006d565b565b61005f61007d565b61005f5b61005f6100786100ab565b6100cf565b5f8061008c36600481846102ba565b81019061009991906102f5565b915091506100a782826100ed565b5050565b5f6100ca5f805160206103fe833981519152546001600160a01b031690565b905090565b365f80375f80365f845af43d5f803e8080156100e9573d5ff35b3d5ffd5b6100f682610147565b6040516001600160a01b038316907fbc7cd75a20ee27fd9adebab32041f755214dbc6bffa90cc0225b39da2e5c2d3b905f90a280511561013f5761013a82826101aa565b505050565b6100a761021c565b806001600160a01b03163b5f0361017c5780604051634c9c8ce360e01b815260040161017391906103bd565b60405180910390fd5b5f805160206103fe83398151915280546001600160a01b0319166001600160a01b0392909216919091179055565b60605f80846001600160a01b0316846040516101c691906103d1565b5f60405180830381855af49150503d805f81146101fe576040519150601f19603f3d011682016040523d82523d5f602084013e610203565b606091505b509150915061021385838361023b565b95945050505050565b341561005f5760405163b398979f60e01b815260040160405180910390fd5b6060826102505761024b82610291565b61028a565b815115801561026757506001600160a01b0384163b155b156102875783604051639996b31560e01b815260040161017391906103bd565b50805b9392505050565b8051156102a15780518082602001fd5b604051630a12f52160e11b815260040160405180910390fd5b5f80858511156102c8575f80fd5b838611156102d4575f80fd5b5050820193919092039150565b634e487b7160e01b5f52604160045260245ffd5b5f8060408385031215610306575f80fd5b82356001600160a01b038116811461031c575f80fd5b915060208301356001600160401b0380821115610337575f80fd5b818501915085601f83011261034a575f80fd5b81358181111561035c5761035c6102e1565b604051601f8201601f19908116603f01168101908382118183101715610384576103846102e1565b8160405282815288602084870101111561039c575f80fd5b826020860160208301375f6020848301015280955050505050509250929050565b6001600160a01b0391909116815260200190565b5f82515f5b818110156103f057602081860181015185830152016103d6565b505f92019182525091905056fe360894a13ba1a3210667c828492db98dca3e2076cc3735a920a3ca505d382bbca2646970667358221220d3b91b386436af95579d7d767b3c6e83ae79b09bd8dd9344bddb95185404c56564736f6c63430008140033b53127684a568b3173ae13b9f8a6016e243e63b6e8ee1178d6a717850b5d610373cb0569fdbea2544dae03fdb2fe10eda92a72a2e8cd2bd496e85b762505a3f0d1ec3a1216f08b6eff72e169ceb548b782db18a6614852618d86bb19f3f9b0d366156603fe29d13f97c6f3e3dff4ef71919f9aa61c555be0182d954e94221aac8cf807f6970720f8e2c208c7c5037595982c7bd9ed93c380d09df743d0dcc3fbab66e11c4f712cd06ab11bf9339b48bef39e12d4a22eeef71d2860a0c90482bdac75d24dbb35ea80e25fab167da4dea46c1915260426570db84f184891f5f59062ba6ba2ffed8cfe316b583325ea41ac6e7ba9e5864d2bc6fabba7ac26d2f0f43dfe277d2a2c04b75fb2eb3743fa00005ae3678a20c299e65fdf4df76517f68e9b6f082d8d3644ae2f24a3c32e356d6f2d9b2844d9b26164fbc82663ff285951141f8f32ce6198eee741f695cec728bfd32d289f1acf73621fb303581000545ea0fab074aba36a6fa69f1a83ee86e5abfb8433966eb57efb13dc2fc2f24ddd08084e94f375e9d647f87f5b2ceffba1e062c70f6009fdbcf80291e803b5c9edd4a2646970667358221220d8b4ec2f086122a8b50942e10423aaed8bc7fba56820d69975e2b993b7aaeef564736f6c63430008140033",
  "linkReferences": {},
  "deployedLinkReferences": {}
}