{
  "_format": "hh-sol-artifact-1",
  "contractName": "PolygonZkEVMBridge",
  "sourceName": "contracts/PolygonZkEVMBridge.sol",
  "abi": [
    {
      "anonymous": false,
      "inputs": [
        {
          "indexed": false,
          "internalType": "uint8",
          "name": "leafType",
          "type": "uint8"
        },
        {
          "indexed": false,
          "internalType": "uint32",
          "name": "originNetwork",
          "type": "uint32"
        },
        {
          "indexed": false,
          "internalType": "address",
          "name": "originAddress",
          "type": "address"
        },
        {
          "indexed": false,
          "internalType": "uint32",
          "name": "destinationNetwork",
          "type": "uint32"
        },
        {
          "indexed": false,
          "internalType": "address",
          "name": "destinationAddress",
          "type": "address"
        },
        {
          "indexed": false,
          "internalType": "uint256",
          "name": "amount",
          "type": "uint256"
        },
        {
          "indexed": false,
          "internalType": "bytes",
          "name": "metadata",
          "type": "bytes"
        },
        {
          "indexed": false,
          "internalType": "uint32",
          "name": "depositCount",
          "type": "uint32"
        }
      ],
      "name": "BridgeEvent",
      "type": "event"
    },
    {
      "anonymous": false,
      "inputs": [
        {
          "indexed": false,
          "internalType": "uint32",
          "name": "index",
          "type": "uint32"
        },
        {
          "indexed": false,
          "internalType": "uint32",
          "name": "originNetwork",
          "type": "uint32"
        },
        {
          "indexed": false,
          "internalType": "address",
          "name": "originAddress",
          "type": "address"
        },
        {
          "indexed": false,
          "internalType": "address",
          "name": "destinationAddress",
          "type": "address"
        },
        {
          "indexed": false,
          "internalType": "uint256",
          "name": "amount",
          "type": "uint256"
        }
      ],
      "name": "ClaimEvent",
      "type": "event"
    },
    {
      "anonymous": false,
      "inputs": [],
      "name": "EmergencyStateActivated",
      "type": "event"
    },
    {
      "anonymous": false,
      "inputs": [],
      "name": "EmergencyStateDeactivated",
      "type": "event"
    },
    {
      "anonymous": false,
      "inputs": [
        {
          "indexed": false,
          "internalType": "uint8",
          "name": "version",
          "type": "uint8"
        }
      ],
      "name": "Initialized",
      "type": "event"
    },
    {
      "anonymous": false,
      "inputs": [
        {
          "indexed": false,
          "internalType": "uint32",
          "name": "originNetwork",
          "type": "uint32"
        },
        {
          "indexed": false,
          "internalType": "address",
          "name": "originTokenAddress",
          "type": "address"
        },
        {
          "indexed": false,
          "internalType": "address",
          "name": "wrappedTokenAddress",
          "type": "address"
        }
      ],
      "name": "NewWrappedToken",
      "type": "event"
    },
    {
      "inputs": [],
      "name": "LEAF_TYPE_ASSET",
      "outputs": [
        {
          "internalType": "uint8",
          "name": "",
          "type": "uint8"
        }
      ],
      "stateMutability": "view",
      "type": "function"
    },
    {
      "inputs": [],
      "name": "LEAF_TYPE_MESSAGE",
      "outputs": [
        {
          "internalType": "uint8",
          "name": "",
          "type": "uint8"
        }
      ],
      "stateMutability": "view",
      "type": "function"
    },
    {
      "inputs": [],
      "name": "MAINNET_NETWORK_ID",
      "outputs": [
        {
          "internalType": "uint32",
          "name": "",
          "type": "uint32"
        }
      ],
      "stateMutability": "view",
      "type": "function"
    },
    {
      "inputs": [],
      "name": "activateEmergencyState",
      "outputs": [],
      "stateMutability": "nonpayable",
      "type": "function"
    },
    {
      "inputs": [
        {
          "internalType": "address",
          "name": "token",
          "type": "address"
        },
        {
          "internalType": "uint32",
          "name": "destinationNetwork",
          "type": "uint32"
        },
        {
          "internalType": "address",
          "name": "destinationAddress",
          "type": "address"
        },
        {
          "internalType": "uint256",
          "name": "amount",
          "type": "uint256"
        },
        {
          "internalType": "bytes",
          "name": "permitData",
          "type": "bytes"
        }
      ],
      "name": "bridgeAsset",
      "outputs": [],
      "stateMutability": "payable",
      "type": "function"
    },
    {
      "inputs": [
        {
          "internalType": "uint32",
          "name": "destinationNetwork",
          "type": "uint32"
        },
        {
          "internalType": "address",
          "name": "destinationAddress",
          "type": "address"
        },
        {
          "internalType": "bytes",
          "name": "metadata",
          "type": "bytes"
        }
      ],
      "name": "bridgeMessage",
      "outputs": [],
      "stateMutability": "payable",
      "type": "function"
    },
    {
      "inputs": [
        {
          "internalType": "bytes32[]",
          "name": "smtProof",
          "type": "bytes32[]"
        },
        {
          "internalType": "uint32",
          "name": "index",
          "type": "uint32"
        },
        {
          "internalType": "bytes32",
          "name": "mainnetExitRoot",
          "type": "bytes32"
        },
        {
          "internalType": "bytes32",
          "name": "rollupExitRoot",
          "type": "bytes32"
        },
        {
          "internalType": "uint32",
          "name": "originNetwork",
          "type": "uint32"
        },
        {
          "internalType": "address",
          "name": "originTokenAddress",
          "type": "address"
        },
        {
          "internalType": "uint32",
          "name": "destinationNetwork",
          "type": "uint32"
        },
        {
          "internalType": "address",
          "name": "destinationAddress",
          "type": "address"
        },
        {
          "internalType": "uint256",
          "name": "amount",
          "type": "uint256"
        },
        {
          "internalType": "bytes",
          "name": "metadata",
          "type": "bytes"
        }
      ],
      "name": "claimAsset",
      "outputs": [],
      "stateMutability": "nonpayable",
      "type": "function"
    },
    {
      "inputs": [
        {
          "internalType": "bytes32[]",
          "name": "smtProof",
          "type": "bytes32[]"
        },
        {
          "internalType": "uint32",
          "name": "index",
          "type": "uint32"
        },
        {
          "internalType": "bytes32",
          "name": "mainnetExitRoot",
          "type": "bytes32"
        },
        {
          "internalType": "bytes32",
          "name": "rollupExitRoot",
          "type": "bytes32"
        },
        {
          "internalType": "uint32",
          "name": "originNetwork",
          "type": "uint32"
        },
        {
          "internalType": "address",
          "name": "originAddress",
          "type": "address"
        },
        {
          "internalType": "uint32",
          "name": "destinationNetwork",
          "type": "uint32"
        },
        {
          "internalType": "address",
          "name": "destinationAddress",
          "type": "address"
        },
        {
          "internalType": "uint256",
          "name": "amount",
          "type": "uint256"
        },
        {
          "internalType": "bytes",
          "name": "metadata",
          "type": "bytes"
        }
      ],
      "name": "claimMessage",
      "outputs": [],
      "stateMutability": "nonpayable",
      "type": "function"
    },
    {
      "inputs": [
        {
          "internalType": "uint256",
          "name": "",
          "type": "uint256"
        }
      ],
      "name": "claimedBitMap",
      "outputs": [
        {
          "internalType": "uint256",
          "name": "",
          "type": "uint256"
        }
      ],
      "stateMutability": "view",
      "type": "function"
    },
    {
      "inputs": [],
      "name": "deactivateEmergencyState",
      "outputs": [],
      "stateMutability": "nonpayable",
      "type": "function"
    },
    {
      "inputs": [],
      "name": "depositCount",
      "outputs": [
        {
          "internalType": "uint256",
          "name": "",
          "type": "uint256"
        }
      ],
      "stateMutability": "view",
      "type": "function"
    },
    {
      "inputs": [],
      "name": "getDepositRoot",
      "outputs": [
        {
          "internalType": "bytes32",
          "name": "",
          "type": "bytes32"
        }
      ],
      "stateMutability": "view",
      "type": "function"
    },
    {
      "inputs": [
        {
          "internalType": "uint8",
          "name": "leafType",
          "type": "uint8"
        },
        {
          "internalType": "uint32",
          "name": "originNetwork",
          "type": "uint32"
        },
        {
          "internalType": "address",
          "name": "originAddress",
          "type": "address"
        },
        {
          "internalType": "uint32",
          "name": "destinationNetwork",
          "type": "uint32"
        },
        {
          "internalType": "address",
          "name": "destinationAddress",
          "type": "address"
        },
        {
          "internalType": "uint256",
          "name": "amount",
          "type": "uint256"
        },
        {
          "internalType": "bytes32",
          "name": "metadataHash",
          "type": "bytes32"
        }
      ],
      "name": "getLeafValue",
      "outputs": [
        {
          "internalType": "bytes32",
          "name": "",
          "type": "bytes32"
        }
      ],
      "stateMutability": "pure",
      "type": "function"
    },
    {
      "inputs": [
        {
          "internalType": "uint32",
          "name": "originNetwork",
          "type": "uint32"
        },
        {
          "internalType": "address",
          "name": "originTokenAddress",
          "type": "address"
        }
      ],
      "name": "getTokenWrappedAddress",
      "outputs": [
        {
          "internalType": "address",
          "name": "",
          "type": "address"
        }
      ],
      "stateMutability": "view",
      "type": "function"
    },
    {
      "inputs": [],
      "name": "globalExitRootManager",
      "outputs": [
        {
          "internalType": "contract IPolygonZkEVMGlobalExitRoot",
          "name": "",
          "type": "address"
        }
      ],
      "stateMutability": "view",
      "type": "function"
    },
    {
      "inputs": [
        {
          "internalType": "uint32",
          "name": "_networkID",
          "type": "uint32"
        },
        {
          "internalType": "contract IPolygonZkEVMGlobalExitRoot",
          "name": "_globalExitRootManager",
          "type": "address"
        },
        {
          "internalType": "address",
          "name": "_zkEVMaddress",
          "type": "address"
        }
      ],
      "name": "initialize",
      "outputs": [],
      "stateMutability": "nonpayable",
      "type": "function"
    },
    {
      "inputs": [
        {
          "internalType": "uint256",
          "name": "index",
          "type": "uint256"
        }
      ],
      "name": "isClaimed",
      "outputs": [
        {
          "internalType": "bool",
          "name": "",
          "type": "bool"
        }
      ],
      "stateMutability": "view",
      "type": "function"
    },
    {
      "inputs": [],
      "name": "isEmergencyState",
      "outputs": [
        {
          "internalType": "bool",
          "name": "",
          "type": "bool"
        }
      ],
      "stateMutability": "view",
      "type": "function"
    },
    {
      "inputs": [],
      "name": "networkID",
      "outputs": [
        {
          "internalType": "uint32",
          "name": "",
          "type": "uint32"
        }
      ],
      "stateMutability": "view",
      "type": "function"
    },
    {
      "inputs": [
        {
          "internalType": "uint32",
          "name": "originNetwork",
          "type": "uint32"
        },
        {
          "internalType": "address",
          "name": "originTokenAddress",
          "type": "address"
        },
        {
          "internalType": "string",
          "name": "name",
          "type": "string"
        },
        {
          "internalType": "string",
          "name": "symbol",
          "type": "string"
        },
        {
          "internalType": "uint8",
          "name": "decimals",
          "type": "uint8"
        }
      ],
      "name": "precalculatedWrapperAddress",
      "outputs": [
        {
          "internalType": "address",
          "name": "",
          "type": "address"
        }
      ],
      "stateMutability": "view",
      "type": "function"
    },
    {
      "inputs": [
        {
          "internalType": "bytes32",
          "name": "",
          "type": "bytes32"
        }
      ],
      "name": "tokenInfoToWrappedToken",
      "outputs": [
        {
          "internalType": "address",
          "name": "",
          "type": "address"
        }
      ],
      "stateMutability": "view",
      "type": "function"
    },
    {
      "inputs": [
        {
          "internalType": "bytes32",
          "name": "leafHash",
          "type": "bytes32"
        },
        {
          "internalType": "bytes32[]",
          "name": "smtProof",
          "type": "bytes32[]"
        },
        {
          "internalType": "uint64",
          "name": "index",
          "type": "uint64"
        },
        {
          "internalType": "bytes32",
          "name": "root",
          "type": "bytes32"
        }
      ],
      "name": "verifyMerkleProof",
      "outputs": [
        {
          "internalType": "bool",
          "name": "",
          "type": "bool"
        }
      ],
      "stateMutability": "pure",
      "type": "function"
    },
    {
      "inputs": [
        {
          "internalType": "address",
          "name": "",
          "type": "address"
        }
      ],
      "name": "wrappedTokenToTokenInfo",
      "outputs": [
        {
          "internalType": "uint32",
          "name": "originNetwork",
          "type": "uint32"
        },
        {
          "internalType": "address",
          "name": "originTokenAddress",
          "type": "address"
        }
      ],
      "stateMutability": "view",
      "type": "function"
    },
    {
      "inputs": [],
      "name": "zkEVMaddress",
      "outputs": [
        {
          "internalType": "address",
          "name": "",
          "type": "address"
        }
      ],
      "stateMutability": "view",
      "type": "function"
    }
  ],
  "bytecode": "0x608060405234801561001057600080fd5b506147ce806100206000396000f3fe608060405260043610620001675760003560e01c80637b6323c111620000c5578063d02103ca1162000078578063d02103ca146200047d578063d96a15f7146200049f578063dbc1697614620004b6578063ed6be5c914620004ce578063ee25560b14620004e5578063ff634ed7146200051657600080fd5b80637b6323c1146200037057806381b1c17414620003955780639e34070f14620003cf578063a08e8a0814620003f4578063aaa13cc2146200041e578063bab161bf146200044357600080fd5b806337883a3e116200011e57806337883a3e14620002a25780633ae0504714620002c45780633da8168214620002dc5780633e1970431462000301578063463855491462000326578063647c576c146200034b57600080fd5b80630871e971146200016c57806315064c9614620001855780632072f6c514620001b657806322e95f2c14620001ce5780632dfdf0b5146200020c578063318aee3d1462000233575b600080fd5b620001836200017d36600462002439565b6200052d565b005b3480156200019257600080fd5b50602254620001a19060ff1681565b60405190151581526020015b60405180910390f35b348015620001c357600080fd5b5062000183620009c1565b348015620001db57600080fd5b50620001f3620001ed366004620024c6565b620009fa565b6040516001600160a01b039091168152602001620001ad565b3480156200021957600080fd5b506200022460215481565b604051908152602001620001ad565b3480156200024057600080fd5b506200027d6200025236600462002502565b60256020526000908152604090205463ffffffff81169064010000000090046001600160a01b031682565b6040805163ffffffff90931683526001600160a01b03909116602083015201620001ad565b348015620002af57600080fd5b50602754620001f3906001600160a01b031681565b348015620002d157600080fd5b506200022462000a4d565b348015620002e957600080fd5b50620001a1620002fb366004620025f1565b62000b40565b3480156200030e57600080fd5b5062000224620003203660046200266f565b62000c42565b3480156200033357600080fd5b50620001836200034536600462002780565b62000ccf565b3480156200035857600080fd5b50620001836200036a36600462002867565b62000e75565b3480156200037d57600080fd5b50620001836200038f36600462002780565b62000fd4565b348015620003a257600080fd5b50620001f3620003b4366004620028b7565b6024602052600090815260409020546001600160a01b031681565b348015620003dc57600080fd5b50620001a1620003ee366004620028b7565b6200145b565b3480156200040157600080fd5b506200040b600081565b60405160ff9091168152602001620001ad565b3480156200042b57600080fd5b50620001f36200043d366004620028d1565b620014a0565b3480156200045057600080fd5b506022546200046790610100900463ffffffff1681565b60405163ffffffff9091168152602001620001ad565b3480156200048a57600080fd5b50602654620001f3906001600160a01b031681565b62000183620004b036600462002985565b620015b7565b348015620004c357600080fd5b506200018362001763565b348015620004db57600080fd5b5062000467600081565b348015620004f257600080fd5b506200022462000504366004620028b7565b60236020526000908152604090205481565b3480156200052357600080fd5b506200040b600181565b60225460ff16156200055c5760405162461bcd60e51b81526004016200055390620029ed565b60405180910390fd5b60225463ffffffff610100909104811690861603620005e45760405162461bcd60e51b815260206004820152603b60248201527f506f6c79676f6e5a6b45564d4272696467653a3a62726964676541737365743a60448201527f2044455354494e4154494f4e5f43414e545f42455f495453454c460000000000606482015260840162000553565b60008060606001600160a01b0389166200067b5785341462000671576040805162461bcd60e51b81526020600482015260248101919091527f506f6c79676f6e5a6b45564d4272696467653a3a62726964676541737365743a60448201527f20414d4f554e545f444f45535f4e4f545f4d415443485f4d53475f56414c5545606482015260840162000553565b60009150620008db565b6001600160a01b03808a1660009081526025602090815260409182902082518084019093525463ffffffff81168352640100000000900490921691810182905290156200073857604051632770a7eb60e21b8152336004820152602481018890526001600160a01b038b1690639dc29fac90604401600060405180830381600087803b1580156200070b57600080fd5b505af115801562000720573d6000803e3d6000fd5b505050508060200151935080600001519250620008d9565b84156200074d576200074d8a8888886200179a565b620007646001600160a01b038b1633308a62001bc2565b899350602260019054906101000a900463ffffffff169250896001600160a01b03166306fdde036040518163ffffffff1660e01b8152600401600060405180830381865afa158015620007bb573d6000803e3d6000fd5b505050506040513d6000823e601f3d908101601f19168201604052620007e5919081019062002ad0565b8a6001600160a01b03166395d89b416040518163ffffffff1660e01b8152600401600060405180830381865afa15801562000824573d6000803e3d6000fd5b505050506040513d6000823e601f3d908101601f191682016040526200084e919081019062002ad0565b8b6001600160a01b031663313ce5676040518163ffffffff1660e01b8152600401602060405180830381865afa1580156200088d573d6000803e3d6000fd5b505050506040513d601f19601f82011682018060405250810190620008b3919062002b09565b604051602001620008c79392919062002b57565b60405160208183030381529060405291505b505b7f501781209a1f8899323b96b4ef08b168df93e0a90c673d1e4cce39366cb62f9b600083858b8b8b876021546040516200091d98979695949392919062002b94565b60405180910390a16200094862000942600084868c8c8c888051906020012062000c42565b62001c2f565b6026546001600160a01b03166333d6247d6200096362000a4d565b6040518263ffffffff1660e01b81526004016200098291815260200190565b600060405180830381600087803b1580156200099d57600080fd5b505af1158015620009b2573d6000803e3d6000fd5b50505050505050505050505050565b6027546001600160a01b03163314620009ee5760405162461bcd60e51b8152600401620005539062002c01565b620009f862001d80565b565b600060246000848460405160200162000a1592919062002c5e565b60408051601f19818403018152918152815160209283012083529082019290925201600020546001600160a01b031690505b92915050565b602154600090819081805b602081101562000b37578260011660010362000ab8576001816020811062000a845762000a8462002c88565b0154604080516020810192909252810185905260600160405160208183030381529060405280519060200120935062000ae5565b60408051602081018690529081018390526060016040516020818303038152906040528051906020012093505b62000af260028462002cca565b6040805160208101859052908101849052909350606001604051602081830303815290604052805190602001209150808062000b2e9062002ce1565b91505062000a58565b50919392505050565b60008467ffffffffffffffff8416825b602081101562000c33578160011660010362000bbd5786818151811062000b7b5762000b7b62002c88565b60200260200101518360405160200162000b9f929190918252602082015260400190565b60405160208183030381529060405280519060200120925062000c0f565b8287828151811062000bd35762000bd362002c88565b602002602001015160405160200162000bf6929190918252602082015260400190565b6040516020818303038152906040528051906020012092505b62000c1c60028362002cca565b91508062000c2a8162002ce1565b91505062000b50565b5050821490505b949350505050565b6040516001600160f81b031960f889901b1660208201526001600160e01b031960e088811b821660218401526001600160601b0319606089811b821660258601529188901b909216603984015285901b16603d8201526051810183905260718101829052600090609101604051602081830303815290604052805190602001209050979650505050505050565b60225460ff161562000cf55760405162461bcd60e51b81526004016200055390620029ed565b62000d0b8a8a8a8a8a8a8a8a8a8a600162001dde565b62000d1c8963ffffffff1662002069565b6000836001600160a01b03168387898560405160240162000d409392919062002cfd565b60408051601f198184030181529181526020820180516001600160e01b0316630c035af960e11b1790525162000d77919062002d38565b60006040518083038185875af1925050503d806000811462000db6576040519150601f19603f3d011682016040523d82523d6000602084013e62000dbb565b606091505b505090508062000e275760405162461bcd60e51b815260206004820152603060248201527f506f6c79676f6e5a6b45564d4272696467653a3a636c61696d4d65737361676560448201526f0e88135154d4d051d157d1905253115160821b606482015260840162000553565b7f25308c93ceeed162da955b3f7ce3e3f93606579e40fb92029faa9efe275459838a8888878760405162000e6095949392919062002d56565b60405180910390a15050505050505050505050565b600054610100900460ff161580801562000e965750600054600160ff909116105b8062000eb25750303b15801562000eb2575060005460ff166001145b62000f175760405162461bcd60e51b815260206004820152602e60248201527f496e697469616c697a61626c653a20636f6e747261637420697320616c72656160448201526d191e481a5b9a5d1a585b1a5e995960921b606482015260840162000553565b6000805460ff19166001179055801562000f3b576000805461ff0019166101001790555b6022805463ffffffff86166101000264ffffffff0019909116179055602680546001600160a01b038086166001600160a01b0319928316179092556027805492851692909116919091179055801562000fce576000805461ff0019169055604051600181527f7f26b83ff96e1f2b6a682f133852f6798a09c465da95921460cefb38474024989060200160405180910390a15b50505050565b60225460ff161562000ffa5760405162461bcd60e51b81526004016200055390620029ed565b620010108a8a8a8a8a8a8a8a8a8a600062001dde565b620010218963ffffffff1662002069565b6001600160a01b0385166200111657604080516000808252602082019092526001600160a01b0385169084906040516200105c919062002d38565b60006040518083038185875af1925050503d80600081146200109b576040519150601f19603f3d011682016040523d82523d6000602084013e620010a0565b606091505b50509050806200110f5760405162461bcd60e51b815260206004820152603360248201527f506f6c79676f6e5a6b45564d4272696467653a3a636c61696d41737365743a2060448201527211551217d514905394d1915497d19052531151606a1b606482015260840162000553565b506200140e565b60225463ffffffff6101009091048116908716036200114b57620011456001600160a01b0386168484620020ab565b6200140e565b600086866040516020016200116292919062002c5e565b60408051601f198184030181529181528151602092830120600081815260249093529120549091506001600160a01b031680620013a657600080600085806020019051810190620011b4919062002d8d565b925092509250600085848484604051620011ce906200239f565b620011dc9392919062002b57565b8190604051809103906000f5905080158015620011fd573d6000803e3d6000fd5b506040516340c10f1960e01b81526001600160a01b038b81166004830152602482018b9052919250908216906340c10f1990604401600060405180830381600087803b1580156200124d57600080fd5b505af115801562001262573d6000803e3d6000fd5b50505050806024600088815260200190815260200160002060006101000a8154816001600160a01b0302191690836001600160a01b0316021790555060405180604001604052808d63ffffffff1681526020018c6001600160a01b031681525060256000836001600160a01b03166001600160a01b0316815260200190815260200160002060008201518160000160006101000a81548163ffffffff021916908363ffffffff16021790555060208201518160000160046101000a8154816001600160a01b0302191690836001600160a01b031602179055509050507fccd7715648d1f2bb13e158f96b5b6c3aeda555d4cb87112e274a6f28bc571d598c8c83604051620013949392919063ffffffff9390931683526001600160a01b03918216602084015216604082015260600190565b60405180910390a1505050506200140b565b6040516340c10f1960e01b81526001600160a01b038681166004830152602482018690528216906340c10f1990604401600060405180830381600087803b158015620013f157600080fd5b505af115801562001406573d6000803e3d6000fd5b505050505b50505b7f25308c93ceeed162da955b3f7ce3e3f93606579e40fb92029faa9efe2754598389878786866040516200144795949392919062002d56565b60405180910390a150505050505050505050565b6000806200146c6101008462002cca565b905060006200147e6101008562002e03565b60009283526023602052604090922054600190921b9182169091149392505050565b6000808888604051602001620014b892919062002c5e565b604051602081830303815290604052805190602001209050600060ff60f81b308360405180602001620014eb906200239f565b601f1982820381018352601f90910116604081905262001518908d908d908d908d908d9060200162002e43565b60408051601f198184030181529082905262001538929160200162002e84565b604051602081830303815290604052805190602001206040516020016200159194939291906001600160f81b031994909416845260609290921b6001600160601b03191660018401526015830152603582015260550190565b60408051808303601f1901815291905280516020909101209a9950505050505050505050565b60225460ff1615620015dd5760405162461bcd60e51b81526004016200055390620029ed565b60225463ffffffff610100909104811690841603620016655760405162461bcd60e51b815260206004820152603d60248201527f506f6c79676f6e5a6b45564d4272696467653a3a6272696467654d657373616760448201527f653a2044455354494e4154494f4e5f43414e545f42455f495453454c46000000606482015260840162000553565b7f501781209a1f8899323b96b4ef08b168df93e0a90c673d1e4cce39366cb62f9b6001602260019054906101000a900463ffffffff163386863487602154604051620016b998979695949392919062002b94565b60405180910390a1620016f0620009426001602260019054906101000a900463ffffffff1633878734888051906020012062000c42565b6026546001600160a01b03166333d6247d6200170b62000a4d565b6040518263ffffffff1660e01b81526004016200172a91815260200190565b600060405180830381600087803b1580156200174557600080fd5b505af11580156200175a573d6000803e3d6000fd5b50505050505050565b6027546001600160a01b03163314620017905760405162461bcd60e51b8152600401620005539062002c01565b620009f8620020dd565b6000620017dd83838080601f0160208091040260200160405190810160405280939291908181526020018383808284376000920191909152506200218c92505050565b9050632afa533160e01b6001600160e01b0319821601620019d65760008080808080806200180f896004818d62002eb7565b8101906200181e919062002ee3565b9650965096509650965096509650336001600160a01b0316876001600160a01b031614620018605760405162461bcd60e51b8152600401620005539062002f3e565b6001600160a01b03861630146200188b5760405162461bcd60e51b8152600401620005539062002f9b565b8a8514620019025760405162461bcd60e51b815260206004820152603960248201527f506f6c79676f6e5a6b45564d4272696467653a3a5f7065726d69743a2050455260448201527f4d49545f414d4f554e545f444f45535f4e4f545f4d4154434800000000000000606482015260840162000553565b604080516001600160a01b0389811660248301528881166044830152606482018890526084820187905260ff861660a483015260c4820185905260e48083018590528351808403909101815261010490920183526020820180516001600160e01b031663d505accf60e01b1790529151918e169162001982919062002d38565b6000604051808303816000865af19150503d8060008114620019c1576040519150601f19603f3d011682016040523d82523d6000602084013e620019c6565b606091505b5050505050505050505062001bbb565b6001600160e01b031981166323f2ebc360e21b1462001a4c5760405162461bcd60e51b815260206004820152602b60248201527f506f6c79676f6e5a6b45564d4272696467653a3a5f7065726d69743a204e4f5460448201526a17d59053125117d0d0531360aa1b606482015260840162000553565b60008080808080808062001a648a6004818e62002eb7565b81019062001a73919062002ffb565b97509750975097509750975097509750336001600160a01b0316886001600160a01b03161462001ab75760405162461bcd60e51b8152600401620005539062002f3e565b6001600160a01b038716301462001ae25760405162461bcd60e51b8152600401620005539062002f9b565b604080516001600160a01b038a811660248301528981166044830152606482018990526084820188905286151560a483015260ff861660c483015260e482018590526101048083018590528351808403909101815261012490920183526020820180516001600160e01b03166323f2ebc360e21b1790529151918f169162001b6b919062002d38565b6000604051808303816000865af19150503d806000811462001baa576040519150601f19603f3d011682016040523d82523d6000602084013e62001baf565b606091505b50505050505050505050505b5050505050565b6040516001600160a01b038085166024830152831660448201526064810182905262000fce9085906323b872dd60e01b906084015b60408051601f198184030181529190526020810180516001600160e01b03166001600160e01b03199093169290921790915262002193565b80600162001c406020600262003184565b62001c4c919062003192565b6021541062001cb15760405162461bcd60e51b815260206004820152602a60248201527f4465706f736974436f6e74726163743a5f6465706f7369743a204d45524b4c4560448201526917d514915157d195531360b21b606482015260840162000553565b60016021600082825462001cc69190620031ac565b909155505060215460005b602081101562001d70578160011660010362001d0657826001826020811062001cfe5762001cfe62002c88565b015550505050565b6001816020811062001d1c5762001d1c62002c88565b0154604080516020810192909252810184905260600160405160208183030381529060405280519060200120925060028262001d59919062002cca565b91508062001d678162002ce1565b91505062001cd1565b5062001d7b620031c7565b505050565b60225460ff161562001da65760405162461bcd60e51b81526004016200055390620029ed565b6022805460ff191660011790556040517f2261efe5aef6fedc1fd1550b25facc9181745623049c7901287030b9ad1a549790600090a1565b62001def8a63ffffffff166200145b565b1562001e465760405162461bcd60e51b815260206004820152603060248201526000805160206200477983398151915260448201526f081053149150511657d0d3105253515160821b606482015260840162000553565b6026546040805160208082018d90528183018c9052825180830384018152606083019384905280519101206312bd9b1960e11b90925260648101919091526000916001600160a01b03169063257b3632906084016020604051808303816000875af115801562001eba573d6000803e3d6000fd5b505050506040513d601f19601f8201168201806040525081019062001ee09190620031dd565b90508060000362001f495760405162461bcd60e51b815260206004820152603960248201526000805160206200477983398151915260448201527f20474c4f42414c5f455849545f524f4f545f494e56414c494400000000000000606482015260840162000553565b60225463ffffffff878116610100909204161462001fcb5760405162461bcd60e51b815260206004820152604360248201526000805160206200477983398151915260448201527f2044455354494e4154494f4e5f4e4554574f524b5f444f45535f4e4f545f4d416064820152620a886960eb1b608482015260a40162000553565b602254600090610100900463ffffffff1662001fe957508862001fec565b50895b6200201762002008848b8b8b8b8b8b8051906020012062000c42565b8e8e63ffffffff168462000b40565b620009b25760405162461bcd60e51b815260206004820152602c60248201526000805160206200477983398151915260448201526b0814d35517d253959053125160a21b606482015260840162000553565b6000620020796101008362002cca565b905060006200208b6101008462002e03565b6000928352602360205260409092208054600190931b9092179091555050565b6040516001600160a01b03831660248201526044810182905262001d7b90849063a9059cbb60e01b9060640162001bf7565b60225460ff16620021575760405162461bcd60e51b815260206004820152603b60248201527f456d657267656e63794d616e616765723a3a6966456d657267656e637953746160448201527f74653a206f6e6c7920696620656d657267656e63792073746174650000000000606482015260840162000553565b6022805460ff191690556040517f1e5e34eea33501aecf2ebec9fe0e884a40804275ea7fe10b2ba084c8374308b390600090a1565b6020015190565b6000620021ea826040518060400160405280602081526020017f5361666545524332303a206c6f772d6c6576656c2063616c6c206661696c6564815250856001600160a01b03166200226c9092919063ffffffff16565b80519091501562001d7b57808060200190518101906200220b9190620031f7565b62001d7b5760405162461bcd60e51b815260206004820152602a60248201527f5361666545524332303a204552433230206f7065726174696f6e20646964206e6044820152691bdd081cdd58d8d9595960b21b606482015260840162000553565b606062000c3a848460008585600080866001600160a01b0316858760405162002296919062002d38565b60006040518083038185875af1925050503d8060008114620022d5576040519150601f19603f3d011682016040523d82523d6000602084013e620022da565b606091505b5091509150620022ed87838387620022f8565b979650505050505050565b606083156200236c57825160000362002364576001600160a01b0385163b620023645760405162461bcd60e51b815260206004820152601d60248201527f416464726573733a2063616c6c20746f206e6f6e2d636f6e7472616374000000604482015260640162000553565b508162000c3a565b62000c3a8383815115620023835781518083602001fd5b8060405162461bcd60e51b815260040162000553919062003217565b61154c806200322d83390190565b6001600160a01b0381168114620023c357600080fd5b50565b8035620023d381620023ad565b919050565b803563ffffffff81168114620023d357600080fd5b60008083601f8401126200240057600080fd5b50813567ffffffffffffffff8111156200241957600080fd5b6020830191508360208285010111156200243257600080fd5b9250929050565b60008060008060008060a087890312156200245357600080fd5b86356200246081620023ad565b95506200247060208801620023d8565b945060408701356200248281620023ad565b935060608701359250608087013567ffffffffffffffff811115620024a657600080fd5b620024b489828a01620023ed565b979a9699509497509295939492505050565b60008060408385031215620024da57600080fd5b620024e583620023d8565b91506020830135620024f781620023ad565b809150509250929050565b6000602082840312156200251557600080fd5b81356200252281620023ad565b9392505050565b634e487b7160e01b600052604160045260246000fd5b604051601f8201601f1916810167ffffffffffffffff811182821017156200256b576200256b62002529565b604052919050565b600082601f8301126200258557600080fd5b8135602067ffffffffffffffff821115620025a457620025a462002529565b8160051b620025b58282016200253f565b9283528481018201928281019087851115620025d057600080fd5b83870192505b84831015620022ed57823582529183019190830190620025d6565b600080600080608085870312156200260857600080fd5b84359350602085013567ffffffffffffffff808211156200262857600080fd5b620026368883890162002573565b94506040870135915080821682146200264e57600080fd5b509396929550929360600135925050565b60ff81168114620023c357600080fd5b600080600080600080600060e0888a0312156200268b57600080fd5b873562002698816200265f565b9650620026a860208901620023d8565b95506040880135620026ba81620023ad565b9450620026ca60608901620023d8565b93506080880135620026dc81620023ad565b9699959850939692959460a0840135945060c09093013592915050565b600067ffffffffffffffff82111562002716576200271662002529565b50601f01601f191660200190565b600082601f8301126200273657600080fd5b81356200274d6200274782620026f9565b6200253f565b8181528460208386010111156200276357600080fd5b816020850160208301376000918101602001919091529392505050565b6000806000806000806000806000806101408b8d031215620027a157600080fd5b8a3567ffffffffffffffff80821115620027ba57600080fd5b620027c88e838f0162002573565b9b50620027d860208e01620023d8565b9a5060408d0135995060608d01359850620027f660808e01620023d8565b97506200280660a08e01620023c6565b96506200281660c08e01620023d8565b95506200282660e08e01620023c6565b94506101008d013593506101208d01359150808211156200284657600080fd5b50620028558d828e0162002724565b9150509295989b9194979a5092959850565b6000806000606084860312156200287d57600080fd5b6200288884620023d8565b925060208401356200289a81620023ad565b91506040840135620028ac81620023ad565b809150509250925092565b600060208284031215620028ca57600080fd5b5035919050565b600080600080600080600060a0888a031215620028ed57600080fd5b620028f888620023d8565b965060208801356200290a81620023ad565b9550604088013567ffffffffffffffff808211156200292857600080fd5b620029368b838c01620023ed565b909750955060608a01359150808211156200295057600080fd5b506200295f8a828b01620023ed565b909450925050608088013562002975816200265f565b8091505092959891949750929550565b6000806000606084860312156200299b57600080fd5b620029a684620023d8565b92506020840135620029b881620023ad565b9150604084013567ffffffffffffffff811115620029d557600080fd5b620029e38682870162002724565b9150509250925092565b60208082526042908201527f456d657267656e63794d616e616765723a3a69664e6f74456d657267656e637960408201527f53746174653a206f6e6c79206966206e6f7420656d657267656e637920737461606082015261746560f01b608082015260a00190565b60005b8381101562002a7257818101518382015260200162002a58565b8381111562000fce5750506000910152565b600082601f83011262002a9657600080fd5b815162002aa76200274782620026f9565b81815284602083860101111562002abd57600080fd5b62000c3a82602083016020870162002a55565b60006020828403121562002ae357600080fd5b815167ffffffffffffffff81111562002afb57600080fd5b62000c3a8482850162002a84565b60006020828403121562002b1c57600080fd5b815162002522816200265f565b6000815180845262002b4381602086016020860162002a55565b601f01601f19169290920160200192915050565b60608152600062002b6c606083018662002b29565b828103602084015262002b80818662002b29565b91505060ff83166040830152949350505050565b60ff8916815263ffffffff88811660208301526001600160a01b03888116604084015287821660608401528616608083015260a0820185905261010060c0830181905260009162002be88483018762002b29565b925080851660e085015250509998505050505050505050565b6020808252603d908201527f506f6c79676f6e5a6b45564d3a3a6f6e6c79506f6c79676f6e5a6b45564d3a2060408201527f6f6e6c7920506f6c79676f6e205a4b2d45564d20636f6e747261637474000000606082015260800190565b60e09290921b6001600160e01b031916825260601b6001600160601b031916600482015260180190565b634e487b7160e01b600052603260045260246000fd5b634e487b7160e01b600052601260045260246000fd5b634e487b7160e01b600052601160045260246000fd5b60008262002cdc5762002cdc62002c9e565b500490565b60006001820162002cf65762002cf662002cb4565b5060010190565b6001600160a01b038416815263ffffffff8316602082015260606040820181905260009062002d2f9083018462002b29565b95945050505050565b6000825162002d4c81846020870162002a55565b9190910192915050565b63ffffffff95861681529390941660208401526001600160a01b039182166040840152166060820152608081019190915260a00190565b60008060006060848603121562002da357600080fd5b835167ffffffffffffffff8082111562002dbc57600080fd5b62002dca8783880162002a84565b9450602086015191508082111562002de157600080fd5b5062002df08682870162002a84565b9250506040840151620028ac816200265f565b60008262002e155762002e1562002c9e565b500690565b81835281816020850137506000828201602090810191909152601f909101601f19169091010190565b60608152600062002e5960608301878962002e1a565b828103602084015262002e6e81868862002e1a565b91505060ff831660408301529695505050505050565b6000835162002e9881846020880162002a55565b83519083019062002eae81836020880162002a55565b01949350505050565b6000808585111562002ec857600080fd5b8386111562002ed657600080fd5b5050820193919092039150565b600080600080600080600060e0888a03121562002eff57600080fd5b873562002f0c81620023ad565b9650602088013562002f1e81620023ad565b955060408801359450606088013593506080880135620026dc816200265f565b6020808252603c908201527f506f6c79676f6e5a6b45564d4272696467653a3a5f7065726d69743a2050455260408201527f4d49545f4f574e45525f4d5553545f42455f5448455f53454e44455200000000606082015260800190565b60208082526031908201527f506f6c79676f6e5a6b45564d4272696467653a3a5f7065726d69743a205350456040820152704e4445525f4d5553545f42455f5448495360781b606082015260800190565b8015158114620023c357600080fd5b600080600080600080600080610100898b0312156200301957600080fd5b88356200302681620023ad565b975060208901356200303881620023ad565b965060408901359550606089013594506080890135620030588162002fec565b935060a08901356200306a816200265f565b979a969950949793969295929450505060c08201359160e0013590565b600181815b80851115620030c8578160001904821115620030ac57620030ac62002cb4565b80851615620030ba57918102915b93841c93908002906200308c565b509250929050565b600082620030e15750600162000a47565b81620030f05750600062000a47565b8160018114620031095760028114620031145762003134565b600191505062000a47565b60ff84111562003128576200312862002cb4565b50506001821b62000a47565b5060208310610133831016604e8410600b841016171562003159575081810a62000a47565b62003165838362003087565b80600019048211156200317c576200317c62002cb4565b029392505050565b6000620025228383620030d0565b600082821015620031a757620031a762002cb4565b500390565b60008219821115620031c257620031c262002cb4565b500190565b634e487b7160e01b600052600160045260246000fd5b600060208284031215620031f057600080fd5b5051919050565b6000602082840312156200320a57600080fd5b8151620025228162002fec565b60208152600062002522602083018462002b2956fe60c06040523480156200001157600080fd5b506040516200154c3803806200154c8339810160408190526200003491620002ad565b82826003620000448382620003c1565b506004620000538282620003c1565b5050600580546001600160a81b0319163360ff60a01b191617600160a01b60ff851602179055504660808190526200008b9062000098565b60a052506200048d915050565b60007f8b73c3c69bb8fe3d512ecc4cf759cc79239f7b179b0ffacaa9a75d522b39400f620000c562000146565b805160209182012060408051808201825260018152603160f81b90840152805192830193909352918101919091527fc89efdaa54c0f20c7adf612882df0950f5a951637e0307cdcb4c672f298b8bc66060820152608081018390523060a082015260c001604051602081830303815290604052805190602001209050919050565b606060038054620001579062000332565b80601f0160208091040260200160405190810160405280929190818152602001828054620001859062000332565b8015620001d65780601f10620001aa57610100808354040283529160200191620001d6565b820191906000526020600020905b815481529060010190602001808311620001b857829003601f168201915b5050505050905090565b634e487b7160e01b600052604160045260246000fd5b600082601f8301126200020857600080fd5b81516001600160401b0380821115620002255762000225620001e0565b604051601f8301601f19908116603f01168101908282118183101715620002505762000250620001e0565b816040528381526020925086838588010111156200026d57600080fd5b600091505b8382101562000291578582018301518183018401529082019062000272565b83821115620002a35760008385830101525b9695505050505050565b600080600060608486031215620002c357600080fd5b83516001600160401b0380821115620002db57600080fd5b620002e987838801620001f6565b945060208601519150808211156200030057600080fd5b506200030f86828701620001f6565b925050604084015160ff811681146200032757600080fd5b809150509250925092565b600181811c908216806200034757607f821691505b6020821081036200036857634e487b7160e01b600052602260045260246000fd5b50919050565b601f821115620003bc57600081815260208120601f850160051c81016020861015620003975750805b601f850160051c820191505b81811015620003b857828155600101620003a3565b5050505b505050565b81516001600160401b03811115620003dd57620003dd620001e0565b620003f581620003ee845462000332565b846200036e565b602080601f8311600181146200042d5760008415620004145750858301515b600019600386901b1c1916600185901b178555620003b8565b600085815260208120601f198616915b828110156200045e578886015182559484019460019091019084016200043d565b50858210156200047d5787850151600019600388901b60f8161c191681555b5050505050600190811b01905550565b60805160a051611092620004ba60003960006104690152600081816102f9015261043301526110926000f3fe608060405234801561001057600080fd5b50600436106101375760003560e01c806370a08231116100b8578063a457c2d71161007c578063a457c2d7146102ce578063a9059cbb146102e1578063cd0d0096146102f4578063d505accf1461031b578063dd62ed3e1461032e578063ffa1ad741461034157600080fd5b806370a082311461023f5780637ecebe001461026857806395d89b41146102885780639dc29fac14610290578063a3c573eb146102a357600080fd5b806330adf81f116100ff57806330adf81f146101c9578063313ce567146101f05780633644e5151461020f578063395093511461021757806340c10f191461022a57600080fd5b806306fdde031461013c578063095ea7b31461015a57806318160ddd1461017d57806320606b701461018f57806323b872dd146101b6575b600080fd5b610144610361565b6040516101519190610df8565b60405180910390f35b61016d610168366004610e69565b6103f3565b6040519015158152602001610151565b6002545b604051908152602001610151565b6101817f8b73c3c69bb8fe3d512ecc4cf759cc79239f7b179b0ffacaa9a75d522b39400f81565b61016d6101c4366004610e93565b61040b565b6101817f6e71edae12b1b97f4d1f60370fef10105fa2faae0126114a169c64845d6126c981565b600554600160a01b900460ff1660405160ff9091168152602001610151565b61018161042f565b61016d610225366004610e69565b61048b565b61023d610238366004610e69565b6104ad565b005b61018161024d366004610ecf565b6001600160a01b031660009081526020819052604090205490565b610181610276366004610ecf565b60066020526000908152604090205481565b6101446104ee565b61023d61029e366004610e69565b6104fd565b6005546102b6906001600160a01b031681565b6040516001600160a01b039091168152602001610151565b61016d6102dc366004610e69565b610531565b61016d6102ef366004610e69565b6105ac565b6101817f000000000000000000000000000000000000000000000000000000000000000081565b61023d610329366004610ef1565b6105ba565b61018161033c366004610f64565b6107f5565b610144604051806040016040528060018152602001603160f81b81525081565b60606003805461037090610f97565b80601f016020809104026020016040519081016040528092919081815260200182805461039c90610f97565b80156103e95780601f106103be576101008083540402835291602001916103e9565b820191906000526020600020905b8154815290600101906020018083116103cc57829003601f168201915b5050505050905090565b600033610401818585610820565b5060019392505050565b600033610419858285610945565b6104248585856109bf565b506001949350505050565b60007f000000000000000000000000000000000000000000000000000000000000000046146104665761046146610b63565b905090565b507f000000000000000000000000000000000000000000000000000000000000000090565b60003361040181858561049e83836107f5565b6104a89190610fe7565b610820565b6005546001600160a01b031633146104e05760405162461bcd60e51b81526004016104d790610fff565b60405180910390fd5b6104ea8282610c0f565b5050565b60606004805461037090610f97565b6005546001600160a01b031633146105275760405162461bcd60e51b81526004016104d790610fff565b6104ea8282610cce565b6000338161053f82866107f5565b90508381101561059f5760405162461bcd60e51b815260206004820152602560248201527f45524332303a2064656372656173656420616c6c6f77616e63652062656c6f77604482015264207a65726f60d81b60648201526084016104d7565b6104248286868403610820565b6000336104018185856109bf565b834211156106165760405162461bcd60e51b8152602060048201526024808201527f546f6b656e577261707065643a3a7065726d69743a20457870697265642070656044820152631c9b5a5d60e21b60648201526084016104d7565b6001600160a01b038716600090815260066020526040812080547f6e71edae12b1b97f4d1f60370fef10105fa2faae0126114a169c64845d6126c9918a918a918a91908661066383611043565b909155506040805160208101969096526001600160a01b0394851690860152929091166060840152608083015260a082015260c0810186905260e00160405160208183030381529060405280519060200120905060006106c161042f565b60405161190160f01b602082015260228101919091526042810183905260620160408051601f198184030181528282528051602091820120600080855291840180845281905260ff89169284019290925260608301879052608083018690529092509060019060a0016020604051602081039080840390855afa15801561074c573d6000803e3d6000fd5b5050604051601f1901519150506001600160a01b038116158015906107825750896001600160a01b0316816001600160a01b0316145b6107de5760405162461bcd60e51b815260206004820152602760248201527f546f6b656e577261707065643a3a7065726d69743a20496e76616c6964207369604482015266676e617475726560c81b60648201526084016104d7565b6107e98a8a8a610820565b50505050505050505050565b6001600160a01b03918216600090815260016020908152604080832093909416825291909152205490565b6001600160a01b0383166108825760405162461bcd60e51b8152602060048201526024808201527f45524332303a20617070726f76652066726f6d20746865207a65726f206164646044820152637265737360e01b60648201526084016104d7565b6001600160a01b0382166108e35760405162461bcd60e51b815260206004820152602260248201527f45524332303a20617070726f766520746f20746865207a65726f206164647265604482015261737360f01b60648201526084016104d7565b6001600160a01b0383811660008181526001602090815260408083209487168084529482529182902085905590518481527f8c5be1e5ebec7d5bd14f71427d1e84f3dd0314c0f7b2291e5b200ac8c7c3b92591015b60405180910390a3505050565b600061095184846107f5565b905060001981146109b957818110156109ac5760405162461bcd60e51b815260206004820152601d60248201527f45524332303a20696e73756666696369656e7420616c6c6f77616e636500000060448201526064016104d7565b6109b98484848403610820565b50505050565b6001600160a01b038316610a235760405162461bcd60e51b815260206004820152602560248201527f45524332303a207472616e736665722066726f6d20746865207a65726f206164604482015264647265737360d81b60648201526084016104d7565b6001600160a01b038216610a855760405162461bcd60e51b815260206004820152602360248201527f45524332303a207472616e7366657220746f20746865207a65726f206164647260448201526265737360e81b60648201526084016104d7565b6001600160a01b03831660009081526020819052604090205481811015610afd5760405162461bcd60e51b815260206004820152602660248201527f45524332303a207472616e7366657220616d6f756e7420657863656564732062604482015265616c616e636560d01b60648201526084016104d7565b6001600160a01b03848116600081815260208181526040808320878703905593871680835291849020805487019055925185815290927fddf252ad1be2c89b69c2b068fc378daa952ba7f163c4a11628f55a4df523b3ef910160405180910390a36109b9565b60007f8b73c3c69bb8fe3d512ecc4cf759cc79239f7b179b0ffacaa9a75d522b39400f610b8e610361565b805160209182012060408051808201825260018152603160f81b90840152805192830193909352918101919091527fc89efdaa54c0f20c7adf612882df0950f5a951637e0307cdcb4c672f298b8bc66060820152608081018390523060a082015260c001604051602081830303815290604052805190602001209050919050565b6001600160a01b038216610c655760405162461bcd60e51b815260206004820152601f60248201527f45524332303a206d696e7420746f20746865207a65726f20616464726573730060448201526064016104d7565b8060026000828254610c779190610fe7565b90915550506001600160a01b038216600081815260208181526040808320805486019055518481527fddf252ad1be2c89b69c2b068fc378daa952ba7f163c4a11628f55a4df523b3ef910160405180910390a35050565b6001600160a01b038216610d2e5760405162461bcd60e51b815260206004820152602160248201527f45524332303a206275726e2066726f6d20746865207a65726f206164647265736044820152607360f81b60648201526084016104d7565b6001600160a01b03821660009081526020819052604090205481811015610da25760405162461bcd60e51b815260206004820152602260248201527f45524332303a206275726e20616d6f756e7420657863656564732062616c616e604482015261636560f01b60648201526084016104d7565b6001600160a01b0383166000818152602081815260408083208686039055600280548790039055518581529192917fddf252ad1be2c89b69c2b068fc378daa952ba7f163c4a11628f55a4df523b3ef9101610938565b600060208083528351808285015260005b81811015610e2557858101830151858201604001528201610e09565b81811115610e37576000604083870101525b50601f01601f1916929092016040019392505050565b80356001600160a01b0381168114610e6457600080fd5b919050565b60008060408385031215610e7c57600080fd5b610e8583610e4d565b946020939093013593505050565b600080600060608486031215610ea857600080fd5b610eb184610e4d565b9250610ebf60208501610e4d565b9150604084013590509250925092565b600060208284031215610ee157600080fd5b610eea82610e4d565b9392505050565b600080600080600080600060e0888a031215610f0c57600080fd5b610f1588610e4d565b9650610f2360208901610e4d565b95506040880135945060608801359350608088013560ff81168114610f4757600080fd5b9699959850939692959460a0840135945060c09093013592915050565b60008060408385031215610f7757600080fd5b610f8083610e4d565b9150610f8e60208401610e4d565b90509250929050565b600181811c90821680610fab57607f821691505b602082108103610fcb57634e487b7160e01b600052602260045260246000fd5b50919050565b634e487b7160e01b600052601160045260246000fd5b60008219821115610ffa57610ffa610fd1565b500190565b60208082526024908201527f546f6b656e577261707065643a3a6f6e6c794272696467653a204e4f545f42526040820152634944474560e01b606082015260800190565b60006001820161105557611055610fd1565b506001019056fea264697066735822122048db6a6222fa164d21a8fcb1cd25d2a9e0eee016393c37dcc7b7fd638ef787c264736f6c634300080f0033506f6c79676f6e5a6b45564d4272696467653a3a5f7665726966794c6561663aa26469706673582212201e5d89c55c1f97b1f79752036fe68d3686187613f7595faa2b990d177c1a04c264736f6c634300080f0033",
  "linkReferences": {},
  "deployedLinkReferences": {}
}