{
  "_format": "hh-sol-artifact-1",
  "contractName": "PolygonZkEVMBridgeMock",
  "sourceName": "contracts/mocks/PolygonZkEVMBridgeMock.sol",
  "abi": [
    {
      "anonymous": false,
      "inputs": [
        {
          "indexed": false,
          "internalType": "uint8",
          "name": "leafType",
          "type": "uint8"
        },
        {
          "indexed": false,
          "internalType": "uint32",
          "name": "originNetwork",
          "type": "uint32"
        },
        {
          "indexed": false,
          "internalType": "address",
          "name": "originAddress",
          "type": "address"
        },
        {
          "indexed": false,
          "internalType": "uint32",
          "name": "destinationNetwork",
          "type": "uint32"
        },
        {
          "indexed": false,
          "internalType": "address",
          "name": "destinationAddress",
          "type": "address"
        },
        {
          "indexed": false,
          "internalType": "uint256",
          "name": "amount",
          "type": "uint256"
        },
        {
          "indexed": false,
          "internalType": "bytes",
          "name": "metadata",
          "type": "bytes"
        },
        {
          "indexed": false,
          "internalType": "uint32",
          "name": "depositCount",
          "type": "uint32"
        }
      ],
      "name": "BridgeEvent",
      "type": "event"
    },
    {
      "anonymous": false,
      "inputs": [
        {
          "indexed": false,
          "internalType": "uint32",
          "name": "index",
          "type": "uint32"
        },
        {
          "indexed": false,
          "internalType": "uint32",
          "name": "originNetwork",
          "type": "uint32"
        },
        {
          "indexed": false,
          "internalType": "address",
          "name": "originAddress",
          "type": "address"
        },
        {
          "indexed": false,
          "internalType": "address",
          "name": "destinationAddress",
          "type": "address"
        },
        {
          "indexed": false,
          "internalType": "uint256",
          "name": "amount",
          "type": "uint256"
        }
      ],
      "name": "ClaimEvent",
      "type": "event"
    },
    {
      "anonymous": false,
      "inputs": [],
      "name": "EmergencyStateActivated",
      "type": "event"
    },
    {
      "anonymous": false,
      "inputs": [],
      "name": "EmergencyStateDeactivated",
      "type": "event"
    },
    {
      "anonymous": false,
      "inputs": [
        {
          "indexed": false,
          "internalType": "uint8",
          "name": "version",
          "type": "uint8"
        }
      ],
      "name": "Initialized",
      "type": "event"
    },
    {
      "anonymous": false,
      "inputs": [
        {
          "indexed": false,
          "internalType": "uint32",
          "name": "originNetwork",
          "type": "uint32"
        },
        {
          "indexed": false,
          "internalType": "address",
          "name": "originTokenAddress",
          "type": "address"
        },
        {
          "indexed": false,
          "internalType": "address",
          "name": "wrappedTokenAddress",
          "type": "address"
        }
      ],
      "name": "NewWrappedToken",
      "type": "event"
    },
    {
      "anonymous": false,
      "inputs": [
        {
          "indexed": true,
          "internalType": "address",
          "name": "previousOwner",
          "type": "address"
        },
        {
          "indexed": true,
          "internalType": "address",
          "name": "newOwner",
          "type": "address"
        }
      ],
      "name": "OwnershipTransferred",
      "type": "event"
    },
    {
      "inputs": [],
      "name": "LEAF_TYPE_ASSET",
      "outputs": [
        {
          "internalType": "uint8",
          "name": "",
          "type": "uint8"
        }
      ],
      "stateMutability": "view",
      "type": "function"
    },
    {
      "inputs": [],
      "name": "LEAF_TYPE_MESSAGE",
      "outputs": [
        {
          "internalType": "uint8",
          "name": "",
          "type": "uint8"
        }
      ],
      "stateMutability": "view",
      "type": "function"
    },
    {
      "inputs": [],
      "name": "MAINNET_NETWORK_ID",
      "outputs": [
        {
          "internalType": "uint32",
          "name": "",
          "type": "uint32"
        }
      ],
      "stateMutability": "view",
      "type": "function"
    },
    {
      "inputs": [],
      "name": "activateEmergencyState",
      "outputs": [],
      "stateMutability": "nonpayable",
      "type": "function"
    },
    {
      "inputs": [
        {
          "internalType": "address",
          "name": "token",
          "type": "address"
        },
        {
          "internalType": "uint32",
          "name": "destinationNetwork",
          "type": "uint32"
        },
        {
          "internalType": "address",
          "name": "destinationAddress",
          "type": "address"
        },
        {
          "internalType": "uint256",
          "name": "amount",
          "type": "uint256"
        },
        {
          "internalType": "bytes",
          "name": "permitData",
          "type": "bytes"
        }
      ],
      "name": "bridgeAsset",
      "outputs": [],
      "stateMutability": "payable",
      "type": "function"
    },
    {
      "inputs": [
        {
          "internalType": "uint32",
          "name": "destinationNetwork",
          "type": "uint32"
        },
        {
          "internalType": "address",
          "name": "destinationAddress",
          "type": "address"
        },
        {
          "internalType": "bytes",
          "name": "metadata",
          "type": "bytes"
        }
      ],
      "name": "bridgeMessage",
      "outputs": [],
      "stateMutability": "payable",
      "type": "function"
    },
    {
      "inputs": [
        {
          "internalType": "bytes32[]",
          "name": "smtProof",
          "type": "bytes32[]"
        },
        {
          "internalType": "uint32",
          "name": "index",
          "type": "uint32"
        },
        {
          "internalType": "bytes32",
          "name": "mainnetExitRoot",
          "type": "bytes32"
        },
        {
          "internalType": "bytes32",
          "name": "rollupExitRoot",
          "type": "bytes32"
        },
        {
          "internalType": "uint32",
          "name": "originNetwork",
          "type": "uint32"
        },
        {
          "internalType": "address",
          "name": "originTokenAddress",
          "type": "address"
        },
        {
          "internalType": "uint32",
          "name": "destinationNetwork",
          "type": "uint32"
        },
        {
          "internalType": "address",
          "name": "destinationAddress",
          "type": "address"
        },
        {
          "internalType": "uint256",
          "name": "amount",
          "type": "uint256"
        },
        {
          "internalType": "bytes",
          "name": "metadata",
          "type": "bytes"
        }
      ],
      "name": "claimAsset",
      "outputs": [],
      "stateMutability": "nonpayable",
      "type": "function"
    },
    {
      "inputs": [
        {
          "internalType": "bytes32[]",
          "name": "smtProof",
          "type": "bytes32[]"
        },
        {
          "internalType": "uint32",
          "name": "index",
          "type": "uint32"
        },
        {
          "internalType": "bytes32",
          "name": "mainnetExitRoot",
          "type": "bytes32"
        },
        {
          "internalType": "bytes32",
          "name": "rollupExitRoot",
          "type": "bytes32"
        },
        {
          "internalType": "uint32",
          "name": "originNetwork",
          "type": "uint32"
        },
        {
          "internalType": "address",
          "name": "originAddress",
          "type": "address"
        },
        {
          "internalType": "uint32",
          "name": "destinationNetwork",
          "type": "uint32"
        },
        {
          "internalType": "address",
          "name": "destinationAddress",
          "type": "address"
        },
        {
          "internalType": "uint256",
          "name": "amount",
          "type": "uint256"
        },
        {
          "internalType": "bytes",
          "name": "metadata",
          "type": "bytes"
        }
      ],
      "name": "claimMessage",
      "outputs": [],
      "stateMutability": "nonpayable",
      "type": "function"
    },
    {
      "inputs": [
        {
          "internalType": "uint256",
          "name": "",
          "type": "uint256"
        }
      ],
      "name": "claimedBitMap",
      "outputs": [
        {
          "internalType": "uint256",
          "name": "",
          "type": "uint256"
        }
      ],
      "stateMutability": "view",
      "type": "function"
    },
    {
      "inputs": [],
      "name": "deactivateEmergencyState",
      "outputs": [],
      "stateMutability": "nonpayable",
      "type": "function"
    },
    {
      "inputs": [],
      "name": "depositCount",
      "outputs": [
        {
          "internalType": "uint256",
          "name": "",
          "type": "uint256"
        }
      ],
      "stateMutability": "view",
      "type": "function"
    },
    {
      "inputs": [],
      "name": "getDepositRoot",
      "outputs": [
        {
          "internalType": "bytes32",
          "name": "",
          "type": "bytes32"
        }
      ],
      "stateMutability": "view",
      "type": "function"
    },
    {
      "inputs": [
        {
          "internalType": "uint8",
          "name": "leafType",
          "type": "uint8"
        },
        {
          "internalType": "uint32",
          "name": "originNetwork",
          "type": "uint32"
        },
        {
          "internalType": "address",
          "name": "originAddress",
          "type": "address"
        },
        {
          "internalType": "uint32",
          "name": "destinationNetwork",
          "type": "uint32"
        },
        {
          "internalType": "address",
          "name": "destinationAddress",
          "type": "address"
        },
        {
          "internalType": "uint256",
          "name": "amount",
          "type": "uint256"
        },
        {
          "internalType": "bytes32",
          "name": "metadataHash",
          "type": "bytes32"
        }
      ],
      "name": "getLeafValue",
      "outputs": [
        {
          "internalType": "bytes32",
          "name": "",
          "type": "bytes32"
        }
      ],
      "stateMutability": "pure",
      "type": "function"
    },
    {
      "inputs": [
        {
          "internalType": "uint32",
          "name": "originNetwork",
          "type": "uint32"
        },
        {
          "internalType": "address",
          "name": "originTokenAddress",
          "type": "address"
        }
      ],
      "name": "getTokenWrappedAddress",
      "outputs": [
        {
          "internalType": "address",
          "name": "",
          "type": "address"
        }
      ],
      "stateMutability": "view",
      "type": "function"
    },
    {
      "inputs": [],
      "name": "globalExitRootManager",
      "outputs": [
        {
          "internalType": "contract IPolygonZkEVMGlobalExitRoot",
          "name": "",
          "type": "address"
        }
      ],
      "stateMutability": "view",
      "type": "function"
    },
    {
      "inputs": [
        {
          "internalType": "uint32",
          "name": "_networkID",
          "type": "uint32"
        },
        {
          "internalType": "contract IPolygonZkEVMGlobalExitRoot",
          "name": "_globalExitRootManager",
          "type": "address"
        },
        {
          "internalType": "address",
          "name": "_zkEVMaddress",
          "type": "address"
        }
      ],
      "name": "initialize",
      "outputs": [],
      "stateMutability": "nonpayable",
      "type": "function"
    },
    {
      "inputs": [
        {
          "internalType": "uint256",
          "name": "index",
          "type": "uint256"
        }
      ],
      "name": "isClaimed",
      "outputs": [
        {
          "internalType": "bool",
          "name": "",
          "type": "bool"
        }
      ],
      "stateMutability": "view",
      "type": "function"
    },
    {
      "inputs": [],
      "name": "isEmergencyState",
      "outputs": [
        {
          "internalType": "bool",
          "name": "",
          "type": "bool"
        }
      ],
      "stateMutability": "view",
      "type": "function"
    },
    {
      "inputs": [],
      "name": "maxEtherBridge",
      "outputs": [
        {
          "internalType": "uint256",
          "name": "",
          "type": "uint256"
        }
      ],
      "stateMutability": "view",
      "type": "function"
    },
    {
      "inputs": [],
      "name": "networkID",
      "outputs": [
        {
          "internalType": "uint32",
          "name": "",
          "type": "uint32"
        }
      ],
      "stateMutability": "view",
      "type": "function"
    },
    {
      "inputs": [],
      "name": "owner",
      "outputs": [
        {
          "internalType": "address",
          "name": "",
          "type": "address"
        }
      ],
      "stateMutability": "view",
      "type": "function"
    },
    {
      "inputs": [
        {
          "internalType": "uint32",
          "name": "originNetwork",
          "type": "uint32"
        },
        {
          "internalType": "address",
          "name": "originTokenAddress",
          "type": "address"
        },
        {
          "internalType": "string",
          "name": "name",
          "type": "string"
        },
        {
          "internalType": "string",
          "name": "symbol",
          "type": "string"
        },
        {
          "internalType": "uint8",
          "name": "decimals",
          "type": "uint8"
        }
      ],
      "name": "precalculatedWrapperAddress",
      "outputs": [
        {
          "internalType": "address",
          "name": "",
          "type": "address"
        }
      ],
      "stateMutability": "view",
      "type": "function"
    },
    {
      "inputs": [],
      "name": "renounceOwnership",
      "outputs": [],
      "stateMutability": "nonpayable",
      "type": "function"
    },
    {
      "inputs": [
        {
          "internalType": "uint256",
          "name": "_maxEtherBridge",
          "type": "uint256"
        }
      ],
      "name": "setMaxEtherBridge",
      "outputs": [],
      "stateMutability": "nonpayable",
      "type": "function"
    },
    {
      "inputs": [
        {
          "internalType": "uint32",
          "name": "_networkID",
          "type": "uint32"
        }
      ],
      "name": "setNetworkID",
      "outputs": [],
      "stateMutability": "nonpayable",
      "type": "function"
    },
    {
      "inputs": [
        {
          "internalType": "bytes32",
          "name": "",
          "type": "bytes32"
        }
      ],
      "name": "tokenInfoToWrappedToken",
      "outputs": [
        {
          "internalType": "address",
          "name": "",
          "type": "address"
        }
      ],
      "stateMutability": "view",
      "type": "function"
    },
    {
      "inputs": [
        {
          "internalType": "address",
          "name": "newOwner",
          "type": "address"
        }
      ],
      "name": "transferOwnership",
      "outputs": [],
      "stateMutability": "nonpayable",
      "type": "function"
    },
    {
      "inputs": [
        {
          "internalType": "bytes32",
          "name": "leafHash",
          "type": "bytes32"
        },
        {
          "internalType": "bytes32[]",
          "name": "smtProof",
          "type": "bytes32[]"
        },
        {
          "internalType": "uint64",
          "name": "index",
          "type": "uint64"
        },
        {
          "internalType": "bytes32",
          "name": "root",
          "type": "bytes32"
        }
      ],
      "name": "verifyMerkleProof",
      "outputs": [
        {
          "internalType": "bool",
          "name": "",
          "type": "bool"
        }
      ],
      "stateMutability": "pure",
      "type": "function"
    },
    {
      "inputs": [
        {
          "internalType": "address",
          "name": "",
          "type": "address"
        }
      ],
      "name": "wrappedTokenToTokenInfo",
      "outputs": [
        {
          "internalType": "uint32",
          "name": "originNetwork",
          "type": "uint32"
        },
        {
          "internalType": "address",
          "name": "originTokenAddress",
          "type": "address"
        }
      ],
      "stateMutability": "view",
      "type": "function"
    },
    {
      "inputs": [],
      "name": "zkEVMaddress",
      "outputs": [
        {
          "internalType": "address",
          "name": "",
          "type": "address"
        }
      ],
      "stateMutability": "view",
      "type": "function"
    }
  ],
  "bytecode": "0x608060405234801561001057600080fd5b50614bd8806100206000396000f3fe608060405260043610620001f35760003560e01c80637b6323c1116200010b578063bab161bf11620000a1578063ed6be5c9116200006c578063ed6be5c914620005f4578063ee25560b146200060b578063f2fde38b146200063c578063ff634ed7146200066157600080fd5b8063bab161bf1462000569578063d02103ca14620005a3578063d96a15f714620005c5578063dbc1697614620005dc57600080fd5b806391e57e2d11620000e257806391e57e2d14620004dd5780639e34070f14620004f5578063a08e8a08146200051a578063aaa13cc2146200054457600080fd5b80637b6323c1146200045e57806381b1c17414620004835780638da5cb5b14620004bd57600080fd5b8063318aee3d116200018d5780633e19704311620001585780633e19704314620003d75780634638554914620003fc578063647c576c1462000421578063715018a6146200044657600080fd5b8063318aee3d146200030957806337883a3e14620003785780633ae05047146200039a5780633da8168214620003b257600080fd5b806322e95f2c11620001ce57806322e95f2c146200025a5780632b5e42e714620002985780632c3f58cd14620002bd5780632dfdf0b514620002e257600080fd5b80630871e97114620001f857806315064c9614620002115780632072f6c51462000242575b600080fd5b6200020f6200020936600462002825565b62000678565b005b3480156200021e57600080fd5b506022546200022d9060ff1681565b60405190151581526020015b60405180910390f35b3480156200024f57600080fd5b506200020f6200071e565b3480156200026757600080fd5b506200027f62000279366004620028b2565b62000757565b6040516001600160a01b03909116815260200162000239565b348015620002a557600080fd5b506200020f620002b7366004620028ee565b620007aa565b348015620002ca57600080fd5b506200020f620002dc36600462002908565b620007b9565b348015620002ef57600080fd5b50620002fa60215481565b60405190815260200162000239565b3480156200031657600080fd5b5062000353620003283660046200292d565b60256020526000908152604090205463ffffffff81169064010000000090046001600160a01b031682565b6040805163ffffffff90931683526001600160a01b0390911660208301520162000239565b3480156200038557600080fd5b506027546200027f906001600160a01b031681565b348015620003a757600080fd5b50620002fa620007e5565b348015620003bf57600080fd5b506200022d620003d136600462002a15565b620008d8565b348015620003e457600080fd5b50620002fa620003f636600462002a93565b620009da565b3480156200040957600080fd5b506200020f6200041b36600462002ba4565b62000a67565b3480156200042e57600080fd5b506200020f6200044036600462002c8b565b62000c0d565b3480156200045357600080fd5b506200020f62000d82565b3480156200046b57600080fd5b506200020f6200047d36600462002ba4565b62000d98565b3480156200049057600080fd5b506200027f620004a2366004620028ee565b6024602052600090815260409020546001600160a01b031681565b348015620004ca57600080fd5b50605a546001600160a01b03166200027f565b348015620004ea57600080fd5b50620002fa608c5481565b3480156200050257600080fd5b506200022d62000514366004620028ee565b6200121f565b3480156200052757600080fd5b5062000531600081565b60405160ff909116815260200162000239565b3480156200055157600080fd5b506200027f6200056336600462002cdb565b62001264565b3480156200057657600080fd5b506022546200058d90610100900463ffffffff1681565b60405163ffffffff909116815260200162000239565b348015620005b057600080fd5b506026546200027f906001600160a01b031681565b6200020f620005d636600462002d8f565b6200137b565b348015620005e957600080fd5b506200020f6200152d565b3480156200060157600080fd5b506200058d600081565b3480156200061857600080fd5b50620002fa6200062a366004620028ee565b60236020526000908152604090205481565b3480156200064957600080fd5b506200020f6200065b3660046200292d565b62001564565b3480156200066e57600080fd5b5062000531600181565b608c54341115620007065760405162461bcd60e51b815260206004820152604760248201527f506f6c79676f6e5a6b45564d4272696467653a3a62726964676541737365743a60448201527f2043616e6e6f7420627269646765206d6f7265207468616e206d6178457468656064820152667242726964676560c81b608482015260a4015b60405180910390fd5b62000716868686868686620015e3565b505050505050565b6027546001600160a01b031633146200074b5760405162461bcd60e51b8152600401620006fd9062002df7565b6200075562001a68565b565b60006024600084846040516020016200077292919062002e54565b60408051601f19818403018152918152815160209283012083529082019290925201600020546001600160a01b031690505b92915050565b620007b462001ac6565b608c55565b620007c362001ac6565b6022805463ffffffff9092166101000264ffffffff0019909216919091179055565b602154600090819081805b6020811015620008cf57826001166001036200085057600181602081106200081c576200081c62002e7e565b015460408051602081019290925281018590526060016040516020818303038152906040528051906020012093506200087d565b60408051602081018690529081018390526060016040516020818303038152906040528051906020012093505b6200088a60028462002ec0565b60408051602081018590529081018490529093506060016040516020818303038152906040528051906020012091508080620008c69062002ed7565b915050620007f0565b50919392505050565b60008467ffffffffffffffff8416825b6020811015620009cb5781600116600103620009555786818151811062000913576200091362002e7e565b60200260200101518360405160200162000937929190918252602082015260400190565b604051602081830303815290604052805190602001209250620009a7565b828782815181106200096b576200096b62002e7e565b60200260200101516040516020016200098e929190918252602082015260400190565b6040516020818303038152906040528051906020012092505b620009b460028362002ec0565b915080620009c28162002ed7565b915050620008e8565b5050821490505b949350505050565b6040516001600160f81b031960f889901b1660208201526001600160e01b031960e088811b821660218401526001600160601b0319606089811b821660258601529188901b909216603984015285901b16603d8201526051810183905260718101829052600090609101604051602081830303815290604052805190602001209050979650505050505050565b60225460ff161562000a8d5760405162461bcd60e51b8152600401620006fd9062002ef3565b62000aa38a8a8a8a8a8a8a8a8a8a600162001b22565b62000ab48963ffffffff1662001dad565b6000836001600160a01b03168387898560405160240162000ad89392919062002fb8565b60408051601f198184030181529181526020820180516001600160e01b0316630c035af960e11b1790525162000b0f919062002ff3565b60006040518083038185875af1925050503d806000811462000b4e576040519150601f19603f3d011682016040523d82523d6000602084013e62000b53565b606091505b505090508062000bbf5760405162461bcd60e51b815260206004820152603060248201527f506f6c79676f6e5a6b45564d4272696467653a3a636c61696d4d65737361676560448201526f0e88135154d4d051d157d1905253115160821b6064820152608401620006fd565b7f25308c93ceeed162da955b3f7ce3e3f93606579e40fb92029faa9efe275459838a8888878760405162000bf895949392919062003011565b60405180910390a15050505050505050505050565b600054610100900460ff161580801562000c2e5750600054600160ff909116105b8062000c4a5750303b15801562000c4a575060005460ff166001145b62000caf5760405162461bcd60e51b815260206004820152602e60248201527f496e697469616c697a61626c653a20636f6e747261637420697320616c72656160448201526d191e481a5b9a5d1a585b1a5e995960921b6064820152608401620006fd565b6000805460ff19166001179055801562000cd3576000805461ff0019166101001790555b6022805463ffffffff86166101000264ffffffff0019909116179055602680546001600160a01b038086166001600160a01b03199283161790925560278054928516929091169190911790556703782dace9d90000608c5562000d3562001def565b801562000d7c576000805461ff0019169055604051600181527f7f26b83ff96e1f2b6a682f133852f6798a09c465da95921460cefb38474024989060200160405180910390a15b50505050565b62000d8c62001ac6565b62000755600062001e62565b60225460ff161562000dbe5760405162461bcd60e51b8152600401620006fd9062002ef3565b62000dd48a8a8a8a8a8a8a8a8a8a600062001b22565b62000de58963ffffffff1662001dad565b6001600160a01b03851662000eda57604080516000808252602082019092526001600160a01b03851690849060405162000e20919062002ff3565b60006040518083038185875af1925050503d806000811462000e5f576040519150601f19603f3d011682016040523d82523d6000602084013e62000e64565b606091505b505090508062000ed35760405162461bcd60e51b815260206004820152603360248201527f506f6c79676f6e5a6b45564d4272696467653a3a636c61696d41737365743a2060448201527211551217d514905394d1915497d19052531151606a1b6064820152608401620006fd565b50620011d2565b60225463ffffffff61010090910481169087160362000f0f5762000f096001600160a01b038616848462001eb4565b620011d2565b6000868660405160200162000f2692919062002e54565b60408051601f198184030181529181528151602092830120600081815260249093529120549091506001600160a01b0316806200116a5760008060008580602001905181019062000f78919062003094565b92509250925060008584848460405162000f92906200278e565b62000fa0939291906200310a565b8190604051809103906000f590508015801562000fc1573d6000803e3d6000fd5b506040516340c10f1960e01b81526001600160a01b038b81166004830152602482018b9052919250908216906340c10f1990604401600060405180830381600087803b1580156200101157600080fd5b505af115801562001026573d6000803e3d6000fd5b50505050806024600088815260200190815260200160002060006101000a8154816001600160a01b0302191690836001600160a01b0316021790555060405180604001604052808d63ffffffff1681526020018c6001600160a01b031681525060256000836001600160a01b03166001600160a01b0316815260200190815260200160002060008201518160000160006101000a81548163ffffffff021916908363ffffffff16021790555060208201518160000160046101000a8154816001600160a01b0302191690836001600160a01b031602179055509050507fccd7715648d1f2bb13e158f96b5b6c3aeda555d4cb87112e274a6f28bc571d598c8c83604051620011589392919063ffffffff9390931683526001600160a01b03918216602084015216604082015260600190565b60405180910390a150505050620011cf565b6040516340c10f1960e01b81526001600160a01b038681166004830152602482018690528216906340c10f1990604401600060405180830381600087803b158015620011b557600080fd5b505af1158015620011ca573d6000803e3d6000fd5b505050505b50505b7f25308c93ceeed162da955b3f7ce3e3f93606579e40fb92029faa9efe2754598389878786866040516200120b95949392919062003011565b60405180910390a150505050505050505050565b600080620012306101008462002ec0565b90506000620012426101008562003147565b60009283526023602052604090922054600190921b9182169091149392505050565b60008088886040516020016200127c92919062002e54565b604051602081830303815290604052805190602001209050600060ff60f81b308360405180602001620012af906200278e565b601f1982820381018352601f909101166040819052620012dc908d908d908d908d908d9060200162003187565b60408051601f1981840301815290829052620012fc9291602001620031c8565b604051602081830303815290604052805190602001206040516020016200135594939291906001600160f81b031994909416845260609290921b6001600160601b03191660018401526015830152603582015260550190565b60408051808303601f1901815291905280516020909101209a9950505050505050505050565b60225460ff1615620013a15760405162461bcd60e51b8152600401620006fd9062002ef3565b60225463ffffffff610100909104811690841603620014295760405162461bcd60e51b815260206004820152603d60248201527f506f6c79676f6e5a6b45564d4272696467653a3a6272696467654d657373616760448201527f653a2044455354494e4154494f4e5f43414e545f42455f495453454c460000006064820152608401620006fd565b7f501781209a1f8899323b96b4ef08b168df93e0a90c673d1e4cce39366cb62f9b6001602260019054906101000a900463ffffffff1633868634876021546040516200147d989796959493929190620031fb565b60405180910390a1620014ba620014b46001602260019054906101000a900463ffffffff16338787348880519060200120620009da565b62001f1e565b6026546001600160a01b03166333d6247d620014d5620007e5565b6040518263ffffffff1660e01b8152600401620014f491815260200190565b600060405180830381600087803b1580156200150f57600080fd5b505af115801562001524573d6000803e3d6000fd5b50505050505050565b6027546001600160a01b031633146200155a5760405162461bcd60e51b8152600401620006fd9062002df7565b620007556200206a565b6200156e62001ac6565b6001600160a01b038116620015d55760405162461bcd60e51b815260206004820152602660248201527f4f776e61626c653a206e6577206f776e657220697320746865207a65726f206160448201526564647265737360d01b6064820152608401620006fd565b620015e08162001e62565b50565b60225460ff1615620016095760405162461bcd60e51b8152600401620006fd9062002ef3565b60225463ffffffff610100909104811690861603620016915760405162461bcd60e51b815260206004820152603b60248201527f506f6c79676f6e5a6b45564d4272696467653a3a62726964676541737365743a60448201527f2044455354494e4154494f4e5f43414e545f42455f495453454c4600000000006064820152608401620006fd565b60008060606001600160a01b03891662001728578534146200171e576040805162461bcd60e51b81526020600482015260248101919091527f506f6c79676f6e5a6b45564d4272696467653a3a62726964676541737365743a60448201527f20414d4f554e545f444f45535f4e4f545f4d415443485f4d53475f56414c55456064820152608401620006fd565b6000915062001988565b6001600160a01b03808a1660009081526025602090815260409182902082518084019093525463ffffffff8116835264010000000090049092169181018290529015620017e557604051632770a7eb60e21b8152336004820152602481018890526001600160a01b038b1690639dc29fac90604401600060405180830381600087803b158015620017b857600080fd5b505af1158015620017cd573d6000803e3d6000fd5b50505050806020015193508060000151925062001986565b8415620017fa57620017fa8a88888862002119565b620018116001600160a01b038b1633308a62002541565b899350602260019054906101000a900463ffffffff169250896001600160a01b03166306fdde036040518163ffffffff1660e01b8152600401600060405180830381865afa15801562001868573d6000803e3d6000fd5b505050506040513d6000823e601f3d908101601f1916820160405262001892919081019062003268565b8a6001600160a01b03166395d89b416040518163ffffffff1660e01b8152600401600060405180830381865afa158015620018d1573d6000803e3d6000fd5b505050506040513d6000823e601f3d908101601f19168201604052620018fb919081019062003268565b8b6001600160a01b031663313ce5676040518163ffffffff1660e01b8152600401602060405180830381865afa1580156200193a573d6000803e3d6000fd5b505050506040513d601f19601f82011682018060405250810190620019609190620032a1565b60405160200162001974939291906200310a565b60405160208183030381529060405291505b505b7f501781209a1f8899323b96b4ef08b168df93e0a90c673d1e4cce39366cb62f9b600083858b8b8b87602154604051620019ca989796959493929190620031fb565b60405180910390a1620019ef620014b4600084868c8c8c8880519060200120620009da565b6026546001600160a01b03166333d6247d62001a0a620007e5565b6040518263ffffffff1660e01b815260040162001a2991815260200190565b600060405180830381600087803b15801562001a4457600080fd5b505af115801562001a59573d6000803e3d6000fd5b50505050505050505050505050565b60225460ff161562001a8e5760405162461bcd60e51b8152600401620006fd9062002ef3565b6022805460ff191660011790556040517f2261efe5aef6fedc1fd1550b25facc9181745623049c7901287030b9ad1a549790600090a1565b605a546001600160a01b03163314620007555760405162461bcd60e51b815260206004820181905260248201527f4f776e61626c653a2063616c6c6572206973206e6f7420746865206f776e65726044820152606401620006fd565b62001b338a63ffffffff166200121f565b1562001b8a5760405162461bcd60e51b8152602060048201526030602482015260008051602062004b8383398151915260448201526f081053149150511657d0d3105253515160821b6064820152608401620006fd565b6026546040805160208082018d90528183018c9052825180830384018152606083019384905280519101206312bd9b1960e11b90925260648101919091526000916001600160a01b03169063257b3632906084016020604051808303816000875af115801562001bfe573d6000803e3d6000fd5b505050506040513d601f19601f8201168201806040525081019062001c249190620032c1565b90508060000362001c8d5760405162461bcd60e51b8152602060048201526039602482015260008051602062004b8383398151915260448201527f20474c4f42414c5f455849545f524f4f545f494e56414c4944000000000000006064820152608401620006fd565b60225463ffffffff878116610100909204161462001d0f5760405162461bcd60e51b8152602060048201526043602482015260008051602062004b8383398151915260448201527f2044455354494e4154494f4e5f4e4554574f524b5f444f45535f4e4f545f4d416064820152620a886960eb1b608482015260a401620006fd565b602254600090610100900463ffffffff1662001d2d57508862001d30565b50895b62001d5b62001d4c848b8b8b8b8b8b80519060200120620009da565b8e8e63ffffffff1684620008d8565b62001a595760405162461bcd60e51b815260206004820152602c602482015260008051602062004b8383398151915260448201526b0814d35517d253959053125160a21b6064820152608401620006fd565b600062001dbd6101008362002ec0565b9050600062001dcf6101008462003147565b6000928352602360205260409092208054600190931b9092179091555050565b600054610100900460ff1662001e5c5760405162461bcd60e51b815260206004820152602b60248201527f496e697469616c697a61626c653a20636f6e7472616374206973206e6f74206960448201526a6e697469616c697a696e6760a81b6064820152608401620006fd565b62000755335b605a80546001600160a01b038381166001600160a01b0319831681179093556040519116919082907f8be0079c531659141344cd1fd0a4f28419497f9722a3daafe3b4186f6b6457e090600090a35050565b6040516001600160a01b03831660248201526044810182905262001f1990849063a9059cbb60e01b906064015b60408051601f198184030181529190526020810180516001600160e01b03166001600160e01b0319909316929092179091526200257b565b505050565b80600162001f2f60206002620033d8565b62001f3b9190620033e6565b6021541062001fa05760405162461bcd60e51b815260206004820152602a60248201527f4465706f736974436f6e74726163743a5f6465706f7369743a204d45524b4c4560448201526917d514915157d195531360b21b6064820152608401620006fd565b60016021600082825462001fb5919062003400565b909155505060215460005b60208110156200205f578160011660010362001ff557826001826020811062001fed5762001fed62002e7e565b015550505050565b600181602081106200200b576200200b62002e7e565b0154604080516020810192909252810184905260600160405160208183030381529060405280519060200120925060028262002048919062002ec0565b915080620020568162002ed7565b91505062001fc0565b5062001f196200341b565b60225460ff16620020e45760405162461bcd60e51b815260206004820152603b60248201527f456d657267656e63794d616e616765723a3a6966456d657267656e637953746160448201527f74653a206f6e6c7920696620656d657267656e637920737461746500000000006064820152608401620006fd565b6022805460ff191690556040517f1e5e34eea33501aecf2ebec9fe0e884a40804275ea7fe10b2ba084c8374308b390600090a1565b60006200215c83838080601f0160208091040260200160405190810160405280939291908181526020018383808284376000920191909152506200265492505050565b9050632afa533160e01b6001600160e01b0319821601620023555760008080808080806200218e896004818d62003431565b8101906200219d91906200345d565b9650965096509650965096509650336001600160a01b0316876001600160a01b031614620021df5760405162461bcd60e51b8152600401620006fd90620034b8565b6001600160a01b03861630146200220a5760405162461bcd60e51b8152600401620006fd9062003515565b8a8514620022815760405162461bcd60e51b815260206004820152603960248201527f506f6c79676f6e5a6b45564d4272696467653a3a5f7065726d69743a2050455260448201527f4d49545f414d4f554e545f444f45535f4e4f545f4d41544348000000000000006064820152608401620006fd565b604080516001600160a01b0389811660248301528881166044830152606482018890526084820187905260ff861660a483015260c4820185905260e48083018590528351808403909101815261010490920183526020820180516001600160e01b031663d505accf60e01b1790529151918e169162002301919062002ff3565b6000604051808303816000865af19150503d806000811462002340576040519150601f19603f3d011682016040523d82523d6000602084013e62002345565b606091505b505050505050505050506200253a565b6001600160e01b031981166323f2ebc360e21b14620023cb5760405162461bcd60e51b815260206004820152602b60248201527f506f6c79676f6e5a6b45564d4272696467653a3a5f7065726d69743a204e4f5460448201526a17d59053125117d0d0531360aa1b6064820152608401620006fd565b600080808080808080620023e38a6004818e62003431565b810190620023f2919062003575565b97509750975097509750975097509750336001600160a01b0316886001600160a01b031614620024365760405162461bcd60e51b8152600401620006fd90620034b8565b6001600160a01b0387163014620024615760405162461bcd60e51b8152600401620006fd9062003515565b604080516001600160a01b038a811660248301528981166044830152606482018990526084820188905286151560a483015260ff861660c483015260e482018590526101048083018590528351808403909101815261012490920183526020820180516001600160e01b03166323f2ebc360e21b1790529151918f1691620024ea919062002ff3565b6000604051808303816000865af19150503d806000811462002529576040519150601f19603f3d011682016040523d82523d6000602084013e6200252e565b606091505b50505050505050505050505b5050505050565b6040516001600160a01b038085166024830152831660448201526064810182905262000d7c9085906323b872dd60e01b9060840162001ee1565b6000620025d2826040518060400160405280602081526020017f5361666545524332303a206c6f772d6c6576656c2063616c6c206661696c6564815250856001600160a01b03166200265b9092919063ffffffff16565b80519091501562001f195780806020019051810190620025f3919062003601565b62001f195760405162461bcd60e51b815260206004820152602a60248201527f5361666545524332303a204552433230206f7065726174696f6e20646964206e6044820152691bdd081cdd58d8d9595960b21b6064820152608401620006fd565b6020015190565b6060620009d2848460008585600080866001600160a01b0316858760405162002685919062002ff3565b60006040518083038185875af1925050503d8060008114620026c4576040519150601f19603f3d011682016040523d82523d6000602084013e620026c9565b606091505b5091509150620026dc87838387620026e7565b979650505050505050565b606083156200275b57825160000362002753576001600160a01b0385163b620027535760405162461bcd60e51b815260206004820152601d60248201527f416464726573733a2063616c6c20746f206e6f6e2d636f6e74726163740000006044820152606401620006fd565b5081620009d2565b620009d28383815115620027725781518083602001fd5b8060405162461bcd60e51b8152600401620006fd919062003621565b61154c806200363783390190565b6001600160a01b0381168114620015e057600080fd5b8035620027bf816200279c565b919050565b803563ffffffff81168114620027bf57600080fd5b60008083601f840112620027ec57600080fd5b50813567ffffffffffffffff8111156200280557600080fd5b6020830191508360208285010111156200281e57600080fd5b9250929050565b60008060008060008060a087890312156200283f57600080fd5b86356200284c816200279c565b95506200285c60208801620027c4565b945060408701356200286e816200279c565b935060608701359250608087013567ffffffffffffffff8111156200289257600080fd5b620028a089828a01620027d9565b979a9699509497509295939492505050565b60008060408385031215620028c657600080fd5b620028d183620027c4565b91506020830135620028e3816200279c565b809150509250929050565b6000602082840312156200290157600080fd5b5035919050565b6000602082840312156200291b57600080fd5b6200292682620027c4565b9392505050565b6000602082840312156200294057600080fd5b813562002926816200279c565b634e487b7160e01b600052604160045260246000fd5b604051601f8201601f1916810167ffffffffffffffff811182821017156200298f576200298f6200294d565b604052919050565b600082601f830112620029a957600080fd5b8135602067ffffffffffffffff821115620029c857620029c86200294d565b8160051b620029d982820162002963565b9283528481018201928281019087851115620029f457600080fd5b83870192505b84831015620026dc57823582529183019190830190620029fa565b6000806000806080858703121562002a2c57600080fd5b84359350602085013567ffffffffffffffff8082111562002a4c57600080fd5b62002a5a8883890162002997565b945060408701359150808216821462002a7257600080fd5b509396929550929360600135925050565b60ff81168114620015e057600080fd5b600080600080600080600060e0888a03121562002aaf57600080fd5b873562002abc8162002a83565b965062002acc60208901620027c4565b9550604088013562002ade816200279c565b945062002aee60608901620027c4565b9350608088013562002b00816200279c565b9699959850939692959460a0840135945060c09093013592915050565b600067ffffffffffffffff82111562002b3a5762002b3a6200294d565b50601f01601f191660200190565b600082601f83011262002b5a57600080fd5b813562002b7162002b6b8262002b1d565b62002963565b81815284602083860101111562002b8757600080fd5b816020850160208301376000918101602001919091529392505050565b6000806000806000806000806000806101408b8d03121562002bc557600080fd5b8a3567ffffffffffffffff8082111562002bde57600080fd5b62002bec8e838f0162002997565b9b5062002bfc60208e01620027c4565b9a5060408d0135995060608d0135985062002c1a60808e01620027c4565b975062002c2a60a08e01620027b2565b965062002c3a60c08e01620027c4565b955062002c4a60e08e01620027b2565b94506101008d013593506101208d013591508082111562002c6a57600080fd5b5062002c798d828e0162002b48565b9150509295989b9194979a5092959850565b60008060006060848603121562002ca157600080fd5b62002cac84620027c4565b9250602084013562002cbe816200279c565b9150604084013562002cd0816200279c565b809150509250925092565b600080600080600080600060a0888a03121562002cf757600080fd5b62002d0288620027c4565b9650602088013562002d14816200279c565b9550604088013567ffffffffffffffff8082111562002d3257600080fd5b62002d408b838c01620027d9565b909750955060608a013591508082111562002d5a57600080fd5b5062002d698a828b01620027d9565b909450925050608088013562002d7f8162002a83565b8091505092959891949750929550565b60008060006060848603121562002da557600080fd5b62002db084620027c4565b9250602084013562002dc2816200279c565b9150604084013567ffffffffffffffff81111562002ddf57600080fd5b62002ded8682870162002b48565b9150509250925092565b6020808252603d908201527f506f6c79676f6e5a6b45564d3a3a6f6e6c79506f6c79676f6e5a6b45564d3a2060408201527f6f6e6c7920506f6c79676f6e205a4b2d45564d20636f6e747261637474000000606082015260800190565b60e09290921b6001600160e01b031916825260601b6001600160601b031916600482015260180190565b634e487b7160e01b600052603260045260246000fd5b634e487b7160e01b600052601260045260246000fd5b634e487b7160e01b600052601160045260246000fd5b60008262002ed25762002ed262002e94565b500490565b60006001820162002eec5762002eec62002eaa565b5060010190565b60208082526042908201527f456d657267656e63794d616e616765723a3a69664e6f74456d657267656e637960408201527f53746174653a206f6e6c79206966206e6f7420656d657267656e637920737461606082015261746560f01b608082015260a00190565b60005b8381101562002f7857818101518382015260200162002f5e565b8381111562000d7c5750506000910152565b6000815180845262002fa481602086016020860162002f5b565b601f01601f19169290920160200192915050565b6001600160a01b038416815263ffffffff8316602082015260606040820181905260009062002fea9083018462002f8a565b95945050505050565b600082516200300781846020870162002f5b565b9190910192915050565b63ffffffff95861681529390941660208401526001600160a01b039182166040840152166060820152608081019190915260a00190565b600082601f8301126200305a57600080fd5b81516200306b62002b6b8262002b1d565b8181528460208386010111156200308157600080fd5b620009d282602083016020870162002f5b565b600080600060608486031215620030aa57600080fd5b835167ffffffffffffffff80821115620030c357600080fd5b620030d18783880162003048565b94506020860151915080821115620030e857600080fd5b50620030f78682870162003048565b925050604084015162002cd08162002a83565b6060815260006200311f606083018662002f8a565b828103602084015262003133818662002f8a565b91505060ff83166040830152949350505050565b60008262003159576200315962002e94565b500690565b81835281816020850137506000828201602090810191909152601f909101601f19169091010190565b6060815260006200319d6060830187896200315e565b8281036020840152620031b28186886200315e565b91505060ff831660408301529695505050505050565b60008351620031dc81846020880162002f5b565b835190830190620031f281836020880162002f5b565b01949350505050565b60ff8916815263ffffffff88811660208301526001600160a01b03888116604084015287821660608401528616608083015260a0820185905261010060c083018190526000916200324f8483018762002f8a565b925080851660e085015250509998505050505050505050565b6000602082840312156200327b57600080fd5b815167ffffffffffffffff8111156200329357600080fd5b620009d28482850162003048565b600060208284031215620032b457600080fd5b8151620029268162002a83565b600060208284031215620032d457600080fd5b5051919050565b600181815b808511156200331c57816000190482111562003300576200330062002eaa565b808516156200330e57918102915b93841c9390800290620032e0565b509250929050565b6000826200333557506001620007a4565b816200334457506000620007a4565b81600181146200335d5760028114620033685762003388565b6001915050620007a4565b60ff8411156200337c576200337c62002eaa565b50506001821b620007a4565b5060208310610133831016604e8410600b8410161715620033ad575081810a620007a4565b620033b98383620032db565b8060001904821115620033d057620033d062002eaa565b029392505050565b600062002926838362003324565b600082821015620033fb57620033fb62002eaa565b500390565b6000821982111562003416576200341662002eaa565b500190565b634e487b7160e01b600052600160045260246000fd5b600080858511156200344257600080fd5b838611156200345057600080fd5b5050820193919092039150565b600080600080600080600060e0888a0312156200347957600080fd5b873562003486816200279c565b9650602088013562003498816200279c565b95506040880135945060608801359350608088013562002b008162002a83565b6020808252603c908201527f506f6c79676f6e5a6b45564d4272696467653a3a5f7065726d69743a2050455260408201527f4d49545f4f574e45525f4d5553545f42455f5448455f53454e44455200000000606082015260800190565b60208082526031908201527f506f6c79676f6e5a6b45564d4272696467653a3a5f7065726d69743a205350456040820152704e4445525f4d5553545f42455f5448495360781b606082015260800190565b8015158114620015e057600080fd5b600080600080600080600080610100898b0312156200359357600080fd5b8835620035a0816200279c565b97506020890135620035b2816200279c565b965060408901359550606089013594506080890135620035d28162003566565b935060a0890135620035e48162002a83565b979a969950949793969295929450505060c08201359160e0013590565b6000602082840312156200361457600080fd5b8151620029268162003566565b60208152600062002926602083018462002f8a56fe60c06040523480156200001157600080fd5b506040516200154c3803806200154c8339810160408190526200003491620002ad565b82826003620000448382620003c1565b506004620000538282620003c1565b5050600580546001600160a81b0319163360ff60a01b191617600160a01b60ff851602179055504660808190526200008b9062000098565b60a052506200048d915050565b60007f8b73c3c69bb8fe3d512ecc4cf759cc79239f7b179b0ffacaa9a75d522b39400f620000c562000146565b805160209182012060408051808201825260018152603160f81b90840152805192830193909352918101919091527fc89efdaa54c0f20c7adf612882df0950f5a951637e0307cdcb4c672f298b8bc66060820152608081018390523060a082015260c001604051602081830303815290604052805190602001209050919050565b606060038054620001579062000332565b80601f0160208091040260200160405190810160405280929190818152602001828054620001859062000332565b8015620001d65780601f10620001aa57610100808354040283529160200191620001d6565b820191906000526020600020905b815481529060010190602001808311620001b857829003601f168201915b5050505050905090565b634e487b7160e01b600052604160045260246000fd5b600082601f8301126200020857600080fd5b81516001600160401b0380821115620002255762000225620001e0565b604051601f8301601f19908116603f01168101908282118183101715620002505762000250620001e0565b816040528381526020925086838588010111156200026d57600080fd5b600091505b8382101562000291578582018301518183018401529082019062000272565b83821115620002a35760008385830101525b9695505050505050565b600080600060608486031215620002c357600080fd5b83516001600160401b0380821115620002db57600080fd5b620002e987838801620001f6565b945060208601519150808211156200030057600080fd5b506200030f86828701620001f6565b925050604084015160ff811681146200032757600080fd5b809150509250925092565b600181811c908216806200034757607f821691505b6020821081036200036857634e487b7160e01b600052602260045260246000fd5b50919050565b601f821115620003bc57600081815260208120601f850160051c81016020861015620003975750805b601f850160051c820191505b81811015620003b857828155600101620003a3565b5050505b505050565b81516001600160401b03811115620003dd57620003dd620001e0565b620003f581620003ee845462000332565b846200036e565b602080601f8311600181146200042d5760008415620004145750858301515b600019600386901b1c1916600185901b178555620003b8565b600085815260208120601f198616915b828110156200045e578886015182559484019460019091019084016200043d565b50858210156200047d5787850151600019600388901b60f8161c191681555b5050505050600190811b01905550565b60805160a051611092620004ba60003960006104690152600081816102f9015261043301526110926000f3fe608060405234801561001057600080fd5b50600436106101375760003560e01c806370a08231116100b8578063a457c2d71161007c578063a457c2d7146102ce578063a9059cbb146102e1578063cd0d0096146102f4578063d505accf1461031b578063dd62ed3e1461032e578063ffa1ad741461034157600080fd5b806370a082311461023f5780637ecebe001461026857806395d89b41146102885780639dc29fac14610290578063a3c573eb146102a357600080fd5b806330adf81f116100ff57806330adf81f146101c9578063313ce567146101f05780633644e5151461020f578063395093511461021757806340c10f191461022a57600080fd5b806306fdde031461013c578063095ea7b31461015a57806318160ddd1461017d57806320606b701461018f57806323b872dd146101b6575b600080fd5b610144610361565b6040516101519190610df8565b60405180910390f35b61016d610168366004610e69565b6103f3565b6040519015158152602001610151565b6002545b604051908152602001610151565b6101817f8b73c3c69bb8fe3d512ecc4cf759cc79239f7b179b0ffacaa9a75d522b39400f81565b61016d6101c4366004610e93565b61040b565b6101817f6e71edae12b1b97f4d1f60370fef10105fa2faae0126114a169c64845d6126c981565b600554600160a01b900460ff1660405160ff9091168152602001610151565b61018161042f565b61016d610225366004610e69565b61048b565b61023d610238366004610e69565b6104ad565b005b61018161024d366004610ecf565b6001600160a01b031660009081526020819052604090205490565b610181610276366004610ecf565b60066020526000908152604090205481565b6101446104ee565b61023d61029e366004610e69565b6104fd565b6005546102b6906001600160a01b031681565b6040516001600160a01b039091168152602001610151565b61016d6102dc366004610e69565b610531565b61016d6102ef366004610e69565b6105ac565b6101817f000000000000000000000000000000000000000000000000000000000000000081565b61023d610329366004610ef1565b6105ba565b61018161033c366004610f64565b6107f5565b610144604051806040016040528060018152602001603160f81b81525081565b60606003805461037090610f97565b80601f016020809104026020016040519081016040528092919081815260200182805461039c90610f97565b80156103e95780601f106103be576101008083540402835291602001916103e9565b820191906000526020600020905b8154815290600101906020018083116103cc57829003601f168201915b5050505050905090565b600033610401818585610820565b5060019392505050565b600033610419858285610945565b6104248585856109bf565b506001949350505050565b60007f000000000000000000000000000000000000000000000000000000000000000046146104665761046146610b63565b905090565b507f000000000000000000000000000000000000000000000000000000000000000090565b60003361040181858561049e83836107f5565b6104a89190610fe7565b610820565b6005546001600160a01b031633146104e05760405162461bcd60e51b81526004016104d790610fff565b60405180910390fd5b6104ea8282610c0f565b5050565b60606004805461037090610f97565b6005546001600160a01b031633146105275760405162461bcd60e51b81526004016104d790610fff565b6104ea8282610cce565b6000338161053f82866107f5565b90508381101561059f5760405162461bcd60e51b815260206004820152602560248201527f45524332303a2064656372656173656420616c6c6f77616e63652062656c6f77604482015264207a65726f60d81b60648201526084016104d7565b6104248286868403610820565b6000336104018185856109bf565b834211156106165760405162461bcd60e51b8152602060048201526024808201527f546f6b656e577261707065643a3a7065726d69743a20457870697265642070656044820152631c9b5a5d60e21b60648201526084016104d7565b6001600160a01b038716600090815260066020526040812080547f6e71edae12b1b97f4d1f60370fef10105fa2faae0126114a169c64845d6126c9918a918a918a91908661066383611043565b909155506040805160208101969096526001600160a01b0394851690860152929091166060840152608083015260a082015260c0810186905260e00160405160208183030381529060405280519060200120905060006106c161042f565b60405161190160f01b602082015260228101919091526042810183905260620160408051601f198184030181528282528051602091820120600080855291840180845281905260ff89169284019290925260608301879052608083018690529092509060019060a0016020604051602081039080840390855afa15801561074c573d6000803e3d6000fd5b5050604051601f1901519150506001600160a01b038116158015906107825750896001600160a01b0316816001600160a01b0316145b6107de5760405162461bcd60e51b815260206004820152602760248201527f546f6b656e577261707065643a3a7065726d69743a20496e76616c6964207369604482015266676e617475726560c81b60648201526084016104d7565b6107e98a8a8a610820565b50505050505050505050565b6001600160a01b03918216600090815260016020908152604080832093909416825291909152205490565b6001600160a01b0383166108825760405162461bcd60e51b8152602060048201526024808201527f45524332303a20617070726f76652066726f6d20746865207a65726f206164646044820152637265737360e01b60648201526084016104d7565b6001600160a01b0382166108e35760405162461bcd60e51b815260206004820152602260248201527f45524332303a20617070726f766520746f20746865207a65726f206164647265604482015261737360f01b60648201526084016104d7565b6001600160a01b0383811660008181526001602090815260408083209487168084529482529182902085905590518481527f8c5be1e5ebec7d5bd14f71427d1e84f3dd0314c0f7b2291e5b200ac8c7c3b92591015b60405180910390a3505050565b600061095184846107f5565b905060001981146109b957818110156109ac5760405162461bcd60e51b815260206004820152601d60248201527f45524332303a20696e73756666696369656e7420616c6c6f77616e636500000060448201526064016104d7565b6109b98484848403610820565b50505050565b6001600160a01b038316610a235760405162461bcd60e51b815260206004820152602560248201527f45524332303a207472616e736665722066726f6d20746865207a65726f206164604482015264647265737360d81b60648201526084016104d7565b6001600160a01b038216610a855760405162461bcd60e51b815260206004820152602360248201527f45524332303a207472616e7366657220746f20746865207a65726f206164647260448201526265737360e81b60648201526084016104d7565b6001600160a01b03831660009081526020819052604090205481811015610afd5760405162461bcd60e51b815260206004820152602660248201527f45524332303a207472616e7366657220616d6f756e7420657863656564732062604482015265616c616e636560d01b60648201526084016104d7565b6001600160a01b03848116600081815260208181526040808320878703905593871680835291849020805487019055925185815290927fddf252ad1be2c89b69c2b068fc378daa952ba7f163c4a11628f55a4df523b3ef910160405180910390a36109b9565b60007f8b73c3c69bb8fe3d512ecc4cf759cc79239f7b179b0ffacaa9a75d522b39400f610b8e610361565b805160209182012060408051808201825260018152603160f81b90840152805192830193909352918101919091527fc89efdaa54c0f20c7adf612882df0950f5a951637e0307cdcb4c672f298b8bc66060820152608081018390523060a082015260c001604051602081830303815290604052805190602001209050919050565b6001600160a01b038216610c655760405162461bcd60e51b815260206004820152601f60248201527f45524332303a206d696e7420746f20746865207a65726f20616464726573730060448201526064016104d7565b8060026000828254610c779190610fe7565b90915550506001600160a01b038216600081815260208181526040808320805486019055518481527fddf252ad1be2c89b69c2b068fc378daa952ba7f163c4a11628f55a4df523b3ef910160405180910390a35050565b6001600160a01b038216610d2e5760405162461bcd60e51b815260206004820152602160248201527f45524332303a206275726e2066726f6d20746865207a65726f206164647265736044820152607360f81b60648201526084016104d7565b6001600160a01b03821660009081526020819052604090205481811015610da25760405162461bcd60e51b815260206004820152602260248201527f45524332303a206275726e20616d6f756e7420657863656564732062616c616e604482015261636560f01b60648201526084016104d7565b6001600160a01b0383166000818152602081815260408083208686039055600280548790039055518581529192917fddf252ad1be2c89b69c2b068fc378daa952ba7f163c4a11628f55a4df523b3ef9101610938565b600060208083528351808285015260005b81811015610e2557858101830151858201604001528201610e09565b81811115610e37576000604083870101525b50601f01601f1916929092016040019392505050565b80356001600160a01b0381168114610e6457600080fd5b919050565b60008060408385031215610e7c57600080fd5b610e8583610e4d565b946020939093013593505050565b600080600060608486031215610ea857600080fd5b610eb184610e4d565b9250610ebf60208501610e4d565b9150604084013590509250925092565b600060208284031215610ee157600080fd5b610eea82610e4d565b9392505050565b600080600080600080600060e0888a031215610f0c57600080fd5b610f1588610e4d565b9650610f2360208901610e4d565b95506040880135945060608801359350608088013560ff81168114610f4757600080fd5b9699959850939692959460a0840135945060c09093013592915050565b60008060408385031215610f7757600080fd5b610f8083610e4d565b9150610f8e60208401610e4d565b90509250929050565b600181811c90821680610fab57607f821691505b602082108103610fcb57634e487b7160e01b600052602260045260246000fd5b50919050565b634e487b7160e01b600052601160045260246000fd5b60008219821115610ffa57610ffa610fd1565b500190565b60208082526024908201527f546f6b656e577261707065643a3a6f6e6c794272696467653a204e4f545f42526040820152634944474560e01b606082015260800190565b60006001820161105557611055610fd1565b506001019056fea264697066735822122048db6a6222fa164d21a8fcb1cd25d2a9e0eee016393c37dcc7b7fd638ef787c264736f6c634300080f0033506f6c79676f6e5a6b45564d4272696467653a3a5f7665726966794c6561663aa2646970667358221220a5b71a417bea46acd4ec131da2522d11df4c3b93e7a5699cc63e19824f588e4164736f6c634300080f0033",
  "linkReferences": {},
  "deployedLinkReferences": {}
}