{
  "_format": "hh-sol-artifact-1",
  "contractName": "PolygonZkEVM",
  "sourceName": "contracts/PolygonZkEVM.sol",
  "abi": [
    {
      "anonymous": false,
      "inputs": [
        {
          "indexed": false,
          "internalType": "address",
          "name": "newAdmin",
          "type": "address"
        }
      ],
      "name": "AcceptAdminRole",
      "type": "event"
    },
    {
      "anonymous": false,
      "inputs": [
        {
          "indexed": true,
          "internalType": "uint64",
          "name": "numBatch",
          "type": "uint64"
        },
        {
          "indexed": false,
          "internalType": "bytes32",
          "name": "stateRoot",
          "type": "bytes32"
        },
        {
          "indexed": true,
          "internalType": "uint64",
          "name": "pendingStateNum",
          "type": "uint64"
        }
      ],
      "name": "ConsolidatePendingState",
      "type": "event"
    },
    {
      "anonymous": false,
      "inputs": [],
      "name": "EmergencyStateActivated",
      "type": "event"
    },
    {
      "anonymous": false,
      "inputs": [],
      "name": "EmergencyStateDeactivated",
      "type": "event"
    },
    {
      "anonymous": false,
      "inputs": [
        {
          "indexed": true,
          "internalType": "uint64",
          "name": "forceBatchNum",
          "type": "uint64"
        },
        {
          "indexed": false,
          "internalType": "bytes32",
          "name": "lastGlobalExitRoot",
          "type": "bytes32"
        },
        {
          "indexed": false,
          "internalType": "address",
          "name": "sequencer",
          "type": "address"
        },
        {
          "indexed": false,
          "internalType": "bytes",
          "name": "transactions",
          "type": "bytes"
        }
      ],
      "name": "ForceBatch",
      "type": "event"
    },
    {
      "anonymous": false,
      "inputs": [
        {
          "indexed": false,
          "internalType": "uint8",
          "name": "version",
          "type": "uint8"
        }
      ],
      "name": "Initialized",
      "type": "event"
    },
    {
      "anonymous": false,
      "inputs": [
        {
          "indexed": true,
          "internalType": "uint64",
          "name": "numBatch",
          "type": "uint64"
        },
        {
          "indexed": false,
          "internalType": "bytes32",
          "name": "stateRoot",
          "type": "bytes32"
        },
        {
          "indexed": true,
          "internalType": "address",
          "name": "aggregator",
          "type": "address"
        }
      ],
      "name": "OverridePendingState",
      "type": "event"
    },
    {
      "anonymous": false,
      "inputs": [
        {
          "indexed": true,
          "internalType": "address",
          "name": "previousOwner",
          "type": "address"
        },
        {
          "indexed": true,
          "internalType": "address",
          "name": "newOwner",
          "type": "address"
        }
      ],
      "name": "OwnershipTransferred",
      "type": "event"
    },
    {
      "anonymous": false,
      "inputs": [
        {
          "indexed": false,
          "internalType": "bytes32",
          "name": "storedStateRoot",
          "type": "bytes32"
        },
        {
          "indexed": false,
          "internalType": "bytes32",
          "name": "provedStateRoot",
          "type": "bytes32"
        }
      ],
      "name": "ProveNonDeterministicPendingState",
      "type": "event"
    },
    {
      "anonymous": false,
      "inputs": [
        {
          "indexed": true,
          "internalType": "uint64",
          "name": "numBatch",
          "type": "uint64"
        }
      ],
      "name": "SequenceBatches",
      "type": "event"
    },
    {
      "anonymous": false,
      "inputs": [
        {
          "indexed": true,
          "internalType": "uint64",
          "name": "numBatch",
          "type": "uint64"
        }
      ],
      "name": "SequenceForceBatches",
      "type": "event"
    },
    {
      "anonymous": false,
      "inputs": [
        {
          "indexed": false,
          "internalType": "bool",
          "name": "newForceBatchAllowed",
          "type": "bool"
        }
      ],
      "name": "SetForceBatchAllowed",
      "type": "event"
    },
    {
      "anonymous": false,
      "inputs": [
        {
          "indexed": false,
          "internalType": "uint16",
          "name": "newMultiplierBatchFee",
          "type": "uint16"
        }
      ],
      "name": "SetMultiplierBatchFee",
      "type": "event"
    },
    {
      "anonymous": false,
      "inputs": [
        {
          "indexed": false,
          "internalType": "uint64",
          "name": "newPendingStateTimeout",
          "type": "uint64"
        }
      ],
      "name": "SetPendingStateTimeout",
      "type": "event"
    },
    {
      "anonymous": false,
      "inputs": [
        {
          "indexed": false,
          "internalType": "address",
          "name": "newTrustedAggregator",
          "type": "address"
        }
      ],
      "name": "SetTrustedAggregator",
      "type": "event"
    },
    {
      "anonymous": false,
      "inputs": [
        {
          "indexed": false,
          "internalType": "uint64",
          "name": "newTrustedAggregatorTimeout",
          "type": "uint64"
        }
      ],
      "name": "SetTrustedAggregatorTimeout",
      "type": "event"
    },
    {
      "anonymous": false,
      "inputs": [
        {
          "indexed": false,
          "internalType": "address",
          "name": "newTrustedSequencer",
          "type": "address"
        }
      ],
      "name": "SetTrustedSequencer",
      "type": "event"
    },
    {
      "anonymous": false,
      "inputs": [
        {
          "indexed": false,
          "internalType": "string",
          "name": "newTrustedSequencerURL",
          "type": "string"
        }
      ],
      "name": "SetTrustedSequencerURL",
      "type": "event"
    },
    {
      "anonymous": false,
      "inputs": [
        {
          "indexed": false,
          "internalType": "uint64",
          "name": "newVeryBatchTimeTarget",
          "type": "uint64"
        }
      ],
      "name": "SetVeryBatchTimeTarget",
      "type": "event"
    },
    {
      "anonymous": false,
      "inputs": [
        {
          "indexed": false,
          "internalType": "address",
          "name": "newPendingAdmin",
          "type": "address"
        }
      ],
      "name": "TransferAdminRole",
      "type": "event"
    },
    {
      "anonymous": false,
      "inputs": [
        {
          "indexed": true,
          "internalType": "uint64",
          "name": "numBatch",
          "type": "uint64"
        },
        {
          "indexed": false,
          "internalType": "bytes32",
          "name": "stateRoot",
          "type": "bytes32"
        },
        {
          "indexed": true,
          "internalType": "address",
          "name": "aggregator",
          "type": "address"
        }
      ],
      "name": "TrustedVerifyBatches",
      "type": "event"
    },
    {
      "anonymous": false,
      "inputs": [
        {
          "indexed": true,
          "internalType": "uint64",
          "name": "numBatch",
          "type": "uint64"
        },
        {
          "indexed": false,
          "internalType": "bytes32",
          "name": "stateRoot",
          "type": "bytes32"
        },
        {
          "indexed": true,
          "internalType": "address",
          "name": "aggregator",
          "type": "address"
        }
      ],
      "name": "VerifyBatches",
      "type": "event"
    },
    {
      "inputs": [],
      "name": "FORCE_BATCH_TIMEOUT",
      "outputs": [
        {
          "internalType": "uint64",
          "name": "",
          "type": "uint64"
        }
      ],
      "stateMutability": "view",
      "type": "function"
    },
    {
      "inputs": [],
      "name": "HALT_AGGREGATION_TIMEOUT",
      "outputs": [
        {
          "internalType": "uint64",
          "name": "",
          "type": "uint64"
        }
      ],
      "stateMutability": "view",
      "type": "function"
    },
    {
      "inputs": [],
      "name": "MAX_BATCH_MULTIPLIER",
      "outputs": [
        {
          "internalType": "uint256",
          "name": "",
          "type": "uint256"
        }
      ],
      "stateMutability": "view",
      "type": "function"
    },
    {
      "inputs": [],
      "name": "MAX_TRANSACTIONS_BYTE_LENGTH",
      "outputs": [
        {
          "internalType": "uint256",
          "name": "",
          "type": "uint256"
        }
      ],
      "stateMutability": "view",
      "type": "function"
    },
    {
      "inputs": [],
      "name": "MAX_VERIFY_BATCHES",
      "outputs": [
        {
          "internalType": "uint64",
          "name": "",
          "type": "uint64"
        }
      ],
      "stateMutability": "view",
      "type": "function"
    },
    {
      "inputs": [],
      "name": "acceptAdminRole",
      "outputs": [],
      "stateMutability": "nonpayable",
      "type": "function"
    },
    {
      "inputs": [
        {
          "internalType": "uint64",
          "name": "sequencedBatchNum",
          "type": "uint64"
        }
      ],
      "name": "activateEmergencyState",
      "outputs": [],
      "stateMutability": "nonpayable",
      "type": "function"
    },
    {
      "inputs": [],
      "name": "admin",
      "outputs": [
        {
          "internalType": "address",
          "name": "",
          "type": "address"
        }
      ],
      "stateMutability": "view",
      "type": "function"
    },
    {
      "inputs": [],
      "name": "batchFee",
      "outputs": [
        {
          "internalType": "uint256",
          "name": "",
          "type": "uint256"
        }
      ],
      "stateMutability": "view",
      "type": "function"
    },
    {
      "inputs": [
        {
          "internalType": "uint64",
          "name": "",
          "type": "uint64"
        }
      ],
      "name": "batchNumToStateRoot",
      "outputs": [
        {
          "internalType": "bytes32",
          "name": "",
          "type": "bytes32"
        }
      ],
      "stateMutability": "view",
      "type": "function"
    },
    {
      "inputs": [],
      "name": "bridgeAddress",
      "outputs": [
        {
          "internalType": "contract IPolygonZkEVMBridge",
          "name": "",
          "type": "address"
        }
      ],
      "stateMutability": "view",
      "type": "function"
    },
    {
      "inputs": [],
      "name": "calculateRewardPerBatch",
      "outputs": [
        {
          "internalType": "uint256",
          "name": "",
          "type": "uint256"
        }
      ],
      "stateMutability": "view",
      "type": "function"
    },
    {
      "inputs": [],
      "name": "chainID",
      "outputs": [
        {
          "internalType": "uint64",
          "name": "",
          "type": "uint64"
        }
      ],
      "stateMutability": "view",
      "type": "function"
    },
    {
      "inputs": [
        {
          "internalType": "uint64",
          "name": "pendingStateNum",
          "type": "uint64"
        }
      ],
      "name": "consolidatePendingState",
      "outputs": [],
      "stateMutability": "nonpayable",
      "type": "function"
    },
    {
      "inputs": [],
      "name": "deactivateEmergencyState",
      "outputs": [],
      "stateMutability": "nonpayable",
      "type": "function"
    },
    {
      "inputs": [
        {
          "internalType": "bytes",
          "name": "transactions",
          "type": "bytes"
        },
        {
          "internalType": "uint256",
          "name": "maticAmount",
          "type": "uint256"
        }
      ],
      "name": "forceBatch",
      "outputs": [],
      "stateMutability": "nonpayable",
      "type": "function"
    },
    {
      "inputs": [],
      "name": "forceBatchAllowed",
      "outputs": [
        {
          "internalType": "bool",
          "name": "",
          "type": "bool"
        }
      ],
      "stateMutability": "view",
      "type": "function"
    },
    {
      "inputs": [
        {
          "internalType": "uint64",
          "name": "",
          "type": "uint64"
        }
      ],
      "name": "forcedBatches",
      "outputs": [
        {
          "internalType": "bytes32",
          "name": "",
          "type": "bytes32"
        }
      ],
      "stateMutability": "view",
      "type": "function"
    },
    {
      "inputs": [],
      "name": "getCurrentBatchFee",
      "outputs": [
        {
          "internalType": "uint256",
          "name": "",
          "type": "uint256"
        }
      ],
      "stateMutability": "view",
      "type": "function"
    },
    {
      "inputs": [
        {
          "internalType": "uint64",
          "name": "initNumBatch",
          "type": "uint64"
        },
        {
          "internalType": "uint64",
          "name": "finalNewBatch",
          "type": "uint64"
        },
        {
          "internalType": "bytes32",
          "name": "newLocalExitRoot",
          "type": "bytes32"
        },
        {
          "internalType": "bytes32",
          "name": "oldStateRoot",
          "type": "bytes32"
        },
        {
          "internalType": "bytes32",
          "name": "newStateRoot",
          "type": "bytes32"
        }
      ],
      "name": "getInputSnarkBytes",
      "outputs": [
        {
          "internalType": "bytes",
          "name": "",
          "type": "bytes"
        }
      ],
      "stateMutability": "view",
      "type": "function"
    },
    {
      "inputs": [],
      "name": "getLastVerifiedBatch",
      "outputs": [
        {
          "internalType": "uint64",
          "name": "",
          "type": "uint64"
        }
      ],
      "stateMutability": "view",
      "type": "function"
    },
    {
      "inputs": [],
      "name": "globalExitRootManager",
      "outputs": [
        {
          "internalType": "contract IPolygonZkEVMGlobalExitRoot",
          "name": "",
          "type": "address"
        }
      ],
      "stateMutability": "view",
      "type": "function"
    },
    {
      "inputs": [
        {
          "internalType": "contract IPolygonZkEVMGlobalExitRoot",
          "name": "_globalExitRootManager",
          "type": "address"
        },
        {
          "internalType": "contract IERC20Upgradeable",
          "name": "_matic",
          "type": "address"
        },
        {
          "internalType": "contract IVerifierRollup",
          "name": "_rollupVerifier",
          "type": "address"
        },
        {
          "internalType": "contract IPolygonZkEVMBridge",
          "name": "_bridgeAddress",
          "type": "address"
        },
        {
          "components": [
            {
              "internalType": "address",
              "name": "admin",
              "type": "address"
            },
            {
              "internalType": "uint64",
              "name": "chainID",
              "type": "uint64"
            },
            {
              "internalType": "address",
              "name": "trustedSequencer",
              "type": "address"
            },
            {
              "internalType": "uint64",
              "name": "pendingStateTimeout",
              "type": "uint64"
            },
            {
              "internalType": "bool",
              "name": "forceBatchAllowed",
              "type": "bool"
            },
            {
              "internalType": "address",
              "name": "trustedAggregator",
              "type": "address"
            },
            {
              "internalType": "uint64",
              "name": "trustedAggregatorTimeout",
              "type": "uint64"
            }
          ],
          "internalType": "struct PolygonZkEVM.InitializePackedParameters",
          "name": "initializePackedParameters",
          "type": "tuple"
        },
        {
          "internalType": "bytes32",
          "name": "genesisRoot",
          "type": "bytes32"
        },
        {
          "internalType": "string",
          "name": "_trustedSequencerURL",
          "type": "string"
        },
        {
          "internalType": "string",
          "name": "_networkName",
          "type": "string"
        }
      ],
      "name": "initialize",
      "outputs": [],
      "stateMutability": "nonpayable",
      "type": "function"
    },
    {
      "inputs": [],
      "name": "isEmergencyState",
      "outputs": [
        {
          "internalType": "bool",
          "name": "",
          "type": "bool"
        }
      ],
      "stateMutability": "view",
      "type": "function"
    },
    {
      "inputs": [
        {
          "internalType": "uint64",
          "name": "pendingStateNum",
          "type": "uint64"
        }
      ],
      "name": "isPendingStateConsolidable",
      "outputs": [
        {
          "internalType": "bool",
          "name": "",
          "type": "bool"
        }
      ],
      "stateMutability": "view",
      "type": "function"
    },
    {
      "inputs": [],
      "name": "lastBatchSequenced",
      "outputs": [
        {
          "internalType": "uint64",
          "name": "",
          "type": "uint64"
        }
      ],
      "stateMutability": "view",
      "type": "function"
    },
    {
      "inputs": [],
      "name": "lastForceBatch",
      "outputs": [
        {
          "internalType": "uint64",
          "name": "",
          "type": "uint64"
        }
      ],
      "stateMutability": "view",
      "type": "function"
    },
    {
      "inputs": [],
      "name": "lastForceBatchSequenced",
      "outputs": [
        {
          "internalType": "uint64",
          "name": "",
          "type": "uint64"
        }
      ],
      "stateMutability": "view",
      "type": "function"
    },
    {
      "inputs": [],
      "name": "lastPendingState",
      "outputs": [
        {
          "internalType": "uint64",
          "name": "",
          "type": "uint64"
        }
      ],
      "stateMutability": "view",
      "type": "function"
    },
    {
      "inputs": [],
      "name": "lastPendingStateConsolidated",
      "outputs": [
        {
          "internalType": "uint64",
          "name": "",
          "type": "uint64"
        }
      ],
      "stateMutability": "view",
      "type": "function"
    },
    {
      "inputs": [],
      "name": "lastTimestamp",
      "outputs": [
        {
          "internalType": "uint64",
          "name": "",
          "type": "uint64"
        }
      ],
      "stateMutability": "view",
      "type": "function"
    },
    {
      "inputs": [],
      "name": "lastVerifiedBatch",
      "outputs": [
        {
          "internalType": "uint64",
          "name": "",
          "type": "uint64"
        }
      ],
      "stateMutability": "view",
      "type": "function"
    },
    {
      "inputs": [],
      "name": "matic",
      "outputs": [
        {
          "internalType": "contract IERC20Upgradeable",
          "name": "",
          "type": "address"
        }
      ],
      "stateMutability": "view",
      "type": "function"
    },
    {
      "inputs": [],
      "name": "multiplierBatchFee",
      "outputs": [
        {
          "internalType": "uint16",
          "name": "",
          "type": "uint16"
        }
      ],
      "stateMutability": "view",
      "type": "function"
    },
    {
      "inputs": [],
      "name": "networkName",
      "outputs": [
        {
          "internalType": "string",
          "name": "",
          "type": "string"
        }
      ],
      "stateMutability": "view",
      "type": "function"
    },
    {
      "inputs": [
        {
          "internalType": "uint64",
          "name": "initPendingStateNum",
          "type": "uint64"
        },
        {
          "internalType": "uint64",
          "name": "finalPendingStateNum",
          "type": "uint64"
        },
        {
          "internalType": "uint64",
          "name": "initNumBatch",
          "type": "uint64"
        },
        {
          "internalType": "uint64",
          "name": "finalNewBatch",
          "type": "uint64"
        },
        {
          "internalType": "bytes32",
          "name": "newLocalExitRoot",
          "type": "bytes32"
        },
        {
          "internalType": "bytes32",
          "name": "newStateRoot",
          "type": "bytes32"
        },
        {
          "internalType": "uint256[2]",
          "name": "proofA",
          "type": "uint256[2]"
        },
        {
          "internalType": "uint256[2][2]",
          "name": "proofB",
          "type": "uint256[2][2]"
        },
        {
          "internalType": "uint256[2]",
          "name": "proofC",
          "type": "uint256[2]"
        }
      ],
      "name": "overridePendingState",
      "outputs": [],
      "stateMutability": "nonpayable",
      "type": "function"
    },
    {
      "inputs": [],
      "name": "owner",
      "outputs": [
        {
          "internalType": "address",
          "name": "",
          "type": "address"
        }
      ],
      "stateMutability": "view",
      "type": "function"
    },
    {
      "inputs": [],
      "name": "pendingAdmin",
      "outputs": [
        {
          "internalType": "address",
          "name": "",
          "type": "address"
        }
      ],
      "stateMutability": "view",
      "type": "function"
    },
    {
      "inputs": [],
      "name": "pendingStateTimeout",
      "outputs": [
        {
          "internalType": "uint64",
          "name": "",
          "type": "uint64"
        }
      ],
      "stateMutability": "view",
      "type": "function"
    },
    {
      "inputs": [
        {
          "internalType": "uint256",
          "name": "",
          "type": "uint256"
        }
      ],
      "name": "pendingStateTransitions",
      "outputs": [
        {
          "internalType": "uint64",
          "name": "timestamp",
          "type": "uint64"
        },
        {
          "internalType": "uint64",
          "name": "lastVerifiedBatch",
          "type": "uint64"
        },
        {
          "internalType": "bytes32",
          "name": "exitRoot",
          "type": "bytes32"
        },
        {
          "internalType": "bytes32",
          "name": "stateRoot",
          "type": "bytes32"
        }
      ],
      "stateMutability": "view",
      "type": "function"
    },
    {
      "inputs": [
        {
          "internalType": "uint64",
          "name": "initPendingStateNum",
          "type": "uint64"
        },
        {
          "internalType": "uint64",
          "name": "finalPendingStateNum",
          "type": "uint64"
        },
        {
          "internalType": "uint64",
          "name": "initNumBatch",
          "type": "uint64"
        },
        {
          "internalType": "uint64",
          "name": "finalNewBatch",
          "type": "uint64"
        },
        {
          "internalType": "bytes32",
          "name": "newLocalExitRoot",
          "type": "bytes32"
        },
        {
          "internalType": "bytes32",
          "name": "newStateRoot",
          "type": "bytes32"
        },
        {
          "internalType": "uint256[2]",
          "name": "proofA",
          "type": "uint256[2]"
        },
        {
          "internalType": "uint256[2][2]",
          "name": "proofB",
          "type": "uint256[2][2]"
        },
        {
          "internalType": "uint256[2]",
          "name": "proofC",
          "type": "uint256[2]"
        }
      ],
      "name": "proveNonDeterministicPendingState",
      "outputs": [],
      "stateMutability": "nonpayable",
      "type": "function"
    },
    {
      "inputs": [],
      "name": "renounceOwnership",
      "outputs": [],
      "stateMutability": "nonpayable",
      "type": "function"
    },
    {
      "inputs": [],
      "name": "rollupVerifier",
      "outputs": [
        {
          "internalType": "contract IVerifierRollup",
          "name": "",
          "type": "address"
        }
      ],
      "stateMutability": "view",
      "type": "function"
    },
    {
      "inputs": [
        {
          "components": [
            {
              "internalType": "bytes",
              "name": "transactions",
              "type": "bytes"
            },
            {
              "internalType": "bytes32",
              "name": "globalExitRoot",
              "type": "bytes32"
            },
            {
              "internalType": "uint64",
              "name": "timestamp",
              "type": "uint64"
            },
            {
              "internalType": "uint64",
              "name": "minForcedTimestamp",
              "type": "uint64"
            }
          ],
          "internalType": "struct PolygonZkEVM.BatchData[]",
          "name": "batches",
          "type": "tuple[]"
        }
      ],
      "name": "sequenceBatches",
      "outputs": [],
      "stateMutability": "nonpayable",
      "type": "function"
    },
    {
      "inputs": [
        {
          "components": [
            {
              "internalType": "bytes",
              "name": "transactions",
              "type": "bytes"
            },
            {
              "internalType": "bytes32",
              "name": "globalExitRoot",
              "type": "bytes32"
            },
            {
              "internalType": "uint64",
              "name": "minForcedTimestamp",
              "type": "uint64"
            }
          ],
          "internalType": "struct PolygonZkEVM.ForcedBatchData[]",
          "name": "batches",
          "type": "tuple[]"
        }
      ],
      "name": "sequenceForceBatches",
      "outputs": [],
      "stateMutability": "nonpayable",
      "type": "function"
    },
    {
      "inputs": [
        {
          "internalType": "uint64",
          "name": "",
          "type": "uint64"
        }
      ],
      "name": "sequencedBatches",
      "outputs": [
        {
          "internalType": "bytes32",
          "name": "accInputHash",
          "type": "bytes32"
        },
        {
          "internalType": "uint64",
          "name": "sequencedTimestamp",
          "type": "uint64"
        },
        {
          "internalType": "uint64",
          "name": "previousLastBatchSequenced",
          "type": "uint64"
        }
      ],
      "stateMutability": "view",
      "type": "function"
    },
    {
      "inputs": [
        {
          "internalType": "bool",
          "name": "newForceBatchAllowed",
          "type": "bool"
        }
      ],
      "name": "setForceBatchAllowed",
      "outputs": [],
      "stateMutability": "nonpayable",
      "type": "function"
    },
    {
      "inputs": [
        {
          "internalType": "uint16",
          "name": "newMultiplierBatchFee",
          "type": "uint16"
        }
      ],
      "name": "setMultiplierBatchFee",
      "outputs": [],
      "stateMutability": "nonpayable",
      "type": "function"
    },
    {
      "inputs": [
        {
          "internalType": "uint64",
          "name": "newPendingStateTimeout",
          "type": "uint64"
        }
      ],
      "name": "setPendingStateTimeout",
      "outputs": [],
      "stateMutability": "nonpayable",
      "type": "function"
    },
    {
      "inputs": [
        {
          "internalType": "address",
          "name": "newTrustedAggregator",
          "type": "address"
        }
      ],
      "name": "setTrustedAggregator",
      "outputs": [],
      "stateMutability": "nonpayable",
      "type": "function"
    },
    {
      "inputs": [
        {
          "internalType": "uint64",
          "name": "newTrustedAggregatorTimeout",
          "type": "uint64"
        }
      ],
      "name": "setTrustedAggregatorTimeout",
      "outputs": [],
      "stateMutability": "nonpayable",
      "type": "function"
    },
    {
      "inputs": [
        {
          "internalType": "address",
          "name": "newTrustedSequencer",
          "type": "address"
        }
      ],
      "name": "setTrustedSequencer",
      "outputs": [],
      "stateMutability": "nonpayable",
      "type": "function"
    },
    {
      "inputs": [
        {
          "internalType": "string",
          "name": "newTrustedSequencerURL",
          "type": "string"
        }
      ],
      "name": "setTrustedSequencerURL",
      "outputs": [],
      "stateMutability": "nonpayable",
      "type": "function"
    },
    {
      "inputs": [
        {
          "internalType": "uint64",
          "name": "newVeryBatchTimeTarget",
          "type": "uint64"
        }
      ],
      "name": "setVeryBatchTimeTarget",
      "outputs": [],
      "stateMutability": "nonpayable",
      "type": "function"
    },
    {
      "inputs": [
        {
          "internalType": "address",
          "name": "newPendingAdmin",
          "type": "address"
        }
      ],
      "name": "transferAdminRole",
      "outputs": [],
      "stateMutability": "nonpayable",
      "type": "function"
    },
    {
      "inputs": [
        {
          "internalType": "address",
          "name": "newOwner",
          "type": "address"
        }
      ],
      "name": "transferOwnership",
      "outputs": [],
      "stateMutability": "nonpayable",
      "type": "function"
    },
    {
      "inputs": [],
      "name": "trustedAggregator",
      "outputs": [
        {
          "internalType": "address",
          "name": "",
          "type": "address"
        }
      ],
      "stateMutability": "view",
      "type": "function"
    },
    {
      "inputs": [],
      "name": "trustedAggregatorTimeout",
      "outputs": [
        {
          "internalType": "uint64",
          "name": "",
          "type": "uint64"
        }
      ],
      "stateMutability": "view",
      "type": "function"
    },
    {
      "inputs": [],
      "name": "trustedSequencer",
      "outputs": [
        {
          "internalType": "address",
          "name": "",
          "type": "address"
        }
      ],
      "stateMutability": "view",
      "type": "function"
    },
    {
      "inputs": [],
      "name": "trustedSequencerURL",
      "outputs": [
        {
          "internalType": "string",
          "name": "",
          "type": "string"
        }
      ],
      "stateMutability": "view",
      "type": "function"
    },
    {
      "inputs": [
        {
          "internalType": "uint64",
          "name": "pendingStateNum",
          "type": "uint64"
        },
        {
          "internalType": "uint64",
          "name": "initNumBatch",
          "type": "uint64"
        },
        {
          "internalType": "uint64",
          "name": "finalNewBatch",
          "type": "uint64"
        },
        {
          "internalType": "bytes32",
          "name": "newLocalExitRoot",
          "type": "bytes32"
        },
        {
          "internalType": "bytes32",
          "name": "newStateRoot",
          "type": "bytes32"
        },
        {
          "internalType": "uint256[2]",
          "name": "proofA",
          "type": "uint256[2]"
        },
        {
          "internalType": "uint256[2][2]",
          "name": "proofB",
          "type": "uint256[2][2]"
        },
        {
          "internalType": "uint256[2]",
          "name": "proofC",
          "type": "uint256[2]"
        }
      ],
      "name": "trustedVerifyBatches",
      "outputs": [],
      "stateMutability": "nonpayable",
      "type": "function"
    },
    {
      "inputs": [
        {
          "internalType": "uint64",
          "name": "pendingStateNum",
          "type": "uint64"
        },
        {
          "internalType": "uint64",
          "name": "initNumBatch",
          "type": "uint64"
        },
        {
          "internalType": "uint64",
          "name": "finalNewBatch",
          "type": "uint64"
        },
        {
          "internalType": "bytes32",
          "name": "newLocalExitRoot",
          "type": "bytes32"
        },
        {
          "internalType": "bytes32",
          "name": "newStateRoot",
          "type": "bytes32"
        },
        {
          "internalType": "uint256[2]",
          "name": "proofA",
          "type": "uint256[2]"
        },
        {
          "internalType": "uint256[2][2]",
          "name": "proofB",
          "type": "uint256[2][2]"
        },
        {
          "internalType": "uint256[2]",
          "name": "proofC",
          "type": "uint256[2]"
        }
      ],
      "name": "verifyBatches",
      "outputs": [],
      "stateMutability": "nonpayable",
      "type": "function"
    },
    {
      "inputs": [],
      "name": "veryBatchTimeTarget",
      "outputs": [
        {
          "internalType": "uint64",
          "name": "",
          "type": "uint64"
        }
      ],
      "stateMutability": "view",
      "type": "function"
    }
  ],
  "bytecode": "0x608060405234801561001057600080fd5b5061568b80620000216000396000f3fe608060405234801561001057600080fd5b50600436106103455760003560e01c80638da5cb5b116101bf578063cfa8ed47116100fa578063e7a7ed021161009d578063e7a7ed021461083f578063e8bf92ed14610859578063eaeb077b1461086c578063edc411211461087f578063f14916d614610892578063f2fde38b146108a5578063f851a440146108b8578063f8b823e4146108cb57600080fd5b8063cfa8ed47146107ad578063d02103ca146107c7578063d8d1091b146107da578063d8f54db0146107ed578063d939b31514610801578063dbc169761461081b578063e11f3f1814610823578063e217cfd61461083657600080fd5b8063ada8f91911610162578063ada8f919146106b0578063adc879e9146106c3578063afd23cbe146106dd578063b4d63f5814610705578063b6b0b09714610765578063c0ed84e01461077f578063c89e42df14610787578063cf1363061461079a57600080fd5b80638da5cb5b1461063f57806399f5634e146106505780639c9f3dfe146106585780639eb831b91461066b5780639f0d039d14610673578063a3c573eb1461067b578063aa58bad61461068e578063ab9fc5ef146106a657600080fd5b80634a1a89a71161028f5780637215541a116102325780637215541a1461055957806375c508b31461056c5780637fcb36531461057f578063837a473814610592578063841b24d7146106005780638b48931e1461061a5780638c3d7301146106245780638c4a0af71461062c57600080fd5b80634a1a89a7146104b65780634a910e6a146104d05780635392c5e0146104e3578063542028d51461050357806360943d6a1461050b5780636b8616ce1461051e5780636ff512cc1461053e578063715018a61461055157600080fd5b80632d0889d3116102f75780632d0889d31461040b578063383b3be814610423578063394218e9146104365780633c15826714610449578063423fa8561461045c5780634560526714610476578063458c0477146104905780634834a343146104a357600080fd5b8063107bf28c1461034a57806315064c96146103685780631816b7e51461038557806319d8ac611461039a578063220d7899146103c557806326782247146103d857806329878983146103f8575b600080fd5b6103526108d4565b60405161035f9190614845565b60405180910390f35b6065546103759060ff1681565b604051901515815260200161035f565b61039861039336600461485f565b610962565b005b6068546103ad906001600160401b031681565b6040516001600160401b03909116815260200161035f565b6103526103d336600461489f565b610a8c565b6074546103eb906001600160a01b031681565b60405161035f91906148ec565b606a546103eb906001600160a01b031681565b610415620493e081565b60405190815260200161035f565b610375610431366004614900565b610c2d565b610398610444366004614900565b610c74565b610398610457366004614966565b610e30565b6068546103ad90600160401b90046001600160401b031681565b6068546103ad90600160801b90046001600160401b031681565b6072546103ad906001600160401b031681565b6103986104b13660046149cf565b61160c565b6072546103ad90600160401b90046001600160401b031681565b6103986104de366004614900565b611955565b6104156104f1366004614900565b606d6020526000908152604090205481565b610352611a0b565b610398610519366004614b13565b611a18565b61041561052c366004614900565b60666020526000908152604090205481565b61039861054c366004614bea565b611dec565b610398611e6a565b610398610567366004614900565b611e7e565b61039861057a366004614c07565b612085565b6069546103ad906001600160401b031681565b6105d56105a0366004614ca5565b6071602052600090815260409020805460018201546002909201546001600160401b0380831693600160401b90930416919084565b604080516001600160401b03958616815294909316602085015291830152606082015260800161035f565b6072546103ad90600160c01b90046001600160401b031681565b6103ad62093a8081565b610398612114565b61039861063a366004614ccc565b6121e9565b6033546001600160a01b03166103eb565b610415612260565b610398610666366004614900565b612348565b610415600c81565b607554610415565b6070546103eb906001600160a01b031681565b6065546103ad9061010090046001600160401b031681565b6103ad6206978081565b6103986106be366004614bea565b6124f6565b606c546103ad90600160a81b90046001600160401b031681565b6065546106f290600160481b900461ffff1681565b60405161ffff909116815260200161035f565b610740610713366004614900565b606760205260009081526040902080546001909101546001600160401b0380821691600160401b90041683565b604080519384526001600160401b03928316602085015291169082015260600161035f565b6065546103eb90600160581b90046001600160a01b031681565b6103ad61256b565b610398610795366004614ce9565b6125b8565b6103986107a8366004614900565b61261e565b6069546103eb90600160401b90046001600160a01b031681565b606c546103eb906001600160a01b031681565b6103986107e8366004614966565b61269f565b606c5461037590600160a01b900460ff1681565b6072546103ad90600160801b90046001600160401b031681565b610398612b85565b610398610831366004614c07565b612c1f565b6103ad6103e881565b6068546103ad90600160c01b90046001600160401b031681565b606b546103eb906001600160a01b031681565b61039861087a366004614d1d565b612d64565b61039861088d3660046149cf565b61309c565b6103986108a0366004614bea565b6131bc565b6103986108b3366004614bea565b613231565b6073546103eb906001600160a01b031681565b61041560755481565b606f80546108e190614d94565b80601f016020809104026020016040519081016040528092919081815260200182805461090d90614d94565b801561095a5780601f1061092f5761010080835404028352916020019161095a565b820191906000526020600020905b81548152906001019060200180831161093d57829003601f168201915b505050505081565b6073546001600160a01b031633146109955760405162461bcd60e51b815260040161098c90614dce565b60405180910390fd5b6103e88161ffff16101580156109b057506104008161ffff16105b610a355760405162461bcd60e51b815260206004820152604a60248201527f506f6c79676f6e5a6b45564d3a3a7365744d756c7469706c696572426174636860448201527f4665653a206e65774d756c7469706c696572426174636846656520696e636f72606482015269726563742072616e676560b01b608482015260a40161098c565b6065805461ffff60481b1916600160481b61ffff8416908102919091179091556040519081527f7019933d795eba185c180209e8ae8bffbaa25bcef293364687702c31f4d302c5906020015b60405180910390a150565b6001600160401b03808616600081815260676020526040808220549388168252902054606092911580610abe57508115155b610b32576040805162461bcd60e51b81526020600482015260248101919091527f506f6c79676f6e5a6b45564d3a3a676574496e707574536e61726b427974657360448201527f3a206f6c64416363496e7075744861736820646f6573206e6f74206578697374606482015260840161098c565b80610ba7576040805162461bcd60e51b81526020600482015260248101919091527f506f6c79676f6e5a6b45564d3a3a676574496e707574536e61726b427974657360448201527f3a206e6577416363496e7075744861736820646f6573206e6f74206578697374606482015260840161098c565b606c54604080516001600160601b03193360601b166020820152603481019790975260548701939093526001600160c01b031960c0998a1b81166074880152600160a81b909104891b8116607c870152608486019490945260a485015260c4840194909452509290931b90911660e4830152805180830360cc01815260ec909201905290565b6072546001600160401b0382811660009081526071602052604081205490924292610c6392600160801b90920481169116614e27565b6001600160401b0316111592915050565b6073546001600160a01b03163314610c9e5760405162461bcd60e51b815260040161098c90614dce565b62093a806001600160401b0382161115610d375760405162461bcd60e51b815260206004820152604e60248201527f506f6c79676f6e5a6b45564d3a3a73657454727573746564416767726567617460448201527f6f7254696d656f75743a20457863656564206d61782068616c7420616767726560648201526d19d85d1a5bdb881d1a5b595bdd5d60921b608482015260a40161098c565b60655460ff16610dda576072546001600160401b03600160c01b909104811690821610610dda5760405162461bcd60e51b8152602060048201526044602482018190527f506f6c79676f6e5a6b45564d3a3a736574547275737465644167677265676174908201527f6f7254696d656f75743a204e65772074696d656f7574206d757374206265206c60648201526337bbb2b960e11b608482015260a40161098c565b607280546001600160c01b0316600160c01b6001600160401b038416908102919091179091556040519081527f1f4fa24c2e4bad19a7f3ec5c5485f70d46c798461c2e684f55bbd0fc661373a190602001610a81565b60655460ff1615610e535760405162461bcd60e51b815260040161098c90614e52565b606954600160401b90046001600160a01b03163314610eda5760405162461bcd60e51b815260206004820152603a60248201527f506f6c79676f6e5a6b45564d3a3a6f6e6c795472757374656453657175656e6360448201527f65723a204f6e6c7920747275737465642073657175656e636572000000000000606482015260840161098c565b8080610f4e5760405162461bcd60e51b815260206004820152603d60248201527f506f6c79676f6e5a6b45564d3a3a73657175656e6365426174636865733a204160448201527f74206c65617374206d7573742073657175656e63652031206261746368000000606482015260840161098c565b6103e88110610fc7576040805162461bcd60e51b81526020600482015260248101919091527f506f6c79676f6e5a6b45564d3a3a73657175656e6365426174636865733a204360448201527f616e6e6f742073657175656e63652074686174206d616e792062617463686573606482015260840161098c565b6068546001600160401b03600160401b82048116600081815260676020526040812054838516949293600160801b909304909216919082905b8681101561143c57600089898381811061101c5761101c614eba565b905060200281019061102e9190614ed0565b61103790614ef0565b805180516020909101206060820151919250906001600160401b0316156111cd578561106281614f7c565b9650506000818360200151846060015160405160200161108493929190614fa2565b60408051601f1981840301815291815281516020928301206001600160401b038a166000908152606690935291205490915081146111185760405162461bcd60e51b815260206004820152603d602482015260008051602061563683398151915260448201527f6f7263656420626174636865732064617461206d757374206d61746368000000606482015260840161098c565b6001600160401b0380881660009081526066602052604080822091909155606085015190850151908216911610156111c75760405162461bcd60e51b8152602060048201526058602482015260008051602061563683398151915260448201527f6f7263656420626174636865732074696d657374616d70206d757374206265206064820152773134b3b3b2b91037b91032b8bab0b6103a3430b71036b4b760411b608482015260a40161098c565b50611342565b602082015115806112565750606c5460208301516040516312bd9b1960e11b81526001600160a01b039092169163257b3632916112109160040190815260200190565b6020604051808303816000875af115801561122f573d6000803e3d6000fd5b505050506040513d601f19601f820116820180604052508101906112539190614fc5565b15155b6112c85760405162461bcd60e51b815260206004820152603a60248201527f506f6c79676f6e5a6b45564d3a3a73657175656e6365426174636865733a204760448201527f6c6f62616c206578697420726f6f74206d757374206578697374000000000000606482015260840161098c565b815151620493e0116113425760405162461bcd60e51b815260206004820152603a60248201527f506f6c79676f6e5a6b45564d3a3a73657175656e6365426174636865733a205460448201527f72616e73616374696f6e73206279746573206f766572666c6f77000000000000606482015260840161098c565b876001600160401b031682604001516001600160401b03161015801561137557504282604001516001600160401b031611155b6113e75760405162461bcd60e51b815260206004820152603d60248201527f506f6c79676f6e5a6b45564d3a3a73657175656e6365426174636865733a205460448201527f696d657374616d70206d75737420626520696e736964652072616e6765000000606482015260840161098c565b84818360200151846040015133604051602001611408959493929190614fde565b60405160208183030381529060405280519060200120945081604001519750505080806114349061501d565b915050611000565b506114478685614e27565b6068549094506001600160401b03600160c01b909104811690841611156114bc5760405162461bcd60e51b815260206004820152603560248201526000805160206156368339815191526044820152746f7263652062617463686573206f766572666c6f7760581b606482015260840161098c565b60006114c88285615036565b6114db906001600160401b03168861505e565b60408051606081018252858152426001600160401b03908116602080840191825260688054600160401b9081900485168688019081528d861660008181526067909552979093209551865592516001909501805492519585166001600160801b03199384161795851684029590951790945583548c8416911617930292909217905590915082811690851614611591576068805467ffffffffffffffff60801b1916600160801b6001600160401b038716021790555b6115c53330836115a060755490565b6115aa9190615075565b606554600160581b90046001600160a01b03169291906132a7565b6115cd613318565b6040516001600160401b038616907f303446e6a8cb73c83dff421c0b1d5e5ce0719dab1bff13660fc254e58cc17fce90600090a2505050505050505050565b60655460ff161561162f5760405162461bcd60e51b815260040161098c90614e52565b6072546001600160401b03878116600090815260676020526040902060010154429261166692600160c01b90910481169116614e27565b6001600160401b031611156116ef5760405162461bcd60e51b815260206004820152604360248201527f506f6c79676f6e5a6b45564d3a3a766572696679426174636865733a2054727560448201527f737465642061676772656761746f722074696d656f7574206e6f7420657870696064820152621c995960ea1b608482015260a40161098c565b6103e86116fc8888615036565b6001600160401b0316106117785760405162461bcd60e51b815260206004820152603c60248201527f506f6c79676f6e5a6b45564d3a3a766572696679426174636865733a2043616e60448201527f6e6f74207665726966792074686174206d616e79206261746368657300000000606482015260840161098c565b61178888888888888888886133bc565b611791866138bf565b607254600160801b90046001600160401b0316600003611859576069805467ffffffffffffffff19166001600160401b038881169182179092556000908152606d6020526040902085905560725416156117f657607280546001600160801b03191690555b606c546040516333d6247d60e01b8152600481018790526001600160a01b03909116906333d6247d90602401600060405180830381600087803b15801561183c57600080fd5b505af1158015611850573d6000803e3d6000fd5b5050505061190a565b611861613318565b607280546001600160401b031690600061187a83614f7c565b82546001600160401b039182166101009390930a92830292820219169190911790915560408051608081018252428316815289831660208083019182528284018b8152606084018b8152607254871660009081526071909352949091209251835492518616600160401b026001600160801b03199093169516949094171781559151600183015551600290910155505b60405184815233906001600160401b038816907f9c72852172521097ba7e1482e6b44b351323df0155f97f4ea18fcec28e1f5966906020015b60405180910390a35050505050505050565b606a546001600160a01b031633146119ff5761197081610c2d565b6119ff5760405162461bcd60e51b815260206004820152605460248201527f506f6c79676f6e5a6b45564d3a3a636f6e736f6c696461746550656e64696e6760448201527f53746174653a2050656e64696e67207374617465206973206e6f7420726561646064820152731e481d1bc818994818dbdb9cdbdb1a59185d195960621b608482015260a40161098c565b611a0881613aa5565b50565b606e80546108e190614d94565b600054610100900460ff1615808015611a385750600054600160ff909116105b80611a525750303b158015611a52575060005460ff166001145b611ab55760405162461bcd60e51b815260206004820152602e60248201527f496e697469616c697a61626c653a20636f6e747261637420697320616c72656160448201526d191e481a5b9a5d1a585b1a5e995960921b606482015260840161098c565b6000805460ff191660011790558015611ad8576000805461ff0019166101001790555b606c80546001600160a01b03199081166001600160a01b038c81169190911790925560658054600160581b600160f81b031916600160581b8c851602179055606b805482168a841617905560708054909116918816919091179055611b406020860186614bea565b607380546001600160a01b0319166001600160a01b0392909216919091179055611b706060860160408701614bea565b606980546001600160a01b0392909216600160401b02600160401b600160e01b0319909216919091179055611bab60c0860160a08701614bea565b606a80546001600160a01b0319166001600160a01b039290921691909117905560008052606d60209081527fda90043ba5b4096ba14704bc227ab0d3167da15b887e62ab2e76e37daa711356859055611c0a9060408701908701614900565b606c80546001600160401b0392909216600160a81b0267ffffffffffffffff60a81b19909216919091179055611c4660a0860160808701614ccc565b606c8054911515600160a01b0260ff60a01b19909216919091179055606e611c6e84826150da565b50606f611c7b83826150da565b5062093a80611c906080870160608801614900565b6001600160401b03161115611cb75760405162461bcd60e51b815260040161098c90615199565b611cc76080860160608701614900565b607280546001600160401b0392909216600160801b0267ffffffffffffffff60801b1990921691909117905562093a80611d0760e0870160c08801614900565b6001600160401b03161115611d2e5760405162461bcd60e51b815260040161098c90615199565b611d3e60e0860160c08701614900565b607280546001600160c01b0316600160c01b6001600160401b039390931692909202919091179055670de0b6b3a7640000607555606580546affffffffffffffffffff0019166a03ea000000000000070800179055611d9b613c8a565b8015611de1576000805461ff0019169055604051600181527f7f26b83ff96e1f2b6a682f133852f6798a09c465da95921460cefb38474024989060200160405180910390a15b505050505050505050565b6073546001600160a01b03163314611e165760405162461bcd60e51b815260040161098c90614dce565b60698054600160401b600160e01b031916600160401b6001600160a01b038416021790556040517ff54144f9611984021529f814a1cb6a41e22c58351510a0d9f7e822618abb9cc090610a819083906148ec565b611e72613cfe565b611e7c6000613d58565b565b6033546001600160a01b0316331461207d576000611e9a61256b565b9050806001600160401b0316826001600160401b031611611f115760405162461bcd60e51b815260206004820152603c60248201526000805160206155b683398151915260448201527f746174653a20426174636820616c726561647920766572696669656400000000606482015260840161098c565b6068546001600160401b03600160401b909104811690831611801590611f5357506001600160401b038083166000908152606760205260409020600101541615155b611fcc5760405162461bcd60e51b815260206004820152605060248201526000805160206155b683398151915260448201527f746174653a204261746368206e6f742073657175656e636564206f72206e6f7460648201526f20656e64206f662073657175656e636560801b608482015260a40161098c565b6001600160401b038083166000908152606760205260409020600101544291611ffa9162093a809116614e27565b6001600160401b0316111561207b5760405162461bcd60e51b815260206004820152604d60248201526000805160206155b683398151915260448201527f746174653a204167677265676174696f6e2068616c742074696d656f7574206960648201526c1cc81b9bdd08195e1c1a5c9959609a1b608482015260a40161098c565b505b611a08613daa565b60655460ff16156120a85760405162461bcd60e51b815260040161098c90614e52565b6120b9898989898989898989613e1a565b6001600160401b0386166000908152606d60209081526040918290205482519081529081018690527f1f44c21118c4603cfb4e1b621dbcfa2b73efcececee2b99b620b2953d33a7010910160405180910390a1611de1613daa565b6074546001600160a01b031633146121905760405162461bcd60e51b815260206004820152603960248201527f506f6c79676f6e5a6b45564d3a3a61636365707441646d696e526f6c653a206360448201527830b63632b91034b9903737ba103832b73234b733a0b236b4b760391b606482015260840161098c565b607454607380546001600160a01b0319166001600160a01b0390921691821790556040517f056dc487bbf0795d0bbb1b4f0af523a855503cff740bfb4d5475f7a90c091e8e916121df916148ec565b60405180910390a1565b6073546001600160a01b031633146122135760405162461bcd60e51b815260040161098c90614dce565b606c8054821515600160a01b0260ff60a01b199091161790556040517fbacda50a4a8575be1d91a7ebe29ee45056f3a94f12a2281eb6b43afa33bcefe690610a8190831515815260200190565b6065546040516370a0823160e01b81526000918291600160581b9091046001600160a01b0316906370a082319061229b9030906004016148ec565b602060405180830381865afa1580156122b8573d6000803e3d6000fd5b505050506040513d601f19601f820116820180604052508101906122dc9190614fc5565b905060006122e861256b565b6068546001600160401b03600160401b820481169161231891600160801b8204811691600160c01b900416615036565b6123229190614e27565b61232c9190615036565b6001600160401b031690506123418183615208565b9250505090565b6073546001600160a01b031633146123725760405162461bcd60e51b815260040161098c90614dce565b62093a806001600160401b03821611156124065760405162461bcd60e51b815260206004820152604960248201527f506f6c79676f6e5a6b45564d3a3a73657450656e64696e67537461746554696d60448201527f656f75743a20457863656564206d61782068616c74206167677265676174696f6064820152681b881d1a5b595bdd5d60ba1b608482015260a40161098c565b60655460ff1661249b576072546001600160401b03600160801b90910481169082161061249b5760405162461bcd60e51b815260206004820152603f60248201527f506f6c79676f6e5a6b45564d3a3a73657450656e64696e67537461746554696d60448201527f656f75743a204e65772074696d656f7574206d757374206265206c6f77657200606482015260840161098c565b6072805467ffffffffffffffff60801b1916600160801b6001600160401b038416908102919091179091556040519081527fc4121f4e22c69632ebb7cf1f462be0511dc034f999b52013eddfb24aab765c7590602001610a81565b6073546001600160a01b031633146125205760405162461bcd60e51b815260040161098c90614dce565b607480546001600160a01b0319166001600160a01b0383161790556040517fa5b56b7906fd0a20e3f35120dd8343db1e12e037a6c90111c7e42885e82a1ce690610a819083906148ec565b6072546000906001600160401b0316156125a857506072546001600160401b03908116600090815260716020526040902054600160401b90041690565b506069546001600160401b031690565b6073546001600160a01b031633146125e25760405162461bcd60e51b815260040161098c90614dce565b606e6125ee82826150da565b507f6b8f723a4c7a5335cafae8a598a0aa0301be1387c037dccc085b62add6448b2081604051610a819190614845565b6073546001600160a01b031633146126485760405162461bcd60e51b815260040161098c90614dce565b6065805468ffffffffffffffff0019166101006001600160401b038416908102919091179091556040519081527f03a12f7e53d2a9e31a9e913d85c12c4c38feb92abe003c111329298af088437f90602001610a81565b60655460ff16156126c25760405162461bcd60e51b815260040161098c90614e52565b606c54600160a01b900460ff1615156001146126f05760405162461bcd60e51b815260040161098c9061521c565b80806127525760405162461bcd60e51b815260206004820152603f602482015260008051602061561683398151915260448201527f65733a204d75737420666f726365206174206c65617374203120626174636800606482015260840161098c565b6103e881106127c35760405162461bcd60e51b8152602060048201526043602482015260008051602061561683398151915260448201527f65733a2043616e6e6f74207665726966792074686174206d616e79206261746360648201526268657360e81b608482015260a40161098c565b6068546001600160401b03600160c01b82048116916127eb918491600160801b900416615285565b11156128475760405162461bcd60e51b81526020600482015260376024820152600080516020615616833981519152604482015276195cce88119bdc98d94818985d18da081a5b9d985b1a59604a1b606482015260840161098c565b6068546001600160401b03600160401b820481166000818152606760205260408120549193600160801b9004909216915b84811015612a9a57600087878381811061289457612894614eba565b90506020028101906128a6919061529d565b6128af906152b3565b9050836128bb81614f7c565b825180516020918201208185015160408087015190519499509194506000936128e79386939101614fa2565b60408051601f1981840301815291815281516020928301206001600160401b0389166000908152606690935291205490915081146129865760405162461bcd60e51b8152602060048201526042602482015260008051602061561683398151915260448201527f65733a20466f7263656420626174636865732064617461206d757374206d61746064820152610c6d60f31b608482015260a40161098c565b6001600160401b0386166000908152606660205260408120556129aa60018961505e565b8403612a4157426206978084604001516129c49190614e27565b6001600160401b03161115612a415760405162461bcd60e51b8152602060048201526049602482015260008051602061561683398151915260448201527f65733a20466f72636564206261746368206973206e6f7420696e2074696d656f6064820152681d5d081c195c9a5bd960ba1b608482015260a40161098c565b848284602001514233604051602001612a5e959493929190614fde565b6040516020818303038152906040528051906020012094508680612a8190614f7c565b9750505050508080612a929061501d565b915050612878565b50606880546001600160401b0342811667ffffffffffffffff199092168217808455604080516060810182528681526020808201958652600160401b9384900485168284019081528a86166000818152606790935284832093518455965160019390930180549151871686026001600160801b031990921693871693909317179091558554938816600160801b0267ffffffffffffffff60801b1993860293909316600160401b600160c01b03199094169390931791909117909355915190917f648a61dd2438f072f5a1960939abd30f37aea80d2e94c9792ad142d3e0a490a491a2505050505050565b6073546001600160a01b03163314612baf5760405162461bcd60e51b815260040161098c90614dce565b607060009054906101000a90046001600160a01b03166001600160a01b031663dbc169766040518163ffffffff1660e01b8152600401600060405180830381600087803b158015612bff57600080fd5b505af1158015612c13573d6000803e3d6000fd5b50505050611e7c61444e565b606a546001600160a01b03163314612c495760405162461bcd60e51b815260040161098c9061532e565b612c5a898989898989898989613e1a565b6069805467ffffffffffffffff19166001600160401b038881169182179092556000908152606d602052604090208590556072541615612ca557607280546001600160801b03191690555b606c546040516333d6247d60e01b8152600481018790526001600160a01b03909116906333d6247d90602401600060405180830381600087803b158015612ceb57600080fd5b505af1158015612cff573d6000803e3d6000fd5b5050607280546001600160c01b031661127560c71b179055505060405184815233906001600160401b038816907fcc1b5520188bf1dd3e63f98164b577c4d75c11a619ddea692112f0d1aec4cf729060200160405180910390a3505050505050505050565b60655460ff1615612d875760405162461bcd60e51b815260040161098c90614e52565b606c54600160a01b900460ff161515600114612db55760405162461bcd60e51b815260040161098c9061521c565b6000612dc060755490565b905081811115612e255760405162461bcd60e51b815260206004820152602a60248201527f506f6c79676f6e5a6b45564d3a3a666f72636542617463683a204e6f7420656e6044820152696f756768206d6174696360b01b606482015260840161098c565b620493e08310612e955760405162461bcd60e51b815260206004820152603560248201527f506f6c79676f6e5a6b45564d3a3a666f72636542617463683a205472616e73616044820152746374696f6e73206279746573206f766572666c6f7760581b606482015260840161098c565b606554612eb490600160581b90046001600160a01b03163330846132a7565b606c5460408051633ed691ef60e01b815290516000926001600160a01b031691633ed691ef9160048083019260209291908290030181865afa158015612efe573d6000803e3d6000fd5b505050506040513d601f19601f82011682018060405250810190612f229190614fc5565b60688054919250600160c01b9091046001600160401b0316906018612f4683614f7c565b91906101000a8154816001600160401b0302191690836001600160401b03160217905550508484604051612f7b92919061538b565b604051908190038120612f949183904290602001614fa2565b60408051808303601f190181529181528151602092830120606854600160c01b90046001600160401b03166000908152606690935291205532330361303857606854604080518381523360208201526060918101829052600091810191909152600160c01b9091046001600160401b0316907ff94bb37db835f1ab585ee00041849a09b12cd081d77fa15ca070757619cbc9319060800160405180910390a2613095565b606860189054906101000a90046001600160401b03166001600160401b03167ff94bb37db835f1ab585ee00041849a09b12cd081d77fa15ca070757619cbc9318233888860405161308c949392919061539b565b60405180910390a25b5050505050565b606a546001600160a01b031633146130c65760405162461bcd60e51b815260040161098c9061532e565b6130d688888888888888886133bc565b6069805467ffffffffffffffff19166001600160401b038881169182179092556000908152606d60205260409020859055607254161561312157607280546001600160801b03191690555b606c546040516333d6247d60e01b8152600481018790526001600160a01b03909116906333d6247d90602401600060405180830381600087803b15801561316757600080fd5b505af115801561317b573d6000803e3d6000fd5b50506040518681523392506001600160401b03891691507f0c0ce073a7d7b5850c04ccc4b20ee7d3179d5f57d0ac44399565792c0f72fce790602001611943565b6073546001600160a01b031633146131e65760405162461bcd60e51b815260040161098c90614dce565b606a80546001600160a01b0319166001600160a01b0383161790556040517f61f8fec29495a3078e9271456f05fb0707fd4e41f7661865f80fc437d06681ca90610a819083906148ec565b613239613cfe565b6001600160a01b03811661329e5760405162461bcd60e51b815260206004820152602660248201527f4f776e61626c653a206e6577206f776e657220697320746865207a65726f206160448201526564647265737360d01b606482015260840161098c565b611a0881613d58565b6040516001600160a01b03808516602483015283166044820152606481018290526133129085906323b872dd60e01b906084015b60408051601f198184030181529190526020810180516001600160e01b03166001600160e01b0319909316929092179091526144fb565b50505050565b6072546001600160401b03600160401b8204811691161115611e7c5760725460009061335590600160401b90046001600160401b03166001614e27565b905061336081610c2d565b15611a08576072546000906002906133829084906001600160401b0316615036565b61338c91906153e2565b6133969083614e27565b90506133a181610c2d565b156133b3576133af81613aa5565b5050565b6133af82613aa5565b6000806133c761256b565b90506001600160401b038a161561352d576072546001600160401b03908116908b16111561347f5760405162461bcd60e51b815260206004820152605960248201527f506f6c79676f6e5a6b45564d3a3a5f766572696679426174636865733a20706560448201527f6e64696e6753746174654e756d206d757374206265206c657373206f7220657160648201527875616c207468616e206c61737450656e64696e67537461746560381b608482015260a40161098c565b6001600160401b03808b1660009081526071602052604090206002810154815490945090918b8116600160401b90920416146135275760405162461bcd60e51b815260206004820152604d60248201526000805160206155d683398151915260448201527f69744e756d4261746368206d757374206d61746368207468652070656e64696e60648201526c0ce40e6e8c2e8ca40c4c2e8c6d609b1b608482015260a40161098c565b50613653565b6001600160401b0389166000908152606d60205260409020549150816135b75760405162461bcd60e51b8152602060048201526044602482018190526000805160206155d6833981519152908201527f69744e756d426174636820737461746520726f6f7420646f6573206e6f7420656064820152631e1a5cdd60e21b608482015260a40161098c565b806001600160401b0316896001600160401b031611156136535760405162461bcd60e51b815260206004820152605e60248201526000805160206155d683398151915260448201527f69744e756d4261746368206d757374206265206c657373206f7220657175616c60648201527f207468616e2063757272656e744c617374566572696669656442617463680000608482015260a40161098c565b806001600160401b0316886001600160401b0316116136fb5760405162461bcd60e51b815260206004820152605860248201527f506f6c79676f6e5a6b45564d3a3a5f766572696679426174636865733a20666960448201527f6e616c4e65774261746368206d75737420626520626967676572207468616e206064820152770c6eae4e4cadce898c2e6e8accae4d2ccd2cac884c2e8c6d60431b608482015260a40161098c565b600061370a8a8a8a868b610a8c565b905060007f30644e72e131a029b85045b68181585d2833e84879b9709143e1f593f000000160028360405161373f9190615408565b602060405180830381855afa15801561375c573d6000803e3d6000fd5b5050506040513d601f19601f8201168201806040525081019061377f9190614fc5565b613789919061541a565b606b546040805160208101825283815290516343753b4d60e01b81529293506001600160a01b03909116916343753b4d916137cd918b918b918b919060040161542e565b602060405180830381865afa1580156137ea573d6000803e3d6000fd5b505050506040513d601f19601f8201168201806040525081019061380e91906154a8565b61386e5760405162461bcd60e51b815260206004820152602b60248201527f506f6c79676f6e5a6b45564d3a3a5f766572696679426174636865733a20496e60448201526a3b30b634b210383937b7b360a91b606482015260840161098c565b6138b13361387c858d615036565b6001600160401b031661388d612260565b6138979190615075565b606554600160581b90046001600160a01b031691906145d2565b505050505050505050505050565b60006138c961256b565b9050816000806138d98484615036565b6001600160401b031690505b836001600160401b0316836001600160401b03161461398b576001600160401b0380841660009081526067602052604090206065546001820154919261010090910481169161393591164261505e565b111561397057600181015461395a90600160401b90046001600160401b031685615036565b61396d906001600160401b031684615285565b92505b60010154600160401b90046001600160401b031692506138e5565b6000613997838361505e565b905082811015613a115760006139ad828561505e565b9050600c81116139bd57806139c0565b600c5b90506139cd816003615075565b6139d890600a6155a9565b6065546139f1908390600160481b900461ffff166155a9565b6075546139fe9190615075565b613a089190615208565b60755550613a9d565b6000613a1d848361505e565b9050600c8111613a2d5780613a30565b600c5b90506000613a3f826003615075565b613a4a90600a6155a9565b606554613a63908490600160481b900461ffff166155a9565b607554613a709190615075565b613a7a9190615208565b905080607554607554613a8d9190615075565b613a979190615208565b60755550505b505050505050565b6001600160401b03811615801590613ad257506072546001600160401b03600160401b9091048116908216115b8015613aed57506072546001600160401b0390811690821611155b613b5f5760405162461bcd60e51b815260206004820152603f60248201527f506f6c79676f6e5a6b45564d3a3a5f636f6e736f6c696461746550656e64696e60448201527f6753746174653a2070656e64696e6753746174654e756d20696e76616c696400606482015260840161098c565b6001600160401b038181166000818152607160209081526040808320805460698054600160401b9283900490981667ffffffffffffffff19909816881790556002820154878652606d90945293829020929092556072805467ffffffffffffffff60401b19169390940292909217909255606c54600183015491516333d6247d60e01b815260048101929092529192916001600160a01b0316906333d6247d90602401600060405180830381600087803b158015613c1c57600080fd5b505af1158015613c30573d6000803e3d6000fd5b50505050826001600160401b0316816001600160401b03167f328d3c6c0fd6f1be0515e422f2d87e59f25922cbc2233568515a0c4bc3f8510e8460020154604051613c7d91815260200190565b60405180910390a3505050565b600054610100900460ff16613cf55760405162461bcd60e51b815260206004820152602b60248201527f496e697469616c697a61626c653a20636f6e7472616374206973206e6f74206960448201526a6e697469616c697a696e6760a81b606482015260840161098c565b611e7c33613d58565b6033546001600160a01b03163314611e7c5760405162461bcd60e51b815260206004820181905260248201527f4f776e61626c653a2063616c6c6572206973206e6f7420746865206f776e6572604482015260640161098c565b603380546001600160a01b038381166001600160a01b0319831681179093556040519116919082907f8be0079c531659141344cd1fd0a4f28419497f9722a3daafe3b4186f6b6457e090600090a35050565b607060009054906101000a90046001600160a01b03166001600160a01b0316632072f6c56040518163ffffffff1660e01b8152600401600060405180830381600087803b158015613dfa57600080fd5b505af1158015613e0e573d6000803e3d6000fd5b50505050611e7c614602565b60006001600160401b038a1615613f8a576072546001600160401b03908116908b161115613ed25760405162461bcd60e51b815260206004820152606560248201526000805160206155f683398151915260448201527f696e6753746174653a2070656e64696e6753746174654e756d206d757374206260648201527f65206c657373206f7220657175616c207468616e206c61737450656e64696e67608482015264537461746560d81b60a482015260c40161098c565b506001600160401b03808a1660009081526071602052604090206002810154815490928a8116600160401b9092041614613f845760405162461bcd60e51b815260206004820152605960248201526000805160206155f683398151915260448201527f696e6753746174653a20696e69744e756d4261746368206d757374206d6174636064820152780d040e8d0ca40e0cadcc8d2dcce40e6e8c2e8ca40c4c2e8c6d603b1b608482015260a40161098c565b506140c3565b506001600160401b0387166000908152606d60205260409020548061401e5760405162461bcd60e51b815260206004820152605060248201526000805160206155f683398151915260448201527f696e6753746174653a20696e69744e756d426174636820737461746520726f6f60648201526f1d08191bd95cc81b9bdd08195e1a5cdd60821b608482015260a40161098c565b6069546001600160401b0390811690891611156140c35760405162461bcd60e51b815260206004820152606360248201526000805160206155f683398151915260448201527f696e6753746174653a20696e69744e756d4261746368206d757374206265206c60648201527f657373206f7220657175616c207468616e206c617374566572696669656442616084820152620e8c6d60eb1b60a482015260c40161098c565b6072546001600160401b03908116908a16118015906140f35750896001600160401b0316896001600160401b0316115b801561411457506072546001600160401b03600160401b9091048116908a16115b6141855760405162461bcd60e51b815260206004820152604860248201526000805160206155f683398151915260448201527f696e6753746174653a2066696e616c50656e64696e6753746174654e756d20696064820152671b98dbdc9c9958dd60c21b608482015260a40161098c565b6001600160401b03898116600090815260716020526040902054600160401b900481169088161461423c5760405162461bcd60e51b815260206004820152606160248201526000805160206155f683398151915260448201527f696e6753746174653a2066696e616c4e65774261746368206d7573742062652060648201527f657175616c20746f2063757272656e744c6173745665726966696564426174636084820152600d60fb1b60a482015260c40161098c565b600061424b898989858a610a8c565b905060007f30644e72e131a029b85045b68181585d2833e84879b9709143e1f593f00000016002836040516142809190615408565b602060405180830381855afa15801561429d573d6000803e3d6000fd5b5050506040513d601f19601f820116820180604052508101906142c09190614fc5565b6142ca919061541a565b606b546040805160208101825283815290516343753b4d60e01b81529293506001600160a01b03909116916343753b4d9161430e918a918a918a919060040161542e565b602060405180830381865afa15801561432b573d6000803e3d6000fd5b505050506040513d601f19601f8201168201806040525081019061434f91906154a8565b6143a95760405162461bcd60e51b815260206004820152603760248201526000805160206155f683398151915260448201527634b733a9ba30ba329d1024b73b30b634b210383937b7b360491b606482015260840161098c565b6001600160401b038b166000908152607160205260409020600201548790036138b15760405162461bcd60e51b815260206004820152605b60248201526000805160206155f683398151915260448201527f696e6753746174653a2053746f72656420726f6f74206d75737420626520646960648201527f66666572656e74207468616e206e657720737461746520726f6f740000000000608482015260a40161098c565b60655460ff166144c65760405162461bcd60e51b815260206004820152603b60248201527f456d657267656e63794d616e616765723a3a6966456d657267656e637953746160448201527f74653a206f6e6c7920696620656d657267656e63792073746174650000000000606482015260840161098c565b6065805460ff191690556040517f1e5e34eea33501aecf2ebec9fe0e884a40804275ea7fe10b2ba084c8374308b390600090a1565b6000614550826040518060400160405280602081526020017f5361666545524332303a206c6f772d6c6576656c2063616c6c206661696c6564815250856001600160a01b031661465d9092919063ffffffff16565b8051909150156145cd578080602001905181019061456e91906154a8565b6145cd5760405162461bcd60e51b815260206004820152602a60248201527f5361666545524332303a204552433230206f7065726174696f6e20646964206e6044820152691bdd081cdd58d8d9595960b21b606482015260840161098c565b505050565b6040516001600160a01b0383166024820152604481018290526145cd90849063a9059cbb60e01b906064016132db565b60655460ff16156146255760405162461bcd60e51b815260040161098c90614e52565b6065805460ff191660011790556040517f2261efe5aef6fedc1fd1550b25facc9181745623049c7901287030b9ad1a549790600090a1565b606061466c8484600085614674565b949350505050565b6060824710156146d55760405162461bcd60e51b815260206004820152602660248201527f416464726573733a20696e73756666696369656e742062616c616e636520666f6044820152651c8818d85b1b60d21b606482015260840161098c565b600080866001600160a01b031685876040516146f19190615408565b60006040518083038185875af1925050503d806000811461472e576040519150601f19603f3d011682016040523d82523d6000602084013e614733565b606091505b50915091506147448783838761474f565b979650505050505050565b606083156147be5782516000036147b7576001600160a01b0385163b6147b75760405162461bcd60e51b815260206004820152601d60248201527f416464726573733a2063616c6c20746f206e6f6e2d636f6e7472616374000000604482015260640161098c565b508161466c565b61466c83838151156147d35781518083602001fd5b8060405162461bcd60e51b815260040161098c9190614845565b60005b838110156148085781810151838201526020016147f0565b838111156133125750506000910152565b600081518084526148318160208601602086016147ed565b601f01601f19169290920160200192915050565b6020815260006148586020830184614819565b9392505050565b60006020828403121561487157600080fd5b813561ffff8116811461485857600080fd5b80356001600160401b038116811461489a57600080fd5b919050565b600080600080600060a086880312156148b757600080fd5b6148c086614883565b94506148ce60208701614883565b94979496505050506040830135926060810135926080909101359150565b6001600160a01b0391909116815260200190565b60006020828403121561491257600080fd5b61485882614883565b60008083601f84011261492d57600080fd5b5081356001600160401b0381111561494457600080fd5b6020830191508360208260051b850101111561495f57600080fd5b9250929050565b6000806020838503121561497957600080fd5b82356001600160401b0381111561498f57600080fd5b61499b8582860161491b565b90969095509350505050565b80604081018310156149b857600080fd5b92915050565b80608081018310156149b857600080fd5b6000806000806000806000806101a0898b0312156149ec57600080fd5b6149f589614883565b9750614a0360208a01614883565b9650614a1160408a01614883565b95506060890135945060808901359350614a2e8a60a08b016149a7565b9250614a3d8a60e08b016149be565b9150614a4d8a6101608b016149a7565b90509295985092959890939650565b6001600160a01b0381168114611a0857600080fd5b634e487b7160e01b600052604160045260246000fd5b600082601f830112614a9857600080fd5b81356001600160401b0380821115614ab257614ab2614a71565b604051601f8301601f19908116603f01168101908282118183101715614ada57614ada614a71565b81604052838152866020858801011115614af357600080fd5b836020870160208301376000602085830101528094505050505092915050565b600080600080600080600080888a036101c0811215614b3157600080fd5b8935614b3c81614a5c565b985060208a0135614b4c81614a5c565b975060408a0135614b5c81614a5c565b965060608a0135614b6c81614a5c565b955060e0607f1982011215614b8057600080fd5b5060808901935061016089013592506101808901356001600160401b0380821115614baa57600080fd5b614bb68c838d01614a87565b93506101a08b0135915080821115614bcd57600080fd5b50614bda8b828c01614a87565b9150509295985092959890939650565b600060208284031215614bfc57600080fd5b813561485881614a5c565b60008060008060008060008060006101c08a8c031215614c2657600080fd5b614c2f8a614883565b9850614c3d60208b01614883565b9750614c4b60408b01614883565b9650614c5960608b01614883565b955060808a0135945060a08a01359350614c768b60c08c016149a7565b9250614c868b6101008c016149be565b9150614c968b6101808c016149a7565b90509295985092959850929598565b600060208284031215614cb757600080fd5b5035919050565b8015158114611a0857600080fd5b600060208284031215614cde57600080fd5b813561485881614cbe565b600060208284031215614cfb57600080fd5b81356001600160401b03811115614d1157600080fd5b61466c84828501614a87565b600080600060408486031215614d3257600080fd5b83356001600160401b0380821115614d4957600080fd5b818601915086601f830112614d5d57600080fd5b813581811115614d6c57600080fd5b876020828501011115614d7e57600080fd5b6020928301989097509590910135949350505050565b600181811c90821680614da857607f821691505b602082108103614dc857634e487b7160e01b600052602260045260246000fd5b50919050565b60208082526023908201527f506f6c79676f6e5a6b45564d3a3a6f6e6c7941646d696e3a204f6e6c7920616460408201526236b4b760e91b606082015260800190565b634e487b7160e01b600052601160045260246000fd5b60006001600160401b03808316818516808303821115614e4957614e49614e11565b01949350505050565b60208082526042908201527f456d657267656e63794d616e616765723a3a69664e6f74456d657267656e637960408201527f53746174653a206f6e6c79206966206e6f7420656d657267656e637920737461606082015261746560f01b608082015260a00190565b634e487b7160e01b600052603260045260246000fd5b60008235607e19833603018112614ee657600080fd5b9190910192915050565b600060808236031215614f0257600080fd5b604051608081016001600160401b038282108183111715614f2557614f25614a71565b816040528435915080821115614f3a57600080fd5b50614f4736828601614a87565b82525060208301356020820152614f6060408401614883565b6040820152614f7160608401614883565b606082015292915050565b60006001600160401b03808316818103614f9857614f98614e11565b6001019392505050565b928352602083019190915260c01b6001600160c01b031916604082015260480190565b600060208284031215614fd757600080fd5b5051919050565b9485526020850193909352604084019190915260c01b6001600160c01b0319166060808401919091521b6001600160601b0319166068820152607c0190565b60006001820161502f5761502f614e11565b5060010190565b60006001600160401b038381169083168181101561505657615056614e11565b039392505050565b60008282101561507057615070614e11565b500390565b600081600019048311821515161561508f5761508f614e11565b500290565b601f8211156145cd57600081815260208120601f850160051c810160208610156150bb5750805b601f850160051c820191505b81811015613a9d578281556001016150c7565b81516001600160401b038111156150f3576150f3614a71565b615107816151018454614d94565b84615094565b602080601f83116001811461513c57600084156151245750858301515b600019600386901b1c1916600185901b178555613a9d565b600085815260208120601f198616915b8281101561516b5788860151825594840194600190910190840161514c565b50858210156151895787850151600019600388901b60f8161c191681555b5050505050600190811b01905550565b60208082526039908201527f506f6c79676f6e5a6b45564d3a3a696e697469616c697a653a20457863656564604082015278081a185b1d081859d9dc9959d85d1a5bdb881d1a5b595bdd5d603a1b606082015260800190565b634e487b7160e01b600052601260045260246000fd5b600082615217576152176151f2565b500490565b60208082526043908201527f506f6c79676f6e5a6b45564d3a3a6973466f7263654261746368416c6c6f776560408201527f643a204f6e6c7920696620666f72636520626174636820697320617661696c61606082015262626c6560e81b608082015260a00190565b6000821982111561529857615298614e11565b500190565b60008235605e19833603018112614ee657600080fd5b6000606082360312156152c557600080fd5b604051606081016001600160401b0382821081831117156152e8576152e8614a71565b8160405284359150808211156152fd57600080fd5b5061530a36828601614a87565b8252506020830135602082015261532360408401614883565b604082015292915050565b6020808252603c908201527f506f6c79676f6e5a6b45564d3a3a6f6e6c79547275737465644167677265676160408201527f746f723a204f6e6c7920747275737465642061676772656761746f7200000000606082015260800190565b8183823760009101908152919050565b8481526001600160a01b03841660208201526060604082018190528101829052818360808301376000818301608090810191909152601f909201601f191601019392505050565b60006001600160401b03808416806153fc576153fc6151f2565b92169190910492915050565b60008251614ee68184602087016147ed565b600082615429576154296151f2565b500690565b61012081016040808784376000838201818152879190815b600281101561546657848483379084018281529284019290600101615446565b5050828760c0870137610100850181815286935091505b600181101561549c57825182526020928301929091019060010161547d565b50505095945050505050565b6000602082840312156154ba57600080fd5b815161485881614cbe565b600181815b808511156155005781600019048211156154e6576154e6614e11565b808516156154f357918102915b93841c93908002906154ca565b509250929050565b600082615517575060016149b8565b81615524575060006149b8565b816001811461553a576002811461554457615560565b60019150506149b8565b60ff84111561555557615555614e11565b50506001821b6149b8565b5060208310610133831016604e8410600b8410161715615583575081810a6149b8565b61558d83836154c5565b80600019048211156155a1576155a1614e11565b029392505050565b6000614858838361550856fe506f6c79676f6e5a6b45564d3a3a6163746976617465456d657267656e637953506f6c79676f6e5a6b45564d3a3a5f766572696679426174636865733a20696e506f6c79676f6e5a6b45564d3a3a5f70726f766544697374696e637450656e64506f6c79676f6e5a6b45564d3a3a73657175656e6365466f7263654261746368506f6c79676f6e5a6b45564d3a3a73657175656e6365426174636865733a2046a264697066735822122060f7f797ee83f901dab7966860b61f4dd261c83ee4e47c0813f7ef4a6c6f0a3664736f6c634300080f0033",
  "linkReferences": {},
  "deployedLinkReferences": {}
}