{
  "_format": "hh-sol-artifact-1",
  "contractName": "PolygonZkEVMGlobalExitRootL2Mock",
  "sourceName": "contracts/mocks/PolygonZkEVMGlobalExitRootL2Mock.sol",
  "abi": [
    {
      "inputs": [
        {
          "internalType": "address",
          "name": "_bridgeAddress",
          "type": "address"
        }
      ],
      "stateMutability": "nonpayable",
      "type": "constructor"
    },
    {
      "inputs": [],
      "name": "OnlyAllowedContracts",
      "type": "error"
    },
    {
      "inputs": [],
      "name": "bridgeAddress",
      "outputs": [
        {
          "internalType": "address",
          "name": "",
          "type": "address"
        }
      ],
      "stateMutability": "view",
      "type": "function"
    },
    {
      "inputs": [
        {
          "internalType": "bytes32",
          "name": "",
          "type": "bytes32"
        }
      ],
      "name": "globalExitRootMap",
      "outputs": [
        {
          "internalType": "uint256",
          "name": "",
          "type": "uint256"
        }
      ],
      "stateMutability": "view",
      "type": "function"
    },
    {
      "inputs": [],
      "name": "lastRollupExitRoot",
      "outputs": [
        {
          "internalType": "bytes32",
          "name": "",
          "type": "bytes32"
        }
      ],
      "stateMutability": "view",
      "type": "function"
    },
    {
      "inputs": [
        {
          "internalType": "bytes32",
          "name": "newRoot",
          "type": "bytes32"
        }
      ],
      "name": "setExitRoot",
      "outputs": [],
      "stateMutability": "nonpayable",
      "type": "function"
    },
    {
      "inputs": [
        {
          "internalType": "bytes32",
          "name": "globalExitRoot",
          "type": "bytes32"
        },
        {
          "internalType": "uint256",
          "name": "blockNumber",
          "type": "uint256"
        }
      ],
      "name": "setLastGlobalExitRoot",
      "outputs": [],
      "stateMutability": "nonpayable",
      "type": "function"
    },
    {
      "inputs": [
        {
          "internalType": "bytes32",
          "name": "newRoot",
          "type": "bytes32"
        }
      ],
      "name": "updateExitRoot",
      "outputs": [],
      "stateMutability": "nonpayable",
      "type": "function"
    }
  ],
  "bytecode": "0x60a060405234801561000f575f80fd5b506040516102a73803806102a783398101604081905261002e9161003f565b6001600160a01b031660805261006c565b5f6020828403121561004f575f80fd5b81516001600160a01b0381168114610065575f80fd5b9392505050565b60805161021d61008a5f395f818160fa0152610159015261021d5ff3fe608060405234801561000f575f80fd5b506004361061006f575f3560e01c806333d6247d1161004d57806333d6247d146100c357806396e07459146100d6578063a3c573eb146100f5575f80fd5b806301fd904414610073578063116c40c31461008f578063257b3632146100a4575b5f80fd5b61007c60015481565b6040519081526020015b60405180910390f35b6100a261009d3660046101b0565b600155565b005b61007c6100b23660046101b0565b5f6020819052908152604090205481565b6100a26100d13660046101b0565b610141565b6100a26100e43660046101c7565b5f9182526020829052604090912055565b61011c7f000000000000000000000000000000000000000000000000000000000000000081565b60405173ffffffffffffffffffffffffffffffffffffffff9091168152602001610086565b3373ffffffffffffffffffffffffffffffffffffffff7f0000000000000000000000000000000000000000000000000000000000000000161461009d576040517fb49365dd00000000000000000000000000000000000000000000000000000000815260040160405180910390fd5b5f602082840312156101c0575f80fd5b5035919050565b5f80604083850312156101d8575f80fd5b5050803592602090910135915056fea264697066735822122025ad109a005fb9d5c4cc3098c00c8dcb8f24029d0414880425fd39dd3d12711164736f6c63430008180033",
  "linkReferences": {},
  "deployedLinkReferences": {}
}