{
  "_format": "hh-sol-artifact-1",
  "contractName": "PolygonZkEVMV2",
  "sourceName": "contracts/v2/consensus/zkEVM/PolygonZkEVMV2.sol",
  "abi": [
    {
      "inputs": [
        {
          "internalType": "contract IPolygonZkEVMGlobalExitRoot",
          "name": "_globalExitRootManager",
          "type": "address"
        },
        {
          "internalType": "contract IERC20Upgradeable",
          "name": "_pol",
          "type": "address"
        },
        {
          "internalType": "contract IPolygonZkEVMBridgeV2",
          "name": "_bridgeAddress",
          "type": "address"
        },
        {
          "internalType": "contract PolygonRollupManager",
          "name": "_rollupManager",
          "type": "address"
        }
      ],
      "stateMutability": "nonpayable",
      "type": "constructor"
    },
    {
      "inputs": [],
      "name": "BatchAlreadyVerified",
      "type": "error"
    },
    {
      "inputs": [],
      "name": "BatchNotSequencedOrNotSequenceEnd",
      "type": "error"
    },
    {
      "inputs": [],
      "name": "ExceedMaxVerifyBatches",
      "type": "error"
    },
    {
      "inputs": [],
      "name": "FinalNumBatchBelowLastVerifiedBatch",
      "type": "error"
    },
    {
      "inputs": [],
      "name": "FinalNumBatchDoesNotMatchPendingState",
      "type": "error"
    },
    {
      "inputs": [],
      "name": "FinalPendingStateNumInvalid",
      "type": "error"
    },
    {
      "inputs": [],
      "name": "ForceBatchNotAllowed",
      "type": "error"
    },
    {
      "inputs": [],
      "name": "ForceBatchTimeoutNotExpired",
      "type": "error"
    },
    {
      "inputs": [],
      "name": "ForceBatchesAlreadyActive",
      "type": "error"
    },
    {
      "inputs": [],
      "name": "ForceBatchesDescentralized",
      "type": "error"
    },
    {
      "inputs": [],
      "name": "ForceBatchesNotAllowedOnEmergencyState",
      "type": "error"
    },
    {
      "inputs": [],
      "name": "ForceBatchesOverflow",
      "type": "error"
    },
    {
      "inputs": [],
      "name": "ForcedDataDoesNotMatch",
      "type": "error"
    },
    {
      "inputs": [],
      "name": "GasTokenNetworkMustBeZeroOnEther",
      "type": "error"
    },
    {
      "inputs": [],
      "name": "GlobalExitRootNotExist",
      "type": "error"
    },
    {
      "inputs": [],
      "name": "HaltTimeoutNotExpired",
      "type": "error"
    },
    {
      "inputs": [],
      "name": "HaltTimeoutNotExpiredAfterEmergencyState",
      "type": "error"
    },
    {
      "inputs": [],
      "name": "HugeTokenMetadataNotSupported",
      "type": "error"
    },
    {
      "inputs": [],
      "name": "InitNumBatchAboveLastVerifiedBatch",
      "type": "error"
    },
    {
      "inputs": [],
      "name": "InitNumBatchDoesNotMatchPendingState",
      "type": "error"
    },
    {
      "inputs": [],
      "name": "InvalidInitializeTransaction",
      "type": "error"
    },
    {
      "inputs": [],
      "name": "InvalidProof",
      "type": "error"
    },
    {
      "inputs": [],
      "name": "InvalidRangeBatchTimeTarget",
      "type": "error"
    },
    {
      "inputs": [],
      "name": "InvalidRangeForceBatchTimeout",
      "type": "error"
    },
    {
      "inputs": [],
      "name": "InvalidRangeMultiplierBatchFee",
      "type": "error"
    },
    {
      "inputs": [],
      "name": "NewAccInputHashDoesNotExist",
      "type": "error"
    },
    {
      "inputs": [],
      "name": "NewPendingStateTimeoutMustBeLower",
      "type": "error"
    },
    {
      "inputs": [],
      "name": "NewStateRootNotInsidePrime",
      "type": "error"
    },
    {
      "inputs": [],
      "name": "NewTrustedAggregatorTimeoutMustBeLower",
      "type": "error"
    },
    {
      "inputs": [],
      "name": "NotEnoughMaticAmount",
      "type": "error"
    },
    {
      "inputs": [],
      "name": "NotEnoughPOLAmount",
      "type": "error"
    },
    {
      "inputs": [],
      "name": "OldAccInputHashDoesNotExist",
      "type": "error"
    },
    {
      "inputs": [],
      "name": "OldStateRootDoesNotExist",
      "type": "error"
    },
    {
      "inputs": [],
      "name": "OnlyAdmin",
      "type": "error"
    },
    {
      "inputs": [],
      "name": "OnlyPendingAdmin",
      "type": "error"
    },
    {
      "inputs": [],
      "name": "OnlyRollupManager",
      "type": "error"
    },
    {
      "inputs": [],
      "name": "OnlyTrustedAggregator",
      "type": "error"
    },
    {
      "inputs": [],
      "name": "OnlyTrustedSequencer",
      "type": "error"
    },
    {
      "inputs": [],
      "name": "PendingStateDoesNotExist",
      "type": "error"
    },
    {
      "inputs": [],
      "name": "PendingStateInvalid",
      "type": "error"
    },
    {
      "inputs": [],
      "name": "PendingStateNotConsolidable",
      "type": "error"
    },
    {
      "inputs": [],
      "name": "PendingStateTimeoutExceedHaltAggregationTimeout",
      "type": "error"
    },
    {
      "inputs": [],
      "name": "SequenceZeroBatches",
      "type": "error"
    },
    {
      "inputs": [],
      "name": "SequencedTimestampBelowForcedTimestamp",
      "type": "error"
    },
    {
      "inputs": [],
      "name": "SequencedTimestampInvalid",
      "type": "error"
    },
    {
      "inputs": [],
      "name": "StoredRootMustBeDifferentThanNewRoot",
      "type": "error"
    },
    {
      "inputs": [],
      "name": "TransactionsLengthAboveMax",
      "type": "error"
    },
    {
      "inputs": [],
      "name": "TrustedAggregatorTimeoutExceedHaltAggregationTimeout",
      "type": "error"
    },
    {
      "inputs": [],
      "name": "TrustedAggregatorTimeoutNotExpired",
      "type": "error"
    },
    {
      "anonymous": false,
      "inputs": [
        {
          "indexed": false,
          "internalType": "address",
          "name": "newAdmin",
          "type": "address"
        }
      ],
      "name": "AcceptAdminRole",
      "type": "event"
    },
    {
      "anonymous": false,
      "inputs": [
        {
          "indexed": true,
          "internalType": "uint64",
          "name": "forceBatchNum",
          "type": "uint64"
        },
        {
          "indexed": false,
          "internalType": "bytes32",
          "name": "lastGlobalExitRoot",
          "type": "bytes32"
        },
        {
          "indexed": false,
          "internalType": "address",
          "name": "sequencer",
          "type": "address"
        },
        {
          "indexed": false,
          "internalType": "bytes",
          "name": "transactions",
          "type": "bytes"
        }
      ],
      "name": "ForceBatch",
      "type": "event"
    },
    {
      "anonymous": false,
      "inputs": [
        {
          "indexed": false,
          "internalType": "bytes",
          "name": "transactions",
          "type": "bytes"
        },
        {
          "indexed": false,
          "internalType": "bytes32",
          "name": "lastGlobalExitRoot",
          "type": "bytes32"
        },
        {
          "indexed": false,
          "internalType": "address",
          "name": "sequencer",
          "type": "address"
        }
      ],
      "name": "InitialSequenceBatches",
      "type": "event"
    },
    {
      "anonymous": false,
      "inputs": [
        {
          "indexed": false,
          "internalType": "uint8",
          "name": "version",
          "type": "uint8"
        }
      ],
      "name": "Initialized",
      "type": "event"
    },
    {
      "anonymous": false,
      "inputs": [
        {
          "indexed": true,
          "internalType": "uint64",
          "name": "numBatch",
          "type": "uint64"
        }
      ],
      "name": "SequenceBatches",
      "type": "event"
    },
    {
      "anonymous": false,
      "inputs": [
        {
          "indexed": true,
          "internalType": "uint64",
          "name": "numBatch",
          "type": "uint64"
        }
      ],
      "name": "SequenceForceBatches",
      "type": "event"
    },
    {
      "anonymous": false,
      "inputs": [
        {
          "indexed": false,
          "internalType": "address",
          "name": "newForceBatchAddress",
          "type": "address"
        }
      ],
      "name": "SetForceBatchAddress",
      "type": "event"
    },
    {
      "anonymous": false,
      "inputs": [
        {
          "indexed": false,
          "internalType": "uint64",
          "name": "newforceBatchTimeout",
          "type": "uint64"
        }
      ],
      "name": "SetForceBatchTimeout",
      "type": "event"
    },
    {
      "anonymous": false,
      "inputs": [
        {
          "indexed": false,
          "internalType": "address",
          "name": "newTrustedSequencer",
          "type": "address"
        }
      ],
      "name": "SetTrustedSequencer",
      "type": "event"
    },
    {
      "anonymous": false,
      "inputs": [
        {
          "indexed": false,
          "internalType": "string",
          "name": "newTrustedSequencerURL",
          "type": "string"
        }
      ],
      "name": "SetTrustedSequencerURL",
      "type": "event"
    },
    {
      "anonymous": false,
      "inputs": [
        {
          "indexed": false,
          "internalType": "address",
          "name": "newPendingAdmin",
          "type": "address"
        }
      ],
      "name": "TransferAdminRole",
      "type": "event"
    },
    {
      "anonymous": false,
      "inputs": [
        {
          "indexed": true,
          "internalType": "uint64",
          "name": "numBatch",
          "type": "uint64"
        },
        {
          "indexed": false,
          "internalType": "bytes32",
          "name": "stateRoot",
          "type": "bytes32"
        },
        {
          "indexed": true,
          "internalType": "address",
          "name": "aggregator",
          "type": "address"
        }
      ],
      "name": "VerifyBatches",
      "type": "event"
    },
    {
      "inputs": [],
      "name": "GLOBAL_EXIT_ROOT_MANAGER_L2",
      "outputs": [
        {
          "internalType": "contract IBasePolygonZkEVMGlobalExitRoot",
          "name": "",
          "type": "address"
        }
      ],
      "stateMutability": "view",
      "type": "function"
    },
    {
      "inputs": [],
      "name": "INITIALIZE_TX_BRIDGE_LIST_LEN_LEN",
      "outputs": [
        {
          "internalType": "uint8",
          "name": "",
          "type": "uint8"
        }
      ],
      "stateMutability": "view",
      "type": "function"
    },
    {
      "inputs": [],
      "name": "INITIALIZE_TX_BRIDGE_PARAMS",
      "outputs": [
        {
          "internalType": "bytes",
          "name": "",
          "type": "bytes"
        }
      ],
      "stateMutability": "view",
      "type": "function"
    },
    {
      "inputs": [],
      "name": "INITIALIZE_TX_BRIDGE_PARAMS_AFTER_BRIDGE_ADDRESS",
      "outputs": [
        {
          "internalType": "bytes",
          "name": "",
          "type": "bytes"
        }
      ],
      "stateMutability": "view",
      "type": "function"
    },
    {
      "inputs": [],
      "name": "INITIALIZE_TX_BRIDGE_PARAMS_AFTER_BRIDGE_ADDRESS_EMPTY_METADATA",
      "outputs": [
        {
          "internalType": "bytes",
          "name": "",
          "type": "bytes"
        }
      ],
      "stateMutability": "view",
      "type": "function"
    },
    {
      "inputs": [],
      "name": "INITIALIZE_TX_CONSTANT_BYTES",
      "outputs": [
        {
          "internalType": "uint16",
          "name": "",
          "type": "uint16"
        }
      ],
      "stateMutability": "view",
      "type": "function"
    },
    {
      "inputs": [],
      "name": "INITIALIZE_TX_CONSTANT_BYTES_EMPTY_METADATA",
      "outputs": [
        {
          "internalType": "uint16",
          "name": "",
          "type": "uint16"
        }
      ],
      "stateMutability": "view",
      "type": "function"
    },
    {
      "inputs": [],
      "name": "INITIALIZE_TX_DATA_LEN_EMPTY_METADATA",
      "outputs": [
        {
          "internalType": "uint8",
          "name": "",
          "type": "uint8"
        }
      ],
      "stateMutability": "view",
      "type": "function"
    },
    {
      "inputs": [],
      "name": "INITIALIZE_TX_EFFECTIVE_PERCENTAGE",
      "outputs": [
        {
          "internalType": "bytes1",
          "name": "",
          "type": "bytes1"
        }
      ],
      "stateMutability": "view",
      "type": "function"
    },
    {
      "inputs": [],
      "name": "SIGNATURE_INITIALIZE_TX_R",
      "outputs": [
        {
          "internalType": "bytes32",
          "name": "",
          "type": "bytes32"
        }
      ],
      "stateMutability": "view",
      "type": "function"
    },
    {
      "inputs": [],
      "name": "SIGNATURE_INITIALIZE_TX_S",
      "outputs": [
        {
          "internalType": "bytes32",
          "name": "",
          "type": "bytes32"
        }
      ],
      "stateMutability": "view",
      "type": "function"
    },
    {
      "inputs": [],
      "name": "SIGNATURE_INITIALIZE_TX_V",
      "outputs": [
        {
          "internalType": "uint8",
          "name": "",
          "type": "uint8"
        }
      ],
      "stateMutability": "view",
      "type": "function"
    },
    {
      "inputs": [],
      "name": "acceptAdminRole",
      "outputs": [],
      "stateMutability": "nonpayable",
      "type": "function"
    },
    {
      "inputs": [],
      "name": "admin",
      "outputs": [
        {
          "internalType": "address",
          "name": "",
          "type": "address"
        }
      ],
      "stateMutability": "view",
      "type": "function"
    },
    {
      "inputs": [],
      "name": "bridgeAddress",
      "outputs": [
        {
          "internalType": "contract IPolygonZkEVMBridgeV2",
          "name": "",
          "type": "address"
        }
      ],
      "stateMutability": "view",
      "type": "function"
    },
    {
      "inputs": [],
      "name": "calculatePolPerForceBatch",
      "outputs": [
        {
          "internalType": "uint256",
          "name": "",
          "type": "uint256"
        }
      ],
      "stateMutability": "view",
      "type": "function"
    },
    {
      "inputs": [
        {
          "internalType": "bytes",
          "name": "transactions",
          "type": "bytes"
        },
        {
          "internalType": "uint256",
          "name": "polAmount",
          "type": "uint256"
        }
      ],
      "name": "forceBatch",
      "outputs": [],
      "stateMutability": "nonpayable",
      "type": "function"
    },
    {
      "inputs": [],
      "name": "forceBatchAddress",
      "outputs": [
        {
          "internalType": "address",
          "name": "",
          "type": "address"
        }
      ],
      "stateMutability": "view",
      "type": "function"
    },
    {
      "inputs": [],
      "name": "forceBatchTimeout",
      "outputs": [
        {
          "internalType": "uint64",
          "name": "",
          "type": "uint64"
        }
      ],
      "stateMutability": "view",
      "type": "function"
    },
    {
      "inputs": [
        {
          "internalType": "uint64",
          "name": "",
          "type": "uint64"
        }
      ],
      "name": "forcedBatches",
      "outputs": [
        {
          "internalType": "bytes32",
          "name": "",
          "type": "bytes32"
        }
      ],
      "stateMutability": "view",
      "type": "function"
    },
    {
      "inputs": [],
      "name": "gasTokenAddress",
      "outputs": [
        {
          "internalType": "address",
          "name": "",
          "type": "address"
        }
      ],
      "stateMutability": "view",
      "type": "function"
    },
    {
      "inputs": [],
      "name": "gasTokenNetwork",
      "outputs": [
        {
          "internalType": "uint32",
          "name": "",
          "type": "uint32"
        }
      ],
      "stateMutability": "view",
      "type": "function"
    },
    {
      "inputs": [
        {
          "internalType": "uint32",
          "name": "networkID",
          "type": "uint32"
        },
        {
          "internalType": "address",
          "name": "_gasTokenAddress",
          "type": "address"
        },
        {
          "internalType": "uint32",
          "name": "_gasTokenNetwork",
          "type": "uint32"
        },
        {
          "internalType": "bytes",
          "name": "_gasTokenMetadata",
          "type": "bytes"
        }
      ],
      "name": "generateInitializeTransaction",
      "outputs": [
        {
          "internalType": "bytes",
          "name": "",
          "type": "bytes"
        }
      ],
      "stateMutability": "view",
      "type": "function"
    },
    {
      "inputs": [],
      "name": "globalExitRootManager",
      "outputs": [
        {
          "internalType": "contract IPolygonZkEVMGlobalExitRoot",
          "name": "",
          "type": "address"
        }
      ],
      "stateMutability": "view",
      "type": "function"
    },
    {
      "inputs": [
        {
          "internalType": "address",
          "name": "_admin",
          "type": "address"
        },
        {
          "internalType": "address",
          "name": "sequencer",
          "type": "address"
        },
        {
          "internalType": "uint32",
          "name": "networkID",
          "type": "uint32"
        },
        {
          "internalType": "address",
          "name": "_gasTokenAddress",
          "type": "address"
        },
        {
          "internalType": "string",
          "name": "sequencerURL",
          "type": "string"
        },
        {
          "internalType": "string",
          "name": "_networkName",
          "type": "string"
        }
      ],
      "name": "initialize",
      "outputs": [],
      "stateMutability": "nonpayable",
      "type": "function"
    },
    {
      "inputs": [],
      "name": "lastAccInputHash",
      "outputs": [
        {
          "internalType": "bytes32",
          "name": "",
          "type": "bytes32"
        }
      ],
      "stateMutability": "view",
      "type": "function"
    },
    {
      "inputs": [],
      "name": "lastForceBatch",
      "outputs": [
        {
          "internalType": "uint64",
          "name": "",
          "type": "uint64"
        }
      ],
      "stateMutability": "view",
      "type": "function"
    },
    {
      "inputs": [],
      "name": "lastForceBatchSequenced",
      "outputs": [
        {
          "internalType": "uint64",
          "name": "",
          "type": "uint64"
        }
      ],
      "stateMutability": "view",
      "type": "function"
    },
    {
      "inputs": [],
      "name": "lastTimestamp",
      "outputs": [
        {
          "internalType": "uint64",
          "name": "",
          "type": "uint64"
        }
      ],
      "stateMutability": "view",
      "type": "function"
    },
    {
      "inputs": [],
      "name": "networkName",
      "outputs": [
        {
          "internalType": "string",
          "name": "",
          "type": "string"
        }
      ],
      "stateMutability": "view",
      "type": "function"
    },
    {
      "inputs": [
        {
          "internalType": "uint64",
          "name": "lastVerifiedBatch",
          "type": "uint64"
        },
        {
          "internalType": "bytes32",
          "name": "newStateRoot",
          "type": "bytes32"
        },
        {
          "internalType": "address",
          "name": "aggregator",
          "type": "address"
        }
      ],
      "name": "onVerifyBatches",
      "outputs": [],
      "stateMutability": "nonpayable",
      "type": "function"
    },
    {
      "inputs": [],
      "name": "pendingAdmin",
      "outputs": [
        {
          "internalType": "address",
          "name": "",
          "type": "address"
        }
      ],
      "stateMutability": "view",
      "type": "function"
    },
    {
      "inputs": [],
      "name": "pol",
      "outputs": [
        {
          "internalType": "contract IERC20Upgradeable",
          "name": "",
          "type": "address"
        }
      ],
      "stateMutability": "view",
      "type": "function"
    },
    {
      "inputs": [],
      "name": "rollupManager",
      "outputs": [
        {
          "internalType": "contract PolygonRollupManager",
          "name": "",
          "type": "address"
        }
      ],
      "stateMutability": "view",
      "type": "function"
    },
    {
      "inputs": [
        {
          "components": [
            {
              "internalType": "bytes",
              "name": "transactions",
              "type": "bytes"
            },
            {
              "internalType": "bytes32",
              "name": "globalExitRoot",
              "type": "bytes32"
            },
            {
              "internalType": "uint64",
              "name": "timestamp",
              "type": "uint64"
            },
            {
              "internalType": "uint64",
              "name": "minForcedTimestamp",
              "type": "uint64"
            }
          ],
          "internalType": "struct PolygonRollupBase.BatchData[]",
          "name": "batches",
          "type": "tuple[]"
        },
        {
          "internalType": "address",
          "name": "l2Coinbase",
          "type": "address"
        }
      ],
      "name": "sequenceBatches",
      "outputs": [],
      "stateMutability": "nonpayable",
      "type": "function"
    },
    {
      "inputs": [
        {
          "components": [
            {
              "internalType": "bytes",
              "name": "transactions",
              "type": "bytes"
            },
            {
              "internalType": "bytes32",
              "name": "globalExitRoot",
              "type": "bytes32"
            },
            {
              "internalType": "uint64",
              "name": "minForcedTimestamp",
              "type": "uint64"
            }
          ],
          "internalType": "struct PolygonRollupBase.ForcedBatchData[]",
          "name": "batches",
          "type": "tuple[]"
        }
      ],
      "name": "sequenceForceBatches",
      "outputs": [],
      "stateMutability": "nonpayable",
      "type": "function"
    },
    {
      "inputs": [
        {
          "internalType": "address",
          "name": "newForceBatchAddress",
          "type": "address"
        }
      ],
      "name": "setForceBatchAddress",
      "outputs": [],
      "stateMutability": "nonpayable",
      "type": "function"
    },
    {
      "inputs": [
        {
          "internalType": "uint64",
          "name": "newforceBatchTimeout",
          "type": "uint64"
        }
      ],
      "name": "setForceBatchTimeout",
      "outputs": [],
      "stateMutability": "nonpayable",
      "type": "function"
    },
    {
      "inputs": [
        {
          "internalType": "address",
          "name": "newTrustedSequencer",
          "type": "address"
        }
      ],
      "name": "setTrustedSequencer",
      "outputs": [],
      "stateMutability": "nonpayable",
      "type": "function"
    },
    {
      "inputs": [
        {
          "internalType": "string",
          "name": "newTrustedSequencerURL",
          "type": "string"
        }
      ],
      "name": "setTrustedSequencerURL",
      "outputs": [],
      "stateMutability": "nonpayable",
      "type": "function"
    },
    {
      "inputs": [
        {
          "internalType": "address",
          "name": "newPendingAdmin",
          "type": "address"
        }
      ],
      "name": "transferAdminRole",
      "outputs": [],
      "stateMutability": "nonpayable",
      "type": "function"
    },
    {
      "inputs": [],
      "name": "trustedSequencer",
      "outputs": [
        {
          "internalType": "address",
          "name": "",
          "type": "address"
        }
      ],
      "stateMutability": "view",
      "type": "function"
    },
    {
      "inputs": [],
      "name": "trustedSequencerURL",
      "outputs": [
        {
          "internalType": "string",
          "name": "",
          "type": "string"
        }
      ],
      "stateMutability": "view",
      "type": "function"
    }
  ],
  "bytecode": "0x6101006040523480156200001257600080fd5b50604051620049eb380380620049eb833981016040819052620000359162000071565b6001600160a01b0393841660a052918316608052821660c0521660e052620000d9565b6001600160a01b03811681146200006e57600080fd5b50565b600080600080608085870312156200008857600080fd5b8451620000958162000058565b6020860151909450620000a88162000058565b6040860151909350620000bb8162000058565b6060860151909250620000ce8162000058565b939692955090935050565b60805160a05160c05160e051614830620001bb60003960008181610517015281816109ad01528181610b1a015281816112710152818161133a0152818161135c015281816114f30152818161168601528181611c11015281816125f801528181612a5101528181612b1f01528181612c440152612d0c01526000818161067101528181611434015281816118e00152818161213a015261224201526000818161073501528181610f9401528181611a670152612e5701526000818161077a01528181610845015281816112c40152818161140a0152612e2b01526148306000f3fe608060405234801561001057600080fd5b50600436106102e85760003560e01c80636ff512cc11610191578063c7fffd4b116100e3578063d8d1091b11610097578063eaeb077b11610071578063eaeb077b146107bc578063f35dda47146107cf578063f851a440146107d757600080fd5b8063d8d1091b14610762578063e46761c414610775578063e7a7ed021461079c57600080fd5b8063cfa8ed47116100c8578063cfa8ed4714610710578063d02103ca14610730578063d7bc90ff1461075757600080fd5b8063c7fffd4b146106f5578063c89e42df146106fd57600080fd5b80639e00187711610145578063ada8f9191161011f578063ada8f919146106a6578063b0afe154146106b9578063c754c7ed146106c557600080fd5b80639e00187714610651578063a3c573eb1461066c578063a652f26c1461069357600080fd5b80637a5460c5116101765780637a5460c5146105fa5780638c3d73011461063657806391cafe321461063e57600080fd5b80636ff512cc146105d457806371257022146105e757600080fd5b80633cbc795b1161024a57806352bdeb6d116101fe578063676870d2116101d8578063676870d2146105a35780636b8616ce146105ab5780636e05d2cd146105cb57600080fd5b806352bdeb6d1461054c578063542028d5146105885780635e9145c91461059057600080fd5b8063456052671161022f57806345605267146104ea57806349b7b802146105125780634e4877061461053957600080fd5b80633cbc795b1461045557806340b5de6c1461049257600080fd5b806319d8ac61116102a15780632c111c06116102865780632c111c061461040057806332c2d153146104205780633c351e101461043557600080fd5b806319d8ac611461038e57806326782247146103bb57600080fd5b806305835f37116102d257806305835f3714610323578063107bf28c1461036c57806311e892d41461037457600080fd5b8062d0295d146102ed5780630350896314610308575b600080fd5b6102f56107fd565b6040519081526020015b60405180910390f35b610310602081565b60405161ffff90911681526020016102ff565b61035f6040518060400160405280600881526020017f80808401c9c3809400000000000000000000000000000000000000000000000081525081565b6040516102ff91906139c3565b61035f61091d565b61037c60f981565b60405160ff90911681526020016102ff565b6007546103a29067ffffffffffffffff1681565b60405167ffffffffffffffff90911681526020016102ff565b6001546103db9073ffffffffffffffffffffffffffffffffffffffff1681565b60405173ffffffffffffffffffffffffffffffffffffffff90911681526020016102ff565b6008546103db9073ffffffffffffffffffffffffffffffffffffffff1681565b61043361042e366004613a18565b6109ab565b005b6009546103db9073ffffffffffffffffffffffffffffffffffffffff1681565b60095461047d9074010000000000000000000000000000000000000000900463ffffffff1681565b60405163ffffffff90911681526020016102ff565b6104b97fff0000000000000000000000000000000000000000000000000000000000000081565b6040517fff0000000000000000000000000000000000000000000000000000000000000090911681526020016102ff565b6007546103a290700100000000000000000000000000000000900467ffffffffffffffff1681565b6103db7f000000000000000000000000000000000000000000000000000000000000000081565b610433610547366004613a5a565b610a7a565b61035f6040518060400160405280600281526020017f80b800000000000000000000000000000000000000000000000000000000000081525081565b61035f610c94565b61043361059e366004613ac3565b610ca1565b610310601f81565b6102f56105b9366004613a5a565b60066020526000908152604090205481565b6102f560055481565b6104336105e2366004613b0f565b6115ba565b6104336105f5366004613c58565b611684565b61035f6040518060400160405280600281526020017f80b900000000000000000000000000000000000000000000000000000000000081525081565b610433611e4d565b61043361064c366004613b0f565b611f20565b6103db73a40d5f56745a118d0906a34e69aec8c0db1cb8fa81565b6103db7f000000000000000000000000000000000000000000000000000000000000000081565b61035f6106a1366004613d05565b612039565b6104336106b4366004613b0f565b61241e565b6102f56405ca1ab1e081565b6007546103a2907801000000000000000000000000000000000000000000000000900467ffffffffffffffff1681565b61037c60e481565b61043361070b366004613d7a565b6124e8565b6002546103db9073ffffffffffffffffffffffffffffffffffffffff1681565b6103db7f000000000000000000000000000000000000000000000000000000000000000081565b6102f5635ca1ab1e81565b610433610770366004613daf565b61257b565b6103db7f000000000000000000000000000000000000000000000000000000000000000081565b6007546103a29068010000000000000000900467ffffffffffffffff1681565b6104336107ca366004613df1565b612bcc565b61037c601b81565b6000546103db9062010000900473ffffffffffffffffffffffffffffffffffffffff1681565b6040517f70a08231000000000000000000000000000000000000000000000000000000008152306004820152600090819073ffffffffffffffffffffffffffffffffffffffff7f000000000000000000000000000000000000000000000000000000000000000016906370a0823190602401602060405180830381865afa15801561088c573d6000803e3d6000fd5b505050506040513d601f19601f820116820180604052508101906108b09190613e69565b6007549091506000906108ef9067ffffffffffffffff700100000000000000000000000000000000820481169168010000000000000000900416613eb1565b67ffffffffffffffff1690508060000361090c5760009250505090565b6109168183613ed9565b9250505090565b6004805461092a90613f14565b80601f016020809104026020016040519081016040528092919081815260200182805461095690613f14565b80156109a35780601f10610978576101008083540402835291602001916109a3565b820191906000526020600020905b81548152906001019060200180831161098657829003601f168201915b505050505081565b7f000000000000000000000000000000000000000000000000000000000000000073ffffffffffffffffffffffffffffffffffffffff163314610a1a576040517fb9b3a2c800000000000000000000000000000000000000000000000000000000815260040160405180910390fd5b8073ffffffffffffffffffffffffffffffffffffffff168367ffffffffffffffff167f9c72852172521097ba7e1482e6b44b351323df0155f97f4ea18fcec28e1f596684604051610a6d91815260200190565b60405180910390a3505050565b60005462010000900473ffffffffffffffffffffffffffffffffffffffff163314610ad1576040517f4755657900000000000000000000000000000000000000000000000000000000815260040160405180910390fd5b62093a8067ffffffffffffffff82161115610b18576040517ff5e37f2f00000000000000000000000000000000000000000000000000000000815260040160405180910390fd5b7f000000000000000000000000000000000000000000000000000000000000000073ffffffffffffffffffffffffffffffffffffffff166315064c966040518163ffffffff1660e01b8152600401602060405180830381865afa158015610b83573d6000803e3d6000fd5b505050506040513d601f19601f82011682018060405250810190610ba79190613f67565b610c105760075467ffffffffffffffff7801000000000000000000000000000000000000000000000000909104811690821610610c10576040517ff5e37f2f00000000000000000000000000000000000000000000000000000000815260040160405180910390fd5b6007805477ffffffffffffffffffffffffffffffffffffffffffffffff16780100000000000000000000000000000000000000000000000067ffffffffffffffff8416908102919091179091556040519081527fa7eb6cb8a613eb4e8bddc1ac3d61ec6cf10898760f0b187bcca794c6ca6fa40b906020015b60405180910390a150565b6003805461092a90613f14565b60025473ffffffffffffffffffffffffffffffffffffffff163314610cf2576040517f11e7be1500000000000000000000000000000000000000000000000000000000815260040160405180910390fd5b816000819003610d2e576040517fcb591a5f00000000000000000000000000000000000000000000000000000000815260040160405180910390fd5b6103e8811115610d6a576040517fb59f753a00000000000000000000000000000000000000000000000000000000815260040160405180910390fd5b60075460055467ffffffffffffffff80831692700100000000000000000000000000000000900416908160005b858110156111a6576000898983818110610db357610db3613f89565b9050602002810190610dc59190613fb8565b610dce90613ff6565b8051805160209091012060608201519192509067ffffffffffffffff1615610f515785610dfa81614087565b96505060008183602001518460600151604051602001610e5293929190928352602083019190915260c01b7fffffffffffffffff00000000000000000000000000000000000000000000000016604082015260480190565b604080517fffffffffffffffffffffffffffffffffffffffffffffffffffffffffffffffe0818403018152918152815160209283012067ffffffffffffffff8a16600090815260069093529120549091508114610edb576040517fce3d755e00000000000000000000000000000000000000000000000000000000815260040160405180910390fd5b826060015167ffffffffffffffff16836040015167ffffffffffffffff161015610f31576040517f7f7ab87200000000000000000000000000000000000000000000000000000000815260040160405180910390fd5b5067ffffffffffffffff861660009081526006602052604081205561108e565b602082015115801590611018575060208201516040517f257b363200000000000000000000000000000000000000000000000000000000815260048101919091527f000000000000000000000000000000000000000000000000000000000000000073ffffffffffffffffffffffffffffffffffffffff169063257b3632906024016020604051808303816000875af1158015610ff2573d6000803e3d6000fd5b505050506040513d601f19601f820116820180604052508101906110169190613e69565b155b1561104f576040517f73bd668d00000000000000000000000000000000000000000000000000000000815260040160405180910390fd5b8151516201d4c0101561108e576040517fa29a6c7c00000000000000000000000000000000000000000000000000000000815260040160405180910390fd5b8667ffffffffffffffff16826040015167ffffffffffffffff1610806110c1575042826040015167ffffffffffffffff16115b156110f8576040517fea82791600000000000000000000000000000000000000000000000000000000815260040160405180910390fd5b602082810151604080850151815193840189905290830184905260608084019290925260c01b7fffffffffffffffff0000000000000000000000000000000000000000000000001660808301528a901b7fffffffffffffffffffffffffffffffffffffffff000000000000000000000000166088820152609c01604051602081830303815290604052805190602001209450816040015196505050808061119e906140ae565b915050610d97565b5060075467ffffffffffffffff68010000000000000000909104811690841611156111fd576040517fc630a00d00000000000000000000000000000000000000000000000000000000815260040160405180910390fd5b600780547fffffffffffffffffffffffffffffffffffffffffffffffff00000000000000001667ffffffffffffffff8681169190911790915560058390558590828116908516146113345760006112548386613eb1565b905061126a67ffffffffffffffff8216836140e6565b91506112eb7f00000000000000000000000000000000000000000000000000000000000000008267ffffffffffffffff166112a36107fd565b6112ad91906140f9565b73ffffffffffffffffffffffffffffffffffffffff7f00000000000000000000000000000000000000000000000000000000000000001691906130bb565b50600780547fffffffffffffffff0000000000000000ffffffffffffffffffffffffffffffff1670010000000000000000000000000000000067ffffffffffffffff8716021790555b611432337f0000000000000000000000000000000000000000000000000000000000000000837f000000000000000000000000000000000000000000000000000000000000000073ffffffffffffffffffffffffffffffffffffffff1663477fa2706040518163ffffffff1660e01b8152600401602060405180830381865afa1580156113c5573d6000803e3d6000fd5b505050506040513d601f19601f820116820180604052508101906113e99190613e69565b6113f391906140f9565b73ffffffffffffffffffffffffffffffffffffffff7f000000000000000000000000000000000000000000000000000000000000000016929190613194565b7f000000000000000000000000000000000000000000000000000000000000000073ffffffffffffffffffffffffffffffffffffffff166379e2cf976040518163ffffffff1660e01b8152600401600060405180830381600087803b15801561149a57600080fd5b505af11580156114ae573d6000803e3d6000fd5b50506040517f9a908e7300000000000000000000000000000000000000000000000000000000815267ffffffffffffffff8916600482015260248101869052600092507f000000000000000000000000000000000000000000000000000000000000000073ffffffffffffffffffffffffffffffffffffffff169150639a908e73906044016020604051808303816000875af1158015611552573d6000803e3d6000fd5b505050506040513d601f19601f820116820180604052508101906115769190614110565b60405190915067ffffffffffffffff8216907f303446e6a8cb73c83dff421c0b1d5e5ce0719dab1bff13660fc254e58cc17fce90600090a250505050505050505050565b60005462010000900473ffffffffffffffffffffffffffffffffffffffff163314611611576040517f4755657900000000000000000000000000000000000000000000000000000000815260040160405180910390fd5b600280547fffffffffffffffffffffffff00000000000000000000000000000000000000001673ffffffffffffffffffffffffffffffffffffffff83169081179091556040519081527ff54144f9611984021529f814a1cb6a41e22c58351510a0d9f7e822618abb9cc090602001610c89565b7f000000000000000000000000000000000000000000000000000000000000000073ffffffffffffffffffffffffffffffffffffffff1633146116f3576040517fb9b3a2c800000000000000000000000000000000000000000000000000000000815260040160405180910390fd5b600054610100900460ff16158080156117135750600054600160ff909116105b8061172d5750303b15801561172d575060005460ff166001145b6117be576040517f08c379a000000000000000000000000000000000000000000000000000000000815260206004820152602e60248201527f496e697469616c697a61626c653a20636f6e747261637420697320616c72656160448201527f647920696e697469616c697a656400000000000000000000000000000000000060648201526084015b60405180910390fd5b600080547fffffffffffffffffffffffffffffffffffffffffffffffffffffffffffffff00166001179055801561181c57600080547fffffffffffffffffffffffffffffffffffffffffffffffffffffffffffff00ff166101001790555b606073ffffffffffffffffffffffffffffffffffffffff851615611a0857611843856131f8565b61184c86613308565b6118558761340f565b6040516020016118679392919061412d565b604080517fffffffffffffffffffffffffffffffffffffffffffffffffffffffffffffffe0818403018152908290527f318aee3d00000000000000000000000000000000000000000000000000000000825273ffffffffffffffffffffffffffffffffffffffff878116600484015290925060009182917f0000000000000000000000000000000000000000000000000000000000000000169063318aee3d9060240160408051808303816000875af1158015611928573d6000803e3d6000fd5b505050506040513d601f19601f8201168201806040525081019061194c9190614166565b915091508163ffffffff166000146119c4576009805463ffffffff841674010000000000000000000000000000000000000000027fffffffffffffffff00000000000000000000000000000000000000000000000090911673ffffffffffffffffffffffffffffffffffffffff841617179055611a05565b600980547fffffffffffffffffffffffff00000000000000000000000000000000000000001673ffffffffffffffffffffffffffffffffffffffff89161790555b50505b600954600090611a5090889073ffffffffffffffffffffffffffffffffffffffff81169074010000000000000000000000000000000000000000900463ffffffff1685612039565b9050600081805190602001209050600042905060007f000000000000000000000000000000000000000000000000000000000000000073ffffffffffffffffffffffffffffffffffffffff16633ed691ef6040518163ffffffff1660e01b8152600401602060405180830381865afa158015611ad0573d6000803e3d6000fd5b505050506040513d601f19601f82011682018060405250810190611af49190613e69565b60408051600060208201819052918101869052606080820184905260c086901b7fffffffffffffffff0000000000000000000000000000000000000000000000001660808301528e901b7fffffffffffffffffffffffffffffffffffffffff00000000000000000000000016608882015291925090609c01604080518083037fffffffffffffffffffffffffffffffffffffffffffffffffffffffffffffffe0018152908290528051602090910120600780547fffffffffffffffffffffffffffffffffffffffffffffffff00000000000000001667ffffffffffffffff871617905560058190557f9a908e73000000000000000000000000000000000000000000000000000000008252600160048301526024820181905291507f000000000000000000000000000000000000000000000000000000000000000073ffffffffffffffffffffffffffffffffffffffff1690639a908e73906044016020604051808303816000875af1158015611c6f573d6000803e3d6000fd5b505050506040513d601f19601f82011682018060405250810190611c939190614110565b508c600060026101000a81548173ffffffffffffffffffffffffffffffffffffffff021916908373ffffffffffffffffffffffffffffffffffffffff1602179055508b600260006101000a81548173ffffffffffffffffffffffffffffffffffffffff021916908373ffffffffffffffffffffffffffffffffffffffff1602179055508860039081611d2591906141ee565b506004611d3289826141ee565b508c600860006101000a81548173ffffffffffffffffffffffffffffffffffffffff021916908373ffffffffffffffffffffffffffffffffffffffff16021790555062069780600760186101000a81548167ffffffffffffffff021916908367ffffffffffffffff1602179055507f060116213bcbf54ca19fd649dc84b59ab2bbd200ab199770e4d923e222a28e7f85838e604051611dd393929190614308565b60405180910390a15050505050508015611e4457600080547fffffffffffffffffffffffffffffffffffffffffffffffffffffffffffff00ff169055604051600181527f7f26b83ff96e1f2b6a682f133852f6798a09c465da95921460cefb38474024989060200160405180910390a15b50505050505050565b60015473ffffffffffffffffffffffffffffffffffffffff163314611e9e576040517fd1ec4b2300000000000000000000000000000000000000000000000000000000815260040160405180910390fd5b600154600080547fffffffffffffffffffff0000000000000000000000000000000000000000ffff1673ffffffffffffffffffffffffffffffffffffffff9092166201000081029290921790556040519081527f056dc487bbf0795d0bbb1b4f0af523a855503cff740bfb4d5475f7a90c091e8e9060200160405180910390a1565b60005462010000900473ffffffffffffffffffffffffffffffffffffffff163314611f77576040517f4755657900000000000000000000000000000000000000000000000000000000815260040160405180910390fd5b60085473ffffffffffffffffffffffffffffffffffffffff16611fc6576040517fd40d91c800000000000000000000000000000000000000000000000000000000815260040160405180910390fd5b600880547fffffffffffffffffffffffff00000000000000000000000000000000000000001673ffffffffffffffffffffffffffffffffffffffff83169081179091556040519081527f5fbd7dd171301c4a1611a84aac4ba86d119478560557755f7927595b082634fb90602001610c89565b6060600085858573a40d5f56745a118d0906a34e69aec8c0db1cb8fa60008760405160240161206d96959493929190614347565b604080517fffffffffffffffffffffffffffffffffffffffffffffffffffffffffffffffe08184030181529190526020810180517bffffffffffffffffffffffffffffffffffffffffffffffffffffffff167ff811bff70000000000000000000000000000000000000000000000000000000017905283519091506060906000036121be5760f9601f835161210291906143aa565b6040518060400160405280600881526020017f80808401c9c380940000000000000000000000000000000000000000000000008152507f00000000000000000000000000000000000000000000000000000000000000006040518060400160405280600281526020017f80b800000000000000000000000000000000000000000000000000000000000081525060e4876040516020016121a897969594939291906143c5565b60405160208183030381529060405290506122c2565b815161ffff10156121fb576040517f248b8f8200000000000000000000000000000000000000000000000000000000815260040160405180910390fd5b815160f961220a6020836143aa565b6040518060400160405280600881526020017f80808401c9c380940000000000000000000000000000000000000000000000008152507f00000000000000000000000000000000000000000000000000000000000000006040518060400160405280600281526020017f80b900000000000000000000000000000000000000000000000000000000000081525085886040516020016122af97969594939291906144a8565b6040516020818303038152906040529150505b805160208083019190912060408051600080825293810180835292909252601b908201526405ca1ab1e06060820152635ca1ab1e608082015260019060a0016020604051602081039080840390855afa158015612323573d6000803e3d6000fd5b50506040517fffffffffffffffffffffffffffffffffffffffffffffffffffffffffffffffe0015191505073ffffffffffffffffffffffffffffffffffffffff811661239b576040517fcd16196600000000000000000000000000000000000000000000000000000000815260040160405180910390fd5b6040516000906123e19084906405ca1ab1e090635ca1ab1e90601b907fff000000000000000000000000000000000000000000000000000000000000009060200161458b565b604080517fffffffffffffffffffffffffffffffffffffffffffffffffffffffffffffffe08184030181529190529450505050505b949350505050565b60005462010000900473ffffffffffffffffffffffffffffffffffffffff163314612475576040517f4755657900000000000000000000000000000000000000000000000000000000815260040160405180910390fd5b600180547fffffffffffffffffffffffff00000000000000000000000000000000000000001673ffffffffffffffffffffffffffffffffffffffff83169081179091556040519081527fa5b56b7906fd0a20e3f35120dd8343db1e12e037a6c90111c7e42885e82a1ce690602001610c89565b60005462010000900473ffffffffffffffffffffffffffffffffffffffff16331461253f576040517f4755657900000000000000000000000000000000000000000000000000000000815260040160405180910390fd5b600361254b82826141ee565b507f6b8f723a4c7a5335cafae8a598a0aa0301be1387c037dccc085b62add6448b2081604051610c8991906139c3565b60085473ffffffffffffffffffffffffffffffffffffffff16158015906125ba575060085473ffffffffffffffffffffffffffffffffffffffff163314155b156125f1576040517f24eff8c300000000000000000000000000000000000000000000000000000000815260040160405180910390fd5b4262093a807f000000000000000000000000000000000000000000000000000000000000000073ffffffffffffffffffffffffffffffffffffffff166330c27dde6040518163ffffffff1660e01b8152600401602060405180830381865afa158015612661573d6000803e3d6000fd5b505050506040513d601f19601f820116820180604052508101906126859190614110565b61268f91906145e7565b67ffffffffffffffff1611156126d1576040517f3d49ed4c00000000000000000000000000000000000000000000000000000000815260040160405180910390fd5b80600081900361270d576040517fcb591a5f00000000000000000000000000000000000000000000000000000000815260040160405180910390fd5b6103e8811115612749576040517fb59f753a00000000000000000000000000000000000000000000000000000000815260040160405180910390fd5b60075467ffffffffffffffff680100000000000000008204811691612784918491700100000000000000000000000000000000900416614608565b11156127bc576040517fc630a00d00000000000000000000000000000000000000000000000000000000815260040160405180910390fd5b60075460055470010000000000000000000000000000000090910467ffffffffffffffff169060005b83811015612a4b57600086868381811061280157612801613f89565b9050602002810190612813919061461b565b61281c9061464f565b90508361282881614087565b8251805160209182012081850151604080870151905194995091945060009361288a9386939101928352602083019190915260c01b7fffffffffffffffff00000000000000000000000000000000000000000000000016604082015260480190565b604080517fffffffffffffffffffffffffffffffffffffffffffffffffffffffffffffffe0818403018152918152815160209283012067ffffffffffffffff8916600090815260069093529120549091508114612913576040517fce3d755e00000000000000000000000000000000000000000000000000000000815260040160405180910390fd5b67ffffffffffffffff86166000908152600660205260408120556129386001886140e6565b84036129a75742600760189054906101000a900467ffffffffffffffff16846040015161296591906145e7565b67ffffffffffffffff1611156129a7576040517fc44a082100000000000000000000000000000000000000000000000000000000815260040160405180910390fd5b6020838101516040805192830188905282018490526060808301919091524260c01b7fffffffffffffffff00000000000000000000000000000000000000000000000016608083015233901b7fffffffffffffffffffffffffffffffffffffffff000000000000000000000000166088820152609c016040516020818303038152906040528051906020012094505050508080612a43906140ae565b9150506127e5565b50612a797f0000000000000000000000000000000000000000000000000000000000000000846112a36107fd565b60058190556007805467ffffffffffffffff848116700100000000000000000000000000000000027fffffffffffffffff0000000000000000ffffffffffffffff000000000000000090921642821617919091179091556040517f9a908e7300000000000000000000000000000000000000000000000000000000815290841660048201526024810182905260009073ffffffffffffffffffffffffffffffffffffffff7f00000000000000000000000000000000000000000000000000000000000000001690639a908e73906044016020604051808303816000875af1158015612b68573d6000803e3d6000fd5b505050506040513d601f19601f82011682018060405250810190612b8c9190614110565b60405190915067ffffffffffffffff8216907f648a61dd2438f072f5a1960939abd30f37aea80d2e94c9792ad142d3e0a490a490600090a2505050505050565b60085473ffffffffffffffffffffffffffffffffffffffff1615801590612c0b575060085473ffffffffffffffffffffffffffffffffffffffff163314155b15612c42576040517f24eff8c300000000000000000000000000000000000000000000000000000000815260040160405180910390fd5b7f000000000000000000000000000000000000000000000000000000000000000073ffffffffffffffffffffffffffffffffffffffff166315064c966040518163ffffffff1660e01b8152600401602060405180830381865afa158015612cad573d6000803e3d6000fd5b505050506040513d601f19601f82011682018060405250810190612cd19190613f67565b15612d08576040517f39258d1800000000000000000000000000000000000000000000000000000000815260040160405180910390fd5b60007f000000000000000000000000000000000000000000000000000000000000000073ffffffffffffffffffffffffffffffffffffffff1663604691696040518163ffffffff1660e01b8152600401602060405180830381865afa158015612d75573d6000803e3d6000fd5b505050506040513d601f19601f82011682018060405250810190612d999190613e69565b905081811115612dd5576040517f2354600f00000000000000000000000000000000000000000000000000000000815260040160405180910390fd5b611388831115612e11576040517fa29a6c7c00000000000000000000000000000000000000000000000000000000815260040160405180910390fd5b612e5373ffffffffffffffffffffffffffffffffffffffff7f000000000000000000000000000000000000000000000000000000000000000016333084613194565b60007f000000000000000000000000000000000000000000000000000000000000000073ffffffffffffffffffffffffffffffffffffffff16633ed691ef6040518163ffffffff1660e01b8152600401602060405180830381865afa158015612ec0573d6000803e3d6000fd5b505050506040513d601f19601f82011682018060405250810190612ee49190613e69565b600780549192506801000000000000000090910467ffffffffffffffff16906008612f0e83614087565b91906101000a81548167ffffffffffffffff021916908367ffffffffffffffff160217905550508484604051612f459291906146cd565b60408051918290038220602083015281018290527fffffffffffffffff0000000000000000000000000000000000000000000000004260c01b166060820152606801604080518083037fffffffffffffffffffffffffffffffffffffffffffffffffffffffffffffffe0018152918152815160209283012060075468010000000000000000900467ffffffffffffffff1660009081526006909352912055323303613055576007546040805183815233602082015260609181018290526000918101919091526801000000000000000090910467ffffffffffffffff16907ff94bb37db835f1ab585ee00041849a09b12cd081d77fa15ca070757619cbc9319060800160405180910390a26130b4565b600760089054906101000a900467ffffffffffffffff1667ffffffffffffffff167ff94bb37db835f1ab585ee00041849a09b12cd081d77fa15ca070757619cbc931823388886040516130ab94939291906146dd565b60405180910390a25b5050505050565b60405173ffffffffffffffffffffffffffffffffffffffff831660248201526044810182905261318f9084907fa9059cbb00000000000000000000000000000000000000000000000000000000906064015b604080517fffffffffffffffffffffffffffffffffffffffffffffffffffffffffffffffe08184030181529190526020810180517bffffffffffffffffffffffffffffffffffffffffffffffffffffffff167fffffffff0000000000000000000000000000000000000000000000000000000090931692909217909152613502565b505050565b60405173ffffffffffffffffffffffffffffffffffffffff808516602483015283166044820152606481018290526131f29085907f23b872dd000000000000000000000000000000000000000000000000000000009060840161310d565b50505050565b60408051600481526024810182526020810180517bffffffffffffffffffffffffffffffffffffffffffffffffffffffff167f06fdde03000000000000000000000000000000000000000000000000000000001790529051606091600091829173ffffffffffffffffffffffffffffffffffffffff86169161327a919061474e565b600060405180830381855afa9150503d80600081146132b5576040519150601f19603f3d011682016040523d82523d6000602084013e6132ba565b606091505b5091509150816132ff576040518060400160405280600781526020017f4e4f5f4e414d4500000000000000000000000000000000000000000000000000815250612416565b6124168161360e565b60408051600481526024810182526020810180517bffffffffffffffffffffffffffffffffffffffffffffffffffffffff167f95d89b41000000000000000000000000000000000000000000000000000000001790529051606091600091829173ffffffffffffffffffffffffffffffffffffffff86169161338a919061474e565b600060405180830381855afa9150503d80600081146133c5576040519150601f19603f3d011682016040523d82523d6000602084013e6133ca565b606091505b5091509150816132ff576040518060400160405280600981526020017f4e4f5f53594d424f4c0000000000000000000000000000000000000000000000815250612416565b60408051600481526024810182526020810180517bffffffffffffffffffffffffffffffffffffffffffffffffffffffff167f313ce5670000000000000000000000000000000000000000000000000000000017905290516000918291829173ffffffffffffffffffffffffffffffffffffffff861691613490919061474e565b600060405180830381855afa9150503d80600081146134cb576040519150601f19603f3d011682016040523d82523d6000602084013e6134d0565b606091505b50915091508180156134e3575080516020145b6134ee576012612416565b808060200190518101906124169190614760565b6000613564826040518060400160405280602081526020017f5361666545524332303a206c6f772d6c6576656c2063616c6c206661696c65648152508573ffffffffffffffffffffffffffffffffffffffff166137e49092919063ffffffff16565b80519091501561318f57808060200190518101906135829190613f67565b61318f576040517f08c379a000000000000000000000000000000000000000000000000000000000815260206004820152602a60248201527f5361666545524332303a204552433230206f7065726174696f6e20646964206e60448201527f6f7420737563636565640000000000000000000000000000000000000000000060648201526084016117b5565b60606040825110613633578180602001905181019061362d9190614783565b92915050565b81516020036137ab5760005b602081108015613686575082818151811061365c5761365c613f89565b01602001517fff000000000000000000000000000000000000000000000000000000000000001615155b1561369d5780613695816140ae565b91505061363f565b806000036136e057505060408051808201909152601281527f4e4f545f56414c49445f454e434f44494e4700000000000000000000000000006020820152919050565b60008167ffffffffffffffff8111156136fb576136fb613b3e565b6040519080825280601f01601f191660200182016040528015613725576020820181803683370190505b50905060005b828110156137a35784818151811061374557613745613f89565b602001015160f81c60f81b82828151811061376257613762613f89565b60200101907effffffffffffffffffffffffffffffffffffffffffffffffffffffffffffff1916908160001a9053508061379b816140ae565b91505061372b565b509392505050565b505060408051808201909152601281527f4e4f545f56414c49445f454e434f44494e470000000000000000000000000000602082015290565b60606124168484600085856000808673ffffffffffffffffffffffffffffffffffffffff168587604051613818919061474e565b60006040518083038185875af1925050503d8060008114613855576040519150601f19603f3d011682016040523d82523d6000602084013e61385a565b606091505b509150915061386b87838387613876565b979650505050505050565b6060831561390c5782516000036139055773ffffffffffffffffffffffffffffffffffffffff85163b613905576040517f08c379a000000000000000000000000000000000000000000000000000000000815260206004820152601d60248201527f416464726573733a2063616c6c20746f206e6f6e2d636f6e747261637400000060448201526064016117b5565b5081612416565b61241683838151156139215781518083602001fd5b806040517f08c379a00000000000000000000000000000000000000000000000000000000081526004016117b591906139c3565b60005b83811015613970578181015183820152602001613958565b50506000910152565b60008151808452613991816020860160208601613955565b601f017fffffffffffffffffffffffffffffffffffffffffffffffffffffffffffffffe0169290920160200192915050565b6020815260006139d66020830184613979565b9392505050565b67ffffffffffffffff811681146139f357600080fd5b50565b73ffffffffffffffffffffffffffffffffffffffff811681146139f357600080fd5b600080600060608486031215613a2d57600080fd5b8335613a38816139dd565b9250602084013591506040840135613a4f816139f6565b809150509250925092565b600060208284031215613a6c57600080fd5b81356139d6816139dd565b60008083601f840112613a8957600080fd5b50813567ffffffffffffffff811115613aa157600080fd5b6020830191508360208260051b8501011115613abc57600080fd5b9250929050565b600080600060408486031215613ad857600080fd5b833567ffffffffffffffff811115613aef57600080fd5b613afb86828701613a77565b9094509250506020840135613a4f816139f6565b600060208284031215613b2157600080fd5b81356139d6816139f6565b63ffffffff811681146139f357600080fd5b7f4e487b7100000000000000000000000000000000000000000000000000000000600052604160045260246000fd5b604051601f82017fffffffffffffffffffffffffffffffffffffffffffffffffffffffffffffffe016810167ffffffffffffffff81118282101715613bb457613bb4613b3e565b604052919050565b600067ffffffffffffffff821115613bd657613bd6613b3e565b50601f017fffffffffffffffffffffffffffffffffffffffffffffffffffffffffffffffe01660200190565b600082601f830112613c1357600080fd5b8135613c26613c2182613bbc565b613b6d565b818152846020838601011115613c3b57600080fd5b816020850160208301376000918101602001919091529392505050565b60008060008060008060c08789031215613c7157600080fd5b8635613c7c816139f6565b95506020870135613c8c816139f6565b94506040870135613c9c81613b2c565b93506060870135613cac816139f6565b9250608087013567ffffffffffffffff80821115613cc957600080fd5b613cd58a838b01613c02565b935060a0890135915080821115613ceb57600080fd5b50613cf889828a01613c02565b9150509295509295509295565b60008060008060808587031215613d1b57600080fd5b8435613d2681613b2c565b93506020850135613d36816139f6565b92506040850135613d4681613b2c565b9150606085013567ffffffffffffffff811115613d6257600080fd5b613d6e87828801613c02565b91505092959194509250565b600060208284031215613d8c57600080fd5b813567ffffffffffffffff811115613da357600080fd5b61241684828501613c02565b60008060208385031215613dc257600080fd5b823567ffffffffffffffff811115613dd957600080fd5b613de585828601613a77565b90969095509350505050565b600080600060408486031215613e0657600080fd5b833567ffffffffffffffff80821115613e1e57600080fd5b818601915086601f830112613e3257600080fd5b813581811115613e4157600080fd5b876020828501011115613e5357600080fd5b6020928301989097509590910135949350505050565b600060208284031215613e7b57600080fd5b5051919050565b7f4e487b7100000000000000000000000000000000000000000000000000000000600052601160045260246000fd5b67ffffffffffffffff828116828216039080821115613ed257613ed2613e82565b5092915050565b600082613f0f577f4e487b7100000000000000000000000000000000000000000000000000000000600052601260045260246000fd5b500490565b600181811c90821680613f2857607f821691505b602082108103613f61577f4e487b7100000000000000000000000000000000000000000000000000000000600052602260045260246000fd5b50919050565b600060208284031215613f7957600080fd5b815180151581146139d657600080fd5b7f4e487b7100000000000000000000000000000000000000000000000000000000600052603260045260246000fd5b600082357fffffffffffffffffffffffffffffffffffffffffffffffffffffffffffffff81833603018112613fec57600080fd5b9190910192915050565b60006080823603121561400857600080fd5b6040516080810167ffffffffffffffff828210818311171561402c5761402c613b3e565b81604052843591508082111561404157600080fd5b5061404e36828601613c02565b825250602083013560208201526040830135614069816139dd565b6040820152606083013561407c816139dd565b606082015292915050565b600067ffffffffffffffff8083168181036140a4576140a4613e82565b6001019392505050565b60007fffffffffffffffffffffffffffffffffffffffffffffffffffffffffffffffff82036140df576140df613e82565b5060010190565b8181038181111561362d5761362d613e82565b808202811582820484141761362d5761362d613e82565b60006020828403121561412257600080fd5b81516139d6816139dd565b6060815260006141406060830186613979565b82810360208401526141528186613979565b91505060ff83166040830152949350505050565b6000806040838503121561417957600080fd5b825161418481613b2c565b6020840151909250614195816139f6565b809150509250929050565b601f82111561318f57600081815260208120601f850160051c810160208610156141c75750805b601f850160051c820191505b818110156141e6578281556001016141d3565b505050505050565b815167ffffffffffffffff81111561420857614208613b3e565b61421c816142168454613f14565b846141a0565b602080601f83116001811461426f57600084156142395750858301515b7fffffffffffffffffffffffffffffffffffffffffffffffffffffffffffffffff600386901b1c1916600185901b1785556141e6565b6000858152602081207fffffffffffffffffffffffffffffffffffffffffffffffffffffffffffffffe08616915b828110156142bc5788860151825594840194600190910190840161429d565b50858210156142f857878501517fffffffffffffffffffffffffffffffffffffffffffffffffffffffffffffffff600388901b60f8161c191681555b5050505050600190811b01905550565b60608152600061431b6060830186613979565b905083602083015273ffffffffffffffffffffffffffffffffffffffff83166040830152949350505050565b600063ffffffff808916835273ffffffffffffffffffffffffffffffffffffffff8089166020850152818816604085015280871660608501528086166080850152505060c060a083015261439e60c0830184613979565b98975050505050505050565b61ffff818116838216019080821115613ed257613ed2613e82565b60007fff00000000000000000000000000000000000000000000000000000000000000808a60f81b1683527fffff0000000000000000000000000000000000000000000000000000000000008960f01b166001840152875161442e816003860160208c01613955565b80840190507fffffffffffffffffffffffffffffffffffffffff0000000000000000000000008860601b1660038201528651614471816017840160208b01613955565b808201915050818660f81b16601782015284519150614497826018830160208801613955565b016018019998505050505050505050565b7fff000000000000000000000000000000000000000000000000000000000000008860f81b16815260007fffff000000000000000000000000000000000000000000000000000000000000808960f01b1660018401528751614511816003860160208c01613955565b80840190507fffffffffffffffffffffffffffffffffffffffff0000000000000000000000008860601b1660038201528651614554816017840160208b01613955565b808201915050818660f01b1660178201528451915061457a826019830160208801613955565b016019019998505050505050505050565b6000865161459d818460208b01613955565b9190910194855250602084019290925260f81b7fff000000000000000000000000000000000000000000000000000000000000009081166040840152166041820152604201919050565b67ffffffffffffffff818116838216019080821115613ed257613ed2613e82565b8082018082111561362d5761362d613e82565b600082357fffffffffffffffffffffffffffffffffffffffffffffffffffffffffffffffa1833603018112613fec57600080fd5b60006060823603121561466157600080fd5b6040516060810167ffffffffffffffff828210818311171561468557614685613b3e565b81604052843591508082111561469a57600080fd5b506146a736828601613c02565b8252506020830135602082015260408301356146c2816139dd565b604082015292915050565b8183823760009101908152919050565b84815273ffffffffffffffffffffffffffffffffffffffff8416602082015260606040820152816060820152818360808301376000818301608090810191909152601f9092017fffffffffffffffffffffffffffffffffffffffffffffffffffffffffffffffe01601019392505050565b60008251613fec818460208701613955565b60006020828403121561477257600080fd5b815160ff811681146139d657600080fd5b60006020828403121561479557600080fd5b815167ffffffffffffffff8111156147ac57600080fd5b8201601f810184136147bd57600080fd5b80516147cb613c2182613bbc565b8181528560208385010111156147e057600080fd5b6147f1826020830160208601613955565b9594505050505056fea264697066735822122054d17ab62a9c80223317103957a799f93d742c7a9fb607c4af5b2f022a2d816e64736f6c63430008140033",
  "linkReferences": {},
  "deployedLinkReferences": {}
}