{
  "_format": "hh-sol-artifact-1",
  "contractName": "PolygonZkEVMBridgeMock",
  "sourceName": "contracts/mocks/PolygonZkEVMBridgeMock.sol",
  "abi": [
    {
      "inputs": [],
      "name": "AlreadyClaimed",
      "type": "error"
    },
    {
      "inputs": [],
      "name": "AmountDoesNotMatchMsgValue",
      "type": "error"
    },
    {
      "inputs": [],
      "name": "DestinationNetworkInvalid",
      "type": "error"
    },
    {
      "inputs": [],
      "name": "EtherTransferFailed",
      "type": "error"
    },
    {
      "inputs": [],
      "name": "GlobalExitRootInvalid",
      "type": "error"
    },
    {
      "inputs": [],
      "name": "InvalidSmtProof",
      "type": "error"
    },
    {
      "inputs": [],
      "name": "MerkleTreeFull",
      "type": "error"
    },
    {
      "inputs": [],
      "name": "MessageFailed",
      "type": "error"
    },
    {
      "inputs": [],
      "name": "MsgValueNotZero",
      "type": "error"
    },
    {
      "inputs": [],
      "name": "NotValidAmount",
      "type": "error"
    },
    {
      "inputs": [],
      "name": "NotValidOwner",
      "type": "error"
    },
    {
      "inputs": [],
      "name": "NotValidSignature",
      "type": "error"
    },
    {
      "inputs": [],
      "name": "NotValidSpender",
      "type": "error"
    },
    {
      "inputs": [],
      "name": "OnlyEmergencyState",
      "type": "error"
    },
    {
      "inputs": [],
      "name": "OnlyNotEmergencyState",
      "type": "error"
    },
    {
      "inputs": [],
      "name": "OnlyPolygonZkEVM",
      "type": "error"
    },
    {
      "anonymous": false,
      "inputs": [
        {
          "indexed": false,
          "internalType": "uint8",
          "name": "leafType",
          "type": "uint8"
        },
        {
          "indexed": false,
          "internalType": "uint32",
          "name": "originNetwork",
          "type": "uint32"
        },
        {
          "indexed": false,
          "internalType": "address",
          "name": "originAddress",
          "type": "address"
        },
        {
          "indexed": false,
          "internalType": "uint32",
          "name": "destinationNetwork",
          "type": "uint32"
        },
        {
          "indexed": false,
          "internalType": "address",
          "name": "destinationAddress",
          "type": "address"
        },
        {
          "indexed": false,
          "internalType": "uint256",
          "name": "amount",
          "type": "uint256"
        },
        {
          "indexed": false,
          "internalType": "bytes",
          "name": "metadata",
          "type": "bytes"
        },
        {
          "indexed": false,
          "internalType": "uint32",
          "name": "depositCount",
          "type": "uint32"
        }
      ],
      "name": "BridgeEvent",
      "type": "event"
    },
    {
      "anonymous": false,
      "inputs": [
        {
          "indexed": false,
          "internalType": "uint32",
          "name": "index",
          "type": "uint32"
        },
        {
          "indexed": false,
          "internalType": "uint32",
          "name": "originNetwork",
          "type": "uint32"
        },
        {
          "indexed": false,
          "internalType": "address",
          "name": "originAddress",
          "type": "address"
        },
        {
          "indexed": false,
          "internalType": "address",
          "name": "destinationAddress",
          "type": "address"
        },
        {
          "indexed": false,
          "internalType": "uint256",
          "name": "amount",
          "type": "uint256"
        }
      ],
      "name": "ClaimEvent",
      "type": "event"
    },
    {
      "anonymous": false,
      "inputs": [],
      "name": "EmergencyStateActivated",
      "type": "event"
    },
    {
      "anonymous": false,
      "inputs": [],
      "name": "EmergencyStateDeactivated",
      "type": "event"
    },
    {
      "anonymous": false,
      "inputs": [
        {
          "indexed": false,
          "internalType": "uint8",
          "name": "version",
          "type": "uint8"
        }
      ],
      "name": "Initialized",
      "type": "event"
    },
    {
      "anonymous": false,
      "inputs": [
        {
          "indexed": false,
          "internalType": "uint32",
          "name": "originNetwork",
          "type": "uint32"
        },
        {
          "indexed": false,
          "internalType": "address",
          "name": "originTokenAddress",
          "type": "address"
        },
        {
          "indexed": false,
          "internalType": "address",
          "name": "wrappedTokenAddress",
          "type": "address"
        },
        {
          "indexed": false,
          "internalType": "bytes",
          "name": "metadata",
          "type": "bytes"
        }
      ],
      "name": "NewWrappedToken",
      "type": "event"
    },
    {
      "anonymous": false,
      "inputs": [
        {
          "indexed": true,
          "internalType": "address",
          "name": "previousOwner",
          "type": "address"
        },
        {
          "indexed": true,
          "internalType": "address",
          "name": "newOwner",
          "type": "address"
        }
      ],
      "name": "OwnershipTransferred",
      "type": "event"
    },
    {
      "inputs": [],
      "name": "activateEmergencyState",
      "outputs": [],
      "stateMutability": "nonpayable",
      "type": "function"
    },
    {
      "inputs": [
        {
          "internalType": "uint32",
          "name": "destinationNetwork",
          "type": "uint32"
        },
        {
          "internalType": "address",
          "name": "destinationAddress",
          "type": "address"
        },
        {
          "internalType": "uint256",
          "name": "amount",
          "type": "uint256"
        },
        {
          "internalType": "address",
          "name": "token",
          "type": "address"
        },
        {
          "internalType": "bool",
          "name": "forceUpdateGlobalExitRoot",
          "type": "bool"
        },
        {
          "internalType": "bytes",
          "name": "permitData",
          "type": "bytes"
        }
      ],
      "name": "bridgeAsset",
      "outputs": [],
      "stateMutability": "payable",
      "type": "function"
    },
    {
      "inputs": [
        {
          "internalType": "uint32",
          "name": "destinationNetwork",
          "type": "uint32"
        },
        {
          "internalType": "address",
          "name": "destinationAddress",
          "type": "address"
        },
        {
          "internalType": "bool",
          "name": "forceUpdateGlobalExitRoot",
          "type": "bool"
        },
        {
          "internalType": "bytes",
          "name": "metadata",
          "type": "bytes"
        }
      ],
      "name": "bridgeMessage",
      "outputs": [],
      "stateMutability": "payable",
      "type": "function"
    },
    {
      "inputs": [
        {
          "internalType": "bytes32[32]",
          "name": "smtProof",
          "type": "bytes32[32]"
        },
        {
          "internalType": "uint32",
          "name": "index",
          "type": "uint32"
        },
        {
          "internalType": "bytes32",
          "name": "mainnetExitRoot",
          "type": "bytes32"
        },
        {
          "internalType": "bytes32",
          "name": "rollupExitRoot",
          "type": "bytes32"
        },
        {
          "internalType": "uint32",
          "name": "originNetwork",
          "type": "uint32"
        },
        {
          "internalType": "address",
          "name": "originTokenAddress",
          "type": "address"
        },
        {
          "internalType": "uint32",
          "name": "destinationNetwork",
          "type": "uint32"
        },
        {
          "internalType": "address",
          "name": "destinationAddress",
          "type": "address"
        },
        {
          "internalType": "uint256",
          "name": "amount",
          "type": "uint256"
        },
        {
          "internalType": "bytes",
          "name": "metadata",
          "type": "bytes"
        }
      ],
      "name": "claimAsset",
      "outputs": [],
      "stateMutability": "nonpayable",
      "type": "function"
    },
    {
      "inputs": [
        {
          "internalType": "bytes32[32]",
          "name": "smtProof",
          "type": "bytes32[32]"
        },
        {
          "internalType": "uint32",
          "name": "index",
          "type": "uint32"
        },
        {
          "internalType": "bytes32",
          "name": "mainnetExitRoot",
          "type": "bytes32"
        },
        {
          "internalType": "bytes32",
          "name": "rollupExitRoot",
          "type": "bytes32"
        },
        {
          "internalType": "uint32",
          "name": "originNetwork",
          "type": "uint32"
        },
        {
          "internalType": "address",
          "name": "originAddress",
          "type": "address"
        },
        {
          "internalType": "uint32",
          "name": "destinationNetwork",
          "type": "uint32"
        },
        {
          "internalType": "address",
          "name": "destinationAddress",
          "type": "address"
        },
        {
          "internalType": "uint256",
          "name": "amount",
          "type": "uint256"
        },
        {
          "internalType": "bytes",
          "name": "metadata",
          "type": "bytes"
        }
      ],
      "name": "claimMessage",
      "outputs": [],
      "stateMutability": "nonpayable",
      "type": "function"
    },
    {
      "inputs": [
        {
          "internalType": "uint256",
          "name": "",
          "type": "uint256"
        }
      ],
      "name": "claimedBitMap",
      "outputs": [
        {
          "internalType": "uint256",
          "name": "",
          "type": "uint256"
        }
      ],
      "stateMutability": "view",
      "type": "function"
    },
    {
      "inputs": [],
      "name": "deactivateEmergencyState",
      "outputs": [],
      "stateMutability": "nonpayable",
      "type": "function"
    },
    {
      "inputs": [],
      "name": "depositCount",
      "outputs": [
        {
          "internalType": "uint256",
          "name": "",
          "type": "uint256"
        }
      ],
      "stateMutability": "view",
      "type": "function"
    },
    {
      "inputs": [],
      "name": "getDepositRoot",
      "outputs": [
        {
          "internalType": "bytes32",
          "name": "",
          "type": "bytes32"
        }
      ],
      "stateMutability": "view",
      "type": "function"
    },
    {
      "inputs": [
        {
          "internalType": "uint8",
          "name": "leafType",
          "type": "uint8"
        },
        {
          "internalType": "uint32",
          "name": "originNetwork",
          "type": "uint32"
        },
        {
          "internalType": "address",
          "name": "originAddress",
          "type": "address"
        },
        {
          "internalType": "uint32",
          "name": "destinationNetwork",
          "type": "uint32"
        },
        {
          "internalType": "address",
          "name": "destinationAddress",
          "type": "address"
        },
        {
          "internalType": "uint256",
          "name": "amount",
          "type": "uint256"
        },
        {
          "internalType": "bytes32",
          "name": "metadataHash",
          "type": "bytes32"
        }
      ],
      "name": "getLeafValue",
      "outputs": [
        {
          "internalType": "bytes32",
          "name": "",
          "type": "bytes32"
        }
      ],
      "stateMutability": "pure",
      "type": "function"
    },
    {
      "inputs": [
        {
          "internalType": "uint32",
          "name": "originNetwork",
          "type": "uint32"
        },
        {
          "internalType": "address",
          "name": "originTokenAddress",
          "type": "address"
        }
      ],
      "name": "getTokenWrappedAddress",
      "outputs": [
        {
          "internalType": "address",
          "name": "",
          "type": "address"
        }
      ],
      "stateMutability": "view",
      "type": "function"
    },
    {
      "inputs": [],
      "name": "globalExitRootManager",
      "outputs": [
        {
          "internalType": "contract IBasePolygonZkEVMGlobalExitRoot",
          "name": "",
          "type": "address"
        }
      ],
      "stateMutability": "view",
      "type": "function"
    },
    {
      "inputs": [
        {
          "internalType": "uint32",
          "name": "_networkID",
          "type": "uint32"
        },
        {
          "internalType": "contract IBasePolygonZkEVMGlobalExitRoot",
          "name": "_globalExitRootManager",
          "type": "address"
        },
        {
          "internalType": "address",
          "name": "_polygonZkEVMaddress",
          "type": "address"
        }
      ],
      "name": "initialize",
      "outputs": [],
      "stateMutability": "nonpayable",
      "type": "function"
    },
    {
      "inputs": [
        {
          "internalType": "uint256",
          "name": "index",
          "type": "uint256"
        }
      ],
      "name": "isClaimed",
      "outputs": [
        {
          "internalType": "bool",
          "name": "",
          "type": "bool"
        }
      ],
      "stateMutability": "view",
      "type": "function"
    },
    {
      "inputs": [],
      "name": "isEmergencyState",
      "outputs": [
        {
          "internalType": "bool",
          "name": "",
          "type": "bool"
        }
      ],
      "stateMutability": "view",
      "type": "function"
    },
    {
      "inputs": [],
      "name": "lastUpdatedDepositCount",
      "outputs": [
        {
          "internalType": "uint32",
          "name": "",
          "type": "uint32"
        }
      ],
      "stateMutability": "view",
      "type": "function"
    },
    {
      "inputs": [],
      "name": "maxEtherBridge",
      "outputs": [
        {
          "internalType": "uint256",
          "name": "",
          "type": "uint256"
        }
      ],
      "stateMutability": "view",
      "type": "function"
    },
    {
      "inputs": [],
      "name": "networkID",
      "outputs": [
        {
          "internalType": "uint32",
          "name": "",
          "type": "uint32"
        }
      ],
      "stateMutability": "view",
      "type": "function"
    },
    {
      "inputs": [],
      "name": "owner",
      "outputs": [
        {
          "internalType": "address",
          "name": "",
          "type": "address"
        }
      ],
      "stateMutability": "view",
      "type": "function"
    },
    {
      "inputs": [],
      "name": "polygonZkEVMaddress",
      "outputs": [
        {
          "internalType": "address",
          "name": "",
          "type": "address"
        }
      ],
      "stateMutability": "view",
      "type": "function"
    },
    {
      "inputs": [
        {
          "internalType": "uint32",
          "name": "originNetwork",
          "type": "uint32"
        },
        {
          "internalType": "address",
          "name": "originTokenAddress",
          "type": "address"
        },
        {
          "internalType": "string",
          "name": "name",
          "type": "string"
        },
        {
          "internalType": "string",
          "name": "symbol",
          "type": "string"
        },
        {
          "internalType": "uint8",
          "name": "decimals",
          "type": "uint8"
        }
      ],
      "name": "precalculatedWrapperAddress",
      "outputs": [
        {
          "internalType": "address",
          "name": "",
          "type": "address"
        }
      ],
      "stateMutability": "view",
      "type": "function"
    },
    {
      "inputs": [],
      "name": "renounceOwnership",
      "outputs": [],
      "stateMutability": "nonpayable",
      "type": "function"
    },
    {
      "inputs": [
        {
          "internalType": "uint256",
          "name": "_maxEtherBridge",
          "type": "uint256"
        }
      ],
      "name": "setMaxEtherBridge",
      "outputs": [],
      "stateMutability": "nonpayable",
      "type": "function"
    },
    {
      "inputs": [
        {
          "internalType": "uint32",
          "name": "_networkID",
          "type": "uint32"
        }
      ],
      "name": "setNetworkID",
      "outputs": [],
      "stateMutability": "nonpayable",
      "type": "function"
    },
    {
      "inputs": [
        {
          "internalType": "bytes32",
          "name": "",
          "type": "bytes32"
        }
      ],
      "name": "tokenInfoToWrappedToken",
      "outputs": [
        {
          "internalType": "address",
          "name": "",
          "type": "address"
        }
      ],
      "stateMutability": "view",
      "type": "function"
    },
    {
      "inputs": [
        {
          "internalType": "address",
          "name": "newOwner",
          "type": "address"
        }
      ],
      "name": "transferOwnership",
      "outputs": [],
      "stateMutability": "nonpayable",
      "type": "function"
    },
    {
      "inputs": [],
      "name": "updateGlobalExitRoot",
      "outputs": [],
      "stateMutability": "nonpayable",
      "type": "function"
    },
    {
      "inputs": [
        {
          "internalType": "bytes32",
          "name": "leafHash",
          "type": "bytes32"
        },
        {
          "internalType": "bytes32[32]",
          "name": "smtProof",
          "type": "bytes32[32]"
        },
        {
          "internalType": "uint32",
          "name": "index",
          "type": "uint32"
        },
        {
          "internalType": "bytes32",
          "name": "root",
          "type": "bytes32"
        }
      ],
      "name": "verifyMerkleProof",
      "outputs": [
        {
          "internalType": "bool",
          "name": "",
          "type": "bool"
        }
      ],
      "stateMutability": "pure",
      "type": "function"
    },
    {
      "inputs": [
        {
          "internalType": "address",
          "name": "",
          "type": "address"
        }
      ],
      "name": "wrappedTokenToTokenInfo",
      "outputs": [
        {
          "internalType": "uint32",
          "name": "originNetwork",
          "type": "uint32"
        },
        {
          "internalType": "address",
          "name": "originTokenAddress",
          "type": "address"
        }
      ],
      "stateMutability": "view",
      "type": "function"
    }
  ],
  "bytecode": "0x608060405234801561000f575f80fd5b50615f488061001d5f395ff3fe608060405260043610620001df575f3560e01c8063715018a61162000106578063bab161bf116200009e578063dbc16976116200006a578063dbc169761462000704578063ee25560b146200071b578063f2fde38b146200074a578063fb570834146200076e575f80fd5b8063bab161bf1462000642578063be5831c7146200067b578063cd58657914620006b6578063d02103ca14620006cd575f80fd5b80638da5cb5b11620000de5780638da5cb5b146200059857806391e57e2d14620005c45780639e34070f14620005db578063aaa13cc2146200061e575f80fd5b8063715018a6146200052557806379e2cf97146200053c57806381b1c1741462000553575f80fd5b80632d2c9d94116200017a57806334ac9cf2116200015257806334ac9cf214620003ca5780633ae0504714620003f85780633e197043146200040f578063647c576c1462000501575f80fd5b80632d2c9d9414620002f95780632dfdf0b5146200031d578063318aee3d1462000343575f80fd5b8063240ff37811620001ba578063240ff37814620002765780632b5e42e7146200028d5780632c3f58cd14620002b15780632cffd02e14620002d5575f80fd5b806315064c9614620001e35780632072f6c5146200021357806322e95f2c146200022c575b5f80fd5b348015620001ef575f80fd5b50606854620001fe9060ff1681565b60405190151581526020015b60405180910390f35b3480156200021f575f80fd5b506200022a62000792565b005b34801562000238575f80fd5b50620002506200024a36600462003646565b620007f0565b60405173ffffffffffffffffffffffffffffffffffffffff90911681526020016200020a565b6200022a62000287366004620036d6565b62000892565b34801562000299575f80fd5b506200022a620002ab36600462003755565b62000ab9565b348015620002bd575f80fd5b506200022a620002cf3660046200376d565b62000ac8565b348015620002e1575f80fd5b506200022a620002f3366004620037a2565b62000b0e565b34801562000305575f80fd5b506200022a62000317366004620037a2565b62001093565b34801562000329575f80fd5b506200033460535481565b6040519081526020016200020a565b3480156200034f575f80fd5b50620003986200036136600462003880565b606b6020525f908152604090205463ffffffff811690640100000000900473ffffffffffffffffffffffffffffffffffffffff1682565b6040805163ffffffff909316835273ffffffffffffffffffffffffffffffffffffffff9091166020830152016200020a565b348015620003d6575f80fd5b50606c54620002509073ffffffffffffffffffffffffffffffffffffffff1681565b34801562000404575f80fd5b506200033462001293565b3480156200041b575f80fd5b50620003346200042d366004620038ad565b6040517fff0000000000000000000000000000000000000000000000000000000000000060f889901b1660208201527fffffffff0000000000000000000000000000000000000000000000000000000060e088811b821660218401527fffffffffffffffffffffffffffffffffffffffff000000000000000000000000606089811b821660258601529188901b909216603984015285901b16603d82015260518101839052607181018290525f90609101604051602081830303815290604052805190602001209050979650505050505050565b3480156200050d575f80fd5b506200022a6200051f36600462003932565b6200138b565b34801562000531575f80fd5b506200022a620015e0565b34801562000548575f80fd5b506200022a620015f5565b3480156200055f575f80fd5b50620002506200057136600462003755565b606a6020525f908152604090205473ffffffffffffffffffffffffffffffffffffffff1681565b348015620005a4575f80fd5b50609f5473ffffffffffffffffffffffffffffffffffffffff1662000250565b348015620005d0575f80fd5b506200033460d15481565b348015620005e7575f80fd5b50620001fe620005f936600462003755565b600881901c5f90815260696020526040902054600160ff9092169190911b9081161490565b3480156200062a575f80fd5b50620002506200063c3660046200397f565b6200162f565b3480156200064e575f80fd5b506068546200066590610100900463ffffffff1681565b60405163ffffffff90911681526020016200020a565b34801562000687575f80fd5b506068546200066590790100000000000000000000000000000000000000000000000000900463ffffffff1681565b6200022a620006c736600462003a2c565b62001819565b348015620006d9575f80fd5b50606854620002509065010000000000900473ffffffffffffffffffffffffffffffffffffffff1681565b34801562000710575f80fd5b506200022a620018ed565b34801562000727575f80fd5b50620003346200073936600462003755565b60696020525f908152604090205481565b34801562000756575f80fd5b506200022a6200076836600462003880565b62001949565b3480156200077a575f80fd5b50620001fe6200078c36600462003ac8565b62001a06565b606c5473ffffffffffffffffffffffffffffffffffffffff163314620007e4576040517fe2e8106b00000000000000000000000000000000000000000000000000000000815260040160405180910390fd5b620007ee62001ae2565b565b6040805160e084901b7fffffffff0000000000000000000000000000000000000000000000000000000016602080830191909152606084901b7fffffffffffffffffffffffffffffffffffffffff00000000000000000000000016602483015282516018818403018152603890920183528151918101919091205f908152606a909152205473ffffffffffffffffffffffffffffffffffffffff165b92915050565b60685460ff1615620008d0576040517f2f0047fc00000000000000000000000000000000000000000000000000000000815260040160405180910390fd5b60685463ffffffff868116610100909204161480620008f65750600263ffffffff861610155b156200092e576040517f0595ea2e00000000000000000000000000000000000000000000000000000000815260040160405180910390fd5b7f501781209a1f8899323b96b4ef08b168df93e0a90c673d1e4cce39366cb62f9b6001606860019054906101000a900463ffffffff16338888348888605354604051620009849998979695949392919062003b59565b60405180910390a162000aa162000a9b6001606860019054906101000a900463ffffffff16338989348989604051620009bf92919062003bd3565b60405180910390206040517fff0000000000000000000000000000000000000000000000000000000000000060f889901b1660208201527fffffffff0000000000000000000000000000000000000000000000000000000060e088811b821660218401527fffffffffffffffffffffffffffffffffffffffff000000000000000000000000606089811b821660258601529188901b909216603984015285901b16603d82015260518101839052607181018290525f90609101604051602081830303815290604052805190602001209050979650505050505050565b62001b75565b821562000ab25762000ab262001c9c565b5050505050565b62000ac362001d6c565b60d155565b62000ad262001d6c565b6068805463ffffffff909216610100027fffffffffffffffffffffffffffffffffffffffffffffffffffffff00000000ff909216919091179055565b60685460ff161562000b4c576040517f2f0047fc00000000000000000000000000000000000000000000000000000000815260040160405180910390fd5b62000b628b8b8b8b8b8b8b8b8b8b8b5f62001def565b73ffffffffffffffffffffffffffffffffffffffff861662000c3a57604080515f8082526020820190925273ffffffffffffffffffffffffffffffffffffffff861690859060405162000bb6919062003c33565b5f6040518083038185875af1925050503d805f811462000bf2576040519150601f19603f3d011682016040523d82523d5f602084013e62000bf7565b606091505b505090508062000c33576040517f6747a28800000000000000000000000000000000000000000000000000000000815260040160405180910390fd5b506200101b565b60685463ffffffff61010090910481169088160362000c7c5762000c7673ffffffffffffffffffffffffffffffffffffffff8716858562001fda565b6200101b565b6040517fffffffff0000000000000000000000000000000000000000000000000000000060e089901b1660208201527fffffffffffffffffffffffffffffffffffffffff000000000000000000000000606088901b1660248201525f90603801604080517fffffffffffffffffffffffffffffffffffffffffffffffffffffffffffffffe081840301815291815281516020928301205f818152606a90935291205490915073ffffffffffffffffffffffffffffffffffffffff168062000f92575f808062000d4e8688018862003d42565b9250925092505f8584848460405162000d679062003602565b62000d759392919062003dfe565b8190604051809103905ff590508015801562000d93573d5f803e3d5ffd5b506040517f40c10f1900000000000000000000000000000000000000000000000000000000815273ffffffffffffffffffffffffffffffffffffffff8c81166004830152602482018c9052919250908216906340c10f19906044015f604051808303815f87803b15801562000e06575f80fd5b505af115801562000e19573d5f803e3d5ffd5b5050505080606a5f8881526020019081526020015f205f6101000a81548173ffffffffffffffffffffffffffffffffffffffff021916908373ffffffffffffffffffffffffffffffffffffffff16021790555060405180604001604052808e63ffffffff1681526020018d73ffffffffffffffffffffffffffffffffffffffff16815250606b5f8373ffffffffffffffffffffffffffffffffffffffff1673ffffffffffffffffffffffffffffffffffffffff1681526020019081526020015f205f820151815f015f6101000a81548163ffffffff021916908363ffffffff1602179055506020820151815f0160046101000a81548173ffffffffffffffffffffffffffffffffffffffff021916908373ffffffffffffffffffffffffffffffffffffffff1602179055509050507f490e59a1701b938786ac72570a1efeac994a3dbe96e2e883e19e902ace6e6a398d8d838b8b60405162000f8095949392919062003e3a565b60405180910390a15050505062001018565b6040517f40c10f1900000000000000000000000000000000000000000000000000000000815273ffffffffffffffffffffffffffffffffffffffff8781166004830152602482018790528216906340c10f19906044015f604051808303815f87803b15801562001000575f80fd5b505af115801562001013573d5f803e3d5ffd5b505050505b50505b6040805163ffffffff8c811682528916602082015273ffffffffffffffffffffffffffffffffffffffff88811682840152861660608201526080810185905290517f25308c93ceeed162da955b3f7ce3e3f93606579e40fb92029faa9efe275459839181900360a00190a15050505050505050505050565b60685460ff1615620010d1576040517f2f0047fc00000000000000000000000000000000000000000000000000000000815260040160405180910390fd5b620010e88b8b8b8b8b8b8b8b8b8b8b600162001def565b5f8473ffffffffffffffffffffffffffffffffffffffff1684888a86866040516024016200111a949392919062003e81565b604080517fffffffffffffffffffffffffffffffffffffffffffffffffffffffffffffffe08184030181529181526020820180517bffffffffffffffffffffffffffffffffffffffffffffffffffffffff167f1806b5f200000000000000000000000000000000000000000000000000000000179052516200119d919062003c33565b5f6040518083038185875af1925050503d805f8114620011d9576040519150601f19603f3d011682016040523d82523d5f602084013e620011de565b606091505b50509050806200121a576040517f37e391c300000000000000000000000000000000000000000000000000000000815260040160405180910390fd5b6040805163ffffffff8d811682528a16602082015273ffffffffffffffffffffffffffffffffffffffff89811682840152871660608201526080810186905290517f25308c93ceeed162da955b3f7ce3e3f93606579e40fb92029faa9efe275459839181900360a00190a1505050505050505050505050565b6053545f90819081805b602081101562001382578083901c600116600103620013005760338160208110620012cc57620012cc62003ec8565b015460408051602081019290925281018590526060016040516020818303038152906040528051906020012093506200132d565b60408051602081018690529081018390526060016040516020818303038152906040528051906020012093505b6040805160208101849052908101839052606001604080517fffffffffffffffffffffffffffffffffffffffffffffffffffffffffffffffe0818403018152919052805160209091012091506001016200129d565b50919392505050565b5f54610100900460ff1615808015620013aa57505f54600160ff909116105b80620013c55750303b158015620013c557505f5460ff166001145b62001457576040517f08c379a000000000000000000000000000000000000000000000000000000000815260206004820152602e60248201527f496e697469616c697a61626c653a20636f6e747261637420697320616c72656160448201527f647920696e697469616c697a656400000000000000000000000000000000000060648201526084015b60405180910390fd5b5f80547fffffffffffffffffffffffffffffffffffffffffffffffffffffffffffffff001660011790558015620014b4575f80547fffffffffffffffffffffffffffffffffffffffffffffffffffffffffffff00ff166101001790555b606880547fffffffffffffff000000000000000000000000000000000000000000000000ff1661010063ffffffff8716027fffffffffffffff0000000000000000000000000000000000000000ffffffffff16176501000000000073ffffffffffffffffffffffffffffffffffffffff8681169190910291909117909155606c80547fffffffffffffffffffffffff0000000000000000000000000000000000000000169184169190911790556703782dace9d9000060d15562001577620020b0565b8015620015da575f80547fffffffffffffffffffffffffffffffffffffffffffffffffffffffffffff00ff169055604051600181527f7f26b83ff96e1f2b6a682f133852f6798a09c465da95921460cefb38474024989060200160405180910390a15b50505050565b620015ea62001d6c565b620007ee5f6200214e565b605354606854790100000000000000000000000000000000000000000000000000900463ffffffff161015620007ee57620007ee62001c9c565b6040517fffffffff0000000000000000000000000000000000000000000000000000000060e089901b1660208201527fffffffffffffffffffffffffffffffffffffffff000000000000000000000000606088901b1660248201525f9081906038016040516020818303038152906040528051906020012090505f60ff60f81b308360405180602001620016c39062003602565b7fffffffffffffffffffffffffffffffffffffffffffffffffffffffffffffffe082820381018352601f9091011660408190526200170e908d908d908d908d908d9060200162003ef5565b604080517fffffffffffffffffffffffffffffffffffffffffffffffffffffffffffffffe0818403018152908290526200174c929160200162003f35565b60405160208183030381529060405280519060200120604051602001620017d594939291907fff0000000000000000000000000000000000000000000000000000000000000094909416845260609290921b7fffffffffffffffffffffffffffffffffffffffff0000000000000000000000001660018401526015830152603582015260550190565b604080518083037fffffffffffffffffffffffffffffffffffffffffffffffffffffffffffffffe001815291905280516020909101209a9950505050505050505050565b60d154341115620018d3576040517f08c379a000000000000000000000000000000000000000000000000000000000815260206004820152604760248201527f506f6c79676f6e5a6b45564d4272696467653a3a62726964676541737365743a60448201527f2043616e6e6f7420627269646765206d6f7265207468616e206d61784574686560648201527f7242726964676500000000000000000000000000000000000000000000000000608482015260a4016200144e565b620018e487878787878787620021c4565b50505050505050565b606c5473ffffffffffffffffffffffffffffffffffffffff1633146200193f576040517fe2e8106b00000000000000000000000000000000000000000000000000000000815260040160405180910390fd5b620007ee6200270d565b6200195362001d6c565b73ffffffffffffffffffffffffffffffffffffffff8116620019f8576040517f08c379a000000000000000000000000000000000000000000000000000000000815260206004820152602660248201527f4f776e61626c653a206e6577206f776e657220697320746865207a65726f206160448201527f646472657373000000000000000000000000000000000000000000000000000060648201526084016200144e565b62001a03816200214e565b50565b5f84815b602081101562001ad457600163ffffffff8616821c8116900362001a7c5785816020811062001a3d5762001a3d62003ec8565b60200201358260405160200162001a5e929190918252602082015260400190565b60405160208183030381529060405280519060200120915062001acb565b8186826020811062001a925762001a9262003ec8565b602002013560405160200162001ab2929190918252602082015260400190565b6040516020818303038152906040528051906020012091505b60010162001a0a565b50821490505b949350505050565b60685460ff161562001b20576040517f2f0047fc00000000000000000000000000000000000000000000000000000000815260040160405180910390fd5b606880547fffffffffffffffffffffffffffffffffffffffffffffffffffffffffffffff001660011790556040517f2261efe5aef6fedc1fd1550b25facc9181745623049c7901287030b9ad1a5497905f90a1565b80600162001b8660206002620040cb565b62001b929190620040d8565b6053541062001bcd576040517fef5ccf6600000000000000000000000000000000000000000000000000000000815260040160405180910390fd5b5f60535f815462001bde90620040ee565b918290555090505f5b602081101562001c8c578082901c60011660010362001c1f57826033826020811062001c175762001c1762003ec8565b015550505050565b6033816020811062001c355762001c3562003ec8565b01546040805160208101929092528101849052606001604080517fffffffffffffffffffffffffffffffffffffffffffffffffffffffffffffffe08184030181529190528051602090910120925060010162001be7565b5062001c9762004128565b505050565b6053546068805463ffffffff909216790100000000000000000000000000000000000000000000000000027fffffff00000000ffffffffffffffffffffffffffffffffffffffffffffffffff909216919091179081905573ffffffffffffffffffffffffffffffffffffffff65010000000000909104166333d6247d62001d2262001293565b6040518263ffffffff1660e01b815260040162001d4191815260200190565b5f604051808303815f87803b15801562001d59575f80fd5b505af1158015620015da573d5f803e3d5ffd5b609f5473ffffffffffffffffffffffffffffffffffffffff163314620007ee576040517f08c379a000000000000000000000000000000000000000000000000000000000815260206004820181905260248201527f4f776e61626c653a2063616c6c6572206973206e6f7420746865206f776e657260448201526064016200144e565b62001e008b63ffffffff166200279c565b6068546040805160208082018e90528183018d9052825180830384018152606083019384905280519101207f257b36320000000000000000000000000000000000000000000000000000000090925260648101919091525f9165010000000000900473ffffffffffffffffffffffffffffffffffffffff169063257b3632906084016020604051808303815f875af115801562001e9f573d5f803e3d5ffd5b505050506040513d601f19601f8201168201806040525081019062001ec5919062004155565b9050805f0362001f00576040517e2f6fad00000000000000000000000000000000000000000000000000000000815260040160405180910390fd5b60685463ffffffff888116610100909204161462001f4a576040517f0595ea2e00000000000000000000000000000000000000000000000000000000815260040160405180910390fd5b6068545f90610100900463ffffffff1662001f6757508962001f6a565b508a5b62001f9362001f8a848c8c8c8c8c8c8c604051620009bf92919062003bd3565b8f8f8462001a06565b62001fca576040517fe0417cec00000000000000000000000000000000000000000000000000000000815260040160405180910390fd5b5050505050505050505050505050565b60405173ffffffffffffffffffffffffffffffffffffffff831660248201526044810182905262001c979084907fa9059cbb00000000000000000000000000000000000000000000000000000000906064015b604080517fffffffffffffffffffffffffffffffffffffffffffffffffffffffffffffffe08184030181529190526020810180517bffffffffffffffffffffffffffffffffffffffffffffffffffffffff167fffffffff000000000000000000000000000000000000000000000000000000009093169290921790915262002800565b5f54610100900460ff1662002148576040517f08c379a000000000000000000000000000000000000000000000000000000000815260206004820152602b60248201527f496e697469616c697a61626c653a20636f6e7472616374206973206e6f74206960448201527f6e697469616c697a696e6700000000000000000000000000000000000000000060648201526084016200144e565b620007ee335b609f805473ffffffffffffffffffffffffffffffffffffffff8381167fffffffffffffffffffffffff0000000000000000000000000000000000000000831681179093556040519116919082907f8be0079c531659141344cd1fd0a4f28419497f9722a3daafe3b4186f6b6457e0905f90a35050565b60685460ff161562002202576040517f2f0047fc00000000000000000000000000000000000000000000000000000000815260040160405180910390fd5b6200220c62002912565b60685463ffffffff888116610100909204161480620022325750600263ffffffff881610155b156200226a576040517f0595ea2e00000000000000000000000000000000000000000000000000000000815260040160405180910390fd5b5f8060608773ffffffffffffffffffffffffffffffffffffffff8816620022ce57883414620022c5576040517fb89240f500000000000000000000000000000000000000000000000000000000815260040160405180910390fd5b5f9250620025bb565b341562002307576040517f798ee6f100000000000000000000000000000000000000000000000000000000815260040160405180910390fd5b73ffffffffffffffffffffffffffffffffffffffff8089165f908152606b602090815260409182902082518084019093525463ffffffff8116835264010000000090049092169181018290529015620023f0576040517f9dc29fac000000000000000000000000000000000000000000000000000000008152336004820152602481018b905273ffffffffffffffffffffffffffffffffffffffff8a1690639dc29fac906044015f604051808303815f87803b158015620023c6575f80fd5b505af1158015620023d9573d5f803e3d5ffd5b5050505080602001519450805f01519350620025b9565b8515620024055762002405898b898962002987565b6040517f70a082310000000000000000000000000000000000000000000000000000000081523060048201525f9073ffffffffffffffffffffffffffffffffffffffff8b16906370a0823190602401602060405180830381865afa15801562002470573d5f803e3d5ffd5b505050506040513d601f19601f8201168201806040525081019062002496919062004155565b9050620024bc73ffffffffffffffffffffffffffffffffffffffff8b1633308e62002e9a565b6040517f70a082310000000000000000000000000000000000000000000000000000000081523060048201525f9073ffffffffffffffffffffffffffffffffffffffff8c16906370a0823190602401602060405180830381865afa15801562002527573d5f803e3d5ffd5b505050506040513d601f19601f820116820180604052508101906200254d919062004155565b90506200255b8282620040d8565b6068548c9850610100900463ffffffff16965093506200257b8762002efa565b620025868c6200300e565b620025918d62003117565b604051602001620025a59392919062003dfe565b604051602081830303815290604052945050505b505b7f501781209a1f8899323b96b4ef08b168df93e0a90c673d1e4cce39366cb62f9b5f84868e8e8688605354604051620025fc9897969594939291906200416d565b60405180910390a1620026ee62000a9b5f85878f8f8789805190602001206040517fff0000000000000000000000000000000000000000000000000000000000000060f889901b1660208201527fffffffff0000000000000000000000000000000000000000000000000000000060e088811b821660218401527fffffffffffffffffffffffffffffffffffffffff000000000000000000000000606089811b821660258601529188901b909216603984015285901b16603d82015260518101839052607181018290525f90609101604051602081830303815290604052805190602001209050979650505050505050565b8615620026ff57620026ff62001c9c565b50505050620018e460018055565b60685460ff166200274a576040517f5386698100000000000000000000000000000000000000000000000000000000815260040160405180910390fd5b606880547fffffffffffffffffffffffffffffffffffffffffffffffffffffffffffffff001690556040517f1e5e34eea33501aecf2ebec9fe0e884a40804275ea7fe10b2ba084c8374308b3905f90a1565b600881901c5f8181526069602052604081208054600160ff861690811b9182189283905592909190818316900362000ab2576040517f646cf55800000000000000000000000000000000000000000000000000000000815260040160405180910390fd5b5f62002863826040518060400160405280602081526020017f5361666545524332303a206c6f772d6c6576656c2063616c6c206661696c65648152508573ffffffffffffffffffffffffffffffffffffffff166200320f9092919063ffffffff16565b80519091501562001c975780806020019051810190620028849190620041e5565b62001c97576040517f08c379a000000000000000000000000000000000000000000000000000000000815260206004820152602a60248201527f5361666545524332303a204552433230206f7065726174696f6e20646964206e60448201527f6f7420737563636565640000000000000000000000000000000000000000000060648201526084016200144e565b60026001540362002980576040517f08c379a000000000000000000000000000000000000000000000000000000000815260206004820152601f60248201527f5265656e7472616e637947756172643a207265656e7472616e742063616c6c0060448201526064016200144e565b6002600155565b5f62002997600482848662004203565b620029a2916200422c565b90507f2afa5331000000000000000000000000000000000000000000000000000000007fffffffff0000000000000000000000000000000000000000000000000000000082160162002c1c575f80808080808062002a04896004818d62004203565b81019062002a13919062004275565b96509650965096509650965096503373ffffffffffffffffffffffffffffffffffffffff168773ffffffffffffffffffffffffffffffffffffffff161462002a87576040517f912ecce700000000000000000000000000000000000000000000000000000000815260040160405180910390fd5b73ffffffffffffffffffffffffffffffffffffffff8616301462002ad7576040517f750643af00000000000000000000000000000000000000000000000000000000815260040160405180910390fd5b8a851462002b11576040517f03fffc4b00000000000000000000000000000000000000000000000000000000815260040160405180910390fd5b6040805173ffffffffffffffffffffffffffffffffffffffff89811660248301528881166044830152606482018890526084820187905260ff861660a483015260c4820185905260e48083018590528351808403909101815261010490920183526020820180517bffffffffffffffffffffffffffffffffffffffffffffffffffffffff167fd505accf000000000000000000000000000000000000000000000000000000001790529151918e169162002bcc919062003c33565b5f604051808303815f865af19150503d805f811462002c07576040519150601f19603f3d011682016040523d82523d5f602084013e62002c0c565b606091505b5050505050505050505062000ab2565b7fffffffff0000000000000000000000000000000000000000000000000000000081167f8fcbaf0c000000000000000000000000000000000000000000000000000000001462002c98576040517fe282c0ba00000000000000000000000000000000000000000000000000000000815260040160405180910390fd5b5f8080808080808062002caf8a6004818e62004203565b81019062002cbe9190620042cb565b975097509750975097509750975097503373ffffffffffffffffffffffffffffffffffffffff168873ffffffffffffffffffffffffffffffffffffffff161462002d34576040517f912ecce700000000000000000000000000000000000000000000000000000000815260040160405180910390fd5b73ffffffffffffffffffffffffffffffffffffffff8716301462002d84576040517f750643af00000000000000000000000000000000000000000000000000000000815260040160405180910390fd5b6040805173ffffffffffffffffffffffffffffffffffffffff8a811660248301528981166044830152606482018990526084820188905286151560a483015260ff861660c483015260e482018590526101048083018590528351808403909101815261012490920183526020820180517bffffffffffffffffffffffffffffffffffffffffffffffffffffffff167f8fcbaf0c000000000000000000000000000000000000000000000000000000001790529151918f169162002e48919062003c33565b5f604051808303815f865af19150503d805f811462002e83576040519150601f19603f3d011682016040523d82523d5f602084013e62002e88565b606091505b50505050505050505050505050505050565b60405173ffffffffffffffffffffffffffffffffffffffff80851660248301528316604482015260648101829052620015da9085907f23b872dd00000000000000000000000000000000000000000000000000000000906084016200202d565b60408051600481526024810182526020810180517bffffffffffffffffffffffffffffffffffffffffffffffffffffffff167f06fdde030000000000000000000000000000000000000000000000000000000017905290516060915f91829173ffffffffffffffffffffffffffffffffffffffff86169162002f7d919062003c33565b5f60405180830381855afa9150503d805f811462002fb7576040519150601f19603f3d011682016040523d82523d5f602084013e62002fbc565b606091505b50915091508162003003576040518060400160405280600781526020017f4e4f5f4e414d450000000000000000000000000000000000000000000000000081525062001ada565b62001ada816200321f565b60408051600481526024810182526020810180517bffffffffffffffffffffffffffffffffffffffffffffffffffffffff167f95d89b410000000000000000000000000000000000000000000000000000000017905290516060915f91829173ffffffffffffffffffffffffffffffffffffffff86169162003091919062003c33565b5f60405180830381855afa9150503d805f8114620030cb576040519150601f19603f3d011682016040523d82523d5f602084013e620030d0565b606091505b50915091508162003003576040518060400160405280600981526020017f4e4f5f53594d424f4c000000000000000000000000000000000000000000000081525062001ada565b60408051600481526024810182526020810180517bffffffffffffffffffffffffffffffffffffffffffffffffffffffff167f313ce5670000000000000000000000000000000000000000000000000000000017905290515f918291829173ffffffffffffffffffffffffffffffffffffffff86169162003199919062003c33565b5f60405180830381855afa9150503d805f8114620031d3576040519150601f19603f3d011682016040523d82523d5f602084013e620031d8565b606091505b5091509150818015620031ec575080516020145b620031f957601262001ada565b8080602001905181019062001ada919062004352565b606062001ada84845f85620033fe565b606060408251106200324157818060200190518101906200088c919062004370565b8151602003620033c0575f5b6020811080156200329857508281815181106200326e576200326e62003ec8565b01602001517fff000000000000000000000000000000000000000000000000000000000000001615155b15620032b35780620032aa81620040ee565b9150506200324d565b805f03620032f657505060408051808201909152601281527f4e4f545f56414c49445f454e434f44494e4700000000000000000000000000006020820152919050565b5f8167ffffffffffffffff81111562003313576200331362003be2565b6040519080825280601f01601f1916602001820160405280156200333e576020820181803683370190505b5090505f5b82811015620033b85784818151811062003361576200336162003ec8565b602001015160f81c60f81b82828151811062003381576200338162003ec8565b60200101907effffffffffffffffffffffffffffffffffffffffffffffffffffffffffffff191690815f1a90535060010162003343565b509392505050565b505060408051808201909152601281527f4e4f545f56414c49445f454e434f44494e470000000000000000000000000000602082015290565b919050565b60608247101562003492576040517f08c379a000000000000000000000000000000000000000000000000000000000815260206004820152602660248201527f416464726573733a20696e73756666696369656e742062616c616e636520666f60448201527f722063616c6c000000000000000000000000000000000000000000000000000060648201526084016200144e565b5f808673ffffffffffffffffffffffffffffffffffffffff168587604051620034bc919062003c33565b5f6040518083038185875af1925050503d805f8114620034f8576040519150601f19603f3d011682016040523d82523d5f602084013e620034fd565b606091505b509150915062003510878383876200351b565b979650505050505050565b60608315620035b55782515f03620035ad5773ffffffffffffffffffffffffffffffffffffffff85163b620035ad576040517f08c379a000000000000000000000000000000000000000000000000000000000815260206004820152601d60248201527f416464726573733a2063616c6c20746f206e6f6e2d636f6e747261637400000060448201526064016200144e565b508162001ada565b62001ada8383815115620035cc5781518083602001fd5b806040517f08c379a00000000000000000000000000000000000000000000000000000000081526004016200144e9190620043eb565b611b13806200440083390190565b803563ffffffff81168114620033f9575f80fd5b73ffffffffffffffffffffffffffffffffffffffff8116811462001a03575f80fd5b5f806040838503121562003658575f80fd5b620036638362003610565b91506020830135620036758162003624565b809150509250929050565b801515811462001a03575f80fd5b5f8083601f8401126200369f575f80fd5b50813567ffffffffffffffff811115620036b7575f80fd5b602083019150836020828501011115620036cf575f80fd5b9250929050565b5f805f805f60808688031215620036eb575f80fd5b620036f68662003610565b94506020860135620037088162003624565b935060408601356200371a8162003680565b9250606086013567ffffffffffffffff81111562003736575f80fd5b62003744888289016200368e565b969995985093965092949392505050565b5f6020828403121562003766575f80fd5b5035919050565b5f602082840312156200377e575f80fd5b620037898262003610565b9392505050565b8061040081018310156200088c575f80fd5b5f805f805f805f805f805f6105208c8e031215620037be575f80fd5b620037ca8d8d62003790565b9a50620037db6104008d0162003610565b99506104208c013598506104408c01359750620037fc6104608d0162003610565b96506104808c01356200380f8162003624565b9550620038206104a08d0162003610565b94506104c08c0135620038338162003624565b93506104e08c013592506105008c013567ffffffffffffffff81111562003858575f80fd5b620038668e828f016200368e565b915080935050809150509295989b509295989b9093969950565b5f6020828403121562003891575f80fd5b8135620037898162003624565b60ff8116811462001a03575f80fd5b5f805f805f805f60e0888a031215620038c4575f80fd5b8735620038d1816200389e565b9650620038e16020890162003610565b95506040880135620038f38162003624565b9450620039036060890162003610565b93506080880135620039158162003624565b9699959850939692959460a0840135945060c09093013592915050565b5f805f6060848603121562003945575f80fd5b620039508462003610565b92506020840135620039628162003624565b91506040840135620039748162003624565b809150509250925092565b5f805f805f805f60a0888a03121562003996575f80fd5b620039a18862003610565b96506020880135620039b38162003624565b9550604088013567ffffffffffffffff80821115620039d0575f80fd5b620039de8b838c016200368e565b909750955060608a0135915080821115620039f7575f80fd5b5062003a068a828b016200368e565b909450925050608088013562003a1c816200389e565b8091505092959891949750929550565b5f805f805f805f60c0888a03121562003a43575f80fd5b62003a4e8862003610565b9650602088013562003a608162003624565b955060408801359450606088013562003a798162003624565b9350608088013562003a8b8162003680565b925060a088013567ffffffffffffffff81111562003aa7575f80fd5b62003ab58a828b016200368e565b989b979a50959850939692959293505050565b5f805f80610460858703121562003add575f80fd5b8435935062003af0866020870162003790565b925062003b01610420860162003610565b939692955092936104400135925050565b81835281816020850137505f602082840101525f60207fffffffffffffffffffffffffffffffffffffffffffffffffffffffffffffffe0601f840116840101905092915050565b5f61010060ff8c16835263ffffffff808c16602085015273ffffffffffffffffffffffffffffffffffffffff808c166040860152818b166060860152808a166080860152508760a08501528160c085015262003bb9828501878962003b12565b925080851660e085015250509a9950505050505050505050565b818382375f9101908152919050565b7f4e487b71000000000000000000000000000000000000000000000000000000005f52604160045260245ffd5b5f5b8381101562003c2b57818101518382015260200162003c11565b50505f910152565b5f825162003c4681846020870162003c0f565b9190910192915050565b604051601f82017fffffffffffffffffffffffffffffffffffffffffffffffffffffffffffffffe016810167ffffffffffffffff8111828210171562003c9a5762003c9a62003be2565b604052919050565b5f67ffffffffffffffff82111562003cbe5762003cbe62003be2565b50601f017fffffffffffffffffffffffffffffffffffffffffffffffffffffffffffffffe01660200190565b5f82601f83011262003cfa575f80fd5b813562003d1162003d0b8262003ca2565b62003c50565b81815284602083860101111562003d26575f80fd5b816020850160208301375f918101602001919091529392505050565b5f805f6060848603121562003d55575f80fd5b833567ffffffffffffffff8082111562003d6d575f80fd5b62003d7b8783880162003cea565b9450602086013591508082111562003d91575f80fd5b5062003da08682870162003cea565b925050604084013562003974816200389e565b5f815180845262003dcc81602086016020860162003c0f565b601f017fffffffffffffffffffffffffffffffffffffffffffffffffffffffffffffffe0169290920160200192915050565b606081525f62003e12606083018662003db3565b828103602084015262003e26818662003db3565b91505060ff83166040830152949350505050565b63ffffffff861681525f73ffffffffffffffffffffffffffffffffffffffff8087166020840152808616604084015250608060608301526200351060808301848662003b12565b73ffffffffffffffffffffffffffffffffffffffff8516815263ffffffff84166020820152606060408201525f62003ebe60608301848662003b12565b9695505050505050565b7f4e487b71000000000000000000000000000000000000000000000000000000005f52603260045260245ffd5b606081525f62003f0a60608301878962003b12565b828103602084015262003f1f81868862003b12565b91505060ff831660408301529695505050505050565b5f835162003f4881846020880162003c0f565b83519083019062003f5e81836020880162003c0f565b01949350505050565b7f4e487b71000000000000000000000000000000000000000000000000000000005f52601160045260245ffd5b600181815b8085111562003ff357817fffffffffffffffffffffffffffffffffffffffffffffffffffffffffffffffff0482111562003fd75762003fd762003f67565b8085161562003fe557918102915b93841c939080029062003f99565b509250929050565b5f826200400b575060016200088c565b816200401957505f6200088c565b81600181146200403257600281146200403d576200405d565b60019150506200088c565b60ff84111562004051576200405162003f67565b50506001821b6200088c565b5060208310610133831016604e8410600b841016171562004082575081810a6200088c565b6200408e838362003f94565b807fffffffffffffffffffffffffffffffffffffffffffffffffffffffffffffffff04821115620040c357620040c362003f67565b029392505050565b5f62003789838362003ffb565b818103818111156200088c576200088c62003f67565b5f7fffffffffffffffffffffffffffffffffffffffffffffffffffffffffffffffff820362004121576200412162003f67565b5060010190565b7f4e487b71000000000000000000000000000000000000000000000000000000005f52600160045260245ffd5b5f6020828403121562004166575f80fd5b5051919050565b5f61010060ff8b16835263ffffffff808b16602085015273ffffffffffffffffffffffffffffffffffffffff808b166040860152818a1660608601528089166080860152508660a08501528160c0850152620041cc8285018762003db3565b925080851660e085015250509998505050505050505050565b5f60208284031215620041f6575f80fd5b8151620037898162003680565b5f808585111562004212575f80fd5b838611156200421f575f80fd5b5050820193919092039150565b7fffffffff0000000000000000000000000000000000000000000000000000000081358181169160048510156200426d5780818660040360031b1b83161692505b505092915050565b5f805f805f805f60e0888a0312156200428c575f80fd5b8735620042998162003624565b96506020880135620042ab8162003624565b95506040880135945060608801359350608088013562003915816200389e565b5f805f805f805f80610100898b031215620042e4575f80fd5b8835620042f18162003624565b97506020890135620043038162003624565b965060408901359550606089013594506080890135620043238162003680565b935060a089013562004335816200389e565b979a969950949793969295929450505060c08201359160e0013590565b5f6020828403121562004363575f80fd5b815162003789816200389e565b5f6020828403121562004381575f80fd5b815167ffffffffffffffff81111562004398575f80fd5b8201601f81018413620043a9575f80fd5b8051620043ba62003d0b8262003ca2565b818152856020838501011115620043cf575f80fd5b620043e282602083016020860162003c0f565b95945050505050565b602081525f62003789602083018462003db356fe61010060405234801562000011575f80fd5b5060405162001b1338038062001b13833981016040819052620000349162000285565b828260036200004483826200038e565b5060046200005382826200038e565b50503360c0525060ff811660e05246608081905262000072906200007f565b60a052506200045a915050565b5f7f8b73c3c69bb8fe3d512ecc4cf759cc79239f7b179b0ffacaa9a75d522b39400f620000ab6200012c565b805160209182012060408051808201825260018152603160f81b90840152805192830193909352918101919091527fc89efdaa54c0f20c7adf612882df0950f5a951637e0307cdcb4c672f298b8bc66060820152608081018390523060a082015260c001604051602081830303815290604052805190602001209050919050565b6060600380546200013d9062000304565b80601f01602080910402602001604051908101604052809291908181526020018280546200016b9062000304565b8015620001ba5780601f106200019057610100808354040283529160200191620001ba565b820191905f5260205f20905b8154815290600101906020018083116200019c57829003601f168201915b5050505050905090565b634e487b7160e01b5f52604160045260245ffd5b5f82601f830112620001e8575f80fd5b81516001600160401b0380821115620002055762000205620001c4565b604051601f8301601f19908116603f01168101908282118183101715620002305762000230620001c4565b81604052838152602092508660208588010111156200024d575f80fd5b5f91505b8382101562000270578582018301518183018401529082019062000251565b5f602085830101528094505050505092915050565b5f805f6060848603121562000298575f80fd5b83516001600160401b0380821115620002af575f80fd5b620002bd87838801620001d8565b94506020860151915080821115620002d3575f80fd5b50620002e286828701620001d8565b925050604084015160ff81168114620002f9575f80fd5b809150509250925092565b600181811c908216806200031957607f821691505b6020821081036200033857634e487b7160e01b5f52602260045260245ffd5b50919050565b601f8211156200038957805f5260205f20601f840160051c81016020851015620003655750805b601f840160051c820191505b8181101562000386575f815560010162000371565b50505b505050565b81516001600160401b03811115620003aa57620003aa620001c4565b620003c281620003bb845462000304565b846200033e565b602080601f831160018114620003f8575f8415620003e05750858301515b5f19600386901b1c1916600185901b17855562000452565b5f85815260208120601f198616915b82811015620004285788860151825594840194600190910190840162000407565b50858210156200044657878501515f19600388901b60f8161c191681555b505060018460011b0185555b505050505050565b60805160a05160c05160e051611670620004a35f395f61022d01525f81816102fb015281816105ad015261069401525f61052801525f818161036d01526104f201526116705ff3fe608060405234801561000f575f80fd5b506004361061016e575f3560e01c806370a08231116100d2578063a457c2d711610088578063d505accf11610063578063d505accf1461038f578063dd62ed3e146103a2578063ffa1ad74146103e7575f80fd5b8063a457c2d714610342578063a9059cbb14610355578063cd0d009614610368575f80fd5b806395d89b41116100b857806395d89b41146102db5780639dc29fac146102e3578063a3c573eb146102f6575f80fd5b806370a08231146102875780637ecebe00146102bc575f80fd5b806330adf81f116101275780633644e5151161010d5780633644e51514610257578063395093511461025f57806340c10f1914610272575f80fd5b806330adf81f146101ff578063313ce56714610226575f80fd5b806318160ddd1161015757806318160ddd146101b357806320606b70146101c557806323b872dd146101ec575f80fd5b806306fdde0314610172578063095ea7b314610190575b5f80fd5b61017a610423565b60405161018791906113c1565b60405180910390f35b6101a361019e366004611453565b6104b3565b6040519015158152602001610187565b6002545b604051908152602001610187565b6101b77f8b73c3c69bb8fe3d512ecc4cf759cc79239f7b179b0ffacaa9a75d522b39400f81565b6101a36101fa36600461147b565b6104cc565b6101b77f6e71edae12b1b97f4d1f60370fef10105fa2faae0126114a169c64845d6126c981565b60405160ff7f0000000000000000000000000000000000000000000000000000000000000000168152602001610187565b6101b76104ef565b6101a361026d366004611453565b61054a565b610285610280366004611453565b610595565b005b6101b76102953660046114b4565b73ffffffffffffffffffffffffffffffffffffffff165f9081526020819052604090205490565b6101b76102ca3660046114b4565b60056020525f908152604090205481565b61017a61066d565b6102856102f1366004611453565b61067c565b61031d7f000000000000000000000000000000000000000000000000000000000000000081565b60405173ffffffffffffffffffffffffffffffffffffffff9091168152602001610187565b6101a3610350366004611453565b61074b565b6101a3610363366004611453565b61081b565b6101b77f000000000000000000000000000000000000000000000000000000000000000081565b61028561039d3660046114d4565b610828565b6101b76103b0366004611541565b73ffffffffffffffffffffffffffffffffffffffff9182165f90815260016020908152604080832093909416825291909152205490565b61017a6040518060400160405280600181526020017f310000000000000000000000000000000000000000000000000000000000000081525081565b60606003805461043290611572565b80601f016020809104026020016040519081016040528092919081815260200182805461045e90611572565b80156104a95780601f10610480576101008083540402835291602001916104a9565b820191905f5260205f20905b81548152906001019060200180831161048c57829003601f168201915b5050505050905090565b5f336104c0818585610b59565b60019150505b92915050565b5f336104d9858285610d0c565b6104e4858585610de2565b506001949350505050565b5f7f00000000000000000000000000000000000000000000000000000000000000004614610525576105204661104f565b905090565b507f000000000000000000000000000000000000000000000000000000000000000090565b335f81815260016020908152604080832073ffffffffffffffffffffffffffffffffffffffff871684529091528120549091906104c090829086906105909087906115f0565b610b59565b3373ffffffffffffffffffffffffffffffffffffffff7f0000000000000000000000000000000000000000000000000000000000000000161461065f576040517f08c379a000000000000000000000000000000000000000000000000000000000815260206004820152603060248201527f546f6b656e577261707065643a3a6f6e6c794272696467653a204e6f7420506f60448201527f6c79676f6e5a6b45564d4272696467650000000000000000000000000000000060648201526084015b60405180910390fd5b6106698282611116565b5050565b60606004805461043290611572565b3373ffffffffffffffffffffffffffffffffffffffff7f00000000000000000000000000000000000000000000000000000000000000001614610741576040517f08c379a000000000000000000000000000000000000000000000000000000000815260206004820152603060248201527f546f6b656e577261707065643a3a6f6e6c794272696467653a204e6f7420506f60448201527f6c79676f6e5a6b45564d427269646765000000000000000000000000000000006064820152608401610656565b6106698282611207565b335f81815260016020908152604080832073ffffffffffffffffffffffffffffffffffffffff871684529091528120549091908381101561080e576040517f08c379a000000000000000000000000000000000000000000000000000000000815260206004820152602560248201527f45524332303a2064656372656173656420616c6c6f77616e63652062656c6f7760448201527f207a65726f0000000000000000000000000000000000000000000000000000006064820152608401610656565b6104e48286868403610b59565b5f336104c0818585610de2565b834211156108b7576040517f08c379a0000000000000000000000000000000000000000000000000000000008152602060048201526024808201527f546f6b656e577261707065643a3a7065726d69743a204578706972656420706560448201527f726d6974000000000000000000000000000000000000000000000000000000006064820152608401610656565b73ffffffffffffffffffffffffffffffffffffffff87165f90815260056020526040812080547f6e71edae12b1b97f4d1f60370fef10105fa2faae0126114a169c64845d6126c9918a918a918a91908661091083611603565b9091555060408051602081019690965273ffffffffffffffffffffffffffffffffffffffff94851690860152929091166060840152608083015260a082015260c0810186905260e0016040516020818303038152906040528051906020012090505f61097a6104ef565b6040517f19010000000000000000000000000000000000000000000000000000000000006020820152602281019190915260428101839052606201604080517fffffffffffffffffffffffffffffffffffffffffffffffffffffffffffffffe081840301815282825280516020918201205f80855291840180845281905260ff89169284019290925260608301879052608083018690529092509060019060a0016020604051602081039080840390855afa158015610a3b573d5f803e3d5ffd5b50506040517fffffffffffffffffffffffffffffffffffffffffffffffffffffffffffffffe0015191505073ffffffffffffffffffffffffffffffffffffffff811615801590610ab657508973ffffffffffffffffffffffffffffffffffffffff168173ffffffffffffffffffffffffffffffffffffffff16145b610b42576040517f08c379a000000000000000000000000000000000000000000000000000000000815260206004820152602760248201527f546f6b656e577261707065643a3a7065726d69743a20496e76616c696420736960448201527f676e6174757265000000000000000000000000000000000000000000000000006064820152608401610656565b610b4d8a8a8a610b59565b50505050505050505050565b73ffffffffffffffffffffffffffffffffffffffff8316610bfb576040517f08c379a0000000000000000000000000000000000000000000000000000000008152602060048201526024808201527f45524332303a20617070726f76652066726f6d20746865207a65726f2061646460448201527f72657373000000000000000000000000000000000000000000000000000000006064820152608401610656565b73ffffffffffffffffffffffffffffffffffffffff8216610c9e576040517f08c379a000000000000000000000000000000000000000000000000000000000815260206004820152602260248201527f45524332303a20617070726f766520746f20746865207a65726f20616464726560448201527f73730000000000000000000000000000000000000000000000000000000000006064820152608401610656565b73ffffffffffffffffffffffffffffffffffffffff8381165f8181526001602090815260408083209487168084529482529182902085905590518481527f8c5be1e5ebec7d5bd14f71427d1e84f3dd0314c0f7b2291e5b200ac8c7c3b92591015b60405180910390a3505050565b73ffffffffffffffffffffffffffffffffffffffff8381165f908152600160209081526040808320938616835292905220547fffffffffffffffffffffffffffffffffffffffffffffffffffffffffffffffff8114610ddc5781811015610dcf576040517f08c379a000000000000000000000000000000000000000000000000000000000815260206004820152601d60248201527f45524332303a20696e73756666696369656e7420616c6c6f77616e63650000006044820152606401610656565b610ddc8484848403610b59565b50505050565b73ffffffffffffffffffffffffffffffffffffffff8316610e85576040517f08c379a000000000000000000000000000000000000000000000000000000000815260206004820152602560248201527f45524332303a207472616e736665722066726f6d20746865207a65726f20616460448201527f64726573730000000000000000000000000000000000000000000000000000006064820152608401610656565b73ffffffffffffffffffffffffffffffffffffffff8216610f28576040517f08c379a000000000000000000000000000000000000000000000000000000000815260206004820152602360248201527f45524332303a207472616e7366657220746f20746865207a65726f206164647260448201527f65737300000000000000000000000000000000000000000000000000000000006064820152608401610656565b73ffffffffffffffffffffffffffffffffffffffff83165f9081526020819052604090205481811015610fdd576040517f08c379a000000000000000000000000000000000000000000000000000000000815260206004820152602660248201527f45524332303a207472616e7366657220616d6f756e742065786365656473206260448201527f616c616e636500000000000000000000000000000000000000000000000000006064820152608401610656565b73ffffffffffffffffffffffffffffffffffffffff8481165f81815260208181526040808320878703905593871680835291849020805487019055925185815290927fddf252ad1be2c89b69c2b068fc378daa952ba7f163c4a11628f55a4df523b3ef910160405180910390a3610ddc565b5f7f8b73c3c69bb8fe3d512ecc4cf759cc79239f7b179b0ffacaa9a75d522b39400f611079610423565b8051602091820120604080518082018252600181527f310000000000000000000000000000000000000000000000000000000000000090840152805192830193909352918101919091527fc89efdaa54c0f20c7adf612882df0950f5a951637e0307cdcb4c672f298b8bc66060820152608081018390523060a082015260c001604051602081830303815290604052805190602001209050919050565b73ffffffffffffffffffffffffffffffffffffffff8216611193576040517f08c379a000000000000000000000000000000000000000000000000000000000815260206004820152601f60248201527f45524332303a206d696e7420746f20746865207a65726f2061646472657373006044820152606401610656565b8060025f8282546111a491906115f0565b909155505073ffffffffffffffffffffffffffffffffffffffff82165f81815260208181526040808320805486019055518481527fddf252ad1be2c89b69c2b068fc378daa952ba7f163c4a11628f55a4df523b3ef910160405180910390a35050565b73ffffffffffffffffffffffffffffffffffffffff82166112aa576040517f08c379a000000000000000000000000000000000000000000000000000000000815260206004820152602160248201527f45524332303a206275726e2066726f6d20746865207a65726f2061646472657360448201527f73000000000000000000000000000000000000000000000000000000000000006064820152608401610656565b73ffffffffffffffffffffffffffffffffffffffff82165f908152602081905260409020548181101561135f576040517f08c379a000000000000000000000000000000000000000000000000000000000815260206004820152602260248201527f45524332303a206275726e20616d6f756e7420657863656564732062616c616e60448201527f63650000000000000000000000000000000000000000000000000000000000006064820152608401610656565b73ffffffffffffffffffffffffffffffffffffffff83165f818152602081815260408083208686039055600280548790039055518581529192917fddf252ad1be2c89b69c2b068fc378daa952ba7f163c4a11628f55a4df523b3ef9101610cff565b5f602080835283518060208501525f5b818110156113ed578581018301518582016040015282016113d1565b505f6040828601015260407fffffffffffffffffffffffffffffffffffffffffffffffffffffffffffffffe0601f8301168501019250505092915050565b803573ffffffffffffffffffffffffffffffffffffffff8116811461144e575f80fd5b919050565b5f8060408385031215611464575f80fd5b61146d8361142b565b946020939093013593505050565b5f805f6060848603121561148d575f80fd5b6114968461142b565b92506114a46020850161142b565b9150604084013590509250925092565b5f602082840312156114c4575f80fd5b6114cd8261142b565b9392505050565b5f805f805f805f60e0888a0312156114ea575f80fd5b6114f38861142b565b96506115016020890161142b565b95506040880135945060608801359350608088013560ff81168114611524575f80fd5b9699959850939692959460a0840135945060c09093013592915050565b5f8060408385031215611552575f80fd5b61155b8361142b565b91506115696020840161142b565b90509250929050565b600181811c9082168061158657607f821691505b6020821081036115bd577f4e487b71000000000000000000000000000000000000000000000000000000005f52602260045260245ffd5b50919050565b7f4e487b71000000000000000000000000000000000000000000000000000000005f52601160045260245ffd5b808201808211156104c6576104c66115c3565b5f7fffffffffffffffffffffffffffffffffffffffffffffffffffffffffffffffff8203611633576116336115c3565b506001019056fea26469706673582212206f537116956ccf676a4f92deaccf62ff124bbd82e9b971098baf13f3cfe30b1764736f6c63430008180033a2646970667358221220d88f10b239b52261538bf63fdd097edcee5ccd4123abdfe4ad5c74401348643664736f6c63430008180033",
  "linkReferences": {},
  "deployedLinkReferences": {}
}