{
  "_format": "hh-sol-artifact-1",
  "contractName": "PolygonZkEVMBridgeMock",
  "sourceName": "contracts/mocks/PolygonZkEVMBridgeMock.sol",
  "abi": [
    {
      "inputs": [],
      "name": "AlreadyClaimed",
      "type": "error"
    },
    {
      "inputs": [],
      "name": "AmountDoesNotMatchMsgValue",
      "type": "error"
    },
    {
      "inputs": [],
      "name": "DestinationNetworkInvalid",
      "type": "error"
    },
    {
      "inputs": [],
      "name": "EtherTransferFailed",
      "type": "error"
    },
    {
      "inputs": [],
      "name": "GlobalExitRootInvalid",
      "type": "error"
    },
    {
      "inputs": [],
      "name": "InvalidSmtProof",
      "type": "error"
    },
    {
      "inputs": [],
      "name": "MerkleTreeFull",
      "type": "error"
    },
    {
      "inputs": [],
      "name": "MessageFailed",
      "type": "error"
    },
    {
      "inputs": [],
      "name": "MsgValueNotZero",
      "type": "error"
    },
    {
      "inputs": [],
      "name": "NotValidAmount",
      "type": "error"
    },
    {
      "inputs": [],
      "name": "NotValidOwner",
      "type": "error"
    },
    {
      "inputs": [],
      "name": "NotValidSignature",
      "type": "error"
    },
    {
      "inputs": [],
      "name": "NotValidSpender",
      "type": "error"
    },
    {
      "inputs": [],
      "name": "OnlyEmergencyState",
      "type": "error"
    },
    {
      "inputs": [],
      "name": "OnlyNotEmergencyState",
      "type": "error"
    },
    {
      "inputs": [],
      "name": "OnlyPolygonZkEVM",
      "type": "error"
    },
    {
      "anonymous": false,
      "inputs": [
        {
          "indexed": false,
          "internalType": "uint8",
          "name": "leafType",
          "type": "uint8"
        },
        {
          "indexed": false,
          "internalType": "uint32",
          "name": "originNetwork",
          "type": "uint32"
        },
        {
          "indexed": false,
          "internalType": "address",
          "name": "originAddress",
          "type": "address"
        },
        {
          "indexed": false,
          "internalType": "uint32",
          "name": "destinationNetwork",
          "type": "uint32"
        },
        {
          "indexed": false,
          "internalType": "address",
          "name": "destinationAddress",
          "type": "address"
        },
        {
          "indexed": false,
          "internalType": "uint256",
          "name": "amount",
          "type": "uint256"
        },
        {
          "indexed": false,
          "internalType": "bytes",
          "name": "metadata",
          "type": "bytes"
        },
        {
          "indexed": false,
          "internalType": "uint32",
          "name": "depositCount",
          "type": "uint32"
        }
      ],
      "name": "BridgeEvent",
      "type": "event"
    },
    {
      "anonymous": false,
      "inputs": [
        {
          "indexed": false,
          "internalType": "uint32",
          "name": "index",
          "type": "uint32"
        },
        {
          "indexed": false,
          "internalType": "uint32",
          "name": "originNetwork",
          "type": "uint32"
        },
        {
          "indexed": false,
          "internalType": "address",
          "name": "originAddress",
          "type": "address"
        },
        {
          "indexed": false,
          "internalType": "address",
          "name": "destinationAddress",
          "type": "address"
        },
        {
          "indexed": false,
          "internalType": "uint256",
          "name": "amount",
          "type": "uint256"
        }
      ],
      "name": "ClaimEvent",
      "type": "event"
    },
    {
      "anonymous": false,
      "inputs": [],
      "name": "EmergencyStateActivated",
      "type": "event"
    },
    {
      "anonymous": false,
      "inputs": [],
      "name": "EmergencyStateDeactivated",
      "type": "event"
    },
    {
      "anonymous": false,
      "inputs": [
        {
          "indexed": false,
          "internalType": "uint8",
          "name": "version",
          "type": "uint8"
        }
      ],
      "name": "Initialized",
      "type": "event"
    },
    {
      "anonymous": false,
      "inputs": [
        {
          "indexed": false,
          "internalType": "uint32",
          "name": "originNetwork",
          "type": "uint32"
        },
        {
          "indexed": false,
          "internalType": "address",
          "name": "originTokenAddress",
          "type": "address"
        },
        {
          "indexed": false,
          "internalType": "address",
          "name": "wrappedTokenAddress",
          "type": "address"
        },
        {
          "indexed": false,
          "internalType": "bytes",
          "name": "metadata",
          "type": "bytes"
        }
      ],
      "name": "NewWrappedToken",
      "type": "event"
    },
    {
      "anonymous": false,
      "inputs": [
        {
          "indexed": true,
          "internalType": "address",
          "name": "previousOwner",
          "type": "address"
        },
        {
          "indexed": true,
          "internalType": "address",
          "name": "newOwner",
          "type": "address"
        }
      ],
      "name": "OwnershipTransferred",
      "type": "event"
    },
    {
      "inputs": [],
      "name": "activateEmergencyState",
      "outputs": [],
      "stateMutability": "nonpayable",
      "type": "function"
    },
    {
      "inputs": [
        {
          "internalType": "uint32",
          "name": "destinationNetwork",
          "type": "uint32"
        },
        {
          "internalType": "address",
          "name": "destinationAddress",
          "type": "address"
        },
        {
          "internalType": "uint256",
          "name": "amount",
          "type": "uint256"
        },
        {
          "internalType": "address",
          "name": "token",
          "type": "address"
        },
        {
          "internalType": "bool",
          "name": "forceUpdateGlobalExitRoot",
          "type": "bool"
        },
        {
          "internalType": "bytes",
          "name": "permitData",
          "type": "bytes"
        }
      ],
      "name": "bridgeAsset",
      "outputs": [],
      "stateMutability": "payable",
      "type": "function"
    },
    {
      "inputs": [
        {
          "internalType": "uint32",
          "name": "destinationNetwork",
          "type": "uint32"
        },
        {
          "internalType": "address",
          "name": "destinationAddress",
          "type": "address"
        },
        {
          "internalType": "bool",
          "name": "forceUpdateGlobalExitRoot",
          "type": "bool"
        },
        {
          "internalType": "bytes",
          "name": "metadata",
          "type": "bytes"
        }
      ],
      "name": "bridgeMessage",
      "outputs": [],
      "stateMutability": "payable",
      "type": "function"
    },
    {
      "inputs": [
        {
          "internalType": "bytes32",
          "name": "leafHash",
          "type": "bytes32"
        },
        {
          "internalType": "bytes32[32]",
          "name": "smtProof",
          "type": "bytes32[32]"
        },
        {
          "internalType": "uint32",
          "name": "index",
          "type": "uint32"
        }
      ],
      "name": "calculateRoot",
      "outputs": [
        {
          "internalType": "bytes32",
          "name": "",
          "type": "bytes32"
        }
      ],
      "stateMutability": "pure",
      "type": "function"
    },
    {
      "inputs": [
        {
          "internalType": "bytes32[32]",
          "name": "smtProof",
          "type": "bytes32[32]"
        },
        {
          "internalType": "uint32",
          "name": "index",
          "type": "uint32"
        },
        {
          "internalType": "bytes32",
          "name": "mainnetExitRoot",
          "type": "bytes32"
        },
        {
          "internalType": "bytes32",
          "name": "rollupExitRoot",
          "type": "bytes32"
        },
        {
          "internalType": "uint32",
          "name": "originNetwork",
          "type": "uint32"
        },
        {
          "internalType": "address",
          "name": "originTokenAddress",
          "type": "address"
        },
        {
          "internalType": "uint32",
          "name": "destinationNetwork",
          "type": "uint32"
        },
        {
          "internalType": "address",
          "name": "destinationAddress",
          "type": "address"
        },
        {
          "internalType": "uint256",
          "name": "amount",
          "type": "uint256"
        },
        {
          "internalType": "bytes",
          "name": "metadata",
          "type": "bytes"
        }
      ],
      "name": "claimAsset",
      "outputs": [],
      "stateMutability": "nonpayable",
      "type": "function"
    },
    {
      "inputs": [
        {
          "internalType": "bytes32[32]",
          "name": "smtProof",
          "type": "bytes32[32]"
        },
        {
          "internalType": "uint32",
          "name": "index",
          "type": "uint32"
        },
        {
          "internalType": "bytes32",
          "name": "mainnetExitRoot",
          "type": "bytes32"
        },
        {
          "internalType": "bytes32",
          "name": "rollupExitRoot",
          "type": "bytes32"
        },
        {
          "internalType": "uint32",
          "name": "originNetwork",
          "type": "uint32"
        },
        {
          "internalType": "address",
          "name": "originAddress",
          "type": "address"
        },
        {
          "internalType": "uint32",
          "name": "destinationNetwork",
          "type": "uint32"
        },
        {
          "internalType": "address",
          "name": "destinationAddress",
          "type": "address"
        },
        {
          "internalType": "uint256",
          "name": "amount",
          "type": "uint256"
        },
        {
          "internalType": "bytes",
          "name": "metadata",
          "type": "bytes"
        }
      ],
      "name": "claimMessage",
      "outputs": [],
      "stateMutability": "nonpayable",
      "type": "function"
    },
    {
      "inputs": [
        {
          "internalType": "uint256",
          "name": "",
          "type": "uint256"
        }
      ],
      "name": "claimedBitMap",
      "outputs": [
        {
          "internalType": "uint256",
          "name": "",
          "type": "uint256"
        }
      ],
      "stateMutability": "view",
      "type": "function"
    },
    {
      "inputs": [],
      "name": "deactivateEmergencyState",
      "outputs": [],
      "stateMutability": "nonpayable",
      "type": "function"
    },
    {
      "inputs": [],
      "name": "depositCount",
      "outputs": [
        {
          "internalType": "uint256",
          "name": "",
          "type": "uint256"
        }
      ],
      "stateMutability": "view",
      "type": "function"
    },
    {
      "inputs": [
        {
          "internalType": "uint8",
          "name": "leafType",
          "type": "uint8"
        },
        {
          "internalType": "uint32",
          "name": "originNetwork",
          "type": "uint32"
        },
        {
          "internalType": "address",
          "name": "originAddress",
          "type": "address"
        },
        {
          "internalType": "uint32",
          "name": "destinationNetwork",
          "type": "uint32"
        },
        {
          "internalType": "address",
          "name": "destinationAddress",
          "type": "address"
        },
        {
          "internalType": "uint256",
          "name": "amount",
          "type": "uint256"
        },
        {
          "internalType": "bytes32",
          "name": "metadataHash",
          "type": "bytes32"
        }
      ],
      "name": "getLeafValue",
      "outputs": [
        {
          "internalType": "bytes32",
          "name": "",
          "type": "bytes32"
        }
      ],
      "stateMutability": "pure",
      "type": "function"
    },
    {
      "inputs": [],
      "name": "getRoot",
      "outputs": [
        {
          "internalType": "bytes32",
          "name": "",
          "type": "bytes32"
        }
      ],
      "stateMutability": "view",
      "type": "function"
    },
    {
      "inputs": [
        {
          "internalType": "uint32",
          "name": "originNetwork",
          "type": "uint32"
        },
        {
          "internalType": "address",
          "name": "originTokenAddress",
          "type": "address"
        }
      ],
      "name": "getTokenWrappedAddress",
      "outputs": [
        {
          "internalType": "address",
          "name": "",
          "type": "address"
        }
      ],
      "stateMutability": "view",
      "type": "function"
    },
    {
      "inputs": [],
      "name": "globalExitRootManager",
      "outputs": [
        {
          "internalType": "contract IBasePolygonZkEVMGlobalExitRoot",
          "name": "",
          "type": "address"
        }
      ],
      "stateMutability": "view",
      "type": "function"
    },
    {
      "inputs": [
        {
          "internalType": "uint32",
          "name": "_networkID",
          "type": "uint32"
        },
        {
          "internalType": "contract IBasePolygonZkEVMGlobalExitRoot",
          "name": "_globalExitRootManager",
          "type": "address"
        },
        {
          "internalType": "address",
          "name": "_polygonZkEVMaddress",
          "type": "address"
        }
      ],
      "name": "initialize",
      "outputs": [],
      "stateMutability": "nonpayable",
      "type": "function"
    },
    {
      "inputs": [
        {
          "internalType": "uint256",
          "name": "index",
          "type": "uint256"
        }
      ],
      "name": "isClaimed",
      "outputs": [
        {
          "internalType": "bool",
          "name": "",
          "type": "bool"
        }
      ],
      "stateMutability": "view",
      "type": "function"
    },
    {
      "inputs": [],
      "name": "isEmergencyState",
      "outputs": [
        {
          "internalType": "bool",
          "name": "",
          "type": "bool"
        }
      ],
      "stateMutability": "view",
      "type": "function"
    },
    {
      "inputs": [],
      "name": "lastUpdatedDepositCount",
      "outputs": [
        {
          "internalType": "uint32",
          "name": "",
          "type": "uint32"
        }
      ],
      "stateMutability": "view",
      "type": "function"
    },
    {
      "inputs": [],
      "name": "maxEtherBridge",
      "outputs": [
        {
          "internalType": "uint256",
          "name": "",
          "type": "uint256"
        }
      ],
      "stateMutability": "view",
      "type": "function"
    },
    {
      "inputs": [],
      "name": "networkID",
      "outputs": [
        {
          "internalType": "uint32",
          "name": "",
          "type": "uint32"
        }
      ],
      "stateMutability": "view",
      "type": "function"
    },
    {
      "inputs": [],
      "name": "owner",
      "outputs": [
        {
          "internalType": "address",
          "name": "",
          "type": "address"
        }
      ],
      "stateMutability": "view",
      "type": "function"
    },
    {
      "inputs": [],
      "name": "polygonZkEVMaddress",
      "outputs": [
        {
          "internalType": "address",
          "name": "",
          "type": "address"
        }
      ],
      "stateMutability": "view",
      "type": "function"
    },
    {
      "inputs": [
        {
          "internalType": "uint32",
          "name": "originNetwork",
          "type": "uint32"
        },
        {
          "internalType": "address",
          "name": "originTokenAddress",
          "type": "address"
        },
        {
          "internalType": "string",
          "name": "name",
          "type": "string"
        },
        {
          "internalType": "string",
          "name": "symbol",
          "type": "string"
        },
        {
          "internalType": "uint8",
          "name": "decimals",
          "type": "uint8"
        }
      ],
      "name": "precalculatedWrapperAddress",
      "outputs": [
        {
          "internalType": "address",
          "name": "",
          "type": "address"
        }
      ],
      "stateMutability": "view",
      "type": "function"
    },
    {
      "inputs": [],
      "name": "renounceOwnership",
      "outputs": [],
      "stateMutability": "nonpayable",
      "type": "function"
    },
    {
      "inputs": [
        {
          "internalType": "uint256",
          "name": "_maxEtherBridge",
          "type": "uint256"
        }
      ],
      "name": "setMaxEtherBridge",
      "outputs": [],
      "stateMutability": "nonpayable",
      "type": "function"
    },
    {
      "inputs": [
        {
          "internalType": "uint32",
          "name": "_networkID",
          "type": "uint32"
        }
      ],
      "name": "setNetworkID",
      "outputs": [],
      "stateMutability": "nonpayable",
      "type": "function"
    },
    {
      "inputs": [
        {
          "internalType": "bytes32",
          "name": "",
          "type": "bytes32"
        }
      ],
      "name": "tokenInfoToWrappedToken",
      "outputs": [
        {
          "internalType": "address",
          "name": "",
          "type": "address"
        }
      ],
      "stateMutability": "view",
      "type": "function"
    },
    {
      "inputs": [
        {
          "internalType": "address",
          "name": "newOwner",
          "type": "address"
        }
      ],
      "name": "transferOwnership",
      "outputs": [],
      "stateMutability": "nonpayable",
      "type": "function"
    },
    {
      "inputs": [],
      "name": "updateGlobalExitRoot",
      "outputs": [],
      "stateMutability": "nonpayable",
      "type": "function"
    },
    {
      "inputs": [
        {
          "internalType": "bytes32",
          "name": "leafHash",
          "type": "bytes32"
        },
        {
          "internalType": "bytes32[32]",
          "name": "smtProof",
          "type": "bytes32[32]"
        },
        {
          "internalType": "uint32",
          "name": "index",
          "type": "uint32"
        },
        {
          "internalType": "bytes32",
          "name": "root",
          "type": "bytes32"
        }
      ],
      "name": "verifyMerkleProof",
      "outputs": [
        {
          "internalType": "bool",
          "name": "",
          "type": "bool"
        }
      ],
      "stateMutability": "pure",
      "type": "function"
    },
    {
      "inputs": [
        {
          "internalType": "address",
          "name": "",
          "type": "address"
        }
      ],
      "name": "wrappedTokenToTokenInfo",
      "outputs": [
        {
          "internalType": "uint32",
          "name": "originNetwork",
          "type": "uint32"
        },
        {
          "internalType": "address",
          "name": "originTokenAddress",
          "type": "address"
        }
      ],
      "stateMutability": "view",
      "type": "function"
    }
  ],
  "bytecode": "0x608060405234801561000f575f80fd5b506160888061001d5f395ff3fe608060405260043610620001eb575f3560e01c806379e2cf971162000106578063bab161bf116200009e578063dbc16976116200006a578063dbc169761462000734578063ee25560b146200074b578063f2fde38b146200077a578063fb570834146200079e575f80fd5b8063bab161bf1462000672578063be5831c714620006ab578063cd58657914620006e6578063d02103ca14620006fd575f80fd5b80638da5cb5b11620000de5780638da5cb5b14620005c857806391e57e2d14620005f45780639e34070f146200060b578063aaa13cc2146200064e575f80fd5b806379e2cf97146200054857806381b1c174146200055f57806383f2440314620005a4575f80fd5b80632d2c9d9411620001865780633e19704311620001525780633e19704314620004045780635ca1e16514620004f6578063647c576c146200050d578063715018a61462000531575f80fd5b80632d2c9d9414620003055780632dfdf0b51462000329578063318aee3d146200034f57806334ac9cf214620003d6575f80fd5b8063240ff37811620001c6578063240ff37814620002825780632b5e42e714620002995780632c3f58cd14620002bd5780632cffd02e14620002e1575f80fd5b806315064c9614620001ef5780632072f6c5146200021f57806322e95f2c1462000238575b5f80fd5b348015620001fb575f80fd5b506068546200020a9060ff1681565b60405190151581526020015b60405180910390f35b3480156200022b575f80fd5b5062000236620007c2565b005b34801562000244575f80fd5b506200025c620002563660046200374b565b62000820565b60405173ffffffffffffffffffffffffffffffffffffffff909116815260200162000216565b6200023662000293366004620037db565b620008c2565b348015620002a5575f80fd5b5062000236620002b73660046200385a565b62000ae9565b348015620002c9575f80fd5b5062000236620002db36600462003872565b62000af8565b348015620002ed575f80fd5b5062000236620002ff366004620038a7565b62000b3e565b34801562000311575f80fd5b506200023662000323366004620038a7565b620010c3565b34801562000335575f80fd5b506200034060535481565b60405190815260200162000216565b3480156200035b575f80fd5b50620003a46200036d36600462003985565b606b6020525f908152604090205463ffffffff811690640100000000900473ffffffffffffffffffffffffffffffffffffffff1682565b6040805163ffffffff909316835273ffffffffffffffffffffffffffffffffffffffff90911660208301520162000216565b348015620003e2575f80fd5b50606c546200025c9073ffffffffffffffffffffffffffffffffffffffff1681565b34801562000410575f80fd5b506200034062000422366004620039b2565b6040517fff0000000000000000000000000000000000000000000000000000000000000060f889901b1660208201527fffffffff0000000000000000000000000000000000000000000000000000000060e088811b821660218401527fffffffffffffffffffffffffffffffffffffffff000000000000000000000000606089811b821660258601529188901b909216603984015285901b16603d82015260518101839052607181018290525f90609101604051602081830303815290604052805190602001209050979650505050505050565b34801562000502575f80fd5b5062000340620012c3565b34801562000519575f80fd5b50620002366200052b36600462003a37565b620013a8565b3480156200053d575f80fd5b5062000236620015fd565b34801562000554575f80fd5b506200023662001612565b3480156200056b575f80fd5b506200025c6200057d3660046200385a565b606a6020525f908152604090205473ffffffffffffffffffffffffffffffffffffffff1681565b348015620005b0575f80fd5b5062000340620005c236600462003a84565b6200164c565b348015620005d4575f80fd5b50609f5473ffffffffffffffffffffffffffffffffffffffff166200025c565b34801562000600575f80fd5b506200034060d15481565b34801562000617575f80fd5b506200020a620006293660046200385a565b600881901c5f90815260696020526040902054600160ff9092169190911b9081161490565b3480156200065a575f80fd5b506200025c6200066c36600462003ac5565b6200172f565b3480156200067e575f80fd5b506068546200069590610100900463ffffffff1681565b60405163ffffffff909116815260200162000216565b348015620006b7575f80fd5b506068546200069590790100000000000000000000000000000000000000000000000000900463ffffffff1681565b62000236620006f736600462003b72565b62001919565b34801562000709575f80fd5b506068546200025c9065010000000000900473ffffffffffffffffffffffffffffffffffffffff1681565b34801562000740575f80fd5b5062000236620019ed565b34801562000757575f80fd5b5062000340620007693660046200385a565b60696020525f908152604090205481565b34801562000786575f80fd5b50620002366200079836600462003985565b62001a49565b348015620007aa575f80fd5b506200020a620007bc36600462003c0e565b62001b06565b606c5473ffffffffffffffffffffffffffffffffffffffff16331462000814576040517fe2e8106b00000000000000000000000000000000000000000000000000000000815260040160405180910390fd5b6200081e62001bee565b565b6040805160e084901b7fffffffff0000000000000000000000000000000000000000000000000000000016602080830191909152606084901b7fffffffffffffffffffffffffffffffffffffffff00000000000000000000000016602483015282516018818403018152603890920183528151918101919091205f908152606a909152205473ffffffffffffffffffffffffffffffffffffffff165b92915050565b60685460ff161562000900576040517f2f0047fc00000000000000000000000000000000000000000000000000000000815260040160405180910390fd5b60685463ffffffff868116610100909204161480620009265750600263ffffffff861610155b156200095e576040517f0595ea2e00000000000000000000000000000000000000000000000000000000815260040160405180910390fd5b7f501781209a1f8899323b96b4ef08b168df93e0a90c673d1e4cce39366cb62f9b6001606860019054906101000a900463ffffffff16338888348888605354604051620009b49998979695949392919062003c9f565b60405180910390a162000ad162000acb6001606860019054906101000a900463ffffffff16338989348989604051620009ef92919062003d19565b60405180910390206040517fff0000000000000000000000000000000000000000000000000000000000000060f889901b1660208201527fffffffff0000000000000000000000000000000000000000000000000000000060e088811b821660218401527fffffffffffffffffffffffffffffffffffffffff000000000000000000000000606089811b821660258601529188901b909216603984015285901b16603d82015260518101839052607181018290525f90609101604051602081830303815290604052805190602001209050979650505050505050565b62001c81565b821562000ae25762000ae262001d95565b5050505050565b62000af362001e65565b60d155565b62000b0262001e65565b6068805463ffffffff909216610100027fffffffffffffffffffffffffffffffffffffffffffffffffffffff00000000ff909216919091179055565b60685460ff161562000b7c576040517f2f0047fc00000000000000000000000000000000000000000000000000000000815260040160405180910390fd5b62000b928b8b8b8b8b8b8b8b8b8b8b5f62001ee8565b73ffffffffffffffffffffffffffffffffffffffff861662000c6a57604080515f8082526020820190925273ffffffffffffffffffffffffffffffffffffffff861690859060405162000be6919062003d79565b5f6040518083038185875af1925050503d805f811462000c22576040519150601f19603f3d011682016040523d82523d5f602084013e62000c27565b606091505b505090508062000c63576040517f6747a28800000000000000000000000000000000000000000000000000000000815260040160405180910390fd5b506200104b565b60685463ffffffff61010090910481169088160362000cac5762000ca673ffffffffffffffffffffffffffffffffffffffff87168585620020d3565b6200104b565b6040517fffffffff0000000000000000000000000000000000000000000000000000000060e089901b1660208201527fffffffffffffffffffffffffffffffffffffffff000000000000000000000000606088901b1660248201525f90603801604080517fffffffffffffffffffffffffffffffffffffffffffffffffffffffffffffffe081840301815291815281516020928301205f818152606a90935291205490915073ffffffffffffffffffffffffffffffffffffffff168062000fc2575f808062000d7e8688018862003e88565b9250925092505f8584848460405162000d979062003707565b62000da59392919062003f44565b8190604051809103905ff590508015801562000dc3573d5f803e3d5ffd5b506040517f40c10f1900000000000000000000000000000000000000000000000000000000815273ffffffffffffffffffffffffffffffffffffffff8c81166004830152602482018c9052919250908216906340c10f19906044015f604051808303815f87803b15801562000e36575f80fd5b505af115801562000e49573d5f803e3d5ffd5b5050505080606a5f8881526020019081526020015f205f6101000a81548173ffffffffffffffffffffffffffffffffffffffff021916908373ffffffffffffffffffffffffffffffffffffffff16021790555060405180604001604052808e63ffffffff1681526020018d73ffffffffffffffffffffffffffffffffffffffff16815250606b5f8373ffffffffffffffffffffffffffffffffffffffff1673ffffffffffffffffffffffffffffffffffffffff1681526020019081526020015f205f820151815f015f6101000a81548163ffffffff021916908363ffffffff1602179055506020820151815f0160046101000a81548173ffffffffffffffffffffffffffffffffffffffff021916908373ffffffffffffffffffffffffffffffffffffffff1602179055509050507f490e59a1701b938786ac72570a1efeac994a3dbe96e2e883e19e902ace6e6a398d8d838b8b60405162000fb095949392919062003f80565b60405180910390a15050505062001048565b6040517f40c10f1900000000000000000000000000000000000000000000000000000000815273ffffffffffffffffffffffffffffffffffffffff8781166004830152602482018790528216906340c10f19906044015f604051808303815f87803b15801562001030575f80fd5b505af115801562001043573d5f803e3d5ffd5b505050505b50505b6040805163ffffffff8c811682528916602082015273ffffffffffffffffffffffffffffffffffffffff88811682840152861660608201526080810185905290517f25308c93ceeed162da955b3f7ce3e3f93606579e40fb92029faa9efe275459839181900360a00190a15050505050505050505050565b60685460ff161562001101576040517f2f0047fc00000000000000000000000000000000000000000000000000000000815260040160405180910390fd5b620011188b8b8b8b8b8b8b8b8b8b8b600162001ee8565b5f8473ffffffffffffffffffffffffffffffffffffffff1684888a86866040516024016200114a949392919062003fc7565b604080517fffffffffffffffffffffffffffffffffffffffffffffffffffffffffffffffe08184030181529181526020820180517bffffffffffffffffffffffffffffffffffffffffffffffffffffffff167f1806b5f20000000000000000000000000000000000000000000000000000000017905251620011cd919062003d79565b5f6040518083038185875af1925050503d805f811462001209576040519150601f19603f3d011682016040523d82523d5f602084013e6200120e565b606091505b50509050806200124a576040517f37e391c300000000000000000000000000000000000000000000000000000000815260040160405180910390fd5b6040805163ffffffff8d811682528a16602082015273ffffffffffffffffffffffffffffffffffffffff89811682840152871660608201526080810186905290517f25308c93ceeed162da955b3f7ce3e3f93606579e40fb92029faa9efe275459839181900360a00190a1505050505050505050505050565b6053545f90819081805b60208110156200139f578083901c600116600103620013305760338160208110620012fc57620012fc6200400e565b015460408051602081019290925281018590526060016040516020818303038152906040528051906020012093506200135d565b60408051602081018690529081018390526060016040516020818303038152906040528051906020012093505b60408051602081018490529081018390526060016040516020818303038152906040528051906020012091508080620013969062004068565b915050620012cd565b50919392505050565b5f54610100900460ff1615808015620013c757505f54600160ff909116105b80620013e25750303b158015620013e257505f5460ff166001145b62001474576040517f08c379a000000000000000000000000000000000000000000000000000000000815260206004820152602e60248201527f496e697469616c697a61626c653a20636f6e747261637420697320616c72656160448201527f647920696e697469616c697a656400000000000000000000000000000000000060648201526084015b60405180910390fd5b5f80547fffffffffffffffffffffffffffffffffffffffffffffffffffffffffffffff001660011790558015620014d1575f80547fffffffffffffffffffffffffffffffffffffffffffffffffffffffffffff00ff166101001790555b606880547fffffffffffffff000000000000000000000000000000000000000000000000ff1661010063ffffffff8716027fffffffffffffff0000000000000000000000000000000000000000ffffffffff16176501000000000073ffffffffffffffffffffffffffffffffffffffff8681169190910291909117909155606c80547fffffffffffffffffffffffff0000000000000000000000000000000000000000169184169190911790556703782dace9d9000060d15562001594620021a9565b8015620015f7575f80547fffffffffffffffffffffffffffffffffffffffffffffffffffffffffffff00ff169055604051600181527f7f26b83ff96e1f2b6a682f133852f6798a09c465da95921460cefb38474024989060200160405180910390a15b50505050565b6200160762001e65565b6200081e5f62002247565b605354606854790100000000000000000000000000000000000000000000000000900463ffffffff1610156200081e576200081e62001d95565b5f83815b60208110156200172657600163ffffffff8516821c81169003620016c2578481602081106200168357620016836200400e565b602002013582604051602001620016a4929190918252602082015260400190565b60405160208183030381529060405280519060200120915062001711565b81858260208110620016d857620016d86200400e565b6020020135604051602001620016f8929190918252602082015260400190565b6040516020818303038152906040528051906020012091505b806200171d8162004068565b91505062001650565b50949350505050565b6040517fffffffff0000000000000000000000000000000000000000000000000000000060e089901b1660208201527fffffffffffffffffffffffffffffffffffffffff000000000000000000000000606088901b1660248201525f9081906038016040516020818303038152906040528051906020012090505f60ff60f81b308360405180602001620017c39062003707565b7fffffffffffffffffffffffffffffffffffffffffffffffffffffffffffffffe082820381018352601f9091011660408190526200180e908d908d908d908d908d90602001620040a2565b604080517fffffffffffffffffffffffffffffffffffffffffffffffffffffffffffffffe0818403018152908290526200184c9291602001620040e2565b60405160208183030381529060405280519060200120604051602001620018d594939291907fff0000000000000000000000000000000000000000000000000000000000000094909416845260609290921b7fffffffffffffffffffffffffffffffffffffffff0000000000000000000000001660018401526015830152603582015260550190565b604080518083037fffffffffffffffffffffffffffffffffffffffffffffffffffffffffffffffe001815291905280516020909101209a9950505050505050505050565b60d154341115620019d3576040517f08c379a000000000000000000000000000000000000000000000000000000000815260206004820152604760248201527f506f6c79676f6e5a6b45564d4272696467653a3a62726964676541737365743a60448201527f2043616e6e6f7420627269646765206d6f7265207468616e206d61784574686560648201527f7242726964676500000000000000000000000000000000000000000000000000608482015260a4016200146b565b620019e487878787878787620022bd565b50505050505050565b606c5473ffffffffffffffffffffffffffffffffffffffff16331462001a3f576040517fe2e8106b00000000000000000000000000000000000000000000000000000000815260040160405180910390fd5b6200081e62002806565b62001a5362001e65565b73ffffffffffffffffffffffffffffffffffffffff811662001af8576040517f08c379a000000000000000000000000000000000000000000000000000000000815260206004820152602660248201527f4f776e61626c653a206e6577206f776e657220697320746865207a65726f206160448201527f646472657373000000000000000000000000000000000000000000000000000060648201526084016200146b565b62001b038162002247565b50565b5f84815b602081101562001be057600163ffffffff8616821c8116900362001b7c5785816020811062001b3d5762001b3d6200400e565b60200201358260405160200162001b5e929190918252602082015260400190565b60405160208183030381529060405280519060200120915062001bcb565b8186826020811062001b925762001b926200400e565b602002013560405160200162001bb2929190918252602082015260400190565b6040516020818303038152906040528051906020012091505b8062001bd78162004068565b91505062001b0a565b50821490505b949350505050565b60685460ff161562001c2c576040517f2f0047fc00000000000000000000000000000000000000000000000000000000815260040160405180910390fd5b606880547fffffffffffffffffffffffffffffffffffffffffffffffffffffffffffffff001660011790556040517f2261efe5aef6fedc1fd1550b25facc9181745623049c7901287030b9ad1a5497905f90a1565b80600162001c92602060026200424b565b62001c9e919062004258565b6053541062001cd9576040517fef5ccf6600000000000000000000000000000000000000000000000000000000815260040160405180910390fd5b5f60535f815462001cea9062004068565b918290555090505f5b602081101562001d85578082901c60011660010362001d2b57826033826020811062001d235762001d236200400e565b015550505050565b6033816020811062001d415762001d416200400e565b01546040805160208101929092528101849052606001604051602081830303815290604052805190602001209250808062001d7c9062004068565b91505062001cf3565b5062001d906200426e565b505050565b6053546068805463ffffffff909216790100000000000000000000000000000000000000000000000000027fffffff00000000ffffffffffffffffffffffffffffffffffffffffffffffffff909216919091179081905573ffffffffffffffffffffffffffffffffffffffff65010000000000909104166333d6247d62001e1b620012c3565b6040518263ffffffff1660e01b815260040162001e3a91815260200190565b5f604051808303815f87803b15801562001e52575f80fd5b505af1158015620015f7573d5f803e3d5ffd5b609f5473ffffffffffffffffffffffffffffffffffffffff1633146200081e576040517f08c379a000000000000000000000000000000000000000000000000000000000815260206004820181905260248201527f4f776e61626c653a2063616c6c6572206973206e6f7420746865206f776e657260448201526064016200146b565b62001ef98b63ffffffff1662002895565b6068546040805160208082018e90528183018d9052825180830384018152606083019384905280519101207f257b36320000000000000000000000000000000000000000000000000000000090925260648101919091525f9165010000000000900473ffffffffffffffffffffffffffffffffffffffff169063257b3632906084016020604051808303815f875af115801562001f98573d5f803e3d5ffd5b505050506040513d601f19601f8201168201806040525081019062001fbe91906200429b565b9050805f0362001ff9576040517e2f6fad00000000000000000000000000000000000000000000000000000000815260040160405180910390fd5b60685463ffffffff888116610100909204161462002043576040517f0595ea2e00000000000000000000000000000000000000000000000000000000815260040160405180910390fd5b6068545f90610100900463ffffffff166200206057508962002063565b508a5b6200208c62002083848c8c8c8c8c8c8c604051620009ef92919062003d19565b8f8f8462001b06565b620020c3576040517fe0417cec00000000000000000000000000000000000000000000000000000000815260040160405180910390fd5b5050505050505050505050505050565b60405173ffffffffffffffffffffffffffffffffffffffff831660248201526044810182905262001d909084907fa9059cbb00000000000000000000000000000000000000000000000000000000906064015b604080517fffffffffffffffffffffffffffffffffffffffffffffffffffffffffffffffe08184030181529190526020810180517bffffffffffffffffffffffffffffffffffffffffffffffffffffffff167fffffffff0000000000000000000000000000000000000000000000000000000090931692909217909152620028f9565b5f54610100900460ff1662002241576040517f08c379a000000000000000000000000000000000000000000000000000000000815260206004820152602b60248201527f496e697469616c697a61626c653a20636f6e7472616374206973206e6f74206960448201527f6e697469616c697a696e6700000000000000000000000000000000000000000060648201526084016200146b565b6200081e335b609f805473ffffffffffffffffffffffffffffffffffffffff8381167fffffffffffffffffffffffff0000000000000000000000000000000000000000831681179093556040519116919082907f8be0079c531659141344cd1fd0a4f28419497f9722a3daafe3b4186f6b6457e0905f90a35050565b60685460ff1615620022fb576040517f2f0047fc00000000000000000000000000000000000000000000000000000000815260040160405180910390fd5b6200230562002a0b565b60685463ffffffff8881166101009092041614806200232b5750600263ffffffff881610155b1562002363576040517f0595ea2e00000000000000000000000000000000000000000000000000000000815260040160405180910390fd5b5f8060608773ffffffffffffffffffffffffffffffffffffffff8816620023c757883414620023be576040517fb89240f500000000000000000000000000000000000000000000000000000000815260040160405180910390fd5b5f9250620026b4565b341562002400576040517f798ee6f100000000000000000000000000000000000000000000000000000000815260040160405180910390fd5b73ffffffffffffffffffffffffffffffffffffffff8089165f908152606b602090815260409182902082518084019093525463ffffffff8116835264010000000090049092169181018290529015620024e9576040517f9dc29fac000000000000000000000000000000000000000000000000000000008152336004820152602481018b905273ffffffffffffffffffffffffffffffffffffffff8a1690639dc29fac906044015f604051808303815f87803b158015620024bf575f80fd5b505af1158015620024d2573d5f803e3d5ffd5b5050505080602001519450805f01519350620026b2565b8515620024fe57620024fe898b898962002a80565b6040517f70a082310000000000000000000000000000000000000000000000000000000081523060048201525f9073ffffffffffffffffffffffffffffffffffffffff8b16906370a0823190602401602060405180830381865afa15801562002569573d5f803e3d5ffd5b505050506040513d601f19601f820116820180604052508101906200258f91906200429b565b9050620025b573ffffffffffffffffffffffffffffffffffffffff8b1633308e62002f93565b6040517f70a082310000000000000000000000000000000000000000000000000000000081523060048201525f9073ffffffffffffffffffffffffffffffffffffffff8c16906370a0823190602401602060405180830381865afa15801562002620573d5f803e3d5ffd5b505050506040513d601f19601f820116820180604052508101906200264691906200429b565b905062002654828262004258565b6068548c9850610100900463ffffffff1696509350620026748762002ff3565b6200267f8c62003107565b6200268a8d62003210565b6040516020016200269e9392919062003f44565b604051602081830303815290604052945050505b505b7f501781209a1f8899323b96b4ef08b168df93e0a90c673d1e4cce39366cb62f9b5f84868e8e8688605354604051620026f5989796959493929190620042b3565b60405180910390a1620027e762000acb5f85878f8f8789805190602001206040517fff0000000000000000000000000000000000000000000000000000000000000060f889901b1660208201527fffffffff0000000000000000000000000000000000000000000000000000000060e088811b821660218401527fffffffffffffffffffffffffffffffffffffffff000000000000000000000000606089811b821660258601529188901b909216603984015285901b16603d82015260518101839052607181018290525f90609101604051602081830303815290604052805190602001209050979650505050505050565b8615620027f857620027f862001d95565b50505050620019e460018055565b60685460ff1662002843576040517f5386698100000000000000000000000000000000000000000000000000000000815260040160405180910390fd5b606880547fffffffffffffffffffffffffffffffffffffffffffffffffffffffffffffff001690556040517f1e5e34eea33501aecf2ebec9fe0e884a40804275ea7fe10b2ba084c8374308b3905f90a1565b600881901c5f8181526069602052604081208054600160ff861690811b9182189283905592909190818316900362000ae2576040517f646cf55800000000000000000000000000000000000000000000000000000000815260040160405180910390fd5b5f6200295c826040518060400160405280602081526020017f5361666545524332303a206c6f772d6c6576656c2063616c6c206661696c65648152508573ffffffffffffffffffffffffffffffffffffffff16620033089092919063ffffffff16565b80519091501562001d9057808060200190518101906200297d91906200432b565b62001d90576040517f08c379a000000000000000000000000000000000000000000000000000000000815260206004820152602a60248201527f5361666545524332303a204552433230206f7065726174696f6e20646964206e60448201527f6f7420737563636565640000000000000000000000000000000000000000000060648201526084016200146b565b60026001540362002a79576040517f08c379a000000000000000000000000000000000000000000000000000000000815260206004820152601f60248201527f5265656e7472616e637947756172643a207265656e7472616e742063616c6c0060448201526064016200146b565b6002600155565b5f62002a90600482848662004349565b62002a9b9162004372565b90507f2afa5331000000000000000000000000000000000000000000000000000000007fffffffff0000000000000000000000000000000000000000000000000000000082160162002d15575f80808080808062002afd896004818d62004349565b81019062002b0c9190620043bb565b96509650965096509650965096503373ffffffffffffffffffffffffffffffffffffffff168773ffffffffffffffffffffffffffffffffffffffff161462002b80576040517f912ecce700000000000000000000000000000000000000000000000000000000815260040160405180910390fd5b73ffffffffffffffffffffffffffffffffffffffff8616301462002bd0576040517f750643af00000000000000000000000000000000000000000000000000000000815260040160405180910390fd5b8a851462002c0a576040517f03fffc4b00000000000000000000000000000000000000000000000000000000815260040160405180910390fd5b6040805173ffffffffffffffffffffffffffffffffffffffff89811660248301528881166044830152606482018890526084820187905260ff861660a483015260c4820185905260e48083018590528351808403909101815261010490920183526020820180517bffffffffffffffffffffffffffffffffffffffffffffffffffffffff167fd505accf000000000000000000000000000000000000000000000000000000001790529151918e169162002cc5919062003d79565b5f604051808303815f865af19150503d805f811462002d00576040519150601f19603f3d011682016040523d82523d5f602084013e62002d05565b606091505b5050505050505050505062000ae2565b7fffffffff0000000000000000000000000000000000000000000000000000000081167f8fcbaf0c000000000000000000000000000000000000000000000000000000001462002d91576040517fe282c0ba00000000000000000000000000000000000000000000000000000000815260040160405180910390fd5b5f8080808080808062002da88a6004818e62004349565b81019062002db7919062004411565b975097509750975097509750975097503373ffffffffffffffffffffffffffffffffffffffff168873ffffffffffffffffffffffffffffffffffffffff161462002e2d576040517f912ecce700000000000000000000000000000000000000000000000000000000815260040160405180910390fd5b73ffffffffffffffffffffffffffffffffffffffff8716301462002e7d576040517f750643af00000000000000000000000000000000000000000000000000000000815260040160405180910390fd5b6040805173ffffffffffffffffffffffffffffffffffffffff8a811660248301528981166044830152606482018990526084820188905286151560a483015260ff861660c483015260e482018590526101048083018590528351808403909101815261012490920183526020820180517bffffffffffffffffffffffffffffffffffffffffffffffffffffffff167f8fcbaf0c000000000000000000000000000000000000000000000000000000001790529151918f169162002f41919062003d79565b5f604051808303815f865af19150503d805f811462002f7c576040519150601f19603f3d011682016040523d82523d5f602084013e62002f81565b606091505b50505050505050505050505050505050565b60405173ffffffffffffffffffffffffffffffffffffffff80851660248301528316604482015260648101829052620015f79085907f23b872dd000000000000000000000000000000000000000000000000000000009060840162002126565b60408051600481526024810182526020810180517bffffffffffffffffffffffffffffffffffffffffffffffffffffffff167f06fdde030000000000000000000000000000000000000000000000000000000017905290516060915f91829173ffffffffffffffffffffffffffffffffffffffff86169162003076919062003d79565b5f60405180830381855afa9150503d805f8114620030b0576040519150601f19603f3d011682016040523d82523d5f602084013e620030b5565b606091505b509150915081620030fc576040518060400160405280600781526020017f4e4f5f4e414d450000000000000000000000000000000000000000000000000081525062001be6565b62001be68162003318565b60408051600481526024810182526020810180517bffffffffffffffffffffffffffffffffffffffffffffffffffffffff167f95d89b410000000000000000000000000000000000000000000000000000000017905290516060915f91829173ffffffffffffffffffffffffffffffffffffffff8616916200318a919062003d79565b5f60405180830381855afa9150503d805f8114620031c4576040519150601f19603f3d011682016040523d82523d5f602084013e620031c9565b606091505b509150915081620030fc576040518060400160405280600981526020017f4e4f5f53594d424f4c000000000000000000000000000000000000000000000081525062001be6565b60408051600481526024810182526020810180517bffffffffffffffffffffffffffffffffffffffffffffffffffffffff167f313ce5670000000000000000000000000000000000000000000000000000000017905290515f918291829173ffffffffffffffffffffffffffffffffffffffff86169162003292919062003d79565b5f60405180830381855afa9150503d805f8114620032cc576040519150601f19603f3d011682016040523d82523d5f602084013e620032d1565b606091505b5091509150818015620032e5575080516020145b620032f257601262001be6565b8080602001905181019062001be6919062004498565b606062001be684845f8562003503565b606060408251106200333a5781806020019051810190620008bc9190620044b6565b8151602003620034c5575f5b6020811080156200339157508281815181106200336757620033676200400e565b01602001517fff000000000000000000000000000000000000000000000000000000000000001615155b15620033ac5780620033a38162004068565b91505062003346565b805f03620033ef57505060408051808201909152601281527f4e4f545f56414c49445f454e434f44494e4700000000000000000000000000006020820152919050565b5f8167ffffffffffffffff8111156200340c576200340c62003d28565b6040519080825280601f01601f19166020018201604052801562003437576020820181803683370190505b5090505f5b82811015620034bd578481815181106200345a576200345a6200400e565b602001015160f81c60f81b8282815181106200347a576200347a6200400e565b60200101907effffffffffffffffffffffffffffffffffffffffffffffffffffffffffffff191690815f1a90535080620034b48162004068565b9150506200343c565b509392505050565b505060408051808201909152601281527f4e4f545f56414c49445f454e434f44494e470000000000000000000000000000602082015290565b919050565b60608247101562003597576040517f08c379a000000000000000000000000000000000000000000000000000000000815260206004820152602660248201527f416464726573733a20696e73756666696369656e742062616c616e636520666f60448201527f722063616c6c000000000000000000000000000000000000000000000000000060648201526084016200146b565b5f808673ffffffffffffffffffffffffffffffffffffffff168587604051620035c1919062003d79565b5f6040518083038185875af1925050503d805f8114620035fd576040519150601f19603f3d011682016040523d82523d5f602084013e62003602565b606091505b5091509150620036158783838762003620565b979650505050505050565b60608315620036ba5782515f03620036b25773ffffffffffffffffffffffffffffffffffffffff85163b620036b2576040517f08c379a000000000000000000000000000000000000000000000000000000000815260206004820152601d60248201527f416464726573733a2063616c6c20746f206e6f6e2d636f6e747261637400000060448201526064016200146b565b508162001be6565b62001be68383815115620036d15781518083602001fd5b806040517f08c379a00000000000000000000000000000000000000000000000000000000081526004016200146b919062004531565b611b0d806200454683390190565b803563ffffffff81168114620034fe575f80fd5b73ffffffffffffffffffffffffffffffffffffffff8116811462001b03575f80fd5b5f80604083850312156200375d575f80fd5b620037688362003715565b915060208301356200377a8162003729565b809150509250929050565b801515811462001b03575f80fd5b5f8083601f840112620037a4575f80fd5b50813567ffffffffffffffff811115620037bc575f80fd5b602083019150836020828501011115620037d4575f80fd5b9250929050565b5f805f805f60808688031215620037f0575f80fd5b620037fb8662003715565b945060208601356200380d8162003729565b935060408601356200381f8162003785565b9250606086013567ffffffffffffffff8111156200383b575f80fd5b620038498882890162003793565b969995985093965092949392505050565b5f602082840312156200386b575f80fd5b5035919050565b5f6020828403121562003883575f80fd5b6200388e8262003715565b9392505050565b806104008101831015620008bc575f80fd5b5f805f805f805f805f805f6105208c8e031215620038c3575f80fd5b620038cf8d8d62003895565b9a50620038e06104008d0162003715565b99506104208c013598506104408c01359750620039016104608d0162003715565b96506104808c0135620039148162003729565b9550620039256104a08d0162003715565b94506104c08c0135620039388162003729565b93506104e08c013592506105008c013567ffffffffffffffff8111156200395d575f80fd5b6200396b8e828f0162003793565b915080935050809150509295989b509295989b9093969950565b5f6020828403121562003996575f80fd5b81356200388e8162003729565b60ff8116811462001b03575f80fd5b5f805f805f805f60e0888a031215620039c9575f80fd5b8735620039d681620039a3565b9650620039e66020890162003715565b95506040880135620039f88162003729565b945062003a086060890162003715565b9350608088013562003a1a8162003729565b9699959850939692959460a0840135945060c09093013592915050565b5f805f6060848603121562003a4a575f80fd5b62003a558462003715565b9250602084013562003a678162003729565b9150604084013562003a798162003729565b809150509250925092565b5f805f610440848603121562003a98575f80fd5b8335925062003aab856020860162003895565b915062003abc610420850162003715565b90509250925092565b5f805f805f805f60a0888a03121562003adc575f80fd5b62003ae78862003715565b9650602088013562003af98162003729565b9550604088013567ffffffffffffffff8082111562003b16575f80fd5b62003b248b838c0162003793565b909750955060608a013591508082111562003b3d575f80fd5b5062003b4c8a828b0162003793565b909450925050608088013562003b6281620039a3565b8091505092959891949750929550565b5f805f805f805f60c0888a03121562003b89575f80fd5b62003b948862003715565b9650602088013562003ba68162003729565b955060408801359450606088013562003bbf8162003729565b9350608088013562003bd18162003785565b925060a088013567ffffffffffffffff81111562003bed575f80fd5b62003bfb8a828b0162003793565b989b979a50959850939692959293505050565b5f805f80610460858703121562003c23575f80fd5b8435935062003c36866020870162003895565b925062003c47610420860162003715565b939692955092936104400135925050565b81835281816020850137505f602082840101525f60207fffffffffffffffffffffffffffffffffffffffffffffffffffffffffffffffe0601f840116840101905092915050565b5f61010060ff8c16835263ffffffff808c16602085015273ffffffffffffffffffffffffffffffffffffffff808c166040860152818b166060860152808a166080860152508760a08501528160c085015262003cff828501878962003c58565b925080851660e085015250509a9950505050505050505050565b818382375f9101908152919050565b7f4e487b71000000000000000000000000000000000000000000000000000000005f52604160045260245ffd5b5f5b8381101562003d7157818101518382015260200162003d57565b50505f910152565b5f825162003d8c81846020870162003d55565b9190910192915050565b604051601f82017fffffffffffffffffffffffffffffffffffffffffffffffffffffffffffffffe016810167ffffffffffffffff8111828210171562003de05762003de062003d28565b604052919050565b5f67ffffffffffffffff82111562003e045762003e0462003d28565b50601f017fffffffffffffffffffffffffffffffffffffffffffffffffffffffffffffffe01660200190565b5f82601f83011262003e40575f80fd5b813562003e5762003e518262003de8565b62003d96565b81815284602083860101111562003e6c575f80fd5b816020850160208301375f918101602001919091529392505050565b5f805f6060848603121562003e9b575f80fd5b833567ffffffffffffffff8082111562003eb3575f80fd5b62003ec18783880162003e30565b9450602086013591508082111562003ed7575f80fd5b5062003ee68682870162003e30565b925050604084013562003a7981620039a3565b5f815180845262003f1281602086016020860162003d55565b601f017fffffffffffffffffffffffffffffffffffffffffffffffffffffffffffffffe0169290920160200192915050565b606081525f62003f58606083018662003ef9565b828103602084015262003f6c818662003ef9565b91505060ff83166040830152949350505050565b63ffffffff861681525f73ffffffffffffffffffffffffffffffffffffffff8087166020840152808616604084015250608060608301526200361560808301848662003c58565b73ffffffffffffffffffffffffffffffffffffffff8516815263ffffffff84166020820152606060408201525f6200400460608301848662003c58565b9695505050505050565b7f4e487b71000000000000000000000000000000000000000000000000000000005f52603260045260245ffd5b7f4e487b71000000000000000000000000000000000000000000000000000000005f52601160045260245ffd5b5f7fffffffffffffffffffffffffffffffffffffffffffffffffffffffffffffffff82036200409b576200409b6200403b565b5060010190565b606081525f620040b760608301878962003c58565b8281036020840152620040cc81868862003c58565b91505060ff831660408301529695505050505050565b5f8351620040f581846020880162003d55565b8351908301906200410b81836020880162003d55565b01949350505050565b600181815b808511156200417357817fffffffffffffffffffffffffffffffffffffffffffffffffffffffffffffffff048211156200415757620041576200403b565b808516156200416557918102915b93841c939080029062004119565b509250929050565b5f826200418b57506001620008bc565b816200419957505f620008bc565b8160018114620041b25760028114620041bd57620041dd565b6001915050620008bc565b60ff841115620041d157620041d16200403b565b50506001821b620008bc565b5060208310610133831016604e8410600b841016171562004202575081810a620008bc565b6200420e838362004114565b807fffffffffffffffffffffffffffffffffffffffffffffffffffffffffffffffff048211156200424357620042436200403b565b029392505050565b5f6200388e83836200417b565b81810381811115620008bc57620008bc6200403b565b7f4e487b71000000000000000000000000000000000000000000000000000000005f52600160045260245ffd5b5f60208284031215620042ac575f80fd5b5051919050565b5f61010060ff8b16835263ffffffff808b16602085015273ffffffffffffffffffffffffffffffffffffffff808b166040860152818a1660608601528089166080860152508660a08501528160c0850152620043128285018762003ef9565b925080851660e085015250509998505050505050505050565b5f602082840312156200433c575f80fd5b81516200388e8162003785565b5f808585111562004358575f80fd5b8386111562004365575f80fd5b5050820193919092039150565b7fffffffff000000000000000000000000000000000000000000000000000000008135818116916004851015620043b35780818660040360031b1b83161692505b505092915050565b5f805f805f805f60e0888a031215620043d2575f80fd5b8735620043df8162003729565b96506020880135620043f18162003729565b95506040880135945060608801359350608088013562003a1a81620039a3565b5f805f805f805f80610100898b0312156200442a575f80fd5b8835620044378162003729565b97506020890135620044498162003729565b965060408901359550606089013594506080890135620044698162003785565b935060a08901356200447b81620039a3565b979a969950949793969295929450505060c08201359160e0013590565b5f60208284031215620044a9575f80fd5b81516200388e81620039a3565b5f60208284031215620044c7575f80fd5b815167ffffffffffffffff811115620044de575f80fd5b8201601f81018413620044ef575f80fd5b80516200450062003e518262003de8565b81815285602083850101111562004515575f80fd5b6200452882602083016020860162003d55565b95945050505050565b602081525f6200388e602083018462003ef956fe61010060405234801562000011575f80fd5b5060405162001b0d38038062001b0d833981016040819052620000349162000282565b828260036200004483826200038d565b5060046200005382826200038d565b50503360c0525060ff811660e05246608081905262000072906200007f565b60a0525062000455915050565b5f7f8b73c3c69bb8fe3d512ecc4cf759cc79239f7b179b0ffacaa9a75d522b39400f620000ab6200012c565b805160209182012060408051808201825260018152603160f81b90840152805192830193909352918101919091527fc89efdaa54c0f20c7adf612882df0950f5a951637e0307cdcb4c672f298b8bc66060820152608081018390523060a082015260c001604051602081830303815290604052805190602001209050919050565b6060600380546200013d9062000301565b80601f01602080910402602001604051908101604052809291908181526020018280546200016b9062000301565b8015620001ba5780601f106200019057610100808354040283529160200191620001ba565b820191905f5260205f20905b8154815290600101906020018083116200019c57829003601f168201915b5050505050905090565b634e487b7160e01b5f52604160045260245ffd5b5f82601f830112620001e8575f80fd5b81516001600160401b0380821115620002055762000205620001c4565b604051601f8301601f19908116603f01168101908282118183101715620002305762000230620001c4565b816040528381526020925086838588010111156200024c575f80fd5b5f91505b838210156200026f578582018301518183018401529082019062000250565b5f93810190920192909252949350505050565b5f805f6060848603121562000295575f80fd5b83516001600160401b0380821115620002ac575f80fd5b620002ba87838801620001d8565b94506020860151915080821115620002d0575f80fd5b50620002df86828701620001d8565b925050604084015160ff81168114620002f6575f80fd5b809150509250925092565b600181811c908216806200031657607f821691505b6020821081036200033557634e487b7160e01b5f52602260045260245ffd5b50919050565b601f82111562000388575f81815260208120601f850160051c81016020861015620003635750805b601f850160051c820191505b8181101562000384578281556001016200036f565b5050505b505050565b81516001600160401b03811115620003a957620003a9620001c4565b620003c181620003ba845462000301565b846200033b565b602080601f831160018114620003f7575f8415620003df5750858301515b5f19600386901b1c1916600185901b17855562000384565b5f85815260208120601f198616915b82811015620004275788860151825594840194600190910190840162000406565b50858210156200044557878501515f19600388901b60f8161c191681555b5050505050600190811b01905550565b60805160a05160c05160e05161166f6200049e5f395f61022d01525f81816102fb015281816105ad015261069401525f61052801525f818161036d01526104f2015261166f5ff3fe608060405234801561000f575f80fd5b506004361061016e575f3560e01c806370a08231116100d2578063a457c2d711610088578063d505accf11610063578063d505accf1461038f578063dd62ed3e146103a2578063ffa1ad74146103e7575f80fd5b8063a457c2d714610342578063a9059cbb14610355578063cd0d009614610368575f80fd5b806395d89b41116100b857806395d89b41146102db5780639dc29fac146102e3578063a3c573eb146102f6575f80fd5b806370a08231146102875780637ecebe00146102bc575f80fd5b806330adf81f116101275780633644e5151161010d5780633644e51514610257578063395093511461025f57806340c10f1914610272575f80fd5b806330adf81f146101ff578063313ce56714610226575f80fd5b806318160ddd1161015757806318160ddd146101b357806320606b70146101c557806323b872dd146101ec575f80fd5b806306fdde0314610172578063095ea7b314610190575b5f80fd5b61017a610423565b60405161018791906113c1565b60405180910390f35b6101a361019e366004611452565b6104b3565b6040519015158152602001610187565b6002545b604051908152602001610187565b6101b77f8b73c3c69bb8fe3d512ecc4cf759cc79239f7b179b0ffacaa9a75d522b39400f81565b6101a36101fa36600461147a565b6104cc565b6101b77f6e71edae12b1b97f4d1f60370fef10105fa2faae0126114a169c64845d6126c981565b60405160ff7f0000000000000000000000000000000000000000000000000000000000000000168152602001610187565b6101b76104ef565b6101a361026d366004611452565b61054a565b610285610280366004611452565b610595565b005b6101b76102953660046114b3565b73ffffffffffffffffffffffffffffffffffffffff165f9081526020819052604090205490565b6101b76102ca3660046114b3565b60056020525f908152604090205481565b61017a61066d565b6102856102f1366004611452565b61067c565b61031d7f000000000000000000000000000000000000000000000000000000000000000081565b60405173ffffffffffffffffffffffffffffffffffffffff9091168152602001610187565b6101a3610350366004611452565b61074b565b6101a3610363366004611452565b61081b565b6101b77f000000000000000000000000000000000000000000000000000000000000000081565b61028561039d3660046114d3565b610828565b6101b76103b0366004611540565b73ffffffffffffffffffffffffffffffffffffffff9182165f90815260016020908152604080832093909416825291909152205490565b61017a6040518060400160405280600181526020017f310000000000000000000000000000000000000000000000000000000000000081525081565b60606003805461043290611571565b80601f016020809104026020016040519081016040528092919081815260200182805461045e90611571565b80156104a95780601f10610480576101008083540402835291602001916104a9565b820191905f5260205f20905b81548152906001019060200180831161048c57829003601f168201915b5050505050905090565b5f336104c0818585610b59565b60019150505b92915050565b5f336104d9858285610d0c565b6104e4858585610de2565b506001949350505050565b5f7f00000000000000000000000000000000000000000000000000000000000000004614610525576105204661104f565b905090565b507f000000000000000000000000000000000000000000000000000000000000000090565b335f81815260016020908152604080832073ffffffffffffffffffffffffffffffffffffffff871684529091528120549091906104c090829086906105909087906115ef565b610b59565b3373ffffffffffffffffffffffffffffffffffffffff7f0000000000000000000000000000000000000000000000000000000000000000161461065f576040517f08c379a000000000000000000000000000000000000000000000000000000000815260206004820152603060248201527f546f6b656e577261707065643a3a6f6e6c794272696467653a204e6f7420506f60448201527f6c79676f6e5a6b45564d4272696467650000000000000000000000000000000060648201526084015b60405180910390fd5b6106698282611116565b5050565b60606004805461043290611571565b3373ffffffffffffffffffffffffffffffffffffffff7f00000000000000000000000000000000000000000000000000000000000000001614610741576040517f08c379a000000000000000000000000000000000000000000000000000000000815260206004820152603060248201527f546f6b656e577261707065643a3a6f6e6c794272696467653a204e6f7420506f60448201527f6c79676f6e5a6b45564d427269646765000000000000000000000000000000006064820152608401610656565b6106698282611207565b335f81815260016020908152604080832073ffffffffffffffffffffffffffffffffffffffff871684529091528120549091908381101561080e576040517f08c379a000000000000000000000000000000000000000000000000000000000815260206004820152602560248201527f45524332303a2064656372656173656420616c6c6f77616e63652062656c6f7760448201527f207a65726f0000000000000000000000000000000000000000000000000000006064820152608401610656565b6104e48286868403610b59565b5f336104c0818585610de2565b834211156108b7576040517f08c379a0000000000000000000000000000000000000000000000000000000008152602060048201526024808201527f546f6b656e577261707065643a3a7065726d69743a204578706972656420706560448201527f726d6974000000000000000000000000000000000000000000000000000000006064820152608401610656565b73ffffffffffffffffffffffffffffffffffffffff87165f90815260056020526040812080547f6e71edae12b1b97f4d1f60370fef10105fa2faae0126114a169c64845d6126c9918a918a918a91908661091083611602565b9091555060408051602081019690965273ffffffffffffffffffffffffffffffffffffffff94851690860152929091166060840152608083015260a082015260c0810186905260e0016040516020818303038152906040528051906020012090505f61097a6104ef565b6040517f19010000000000000000000000000000000000000000000000000000000000006020820152602281019190915260428101839052606201604080517fffffffffffffffffffffffffffffffffffffffffffffffffffffffffffffffe081840301815282825280516020918201205f80855291840180845281905260ff89169284019290925260608301879052608083018690529092509060019060a0016020604051602081039080840390855afa158015610a3b573d5f803e3d5ffd5b50506040517fffffffffffffffffffffffffffffffffffffffffffffffffffffffffffffffe0015191505073ffffffffffffffffffffffffffffffffffffffff811615801590610ab657508973ffffffffffffffffffffffffffffffffffffffff168173ffffffffffffffffffffffffffffffffffffffff16145b610b42576040517f08c379a000000000000000000000000000000000000000000000000000000000815260206004820152602760248201527f546f6b656e577261707065643a3a7065726d69743a20496e76616c696420736960448201527f676e6174757265000000000000000000000000000000000000000000000000006064820152608401610656565b610b4d8a8a8a610b59565b50505050505050505050565b73ffffffffffffffffffffffffffffffffffffffff8316610bfb576040517f08c379a0000000000000000000000000000000000000000000000000000000008152602060048201526024808201527f45524332303a20617070726f76652066726f6d20746865207a65726f2061646460448201527f72657373000000000000000000000000000000000000000000000000000000006064820152608401610656565b73ffffffffffffffffffffffffffffffffffffffff8216610c9e576040517f08c379a000000000000000000000000000000000000000000000000000000000815260206004820152602260248201527f45524332303a20617070726f766520746f20746865207a65726f20616464726560448201527f73730000000000000000000000000000000000000000000000000000000000006064820152608401610656565b73ffffffffffffffffffffffffffffffffffffffff8381165f8181526001602090815260408083209487168084529482529182902085905590518481527f8c5be1e5ebec7d5bd14f71427d1e84f3dd0314c0f7b2291e5b200ac8c7c3b92591015b60405180910390a3505050565b73ffffffffffffffffffffffffffffffffffffffff8381165f908152600160209081526040808320938616835292905220547fffffffffffffffffffffffffffffffffffffffffffffffffffffffffffffffff8114610ddc5781811015610dcf576040517f08c379a000000000000000000000000000000000000000000000000000000000815260206004820152601d60248201527f45524332303a20696e73756666696369656e7420616c6c6f77616e63650000006044820152606401610656565b610ddc8484848403610b59565b50505050565b73ffffffffffffffffffffffffffffffffffffffff8316610e85576040517f08c379a000000000000000000000000000000000000000000000000000000000815260206004820152602560248201527f45524332303a207472616e736665722066726f6d20746865207a65726f20616460448201527f64726573730000000000000000000000000000000000000000000000000000006064820152608401610656565b73ffffffffffffffffffffffffffffffffffffffff8216610f28576040517f08c379a000000000000000000000000000000000000000000000000000000000815260206004820152602360248201527f45524332303a207472616e7366657220746f20746865207a65726f206164647260448201527f65737300000000000000000000000000000000000000000000000000000000006064820152608401610656565b73ffffffffffffffffffffffffffffffffffffffff83165f9081526020819052604090205481811015610fdd576040517f08c379a000000000000000000000000000000000000000000000000000000000815260206004820152602660248201527f45524332303a207472616e7366657220616d6f756e742065786365656473206260448201527f616c616e636500000000000000000000000000000000000000000000000000006064820152608401610656565b73ffffffffffffffffffffffffffffffffffffffff8481165f81815260208181526040808320878703905593871680835291849020805487019055925185815290927fddf252ad1be2c89b69c2b068fc378daa952ba7f163c4a11628f55a4df523b3ef910160405180910390a3610ddc565b5f7f8b73c3c69bb8fe3d512ecc4cf759cc79239f7b179b0ffacaa9a75d522b39400f611079610423565b8051602091820120604080518082018252600181527f310000000000000000000000000000000000000000000000000000000000000090840152805192830193909352918101919091527fc89efdaa54c0f20c7adf612882df0950f5a951637e0307cdcb4c672f298b8bc66060820152608081018390523060a082015260c001604051602081830303815290604052805190602001209050919050565b73ffffffffffffffffffffffffffffffffffffffff8216611193576040517f08c379a000000000000000000000000000000000000000000000000000000000815260206004820152601f60248201527f45524332303a206d696e7420746f20746865207a65726f2061646472657373006044820152606401610656565b8060025f8282546111a491906115ef565b909155505073ffffffffffffffffffffffffffffffffffffffff82165f81815260208181526040808320805486019055518481527fddf252ad1be2c89b69c2b068fc378daa952ba7f163c4a11628f55a4df523b3ef910160405180910390a35050565b73ffffffffffffffffffffffffffffffffffffffff82166112aa576040517f08c379a000000000000000000000000000000000000000000000000000000000815260206004820152602160248201527f45524332303a206275726e2066726f6d20746865207a65726f2061646472657360448201527f73000000000000000000000000000000000000000000000000000000000000006064820152608401610656565b73ffffffffffffffffffffffffffffffffffffffff82165f908152602081905260409020548181101561135f576040517f08c379a000000000000000000000000000000000000000000000000000000000815260206004820152602260248201527f45524332303a206275726e20616d6f756e7420657863656564732062616c616e60448201527f63650000000000000000000000000000000000000000000000000000000000006064820152608401610656565b73ffffffffffffffffffffffffffffffffffffffff83165f818152602081815260408083208686039055600280548790039055518581529192917fddf252ad1be2c89b69c2b068fc378daa952ba7f163c4a11628f55a4df523b3ef9101610cff565b5f6020808352835180828501525f5b818110156113ec578581018301518582016040015282016113d0565b505f6040828601015260407fffffffffffffffffffffffffffffffffffffffffffffffffffffffffffffffe0601f8301168501019250505092915050565b803573ffffffffffffffffffffffffffffffffffffffff8116811461144d575f80fd5b919050565b5f8060408385031215611463575f80fd5b61146c8361142a565b946020939093013593505050565b5f805f6060848603121561148c575f80fd5b6114958461142a565b92506114a36020850161142a565b9150604084013590509250925092565b5f602082840312156114c3575f80fd5b6114cc8261142a565b9392505050565b5f805f805f805f60e0888a0312156114e9575f80fd5b6114f28861142a565b96506115006020890161142a565b95506040880135945060608801359350608088013560ff81168114611523575f80fd5b9699959850939692959460a0840135945060c09093013592915050565b5f8060408385031215611551575f80fd5b61155a8361142a565b91506115686020840161142a565b90509250929050565b600181811c9082168061158557607f821691505b6020821081036115bc577f4e487b71000000000000000000000000000000000000000000000000000000005f52602260045260245ffd5b50919050565b7f4e487b71000000000000000000000000000000000000000000000000000000005f52601160045260245ffd5b808201808211156104c6576104c66115c2565b5f7fffffffffffffffffffffffffffffffffffffffffffffffffffffffffffffffff8203611632576116326115c2565b506001019056fea2646970667358221220a04a4613834006222ac539b942dfe3284c1163f5082f3bafb302007d825cd7ff64736f6c63430008140033a26469706673582212209b6ce339e0782833785e55be567c47a7623fa392322ca07d1904952201d6aca964736f6c63430008140033",
  "linkReferences": {},
  "deployedLinkReferences": {}
}