{
  "_format": "hh-sol-artifact-1",
  "contractName": "PolygonZkEVM",
  "sourceName": "contracts/PolygonZkEVM.sol",
  "abi": [
    {
      "anonymous": false,
      "inputs": [
        {
          "indexed": true,
          "internalType": "uint64",
          "name": "numBatch",
          "type": "uint64"
        },
        {
          "indexed": false,
          "internalType": "bytes32",
          "name": "stateRoot",
          "type": "bytes32"
        },
        {
          "indexed": true,
          "internalType": "uint64",
          "name": "pendingStateNum",
          "type": "uint64"
        }
      ],
      "name": "ConsolidatePendingState",
      "type": "event"
    },
    {
      "anonymous": false,
      "inputs": [],
      "name": "EmergencyStateActivated",
      "type": "event"
    },
    {
      "anonymous": false,
      "inputs": [],
      "name": "EmergencyStateDeactivated",
      "type": "event"
    },
    {
      "anonymous": false,
      "inputs": [
        {
          "indexed": true,
          "internalType": "uint64",
          "name": "forceBatchNum",
          "type": "uint64"
        },
        {
          "indexed": false,
          "internalType": "bytes32",
          "name": "lastGlobalExitRoot",
          "type": "bytes32"
        },
        {
          "indexed": false,
          "internalType": "address",
          "name": "sequencer",
          "type": "address"
        },
        {
          "indexed": false,
          "internalType": "bytes",
          "name": "transactions",
          "type": "bytes"
        }
      ],
      "name": "ForceBatch",
      "type": "event"
    },
    {
      "anonymous": false,
      "inputs": [
        {
          "indexed": false,
          "internalType": "uint8",
          "name": "version",
          "type": "uint8"
        }
      ],
      "name": "Initialized",
      "type": "event"
    },
    {
      "anonymous": false,
      "inputs": [
        {
          "indexed": true,
          "internalType": "uint64",
          "name": "numBatch",
          "type": "uint64"
        },
        {
          "indexed": false,
          "internalType": "bytes32",
          "name": "stateRoot",
          "type": "bytes32"
        },
        {
          "indexed": true,
          "internalType": "address",
          "name": "aggregator",
          "type": "address"
        }
      ],
      "name": "OverridePendingState",
      "type": "event"
    },
    {
      "anonymous": false,
      "inputs": [
        {
          "indexed": true,
          "internalType": "address",
          "name": "previousOwner",
          "type": "address"
        },
        {
          "indexed": true,
          "internalType": "address",
          "name": "newOwner",
          "type": "address"
        }
      ],
      "name": "OwnershipTransferred",
      "type": "event"
    },
    {
      "anonymous": false,
      "inputs": [
        {
          "indexed": false,
          "internalType": "bytes32",
          "name": "storedStateRoot",
          "type": "bytes32"
        },
        {
          "indexed": false,
          "internalType": "bytes32",
          "name": "provedStateRoot",
          "type": "bytes32"
        }
      ],
      "name": "ProveNonDeterministicPendingState",
      "type": "event"
    },
    {
      "anonymous": false,
      "inputs": [
        {
          "indexed": true,
          "internalType": "uint64",
          "name": "numBatch",
          "type": "uint64"
        }
      ],
      "name": "SequenceBatches",
      "type": "event"
    },
    {
      "anonymous": false,
      "inputs": [
        {
          "indexed": true,
          "internalType": "uint64",
          "name": "numBatch",
          "type": "uint64"
        }
      ],
      "name": "SequenceForceBatches",
      "type": "event"
    },
    {
      "anonymous": false,
      "inputs": [
        {
          "indexed": false,
          "internalType": "address",
          "name": "newAdmin",
          "type": "address"
        }
      ],
      "name": "SetAdmin",
      "type": "event"
    },
    {
      "anonymous": false,
      "inputs": [
        {
          "indexed": false,
          "internalType": "bool",
          "name": "newForceBatchAllowed",
          "type": "bool"
        }
      ],
      "name": "SetForceBatchAllowed",
      "type": "event"
    },
    {
      "anonymous": false,
      "inputs": [
        {
          "indexed": false,
          "internalType": "uint16",
          "name": "newMultiplierBatchFee",
          "type": "uint16"
        }
      ],
      "name": "SetMultiplierBatchFee",
      "type": "event"
    },
    {
      "anonymous": false,
      "inputs": [
        {
          "indexed": false,
          "internalType": "uint64",
          "name": "newPendingStateTimeout",
          "type": "uint64"
        }
      ],
      "name": "SetPendingStateTimeout",
      "type": "event"
    },
    {
      "anonymous": false,
      "inputs": [
        {
          "indexed": false,
          "internalType": "address",
          "name": "newTrustedAggregator",
          "type": "address"
        }
      ],
      "name": "SetTrustedAggregator",
      "type": "event"
    },
    {
      "anonymous": false,
      "inputs": [
        {
          "indexed": false,
          "internalType": "uint64",
          "name": "newTrustedAggregatorTimeout",
          "type": "uint64"
        }
      ],
      "name": "SetTrustedAggregatorTimeout",
      "type": "event"
    },
    {
      "anonymous": false,
      "inputs": [
        {
          "indexed": false,
          "internalType": "address",
          "name": "newTrustedSequencer",
          "type": "address"
        }
      ],
      "name": "SetTrustedSequencer",
      "type": "event"
    },
    {
      "anonymous": false,
      "inputs": [
        {
          "indexed": false,
          "internalType": "string",
          "name": "newTrustedSequencerURL",
          "type": "string"
        }
      ],
      "name": "SetTrustedSequencerURL",
      "type": "event"
    },
    {
      "anonymous": false,
      "inputs": [
        {
          "indexed": false,
          "internalType": "uint64",
          "name": "newVeryBatchTimeTarget",
          "type": "uint64"
        }
      ],
      "name": "SetVeryBatchTimeTarget",
      "type": "event"
    },
    {
      "anonymous": false,
      "inputs": [
        {
          "indexed": true,
          "internalType": "uint64",
          "name": "numBatch",
          "type": "uint64"
        },
        {
          "indexed": false,
          "internalType": "bytes32",
          "name": "stateRoot",
          "type": "bytes32"
        },
        {
          "indexed": true,
          "internalType": "address",
          "name": "aggregator",
          "type": "address"
        }
      ],
      "name": "TrustedVerifyBatches",
      "type": "event"
    },
    {
      "anonymous": false,
      "inputs": [
        {
          "indexed": true,
          "internalType": "uint64",
          "name": "numBatch",
          "type": "uint64"
        },
        {
          "indexed": false,
          "internalType": "bytes32",
          "name": "stateRoot",
          "type": "bytes32"
        },
        {
          "indexed": true,
          "internalType": "address",
          "name": "aggregator",
          "type": "address"
        }
      ],
      "name": "VerifyBatches",
      "type": "event"
    },
    {
      "inputs": [],
      "name": "FORCE_BATCH_TIMEOUT",
      "outputs": [
        {
          "internalType": "uint64",
          "name": "",
          "type": "uint64"
        }
      ],
      "stateMutability": "view",
      "type": "function"
    },
    {
      "inputs": [],
      "name": "HALT_AGGREGATION_TIMEOUT",
      "outputs": [
        {
          "internalType": "uint64",
          "name": "",
          "type": "uint64"
        }
      ],
      "stateMutability": "view",
      "type": "function"
    },
    {
      "inputs": [],
      "name": "MAX_BATCH_MULTIPLIER",
      "outputs": [
        {
          "internalType": "uint256",
          "name": "",
          "type": "uint256"
        }
      ],
      "stateMutability": "view",
      "type": "function"
    },
    {
      "inputs": [],
      "name": "MAX_TRANSACTIONS_BYTE_LENGTH",
      "outputs": [
        {
          "internalType": "uint256",
          "name": "",
          "type": "uint256"
        }
      ],
      "stateMutability": "view",
      "type": "function"
    },
    {
      "inputs": [],
      "name": "MAX_VERIFY_BATCHES",
      "outputs": [
        {
          "internalType": "uint64",
          "name": "",
          "type": "uint64"
        }
      ],
      "stateMutability": "view",
      "type": "function"
    },
    {
      "inputs": [
        {
          "internalType": "uint64",
          "name": "sequencedBatchNum",
          "type": "uint64"
        }
      ],
      "name": "activateEmergencyState",
      "outputs": [],
      "stateMutability": "nonpayable",
      "type": "function"
    },
    {
      "inputs": [],
      "name": "admin",
      "outputs": [
        {
          "internalType": "address",
          "name": "",
          "type": "address"
        }
      ],
      "stateMutability": "view",
      "type": "function"
    },
    {
      "inputs": [],
      "name": "batchFee",
      "outputs": [
        {
          "internalType": "uint256",
          "name": "",
          "type": "uint256"
        }
      ],
      "stateMutability": "view",
      "type": "function"
    },
    {
      "inputs": [
        {
          "internalType": "uint64",
          "name": "",
          "type": "uint64"
        }
      ],
      "name": "batchNumToStateRoot",
      "outputs": [
        {
          "internalType": "bytes32",
          "name": "",
          "type": "bytes32"
        }
      ],
      "stateMutability": "view",
      "type": "function"
    },
    {
      "inputs": [],
      "name": "bridgeAddress",
      "outputs": [
        {
          "internalType": "contract IPolygonZkEVMBridge",
          "name": "",
          "type": "address"
        }
      ],
      "stateMutability": "view",
      "type": "function"
    },
    {
      "inputs": [],
      "name": "calculateRewardPerBatch",
      "outputs": [
        {
          "internalType": "uint256",
          "name": "",
          "type": "uint256"
        }
      ],
      "stateMutability": "view",
      "type": "function"
    },
    {
      "inputs": [],
      "name": "chainID",
      "outputs": [
        {
          "internalType": "uint64",
          "name": "",
          "type": "uint64"
        }
      ],
      "stateMutability": "view",
      "type": "function"
    },
    {
      "inputs": [
        {
          "internalType": "uint64",
          "name": "pendingStateNum",
          "type": "uint64"
        }
      ],
      "name": "consolidatePendingState",
      "outputs": [],
      "stateMutability": "nonpayable",
      "type": "function"
    },
    {
      "inputs": [],
      "name": "deactivateEmergencyState",
      "outputs": [],
      "stateMutability": "nonpayable",
      "type": "function"
    },
    {
      "inputs": [
        {
          "internalType": "bytes",
          "name": "transactions",
          "type": "bytes"
        },
        {
          "internalType": "uint256",
          "name": "maticAmount",
          "type": "uint256"
        }
      ],
      "name": "forceBatch",
      "outputs": [],
      "stateMutability": "nonpayable",
      "type": "function"
    },
    {
      "inputs": [],
      "name": "forceBatchAllowed",
      "outputs": [
        {
          "internalType": "bool",
          "name": "",
          "type": "bool"
        }
      ],
      "stateMutability": "view",
      "type": "function"
    },
    {
      "inputs": [
        {
          "internalType": "uint64",
          "name": "",
          "type": "uint64"
        }
      ],
      "name": "forcedBatches",
      "outputs": [
        {
          "internalType": "bytes32",
          "name": "",
          "type": "bytes32"
        }
      ],
      "stateMutability": "view",
      "type": "function"
    },
    {
      "inputs": [],
      "name": "getCurrentBatchFee",
      "outputs": [
        {
          "internalType": "uint256",
          "name": "",
          "type": "uint256"
        }
      ],
      "stateMutability": "view",
      "type": "function"
    },
    {
      "inputs": [
        {
          "internalType": "uint64",
          "name": "initNumBatch",
          "type": "uint64"
        },
        {
          "internalType": "uint64",
          "name": "finalNewBatch",
          "type": "uint64"
        },
        {
          "internalType": "bytes32",
          "name": "newLocalExitRoot",
          "type": "bytes32"
        },
        {
          "internalType": "bytes32",
          "name": "oldStateRoot",
          "type": "bytes32"
        },
        {
          "internalType": "bytes32",
          "name": "newStateRoot",
          "type": "bytes32"
        }
      ],
      "name": "getInputSnarkBytes",
      "outputs": [
        {
          "internalType": "bytes",
          "name": "",
          "type": "bytes"
        }
      ],
      "stateMutability": "view",
      "type": "function"
    },
    {
      "inputs": [],
      "name": "getLastVerifiedBatch",
      "outputs": [
        {
          "internalType": "uint64",
          "name": "",
          "type": "uint64"
        }
      ],
      "stateMutability": "view",
      "type": "function"
    },
    {
      "inputs": [],
      "name": "globalExitRootManager",
      "outputs": [
        {
          "internalType": "contract IPolygonZkEVMGlobalExitRoot",
          "name": "",
          "type": "address"
        }
      ],
      "stateMutability": "view",
      "type": "function"
    },
    {
      "inputs": [
        {
          "internalType": "contract IPolygonZkEVMGlobalExitRoot",
          "name": "_globalExitRootManager",
          "type": "address"
        },
        {
          "internalType": "contract IERC20Upgradeable",
          "name": "_matic",
          "type": "address"
        },
        {
          "internalType": "contract IVerifierRollup",
          "name": "_rollupVerifier",
          "type": "address"
        },
        {
          "internalType": "contract IPolygonZkEVMBridge",
          "name": "_bridgeAddress",
          "type": "address"
        },
        {
          "components": [
            {
              "internalType": "address",
              "name": "admin",
              "type": "address"
            },
            {
              "internalType": "uint64",
              "name": "chainID",
              "type": "uint64"
            },
            {
              "internalType": "address",
              "name": "trustedSequencer",
              "type": "address"
            },
            {
              "internalType": "uint64",
              "name": "pendingStateTimeout",
              "type": "uint64"
            },
            {
              "internalType": "bool",
              "name": "forceBatchAllowed",
              "type": "bool"
            },
            {
              "internalType": "address",
              "name": "trustedAggregator",
              "type": "address"
            },
            {
              "internalType": "uint64",
              "name": "trustedAggregatorTimeout",
              "type": "uint64"
            }
          ],
          "internalType": "struct PolygonZkEVM.InitializePackedParameters",
          "name": "initializePackedParameters",
          "type": "tuple"
        },
        {
          "internalType": "bytes32",
          "name": "genesisRoot",
          "type": "bytes32"
        },
        {
          "internalType": "string",
          "name": "_trustedSequencerURL",
          "type": "string"
        },
        {
          "internalType": "string",
          "name": "_networkName",
          "type": "string"
        }
      ],
      "name": "initialize",
      "outputs": [],
      "stateMutability": "nonpayable",
      "type": "function"
    },
    {
      "inputs": [],
      "name": "isEmergencyState",
      "outputs": [
        {
          "internalType": "bool",
          "name": "",
          "type": "bool"
        }
      ],
      "stateMutability": "view",
      "type": "function"
    },
    {
      "inputs": [
        {
          "internalType": "uint64",
          "name": "pendingStateNum",
          "type": "uint64"
        }
      ],
      "name": "isPendingStateConsolidable",
      "outputs": [
        {
          "internalType": "bool",
          "name": "",
          "type": "bool"
        }
      ],
      "stateMutability": "view",
      "type": "function"
    },
    {
      "inputs": [],
      "name": "lastBatchSequenced",
      "outputs": [
        {
          "internalType": "uint64",
          "name": "",
          "type": "uint64"
        }
      ],
      "stateMutability": "view",
      "type": "function"
    },
    {
      "inputs": [],
      "name": "lastForceBatch",
      "outputs": [
        {
          "internalType": "uint64",
          "name": "",
          "type": "uint64"
        }
      ],
      "stateMutability": "view",
      "type": "function"
    },
    {
      "inputs": [],
      "name": "lastForceBatchSequenced",
      "outputs": [
        {
          "internalType": "uint64",
          "name": "",
          "type": "uint64"
        }
      ],
      "stateMutability": "view",
      "type": "function"
    },
    {
      "inputs": [],
      "name": "lastPendingState",
      "outputs": [
        {
          "internalType": "uint64",
          "name": "",
          "type": "uint64"
        }
      ],
      "stateMutability": "view",
      "type": "function"
    },
    {
      "inputs": [],
      "name": "lastPendingStateConsolidated",
      "outputs": [
        {
          "internalType": "uint64",
          "name": "",
          "type": "uint64"
        }
      ],
      "stateMutability": "view",
      "type": "function"
    },
    {
      "inputs": [],
      "name": "lastTimestamp",
      "outputs": [
        {
          "internalType": "uint64",
          "name": "",
          "type": "uint64"
        }
      ],
      "stateMutability": "view",
      "type": "function"
    },
    {
      "inputs": [],
      "name": "lastVerifiedBatch",
      "outputs": [
        {
          "internalType": "uint64",
          "name": "",
          "type": "uint64"
        }
      ],
      "stateMutability": "view",
      "type": "function"
    },
    {
      "inputs": [],
      "name": "matic",
      "outputs": [
        {
          "internalType": "contract IERC20Upgradeable",
          "name": "",
          "type": "address"
        }
      ],
      "stateMutability": "view",
      "type": "function"
    },
    {
      "inputs": [],
      "name": "multiplierBatchFee",
      "outputs": [
        {
          "internalType": "uint16",
          "name": "",
          "type": "uint16"
        }
      ],
      "stateMutability": "view",
      "type": "function"
    },
    {
      "inputs": [],
      "name": "networkName",
      "outputs": [
        {
          "internalType": "string",
          "name": "",
          "type": "string"
        }
      ],
      "stateMutability": "view",
      "type": "function"
    },
    {
      "inputs": [
        {
          "internalType": "uint64",
          "name": "initPendingStateNum",
          "type": "uint64"
        },
        {
          "internalType": "uint64",
          "name": "finalPendingStateNum",
          "type": "uint64"
        },
        {
          "internalType": "uint64",
          "name": "initNumBatch",
          "type": "uint64"
        },
        {
          "internalType": "uint64",
          "name": "finalNewBatch",
          "type": "uint64"
        },
        {
          "internalType": "bytes32",
          "name": "newLocalExitRoot",
          "type": "bytes32"
        },
        {
          "internalType": "bytes32",
          "name": "newStateRoot",
          "type": "bytes32"
        },
        {
          "internalType": "uint256[2]",
          "name": "proofA",
          "type": "uint256[2]"
        },
        {
          "internalType": "uint256[2][2]",
          "name": "proofB",
          "type": "uint256[2][2]"
        },
        {
          "internalType": "uint256[2]",
          "name": "proofC",
          "type": "uint256[2]"
        }
      ],
      "name": "overridePendingState",
      "outputs": [],
      "stateMutability": "nonpayable",
      "type": "function"
    },
    {
      "inputs": [],
      "name": "owner",
      "outputs": [
        {
          "internalType": "address",
          "name": "",
          "type": "address"
        }
      ],
      "stateMutability": "view",
      "type": "function"
    },
    {
      "inputs": [],
      "name": "pendingStateTimeout",
      "outputs": [
        {
          "internalType": "uint64",
          "name": "",
          "type": "uint64"
        }
      ],
      "stateMutability": "view",
      "type": "function"
    },
    {
      "inputs": [
        {
          "internalType": "uint256",
          "name": "",
          "type": "uint256"
        }
      ],
      "name": "pendingStateTransitions",
      "outputs": [
        {
          "internalType": "uint64",
          "name": "timestamp",
          "type": "uint64"
        },
        {
          "internalType": "uint64",
          "name": "lastVerifiedBatch",
          "type": "uint64"
        },
        {
          "internalType": "bytes32",
          "name": "exitRoot",
          "type": "bytes32"
        },
        {
          "internalType": "bytes32",
          "name": "stateRoot",
          "type": "bytes32"
        }
      ],
      "stateMutability": "view",
      "type": "function"
    },
    {
      "inputs": [
        {
          "internalType": "uint64",
          "name": "initPendingStateNum",
          "type": "uint64"
        },
        {
          "internalType": "uint64",
          "name": "finalPendingStateNum",
          "type": "uint64"
        },
        {
          "internalType": "uint64",
          "name": "initNumBatch",
          "type": "uint64"
        },
        {
          "internalType": "uint64",
          "name": "finalNewBatch",
          "type": "uint64"
        },
        {
          "internalType": "bytes32",
          "name": "newLocalExitRoot",
          "type": "bytes32"
        },
        {
          "internalType": "bytes32",
          "name": "newStateRoot",
          "type": "bytes32"
        },
        {
          "internalType": "uint256[2]",
          "name": "proofA",
          "type": "uint256[2]"
        },
        {
          "internalType": "uint256[2][2]",
          "name": "proofB",
          "type": "uint256[2][2]"
        },
        {
          "internalType": "uint256[2]",
          "name": "proofC",
          "type": "uint256[2]"
        }
      ],
      "name": "proveNonDeterministicPendingState",
      "outputs": [],
      "stateMutability": "nonpayable",
      "type": "function"
    },
    {
      "inputs": [],
      "name": "renounceOwnership",
      "outputs": [],
      "stateMutability": "nonpayable",
      "type": "function"
    },
    {
      "inputs": [],
      "name": "rollupVerifier",
      "outputs": [
        {
          "internalType": "contract IVerifierRollup",
          "name": "",
          "type": "address"
        }
      ],
      "stateMutability": "view",
      "type": "function"
    },
    {
      "inputs": [
        {
          "components": [
            {
              "internalType": "bytes",
              "name": "transactions",
              "type": "bytes"
            },
            {
              "internalType": "bytes32",
              "name": "globalExitRoot",
              "type": "bytes32"
            },
            {
              "internalType": "uint64",
              "name": "timestamp",
              "type": "uint64"
            },
            {
              "internalType": "uint64",
              "name": "minForcedTimestamp",
              "type": "uint64"
            }
          ],
          "internalType": "struct PolygonZkEVM.BatchData[]",
          "name": "batches",
          "type": "tuple[]"
        }
      ],
      "name": "sequenceBatches",
      "outputs": [],
      "stateMutability": "nonpayable",
      "type": "function"
    },
    {
      "inputs": [
        {
          "components": [
            {
              "internalType": "bytes",
              "name": "transactions",
              "type": "bytes"
            },
            {
              "internalType": "bytes32",
              "name": "globalExitRoot",
              "type": "bytes32"
            },
            {
              "internalType": "uint64",
              "name": "minForcedTimestamp",
              "type": "uint64"
            }
          ],
          "internalType": "struct PolygonZkEVM.ForcedBatchData[]",
          "name": "batches",
          "type": "tuple[]"
        }
      ],
      "name": "sequenceForceBatches",
      "outputs": [],
      "stateMutability": "nonpayable",
      "type": "function"
    },
    {
      "inputs": [
        {
          "internalType": "uint64",
          "name": "",
          "type": "uint64"
        }
      ],
      "name": "sequencedBatches",
      "outputs": [
        {
          "internalType": "bytes32",
          "name": "accInputHash",
          "type": "bytes32"
        },
        {
          "internalType": "uint64",
          "name": "sequencedTimestamp",
          "type": "uint64"
        },
        {
          "internalType": "uint64",
          "name": "previousLastBatchSequenced",
          "type": "uint64"
        }
      ],
      "stateMutability": "view",
      "type": "function"
    },
    {
      "inputs": [
        {
          "internalType": "address",
          "name": "newAdmin",
          "type": "address"
        }
      ],
      "name": "setAdmin",
      "outputs": [],
      "stateMutability": "nonpayable",
      "type": "function"
    },
    {
      "inputs": [
        {
          "internalType": "bool",
          "name": "newForceBatchAllowed",
          "type": "bool"
        }
      ],
      "name": "setForceBatchAllowed",
      "outputs": [],
      "stateMutability": "nonpayable",
      "type": "function"
    },
    {
      "inputs": [
        {
          "internalType": "uint16",
          "name": "newMultiplierBatchFee",
          "type": "uint16"
        }
      ],
      "name": "setMultiplierBatchFee",
      "outputs": [],
      "stateMutability": "nonpayable",
      "type": "function"
    },
    {
      "inputs": [
        {
          "internalType": "uint64",
          "name": "newPendingStateTimeout",
          "type": "uint64"
        }
      ],
      "name": "setPendingStateTimeout",
      "outputs": [],
      "stateMutability": "nonpayable",
      "type": "function"
    },
    {
      "inputs": [
        {
          "internalType": "address",
          "name": "newTrustedAggregator",
          "type": "address"
        }
      ],
      "name": "setTrustedAggregator",
      "outputs": [],
      "stateMutability": "nonpayable",
      "type": "function"
    },
    {
      "inputs": [
        {
          "internalType": "uint64",
          "name": "newTrustedAggregatorTimeout",
          "type": "uint64"
        }
      ],
      "name": "setTrustedAggregatorTimeout",
      "outputs": [],
      "stateMutability": "nonpayable",
      "type": "function"
    },
    {
      "inputs": [
        {
          "internalType": "address",
          "name": "newTrustedSequencer",
          "type": "address"
        }
      ],
      "name": "setTrustedSequencer",
      "outputs": [],
      "stateMutability": "nonpayable",
      "type": "function"
    },
    {
      "inputs": [
        {
          "internalType": "string",
          "name": "newTrustedSequencerURL",
          "type": "string"
        }
      ],
      "name": "setTrustedSequencerURL",
      "outputs": [],
      "stateMutability": "nonpayable",
      "type": "function"
    },
    {
      "inputs": [
        {
          "internalType": "uint64",
          "name": "newVeryBatchTimeTarget",
          "type": "uint64"
        }
      ],
      "name": "setVeryBatchTimeTarget",
      "outputs": [],
      "stateMutability": "nonpayable",
      "type": "function"
    },
    {
      "inputs": [
        {
          "internalType": "address",
          "name": "newOwner",
          "type": "address"
        }
      ],
      "name": "transferOwnership",
      "outputs": [],
      "stateMutability": "nonpayable",
      "type": "function"
    },
    {
      "inputs": [],
      "name": "trustedAggregator",
      "outputs": [
        {
          "internalType": "address",
          "name": "",
          "type": "address"
        }
      ],
      "stateMutability": "view",
      "type": "function"
    },
    {
      "inputs": [],
      "name": "trustedAggregatorTimeout",
      "outputs": [
        {
          "internalType": "uint64",
          "name": "",
          "type": "uint64"
        }
      ],
      "stateMutability": "view",
      "type": "function"
    },
    {
      "inputs": [],
      "name": "trustedSequencer",
      "outputs": [
        {
          "internalType": "address",
          "name": "",
          "type": "address"
        }
      ],
      "stateMutability": "view",
      "type": "function"
    },
    {
      "inputs": [],
      "name": "trustedSequencerURL",
      "outputs": [
        {
          "internalType": "string",
          "name": "",
          "type": "string"
        }
      ],
      "stateMutability": "view",
      "type": "function"
    },
    {
      "inputs": [
        {
          "internalType": "uint64",
          "name": "pendingStateNum",
          "type": "uint64"
        },
        {
          "internalType": "uint64",
          "name": "initNumBatch",
          "type": "uint64"
        },
        {
          "internalType": "uint64",
          "name": "finalNewBatch",
          "type": "uint64"
        },
        {
          "internalType": "bytes32",
          "name": "newLocalExitRoot",
          "type": "bytes32"
        },
        {
          "internalType": "bytes32",
          "name": "newStateRoot",
          "type": "bytes32"
        },
        {
          "internalType": "uint256[2]",
          "name": "proofA",
          "type": "uint256[2]"
        },
        {
          "internalType": "uint256[2][2]",
          "name": "proofB",
          "type": "uint256[2][2]"
        },
        {
          "internalType": "uint256[2]",
          "name": "proofC",
          "type": "uint256[2]"
        }
      ],
      "name": "trustedVerifyBatches",
      "outputs": [],
      "stateMutability": "nonpayable",
      "type": "function"
    },
    {
      "inputs": [
        {
          "internalType": "uint64",
          "name": "pendingStateNum",
          "type": "uint64"
        },
        {
          "internalType": "uint64",
          "name": "initNumBatch",
          "type": "uint64"
        },
        {
          "internalType": "uint64",
          "name": "finalNewBatch",
          "type": "uint64"
        },
        {
          "internalType": "bytes32",
          "name": "newLocalExitRoot",
          "type": "bytes32"
        },
        {
          "internalType": "bytes32",
          "name": "newStateRoot",
          "type": "bytes32"
        },
        {
          "internalType": "uint256[2]",
          "name": "proofA",
          "type": "uint256[2]"
        },
        {
          "internalType": "uint256[2][2]",
          "name": "proofB",
          "type": "uint256[2][2]"
        },
        {
          "internalType": "uint256[2]",
          "name": "proofC",
          "type": "uint256[2]"
        }
      ],
      "name": "verifyBatches",
      "outputs": [],
      "stateMutability": "nonpayable",
      "type": "function"
    },
    {
      "inputs": [],
      "name": "veryBatchTimeTarget",
      "outputs": [
        {
          "internalType": "uint64",
          "name": "",
          "type": "uint64"
        }
      ],
      "stateMutability": "view",
      "type": "function"
    }
  ],
  "bytecode": "0x608060405234801561001057600080fd5b50615586806100206000396000f3fe608060405234801561001057600080fd5b506004361061032f5760003560e01c80638da5cb5b116101b4578063cfa8ed47116100fa578063e7a7ed021161009d578063e7a7ed021461080e578063e8bf92ed14610828578063eaeb077b1461083b578063edc411211461084e578063f14916d614610861578063f2fde38b14610874578063f851a44014610887578063f8b823e41461089a57600080fd5b8063cfa8ed471461077c578063d02103ca14610796578063d8d1091b146107a9578063d8f54db0146107bc578063d939b315146107d0578063dbc16976146107ea578063e11f3f18146107f2578063e217cfd61461080557600080fd5b8063ab9fc5ef11610162578063ab9fc5ef14610688578063adc879e914610692578063afd23cbe146106ac578063b4d63f58146106d4578063b6b0b09714610734578063c0ed84e01461074e578063c89e42df14610756578063cf1363061461076957600080fd5b80638da5cb5b1461062157806399f5634e146106325780639c9f3dfe1461063a5780639eb831b91461064d5780639f0d039d14610655578063a3c573eb1461065d578063aa58bad61461067057600080fd5b80634a910e6a11610279578063715018a611610227578063715018a61461053b5780637215541a1461054357806375c508b3146105565780637fcb365314610569578063837a47381461057c578063841b24d7146105ea5780638b48931e146106045780638c4a0af71461060e57600080fd5b80634a910e6a146104a75780635392c5e0146104ba578063542028d5146104da57806360943d6a146104e25780636b8616ce146104f55780636ff512cc14610515578063704b6c021461052857600080fd5b8063383b3be8116102e1578063383b3be8146103fa578063394218e91461040d5780633c15826714610420578063423fa85614610433578063456052671461044d578063458c0477146104675780634834a3431461047a5780634a1a89a71461048d57600080fd5b8063107bf28c1461033457806315064c96146103525780631816b7e51461036f57806319d8ac6114610384578063220d7899146103af57806329878983146103c25780632d0889d3146103e2575b600080fd5b61033c6108a3565b6040516103499190614740565b60405180910390f35b60655461035f9060ff1681565b6040519015158152602001610349565b61038261037d36600461475a565b610931565b005b606854610397906001600160401b031681565b6040516001600160401b039091168152602001610349565b61033c6103bd36600461479a565b610a5b565b606a546103d5906001600160a01b031681565b60405161034991906147e7565b6103ec620493e081565b604051908152602001610349565b61035f6104083660046147fb565b610bfc565b61038261041b3660046147fb565b610c43565b61038261042e366004614861565b610dff565b60685461039790600160401b90046001600160401b031681565b60685461039790600160801b90046001600160401b031681565b607254610397906001600160401b031681565b6103826104883660046148ca565b6115dc565b60725461039790600160401b90046001600160401b031681565b6103826104b53660046147fb565b611925565b6103ec6104c83660046147fb565b606d6020526000908152604090205481565b61033c6119db565b6103826104f0366004614a0e565b6119e8565b6103ec6105033660046147fb565b60666020526000908152604090205481565b610382610523366004614ae5565b611dbc565b610382610536366004614ae5565b611e3a565b610382611eaf565b6103826105513660046147fb565b611ec3565b610382610564366004614b02565b6120ca565b606954610397906001600160401b031681565b6105bf61058a366004614ba0565b6071602052600090815260409020805460018201546002909201546001600160401b0380831693600160401b90930416919084565b604080516001600160401b039586168152949093166020850152918301526060820152608001610349565b60725461039790600160c01b90046001600160401b031681565b61039762093a8081565b61038261061c366004614bc7565b612159565b6033546001600160a01b03166103d5565b6103ec6121d0565b6103826106483660046147fb565b6122b8565b6103ec600c81565b6074546103ec565b6070546103d5906001600160a01b031681565b6065546103979061010090046001600160401b031681565b6103976206978081565b606c5461039790600160a81b90046001600160401b031681565b6065546106c190600160481b900461ffff1681565b60405161ffff9091168152602001610349565b61070f6106e23660046147fb565b606760205260009081526040902080546001909101546001600160401b0380821691600160401b90041683565b604080519384526001600160401b039283166020850152911690820152606001610349565b6065546103d590600160581b90046001600160a01b031681565b610397612466565b610382610764366004614be4565b6124b3565b6103826107773660046147fb565b612519565b6069546103d590600160401b90046001600160a01b031681565b606c546103d5906001600160a01b031681565b6103826107b7366004614861565b61259a565b606c5461035f90600160a01b900460ff1681565b60725461039790600160801b90046001600160401b031681565b610382612a80565b610382610800366004614b02565b612b1a565b6103976103e881565b60685461039790600160c01b90046001600160401b031681565b606b546103d5906001600160a01b031681565b610382610849366004614c18565b612c5f565b61038261085c3660046148ca565b612f97565b61038261086f366004614ae5565b6130b7565b610382610882366004614ae5565b61312c565b6073546103d5906001600160a01b031681565b6103ec60745481565b606f80546108b090614c8f565b80601f01602080910402602001604051908101604052809291908181526020018280546108dc90614c8f565b80156109295780601f106108fe57610100808354040283529160200191610929565b820191906000526020600020905b81548152906001019060200180831161090c57829003601f168201915b505050505081565b6073546001600160a01b031633146109645760405162461bcd60e51b815260040161095b90614cc9565b60405180910390fd5b6103e88161ffff161015801561097f57506104008161ffff16105b610a045760405162461bcd60e51b815260206004820152604a60248201527f506f6c79676f6e5a6b45564d3a3a7365744d756c7469706c696572426174636860448201527f4665653a206e65774d756c7469706c696572426174636846656520696e636f72606482015269726563742072616e676560b01b608482015260a40161095b565b6065805461ffff60481b1916600160481b61ffff8416908102919091179091556040519081527f7019933d795eba185c180209e8ae8bffbaa25bcef293364687702c31f4d302c5906020015b60405180910390a150565b6001600160401b03808616600081815260676020526040808220549388168252902054606092911580610a8d57508115155b610b01576040805162461bcd60e51b81526020600482015260248101919091527f506f6c79676f6e5a6b45564d3a3a676574496e707574536e61726b427974657360448201527f3a206f6c64416363496e7075744861736820646f6573206e6f74206578697374606482015260840161095b565b80610b76576040805162461bcd60e51b81526020600482015260248101919091527f506f6c79676f6e5a6b45564d3a3a676574496e707574536e61726b427974657360448201527f3a206e6577416363496e7075744861736820646f6573206e6f74206578697374606482015260840161095b565b606c54604080516001600160601b03193360601b166020820152603481019790975260548701939093526001600160c01b031960c0998a1b81166074880152600160a81b909104891b8116607c870152608486019490945260a485015260c4840194909452509290931b90911660e4830152805180830360cc01815260ec909201905290565b6072546001600160401b0382811660009081526071602052604081205490924292610c3292600160801b90920481169116614d22565b6001600160401b0316111592915050565b6073546001600160a01b03163314610c6d5760405162461bcd60e51b815260040161095b90614cc9565b62093a806001600160401b0382161115610d065760405162461bcd60e51b815260206004820152604e60248201527f506f6c79676f6e5a6b45564d3a3a73657454727573746564416767726567617460448201527f6f7254696d656f75743a20457863656564206d61782068616c7420616767726560648201526d19d85d1a5bdb881d1a5b595bdd5d60921b608482015260a40161095b565b60655460ff16610da9576072546001600160401b03600160c01b909104811690821610610da95760405162461bcd60e51b8152602060048201526044602482018190527f506f6c79676f6e5a6b45564d3a3a736574547275737465644167677265676174908201527f6f7254696d656f75743a204e65772074696d656f7574206d757374206265206c60648201526337bbb2b960e11b608482015260a40161095b565b607280546001600160c01b0316600160c01b6001600160401b038416908102919091179091556040519081527f1f4fa24c2e4bad19a7f3ec5c5485f70d46c798461c2e684f55bbd0fc661373a190602001610a50565b60655460ff1615610e225760405162461bcd60e51b815260040161095b90614d4d565b606954600160401b90046001600160a01b03163314610ea95760405162461bcd60e51b815260206004820152603a60248201527f506f6c79676f6e5a6b45564d3a3a6f6e6c795472757374656453657175656e6360448201527f65723a204f6e6c7920747275737465642073657175656e636572000000000000606482015260840161095b565b8080610f1d5760405162461bcd60e51b815260206004820152603d60248201527f506f6c79676f6e5a6b45564d3a3a73657175656e6365426174636865733a204160448201527f74206c65617374206d7573742073657175656e63652031206261746368000000606482015260840161095b565b6103e88110610f96576040805162461bcd60e51b81526020600482015260248101919091527f506f6c79676f6e5a6b45564d3a3a73657175656e6365426174636865733a204360448201527f616e6e6f742073657175656e63652074686174206d616e792062617463686573606482015260840161095b565b6068546001600160401b03600160401b82048116600081815260676020526040812054838516949293600160801b909304909216919082905b86811015611419576000898983818110610feb57610feb614db5565b9050602002810190610ffd9190614dcb565b61100690614deb565b805180516020909101206060820151919250906001600160401b03161561119c578561103181614e77565b9650506000818360200151846060015160405160200161105393929190614e9d565b60408051601f1981840301815291815281516020928301206001600160401b038a166000908152606690935291205490915081146110e75760405162461bcd60e51b815260206004820152603d602482015260008051602061553183398151915260448201527f6f7263656420626174636865732064617461206d757374206d61746368000000606482015260840161095b565b6001600160401b0380881660009081526066602052604080822091909155606085015190850151908216911610156111965760405162461bcd60e51b8152602060048201526058602482015260008051602061553183398151915260448201527f6f7263656420626174636865732074696d657374616d70206d757374206265206064820152773134b3b3b2b91037b91032b8bab0b6103a3430b71036b4b760411b608482015260a40161095b565b50611311565b602082015115806112255750606c5460208301516040516312bd9b1960e11b81526001600160a01b039092169163257b3632916111df9160040190815260200190565b6020604051808303816000875af11580156111fe573d6000803e3d6000fd5b505050506040513d601f19601f820116820180604052508101906112229190614ec0565b15155b6112975760405162461bcd60e51b815260206004820152603a60248201527f506f6c79676f6e5a6b45564d3a3a73657175656e6365426174636865733a204760448201527f6c6f62616c206578697420726f6f74206d757374206578697374000000000000606482015260840161095b565b815151620493e0116113115760405162461bcd60e51b815260206004820152603a60248201527f506f6c79676f6e5a6b45564d3a3a73657175656e6365426174636865733a205460448201527f72616e73616374696f6e73206279746573206f766572666c6f77000000000000606482015260840161095b565b876001600160401b031682604001516001600160401b03161015801561134457504282604001516001600160401b031611155b6113b65760405162461bcd60e51b815260206004820152603d60248201527f506f6c79676f6e5a6b45564d3a3a73657175656e6365426174636865733a205460448201527f696d657374616d70206d75737420626520696e736964652072616e6765000000606482015260840161095b565b848183602001518460400151336040516020016113d7959493929190614ed9565b60405160208183030381529060405280519060200120945086806113fa90614e77565b975050816040015197505050808061141190614f18565b915050610fcf565b506068546001600160401b03600160c01b9091048116908416111561148c5760405162461bcd60e51b815260206004820152603560248201526000805160206155318339815191526044820152746f7263652062617463686573206f766572666c6f7760581b606482015260840161095b565b60006114988285614f31565b6114ab906001600160401b031688614f59565b60408051606081018252858152426001600160401b03908116602080840191825260688054600160401b9081900485168688019081528d861660008181526067909552979093209551865592516001909501805492519585166001600160801b03199384161795851684029590951790945583548c8416911617930292909217905590915082811690851614611561576068805467ffffffffffffffff60801b1916600160801b6001600160401b038716021790555b61159533308361157060745490565b61157a9190614f70565b606554600160581b90046001600160a01b03169291906131a2565b61159d613213565b6040516001600160401b038616907f303446e6a8cb73c83dff421c0b1d5e5ce0719dab1bff13660fc254e58cc17fce90600090a2505050505050505050565b60655460ff16156115ff5760405162461bcd60e51b815260040161095b90614d4d565b6072546001600160401b03878116600090815260676020526040902060010154429261163692600160c01b90910481169116614d22565b6001600160401b031611156116bf5760405162461bcd60e51b815260206004820152604360248201527f506f6c79676f6e5a6b45564d3a3a766572696679426174636865733a2054727560448201527f737465642061676772656761746f722074696d656f7574206e6f7420657870696064820152621c995960ea1b608482015260a40161095b565b6103e86116cc8888614f31565b6001600160401b0316106117485760405162461bcd60e51b815260206004820152603c60248201527f506f6c79676f6e5a6b45564d3a3a766572696679426174636865733a2043616e60448201527f6e6f74207665726966792074686174206d616e79206261746368657300000000606482015260840161095b565b61175888888888888888886132b7565b611761866137ba565b607254600160801b90046001600160401b0316600003611829576069805467ffffffffffffffff19166001600160401b038881169182179092556000908152606d6020526040902085905560725416156117c657607280546001600160801b03191690555b606c546040516333d6247d60e01b8152600481018790526001600160a01b03909116906333d6247d90602401600060405180830381600087803b15801561180c57600080fd5b505af1158015611820573d6000803e3d6000fd5b505050506118da565b611831613213565b607280546001600160401b031690600061184a83614e77565b82546001600160401b039182166101009390930a92830292820219169190911790915560408051608081018252428316815289831660208083019182528284018b8152606084018b8152607254871660009081526071909352949091209251835492518616600160401b026001600160801b03199093169516949094171781559151600183015551600290910155505b60405184815233906001600160401b038816907f9c72852172521097ba7e1482e6b44b351323df0155f97f4ea18fcec28e1f5966906020015b60405180910390a35050505050505050565b606a546001600160a01b031633146119cf5761194081610bfc565b6119cf5760405162461bcd60e51b815260206004820152605460248201527f506f6c79676f6e5a6b45564d3a3a636f6e736f6c696461746550656e64696e6760448201527f53746174653a2050656e64696e67207374617465206973206e6f7420726561646064820152731e481d1bc818994818dbdb9cdbdb1a59185d195960621b608482015260a40161095b565b6119d8816139a0565b50565b606e80546108b090614c8f565b600054610100900460ff1615808015611a085750600054600160ff909116105b80611a225750303b158015611a22575060005460ff166001145b611a855760405162461bcd60e51b815260206004820152602e60248201527f496e697469616c697a61626c653a20636f6e747261637420697320616c72656160448201526d191e481a5b9a5d1a585b1a5e995960921b606482015260840161095b565b6000805460ff191660011790558015611aa8576000805461ff0019166101001790555b606c80546001600160a01b03199081166001600160a01b038c81169190911790925560658054600160581b600160f81b031916600160581b8c851602179055606b805482168a841617905560708054909116918816919091179055611b106020860186614ae5565b607380546001600160a01b0319166001600160a01b0392909216919091179055611b406060860160408701614ae5565b606980546001600160a01b0392909216600160401b02600160401b600160e01b0319909216919091179055611b7b60c0860160a08701614ae5565b606a80546001600160a01b0319166001600160a01b039290921691909117905560008052606d60209081527fda90043ba5b4096ba14704bc227ab0d3167da15b887e62ab2e76e37daa711356859055611bda90604087019087016147fb565b606c80546001600160401b0392909216600160a81b0267ffffffffffffffff60a81b19909216919091179055611c1660a0860160808701614bc7565b606c8054911515600160a01b0260ff60a01b19909216919091179055606e611c3e8482614fd5565b50606f611c4b8382614fd5565b5062093a80611c6060808701606088016147fb565b6001600160401b03161115611c875760405162461bcd60e51b815260040161095b90615094565b611c9760808601606087016147fb565b607280546001600160401b0392909216600160801b0267ffffffffffffffff60801b1990921691909117905562093a80611cd760e0870160c088016147fb565b6001600160401b03161115611cfe5760405162461bcd60e51b815260040161095b90615094565b611d0e60e0860160c087016147fb565b607280546001600160c01b0316600160c01b6001600160401b039390931692909202919091179055670de0b6b3a7640000607455606580546affffffffffffffffffff0019166a03ea000000000000070800179055611d6b613b85565b8015611db1576000805461ff0019169055604051600181527f7f26b83ff96e1f2b6a682f133852f6798a09c465da95921460cefb38474024989060200160405180910390a15b505050505050505050565b6073546001600160a01b03163314611de65760405162461bcd60e51b815260040161095b90614cc9565b60698054600160401b600160e01b031916600160401b6001600160a01b038416021790556040517ff54144f9611984021529f814a1cb6a41e22c58351510a0d9f7e822618abb9cc090610a509083906147e7565b6073546001600160a01b03163314611e645760405162461bcd60e51b815260040161095b90614cc9565b607380546001600160a01b0319166001600160a01b0383161790556040517f5a272403b402d892977df56625f4164ccaf70ca3863991c43ecfe76a6905b0a190610a509083906147e7565b611eb7613bf9565b611ec16000613c53565b565b6033546001600160a01b031633146120c2576000611edf612466565b9050806001600160401b0316826001600160401b031611611f565760405162461bcd60e51b815260206004820152603c60248201526000805160206154b183398151915260448201527f746174653a20426174636820616c726561647920766572696669656400000000606482015260840161095b565b6068546001600160401b03600160401b909104811690831611801590611f9857506001600160401b038083166000908152606760205260409020600101541615155b6120115760405162461bcd60e51b815260206004820152605060248201526000805160206154b183398151915260448201527f746174653a204261746368206e6f742073657175656e636564206f72206e6f7460648201526f20656e64206f662073657175656e636560801b608482015260a40161095b565b6001600160401b03808316600090815260676020526040902060010154429161203f9162093a809116614d22565b6001600160401b031611156120c05760405162461bcd60e51b815260206004820152604d60248201526000805160206154b183398151915260448201527f746174653a204167677265676174696f6e2068616c742074696d656f7574206960648201526c1cc81b9bdd08195e1c1a5c9959609a1b608482015260a40161095b565b505b6119d8613ca5565b60655460ff16156120ed5760405162461bcd60e51b815260040161095b90614d4d565b6120fe898989898989898989613d15565b6001600160401b0386166000908152606d60209081526040918290205482519081529081018690527f1f44c21118c4603cfb4e1b621dbcfa2b73efcececee2b99b620b2953d33a7010910160405180910390a1611db1613ca5565b6073546001600160a01b031633146121835760405162461bcd60e51b815260040161095b90614cc9565b606c8054821515600160a01b0260ff60a01b199091161790556040517fbacda50a4a8575be1d91a7ebe29ee45056f3a94f12a2281eb6b43afa33bcefe690610a5090831515815260200190565b6065546040516370a0823160e01b81526000918291600160581b9091046001600160a01b0316906370a082319061220b9030906004016147e7565b602060405180830381865afa158015612228573d6000803e3d6000fd5b505050506040513d601f19601f8201168201806040525081019061224c9190614ec0565b90506000612258612466565b6068546001600160401b03600160401b820481169161228891600160801b8204811691600160c01b900416614f31565b6122929190614d22565b61229c9190614f31565b6001600160401b031690506122b18183615103565b9250505090565b6073546001600160a01b031633146122e25760405162461bcd60e51b815260040161095b90614cc9565b62093a806001600160401b03821611156123765760405162461bcd60e51b815260206004820152604960248201527f506f6c79676f6e5a6b45564d3a3a73657450656e64696e67537461746554696d60448201527f656f75743a20457863656564206d61782068616c74206167677265676174696f6064820152681b881d1a5b595bdd5d60ba1b608482015260a40161095b565b60655460ff1661240b576072546001600160401b03600160801b90910481169082161061240b5760405162461bcd60e51b815260206004820152603f60248201527f506f6c79676f6e5a6b45564d3a3a73657450656e64696e67537461746554696d60448201527f656f75743a204e65772074696d656f7574206d757374206265206c6f77657200606482015260840161095b565b6072805467ffffffffffffffff60801b1916600160801b6001600160401b038416908102919091179091556040519081527fc4121f4e22c69632ebb7cf1f462be0511dc034f999b52013eddfb24aab765c7590602001610a50565b6072546000906001600160401b0316156124a357506072546001600160401b03908116600090815260716020526040902054600160401b90041690565b506069546001600160401b031690565b6073546001600160a01b031633146124dd5760405162461bcd60e51b815260040161095b90614cc9565b606e6124e98282614fd5565b507f6b8f723a4c7a5335cafae8a598a0aa0301be1387c037dccc085b62add6448b2081604051610a509190614740565b6073546001600160a01b031633146125435760405162461bcd60e51b815260040161095b90614cc9565b6065805468ffffffffffffffff0019166101006001600160401b038416908102919091179091556040519081527f03a12f7e53d2a9e31a9e913d85c12c4c38feb92abe003c111329298af088437f90602001610a50565b60655460ff16156125bd5760405162461bcd60e51b815260040161095b90614d4d565b606c54600160a01b900460ff1615156001146125eb5760405162461bcd60e51b815260040161095b90615117565b808061264d5760405162461bcd60e51b815260206004820152603f602482015260008051602061551183398151915260448201527f65733a204d75737420666f726365206174206c65617374203120626174636800606482015260840161095b565b6103e881106126be5760405162461bcd60e51b8152602060048201526043602482015260008051602061551183398151915260448201527f65733a2043616e6e6f74207665726966792074686174206d616e79206261746360648201526268657360e81b608482015260a40161095b565b6068546001600160401b03600160c01b82048116916126e6918491600160801b900416615180565b11156127425760405162461bcd60e51b81526020600482015260376024820152600080516020615511833981519152604482015276195cce88119bdc98d94818985d18da081a5b9d985b1a59604a1b606482015260840161095b565b6068546001600160401b03600160401b820481166000818152606760205260408120549193600160801b9004909216915b8481101561299557600087878381811061278f5761278f614db5565b90506020028101906127a19190615198565b6127aa906151ae565b9050836127b681614e77565b825180516020918201208185015160408087015190519499509194506000936127e29386939101614e9d565b60408051601f1981840301815291815281516020928301206001600160401b0389166000908152606690935291205490915081146128815760405162461bcd60e51b8152602060048201526042602482015260008051602061551183398151915260448201527f65733a20466f7263656420626174636865732064617461206d757374206d61746064820152610c6d60f31b608482015260a40161095b565b6001600160401b0386166000908152606660205260408120556128a5600189614f59565b840361293c57426206978084604001516128bf9190614d22565b6001600160401b0316111561293c5760405162461bcd60e51b8152602060048201526049602482015260008051602061551183398151915260448201527f65733a20466f72636564206261746368206973206e6f7420696e2074696d656f6064820152681d5d081c195c9a5bd960ba1b608482015260a40161095b565b848284602001514233604051602001612959959493929190614ed9565b604051602081830303815290604052805190602001209450868061297c90614e77565b975050505050808061298d90614f18565b915050612773565b50606880546001600160401b0342811667ffffffffffffffff199092168217808455604080516060810182528681526020808201958652600160401b9384900485168284019081528a86166000818152606790935284832093518455965160019390930180549151871686026001600160801b031990921693871693909317179091558554938816600160801b0267ffffffffffffffff60801b1993860293909316600160401b600160c01b03199094169390931791909117909355915190917f648a61dd2438f072f5a1960939abd30f37aea80d2e94c9792ad142d3e0a490a491a2505050505050565b6073546001600160a01b03163314612aaa5760405162461bcd60e51b815260040161095b90614cc9565b607060009054906101000a90046001600160a01b03166001600160a01b031663dbc169766040518163ffffffff1660e01b8152600401600060405180830381600087803b158015612afa57600080fd5b505af1158015612b0e573d6000803e3d6000fd5b50505050611ec1614349565b606a546001600160a01b03163314612b445760405162461bcd60e51b815260040161095b90615229565b612b55898989898989898989613d15565b6069805467ffffffffffffffff19166001600160401b038881169182179092556000908152606d602052604090208590556072541615612ba057607280546001600160801b03191690555b606c546040516333d6247d60e01b8152600481018790526001600160a01b03909116906333d6247d90602401600060405180830381600087803b158015612be657600080fd5b505af1158015612bfa573d6000803e3d6000fd5b5050607280546001600160c01b031661127560c71b179055505060405184815233906001600160401b038816907fcc1b5520188bf1dd3e63f98164b577c4d75c11a619ddea692112f0d1aec4cf729060200160405180910390a3505050505050505050565b60655460ff1615612c825760405162461bcd60e51b815260040161095b90614d4d565b606c54600160a01b900460ff161515600114612cb05760405162461bcd60e51b815260040161095b90615117565b6000612cbb60745490565b905081811115612d205760405162461bcd60e51b815260206004820152602a60248201527f506f6c79676f6e5a6b45564d3a3a666f72636542617463683a204e6f7420656e6044820152696f756768206d6174696360b01b606482015260840161095b565b620493e08310612d905760405162461bcd60e51b815260206004820152603560248201527f506f6c79676f6e5a6b45564d3a3a666f72636542617463683a205472616e73616044820152746374696f6e73206279746573206f766572666c6f7760581b606482015260840161095b565b606554612daf90600160581b90046001600160a01b03163330846131a2565b606c5460408051633ed691ef60e01b815290516000926001600160a01b031691633ed691ef9160048083019260209291908290030181865afa158015612df9573d6000803e3d6000fd5b505050506040513d601f19601f82011682018060405250810190612e1d9190614ec0565b60688054919250600160c01b9091046001600160401b0316906018612e4183614e77565b91906101000a8154816001600160401b0302191690836001600160401b03160217905550508484604051612e76929190615286565b604051908190038120612e8f9183904290602001614e9d565b60408051808303601f190181529181528151602092830120606854600160c01b90046001600160401b031660009081526066909352912055323303612f3357606854604080518381523360208201526060918101829052600091810191909152600160c01b9091046001600160401b0316907ff94bb37db835f1ab585ee00041849a09b12cd081d77fa15ca070757619cbc9319060800160405180910390a2612f90565b606860189054906101000a90046001600160401b03166001600160401b03167ff94bb37db835f1ab585ee00041849a09b12cd081d77fa15ca070757619cbc93182338888604051612f879493929190615296565b60405180910390a25b5050505050565b606a546001600160a01b03163314612fc15760405162461bcd60e51b815260040161095b90615229565b612fd188888888888888886132b7565b6069805467ffffffffffffffff19166001600160401b038881169182179092556000908152606d60205260409020859055607254161561301c57607280546001600160801b03191690555b606c546040516333d6247d60e01b8152600481018790526001600160a01b03909116906333d6247d90602401600060405180830381600087803b15801561306257600080fd5b505af1158015613076573d6000803e3d6000fd5b50506040518681523392506001600160401b03891691507f0c0ce073a7d7b5850c04ccc4b20ee7d3179d5f57d0ac44399565792c0f72fce790602001611913565b6073546001600160a01b031633146130e15760405162461bcd60e51b815260040161095b90614cc9565b606a80546001600160a01b0319166001600160a01b0383161790556040517f61f8fec29495a3078e9271456f05fb0707fd4e41f7661865f80fc437d06681ca90610a509083906147e7565b613134613bf9565b6001600160a01b0381166131995760405162461bcd60e51b815260206004820152602660248201527f4f776e61626c653a206e6577206f776e657220697320746865207a65726f206160448201526564647265737360d01b606482015260840161095b565b6119d881613c53565b6040516001600160a01b038085166024830152831660448201526064810182905261320d9085906323b872dd60e01b906084015b60408051601f198184030181529190526020810180516001600160e01b03166001600160e01b0319909316929092179091526143f6565b50505050565b6072546001600160401b03600160401b8204811691161115611ec15760725460009061325090600160401b90046001600160401b03166001614d22565b905061325b81610bfc565b156119d85760725460009060029061327d9084906001600160401b0316614f31565b61328791906152dd565b6132919083614d22565b905061329c81610bfc565b156132ae576132aa816139a0565b5050565b6132aa826139a0565b6000806132c2612466565b90506001600160401b038a1615613428576072546001600160401b03908116908b16111561337a5760405162461bcd60e51b815260206004820152605960248201527f506f6c79676f6e5a6b45564d3a3a5f766572696679426174636865733a20706560448201527f6e64696e6753746174654e756d206d757374206265206c657373206f7220657160648201527875616c207468616e206c61737450656e64696e67537461746560381b608482015260a40161095b565b6001600160401b03808b1660009081526071602052604090206002810154815490945090918b8116600160401b90920416146134225760405162461bcd60e51b815260206004820152604d60248201526000805160206154d183398151915260448201527f69744e756d4261746368206d757374206d61746368207468652070656e64696e60648201526c0ce40e6e8c2e8ca40c4c2e8c6d609b1b608482015260a40161095b565b5061354e565b6001600160401b0389166000908152606d60205260409020549150816134b25760405162461bcd60e51b8152602060048201526044602482018190526000805160206154d1833981519152908201527f69744e756d426174636820737461746520726f6f7420646f6573206e6f7420656064820152631e1a5cdd60e21b608482015260a40161095b565b806001600160401b0316896001600160401b0316111561354e5760405162461bcd60e51b815260206004820152605e60248201526000805160206154d183398151915260448201527f69744e756d4261746368206d757374206265206c657373206f7220657175616c60648201527f207468616e2063757272656e744c617374566572696669656442617463680000608482015260a40161095b565b806001600160401b0316886001600160401b0316116135f65760405162461bcd60e51b815260206004820152605860248201527f506f6c79676f6e5a6b45564d3a3a5f766572696679426174636865733a20666960448201527f6e616c4e65774261746368206d75737420626520626967676572207468616e206064820152770c6eae4e4cadce898c2e6e8accae4d2ccd2cac884c2e8c6d60431b608482015260a40161095b565b60006136058a8a8a868b610a5b565b905060007f30644e72e131a029b85045b68181585d2833e84879b9709143e1f593f000000160028360405161363a9190615303565b602060405180830381855afa158015613657573d6000803e3d6000fd5b5050506040513d601f19601f8201168201806040525081019061367a9190614ec0565b6136849190615315565b606b546040805160208101825283815290516343753b4d60e01b81529293506001600160a01b03909116916343753b4d916136c8918b918b918b9190600401615329565b602060405180830381865afa1580156136e5573d6000803e3d6000fd5b505050506040513d601f19601f8201168201806040525081019061370991906153a3565b6137695760405162461bcd60e51b815260206004820152602b60248201527f506f6c79676f6e5a6b45564d3a3a5f766572696679426174636865733a20496e60448201526a3b30b634b210383937b7b360a91b606482015260840161095b565b6137ac33613777858d614f31565b6001600160401b03166137886121d0565b6137929190614f70565b606554600160581b90046001600160a01b031691906144cd565b505050505050505050505050565b60006137c4612466565b9050816000806137d48484614f31565b6001600160401b031690505b836001600160401b0316836001600160401b031614613886576001600160401b03808416600090815260676020526040902060655460018201549192610100909104811691613830911642614f59565b111561386b57600181015461385590600160401b90046001600160401b031685614f31565b613868906001600160401b031684615180565b92505b60010154600160401b90046001600160401b031692506137e0565b60006138928383614f59565b90508281101561390c5760006138a88285614f59565b9050600c81116138b857806138bb565b600c5b90506138c8816003614f70565b6138d390600a6154a4565b6065546138ec908390600160481b900461ffff166154a4565b6074546138f99190614f70565b6139039190615103565b60745550613998565b60006139188483614f59565b9050600c8111613928578061392b565b600c5b9050600061393a826003614f70565b61394590600a6154a4565b60655461395e908490600160481b900461ffff166154a4565b60745461396b9190614f70565b6139759190615103565b9050806074546074546139889190614f70565b6139929190615103565b60745550505b505050505050565b6001600160401b038116158015906139cd57506072546001600160401b03600160401b9091048116908216115b80156139e857506072546001600160401b0390811690821611155b613a5a5760405162461bcd60e51b815260206004820152603f60248201527f506f6c79676f6e5a6b45564d3a3a5f636f6e736f6c696461746550656e64696e60448201527f6753746174653a2070656e64696e6753746174654e756d20696e76616c696400606482015260840161095b565b6001600160401b038181166000818152607160209081526040808320805460698054600160401b9283900490981667ffffffffffffffff19909816881790556002820154878652606d90945293829020929092556072805467ffffffffffffffff60401b19169390940292909217909255606c54600183015491516333d6247d60e01b815260048101929092529192916001600160a01b0316906333d6247d90602401600060405180830381600087803b158015613b1757600080fd5b505af1158015613b2b573d6000803e3d6000fd5b50505050826001600160401b0316816001600160401b03167f328d3c6c0fd6f1be0515e422f2d87e59f25922cbc2233568515a0c4bc3f8510e8460020154604051613b7891815260200190565b60405180910390a3505050565b600054610100900460ff16613bf05760405162461bcd60e51b815260206004820152602b60248201527f496e697469616c697a61626c653a20636f6e7472616374206973206e6f74206960448201526a6e697469616c697a696e6760a81b606482015260840161095b565b611ec133613c53565b6033546001600160a01b03163314611ec15760405162461bcd60e51b815260206004820181905260248201527f4f776e61626c653a2063616c6c6572206973206e6f7420746865206f776e6572604482015260640161095b565b603380546001600160a01b038381166001600160a01b0319831681179093556040519116919082907f8be0079c531659141344cd1fd0a4f28419497f9722a3daafe3b4186f6b6457e090600090a35050565b607060009054906101000a90046001600160a01b03166001600160a01b0316632072f6c56040518163ffffffff1660e01b8152600401600060405180830381600087803b158015613cf557600080fd5b505af1158015613d09573d6000803e3d6000fd5b50505050611ec16144fd565b60006001600160401b038a1615613e85576072546001600160401b03908116908b161115613dcd5760405162461bcd60e51b815260206004820152606560248201526000805160206154f183398151915260448201527f696e6753746174653a2070656e64696e6753746174654e756d206d757374206260648201527f65206c657373206f7220657175616c207468616e206c61737450656e64696e67608482015264537461746560d81b60a482015260c40161095b565b506001600160401b03808a1660009081526071602052604090206002810154815490928a8116600160401b9092041614613e7f5760405162461bcd60e51b815260206004820152605960248201526000805160206154f183398151915260448201527f696e6753746174653a20696e69744e756d4261746368206d757374206d6174636064820152780d040e8d0ca40e0cadcc8d2dcce40e6e8c2e8ca40c4c2e8c6d603b1b608482015260a40161095b565b50613fbe565b506001600160401b0387166000908152606d602052604090205480613f195760405162461bcd60e51b815260206004820152605060248201526000805160206154f183398151915260448201527f696e6753746174653a20696e69744e756d426174636820737461746520726f6f60648201526f1d08191bd95cc81b9bdd08195e1a5cdd60821b608482015260a40161095b565b6069546001600160401b039081169089161115613fbe5760405162461bcd60e51b815260206004820152606360248201526000805160206154f183398151915260448201527f696e6753746174653a20696e69744e756d4261746368206d757374206265206c60648201527f657373206f7220657175616c207468616e206c617374566572696669656442616084820152620e8c6d60eb1b60a482015260c40161095b565b6072546001600160401b03908116908a1611801590613fee5750896001600160401b0316896001600160401b0316115b801561400f57506072546001600160401b03600160401b9091048116908a16115b6140805760405162461bcd60e51b815260206004820152604860248201526000805160206154f183398151915260448201527f696e6753746174653a2066696e616c50656e64696e6753746174654e756d20696064820152671b98dbdc9c9958dd60c21b608482015260a40161095b565b6001600160401b03898116600090815260716020526040902054600160401b90048116908816146141375760405162461bcd60e51b815260206004820152606160248201526000805160206154f183398151915260448201527f696e6753746174653a2066696e616c4e65774261746368206d7573742062652060648201527f657175616c20746f2063757272656e744c6173745665726966696564426174636084820152600d60fb1b60a482015260c40161095b565b6000614146898989858a610a5b565b905060007f30644e72e131a029b85045b68181585d2833e84879b9709143e1f593f000000160028360405161417b9190615303565b602060405180830381855afa158015614198573d6000803e3d6000fd5b5050506040513d601f19601f820116820180604052508101906141bb9190614ec0565b6141c59190615315565b606b546040805160208101825283815290516343753b4d60e01b81529293506001600160a01b03909116916343753b4d91614209918a918a918a9190600401615329565b602060405180830381865afa158015614226573d6000803e3d6000fd5b505050506040513d601f19601f8201168201806040525081019061424a91906153a3565b6142a45760405162461bcd60e51b815260206004820152603760248201526000805160206154f183398151915260448201527634b733a9ba30ba329d1024b73b30b634b210383937b7b360491b606482015260840161095b565b6001600160401b038b166000908152607160205260409020600201548790036137ac5760405162461bcd60e51b815260206004820152605b60248201526000805160206154f183398151915260448201527f696e6753746174653a2053746f72656420726f6f74206d75737420626520646960648201527f66666572656e74207468616e206e657720737461746520726f6f740000000000608482015260a40161095b565b60655460ff166143c15760405162461bcd60e51b815260206004820152603b60248201527f456d657267656e63794d616e616765723a3a6966456d657267656e637953746160448201527f74653a206f6e6c7920696620656d657267656e63792073746174650000000000606482015260840161095b565b6065805460ff191690556040517f1e5e34eea33501aecf2ebec9fe0e884a40804275ea7fe10b2ba084c8374308b390600090a1565b600061444b826040518060400160405280602081526020017f5361666545524332303a206c6f772d6c6576656c2063616c6c206661696c6564815250856001600160a01b03166145589092919063ffffffff16565b8051909150156144c8578080602001905181019061446991906153a3565b6144c85760405162461bcd60e51b815260206004820152602a60248201527f5361666545524332303a204552433230206f7065726174696f6e20646964206e6044820152691bdd081cdd58d8d9595960b21b606482015260840161095b565b505050565b6040516001600160a01b0383166024820152604481018290526144c890849063a9059cbb60e01b906064016131d6565b60655460ff16156145205760405162461bcd60e51b815260040161095b90614d4d565b6065805460ff191660011790556040517f2261efe5aef6fedc1fd1550b25facc9181745623049c7901287030b9ad1a549790600090a1565b6060614567848460008561456f565b949350505050565b6060824710156145d05760405162461bcd60e51b815260206004820152602660248201527f416464726573733a20696e73756666696369656e742062616c616e636520666f6044820152651c8818d85b1b60d21b606482015260840161095b565b600080866001600160a01b031685876040516145ec9190615303565b60006040518083038185875af1925050503d8060008114614629576040519150601f19603f3d011682016040523d82523d6000602084013e61462e565b606091505b509150915061463f8783838761464a565b979650505050505050565b606083156146b95782516000036146b2576001600160a01b0385163b6146b25760405162461bcd60e51b815260206004820152601d60248201527f416464726573733a2063616c6c20746f206e6f6e2d636f6e7472616374000000604482015260640161095b565b5081614567565b61456783838151156146ce5781518083602001fd5b8060405162461bcd60e51b815260040161095b9190614740565b60005b838110156147035781810151838201526020016146eb565b8381111561320d5750506000910152565b6000815180845261472c8160208601602086016146e8565b601f01601f19169290920160200192915050565b6020815260006147536020830184614714565b9392505050565b60006020828403121561476c57600080fd5b813561ffff8116811461475357600080fd5b80356001600160401b038116811461479557600080fd5b919050565b600080600080600060a086880312156147b257600080fd5b6147bb8661477e565b94506147c96020870161477e565b94979496505050506040830135926060810135926080909101359150565b6001600160a01b0391909116815260200190565b60006020828403121561480d57600080fd5b6147538261477e565b60008083601f84011261482857600080fd5b5081356001600160401b0381111561483f57600080fd5b6020830191508360208260051b850101111561485a57600080fd5b9250929050565b6000806020838503121561487457600080fd5b82356001600160401b0381111561488a57600080fd5b61489685828601614816565b90969095509350505050565b80604081018310156148b357600080fd5b92915050565b80608081018310156148b357600080fd5b6000806000806000806000806101a0898b0312156148e757600080fd5b6148f08961477e565b97506148fe60208a0161477e565b965061490c60408a0161477e565b955060608901359450608089013593506149298a60a08b016148a2565b92506149388a60e08b016148b9565b91506149488a6101608b016148a2565b90509295985092959890939650565b6001600160a01b03811681146119d857600080fd5b634e487b7160e01b600052604160045260246000fd5b600082601f83011261499357600080fd5b81356001600160401b03808211156149ad576149ad61496c565b604051601f8301601f19908116603f011681019082821181831017156149d5576149d561496c565b816040528381528660208588010111156149ee57600080fd5b836020870160208301376000602085830101528094505050505092915050565b600080600080600080600080888a036101c0811215614a2c57600080fd5b8935614a3781614957565b985060208a0135614a4781614957565b975060408a0135614a5781614957565b965060608a0135614a6781614957565b955060e0607f1982011215614a7b57600080fd5b5060808901935061016089013592506101808901356001600160401b0380821115614aa557600080fd5b614ab18c838d01614982565b93506101a08b0135915080821115614ac857600080fd5b50614ad58b828c01614982565b9150509295985092959890939650565b600060208284031215614af757600080fd5b813561475381614957565b60008060008060008060008060006101c08a8c031215614b2157600080fd5b614b2a8a61477e565b9850614b3860208b0161477e565b9750614b4660408b0161477e565b9650614b5460608b0161477e565b955060808a0135945060a08a01359350614b718b60c08c016148a2565b9250614b818b6101008c016148b9565b9150614b918b6101808c016148a2565b90509295985092959850929598565b600060208284031215614bb257600080fd5b5035919050565b80151581146119d857600080fd5b600060208284031215614bd957600080fd5b813561475381614bb9565b600060208284031215614bf657600080fd5b81356001600160401b03811115614c0c57600080fd5b61456784828501614982565b600080600060408486031215614c2d57600080fd5b83356001600160401b0380821115614c4457600080fd5b818601915086601f830112614c5857600080fd5b813581811115614c6757600080fd5b876020828501011115614c7957600080fd5b6020928301989097509590910135949350505050565b600181811c90821680614ca357607f821691505b602082108103614cc357634e487b7160e01b600052602260045260246000fd5b50919050565b60208082526023908201527f506f6c79676f6e5a6b45564d3a3a6f6e6c7941646d696e3a204f6e6c7920616460408201526236b4b760e91b606082015260800190565b634e487b7160e01b600052601160045260246000fd5b60006001600160401b03808316818516808303821115614d4457614d44614d0c565b01949350505050565b60208082526042908201527f456d657267656e63794d616e616765723a3a69664e6f74456d657267656e637960408201527f53746174653a206f6e6c79206966206e6f7420656d657267656e637920737461606082015261746560f01b608082015260a00190565b634e487b7160e01b600052603260045260246000fd5b60008235607e19833603018112614de157600080fd5b9190910192915050565b600060808236031215614dfd57600080fd5b604051608081016001600160401b038282108183111715614e2057614e2061496c565b816040528435915080821115614e3557600080fd5b50614e4236828601614982565b82525060208301356020820152614e5b6040840161477e565b6040820152614e6c6060840161477e565b606082015292915050565b60006001600160401b03808316818103614e9357614e93614d0c565b6001019392505050565b928352602083019190915260c01b6001600160c01b031916604082015260480190565b600060208284031215614ed257600080fd5b5051919050565b9485526020850193909352604084019190915260c01b6001600160c01b0319166060808401919091521b6001600160601b0319166068820152607c0190565b600060018201614f2a57614f2a614d0c565b5060010190565b60006001600160401b0383811690831681811015614f5157614f51614d0c565b039392505050565b600082821015614f6b57614f6b614d0c565b500390565b6000816000190483118215151615614f8a57614f8a614d0c565b500290565b601f8211156144c857600081815260208120601f850160051c81016020861015614fb65750805b601f850160051c820191505b8181101561399857828155600101614fc2565b81516001600160401b03811115614fee57614fee61496c565b61500281614ffc8454614c8f565b84614f8f565b602080601f831160018114615037576000841561501f5750858301515b600019600386901b1c1916600185901b178555613998565b600085815260208120601f198616915b8281101561506657888601518255948401946001909101908401615047565b50858210156150845787850151600019600388901b60f8161c191681555b5050505050600190811b01905550565b60208082526039908201527f506f6c79676f6e5a6b45564d3a3a696e697469616c697a653a20457863656564604082015278081a185b1d081859d9dc9959d85d1a5bdb881d1a5b595bdd5d603a1b606082015260800190565b634e487b7160e01b600052601260045260246000fd5b600082615112576151126150ed565b500490565b60208082526043908201527f506f6c79676f6e5a6b45564d3a3a6973466f7263654261746368416c6c6f776560408201527f643a204f6e6c7920696620666f72636520626174636820697320617661696c61606082015262626c6560e81b608082015260a00190565b6000821982111561519357615193614d0c565b500190565b60008235605e19833603018112614de157600080fd5b6000606082360312156151c057600080fd5b604051606081016001600160401b0382821081831117156151e3576151e361496c565b8160405284359150808211156151f857600080fd5b5061520536828601614982565b8252506020830135602082015261521e6040840161477e565b604082015292915050565b6020808252603c908201527f506f6c79676f6e5a6b45564d3a3a6f6e6c79547275737465644167677265676160408201527f746f723a204f6e6c7920747275737465642061676772656761746f7200000000606082015260800190565b8183823760009101908152919050565b8481526001600160a01b03841660208201526060604082018190528101829052818360808301376000818301608090810191909152601f909201601f191601019392505050565b60006001600160401b03808416806152f7576152f76150ed565b92169190910492915050565b60008251614de18184602087016146e8565b600082615324576153246150ed565b500690565b61012081016040808784376000838201818152879190815b600281101561536157848483379084018281529284019290600101615341565b5050828760c0870137610100850181815286935091505b6001811015615397578251825260209283019290910190600101615378565b50505095945050505050565b6000602082840312156153b557600080fd5b815161475381614bb9565b600181815b808511156153fb5781600019048211156153e1576153e1614d0c565b808516156153ee57918102915b93841c93908002906153c5565b509250929050565b600082615412575060016148b3565b8161541f575060006148b3565b8160018114615435576002811461543f5761545b565b60019150506148b3565b60ff84111561545057615450614d0c565b50506001821b6148b3565b5060208310610133831016604e8410600b841016171561547e575081810a6148b3565b61548883836153c0565b806000190482111561549c5761549c614d0c565b029392505050565b6000614753838361540356fe506f6c79676f6e5a6b45564d3a3a6163746976617465456d657267656e637953506f6c79676f6e5a6b45564d3a3a5f766572696679426174636865733a20696e506f6c79676f6e5a6b45564d3a3a5f70726f766544697374696e637450656e64506f6c79676f6e5a6b45564d3a3a73657175656e6365466f7263654261746368506f6c79676f6e5a6b45564d3a3a73657175656e6365426174636865733a2046a26469706673582212202d55416f9441bb13f16f1c79cc977e7586c03e3308b6bdb7924c8ca2552270e064736f6c634300080f0033",
  "linkReferences": {},
  "deployedLinkReferences": {}
}