{
  "_format": "hh-sol-artifact-1",
  "contractName": "PolygonZkEVMMock",
  "sourceName": "contracts/mocks/PolygonZkEVMMock.sol",
  "abi": [
    {
      "anonymous": false,
      "inputs": [
        {
          "indexed": true,
          "internalType": "uint64",
          "name": "numBatch",
          "type": "uint64"
        },
        {
          "indexed": false,
          "internalType": "bytes32",
          "name": "stateRoot",
          "type": "bytes32"
        },
        {
          "indexed": true,
          "internalType": "uint64",
          "name": "pendingStateNum",
          "type": "uint64"
        }
      ],
      "name": "ConsolidatePendingState",
      "type": "event"
    },
    {
      "anonymous": false,
      "inputs": [],
      "name": "EmergencyStateActivated",
      "type": "event"
    },
    {
      "anonymous": false,
      "inputs": [],
      "name": "EmergencyStateDeactivated",
      "type": "event"
    },
    {
      "anonymous": false,
      "inputs": [
        {
          "indexed": true,
          "internalType": "uint64",
          "name": "forceBatchNum",
          "type": "uint64"
        },
        {
          "indexed": false,
          "internalType": "bytes32",
          "name": "lastGlobalExitRoot",
          "type": "bytes32"
        },
        {
          "indexed": false,
          "internalType": "address",
          "name": "sequencer",
          "type": "address"
        },
        {
          "indexed": false,
          "internalType": "bytes",
          "name": "transactions",
          "type": "bytes"
        }
      ],
      "name": "ForceBatch",
      "type": "event"
    },
    {
      "anonymous": false,
      "inputs": [
        {
          "indexed": false,
          "internalType": "uint8",
          "name": "version",
          "type": "uint8"
        }
      ],
      "name": "Initialized",
      "type": "event"
    },
    {
      "anonymous": false,
      "inputs": [
        {
          "indexed": true,
          "internalType": "uint64",
          "name": "numBatch",
          "type": "uint64"
        },
        {
          "indexed": false,
          "internalType": "bytes32",
          "name": "stateRoot",
          "type": "bytes32"
        },
        {
          "indexed": true,
          "internalType": "address",
          "name": "aggregator",
          "type": "address"
        }
      ],
      "name": "OverridePendingState",
      "type": "event"
    },
    {
      "anonymous": false,
      "inputs": [
        {
          "indexed": true,
          "internalType": "address",
          "name": "previousOwner",
          "type": "address"
        },
        {
          "indexed": true,
          "internalType": "address",
          "name": "newOwner",
          "type": "address"
        }
      ],
      "name": "OwnershipTransferred",
      "type": "event"
    },
    {
      "anonymous": false,
      "inputs": [
        {
          "indexed": false,
          "internalType": "bytes32",
          "name": "storedStateRoot",
          "type": "bytes32"
        },
        {
          "indexed": false,
          "internalType": "bytes32",
          "name": "provedStateRoot",
          "type": "bytes32"
        }
      ],
      "name": "ProveNonDeterministicPendingState",
      "type": "event"
    },
    {
      "anonymous": false,
      "inputs": [
        {
          "indexed": true,
          "internalType": "uint64",
          "name": "numBatch",
          "type": "uint64"
        }
      ],
      "name": "SequenceBatches",
      "type": "event"
    },
    {
      "anonymous": false,
      "inputs": [
        {
          "indexed": true,
          "internalType": "uint64",
          "name": "numBatch",
          "type": "uint64"
        }
      ],
      "name": "SequenceForceBatches",
      "type": "event"
    },
    {
      "anonymous": false,
      "inputs": [
        {
          "indexed": false,
          "internalType": "address",
          "name": "newAdmin",
          "type": "address"
        }
      ],
      "name": "SetAdmin",
      "type": "event"
    },
    {
      "anonymous": false,
      "inputs": [
        {
          "indexed": false,
          "internalType": "bool",
          "name": "newForceBatchAllowed",
          "type": "bool"
        }
      ],
      "name": "SetForceBatchAllowed",
      "type": "event"
    },
    {
      "anonymous": false,
      "inputs": [
        {
          "indexed": false,
          "internalType": "uint16",
          "name": "newMultiplierBatchFee",
          "type": "uint16"
        }
      ],
      "name": "SetMultiplierBatchFee",
      "type": "event"
    },
    {
      "anonymous": false,
      "inputs": [
        {
          "indexed": false,
          "internalType": "uint64",
          "name": "newPendingStateTimeout",
          "type": "uint64"
        }
      ],
      "name": "SetPendingStateTimeout",
      "type": "event"
    },
    {
      "anonymous": false,
      "inputs": [
        {
          "indexed": false,
          "internalType": "address",
          "name": "newTrustedAggregator",
          "type": "address"
        }
      ],
      "name": "SetTrustedAggregator",
      "type": "event"
    },
    {
      "anonymous": false,
      "inputs": [
        {
          "indexed": false,
          "internalType": "uint64",
          "name": "newTrustedAggregatorTimeout",
          "type": "uint64"
        }
      ],
      "name": "SetTrustedAggregatorTimeout",
      "type": "event"
    },
    {
      "anonymous": false,
      "inputs": [
        {
          "indexed": false,
          "internalType": "address",
          "name": "newTrustedSequencer",
          "type": "address"
        }
      ],
      "name": "SetTrustedSequencer",
      "type": "event"
    },
    {
      "anonymous": false,
      "inputs": [
        {
          "indexed": false,
          "internalType": "string",
          "name": "newTrustedSequencerURL",
          "type": "string"
        }
      ],
      "name": "SetTrustedSequencerURL",
      "type": "event"
    },
    {
      "anonymous": false,
      "inputs": [
        {
          "indexed": false,
          "internalType": "uint64",
          "name": "newVeryBatchTimeTarget",
          "type": "uint64"
        }
      ],
      "name": "SetVeryBatchTimeTarget",
      "type": "event"
    },
    {
      "anonymous": false,
      "inputs": [
        {
          "indexed": true,
          "internalType": "uint64",
          "name": "numBatch",
          "type": "uint64"
        },
        {
          "indexed": false,
          "internalType": "bytes32",
          "name": "stateRoot",
          "type": "bytes32"
        },
        {
          "indexed": true,
          "internalType": "address",
          "name": "aggregator",
          "type": "address"
        }
      ],
      "name": "TrustedVerifyBatches",
      "type": "event"
    },
    {
      "anonymous": false,
      "inputs": [
        {
          "indexed": true,
          "internalType": "uint64",
          "name": "numBatch",
          "type": "uint64"
        },
        {
          "indexed": false,
          "internalType": "bytes32",
          "name": "stateRoot",
          "type": "bytes32"
        },
        {
          "indexed": true,
          "internalType": "address",
          "name": "aggregator",
          "type": "address"
        }
      ],
      "name": "VerifyBatches",
      "type": "event"
    },
    {
      "inputs": [],
      "name": "FORCE_BATCH_TIMEOUT",
      "outputs": [
        {
          "internalType": "uint64",
          "name": "",
          "type": "uint64"
        }
      ],
      "stateMutability": "view",
      "type": "function"
    },
    {
      "inputs": [],
      "name": "HALT_AGGREGATION_TIMEOUT",
      "outputs": [
        {
          "internalType": "uint64",
          "name": "",
          "type": "uint64"
        }
      ],
      "stateMutability": "view",
      "type": "function"
    },
    {
      "inputs": [],
      "name": "MAX_BATCH_MULTIPLIER",
      "outputs": [
        {
          "internalType": "uint256",
          "name": "",
          "type": "uint256"
        }
      ],
      "stateMutability": "view",
      "type": "function"
    },
    {
      "inputs": [],
      "name": "MAX_TRANSACTIONS_BYTE_LENGTH",
      "outputs": [
        {
          "internalType": "uint256",
          "name": "",
          "type": "uint256"
        }
      ],
      "stateMutability": "view",
      "type": "function"
    },
    {
      "inputs": [],
      "name": "MAX_VERIFY_BATCHES",
      "outputs": [
        {
          "internalType": "uint64",
          "name": "",
          "type": "uint64"
        }
      ],
      "stateMutability": "view",
      "type": "function"
    },
    {
      "inputs": [
        {
          "internalType": "uint64",
          "name": "sequencedBatchNum",
          "type": "uint64"
        }
      ],
      "name": "activateEmergencyState",
      "outputs": [],
      "stateMutability": "nonpayable",
      "type": "function"
    },
    {
      "inputs": [],
      "name": "admin",
      "outputs": [
        {
          "internalType": "address",
          "name": "",
          "type": "address"
        }
      ],
      "stateMutability": "view",
      "type": "function"
    },
    {
      "inputs": [],
      "name": "batchFee",
      "outputs": [
        {
          "internalType": "uint256",
          "name": "",
          "type": "uint256"
        }
      ],
      "stateMutability": "view",
      "type": "function"
    },
    {
      "inputs": [
        {
          "internalType": "uint64",
          "name": "",
          "type": "uint64"
        }
      ],
      "name": "batchNumToStateRoot",
      "outputs": [
        {
          "internalType": "bytes32",
          "name": "",
          "type": "bytes32"
        }
      ],
      "stateMutability": "view",
      "type": "function"
    },
    {
      "inputs": [],
      "name": "bridgeAddress",
      "outputs": [
        {
          "internalType": "contract IPolygonZkEVMBridge",
          "name": "",
          "type": "address"
        }
      ],
      "stateMutability": "view",
      "type": "function"
    },
    {
      "inputs": [
        {
          "internalType": "bytes32",
          "name": "currentAccInputHash",
          "type": "bytes32"
        },
        {
          "internalType": "bytes",
          "name": "transactions",
          "type": "bytes"
        },
        {
          "internalType": "bytes32",
          "name": "globalExitRoot",
          "type": "bytes32"
        },
        {
          "internalType": "uint64",
          "name": "timestamp",
          "type": "uint64"
        },
        {
          "internalType": "address",
          "name": "sequencerAddress",
          "type": "address"
        }
      ],
      "name": "calculateAccInputHash",
      "outputs": [
        {
          "internalType": "bytes32",
          "name": "",
          "type": "bytes32"
        }
      ],
      "stateMutability": "pure",
      "type": "function"
    },
    {
      "inputs": [],
      "name": "calculateRewardPerBatch",
      "outputs": [
        {
          "internalType": "uint256",
          "name": "",
          "type": "uint256"
        }
      ],
      "stateMutability": "view",
      "type": "function"
    },
    {
      "inputs": [],
      "name": "chainID",
      "outputs": [
        {
          "internalType": "uint64",
          "name": "",
          "type": "uint64"
        }
      ],
      "stateMutability": "view",
      "type": "function"
    },
    {
      "inputs": [
        {
          "internalType": "uint64",
          "name": "pendingStateNum",
          "type": "uint64"
        }
      ],
      "name": "consolidatePendingState",
      "outputs": [],
      "stateMutability": "nonpayable",
      "type": "function"
    },
    {
      "inputs": [],
      "name": "deactivateEmergencyState",
      "outputs": [],
      "stateMutability": "nonpayable",
      "type": "function"
    },
    {
      "inputs": [
        {
          "internalType": "bytes",
          "name": "transactions",
          "type": "bytes"
        },
        {
          "internalType": "uint256",
          "name": "maticAmount",
          "type": "uint256"
        }
      ],
      "name": "forceBatch",
      "outputs": [],
      "stateMutability": "nonpayable",
      "type": "function"
    },
    {
      "inputs": [],
      "name": "forceBatchAllowed",
      "outputs": [
        {
          "internalType": "bool",
          "name": "",
          "type": "bool"
        }
      ],
      "stateMutability": "view",
      "type": "function"
    },
    {
      "inputs": [
        {
          "internalType": "uint64",
          "name": "",
          "type": "uint64"
        }
      ],
      "name": "forcedBatches",
      "outputs": [
        {
          "internalType": "bytes32",
          "name": "",
          "type": "bytes32"
        }
      ],
      "stateMutability": "view",
      "type": "function"
    },
    {
      "inputs": [],
      "name": "getCurrentBatchFee",
      "outputs": [
        {
          "internalType": "uint256",
          "name": "",
          "type": "uint256"
        }
      ],
      "stateMutability": "view",
      "type": "function"
    },
    {
      "inputs": [
        {
          "internalType": "uint64",
          "name": "initNumBatch",
          "type": "uint64"
        },
        {
          "internalType": "uint64",
          "name": "finalNewBatch",
          "type": "uint64"
        },
        {
          "internalType": "bytes32",
          "name": "newLocalExitRoot",
          "type": "bytes32"
        },
        {
          "internalType": "bytes32",
          "name": "oldStateRoot",
          "type": "bytes32"
        },
        {
          "internalType": "bytes32",
          "name": "newStateRoot",
          "type": "bytes32"
        }
      ],
      "name": "getInputSnarkBytes",
      "outputs": [
        {
          "internalType": "bytes",
          "name": "",
          "type": "bytes"
        }
      ],
      "stateMutability": "view",
      "type": "function"
    },
    {
      "inputs": [],
      "name": "getLastVerifiedBatch",
      "outputs": [
        {
          "internalType": "uint64",
          "name": "",
          "type": "uint64"
        }
      ],
      "stateMutability": "view",
      "type": "function"
    },
    {
      "inputs": [
        {
          "internalType": "uint64",
          "name": "pendingStateNum",
          "type": "uint64"
        },
        {
          "internalType": "uint64",
          "name": "initNumBatch",
          "type": "uint64"
        },
        {
          "internalType": "uint64",
          "name": "finalNewBatch",
          "type": "uint64"
        },
        {
          "internalType": "bytes32",
          "name": "newLocalExitRoot",
          "type": "bytes32"
        },
        {
          "internalType": "bytes32",
          "name": "newStateRoot",
          "type": "bytes32"
        }
      ],
      "name": "getNextSnarkInput",
      "outputs": [
        {
          "internalType": "uint256",
          "name": "",
          "type": "uint256"
        }
      ],
      "stateMutability": "view",
      "type": "function"
    },
    {
      "inputs": [],
      "name": "globalExitRootManager",
      "outputs": [
        {
          "internalType": "contract IPolygonZkEVMGlobalExitRoot",
          "name": "",
          "type": "address"
        }
      ],
      "stateMutability": "view",
      "type": "function"
    },
    {
      "inputs": [
        {
          "internalType": "contract IPolygonZkEVMGlobalExitRoot",
          "name": "_globalExitRootManager",
          "type": "address"
        },
        {
          "internalType": "contract IERC20Upgradeable",
          "name": "_matic",
          "type": "address"
        },
        {
          "internalType": "contract IVerifierRollup",
          "name": "_rollupVerifier",
          "type": "address"
        },
        {
          "internalType": "contract IPolygonZkEVMBridge",
          "name": "_bridgeAddress",
          "type": "address"
        },
        {
          "components": [
            {
              "internalType": "address",
              "name": "admin",
              "type": "address"
            },
            {
              "internalType": "uint64",
              "name": "chainID",
              "type": "uint64"
            },
            {
              "internalType": "address",
              "name": "trustedSequencer",
              "type": "address"
            },
            {
              "internalType": "uint64",
              "name": "pendingStateTimeout",
              "type": "uint64"
            },
            {
              "internalType": "bool",
              "name": "forceBatchAllowed",
              "type": "bool"
            },
            {
              "internalType": "address",
              "name": "trustedAggregator",
              "type": "address"
            },
            {
              "internalType": "uint64",
              "name": "trustedAggregatorTimeout",
              "type": "uint64"
            }
          ],
          "internalType": "struct PolygonZkEVM.InitializePackedParameters",
          "name": "initializePackedParameters",
          "type": "tuple"
        },
        {
          "internalType": "bytes32",
          "name": "genesisRoot",
          "type": "bytes32"
        },
        {
          "internalType": "string",
          "name": "_trustedSequencerURL",
          "type": "string"
        },
        {
          "internalType": "string",
          "name": "_networkName",
          "type": "string"
        }
      ],
      "name": "initialize",
      "outputs": [],
      "stateMutability": "nonpayable",
      "type": "function"
    },
    {
      "inputs": [],
      "name": "isEmergencyState",
      "outputs": [
        {
          "internalType": "bool",
          "name": "",
          "type": "bool"
        }
      ],
      "stateMutability": "view",
      "type": "function"
    },
    {
      "inputs": [
        {
          "internalType": "uint64",
          "name": "pendingStateNum",
          "type": "uint64"
        }
      ],
      "name": "isPendingStateConsolidable",
      "outputs": [
        {
          "internalType": "bool",
          "name": "",
          "type": "bool"
        }
      ],
      "stateMutability": "view",
      "type": "function"
    },
    {
      "inputs": [],
      "name": "lastBatchSequenced",
      "outputs": [
        {
          "internalType": "uint64",
          "name": "",
          "type": "uint64"
        }
      ],
      "stateMutability": "view",
      "type": "function"
    },
    {
      "inputs": [],
      "name": "lastForceBatch",
      "outputs": [
        {
          "internalType": "uint64",
          "name": "",
          "type": "uint64"
        }
      ],
      "stateMutability": "view",
      "type": "function"
    },
    {
      "inputs": [],
      "name": "lastForceBatchSequenced",
      "outputs": [
        {
          "internalType": "uint64",
          "name": "",
          "type": "uint64"
        }
      ],
      "stateMutability": "view",
      "type": "function"
    },
    {
      "inputs": [],
      "name": "lastPendingState",
      "outputs": [
        {
          "internalType": "uint64",
          "name": "",
          "type": "uint64"
        }
      ],
      "stateMutability": "view",
      "type": "function"
    },
    {
      "inputs": [],
      "name": "lastPendingStateConsolidated",
      "outputs": [
        {
          "internalType": "uint64",
          "name": "",
          "type": "uint64"
        }
      ],
      "stateMutability": "view",
      "type": "function"
    },
    {
      "inputs": [],
      "name": "lastTimestamp",
      "outputs": [
        {
          "internalType": "uint64",
          "name": "",
          "type": "uint64"
        }
      ],
      "stateMutability": "view",
      "type": "function"
    },
    {
      "inputs": [],
      "name": "lastVerifiedBatch",
      "outputs": [
        {
          "internalType": "uint64",
          "name": "",
          "type": "uint64"
        }
      ],
      "stateMutability": "view",
      "type": "function"
    },
    {
      "inputs": [],
      "name": "matic",
      "outputs": [
        {
          "internalType": "contract IERC20Upgradeable",
          "name": "",
          "type": "address"
        }
      ],
      "stateMutability": "view",
      "type": "function"
    },
    {
      "inputs": [],
      "name": "multiplierBatchFee",
      "outputs": [
        {
          "internalType": "uint16",
          "name": "",
          "type": "uint16"
        }
      ],
      "stateMutability": "view",
      "type": "function"
    },
    {
      "inputs": [],
      "name": "networkName",
      "outputs": [
        {
          "internalType": "string",
          "name": "",
          "type": "string"
        }
      ],
      "stateMutability": "view",
      "type": "function"
    },
    {
      "inputs": [
        {
          "internalType": "uint64",
          "name": "initPendingStateNum",
          "type": "uint64"
        },
        {
          "internalType": "uint64",
          "name": "finalPendingStateNum",
          "type": "uint64"
        },
        {
          "internalType": "uint64",
          "name": "initNumBatch",
          "type": "uint64"
        },
        {
          "internalType": "uint64",
          "name": "finalNewBatch",
          "type": "uint64"
        },
        {
          "internalType": "bytes32",
          "name": "newLocalExitRoot",
          "type": "bytes32"
        },
        {
          "internalType": "bytes32",
          "name": "newStateRoot",
          "type": "bytes32"
        },
        {
          "internalType": "uint256[2]",
          "name": "proofA",
          "type": "uint256[2]"
        },
        {
          "internalType": "uint256[2][2]",
          "name": "proofB",
          "type": "uint256[2][2]"
        },
        {
          "internalType": "uint256[2]",
          "name": "proofC",
          "type": "uint256[2]"
        }
      ],
      "name": "overridePendingState",
      "outputs": [],
      "stateMutability": "nonpayable",
      "type": "function"
    },
    {
      "inputs": [],
      "name": "owner",
      "outputs": [
        {
          "internalType": "address",
          "name": "",
          "type": "address"
        }
      ],
      "stateMutability": "view",
      "type": "function"
    },
    {
      "inputs": [],
      "name": "pendingStateTimeout",
      "outputs": [
        {
          "internalType": "uint64",
          "name": "",
          "type": "uint64"
        }
      ],
      "stateMutability": "view",
      "type": "function"
    },
    {
      "inputs": [
        {
          "internalType": "uint256",
          "name": "",
          "type": "uint256"
        }
      ],
      "name": "pendingStateTransitions",
      "outputs": [
        {
          "internalType": "uint64",
          "name": "timestamp",
          "type": "uint64"
        },
        {
          "internalType": "uint64",
          "name": "lastVerifiedBatch",
          "type": "uint64"
        },
        {
          "internalType": "bytes32",
          "name": "exitRoot",
          "type": "bytes32"
        },
        {
          "internalType": "bytes32",
          "name": "stateRoot",
          "type": "bytes32"
        }
      ],
      "stateMutability": "view",
      "type": "function"
    },
    {
      "inputs": [
        {
          "internalType": "uint64",
          "name": "initPendingStateNum",
          "type": "uint64"
        },
        {
          "internalType": "uint64",
          "name": "finalPendingStateNum",
          "type": "uint64"
        },
        {
          "internalType": "uint64",
          "name": "initNumBatch",
          "type": "uint64"
        },
        {
          "internalType": "uint64",
          "name": "finalNewBatch",
          "type": "uint64"
        },
        {
          "internalType": "bytes32",
          "name": "newLocalExitRoot",
          "type": "bytes32"
        },
        {
          "internalType": "bytes32",
          "name": "newStateRoot",
          "type": "bytes32"
        },
        {
          "internalType": "uint256[2]",
          "name": "proofA",
          "type": "uint256[2]"
        },
        {
          "internalType": "uint256[2][2]",
          "name": "proofB",
          "type": "uint256[2][2]"
        },
        {
          "internalType": "uint256[2]",
          "name": "proofC",
          "type": "uint256[2]"
        }
      ],
      "name": "proveNonDeterministicPendingState",
      "outputs": [],
      "stateMutability": "nonpayable",
      "type": "function"
    },
    {
      "inputs": [],
      "name": "renounceOwnership",
      "outputs": [],
      "stateMutability": "nonpayable",
      "type": "function"
    },
    {
      "inputs": [],
      "name": "rollupVerifier",
      "outputs": [
        {
          "internalType": "contract IVerifierRollup",
          "name": "",
          "type": "address"
        }
      ],
      "stateMutability": "view",
      "type": "function"
    },
    {
      "inputs": [
        {
          "components": [
            {
              "internalType": "bytes",
              "name": "transactions",
              "type": "bytes"
            },
            {
              "internalType": "bytes32",
              "name": "globalExitRoot",
              "type": "bytes32"
            },
            {
              "internalType": "uint64",
              "name": "timestamp",
              "type": "uint64"
            },
            {
              "internalType": "uint64",
              "name": "minForcedTimestamp",
              "type": "uint64"
            }
          ],
          "internalType": "struct PolygonZkEVM.BatchData[]",
          "name": "batches",
          "type": "tuple[]"
        }
      ],
      "name": "sequenceBatches",
      "outputs": [],
      "stateMutability": "nonpayable",
      "type": "function"
    },
    {
      "inputs": [
        {
          "components": [
            {
              "internalType": "bytes",
              "name": "transactions",
              "type": "bytes"
            },
            {
              "internalType": "bytes32",
              "name": "globalExitRoot",
              "type": "bytes32"
            },
            {
              "internalType": "uint64",
              "name": "minForcedTimestamp",
              "type": "uint64"
            }
          ],
          "internalType": "struct PolygonZkEVM.ForcedBatchData[]",
          "name": "batches",
          "type": "tuple[]"
        }
      ],
      "name": "sequenceForceBatches",
      "outputs": [],
      "stateMutability": "nonpayable",
      "type": "function"
    },
    {
      "inputs": [
        {
          "internalType": "uint64",
          "name": "",
          "type": "uint64"
        }
      ],
      "name": "sequencedBatches",
      "outputs": [
        {
          "internalType": "bytes32",
          "name": "accInputHash",
          "type": "bytes32"
        },
        {
          "internalType": "uint64",
          "name": "sequencedTimestamp",
          "type": "uint64"
        },
        {
          "internalType": "uint64",
          "name": "previousLastBatchSequenced",
          "type": "uint64"
        }
      ],
      "stateMutability": "view",
      "type": "function"
    },
    {
      "inputs": [
        {
          "internalType": "address",
          "name": "newAdmin",
          "type": "address"
        }
      ],
      "name": "setAdmin",
      "outputs": [],
      "stateMutability": "nonpayable",
      "type": "function"
    },
    {
      "inputs": [
        {
          "internalType": "bool",
          "name": "newForceBatchAllowed",
          "type": "bool"
        }
      ],
      "name": "setForceBatchAllowed",
      "outputs": [],
      "stateMutability": "nonpayable",
      "type": "function"
    },
    {
      "inputs": [
        {
          "internalType": "uint16",
          "name": "newMultiplierBatchFee",
          "type": "uint16"
        }
      ],
      "name": "setMultiplierBatchFee",
      "outputs": [],
      "stateMutability": "nonpayable",
      "type": "function"
    },
    {
      "inputs": [
        {
          "internalType": "string",
          "name": "_networkName",
          "type": "string"
        }
      ],
      "name": "setNetworkName",
      "outputs": [],
      "stateMutability": "nonpayable",
      "type": "function"
    },
    {
      "inputs": [
        {
          "internalType": "uint64",
          "name": "newPendingStateTimeout",
          "type": "uint64"
        }
      ],
      "name": "setPendingStateTimeout",
      "outputs": [],
      "stateMutability": "nonpayable",
      "type": "function"
    },
    {
      "inputs": [
        {
          "internalType": "uint64",
          "name": "_numBatch",
          "type": "uint64"
        }
      ],
      "name": "setSequencedBatch",
      "outputs": [],
      "stateMutability": "nonpayable",
      "type": "function"
    },
    {
      "inputs": [
        {
          "internalType": "uint64",
          "name": "batchNum",
          "type": "uint64"
        },
        {
          "internalType": "bytes32",
          "name": "accInputData",
          "type": "bytes32"
        },
        {
          "internalType": "uint64",
          "name": "timestamp",
          "type": "uint64"
        },
        {
          "internalType": "uint64",
          "name": "lastPendingStateConsolidated",
          "type": "uint64"
        }
      ],
      "name": "setSequencedBatches",
      "outputs": [],
      "stateMutability": "nonpayable",
      "type": "function"
    },
    {
      "inputs": [
        {
          "internalType": "bytes32",
          "name": "newStateRoot",
          "type": "bytes32"
        },
        {
          "internalType": "uint64",
          "name": "batchNum",
          "type": "uint64"
        }
      ],
      "name": "setStateRoot",
      "outputs": [],
      "stateMutability": "nonpayable",
      "type": "function"
    },
    {
      "inputs": [
        {
          "internalType": "address",
          "name": "newTrustedAggregator",
          "type": "address"
        }
      ],
      "name": "setTrustedAggregator",
      "outputs": [],
      "stateMutability": "nonpayable",
      "type": "function"
    },
    {
      "inputs": [
        {
          "internalType": "uint64",
          "name": "newTrustedAggregatorTimeout",
          "type": "uint64"
        }
      ],
      "name": "setTrustedAggregatorTimeout",
      "outputs": [],
      "stateMutability": "nonpayable",
      "type": "function"
    },
    {
      "inputs": [
        {
          "internalType": "address",
          "name": "newTrustedSequencer",
          "type": "address"
        }
      ],
      "name": "setTrustedSequencer",
      "outputs": [],
      "stateMutability": "nonpayable",
      "type": "function"
    },
    {
      "inputs": [
        {
          "internalType": "string",
          "name": "newTrustedSequencerURL",
          "type": "string"
        }
      ],
      "name": "setTrustedSequencerURL",
      "outputs": [],
      "stateMutability": "nonpayable",
      "type": "function"
    },
    {
      "inputs": [
        {
          "internalType": "uint64",
          "name": "_numBatch",
          "type": "uint64"
        }
      ],
      "name": "setVerifiedBatch",
      "outputs": [],
      "stateMutability": "nonpayable",
      "type": "function"
    },
    {
      "inputs": [
        {
          "internalType": "contract IVerifierRollup",
          "name": "_rollupVerifier",
          "type": "address"
        }
      ],
      "name": "setVerifier",
      "outputs": [],
      "stateMutability": "nonpayable",
      "type": "function"
    },
    {
      "inputs": [
        {
          "internalType": "uint64",
          "name": "newVeryBatchTimeTarget",
          "type": "uint64"
        }
      ],
      "name": "setVeryBatchTimeTarget",
      "outputs": [],
      "stateMutability": "nonpayable",
      "type": "function"
    },
    {
      "inputs": [
        {
          "internalType": "address",
          "name": "newOwner",
          "type": "address"
        }
      ],
      "name": "transferOwnership",
      "outputs": [],
      "stateMutability": "nonpayable",
      "type": "function"
    },
    {
      "inputs": [],
      "name": "trustedAggregator",
      "outputs": [
        {
          "internalType": "address",
          "name": "",
          "type": "address"
        }
      ],
      "stateMutability": "view",
      "type": "function"
    },
    {
      "inputs": [],
      "name": "trustedAggregatorTimeout",
      "outputs": [
        {
          "internalType": "uint64",
          "name": "",
          "type": "uint64"
        }
      ],
      "stateMutability": "view",
      "type": "function"
    },
    {
      "inputs": [],
      "name": "trustedSequencer",
      "outputs": [
        {
          "internalType": "address",
          "name": "",
          "type": "address"
        }
      ],
      "stateMutability": "view",
      "type": "function"
    },
    {
      "inputs": [],
      "name": "trustedSequencerURL",
      "outputs": [
        {
          "internalType": "string",
          "name": "",
          "type": "string"
        }
      ],
      "stateMutability": "view",
      "type": "function"
    },
    {
      "inputs": [
        {
          "internalType": "uint64",
          "name": "pendingStateNum",
          "type": "uint64"
        },
        {
          "internalType": "uint64",
          "name": "initNumBatch",
          "type": "uint64"
        },
        {
          "internalType": "uint64",
          "name": "finalNewBatch",
          "type": "uint64"
        },
        {
          "internalType": "bytes32",
          "name": "newLocalExitRoot",
          "type": "bytes32"
        },
        {
          "internalType": "bytes32",
          "name": "newStateRoot",
          "type": "bytes32"
        },
        {
          "internalType": "uint256[2]",
          "name": "proofA",
          "type": "uint256[2]"
        },
        {
          "internalType": "uint256[2][2]",
          "name": "proofB",
          "type": "uint256[2][2]"
        },
        {
          "internalType": "uint256[2]",
          "name": "proofC",
          "type": "uint256[2]"
        }
      ],
      "name": "trustedVerifyBatches",
      "outputs": [],
      "stateMutability": "nonpayable",
      "type": "function"
    },
    {
      "inputs": [
        {
          "internalType": "uint64",
          "name": "pendingStateNum",
          "type": "uint64"
        },
        {
          "internalType": "uint64",
          "name": "initNumBatch",
          "type": "uint64"
        },
        {
          "internalType": "uint64",
          "name": "finalNewBatch",
          "type": "uint64"
        },
        {
          "internalType": "bytes32",
          "name": "newLocalExitRoot",
          "type": "bytes32"
        },
        {
          "internalType": "bytes32",
          "name": "newStateRoot",
          "type": "bytes32"
        },
        {
          "internalType": "uint256[2]",
          "name": "proofA",
          "type": "uint256[2]"
        },
        {
          "internalType": "uint256[2][2]",
          "name": "proofB",
          "type": "uint256[2][2]"
        },
        {
          "internalType": "uint256[2]",
          "name": "proofC",
          "type": "uint256[2]"
        }
      ],
      "name": "trustedVerifyBatchesMock",
      "outputs": [],
      "stateMutability": "nonpayable",
      "type": "function"
    },
    {
      "inputs": [
        {
          "internalType": "uint64",
          "name": "pendingStateNum",
          "type": "uint64"
        },
        {
          "internalType": "uint64",
          "name": "initNumBatch",
          "type": "uint64"
        },
        {
          "internalType": "uint64",
          "name": "finalNewBatch",
          "type": "uint64"
        },
        {
          "internalType": "bytes32",
          "name": "newLocalExitRoot",
          "type": "bytes32"
        },
        {
          "internalType": "bytes32",
          "name": "newStateRoot",
          "type": "bytes32"
        },
        {
          "internalType": "uint256[2]",
          "name": "proofA",
          "type": "uint256[2]"
        },
        {
          "internalType": "uint256[2][2]",
          "name": "proofB",
          "type": "uint256[2][2]"
        },
        {
          "internalType": "uint256[2]",
          "name": "proofC",
          "type": "uint256[2]"
        }
      ],
      "name": "verifyBatches",
      "outputs": [],
      "stateMutability": "nonpayable",
      "type": "function"
    },
    {
      "inputs": [],
      "name": "veryBatchTimeTarget",
      "outputs": [
        {
          "internalType": "uint64",
          "name": "",
          "type": "uint64"
        }
      ],
      "stateMutability": "view",
      "type": "function"
    }
  ],
  "bytecode": "0x608060405234801561001057600080fd5b50615f0680620000216000396000f3fe608060405234801561001057600080fd5b50600436106103925760003560e01c806396dc3d39116101e0578063cfa8ed4711610110578063e7a7ed02116100a8578063e7a7ed0214610905578063e8bf92ed1461091f578063eaeb077b14610932578063edc4112114610945578063f14916d614610958578063f2fde38b1461096b578063f851a4401461097e578063f8b823e414610991578063fe16564f1461099a57600080fd5b8063cfa8ed4714610860578063d02103ca1461087a578063d8d1091b1461088d578063d8f54db0146108a0578063d939b315146108b4578063dbc16976146108ce578063e0d17441146108d6578063e11f3f18146108e9578063e217cfd6146108fc57600080fd5b8063ab9fc5ef11610183578063ab9fc5ef14610759578063adc879e914610763578063afd23cbe1461077d578063b4d63f58146107a5578063b6b0b09714610805578063c0cad3021461081f578063c0ed84e014610832578063c89e42df1461083a578063cf1363061461084d57600080fd5b806396dc3d39146106dd57806399f5634e146106f05780639b796760146106f85780639c9f3dfe1461070b5780639eb831b91461071e5780639f0d039d14610726578063a3c573eb1461072e578063aa58bad61461074157600080fd5b80634a910e6a116102c6578063715018a61161025e578063715018a6146105e65780637215541a146105ee57806375c508b3146106015780637fcb365314610614578063837a473814610627578063841b24d7146106955780638b48931e146106af5780638c4a0af7146106b95780638da5cb5b146106cc57600080fd5b80634a910e6a1461052c5780635392c5e01461053f578063542028d51461055f5780635437988d14610567578063574f649e1461057a57806360943d6a1461058d5780636b8616ce146105a05780636ff512cc146105c0578063704b6c02146105d357600080fd5b80632d0889d3116103395780632d0889d314610475578063383b3be81461047f578063394218e9146104925780633c158267146104a5578063423fa856146104b857806345605267146104d2578063458c0477146104ec5780634834a343146104ff5780634a1a89a71461051257600080fd5b80630eaa86ea14610397578063107bf28c146103bd57806310a01a72146103d257806315064c96146103e75780631816b7e51461040457806319d8ac6114610417578063220d7899146104425780632987898314610455575b600080fd5b6103aa6103a5366004614c68565b6109ad565b6040519081526020015b60405180910390f35b6103c5610b7c565b6040516103b49190614d15565b6103e56103e0366004614d57565b610c0a565b005b6065546103f49060ff1681565b60405190151581526020016103b4565b6103e5610412366004614de4565b610e53565b60685461042a906001600160401b031681565b6040516001600160401b0390911681526020016103b4565b6103c5610450366004614e08565b610f74565b606a54610468906001600160a01b031681565b6040516103b49190614e55565b6103aa620493e081565b6103f461048d366004614e69565b611115565b6103e56104a0366004614e69565b61115c565b6103e56104b3366004614fa6565b611318565b60685461042a90600160401b90046001600160401b031681565b60685461042a90600160801b90046001600160401b031681565b60725461042a906001600160401b031681565b6103e561050d366004614d57565b611adf565b60725461042a90600160401b90046001600160401b031681565b6103e561053a366004614e69565b611e27565b6103aa61054d366004614e69565b606d6020526000908152604090205481565b6103c5611edd565b6103e56105753660046150d1565b611eea565b6103aa6105883660046150ee565b611f14565b6103e561059b366004615163565b611f57565b6103aa6105ae366004614e69565b60666020526000908152604090205481565b6103e56105ce3660046150d1565b6122b2565b6103e56105e13660046150d1565b612330565b6103e56123a5565b6103e56105fc366004614e69565b6123b9565b6103e561060f36600461523a565b6125c0565b60695461042a906001600160401b031681565b61066a6106353660046152d8565b6071602052600090815260409020805460018201546002909201546001600160401b0380831693600160401b90930416919084565b604080516001600160401b0395861681529490931660208501529183015260608201526080016103b4565b60725461042a90600160c01b90046001600160401b031681565b61042a62093a8081565b6103e56106c73660046152ff565b61264f565b6033546001600160a01b0316610468565b6103e56106eb366004614e69565b6126c6565b6103aa6126f0565b6103e5610706366004614e69565b6127d8565b6103e5610719366004614e69565b61280d565b6103aa600c81565b6074546103aa565b607054610468906001600160a01b031681565b60655461042a9061010090046001600160401b031681565b61042a6206978081565b606c5461042a90600160a81b90046001600160401b031681565b60655461079290600160481b900461ffff1681565b60405161ffff90911681526020016103b4565b6107e06107b3366004614e69565b606760205260009081526040902080546001909101546001600160401b0380821691600160401b90041683565b604080519384526001600160401b0392831660208501529116908201526060016103b4565b60655461046890600160581b90046001600160a01b031681565b6103e561082d36600461531c565b6129bb565b61042a6129d3565b6103e561084836600461531c565b612a20565b6103e561085b366004614e69565b612a86565b60695461046890600160401b90046001600160a01b031681565b606c54610468906001600160a01b031681565b6103e561089b366004615350565b612b07565b606c546103f490600160a01b900460ff1681565b60725461042a90600160801b90046001600160401b031681565b6103e5612fc6565b6103e56108e4366004615442565b613082565b6103e56108f736600461523a565b6130f4565b61042a6103e881565b60685461042a90600160c01b90046001600160401b031681565b606b54610468906001600160a01b031681565b6103e561094036600461548f565b613238565b6103e5610953366004614d57565b613561565b6103e56109663660046150d1565b613680565b6103e56109793660046150d1565b6136f5565b607354610468906001600160a01b031681565b6103aa60745481565b6103e56109a83660046154d3565b61376b565b60008060006109ba6129d3565b90506001600160401b03881615610a57576072546001600160401b039081169089161115610a035760405162461bcd60e51b81526004016109fa906154ff565b60405180910390fd5b6001600160401b038089166000908152607160205260409020600281015481549094509091898116600160401b9092041614610a515760405162461bcd60e51b81526004016109fa9061557d565b50610ac1565b6001600160401b0387166000908152606d6020526040902054915081610a8f5760405162461bcd60e51b81526004016109fa906155dd565b806001600160401b0316876001600160401b03161115610ac15760405162461bcd60e51b81526004016109fa90615634565b806001600160401b0316866001600160401b031611610af25760405162461bcd60e51b81526004016109fa906156a5565b6000610b018888888689610f74565b90506000600080516020615e91833981519152600283604051610b249190615722565b602060405180830381855afa158015610b41573d6000803e3d6000fd5b5050506040513d601f19601f82011682018060405250810190610b64919061573e565b610b6e919061576d565b9a9950505050505050505050565b606f8054610b8990615781565b80601f0160208091040260200160405190810160405280929190818152602001828054610bb590615781565b8015610c025780601f10610bd757610100808354040283529160200191610c02565b820191906000526020600020905b815481529060010190602001808311610be557829003601f168201915b505050505081565b610c1261378d565b600080610c1d6129d3565b90506001600160401b038a1615610cb1576072546001600160401b03908116908b161115610c5d5760405162461bcd60e51b81526004016109fa906154ff565b6001600160401b03808b1660009081526071602052604090206002810154815490945090918b8116600160401b9092041614610cab5760405162461bcd60e51b81526004016109fa9061557d565b50610d1b565b6001600160401b0389166000908152606d6020526040902054915081610ce95760405162461bcd60e51b81526004016109fa906155dd565b806001600160401b0316896001600160401b03161115610d1b5760405162461bcd60e51b81526004016109fa90615634565b806001600160401b0316886001600160401b031611610d4c5760405162461bcd60e51b81526004016109fa906156a5565b6000610d5b8a8a8a868b610f74565b606980546001600160401b0319166001600160401b038c81169182179092556000908152606d602052604090208990556072549192501615610da857607280546001600160801b03191690555b606c546040516333d6247d60e01b8152600481018a90526001600160a01b03909116906333d6247d90602401600060405180830381600087803b158015610dee57600080fd5b505af1158015610e02573d6000803e3d6000fd5b50506040518981523392506001600160401b038c1691507f0c0ce073a7d7b5850c04ccc4b20ee7d3179d5f57d0ac44399565792c0f72fce79060200160405180910390a35050505050505050505050565b6073546001600160a01b03163314610e7d5760405162461bcd60e51b81526004016109fa906157bb565b6103e88161ffff1610158015610e9857506104008161ffff16105b610f1d5760405162461bcd60e51b815260206004820152604a60248201527f506f6c79676f6e5a6b45564d3a3a7365744d756c7469706c696572426174636860448201527f4665653a206e65774d756c7469706c696572426174636846656520696e636f72606482015269726563742072616e676560b01b608482015260a4016109fa565b6065805461ffff60481b1916600160481b61ffff8416908102919091179091556040519081527f7019933d795eba185c180209e8ae8bffbaa25bcef293364687702c31f4d302c5906020015b60405180910390a150565b6001600160401b03808616600081815260676020526040808220549388168252902054606092911580610fa657508115155b61101a576040805162461bcd60e51b81526020600482015260248101919091527f506f6c79676f6e5a6b45564d3a3a676574496e707574536e61726b427974657360448201527f3a206f6c64416363496e7075744861736820646f6573206e6f7420657869737460648201526084016109fa565b8061108f576040805162461bcd60e51b81526020600482015260248101919091527f506f6c79676f6e5a6b45564d3a3a676574496e707574536e61726b427974657360448201527f3a206e6577416363496e7075744861736820646f6573206e6f7420657869737460648201526084016109fa565b606c54604080516001600160601b03193360601b166020820152603481019790975260548701939093526001600160c01b031960c0998a1b81166074880152600160a81b909104891b8116607c870152608486019490945260a485015260c4840194909452509290931b90911660e4830152805180830360cc01815260ec909201905290565b6072546001600160401b038281166000908152607160205260408120549092429261114b92600160801b90920481169116615814565b6001600160401b0316111592915050565b6073546001600160a01b031633146111865760405162461bcd60e51b81526004016109fa906157bb565b62093a806001600160401b038216111561121f5760405162461bcd60e51b815260206004820152604e60248201527f506f6c79676f6e5a6b45564d3a3a73657454727573746564416767726567617460448201527f6f7254696d656f75743a20457863656564206d61782068616c7420616767726560648201526d19d85d1a5bdb881d1a5b595bdd5d60921b608482015260a4016109fa565b60655460ff166112c2576072546001600160401b03600160c01b9091048116908216106112c25760405162461bcd60e51b8152602060048201526044602482018190527f506f6c79676f6e5a6b45564d3a3a736574547275737465644167677265676174908201527f6f7254696d656f75743a204e65772074696d656f7574206d757374206265206c60648201526337bbb2b960e11b608482015260a4016109fa565b607280546001600160c01b0316600160c01b6001600160401b038416908102919091179091556040519081527f1f4fa24c2e4bad19a7f3ec5c5485f70d46c798461c2e684f55bbd0fc661373a190602001610f69565b60655460ff161561133b5760405162461bcd60e51b81526004016109fa9061583f565b606954600160401b90046001600160a01b031633146113c25760405162461bcd60e51b815260206004820152603a60248201527f506f6c79676f6e5a6b45564d3a3a6f6e6c795472757374656453657175656e6360448201527f65723a204f6e6c7920747275737465642073657175656e63657200000000000060648201526084016109fa565b8051806114375760405162461bcd60e51b815260206004820152603d60248201527f506f6c79676f6e5a6b45564d3a3a73657175656e6365426174636865733a204160448201527f74206c65617374206d7573742073657175656e6365203120626174636800000060648201526084016109fa565b6103e881106114b0576040805162461bcd60e51b81526020600482015260248101919091527f506f6c79676f6e5a6b45564d3a3a73657175656e6365426174636865733a204360448201527f616e6e6f742073657175656e63652074686174206d616e79206261746368657360648201526084016109fa565b6068546001600160401b03600160401b82048116600081815260676020526040812054838516949293600160801b90930490921691905b85811015611915576000878281518110611503576115036158a7565b60200260200101519050600081606001516001600160401b03161115611693578361152d816158bd565b94505060008160000151805190602001208260200151836060015160405160200161155a939291906158e3565b60408051601f1981840301815291815281516020928301206001600160401b0388166000908152606690935291205490915081146115ee5760405162461bcd60e51b815260206004820152603d6024820152600080516020615eb183398151915260448201527f6f7263656420626174636865732064617461206d757374206d6174636800000060648201526084016109fa565b81606001516001600160401b031682604001516001600160401b0316101561168d5760405162461bcd60e51b81526020600482015260586024820152600080516020615eb183398151915260448201527f6f7263656420626174636865732074696d657374616d70206d757374206265206064820152773134b3b3b2b91037b91032b8bab0b6103a3430b71036b4b760411b608482015260a4016109fa565b50611808565b6020810151158061171c5750606c5460208201516040516312bd9b1960e11b81526001600160a01b039092169163257b3632916116d69160040190815260200190565b6020604051808303816000875af11580156116f5573d6000803e3d6000fd5b505050506040513d601f19601f82011682018060405250810190611719919061573e565b15155b61178e5760405162461bcd60e51b815260206004820152603a60248201527f506f6c79676f6e5a6b45564d3a3a73657175656e6365426174636865733a204760448201527f6c6f62616c206578697420726f6f74206d75737420657869737400000000000060648201526084016109fa565b805151620493e0116118085760405162461bcd60e51b815260206004820152603a60248201527f506f6c79676f6e5a6b45564d3a3a73657175656e6365426174636865733a205460448201527f72616e73616374696f6e73206279746573206f766572666c6f7700000000000060648201526084016109fa565b856001600160401b031681604001516001600160401b03161015801561183b57504281604001516001600160401b031611155b6118ad5760405162461bcd60e51b815260206004820152603d60248201527f506f6c79676f6e5a6b45564d3a3a73657175656e6365426174636865733a205460448201527f696d657374616d70206d75737420626520696e736964652072616e676500000060648201526084016109fa565b805180516020918201208183015160408085015190516118d4948894939291339101615906565b60405160208183030381529060405280519060200120925084806118f7906158bd565b9550508060400151955050808061190d90615945565b9150506114e7565b506068546001600160401b03600160c01b909104811690831611156119885760405162461bcd60e51b81526020600482015260356024820152600080516020615eb18339815191526044820152746f7263652062617463686573206f766572666c6f7760581b60648201526084016109fa565b6068546000906119a890600160801b90046001600160401b03168461595e565b6119bb906001600160401b031687615986565b60408051606081018252848152426001600160401b03908116602080840191825260688054600160401b9081900485168688019081528c861660008181526067909552979093209551865592516001909501805492519585166001600160801b03199384161795851684029590951790945583548b841691161793029290921767ffffffffffffffff60801b1916600160801b92871692909202919091179055607454909150611a9090339030908490611a75919061599d565b606554600160581b90046001600160a01b03169291906137e7565b611a98613852565b606854604051600160401b9091046001600160401b0316907f303446e6a8cb73c83dff421c0b1d5e5ce0719dab1bff13660fc254e58cc17fce90600090a250505050505050565b60655460ff1615611b025760405162461bcd60e51b81526004016109fa9061583f565b6072546001600160401b038781166000908152606760205260409020600101544292611b3992600160c01b90910481169116615814565b6001600160401b03161115611bc25760405162461bcd60e51b815260206004820152604360248201527f506f6c79676f6e5a6b45564d3a3a766572696679426174636865733a2054727560448201527f737465642061676772656761746f722074696d656f7574206e6f7420657870696064820152621c995960ea1b608482015260a4016109fa565b6103e8611bcf888861595e565b6001600160401b031610611c4b5760405162461bcd60e51b815260206004820152603c60248201527f506f6c79676f6e5a6b45564d3a3a766572696679426174636865733a2043616e60448201527f6e6f74207665726966792074686174206d616e7920626174636865730000000060648201526084016109fa565b611c5b88888888888888886138f2565b611c6486613de3565b607254600160801b90046001600160401b0316600003611d2b57606980546001600160401b0319166001600160401b038881169182179092556000908152606d602052604090208590556072541615611cc857607280546001600160801b03191690555b606c546040516333d6247d60e01b8152600481018790526001600160a01b03909116906333d6247d90602401600060405180830381600087803b158015611d0e57600080fd5b505af1158015611d22573d6000803e3d6000fd5b50505050611ddc565b611d33613852565b607280546001600160401b0316906000611d4c836158bd565b82546001600160401b039182166101009390930a92830292820219169190911790915560408051608081018252428316815289831660208083019182528284018b8152606084018b8152607254871660009081526071909352949091209251835492518616600160401b026001600160801b03199093169516949094171781559151600183015551600290910155505b60405184815233906001600160401b038816907f9c72852172521097ba7e1482e6b44b351323df0155f97f4ea18fcec28e1f5966906020015b60405180910390a35050505050505050565b606a546001600160a01b03163314611ed157611e4281611115565b611ed15760405162461bcd60e51b815260206004820152605460248201527f506f6c79676f6e5a6b45564d3a3a636f6e736f6c696461746550656e64696e6760448201527f53746174653a2050656e64696e67207374617465206973206e6f7420726561646064820152731e481d1bc818994818dbdb9cdbdb1a59185d195960621b608482015260a4016109fa565b611eda81613fc9565b50565b606e8054610b8990615781565b611ef261378d565b606b80546001600160a01b0319166001600160a01b0392909216919091179055565b6000858580519060200120858585604051602001611f36959493929190615906565b60405160208183030381529060405280519060200120905095945050505050565b600054610100900460ff1615808015611f775750600054600160ff909116105b80611f915750303b158015611f91575060005460ff166001145b611ff45760405162461bcd60e51b815260206004820152602e60248201527f496e697469616c697a61626c653a20636f6e747261637420697320616c72656160448201526d191e481a5b9a5d1a585b1a5e995960921b60648201526084016109fa565b6000805460ff191660011790558015612017576000805461ff0019166101001790555b606c80546001600160a01b03199081166001600160a01b038c81169190911790925560658054600160581b600160f81b031916600160581b8c851602179055606b805482168a84161790556070805490911691881691909117905561207f60208601866150d1565b607380546001600160a01b0319166001600160a01b03929092169190911790556120af60608601604087016150d1565b606980546001600160a01b0392909216600160401b02600160401b600160e01b03199092169190911790556120ea60c0860160a087016150d1565b606a80546001600160a01b0319166001600160a01b039290921691909117905560008052606d6020527fda90043ba5b4096ba14704bc227ab0d3167da15b887e62ab2e76e37daa71135684905561214760e0860160c08701614e69565b607280546001600160401b0392909216600160c01b026001600160c01b0390921691909117905561217e6040860160208701614e69565b606c80546001600160401b0392909216600160a81b0267ffffffffffffffff60a81b199092169190911790556121ba6080860160608701614e69565b607280546001600160401b0392909216600160801b0267ffffffffffffffff60801b199092169190911790556121f660a08601608087016152ff565b606c8054911515600160a01b0260ff60a01b19909216919091179055606e61221e8482615a02565b50606f61222b8382615a02565b50670de0b6b3a7640000607455606580546affffffffffffffffffff0019166a03ea0000000000000708001790556122616141ad565b80156122a7576000805461ff0019169055604051600181527f7f26b83ff96e1f2b6a682f133852f6798a09c465da95921460cefb38474024989060200160405180910390a15b505050505050505050565b6073546001600160a01b031633146122dc5760405162461bcd60e51b81526004016109fa906157bb565b60698054600160401b600160e01b031916600160401b6001600160a01b038416021790556040517ff54144f9611984021529f814a1cb6a41e22c58351510a0d9f7e822618abb9cc090610f69908390614e55565b6073546001600160a01b0316331461235a5760405162461bcd60e51b81526004016109fa906157bb565b607380546001600160a01b0319166001600160a01b0383161790556040517f5a272403b402d892977df56625f4164ccaf70ca3863991c43ecfe76a6905b0a190610f69908390614e55565b6123ad61378d565b6123b7600061421d565b565b6033546001600160a01b031633146125b85760006123d56129d3565b9050806001600160401b0316826001600160401b03161161244c5760405162461bcd60e51b815260206004820152603c6024820152600080516020615e1183398151915260448201527f746174653a20426174636820616c72656164792076657269666965640000000060648201526084016109fa565b6068546001600160401b03600160401b90910481169083161180159061248e57506001600160401b038083166000908152606760205260409020600101541615155b6125075760405162461bcd60e51b81526020600482015260506024820152600080516020615e1183398151915260448201527f746174653a204261746368206e6f742073657175656e636564206f72206e6f7460648201526f20656e64206f662073657175656e636560801b608482015260a4016109fa565b6001600160401b0380831660009081526067602052604090206001015442916125359162093a809116615814565b6001600160401b031611156125b65760405162461bcd60e51b815260206004820152604d6024820152600080516020615e1183398151915260448201527f746174653a204167677265676174696f6e2068616c742074696d656f7574206960648201526c1cc81b9bdd08195e1c1a5c9959609a1b608482015260a4016109fa565b505b611eda61426f565b60655460ff16156125e35760405162461bcd60e51b81526004016109fa9061583f565b6125f48989898989898989896142df565b6001600160401b0386166000908152606d60209081526040918290205482519081529081018690527f1f44c21118c4603cfb4e1b621dbcfa2b73efcececee2b99b620b2953d33a7010910160405180910390a16122a761426f565b6073546001600160a01b031633146126795760405162461bcd60e51b81526004016109fa906157bb565b606c8054821515600160a01b0260ff60a01b199091161790556040517fbacda50a4a8575be1d91a7ebe29ee45056f3a94f12a2281eb6b43afa33bcefe690610f6990831515815260200190565b6126ce61378d565b606980546001600160401b0319166001600160401b0392909216919091179055565b6065546040516370a0823160e01b81526000918291600160581b9091046001600160a01b0316906370a082319061272b903090600401614e55565b602060405180830381865afa158015612748573d6000803e3d6000fd5b505050506040513d601f19601f8201168201806040525081019061276c919061573e565b905060006127786129d3565b6068546001600160401b03600160401b82048116916127a891600160801b8204811691600160c01b90041661595e565b6127b29190615814565b6127bc919061595e565b6001600160401b031690506127d18183615ac1565b9250505090565b6127e061378d565b606880546001600160401b03909216600160401b0267ffffffffffffffff60401b19909216919091179055565b6073546001600160a01b031633146128375760405162461bcd60e51b81526004016109fa906157bb565b62093a806001600160401b03821611156128cb5760405162461bcd60e51b815260206004820152604960248201527f506f6c79676f6e5a6b45564d3a3a73657450656e64696e67537461746554696d60448201527f656f75743a20457863656564206d61782068616c74206167677265676174696f6064820152681b881d1a5b595bdd5d60ba1b608482015260a4016109fa565b60655460ff16612960576072546001600160401b03600160801b9091048116908216106129605760405162461bcd60e51b815260206004820152603f60248201527f506f6c79676f6e5a6b45564d3a3a73657450656e64696e67537461746554696d60448201527f656f75743a204e65772074696d656f7574206d757374206265206c6f7765720060648201526084016109fa565b6072805467ffffffffffffffff60801b1916600160801b6001600160401b038416908102919091179091556040519081527fc4121f4e22c69632ebb7cf1f462be0511dc034f999b52013eddfb24aab765c7590602001610f69565b6129c361378d565b606f6129cf8282615a02565b5050565b6072546000906001600160401b031615612a1057506072546001600160401b03908116600090815260716020526040902054600160401b90041690565b506069546001600160401b031690565b6073546001600160a01b03163314612a4a5760405162461bcd60e51b81526004016109fa906157bb565b606e612a568282615a02565b507f6b8f723a4c7a5335cafae8a598a0aa0301be1387c037dccc085b62add6448b2081604051610f699190614d15565b6073546001600160a01b03163314612ab05760405162461bcd60e51b81526004016109fa906157bb565b6065805468ffffffffffffffff0019166101006001600160401b038416908102919091179091556040519081527f03a12f7e53d2a9e31a9e913d85c12c4c38feb92abe003c111329298af088437f90602001610f69565b60655460ff1615612b2a5760405162461bcd60e51b81526004016109fa9061583f565b606c54600160a01b900460ff161515600114612b585760405162461bcd60e51b81526004016109fa90615ad5565b805180612bbb5760405162461bcd60e51b815260206004820152603f6024820152600080516020615e7183398151915260448201527f65733a204d75737420666f726365206174206c6561737420312062617463680060648201526084016109fa565b6103e88110612c2c5760405162461bcd60e51b81526020600482015260436024820152600080516020615e7183398151915260448201527f65733a2043616e6e6f74207665726966792074686174206d616e79206261746360648201526268657360e81b608482015260a4016109fa565b6068546001600160401b03600160c01b8204811691612c54918491600160801b900416615b3e565b1115612cb05760405162461bcd60e51b81526020600482015260376024820152600080516020615e71833981519152604482015276195cce88119bdc98d94818985d18da081a5b9d985b1a59604a1b60648201526084016109fa565b6068546001600160401b03600160401b820481166000818152606760205260408120549193600160801b9004909216915b84811015612ede576000868281518110612cfd57612cfd6158a7565b602002602001015190508380612d12906158bd565b945050600081600001518051906020012082602001518360400151604051602001612d3f939291906158e3565b60408051601f1981840301815291815281516020928301206001600160401b038816600090815260669093529120549091508114612dde5760405162461bcd60e51b81526020600482015260426024820152600080516020615e7183398151915260448201527f65733a20466f7263656420626174636865732064617461206d757374206d61746064820152610c6d60f31b608482015260a4016109fa565b612de9600188615986565b8303612e805742620697808360400151612e039190615814565b6001600160401b03161115612e805760405162461bcd60e51b81526020600482015260496024820152600080516020615e7183398151915260448201527f65733a20466f72636564206261746368206973206e6f7420696e2074696d656f6064820152681d5d081c195c9a5bd960ba1b608482015260a4016109fa565b8151805160209182012081840151604051612ea393889392914291339101615906565b6040516020818303038152906040528051906020012093508580612ec6906158bd565b96505050508080612ed690615945565b915050612ce1565b50606880546001600160401b031916426001600160401b03908116918217808455604080516060810182528681526020808201958652600160401b9384900485168284019081528a861660008181526067909352848320935184559651600193909301805491519387166001600160801b0319909216919091179286168502929092179091558554600160401b600160c01b03191694830267ffffffffffffffff60801b191694909417600160801b88851602179485905551930416917f648a61dd2438f072f5a1960939abd30f37aea80d2e94c9792ad142d3e0a490a49190a25050505050565b60655460ff16612fe85760405162461bcd60e51b81526004016109fa90615b56565b6073546001600160a01b031633146130125760405162461bcd60e51b81526004016109fa906157bb565b607060009054906101000a90046001600160a01b03166001600160a01b031663dbc169766040518163ffffffff1660e01b8152600401600060405180830381600087803b15801561306257600080fd5b505af1158015613076573d6000803e3d6000fd5b505050506123b7614903565b61308a61378d565b604080516060810182529384526001600160401b03928316602080860191825292841685830190815295841660009081526067909352912092518355516001909201805493518216600160401b026001600160801b03199094169290911691909117919091179055565b606a546001600160a01b0316331461311e5760405162461bcd60e51b81526004016109fa90615bb3565b61312f8989898989898989896142df565b606980546001600160401b0319166001600160401b038881169182179092556000908152606d60205260409020859055607254161561317957607280546001600160801b03191690555b606c546040516333d6247d60e01b8152600481018790526001600160a01b03909116906333d6247d90602401600060405180830381600087803b1580156131bf57600080fd5b505af11580156131d3573d6000803e3d6000fd5b5050607280546001600160c01b031661127560c71b179055505060405184815233906001600160401b038816907fcc1b5520188bf1dd3e63f98164b577c4d75c11a619ddea692112f0d1aec4cf729060200160405180910390a3505050505050505050565b60655460ff161561325b5760405162461bcd60e51b81526004016109fa9061583f565b606c54600160a01b900460ff1615156001146132895760405162461bcd60e51b81526004016109fa90615ad5565b600061329460745490565b9050818111156132f95760405162461bcd60e51b815260206004820152602a60248201527f506f6c79676f6e5a6b45564d3a3a666f72636542617463683a204e6f7420656e6044820152696f756768206d6174696360b01b60648201526084016109fa565b620493e083511061336a5760405162461bcd60e51b815260206004820152603560248201527f506f6c79676f6e5a6b45564d3a3a666f72636542617463683a205472616e73616044820152746374696f6e73206279746573206f766572666c6f7760581b60648201526084016109fa565b60655461338990600160581b90046001600160a01b03163330846137e7565b606c5460408051633ed691ef60e01b815290516000926001600160a01b031691633ed691ef9160048083019260209291908290030181865afa1580156133d3573d6000803e3d6000fd5b505050506040513d601f19601f820116820180604052508101906133f7919061573e565b60688054919250600160c01b9091046001600160401b031690601861341b836158bd565b91906101000a8154816001600160401b0302191690836001600160401b03160217905550508380519060200120814260405160200161345c939291906158e3565b60408051808303601f190181529181528151602092830120606854600160c01b90046001600160401b03166000908152606690935291205532330361350057606854604080518381523360208201526060918101829052600091810191909152600160c01b9091046001600160401b0316907ff94bb37db835f1ab585ee00041849a09b12cd081d77fa15ca070757619cbc9319060800160405180910390a261355b565b606860189054906101000a90046001600160401b03166001600160401b03167ff94bb37db835f1ab585ee00041849a09b12cd081d77fa15ca070757619cbc93182338760405161355293929190615c10565b60405180910390a25b50505050565b606a546001600160a01b0316331461358b5760405162461bcd60e51b81526004016109fa90615bb3565b61359b88888888888888886138f2565b606980546001600160401b0319166001600160401b038881169182179092556000908152606d6020526040902085905560725416156135e557607280546001600160801b03191690555b606c546040516333d6247d60e01b8152600481018790526001600160a01b03909116906333d6247d90602401600060405180830381600087803b15801561362b57600080fd5b505af115801561363f573d6000803e3d6000fd5b50506040518681523392506001600160401b03891691507f0c0ce073a7d7b5850c04ccc4b20ee7d3179d5f57d0ac44399565792c0f72fce790602001611e15565b6073546001600160a01b031633146136aa5760405162461bcd60e51b81526004016109fa906157bb565b606a80546001600160a01b0319166001600160a01b0383161790556040517f61f8fec29495a3078e9271456f05fb0707fd4e41f7661865f80fc437d06681ca90610f69908390614e55565b6136fd61378d565b6001600160a01b0381166137625760405162461bcd60e51b815260206004820152602660248201527f4f776e61626c653a206e6577206f776e657220697320746865207a65726f206160448201526564647265737360d01b60648201526084016109fa565b611eda8161421d565b61377361378d565b6001600160401b03166000908152606d6020526040902055565b6033546001600160a01b031633146123b75760405162461bcd60e51b815260206004820181905260248201527f4f776e61626c653a2063616c6c6572206973206e6f7420746865206f776e657260448201526064016109fa565b6040516001600160a01b038085166024830152831660448201526064810182905261355b9085906323b872dd60e01b906084015b60408051601f198184030181529190526020810180516001600160e01b03166001600160e01b03199093169290921790915261495a565b6072546001600160401b03600160401b82048116911611156123b75760725460009061388f90600160401b90046001600160401b03166001615814565b905061389a81611115565b15611eda576072546000906002906138bc9084906001600160401b031661595e565b6138c69190615c43565b6138d09083615814565b90506138db81611115565b156138e9576129cf81613fc9565b6129cf82613fc9565b6000806138fd6129d3565b90506001600160401b038a1615613a63576072546001600160401b03908116908b1611156139b55760405162461bcd60e51b815260206004820152605960248201527f506f6c79676f6e5a6b45564d3a3a5f766572696679426174636865733a20706560448201527f6e64696e6753746174654e756d206d757374206265206c657373206f7220657160648201527875616c207468616e206c61737450656e64696e67537461746560381b608482015260a4016109fa565b6001600160401b03808b1660009081526071602052604090206002810154815490945090918b8116600160401b9092041614613a5d5760405162461bcd60e51b815260206004820152604d6024820152600080516020615e3183398151915260448201527f69744e756d4261746368206d757374206d61746368207468652070656e64696e60648201526c0ce40e6e8c2e8ca40c4c2e8c6d609b1b608482015260a4016109fa565b50613b89565b6001600160401b0389166000908152606d6020526040902054915081613aed5760405162461bcd60e51b815260206004820152604460248201819052600080516020615e31833981519152908201527f69744e756d426174636820737461746520726f6f7420646f6573206e6f7420656064820152631e1a5cdd60e21b608482015260a4016109fa565b806001600160401b0316896001600160401b03161115613b895760405162461bcd60e51b815260206004820152605e6024820152600080516020615e3183398151915260448201527f69744e756d4261746368206d757374206265206c657373206f7220657175616c60648201527f207468616e2063757272656e744c617374566572696669656442617463680000608482015260a4016109fa565b806001600160401b0316886001600160401b031611613c315760405162461bcd60e51b815260206004820152605860248201527f506f6c79676f6e5a6b45564d3a3a5f766572696679426174636865733a20666960448201527f6e616c4e65774261746368206d75737420626520626967676572207468616e206064820152770c6eae4e4cadce898c2e6e8accae4d2ccd2cac884c2e8c6d60431b608482015260a4016109fa565b6000613c408a8a8a868b610f74565b90506000600080516020615e91833981519152600283604051613c639190615722565b602060405180830381855afa158015613c80573d6000803e3d6000fd5b5050506040513d601f19601f82011682018060405250810190613ca3919061573e565b613cad919061576d565b606b546040805160208101825283815290516343753b4d60e01b81529293506001600160a01b03909116916343753b4d91613cf1918b918b918b9190600401615c69565b602060405180830381865afa158015613d0e573d6000803e3d6000fd5b505050506040513d601f19601f82011682018060405250810190613d329190615ce3565b613d925760405162461bcd60e51b815260206004820152602b60248201527f506f6c79676f6e5a6b45564d3a3a5f766572696679426174636865733a20496e60448201526a3b30b634b210383937b7b360a91b60648201526084016109fa565b613dd533613da0858d61595e565b6001600160401b0316613db16126f0565b613dbb919061599d565b606554600160581b90046001600160a01b03169190614a31565b505050505050505050505050565b6000613ded6129d3565b905081600080613dfd848461595e565b6001600160401b031690505b836001600160401b0316836001600160401b031614613eaf576001600160401b03808416600090815260676020526040902060655460018201549192610100909104811691613e59911642615986565b1115613e94576001810154613e7e90600160401b90046001600160401b03168561595e565b613e91906001600160401b031684615b3e565b92505b60010154600160401b90046001600160401b03169250613e09565b6000613ebb8383615986565b905082811015613f35576000613ed18285615986565b9050600c8111613ee15780613ee4565b600c5b9050613ef181600361599d565b613efc90600a615de4565b606554613f15908390600160481b900461ffff16615de4565b607454613f22919061599d565b613f2c9190615ac1565b60745550613fc1565b6000613f418483615986565b9050600c8111613f515780613f54565b600c5b90506000613f6382600361599d565b613f6e90600a615de4565b606554613f87908490600160481b900461ffff16615de4565b607454613f94919061599d565b613f9e9190615ac1565b905080607454607454613fb1919061599d565b613fbb9190615ac1565b60745550505b505050505050565b6001600160401b03811615801590613ff657506072546001600160401b03600160401b9091048116908216115b801561401157506072546001600160401b0390811690821611155b6140835760405162461bcd60e51b815260206004820152603f60248201527f506f6c79676f6e5a6b45564d3a3a5f636f6e736f6c696461746550656e64696e60448201527f6753746174653a2070656e64696e6753746174654e756d20696e76616c69640060648201526084016109fa565b6001600160401b038181166000818152607160209081526040808320805460698054600160401b928390049098166001600160401b0319909816881790556002820154878652606d90945293829020929092556072805467ffffffffffffffff60401b19169390940292909217909255606c54600183015491516333d6247d60e01b815260048101929092529192916001600160a01b0316906333d6247d90602401600060405180830381600087803b15801561413f57600080fd5b505af1158015614153573d6000803e3d6000fd5b50505050826001600160401b0316816001600160401b03167f328d3c6c0fd6f1be0515e422f2d87e59f25922cbc2233568515a0c4bc3f8510e84600201546040516141a091815260200190565b60405180910390a3505050565b600054610100900460ff166142185760405162461bcd60e51b815260206004820152602b60248201527f496e697469616c697a61626c653a20636f6e7472616374206973206e6f74206960448201526a6e697469616c697a696e6760a81b60648201526084016109fa565b6123b7335b603380546001600160a01b038381166001600160a01b0319831681179093556040519116919082907f8be0079c531659141344cd1fd0a4f28419497f9722a3daafe3b4186f6b6457e090600090a35050565b607060009054906101000a90046001600160a01b03166001600160a01b0316632072f6c56040518163ffffffff1660e01b8152600401600060405180830381600087803b1580156142bf57600080fd5b505af11580156142d3573d6000803e3d6000fd5b505050506123b7614a61565b60006001600160401b038a161561444f576072546001600160401b03908116908b1611156143975760405162461bcd60e51b81526020600482015260656024820152600080516020615e5183398151915260448201527f696e6753746174653a2070656e64696e6753746174654e756d206d757374206260648201527f65206c657373206f7220657175616c207468616e206c61737450656e64696e67608482015264537461746560d81b60a482015260c4016109fa565b506001600160401b03808a1660009081526071602052604090206002810154815490928a8116600160401b90920416146144495760405162461bcd60e51b81526020600482015260596024820152600080516020615e5183398151915260448201527f696e6753746174653a20696e69744e756d4261746368206d757374206d6174636064820152780d040e8d0ca40e0cadcc8d2dcce40e6e8c2e8ca40c4c2e8c6d603b1b608482015260a4016109fa565b50614588565b506001600160401b0387166000908152606d6020526040902054806144e35760405162461bcd60e51b81526020600482015260506024820152600080516020615e5183398151915260448201527f696e6753746174653a20696e69744e756d426174636820737461746520726f6f60648201526f1d08191bd95cc81b9bdd08195e1a5cdd60821b608482015260a4016109fa565b6069546001600160401b0390811690891611156145885760405162461bcd60e51b81526020600482015260636024820152600080516020615e5183398151915260448201527f696e6753746174653a20696e69744e756d4261746368206d757374206265206c60648201527f657373206f7220657175616c207468616e206c617374566572696669656442616084820152620e8c6d60eb1b60a482015260c4016109fa565b6072546001600160401b03908116908a16118015906145b85750896001600160401b0316896001600160401b0316115b80156145d957506072546001600160401b03600160401b9091048116908a16115b61464a5760405162461bcd60e51b81526020600482015260486024820152600080516020615e5183398151915260448201527f696e6753746174653a2066696e616c50656e64696e6753746174654e756d20696064820152671b98dbdc9c9958dd60c21b608482015260a4016109fa565b6001600160401b03898116600090815260716020526040902054600160401b90048116908816146147035760405162461bcd60e51b81526020600482015260636024820152600080516020615e5183398151915260448201527f696e6753746174653a2066696e616c4e65774261746368206d7573742062652060648201527f657175616c207468616e2063757272656e744c617374566572696669656442616084820152620e8c6d60eb1b60a482015260c4016109fa565b6000614712898989858a610f74565b90506000600080516020615e918339815191526002836040516147359190615722565b602060405180830381855afa158015614752573d6000803e3d6000fd5b5050506040513d601f19601f82011682018060405250810190614775919061573e565b61477f919061576d565b606b546040805160208101825283815290516343753b4d60e01b81529293506001600160a01b03909116916343753b4d916147c3918a918a918a9190600401615c69565b602060405180830381865afa1580156147e0573d6000803e3d6000fd5b505050506040513d601f19601f820116820180604052508101906148049190615ce3565b61485e5760405162461bcd60e51b81526020600482015260376024820152600080516020615e5183398151915260448201527634b733a9ba30ba329d1024b73b30b634b210383937b7b360491b60648201526084016109fa565b6001600160401b038b16600090815260716020526040902060020154879003613dd55760405162461bcd60e51b815260206004820152605b6024820152600080516020615e5183398151915260448201527f696e6753746174653a2053746f72656420726f6f74206d75737420626520646960648201527f66666572656e74207468616e206e657720737461746520726f6f740000000000608482015260a4016109fa565b60655460ff166149255760405162461bcd60e51b81526004016109fa90615b56565b6065805460ff191690556040517f1e5e34eea33501aecf2ebec9fe0e884a40804275ea7fe10b2ba084c8374308b390600090a1565b60006149af826040518060400160405280602081526020017f5361666545524332303a206c6f772d6c6576656c2063616c6c206661696c6564815250856001600160a01b0316614abc9092919063ffffffff16565b805190915015614a2c57808060200190518101906149cd9190615ce3565b614a2c5760405162461bcd60e51b815260206004820152602a60248201527f5361666545524332303a204552433230206f7065726174696f6e20646964206e6044820152691bdd081cdd58d8d9595960b21b60648201526084016109fa565b505050565b6040516001600160a01b038316602482015260448101829052614a2c90849063a9059cbb60e01b9060640161381b565b60655460ff1615614a845760405162461bcd60e51b81526004016109fa9061583f565b6065805460ff191660011790556040517f2261efe5aef6fedc1fd1550b25facc9181745623049c7901287030b9ad1a549790600090a1565b6060614acb8484600085614ad3565b949350505050565b606082471015614b345760405162461bcd60e51b815260206004820152602660248201527f416464726573733a20696e73756666696369656e742062616c616e636520666f6044820152651c8818d85b1b60d21b60648201526084016109fa565b600080866001600160a01b03168587604051614b509190615722565b60006040518083038185875af1925050503d8060008114614b8d576040519150601f19603f3d011682016040523d82523d6000602084013e614b92565b606091505b5091509150614ba387838387614bae565b979650505050505050565b60608315614c1d578251600003614c16576001600160a01b0385163b614c165760405162461bcd60e51b815260206004820152601d60248201527f416464726573733a2063616c6c20746f206e6f6e2d636f6e747261637400000060448201526064016109fa565b5081614acb565b614acb8383815115614c325781518083602001fd5b8060405162461bcd60e51b81526004016109fa9190614d15565b80356001600160401b0381168114614c6357600080fd5b919050565b600080600080600060a08688031215614c8057600080fd5b614c8986614c4c565b9450614c9760208701614c4c565b9350614ca560408701614c4c565b94979396509394606081013594506080013592915050565b60005b83811015614cd8578181015183820152602001614cc0565b8381111561355b5750506000910152565b60008151808452614d01816020860160208601614cbd565b601f01601f19169290920160200192915050565b602081526000614d286020830184614ce9565b9392505050565b8060408101831015614d4057600080fd5b92915050565b8060808101831015614d4057600080fd5b6000806000806000806000806101a0898b031215614d7457600080fd5b614d7d89614c4c565b9750614d8b60208a01614c4c565b9650614d9960408a01614c4c565b95506060890135945060808901359350614db68a60a08b01614d2f565b9250614dc58a60e08b01614d46565b9150614dd58a6101608b01614d2f565b90509295985092959890939650565b600060208284031215614df657600080fd5b813561ffff81168114614d2857600080fd5b600080600080600060a08688031215614e2057600080fd5b614e2986614c4c565b9450614e3760208701614c4c565b94979496505050506040830135926060810135926080909101359150565b6001600160a01b0391909116815260200190565b600060208284031215614e7b57600080fd5b614d2882614c4c565b634e487b7160e01b600052604160045260246000fd5b604051608081016001600160401b0381118282101715614ebc57614ebc614e84565b60405290565b604051606081016001600160401b0381118282101715614ebc57614ebc614e84565b604051601f8201601f191681016001600160401b0381118282101715614f0c57614f0c614e84565b604052919050565b60006001600160401b03821115614f2d57614f2d614e84565b5060051b60200190565b600082601f830112614f4857600080fd5b81356001600160401b03811115614f6157614f61614e84565b614f74601f8201601f1916602001614ee4565b818152846020838601011115614f8957600080fd5b816020850160208301376000918101602001919091529392505050565b60006020808385031215614fb957600080fd5b82356001600160401b0380821115614fd057600080fd5b818501915085601f830112614fe457600080fd5b8135614ff7614ff282614f14565b614ee4565b81815260059190911b8301840190848101908883111561501657600080fd5b8585015b838110156150af578035858111156150325760008081fd5b86016080818c03601f190181131561504a5760008081fd5b615052614e9a565b89830135888111156150645760008081fd5b6150728e8c83870101614f37565b8252506040808401358b830152606061508c818601614c4c565b8284015261509b848601614c4c565b90830152508552505091860191860161501a565b5098975050505050505050565b6001600160a01b0381168114611eda57600080fd5b6000602082840312156150e357600080fd5b8135614d28816150bc565b600080600080600060a0868803121561510657600080fd5b8535945060208601356001600160401b0381111561512357600080fd5b61512f88828901614f37565b9450506040860135925061514560608701614c4c565b91506080860135615155816150bc565b809150509295509295909350565b600080600080600080600080888a036101c081121561518157600080fd5b893561518c816150bc565b985060208a013561519c816150bc565b975060408a01356151ac816150bc565b965060608a01356151bc816150bc565b955060e0607f19820112156151d057600080fd5b5060808901935061016089013592506101808901356001600160401b03808211156151fa57600080fd5b6152068c838d01614f37565b93506101a08b013591508082111561521d57600080fd5b5061522a8b828c01614f37565b9150509295985092959890939650565b60008060008060008060008060006101c08a8c03121561525957600080fd5b6152628a614c4c565b985061527060208b01614c4c565b975061527e60408b01614c4c565b965061528c60608b01614c4c565b955060808a0135945060a08a013593506152a98b60c08c01614d2f565b92506152b98b6101008c01614d46565b91506152c98b6101808c01614d2f565b90509295985092959850929598565b6000602082840312156152ea57600080fd5b5035919050565b8015158114611eda57600080fd5b60006020828403121561531157600080fd5b8135614d28816152f1565b60006020828403121561532e57600080fd5b81356001600160401b0381111561534457600080fd5b614acb84828501614f37565b6000602080838503121561536357600080fd5b82356001600160401b038082111561537a57600080fd5b818501915085601f83011261538e57600080fd5b813561539c614ff282614f14565b81815260059190911b830184019084810190888311156153bb57600080fd5b8585015b838110156150af578035858111156153d75760008081fd5b86016060818c03601f19018113156153ef5760008081fd5b6153f7614ec2565b89830135888111156154095760008081fd5b6154178e8c83870101614f37565b8252506040808401358b83015261542f838501614c4c565b90820152855250509186019186016153bf565b6000806000806080858703121561545857600080fd5b61546185614c4c565b93506020850135925061547660408601614c4c565b915061548460608601614c4c565b905092959194509250565b600080604083850312156154a257600080fd5b82356001600160401b038111156154b857600080fd5b6154c485828601614f37565b95602094909401359450505050565b600080604083850312156154e657600080fd5b823591506154f660208401614c4c565b90509250929050565b60208082526058908201527f506f6c79676f6e5a6b45564d3a3a766572696679426174636865733a2070656e60408201527f64696e6753746174654e756d206d757374206265206c657373206f7220657175606082015277616c207468616e206c61737450656e64696e67537461746560401b608082015260a00190565b6020808252604c90820152600080516020615df183398151915260408201527f744e756d4261746368206d757374206d61746368207468652070656e64696e6760608201526b040e6e8c2e8ca40c4c2e8c6d60a31b608082015260a00190565b6020808252604390820152600080516020615df183398151915260408201527f744e756d426174636820737461746520726f6f7420646f6573206e6f742065786060820152621a5cdd60ea1b608082015260a00190565b6020808252605d90820152600080516020615df183398151915260408201527f744e756d4261746368206d757374206265206c657373206f7220657175616c2060608201527f7468616e2063757272656e744c61737456657269666965644261746368000000608082015260a00190565b60208082526057908201527f506f6c79676f6e5a6b45564d3a3a766572696679426174636865733a2066696e60408201527f616c4e65774261746368206d75737420626520626967676572207468616e20636060820152760eae4e4cadce898c2e6e8accae4d2ccd2cac884c2e8c6d604b1b608082015260a00190565b60008251615734818460208701614cbd565b9190910192915050565b60006020828403121561575057600080fd5b5051919050565b634e487b7160e01b600052601260045260246000fd5b60008261577c5761577c615757565b500690565b600181811c9082168061579557607f821691505b6020821081036157b557634e487b7160e01b600052602260045260246000fd5b50919050565b60208082526023908201527f506f6c79676f6e5a6b45564d3a3a6f6e6c7941646d696e3a204f6e6c7920616460408201526236b4b760e91b606082015260800190565b634e487b7160e01b600052601160045260246000fd5b60006001600160401b03808316818516808303821115615836576158366157fe565b01949350505050565b60208082526042908201527f456d657267656e63794d616e616765723a3a69664e6f74456d657267656e637960408201527f53746174653a206f6e6c79206966206e6f7420656d657267656e637920737461606082015261746560f01b608082015260a00190565b634e487b7160e01b600052603260045260246000fd5b60006001600160401b038083168181036158d9576158d96157fe565b6001019392505050565b928352602083019190915260c01b6001600160c01b031916604082015260480190565b9485526020850193909352604084019190915260c01b6001600160c01b0319166060808401919091521b6001600160601b0319166068820152607c0190565b600060018201615957576159576157fe565b5060010190565b60006001600160401b038381169083168181101561597e5761597e6157fe565b039392505050565b600082821015615998576159986157fe565b500390565b60008160001904831182151516156159b7576159b76157fe565b500290565b601f821115614a2c57600081815260208120601f850160051c810160208610156159e35750805b601f850160051c820191505b81811015613fc1578281556001016159ef565b81516001600160401b03811115615a1b57615a1b614e84565b615a2f81615a298454615781565b846159bc565b602080601f831160018114615a645760008415615a4c5750858301515b600019600386901b1c1916600185901b178555613fc1565b600085815260208120601f198616915b82811015615a9357888601518255948401946001909101908401615a74565b5085821015615ab15787850151600019600388901b60f8161c191681555b5050505050600190811b01905550565b600082615ad057615ad0615757565b500490565b60208082526043908201527f506f6c79676f6e5a6b45564d3a3a6973466f7263654261746368416c6c6f776560408201527f643a204f6e6c7920696620666f72636520626174636820697320617661696c61606082015262626c6560e81b608082015260a00190565b60008219821115615b5157615b516157fe565b500190565b6020808252603b908201527f456d657267656e63794d616e616765723a3a6966456d657267656e637953746160408201527f74653a206f6e6c7920696620656d657267656e63792073746174650000000000606082015260800190565b6020808252603c908201527f506f6c79676f6e5a6b45564d3a3a6f6e6c79547275737465644167677265676160408201527f746f723a204f6e6c7920747275737465642061676772656761746f7200000000606082015260800190565b8381526001600160a01b0383166020820152606060408201819052600090615c3a90830184614ce9565b95945050505050565b60006001600160401b0380841680615c5d57615c5d615757565b92169190910492915050565b61012081016040808784376000838201818152879190815b6002811015615ca157848483379084018281529284019290600101615c81565b5050828760c0870137610100850181815286935091505b6001811015615cd7578251825260209283019290910190600101615cb8565b50505095945050505050565b600060208284031215615cf557600080fd5b8151614d28816152f1565b600181815b80851115615d3b578160001904821115615d2157615d216157fe565b80851615615d2e57918102915b93841c9390800290615d05565b509250929050565b600082615d5257506001614d40565b81615d5f57506000614d40565b8160018114615d755760028114615d7f57615d9b565b6001915050614d40565b60ff841115615d9057615d906157fe565b50506001821b614d40565b5060208310610133831016604e8410600b8410161715615dbe575081810a614d40565b615dc88383615d00565b8060001904821115615ddc57615ddc6157fe565b029392505050565b6000614d288383615d4356fe506f6c79676f6e5a6b45564d3a3a766572696679426174636865733a20696e69506f6c79676f6e5a6b45564d3a3a6163746976617465456d657267656e637953506f6c79676f6e5a6b45564d3a3a5f766572696679426174636865733a20696e506f6c79676f6e5a6b45564d3a3a5f70726f766544697374696e637450656e64506f6c79676f6e5a6b45564d3a3a73657175656e6365466f726365426174636830644e72e131a029b85045b68181585d2833e84879b9709143e1f593f0000001506f6c79676f6e5a6b45564d3a3a73657175656e6365426174636865733a2046a2646970667358221220167a8f9be9686096974434bdb06f09cd7d4921d903936f91eb32d732ac4f1e6564736f6c634300080f0033",
  "linkReferences": {},
  "deployedLinkReferences": {}
}