{
  "_format": "hh-sol-artifact-1",
  "contractName": "PolygonRollupManagerMock",
  "sourceName": "contracts/v2/mocks/PolygonRollupManagerMock.sol",
  "abi": [
    {
      "inputs": [
        {
          "internalType": "contract IPolygonZkEVMGlobalExitRootV2",
          "name": "_globalExitRootManager",
          "type": "address"
        },
        {
          "internalType": "contract IERC20Upgradeable",
          "name": "_pol",
          "type": "address"
        },
        {
          "internalType": "contract IPolygonZkEVMBridge",
          "name": "_bridgeAddress",
          "type": "address"
        }
      ],
      "stateMutability": "nonpayable",
      "type": "constructor"
    },
    {
      "inputs": [],
      "name": "AccessControlOnlyCanRenounceRolesForSelf",
      "type": "error"
    },
    {
      "inputs": [],
      "name": "AddressDoNotHaveRequiredRole",
      "type": "error"
    },
    {
      "inputs": [],
      "name": "AllzkEVMSequencedBatchesMustBeVerified",
      "type": "error"
    },
    {
      "inputs": [],
      "name": "BatchFeeOutOfRange",
      "type": "error"
    },
    {
      "inputs": [],
      "name": "ChainIDAlreadyExist",
      "type": "error"
    },
    {
      "inputs": [],
      "name": "ExceedMaxVerifyBatches",
      "type": "error"
    },
    {
      "inputs": [],
      "name": "FinalNumBatchBelowLastVerifiedBatch",
      "type": "error"
    },
    {
      "inputs": [],
      "name": "FinalNumBatchDoesNotMatchPendingState",
      "type": "error"
    },
    {
      "inputs": [],
      "name": "FinalPendingStateNumInvalid",
      "type": "error"
    },
    {
      "inputs": [],
      "name": "HaltTimeoutNotExpired",
      "type": "error"
    },
    {
      "inputs": [],
      "name": "InitBatchMustMatchCurrentForkID",
      "type": "error"
    },
    {
      "inputs": [],
      "name": "InitNumBatchAboveLastVerifiedBatch",
      "type": "error"
    },
    {
      "inputs": [],
      "name": "InitNumBatchDoesNotMatchPendingState",
      "type": "error"
    },
    {
      "inputs": [],
      "name": "InvalidProof",
      "type": "error"
    },
    {
      "inputs": [],
      "name": "InvalidRangeBatchTimeTarget",
      "type": "error"
    },
    {
      "inputs": [],
      "name": "InvalidRangeMultiplierBatchFee",
      "type": "error"
    },
    {
      "inputs": [],
      "name": "MustSequenceSomeBatch",
      "type": "error"
    },
    {
      "inputs": [],
      "name": "NewAccInputHashDoesNotExist",
      "type": "error"
    },
    {
      "inputs": [],
      "name": "NewPendingStateTimeoutMustBeLower",
      "type": "error"
    },
    {
      "inputs": [],
      "name": "NewStateRootNotInsidePrime",
      "type": "error"
    },
    {
      "inputs": [],
      "name": "NewTrustedAggregatorTimeoutMustBeLower",
      "type": "error"
    },
    {
      "inputs": [],
      "name": "OldAccInputHashDoesNotExist",
      "type": "error"
    },
    {
      "inputs": [],
      "name": "OldStateRootDoesNotExist",
      "type": "error"
    },
    {
      "inputs": [],
      "name": "OnlyEmergencyState",
      "type": "error"
    },
    {
      "inputs": [],
      "name": "OnlyNotEmergencyState",
      "type": "error"
    },
    {
      "inputs": [],
      "name": "PendingStateDoesNotExist",
      "type": "error"
    },
    {
      "inputs": [],
      "name": "PendingStateInvalid",
      "type": "error"
    },
    {
      "inputs": [],
      "name": "PendingStateNotConsolidable",
      "type": "error"
    },
    {
      "inputs": [],
      "name": "RollupAddressAlreadyExist",
      "type": "error"
    },
    {
      "inputs": [],
      "name": "RollupMustExist",
      "type": "error"
    },
    {
      "inputs": [],
      "name": "RollupTypeDoesNotExist",
      "type": "error"
    },
    {
      "inputs": [],
      "name": "RollupTypeObsolete",
      "type": "error"
    },
    {
      "inputs": [],
      "name": "SenderMustBeRollup",
      "type": "error"
    },
    {
      "inputs": [],
      "name": "StoredRootMustBeDifferentThanNewRoot",
      "type": "error"
    },
    {
      "inputs": [],
      "name": "TrustedAggregatorTimeoutNotExpired",
      "type": "error"
    },
    {
      "inputs": [],
      "name": "UpdateNotCompatible",
      "type": "error"
    },
    {
      "inputs": [],
      "name": "UpdateToSameRollupTypeID",
      "type": "error"
    },
    {
      "anonymous": false,
      "inputs": [
        {
          "indexed": true,
          "internalType": "uint32",
          "name": "rollupID",
          "type": "uint32"
        },
        {
          "indexed": false,
          "internalType": "uint64",
          "name": "forkID",
          "type": "uint64"
        },
        {
          "indexed": false,
          "internalType": "address",
          "name": "rollupAddress",
          "type": "address"
        },
        {
          "indexed": false,
          "internalType": "uint64",
          "name": "chainID",
          "type": "uint64"
        },
        {
          "indexed": false,
          "internalType": "uint8",
          "name": "rollupCompatibilityID",
          "type": "uint8"
        },
        {
          "indexed": false,
          "internalType": "uint64",
          "name": "lastVerifiedBatchBeforeUpgrade",
          "type": "uint64"
        }
      ],
      "name": "AddExistingRollup",
      "type": "event"
    },
    {
      "anonymous": false,
      "inputs": [
        {
          "indexed": true,
          "internalType": "uint32",
          "name": "rollupTypeID",
          "type": "uint32"
        },
        {
          "indexed": false,
          "internalType": "address",
          "name": "consensusImplementation",
          "type": "address"
        },
        {
          "indexed": false,
          "internalType": "address",
          "name": "verifier",
          "type": "address"
        },
        {
          "indexed": false,
          "internalType": "uint64",
          "name": "forkID",
          "type": "uint64"
        },
        {
          "indexed": false,
          "internalType": "uint8",
          "name": "rollupCompatibilityID",
          "type": "uint8"
        },
        {
          "indexed": false,
          "internalType": "bytes32",
          "name": "genesis",
          "type": "bytes32"
        },
        {
          "indexed": false,
          "internalType": "string",
          "name": "description",
          "type": "string"
        }
      ],
      "name": "AddNewRollupType",
      "type": "event"
    },
    {
      "anonymous": false,
      "inputs": [
        {
          "indexed": true,
          "internalType": "uint32",
          "name": "rollupID",
          "type": "uint32"
        },
        {
          "indexed": false,
          "internalType": "uint64",
          "name": "numBatch",
          "type": "uint64"
        },
        {
          "indexed": false,
          "internalType": "bytes32",
          "name": "stateRoot",
          "type": "bytes32"
        },
        {
          "indexed": false,
          "internalType": "bytes32",
          "name": "exitRoot",
          "type": "bytes32"
        },
        {
          "indexed": false,
          "internalType": "uint64",
          "name": "pendingStateNum",
          "type": "uint64"
        }
      ],
      "name": "ConsolidatePendingState",
      "type": "event"
    },
    {
      "anonymous": false,
      "inputs": [
        {
          "indexed": true,
          "internalType": "uint32",
          "name": "rollupID",
          "type": "uint32"
        },
        {
          "indexed": false,
          "internalType": "uint32",
          "name": "rollupTypeID",
          "type": "uint32"
        },
        {
          "indexed": false,
          "internalType": "address",
          "name": "rollupAddress",
          "type": "address"
        },
        {
          "indexed": false,
          "internalType": "uint64",
          "name": "chainID",
          "type": "uint64"
        },
        {
          "indexed": false,
          "internalType": "address",
          "name": "gasTokenAddress",
          "type": "address"
        }
      ],
      "name": "CreateNewRollup",
      "type": "event"
    },
    {
      "anonymous": false,
      "inputs": [],
      "name": "EmergencyStateActivated",
      "type": "event"
    },
    {
      "anonymous": false,
      "inputs": [],
      "name": "EmergencyStateDeactivated",
      "type": "event"
    },
    {
      "anonymous": false,
      "inputs": [
        {
          "indexed": false,
          "internalType": "uint8",
          "name": "version",
          "type": "uint8"
        }
      ],
      "name": "Initialized",
      "type": "event"
    },
    {
      "anonymous": false,
      "inputs": [
        {
          "indexed": true,
          "internalType": "uint32",
          "name": "rollupTypeID",
          "type": "uint32"
        }
      ],
      "name": "ObsoleteRollupType",
      "type": "event"
    },
    {
      "anonymous": false,
      "inputs": [
        {
          "indexed": true,
          "internalType": "uint32",
          "name": "rollupID",
          "type": "uint32"
        },
        {
          "indexed": false,
          "internalType": "uint64",
          "name": "lastBatchSequenced",
          "type": "uint64"
        }
      ],
      "name": "OnSequenceBatches",
      "type": "event"
    },
    {
      "anonymous": false,
      "inputs": [
        {
          "indexed": true,
          "internalType": "uint32",
          "name": "rollupID",
          "type": "uint32"
        },
        {
          "indexed": false,
          "internalType": "uint64",
          "name": "numBatch",
          "type": "uint64"
        },
        {
          "indexed": false,
          "internalType": "bytes32",
          "name": "stateRoot",
          "type": "bytes32"
        },
        {
          "indexed": false,
          "internalType": "bytes32",
          "name": "exitRoot",
          "type": "bytes32"
        },
        {
          "indexed": false,
          "internalType": "address",
          "name": "aggregator",
          "type": "address"
        }
      ],
      "name": "OverridePendingState",
      "type": "event"
    },
    {
      "anonymous": false,
      "inputs": [
        {
          "indexed": false,
          "internalType": "bytes32",
          "name": "storedStateRoot",
          "type": "bytes32"
        },
        {
          "indexed": false,
          "internalType": "bytes32",
          "name": "provedStateRoot",
          "type": "bytes32"
        }
      ],
      "name": "ProveNonDeterministicPendingState",
      "type": "event"
    },
    {
      "anonymous": false,
      "inputs": [
        {
          "indexed": true,
          "internalType": "bytes32",
          "name": "role",
          "type": "bytes32"
        },
        {
          "indexed": true,
          "internalType": "bytes32",
          "name": "previousAdminRole",
          "type": "bytes32"
        },
        {
          "indexed": true,
          "internalType": "bytes32",
          "name": "newAdminRole",
          "type": "bytes32"
        }
      ],
      "name": "RoleAdminChanged",
      "type": "event"
    },
    {
      "anonymous": false,
      "inputs": [
        {
          "indexed": true,
          "internalType": "bytes32",
          "name": "role",
          "type": "bytes32"
        },
        {
          "indexed": true,
          "internalType": "address",
          "name": "account",
          "type": "address"
        },
        {
          "indexed": true,
          "internalType": "address",
          "name": "sender",
          "type": "address"
        }
      ],
      "name": "RoleGranted",
      "type": "event"
    },
    {
      "anonymous": false,
      "inputs": [
        {
          "indexed": true,
          "internalType": "bytes32",
          "name": "role",
          "type": "bytes32"
        },
        {
          "indexed": true,
          "internalType": "address",
          "name": "account",
          "type": "address"
        },
        {
          "indexed": true,
          "internalType": "address",
          "name": "sender",
          "type": "address"
        }
      ],
      "name": "RoleRevoked",
      "type": "event"
    },
    {
      "anonymous": false,
      "inputs": [
        {
          "indexed": false,
          "internalType": "uint256",
          "name": "newBatchFee",
          "type": "uint256"
        }
      ],
      "name": "SetBatchFee",
      "type": "event"
    },
    {
      "anonymous": false,
      "inputs": [
        {
          "indexed": false,
          "internalType": "uint16",
          "name": "newMultiplierBatchFee",
          "type": "uint16"
        }
      ],
      "name": "SetMultiplierBatchFee",
      "type": "event"
    },
    {
      "anonymous": false,
      "inputs": [
        {
          "indexed": false,
          "internalType": "uint64",
          "name": "newPendingStateTimeout",
          "type": "uint64"
        }
      ],
      "name": "SetPendingStateTimeout",
      "type": "event"
    },
    {
      "anonymous": false,
      "inputs": [
        {
          "indexed": false,
          "internalType": "address",
          "name": "newTrustedAggregator",
          "type": "address"
        }
      ],
      "name": "SetTrustedAggregator",
      "type": "event"
    },
    {
      "anonymous": false,
      "inputs": [
        {
          "indexed": false,
          "internalType": "uint64",
          "name": "newTrustedAggregatorTimeout",
          "type": "uint64"
        }
      ],
      "name": "SetTrustedAggregatorTimeout",
      "type": "event"
    },
    {
      "anonymous": false,
      "inputs": [
        {
          "indexed": false,
          "internalType": "uint64",
          "name": "newVerifyBatchTimeTarget",
          "type": "uint64"
        }
      ],
      "name": "SetVerifyBatchTimeTarget",
      "type": "event"
    },
    {
      "anonymous": false,
      "inputs": [
        {
          "indexed": true,
          "internalType": "uint32",
          "name": "rollupID",
          "type": "uint32"
        },
        {
          "indexed": false,
          "internalType": "uint32",
          "name": "newRollupTypeID",
          "type": "uint32"
        },
        {
          "indexed": false,
          "internalType": "uint64",
          "name": "lastVerifiedBatchBeforeUpgrade",
          "type": "uint64"
        }
      ],
      "name": "UpdateRollup",
      "type": "event"
    },
    {
      "anonymous": false,
      "inputs": [
        {
          "indexed": true,
          "internalType": "uint32",
          "name": "rollupID",
          "type": "uint32"
        },
        {
          "indexed": false,
          "internalType": "uint64",
          "name": "numBatch",
          "type": "uint64"
        },
        {
          "indexed": false,
          "internalType": "bytes32",
          "name": "stateRoot",
          "type": "bytes32"
        },
        {
          "indexed": false,
          "internalType": "bytes32",
          "name": "exitRoot",
          "type": "bytes32"
        },
        {
          "indexed": true,
          "internalType": "address",
          "name": "aggregator",
          "type": "address"
        }
      ],
      "name": "VerifyBatches",
      "type": "event"
    },
    {
      "anonymous": false,
      "inputs": [
        {
          "indexed": true,
          "internalType": "uint32",
          "name": "rollupID",
          "type": "uint32"
        },
        {
          "indexed": false,
          "internalType": "uint64",
          "name": "numBatch",
          "type": "uint64"
        },
        {
          "indexed": false,
          "internalType": "bytes32",
          "name": "stateRoot",
          "type": "bytes32"
        },
        {
          "indexed": false,
          "internalType": "bytes32",
          "name": "exitRoot",
          "type": "bytes32"
        },
        {
          "indexed": true,
          "internalType": "address",
          "name": "aggregator",
          "type": "address"
        }
      ],
      "name": "VerifyBatchesTrustedAggregator",
      "type": "event"
    },
    {
      "inputs": [],
      "name": "DEFAULT_ADMIN_ROLE",
      "outputs": [
        {
          "internalType": "bytes32",
          "name": "",
          "type": "bytes32"
        }
      ],
      "stateMutability": "view",
      "type": "function"
    },
    {
      "inputs": [],
      "name": "activateEmergencyState",
      "outputs": [],
      "stateMutability": "nonpayable",
      "type": "function"
    },
    {
      "inputs": [
        {
          "internalType": "contract IPolygonRollupBase",
          "name": "rollupAddress",
          "type": "address"
        },
        {
          "internalType": "contract IVerifierRollup",
          "name": "verifier",
          "type": "address"
        },
        {
          "internalType": "uint64",
          "name": "forkID",
          "type": "uint64"
        },
        {
          "internalType": "uint64",
          "name": "chainID",
          "type": "uint64"
        },
        {
          "internalType": "bytes32",
          "name": "genesis",
          "type": "bytes32"
        },
        {
          "internalType": "uint8",
          "name": "rollupCompatibilityID",
          "type": "uint8"
        }
      ],
      "name": "addExistingRollup",
      "outputs": [],
      "stateMutability": "nonpayable",
      "type": "function"
    },
    {
      "inputs": [
        {
          "internalType": "address",
          "name": "consensusImplementation",
          "type": "address"
        },
        {
          "internalType": "contract IVerifierRollup",
          "name": "verifier",
          "type": "address"
        },
        {
          "internalType": "uint64",
          "name": "forkID",
          "type": "uint64"
        },
        {
          "internalType": "uint8",
          "name": "rollupCompatibilityID",
          "type": "uint8"
        },
        {
          "internalType": "bytes32",
          "name": "genesis",
          "type": "bytes32"
        },
        {
          "internalType": "string",
          "name": "description",
          "type": "string"
        }
      ],
      "name": "addNewRollupType",
      "outputs": [],
      "stateMutability": "nonpayable",
      "type": "function"
    },
    {
      "inputs": [],
      "name": "bridgeAddress",
      "outputs": [
        {
          "internalType": "contract IPolygonZkEVMBridge",
          "name": "",
          "type": "address"
        }
      ],
      "stateMutability": "view",
      "type": "function"
    },
    {
      "inputs": [],
      "name": "calculateRewardPerBatch",
      "outputs": [
        {
          "internalType": "uint256",
          "name": "",
          "type": "uint256"
        }
      ],
      "stateMutability": "view",
      "type": "function"
    },
    {
      "inputs": [
        {
          "internalType": "uint64",
          "name": "chainID",
          "type": "uint64"
        }
      ],
      "name": "chainIDToRollupID",
      "outputs": [
        {
          "internalType": "uint32",
          "name": "rollupID",
          "type": "uint32"
        }
      ],
      "stateMutability": "view",
      "type": "function"
    },
    {
      "inputs": [
        {
          "internalType": "uint32",
          "name": "rollupID",
          "type": "uint32"
        },
        {
          "internalType": "uint64",
          "name": "pendingStateNum",
          "type": "uint64"
        }
      ],
      "name": "consolidatePendingState",
      "outputs": [],
      "stateMutability": "nonpayable",
      "type": "function"
    },
    {
      "inputs": [
        {
          "internalType": "uint32",
          "name": "rollupTypeID",
          "type": "uint32"
        },
        {
          "internalType": "uint64",
          "name": "chainID",
          "type": "uint64"
        },
        {
          "internalType": "address",
          "name": "admin",
          "type": "address"
        },
        {
          "internalType": "address",
          "name": "sequencer",
          "type": "address"
        },
        {
          "internalType": "address",
          "name": "gasTokenAddress",
          "type": "address"
        },
        {
          "internalType": "string",
          "name": "sequencerURL",
          "type": "string"
        },
        {
          "internalType": "string",
          "name": "networkName",
          "type": "string"
        }
      ],
      "name": "createNewRollup",
      "outputs": [],
      "stateMutability": "nonpayable",
      "type": "function"
    },
    {
      "inputs": [],
      "name": "deactivateEmergencyState",
      "outputs": [],
      "stateMutability": "nonpayable",
      "type": "function"
    },
    {
      "inputs": [],
      "name": "getBatchFee",
      "outputs": [
        {
          "internalType": "uint256",
          "name": "",
          "type": "uint256"
        }
      ],
      "stateMutability": "view",
      "type": "function"
    },
    {
      "inputs": [],
      "name": "getForcedBatchFee",
      "outputs": [
        {
          "internalType": "uint256",
          "name": "",
          "type": "uint256"
        }
      ],
      "stateMutability": "view",
      "type": "function"
    },
    {
      "inputs": [
        {
          "internalType": "uint32",
          "name": "rollupID",
          "type": "uint32"
        },
        {
          "internalType": "uint64",
          "name": "initNumBatch",
          "type": "uint64"
        },
        {
          "internalType": "uint64",
          "name": "finalNewBatch",
          "type": "uint64"
        },
        {
          "internalType": "bytes32",
          "name": "newLocalExitRoot",
          "type": "bytes32"
        },
        {
          "internalType": "bytes32",
          "name": "oldStateRoot",
          "type": "bytes32"
        },
        {
          "internalType": "bytes32",
          "name": "newStateRoot",
          "type": "bytes32"
        }
      ],
      "name": "getInputSnarkBytes",
      "outputs": [
        {
          "internalType": "bytes",
          "name": "",
          "type": "bytes"
        }
      ],
      "stateMutability": "view",
      "type": "function"
    },
    {
      "inputs": [
        {
          "internalType": "uint32",
          "name": "rollupID",
          "type": "uint32"
        }
      ],
      "name": "getLastVerifiedBatch",
      "outputs": [
        {
          "internalType": "uint64",
          "name": "",
          "type": "uint64"
        }
      ],
      "stateMutability": "view",
      "type": "function"
    },
    {
      "inputs": [
        {
          "internalType": "bytes32",
          "name": "role",
          "type": "bytes32"
        }
      ],
      "name": "getRoleAdmin",
      "outputs": [
        {
          "internalType": "bytes32",
          "name": "",
          "type": "bytes32"
        }
      ],
      "stateMutability": "view",
      "type": "function"
    },
    {
      "inputs": [
        {
          "internalType": "uint32",
          "name": "rollupID",
          "type": "uint32"
        },
        {
          "internalType": "uint64",
          "name": "batchNum",
          "type": "uint64"
        }
      ],
      "name": "getRollupBatchNumToStateRoot",
      "outputs": [
        {
          "internalType": "bytes32",
          "name": "",
          "type": "bytes32"
        }
      ],
      "stateMutability": "view",
      "type": "function"
    },
    {
      "inputs": [],
      "name": "getRollupExitRoot",
      "outputs": [
        {
          "internalType": "bytes32",
          "name": "",
          "type": "bytes32"
        }
      ],
      "stateMutability": "view",
      "type": "function"
    },
    {
      "inputs": [
        {
          "internalType": "uint32",
          "name": "rollupID",
          "type": "uint32"
        },
        {
          "internalType": "uint64",
          "name": "batchNum",
          "type": "uint64"
        }
      ],
      "name": "getRollupPendingStateTransitions",
      "outputs": [
        {
          "components": [
            {
              "internalType": "uint64",
              "name": "timestamp",
              "type": "uint64"
            },
            {
              "internalType": "uint64",
              "name": "lastVerifiedBatch",
              "type": "uint64"
            },
            {
              "internalType": "bytes32",
              "name": "exitRoot",
              "type": "bytes32"
            },
            {
              "internalType": "bytes32",
              "name": "stateRoot",
              "type": "bytes32"
            }
          ],
          "internalType": "struct LegacyZKEVMStateVariables.PendingState",
          "name": "",
          "type": "tuple"
        }
      ],
      "stateMutability": "view",
      "type": "function"
    },
    {
      "inputs": [
        {
          "internalType": "uint32",
          "name": "rollupID",
          "type": "uint32"
        },
        {
          "internalType": "uint64",
          "name": "batchNum",
          "type": "uint64"
        }
      ],
      "name": "getRollupSequencedBatches",
      "outputs": [
        {
          "components": [
            {
              "internalType": "bytes32",
              "name": "accInputHash",
              "type": "bytes32"
            },
            {
              "internalType": "uint64",
              "name": "sequencedTimestamp",
              "type": "uint64"
            },
            {
              "internalType": "uint64",
              "name": "previousLastBatchSequenced",
              "type": "uint64"
            }
          ],
          "internalType": "struct LegacyZKEVMStateVariables.SequencedBatchData",
          "name": "",
          "type": "tuple"
        }
      ],
      "stateMutability": "view",
      "type": "function"
    },
    {
      "inputs": [],
      "name": "globalExitRootManager",
      "outputs": [
        {
          "internalType": "contract IPolygonZkEVMGlobalExitRootV2",
          "name": "",
          "type": "address"
        }
      ],
      "stateMutability": "view",
      "type": "function"
    },
    {
      "inputs": [
        {
          "internalType": "bytes32",
          "name": "role",
          "type": "bytes32"
        },
        {
          "internalType": "address",
          "name": "account",
          "type": "address"
        }
      ],
      "name": "grantRole",
      "outputs": [],
      "stateMutability": "nonpayable",
      "type": "function"
    },
    {
      "inputs": [
        {
          "internalType": "bytes32",
          "name": "role",
          "type": "bytes32"
        },
        {
          "internalType": "address",
          "name": "account",
          "type": "address"
        }
      ],
      "name": "hasRole",
      "outputs": [
        {
          "internalType": "bool",
          "name": "",
          "type": "bool"
        }
      ],
      "stateMutability": "view",
      "type": "function"
    },
    {
      "inputs": [
        {
          "internalType": "address",
          "name": "trustedAggregator",
          "type": "address"
        },
        {
          "internalType": "uint64",
          "name": "_pendingStateTimeout",
          "type": "uint64"
        },
        {
          "internalType": "uint64",
          "name": "_trustedAggregatorTimeout",
          "type": "uint64"
        },
        {
          "internalType": "address",
          "name": "admin",
          "type": "address"
        },
        {
          "internalType": "address",
          "name": "timelock",
          "type": "address"
        },
        {
          "internalType": "address",
          "name": "emergencyCouncil",
          "type": "address"
        },
        {
          "internalType": "contract PolygonZkEVMV2Existent",
          "name": "polygonZkEVM",
          "type": "address"
        },
        {
          "internalType": "contract IVerifierRollup",
          "name": "zkEVMVerifier",
          "type": "address"
        },
        {
          "internalType": "uint64",
          "name": "zkEVMForkID",
          "type": "uint64"
        },
        {
          "internalType": "uint64",
          "name": "zkEVMChainID",
          "type": "uint64"
        }
      ],
      "name": "initialize",
      "outputs": [],
      "stateMutability": "nonpayable",
      "type": "function"
    },
    {
      "inputs": [
        {
          "internalType": "address",
          "name": "trustedAggregator",
          "type": "address"
        },
        {
          "internalType": "uint64",
          "name": "_pendingStateTimeout",
          "type": "uint64"
        },
        {
          "internalType": "uint64",
          "name": "_trustedAggregatorTimeout",
          "type": "uint64"
        },
        {
          "internalType": "address",
          "name": "admin",
          "type": "address"
        },
        {
          "internalType": "address",
          "name": "timelock",
          "type": "address"
        },
        {
          "internalType": "address",
          "name": "emergencyCouncil",
          "type": "address"
        }
      ],
      "name": "initializeMock",
      "outputs": [],
      "stateMutability": "nonpayable",
      "type": "function"
    },
    {
      "inputs": [],
      "name": "isEmergencyState",
      "outputs": [
        {
          "internalType": "bool",
          "name": "",
          "type": "bool"
        }
      ],
      "stateMutability": "view",
      "type": "function"
    },
    {
      "inputs": [
        {
          "internalType": "uint32",
          "name": "rollupID",
          "type": "uint32"
        },
        {
          "internalType": "uint64",
          "name": "pendingStateNum",
          "type": "uint64"
        }
      ],
      "name": "isPendingStateConsolidable",
      "outputs": [
        {
          "internalType": "bool",
          "name": "",
          "type": "bool"
        }
      ],
      "stateMutability": "view",
      "type": "function"
    },
    {
      "inputs": [],
      "name": "lastAggregationTimestamp",
      "outputs": [
        {
          "internalType": "uint64",
          "name": "",
          "type": "uint64"
        }
      ],
      "stateMutability": "view",
      "type": "function"
    },
    {
      "inputs": [],
      "name": "lastDeactivatedEmergencyStateTimestamp",
      "outputs": [
        {
          "internalType": "uint64",
          "name": "",
          "type": "uint64"
        }
      ],
      "stateMutability": "view",
      "type": "function"
    },
    {
      "inputs": [],
      "name": "multiplierBatchFee",
      "outputs": [
        {
          "internalType": "uint16",
          "name": "",
          "type": "uint16"
        }
      ],
      "stateMutability": "view",
      "type": "function"
    },
    {
      "inputs": [
        {
          "internalType": "uint32",
          "name": "rollupTypeID",
          "type": "uint32"
        }
      ],
      "name": "obsoleteRollupType",
      "outputs": [],
      "stateMutability": "nonpayable",
      "type": "function"
    },
    {
      "inputs": [
        {
          "internalType": "uint64",
          "name": "newSequencedBatches",
          "type": "uint64"
        },
        {
          "internalType": "bytes32",
          "name": "newAccInputHash",
          "type": "bytes32"
        }
      ],
      "name": "onSequenceBatches",
      "outputs": [
        {
          "internalType": "uint64",
          "name": "",
          "type": "uint64"
        }
      ],
      "stateMutability": "nonpayable",
      "type": "function"
    },
    {
      "inputs": [
        {
          "internalType": "uint32",
          "name": "rollupID",
          "type": "uint32"
        },
        {
          "internalType": "uint64",
          "name": "initPendingStateNum",
          "type": "uint64"
        },
        {
          "internalType": "uint64",
          "name": "finalPendingStateNum",
          "type": "uint64"
        },
        {
          "internalType": "uint64",
          "name": "initNumBatch",
          "type": "uint64"
        },
        {
          "internalType": "uint64",
          "name": "finalNewBatch",
          "type": "uint64"
        },
        {
          "internalType": "bytes32",
          "name": "newLocalExitRoot",
          "type": "bytes32"
        },
        {
          "internalType": "bytes32",
          "name": "newStateRoot",
          "type": "bytes32"
        },
        {
          "internalType": "bytes32[24]",
          "name": "proof",
          "type": "bytes32[24]"
        }
      ],
      "name": "overridePendingState",
      "outputs": [],
      "stateMutability": "nonpayable",
      "type": "function"
    },
    {
      "inputs": [],
      "name": "pendingStateTimeout",
      "outputs": [
        {
          "internalType": "uint64",
          "name": "",
          "type": "uint64"
        }
      ],
      "stateMutability": "view",
      "type": "function"
    },
    {
      "inputs": [],
      "name": "pol",
      "outputs": [
        {
          "internalType": "contract IERC20Upgradeable",
          "name": "",
          "type": "address"
        }
      ],
      "stateMutability": "view",
      "type": "function"
    },
    {
      "inputs": [
        {
          "internalType": "bytes32[]",
          "name": "localExitRoots",
          "type": "bytes32[]"
        }
      ],
      "name": "prepareMockCalculateRoot",
      "outputs": [],
      "stateMutability": "nonpayable",
      "type": "function"
    },
    {
      "inputs": [
        {
          "internalType": "uint32",
          "name": "rollupID",
          "type": "uint32"
        },
        {
          "internalType": "uint64",
          "name": "initPendingStateNum",
          "type": "uint64"
        },
        {
          "internalType": "uint64",
          "name": "finalPendingStateNum",
          "type": "uint64"
        },
        {
          "internalType": "uint64",
          "name": "initNumBatch",
          "type": "uint64"
        },
        {
          "internalType": "uint64",
          "name": "finalNewBatch",
          "type": "uint64"
        },
        {
          "internalType": "bytes32",
          "name": "newLocalExitRoot",
          "type": "bytes32"
        },
        {
          "internalType": "bytes32",
          "name": "newStateRoot",
          "type": "bytes32"
        },
        {
          "internalType": "bytes32[24]",
          "name": "proof",
          "type": "bytes32[24]"
        }
      ],
      "name": "proveNonDeterministicPendingState",
      "outputs": [],
      "stateMutability": "nonpayable",
      "type": "function"
    },
    {
      "inputs": [
        {
          "internalType": "bytes32",
          "name": "role",
          "type": "bytes32"
        },
        {
          "internalType": "address",
          "name": "account",
          "type": "address"
        }
      ],
      "name": "renounceRole",
      "outputs": [],
      "stateMutability": "nonpayable",
      "type": "function"
    },
    {
      "inputs": [
        {
          "internalType": "bytes32",
          "name": "role",
          "type": "bytes32"
        },
        {
          "internalType": "address",
          "name": "account",
          "type": "address"
        }
      ],
      "name": "revokeRole",
      "outputs": [],
      "stateMutability": "nonpayable",
      "type": "function"
    },
    {
      "inputs": [
        {
          "internalType": "address",
          "name": "rollupAddress",
          "type": "address"
        }
      ],
      "name": "rollupAddressToID",
      "outputs": [
        {
          "internalType": "uint32",
          "name": "rollupID",
          "type": "uint32"
        }
      ],
      "stateMutability": "view",
      "type": "function"
    },
    {
      "inputs": [],
      "name": "rollupCount",
      "outputs": [
        {
          "internalType": "uint32",
          "name": "",
          "type": "uint32"
        }
      ],
      "stateMutability": "view",
      "type": "function"
    },
    {
      "inputs": [
        {
          "internalType": "uint32",
          "name": "rollupID",
          "type": "uint32"
        }
      ],
      "name": "rollupIDToRollupData",
      "outputs": [
        {
          "internalType": "contract IPolygonRollupBase",
          "name": "rollupContract",
          "type": "address"
        },
        {
          "internalType": "uint64",
          "name": "chainID",
          "type": "uint64"
        },
        {
          "internalType": "contract IVerifierRollup",
          "name": "verifier",
          "type": "address"
        },
        {
          "internalType": "uint64",
          "name": "forkID",
          "type": "uint64"
        },
        {
          "internalType": "bytes32",
          "name": "lastLocalExitRoot",
          "type": "bytes32"
        },
        {
          "internalType": "uint64",
          "name": "lastBatchSequenced",
          "type": "uint64"
        },
        {
          "internalType": "uint64",
          "name": "lastVerifiedBatch",
          "type": "uint64"
        },
        {
          "internalType": "uint64",
          "name": "lastPendingState",
          "type": "uint64"
        },
        {
          "internalType": "uint64",
          "name": "lastPendingStateConsolidated",
          "type": "uint64"
        },
        {
          "internalType": "uint64",
          "name": "lastVerifiedBatchBeforeUpgrade",
          "type": "uint64"
        },
        {
          "internalType": "uint64",
          "name": "rollupTypeID",
          "type": "uint64"
        },
        {
          "internalType": "uint8",
          "name": "rollupCompatibilityID",
          "type": "uint8"
        }
      ],
      "stateMutability": "view",
      "type": "function"
    },
    {
      "inputs": [],
      "name": "rollupTypeCount",
      "outputs": [
        {
          "internalType": "uint32",
          "name": "",
          "type": "uint32"
        }
      ],
      "stateMutability": "view",
      "type": "function"
    },
    {
      "inputs": [
        {
          "internalType": "uint32",
          "name": "rollupTypeID",
          "type": "uint32"
        }
      ],
      "name": "rollupTypeMap",
      "outputs": [
        {
          "internalType": "address",
          "name": "consensusImplementation",
          "type": "address"
        },
        {
          "internalType": "contract IVerifierRollup",
          "name": "verifier",
          "type": "address"
        },
        {
          "internalType": "uint64",
          "name": "forkID",
          "type": "uint64"
        },
        {
          "internalType": "uint8",
          "name": "rollupCompatibilityID",
          "type": "uint8"
        },
        {
          "internalType": "bool",
          "name": "obsolete",
          "type": "bool"
        },
        {
          "internalType": "bytes32",
          "name": "genesis",
          "type": "bytes32"
        }
      ],
      "stateMutability": "view",
      "type": "function"
    },
    {
      "inputs": [
        {
          "internalType": "uint256",
          "name": "newBatchFee",
          "type": "uint256"
        }
      ],
      "name": "setBatchFee",
      "outputs": [],
      "stateMutability": "nonpayable",
      "type": "function"
    },
    {
      "inputs": [
        {
          "internalType": "uint16",
          "name": "newMultiplierBatchFee",
          "type": "uint16"
        }
      ],
      "name": "setMultiplierBatchFee",
      "outputs": [],
      "stateMutability": "nonpayable",
      "type": "function"
    },
    {
      "inputs": [
        {
          "internalType": "uint64",
          "name": "newPendingStateTimeout",
          "type": "uint64"
        }
      ],
      "name": "setPendingStateTimeout",
      "outputs": [],
      "stateMutability": "nonpayable",
      "type": "function"
    },
    {
      "inputs": [
        {
          "internalType": "uint64",
          "name": "newTrustedAggregatorTimeout",
          "type": "uint64"
        }
      ],
      "name": "setTrustedAggregatorTimeout",
      "outputs": [],
      "stateMutability": "nonpayable",
      "type": "function"
    },
    {
      "inputs": [
        {
          "internalType": "uint64",
          "name": "newVerifyBatchTimeTarget",
          "type": "uint64"
        }
      ],
      "name": "setVerifyBatchTimeTarget",
      "outputs": [],
      "stateMutability": "nonpayable",
      "type": "function"
    },
    {
      "inputs": [],
      "name": "totalSequencedBatches",
      "outputs": [
        {
          "internalType": "uint64",
          "name": "",
          "type": "uint64"
        }
      ],
      "stateMutability": "view",
      "type": "function"
    },
    {
      "inputs": [],
      "name": "totalVerifiedBatches",
      "outputs": [
        {
          "internalType": "uint64",
          "name": "",
          "type": "uint64"
        }
      ],
      "stateMutability": "view",
      "type": "function"
    },
    {
      "inputs": [],
      "name": "trustedAggregatorTimeout",
      "outputs": [
        {
          "internalType": "uint64",
          "name": "",
          "type": "uint64"
        }
      ],
      "stateMutability": "view",
      "type": "function"
    },
    {
      "inputs": [
        {
          "internalType": "contract ITransparentUpgradeableProxy",
          "name": "rollupContract",
          "type": "address"
        },
        {
          "internalType": "uint32",
          "name": "newRollupTypeID",
          "type": "uint32"
        },
        {
          "internalType": "bytes",
          "name": "upgradeData",
          "type": "bytes"
        }
      ],
      "name": "updateRollup",
      "outputs": [],
      "stateMutability": "nonpayable",
      "type": "function"
    },
    {
      "inputs": [],
      "name": "verifyBatchTimeTarget",
      "outputs": [
        {
          "internalType": "uint64",
          "name": "",
          "type": "uint64"
        }
      ],
      "stateMutability": "view",
      "type": "function"
    },
    {
      "inputs": [
        {
          "internalType": "uint32",
          "name": "rollupID",
          "type": "uint32"
        },
        {
          "internalType": "uint64",
          "name": "pendingStateNum",
          "type": "uint64"
        },
        {
          "internalType": "uint64",
          "name": "initNumBatch",
          "type": "uint64"
        },
        {
          "internalType": "uint64",
          "name": "finalNewBatch",
          "type": "uint64"
        },
        {
          "internalType": "bytes32",
          "name": "newLocalExitRoot",
          "type": "bytes32"
        },
        {
          "internalType": "bytes32",
          "name": "newStateRoot",
          "type": "bytes32"
        },
        {
          "internalType": "address",
          "name": "beneficiary",
          "type": "address"
        },
        {
          "internalType": "bytes32[24]",
          "name": "proof",
          "type": "bytes32[24]"
        }
      ],
      "name": "verifyBatches",
      "outputs": [],
      "stateMutability": "nonpayable",
      "type": "function"
    },
    {
      "inputs": [
        {
          "internalType": "uint32",
          "name": "rollupID",
          "type": "uint32"
        },
        {
          "internalType": "uint64",
          "name": "pendingStateNum",
          "type": "uint64"
        },
        {
          "internalType": "uint64",
          "name": "initNumBatch",
          "type": "uint64"
        },
        {
          "internalType": "uint64",
          "name": "finalNewBatch",
          "type": "uint64"
        },
        {
          "internalType": "bytes32",
          "name": "newLocalExitRoot",
          "type": "bytes32"
        },
        {
          "internalType": "bytes32",
          "name": "newStateRoot",
          "type": "bytes32"
        },
        {
          "internalType": "address",
          "name": "beneficiary",
          "type": "address"
        },
        {
          "internalType": "bytes32[24]",
          "name": "proof",
          "type": "bytes32[24]"
        }
      ],
      "name": "verifyBatchesTrustedAggregator",
      "outputs": [],
      "stateMutability": "nonpayable",
      "type": "function"
    }
  ],
  "bytecode": "0x60e060405234801562000010575f80fd5b506040516200619b3803806200619b83398101604081905262000033916200013c565b6001600160a01b0380841660805280831660c052811660a0528282826200005962000065565b5050505050506200018d565b5f54610100900460ff1615620000d15760405162461bcd60e51b815260206004820152602760248201527f496e697469616c697a61626c653a20636f6e747261637420697320696e697469604482015266616c697a696e6760c81b606482015260840160405180910390fd5b5f5460ff908116101562000122575f805460ff191660ff9081179091556040519081527f7f26b83ff96e1f2b6a682f133852f6798a09c465da95921460cefb38474024989060200160405180910390a15b565b6001600160a01b038116811462000139575f80fd5b50565b5f805f606084860312156200014f575f80fd5b83516200015c8162000124565b60208501519093506200016f8162000124565b6040850151909250620001828162000124565b809150509250925092565b60805160a05160c051615fab620001f05f395f81816109d2015281816122920152613b0e01525f818161079a01528181612de60152613dfc01525f818161092c015281816112ed0152818161149501528181611f7f0152613cf10152615fab5ff3fe608060405234801562000010575f80fd5b5060043610620002b4575f3560e01c80630645af0914620002b8578063066ec01214620002d1578063080b311114620002fd5780630a0d9fbe14620003255780630e36f582146200034057806311f6b287146200035757806312b86e19146200036e5780631489ed10146200038557806315064c96146200039c5780631608859c14620003aa5780631796a1ae14620003c15780631816b7e514620003e85780632072f6c514620003ff578063248a9ca3146200040957806325280169146200042f5780632f2ff15d14620004e357806330c27dde14620004fa57806336568abe146200050e578063394218e91462000525578063477fa270146200053c57806355a71ee0146200054557806360469169146200058857806365c0504d14620005925780637222020f1462000640578063727885e914620006575780637975fcfe146200066e5780637fb6e76a1462000694578063841b24d714620006bc57806387c20c0114620006d75780638bd4f07114620006ee5780638f698ec5146200070557806391d14854146200071c57806399f5634e14620007335780639a908e73146200073d5780639c9f3dfe1462000754578063a066215c146200076b578063a217fddf1462000782578063a2967d99146200078a578063a3c573eb1462000794578063afd23cbe14620007cb578063b99d0ad714620007f5578063c1acbc3414620008cc578063c4c928c214620008e7578063ceee281d14620008fe578063d02103ca1462000926578063d5073f6f146200094e578063d547741f1462000965578063d939b315146200097c578063dbc169761462000990578063dde0ff77146200099a578063e0bfd3d214620009b5578063e46761c414620009cc578063f34eb8eb14620009f4578063f4e926751462000a0b578063f9c4c2ae1462000a1c575b5f80fd5b620002cf620002c936600462004796565b62000b32565b005b608454620002e5906001600160401b031681565b604051620002f491906200486b565b60405180910390f35b620003146200030e36600462004893565b62000f65565b6040519015158152602001620002f4565b608554620002e590600160401b90046001600160401b031681565b620002cf62000351366004620048c9565b62000f8e565b620002e56200036836600462004950565b62001225565b620002cf6200037f3660046200497e565b62001244565b620002cf6200039636600462004a10565b620013ec565b606f54620003149060ff1681565b620002cf620003bb36600462004893565b62001574565b607e54620003d29063ffffffff1681565b60405163ffffffff9091168152602001620002f4565b620002cf620003f936600462004a95565b62001607565b620002cf620016b2565b620004206200041a36600462004abf565b62001777565b604051908152602001620002f4565b620004af6200044036600462004893565b60408051606080820183525f808352602080840182905292840181905263ffffffff959095168552608182528285206001600160401b03948516865260030182529382902082519485018352805485526001015480841691850191909152600160401b90049091169082015290565b60408051825181526020808401516001600160401b03908116918301919091529282015190921690820152606001620002f4565b620002cf620004f436600462004ad7565b6200178b565b608754620002e5906001600160401b031681565b620002cf6200051f36600462004ad7565b620017ad565b620002cf6200053636600462004b08565b620017e7565b60865462000420565b620004206200055636600462004893565b63ffffffff82165f9081526081602090815260408083206001600160401b038516845260020190915290205492915050565b6200042062001895565b620005f6620005a336600462004950565b607f6020525f90815260409020805460018201546002909201546001600160a01b0391821692918216916001600160401b03600160a01b8204169160ff600160e01b8304811692600160e81b9004169086565b604080516001600160a01b0397881681529690951660208701526001600160401b039093169385019390935260ff166060840152901515608083015260a082015260c001620002f4565b620002cf6200065136600462004950565b620018ac565b620002cf6200066836600462004bdd565b62001994565b620006856200067f36600462004ca3565b62001ddf565b604051620002f4919062004d56565b620003d2620006a536600462004b08565b60836020525f908152604090205463ffffffff1681565b608454620002e590600160c01b90046001600160401b031681565b620002cf620006e836600462004a10565b62001e11565b620002cf620006ff3660046200497e565b6200212c565b620002cf6200071636600462004d6a565b620021e0565b620003146200072d36600462004ad7565b62002264565b620004206200228e565b620002e56200074e36600462004e15565b62002374565b620002cf6200076536600462004b08565b6200253b565b620002cf6200077c36600462004b08565b620025dd565b620004205f81565b620004206200267b565b620007bc7f000000000000000000000000000000000000000000000000000000000000000081565b604051620002f4919062004e40565b608554620007e190600160801b900461ffff1681565b60405161ffff9091168152602001620002f4565b6200088a6200080636600462004893565b60408051608080820183525f8083526020808401829052838501829052606093840182905263ffffffff969096168152608186528381206001600160401b03958616825260040186528390208351918201845280548086168352600160401b9004909416948101949094526001830154918401919091526002909101549082015290565b604051620002f4919081516001600160401b03908116825260208084015190911690820152604082810151908201526060918201519181019190915260800190565b608454620002e590600160801b90046001600160401b031681565b620002cf620008f836600462004e54565b62002a30565b620003d26200090f36600462004ee5565b60826020525f908152604090205463ffffffff1681565b620007bc7f000000000000000000000000000000000000000000000000000000000000000081565b620002cf6200095f36600462004abf565b62002cf3565b620002cf6200097636600462004ad7565b62002d7d565b608554620002e5906001600160401b031681565b620002cf62002d9f565b608454620002e590600160401b90046001600160401b031681565b620002cf620009c636600462004f14565b62002e58565b620007bc7f000000000000000000000000000000000000000000000000000000000000000081565b620002cf62000a0536600462004f8c565b62002f1a565b608054620003d29063ffffffff1681565b62000ab262000a2d36600462004950565b60816020525f9081526040902080546001820154600583015460068401546007909401546001600160a01b0380851695600160a01b958690046001600160401b039081169692861695929092048216939282821692600160401b808404821693600160801b808204841694600160c01b90920484169380831693830416910460ff168c565b604080516001600160a01b039d8e1681526001600160401b039c8d1660208201529c909a16998c019990995296891660608b015260808a019590955292871660a089015290861660c0880152851660e0870152841661010086015283166101208501529190911661014083015260ff1661016082015261018001620002f4565b5f54600290610100900460ff1615801562000b5357505f5460ff8083169116105b62000b7b5760405162461bcd60e51b815260040162000b72906200501e565b60405180910390fd5b5f805461010060ff841661ffff199092169190911717905560858054608480546001600160c01b0316600160c01b6001600160401b038e8116919091029190911790915567016345785d8a00006086558c166001600160801b03199091161760e160431b1761ffff60801b19166101f560811b17905562000bfb620030fc565b62000c155f8051602062005f568339815191528c62003168565b62000c215f8862003168565b62000c3b5f8051602062005e368339815191528862003168565b62000c555f8051602062005eb68339815191528862003168565b62000c6f5f8051602062005dd68339815191528862003168565b62000c895f8051602062005e168339815191528962003168565b62000ca35f8051602062005f368339815191528962003168565b62000cbd5f8051602062005e568339815191528962003168565b62000cd75f8051602062005ed68339815191528962003168565b62000cff5f8051602062005f568339815191525f8051602062005db683398151915262003174565b62000d195f8051602062005db68339815191528962003168565b62000d335f8051602062005df68339815191528962003168565b62000d5b5f8051602062005f168339815191525f8051602062005ef683398151915262003174565b62000d755f8051602062005f168339815191528762003168565b62000d8f5f8051602062005ef68339815191528762003168565b6073546074546001600160401b03600160401b9092048216911680821462000dca57604051632e4cc54360e11b815260040160405180910390fd5b5f62000def888888885f60745f9054906101000a90046001600160401b0316620031c7565b6001600160401b038381165f81815260756020908152604080832054600287018352818420558885168084526072808452828520600389018552948390208554815560018087018054919092018054918a166001600160401b03198084168217835593546001600160801b0319938416909117600160401b918290048c1682021790915560068b018054909216909417938802939093179092556007880180549092169095179055607a54606f54949092529154607354925163176b20e160e31b81529596506001600160a01b038e81169663bb5907089662000ef09694831695600160581b90950490921693607693607793909291169060040162005113565b5f604051808303815f87803b15801562000f08575f80fd5b505af115801562000f1b573d5f803e3d5ffd5b50505f805461ff0019169055505060405160ff851681525f8051602062005e968339815191529350602001915062000f509050565b60405180910390a15050505050505050505050565b63ffffffff82165f90815260816020526040812062000f859083620033e8565b90505b92915050565b5f54600290610100900460ff1615801562000faf57505f5460ff8083169116105b62000fce5760405162461bcd60e51b815260040162000b72906200501e565b5f805461010060ff841661ffff199092169190911717905560858054608480546001600160c01b0316600160c01b6001600160401b038a8116919091029190911790915567016345785d8a000060865588166001600160801b03199091161760e160431b1761ffff60801b19166101f560811b1790556200104e620030fc565b620010685f8051602062005f568339815191528862003168565b620010745f8462003168565b6200108e5f8051602062005e368339815191528462003168565b620010a85f8051602062005eb68339815191528462003168565b620010c25f8051602062005dd68339815191528462003168565b620010dc5f8051602062005e168339815191528562003168565b620010f65f8051602062005f368339815191528562003168565b620011105f8051602062005e568339815191528562003168565b6200112a5f8051602062005ed68339815191528562003168565b620011525f8051602062005f568339815191525f8051602062005db683398151915262003174565b6200116c5f8051602062005db68339815191528562003168565b620011865f8051602062005df68339815191528562003168565b620011ae5f8051602062005f168339815191525f8051602062005ef683398151915262003174565b620011c85f8051602062005f168339815191528362003168565b620011e25f8051602062005ef68339815191528362003168565b620011ee5f3362003168565b5f805461ff001916905560405160ff821681525f8051602062005e968339815191529060200160405180910390a150505050505050565b63ffffffff81165f90815260816020526040812062000f88906200342c565b5f8051602062005f568339815191526200125e816200349b565b63ffffffff89165f90815260816020526040902062001284818a8a8a8a8a8a8a620034a7565b600681018054600160401b600160801b031916600160401b6001600160401b038981169182029290921783555f9081526002840160205260409020869055600583018790559054600160801b90041615620012eb576006810180546001600160801b031690555b7f00000000000000000000000000000000000000000000000000000000000000006001600160a01b03166333d6247d620013246200267b565b6040518263ffffffff1660e01b81526004016200134391815260200190565b5f604051808303815f87803b1580156200135b575f80fd5b505af11580156200136e573d5f803e3d5ffd5b5050608480546001600160c01b031661127560c71b1790555050604080516001600160401b03881681526020810186905290810186905233606082015263ffffffff8b16907f3182bd6e6f74fc1fdc88b60f3a4f4c7f79db6ae6f5b88a1b3f5a1e28ec210d5e9060800160405180910390a250505050505050505050565b5f8051602062005f5683398151915262001406816200349b565b63ffffffff89165f9081526081602052604090206200142c818a8a8a8a8a8a8a62003823565b600681018054600160401b600160801b031916600160401b6001600160401b038a81169182029290921783555f9081526002840160205260409020879055600583018890559054600160801b9004161562001493576006810180546001600160801b031690555b7f00000000000000000000000000000000000000000000000000000000000000006001600160a01b03166333d6247d620014cc6200267b565b6040518263ffffffff1660e01b8152600401620014eb91815260200190565b5f604051808303815f87803b15801562001503575f80fd5b505af115801562001516573d5f803e3d5ffd5b50505050336001600160a01b03168a63ffffffff167fd1ec3a1216f08b6eff72e169ceb548b782db18a6614852618d86bb19f3f9b0d389888a604051620015609392919062005178565b60405180910390a350505050505050505050565b63ffffffff82165f908152608160205260409020620015a25f8051602062005f568339815191523362002264565b620015f657606f5460ff1615620015cc57604051630bc011ff60e21b815260040160405180910390fd5b620015d88183620033e8565b620015f657604051630674f25160e11b815260040160405180910390fd5b62001602818362003c0f565b505050565b5f8051602062005ed683398151915262001621816200349b565b6103e88261ffff1610806200163b57506103ff8261ffff16115b156200165a57604051630984a67960e31b815260040160405180910390fd5b6085805461ffff60801b1916600160801b61ffff8516908102919091179091556040519081527f7019933d795eba185c180209e8ae8bffbaa25bcef293364687702c31f4d302c5906020015b60405180910390a15050565b620016cc5f8051602062005f168339815191523362002264565b6200176b57608454600160801b90046001600160401b031615806200171c57506084544290620017119062093a8090600160801b90046001600160401b0316620051ad565b6001600160401b0316115b806200174c57506087544290620017419062093a80906001600160401b0316620051ad565b6001600160401b0316115b156200176b5760405163692baaad60e11b815260040160405180910390fd5b6200177562003dfa565b565b5f9081526034602052604090206001015490565b620017968262001777565b620017a1816200349b565b62001602838362003e74565b6001600160a01b0381163314620017d757604051630b4ad1cd60e31b815260040160405180910390fd5b620017e3828262003edf565b5050565b5f8051602062005ed683398151915262001801816200349b565b606f5460ff1662001843576084546001600160401b03600160c01b909104811690831610620018435760405163401636df60e01b815260040160405180910390fd5b608480546001600160c01b0316600160c01b6001600160401b038516021790556040517f1f4fa24c2e4bad19a7f3ec5c5485f70d46c798461c2e684f55bbd0fc661373a190620016a69084906200486b565b5f6086546064620018a79190620051d7565b905090565b5f8051602062005e16833981519152620018c6816200349b565b63ffffffff82161580620018e55750607e5463ffffffff908116908316115b156200190457604051637512e5cb60e01b815260040160405180910390fd5b63ffffffff82165f908152607f60205260409020600180820154600160e81b900460ff16151590036200194a57604051633b8d3d9960e01b815260040160405180910390fd5b60018101805460ff60e81b1916600160e81b17905560405163ffffffff8416907f4710d2ee567ef1ed6eb2f651dde4589524bcf7cebc62147a99b281cc836e7e44905f90a2505050565b5f8051602062005f36833981519152620019ae816200349b565b63ffffffff88161580620019cd5750607e5463ffffffff908116908916115b15620019ec57604051637512e5cb60e01b815260040160405180910390fd5b63ffffffff88165f908152607f60205260409020600180820154600160e81b900460ff161515900362001a3257604051633b8d3d9960e01b815260040160405180910390fd5b6001600160401b0388165f9081526083602052604090205463ffffffff161562001a6f576040516337c8fe0960e11b815260040160405180910390fd5b608080545f9190829062001a899063ffffffff16620051f1565b825463ffffffff8281166101009490940a93840293021916919091179091558254604080515f80825260208201928390529394506001600160a01b0390921691309162001ad6906200475c565b62001ae49392919062005216565b604051809103905ff08015801562001afe573d5f803e3d5ffd5b5090508160835f8c6001600160401b03166001600160401b031681526020019081526020015f205f6101000a81548163ffffffff021916908363ffffffff1602179055508160825f836001600160a01b03166001600160a01b031681526020019081526020015f205f6101000a81548163ffffffff021916908363ffffffff1602179055505f60815f8463ffffffff1663ffffffff1681526020019081526020015f20905081815f015f6101000a8154816001600160a01b0302191690836001600160a01b031602179055508360010160149054906101000a90046001600160401b03168160010160146101000a8154816001600160401b0302191690836001600160401b03160217905550836001015f9054906101000a90046001600160a01b0316816001015f6101000a8154816001600160a01b0302191690836001600160a01b031602179055508a815f0160146101000a8154816001600160401b0302191690836001600160401b031602179055508360020154816002015f806001600160401b031681526020019081526020015f20819055508b63ffffffff168160070160086101000a8154816001600160401b0302191690836001600160401b0316021790555083600101601c9054906101000a900460ff168160070160106101000a81548160ff021916908360ff1602179055508263ffffffff167f194c983456df6701c6a50830b90fe80e72b823411d0d524970c9590dc277a6418d848e8c60405162001d62949392919063ffffffff9490941684526001600160a01b0392831660208501526001600160401b0391909116604084015216606082015260800190565b60405180910390a2604051633892b81160e11b81526001600160a01b0383169063712570229062001da2908d908d9088908e908e908e906004016200524c565b5f604051808303815f87803b15801562001dba575f80fd5b505af115801562001dcd573d5f803e3d5ffd5b50505050505050505050505050505050565b63ffffffff86165f90815260816020526040902060609062001e0690878787878762003f48565b979650505050505050565b606f5460ff161562001e3657604051630bc011ff60e21b815260040160405180910390fd5b63ffffffff88165f9081526081602090815260408083206084546001600160401b038a81168652600383019094529190932060010154429262001e8492600160c01b900481169116620051ad565b6001600160401b0316111562001ead57604051638a0704d360e01b815260040160405180910390fd5b6103e862001ebc8888620052ae565b6001600160401b0316111562001ee557604051635acfba9d60e11b815260040160405180910390fd5b62001ef7818989898989898962003823565b62001f03818762004082565b6085546001600160401b03165f036200200a57600681018054600160401b600160801b031916600160401b6001600160401b038981169182029290921783555f9081526002840160205260409020869055600583018790559054600160801b9004161562001f7d576006810180546001600160801b031690555b7f00000000000000000000000000000000000000000000000000000000000000006001600160a01b03166333d6247d62001fb66200267b565b6040518263ffffffff1660e01b815260040162001fd591815260200190565b5f604051808303815f87803b15801562001fed575f80fd5b505af115801562002000573d5f803e3d5ffd5b50505050620020d3565b620020158162004279565b600681018054600160801b90046001600160401b03169060106200203983620052d1565b82546001600160401b039182166101009390930a92830292820219169190911790915560408051608081018252428316815289831660208083019182528284018b8152606084018b81526006890154600160801b900487165f90815260048a01909352949091209251835492518616600160401b026001600160801b03199093169516949094171781559151600183015551600290910155505b336001600160a01b03168963ffffffff167faac1e7a157b259544ebacd6e8a82ae5d6c8f174e12aa48696277bcc9a661f0b4888789604051620021199392919062005178565b60405180910390a3505050505050505050565b606f5460ff16156200215157604051630bc011ff60e21b815260040160405180910390fd5b63ffffffff88165f908152608160205260409020620021778189898989898989620034a7565b6001600160401b0385165f9081526002820160209081526040918290205482519081529081018590527f1f44c21118c4603cfb4e1b621dbcfa2b73efcececee2b99b620b2953d33a7010910160405180910390a1620021d562003dfa565b505050505050505050565b80516080805463ffffffff191663ffffffff9092169190911790555f5b8151811015620017e3578181815181106200221c576200221c620052f7565b602002602001015160815f8360016200223691906200530b565b63ffffffff16815260208101919091526040015f2060050155806200225b8162005321565b915050620021fd565b5f9182526034602090815260408084206001600160a01b0393909316845291905290205460ff1690565b5f807f00000000000000000000000000000000000000000000000000000000000000006001600160a01b03166370a08231306040518263ffffffff1660e01b8152600401620022de919062004e40565b602060405180830381865afa158015620022fa573d5f803e3d5ffd5b505050506040513d601f19601f820116820180604052508101906200232091906200533c565b6084549091505f9062002346906001600160401b03600160401b820481169116620052ae565b6001600160401b03169050805f0362002361575f9250505090565b6200236d818362005368565b9250505090565b606f545f9060ff16156200239b57604051630bc011ff60e21b815260040160405180910390fd5b335f9081526082602052604081205463ffffffff1690819003620023d2576040516371653c1560e01b815260040160405180910390fd5b836001600160401b03165f03620023fc57604051632590ccf960e01b815260040160405180910390fd5b63ffffffff81165f90815260816020526040812060848054919287926200242e9084906001600160401b0316620051ad565b82546101009290920a6001600160401b0381810219909316918316021790915560068301541690505f620024638783620051ad565b6006840180546001600160401b038084166001600160401b03199092168217909255604080516060810182528a815242841660208083019182528886168385019081525f95865260038b0190915292909320905181559151600192909201805491518416600160401b026001600160801b031990921692909316919091171790559050620024f18362004279565b8363ffffffff167f1d9f30260051d51d70339da239ea7b080021adcaabfa71c9b0ea339a20cf9a25826040516200252991906200486b565b60405180910390a29695505050505050565b5f8051602062005ed683398151915262002555816200349b565b606f5460ff1662002590576085546001600160401b0390811690831610620025905760405163048a05a960e41b815260040160405180910390fd5b608580546001600160401b0319166001600160401b0384161790556040517fc4121f4e22c69632ebb7cf1f462be0511dc034f999b52013eddfb24aab765c7590620016a69084906200486b565b5f8051602062005ed6833981519152620025f7816200349b565b62015180826001600160401b031611156200262557604051631c0cfbfd60e31b815260040160405180910390fd5b60858054600160401b600160801b031916600160401b6001600160401b038516021790556040517f1b023231a1ab6b5d93992f168fb44498e1a7e64cef58daff6f1c216de6a68c2890620016a69084906200486b565b6080545f9063ffffffff168082036200269557505f919050565b5f816001600160401b03811115620026b157620026b162004b24565b604051908082528060200260200182016040528015620026db578160200160208202803683370190505b5090505f5b828110156200274b5760815f620026f98360016200530b565b63ffffffff1663ffffffff1681526020019081526020015f20600501548282815181106200272b576200272b620052f7565b602090810291909101015280620027428162005321565b915050620026e0565b505f60205b836001146200298b575f620027676002866200537e565b6200277460028762005368565b6200278091906200530b565b90505f816001600160401b038111156200279e576200279e62004b24565b604051908082528060200260200182016040528015620027c8578160200160208202803683370190505b5090505f5b828110156200293f57620027e360018462005394565b81148015620027fe5750620027fa6002886200537e565b6001145b156200287e578562002812826002620051d7565b81518110620028255762002825620052f7565b60200260200101518560405160200162002841929190620053aa565b604051602081830303815290604052805190602001208282815181106200286c576200286c620052f7565b6020026020010181815250506200292a565b856200288c826002620051d7565b815181106200289f576200289f620052f7565b602002602001015186826002620028b79190620051d7565b620028c49060016200530b565b81518110620028d757620028d7620052f7565b6020026020010151604051602001620028f2929190620053aa565b604051602081830303815290604052805190602001208282815181106200291d576200291d620052f7565b6020026020010181815250505b80620029368162005321565b915050620027cd565b5080945081955083846040516020016200295b929190620053aa565b60405160208183030381529060405280519060200120935082806200298090620053b8565b935050505062002750565b5f835f81518110620029a157620029a1620052f7565b602002602001015190505f5b8281101562002a26578184604051602001620029cb929190620053aa565b6040516020818303038152906040528051906020012091508384604051602001620029f8929190620053aa565b604051602081830303815290604052805190602001209350808062002a1d9062005321565b915050620029ad565b5095945050505050565b5f8051602062005dd683398151915262002a4a816200349b565b63ffffffff8416158062002a695750607e5463ffffffff908116908516115b1562002a8857604051637512e5cb60e01b815260040160405180910390fd5b6001600160a01b0385165f9081526082602052604081205463ffffffff169081900362002ac8576040516374a086a360e01b815260040160405180910390fd5b63ffffffff8181165f908152608160205260409020600781015490918716600160401b9091046001600160401b03160362002b1657604051634f61d51960e01b815260040160405180910390fd5b63ffffffff86165f908152607f60205260409020600180820154600160e81b900460ff161515900362002b5c57604051633b8d3d9960e01b815260040160405180910390fd5b60018101546007830154600160801b900460ff908116600160e01b909204161462002b9a57604051635aa0d5f160e11b815260040160405180910390fd5b6001808201805491840180546001600160a01b031981166001600160a01b03909416938417825591546001600160401b03600160a01b9182900416026001600160e01b0319909216909217179055600782018054600160401b63ffffffff8a1602600160401b600160801b03199091161790555f62002c198462001225565b6007840180546001600160401b0319166001600160401b038316179055825460405163278f794360e11b81529192506001600160a01b038b811692634f1ef2869262002c6e9216908b908b90600401620053d0565b5f604051808303815f87803b15801562002c86575f80fd5b505af115801562002c99573d5f803e3d5ffd5b50506040805163ffffffff8c811682526001600160401b0386166020830152881693507ff585e04c05d396901170247783d3e5f0ee9c1df23072985b50af089f5e48b19d92500160405180910390a2505050505050505050565b5f8051602062005df683398151915262002d0d816200349b565b683635c9adc5dea0000082118062002d285750633b9aca0082105b1562002d4757604051638586952560e01b815260040160405180910390fd5b60868290556040518281527ffb383653f53ee079978d0c9aff7aeff04a10166ce244cca9c9f9d8d96bed45b290602001620016a6565b62002d888262001777565b62002d93816200349b565b62001602838362003edf565b5f8051602062005e5683398151915262002db9816200349b565b608780546001600160401b031916426001600160401b031617905560408051636de0b4bb60e11b815290517f00000000000000000000000000000000000000000000000000000000000000006001600160a01b03169163dbc16976916004808301925f92919082900301818387803b15801562002e34575f80fd5b505af115801562002e47573d5f803e3d5ffd5b5050505062002e5562004342565b50565b5f8051602062005eb683398151915262002e72816200349b565b6001600160401b0384165f9081526083602052604090205463ffffffff161562002eaf576040516337c8fe0960e11b815260040160405180910390fd5b6001600160a01b0387165f9081526082602052604090205463ffffffff161562002eec57604051630d409b9360e41b815260040160405180910390fd5b5f62002efd88888888875f620031c7565b5f8080526002909101602052604090209390935550505050505050565b5f8051602062005e3683398151915262002f34816200349b565b607e80545f9190829062002f4e9063ffffffff16620051f1565b91906101000a81548163ffffffff021916908363ffffffff160217905590506040518060c00160405280896001600160a01b03168152602001886001600160a01b03168152602001876001600160401b031681526020018660ff1681526020015f1515815260200185815250607f5f8363ffffffff1663ffffffff1681526020019081526020015f205f820151815f015f6101000a8154816001600160a01b0302191690836001600160a01b031602179055506020820151816001015f6101000a8154816001600160a01b0302191690836001600160a01b0316021790555060408201518160010160146101000a8154816001600160401b0302191690836001600160401b03160217905550606082015181600101601c6101000a81548160ff021916908360ff160217905550608082015181600101601d6101000a81548160ff02191690831515021790555060a082015181600201559050508063ffffffff167fa2970448b3bd66ba7e524e7b2a5b9cf94fa29e32488fb942afdfe70dd4b77b52898989898989604051620030ea969594939291906200540f565b60405180910390a25050505050505050565b5f54610100900460ff16620017755760405162461bcd60e51b815260206004820152602b60248201527f496e697469616c697a61626c653a20636f6e7472616374206973206e6f74206960448201526a6e697469616c697a696e6760a81b606482015260840162000b72565b620017e3828262003e74565b5f620031808362001777565b5f84815260346020526040808220600101859055519192508391839186917fbd79b86ffe0ab8e8776151514217cd7cacd52c909f66475c3af44e129f0b00ff9190a4505050565b608080545f9182918290620031e29063ffffffff16620051f1565b91906101000a81548163ffffffff021916908363ffffffff160217905590508060835f876001600160401b03166001600160401b031681526020019081526020015f205f6101000a81548163ffffffff021916908363ffffffff1602179055508060825f8a6001600160a01b03166001600160a01b031681526020019081526020015f205f6101000a81548163ffffffff021916908363ffffffff16021790555060815f8263ffffffff1663ffffffff1681526020019081526020015f20915087825f015f6101000a8154816001600160a01b0302191690836001600160a01b03160217905550858260010160146101000a8154816001600160401b0302191690836001600160401b0316021790555086826001015f6101000a8154816001600160a01b0302191690836001600160a01b0316021790555084825f0160146101000a8154816001600160401b0302191690836001600160401b03160217905550838260070160106101000a81548160ff021916908360ff1602179055508063ffffffff167fadfc7d56f7e39b08b321534f14bfb135ad27698f7d2f5ad0edc2356ea9a3f850878a888888604051620033d59594939291906001600160401b0395861681526001600160a01b03949094166020850152918416604084015260ff166060830152909116608082015260a00190565b60405180910390a2509695505050505050565b6085546001600160401b038281165f908152600485016020526040812054909242926200341a929181169116620051ad565b6001600160401b031611159392505050565b60068101545f90600160801b90046001600160401b0316156200347e575060068101546001600160401b03600160801b90910481165f9081526004909201602052604090912054600160401b90041690565b5060060154600160401b90046001600160401b031690565b919050565b62002e5581336200439a565b60078801545f906001600160401b039081169087161015620034dc5760405163ead1340b60e01b815260040160405180910390fd5b6001600160401b038816156200357c5760068901546001600160401b03600160801b90910481169089161115620035265760405163bb14c20560e01b815260040160405180910390fd5b506001600160401b038088165f90815260048a0160205260409020600281015481549092888116600160401b90920416146200357557604051632bd2e3e760e01b815260040160405180910390fd5b50620035f0565b506001600160401b0385165f90815260028901602052604090205480620035b6576040516324cbdcc360e11b815260040160405180910390fd5b60068901546001600160401b03600160401b90910481169087161115620035f057604051630f2b74f160e11b815260040160405180910390fd5b60068901546001600160401b03600160801b90910481169088161180620036295750876001600160401b0316876001600160401b031611155b806200364d575060068901546001600160401b03600160c01b909104811690881611155b156200366c5760405163bfa7079f60e01b815260040160405180910390fd5b6001600160401b038781165f90815260048b016020526040902054600160401b9004811690861614620036b2576040516332a2a77f60e01b815260040160405180910390fd5b5f620036c38a888888868962003f48565b90505f5f8051602062005e76833981519152600283604051620036e791906200545b565b602060405180830381855afa15801562003703573d5f803e3d5ffd5b5050506040513d601f19601f820116820180604052508101906200372891906200533c565b6200373491906200537e565b60018c0154604080516020810182528381529051634890ed4560e11b81529293506001600160a01b0390911691639121da8a91620037789188919060040162005478565b602060405180830381865afa15801562003794573d5f803e3d5ffd5b505050506040513d601f19601f82011682018060405250810190620037ba9190620054b4565b620037d8576040516309bde33960e01b815260040160405180910390fd5b6001600160401b0389165f90815260048c016020526040902060020154859003620038165760405163a47276bd60e01b815260040160405180910390fd5b5050505050505050505050565b5f80620038308a6200342c565b60078b01549091506001600160401b039081169089161015620038665760405163ead1340b60e01b815260040160405180910390fd5b6001600160401b03891615620039085760068a01546001600160401b03600160801b9091048116908a161115620038b05760405163bb14c20560e01b815260040160405180910390fd5b6001600160401b03808a165f90815260048c01602052604090206002810154815490945090918a8116600160401b90920416146200390157604051632bd2e3e760e01b815260040160405180910390fd5b5062003977565b6001600160401b0388165f90815260028b01602052604090205491508162003943576040516324cbdcc360e11b815260040160405180910390fd5b806001600160401b0316886001600160401b031611156200397757604051630f2b74f160e11b815260040160405180910390fd5b806001600160401b0316876001600160401b031611620039aa5760405163b9b18f5760e01b815260040160405180910390fd5b5f620039bb8b8a8a8a878b62003f48565b90505f5f8051602062005e76833981519152600283604051620039df91906200545b565b602060405180830381855afa158015620039fb573d5f803e3d5ffd5b5050506040513d601f19601f8201168201806040525081019062003a2091906200533c565b62003a2c91906200537e565b60018d0154604080516020810182528381529051634890ed4560e11b81529293506001600160a01b0390911691639121da8a9162003a709189919060040162005478565b602060405180830381865afa15801562003a8c573d5f803e3d5ffd5b505050506040513d601f19601f8201168201806040525081019062003ab29190620054b4565b62003ad0576040516309bde33960e01b815260040160405180910390fd5b5f62003add848b620052ae565b905062003b3687826001600160401b031662003af86200228e565b62003b049190620051d7565b6001600160a01b037f0000000000000000000000000000000000000000000000000000000000000000169190620043c4565b80608460088282829054906101000a90046001600160401b031662003b5c9190620051ad565b82546101009290920a6001600160401b0381810219909316918316021790915560848054600160801b600160c01b031916600160801b428416021790558e546040516332c2d15360e01b8152918d166004830152602482018b90523360448301526001600160a01b031691506332c2d153906064015f604051808303815f87803b15801562003be9575f80fd5b505af115801562003bfc573d5f803e3d5ffd5b5050505050505050505050505050505050565b60068201546001600160401b03600160c01b909104811690821611158062003c4e575060068201546001600160401b03600160801b9091048116908216115b1562003c6d5760405163d086b70b60e01b815260040160405180910390fd5b6001600160401b038181165f81815260048501602090815260408083208054600689018054600160401b600160801b031916600160401b92839004909816918202979097178755600280830154828752908a0190945291909320919091556001820154600587015583546001600160c01b0316600160c01b909302929092179092557f00000000000000000000000000000000000000000000000000000000000000006001600160a01b03166333d6247d62003d286200267b565b6040518263ffffffff1660e01b815260040162003d4791815260200190565b5f604051808303815f87803b15801562003d5f575f80fd5b505af115801562003d72573d5f803e3d5ffd5b505085546001600160a01b03165f90815260826020908152604091829020546002870154600188015484516001600160401b03898116825294810192909252818501529188166060830152915163ffffffff90921693507f581910eb7a27738945c2f00a91f2284b2d6de9d4e472b12f901c2b0df045e21b925081900360800190a250505050565b7f00000000000000000000000000000000000000000000000000000000000000006001600160a01b0316632072f6c56040518163ffffffff1660e01b81526004015f604051808303815f87803b15801562003e53575f80fd5b505af115801562003e66573d5f803e3d5ffd5b505050506200177562004418565b62003e80828262002264565b620017e3575f8281526034602090815260408083206001600160a01b0385168085529252808320805460ff1916600117905551339285917f2f8788117e7eff1d82e926ec794901d17c78024a50270940304540a733656f0d9190a45050565b62003eeb828262002264565b15620017e3575f8281526034602090815260408083206001600160a01b0385168085529252808320805460ff1916905551339285917ff6391f5c32d9c69d2a47ea670b442974b53935d1edc7fd64eb21e047a839171b9190a45050565b6001600160401b038086165f818152600389016020526040808220549388168252902054606092911580159062003f7d575081155b1562003f9c5760405163340c614f60e11b815260040160405180910390fd5b8062003fbb576040516366385b5160e01b815260040160405180910390fd5b62003fc68462004474565b62003fe4576040516305dae44f60e21b815260040160405180910390fd5b885460018a01546040516001600160601b03193360601b16602082015260348101889052605481018590526001600160c01b031960c08c811b82166074840152600160a01b94859004811b8216607c84015293909204831b82166084820152608c810187905260ac810184905260cc81018990529189901b1660ec82015260f401604051602081830303815290604052925050509695505050505050565b5f6200408e836200342c565b9050815f806200409f8484620052ae565b6085546001600160401b0391821692505f91620040c591600160401b9004164262005394565b90505b846001600160401b0316846001600160401b0316146200414e576001600160401b038085165f9081526003890160205260409020600181015490911682101562004129576001810154600160401b90046001600160401b0316945062004147565b620041358686620052ae565b6001600160401b03169350506200414e565b50620040c8565b5f6200415b848462005394565b905083811015620041b957808403600c81116200417957806200417c565b600c5b9050806103e80a81608560109054906101000a900461ffff1661ffff160a6086540281620041ae57620041ae62005354565b046086555062004230565b838103600c8111620041cc5780620041cf565b600c5b90505f816103e80a82608560109054906101000a900461ffff1661ffff160a670de0b6b3a7640000028162004208576200420862005354565b04905080608654670de0b6b3a7640000028162004229576200422962005354565b0460865550505b683635c9adc5dea0000060865411156200425757683635c9adc5dea000006086556200426f565b633b9aca0060865410156200426f57633b9aca006086555b5050505050505050565b60068101546001600160401b03600160c01b82048116600160801b90920416111562002e555760068101545f90620042c390600160c01b90046001600160401b03166001620051ad565b9050620042d18282620033e8565b15620017e35760068201545f90600290620042fe908490600160801b90046001600160401b0316620052ae565b6200430a9190620054d5565b620043169083620051ad565b9050620043248382620033e8565b15620043365762001602838262003c0f565b62001602838362003c0f565b606f5460ff166200436657604051635386698160e01b815260040160405180910390fd5b606f805460ff191690556040517f1e5e34eea33501aecf2ebec9fe0e884a40804275ea7fe10b2ba084c8374308b3905f90a1565b620043a6828262002264565b620017e357604051637615be1f60e11b815260040160405180910390fd5b604080516001600160a01b038416602482015260448082018490528251808303909101815260649091019091526020810180516001600160e01b031663a9059cbb60e01b17905262001602908490620044f8565b606f5460ff16156200443d57604051630bc011ff60e21b815260040160405180910390fd5b606f805460ff191660011790556040517f2261efe5aef6fedc1fd1550b25facc9181745623049c7901287030b9ad1a5497905f90a1565b5f67ffffffff000000016001600160401b038316108015620044aa575067ffffffff00000001604083901c6001600160401b0316105b8015620044cb575067ffffffff00000001608083901c6001600160401b0316105b8015620044e3575067ffffffff0000000160c083901c105b15620044f157506001919050565b505f919050565b5f6200454e826040518060400160405280602081526020017f5361666545524332303a206c6f772d6c6576656c2063616c6c206661696c6564815250856001600160a01b0316620045d09092919063ffffffff16565b8051909150156200160257808060200190518101906200456f9190620054b4565b620016025760405162461bcd60e51b815260206004820152602a60248201527f5361666545524332303a204552433230206f7065726174696f6e20646964206e6044820152691bdd081cdd58d8d9595960b21b606482015260840162000b72565b6060620045e084845f85620045e8565b949350505050565b6060824710156200464b5760405162461bcd60e51b815260206004820152602660248201527f416464726573733a20696e73756666696369656e742062616c616e636520666f6044820152651c8818d85b1b60d21b606482015260840162000b72565b5f80866001600160a01b031685876040516200466891906200545b565b5f6040518083038185875af1925050503d805f8114620046a4576040519150601f19603f3d011682016040523d82523d5f602084013e620046a9565b606091505b509150915062001e068783838760608315620047295782515f0362004721576001600160a01b0385163b620047215760405162461bcd60e51b815260206004820152601d60248201527f416464726573733a2063616c6c20746f206e6f6e2d636f6e7472616374000000604482015260640162000b72565b5081620045e0565b620045e08383815115620047405781518083602001fd5b8060405162461bcd60e51b815260040162000b72919062004d56565b6108b880620054fe83390190565b6001600160a01b038116811462002e55575f80fd5b80356001600160401b038116811462003496575f80fd5b5f805f805f805f805f806101408b8d031215620047b1575f80fd5b8a35620047be816200476a565b9950620047ce60208c016200477f565b9850620047de60408c016200477f565b975060608b0135620047f0816200476a565b965060808b013562004802816200476a565b955060a08b013562004814816200476a565b945060c08b013562004826816200476a565b935060e08b013562004838816200476a565b9250620048496101008c016200477f565b91506200485a6101208c016200477f565b90509295989b9194979a5092959850565b6001600160401b0391909116815260200190565b803563ffffffff8116811462003496575f80fd5b5f8060408385031215620048a5575f80fd5b620048b0836200487f565b9150620048c0602084016200477f565b90509250929050565b5f805f805f8060c08789031215620048df575f80fd5b8635620048ec816200476a565b9550620048fc602088016200477f565b94506200490c604088016200477f565b935060608701356200491e816200476a565b9250608087013562004930816200476a565b915060a087013562004942816200476a565b809150509295509295509295565b5f6020828403121562004961575f80fd5b62000f85826200487f565b80610300810183101562000f88575f80fd5b5f805f805f805f806103e0898b03121562004997575f80fd5b620049a2896200487f565b9750620049b260208a016200477f565b9650620049c260408a016200477f565b9550620049d260608a016200477f565b9450620049e260808a016200477f565b935060a0890135925060c0890135915062004a018a60e08b016200496c565b90509295985092959890939650565b5f805f805f805f806103e0898b03121562004a29575f80fd5b62004a34896200487f565b975062004a4460208a016200477f565b965062004a5460408a016200477f565b955062004a6460608a016200477f565b94506080890135935060a0890135925060c089013562004a84816200476a565b915062004a018a60e08b016200496c565b5f6020828403121562004aa6575f80fd5b813561ffff8116811462004ab8575f80fd5b9392505050565b5f6020828403121562004ad0575f80fd5b5035919050565b5f806040838503121562004ae9575f80fd5b82359150602083013562004afd816200476a565b809150509250929050565b5f6020828403121562004b19575f80fd5b62000f85826200477f565b634e487b7160e01b5f52604160045260245ffd5b604051601f8201601f191681016001600160401b038111828210171562004b635762004b6362004b24565b604052919050565b5f82601f83011262004b7b575f80fd5b81356001600160401b0381111562004b975762004b9762004b24565b62004bac601f8201601f191660200162004b38565b81815284602083860101111562004bc1575f80fd5b816020850160208301375f918101602001919091529392505050565b5f805f805f805f60e0888a03121562004bf4575f80fd5b62004bff886200487f565b965062004c0f602089016200477f565b9550604088013562004c21816200476a565b9450606088013562004c33816200476a565b9350608088013562004c45816200476a565b925060a08801356001600160401b038082111562004c61575f80fd5b62004c6f8b838c0162004b6b565b935060c08a013591508082111562004c85575f80fd5b5062004c948a828b0162004b6b565b91505092959891949750929550565b5f805f805f8060c0878903121562004cb9575f80fd5b62004cc4876200487f565b955062004cd4602088016200477f565b945062004ce4604088016200477f565b9350606087013592506080870135915060a087013590509295509295509295565b5f5b8381101562004d2157818101518382015260200162004d07565b50505f910152565b5f815180845262004d4281602086016020860162004d05565b601f01601f19169290920160200192915050565b602081525f62000f85602083018462004d29565b5f602080838503121562004d7c575f80fd5b82356001600160401b038082111562004d93575f80fd5b818501915085601f83011262004da7575f80fd5b81358181111562004dbc5762004dbc62004b24565b8060051b915062004dcf84830162004b38565b818152918301840191848101908884111562004de9575f80fd5b938501935b8385101562004e095784358252938501939085019062004dee565b98975050505050505050565b5f806040838503121562004e27575f80fd5b62004e32836200477f565b946020939093013593505050565b6001600160a01b0391909116815260200190565b5f805f806060858703121562004e68575f80fd5b843562004e75816200476a565b935062004e85602086016200487f565b925060408501356001600160401b038082111562004ea1575f80fd5b818701915087601f83011262004eb5575f80fd5b81358181111562004ec4575f80fd5b88602082850101111562004ed6575f80fd5b95989497505060200194505050565b5f6020828403121562004ef6575f80fd5b813562004ab8816200476a565b803560ff8116811462003496575f80fd5b5f805f805f8060c0878903121562004f2a575f80fd5b863562004f37816200476a565b9550602087013562004f49816200476a565b945062004f59604088016200477f565b935062004f69606088016200477f565b92506080870135915062004f8060a0880162004f03565b90509295509295509295565b5f805f805f8060c0878903121562004fa2575f80fd5b863562004faf816200476a565b9550602087013562004fc1816200476a565b945062004fd1604088016200477f565b935062004fe16060880162004f03565b92506080870135915060a08701356001600160401b0381111562005003575f80fd5b6200501189828a0162004b6b565b9150509295509295509295565b6020808252602e908201527f496e697469616c697a61626c653a20636f6e747261637420697320616c72656160408201526d191e481a5b9a5d1a585b1a5e995960921b606082015260800190565b80545f90600181811c90808316806200508657607f831692505b60208084108203620050a657634e487b7160e01b5f52602260045260245ffd5b83885260208801828015620050c45760018114620050db5762005106565b60ff198716825285151560051b8201975062005106565b5f898152602090205f5b878110156200510057815484820152908601908401620050e5565b83019850505b5050505050505092915050565b6001600160a01b0387811682528616602082015260c0604082018190525f9062005140908301876200506c565b82810360608401526200515481876200506c565b608084019590955250506001600160401b039190911660a090910152949350505050565b6001600160401b039390931683526020830191909152604082015260600190565b634e487b7160e01b5f52601160045260245ffd5b6001600160401b03818116838216019080821115620051d057620051d062005199565b5092915050565b808202811582820484141762000f885762000f8862005199565b5f63ffffffff8083168181036200520c576200520c62005199565b6001019392505050565b6001600160a01b038481168252831660208201526060604082018190525f90620052439083018462004d29565b95945050505050565b6001600160a01b038781168252868116602083015263ffffffff861660408301528416606082015260c0608082018190525f906200528d9083018562004d29565b82810360a0840152620052a1818562004d29565b9998505050505050505050565b6001600160401b03828116828216039080821115620051d057620051d062005199565b5f6001600160401b038281166002600160401b031981016200520c576200520c62005199565b634e487b7160e01b5f52603260045260245ffd5b8082018082111562000f885762000f8862005199565b5f6001820162005335576200533562005199565b5060010190565b5f602082840312156200534d575f80fd5b5051919050565b634e487b7160e01b5f52601260045260245ffd5b5f8262005379576200537962005354565b500490565b5f826200538f576200538f62005354565b500690565b8181038181111562000f885762000f8862005199565b918252602082015260400190565b5f81620053c957620053c962005199565b505f190190565b6001600160a01b03841681526040602082018190528101829052818360608301375f818301606090810191909152601f909201601f1916010192915050565b6001600160a01b038781168252861660208201526001600160401b038516604082015260ff841660608201526080810183905260c060a082018190525f9062004e099083018462004d29565b5f82516200546e81846020870162004d05565b9190910192915050565b6103208101610300808584378201835f5b6001811015620054aa57815183526020928301929091019060010162005489565b5050509392505050565b5f60208284031215620054c5575f80fd5b8151801515811462004ab8575f80fd5b5f6001600160401b0383811680620054f157620054f162005354565b9216919091049291505056fe60a06040526040516108b83803806108b883398101604081905261002291610349565b828161002e8282610056565b50506001600160a01b03821660805261004e61004960805190565b6100b4565b50505061042e565b61005f82610121565b6040516001600160a01b038316907fbc7cd75a20ee27fd9adebab32041f755214dbc6bffa90cc0225b39da2e5c2d3b905f90a28051156100a8576100a3828261019f565b505050565b6100b0610212565b5050565b7f7e644d79422f17c01e4894b5f4f588d331ebfa28653d42ae832dc59e38c9798f6100f35f80516020610898833981519152546001600160a01b031690565b604080516001600160a01b03928316815291841660208301520160405180910390a161011e81610233565b50565b806001600160a01b03163b5f0361015b57604051634c9c8ce360e01b81526001600160a01b03821660048201526024015b60405180910390fd5b807f360894a13ba1a3210667c828492db98dca3e2076cc3735a920a3ca505d382bbc5b80546001600160a01b0319166001600160a01b039290921691909117905550565b60605f80846001600160a01b0316846040516101bb9190610413565b5f60405180830381855af49150503d805f81146101f3576040519150601f19603f3d011682016040523d82523d5f602084013e6101f8565b606091505b509092509050610209858383610270565b95945050505050565b34156102315760405163b398979f60e01b815260040160405180910390fd5b565b6001600160a01b03811661025c57604051633173bdd160e11b81525f6004820152602401610152565b805f8051602061089883398151915261017e565b60608261028557610280826102cf565b6102c8565b815115801561029c57506001600160a01b0384163b155b156102c557604051639996b31560e01b81526001600160a01b0385166004820152602401610152565b50805b9392505050565b8051156102df5780518082602001fd5b604051630a12f52160e11b815260040160405180910390fd5b80516001600160a01b038116811461030e575f80fd5b919050565b634e487b7160e01b5f52604160045260245ffd5b5f5b83811015610341578181015183820152602001610329565b50505f910152565b5f805f6060848603121561035b575f80fd5b610364846102f8565b9250610372602085016102f8565b60408501519092506001600160401b038082111561038e575f80fd5b818601915086601f8301126103a1575f80fd5b8151818111156103b3576103b3610313565b604051601f8201601f19908116603f011681019083821181831017156103db576103db610313565b816040528281528960208487010111156103f3575f80fd5b610404836020830160208801610327565b80955050505050509250925092565b5f8251610424818460208701610327565b9190910192915050565b6080516104536104455f395f601001526104535ff3fe608060405261000c61000e565b005b7f00000000000000000000000000000000000000000000000000000000000000006001600160a01b03163303610069575f356001600160e01b03191663278f794360e11b146100615761005f61006d565b565b61005f61007d565b61005f5b61005f6100786100ab565b6100cf565b5f8061008c36600481846102ba565b81019061009991906102f5565b915091506100a782826100ed565b5050565b5f6100ca5f805160206103fe833981519152546001600160a01b031690565b905090565b365f80375f80365f845af43d5f803e8080156100e9573d5ff35b3d5ffd5b6100f682610147565b6040516001600160a01b038316907fbc7cd75a20ee27fd9adebab32041f755214dbc6bffa90cc0225b39da2e5c2d3b905f90a280511561013f5761013a82826101aa565b505050565b6100a761021c565b806001600160a01b03163b5f0361017c5780604051634c9c8ce360e01b815260040161017391906103bd565b60405180910390fd5b5f805160206103fe83398151915280546001600160a01b0319166001600160a01b0392909216919091179055565b60605f80846001600160a01b0316846040516101c691906103d1565b5f60405180830381855af49150503d805f81146101fe576040519150601f19603f3d011682016040523d82523d5f602084013e610203565b606091505b509150915061021385838361023b565b95945050505050565b341561005f5760405163b398979f60e01b815260040160405180910390fd5b6060826102505761024b82610291565b61028a565b815115801561026757506001600160a01b0384163b155b156102875783604051639996b31560e01b815260040161017391906103bd565b50805b9392505050565b8051156102a15780518082602001fd5b604051630a12f52160e11b815260040160405180910390fd5b5f80858511156102c8575f80fd5b838611156102d4575f80fd5b5050820193919092039150565b634e487b7160e01b5f52604160045260245ffd5b5f8060408385031215610306575f80fd5b82356001600160a01b038116811461031c575f80fd5b915060208301356001600160401b0380821115610337575f80fd5b818501915085601f83011261034a575f80fd5b81358181111561035c5761035c6102e1565b604051601f8201601f19908116603f01168101908382118183101715610384576103846102e1565b8160405282815288602084870101111561039c575f80fd5b826020860160208301375f6020848301015280955050505050509250929050565b6001600160a01b0391909116815260200190565b5f82515f5b818110156103f057602081860181015185830152016103d6565b505f92019182525091905056fe360894a13ba1a3210667c828492db98dca3e2076cc3735a920a3ca505d382bbca2646970667358221220d3b91b386436af95579d7d767b3c6e83ae79b09bd8dd9344bddb95185404c56564736f6c63430008140033b53127684a568b3173ae13b9f8a6016e243e63b6e8ee1178d6a717850b5d610373cb0569fdbea2544dae03fdb2fe10eda92a72a2e8cd2bd496e85b762505a3f066156603fe29d13f97c6f3e3dff4ef71919f9aa61c555be0182d954e94221aac8cf807f6970720f8e2c208c7c5037595982c7bd9ed93c380d09df743d0dcc3fbab66e11c4f712cd06ab11bf9339b48bef39e12d4a22eeef71d2860a0c90482bdac75d24dbb35ea80e25fab167da4dea46c1915260426570db84f184891f5f59062ba6ba2ffed8cfe316b583325ea41ac6e7ba9e5864d2bc6fabba7ac26d2f0f430644e72e131a029b85045b68181585d2833e84879b9709143e1f593f00000017f26b83ff96e1f2b6a682f133852f6798a09c465da95921460cefb38474024983dfe277d2a2c04b75fb2eb3743fa00005ae3678a20c299e65fdf4df76517f68ea5c5790f581d443ed43873ab47cfb8c5d66a6db268e58b5971bb33fc66e07db19b6f082d8d3644ae2f24a3c32e356d6f2d9b2844d9b26164fbc82663ff285951141f8f32ce6198eee741f695cec728bfd32d289f1acf73621fb303581000545ea0fab074aba36a6fa69f1a83ee86e5abfb8433966eb57efb13dc2fc2f24ddd08084e94f375e9d647f87f5b2ceffba1e062c70f6009fdbcf80291e803b5c9edd4a2646970667358221220a07431832387d454064cd10775d727c93a4ad157d0f5a7d0d67f3686de72f0fa64736f6c63430008140033",
  "linkReferences": {},
  "deployedLinkReferences": {}
}