{
  "_format": "hh-sol-artifact-1",
  "contractName": "PolygonZkEVM",
  "sourceName": "contracts/PolygonZkEVM.sol",
  "abi": [
    {
      "inputs": [
        {
          "internalType": "contract IPolygonZkEVMGlobalExitRoot",
          "name": "_globalExitRootManager",
          "type": "address"
        },
        {
          "internalType": "contract IERC20Upgradeable",
          "name": "_matic",
          "type": "address"
        },
        {
          "internalType": "contract IVerifierRollup",
          "name": "_rollupVerifier",
          "type": "address"
        },
        {
          "internalType": "contract IPolygonZkEVMBridge",
          "name": "_bridgeAddress",
          "type": "address"
        },
        {
          "internalType": "uint64",
          "name": "_chainID",
          "type": "uint64"
        }
      ],
      "stateMutability": "nonpayable",
      "type": "constructor"
    },
    {
      "anonymous": false,
      "inputs": [
        {
          "indexed": false,
          "internalType": "address",
          "name": "newAdmin",
          "type": "address"
        }
      ],
      "name": "AcceptAdminRole",
      "type": "event"
    },
    {
      "anonymous": false,
      "inputs": [
        {
          "indexed": true,
          "internalType": "uint64",
          "name": "numBatch",
          "type": "uint64"
        },
        {
          "indexed": false,
          "internalType": "bytes32",
          "name": "stateRoot",
          "type": "bytes32"
        },
        {
          "indexed": true,
          "internalType": "uint64",
          "name": "pendingStateNum",
          "type": "uint64"
        }
      ],
      "name": "ConsolidatePendingState",
      "type": "event"
    },
    {
      "anonymous": false,
      "inputs": [],
      "name": "EmergencyStateActivated",
      "type": "event"
    },
    {
      "anonymous": false,
      "inputs": [],
      "name": "EmergencyStateDeactivated",
      "type": "event"
    },
    {
      "anonymous": false,
      "inputs": [
        {
          "indexed": true,
          "internalType": "uint64",
          "name": "forceBatchNum",
          "type": "uint64"
        },
        {
          "indexed": false,
          "internalType": "bytes32",
          "name": "lastGlobalExitRoot",
          "type": "bytes32"
        },
        {
          "indexed": false,
          "internalType": "address",
          "name": "sequencer",
          "type": "address"
        },
        {
          "indexed": false,
          "internalType": "bytes",
          "name": "transactions",
          "type": "bytes"
        }
      ],
      "name": "ForceBatch",
      "type": "event"
    },
    {
      "anonymous": false,
      "inputs": [
        {
          "indexed": false,
          "internalType": "uint8",
          "name": "version",
          "type": "uint8"
        }
      ],
      "name": "Initialized",
      "type": "event"
    },
    {
      "anonymous": false,
      "inputs": [
        {
          "indexed": true,
          "internalType": "uint64",
          "name": "numBatch",
          "type": "uint64"
        },
        {
          "indexed": false,
          "internalType": "bytes32",
          "name": "stateRoot",
          "type": "bytes32"
        },
        {
          "indexed": true,
          "internalType": "address",
          "name": "aggregator",
          "type": "address"
        }
      ],
      "name": "OverridePendingState",
      "type": "event"
    },
    {
      "anonymous": false,
      "inputs": [
        {
          "indexed": true,
          "internalType": "address",
          "name": "previousOwner",
          "type": "address"
        },
        {
          "indexed": true,
          "internalType": "address",
          "name": "newOwner",
          "type": "address"
        }
      ],
      "name": "OwnershipTransferred",
      "type": "event"
    },
    {
      "anonymous": false,
      "inputs": [
        {
          "indexed": false,
          "internalType": "bytes32",
          "name": "storedStateRoot",
          "type": "bytes32"
        },
        {
          "indexed": false,
          "internalType": "bytes32",
          "name": "provedStateRoot",
          "type": "bytes32"
        }
      ],
      "name": "ProveNonDeterministicPendingState",
      "type": "event"
    },
    {
      "anonymous": false,
      "inputs": [
        {
          "indexed": true,
          "internalType": "uint64",
          "name": "numBatch",
          "type": "uint64"
        }
      ],
      "name": "SequenceBatches",
      "type": "event"
    },
    {
      "anonymous": false,
      "inputs": [
        {
          "indexed": true,
          "internalType": "uint64",
          "name": "numBatch",
          "type": "uint64"
        }
      ],
      "name": "SequenceForceBatches",
      "type": "event"
    },
    {
      "anonymous": false,
      "inputs": [
        {
          "indexed": false,
          "internalType": "uint16",
          "name": "newMultiplierBatchFee",
          "type": "uint16"
        }
      ],
      "name": "SetMultiplierBatchFee",
      "type": "event"
    },
    {
      "anonymous": false,
      "inputs": [
        {
          "indexed": false,
          "internalType": "uint64",
          "name": "newPendingStateTimeout",
          "type": "uint64"
        }
      ],
      "name": "SetPendingStateTimeout",
      "type": "event"
    },
    {
      "anonymous": false,
      "inputs": [
        {
          "indexed": false,
          "internalType": "address",
          "name": "newTrustedAggregator",
          "type": "address"
        }
      ],
      "name": "SetTrustedAggregator",
      "type": "event"
    },
    {
      "anonymous": false,
      "inputs": [
        {
          "indexed": false,
          "internalType": "uint64",
          "name": "newTrustedAggregatorTimeout",
          "type": "uint64"
        }
      ],
      "name": "SetTrustedAggregatorTimeout",
      "type": "event"
    },
    {
      "anonymous": false,
      "inputs": [
        {
          "indexed": false,
          "internalType": "address",
          "name": "newTrustedSequencer",
          "type": "address"
        }
      ],
      "name": "SetTrustedSequencer",
      "type": "event"
    },
    {
      "anonymous": false,
      "inputs": [
        {
          "indexed": false,
          "internalType": "string",
          "name": "newTrustedSequencerURL",
          "type": "string"
        }
      ],
      "name": "SetTrustedSequencerURL",
      "type": "event"
    },
    {
      "anonymous": false,
      "inputs": [
        {
          "indexed": false,
          "internalType": "uint64",
          "name": "newVerifyBatchTimeTarget",
          "type": "uint64"
        }
      ],
      "name": "SetVerifyBatchTimeTarget",
      "type": "event"
    },
    {
      "anonymous": false,
      "inputs": [
        {
          "indexed": false,
          "internalType": "address",
          "name": "newPendingAdmin",
          "type": "address"
        }
      ],
      "name": "TransferAdminRole",
      "type": "event"
    },
    {
      "anonymous": false,
      "inputs": [
        {
          "indexed": true,
          "internalType": "uint64",
          "name": "numBatch",
          "type": "uint64"
        },
        {
          "indexed": false,
          "internalType": "bytes32",
          "name": "stateRoot",
          "type": "bytes32"
        },
        {
          "indexed": true,
          "internalType": "address",
          "name": "aggregator",
          "type": "address"
        }
      ],
      "name": "TrustedVerifyBatches",
      "type": "event"
    },
    {
      "anonymous": false,
      "inputs": [
        {
          "indexed": true,
          "internalType": "uint64",
          "name": "numBatch",
          "type": "uint64"
        },
        {
          "indexed": false,
          "internalType": "bytes32",
          "name": "stateRoot",
          "type": "bytes32"
        },
        {
          "indexed": true,
          "internalType": "address",
          "name": "aggregator",
          "type": "address"
        }
      ],
      "name": "VerifyBatches",
      "type": "event"
    },
    {
      "inputs": [],
      "name": "acceptAdminRole",
      "outputs": [],
      "stateMutability": "nonpayable",
      "type": "function"
    },
    {
      "inputs": [
        {
          "internalType": "uint64",
          "name": "sequencedBatchNum",
          "type": "uint64"
        }
      ],
      "name": "activateEmergencyState",
      "outputs": [],
      "stateMutability": "nonpayable",
      "type": "function"
    },
    {
      "inputs": [],
      "name": "admin",
      "outputs": [
        {
          "internalType": "address",
          "name": "",
          "type": "address"
        }
      ],
      "stateMutability": "view",
      "type": "function"
    },
    {
      "inputs": [],
      "name": "batchFee",
      "outputs": [
        {
          "internalType": "uint256",
          "name": "",
          "type": "uint256"
        }
      ],
      "stateMutability": "view",
      "type": "function"
    },
    {
      "inputs": [
        {
          "internalType": "uint64",
          "name": "",
          "type": "uint64"
        }
      ],
      "name": "batchNumToStateRoot",
      "outputs": [
        {
          "internalType": "bytes32",
          "name": "",
          "type": "bytes32"
        }
      ],
      "stateMutability": "view",
      "type": "function"
    },
    {
      "inputs": [],
      "name": "bridgeAddress",
      "outputs": [
        {
          "internalType": "contract IPolygonZkEVMBridge",
          "name": "",
          "type": "address"
        }
      ],
      "stateMutability": "view",
      "type": "function"
    },
    {
      "inputs": [],
      "name": "calculateRewardPerBatch",
      "outputs": [
        {
          "internalType": "uint256",
          "name": "",
          "type": "uint256"
        }
      ],
      "stateMutability": "view",
      "type": "function"
    },
    {
      "inputs": [],
      "name": "chainID",
      "outputs": [
        {
          "internalType": "uint64",
          "name": "",
          "type": "uint64"
        }
      ],
      "stateMutability": "view",
      "type": "function"
    },
    {
      "inputs": [
        {
          "internalType": "uint64",
          "name": "pendingStateNum",
          "type": "uint64"
        }
      ],
      "name": "consolidatePendingState",
      "outputs": [],
      "stateMutability": "nonpayable",
      "type": "function"
    },
    {
      "inputs": [],
      "name": "deactivateEmergencyState",
      "outputs": [],
      "stateMutability": "nonpayable",
      "type": "function"
    },
    {
      "inputs": [
        {
          "internalType": "bytes",
          "name": "transactions",
          "type": "bytes"
        },
        {
          "internalType": "uint256",
          "name": "maticAmount",
          "type": "uint256"
        }
      ],
      "name": "forceBatch",
      "outputs": [],
      "stateMutability": "nonpayable",
      "type": "function"
    },
    {
      "inputs": [
        {
          "internalType": "uint64",
          "name": "",
          "type": "uint64"
        }
      ],
      "name": "forcedBatches",
      "outputs": [
        {
          "internalType": "bytes32",
          "name": "",
          "type": "bytes32"
        }
      ],
      "stateMutability": "view",
      "type": "function"
    },
    {
      "inputs": [],
      "name": "getCurrentBatchFee",
      "outputs": [
        {
          "internalType": "uint256",
          "name": "",
          "type": "uint256"
        }
      ],
      "stateMutability": "view",
      "type": "function"
    },
    {
      "inputs": [
        {
          "internalType": "uint64",
          "name": "initNumBatch",
          "type": "uint64"
        },
        {
          "internalType": "uint64",
          "name": "finalNewBatch",
          "type": "uint64"
        },
        {
          "internalType": "bytes32",
          "name": "newLocalExitRoot",
          "type": "bytes32"
        },
        {
          "internalType": "bytes32",
          "name": "oldStateRoot",
          "type": "bytes32"
        },
        {
          "internalType": "bytes32",
          "name": "newStateRoot",
          "type": "bytes32"
        }
      ],
      "name": "getInputSnarkBytes",
      "outputs": [
        {
          "internalType": "bytes",
          "name": "",
          "type": "bytes"
        }
      ],
      "stateMutability": "view",
      "type": "function"
    },
    {
      "inputs": [],
      "name": "getLastVerifiedBatch",
      "outputs": [
        {
          "internalType": "uint64",
          "name": "",
          "type": "uint64"
        }
      ],
      "stateMutability": "view",
      "type": "function"
    },
    {
      "inputs": [],
      "name": "globalExitRootManager",
      "outputs": [
        {
          "internalType": "contract IPolygonZkEVMGlobalExitRoot",
          "name": "",
          "type": "address"
        }
      ],
      "stateMutability": "view",
      "type": "function"
    },
    {
      "inputs": [
        {
          "components": [
            {
              "internalType": "address",
              "name": "admin",
              "type": "address"
            },
            {
              "internalType": "address",
              "name": "trustedSequencer",
              "type": "address"
            },
            {
              "internalType": "uint64",
              "name": "pendingStateTimeout",
              "type": "uint64"
            },
            {
              "internalType": "address",
              "name": "trustedAggregator",
              "type": "address"
            },
            {
              "internalType": "uint64",
              "name": "trustedAggregatorTimeout",
              "type": "uint64"
            }
          ],
          "internalType": "struct PolygonZkEVM.InitializePackedParameters",
          "name": "initializePackedParameters",
          "type": "tuple"
        },
        {
          "internalType": "bytes32",
          "name": "genesisRoot",
          "type": "bytes32"
        },
        {
          "internalType": "string",
          "name": "_trustedSequencerURL",
          "type": "string"
        },
        {
          "internalType": "string",
          "name": "_networkName",
          "type": "string"
        }
      ],
      "name": "initialize",
      "outputs": [],
      "stateMutability": "nonpayable",
      "type": "function"
    },
    {
      "inputs": [],
      "name": "isEmergencyState",
      "outputs": [
        {
          "internalType": "bool",
          "name": "",
          "type": "bool"
        }
      ],
      "stateMutability": "view",
      "type": "function"
    },
    {
      "inputs": [
        {
          "internalType": "uint64",
          "name": "pendingStateNum",
          "type": "uint64"
        }
      ],
      "name": "isPendingStateConsolidable",
      "outputs": [
        {
          "internalType": "bool",
          "name": "",
          "type": "bool"
        }
      ],
      "stateMutability": "view",
      "type": "function"
    },
    {
      "inputs": [],
      "name": "lastBatchSequenced",
      "outputs": [
        {
          "internalType": "uint64",
          "name": "",
          "type": "uint64"
        }
      ],
      "stateMutability": "view",
      "type": "function"
    },
    {
      "inputs": [],
      "name": "lastForceBatch",
      "outputs": [
        {
          "internalType": "uint64",
          "name": "",
          "type": "uint64"
        }
      ],
      "stateMutability": "view",
      "type": "function"
    },
    {
      "inputs": [],
      "name": "lastForceBatchSequenced",
      "outputs": [
        {
          "internalType": "uint64",
          "name": "",
          "type": "uint64"
        }
      ],
      "stateMutability": "view",
      "type": "function"
    },
    {
      "inputs": [],
      "name": "lastPendingState",
      "outputs": [
        {
          "internalType": "uint64",
          "name": "",
          "type": "uint64"
        }
      ],
      "stateMutability": "view",
      "type": "function"
    },
    {
      "inputs": [],
      "name": "lastPendingStateConsolidated",
      "outputs": [
        {
          "internalType": "uint64",
          "name": "",
          "type": "uint64"
        }
      ],
      "stateMutability": "view",
      "type": "function"
    },
    {
      "inputs": [],
      "name": "lastTimestamp",
      "outputs": [
        {
          "internalType": "uint64",
          "name": "",
          "type": "uint64"
        }
      ],
      "stateMutability": "view",
      "type": "function"
    },
    {
      "inputs": [],
      "name": "lastVerifiedBatch",
      "outputs": [
        {
          "internalType": "uint64",
          "name": "",
          "type": "uint64"
        }
      ],
      "stateMutability": "view",
      "type": "function"
    },
    {
      "inputs": [],
      "name": "matic",
      "outputs": [
        {
          "internalType": "contract IERC20Upgradeable",
          "name": "",
          "type": "address"
        }
      ],
      "stateMutability": "view",
      "type": "function"
    },
    {
      "inputs": [],
      "name": "multiplierBatchFee",
      "outputs": [
        {
          "internalType": "uint16",
          "name": "",
          "type": "uint16"
        }
      ],
      "stateMutability": "view",
      "type": "function"
    },
    {
      "inputs": [],
      "name": "networkName",
      "outputs": [
        {
          "internalType": "string",
          "name": "",
          "type": "string"
        }
      ],
      "stateMutability": "view",
      "type": "function"
    },
    {
      "inputs": [
        {
          "internalType": "uint64",
          "name": "initPendingStateNum",
          "type": "uint64"
        },
        {
          "internalType": "uint64",
          "name": "finalPendingStateNum",
          "type": "uint64"
        },
        {
          "internalType": "uint64",
          "name": "initNumBatch",
          "type": "uint64"
        },
        {
          "internalType": "uint64",
          "name": "finalNewBatch",
          "type": "uint64"
        },
        {
          "internalType": "bytes32",
          "name": "newLocalExitRoot",
          "type": "bytes32"
        },
        {
          "internalType": "bytes32",
          "name": "newStateRoot",
          "type": "bytes32"
        },
        {
          "internalType": "uint256[2]",
          "name": "proofA",
          "type": "uint256[2]"
        },
        {
          "internalType": "uint256[2][2]",
          "name": "proofB",
          "type": "uint256[2][2]"
        },
        {
          "internalType": "uint256[2]",
          "name": "proofC",
          "type": "uint256[2]"
        }
      ],
      "name": "overridePendingState",
      "outputs": [],
      "stateMutability": "nonpayable",
      "type": "function"
    },
    {
      "inputs": [],
      "name": "owner",
      "outputs": [
        {
          "internalType": "address",
          "name": "",
          "type": "address"
        }
      ],
      "stateMutability": "view",
      "type": "function"
    },
    {
      "inputs": [],
      "name": "pendingAdmin",
      "outputs": [
        {
          "internalType": "address",
          "name": "",
          "type": "address"
        }
      ],
      "stateMutability": "view",
      "type": "function"
    },
    {
      "inputs": [],
      "name": "pendingStateTimeout",
      "outputs": [
        {
          "internalType": "uint64",
          "name": "",
          "type": "uint64"
        }
      ],
      "stateMutability": "view",
      "type": "function"
    },
    {
      "inputs": [
        {
          "internalType": "uint256",
          "name": "",
          "type": "uint256"
        }
      ],
      "name": "pendingStateTransitions",
      "outputs": [
        {
          "internalType": "uint64",
          "name": "timestamp",
          "type": "uint64"
        },
        {
          "internalType": "uint64",
          "name": "lastVerifiedBatch",
          "type": "uint64"
        },
        {
          "internalType": "bytes32",
          "name": "exitRoot",
          "type": "bytes32"
        },
        {
          "internalType": "bytes32",
          "name": "stateRoot",
          "type": "bytes32"
        }
      ],
      "stateMutability": "view",
      "type": "function"
    },
    {
      "inputs": [
        {
          "internalType": "uint64",
          "name": "initPendingStateNum",
          "type": "uint64"
        },
        {
          "internalType": "uint64",
          "name": "finalPendingStateNum",
          "type": "uint64"
        },
        {
          "internalType": "uint64",
          "name": "initNumBatch",
          "type": "uint64"
        },
        {
          "internalType": "uint64",
          "name": "finalNewBatch",
          "type": "uint64"
        },
        {
          "internalType": "bytes32",
          "name": "newLocalExitRoot",
          "type": "bytes32"
        },
        {
          "internalType": "bytes32",
          "name": "newStateRoot",
          "type": "bytes32"
        },
        {
          "internalType": "uint256[2]",
          "name": "proofA",
          "type": "uint256[2]"
        },
        {
          "internalType": "uint256[2][2]",
          "name": "proofB",
          "type": "uint256[2][2]"
        },
        {
          "internalType": "uint256[2]",
          "name": "proofC",
          "type": "uint256[2]"
        }
      ],
      "name": "proveNonDeterministicPendingState",
      "outputs": [],
      "stateMutability": "nonpayable",
      "type": "function"
    },
    {
      "inputs": [],
      "name": "renounceOwnership",
      "outputs": [],
      "stateMutability": "nonpayable",
      "type": "function"
    },
    {
      "inputs": [],
      "name": "rollupVerifier",
      "outputs": [
        {
          "internalType": "contract IVerifierRollup",
          "name": "",
          "type": "address"
        }
      ],
      "stateMutability": "view",
      "type": "function"
    },
    {
      "inputs": [
        {
          "components": [
            {
              "internalType": "bytes",
              "name": "transactions",
              "type": "bytes"
            },
            {
              "internalType": "bytes32",
              "name": "globalExitRoot",
              "type": "bytes32"
            },
            {
              "internalType": "uint64",
              "name": "timestamp",
              "type": "uint64"
            },
            {
              "internalType": "uint64",
              "name": "minForcedTimestamp",
              "type": "uint64"
            }
          ],
          "internalType": "struct PolygonZkEVM.BatchData[]",
          "name": "batches",
          "type": "tuple[]"
        }
      ],
      "name": "sequenceBatches",
      "outputs": [],
      "stateMutability": "nonpayable",
      "type": "function"
    },
    {
      "inputs": [
        {
          "components": [
            {
              "internalType": "bytes",
              "name": "transactions",
              "type": "bytes"
            },
            {
              "internalType": "bytes32",
              "name": "globalExitRoot",
              "type": "bytes32"
            },
            {
              "internalType": "uint64",
              "name": "minForcedTimestamp",
              "type": "uint64"
            }
          ],
          "internalType": "struct PolygonZkEVM.ForcedBatchData[]",
          "name": "batches",
          "type": "tuple[]"
        }
      ],
      "name": "sequenceForceBatches",
      "outputs": [],
      "stateMutability": "nonpayable",
      "type": "function"
    },
    {
      "inputs": [
        {
          "internalType": "uint64",
          "name": "",
          "type": "uint64"
        }
      ],
      "name": "sequencedBatches",
      "outputs": [
        {
          "internalType": "bytes32",
          "name": "accInputHash",
          "type": "bytes32"
        },
        {
          "internalType": "uint64",
          "name": "sequencedTimestamp",
          "type": "uint64"
        },
        {
          "internalType": "uint64",
          "name": "previousLastBatchSequenced",
          "type": "uint64"
        }
      ],
      "stateMutability": "view",
      "type": "function"
    },
    {
      "inputs": [
        {
          "internalType": "uint16",
          "name": "newMultiplierBatchFee",
          "type": "uint16"
        }
      ],
      "name": "setMultiplierBatchFee",
      "outputs": [],
      "stateMutability": "nonpayable",
      "type": "function"
    },
    {
      "inputs": [
        {
          "internalType": "uint64",
          "name": "newPendingStateTimeout",
          "type": "uint64"
        }
      ],
      "name": "setPendingStateTimeout",
      "outputs": [],
      "stateMutability": "nonpayable",
      "type": "function"
    },
    {
      "inputs": [
        {
          "internalType": "address",
          "name": "newTrustedAggregator",
          "type": "address"
        }
      ],
      "name": "setTrustedAggregator",
      "outputs": [],
      "stateMutability": "nonpayable",
      "type": "function"
    },
    {
      "inputs": [
        {
          "internalType": "uint64",
          "name": "newTrustedAggregatorTimeout",
          "type": "uint64"
        }
      ],
      "name": "setTrustedAggregatorTimeout",
      "outputs": [],
      "stateMutability": "nonpayable",
      "type": "function"
    },
    {
      "inputs": [
        {
          "internalType": "address",
          "name": "newTrustedSequencer",
          "type": "address"
        }
      ],
      "name": "setTrustedSequencer",
      "outputs": [],
      "stateMutability": "nonpayable",
      "type": "function"
    },
    {
      "inputs": [
        {
          "internalType": "string",
          "name": "newTrustedSequencerURL",
          "type": "string"
        }
      ],
      "name": "setTrustedSequencerURL",
      "outputs": [],
      "stateMutability": "nonpayable",
      "type": "function"
    },
    {
      "inputs": [
        {
          "internalType": "uint64",
          "name": "newVerifyBatchTimeTarget",
          "type": "uint64"
        }
      ],
      "name": "setVerifyBatchTimeTarget",
      "outputs": [],
      "stateMutability": "nonpayable",
      "type": "function"
    },
    {
      "inputs": [
        {
          "internalType": "address",
          "name": "newPendingAdmin",
          "type": "address"
        }
      ],
      "name": "transferAdminRole",
      "outputs": [],
      "stateMutability": "nonpayable",
      "type": "function"
    },
    {
      "inputs": [
        {
          "internalType": "address",
          "name": "newOwner",
          "type": "address"
        }
      ],
      "name": "transferOwnership",
      "outputs": [],
      "stateMutability": "nonpayable",
      "type": "function"
    },
    {
      "inputs": [],
      "name": "trustedAggregator",
      "outputs": [
        {
          "internalType": "address",
          "name": "",
          "type": "address"
        }
      ],
      "stateMutability": "view",
      "type": "function"
    },
    {
      "inputs": [],
      "name": "trustedAggregatorTimeout",
      "outputs": [
        {
          "internalType": "uint64",
          "name": "",
          "type": "uint64"
        }
      ],
      "stateMutability": "view",
      "type": "function"
    },
    {
      "inputs": [],
      "name": "trustedSequencer",
      "outputs": [
        {
          "internalType": "address",
          "name": "",
          "type": "address"
        }
      ],
      "stateMutability": "view",
      "type": "function"
    },
    {
      "inputs": [],
      "name": "trustedSequencerURL",
      "outputs": [
        {
          "internalType": "string",
          "name": "",
          "type": "string"
        }
      ],
      "stateMutability": "view",
      "type": "function"
    },
    {
      "inputs": [
        {
          "internalType": "uint64",
          "name": "pendingStateNum",
          "type": "uint64"
        },
        {
          "internalType": "uint64",
          "name": "initNumBatch",
          "type": "uint64"
        },
        {
          "internalType": "uint64",
          "name": "finalNewBatch",
          "type": "uint64"
        },
        {
          "internalType": "bytes32",
          "name": "newLocalExitRoot",
          "type": "bytes32"
        },
        {
          "internalType": "bytes32",
          "name": "newStateRoot",
          "type": "bytes32"
        },
        {
          "internalType": "uint256[2]",
          "name": "proofA",
          "type": "uint256[2]"
        },
        {
          "internalType": "uint256[2][2]",
          "name": "proofB",
          "type": "uint256[2][2]"
        },
        {
          "internalType": "uint256[2]",
          "name": "proofC",
          "type": "uint256[2]"
        }
      ],
      "name": "trustedVerifyBatches",
      "outputs": [],
      "stateMutability": "nonpayable",
      "type": "function"
    },
    {
      "inputs": [],
      "name": "verifyBatchTimeTarget",
      "outputs": [
        {
          "internalType": "uint64",
          "name": "",
          "type": "uint64"
        }
      ],
      "stateMutability": "view",
      "type": "function"
    },
    {
      "inputs": [
        {
          "internalType": "uint64",
          "name": "pendingStateNum",
          "type": "uint64"
        },
        {
          "internalType": "uint64",
          "name": "initNumBatch",
          "type": "uint64"
        },
        {
          "internalType": "uint64",
          "name": "finalNewBatch",
          "type": "uint64"
        },
        {
          "internalType": "bytes32",
          "name": "newLocalExitRoot",
          "type": "bytes32"
        },
        {
          "internalType": "bytes32",
          "name": "newStateRoot",
          "type": "bytes32"
        },
        {
          "internalType": "uint256[2]",
          "name": "proofA",
          "type": "uint256[2]"
        },
        {
          "internalType": "uint256[2][2]",
          "name": "proofB",
          "type": "uint256[2][2]"
        },
        {
          "internalType": "uint256[2]",
          "name": "proofC",
          "type": "uint256[2]"
        }
      ],
      "name": "verifyBatches",
      "outputs": [],
      "stateMutability": "nonpayable",
      "type": "function"
    }
  ],
  "bytecode": "0x6101206040523480156200001257600080fd5b506040516200584838038062005848833981016040819052620000359162000081565b6001600160a01b0394851660c05292841660805290831660a05290911660e0526001600160401b0316610100526200010c565b6001600160a01b03811681146200007e57600080fd5b50565b600080600080600060a086880312156200009a57600080fd5b8551620000a78162000068565b6020870151909550620000ba8162000068565b6040870151909450620000cd8162000068565b6060870151909350620000e08162000068565b60808701519092506001600160401b0381168114620000fe57600080fd5b809150509295509295909350565b60805160a05160c05160e0516101005161568e620001ba600039600081816106590152610b9b01526000818161061f01528181612bbc0152613df5015260008181610777015281816111c20152818161180901528181612cd801528181612eda015281816131750152613c8d01526000818161080001528181613812015261434401526000818161071b0152818161159901528181611ec901528181612eae0152613920015261568e6000f3fe608060405234801561001057600080fd5b50600436106102f85760003560e01c80638da5cb5b11610193578063cfa8ed47116100e4578063e8bf92ed11610092578063e8bf92ed146107fb578063eaeb077b14610822578063edc4112114610835578063f14916d614610848578063f2fde38b1461085b578063f851a4401461086e578063f8b823e41461088157600080fd5b8063cfa8ed4714610758578063d02103ca14610772578063d8d1091b14610799578063d939b315146107ac578063dbc16976146107c6578063e11f3f18146107ce578063e7a7ed02146107e157600080fd5b8063adc879e911610141578063adc879e914610654578063afd23cbe1461067b578063b2291b3f146106a3578063b4d63f58146106b6578063b6b0b09714610716578063c0ed84e01461073d578063c89e42df1461074557600080fd5b80638da5cb5b146105d357806399f5634e146105e45780639c9f3dfe146105ec5780639f0d039d146105ff578063a066215c14610607578063a3c573eb1461061a578063ada8f9191461064157600080fd5b80634834a3431161024d578063715018a6116101fb578063715018a6146105025780637215541a1461050a57806375c508b31461051d5780637fcb365314610530578063837a473814610543578063841b24d7146105b15780638c3d7301146105cb57600080fd5b80634834a343146104595780634a1a89a71461046c5780634a910e6a146104865780635392c5e014610499578063542028d5146104c75780636b8616ce146104cf5780636ff512cc146104ef57600080fd5b806329878983116102aa57806329878983146103bf578063383b3be8146103d9578063394218e9146103ec5780633c158267146103ff578063423fa85614610412578063456052671461042c578063458c04771461044657600080fd5b80630a0d9fbe146102fd578063107bf28c1461033257806315064c96146103475780631816b7e51461036457806319d8ac6114610379578063220d78991461038c578063267822471461039f575b600080fd5b606f546103159061010090046001600160401b031681565b6040516001600160401b0390911681526020015b60405180910390f35b61033a61088a565b6040516103299190614929565b606f546103549060ff1681565b6040519015158152602001610329565b610377610372366004614943565b610918565b005b607354610315906001600160401b031681565b61033a61039a366004614983565b610a42565b607b546103b2906001600160a01b031681565b60405161032991906149d0565b6074546103b290600160401b90046001600160a01b031681565b6103546103e73660046149e4565b610bf9565b6103776103fa3660046149e4565b610c40565b61037761040d366004614a4a565b610dfc565b60735461031590600160401b90046001600160401b031681565b60735461031590600160801b90046001600160401b031681565b607954610315906001600160401b031681565b610377610467366004614ab3565b611608565b60795461031590600160401b90046001600160401b031681565b6103776104943660046149e4565b61196e565b6104b96104a73660046149e4565b60756020526000908152604090205481565b604051908152602001610329565b61033a611aaf565b6104b96104dd3660046149e4565b60716020526000908152604090205481565b6103776104fd366004614b40565b611abc565b610377611b3a565b6103776105183660046149e4565b611b4e565b61037761052b366004614b69565b611d55565b607454610315906001600160401b031681565b610586610551366004614c07565b6078602052600090815260409020805460018201546002909201546001600160401b0380831693600160401b90930416919084565b604080516001600160401b039586168152949093166020850152918301526060820152608001610329565b60795461031590600160c01b90046001600160401b031681565b610377611def565b6033546001600160a01b03166103b2565b6104b9611ec4565b6103776105fa3660046149e4565b611fd1565b6070546104b9565b6103776106153660046149e4565b61217f565b6103b27f000000000000000000000000000000000000000000000000000000000000000081565b61037761064f366004614b40565b61229a565b6103157f000000000000000000000000000000000000000000000000000000000000000081565b606f5461069090600160481b900461ffff1681565b60405161ffff9091168152602001610329565b6103776106b1366004614cc2565b61230f565b6106f16106c43660046149e4565b607260205260009081526040902080546001909101546001600160401b0380821691600160401b90041683565b604080519384526001600160401b039283166020850152911690820152606001610329565b6103b27f000000000000000000000000000000000000000000000000000000000000000081565b610315612625565b610377610753366004614d48565b612672565b606f546103b290600160581b90046001600160a01b031681565b6103b27f000000000000000000000000000000000000000000000000000000000000000081565b6103776107a7366004614a4a565b6126d8565b60795461031590600160801b90046001600160401b031681565b610377612b90565b6103776107dc366004614b69565b612c35565b60735461031590600160c01b90046001600160401b031681565b6103b27f000000000000000000000000000000000000000000000000000000000000000081565b610377610830366004614d7c565b612d9d565b610377610843366004614ab3565b6130d3565b610377610856366004614b40565b613216565b610377610869366004614b40565b613294565b607a546103b2906001600160a01b031681565b6104b960705481565b6077805461089790614df3565b80601f01602080910402602001604051908101604052809291908181526020018280546108c390614df3565b80156109105780601f106108e557610100808354040283529160200191610910565b820191906000526020600020905b8154815290600101906020018083116108f357829003601f168201915b505050505081565b607a546001600160a01b0316331461094b5760405162461bcd60e51b815260040161094290614e2d565b60405180910390fd5b6103e88161ffff161015801561096657506104008161ffff16105b6109eb5760405162461bcd60e51b815260206004820152604a60248201527f506f6c79676f6e5a6b45564d3a3a7365744d756c7469706c696572426174636860448201527f4665653a206e65774d756c7469706c696572426174636846656520696e636f72606482015269726563742072616e676560b01b608482015260a401610942565b606f805461ffff60481b1916600160481b61ffff8416908102919091179091556040519081527f7019933d795eba185c180209e8ae8bffbaa25bcef293364687702c31f4d302c5906020015b60405180910390a150565b6001600160401b03808616600081815260726020526040808220549388168252902054606092911580610a7457508115155b610ae8576040805162461bcd60e51b81526020600482015260248101919091527f506f6c79676f6e5a6b45564d3a3a676574496e707574536e61726b427974657360448201527f3a206f6c64416363496e7075744861736820646f6573206e6f742065786973746064820152608401610942565b80610b5d576040805162461bcd60e51b81526020600482015260248101919091527f506f6c79676f6e5a6b45564d3a3a676574496e707574536e61726b427974657360448201527f3a206e6577416363496e7075744861736820646f6573206e6f742065786973746064820152608401610942565b604080516001600160601b03193360601b166020820152603481019690965260548601929092526001600160c01b031960c098891b811660748701527f0000000000000000000000000000000000000000000000000000000000000000891b8116607c870152608486019490945260a485015260c4840194909452509290931b90911660e4830152805180830360cc01815260ec909201905290565b6079546001600160401b0382811660009081526078602052604081205490924292610c2f92600160801b90920481169116614e86565b6001600160401b0316111592915050565b607a546001600160a01b03163314610c6a5760405162461bcd60e51b815260040161094290614e2d565b62093a806001600160401b0382161115610d035760405162461bcd60e51b815260206004820152604e60248201527f506f6c79676f6e5a6b45564d3a3a73657454727573746564416767726567617460448201527f6f7254696d656f75743a20457863656564206d61782068616c7420616767726560648201526d19d85d1a5bdb881d1a5b595bdd5d60921b608482015260a401610942565b606f5460ff16610da6576079546001600160401b03600160c01b909104811690821610610da65760405162461bcd60e51b8152602060048201526044602482018190527f506f6c79676f6e5a6b45564d3a3a736574547275737465644167677265676174908201527f6f7254696d656f75743a204e65772074696d656f7574206d757374206265206c60648201526337bbb2b960e11b608482015260a401610942565b607980546001600160c01b0316600160c01b6001600160401b038416908102919091179091556040519081527f1f4fa24c2e4bad19a7f3ec5c5485f70d46c798461c2e684f55bbd0fc661373a190602001610a37565b606f5460ff1615610e1f5760405162461bcd60e51b815260040161094290614eb1565b606f54600160581b90046001600160a01b03163314610ea65760405162461bcd60e51b815260206004820152603a60248201527f506f6c79676f6e5a6b45564d3a3a6f6e6c795472757374656453657175656e6360448201527f65723a204f6e6c7920747275737465642073657175656e6365720000000000006064820152608401610942565b8080610f1a5760405162461bcd60e51b815260206004820152603d60248201527f506f6c79676f6e5a6b45564d3a3a73657175656e6365426174636865733a204160448201527f74206c65617374206d7573742073657175656e636520312062617463680000006064820152608401610942565b6103e8811115610f94576040805162461bcd60e51b81526020600482015260248101919091527f506f6c79676f6e5a6b45564d3a3a73657175656e6365426174636865733a204360448201527f616e6e6f742073657175656e63652074686174206d616e7920626174636865736064820152608401610942565b6073546001600160401b03600160401b82048116600081815260726020526040812054838516949293600160801b909304909216919082905b86811015611421576000898983818110610fe957610fe9614f19565b9050602002810190610ffb9190614f2f565b61100490614f4f565b805180516020909101206060820151919250906001600160401b03161561119a578561102f81614fdb565b9650506000818360200151846060015160405160200161105193929190615001565b60408051601f1981840301815291815281516020928301206001600160401b038a166000908152607190935291205490915081146110e55760405162461bcd60e51b815260206004820152603d602482015260008051602061563983398151915260448201527f6f7263656420626174636865732064617461206d757374206d617463680000006064820152608401610942565b6001600160401b0380881660009081526071602052604080822091909155606085015190850151908216911610156111945760405162461bcd60e51b8152602060048201526058602482015260008051602061563983398151915260448201527f6f7263656420626174636865732074696d657374616d70206d757374206265206064820152773134b3b3b2b91037b91032b8bab0b6103a3430b71036b4b760411b608482015260a401610942565b50611327565b6020820151158061123a575060208201516040516312bd9b1960e11b815260048101919091527f00000000000000000000000000000000000000000000000000000000000000006001600160a01b03169063257b3632906024016020604051808303816000875af1158015611213573d6000803e3d6000fd5b505050506040513d601f19601f820116820180604052508101906112379190615024565b15155b6112ac5760405162461bcd60e51b815260206004820152603a60248201527f506f6c79676f6e5a6b45564d3a3a73657175656e6365426174636865733a204760448201527f6c6f62616c206578697420726f6f74206d7573742065786973740000000000006064820152608401610942565b815151620493e010156113275760405162461bcd60e51b815260206004820152603a60248201527f506f6c79676f6e5a6b45564d3a3a73657175656e6365426174636865733a205460448201527f72616e73616374696f6e73206279746573206f766572666c6f770000000000006064820152608401610942565b876001600160401b031682604001516001600160401b03161015801561135a57504282604001516001600160401b031611155b6113cc5760405162461bcd60e51b815260206004820152603d60248201527f506f6c79676f6e5a6b45564d3a3a73657175656e6365426174636865733a205460448201527f696d657374616d70206d75737420626520696e736964652072616e67650000006064820152608401610942565b848183602001518460400151336040516020016113ed95949392919061503d565b60405160208183030381529060405280519060200120945081604001519750505080806114199061507c565b915050610fcd565b5061142c8685614e86565b6073549094506001600160401b03600160c01b909104811690841611156114a15760405162461bcd60e51b815260206004820152603560248201526000805160206156398339815191526044820152746f7263652062617463686573206f766572666c6f7760581b6064820152608401610942565b60006114ad8285615095565b6114c0906001600160401b0316886150bd565b60408051606081018252858152426001600160401b03908116602080840191825260738054600160401b9081900485168688019081528d861660008181526072909552979093209551865592516001909501805492519585166001600160801b03199384161795851684029590951790945583548c8416911617930292909217905590915082811690851614611576576073805467ffffffffffffffff60801b1916600160801b6001600160401b038716021790555b6115c133308361158560705490565b61158f91906150d4565b6001600160a01b037f00000000000000000000000000000000000000000000000000000000000000001692919061330a565b6115c961337b565b6040516001600160401b038616907f303446e6a8cb73c83dff421c0b1d5e5ce0719dab1bff13660fc254e58cc17fce90600090a2505050505050505050565b606f5460ff161561162b5760405162461bcd60e51b815260040161094290614eb1565b6079546001600160401b03878116600090815260726020526040902060010154429261166292600160c01b90910481169116614e86565b6001600160401b031611156116eb5760405162461bcd60e51b815260206004820152604360248201527f506f6c79676f6e5a6b45564d3a3a766572696679426174636865733a2054727560448201527f737465642061676772656761746f722074696d656f7574206e6f7420657870696064820152621c995960ea1b608482015260a401610942565b6103e86116f88888615095565b6001600160401b031611156117755760405162461bcd60e51b815260206004820152603c60248201527f506f6c79676f6e5a6b45564d3a3a766572696679426174636865733a2043616e60448201527f6e6f74207665726966792074686174206d616e792062617463686573000000006064820152608401610942565b611785888888888888888861341f565b61178e86613955565b607954600160801b90046001600160401b0316600003611872576074805467ffffffffffffffff19166001600160401b03888116918217909255600090815260756020526040902085905560795416156117f357607980546001600160801b03191690555b6040516333d6247d60e01b8152600481018690527f00000000000000000000000000000000000000000000000000000000000000006001600160a01b0316906333d6247d90602401600060405180830381600087803b15801561185557600080fd5b505af1158015611869573d6000803e3d6000fd5b50505050611923565b61187a61337b565b607980546001600160401b031690600061189383614fdb565b82546001600160401b039182166101009390930a92830292820219169190911790915560408051608081018252428316815289831660208083019182528284018b8152606084018b8152607954871660009081526078909352949091209251835492518616600160401b026001600160801b03199093169516949094171781559151600183015551600290910155505b60405184815233906001600160401b038816907f9c72852172521097ba7e1482e6b44b351323df0155f97f4ea18fcec28e1f5966906020015b60405180910390a35050505050505050565b607454600160401b90046001600160a01b03163314611aa357606f5460ff1615611a0b5760405162461bcd60e51b815260206004820152604260248201527f506f6c79676f6e5a6b45564d3a3a636f6e736f6c696461746550656e64696e6760448201527f53746174653a206f6e6c79206966206e6f7420656d657267656e637920737461606482015261746560f01b608482015260a401610942565b611a1481610bf9565b611aa35760405162461bcd60e51b815260206004820152605460248201527f506f6c79676f6e5a6b45564d3a3a636f6e736f6c696461746550656e64696e6760448201527f53746174653a2050656e64696e67207374617465206973206e6f7420726561646064820152731e481d1bc818994818dbdb9cdbdb1a59185d195960621b608482015260a401610942565b611aac81613b58565b50565b6076805461089790614df3565b607a546001600160a01b03163314611ae65760405162461bcd60e51b815260040161094290614e2d565b606f8054600160581b600160f81b031916600160581b6001600160a01b038416021790556040517ff54144f9611984021529f814a1cb6a41e22c58351510a0d9f7e822618abb9cc090610a379083906149d0565b611b42613d47565b611b4c6000613da1565b565b6033546001600160a01b03163314611d4d576000611b6a612625565b9050806001600160401b0316826001600160401b031611611be15760405162461bcd60e51b815260206004820152603c60248201526000805160206155b983398151915260448201527f746174653a20426174636820616c7265616479207665726966696564000000006064820152608401610942565b6073546001600160401b03600160401b909104811690831611801590611c2357506001600160401b038083166000908152607260205260409020600101541615155b611c9c5760405162461bcd60e51b815260206004820152605060248201526000805160206155b983398151915260448201527f746174653a204261746368206e6f742073657175656e636564206f72206e6f7460648201526f20656e64206f662073657175656e636560801b608482015260a401610942565b6001600160401b038083166000908152607260205260409020600101544291611cca9162093a809116614e86565b6001600160401b03161115611d4b5760405162461bcd60e51b815260206004820152604d60248201526000805160206155b983398151915260448201527f746174653a204167677265676174696f6e2068616c742074696d656f7574206960648201526c1cc81b9bdd08195e1c1a5c9959609a1b608482015260a401610942565b505b611aac613df3565b606f5460ff1615611d785760405162461bcd60e51b815260040161094290614eb1565b611d89898989898989898989613e6e565b6001600160401b0386166000908152607560209081526040918290205482519081529081018690527f1f44c21118c4603cfb4e1b621dbcfa2b73efcececee2b99b620b2953d33a7010910160405180910390a1611de4613df3565b505050505050505050565b607b546001600160a01b03163314611e6b5760405162461bcd60e51b815260206004820152603960248201527f506f6c79676f6e5a6b45564d3a3a61636365707441646d696e526f6c653a206360448201527830b63632b91034b9903737ba103832b73234b733a0b236b4b760391b6064820152608401610942565b607b54607a80546001600160a01b0319166001600160a01b0390921691821790556040517f056dc487bbf0795d0bbb1b4f0af523a855503cff740bfb4d5475f7a90c091e8e91611eba916149d0565b60405180910390a1565b6000807f00000000000000000000000000000000000000000000000000000000000000006001600160a01b03166370a08231306040518263ffffffff1660e01b8152600401611f1391906149d0565b602060405180830381865afa158015611f30573d6000803e3d6000fd5b505050506040513d601f19601f82011682018060405250810190611f549190615024565b90506000611f60612625565b6073546001600160401b03600160401b8204811691611f9091600160801b8204811691600160c01b900416615095565b611f9a9190614e86565b611fa49190615095565b6001600160401b0316905080600003611fc05760009250505090565b611fca8183615109565b9250505090565b607a546001600160a01b03163314611ffb5760405162461bcd60e51b815260040161094290614e2d565b62093a806001600160401b038216111561208f5760405162461bcd60e51b815260206004820152604960248201527f506f6c79676f6e5a6b45564d3a3a73657450656e64696e67537461746554696d60448201527f656f75743a20457863656564206d61782068616c74206167677265676174696f6064820152681b881d1a5b595bdd5d60ba1b608482015260a401610942565b606f5460ff16612124576079546001600160401b03600160801b9091048116908216106121245760405162461bcd60e51b815260206004820152603f60248201527f506f6c79676f6e5a6b45564d3a3a73657450656e64696e67537461746554696d60448201527f656f75743a204e65772074696d656f7574206d757374206265206c6f776572006064820152608401610942565b6079805467ffffffffffffffff60801b1916600160801b6001600160401b038416908102919091179091556040519081527fc4121f4e22c69632ebb7cf1f462be0511dc034f999b52013eddfb24aab765c7590602001610a37565b607a546001600160a01b031633146121a95760405162461bcd60e51b815260040161094290614e2d565b62015180816001600160401b0316106122435760405162461bcd60e51b815260206004820152605060248201527f506f6c79676f6e5a6b45564d3a3a736574566572696679426174636854696d6560448201527f5461726765743a20736574566572696679426174636854696d6554617267657460648201526f20696e636f72726563742072616e676560801b608482015260a401610942565b606f805468ffffffffffffffff0019166101006001600160401b038416908102919091179091556040519081527f1b023231a1ab6b5d93992f168fb44498e1a7e64cef58daff6f1c216de6a68c2890602001610a37565b607a546001600160a01b031633146122c45760405162461bcd60e51b815260040161094290614e2d565b607b80546001600160a01b0319166001600160a01b0383161790556040517fa5b56b7906fd0a20e3f35120dd8343db1e12e037a6c90111c7e42885e82a1ce690610a379083906149d0565b600054610100900460ff161580801561232f5750600054600160ff909116105b806123495750303b158015612349575060005460ff166001145b6123ac5760405162461bcd60e51b815260206004820152602e60248201527f496e697469616c697a61626c653a20636f6e747261637420697320616c72656160448201526d191e481a5b9a5d1a585b1a5e995960921b6064820152608401610942565b6000805460ff1916600117905580156123cf576000805461ff0019166101001790555b6123dc6020860186614b40565b607a80546001600160a01b0319166001600160a01b039290921691909117905561240c6040860160208701614b40565b606f80546001600160a01b0392909216600160581b02600160581b600160f81b03199092169190911790556124476080860160608701614b40565b607480546001600160a01b0392909216600160401b02600160401b600160e01b03199092169190911790556000805260756020527ff9e3fbf150b7a0077118526f473c53cb4734f166167e2c6213e3567dd390b4ad84905560766124ab848261516b565b5060776124b8838261516b565b5062093a806124cd60608701604088016149e4565b6001600160401b031611156124f45760405162461bcd60e51b81526004016109429061522a565b61250460608601604087016149e4565b607980546001600160401b0392909216600160801b0267ffffffffffffffff60801b1990921691909117905562093a8061254460a08701608088016149e4565b6001600160401b0316111561256b5760405162461bcd60e51b81526004016109429061522a565b61257b60a08601608087016149e4565b607980546001600160c01b0316600160c01b6001600160401b039390931692909202919091179055670de0b6b3a7640000607055606f80546affffffffffffffffffff0019166a03ea0000000000000708001790556125d86144be565b801561261e576000805461ff0019169055604051600181527f7f26b83ff96e1f2b6a682f133852f6798a09c465da95921460cefb38474024989060200160405180910390a15b5050505050565b6079546000906001600160401b03161561266257506079546001600160401b03908116600090815260786020526040902054600160401b90041690565b506074546001600160401b031690565b607a546001600160a01b0316331461269c5760405162461bcd60e51b815260040161094290614e2d565b60766126a8828261516b565b507f6b8f723a4c7a5335cafae8a598a0aa0301be1387c037dccc085b62add6448b2081604051610a379190614929565b606f5460ff16156126fb5760405162461bcd60e51b815260040161094290614eb1565b808061275d5760405162461bcd60e51b815260206004820152603f602482015260008051602061561983398151915260448201527f65733a204d75737420666f726365206174206c656173742031206261746368006064820152608401610942565b6103e88111156127cf5760405162461bcd60e51b8152602060048201526043602482015260008051602061561983398151915260448201527f65733a2043616e6e6f74207665726966792074686174206d616e79206261746360648201526268657360e81b608482015260a401610942565b6073546001600160401b03600160c01b82048116916127f7918491600160801b900416615283565b11156128535760405162461bcd60e51b81526020600482015260376024820152600080516020615619833981519152604482015276195cce88119bdc98d94818985d18da081a5b9d985b1a59604a1b6064820152608401610942565b6073546001600160401b03600160401b820481166000818152607260205260408120549193600160801b9004909216915b84811015612a985760008787838181106128a0576128a0614f19565b90506020028101906128b2919061529b565b6128bb906152b1565b9050836128c781614fdb565b825180516020918201208185015160408087015190519499509194506000936128f39386939101615001565b60408051601f1981840301815291815281516020928301206001600160401b0389166000908152607190935291205490915081146129925760405162461bcd60e51b8152602060048201526042602482015260008051602061561983398151915260448201527f65733a20466f7263656420626174636865732064617461206d757374206d61746064820152610c6d60f31b608482015260a401610942565b6001600160401b0386166000908152607160205260408120556129b66001896150bd565b8403612a4d57426206978084604001516129d09190614e86565b6001600160401b03161115612a4d5760405162461bcd60e51b8152602060048201526049602482015260008051602061561983398151915260448201527f65733a20466f72636564206261746368206973206e6f7420696e2074696d656f6064820152681d5d081c195c9a5bd960ba1b608482015260a401610942565b848284602001514233604051602001612a6a95949392919061503d565b6040516020818303038152906040528051906020012094505050508080612a909061507c565b915050612884565b50612aa38484614e86565b607380546001600160401b0342811667ffffffffffffffff199092168217808455604080516060810182528781526020808201958652600160401b9384900485168284019081528589166000818152607290935284832093518455965160019390930180549151871686026001600160801b031990921693871693909317179091558554938916600160801b0267ffffffffffffffff60801b1993860293909316600160401b600160c01b031990941693909317919091179093559151929550917f648a61dd2438f072f5a1960939abd30f37aea80d2e94c9792ad142d3e0a490a49190a2505050505050565b607a546001600160a01b03163314612bba5760405162461bcd60e51b815260040161094290614e2d565b7f00000000000000000000000000000000000000000000000000000000000000006001600160a01b031663dbc169766040518163ffffffff1660e01b8152600401600060405180830381600087803b158015612c1557600080fd5b505af1158015612c29573d6000803e3d6000fd5b50505050611b4c614532565b607454600160401b90046001600160a01b03163314612c665760405162461bcd60e51b81526004016109429061532c565b612c77898989898989898989613e6e565b6074805467ffffffffffffffff19166001600160401b0388811691821790925560009081526075602052604090208590556079541615612cc257607980546001600160801b03191690555b6040516333d6247d60e01b8152600481018690527f00000000000000000000000000000000000000000000000000000000000000006001600160a01b0316906333d6247d90602401600060405180830381600087803b158015612d2457600080fd5b505af1158015612d38573d6000803e3d6000fd5b5050607980546001600160c01b031661127560c71b179055505060405184815233906001600160401b038816907fcc1b5520188bf1dd3e63f98164b577c4d75c11a619ddea692112f0d1aec4cf729060200160405180910390a3505050505050505050565b606f5460ff1615612dc05760405162461bcd60e51b815260040161094290614eb1565b6000612dcb60705490565b905081811115612e305760405162461bcd60e51b815260206004820152602a60248201527f506f6c79676f6e5a6b45564d3a3a666f72636542617463683a204e6f7420656e6044820152696f756768206d6174696360b01b6064820152608401610942565b620493e0831115612ea15760405162461bcd60e51b815260206004820152603560248201527f506f6c79676f6e5a6b45564d3a3a666f72636542617463683a205472616e73616044820152746374696f6e73206279746573206f766572666c6f7760581b6064820152608401610942565b612ed66001600160a01b037f00000000000000000000000000000000000000000000000000000000000000001633308461330a565b60007f00000000000000000000000000000000000000000000000000000000000000006001600160a01b0316633ed691ef6040518163ffffffff1660e01b8152600401602060405180830381865afa158015612f36573d6000803e3d6000fd5b505050506040513d601f19601f82011682018060405250810190612f5a9190615024565b60738054919250600160c01b9091046001600160401b0316906018612f7e83614fdb565b91906101000a8154816001600160401b0302191690836001600160401b03160217905550508484604051612fb3929190615389565b604051908190038120612fcc9183904290602001615001565b60408051808303601f190181529181528151602092830120607354600160c01b90046001600160401b03166000908152607190935291205532330361307057607354604080518381523360208201526060918101829052600091810191909152600160c01b9091046001600160401b0316907ff94bb37db835f1ab585ee00041849a09b12cd081d77fa15ca070757619cbc9319060800160405180910390a261261e565b607360189054906101000a90046001600160401b03166001600160401b03167ff94bb37db835f1ab585ee00041849a09b12cd081d77fa15ca070757619cbc931823388886040516130c49493929190615399565b60405180910390a25050505050565b607454600160401b90046001600160a01b031633146131045760405162461bcd60e51b81526004016109429061532c565b613114888888888888888861341f565b6074805467ffffffffffffffff19166001600160401b038881169182179092556000908152607560205260409020859055607954161561315f57607980546001600160801b03191690555b6040516333d6247d60e01b8152600481018690527f00000000000000000000000000000000000000000000000000000000000000006001600160a01b0316906333d6247d90602401600060405180830381600087803b1580156131c157600080fd5b505af11580156131d5573d6000803e3d6000fd5b50506040518681523392506001600160401b03891691507f0c0ce073a7d7b5850c04ccc4b20ee7d3179d5f57d0ac44399565792c0f72fce79060200161195c565b607a546001600160a01b031633146132405760405162461bcd60e51b815260040161094290614e2d565b60748054600160401b600160e01b031916600160401b6001600160a01b038416021790556040517f61f8fec29495a3078e9271456f05fb0707fd4e41f7661865f80fc437d06681ca90610a379083906149d0565b61329c613d47565b6001600160a01b0381166133015760405162461bcd60e51b815260206004820152602660248201527f4f776e61626c653a206e6577206f776e657220697320746865207a65726f206160448201526564647265737360d01b6064820152608401610942565b611aac81613da1565b6040516001600160a01b03808516602483015283166044820152606481018290526133759085906323b872dd60e01b906084015b60408051601f198184030181529190526020810180516001600160e01b03166001600160e01b0319909316929092179091526145df565b50505050565b6079546001600160401b03600160401b8204811691161115611b4c576079546000906133b890600160401b90046001600160401b03166001614e86565b90506133c381610bf9565b15611aac576079546000906002906133e59084906001600160401b0316615095565b6133ef91906153e0565b6133f99083614e86565b905061340481610bf9565b156134165761341281613b58565b5050565b61341282613b58565b60008061342a612625565b90506001600160401b038a1615613590576079546001600160401b03908116908b1611156134e25760405162461bcd60e51b815260206004820152605960248201527f506f6c79676f6e5a6b45564d3a3a5f766572696679426174636865733a20706560448201527f6e64696e6753746174654e756d206d757374206265206c657373206f7220657160648201527875616c207468616e206c61737450656e64696e67537461746560381b608482015260a401610942565b6001600160401b03808b1660009081526078602052604090206002810154815490945090918b8116600160401b909204161461358a5760405162461bcd60e51b815260206004820152604d60248201526000805160206155d983398151915260448201527f69744e756d4261746368206d757374206d61746368207468652070656e64696e60648201526c0ce40e6e8c2e8ca40c4c2e8c6d609b1b608482015260a401610942565b506136b6565b6001600160401b03891660009081526075602052604090205491508161361a5760405162461bcd60e51b8152602060048201526044602482018190526000805160206155d9833981519152908201527f69744e756d426174636820737461746520726f6f7420646f6573206e6f7420656064820152631e1a5cdd60e21b608482015260a401610942565b806001600160401b0316896001600160401b031611156136b65760405162461bcd60e51b815260206004820152605e60248201526000805160206155d983398151915260448201527f69744e756d4261746368206d757374206265206c657373206f7220657175616c60648201527f207468616e2063757272656e744c617374566572696669656442617463680000608482015260a401610942565b806001600160401b0316886001600160401b03161161375e5760405162461bcd60e51b815260206004820152605860248201527f506f6c79676f6e5a6b45564d3a3a5f766572696679426174636865733a20666960448201527f6e616c4e65774261746368206d75737420626520626967676572207468616e206064820152770c6eae4e4cadce898c2e6e8accae4d2ccd2cac884c2e8c6d60431b608482015260a401610942565b600061376d8a8a8a868b610a42565b905060007f30644e72e131a029b85045b68181585d2833e84879b9709143e1f593f00000016002836040516137a29190615406565b602060405180830381855afa1580156137bf573d6000803e3d6000fd5b5050506040513d601f19601f820116820180604052508101906137e29190615024565b6137ec9190615418565b6040805160208101825282815290516343753b4d60e01b81529192506001600160a01b037f000000000000000000000000000000000000000000000000000000000000000016916343753b4d9161384c918b918b918b919060040161542c565b602060405180830381865afa158015613869573d6000803e3d6000fd5b505050506040513d601f19601f8201168201806040525081019061388d91906154a6565b6138ed5760405162461bcd60e51b815260206004820152602b60248201527f506f6c79676f6e5a6b45564d3a3a5f766572696679426174636865733a20496e60448201526a3b30b634b210383937b7b360a91b6064820152608401610942565b613947336138fb858d615095565b6001600160401b031661390c611ec4565b61391691906150d4565b6001600160a01b037f00000000000000000000000000000000000000000000000000000000000000001691906146b6565b505050505050505050505050565b600061395f612625565b90508160008061396f8484615095565b606f546001600160401b03918216925060009161399291610100900416426150bd565b90505b846001600160401b0316846001600160401b031614613a32576001600160401b0380851660009081526072602052604090206001810154909116821015613a265760018101546139f590600160401b90046001600160401b031686615095565b613a08906001600160401b031685615283565b6001820154600160401b90046001600160401b031695509350613a2c565b50613a32565b50613995565b6000613a3e84846150bd565b905080841015613ab8576000613a5485836150bd565b9050600c8111613a645780613a67565b600c5b9050613a748160036150d4565b613a7f90600a6155ac565b606f54613a98908390600160481b900461ffff166155ac565b607054613aa591906150d4565b613aaf9190615109565b60705550613b4f565b6000613ac482866150bd565b9050600c8111613ad45780613ad7565b600c5b90506000613ae68260036150d4565b613af190600a6155ac565b606f54613b0a908490600160481b900461ffff166155ac565b613b1c90670de0b6b3a76400006150d4565b613b269190615109565b905080607054670de0b6b3a7640000613b3f91906150d4565b613b499190615109565b60705550505b50505050505050565b6079546001600160401b03600160401b9091048116908216118015613b8c57506079546001600160401b0390811690821611155b613bfe5760405162461bcd60e51b815260206004820152603f60248201527f506f6c79676f6e5a6b45564d3a3a5f636f6e736f6c696461746550656e64696e60448201527f6753746174653a2070656e64696e6753746174654e756d20696e76616c6964006064820152608401610942565b6001600160401b038181166000818152607860209081526040808320805460748054600160401b9283900490981667ffffffffffffffff19909816881790556002820154878652607590945293829020929092556079805467ffffffffffffffff60401b19169390940292909217909255600182015490516333d6247d60e01b815260048101919091529091907f00000000000000000000000000000000000000000000000000000000000000006001600160a01b0316906333d6247d90602401600060405180830381600087803b158015613cd957600080fd5b505af1158015613ced573d6000803e3d6000fd5b50505050826001600160401b0316816001600160401b03167f328d3c6c0fd6f1be0515e422f2d87e59f25922cbc2233568515a0c4bc3f8510e8460020154604051613d3a91815260200190565b60405180910390a3505050565b6033546001600160a01b03163314611b4c5760405162461bcd60e51b815260206004820181905260248201527f4f776e61626c653a2063616c6c6572206973206e6f7420746865206f776e65726044820152606401610942565b603380546001600160a01b038381166001600160a01b0319831681179093556040519116919082907f8be0079c531659141344cd1fd0a4f28419497f9722a3daafe3b4186f6b6457e090600090a35050565b7f00000000000000000000000000000000000000000000000000000000000000006001600160a01b0316632072f6c56040518163ffffffff1660e01b8152600401600060405180830381600087803b158015613e4e57600080fd5b505af1158015613e62573d6000803e3d6000fd5b50505050611b4c6146e6565b60006001600160401b038a1615613fde576079546001600160401b03908116908b161115613f265760405162461bcd60e51b815260206004820152606560248201526000805160206155f983398151915260448201527f696e6753746174653a2070656e64696e6753746174654e756d206d757374206260648201527f65206c657373206f7220657175616c207468616e206c61737450656e64696e67608482015264537461746560d81b60a482015260c401610942565b506001600160401b03808a1660009081526078602052604090206002810154815490928a8116600160401b9092041614613fd85760405162461bcd60e51b815260206004820152605960248201526000805160206155f983398151915260448201527f696e6753746174653a20696e69744e756d4261746368206d757374206d6174636064820152780d040e8d0ca40e0cadcc8d2dcce40e6e8c2e8ca40c4c2e8c6d603b1b608482015260a401610942565b50614117565b506001600160401b038716600090815260756020526040902054806140725760405162461bcd60e51b815260206004820152605060248201526000805160206155f983398151915260448201527f696e6753746174653a20696e69744e756d426174636820737461746520726f6f60648201526f1d08191bd95cc81b9bdd08195e1a5cdd60821b608482015260a401610942565b6074546001600160401b0390811690891611156141175760405162461bcd60e51b815260206004820152606360248201526000805160206155f983398151915260448201527f696e6753746174653a20696e69744e756d4261746368206d757374206265206c60648201527f657373206f7220657175616c207468616e206c617374566572696669656442616084820152620e8c6d60eb1b60a482015260c401610942565b6079546001600160401b03908116908a16118015906141475750896001600160401b0316896001600160401b0316115b801561416857506079546001600160401b03600160401b9091048116908a16115b6141d95760405162461bcd60e51b815260206004820152604860248201526000805160206155f983398151915260448201527f696e6753746174653a2066696e616c50656e64696e6753746174654e756d20696064820152671b98dbdc9c9958dd60c21b608482015260a401610942565b6001600160401b03898116600090815260786020526040902054600160401b90048116908816146142905760405162461bcd60e51b815260206004820152606160248201526000805160206155f983398151915260448201527f696e6753746174653a2066696e616c4e65774261746368206d7573742062652060648201527f657175616c20746f2063757272656e744c6173745665726966696564426174636084820152600d60fb1b60a482015260c401610942565b600061429f898989858a610a42565b905060007f30644e72e131a029b85045b68181585d2833e84879b9709143e1f593f00000016002836040516142d49190615406565b602060405180830381855afa1580156142f1573d6000803e3d6000fd5b5050506040513d601f19601f820116820180604052508101906143149190615024565b61431e9190615418565b6040805160208101825282815290516343753b4d60e01b81529192506001600160a01b037f000000000000000000000000000000000000000000000000000000000000000016916343753b4d9161437e918a918a918a919060040161542c565b602060405180830381865afa15801561439b573d6000803e3d6000fd5b505050506040513d601f19601f820116820180604052508101906143bf91906154a6565b6144195760405162461bcd60e51b815260206004820152603760248201526000805160206155f983398151915260448201527634b733a9ba30ba329d1024b73b30b634b210383937b7b360491b6064820152608401610942565b6001600160401b038b166000908152607860205260409020600201548790036139475760405162461bcd60e51b815260206004820152605b60248201526000805160206155f983398151915260448201527f696e6753746174653a2053746f72656420726f6f74206d75737420626520646960648201527f66666572656e74207468616e206e657720737461746520726f6f740000000000608482015260a401610942565b600054610100900460ff166145295760405162461bcd60e51b815260206004820152602b60248201527f496e697469616c697a61626c653a20636f6e7472616374206973206e6f74206960448201526a6e697469616c697a696e6760a81b6064820152608401610942565b611b4c33613da1565b606f5460ff166145aa5760405162461bcd60e51b815260206004820152603b60248201527f456d657267656e63794d616e616765723a3a6966456d657267656e637953746160448201527f74653a206f6e6c7920696620656d657267656e637920737461746500000000006064820152608401610942565b606f805460ff191690556040517f1e5e34eea33501aecf2ebec9fe0e884a40804275ea7fe10b2ba084c8374308b390600090a1565b6000614634826040518060400160405280602081526020017f5361666545524332303a206c6f772d6c6576656c2063616c6c206661696c6564815250856001600160a01b03166147419092919063ffffffff16565b8051909150156146b1578080602001905181019061465291906154a6565b6146b15760405162461bcd60e51b815260206004820152602a60248201527f5361666545524332303a204552433230206f7065726174696f6e20646964206e6044820152691bdd081cdd58d8d9595960b21b6064820152608401610942565b505050565b6040516001600160a01b0383166024820152604481018290526146b190849063a9059cbb60e01b9060640161333e565b606f5460ff16156147095760405162461bcd60e51b815260040161094290614eb1565b606f805460ff191660011790556040517f2261efe5aef6fedc1fd1550b25facc9181745623049c7901287030b9ad1a549790600090a1565b60606147508484600085614758565b949350505050565b6060824710156147b95760405162461bcd60e51b815260206004820152602660248201527f416464726573733a20696e73756666696369656e742062616c616e636520666f6044820152651c8818d85b1b60d21b6064820152608401610942565b600080866001600160a01b031685876040516147d59190615406565b60006040518083038185875af1925050503d8060008114614812576040519150601f19603f3d011682016040523d82523d6000602084013e614817565b606091505b509150915061482887838387614833565b979650505050505050565b606083156148a257825160000361489b576001600160a01b0385163b61489b5760405162461bcd60e51b815260206004820152601d60248201527f416464726573733a2063616c6c20746f206e6f6e2d636f6e74726163740000006044820152606401610942565b5081614750565b61475083838151156148b75781518083602001fd5b8060405162461bcd60e51b81526004016109429190614929565b60005b838110156148ec5781810151838201526020016148d4565b838111156133755750506000910152565b600081518084526149158160208601602086016148d1565b601f01601f19169290920160200192915050565b60208152600061493c60208301846148fd565b9392505050565b60006020828403121561495557600080fd5b813561ffff8116811461493c57600080fd5b80356001600160401b038116811461497e57600080fd5b919050565b600080600080600060a0868803121561499b57600080fd5b6149a486614967565b94506149b260208701614967565b94979496505050506040830135926060810135926080909101359150565b6001600160a01b0391909116815260200190565b6000602082840312156149f657600080fd5b61493c82614967565b60008083601f840112614a1157600080fd5b5081356001600160401b03811115614a2857600080fd5b6020830191508360208260051b8501011115614a4357600080fd5b9250929050565b60008060208385031215614a5d57600080fd5b82356001600160401b03811115614a7357600080fd5b614a7f858286016149ff565b90969095509350505050565b8060408101831015614a9c57600080fd5b92915050565b8060808101831015614a9c57600080fd5b6000806000806000806000806101a0898b031215614ad057600080fd5b614ad989614967565b9750614ae760208a01614967565b9650614af560408a01614967565b95506060890135945060808901359350614b128a60a08b01614a8b565b9250614b218a60e08b01614aa2565b9150614b318a6101608b01614a8b565b90509295985092959890939650565b600060208284031215614b5257600080fd5b81356001600160a01b038116811461493c57600080fd5b60008060008060008060008060006101c08a8c031215614b8857600080fd5b614b918a614967565b9850614b9f60208b01614967565b9750614bad60408b01614967565b9650614bbb60608b01614967565b955060808a0135945060a08a01359350614bd88b60c08c01614a8b565b9250614be88b6101008c01614aa2565b9150614bf88b6101808c01614a8b565b90509295985092959850929598565b600060208284031215614c1957600080fd5b5035919050565b634e487b7160e01b600052604160045260246000fd5b600082601f830112614c4757600080fd5b81356001600160401b0380821115614c6157614c61614c20565b604051601f8301601f19908116603f01168101908282118183101715614c8957614c89614c20565b81604052838152866020858801011115614ca257600080fd5b836020870160208301376000602085830101528094505050505092915050565b600080600080848603610100811215614cda57600080fd5b60a0811215614ce857600080fd5b5084935060a0850135925060c08501356001600160401b0380821115614d0d57600080fd5b614d1988838901614c36565b935060e0870135915080821115614d2f57600080fd5b50614d3c87828801614c36565b91505092959194509250565b600060208284031215614d5a57600080fd5b81356001600160401b03811115614d7057600080fd5b61475084828501614c36565b600080600060408486031215614d9157600080fd5b83356001600160401b0380821115614da857600080fd5b818601915086601f830112614dbc57600080fd5b813581811115614dcb57600080fd5b876020828501011115614ddd57600080fd5b6020928301989097509590910135949350505050565b600181811c90821680614e0757607f821691505b602082108103614e2757634e487b7160e01b600052602260045260246000fd5b50919050565b60208082526023908201527f506f6c79676f6e5a6b45564d3a3a6f6e6c7941646d696e3a204f6e6c7920616460408201526236b4b760e91b606082015260800190565b634e487b7160e01b600052601160045260246000fd5b60006001600160401b03808316818516808303821115614ea857614ea8614e70565b01949350505050565b60208082526042908201527f456d657267656e63794d616e616765723a3a69664e6f74456d657267656e637960408201527f53746174653a206f6e6c79206966206e6f7420656d657267656e637920737461606082015261746560f01b608082015260a00190565b634e487b7160e01b600052603260045260246000fd5b60008235607e19833603018112614f4557600080fd5b9190910192915050565b600060808236031215614f6157600080fd5b604051608081016001600160401b038282108183111715614f8457614f84614c20565b816040528435915080821115614f9957600080fd5b50614fa636828601614c36565b82525060208301356020820152614fbf60408401614967565b6040820152614fd060608401614967565b606082015292915050565b60006001600160401b03808316818103614ff757614ff7614e70565b6001019392505050565b928352602083019190915260c01b6001600160c01b031916604082015260480190565b60006020828403121561503657600080fd5b5051919050565b9485526020850193909352604084019190915260c01b6001600160c01b0319166060808401919091521b6001600160601b0319166068820152607c0190565b60006001820161508e5761508e614e70565b5060010190565b60006001600160401b03838116908316818110156150b5576150b5614e70565b039392505050565b6000828210156150cf576150cf614e70565b500390565b60008160001904831182151516156150ee576150ee614e70565b500290565b634e487b7160e01b600052601260045260246000fd5b600082615118576151186150f3565b500490565b601f8211156146b157600081815260208120601f850160051c810160208610156151445750805b601f850160051c820191505b8181101561516357828155600101615150565b505050505050565b81516001600160401b0381111561518457615184614c20565b615198816151928454614df3565b8461511d565b602080601f8311600181146151cd57600084156151b55750858301515b600019600386901b1c1916600185901b178555615163565b600085815260208120601f198616915b828110156151fc578886015182559484019460019091019084016151dd565b508582101561521a5787850151600019600388901b60f8161c191681555b5050505050600190811b01905550565b60208082526039908201527f506f6c79676f6e5a6b45564d3a3a696e697469616c697a653a20457863656564604082015278081a185b1d081859d9dc9959d85d1a5bdb881d1a5b595bdd5d603a1b606082015260800190565b6000821982111561529657615296614e70565b500190565b60008235605e19833603018112614f4557600080fd5b6000606082360312156152c357600080fd5b604051606081016001600160401b0382821081831117156152e6576152e6614c20565b8160405284359150808211156152fb57600080fd5b5061530836828601614c36565b8252506020830135602082015261532160408401614967565b604082015292915050565b6020808252603c908201527f506f6c79676f6e5a6b45564d3a3a6f6e6c79547275737465644167677265676160408201527f746f723a204f6e6c7920747275737465642061676772656761746f7200000000606082015260800190565b8183823760009101908152919050565b8481526001600160a01b03841660208201526060604082018190528101829052818360808301376000818301608090810191909152601f909201601f191601019392505050565b60006001600160401b03808416806153fa576153fa6150f3565b92169190910492915050565b60008251614f458184602087016148d1565b600082615427576154276150f3565b500690565b61012081016040808784376000838201818152879190815b600281101561546457848483379084018281529284019290600101615444565b5050828760c0870137610100850181815286935091505b600181101561549a57825182526020928301929091019060010161547b565b50505095945050505050565b6000602082840312156154b857600080fd5b8151801515811461493c57600080fd5b600181815b808511156155035781600019048211156154e9576154e9614e70565b808516156154f657918102915b93841c93908002906154cd565b509250929050565b60008261551a57506001614a9c565b8161552757506000614a9c565b816001811461553d576002811461554757615563565b6001915050614a9c565b60ff84111561555857615558614e70565b50506001821b614a9c565b5060208310610133831016604e8410600b8410161715615586575081810a614a9c565b61559083836154c8565b80600019048211156155a4576155a4614e70565b029392505050565b600061493c838361550b56fe506f6c79676f6e5a6b45564d3a3a6163746976617465456d657267656e637953506f6c79676f6e5a6b45564d3a3a5f766572696679426174636865733a20696e506f6c79676f6e5a6b45564d3a3a5f70726f766544697374696e637450656e64506f6c79676f6e5a6b45564d3a3a73657175656e6365466f7263654261746368506f6c79676f6e5a6b45564d3a3a73657175656e6365426174636865733a2046a26469706673582212201adc3d09d1bfa80fb74982b49bfedc6bcf4e5c209d8749172e353a58b9607f2d64736f6c634300080f0033",
  "linkReferences": {},
  "deployedLinkReferences": {}
}