{
  "_format": "hh-sol-artifact-1",
  "contractName": "PolygonZkEVM",
  "sourceName": "contracts/PolygonZkEVM.sol",
  "abi": [
    {
      "inputs": [
        {
          "internalType": "contract IPolygonZkEVMGlobalExitRoot",
          "name": "_globalExitRootManager",
          "type": "address"
        },
        {
          "internalType": "contract IERC20Upgradeable",
          "name": "_matic",
          "type": "address"
        },
        {
          "internalType": "contract IVerifierRollup",
          "name": "_rollupVerifier",
          "type": "address"
        },
        {
          "internalType": "contract IPolygonZkEVMBridge",
          "name": "_bridgeAddress",
          "type": "address"
        },
        {
          "internalType": "uint64",
          "name": "_chainID",
          "type": "uint64"
        },
        {
          "internalType": "uint64",
          "name": "_forkID",
          "type": "uint64"
        }
      ],
      "stateMutability": "nonpayable",
      "type": "constructor"
    },
    {
      "inputs": [],
      "name": "BatchAlreadyVerified",
      "type": "error"
    },
    {
      "inputs": [],
      "name": "BatchNotSequencedOrNotSequenceEnd",
      "type": "error"
    },
    {
      "inputs": [],
      "name": "ExceedMaxVerifyBatches",
      "type": "error"
    },
    {
      "inputs": [],
      "name": "FinalNumBatchBelowLastVerifiedBatch",
      "type": "error"
    },
    {
      "inputs": [],
      "name": "FinalNumBatchDoesNotMatchPendingState",
      "type": "error"
    },
    {
      "inputs": [],
      "name": "FinalPendingStateNumInvalid",
      "type": "error"
    },
    {
      "inputs": [],
      "name": "ForceBatchTimeoutNotExpired",
      "type": "error"
    },
    {
      "inputs": [],
      "name": "ForceBatchesOverflow",
      "type": "error"
    },
    {
      "inputs": [],
      "name": "ForcedDataDoesNotMatch",
      "type": "error"
    },
    {
      "inputs": [],
      "name": "GlobalExitRootNotExist",
      "type": "error"
    },
    {
      "inputs": [],
      "name": "HaltTimeoutNotExpired",
      "type": "error"
    },
    {
      "inputs": [],
      "name": "InitNumBatchAboveLastVerifiedBatch",
      "type": "error"
    },
    {
      "inputs": [],
      "name": "InitNumBatchDoesNotMatchPendingState",
      "type": "error"
    },
    {
      "inputs": [],
      "name": "InvalidProof",
      "type": "error"
    },
    {
      "inputs": [],
      "name": "InvalidRangeBatchTimeTarget",
      "type": "error"
    },
    {
      "inputs": [],
      "name": "InvalidRangeMultiplierBatchFee",
      "type": "error"
    },
    {
      "inputs": [],
      "name": "NewAccInputHashDoesNotExist",
      "type": "error"
    },
    {
      "inputs": [],
      "name": "NewPendingStateTimeoutMustBeLower",
      "type": "error"
    },
    {
      "inputs": [],
      "name": "NewTrustedAggregatorTimeoutMustBeLower",
      "type": "error"
    },
    {
      "inputs": [],
      "name": "NotEnoughMaticAmount",
      "type": "error"
    },
    {
      "inputs": [],
      "name": "OldAccInputHashDoesNotExist",
      "type": "error"
    },
    {
      "inputs": [],
      "name": "OldStateRootDoesNotExist",
      "type": "error"
    },
    {
      "inputs": [],
      "name": "OnlyAdmin",
      "type": "error"
    },
    {
      "inputs": [],
      "name": "OnlyEmergencyState",
      "type": "error"
    },
    {
      "inputs": [],
      "name": "OnlyNotEmergencyState",
      "type": "error"
    },
    {
      "inputs": [],
      "name": "OnlyPendingAdmin",
      "type": "error"
    },
    {
      "inputs": [],
      "name": "OnlyTrustedAggregator",
      "type": "error"
    },
    {
      "inputs": [],
      "name": "OnlyTrustedSequencer",
      "type": "error"
    },
    {
      "inputs": [],
      "name": "PendingStateDoesNotExist",
      "type": "error"
    },
    {
      "inputs": [],
      "name": "PendingStateInvalid",
      "type": "error"
    },
    {
      "inputs": [],
      "name": "PendingStateNotConsolidable",
      "type": "error"
    },
    {
      "inputs": [],
      "name": "PendingStateTimeoutExceedHaltAggregationTimeout",
      "type": "error"
    },
    {
      "inputs": [],
      "name": "SequenceZeroBatches",
      "type": "error"
    },
    {
      "inputs": [],
      "name": "SequencedTimestampBelowForcedTimestamp",
      "type": "error"
    },
    {
      "inputs": [],
      "name": "SequencedTimestampInvalid",
      "type": "error"
    },
    {
      "inputs": [],
      "name": "StoredRootMustBeDifferentThanNewRoot",
      "type": "error"
    },
    {
      "inputs": [],
      "name": "TransactionsLengthAboveMax",
      "type": "error"
    },
    {
      "inputs": [],
      "name": "TrustedAggregatorTimeoutExceedHaltAggregationTimeout",
      "type": "error"
    },
    {
      "inputs": [],
      "name": "TrustedAggregatorTimeoutNotExpired",
      "type": "error"
    },
    {
      "anonymous": false,
      "inputs": [
        {
          "indexed": false,
          "internalType": "address",
          "name": "newAdmin",
          "type": "address"
        }
      ],
      "name": "AcceptAdminRole",
      "type": "event"
    },
    {
      "anonymous": false,
      "inputs": [
        {
          "indexed": true,
          "internalType": "uint64",
          "name": "numBatch",
          "type": "uint64"
        },
        {
          "indexed": false,
          "internalType": "bytes32",
          "name": "stateRoot",
          "type": "bytes32"
        },
        {
          "indexed": true,
          "internalType": "uint64",
          "name": "pendingStateNum",
          "type": "uint64"
        }
      ],
      "name": "ConsolidatePendingState",
      "type": "event"
    },
    {
      "anonymous": false,
      "inputs": [],
      "name": "EmergencyStateActivated",
      "type": "event"
    },
    {
      "anonymous": false,
      "inputs": [],
      "name": "EmergencyStateDeactivated",
      "type": "event"
    },
    {
      "anonymous": false,
      "inputs": [
        {
          "indexed": true,
          "internalType": "uint64",
          "name": "forceBatchNum",
          "type": "uint64"
        },
        {
          "indexed": false,
          "internalType": "bytes32",
          "name": "lastGlobalExitRoot",
          "type": "bytes32"
        },
        {
          "indexed": false,
          "internalType": "address",
          "name": "sequencer",
          "type": "address"
        },
        {
          "indexed": false,
          "internalType": "bytes",
          "name": "transactions",
          "type": "bytes"
        }
      ],
      "name": "ForceBatch",
      "type": "event"
    },
    {
      "anonymous": false,
      "inputs": [
        {
          "indexed": false,
          "internalType": "uint8",
          "name": "version",
          "type": "uint8"
        }
      ],
      "name": "Initialized",
      "type": "event"
    },
    {
      "anonymous": false,
      "inputs": [
        {
          "indexed": true,
          "internalType": "uint64",
          "name": "numBatch",
          "type": "uint64"
        },
        {
          "indexed": false,
          "internalType": "bytes32",
          "name": "stateRoot",
          "type": "bytes32"
        },
        {
          "indexed": true,
          "internalType": "address",
          "name": "aggregator",
          "type": "address"
        }
      ],
      "name": "OverridePendingState",
      "type": "event"
    },
    {
      "anonymous": false,
      "inputs": [
        {
          "indexed": true,
          "internalType": "address",
          "name": "previousOwner",
          "type": "address"
        },
        {
          "indexed": true,
          "internalType": "address",
          "name": "newOwner",
          "type": "address"
        }
      ],
      "name": "OwnershipTransferred",
      "type": "event"
    },
    {
      "anonymous": false,
      "inputs": [
        {
          "indexed": false,
          "internalType": "bytes32",
          "name": "storedStateRoot",
          "type": "bytes32"
        },
        {
          "indexed": false,
          "internalType": "bytes32",
          "name": "provedStateRoot",
          "type": "bytes32"
        }
      ],
      "name": "ProveNonDeterministicPendingState",
      "type": "event"
    },
    {
      "anonymous": false,
      "inputs": [
        {
          "indexed": true,
          "internalType": "uint64",
          "name": "numBatch",
          "type": "uint64"
        }
      ],
      "name": "SequenceBatches",
      "type": "event"
    },
    {
      "anonymous": false,
      "inputs": [
        {
          "indexed": true,
          "internalType": "uint64",
          "name": "numBatch",
          "type": "uint64"
        }
      ],
      "name": "SequenceForceBatches",
      "type": "event"
    },
    {
      "anonymous": false,
      "inputs": [
        {
          "indexed": false,
          "internalType": "uint16",
          "name": "newMultiplierBatchFee",
          "type": "uint16"
        }
      ],
      "name": "SetMultiplierBatchFee",
      "type": "event"
    },
    {
      "anonymous": false,
      "inputs": [
        {
          "indexed": false,
          "internalType": "uint64",
          "name": "newPendingStateTimeout",
          "type": "uint64"
        }
      ],
      "name": "SetPendingStateTimeout",
      "type": "event"
    },
    {
      "anonymous": false,
      "inputs": [
        {
          "indexed": false,
          "internalType": "address",
          "name": "newTrustedAggregator",
          "type": "address"
        }
      ],
      "name": "SetTrustedAggregator",
      "type": "event"
    },
    {
      "anonymous": false,
      "inputs": [
        {
          "indexed": false,
          "internalType": "uint64",
          "name": "newTrustedAggregatorTimeout",
          "type": "uint64"
        }
      ],
      "name": "SetTrustedAggregatorTimeout",
      "type": "event"
    },
    {
      "anonymous": false,
      "inputs": [
        {
          "indexed": false,
          "internalType": "address",
          "name": "newTrustedSequencer",
          "type": "address"
        }
      ],
      "name": "SetTrustedSequencer",
      "type": "event"
    },
    {
      "anonymous": false,
      "inputs": [
        {
          "indexed": false,
          "internalType": "string",
          "name": "newTrustedSequencerURL",
          "type": "string"
        }
      ],
      "name": "SetTrustedSequencerURL",
      "type": "event"
    },
    {
      "anonymous": false,
      "inputs": [
        {
          "indexed": false,
          "internalType": "uint64",
          "name": "newVerifyBatchTimeTarget",
          "type": "uint64"
        }
      ],
      "name": "SetVerifyBatchTimeTarget",
      "type": "event"
    },
    {
      "anonymous": false,
      "inputs": [
        {
          "indexed": false,
          "internalType": "address",
          "name": "newPendingAdmin",
          "type": "address"
        }
      ],
      "name": "TransferAdminRole",
      "type": "event"
    },
    {
      "anonymous": false,
      "inputs": [
        {
          "indexed": false,
          "internalType": "uint64",
          "name": "numBatch",
          "type": "uint64"
        },
        {
          "indexed": false,
          "internalType": "uint64",
          "name": "forkID",
          "type": "uint64"
        },
        {
          "indexed": false,
          "internalType": "string",
          "name": "version",
          "type": "string"
        }
      ],
      "name": "UpdateZkEVMVersion",
      "type": "event"
    },
    {
      "anonymous": false,
      "inputs": [
        {
          "indexed": true,
          "internalType": "uint64",
          "name": "numBatch",
          "type": "uint64"
        },
        {
          "indexed": false,
          "internalType": "bytes32",
          "name": "stateRoot",
          "type": "bytes32"
        },
        {
          "indexed": true,
          "internalType": "address",
          "name": "aggregator",
          "type": "address"
        }
      ],
      "name": "VerifyBatches",
      "type": "event"
    },
    {
      "anonymous": false,
      "inputs": [
        {
          "indexed": true,
          "internalType": "uint64",
          "name": "numBatch",
          "type": "uint64"
        },
        {
          "indexed": false,
          "internalType": "bytes32",
          "name": "stateRoot",
          "type": "bytes32"
        },
        {
          "indexed": true,
          "internalType": "address",
          "name": "aggregator",
          "type": "address"
        }
      ],
      "name": "VerifyBatchesTrustedAggregator",
      "type": "event"
    },
    {
      "inputs": [],
      "name": "acceptAdminRole",
      "outputs": [],
      "stateMutability": "nonpayable",
      "type": "function"
    },
    {
      "inputs": [
        {
          "internalType": "uint64",
          "name": "sequencedBatchNum",
          "type": "uint64"
        }
      ],
      "name": "activateEmergencyState",
      "outputs": [],
      "stateMutability": "nonpayable",
      "type": "function"
    },
    {
      "inputs": [],
      "name": "admin",
      "outputs": [
        {
          "internalType": "address",
          "name": "",
          "type": "address"
        }
      ],
      "stateMutability": "view",
      "type": "function"
    },
    {
      "inputs": [],
      "name": "batchFee",
      "outputs": [
        {
          "internalType": "uint256",
          "name": "",
          "type": "uint256"
        }
      ],
      "stateMutability": "view",
      "type": "function"
    },
    {
      "inputs": [
        {
          "internalType": "uint64",
          "name": "",
          "type": "uint64"
        }
      ],
      "name": "batchNumToStateRoot",
      "outputs": [
        {
          "internalType": "bytes32",
          "name": "",
          "type": "bytes32"
        }
      ],
      "stateMutability": "view",
      "type": "function"
    },
    {
      "inputs": [],
      "name": "bridgeAddress",
      "outputs": [
        {
          "internalType": "contract IPolygonZkEVMBridge",
          "name": "",
          "type": "address"
        }
      ],
      "stateMutability": "view",
      "type": "function"
    },
    {
      "inputs": [],
      "name": "calculateRewardPerBatch",
      "outputs": [
        {
          "internalType": "uint256",
          "name": "",
          "type": "uint256"
        }
      ],
      "stateMutability": "view",
      "type": "function"
    },
    {
      "inputs": [],
      "name": "chainID",
      "outputs": [
        {
          "internalType": "uint64",
          "name": "",
          "type": "uint64"
        }
      ],
      "stateMutability": "view",
      "type": "function"
    },
    {
      "inputs": [
        {
          "internalType": "uint64",
          "name": "pendingStateNum",
          "type": "uint64"
        }
      ],
      "name": "consolidatePendingState",
      "outputs": [],
      "stateMutability": "nonpayable",
      "type": "function"
    },
    {
      "inputs": [],
      "name": "deactivateEmergencyState",
      "outputs": [],
      "stateMutability": "nonpayable",
      "type": "function"
    },
    {
      "inputs": [
        {
          "internalType": "bytes",
          "name": "transactions",
          "type": "bytes"
        },
        {
          "internalType": "uint256",
          "name": "maticAmount",
          "type": "uint256"
        }
      ],
      "name": "forceBatch",
      "outputs": [],
      "stateMutability": "nonpayable",
      "type": "function"
    },
    {
      "inputs": [
        {
          "internalType": "uint64",
          "name": "",
          "type": "uint64"
        }
      ],
      "name": "forcedBatches",
      "outputs": [
        {
          "internalType": "bytes32",
          "name": "",
          "type": "bytes32"
        }
      ],
      "stateMutability": "view",
      "type": "function"
    },
    {
      "inputs": [],
      "name": "forkID",
      "outputs": [
        {
          "internalType": "uint64",
          "name": "",
          "type": "uint64"
        }
      ],
      "stateMutability": "view",
      "type": "function"
    },
    {
      "inputs": [],
      "name": "getCurrentBatchFee",
      "outputs": [
        {
          "internalType": "uint256",
          "name": "",
          "type": "uint256"
        }
      ],
      "stateMutability": "view",
      "type": "function"
    },
    {
      "inputs": [
        {
          "internalType": "uint64",
          "name": "initNumBatch",
          "type": "uint64"
        },
        {
          "internalType": "uint64",
          "name": "finalNewBatch",
          "type": "uint64"
        },
        {
          "internalType": "bytes32",
          "name": "newLocalExitRoot",
          "type": "bytes32"
        },
        {
          "internalType": "bytes32",
          "name": "oldStateRoot",
          "type": "bytes32"
        },
        {
          "internalType": "bytes32",
          "name": "newStateRoot",
          "type": "bytes32"
        }
      ],
      "name": "getInputSnarkBytes",
      "outputs": [
        {
          "internalType": "bytes",
          "name": "",
          "type": "bytes"
        }
      ],
      "stateMutability": "view",
      "type": "function"
    },
    {
      "inputs": [],
      "name": "getLastVerifiedBatch",
      "outputs": [
        {
          "internalType": "uint64",
          "name": "",
          "type": "uint64"
        }
      ],
      "stateMutability": "view",
      "type": "function"
    },
    {
      "inputs": [],
      "name": "globalExitRootManager",
      "outputs": [
        {
          "internalType": "contract IPolygonZkEVMGlobalExitRoot",
          "name": "",
          "type": "address"
        }
      ],
      "stateMutability": "view",
      "type": "function"
    },
    {
      "inputs": [
        {
          "components": [
            {
              "internalType": "address",
              "name": "admin",
              "type": "address"
            },
            {
              "internalType": "address",
              "name": "trustedSequencer",
              "type": "address"
            },
            {
              "internalType": "uint64",
              "name": "pendingStateTimeout",
              "type": "uint64"
            },
            {
              "internalType": "address",
              "name": "trustedAggregator",
              "type": "address"
            },
            {
              "internalType": "uint64",
              "name": "trustedAggregatorTimeout",
              "type": "uint64"
            }
          ],
          "internalType": "struct PolygonZkEVM.InitializePackedParameters",
          "name": "initializePackedParameters",
          "type": "tuple"
        },
        {
          "internalType": "bytes32",
          "name": "genesisRoot",
          "type": "bytes32"
        },
        {
          "internalType": "string",
          "name": "_trustedSequencerURL",
          "type": "string"
        },
        {
          "internalType": "string",
          "name": "_networkName",
          "type": "string"
        },
        {
          "internalType": "string",
          "name": "_version",
          "type": "string"
        }
      ],
      "name": "initialize",
      "outputs": [],
      "stateMutability": "nonpayable",
      "type": "function"
    },
    {
      "inputs": [],
      "name": "isEmergencyState",
      "outputs": [
        {
          "internalType": "bool",
          "name": "",
          "type": "bool"
        }
      ],
      "stateMutability": "view",
      "type": "function"
    },
    {
      "inputs": [
        {
          "internalType": "uint64",
          "name": "pendingStateNum",
          "type": "uint64"
        }
      ],
      "name": "isPendingStateConsolidable",
      "outputs": [
        {
          "internalType": "bool",
          "name": "",
          "type": "bool"
        }
      ],
      "stateMutability": "view",
      "type": "function"
    },
    {
      "inputs": [],
      "name": "lastBatchSequenced",
      "outputs": [
        {
          "internalType": "uint64",
          "name": "",
          "type": "uint64"
        }
      ],
      "stateMutability": "view",
      "type": "function"
    },
    {
      "inputs": [],
      "name": "lastForceBatch",
      "outputs": [
        {
          "internalType": "uint64",
          "name": "",
          "type": "uint64"
        }
      ],
      "stateMutability": "view",
      "type": "function"
    },
    {
      "inputs": [],
      "name": "lastForceBatchSequenced",
      "outputs": [
        {
          "internalType": "uint64",
          "name": "",
          "type": "uint64"
        }
      ],
      "stateMutability": "view",
      "type": "function"
    },
    {
      "inputs": [],
      "name": "lastPendingState",
      "outputs": [
        {
          "internalType": "uint64",
          "name": "",
          "type": "uint64"
        }
      ],
      "stateMutability": "view",
      "type": "function"
    },
    {
      "inputs": [],
      "name": "lastPendingStateConsolidated",
      "outputs": [
        {
          "internalType": "uint64",
          "name": "",
          "type": "uint64"
        }
      ],
      "stateMutability": "view",
      "type": "function"
    },
    {
      "inputs": [],
      "name": "lastTimestamp",
      "outputs": [
        {
          "internalType": "uint64",
          "name": "",
          "type": "uint64"
        }
      ],
      "stateMutability": "view",
      "type": "function"
    },
    {
      "inputs": [],
      "name": "lastVerifiedBatch",
      "outputs": [
        {
          "internalType": "uint64",
          "name": "",
          "type": "uint64"
        }
      ],
      "stateMutability": "view",
      "type": "function"
    },
    {
      "inputs": [],
      "name": "matic",
      "outputs": [
        {
          "internalType": "contract IERC20Upgradeable",
          "name": "",
          "type": "address"
        }
      ],
      "stateMutability": "view",
      "type": "function"
    },
    {
      "inputs": [],
      "name": "multiplierBatchFee",
      "outputs": [
        {
          "internalType": "uint16",
          "name": "",
          "type": "uint16"
        }
      ],
      "stateMutability": "view",
      "type": "function"
    },
    {
      "inputs": [],
      "name": "networkName",
      "outputs": [
        {
          "internalType": "string",
          "name": "",
          "type": "string"
        }
      ],
      "stateMutability": "view",
      "type": "function"
    },
    {
      "inputs": [
        {
          "internalType": "uint64",
          "name": "initPendingStateNum",
          "type": "uint64"
        },
        {
          "internalType": "uint64",
          "name": "finalPendingStateNum",
          "type": "uint64"
        },
        {
          "internalType": "uint64",
          "name": "initNumBatch",
          "type": "uint64"
        },
        {
          "internalType": "uint64",
          "name": "finalNewBatch",
          "type": "uint64"
        },
        {
          "internalType": "bytes32",
          "name": "newLocalExitRoot",
          "type": "bytes32"
        },
        {
          "internalType": "bytes32",
          "name": "newStateRoot",
          "type": "bytes32"
        },
        {
          "internalType": "bytes",
          "name": "proof",
          "type": "bytes"
        }
      ],
      "name": "overridePendingState",
      "outputs": [],
      "stateMutability": "nonpayable",
      "type": "function"
    },
    {
      "inputs": [],
      "name": "owner",
      "outputs": [
        {
          "internalType": "address",
          "name": "",
          "type": "address"
        }
      ],
      "stateMutability": "view",
      "type": "function"
    },
    {
      "inputs": [],
      "name": "pendingAdmin",
      "outputs": [
        {
          "internalType": "address",
          "name": "",
          "type": "address"
        }
      ],
      "stateMutability": "view",
      "type": "function"
    },
    {
      "inputs": [],
      "name": "pendingStateTimeout",
      "outputs": [
        {
          "internalType": "uint64",
          "name": "",
          "type": "uint64"
        }
      ],
      "stateMutability": "view",
      "type": "function"
    },
    {
      "inputs": [
        {
          "internalType": "uint256",
          "name": "",
          "type": "uint256"
        }
      ],
      "name": "pendingStateTransitions",
      "outputs": [
        {
          "internalType": "uint64",
          "name": "timestamp",
          "type": "uint64"
        },
        {
          "internalType": "uint64",
          "name": "lastVerifiedBatch",
          "type": "uint64"
        },
        {
          "internalType": "bytes32",
          "name": "exitRoot",
          "type": "bytes32"
        },
        {
          "internalType": "bytes32",
          "name": "stateRoot",
          "type": "bytes32"
        }
      ],
      "stateMutability": "view",
      "type": "function"
    },
    {
      "inputs": [
        {
          "internalType": "uint64",
          "name": "initPendingStateNum",
          "type": "uint64"
        },
        {
          "internalType": "uint64",
          "name": "finalPendingStateNum",
          "type": "uint64"
        },
        {
          "internalType": "uint64",
          "name": "initNumBatch",
          "type": "uint64"
        },
        {
          "internalType": "uint64",
          "name": "finalNewBatch",
          "type": "uint64"
        },
        {
          "internalType": "bytes32",
          "name": "newLocalExitRoot",
          "type": "bytes32"
        },
        {
          "internalType": "bytes32",
          "name": "newStateRoot",
          "type": "bytes32"
        },
        {
          "internalType": "bytes",
          "name": "proof",
          "type": "bytes"
        }
      ],
      "name": "proveNonDeterministicPendingState",
      "outputs": [],
      "stateMutability": "nonpayable",
      "type": "function"
    },
    {
      "inputs": [],
      "name": "renounceOwnership",
      "outputs": [],
      "stateMutability": "nonpayable",
      "type": "function"
    },
    {
      "inputs": [],
      "name": "rollupVerifier",
      "outputs": [
        {
          "internalType": "contract IVerifierRollup",
          "name": "",
          "type": "address"
        }
      ],
      "stateMutability": "view",
      "type": "function"
    },
    {
      "inputs": [
        {
          "components": [
            {
              "internalType": "bytes",
              "name": "transactions",
              "type": "bytes"
            },
            {
              "internalType": "bytes32",
              "name": "globalExitRoot",
              "type": "bytes32"
            },
            {
              "internalType": "uint64",
              "name": "timestamp",
              "type": "uint64"
            },
            {
              "internalType": "uint64",
              "name": "minForcedTimestamp",
              "type": "uint64"
            }
          ],
          "internalType": "struct PolygonZkEVM.BatchData[]",
          "name": "batches",
          "type": "tuple[]"
        },
        {
          "internalType": "address",
          "name": "l2Coinbase",
          "type": "address"
        }
      ],
      "name": "sequenceBatches",
      "outputs": [],
      "stateMutability": "nonpayable",
      "type": "function"
    },
    {
      "inputs": [
        {
          "components": [
            {
              "internalType": "bytes",
              "name": "transactions",
              "type": "bytes"
            },
            {
              "internalType": "bytes32",
              "name": "globalExitRoot",
              "type": "bytes32"
            },
            {
              "internalType": "uint64",
              "name": "minForcedTimestamp",
              "type": "uint64"
            }
          ],
          "internalType": "struct PolygonZkEVM.ForcedBatchData[]",
          "name": "batches",
          "type": "tuple[]"
        }
      ],
      "name": "sequenceForceBatches",
      "outputs": [],
      "stateMutability": "nonpayable",
      "type": "function"
    },
    {
      "inputs": [
        {
          "internalType": "uint64",
          "name": "",
          "type": "uint64"
        }
      ],
      "name": "sequencedBatches",
      "outputs": [
        {
          "internalType": "bytes32",
          "name": "accInputHash",
          "type": "bytes32"
        },
        {
          "internalType": "uint64",
          "name": "sequencedTimestamp",
          "type": "uint64"
        },
        {
          "internalType": "uint64",
          "name": "previousLastBatchSequenced",
          "type": "uint64"
        }
      ],
      "stateMutability": "view",
      "type": "function"
    },
    {
      "inputs": [
        {
          "internalType": "uint16",
          "name": "newMultiplierBatchFee",
          "type": "uint16"
        }
      ],
      "name": "setMultiplierBatchFee",
      "outputs": [],
      "stateMutability": "nonpayable",
      "type": "function"
    },
    {
      "inputs": [
        {
          "internalType": "uint64",
          "name": "newPendingStateTimeout",
          "type": "uint64"
        }
      ],
      "name": "setPendingStateTimeout",
      "outputs": [],
      "stateMutability": "nonpayable",
      "type": "function"
    },
    {
      "inputs": [
        {
          "internalType": "address",
          "name": "newTrustedAggregator",
          "type": "address"
        }
      ],
      "name": "setTrustedAggregator",
      "outputs": [],
      "stateMutability": "nonpayable",
      "type": "function"
    },
    {
      "inputs": [
        {
          "internalType": "uint64",
          "name": "newTrustedAggregatorTimeout",
          "type": "uint64"
        }
      ],
      "name": "setTrustedAggregatorTimeout",
      "outputs": [],
      "stateMutability": "nonpayable",
      "type": "function"
    },
    {
      "inputs": [
        {
          "internalType": "address",
          "name": "newTrustedSequencer",
          "type": "address"
        }
      ],
      "name": "setTrustedSequencer",
      "outputs": [],
      "stateMutability": "nonpayable",
      "type": "function"
    },
    {
      "inputs": [
        {
          "internalType": "string",
          "name": "newTrustedSequencerURL",
          "type": "string"
        }
      ],
      "name": "setTrustedSequencerURL",
      "outputs": [],
      "stateMutability": "nonpayable",
      "type": "function"
    },
    {
      "inputs": [
        {
          "internalType": "uint64",
          "name": "newVerifyBatchTimeTarget",
          "type": "uint64"
        }
      ],
      "name": "setVerifyBatchTimeTarget",
      "outputs": [],
      "stateMutability": "nonpayable",
      "type": "function"
    },
    {
      "inputs": [
        {
          "internalType": "address",
          "name": "newPendingAdmin",
          "type": "address"
        }
      ],
      "name": "transferAdminRole",
      "outputs": [],
      "stateMutability": "nonpayable",
      "type": "function"
    },
    {
      "inputs": [
        {
          "internalType": "address",
          "name": "newOwner",
          "type": "address"
        }
      ],
      "name": "transferOwnership",
      "outputs": [],
      "stateMutability": "nonpayable",
      "type": "function"
    },
    {
      "inputs": [],
      "name": "trustedAggregator",
      "outputs": [
        {
          "internalType": "address",
          "name": "",
          "type": "address"
        }
      ],
      "stateMutability": "view",
      "type": "function"
    },
    {
      "inputs": [],
      "name": "trustedAggregatorTimeout",
      "outputs": [
        {
          "internalType": "uint64",
          "name": "",
          "type": "uint64"
        }
      ],
      "stateMutability": "view",
      "type": "function"
    },
    {
      "inputs": [],
      "name": "trustedSequencer",
      "outputs": [
        {
          "internalType": "address",
          "name": "",
          "type": "address"
        }
      ],
      "stateMutability": "view",
      "type": "function"
    },
    {
      "inputs": [],
      "name": "trustedSequencerURL",
      "outputs": [
        {
          "internalType": "string",
          "name": "",
          "type": "string"
        }
      ],
      "stateMutability": "view",
      "type": "function"
    },
    {
      "inputs": [],
      "name": "verifyBatchTimeTarget",
      "outputs": [
        {
          "internalType": "uint64",
          "name": "",
          "type": "uint64"
        }
      ],
      "stateMutability": "view",
      "type": "function"
    },
    {
      "inputs": [
        {
          "internalType": "uint64",
          "name": "pendingStateNum",
          "type": "uint64"
        },
        {
          "internalType": "uint64",
          "name": "initNumBatch",
          "type": "uint64"
        },
        {
          "internalType": "uint64",
          "name": "finalNewBatch",
          "type": "uint64"
        },
        {
          "internalType": "bytes32",
          "name": "newLocalExitRoot",
          "type": "bytes32"
        },
        {
          "internalType": "bytes32",
          "name": "newStateRoot",
          "type": "bytes32"
        },
        {
          "internalType": "bytes",
          "name": "proof",
          "type": "bytes"
        }
      ],
      "name": "verifyBatches",
      "outputs": [],
      "stateMutability": "nonpayable",
      "type": "function"
    },
    {
      "inputs": [
        {
          "internalType": "uint64",
          "name": "pendingStateNum",
          "type": "uint64"
        },
        {
          "internalType": "uint64",
          "name": "initNumBatch",
          "type": "uint64"
        },
        {
          "internalType": "uint64",
          "name": "finalNewBatch",
          "type": "uint64"
        },
        {
          "internalType": "bytes32",
          "name": "newLocalExitRoot",
          "type": "bytes32"
        },
        {
          "internalType": "bytes32",
          "name": "newStateRoot",
          "type": "bytes32"
        },
        {
          "internalType": "bytes",
          "name": "proof",
          "type": "bytes"
        }
      ],
      "name": "verifyBatchesTrustedAggregator",
      "outputs": [],
      "stateMutability": "nonpayable",
      "type": "function"
    }
  ],
  "bytecode": "0x6101406040523480156200001257600080fd5b50604051620045e0380380620045e08339810160408190526200003591620000a5565b6001600160a01b0395861660c05293851660805291841660a05290921660e0526001600160401b0391821661010052166101205262000131565b6001600160a01b03811681146200008557600080fd5b50565b80516001600160401b0381168114620000a057600080fd5b919050565b60008060008060008060c08789031215620000bf57600080fd5b8651620000cc816200006f565b6020880151909650620000df816200006f565b6040880151909550620000f2816200006f565b606088015190945062000105816200006f565b9250620001156080880162000088565b91506200012560a0880162000088565b90509295509295509295565b60805160a05160c05160e05161010051610120516143e8620001f86000396000818161055301528181610b730152611f9601526000818161069e0152610b49015260008181610651015281816123960152612c560152600081816107a901528181610ec00152818161125601528181611ad6015281816124b2015281816126250152612daf01526000818161084501528181612b76015261305c01526000818161074d015281816114f10152818161178a015281816125f9015261312401526143e86000f3fe608060405234801561001057600080fd5b50600436106103035760003560e01c80638c3d73011161019e578063c89e42df116100ef578063e6ad707e1161009d578063e6ad707e14610813578063e7a7ed0214610826578063e8bf92ed14610840578063eaeb077b14610867578063f14916d61461087a578063f2fde38b1461088d578063f851a440146108a0578063f8b823e4146108b357600080fd5b8063c89e42df14610777578063cfa8ed471461078a578063d02103ca146107a4578063d2e129f9146107cb578063d8d1091b146107de578063d939b315146107f1578063dbc169761461080b57600080fd5b8063a50a164b1161014c578063a50a164b14610673578063ada8f91914610686578063adc879e914610699578063afd23cbe146106c0578063b4d63f58146106e8578063b6b0b09714610748578063c0ed84e01461076f57600080fd5b80638c3d7301146105fd5780638da5cb5b1461060557806399f5634e146106165780639c9f3dfe1461061e5780639f0d039d14610631578063a066215c14610639578063a3c573eb1461064c57600080fd5b80634a1a89a7116102585780636ff512cc116102065780636ff512cc1461050d578063715018a6146105205780637215541a146105285780637fcb36531461053b578063831c7ead1461054e578063837a473814610575578063841b24d7146105e357600080fd5b80634a1a89a7146104645780634a910e6a1461047e5780634fd70464146104915780635392c5e0146104a4578063542028d5146104d25780635e9145c9146104da5780636b8616ce146104ed57600080fd5b806326782247116102b557806326782247146103bd57806329878983146103dd578063383b3be8146103f7578063394218e91461040a578063423fa8561461041d5780634560526714610437578063458c04771461045157600080fd5b80630808270c146103085780630a0d9fbe1461031d578063107bf28c1461035257806315064c96146103675780631816b7e51461038457806319d8ac6114610397578063220d7899146103aa575b600080fd5b61031b610316366004613923565b6108bc565b005b606f546103359061010090046001600160401b031681565b6040516001600160401b0390911681526020015b60405180910390f35b61035a610955565b6040516103499190613a0b565b606f546103749060ff1681565b6040519015158152602001610349565b61031b610392366004613a25565b6109e3565b607354610335906001600160401b031681565b61035a6103b8366004613a49565b610a9c565b607b546103d0906001600160a01b031681565b6040516103499190613a96565b6074546103d090600160401b90046001600160a01b031681565b610374610405366004613aaa565b610bd1565b61031b610418366004613aaa565b610c18565b60735461033590600160401b90046001600160401b031681565b60735461033590600160801b90046001600160401b031681565b607954610335906001600160401b031681565b60795461033590600160401b90046001600160401b031681565b61031b61048c366004613aaa565b610d06565b61031b61049f366004613ac5565b610d75565b6104c46104b2366004613aaa565b60756020526000908152604090205481565b604051908152602001610349565b61035a611024565b61031b6104e8366004613ba8565b611031565b6104c46104fb366004613aaa565b60716020526000908152604090205481565b61031b61051b366004613bfb565b611561565b61031b6115e0565b61031b610536366004613aaa565b6115f4565b607454610335906001600160401b031681565b6103357f000000000000000000000000000000000000000000000000000000000000000081565b6105b8610583366004613c16565b6078602052600090815260409020805460018201546002909201546001600160401b0380831693600160401b90930416919084565b604080516001600160401b039586168152949093166020850152918301526060820152608001610349565b60795461033590600160c01b90046001600160401b031681565b61031b611701565b6033546001600160a01b03166103d0565b6104c4611785565b61031b61062c366004613aaa565b611892565b6070546104c4565b61031b610647366004613aaa565b611985565b6103d07f000000000000000000000000000000000000000000000000000000000000000081565b61031b610681366004613ac5565b611a34565b61031b610694366004613bfb565b611b77565b6103357f000000000000000000000000000000000000000000000000000000000000000081565b606f546106d590600160481b900461ffff1681565b60405161ffff9091168152602001610349565b6107236106f6366004613aaa565b607260205260009081526040902080546001909101546001600160401b0380821691600160401b90041683565b604080519384526001600160401b039283166020850152911690820152606001610349565b6103d07f000000000000000000000000000000000000000000000000000000000000000081565b610335611bed565b61031b610785366004613cd1565b611c3a565b606f546103d090600160581b90046001600160a01b031681565b6103d07f000000000000000000000000000000000000000000000000000000000000000081565b61031b6107d9366004613d05565b611ca1565b61031b6107ec366004613db7565b61201e565b60795461033590600160801b90046001600160401b031681565b61031b612369565b61031b610821366004613923565b61240f565b60735461033590600160c01b90046001600160401b031681565b6103d07f000000000000000000000000000000000000000000000000000000000000000081565b61031b610875366004613df8565b612576565b61031b610888366004613bfb565b61281f565b61031b61089b366004613bfb565b61289e565b607a546103d0906001600160a01b031681565b6104c460705481565b606f5460ff16156108e057604051630bc011ff60e21b815260040160405180910390fd5b6108f08888888888888888612914565b6001600160401b0385166000908152607560209081526040918290205482519081529081018590527f1f44c21118c4603cfb4e1b621dbcfa2b73efcececee2b99b620b2953d33a7010910160405180910390a161094b612c54565b5050505050505050565b6077805461096290613e43565b80601f016020809104026020016040519081016040528092919081815260200182805461098e90613e43565b80156109db5780601f106109b0576101008083540402835291602001916109db565b820191906000526020600020905b8154815290600101906020018083116109be57829003601f168201915b505050505081565b607a546001600160a01b03163314610a0e57604051634755657960e01b815260040160405180910390fd5b6103e88161ffff161080610a2757506103ff8161ffff16115b15610a4557604051630984a67960e31b815260040160405180910390fd5b606f805461ffff60481b1916600160481b61ffff8416908102919091179091556040519081527f7019933d795eba185c180209e8ae8bffbaa25bcef293364687702c31f4d302c5906020015b60405180910390a150565b6001600160401b038086166000818152607260205260408082205493881682529020546060929115801590610acf575081155b15610aed5760405163340c614f60e11b815260040160405180910390fd5b80610b0b576040516366385b5160e01b815260040160405180910390fd5b604080516001600160601b03193360601b166020820152603481019690965260548601929092526001600160c01b031960c098891b811660748701527f0000000000000000000000000000000000000000000000000000000000000000891b8116607c8701527f0000000000000000000000000000000000000000000000000000000000000000891b81166084870152608c86019490945260ac85015260cc840194909452509290931b90911660ec830152805180830360d401815260f4909201905290565b6079546001600160401b0382811660009081526078602052604081205490924292610c0792600160801b90920481169116613e93565b6001600160401b0316111592915050565b607a546001600160a01b03163314610c4357604051634755657960e01b815260040160405180910390fd5b62093a806001600160401b0382161115610c7057604051631d06e87960e01b815260040160405180910390fd5b606f5460ff16610cb0576079546001600160401b03600160c01b909104811690821610610cb05760405163401636df60e01b815260040160405180910390fd5b607980546001600160c01b0316600160c01b6001600160401b038416908102919091179091556040519081527f1f4fa24c2e4bad19a7f3ec5c5485f70d46c798461c2e684f55bbd0fc661373a190602001610a91565b607454600160401b90046001600160a01b03163314610d6957606f5460ff1615610d4357604051630bc011ff60e21b815260040160405180910390fd5b610d4c81610bd1565b610d6957604051630674f25160e11b815260040160405180910390fd5b610d7281612ccf565b50565b606f5460ff1615610d9957604051630bc011ff60e21b815260040160405180910390fd5b6079546001600160401b038681166000908152607260205260409020600101544292610dd092600160c01b90910481169116613e93565b6001600160401b03161115610df857604051638a0704d360e01b815260040160405180910390fd5b6103e8610e058787613eba565b6001600160401b03161115610e2d57604051635acfba9d60e11b815260040160405180910390fd5b610e3c87878787878787612e69565b610e458561314b565b607954600160801b90046001600160401b0316600003610f29576074805467ffffffffffffffff19166001600160401b0387811691821790925560009081526075602052604090208490556079541615610eaa57607980546001600160801b03191690555b6040516333d6247d60e01b8152600481018590527f00000000000000000000000000000000000000000000000000000000000000006001600160a01b0316906333d6247d90602401600060405180830381600087803b158015610f0c57600080fd5b505af1158015610f20573d6000803e3d6000fd5b50505050610fda565b610f3161333f565b607980546001600160401b0316906000610f4a83613eda565b82546001600160401b039182166101009390930a92830292820219169190911790915560408051608081018252428316815288831660208083019182528284018a8152606084018a8152607954871660009081526078909352949091209251835492518616600160401b026001600160801b03199093169516949094171781559151600183015551600290910155505b60405183815233906001600160401b038716907f9c72852172521097ba7e1482e6b44b351323df0155f97f4ea18fcec28e1f5966906020015b60405180910390a350505050505050565b6076805461096290613e43565b606f5460ff161561105557604051630bc011ff60e21b815260040160405180910390fd5b606f54600160581b90046001600160a01b03163314611087576040516311e7be1560e01b815260040160405180910390fd5b8160008190036110aa5760405163cb591a5f60e01b815260040160405180910390fd5b6103e88111156110cd57604051635acfba9d60e11b815260040160405180910390fd5b6073546001600160401b03600160401b82048116600081815260726020526040812054838516949293600160801b909304909216919082905b868110156113b45760008a8a8381811061112257611122613f00565b90506020028101906111349190613f16565b61113d90613f36565b805180516020909101206060820151919250906001600160401b03161561122c578561116881613eda565b9650506000818360200151846060015160405160200161118a93929190613fc2565b60408051601f1981840301815291815281516020928301206001600160401b038a166000908152607190935291205490915081146111db5760405163671ebaaf60e11b815260040160405180910390fd5b6001600160401b03808816600090815260716020526040808220919091556060850151908501519082169116101561122657604051633fbd5c3960e11b815260040160405180910390fd5b50611311565b6020820151158015906112cd575060208201516040516312bd9b1960e11b815260048101919091527f00000000000000000000000000000000000000000000000000000000000000006001600160a01b03169063257b3632906024016020604051808303816000875af11580156112a7573d6000803e3d6000fd5b505050506040513d601f19601f820116820180604052508101906112cb9190613fe5565b155b156112eb576040516373bd668d60e01b815260040160405180910390fd5b815151620493e01015611311576040516328a69b1f60e21b815260040160405180910390fd5b876001600160401b031682604001516001600160401b0316108061134157504282604001516001600160401b0316115b1561135f576040516375413c8b60e11b815260040160405180910390fd5b8481836020015184604001518d604051602001611380959493929190613ffe565b60405160208183030381529060405280519060200120945081604001519750505080806113ac9061403d565b915050611106565b506113bf8685613e93565b6073549094506001600160401b03600160c01b909104811690841611156113f95760405163c630a00d60e01b815260040160405180910390fd5b60006114058285613eba565b611418906001600160401b031688614056565b60408051606081018252858152426001600160401b03908116602080840191825260738054600160401b9081900485168688019081528d861660008181526072909552979093209551865592516001909501805492519585166001600160801b03199384161795851684029590951790945583548c84169116179302929092179055909150828116908516146114ce576073805467ffffffffffffffff60801b1916600160801b6001600160401b038716021790555b6115193330836114dd60705490565b6114e7919061406f565b6001600160a01b037f0000000000000000000000000000000000000000000000000000000000000000169291906133e3565b61152161333f565b6040516001600160401b038616907f303446e6a8cb73c83dff421c0b1d5e5ce0719dab1bff13660fc254e58cc17fce90600090a250505050505050505050565b607a546001600160a01b0316331461158c57604051634755657960e01b815260040160405180910390fd5b606f8054600160581b600160f81b031916600160581b6001600160a01b038416021790556040517ff54144f9611984021529f814a1cb6a41e22c58351510a0d9f7e822618abb9cc090610a91908390613a96565b6115e8613454565b6115f260006134ae565b565b6033546001600160a01b031633146116f9576000611610611bed565b9050806001600160401b0316826001600160401b0316116116445760405163812a372d60e01b815260040160405180910390fd5b6073546001600160401b03600160401b9091048116908316118061168357506001600160401b0380831660009081526072602052604090206001015416155b156116a157604051632631700560e21b815260040160405180910390fd5b6001600160401b0380831660009081526072602052604090206001015442916116cf9162093a809116613e93565b6001600160401b031611156116f75760405163692baaad60e11b815260040160405180910390fd5b505b610d72612c54565b607b546001600160a01b0316331461172c5760405163d1ec4b2360e01b815260040160405180910390fd5b607b54607a80546001600160a01b0319166001600160a01b0390921691821790556040517f056dc487bbf0795d0bbb1b4f0af523a855503cff740bfb4d5475f7a90c091e8e9161177b91613a96565b60405180910390a1565b6000807f00000000000000000000000000000000000000000000000000000000000000006001600160a01b03166370a08231306040518263ffffffff1660e01b81526004016117d49190613a96565b602060405180830381865afa1580156117f1573d6000803e3d6000fd5b505050506040513d601f19601f820116820180604052508101906118159190613fe5565b90506000611821611bed565b6073546001600160401b03600160401b820481169161185191600160801b8204811691600160c01b900416613eba565b61185b9190613e93565b6118659190613eba565b6001600160401b03169050806000036118815760009250505090565b61188b818361409c565b9250505090565b607a546001600160a01b031633146118bd57604051634755657960e01b815260040160405180910390fd5b62093a806001600160401b03821611156118ea57604051630cc9650760e41b815260040160405180910390fd5b606f5460ff1661192a576079546001600160401b03600160801b90910481169082161061192a5760405163048a05a960e41b815260040160405180910390fd5b6079805467ffffffffffffffff60801b1916600160801b6001600160401b038416908102919091179091556040519081527fc4121f4e22c69632ebb7cf1f462be0511dc034f999b52013eddfb24aab765c7590602001610a91565b607a546001600160a01b031633146119b057604051634755657960e01b815260040160405180910390fd5b62015180816001600160401b031611156119dd57604051631c0cfbfd60e31b815260040160405180910390fd5b606f805468ffffffffffffffff0019166101006001600160401b038416908102919091179091556040519081527f1b023231a1ab6b5d93992f168fb44498e1a7e64cef58daff6f1c216de6a68c2890602001610a91565b607454600160401b90046001600160a01b03163314611a665760405163bbcbbc0560e01b815260040160405180910390fd5b611a7587878787878787612e69565b6074805467ffffffffffffffff19166001600160401b0387811691821790925560009081526075602052604090208490556079541615611ac057607980546001600160801b03191690555b6040516333d6247d60e01b8152600481018590527f00000000000000000000000000000000000000000000000000000000000000006001600160a01b0316906333d6247d90602401600060405180830381600087803b158015611b2257600080fd5b505af1158015611b36573d6000803e3d6000fd5b50506040518581523392506001600160401b03881691507fcb339b570a7f0b25afa7333371ff11192092a0aeace12b671f4c212f2815c6fe90602001611013565b607a546001600160a01b03163314611ba257604051634755657960e01b815260040160405180910390fd5b607b80546001600160a01b0319166001600160a01b0383161790556040517fa5b56b7906fd0a20e3f35120dd8343db1e12e037a6c90111c7e42885e82a1ce690610a91908390613a96565b6079546000906001600160401b031615611c2a57506079546001600160401b03908116600090815260786020526040902054600160401b90041690565b506074546001600160401b031690565b607a546001600160a01b03163314611c6557604051634755657960e01b815260040160405180910390fd5b6076611c7182826140fe565b507f6b8f723a4c7a5335cafae8a598a0aa0301be1387c037dccc085b62add6448b2081604051610a919190613a0b565b600054610100900460ff1615808015611cc15750600054600160ff909116105b80611cdb5750303b158015611cdb575060005460ff166001145b611d435760405162461bcd60e51b815260206004820152602e60248201527f496e697469616c697a61626c653a20636f6e747261637420697320616c72656160448201526d191e481a5b9a5d1a585b1a5e995960921b60648201526084015b60405180910390fd5b6000805460ff191660011790558015611d66576000805461ff0019166101001790555b611d736020880188613bfb565b607a80546001600160a01b0319166001600160a01b0392909216919091179055611da36040880160208901613bfb565b606f80546001600160a01b0392909216600160581b02600160581b600160f81b0319909216919091179055611dde6080880160608901613bfb565b607480546001600160a01b0392909216600160401b02600160401b600160e01b03199092169190911790556000805260756020527ff9e3fbf150b7a0077118526f473c53cb4734f166167e2c6213e3567dd390b4ad8690556076611e4286826140fe565b506077611e4f85826140fe565b5062093a80611e646060890160408a01613aaa565b6001600160401b03161115611e8c57604051630cc9650760e41b815260040160405180910390fd5b611e9c6060880160408901613aaa565b607980546001600160401b0392909216600160801b0267ffffffffffffffff60801b1990921691909117905562093a80611edc60a0890160808a01613aaa565b6001600160401b03161115611f0457604051631d06e87960e01b815260040160405180910390fd5b611f1460a0880160808901613aaa565b607980546001600160c01b0316600160c01b6001600160401b039390931692909202919091179055670de0b6b3a7640000607055606f80546affffffffffffffffffff0019166a03ea000000000000070800179055611f71613500565b7fed7be53c9f1a96a481223b15568a5b1a475e01a74b347d6ca187c8bf0c078cd660007f00000000000000000000000000000000000000000000000000000000000000008585604051611fc794939291906141e6565b60405180910390a18015612015576000805461ff0019169055604051600181527f7f26b83ff96e1f2b6a682f133852f6798a09c465da95921460cefb38474024989060200160405180910390a15b50505050505050565b606f5460ff161561204257604051630bc011ff60e21b815260040160405180910390fd5b8060008190036120655760405163cb591a5f60e01b815260040160405180910390fd5b6103e881111561208857604051635acfba9d60e11b815260040160405180910390fd5b6073546001600160401b03600160c01b82048116916120b0918491600160801b90041661421d565b11156120cf5760405163c630a00d60e01b815260040160405180910390fd5b6073546001600160401b03600160401b820481166000818152607260205260408120549193600160801b9004909216915b8481101561227157600087878381811061211c5761211c613f00565b905060200281019061212e9190614230565b61213790614246565b90508361214381613eda565b8251805160209182012081850151604080870151905194995091945060009361216f9386939101613fc2565b60408051601f1981840301815291815281516020928301206001600160401b0389166000908152607190935291205490915081146121c05760405163671ebaaf60e11b815260040160405180910390fd5b6001600160401b0386166000908152607160205260408120556121e4600189614056565b840361222657426206978084604001516121fe9190613e93565b6001600160401b031611156122265760405163c44a082160e01b815260040160405180910390fd5b848284602001514233604051602001612243959493929190613ffe565b60405160208183030381529060405280519060200120945050505080806122699061403d565b915050612100565b5061227c8484613e93565b607380546001600160401b0342811667ffffffffffffffff199092168217808455604080516060810182528781526020808201958652600160401b9384900485168284019081528589166000818152607290935284832093518455965160019390930180549151871686026001600160801b031990921693871693909317179091558554938916600160801b0267ffffffffffffffff60801b1993860293909316600160401b600160c01b031990941693909317919091179093559151929550917f648a61dd2438f072f5a1960939abd30f37aea80d2e94c9792ad142d3e0a490a49190a2505050505050565b607a546001600160a01b0316331461239457604051634755657960e01b815260040160405180910390fd5b7f00000000000000000000000000000000000000000000000000000000000000006001600160a01b031663dbc169766040518163ffffffff1660e01b8152600401600060405180830381600087803b1580156123ef57600080fd5b505af1158015612403573d6000803e3d6000fd5b505050506115f2613574565b607454600160401b90046001600160a01b031633146124415760405163bbcbbc0560e01b815260040160405180910390fd5b6124518888888888888888612914565b6074805467ffffffffffffffff19166001600160401b038781169182179092556000908152607560205260409020849055607954161561249c57607980546001600160801b03191690555b6040516333d6247d60e01b8152600481018590527f00000000000000000000000000000000000000000000000000000000000000006001600160a01b0316906333d6247d90602401600060405180830381600087803b1580156124fe57600080fd5b505af1158015612512573d6000803e3d6000fd5b5050607980546001600160c01b031661127560c71b179055505060405183815233906001600160401b038716907fcc1b5520188bf1dd3e63f98164b577c4d75c11a619ddea692112f0d1aec4cf729060200160405180910390a35050505050505050565b606f5460ff161561259a57604051630bc011ff60e21b815260040160405180910390fd5b60006125a560705490565b9050818111156125c857604051634732fdb560e01b815260040160405180910390fd5b620493e08311156125ec576040516328a69b1f60e21b815260040160405180910390fd5b6126216001600160a01b037f0000000000000000000000000000000000000000000000000000000000000000163330846133e3565b60007f00000000000000000000000000000000000000000000000000000000000000006001600160a01b0316633ed691ef6040518163ffffffff1660e01b8152600401602060405180830381865afa158015612681573d6000803e3d6000fd5b505050506040513d601f19601f820116820180604052508101906126a59190613fe5565b60738054919250600160c01b9091046001600160401b03169060186126c983613eda565b91906101000a8154816001600160401b0302191690836001600160401b031602179055505084846040516126fe9291906142c1565b6040519081900381206127179183904290602001613fc2565b60408051808303601f190181529181528151602092830120607354600160c01b90046001600160401b0316600090815260719093529120553233036127bb57607354604080518381523360208201526060918101829052600091810191909152600160c01b9091046001600160401b0316907ff94bb37db835f1ab585ee00041849a09b12cd081d77fa15ca070757619cbc9319060800160405180910390a2612818565b607360189054906101000a90046001600160401b03166001600160401b03167ff94bb37db835f1ab585ee00041849a09b12cd081d77fa15ca070757619cbc9318233888860405161280f94939291906142d1565b60405180910390a25b5050505050565b607a546001600160a01b0316331461284a57604051634755657960e01b815260040160405180910390fd5b60748054600160401b600160e01b031916600160401b6001600160a01b038416021790556040517f61f8fec29495a3078e9271456f05fb0707fd4e41f7661865f80fc437d06681ca90610a91908390613a96565b6128a6613454565b6001600160a01b03811661290b5760405162461bcd60e51b815260206004820152602660248201527f4f776e61626c653a206e6577206f776e657220697320746865207a65726f206160448201526564647265737360d01b6064820152608401611d3a565b610d72816134ae565b60006001600160401b038916156129a8576079546001600160401b03908116908a1611156129555760405163bb14c20560e01b815260040160405180910390fd5b506001600160401b038089166000908152607860205260409020600281015481549092898116600160401b90920416146129a257604051632bd2e3e760e01b815260040160405180910390fd5b50612a10565b506001600160401b038616600090815260756020526040902054806129e0576040516324cbdcc360e11b815260040160405180910390fd5b6074546001600160401b039081169088161115612a1057604051630f2b74f160e11b815260040160405180910390fd5b6079546001600160401b039081169089161180612a3f5750886001600160401b0316886001600160401b031611155b80612a6057506079546001600160401b03600160401b909104811690891611155b15612a7e5760405163bfa7079f60e01b815260040160405180910390fd5b6001600160401b03888116600090815260786020526040902054600160401b9004811690871614612ac2576040516332a2a77f60e01b815260040160405180910390fd5b6000612ad18888888589610a9c565b905060007f30644e72e131a029b85045b68181585d2833e84879b9709143e1f593f0000001600283604051612b0691906142fc565b602060405180830381855afa158015612b23573d6000803e3d6000fd5b5050506040513d601f19601f82011682018060405250810190612b469190613fe5565b612b50919061430e565b604080516020810182528281529051632363e29760e21b81529192506001600160a01b037f00000000000000000000000000000000000000000000000000000000000000001691638d8f8a5c91612bad9189918991600401614322565b602060405180830381865afa158015612bca573d6000803e3d6000fd5b505050506040513d601f19601f82011682018060405250810190612bee919061436a565b612c0b576040516309bde33960e01b815260040160405180910390fd5b6001600160401b038a16600090815260786020526040902060020154869003612c475760405163a47276bd60e01b815260040160405180910390fd5b5050505050505050505050565b7f00000000000000000000000000000000000000000000000000000000000000006001600160a01b0316632072f6c56040518163ffffffff1660e01b8152600401600060405180830381600087803b158015612caf57600080fd5b505af1158015612cc3573d6000803e3d6000fd5b505050506115f26135cc565b6079546001600160401b03600160401b9091048116908216111580612d0257506079546001600160401b03908116908216115b15612d205760405163d086b70b60e01b815260040160405180910390fd5b6001600160401b038181166000818152607860209081526040808320805460748054600160401b9283900490981667ffffffffffffffff19909816881790556002820154878652607590945293829020929092556079805467ffffffffffffffff60401b19169390940292909217909255600182015490516333d6247d60e01b815260048101919091529091907f00000000000000000000000000000000000000000000000000000000000000006001600160a01b0316906333d6247d90602401600060405180830381600087803b158015612dfb57600080fd5b505af1158015612e0f573d6000803e3d6000fd5b50505050826001600160401b0316816001600160401b03167f328d3c6c0fd6f1be0515e422f2d87e59f25922cbc2233568515a0c4bc3f8510e8460020154604051612e5c91815260200190565b60405180910390a3505050565b600080612e74611bed565b90506001600160401b03891615612f0a576079546001600160401b03908116908a161115612eb55760405163bb14c20560e01b815260040160405180910390fd5b6001600160401b03808a1660009081526078602052604090206002810154815490945090918a8116600160401b9092041614612f0457604051632bd2e3e760e01b815260040160405180910390fd5b50612f76565b6001600160401b038816600090815260756020526040902054915081612f43576040516324cbdcc360e11b815260040160405180910390fd5b806001600160401b0316886001600160401b03161115612f7657604051630f2b74f160e11b815260040160405180910390fd5b806001600160401b0316876001600160401b031611612fa85760405163b9b18f5760e01b815260040160405180910390fd5b6000612fb7898989868a610a9c565b905060007f30644e72e131a029b85045b68181585d2833e84879b9709143e1f593f0000001600283604051612fec91906142fc565b602060405180830381855afa158015613009573d6000803e3d6000fd5b5050506040513d601f19601f8201168201806040525081019061302c9190613fe5565b613036919061430e565b604080516020810182528281529051632363e29760e21b81529192506001600160a01b037f00000000000000000000000000000000000000000000000000000000000000001691638d8f8a5c91613093918a918a91600401614322565b602060405180830381865afa1580156130b0573d6000803e3d6000fd5b505050506040513d601f19601f820116820180604052508101906130d4919061436a565b6130f1576040516309bde33960e01b815260040160405180910390fd5b612c47336130ff858c613eba565b6001600160401b0316613110611785565b61311a919061406f565b6001600160a01b037f0000000000000000000000000000000000000000000000000000000000000000169190613628565b6000613155611bed565b9050816000806131658484613eba565b606f546001600160401b0391821692506000916131889161010090041642614056565b90505b846001600160401b0316846001600160401b031614613228576001600160401b038085166000908152607260205260409020600181015490911682101561321c5760018101546131eb90600160401b90046001600160401b031686613eba565b6131fe906001600160401b03168561421d565b6001820154600160401b90046001600160401b031695509350613222565b50613228565b5061318b565b60006132348484614056565b90508084101561328b57838103600c811161324f5780613252565b600c5b9050806103e80a81606f60099054906101000a900461ffff1661ffff160a607054028161328157613281614086565b04607055506132fb565b808403600c811161329c578061329f565b600c5b90506000816103e80a82606f60099054906101000a900461ffff1661ffff160a670de0b6b3a764000002816132d6576132d6614086565b04905080607054670de0b6b3a764000002816132f4576132f4614086565b0460705550505b683635c9adc5dea00000607054111561332057683635c9adc5dea00000607055612015565b633b9aca00607054101561201557633b9aca0060705550505050505050565b6079546001600160401b03600160401b82048116911611156115f25760795460009061337c90600160401b90046001600160401b03166001613e93565b905061338781610bd1565b15610d72576079546000906002906133a99084906001600160401b0316613eba565b6133b3919061438c565b6133bd9083613e93565b90506133c881610bd1565b156133da576133d681612ccf565b5050565b6133d682612ccf565b6040516001600160a01b038085166024830152831660448201526064810182905261344e9085906323b872dd60e01b906084015b60408051601f198184030181529190526020810180516001600160e01b03166001600160e01b03199093169290921790915261365d565b50505050565b6033546001600160a01b031633146115f25760405162461bcd60e51b815260206004820181905260248201527f4f776e61626c653a2063616c6c6572206973206e6f7420746865206f776e65726044820152606401611d3a565b603380546001600160a01b038381166001600160a01b0319831681179093556040519116919082907f8be0079c531659141344cd1fd0a4f28419497f9722a3daafe3b4186f6b6457e090600090a35050565b600054610100900460ff1661356b5760405162461bcd60e51b815260206004820152602b60248201527f496e697469616c697a61626c653a20636f6e7472616374206973206e6f74206960448201526a6e697469616c697a696e6760a81b6064820152608401611d3a565b6115f2336134ae565b606f5460ff1661359757604051635386698160e01b815260040160405180910390fd5b606f805460ff191690556040517f1e5e34eea33501aecf2ebec9fe0e884a40804275ea7fe10b2ba084c8374308b390600090a1565b606f5460ff16156135f057604051630bc011ff60e21b815260040160405180910390fd5b606f805460ff191660011790556040517f2261efe5aef6fedc1fd1550b25facc9181745623049c7901287030b9ad1a549790600090a1565b6040516001600160a01b03831660248201526044810182905261365890849063a9059cbb60e01b90606401613417565b505050565b60006136b2826040518060400160405280602081526020017f5361666545524332303a206c6f772d6c6576656c2063616c6c206661696c6564815250856001600160a01b031661372f9092919063ffffffff16565b80519091501561365857808060200190518101906136d0919061436a565b6136585760405162461bcd60e51b815260206004820152602a60248201527f5361666545524332303a204552433230206f7065726174696f6e20646964206e6044820152691bdd081cdd58d8d9595960b21b6064820152608401611d3a565b606061373e8484600085613746565b949350505050565b6060824710156137a75760405162461bcd60e51b815260206004820152602660248201527f416464726573733a20696e73756666696369656e742062616c616e636520666f6044820152651c8818d85b1b60d21b6064820152608401611d3a565b600080866001600160a01b031685876040516137c391906142fc565b60006040518083038185875af1925050503d8060008114613800576040519150601f19603f3d011682016040523d82523d6000602084013e613805565b606091505b509150915061381687838387613821565b979650505050505050565b60608315613890578251600003613889576001600160a01b0385163b6138895760405162461bcd60e51b815260206004820152601d60248201527f416464726573733a2063616c6c20746f206e6f6e2d636f6e74726163740000006044820152606401611d3a565b508161373e565b61373e83838151156138a55781518083602001fd5b8060405162461bcd60e51b8152600401611d3a9190613a0b565b80356001600160401b03811681146138d657600080fd5b919050565b60008083601f8401126138ed57600080fd5b5081356001600160401b0381111561390457600080fd5b60208301915083602082850101111561391c57600080fd5b9250929050565b60008060008060008060008060e0898b03121561393f57600080fd5b613948896138bf565b975061395660208a016138bf565b965061396460408a016138bf565b955061397260608a016138bf565b94506080890135935060a0890135925060c08901356001600160401b0381111561399b57600080fd5b6139a78b828c016138db565b999c989b5096995094979396929594505050565b60005b838110156139d65781810151838201526020016139be565b50506000910152565b600081518084526139f78160208601602086016139bb565b601f01601f19169290920160200192915050565b602081526000613a1e60208301846139df565b9392505050565b600060208284031215613a3757600080fd5b813561ffff81168114613a1e57600080fd5b600080600080600060a08688031215613a6157600080fd5b613a6a866138bf565b9450613a78602087016138bf565b94979496505050506040830135926060810135926080909101359150565b6001600160a01b0391909116815260200190565b600060208284031215613abc57600080fd5b613a1e826138bf565b600080600080600080600060c0888a031215613ae057600080fd5b613ae9886138bf565b9650613af7602089016138bf565b9550613b05604089016138bf565b9450606088013593506080880135925060a08801356001600160401b03811115613b2e57600080fd5b613b3a8a828b016138db565b989b979a50959850939692959293505050565b60008083601f840112613b5f57600080fd5b5081356001600160401b03811115613b7657600080fd5b6020830191508360208260051b850101111561391c57600080fd5b80356001600160a01b03811681146138d657600080fd5b600080600060408486031215613bbd57600080fd5b83356001600160401b03811115613bd357600080fd5b613bdf86828701613b4d565b9094509250613bf2905060208501613b91565b90509250925092565b600060208284031215613c0d57600080fd5b613a1e82613b91565b600060208284031215613c2857600080fd5b5035919050565b634e487b7160e01b600052604160045260246000fd5b600082601f830112613c5657600080fd5b81356001600160401b0380821115613c7057613c70613c2f565b604051601f8301601f19908116603f01168101908282118183101715613c9857613c98613c2f565b81604052838152866020858801011115613cb157600080fd5b836020870160208301376000602085830101528094505050505092915050565b600060208284031215613ce357600080fd5b81356001600160401b03811115613cf957600080fd5b61373e84828501613c45565b600080600080600080868803610120811215613d2057600080fd5b60a0811215613d2e57600080fd5b5086955060a0870135945060c08701356001600160401b0380821115613d5357600080fd5b613d5f8a838b01613c45565b955060e0890135915080821115613d7557600080fd5b613d818a838b01613c45565b9450610100890135915080821115613d9857600080fd5b50613da589828a016138db565b979a9699509497509295939492505050565b60008060208385031215613dca57600080fd5b82356001600160401b03811115613de057600080fd5b613dec85828601613b4d565b90969095509350505050565b600080600060408486031215613e0d57600080fd5b83356001600160401b03811115613e2357600080fd5b613e2f868287016138db565b909790965060209590950135949350505050565b600181811c90821680613e5757607f821691505b602082108103613e7757634e487b7160e01b600052602260045260246000fd5b50919050565b634e487b7160e01b600052601160045260246000fd5b6001600160401b03818116838216019080821115613eb357613eb3613e7d565b5092915050565b6001600160401b03828116828216039080821115613eb357613eb3613e7d565b60006001600160401b03808316818103613ef657613ef6613e7d565b6001019392505050565b634e487b7160e01b600052603260045260246000fd5b60008235607e19833603018112613f2c57600080fd5b9190910192915050565b600060808236031215613f4857600080fd5b604051608081016001600160401b038282108183111715613f6b57613f6b613c2f565b816040528435915080821115613f8057600080fd5b50613f8d36828601613c45565b82525060208301356020820152613fa6604084016138bf565b6040820152613fb7606084016138bf565b606082015292915050565b928352602083019190915260c01b6001600160c01b031916604082015260480190565b600060208284031215613ff757600080fd5b5051919050565b9485526020850193909352604084019190915260c01b6001600160c01b0319166060808401919091521b6001600160601b0319166068820152607c0190565b60006001820161404f5761404f613e7d565b5060010190565b8181038181111561406957614069613e7d565b92915050565b808202811582820484141761406957614069613e7d565b634e487b7160e01b600052601260045260246000fd5b6000826140ab576140ab614086565b500490565b601f82111561365857600081815260208120601f850160051c810160208610156140d75750805b601f850160051c820191505b818110156140f6578281556001016140e3565b505050505050565b81516001600160401b0381111561411757614117613c2f565b61412b816141258454613e43565b846140b0565b602080601f83116001811461416057600084156141485750858301515b600019600386901b1c1916600185901b1785556140f6565b600085815260208120601f198616915b8281101561418f57888601518255948401946001909101908401614170565b50858210156141ad5787850151600019600388901b60f8161c191681555b5050505050600190811b01905550565b81835281816020850137506000828201602090810191909152601f909101601f19169091010190565b60006001600160401b038087168352808616602084015250606060408301526142136060830184866141bd565b9695505050505050565b8082018082111561406957614069613e7d565b60008235605e19833603018112613f2c57600080fd5b60006060823603121561425857600080fd5b604051606081016001600160401b03828210818311171561427b5761427b613c2f565b81604052843591508082111561429057600080fd5b5061429d36828601613c45565b825250602083013560208201526142b6604084016138bf565b604082015292915050565b8183823760009101908152919050565b8481526001600160a01b038416602082015260606040820181905260009061421390830184866141bd565b60008251613f2c8184602087016139bb565b60008261431d5761431d614086565b500690565b6040815260006143366040830185876141bd565b905060208083018460005b600181101561435e57815183529183019190830190600101614341565b50505050949350505050565b60006020828403121561437c57600080fd5b81518015158114613a1e57600080fd5b60006001600160401b03808416806143a6576143a6614086565b9216919091049291505056fea26469706673582212203e12f3cf6746b1a8ae07793b4be692ad81c11b6f937e7b779e743953f05e1ef064736f6c63430008110033",
  "linkReferences": {},
  "deployedLinkReferences": {}
}