{
  "_format": "hh-sol-artifact-1",
  "contractName": "PolygonZkEVM",
  "sourceName": "contracts/PolygonZkEVM.sol",
  "abi": [
    {
      "inputs": [
        {
          "internalType": "contract IPolygonZkEVMGlobalExitRoot",
          "name": "_globalExitRootManager",
          "type": "address"
        },
        {
          "internalType": "contract IERC20Upgradeable",
          "name": "_matic",
          "type": "address"
        },
        {
          "internalType": "contract IVerifierRollup",
          "name": "_rollupVerifier",
          "type": "address"
        },
        {
          "internalType": "contract IPolygonZkEVMBridge",
          "name": "_bridgeAddress",
          "type": "address"
        },
        {
          "internalType": "uint64",
          "name": "_chainID",
          "type": "uint64"
        },
        {
          "internalType": "uint64",
          "name": "_forkID",
          "type": "uint64"
        }
      ],
      "stateMutability": "nonpayable",
      "type": "constructor"
    },
    {
      "inputs": [],
      "name": "BatchAlreadyVerified",
      "type": "error"
    },
    {
      "inputs": [],
      "name": "BatchNotSequencedOrNotSequenceEnd",
      "type": "error"
    },
    {
      "inputs": [],
      "name": "ExceedMaxVerifyBatches",
      "type": "error"
    },
    {
      "inputs": [],
      "name": "FinalNumBatchBelowLastVerifiedBatch",
      "type": "error"
    },
    {
      "inputs": [],
      "name": "FinalNumBatchDoesNotMatchPendingState",
      "type": "error"
    },
    {
      "inputs": [],
      "name": "FinalPendingStateNumInvalid",
      "type": "error"
    },
    {
      "inputs": [],
      "name": "ForceBatchTimeoutNotExpired",
      "type": "error"
    },
    {
      "inputs": [],
      "name": "ForceBatchesOverflow",
      "type": "error"
    },
    {
      "inputs": [],
      "name": "ForcedDataDoesNotMatch",
      "type": "error"
    },
    {
      "inputs": [],
      "name": "GlobalExitRootNotExist",
      "type": "error"
    },
    {
      "inputs": [],
      "name": "HaltTimeoutNotExpired",
      "type": "error"
    },
    {
      "inputs": [],
      "name": "InitNumBatchAboveLastVerifiedBatch",
      "type": "error"
    },
    {
      "inputs": [],
      "name": "InitNumBatchDoesNotMatchPendingState",
      "type": "error"
    },
    {
      "inputs": [],
      "name": "InvalidProof",
      "type": "error"
    },
    {
      "inputs": [],
      "name": "InvalidRangeBatchTimeTarget",
      "type": "error"
    },
    {
      "inputs": [],
      "name": "InvalidRangeMultiplierBatchFee",
      "type": "error"
    },
    {
      "inputs": [],
      "name": "NewAccInputHashDoesNotExist",
      "type": "error"
    },
    {
      "inputs": [],
      "name": "NewPendingStateTimeoutMustBeLower",
      "type": "error"
    },
    {
      "inputs": [],
      "name": "NewTrustedAggregatorTimeoutMustBeLower",
      "type": "error"
    },
    {
      "inputs": [],
      "name": "NotEnoughMaticAmount",
      "type": "error"
    },
    {
      "inputs": [],
      "name": "OldAccInputHashDoesNotExist",
      "type": "error"
    },
    {
      "inputs": [],
      "name": "OldStateRootDoesNotExist",
      "type": "error"
    },
    {
      "inputs": [],
      "name": "OnlyAdmin",
      "type": "error"
    },
    {
      "inputs": [],
      "name": "OnlyEmergencyState",
      "type": "error"
    },
    {
      "inputs": [],
      "name": "OnlyNotEmergencyState",
      "type": "error"
    },
    {
      "inputs": [],
      "name": "OnlyPendingAdmin",
      "type": "error"
    },
    {
      "inputs": [],
      "name": "OnlyTrustedAggregator",
      "type": "error"
    },
    {
      "inputs": [],
      "name": "OnlyTrustedSequencer",
      "type": "error"
    },
    {
      "inputs": [],
      "name": "PendingStateDoesNotExist",
      "type": "error"
    },
    {
      "inputs": [],
      "name": "PendingStateInvalid",
      "type": "error"
    },
    {
      "inputs": [],
      "name": "PendingStateNotConsolidable",
      "type": "error"
    },
    {
      "inputs": [],
      "name": "PendingStateTimeoutExceedHaltAggregationTimeout",
      "type": "error"
    },
    {
      "inputs": [],
      "name": "SequenceZeroBatches",
      "type": "error"
    },
    {
      "inputs": [],
      "name": "SequencedTimestampBelowForcedTimestamp",
      "type": "error"
    },
    {
      "inputs": [],
      "name": "SequencedTimestampInvalid",
      "type": "error"
    },
    {
      "inputs": [],
      "name": "StoredRootMustBeDifferentThanNewRoot",
      "type": "error"
    },
    {
      "inputs": [],
      "name": "TransactionsLengthAboveMax",
      "type": "error"
    },
    {
      "inputs": [],
      "name": "TrustedAggregatorTimeoutExceedHaltAggregationTimeout",
      "type": "error"
    },
    {
      "inputs": [],
      "name": "TrustedAggregatorTimeoutNotExpired",
      "type": "error"
    },
    {
      "anonymous": false,
      "inputs": [
        {
          "indexed": false,
          "internalType": "address",
          "name": "newAdmin",
          "type": "address"
        }
      ],
      "name": "AcceptAdminRole",
      "type": "event"
    },
    {
      "anonymous": false,
      "inputs": [
        {
          "indexed": true,
          "internalType": "uint64",
          "name": "numBatch",
          "type": "uint64"
        },
        {
          "indexed": false,
          "internalType": "bytes32",
          "name": "stateRoot",
          "type": "bytes32"
        },
        {
          "indexed": true,
          "internalType": "uint64",
          "name": "pendingStateNum",
          "type": "uint64"
        }
      ],
      "name": "ConsolidatePendingState",
      "type": "event"
    },
    {
      "anonymous": false,
      "inputs": [],
      "name": "EmergencyStateActivated",
      "type": "event"
    },
    {
      "anonymous": false,
      "inputs": [],
      "name": "EmergencyStateDeactivated",
      "type": "event"
    },
    {
      "anonymous": false,
      "inputs": [
        {
          "indexed": true,
          "internalType": "uint64",
          "name": "forceBatchNum",
          "type": "uint64"
        },
        {
          "indexed": false,
          "internalType": "bytes32",
          "name": "lastGlobalExitRoot",
          "type": "bytes32"
        },
        {
          "indexed": false,
          "internalType": "address",
          "name": "sequencer",
          "type": "address"
        },
        {
          "indexed": false,
          "internalType": "bytes",
          "name": "transactions",
          "type": "bytes"
        }
      ],
      "name": "ForceBatch",
      "type": "event"
    },
    {
      "anonymous": false,
      "inputs": [
        {
          "indexed": false,
          "internalType": "uint8",
          "name": "version",
          "type": "uint8"
        }
      ],
      "name": "Initialized",
      "type": "event"
    },
    {
      "anonymous": false,
      "inputs": [
        {
          "indexed": true,
          "internalType": "uint64",
          "name": "numBatch",
          "type": "uint64"
        },
        {
          "indexed": false,
          "internalType": "bytes32",
          "name": "stateRoot",
          "type": "bytes32"
        },
        {
          "indexed": true,
          "internalType": "address",
          "name": "aggregator",
          "type": "address"
        }
      ],
      "name": "OverridePendingState",
      "type": "event"
    },
    {
      "anonymous": false,
      "inputs": [
        {
          "indexed": true,
          "internalType": "address",
          "name": "previousOwner",
          "type": "address"
        },
        {
          "indexed": true,
          "internalType": "address",
          "name": "newOwner",
          "type": "address"
        }
      ],
      "name": "OwnershipTransferred",
      "type": "event"
    },
    {
      "anonymous": false,
      "inputs": [
        {
          "indexed": false,
          "internalType": "bytes32",
          "name": "storedStateRoot",
          "type": "bytes32"
        },
        {
          "indexed": false,
          "internalType": "bytes32",
          "name": "provedStateRoot",
          "type": "bytes32"
        }
      ],
      "name": "ProveNonDeterministicPendingState",
      "type": "event"
    },
    {
      "anonymous": false,
      "inputs": [
        {
          "indexed": true,
          "internalType": "uint64",
          "name": "numBatch",
          "type": "uint64"
        }
      ],
      "name": "SequenceBatches",
      "type": "event"
    },
    {
      "anonymous": false,
      "inputs": [
        {
          "indexed": true,
          "internalType": "uint64",
          "name": "numBatch",
          "type": "uint64"
        }
      ],
      "name": "SequenceForceBatches",
      "type": "event"
    },
    {
      "anonymous": false,
      "inputs": [
        {
          "indexed": false,
          "internalType": "uint16",
          "name": "newMultiplierBatchFee",
          "type": "uint16"
        }
      ],
      "name": "SetMultiplierBatchFee",
      "type": "event"
    },
    {
      "anonymous": false,
      "inputs": [
        {
          "indexed": false,
          "internalType": "uint64",
          "name": "newPendingStateTimeout",
          "type": "uint64"
        }
      ],
      "name": "SetPendingStateTimeout",
      "type": "event"
    },
    {
      "anonymous": false,
      "inputs": [
        {
          "indexed": false,
          "internalType": "address",
          "name": "newTrustedAggregator",
          "type": "address"
        }
      ],
      "name": "SetTrustedAggregator",
      "type": "event"
    },
    {
      "anonymous": false,
      "inputs": [
        {
          "indexed": false,
          "internalType": "uint64",
          "name": "newTrustedAggregatorTimeout",
          "type": "uint64"
        }
      ],
      "name": "SetTrustedAggregatorTimeout",
      "type": "event"
    },
    {
      "anonymous": false,
      "inputs": [
        {
          "indexed": false,
          "internalType": "address",
          "name": "newTrustedSequencer",
          "type": "address"
        }
      ],
      "name": "SetTrustedSequencer",
      "type": "event"
    },
    {
      "anonymous": false,
      "inputs": [
        {
          "indexed": false,
          "internalType": "string",
          "name": "newTrustedSequencerURL",
          "type": "string"
        }
      ],
      "name": "SetTrustedSequencerURL",
      "type": "event"
    },
    {
      "anonymous": false,
      "inputs": [
        {
          "indexed": false,
          "internalType": "uint64",
          "name": "newVerifyBatchTimeTarget",
          "type": "uint64"
        }
      ],
      "name": "SetVerifyBatchTimeTarget",
      "type": "event"
    },
    {
      "anonymous": false,
      "inputs": [
        {
          "indexed": false,
          "internalType": "address",
          "name": "newPendingAdmin",
          "type": "address"
        }
      ],
      "name": "TransferAdminRole",
      "type": "event"
    },
    {
      "anonymous": false,
      "inputs": [
        {
          "indexed": false,
          "internalType": "uint64",
          "name": "numBatch",
          "type": "uint64"
        },
        {
          "indexed": false,
          "internalType": "uint64",
          "name": "forkID",
          "type": "uint64"
        },
        {
          "indexed": false,
          "internalType": "string",
          "name": "version",
          "type": "string"
        }
      ],
      "name": "UpdateZkEVMVersion",
      "type": "event"
    },
    {
      "anonymous": false,
      "inputs": [
        {
          "indexed": true,
          "internalType": "uint64",
          "name": "numBatch",
          "type": "uint64"
        },
        {
          "indexed": false,
          "internalType": "bytes32",
          "name": "stateRoot",
          "type": "bytes32"
        },
        {
          "indexed": true,
          "internalType": "address",
          "name": "aggregator",
          "type": "address"
        }
      ],
      "name": "VerifyBatches",
      "type": "event"
    },
    {
      "anonymous": false,
      "inputs": [
        {
          "indexed": true,
          "internalType": "uint64",
          "name": "numBatch",
          "type": "uint64"
        },
        {
          "indexed": false,
          "internalType": "bytes32",
          "name": "stateRoot",
          "type": "bytes32"
        },
        {
          "indexed": true,
          "internalType": "address",
          "name": "aggregator",
          "type": "address"
        }
      ],
      "name": "VerifyBatchesTrustedAggregator",
      "type": "event"
    },
    {
      "inputs": [],
      "name": "acceptAdminRole",
      "outputs": [],
      "stateMutability": "nonpayable",
      "type": "function"
    },
    {
      "inputs": [
        {
          "internalType": "uint64",
          "name": "sequencedBatchNum",
          "type": "uint64"
        }
      ],
      "name": "activateEmergencyState",
      "outputs": [],
      "stateMutability": "nonpayable",
      "type": "function"
    },
    {
      "inputs": [],
      "name": "admin",
      "outputs": [
        {
          "internalType": "address",
          "name": "",
          "type": "address"
        }
      ],
      "stateMutability": "view",
      "type": "function"
    },
    {
      "inputs": [],
      "name": "batchFee",
      "outputs": [
        {
          "internalType": "uint256",
          "name": "",
          "type": "uint256"
        }
      ],
      "stateMutability": "view",
      "type": "function"
    },
    {
      "inputs": [
        {
          "internalType": "uint64",
          "name": "",
          "type": "uint64"
        }
      ],
      "name": "batchNumToStateRoot",
      "outputs": [
        {
          "internalType": "bytes32",
          "name": "",
          "type": "bytes32"
        }
      ],
      "stateMutability": "view",
      "type": "function"
    },
    {
      "inputs": [],
      "name": "bridgeAddress",
      "outputs": [
        {
          "internalType": "contract IPolygonZkEVMBridge",
          "name": "",
          "type": "address"
        }
      ],
      "stateMutability": "view",
      "type": "function"
    },
    {
      "inputs": [],
      "name": "calculateRewardPerBatch",
      "outputs": [
        {
          "internalType": "uint256",
          "name": "",
          "type": "uint256"
        }
      ],
      "stateMutability": "view",
      "type": "function"
    },
    {
      "inputs": [],
      "name": "chainID",
      "outputs": [
        {
          "internalType": "uint64",
          "name": "",
          "type": "uint64"
        }
      ],
      "stateMutability": "view",
      "type": "function"
    },
    {
      "inputs": [
        {
          "internalType": "uint64",
          "name": "pendingStateNum",
          "type": "uint64"
        }
      ],
      "name": "consolidatePendingState",
      "outputs": [],
      "stateMutability": "nonpayable",
      "type": "function"
    },
    {
      "inputs": [],
      "name": "deactivateEmergencyState",
      "outputs": [],
      "stateMutability": "nonpayable",
      "type": "function"
    },
    {
      "inputs": [
        {
          "internalType": "bytes",
          "name": "transactions",
          "type": "bytes"
        },
        {
          "internalType": "uint256",
          "name": "maticAmount",
          "type": "uint256"
        }
      ],
      "name": "forceBatch",
      "outputs": [],
      "stateMutability": "nonpayable",
      "type": "function"
    },
    {
      "inputs": [
        {
          "internalType": "uint64",
          "name": "",
          "type": "uint64"
        }
      ],
      "name": "forcedBatches",
      "outputs": [
        {
          "internalType": "bytes32",
          "name": "",
          "type": "bytes32"
        }
      ],
      "stateMutability": "view",
      "type": "function"
    },
    {
      "inputs": [],
      "name": "forkID",
      "outputs": [
        {
          "internalType": "uint64",
          "name": "",
          "type": "uint64"
        }
      ],
      "stateMutability": "view",
      "type": "function"
    },
    {
      "inputs": [],
      "name": "getCurrentBatchFee",
      "outputs": [
        {
          "internalType": "uint256",
          "name": "",
          "type": "uint256"
        }
      ],
      "stateMutability": "view",
      "type": "function"
    },
    {
      "inputs": [
        {
          "internalType": "uint64",
          "name": "initNumBatch",
          "type": "uint64"
        },
        {
          "internalType": "uint64",
          "name": "finalNewBatch",
          "type": "uint64"
        },
        {
          "internalType": "bytes32",
          "name": "newLocalExitRoot",
          "type": "bytes32"
        },
        {
          "internalType": "bytes32",
          "name": "oldStateRoot",
          "type": "bytes32"
        },
        {
          "internalType": "bytes32",
          "name": "newStateRoot",
          "type": "bytes32"
        }
      ],
      "name": "getInputSnarkBytes",
      "outputs": [
        {
          "internalType": "bytes",
          "name": "",
          "type": "bytes"
        }
      ],
      "stateMutability": "view",
      "type": "function"
    },
    {
      "inputs": [],
      "name": "getLastVerifiedBatch",
      "outputs": [
        {
          "internalType": "uint64",
          "name": "",
          "type": "uint64"
        }
      ],
      "stateMutability": "view",
      "type": "function"
    },
    {
      "inputs": [],
      "name": "globalExitRootManager",
      "outputs": [
        {
          "internalType": "contract IPolygonZkEVMGlobalExitRoot",
          "name": "",
          "type": "address"
        }
      ],
      "stateMutability": "view",
      "type": "function"
    },
    {
      "inputs": [
        {
          "components": [
            {
              "internalType": "address",
              "name": "admin",
              "type": "address"
            },
            {
              "internalType": "address",
              "name": "trustedSequencer",
              "type": "address"
            },
            {
              "internalType": "uint64",
              "name": "pendingStateTimeout",
              "type": "uint64"
            },
            {
              "internalType": "address",
              "name": "trustedAggregator",
              "type": "address"
            },
            {
              "internalType": "uint64",
              "name": "trustedAggregatorTimeout",
              "type": "uint64"
            }
          ],
          "internalType": "struct PolygonZkEVM.InitializePackedParameters",
          "name": "initializePackedParameters",
          "type": "tuple"
        },
        {
          "internalType": "bytes32",
          "name": "genesisRoot",
          "type": "bytes32"
        },
        {
          "internalType": "string",
          "name": "_trustedSequencerURL",
          "type": "string"
        },
        {
          "internalType": "string",
          "name": "_networkName",
          "type": "string"
        },
        {
          "internalType": "string",
          "name": "_version",
          "type": "string"
        }
      ],
      "name": "initialize",
      "outputs": [],
      "stateMutability": "nonpayable",
      "type": "function"
    },
    {
      "inputs": [],
      "name": "isEmergencyState",
      "outputs": [
        {
          "internalType": "bool",
          "name": "",
          "type": "bool"
        }
      ],
      "stateMutability": "view",
      "type": "function"
    },
    {
      "inputs": [
        {
          "internalType": "uint64",
          "name": "pendingStateNum",
          "type": "uint64"
        }
      ],
      "name": "isPendingStateConsolidable",
      "outputs": [
        {
          "internalType": "bool",
          "name": "",
          "type": "bool"
        }
      ],
      "stateMutability": "view",
      "type": "function"
    },
    {
      "inputs": [],
      "name": "lastBatchSequenced",
      "outputs": [
        {
          "internalType": "uint64",
          "name": "",
          "type": "uint64"
        }
      ],
      "stateMutability": "view",
      "type": "function"
    },
    {
      "inputs": [],
      "name": "lastForceBatch",
      "outputs": [
        {
          "internalType": "uint64",
          "name": "",
          "type": "uint64"
        }
      ],
      "stateMutability": "view",
      "type": "function"
    },
    {
      "inputs": [],
      "name": "lastForceBatchSequenced",
      "outputs": [
        {
          "internalType": "uint64",
          "name": "",
          "type": "uint64"
        }
      ],
      "stateMutability": "view",
      "type": "function"
    },
    {
      "inputs": [],
      "name": "lastPendingState",
      "outputs": [
        {
          "internalType": "uint64",
          "name": "",
          "type": "uint64"
        }
      ],
      "stateMutability": "view",
      "type": "function"
    },
    {
      "inputs": [],
      "name": "lastPendingStateConsolidated",
      "outputs": [
        {
          "internalType": "uint64",
          "name": "",
          "type": "uint64"
        }
      ],
      "stateMutability": "view",
      "type": "function"
    },
    {
      "inputs": [],
      "name": "lastTimestamp",
      "outputs": [
        {
          "internalType": "uint64",
          "name": "",
          "type": "uint64"
        }
      ],
      "stateMutability": "view",
      "type": "function"
    },
    {
      "inputs": [],
      "name": "lastVerifiedBatch",
      "outputs": [
        {
          "internalType": "uint64",
          "name": "",
          "type": "uint64"
        }
      ],
      "stateMutability": "view",
      "type": "function"
    },
    {
      "inputs": [],
      "name": "matic",
      "outputs": [
        {
          "internalType": "contract IERC20Upgradeable",
          "name": "",
          "type": "address"
        }
      ],
      "stateMutability": "view",
      "type": "function"
    },
    {
      "inputs": [],
      "name": "multiplierBatchFee",
      "outputs": [
        {
          "internalType": "uint16",
          "name": "",
          "type": "uint16"
        }
      ],
      "stateMutability": "view",
      "type": "function"
    },
    {
      "inputs": [],
      "name": "networkName",
      "outputs": [
        {
          "internalType": "string",
          "name": "",
          "type": "string"
        }
      ],
      "stateMutability": "view",
      "type": "function"
    },
    {
      "inputs": [
        {
          "internalType": "uint64",
          "name": "initPendingStateNum",
          "type": "uint64"
        },
        {
          "internalType": "uint64",
          "name": "finalPendingStateNum",
          "type": "uint64"
        },
        {
          "internalType": "uint64",
          "name": "initNumBatch",
          "type": "uint64"
        },
        {
          "internalType": "uint64",
          "name": "finalNewBatch",
          "type": "uint64"
        },
        {
          "internalType": "bytes32",
          "name": "newLocalExitRoot",
          "type": "bytes32"
        },
        {
          "internalType": "bytes32",
          "name": "newStateRoot",
          "type": "bytes32"
        },
        {
          "internalType": "bytes",
          "name": "proof",
          "type": "bytes"
        }
      ],
      "name": "overridePendingState",
      "outputs": [],
      "stateMutability": "nonpayable",
      "type": "function"
    },
    {
      "inputs": [],
      "name": "owner",
      "outputs": [
        {
          "internalType": "address",
          "name": "",
          "type": "address"
        }
      ],
      "stateMutability": "view",
      "type": "function"
    },
    {
      "inputs": [],
      "name": "pendingAdmin",
      "outputs": [
        {
          "internalType": "address",
          "name": "",
          "type": "address"
        }
      ],
      "stateMutability": "view",
      "type": "function"
    },
    {
      "inputs": [],
      "name": "pendingStateTimeout",
      "outputs": [
        {
          "internalType": "uint64",
          "name": "",
          "type": "uint64"
        }
      ],
      "stateMutability": "view",
      "type": "function"
    },
    {
      "inputs": [
        {
          "internalType": "uint256",
          "name": "",
          "type": "uint256"
        }
      ],
      "name": "pendingStateTransitions",
      "outputs": [
        {
          "internalType": "uint64",
          "name": "timestamp",
          "type": "uint64"
        },
        {
          "internalType": "uint64",
          "name": "lastVerifiedBatch",
          "type": "uint64"
        },
        {
          "internalType": "bytes32",
          "name": "exitRoot",
          "type": "bytes32"
        },
        {
          "internalType": "bytes32",
          "name": "stateRoot",
          "type": "bytes32"
        }
      ],
      "stateMutability": "view",
      "type": "function"
    },
    {
      "inputs": [
        {
          "internalType": "uint64",
          "name": "initPendingStateNum",
          "type": "uint64"
        },
        {
          "internalType": "uint64",
          "name": "finalPendingStateNum",
          "type": "uint64"
        },
        {
          "internalType": "uint64",
          "name": "initNumBatch",
          "type": "uint64"
        },
        {
          "internalType": "uint64",
          "name": "finalNewBatch",
          "type": "uint64"
        },
        {
          "internalType": "bytes32",
          "name": "newLocalExitRoot",
          "type": "bytes32"
        },
        {
          "internalType": "bytes32",
          "name": "newStateRoot",
          "type": "bytes32"
        },
        {
          "internalType": "bytes",
          "name": "proof",
          "type": "bytes"
        }
      ],
      "name": "proveNonDeterministicPendingState",
      "outputs": [],
      "stateMutability": "nonpayable",
      "type": "function"
    },
    {
      "inputs": [],
      "name": "renounceOwnership",
      "outputs": [],
      "stateMutability": "nonpayable",
      "type": "function"
    },
    {
      "inputs": [],
      "name": "rollupVerifier",
      "outputs": [
        {
          "internalType": "contract IVerifierRollup",
          "name": "",
          "type": "address"
        }
      ],
      "stateMutability": "view",
      "type": "function"
    },
    {
      "inputs": [
        {
          "components": [
            {
              "internalType": "bytes",
              "name": "transactions",
              "type": "bytes"
            },
            {
              "internalType": "bytes32",
              "name": "globalExitRoot",
              "type": "bytes32"
            },
            {
              "internalType": "uint64",
              "name": "timestamp",
              "type": "uint64"
            },
            {
              "internalType": "uint64",
              "name": "minForcedTimestamp",
              "type": "uint64"
            }
          ],
          "internalType": "struct PolygonZkEVM.BatchData[]",
          "name": "batches",
          "type": "tuple[]"
        },
        {
          "internalType": "address",
          "name": "l2Coinbase",
          "type": "address"
        }
      ],
      "name": "sequenceBatches",
      "outputs": [],
      "stateMutability": "nonpayable",
      "type": "function"
    },
    {
      "inputs": [
        {
          "components": [
            {
              "internalType": "bytes",
              "name": "transactions",
              "type": "bytes"
            },
            {
              "internalType": "bytes32",
              "name": "globalExitRoot",
              "type": "bytes32"
            },
            {
              "internalType": "uint64",
              "name": "minForcedTimestamp",
              "type": "uint64"
            }
          ],
          "internalType": "struct PolygonZkEVM.ForcedBatchData[]",
          "name": "batches",
          "type": "tuple[]"
        }
      ],
      "name": "sequenceForceBatches",
      "outputs": [],
      "stateMutability": "nonpayable",
      "type": "function"
    },
    {
      "inputs": [
        {
          "internalType": "uint64",
          "name": "",
          "type": "uint64"
        }
      ],
      "name": "sequencedBatches",
      "outputs": [
        {
          "internalType": "bytes32",
          "name": "accInputHash",
          "type": "bytes32"
        },
        {
          "internalType": "uint64",
          "name": "sequencedTimestamp",
          "type": "uint64"
        },
        {
          "internalType": "uint64",
          "name": "previousLastBatchSequenced",
          "type": "uint64"
        }
      ],
      "stateMutability": "view",
      "type": "function"
    },
    {
      "inputs": [
        {
          "internalType": "uint16",
          "name": "newMultiplierBatchFee",
          "type": "uint16"
        }
      ],
      "name": "setMultiplierBatchFee",
      "outputs": [],
      "stateMutability": "nonpayable",
      "type": "function"
    },
    {
      "inputs": [
        {
          "internalType": "uint64",
          "name": "newPendingStateTimeout",
          "type": "uint64"
        }
      ],
      "name": "setPendingStateTimeout",
      "outputs": [],
      "stateMutability": "nonpayable",
      "type": "function"
    },
    {
      "inputs": [
        {
          "internalType": "address",
          "name": "newTrustedAggregator",
          "type": "address"
        }
      ],
      "name": "setTrustedAggregator",
      "outputs": [],
      "stateMutability": "nonpayable",
      "type": "function"
    },
    {
      "inputs": [
        {
          "internalType": "uint64",
          "name": "newTrustedAggregatorTimeout",
          "type": "uint64"
        }
      ],
      "name": "setTrustedAggregatorTimeout",
      "outputs": [],
      "stateMutability": "nonpayable",
      "type": "function"
    },
    {
      "inputs": [
        {
          "internalType": "address",
          "name": "newTrustedSequencer",
          "type": "address"
        }
      ],
      "name": "setTrustedSequencer",
      "outputs": [],
      "stateMutability": "nonpayable",
      "type": "function"
    },
    {
      "inputs": [
        {
          "internalType": "string",
          "name": "newTrustedSequencerURL",
          "type": "string"
        }
      ],
      "name": "setTrustedSequencerURL",
      "outputs": [],
      "stateMutability": "nonpayable",
      "type": "function"
    },
    {
      "inputs": [
        {
          "internalType": "uint64",
          "name": "newVerifyBatchTimeTarget",
          "type": "uint64"
        }
      ],
      "name": "setVerifyBatchTimeTarget",
      "outputs": [],
      "stateMutability": "nonpayable",
      "type": "function"
    },
    {
      "inputs": [
        {
          "internalType": "address",
          "name": "newPendingAdmin",
          "type": "address"
        }
      ],
      "name": "transferAdminRole",
      "outputs": [],
      "stateMutability": "nonpayable",
      "type": "function"
    },
    {
      "inputs": [
        {
          "internalType": "address",
          "name": "newOwner",
          "type": "address"
        }
      ],
      "name": "transferOwnership",
      "outputs": [],
      "stateMutability": "nonpayable",
      "type": "function"
    },
    {
      "inputs": [],
      "name": "trustedAggregator",
      "outputs": [
        {
          "internalType": "address",
          "name": "",
          "type": "address"
        }
      ],
      "stateMutability": "view",
      "type": "function"
    },
    {
      "inputs": [],
      "name": "trustedAggregatorTimeout",
      "outputs": [
        {
          "internalType": "uint64",
          "name": "",
          "type": "uint64"
        }
      ],
      "stateMutability": "view",
      "type": "function"
    },
    {
      "inputs": [],
      "name": "trustedSequencer",
      "outputs": [
        {
          "internalType": "address",
          "name": "",
          "type": "address"
        }
      ],
      "stateMutability": "view",
      "type": "function"
    },
    {
      "inputs": [],
      "name": "trustedSequencerURL",
      "outputs": [
        {
          "internalType": "string",
          "name": "",
          "type": "string"
        }
      ],
      "stateMutability": "view",
      "type": "function"
    },
    {
      "inputs": [],
      "name": "verifyBatchTimeTarget",
      "outputs": [
        {
          "internalType": "uint64",
          "name": "",
          "type": "uint64"
        }
      ],
      "stateMutability": "view",
      "type": "function"
    },
    {
      "inputs": [
        {
          "internalType": "uint64",
          "name": "pendingStateNum",
          "type": "uint64"
        },
        {
          "internalType": "uint64",
          "name": "initNumBatch",
          "type": "uint64"
        },
        {
          "internalType": "uint64",
          "name": "finalNewBatch",
          "type": "uint64"
        },
        {
          "internalType": "bytes32",
          "name": "newLocalExitRoot",
          "type": "bytes32"
        },
        {
          "internalType": "bytes32",
          "name": "newStateRoot",
          "type": "bytes32"
        },
        {
          "internalType": "bytes",
          "name": "proof",
          "type": "bytes"
        }
      ],
      "name": "verifyBatches",
      "outputs": [],
      "stateMutability": "nonpayable",
      "type": "function"
    },
    {
      "inputs": [
        {
          "internalType": "uint64",
          "name": "pendingStateNum",
          "type": "uint64"
        },
        {
          "internalType": "uint64",
          "name": "initNumBatch",
          "type": "uint64"
        },
        {
          "internalType": "uint64",
          "name": "finalNewBatch",
          "type": "uint64"
        },
        {
          "internalType": "bytes32",
          "name": "newLocalExitRoot",
          "type": "bytes32"
        },
        {
          "internalType": "bytes32",
          "name": "newStateRoot",
          "type": "bytes32"
        },
        {
          "internalType": "bytes",
          "name": "proof",
          "type": "bytes"
        }
      ],
      "name": "verifyBatchesTrustedAggregator",
      "outputs": [],
      "stateMutability": "nonpayable",
      "type": "function"
    }
  ],
  "bytecode": "0x6101406040523480156200001257600080fd5b5060405162005b3438038062005b348339810160408190526200003591620000a5565b6001600160a01b0395861660c05293851660805291841660a05290921660e0526001600160401b0391821661010052166101205262000131565b6001600160a01b03811681146200008557600080fd5b50565b80516001600160401b0381168114620000a057600080fd5b919050565b60008060008060008060c08789031215620000bf57600080fd5b8651620000cc816200006f565b6020880151909650620000df816200006f565b6040880151909550620000f2816200006f565b606088015190945062000105816200006f565b9250620001156080880162000088565b91506200012560a0880162000088565b90509295509295509295565b60805160a05160c05160e051610100516101205161593c620001f86000396000818161062901528181610da20152612a8b01526000818161079e0152610d78015260008181610751015281816130b50152613cb60152600081816108cb0152818161129201528181611783015281816123d601528181613252015281816134520152613e8601526000818161098b01528181613ba301526141f201526000818161085a01528181611b4f01528181611f2d0152818161342601526142e1015261593c6000f3fe608060405234801561001057600080fd5b50600436106103835760003560e01c80638c3d7301116101de578063c89e42df1161010f578063e6ad707e116100ad578063f14916d61161007c578063f14916d6146109c0578063f2fde38b146109d3578063f851a440146109e6578063f8b823e414610a0657600080fd5b8063e6ad707e14610943578063e7a7ed0214610956578063e8bf92ed14610986578063eaeb077b146109ad57600080fd5b8063d2e129f9116100e9578063d2e129f9146108ed578063d8d1091b14610900578063d939b31514610913578063dbc169761461093b57600080fd5b8063c89e42df14610884578063cfa8ed4714610897578063d02103ca146108c657600080fd5b8063a50a164b1161017c578063afd23cbe11610156578063afd23cbe146107c0578063b4d63f58146107ee578063b6b0b09714610855578063c0ed84e01461087c57600080fd5b8063a50a164b14610773578063ada8f91914610786578063adc879e91461079957600080fd5b80639c9f3dfe116101b85780639c9f3dfe1461071e5780639f0d039d14610731578063a066215c14610739578063a3c573eb1461074c57600080fd5b80638c3d7301146106f05780638da5cb5b146106f857806399f5634e1461071657600080fd5b80634a1a89a7116102b85780636ff512cc116102565780637fcb3653116102305780637fcb365314610610578063831c7ead14610624578063837a47381461064b578063841b24d7146106c057600080fd5b80636ff512cc146105e2578063715018a6146105f55780637215541a146105fd57600080fd5b80635392c5e0116102925780635392c5e014610579578063542028d5146105a75780635e9145c9146105af5780636b8616ce146105c257600080fd5b80634a1a89a7146105335780634a910e6a146105535780634fd704641461056657600080fd5b80632678224711610325578063394218e9116102ff578063394218e9146104c4578063423fa856146104d757806345605267146104f7578063458c04771461051f57600080fd5b806326782247146104405780632987898314610485578063383b3be8146104b157600080fd5b806315064c961161036157806315064c96146103e95780631816b7e51461040657806319d8ac6114610419578063220d78991461042d57600080fd5b80630808270c146103885780630a0d9fbe1461039d578063107bf28c146103d4575b600080fd5b61039b610396366004614d36565b610a0f565b005b606f546103b690610100900467ffffffffffffffff1681565b60405167ffffffffffffffff90911681526020015b60405180910390f35b6103dc610ac2565b6040516103cb9190614e3d565b606f546103f69060ff1681565b60405190151581526020016103cb565b61039b610414366004614e57565b610b50565b6073546103b69067ffffffffffffffff1681565b6103dc61043b366004614e7b565b610c68565b607b546104609073ffffffffffffffffffffffffffffffffffffffff1681565b60405173ffffffffffffffffffffffffffffffffffffffff90911681526020016103cb565b6074546104609068010000000000000000900473ffffffffffffffffffffffffffffffffffffffff1681565b6103f66104bf366004614ec8565b610e00565b61039b6104d2366004614ec8565b610e56565b6073546103b69068010000000000000000900467ffffffffffffffff1681565b6073546103b690700100000000000000000000000000000000900467ffffffffffffffff1681565b6079546103b69067ffffffffffffffff1681565b6079546103b69068010000000000000000900467ffffffffffffffff1681565b61039b610561366004614ec8565b610fda565b61039b610574366004614ee3565b61108d565b610599610587366004614ec8565b60756020526000908152604090205481565b6040519081526020016103cb565b6103dc611423565b61039b6105bd366004614fd5565b611430565b6105996105d0366004614ec8565b60716020526000908152604090205481565b61039b6105f0366004615029565b611bc0565b61039b611c95565b61039b61060b366004614ec8565b611ca9565b6074546103b69067ffffffffffffffff1681565b6103b67f000000000000000000000000000000000000000000000000000000000000000081565b610694610659366004615044565b60786020526000908152604090208054600182015460029092015467ffffffffffffffff808316936801000000000000000090930416919084565b6040805167ffffffffffffffff95861681529490931660208501529183015260608201526080016103cb565b6079546103b6907801000000000000000000000000000000000000000000000000900467ffffffffffffffff1681565b61039b611e19565b60335473ffffffffffffffffffffffffffffffffffffffff16610460565b610599611ee5565b61039b61072c366004614ec8565b61203e565b607054610599565b61039b610747366004614ec8565b6121ba565b6104607f000000000000000000000000000000000000000000000000000000000000000081565b61039b610781366004614ee3565b6122c0565b61039b610794366004615029565b612485565b6103b67f000000000000000000000000000000000000000000000000000000000000000081565b606f546107db906901000000000000000000900461ffff1681565b60405161ffff90911681526020016103cb565b61082f6107fc366004614ec8565b6072602052600090815260409020805460019091015467ffffffffffffffff808216916801000000000000000090041683565b6040805193845267ffffffffffffffff92831660208501529116908201526060016103cb565b6104607f000000000000000000000000000000000000000000000000000000000000000081565b6103b6612549565b61039b610892366004615137565b61259e565b606f54610460906b010000000000000000000000900473ffffffffffffffffffffffffffffffffffffffff1681565b6104607f000000000000000000000000000000000000000000000000000000000000000081565b61039b6108fb36600461516c565b61262b565b61039b61090e36600461521f565b612b30565b6079546103b690700100000000000000000000000000000000900467ffffffffffffffff1681565b61039b613062565b61039b610951366004614d36565b61313b565b6073546103b6907801000000000000000000000000000000000000000000000000900467ffffffffffffffff1681565b6104607f000000000000000000000000000000000000000000000000000000000000000081565b61039b6109bb366004615261565b61334b565b61039b6109ce366004615029565b6136e6565b61039b6109e1366004615029565b6137b8565b607a546104609073ffffffffffffffffffffffffffffffffffffffff1681565b61059960705481565b606f5460ff1615610a4c576040517f2f0047fc00000000000000000000000000000000000000000000000000000000815260040160405180910390fd5b610a5c888888888888888861386c565b67ffffffffffffffff85166000908152607560209081526040918290205482519081529081018590527f1f44c21118c4603cfb4e1b621dbcfa2b73efcececee2b99b620b2953d33a7010910160405180910390a1610ab8613cb4565b5050505050505050565b60778054610acf906152ad565b80601f0160208091040260200160405190810160405280929190818152602001828054610afb906152ad565b8015610b485780601f10610b1d57610100808354040283529160200191610b48565b820191906000526020600020905b815481529060010190602001808311610b2b57829003601f168201915b505050505081565b607a5473ffffffffffffffffffffffffffffffffffffffff163314610ba1576040517f4755657900000000000000000000000000000000000000000000000000000000815260040160405180910390fd5b6103e88161ffff161080610bba57506103ff8161ffff16115b15610bf1576040517f4c2533c800000000000000000000000000000000000000000000000000000000815260040160405180910390fd5b606f80547fffffffffffffffffffffffffffffffffffffffffff0000ffffffffffffffffff16690100000000000000000061ffff8416908102919091179091556040519081527f7019933d795eba185c180209e8ae8bffbaa25bcef293364687702c31f4d302c5906020015b60405180910390a150565b67ffffffffffffffff8086166000818152607260205260408082205493881682529020546060929115801590610c9c575081155b15610cd3576040517f6818c29e00000000000000000000000000000000000000000000000000000000815260040160405180910390fd5b80610d0a576040517f66385b5100000000000000000000000000000000000000000000000000000000815260040160405180910390fd5b604080517fffffffffffffffffffffffffffffffffffffffff0000000000000000000000003360601b166020820152603481019690965260548601929092527fffffffffffffffff00000000000000000000000000000000000000000000000060c098891b811660748701527f0000000000000000000000000000000000000000000000000000000000000000891b8116607c8701527f0000000000000000000000000000000000000000000000000000000000000000891b81166084870152608c86019490945260ac85015260cc840194909452509290931b90911660ec830152805180830360d401815260f4909201905290565b60795467ffffffffffffffff82811660009081526078602052604081205490924292610e44927001000000000000000000000000000000009092048116911661532f565b67ffffffffffffffff16111592915050565b607a5473ffffffffffffffffffffffffffffffffffffffff163314610ea7576040517f4755657900000000000000000000000000000000000000000000000000000000815260040160405180910390fd5b62093a8067ffffffffffffffff82161115610eee576040517f1d06e87900000000000000000000000000000000000000000000000000000000815260040160405180910390fd5b606f5460ff16610f5d5760795467ffffffffffffffff7801000000000000000000000000000000000000000000000000909104811690821610610f5d576040517f401636df00000000000000000000000000000000000000000000000000000000815260040160405180910390fd5b6079805477ffffffffffffffffffffffffffffffffffffffffffffffff16780100000000000000000000000000000000000000000000000067ffffffffffffffff8416908102919091179091556040519081527f1f4fa24c2e4bad19a7f3ec5c5485f70d46c798461c2e684f55bbd0fc661373a190602001610c5d565b60745468010000000000000000900473ffffffffffffffffffffffffffffffffffffffff16331461108157606f5460ff1615611042576040517f2f0047fc00000000000000000000000000000000000000000000000000000000815260040160405180910390fd5b61104b81610e00565b611081576040517f0ce9e4a200000000000000000000000000000000000000000000000000000000815260040160405180910390fd5b61108a81613d3c565b50565b606f5460ff16156110ca576040517f2f0047fc00000000000000000000000000000000000000000000000000000000815260040160405180910390fd5b60795467ffffffffffffffff86811660009081526072602052604090206001015442926111179278010000000000000000000000000000000000000000000000009091048116911661532f565b67ffffffffffffffff161115611159576040517f8a0704d300000000000000000000000000000000000000000000000000000000815260040160405180910390fd5b6103e86111668787615357565b67ffffffffffffffff1611156111a8576040517fb59f753a00000000000000000000000000000000000000000000000000000000815260040160405180910390fd5b6111b787878787878787613f4f565b6111c085614308565b607954700100000000000000000000000000000000900467ffffffffffffffff1660000361130857607480547fffffffffffffffffffffffffffffffffffffffffffffffff00000000000000001667ffffffffffffffff8781169182179092556000908152607560205260409020849055607954161561126357607980547fffffffffffffffffffffffffffffffff000000000000000000000000000000001690555b6040517f33d6247d000000000000000000000000000000000000000000000000000000008152600481018590527f000000000000000000000000000000000000000000000000000000000000000073ffffffffffffffffffffffffffffffffffffffff16906333d6247d90602401600060405180830381600087803b1580156112eb57600080fd5b505af11580156112ff573d6000803e3d6000fd5b505050506113d8565b61131061450d565b6079805467ffffffffffffffff1690600061132a83615378565b825467ffffffffffffffff9182166101009390930a92830292820219169190911790915560408051608081018252428316815288831660208083019182528284018a8152606084018a815260795487166000908152607890935294909120925183549251861668010000000000000000027fffffffffffffffffffffffffffffffff000000000000000000000000000000009093169516949094171781559151600183015551600290910155505b604051838152339067ffffffffffffffff8716907f9c72852172521097ba7e1482e6b44b351323df0155f97f4ea18fcec28e1f5966906020015b60405180910390a350505050505050565b60768054610acf906152ad565b606f5460ff161561146d576040517f2f0047fc00000000000000000000000000000000000000000000000000000000815260040160405180910390fd5b606f546b010000000000000000000000900473ffffffffffffffffffffffffffffffffffffffff1633146114cd576040517f11e7be1500000000000000000000000000000000000000000000000000000000815260040160405180910390fd5b816000819003611509576040517fcb591a5f00000000000000000000000000000000000000000000000000000000815260040160405180910390fd5b6103e8811115611545576040517fb59f753a00000000000000000000000000000000000000000000000000000000815260040160405180910390fd5b60735467ffffffffffffffff6801000000000000000082048116600081815260726020526040812054838516949293700100000000000000000000000000000000909304909216919082905b868110156119955760008a8a838181106115ad576115ad61539f565b90506020028101906115bf91906153ce565b6115c89061540c565b8051805160209091012060608201519192509067ffffffffffffffff161561174057856115f481615378565b9650506000818360200151846060015160405160200161164c93929190928352602083019190915260c01b7fffffffffffffffff00000000000000000000000000000000000000000000000016604082015260480190565b604080517fffffffffffffffffffffffffffffffffffffffffffffffffffffffffffffffe0818403018152918152815160209283012067ffffffffffffffff8a166000908152607190935291205490915081146116d5576040517fce3d755e00000000000000000000000000000000000000000000000000000000815260040160405180910390fd5b67ffffffffffffffff808816600090815260716020526040808220919091556060850151908501519082169116101561173a576040517f7f7ab87200000000000000000000000000000000000000000000000000000000815260040160405180910390fd5b5061187d565b602082015115801590611807575060208201516040517f257b363200000000000000000000000000000000000000000000000000000000815260048101919091527f000000000000000000000000000000000000000000000000000000000000000073ffffffffffffffffffffffffffffffffffffffff169063257b3632906024016020604051808303816000875af11580156117e1573d6000803e3d6000fd5b505050506040513d601f19601f820116820180604052508101906118059190615499565b155b1561183e576040517f73bd668d00000000000000000000000000000000000000000000000000000000815260040160405180910390fd5b815151620493e0101561187d576040517fa29a6c7c00000000000000000000000000000000000000000000000000000000815260040160405180910390fd5b8767ffffffffffffffff16826040015167ffffffffffffffff1610806118b0575042826040015167ffffffffffffffff16115b156118e7576040517fea82791600000000000000000000000000000000000000000000000000000000815260040160405180910390fd5b602082810151604080850151815193840189905290830184905260608084019290925260c01b7fffffffffffffffff0000000000000000000000000000000000000000000000001660808301528b901b7fffffffffffffffffffffffffffffffffffffffff000000000000000000000000166088820152609c01604051602081830303815290604052805190602001209450816040015197505050808061198d906154b2565b915050611591565b506119a0868561532f565b60735490945067ffffffffffffffff780100000000000000000000000000000000000000000000000090910481169084161115611a09576040517fc630a00d00000000000000000000000000000000000000000000000000000000815260040160405180910390fd5b6000611a158285615357565b611a299067ffffffffffffffff16886154ea565b604080516060810182528581524267ffffffffffffffff908116602080840191825260738054680100000000000000009081900485168688019081528d861660008181526072909552979093209551865592516001909501805492519585167fffffffffffffffffffffffffffffffff000000000000000000000000000000009384161795851684029590951790945583548c8416911617930292909217905590915082811690851614611b1f57607380547fffffffffffffffff0000000000000000ffffffffffffffffffffffffffffffff1670010000000000000000000000000000000067ffffffffffffffff8716021790555b611b77333083611b2e60705490565b611b389190615503565b73ffffffffffffffffffffffffffffffffffffffff7f0000000000000000000000000000000000000000000000000000000000000000169291906145be565b611b7f61450d565b60405167ffffffffffffffff8616907f303446e6a8cb73c83dff421c0b1d5e5ce0719dab1bff13660fc254e58cc17fce90600090a250505050505050505050565b607a5473ffffffffffffffffffffffffffffffffffffffff163314611c11576040517f4755657900000000000000000000000000000000000000000000000000000000815260040160405180910390fd5b606f80547fff0000000000000000000000000000000000000000ffffffffffffffffffffff166b01000000000000000000000073ffffffffffffffffffffffffffffffffffffffff8416908102919091179091556040519081527ff54144f9611984021529f814a1cb6a41e22c58351510a0d9f7e822618abb9cc090602001610c5d565b611c9d6146a0565b611ca76000614721565b565b60335473ffffffffffffffffffffffffffffffffffffffff163314611e11576000611cd2612549565b90508067ffffffffffffffff168267ffffffffffffffff1611611d21576040517f812a372d00000000000000000000000000000000000000000000000000000000815260040160405180910390fd5b60735467ffffffffffffffff6801000000000000000090910481169083161180611d67575067ffffffffffffffff80831660009081526072602052604090206001015416155b15611d9e576040517f98c5c01400000000000000000000000000000000000000000000000000000000815260040160405180910390fd5b67ffffffffffffffff8083166000908152607260205260409020600101544291611dcd9162093a80911661532f565b67ffffffffffffffff161115611e0f576040517fd257555a00000000000000000000000000000000000000000000000000000000815260040160405180910390fd5b505b61108a613cb4565b607b5473ffffffffffffffffffffffffffffffffffffffff163314611e6a576040517fd1ec4b2300000000000000000000000000000000000000000000000000000000815260040160405180910390fd5b607b54607a80547fffffffffffffffffffffffff00000000000000000000000000000000000000001673ffffffffffffffffffffffffffffffffffffffff90921691821790556040519081527f056dc487bbf0795d0bbb1b4f0af523a855503cff740bfb4d5475f7a90c091e8e9060200160405180910390a1565b6040517f70a08231000000000000000000000000000000000000000000000000000000008152306004820152600090819073ffffffffffffffffffffffffffffffffffffffff7f000000000000000000000000000000000000000000000000000000000000000016906370a0823190602401602060405180830381865afa158015611f74573d6000803e3d6000fd5b505050506040513d601f19601f82011682018060405250810190611f989190615499565b90506000611fa4612549565b60735467ffffffffffffffff680100000000000000008204811691611ffc9170010000000000000000000000000000000082048116917801000000000000000000000000000000000000000000000000900416615357565b612006919061532f565b6120109190615357565b67ffffffffffffffff1690508060000361202d5760009250505090565b6120378183615549565b9250505090565b607a5473ffffffffffffffffffffffffffffffffffffffff16331461208f576040517f4755657900000000000000000000000000000000000000000000000000000000815260040160405180910390fd5b62093a8067ffffffffffffffff821611156120d6576040517fcc96507000000000000000000000000000000000000000000000000000000000815260040160405180910390fd5b606f5460ff1661213d5760795467ffffffffffffffff70010000000000000000000000000000000090910481169082161061213d576040517f48a05a9000000000000000000000000000000000000000000000000000000000815260040160405180910390fd5b607980547fffffffffffffffff0000000000000000ffffffffffffffffffffffffffffffff1670010000000000000000000000000000000067ffffffffffffffff8416908102919091179091556040519081527fc4121f4e22c69632ebb7cf1f462be0511dc034f999b52013eddfb24aab765c7590602001610c5d565b607a5473ffffffffffffffffffffffffffffffffffffffff16331461220b576040517f4755657900000000000000000000000000000000000000000000000000000000815260040160405180910390fd5b620151808167ffffffffffffffff161115612252576040517fe067dfe800000000000000000000000000000000000000000000000000000000815260040160405180910390fd5b606f80547fffffffffffffffffffffffffffffffffffffffffffffff0000000000000000ff1661010067ffffffffffffffff8416908102919091179091556040519081527f1b023231a1ab6b5d93992f168fb44498e1a7e64cef58daff6f1c216de6a68c2890602001610c5d565b60745468010000000000000000900473ffffffffffffffffffffffffffffffffffffffff16331461231d576040517fbbcbbc0500000000000000000000000000000000000000000000000000000000815260040160405180910390fd5b61232c87878787878787613f4f565b607480547fffffffffffffffffffffffffffffffffffffffffffffffff00000000000000001667ffffffffffffffff878116918217909255600090815260756020526040902084905560795416156123a757607980547fffffffffffffffffffffffffffffffff000000000000000000000000000000001690555b6040517f33d6247d000000000000000000000000000000000000000000000000000000008152600481018590527f000000000000000000000000000000000000000000000000000000000000000073ffffffffffffffffffffffffffffffffffffffff16906333d6247d90602401600060405180830381600087803b15801561242f57600080fd5b505af1158015612443573d6000803e3d6000fd5b505060405185815233925067ffffffffffffffff881691507fcb339b570a7f0b25afa7333371ff11192092a0aeace12b671f4c212f2815c6fe90602001611412565b607a5473ffffffffffffffffffffffffffffffffffffffff1633146124d6576040517f4755657900000000000000000000000000000000000000000000000000000000815260040160405180910390fd5b607b80547fffffffffffffffffffffffff00000000000000000000000000000000000000001673ffffffffffffffffffffffffffffffffffffffff83169081179091556040519081527fa5b56b7906fd0a20e3f35120dd8343db1e12e037a6c90111c7e42885e82a1ce690602001610c5d565b60795460009067ffffffffffffffff161561258d575060795467ffffffffffffffff9081166000908152607860205260409020546801000000000000000090041690565b5060745467ffffffffffffffff1690565b607a5473ffffffffffffffffffffffffffffffffffffffff1633146125ef576040517f4755657900000000000000000000000000000000000000000000000000000000815260040160405180910390fd5b60766125fb82826155ab565b507f6b8f723a4c7a5335cafae8a598a0aa0301be1387c037dccc085b62add6448b2081604051610c5d9190614e3d565b600054610100900460ff161580801561264b5750600054600160ff909116105b806126655750303b158015612665575060005460ff166001145b6126f6576040517f08c379a000000000000000000000000000000000000000000000000000000000815260206004820152602e60248201527f496e697469616c697a61626c653a20636f6e747261637420697320616c72656160448201527f647920696e697469616c697a656400000000000000000000000000000000000060648201526084015b60405180910390fd5b600080547fffffffffffffffffffffffffffffffffffffffffffffffffffffffffffffff00166001179055801561275457600080547fffffffffffffffffffffffffffffffffffffffffffffffffffffffffffff00ff166101001790555b6127616020880188615029565b607a80547fffffffffffffffffffffffff00000000000000000000000000000000000000001673ffffffffffffffffffffffffffffffffffffffff929092169190911790556127b66040880160208901615029565b606f805473ffffffffffffffffffffffffffffffffffffffff929092166b010000000000000000000000027fff0000000000000000000000000000000000000000ffffffffffffffffffffff90921691909117905561281b6080880160608901615029565b6074805473ffffffffffffffffffffffffffffffffffffffff9290921668010000000000000000027fffffffff0000000000000000000000000000000000000000ffffffffffffffff9092169190911790556000805260756020527ff9e3fbf150b7a0077118526f473c53cb4734f166167e2c6213e3567dd390b4ad86905560766128a686826155ab565b5060776128b385826155ab565b5062093a806128c86060890160408a01614ec8565b67ffffffffffffffff16111561290a576040517fcc96507000000000000000000000000000000000000000000000000000000000815260040160405180910390fd5b61291a6060880160408901614ec8565b6079805467ffffffffffffffff92909216700100000000000000000000000000000000027fffffffffffffffff0000000000000000ffffffffffffffffffffffffffffffff90921691909117905562093a8061297c60a0890160808a01614ec8565b67ffffffffffffffff1611156129be576040517f1d06e87900000000000000000000000000000000000000000000000000000000815260040160405180910390fd5b6129ce60a0880160808901614ec8565b6079805477ffffffffffffffffffffffffffffffffffffffffffffffff16780100000000000000000000000000000000000000000000000067ffffffffffffffff9390931692909202919091179055670de0b6b3a7640000607055606f80547fffffffffffffffffffffffffffffffffffffffffff00000000000000000000ff166a03ea000000000000070800179055612a66614798565b7fed7be53c9f1a96a481223b15568a5b1a475e01a74b347d6ca187c8bf0c078cd660007f00000000000000000000000000000000000000000000000000000000000000008585604051612abc949392919061570e565b60405180910390a18015612b2757600080547fffffffffffffffffffffffffffffffffffffffffffffffffffffffffffff00ff169055604051600181527f7f26b83ff96e1f2b6a682f133852f6798a09c465da95921460cefb38474024989060200160405180910390a15b50505050505050565b606f5460ff1615612b6d576040517f2f0047fc00000000000000000000000000000000000000000000000000000000815260040160405180910390fd5b806000819003612ba9576040517fcb591a5f00000000000000000000000000000000000000000000000000000000815260040160405180910390fd5b6103e8811115612be5576040517fb59f753a00000000000000000000000000000000000000000000000000000000815260040160405180910390fd5b60735467ffffffffffffffff78010000000000000000000000000000000000000000000000008204811691612c30918491700100000000000000000000000000000000900416615746565b1115612c68576040517fc630a00d00000000000000000000000000000000000000000000000000000000815260040160405180910390fd5b60735467ffffffffffffffff680100000000000000008204811660008181526072602052604081205491937001000000000000000000000000000000009004909216915b84811015612eff576000878783818110612cc857612cc861539f565b9050602002810190612cda9190615759565b612ce39061578d565b905083612cef81615378565b82518051602091820120818501516040808701519051949950919450600093612d519386939101928352602083019190915260c01b7fffffffffffffffff00000000000000000000000000000000000000000000000016604082015260480190565b604080517fffffffffffffffffffffffffffffffffffffffffffffffffffffffffffffffe0818403018152918152815160209283012067ffffffffffffffff8916600090815260719093529120549091508114612dda576040517fce3d755e00000000000000000000000000000000000000000000000000000000815260040160405180910390fd5b67ffffffffffffffff8616600090815260716020526040812055612dff6001896154ea565b8403612e5b5742620697808460400151612e19919061532f565b67ffffffffffffffff161115612e5b576040517fc44a082100000000000000000000000000000000000000000000000000000000815260040160405180910390fd5b6020838101516040805192830188905282018490526060808301919091524260c01b7fffffffffffffffff00000000000000000000000000000000000000000000000016608083015233901b7fffffffffffffffffffffffffffffffffffffffff000000000000000000000000166088820152609c016040516020818303038152906040528051906020012094505050508080612ef7906154b2565b915050612cac565b50612f0a848461532f565b6073805467ffffffffffffffff4281167fffffffffffffffffffffffffffffffffffffffffffffffff00000000000000009092168217808455604080516060810182528781526020808201958652680100000000000000009384900485168284019081528589166000818152607290935284832093518455965160019390930180549151871686027fffffffffffffffffffffffffffffffff0000000000000000000000000000000090921693871693909317179091558554938916700100000000000000000000000000000000027fffffffffffffffff0000000000000000ffffffffffffffffffffffffffffffff938602939093167fffffffffffffffff00000000000000000000000000000000ffffffffffffffff90941693909317919091179093559151929550917f648a61dd2438f072f5a1960939abd30f37aea80d2e94c9792ad142d3e0a490a49190a2505050505050565b607a5473ffffffffffffffffffffffffffffffffffffffff1633146130b3576040517f4755657900000000000000000000000000000000000000000000000000000000815260040160405180910390fd5b7f000000000000000000000000000000000000000000000000000000000000000073ffffffffffffffffffffffffffffffffffffffff1663dbc169766040518163ffffffff1660e01b8152600401600060405180830381600087803b15801561311b57600080fd5b505af115801561312f573d6000803e3d6000fd5b50505050611ca7614838565b60745468010000000000000000900473ffffffffffffffffffffffffffffffffffffffff163314613198576040517fbbcbbc0500000000000000000000000000000000000000000000000000000000815260040160405180910390fd5b6131a8888888888888888861386c565b607480547fffffffffffffffffffffffffffffffffffffffffffffffff00000000000000001667ffffffffffffffff8781169182179092556000908152607560205260409020849055607954161561322357607980547fffffffffffffffffffffffffffffffff000000000000000000000000000000001690555b6040517f33d6247d000000000000000000000000000000000000000000000000000000008152600481018590527f000000000000000000000000000000000000000000000000000000000000000073ffffffffffffffffffffffffffffffffffffffff16906333d6247d90602401600060405180830381600087803b1580156132ab57600080fd5b505af11580156132bf573d6000803e3d6000fd5b50506079805477ffffffffffffffffffffffffffffffffffffffffffffffff167a093a800000000000000000000000000000000000000000000000001790555050604051838152339067ffffffffffffffff8716907fcc1b5520188bf1dd3e63f98164b577c4d75c11a619ddea692112f0d1aec4cf729060200160405180910390a35050505050505050565b606f5460ff1615613388576040517f2f0047fc00000000000000000000000000000000000000000000000000000000815260040160405180910390fd5b600061339360705490565b9050818111156133cf576040517f4732fdb500000000000000000000000000000000000000000000000000000000815260040160405180910390fd5b620493e083111561340c576040517fa29a6c7c00000000000000000000000000000000000000000000000000000000815260040160405180910390fd5b61344e73ffffffffffffffffffffffffffffffffffffffff7f0000000000000000000000000000000000000000000000000000000000000000163330846145be565b60007f000000000000000000000000000000000000000000000000000000000000000073ffffffffffffffffffffffffffffffffffffffff16633ed691ef6040518163ffffffff1660e01b8152600401602060405180830381865afa1580156134bb573d6000803e3d6000fd5b505050506040513d601f19601f820116820180604052508101906134df9190615499565b60738054919250780100000000000000000000000000000000000000000000000090910467ffffffffffffffff1690601861351983615378565b91906101000a81548167ffffffffffffffff021916908367ffffffffffffffff160217905550508484604051613550929190615809565b60408051918290038220602083015281018290527fffffffffffffffff0000000000000000000000000000000000000000000000004260c01b166060820152606801604080518083037fffffffffffffffffffffffffffffffffffffffffffffffffffffffffffffffe001815291815281516020928301206073547801000000000000000000000000000000000000000000000000900467ffffffffffffffff166000908152607190935291205532330361368057607354604080518381523360208201526060918101829052600091810191909152780100000000000000000000000000000000000000000000000090910467ffffffffffffffff16907ff94bb37db835f1ab585ee00041849a09b12cd081d77fa15ca070757619cbc9319060800160405180910390a26136df565b607360189054906101000a900467ffffffffffffffff1667ffffffffffffffff167ff94bb37db835f1ab585ee00041849a09b12cd081d77fa15ca070757619cbc931823388886040516136d69493929190615819565b60405180910390a25b5050505050565b607a5473ffffffffffffffffffffffffffffffffffffffff163314613737576040517f4755657900000000000000000000000000000000000000000000000000000000815260040160405180910390fd5b607480547fffffffff0000000000000000000000000000000000000000ffffffffffffffff166801000000000000000073ffffffffffffffffffffffffffffffffffffffff8416908102919091179091556040519081527f61f8fec29495a3078e9271456f05fb0707fd4e41f7661865f80fc437d06681ca90602001610c5d565b6137c06146a0565b73ffffffffffffffffffffffffffffffffffffffff8116613863576040517f08c379a000000000000000000000000000000000000000000000000000000000815260206004820152602660248201527f4f776e61626c653a206e6577206f776e657220697320746865207a65726f206160448201527f646472657373000000000000000000000000000000000000000000000000000060648201526084016126ed565b61108a81614721565b600067ffffffffffffffff89161561393a5760795467ffffffffffffffff908116908a1611156138c8576040517fbb14c20500000000000000000000000000000000000000000000000000000000815260040160405180910390fd5b5067ffffffffffffffff8089166000908152607860205260409020600281015481549092898116680100000000000000009092041614613934576040517f2bd2e3e700000000000000000000000000000000000000000000000000000000815260040160405180910390fd5b506139d6565b5067ffffffffffffffff86166000908152607560205260409020548061398c576040517f4997b98600000000000000000000000000000000000000000000000000000000815260040160405180910390fd5b60745467ffffffffffffffff90811690881611156139d6576040517f1e56e9e200000000000000000000000000000000000000000000000000000000815260040160405180910390fd5b60795467ffffffffffffffff9081169089161180613a0857508867ffffffffffffffff168867ffffffffffffffff1611155b80613a2f575060795467ffffffffffffffff68010000000000000000909104811690891611155b15613a66576040517fbfa7079f00000000000000000000000000000000000000000000000000000000815260040160405180910390fd5b67ffffffffffffffff888116600090815260786020526040902054680100000000000000009004811690871614613ac9576040517f32a2a77f00000000000000000000000000000000000000000000000000000000815260040160405180910390fd5b6000613ad88888888589610c68565b905060007f30644e72e131a029b85045b68181585d2833e84879b9709143e1f593f0000001600283604051613b0d919061584f565b602060405180830381855afa158015613b2a573d6000803e3d6000fd5b5050506040513d601f19601f82011682018060405250810190613b4d9190615499565b613b579190615861565b6040805160208101825282815290517f8d8f8a5c00000000000000000000000000000000000000000000000000000000815291925073ffffffffffffffffffffffffffffffffffffffff7f00000000000000000000000000000000000000000000000000000000000000001691638d8f8a5c91613bda9189918991600401615875565b602060405180830381865afa158015613bf7573d6000803e3d6000fd5b505050506040513d601f19601f82011682018060405250810190613c1b91906158bd565b613c51576040517f09bde33900000000000000000000000000000000000000000000000000000000815260040160405180910390fd5b67ffffffffffffffff8a16600090815260786020526040902060020154869003613ca7576040517fa47276bd00000000000000000000000000000000000000000000000000000000815260040160405180910390fd5b5050505050505050505050565b7f000000000000000000000000000000000000000000000000000000000000000073ffffffffffffffffffffffffffffffffffffffff16632072f6c56040518163ffffffff1660e01b8152600401600060405180830381600087803b158015613d1c57600080fd5b505af1158015613d30573d6000803e3d6000fd5b50505050611ca76148c7565b60795467ffffffffffffffff680100000000000000009091048116908216111580613d76575060795467ffffffffffffffff908116908216115b15613dad576040517fd086b70b00000000000000000000000000000000000000000000000000000000815260040160405180910390fd5b67ffffffffffffffff818116600081815260786020908152604080832080546074805468010000000000000000928390049098167fffffffffffffffffffffffffffffffffffffffffffffffff000000000000000090981688179055600282015487865260759094529382902092909255607980547fffffffffffffffffffffffffffffffff0000000000000000ffffffffffffffff169390940292909217909255600182015490517f33d6247d00000000000000000000000000000000000000000000000000000000815260048101919091529091907f000000000000000000000000000000000000000000000000000000000000000073ffffffffffffffffffffffffffffffffffffffff16906333d6247d90602401600060405180830381600087803b158015613edf57600080fd5b505af1158015613ef3573d6000803e3d6000fd5b505050508267ffffffffffffffff168167ffffffffffffffff167f328d3c6c0fd6f1be0515e422f2d87e59f25922cbc2233568515a0c4bc3f8510e8460020154604051613f4291815260200190565b60405180910390a3505050565b600080613f5a612549565b905067ffffffffffffffff89161561402a5760795467ffffffffffffffff908116908a161115613fb6576040517fbb14c20500000000000000000000000000000000000000000000000000000000815260040160405180910390fd5b67ffffffffffffffff808a1660009081526078602052604090206002810154815490945090918a8116680100000000000000009092041614614024576040517f2bd2e3e700000000000000000000000000000000000000000000000000000000815260040160405180910390fd5b506140cb565b67ffffffffffffffff881660009081526075602052604090205491508161407d576040517f4997b98600000000000000000000000000000000000000000000000000000000815260040160405180910390fd5b8067ffffffffffffffff168867ffffffffffffffff1611156140cb576040517f1e56e9e200000000000000000000000000000000000000000000000000000000815260040160405180910390fd5b8067ffffffffffffffff168767ffffffffffffffff1611614118576040517fb9b18f5700000000000000000000000000000000000000000000000000000000815260040160405180910390fd5b6000614127898989868a610c68565b905060007f30644e72e131a029b85045b68181585d2833e84879b9709143e1f593f000000160028360405161415c919061584f565b602060405180830381855afa158015614179573d6000803e3d6000fd5b5050506040513d601f19601f8201168201806040525081019061419c9190615499565b6141a69190615861565b6040805160208101825282815290517f8d8f8a5c00000000000000000000000000000000000000000000000000000000815291925073ffffffffffffffffffffffffffffffffffffffff7f00000000000000000000000000000000000000000000000000000000000000001691638d8f8a5c91614229918a918a91600401615875565b602060405180830381865afa158015614246573d6000803e3d6000fd5b505050506040513d601f19601f8201168201806040525081019061426a91906158bd565b6142a0576040517f09bde33900000000000000000000000000000000000000000000000000000000815260040160405180910390fd5b613ca7336142ae858c615357565b67ffffffffffffffff166142c0611ee5565b6142ca9190615503565b73ffffffffffffffffffffffffffffffffffffffff7f000000000000000000000000000000000000000000000000000000000000000016919061495a565b6000614312612549565b9050816000806143228484615357565b606f5467ffffffffffffffff918216925060009161434691610100900416426154ea565b90505b8467ffffffffffffffff168467ffffffffffffffff16146143f65767ffffffffffffffff808516600090815260726020526040902060018101549091168210156143ea5760018101546143b29068010000000000000000900467ffffffffffffffff1686615357565b6143c69067ffffffffffffffff1685615746565b600182015468010000000000000000900467ffffffffffffffff16955093506143f0565b506143f6565b50614349565b600061440284846154ea565b90508084101561445957838103600c811161441d5780614420565b600c5b9050806103e80a81606f60099054906101000a900461ffff1661ffff160a607054028161444f5761444f61551a565b04607055506144c9565b808403600c811161446a578061446d565b600c5b90506000816103e80a82606f60099054906101000a900461ffff1661ffff160a670de0b6b3a764000002816144a4576144a461551a565b04905080607054670de0b6b3a764000002816144c2576144c261551a565b0460705550505b683635c9adc5dea0000060705411156144ee57683635c9adc5dea00000607055612b27565b633b9aca006070541015612b2757633b9aca0060705550505050505050565b60795467ffffffffffffffff680100000000000000008204811691161115611ca7576079546000906145569068010000000000000000900467ffffffffffffffff16600161532f565b905061456181610e00565b1561108a5760795460009060029061458490849067ffffffffffffffff16615357565b61458e91906158df565b614598908361532f565b90506145a381610e00565b156145b5576145b181613d3c565b5050565b6145b182613d3c565b60405173ffffffffffffffffffffffffffffffffffffffff8085166024830152831660448201526064810182905261469a9085907f23b872dd00000000000000000000000000000000000000000000000000000000906084015b604080517fffffffffffffffffffffffffffffffffffffffffffffffffffffffffffffffe08184030181529190526020810180517bffffffffffffffffffffffffffffffffffffffffffffffffffffffff167fffffffff00000000000000000000000000000000000000000000000000000000909316929092179091526149b5565b50505050565b60335473ffffffffffffffffffffffffffffffffffffffff163314611ca7576040517f08c379a000000000000000000000000000000000000000000000000000000000815260206004820181905260248201527f4f776e61626c653a2063616c6c6572206973206e6f7420746865206f776e657260448201526064016126ed565b6033805473ffffffffffffffffffffffffffffffffffffffff8381167fffffffffffffffffffffffff0000000000000000000000000000000000000000831681179093556040519116919082907f8be0079c531659141344cd1fd0a4f28419497f9722a3daafe3b4186f6b6457e090600090a35050565b600054610100900460ff1661482f576040517f08c379a000000000000000000000000000000000000000000000000000000000815260206004820152602b60248201527f496e697469616c697a61626c653a20636f6e7472616374206973206e6f74206960448201527f6e697469616c697a696e6700000000000000000000000000000000000000000060648201526084016126ed565b611ca733614721565b606f5460ff16614874576040517f5386698100000000000000000000000000000000000000000000000000000000815260040160405180910390fd5b606f80547fffffffffffffffffffffffffffffffffffffffffffffffffffffffffffffff001690556040517f1e5e34eea33501aecf2ebec9fe0e884a40804275ea7fe10b2ba084c8374308b390600090a1565b606f5460ff1615614904576040517f2f0047fc00000000000000000000000000000000000000000000000000000000815260040160405180910390fd5b606f80547fffffffffffffffffffffffffffffffffffffffffffffffffffffffffffffff001660011790556040517f2261efe5aef6fedc1fd1550b25facc9181745623049c7901287030b9ad1a549790600090a1565b60405173ffffffffffffffffffffffffffffffffffffffff83166024820152604481018290526149b09084907fa9059cbb0000000000000000000000000000000000000000000000000000000090606401614618565b505050565b6000614a17826040518060400160405280602081526020017f5361666545524332303a206c6f772d6c6576656c2063616c6c206661696c65648152508573ffffffffffffffffffffffffffffffffffffffff16614ac19092919063ffffffff16565b8051909150156149b05780806020019051810190614a3591906158bd565b6149b0576040517f08c379a000000000000000000000000000000000000000000000000000000000815260206004820152602a60248201527f5361666545524332303a204552433230206f7065726174696f6e20646964206e60448201527f6f7420737563636565640000000000000000000000000000000000000000000060648201526084016126ed565b6060614ad08484600085614ad8565b949350505050565b606082471015614b6a576040517f08c379a000000000000000000000000000000000000000000000000000000000815260206004820152602660248201527f416464726573733a20696e73756666696369656e742062616c616e636520666f60448201527f722063616c6c000000000000000000000000000000000000000000000000000060648201526084016126ed565b6000808673ffffffffffffffffffffffffffffffffffffffff168587604051614b93919061584f565b60006040518083038185875af1925050503d8060008114614bd0576040519150601f19603f3d011682016040523d82523d6000602084013e614bd5565b606091505b5091509150614be687838387614bf1565b979650505050505050565b60608315614c87578251600003614c805773ffffffffffffffffffffffffffffffffffffffff85163b614c80576040517f08c379a000000000000000000000000000000000000000000000000000000000815260206004820152601d60248201527f416464726573733a2063616c6c20746f206e6f6e2d636f6e747261637400000060448201526064016126ed565b5081614ad0565b614ad08383815115614c9c5781518083602001fd5b806040517f08c379a00000000000000000000000000000000000000000000000000000000081526004016126ed9190614e3d565b803567ffffffffffffffff81168114614ce857600080fd5b919050565b60008083601f840112614cff57600080fd5b50813567ffffffffffffffff811115614d1757600080fd5b602083019150836020828501011115614d2f57600080fd5b9250929050565b60008060008060008060008060e0898b031215614d5257600080fd5b614d5b89614cd0565b9750614d6960208a01614cd0565b9650614d7760408a01614cd0565b9550614d8560608a01614cd0565b94506080890135935060a0890135925060c089013567ffffffffffffffff811115614daf57600080fd5b614dbb8b828c01614ced565b999c989b5096995094979396929594505050565b60005b83811015614dea578181015183820152602001614dd2565b50506000910152565b60008151808452614e0b816020860160208601614dcf565b601f017fffffffffffffffffffffffffffffffffffffffffffffffffffffffffffffffe0169290920160200192915050565b602081526000614e506020830184614df3565b9392505050565b600060208284031215614e6957600080fd5b813561ffff81168114614e5057600080fd5b600080600080600060a08688031215614e9357600080fd5b614e9c86614cd0565b9450614eaa60208701614cd0565b94979496505050506040830135926060810135926080909101359150565b600060208284031215614eda57600080fd5b614e5082614cd0565b600080600080600080600060c0888a031215614efe57600080fd5b614f0788614cd0565b9650614f1560208901614cd0565b9550614f2360408901614cd0565b9450606088013593506080880135925060a088013567ffffffffffffffff811115614f4d57600080fd5b614f598a828b01614ced565b989b979a50959850939692959293505050565b60008083601f840112614f7e57600080fd5b50813567ffffffffffffffff811115614f9657600080fd5b6020830191508360208260051b8501011115614d2f57600080fd5b803573ffffffffffffffffffffffffffffffffffffffff81168114614ce857600080fd5b600080600060408486031215614fea57600080fd5b833567ffffffffffffffff81111561500157600080fd5b61500d86828701614f6c565b9094509250615020905060208501614fb1565b90509250925092565b60006020828403121561503b57600080fd5b614e5082614fb1565b60006020828403121561505657600080fd5b5035919050565b7f4e487b7100000000000000000000000000000000000000000000000000000000600052604160045260246000fd5b600082601f83011261509d57600080fd5b813567ffffffffffffffff808211156150b8576150b861505d565b604051601f83017fffffffffffffffffffffffffffffffffffffffffffffffffffffffffffffffe0908116603f011681019082821181831017156150fe576150fe61505d565b8160405283815286602085880101111561511757600080fd5b836020870160208301376000602085830101528094505050505092915050565b60006020828403121561514957600080fd5b813567ffffffffffffffff81111561516057600080fd5b614ad08482850161508c565b60008060008060008086880361012081121561518757600080fd5b60a081121561519557600080fd5b5086955060a0870135945060c087013567ffffffffffffffff808211156151bb57600080fd5b6151c78a838b0161508c565b955060e08901359150808211156151dd57600080fd5b6151e98a838b0161508c565b945061010089013591508082111561520057600080fd5b5061520d89828a01614ced565b979a9699509497509295939492505050565b6000806020838503121561523257600080fd5b823567ffffffffffffffff81111561524957600080fd5b61525585828601614f6c565b90969095509350505050565b60008060006040848603121561527657600080fd5b833567ffffffffffffffff81111561528d57600080fd5b61529986828701614ced565b909790965060209590950135949350505050565b600181811c908216806152c157607f821691505b6020821081036152fa577f4e487b7100000000000000000000000000000000000000000000000000000000600052602260045260246000fd5b50919050565b7f4e487b7100000000000000000000000000000000000000000000000000000000600052601160045260246000fd5b67ffffffffffffffff81811683821601908082111561535057615350615300565b5092915050565b67ffffffffffffffff82811682821603908082111561535057615350615300565b600067ffffffffffffffff80831681810361539557615395615300565b6001019392505050565b7f4e487b7100000000000000000000000000000000000000000000000000000000600052603260045260246000fd5b600082357fffffffffffffffffffffffffffffffffffffffffffffffffffffffffffffff8183360301811261540257600080fd5b9190910192915050565b60006080823603121561541e57600080fd5b6040516080810167ffffffffffffffff82821081831117156154425761544261505d565b81604052843591508082111561545757600080fd5b506154643682860161508c565b8252506020830135602082015261547d60408401614cd0565b604082015261548e60608401614cd0565b606082015292915050565b6000602082840312156154ab57600080fd5b5051919050565b60007fffffffffffffffffffffffffffffffffffffffffffffffffffffffffffffffff82036154e3576154e3615300565b5060010190565b818103818111156154fd576154fd615300565b92915050565b80820281158282048414176154fd576154fd615300565b7f4e487b7100000000000000000000000000000000000000000000000000000000600052601260045260246000fd5b6000826155585761555861551a565b500490565b601f8211156149b057600081815260208120601f850160051c810160208610156155845750805b601f850160051c820191505b818110156155a357828155600101615590565b505050505050565b815167ffffffffffffffff8111156155c5576155c561505d565b6155d9816155d384546152ad565b8461555d565b602080601f83116001811461562c57600084156155f65750858301515b7fffffffffffffffffffffffffffffffffffffffffffffffffffffffffffffffff600386901b1c1916600185901b1785556155a3565b6000858152602081207fffffffffffffffffffffffffffffffffffffffffffffffffffffffffffffffe08616915b828110156156795788860151825594840194600190910190840161565a565b50858210156156b557878501517fffffffffffffffffffffffffffffffffffffffffffffffffffffffffffffffff600388901b60f8161c191681555b5050505050600190811b01905550565b8183528181602085013750600060208284010152600060207fffffffffffffffffffffffffffffffffffffffffffffffffffffffffffffffe0601f840116840101905092915050565b600067ffffffffffffffff80871683528086166020840152506060604083015261573c6060830184866156c5565b9695505050505050565b808201808211156154fd576154fd615300565b600082357fffffffffffffffffffffffffffffffffffffffffffffffffffffffffffffffa183360301811261540257600080fd5b60006060823603121561579f57600080fd5b6040516060810167ffffffffffffffff82821081831117156157c3576157c361505d565b8160405284359150808211156157d857600080fd5b506157e53682860161508c565b825250602083013560208201526157fe60408401614cd0565b604082015292915050565b8183823760009101908152919050565b84815273ffffffffffffffffffffffffffffffffffffffff8416602082015260606040820152600061573c6060830184866156c5565b60008251615402818460208701614dcf565b6000826158705761587061551a565b500690565b6040815260006158896040830185876156c5565b905060208083018460005b60018110156158b157815183529183019190830190600101615894565b50505050949350505050565b6000602082840312156158cf57600080fd5b81518015158114614e5057600080fd5b600067ffffffffffffffff808416806158fa576158fa61551a565b9216919091049291505056fea26469706673582212200b99401333b90c80afe588ade7055c73867f6dfc85a55842fb0b3a76b83f42c464736f6c63430008110033",
  "linkReferences": {},
  "deployedLinkReferences": {}
}