{
  "_format": "hh-sol-artifact-1",
  "contractName": "PolygonZkEVMMock",
  "sourceName": "contracts/mocks/PolygonZkEVMMock.sol",
  "abi": [
    {
      "inputs": [
        {
          "internalType": "contract IPolygonZkEVMGlobalExitRoot",
          "name": "_globalExitRootManager",
          "type": "address"
        },
        {
          "internalType": "contract IERC20Upgradeable",
          "name": "_matic",
          "type": "address"
        },
        {
          "internalType": "contract IVerifierRollup",
          "name": "_rollupVerifier",
          "type": "address"
        },
        {
          "internalType": "contract IPolygonZkEVMBridge",
          "name": "_bridgeAddress",
          "type": "address"
        },
        {
          "internalType": "uint64",
          "name": "_chainID",
          "type": "uint64"
        },
        {
          "internalType": "uint64",
          "name": "_forkID",
          "type": "uint64"
        }
      ],
      "stateMutability": "nonpayable",
      "type": "constructor"
    },
    {
      "inputs": [],
      "name": "BatchAlreadyVerified",
      "type": "error"
    },
    {
      "inputs": [],
      "name": "BatchNotSequencedOrNotSequenceEnd",
      "type": "error"
    },
    {
      "inputs": [],
      "name": "ExceedMaxVerifyBatches",
      "type": "error"
    },
    {
      "inputs": [],
      "name": "FinalNumBatchBelowLastVerifiedBatch",
      "type": "error"
    },
    {
      "inputs": [],
      "name": "FinalNumBatchDoesNotMatchPendingState",
      "type": "error"
    },
    {
      "inputs": [],
      "name": "FinalPendingStateNumInvalid",
      "type": "error"
    },
    {
      "inputs": [],
      "name": "ForceBatchNotAllowed",
      "type": "error"
    },
    {
      "inputs": [],
      "name": "ForceBatchTimeoutNotExpired",
      "type": "error"
    },
    {
      "inputs": [],
      "name": "ForceBatchesAlreadyActive",
      "type": "error"
    },
    {
      "inputs": [],
      "name": "ForceBatchesOverflow",
      "type": "error"
    },
    {
      "inputs": [],
      "name": "ForcedDataDoesNotMatch",
      "type": "error"
    },
    {
      "inputs": [],
      "name": "GlobalExitRootNotExist",
      "type": "error"
    },
    {
      "inputs": [],
      "name": "HaltTimeoutNotExpired",
      "type": "error"
    },
    {
      "inputs": [],
      "name": "InitNumBatchAboveLastVerifiedBatch",
      "type": "error"
    },
    {
      "inputs": [],
      "name": "InitNumBatchDoesNotMatchPendingState",
      "type": "error"
    },
    {
      "inputs": [],
      "name": "InvalidProof",
      "type": "error"
    },
    {
      "inputs": [],
      "name": "InvalidRangeBatchTimeTarget",
      "type": "error"
    },
    {
      "inputs": [],
      "name": "InvalidRangeForceBatchTimeout",
      "type": "error"
    },
    {
      "inputs": [],
      "name": "InvalidRangeMultiplierBatchFee",
      "type": "error"
    },
    {
      "inputs": [],
      "name": "NewAccInputHashDoesNotExist",
      "type": "error"
    },
    {
      "inputs": [],
      "name": "NewPendingStateTimeoutMustBeLower",
      "type": "error"
    },
    {
      "inputs": [],
      "name": "NewStateRootNotInsidePrime",
      "type": "error"
    },
    {
      "inputs": [],
      "name": "NewTrustedAggregatorTimeoutMustBeLower",
      "type": "error"
    },
    {
      "inputs": [],
      "name": "NotEnoughMaticAmount",
      "type": "error"
    },
    {
      "inputs": [],
      "name": "OldAccInputHashDoesNotExist",
      "type": "error"
    },
    {
      "inputs": [],
      "name": "OldStateRootDoesNotExist",
      "type": "error"
    },
    {
      "inputs": [],
      "name": "OnlyAdmin",
      "type": "error"
    },
    {
      "inputs": [],
      "name": "OnlyEmergencyState",
      "type": "error"
    },
    {
      "inputs": [],
      "name": "OnlyNotEmergencyState",
      "type": "error"
    },
    {
      "inputs": [],
      "name": "OnlyPendingAdmin",
      "type": "error"
    },
    {
      "inputs": [],
      "name": "OnlyTrustedAggregator",
      "type": "error"
    },
    {
      "inputs": [],
      "name": "OnlyTrustedSequencer",
      "type": "error"
    },
    {
      "inputs": [],
      "name": "PendingStateDoesNotExist",
      "type": "error"
    },
    {
      "inputs": [],
      "name": "PendingStateInvalid",
      "type": "error"
    },
    {
      "inputs": [],
      "name": "PendingStateNotConsolidable",
      "type": "error"
    },
    {
      "inputs": [],
      "name": "PendingStateTimeoutExceedHaltAggregationTimeout",
      "type": "error"
    },
    {
      "inputs": [],
      "name": "SequenceZeroBatches",
      "type": "error"
    },
    {
      "inputs": [],
      "name": "SequencedTimestampBelowForcedTimestamp",
      "type": "error"
    },
    {
      "inputs": [],
      "name": "SequencedTimestampInvalid",
      "type": "error"
    },
    {
      "inputs": [],
      "name": "StoredRootMustBeDifferentThanNewRoot",
      "type": "error"
    },
    {
      "inputs": [],
      "name": "TransactionsLengthAboveMax",
      "type": "error"
    },
    {
      "inputs": [],
      "name": "TrustedAggregatorTimeoutExceedHaltAggregationTimeout",
      "type": "error"
    },
    {
      "inputs": [],
      "name": "TrustedAggregatorTimeoutNotExpired",
      "type": "error"
    },
    {
      "anonymous": false,
      "inputs": [
        {
          "indexed": false,
          "internalType": "address",
          "name": "newAdmin",
          "type": "address"
        }
      ],
      "name": "AcceptAdminRole",
      "type": "event"
    },
    {
      "anonymous": false,
      "inputs": [],
      "name": "ActivateForceBatches",
      "type": "event"
    },
    {
      "anonymous": false,
      "inputs": [
        {
          "indexed": true,
          "internalType": "uint64",
          "name": "numBatch",
          "type": "uint64"
        },
        {
          "indexed": false,
          "internalType": "bytes32",
          "name": "stateRoot",
          "type": "bytes32"
        },
        {
          "indexed": true,
          "internalType": "uint64",
          "name": "pendingStateNum",
          "type": "uint64"
        }
      ],
      "name": "ConsolidatePendingState",
      "type": "event"
    },
    {
      "anonymous": false,
      "inputs": [],
      "name": "EmergencyStateActivated",
      "type": "event"
    },
    {
      "anonymous": false,
      "inputs": [],
      "name": "EmergencyStateDeactivated",
      "type": "event"
    },
    {
      "anonymous": false,
      "inputs": [
        {
          "indexed": true,
          "internalType": "uint64",
          "name": "forceBatchNum",
          "type": "uint64"
        },
        {
          "indexed": false,
          "internalType": "bytes32",
          "name": "lastGlobalExitRoot",
          "type": "bytes32"
        },
        {
          "indexed": false,
          "internalType": "address",
          "name": "sequencer",
          "type": "address"
        },
        {
          "indexed": false,
          "internalType": "bytes",
          "name": "transactions",
          "type": "bytes"
        }
      ],
      "name": "ForceBatch",
      "type": "event"
    },
    {
      "anonymous": false,
      "inputs": [
        {
          "indexed": false,
          "internalType": "uint8",
          "name": "version",
          "type": "uint8"
        }
      ],
      "name": "Initialized",
      "type": "event"
    },
    {
      "anonymous": false,
      "inputs": [
        {
          "indexed": true,
          "internalType": "uint64",
          "name": "numBatch",
          "type": "uint64"
        },
        {
          "indexed": false,
          "internalType": "bytes32",
          "name": "stateRoot",
          "type": "bytes32"
        },
        {
          "indexed": true,
          "internalType": "address",
          "name": "aggregator",
          "type": "address"
        }
      ],
      "name": "OverridePendingState",
      "type": "event"
    },
    {
      "anonymous": false,
      "inputs": [
        {
          "indexed": true,
          "internalType": "address",
          "name": "previousOwner",
          "type": "address"
        },
        {
          "indexed": true,
          "internalType": "address",
          "name": "newOwner",
          "type": "address"
        }
      ],
      "name": "OwnershipTransferred",
      "type": "event"
    },
    {
      "anonymous": false,
      "inputs": [
        {
          "indexed": false,
          "internalType": "bytes32",
          "name": "storedStateRoot",
          "type": "bytes32"
        },
        {
          "indexed": false,
          "internalType": "bytes32",
          "name": "provedStateRoot",
          "type": "bytes32"
        }
      ],
      "name": "ProveNonDeterministicPendingState",
      "type": "event"
    },
    {
      "anonymous": false,
      "inputs": [
        {
          "indexed": true,
          "internalType": "uint64",
          "name": "numBatch",
          "type": "uint64"
        }
      ],
      "name": "SequenceBatches",
      "type": "event"
    },
    {
      "anonymous": false,
      "inputs": [
        {
          "indexed": true,
          "internalType": "uint64",
          "name": "numBatch",
          "type": "uint64"
        }
      ],
      "name": "SequenceForceBatches",
      "type": "event"
    },
    {
      "anonymous": false,
      "inputs": [
        {
          "indexed": false,
          "internalType": "uint64",
          "name": "newforceBatchTimeout",
          "type": "uint64"
        }
      ],
      "name": "SetForceBatchTimeout",
      "type": "event"
    },
    {
      "anonymous": false,
      "inputs": [
        {
          "indexed": false,
          "internalType": "uint16",
          "name": "newMultiplierBatchFee",
          "type": "uint16"
        }
      ],
      "name": "SetMultiplierBatchFee",
      "type": "event"
    },
    {
      "anonymous": false,
      "inputs": [
        {
          "indexed": false,
          "internalType": "uint64",
          "name": "newPendingStateTimeout",
          "type": "uint64"
        }
      ],
      "name": "SetPendingStateTimeout",
      "type": "event"
    },
    {
      "anonymous": false,
      "inputs": [
        {
          "indexed": false,
          "internalType": "address",
          "name": "newTrustedAggregator",
          "type": "address"
        }
      ],
      "name": "SetTrustedAggregator",
      "type": "event"
    },
    {
      "anonymous": false,
      "inputs": [
        {
          "indexed": false,
          "internalType": "uint64",
          "name": "newTrustedAggregatorTimeout",
          "type": "uint64"
        }
      ],
      "name": "SetTrustedAggregatorTimeout",
      "type": "event"
    },
    {
      "anonymous": false,
      "inputs": [
        {
          "indexed": false,
          "internalType": "address",
          "name": "newTrustedSequencer",
          "type": "address"
        }
      ],
      "name": "SetTrustedSequencer",
      "type": "event"
    },
    {
      "anonymous": false,
      "inputs": [
        {
          "indexed": false,
          "internalType": "string",
          "name": "newTrustedSequencerURL",
          "type": "string"
        }
      ],
      "name": "SetTrustedSequencerURL",
      "type": "event"
    },
    {
      "anonymous": false,
      "inputs": [
        {
          "indexed": false,
          "internalType": "uint64",
          "name": "newVerifyBatchTimeTarget",
          "type": "uint64"
        }
      ],
      "name": "SetVerifyBatchTimeTarget",
      "type": "event"
    },
    {
      "anonymous": false,
      "inputs": [
        {
          "indexed": false,
          "internalType": "address",
          "name": "newPendingAdmin",
          "type": "address"
        }
      ],
      "name": "TransferAdminRole",
      "type": "event"
    },
    {
      "anonymous": false,
      "inputs": [
        {
          "indexed": false,
          "internalType": "uint64",
          "name": "numBatch",
          "type": "uint64"
        },
        {
          "indexed": false,
          "internalType": "uint64",
          "name": "forkID",
          "type": "uint64"
        },
        {
          "indexed": false,
          "internalType": "string",
          "name": "version",
          "type": "string"
        }
      ],
      "name": "UpdateZkEVMVersion",
      "type": "event"
    },
    {
      "anonymous": false,
      "inputs": [
        {
          "indexed": true,
          "internalType": "uint64",
          "name": "numBatch",
          "type": "uint64"
        },
        {
          "indexed": false,
          "internalType": "bytes32",
          "name": "stateRoot",
          "type": "bytes32"
        },
        {
          "indexed": true,
          "internalType": "address",
          "name": "aggregator",
          "type": "address"
        }
      ],
      "name": "VerifyBatches",
      "type": "event"
    },
    {
      "anonymous": false,
      "inputs": [
        {
          "indexed": true,
          "internalType": "uint64",
          "name": "numBatch",
          "type": "uint64"
        },
        {
          "indexed": false,
          "internalType": "bytes32",
          "name": "stateRoot",
          "type": "bytes32"
        },
        {
          "indexed": true,
          "internalType": "address",
          "name": "aggregator",
          "type": "address"
        }
      ],
      "name": "VerifyBatchesTrustedAggregator",
      "type": "event"
    },
    {
      "inputs": [],
      "name": "acceptAdminRole",
      "outputs": [],
      "stateMutability": "nonpayable",
      "type": "function"
    },
    {
      "inputs": [
        {
          "internalType": "uint64",
          "name": "sequencedBatchNum",
          "type": "uint64"
        }
      ],
      "name": "activateEmergencyState",
      "outputs": [],
      "stateMutability": "nonpayable",
      "type": "function"
    },
    {
      "inputs": [],
      "name": "activateForceBatches",
      "outputs": [],
      "stateMutability": "nonpayable",
      "type": "function"
    },
    {
      "inputs": [],
      "name": "admin",
      "outputs": [
        {
          "internalType": "address",
          "name": "",
          "type": "address"
        }
      ],
      "stateMutability": "view",
      "type": "function"
    },
    {
      "inputs": [],
      "name": "batchFee",
      "outputs": [
        {
          "internalType": "uint256",
          "name": "",
          "type": "uint256"
        }
      ],
      "stateMutability": "view",
      "type": "function"
    },
    {
      "inputs": [
        {
          "internalType": "uint64",
          "name": "",
          "type": "uint64"
        }
      ],
      "name": "batchNumToStateRoot",
      "outputs": [
        {
          "internalType": "bytes32",
          "name": "",
          "type": "bytes32"
        }
      ],
      "stateMutability": "view",
      "type": "function"
    },
    {
      "inputs": [],
      "name": "bridgeAddress",
      "outputs": [
        {
          "internalType": "contract IPolygonZkEVMBridge",
          "name": "",
          "type": "address"
        }
      ],
      "stateMutability": "view",
      "type": "function"
    },
    {
      "inputs": [
        {
          "internalType": "bytes32",
          "name": "currentAccInputHash",
          "type": "bytes32"
        },
        {
          "internalType": "bytes",
          "name": "transactions",
          "type": "bytes"
        },
        {
          "internalType": "bytes32",
          "name": "globalExitRoot",
          "type": "bytes32"
        },
        {
          "internalType": "uint64",
          "name": "timestamp",
          "type": "uint64"
        },
        {
          "internalType": "address",
          "name": "sequencerAddress",
          "type": "address"
        },
        {
          "internalType": "bool",
          "name": "isForced",
          "type": "bool"
        }
      ],
      "name": "calculateAccInputHash",
      "outputs": [
        {
          "internalType": "bytes32",
          "name": "",
          "type": "bytes32"
        }
      ],
      "stateMutability": "pure",
      "type": "function"
    },
    {
      "inputs": [],
      "name": "calculateRewardPerBatch",
      "outputs": [
        {
          "internalType": "uint256",
          "name": "",
          "type": "uint256"
        }
      ],
      "stateMutability": "view",
      "type": "function"
    },
    {
      "inputs": [],
      "name": "chainID",
      "outputs": [
        {
          "internalType": "uint64",
          "name": "",
          "type": "uint64"
        }
      ],
      "stateMutability": "view",
      "type": "function"
    },
    {
      "inputs": [
        {
          "internalType": "uint256",
          "name": "newStateRoot",
          "type": "uint256"
        }
      ],
      "name": "checkStateRootInsidePrime",
      "outputs": [
        {
          "internalType": "bool",
          "name": "",
          "type": "bool"
        }
      ],
      "stateMutability": "pure",
      "type": "function"
    },
    {
      "inputs": [
        {
          "internalType": "uint64",
          "name": "pendingStateNum",
          "type": "uint64"
        }
      ],
      "name": "consolidatePendingState",
      "outputs": [],
      "stateMutability": "nonpayable",
      "type": "function"
    },
    {
      "inputs": [],
      "name": "deactivateEmergencyState",
      "outputs": [],
      "stateMutability": "nonpayable",
      "type": "function"
    },
    {
      "inputs": [
        {
          "internalType": "bytes",
          "name": "transactions",
          "type": "bytes"
        },
        {
          "internalType": "uint256",
          "name": "maticAmount",
          "type": "uint256"
        }
      ],
      "name": "forceBatch",
      "outputs": [],
      "stateMutability": "nonpayable",
      "type": "function"
    },
    {
      "inputs": [],
      "name": "forceBatchTimeout",
      "outputs": [
        {
          "internalType": "uint64",
          "name": "",
          "type": "uint64"
        }
      ],
      "stateMutability": "view",
      "type": "function"
    },
    {
      "inputs": [
        {
          "internalType": "uint64",
          "name": "",
          "type": "uint64"
        }
      ],
      "name": "forcedBatches",
      "outputs": [
        {
          "internalType": "bytes32",
          "name": "",
          "type": "bytes32"
        }
      ],
      "stateMutability": "view",
      "type": "function"
    },
    {
      "inputs": [],
      "name": "forkID",
      "outputs": [
        {
          "internalType": "uint64",
          "name": "",
          "type": "uint64"
        }
      ],
      "stateMutability": "view",
      "type": "function"
    },
    {
      "inputs": [],
      "name": "gapLastTimestamp",
      "outputs": [
        {
          "internalType": "uint64",
          "name": "",
          "type": "uint64"
        }
      ],
      "stateMutability": "view",
      "type": "function"
    },
    {
      "inputs": [],
      "name": "getForcedBatchFee",
      "outputs": [
        {
          "internalType": "uint256",
          "name": "",
          "type": "uint256"
        }
      ],
      "stateMutability": "view",
      "type": "function"
    },
    {
      "inputs": [
        {
          "internalType": "uint64",
          "name": "initNumBatch",
          "type": "uint64"
        },
        {
          "internalType": "uint64",
          "name": "finalNewBatch",
          "type": "uint64"
        },
        {
          "internalType": "bytes32",
          "name": "newLocalExitRoot",
          "type": "bytes32"
        },
        {
          "internalType": "bytes32",
          "name": "oldStateRoot",
          "type": "bytes32"
        },
        {
          "internalType": "bytes32",
          "name": "newStateRoot",
          "type": "bytes32"
        }
      ],
      "name": "getInputSnarkBytes",
      "outputs": [
        {
          "internalType": "bytes",
          "name": "",
          "type": "bytes"
        }
      ],
      "stateMutability": "view",
      "type": "function"
    },
    {
      "inputs": [],
      "name": "getLastVerifiedBatch",
      "outputs": [
        {
          "internalType": "uint64",
          "name": "",
          "type": "uint64"
        }
      ],
      "stateMutability": "view",
      "type": "function"
    },
    {
      "inputs": [
        {
          "internalType": "uint64",
          "name": "pendingStateNum",
          "type": "uint64"
        },
        {
          "internalType": "uint64",
          "name": "initNumBatch",
          "type": "uint64"
        },
        {
          "internalType": "uint64",
          "name": "finalNewBatch",
          "type": "uint64"
        },
        {
          "internalType": "bytes32",
          "name": "newLocalExitRoot",
          "type": "bytes32"
        },
        {
          "internalType": "bytes32",
          "name": "newStateRoot",
          "type": "bytes32"
        }
      ],
      "name": "getNextSnarkInput",
      "outputs": [
        {
          "internalType": "uint256",
          "name": "",
          "type": "uint256"
        }
      ],
      "stateMutability": "view",
      "type": "function"
    },
    {
      "inputs": [],
      "name": "globalExitRootManager",
      "outputs": [
        {
          "internalType": "contract IPolygonZkEVMGlobalExitRoot",
          "name": "",
          "type": "address"
        }
      ],
      "stateMutability": "view",
      "type": "function"
    },
    {
      "inputs": [
        {
          "components": [
            {
              "internalType": "address",
              "name": "admin",
              "type": "address"
            },
            {
              "internalType": "address",
              "name": "trustedSequencer",
              "type": "address"
            },
            {
              "internalType": "uint64",
              "name": "pendingStateTimeout",
              "type": "uint64"
            },
            {
              "internalType": "address",
              "name": "trustedAggregator",
              "type": "address"
            },
            {
              "internalType": "uint64",
              "name": "trustedAggregatorTimeout",
              "type": "uint64"
            }
          ],
          "internalType": "struct PolygonZkEVM.InitializePackedParameters",
          "name": "initializePackedParameters",
          "type": "tuple"
        },
        {
          "internalType": "bytes32",
          "name": "genesisRoot",
          "type": "bytes32"
        },
        {
          "internalType": "string",
          "name": "_trustedSequencerURL",
          "type": "string"
        },
        {
          "internalType": "string",
          "name": "_networkName",
          "type": "string"
        },
        {
          "internalType": "string",
          "name": "_version",
          "type": "string"
        }
      ],
      "name": "initialize",
      "outputs": [],
      "stateMutability": "nonpayable",
      "type": "function"
    },
    {
      "inputs": [],
      "name": "isEmergencyState",
      "outputs": [
        {
          "internalType": "bool",
          "name": "",
          "type": "bool"
        }
      ],
      "stateMutability": "view",
      "type": "function"
    },
    {
      "inputs": [],
      "name": "isForcedBatchDisallowed",
      "outputs": [
        {
          "internalType": "bool",
          "name": "",
          "type": "bool"
        }
      ],
      "stateMutability": "view",
      "type": "function"
    },
    {
      "inputs": [
        {
          "internalType": "uint64",
          "name": "pendingStateNum",
          "type": "uint64"
        }
      ],
      "name": "isPendingStateConsolidable",
      "outputs": [
        {
          "internalType": "bool",
          "name": "",
          "type": "bool"
        }
      ],
      "stateMutability": "view",
      "type": "function"
    },
    {
      "inputs": [],
      "name": "lastBatchSequenced",
      "outputs": [
        {
          "internalType": "uint64",
          "name": "",
          "type": "uint64"
        }
      ],
      "stateMutability": "view",
      "type": "function"
    },
    {
      "inputs": [],
      "name": "lastForceBatch",
      "outputs": [
        {
          "internalType": "uint64",
          "name": "",
          "type": "uint64"
        }
      ],
      "stateMutability": "view",
      "type": "function"
    },
    {
      "inputs": [],
      "name": "lastForceBatchSequenced",
      "outputs": [
        {
          "internalType": "uint64",
          "name": "",
          "type": "uint64"
        }
      ],
      "stateMutability": "view",
      "type": "function"
    },
    {
      "inputs": [],
      "name": "lastPendingState",
      "outputs": [
        {
          "internalType": "uint64",
          "name": "",
          "type": "uint64"
        }
      ],
      "stateMutability": "view",
      "type": "function"
    },
    {
      "inputs": [],
      "name": "lastPendingStateConsolidated",
      "outputs": [
        {
          "internalType": "uint64",
          "name": "",
          "type": "uint64"
        }
      ],
      "stateMutability": "view",
      "type": "function"
    },
    {
      "inputs": [],
      "name": "lastVerifiedBatch",
      "outputs": [
        {
          "internalType": "uint64",
          "name": "",
          "type": "uint64"
        }
      ],
      "stateMutability": "view",
      "type": "function"
    },
    {
      "inputs": [],
      "name": "matic",
      "outputs": [
        {
          "internalType": "contract IERC20Upgradeable",
          "name": "",
          "type": "address"
        }
      ],
      "stateMutability": "view",
      "type": "function"
    },
    {
      "inputs": [],
      "name": "multiplierBatchFee",
      "outputs": [
        {
          "internalType": "uint16",
          "name": "",
          "type": "uint16"
        }
      ],
      "stateMutability": "view",
      "type": "function"
    },
    {
      "inputs": [],
      "name": "networkName",
      "outputs": [
        {
          "internalType": "string",
          "name": "",
          "type": "string"
        }
      ],
      "stateMutability": "view",
      "type": "function"
    },
    {
      "inputs": [
        {
          "internalType": "uint64",
          "name": "initPendingStateNum",
          "type": "uint64"
        },
        {
          "internalType": "uint64",
          "name": "finalPendingStateNum",
          "type": "uint64"
        },
        {
          "internalType": "uint64",
          "name": "initNumBatch",
          "type": "uint64"
        },
        {
          "internalType": "uint64",
          "name": "finalNewBatch",
          "type": "uint64"
        },
        {
          "internalType": "bytes32",
          "name": "newLocalExitRoot",
          "type": "bytes32"
        },
        {
          "internalType": "bytes32",
          "name": "newStateRoot",
          "type": "bytes32"
        },
        {
          "internalType": "bytes",
          "name": "proof",
          "type": "bytes"
        }
      ],
      "name": "overridePendingState",
      "outputs": [],
      "stateMutability": "nonpayable",
      "type": "function"
    },
    {
      "inputs": [],
      "name": "owner",
      "outputs": [
        {
          "internalType": "address",
          "name": "",
          "type": "address"
        }
      ],
      "stateMutability": "view",
      "type": "function"
    },
    {
      "inputs": [],
      "name": "pendingAdmin",
      "outputs": [
        {
          "internalType": "address",
          "name": "",
          "type": "address"
        }
      ],
      "stateMutability": "view",
      "type": "function"
    },
    {
      "inputs": [],
      "name": "pendingStateTimeout",
      "outputs": [
        {
          "internalType": "uint64",
          "name": "",
          "type": "uint64"
        }
      ],
      "stateMutability": "view",
      "type": "function"
    },
    {
      "inputs": [
        {
          "internalType": "uint256",
          "name": "",
          "type": "uint256"
        }
      ],
      "name": "pendingStateTransitions",
      "outputs": [
        {
          "internalType": "uint64",
          "name": "timestamp",
          "type": "uint64"
        },
        {
          "internalType": "uint64",
          "name": "lastVerifiedBatch",
          "type": "uint64"
        },
        {
          "internalType": "bytes32",
          "name": "exitRoot",
          "type": "bytes32"
        },
        {
          "internalType": "bytes32",
          "name": "stateRoot",
          "type": "bytes32"
        }
      ],
      "stateMutability": "view",
      "type": "function"
    },
    {
      "inputs": [
        {
          "internalType": "uint64",
          "name": "initPendingStateNum",
          "type": "uint64"
        },
        {
          "internalType": "uint64",
          "name": "finalPendingStateNum",
          "type": "uint64"
        },
        {
          "internalType": "uint64",
          "name": "initNumBatch",
          "type": "uint64"
        },
        {
          "internalType": "uint64",
          "name": "finalNewBatch",
          "type": "uint64"
        },
        {
          "internalType": "bytes32",
          "name": "newLocalExitRoot",
          "type": "bytes32"
        },
        {
          "internalType": "bytes32",
          "name": "newStateRoot",
          "type": "bytes32"
        },
        {
          "internalType": "bytes",
          "name": "proof",
          "type": "bytes"
        }
      ],
      "name": "proveNonDeterministicPendingState",
      "outputs": [],
      "stateMutability": "nonpayable",
      "type": "function"
    },
    {
      "inputs": [],
      "name": "renounceOwnership",
      "outputs": [],
      "stateMutability": "nonpayable",
      "type": "function"
    },
    {
      "inputs": [],
      "name": "rollupVerifier",
      "outputs": [
        {
          "internalType": "contract IVerifierRollup",
          "name": "",
          "type": "address"
        }
      ],
      "stateMutability": "view",
      "type": "function"
    },
    {
      "inputs": [
        {
          "components": [
            {
              "internalType": "bytes",
              "name": "transactions",
              "type": "bytes"
            },
            {
              "internalType": "bytes32",
              "name": "forcedHistoricGlobalExitRoot",
              "type": "bytes32"
            },
            {
              "internalType": "uint64",
              "name": "minForcedTimestamp",
              "type": "uint64"
            }
          ],
          "internalType": "struct PolygonZkEVM.BatchData[]",
          "name": "batches",
          "type": "tuple[]"
        },
        {
          "internalType": "address",
          "name": "l2Coinbase",
          "type": "address"
        }
      ],
      "name": "sequenceBatches",
      "outputs": [],
      "stateMutability": "nonpayable",
      "type": "function"
    },
    {
      "inputs": [
        {
          "components": [
            {
              "internalType": "bytes",
              "name": "transactions",
              "type": "bytes"
            },
            {
              "internalType": "bytes32",
              "name": "forcedHistoricGlobalExitRoot",
              "type": "bytes32"
            },
            {
              "internalType": "uint64",
              "name": "minForcedTimestamp",
              "type": "uint64"
            }
          ],
          "internalType": "struct PolygonZkEVM.BatchData[]",
          "name": "batches",
          "type": "tuple[]"
        }
      ],
      "name": "sequenceForceBatches",
      "outputs": [],
      "stateMutability": "nonpayable",
      "type": "function"
    },
    {
      "inputs": [
        {
          "internalType": "uint64",
          "name": "",
          "type": "uint64"
        }
      ],
      "name": "sequencedBatches",
      "outputs": [
        {
          "internalType": "bytes32",
          "name": "accInputHash",
          "type": "bytes32"
        },
        {
          "internalType": "uint64",
          "name": "sequencedTimestamp",
          "type": "uint64"
        },
        {
          "internalType": "uint64",
          "name": "previousLastBatchSequenced",
          "type": "uint64"
        }
      ],
      "stateMutability": "view",
      "type": "function"
    },
    {
      "inputs": [
        {
          "internalType": "uint64",
          "name": "newforceBatchTimeout",
          "type": "uint64"
        }
      ],
      "name": "setForceBatchTimeout",
      "outputs": [],
      "stateMutability": "nonpayable",
      "type": "function"
    },
    {
      "inputs": [
        {
          "internalType": "uint16",
          "name": "newMultiplierBatchFee",
          "type": "uint16"
        }
      ],
      "name": "setMultiplierBatchFee",
      "outputs": [],
      "stateMutability": "nonpayable",
      "type": "function"
    },
    {
      "inputs": [
        {
          "internalType": "string",
          "name": "_networkName",
          "type": "string"
        }
      ],
      "name": "setNetworkName",
      "outputs": [],
      "stateMutability": "nonpayable",
      "type": "function"
    },
    {
      "inputs": [
        {
          "internalType": "uint64",
          "name": "newPendingStateTimeout",
          "type": "uint64"
        }
      ],
      "name": "setPendingStateTimeout",
      "outputs": [],
      "stateMutability": "nonpayable",
      "type": "function"
    },
    {
      "inputs": [
        {
          "internalType": "uint64",
          "name": "_numBatch",
          "type": "uint64"
        }
      ],
      "name": "setSequencedBatch",
      "outputs": [],
      "stateMutability": "nonpayable",
      "type": "function"
    },
    {
      "inputs": [
        {
          "internalType": "uint64",
          "name": "batchNum",
          "type": "uint64"
        },
        {
          "internalType": "bytes32",
          "name": "accInputData",
          "type": "bytes32"
        },
        {
          "internalType": "uint64",
          "name": "timestamp",
          "type": "uint64"
        },
        {
          "internalType": "uint64",
          "name": "lastPendingStateConsolidated",
          "type": "uint64"
        }
      ],
      "name": "setSequencedBatches",
      "outputs": [],
      "stateMutability": "nonpayable",
      "type": "function"
    },
    {
      "inputs": [
        {
          "internalType": "bytes32",
          "name": "newStateRoot",
          "type": "bytes32"
        },
        {
          "internalType": "uint64",
          "name": "batchNum",
          "type": "uint64"
        }
      ],
      "name": "setStateRoot",
      "outputs": [],
      "stateMutability": "nonpayable",
      "type": "function"
    },
    {
      "inputs": [
        {
          "internalType": "address",
          "name": "newTrustedAggregator",
          "type": "address"
        }
      ],
      "name": "setTrustedAggregator",
      "outputs": [],
      "stateMutability": "nonpayable",
      "type": "function"
    },
    {
      "inputs": [
        {
          "internalType": "uint64",
          "name": "newTrustedAggregatorTimeout",
          "type": "uint64"
        }
      ],
      "name": "setTrustedAggregatorTimeout",
      "outputs": [],
      "stateMutability": "nonpayable",
      "type": "function"
    },
    {
      "inputs": [
        {
          "internalType": "address",
          "name": "newTrustedSequencer",
          "type": "address"
        }
      ],
      "name": "setTrustedSequencer",
      "outputs": [],
      "stateMutability": "nonpayable",
      "type": "function"
    },
    {
      "inputs": [
        {
          "internalType": "string",
          "name": "newTrustedSequencerURL",
          "type": "string"
        }
      ],
      "name": "setTrustedSequencerURL",
      "outputs": [],
      "stateMutability": "nonpayable",
      "type": "function"
    },
    {
      "inputs": [
        {
          "internalType": "uint64",
          "name": "_numBatch",
          "type": "uint64"
        }
      ],
      "name": "setVerifiedBatch",
      "outputs": [],
      "stateMutability": "nonpayable",
      "type": "function"
    },
    {
      "inputs": [
        {
          "internalType": "uint64",
          "name": "newVerifyBatchTimeTarget",
          "type": "uint64"
        }
      ],
      "name": "setVerifyBatchTimeTarget",
      "outputs": [],
      "stateMutability": "nonpayable",
      "type": "function"
    },
    {
      "inputs": [
        {
          "internalType": "address",
          "name": "newPendingAdmin",
          "type": "address"
        }
      ],
      "name": "transferAdminRole",
      "outputs": [],
      "stateMutability": "nonpayable",
      "type": "function"
    },
    {
      "inputs": [
        {
          "internalType": "address",
          "name": "newOwner",
          "type": "address"
        }
      ],
      "name": "transferOwnership",
      "outputs": [],
      "stateMutability": "nonpayable",
      "type": "function"
    },
    {
      "inputs": [],
      "name": "trustedAggregator",
      "outputs": [
        {
          "internalType": "address",
          "name": "",
          "type": "address"
        }
      ],
      "stateMutability": "view",
      "type": "function"
    },
    {
      "inputs": [],
      "name": "trustedAggregatorTimeout",
      "outputs": [
        {
          "internalType": "uint64",
          "name": "",
          "type": "uint64"
        }
      ],
      "stateMutability": "view",
      "type": "function"
    },
    {
      "inputs": [],
      "name": "trustedSequencer",
      "outputs": [
        {
          "internalType": "address",
          "name": "",
          "type": "address"
        }
      ],
      "stateMutability": "view",
      "type": "function"
    },
    {
      "inputs": [],
      "name": "trustedSequencerURL",
      "outputs": [
        {
          "internalType": "string",
          "name": "",
          "type": "string"
        }
      ],
      "stateMutability": "view",
      "type": "function"
    },
    {
      "inputs": [
        {
          "internalType": "uint64",
          "name": "pendingStateNum",
          "type": "uint64"
        },
        {
          "internalType": "uint64",
          "name": "initNumBatch",
          "type": "uint64"
        },
        {
          "internalType": "uint64",
          "name": "finalNewBatch",
          "type": "uint64"
        },
        {
          "internalType": "bytes32",
          "name": "newLocalExitRoot",
          "type": "bytes32"
        },
        {
          "internalType": "bytes32",
          "name": "newStateRoot",
          "type": "bytes32"
        },
        {
          "internalType": "uint256[2]",
          "name": "proofA",
          "type": "uint256[2]"
        },
        {
          "internalType": "uint256[2][2]",
          "name": "proofB",
          "type": "uint256[2][2]"
        },
        {
          "internalType": "uint256[2]",
          "name": "proofC",
          "type": "uint256[2]"
        }
      ],
      "name": "trustedVerifyBatchesMock",
      "outputs": [],
      "stateMutability": "nonpayable",
      "type": "function"
    },
    {
      "inputs": [
        {
          "internalType": "uint64",
          "name": "newLastVerifiedBatch",
          "type": "uint64"
        }
      ],
      "name": "updateBatchFee",
      "outputs": [],
      "stateMutability": "nonpayable",
      "type": "function"
    },
    {
      "inputs": [],
      "name": "verifyBatchTimeTarget",
      "outputs": [
        {
          "internalType": "uint64",
          "name": "",
          "type": "uint64"
        }
      ],
      "stateMutability": "view",
      "type": "function"
    },
    {
      "inputs": [
        {
          "internalType": "uint64",
          "name": "pendingStateNum",
          "type": "uint64"
        },
        {
          "internalType": "uint64",
          "name": "initNumBatch",
          "type": "uint64"
        },
        {
          "internalType": "uint64",
          "name": "finalNewBatch",
          "type": "uint64"
        },
        {
          "internalType": "bytes32",
          "name": "newLocalExitRoot",
          "type": "bytes32"
        },
        {
          "internalType": "bytes32",
          "name": "newStateRoot",
          "type": "bytes32"
        },
        {
          "internalType": "bytes",
          "name": "proof",
          "type": "bytes"
        }
      ],
      "name": "verifyBatches",
      "outputs": [],
      "stateMutability": "nonpayable",
      "type": "function"
    },
    {
      "inputs": [
        {
          "internalType": "uint64",
          "name": "pendingStateNum",
          "type": "uint64"
        },
        {
          "internalType": "uint64",
          "name": "initNumBatch",
          "type": "uint64"
        },
        {
          "internalType": "uint64",
          "name": "finalNewBatch",
          "type": "uint64"
        },
        {
          "internalType": "bytes32",
          "name": "newLocalExitRoot",
          "type": "bytes32"
        },
        {
          "internalType": "bytes32",
          "name": "newStateRoot",
          "type": "bytes32"
        },
        {
          "internalType": "bytes",
          "name": "proof",
          "type": "bytes"
        }
      ],
      "name": "verifyBatchesTrustedAggregator",
      "outputs": [],
      "stateMutability": "nonpayable",
      "type": "function"
    }
  ],
  "bytecode": "0x6101406040523480156200001257600080fd5b5060405162006fcd38038062006fcd8339810160408190526200003591620000a5565b6001600160a01b0395861660c05293851660805291841660a05290921660e0526001600160401b0391821661010052166101205262000131565b6001600160a01b03811681146200008557600080fd5b50565b80516001600160401b0381168114620000a057600080fd5b919050565b60008060008060008060c08789031215620000bf57600080fd5b8651620000cc816200006f565b6020880151909650620000df816200006f565b6040880151909550620000f2816200006f565b606088015190945062000105816200006f565b9250620001156080880162000088565b91506200012560a0880162000088565b90509295509295509295565b60805160a05160c05160e0516101005161012051616dc7620002066000396000818161076901528181611b450152613c860152600081816109a70152611b1b01526000818161095a0152818161303a015281816143210152615030015260008181610b4c015281816117f5015281816121b901528181612d15015281816130bc0152818161454e015281816147a90152615281015260008181610c1f01528181614f1d01526155ed015260008181610a760152818161281d015281816136780152818161477d01526156dc0152616dc76000f3fe608060405234801561001057600080fd5b506004361061048d5760003560e01c806396dc3d391161026b578063c89e42df11610150578063e7a7ed02116100c8578063f14916d611610097578063f851a4401161007c578063f851a44014610ca7578063f8b823e414610cc7578063fe16564f14610cd057600080fd5b8063f14916d614610c81578063f2fde38b14610c9457600080fd5b8063e7a7ed0214610bea578063e8bf92ed14610c1a578063eaeb077b14610c41578063ed6b010414610c5457600080fd5b8063d8d1091b1161011f578063dbc1697611610104578063dbc1697614610bbc578063e0d1744114610bc4578063e6ad707e14610bd757600080fd5b8063d8d1091b14610b81578063d939b31514610b9457600080fd5b8063c89e42df14610b05578063cfa8ed4714610b18578063d02103ca14610b47578063d2e129f914610b6e57600080fd5b8063afd23cbe116101e3578063ba58ae39116101b2578063c0cad30211610197578063c0cad30214610abe578063c0ed84e014610ad1578063c754c7ed14610ad957600080fd5b8063ba58ae3914610a98578063c00e0dc914610aab57600080fd5b8063afd23cbe146109c9578063b4d63f58146109f7578063b4f77ea914610a5e578063b6b0b09714610a7157600080fd5b8063a066215c1161023a578063a50a164b1161021f578063a50a164b1461097c578063ada8f9191461098f578063adc879e9146109a257600080fd5b8063a066215c14610942578063a3c573eb1461095557600080fd5b806396dc3d391461090157806399f5634e146109145780639b7967601461091c5780639c9f3dfe1461092f57600080fd5b80634a910e6a11610391578063715018a611610309578063837a4738116102d85780638449a79c116102bd5780638449a79c146108305780638c3d7301146108db5780638da5cb5b146108e357600080fd5b8063837a47381461078b578063841b24d71461080057600080fd5b8063715018a6146107355780637215541a1461073d5780637fcb365314610750578063831c7ead1461076457600080fd5b8063542028d511610360578063604691691161034557806360469169146106fa5780636b8616ce146107025780636ff512cc1461072257600080fd5b8063542028d5146106ea5780635ec91958146106f257600080fd5b80634a910e6a146106915780634e487706146106a45780634fd70464146106b75780635392c5e0146106ca57600080fd5b80632678224711610424578063394218e9116103f357806345605267116103d85780634560526714610635578063458c04771461065d5780634a1a89a71461067157600080fd5b8063394218e914610602578063423fa8561461061557600080fd5b8063267822471461056a57806329878983146105af5780632a9f208f146105db578063383b3be8146105ef57600080fd5b806310a01a721161046057806310a01a721461051457806315064c96146105275780631816b7e514610544578063220d78991461055757600080fd5b80630808270c146104925780630a0d9fbe146104a75780630eaa86ea146104de578063107bf28c146104ff575b600080fd5b6104a56104a0366004616082565b610ce3565b005b606f546104c090610100900467ffffffffffffffff1681565b60405167ffffffffffffffff90911681526020015b60405180910390f35b6104f16104ec36600461611b565b610d96565b6040519081526020016104d5565b61050761126e565b6040516104d591906161de565b6104a561052236600461620f565b6112fc565b606f546105349060ff1681565b60405190151581526020016104d5565b6104a56105523660046162a2565b6118b4565b6105076105653660046162c6565b6119cc565b607b5461058a9073ffffffffffffffffffffffffffffffffffffffff1681565b60405173ffffffffffffffffffffffffffffffffffffffff90911681526020016104d5565b60745461058a9068010000000000000000900473ffffffffffffffffffffffffffffffffffffffff1681565b6073546104c09067ffffffffffffffff1681565b6105346105fd366004616313565b611ba3565b6104a5610610366004616313565b611bf9565b6073546104c09068010000000000000000900467ffffffffffffffff1681565b6073546104c090700100000000000000000000000000000000900467ffffffffffffffff1681565b6079546104c09067ffffffffffffffff1681565b6079546104c09068010000000000000000900467ffffffffffffffff1681565b6104a561069f366004616313565b611d7d565b6104a56106b2366004616313565b611e30565b6104a56106c536600461632e565b611fb4565b6104f16106d8366004616313565b60756020526000908152604090205481565b61050761234a565b6104a5612357565b6104f1612457565b6104f1610710366004616313565b60716020526000908152604090205481565b6104a56107303660046163db565b61246d565b6104a5612542565b6104a561074b366004616313565b612556565b6074546104c09067ffffffffffffffff1681565b6104c07f000000000000000000000000000000000000000000000000000000000000000081565b6107d46107993660046163f6565b60786020526000908152604090208054600182015460029092015467ffffffffffffffff808316936801000000000000000090930416919084565b6040805167ffffffffffffffff95861681529490931660208501529183015260608201526080016104d5565b6079546104c0907801000000000000000000000000000000000000000000000000900467ffffffffffffffff1681565b6104f161083e3660046164f7565b845160209586012060408051808801989098528781019190915260608088019590955260c09390931b7fffffffffffffffff000000000000000000000000000000000000000000000000166080870152921b7fffffffffffffffffffffffffffffffffffffffff00000000000000000000000016608885015290151560f81b609c8401528051808403607d018152609d9093019052815191012090565b6104a56126c6565b60335473ffffffffffffffffffffffffffffffffffffffff1661058a565b6104a561090f366004616313565b612792565b6104f16127d5565b6104a561092a366004616313565b61292e565b6104a561093d366004616313565b61297d565b6104a5610950366004616313565b612af9565b61058a7f000000000000000000000000000000000000000000000000000000000000000081565b6104a561098a36600461632e565b612bff565b6104a561099d3660046163db565b612dc4565b6104c07f000000000000000000000000000000000000000000000000000000000000000081565b606f546109e4906901000000000000000000900461ffff1681565b60405161ffff90911681526020016104d5565b610a38610a05366004616313565b6072602052600090815260409020805460019091015467ffffffffffffffff808216916801000000000000000090041683565b6040805193845267ffffffffffffffff92831660208501529116908201526060016104d5565b6104a5610a6c366004616313565b612e88565b61058a7f000000000000000000000000000000000000000000000000000000000000000081565b610534610aa63660046163f6565b612e99565b6104a5610ab93660046165c1565b612f23565b6104a5610acc366004616615565b6136ea565b6104c0613702565b607b546104c09074010000000000000000000000000000000000000000900467ffffffffffffffff1681565b6104a5610b13366004616615565b613757565b606f5461058a906b010000000000000000000000900473ffffffffffffffffffffffffffffffffffffffff1681565b61058a7f000000000000000000000000000000000000000000000000000000000000000081565b6104a5610b7c36600461664a565b6137e4565b6104a5610b8f3660046166fd565b613d2b565b6079546104c090700100000000000000000000000000000000900467ffffffffffffffff1681565b6104a56142ce565b6104a5610bd236600461673f565b6143a7565b6104a5610be5366004616082565b614437565b6073546104c0907801000000000000000000000000000000000000000000000000900467ffffffffffffffff1681565b61058a7f000000000000000000000000000000000000000000000000000000000000000081565b6104a5610c4f36600461678c565b614647565b607b54610534907c0100000000000000000000000000000000000000000000000000000000900460ff1681565b6104a5610c8f3660046163db565b614a3d565b6104a5610ca23660046163db565b614b0f565b607a5461058a9073ffffffffffffffffffffffffffffffffffffffff1681565b6104f160705481565b6104a5610cde3660046167d8565b614bc3565b606f5460ff1615610d20576040517f2f0047fc00000000000000000000000000000000000000000000000000000000815260040160405180910390fd5b610d308888888888888888614be6565b67ffffffffffffffff85166000908152607560209081526040918290205482519081529081018590527f1f44c21118c4603cfb4e1b621dbcfa2b73efcececee2b99b620b2953d33a7010910160405180910390a1610d8c61502e565b5050505050505050565b6000806000610da3613702565b905067ffffffffffffffff881615610f705760795467ffffffffffffffff9081169089161115610e80576040517f08c379a000000000000000000000000000000000000000000000000000000000815260206004820152605860248201527f506f6c79676f6e5a6b45564d3a3a766572696679426174636865733a2070656e60448201527f64696e6753746174654e756d206d757374206265206c657373206f722065717560648201527f616c207468616e206c61737450656e64696e6753746174650000000000000000608482015260a4015b60405180910390fd5b67ffffffffffffffff8089166000908152607860205260409020600281015481549094509091898116680100000000000000009092041614610f6a576040517f08c379a000000000000000000000000000000000000000000000000000000000815260206004820152604c60248201527f506f6c79676f6e5a6b45564d3a3a766572696679426174636865733a20696e6960448201527f744e756d4261746368206d757374206d61746368207468652070656e64696e6760648201527f2073746174652062617463680000000000000000000000000000000000000000608482015260a401610e77565b50611109565b67ffffffffffffffff871660009081526075602052604090205491508161103f576040517f08c379a000000000000000000000000000000000000000000000000000000000815260206004820152604360248201527f506f6c79676f6e5a6b45564d3a3a766572696679426174636865733a20696e6960448201527f744e756d426174636820737461746520726f6f7420646f6573206e6f7420657860648201527f6973740000000000000000000000000000000000000000000000000000000000608482015260a401610e77565b8067ffffffffffffffff168767ffffffffffffffff161115611109576040517f08c379a000000000000000000000000000000000000000000000000000000000815260206004820152605d60248201527f506f6c79676f6e5a6b45564d3a3a766572696679426174636865733a20696e6960448201527f744e756d4261746368206d757374206265206c657373206f7220657175616c2060648201527f7468616e2063757272656e744c61737456657269666965644261746368000000608482015260a401610e77565b8067ffffffffffffffff168667ffffffffffffffff16116111d2576040517f08c379a000000000000000000000000000000000000000000000000000000000815260206004820152605760248201527f506f6c79676f6e5a6b45564d3a3a766572696679426174636865733a2066696e60448201527f616c4e65774261746368206d75737420626520626967676572207468616e206360648201527f757272656e744c61737456657269666965644261746368000000000000000000608482015260a401610e77565b60006111e188888886896119cc565b905060007f30644e72e131a029b85045b68181585d2833e84879b9709143e1f593f00000016002836040516112169190616804565b602060405180830381855afa158015611233573d6000803e3d6000fd5b5050506040513d601f19601f820116820180604052508101906112569190616820565b6112609190616868565b9a9950505050505050505050565b6077805461127b9061687c565b80601f01602080910402602001604051908101604052809291908181526020018280546112a79061687c565b80156112f45780601f106112c9576101008083540402835291602001916112f4565b820191906000526020600020905b8154815290600101906020018083116112d757829003601f168201915b505050505081565b6113046150b6565b60008061130f613702565b905067ffffffffffffffff8a16156114d75760795467ffffffffffffffff908116908b1611156113e7576040517f08c379a000000000000000000000000000000000000000000000000000000000815260206004820152605860248201527f506f6c79676f6e5a6b45564d3a3a766572696679426174636865733a2070656e60448201527f64696e6753746174654e756d206d757374206265206c657373206f722065717560648201527f616c207468616e206c61737450656e64696e6753746174650000000000000000608482015260a401610e77565b67ffffffffffffffff808b1660009081526078602052604090206002810154815490945090918b81166801000000000000000090920416146114d1576040517f08c379a000000000000000000000000000000000000000000000000000000000815260206004820152604c60248201527f506f6c79676f6e5a6b45564d3a3a766572696679426174636865733a20696e6960448201527f744e756d4261746368206d757374206d61746368207468652070656e64696e6760648201527f2073746174652062617463680000000000000000000000000000000000000000608482015260a401610e77565b50611670565b67ffffffffffffffff89166000908152607560205260409020549150816115a6576040517f08c379a000000000000000000000000000000000000000000000000000000000815260206004820152604360248201527f506f6c79676f6e5a6b45564d3a3a766572696679426174636865733a20696e6960448201527f744e756d426174636820737461746520726f6f7420646f6573206e6f7420657860648201527f6973740000000000000000000000000000000000000000000000000000000000608482015260a401610e77565b8067ffffffffffffffff168967ffffffffffffffff161115611670576040517f08c379a000000000000000000000000000000000000000000000000000000000815260206004820152605d60248201527f506f6c79676f6e5a6b45564d3a3a766572696679426174636865733a20696e6960448201527f744e756d4261746368206d757374206265206c657373206f7220657175616c2060648201527f7468616e2063757272656e744c61737456657269666965644261746368000000608482015260a401610e77565b8067ffffffffffffffff168867ffffffffffffffff1611611739576040517f08c379a000000000000000000000000000000000000000000000000000000000815260206004820152605760248201527f506f6c79676f6e5a6b45564d3a3a766572696679426174636865733a2066696e60448201527f616c4e65774261746368206d75737420626520626967676572207468616e206360648201527f757272656e744c61737456657269666965644261746368000000000000000000608482015260a401610e77565b60006117488a8a8a868b6119cc565b607480547fffffffffffffffffffffffffffffffffffffffffffffffff00000000000000001667ffffffffffffffff8c8116918217909255600090815260756020526040902089905560795491925016156117c657607980547fffffffffffffffffffffffffffffffff000000000000000000000000000000001690555b6040517f33d6247d000000000000000000000000000000000000000000000000000000008152600481018990527f000000000000000000000000000000000000000000000000000000000000000073ffffffffffffffffffffffffffffffffffffffff16906333d6247d90602401600060405180830381600087803b15801561184e57600080fd5b505af1158015611862573d6000803e3d6000fd5b505060405189815233925067ffffffffffffffff8c1691507fcb339b570a7f0b25afa7333371ff11192092a0aeace12b671f4c212f2815c6fe9060200160405180910390a35050505050505050505050565b607a5473ffffffffffffffffffffffffffffffffffffffff163314611905576040517f4755657900000000000000000000000000000000000000000000000000000000815260040160405180910390fd5b6103e88161ffff16108061191e57506103ff8161ffff16115b15611955576040517f4c2533c800000000000000000000000000000000000000000000000000000000815260040160405180910390fd5b606f80547fffffffffffffffffffffffffffffffffffffffffff0000ffffffffffffffffff16690100000000000000000061ffff8416908102919091179091556040519081527f7019933d795eba185c180209e8ae8bffbaa25bcef293364687702c31f4d302c5906020015b60405180910390a150565b67ffffffffffffffff8086166000818152607260205260408082205493881682529020546060929115801590611a00575081155b15611a37576040517f6818c29e00000000000000000000000000000000000000000000000000000000815260040160405180910390fd5b80611a6e576040517f66385b5100000000000000000000000000000000000000000000000000000000815260040160405180910390fd5b611a7784612e99565b611aad576040517f176b913c00000000000000000000000000000000000000000000000000000000815260040160405180910390fd5b604080517fffffffffffffffffffffffffffffffffffffffff0000000000000000000000003360601b166020820152603481019690965260548601929092527fffffffffffffffff00000000000000000000000000000000000000000000000060c098891b811660748701527f0000000000000000000000000000000000000000000000000000000000000000891b8116607c8701527f0000000000000000000000000000000000000000000000000000000000000000891b81166084870152608c86019490945260ac85015260cc840194909452509290931b90911660ec830152805180830360d401815260f4909201905290565b60795467ffffffffffffffff82811660009081526078602052604081205490924292611be792700100000000000000000000000000000000909204811691166168fe565b67ffffffffffffffff16111592915050565b607a5473ffffffffffffffffffffffffffffffffffffffff163314611c4a576040517f4755657900000000000000000000000000000000000000000000000000000000815260040160405180910390fd5b62093a8067ffffffffffffffff82161115611c91576040517f1d06e87900000000000000000000000000000000000000000000000000000000815260040160405180910390fd5b606f5460ff16611d005760795467ffffffffffffffff7801000000000000000000000000000000000000000000000000909104811690821610611d00576040517f401636df00000000000000000000000000000000000000000000000000000000815260040160405180910390fd5b6079805477ffffffffffffffffffffffffffffffffffffffffffffffff16780100000000000000000000000000000000000000000000000067ffffffffffffffff8416908102919091179091556040519081527f1f4fa24c2e4bad19a7f3ec5c5485f70d46c798461c2e684f55bbd0fc661373a1906020016119c1565b60745468010000000000000000900473ffffffffffffffffffffffffffffffffffffffff163314611e2457606f5460ff1615611de5576040517f2f0047fc00000000000000000000000000000000000000000000000000000000815260040160405180910390fd5b611dee81611ba3565b611e24576040517f0ce9e4a200000000000000000000000000000000000000000000000000000000815260040160405180910390fd5b611e2d81615137565b50565b607a5473ffffffffffffffffffffffffffffffffffffffff163314611e81576040517f4755657900000000000000000000000000000000000000000000000000000000815260040160405180910390fd5b62093a8067ffffffffffffffff82161115611ec8576040517ff5e37f2f00000000000000000000000000000000000000000000000000000000815260040160405180910390fd5b606f5460ff16611f3357607b5467ffffffffffffffff74010000000000000000000000000000000000000000909104811690821610611f33576040517ff5e37f2f00000000000000000000000000000000000000000000000000000000815260040160405180910390fd5b607b80547fffffffff0000000000000000ffffffffffffffffffffffffffffffffffffffff167401000000000000000000000000000000000000000067ffffffffffffffff8416908102919091179091556040519081527fa7eb6cb8a613eb4e8bddc1ac3d61ec6cf10898760f0b187bcca794c6ca6fa40b906020016119c1565b606f5460ff1615611ff1576040517f2f0047fc00000000000000000000000000000000000000000000000000000000815260040160405180910390fd5b60795467ffffffffffffffff868116600090815260726020526040902060010154429261203e927801000000000000000000000000000000000000000000000000909104811691166168fe565b67ffffffffffffffff161115612080576040517f8a0704d300000000000000000000000000000000000000000000000000000000815260040160405180910390fd5b6103e861208d8787616926565b67ffffffffffffffff1611156120cf576040517fb59f753a00000000000000000000000000000000000000000000000000000000815260040160405180910390fd5b6120de8787878787878761534a565b6120e785615703565b607954700100000000000000000000000000000000900467ffffffffffffffff1660000361222f57607480547fffffffffffffffffffffffffffffffffffffffffffffffff00000000000000001667ffffffffffffffff8781169182179092556000908152607560205260409020849055607954161561218a57607980547fffffffffffffffffffffffffffffffff000000000000000000000000000000001690555b6040517f33d6247d000000000000000000000000000000000000000000000000000000008152600481018590527f000000000000000000000000000000000000000000000000000000000000000073ffffffffffffffffffffffffffffffffffffffff16906333d6247d90602401600060405180830381600087803b15801561221257600080fd5b505af1158015612226573d6000803e3d6000fd5b505050506122ff565b6122376158e3565b6079805467ffffffffffffffff1690600061225183616947565b825467ffffffffffffffff9182166101009390930a92830292820219169190911790915560408051608081018252428316815288831660208083019182528284018a8152606084018a815260795487166000908152607890935294909120925183549251861668010000000000000000027fffffffffffffffffffffffffffffffff000000000000000000000000000000009093169516949094171781559151600183015551600290910155505b604051838152339067ffffffffffffffff8716907f9c72852172521097ba7e1482e6b44b351323df0155f97f4ea18fcec28e1f5966906020015b60405180910390a350505050505050565b6076805461127b9061687c565b607a5473ffffffffffffffffffffffffffffffffffffffff1633146123a8576040517f4755657900000000000000000000000000000000000000000000000000000000815260040160405180910390fd5b607b547c0100000000000000000000000000000000000000000000000000000000900460ff16612404576040517ff6ba91a100000000000000000000000000000000000000000000000000000000815260040160405180910390fd5b607b80547fffffff00ffffffffffffffffffffffffffffffffffffffffffffffffffffffff1690556040517f854dd6ce5a1445c4c54388b21cffd11cf5bba1b9e763aec48ce3da75d617412f90600090a1565b60006070546064612468919061696e565b905090565b607a5473ffffffffffffffffffffffffffffffffffffffff1633146124be576040517f4755657900000000000000000000000000000000000000000000000000000000815260040160405180910390fd5b606f80547fff0000000000000000000000000000000000000000ffffffffffffffffffffff166b01000000000000000000000073ffffffffffffffffffffffffffffffffffffffff8416908102919091179091556040519081527ff54144f9611984021529f814a1cb6a41e22c58351510a0d9f7e822618abb9cc0906020016119c1565b61254a6150b6565b6125546000615990565b565b60335473ffffffffffffffffffffffffffffffffffffffff1633146126be57600061257f613702565b90508067ffffffffffffffff168267ffffffffffffffff16116125ce576040517f812a372d00000000000000000000000000000000000000000000000000000000815260040160405180910390fd5b60735467ffffffffffffffff6801000000000000000090910481169083161180612614575067ffffffffffffffff80831660009081526072602052604090206001015416155b1561264b576040517f98c5c01400000000000000000000000000000000000000000000000000000000815260040160405180910390fd5b67ffffffffffffffff808316600090815260726020526040902060010154429161267a9162093a8091166168fe565b67ffffffffffffffff1611156126bc576040517fd257555a00000000000000000000000000000000000000000000000000000000815260040160405180910390fd5b505b611e2d61502e565b607b5473ffffffffffffffffffffffffffffffffffffffff163314612717576040517fd1ec4b2300000000000000000000000000000000000000000000000000000000815260040160405180910390fd5b607b54607a80547fffffffffffffffffffffffff00000000000000000000000000000000000000001673ffffffffffffffffffffffffffffffffffffffff90921691821790556040519081527f056dc487bbf0795d0bbb1b4f0af523a855503cff740bfb4d5475f7a90c091e8e9060200160405180910390a1565b61279a6150b6565b607480547fffffffffffffffffffffffffffffffffffffffffffffffff00000000000000001667ffffffffffffffff92909216919091179055565b6040517f70a08231000000000000000000000000000000000000000000000000000000008152306004820152600090819073ffffffffffffffffffffffffffffffffffffffff7f000000000000000000000000000000000000000000000000000000000000000016906370a0823190602401602060405180830381865afa158015612864573d6000803e3d6000fd5b505050506040513d601f19601f820116820180604052508101906128889190616820565b90506000612894613702565b60735467ffffffffffffffff6801000000000000000082048116916128ec9170010000000000000000000000000000000082048116917801000000000000000000000000000000000000000000000000900416616926565b6128f691906168fe565b6129009190616926565b67ffffffffffffffff1690508060000361291d5760009250505090565b6129278183616985565b9250505090565b6129366150b6565b6073805467ffffffffffffffff90921668010000000000000000027fffffffffffffffffffffffffffffffff0000000000000000ffffffffffffffff909216919091179055565b607a5473ffffffffffffffffffffffffffffffffffffffff1633146129ce576040517f4755657900000000000000000000000000000000000000000000000000000000815260040160405180910390fd5b62093a8067ffffffffffffffff82161115612a15576040517fcc96507000000000000000000000000000000000000000000000000000000000815260040160405180910390fd5b606f5460ff16612a7c5760795467ffffffffffffffff700100000000000000000000000000000000909104811690821610612a7c576040517f48a05a9000000000000000000000000000000000000000000000000000000000815260040160405180910390fd5b607980547fffffffffffffffff0000000000000000ffffffffffffffffffffffffffffffff1670010000000000000000000000000000000067ffffffffffffffff8416908102919091179091556040519081527fc4121f4e22c69632ebb7cf1f462be0511dc034f999b52013eddfb24aab765c75906020016119c1565b607a5473ffffffffffffffffffffffffffffffffffffffff163314612b4a576040517f4755657900000000000000000000000000000000000000000000000000000000815260040160405180910390fd5b620151808167ffffffffffffffff161115612b91576040517fe067dfe800000000000000000000000000000000000000000000000000000000815260040160405180910390fd5b606f80547fffffffffffffffffffffffffffffffffffffffffffffff0000000000000000ff1661010067ffffffffffffffff8416908102919091179091556040519081527f1b023231a1ab6b5d93992f168fb44498e1a7e64cef58daff6f1c216de6a68c28906020016119c1565b60745468010000000000000000900473ffffffffffffffffffffffffffffffffffffffff163314612c5c576040517fbbcbbc0500000000000000000000000000000000000000000000000000000000815260040160405180910390fd5b612c6b8787878787878761534a565b607480547fffffffffffffffffffffffffffffffffffffffffffffffff00000000000000001667ffffffffffffffff87811691821790925560009081526075602052604090208490556079541615612ce657607980547fffffffffffffffffffffffffffffffff000000000000000000000000000000001690555b6040517f33d6247d000000000000000000000000000000000000000000000000000000008152600481018590527f000000000000000000000000000000000000000000000000000000000000000073ffffffffffffffffffffffffffffffffffffffff16906333d6247d90602401600060405180830381600087803b158015612d6e57600080fd5b505af1158015612d82573d6000803e3d6000fd5b505060405185815233925067ffffffffffffffff881691507fcb339b570a7f0b25afa7333371ff11192092a0aeace12b671f4c212f2815c6fe90602001612339565b607a5473ffffffffffffffffffffffffffffffffffffffff163314612e15576040517f4755657900000000000000000000000000000000000000000000000000000000815260040160405180910390fd5b607b80547fffffffffffffffffffffffff00000000000000000000000000000000000000001673ffffffffffffffffffffffffffffffffffffffff83169081179091556040519081527fa5b56b7906fd0a20e3f35120dd8343db1e12e037a6c90111c7e42885e82a1ce6906020016119c1565b612e906150b6565b611e2d81615703565b600067ffffffff0000000167ffffffffffffffff8316108015612ed1575067ffffffff00000001604083901c67ffffffffffffffff16105b8015612ef2575067ffffffff00000001608083901c67ffffffffffffffff16105b8015612f09575067ffffffff0000000160c083901c105b15612f1657506001919050565b506000919050565b919050565b606f5460ff1615612f60576040517f2f0047fc00000000000000000000000000000000000000000000000000000000815260040160405180910390fd5b606f546b010000000000000000000000900473ffffffffffffffffffffffffffffffffffffffff163314612fc0576040517f11e7be1500000000000000000000000000000000000000000000000000000000815260040160405180910390fd5b816000819003612ffc576040517fcb591a5f00000000000000000000000000000000000000000000000000000000815260040160405180910390fd5b6103e8811115613038576040517fb59f753a00000000000000000000000000000000000000000000000000000000815260040160405180910390fd5b7f000000000000000000000000000000000000000000000000000000000000000073ffffffffffffffffffffffffffffffffffffffff166379e2cf976040518163ffffffff1660e01b8152600401600060405180830381600087803b1580156130a057600080fd5b505af11580156130b4573d6000803e3d6000fd5b5050505060007f000000000000000000000000000000000000000000000000000000000000000073ffffffffffffffffffffffffffffffffffffffff16635ca1e1656040518163ffffffff1660e01b8152600401602060405180830381865afa158015613125573d6000803e3d6000fd5b505050506040513d601f19601f820116820180604052508101906131499190616820565b60735467ffffffffffffffff68010000000000000000820481166000818152607260205260408120549495504294919370010000000000000000000000000000000090049092169182905b878110156134a75760008b8b838181106131b0576131b0616999565b90506020028101906131c291906169c8565b6131cb906169fc565b8051805160209091012060408201519192509067ffffffffffffffff16156133c157856131f781616947565b9650506000818360200151846040015160405160200161324f93929190928352602083019190915260c01b7fffffffffffffffff00000000000000000000000000000000000000000000000016604082015260480190565b604080517fffffffffffffffffffffffffffffffffffffffffffffffffffffffffffffffe0818403018152918152815160209283012067ffffffffffffffff8a166000908152607190935291205490915081146132d8576040517fce3d755e00000000000000000000000000000000000000000000000000000000815260040160405180910390fd5b60208381015160408086015181519384018a905290830185905260608084019290925260c01b7fffffffffffffffff0000000000000000000000000000000000000000000000001660808301528d901b7fffffffffffffffffffffffffffffffffffffffff0000000000000000000000001660888201527f0100000000000000000000000000000000000000000000000000000000000000609c820152609d01604051602081830303815290604052805190602001209550607160008867ffffffffffffffff1667ffffffffffffffff1681526020019081526020016000206000905550613492565b8151516201d4c01015613400576040517fa29a6c7c00000000000000000000000000000000000000000000000000000000815260040160405180910390fd5b604080516020810187905290810182905260608082018b905260c08a901b7fffffffffffffffff0000000000000000000000000000000000000000000000001660808301528c901b7fffffffffffffffffffffffffffffffffffffffff0000000000000000000000001660888201526000609c820152609d016040516020818303038152906040528051906020012094505b5050808061349f90616a78565b915050613194565b506134b287856168fe565b60735490945067ffffffffffffffff78010000000000000000000000000000000000000000000000009091048116908416111561351b576040517fc630a00d00000000000000000000000000000000000000000000000000000000815260040160405180910390fd5b604080516060810182528381524267ffffffffffffffff908116602080840191825260738054680100000000000000009081900485168688019081528b861660008181526072909552979093209551865592516001909501805492519585167fffffffffffffffffffffffffffffffff0000000000000000000000000000000090931692909217948416830294909417905582547fffffffffffffffffffffffffffffffff0000000000000000ffffffffffffffff16930292909217905587908281169085161461364e576135f08285616926565b6136049067ffffffffffffffff1682616ab0565b607380547fffffffffffffffff0000000000000000ffffffffffffffffffffffffffffffff1670010000000000000000000000000000000067ffffffffffffffff88160217905590505b6136a0333083607054613661919061696e565b73ffffffffffffffffffffffffffffffffffffffff7f000000000000000000000000000000000000000000000000000000000000000016929190615a07565b6136a86158e3565b60405167ffffffffffffffff8616907f303446e6a8cb73c83dff421c0b1d5e5ce0719dab1bff13660fc254e58cc17fce90600090a25050505050505050505050565b6136f26150b6565b60776136fe8282616b11565b5050565b60795460009067ffffffffffffffff1615613746575060795467ffffffffffffffff9081166000908152607860205260409020546801000000000000000090041690565b5060745467ffffffffffffffff1690565b607a5473ffffffffffffffffffffffffffffffffffffffff1633146137a8576040517f4755657900000000000000000000000000000000000000000000000000000000815260040160405180910390fd5b60766137b48282616b11565b507f6b8f723a4c7a5335cafae8a598a0aa0301be1387c037dccc085b62add6448b20816040516119c191906161de565b600054610100900460ff16158080156138045750600054600160ff909116105b8061381e5750303b15801561381e575060005460ff166001145b6138aa576040517f08c379a000000000000000000000000000000000000000000000000000000000815260206004820152602e60248201527f496e697469616c697a61626c653a20636f6e747261637420697320616c72656160448201527f647920696e697469616c697a65640000000000000000000000000000000000006064820152608401610e77565b600080547fffffffffffffffffffffffffffffffffffffffffffffffffffffffffffffff00166001179055801561390857600080547fffffffffffffffffffffffffffffffffffffffffffffffffffffffffffff00ff166101001790555b61391560208801886163db565b607a80547fffffffffffffffffffffffff00000000000000000000000000000000000000001673ffffffffffffffffffffffffffffffffffffffff9290921691909117905561396a60408801602089016163db565b606f805473ffffffffffffffffffffffffffffffffffffffff929092166b010000000000000000000000027fff0000000000000000000000000000000000000000ffffffffffffffffffffff9092169190911790556139cf60808801606089016163db565b6074805473ffffffffffffffffffffffffffffffffffffffff9290921668010000000000000000027fffffffff0000000000000000000000000000000000000000ffffffffffffffff9092169190911790556000805260756020527ff9e3fbf150b7a0077118526f473c53cb4734f166167e2c6213e3567dd390b4ad8690556076613a5a8682616b11565b506077613a678582616b11565b5062093a80613a7c6060890160408a01616313565b67ffffffffffffffff161115613abe576040517fcc96507000000000000000000000000000000000000000000000000000000000815260040160405180910390fd5b613ace6060880160408901616313565b6079805467ffffffffffffffff92909216700100000000000000000000000000000000027fffffffffffffffff0000000000000000ffffffffffffffffffffffffffffffff90921691909117905562093a80613b3060a0890160808a01616313565b67ffffffffffffffff161115613b72576040517f1d06e87900000000000000000000000000000000000000000000000000000000815260040160405180910390fd5b613b8260a0880160808901616313565b6079805477ffffffffffffffffffffffffffffffffffffffffffffffff16780100000000000000000000000000000000000000000000000067ffffffffffffffff939093169290920291909117905567016345785d8a0000607055606f80547fffffffffffffffffffffffffffffffffffffffffff00000000000000000000ff166a03ea000000000000070800179055607b80547fffffff000000000000000000ffffffffffffffffffffffffffffffffffffffff167c0100000000000697800000000000000000000000000000000000000000179055613c61615ae9565b7fed7be53c9f1a96a481223b15568a5b1a475e01a74b347d6ca187c8bf0c078cd660007f00000000000000000000000000000000000000000000000000000000000000008585604051613cb79493929190616c74565b60405180910390a18015613d2257600080547fffffffffffffffffffffffffffffffffffffffffffffffffffffffffffff00ff169055604051600181527f7f26b83ff96e1f2b6a682f133852f6798a09c465da95921460cefb38474024989060200160405180910390a15b50505050505050565b607b547c0100000000000000000000000000000000000000000000000000000000900460ff1615613d88576040517f24eff8c300000000000000000000000000000000000000000000000000000000815260040160405180910390fd5b606f5460ff1615613dc5576040517f2f0047fc00000000000000000000000000000000000000000000000000000000815260040160405180910390fd5b806000819003613e01576040517fcb591a5f00000000000000000000000000000000000000000000000000000000815260040160405180910390fd5b6103e8811115613e3d576040517fb59f753a00000000000000000000000000000000000000000000000000000000815260040160405180910390fd5b60735467ffffffffffffffff78010000000000000000000000000000000000000000000000008204811691613e88918491700100000000000000000000000000000000900416616cac565b1115613ec0576040517fc630a00d00000000000000000000000000000000000000000000000000000000815260040160405180910390fd5b60735467ffffffffffffffff680100000000000000008204811660008181526072602052604081205491937001000000000000000000000000000000009004909216915b84811015614194576000878783818110613f2057613f20616999565b9050602002810190613f3291906169c8565b613f3b906169fc565b905083613f4781616947565b82518051602091820120818501516040808701519051949950919450600093613fa99386939101928352602083019190915260c01b7fffffffffffffffff00000000000000000000000000000000000000000000000016604082015260480190565b604080517fffffffffffffffffffffffffffffffffffffffffffffffffffffffffffffffe0818403018152918152815160209283012067ffffffffffffffff8916600090815260719093529120549091508114614032576040517fce3d755e00000000000000000000000000000000000000000000000000000000815260040160405180910390fd5b67ffffffffffffffff8616600090815260716020526040812055614057600189616ab0565b84036140c65742607b60149054906101000a900467ffffffffffffffff16846040015161408491906168fe565b67ffffffffffffffff1611156140c6576040517fc44a082100000000000000000000000000000000000000000000000000000000815260040160405180910390fd5b602083810151604080860151815193840189905290830185905260608084019290925260c01b7fffffffffffffffff00000000000000000000000000000000000000000000000016608083015233901b7fffffffffffffffffffffffffffffffffffffffff0000000000000000000000001660888201527f0100000000000000000000000000000000000000000000000000000000000000609c820152609d01604051602081830303815290604052805190602001209450505050808061418c90616a78565b915050613f04565b5061419f84846168fe565b6040805160608101825283815267ffffffffffffffff4281166020808401918252607380546801000000000000000090819004851686880190815285891660008181526072909552888520975188559451600190970180549151871683027fffffffffffffffffffffffffffffffff0000000000000000000000000000000090921697871697909717179095558054938916700100000000000000000000000000000000027fffffffffffffffff0000000000000000ffffffffffffffffffffffffffffffff958402959095167fffffffffffffffff00000000000000000000000000000000ffffffffffffffff9094169390931793909317909155915192955090917f648a61dd2438f072f5a1960939abd30f37aea80d2e94c9792ad142d3e0a490a49190a2505050505050565b607a5473ffffffffffffffffffffffffffffffffffffffff16331461431f576040517f4755657900000000000000000000000000000000000000000000000000000000815260040160405180910390fd5b7f000000000000000000000000000000000000000000000000000000000000000073ffffffffffffffffffffffffffffffffffffffff1663dbc169766040518163ffffffff1660e01b8152600401600060405180830381600087803b15801561438757600080fd5b505af115801561439b573d6000803e3d6000fd5b50505050612554615b89565b6143af6150b6565b6040805160608101825293845267ffffffffffffffff92831660208086019182529284168583019081529584166000908152607290935291209251835551600190920180549351821668010000000000000000027fffffffffffffffffffffffffffffffff000000000000000000000000000000009094169290911691909117919091179055565b60745468010000000000000000900473ffffffffffffffffffffffffffffffffffffffff163314614494576040517fbbcbbc0500000000000000000000000000000000000000000000000000000000815260040160405180910390fd5b6144a48888888888888888614be6565b607480547fffffffffffffffffffffffffffffffffffffffffffffffff00000000000000001667ffffffffffffffff8781169182179092556000908152607560205260409020849055607954161561451f57607980547fffffffffffffffffffffffffffffffff000000000000000000000000000000001690555b6040517f33d6247d000000000000000000000000000000000000000000000000000000008152600481018590527f000000000000000000000000000000000000000000000000000000000000000073ffffffffffffffffffffffffffffffffffffffff16906333d6247d90602401600060405180830381600087803b1580156145a757600080fd5b505af11580156145bb573d6000803e3d6000fd5b50506079805477ffffffffffffffffffffffffffffffffffffffffffffffff167a093a800000000000000000000000000000000000000000000000001790555050604051838152339067ffffffffffffffff8716907fcc1b5520188bf1dd3e63f98164b577c4d75c11a619ddea692112f0d1aec4cf729060200160405180910390a35050505050505050565b607b547c0100000000000000000000000000000000000000000000000000000000900460ff16156146a4576040517f24eff8c300000000000000000000000000000000000000000000000000000000815260040160405180910390fd5b606f5460ff16156146e1576040517f2f0047fc00000000000000000000000000000000000000000000000000000000815260040160405180910390fd5b60006146eb612457565b905081811115614727576040517f4732fdb500000000000000000000000000000000000000000000000000000000815260040160405180910390fd5b611388831115614763576040517fa29a6c7c00000000000000000000000000000000000000000000000000000000815260040160405180910390fd5b6147a573ffffffffffffffffffffffffffffffffffffffff7f000000000000000000000000000000000000000000000000000000000000000016333084615a07565b60007f000000000000000000000000000000000000000000000000000000000000000073ffffffffffffffffffffffffffffffffffffffff16635ca1e1656040518163ffffffff1660e01b8152600401602060405180830381865afa158015614812573d6000803e3d6000fd5b505050506040513d601f19601f820116820180604052508101906148369190616820565b60738054919250780100000000000000000000000000000000000000000000000090910467ffffffffffffffff1690601861487083616947565b91906101000a81548167ffffffffffffffff021916908367ffffffffffffffff1602179055505084846040516148a7929190616cbf565b60408051918290038220602083015281018290527fffffffffffffffff0000000000000000000000000000000000000000000000004260c01b166060820152606801604080518083037fffffffffffffffffffffffffffffffffffffffffffffffffffffffffffffffe001815291815281516020928301206073547801000000000000000000000000000000000000000000000000900467ffffffffffffffff16600090815260719093529120553233036149d757607354604080518381523360208201526060918101829052600091810191909152780100000000000000000000000000000000000000000000000090910467ffffffffffffffff16907ff94bb37db835f1ab585ee00041849a09b12cd081d77fa15ca070757619cbc9319060800160405180910390a2614a36565b607360189054906101000a900467ffffffffffffffff1667ffffffffffffffff167ff94bb37db835f1ab585ee00041849a09b12cd081d77fa15ca070757619cbc93182338888604051614a2d9493929190616ccf565b60405180910390a25b5050505050565b607a5473ffffffffffffffffffffffffffffffffffffffff163314614a8e576040517f4755657900000000000000000000000000000000000000000000000000000000815260040160405180910390fd5b607480547fffffffff0000000000000000000000000000000000000000ffffffffffffffff166801000000000000000073ffffffffffffffffffffffffffffffffffffffff8416908102919091179091556040519081527f61f8fec29495a3078e9271456f05fb0707fd4e41f7661865f80fc437d06681ca906020016119c1565b614b176150b6565b73ffffffffffffffffffffffffffffffffffffffff8116614bba576040517f08c379a000000000000000000000000000000000000000000000000000000000815260206004820152602660248201527f4f776e61626c653a206e6577206f776e657220697320746865207a65726f206160448201527f64647265737300000000000000000000000000000000000000000000000000006064820152608401610e77565b611e2d81615990565b614bcb6150b6565b67ffffffffffffffff16600090815260756020526040902055565b600067ffffffffffffffff891615614cb45760795467ffffffffffffffff908116908a161115614c42576040517fbb14c20500000000000000000000000000000000000000000000000000000000815260040160405180910390fd5b5067ffffffffffffffff8089166000908152607860205260409020600281015481549092898116680100000000000000009092041614614cae576040517f2bd2e3e700000000000000000000000000000000000000000000000000000000815260040160405180910390fd5b50614d50565b5067ffffffffffffffff861660009081526075602052604090205480614d06576040517f4997b98600000000000000000000000000000000000000000000000000000000815260040160405180910390fd5b60745467ffffffffffffffff9081169088161115614d50576040517f1e56e9e200000000000000000000000000000000000000000000000000000000815260040160405180910390fd5b60795467ffffffffffffffff9081169089161180614d8257508867ffffffffffffffff168867ffffffffffffffff1611155b80614da9575060795467ffffffffffffffff68010000000000000000909104811690891611155b15614de0576040517fbfa7079f00000000000000000000000000000000000000000000000000000000815260040160405180910390fd5b67ffffffffffffffff888116600090815260786020526040902054680100000000000000009004811690871614614e43576040517f32a2a77f00000000000000000000000000000000000000000000000000000000815260040160405180910390fd5b6000614e5288888885896119cc565b905060007f30644e72e131a029b85045b68181585d2833e84879b9709143e1f593f0000001600283604051614e879190616804565b602060405180830381855afa158015614ea4573d6000803e3d6000fd5b5050506040513d601f19601f82011682018060405250810190614ec79190616820565b614ed19190616868565b6040805160208101825282815290517f8d8f8a5c00000000000000000000000000000000000000000000000000000000815291925073ffffffffffffffffffffffffffffffffffffffff7f00000000000000000000000000000000000000000000000000000000000000001691638d8f8a5c91614f549189918991600401616d05565b602060405180830381865afa158015614f71573d6000803e3d6000fd5b505050506040513d601f19601f82011682018060405250810190614f959190616d4d565b614fcb576040517f09bde33900000000000000000000000000000000000000000000000000000000815260040160405180910390fd5b67ffffffffffffffff8a16600090815260786020526040902060020154869003615021576040517fa47276bd00000000000000000000000000000000000000000000000000000000815260040160405180910390fd5b5050505050505050505050565b7f000000000000000000000000000000000000000000000000000000000000000073ffffffffffffffffffffffffffffffffffffffff16632072f6c56040518163ffffffff1660e01b8152600401600060405180830381600087803b15801561509657600080fd5b505af11580156150aa573d6000803e3d6000fd5b50505050612554615c18565b60335473ffffffffffffffffffffffffffffffffffffffff163314612554576040517f08c379a000000000000000000000000000000000000000000000000000000000815260206004820181905260248201527f4f776e61626c653a2063616c6c6572206973206e6f7420746865206f776e65726044820152606401610e77565b60795467ffffffffffffffff680100000000000000009091048116908216111580615171575060795467ffffffffffffffff908116908216115b156151a8576040517fd086b70b00000000000000000000000000000000000000000000000000000000815260040160405180910390fd5b67ffffffffffffffff818116600081815260786020908152604080832080546074805468010000000000000000928390049098167fffffffffffffffffffffffffffffffffffffffffffffffff000000000000000090981688179055600282015487865260759094529382902092909255607980547fffffffffffffffffffffffffffffffff0000000000000000ffffffffffffffff169390940292909217909255600182015490517f33d6247d00000000000000000000000000000000000000000000000000000000815260048101919091529091907f000000000000000000000000000000000000000000000000000000000000000073ffffffffffffffffffffffffffffffffffffffff16906333d6247d90602401600060405180830381600087803b1580156152da57600080fd5b505af11580156152ee573d6000803e3d6000fd5b505050508267ffffffffffffffff168167ffffffffffffffff167f328d3c6c0fd6f1be0515e422f2d87e59f25922cbc2233568515a0c4bc3f8510e846002015460405161533d91815260200190565b60405180910390a3505050565b600080615355613702565b905067ffffffffffffffff8916156154255760795467ffffffffffffffff908116908a1611156153b1576040517fbb14c20500000000000000000000000000000000000000000000000000000000815260040160405180910390fd5b67ffffffffffffffff808a1660009081526078602052604090206002810154815490945090918a811668010000000000000000909204161461541f576040517f2bd2e3e700000000000000000000000000000000000000000000000000000000815260040160405180910390fd5b506154c6565b67ffffffffffffffff8816600090815260756020526040902054915081615478576040517f4997b98600000000000000000000000000000000000000000000000000000000815260040160405180910390fd5b8067ffffffffffffffff168867ffffffffffffffff1611156154c6576040517f1e56e9e200000000000000000000000000000000000000000000000000000000815260040160405180910390fd5b8067ffffffffffffffff168767ffffffffffffffff1611615513576040517fb9b18f5700000000000000000000000000000000000000000000000000000000815260040160405180910390fd5b6000615522898989868a6119cc565b905060007f30644e72e131a029b85045b68181585d2833e84879b9709143e1f593f00000016002836040516155579190616804565b602060405180830381855afa158015615574573d6000803e3d6000fd5b5050506040513d601f19601f820116820180604052508101906155979190616820565b6155a19190616868565b6040805160208101825282815290517f8d8f8a5c00000000000000000000000000000000000000000000000000000000815291925073ffffffffffffffffffffffffffffffffffffffff7f00000000000000000000000000000000000000000000000000000000000000001691638d8f8a5c91615624918a918a91600401616d05565b602060405180830381865afa158015615641573d6000803e3d6000fd5b505050506040513d601f19601f820116820180604052508101906156659190616d4d565b61569b576040517f09bde33900000000000000000000000000000000000000000000000000000000815260040160405180910390fd5b615021336156a9858c616926565b67ffffffffffffffff166156bb6127d5565b6156c5919061696e565b73ffffffffffffffffffffffffffffffffffffffff7f0000000000000000000000000000000000000000000000000000000000000000169190615cab565b600061570d613702565b90508160008061571d8484616926565b606f5467ffffffffffffffff91821692506000916157419161010090041642616ab0565b90505b8467ffffffffffffffff168467ffffffffffffffff16146157cc5767ffffffffffffffff808516600090815260726020526040902060018101549091168210156157aa57600181015468010000000000000000900467ffffffffffffffff1694506157c6565b6157b48686616926565b67ffffffffffffffff169350506157cc565b50615744565b60006157d88484616ab0565b90508381101561582f57808403600c81116157f357806157f6565b600c5b9050806103e80a81606f60099054906101000a900461ffff1661ffff160a607054028161582557615825616839565b046070555061589f565b838103600c81116158405780615843565b600c5b90506000816103e80a82606f60099054906101000a900461ffff1661ffff160a670de0b6b3a7640000028161587a5761587a616839565b04905080607054670de0b6b3a7640000028161589857615898616839565b0460705550505b683635c9adc5dea0000060705411156158c457683635c9adc5dea00000607055613d22565b633b9aca006070541015613d2257633b9aca0060705550505050505050565b60795467ffffffffffffffff6801000000000000000082048116911611156125545760795460009061592c9068010000000000000000900467ffffffffffffffff1660016168fe565b905061593781611ba3565b15611e2d5760795460009060029061595a90849067ffffffffffffffff16616926565b6159649190616d6a565b61596e90836168fe565b905061597981611ba3565b15615987576136fe81615137565b6136fe82615137565b6033805473ffffffffffffffffffffffffffffffffffffffff8381167fffffffffffffffffffffffff0000000000000000000000000000000000000000831681179093556040519116919082907f8be0079c531659141344cd1fd0a4f28419497f9722a3daafe3b4186f6b6457e090600090a35050565b60405173ffffffffffffffffffffffffffffffffffffffff80851660248301528316604482015260648101829052615ae39085907f23b872dd00000000000000000000000000000000000000000000000000000000906084015b604080517fffffffffffffffffffffffffffffffffffffffffffffffffffffffffffffffe08184030181529190526020810180517bffffffffffffffffffffffffffffffffffffffffffffffffffffffff167fffffffff0000000000000000000000000000000000000000000000000000000090931692909217909152615d06565b50505050565b600054610100900460ff16615b80576040517f08c379a000000000000000000000000000000000000000000000000000000000815260206004820152602b60248201527f496e697469616c697a61626c653a20636f6e7472616374206973206e6f74206960448201527f6e697469616c697a696e670000000000000000000000000000000000000000006064820152608401610e77565b61255433615990565b606f5460ff16615bc5576040517f5386698100000000000000000000000000000000000000000000000000000000815260040160405180910390fd5b606f80547fffffffffffffffffffffffffffffffffffffffffffffffffffffffffffffff001690556040517f1e5e34eea33501aecf2ebec9fe0e884a40804275ea7fe10b2ba084c8374308b390600090a1565b606f5460ff1615615c55576040517f2f0047fc00000000000000000000000000000000000000000000000000000000815260040160405180910390fd5b606f80547fffffffffffffffffffffffffffffffffffffffffffffffffffffffffffffff001660011790556040517f2261efe5aef6fedc1fd1550b25facc9181745623049c7901287030b9ad1a549790600090a1565b60405173ffffffffffffffffffffffffffffffffffffffff8316602482015260448101829052615d019084907fa9059cbb0000000000000000000000000000000000000000000000000000000090606401615a61565b505050565b6000615d68826040518060400160405280602081526020017f5361666545524332303a206c6f772d6c6576656c2063616c6c206661696c65648152508573ffffffffffffffffffffffffffffffffffffffff16615e129092919063ffffffff16565b805190915015615d015780806020019051810190615d869190616d4d565b615d01576040517f08c379a000000000000000000000000000000000000000000000000000000000815260206004820152602a60248201527f5361666545524332303a204552433230206f7065726174696f6e20646964206e60448201527f6f742073756363656564000000000000000000000000000000000000000000006064820152608401610e77565b6060615e218484600085615e29565b949350505050565b606082471015615ebb576040517f08c379a000000000000000000000000000000000000000000000000000000000815260206004820152602660248201527f416464726573733a20696e73756666696369656e742062616c616e636520666f60448201527f722063616c6c00000000000000000000000000000000000000000000000000006064820152608401610e77565b6000808673ffffffffffffffffffffffffffffffffffffffff168587604051615ee49190616804565b60006040518083038185875af1925050503d8060008114615f21576040519150601f19603f3d011682016040523d82523d6000602084013e615f26565b606091505b5091509150615f3787838387615f42565b979650505050505050565b60608315615fd8578251600003615fd15773ffffffffffffffffffffffffffffffffffffffff85163b615fd1576040517f08c379a000000000000000000000000000000000000000000000000000000000815260206004820152601d60248201527f416464726573733a2063616c6c20746f206e6f6e2d636f6e74726163740000006044820152606401610e77565b5081615e21565b615e218383815115615fed5781518083602001fd5b806040517f08c379a0000000000000000000000000000000000000000000000000000000008152600401610e7791906161de565b803567ffffffffffffffff81168114612f1e57600080fd5b60008083601f84011261604b57600080fd5b50813567ffffffffffffffff81111561606357600080fd5b60208301915083602082850101111561607b57600080fd5b9250929050565b60008060008060008060008060e0898b03121561609e57600080fd5b6160a789616021565b97506160b560208a01616021565b96506160c360408a01616021565b95506160d160608a01616021565b94506080890135935060a0890135925060c089013567ffffffffffffffff8111156160fb57600080fd5b6161078b828c01616039565b999c989b5096995094979396929594505050565b600080600080600060a0868803121561613357600080fd5b61613c86616021565b945061614a60208701616021565b935061615860408701616021565b94979396509394606081013594506080013592915050565b60005b8381101561618b578181015183820152602001616173565b50506000910152565b600081518084526161ac816020860160208601616170565b601f017fffffffffffffffffffffffffffffffffffffffffffffffffffffffffffffffe0169290920160200192915050565b6020815260006161f16020830184616194565b9392505050565b806040810183101561620957600080fd5b92915050565b6000806000806000806000806101a0898b03121561622c57600080fd5b61623589616021565b975061624360208a01616021565b965061625160408a01616021565b9550606089013594506080890135935061626e8a60a08b016161f8565b925061016089018a81111561628257600080fd5b60e08a0192506162928b826161f8565b9150509295985092959890939650565b6000602082840312156162b457600080fd5b813561ffff811681146161f157600080fd5b600080600080600060a086880312156162de57600080fd5b6162e786616021565b94506162f560208701616021565b94979496505050506040830135926060810135926080909101359150565b60006020828403121561632557600080fd5b6161f182616021565b600080600080600080600060c0888a03121561634957600080fd5b61635288616021565b965061636060208901616021565b955061636e60408901616021565b9450606088013593506080880135925060a088013567ffffffffffffffff81111561639857600080fd5b6163a48a828b01616039565b989b979a50959850939692959293505050565b803573ffffffffffffffffffffffffffffffffffffffff81168114612f1e57600080fd5b6000602082840312156163ed57600080fd5b6161f1826163b7565b60006020828403121561640857600080fd5b5035919050565b7f4e487b7100000000000000000000000000000000000000000000000000000000600052604160045260246000fd5b600082601f83011261644f57600080fd5b813567ffffffffffffffff8082111561646a5761646a61640f565b604051601f83017fffffffffffffffffffffffffffffffffffffffffffffffffffffffffffffffe0908116603f011681019082821181831017156164b0576164b061640f565b816040528381528660208588010111156164c957600080fd5b836020870160208301376000602085830101528094505050505092915050565b8015158114611e2d57600080fd5b60008060008060008060c0878903121561651057600080fd5b86359550602087013567ffffffffffffffff81111561652e57600080fd5b61653a89828a0161643e565b9550506040870135935061655060608801616021565b925061655e608088016163b7565b915060a087013561656e816164e9565b809150509295509295509295565b60008083601f84011261658e57600080fd5b50813567ffffffffffffffff8111156165a657600080fd5b6020830191508360208260051b850101111561607b57600080fd5b6000806000604084860312156165d657600080fd5b833567ffffffffffffffff8111156165ed57600080fd5b6165f98682870161657c565b909450925061660c9050602085016163b7565b90509250925092565b60006020828403121561662757600080fd5b813567ffffffffffffffff81111561663e57600080fd5b615e218482850161643e565b60008060008060008086880361012081121561666557600080fd5b60a081121561667357600080fd5b5086955060a0870135945060c087013567ffffffffffffffff8082111561669957600080fd5b6166a58a838b0161643e565b955060e08901359150808211156166bb57600080fd5b6166c78a838b0161643e565b94506101008901359150808211156166de57600080fd5b506166eb89828a01616039565b979a9699509497509295939492505050565b6000806020838503121561671057600080fd5b823567ffffffffffffffff81111561672757600080fd5b6167338582860161657c565b90969095509350505050565b6000806000806080858703121561675557600080fd5b61675e85616021565b93506020850135925061677360408601616021565b915061678160608601616021565b905092959194509250565b6000806000604084860312156167a157600080fd5b833567ffffffffffffffff8111156167b857600080fd5b6167c486828701616039565b909790965060209590950135949350505050565b600080604083850312156167eb57600080fd5b823591506167fb60208401616021565b90509250929050565b60008251616816818460208701616170565b9190910192915050565b60006020828403121561683257600080fd5b5051919050565b7f4e487b7100000000000000000000000000000000000000000000000000000000600052601260045260246000fd5b60008261687757616877616839565b500690565b600181811c9082168061689057607f821691505b6020821081036168c9577f4e487b7100000000000000000000000000000000000000000000000000000000600052602260045260246000fd5b50919050565b7f4e487b7100000000000000000000000000000000000000000000000000000000600052601160045260246000fd5b67ffffffffffffffff81811683821601908082111561691f5761691f6168cf565b5092915050565b67ffffffffffffffff82811682821603908082111561691f5761691f6168cf565b600067ffffffffffffffff808316818103616964576169646168cf565b6001019392505050565b8082028115828204841417616209576162096168cf565b60008261699457616994616839565b500490565b7f4e487b7100000000000000000000000000000000000000000000000000000000600052603260045260246000fd5b600082357fffffffffffffffffffffffffffffffffffffffffffffffffffffffffffffffa183360301811261681657600080fd5b600060608236031215616a0e57600080fd5b6040516060810167ffffffffffffffff8282108183111715616a3257616a3261640f565b816040528435915080821115616a4757600080fd5b50616a543682860161643e565b82525060208301356020820152616a6d60408401616021565b604082015292915050565b60007fffffffffffffffffffffffffffffffffffffffffffffffffffffffffffffffff8203616aa957616aa96168cf565b5060010190565b81810381811115616209576162096168cf565b601f821115615d0157600081815260208120601f850160051c81016020861015616aea5750805b601f850160051c820191505b81811015616b0957828155600101616af6565b505050505050565b815167ffffffffffffffff811115616b2b57616b2b61640f565b616b3f81616b39845461687c565b84616ac3565b602080601f831160018114616b925760008415616b5c5750858301515b7fffffffffffffffffffffffffffffffffffffffffffffffffffffffffffffffff600386901b1c1916600185901b178555616b09565b6000858152602081207fffffffffffffffffffffffffffffffffffffffffffffffffffffffffffffffe08616915b82811015616bdf57888601518255948401946001909101908401616bc0565b5085821015616c1b57878501517fffffffffffffffffffffffffffffffffffffffffffffffffffffffffffffffff600388901b60f8161c191681555b5050505050600190811b01905550565b8183528181602085013750600060208284010152600060207fffffffffffffffffffffffffffffffffffffffffffffffffffffffffffffffe0601f840116840101905092915050565b600067ffffffffffffffff808716835280861660208401525060606040830152616ca2606083018486616c2b565b9695505050505050565b80820180821115616209576162096168cf565b8183823760009101908152919050565b84815273ffffffffffffffffffffffffffffffffffffffff84166020820152606060408201526000616ca2606083018486616c2b565b604081526000616d19604083018587616c2b565b905060208083018460005b6001811015616d4157815183529183019190830190600101616d24565b50505050949350505050565b600060208284031215616d5f57600080fd5b81516161f1816164e9565b600067ffffffffffffffff80841680616d8557616d85616839565b9216919091049291505056fea2646970667358221220cdc6c1f3ede121d9dd6ec7bb3e1ad488c2cfae2bc8f8a6ee1d6e599b61c6368e64736f6c63430008110033",
  "linkReferences": {},
  "deployedLinkReferences": {}
}