{
  "_format": "hh-sol-artifact-1",
  "contractName": "PolygonZkEVM",
  "sourceName": "contracts/PolygonZkEVM.sol",
  "abi": [
    {
      "inputs": [
        {
          "internalType": "contract IPolygonZkEVMGlobalExitRoot",
          "name": "_globalExitRootManager",
          "type": "address"
        },
        {
          "internalType": "contract IERC20Upgradeable",
          "name": "_matic",
          "type": "address"
        },
        {
          "internalType": "contract IVerifierRollup",
          "name": "_rollupVerifier",
          "type": "address"
        },
        {
          "internalType": "contract IPolygonZkEVMBridge",
          "name": "_bridgeAddress",
          "type": "address"
        },
        {
          "internalType": "uint64",
          "name": "_chainID",
          "type": "uint64"
        },
        {
          "internalType": "uint64",
          "name": "_forkID",
          "type": "uint64"
        }
      ],
      "stateMutability": "nonpayable",
      "type": "constructor"
    },
    {
      "inputs": [],
      "name": "BatchAlreadyVerified",
      "type": "error"
    },
    {
      "inputs": [],
      "name": "BatchNotSequencedOrNotSequenceEnd",
      "type": "error"
    },
    {
      "inputs": [],
      "name": "ExceedMaxVerifyBatches",
      "type": "error"
    },
    {
      "inputs": [],
      "name": "FinalNumBatchBelowLastVerifiedBatch",
      "type": "error"
    },
    {
      "inputs": [],
      "name": "FinalNumBatchDoesNotMatchPendingState",
      "type": "error"
    },
    {
      "inputs": [],
      "name": "FinalPendingStateNumInvalid",
      "type": "error"
    },
    {
      "inputs": [],
      "name": "ForceBatchNotAllowed",
      "type": "error"
    },
    {
      "inputs": [],
      "name": "ForceBatchTimeoutNotExpired",
      "type": "error"
    },
    {
      "inputs": [],
      "name": "ForceBatchesAlreadyActive",
      "type": "error"
    },
    {
      "inputs": [],
      "name": "ForceBatchesOverflow",
      "type": "error"
    },
    {
      "inputs": [],
      "name": "ForcedDataDoesNotMatch",
      "type": "error"
    },
    {
      "inputs": [],
      "name": "GlobalExitRootNotExist",
      "type": "error"
    },
    {
      "inputs": [],
      "name": "HaltTimeoutNotExpired",
      "type": "error"
    },
    {
      "inputs": [],
      "name": "InitNumBatchAboveLastVerifiedBatch",
      "type": "error"
    },
    {
      "inputs": [],
      "name": "InitNumBatchDoesNotMatchPendingState",
      "type": "error"
    },
    {
      "inputs": [],
      "name": "InvalidProof",
      "type": "error"
    },
    {
      "inputs": [],
      "name": "InvalidRangeBatchTimeTarget",
      "type": "error"
    },
    {
      "inputs": [],
      "name": "InvalidRangeForceBatchTimeout",
      "type": "error"
    },
    {
      "inputs": [],
      "name": "InvalidRangeMultiplierBatchFee",
      "type": "error"
    },
    {
      "inputs": [],
      "name": "NewAccInputHashDoesNotExist",
      "type": "error"
    },
    {
      "inputs": [],
      "name": "NewPendingStateTimeoutMustBeLower",
      "type": "error"
    },
    {
      "inputs": [],
      "name": "NewStateRootNotInsidePrime",
      "type": "error"
    },
    {
      "inputs": [],
      "name": "NewTrustedAggregatorTimeoutMustBeLower",
      "type": "error"
    },
    {
      "inputs": [],
      "name": "NotEnoughMaticAmount",
      "type": "error"
    },
    {
      "inputs": [],
      "name": "OldAccInputHashDoesNotExist",
      "type": "error"
    },
    {
      "inputs": [],
      "name": "OldStateRootDoesNotExist",
      "type": "error"
    },
    {
      "inputs": [],
      "name": "OnlyAdmin",
      "type": "error"
    },
    {
      "inputs": [],
      "name": "OnlyEmergencyState",
      "type": "error"
    },
    {
      "inputs": [],
      "name": "OnlyNotEmergencyState",
      "type": "error"
    },
    {
      "inputs": [],
      "name": "OnlyPendingAdmin",
      "type": "error"
    },
    {
      "inputs": [],
      "name": "OnlyTrustedAggregator",
      "type": "error"
    },
    {
      "inputs": [],
      "name": "OnlyTrustedSequencer",
      "type": "error"
    },
    {
      "inputs": [],
      "name": "PendingStateDoesNotExist",
      "type": "error"
    },
    {
      "inputs": [],
      "name": "PendingStateInvalid",
      "type": "error"
    },
    {
      "inputs": [],
      "name": "PendingStateNotConsolidable",
      "type": "error"
    },
    {
      "inputs": [],
      "name": "PendingStateTimeoutExceedHaltAggregationTimeout",
      "type": "error"
    },
    {
      "inputs": [],
      "name": "SequenceZeroBatches",
      "type": "error"
    },
    {
      "inputs": [],
      "name": "SequencedTimestampBelowForcedTimestamp",
      "type": "error"
    },
    {
      "inputs": [],
      "name": "SequencedTimestampInvalid",
      "type": "error"
    },
    {
      "inputs": [],
      "name": "StoredRootMustBeDifferentThanNewRoot",
      "type": "error"
    },
    {
      "inputs": [],
      "name": "TransactionsLengthAboveMax",
      "type": "error"
    },
    {
      "inputs": [],
      "name": "TrustedAggregatorTimeoutExceedHaltAggregationTimeout",
      "type": "error"
    },
    {
      "inputs": [],
      "name": "TrustedAggregatorTimeoutNotExpired",
      "type": "error"
    },
    {
      "anonymous": false,
      "inputs": [
        {
          "indexed": false,
          "internalType": "address",
          "name": "newAdmin",
          "type": "address"
        }
      ],
      "name": "AcceptAdminRole",
      "type": "event"
    },
    {
      "anonymous": false,
      "inputs": [],
      "name": "ActivateForceBatches",
      "type": "event"
    },
    {
      "anonymous": false,
      "inputs": [
        {
          "indexed": true,
          "internalType": "uint64",
          "name": "numBatch",
          "type": "uint64"
        },
        {
          "indexed": false,
          "internalType": "bytes32",
          "name": "stateRoot",
          "type": "bytes32"
        },
        {
          "indexed": true,
          "internalType": "uint64",
          "name": "pendingStateNum",
          "type": "uint64"
        }
      ],
      "name": "ConsolidatePendingState",
      "type": "event"
    },
    {
      "anonymous": false,
      "inputs": [],
      "name": "EmergencyStateActivated",
      "type": "event"
    },
    {
      "anonymous": false,
      "inputs": [],
      "name": "EmergencyStateDeactivated",
      "type": "event"
    },
    {
      "anonymous": false,
      "inputs": [
        {
          "indexed": true,
          "internalType": "uint64",
          "name": "forceBatchNum",
          "type": "uint64"
        },
        {
          "indexed": false,
          "internalType": "bytes32",
          "name": "lastGlobalExitRoot",
          "type": "bytes32"
        },
        {
          "indexed": false,
          "internalType": "address",
          "name": "sequencer",
          "type": "address"
        },
        {
          "indexed": false,
          "internalType": "bytes",
          "name": "transactions",
          "type": "bytes"
        }
      ],
      "name": "ForceBatch",
      "type": "event"
    },
    {
      "anonymous": false,
      "inputs": [
        {
          "indexed": false,
          "internalType": "uint8",
          "name": "version",
          "type": "uint8"
        }
      ],
      "name": "Initialized",
      "type": "event"
    },
    {
      "anonymous": false,
      "inputs": [
        {
          "indexed": true,
          "internalType": "uint64",
          "name": "numBatch",
          "type": "uint64"
        },
        {
          "indexed": false,
          "internalType": "bytes32",
          "name": "stateRoot",
          "type": "bytes32"
        },
        {
          "indexed": true,
          "internalType": "address",
          "name": "aggregator",
          "type": "address"
        }
      ],
      "name": "OverridePendingState",
      "type": "event"
    },
    {
      "anonymous": false,
      "inputs": [
        {
          "indexed": true,
          "internalType": "address",
          "name": "previousOwner",
          "type": "address"
        },
        {
          "indexed": true,
          "internalType": "address",
          "name": "newOwner",
          "type": "address"
        }
      ],
      "name": "OwnershipTransferred",
      "type": "event"
    },
    {
      "anonymous": false,
      "inputs": [
        {
          "indexed": false,
          "internalType": "bytes32",
          "name": "storedStateRoot",
          "type": "bytes32"
        },
        {
          "indexed": false,
          "internalType": "bytes32",
          "name": "provedStateRoot",
          "type": "bytes32"
        }
      ],
      "name": "ProveNonDeterministicPendingState",
      "type": "event"
    },
    {
      "anonymous": false,
      "inputs": [
        {
          "indexed": true,
          "internalType": "uint64",
          "name": "numBatch",
          "type": "uint64"
        }
      ],
      "name": "SequenceBatches",
      "type": "event"
    },
    {
      "anonymous": false,
      "inputs": [
        {
          "indexed": true,
          "internalType": "uint64",
          "name": "numBatch",
          "type": "uint64"
        }
      ],
      "name": "SequenceForceBatches",
      "type": "event"
    },
    {
      "anonymous": false,
      "inputs": [
        {
          "indexed": false,
          "internalType": "uint64",
          "name": "newforceBatchTimeout",
          "type": "uint64"
        }
      ],
      "name": "SetForceBatchTimeout",
      "type": "event"
    },
    {
      "anonymous": false,
      "inputs": [
        {
          "indexed": false,
          "internalType": "uint16",
          "name": "newMultiplierBatchFee",
          "type": "uint16"
        }
      ],
      "name": "SetMultiplierBatchFee",
      "type": "event"
    },
    {
      "anonymous": false,
      "inputs": [
        {
          "indexed": false,
          "internalType": "uint64",
          "name": "newPendingStateTimeout",
          "type": "uint64"
        }
      ],
      "name": "SetPendingStateTimeout",
      "type": "event"
    },
    {
      "anonymous": false,
      "inputs": [
        {
          "indexed": false,
          "internalType": "address",
          "name": "newTrustedAggregator",
          "type": "address"
        }
      ],
      "name": "SetTrustedAggregator",
      "type": "event"
    },
    {
      "anonymous": false,
      "inputs": [
        {
          "indexed": false,
          "internalType": "uint64",
          "name": "newTrustedAggregatorTimeout",
          "type": "uint64"
        }
      ],
      "name": "SetTrustedAggregatorTimeout",
      "type": "event"
    },
    {
      "anonymous": false,
      "inputs": [
        {
          "indexed": false,
          "internalType": "address",
          "name": "newTrustedSequencer",
          "type": "address"
        }
      ],
      "name": "SetTrustedSequencer",
      "type": "event"
    },
    {
      "anonymous": false,
      "inputs": [
        {
          "indexed": false,
          "internalType": "string",
          "name": "newTrustedSequencerURL",
          "type": "string"
        }
      ],
      "name": "SetTrustedSequencerURL",
      "type": "event"
    },
    {
      "anonymous": false,
      "inputs": [
        {
          "indexed": false,
          "internalType": "uint64",
          "name": "newVerifyBatchTimeTarget",
          "type": "uint64"
        }
      ],
      "name": "SetVerifyBatchTimeTarget",
      "type": "event"
    },
    {
      "anonymous": false,
      "inputs": [
        {
          "indexed": false,
          "internalType": "address",
          "name": "newPendingAdmin",
          "type": "address"
        }
      ],
      "name": "TransferAdminRole",
      "type": "event"
    },
    {
      "anonymous": false,
      "inputs": [
        {
          "indexed": false,
          "internalType": "uint64",
          "name": "numBatch",
          "type": "uint64"
        },
        {
          "indexed": false,
          "internalType": "uint64",
          "name": "forkID",
          "type": "uint64"
        },
        {
          "indexed": false,
          "internalType": "string",
          "name": "version",
          "type": "string"
        }
      ],
      "name": "UpdateZkEVMVersion",
      "type": "event"
    },
    {
      "anonymous": false,
      "inputs": [
        {
          "indexed": true,
          "internalType": "uint64",
          "name": "numBatch",
          "type": "uint64"
        },
        {
          "indexed": false,
          "internalType": "bytes32",
          "name": "stateRoot",
          "type": "bytes32"
        },
        {
          "indexed": true,
          "internalType": "address",
          "name": "aggregator",
          "type": "address"
        }
      ],
      "name": "VerifyBatches",
      "type": "event"
    },
    {
      "anonymous": false,
      "inputs": [
        {
          "indexed": true,
          "internalType": "uint64",
          "name": "numBatch",
          "type": "uint64"
        },
        {
          "indexed": false,
          "internalType": "bytes32",
          "name": "stateRoot",
          "type": "bytes32"
        },
        {
          "indexed": true,
          "internalType": "address",
          "name": "aggregator",
          "type": "address"
        }
      ],
      "name": "VerifyBatchesTrustedAggregator",
      "type": "event"
    },
    {
      "inputs": [],
      "name": "acceptAdminRole",
      "outputs": [],
      "stateMutability": "nonpayable",
      "type": "function"
    },
    {
      "inputs": [
        {
          "internalType": "uint64",
          "name": "sequencedBatchNum",
          "type": "uint64"
        }
      ],
      "name": "activateEmergencyState",
      "outputs": [],
      "stateMutability": "nonpayable",
      "type": "function"
    },
    {
      "inputs": [],
      "name": "activateForceBatches",
      "outputs": [],
      "stateMutability": "nonpayable",
      "type": "function"
    },
    {
      "inputs": [],
      "name": "admin",
      "outputs": [
        {
          "internalType": "address",
          "name": "",
          "type": "address"
        }
      ],
      "stateMutability": "view",
      "type": "function"
    },
    {
      "inputs": [],
      "name": "batchFee",
      "outputs": [
        {
          "internalType": "uint256",
          "name": "",
          "type": "uint256"
        }
      ],
      "stateMutability": "view",
      "type": "function"
    },
    {
      "inputs": [
        {
          "internalType": "uint64",
          "name": "",
          "type": "uint64"
        }
      ],
      "name": "batchNumToStateRoot",
      "outputs": [
        {
          "internalType": "bytes32",
          "name": "",
          "type": "bytes32"
        }
      ],
      "stateMutability": "view",
      "type": "function"
    },
    {
      "inputs": [],
      "name": "bridgeAddress",
      "outputs": [
        {
          "internalType": "contract IPolygonZkEVMBridge",
          "name": "",
          "type": "address"
        }
      ],
      "stateMutability": "view",
      "type": "function"
    },
    {
      "inputs": [],
      "name": "calculateRewardPerBatch",
      "outputs": [
        {
          "internalType": "uint256",
          "name": "",
          "type": "uint256"
        }
      ],
      "stateMutability": "view",
      "type": "function"
    },
    {
      "inputs": [],
      "name": "chainID",
      "outputs": [
        {
          "internalType": "uint64",
          "name": "",
          "type": "uint64"
        }
      ],
      "stateMutability": "view",
      "type": "function"
    },
    {
      "inputs": [
        {
          "internalType": "uint256",
          "name": "newStateRoot",
          "type": "uint256"
        }
      ],
      "name": "checkStateRootInsidePrime",
      "outputs": [
        {
          "internalType": "bool",
          "name": "",
          "type": "bool"
        }
      ],
      "stateMutability": "pure",
      "type": "function"
    },
    {
      "inputs": [
        {
          "internalType": "uint64",
          "name": "pendingStateNum",
          "type": "uint64"
        }
      ],
      "name": "consolidatePendingState",
      "outputs": [],
      "stateMutability": "nonpayable",
      "type": "function"
    },
    {
      "inputs": [],
      "name": "deactivateEmergencyState",
      "outputs": [],
      "stateMutability": "nonpayable",
      "type": "function"
    },
    {
      "inputs": [
        {
          "internalType": "bytes",
          "name": "transactions",
          "type": "bytes"
        },
        {
          "internalType": "uint256",
          "name": "maticAmount",
          "type": "uint256"
        }
      ],
      "name": "forceBatch",
      "outputs": [],
      "stateMutability": "nonpayable",
      "type": "function"
    },
    {
      "inputs": [],
      "name": "forceBatchTimeout",
      "outputs": [
        {
          "internalType": "uint64",
          "name": "",
          "type": "uint64"
        }
      ],
      "stateMutability": "view",
      "type": "function"
    },
    {
      "inputs": [
        {
          "internalType": "uint64",
          "name": "",
          "type": "uint64"
        }
      ],
      "name": "forcedBatches",
      "outputs": [
        {
          "internalType": "bytes32",
          "name": "",
          "type": "bytes32"
        }
      ],
      "stateMutability": "view",
      "type": "function"
    },
    {
      "inputs": [],
      "name": "forkID",
      "outputs": [
        {
          "internalType": "uint64",
          "name": "",
          "type": "uint64"
        }
      ],
      "stateMutability": "view",
      "type": "function"
    },
    {
      "inputs": [],
      "name": "gapLastTimestamp",
      "outputs": [
        {
          "internalType": "uint64",
          "name": "",
          "type": "uint64"
        }
      ],
      "stateMutability": "view",
      "type": "function"
    },
    {
      "inputs": [],
      "name": "getForcedBatchFee",
      "outputs": [
        {
          "internalType": "uint256",
          "name": "",
          "type": "uint256"
        }
      ],
      "stateMutability": "view",
      "type": "function"
    },
    {
      "inputs": [
        {
          "internalType": "uint64",
          "name": "initNumBatch",
          "type": "uint64"
        },
        {
          "internalType": "uint64",
          "name": "finalNewBatch",
          "type": "uint64"
        },
        {
          "internalType": "bytes32",
          "name": "newLocalExitRoot",
          "type": "bytes32"
        },
        {
          "internalType": "bytes32",
          "name": "oldStateRoot",
          "type": "bytes32"
        },
        {
          "internalType": "bytes32",
          "name": "newStateRoot",
          "type": "bytes32"
        }
      ],
      "name": "getInputSnarkBytes",
      "outputs": [
        {
          "internalType": "bytes",
          "name": "",
          "type": "bytes"
        }
      ],
      "stateMutability": "view",
      "type": "function"
    },
    {
      "inputs": [],
      "name": "getLastVerifiedBatch",
      "outputs": [
        {
          "internalType": "uint64",
          "name": "",
          "type": "uint64"
        }
      ],
      "stateMutability": "view",
      "type": "function"
    },
    {
      "inputs": [],
      "name": "globalExitRootManager",
      "outputs": [
        {
          "internalType": "contract IPolygonZkEVMGlobalExitRoot",
          "name": "",
          "type": "address"
        }
      ],
      "stateMutability": "view",
      "type": "function"
    },
    {
      "inputs": [
        {
          "components": [
            {
              "internalType": "address",
              "name": "admin",
              "type": "address"
            },
            {
              "internalType": "address",
              "name": "trustedSequencer",
              "type": "address"
            },
            {
              "internalType": "uint64",
              "name": "pendingStateTimeout",
              "type": "uint64"
            },
            {
              "internalType": "address",
              "name": "trustedAggregator",
              "type": "address"
            },
            {
              "internalType": "uint64",
              "name": "trustedAggregatorTimeout",
              "type": "uint64"
            }
          ],
          "internalType": "struct PolygonZkEVM.InitializePackedParameters",
          "name": "initializePackedParameters",
          "type": "tuple"
        },
        {
          "internalType": "bytes32",
          "name": "genesisRoot",
          "type": "bytes32"
        },
        {
          "internalType": "string",
          "name": "_trustedSequencerURL",
          "type": "string"
        },
        {
          "internalType": "string",
          "name": "_networkName",
          "type": "string"
        },
        {
          "internalType": "string",
          "name": "_version",
          "type": "string"
        }
      ],
      "name": "initialize",
      "outputs": [],
      "stateMutability": "nonpayable",
      "type": "function"
    },
    {
      "inputs": [],
      "name": "isEmergencyState",
      "outputs": [
        {
          "internalType": "bool",
          "name": "",
          "type": "bool"
        }
      ],
      "stateMutability": "view",
      "type": "function"
    },
    {
      "inputs": [],
      "name": "isForcedBatchDisallowed",
      "outputs": [
        {
          "internalType": "bool",
          "name": "",
          "type": "bool"
        }
      ],
      "stateMutability": "view",
      "type": "function"
    },
    {
      "inputs": [
        {
          "internalType": "uint64",
          "name": "pendingStateNum",
          "type": "uint64"
        }
      ],
      "name": "isPendingStateConsolidable",
      "outputs": [
        {
          "internalType": "bool",
          "name": "",
          "type": "bool"
        }
      ],
      "stateMutability": "view",
      "type": "function"
    },
    {
      "inputs": [],
      "name": "lastBatchSequenced",
      "outputs": [
        {
          "internalType": "uint64",
          "name": "",
          "type": "uint64"
        }
      ],
      "stateMutability": "view",
      "type": "function"
    },
    {
      "inputs": [],
      "name": "lastForceBatch",
      "outputs": [
        {
          "internalType": "uint64",
          "name": "",
          "type": "uint64"
        }
      ],
      "stateMutability": "view",
      "type": "function"
    },
    {
      "inputs": [],
      "name": "lastForceBatchSequenced",
      "outputs": [
        {
          "internalType": "uint64",
          "name": "",
          "type": "uint64"
        }
      ],
      "stateMutability": "view",
      "type": "function"
    },
    {
      "inputs": [],
      "name": "lastPendingState",
      "outputs": [
        {
          "internalType": "uint64",
          "name": "",
          "type": "uint64"
        }
      ],
      "stateMutability": "view",
      "type": "function"
    },
    {
      "inputs": [],
      "name": "lastPendingStateConsolidated",
      "outputs": [
        {
          "internalType": "uint64",
          "name": "",
          "type": "uint64"
        }
      ],
      "stateMutability": "view",
      "type": "function"
    },
    {
      "inputs": [],
      "name": "lastVerifiedBatch",
      "outputs": [
        {
          "internalType": "uint64",
          "name": "",
          "type": "uint64"
        }
      ],
      "stateMutability": "view",
      "type": "function"
    },
    {
      "inputs": [],
      "name": "matic",
      "outputs": [
        {
          "internalType": "contract IERC20Upgradeable",
          "name": "",
          "type": "address"
        }
      ],
      "stateMutability": "view",
      "type": "function"
    },
    {
      "inputs": [],
      "name": "multiplierBatchFee",
      "outputs": [
        {
          "internalType": "uint16",
          "name": "",
          "type": "uint16"
        }
      ],
      "stateMutability": "view",
      "type": "function"
    },
    {
      "inputs": [],
      "name": "networkName",
      "outputs": [
        {
          "internalType": "string",
          "name": "",
          "type": "string"
        }
      ],
      "stateMutability": "view",
      "type": "function"
    },
    {
      "inputs": [
        {
          "internalType": "uint64",
          "name": "initPendingStateNum",
          "type": "uint64"
        },
        {
          "internalType": "uint64",
          "name": "finalPendingStateNum",
          "type": "uint64"
        },
        {
          "internalType": "uint64",
          "name": "initNumBatch",
          "type": "uint64"
        },
        {
          "internalType": "uint64",
          "name": "finalNewBatch",
          "type": "uint64"
        },
        {
          "internalType": "bytes32",
          "name": "newLocalExitRoot",
          "type": "bytes32"
        },
        {
          "internalType": "bytes32",
          "name": "newStateRoot",
          "type": "bytes32"
        },
        {
          "internalType": "bytes32[24]",
          "name": "proof",
          "type": "bytes32[24]"
        }
      ],
      "name": "overridePendingState",
      "outputs": [],
      "stateMutability": "nonpayable",
      "type": "function"
    },
    {
      "inputs": [],
      "name": "owner",
      "outputs": [
        {
          "internalType": "address",
          "name": "",
          "type": "address"
        }
      ],
      "stateMutability": "view",
      "type": "function"
    },
    {
      "inputs": [],
      "name": "pendingAdmin",
      "outputs": [
        {
          "internalType": "address",
          "name": "",
          "type": "address"
        }
      ],
      "stateMutability": "view",
      "type": "function"
    },
    {
      "inputs": [],
      "name": "pendingStateTimeout",
      "outputs": [
        {
          "internalType": "uint64",
          "name": "",
          "type": "uint64"
        }
      ],
      "stateMutability": "view",
      "type": "function"
    },
    {
      "inputs": [
        {
          "internalType": "uint256",
          "name": "",
          "type": "uint256"
        }
      ],
      "name": "pendingStateTransitions",
      "outputs": [
        {
          "internalType": "uint64",
          "name": "timestamp",
          "type": "uint64"
        },
        {
          "internalType": "uint64",
          "name": "lastVerifiedBatch",
          "type": "uint64"
        },
        {
          "internalType": "bytes32",
          "name": "exitRoot",
          "type": "bytes32"
        },
        {
          "internalType": "bytes32",
          "name": "stateRoot",
          "type": "bytes32"
        }
      ],
      "stateMutability": "view",
      "type": "function"
    },
    {
      "inputs": [
        {
          "internalType": "uint64",
          "name": "initPendingStateNum",
          "type": "uint64"
        },
        {
          "internalType": "uint64",
          "name": "finalPendingStateNum",
          "type": "uint64"
        },
        {
          "internalType": "uint64",
          "name": "initNumBatch",
          "type": "uint64"
        },
        {
          "internalType": "uint64",
          "name": "finalNewBatch",
          "type": "uint64"
        },
        {
          "internalType": "bytes32",
          "name": "newLocalExitRoot",
          "type": "bytes32"
        },
        {
          "internalType": "bytes32",
          "name": "newStateRoot",
          "type": "bytes32"
        },
        {
          "internalType": "bytes32[24]",
          "name": "proof",
          "type": "bytes32[24]"
        }
      ],
      "name": "proveNonDeterministicPendingState",
      "outputs": [],
      "stateMutability": "nonpayable",
      "type": "function"
    },
    {
      "inputs": [],
      "name": "renounceOwnership",
      "outputs": [],
      "stateMutability": "nonpayable",
      "type": "function"
    },
    {
      "inputs": [],
      "name": "rollupVerifier",
      "outputs": [
        {
          "internalType": "contract IVerifierRollup",
          "name": "",
          "type": "address"
        }
      ],
      "stateMutability": "view",
      "type": "function"
    },
    {
      "inputs": [
        {
          "components": [
            {
              "internalType": "bytes",
              "name": "transactions",
              "type": "bytes"
            },
            {
              "internalType": "bytes32",
              "name": "forcedHistoricGlobalExitRoot",
              "type": "bytes32"
            },
            {
              "internalType": "uint64",
              "name": "minForcedTimestamp",
              "type": "uint64"
            }
          ],
          "internalType": "struct PolygonZkEVM.BatchData[]",
          "name": "batches",
          "type": "tuple[]"
        },
        {
          "internalType": "address",
          "name": "l2Coinbase",
          "type": "address"
        }
      ],
      "name": "sequenceBatches",
      "outputs": [],
      "stateMutability": "nonpayable",
      "type": "function"
    },
    {
      "inputs": [
        {
          "components": [
            {
              "internalType": "bytes",
              "name": "transactions",
              "type": "bytes"
            },
            {
              "internalType": "bytes32",
              "name": "forcedHistoricGlobalExitRoot",
              "type": "bytes32"
            },
            {
              "internalType": "uint64",
              "name": "minForcedTimestamp",
              "type": "uint64"
            }
          ],
          "internalType": "struct PolygonZkEVM.BatchData[]",
          "name": "batches",
          "type": "tuple[]"
        }
      ],
      "name": "sequenceForceBatches",
      "outputs": [],
      "stateMutability": "nonpayable",
      "type": "function"
    },
    {
      "inputs": [
        {
          "internalType": "uint64",
          "name": "",
          "type": "uint64"
        }
      ],
      "name": "sequencedBatches",
      "outputs": [
        {
          "internalType": "bytes32",
          "name": "accInputHash",
          "type": "bytes32"
        },
        {
          "internalType": "uint64",
          "name": "sequencedTimestamp",
          "type": "uint64"
        },
        {
          "internalType": "uint64",
          "name": "previousLastBatchSequenced",
          "type": "uint64"
        }
      ],
      "stateMutability": "view",
      "type": "function"
    },
    {
      "inputs": [
        {
          "internalType": "uint64",
          "name": "newforceBatchTimeout",
          "type": "uint64"
        }
      ],
      "name": "setForceBatchTimeout",
      "outputs": [],
      "stateMutability": "nonpayable",
      "type": "function"
    },
    {
      "inputs": [
        {
          "internalType": "uint16",
          "name": "newMultiplierBatchFee",
          "type": "uint16"
        }
      ],
      "name": "setMultiplierBatchFee",
      "outputs": [],
      "stateMutability": "nonpayable",
      "type": "function"
    },
    {
      "inputs": [
        {
          "internalType": "uint64",
          "name": "newPendingStateTimeout",
          "type": "uint64"
        }
      ],
      "name": "setPendingStateTimeout",
      "outputs": [],
      "stateMutability": "nonpayable",
      "type": "function"
    },
    {
      "inputs": [
        {
          "internalType": "address",
          "name": "newTrustedAggregator",
          "type": "address"
        }
      ],
      "name": "setTrustedAggregator",
      "outputs": [],
      "stateMutability": "nonpayable",
      "type": "function"
    },
    {
      "inputs": [
        {
          "internalType": "uint64",
          "name": "newTrustedAggregatorTimeout",
          "type": "uint64"
        }
      ],
      "name": "setTrustedAggregatorTimeout",
      "outputs": [],
      "stateMutability": "nonpayable",
      "type": "function"
    },
    {
      "inputs": [
        {
          "internalType": "address",
          "name": "newTrustedSequencer",
          "type": "address"
        }
      ],
      "name": "setTrustedSequencer",
      "outputs": [],
      "stateMutability": "nonpayable",
      "type": "function"
    },
    {
      "inputs": [
        {
          "internalType": "string",
          "name": "newTrustedSequencerURL",
          "type": "string"
        }
      ],
      "name": "setTrustedSequencerURL",
      "outputs": [],
      "stateMutability": "nonpayable",
      "type": "function"
    },
    {
      "inputs": [
        {
          "internalType": "uint64",
          "name": "newVerifyBatchTimeTarget",
          "type": "uint64"
        }
      ],
      "name": "setVerifyBatchTimeTarget",
      "outputs": [],
      "stateMutability": "nonpayable",
      "type": "function"
    },
    {
      "inputs": [
        {
          "internalType": "address",
          "name": "newPendingAdmin",
          "type": "address"
        }
      ],
      "name": "transferAdminRole",
      "outputs": [],
      "stateMutability": "nonpayable",
      "type": "function"
    },
    {
      "inputs": [
        {
          "internalType": "address",
          "name": "newOwner",
          "type": "address"
        }
      ],
      "name": "transferOwnership",
      "outputs": [],
      "stateMutability": "nonpayable",
      "type": "function"
    },
    {
      "inputs": [],
      "name": "trustedAggregator",
      "outputs": [
        {
          "internalType": "address",
          "name": "",
          "type": "address"
        }
      ],
      "stateMutability": "view",
      "type": "function"
    },
    {
      "inputs": [],
      "name": "trustedAggregatorTimeout",
      "outputs": [
        {
          "internalType": "uint64",
          "name": "",
          "type": "uint64"
        }
      ],
      "stateMutability": "view",
      "type": "function"
    },
    {
      "inputs": [],
      "name": "trustedSequencer",
      "outputs": [
        {
          "internalType": "address",
          "name": "",
          "type": "address"
        }
      ],
      "stateMutability": "view",
      "type": "function"
    },
    {
      "inputs": [],
      "name": "trustedSequencerURL",
      "outputs": [
        {
          "internalType": "string",
          "name": "",
          "type": "string"
        }
      ],
      "stateMutability": "view",
      "type": "function"
    },
    {
      "inputs": [],
      "name": "verifyBatchTimeTarget",
      "outputs": [
        {
          "internalType": "uint64",
          "name": "",
          "type": "uint64"
        }
      ],
      "stateMutability": "view",
      "type": "function"
    },
    {
      "inputs": [
        {
          "internalType": "uint64",
          "name": "pendingStateNum",
          "type": "uint64"
        },
        {
          "internalType": "uint64",
          "name": "initNumBatch",
          "type": "uint64"
        },
        {
          "internalType": "uint64",
          "name": "finalNewBatch",
          "type": "uint64"
        },
        {
          "internalType": "bytes32",
          "name": "newLocalExitRoot",
          "type": "bytes32"
        },
        {
          "internalType": "bytes32",
          "name": "newStateRoot",
          "type": "bytes32"
        },
        {
          "internalType": "bytes32[24]",
          "name": "proof",
          "type": "bytes32[24]"
        }
      ],
      "name": "verifyBatches",
      "outputs": [],
      "stateMutability": "nonpayable",
      "type": "function"
    },
    {
      "inputs": [
        {
          "internalType": "uint64",
          "name": "pendingStateNum",
          "type": "uint64"
        },
        {
          "internalType": "uint64",
          "name": "initNumBatch",
          "type": "uint64"
        },
        {
          "internalType": "uint64",
          "name": "finalNewBatch",
          "type": "uint64"
        },
        {
          "internalType": "bytes32",
          "name": "newLocalExitRoot",
          "type": "bytes32"
        },
        {
          "internalType": "bytes32",
          "name": "newStateRoot",
          "type": "bytes32"
        },
        {
          "internalType": "bytes32[24]",
          "name": "proof",
          "type": "bytes32[24]"
        }
      ],
      "name": "verifyBatchesTrustedAggregator",
      "outputs": [],
      "stateMutability": "nonpayable",
      "type": "function"
    }
  ],
  "bytecode": "0x61014060405234801562000011575f80fd5b5060405162005e7f38038062005e7f8339810160408190526200003491620000a2565b6001600160a01b0395861660c05293851660805291841660a05290921660e0526001600160401b039182166101005216610120526200012a565b6001600160a01b038116811462000083575f80fd5b50565b80516001600160401b03811681146200009d575f80fd5b919050565b5f805f805f8060c08789031215620000b8575f80fd5b8651620000c5816200006e565b6020880151909650620000d8816200006e565b6040880151909550620000eb816200006e565b6060880151909450620000fe816200006e565b92506200010e6080880162000086565b91506200011e60a0880162000086565b90509295509295509295565b60805160a05160c05160e0516101005161012051615c8f620001f05f395f818161066f01528181610dd301526130d801525f81816107db0152610da901525f81816107a1015281816124ba0152818161376a0152614ada01525f818161095901528181610f450152818161111001528181611935015281816125360152818161394b015261469401525f8181610a0601528181613ffd015261444b01525f818161089601528181611e1a01528181612ae70152818161392001526140e90152615c8f5ff3fe608060405234801561000f575f80fd5b50600436106103a9575f3560e01c80638c3d7301116101ea578063c754c7ed11610114578063e7a7ed02116100a9578063f14916d611610079578063f14916d614610a68578063f2fde38b14610a7b578063f851a44014610a8e578063f8b823e414610aae575f80fd5b8063e7a7ed02146109d1578063e8bf92ed14610a01578063eaeb077b14610a28578063ed6b010414610a3b575f80fd5b8063d2e129f9116100e4578063d2e129f91461097b578063d8d1091b1461098e578063d939b315146109a1578063dbc16976146109c9575f80fd5b8063c754c7ed146108e6578063c89e42df14610912578063cfa8ed4714610925578063d02103ca14610954575f80fd5b8063ada8f9191161018a578063b6b0b0971161015a578063b6b0b09714610891578063ba58ae39146108b8578063c00e0dc9146108cb578063c0ed84e0146108de575f80fd5b8063ada8f919146107c3578063adc879e9146107d6578063afd23cbe146107fd578063b4d63f581461082b575f80fd5b80639aa972a3116101c55780639aa972a3146107635780639c9f3dfe14610776578063a066215c14610789578063a3c573eb1461079c575f80fd5b80638c3d7301146107355780638da5cb5b1461073d57806399f5634e1461075b575f80fd5b80634a1a89a7116102d65780636b8616ce1161026b5780637fcb36531161023b5780637fcb365314610656578063831c7ead1461066a578063837a473814610691578063841b24d714610705575f80fd5b80636b8616ce146106095780636ff512cc14610628578063715018a61461063b5780637215541a14610643575f80fd5b8063542028d5116102a6578063542028d5146105de5780635ec91958146105e657806360469169146105ee578063621dd411146105f6575f80fd5b80634a1a89a71461056b5780634a910e6a1461058b5780634e4877061461059e5780635392c5e0146105b1575f80fd5b80632a9f208f1161034c578063394218e91161031c578063394218e9146104fc578063423fa8561461050f578063456052671461052f578063458c047714610557575f80fd5b80632a9f208f146104af5780632b0006fa146104c35780632c1f816a146104d6578063383b3be8146104e9575f80fd5b80631816b7e5116103875780631816b7e514610416578063220d78991461042b578063267822471461043e5780632987898314610483575f80fd5b80630a0d9fbe146103ad578063107bf28c146103e457806315064c96146103f9575b5f80fd5b606f546103c690610100900467ffffffffffffffff1681565b60405167ffffffffffffffff90911681526020015b60405180910390f35b6103ec610ab7565b6040516103db91906151d6565b606f546104069060ff1681565b60405190151581526020016103db565b6104296104243660046151ef565b610b43565b005b6103ec610439366004615227565b610c5b565b607b5461045e9073ffffffffffffffffffffffffffffffffffffffff1681565b60405173ffffffffffffffffffffffffffffffffffffffff90911681526020016103db565b60745461045e9068010000000000000000900473ffffffffffffffffffffffffffffffffffffffff1681565b6073546103c69067ffffffffffffffff1681565b6104296104d1366004615287565b610e31565b6104296104e43660046152eb565b610ffb565b6104066104f7366004615360565b611203565b61042961050a366004615360565b611258565b6073546103c69068010000000000000000900467ffffffffffffffff1681565b6073546103c690700100000000000000000000000000000000900467ffffffffffffffff1681565b6079546103c69067ffffffffffffffff1681565b6079546103c69068010000000000000000900467ffffffffffffffff1681565b610429610599366004615360565b6113dc565b6104296105ac366004615360565b61148f565b6105d06105bf366004615360565b60756020525f908152604090205481565b6040519081526020016103db565b6103ec611613565b610429611620565b6105d061171f565b610429610604366004615287565b611734565b6105d0610617366004615360565b60716020525f908152604090205481565b61042961063636600461539c565b611ab2565b610429611b87565b610429610651366004615360565b611b9a565b6074546103c69067ffffffffffffffff1681565b6103c67f000000000000000000000000000000000000000000000000000000000000000081565b6106d961069f3660046153b5565b60786020525f908152604090208054600182015460029092015467ffffffffffffffff808316936801000000000000000090930416919084565b6040805167ffffffffffffffff95861681529490931660208501529183015260608201526080016103db565b6079546103c6907801000000000000000000000000000000000000000000000000900467ffffffffffffffff1681565b610429611d07565b60335473ffffffffffffffffffffffffffffffffffffffff1661045e565b6105d0611dd3565b6104296107713660046152eb565b611f26565b610429610784366004615360565b611fd6565b610429610797366004615360565b612152565b61045e7f000000000000000000000000000000000000000000000000000000000000000081565b6104296107d136600461539c565b612258565b6103c67f000000000000000000000000000000000000000000000000000000000000000081565b606f54610818906901000000000000000000900461ffff1681565b60405161ffff90911681526020016103db565b61086b610839366004615360565b60726020525f90815260409020805460019091015467ffffffffffffffff808216916801000000000000000090041683565b6040805193845267ffffffffffffffff92831660208501529116908201526060016103db565b61045e7f000000000000000000000000000000000000000000000000000000000000000081565b6104066108c63660046153b5565b61231c565b6104296108d9366004615414565b6123a4565b6103c6612b58565b607b546103c69074010000000000000000000000000000000000000000900467ffffffffffffffff1681565b610429610920366004615540565b612bab565b606f5461045e906b010000000000000000000000900473ffffffffffffffffffffffffffffffffffffffff1681565b61045e7f000000000000000000000000000000000000000000000000000000000000000081565b6104296109893660046155b0565b612c38565b61042961099c36600461565b565b61317b565b6079546103c690700100000000000000000000000000000000900467ffffffffffffffff1681565b610429613717565b6073546103c6907801000000000000000000000000000000000000000000000000900467ffffffffffffffff1681565b61045e7f000000000000000000000000000000000000000000000000000000000000000081565b610429610a3636600461569a565b6137eb565b607b54610406907c0100000000000000000000000000000000000000000000000000000000900460ff1681565b610429610a7636600461539c565b613bdb565b610429610a8936600461539c565b613cad565b607a5461045e9073ffffffffffffffffffffffffffffffffffffffff1681565b6105d060705481565b60778054610ac4906156e2565b80601f0160208091040260200160405190810160405280929190818152602001828054610af0906156e2565b8015610b3b5780601f10610b1257610100808354040283529160200191610b3b565b820191905f5260205f20905b815481529060010190602001808311610b1e57829003601f168201915b505050505081565b607a5473ffffffffffffffffffffffffffffffffffffffff163314610b94576040517f4755657900000000000000000000000000000000000000000000000000000000815260040160405180910390fd5b6103e88161ffff161080610bad57506103ff8161ffff16115b15610be4576040517f4c2533c800000000000000000000000000000000000000000000000000000000815260040160405180910390fd5b606f80547fffffffffffffffffffffffffffffffffffffffffff0000ffffffffffffffffff16690100000000000000000061ffff8416908102919091179091556040519081527f7019933d795eba185c180209e8ae8bffbaa25bcef293364687702c31f4d302c5906020015b60405180910390a150565b67ffffffffffffffff8086165f818152607260205260408082205493881682529020546060929115801590610c8e575081155b15610cc5576040517f6818c29e00000000000000000000000000000000000000000000000000000000815260040160405180910390fd5b80610cfc576040517f66385b5100000000000000000000000000000000000000000000000000000000815260040160405180910390fd5b610d058461231c565b610d3b576040517f176b913c00000000000000000000000000000000000000000000000000000000815260040160405180910390fd5b604080517fffffffffffffffffffffffffffffffffffffffff0000000000000000000000003360601b166020820152603481019690965260548601929092527fffffffffffffffff00000000000000000000000000000000000000000000000060c098891b811660748701527f0000000000000000000000000000000000000000000000000000000000000000891b8116607c8701527f0000000000000000000000000000000000000000000000000000000000000000891b81166084870152608c86019490945260ac85015260cc840194909452509290931b90911660ec830152805180830360d401815260f4909201905290565b60745468010000000000000000900473ffffffffffffffffffffffffffffffffffffffff163314610e8e576040517fbbcbbc0500000000000000000000000000000000000000000000000000000000815260040160405180910390fd5b610e9c868686868686613d61565b607480547fffffffffffffffffffffffffffffffffffffffffffffffff00000000000000001667ffffffffffffffff8681169182179092555f9081526075602052604090208390556079541615610f1657607980547fffffffffffffffffffffffffffffffff000000000000000000000000000000001690555b6040517f33d6247d000000000000000000000000000000000000000000000000000000008152600481018490527f000000000000000000000000000000000000000000000000000000000000000073ffffffffffffffffffffffffffffffffffffffff16906333d6247d906024015f604051808303815f87803b158015610f9b575f80fd5b505af1158015610fad573d5f803e3d5ffd5b505060405184815233925067ffffffffffffffff871691507fcb339b570a7f0b25afa7333371ff11192092a0aeace12b671f4c212f2815c6fe906020015b60405180910390a3505050505050565b60745468010000000000000000900473ffffffffffffffffffffffffffffffffffffffff163314611058576040517fbbcbbc0500000000000000000000000000000000000000000000000000000000815260040160405180910390fd5b6110678787878787878761411c565b607480547fffffffffffffffffffffffffffffffffffffffffffffffff00000000000000001667ffffffffffffffff8681169182179092555f90815260756020526040902083905560795416156110e157607980547fffffffffffffffffffffffffffffffff000000000000000000000000000000001690555b6040517f33d6247d000000000000000000000000000000000000000000000000000000008152600481018490527f000000000000000000000000000000000000000000000000000000000000000073ffffffffffffffffffffffffffffffffffffffff16906333d6247d906024015f604051808303815f87803b158015611166575f80fd5b505af1158015611178573d5f803e3d5ffd5b50506079805477ffffffffffffffffffffffffffffffffffffffffffffffff167a093a800000000000000000000000000000000000000000000000001790555050604051828152339067ffffffffffffffff8616907fcc1b5520188bf1dd3e63f98164b577c4d75c11a619ddea692112f0d1aec4cf729060200160405180910390a350505050505050565b60795467ffffffffffffffff8281165f90815260786020526040812054909242926112469270010000000000000000000000000000000090920481169116615760565b67ffffffffffffffff16111592915050565b607a5473ffffffffffffffffffffffffffffffffffffffff1633146112a9576040517f4755657900000000000000000000000000000000000000000000000000000000815260040160405180910390fd5b62093a8067ffffffffffffffff821611156112f0576040517f1d06e87900000000000000000000000000000000000000000000000000000000815260040160405180910390fd5b606f5460ff1661135f5760795467ffffffffffffffff780100000000000000000000000000000000000000000000000090910481169082161061135f576040517f401636df00000000000000000000000000000000000000000000000000000000815260040160405180910390fd5b6079805477ffffffffffffffffffffffffffffffffffffffffffffffff16780100000000000000000000000000000000000000000000000067ffffffffffffffff8416908102919091179091556040519081527f1f4fa24c2e4bad19a7f3ec5c5485f70d46c798461c2e684f55bbd0fc661373a190602001610c50565b60745468010000000000000000900473ffffffffffffffffffffffffffffffffffffffff16331461148357606f5460ff1615611444576040517f2f0047fc00000000000000000000000000000000000000000000000000000000815260040160405180910390fd5b61144d81611203565b611483576040517f0ce9e4a200000000000000000000000000000000000000000000000000000000815260040160405180910390fd5b61148c8161454b565b50565b607a5473ffffffffffffffffffffffffffffffffffffffff1633146114e0576040517f4755657900000000000000000000000000000000000000000000000000000000815260040160405180910390fd5b62093a8067ffffffffffffffff82161115611527576040517ff5e37f2f00000000000000000000000000000000000000000000000000000000815260040160405180910390fd5b606f5460ff1661159257607b5467ffffffffffffffff74010000000000000000000000000000000000000000909104811690821610611592576040517ff5e37f2f00000000000000000000000000000000000000000000000000000000815260040160405180910390fd5b607b80547fffffffff0000000000000000ffffffffffffffffffffffffffffffffffffffff167401000000000000000000000000000000000000000067ffffffffffffffff8416908102919091179091556040519081527fa7eb6cb8a613eb4e8bddc1ac3d61ec6cf10898760f0b187bcca794c6ca6fa40b90602001610c50565b60768054610ac4906156e2565b607a5473ffffffffffffffffffffffffffffffffffffffff163314611671576040517f4755657900000000000000000000000000000000000000000000000000000000815260040160405180910390fd5b607b547c0100000000000000000000000000000000000000000000000000000000900460ff166116cd576040517ff6ba91a100000000000000000000000000000000000000000000000000000000815260040160405180910390fd5b607b80547fffffff00ffffffffffffffffffffffffffffffffffffffffffffffffffffffff1690556040517f854dd6ce5a1445c4c54388b21cffd11cf5bba1b9e763aec48ce3da75d617412f905f90a1565b5f607054606461172f9190615788565b905090565b606f5460ff1615611771576040517f2f0047fc00000000000000000000000000000000000000000000000000000000815260040160405180910390fd5b60795467ffffffffffffffff8581165f9081526072602052604090206001015442926117bd92780100000000000000000000000000000000000000000000000090910481169116615760565b67ffffffffffffffff1611156117ff576040517f8a0704d300000000000000000000000000000000000000000000000000000000815260040160405180910390fd5b6103e861180c868661579f565b67ffffffffffffffff16111561184e576040517fb59f753a00000000000000000000000000000000000000000000000000000000815260040160405180910390fd5b61185c868686868686613d61565b61186584614758565b607954700100000000000000000000000000000000900467ffffffffffffffff165f036119a657607480547fffffffffffffffffffffffffffffffffffffffffffffffff00000000000000001667ffffffffffffffff8681169182179092555f908152607560205260409020839055607954161561190657607980547fffffffffffffffffffffffffffffffff000000000000000000000000000000001690555b6040517f33d6247d000000000000000000000000000000000000000000000000000000008152600481018490527f000000000000000000000000000000000000000000000000000000000000000073ffffffffffffffffffffffffffffffffffffffff16906333d6247d906024015f604051808303815f87803b15801561198b575f80fd5b505af115801561199d573d5f803e3d5ffd5b50505050611a74565b6119ae614932565b6079805467ffffffffffffffff16905f6119c7836157c0565b825467ffffffffffffffff9182166101009390930a92830292820219169190911790915560408051608081018252428316815287831660208083019182528284018981526060840189815260795487165f908152607890935294909120925183549251861668010000000000000000027fffffffffffffffffffffffffffffffff000000000000000000000000000000009093169516949094171781559151600183015551600290910155505b604051828152339067ffffffffffffffff8616907f9c72852172521097ba7e1482e6b44b351323df0155f97f4ea18fcec28e1f596690602001610feb565b607a5473ffffffffffffffffffffffffffffffffffffffff163314611b03576040517f4755657900000000000000000000000000000000000000000000000000000000815260040160405180910390fd5b606f80547fff0000000000000000000000000000000000000000ffffffffffffffffffffff166b01000000000000000000000073ffffffffffffffffffffffffffffffffffffffff8416908102919091179091556040519081527ff54144f9611984021529f814a1cb6a41e22c58351510a0d9f7e822618abb9cc090602001610c50565b611b8f6149e1565b611b985f614a62565b565b60335473ffffffffffffffffffffffffffffffffffffffff163314611cff575f611bc2612b58565b90508067ffffffffffffffff168267ffffffffffffffff1611611c11576040517f812a372d00000000000000000000000000000000000000000000000000000000815260040160405180910390fd5b60735467ffffffffffffffff6801000000000000000090910481169083161180611c56575067ffffffffffffffff8083165f9081526072602052604090206001015416155b15611c8d576040517f98c5c01400000000000000000000000000000000000000000000000000000000815260040160405180910390fd5b67ffffffffffffffff8083165f908152607260205260409020600101544291611cbb9162093a809116615760565b67ffffffffffffffff161115611cfd576040517fd257555a00000000000000000000000000000000000000000000000000000000815260040160405180910390fd5b505b61148c614ad8565b607b5473ffffffffffffffffffffffffffffffffffffffff163314611d58576040517fd1ec4b2300000000000000000000000000000000000000000000000000000000815260040160405180910390fd5b607b54607a80547fffffffffffffffffffffffff00000000000000000000000000000000000000001673ffffffffffffffffffffffffffffffffffffffff90921691821790556040519081527f056dc487bbf0795d0bbb1b4f0af523a855503cff740bfb4d5475f7a90c091e8e9060200160405180910390a1565b6040517f70a082310000000000000000000000000000000000000000000000000000000081523060048201525f90819073ffffffffffffffffffffffffffffffffffffffff7f000000000000000000000000000000000000000000000000000000000000000016906370a0823190602401602060405180830381865afa158015611e5f573d5f803e3d5ffd5b505050506040513d601f19601f82011682018060405250810190611e8391906157e6565b90505f611e8e612b58565b60735467ffffffffffffffff680100000000000000008204811691611ee6917001000000000000000000000000000000008204811691780100000000000000000000000000000000000000000000000090041661579f565b611ef09190615760565b611efa919061579f565b67ffffffffffffffff169050805f03611f15575f9250505090565b611f1f818361582a565b9250505090565b606f5460ff1615611f63576040517f2f0047fc00000000000000000000000000000000000000000000000000000000815260040160405180910390fd5b611f728787878787878761411c565b67ffffffffffffffff84165f908152607560209081526040918290205482519081529081018490527f1f44c21118c4603cfb4e1b621dbcfa2b73efcececee2b99b620b2953d33a7010910160405180910390a1611fcd614ad8565b50505050505050565b607a5473ffffffffffffffffffffffffffffffffffffffff163314612027576040517f4755657900000000000000000000000000000000000000000000000000000000815260040160405180910390fd5b62093a8067ffffffffffffffff8216111561206e576040517fcc96507000000000000000000000000000000000000000000000000000000000815260040160405180910390fd5b606f5460ff166120d55760795467ffffffffffffffff7001000000000000000000000000000000009091048116908216106120d5576040517f48a05a9000000000000000000000000000000000000000000000000000000000815260040160405180910390fd5b607980547fffffffffffffffff0000000000000000ffffffffffffffffffffffffffffffff1670010000000000000000000000000000000067ffffffffffffffff8416908102919091179091556040519081527fc4121f4e22c69632ebb7cf1f462be0511dc034f999b52013eddfb24aab765c7590602001610c50565b607a5473ffffffffffffffffffffffffffffffffffffffff1633146121a3576040517f4755657900000000000000000000000000000000000000000000000000000000815260040160405180910390fd5b620151808167ffffffffffffffff1611156121ea576040517fe067dfe800000000000000000000000000000000000000000000000000000000815260040160405180910390fd5b606f80547fffffffffffffffffffffffffffffffffffffffffffffff0000000000000000ff1661010067ffffffffffffffff8416908102919091179091556040519081527f1b023231a1ab6b5d93992f168fb44498e1a7e64cef58daff6f1c216de6a68c2890602001610c50565b607a5473ffffffffffffffffffffffffffffffffffffffff1633146122a9576040517f4755657900000000000000000000000000000000000000000000000000000000815260040160405180910390fd5b607b80547fffffffffffffffffffffffff00000000000000000000000000000000000000001673ffffffffffffffffffffffffffffffffffffffff83169081179091556040519081527fa5b56b7906fd0a20e3f35120dd8343db1e12e037a6c90111c7e42885e82a1ce690602001610c50565b5f67ffffffff0000000167ffffffffffffffff8316108015612353575067ffffffff00000001604083901c67ffffffffffffffff16105b8015612374575067ffffffff00000001608083901c67ffffffffffffffff16105b801561238b575067ffffffff0000000160c083901c105b1561239857506001919050565b505f919050565b919050565b606f5460ff16156123e1576040517f2f0047fc00000000000000000000000000000000000000000000000000000000815260040160405180910390fd5b606f546b010000000000000000000000900473ffffffffffffffffffffffffffffffffffffffff163314612441576040517f11e7be1500000000000000000000000000000000000000000000000000000000815260040160405180910390fd5b815f81900361247c576040517fcb591a5f00000000000000000000000000000000000000000000000000000000815260040160405180910390fd5b6103e88111156124b8576040517fb59f753a00000000000000000000000000000000000000000000000000000000815260040160405180910390fd5b7f000000000000000000000000000000000000000000000000000000000000000073ffffffffffffffffffffffffffffffffffffffff166379e2cf976040518163ffffffff1660e01b81526004015f604051808303815f87803b15801561251d575f80fd5b505af115801561252f573d5f803e3d5ffd5b505050505f7f000000000000000000000000000000000000000000000000000000000000000073ffffffffffffffffffffffffffffffffffffffff16635ca1e1656040518163ffffffff1660e01b8152600401602060405180830381865afa15801561259d573d5f803e3d5ffd5b505050506040513d601f19601f820116820180604052508101906125c191906157e6565b60735467ffffffffffffffff68010000000000000000820481165f818152607260205260408120549495504294919370010000000000000000000000000000000090049092169182905b87811015612917575f8b8b838181106126265761262661583d565b9050602002810190612638919061586a565b612641906158a6565b8051805160209091012060408201519192509067ffffffffffffffff1615612832578561266d816157c0565b9650505f81836020015184604001516040516020016126c493929190928352602083019190915260c01b7fffffffffffffffff00000000000000000000000000000000000000000000000016604082015260480190565b604080517fffffffffffffffffffffffffffffffffffffffffffffffffffffffffffffffe0818403018152918152815160209283012067ffffffffffffffff8a165f9081526071909352912054909150811461274c576040517fce3d755e00000000000000000000000000000000000000000000000000000000815260040160405180910390fd5b60208381015160408086015181519384018a905290830185905260608084019290925260c01b7fffffffffffffffff0000000000000000000000000000000000000000000000001660808301528d901b7fffffffffffffffffffffffffffffffffffffffff0000000000000000000000001660888201527f0100000000000000000000000000000000000000000000000000000000000000609c820152609d0160405160208183030381529060405280519060200120955060715f8867ffffffffffffffff1667ffffffffffffffff1681526020019081526020015f205f905550612902565b8151516201d4c01015612871576040517fa29a6c7c00000000000000000000000000000000000000000000000000000000815260040160405180910390fd5b604080516020810187905290810182905260608082018b905260c08a901b7fffffffffffffffff0000000000000000000000000000000000000000000000001660808301528c901b7fffffffffffffffffffffffffffffffffffffffff0000000000000000000000001660888201525f609c820152609d016040516020818303038152906040528051906020012094505b5050808061290f90615932565b91505061260b565b506129228785615760565b60735490945067ffffffffffffffff78010000000000000000000000000000000000000000000000009091048116908416111561298b576040517fc630a00d00000000000000000000000000000000000000000000000000000000815260040160405180910390fd5b604080516060810182528381524267ffffffffffffffff908116602080840191825260738054680100000000000000009081900485168688019081528b86165f8181526072909552979093209551865592516001909501805492519585167fffffffffffffffffffffffffffffffff0000000000000000000000000000000090931692909217948416830294909417905582547fffffffffffffffffffffffffffffffff0000000000000000ffffffffffffffff169302929092179055879082811690851614612abd57612a5f828561579f565b612a739067ffffffffffffffff1682615969565b607380547fffffffffffffffff0000000000000000ffffffffffffffffffffffffffffffff1670010000000000000000000000000000000067ffffffffffffffff88160217905590505b612b0f333083607054612ad09190615788565b73ffffffffffffffffffffffffffffffffffffffff7f000000000000000000000000000000000000000000000000000000000000000016929190614b5b565b612b17614932565b60405167ffffffffffffffff8616907f303446e6a8cb73c83dff421c0b1d5e5ce0719dab1bff13660fc254e58cc17fce905f90a25050505050505050505050565b6079545f9067ffffffffffffffff1615612b9a575060795467ffffffffffffffff9081165f908152607860205260409020546801000000000000000090041690565b5060745467ffffffffffffffff1690565b607a5473ffffffffffffffffffffffffffffffffffffffff163314612bfc576040517f4755657900000000000000000000000000000000000000000000000000000000815260040160405180910390fd5b6076612c0882826159c9565b507f6b8f723a4c7a5335cafae8a598a0aa0301be1387c037dccc085b62add6448b2081604051610c5091906151d6565b5f54610100900460ff1615808015612c5657505f54600160ff909116105b80612c6f5750303b158015612c6f57505f5460ff166001145b612d00576040517f08c379a000000000000000000000000000000000000000000000000000000000815260206004820152602e60248201527f496e697469616c697a61626c653a20636f6e747261637420697320616c72656160448201527f647920696e697469616c697a656400000000000000000000000000000000000060648201526084015b60405180910390fd5b5f80547fffffffffffffffffffffffffffffffffffffffffffffffffffffffffffffff001660011790558015612d5c575f80547fffffffffffffffffffffffffffffffffffffffffffffffffffffffffffff00ff166101001790555b612d69602088018861539c565b607a80547fffffffffffffffffffffffff00000000000000000000000000000000000000001673ffffffffffffffffffffffffffffffffffffffff92909216919091179055612dbe604088016020890161539c565b606f805473ffffffffffffffffffffffffffffffffffffffff929092166b010000000000000000000000027fff0000000000000000000000000000000000000000ffffffffffffffffffffff909216919091179055612e23608088016060890161539c565b6074805473ffffffffffffffffffffffffffffffffffffffff9290921668010000000000000000027fffffffff0000000000000000000000000000000000000000ffffffffffffffff9092169190911790555f805260756020527ff9e3fbf150b7a0077118526f473c53cb4734f166167e2c6213e3567dd390b4ad8690556076612ead86826159c9565b506077612eba85826159c9565b5062093a80612ecf6060890160408a01615360565b67ffffffffffffffff161115612f11576040517fcc96507000000000000000000000000000000000000000000000000000000000815260040160405180910390fd5b612f216060880160408901615360565b6079805467ffffffffffffffff92909216700100000000000000000000000000000000027fffffffffffffffff0000000000000000ffffffffffffffffffffffffffffffff90921691909117905562093a80612f8360a0890160808a01615360565b67ffffffffffffffff161115612fc5576040517f1d06e87900000000000000000000000000000000000000000000000000000000815260040160405180910390fd5b612fd560a0880160808901615360565b6079805477ffffffffffffffffffffffffffffffffffffffffffffffff16780100000000000000000000000000000000000000000000000067ffffffffffffffff939093169290920291909117905567016345785d8a0000607055606f80547fffffffffffffffffffffffffffffffffffffffffff00000000000000000000ff166a03ea000000000000070800179055607b80547fffffff000000000000000000ffffffffffffffffffffffffffffffffffffffff167c01000000000006978000000000000000000000000000000000000000001790556130b4614c3d565b7fed7be53c9f1a96a481223b15568a5b1a475e01a74b347d6ca187c8bf0c078cd65f7f000000000000000000000000000000000000000000000000000000000000000085856040516131099493929190615b28565b60405180910390a18015611fcd575f80547fffffffffffffffffffffffffffffffffffffffffffffffffffffffffffff00ff169055604051600181527f7f26b83ff96e1f2b6a682f133852f6798a09c465da95921460cefb38474024989060200160405180910390a150505050505050565b607b547c0100000000000000000000000000000000000000000000000000000000900460ff16156131d8576040517f24eff8c300000000000000000000000000000000000000000000000000000000815260040160405180910390fd5b606f5460ff1615613215576040517f2f0047fc00000000000000000000000000000000000000000000000000000000815260040160405180910390fd5b805f819003613250576040517fcb591a5f00000000000000000000000000000000000000000000000000000000815260040160405180910390fd5b6103e881111561328c576040517fb59f753a00000000000000000000000000000000000000000000000000000000815260040160405180910390fd5b60735467ffffffffffffffff780100000000000000000000000000000000000000000000000082048116916132d7918491700100000000000000000000000000000000900416615b5f565b111561330f576040517fc630a00d00000000000000000000000000000000000000000000000000000000815260040160405180910390fd5b60735467ffffffffffffffff68010000000000000000820481165f8181526072602052604081205491937001000000000000000000000000000000009004909216915b848110156135de575f87878381811061336d5761336d61583d565b905060200281019061337f919061586a565b613388906158a6565b905083613394816157c0565b825180516020918201208185015160408087015190519499509194505f936133f59386939101928352602083019190915260c01b7fffffffffffffffff00000000000000000000000000000000000000000000000016604082015260480190565b604080517fffffffffffffffffffffffffffffffffffffffffffffffffffffffffffffffe0818403018152918152815160209283012067ffffffffffffffff89165f9081526071909352912054909150811461347d576040517fce3d755e00000000000000000000000000000000000000000000000000000000815260040160405180910390fd5b67ffffffffffffffff86165f908152607160205260408120556134a1600189615969565b84036135105742607b60149054906101000a900467ffffffffffffffff1684604001516134ce9190615760565b67ffffffffffffffff161115613510576040517fc44a082100000000000000000000000000000000000000000000000000000000815260040160405180910390fd5b602083810151604080860151815193840189905290830185905260608084019290925260c01b7fffffffffffffffff00000000000000000000000000000000000000000000000016608083015233901b7fffffffffffffffffffffffffffffffffffffffff0000000000000000000000001660888201527f0100000000000000000000000000000000000000000000000000000000000000609c820152609d0160405160208183030381529060405280519060200120945050505080806135d690615932565b915050613352565b506135e98484615760565b6040805160608101825283815267ffffffffffffffff428116602080840191825260738054680100000000000000009081900485168688019081528589165f8181526072909552888520975188559451600190970180549151871683027fffffffffffffffffffffffffffffffff0000000000000000000000000000000090921697871697909717179095558054938916700100000000000000000000000000000000027fffffffffffffffff0000000000000000ffffffffffffffffffffffffffffffff958402959095167fffffffffffffffff00000000000000000000000000000000ffffffffffffffff9094169390931793909317909155915192955090917f648a61dd2438f072f5a1960939abd30f37aea80d2e94c9792ad142d3e0a490a49190a2505050505050565b607a5473ffffffffffffffffffffffffffffffffffffffff163314613768576040517f4755657900000000000000000000000000000000000000000000000000000000815260040160405180910390fd5b7f000000000000000000000000000000000000000000000000000000000000000073ffffffffffffffffffffffffffffffffffffffff1663dbc169766040518163ffffffff1660e01b81526004015f604051808303815f87803b1580156137cd575f80fd5b505af11580156137df573d5f803e3d5ffd5b50505050611b98614cdc565b607b547c0100000000000000000000000000000000000000000000000000000000900460ff1615613848576040517f24eff8c300000000000000000000000000000000000000000000000000000000815260040160405180910390fd5b606f5460ff1615613885576040517f2f0047fc00000000000000000000000000000000000000000000000000000000815260040160405180910390fd5b5f61388e61171f565b9050818111156138ca576040517f4732fdb500000000000000000000000000000000000000000000000000000000815260040160405180910390fd5b611388831115613906576040517fa29a6c7c00000000000000000000000000000000000000000000000000000000815260040160405180910390fd5b61394873ffffffffffffffffffffffffffffffffffffffff7f000000000000000000000000000000000000000000000000000000000000000016333084614b5b565b5f7f000000000000000000000000000000000000000000000000000000000000000073ffffffffffffffffffffffffffffffffffffffff16635ca1e1656040518163ffffffff1660e01b8152600401602060405180830381865afa1580156139b2573d5f803e3d5ffd5b505050506040513d601f19601f820116820180604052508101906139d691906157e6565b60738054919250780100000000000000000000000000000000000000000000000090910467ffffffffffffffff16906018613a10836157c0565b91906101000a81548167ffffffffffffffff021916908367ffffffffffffffff160217905550508484604051613a47929190615b72565b60408051918290038220602083015281018290527fffffffffffffffff0000000000000000000000000000000000000000000000004260c01b166060820152606801604080518083037fffffffffffffffffffffffffffffffffffffffffffffffffffffffffffffffe001815291815281516020928301206073547801000000000000000000000000000000000000000000000000900467ffffffffffffffff165f9081526071909352912055323303613b75576073546040805183815233602082015260609181018290525f91810191909152780100000000000000000000000000000000000000000000000090910467ffffffffffffffff16907ff94bb37db835f1ab585ee00041849a09b12cd081d77fa15ca070757619cbc9319060800160405180910390a2613bd4565b607360189054906101000a900467ffffffffffffffff1667ffffffffffffffff167ff94bb37db835f1ab585ee00041849a09b12cd081d77fa15ca070757619cbc93182338888604051613bcb9493929190615b81565b60405180910390a25b5050505050565b607a5473ffffffffffffffffffffffffffffffffffffffff163314613c2c576040517f4755657900000000000000000000000000000000000000000000000000000000815260040160405180910390fd5b607480547fffffffff0000000000000000000000000000000000000000ffffffffffffffff166801000000000000000073ffffffffffffffffffffffffffffffffffffffff8416908102919091179091556040519081527f61f8fec29495a3078e9271456f05fb0707fd4e41f7661865f80fc437d06681ca90602001610c50565b613cb56149e1565b73ffffffffffffffffffffffffffffffffffffffff8116613d58576040517f08c379a000000000000000000000000000000000000000000000000000000000815260206004820152602660248201527f4f776e61626c653a206e6577206f776e657220697320746865207a65726f206160448201527f64647265737300000000000000000000000000000000000000000000000000006064820152608401612cf7565b61148c81614a62565b5f80613d6b612b58565b905067ffffffffffffffff881615613e3a5760795467ffffffffffffffff9081169089161115613dc7576040517fbb14c20500000000000000000000000000000000000000000000000000000000815260040160405180910390fd5b67ffffffffffffffff8089165f908152607860205260409020600281015481549094509091898116680100000000000000009092041614613e34576040517f2bd2e3e700000000000000000000000000000000000000000000000000000000815260040160405180910390fd5b50613eda565b67ffffffffffffffff87165f90815260756020526040902054915081613e8c576040517f4997b98600000000000000000000000000000000000000000000000000000000815260040160405180910390fd5b8067ffffffffffffffff168767ffffffffffffffff161115613eda576040517f1e56e9e200000000000000000000000000000000000000000000000000000000815260040160405180910390fd5b8067ffffffffffffffff168667ffffffffffffffff1611613f27576040517fb9b18f5700000000000000000000000000000000000000000000000000000000815260040160405180910390fd5b5f613f358888888689610c5b565b90505f7f30644e72e131a029b85045b68181585d2833e84879b9709143e1f593f0000001600283604051613f699190615bb6565b602060405180830381855afa158015613f84573d5f803e3d5ffd5b5050506040513d601f19601f82011682018060405250810190613fa791906157e6565b613fb19190615bc7565b6040805160208101825282815290517f9121da8a00000000000000000000000000000000000000000000000000000000815291925073ffffffffffffffffffffffffffffffffffffffff7f00000000000000000000000000000000000000000000000000000000000000001691639121da8a9161403391899190600401615bda565b602060405180830381865afa15801561404e573d5f803e3d5ffd5b505050506040513d601f19601f820116820180604052508101906140729190615c14565b6140a8576040517f09bde33900000000000000000000000000000000000000000000000000000000815260040160405180910390fd5b614110336140b6858b61579f565b67ffffffffffffffff166140c8611dd3565b6140d29190615788565b73ffffffffffffffffffffffffffffffffffffffff7f0000000000000000000000000000000000000000000000000000000000000000169190614d6a565b50505050505050505050565b5f67ffffffffffffffff8816156141e85760795467ffffffffffffffff9081169089161115614177576040517fbb14c20500000000000000000000000000000000000000000000000000000000815260040160405180910390fd5b5067ffffffffffffffff8088165f9081526078602052604090206002810154815490928881166801000000000000000090920416146141e2576040517f2bd2e3e700000000000000000000000000000000000000000000000000000000815260040160405180910390fd5b50614283565b5067ffffffffffffffff85165f9081526075602052604090205480614239576040517f4997b98600000000000000000000000000000000000000000000000000000000815260040160405180910390fd5b60745467ffffffffffffffff9081169087161115614283576040517f1e56e9e200000000000000000000000000000000000000000000000000000000815260040160405180910390fd5b60795467ffffffffffffffff90811690881611806142b557508767ffffffffffffffff168767ffffffffffffffff1611155b806142dc575060795467ffffffffffffffff68010000000000000000909104811690881611155b15614313576040517fbfa7079f00000000000000000000000000000000000000000000000000000000815260040160405180910390fd5b67ffffffffffffffff8781165f90815260786020526040902054680100000000000000009004811690861614614375576040517f32a2a77f00000000000000000000000000000000000000000000000000000000815260040160405180910390fd5b5f6143838787878588610c5b565b90505f7f30644e72e131a029b85045b68181585d2833e84879b9709143e1f593f00000016002836040516143b79190615bb6565b602060405180830381855afa1580156143d2573d5f803e3d5ffd5b5050506040513d601f19601f820116820180604052508101906143f591906157e6565b6143ff9190615bc7565b6040805160208101825282815290517f9121da8a00000000000000000000000000000000000000000000000000000000815291925073ffffffffffffffffffffffffffffffffffffffff7f00000000000000000000000000000000000000000000000000000000000000001691639121da8a9161448191889190600401615bda565b602060405180830381865afa15801561449c573d5f803e3d5ffd5b505050506040513d601f19601f820116820180604052508101906144c09190615c14565b6144f6576040517f09bde33900000000000000000000000000000000000000000000000000000000815260040160405180910390fd5b67ffffffffffffffff89165f90815260786020526040902060020154859003614110576040517fa47276bd00000000000000000000000000000000000000000000000000000000815260040160405180910390fd5b60795467ffffffffffffffff680100000000000000009091048116908216111580614585575060795467ffffffffffffffff908116908216115b156145bc576040517fd086b70b00000000000000000000000000000000000000000000000000000000815260040160405180910390fd5b67ffffffffffffffff8181165f81815260786020908152604080832080546074805468010000000000000000928390049098167fffffffffffffffffffffffffffffffffffffffffffffffff000000000000000090981688179055600282015487865260759094529382902092909255607980547fffffffffffffffffffffffffffffffff0000000000000000ffffffffffffffff169390940292909217909255600182015490517f33d6247d00000000000000000000000000000000000000000000000000000000815260048101919091529091907f000000000000000000000000000000000000000000000000000000000000000073ffffffffffffffffffffffffffffffffffffffff16906333d6247d906024015f604051808303815f87803b1580156146ea575f80fd5b505af11580156146fc573d5f803e3d5ffd5b505050508267ffffffffffffffff168167ffffffffffffffff167f328d3c6c0fd6f1be0515e422f2d87e59f25922cbc2233568515a0c4bc3f8510e846002015460405161474b91815260200190565b60405180910390a3505050565b5f614761612b58565b9050815f80614770848461579f565b606f5467ffffffffffffffff91821692505f916147939161010090041642615969565b90505b8467ffffffffffffffff168467ffffffffffffffff161461481d5767ffffffffffffffff8085165f90815260726020526040902060018101549091168210156147fb57600181015468010000000000000000900467ffffffffffffffff169450614817565b614805868661579f565b67ffffffffffffffff1693505061481d565b50614796565b5f6148288484615969565b90508381101561487f57808403600c81116148435780614846565b600c5b9050806103e80a81606f60099054906101000a900461ffff1661ffff160a6070540281614875576148756157fd565b04607055506148ee565b838103600c81116148905780614893565b600c5b90505f816103e80a82606f60099054906101000a900461ffff1661ffff160a670de0b6b3a764000002816148c9576148c96157fd565b04905080607054670de0b6b3a764000002816148e7576148e76157fd565b0460705550505b683635c9adc5dea00000607054111561491357683635c9adc5dea00000607055611fcd565b633b9aca006070541015611fcd57633b9aca0060705550505050505050565b60795467ffffffffffffffff680100000000000000008204811691161115611b98576079545f9061497a9068010000000000000000900467ffffffffffffffff166001615760565b905061498581611203565b1561148c576079545f906002906149a790849067ffffffffffffffff1661579f565b6149b19190615c33565b6149bb9083615760565b90506149c681611203565b156149d8576149d48161454b565b5050565b6149d48261454b565b60335473ffffffffffffffffffffffffffffffffffffffff163314611b98576040517f08c379a000000000000000000000000000000000000000000000000000000000815260206004820181905260248201527f4f776e61626c653a2063616c6c6572206973206e6f7420746865206f776e65726044820152606401612cf7565b6033805473ffffffffffffffffffffffffffffffffffffffff8381167fffffffffffffffffffffffff0000000000000000000000000000000000000000831681179093556040519116919082907f8be0079c531659141344cd1fd0a4f28419497f9722a3daafe3b4186f6b6457e0905f90a35050565b7f000000000000000000000000000000000000000000000000000000000000000073ffffffffffffffffffffffffffffffffffffffff16632072f6c56040518163ffffffff1660e01b81526004015f604051808303815f87803b158015614b3d575f80fd5b505af1158015614b4f573d5f803e3d5ffd5b50505050611b98614dc5565b60405173ffffffffffffffffffffffffffffffffffffffff80851660248301528316604482015260648101829052614c379085907f23b872dd00000000000000000000000000000000000000000000000000000000906084015b604080517fffffffffffffffffffffffffffffffffffffffffffffffffffffffffffffffe08184030181529190526020810180517bffffffffffffffffffffffffffffffffffffffffffffffffffffffff167fffffffff0000000000000000000000000000000000000000000000000000000090931692909217909152614e57565b50505050565b5f54610100900460ff16614cd3576040517f08c379a000000000000000000000000000000000000000000000000000000000815260206004820152602b60248201527f496e697469616c697a61626c653a20636f6e7472616374206973206e6f74206960448201527f6e697469616c697a696e670000000000000000000000000000000000000000006064820152608401612cf7565b611b9833614a62565b606f5460ff16614d18576040517f5386698100000000000000000000000000000000000000000000000000000000815260040160405180910390fd5b606f80547fffffffffffffffffffffffffffffffffffffffffffffffffffffffffffffff001690556040517f1e5e34eea33501aecf2ebec9fe0e884a40804275ea7fe10b2ba084c8374308b3905f90a1565b60405173ffffffffffffffffffffffffffffffffffffffff8316602482015260448101829052614dc09084907fa9059cbb0000000000000000000000000000000000000000000000000000000090606401614bb5565b505050565b606f5460ff1615614e02576040517f2f0047fc00000000000000000000000000000000000000000000000000000000815260040160405180910390fd5b606f80547fffffffffffffffffffffffffffffffffffffffffffffffffffffffffffffff001660011790556040517f2261efe5aef6fedc1fd1550b25facc9181745623049c7901287030b9ad1a5497905f90a1565b5f614eb8826040518060400160405280602081526020017f5361666545524332303a206c6f772d6c6576656c2063616c6c206661696c65648152508573ffffffffffffffffffffffffffffffffffffffff16614f629092919063ffffffff16565b805190915015614dc05780806020019051810190614ed69190615c14565b614dc0576040517f08c379a000000000000000000000000000000000000000000000000000000000815260206004820152602a60248201527f5361666545524332303a204552433230206f7065726174696f6e20646964206e60448201527f6f742073756363656564000000000000000000000000000000000000000000006064820152608401612cf7565b6060614f7084845f85614f78565b949350505050565b60608247101561500a576040517f08c379a000000000000000000000000000000000000000000000000000000000815260206004820152602660248201527f416464726573733a20696e73756666696369656e742062616c616e636520666f60448201527f722063616c6c00000000000000000000000000000000000000000000000000006064820152608401612cf7565b5f808673ffffffffffffffffffffffffffffffffffffffff1685876040516150329190615bb6565b5f6040518083038185875af1925050503d805f811461506c576040519150601f19603f3d011682016040523d82523d5f602084013e615071565b606091505b50915091506150828783838761508d565b979650505050505050565b606083156151225782515f0361511b5773ffffffffffffffffffffffffffffffffffffffff85163b61511b576040517f08c379a000000000000000000000000000000000000000000000000000000000815260206004820152601d60248201527f416464726573733a2063616c6c20746f206e6f6e2d636f6e74726163740000006044820152606401612cf7565b5081614f70565b614f7083838151156151375781518083602001fd5b806040517f08c379a0000000000000000000000000000000000000000000000000000000008152600401612cf791906151d6565b5f5b8381101561518557818101518382015260200161516d565b50505f910152565b5f81518084526151a481602086016020860161516b565b601f017fffffffffffffffffffffffffffffffffffffffffffffffffffffffffffffffe0169290920160200192915050565b602081525f6151e8602083018461518d565b9392505050565b5f602082840312156151ff575f80fd5b813561ffff811681146151e8575f80fd5b803567ffffffffffffffff8116811461239f575f80fd5b5f805f805f60a0868803121561523b575f80fd5b61524486615210565b945061525260208701615210565b94979496505050506040830135926060810135926080909101359150565b806103008101831015615281575f80fd5b92915050565b5f805f805f806103a0878903121561529d575f80fd5b6152a687615210565b95506152b460208801615210565b94506152c260408801615210565b935060608701359250608087013591506152df8860a08901615270565b90509295509295509295565b5f805f805f805f6103c0888a031215615302575f80fd5b61530b88615210565b965061531960208901615210565b955061532760408901615210565b945061533560608901615210565b93506080880135925060a088013591506153528960c08a01615270565b905092959891949750929550565b5f60208284031215615370575f80fd5b6151e882615210565b803573ffffffffffffffffffffffffffffffffffffffff8116811461239f575f80fd5b5f602082840312156153ac575f80fd5b6151e882615379565b5f602082840312156153c5575f80fd5b5035919050565b5f8083601f8401126153dc575f80fd5b50813567ffffffffffffffff8111156153f3575f80fd5b6020830191508360208260051b850101111561540d575f80fd5b9250929050565b5f805f60408486031215615426575f80fd5b833567ffffffffffffffff81111561543c575f80fd5b615448868287016153cc565b909450925061545b905060208501615379565b90509250925092565b7f4e487b71000000000000000000000000000000000000000000000000000000005f52604160045260245ffd5b5f67ffffffffffffffff808411156154ab576154ab615464565b604051601f85017fffffffffffffffffffffffffffffffffffffffffffffffffffffffffffffffe0908116603f011681019082821181831017156154f1576154f1615464565b81604052809350858152868686011115615509575f80fd5b858560208301375f602087830101525050509392505050565b5f82601f830112615531575f80fd5b6151e883833560208501615491565b5f60208284031215615550575f80fd5b813567ffffffffffffffff811115615566575f80fd5b614f7084828501615522565b5f8083601f840112615582575f80fd5b50813567ffffffffffffffff811115615599575f80fd5b60208301915083602082850101111561540d575f80fd5b5f805f805f808688036101208112156155c7575f80fd5b60a08112156155d4575f80fd5b5086955060a0870135945060c087013567ffffffffffffffff808211156155f9575f80fd5b6156058a838b01615522565b955060e089013591508082111561561a575f80fd5b6156268a838b01615522565b945061010089013591508082111561563c575f80fd5b5061564989828a01615572565b979a9699509497509295939492505050565b5f806020838503121561566c575f80fd5b823567ffffffffffffffff811115615682575f80fd5b61568e858286016153cc565b90969095509350505050565b5f805f604084860312156156ac575f80fd5b833567ffffffffffffffff8111156156c2575f80fd5b6156ce86828701615572565b909790965060209590950135949350505050565b600181811c908216806156f657607f821691505b60208210810361572d577f4e487b71000000000000000000000000000000000000000000000000000000005f52602260045260245ffd5b50919050565b7f4e487b71000000000000000000000000000000000000000000000000000000005f52601160045260245ffd5b67ffffffffffffffff81811683821601908082111561578157615781615733565b5092915050565b808202811582820484141761528157615281615733565b67ffffffffffffffff82811682821603908082111561578157615781615733565b5f67ffffffffffffffff8083168181036157dc576157dc615733565b6001019392505050565b5f602082840312156157f6575f80fd5b5051919050565b7f4e487b71000000000000000000000000000000000000000000000000000000005f52601260045260245ffd5b5f82615838576158386157fd565b500490565b7f4e487b71000000000000000000000000000000000000000000000000000000005f52603260045260245ffd5b5f82357fffffffffffffffffffffffffffffffffffffffffffffffffffffffffffffffa183360301811261589c575f80fd5b9190910192915050565b5f606082360312156158b6575f80fd5b6040516060810167ffffffffffffffff82821081831117156158da576158da615464565b8160405284359150808211156158ee575f80fd5b50830136601f8201126158ff575f80fd5b61590e36823560208401615491565b8252506020830135602082015261592760408401615210565b604082015292915050565b5f7fffffffffffffffffffffffffffffffffffffffffffffffffffffffffffffffff820361596257615962615733565b5060010190565b8181038181111561528157615281615733565b601f821115614dc0575f81815260208120601f850160051c810160208610156159a25750805b601f850160051c820191505b818110156159c1578281556001016159ae565b505050505050565b815167ffffffffffffffff8111156159e3576159e3615464565b6159f7816159f184546156e2565b8461597c565b602080601f831160018114615a49575f8415615a135750858301515b7fffffffffffffffffffffffffffffffffffffffffffffffffffffffffffffffff600386901b1c1916600185901b1785556159c1565b5f858152602081207fffffffffffffffffffffffffffffffffffffffffffffffffffffffffffffffe08616915b82811015615a9557888601518255948401946001909101908401615a76565b5085821015615ad157878501517fffffffffffffffffffffffffffffffffffffffffffffffffffffffffffffffff600388901b60f8161c191681555b5050505050600190811b01905550565b81835281816020850137505f602082840101525f60207fffffffffffffffffffffffffffffffffffffffffffffffffffffffffffffffe0601f840116840101905092915050565b5f67ffffffffffffffff808716835280861660208401525060606040830152615b55606083018486615ae1565b9695505050505050565b8082018082111561528157615281615733565b818382375f9101908152919050565b84815273ffffffffffffffffffffffffffffffffffffffff84166020820152606060408201525f615b55606083018486615ae1565b5f825161589c81846020870161516b565b5f82615bd557615bd56157fd565b500690565b6103208101610300808584378201835f5b6001811015615c0a578151835260209283019290910190600101615beb565b5050509392505050565b5f60208284031215615c24575f80fd5b815180151581146151e8575f80fd5b5f67ffffffffffffffff80841680615c4d57615c4d6157fd565b9216919091049291505056fea2646970667358221220c1bba2a12efe116e21597e182ae83c49767a70ff696b4c924eaa8a3e168619fc64736f6c63430008140033",
  "linkReferences": {},
  "deployedLinkReferences": {}
}