{
  "_format": "hh-sol-artifact-1",
  "contractName": "PolygonZkEVM",
  "sourceName": "contracts/PolygonZkEVM.sol",
  "abi": [
    {
      "anonymous": false,
      "inputs": [
        {
          "indexed": false,
          "internalType": "address",
          "name": "newAdmin",
          "type": "address"
        }
      ],
      "name": "AcceptAdminRole",
      "type": "event"
    },
    {
      "anonymous": false,
      "inputs": [
        {
          "indexed": true,
          "internalType": "uint64",
          "name": "numBatch",
          "type": "uint64"
        },
        {
          "indexed": false,
          "internalType": "bytes32",
          "name": "stateRoot",
          "type": "bytes32"
        },
        {
          "indexed": true,
          "internalType": "uint64",
          "name": "pendingStateNum",
          "type": "uint64"
        }
      ],
      "name": "ConsolidatePendingState",
      "type": "event"
    },
    {
      "anonymous": false,
      "inputs": [],
      "name": "EmergencyStateActivated",
      "type": "event"
    },
    {
      "anonymous": false,
      "inputs": [],
      "name": "EmergencyStateDeactivated",
      "type": "event"
    },
    {
      "anonymous": false,
      "inputs": [
        {
          "indexed": true,
          "internalType": "uint64",
          "name": "forceBatchNum",
          "type": "uint64"
        },
        {
          "indexed": false,
          "internalType": "bytes32",
          "name": "lastGlobalExitRoot",
          "type": "bytes32"
        },
        {
          "indexed": false,
          "internalType": "address",
          "name": "sequencer",
          "type": "address"
        },
        {
          "indexed": false,
          "internalType": "bytes",
          "name": "transactions",
          "type": "bytes"
        }
      ],
      "name": "ForceBatch",
      "type": "event"
    },
    {
      "anonymous": false,
      "inputs": [
        {
          "indexed": false,
          "internalType": "uint8",
          "name": "version",
          "type": "uint8"
        }
      ],
      "name": "Initialized",
      "type": "event"
    },
    {
      "anonymous": false,
      "inputs": [
        {
          "indexed": true,
          "internalType": "uint64",
          "name": "numBatch",
          "type": "uint64"
        },
        {
          "indexed": false,
          "internalType": "bytes32",
          "name": "stateRoot",
          "type": "bytes32"
        },
        {
          "indexed": true,
          "internalType": "address",
          "name": "aggregator",
          "type": "address"
        }
      ],
      "name": "OverridePendingState",
      "type": "event"
    },
    {
      "anonymous": false,
      "inputs": [
        {
          "indexed": true,
          "internalType": "address",
          "name": "previousOwner",
          "type": "address"
        },
        {
          "indexed": true,
          "internalType": "address",
          "name": "newOwner",
          "type": "address"
        }
      ],
      "name": "OwnershipTransferred",
      "type": "event"
    },
    {
      "anonymous": false,
      "inputs": [
        {
          "indexed": false,
          "internalType": "bytes32",
          "name": "storedStateRoot",
          "type": "bytes32"
        },
        {
          "indexed": false,
          "internalType": "bytes32",
          "name": "provedStateRoot",
          "type": "bytes32"
        }
      ],
      "name": "ProveNonDeterministicPendingState",
      "type": "event"
    },
    {
      "anonymous": false,
      "inputs": [
        {
          "indexed": true,
          "internalType": "uint64",
          "name": "numBatch",
          "type": "uint64"
        }
      ],
      "name": "SequenceBatches",
      "type": "event"
    },
    {
      "anonymous": false,
      "inputs": [
        {
          "indexed": true,
          "internalType": "uint64",
          "name": "numBatch",
          "type": "uint64"
        }
      ],
      "name": "SequenceForceBatches",
      "type": "event"
    },
    {
      "anonymous": false,
      "inputs": [
        {
          "indexed": false,
          "internalType": "uint16",
          "name": "newMultiplierBatchFee",
          "type": "uint16"
        }
      ],
      "name": "SetMultiplierBatchFee",
      "type": "event"
    },
    {
      "anonymous": false,
      "inputs": [
        {
          "indexed": false,
          "internalType": "uint64",
          "name": "newPendingStateTimeout",
          "type": "uint64"
        }
      ],
      "name": "SetPendingStateTimeout",
      "type": "event"
    },
    {
      "anonymous": false,
      "inputs": [
        {
          "indexed": false,
          "internalType": "address",
          "name": "newTrustedAggregator",
          "type": "address"
        }
      ],
      "name": "SetTrustedAggregator",
      "type": "event"
    },
    {
      "anonymous": false,
      "inputs": [
        {
          "indexed": false,
          "internalType": "uint64",
          "name": "newTrustedAggregatorTimeout",
          "type": "uint64"
        }
      ],
      "name": "SetTrustedAggregatorTimeout",
      "type": "event"
    },
    {
      "anonymous": false,
      "inputs": [
        {
          "indexed": false,
          "internalType": "address",
          "name": "newTrustedSequencer",
          "type": "address"
        }
      ],
      "name": "SetTrustedSequencer",
      "type": "event"
    },
    {
      "anonymous": false,
      "inputs": [
        {
          "indexed": false,
          "internalType": "string",
          "name": "newTrustedSequencerURL",
          "type": "string"
        }
      ],
      "name": "SetTrustedSequencerURL",
      "type": "event"
    },
    {
      "anonymous": false,
      "inputs": [
        {
          "indexed": false,
          "internalType": "uint64",
          "name": "newVerifyBatchTimeTarget",
          "type": "uint64"
        }
      ],
      "name": "SetVerifyBatchTimeTarget",
      "type": "event"
    },
    {
      "anonymous": false,
      "inputs": [
        {
          "indexed": false,
          "internalType": "address",
          "name": "newPendingAdmin",
          "type": "address"
        }
      ],
      "name": "TransferAdminRole",
      "type": "event"
    },
    {
      "anonymous": false,
      "inputs": [
        {
          "indexed": true,
          "internalType": "uint64",
          "name": "numBatch",
          "type": "uint64"
        },
        {
          "indexed": false,
          "internalType": "bytes32",
          "name": "stateRoot",
          "type": "bytes32"
        },
        {
          "indexed": true,
          "internalType": "address",
          "name": "aggregator",
          "type": "address"
        }
      ],
      "name": "TrustedVerifyBatches",
      "type": "event"
    },
    {
      "anonymous": false,
      "inputs": [
        {
          "indexed": true,
          "internalType": "uint64",
          "name": "numBatch",
          "type": "uint64"
        },
        {
          "indexed": false,
          "internalType": "bytes32",
          "name": "stateRoot",
          "type": "bytes32"
        },
        {
          "indexed": true,
          "internalType": "address",
          "name": "aggregator",
          "type": "address"
        }
      ],
      "name": "VerifyBatches",
      "type": "event"
    },
    {
      "inputs": [],
      "name": "acceptAdminRole",
      "outputs": [],
      "stateMutability": "nonpayable",
      "type": "function"
    },
    {
      "inputs": [
        {
          "internalType": "uint64",
          "name": "sequencedBatchNum",
          "type": "uint64"
        }
      ],
      "name": "activateEmergencyState",
      "outputs": [],
      "stateMutability": "nonpayable",
      "type": "function"
    },
    {
      "inputs": [],
      "name": "admin",
      "outputs": [
        {
          "internalType": "address",
          "name": "",
          "type": "address"
        }
      ],
      "stateMutability": "view",
      "type": "function"
    },
    {
      "inputs": [],
      "name": "batchFee",
      "outputs": [
        {
          "internalType": "uint256",
          "name": "",
          "type": "uint256"
        }
      ],
      "stateMutability": "view",
      "type": "function"
    },
    {
      "inputs": [
        {
          "internalType": "uint64",
          "name": "",
          "type": "uint64"
        }
      ],
      "name": "batchNumToStateRoot",
      "outputs": [
        {
          "internalType": "bytes32",
          "name": "",
          "type": "bytes32"
        }
      ],
      "stateMutability": "view",
      "type": "function"
    },
    {
      "inputs": [],
      "name": "bridgeAddress",
      "outputs": [
        {
          "internalType": "contract IPolygonZkEVMBridge",
          "name": "",
          "type": "address"
        }
      ],
      "stateMutability": "view",
      "type": "function"
    },
    {
      "inputs": [],
      "name": "calculateRewardPerBatch",
      "outputs": [
        {
          "internalType": "uint256",
          "name": "",
          "type": "uint256"
        }
      ],
      "stateMutability": "view",
      "type": "function"
    },
    {
      "inputs": [],
      "name": "chainID",
      "outputs": [
        {
          "internalType": "uint64",
          "name": "",
          "type": "uint64"
        }
      ],
      "stateMutability": "view",
      "type": "function"
    },
    {
      "inputs": [
        {
          "internalType": "uint64",
          "name": "pendingStateNum",
          "type": "uint64"
        }
      ],
      "name": "consolidatePendingState",
      "outputs": [],
      "stateMutability": "nonpayable",
      "type": "function"
    },
    {
      "inputs": [],
      "name": "deactivateEmergencyState",
      "outputs": [],
      "stateMutability": "nonpayable",
      "type": "function"
    },
    {
      "inputs": [
        {
          "internalType": "bytes",
          "name": "transactions",
          "type": "bytes"
        },
        {
          "internalType": "uint256",
          "name": "maticAmount",
          "type": "uint256"
        }
      ],
      "name": "forceBatch",
      "outputs": [],
      "stateMutability": "nonpayable",
      "type": "function"
    },
    {
      "inputs": [
        {
          "internalType": "uint64",
          "name": "",
          "type": "uint64"
        }
      ],
      "name": "forcedBatches",
      "outputs": [
        {
          "internalType": "bytes32",
          "name": "",
          "type": "bytes32"
        }
      ],
      "stateMutability": "view",
      "type": "function"
    },
    {
      "inputs": [],
      "name": "getCurrentBatchFee",
      "outputs": [
        {
          "internalType": "uint256",
          "name": "",
          "type": "uint256"
        }
      ],
      "stateMutability": "view",
      "type": "function"
    },
    {
      "inputs": [
        {
          "internalType": "uint64",
          "name": "initNumBatch",
          "type": "uint64"
        },
        {
          "internalType": "uint64",
          "name": "finalNewBatch",
          "type": "uint64"
        },
        {
          "internalType": "bytes32",
          "name": "newLocalExitRoot",
          "type": "bytes32"
        },
        {
          "internalType": "bytes32",
          "name": "oldStateRoot",
          "type": "bytes32"
        },
        {
          "internalType": "bytes32",
          "name": "newStateRoot",
          "type": "bytes32"
        }
      ],
      "name": "getInputSnarkBytes",
      "outputs": [
        {
          "internalType": "bytes",
          "name": "",
          "type": "bytes"
        }
      ],
      "stateMutability": "view",
      "type": "function"
    },
    {
      "inputs": [],
      "name": "getLastVerifiedBatch",
      "outputs": [
        {
          "internalType": "uint64",
          "name": "",
          "type": "uint64"
        }
      ],
      "stateMutability": "view",
      "type": "function"
    },
    {
      "inputs": [],
      "name": "globalExitRootManager",
      "outputs": [
        {
          "internalType": "contract IPolygonZkEVMGlobalExitRoot",
          "name": "",
          "type": "address"
        }
      ],
      "stateMutability": "view",
      "type": "function"
    },
    {
      "inputs": [
        {
          "internalType": "contract IPolygonZkEVMGlobalExitRoot",
          "name": "_globalExitRootManager",
          "type": "address"
        },
        {
          "internalType": "contract IERC20Upgradeable",
          "name": "_matic",
          "type": "address"
        },
        {
          "internalType": "contract IVerifierRollup",
          "name": "_rollupVerifier",
          "type": "address"
        },
        {
          "internalType": "contract IPolygonZkEVMBridge",
          "name": "_bridgeAddress",
          "type": "address"
        },
        {
          "components": [
            {
              "internalType": "address",
              "name": "admin",
              "type": "address"
            },
            {
              "internalType": "uint64",
              "name": "chainID",
              "type": "uint64"
            },
            {
              "internalType": "address",
              "name": "trustedSequencer",
              "type": "address"
            },
            {
              "internalType": "uint64",
              "name": "pendingStateTimeout",
              "type": "uint64"
            },
            {
              "internalType": "address",
              "name": "trustedAggregator",
              "type": "address"
            },
            {
              "internalType": "uint64",
              "name": "trustedAggregatorTimeout",
              "type": "uint64"
            }
          ],
          "internalType": "struct PolygonZkEVM.InitializePackedParameters",
          "name": "initializePackedParameters",
          "type": "tuple"
        },
        {
          "internalType": "bytes32",
          "name": "genesisRoot",
          "type": "bytes32"
        },
        {
          "internalType": "string",
          "name": "_trustedSequencerURL",
          "type": "string"
        },
        {
          "internalType": "string",
          "name": "_networkName",
          "type": "string"
        }
      ],
      "name": "initialize",
      "outputs": [],
      "stateMutability": "nonpayable",
      "type": "function"
    },
    {
      "inputs": [],
      "name": "isEmergencyState",
      "outputs": [
        {
          "internalType": "bool",
          "name": "",
          "type": "bool"
        }
      ],
      "stateMutability": "view",
      "type": "function"
    },
    {
      "inputs": [
        {
          "internalType": "uint64",
          "name": "pendingStateNum",
          "type": "uint64"
        }
      ],
      "name": "isPendingStateConsolidable",
      "outputs": [
        {
          "internalType": "bool",
          "name": "",
          "type": "bool"
        }
      ],
      "stateMutability": "view",
      "type": "function"
    },
    {
      "inputs": [],
      "name": "lastBatchSequenced",
      "outputs": [
        {
          "internalType": "uint64",
          "name": "",
          "type": "uint64"
        }
      ],
      "stateMutability": "view",
      "type": "function"
    },
    {
      "inputs": [],
      "name": "lastForceBatch",
      "outputs": [
        {
          "internalType": "uint64",
          "name": "",
          "type": "uint64"
        }
      ],
      "stateMutability": "view",
      "type": "function"
    },
    {
      "inputs": [],
      "name": "lastForceBatchSequenced",
      "outputs": [
        {
          "internalType": "uint64",
          "name": "",
          "type": "uint64"
        }
      ],
      "stateMutability": "view",
      "type": "function"
    },
    {
      "inputs": [],
      "name": "lastPendingState",
      "outputs": [
        {
          "internalType": "uint64",
          "name": "",
          "type": "uint64"
        }
      ],
      "stateMutability": "view",
      "type": "function"
    },
    {
      "inputs": [],
      "name": "lastPendingStateConsolidated",
      "outputs": [
        {
          "internalType": "uint64",
          "name": "",
          "type": "uint64"
        }
      ],
      "stateMutability": "view",
      "type": "function"
    },
    {
      "inputs": [],
      "name": "lastTimestamp",
      "outputs": [
        {
          "internalType": "uint64",
          "name": "",
          "type": "uint64"
        }
      ],
      "stateMutability": "view",
      "type": "function"
    },
    {
      "inputs": [],
      "name": "lastVerifiedBatch",
      "outputs": [
        {
          "internalType": "uint64",
          "name": "",
          "type": "uint64"
        }
      ],
      "stateMutability": "view",
      "type": "function"
    },
    {
      "inputs": [],
      "name": "matic",
      "outputs": [
        {
          "internalType": "contract IERC20Upgradeable",
          "name": "",
          "type": "address"
        }
      ],
      "stateMutability": "view",
      "type": "function"
    },
    {
      "inputs": [],
      "name": "multiplierBatchFee",
      "outputs": [
        {
          "internalType": "uint16",
          "name": "",
          "type": "uint16"
        }
      ],
      "stateMutability": "view",
      "type": "function"
    },
    {
      "inputs": [],
      "name": "networkName",
      "outputs": [
        {
          "internalType": "string",
          "name": "",
          "type": "string"
        }
      ],
      "stateMutability": "view",
      "type": "function"
    },
    {
      "inputs": [
        {
          "internalType": "uint64",
          "name": "initPendingStateNum",
          "type": "uint64"
        },
        {
          "internalType": "uint64",
          "name": "finalPendingStateNum",
          "type": "uint64"
        },
        {
          "internalType": "uint64",
          "name": "initNumBatch",
          "type": "uint64"
        },
        {
          "internalType": "uint64",
          "name": "finalNewBatch",
          "type": "uint64"
        },
        {
          "internalType": "bytes32",
          "name": "newLocalExitRoot",
          "type": "bytes32"
        },
        {
          "internalType": "bytes32",
          "name": "newStateRoot",
          "type": "bytes32"
        },
        {
          "internalType": "uint256[2]",
          "name": "proofA",
          "type": "uint256[2]"
        },
        {
          "internalType": "uint256[2][2]",
          "name": "proofB",
          "type": "uint256[2][2]"
        },
        {
          "internalType": "uint256[2]",
          "name": "proofC",
          "type": "uint256[2]"
        }
      ],
      "name": "overridePendingState",
      "outputs": [],
      "stateMutability": "nonpayable",
      "type": "function"
    },
    {
      "inputs": [],
      "name": "owner",
      "outputs": [
        {
          "internalType": "address",
          "name": "",
          "type": "address"
        }
      ],
      "stateMutability": "view",
      "type": "function"
    },
    {
      "inputs": [],
      "name": "pendingAdmin",
      "outputs": [
        {
          "internalType": "address",
          "name": "",
          "type": "address"
        }
      ],
      "stateMutability": "view",
      "type": "function"
    },
    {
      "inputs": [],
      "name": "pendingStateTimeout",
      "outputs": [
        {
          "internalType": "uint64",
          "name": "",
          "type": "uint64"
        }
      ],
      "stateMutability": "view",
      "type": "function"
    },
    {
      "inputs": [
        {
          "internalType": "uint256",
          "name": "",
          "type": "uint256"
        }
      ],
      "name": "pendingStateTransitions",
      "outputs": [
        {
          "internalType": "uint64",
          "name": "timestamp",
          "type": "uint64"
        },
        {
          "internalType": "uint64",
          "name": "lastVerifiedBatch",
          "type": "uint64"
        },
        {
          "internalType": "bytes32",
          "name": "exitRoot",
          "type": "bytes32"
        },
        {
          "internalType": "bytes32",
          "name": "stateRoot",
          "type": "bytes32"
        }
      ],
      "stateMutability": "view",
      "type": "function"
    },
    {
      "inputs": [
        {
          "internalType": "uint64",
          "name": "initPendingStateNum",
          "type": "uint64"
        },
        {
          "internalType": "uint64",
          "name": "finalPendingStateNum",
          "type": "uint64"
        },
        {
          "internalType": "uint64",
          "name": "initNumBatch",
          "type": "uint64"
        },
        {
          "internalType": "uint64",
          "name": "finalNewBatch",
          "type": "uint64"
        },
        {
          "internalType": "bytes32",
          "name": "newLocalExitRoot",
          "type": "bytes32"
        },
        {
          "internalType": "bytes32",
          "name": "newStateRoot",
          "type": "bytes32"
        },
        {
          "internalType": "uint256[2]",
          "name": "proofA",
          "type": "uint256[2]"
        },
        {
          "internalType": "uint256[2][2]",
          "name": "proofB",
          "type": "uint256[2][2]"
        },
        {
          "internalType": "uint256[2]",
          "name": "proofC",
          "type": "uint256[2]"
        }
      ],
      "name": "proveNonDeterministicPendingState",
      "outputs": [],
      "stateMutability": "nonpayable",
      "type": "function"
    },
    {
      "inputs": [],
      "name": "renounceOwnership",
      "outputs": [],
      "stateMutability": "nonpayable",
      "type": "function"
    },
    {
      "inputs": [],
      "name": "rollupVerifier",
      "outputs": [
        {
          "internalType": "contract IVerifierRollup",
          "name": "",
          "type": "address"
        }
      ],
      "stateMutability": "view",
      "type": "function"
    },
    {
      "inputs": [
        {
          "components": [
            {
              "internalType": "bytes",
              "name": "transactions",
              "type": "bytes"
            },
            {
              "internalType": "bytes32",
              "name": "globalExitRoot",
              "type": "bytes32"
            },
            {
              "internalType": "uint64",
              "name": "timestamp",
              "type": "uint64"
            },
            {
              "internalType": "uint64",
              "name": "minForcedTimestamp",
              "type": "uint64"
            }
          ],
          "internalType": "struct PolygonZkEVM.BatchData[]",
          "name": "batches",
          "type": "tuple[]"
        }
      ],
      "name": "sequenceBatches",
      "outputs": [],
      "stateMutability": "nonpayable",
      "type": "function"
    },
    {
      "inputs": [
        {
          "components": [
            {
              "internalType": "bytes",
              "name": "transactions",
              "type": "bytes"
            },
            {
              "internalType": "bytes32",
              "name": "globalExitRoot",
              "type": "bytes32"
            },
            {
              "internalType": "uint64",
              "name": "minForcedTimestamp",
              "type": "uint64"
            }
          ],
          "internalType": "struct PolygonZkEVM.ForcedBatchData[]",
          "name": "batches",
          "type": "tuple[]"
        }
      ],
      "name": "sequenceForceBatches",
      "outputs": [],
      "stateMutability": "nonpayable",
      "type": "function"
    },
    {
      "inputs": [
        {
          "internalType": "uint64",
          "name": "",
          "type": "uint64"
        }
      ],
      "name": "sequencedBatches",
      "outputs": [
        {
          "internalType": "bytes32",
          "name": "accInputHash",
          "type": "bytes32"
        },
        {
          "internalType": "uint64",
          "name": "sequencedTimestamp",
          "type": "uint64"
        },
        {
          "internalType": "uint64",
          "name": "previousLastBatchSequenced",
          "type": "uint64"
        }
      ],
      "stateMutability": "view",
      "type": "function"
    },
    {
      "inputs": [
        {
          "internalType": "uint16",
          "name": "newMultiplierBatchFee",
          "type": "uint16"
        }
      ],
      "name": "setMultiplierBatchFee",
      "outputs": [],
      "stateMutability": "nonpayable",
      "type": "function"
    },
    {
      "inputs": [
        {
          "internalType": "uint64",
          "name": "newPendingStateTimeout",
          "type": "uint64"
        }
      ],
      "name": "setPendingStateTimeout",
      "outputs": [],
      "stateMutability": "nonpayable",
      "type": "function"
    },
    {
      "inputs": [
        {
          "internalType": "address",
          "name": "newTrustedAggregator",
          "type": "address"
        }
      ],
      "name": "setTrustedAggregator",
      "outputs": [],
      "stateMutability": "nonpayable",
      "type": "function"
    },
    {
      "inputs": [
        {
          "internalType": "uint64",
          "name": "newTrustedAggregatorTimeout",
          "type": "uint64"
        }
      ],
      "name": "setTrustedAggregatorTimeout",
      "outputs": [],
      "stateMutability": "nonpayable",
      "type": "function"
    },
    {
      "inputs": [
        {
          "internalType": "address",
          "name": "newTrustedSequencer",
          "type": "address"
        }
      ],
      "name": "setTrustedSequencer",
      "outputs": [],
      "stateMutability": "nonpayable",
      "type": "function"
    },
    {
      "inputs": [
        {
          "internalType": "string",
          "name": "newTrustedSequencerURL",
          "type": "string"
        }
      ],
      "name": "setTrustedSequencerURL",
      "outputs": [],
      "stateMutability": "nonpayable",
      "type": "function"
    },
    {
      "inputs": [
        {
          "internalType": "uint64",
          "name": "newVerifyBatchTimeTarget",
          "type": "uint64"
        }
      ],
      "name": "setVerifyBatchTimeTarget",
      "outputs": [],
      "stateMutability": "nonpayable",
      "type": "function"
    },
    {
      "inputs": [
        {
          "internalType": "address",
          "name": "newPendingAdmin",
          "type": "address"
        }
      ],
      "name": "transferAdminRole",
      "outputs": [],
      "stateMutability": "nonpayable",
      "type": "function"
    },
    {
      "inputs": [
        {
          "internalType": "address",
          "name": "newOwner",
          "type": "address"
        }
      ],
      "name": "transferOwnership",
      "outputs": [],
      "stateMutability": "nonpayable",
      "type": "function"
    },
    {
      "inputs": [],
      "name": "trustedAggregator",
      "outputs": [
        {
          "internalType": "address",
          "name": "",
          "type": "address"
        }
      ],
      "stateMutability": "view",
      "type": "function"
    },
    {
      "inputs": [],
      "name": "trustedAggregatorTimeout",
      "outputs": [
        {
          "internalType": "uint64",
          "name": "",
          "type": "uint64"
        }
      ],
      "stateMutability": "view",
      "type": "function"
    },
    {
      "inputs": [],
      "name": "trustedSequencer",
      "outputs": [
        {
          "internalType": "address",
          "name": "",
          "type": "address"
        }
      ],
      "stateMutability": "view",
      "type": "function"
    },
    {
      "inputs": [],
      "name": "trustedSequencerURL",
      "outputs": [
        {
          "internalType": "string",
          "name": "",
          "type": "string"
        }
      ],
      "stateMutability": "view",
      "type": "function"
    },
    {
      "inputs": [
        {
          "internalType": "uint64",
          "name": "pendingStateNum",
          "type": "uint64"
        },
        {
          "internalType": "uint64",
          "name": "initNumBatch",
          "type": "uint64"
        },
        {
          "internalType": "uint64",
          "name": "finalNewBatch",
          "type": "uint64"
        },
        {
          "internalType": "bytes32",
          "name": "newLocalExitRoot",
          "type": "bytes32"
        },
        {
          "internalType": "bytes32",
          "name": "newStateRoot",
          "type": "bytes32"
        },
        {
          "internalType": "uint256[2]",
          "name": "proofA",
          "type": "uint256[2]"
        },
        {
          "internalType": "uint256[2][2]",
          "name": "proofB",
          "type": "uint256[2][2]"
        },
        {
          "internalType": "uint256[2]",
          "name": "proofC",
          "type": "uint256[2]"
        }
      ],
      "name": "trustedVerifyBatches",
      "outputs": [],
      "stateMutability": "nonpayable",
      "type": "function"
    },
    {
      "inputs": [],
      "name": "verifyBatchTimeTarget",
      "outputs": [
        {
          "internalType": "uint64",
          "name": "",
          "type": "uint64"
        }
      ],
      "stateMutability": "view",
      "type": "function"
    },
    {
      "inputs": [
        {
          "internalType": "uint64",
          "name": "pendingStateNum",
          "type": "uint64"
        },
        {
          "internalType": "uint64",
          "name": "initNumBatch",
          "type": "uint64"
        },
        {
          "internalType": "uint64",
          "name": "finalNewBatch",
          "type": "uint64"
        },
        {
          "internalType": "bytes32",
          "name": "newLocalExitRoot",
          "type": "bytes32"
        },
        {
          "internalType": "bytes32",
          "name": "newStateRoot",
          "type": "bytes32"
        },
        {
          "internalType": "uint256[2]",
          "name": "proofA",
          "type": "uint256[2]"
        },
        {
          "internalType": "uint256[2][2]",
          "name": "proofB",
          "type": "uint256[2][2]"
        },
        {
          "internalType": "uint256[2]",
          "name": "proofC",
          "type": "uint256[2]"
        }
      ],
      "name": "verifyBatches",
      "outputs": [],
      "stateMutability": "nonpayable",
      "type": "function"
    }
  ],
  "bytecode": "0x608060405234801561001057600080fd5b50615575806100206000396000f3fe608060405234801561001057600080fd5b50600436106102f85760003560e01c80638c3d730111610193578063cfa8ed47116100e4578063e8bf92ed11610092578063e8bf92ed146107b2578063eaeb077b146107c5578063edc41121146107d8578063f14916d6146107eb578063f2fde38b146107fe578063f851a44014610811578063f8b823e41461082457600080fd5b8063cfa8ed4714610723578063d02103ca1461073d578063d8d1091b14610750578063d939b31514610763578063dbc169761461077d578063e11f3f1814610785578063e7a7ed021461079857600080fd5b8063ada8f91911610141578063ada8f91914610639578063adc879e91461064c578063afd23cbe14610666578063b4d63f581461068e578063b6b0b097146106ee578063c0ed84e014610708578063c89e42df1461071057600080fd5b80638c3d7301146105d75780638da5cb5b146105df57806399f5634e146105f05780639c9f3dfe146105f85780639f0d039d1461060b578063a066215c14610613578063a3c573eb1461062657600080fd5b8063458c04771161024d5780636ff512cc116101fb5780636ff512cc146104fb578063715018a61461050e5780637215541a1461051657806375c508b3146105295780637fcb36531461053c578063837a47381461054f578063841b24d7146105bd57600080fd5b8063458c0477146104525780634834a343146104655780634a1a89a7146104785780634a910e6a146104925780635392c5e0146104a5578063542028d5146104d35780636b8616ce146104db57600080fd5b806326782247116102aa57806326782247146103b257806329878983146103d2578063383b3be8146103e5578063394218e9146103f85780633c1582671461040b578063423fa8561461041e578063456052671461043857600080fd5b80630a0d9fbe146102fd578063107bf28c1461033257806315064c96146103475780631816b7e51461036457806319d8ac6114610379578063220d78991461038c578063248ca0531461039f575b600080fd5b6065546103159061010090046001600160401b031681565b6040516001600160401b0390911681526020015b60405180910390f35b61033a61082d565b60405161032991906147be565b6065546103549060ff1681565b6040519015158152602001610329565b6103776103723660046147d8565b6108bb565b005b606854610315906001600160401b031681565b61033a61039a366004614818565b6109e5565b6103776103ad36600461491c565b610b86565b6074546103c5906001600160a01b031681565b60405161032991906149f3565b606a546103c5906001600160a01b031681565b6103546103f3366004614a07565b610f2e565b610377610406366004614a07565b610f75565b610377610419366004614a6d565b611131565b60685461031590600160401b90046001600160401b031681565b60685461031590600160801b90046001600160401b031681565b607254610315906001600160401b031681565b610377610473366004614ad6565b61190f565b60725461031590600160401b90046001600160401b031681565b6103776104a0366004614a07565b611c59565b6104c56104b3366004614a07565b606d6020526000908152604090205481565b604051908152602001610329565b61033a611d93565b6104c56104e9366004614a07565b60666020526000908152604090205481565b610377610509366004614b63565b611da0565b610377611e1e565b610377610524366004614a07565b611e32565b610377610537366004614b80565b612039565b606954610315906001600160401b031681565b61059261055d366004614c1e565b6071602052600090815260409020805460018201546002909201546001600160401b0380831693600160401b90930416919084565b604080516001600160401b039586168152949093166020850152918301526060820152608001610329565b60725461031590600160c01b90046001600160401b031681565b6103776120c8565b6033546001600160a01b03166103c5565b6104c561219d565b610377610606366004614a07565b612296565b6075546104c5565b610377610621366004614a07565b612444565b6070546103c5906001600160a01b031681565b610377610647366004614b63565b61255f565b606c5461031590600160a01b90046001600160401b031681565b60655461067b90600160481b900461ffff1681565b60405161ffff9091168152602001610329565b6106c961069c366004614a07565b606760205260009081526040902080546001909101546001600160401b0380821691600160401b90041683565b604080519384526001600160401b039283166020850152911690820152606001610329565b6065546103c590600160581b90046001600160a01b031681565b6103156125d4565b61037761071e366004614c37565b612621565b6069546103c590600160401b90046001600160a01b031681565b606c546103c5906001600160a01b031681565b61037761075e366004614a6d565b612687565b60725461031590600160801b90046001600160401b031681565b610377612b3f565b610377610793366004614b80565b612bd9565b60685461031590600160c01b90046001600160401b031681565b606b546103c5906001600160a01b031681565b6103776107d3366004614c6b565b612d1e565b6103776107e6366004614ad6565b613029565b6103776107f9366004614b63565b613149565b61037761080c366004614b63565b6131be565b6073546103c5906001600160a01b031681565b6104c560755481565b606f805461083a90614ce2565b80601f016020809104026020016040519081016040528092919081815260200182805461086690614ce2565b80156108b35780601f10610888576101008083540402835291602001916108b3565b820191906000526020600020905b81548152906001019060200180831161089657829003601f168201915b505050505081565b6073546001600160a01b031633146108ee5760405162461bcd60e51b81526004016108e590614d1c565b60405180910390fd5b6103e88161ffff161015801561090957506104008161ffff16105b61098e5760405162461bcd60e51b815260206004820152604a60248201527f506f6c79676f6e5a6b45564d3a3a7365744d756c7469706c696572426174636860448201527f4665653a206e65774d756c7469706c696572426174636846656520696e636f72606482015269726563742072616e676560b01b608482015260a4016108e5565b6065805461ffff60481b1916600160481b61ffff8416908102919091179091556040519081527f7019933d795eba185c180209e8ae8bffbaa25bcef293364687702c31f4d302c5906020015b60405180910390a150565b6001600160401b03808616600081815260676020526040808220549388168252902054606092911580610a1757508115155b610a8b576040805162461bcd60e51b81526020600482015260248101919091527f506f6c79676f6e5a6b45564d3a3a676574496e707574536e61726b427974657360448201527f3a206f6c64416363496e7075744861736820646f6573206e6f7420657869737460648201526084016108e5565b80610b00576040805162461bcd60e51b81526020600482015260248101919091527f506f6c79676f6e5a6b45564d3a3a676574496e707574536e61726b427974657360448201527f3a206e6577416363496e7075744861736820646f6573206e6f7420657869737460648201526084016108e5565b606c54604080516001600160601b03193360601b166020820152603481019790975260548701939093526001600160c01b031960c0998a1b81166074880152600160a01b909104891b8116607c870152608486019490945260a485015260c4840194909452509290931b90911660e4830152805180830360cc01815260ec909201905290565b600054610100900460ff1615808015610ba65750600054600160ff909116105b80610bc05750303b158015610bc0575060005460ff166001145b610c235760405162461bcd60e51b815260206004820152602e60248201527f496e697469616c697a61626c653a20636f6e747261637420697320616c72656160448201526d191e481a5b9a5d1a585b1a5e995960921b60648201526084016108e5565b6000805460ff191660011790558015610c46576000805461ff0019166101001790555b606c80546001600160a01b03199081166001600160a01b038c81169190911790925560658054600160581b600160f81b031916600160581b8c851602179055606b805482168a841617905560708054909116918816919091179055610cae6020860186614b63565b607380546001600160a01b0319166001600160a01b0392909216919091179055610cde6060860160408701614b63565b606980546001600160a01b0392909216600160401b02600160401b600160e01b0319909216919091179055610d1960a0860160808701614b63565b606a80546001600160a01b0319166001600160a01b039290921691909117905560008052606d60209081527fda90043ba5b4096ba14704bc227ab0d3167da15b887e62ab2e76e37daa711356859055610d789060408701908701614a07565b606c80546001600160401b0392909216600160a01b0267ffffffffffffffff60a01b19909216919091179055606e610db08482614da5565b50606f610dbd8382614da5565b5062093a80610dd26080870160608801614a07565b6001600160401b03161115610df95760405162461bcd60e51b81526004016108e590614e64565b610e096080860160608701614a07565b607280546001600160401b0392909216600160801b0267ffffffffffffffff60801b1990921691909117905562093a80610e4960c0870160a08801614a07565b6001600160401b03161115610e705760405162461bcd60e51b81526004016108e590614e64565b610e8060c0860160a08701614a07565b607280546001600160c01b0316600160c01b6001600160401b039390931692909202919091179055670de0b6b3a7640000607555606580546affffffffffffffffffff0019166a03ea000000000000070800179055610edd613234565b8015610f23576000805461ff0019169055604051600181527f7f26b83ff96e1f2b6a682f133852f6798a09c465da95921460cefb38474024989060200160405180910390a15b505050505050505050565b6072546001600160401b0382811660009081526071602052604081205490924292610f6492600160801b90920481169116614ed3565b6001600160401b0316111592915050565b6073546001600160a01b03163314610f9f5760405162461bcd60e51b81526004016108e590614d1c565b62093a806001600160401b03821611156110385760405162461bcd60e51b815260206004820152604e60248201527f506f6c79676f6e5a6b45564d3a3a73657454727573746564416767726567617460448201527f6f7254696d656f75743a20457863656564206d61782068616c7420616767726560648201526d19d85d1a5bdb881d1a5b595bdd5d60921b608482015260a4016108e5565b60655460ff166110db576072546001600160401b03600160c01b9091048116908216106110db5760405162461bcd60e51b8152602060048201526044602482018190527f506f6c79676f6e5a6b45564d3a3a736574547275737465644167677265676174908201527f6f7254696d656f75743a204e65772074696d656f7574206d757374206265206c60648201526337bbb2b960e11b608482015260a4016108e5565b607280546001600160c01b0316600160c01b6001600160401b038416908102919091179091556040519081527f1f4fa24c2e4bad19a7f3ec5c5485f70d46c798461c2e684f55bbd0fc661373a1906020016109da565b60655460ff16156111545760405162461bcd60e51b81526004016108e590614efe565b606954600160401b90046001600160a01b031633146111db5760405162461bcd60e51b815260206004820152603a60248201527f506f6c79676f6e5a6b45564d3a3a6f6e6c795472757374656453657175656e6360448201527f65723a204f6e6c7920747275737465642073657175656e63657200000000000060648201526084016108e5565b808061124f5760405162461bcd60e51b815260206004820152603d60248201527f506f6c79676f6e5a6b45564d3a3a73657175656e6365426174636865733a204160448201527f74206c65617374206d7573742073657175656e6365203120626174636800000060648201526084016108e5565b6103e88111156112c9576040805162461bcd60e51b81526020600482015260248101919091527f506f6c79676f6e5a6b45564d3a3a73657175656e6365426174636865733a204360448201527f616e6e6f742073657175656e63652074686174206d616e79206261746368657360648201526084016108e5565b6068546001600160401b03600160401b82048116600081815260676020526040812054838516949293600160801b909304909216919082905b8681101561173f57600089898381811061131e5761131e614f66565b90506020028101906113309190614f7c565b61133990614f9c565b805180516020909101206060820151919250906001600160401b0316156114cf578561136481615028565b965050600081836020015184606001516040516020016113869392919061504e565b60408051601f1981840301815291815281516020928301206001600160401b038a1660009081526066909352912054909150811461141a5760405162461bcd60e51b815260206004820152603d602482015260008051602061552083398151915260448201527f6f7263656420626174636865732064617461206d757374206d6174636800000060648201526084016108e5565b6001600160401b0380881660009081526066602052604080822091909155606085015190850151908216911610156114c95760405162461bcd60e51b8152602060048201526058602482015260008051602061552083398151915260448201527f6f7263656420626174636865732074696d657374616d70206d757374206265206064820152773134b3b3b2b91037b91032b8bab0b6103a3430b71036b4b760411b608482015260a4016108e5565b50611645565b602082015115806115585750606c5460208301516040516312bd9b1960e11b81526001600160a01b039092169163257b3632916115129160040190815260200190565b6020604051808303816000875af1158015611531573d6000803e3d6000fd5b505050506040513d601f19601f820116820180604052508101906115559190615071565b15155b6115ca5760405162461bcd60e51b815260206004820152603a60248201527f506f6c79676f6e5a6b45564d3a3a73657175656e6365426174636865733a204760448201527f6c6f62616c206578697420726f6f74206d75737420657869737400000000000060648201526084016108e5565b815151620493e010156116455760405162461bcd60e51b815260206004820152603a60248201527f506f6c79676f6e5a6b45564d3a3a73657175656e6365426174636865733a205460448201527f72616e73616374696f6e73206279746573206f766572666c6f7700000000000060648201526084016108e5565b876001600160401b031682604001516001600160401b03161015801561167857504282604001516001600160401b031611155b6116ea5760405162461bcd60e51b815260206004820152603d60248201527f506f6c79676f6e5a6b45564d3a3a73657175656e6365426174636865733a205460448201527f696d657374616d70206d75737420626520696e736964652072616e676500000060648201526084016108e5565b8481836020015184604001513360405160200161170b95949392919061508a565b6040516020818303038152906040528051906020012094508160400151975050508080611737906150c9565b915050611302565b5061174a8685614ed3565b6068549094506001600160401b03600160c01b909104811690841611156117bf5760405162461bcd60e51b815260206004820152603560248201526000805160206155208339815191526044820152746f7263652062617463686573206f766572666c6f7760581b60648201526084016108e5565b60006117cb82856150e2565b6117de906001600160401b03168861510a565b60408051606081018252858152426001600160401b03908116602080840191825260688054600160401b9081900485168688019081528d861660008181526067909552979093209551865592516001909501805492519585166001600160801b03199384161795851684029590951790945583548c8416911617930292909217905590915082811690851614611894576068805467ffffffffffffffff60801b1916600160801b6001600160401b038716021790555b6118c83330836118a360755490565b6118ad9190615121565b606554600160581b90046001600160a01b03169291906132a8565b6118d0613319565b6040516001600160401b038616907f303446e6a8cb73c83dff421c0b1d5e5ce0719dab1bff13660fc254e58cc17fce90600090a2505050505050505050565b60655460ff16156119325760405162461bcd60e51b81526004016108e590614efe565b6072546001600160401b03878116600090815260676020526040902060010154429261196992600160c01b90910481169116614ed3565b6001600160401b031611156119f25760405162461bcd60e51b815260206004820152604360248201527f506f6c79676f6e5a6b45564d3a3a766572696679426174636865733a2054727560448201527f737465642061676772656761746f722074696d656f7574206e6f7420657870696064820152621c995960ea1b608482015260a4016108e5565b6103e86119ff88886150e2565b6001600160401b03161115611a7c5760405162461bcd60e51b815260206004820152603c60248201527f506f6c79676f6e5a6b45564d3a3a766572696679426174636865733a2043616e60448201527f6e6f74207665726966792074686174206d616e7920626174636865730000000060648201526084016108e5565b611a8c88888888888888886133bd565b611a95866138c0565b607254600160801b90046001600160401b0316600003611b5d576069805467ffffffffffffffff19166001600160401b038881169182179092556000908152606d602052604090208590556072541615611afa57607280546001600160801b03191690555b606c546040516333d6247d60e01b8152600481018790526001600160a01b03909116906333d6247d90602401600060405180830381600087803b158015611b4057600080fd5b505af1158015611b54573d6000803e3d6000fd5b50505050611c0e565b611b65613319565b607280546001600160401b0316906000611b7e83615028565b82546001600160401b039182166101009390930a92830292820219169190911790915560408051608081018252428316815289831660208083019182528284018b8152606084018b8152607254871660009081526071909352949091209251835492518616600160401b026001600160801b03199093169516949094171781559151600183015551600290910155505b60405184815233906001600160401b038816907f9c72852172521097ba7e1482e6b44b351323df0155f97f4ea18fcec28e1f5966906020015b60405180910390a35050505050505050565b606a546001600160a01b03163314611d875760655460ff1615611cef5760405162461bcd60e51b815260206004820152604260248201527f506f6c79676f6e5a6b45564d3a3a636f6e736f6c696461746550656e64696e6760448201527f53746174653a206f6e6c79206966206e6f7420656d657267656e637920737461606482015261746560f01b608482015260a4016108e5565b611cf881610f2e565b611d875760405162461bcd60e51b815260206004820152605460248201527f506f6c79676f6e5a6b45564d3a3a636f6e736f6c696461746550656e64696e6760448201527f53746174653a2050656e64696e67207374617465206973206e6f7420726561646064820152731e481d1bc818994818dbdb9cdbdb1a59185d195960621b608482015260a4016108e5565b611d9081613aa6565b50565b606e805461083a90614ce2565b6073546001600160a01b03163314611dca5760405162461bcd60e51b81526004016108e590614d1c565b60698054600160401b600160e01b031916600160401b6001600160a01b038416021790556040517ff54144f9611984021529f814a1cb6a41e22c58351510a0d9f7e822618abb9cc0906109da9083906149f3565b611e26613c77565b611e306000613cd1565b565b6033546001600160a01b03163314612031576000611e4e6125d4565b9050806001600160401b0316826001600160401b031611611ec55760405162461bcd60e51b815260206004820152603c60248201526000805160206154a083398151915260448201527f746174653a20426174636820616c72656164792076657269666965640000000060648201526084016108e5565b6068546001600160401b03600160401b909104811690831611801590611f0757506001600160401b038083166000908152606760205260409020600101541615155b611f805760405162461bcd60e51b815260206004820152605060248201526000805160206154a083398151915260448201527f746174653a204261746368206e6f742073657175656e636564206f72206e6f7460648201526f20656e64206f662073657175656e636560801b608482015260a4016108e5565b6001600160401b038083166000908152606760205260409020600101544291611fae9162093a809116614ed3565b6001600160401b0316111561202f5760405162461bcd60e51b815260206004820152604d60248201526000805160206154a083398151915260448201527f746174653a204167677265676174696f6e2068616c742074696d656f7574206960648201526c1cc81b9bdd08195e1c1a5c9959609a1b608482015260a4016108e5565b505b611d90613d23565b60655460ff161561205c5760405162461bcd60e51b81526004016108e590614efe565b61206d898989898989898989613d93565b6001600160401b0386166000908152606d60209081526040918290205482519081529081018690527f1f44c21118c4603cfb4e1b621dbcfa2b73efcececee2b99b620b2953d33a7010910160405180910390a1610f23613d23565b6074546001600160a01b031633146121445760405162461bcd60e51b815260206004820152603960248201527f506f6c79676f6e5a6b45564d3a3a61636365707441646d696e526f6c653a206360448201527830b63632b91034b9903737ba103832b73234b733a0b236b4b760391b60648201526084016108e5565b607454607380546001600160a01b0319166001600160a01b0390921691821790556040517f056dc487bbf0795d0bbb1b4f0af523a855503cff740bfb4d5475f7a90c091e8e91612193916149f3565b60405180910390a1565b6065546040516370a0823160e01b81526000918291600160581b9091046001600160a01b0316906370a08231906121d89030906004016149f3565b602060405180830381865afa1580156121f5573d6000803e3d6000fd5b505050506040513d601f19601f820116820180604052508101906122199190615071565b905060006122256125d4565b6068546001600160401b03600160401b820481169161225591600160801b8204811691600160c01b9004166150e2565b61225f9190614ed3565b61226991906150e2565b6001600160401b03169050806000036122855760009250505090565b61228f8183615156565b9250505090565b6073546001600160a01b031633146122c05760405162461bcd60e51b81526004016108e590614d1c565b62093a806001600160401b03821611156123545760405162461bcd60e51b815260206004820152604960248201527f506f6c79676f6e5a6b45564d3a3a73657450656e64696e67537461746554696d60448201527f656f75743a20457863656564206d61782068616c74206167677265676174696f6064820152681b881d1a5b595bdd5d60ba1b608482015260a4016108e5565b60655460ff166123e9576072546001600160401b03600160801b9091048116908216106123e95760405162461bcd60e51b815260206004820152603f60248201527f506f6c79676f6e5a6b45564d3a3a73657450656e64696e67537461746554696d60448201527f656f75743a204e65772074696d656f7574206d757374206265206c6f7765720060648201526084016108e5565b6072805467ffffffffffffffff60801b1916600160801b6001600160401b038416908102919091179091556040519081527fc4121f4e22c69632ebb7cf1f462be0511dc034f999b52013eddfb24aab765c75906020016109da565b6073546001600160a01b0316331461246e5760405162461bcd60e51b81526004016108e590614d1c565b62015180816001600160401b0316106125085760405162461bcd60e51b815260206004820152605060248201527f506f6c79676f6e5a6b45564d3a3a736574566572696679426174636854696d6560448201527f5461726765743a20736574566572696679426174636854696d6554617267657460648201526f20696e636f72726563742072616e676560801b608482015260a4016108e5565b6065805468ffffffffffffffff0019166101006001600160401b038416908102919091179091556040519081527f1b023231a1ab6b5d93992f168fb44498e1a7e64cef58daff6f1c216de6a68c28906020016109da565b6073546001600160a01b031633146125895760405162461bcd60e51b81526004016108e590614d1c565b607480546001600160a01b0319166001600160a01b0383161790556040517fa5b56b7906fd0a20e3f35120dd8343db1e12e037a6c90111c7e42885e82a1ce6906109da9083906149f3565b6072546000906001600160401b03161561261157506072546001600160401b03908116600090815260716020526040902054600160401b90041690565b506069546001600160401b031690565b6073546001600160a01b0316331461264b5760405162461bcd60e51b81526004016108e590614d1c565b606e6126578282614da5565b507f6b8f723a4c7a5335cafae8a598a0aa0301be1387c037dccc085b62add6448b20816040516109da91906147be565b60655460ff16156126aa5760405162461bcd60e51b81526004016108e590614efe565b808061270c5760405162461bcd60e51b815260206004820152603f602482015260008051602061550083398151915260448201527f65733a204d75737420666f726365206174206c6561737420312062617463680060648201526084016108e5565b6103e881111561277e5760405162461bcd60e51b8152602060048201526043602482015260008051602061550083398151915260448201527f65733a2043616e6e6f74207665726966792074686174206d616e79206261746360648201526268657360e81b608482015260a4016108e5565b6068546001600160401b03600160c01b82048116916127a6918491600160801b90041661516a565b11156128025760405162461bcd60e51b81526020600482015260376024820152600080516020615500833981519152604482015276195cce88119bdc98d94818985d18da081a5b9d985b1a59604a1b60648201526084016108e5565b6068546001600160401b03600160401b820481166000818152606760205260408120549193600160801b9004909216915b84811015612a4757600087878381811061284f5761284f614f66565b90506020028101906128619190615182565b61286a90615198565b90508361287681615028565b825180516020918201208185015160408087015190519499509194506000936128a2938693910161504e565b60408051601f1981840301815291815281516020928301206001600160401b0389166000908152606690935291205490915081146129415760405162461bcd60e51b8152602060048201526042602482015260008051602061550083398151915260448201527f65733a20466f7263656420626174636865732064617461206d757374206d61746064820152610c6d60f31b608482015260a4016108e5565b6001600160401b03861660009081526066602052604081205561296560018961510a565b84036129fc574262069780846040015161297f9190614ed3565b6001600160401b031611156129fc5760405162461bcd60e51b8152602060048201526049602482015260008051602061550083398151915260448201527f65733a20466f72636564206261746368206973206e6f7420696e2074696d656f6064820152681d5d081c195c9a5bd960ba1b608482015260a4016108e5565b848284602001514233604051602001612a1995949392919061508a565b6040516020818303038152906040528051906020012094505050508080612a3f906150c9565b915050612833565b50612a528484614ed3565b606880546001600160401b0342811667ffffffffffffffff199092168217808455604080516060810182528781526020808201958652600160401b9384900485168284019081528589166000818152606790935284832093518455965160019390930180549151871686026001600160801b031990921693871693909317179091558554938916600160801b0267ffffffffffffffff60801b1993860293909316600160401b600160c01b031990941693909317919091179093559151929550917f648a61dd2438f072f5a1960939abd30f37aea80d2e94c9792ad142d3e0a490a49190a2505050505050565b6073546001600160a01b03163314612b695760405162461bcd60e51b81526004016108e590614d1c565b607060009054906101000a90046001600160a01b03166001600160a01b031663dbc169766040518163ffffffff1660e01b8152600401600060405180830381600087803b158015612bb957600080fd5b505af1158015612bcd573d6000803e3d6000fd5b50505050611e306143c7565b606a546001600160a01b03163314612c035760405162461bcd60e51b81526004016108e590615213565b612c14898989898989898989613d93565b6069805467ffffffffffffffff19166001600160401b038881169182179092556000908152606d602052604090208590556072541615612c5f57607280546001600160801b03191690555b606c546040516333d6247d60e01b8152600481018790526001600160a01b03909116906333d6247d90602401600060405180830381600087803b158015612ca557600080fd5b505af1158015612cb9573d6000803e3d6000fd5b5050607280546001600160c01b031661127560c71b179055505060405184815233906001600160401b038816907fcc1b5520188bf1dd3e63f98164b577c4d75c11a619ddea692112f0d1aec4cf729060200160405180910390a3505050505050505050565b60655460ff1615612d415760405162461bcd60e51b81526004016108e590614efe565b6000612d4c60755490565b905081811115612db15760405162461bcd60e51b815260206004820152602a60248201527f506f6c79676f6e5a6b45564d3a3a666f72636542617463683a204e6f7420656e6044820152696f756768206d6174696360b01b60648201526084016108e5565b620493e0831115612e225760405162461bcd60e51b815260206004820152603560248201527f506f6c79676f6e5a6b45564d3a3a666f72636542617463683a205472616e73616044820152746374696f6e73206279746573206f766572666c6f7760581b60648201526084016108e5565b606554612e4190600160581b90046001600160a01b03163330846132a8565b606c5460408051633ed691ef60e01b815290516000926001600160a01b031691633ed691ef9160048083019260209291908290030181865afa158015612e8b573d6000803e3d6000fd5b505050506040513d601f19601f82011682018060405250810190612eaf9190615071565b60688054919250600160c01b9091046001600160401b0316906018612ed383615028565b91906101000a8154816001600160401b0302191690836001600160401b03160217905550508484604051612f08929190615270565b604051908190038120612f21918390429060200161504e565b60408051808303601f190181529181528151602092830120606854600160c01b90046001600160401b031660009081526066909352912055323303612fc557606854604080518381523360208201526060918101829052600091810191909152600160c01b9091046001600160401b0316907ff94bb37db835f1ab585ee00041849a09b12cd081d77fa15ca070757619cbc9319060800160405180910390a2613022565b606860189054906101000a90046001600160401b03166001600160401b03167ff94bb37db835f1ab585ee00041849a09b12cd081d77fa15ca070757619cbc931823388886040516130199493929190615280565b60405180910390a25b5050505050565b606a546001600160a01b031633146130535760405162461bcd60e51b81526004016108e590615213565b61306388888888888888886133bd565b6069805467ffffffffffffffff19166001600160401b038881169182179092556000908152606d6020526040902085905560725416156130ae57607280546001600160801b03191690555b606c546040516333d6247d60e01b8152600481018790526001600160a01b03909116906333d6247d90602401600060405180830381600087803b1580156130f457600080fd5b505af1158015613108573d6000803e3d6000fd5b50506040518681523392506001600160401b03891691507f0c0ce073a7d7b5850c04ccc4b20ee7d3179d5f57d0ac44399565792c0f72fce790602001611c47565b6073546001600160a01b031633146131735760405162461bcd60e51b81526004016108e590614d1c565b606a80546001600160a01b0319166001600160a01b0383161790556040517f61f8fec29495a3078e9271456f05fb0707fd4e41f7661865f80fc437d06681ca906109da9083906149f3565b6131c6613c77565b6001600160a01b03811661322b5760405162461bcd60e51b815260206004820152602660248201527f4f776e61626c653a206e6577206f776e657220697320746865207a65726f206160448201526564647265737360d01b60648201526084016108e5565b611d9081613cd1565b600054610100900460ff1661329f5760405162461bcd60e51b815260206004820152602b60248201527f496e697469616c697a61626c653a20636f6e7472616374206973206e6f74206960448201526a6e697469616c697a696e6760a81b60648201526084016108e5565b611e3033613cd1565b6040516001600160a01b03808516602483015283166044820152606481018290526133139085906323b872dd60e01b906084015b60408051601f198184030181529190526020810180516001600160e01b03166001600160e01b031990931692909217909152614474565b50505050565b6072546001600160401b03600160401b8204811691161115611e305760725460009061335690600160401b90046001600160401b03166001614ed3565b905061336181610f2e565b15611d90576072546000906002906133839084906001600160401b03166150e2565b61338d91906152c7565b6133979083614ed3565b90506133a281610f2e565b156133b4576133b081613aa6565b5050565b6133b082613aa6565b6000806133c86125d4565b90506001600160401b038a161561352e576072546001600160401b03908116908b1611156134805760405162461bcd60e51b815260206004820152605960248201527f506f6c79676f6e5a6b45564d3a3a5f766572696679426174636865733a20706560448201527f6e64696e6753746174654e756d206d757374206265206c657373206f7220657160648201527875616c207468616e206c61737450656e64696e67537461746560381b608482015260a4016108e5565b6001600160401b03808b1660009081526071602052604090206002810154815490945090918b8116600160401b90920416146135285760405162461bcd60e51b815260206004820152604d60248201526000805160206154c083398151915260448201527f69744e756d4261746368206d757374206d61746368207468652070656e64696e60648201526c0ce40e6e8c2e8ca40c4c2e8c6d609b1b608482015260a4016108e5565b50613654565b6001600160401b0389166000908152606d60205260409020549150816135b85760405162461bcd60e51b8152602060048201526044602482018190526000805160206154c0833981519152908201527f69744e756d426174636820737461746520726f6f7420646f6573206e6f7420656064820152631e1a5cdd60e21b608482015260a4016108e5565b806001600160401b0316896001600160401b031611156136545760405162461bcd60e51b815260206004820152605e60248201526000805160206154c083398151915260448201527f69744e756d4261746368206d757374206265206c657373206f7220657175616c60648201527f207468616e2063757272656e744c617374566572696669656442617463680000608482015260a4016108e5565b806001600160401b0316886001600160401b0316116136fc5760405162461bcd60e51b815260206004820152605860248201527f506f6c79676f6e5a6b45564d3a3a5f766572696679426174636865733a20666960448201527f6e616c4e65774261746368206d75737420626520626967676572207468616e206064820152770c6eae4e4cadce898c2e6e8accae4d2ccd2cac884c2e8c6d60431b608482015260a4016108e5565b600061370b8a8a8a868b6109e5565b905060007f30644e72e131a029b85045b68181585d2833e84879b9709143e1f593f000000160028360405161374091906152ed565b602060405180830381855afa15801561375d573d6000803e3d6000fd5b5050506040513d601f19601f820116820180604052508101906137809190615071565b61378a91906152ff565b606b546040805160208101825283815290516343753b4d60e01b81529293506001600160a01b03909116916343753b4d916137ce918b918b918b9190600401615313565b602060405180830381865afa1580156137eb573d6000803e3d6000fd5b505050506040513d601f19601f8201168201806040525081019061380f919061538d565b61386f5760405162461bcd60e51b815260206004820152602b60248201527f506f6c79676f6e5a6b45564d3a3a5f766572696679426174636865733a20496e60448201526a3b30b634b210383937b7b360a91b60648201526084016108e5565b6138b23361387d858d6150e2565b6001600160401b031661388e61219d565b6138989190615121565b606554600160581b90046001600160a01b0316919061454b565b505050505050505050505050565b60006138ca6125d4565b9050816000806138da84846150e2565b6001600160401b031690505b836001600160401b0316836001600160401b03161461398c576001600160401b0380841660009081526067602052604090206065546001820154919261010090910481169161393691164261510a565b111561397157600181015461395b90600160401b90046001600160401b0316856150e2565b61396e906001600160401b03168461516a565b92505b60010154600160401b90046001600160401b031692506138e6565b6000613998838361510a565b905082811015613a125760006139ae828561510a565b9050600c81116139be57806139c1565b600c5b90506139ce816003615121565b6139d990600a615493565b6065546139f2908390600160481b900461ffff16615493565b6075546139ff9190615121565b613a099190615156565b60755550613a9e565b6000613a1e848361510a565b9050600c8111613a2e5780613a31565b600c5b90506000613a40826003615121565b613a4b90600a615493565b606554613a64908490600160481b900461ffff16615493565b607554613a719190615121565b613a7b9190615156565b905080607554607554613a8e9190615121565b613a989190615156565b60755550505b505050505050565b6072546001600160401b03600160401b9091048116908216118015613ada57506072546001600160401b0390811690821611155b613b4c5760405162461bcd60e51b815260206004820152603f60248201527f506f6c79676f6e5a6b45564d3a3a5f636f6e736f6c696461746550656e64696e60448201527f6753746174653a2070656e64696e6753746174654e756d20696e76616c69640060648201526084016108e5565b6001600160401b038181166000818152607160209081526040808320805460698054600160401b9283900490981667ffffffffffffffff19909816881790556002820154878652606d90945293829020929092556072805467ffffffffffffffff60401b19169390940292909217909255606c54600183015491516333d6247d60e01b815260048101929092529192916001600160a01b0316906333d6247d90602401600060405180830381600087803b158015613c0957600080fd5b505af1158015613c1d573d6000803e3d6000fd5b50505050826001600160401b0316816001600160401b03167f328d3c6c0fd6f1be0515e422f2d87e59f25922cbc2233568515a0c4bc3f8510e8460020154604051613c6a91815260200190565b60405180910390a3505050565b6033546001600160a01b03163314611e305760405162461bcd60e51b815260206004820181905260248201527f4f776e61626c653a2063616c6c6572206973206e6f7420746865206f776e657260448201526064016108e5565b603380546001600160a01b038381166001600160a01b0319831681179093556040519116919082907f8be0079c531659141344cd1fd0a4f28419497f9722a3daafe3b4186f6b6457e090600090a35050565b607060009054906101000a90046001600160a01b03166001600160a01b0316632072f6c56040518163ffffffff1660e01b8152600401600060405180830381600087803b158015613d7357600080fd5b505af1158015613d87573d6000803e3d6000fd5b50505050611e3061457b565b60006001600160401b038a1615613f03576072546001600160401b03908116908b161115613e4b5760405162461bcd60e51b815260206004820152606560248201526000805160206154e083398151915260448201527f696e6753746174653a2070656e64696e6753746174654e756d206d757374206260648201527f65206c657373206f7220657175616c207468616e206c61737450656e64696e67608482015264537461746560d81b60a482015260c4016108e5565b506001600160401b03808a1660009081526071602052604090206002810154815490928a8116600160401b9092041614613efd5760405162461bcd60e51b815260206004820152605960248201526000805160206154e083398151915260448201527f696e6753746174653a20696e69744e756d4261746368206d757374206d6174636064820152780d040e8d0ca40e0cadcc8d2dcce40e6e8c2e8ca40c4c2e8c6d603b1b608482015260a4016108e5565b5061403c565b506001600160401b0387166000908152606d602052604090205480613f975760405162461bcd60e51b815260206004820152605060248201526000805160206154e083398151915260448201527f696e6753746174653a20696e69744e756d426174636820737461746520726f6f60648201526f1d08191bd95cc81b9bdd08195e1a5cdd60821b608482015260a4016108e5565b6069546001600160401b03908116908916111561403c5760405162461bcd60e51b815260206004820152606360248201526000805160206154e083398151915260448201527f696e6753746174653a20696e69744e756d4261746368206d757374206265206c60648201527f657373206f7220657175616c207468616e206c617374566572696669656442616084820152620e8c6d60eb1b60a482015260c4016108e5565b6072546001600160401b03908116908a161180159061406c5750896001600160401b0316896001600160401b0316115b801561408d57506072546001600160401b03600160401b9091048116908a16115b6140fe5760405162461bcd60e51b815260206004820152604860248201526000805160206154e083398151915260448201527f696e6753746174653a2066696e616c50656e64696e6753746174654e756d20696064820152671b98dbdc9c9958dd60c21b608482015260a4016108e5565b6001600160401b03898116600090815260716020526040902054600160401b90048116908816146141b55760405162461bcd60e51b815260206004820152606160248201526000805160206154e083398151915260448201527f696e6753746174653a2066696e616c4e65774261746368206d7573742062652060648201527f657175616c20746f2063757272656e744c6173745665726966696564426174636084820152600d60fb1b60a482015260c4016108e5565b60006141c4898989858a6109e5565b905060007f30644e72e131a029b85045b68181585d2833e84879b9709143e1f593f00000016002836040516141f991906152ed565b602060405180830381855afa158015614216573d6000803e3d6000fd5b5050506040513d601f19601f820116820180604052508101906142399190615071565b61424391906152ff565b606b546040805160208101825283815290516343753b4d60e01b81529293506001600160a01b03909116916343753b4d91614287918a918a918a9190600401615313565b602060405180830381865afa1580156142a4573d6000803e3d6000fd5b505050506040513d601f19601f820116820180604052508101906142c8919061538d565b6143225760405162461bcd60e51b815260206004820152603760248201526000805160206154e083398151915260448201527634b733a9ba30ba329d1024b73b30b634b210383937b7b360491b60648201526084016108e5565b6001600160401b038b166000908152607160205260409020600201548790036138b25760405162461bcd60e51b815260206004820152605b60248201526000805160206154e083398151915260448201527f696e6753746174653a2053746f72656420726f6f74206d75737420626520646960648201527f66666572656e74207468616e206e657720737461746520726f6f740000000000608482015260a4016108e5565b60655460ff1661443f5760405162461bcd60e51b815260206004820152603b60248201527f456d657267656e63794d616e616765723a3a6966456d657267656e637953746160448201527f74653a206f6e6c7920696620656d657267656e6379207374617465000000000060648201526084016108e5565b6065805460ff191690556040517f1e5e34eea33501aecf2ebec9fe0e884a40804275ea7fe10b2ba084c8374308b390600090a1565b60006144c9826040518060400160405280602081526020017f5361666545524332303a206c6f772d6c6576656c2063616c6c206661696c6564815250856001600160a01b03166145d69092919063ffffffff16565b80519091501561454657808060200190518101906144e7919061538d565b6145465760405162461bcd60e51b815260206004820152602a60248201527f5361666545524332303a204552433230206f7065726174696f6e20646964206e6044820152691bdd081cdd58d8d9595960b21b60648201526084016108e5565b505050565b6040516001600160a01b03831660248201526044810182905261454690849063a9059cbb60e01b906064016132dc565b60655460ff161561459e5760405162461bcd60e51b81526004016108e590614efe565b6065805460ff191660011790556040517f2261efe5aef6fedc1fd1550b25facc9181745623049c7901287030b9ad1a549790600090a1565b60606145e584846000856145ed565b949350505050565b60608247101561464e5760405162461bcd60e51b815260206004820152602660248201527f416464726573733a20696e73756666696369656e742062616c616e636520666f6044820152651c8818d85b1b60d21b60648201526084016108e5565b600080866001600160a01b0316858760405161466a91906152ed565b60006040518083038185875af1925050503d80600081146146a7576040519150601f19603f3d011682016040523d82523d6000602084013e6146ac565b606091505b50915091506146bd878383876146c8565b979650505050505050565b60608315614737578251600003614730576001600160a01b0385163b6147305760405162461bcd60e51b815260206004820152601d60248201527f416464726573733a2063616c6c20746f206e6f6e2d636f6e747261637400000060448201526064016108e5565b50816145e5565b6145e5838381511561474c5781518083602001fd5b8060405162461bcd60e51b81526004016108e591906147be565b60005b83811015614781578181015183820152602001614769565b838111156133135750506000910152565b600081518084526147aa816020860160208601614766565b601f01601f19169290920160200192915050565b6020815260006147d16020830184614792565b9392505050565b6000602082840312156147ea57600080fd5b813561ffff811681146147d157600080fd5b80356001600160401b038116811461481357600080fd5b919050565b600080600080600060a0868803121561483057600080fd5b614839866147fc565b9450614847602087016147fc565b94979496505050506040830135926060810135926080909101359150565b6001600160a01b0381168114611d9057600080fd5b634e487b7160e01b600052604160045260246000fd5b600082601f8301126148a157600080fd5b81356001600160401b03808211156148bb576148bb61487a565b604051601f8301601f19908116603f011681019082821181831017156148e3576148e361487a565b816040528381528660208588010111156148fc57600080fd5b836020870160208301376000602085830101528094505050505092915050565b600080600080600080600080888a036101a081121561493a57600080fd5b893561494581614865565b985060208a013561495581614865565b975060408a013561496581614865565b965060608a013561497581614865565b955060c0607f198201121561498957600080fd5b5060808901935061014089013592506101608901356001600160401b03808211156149b357600080fd5b6149bf8c838d01614890565b93506101808b01359150808211156149d657600080fd5b506149e38b828c01614890565b9150509295985092959890939650565b6001600160a01b0391909116815260200190565b600060208284031215614a1957600080fd5b6147d1826147fc565b60008083601f840112614a3457600080fd5b5081356001600160401b03811115614a4b57600080fd5b6020830191508360208260051b8501011115614a6657600080fd5b9250929050565b60008060208385031215614a8057600080fd5b82356001600160401b03811115614a9657600080fd5b614aa285828601614a22565b90969095509350505050565b8060408101831015614abf57600080fd5b92915050565b8060808101831015614abf57600080fd5b6000806000806000806000806101a0898b031215614af357600080fd5b614afc896147fc565b9750614b0a60208a016147fc565b9650614b1860408a016147fc565b95506060890135945060808901359350614b358a60a08b01614aae565b9250614b448a60e08b01614ac5565b9150614b548a6101608b01614aae565b90509295985092959890939650565b600060208284031215614b7557600080fd5b81356147d181614865565b60008060008060008060008060006101c08a8c031215614b9f57600080fd5b614ba88a6147fc565b9850614bb660208b016147fc565b9750614bc460408b016147fc565b9650614bd260608b016147fc565b955060808a0135945060a08a01359350614bef8b60c08c01614aae565b9250614bff8b6101008c01614ac5565b9150614c0f8b6101808c01614aae565b90509295985092959850929598565b600060208284031215614c3057600080fd5b5035919050565b600060208284031215614c4957600080fd5b81356001600160401b03811115614c5f57600080fd5b6145e584828501614890565b600080600060408486031215614c8057600080fd5b83356001600160401b0380821115614c9757600080fd5b818601915086601f830112614cab57600080fd5b813581811115614cba57600080fd5b876020828501011115614ccc57600080fd5b6020928301989097509590910135949350505050565b600181811c90821680614cf657607f821691505b602082108103614d1657634e487b7160e01b600052602260045260246000fd5b50919050565b60208082526023908201527f506f6c79676f6e5a6b45564d3a3a6f6e6c7941646d696e3a204f6e6c7920616460408201526236b4b760e91b606082015260800190565b601f82111561454657600081815260208120601f850160051c81016020861015614d865750805b601f850160051c820191505b81811015613a9e57828155600101614d92565b81516001600160401b03811115614dbe57614dbe61487a565b614dd281614dcc8454614ce2565b84614d5f565b602080601f831160018114614e075760008415614def5750858301515b600019600386901b1c1916600185901b178555613a9e565b600085815260208120601f198616915b82811015614e3657888601518255948401946001909101908401614e17565b5085821015614e545787850151600019600388901b60f8161c191681555b5050505050600190811b01905550565b60208082526039908201527f506f6c79676f6e5a6b45564d3a3a696e697469616c697a653a20457863656564604082015278081a185b1d081859d9dc9959d85d1a5bdb881d1a5b595bdd5d603a1b606082015260800190565b634e487b7160e01b600052601160045260246000fd5b60006001600160401b03808316818516808303821115614ef557614ef5614ebd565b01949350505050565b60208082526042908201527f456d657267656e63794d616e616765723a3a69664e6f74456d657267656e637960408201527f53746174653a206f6e6c79206966206e6f7420656d657267656e637920737461606082015261746560f01b608082015260a00190565b634e487b7160e01b600052603260045260246000fd5b60008235607e19833603018112614f9257600080fd5b9190910192915050565b600060808236031215614fae57600080fd5b604051608081016001600160401b038282108183111715614fd157614fd161487a565b816040528435915080821115614fe657600080fd5b50614ff336828601614890565b8252506020830135602082015261500c604084016147fc565b604082015261501d606084016147fc565b606082015292915050565b60006001600160401b0380831681810361504457615044614ebd565b6001019392505050565b928352602083019190915260c01b6001600160c01b031916604082015260480190565b60006020828403121561508357600080fd5b5051919050565b9485526020850193909352604084019190915260c01b6001600160c01b0319166060808401919091521b6001600160601b0319166068820152607c0190565b6000600182016150db576150db614ebd565b5060010190565b60006001600160401b038381169083168181101561510257615102614ebd565b039392505050565b60008282101561511c5761511c614ebd565b500390565b600081600019048311821515161561513b5761513b614ebd565b500290565b634e487b7160e01b600052601260045260246000fd5b60008261516557615165615140565b500490565b6000821982111561517d5761517d614ebd565b500190565b60008235605e19833603018112614f9257600080fd5b6000606082360312156151aa57600080fd5b604051606081016001600160401b0382821081831117156151cd576151cd61487a565b8160405284359150808211156151e257600080fd5b506151ef36828601614890565b82525060208301356020820152615208604084016147fc565b604082015292915050565b6020808252603c908201527f506f6c79676f6e5a6b45564d3a3a6f6e6c79547275737465644167677265676160408201527f746f723a204f6e6c7920747275737465642061676772656761746f7200000000606082015260800190565b8183823760009101908152919050565b8481526001600160a01b03841660208201526060604082018190528101829052818360808301376000818301608090810191909152601f909201601f191601019392505050565b60006001600160401b03808416806152e1576152e1615140565b92169190910492915050565b60008251614f92818460208701614766565b60008261530e5761530e615140565b500690565b61012081016040808784376000838201818152879190815b600281101561534b5784848337908401828152928401929060010161532b565b5050828760c0870137610100850181815286935091505b6001811015615381578251825260209283019290910190600101615362565b50505095945050505050565b60006020828403121561539f57600080fd5b815180151581146147d157600080fd5b600181815b808511156153ea5781600019048211156153d0576153d0614ebd565b808516156153dd57918102915b93841c93908002906153b4565b509250929050565b60008261540157506001614abf565b8161540e57506000614abf565b8160018114615424576002811461542e5761544a565b6001915050614abf565b60ff84111561543f5761543f614ebd565b50506001821b614abf565b5060208310610133831016604e8410600b841016171561546d575081810a614abf565b61547783836153af565b806000190482111561548b5761548b614ebd565b029392505050565b60006147d183836153f256fe506f6c79676f6e5a6b45564d3a3a6163746976617465456d657267656e637953506f6c79676f6e5a6b45564d3a3a5f766572696679426174636865733a20696e506f6c79676f6e5a6b45564d3a3a5f70726f766544697374696e637450656e64506f6c79676f6e5a6b45564d3a3a73657175656e6365466f7263654261746368506f6c79676f6e5a6b45564d3a3a73657175656e6365426174636865733a2046a26469706673582212209601c66dca45eed1b583eb49716e5ffb048c90b2c5d305d2a6645d7ad3bb788f64736f6c634300080f0033",
  "linkReferences": {},
  "deployedLinkReferences": {}
}