{
  "_format": "hh-sol-artifact-1",
  "contractName": "PolygonZkEVMBridgeV2",
  "sourceName": "contracts/v2/PolygonZkEVMBridgeV2.sol",
  "abi": [
    {
      "inputs": [],
      "name": "AlreadyClaimed",
      "type": "error"
    },
    {
      "inputs": [],
      "name": "AmountDoesNotMatchMsgValue",
      "type": "error"
    },
    {
      "inputs": [],
      "name": "DestinationNetworkInvalid",
      "type": "error"
    },
    {
      "inputs": [],
      "name": "EtherTransferFailed",
      "type": "error"
    },
    {
      "inputs": [],
      "name": "GasTokenNetworkMustBeZeroOnEther",
      "type": "error"
    },
    {
      "inputs": [],
      "name": "GlobalExitRootInvalid",
      "type": "error"
    },
    {
      "inputs": [],
      "name": "InvalidSmtProof",
      "type": "error"
    },
    {
      "inputs": [],
      "name": "MerkleTreeFull",
      "type": "error"
    },
    {
      "inputs": [],
      "name": "MessageFailed",
      "type": "error"
    },
    {
      "inputs": [],
      "name": "MsgValueNotZero",
      "type": "error"
    },
    {
      "inputs": [],
      "name": "NativeTokenIsEther",
      "type": "error"
    },
    {
      "inputs": [],
      "name": "NoValueInMessagesOnGasTokenNetworks",
      "type": "error"
    },
    {
      "inputs": [],
      "name": "NotValidAmount",
      "type": "error"
    },
    {
      "inputs": [],
      "name": "NotValidOwner",
      "type": "error"
    },
    {
      "inputs": [],
      "name": "NotValidSignature",
      "type": "error"
    },
    {
      "inputs": [],
      "name": "NotValidSpender",
      "type": "error"
    },
    {
      "inputs": [],
      "name": "OnlyEmergencyState",
      "type": "error"
    },
    {
      "inputs": [],
      "name": "OnlyNotEmergencyState",
      "type": "error"
    },
    {
      "inputs": [],
      "name": "OnlyRollupManager",
      "type": "error"
    },
    {
      "anonymous": false,
      "inputs": [
        {
          "indexed": false,
          "internalType": "uint8",
          "name": "leafType",
          "type": "uint8"
        },
        {
          "indexed": false,
          "internalType": "uint32",
          "name": "originNetwork",
          "type": "uint32"
        },
        {
          "indexed": false,
          "internalType": "address",
          "name": "originAddress",
          "type": "address"
        },
        {
          "indexed": false,
          "internalType": "uint32",
          "name": "destinationNetwork",
          "type": "uint32"
        },
        {
          "indexed": false,
          "internalType": "address",
          "name": "destinationAddress",
          "type": "address"
        },
        {
          "indexed": false,
          "internalType": "uint256",
          "name": "amount",
          "type": "uint256"
        },
        {
          "indexed": false,
          "internalType": "bytes",
          "name": "metadata",
          "type": "bytes"
        },
        {
          "indexed": false,
          "internalType": "uint32",
          "name": "depositCount",
          "type": "uint32"
        }
      ],
      "name": "BridgeEvent",
      "type": "event"
    },
    {
      "anonymous": false,
      "inputs": [
        {
          "indexed": false,
          "internalType": "uint256",
          "name": "globalIndex",
          "type": "uint256"
        },
        {
          "indexed": false,
          "internalType": "uint32",
          "name": "originNetwork",
          "type": "uint32"
        },
        {
          "indexed": false,
          "internalType": "address",
          "name": "originAddress",
          "type": "address"
        },
        {
          "indexed": false,
          "internalType": "address",
          "name": "destinationAddress",
          "type": "address"
        },
        {
          "indexed": false,
          "internalType": "uint256",
          "name": "amount",
          "type": "uint256"
        }
      ],
      "name": "ClaimEvent",
      "type": "event"
    },
    {
      "anonymous": false,
      "inputs": [],
      "name": "EmergencyStateActivated",
      "type": "event"
    },
    {
      "anonymous": false,
      "inputs": [],
      "name": "EmergencyStateDeactivated",
      "type": "event"
    },
    {
      "anonymous": false,
      "inputs": [
        {
          "indexed": false,
          "internalType": "uint8",
          "name": "version",
          "type": "uint8"
        }
      ],
      "name": "Initialized",
      "type": "event"
    },
    {
      "anonymous": false,
      "inputs": [
        {
          "indexed": false,
          "internalType": "uint32",
          "name": "originNetwork",
          "type": "uint32"
        },
        {
          "indexed": false,
          "internalType": "address",
          "name": "originTokenAddress",
          "type": "address"
        },
        {
          "indexed": false,
          "internalType": "address",
          "name": "wrappedTokenAddress",
          "type": "address"
        },
        {
          "indexed": false,
          "internalType": "bytes",
          "name": "metadata",
          "type": "bytes"
        }
      ],
      "name": "NewWrappedToken",
      "type": "event"
    },
    {
      "inputs": [],
      "name": "WETHToken",
      "outputs": [
        {
          "internalType": "contract TokenWrapped",
          "name": "",
          "type": "address"
        }
      ],
      "stateMutability": "view",
      "type": "function"
    },
    {
      "inputs": [],
      "name": "activateEmergencyState",
      "outputs": [],
      "stateMutability": "nonpayable",
      "type": "function"
    },
    {
      "inputs": [
        {
          "internalType": "uint32",
          "name": "destinationNetwork",
          "type": "uint32"
        },
        {
          "internalType": "address",
          "name": "destinationAddress",
          "type": "address"
        },
        {
          "internalType": "uint256",
          "name": "amount",
          "type": "uint256"
        },
        {
          "internalType": "address",
          "name": "token",
          "type": "address"
        },
        {
          "internalType": "bool",
          "name": "forceUpdateGlobalExitRoot",
          "type": "bool"
        },
        {
          "internalType": "bytes",
          "name": "permitData",
          "type": "bytes"
        }
      ],
      "name": "bridgeAsset",
      "outputs": [],
      "stateMutability": "payable",
      "type": "function"
    },
    {
      "inputs": [
        {
          "internalType": "uint32",
          "name": "destinationNetwork",
          "type": "uint32"
        },
        {
          "internalType": "address",
          "name": "destinationAddress",
          "type": "address"
        },
        {
          "internalType": "bool",
          "name": "forceUpdateGlobalExitRoot",
          "type": "bool"
        },
        {
          "internalType": "bytes",
          "name": "metadata",
          "type": "bytes"
        }
      ],
      "name": "bridgeMessage",
      "outputs": [],
      "stateMutability": "payable",
      "type": "function"
    },
    {
      "inputs": [
        {
          "internalType": "uint32",
          "name": "destinationNetwork",
          "type": "uint32"
        },
        {
          "internalType": "address",
          "name": "destinationAddress",
          "type": "address"
        },
        {
          "internalType": "uint256",
          "name": "amountWETH",
          "type": "uint256"
        },
        {
          "internalType": "bool",
          "name": "forceUpdateGlobalExitRoot",
          "type": "bool"
        },
        {
          "internalType": "bytes",
          "name": "metadata",
          "type": "bytes"
        }
      ],
      "name": "bridgeMessageWETH",
      "outputs": [],
      "stateMutability": "nonpayable",
      "type": "function"
    },
    {
      "inputs": [
        {
          "internalType": "bytes32",
          "name": "leafHash",
          "type": "bytes32"
        },
        {
          "internalType": "bytes32[32]",
          "name": "smtProof",
          "type": "bytes32[32]"
        },
        {
          "internalType": "uint32",
          "name": "index",
          "type": "uint32"
        }
      ],
      "name": "calculateRoot",
      "outputs": [
        {
          "internalType": "bytes32",
          "name": "",
          "type": "bytes32"
        }
      ],
      "stateMutability": "pure",
      "type": "function"
    },
    {
      "inputs": [
        {
          "internalType": "bytes32[32]",
          "name": "smtProofLocalExitRoot",
          "type": "bytes32[32]"
        },
        {
          "internalType": "bytes32[32]",
          "name": "smtProofRollupExitRoot",
          "type": "bytes32[32]"
        },
        {
          "internalType": "uint256",
          "name": "globalIndex",
          "type": "uint256"
        },
        {
          "internalType": "bytes32",
          "name": "mainnetExitRoot",
          "type": "bytes32"
        },
        {
          "internalType": "bytes32",
          "name": "rollupExitRoot",
          "type": "bytes32"
        },
        {
          "internalType": "uint32",
          "name": "originNetwork",
          "type": "uint32"
        },
        {
          "internalType": "address",
          "name": "originTokenAddress",
          "type": "address"
        },
        {
          "internalType": "uint32",
          "name": "destinationNetwork",
          "type": "uint32"
        },
        {
          "internalType": "address",
          "name": "destinationAddress",
          "type": "address"
        },
        {
          "internalType": "uint256",
          "name": "amount",
          "type": "uint256"
        },
        {
          "internalType": "bytes",
          "name": "metadata",
          "type": "bytes"
        }
      ],
      "name": "claimAsset",
      "outputs": [],
      "stateMutability": "nonpayable",
      "type": "function"
    },
    {
      "inputs": [
        {
          "internalType": "bytes32[32]",
          "name": "smtProofLocalExitRoot",
          "type": "bytes32[32]"
        },
        {
          "internalType": "bytes32[32]",
          "name": "smtProofRollupExitRoot",
          "type": "bytes32[32]"
        },
        {
          "internalType": "uint256",
          "name": "globalIndex",
          "type": "uint256"
        },
        {
          "internalType": "bytes32",
          "name": "mainnetExitRoot",
          "type": "bytes32"
        },
        {
          "internalType": "bytes32",
          "name": "rollupExitRoot",
          "type": "bytes32"
        },
        {
          "internalType": "uint32",
          "name": "originNetwork",
          "type": "uint32"
        },
        {
          "internalType": "address",
          "name": "originAddress",
          "type": "address"
        },
        {
          "internalType": "uint32",
          "name": "destinationNetwork",
          "type": "uint32"
        },
        {
          "internalType": "address",
          "name": "destinationAddress",
          "type": "address"
        },
        {
          "internalType": "uint256",
          "name": "amount",
          "type": "uint256"
        },
        {
          "internalType": "bytes",
          "name": "metadata",
          "type": "bytes"
        }
      ],
      "name": "claimMessage",
      "outputs": [],
      "stateMutability": "nonpayable",
      "type": "function"
    },
    {
      "inputs": [
        {
          "internalType": "uint256",
          "name": "",
          "type": "uint256"
        }
      ],
      "name": "claimedBitMap",
      "outputs": [
        {
          "internalType": "uint256",
          "name": "",
          "type": "uint256"
        }
      ],
      "stateMutability": "view",
      "type": "function"
    },
    {
      "inputs": [],
      "name": "deactivateEmergencyState",
      "outputs": [],
      "stateMutability": "nonpayable",
      "type": "function"
    },
    {
      "inputs": [],
      "name": "depositCount",
      "outputs": [
        {
          "internalType": "uint256",
          "name": "",
          "type": "uint256"
        }
      ],
      "stateMutability": "view",
      "type": "function"
    },
    {
      "inputs": [],
      "name": "gasTokenAddress",
      "outputs": [
        {
          "internalType": "address",
          "name": "",
          "type": "address"
        }
      ],
      "stateMutability": "view",
      "type": "function"
    },
    {
      "inputs": [],
      "name": "gasTokenNetwork",
      "outputs": [
        {
          "internalType": "uint32",
          "name": "",
          "type": "uint32"
        }
      ],
      "stateMutability": "view",
      "type": "function"
    },
    {
      "inputs": [
        {
          "internalType": "uint8",
          "name": "leafType",
          "type": "uint8"
        },
        {
          "internalType": "uint32",
          "name": "originNetwork",
          "type": "uint32"
        },
        {
          "internalType": "address",
          "name": "originAddress",
          "type": "address"
        },
        {
          "internalType": "uint32",
          "name": "destinationNetwork",
          "type": "uint32"
        },
        {
          "internalType": "address",
          "name": "destinationAddress",
          "type": "address"
        },
        {
          "internalType": "uint256",
          "name": "amount",
          "type": "uint256"
        },
        {
          "internalType": "bytes32",
          "name": "metadataHash",
          "type": "bytes32"
        }
      ],
      "name": "getLeafValue",
      "outputs": [
        {
          "internalType": "bytes32",
          "name": "",
          "type": "bytes32"
        }
      ],
      "stateMutability": "pure",
      "type": "function"
    },
    {
      "inputs": [],
      "name": "getRoot",
      "outputs": [
        {
          "internalType": "bytes32",
          "name": "",
          "type": "bytes32"
        }
      ],
      "stateMutability": "view",
      "type": "function"
    },
    {
      "inputs": [
        {
          "internalType": "uint32",
          "name": "originNetwork",
          "type": "uint32"
        },
        {
          "internalType": "address",
          "name": "originTokenAddress",
          "type": "address"
        }
      ],
      "name": "getTokenWrappedAddress",
      "outputs": [
        {
          "internalType": "address",
          "name": "",
          "type": "address"
        }
      ],
      "stateMutability": "view",
      "type": "function"
    },
    {
      "inputs": [],
      "name": "globalExitRootManager",
      "outputs": [
        {
          "internalType": "contract IBasePolygonZkEVMGlobalExitRoot",
          "name": "",
          "type": "address"
        }
      ],
      "stateMutability": "view",
      "type": "function"
    },
    {
      "inputs": [
        {
          "internalType": "uint32",
          "name": "_networkID",
          "type": "uint32"
        },
        {
          "internalType": "address",
          "name": "_gasTokenAddress",
          "type": "address"
        },
        {
          "internalType": "uint32",
          "name": "_gasTokenNetwork",
          "type": "uint32"
        },
        {
          "internalType": "contract IBasePolygonZkEVMGlobalExitRoot",
          "name": "_globalExitRootManager",
          "type": "address"
        },
        {
          "internalType": "address",
          "name": "_polygonRollupManager",
          "type": "address"
        }
      ],
      "name": "initialize",
      "outputs": [],
      "stateMutability": "nonpayable",
      "type": "function"
    },
    {
      "inputs": [
        {
          "internalType": "uint32",
          "name": "leafIndex",
          "type": "uint32"
        },
        {
          "internalType": "uint32",
          "name": "sourceBridgeNetwork",
          "type": "uint32"
        }
      ],
      "name": "isClaimed",
      "outputs": [
        {
          "internalType": "bool",
          "name": "",
          "type": "bool"
        }
      ],
      "stateMutability": "view",
      "type": "function"
    },
    {
      "inputs": [],
      "name": "isEmergencyState",
      "outputs": [
        {
          "internalType": "bool",
          "name": "",
          "type": "bool"
        }
      ],
      "stateMutability": "view",
      "type": "function"
    },
    {
      "inputs": [],
      "name": "lastUpdatedDepositCount",
      "outputs": [
        {
          "internalType": "uint32",
          "name": "",
          "type": "uint32"
        }
      ],
      "stateMutability": "view",
      "type": "function"
    },
    {
      "inputs": [],
      "name": "networkID",
      "outputs": [
        {
          "internalType": "uint32",
          "name": "",
          "type": "uint32"
        }
      ],
      "stateMutability": "view",
      "type": "function"
    },
    {
      "inputs": [],
      "name": "polygonRollupManager",
      "outputs": [
        {
          "internalType": "address",
          "name": "",
          "type": "address"
        }
      ],
      "stateMutability": "view",
      "type": "function"
    },
    {
      "inputs": [
        {
          "internalType": "uint32",
          "name": "originNetwork",
          "type": "uint32"
        },
        {
          "internalType": "address",
          "name": "originTokenAddress",
          "type": "address"
        },
        {
          "internalType": "string",
          "name": "name",
          "type": "string"
        },
        {
          "internalType": "string",
          "name": "symbol",
          "type": "string"
        },
        {
          "internalType": "uint8",
          "name": "decimals",
          "type": "uint8"
        }
      ],
      "name": "precalculatedWrapperAddress",
      "outputs": [
        {
          "internalType": "address",
          "name": "",
          "type": "address"
        }
      ],
      "stateMutability": "view",
      "type": "function"
    },
    {
      "inputs": [
        {
          "internalType": "bytes32",
          "name": "",
          "type": "bytes32"
        }
      ],
      "name": "tokenInfoToWrappedToken",
      "outputs": [
        {
          "internalType": "address",
          "name": "",
          "type": "address"
        }
      ],
      "stateMutability": "view",
      "type": "function"
    },
    {
      "inputs": [],
      "name": "updateGlobalExitRoot",
      "outputs": [],
      "stateMutability": "nonpayable",
      "type": "function"
    },
    {
      "inputs": [
        {
          "internalType": "bytes32",
          "name": "leafHash",
          "type": "bytes32"
        },
        {
          "internalType": "bytes32[32]",
          "name": "smtProof",
          "type": "bytes32[32]"
        },
        {
          "internalType": "uint32",
          "name": "index",
          "type": "uint32"
        },
        {
          "internalType": "bytes32",
          "name": "root",
          "type": "bytes32"
        }
      ],
      "name": "verifyMerkleProof",
      "outputs": [
        {
          "internalType": "bool",
          "name": "",
          "type": "bool"
        }
      ],
      "stateMutability": "pure",
      "type": "function"
    },
    {
      "inputs": [
        {
          "internalType": "address",
          "name": "",
          "type": "address"
        }
      ],
      "name": "wrappedTokenToTokenInfo",
      "outputs": [
        {
          "internalType": "uint32",
          "name": "originNetwork",
          "type": "uint32"
        },
        {
          "internalType": "address",
          "name": "originTokenAddress",
          "type": "address"
        }
      ],
      "stateMutability": "view",
      "type": "function"
    }
  ],
  "bytecode": "0x608060405234801561000f575f80fd5b50615f898061001d5f395ff3fe608060405260043610620001d3575f3560e01c80638ed7e3f211620000fa578063cd5865791162000092578063dbc16976116200006a578063dbc169761462000685578063ee25560b146200069c578063f5efcd7914620006cb578063fb57083414620006ef575f80fd5b8063cd5865791462000620578063d02103ca1462000637578063d3476afe1462000661575f80fd5b8063bab161bf11620000d2578063bab161bf146200057a578063be5831c7146200059d578063cc46163214620005d8578063ccaa2d1114620005fc575f80fd5b80638ed7e3f21462000511578063aaa13cc21462000532578063b8b284d01462000556575f80fd5b80633cbc795b116200016e5780635ca1e16511620001465780635ca1e165146200048757806379e2cf97146200049e57806381b1c17414620004b557806383f2440314620004ed575f80fd5b80633cbc795b14620003285780633e19704314620003745780634b2f336d1462000466575f80fd5b8063240ff37811620001ae578063240ff378146200025d5780632dfdf0b51462000274578063318aee3d146200029a5780633c351e101462000307575f80fd5b806315064c9614620001d75780632072f6c5146200020757806322e95f2c1462000220575b5f80fd5b348015620001e3575f80fd5b50606854620001f29060ff1681565b60405190151581526020015b60405180910390f35b34801562000213575f80fd5b506200021e62000713565b005b3480156200022c575f80fd5b50620002446200023e36600462003723565b62000764565b6040516001600160a01b039091168152602001620001fe565b6200021e6200026e366004620037b3565b620007f9565b34801562000280575f80fd5b506200028b60535481565b604051908152602001620001fe565b348015620002a6575f80fd5b50620002e2620002b836600462003832565b606b6020525f908152604090205463ffffffff81169064010000000090046001600160a01b031682565b6040805163ffffffff90931683526001600160a01b03909116602083015201620001fe565b34801562000313575f80fd5b50606d5462000244906001600160a01b031681565b34801562000334575f80fd5b50606d546200035e9074010000000000000000000000000000000000000000900463ffffffff1681565b60405163ffffffff9091168152602001620001fe565b34801562000380575f80fd5b506200028b6200039236600462003866565b6040517fff0000000000000000000000000000000000000000000000000000000000000060f889901b1660208201527fffffffff0000000000000000000000000000000000000000000000000000000060e088811b821660218401527fffffffffffffffffffffffffffffffffffffffff000000000000000000000000606089811b821660258601529188901b909216603984015285901b16603d82015260518101839052607181018290525f90609101604051602081830303815290604052805190602001209050979650505050505050565b34801562000472575f80fd5b50606e5462000244906001600160a01b031681565b34801562000493575f80fd5b506200028b62000862565b348015620004aa575f80fd5b506200021e62000947565b348015620004c1575f80fd5b5062000244620004d3366004620038eb565b606a6020525f90815260409020546001600160a01b031681565b348015620004f9575f80fd5b506200028b6200050b36600462003915565b62000981565b3480156200051d575f80fd5b50606c5462000244906001600160a01b031681565b3480156200053e575f80fd5b50620002446200055036600462003956565b62000a64565b34801562000562575f80fd5b506200021e6200057436600462003a03565b62000bf4565b34801562000586575f80fd5b506068546200035e90610100900463ffffffff1681565b348015620005a9575f80fd5b506068546200035e90790100000000000000000000000000000000000000000000000000900463ffffffff1681565b348015620005e4575f80fd5b50620001f2620005f636600462003a8b565b62000cc9565b34801562000608575f80fd5b506200021e6200061a36600462003ac1565b62000d58565b6200021e6200063136600462003bb5565b6200144d565b34801562000643575f80fd5b5060685462000244906501000000000090046001600160a01b031681565b3480156200066d575f80fd5b506200021e6200067f36600462003c51565b62001a03565b34801562000691575f80fd5b506200021e62001dd7565b348015620006a8575f80fd5b506200028b620006ba366004620038eb565b60696020525f908152604090205481565b348015620006d7575f80fd5b506200021e620006e936600462003ac1565b62001e26565b348015620006fb575f80fd5b50620001f26200070d36600462003cc5565b620021aa565b606c546001600160a01b0316331462000758576040517fb9b3a2c800000000000000000000000000000000000000000000000000000000815260040160405180910390fd5b62000762620021c5565b565b6040805160e084901b7fffffffff0000000000000000000000000000000000000000000000000000000016602080830191909152606084901b7fffffffffffffffffffffffffffffffffffffffff00000000000000000000000016602483015282516018818403018152603890920183528151918101919091205f908152606a90915220546001600160a01b03165b92915050565b3415801590620008135750606e546001600160a01b031615155b156200084b576040517f6f625c4000000000000000000000000000000000000000000000000000000000815260040160405180910390fd5b6200085b85853486868662002258565b5050505050565b6053545f90819081805b60208110156200093e578083901c600116600103620008cf57603381602081106200089b576200089b62003d0f565b01546040805160208101929092528101859052606001604051602081830303815290604052805190602001209350620008fc565b60408051602081018690529081018390526060016040516020818303038152906040528051906020012093505b60408051602081018490529081018390526060016040516020818303038152906040528051906020012091508080620009359062003d69565b9150506200086c565b50919392505050565b605354606854790100000000000000000000000000000000000000000000000000900463ffffffff16101562000762576200076262002340565b5f83815b602081101562000a5b57600163ffffffff8516821c81169003620009f757848160208110620009b857620009b862003d0f565b602002013582604051602001620009d9929190918252602082015260400190565b60405160208183030381529060405280519060200120915062000a46565b8185826020811062000a0d5762000a0d62003d0f565b602002013560405160200162000a2d929190918252602082015260400190565b6040516020818303038152906040528051906020012091505b8062000a528162003d69565b91505062000985565b50949350505050565b6040517fffffffff0000000000000000000000000000000000000000000000000000000060e089901b1660208201527fffffffffffffffffffffffffffffffffffffffff000000000000000000000000606088901b1660248201525f9081906038016040516020818303038152906040528051906020012090505f60ff60f81b30836040518060200162000af890620036e9565b601f1982820381018352601f90910116604081905262000b25908d908d908d908d908d9060200162003dcc565b60408051601f198184030181529082905262000b45929160200162003e30565b6040516020818303038152906040528051906020012060405160200162000bce94939291907fff0000000000000000000000000000000000000000000000000000000000000094909416845260609290921b7fffffffffffffffffffffffffffffffffffffffff0000000000000000000000001660018401526015830152603582015260550190565b60408051808303601f1901815291905280516020909101209a9950505050505050505050565b606e546001600160a01b031662000c37576040517fdde3cda700000000000000000000000000000000000000000000000000000000815260040160405180910390fd5b606e546040517f9dc29fac000000000000000000000000000000000000000000000000000000008152336004820152602481018690526001600160a01b0390911690639dc29fac906044015f604051808303815f87803b15801562000c9a575f80fd5b505af115801562000cad573d5f803e3d5ffd5b5050505062000cc186868686868662002258565b505050505050565b6068545f908190610100900463ffffffff1615801562000cef575063ffffffff83166001145b1562000d03575063ffffffff831662000d2f565b62000d1a64010000000063ffffffff851662003e62565b62000d2c9063ffffffff861662003e7c565b90505b600881901c5f90815260696020526040902054600160ff9092169190911b908116149392505050565b60685460ff161562000d96576040517f2f0047fc00000000000000000000000000000000000000000000000000000000815260040160405180910390fd5b60685463ffffffff868116610100909204161462000de0576040517f0595ea2e00000000000000000000000000000000000000000000000000000000815260040160405180910390fd5b62000ee78c8c8c8c8c62000ee15f8e8e8e8e8e8e8e60405162000e0592919062003e92565b60405180910390206040517fff0000000000000000000000000000000000000000000000000000000000000060f889901b1660208201527fffffffff0000000000000000000000000000000000000000000000000000000060e088811b821660218401527fffffffffffffffffffffffffffffffffffffffff000000000000000000000000606089811b821660258601529188901b909216603984015285901b16603d82015260518101839052607181018290525f90609101604051602081830303815290604052805190602001209050979650505050505050565b62002409565b6001600160a01b0386166200105657606e546001600160a01b031662000fd4575f6001600160a01b03851684825b6040519080825280601f01601f19166020018201604052801562000f40576020820181803683370190505b5060405162000f50919062003ece565b5f6040518083038185875af1925050503d805f811462000f8c576040519150601f19603f3d011682016040523d82523d5f602084013e62000f91565b606091505b505090508062000fcd576040517f6747a28800000000000000000000000000000000000000000000000000000000815260040160405180910390fd5b50620013e3565b606e546040517f40c10f190000000000000000000000000000000000000000000000000000000081526001600160a01b03868116600483015260248201869052909116906340c10f19906044015f604051808303815f87803b15801562001039575f80fd5b505af11580156200104c573d5f803e3d5ffd5b50505050620013e3565b606d546001600160a01b038781169116148015620010965750606d5463ffffffff8881167401000000000000000000000000000000000000000090920416145b15620010af575f6001600160a01b038516848262000f15565b60685463ffffffff610100909104811690881603620010e457620010de6001600160a01b0387168585620025e1565b620013e3565b6040517fffffffff0000000000000000000000000000000000000000000000000000000060e089901b1660208201527fffffffffffffffffffffffffffffffffffffffff000000000000000000000000606088901b1660248201525f9060380160408051601f1981840301815291815281516020928301205f818152606a9093529120549091506001600160a01b03168062001367575f80806200118b8688018862003fa1565b9250925092505f85848484604051620011a490620036e9565b620011b2939291906200404a565b8190604051809103905ff5905080158015620011d0573d5f803e3d5ffd5b506040517f40c10f190000000000000000000000000000000000000000000000000000000081526001600160a01b038c81166004830152602482018c9052919250908216906340c10f19906044015f604051808303815f87803b15801562001236575f80fd5b505af115801562001249573d5f803e3d5ffd5b5050505080606a5f8881526020019081526020015f205f6101000a8154816001600160a01b0302191690836001600160a01b0316021790555060405180604001604052808e63ffffffff1681526020018d6001600160a01b0316815250606b5f836001600160a01b03166001600160a01b031681526020019081526020015f205f820151815f015f6101000a81548163ffffffff021916908363ffffffff1602179055506020820151815f0160046101000a8154816001600160a01b0302191690836001600160a01b031602179055509050507f490e59a1701b938786ac72570a1efeac994a3dbe96e2e883e19e902ace6e6a398d8d838b8b6040516200135595949392919062004086565b60405180910390a150505050620013e0565b6040517f40c10f190000000000000000000000000000000000000000000000000000000081526001600160a01b038781166004830152602482018790528216906340c10f19906044015f604051808303815f87803b158015620013c8575f80fd5b505af1158015620013db573d5f803e3d5ffd5b505050505b50505b604080518b815263ffffffff891660208201526001600160a01b0388811682840152861660608201526080810185905290517f1df3f2a973a00d6635911755c260704e95e8a5876997546798770f76396fda4d9181900360a00190a1505050505050505050505050565b60685460ff16156200148b576040517f2f0047fc00000000000000000000000000000000000000000000000000000000815260040160405180910390fd5b6200149562002691565b60685463ffffffff610100909104811690881603620014e0576040517f0595ea2e00000000000000000000000000000000000000000000000000000000815260040160405180910390fd5b5f806060876001600160a01b03881662001563578834146200152e576040517fb89240f500000000000000000000000000000000000000000000000000000000815260040160405180910390fd5b606d546001600160a01b038116945074010000000000000000000000000000000000000000900463ffffffff169250620018a2565b34156200159c576040517f798ee6f100000000000000000000000000000000000000000000000000000000815260040160405180910390fd5b606e546001600160a01b03908116908916036200162f576040517f9dc29fac000000000000000000000000000000000000000000000000000000008152336004820152602481018a90526001600160a01b03891690639dc29fac906044015f604051808303815f87803b15801562001612575f80fd5b505af115801562001625573d5f803e3d5ffd5b50505050620018a2565b6001600160a01b038089165f908152606b602090815260409182902082518084019093525463ffffffff8116835264010000000090049092169181018290529015620016fe576040517f9dc29fac000000000000000000000000000000000000000000000000000000008152336004820152602481018b90526001600160a01b038a1690639dc29fac906044015f604051808303815f87803b158015620016d4575f80fd5b505af1158015620016e7573d5f803e3d5ffd5b5050505080602001519450805f01519350620018a0565b8515620017135762001713898b898962002706565b6040517f70a082310000000000000000000000000000000000000000000000000000000081523060048201525f906001600160a01b038b16906370a0823190602401602060405180830381865afa15801562001771573d5f803e3d5ffd5b505050506040513d601f19601f82011682018060405250810190620017979190620040c0565b9050620017b06001600160a01b038b1633308e62002bb1565b6040517f70a082310000000000000000000000000000000000000000000000000000000081523060048201525f906001600160a01b038c16906370a0823190602401602060405180830381865afa1580156200180e573d5f803e3d5ffd5b505050506040513d601f19601f82011682018060405250810190620018349190620040c0565b9050620018428282620040d8565b6068548c9850610100900463ffffffff1696509350620018628762002c04565b6200186d8c62002d0b565b620018788d62002e07565b6040516020016200188c939291906200404a565b604051602081830303815290604052945050505b505b7f501781209a1f8899323b96b4ef08b168df93e0a90c673d1e4cce39366cb62f9b5f84868e8e8688605354604051620018e3989796959493929190620040ee565b60405180910390a1620019db620019d55f85878f8f8789805190602001206040517fff0000000000000000000000000000000000000000000000000000000000000060f889901b1660208201527fffffffff0000000000000000000000000000000000000000000000000000000060e088811b821660218401527fffffffffffffffffffffffffffffffffffffffff000000000000000000000000606089811b821660258601529188901b909216603984015285901b16603d82015260518101839052607181018290525f90609101604051602081830303815290604052805190602001209050979650505050505050565b62002ef2565b8615620019ec57620019ec62002340565b50505050620019fa60018055565b50505050505050565b5f54610100900460ff161580801562001a2257505f54600160ff909116105b8062001a3d5750303b15801562001a3d57505f5460ff166001145b62001acf576040517f08c379a000000000000000000000000000000000000000000000000000000000815260206004820152602e60248201527f496e697469616c697a61626c653a20636f6e747261637420697320616c72656160448201527f647920696e697469616c697a656400000000000000000000000000000000000060648201526084015b60405180910390fd5b5f80547fffffffffffffffffffffffffffffffffffffffffffffffffffffffffffffff00166001179055801562001b2c575f80547fffffffffffffffffffffffffffffffffffffffffffffffffffffffffffff00ff166101001790555b606880547fffffffffffffff000000000000000000000000000000000000000000000000ff1661010063ffffffff8916027fffffffffffffff0000000000000000000000000000000000000000ffffffffff1617650100000000006001600160a01b038681169190910291909117909155606c80547fffffffffffffffffffffffff000000000000000000000000000000000000000016848316179055606d541662001c3157606d5474010000000000000000000000000000000000000000900463ffffffff161562001c2b576040517f1a874c1200000000000000000000000000000000000000000000000000000000815260040160405180910390fd5b62001d63565b606d805463ffffffff861674010000000000000000000000000000000000000000027fffffffffffffffff0000000000000000000000000000000000000000000000009091166001600160a01b038816171790556040515f9060129062001c9890620036e9565b6060808252600d908201527f5772617070656420457468657200000000000000000000000000000000000000608082015260a0602082018190526004908201527f574554480000000000000000000000000000000000000000000000000000000060c082015260ff909116604082015260e0018190604051809103905ff590508015801562001d29573d5f803e3d5ffd5b50606e80547fffffffffffffffffffffffff0000000000000000000000000000000000000000166001600160a01b03929092169190911790555b62001d6d62003007565b801562000cc1575f80547fffffffffffffffffffffffffffffffffffffffffffffffffffffffffffff00ff169055604051600181527f7f26b83ff96e1f2b6a682f133852f6798a09c465da95921460cefb38474024989060200160405180910390a1505050505050565b606c546001600160a01b0316331462001e1c576040517fb9b3a2c800000000000000000000000000000000000000000000000000000000815260040160405180910390fd5b62000762620030a9565b60685460ff161562001e64576040517f2f0047fc00000000000000000000000000000000000000000000000000000000815260040160405180910390fd5b60685463ffffffff868116610100909204161462001eae576040517f0595ea2e00000000000000000000000000000000000000000000000000000000815260040160405180910390fd5b62001ed48c8c8c8c8c62000ee160018e8e8e8e8e8e8e60405162000e0592919062003e92565b606e545f906001600160a01b031662001fbd57846001600160a01b031684888a868660405160240162001f0b949392919062004159565b60408051601f198184030181529181526020820180517bffffffffffffffffffffffffffffffffffffffffffffffffffffffff167f1806b5f2000000000000000000000000000000000000000000000000000000001790525162001f70919062003ece565b5f6040518083038185875af1925050503d805f811462001fac576040519150601f19603f3d011682016040523d82523d5f602084013e62001fb1565b606091505b50508091505062002107565b606e546040517f40c10f190000000000000000000000000000000000000000000000000000000081526001600160a01b03878116600483015260248201879052909116906340c10f19906044015f604051808303815f87803b15801562002022575f80fd5b505af115801562002035573d5f803e3d5ffd5b50505050846001600160a01b0316878985856040516024016200205c949392919062004159565b60408051601f198184030181529181526020820180517bffffffffffffffffffffffffffffffffffffffffffffffffffffffff167f1806b5f20000000000000000000000000000000000000000000000000000000017905251620020c1919062003ece565b5f604051808303815f865af19150503d805f8114620020fc576040519150601f19603f3d011682016040523d82523d5f602084013e62002101565b606091505b50909150505b806200213f576040517f37e391c300000000000000000000000000000000000000000000000000000000815260040160405180910390fd5b604080518c815263ffffffff8a1660208201526001600160a01b0389811682840152871660608201526080810186905290517f1df3f2a973a00d6635911755c260704e95e8a5876997546798770f76396fda4d9181900360a00190a150505050505050505050505050565b5f81620021b986868662000981565b1490505b949350505050565b60685460ff161562002203576040517f2f0047fc00000000000000000000000000000000000000000000000000000000815260040160405180910390fd5b606880547fffffffffffffffffffffffffffffffffffffffffffffffffffffffffffffff001660011790556040517f2261efe5aef6fedc1fd1550b25facc9181745623049c7901287030b9ad1a5497905f90a1565b60685463ffffffff610100909104811690871603620022a3576040517f0595ea2e00000000000000000000000000000000000000000000000000000000815260040160405180910390fd5b7f501781209a1f8899323b96b4ef08b168df93e0a90c673d1e4cce39366cb62f9b6001606860019054906101000a900463ffffffff16338989898888605354604051620022f99998979695949392919062004193565b60405180910390a162002334620019d56001606860019054906101000a900463ffffffff16338a8a8a898960405162000e0592919062003e92565b821562000cc15762000cc15b6053546068805463ffffffff909216790100000000000000000000000000000000000000000000000000027fffffff00000000ffffffffffffffffffffffffffffffffffffffffffffffffff90921691909117908190556001600160a01b0365010000000000909104166333d6247d620023b962000862565b6040518263ffffffff1660e01b8152600401620023d891815260200190565b5f604051808303815f87803b158015620023f0575f80fd5b505af115801562002403573d5f803e3d5ffd5b50505050565b606854604080516020808201879052818301869052825180830384018152606083019384905280519101207f257b36320000000000000000000000000000000000000000000000000000000090925260648101919091525f916501000000000090046001600160a01b03169063257b3632906084016020604051808303815f875af11580156200249b573d5f803e3d5ffd5b505050506040513d601f19601f82011682018060405250810190620024c19190620040c0565b9050805f03620024fc576040517e2f6fad00000000000000000000000000000000000000000000000000000000815260040160405180910390fd5b5f80680100000000000000008716600103620025605786915062002523848a8489620021aa565b6200255a576040517fe0417cec00000000000000000000000000000000000000000000000000000000815260040160405180910390fd5b620025ca565b602087901c6200257281600162004200565b91508792506200259162002588868c8662000981565b8a8389620021aa565b620025c8576040517fe0417cec00000000000000000000000000000000000000000000000000000000815260040160405180910390fd5b505b620025d6828262003138565b505050505050505050565b6040516001600160a01b0383166024820152604481018290526200268c9084907fa9059cbb00000000000000000000000000000000000000000000000000000000906064015b60408051601f198184030181529190526020810180517bffffffffffffffffffffffffffffffffffffffffffffffffffffffff167fffffffff000000000000000000000000000000000000000000000000000000009093169290921790915262003200565b505050565b600260015403620026ff576040517f08c379a000000000000000000000000000000000000000000000000000000000815260206004820152601f60248201527f5265656e7472616e637947756172643a207265656e7472616e742063616c6c00604482015260640162001ac6565b6002600155565b5f62002716600482848662004227565b620027219162004250565b90507f2afa5331000000000000000000000000000000000000000000000000000000007fffffffff0000000000000000000000000000000000000000000000000000000082160162002967575f80808080808062002783896004818d62004227565b81019062002792919062004299565b9650965096509650965096509650336001600160a01b0316876001600160a01b031614620027ec576040517f912ecce700000000000000000000000000000000000000000000000000000000815260040160405180910390fd5b6001600160a01b03861630146200282f576040517f750643af00000000000000000000000000000000000000000000000000000000815260040160405180910390fd5b8a851462002869576040517f03fffc4b00000000000000000000000000000000000000000000000000000000815260040160405180910390fd5b604080516001600160a01b0389811660248301528881166044830152606482018890526084820187905260ff861660a483015260c4820185905260e48083018590528351808403909101815261010490920183526020820180517bffffffffffffffffffffffffffffffffffffffffffffffffffffffff167fd505accf000000000000000000000000000000000000000000000000000000001790529151918e169162002917919062003ece565b5f604051808303815f865af19150503d805f811462002952576040519150601f19603f3d011682016040523d82523d5f602084013e62002957565b606091505b505050505050505050506200085b565b7fffffffff0000000000000000000000000000000000000000000000000000000081167f8fcbaf0c0000000000000000000000000000000000000000000000000000000014620029e3576040517fe282c0ba00000000000000000000000000000000000000000000000000000000815260040160405180910390fd5b5f80808080808080620029fa8a6004818e62004227565b81019062002a099190620042ef565b97509750975097509750975097509750336001600160a01b0316886001600160a01b03161462002a65576040517f912ecce700000000000000000000000000000000000000000000000000000000815260040160405180910390fd5b6001600160a01b038716301462002aa8576040517f750643af00000000000000000000000000000000000000000000000000000000815260040160405180910390fd5b604080516001600160a01b038a811660248301528981166044830152606482018990526084820188905286151560a483015260ff861660c483015260e482018590526101048083018590528351808403909101815261012490920183526020820180517bffffffffffffffffffffffffffffffffffffffffffffffffffffffff167f8fcbaf0c000000000000000000000000000000000000000000000000000000001790529151918f169162002b5f919062003ece565b5f604051808303815f865af19150503d805f811462002b9a576040519150601f19603f3d011682016040523d82523d5f602084013e62002b9f565b606091505b50505050505050505050505050505050565b6040516001600160a01b0380851660248301528316604482015260648101829052620024039085907f23b872dd000000000000000000000000000000000000000000000000000000009060840162002627565b60408051600481526024810182526020810180517bffffffffffffffffffffffffffffffffffffffffffffffffffffffff167f06fdde030000000000000000000000000000000000000000000000000000000017905290516060915f9182916001600160a01b0386169162002c7a919062003ece565b5f60405180830381855afa9150503d805f811462002cb4576040519150601f19603f3d011682016040523d82523d5f602084013e62002cb9565b606091505b50915091508162002d00576040518060400160405280600781526020017f4e4f5f4e414d4500000000000000000000000000000000000000000000000000815250620021bd565b620021bd8162003305565b60408051600481526024810182526020810180517bffffffffffffffffffffffffffffffffffffffffffffffffffffffff167f95d89b410000000000000000000000000000000000000000000000000000000017905290516060915f9182916001600160a01b0386169162002d81919062003ece565b5f60405180830381855afa9150503d805f811462002dbb576040519150601f19603f3d011682016040523d82523d5f602084013e62002dc0565b606091505b50915091508162002d00576040518060400160405280600981526020017f4e4f5f53594d424f4c0000000000000000000000000000000000000000000000815250620021bd565b60408051600481526024810182526020810180517bffffffffffffffffffffffffffffffffffffffffffffffffffffffff167f313ce5670000000000000000000000000000000000000000000000000000000017905290515f91829182916001600160a01b0386169162002e7c919062003ece565b5f60405180830381855afa9150503d805f811462002eb6576040519150601f19603f3d011682016040523d82523d5f602084013e62002ebb565b606091505b509150915081801562002ecf575080516020145b62002edc576012620021bd565b80806020019051810190620021bd919062004376565b80600162002f0360206002620044cb565b62002f0f9190620040d8565b6053541062002f4a576040517fef5ccf6600000000000000000000000000000000000000000000000000000000815260040160405180910390fd5b5f60535f815462002f5b9062003d69565b918290555090505f5b602081101562002ff6578082901c60011660010362002f9c57826033826020811062002f945762002f9462003d0f565b015550505050565b6033816020811062002fb25762002fb262003d0f565b01546040805160208101929092528101849052606001604051602081830303815290604052805190602001209250808062002fed9062003d69565b91505062002f64565b506200268c620044d8565b60018055565b5f54610100900460ff166200309f576040517f08c379a000000000000000000000000000000000000000000000000000000000815260206004820152602b60248201527f496e697469616c697a61626c653a20636f6e7472616374206973206e6f74206960448201527f6e697469616c697a696e67000000000000000000000000000000000000000000606482015260840162001ac6565b62000762620034f0565b60685460ff16620030e6576040517f5386698100000000000000000000000000000000000000000000000000000000815260040160405180910390fd5b606880547fffffffffffffffffffffffffffffffffffffffffffffffffffffffffffffff001690556040517f1e5e34eea33501aecf2ebec9fe0e884a40804275ea7fe10b2ba084c8374308b3905f90a1565b6068545f90610100900463ffffffff161580156200315c575063ffffffff82166001145b1562003170575063ffffffff82166200319c565b6200318764010000000063ffffffff841662003e62565b620031999063ffffffff851662003e7c565b90505b600881901c5f8181526069602052604081208054600160ff861690811b91821892839055929091908183169003620019fa576040517f646cf55800000000000000000000000000000000000000000000000000000000815260040160405180910390fd5b5f62003256826040518060400160405280602081526020017f5361666545524332303a206c6f772d6c6576656c2063616c6c206661696c6564815250856001600160a01b0316620035889092919063ffffffff16565b8051909150156200268c578080602001905181019062003277919062004505565b6200268c576040517f08c379a000000000000000000000000000000000000000000000000000000000815260206004820152602a60248201527f5361666545524332303a204552433230206f7065726174696f6e20646964206e60448201527f6f74207375636365656400000000000000000000000000000000000000000000606482015260840162001ac6565b60606040825110620033275781806020019051810190620007f3919062004523565b8151602003620034b2575f5b6020811080156200337e575082818151811062003354576200335462003d0f565b01602001517fff000000000000000000000000000000000000000000000000000000000000001615155b15620033995780620033908162003d69565b91505062003333565b805f03620033dc57505060408051808201909152601281527f4e4f545f56414c49445f454e434f44494e4700000000000000000000000000006020820152919050565b5f8167ffffffffffffffff811115620033f957620033f962003ea1565b6040519080825280601f01601f19166020018201604052801562003424576020820181803683370190505b5090505f5b82811015620034aa5784818151811062003447576200344762003d0f565b602001015160f81c60f81b82828151811062003467576200346762003d0f565b60200101907effffffffffffffffffffffffffffffffffffffffffffffffffffffffffffff191690815f1a90535080620034a18162003d69565b91505062003429565b509392505050565b505060408051808201909152601281527f4e4f545f56414c49445f454e434f44494e470000000000000000000000000000602082015290565b919050565b5f54610100900460ff1662003001576040517f08c379a000000000000000000000000000000000000000000000000000000000815260206004820152602b60248201527f496e697469616c697a61626c653a20636f6e7472616374206973206e6f74206960448201527f6e697469616c697a696e67000000000000000000000000000000000000000000606482015260840162001ac6565b6060620021bd84845f85855f80866001600160a01b03168587604051620035b0919062003ece565b5f6040518083038185875af1925050503d805f8114620035ec576040519150601f19603f3d011682016040523d82523d5f602084013e620035f1565b606091505b509150915062003604878383876200360f565b979650505050505050565b606083156200369c5782515f0362003694576001600160a01b0385163b62003694576040517f08c379a000000000000000000000000000000000000000000000000000000000815260206004820152601d60248201527f416464726573733a2063616c6c20746f206e6f6e2d636f6e7472616374000000604482015260640162001ac6565b5081620021bd565b620021bd8383815115620036b35781518083602001fd5b806040517f08c379a000000000000000000000000000000000000000000000000000000000815260040162001ac691906200459e565b6119a180620045b383390190565b803563ffffffff81168114620034eb575f80fd5b6001600160a01b038116811462003720575f80fd5b50565b5f806040838503121562003735575f80fd5b6200374083620036f7565b9150602083013562003752816200370b565b809150509250929050565b801515811462003720575f80fd5b5f8083601f8401126200377c575f80fd5b50813567ffffffffffffffff81111562003794575f80fd5b602083019150836020828501011115620037ac575f80fd5b9250929050565b5f805f805f60808688031215620037c8575f80fd5b620037d386620036f7565b94506020860135620037e5816200370b565b93506040860135620037f7816200375d565b9250606086013567ffffffffffffffff81111562003813575f80fd5b62003821888289016200376b565b969995985093965092949392505050565b5f6020828403121562003843575f80fd5b813562003850816200370b565b9392505050565b60ff8116811462003720575f80fd5b5f805f805f805f60e0888a0312156200387d575f80fd5b87356200388a8162003857565b96506200389a60208901620036f7565b95506040880135620038ac816200370b565b9450620038bc60608901620036f7565b93506080880135620038ce816200370b565b9699959850939692959460a0840135945060c09093013592915050565b5f60208284031215620038fc575f80fd5b5035919050565b806104008101831015620007f3575f80fd5b5f805f610440848603121562003929575f80fd5b833592506200393c856020860162003903565b91506200394d6104208501620036f7565b90509250925092565b5f805f805f805f60a0888a0312156200396d575f80fd5b6200397888620036f7565b965060208801356200398a816200370b565b9550604088013567ffffffffffffffff80821115620039a7575f80fd5b620039b58b838c016200376b565b909750955060608a0135915080821115620039ce575f80fd5b50620039dd8a828b016200376b565b9094509250506080880135620039f38162003857565b8091505092959891949750929550565b5f805f805f8060a0878903121562003a19575f80fd5b62003a2487620036f7565b9550602087013562003a36816200370b565b945060408701359350606087013562003a4f816200375d565b9250608087013567ffffffffffffffff81111562003a6b575f80fd5b62003a7989828a016200376b565b979a9699509497509295939492505050565b5f806040838503121562003a9d575f80fd5b62003aa883620036f7565b915062003ab860208401620036f7565b90509250929050565b5f805f805f805f805f805f806109208d8f03121562003ade575f80fd5b62003aea8e8e62003903565b9b5062003afc8e6104008f0162003903565b9a506108008d013599506108208d013598506108408d0135975062003b256108608e01620036f7565b965062003b376108808e01356200370b565b6108808d0135955062003b4e6108a08e01620036f7565b945062003b606108c08e01356200370b565b6108c08d013593506108e08d0135925067ffffffffffffffff6109008e0135111562003b8a575f80fd5b62003b9d8e6109008f01358f016200376b565b81935080925050509295989b509295989b509295989b565b5f805f805f805f60c0888a03121562003bcc575f80fd5b62003bd788620036f7565b9650602088013562003be9816200370b565b955060408801359450606088013562003c02816200370b565b9350608088013562003c14816200375d565b925060a088013567ffffffffffffffff81111562003c30575f80fd5b62003c3e8a828b016200376b565b989b979a50959850939692959293505050565b5f805f805f60a0868803121562003c66575f80fd5b62003c7186620036f7565b9450602086013562003c83816200370b565b935062003c9360408701620036f7565b9250606086013562003ca5816200370b565b9150608086013562003cb7816200370b565b809150509295509295909350565b5f805f80610460858703121562003cda575f80fd5b8435935062003ced866020870162003903565b925062003cfe6104208601620036f7565b939692955092936104400135925050565b7f4e487b71000000000000000000000000000000000000000000000000000000005f52603260045260245ffd5b7f4e487b71000000000000000000000000000000000000000000000000000000005f52601160045260245ffd5b5f7fffffffffffffffffffffffffffffffffffffffffffffffffffffffffffffffff820362003d9c5762003d9c62003d3c565b5060010190565b81835281816020850137505f602082840101525f6020601f19601f840116840101905092915050565b606081525f62003de160608301878962003da3565b828103602084015262003df681868862003da3565b91505060ff831660408301529695505050505050565b5f5b8381101562003e2857818101518382015260200162003e0e565b50505f910152565b5f835162003e4381846020880162003e0c565b83519083019062003e5981836020880162003e0c565b01949350505050565b8082028115828204841417620007f357620007f362003d3c565b80820180821115620007f357620007f362003d3c565b818382375f9101908152919050565b7f4e487b71000000000000000000000000000000000000000000000000000000005f52604160045260245ffd5b5f825162003ee181846020870162003e0c565b9190910192915050565b604051601f8201601f1916810167ffffffffffffffff8111828210171562003f175762003f1762003ea1565b604052919050565b5f67ffffffffffffffff82111562003f3b5762003f3b62003ea1565b50601f01601f191660200190565b5f82601f83011262003f59575f80fd5b813562003f7062003f6a8262003f1f565b62003eeb565b81815284602083860101111562003f85575f80fd5b816020850160208301375f918101602001919091529392505050565b5f805f6060848603121562003fb4575f80fd5b833567ffffffffffffffff8082111562003fcc575f80fd5b62003fda8783880162003f49565b9450602086013591508082111562003ff0575f80fd5b5062003fff8682870162003f49565b9250506040840135620040128162003857565b809150509250925092565b5f81518084526200403681602086016020860162003e0c565b601f01601f19169290920160200192915050565b606081525f6200405e60608301866200401d565b82810360208401526200407281866200401d565b91505060ff83166040830152949350505050565b63ffffffff861681525f6001600160a01b038087166020840152808616604084015250608060608301526200360460808301848662003da3565b5f60208284031215620040d1575f80fd5b5051919050565b81810381811115620007f357620007f362003d3c565b5f61010060ff8b16835263ffffffff808b1660208501526001600160a01b03808b166040860152818a1660608601528089166080860152508660a08501528160c085015262004140828501876200401d565b925080851660e085015250509998505050505050505050565b6001600160a01b038516815263ffffffff84166020820152606060408201525f6200418960608301848662003da3565b9695505050505050565b5f61010060ff8c16835263ffffffff808c1660208501526001600160a01b03808c166040860152818b166060860152808a166080860152508760a08501528160c0850152620041e6828501878962003da3565b925080851660e085015250509a9950505050505050505050565b63ffffffff81811683821601908082111562004220576200422062003d3c565b5092915050565b5f808585111562004236575f80fd5b8386111562004243575f80fd5b5050820193919092039150565b7fffffffff000000000000000000000000000000000000000000000000000000008135818116916004851015620042915780818660040360031b1b83161692505b505092915050565b5f805f805f805f60e0888a031215620042b0575f80fd5b8735620042bd816200370b565b96506020880135620042cf816200370b565b955060408801359450606088013593506080880135620038ce8162003857565b5f805f805f805f80610100898b03121562004308575f80fd5b883562004315816200370b565b9750602089013562004327816200370b565b96506040890135955060608901359450608089013562004347816200375d565b935060a0890135620043598162003857565b979a969950949793969295929450505060c08201359160e0013590565b5f6020828403121562004387575f80fd5b8151620038508162003857565b600181815b80851115620043f357817fffffffffffffffffffffffffffffffffffffffffffffffffffffffffffffffff04821115620043d757620043d762003d3c565b80851615620043e557918102915b93841c939080029062004399565b509250929050565b5f826200440b57506001620007f3565b816200441957505f620007f3565b81600181146200443257600281146200443d576200445d565b6001915050620007f3565b60ff84111562004451576200445162003d3c565b50506001821b620007f3565b5060208310610133831016604e8410600b841016171562004482575081810a620007f3565b6200448e838362004394565b807fffffffffffffffffffffffffffffffffffffffffffffffffffffffffffffffff04821115620044c357620044c362003d3c565b029392505050565b5f620038508383620043fb565b7f4e487b71000000000000000000000000000000000000000000000000000000005f52600160045260245ffd5b5f6020828403121562004516575f80fd5b815162003850816200375d565b5f6020828403121562004534575f80fd5b815167ffffffffffffffff8111156200454b575f80fd5b8201601f810184136200455c575f80fd5b80516200456d62003f6a8262003f1f565b81815285602083850101111562004582575f80fd5b6200459582602083016020860162003e0c565b95945050505050565b602081525f6200385060208301846200401d56fe61010060405234801562000011575f80fd5b50604051620019a1380380620019a1833981016040819052620000349162000282565b828260036200004483826200038d565b5060046200005382826200038d565b50503360c0525060ff811660e05246608081905262000072906200007f565b60a0525062000455915050565b5f7f8b73c3c69bb8fe3d512ecc4cf759cc79239f7b179b0ffacaa9a75d522b39400f620000ab6200012c565b805160209182012060408051808201825260018152603160f81b90840152805192830193909352918101919091527fc89efdaa54c0f20c7adf612882df0950f5a951637e0307cdcb4c672f298b8bc66060820152608081018390523060a082015260c001604051602081830303815290604052805190602001209050919050565b6060600380546200013d9062000301565b80601f01602080910402602001604051908101604052809291908181526020018280546200016b9062000301565b8015620001ba5780601f106200019057610100808354040283529160200191620001ba565b820191905f5260205f20905b8154815290600101906020018083116200019c57829003601f168201915b5050505050905090565b634e487b7160e01b5f52604160045260245ffd5b5f82601f830112620001e8575f80fd5b81516001600160401b0380821115620002055762000205620001c4565b604051601f8301601f19908116603f01168101908282118183101715620002305762000230620001c4565b816040528381526020925086838588010111156200024c575f80fd5b5f91505b838210156200026f578582018301518183018401529082019062000250565b5f93810190920192909252949350505050565b5f805f6060848603121562000295575f80fd5b83516001600160401b0380821115620002ac575f80fd5b620002ba87838801620001d8565b94506020860151915080821115620002d0575f80fd5b50620002df86828701620001d8565b925050604084015160ff81168114620002f6575f80fd5b809150509250925092565b600181811c908216806200031657607f821691505b6020821081036200033557634e487b7160e01b5f52602260045260245ffd5b50919050565b601f82111562000388575f81815260208120601f850160051c81016020861015620003635750805b601f850160051c820191505b8181101562000384578281556001016200036f565b5050505b505050565b81516001600160401b03811115620003a957620003a9620001c4565b620003c181620003ba845462000301565b846200033b565b602080601f831160018114620003f7575f8415620003df5750858301515b5f19600386901b1c1916600185901b17855562000384565b5f85815260208120601f198616915b82811015620004275788860151825594840194600190910190840162000406565b50858210156200044557878501515f19600388901b60f8161c191681555b5050505050600190811b01905550565b60805160a05160c05160e0516115036200049e5f395f61022d01525f81816102fb015281816105ad015261067a01525f61052801525f818161036d01526104f201526115035ff3fe608060405234801561000f575f80fd5b506004361061016e575f3560e01c806370a08231116100d2578063a457c2d711610088578063d505accf11610063578063d505accf1461038f578063dd62ed3e146103a2578063ffa1ad74146103e7575f80fd5b8063a457c2d714610342578063a9059cbb14610355578063cd0d009614610368575f80fd5b806395d89b41116100b857806395d89b41146102db5780639dc29fac146102e3578063a3c573eb146102f6575f80fd5b806370a08231146102875780637ecebe00146102bc575f80fd5b806330adf81f116101275780633644e5151161010d5780633644e51514610257578063395093511461025f57806340c10f1914610272575f80fd5b806330adf81f146101ff578063313ce56714610226575f80fd5b806318160ddd1161015757806318160ddd146101b357806320606b70146101c557806323b872dd146101ec575f80fd5b806306fdde0314610172578063095ea7b314610190575b5f80fd5b61017a610423565b6040516101879190611255565b60405180910390f35b6101a361019e3660046112e6565b6104b3565b6040519015158152602001610187565b6002545b604051908152602001610187565b6101b77f8b73c3c69bb8fe3d512ecc4cf759cc79239f7b179b0ffacaa9a75d522b39400f81565b6101a36101fa36600461130e565b6104cc565b6101b77f6e71edae12b1b97f4d1f60370fef10105fa2faae0126114a169c64845d6126c981565b60405160ff7f0000000000000000000000000000000000000000000000000000000000000000168152602001610187565b6101b76104ef565b6101a361026d3660046112e6565b61054a565b6102856102803660046112e6565b610595565b005b6101b7610295366004611347565b73ffffffffffffffffffffffffffffffffffffffff165f9081526020819052604090205490565b6101b76102ca366004611347565b60056020525f908152604090205481565b61017a610653565b6102856102f13660046112e6565b610662565b61031d7f000000000000000000000000000000000000000000000000000000000000000081565b60405173ffffffffffffffffffffffffffffffffffffffff9091168152602001610187565b6101a36103503660046112e6565b610717565b6101a36103633660046112e6565b6107cd565b6101b77f000000000000000000000000000000000000000000000000000000000000000081565b61028561039d366004611367565b6107da565b6101b76103b03660046113d4565b73ffffffffffffffffffffffffffffffffffffffff9182165f90815260016020908152604080832093909416825291909152205490565b61017a6040518060400160405280600181526020017f310000000000000000000000000000000000000000000000000000000000000081525081565b60606003805461043290611405565b80601f016020809104026020016040519081016040528092919081815260200182805461045e90611405565b80156104a95780601f10610480576101008083540402835291602001916104a9565b820191905f5260205f20905b81548152906001019060200180831161048c57829003601f168201915b5050505050905090565b5f336104c0818585610ad7565b60019150505b92915050565b5f336104d9858285610c56565b6104e4858585610d12565b506001949350505050565b5f7f000000000000000000000000000000000000000000000000000000000000000046146105255761052046610f31565b905090565b507f000000000000000000000000000000000000000000000000000000000000000090565b335f81815260016020908152604080832073ffffffffffffffffffffffffffffffffffffffff871684529091528120549091906104c09082908690610590908790611483565b610ad7565b3373ffffffffffffffffffffffffffffffffffffffff7f000000000000000000000000000000000000000000000000000000000000000016146106455760405162461bcd60e51b815260206004820152603060248201527f546f6b656e577261707065643a3a6f6e6c794272696467653a204e6f7420506f60448201527f6c79676f6e5a6b45564d4272696467650000000000000000000000000000000060648201526084015b60405180910390fd5b61064f8282610ff8565b5050565b60606004805461043290611405565b3373ffffffffffffffffffffffffffffffffffffffff7f0000000000000000000000000000000000000000000000000000000000000000161461070d5760405162461bcd60e51b815260206004820152603060248201527f546f6b656e577261707065643a3a6f6e6c794272696467653a204e6f7420506f60448201527f6c79676f6e5a6b45564d42726964676500000000000000000000000000000000606482015260840161063c565b61064f82826110cf565b335f81815260016020908152604080832073ffffffffffffffffffffffffffffffffffffffff87168452909152812054909190838110156107c05760405162461bcd60e51b815260206004820152602560248201527f45524332303a2064656372656173656420616c6c6f77616e63652062656c6f7760448201527f207a65726f000000000000000000000000000000000000000000000000000000606482015260840161063c565b6104e48286868403610ad7565b5f336104c0818585610d12565b8342111561084f5760405162461bcd60e51b8152602060048201526024808201527f546f6b656e577261707065643a3a7065726d69743a204578706972656420706560448201527f726d697400000000000000000000000000000000000000000000000000000000606482015260840161063c565b73ffffffffffffffffffffffffffffffffffffffff87165f90815260056020526040812080547f6e71edae12b1b97f4d1f60370fef10105fa2faae0126114a169c64845d6126c9918a918a918a9190866108a883611496565b9091555060408051602081019690965273ffffffffffffffffffffffffffffffffffffffff94851690860152929091166060840152608083015260a082015260c0810186905260e0016040516020818303038152906040528051906020012090505f6109126104ef565b6040517f19010000000000000000000000000000000000000000000000000000000000006020820152602281019190915260428101839052606201604080517fffffffffffffffffffffffffffffffffffffffffffffffffffffffffffffffe081840301815282825280516020918201205f80855291840180845281905260ff89169284019290925260608301879052608083018690529092509060019060a0016020604051602081039080840390855afa1580156109d3573d5f803e3d5ffd5b50506040517fffffffffffffffffffffffffffffffffffffffffffffffffffffffffffffffe0015191505073ffffffffffffffffffffffffffffffffffffffff811615801590610a4e57508973ffffffffffffffffffffffffffffffffffffffff168173ffffffffffffffffffffffffffffffffffffffff16145b610ac05760405162461bcd60e51b815260206004820152602760248201527f546f6b656e577261707065643a3a7065726d69743a20496e76616c696420736960448201527f676e617475726500000000000000000000000000000000000000000000000000606482015260840161063c565b610acb8a8a8a610ad7565b50505050505050505050565b73ffffffffffffffffffffffffffffffffffffffff8316610b5f5760405162461bcd60e51b8152602060048201526024808201527f45524332303a20617070726f76652066726f6d20746865207a65726f2061646460448201527f7265737300000000000000000000000000000000000000000000000000000000606482015260840161063c565b73ffffffffffffffffffffffffffffffffffffffff8216610be85760405162461bcd60e51b815260206004820152602260248201527f45524332303a20617070726f766520746f20746865207a65726f20616464726560448201527f7373000000000000000000000000000000000000000000000000000000000000606482015260840161063c565b73ffffffffffffffffffffffffffffffffffffffff8381165f8181526001602090815260408083209487168084529482529182902085905590518481527f8c5be1e5ebec7d5bd14f71427d1e84f3dd0314c0f7b2291e5b200ac8c7c3b92591015b60405180910390a3505050565b73ffffffffffffffffffffffffffffffffffffffff8381165f908152600160209081526040808320938616835292905220547fffffffffffffffffffffffffffffffffffffffffffffffffffffffffffffffff8114610d0c5781811015610cff5760405162461bcd60e51b815260206004820152601d60248201527f45524332303a20696e73756666696369656e7420616c6c6f77616e6365000000604482015260640161063c565b610d0c8484848403610ad7565b50505050565b73ffffffffffffffffffffffffffffffffffffffff8316610d9b5760405162461bcd60e51b815260206004820152602560248201527f45524332303a207472616e736665722066726f6d20746865207a65726f20616460448201527f6472657373000000000000000000000000000000000000000000000000000000606482015260840161063c565b73ffffffffffffffffffffffffffffffffffffffff8216610e245760405162461bcd60e51b815260206004820152602360248201527f45524332303a207472616e7366657220746f20746865207a65726f206164647260448201527f6573730000000000000000000000000000000000000000000000000000000000606482015260840161063c565b73ffffffffffffffffffffffffffffffffffffffff83165f9081526020819052604090205481811015610ebf5760405162461bcd60e51b815260206004820152602660248201527f45524332303a207472616e7366657220616d6f756e742065786365656473206260448201527f616c616e63650000000000000000000000000000000000000000000000000000606482015260840161063c565b73ffffffffffffffffffffffffffffffffffffffff8481165f81815260208181526040808320878703905593871680835291849020805487019055925185815290927fddf252ad1be2c89b69c2b068fc378daa952ba7f163c4a11628f55a4df523b3ef910160405180910390a3610d0c565b5f7f8b73c3c69bb8fe3d512ecc4cf759cc79239f7b179b0ffacaa9a75d522b39400f610f5b610423565b8051602091820120604080518082018252600181527f310000000000000000000000000000000000000000000000000000000000000090840152805192830193909352918101919091527fc89efdaa54c0f20c7adf612882df0950f5a951637e0307cdcb4c672f298b8bc66060820152608081018390523060a082015260c001604051602081830303815290604052805190602001209050919050565b73ffffffffffffffffffffffffffffffffffffffff821661105b5760405162461bcd60e51b815260206004820152601f60248201527f45524332303a206d696e7420746f20746865207a65726f206164647265737300604482015260640161063c565b8060025f82825461106c9190611483565b909155505073ffffffffffffffffffffffffffffffffffffffff82165f81815260208181526040808320805486019055518481527fddf252ad1be2c89b69c2b068fc378daa952ba7f163c4a11628f55a4df523b3ef910160405180910390a35050565b73ffffffffffffffffffffffffffffffffffffffff82166111585760405162461bcd60e51b815260206004820152602160248201527f45524332303a206275726e2066726f6d20746865207a65726f2061646472657360448201527f7300000000000000000000000000000000000000000000000000000000000000606482015260840161063c565b73ffffffffffffffffffffffffffffffffffffffff82165f90815260208190526040902054818110156111f35760405162461bcd60e51b815260206004820152602260248201527f45524332303a206275726e20616d6f756e7420657863656564732062616c616e60448201527f6365000000000000000000000000000000000000000000000000000000000000606482015260840161063c565b73ffffffffffffffffffffffffffffffffffffffff83165f818152602081815260408083208686039055600280548790039055518581529192917fddf252ad1be2c89b69c2b068fc378daa952ba7f163c4a11628f55a4df523b3ef9101610c49565b5f6020808352835180828501525f5b8181101561128057858101830151858201604001528201611264565b505f6040828601015260407fffffffffffffffffffffffffffffffffffffffffffffffffffffffffffffffe0601f8301168501019250505092915050565b803573ffffffffffffffffffffffffffffffffffffffff811681146112e1575f80fd5b919050565b5f80604083850312156112f7575f80fd5b611300836112be565b946020939093013593505050565b5f805f60608486031215611320575f80fd5b611329846112be565b9250611337602085016112be565b9150604084013590509250925092565b5f60208284031215611357575f80fd5b611360826112be565b9392505050565b5f805f805f805f60e0888a03121561137d575f80fd5b611386886112be565b9650611394602089016112be565b95506040880135945060608801359350608088013560ff811681146113b7575f80fd5b9699959850939692959460a0840135945060c09093013592915050565b5f80604083850312156113e5575f80fd5b6113ee836112be565b91506113fc602084016112be565b90509250929050565b600181811c9082168061141957607f821691505b602082108103611450577f4e487b71000000000000000000000000000000000000000000000000000000005f52602260045260245ffd5b50919050565b7f4e487b71000000000000000000000000000000000000000000000000000000005f52601160045260245ffd5b808201808211156104c6576104c6611456565b5f7fffffffffffffffffffffffffffffffffffffffffffffffffffffffffffffffff82036114c6576114c6611456565b506001019056fea2646970667358221220176a1a9cf4a702d3853b858873fff4a6370c4e5d7d72d68593ec0ebe64fcc26964736f6c63430008140033a26469706673582212209002ffc0c7cb9056d22d47ac65cf05714a8ae8ce0af7e882f7e68b9fdede830e64736f6c63430008140033",
  "linkReferences": {},
  "deployedLinkReferences": {}
}