{
  "_format": "hh-sol-artifact-1",
  "contractName": "PolygonZkEVMBridgeMock",
  "sourceName": "contracts/mocks/PolygonZkEVMBridgeMock.sol",
  "abi": [
    {
      "anonymous": false,
      "inputs": [
        {
          "indexed": false,
          "internalType": "uint8",
          "name": "leafType",
          "type": "uint8"
        },
        {
          "indexed": false,
          "internalType": "uint32",
          "name": "originNetwork",
          "type": "uint32"
        },
        {
          "indexed": false,
          "internalType": "address",
          "name": "originAddress",
          "type": "address"
        },
        {
          "indexed": false,
          "internalType": "uint32",
          "name": "destinationNetwork",
          "type": "uint32"
        },
        {
          "indexed": false,
          "internalType": "address",
          "name": "destinationAddress",
          "type": "address"
        },
        {
          "indexed": false,
          "internalType": "uint256",
          "name": "amount",
          "type": "uint256"
        },
        {
          "indexed": false,
          "internalType": "bytes",
          "name": "metadata",
          "type": "bytes"
        },
        {
          "indexed": false,
          "internalType": "uint32",
          "name": "depositCount",
          "type": "uint32"
        }
      ],
      "name": "BridgeEvent",
      "type": "event"
    },
    {
      "anonymous": false,
      "inputs": [
        {
          "indexed": false,
          "internalType": "uint32",
          "name": "index",
          "type": "uint32"
        },
        {
          "indexed": false,
          "internalType": "uint32",
          "name": "originNetwork",
          "type": "uint32"
        },
        {
          "indexed": false,
          "internalType": "address",
          "name": "originAddress",
          "type": "address"
        },
        {
          "indexed": false,
          "internalType": "address",
          "name": "destinationAddress",
          "type": "address"
        },
        {
          "indexed": false,
          "internalType": "uint256",
          "name": "amount",
          "type": "uint256"
        }
      ],
      "name": "ClaimEvent",
      "type": "event"
    },
    {
      "anonymous": false,
      "inputs": [],
      "name": "EmergencyStateActivated",
      "type": "event"
    },
    {
      "anonymous": false,
      "inputs": [],
      "name": "EmergencyStateDeactivated",
      "type": "event"
    },
    {
      "anonymous": false,
      "inputs": [
        {
          "indexed": false,
          "internalType": "uint8",
          "name": "version",
          "type": "uint8"
        }
      ],
      "name": "Initialized",
      "type": "event"
    },
    {
      "anonymous": false,
      "inputs": [
        {
          "indexed": false,
          "internalType": "uint32",
          "name": "originNetwork",
          "type": "uint32"
        },
        {
          "indexed": false,
          "internalType": "address",
          "name": "originTokenAddress",
          "type": "address"
        },
        {
          "indexed": false,
          "internalType": "address",
          "name": "wrappedTokenAddress",
          "type": "address"
        },
        {
          "indexed": false,
          "internalType": "bytes",
          "name": "metadata",
          "type": "bytes"
        }
      ],
      "name": "NewWrappedToken",
      "type": "event"
    },
    {
      "anonymous": false,
      "inputs": [
        {
          "indexed": true,
          "internalType": "address",
          "name": "previousOwner",
          "type": "address"
        },
        {
          "indexed": true,
          "internalType": "address",
          "name": "newOwner",
          "type": "address"
        }
      ],
      "name": "OwnershipTransferred",
      "type": "event"
    },
    {
      "inputs": [],
      "name": "activateEmergencyState",
      "outputs": [],
      "stateMutability": "nonpayable",
      "type": "function"
    },
    {
      "inputs": [
        {
          "internalType": "address",
          "name": "token",
          "type": "address"
        },
        {
          "internalType": "uint32",
          "name": "destinationNetwork",
          "type": "uint32"
        },
        {
          "internalType": "address",
          "name": "destinationAddress",
          "type": "address"
        },
        {
          "internalType": "uint256",
          "name": "amount",
          "type": "uint256"
        },
        {
          "internalType": "bytes",
          "name": "permitData",
          "type": "bytes"
        }
      ],
      "name": "bridgeAsset",
      "outputs": [],
      "stateMutability": "payable",
      "type": "function"
    },
    {
      "inputs": [
        {
          "internalType": "uint32",
          "name": "destinationNetwork",
          "type": "uint32"
        },
        {
          "internalType": "address",
          "name": "destinationAddress",
          "type": "address"
        },
        {
          "internalType": "bytes",
          "name": "metadata",
          "type": "bytes"
        }
      ],
      "name": "bridgeMessage",
      "outputs": [],
      "stateMutability": "payable",
      "type": "function"
    },
    {
      "inputs": [
        {
          "internalType": "bytes32[32]",
          "name": "smtProof",
          "type": "bytes32[32]"
        },
        {
          "internalType": "uint32",
          "name": "index",
          "type": "uint32"
        },
        {
          "internalType": "bytes32",
          "name": "mainnetExitRoot",
          "type": "bytes32"
        },
        {
          "internalType": "bytes32",
          "name": "rollupExitRoot",
          "type": "bytes32"
        },
        {
          "internalType": "uint32",
          "name": "originNetwork",
          "type": "uint32"
        },
        {
          "internalType": "address",
          "name": "originTokenAddress",
          "type": "address"
        },
        {
          "internalType": "uint32",
          "name": "destinationNetwork",
          "type": "uint32"
        },
        {
          "internalType": "address",
          "name": "destinationAddress",
          "type": "address"
        },
        {
          "internalType": "uint256",
          "name": "amount",
          "type": "uint256"
        },
        {
          "internalType": "bytes",
          "name": "metadata",
          "type": "bytes"
        }
      ],
      "name": "claimAsset",
      "outputs": [],
      "stateMutability": "nonpayable",
      "type": "function"
    },
    {
      "inputs": [
        {
          "internalType": "bytes32[32]",
          "name": "smtProof",
          "type": "bytes32[32]"
        },
        {
          "internalType": "uint32",
          "name": "index",
          "type": "uint32"
        },
        {
          "internalType": "bytes32",
          "name": "mainnetExitRoot",
          "type": "bytes32"
        },
        {
          "internalType": "bytes32",
          "name": "rollupExitRoot",
          "type": "bytes32"
        },
        {
          "internalType": "uint32",
          "name": "originNetwork",
          "type": "uint32"
        },
        {
          "internalType": "address",
          "name": "originAddress",
          "type": "address"
        },
        {
          "internalType": "uint32",
          "name": "destinationNetwork",
          "type": "uint32"
        },
        {
          "internalType": "address",
          "name": "destinationAddress",
          "type": "address"
        },
        {
          "internalType": "uint256",
          "name": "amount",
          "type": "uint256"
        },
        {
          "internalType": "bytes",
          "name": "metadata",
          "type": "bytes"
        }
      ],
      "name": "claimMessage",
      "outputs": [],
      "stateMutability": "nonpayable",
      "type": "function"
    },
    {
      "inputs": [
        {
          "internalType": "uint256",
          "name": "",
          "type": "uint256"
        }
      ],
      "name": "claimedBitMap",
      "outputs": [
        {
          "internalType": "uint256",
          "name": "",
          "type": "uint256"
        }
      ],
      "stateMutability": "view",
      "type": "function"
    },
    {
      "inputs": [],
      "name": "deactivateEmergencyState",
      "outputs": [],
      "stateMutability": "nonpayable",
      "type": "function"
    },
    {
      "inputs": [],
      "name": "depositCount",
      "outputs": [
        {
          "internalType": "uint256",
          "name": "",
          "type": "uint256"
        }
      ],
      "stateMutability": "view",
      "type": "function"
    },
    {
      "inputs": [],
      "name": "getDepositRoot",
      "outputs": [
        {
          "internalType": "bytes32",
          "name": "",
          "type": "bytes32"
        }
      ],
      "stateMutability": "view",
      "type": "function"
    },
    {
      "inputs": [
        {
          "internalType": "uint8",
          "name": "leafType",
          "type": "uint8"
        },
        {
          "internalType": "uint32",
          "name": "originNetwork",
          "type": "uint32"
        },
        {
          "internalType": "address",
          "name": "originAddress",
          "type": "address"
        },
        {
          "internalType": "uint32",
          "name": "destinationNetwork",
          "type": "uint32"
        },
        {
          "internalType": "address",
          "name": "destinationAddress",
          "type": "address"
        },
        {
          "internalType": "uint256",
          "name": "amount",
          "type": "uint256"
        },
        {
          "internalType": "bytes32",
          "name": "metadataHash",
          "type": "bytes32"
        }
      ],
      "name": "getLeafValue",
      "outputs": [
        {
          "internalType": "bytes32",
          "name": "",
          "type": "bytes32"
        }
      ],
      "stateMutability": "pure",
      "type": "function"
    },
    {
      "inputs": [
        {
          "internalType": "uint32",
          "name": "originNetwork",
          "type": "uint32"
        },
        {
          "internalType": "address",
          "name": "originTokenAddress",
          "type": "address"
        }
      ],
      "name": "getTokenWrappedAddress",
      "outputs": [
        {
          "internalType": "address",
          "name": "",
          "type": "address"
        }
      ],
      "stateMutability": "view",
      "type": "function"
    },
    {
      "inputs": [],
      "name": "globalExitRootManager",
      "outputs": [
        {
          "internalType": "contract IPolygonZkEVMGlobalExitRoot",
          "name": "",
          "type": "address"
        }
      ],
      "stateMutability": "view",
      "type": "function"
    },
    {
      "inputs": [
        {
          "internalType": "uint32",
          "name": "_networkID",
          "type": "uint32"
        },
        {
          "internalType": "contract IPolygonZkEVMGlobalExitRoot",
          "name": "_globalExitRootManager",
          "type": "address"
        },
        {
          "internalType": "address",
          "name": "_polygonZkEVMaddress",
          "type": "address"
        }
      ],
      "name": "initialize",
      "outputs": [],
      "stateMutability": "nonpayable",
      "type": "function"
    },
    {
      "inputs": [
        {
          "internalType": "uint256",
          "name": "index",
          "type": "uint256"
        }
      ],
      "name": "isClaimed",
      "outputs": [
        {
          "internalType": "bool",
          "name": "",
          "type": "bool"
        }
      ],
      "stateMutability": "view",
      "type": "function"
    },
    {
      "inputs": [],
      "name": "isEmergencyState",
      "outputs": [
        {
          "internalType": "bool",
          "name": "",
          "type": "bool"
        }
      ],
      "stateMutability": "view",
      "type": "function"
    },
    {
      "inputs": [],
      "name": "maxEtherBridge",
      "outputs": [
        {
          "internalType": "uint256",
          "name": "",
          "type": "uint256"
        }
      ],
      "stateMutability": "view",
      "type": "function"
    },
    {
      "inputs": [],
      "name": "networkID",
      "outputs": [
        {
          "internalType": "uint32",
          "name": "",
          "type": "uint32"
        }
      ],
      "stateMutability": "view",
      "type": "function"
    },
    {
      "inputs": [],
      "name": "owner",
      "outputs": [
        {
          "internalType": "address",
          "name": "",
          "type": "address"
        }
      ],
      "stateMutability": "view",
      "type": "function"
    },
    {
      "inputs": [],
      "name": "polygonZkEVMaddress",
      "outputs": [
        {
          "internalType": "address",
          "name": "",
          "type": "address"
        }
      ],
      "stateMutability": "view",
      "type": "function"
    },
    {
      "inputs": [
        {
          "internalType": "uint32",
          "name": "originNetwork",
          "type": "uint32"
        },
        {
          "internalType": "address",
          "name": "originTokenAddress",
          "type": "address"
        },
        {
          "internalType": "string",
          "name": "name",
          "type": "string"
        },
        {
          "internalType": "string",
          "name": "symbol",
          "type": "string"
        },
        {
          "internalType": "uint8",
          "name": "decimals",
          "type": "uint8"
        }
      ],
      "name": "precalculatedWrapperAddress",
      "outputs": [
        {
          "internalType": "address",
          "name": "",
          "type": "address"
        }
      ],
      "stateMutability": "view",
      "type": "function"
    },
    {
      "inputs": [],
      "name": "renounceOwnership",
      "outputs": [],
      "stateMutability": "nonpayable",
      "type": "function"
    },
    {
      "inputs": [
        {
          "internalType": "uint256",
          "name": "_maxEtherBridge",
          "type": "uint256"
        }
      ],
      "name": "setMaxEtherBridge",
      "outputs": [],
      "stateMutability": "nonpayable",
      "type": "function"
    },
    {
      "inputs": [
        {
          "internalType": "uint32",
          "name": "_networkID",
          "type": "uint32"
        }
      ],
      "name": "setNetworkID",
      "outputs": [],
      "stateMutability": "nonpayable",
      "type": "function"
    },
    {
      "inputs": [
        {
          "internalType": "bytes32",
          "name": "",
          "type": "bytes32"
        }
      ],
      "name": "tokenInfoToWrappedToken",
      "outputs": [
        {
          "internalType": "address",
          "name": "",
          "type": "address"
        }
      ],
      "stateMutability": "view",
      "type": "function"
    },
    {
      "inputs": [
        {
          "internalType": "address",
          "name": "newOwner",
          "type": "address"
        }
      ],
      "name": "transferOwnership",
      "outputs": [],
      "stateMutability": "nonpayable",
      "type": "function"
    },
    {
      "inputs": [
        {
          "internalType": "bytes32",
          "name": "leafHash",
          "type": "bytes32"
        },
        {
          "internalType": "bytes32[32]",
          "name": "smtProof",
          "type": "bytes32[32]"
        },
        {
          "internalType": "uint32",
          "name": "index",
          "type": "uint32"
        },
        {
          "internalType": "bytes32",
          "name": "root",
          "type": "bytes32"
        }
      ],
      "name": "verifyMerkleProof",
      "outputs": [
        {
          "internalType": "bool",
          "name": "",
          "type": "bool"
        }
      ],
      "stateMutability": "pure",
      "type": "function"
    },
    {
      "inputs": [
        {
          "internalType": "address",
          "name": "",
          "type": "address"
        }
      ],
      "name": "wrappedTokenToTokenInfo",
      "outputs": [
        {
          "internalType": "uint32",
          "name": "originNetwork",
          "type": "uint32"
        },
        {
          "internalType": "address",
          "name": "originTokenAddress",
          "type": "address"
        }
      ],
      "stateMutability": "view",
      "type": "function"
    }
  ],
  "bytecode": "0x608060405234801561001057600080fd5b50614c98806100206000396000f3fe6080604052600436106200018b5760003560e01c8063647c576c11620000dd578063bab161bf1162000084578063bab161bf14620004c8578063d02103ca1462000502578063d96a15f71462000524578063dbc16976146200053b578063ee25560b1462000553578063f2fde38b1462000584578063fb57083414620005a957600080fd5b8063647c576c14620003af578063715018a614620003d457806381b1c17414620003ec5780638da5cb5b146200042657806391e57e2d14620004465780639e34070f146200045e578063aaa13cc214620004a357600080fd5b80632cffd02e11620001425780632cffd02e14620002705780632d2c9d9414620002955780632dfdf0b514620002ba578063318aee3d14620002e157806334ac9cf214620003505780633ae0504714620003725780633e197043146200038a57600080fd5b80630871e971146200019057806315064c9614620001a95780632072f6c514620001da57806322e95f2c14620001f25780632b5e42e714620002265780632c3f58cd146200024b575b600080fd5b620001a7620001a13660046200281a565b620005ce565b005b348015620001b657600080fd5b50602254620001c59060ff1681565b60405190151581526020015b60405180910390f35b348015620001e757600080fd5b50620001a762000663565b348015620001ff57600080fd5b506200021762000211366004620028a6565b6200069c565b604051620001d19190620028e2565b3480156200023357600080fd5b50620001a762000245366004620028f6565b620006ef565b3480156200025857600080fd5b50620001a76200026a36600462002910565b620006fe565b3480156200027d57600080fd5b50620001a76200028f36600462002948565b6200072a565b348015620002a257600080fd5b50620001a7620002b436600462002948565b62000b7d565b348015620002c757600080fd5b50620002d260215481565b604051908152602001620001d1565b348015620002ee57600080fd5b506200032b6200030036600462002a2d565b60256020526000908152604090205463ffffffff81169064010000000090046001600160a01b031682565b6040805163ffffffff90931683526001600160a01b03909116602083015201620001d1565b3480156200035d57600080fd5b5060275462000217906001600160a01b031681565b3480156200037f57600080fd5b50620002d262000d16565b3480156200039757600080fd5b50620002d2620003a936600462002a5d565b62000e09565b348015620003bc57600080fd5b50620001a7620003ce36600462002ae7565b62000e96565b348015620003e157600080fd5b50620001a76200100b565b348015620003f957600080fd5b50620002176200040b366004620028f6565b6024602052600090815260409020546001600160a01b031681565b3480156200043357600080fd5b50605a546001600160a01b031662000217565b3480156200045357600080fd5b50620002d2608c5481565b3480156200046b57600080fd5b50620001c56200047d366004620028f6565b600881901c600090815260236020526040902054600160ff9092169190911b9081161490565b348015620004b057600080fd5b5062000217620004c236600462002b37565b62001021565b348015620004d557600080fd5b50602254620004ec90610100900463ffffffff1681565b60405163ffffffff9091168152602001620001d1565b3480156200050f57600080fd5b5060265462000217906001600160a01b031681565b620001a76200053536600462002bea565b62001138565b3480156200054857600080fd5b50620001a7620012ff565b3480156200056057600080fd5b50620002d262000572366004620028f6565b60236020526000908152604090205481565b3480156200059157600080fd5b50620001a7620005a336600462002a2d565b62001336565b348015620005b657600080fd5b50620001c5620005c836600462002c54565b620013b5565b608c543411156200064b5760405162461bcd60e51b8152602060048201526047602482015260008051602062004c4383398151915260448201527f2043616e6e6f7420627269646765206d6f7265207468616e206d6178457468656064820152667242726964676560c81b608482015260a4015b60405180910390fd5b6200065b868686868686620014ad565b505050505050565b6027546001600160a01b03163314620006905760405162461bcd60e51b8152600401620006429062002ca1565b6200069a62001aa9565b565b6000602460008484604051602001620006b792919062002cfe565b60408051601f19818403018152918152815160209283012083529082019290925201600020546001600160a01b031690505b92915050565b620006f962001b07565b608c55565b6200070862001b07565b6022805463ffffffff9092166101000264ffffffff0019909216919091179055565b60225460ff1615620007505760405162461bcd60e51b8152600401620006429062002d28565b620007678b8b8b8b8b8b8b8b8b8b8b600062001b63565b6001600160a01b0386166200085e57604080516000808252602082019092526001600160a01b038616908590604051620007a2919062002dd5565b60006040518083038185875af1925050503d8060008114620007e1576040519150601f19603f3d011682016040523d82523d6000602084013e620007e6565b606091505b5050905080620008575760405162461bcd60e51b815260206004820152603560248201527f506f6c79676f6e5a6b45564d4272696467653a3a636c61696d41737365743a20604482015274115d1a195c881d1c985b9cd9995c8819985a5b1959605a1b606482015260840162000642565b5062000b2f565b60225463ffffffff61010090910481169088160362000893576200088d6001600160a01b038716858562001d95565b62000b2f565b60008787604051602001620008aa92919062002cfe565b60408051601f198184030181529181528151602092830120600081815260249093529120549091506001600160a01b03168062000ac75760008080620008f38688018862002eac565b9250925092506000858484846040516200090d9062002791565b6200091b9392919062002f4f565b8190604051809103906000f59050801580156200093c573d6000803e3d6000fd5b506040516340c10f1960e01b81529091506001600160a01b038216906340c10f199062000970908d908d9060040162002f8c565b600060405180830381600087803b1580156200098b57600080fd5b505af1158015620009a0573d6000803e3d6000fd5b50505050806024600088815260200190815260200160002060006101000a8154816001600160a01b0302191690836001600160a01b0316021790555060405180604001604052808e63ffffffff1681526020018d6001600160a01b031681525060256000836001600160a01b03166001600160a01b0316815260200190815260200160002060008201518160000160006101000a81548163ffffffff021916908363ffffffff16021790555060208201518160000160046101000a8154816001600160a01b0302191690836001600160a01b031602179055509050507f490e59a1701b938786ac72570a1efeac994a3dbe96e2e883e19e902ace6e6a398d8d838b8b60405162000ab595949392919062002fce565b60405180910390a15050505062000b2c565b6040516340c10f1960e01b81526001600160a01b038216906340c10f199062000af7908990899060040162002f8c565b600060405180830381600087803b15801562000b1257600080fd5b505af115801562000b27573d6000803e3d6000fd5b505050505b50505b7f25308c93ceeed162da955b3f7ce3e3f93606579e40fb92029faa9efe275459838a8888878760405162000b6895949392919062003009565b60405180910390a15050505050505050505050565b60225460ff161562000ba35760405162461bcd60e51b8152600401620006429062002d28565b62000bba8b8b8b8b8b8b8b8b8b8b8b600162001b63565b6000846001600160a01b031684888a868660405160240162000be0949392919062003040565b60408051601f198184030181529181526020820180516001600160e01b0316630c035af960e11b1790525162000c17919062002dd5565b60006040518083038185875af1925050503d806000811462000c56576040519150601f19603f3d011682016040523d82523d6000602084013e62000c5b565b606091505b505090508062000cc75760405162461bcd60e51b815260206004820152603060248201527f506f6c79676f6e5a6b45564d4272696467653a3a636c61696d4d65737361676560448201526f0e8813595cdcd859d94819985a5b195960821b606482015260840162000642565b7f25308c93ceeed162da955b3f7ce3e3f93606579e40fb92029faa9efe275459838b8989888860405162000d0095949392919062003009565b60405180910390a1505050505050505050505050565b602154600090819081805b602081101562000e00578260011660010362000d81576001816020811062000d4d5762000d4d6200307d565b0154604080516020810192909252810185905260600160405160208183030381529060405280519060200120935062000dae565b60408051602081018690529081018390526060016040516020818303038152906040528051906020012093505b62000dbb600284620030a9565b6040805160208101859052908101849052909350606001604051602081830303815290604052805190602001209150808062000df790620030cc565b91505062000d21565b50919392505050565b6040516001600160f81b031960f889901b1660208201526001600160e01b031960e088811b821660218401526001600160601b0319606089811b821660258601529188901b909216603984015285901b16603d8201526051810183905260718101829052600090609101604051602081830303815290604052805190602001209050979650505050505050565b600054610100900460ff161580801562000eb75750600054600160ff909116105b8062000ed35750303b15801562000ed3575060005460ff166001145b62000f385760405162461bcd60e51b815260206004820152602e60248201527f496e697469616c697a61626c653a20636f6e747261637420697320616c72656160448201526d191e481a5b9a5d1a585b1a5e995960921b606482015260840162000642565b6000805460ff19166001179055801562000f5c576000805461ff0019166101001790555b6022805463ffffffff86166101000264ffffffff0019909116179055602680546001600160a01b038086166001600160a01b03199283161790925560278054928516929091169190911790556703782dace9d90000608c5562000fbe62001df4565b801562001005576000805461ff0019169055604051600181527f7f26b83ff96e1f2b6a682f133852f6798a09c465da95921460cefb38474024989060200160405180910390a15b50505050565b6200101562001b07565b6200069a600062001e67565b60008088886040516020016200103992919062002cfe565b604051602081830303815290604052805190602001209050600060ff60f81b3083604051806020016200106c9062002791565b601f1982820381018352601f90910116604081905262001099908d908d908d908d908d90602001620030e8565b60408051601f1981840301815290829052620010b9929160200162003129565b604051602081830303815290604052805190602001206040516020016200111294939291906001600160f81b031994909416845260609290921b6001600160601b03191660018401526015830152603582015260550190565b60408051808303601f1901815291905280516020909101209a9950505050505050505050565b60225460ff16156200115e5760405162461bcd60e51b8152600401620006429062002d28565b60225463ffffffff610100909104811690851603620011e65760405162461bcd60e51b815260206004820152603f60248201527f506f6c79676f6e5a6b45564d4272696467653a3a6272696467654d657373616760448201527f653a2044657374696e6174696f6e2063616e6e6f7420626520697473656c6600606482015260840162000642565b7f501781209a1f8899323b96b4ef08b168df93e0a90c673d1e4cce39366cb62f9b6001602260019054906101000a900463ffffffff163387873488886021546040516200123c999897969594939291906200315c565b60405180910390a16200128b620012856001602260019054906101000a900463ffffffff1633888834898960405162001277929190620031cb565b604051809103902062000e09565b62001eb9565b6026546001600160a01b03166333d6247d620012a662000d16565b6040518263ffffffff1660e01b8152600401620012c591815260200190565b600060405180830381600087803b158015620012e057600080fd5b505af1158015620012f5573d6000803e3d6000fd5b5050505050505050565b6027546001600160a01b031633146200132c5760405162461bcd60e51b8152600401620006429062002ca1565b6200069a62002002565b6200134062001b07565b6001600160a01b038116620013a75760405162461bcd60e51b815260206004820152602660248201527f4f776e61626c653a206e6577206f776e657220697320746865207a65726f206160448201526564647265737360d01b606482015260840162000642565b620013b28162001e67565b50565b60008463ffffffff8416825b60208110156200149e57816001166001036200142b57868160208110620013ec57620013ec6200307d565b6020020135836040516020016200140d929190918252602082015260400190565b6040516020818303038152906040528051906020012092506200147a565b828782602081106200144157620014416200307d565b602002013560405160200162001461929190918252602082015260400190565b6040516020818303038152906040528051906020012092505b62001487600283620030a9565b9150806200149581620030cc565b915050620013c1565b5050821490505b949350505050565b60225460ff1615620014d35760405162461bcd60e51b8152600401620006429062002d28565b60225463ffffffff6101009091048116908616036200154a5760405162461bcd60e51b815260206004820152603d602482015260008051602062004c4383398151915260448201527f2044657374696e6174696f6e2063616e6e6f7420626520697473656c66000000606482015260840162000642565b6000806060856001600160a01b038a16620015dd57863414620015d35760405162461bcd60e51b81526020600482015260446024820181905260008051602062004c43833981519152908201527f20416d6f756e7420646f6573206e6f74206d61746368206d6573736167652e76606482015263616c756560e01b608482015260a40162000642565b60009250620019c8565b3415620016685760405162461bcd60e51b815260206004820152605c602482015260008051602062004c4383398151915260448201527f204578706563746564207a65726f206e61746976652061737365742076616c7560648201527f65207768656e206272696467696e6720455243323020746f6b656e7300000000608482015260a40162000642565b6001600160a01b03808b1660009081526025602090815260409182902082518084019093525463ffffffff81168352640100000000900490921691810182905290156200172757604051632770a7eb60e21b81526001600160a01b038c1690639dc29fac90620016df9033908c9060040162002f8c565b600060405180830381600087803b158015620016fa57600080fd5b505af11580156200170f573d6000803e3d6000fd5b505050508060200151945080600001519350620019c6565b85156200173c576200173c8b898989620020b1565b6040516370a0823160e01b81526000906001600160a01b038d16906370a08231906200176d903090600401620028e2565b602060405180830381865afa1580156200178b573d6000803e3d6000fd5b505050506040513d601f19601f82011682018060405250810190620017b19190620031db565b9050620017ca6001600160a01b038d1633308c620024ae565b6040516370a0823160e01b81526000906001600160a01b038e16906370a0823190620017fb903090600401620028e2565b602060405180830381865afa15801562001819573d6000803e3d6000fd5b505050506040513d601f19601f820116820180604052508101906200183f9190620031db565b90506200184d8282620031f5565b93508c9650602260019054906101000a900463ffffffff1695508c6001600160a01b03166306fdde036040518163ffffffff1660e01b8152600401600060405180830381865afa158015620018a6573d6000803e3d6000fd5b505050506040513d6000823e601f3d908101601f19168201604052620018d091908101906200320f565b8d6001600160a01b03166395d89b416040518163ffffffff1660e01b8152600401600060405180830381865afa1580156200190f573d6000803e3d6000fd5b505050506040513d6000823e601f3d908101601f191682016040526200193991908101906200320f565b8e6001600160a01b031663313ce5676040518163ffffffff1660e01b8152600401602060405180830381865afa15801562001978573d6000803e3d6000fd5b505050506040513d601f19601f820116820180604052508101906200199e91906200328e565b604051602001620019b29392919062002f4f565b604051602081830303815290604052945050505b505b7f501781209a1f8899323b96b4ef08b168df93e0a90c673d1e4cce39366cb62f9b600084868c8c868860215460405162001a0a989796959493929190620032ae565b60405180910390a162001a2f62001285600085878d8d87898051906020012062000e09565b6026546001600160a01b03166333d6247d62001a4a62000d16565b6040518263ffffffff1660e01b815260040162001a6991815260200190565b600060405180830381600087803b15801562001a8457600080fd5b505af115801562001a99573d6000803e3d6000fd5b5050505050505050505050505050565b60225460ff161562001acf5760405162461bcd60e51b8152600401620006429062002d28565b6022805460ff191660011790556040517f2261efe5aef6fedc1fd1550b25facc9181745623049c7901287030b9ad1a549790600090a1565b605a546001600160a01b031633146200069a5760405162461bcd60e51b815260206004820181905260248201527f4f776e61626c653a2063616c6c6572206973206e6f7420746865206f776e6572604482015260640162000642565b62001b748b63ffffffff16620024e8565b6026546040805160208082018e90528183018d9052825180830384018152606083019384905280519101206312bd9b1960e11b90925260648101919091526000916001600160a01b03169063257b3632906084016020604051808303816000875af115801562001be8573d6000803e3d6000fd5b505050506040513d601f19601f8201168201806040525081019062001c0e9190620031db565b90508060000362001c715760405162461bcd60e51b8152602060048201526037602482015260008051602062004c238339815191526044820152760811db1bd8985b115e1a5d149bdbdd081a5b9d985b1a59604a1b606482015260840162000642565b60225463ffffffff888116610100909204161462001cf35760405162461bcd60e51b8152602060048201526043602482015260008051602062004c2383398151915260448201527f2044657374696e6174696f6e206e6574776f726b20646f6573206e6f74206d616064820152620e8c6d60eb1b608482015260a40162000642565b602254600090610100900463ffffffff1662001d1157508962001d14565b508a5b62001d3d62001d34848c8c8c8c8c8c8c60405162001277929190620031cb565b8f8f84620013b5565b62001a995760405162461bcd60e51b8152602060048201526032602482015260008051602062004c238339815191526044820152711024b73b30b634b21039b6ba10383937b7b360711b606482015260840162000642565b62001def8363a9059cbb60e01b848460405160240162001db792919062002f8c565b60408051601f198184030181529190526020810180516001600160e01b03166001600160e01b03199093169290921790915262002585565b505050565b600054610100900460ff1662001e615760405162461bcd60e51b815260206004820152602b60248201527f496e697469616c697a61626c653a20636f6e7472616374206973206e6f74206960448201526a6e697469616c697a696e6760a81b606482015260840162000642565b6200069a335b605a80546001600160a01b038381166001600160a01b0319831681179093556040519116919082907f8be0079c531659141344cd1fd0a4f28419497f9722a3daafe3b4186f6b6457e090600090a35050565b80600162001eca6020600262003418565b62001ed69190620031f5565b6021541062001f3b5760405162461bcd60e51b815260206004820152602a60248201527f4465706f736974436f6e74726163743a5f6465706f7369743a204d65726b6c65604482015269081d1c995948199d5b1b60b21b606482015260840162000642565b600060216000815462001f4e90620030cc565b9182905550905060005b602081101562001ff7578160011660010362001f8d57826001826020811062001f855762001f856200307d565b015550505050565b6001816020811062001fa35762001fa36200307d565b0154604080516020810192909252810184905260600160405160208183030381529060405280519060200120925060028262001fe09190620030a9565b91508062001fee81620030cc565b91505062001f58565b5062001def62003426565b60225460ff166200207c5760405162461bcd60e51b815260206004820152603b60248201527f456d657267656e63794d616e616765723a3a6966456d657267656e637953746160448201527f74653a206f6e6c7920696620656d657267656e63792073746174650000000000606482015260840162000642565b6022805460ff191690556040517f1e5e34eea33501aecf2ebec9fe0e884a40804275ea7fe10b2ba084c8374308b390600090a1565b6000620020c260048284866200343c565b620020cd9162003468565b9050632afa533160e01b6001600160e01b0319821601620022c2576000808080808080620020ff896004818d6200343c565b8101906200210e919062003499565b9650965096509650965096509650336001600160a01b0316876001600160a01b031614620021505760405162461bcd60e51b81526004016200064290620034f4565b6001600160a01b03861630146200217b5760405162461bcd60e51b8152600401620006429062003551565b8a8514620021ee5760405162461bcd60e51b815260206004820152603960248201527f506f6c79676f6e5a6b45564d4272696467653a3a5f7065726d69743a205065726044820152780dad2e840c2dadeeadce840c8decae640dcdee840dac2e8c6d603b1b606482015260840162000642565b604080516001600160a01b0389811660248301528881166044830152606482018890526084820187905260ff861660a483015260c4820185905260e48083018590528351808403909101815261010490920183526020820180516001600160e01b031663d505accf60e01b1790529151918e16916200226e919062002dd5565b6000604051808303816000865af19150503d8060008114620022ad576040519150601f19603f3d011682016040523d82523d6000602084013e620022b2565b606091505b50505050505050505050620024a7565b6001600160e01b031981166323f2ebc360e21b14620023385760405162461bcd60e51b815260206004820152602b60248201527f506f6c79676f6e5a6b45564d4272696467653a3a5f7065726d69743a204e6f7460448201526a081d985b1a590818d85b1b60aa1b606482015260840162000642565b600080808080808080620023508a6004818e6200343c565b8101906200235f9190620035b3565b97509750975097509750975097509750336001600160a01b0316886001600160a01b031614620023a35760405162461bcd60e51b81526004016200064290620034f4565b6001600160a01b0387163014620023ce5760405162461bcd60e51b8152600401620006429062003551565b604080516001600160a01b038a811660248301528981166044830152606482018990526084820188905286151560a483015260ff861660c483015260e482018590526101048083018590528351808403909101815261012490920183526020820180516001600160e01b03166323f2ebc360e21b1790529151918f169162002457919062002dd5565b6000604051808303816000865af19150503d806000811462002496576040519150601f19603f3d011682016040523d82523d6000602084013e6200249b565b606091505b50505050505050505050505b5050505050565b6040516001600160a01b0380851660248301528316604482015260648101829052620010059085906323b872dd60e01b9060840162001db7565b600881901c60008181526023602052604081208054600160ff861690811b91821892839055929091908183169003620024a75760405162461bcd60e51b815260206004820152603860248201527f506f6c79676f6e5a6b45564d4272696467653a3a5f736574416e64436865636b60448201527710db185a5b59590e88105b1c9958591e4818db185a5b595960421b606482015260840162000642565b6000620025dc826040518060400160405280602081526020017f5361666545524332303a206c6f772d6c6576656c2063616c6c206661696c6564815250856001600160a01b03166200265e9092919063ffffffff16565b80519091501562001def5780806020019051810190620025fd91906200363f565b62001def5760405162461bcd60e51b815260206004820152602a60248201527f5361666545524332303a204552433230206f7065726174696f6e20646964206e6044820152691bdd081cdd58d8d9595960b21b606482015260840162000642565b6060620014a5848460008585600080866001600160a01b0316858760405162002688919062002dd5565b60006040518083038185875af1925050503d8060008114620026c7576040519150601f19603f3d011682016040523d82523d6000602084013e620026cc565b606091505b5091509150620026df87838387620026ea565b979650505050505050565b606083156200275e57825160000362002756576001600160a01b0385163b620027565760405162461bcd60e51b815260206004820152601d60248201527f416464726573733a2063616c6c20746f206e6f6e2d636f6e7472616374000000604482015260640162000642565b5081620014a5565b620014a58383815115620027755781518083602001fd5b8060405162461bcd60e51b81526004016200064291906200365f565b6115ae806200367583390190565b6001600160a01b0381168114620013b257600080fd5b803563ffffffff81168114620027ca57600080fd5b919050565b60008083601f840112620027e257600080fd5b5081356001600160401b03811115620027fa57600080fd5b6020830191508360208285010111156200281357600080fd5b9250929050565b60008060008060008060a087890312156200283457600080fd5b863562002841816200279f565b95506200285160208801620027b5565b9450604087013562002863816200279f565b93506060870135925060808701356001600160401b038111156200288657600080fd5b6200289489828a01620027cf565b979a9699509497509295939492505050565b60008060408385031215620028ba57600080fd5b620028c583620027b5565b91506020830135620028d7816200279f565b809150509250929050565b6001600160a01b0391909116815260200190565b6000602082840312156200290957600080fd5b5035919050565b6000602082840312156200292357600080fd5b6200292e82620027b5565b9392505050565b806104008101831015620006e957600080fd5b60008060008060008060008060008060006105208c8e0312156200296b57600080fd5b620029778d8d62002935565b9a50620029886104008d01620027b5565b99506104208c013598506104408c01359750620029a96104608d01620027b5565b96506104808c0135620029bc816200279f565b9550620029cd6104a08d01620027b5565b94506104c08c0135620029e0816200279f565b93506104e08c013592506105008c01356001600160401b0381111562002a0557600080fd5b62002a138e828f01620027cf565b915080935050809150509295989b509295989b9093969950565b60006020828403121562002a4057600080fd5b81356200292e816200279f565b60ff81168114620013b257600080fd5b600080600080600080600060e0888a03121562002a7957600080fd5b873562002a868162002a4d565b965062002a9660208901620027b5565b9550604088013562002aa8816200279f565b945062002ab860608901620027b5565b9350608088013562002aca816200279f565b9699959850939692959460a0840135945060c09093013592915050565b60008060006060848603121562002afd57600080fd5b62002b0884620027b5565b9250602084013562002b1a816200279f565b9150604084013562002b2c816200279f565b809150509250925092565b600080600080600080600060a0888a03121562002b5357600080fd5b62002b5e88620027b5565b9650602088013562002b70816200279f565b955060408801356001600160401b038082111562002b8d57600080fd5b62002b9b8b838c01620027cf565b909750955060608a013591508082111562002bb557600080fd5b5062002bc48a828b01620027cf565b909450925050608088013562002bda8162002a4d565b8091505092959891949750929550565b6000806000806060858703121562002c0157600080fd5b62002c0c85620027b5565b9350602085013562002c1e816200279f565b925060408501356001600160401b0381111562002c3a57600080fd5b62002c4887828801620027cf565b95989497509550505050565b600080600080610460858703121562002c6c57600080fd5b8435935062002c7f866020870162002935565b925062002c906104208601620027b5565b939692955092936104400135925050565b6020808252603a908201527f506f6c79676f6e5a6b45564d3a3a6f6e6c79506f6c79676f6e5a6b45564d3a2060408201527f6f6e6c7920506f6c79676f6e5a6b45564d20636f6e7472616374000000000000606082015260800190565b60e09290921b6001600160e01b031916825260601b6001600160601b031916600482015260180190565b60208082526042908201527f456d657267656e63794d616e616765723a3a69664e6f74456d657267656e637960408201527f53746174653a206f6e6c79206966206e6f7420656d657267656e637920737461606082015261746560f01b608082015260a00190565b634e487b7160e01b600052604160045260246000fd5b60005b8381101562002dc357818101518382015260200162002da9565b83811115620010055750506000910152565b6000825162002de981846020870162002da6565b9190910192915050565b604051601f8201601f191681016001600160401b038111828210171562002e1e5762002e1e62002d90565b604052919050565b60006001600160401b0382111562002e425762002e4262002d90565b50601f01601f191660200190565b600082601f83011262002e6257600080fd5b813562002e7962002e738262002e26565b62002df3565b81815284602083860101111562002e8f57600080fd5b816020850160208301376000918101602001919091529392505050565b60008060006060848603121562002ec257600080fd5b83356001600160401b038082111562002eda57600080fd5b62002ee88783880162002e50565b9450602086013591508082111562002eff57600080fd5b5062002f0e8682870162002e50565b925050604084013562002b2c8162002a4d565b6000815180845262002f3b81602086016020860162002da6565b601f01601f19169290920160200192915050565b60608152600062002f64606083018662002f21565b828103602084015262002f78818662002f21565b91505060ff83166040830152949350505050565b6001600160a01b03929092168252602082015260400190565b81835281816020850137506000828201602090810191909152601f909101601f19169091010190565b63ffffffff861681526001600160a01b03858116602083015284166040820152608060608201819052600090620026df908301848662002fa5565b63ffffffff95861681529390941660208401526001600160a01b039182166040840152166060820152608081019190915260a00190565b6001600160a01b038516815263ffffffff8416602082015260606040820181905260009062003073908301848662002fa5565b9695505050505050565b634e487b7160e01b600052603260045260246000fd5b634e487b7160e01b600052601160045260246000fd5b600082620030c757634e487b7160e01b600052601260045260246000fd5b500490565b600060018201620030e157620030e162003093565b5060010190565b606081526000620030fe60608301878962002fa5565b82810360208401526200311381868862002fa5565b91505060ff831660408301529695505050505050565b600083516200313d81846020880162002da6565b8351908301906200315381836020880162002da6565b01949350505050565b60ff8a16815263ffffffff89811660208301526001600160a01b03898116604084015288821660608401528716608083015260a0820186905261010060c08301819052600091620031b1848301878962002fa5565b925080851660e085015250509a9950505050505050505050565b8183823760009101908152919050565b600060208284031215620031ee57600080fd5b5051919050565b6000828210156200320a576200320a62003093565b500390565b6000602082840312156200322257600080fd5b81516001600160401b038111156200323957600080fd5b8201601f810184136200324b57600080fd5b80516200325c62002e738262002e26565b8181528560208385010111156200327257600080fd5b6200328582602083016020860162002da6565b95945050505050565b600060208284031215620032a157600080fd5b81516200292e8162002a4d565b60ff8916815263ffffffff88811660208301526001600160a01b03888116604084015287821660608401528616608083015260a0820185905261010060c08301819052600091620033028483018762002f21565b925080851660e085015250509998505050505050505050565b600181815b808511156200335c57816000190482111562003340576200334062003093565b808516156200334e57918102915b93841c939080029062003320565b509250929050565b6000826200337557506001620006e9565b816200338457506000620006e9565b81600181146200339d5760028114620033a857620033c8565b6001915050620006e9565b60ff841115620033bc57620033bc62003093565b50506001821b620006e9565b5060208310610133831016604e8410600b8410161715620033ed575081810a620006e9565b620033f983836200331b565b806000190482111562003410576200341062003093565b029392505050565b60006200292e838362003364565b634e487b7160e01b600052600160045260246000fd5b600080858511156200344d57600080fd5b838611156200345b57600080fd5b5050820193919092039150565b6001600160e01b03198135818116916004851015620034915780818660040360031b1b83161692505b505092915050565b600080600080600080600060e0888a031215620034b557600080fd5b8735620034c2816200279f565b96506020880135620034d4816200279f565b95506040880135945060608801359350608088013562002aca8162002a4d565b6020808252603c908201527f506f6c79676f6e5a6b45564d4272696467653a3a5f7065726d69743a2050657260408201527f6d6974206f776e6572206d757374206265207468652073656e64657200000000606082015260800190565b60208082526033908201527f506f6c79676f6e5a6b45564d4272696467653a3a5f7065726d69743a205370656040820152726e646572206d7573742062652027746869732760681b606082015260800190565b8015158114620013b257600080fd5b600080600080600080600080610100898b031215620035d157600080fd5b8835620035de816200279f565b97506020890135620035f0816200279f565b9650604089013595506060890135945060808901356200361081620035a4565b935060a0890135620036228162002a4d565b979a969950949793969295929450505060c08201359160e0013590565b6000602082840312156200365257600080fd5b81516200292e81620035a4565b6020815260006200292e602083018462002f2156fe6101006040523480156200001257600080fd5b50604051620015ae380380620015ae833981016040819052620000359162000295565b82826003620000458382620003a9565b506004620000548282620003a9565b50503360c0525060ff811660e052466080819052620000739062000080565b60a0525062000475915050565b60007f8b73c3c69bb8fe3d512ecc4cf759cc79239f7b179b0ffacaa9a75d522b39400f620000ad6200012e565b805160209182012060408051808201825260018152603160f81b90840152805192830193909352918101919091527fc89efdaa54c0f20c7adf612882df0950f5a951637e0307cdcb4c672f298b8bc66060820152608081018390523060a082015260c001604051602081830303815290604052805190602001209050919050565b6060600380546200013f906200031a565b80601f01602080910402602001604051908101604052809291908181526020018280546200016d906200031a565b8015620001be5780601f106200019257610100808354040283529160200191620001be565b820191906000526020600020905b815481529060010190602001808311620001a057829003601f168201915b5050505050905090565b634e487b7160e01b600052604160045260246000fd5b600082601f830112620001f057600080fd5b81516001600160401b03808211156200020d576200020d620001c8565b604051601f8301601f19908116603f01168101908282118183101715620002385762000238620001c8565b816040528381526020925086838588010111156200025557600080fd5b600091505b838210156200027957858201830151818301840152908201906200025a565b838211156200028b5760008385830101525b9695505050505050565b600080600060608486031215620002ab57600080fd5b83516001600160401b0380821115620002c357600080fd5b620002d187838801620001de565b94506020860151915080821115620002e857600080fd5b50620002f786828701620001de565b925050604084015160ff811681146200030f57600080fd5b809150509250925092565b600181811c908216806200032f57607f821691505b6020821081036200035057634e487b7160e01b600052602260045260246000fd5b50919050565b601f821115620003a457600081815260208120601f850160051c810160208610156200037f5750805b601f850160051c820191505b81811015620003a0578281556001016200038b565b5050505b505050565b81516001600160401b03811115620003c557620003c5620001c8565b620003dd81620003d684546200031a565b8462000356565b602080601f831160018114620004155760008415620003fc5750858301515b600019600386901b1c1916600185901b178555620003a0565b600085815260208120601f198616915b82811015620004465788860151825594840194600190910190840162000425565b5085821015620004655787850151600019600388901b60f8161c191681555b5050505050600190811b01905550565b60805160a05160c05160e0516110ea620004c460003960006101f70152600081816102ba015281816104de015261054c0152600061048f01526000818161031f015261045901526110ea6000f3fe608060405234801561001057600080fd5b50600436106101375760003560e01c806370a08231116100b8578063a457c2d71161007c578063a457c2d7146102f4578063a9059cbb14610307578063cd0d00961461031a578063d505accf14610341578063dd62ed3e14610354578063ffa1ad741461036757600080fd5b806370a08231146102515780637ecebe001461027a57806395d89b411461029a5780639dc29fac146102a2578063a3c573eb146102b557600080fd5b806330adf81f116100ff57806330adf81f146101c9578063313ce567146101f05780633644e51514610221578063395093511461022957806340c10f191461023c57600080fd5b806306fdde031461013c578063095ea7b31461015a57806318160ddd1461017d57806320606b701461018f57806323b872dd146101b6575b600080fd5b610144610387565b6040516101519190610e24565b60405180910390f35b61016d610168366004610e95565b610419565b6040519015158152602001610151565b6002545b604051908152602001610151565b6101817f8b73c3c69bb8fe3d512ecc4cf759cc79239f7b179b0ffacaa9a75d522b39400f81565b61016d6101c4366004610ebf565b610431565b6101817f6e71edae12b1b97f4d1f60370fef10105fa2faae0126114a169c64845d6126c981565b60405160ff7f0000000000000000000000000000000000000000000000000000000000000000168152602001610151565b610181610455565b61016d610237366004610e95565b6104b1565b61024f61024a366004610e95565b6104d3565b005b61018161025f366004610efb565b6001600160a01b031660009081526020819052604090205490565b610181610288366004610efb565b60056020526000908152604090205481565b610144610532565b61024f6102b0366004610e95565b610541565b6102dc7f000000000000000000000000000000000000000000000000000000000000000081565b6040516001600160a01b039091168152602001610151565b61016d610302366004610e95565b610593565b61016d610315366004610e95565b61060e565b6101817f000000000000000000000000000000000000000000000000000000000000000081565b61024f61034f366004610f1d565b61061c565b610181610362366004610f90565b610857565b610144604051806040016040528060018152602001603160f81b81525081565b60606003805461039690610fc3565b80601f01602080910402602001604051908101604052809291908181526020018280546103c290610fc3565b801561040f5780601f106103e45761010080835404028352916020019161040f565b820191906000526020600020905b8154815290600101906020018083116103f257829003601f168201915b5050505050905090565b600033610427818585610882565b5060019392505050565b60003361043f8582856109a7565b61044a858585610a21565b506001949350505050565b60007f0000000000000000000000000000000000000000000000000000000000000000461461048c5761048746610bb3565b905090565b507f000000000000000000000000000000000000000000000000000000000000000090565b6000336104278185856104c48383610857565b6104ce9190611013565b610882565b336001600160a01b037f000000000000000000000000000000000000000000000000000000000000000016146105245760405162461bcd60e51b815260040161051b9061102b565b60405180910390fd5b61052e8282610c5f565b5050565b60606004805461039690610fc3565b336001600160a01b037f000000000000000000000000000000000000000000000000000000000000000016146105895760405162461bcd60e51b815260040161051b9061102b565b61052e8282610d0c565b600033816105a18286610857565b9050838110156106015760405162461bcd60e51b815260206004820152602560248201527f45524332303a2064656372656173656420616c6c6f77616e63652062656c6f77604482015264207a65726f60d81b606482015260840161051b565b61044a8286868403610882565b600033610427818585610a21565b834211156106785760405162461bcd60e51b8152602060048201526024808201527f546f6b656e577261707065643a3a7065726d69743a20457870697265642070656044820152631c9b5a5d60e21b606482015260840161051b565b6001600160a01b038716600090815260056020526040812080547f6e71edae12b1b97f4d1f60370fef10105fa2faae0126114a169c64845d6126c9918a918a918a9190866106c58361107b565b909155506040805160208101969096526001600160a01b0394851690860152929091166060840152608083015260a082015260c0810186905260e0016040516020818303038152906040528051906020012090506000610723610455565b60405161190160f01b602082015260228101919091526042810183905260620160408051601f198184030181528282528051602091820120600080855291840180845281905260ff89169284019290925260608301879052608083018690529092509060019060a0016020604051602081039080840390855afa1580156107ae573d6000803e3d6000fd5b5050604051601f1901519150506001600160a01b038116158015906107e45750896001600160a01b0316816001600160a01b0316145b6108405760405162461bcd60e51b815260206004820152602760248201527f546f6b656e577261707065643a3a7065726d69743a20496e76616c6964207369604482015266676e617475726560c81b606482015260840161051b565b61084b8a8a8a610882565b50505050505050505050565b6001600160a01b03918216600090815260016020908152604080832093909416825291909152205490565b6001600160a01b0383166108e45760405162461bcd60e51b8152602060048201526024808201527f45524332303a20617070726f76652066726f6d20746865207a65726f206164646044820152637265737360e01b606482015260840161051b565b6001600160a01b0382166109455760405162461bcd60e51b815260206004820152602260248201527f45524332303a20617070726f766520746f20746865207a65726f206164647265604482015261737360f01b606482015260840161051b565b6001600160a01b0383811660008181526001602090815260408083209487168084529482529182902085905590518481527f8c5be1e5ebec7d5bd14f71427d1e84f3dd0314c0f7b2291e5b200ac8c7c3b92591015b60405180910390a3505050565b60006109b38484610857565b90506000198114610a1b5781811015610a0e5760405162461bcd60e51b815260206004820152601d60248201527f45524332303a20696e73756666696369656e7420616c6c6f77616e6365000000604482015260640161051b565b610a1b8484848403610882565b50505050565b6001600160a01b038316610a855760405162461bcd60e51b815260206004820152602560248201527f45524332303a207472616e736665722066726f6d20746865207a65726f206164604482015264647265737360d81b606482015260840161051b565b6001600160a01b038216610ae75760405162461bcd60e51b815260206004820152602360248201527f45524332303a207472616e7366657220746f20746865207a65726f206164647260448201526265737360e81b606482015260840161051b565b6001600160a01b03831660009081526020819052604090205481811015610b5f5760405162461bcd60e51b815260206004820152602660248201527f45524332303a207472616e7366657220616d6f756e7420657863656564732062604482015265616c616e636560d01b606482015260840161051b565b6001600160a01b0384811660008181526020818152604080832087870390559387168083529184902080548701905592518581529092600080516020611095833981519152910160405180910390a3610a1b565b60007f8b73c3c69bb8fe3d512ecc4cf759cc79239f7b179b0ffacaa9a75d522b39400f610bde610387565b805160209182012060408051808201825260018152603160f81b90840152805192830193909352918101919091527fc89efdaa54c0f20c7adf612882df0950f5a951637e0307cdcb4c672f298b8bc66060820152608081018390523060a082015260c001604051602081830303815290604052805190602001209050919050565b6001600160a01b038216610cb55760405162461bcd60e51b815260206004820152601f60248201527f45524332303a206d696e7420746f20746865207a65726f206164647265737300604482015260640161051b565b8060026000828254610cc79190611013565b90915550506001600160a01b03821660008181526020818152604080832080548601905551848152600080516020611095833981519152910160405180910390a35050565b6001600160a01b038216610d6c5760405162461bcd60e51b815260206004820152602160248201527f45524332303a206275726e2066726f6d20746865207a65726f206164647265736044820152607360f81b606482015260840161051b565b6001600160a01b03821660009081526020819052604090205481811015610de05760405162461bcd60e51b815260206004820152602260248201527f45524332303a206275726e20616d6f756e7420657863656564732062616c616e604482015261636560f01b606482015260840161051b565b6001600160a01b038316600081815260208181526040808320868603905560028054879003905551858152919291600080516020611095833981519152910161099a565b600060208083528351808285015260005b81811015610e5157858101830151858201604001528201610e35565b81811115610e63576000604083870101525b50601f01601f1916929092016040019392505050565b80356001600160a01b0381168114610e9057600080fd5b919050565b60008060408385031215610ea857600080fd5b610eb183610e79565b946020939093013593505050565b600080600060608486031215610ed457600080fd5b610edd84610e79565b9250610eeb60208501610e79565b9150604084013590509250925092565b600060208284031215610f0d57600080fd5b610f1682610e79565b9392505050565b600080600080600080600060e0888a031215610f3857600080fd5b610f4188610e79565b9650610f4f60208901610e79565b95506040880135945060608801359350608088013560ff81168114610f7357600080fd5b9699959850939692959460a0840135945060c09093013592915050565b60008060408385031215610fa357600080fd5b610fac83610e79565b9150610fba60208401610e79565b90509250929050565b600181811c90821680610fd757607f821691505b602082108103610ff757634e487b7160e01b600052602260045260246000fd5b50919050565b634e487b7160e01b600052601160045260246000fd5b6000821982111561102657611026610ffd565b500190565b60208082526030908201527f546f6b656e577261707065643a3a6f6e6c794272696467653a204e6f7420506f60408201526f6c79676f6e5a6b45564d42726964676560801b606082015260800190565b60006001820161108d5761108d610ffd565b506001019056feddf252ad1be2c89b69c2b068fc378daa952ba7f163c4a11628f55a4df523b3efa26469706673582212205810bc8fb3e12350f8326f1af7def3581a3651488f4d7805bcf1ba5bbf315bd564736f6c634300080f0033506f6c79676f6e5a6b45564d4272696467653a3a5f7665726966794c6561663a506f6c79676f6e5a6b45564d4272696467653a3a62726964676541737365743aa2646970667358221220142531895f78d5540f1d64b1a768a01f65296834acfe7b88d5b4bdf07d574cee64736f6c634300080f0033",
  "linkReferences": {},
  "deployedLinkReferences": {}
}