{
  "_format": "hh-sol-artifact-1",
  "contractName": "PolygonZkEVMMock",
  "sourceName": "contracts/mocks/PolygonZkEVMMock.sol",
  "abi": [
    {
      "inputs": [
        {
          "internalType": "contract IPolygonZkEVMGlobalExitRoot",
          "name": "_globalExitRootManager",
          "type": "address"
        },
        {
          "internalType": "contract IERC20Upgradeable",
          "name": "_matic",
          "type": "address"
        },
        {
          "internalType": "contract IVerifierRollup",
          "name": "_rollupVerifier",
          "type": "address"
        },
        {
          "internalType": "contract IPolygonZkEVMBridge",
          "name": "_bridgeAddress",
          "type": "address"
        },
        {
          "internalType": "uint64",
          "name": "_chainID",
          "type": "uint64"
        }
      ],
      "stateMutability": "nonpayable",
      "type": "constructor"
    },
    {
      "anonymous": false,
      "inputs": [
        {
          "indexed": false,
          "internalType": "address",
          "name": "newAdmin",
          "type": "address"
        }
      ],
      "name": "AcceptAdminRole",
      "type": "event"
    },
    {
      "anonymous": false,
      "inputs": [
        {
          "indexed": true,
          "internalType": "uint64",
          "name": "numBatch",
          "type": "uint64"
        },
        {
          "indexed": false,
          "internalType": "bytes32",
          "name": "stateRoot",
          "type": "bytes32"
        },
        {
          "indexed": true,
          "internalType": "uint64",
          "name": "pendingStateNum",
          "type": "uint64"
        }
      ],
      "name": "ConsolidatePendingState",
      "type": "event"
    },
    {
      "anonymous": false,
      "inputs": [],
      "name": "EmergencyStateActivated",
      "type": "event"
    },
    {
      "anonymous": false,
      "inputs": [],
      "name": "EmergencyStateDeactivated",
      "type": "event"
    },
    {
      "anonymous": false,
      "inputs": [
        {
          "indexed": true,
          "internalType": "uint64",
          "name": "forceBatchNum",
          "type": "uint64"
        },
        {
          "indexed": false,
          "internalType": "bytes32",
          "name": "lastGlobalExitRoot",
          "type": "bytes32"
        },
        {
          "indexed": false,
          "internalType": "address",
          "name": "sequencer",
          "type": "address"
        },
        {
          "indexed": false,
          "internalType": "bytes",
          "name": "transactions",
          "type": "bytes"
        }
      ],
      "name": "ForceBatch",
      "type": "event"
    },
    {
      "anonymous": false,
      "inputs": [
        {
          "indexed": false,
          "internalType": "uint8",
          "name": "version",
          "type": "uint8"
        }
      ],
      "name": "Initialized",
      "type": "event"
    },
    {
      "anonymous": false,
      "inputs": [
        {
          "indexed": true,
          "internalType": "uint64",
          "name": "numBatch",
          "type": "uint64"
        },
        {
          "indexed": false,
          "internalType": "bytes32",
          "name": "stateRoot",
          "type": "bytes32"
        },
        {
          "indexed": true,
          "internalType": "address",
          "name": "aggregator",
          "type": "address"
        }
      ],
      "name": "OverridePendingState",
      "type": "event"
    },
    {
      "anonymous": false,
      "inputs": [
        {
          "indexed": true,
          "internalType": "address",
          "name": "previousOwner",
          "type": "address"
        },
        {
          "indexed": true,
          "internalType": "address",
          "name": "newOwner",
          "type": "address"
        }
      ],
      "name": "OwnershipTransferred",
      "type": "event"
    },
    {
      "anonymous": false,
      "inputs": [
        {
          "indexed": false,
          "internalType": "bytes32",
          "name": "storedStateRoot",
          "type": "bytes32"
        },
        {
          "indexed": false,
          "internalType": "bytes32",
          "name": "provedStateRoot",
          "type": "bytes32"
        }
      ],
      "name": "ProveNonDeterministicPendingState",
      "type": "event"
    },
    {
      "anonymous": false,
      "inputs": [
        {
          "indexed": true,
          "internalType": "uint64",
          "name": "numBatch",
          "type": "uint64"
        }
      ],
      "name": "SequenceBatches",
      "type": "event"
    },
    {
      "anonymous": false,
      "inputs": [
        {
          "indexed": true,
          "internalType": "uint64",
          "name": "numBatch",
          "type": "uint64"
        }
      ],
      "name": "SequenceForceBatches",
      "type": "event"
    },
    {
      "anonymous": false,
      "inputs": [
        {
          "indexed": false,
          "internalType": "uint16",
          "name": "newMultiplierBatchFee",
          "type": "uint16"
        }
      ],
      "name": "SetMultiplierBatchFee",
      "type": "event"
    },
    {
      "anonymous": false,
      "inputs": [
        {
          "indexed": false,
          "internalType": "uint64",
          "name": "newPendingStateTimeout",
          "type": "uint64"
        }
      ],
      "name": "SetPendingStateTimeout",
      "type": "event"
    },
    {
      "anonymous": false,
      "inputs": [
        {
          "indexed": false,
          "internalType": "address",
          "name": "newTrustedAggregator",
          "type": "address"
        }
      ],
      "name": "SetTrustedAggregator",
      "type": "event"
    },
    {
      "anonymous": false,
      "inputs": [
        {
          "indexed": false,
          "internalType": "uint64",
          "name": "newTrustedAggregatorTimeout",
          "type": "uint64"
        }
      ],
      "name": "SetTrustedAggregatorTimeout",
      "type": "event"
    },
    {
      "anonymous": false,
      "inputs": [
        {
          "indexed": false,
          "internalType": "address",
          "name": "newTrustedSequencer",
          "type": "address"
        }
      ],
      "name": "SetTrustedSequencer",
      "type": "event"
    },
    {
      "anonymous": false,
      "inputs": [
        {
          "indexed": false,
          "internalType": "string",
          "name": "newTrustedSequencerURL",
          "type": "string"
        }
      ],
      "name": "SetTrustedSequencerURL",
      "type": "event"
    },
    {
      "anonymous": false,
      "inputs": [
        {
          "indexed": false,
          "internalType": "uint64",
          "name": "newVerifyBatchTimeTarget",
          "type": "uint64"
        }
      ],
      "name": "SetVerifyBatchTimeTarget",
      "type": "event"
    },
    {
      "anonymous": false,
      "inputs": [
        {
          "indexed": false,
          "internalType": "address",
          "name": "newPendingAdmin",
          "type": "address"
        }
      ],
      "name": "TransferAdminRole",
      "type": "event"
    },
    {
      "anonymous": false,
      "inputs": [
        {
          "indexed": true,
          "internalType": "uint64",
          "name": "numBatch",
          "type": "uint64"
        },
        {
          "indexed": false,
          "internalType": "bytes32",
          "name": "stateRoot",
          "type": "bytes32"
        },
        {
          "indexed": true,
          "internalType": "address",
          "name": "aggregator",
          "type": "address"
        }
      ],
      "name": "TrustedVerifyBatches",
      "type": "event"
    },
    {
      "anonymous": false,
      "inputs": [
        {
          "indexed": true,
          "internalType": "uint64",
          "name": "numBatch",
          "type": "uint64"
        },
        {
          "indexed": false,
          "internalType": "bytes32",
          "name": "stateRoot",
          "type": "bytes32"
        },
        {
          "indexed": true,
          "internalType": "address",
          "name": "aggregator",
          "type": "address"
        }
      ],
      "name": "VerifyBatches",
      "type": "event"
    },
    {
      "inputs": [],
      "name": "acceptAdminRole",
      "outputs": [],
      "stateMutability": "nonpayable",
      "type": "function"
    },
    {
      "inputs": [
        {
          "internalType": "uint64",
          "name": "sequencedBatchNum",
          "type": "uint64"
        }
      ],
      "name": "activateEmergencyState",
      "outputs": [],
      "stateMutability": "nonpayable",
      "type": "function"
    },
    {
      "inputs": [],
      "name": "admin",
      "outputs": [
        {
          "internalType": "address",
          "name": "",
          "type": "address"
        }
      ],
      "stateMutability": "view",
      "type": "function"
    },
    {
      "inputs": [],
      "name": "batchFee",
      "outputs": [
        {
          "internalType": "uint256",
          "name": "",
          "type": "uint256"
        }
      ],
      "stateMutability": "view",
      "type": "function"
    },
    {
      "inputs": [
        {
          "internalType": "uint64",
          "name": "",
          "type": "uint64"
        }
      ],
      "name": "batchNumToStateRoot",
      "outputs": [
        {
          "internalType": "bytes32",
          "name": "",
          "type": "bytes32"
        }
      ],
      "stateMutability": "view",
      "type": "function"
    },
    {
      "inputs": [],
      "name": "bridgeAddress",
      "outputs": [
        {
          "internalType": "contract IPolygonZkEVMBridge",
          "name": "",
          "type": "address"
        }
      ],
      "stateMutability": "view",
      "type": "function"
    },
    {
      "inputs": [
        {
          "internalType": "bytes32",
          "name": "currentAccInputHash",
          "type": "bytes32"
        },
        {
          "internalType": "bytes",
          "name": "transactions",
          "type": "bytes"
        },
        {
          "internalType": "bytes32",
          "name": "globalExitRoot",
          "type": "bytes32"
        },
        {
          "internalType": "uint64",
          "name": "timestamp",
          "type": "uint64"
        },
        {
          "internalType": "address",
          "name": "sequencerAddress",
          "type": "address"
        }
      ],
      "name": "calculateAccInputHash",
      "outputs": [
        {
          "internalType": "bytes32",
          "name": "",
          "type": "bytes32"
        }
      ],
      "stateMutability": "pure",
      "type": "function"
    },
    {
      "inputs": [],
      "name": "calculateRewardPerBatch",
      "outputs": [
        {
          "internalType": "uint256",
          "name": "",
          "type": "uint256"
        }
      ],
      "stateMutability": "view",
      "type": "function"
    },
    {
      "inputs": [],
      "name": "chainID",
      "outputs": [
        {
          "internalType": "uint64",
          "name": "",
          "type": "uint64"
        }
      ],
      "stateMutability": "view",
      "type": "function"
    },
    {
      "inputs": [
        {
          "internalType": "uint64",
          "name": "pendingStateNum",
          "type": "uint64"
        }
      ],
      "name": "consolidatePendingState",
      "outputs": [],
      "stateMutability": "nonpayable",
      "type": "function"
    },
    {
      "inputs": [],
      "name": "deactivateEmergencyState",
      "outputs": [],
      "stateMutability": "nonpayable",
      "type": "function"
    },
    {
      "inputs": [
        {
          "internalType": "bytes",
          "name": "transactions",
          "type": "bytes"
        },
        {
          "internalType": "uint256",
          "name": "maticAmount",
          "type": "uint256"
        }
      ],
      "name": "forceBatch",
      "outputs": [],
      "stateMutability": "nonpayable",
      "type": "function"
    },
    {
      "inputs": [
        {
          "internalType": "uint64",
          "name": "",
          "type": "uint64"
        }
      ],
      "name": "forcedBatches",
      "outputs": [
        {
          "internalType": "bytes32",
          "name": "",
          "type": "bytes32"
        }
      ],
      "stateMutability": "view",
      "type": "function"
    },
    {
      "inputs": [],
      "name": "getCurrentBatchFee",
      "outputs": [
        {
          "internalType": "uint256",
          "name": "",
          "type": "uint256"
        }
      ],
      "stateMutability": "view",
      "type": "function"
    },
    {
      "inputs": [
        {
          "internalType": "uint64",
          "name": "initNumBatch",
          "type": "uint64"
        },
        {
          "internalType": "uint64",
          "name": "finalNewBatch",
          "type": "uint64"
        },
        {
          "internalType": "bytes32",
          "name": "newLocalExitRoot",
          "type": "bytes32"
        },
        {
          "internalType": "bytes32",
          "name": "oldStateRoot",
          "type": "bytes32"
        },
        {
          "internalType": "bytes32",
          "name": "newStateRoot",
          "type": "bytes32"
        }
      ],
      "name": "getInputSnarkBytes",
      "outputs": [
        {
          "internalType": "bytes",
          "name": "",
          "type": "bytes"
        }
      ],
      "stateMutability": "view",
      "type": "function"
    },
    {
      "inputs": [],
      "name": "getLastVerifiedBatch",
      "outputs": [
        {
          "internalType": "uint64",
          "name": "",
          "type": "uint64"
        }
      ],
      "stateMutability": "view",
      "type": "function"
    },
    {
      "inputs": [
        {
          "internalType": "uint64",
          "name": "pendingStateNum",
          "type": "uint64"
        },
        {
          "internalType": "uint64",
          "name": "initNumBatch",
          "type": "uint64"
        },
        {
          "internalType": "uint64",
          "name": "finalNewBatch",
          "type": "uint64"
        },
        {
          "internalType": "bytes32",
          "name": "newLocalExitRoot",
          "type": "bytes32"
        },
        {
          "internalType": "bytes32",
          "name": "newStateRoot",
          "type": "bytes32"
        }
      ],
      "name": "getNextSnarkInput",
      "outputs": [
        {
          "internalType": "uint256",
          "name": "",
          "type": "uint256"
        }
      ],
      "stateMutability": "view",
      "type": "function"
    },
    {
      "inputs": [],
      "name": "globalExitRootManager",
      "outputs": [
        {
          "internalType": "contract IPolygonZkEVMGlobalExitRoot",
          "name": "",
          "type": "address"
        }
      ],
      "stateMutability": "view",
      "type": "function"
    },
    {
      "inputs": [
        {
          "components": [
            {
              "internalType": "address",
              "name": "admin",
              "type": "address"
            },
            {
              "internalType": "address",
              "name": "trustedSequencer",
              "type": "address"
            },
            {
              "internalType": "uint64",
              "name": "pendingStateTimeout",
              "type": "uint64"
            },
            {
              "internalType": "address",
              "name": "trustedAggregator",
              "type": "address"
            },
            {
              "internalType": "uint64",
              "name": "trustedAggregatorTimeout",
              "type": "uint64"
            }
          ],
          "internalType": "struct PolygonZkEVM.InitializePackedParameters",
          "name": "initializePackedParameters",
          "type": "tuple"
        },
        {
          "internalType": "bytes32",
          "name": "genesisRoot",
          "type": "bytes32"
        },
        {
          "internalType": "string",
          "name": "_trustedSequencerURL",
          "type": "string"
        },
        {
          "internalType": "string",
          "name": "_networkName",
          "type": "string"
        }
      ],
      "name": "initialize",
      "outputs": [],
      "stateMutability": "nonpayable",
      "type": "function"
    },
    {
      "inputs": [],
      "name": "isEmergencyState",
      "outputs": [
        {
          "internalType": "bool",
          "name": "",
          "type": "bool"
        }
      ],
      "stateMutability": "view",
      "type": "function"
    },
    {
      "inputs": [
        {
          "internalType": "uint64",
          "name": "pendingStateNum",
          "type": "uint64"
        }
      ],
      "name": "isPendingStateConsolidable",
      "outputs": [
        {
          "internalType": "bool",
          "name": "",
          "type": "bool"
        }
      ],
      "stateMutability": "view",
      "type": "function"
    },
    {
      "inputs": [],
      "name": "lastBatchSequenced",
      "outputs": [
        {
          "internalType": "uint64",
          "name": "",
          "type": "uint64"
        }
      ],
      "stateMutability": "view",
      "type": "function"
    },
    {
      "inputs": [],
      "name": "lastForceBatch",
      "outputs": [
        {
          "internalType": "uint64",
          "name": "",
          "type": "uint64"
        }
      ],
      "stateMutability": "view",
      "type": "function"
    },
    {
      "inputs": [],
      "name": "lastForceBatchSequenced",
      "outputs": [
        {
          "internalType": "uint64",
          "name": "",
          "type": "uint64"
        }
      ],
      "stateMutability": "view",
      "type": "function"
    },
    {
      "inputs": [],
      "name": "lastPendingState",
      "outputs": [
        {
          "internalType": "uint64",
          "name": "",
          "type": "uint64"
        }
      ],
      "stateMutability": "view",
      "type": "function"
    },
    {
      "inputs": [],
      "name": "lastPendingStateConsolidated",
      "outputs": [
        {
          "internalType": "uint64",
          "name": "",
          "type": "uint64"
        }
      ],
      "stateMutability": "view",
      "type": "function"
    },
    {
      "inputs": [],
      "name": "lastTimestamp",
      "outputs": [
        {
          "internalType": "uint64",
          "name": "",
          "type": "uint64"
        }
      ],
      "stateMutability": "view",
      "type": "function"
    },
    {
      "inputs": [],
      "name": "lastVerifiedBatch",
      "outputs": [
        {
          "internalType": "uint64",
          "name": "",
          "type": "uint64"
        }
      ],
      "stateMutability": "view",
      "type": "function"
    },
    {
      "inputs": [],
      "name": "matic",
      "outputs": [
        {
          "internalType": "contract IERC20Upgradeable",
          "name": "",
          "type": "address"
        }
      ],
      "stateMutability": "view",
      "type": "function"
    },
    {
      "inputs": [],
      "name": "multiplierBatchFee",
      "outputs": [
        {
          "internalType": "uint16",
          "name": "",
          "type": "uint16"
        }
      ],
      "stateMutability": "view",
      "type": "function"
    },
    {
      "inputs": [],
      "name": "networkName",
      "outputs": [
        {
          "internalType": "string",
          "name": "",
          "type": "string"
        }
      ],
      "stateMutability": "view",
      "type": "function"
    },
    {
      "inputs": [
        {
          "internalType": "uint64",
          "name": "initPendingStateNum",
          "type": "uint64"
        },
        {
          "internalType": "uint64",
          "name": "finalPendingStateNum",
          "type": "uint64"
        },
        {
          "internalType": "uint64",
          "name": "initNumBatch",
          "type": "uint64"
        },
        {
          "internalType": "uint64",
          "name": "finalNewBatch",
          "type": "uint64"
        },
        {
          "internalType": "bytes32",
          "name": "newLocalExitRoot",
          "type": "bytes32"
        },
        {
          "internalType": "bytes32",
          "name": "newStateRoot",
          "type": "bytes32"
        },
        {
          "internalType": "uint256[2]",
          "name": "proofA",
          "type": "uint256[2]"
        },
        {
          "internalType": "uint256[2][2]",
          "name": "proofB",
          "type": "uint256[2][2]"
        },
        {
          "internalType": "uint256[2]",
          "name": "proofC",
          "type": "uint256[2]"
        }
      ],
      "name": "overridePendingState",
      "outputs": [],
      "stateMutability": "nonpayable",
      "type": "function"
    },
    {
      "inputs": [],
      "name": "owner",
      "outputs": [
        {
          "internalType": "address",
          "name": "",
          "type": "address"
        }
      ],
      "stateMutability": "view",
      "type": "function"
    },
    {
      "inputs": [],
      "name": "pendingAdmin",
      "outputs": [
        {
          "internalType": "address",
          "name": "",
          "type": "address"
        }
      ],
      "stateMutability": "view",
      "type": "function"
    },
    {
      "inputs": [],
      "name": "pendingStateTimeout",
      "outputs": [
        {
          "internalType": "uint64",
          "name": "",
          "type": "uint64"
        }
      ],
      "stateMutability": "view",
      "type": "function"
    },
    {
      "inputs": [
        {
          "internalType": "uint256",
          "name": "",
          "type": "uint256"
        }
      ],
      "name": "pendingStateTransitions",
      "outputs": [
        {
          "internalType": "uint64",
          "name": "timestamp",
          "type": "uint64"
        },
        {
          "internalType": "uint64",
          "name": "lastVerifiedBatch",
          "type": "uint64"
        },
        {
          "internalType": "bytes32",
          "name": "exitRoot",
          "type": "bytes32"
        },
        {
          "internalType": "bytes32",
          "name": "stateRoot",
          "type": "bytes32"
        }
      ],
      "stateMutability": "view",
      "type": "function"
    },
    {
      "inputs": [
        {
          "internalType": "uint64",
          "name": "initPendingStateNum",
          "type": "uint64"
        },
        {
          "internalType": "uint64",
          "name": "finalPendingStateNum",
          "type": "uint64"
        },
        {
          "internalType": "uint64",
          "name": "initNumBatch",
          "type": "uint64"
        },
        {
          "internalType": "uint64",
          "name": "finalNewBatch",
          "type": "uint64"
        },
        {
          "internalType": "bytes32",
          "name": "newLocalExitRoot",
          "type": "bytes32"
        },
        {
          "internalType": "bytes32",
          "name": "newStateRoot",
          "type": "bytes32"
        },
        {
          "internalType": "uint256[2]",
          "name": "proofA",
          "type": "uint256[2]"
        },
        {
          "internalType": "uint256[2][2]",
          "name": "proofB",
          "type": "uint256[2][2]"
        },
        {
          "internalType": "uint256[2]",
          "name": "proofC",
          "type": "uint256[2]"
        }
      ],
      "name": "proveNonDeterministicPendingState",
      "outputs": [],
      "stateMutability": "nonpayable",
      "type": "function"
    },
    {
      "inputs": [],
      "name": "renounceOwnership",
      "outputs": [],
      "stateMutability": "nonpayable",
      "type": "function"
    },
    {
      "inputs": [],
      "name": "rollupVerifier",
      "outputs": [
        {
          "internalType": "contract IVerifierRollup",
          "name": "",
          "type": "address"
        }
      ],
      "stateMutability": "view",
      "type": "function"
    },
    {
      "inputs": [
        {
          "components": [
            {
              "internalType": "bytes",
              "name": "transactions",
              "type": "bytes"
            },
            {
              "internalType": "bytes32",
              "name": "globalExitRoot",
              "type": "bytes32"
            },
            {
              "internalType": "uint64",
              "name": "timestamp",
              "type": "uint64"
            },
            {
              "internalType": "uint64",
              "name": "minForcedTimestamp",
              "type": "uint64"
            }
          ],
          "internalType": "struct PolygonZkEVM.BatchData[]",
          "name": "batches",
          "type": "tuple[]"
        }
      ],
      "name": "sequenceBatches",
      "outputs": [],
      "stateMutability": "nonpayable",
      "type": "function"
    },
    {
      "inputs": [
        {
          "components": [
            {
              "internalType": "bytes",
              "name": "transactions",
              "type": "bytes"
            },
            {
              "internalType": "bytes32",
              "name": "globalExitRoot",
              "type": "bytes32"
            },
            {
              "internalType": "uint64",
              "name": "minForcedTimestamp",
              "type": "uint64"
            }
          ],
          "internalType": "struct PolygonZkEVM.ForcedBatchData[]",
          "name": "batches",
          "type": "tuple[]"
        }
      ],
      "name": "sequenceForceBatches",
      "outputs": [],
      "stateMutability": "nonpayable",
      "type": "function"
    },
    {
      "inputs": [
        {
          "internalType": "uint64",
          "name": "",
          "type": "uint64"
        }
      ],
      "name": "sequencedBatches",
      "outputs": [
        {
          "internalType": "bytes32",
          "name": "accInputHash",
          "type": "bytes32"
        },
        {
          "internalType": "uint64",
          "name": "sequencedTimestamp",
          "type": "uint64"
        },
        {
          "internalType": "uint64",
          "name": "previousLastBatchSequenced",
          "type": "uint64"
        }
      ],
      "stateMutability": "view",
      "type": "function"
    },
    {
      "inputs": [
        {
          "internalType": "uint16",
          "name": "newMultiplierBatchFee",
          "type": "uint16"
        }
      ],
      "name": "setMultiplierBatchFee",
      "outputs": [],
      "stateMutability": "nonpayable",
      "type": "function"
    },
    {
      "inputs": [
        {
          "internalType": "string",
          "name": "_networkName",
          "type": "string"
        }
      ],
      "name": "setNetworkName",
      "outputs": [],
      "stateMutability": "nonpayable",
      "type": "function"
    },
    {
      "inputs": [
        {
          "internalType": "uint64",
          "name": "newPendingStateTimeout",
          "type": "uint64"
        }
      ],
      "name": "setPendingStateTimeout",
      "outputs": [],
      "stateMutability": "nonpayable",
      "type": "function"
    },
    {
      "inputs": [
        {
          "internalType": "uint64",
          "name": "_numBatch",
          "type": "uint64"
        }
      ],
      "name": "setSequencedBatch",
      "outputs": [],
      "stateMutability": "nonpayable",
      "type": "function"
    },
    {
      "inputs": [
        {
          "internalType": "uint64",
          "name": "batchNum",
          "type": "uint64"
        },
        {
          "internalType": "bytes32",
          "name": "accInputData",
          "type": "bytes32"
        },
        {
          "internalType": "uint64",
          "name": "timestamp",
          "type": "uint64"
        },
        {
          "internalType": "uint64",
          "name": "lastPendingStateConsolidated",
          "type": "uint64"
        }
      ],
      "name": "setSequencedBatches",
      "outputs": [],
      "stateMutability": "nonpayable",
      "type": "function"
    },
    {
      "inputs": [
        {
          "internalType": "bytes32",
          "name": "newStateRoot",
          "type": "bytes32"
        },
        {
          "internalType": "uint64",
          "name": "batchNum",
          "type": "uint64"
        }
      ],
      "name": "setStateRoot",
      "outputs": [],
      "stateMutability": "nonpayable",
      "type": "function"
    },
    {
      "inputs": [
        {
          "internalType": "address",
          "name": "newTrustedAggregator",
          "type": "address"
        }
      ],
      "name": "setTrustedAggregator",
      "outputs": [],
      "stateMutability": "nonpayable",
      "type": "function"
    },
    {
      "inputs": [
        {
          "internalType": "uint64",
          "name": "newTrustedAggregatorTimeout",
          "type": "uint64"
        }
      ],
      "name": "setTrustedAggregatorTimeout",
      "outputs": [],
      "stateMutability": "nonpayable",
      "type": "function"
    },
    {
      "inputs": [
        {
          "internalType": "address",
          "name": "newTrustedSequencer",
          "type": "address"
        }
      ],
      "name": "setTrustedSequencer",
      "outputs": [],
      "stateMutability": "nonpayable",
      "type": "function"
    },
    {
      "inputs": [
        {
          "internalType": "string",
          "name": "newTrustedSequencerURL",
          "type": "string"
        }
      ],
      "name": "setTrustedSequencerURL",
      "outputs": [],
      "stateMutability": "nonpayable",
      "type": "function"
    },
    {
      "inputs": [
        {
          "internalType": "uint64",
          "name": "_numBatch",
          "type": "uint64"
        }
      ],
      "name": "setVerifiedBatch",
      "outputs": [],
      "stateMutability": "nonpayable",
      "type": "function"
    },
    {
      "inputs": [
        {
          "internalType": "uint64",
          "name": "newVerifyBatchTimeTarget",
          "type": "uint64"
        }
      ],
      "name": "setVerifyBatchTimeTarget",
      "outputs": [],
      "stateMutability": "nonpayable",
      "type": "function"
    },
    {
      "inputs": [
        {
          "internalType": "address",
          "name": "newPendingAdmin",
          "type": "address"
        }
      ],
      "name": "transferAdminRole",
      "outputs": [],
      "stateMutability": "nonpayable",
      "type": "function"
    },
    {
      "inputs": [
        {
          "internalType": "address",
          "name": "newOwner",
          "type": "address"
        }
      ],
      "name": "transferOwnership",
      "outputs": [],
      "stateMutability": "nonpayable",
      "type": "function"
    },
    {
      "inputs": [],
      "name": "trustedAggregator",
      "outputs": [
        {
          "internalType": "address",
          "name": "",
          "type": "address"
        }
      ],
      "stateMutability": "view",
      "type": "function"
    },
    {
      "inputs": [],
      "name": "trustedAggregatorTimeout",
      "outputs": [
        {
          "internalType": "uint64",
          "name": "",
          "type": "uint64"
        }
      ],
      "stateMutability": "view",
      "type": "function"
    },
    {
      "inputs": [],
      "name": "trustedSequencer",
      "outputs": [
        {
          "internalType": "address",
          "name": "",
          "type": "address"
        }
      ],
      "stateMutability": "view",
      "type": "function"
    },
    {
      "inputs": [],
      "name": "trustedSequencerURL",
      "outputs": [
        {
          "internalType": "string",
          "name": "",
          "type": "string"
        }
      ],
      "stateMutability": "view",
      "type": "function"
    },
    {
      "inputs": [
        {
          "internalType": "uint64",
          "name": "pendingStateNum",
          "type": "uint64"
        },
        {
          "internalType": "uint64",
          "name": "initNumBatch",
          "type": "uint64"
        },
        {
          "internalType": "uint64",
          "name": "finalNewBatch",
          "type": "uint64"
        },
        {
          "internalType": "bytes32",
          "name": "newLocalExitRoot",
          "type": "bytes32"
        },
        {
          "internalType": "bytes32",
          "name": "newStateRoot",
          "type": "bytes32"
        },
        {
          "internalType": "uint256[2]",
          "name": "proofA",
          "type": "uint256[2]"
        },
        {
          "internalType": "uint256[2][2]",
          "name": "proofB",
          "type": "uint256[2][2]"
        },
        {
          "internalType": "uint256[2]",
          "name": "proofC",
          "type": "uint256[2]"
        }
      ],
      "name": "trustedVerifyBatches",
      "outputs": [],
      "stateMutability": "nonpayable",
      "type": "function"
    },
    {
      "inputs": [
        {
          "internalType": "uint64",
          "name": "pendingStateNum",
          "type": "uint64"
        },
        {
          "internalType": "uint64",
          "name": "initNumBatch",
          "type": "uint64"
        },
        {
          "internalType": "uint64",
          "name": "finalNewBatch",
          "type": "uint64"
        },
        {
          "internalType": "bytes32",
          "name": "newLocalExitRoot",
          "type": "bytes32"
        },
        {
          "internalType": "bytes32",
          "name": "newStateRoot",
          "type": "bytes32"
        },
        {
          "internalType": "uint256[2]",
          "name": "proofA",
          "type": "uint256[2]"
        },
        {
          "internalType": "uint256[2][2]",
          "name": "proofB",
          "type": "uint256[2][2]"
        },
        {
          "internalType": "uint256[2]",
          "name": "proofC",
          "type": "uint256[2]"
        }
      ],
      "name": "trustedVerifyBatchesMock",
      "outputs": [],
      "stateMutability": "nonpayable",
      "type": "function"
    },
    {
      "inputs": [
        {
          "internalType": "uint64",
          "name": "newLastVerifiedBatch",
          "type": "uint64"
        }
      ],
      "name": "updateBatchFee",
      "outputs": [],
      "stateMutability": "nonpayable",
      "type": "function"
    },
    {
      "inputs": [],
      "name": "verifyBatchTimeTarget",
      "outputs": [
        {
          "internalType": "uint64",
          "name": "",
          "type": "uint64"
        }
      ],
      "stateMutability": "view",
      "type": "function"
    },
    {
      "inputs": [
        {
          "internalType": "uint64",
          "name": "pendingStateNum",
          "type": "uint64"
        },
        {
          "internalType": "uint64",
          "name": "initNumBatch",
          "type": "uint64"
        },
        {
          "internalType": "uint64",
          "name": "finalNewBatch",
          "type": "uint64"
        },
        {
          "internalType": "bytes32",
          "name": "newLocalExitRoot",
          "type": "bytes32"
        },
        {
          "internalType": "bytes32",
          "name": "newStateRoot",
          "type": "bytes32"
        },
        {
          "internalType": "uint256[2]",
          "name": "proofA",
          "type": "uint256[2]"
        },
        {
          "internalType": "uint256[2][2]",
          "name": "proofB",
          "type": "uint256[2][2]"
        },
        {
          "internalType": "uint256[2]",
          "name": "proofC",
          "type": "uint256[2]"
        }
      ],
      "name": "verifyBatches",
      "outputs": [],
      "stateMutability": "nonpayable",
      "type": "function"
    }
  ],
  "bytecode": "0x6101206040523480156200001257600080fd5b506040516200621038038062006210833981016040819052620000359162000081565b6001600160a01b0394851660c05292841660805290831660a052909116610100526001600160401b031660e0526200010c565b6001600160a01b03811681146200007e57600080fd5b50565b600080600080600060a086880312156200009a57600080fd5b8551620000a78162000068565b6020870151909550620000ba8162000068565b6040870151909450620000cd8162000068565b6060870151909350620000e08162000068565b60808701519092506001600160401b0381168114620000fe57600080fd5b809150509295509295909350565b60805160a05160c05160e0516101005161604f620001c1600039600081816106da015281816131a5015261442501526000818161071401526110cd01526000818161085801528181610da2015281816116f401528181611d3a0152818161332b0152818161352d015281816137c001526143170152600081816108f401528181613eba01526149620152600081816107e901528181611acb01528181612460015281816135010152613fc8015261604f6000f3fe608060405234801561001057600080fd5b506004361061035b5760003560e01c806396dc3d39116101ca578063c89e42df11610105578063e7a7ed02116100a8578063e7a7ed02146108d5578063e8bf92ed146108ef578063eaeb077b14610916578063edc4112114610929578063f14916d61461093c578063f2fde38b1461094f578063f851a44014610962578063f8b823e414610975578063fe16564f1461097e57600080fd5b8063c89e42df14610826578063cfa8ed4714610839578063d02103ca14610853578063d8d1091b1461087a578063d939b3151461088d578063dbc16976146108a7578063e0d17441146108af578063e11f3f18146108c257600080fd5b8063adc879e91161016d578063adc879e91461070f578063afd23cbe14610736578063b2291b3f1461075e578063b4d63f5814610771578063b4f77ea9146107d1578063b6b0b097146107e4578063c0cad3021461080b578063c0ed84e01461081e57600080fd5b806396dc3d391461067957806399f5634e1461068c5780639b796760146106945780639c9f3dfe146106a75780639f0d039d146106ba578063a066215c146106c2578063a3c573eb146106d5578063ada8f919146106fc57600080fd5b80634834a3431161029a578063715018a61161023d578063715018a6146105975780637215541a1461059f57806375c508b3146105b25780637fcb3653146105c5578063837a4738146105d8578063841b24d7146106465780638c3d7301146106605780638da5cb5b1461066857600080fd5b80634834a343146104e95780634a1a89a7146104fc5780634a910e6a146105165780635392c5e014610529578063542028d514610549578063574f649e146105515780636b8616ce146105645780636ff512cc1461058457600080fd5b8063267822471161030257806326782247146104365780632987898314610456578063383b3be814610469578063394218e91461047c5780633c1582671461048f578063423fa856146104a257806345605267146104bc578063458c0477146104d657600080fd5b80630a0d9fbe146103605780630eaa86ea14610395578063107bf28c146103b657806310a01a72146103cb57806315064c96146103e05780631816b7e5146103fd57806319d8ac6114610410578063220d789914610423575b600080fd5b6065546103789061010090046001600160401b031681565b6040516001600160401b0390911681526020015b60405180910390f35b6103a86103a3366004614f0b565b610991565b60405190815260200161038c565b6103be610b60565b60405161038c9190614fb8565b6103de6103d9366004614ffa565b610bee565b005b6065546103ed9060ff1681565b604051901515815260200161038c565b6103de61040b366004615087565b610e53565b606854610378906001600160401b031681565b6103be6104313660046150ab565b610f74565b607154610449906001600160a01b031681565b60405161038c91906150f8565b606a54610449906001600160a01b031681565b6103ed61047736600461510c565b61112b565b6103de61048a36600461510c565b611172565b6103de61049d366004615172565b61132e565b60685461037890600160401b90046001600160401b031681565b60685461037890600160801b90046001600160401b031681565b606f54610378906001600160401b031681565b6103de6104f7366004614ffa565b611b3a565b606f5461037890600160401b90046001600160401b031681565b6103de61052436600461510c565b611e9f565b6103a861053736600461510c565b606b6020526000908152604090205481565b6103be611fd9565b6103a861055f36600461526c565b611fe6565b6103a861057236600461510c565b60666020526000908152604090205481565b6103de6105923660046152dd565b612029565b6103de6120a7565b6103de6105ad36600461510c565b6120bb565b6103de6105c03660046152f8565b6122c2565b606954610378906001600160401b031681565b61061b6105e6366004615396565b606e602052600090815260409020805460018201546002909201546001600160401b0380831693600160401b90930416919084565b604080516001600160401b03958616815294909316602085015291830152606082015260800161038c565b606f5461037890600160c01b90046001600160401b031681565b6103de61235c565b6033546001600160a01b0316610449565b6103de61068736600461510c565b612431565b6103a861245b565b6103de6106a236600461510c565b612568565b6103de6106b536600461510c565b61259d565b6072546103a8565b6103de6106d036600461510c565b61274b565b6104497f000000000000000000000000000000000000000000000000000000000000000081565b6103de61070a3660046152dd565b612866565b6103787f000000000000000000000000000000000000000000000000000000000000000081565b60655461074b90600160481b900461ffff1681565b60405161ffff909116815260200161038c565b6103de61076c3660046153af565b6128db565b6107ac61077f36600461510c565b606760205260009081526040902080546001909101546001600160401b0380821691600160401b90041683565b604080519384526001600160401b03928316602085015291169082015260600161038c565b6103de6107df36600461510c565b612be6565b6104497f000000000000000000000000000000000000000000000000000000000000000081565b6103de610819366004615435565b612bf7565b610378612c0f565b6103de610834366004615435565b612c5c565b60695461044990600160401b90046001600160a01b031681565b6104497f000000000000000000000000000000000000000000000000000000000000000081565b6103de610888366004615172565b612cc2565b606f5461037890600160801b90046001600160401b031681565b6103de613179565b6103de6108bd366004615469565b61321e565b6103de6108d03660046152f8565b613290565b60685461037890600160c01b90046001600160401b031681565b6104497f000000000000000000000000000000000000000000000000000000000000000081565b6103de6109243660046154b6565b6133f0565b6103de610937366004614ffa565b613726565b6103de61094a3660046152dd565b613861565b6103de61095d3660046152dd565b6138d6565b607054610449906001600160a01b031681565b6103a860725481565b6103de61098c36600461552d565b61394c565b600080600061099e612c0f565b90506001600160401b03881615610a3b57606f546001600160401b0390811690891611156109e75760405162461bcd60e51b81526004016109de90615559565b60405180910390fd5b6001600160401b038089166000908152606e60205260409020600281015481549094509091898116600160401b9092041614610a355760405162461bcd60e51b81526004016109de906155d7565b50610aa5565b6001600160401b0387166000908152606b6020526040902054915081610a735760405162461bcd60e51b81526004016109de90615637565b806001600160401b0316876001600160401b03161115610aa55760405162461bcd60e51b81526004016109de9061568e565b806001600160401b0316866001600160401b031611610ad65760405162461bcd60e51b81526004016109de906156ff565b6000610ae58888888689610f74565b90506000600080516020615fda833981519152600283604051610b08919061577c565b602060405180830381855afa158015610b25573d6000803e3d6000fd5b5050506040513d601f19601f82011682018060405250810190610b489190615798565b610b5291906157c7565b9a9950505050505050505050565b606d8054610b6d906157db565b80601f0160208091040260200160405190810160405280929190818152602001828054610b99906157db565b8015610be65780601f10610bbb57610100808354040283529160200191610be6565b820191906000526020600020905b815481529060010190602001808311610bc957829003601f168201915b505050505081565b610bf661396e565b600080610c01612c0f565b90506001600160401b038a1615610c9557606f546001600160401b03908116908b161115610c415760405162461bcd60e51b81526004016109de90615559565b6001600160401b03808b166000908152606e602052604090206002810154815490945090918b8116600160401b9092041614610c8f5760405162461bcd60e51b81526004016109de906155d7565b50610cff565b6001600160401b0389166000908152606b6020526040902054915081610ccd5760405162461bcd60e51b81526004016109de90615637565b806001600160401b0316896001600160401b03161115610cff5760405162461bcd60e51b81526004016109de9061568e565b806001600160401b0316886001600160401b031611610d305760405162461bcd60e51b81526004016109de906156ff565b6000610d3f8a8a8a868b610f74565b606980546001600160401b0319166001600160401b038c81169182179092556000908152606b60205260409020899055606f549192501615610d8c57606f80546001600160801b03191690555b6040516333d6247d60e01b8152600481018990527f00000000000000000000000000000000000000000000000000000000000000006001600160a01b0316906333d6247d90602401600060405180830381600087803b158015610dee57600080fd5b505af1158015610e02573d6000803e3d6000fd5b50506040518981523392506001600160401b038c1691507f0c0ce073a7d7b5850c04ccc4b20ee7d3179d5f57d0ac44399565792c0f72fce79060200160405180910390a35050505050505050505050565b6070546001600160a01b03163314610e7d5760405162461bcd60e51b81526004016109de90615815565b6103e88161ffff1610158015610e9857506104008161ffff16105b610f1d5760405162461bcd60e51b815260206004820152604a60248201527f506f6c79676f6e5a6b45564d3a3a7365744d756c7469706c696572426174636860448201527f4665653a206e65774d756c7469706c696572426174636846656520696e636f72606482015269726563742072616e676560b01b608482015260a4016109de565b6065805461ffff60481b1916600160481b61ffff8416908102919091179091556040519081527f7019933d795eba185c180209e8ae8bffbaa25bcef293364687702c31f4d302c5906020015b60405180910390a150565b6001600160401b03808616600081815260676020526040808220549388168252902054606092911580610fa657508115155b61101a576040805162461bcd60e51b81526020600482015260248101919091527f506f6c79676f6e5a6b45564d3a3a676574496e707574536e61726b427974657360448201527f3a206f6c64416363496e7075744861736820646f6573206e6f7420657869737460648201526084016109de565b8061108f576040805162461bcd60e51b81526020600482015260248101919091527f506f6c79676f6e5a6b45564d3a3a676574496e707574536e61726b427974657360448201527f3a206e6577416363496e7075744861736820646f6573206e6f7420657869737460648201526084016109de565b604080516001600160601b03193360601b166020820152603481019690965260548601929092526001600160c01b031960c098891b811660748701527f0000000000000000000000000000000000000000000000000000000000000000891b8116607c870152608486019490945260a485015260c4840194909452509290931b90911660e4830152805180830360cc01815260ec909201905290565b606f546001600160401b038281166000908152606e60205260408120549092429261116192600160801b9092048116911661586e565b6001600160401b0316111592915050565b6070546001600160a01b0316331461119c5760405162461bcd60e51b81526004016109de90615815565b62093a806001600160401b03821611156112355760405162461bcd60e51b815260206004820152604e60248201527f506f6c79676f6e5a6b45564d3a3a73657454727573746564416767726567617460448201527f6f7254696d656f75743a20457863656564206d61782068616c7420616767726560648201526d19d85d1a5bdb881d1a5b595bdd5d60921b608482015260a4016109de565b60655460ff166112d857606f546001600160401b03600160c01b9091048116908216106112d85760405162461bcd60e51b8152602060048201526044602482018190527f506f6c79676f6e5a6b45564d3a3a736574547275737465644167677265676174908201527f6f7254696d656f75743a204e65772074696d656f7574206d757374206265206c60648201526337bbb2b960e11b608482015260a4016109de565b606f80546001600160c01b0316600160c01b6001600160401b038416908102919091179091556040519081527f1f4fa24c2e4bad19a7f3ec5c5485f70d46c798461c2e684f55bbd0fc661373a190602001610f69565b60655460ff16156113515760405162461bcd60e51b81526004016109de90615899565b606954600160401b90046001600160a01b031633146113d85760405162461bcd60e51b815260206004820152603a60248201527f506f6c79676f6e5a6b45564d3a3a6f6e6c795472757374656453657175656e6360448201527f65723a204f6e6c7920747275737465642073657175656e63657200000000000060648201526084016109de565b808061144c5760405162461bcd60e51b815260206004820152603d60248201527f506f6c79676f6e5a6b45564d3a3a73657175656e6365426174636865733a204160448201527f74206c65617374206d7573742073657175656e6365203120626174636800000060648201526084016109de565b6103e88111156114c6576040805162461bcd60e51b81526020600482015260248101919091527f506f6c79676f6e5a6b45564d3a3a73657175656e6365426174636865733a204360448201527f616e6e6f742073657175656e63652074686174206d616e79206261746368657360648201526084016109de565b6068546001600160401b03600160401b82048116600081815260676020526040812054838516949293600160801b909304909216919082905b8681101561195357600089898381811061151b5761151b615901565b905060200281019061152d9190615917565b6115369061592d565b805180516020909101206060820151919250906001600160401b0316156116cc5785611561816159b9565b96505060008183602001518460600151604051602001611583939291906159df565b60408051601f1981840301815291815281516020928301206001600160401b038a166000908152606690935291205490915081146116175760405162461bcd60e51b815260206004820152603d6024820152600080516020615ffa83398151915260448201527f6f7263656420626174636865732064617461206d757374206d6174636800000060648201526084016109de565b6001600160401b0380881660009081526066602052604080822091909155606085015190850151908216911610156116c65760405162461bcd60e51b81526020600482015260586024820152600080516020615ffa83398151915260448201527f6f7263656420626174636865732074696d657374616d70206d757374206265206064820152773134b3b3b2b91037b91032b8bab0b6103a3430b71036b4b760411b608482015260a4016109de565b50611859565b6020820151158061176c575060208201516040516312bd9b1960e11b815260048101919091527f00000000000000000000000000000000000000000000000000000000000000006001600160a01b03169063257b3632906024016020604051808303816000875af1158015611745573d6000803e3d6000fd5b505050506040513d601f19601f820116820180604052508101906117699190615798565b15155b6117de5760405162461bcd60e51b815260206004820152603a60248201527f506f6c79676f6e5a6b45564d3a3a73657175656e6365426174636865733a204760448201527f6c6f62616c206578697420726f6f74206d75737420657869737400000000000060648201526084016109de565b815151620493e010156118595760405162461bcd60e51b815260206004820152603a60248201527f506f6c79676f6e5a6b45564d3a3a73657175656e6365426174636865733a205460448201527f72616e73616374696f6e73206279746573206f766572666c6f7700000000000060648201526084016109de565b876001600160401b031682604001516001600160401b03161015801561188c57504282604001516001600160401b031611155b6118fe5760405162461bcd60e51b815260206004820152603d60248201527f506f6c79676f6e5a6b45564d3a3a73657175656e6365426174636865733a205460448201527f696d657374616d70206d75737420626520696e736964652072616e676500000060648201526084016109de565b8481836020015184604001513360405160200161191f959493929190615a02565b604051602081830303815290604052805190602001209450816040015197505050808061194b90615a41565b9150506114ff565b5061195e868561586e565b6068549094506001600160401b03600160c01b909104811690841611156119d35760405162461bcd60e51b81526020600482015260356024820152600080516020615ffa8339815191526044820152746f7263652062617463686573206f766572666c6f7760581b60648201526084016109de565b60006119df8285615a5a565b6119f2906001600160401b031688615a82565b60408051606081018252858152426001600160401b03908116602080840191825260688054600160401b9081900485168688019081528d861660008181526067909552979093209551865592516001909501805492519585166001600160801b03199384161795851684029590951790945583548c8416911617930292909217905590915082811690851614611aa8576068805467ffffffffffffffff60801b1916600160801b6001600160401b038716021790555b611af3333083611ab760725490565b611ac19190615a99565b6001600160a01b037f0000000000000000000000000000000000000000000000000000000000000000169291906139c8565b611afb613a39565b6040516001600160401b038616907f303446e6a8cb73c83dff421c0b1d5e5ce0719dab1bff13660fc254e58cc17fce90600090a2505050505050505050565b60655460ff1615611b5d5760405162461bcd60e51b81526004016109de90615899565b606f546001600160401b038781166000908152606760205260409020600101544292611b9492600160c01b9091048116911661586e565b6001600160401b03161115611c1d5760405162461bcd60e51b815260206004820152604360248201527f506f6c79676f6e5a6b45564d3a3a766572696679426174636865733a2054727560448201527f737465642061676772656761746f722074696d656f7574206e6f7420657870696064820152621c995960ea1b608482015260a4016109de565b6103e8611c2a8888615a5a565b6001600160401b03161115611ca75760405162461bcd60e51b815260206004820152603c60248201527f506f6c79676f6e5a6b45564d3a3a766572696679426174636865733a2043616e60448201527f6e6f74207665726966792074686174206d616e7920626174636865730000000060648201526084016109de565b611cb78888888888888888613ad9565b611cc086613ffd565b606f54600160801b90046001600160401b0316600003611da357606980546001600160401b0319166001600160401b038881169182179092556000908152606b60205260409020859055606f541615611d2457606f80546001600160801b03191690555b6040516333d6247d60e01b8152600481018690527f00000000000000000000000000000000000000000000000000000000000000006001600160a01b0316906333d6247d90602401600060405180830381600087803b158015611d8657600080fd5b505af1158015611d9a573d6000803e3d6000fd5b50505050611e54565b611dab613a39565b606f80546001600160401b0316906000611dc4836159b9565b82546001600160401b039182166101009390930a92830292820219169190911790915560408051608081018252428316815289831660208083019182528284018b8152606084018b8152606f5487166000908152606e909352949091209251835492518616600160401b026001600160801b03199093169516949094171781559151600183015551600290910155505b60405184815233906001600160401b038816907f9c72852172521097ba7e1482e6b44b351323df0155f97f4ea18fcec28e1f5966906020015b60405180910390a35050505050505050565b606a546001600160a01b03163314611fcd5760655460ff1615611f355760405162461bcd60e51b815260206004820152604260248201527f506f6c79676f6e5a6b45564d3a3a636f6e736f6c696461746550656e64696e6760448201527f53746174653a206f6e6c79206966206e6f7420656d657267656e637920737461606482015261746560f01b608482015260a4016109de565b611f3e8161112b565b611fcd5760405162461bcd60e51b815260206004820152605460248201527f506f6c79676f6e5a6b45564d3a3a636f6e736f6c696461746550656e64696e6760448201527f53746174653a2050656e64696e67207374617465206973206e6f7420726561646064820152731e481d1bc818994818dbdb9cdbdb1a59185d195960621b608482015260a4016109de565b611fd6816141e3565b50565b606c8054610b6d906157db565b6000858580519060200120858585604051602001612008959493929190615a02565b60405160208183030381529060405280519060200120905095945050505050565b6070546001600160a01b031633146120535760405162461bcd60e51b81526004016109de90615815565b60698054600160401b600160e01b031916600160401b6001600160a01b038416021790556040517ff54144f9611984021529f814a1cb6a41e22c58351510a0d9f7e822618abb9cc090610f699083906150f8565b6120af61396e565b6120b960006143d1565b565b6033546001600160a01b031633146122ba5760006120d7612c0f565b9050806001600160401b0316826001600160401b03161161214e5760405162461bcd60e51b815260206004820152603c6024820152600080516020615f5a83398151915260448201527f746174653a20426174636820616c72656164792076657269666965640000000060648201526084016109de565b6068546001600160401b03600160401b90910481169083161180159061219057506001600160401b038083166000908152606760205260409020600101541615155b6122095760405162461bcd60e51b81526020600482015260506024820152600080516020615f5a83398151915260448201527f746174653a204261746368206e6f742073657175656e636564206f72206e6f7460648201526f20656e64206f662073657175656e636560801b608482015260a4016109de565b6001600160401b0380831660009081526067602052604090206001015442916122379162093a80911661586e565b6001600160401b031611156122b85760405162461bcd60e51b815260206004820152604d6024820152600080516020615f5a83398151915260448201527f746174653a204167677265676174696f6e2068616c742074696d656f7574206960648201526c1cc81b9bdd08195e1c1a5c9959609a1b608482015260a4016109de565b505b611fd6614423565b60655460ff16156122e55760405162461bcd60e51b81526004016109de90615899565b6122f689898989898989898961449e565b6001600160401b0386166000908152606b60209081526040918290205482519081529081018690527f1f44c21118c4603cfb4e1b621dbcfa2b73efcececee2b99b620b2953d33a7010910160405180910390a1612351614423565b505050505050505050565b6071546001600160a01b031633146123d85760405162461bcd60e51b815260206004820152603960248201527f506f6c79676f6e5a6b45564d3a3a61636365707441646d696e526f6c653a206360448201527830b63632b91034b9903737ba103832b73234b733a0b236b4b760391b60648201526084016109de565b607154607080546001600160a01b0319166001600160a01b0390921691821790556040517f056dc487bbf0795d0bbb1b4f0af523a855503cff740bfb4d5475f7a90c091e8e91612427916150f8565b60405180910390a1565b61243961396e565b606980546001600160401b0319166001600160401b0392909216919091179055565b6000807f00000000000000000000000000000000000000000000000000000000000000006001600160a01b03166370a08231306040518263ffffffff1660e01b81526004016124aa91906150f8565b602060405180830381865afa1580156124c7573d6000803e3d6000fd5b505050506040513d601f19601f820116820180604052508101906124eb9190615798565b905060006124f7612c0f565b6068546001600160401b03600160401b820481169161252791600160801b8204811691600160c01b900416615a5a565b612531919061586e565b61253b9190615a5a565b6001600160401b03169050806000036125575760009250505090565b6125618183615ab8565b9250505090565b61257061396e565b606880546001600160401b03909216600160401b0267ffffffffffffffff60401b19909216919091179055565b6070546001600160a01b031633146125c75760405162461bcd60e51b81526004016109de90615815565b62093a806001600160401b038216111561265b5760405162461bcd60e51b815260206004820152604960248201527f506f6c79676f6e5a6b45564d3a3a73657450656e64696e67537461746554696d60448201527f656f75743a20457863656564206d61782068616c74206167677265676174696f6064820152681b881d1a5b595bdd5d60ba1b608482015260a4016109de565b60655460ff166126f057606f546001600160401b03600160801b9091048116908216106126f05760405162461bcd60e51b815260206004820152603f60248201527f506f6c79676f6e5a6b45564d3a3a73657450656e64696e67537461746554696d60448201527f656f75743a204e65772074696d656f7574206d757374206265206c6f7765720060648201526084016109de565b606f805467ffffffffffffffff60801b1916600160801b6001600160401b038416908102919091179091556040519081527fc4121f4e22c69632ebb7cf1f462be0511dc034f999b52013eddfb24aab765c7590602001610f69565b6070546001600160a01b031633146127755760405162461bcd60e51b81526004016109de90615815565b62015180816001600160401b03161061280f5760405162461bcd60e51b815260206004820152605060248201527f506f6c79676f6e5a6b45564d3a3a736574566572696679426174636854696d6560448201527f5461726765743a20736574566572696679426174636854696d6554617267657460648201526f20696e636f72726563742072616e676560801b608482015260a4016109de565b6065805468ffffffffffffffff0019166101006001600160401b038416908102919091179091556040519081527f1b023231a1ab6b5d93992f168fb44498e1a7e64cef58daff6f1c216de6a68c2890602001610f69565b6070546001600160a01b031633146128905760405162461bcd60e51b81526004016109de90615815565b607180546001600160a01b0319166001600160a01b0383161790556040517fa5b56b7906fd0a20e3f35120dd8343db1e12e037a6c90111c7e42885e82a1ce690610f699083906150f8565b600054610100900460ff16158080156128fb5750600054600160ff909116105b806129155750303b158015612915575060005460ff166001145b6129785760405162461bcd60e51b815260206004820152602e60248201527f496e697469616c697a61626c653a20636f6e747261637420697320616c72656160448201526d191e481a5b9a5d1a585b1a5e995960921b60648201526084016109de565b6000805460ff19166001179055801561299b576000805461ff0019166101001790555b6129a860208601866152dd565b607080546001600160a01b0319166001600160a01b03929092169190911790556129d860408601602087016152dd565b606980546001600160a01b0392909216600160401b02600160401b600160e01b0319909216919091179055612a1360808601606087016152dd565b606a80546001600160a01b0319166001600160a01b039290921691909117905560008052606b6020527fc8cc8bda7ad4886bea3ebbdafa02e79d37c39bf4011696b26a31a0802fd9458b849055606c612a6c8482615b12565b50606d612a798382615b12565b5062093a80612a8e606087016040880161510c565b6001600160401b03161115612ab55760405162461bcd60e51b81526004016109de90615bd1565b612ac5606086016040870161510c565b606f80546001600160401b0392909216600160801b0267ffffffffffffffff60801b1990921691909117905562093a80612b0560a087016080880161510c565b6001600160401b03161115612b2c5760405162461bcd60e51b81526004016109de90615bd1565b612b3c60a086016080870161510c565b606f80546001600160c01b0316600160c01b6001600160401b039390931692909202919091179055670de0b6b3a7640000607255606580546affffffffffffffffffff0019166a03ea000000000000070800179055612b99614adc565b8015612bdf576000805461ff0019169055604051600181527f7f26b83ff96e1f2b6a682f133852f6798a09c465da95921460cefb38474024989060200160405180910390a15b5050505050565b612bee61396e565b611fd681613ffd565b612bff61396e565b606d612c0b8282615b12565b5050565b606f546000906001600160401b031615612c4c5750606f546001600160401b039081166000908152606e6020526040902054600160401b90041690565b506069546001600160401b031690565b6070546001600160a01b03163314612c865760405162461bcd60e51b81526004016109de90615815565b606c612c928282615b12565b507f6b8f723a4c7a5335cafae8a598a0aa0301be1387c037dccc085b62add6448b2081604051610f699190614fb8565b60655460ff1615612ce55760405162461bcd60e51b81526004016109de90615899565b8080612d475760405162461bcd60e51b815260206004820152603f6024820152600080516020615fba83398151915260448201527f65733a204d75737420666f726365206174206c6561737420312062617463680060648201526084016109de565b6103e8811115612db95760405162461bcd60e51b81526020600482015260436024820152600080516020615fba83398151915260448201527f65733a2043616e6e6f74207665726966792074686174206d616e79206261746360648201526268657360e81b608482015260a4016109de565b6068546001600160401b03600160c01b8204811691612de1918491600160801b900416615c2a565b1115612e3d5760405162461bcd60e51b81526020600482015260376024820152600080516020615fba833981519152604482015276195cce88119bdc98d94818985d18da081a5b9d985b1a59604a1b60648201526084016109de565b6068546001600160401b03600160401b820481166000818152606760205260408120549193600160801b9004909216915b84811015613082576000878783818110612e8a57612e8a615901565b9050602002810190612e9c9190615c42565b612ea590615c58565b905083612eb1816159b9565b82518051602091820120818501516040808701519051949950919450600093612edd93869391016159df565b60408051601f1981840301815291815281516020928301206001600160401b038916600090815260669093529120549091508114612f7c5760405162461bcd60e51b81526020600482015260426024820152600080516020615fba83398151915260448201527f65733a20466f7263656420626174636865732064617461206d757374206d61746064820152610c6d60f31b608482015260a4016109de565b6001600160401b038616600090815260666020526040812055612fa0600189615a82565b84036130375742620697808460400151612fba919061586e565b6001600160401b031611156130375760405162461bcd60e51b81526020600482015260496024820152600080516020615fba83398151915260448201527f65733a20466f72636564206261746368206973206e6f7420696e2074696d656f6064820152681d5d081c195c9a5bd960ba1b608482015260a4016109de565b848284602001514233604051602001613054959493929190615a02565b604051602081830303815290604052805190602001209450505050808061307a90615a41565b915050612e6e565b5061308d848461586e565b606880546001600160401b034281166001600160401b03199092168217808455604080516060810182528781526020808201958652600160401b9384900485168284019081528589166000818152606790935284832093518455965160019390930180549151871686026001600160801b031990921693871693909317179091558554938916600160801b0267ffffffffffffffff60801b1993860293909316600160401b600160c01b031990941693909317919091179093559151929550917f648a61dd2438f072f5a1960939abd30f37aea80d2e94c9792ad142d3e0a490a49190a2505050505050565b6070546001600160a01b031633146131a35760405162461bcd60e51b81526004016109de90615815565b7f00000000000000000000000000000000000000000000000000000000000000006001600160a01b031663dbc169766040518163ffffffff1660e01b8152600401600060405180830381600087803b1580156131fe57600080fd5b505af1158015613212573d6000803e3d6000fd5b505050506120b9614b50565b61322661396e565b604080516060810182529384526001600160401b03928316602080860191825292841685830190815295841660009081526067909352912092518355516001909201805493518216600160401b026001600160801b03199094169290911691909117919091179055565b606a546001600160a01b031633146132ba5760405162461bcd60e51b81526004016109de90615cd3565b6132cb89898989898989898961449e565b606980546001600160401b0319166001600160401b038881169182179092556000908152606b60205260409020859055606f54161561331557606f80546001600160801b03191690555b6040516333d6247d60e01b8152600481018690527f00000000000000000000000000000000000000000000000000000000000000006001600160a01b0316906333d6247d90602401600060405180830381600087803b15801561337757600080fd5b505af115801561338b573d6000803e3d6000fd5b5050606f80546001600160c01b031661127560c71b179055505060405184815233906001600160401b038816907fcc1b5520188bf1dd3e63f98164b577c4d75c11a619ddea692112f0d1aec4cf729060200160405180910390a3505050505050505050565b60655460ff16156134135760405162461bcd60e51b81526004016109de90615899565b600061341e60725490565b9050818111156134835760405162461bcd60e51b815260206004820152602a60248201527f506f6c79676f6e5a6b45564d3a3a666f72636542617463683a204e6f7420656e6044820152696f756768206d6174696360b01b60648201526084016109de565b620493e08311156134f45760405162461bcd60e51b815260206004820152603560248201527f506f6c79676f6e5a6b45564d3a3a666f72636542617463683a205472616e73616044820152746374696f6e73206279746573206f766572666c6f7760581b60648201526084016109de565b6135296001600160a01b037f0000000000000000000000000000000000000000000000000000000000000000163330846139c8565b60007f00000000000000000000000000000000000000000000000000000000000000006001600160a01b0316633ed691ef6040518163ffffffff1660e01b8152600401602060405180830381865afa158015613589573d6000803e3d6000fd5b505050506040513d601f19601f820116820180604052508101906135ad9190615798565b60688054919250600160c01b9091046001600160401b03169060186135d1836159b9565b91906101000a8154816001600160401b0302191690836001600160401b03160217905550508484604051613606929190615d30565b60405190819003812061361f91839042906020016159df565b60408051808303601f190181529181528151602092830120606854600160c01b90046001600160401b0316600090815260669093529120553233036136c357606854604080518381523360208201526060918101829052600091810191909152600160c01b9091046001600160401b0316907ff94bb37db835f1ab585ee00041849a09b12cd081d77fa15ca070757619cbc9319060800160405180910390a2612bdf565b606860189054906101000a90046001600160401b03166001600160401b03167ff94bb37db835f1ab585ee00041849a09b12cd081d77fa15ca070757619cbc931823388886040516137179493929190615d40565b60405180910390a25050505050565b606a546001600160a01b031633146137505760405162461bcd60e51b81526004016109de90615cd3565b6137608888888888888888613ad9565b606980546001600160401b0319166001600160401b038881169182179092556000908152606b60205260409020859055606f5416156137aa57606f80546001600160801b03191690555b6040516333d6247d60e01b8152600481018690527f00000000000000000000000000000000000000000000000000000000000000006001600160a01b0316906333d6247d90602401600060405180830381600087803b15801561380c57600080fd5b505af1158015613820573d6000803e3d6000fd5b50506040518681523392506001600160401b03891691507f0c0ce073a7d7b5850c04ccc4b20ee7d3179d5f57d0ac44399565792c0f72fce790602001611e8d565b6070546001600160a01b0316331461388b5760405162461bcd60e51b81526004016109de90615815565b606a80546001600160a01b0319166001600160a01b0383161790556040517f61f8fec29495a3078e9271456f05fb0707fd4e41f7661865f80fc437d06681ca90610f699083906150f8565b6138de61396e565b6001600160a01b0381166139435760405162461bcd60e51b815260206004820152602660248201527f4f776e61626c653a206e6577206f776e657220697320746865207a65726f206160448201526564647265737360d01b60648201526084016109de565b611fd6816143d1565b61395461396e565b6001600160401b03166000908152606b6020526040902055565b6033546001600160a01b031633146120b95760405162461bcd60e51b815260206004820181905260248201527f4f776e61626c653a2063616c6c6572206973206e6f7420746865206f776e657260448201526064016109de565b6040516001600160a01b0380851660248301528316604482015260648101829052613a339085906323b872dd60e01b906084015b60408051601f198184030181529190526020810180516001600160e01b03166001600160e01b031990931692909217909152614bfd565b50505050565b606f546001600160401b03600160401b82048116911611156120b957606f54600090613a7690600160401b90046001600160401b0316600161586e565b9050613a818161112b565b15611fd657606f54600090600290613aa39084906001600160401b0316615a5a565b613aad9190615d87565b613ab7908361586e565b9050613ac28161112b565b15613ad057612c0b816141e3565b612c0b826141e3565b600080613ae4612c0f565b90506001600160401b038a1615613c4a57606f546001600160401b03908116908b161115613b9c5760405162461bcd60e51b815260206004820152605960248201527f506f6c79676f6e5a6b45564d3a3a5f766572696679426174636865733a20706560448201527f6e64696e6753746174654e756d206d757374206265206c657373206f7220657160648201527875616c207468616e206c61737450656e64696e67537461746560381b608482015260a4016109de565b6001600160401b03808b166000908152606e602052604090206002810154815490945090918b8116600160401b9092041614613c445760405162461bcd60e51b815260206004820152604d6024820152600080516020615f7a83398151915260448201527f69744e756d4261746368206d757374206d61746368207468652070656e64696e60648201526c0ce40e6e8c2e8ca40c4c2e8c6d609b1b608482015260a4016109de565b50613d70565b6001600160401b0389166000908152606b6020526040902054915081613cd45760405162461bcd60e51b815260206004820152604460248201819052600080516020615f7a833981519152908201527f69744e756d426174636820737461746520726f6f7420646f6573206e6f7420656064820152631e1a5cdd60e21b608482015260a4016109de565b806001600160401b0316896001600160401b03161115613d705760405162461bcd60e51b815260206004820152605e6024820152600080516020615f7a83398151915260448201527f69744e756d4261746368206d757374206265206c657373206f7220657175616c60648201527f207468616e2063757272656e744c617374566572696669656442617463680000608482015260a4016109de565b806001600160401b0316886001600160401b031611613e185760405162461bcd60e51b815260206004820152605860248201527f506f6c79676f6e5a6b45564d3a3a5f766572696679426174636865733a20666960448201527f6e616c4e65774261746368206d75737420626520626967676572207468616e206064820152770c6eae4e4cadce898c2e6e8accae4d2ccd2cac884c2e8c6d60431b608482015260a4016109de565b6000613e278a8a8a868b610f74565b90506000600080516020615fda833981519152600283604051613e4a919061577c565b602060405180830381855afa158015613e67573d6000803e3d6000fd5b5050506040513d601f19601f82011682018060405250810190613e8a9190615798565b613e9491906157c7565b6040805160208101825282815290516343753b4d60e01b81529192506001600160a01b037f000000000000000000000000000000000000000000000000000000000000000016916343753b4d91613ef4918b918b918b9190600401615dad565b602060405180830381865afa158015613f11573d6000803e3d6000fd5b505050506040513d601f19601f82011682018060405250810190613f359190615e27565b613f955760405162461bcd60e51b815260206004820152602b60248201527f506f6c79676f6e5a6b45564d3a3a5f766572696679426174636865733a20496e60448201526a3b30b634b210383937b7b360a91b60648201526084016109de565b613fef33613fa3858d615a5a565b6001600160401b0316613fb461245b565b613fbe9190615a99565b6001600160a01b037f0000000000000000000000000000000000000000000000000000000000000000169190614cd4565b505050505050505050505050565b6000614007612c0f565b9050816000806140178484615a5a565b6001600160401b031690505b836001600160401b0316836001600160401b0316146140c9576001600160401b03808416600090815260676020526040902060655460018201549192610100909104811691614073911642615a82565b11156140ae57600181015461409890600160401b90046001600160401b031685615a5a565b6140ab906001600160401b031684615c2a565b92505b60010154600160401b90046001600160401b03169250614023565b60006140d58383615a82565b90508281101561414f5760006140eb8285615a82565b9050600c81116140fb57806140fe565b600c5b905061410b816003615a99565b61411690600a615f2d565b60655461412f908390600160481b900461ffff16615f2d565b60725461413c9190615a99565b6141469190615ab8565b607255506141db565b600061415b8483615a82565b9050600c811161416b578061416e565b600c5b9050600061417d826003615a99565b61418890600a615f2d565b6065546141a1908490600160481b900461ffff16615f2d565b6072546141ae9190615a99565b6141b89190615ab8565b9050806072546072546141cb9190615a99565b6141d59190615ab8565b60725550505b505050505050565b606f546001600160401b03600160401b90910481169082161180156142175750606f546001600160401b0390811690821611155b6142895760405162461bcd60e51b815260206004820152603f60248201527f506f6c79676f6e5a6b45564d3a3a5f636f6e736f6c696461746550656e64696e60448201527f6753746174653a2070656e64696e6753746174654e756d20696e76616c69640060648201526084016109de565b6001600160401b038181166000818152606e60209081526040808320805460698054600160401b928390049098166001600160401b0319909816881790556002820154878652606b9094529382902092909255606f805467ffffffffffffffff60401b19169390940292909217909255600182015490516333d6247d60e01b815260048101919091529091907f00000000000000000000000000000000000000000000000000000000000000006001600160a01b0316906333d6247d90602401600060405180830381600087803b15801561436357600080fd5b505af1158015614377573d6000803e3d6000fd5b50505050826001600160401b0316816001600160401b03167f328d3c6c0fd6f1be0515e422f2d87e59f25922cbc2233568515a0c4bc3f8510e84600201546040516143c491815260200190565b60405180910390a3505050565b603380546001600160a01b038381166001600160a01b0319831681179093556040519116919082907f8be0079c531659141344cd1fd0a4f28419497f9722a3daafe3b4186f6b6457e090600090a35050565b7f00000000000000000000000000000000000000000000000000000000000000006001600160a01b0316632072f6c56040518163ffffffff1660e01b8152600401600060405180830381600087803b15801561447e57600080fd5b505af1158015614492573d6000803e3d6000fd5b505050506120b9614d04565b60006001600160401b038a161561460e57606f546001600160401b03908116908b1611156145565760405162461bcd60e51b81526020600482015260656024820152600080516020615f9a83398151915260448201527f696e6753746174653a2070656e64696e6753746174654e756d206d757374206260648201527f65206c657373206f7220657175616c207468616e206c61737450656e64696e67608482015264537461746560d81b60a482015260c4016109de565b506001600160401b03808a166000908152606e602052604090206002810154815490928a8116600160401b90920416146146085760405162461bcd60e51b81526020600482015260596024820152600080516020615f9a83398151915260448201527f696e6753746174653a20696e69744e756d4261746368206d757374206d6174636064820152780d040e8d0ca40e0cadcc8d2dcce40e6e8c2e8ca40c4c2e8c6d603b1b608482015260a4016109de565b50614747565b506001600160401b0387166000908152606b6020526040902054806146a25760405162461bcd60e51b81526020600482015260506024820152600080516020615f9a83398151915260448201527f696e6753746174653a20696e69744e756d426174636820737461746520726f6f60648201526f1d08191bd95cc81b9bdd08195e1a5cdd60821b608482015260a4016109de565b6069546001600160401b0390811690891611156147475760405162461bcd60e51b81526020600482015260636024820152600080516020615f9a83398151915260448201527f696e6753746174653a20696e69744e756d4261746368206d757374206265206c60648201527f657373206f7220657175616c207468616e206c617374566572696669656442616084820152620e8c6d60eb1b60a482015260c4016109de565b606f546001600160401b03908116908a16118015906147775750896001600160401b0316896001600160401b0316115b80156147985750606f546001600160401b03600160401b9091048116908a16115b6148095760405162461bcd60e51b81526020600482015260486024820152600080516020615f9a83398151915260448201527f696e6753746174653a2066696e616c50656e64696e6753746174654e756d20696064820152671b98dbdc9c9958dd60c21b608482015260a4016109de565b6001600160401b038981166000908152606e6020526040902054600160401b90048116908816146148c05760405162461bcd60e51b81526020600482015260616024820152600080516020615f9a83398151915260448201527f696e6753746174653a2066696e616c4e65774261746368206d7573742062652060648201527f657175616c20746f2063757272656e744c6173745665726966696564426174636084820152600d60fb1b60a482015260c4016109de565b60006148cf898989858a610f74565b90506000600080516020615fda8339815191526002836040516148f2919061577c565b602060405180830381855afa15801561490f573d6000803e3d6000fd5b5050506040513d601f19601f820116820180604052508101906149329190615798565b61493c91906157c7565b6040805160208101825282815290516343753b4d60e01b81529192506001600160a01b037f000000000000000000000000000000000000000000000000000000000000000016916343753b4d9161499c918a918a918a9190600401615dad565b602060405180830381865afa1580156149b9573d6000803e3d6000fd5b505050506040513d601f19601f820116820180604052508101906149dd9190615e27565b614a375760405162461bcd60e51b81526020600482015260376024820152600080516020615f9a83398151915260448201527634b733a9ba30ba329d1024b73b30b634b210383937b7b360491b60648201526084016109de565b6001600160401b038b166000908152606e6020526040902060020154879003613fef5760405162461bcd60e51b815260206004820152605b6024820152600080516020615f9a83398151915260448201527f696e6753746174653a2053746f72656420726f6f74206d75737420626520646960648201527f66666572656e74207468616e206e657720737461746520726f6f740000000000608482015260a4016109de565b600054610100900460ff16614b475760405162461bcd60e51b815260206004820152602b60248201527f496e697469616c697a61626c653a20636f6e7472616374206973206e6f74206960448201526a6e697469616c697a696e6760a81b60648201526084016109de565b6120b9336143d1565b60655460ff16614bc85760405162461bcd60e51b815260206004820152603b60248201527f456d657267656e63794d616e616765723a3a6966456d657267656e637953746160448201527f74653a206f6e6c7920696620656d657267656e6379207374617465000000000060648201526084016109de565b6065805460ff191690556040517f1e5e34eea33501aecf2ebec9fe0e884a40804275ea7fe10b2ba084c8374308b390600090a1565b6000614c52826040518060400160405280602081526020017f5361666545524332303a206c6f772d6c6576656c2063616c6c206661696c6564815250856001600160a01b0316614d5f9092919063ffffffff16565b805190915015614ccf5780806020019051810190614c709190615e27565b614ccf5760405162461bcd60e51b815260206004820152602a60248201527f5361666545524332303a204552433230206f7065726174696f6e20646964206e6044820152691bdd081cdd58d8d9595960b21b60648201526084016109de565b505050565b6040516001600160a01b038316602482015260448101829052614ccf90849063a9059cbb60e01b906064016139fc565b60655460ff1615614d275760405162461bcd60e51b81526004016109de90615899565b6065805460ff191660011790556040517f2261efe5aef6fedc1fd1550b25facc9181745623049c7901287030b9ad1a549790600090a1565b6060614d6e8484600085614d76565b949350505050565b606082471015614dd75760405162461bcd60e51b815260206004820152602660248201527f416464726573733a20696e73756666696369656e742062616c616e636520666f6044820152651c8818d85b1b60d21b60648201526084016109de565b600080866001600160a01b03168587604051614df3919061577c565b60006040518083038185875af1925050503d8060008114614e30576040519150601f19603f3d011682016040523d82523d6000602084013e614e35565b606091505b5091509150614e4687838387614e51565b979650505050505050565b60608315614ec0578251600003614eb9576001600160a01b0385163b614eb95760405162461bcd60e51b815260206004820152601d60248201527f416464726573733a2063616c6c20746f206e6f6e2d636f6e747261637400000060448201526064016109de565b5081614d6e565b614d6e8383815115614ed55781518083602001fd5b8060405162461bcd60e51b81526004016109de9190614fb8565b80356001600160401b0381168114614f0657600080fd5b919050565b600080600080600060a08688031215614f2357600080fd5b614f2c86614eef565b9450614f3a60208701614eef565b9350614f4860408701614eef565b94979396509394606081013594506080013592915050565b60005b83811015614f7b578181015183820152602001614f63565b83811115613a335750506000910152565b60008151808452614fa4816020860160208601614f60565b601f01601f19169290920160200192915050565b602081526000614fcb6020830184614f8c565b9392505050565b8060408101831015614fe357600080fd5b92915050565b8060808101831015614fe357600080fd5b6000806000806000806000806101a0898b03121561501757600080fd5b61502089614eef565b975061502e60208a01614eef565b965061503c60408a01614eef565b955060608901359450608089013593506150598a60a08b01614fd2565b92506150688a60e08b01614fe9565b91506150788a6101608b01614fd2565b90509295985092959890939650565b60006020828403121561509957600080fd5b813561ffff81168114614fcb57600080fd5b600080600080600060a086880312156150c357600080fd5b6150cc86614eef565b94506150da60208701614eef565b94979496505050506040830135926060810135926080909101359150565b6001600160a01b0391909116815260200190565b60006020828403121561511e57600080fd5b614fcb82614eef565b60008083601f84011261513957600080fd5b5081356001600160401b0381111561515057600080fd5b6020830191508360208260051b850101111561516b57600080fd5b9250929050565b6000806020838503121561518557600080fd5b82356001600160401b0381111561519b57600080fd5b6151a785828601615127565b90969095509350505050565b634e487b7160e01b600052604160045260246000fd5b600082601f8301126151da57600080fd5b81356001600160401b03808211156151f4576151f46151b3565b604051601f8301601f19908116603f0116810190828211818310171561521c5761521c6151b3565b8160405283815286602085880101111561523557600080fd5b836020870160208301376000602085830101528094505050505092915050565b80356001600160a01b0381168114614f0657600080fd5b600080600080600060a0868803121561528457600080fd5b8535945060208601356001600160401b038111156152a157600080fd5b6152ad888289016151c9565b945050604086013592506152c360608701614eef565b91506152d160808701615255565b90509295509295909350565b6000602082840312156152ef57600080fd5b614fcb82615255565b60008060008060008060008060006101c08a8c03121561531757600080fd5b6153208a614eef565b985061532e60208b01614eef565b975061533c60408b01614eef565b965061534a60608b01614eef565b955060808a0135945060a08a013593506153678b60c08c01614fd2565b92506153778b6101008c01614fe9565b91506153878b6101808c01614fd2565b90509295985092959850929598565b6000602082840312156153a857600080fd5b5035919050565b6000806000808486036101008112156153c757600080fd5b60a08112156153d557600080fd5b5084935060a0850135925060c08501356001600160401b03808211156153fa57600080fd5b615406888389016151c9565b935060e087013591508082111561541c57600080fd5b50615429878288016151c9565b91505092959194509250565b60006020828403121561544757600080fd5b81356001600160401b0381111561545d57600080fd5b614d6e848285016151c9565b6000806000806080858703121561547f57600080fd5b61548885614eef565b93506020850135925061549d60408601614eef565b91506154ab60608601614eef565b905092959194509250565b6000806000604084860312156154cb57600080fd5b83356001600160401b03808211156154e257600080fd5b818601915086601f8301126154f657600080fd5b81358181111561550557600080fd5b87602082850101111561551757600080fd5b6020928301989097509590910135949350505050565b6000806040838503121561554057600080fd5b8235915061555060208401614eef565b90509250929050565b60208082526058908201527f506f6c79676f6e5a6b45564d3a3a766572696679426174636865733a2070656e60408201527f64696e6753746174654e756d206d757374206265206c657373206f7220657175606082015277616c207468616e206c61737450656e64696e67537461746560401b608082015260a00190565b6020808252604c90820152600080516020615f3a83398151915260408201527f744e756d4261746368206d757374206d61746368207468652070656e64696e6760608201526b040e6e8c2e8ca40c4c2e8c6d60a31b608082015260a00190565b6020808252604390820152600080516020615f3a83398151915260408201527f744e756d426174636820737461746520726f6f7420646f6573206e6f742065786060820152621a5cdd60ea1b608082015260a00190565b6020808252605d90820152600080516020615f3a83398151915260408201527f744e756d4261746368206d757374206265206c657373206f7220657175616c2060608201527f7468616e2063757272656e744c61737456657269666965644261746368000000608082015260a00190565b60208082526057908201527f506f6c79676f6e5a6b45564d3a3a766572696679426174636865733a2066696e60408201527f616c4e65774261746368206d75737420626520626967676572207468616e20636060820152760eae4e4cadce898c2e6e8accae4d2ccd2cac884c2e8c6d604b1b608082015260a00190565b6000825161578e818460208701614f60565b9190910192915050565b6000602082840312156157aa57600080fd5b5051919050565b634e487b7160e01b600052601260045260246000fd5b6000826157d6576157d66157b1565b500690565b600181811c908216806157ef57607f821691505b60208210810361580f57634e487b7160e01b600052602260045260246000fd5b50919050565b60208082526023908201527f506f6c79676f6e5a6b45564d3a3a6f6e6c7941646d696e3a204f6e6c7920616460408201526236b4b760e91b606082015260800190565b634e487b7160e01b600052601160045260246000fd5b60006001600160401b0380831681851680830382111561589057615890615858565b01949350505050565b60208082526042908201527f456d657267656e63794d616e616765723a3a69664e6f74456d657267656e637960408201527f53746174653a206f6e6c79206966206e6f7420656d657267656e637920737461606082015261746560f01b608082015260a00190565b634e487b7160e01b600052603260045260246000fd5b60008235607e1983360301811261578e57600080fd5b60006080823603121561593f57600080fd5b604051608081016001600160401b038282108183111715615962576159626151b3565b81604052843591508082111561597757600080fd5b50615984368286016151c9565b8252506020830135602082015261599d60408401614eef565b60408201526159ae60608401614eef565b606082015292915050565b60006001600160401b038083168181036159d5576159d5615858565b6001019392505050565b928352602083019190915260c01b6001600160c01b031916604082015260480190565b9485526020850193909352604084019190915260c01b6001600160c01b0319166060808401919091521b6001600160601b0319166068820152607c0190565b600060018201615a5357615a53615858565b5060010190565b60006001600160401b0383811690831681811015615a7a57615a7a615858565b039392505050565b600082821015615a9457615a94615858565b500390565b6000816000190483118215151615615ab357615ab3615858565b500290565b600082615ac757615ac76157b1565b500490565b601f821115614ccf57600081815260208120601f850160051c81016020861015615af35750805b601f850160051c820191505b818110156141db57828155600101615aff565b81516001600160401b03811115615b2b57615b2b6151b3565b615b3f81615b3984546157db565b84615acc565b602080601f831160018114615b745760008415615b5c5750858301515b600019600386901b1c1916600185901b1785556141db565b600085815260208120601f198616915b82811015615ba357888601518255948401946001909101908401615b84565b5085821015615bc15787850151600019600388901b60f8161c191681555b5050505050600190811b01905550565b60208082526039908201527f506f6c79676f6e5a6b45564d3a3a696e697469616c697a653a20457863656564604082015278081a185b1d081859d9dc9959d85d1a5bdb881d1a5b595bdd5d603a1b606082015260800190565b60008219821115615c3d57615c3d615858565b500190565b60008235605e1983360301811261578e57600080fd5b600060608236031215615c6a57600080fd5b604051606081016001600160401b038282108183111715615c8d57615c8d6151b3565b816040528435915080821115615ca257600080fd5b50615caf368286016151c9565b82525060208301356020820152615cc860408401614eef565b604082015292915050565b6020808252603c908201527f506f6c79676f6e5a6b45564d3a3a6f6e6c79547275737465644167677265676160408201527f746f723a204f6e6c7920747275737465642061676772656761746f7200000000606082015260800190565b8183823760009101908152919050565b8481526001600160a01b03841660208201526060604082018190528101829052818360808301376000818301608090810191909152601f909201601f191601019392505050565b60006001600160401b0380841680615da157615da16157b1565b92169190910492915050565b61012081016040808784376000838201818152879190815b6002811015615de557848483379084018281529284019290600101615dc5565b5050828760c0870137610100850181815286935091505b6001811015615e1b578251825260209283019290910190600101615dfc565b50505095945050505050565b600060208284031215615e3957600080fd5b81518015158114614fcb57600080fd5b600181815b80851115615e84578160001904821115615e6a57615e6a615858565b80851615615e7757918102915b93841c9390800290615e4e565b509250929050565b600082615e9b57506001614fe3565b81615ea857506000614fe3565b8160018114615ebe5760028114615ec857615ee4565b6001915050614fe3565b60ff841115615ed957615ed9615858565b50506001821b614fe3565b5060208310610133831016604e8410600b8410161715615f07575081810a614fe3565b615f118383615e49565b8060001904821115615f2557615f25615858565b029392505050565b6000614fcb8383615e8c56fe506f6c79676f6e5a6b45564d3a3a766572696679426174636865733a20696e69506f6c79676f6e5a6b45564d3a3a6163746976617465456d657267656e637953506f6c79676f6e5a6b45564d3a3a5f766572696679426174636865733a20696e506f6c79676f6e5a6b45564d3a3a5f70726f766544697374696e637450656e64506f6c79676f6e5a6b45564d3a3a73657175656e6365466f726365426174636830644e72e131a029b85045b68181585d2833e84879b9709143e1f593f0000001506f6c79676f6e5a6b45564d3a3a73657175656e6365426174636865733a2046a2646970667358221220c550f3bcf6a5a9f6745a02605209fdb4b505d528a6d5e48c5cd6fc1c4ffbe75964736f6c634300080f0033",
  "linkReferences": {},
  "deployedLinkReferences": {}
}