{
  "_format": "hh-sol-artifact-1",
  "contractName": "PolygonZkEVMGlobalExitRootV2",
  "sourceName": "contracts/v2/PolygonZkEVMGlobalExitRootV2.sol",
  "abi": [
    {
      "inputs": [
        {
          "internalType": "address",
          "name": "_rollupManager",
          "type": "address"
        },
        {
          "internalType": "address",
          "name": "_bridgeAddress",
          "type": "address"
        }
      ],
      "stateMutability": "nonpayable",
      "type": "constructor"
    },
    {
      "inputs": [],
      "name": "MerkleTreeFull",
      "type": "error"
    },
    {
      "inputs": [],
      "name": "OnlyAllowedContracts",
      "type": "error"
    },
    {
      "anonymous": false,
      "inputs": [
        {
          "indexed": true,
          "internalType": "bytes32",
          "name": "mainnetExitRoot",
          "type": "bytes32"
        },
        {
          "indexed": true,
          "internalType": "bytes32",
          "name": "rollupExitRoot",
          "type": "bytes32"
        }
      ],
      "name": "UpdateL1InfoTree",
      "type": "event"
    },
    {
      "inputs": [],
      "name": "bridgeAddress",
      "outputs": [
        {
          "internalType": "address",
          "name": "",
          "type": "address"
        }
      ],
      "stateMutability": "view",
      "type": "function"
    },
    {
      "inputs": [
        {
          "internalType": "bytes32",
          "name": "leafHash",
          "type": "bytes32"
        },
        {
          "internalType": "bytes32[32]",
          "name": "smtProof",
          "type": "bytes32[32]"
        },
        {
          "internalType": "uint32",
          "name": "index",
          "type": "uint32"
        }
      ],
      "name": "calculateRoot",
      "outputs": [
        {
          "internalType": "bytes32",
          "name": "",
          "type": "bytes32"
        }
      ],
      "stateMutability": "pure",
      "type": "function"
    },
    {
      "inputs": [],
      "name": "depositCount",
      "outputs": [
        {
          "internalType": "uint256",
          "name": "",
          "type": "uint256"
        }
      ],
      "stateMutability": "view",
      "type": "function"
    },
    {
      "inputs": [],
      "name": "getLastGlobalExitRoot",
      "outputs": [
        {
          "internalType": "bytes32",
          "name": "",
          "type": "bytes32"
        }
      ],
      "stateMutability": "view",
      "type": "function"
    },
    {
      "inputs": [
        {
          "internalType": "bytes32",
          "name": "newGlobalExitRoot",
          "type": "bytes32"
        },
        {
          "internalType": "uint256",
          "name": "lastBlockHash",
          "type": "uint256"
        },
        {
          "internalType": "uint64",
          "name": "timestamp",
          "type": "uint64"
        }
      ],
      "name": "getLeafValue",
      "outputs": [
        {
          "internalType": "bytes32",
          "name": "",
          "type": "bytes32"
        }
      ],
      "stateMutability": "pure",
      "type": "function"
    },
    {
      "inputs": [],
      "name": "getRoot",
      "outputs": [
        {
          "internalType": "bytes32",
          "name": "",
          "type": "bytes32"
        }
      ],
      "stateMutability": "view",
      "type": "function"
    },
    {
      "inputs": [
        {
          "internalType": "bytes32",
          "name": "",
          "type": "bytes32"
        }
      ],
      "name": "globalExitRootMap",
      "outputs": [
        {
          "internalType": "uint256",
          "name": "",
          "type": "uint256"
        }
      ],
      "stateMutability": "view",
      "type": "function"
    },
    {
      "inputs": [],
      "name": "lastMainnetExitRoot",
      "outputs": [
        {
          "internalType": "bytes32",
          "name": "",
          "type": "bytes32"
        }
      ],
      "stateMutability": "view",
      "type": "function"
    },
    {
      "inputs": [],
      "name": "lastRollupExitRoot",
      "outputs": [
        {
          "internalType": "bytes32",
          "name": "",
          "type": "bytes32"
        }
      ],
      "stateMutability": "view",
      "type": "function"
    },
    {
      "inputs": [],
      "name": "rollupManager",
      "outputs": [
        {
          "internalType": "address",
          "name": "",
          "type": "address"
        }
      ],
      "stateMutability": "view",
      "type": "function"
    },
    {
      "inputs": [
        {
          "internalType": "bytes32",
          "name": "newRoot",
          "type": "bytes32"
        }
      ],
      "name": "updateExitRoot",
      "outputs": [],
      "stateMutability": "nonpayable",
      "type": "function"
    },
    {
      "inputs": [
        {
          "internalType": "bytes32",
          "name": "leafHash",
          "type": "bytes32"
        },
        {
          "internalType": "bytes32[32]",
          "name": "smtProof",
          "type": "bytes32[32]"
        },
        {
          "internalType": "uint32",
          "name": "index",
          "type": "uint32"
        },
        {
          "internalType": "bytes32",
          "name": "root",
          "type": "bytes32"
        }
      ],
      "name": "verifyMerkleProof",
      "outputs": [
        {
          "internalType": "bool",
          "name": "",
          "type": "bool"
        }
      ],
      "stateMutability": "pure",
      "type": "function"
    }
  ],
  "bytecode": "0x60c060405234801561000f575f80fd5b50604051610b03380380610b0383398101604081905261002e91610060565b6001600160a01b0391821660a05216608052610091565b80516001600160a01b038116811461005b575f80fd5b919050565b5f8060408385031215610071575f80fd5b61007a83610045565b915061008860208401610045565b90509250929050565b60805160a051610a436100c05f395f818161014101526102ba01525f8181610210015261026e0152610a435ff3fe608060405234801561000f575f80fd5b50600436106100cf575f3560e01c806349b7b8021161007d57806383f244031161005857806383f24403146101f8578063a3c573eb1461020b578063fb57083414610232575f80fd5b806349b7b8021461013c5780635ca1e165146101885780635d81050114610190575f80fd5b8063319cf735116100ad578063319cf7351461011657806333d6247d1461011f5780633ed691ef14610134575f80fd5b806301fd9044146100d3578063257b3632146100ee5780632dfdf0b51461010d575b5f80fd5b6100db5f5481565b6040519081526020015b60405180910390f35b6100db6100fc366004610709565b60026020525f908152604090205481565b6100db60235481565b6100db60015481565b61013261012d366004610709565b610255565b005b6100db6103f6565b6101637f000000000000000000000000000000000000000000000000000000000000000081565b60405173ffffffffffffffffffffffffffffffffffffffff90911681526020016100e5565b6100db610409565b6100db61019e366004610720565b604080516020808201959095528082019390935260c09190911b7fffffffffffffffff0000000000000000000000000000000000000000000000001660608301528051604881840301815260689092019052805191012090565b6100db61020636600461078b565b610412565b6101637f000000000000000000000000000000000000000000000000000000000000000081565b6102456102403660046107c7565b6104e7565b60405190151581526020016100e5565b5f8073ffffffffffffffffffffffffffffffffffffffff7f00000000000000000000000000000000000000000000000000000000000000001633036102a357505060018190555f5481610322565b73ffffffffffffffffffffffffffffffffffffffff7f00000000000000000000000000000000000000000000000000000000000000001633036102f05750505f8190556001548190610322565b6040517fb49365dd00000000000000000000000000000000000000000000000000000000815260040160405180910390fd5b5f61032d82846104fe565b5f81815260026020526040812054919250036103f0575f61034f600143610839565b5f8381526002602090815260409182902092409283905581518082018690528083018490527fffffffffffffffff0000000000000000000000000000000000000000000000004260c01b16606082015282518082036048018152606890910190925281519101209091506103c29061052d565b604051849084907fda61aa7823fcd807e37b95aabcbe17f03a6f3efd514176444dae191d27fd66b3905f90a3505b50505050565b5f6104046001545f546104fe565b905090565b5f61040461062d565b5f83815b60208110156104de57600163ffffffff8516821c81169003610481578481602081106104445761044461084c565b602002013582604051602001610464929190918252602082015260400190565b6040516020818303038152906040528051906020012091506104cc565b818582602081106104945761049461084c565b60200201356040516020016104b3929190918252602082015260400190565b6040516020818303038152906040528051906020012091505b806104d681610879565b915050610416565b50949350505050565b5f816104f4868686610412565b1495945050505050565b604080516020808201859052818301849052825180830384018152606090920190925280519101205b92915050565b80600161053c602060026109ce565b6105469190610839565b60235410610580576040517fef5ccf6600000000000000000000000000000000000000000000000000000000815260040160405180910390fd5b5f60235f815461058f90610879565b918290555090505f5b602081101561061f578082901c6001166001036105cb5782600382602081106105c3576105c361084c565b015550505050565b600381602081106105de576105de61084c565b01546040805160208101929092528101849052606001604051602081830303815290604052805190602001209250808061061790610879565b915050610598565b506106286109e0565b505050565b6023545f90819081805b6020811015610700578083901c60011660010361069457600381602081106106615761066161084c565b015460408051602081019290925281018590526060016040516020818303038152906040528051906020012093506106c1565b60408051602081018690529081018390526060016040516020818303038152906040528051906020012093505b604080516020810184905290810183905260600160405160208183030381529060405280519060200120915080806106f890610879565b915050610637565b50919392505050565b5f60208284031215610719575f80fd5b5035919050565b5f805f60608486031215610732575f80fd5b8335925060208401359150604084013567ffffffffffffffff81168114610757575f80fd5b809150509250925092565b806104008101831015610527575f80fd5b803563ffffffff81168114610786575f80fd5b919050565b5f805f610440848603121561079e575f80fd5b833592506107af8560208601610762565b91506107be6104208501610773565b90509250925092565b5f805f8061046085870312156107db575f80fd5b843593506107ec8660208701610762565b92506107fb6104208601610773565b939692955092936104400135925050565b7f4e487b71000000000000000000000000000000000000000000000000000000005f52601160045260245ffd5b818103818111156105275761052761080c565b7f4e487b71000000000000000000000000000000000000000000000000000000005f52603260045260245ffd5b5f7fffffffffffffffffffffffffffffffffffffffffffffffffffffffffffffffff82036108a9576108a961080c565b5060010190565b600181815b8085111561090957817fffffffffffffffffffffffffffffffffffffffffffffffffffffffffffffffff048211156108ef576108ef61080c565b808516156108fc57918102915b93841c93908002906108b5565b509250929050565b5f8261091f57506001610527565b8161092b57505f610527565b8160018114610941576002811461094b57610967565b6001915050610527565b60ff84111561095c5761095c61080c565b50506001821b610527565b5060208310610133831016604e8410600b841016171561098a575081810a610527565b61099483836108b0565b807fffffffffffffffffffffffffffffffffffffffffffffffffffffffffffffffff048211156109c6576109c661080c565b029392505050565b5f6109d98383610911565b9392505050565b7f4e487b71000000000000000000000000000000000000000000000000000000005f52600160045260245ffdfea264697066735822122051a05a35ac88fdcc6044925b155542688003cc311dd484f2331363234620430c64736f6c63430008140033",
  "linkReferences": {},
  "deployedLinkReferences": {}
}