{
  "_format": "hh-sol-artifact-1",
  "contractName": "PolygonValidiumEtrog",
  "sourceName": "contracts/v2/consensus/validium/PolygonValidiumEtrog.sol",
  "abi": [
    {
      "inputs": [
        {
          "internalType": "contract IPolygonZkEVMGlobalExitRootV2",
          "name": "_globalExitRootManager",
          "type": "address"
        },
        {
          "internalType": "contract IERC20Upgradeable",
          "name": "_pol",
          "type": "address"
        },
        {
          "internalType": "contract IPolygonZkEVMBridgeV2",
          "name": "_bridgeAddress",
          "type": "address"
        },
        {
          "internalType": "contract PolygonRollupManager",
          "name": "_rollupManager",
          "type": "address"
        }
      ],
      "stateMutability": "nonpayable",
      "type": "constructor"
    },
    {
      "inputs": [],
      "name": "BatchAlreadyVerified",
      "type": "error"
    },
    {
      "inputs": [],
      "name": "BatchNotSequencedOrNotSequenceEnd",
      "type": "error"
    },
    {
      "inputs": [],
      "name": "ExceedMaxVerifyBatches",
      "type": "error"
    },
    {
      "inputs": [],
      "name": "FinalNumBatchBelowLastVerifiedBatch",
      "type": "error"
    },
    {
      "inputs": [],
      "name": "FinalNumBatchDoesNotMatchPendingState",
      "type": "error"
    },
    {
      "inputs": [],
      "name": "FinalPendingStateNumInvalid",
      "type": "error"
    },
    {
      "inputs": [],
      "name": "ForceBatchNotAllowed",
      "type": "error"
    },
    {
      "inputs": [],
      "name": "ForceBatchTimeoutNotExpired",
      "type": "error"
    },
    {
      "inputs": [],
      "name": "ForceBatchesAlreadyActive",
      "type": "error"
    },
    {
      "inputs": [],
      "name": "ForceBatchesDecentralized",
      "type": "error"
    },
    {
      "inputs": [],
      "name": "ForceBatchesNotAllowedOnEmergencyState",
      "type": "error"
    },
    {
      "inputs": [],
      "name": "ForceBatchesOverflow",
      "type": "error"
    },
    {
      "inputs": [],
      "name": "ForcedDataDoesNotMatch",
      "type": "error"
    },
    {
      "inputs": [],
      "name": "GasTokenNetworkMustBeZeroOnEther",
      "type": "error"
    },
    {
      "inputs": [],
      "name": "GlobalExitRootNotExist",
      "type": "error"
    },
    {
      "inputs": [],
      "name": "HaltTimeoutNotExpired",
      "type": "error"
    },
    {
      "inputs": [],
      "name": "HaltTimeoutNotExpiredAfterEmergencyState",
      "type": "error"
    },
    {
      "inputs": [],
      "name": "HugeTokenMetadataNotSupported",
      "type": "error"
    },
    {
      "inputs": [],
      "name": "InitNumBatchAboveLastVerifiedBatch",
      "type": "error"
    },
    {
      "inputs": [],
      "name": "InitNumBatchDoesNotMatchPendingState",
      "type": "error"
    },
    {
      "inputs": [],
      "name": "InitSequencedBatchDoesNotMatch",
      "type": "error"
    },
    {
      "inputs": [],
      "name": "InvalidInitializeTransaction",
      "type": "error"
    },
    {
      "inputs": [],
      "name": "InvalidProof",
      "type": "error"
    },
    {
      "inputs": [],
      "name": "InvalidRangeBatchTimeTarget",
      "type": "error"
    },
    {
      "inputs": [],
      "name": "InvalidRangeForceBatchTimeout",
      "type": "error"
    },
    {
      "inputs": [],
      "name": "InvalidRangeMultiplierBatchFee",
      "type": "error"
    },
    {
      "inputs": [],
      "name": "MaxTimestampSequenceInvalid",
      "type": "error"
    },
    {
      "inputs": [],
      "name": "NewAccInputHashDoesNotExist",
      "type": "error"
    },
    {
      "inputs": [],
      "name": "NewPendingStateTimeoutMustBeLower",
      "type": "error"
    },
    {
      "inputs": [],
      "name": "NewStateRootNotInsidePrime",
      "type": "error"
    },
    {
      "inputs": [],
      "name": "NewTrustedAggregatorTimeoutMustBeLower",
      "type": "error"
    },
    {
      "inputs": [],
      "name": "NotEnoughMaticAmount",
      "type": "error"
    },
    {
      "inputs": [],
      "name": "NotEnoughPOLAmount",
      "type": "error"
    },
    {
      "inputs": [],
      "name": "OldAccInputHashDoesNotExist",
      "type": "error"
    },
    {
      "inputs": [],
      "name": "OldStateRootDoesNotExist",
      "type": "error"
    },
    {
      "inputs": [],
      "name": "OnlyAdmin",
      "type": "error"
    },
    {
      "inputs": [],
      "name": "OnlyPendingAdmin",
      "type": "error"
    },
    {
      "inputs": [],
      "name": "OnlyRollupManager",
      "type": "error"
    },
    {
      "inputs": [],
      "name": "OnlyTrustedAggregator",
      "type": "error"
    },
    {
      "inputs": [],
      "name": "OnlyTrustedSequencer",
      "type": "error"
    },
    {
      "inputs": [],
      "name": "PendingStateDoesNotExist",
      "type": "error"
    },
    {
      "inputs": [],
      "name": "PendingStateInvalid",
      "type": "error"
    },
    {
      "inputs": [],
      "name": "PendingStateNotConsolidable",
      "type": "error"
    },
    {
      "inputs": [],
      "name": "PendingStateTimeoutExceedHaltAggregationTimeout",
      "type": "error"
    },
    {
      "inputs": [],
      "name": "SequenceNumberInvalid",
      "type": "error"
    },
    {
      "inputs": [],
      "name": "SequenceWithDataAvailabilityNotAllowed",
      "type": "error"
    },
    {
      "inputs": [],
      "name": "SequenceZeroBatches",
      "type": "error"
    },
    {
      "inputs": [],
      "name": "SequencedTimestampBelowForcedTimestamp",
      "type": "error"
    },
    {
      "inputs": [],
      "name": "SequencedTimestampInvalid",
      "type": "error"
    },
    {
      "inputs": [],
      "name": "StoredRootMustBeDifferentThanNewRoot",
      "type": "error"
    },
    {
      "inputs": [],
      "name": "SwitchToSameValue",
      "type": "error"
    },
    {
      "inputs": [],
      "name": "TransactionsLengthAboveMax",
      "type": "error"
    },
    {
      "inputs": [],
      "name": "TrustedAggregatorTimeoutExceedHaltAggregationTimeout",
      "type": "error"
    },
    {
      "inputs": [],
      "name": "TrustedAggregatorTimeoutNotExpired",
      "type": "error"
    },
    {
      "anonymous": false,
      "inputs": [
        {
          "indexed": false,
          "internalType": "address",
          "name": "newAdmin",
          "type": "address"
        }
      ],
      "name": "AcceptAdminRole",
      "type": "event"
    },
    {
      "anonymous": false,
      "inputs": [
        {
          "indexed": true,
          "internalType": "uint64",
          "name": "forceBatchNum",
          "type": "uint64"
        },
        {
          "indexed": false,
          "internalType": "bytes32",
          "name": "lastGlobalExitRoot",
          "type": "bytes32"
        },
        {
          "indexed": false,
          "internalType": "address",
          "name": "sequencer",
          "type": "address"
        },
        {
          "indexed": false,
          "internalType": "bytes",
          "name": "transactions",
          "type": "bytes"
        }
      ],
      "name": "ForceBatch",
      "type": "event"
    },
    {
      "anonymous": false,
      "inputs": [
        {
          "indexed": false,
          "internalType": "bytes",
          "name": "transactions",
          "type": "bytes"
        },
        {
          "indexed": false,
          "internalType": "bytes32",
          "name": "lastGlobalExitRoot",
          "type": "bytes32"
        },
        {
          "indexed": false,
          "internalType": "address",
          "name": "sequencer",
          "type": "address"
        }
      ],
      "name": "InitialSequenceBatches",
      "type": "event"
    },
    {
      "anonymous": false,
      "inputs": [
        {
          "indexed": false,
          "internalType": "uint8",
          "name": "version",
          "type": "uint8"
        }
      ],
      "name": "Initialized",
      "type": "event"
    },
    {
      "anonymous": false,
      "inputs": [
        {
          "indexed": true,
          "internalType": "uint64",
          "name": "numBatch",
          "type": "uint64"
        },
        {
          "indexed": false,
          "internalType": "bytes32",
          "name": "l1InfoRoot",
          "type": "bytes32"
        }
      ],
      "name": "SequenceBatches",
      "type": "event"
    },
    {
      "anonymous": false,
      "inputs": [
        {
          "indexed": true,
          "internalType": "uint64",
          "name": "numBatch",
          "type": "uint64"
        }
      ],
      "name": "SequenceForceBatches",
      "type": "event"
    },
    {
      "anonymous": false,
      "inputs": [
        {
          "indexed": false,
          "internalType": "address",
          "name": "newDataAvailabilityProtocol",
          "type": "address"
        }
      ],
      "name": "SetDataAvailabilityProtocol",
      "type": "event"
    },
    {
      "anonymous": false,
      "inputs": [
        {
          "indexed": false,
          "internalType": "address",
          "name": "newForceBatchAddress",
          "type": "address"
        }
      ],
      "name": "SetForceBatchAddress",
      "type": "event"
    },
    {
      "anonymous": false,
      "inputs": [
        {
          "indexed": false,
          "internalType": "uint64",
          "name": "newforceBatchTimeout",
          "type": "uint64"
        }
      ],
      "name": "SetForceBatchTimeout",
      "type": "event"
    },
    {
      "anonymous": false,
      "inputs": [
        {
          "indexed": false,
          "internalType": "address",
          "name": "newTrustedSequencer",
          "type": "address"
        }
      ],
      "name": "SetTrustedSequencer",
      "type": "event"
    },
    {
      "anonymous": false,
      "inputs": [
        {
          "indexed": false,
          "internalType": "string",
          "name": "newTrustedSequencerURL",
          "type": "string"
        }
      ],
      "name": "SetTrustedSequencerURL",
      "type": "event"
    },
    {
      "anonymous": false,
      "inputs": [],
      "name": "SwitchSequenceWithDataAvailability",
      "type": "event"
    },
    {
      "anonymous": false,
      "inputs": [
        {
          "indexed": false,
          "internalType": "address",
          "name": "newPendingAdmin",
          "type": "address"
        }
      ],
      "name": "TransferAdminRole",
      "type": "event"
    },
    {
      "anonymous": false,
      "inputs": [
        {
          "indexed": true,
          "internalType": "uint64",
          "name": "numBatch",
          "type": "uint64"
        },
        {
          "indexed": false,
          "internalType": "bytes32",
          "name": "stateRoot",
          "type": "bytes32"
        },
        {
          "indexed": true,
          "internalType": "address",
          "name": "aggregator",
          "type": "address"
        }
      ],
      "name": "VerifyBatches",
      "type": "event"
    },
    {
      "inputs": [],
      "name": "GLOBAL_EXIT_ROOT_MANAGER_L2",
      "outputs": [
        {
          "internalType": "contract IBasePolygonZkEVMGlobalExitRoot",
          "name": "",
          "type": "address"
        }
      ],
      "stateMutability": "view",
      "type": "function"
    },
    {
      "inputs": [],
      "name": "INITIALIZE_TX_BRIDGE_LIST_LEN_LEN",
      "outputs": [
        {
          "internalType": "uint8",
          "name": "",
          "type": "uint8"
        }
      ],
      "stateMutability": "view",
      "type": "function"
    },
    {
      "inputs": [],
      "name": "INITIALIZE_TX_BRIDGE_PARAMS",
      "outputs": [
        {
          "internalType": "bytes",
          "name": "",
          "type": "bytes"
        }
      ],
      "stateMutability": "view",
      "type": "function"
    },
    {
      "inputs": [],
      "name": "INITIALIZE_TX_BRIDGE_PARAMS_AFTER_BRIDGE_ADDRESS",
      "outputs": [
        {
          "internalType": "bytes",
          "name": "",
          "type": "bytes"
        }
      ],
      "stateMutability": "view",
      "type": "function"
    },
    {
      "inputs": [],
      "name": "INITIALIZE_TX_BRIDGE_PARAMS_AFTER_BRIDGE_ADDRESS_EMPTY_METADATA",
      "outputs": [
        {
          "internalType": "bytes",
          "name": "",
          "type": "bytes"
        }
      ],
      "stateMutability": "view",
      "type": "function"
    },
    {
      "inputs": [],
      "name": "INITIALIZE_TX_CONSTANT_BYTES",
      "outputs": [
        {
          "internalType": "uint16",
          "name": "",
          "type": "uint16"
        }
      ],
      "stateMutability": "view",
      "type": "function"
    },
    {
      "inputs": [],
      "name": "INITIALIZE_TX_CONSTANT_BYTES_EMPTY_METADATA",
      "outputs": [
        {
          "internalType": "uint16",
          "name": "",
          "type": "uint16"
        }
      ],
      "stateMutability": "view",
      "type": "function"
    },
    {
      "inputs": [],
      "name": "INITIALIZE_TX_DATA_LEN_EMPTY_METADATA",
      "outputs": [
        {
          "internalType": "uint8",
          "name": "",
          "type": "uint8"
        }
      ],
      "stateMutability": "view",
      "type": "function"
    },
    {
      "inputs": [],
      "name": "INITIALIZE_TX_EFFECTIVE_PERCENTAGE",
      "outputs": [
        {
          "internalType": "bytes1",
          "name": "",
          "type": "bytes1"
        }
      ],
      "stateMutability": "view",
      "type": "function"
    },
    {
      "inputs": [],
      "name": "SIGNATURE_INITIALIZE_TX_R",
      "outputs": [
        {
          "internalType": "bytes32",
          "name": "",
          "type": "bytes32"
        }
      ],
      "stateMutability": "view",
      "type": "function"
    },
    {
      "inputs": [],
      "name": "SIGNATURE_INITIALIZE_TX_S",
      "outputs": [
        {
          "internalType": "bytes32",
          "name": "",
          "type": "bytes32"
        }
      ],
      "stateMutability": "view",
      "type": "function"
    },
    {
      "inputs": [],
      "name": "SIGNATURE_INITIALIZE_TX_V",
      "outputs": [
        {
          "internalType": "uint8",
          "name": "",
          "type": "uint8"
        }
      ],
      "stateMutability": "view",
      "type": "function"
    },
    {
      "inputs": [],
      "name": "TIMESTAMP_RANGE",
      "outputs": [
        {
          "internalType": "uint256",
          "name": "",
          "type": "uint256"
        }
      ],
      "stateMutability": "view",
      "type": "function"
    },
    {
      "inputs": [],
      "name": "acceptAdminRole",
      "outputs": [],
      "stateMutability": "nonpayable",
      "type": "function"
    },
    {
      "inputs": [],
      "name": "admin",
      "outputs": [
        {
          "internalType": "address",
          "name": "",
          "type": "address"
        }
      ],
      "stateMutability": "view",
      "type": "function"
    },
    {
      "inputs": [],
      "name": "bridgeAddress",
      "outputs": [
        {
          "internalType": "contract IPolygonZkEVMBridgeV2",
          "name": "",
          "type": "address"
        }
      ],
      "stateMutability": "view",
      "type": "function"
    },
    {
      "inputs": [],
      "name": "calculatePolPerForceBatch",
      "outputs": [
        {
          "internalType": "uint256",
          "name": "",
          "type": "uint256"
        }
      ],
      "stateMutability": "view",
      "type": "function"
    },
    {
      "inputs": [],
      "name": "dataAvailabilityProtocol",
      "outputs": [
        {
          "internalType": "contract IDataAvailabilityProtocol",
          "name": "",
          "type": "address"
        }
      ],
      "stateMutability": "view",
      "type": "function"
    },
    {
      "inputs": [
        {
          "internalType": "bytes",
          "name": "transactions",
          "type": "bytes"
        },
        {
          "internalType": "uint256",
          "name": "polAmount",
          "type": "uint256"
        }
      ],
      "name": "forceBatch",
      "outputs": [],
      "stateMutability": "nonpayable",
      "type": "function"
    },
    {
      "inputs": [],
      "name": "forceBatchAddress",
      "outputs": [
        {
          "internalType": "address",
          "name": "",
          "type": "address"
        }
      ],
      "stateMutability": "view",
      "type": "function"
    },
    {
      "inputs": [],
      "name": "forceBatchTimeout",
      "outputs": [
        {
          "internalType": "uint64",
          "name": "",
          "type": "uint64"
        }
      ],
      "stateMutability": "view",
      "type": "function"
    },
    {
      "inputs": [
        {
          "internalType": "uint64",
          "name": "",
          "type": "uint64"
        }
      ],
      "name": "forcedBatches",
      "outputs": [
        {
          "internalType": "bytes32",
          "name": "",
          "type": "bytes32"
        }
      ],
      "stateMutability": "view",
      "type": "function"
    },
    {
      "inputs": [],
      "name": "gasTokenAddress",
      "outputs": [
        {
          "internalType": "address",
          "name": "",
          "type": "address"
        }
      ],
      "stateMutability": "view",
      "type": "function"
    },
    {
      "inputs": [],
      "name": "gasTokenNetwork",
      "outputs": [
        {
          "internalType": "uint32",
          "name": "",
          "type": "uint32"
        }
      ],
      "stateMutability": "view",
      "type": "function"
    },
    {
      "inputs": [
        {
          "internalType": "uint32",
          "name": "networkID",
          "type": "uint32"
        },
        {
          "internalType": "address",
          "name": "_gasTokenAddress",
          "type": "address"
        },
        {
          "internalType": "uint32",
          "name": "_gasTokenNetwork",
          "type": "uint32"
        },
        {
          "internalType": "bytes",
          "name": "_gasTokenMetadata",
          "type": "bytes"
        }
      ],
      "name": "generateInitializeTransaction",
      "outputs": [
        {
          "internalType": "bytes",
          "name": "",
          "type": "bytes"
        }
      ],
      "stateMutability": "view",
      "type": "function"
    },
    {
      "inputs": [],
      "name": "globalExitRootManager",
      "outputs": [
        {
          "internalType": "contract IPolygonZkEVMGlobalExitRootV2",
          "name": "",
          "type": "address"
        }
      ],
      "stateMutability": "view",
      "type": "function"
    },
    {
      "inputs": [
        {
          "internalType": "address",
          "name": "_admin",
          "type": "address"
        },
        {
          "internalType": "address",
          "name": "sequencer",
          "type": "address"
        },
        {
          "internalType": "uint32",
          "name": "networkID",
          "type": "uint32"
        },
        {
          "internalType": "address",
          "name": "_gasTokenAddress",
          "type": "address"
        },
        {
          "internalType": "string",
          "name": "sequencerURL",
          "type": "string"
        },
        {
          "internalType": "string",
          "name": "_networkName",
          "type": "string"
        }
      ],
      "name": "initialize",
      "outputs": [],
      "stateMutability": "nonpayable",
      "type": "function"
    },
    {
      "inputs": [],
      "name": "isSequenceWithDataAvailabilityAllowed",
      "outputs": [
        {
          "internalType": "bool",
          "name": "",
          "type": "bool"
        }
      ],
      "stateMutability": "view",
      "type": "function"
    },
    {
      "inputs": [],
      "name": "lastAccInputHash",
      "outputs": [
        {
          "internalType": "bytes32",
          "name": "",
          "type": "bytes32"
        }
      ],
      "stateMutability": "view",
      "type": "function"
    },
    {
      "inputs": [],
      "name": "lastForceBatch",
      "outputs": [
        {
          "internalType": "uint64",
          "name": "",
          "type": "uint64"
        }
      ],
      "stateMutability": "view",
      "type": "function"
    },
    {
      "inputs": [],
      "name": "lastForceBatchSequenced",
      "outputs": [
        {
          "internalType": "uint64",
          "name": "",
          "type": "uint64"
        }
      ],
      "stateMutability": "view",
      "type": "function"
    },
    {
      "inputs": [],
      "name": "networkName",
      "outputs": [
        {
          "internalType": "string",
          "name": "",
          "type": "string"
        }
      ],
      "stateMutability": "view",
      "type": "function"
    },
    {
      "inputs": [
        {
          "internalType": "uint64",
          "name": "lastVerifiedBatch",
          "type": "uint64"
        },
        {
          "internalType": "bytes32",
          "name": "newStateRoot",
          "type": "bytes32"
        },
        {
          "internalType": "address",
          "name": "aggregator",
          "type": "address"
        }
      ],
      "name": "onVerifyBatches",
      "outputs": [],
      "stateMutability": "nonpayable",
      "type": "function"
    },
    {
      "inputs": [],
      "name": "pendingAdmin",
      "outputs": [
        {
          "internalType": "address",
          "name": "",
          "type": "address"
        }
      ],
      "stateMutability": "view",
      "type": "function"
    },
    {
      "inputs": [],
      "name": "pol",
      "outputs": [
        {
          "internalType": "contract IERC20Upgradeable",
          "name": "",
          "type": "address"
        }
      ],
      "stateMutability": "view",
      "type": "function"
    },
    {
      "inputs": [],
      "name": "rollupManager",
      "outputs": [
        {
          "internalType": "contract PolygonRollupManager",
          "name": "",
          "type": "address"
        }
      ],
      "stateMutability": "view",
      "type": "function"
    },
    {
      "inputs": [
        {
          "components": [
            {
              "internalType": "bytes",
              "name": "transactions",
              "type": "bytes"
            },
            {
              "internalType": "bytes32",
              "name": "forcedGlobalExitRoot",
              "type": "bytes32"
            },
            {
              "internalType": "uint64",
              "name": "forcedTimestamp",
              "type": "uint64"
            },
            {
              "internalType": "bytes32",
              "name": "forcedBlockHashL1",
              "type": "bytes32"
            }
          ],
          "internalType": "struct PolygonRollupBaseEtrog.BatchData[]",
          "name": "batches",
          "type": "tuple[]"
        },
        {
          "internalType": "uint64",
          "name": "maxSequenceTimestamp",
          "type": "uint64"
        },
        {
          "internalType": "uint256",
          "name": "currentSequenceNumber",
          "type": "uint256"
        },
        {
          "internalType": "address",
          "name": "l2Coinbase",
          "type": "address"
        }
      ],
      "name": "sequenceBatches",
      "outputs": [],
      "stateMutability": "nonpayable",
      "type": "function"
    },
    {
      "inputs": [
        {
          "components": [
            {
              "internalType": "bytes32",
              "name": "transactionsHash",
              "type": "bytes32"
            },
            {
              "internalType": "bytes32",
              "name": "forcedGlobalExitRoot",
              "type": "bytes32"
            },
            {
              "internalType": "uint64",
              "name": "forcedTimestamp",
              "type": "uint64"
            },
            {
              "internalType": "bytes32",
              "name": "forcedBlockHashL1",
              "type": "bytes32"
            }
          ],
          "internalType": "struct PolygonValidiumEtrog.ValidiumBatchData[]",
          "name": "batches",
          "type": "tuple[]"
        },
        {
          "internalType": "uint64",
          "name": "maxSequenceTimestamp",
          "type": "uint64"
        },
        {
          "internalType": "uint256",
          "name": "currentSequenceNumber",
          "type": "uint256"
        },
        {
          "internalType": "address",
          "name": "l2Coinbase",
          "type": "address"
        },
        {
          "internalType": "bytes",
          "name": "dataAvailabilityMessage",
          "type": "bytes"
        }
      ],
      "name": "sequenceBatchesValidium",
      "outputs": [],
      "stateMutability": "nonpayable",
      "type": "function"
    },
    {
      "inputs": [
        {
          "components": [
            {
              "internalType": "bytes",
              "name": "transactions",
              "type": "bytes"
            },
            {
              "internalType": "bytes32",
              "name": "forcedGlobalExitRoot",
              "type": "bytes32"
            },
            {
              "internalType": "uint64",
              "name": "forcedTimestamp",
              "type": "uint64"
            },
            {
              "internalType": "bytes32",
              "name": "forcedBlockHashL1",
              "type": "bytes32"
            }
          ],
          "internalType": "struct PolygonRollupBaseEtrog.BatchData[]",
          "name": "batches",
          "type": "tuple[]"
        }
      ],
      "name": "sequenceForceBatches",
      "outputs": [],
      "stateMutability": "nonpayable",
      "type": "function"
    },
    {
      "inputs": [],
      "name": "sequenceNumber",
      "outputs": [
        {
          "internalType": "uint256",
          "name": "",
          "type": "uint256"
        }
      ],
      "stateMutability": "view",
      "type": "function"
    },
    {
      "inputs": [
        {
          "internalType": "contract IDataAvailabilityProtocol",
          "name": "newDataAvailabilityProtocol",
          "type": "address"
        }
      ],
      "name": "setDataAvailabilityProtocol",
      "outputs": [],
      "stateMutability": "nonpayable",
      "type": "function"
    },
    {
      "inputs": [
        {
          "internalType": "address",
          "name": "newForceBatchAddress",
          "type": "address"
        }
      ],
      "name": "setForceBatchAddress",
      "outputs": [],
      "stateMutability": "nonpayable",
      "type": "function"
    },
    {
      "inputs": [
        {
          "internalType": "uint64",
          "name": "newforceBatchTimeout",
          "type": "uint64"
        }
      ],
      "name": "setForceBatchTimeout",
      "outputs": [],
      "stateMutability": "nonpayable",
      "type": "function"
    },
    {
      "inputs": [
        {
          "internalType": "address",
          "name": "newTrustedSequencer",
          "type": "address"
        }
      ],
      "name": "setTrustedSequencer",
      "outputs": [],
      "stateMutability": "nonpayable",
      "type": "function"
    },
    {
      "inputs": [
        {
          "internalType": "string",
          "name": "newTrustedSequencerURL",
          "type": "string"
        }
      ],
      "name": "setTrustedSequencerURL",
      "outputs": [],
      "stateMutability": "nonpayable",
      "type": "function"
    },
    {
      "inputs": [
        {
          "internalType": "bool",
          "name": "newIsSequenceWithDataAvailabilityAllowed",
          "type": "bool"
        }
      ],
      "name": "switchSequenceWithDataAvailability",
      "outputs": [],
      "stateMutability": "nonpayable",
      "type": "function"
    },
    {
      "inputs": [
        {
          "internalType": "address",
          "name": "newPendingAdmin",
          "type": "address"
        }
      ],
      "name": "transferAdminRole",
      "outputs": [],
      "stateMutability": "nonpayable",
      "type": "function"
    },
    {
      "inputs": [],
      "name": "trustedSequencer",
      "outputs": [
        {
          "internalType": "address",
          "name": "",
          "type": "address"
        }
      ],
      "stateMutability": "view",
      "type": "function"
    },
    {
      "inputs": [],
      "name": "trustedSequencerURL",
      "outputs": [
        {
          "internalType": "string",
          "name": "",
          "type": "string"
        }
      ],
      "stateMutability": "view",
      "type": "function"
    }
  ],
  "bytecode": "0x61010060405234801562000011575f80fd5b50604051620050dc380380620050dc83398101604081905262000034916200006f565b6001600160a01b0393841660a052918316608052821660c0521660e052620000d4565b6001600160a01b03811681146200006c575f80fd5b50565b5f805f806080858703121562000083575f80fd5b8451620000908162000057565b6020860151909450620000a38162000057565b6040860151909350620000b68162000057565b6060860151909250620000c98162000057565b939692955090935050565b60805160a05160c05160e051614efb620001e15f395f818161056c015281816111de015281816112a5015281816112c7015281816114630152818161153b015281816116a7015281816118ef01528181611ec101528181612425015281816128740152818161292101528181612f9d0152818161306201528181613a0601528181613a7f01528181613aa10152613b4901525f818161071601528181610d1901528181611ae301528181611bb801528181612aeb01528181612bf3015261355401525f81816107d201528181610d9501528181611d38015281816131aa01526135d001525f8181610804015281816108e10152818161123101528181611373015261317f0152614efb5ff3fe608060405234801561000f575f80fd5b5060043610610319575f3560e01c80636e05d2cd116101a8578063b0afe154116100f3578063d7bc90ff1161009e578063e7a7ed0211610079578063e7a7ed0214610846578063eaeb077b1461085a578063f35dda471461086d578063f851a44014610875575f80fd5b8063d7bc90ff146107f4578063e46761c4146107ff578063e57a0b4c14610826575f80fd5b8063c89e42df116100ce578063c89e42df1461079a578063cfa8ed47146107ad578063d02103ca146107cd575f80fd5b8063b0afe1541461075e578063c754c7ed1461076a578063c7fffd4b14610792575f80fd5b806391cafe3211610153578063a3c573eb1161012e578063a3c573eb14610711578063a652f26c14610738578063ada8f9191461074b575f80fd5b806391cafe32146106d05780639e001877146106e35780639f26f840146106fe575f80fd5b80637a5460c5116101835780637a5460c5146106795780637cd76b8b146106b55780638c3d7301146106c8575f80fd5b80636e05d2cd1461064a5780636ff512cc146106535780637125702214610666575f80fd5b80633cbc795b116102685780634e4877061161021357806364ca23ef116101ee57806364ca23ef1461061a578063676870d2146106235780636b8616ce1461062b575f80fd5b80634e487706146105c357806352bdeb6d146105d6578063542028d514610612575f80fd5b80634560526711610243578063456052671461052e57806349b7b802146105675780634c21fef31461058e575f80fd5b80633cbc795b1461049157806340b5de6c146104ce57806342308fab14610526575f80fd5b806326782247116102c8578063303e64d8116102a3578063303e64d81461044b57806332c2d1531461045e5780633c351e1014610471575f80fd5b806326782247146103d35780632acdc2b6146104185780632c111c061461042b575f80fd5b80630891e781116102f85780630891e7811461039c578063107bf28c146103b157806311e892d4146103b9575f80fd5b8062d0295d1461031d578063035089631461033857806305835f3714610353575b5f80fd5b61032561089a565b6040519081526020015b60405180910390f35b610340602081565b60405161ffff909116815260200161032f565b61038f6040518060400160405280600881526020017f80808401c9c3809400000000000000000000000000000000000000000000000081525081565b60405161032f919061403a565b6103af6103aa3660046140ef565b6109a0565b005b61038f610a08565b6103c160f981565b60405160ff909116815260200161032f565b6001546103f39073ffffffffffffffffffffffffffffffffffffffff1681565b60405173ffffffffffffffffffffffffffffffffffffffff909116815260200161032f565b6103af61042636600461416b565b610a94565b6008546103f39073ffffffffffffffffffffffffffffffffffffffff1681565b6103af6104593660046141c4565b610bb2565b6103af61046c366004614286565b611539565b6009546103f39073ffffffffffffffffffffffffffffffffffffffff1681565b6009546104b99074010000000000000000000000000000000000000000900463ffffffff1681565b60405163ffffffff909116815260200161032f565b6104f57fff0000000000000000000000000000000000000000000000000000000000000081565b6040517fff00000000000000000000000000000000000000000000000000000000000000909116815260200161032f565b610325602481565b60075461054e9068010000000000000000900467ffffffffffffffff1681565b60405167ffffffffffffffff909116815260200161032f565b6103f37f000000000000000000000000000000000000000000000000000000000000000081565b603d546105b39074010000000000000000000000000000000000000000900460ff1681565b604051901515815260200161032f565b6103af6105d13660046142c5565b611608565b61038f6040518060400160405280600281526020017f80b800000000000000000000000000000000000000000000000000000000000081525081565b61038f611817565b610325600a5481565b610340601f81565b6103256106393660046142c5565b60066020525f908152604090205481565b61032560055481565b6103af6106613660046142e0565b611824565b6103af610674366004614448565b6118ed565b61038f6040518060400160405280600281526020017f80b900000000000000000000000000000000000000000000000000000000000081525081565b6103af6106c33660046142e0565b6120f6565b6103af6121bf565b6103af6106de3660046142e0565b612291565b6103f373a40d5f56745a118d0906a34e69aec8c0db1cb8fa81565b6103af61070c3660046144ef565b6123a9565b6103f37f000000000000000000000000000000000000000000000000000000000000000081565b61038f61074636600461452e565b6129ed565b6103af6107593660046142e0565b612dcb565b6103256405ca1ab1e081565b60075461054e90700100000000000000000000000000000000900467ffffffffffffffff1681565b6103c160e481565b6103af6107a836600461459f565b612e94565b6002546103f39073ffffffffffffffffffffffffffffffffffffffff1681565b6103f37f000000000000000000000000000000000000000000000000000000000000000081565b610325635ca1ab1e81565b6103f37f000000000000000000000000000000000000000000000000000000000000000081565b603d546103f39073ffffffffffffffffffffffffffffffffffffffff1681565b60075461054e9067ffffffffffffffff1681565b6103af6108683660046145d1565b612f26565b6103c1601b81565b5f546103f39062010000900473ffffffffffffffffffffffffffffffffffffffff1681565b6040517f70a082310000000000000000000000000000000000000000000000000000000081523060048201525f90819073ffffffffffffffffffffffffffffffffffffffff7f000000000000000000000000000000000000000000000000000000000000000016906370a0823190602401602060405180830381865afa158015610926573d5f803e3d5ffd5b505050506040513d601f19601f8201168201806040525081019061094a9190614619565b6007549091505f906109749067ffffffffffffffff6801000000000000000082048116911661465d565b67ffffffffffffffff169050805f0361098f575f9250505090565b6109998183614685565b9250505090565b603d5474010000000000000000000000000000000000000000900460ff166109f4576040517f821935b400000000000000000000000000000000000000000000000000000000815260040160405180910390fd5b610a0185858585856133ed565b5050505050565b60048054610a15906146bd565b80601f0160208091040260200160405190810160405280929190818152602001828054610a41906146bd565b8015610a8c5780601f10610a6357610100808354040283529160200191610a8c565b820191905f5260205f20905b815481529060010190602001808311610a6f57829003601f168201915b505050505081565b5f5462010000900473ffffffffffffffffffffffffffffffffffffffff163314610aea576040517f4755657900000000000000000000000000000000000000000000000000000000815260040160405180910390fd5b603d5474010000000000000000000000000000000000000000900460ff16151581151503610b44576040517f5f0e7abe00000000000000000000000000000000000000000000000000000000815260040160405180910390fd5b603d80547fffffffffffffffffffffff00ffffffffffffffffffffffffffffffffffffffff1674010000000000000000000000000000000000000000831515021790556040517ff32a0473f809a720a4f8af1e50d353f1caf7452030626fdaac4273f5e6587f41905f90a150565b60025473ffffffffffffffffffffffffffffffffffffffff163314610c03576040517f11e7be1500000000000000000000000000000000000000000000000000000000815260040160405180910390fd5b855f819003610c3e576040517fcb591a5f00000000000000000000000000000000000000000000000000000000815260040160405180910390fd5b6103e8811115610c7a576040517fb59f753a00000000000000000000000000000000000000000000000000000000815260040160405180910390fd5b84600a5414610cb5576040517f5649dbdf00000000000000000000000000000000000000000000000000000000815260040160405180910390fd5b610cc060244261470e565b8667ffffffffffffffff161115610d03576040517f0a00feb300000000000000000000000000000000000000000000000000000000815260040160405180910390fd5b600a8054905f610d1283614727565b91905055507f000000000000000000000000000000000000000000000000000000000000000073ffffffffffffffffffffffffffffffffffffffff166379e2cf976040518163ffffffff1660e01b81526004015f604051808303815f87803b158015610d7c575f80fd5b505af1158015610d8e573d5f803e3d5ffd5b505050505f7f000000000000000000000000000000000000000000000000000000000000000073ffffffffffffffffffffffffffffffffffffffff16635ca1e1656040518163ffffffff1660e01b8152600401602060405180830381865afa158015610dfc573d5f803e3d5ffd5b505050506040513d601f19601f82011682018060405250810190610e209190614619565b60075460055491925068010000000000000000900467ffffffffffffffff1690815f805b86811015611151575f8e8e83818110610e5f57610e5f61475e565b905060800201803603810190610e75919061478b565b604081015190915067ffffffffffffffff16156110625785610e96816147d7565b9650505f815f0151826020015183604001518460600151604051602001610efb9493929190938452602084019290925260c01b7fffffffffffffffff000000000000000000000000000000000000000000000000166040830152604882015260680190565b604080517fffffffffffffffffffffffffffffffffffffffffffffffffffffffffffffffe0818403018152918152815160209283012067ffffffffffffffff8a165f90815260069093529120549091508114610f83576040517fce3d755e00000000000000000000000000000000000000000000000000000000815260040160405180910390fd5b85825f0151836020015184604001518f866060015160405160200161101c969594939291909586526020860194909452604085019290925260c01b7fffffffffffffffff000000000000000000000000000000000000000000000000166060808501919091521b7fffffffffffffffffffffffffffffffffffffffff000000000000000000000000166068830152607c820152609c0190565b60405160208183030381529060405280519060200120955060065f8867ffffffffffffffff1667ffffffffffffffff1681526020019081526020015f205f90555061113e565b805160405161107e918591602001918252602082015260400190565b60405160208183030381529060405280519060200120925084815f0151888f8e5f801b604051602001611125969594939291909586526020860194909452604085019290925260c01b7fffffffffffffffff000000000000000000000000000000000000000000000000166060808501919091521b7fffffffffffffffffffffffffffffffffffffffff000000000000000000000000166068830152607c820152609c0190565b6040516020818303038152906040528051906020012094505b508061114981614727565b915050610e44565b5060075467ffffffffffffffff908116908516111561119c576040517fc630a00d00000000000000000000000000000000000000000000000000000000815260040160405180910390fd5b60058390558567ffffffffffffffff85811690841614611299575f6111c1848761465d565b90506111d767ffffffffffffffff8216836147fd565b91506112587f00000000000000000000000000000000000000000000000000000000000000008267ffffffffffffffff1661121061089a565b61121a9190614810565b73ffffffffffffffffffffffffffffffffffffffff7f0000000000000000000000000000000000000000000000000000000000000000169190613c1c565b50600780547fffffffffffffffffffffffffffffffff0000000000000000ffffffffffffffff166801000000000000000067ffffffffffffffff8816021790555b80156114225761139b337f0000000000000000000000000000000000000000000000000000000000000000837f000000000000000000000000000000000000000000000000000000000000000073ffffffffffffffffffffffffffffffffffffffff1663477fa2706040518163ffffffff1660e01b8152600401602060405180830381865afa15801561132e573d5f803e3d5ffd5b505050506040513d601f19601f820116820180604052508101906113529190614619565b61135c9190614810565b73ffffffffffffffffffffffffffffffffffffffff7f000000000000000000000000000000000000000000000000000000000000000016929190613cf5565b603d546040517f3b51be4b00000000000000000000000000000000000000000000000000000000815273ffffffffffffffffffffffffffffffffffffffff90911690633b51be4b906113f59085908d908d9060040161486e565b5f6040518083038186803b15801561140b575f80fd5b505afa15801561141d573d5f803e3d5ffd5b505050505b6040517f9a908e7300000000000000000000000000000000000000000000000000000000815267ffffffffffffffff88166004820152602481018590525f907f000000000000000000000000000000000000000000000000000000000000000073ffffffffffffffffffffffffffffffffffffffff1690639a908e73906044016020604051808303815f875af11580156114be573d5f803e3d5ffd5b505050506040513d601f19601f820116820180604052508101906114e29190614890565b90508067ffffffffffffffff167f3e54d0825ed78523037d00a81759237eb436ce774bd546993ee67a1b67b6e7668860405161152091815260200190565b60405180910390a2505050505050505050505050505050565b7f000000000000000000000000000000000000000000000000000000000000000073ffffffffffffffffffffffffffffffffffffffff1633146115a8576040517fb9b3a2c800000000000000000000000000000000000000000000000000000000815260040160405180910390fd5b8073ffffffffffffffffffffffffffffffffffffffff168367ffffffffffffffff167f9c72852172521097ba7e1482e6b44b351323df0155f97f4ea18fcec28e1f5966846040516115fb91815260200190565b60405180910390a3505050565b5f5462010000900473ffffffffffffffffffffffffffffffffffffffff16331461165e576040517f4755657900000000000000000000000000000000000000000000000000000000815260040160405180910390fd5b62093a8067ffffffffffffffff821611156116a5576040517ff5e37f2f00000000000000000000000000000000000000000000000000000000815260040160405180910390fd5b7f000000000000000000000000000000000000000000000000000000000000000073ffffffffffffffffffffffffffffffffffffffff166315064c966040518163ffffffff1660e01b8152600401602060405180830381865afa15801561170e573d5f803e3d5ffd5b505050506040513d601f19601f8201168201806040525081019061173291906148ab565b6117935760075467ffffffffffffffff700100000000000000000000000000000000909104811690821610611793576040517ff5e37f2f00000000000000000000000000000000000000000000000000000000815260040160405180910390fd5b600780547fffffffffffffffff0000000000000000ffffffffffffffffffffffffffffffff1670010000000000000000000000000000000067ffffffffffffffff8416908102919091179091556040519081527fa7eb6cb8a613eb4e8bddc1ac3d61ec6cf10898760f0b187bcca794c6ca6fa40b906020015b60405180910390a150565b60038054610a15906146bd565b5f5462010000900473ffffffffffffffffffffffffffffffffffffffff16331461187a576040517f4755657900000000000000000000000000000000000000000000000000000000815260040160405180910390fd5b600280547fffffffffffffffffffffffff00000000000000000000000000000000000000001673ffffffffffffffffffffffffffffffffffffffff83169081179091556040519081527ff54144f9611984021529f814a1cb6a41e22c58351510a0d9f7e822618abb9cc09060200161180c565b7f000000000000000000000000000000000000000000000000000000000000000073ffffffffffffffffffffffffffffffffffffffff16331461195c576040517fb9b3a2c800000000000000000000000000000000000000000000000000000000815260040160405180910390fd5b5f54610100900460ff161580801561197a57505f54600160ff909116105b806119935750303b15801561199357505f5460ff166001145b611a24576040517f08c379a000000000000000000000000000000000000000000000000000000000815260206004820152602e60248201527f496e697469616c697a61626c653a20636f6e747261637420697320616c72656160448201527f647920696e697469616c697a656400000000000000000000000000000000000060648201526084015b60405180910390fd5b5f80547fffffffffffffffffffffffffffffffffffffffffffffffffffffffffffffff001660011790558015611a80575f80547fffffffffffffffffffffffffffffffffffffffffffffffffffffffffffff00ff166101001790555b606073ffffffffffffffffffffffffffffffffffffffff851615611cdd576040517fc00f14ab00000000000000000000000000000000000000000000000000000000815273ffffffffffffffffffffffffffffffffffffffff86811660048301527f0000000000000000000000000000000000000000000000000000000000000000169063c00f14ab906024015f60405180830381865afa158015611b27573d5f803e3d5ffd5b505050506040513d5f823e601f3d9081017fffffffffffffffffffffffffffffffffffffffffffffffffffffffffffffffe0168201604052611b6c91908101906148c6565b6040517f318aee3d00000000000000000000000000000000000000000000000000000000815273ffffffffffffffffffffffffffffffffffffffff87811660048301529192505f9182917f00000000000000000000000000000000000000000000000000000000000000009091169063318aee3d906024016040805180830381865afa158015611bfe573d5f803e3d5ffd5b505050506040513d601f19601f82011682018060405250810190611c22919061492f565b915091508163ffffffff165f14611c99576009805463ffffffff841674010000000000000000000000000000000000000000027fffffffffffffffff00000000000000000000000000000000000000000000000090911673ffffffffffffffffffffffffffffffffffffffff841617179055611cda565b600980547fffffffffffffffffffffffff00000000000000000000000000000000000000001673ffffffffffffffffffffffffffffffffffffffff89161790555b50505b6009545f90611d2490889073ffffffffffffffffffffffffffffffffffffffff81169074010000000000000000000000000000000000000000900463ffffffff16856129ed565b90505f818051906020012090505f4290505f7f000000000000000000000000000000000000000000000000000000000000000073ffffffffffffffffffffffffffffffffffffffff16633ed691ef6040518163ffffffff1660e01b8152600401602060405180830381865afa158015611d9f573d5f803e3d5ffd5b505050506040513d601f19601f82011682018060405250810190611dc39190614619565b90505f808483858f611dd66001436147fd565b60408051602081019790975286019490945260608086019390935260c09190911b7fffffffffffffffff000000000000000000000000000000000000000000000000166080850152901b7fffffffffffffffffffffffffffffffffffffffff00000000000000000000000016608883015240609c82015260bc01604080518083037fffffffffffffffffffffffffffffffffffffffffffffffffffffffffffffffe001815290829052805160209091012060058190557f9a908e73000000000000000000000000000000000000000000000000000000008252600160048301526024820181905291507f000000000000000000000000000000000000000000000000000000000000000073ffffffffffffffffffffffffffffffffffffffff1690639a908e73906044016020604051808303815f875af1158015611f1c573d5f803e3d5ffd5b505050506040513d601f19601f82011682018060405250810190611f409190614890565b508c5f60026101000a81548173ffffffffffffffffffffffffffffffffffffffff021916908373ffffffffffffffffffffffffffffffffffffffff1602179055508b60025f6101000a81548173ffffffffffffffffffffffffffffffffffffffff021916908373ffffffffffffffffffffffffffffffffffffffff1602179055508860039081611fd091906149ac565b506004611fdd89826149ac565b508c60085f6101000a81548173ffffffffffffffffffffffffffffffffffffffff021916908373ffffffffffffffffffffffffffffffffffffffff16021790555062069780600760106101000a81548167ffffffffffffffff021916908367ffffffffffffffff1602179055507f060116213bcbf54ca19fd649dc84b59ab2bbd200ab199770e4d923e222a28e7f85838e60405161207d93929190614ac4565b60405180910390a150505050505080156120ed575f80547fffffffffffffffffffffffffffffffffffffffffffffffffffffffffffff00ff169055604051600181527f7f26b83ff96e1f2b6a682f133852f6798a09c465da95921460cefb38474024989060200160405180910390a15b50505050505050565b5f5462010000900473ffffffffffffffffffffffffffffffffffffffff16331461214c576040517f4755657900000000000000000000000000000000000000000000000000000000815260040160405180910390fd5b603d80547fffffffffffffffffffffffff00000000000000000000000000000000000000001673ffffffffffffffffffffffffffffffffffffffff83169081179091556040519081527fd331bd4c4cd1afecb94a225184bded161ff3213624ba4fb58c4f30c5a861144a9060200161180c565b60015473ffffffffffffffffffffffffffffffffffffffff163314612210576040517fd1ec4b2300000000000000000000000000000000000000000000000000000000815260040160405180910390fd5b6001545f80547fffffffffffffffffffff0000000000000000000000000000000000000000ffff1673ffffffffffffffffffffffffffffffffffffffff9092166201000081029290921790556040519081527f056dc487bbf0795d0bbb1b4f0af523a855503cff740bfb4d5475f7a90c091e8e9060200160405180910390a1565b5f5462010000900473ffffffffffffffffffffffffffffffffffffffff1633146122e7576040517f4755657900000000000000000000000000000000000000000000000000000000815260040160405180910390fd5b60085473ffffffffffffffffffffffffffffffffffffffff16612336576040517fc89374d800000000000000000000000000000000000000000000000000000000815260040160405180910390fd5b600880547fffffffffffffffffffffffff00000000000000000000000000000000000000001673ffffffffffffffffffffffffffffffffffffffff83169081179091556040519081527f5fbd7dd171301c4a1611a84aac4ba86d119478560557755f7927595b082634fb9060200161180c565b60085473ffffffffffffffffffffffffffffffffffffffff1680158015906123e7575073ffffffffffffffffffffffffffffffffffffffff81163314155b1561241e576040517f24eff8c300000000000000000000000000000000000000000000000000000000815260040160405180910390fd5b4262093a807f000000000000000000000000000000000000000000000000000000000000000073ffffffffffffffffffffffffffffffffffffffff166330c27dde6040518163ffffffff1660e01b8152600401602060405180830381865afa15801561248c573d5f803e3d5ffd5b505050506040513d601f19601f820116820180604052508101906124b09190614890565b6124ba9190614b02565b67ffffffffffffffff1611156124fc576040517f3d49ed4c00000000000000000000000000000000000000000000000000000000815260040160405180910390fd5b815f819003612537576040517fcb591a5f00000000000000000000000000000000000000000000000000000000815260040160405180910390fd5b6103e8811115612573576040517fb59f753a00000000000000000000000000000000000000000000000000000000815260040160405180910390fd5b60075467ffffffffffffffff8082169161259b9184916801000000000000000090041661470e565b11156125d3576040517fc630a00d00000000000000000000000000000000000000000000000000000000815260040160405180910390fd5b6007546005546801000000000000000090910467ffffffffffffffff16905f5b8381101561286e575f87878381811061260e5761260e61475e565b90506020028101906126209190614b23565b61262990614b5f565b905083612635816147d7565b825180516020918201208185015160408087015160608801519151959a509295505f946126a1948794929101938452602084019290925260c01b7fffffffffffffffff000000000000000000000000000000000000000000000000166040830152604882015260680190565b604080517fffffffffffffffffffffffffffffffffffffffffffffffffffffffffffffffe0818403018152918152815160209283012067ffffffffffffffff89165f90815260069093529120549091508114612729576040517fce3d755e00000000000000000000000000000000000000000000000000000000815260040160405180910390fd5b67ffffffffffffffff86165f9081526006602052604081205561274d6001886147fd565b84036127bc5742600760109054906101000a900467ffffffffffffffff16846040015161277a9190614b02565b67ffffffffffffffff1611156127bc576040517fc44a082100000000000000000000000000000000000000000000000000000000815260040160405180910390fd5b60208381015160408086015160608088015183519586018b90529285018790528481019390935260c01b7fffffffffffffffff0000000000000000000000000000000000000000000000001660808401523390911b7fffffffffffffffffffffffffffffffffffffffff000000000000000000000000166088830152609c82015260bc01604051602081830303815290604052805190602001209450505050808061286690614727565b9150506125f3565b5061289c7f00000000000000000000000000000000000000000000000000000000000000008461121061089a565b60058190556007805467ffffffffffffffff841668010000000000000000027fffffffffffffffffffffffffffffffff0000000000000000ffffffffffffffff9091161790556040517f9a908e730000000000000000000000000000000000000000000000000000000081525f9073ffffffffffffffffffffffffffffffffffffffff7f00000000000000000000000000000000000000000000000000000000000000001690639a908e739061296d908790869060040167ffffffffffffffff929092168252602082015260400190565b6020604051808303815f875af1158015612989573d5f803e3d5ffd5b505050506040513d601f19601f820116820180604052508101906129ad9190614890565b60405190915067ffffffffffffffff8216907f648a61dd2438f072f5a1960939abd30f37aea80d2e94c9792ad142d3e0a490a4905f90a250505050505050565b60605f85858573a40d5f56745a118d0906a34e69aec8c0db1cb8fa5f87604051602401612a1f96959493929190614bca565b604080517fffffffffffffffffffffffffffffffffffffffffffffffffffffffffffffffe08184030181529190526020810180517bffffffffffffffffffffffffffffffffffffffffffffffffffffffff167ff811bff70000000000000000000000000000000000000000000000000000000017905283519091506060905f03612b6f5760f9601f8351612ab39190614c2c565b6040518060400160405280600881526020017f80808401c9c380940000000000000000000000000000000000000000000000008152507f00000000000000000000000000000000000000000000000000000000000000006040518060400160405280600281526020017f80b800000000000000000000000000000000000000000000000000000000000081525060e487604051602001612b599796959493929190614c47565b6040516020818303038152906040529050612c73565b815161ffff1015612bac576040517f248b8f8200000000000000000000000000000000000000000000000000000000815260040160405180910390fd5b815160f9612bbb602083614c2c565b6040518060400160405280600881526020017f80808401c9c380940000000000000000000000000000000000000000000000008152507f00000000000000000000000000000000000000000000000000000000000000006040518060400160405280600281526020017f80b90000000000000000000000000000000000000000000000000000000000008152508588604051602001612c609796959493929190614d29565b6040516020818303038152906040529150505b8051602080830191909120604080515f80825293810180835292909252601b908201526405ca1ab1e06060820152635ca1ab1e608082015260019060a0016020604051602081039080840390855afa158015612cd1573d5f803e3d5ffd5b50506040517fffffffffffffffffffffffffffffffffffffffffffffffffffffffffffffffe0015191505073ffffffffffffffffffffffffffffffffffffffff8116612d49576040517fcd16196600000000000000000000000000000000000000000000000000000000815260040160405180910390fd5b6040515f90612d8e9084906405ca1ab1e090635ca1ab1e90601b907fff0000000000000000000000000000000000000000000000000000000000000090602001614e0b565b604080517fffffffffffffffffffffffffffffffffffffffffffffffffffffffffffffffe08184030181529190529450505050505b949350505050565b5f5462010000900473ffffffffffffffffffffffffffffffffffffffff163314612e21576040517f4755657900000000000000000000000000000000000000000000000000000000815260040160405180910390fd5b600180547fffffffffffffffffffffffff00000000000000000000000000000000000000001673ffffffffffffffffffffffffffffffffffffffff83169081179091556040519081527fa5b56b7906fd0a20e3f35120dd8343db1e12e037a6c90111c7e42885e82a1ce69060200161180c565b5f5462010000900473ffffffffffffffffffffffffffffffffffffffff163314612eea576040517f4755657900000000000000000000000000000000000000000000000000000000815260040160405180910390fd5b6003612ef682826149ac565b507f6b8f723a4c7a5335cafae8a598a0aa0301be1387c037dccc085b62add6448b208160405161180c919061403a565b60085473ffffffffffffffffffffffffffffffffffffffff168015801590612f64575073ffffffffffffffffffffffffffffffffffffffff81163314155b15612f9b576040517f24eff8c300000000000000000000000000000000000000000000000000000000815260040160405180910390fd5b7f000000000000000000000000000000000000000000000000000000000000000073ffffffffffffffffffffffffffffffffffffffff166315064c966040518163ffffffff1660e01b8152600401602060405180830381865afa158015613004573d5f803e3d5ffd5b505050506040513d601f19601f8201168201806040525081019061302891906148ab565b1561305f576040517f39258d1800000000000000000000000000000000000000000000000000000000815260040160405180910390fd5b5f7f000000000000000000000000000000000000000000000000000000000000000073ffffffffffffffffffffffffffffffffffffffff1663604691696040518163ffffffff1660e01b8152600401602060405180830381865afa1580156130c9573d5f803e3d5ffd5b505050506040513d601f19601f820116820180604052508101906130ed9190614619565b905082811115613129576040517f2354600f00000000000000000000000000000000000000000000000000000000815260040160405180910390fd5b611388841115613165576040517fa29a6c7c00000000000000000000000000000000000000000000000000000000815260040160405180910390fd5b6131a773ffffffffffffffffffffffffffffffffffffffff7f000000000000000000000000000000000000000000000000000000000000000016333084613cf5565b5f7f000000000000000000000000000000000000000000000000000000000000000073ffffffffffffffffffffffffffffffffffffffff16633ed691ef6040518163ffffffff1660e01b8152600401602060405180830381865afa158015613211573d5f803e3d5ffd5b505050506040513d601f19601f820116820180604052508101906132359190614619565b6007805491925067ffffffffffffffff909116905f613253836147d7565b91906101000a81548167ffffffffffffffff021916908367ffffffffffffffff16021790555050858560405161328a929190614e66565b60405190819003902081426132a06001436147fd565b60408051602081019590955284019290925260c01b7fffffffffffffffff000000000000000000000000000000000000000000000000166060830152406068820152608801604080517fffffffffffffffffffffffffffffffffffffffffffffffffffffffffffffffe0818403018152918152815160209283012060075467ffffffffffffffff165f9081526006909352912055323303613396576007546040805183815233602082015260608183018190525f90820152905167ffffffffffffffff909216917ff94bb37db835f1ab585ee00041849a09b12cd081d77fa15ca070757619cbc9319181900360800190a26133e5565b60075460405167ffffffffffffffff909116907ff94bb37db835f1ab585ee00041849a09b12cd081d77fa15ca070757619cbc931906133dc90849033908b908b90614e75565b60405180910390a25b505050505050565b60025473ffffffffffffffffffffffffffffffffffffffff16331461343e576040517f11e7be1500000000000000000000000000000000000000000000000000000000815260040160405180910390fd5b835f819003613479576040517fcb591a5f00000000000000000000000000000000000000000000000000000000815260040160405180910390fd5b6103e88111156134b5576040517fb59f753a00000000000000000000000000000000000000000000000000000000815260040160405180910390fd5b82600a54146134f0576040517f5649dbdf00000000000000000000000000000000000000000000000000000000815260040160405180910390fd5b6134fb60244261470e565b8467ffffffffffffffff16111561353e576040517f0a00feb300000000000000000000000000000000000000000000000000000000815260040160405180910390fd5b600a8054905f61354d83614727565b91905055507f000000000000000000000000000000000000000000000000000000000000000073ffffffffffffffffffffffffffffffffffffffff166379e2cf976040518163ffffffff1660e01b81526004015f604051808303815f87803b1580156135b7575f80fd5b505af11580156135c9573d5f803e3d5ffd5b505050505f7f000000000000000000000000000000000000000000000000000000000000000073ffffffffffffffffffffffffffffffffffffffff16635ca1e1656040518163ffffffff1660e01b8152600401602060405180830381865afa158015613637573d5f803e3d5ffd5b505050506040513d601f19601f8201168201806040525081019061365b9190614619565b60075460055491925068010000000000000000900467ffffffffffffffff1690815f5b85811015613979575f8b8b838181106136995761369961475e565b90506020028101906136ab9190614b23565b6136b490614b5f565b8051805160209091012060408201519192509067ffffffffffffffff161561389457856136e0816147d7565b9650505f818360200151846040015185606001516040516020016137429493929190938452602084019290925260c01b7fffffffffffffffff000000000000000000000000000000000000000000000000166040830152604882015260680190565b604080517fffffffffffffffffffffffffffffffffffffffffffffffffffffffffffffffe0818403018152918152815160209283012067ffffffffffffffff8a165f908152600690935291205490915081146137ca576040517fce3d755e00000000000000000000000000000000000000000000000000000000815260040160405180910390fd5b60208381015160408086015160608088015183519586018c90529285018790528481019390935260c01b7fffffffffffffffff000000000000000000000000000000000000000000000000166080840152908c901b7fffffffffffffffffffffffffffffffffffffffff000000000000000000000000166088830152609c82015260bc0160405160208183030381529060405280519060200120955060065f8867ffffffffffffffff1667ffffffffffffffff1681526020019081526020015f205f905550613964565b8151516201d4c010156138d3576040517fa29a6c7c00000000000000000000000000000000000000000000000000000000815260040160405180910390fd5b6040805160208101879052908101829052606080820189905260c08d901b7fffffffffffffffff0000000000000000000000000000000000000000000000001660808301528a901b7fffffffffffffffffffffffffffffffffffffffff0000000000000000000000001660888201525f609c82015260bc016040516020818303038152906040528051906020012094505b5050808061397190614727565b91505061367e565b5060075467ffffffffffffffff90811690841611156139c4576040517fc630a00d00000000000000000000000000000000000000000000000000000000815260040160405180910390fd5b60058290558467ffffffffffffffff84811690831614613a79575f6139e9838661465d565b90506139ff67ffffffffffffffff8216836147fd565b9150613a387f00000000000000000000000000000000000000000000000000000000000000008267ffffffffffffffff1661121061089a565b50600780547fffffffffffffffffffffffffffffffff0000000000000000ffffffffffffffff166801000000000000000067ffffffffffffffff8716021790555b613b08337f0000000000000000000000000000000000000000000000000000000000000000837f000000000000000000000000000000000000000000000000000000000000000073ffffffffffffffffffffffffffffffffffffffff1663477fa2706040518163ffffffff1660e01b8152600401602060405180830381865afa15801561132e573d5f803e3d5ffd5b6040517f9a908e7300000000000000000000000000000000000000000000000000000000815267ffffffffffffffff87166004820152602481018490525f907f000000000000000000000000000000000000000000000000000000000000000073ffffffffffffffffffffffffffffffffffffffff1690639a908e73906044016020604051808303815f875af1158015613ba4573d5f803e3d5ffd5b505050506040513d601f19601f82011682018060405250810190613bc89190614890565b90508067ffffffffffffffff167f3e54d0825ed78523037d00a81759237eb436ce774bd546993ee67a1b67b6e76687604051613c0691815260200190565b60405180910390a2505050505050505050505050565b60405173ffffffffffffffffffffffffffffffffffffffff8316602482015260448101829052613cf09084907fa9059cbb00000000000000000000000000000000000000000000000000000000906064015b604080517fffffffffffffffffffffffffffffffffffffffffffffffffffffffffffffffe08184030181529190526020810180517bffffffffffffffffffffffffffffffffffffffffffffffffffffffff167fffffffff0000000000000000000000000000000000000000000000000000000090931692909217909152613d59565b505050565b60405173ffffffffffffffffffffffffffffffffffffffff80851660248301528316604482015260648101829052613d539085907f23b872dd0000000000000000000000000000000000000000000000000000000090608401613c6e565b50505050565b5f613dba826040518060400160405280602081526020017f5361666545524332303a206c6f772d6c6576656c2063616c6c206661696c65648152508573ffffffffffffffffffffffffffffffffffffffff16613e649092919063ffffffff16565b805190915015613cf05780806020019051810190613dd891906148ab565b613cf0576040517f08c379a000000000000000000000000000000000000000000000000000000000815260206004820152602a60248201527f5361666545524332303a204552433230206f7065726174696f6e20646964206e60448201527f6f742073756363656564000000000000000000000000000000000000000000006064820152608401611a1b565b6060612dc384845f85855f808673ffffffffffffffffffffffffffffffffffffffff168587604051613e969190614eb4565b5f6040518083038185875af1925050503d805f8114613ed0576040519150601f19603f3d011682016040523d82523d5f602084013e613ed5565b606091505b5091509150613ee687838387613ef1565b979650505050505050565b60608315613f865782515f03613f7f5773ffffffffffffffffffffffffffffffffffffffff85163b613f7f576040517f08c379a000000000000000000000000000000000000000000000000000000000815260206004820152601d60248201527f416464726573733a2063616c6c20746f206e6f6e2d636f6e74726163740000006044820152606401611a1b565b5081612dc3565b612dc38383815115613f9b5781518083602001fd5b806040517f08c379a0000000000000000000000000000000000000000000000000000000008152600401611a1b919061403a565b5f5b83811015613fe9578181015183820152602001613fd1565b50505f910152565b5f8151808452614008816020860160208601613fcf565b601f017fffffffffffffffffffffffffffffffffffffffffffffffffffffffffffffffe0169290920160200192915050565b602081525f61404c6020830184613ff1565b9392505050565b5f8083601f840112614063575f80fd5b50813567ffffffffffffffff81111561407a575f80fd5b6020830191508360208260051b8501011115614094575f80fd5b9250929050565b67ffffffffffffffff811681146140b0575f80fd5b50565b80356140be8161409b565b919050565b73ffffffffffffffffffffffffffffffffffffffff811681146140b0575f80fd5b80356140be816140c3565b5f805f805f60808688031215614103575f80fd5b853567ffffffffffffffff811115614119575f80fd5b61412588828901614053565b90965094505060208601356141398161409b565b9250604086013591506060860135614150816140c3565b809150509295509295909350565b80151581146140b0575f80fd5b5f6020828403121561417b575f80fd5b813561404c8161415e565b5f8083601f840112614196575f80fd5b50813567ffffffffffffffff8111156141ad575f80fd5b602083019150836020828501011115614094575f80fd5b5f805f805f805f60a0888a0312156141da575f80fd5b873567ffffffffffffffff808211156141f1575f80fd5b818a0191508a601f830112614204575f80fd5b813581811115614212575f80fd5b8b60208260071b8501011115614226575f80fd5b6020830199508098505061423c60208b016140b3565b965060408a0135955061425160608b016140e4565b945060808a0135915080821115614266575f80fd5b506142738a828b01614186565b989b979a50959850939692959293505050565b5f805f60608486031215614298575f80fd5b83356142a38161409b565b92506020840135915060408401356142ba816140c3565b809150509250925092565b5f602082840312156142d5575f80fd5b813561404c8161409b565b5f602082840312156142f0575f80fd5b813561404c816140c3565b63ffffffff811681146140b0575f80fd5b7f4e487b71000000000000000000000000000000000000000000000000000000005f52604160045260245ffd5b6040516080810167ffffffffffffffff8111828210171561435c5761435c61430c565b60405290565b604051601f82017fffffffffffffffffffffffffffffffffffffffffffffffffffffffffffffffe016810167ffffffffffffffff811182821017156143a9576143a961430c565b604052919050565b5f67ffffffffffffffff8211156143ca576143ca61430c565b50601f017fffffffffffffffffffffffffffffffffffffffffffffffffffffffffffffffe01660200190565b5f82601f830112614405575f80fd5b8135614418614413826143b1565b614362565b81815284602083860101111561442c575f80fd5b816020850160208301375f918101602001919091529392505050565b5f805f805f8060c0878903121561445d575f80fd5b8635614468816140c3565b95506020870135614478816140c3565b94506040870135614488816142fb565b93506060870135614498816140c3565b9250608087013567ffffffffffffffff808211156144b4575f80fd5b6144c08a838b016143f6565b935060a08901359150808211156144d5575f80fd5b506144e289828a016143f6565b9150509295509295509295565b5f8060208385031215614500575f80fd5b823567ffffffffffffffff811115614516575f80fd5b61452285828601614053565b90969095509350505050565b5f805f8060808587031215614541575f80fd5b843561454c816142fb565b9350602085013561455c816140c3565b9250604085013561456c816142fb565b9150606085013567ffffffffffffffff811115614587575f80fd5b614593878288016143f6565b91505092959194509250565b5f602082840312156145af575f80fd5b813567ffffffffffffffff8111156145c5575f80fd5b612dc3848285016143f6565b5f805f604084860312156145e3575f80fd5b833567ffffffffffffffff8111156145f9575f80fd5b61460586828701614186565b909790965060209590950135949350505050565b5f60208284031215614629575f80fd5b5051919050565b7f4e487b71000000000000000000000000000000000000000000000000000000005f52601160045260245ffd5b67ffffffffffffffff82811682821603908082111561467e5761467e614630565b5092915050565b5f826146b8577f4e487b71000000000000000000000000000000000000000000000000000000005f52601260045260245ffd5b500490565b600181811c908216806146d157607f821691505b602082108103614708577f4e487b71000000000000000000000000000000000000000000000000000000005f52602260045260245ffd5b50919050565b8082018082111561472157614721614630565b92915050565b5f7fffffffffffffffffffffffffffffffffffffffffffffffffffffffffffffffff820361475757614757614630565b5060010190565b7f4e487b71000000000000000000000000000000000000000000000000000000005f52603260045260245ffd5b5f6080828403121561479b575f80fd5b6147a3614339565b823581526020830135602082015260408301356147bf8161409b565b60408201526060928301359281019290925250919050565b5f67ffffffffffffffff8083168181036147f3576147f3614630565b6001019392505050565b8181038181111561472157614721614630565b808202811582820484141761472157614721614630565b81835281816020850137505f602082840101525f60207fffffffffffffffffffffffffffffffffffffffffffffffffffffffffffffffe0601f840116840101905092915050565b838152604060208201525f614887604083018486614827565b95945050505050565b5f602082840312156148a0575f80fd5b815161404c8161409b565b5f602082840312156148bb575f80fd5b815161404c8161415e565b5f602082840312156148d6575f80fd5b815167ffffffffffffffff8111156148ec575f80fd5b8201601f810184136148fc575f80fd5b805161490a614413826143b1565b81815285602083850101111561491e575f80fd5b614887826020830160208601613fcf565b5f8060408385031215614940575f80fd5b825161494b816142fb565b602084015190925061495c816140c3565b809150509250929050565b601f821115613cf0575f81815260208120601f850160051c8101602086101561498d5750805b601f850160051c820191505b818110156133e557828155600101614999565b815167ffffffffffffffff8111156149c6576149c661430c565b6149da816149d484546146bd565b84614967565b602080601f831160018114614a2c575f84156149f65750858301515b7fffffffffffffffffffffffffffffffffffffffffffffffffffffffffffffffff600386901b1c1916600185901b1785556133e5565b5f858152602081207fffffffffffffffffffffffffffffffffffffffffffffffffffffffffffffffe08616915b82811015614a7857888601518255948401946001909101908401614a59565b5085821015614ab457878501517fffffffffffffffffffffffffffffffffffffffffffffffffffffffffffffffff600388901b60f8161c191681555b5050505050600190811b01905550565b606081525f614ad66060830186613ff1565b905083602083015273ffffffffffffffffffffffffffffffffffffffff83166040830152949350505050565b67ffffffffffffffff81811683821601908082111561467e5761467e614630565b5f82357fffffffffffffffffffffffffffffffffffffffffffffffffffffffffffffff81833603018112614b55575f80fd5b9190910192915050565b5f60808236031215614b6f575f80fd5b614b77614339565b823567ffffffffffffffff811115614b8d575f80fd5b614b99368286016143f6565b825250602083013560208201526040830135614bb48161409b565b6040820152606092830135928101929092525090565b5f63ffffffff808916835273ffffffffffffffffffffffffffffffffffffffff8089166020850152818816604085015280871660608501528086166080850152505060c060a0830152614c2060c0830184613ff1565b98975050505050505050565b61ffff81811683821601908082111561467e5761467e614630565b5f7fff00000000000000000000000000000000000000000000000000000000000000808a60f81b1683527fffff0000000000000000000000000000000000000000000000000000000000008960f01b1660018401528751614caf816003860160208c01613fcf565b80840190507fffffffffffffffffffffffffffffffffffffffff0000000000000000000000008860601b1660038201528651614cf2816017840160208b01613fcf565b808201915050818660f81b16601782015284519150614d18826018830160208801613fcf565b016018019998505050505050505050565b7fff000000000000000000000000000000000000000000000000000000000000008860f81b1681525f7fffff000000000000000000000000000000000000000000000000000000000000808960f01b1660018401528751614d91816003860160208c01613fcf565b80840190507fffffffffffffffffffffffffffffffffffffffff0000000000000000000000008860601b1660038201528651614dd4816017840160208b01613fcf565b808201915050818660f01b16601782015284519150614dfa826019830160208801613fcf565b016019019998505050505050505050565b5f8651614e1c818460208b01613fcf565b9190910194855250602084019290925260f81b7fff000000000000000000000000000000000000000000000000000000000000009081166040840152166041820152604201919050565b818382375f9101908152919050565b84815273ffffffffffffffffffffffffffffffffffffffff84166020820152606060408201525f614eaa606083018486614827565b9695505050505050565b5f8251614b55818460208701613fcf56fea264697066735822122081667e71fdd8cb1f102dcdf064ea8eb6642d162a8e4fbeca87a2d8e004fa4faa64736f6c63430008140033",
  "linkReferences": {},
  "deployedLinkReferences": {}
}