{
  "_format": "hh-sol-artifact-1",
  "contractName": "PolygonZkEVMEtrog",
  "sourceName": "contracts/v2/consensus/zkEVM/PolygonZkEVMEtrog.sol",
  "abi": [
    {
      "inputs": [
        {
          "internalType": "contract IPolygonZkEVMGlobalExitRootV2",
          "name": "_globalExitRootManager",
          "type": "address"
        },
        {
          "internalType": "contract IERC20Upgradeable",
          "name": "_pol",
          "type": "address"
        },
        {
          "internalType": "contract IPolygonZkEVMBridgeV2",
          "name": "_bridgeAddress",
          "type": "address"
        },
        {
          "internalType": "contract PolygonRollupManager",
          "name": "_rollupManager",
          "type": "address"
        }
      ],
      "stateMutability": "nonpayable",
      "type": "constructor"
    },
    {
      "inputs": [],
      "name": "BatchAlreadyVerified",
      "type": "error"
    },
    {
      "inputs": [],
      "name": "BatchNotSequencedOrNotSequenceEnd",
      "type": "error"
    },
    {
      "inputs": [],
      "name": "ExceedMaxVerifyBatches",
      "type": "error"
    },
    {
      "inputs": [],
      "name": "FinalNumBatchBelowLastVerifiedBatch",
      "type": "error"
    },
    {
      "inputs": [],
      "name": "FinalNumBatchDoesNotMatchPendingState",
      "type": "error"
    },
    {
      "inputs": [],
      "name": "FinalPendingStateNumInvalid",
      "type": "error"
    },
    {
      "inputs": [],
      "name": "ForceBatchNotAllowed",
      "type": "error"
    },
    {
      "inputs": [],
      "name": "ForceBatchTimeoutNotExpired",
      "type": "error"
    },
    {
      "inputs": [],
      "name": "ForceBatchesAlreadyActive",
      "type": "error"
    },
    {
      "inputs": [],
      "name": "ForceBatchesDescentralized",
      "type": "error"
    },
    {
      "inputs": [],
      "name": "ForceBatchesNotAllowedOnEmergencyState",
      "type": "error"
    },
    {
      "inputs": [],
      "name": "ForceBatchesOverflow",
      "type": "error"
    },
    {
      "inputs": [],
      "name": "ForcedDataDoesNotMatch",
      "type": "error"
    },
    {
      "inputs": [],
      "name": "GasTokenNetworkMustBeZeroOnEther",
      "type": "error"
    },
    {
      "inputs": [],
      "name": "GlobalExitRootNotExist",
      "type": "error"
    },
    {
      "inputs": [],
      "name": "HaltTimeoutNotExpired",
      "type": "error"
    },
    {
      "inputs": [],
      "name": "HaltTimeoutNotExpiredAfterEmergencyState",
      "type": "error"
    },
    {
      "inputs": [],
      "name": "HugeTokenMetadataNotSupported",
      "type": "error"
    },
    {
      "inputs": [],
      "name": "InitNumBatchAboveLastVerifiedBatch",
      "type": "error"
    },
    {
      "inputs": [],
      "name": "InitNumBatchDoesNotMatchPendingState",
      "type": "error"
    },
    {
      "inputs": [],
      "name": "InvalidInitializeTransaction",
      "type": "error"
    },
    {
      "inputs": [],
      "name": "InvalidProof",
      "type": "error"
    },
    {
      "inputs": [],
      "name": "InvalidRangeBatchTimeTarget",
      "type": "error"
    },
    {
      "inputs": [],
      "name": "InvalidRangeForceBatchTimeout",
      "type": "error"
    },
    {
      "inputs": [],
      "name": "InvalidRangeMultiplierBatchFee",
      "type": "error"
    },
    {
      "inputs": [],
      "name": "NewAccInputHashDoesNotExist",
      "type": "error"
    },
    {
      "inputs": [],
      "name": "NewPendingStateTimeoutMustBeLower",
      "type": "error"
    },
    {
      "inputs": [],
      "name": "NewStateRootNotInsidePrime",
      "type": "error"
    },
    {
      "inputs": [],
      "name": "NewTrustedAggregatorTimeoutMustBeLower",
      "type": "error"
    },
    {
      "inputs": [],
      "name": "NotEnoughMaticAmount",
      "type": "error"
    },
    {
      "inputs": [],
      "name": "NotEnoughPOLAmount",
      "type": "error"
    },
    {
      "inputs": [],
      "name": "OldAccInputHashDoesNotExist",
      "type": "error"
    },
    {
      "inputs": [],
      "name": "OldStateRootDoesNotExist",
      "type": "error"
    },
    {
      "inputs": [],
      "name": "OnlyAdmin",
      "type": "error"
    },
    {
      "inputs": [],
      "name": "OnlyPendingAdmin",
      "type": "error"
    },
    {
      "inputs": [],
      "name": "OnlyRollupManager",
      "type": "error"
    },
    {
      "inputs": [],
      "name": "OnlyTrustedAggregator",
      "type": "error"
    },
    {
      "inputs": [],
      "name": "OnlyTrustedSequencer",
      "type": "error"
    },
    {
      "inputs": [],
      "name": "PendingStateDoesNotExist",
      "type": "error"
    },
    {
      "inputs": [],
      "name": "PendingStateInvalid",
      "type": "error"
    },
    {
      "inputs": [],
      "name": "PendingStateNotConsolidable",
      "type": "error"
    },
    {
      "inputs": [],
      "name": "PendingStateTimeoutExceedHaltAggregationTimeout",
      "type": "error"
    },
    {
      "inputs": [],
      "name": "SequenceZeroBatches",
      "type": "error"
    },
    {
      "inputs": [],
      "name": "SequencedTimestampBelowForcedTimestamp",
      "type": "error"
    },
    {
      "inputs": [],
      "name": "SequencedTimestampInvalid",
      "type": "error"
    },
    {
      "inputs": [],
      "name": "StoredRootMustBeDifferentThanNewRoot",
      "type": "error"
    },
    {
      "inputs": [],
      "name": "TransactionsLengthAboveMax",
      "type": "error"
    },
    {
      "inputs": [],
      "name": "TrustedAggregatorTimeoutExceedHaltAggregationTimeout",
      "type": "error"
    },
    {
      "inputs": [],
      "name": "TrustedAggregatorTimeoutNotExpired",
      "type": "error"
    },
    {
      "anonymous": false,
      "inputs": [
        {
          "indexed": false,
          "internalType": "address",
          "name": "newAdmin",
          "type": "address"
        }
      ],
      "name": "AcceptAdminRole",
      "type": "event"
    },
    {
      "anonymous": false,
      "inputs": [
        {
          "indexed": true,
          "internalType": "uint64",
          "name": "forceBatchNum",
          "type": "uint64"
        },
        {
          "indexed": false,
          "internalType": "bytes32",
          "name": "lastGlobalExitRoot",
          "type": "bytes32"
        },
        {
          "indexed": false,
          "internalType": "address",
          "name": "sequencer",
          "type": "address"
        },
        {
          "indexed": false,
          "internalType": "bytes",
          "name": "transactions",
          "type": "bytes"
        }
      ],
      "name": "ForceBatch",
      "type": "event"
    },
    {
      "anonymous": false,
      "inputs": [
        {
          "indexed": false,
          "internalType": "bytes",
          "name": "transactions",
          "type": "bytes"
        },
        {
          "indexed": false,
          "internalType": "bytes32",
          "name": "lastGlobalExitRoot",
          "type": "bytes32"
        },
        {
          "indexed": false,
          "internalType": "address",
          "name": "sequencer",
          "type": "address"
        }
      ],
      "name": "InitialSequenceBatches",
      "type": "event"
    },
    {
      "anonymous": false,
      "inputs": [
        {
          "indexed": false,
          "internalType": "uint8",
          "name": "version",
          "type": "uint8"
        }
      ],
      "name": "Initialized",
      "type": "event"
    },
    {
      "anonymous": false,
      "inputs": [
        {
          "indexed": true,
          "internalType": "uint64",
          "name": "numBatch",
          "type": "uint64"
        },
        {
          "indexed": false,
          "internalType": "bytes32",
          "name": "l1InfoRoot",
          "type": "bytes32"
        }
      ],
      "name": "SequenceBatches",
      "type": "event"
    },
    {
      "anonymous": false,
      "inputs": [
        {
          "indexed": true,
          "internalType": "uint64",
          "name": "numBatch",
          "type": "uint64"
        }
      ],
      "name": "SequenceForceBatches",
      "type": "event"
    },
    {
      "anonymous": false,
      "inputs": [
        {
          "indexed": false,
          "internalType": "address",
          "name": "newForceBatchAddress",
          "type": "address"
        }
      ],
      "name": "SetForceBatchAddress",
      "type": "event"
    },
    {
      "anonymous": false,
      "inputs": [
        {
          "indexed": false,
          "internalType": "uint64",
          "name": "newforceBatchTimeout",
          "type": "uint64"
        }
      ],
      "name": "SetForceBatchTimeout",
      "type": "event"
    },
    {
      "anonymous": false,
      "inputs": [
        {
          "indexed": false,
          "internalType": "address",
          "name": "newTrustedSequencer",
          "type": "address"
        }
      ],
      "name": "SetTrustedSequencer",
      "type": "event"
    },
    {
      "anonymous": false,
      "inputs": [
        {
          "indexed": false,
          "internalType": "string",
          "name": "newTrustedSequencerURL",
          "type": "string"
        }
      ],
      "name": "SetTrustedSequencerURL",
      "type": "event"
    },
    {
      "anonymous": false,
      "inputs": [
        {
          "indexed": false,
          "internalType": "address",
          "name": "newPendingAdmin",
          "type": "address"
        }
      ],
      "name": "TransferAdminRole",
      "type": "event"
    },
    {
      "anonymous": false,
      "inputs": [
        {
          "indexed": true,
          "internalType": "uint64",
          "name": "numBatch",
          "type": "uint64"
        },
        {
          "indexed": false,
          "internalType": "bytes32",
          "name": "stateRoot",
          "type": "bytes32"
        },
        {
          "indexed": true,
          "internalType": "address",
          "name": "aggregator",
          "type": "address"
        }
      ],
      "name": "VerifyBatches",
      "type": "event"
    },
    {
      "inputs": [],
      "name": "GLOBAL_EXIT_ROOT_MANAGER_L2",
      "outputs": [
        {
          "internalType": "contract IBasePolygonZkEVMGlobalExitRoot",
          "name": "",
          "type": "address"
        }
      ],
      "stateMutability": "view",
      "type": "function"
    },
    {
      "inputs": [],
      "name": "INITIALIZE_TX_BRIDGE_LIST_LEN_LEN",
      "outputs": [
        {
          "internalType": "uint8",
          "name": "",
          "type": "uint8"
        }
      ],
      "stateMutability": "view",
      "type": "function"
    },
    {
      "inputs": [],
      "name": "INITIALIZE_TX_BRIDGE_PARAMS",
      "outputs": [
        {
          "internalType": "bytes",
          "name": "",
          "type": "bytes"
        }
      ],
      "stateMutability": "view",
      "type": "function"
    },
    {
      "inputs": [],
      "name": "INITIALIZE_TX_BRIDGE_PARAMS_AFTER_BRIDGE_ADDRESS",
      "outputs": [
        {
          "internalType": "bytes",
          "name": "",
          "type": "bytes"
        }
      ],
      "stateMutability": "view",
      "type": "function"
    },
    {
      "inputs": [],
      "name": "INITIALIZE_TX_BRIDGE_PARAMS_AFTER_BRIDGE_ADDRESS_EMPTY_METADATA",
      "outputs": [
        {
          "internalType": "bytes",
          "name": "",
          "type": "bytes"
        }
      ],
      "stateMutability": "view",
      "type": "function"
    },
    {
      "inputs": [],
      "name": "INITIALIZE_TX_CONSTANT_BYTES",
      "outputs": [
        {
          "internalType": "uint16",
          "name": "",
          "type": "uint16"
        }
      ],
      "stateMutability": "view",
      "type": "function"
    },
    {
      "inputs": [],
      "name": "INITIALIZE_TX_CONSTANT_BYTES_EMPTY_METADATA",
      "outputs": [
        {
          "internalType": "uint16",
          "name": "",
          "type": "uint16"
        }
      ],
      "stateMutability": "view",
      "type": "function"
    },
    {
      "inputs": [],
      "name": "INITIALIZE_TX_DATA_LEN_EMPTY_METADATA",
      "outputs": [
        {
          "internalType": "uint8",
          "name": "",
          "type": "uint8"
        }
      ],
      "stateMutability": "view",
      "type": "function"
    },
    {
      "inputs": [],
      "name": "INITIALIZE_TX_EFFECTIVE_PERCENTAGE",
      "outputs": [
        {
          "internalType": "bytes1",
          "name": "",
          "type": "bytes1"
        }
      ],
      "stateMutability": "view",
      "type": "function"
    },
    {
      "inputs": [],
      "name": "SIGNATURE_INITIALIZE_TX_R",
      "outputs": [
        {
          "internalType": "bytes32",
          "name": "",
          "type": "bytes32"
        }
      ],
      "stateMutability": "view",
      "type": "function"
    },
    {
      "inputs": [],
      "name": "SIGNATURE_INITIALIZE_TX_S",
      "outputs": [
        {
          "internalType": "bytes32",
          "name": "",
          "type": "bytes32"
        }
      ],
      "stateMutability": "view",
      "type": "function"
    },
    {
      "inputs": [],
      "name": "SIGNATURE_INITIALIZE_TX_V",
      "outputs": [
        {
          "internalType": "uint8",
          "name": "",
          "type": "uint8"
        }
      ],
      "stateMutability": "view",
      "type": "function"
    },
    {
      "inputs": [],
      "name": "acceptAdminRole",
      "outputs": [],
      "stateMutability": "nonpayable",
      "type": "function"
    },
    {
      "inputs": [],
      "name": "admin",
      "outputs": [
        {
          "internalType": "address",
          "name": "",
          "type": "address"
        }
      ],
      "stateMutability": "view",
      "type": "function"
    },
    {
      "inputs": [],
      "name": "bridgeAddress",
      "outputs": [
        {
          "internalType": "contract IPolygonZkEVMBridgeV2",
          "name": "",
          "type": "address"
        }
      ],
      "stateMutability": "view",
      "type": "function"
    },
    {
      "inputs": [],
      "name": "calculatePolPerForceBatch",
      "outputs": [
        {
          "internalType": "uint256",
          "name": "",
          "type": "uint256"
        }
      ],
      "stateMutability": "view",
      "type": "function"
    },
    {
      "inputs": [
        {
          "internalType": "bytes",
          "name": "transactions",
          "type": "bytes"
        },
        {
          "internalType": "uint256",
          "name": "polAmount",
          "type": "uint256"
        }
      ],
      "name": "forceBatch",
      "outputs": [],
      "stateMutability": "nonpayable",
      "type": "function"
    },
    {
      "inputs": [],
      "name": "forceBatchAddress",
      "outputs": [
        {
          "internalType": "address",
          "name": "",
          "type": "address"
        }
      ],
      "stateMutability": "view",
      "type": "function"
    },
    {
      "inputs": [],
      "name": "forceBatchTimeout",
      "outputs": [
        {
          "internalType": "uint64",
          "name": "",
          "type": "uint64"
        }
      ],
      "stateMutability": "view",
      "type": "function"
    },
    {
      "inputs": [
        {
          "internalType": "uint64",
          "name": "",
          "type": "uint64"
        }
      ],
      "name": "forcedBatches",
      "outputs": [
        {
          "internalType": "bytes32",
          "name": "",
          "type": "bytes32"
        }
      ],
      "stateMutability": "view",
      "type": "function"
    },
    {
      "inputs": [],
      "name": "gapLastTimestamp",
      "outputs": [
        {
          "internalType": "uint64",
          "name": "",
          "type": "uint64"
        }
      ],
      "stateMutability": "view",
      "type": "function"
    },
    {
      "inputs": [],
      "name": "gasTokenAddress",
      "outputs": [
        {
          "internalType": "address",
          "name": "",
          "type": "address"
        }
      ],
      "stateMutability": "view",
      "type": "function"
    },
    {
      "inputs": [],
      "name": "gasTokenNetwork",
      "outputs": [
        {
          "internalType": "uint32",
          "name": "",
          "type": "uint32"
        }
      ],
      "stateMutability": "view",
      "type": "function"
    },
    {
      "inputs": [
        {
          "internalType": "uint32",
          "name": "networkID",
          "type": "uint32"
        },
        {
          "internalType": "address",
          "name": "_gasTokenAddress",
          "type": "address"
        },
        {
          "internalType": "uint32",
          "name": "_gasTokenNetwork",
          "type": "uint32"
        },
        {
          "internalType": "bytes",
          "name": "_gasTokenMetadata",
          "type": "bytes"
        }
      ],
      "name": "generateInitializeTransaction",
      "outputs": [
        {
          "internalType": "bytes",
          "name": "",
          "type": "bytes"
        }
      ],
      "stateMutability": "view",
      "type": "function"
    },
    {
      "inputs": [],
      "name": "globalExitRootManager",
      "outputs": [
        {
          "internalType": "contract IPolygonZkEVMGlobalExitRootV2",
          "name": "",
          "type": "address"
        }
      ],
      "stateMutability": "view",
      "type": "function"
    },
    {
      "inputs": [
        {
          "internalType": "address",
          "name": "_admin",
          "type": "address"
        },
        {
          "internalType": "address",
          "name": "sequencer",
          "type": "address"
        },
        {
          "internalType": "uint32",
          "name": "networkID",
          "type": "uint32"
        },
        {
          "internalType": "address",
          "name": "_gasTokenAddress",
          "type": "address"
        },
        {
          "internalType": "string",
          "name": "sequencerURL",
          "type": "string"
        },
        {
          "internalType": "string",
          "name": "_networkName",
          "type": "string"
        }
      ],
      "name": "initialize",
      "outputs": [],
      "stateMutability": "nonpayable",
      "type": "function"
    },
    {
      "inputs": [],
      "name": "lastAccInputHash",
      "outputs": [
        {
          "internalType": "bytes32",
          "name": "",
          "type": "bytes32"
        }
      ],
      "stateMutability": "view",
      "type": "function"
    },
    {
      "inputs": [],
      "name": "lastForceBatch",
      "outputs": [
        {
          "internalType": "uint64",
          "name": "",
          "type": "uint64"
        }
      ],
      "stateMutability": "view",
      "type": "function"
    },
    {
      "inputs": [],
      "name": "lastForceBatchSequenced",
      "outputs": [
        {
          "internalType": "uint64",
          "name": "",
          "type": "uint64"
        }
      ],
      "stateMutability": "view",
      "type": "function"
    },
    {
      "inputs": [],
      "name": "networkName",
      "outputs": [
        {
          "internalType": "string",
          "name": "",
          "type": "string"
        }
      ],
      "stateMutability": "view",
      "type": "function"
    },
    {
      "inputs": [
        {
          "internalType": "uint64",
          "name": "lastVerifiedBatch",
          "type": "uint64"
        },
        {
          "internalType": "bytes32",
          "name": "newStateRoot",
          "type": "bytes32"
        },
        {
          "internalType": "address",
          "name": "aggregator",
          "type": "address"
        }
      ],
      "name": "onVerifyBatches",
      "outputs": [],
      "stateMutability": "nonpayable",
      "type": "function"
    },
    {
      "inputs": [],
      "name": "pendingAdmin",
      "outputs": [
        {
          "internalType": "address",
          "name": "",
          "type": "address"
        }
      ],
      "stateMutability": "view",
      "type": "function"
    },
    {
      "inputs": [],
      "name": "pol",
      "outputs": [
        {
          "internalType": "contract IERC20Upgradeable",
          "name": "",
          "type": "address"
        }
      ],
      "stateMutability": "view",
      "type": "function"
    },
    {
      "inputs": [],
      "name": "rollupManager",
      "outputs": [
        {
          "internalType": "contract PolygonRollupManager",
          "name": "",
          "type": "address"
        }
      ],
      "stateMutability": "view",
      "type": "function"
    },
    {
      "inputs": [
        {
          "components": [
            {
              "internalType": "bytes",
              "name": "transactions",
              "type": "bytes"
            },
            {
              "internalType": "bytes32",
              "name": "forcedGlobalExitRoot",
              "type": "bytes32"
            },
            {
              "internalType": "uint64",
              "name": "forcedTimestamp",
              "type": "uint64"
            },
            {
              "internalType": "bytes32",
              "name": "forcedBlockHashL1",
              "type": "bytes32"
            }
          ],
          "internalType": "struct PolygonRollupBaseEtrog.BatchData[]",
          "name": "batches",
          "type": "tuple[]"
        },
        {
          "internalType": "address",
          "name": "l2Coinbase",
          "type": "address"
        }
      ],
      "name": "sequenceBatches",
      "outputs": [],
      "stateMutability": "nonpayable",
      "type": "function"
    },
    {
      "inputs": [
        {
          "components": [
            {
              "internalType": "bytes",
              "name": "transactions",
              "type": "bytes"
            },
            {
              "internalType": "bytes32",
              "name": "forcedGlobalExitRoot",
              "type": "bytes32"
            },
            {
              "internalType": "uint64",
              "name": "forcedTimestamp",
              "type": "uint64"
            },
            {
              "internalType": "bytes32",
              "name": "forcedBlockHashL1",
              "type": "bytes32"
            }
          ],
          "internalType": "struct PolygonRollupBaseEtrog.BatchData[]",
          "name": "batches",
          "type": "tuple[]"
        }
      ],
      "name": "sequenceForceBatches",
      "outputs": [],
      "stateMutability": "nonpayable",
      "type": "function"
    },
    {
      "inputs": [
        {
          "internalType": "address",
          "name": "newForceBatchAddress",
          "type": "address"
        }
      ],
      "name": "setForceBatchAddress",
      "outputs": [],
      "stateMutability": "nonpayable",
      "type": "function"
    },
    {
      "inputs": [
        {
          "internalType": "uint64",
          "name": "newforceBatchTimeout",
          "type": "uint64"
        }
      ],
      "name": "setForceBatchTimeout",
      "outputs": [],
      "stateMutability": "nonpayable",
      "type": "function"
    },
    {
      "inputs": [
        {
          "internalType": "address",
          "name": "newTrustedSequencer",
          "type": "address"
        }
      ],
      "name": "setTrustedSequencer",
      "outputs": [],
      "stateMutability": "nonpayable",
      "type": "function"
    },
    {
      "inputs": [
        {
          "internalType": "string",
          "name": "newTrustedSequencerURL",
          "type": "string"
        }
      ],
      "name": "setTrustedSequencerURL",
      "outputs": [],
      "stateMutability": "nonpayable",
      "type": "function"
    },
    {
      "inputs": [
        {
          "internalType": "address",
          "name": "newPendingAdmin",
          "type": "address"
        }
      ],
      "name": "transferAdminRole",
      "outputs": [],
      "stateMutability": "nonpayable",
      "type": "function"
    },
    {
      "inputs": [],
      "name": "trustedSequencer",
      "outputs": [
        {
          "internalType": "address",
          "name": "",
          "type": "address"
        }
      ],
      "stateMutability": "view",
      "type": "function"
    },
    {
      "inputs": [],
      "name": "trustedSequencerURL",
      "outputs": [
        {
          "internalType": "string",
          "name": "",
          "type": "string"
        }
      ],
      "stateMutability": "view",
      "type": "function"
    }
  ],
  "bytecode": "0x61010060405234801562000011575f80fd5b50604051620047bd380380620047bd83398101604081905262000034916200006f565b6001600160a01b0393841660a052918316608052821660c0521660e052620000d4565b6001600160a01b03811681146200006c575f80fd5b50565b5f805f806080858703121562000083575f80fd5b8451620000908162000057565b6020860151909450620000a38162000057565b6040860151909350620000b68162000057565b6060860151909250620000c98162000057565b939692955090935050565b60805160a05160c05160e05161460d620001b05f395f81816105050152818161099101528181610afd01528181610d4d015281816112a90152818161174501528181611baf01528181611cac01528181612328015281816123ed01528181612d4101528181612dc201528181612de40152612ef901525f818161065e01528181610fa101528181611e7501528181611f7d015261287801525f8181610722015281816111200152818161253501526128f401525f81816107540152818161083001528181611bf80152818161250a0152612e90015261460d5ff3fe608060405234801561000f575f80fd5b50600436106102d7575f3560e01c80637125702211610187578063c7fffd4b116100dd578063e46761c411610093578063ecef3f991161006e578063ecef3f99146107a9578063f35dda47146107bc578063f851a440146107c4575f80fd5b8063e46761c41461074f578063e7a7ed0214610776578063eaeb077b14610796575f80fd5b8063cfa8ed47116100c3578063cfa8ed47146106fd578063d02103ca1461071d578063d7bc90ff14610744575f80fd5b8063c7fffd4b146106e2578063c89e42df146106ea575f80fd5b80639f26f8401161013d578063ada8f91911610118578063ada8f91914610693578063b0afe154146106a6578063c754c7ed146106b2575f80fd5b80639f26f84014610646578063a3c573eb14610659578063a652f26c14610680575f80fd5b80638c3d73011161016d5780638c3d73011461061057806391cafe32146106185780639e0018771461062b575f80fd5b806371257022146105c15780637a5460c5146105d4575f80fd5b80633cbc795b1161023c57806352bdeb6d116101f25780636b8616ce116101cd5780636b8616ce146105865780636e05d2cd146105a55780636ff512cc146105ae575f80fd5b806352bdeb6d1461053a578063542028d514610576578063676870d21461057e575f80fd5b8063456052671161022257806345605267146104d857806349b7b802146105005780634e48770614610527575f80fd5b80633cbc795b1461044357806340b5de6c14610480575f80fd5b806326782247116102915780632c111c06116102775780632c111c06146103ee57806332c2d1531461040e5780633c351e1014610423575f80fd5b8063267822471461037c5780632a9f208f146103c1575f80fd5b806305835f37116102c157806305835f3714610311578063107bf28c1461035a57806311e892d414610362575f80fd5b8062d0295d146102db57806303508963146102f6575b5f80fd5b6102e36107e9565b6040519081526020015b60405180910390f35b6102fe602081565b60405161ffff90911681526020016102ed565b61034d6040518060400160405280600881526020017f80808401c9c3809400000000000000000000000000000000000000000000000081525081565b6040516102ed91906138b8565b61034d610903565b61036a60f981565b60405160ff90911681526020016102ed565b60015461039c9073ffffffffffffffffffffffffffffffffffffffff1681565b60405173ffffffffffffffffffffffffffffffffffffffff90911681526020016102ed565b6007546103d59067ffffffffffffffff1681565b60405167ffffffffffffffff90911681526020016102ed565b60085461039c9073ffffffffffffffffffffffffffffffffffffffff1681565b61042161041c36600461390a565b61098f565b005b60095461039c9073ffffffffffffffffffffffffffffffffffffffff1681565b60095461046b9074010000000000000000000000000000000000000000900463ffffffff1681565b60405163ffffffff90911681526020016102ed565b6104a77fff0000000000000000000000000000000000000000000000000000000000000081565b6040517fff0000000000000000000000000000000000000000000000000000000000000090911681526020016102ed565b6007546103d590700100000000000000000000000000000000900467ffffffffffffffff1681565b61039c7f000000000000000000000000000000000000000000000000000000000000000081565b610421610535366004613949565b610a5e565b61034d6040518060400160405280600281526020017f80b800000000000000000000000000000000000000000000000000000000000081525081565b61034d610c75565b6102fe601f81565b6102e3610594366004613949565b60066020525f908152604090205481565b6102e360055481565b6104216105bc366004613964565b610c82565b6104216105cf366004613aa3565b610d4b565b61034d6040518060400160405280600281526020017f80b900000000000000000000000000000000000000000000000000000000000081525081565b6104216114de565b610421610626366004613964565b6115b0565b61039c73a40d5f56745a118d0906a34e69aec8c0db1cb8fa81565b610421610654366004613b92565b6116c8565b61039c7f000000000000000000000000000000000000000000000000000000000000000081565b61034d61068e366004613bd1565b611d77565b6104216106a1366004613964565b612155565b6102e36405ca1ab1e081565b6007546103d5907801000000000000000000000000000000000000000000000000900467ffffffffffffffff1681565b61036a60e481565b6104216106f8366004613c42565b61221e565b60025461039c9073ffffffffffffffffffffffffffffffffffffffff1681565b61039c7f000000000000000000000000000000000000000000000000000000000000000081565b6102e3635ca1ab1e81565b61039c7f000000000000000000000000000000000000000000000000000000000000000081565b6007546103d59068010000000000000000900467ffffffffffffffff1681565b6104216107a4366004613c74565b6122b0565b6104216107b7366004613ce5565b6127ae565b61036a601b81565b5f5461039c9062010000900473ffffffffffffffffffffffffffffffffffffffff1681565b6040517f70a082310000000000000000000000000000000000000000000000000000000081523060048201525f90819073ffffffffffffffffffffffffffffffffffffffff7f000000000000000000000000000000000000000000000000000000000000000016906370a0823190602401602060405180830381865afa158015610875573d5f803e3d5ffd5b505050506040513d601f19601f820116820180604052508101906108999190613d2d565b6007549091505f906108d79067ffffffffffffffff700100000000000000000000000000000000820481169168010000000000000000900416613d71565b67ffffffffffffffff169050805f036108f2575f9250505090565b6108fc8183613d99565b9250505090565b6004805461091090613dd1565b80601f016020809104026020016040519081016040528092919081815260200182805461093c90613dd1565b80156109875780601f1061095e57610100808354040283529160200191610987565b820191905f5260205f20905b81548152906001019060200180831161096a57829003601f168201915b505050505081565b7f000000000000000000000000000000000000000000000000000000000000000073ffffffffffffffffffffffffffffffffffffffff1633146109fe576040517fb9b3a2c800000000000000000000000000000000000000000000000000000000815260040160405180910390fd5b8073ffffffffffffffffffffffffffffffffffffffff168367ffffffffffffffff167f9c72852172521097ba7e1482e6b44b351323df0155f97f4ea18fcec28e1f596684604051610a5191815260200190565b60405180910390a3505050565b5f5462010000900473ffffffffffffffffffffffffffffffffffffffff163314610ab4576040517f4755657900000000000000000000000000000000000000000000000000000000815260040160405180910390fd5b62093a8067ffffffffffffffff82161115610afb576040517ff5e37f2f00000000000000000000000000000000000000000000000000000000815260040160405180910390fd5b7f000000000000000000000000000000000000000000000000000000000000000073ffffffffffffffffffffffffffffffffffffffff166315064c966040518163ffffffff1660e01b8152600401602060405180830381865afa158015610b64573d5f803e3d5ffd5b505050506040513d601f19601f82011682018060405250810190610b889190613e22565b610bf15760075467ffffffffffffffff7801000000000000000000000000000000000000000000000000909104811690821610610bf1576040517ff5e37f2f00000000000000000000000000000000000000000000000000000000815260040160405180910390fd5b6007805477ffffffffffffffffffffffffffffffffffffffffffffffff16780100000000000000000000000000000000000000000000000067ffffffffffffffff8416908102919091179091556040519081527fa7eb6cb8a613eb4e8bddc1ac3d61ec6cf10898760f0b187bcca794c6ca6fa40b906020015b60405180910390a150565b6003805461091090613dd1565b5f5462010000900473ffffffffffffffffffffffffffffffffffffffff163314610cd8576040517f4755657900000000000000000000000000000000000000000000000000000000815260040160405180910390fd5b600280547fffffffffffffffffffffffff00000000000000000000000000000000000000001673ffffffffffffffffffffffffffffffffffffffff83169081179091556040519081527ff54144f9611984021529f814a1cb6a41e22c58351510a0d9f7e822618abb9cc090602001610c6a565b7f000000000000000000000000000000000000000000000000000000000000000073ffffffffffffffffffffffffffffffffffffffff163314610dba576040517fb9b3a2c800000000000000000000000000000000000000000000000000000000815260040160405180910390fd5b5f54610100900460ff1615808015610dd857505f54600160ff909116105b80610df15750303b158015610df157505f5460ff166001145b610e82576040517f08c379a000000000000000000000000000000000000000000000000000000000815260206004820152602e60248201527f496e697469616c697a61626c653a20636f6e747261637420697320616c72656160448201527f647920696e697469616c697a656400000000000000000000000000000000000060648201526084015b60405180910390fd5b5f80547fffffffffffffffffffffffffffffffffffffffffffffffffffffffffffffff001660011790558015610ede575f80547fffffffffffffffffffffffffffffffffffffffffffffffffffffffffffff00ff166101001790555b606073ffffffffffffffffffffffffffffffffffffffff8516156110c557610f0585612fcb565b610f0e866130d7565b610f17876131da565b604051602001610f2993929190613e41565b604080517fffffffffffffffffffffffffffffffffffffffffffffffffffffffffffffffe0818403018152908290527f318aee3d00000000000000000000000000000000000000000000000000000000825273ffffffffffffffffffffffffffffffffffffffff87811660048401529092505f9182917f0000000000000000000000000000000000000000000000000000000000000000169063318aee3d9060240160408051808303815f875af1158015610fe6573d5f803e3d5ffd5b505050506040513d601f19601f8201168201806040525081019061100a9190613e79565b915091508163ffffffff165f14611081576009805463ffffffff841674010000000000000000000000000000000000000000027fffffffffffffffff00000000000000000000000000000000000000000000000090911673ffffffffffffffffffffffffffffffffffffffff8416171790556110c2565b600980547fffffffffffffffffffffffff00000000000000000000000000000000000000001673ffffffffffffffffffffffffffffffffffffffff89161790555b50505b6009545f9061110c90889073ffffffffffffffffffffffffffffffffffffffff81169074010000000000000000000000000000000000000000900463ffffffff1685611d77565b90505f818051906020012090505f4290505f7f000000000000000000000000000000000000000000000000000000000000000073ffffffffffffffffffffffffffffffffffffffff16633ed691ef6040518163ffffffff1660e01b8152600401602060405180830381865afa158015611187573d5f803e3d5ffd5b505050506040513d601f19601f820116820180604052508101906111ab9190613d2d565b90505f808483858f6111be600143613eb1565b60408051602081019790975286019490945260608086019390935260c09190911b7fffffffffffffffff000000000000000000000000000000000000000000000000166080850152901b7fffffffffffffffffffffffffffffffffffffffff00000000000000000000000016608883015240609c82015260bc01604080518083037fffffffffffffffffffffffffffffffffffffffffffffffffffffffffffffffe001815290829052805160209091012060058190557f9a908e73000000000000000000000000000000000000000000000000000000008252600160048301526024820181905291507f000000000000000000000000000000000000000000000000000000000000000073ffffffffffffffffffffffffffffffffffffffff1690639a908e73906044016020604051808303815f875af1158015611304573d5f803e3d5ffd5b505050506040513d601f19601f820116820180604052508101906113289190613ec4565b508c5f60026101000a81548173ffffffffffffffffffffffffffffffffffffffff021916908373ffffffffffffffffffffffffffffffffffffffff1602179055508b60025f6101000a81548173ffffffffffffffffffffffffffffffffffffffff021916908373ffffffffffffffffffffffffffffffffffffffff16021790555088600390816113b89190613f2c565b5060046113c58982613f2c565b508c60085f6101000a81548173ffffffffffffffffffffffffffffffffffffffff021916908373ffffffffffffffffffffffffffffffffffffffff16021790555062069780600760186101000a81548167ffffffffffffffff021916908367ffffffffffffffff1602179055507f060116213bcbf54ca19fd649dc84b59ab2bbd200ab199770e4d923e222a28e7f85838e60405161146593929190614044565b60405180910390a150505050505080156114d5575f80547fffffffffffffffffffffffffffffffffffffffffffffffffffffffffffff00ff169055604051600181527f7f26b83ff96e1f2b6a682f133852f6798a09c465da95921460cefb38474024989060200160405180910390a15b50505050505050565b60015473ffffffffffffffffffffffffffffffffffffffff16331461152f576040517fd1ec4b2300000000000000000000000000000000000000000000000000000000815260040160405180910390fd5b6001545f80547fffffffffffffffffffff0000000000000000000000000000000000000000ffff1673ffffffffffffffffffffffffffffffffffffffff9092166201000081029290921790556040519081527f056dc487bbf0795d0bbb1b4f0af523a855503cff740bfb4d5475f7a90c091e8e9060200160405180910390a1565b5f5462010000900473ffffffffffffffffffffffffffffffffffffffff163314611606576040517f4755657900000000000000000000000000000000000000000000000000000000815260040160405180910390fd5b60085473ffffffffffffffffffffffffffffffffffffffff16611655576040517fd40d91c800000000000000000000000000000000000000000000000000000000815260040160405180910390fd5b600880547fffffffffffffffffffffffff00000000000000000000000000000000000000001673ffffffffffffffffffffffffffffffffffffffff83169081179091556040519081527f5fbd7dd171301c4a1611a84aac4ba86d119478560557755f7927595b082634fb90602001610c6a565b60085473ffffffffffffffffffffffffffffffffffffffff1615801590611707575060085473ffffffffffffffffffffffffffffffffffffffff163314155b1561173e576040517f24eff8c300000000000000000000000000000000000000000000000000000000815260040160405180910390fd5b4262093a807f000000000000000000000000000000000000000000000000000000000000000073ffffffffffffffffffffffffffffffffffffffff166330c27dde6040518163ffffffff1660e01b8152600401602060405180830381865afa1580156117ac573d5f803e3d5ffd5b505050506040513d601f19601f820116820180604052508101906117d09190613ec4565b6117da9190614082565b67ffffffffffffffff16111561181c576040517f3d49ed4c00000000000000000000000000000000000000000000000000000000815260040160405180910390fd5b805f819003611857576040517fcb591a5f00000000000000000000000000000000000000000000000000000000815260040160405180910390fd5b6103e8811115611893576040517fb59f753a00000000000000000000000000000000000000000000000000000000815260040160405180910390fd5b60075467ffffffffffffffff6801000000000000000082048116916118ce9184917001000000000000000000000000000000009004166140a3565b1115611906576040517fc630a00d00000000000000000000000000000000000000000000000000000000815260040160405180910390fd5b60075460055470010000000000000000000000000000000090910467ffffffffffffffff16905f5b83811015611ba9575f868683818110611949576119496140b6565b905060200281019061195b91906140e3565b6119649061411f565b905083611970816141a5565b825180516020918201208185015160408087015160608801519151959a509295505f946119dc948794929101938452602084019290925260c01b7fffffffffffffffff000000000000000000000000000000000000000000000000166040830152604882015260680190565b604080517fffffffffffffffffffffffffffffffffffffffffffffffffffffffffffffffe0818403018152918152815160209283012067ffffffffffffffff89165f90815260069093529120549091508114611a64576040517fce3d755e00000000000000000000000000000000000000000000000000000000815260040160405180910390fd5b67ffffffffffffffff86165f90815260066020526040812055611a88600188613eb1565b8403611af75742600760189054906101000a900467ffffffffffffffff168460400151611ab59190614082565b67ffffffffffffffff161115611af7576040517fc44a082100000000000000000000000000000000000000000000000000000000815260040160405180910390fd5b60208381015160408086015160608088015183519586018b90529285018790528481019390935260c01b7fffffffffffffffff0000000000000000000000000000000000000000000000001660808401523390911b7fffffffffffffffffffffffffffffffffffffffff000000000000000000000000166088830152609c82015260bc016040516020818303038152906040528051906020012094505050508080611ba1906141cb565b91505061192e565b50611c1f7f000000000000000000000000000000000000000000000000000000000000000084611bd76107e9565b611be19190614202565b73ffffffffffffffffffffffffffffffffffffffff7f00000000000000000000000000000000000000000000000000000000000000001691906132c9565b60058190556007805467ffffffffffffffff8416700100000000000000000000000000000000027fffffffffffffffff0000000000000000ffffffffffffffffffffffffffffffff9091161790556040517f9a908e730000000000000000000000000000000000000000000000000000000081525f9073ffffffffffffffffffffffffffffffffffffffff7f00000000000000000000000000000000000000000000000000000000000000001690639a908e7390611cf8908790869060040167ffffffffffffffff929092168252602082015260400190565b6020604051808303815f875af1158015611d14573d5f803e3d5ffd5b505050506040513d601f19601f82011682018060405250810190611d389190613ec4565b60405190915067ffffffffffffffff8216907f648a61dd2438f072f5a1960939abd30f37aea80d2e94c9792ad142d3e0a490a4905f90a2505050505050565b60605f85858573a40d5f56745a118d0906a34e69aec8c0db1cb8fa5f87604051602401611da996959493929190614219565b604080517fffffffffffffffffffffffffffffffffffffffffffffffffffffffffffffffe08184030181529190526020810180517bffffffffffffffffffffffffffffffffffffffffffffffffffffffff167ff811bff70000000000000000000000000000000000000000000000000000000017905283519091506060905f03611ef95760f9601f8351611e3d919061427b565b6040518060400160405280600881526020017f80808401c9c380940000000000000000000000000000000000000000000000008152507f00000000000000000000000000000000000000000000000000000000000000006040518060400160405280600281526020017f80b800000000000000000000000000000000000000000000000000000000000081525060e487604051602001611ee39796959493929190614296565b6040516020818303038152906040529050611ffd565b815161ffff1015611f36576040517f248b8f8200000000000000000000000000000000000000000000000000000000815260040160405180910390fd5b815160f9611f4560208361427b565b6040518060400160405280600881526020017f80808401c9c380940000000000000000000000000000000000000000000000008152507f00000000000000000000000000000000000000000000000000000000000000006040518060400160405280600281526020017f80b90000000000000000000000000000000000000000000000000000000000008152508588604051602001611fea9796959493929190614378565b6040516020818303038152906040529150505b8051602080830191909120604080515f80825293810180835292909252601b908201526405ca1ab1e06060820152635ca1ab1e608082015260019060a0016020604051602081039080840390855afa15801561205b573d5f803e3d5ffd5b50506040517fffffffffffffffffffffffffffffffffffffffffffffffffffffffffffffffe0015191505073ffffffffffffffffffffffffffffffffffffffff81166120d3576040517fcd16196600000000000000000000000000000000000000000000000000000000815260040160405180910390fd5b6040515f906121189084906405ca1ab1e090635ca1ab1e90601b907fff000000000000000000000000000000000000000000000000000000000000009060200161445a565b604080517fffffffffffffffffffffffffffffffffffffffffffffffffffffffffffffffe08184030181529190529450505050505b949350505050565b5f5462010000900473ffffffffffffffffffffffffffffffffffffffff1633146121ab576040517f4755657900000000000000000000000000000000000000000000000000000000815260040160405180910390fd5b600180547fffffffffffffffffffffffff00000000000000000000000000000000000000001673ffffffffffffffffffffffffffffffffffffffff83169081179091556040519081527fa5b56b7906fd0a20e3f35120dd8343db1e12e037a6c90111c7e42885e82a1ce690602001610c6a565b5f5462010000900473ffffffffffffffffffffffffffffffffffffffff163314612274576040517f4755657900000000000000000000000000000000000000000000000000000000815260040160405180910390fd5b60036122808282613f2c565b507f6b8f723a4c7a5335cafae8a598a0aa0301be1387c037dccc085b62add6448b2081604051610c6a91906138b8565b60085473ffffffffffffffffffffffffffffffffffffffff16158015906122ef575060085473ffffffffffffffffffffffffffffffffffffffff163314155b15612326576040517f24eff8c300000000000000000000000000000000000000000000000000000000815260040160405180910390fd5b7f000000000000000000000000000000000000000000000000000000000000000073ffffffffffffffffffffffffffffffffffffffff166315064c966040518163ffffffff1660e01b8152600401602060405180830381865afa15801561238f573d5f803e3d5ffd5b505050506040513d601f19601f820116820180604052508101906123b39190613e22565b156123ea576040517f39258d1800000000000000000000000000000000000000000000000000000000815260040160405180910390fd5b5f7f000000000000000000000000000000000000000000000000000000000000000073ffffffffffffffffffffffffffffffffffffffff1663604691696040518163ffffffff1660e01b8152600401602060405180830381865afa158015612454573d5f803e3d5ffd5b505050506040513d601f19601f820116820180604052508101906124789190613d2d565b9050818111156124b4576040517f2354600f00000000000000000000000000000000000000000000000000000000815260040160405180910390fd5b6113888311156124f0576040517fa29a6c7c00000000000000000000000000000000000000000000000000000000815260040160405180910390fd5b61253273ffffffffffffffffffffffffffffffffffffffff7f0000000000000000000000000000000000000000000000000000000000000000163330846133a2565b5f7f000000000000000000000000000000000000000000000000000000000000000073ffffffffffffffffffffffffffffffffffffffff16633ed691ef6040518163ffffffff1660e01b8152600401602060405180830381865afa15801561259c573d5f803e3d5ffd5b505050506040513d601f19601f820116820180604052508101906125c09190613d2d565b600780549192506801000000000000000090910467ffffffffffffffff169060086125ea836141a5565b91906101000a81548167ffffffffffffffff021916908367ffffffffffffffff1602179055505084846040516126219291906144b5565b6040519081900390208142612637600143613eb1565b60408051602081019590955284019290925260c01b7fffffffffffffffff000000000000000000000000000000000000000000000000166060830152406068820152608801604080518083037fffffffffffffffffffffffffffffffffffffffffffffffffffffffffffffffe0018152918152815160209283012060075468010000000000000000900467ffffffffffffffff165f9081526006909352912055323303612748576007546040805183815233602082015260609181018290525f918101919091526801000000000000000090910467ffffffffffffffff16907ff94bb37db835f1ab585ee00041849a09b12cd081d77fa15ca070757619cbc9319060800160405180910390a26127a7565b600760089054906101000a900467ffffffffffffffff1667ffffffffffffffff167ff94bb37db835f1ab585ee00041849a09b12cd081d77fa15ca070757619cbc9318233888860405161279e94939291906144c4565b60405180910390a25b5050505050565b60025473ffffffffffffffffffffffffffffffffffffffff1633146127ff576040517f11e7be1500000000000000000000000000000000000000000000000000000000815260040160405180910390fd5b815f81900361283a576040517fcb591a5f00000000000000000000000000000000000000000000000000000000815260040160405180910390fd5b6103e8811115612876576040517fb59f753a00000000000000000000000000000000000000000000000000000000815260040160405180910390fd5b7f000000000000000000000000000000000000000000000000000000000000000073ffffffffffffffffffffffffffffffffffffffff166379e2cf976040518163ffffffff1660e01b81526004015f604051808303815f87803b1580156128db575f80fd5b505af11580156128ed573d5f803e3d5ffd5b505050505f7f000000000000000000000000000000000000000000000000000000000000000073ffffffffffffffffffffffffffffffffffffffff16635ca1e1656040518163ffffffff1660e01b8152600401602060405180830381865afa15801561295b573d5f803e3d5ffd5b505050506040513d601f19601f8201168201806040525081019061297f9190613d2d565b600754600554919250429170010000000000000000000000000000000090910467ffffffffffffffff1690815f5b86811015612ca8575f8a8a838181106129c8576129c86140b6565b90506020028101906129da91906140e3565b6129e39061411f565b8051805160209091012060408201519192509067ffffffffffffffff1615612bc35785612a0f816141a5565b9650505f81836020015184604001518560600151604051602001612a719493929190938452602084019290925260c01b7fffffffffffffffff000000000000000000000000000000000000000000000000166040830152604882015260680190565b604080517fffffffffffffffffffffffffffffffffffffffffffffffffffffffffffffffe0818403018152918152815160209283012067ffffffffffffffff8a165f90815260069093529120549091508114612af9576040517fce3d755e00000000000000000000000000000000000000000000000000000000815260040160405180910390fd5b60208381015160408086015160608088015183519586018c90529285018790528481019390935260c01b7fffffffffffffffff000000000000000000000000000000000000000000000000166080840152908d901b7fffffffffffffffffffffffffffffffffffffffff000000000000000000000000166088830152609c82015260bc0160405160208183030381529060405280519060200120955060065f8867ffffffffffffffff1667ffffffffffffffff1681526020019081526020015f205f905550612c93565b8151516201d4c01015612c02576040517fa29a6c7c00000000000000000000000000000000000000000000000000000000815260040160405180910390fd5b604080516020810187905290810182905260608082018a905260c089901b7fffffffffffffffff0000000000000000000000000000000000000000000000001660808301528b901b7fffffffffffffffffffffffffffffffffffffffff0000000000000000000000001660888201525f609c82015260bc016040516020818303038152906040528051906020012094505b50508080612ca0906141cb565b9150506129ad565b5060075467ffffffffffffffff6801000000000000000090910481169084161115612cff576040517fc630a00d00000000000000000000000000000000000000000000000000000000815260040160405180910390fd5b60058290558567ffffffffffffffff84811690831614612dbc575f612d248386613d71565b9050612d3a67ffffffffffffffff821683613eb1565b9150612d737f00000000000000000000000000000000000000000000000000000000000000008267ffffffffffffffff16611bd76107e9565b50600780547fffffffffffffffff0000000000000000ffffffffffffffffffffffffffffffff1670010000000000000000000000000000000067ffffffffffffffff8716021790555b612eb8337f0000000000000000000000000000000000000000000000000000000000000000837f000000000000000000000000000000000000000000000000000000000000000073ffffffffffffffffffffffffffffffffffffffff1663477fa2706040518163ffffffff1660e01b8152600401602060405180830381865afa158015612e4b573d5f803e3d5ffd5b505050506040513d601f19601f82011682018060405250810190612e6f9190613d2d565b612e799190614202565b73ffffffffffffffffffffffffffffffffffffffff7f0000000000000000000000000000000000000000000000000000000000000000169291906133a2565b6040517f9a908e7300000000000000000000000000000000000000000000000000000000815267ffffffffffffffff88166004820152602481018490525f907f000000000000000000000000000000000000000000000000000000000000000073ffffffffffffffffffffffffffffffffffffffff1690639a908e73906044016020604051808303815f875af1158015612f54573d5f803e3d5ffd5b505050506040513d601f19601f82011682018060405250810190612f789190613ec4565b90508067ffffffffffffffff167f3e54d0825ed78523037d00a81759237eb436ce774bd546993ee67a1b67b6e76688604051612fb691815260200190565b60405180910390a25050505050505050505050565b60408051600481526024810182526020810180517bffffffffffffffffffffffffffffffffffffffffffffffffffffffff167f06fdde030000000000000000000000000000000000000000000000000000000017905290516060915f91829173ffffffffffffffffffffffffffffffffffffffff86169161304c9190614534565b5f60405180830381855afa9150503d805f8114613084576040519150601f19603f3d011682016040523d82523d5f602084013e613089565b606091505b5091509150816130ce576040518060400160405280600781526020017f4e4f5f4e414d450000000000000000000000000000000000000000000000000081525061214d565b61214d81613406565b60408051600481526024810182526020810180517bffffffffffffffffffffffffffffffffffffffffffffffffffffffff167f95d89b410000000000000000000000000000000000000000000000000000000017905290516060915f91829173ffffffffffffffffffffffffffffffffffffffff8616916131589190614534565b5f60405180830381855afa9150503d805f8114613190576040519150601f19603f3d011682016040523d82523d5f602084013e613195565b606091505b5091509150816130ce576040518060400160405280600981526020017f4e4f5f53594d424f4c000000000000000000000000000000000000000000000081525061214d565b60408051600481526024810182526020810180517bffffffffffffffffffffffffffffffffffffffffffffffffffffffff167f313ce5670000000000000000000000000000000000000000000000000000000017905290515f918291829173ffffffffffffffffffffffffffffffffffffffff86169161325a9190614534565b5f60405180830381855afa9150503d805f8114613292576040519150601f19603f3d011682016040523d82523d5f602084013e613297565b606091505b50915091508180156132aa575080516020145b6132b557601261214d565b8080602001905181019061214d9190614545565b60405173ffffffffffffffffffffffffffffffffffffffff831660248201526044810182905261339d9084907fa9059cbb00000000000000000000000000000000000000000000000000000000906064015b604080517fffffffffffffffffffffffffffffffffffffffffffffffffffffffffffffffe08184030181529190526020810180517bffffffffffffffffffffffffffffffffffffffffffffffffffffffff167fffffffff00000000000000000000000000000000000000000000000000000000909316929092179091526135d7565b505050565b60405173ffffffffffffffffffffffffffffffffffffffff808516602483015283166044820152606481018290526134009085907f23b872dd000000000000000000000000000000000000000000000000000000009060840161331b565b50505050565b6060604082511061342b57818060200190518101906134259190614565565b92915050565b815160200361359e575f5b60208110801561347d5750828181518110613453576134536140b6565b01602001517fff000000000000000000000000000000000000000000000000000000000000001615155b15613494578061348c816141cb565b915050613436565b805f036134d657505060408051808201909152601281527f4e4f545f56414c49445f454e434f44494e4700000000000000000000000000006020820152919050565b5f8167ffffffffffffffff8111156134f0576134f0613990565b6040519080825280601f01601f19166020018201604052801561351a576020820181803683370190505b5090505f5b8281101561359657848181518110613539576135396140b6565b602001015160f81c60f81b828281518110613556576135566140b6565b60200101907effffffffffffffffffffffffffffffffffffffffffffffffffffffffffffff191690815f1a9053508061358e816141cb565b91505061351f565b509392505050565b505060408051808201909152601281527f4e4f545f56414c49445f454e434f44494e470000000000000000000000000000602082015290565b5f613638826040518060400160405280602081526020017f5361666545524332303a206c6f772d6c6576656c2063616c6c206661696c65648152508573ffffffffffffffffffffffffffffffffffffffff166136e29092919063ffffffff16565b80519091501561339d57808060200190518101906136569190613e22565b61339d576040517f08c379a000000000000000000000000000000000000000000000000000000000815260206004820152602a60248201527f5361666545524332303a204552433230206f7065726174696f6e20646964206e60448201527f6f742073756363656564000000000000000000000000000000000000000000006064820152608401610e79565b606061214d84845f85855f808673ffffffffffffffffffffffffffffffffffffffff1685876040516137149190614534565b5f6040518083038185875af1925050503d805f811461374e576040519150601f19603f3d011682016040523d82523d5f602084013e613753565b606091505b50915091506137648783838761376f565b979650505050505050565b606083156138045782515f036137fd5773ffffffffffffffffffffffffffffffffffffffff85163b6137fd576040517f08c379a000000000000000000000000000000000000000000000000000000000815260206004820152601d60248201527f416464726573733a2063616c6c20746f206e6f6e2d636f6e74726163740000006044820152606401610e79565b508161214d565b61214d83838151156138195781518083602001fd5b806040517f08c379a0000000000000000000000000000000000000000000000000000000008152600401610e7991906138b8565b5f5b8381101561386757818101518382015260200161384f565b50505f910152565b5f815180845261388681602086016020860161384d565b601f017fffffffffffffffffffffffffffffffffffffffffffffffffffffffffffffffe0169290920160200192915050565b602081525f6138ca602083018461386f565b9392505050565b67ffffffffffffffff811681146138e6575f80fd5b50565b73ffffffffffffffffffffffffffffffffffffffff811681146138e6575f80fd5b5f805f6060848603121561391c575f80fd5b8335613927816138d1565b925060208401359150604084013561393e816138e9565b809150509250925092565b5f60208284031215613959575f80fd5b81356138ca816138d1565b5f60208284031215613974575f80fd5b81356138ca816138e9565b63ffffffff811681146138e6575f80fd5b7f4e487b71000000000000000000000000000000000000000000000000000000005f52604160045260245ffd5b604051601f82017fffffffffffffffffffffffffffffffffffffffffffffffffffffffffffffffe016810167ffffffffffffffff81118282101715613a0457613a04613990565b604052919050565b5f67ffffffffffffffff821115613a2557613a25613990565b50601f017fffffffffffffffffffffffffffffffffffffffffffffffffffffffffffffffe01660200190565b5f82601f830112613a60575f80fd5b8135613a73613a6e82613a0c565b6139bd565b818152846020838601011115613a87575f80fd5b816020850160208301375f918101602001919091529392505050565b5f805f805f8060c08789031215613ab8575f80fd5b8635613ac3816138e9565b95506020870135613ad3816138e9565b94506040870135613ae38161397f565b93506060870135613af3816138e9565b9250608087013567ffffffffffffffff80821115613b0f575f80fd5b613b1b8a838b01613a51565b935060a0890135915080821115613b30575f80fd5b50613b3d89828a01613a51565b9150509295509295509295565b5f8083601f840112613b5a575f80fd5b50813567ffffffffffffffff811115613b71575f80fd5b6020830191508360208260051b8501011115613b8b575f80fd5b9250929050565b5f8060208385031215613ba3575f80fd5b823567ffffffffffffffff811115613bb9575f80fd5b613bc585828601613b4a565b90969095509350505050565b5f805f8060808587031215613be4575f80fd5b8435613bef8161397f565b93506020850135613bff816138e9565b92506040850135613c0f8161397f565b9150606085013567ffffffffffffffff811115613c2a575f80fd5b613c3687828801613a51565b91505092959194509250565b5f60208284031215613c52575f80fd5b813567ffffffffffffffff811115613c68575f80fd5b61214d84828501613a51565b5f805f60408486031215613c86575f80fd5b833567ffffffffffffffff80821115613c9d575f80fd5b818601915086601f830112613cb0575f80fd5b813581811115613cbe575f80fd5b876020828501011115613ccf575f80fd5b6020928301989097509590910135949350505050565b5f805f60408486031215613cf7575f80fd5b833567ffffffffffffffff811115613d0d575f80fd5b613d1986828701613b4a565b909450925050602084013561393e816138e9565b5f60208284031215613d3d575f80fd5b5051919050565b7f4e487b71000000000000000000000000000000000000000000000000000000005f52601160045260245ffd5b67ffffffffffffffff828116828216039080821115613d9257613d92613d44565b5092915050565b5f82613dcc577f4e487b71000000000000000000000000000000000000000000000000000000005f52601260045260245ffd5b500490565b600181811c90821680613de557607f821691505b602082108103613e1c577f4e487b71000000000000000000000000000000000000000000000000000000005f52602260045260245ffd5b50919050565b5f60208284031215613e32575f80fd5b815180151581146138ca575f80fd5b606081525f613e53606083018661386f565b8281036020840152613e65818661386f565b91505060ff83166040830152949350505050565b5f8060408385031215613e8a575f80fd5b8251613e958161397f565b6020840151909250613ea6816138e9565b809150509250929050565b8181038181111561342557613425613d44565b5f60208284031215613ed4575f80fd5b81516138ca816138d1565b601f82111561339d575f81815260208120601f850160051c81016020861015613f055750805b601f850160051c820191505b81811015613f2457828155600101613f11565b505050505050565b815167ffffffffffffffff811115613f4657613f46613990565b613f5a81613f548454613dd1565b84613edf565b602080601f831160018114613fac575f8415613f765750858301515b7fffffffffffffffffffffffffffffffffffffffffffffffffffffffffffffffff600386901b1c1916600185901b178555613f24565b5f858152602081207fffffffffffffffffffffffffffffffffffffffffffffffffffffffffffffffe08616915b82811015613ff857888601518255948401946001909101908401613fd9565b508582101561403457878501517fffffffffffffffffffffffffffffffffffffffffffffffffffffffffffffffff600388901b60f8161c191681555b5050505050600190811b01905550565b606081525f614056606083018661386f565b905083602083015273ffffffffffffffffffffffffffffffffffffffff83166040830152949350505050565b67ffffffffffffffff818116838216019080821115613d9257613d92613d44565b8082018082111561342557613425613d44565b7f4e487b71000000000000000000000000000000000000000000000000000000005f52603260045260245ffd5b5f82357fffffffffffffffffffffffffffffffffffffffffffffffffffffffffffffff81833603018112614115575f80fd5b9190910192915050565b5f6080823603121561412f575f80fd5b6040516080810167ffffffffffffffff828210818311171561415357614153613990565b816040528435915080821115614167575f80fd5b5061417436828601613a51565b82525060208301356020820152604083013561418f816138d1565b6040820152606092830135928101929092525090565b5f67ffffffffffffffff8083168181036141c1576141c1613d44565b6001019392505050565b5f7fffffffffffffffffffffffffffffffffffffffffffffffffffffffffffffffff82036141fb576141fb613d44565b5060010190565b808202811582820484141761342557613425613d44565b5f63ffffffff808916835273ffffffffffffffffffffffffffffffffffffffff8089166020850152818816604085015280871660608501528086166080850152505060c060a083015261426f60c083018461386f565b98975050505050505050565b61ffff818116838216019080821115613d9257613d92613d44565b5f7fff00000000000000000000000000000000000000000000000000000000000000808a60f81b1683527fffff0000000000000000000000000000000000000000000000000000000000008960f01b16600184015287516142fe816003860160208c0161384d565b80840190507fffffffffffffffffffffffffffffffffffffffff0000000000000000000000008860601b1660038201528651614341816017840160208b0161384d565b808201915050818660f81b1660178201528451915061436782601883016020880161384d565b016018019998505050505050505050565b7fff000000000000000000000000000000000000000000000000000000000000008860f81b1681525f7fffff000000000000000000000000000000000000000000000000000000000000808960f01b16600184015287516143e0816003860160208c0161384d565b80840190507fffffffffffffffffffffffffffffffffffffffff0000000000000000000000008860601b1660038201528651614423816017840160208b0161384d565b808201915050818660f01b1660178201528451915061444982601983016020880161384d565b016019019998505050505050505050565b5f865161446b818460208b0161384d565b9190910194855250602084019290925260f81b7fff000000000000000000000000000000000000000000000000000000000000009081166040840152166041820152604201919050565b818382375f9101908152919050565b84815273ffffffffffffffffffffffffffffffffffffffff8416602082015260606040820152816060820152818360808301375f818301608090810191909152601f9092017fffffffffffffffffffffffffffffffffffffffffffffffffffffffffffffffe01601019392505050565b5f825161411581846020870161384d565b5f60208284031215614555575f80fd5b815160ff811681146138ca575f80fd5b5f60208284031215614575575f80fd5b815167ffffffffffffffff81111561458b575f80fd5b8201601f8101841361459b575f80fd5b80516145a9613a6e82613a0c565b8181528560208385010111156145bd575f80fd5b6145ce82602083016020860161384d565b9594505050505056fea26469706673582212203c7d4ad205f14818c03d2822448b6463acc640d331d632d3176cbf6e40eeb26364736f6c63430008140033",
  "linkReferences": {},
  "deployedLinkReferences": {}
}