{
  "_format": "hh-sol-artifact-1",
  "contractName": "PolygonZkEVM",
  "sourceName": "contracts/PolygonZkEVM.sol",
  "abi": [
    {
      "anonymous": false,
      "inputs": [
        {
          "indexed": false,
          "internalType": "address",
          "name": "newAdmin",
          "type": "address"
        }
      ],
      "name": "AcceptAdminRole",
      "type": "event"
    },
    {
      "anonymous": false,
      "inputs": [
        {
          "indexed": true,
          "internalType": "uint64",
          "name": "numBatch",
          "type": "uint64"
        },
        {
          "indexed": false,
          "internalType": "bytes32",
          "name": "stateRoot",
          "type": "bytes32"
        },
        {
          "indexed": true,
          "internalType": "uint64",
          "name": "pendingStateNum",
          "type": "uint64"
        }
      ],
      "name": "ConsolidatePendingState",
      "type": "event"
    },
    {
      "anonymous": false,
      "inputs": [],
      "name": "EmergencyStateActivated",
      "type": "event"
    },
    {
      "anonymous": false,
      "inputs": [],
      "name": "EmergencyStateDeactivated",
      "type": "event"
    },
    {
      "anonymous": false,
      "inputs": [
        {
          "indexed": true,
          "internalType": "uint64",
          "name": "forceBatchNum",
          "type": "uint64"
        },
        {
          "indexed": false,
          "internalType": "bytes32",
          "name": "lastGlobalExitRoot",
          "type": "bytes32"
        },
        {
          "indexed": false,
          "internalType": "address",
          "name": "sequencer",
          "type": "address"
        },
        {
          "indexed": false,
          "internalType": "bytes",
          "name": "transactions",
          "type": "bytes"
        }
      ],
      "name": "ForceBatch",
      "type": "event"
    },
    {
      "anonymous": false,
      "inputs": [
        {
          "indexed": false,
          "internalType": "uint8",
          "name": "version",
          "type": "uint8"
        }
      ],
      "name": "Initialized",
      "type": "event"
    },
    {
      "anonymous": false,
      "inputs": [
        {
          "indexed": true,
          "internalType": "uint64",
          "name": "numBatch",
          "type": "uint64"
        },
        {
          "indexed": false,
          "internalType": "bytes32",
          "name": "stateRoot",
          "type": "bytes32"
        },
        {
          "indexed": true,
          "internalType": "address",
          "name": "aggregator",
          "type": "address"
        }
      ],
      "name": "OverridePendingState",
      "type": "event"
    },
    {
      "anonymous": false,
      "inputs": [
        {
          "indexed": true,
          "internalType": "address",
          "name": "previousOwner",
          "type": "address"
        },
        {
          "indexed": true,
          "internalType": "address",
          "name": "newOwner",
          "type": "address"
        }
      ],
      "name": "OwnershipTransferred",
      "type": "event"
    },
    {
      "anonymous": false,
      "inputs": [
        {
          "indexed": false,
          "internalType": "bytes32",
          "name": "storedStateRoot",
          "type": "bytes32"
        },
        {
          "indexed": false,
          "internalType": "bytes32",
          "name": "provedStateRoot",
          "type": "bytes32"
        }
      ],
      "name": "ProveNonDeterministicPendingState",
      "type": "event"
    },
    {
      "anonymous": false,
      "inputs": [
        {
          "indexed": true,
          "internalType": "uint64",
          "name": "numBatch",
          "type": "uint64"
        }
      ],
      "name": "SequenceBatches",
      "type": "event"
    },
    {
      "anonymous": false,
      "inputs": [
        {
          "indexed": true,
          "internalType": "uint64",
          "name": "numBatch",
          "type": "uint64"
        }
      ],
      "name": "SequenceForceBatches",
      "type": "event"
    },
    {
      "anonymous": false,
      "inputs": [
        {
          "indexed": false,
          "internalType": "bool",
          "name": "newForceBatchAllowed",
          "type": "bool"
        }
      ],
      "name": "SetForceBatchAllowed",
      "type": "event"
    },
    {
      "anonymous": false,
      "inputs": [
        {
          "indexed": false,
          "internalType": "uint16",
          "name": "newMultiplierBatchFee",
          "type": "uint16"
        }
      ],
      "name": "SetMultiplierBatchFee",
      "type": "event"
    },
    {
      "anonymous": false,
      "inputs": [
        {
          "indexed": false,
          "internalType": "uint64",
          "name": "newPendingStateTimeout",
          "type": "uint64"
        }
      ],
      "name": "SetPendingStateTimeout",
      "type": "event"
    },
    {
      "anonymous": false,
      "inputs": [
        {
          "indexed": false,
          "internalType": "address",
          "name": "newTrustedAggregator",
          "type": "address"
        }
      ],
      "name": "SetTrustedAggregator",
      "type": "event"
    },
    {
      "anonymous": false,
      "inputs": [
        {
          "indexed": false,
          "internalType": "uint64",
          "name": "newTrustedAggregatorTimeout",
          "type": "uint64"
        }
      ],
      "name": "SetTrustedAggregatorTimeout",
      "type": "event"
    },
    {
      "anonymous": false,
      "inputs": [
        {
          "indexed": false,
          "internalType": "address",
          "name": "newTrustedSequencer",
          "type": "address"
        }
      ],
      "name": "SetTrustedSequencer",
      "type": "event"
    },
    {
      "anonymous": false,
      "inputs": [
        {
          "indexed": false,
          "internalType": "string",
          "name": "newTrustedSequencerURL",
          "type": "string"
        }
      ],
      "name": "SetTrustedSequencerURL",
      "type": "event"
    },
    {
      "anonymous": false,
      "inputs": [
        {
          "indexed": false,
          "internalType": "uint64",
          "name": "newVeryBatchTimeTarget",
          "type": "uint64"
        }
      ],
      "name": "SetVeryBatchTimeTarget",
      "type": "event"
    },
    {
      "anonymous": false,
      "inputs": [
        {
          "indexed": false,
          "internalType": "address",
          "name": "newPendingAdmin",
          "type": "address"
        }
      ],
      "name": "TransferAdminRole",
      "type": "event"
    },
    {
      "anonymous": false,
      "inputs": [
        {
          "indexed": true,
          "internalType": "uint64",
          "name": "numBatch",
          "type": "uint64"
        },
        {
          "indexed": false,
          "internalType": "bytes32",
          "name": "stateRoot",
          "type": "bytes32"
        },
        {
          "indexed": true,
          "internalType": "address",
          "name": "aggregator",
          "type": "address"
        }
      ],
      "name": "TrustedVerifyBatches",
      "type": "event"
    },
    {
      "anonymous": false,
      "inputs": [
        {
          "indexed": true,
          "internalType": "uint64",
          "name": "numBatch",
          "type": "uint64"
        },
        {
          "indexed": false,
          "internalType": "bytes32",
          "name": "stateRoot",
          "type": "bytes32"
        },
        {
          "indexed": true,
          "internalType": "address",
          "name": "aggregator",
          "type": "address"
        }
      ],
      "name": "VerifyBatches",
      "type": "event"
    },
    {
      "inputs": [],
      "name": "FORCE_BATCH_TIMEOUT",
      "outputs": [
        {
          "internalType": "uint64",
          "name": "",
          "type": "uint64"
        }
      ],
      "stateMutability": "view",
      "type": "function"
    },
    {
      "inputs": [],
      "name": "HALT_AGGREGATION_TIMEOUT",
      "outputs": [
        {
          "internalType": "uint64",
          "name": "",
          "type": "uint64"
        }
      ],
      "stateMutability": "view",
      "type": "function"
    },
    {
      "inputs": [],
      "name": "MAX_BATCH_MULTIPLIER",
      "outputs": [
        {
          "internalType": "uint256",
          "name": "",
          "type": "uint256"
        }
      ],
      "stateMutability": "view",
      "type": "function"
    },
    {
      "inputs": [],
      "name": "MAX_TRANSACTIONS_BYTE_LENGTH",
      "outputs": [
        {
          "internalType": "uint256",
          "name": "",
          "type": "uint256"
        }
      ],
      "stateMutability": "view",
      "type": "function"
    },
    {
      "inputs": [],
      "name": "MAX_VERIFY_BATCHES",
      "outputs": [
        {
          "internalType": "uint64",
          "name": "",
          "type": "uint64"
        }
      ],
      "stateMutability": "view",
      "type": "function"
    },
    {
      "inputs": [],
      "name": "acceptAdminRole",
      "outputs": [],
      "stateMutability": "nonpayable",
      "type": "function"
    },
    {
      "inputs": [
        {
          "internalType": "uint64",
          "name": "sequencedBatchNum",
          "type": "uint64"
        }
      ],
      "name": "activateEmergencyState",
      "outputs": [],
      "stateMutability": "nonpayable",
      "type": "function"
    },
    {
      "inputs": [],
      "name": "admin",
      "outputs": [
        {
          "internalType": "address",
          "name": "",
          "type": "address"
        }
      ],
      "stateMutability": "view",
      "type": "function"
    },
    {
      "inputs": [],
      "name": "batchFee",
      "outputs": [
        {
          "internalType": "uint256",
          "name": "",
          "type": "uint256"
        }
      ],
      "stateMutability": "view",
      "type": "function"
    },
    {
      "inputs": [
        {
          "internalType": "uint64",
          "name": "",
          "type": "uint64"
        }
      ],
      "name": "batchNumToStateRoot",
      "outputs": [
        {
          "internalType": "bytes32",
          "name": "",
          "type": "bytes32"
        }
      ],
      "stateMutability": "view",
      "type": "function"
    },
    {
      "inputs": [],
      "name": "bridgeAddress",
      "outputs": [
        {
          "internalType": "contract IPolygonZkEVMBridge",
          "name": "",
          "type": "address"
        }
      ],
      "stateMutability": "view",
      "type": "function"
    },
    {
      "inputs": [],
      "name": "calculateRewardPerBatch",
      "outputs": [
        {
          "internalType": "uint256",
          "name": "",
          "type": "uint256"
        }
      ],
      "stateMutability": "view",
      "type": "function"
    },
    {
      "inputs": [],
      "name": "chainID",
      "outputs": [
        {
          "internalType": "uint64",
          "name": "",
          "type": "uint64"
        }
      ],
      "stateMutability": "view",
      "type": "function"
    },
    {
      "inputs": [
        {
          "internalType": "uint64",
          "name": "pendingStateNum",
          "type": "uint64"
        }
      ],
      "name": "consolidatePendingState",
      "outputs": [],
      "stateMutability": "nonpayable",
      "type": "function"
    },
    {
      "inputs": [],
      "name": "deactivateEmergencyState",
      "outputs": [],
      "stateMutability": "nonpayable",
      "type": "function"
    },
    {
      "inputs": [
        {
          "internalType": "bytes",
          "name": "transactions",
          "type": "bytes"
        },
        {
          "internalType": "uint256",
          "name": "maticAmount",
          "type": "uint256"
        }
      ],
      "name": "forceBatch",
      "outputs": [],
      "stateMutability": "nonpayable",
      "type": "function"
    },
    {
      "inputs": [],
      "name": "forceBatchAllowed",
      "outputs": [
        {
          "internalType": "bool",
          "name": "",
          "type": "bool"
        }
      ],
      "stateMutability": "view",
      "type": "function"
    },
    {
      "inputs": [
        {
          "internalType": "uint64",
          "name": "",
          "type": "uint64"
        }
      ],
      "name": "forcedBatches",
      "outputs": [
        {
          "internalType": "bytes32",
          "name": "",
          "type": "bytes32"
        }
      ],
      "stateMutability": "view",
      "type": "function"
    },
    {
      "inputs": [],
      "name": "getCurrentBatchFee",
      "outputs": [
        {
          "internalType": "uint256",
          "name": "",
          "type": "uint256"
        }
      ],
      "stateMutability": "view",
      "type": "function"
    },
    {
      "inputs": [
        {
          "internalType": "uint64",
          "name": "initNumBatch",
          "type": "uint64"
        },
        {
          "internalType": "uint64",
          "name": "finalNewBatch",
          "type": "uint64"
        },
        {
          "internalType": "bytes32",
          "name": "newLocalExitRoot",
          "type": "bytes32"
        },
        {
          "internalType": "bytes32",
          "name": "oldStateRoot",
          "type": "bytes32"
        },
        {
          "internalType": "bytes32",
          "name": "newStateRoot",
          "type": "bytes32"
        }
      ],
      "name": "getInputSnarkBytes",
      "outputs": [
        {
          "internalType": "bytes",
          "name": "",
          "type": "bytes"
        }
      ],
      "stateMutability": "view",
      "type": "function"
    },
    {
      "inputs": [],
      "name": "getLastVerifiedBatch",
      "outputs": [
        {
          "internalType": "uint64",
          "name": "",
          "type": "uint64"
        }
      ],
      "stateMutability": "view",
      "type": "function"
    },
    {
      "inputs": [],
      "name": "globalExitRootManager",
      "outputs": [
        {
          "internalType": "contract IPolygonZkEVMGlobalExitRoot",
          "name": "",
          "type": "address"
        }
      ],
      "stateMutability": "view",
      "type": "function"
    },
    {
      "inputs": [
        {
          "internalType": "contract IPolygonZkEVMGlobalExitRoot",
          "name": "_globalExitRootManager",
          "type": "address"
        },
        {
          "internalType": "contract IERC20Upgradeable",
          "name": "_matic",
          "type": "address"
        },
        {
          "internalType": "contract IVerifierRollup",
          "name": "_rollupVerifier",
          "type": "address"
        },
        {
          "internalType": "contract IPolygonZkEVMBridge",
          "name": "_bridgeAddress",
          "type": "address"
        },
        {
          "components": [
            {
              "internalType": "address",
              "name": "admin",
              "type": "address"
            },
            {
              "internalType": "uint64",
              "name": "chainID",
              "type": "uint64"
            },
            {
              "internalType": "address",
              "name": "trustedSequencer",
              "type": "address"
            },
            {
              "internalType": "uint64",
              "name": "pendingStateTimeout",
              "type": "uint64"
            },
            {
              "internalType": "bool",
              "name": "forceBatchAllowed",
              "type": "bool"
            },
            {
              "internalType": "address",
              "name": "trustedAggregator",
              "type": "address"
            },
            {
              "internalType": "uint64",
              "name": "trustedAggregatorTimeout",
              "type": "uint64"
            }
          ],
          "internalType": "struct PolygonZkEVM.InitializePackedParameters",
          "name": "initializePackedParameters",
          "type": "tuple"
        },
        {
          "internalType": "bytes32",
          "name": "genesisRoot",
          "type": "bytes32"
        },
        {
          "internalType": "string",
          "name": "_trustedSequencerURL",
          "type": "string"
        },
        {
          "internalType": "string",
          "name": "_networkName",
          "type": "string"
        }
      ],
      "name": "initialize",
      "outputs": [],
      "stateMutability": "nonpayable",
      "type": "function"
    },
    {
      "inputs": [],
      "name": "isEmergencyState",
      "outputs": [
        {
          "internalType": "bool",
          "name": "",
          "type": "bool"
        }
      ],
      "stateMutability": "view",
      "type": "function"
    },
    {
      "inputs": [
        {
          "internalType": "uint64",
          "name": "pendingStateNum",
          "type": "uint64"
        }
      ],
      "name": "isPendingStateConsolidable",
      "outputs": [
        {
          "internalType": "bool",
          "name": "",
          "type": "bool"
        }
      ],
      "stateMutability": "view",
      "type": "function"
    },
    {
      "inputs": [],
      "name": "lastBatchSequenced",
      "outputs": [
        {
          "internalType": "uint64",
          "name": "",
          "type": "uint64"
        }
      ],
      "stateMutability": "view",
      "type": "function"
    },
    {
      "inputs": [],
      "name": "lastForceBatch",
      "outputs": [
        {
          "internalType": "uint64",
          "name": "",
          "type": "uint64"
        }
      ],
      "stateMutability": "view",
      "type": "function"
    },
    {
      "inputs": [],
      "name": "lastForceBatchSequenced",
      "outputs": [
        {
          "internalType": "uint64",
          "name": "",
          "type": "uint64"
        }
      ],
      "stateMutability": "view",
      "type": "function"
    },
    {
      "inputs": [],
      "name": "lastPendingState",
      "outputs": [
        {
          "internalType": "uint64",
          "name": "",
          "type": "uint64"
        }
      ],
      "stateMutability": "view",
      "type": "function"
    },
    {
      "inputs": [],
      "name": "lastPendingStateConsolidated",
      "outputs": [
        {
          "internalType": "uint64",
          "name": "",
          "type": "uint64"
        }
      ],
      "stateMutability": "view",
      "type": "function"
    },
    {
      "inputs": [],
      "name": "lastTimestamp",
      "outputs": [
        {
          "internalType": "uint64",
          "name": "",
          "type": "uint64"
        }
      ],
      "stateMutability": "view",
      "type": "function"
    },
    {
      "inputs": [],
      "name": "lastVerifiedBatch",
      "outputs": [
        {
          "internalType": "uint64",
          "name": "",
          "type": "uint64"
        }
      ],
      "stateMutability": "view",
      "type": "function"
    },
    {
      "inputs": [],
      "name": "matic",
      "outputs": [
        {
          "internalType": "contract IERC20Upgradeable",
          "name": "",
          "type": "address"
        }
      ],
      "stateMutability": "view",
      "type": "function"
    },
    {
      "inputs": [],
      "name": "multiplierBatchFee",
      "outputs": [
        {
          "internalType": "uint16",
          "name": "",
          "type": "uint16"
        }
      ],
      "stateMutability": "view",
      "type": "function"
    },
    {
      "inputs": [],
      "name": "networkName",
      "outputs": [
        {
          "internalType": "string",
          "name": "",
          "type": "string"
        }
      ],
      "stateMutability": "view",
      "type": "function"
    },
    {
      "inputs": [
        {
          "internalType": "uint64",
          "name": "initPendingStateNum",
          "type": "uint64"
        },
        {
          "internalType": "uint64",
          "name": "finalPendingStateNum",
          "type": "uint64"
        },
        {
          "internalType": "uint64",
          "name": "initNumBatch",
          "type": "uint64"
        },
        {
          "internalType": "uint64",
          "name": "finalNewBatch",
          "type": "uint64"
        },
        {
          "internalType": "bytes32",
          "name": "newLocalExitRoot",
          "type": "bytes32"
        },
        {
          "internalType": "bytes32",
          "name": "newStateRoot",
          "type": "bytes32"
        },
        {
          "internalType": "uint256[2]",
          "name": "proofA",
          "type": "uint256[2]"
        },
        {
          "internalType": "uint256[2][2]",
          "name": "proofB",
          "type": "uint256[2][2]"
        },
        {
          "internalType": "uint256[2]",
          "name": "proofC",
          "type": "uint256[2]"
        }
      ],
      "name": "overridePendingState",
      "outputs": [],
      "stateMutability": "nonpayable",
      "type": "function"
    },
    {
      "inputs": [],
      "name": "owner",
      "outputs": [
        {
          "internalType": "address",
          "name": "",
          "type": "address"
        }
      ],
      "stateMutability": "view",
      "type": "function"
    },
    {
      "inputs": [],
      "name": "pendingAdmin",
      "outputs": [
        {
          "internalType": "address",
          "name": "",
          "type": "address"
        }
      ],
      "stateMutability": "view",
      "type": "function"
    },
    {
      "inputs": [],
      "name": "pendingStateTimeout",
      "outputs": [
        {
          "internalType": "uint64",
          "name": "",
          "type": "uint64"
        }
      ],
      "stateMutability": "view",
      "type": "function"
    },
    {
      "inputs": [
        {
          "internalType": "uint256",
          "name": "",
          "type": "uint256"
        }
      ],
      "name": "pendingStateTransitions",
      "outputs": [
        {
          "internalType": "uint64",
          "name": "timestamp",
          "type": "uint64"
        },
        {
          "internalType": "uint64",
          "name": "lastVerifiedBatch",
          "type": "uint64"
        },
        {
          "internalType": "bytes32",
          "name": "exitRoot",
          "type": "bytes32"
        },
        {
          "internalType": "bytes32",
          "name": "stateRoot",
          "type": "bytes32"
        }
      ],
      "stateMutability": "view",
      "type": "function"
    },
    {
      "inputs": [
        {
          "internalType": "uint64",
          "name": "initPendingStateNum",
          "type": "uint64"
        },
        {
          "internalType": "uint64",
          "name": "finalPendingStateNum",
          "type": "uint64"
        },
        {
          "internalType": "uint64",
          "name": "initNumBatch",
          "type": "uint64"
        },
        {
          "internalType": "uint64",
          "name": "finalNewBatch",
          "type": "uint64"
        },
        {
          "internalType": "bytes32",
          "name": "newLocalExitRoot",
          "type": "bytes32"
        },
        {
          "internalType": "bytes32",
          "name": "newStateRoot",
          "type": "bytes32"
        },
        {
          "internalType": "uint256[2]",
          "name": "proofA",
          "type": "uint256[2]"
        },
        {
          "internalType": "uint256[2][2]",
          "name": "proofB",
          "type": "uint256[2][2]"
        },
        {
          "internalType": "uint256[2]",
          "name": "proofC",
          "type": "uint256[2]"
        }
      ],
      "name": "proveNonDeterministicPendingState",
      "outputs": [],
      "stateMutability": "nonpayable",
      "type": "function"
    },
    {
      "inputs": [],
      "name": "renounceOwnership",
      "outputs": [],
      "stateMutability": "nonpayable",
      "type": "function"
    },
    {
      "inputs": [],
      "name": "rollupVerifier",
      "outputs": [
        {
          "internalType": "contract IVerifierRollup",
          "name": "",
          "type": "address"
        }
      ],
      "stateMutability": "view",
      "type": "function"
    },
    {
      "inputs": [
        {
          "components": [
            {
              "internalType": "bytes",
              "name": "transactions",
              "type": "bytes"
            },
            {
              "internalType": "bytes32",
              "name": "globalExitRoot",
              "type": "bytes32"
            },
            {
              "internalType": "uint64",
              "name": "timestamp",
              "type": "uint64"
            },
            {
              "internalType": "uint64",
              "name": "minForcedTimestamp",
              "type": "uint64"
            }
          ],
          "internalType": "struct PolygonZkEVM.BatchData[]",
          "name": "batches",
          "type": "tuple[]"
        }
      ],
      "name": "sequenceBatches",
      "outputs": [],
      "stateMutability": "nonpayable",
      "type": "function"
    },
    {
      "inputs": [
        {
          "components": [
            {
              "internalType": "bytes",
              "name": "transactions",
              "type": "bytes"
            },
            {
              "internalType": "bytes32",
              "name": "globalExitRoot",
              "type": "bytes32"
            },
            {
              "internalType": "uint64",
              "name": "minForcedTimestamp",
              "type": "uint64"
            }
          ],
          "internalType": "struct PolygonZkEVM.ForcedBatchData[]",
          "name": "batches",
          "type": "tuple[]"
        }
      ],
      "name": "sequenceForceBatches",
      "outputs": [],
      "stateMutability": "nonpayable",
      "type": "function"
    },
    {
      "inputs": [
        {
          "internalType": "uint64",
          "name": "",
          "type": "uint64"
        }
      ],
      "name": "sequencedBatches",
      "outputs": [
        {
          "internalType": "bytes32",
          "name": "accInputHash",
          "type": "bytes32"
        },
        {
          "internalType": "uint64",
          "name": "sequencedTimestamp",
          "type": "uint64"
        },
        {
          "internalType": "uint64",
          "name": "previousLastBatchSequenced",
          "type": "uint64"
        }
      ],
      "stateMutability": "view",
      "type": "function"
    },
    {
      "inputs": [
        {
          "internalType": "bool",
          "name": "newForceBatchAllowed",
          "type": "bool"
        }
      ],
      "name": "setForceBatchAllowed",
      "outputs": [],
      "stateMutability": "nonpayable",
      "type": "function"
    },
    {
      "inputs": [
        {
          "internalType": "uint16",
          "name": "newMultiplierBatchFee",
          "type": "uint16"
        }
      ],
      "name": "setMultiplierBatchFee",
      "outputs": [],
      "stateMutability": "nonpayable",
      "type": "function"
    },
    {
      "inputs": [
        {
          "internalType": "uint64",
          "name": "newPendingStateTimeout",
          "type": "uint64"
        }
      ],
      "name": "setPendingStateTimeout",
      "outputs": [],
      "stateMutability": "nonpayable",
      "type": "function"
    },
    {
      "inputs": [
        {
          "internalType": "address",
          "name": "newTrustedAggregator",
          "type": "address"
        }
      ],
      "name": "setTrustedAggregator",
      "outputs": [],
      "stateMutability": "nonpayable",
      "type": "function"
    },
    {
      "inputs": [
        {
          "internalType": "uint64",
          "name": "newTrustedAggregatorTimeout",
          "type": "uint64"
        }
      ],
      "name": "setTrustedAggregatorTimeout",
      "outputs": [],
      "stateMutability": "nonpayable",
      "type": "function"
    },
    {
      "inputs": [
        {
          "internalType": "address",
          "name": "newTrustedSequencer",
          "type": "address"
        }
      ],
      "name": "setTrustedSequencer",
      "outputs": [],
      "stateMutability": "nonpayable",
      "type": "function"
    },
    {
      "inputs": [
        {
          "internalType": "string",
          "name": "newTrustedSequencerURL",
          "type": "string"
        }
      ],
      "name": "setTrustedSequencerURL",
      "outputs": [],
      "stateMutability": "nonpayable",
      "type": "function"
    },
    {
      "inputs": [
        {
          "internalType": "uint64",
          "name": "newVeryBatchTimeTarget",
          "type": "uint64"
        }
      ],
      "name": "setVeryBatchTimeTarget",
      "outputs": [],
      "stateMutability": "nonpayable",
      "type": "function"
    },
    {
      "inputs": [
        {
          "internalType": "address",
          "name": "newPendingAdmin",
          "type": "address"
        }
      ],
      "name": "transferAdminRole",
      "outputs": [],
      "stateMutability": "nonpayable",
      "type": "function"
    },
    {
      "inputs": [
        {
          "internalType": "address",
          "name": "newOwner",
          "type": "address"
        }
      ],
      "name": "transferOwnership",
      "outputs": [],
      "stateMutability": "nonpayable",
      "type": "function"
    },
    {
      "inputs": [],
      "name": "trustedAggregator",
      "outputs": [
        {
          "internalType": "address",
          "name": "",
          "type": "address"
        }
      ],
      "stateMutability": "view",
      "type": "function"
    },
    {
      "inputs": [],
      "name": "trustedAggregatorTimeout",
      "outputs": [
        {
          "internalType": "uint64",
          "name": "",
          "type": "uint64"
        }
      ],
      "stateMutability": "view",
      "type": "function"
    },
    {
      "inputs": [],
      "name": "trustedSequencer",
      "outputs": [
        {
          "internalType": "address",
          "name": "",
          "type": "address"
        }
      ],
      "stateMutability": "view",
      "type": "function"
    },
    {
      "inputs": [],
      "name": "trustedSequencerURL",
      "outputs": [
        {
          "internalType": "string",
          "name": "",
          "type": "string"
        }
      ],
      "stateMutability": "view",
      "type": "function"
    },
    {
      "inputs": [
        {
          "internalType": "uint64",
          "name": "pendingStateNum",
          "type": "uint64"
        },
        {
          "internalType": "uint64",
          "name": "initNumBatch",
          "type": "uint64"
        },
        {
          "internalType": "uint64",
          "name": "finalNewBatch",
          "type": "uint64"
        },
        {
          "internalType": "bytes32",
          "name": "newLocalExitRoot",
          "type": "bytes32"
        },
        {
          "internalType": "bytes32",
          "name": "newStateRoot",
          "type": "bytes32"
        },
        {
          "internalType": "uint256[2]",
          "name": "proofA",
          "type": "uint256[2]"
        },
        {
          "internalType": "uint256[2][2]",
          "name": "proofB",
          "type": "uint256[2][2]"
        },
        {
          "internalType": "uint256[2]",
          "name": "proofC",
          "type": "uint256[2]"
        }
      ],
      "name": "trustedVerifyBatches",
      "outputs": [],
      "stateMutability": "nonpayable",
      "type": "function"
    },
    {
      "inputs": [
        {
          "internalType": "uint64",
          "name": "pendingStateNum",
          "type": "uint64"
        },
        {
          "internalType": "uint64",
          "name": "initNumBatch",
          "type": "uint64"
        },
        {
          "internalType": "uint64",
          "name": "finalNewBatch",
          "type": "uint64"
        },
        {
          "internalType": "bytes32",
          "name": "newLocalExitRoot",
          "type": "bytes32"
        },
        {
          "internalType": "bytes32",
          "name": "newStateRoot",
          "type": "bytes32"
        },
        {
          "internalType": "uint256[2]",
          "name": "proofA",
          "type": "uint256[2]"
        },
        {
          "internalType": "uint256[2][2]",
          "name": "proofB",
          "type": "uint256[2][2]"
        },
        {
          "internalType": "uint256[2]",
          "name": "proofC",
          "type": "uint256[2]"
        }
      ],
      "name": "verifyBatches",
      "outputs": [],
      "stateMutability": "nonpayable",
      "type": "function"
    },
    {
      "inputs": [],
      "name": "veryBatchTimeTarget",
      "outputs": [
        {
          "internalType": "uint64",
          "name": "",
          "type": "uint64"
        }
      ],
      "stateMutability": "view",
      "type": "function"
    }
  ],
  "bytecode": "0x608060405234801561001057600080fd5b506156fb80620000216000396000f3fe608060405234801561001057600080fd5b50600436106103455760003560e01c80638da5cb5b116101bf578063cfa8ed47116100fa578063e7a7ed021161009d578063e7a7ed021461083f578063e8bf92ed14610859578063eaeb077b1461086c578063edc411211461087f578063f14916d614610892578063f2fde38b146108a5578063f851a440146108b8578063f8b823e4146108cb57600080fd5b8063cfa8ed47146107ad578063d02103ca146107c7578063d8d1091b146107da578063d8f54db0146107ed578063d939b31514610801578063dbc169761461081b578063e11f3f1814610823578063e217cfd61461083657600080fd5b8063ada8f91911610162578063ada8f919146106b0578063adc879e9146106c3578063afd23cbe146106dd578063b4d63f5814610705578063b6b0b09714610765578063c0ed84e01461077f578063c89e42df14610787578063cf1363061461079a57600080fd5b80638da5cb5b1461063f57806399f5634e146106505780639c9f3dfe146106585780639eb831b91461066b5780639f0d039d14610673578063a3c573eb1461067b578063aa58bad61461068e578063ab9fc5ef146106a657600080fd5b80634a1a89a71161028f5780637215541a116102325780637215541a1461055957806375c508b31461056c5780637fcb36531461057f578063837a473814610592578063841b24d7146106005780638b48931e1461061a5780638c3d7301146106245780638c4a0af71461062c57600080fd5b80634a1a89a7146104b65780634a910e6a146104d05780635392c5e0146104e3578063542028d51461050357806360943d6a1461050b5780636b8616ce1461051e5780636ff512cc1461053e578063715018a61461055157600080fd5b80632d0889d3116102f75780632d0889d31461040b578063383b3be814610423578063394218e9146104365780633c15826714610449578063423fa8561461045c5780634560526714610476578063458c0477146104905780634834a343146104a357600080fd5b8063107bf28c1461034a57806315064c96146103685780631816b7e51461038557806319d8ac611461039a578063220d7899146103c557806326782247146103d857806329878983146103f8575b600080fd5b6103526108d4565b60405161035f91906148b5565b60405180910390f35b6065546103759060ff1681565b604051901515815260200161035f565b6103986103933660046148cf565b610962565b005b6068546103ad906001600160401b031681565b6040516001600160401b03909116815260200161035f565b6103526103d336600461490f565b610a8c565b6074546103eb906001600160a01b031681565b60405161035f919061495c565b606a546103eb906001600160a01b031681565b610415620493e081565b60405190815260200161035f565b610375610431366004614970565b610c2d565b610398610444366004614970565b610c74565b6103986104573660046149d6565b610e30565b6068546103ad90600160401b90046001600160401b031681565b6068546103ad90600160801b90046001600160401b031681565b6072546103ad906001600160401b031681565b6103986104b1366004614a3f565b61160c565b6072546103ad90600160401b90046001600160401b031681565b6103986104de366004614970565b611955565b6104156104f1366004614970565b606d6020526000908152604090205481565b610352611a8f565b610398610519366004614b83565b611a9c565b61041561052c366004614970565b60666020526000908152604090205481565b61039861054c366004614c5a565b611e70565b610398611eee565b610398610567366004614970565b611f02565b61039861057a366004614c77565b612109565b6069546103ad906001600160401b031681565b6105d56105a0366004614d15565b6071602052600090815260409020805460018201546002909201546001600160401b0380831693600160401b90930416919084565b604080516001600160401b03958616815294909316602085015291830152606082015260800161035f565b6072546103ad90600160c01b90046001600160401b031681565b6103ad62093a8081565b610398612198565b61039861063a366004614d3c565b61226d565b6033546001600160a01b03166103eb565b6104156122e4565b610398610666366004614970565b6123cc565b610415600c81565b607554610415565b6070546103eb906001600160a01b031681565b6065546103ad9061010090046001600160401b031681565b6103ad6206978081565b6103986106be366004614c5a565b61257a565b606c546103ad90600160a81b90046001600160401b031681565b6065546106f290600160481b900461ffff1681565b60405161ffff909116815260200161035f565b610740610713366004614970565b606760205260009081526040902080546001909101546001600160401b0380821691600160401b90041683565b604080519384526001600160401b03928316602085015291169082015260600161035f565b6065546103eb90600160581b90046001600160a01b031681565b6103ad6125ef565b610398610795366004614d59565b61263c565b6103986107a8366004614970565b6126a2565b6069546103eb90600160401b90046001600160a01b031681565b606c546103eb906001600160a01b031681565b6103986107e83660046149d6565b612723565b606c5461037590600160a01b900460ff1681565b6072546103ad90600160801b90046001600160401b031681565b610398612c09565b610398610831366004614c77565b612ca3565b6103ad6103e881565b6068546103ad90600160c01b90046001600160401b031681565b606b546103eb906001600160a01b031681565b61039861087a366004614d8d565b612de8565b61039861088d366004614a3f565b613120565b6103986108a0366004614c5a565b613240565b6103986108b3366004614c5a565b6132b5565b6073546103eb906001600160a01b031681565b61041560755481565b606f80546108e190614e04565b80601f016020809104026020016040519081016040528092919081815260200182805461090d90614e04565b801561095a5780601f1061092f5761010080835404028352916020019161095a565b820191906000526020600020905b81548152906001019060200180831161093d57829003601f168201915b505050505081565b6073546001600160a01b031633146109955760405162461bcd60e51b815260040161098c90614e3e565b60405180910390fd5b6103e88161ffff16101580156109b057506104008161ffff16105b610a355760405162461bcd60e51b815260206004820152604a60248201527f506f6c79676f6e5a6b45564d3a3a7365744d756c7469706c696572426174636860448201527f4665653a206e65774d756c7469706c696572426174636846656520696e636f72606482015269726563742072616e676560b01b608482015260a40161098c565b6065805461ffff60481b1916600160481b61ffff8416908102919091179091556040519081527f7019933d795eba185c180209e8ae8bffbaa25bcef293364687702c31f4d302c5906020015b60405180910390a150565b6001600160401b03808616600081815260676020526040808220549388168252902054606092911580610abe57508115155b610b32576040805162461bcd60e51b81526020600482015260248101919091527f506f6c79676f6e5a6b45564d3a3a676574496e707574536e61726b427974657360448201527f3a206f6c64416363496e7075744861736820646f6573206e6f74206578697374606482015260840161098c565b80610ba7576040805162461bcd60e51b81526020600482015260248101919091527f506f6c79676f6e5a6b45564d3a3a676574496e707574536e61726b427974657360448201527f3a206e6577416363496e7075744861736820646f6573206e6f74206578697374606482015260840161098c565b606c54604080516001600160601b03193360601b166020820152603481019790975260548701939093526001600160c01b031960c0998a1b81166074880152600160a81b909104891b8116607c870152608486019490945260a485015260c4840194909452509290931b90911660e4830152805180830360cc01815260ec909201905290565b6072546001600160401b0382811660009081526071602052604081205490924292610c6392600160801b90920481169116614e97565b6001600160401b0316111592915050565b6073546001600160a01b03163314610c9e5760405162461bcd60e51b815260040161098c90614e3e565b62093a806001600160401b0382161115610d375760405162461bcd60e51b815260206004820152604e60248201527f506f6c79676f6e5a6b45564d3a3a73657454727573746564416767726567617460448201527f6f7254696d656f75743a20457863656564206d61782068616c7420616767726560648201526d19d85d1a5bdb881d1a5b595bdd5d60921b608482015260a40161098c565b60655460ff16610dda576072546001600160401b03600160c01b909104811690821610610dda5760405162461bcd60e51b8152602060048201526044602482018190527f506f6c79676f6e5a6b45564d3a3a736574547275737465644167677265676174908201527f6f7254696d656f75743a204e65772074696d656f7574206d757374206265206c60648201526337bbb2b960e11b608482015260a40161098c565b607280546001600160c01b0316600160c01b6001600160401b038416908102919091179091556040519081527f1f4fa24c2e4bad19a7f3ec5c5485f70d46c798461c2e684f55bbd0fc661373a190602001610a81565b60655460ff1615610e535760405162461bcd60e51b815260040161098c90614ec2565b606954600160401b90046001600160a01b03163314610eda5760405162461bcd60e51b815260206004820152603a60248201527f506f6c79676f6e5a6b45564d3a3a6f6e6c795472757374656453657175656e6360448201527f65723a204f6e6c7920747275737465642073657175656e636572000000000000606482015260840161098c565b8080610f4e5760405162461bcd60e51b815260206004820152603d60248201527f506f6c79676f6e5a6b45564d3a3a73657175656e6365426174636865733a204160448201527f74206c65617374206d7573742073657175656e63652031206261746368000000606482015260840161098c565b6103e88110610fc7576040805162461bcd60e51b81526020600482015260248101919091527f506f6c79676f6e5a6b45564d3a3a73657175656e6365426174636865733a204360448201527f616e6e6f742073657175656e63652074686174206d616e792062617463686573606482015260840161098c565b6068546001600160401b03600160401b82048116600081815260676020526040812054838516949293600160801b909304909216919082905b8681101561143c57600089898381811061101c5761101c614f2a565b905060200281019061102e9190614f40565b61103790614f60565b805180516020909101206060820151919250906001600160401b0316156111cd578561106281614fec565b9650506000818360200151846060015160405160200161108493929190615012565b60408051601f1981840301815291815281516020928301206001600160401b038a166000908152606690935291205490915081146111185760405162461bcd60e51b815260206004820152603d60248201526000805160206156a683398151915260448201527f6f7263656420626174636865732064617461206d757374206d61746368000000606482015260840161098c565b6001600160401b0380881660009081526066602052604080822091909155606085015190850151908216911610156111c75760405162461bcd60e51b815260206004820152605860248201526000805160206156a683398151915260448201527f6f7263656420626174636865732074696d657374616d70206d757374206265206064820152773134b3b3b2b91037b91032b8bab0b6103a3430b71036b4b760411b608482015260a40161098c565b50611342565b602082015115806112565750606c5460208301516040516312bd9b1960e11b81526001600160a01b039092169163257b3632916112109160040190815260200190565b6020604051808303816000875af115801561122f573d6000803e3d6000fd5b505050506040513d601f19601f820116820180604052508101906112539190615035565b15155b6112c85760405162461bcd60e51b815260206004820152603a60248201527f506f6c79676f6e5a6b45564d3a3a73657175656e6365426174636865733a204760448201527f6c6f62616c206578697420726f6f74206d757374206578697374000000000000606482015260840161098c565b815151620493e0116113425760405162461bcd60e51b815260206004820152603a60248201527f506f6c79676f6e5a6b45564d3a3a73657175656e6365426174636865733a205460448201527f72616e73616374696f6e73206279746573206f766572666c6f77000000000000606482015260840161098c565b876001600160401b031682604001516001600160401b03161015801561137557504282604001516001600160401b031611155b6113e75760405162461bcd60e51b815260206004820152603d60248201527f506f6c79676f6e5a6b45564d3a3a73657175656e6365426174636865733a205460448201527f696d657374616d70206d75737420626520696e736964652072616e6765000000606482015260840161098c565b8481836020015184604001513360405160200161140895949392919061504e565b60405160208183030381529060405280519060200120945081604001519750505080806114349061508d565b915050611000565b506114478685614e97565b6068549094506001600160401b03600160c01b909104811690841611156114bc5760405162461bcd60e51b815260206004820152603560248201526000805160206156a68339815191526044820152746f7263652062617463686573206f766572666c6f7760581b606482015260840161098c565b60006114c882856150a6565b6114db906001600160401b0316886150ce565b60408051606081018252858152426001600160401b03908116602080840191825260688054600160401b9081900485168688019081528d861660008181526067909552979093209551865592516001909501805492519585166001600160801b03199384161795851684029590951790945583548c8416911617930292909217905590915082811690851614611591576068805467ffffffffffffffff60801b1916600160801b6001600160401b038716021790555b6115c53330836115a060755490565b6115aa91906150e5565b606554600160581b90046001600160a01b031692919061332b565b6115cd61339c565b6040516001600160401b038616907f303446e6a8cb73c83dff421c0b1d5e5ce0719dab1bff13660fc254e58cc17fce90600090a2505050505050505050565b60655460ff161561162f5760405162461bcd60e51b815260040161098c90614ec2565b6072546001600160401b03878116600090815260676020526040902060010154429261166692600160c01b90910481169116614e97565b6001600160401b031611156116ef5760405162461bcd60e51b815260206004820152604360248201527f506f6c79676f6e5a6b45564d3a3a766572696679426174636865733a2054727560448201527f737465642061676772656761746f722074696d656f7574206e6f7420657870696064820152621c995960ea1b608482015260a40161098c565b6103e86116fc88886150a6565b6001600160401b0316106117785760405162461bcd60e51b815260206004820152603c60248201527f506f6c79676f6e5a6b45564d3a3a766572696679426174636865733a2043616e60448201527f6e6f74207665726966792074686174206d616e79206261746368657300000000606482015260840161098c565b6117888888888888888888613440565b61179186613943565b607254600160801b90046001600160401b0316600003611859576069805467ffffffffffffffff19166001600160401b038881169182179092556000908152606d6020526040902085905560725416156117f657607280546001600160801b03191690555b606c546040516333d6247d60e01b8152600481018790526001600160a01b03909116906333d6247d90602401600060405180830381600087803b15801561183c57600080fd5b505af1158015611850573d6000803e3d6000fd5b5050505061190a565b61186161339c565b607280546001600160401b031690600061187a83614fec565b82546001600160401b039182166101009390930a92830292820219169190911790915560408051608081018252428316815289831660208083019182528284018b8152606084018b8152607254871660009081526071909352949091209251835492518616600160401b026001600160801b03199093169516949094171781559151600183015551600290910155505b60405184815233906001600160401b038816907f9c72852172521097ba7e1482e6b44b351323df0155f97f4ea18fcec28e1f5966906020015b60405180910390a35050505050505050565b606a546001600160a01b03163314611a835760655460ff16156119eb5760405162461bcd60e51b815260206004820152604260248201527f506f6c79676f6e5a6b45564d3a3a636f6e736f6c696461746550656e64696e6760448201527f53746174653a206f6e6c79206966206e6f7420656d657267656e637920737461606482015261746560f01b608482015260a40161098c565b6119f481610c2d565b611a835760405162461bcd60e51b815260206004820152605460248201527f506f6c79676f6e5a6b45564d3a3a636f6e736f6c696461746550656e64696e6760448201527f53746174653a2050656e64696e67207374617465206973206e6f7420726561646064820152731e481d1bc818994818dbdb9cdbdb1a59185d195960621b608482015260a40161098c565b611a8c81613b29565b50565b606e80546108e190614e04565b600054610100900460ff1615808015611abc5750600054600160ff909116105b80611ad65750303b158015611ad6575060005460ff166001145b611b395760405162461bcd60e51b815260206004820152602e60248201527f496e697469616c697a61626c653a20636f6e747261637420697320616c72656160448201526d191e481a5b9a5d1a585b1a5e995960921b606482015260840161098c565b6000805460ff191660011790558015611b5c576000805461ff0019166101001790555b606c80546001600160a01b03199081166001600160a01b038c81169190911790925560658054600160581b600160f81b031916600160581b8c851602179055606b805482168a841617905560708054909116918816919091179055611bc46020860186614c5a565b607380546001600160a01b0319166001600160a01b0392909216919091179055611bf46060860160408701614c5a565b606980546001600160a01b0392909216600160401b02600160401b600160e01b0319909216919091179055611c2f60c0860160a08701614c5a565b606a80546001600160a01b0319166001600160a01b039290921691909117905560008052606d60209081527fda90043ba5b4096ba14704bc227ab0d3167da15b887e62ab2e76e37daa711356859055611c8e9060408701908701614970565b606c80546001600160401b0392909216600160a81b0267ffffffffffffffff60a81b19909216919091179055611cca60a0860160808701614d3c565b606c8054911515600160a01b0260ff60a01b19909216919091179055606e611cf2848261514a565b50606f611cff838261514a565b5062093a80611d146080870160608801614970565b6001600160401b03161115611d3b5760405162461bcd60e51b815260040161098c90615209565b611d4b6080860160608701614970565b607280546001600160401b0392909216600160801b0267ffffffffffffffff60801b1990921691909117905562093a80611d8b60e0870160c08801614970565b6001600160401b03161115611db25760405162461bcd60e51b815260040161098c90615209565b611dc260e0860160c08701614970565b607280546001600160c01b0316600160c01b6001600160401b039390931692909202919091179055670de0b6b3a7640000607555606580546affffffffffffffffffff0019166a03ea000000000000070800179055611e1f613cfa565b8015611e65576000805461ff0019169055604051600181527f7f26b83ff96e1f2b6a682f133852f6798a09c465da95921460cefb38474024989060200160405180910390a15b505050505050505050565b6073546001600160a01b03163314611e9a5760405162461bcd60e51b815260040161098c90614e3e565b60698054600160401b600160e01b031916600160401b6001600160a01b038416021790556040517ff54144f9611984021529f814a1cb6a41e22c58351510a0d9f7e822618abb9cc090610a8190839061495c565b611ef6613d6e565b611f006000613dc8565b565b6033546001600160a01b03163314612101576000611f1e6125ef565b9050806001600160401b0316826001600160401b031611611f955760405162461bcd60e51b815260206004820152603c602482015260008051602061562683398151915260448201527f746174653a20426174636820616c726561647920766572696669656400000000606482015260840161098c565b6068546001600160401b03600160401b909104811690831611801590611fd757506001600160401b038083166000908152606760205260409020600101541615155b6120505760405162461bcd60e51b8152602060048201526050602482015260008051602061562683398151915260448201527f746174653a204261746368206e6f742073657175656e636564206f72206e6f7460648201526f20656e64206f662073657175656e636560801b608482015260a40161098c565b6001600160401b03808316600090815260676020526040902060010154429161207e9162093a809116614e97565b6001600160401b031611156120ff5760405162461bcd60e51b815260206004820152604d602482015260008051602061562683398151915260448201527f746174653a204167677265676174696f6e2068616c742074696d656f7574206960648201526c1cc81b9bdd08195e1c1a5c9959609a1b608482015260a40161098c565b505b611a8c613e1a565b60655460ff161561212c5760405162461bcd60e51b815260040161098c90614ec2565b61213d898989898989898989613e8a565b6001600160401b0386166000908152606d60209081526040918290205482519081529081018690527f1f44c21118c4603cfb4e1b621dbcfa2b73efcececee2b99b620b2953d33a7010910160405180910390a1611e65613e1a565b6074546001600160a01b031633146122145760405162461bcd60e51b815260206004820152603960248201527f506f6c79676f6e5a6b45564d3a3a61636365707441646d696e526f6c653a206360448201527830b63632b91034b9903737ba103832b73234b733a0b236b4b760391b606482015260840161098c565b607454607380546001600160a01b0319166001600160a01b0390921691821790556040517f056dc487bbf0795d0bbb1b4f0af523a855503cff740bfb4d5475f7a90c091e8e916122639161495c565b60405180910390a1565b6073546001600160a01b031633146122975760405162461bcd60e51b815260040161098c90614e3e565b606c8054821515600160a01b0260ff60a01b199091161790556040517fbacda50a4a8575be1d91a7ebe29ee45056f3a94f12a2281eb6b43afa33bcefe690610a8190831515815260200190565b6065546040516370a0823160e01b81526000918291600160581b9091046001600160a01b0316906370a082319061231f90309060040161495c565b602060405180830381865afa15801561233c573d6000803e3d6000fd5b505050506040513d601f19601f820116820180604052508101906123609190615035565b9050600061236c6125ef565b6068546001600160401b03600160401b820481169161239c91600160801b8204811691600160c01b9004166150a6565b6123a69190614e97565b6123b091906150a6565b6001600160401b031690506123c58183615278565b9250505090565b6073546001600160a01b031633146123f65760405162461bcd60e51b815260040161098c90614e3e565b62093a806001600160401b038216111561248a5760405162461bcd60e51b815260206004820152604960248201527f506f6c79676f6e5a6b45564d3a3a73657450656e64696e67537461746554696d60448201527f656f75743a20457863656564206d61782068616c74206167677265676174696f6064820152681b881d1a5b595bdd5d60ba1b608482015260a40161098c565b60655460ff1661251f576072546001600160401b03600160801b90910481169082161061251f5760405162461bcd60e51b815260206004820152603f60248201527f506f6c79676f6e5a6b45564d3a3a73657450656e64696e67537461746554696d60448201527f656f75743a204e65772074696d656f7574206d757374206265206c6f77657200606482015260840161098c565b6072805467ffffffffffffffff60801b1916600160801b6001600160401b038416908102919091179091556040519081527fc4121f4e22c69632ebb7cf1f462be0511dc034f999b52013eddfb24aab765c7590602001610a81565b6073546001600160a01b031633146125a45760405162461bcd60e51b815260040161098c90614e3e565b607480546001600160a01b0319166001600160a01b0383161790556040517fa5b56b7906fd0a20e3f35120dd8343db1e12e037a6c90111c7e42885e82a1ce690610a8190839061495c565b6072546000906001600160401b03161561262c57506072546001600160401b03908116600090815260716020526040902054600160401b90041690565b506069546001600160401b031690565b6073546001600160a01b031633146126665760405162461bcd60e51b815260040161098c90614e3e565b606e612672828261514a565b507f6b8f723a4c7a5335cafae8a598a0aa0301be1387c037dccc085b62add6448b2081604051610a8191906148b5565b6073546001600160a01b031633146126cc5760405162461bcd60e51b815260040161098c90614e3e565b6065805468ffffffffffffffff0019166101006001600160401b038416908102919091179091556040519081527f03a12f7e53d2a9e31a9e913d85c12c4c38feb92abe003c111329298af088437f90602001610a81565b60655460ff16156127465760405162461bcd60e51b815260040161098c90614ec2565b606c54600160a01b900460ff1615156001146127745760405162461bcd60e51b815260040161098c9061528c565b80806127d65760405162461bcd60e51b815260206004820152603f602482015260008051602061568683398151915260448201527f65733a204d75737420666f726365206174206c65617374203120626174636800606482015260840161098c565b6103e881106128475760405162461bcd60e51b8152602060048201526043602482015260008051602061568683398151915260448201527f65733a2043616e6e6f74207665726966792074686174206d616e79206261746360648201526268657360e81b608482015260a40161098c565b6068546001600160401b03600160c01b820481169161286f918491600160801b9004166152f5565b11156128cb5760405162461bcd60e51b81526020600482015260376024820152600080516020615686833981519152604482015276195cce88119bdc98d94818985d18da081a5b9d985b1a59604a1b606482015260840161098c565b6068546001600160401b03600160401b820481166000818152606760205260408120549193600160801b9004909216915b84811015612b1e57600087878381811061291857612918614f2a565b905060200281019061292a919061530d565b61293390615323565b90508361293f81614fec565b8251805160209182012081850151604080870151905194995091945060009361296b9386939101615012565b60408051601f1981840301815291815281516020928301206001600160401b038916600090815260669093529120549091508114612a0a5760405162461bcd60e51b8152602060048201526042602482015260008051602061568683398151915260448201527f65733a20466f7263656420626174636865732064617461206d757374206d61746064820152610c6d60f31b608482015260a40161098c565b6001600160401b038616600090815260666020526040812055612a2e6001896150ce565b8403612ac55742620697808460400151612a489190614e97565b6001600160401b03161115612ac55760405162461bcd60e51b8152602060048201526049602482015260008051602061568683398151915260448201527f65733a20466f72636564206261746368206973206e6f7420696e2074696d656f6064820152681d5d081c195c9a5bd960ba1b608482015260a40161098c565b848284602001514233604051602001612ae295949392919061504e565b6040516020818303038152906040528051906020012094508680612b0590614fec565b9750505050508080612b169061508d565b9150506128fc565b50606880546001600160401b0342811667ffffffffffffffff199092168217808455604080516060810182528681526020808201958652600160401b9384900485168284019081528a86166000818152606790935284832093518455965160019390930180549151871686026001600160801b031990921693871693909317179091558554938816600160801b0267ffffffffffffffff60801b1993860293909316600160401b600160c01b03199094169390931791909117909355915190917f648a61dd2438f072f5a1960939abd30f37aea80d2e94c9792ad142d3e0a490a491a2505050505050565b6073546001600160a01b03163314612c335760405162461bcd60e51b815260040161098c90614e3e565b607060009054906101000a90046001600160a01b03166001600160a01b031663dbc169766040518163ffffffff1660e01b8152600401600060405180830381600087803b158015612c8357600080fd5b505af1158015612c97573d6000803e3d6000fd5b50505050611f006144be565b606a546001600160a01b03163314612ccd5760405162461bcd60e51b815260040161098c9061539e565b612cde898989898989898989613e8a565b6069805467ffffffffffffffff19166001600160401b038881169182179092556000908152606d602052604090208590556072541615612d2957607280546001600160801b03191690555b606c546040516333d6247d60e01b8152600481018790526001600160a01b03909116906333d6247d90602401600060405180830381600087803b158015612d6f57600080fd5b505af1158015612d83573d6000803e3d6000fd5b5050607280546001600160c01b031661127560c71b179055505060405184815233906001600160401b038816907fcc1b5520188bf1dd3e63f98164b577c4d75c11a619ddea692112f0d1aec4cf729060200160405180910390a3505050505050505050565b60655460ff1615612e0b5760405162461bcd60e51b815260040161098c90614ec2565b606c54600160a01b900460ff161515600114612e395760405162461bcd60e51b815260040161098c9061528c565b6000612e4460755490565b905081811115612ea95760405162461bcd60e51b815260206004820152602a60248201527f506f6c79676f6e5a6b45564d3a3a666f72636542617463683a204e6f7420656e6044820152696f756768206d6174696360b01b606482015260840161098c565b620493e08310612f195760405162461bcd60e51b815260206004820152603560248201527f506f6c79676f6e5a6b45564d3a3a666f72636542617463683a205472616e73616044820152746374696f6e73206279746573206f766572666c6f7760581b606482015260840161098c565b606554612f3890600160581b90046001600160a01b031633308461332b565b606c5460408051633ed691ef60e01b815290516000926001600160a01b031691633ed691ef9160048083019260209291908290030181865afa158015612f82573d6000803e3d6000fd5b505050506040513d601f19601f82011682018060405250810190612fa69190615035565b60688054919250600160c01b9091046001600160401b0316906018612fca83614fec565b91906101000a8154816001600160401b0302191690836001600160401b03160217905550508484604051612fff9291906153fb565b6040519081900381206130189183904290602001615012565b60408051808303601f190181529181528151602092830120606854600160c01b90046001600160401b0316600090815260669093529120553233036130bc57606854604080518381523360208201526060918101829052600091810191909152600160c01b9091046001600160401b0316907ff94bb37db835f1ab585ee00041849a09b12cd081d77fa15ca070757619cbc9319060800160405180910390a2613119565b606860189054906101000a90046001600160401b03166001600160401b03167ff94bb37db835f1ab585ee00041849a09b12cd081d77fa15ca070757619cbc93182338888604051613110949392919061540b565b60405180910390a25b5050505050565b606a546001600160a01b0316331461314a5760405162461bcd60e51b815260040161098c9061539e565b61315a8888888888888888613440565b6069805467ffffffffffffffff19166001600160401b038881169182179092556000908152606d6020526040902085905560725416156131a557607280546001600160801b03191690555b606c546040516333d6247d60e01b8152600481018790526001600160a01b03909116906333d6247d90602401600060405180830381600087803b1580156131eb57600080fd5b505af11580156131ff573d6000803e3d6000fd5b50506040518681523392506001600160401b03891691507f0c0ce073a7d7b5850c04ccc4b20ee7d3179d5f57d0ac44399565792c0f72fce790602001611943565b6073546001600160a01b0316331461326a5760405162461bcd60e51b815260040161098c90614e3e565b606a80546001600160a01b0319166001600160a01b0383161790556040517f61f8fec29495a3078e9271456f05fb0707fd4e41f7661865f80fc437d06681ca90610a8190839061495c565b6132bd613d6e565b6001600160a01b0381166133225760405162461bcd60e51b815260206004820152602660248201527f4f776e61626c653a206e6577206f776e657220697320746865207a65726f206160448201526564647265737360d01b606482015260840161098c565b611a8c81613dc8565b6040516001600160a01b03808516602483015283166044820152606481018290526133969085906323b872dd60e01b906084015b60408051601f198184030181529190526020810180516001600160e01b03166001600160e01b03199093169290921790915261456b565b50505050565b6072546001600160401b03600160401b8204811691161115611f00576072546000906133d990600160401b90046001600160401b03166001614e97565b90506133e481610c2d565b15611a8c576072546000906002906134069084906001600160401b03166150a6565b6134109190615452565b61341a9083614e97565b905061342581610c2d565b156134375761343381613b29565b5050565b61343382613b29565b60008061344b6125ef565b90506001600160401b038a16156135b1576072546001600160401b03908116908b1611156135035760405162461bcd60e51b815260206004820152605960248201527f506f6c79676f6e5a6b45564d3a3a5f766572696679426174636865733a20706560448201527f6e64696e6753746174654e756d206d757374206265206c657373206f7220657160648201527875616c207468616e206c61737450656e64696e67537461746560381b608482015260a40161098c565b6001600160401b03808b1660009081526071602052604090206002810154815490945090918b8116600160401b90920416146135ab5760405162461bcd60e51b815260206004820152604d602482015260008051602061564683398151915260448201527f69744e756d4261746368206d757374206d61746368207468652070656e64696e60648201526c0ce40e6e8c2e8ca40c4c2e8c6d609b1b608482015260a40161098c565b506136d7565b6001600160401b0389166000908152606d602052604090205491508161363b5760405162461bcd60e51b815260206004820152604460248201819052600080516020615646833981519152908201527f69744e756d426174636820737461746520726f6f7420646f6573206e6f7420656064820152631e1a5cdd60e21b608482015260a40161098c565b806001600160401b0316896001600160401b031611156136d75760405162461bcd60e51b815260206004820152605e602482015260008051602061564683398151915260448201527f69744e756d4261746368206d757374206265206c657373206f7220657175616c60648201527f207468616e2063757272656e744c617374566572696669656442617463680000608482015260a40161098c565b806001600160401b0316886001600160401b03161161377f5760405162461bcd60e51b815260206004820152605860248201527f506f6c79676f6e5a6b45564d3a3a5f766572696679426174636865733a20666960448201527f6e616c4e65774261746368206d75737420626520626967676572207468616e206064820152770c6eae4e4cadce898c2e6e8accae4d2ccd2cac884c2e8c6d60431b608482015260a40161098c565b600061378e8a8a8a868b610a8c565b905060007f30644e72e131a029b85045b68181585d2833e84879b9709143e1f593f00000016002836040516137c39190615478565b602060405180830381855afa1580156137e0573d6000803e3d6000fd5b5050506040513d601f19601f820116820180604052508101906138039190615035565b61380d919061548a565b606b546040805160208101825283815290516343753b4d60e01b81529293506001600160a01b03909116916343753b4d91613851918b918b918b919060040161549e565b602060405180830381865afa15801561386e573d6000803e3d6000fd5b505050506040513d601f19601f820116820180604052508101906138929190615518565b6138f25760405162461bcd60e51b815260206004820152602b60248201527f506f6c79676f6e5a6b45564d3a3a5f766572696679426174636865733a20496e60448201526a3b30b634b210383937b7b360a91b606482015260840161098c565b61393533613900858d6150a6565b6001600160401b03166139116122e4565b61391b91906150e5565b606554600160581b90046001600160a01b03169190614642565b505050505050505050505050565b600061394d6125ef565b90508160008061395d84846150a6565b6001600160401b031690505b836001600160401b0316836001600160401b031614613a0f576001600160401b038084166000908152606760205260409020606554600182015491926101009091048116916139b99116426150ce565b11156139f45760018101546139de90600160401b90046001600160401b0316856150a6565b6139f1906001600160401b0316846152f5565b92505b60010154600160401b90046001600160401b03169250613969565b6000613a1b83836150ce565b905082811015613a95576000613a3182856150ce565b9050600c8111613a415780613a44565b600c5b9050613a518160036150e5565b613a5c90600a615619565b606554613a75908390600160481b900461ffff16615619565b607554613a8291906150e5565b613a8c9190615278565b60755550613b21565b6000613aa184836150ce565b9050600c8111613ab15780613ab4565b600c5b90506000613ac38260036150e5565b613ace90600a615619565b606554613ae7908490600160481b900461ffff16615619565b607554613af491906150e5565b613afe9190615278565b905080607554607554613b1191906150e5565b613b1b9190615278565b60755550505b505050505050565b6072546001600160401b03600160401b9091048116908216118015613b5d57506072546001600160401b0390811690821611155b613bcf5760405162461bcd60e51b815260206004820152603f60248201527f506f6c79676f6e5a6b45564d3a3a5f636f6e736f6c696461746550656e64696e60448201527f6753746174653a2070656e64696e6753746174654e756d20696e76616c696400606482015260840161098c565b6001600160401b038181166000818152607160209081526040808320805460698054600160401b9283900490981667ffffffffffffffff19909816881790556002820154878652606d90945293829020929092556072805467ffffffffffffffff60401b19169390940292909217909255606c54600183015491516333d6247d60e01b815260048101929092529192916001600160a01b0316906333d6247d90602401600060405180830381600087803b158015613c8c57600080fd5b505af1158015613ca0573d6000803e3d6000fd5b50505050826001600160401b0316816001600160401b03167f328d3c6c0fd6f1be0515e422f2d87e59f25922cbc2233568515a0c4bc3f8510e8460020154604051613ced91815260200190565b60405180910390a3505050565b600054610100900460ff16613d655760405162461bcd60e51b815260206004820152602b60248201527f496e697469616c697a61626c653a20636f6e7472616374206973206e6f74206960448201526a6e697469616c697a696e6760a81b606482015260840161098c565b611f0033613dc8565b6033546001600160a01b03163314611f005760405162461bcd60e51b815260206004820181905260248201527f4f776e61626c653a2063616c6c6572206973206e6f7420746865206f776e6572604482015260640161098c565b603380546001600160a01b038381166001600160a01b0319831681179093556040519116919082907f8be0079c531659141344cd1fd0a4f28419497f9722a3daafe3b4186f6b6457e090600090a35050565b607060009054906101000a90046001600160a01b03166001600160a01b0316632072f6c56040518163ffffffff1660e01b8152600401600060405180830381600087803b158015613e6a57600080fd5b505af1158015613e7e573d6000803e3d6000fd5b50505050611f00614672565b60006001600160401b038a1615613ffa576072546001600160401b03908116908b161115613f425760405162461bcd60e51b8152602060048201526065602482015260008051602061566683398151915260448201527f696e6753746174653a2070656e64696e6753746174654e756d206d757374206260648201527f65206c657373206f7220657175616c207468616e206c61737450656e64696e67608482015264537461746560d81b60a482015260c40161098c565b506001600160401b03808a1660009081526071602052604090206002810154815490928a8116600160401b9092041614613ff45760405162461bcd60e51b8152602060048201526059602482015260008051602061566683398151915260448201527f696e6753746174653a20696e69744e756d4261746368206d757374206d6174636064820152780d040e8d0ca40e0cadcc8d2dcce40e6e8c2e8ca40c4c2e8c6d603b1b608482015260a40161098c565b50614133565b506001600160401b0387166000908152606d60205260409020548061408e5760405162461bcd60e51b8152602060048201526050602482015260008051602061566683398151915260448201527f696e6753746174653a20696e69744e756d426174636820737461746520726f6f60648201526f1d08191bd95cc81b9bdd08195e1a5cdd60821b608482015260a40161098c565b6069546001600160401b0390811690891611156141335760405162461bcd60e51b8152602060048201526063602482015260008051602061566683398151915260448201527f696e6753746174653a20696e69744e756d4261746368206d757374206265206c60648201527f657373206f7220657175616c207468616e206c617374566572696669656442616084820152620e8c6d60eb1b60a482015260c40161098c565b6072546001600160401b03908116908a16118015906141635750896001600160401b0316896001600160401b0316115b801561418457506072546001600160401b03600160401b9091048116908a16115b6141f55760405162461bcd60e51b8152602060048201526048602482015260008051602061566683398151915260448201527f696e6753746174653a2066696e616c50656e64696e6753746174654e756d20696064820152671b98dbdc9c9958dd60c21b608482015260a40161098c565b6001600160401b03898116600090815260716020526040902054600160401b90048116908816146142ac5760405162461bcd60e51b8152602060048201526061602482015260008051602061566683398151915260448201527f696e6753746174653a2066696e616c4e65774261746368206d7573742062652060648201527f657175616c20746f2063757272656e744c6173745665726966696564426174636084820152600d60fb1b60a482015260c40161098c565b60006142bb898989858a610a8c565b905060007f30644e72e131a029b85045b68181585d2833e84879b9709143e1f593f00000016002836040516142f09190615478565b602060405180830381855afa15801561430d573d6000803e3d6000fd5b5050506040513d601f19601f820116820180604052508101906143309190615035565b61433a919061548a565b606b546040805160208101825283815290516343753b4d60e01b81529293506001600160a01b03909116916343753b4d9161437e918a918a918a919060040161549e565b602060405180830381865afa15801561439b573d6000803e3d6000fd5b505050506040513d601f19601f820116820180604052508101906143bf9190615518565b6144195760405162461bcd60e51b8152602060048201526037602482015260008051602061566683398151915260448201527634b733a9ba30ba329d1024b73b30b634b210383937b7b360491b606482015260840161098c565b6001600160401b038b166000908152607160205260409020600201548790036139355760405162461bcd60e51b815260206004820152605b602482015260008051602061566683398151915260448201527f696e6753746174653a2053746f72656420726f6f74206d75737420626520646960648201527f66666572656e74207468616e206e657720737461746520726f6f740000000000608482015260a40161098c565b60655460ff166145365760405162461bcd60e51b815260206004820152603b60248201527f456d657267656e63794d616e616765723a3a6966456d657267656e637953746160448201527f74653a206f6e6c7920696620656d657267656e63792073746174650000000000606482015260840161098c565b6065805460ff191690556040517f1e5e34eea33501aecf2ebec9fe0e884a40804275ea7fe10b2ba084c8374308b390600090a1565b60006145c0826040518060400160405280602081526020017f5361666545524332303a206c6f772d6c6576656c2063616c6c206661696c6564815250856001600160a01b03166146cd9092919063ffffffff16565b80519091501561463d57808060200190518101906145de9190615518565b61463d5760405162461bcd60e51b815260206004820152602a60248201527f5361666545524332303a204552433230206f7065726174696f6e20646964206e6044820152691bdd081cdd58d8d9595960b21b606482015260840161098c565b505050565b6040516001600160a01b03831660248201526044810182905261463d90849063a9059cbb60e01b9060640161335f565b60655460ff16156146955760405162461bcd60e51b815260040161098c90614ec2565b6065805460ff191660011790556040517f2261efe5aef6fedc1fd1550b25facc9181745623049c7901287030b9ad1a549790600090a1565b60606146dc84846000856146e4565b949350505050565b6060824710156147455760405162461bcd60e51b815260206004820152602660248201527f416464726573733a20696e73756666696369656e742062616c616e636520666f6044820152651c8818d85b1b60d21b606482015260840161098c565b600080866001600160a01b031685876040516147619190615478565b60006040518083038185875af1925050503d806000811461479e576040519150601f19603f3d011682016040523d82523d6000602084013e6147a3565b606091505b50915091506147b4878383876147bf565b979650505050505050565b6060831561482e578251600003614827576001600160a01b0385163b6148275760405162461bcd60e51b815260206004820152601d60248201527f416464726573733a2063616c6c20746f206e6f6e2d636f6e7472616374000000604482015260640161098c565b50816146dc565b6146dc83838151156148435781518083602001fd5b8060405162461bcd60e51b815260040161098c91906148b5565b60005b83811015614878578181015183820152602001614860565b838111156133965750506000910152565b600081518084526148a181602086016020860161485d565b601f01601f19169290920160200192915050565b6020815260006148c86020830184614889565b9392505050565b6000602082840312156148e157600080fd5b813561ffff811681146148c857600080fd5b80356001600160401b038116811461490a57600080fd5b919050565b600080600080600060a0868803121561492757600080fd5b614930866148f3565b945061493e602087016148f3565b94979496505050506040830135926060810135926080909101359150565b6001600160a01b0391909116815260200190565b60006020828403121561498257600080fd5b6148c8826148f3565b60008083601f84011261499d57600080fd5b5081356001600160401b038111156149b457600080fd5b6020830191508360208260051b85010111156149cf57600080fd5b9250929050565b600080602083850312156149e957600080fd5b82356001600160401b038111156149ff57600080fd5b614a0b8582860161498b565b90969095509350505050565b8060408101831015614a2857600080fd5b92915050565b8060808101831015614a2857600080fd5b6000806000806000806000806101a0898b031215614a5c57600080fd5b614a65896148f3565b9750614a7360208a016148f3565b9650614a8160408a016148f3565b95506060890135945060808901359350614a9e8a60a08b01614a17565b9250614aad8a60e08b01614a2e565b9150614abd8a6101608b01614a17565b90509295985092959890939650565b6001600160a01b0381168114611a8c57600080fd5b634e487b7160e01b600052604160045260246000fd5b600082601f830112614b0857600080fd5b81356001600160401b0380821115614b2257614b22614ae1565b604051601f8301601f19908116603f01168101908282118183101715614b4a57614b4a614ae1565b81604052838152866020858801011115614b6357600080fd5b836020870160208301376000602085830101528094505050505092915050565b600080600080600080600080888a036101c0811215614ba157600080fd5b8935614bac81614acc565b985060208a0135614bbc81614acc565b975060408a0135614bcc81614acc565b965060608a0135614bdc81614acc565b955060e0607f1982011215614bf057600080fd5b5060808901935061016089013592506101808901356001600160401b0380821115614c1a57600080fd5b614c268c838d01614af7565b93506101a08b0135915080821115614c3d57600080fd5b50614c4a8b828c01614af7565b9150509295985092959890939650565b600060208284031215614c6c57600080fd5b81356148c881614acc565b60008060008060008060008060006101c08a8c031215614c9657600080fd5b614c9f8a6148f3565b9850614cad60208b016148f3565b9750614cbb60408b016148f3565b9650614cc960608b016148f3565b955060808a0135945060a08a01359350614ce68b60c08c01614a17565b9250614cf68b6101008c01614a2e565b9150614d068b6101808c01614a17565b90509295985092959850929598565b600060208284031215614d2757600080fd5b5035919050565b8015158114611a8c57600080fd5b600060208284031215614d4e57600080fd5b81356148c881614d2e565b600060208284031215614d6b57600080fd5b81356001600160401b03811115614d8157600080fd5b6146dc84828501614af7565b600080600060408486031215614da257600080fd5b83356001600160401b0380821115614db957600080fd5b818601915086601f830112614dcd57600080fd5b813581811115614ddc57600080fd5b876020828501011115614dee57600080fd5b6020928301989097509590910135949350505050565b600181811c90821680614e1857607f821691505b602082108103614e3857634e487b7160e01b600052602260045260246000fd5b50919050565b60208082526023908201527f506f6c79676f6e5a6b45564d3a3a6f6e6c7941646d696e3a204f6e6c7920616460408201526236b4b760e91b606082015260800190565b634e487b7160e01b600052601160045260246000fd5b60006001600160401b03808316818516808303821115614eb957614eb9614e81565b01949350505050565b60208082526042908201527f456d657267656e63794d616e616765723a3a69664e6f74456d657267656e637960408201527f53746174653a206f6e6c79206966206e6f7420656d657267656e637920737461606082015261746560f01b608082015260a00190565b634e487b7160e01b600052603260045260246000fd5b60008235607e19833603018112614f5657600080fd5b9190910192915050565b600060808236031215614f7257600080fd5b604051608081016001600160401b038282108183111715614f9557614f95614ae1565b816040528435915080821115614faa57600080fd5b50614fb736828601614af7565b82525060208301356020820152614fd0604084016148f3565b6040820152614fe1606084016148f3565b606082015292915050565b60006001600160401b0380831681810361500857615008614e81565b6001019392505050565b928352602083019190915260c01b6001600160c01b031916604082015260480190565b60006020828403121561504757600080fd5b5051919050565b9485526020850193909352604084019190915260c01b6001600160c01b0319166060808401919091521b6001600160601b0319166068820152607c0190565b60006001820161509f5761509f614e81565b5060010190565b60006001600160401b03838116908316818110156150c6576150c6614e81565b039392505050565b6000828210156150e0576150e0614e81565b500390565b60008160001904831182151516156150ff576150ff614e81565b500290565b601f82111561463d57600081815260208120601f850160051c8101602086101561512b5750805b601f850160051c820191505b81811015613b2157828155600101615137565b81516001600160401b0381111561516357615163614ae1565b615177816151718454614e04565b84615104565b602080601f8311600181146151ac57600084156151945750858301515b600019600386901b1c1916600185901b178555613b21565b600085815260208120601f198616915b828110156151db578886015182559484019460019091019084016151bc565b50858210156151f95787850151600019600388901b60f8161c191681555b5050505050600190811b01905550565b60208082526039908201527f506f6c79676f6e5a6b45564d3a3a696e697469616c697a653a20457863656564604082015278081a185b1d081859d9dc9959d85d1a5bdb881d1a5b595bdd5d603a1b606082015260800190565b634e487b7160e01b600052601260045260246000fd5b60008261528757615287615262565b500490565b60208082526043908201527f506f6c79676f6e5a6b45564d3a3a6973466f7263654261746368416c6c6f776560408201527f643a204f6e6c7920696620666f72636520626174636820697320617661696c61606082015262626c6560e81b608082015260a00190565b6000821982111561530857615308614e81565b500190565b60008235605e19833603018112614f5657600080fd5b60006060823603121561533557600080fd5b604051606081016001600160401b03828210818311171561535857615358614ae1565b81604052843591508082111561536d57600080fd5b5061537a36828601614af7565b82525060208301356020820152615393604084016148f3565b604082015292915050565b6020808252603c908201527f506f6c79676f6e5a6b45564d3a3a6f6e6c79547275737465644167677265676160408201527f746f723a204f6e6c7920747275737465642061676772656761746f7200000000606082015260800190565b8183823760009101908152919050565b8481526001600160a01b03841660208201526060604082018190528101829052818360808301376000818301608090810191909152601f909201601f191601019392505050565b60006001600160401b038084168061546c5761546c615262565b92169190910492915050565b60008251614f5681846020870161485d565b60008261549957615499615262565b500690565b61012081016040808784376000838201818152879190815b60028110156154d6578484833790840182815292840192906001016154b6565b5050828760c0870137610100850181815286935091505b600181101561550c5782518252602092830192909101906001016154ed565b50505095945050505050565b60006020828403121561552a57600080fd5b81516148c881614d2e565b600181815b8085111561557057816000190482111561555657615556614e81565b8085161561556357918102915b93841c939080029061553a565b509250929050565b60008261558757506001614a28565b8161559457506000614a28565b81600181146155aa57600281146155b4576155d0565b6001915050614a28565b60ff8411156155c5576155c5614e81565b50506001821b614a28565b5060208310610133831016604e8410600b84101617156155f3575081810a614a28565b6155fd8383615535565b806000190482111561561157615611614e81565b029392505050565b60006148c8838361557856fe506f6c79676f6e5a6b45564d3a3a6163746976617465456d657267656e637953506f6c79676f6e5a6b45564d3a3a5f766572696679426174636865733a20696e506f6c79676f6e5a6b45564d3a3a5f70726f766544697374696e637450656e64506f6c79676f6e5a6b45564d3a3a73657175656e6365466f7263654261746368506f6c79676f6e5a6b45564d3a3a73657175656e6365426174636865733a2046a2646970667358221220151678bd8034f285530901dbd59d55e54d09e43afaf7418ff2858b7111ffd9b664736f6c634300080f0033",
  "linkReferences": {},
  "deployedLinkReferences": {}
}