{
  "_format": "hh-sol-artifact-1",
  "contractName": "ProofOfEfficiency",
  "sourceName": "contracts/ProofOfEfficiency.sol",
  "abi": [
    {
      "anonymous": false,
      "inputs": [
        {
          "indexed": true,
          "internalType": "uint64",
          "name": "forceBatchNum",
          "type": "uint64"
        },
        {
          "indexed": false,
          "internalType": "bytes32",
          "name": "lastGlobalExitRoot",
          "type": "bytes32"
        },
        {
          "indexed": false,
          "internalType": "address",
          "name": "sequencer",
          "type": "address"
        },
        {
          "indexed": false,
          "internalType": "bytes",
          "name": "transactions",
          "type": "bytes"
        }
      ],
      "name": "ForceBatch",
      "type": "event"
    },
    {
      "anonymous": false,
      "inputs": [
        {
          "indexed": false,
          "internalType": "uint8",
          "name": "version",
          "type": "uint8"
        }
      ],
      "name": "Initialized",
      "type": "event"
    },
    {
      "anonymous": false,
      "inputs": [
        {
          "indexed": true,
          "internalType": "uint64",
          "name": "numBatch",
          "type": "uint64"
        }
      ],
      "name": "SequenceBatches",
      "type": "event"
    },
    {
      "anonymous": false,
      "inputs": [
        {
          "indexed": true,
          "internalType": "uint64",
          "name": "numBatch",
          "type": "uint64"
        }
      ],
      "name": "SequenceForceBatches",
      "type": "event"
    },
    {
      "anonymous": false,
      "inputs": [
        {
          "indexed": false,
          "internalType": "bool",
          "name": "newForceBatchAllowed",
          "type": "bool"
        }
      ],
      "name": "SetForceBatchAllowed",
      "type": "event"
    },
    {
      "anonymous": false,
      "inputs": [
        {
          "indexed": false,
          "internalType": "address",
          "name": "newTrustedSequencer",
          "type": "address"
        }
      ],
      "name": "SetTrustedSequencer",
      "type": "event"
    },
    {
      "anonymous": false,
      "inputs": [
        {
          "indexed": false,
          "internalType": "string",
          "name": "newTrustedSequencerURL",
          "type": "string"
        }
      ],
      "name": "SetTrustedSequencerURL",
      "type": "event"
    },
    {
      "anonymous": false,
      "inputs": [
        {
          "indexed": true,
          "internalType": "uint64",
          "name": "numBatch",
          "type": "uint64"
        },
        {
          "indexed": true,
          "internalType": "address",
          "name": "aggregator",
          "type": "address"
        }
      ],
      "name": "VerifyBatch",
      "type": "event"
    },
    {
      "inputs": [],
      "name": "FORCE_BATCH_TIMEOUT",
      "outputs": [
        {
          "internalType": "uint64",
          "name": "",
          "type": "uint64"
        }
      ],
      "stateMutability": "view",
      "type": "function"
    },
    {
      "inputs": [],
      "name": "MAX_BATCH_LENGTH",
      "outputs": [
        {
          "internalType": "uint256",
          "name": "",
          "type": "uint256"
        }
      ],
      "stateMutability": "view",
      "type": "function"
    },
    {
      "inputs": [],
      "name": "TRUSTED_SEQUENCER_FEE",
      "outputs": [
        {
          "internalType": "uint256",
          "name": "",
          "type": "uint256"
        }
      ],
      "stateMutability": "view",
      "type": "function"
    },
    {
      "inputs": [],
      "name": "calculateForceProverFee",
      "outputs": [
        {
          "internalType": "uint256",
          "name": "",
          "type": "uint256"
        }
      ],
      "stateMutability": "view",
      "type": "function"
    },
    {
      "inputs": [],
      "name": "currentLocalExitRoot",
      "outputs": [
        {
          "internalType": "bytes32",
          "name": "",
          "type": "bytes32"
        }
      ],
      "stateMutability": "view",
      "type": "function"
    },
    {
      "inputs": [],
      "name": "currentStateRoot",
      "outputs": [
        {
          "internalType": "bytes32",
          "name": "",
          "type": "bytes32"
        }
      ],
      "stateMutability": "view",
      "type": "function"
    },
    {
      "inputs": [
        {
          "internalType": "bytes",
          "name": "transactions",
          "type": "bytes"
        },
        {
          "internalType": "uint256",
          "name": "maticAmount",
          "type": "uint256"
        }
      ],
      "name": "forceBatch",
      "outputs": [],
      "stateMutability": "nonpayable",
      "type": "function"
    },
    {
      "inputs": [],
      "name": "forceBatchAllowed",
      "outputs": [
        {
          "internalType": "bool",
          "name": "",
          "type": "bool"
        }
      ],
      "stateMutability": "view",
      "type": "function"
    },
    {
      "inputs": [
        {
          "internalType": "uint64",
          "name": "",
          "type": "uint64"
        }
      ],
      "name": "forcedBatches",
      "outputs": [
        {
          "internalType": "bytes32",
          "name": "batchHashData",
          "type": "bytes32"
        },
        {
          "internalType": "uint256",
          "name": "maticFee",
          "type": "uint256"
        },
        {
          "internalType": "uint64",
          "name": "minTimestamp",
          "type": "uint64"
        }
      ],
      "stateMutability": "view",
      "type": "function"
    },
    {
      "inputs": [],
      "name": "globalExitRootManager",
      "outputs": [
        {
          "internalType": "contract IGlobalExitRootManager",
          "name": "",
          "type": "address"
        }
      ],
      "stateMutability": "view",
      "type": "function"
    },
    {
      "inputs": [
        {
          "internalType": "contract IGlobalExitRootManager",
          "name": "_globalExitRootManager",
          "type": "address"
        },
        {
          "internalType": "contract IERC20Upgradeable",
          "name": "_matic",
          "type": "address"
        },
        {
          "internalType": "contract IVerifierRollup",
          "name": "_rollupVerifier",
          "type": "address"
        },
        {
          "internalType": "bytes32",
          "name": "genesisRoot",
          "type": "bytes32"
        },
        {
          "internalType": "address",
          "name": "_trustedSequencer",
          "type": "address"
        },
        {
          "internalType": "bool",
          "name": "_forceBatchAllowed",
          "type": "bool"
        },
        {
          "internalType": "string",
          "name": "_trustedSequencerURL",
          "type": "string"
        }
      ],
      "name": "initialize",
      "outputs": [],
      "stateMutability": "nonpayable",
      "type": "function"
    },
    {
      "inputs": [],
      "name": "lastBatchSequenced",
      "outputs": [
        {
          "internalType": "uint64",
          "name": "",
          "type": "uint64"
        }
      ],
      "stateMutability": "view",
      "type": "function"
    },
    {
      "inputs": [],
      "name": "lastForceBatch",
      "outputs": [
        {
          "internalType": "uint64",
          "name": "",
          "type": "uint64"
        }
      ],
      "stateMutability": "view",
      "type": "function"
    },
    {
      "inputs": [],
      "name": "lastForceBatchSequenced",
      "outputs": [
        {
          "internalType": "uint64",
          "name": "",
          "type": "uint64"
        }
      ],
      "stateMutability": "view",
      "type": "function"
    },
    {
      "inputs": [],
      "name": "lastTimestamp",
      "outputs": [
        {
          "internalType": "uint64",
          "name": "",
          "type": "uint64"
        }
      ],
      "stateMutability": "view",
      "type": "function"
    },
    {
      "inputs": [],
      "name": "lastVerifiedBatch",
      "outputs": [
        {
          "internalType": "uint64",
          "name": "",
          "type": "uint64"
        }
      ],
      "stateMutability": "view",
      "type": "function"
    },
    {
      "inputs": [],
      "name": "matic",
      "outputs": [
        {
          "internalType": "contract IERC20Upgradeable",
          "name": "",
          "type": "address"
        }
      ],
      "stateMutability": "view",
      "type": "function"
    },
    {
      "inputs": [],
      "name": "rollupVerifier",
      "outputs": [
        {
          "internalType": "contract IVerifierRollup",
          "name": "",
          "type": "address"
        }
      ],
      "stateMutability": "view",
      "type": "function"
    },
    {
      "inputs": [
        {
          "components": [
            {
              "internalType": "bytes",
              "name": "transactions",
              "type": "bytes"
            },
            {
              "internalType": "bytes32",
              "name": "globalExitRoot",
              "type": "bytes32"
            },
            {
              "internalType": "uint64",
              "name": "timestamp",
              "type": "uint64"
            },
            {
              "internalType": "uint64[]",
              "name": "forceBatchesTimestamp",
              "type": "uint64[]"
            }
          ],
          "internalType": "struct ProofOfEfficiency.BatchData[]",
          "name": "batches",
          "type": "tuple[]"
        }
      ],
      "name": "sequenceBatches",
      "outputs": [],
      "stateMutability": "nonpayable",
      "type": "function"
    },
    {
      "inputs": [
        {
          "internalType": "uint64",
          "name": "numForcedBatches",
          "type": "uint64"
        }
      ],
      "name": "sequenceForceBatches",
      "outputs": [],
      "stateMutability": "nonpayable",
      "type": "function"
    },
    {
      "inputs": [
        {
          "internalType": "uint64",
          "name": "",
          "type": "uint64"
        }
      ],
      "name": "sequencedBatches",
      "outputs": [
        {
          "internalType": "bytes32",
          "name": "batchHashData",
          "type": "bytes32"
        },
        {
          "internalType": "uint64",
          "name": "timestamp",
          "type": "uint64"
        },
        {
          "internalType": "uint64",
          "name": "forceBatchNum",
          "type": "uint64"
        }
      ],
      "stateMutability": "view",
      "type": "function"
    },
    {
      "inputs": [
        {
          "internalType": "bool",
          "name": "newForceBatchAllowed",
          "type": "bool"
        }
      ],
      "name": "setForceBatchAllowed",
      "outputs": [],
      "stateMutability": "nonpayable",
      "type": "function"
    },
    {
      "inputs": [
        {
          "internalType": "address",
          "name": "newTrustedSequencer",
          "type": "address"
        }
      ],
      "name": "setTrustedSequencer",
      "outputs": [],
      "stateMutability": "nonpayable",
      "type": "function"
    },
    {
      "inputs": [
        {
          "internalType": "string",
          "name": "newTrustedSequencerURL",
          "type": "string"
        }
      ],
      "name": "setTrustedSequencerURL",
      "outputs": [],
      "stateMutability": "nonpayable",
      "type": "function"
    },
    {
      "inputs": [],
      "name": "trustedSequencer",
      "outputs": [
        {
          "internalType": "address",
          "name": "",
          "type": "address"
        }
      ],
      "stateMutability": "view",
      "type": "function"
    },
    {
      "inputs": [],
      "name": "trustedSequencerURL",
      "outputs": [
        {
          "internalType": "string",
          "name": "",
          "type": "string"
        }
      ],
      "stateMutability": "view",
      "type": "function"
    },
    {
      "inputs": [
        {
          "internalType": "bytes32",
          "name": "newLocalExitRoot",
          "type": "bytes32"
        },
        {
          "internalType": "bytes32",
          "name": "newStateRoot",
          "type": "bytes32"
        },
        {
          "internalType": "uint64",
          "name": "numBatch",
          "type": "uint64"
        },
        {
          "internalType": "uint256[2]",
          "name": "proofA",
          "type": "uint256[2]"
        },
        {
          "internalType": "uint256[2][2]",
          "name": "proofB",
          "type": "uint256[2][2]"
        },
        {
          "internalType": "uint256[2]",
          "name": "proofC",
          "type": "uint256[2]"
        }
      ],
      "name": "verifyBatch",
      "outputs": [],
      "stateMutability": "nonpayable",
      "type": "function"
    }
  ],
  "bytecode": "0x608060405234801561001057600080fd5b506133fe806100206000396000f3fe608060405234801561001057600080fd5b50600436106101b95760003560e01c8063ab9fc5ef116100f9578063d02103ca11610097578063e8bf92ed11610071578063e8bf92ed146104f6578063eaeb077b14610516578063f755276114610529578063f7d2cd7f1461053857600080fd5b8063d02103ca14610469578063d8f54db014610489578063e7a7ed02146104c657600080fd5b8063b4d63f58116100d3578063b4d63f5814610378578063b6b0b097146103df578063c89e42df1461042a578063cfa8ed471461043d57600080fd5b8063ab9fc5ef1461033e578063ac2eba9814610348578063b02286c01461035157600080fd5b80636ff512cc116101665780638c4a0af7116101405780638c4a0af7146102fc57806395297e241461030f578063959c2f4714610322578063aa0f44181461032b57600080fd5b80636ff512cc146102bf57806379847057146102d25780637fcb3653146102e857600080fd5b806345605267116101975780634560526714610225578063542028d51461024d5780636b8616ce1461026257600080fd5b8063086f9199146101be57806319d8ac61146101d3578063423fa85614610205575b600080fd5b6101d16101cc366004612abb565b61054b565b005b6003546101e79067ffffffffffffffff1681565b60405167ffffffffffffffff90911681526020015b60405180910390f35b6003546101e79068010000000000000000900467ffffffffffffffff1681565b6003546101e790700100000000000000000000000000000000900467ffffffffffffffff1681565b6102556107fa565b6040516101fc9190612bd5565b61029a610270366004612c05565b600160208190526000918252604090912080549181015460029091015467ffffffffffffffff1683565b60408051938452602084019290925267ffffffffffffffff16908201526060016101fc565b6101d16102cd366004612c20565b610888565b6102da6109c3565b6040519081526020016101fc565b6004546101e79067ffffffffffffffff1681565b6101d161030a366004612c3d565b610a3d565b6101d161031d366004612c71565b610b71565b6102da60075481565b6101d1610339366004612c05565b61117f565b6101e762093a8081565b6102da60065481565b6102da7fffffffffffffffffffffffffffffffffffffffffffffffffffffffffffffffff81565b6103b9610386366004612c05565b6002602052600090815260409020805460019091015467ffffffffffffffff808216916801000000000000000090041683565b6040805193845267ffffffffffffffff92831660208501529116908201526060016101fc565b6000546104059062010000900473ffffffffffffffffffffffffffffffffffffffff1681565b60405173ffffffffffffffffffffffffffffffffffffffff90911681526020016101fc565b6101d1610438366004612ce2565b6116cd565b6004546104059068010000000000000000900473ffffffffffffffffffffffffffffffffffffffff1681565b6005546104059073ffffffffffffffffffffffffffffffffffffffff1681565b6004546104b6907c0100000000000000000000000000000000000000000000000000000000900460ff1681565b60405190151581526020016101fc565b6003546101e7907801000000000000000000000000000000000000000000000000900467ffffffffffffffff1681565b6008546104059073ffffffffffffffffffffffffffffffffffffffff1681565b6101d1610524366004612d1f565b6117bc565b6102da67016345785d8a000081565b6101d1610546366004612d88565b611cc0565b600054610100900460ff161580801561056b5750600054600160ff909116105b806105855750303b158015610585575060005460ff166001145b610616576040517f08c379a000000000000000000000000000000000000000000000000000000000815260206004820152602e60248201527f496e697469616c697a61626c653a20636f6e747261637420697320616c72656160448201527f647920696e697469616c697a656400000000000000000000000000000000000060648201526084015b60405180910390fd5b600080547fffffffffffffffffffffffffffffffffffffffffffffffffffffffffffffff00166001179055801561067457600080547fffffffffffffffffffffffffffffffffffffffffffffffffffffffffffff00ff166101001790555b600580547fffffffffffffffffffffffff000000000000000000000000000000000000000090811673ffffffffffffffffffffffffffffffffffffffff8b811691909117909255600080547fffffffffffffffffffff0000000000000000000000000000000000000000ffff16620100008b851602179055600880549091168883161790556006869055600480547fffffff000000000000000000000000000000000000000000ffffffffffffffff1668010000000000000000928716929092027fffffff00ffffffffffffffffffffffffffffffffffffffffffffffffffffffff16919091177c010000000000000000000000000000000000000000000000000000000085151502179055600961078c8382612fce565b5080156107f057600080547fffffffffffffffffffffffffffffffffffffffffffffffffffffffffffff00ff169055604051600181527f7f26b83ff96e1f2b6a682f133852f6798a09c465da95921460cefb38474024989060200160405180910390a15b5050505050505050565b6009805461080790612f2d565b80601f016020809104026020016040519081016040528092919081815260200182805461083390612f2d565b80156108805780601f1061085557610100808354040283529160200191610880565b820191906000526020600020905b81548152906001019060200180831161086357829003601f168201915b505050505081565b60045468010000000000000000900473ffffffffffffffffffffffffffffffffffffffff16331461093b576040517f08c379a000000000000000000000000000000000000000000000000000000000815260206004820152603f60248201527f50726f6f664f66456666696369656e63793a3a6f6e6c7954727573746564536560448201527f7175656e6365723a206f6e6c7920747275737465642073657175656e63657200606482015260840161060d565b600480547fffffffff0000000000000000000000000000000000000000ffffffffffffffff166801000000000000000073ffffffffffffffffffffffffffffffffffffffff8416908102919091179091556040519081527ff54144f9611984021529f814a1cb6a41e22c58351510a0d9f7e822618abb9cc0906020015b60405180910390a150565b60035460009067ffffffffffffffff7001000000000000000000000000000000008204811691610a12917801000000000000000000000000000000000000000000000000909104166001613117565b610a1c9190613143565b610a389067ffffffffffffffff16670de0b6b3a764000061316c565b905090565b60045468010000000000000000900473ffffffffffffffffffffffffffffffffffffffff163314610af0576040517f08c379a000000000000000000000000000000000000000000000000000000000815260206004820152603f60248201527f50726f6f664f66456666696369656e63793a3a6f6e6c7954727573746564536560448201527f7175656e6365723a206f6e6c7920747275737465642073657175656e63657200606482015260840161060d565b600480548215157c0100000000000000000000000000000000000000000000000000000000027fffffff00ffffffffffffffffffffffffffffffffffffffffffffffffffffffff9091161790556040517fbacda50a4a8575be1d91a7ebe29ee45056f3a94f12a2281eb6b43afa33bcefe6906109b890831515815260200190565b600454610b899067ffffffffffffffff166001613117565b67ffffffffffffffff168467ffffffffffffffff1614610c2b576040517f08c379a000000000000000000000000000000000000000000000000000000000815260206004820152603460248201527f50726f6f664f66456666696369656e63793a3a76657269667942617463683a2060448201527f626174636820646f6573206e6f74206d61746368000000000000000000000000606482015260840161060d565b60035467ffffffffffffffff6801000000000000000090910481169085161115610cfd576040517f08c379a000000000000000000000000000000000000000000000000000000000815260206004820152604260248201527f50726f6f664f66456666696369656e63793a3a76657269667942617463683a2060448201527f626174636820646f6573206e6f742068617665206265656e2073657175656e6360648201527f6564000000000000000000000000000000000000000000000000000000000000608482015260a40161060d565b67ffffffffffffffff808516600090815260026020526040812060010154808316928291680100000000000000009004168103610d5e57505067ffffffffffffffff851660009081526002602052604090205467016345785d8a0000610dbe565b505067ffffffffffffffff8086166000908152600260208181526040808420600190810154680100000000000000009004861685528083529381902081516060810183528154808252958201549381018490529301549094169190930152905b60065460075460408051602081019390935282015260608101899052608081018a905260a081018390527fffffffffffffffff00000000000000000000000000000000000000000000000060c089811b82168184015285901b1660c882015260009060d001604080517fffffffffffffffffffffffffffffffffffffffffffffffffffffffffffffffe0818403018152828252805160209182012060948401909252605483523360601b9083015291506034810160005b6008811015610e8d5760089190910190600101610e75565b505060007f30644e72e131a029b85045b68181585d2833e84879b9709143e1f593f0000001600283604051610ec291906131a9565b602060405180830381855afa158015610edf573d6000803e3d6000fd5b5050506040513d601f19601f82011682018060405250810190610f0291906131c5565b610f0c91906131de565b6008546040805160208101825283815290517f43753b4d00000000000000000000000000000000000000000000000000000000815292935073ffffffffffffffffffffffffffffffffffffffff909116916343753b4d91610f76918d918d918d9190600401613219565b602060405180830381865afa158015610f93573d6000803e3d6000fd5b505050506040513d601f19601f82011682018060405250810190610fb79190613293565b611043576040517f08c379a000000000000000000000000000000000000000000000000000000000815260206004820152602d60248201527f50726f6f664f66456666696369656e63793a3a76657269667942617463683a2060448201527f494e56414c49445f50524f4f4600000000000000000000000000000000000000606482015260840161060d565b6004805467ffffffffffffffff1690600061105d836132b0565b825467ffffffffffffffff9182166101009390930a92830291909202199091161790555060068b905560078c90556005546040517f33d6247d000000000000000000000000000000000000000000000000000000008152600481018e905273ffffffffffffffffffffffffffffffffffffffff909116906333d6247d90602401600060405180830381600087803b1580156110f757600080fd5b505af115801561110b573d6000803e3d6000fd5b505060005461113a925062010000900473ffffffffffffffffffffffffffffffffffffffff169050338661250e565b604051339067ffffffffffffffff8c16907f2cdf1508085a46c7241a7d78c5a1ec3d9246d1ab95e1c2a33676d29e17d4222390600090a3505050505050505050505050565b6004547c0100000000000000000000000000000000000000000000000000000000900460ff16151560011461125c576040517f08c379a000000000000000000000000000000000000000000000000000000000815260206004820152604860248201527f50726f6f664f66456666696369656e63793a3a6973466f72636542617463684160448201527f6c6c6f7765643a206f6e6c7920696620666f726365206261746368206973206160648201527f7661696c61626c65000000000000000000000000000000000000000000000000608482015260a40161060d565b60035460009061128b908390700100000000000000000000000000000000900467ffffffffffffffff16613117565b905060008267ffffffffffffffff161161134d576040517f08c379a000000000000000000000000000000000000000000000000000000000815260206004820152604260248201527f50726f6f664f66456666696369656e63793a3a73657175656e6365466f72636560448201527f42617463683a204d75737420666f726365206174206c6561737420312062617460648201527f6368000000000000000000000000000000000000000000000000000000000000608482015260a40161060d565b60035467ffffffffffffffff780100000000000000000000000000000000000000000000000090910481169082161115611409576040517f08c379a000000000000000000000000000000000000000000000000000000000815260206004820152603a60248201527f50726f6f664f66456666696369656e63793a3a73657175656e6365466f72636560448201527f42617463683a20466f72636520626174636820696e76616c6964000000000000606482015260840161060d565b60045468010000000000000000900473ffffffffffffffffffffffffffffffffffffffff1633146115215767ffffffffffffffff80821660009081526001602052604090206002015442916114639162093a809116613117565b67ffffffffffffffff161115611521576040517f08c379a000000000000000000000000000000000000000000000000000000000815260206004820152604c60248201527f50726f6f664f66456666696369656e63793a3a73657175656e6365466f72636560448201527f42617463683a20466f72636564206261746368206973206e6f7420696e20746960648201527f6d656f757420706572696f640000000000000000000000000000000000000000608482015260a40161060d565b60035467ffffffffffffffff68010000000000000000820481169170010000000000000000000000000000000090041660005b8467ffffffffffffffff168110156116105781611570816132b0565b925050828061157e906132b0565b67ffffffffffffffff818116600090815260026020526040902060010180547fffffffffffffffffffffffffffffffff000000000000000000000000000000001668010000000000000000878416027fffffffffffffffffffffffffffffffffffffffffffffffff00000000000000001617429092169190911790559350819050611608816132d7565b915050611554565b50600380544267ffffffffffffffff9081167fffffffffffffffffffffffffffffffff0000000000000000000000000000000090921691909117680100000000000000008583168102919091177fffffffffffffffff0000000000000000ffffffffffffffffffffffffffffffff16700100000000000000000000000000000000858416021792839055604051920416907f648a61dd2438f072f5a1960939abd30f37aea80d2e94c9792ad142d3e0a490a490600090a250505050565b60045468010000000000000000900473ffffffffffffffffffffffffffffffffffffffff163314611780576040517f08c379a000000000000000000000000000000000000000000000000000000000815260206004820152603f60248201527f50726f6f664f66456666696369656e63793a3a6f6e6c7954727573746564536560448201527f7175656e6365723a206f6e6c7920747275737465642073657175656e63657200606482015260840161060d565b600961178c8282612fce565b507f6b8f723a4c7a5335cafae8a598a0aa0301be1387c037dccc085b62add6448b20816040516109b89190612bd5565b6004547c0100000000000000000000000000000000000000000000000000000000900460ff161515600114611899576040517f08c379a000000000000000000000000000000000000000000000000000000000815260206004820152604860248201527f50726f6f664f66456666696369656e63793a3a6973466f72636542617463684160448201527f6c6c6f7765643a206f6e6c7920696620666f726365206261746368206973206160648201527f7661696c61626c65000000000000000000000000000000000000000000000000608482015260a40161060d565b60006118a36109c3565b905081811115611935576040517f08c379a000000000000000000000000000000000000000000000000000000000815260206004820152602f60248201527f50726f6f664f66456666696369656e63793a3a666f72636542617463683a206e60448201527f6f7420656e6f756768206d617469630000000000000000000000000000000000606482015260840161060d565b7fffffffffffffffffffffffffffffffffffffffffffffffffffffffffffffffff8351106119e5576040517f08c379a000000000000000000000000000000000000000000000000000000000815260206004820152603a60248201527f50726f6f664f66456666696369656e63793a3a666f72636542617463683a205460448201527f72616e73616374696f6e73206279746573206f766572666c6f77000000000000606482015260840161060d565b600054611a109062010000900473ffffffffffffffffffffffffffffffffffffffff163330846125e7565b600554604080517f3ed691ef000000000000000000000000000000000000000000000000000000008152905160009273ffffffffffffffffffffffffffffffffffffffff1691633ed691ef9160048083019260209291908290030181865afa158015611a80573d6000803e3d6000fd5b505050506040513d601f19601f82011682018060405250810190611aa491906131c5565b60038054919250780100000000000000000000000000000000000000000000000090910467ffffffffffffffff16906018611ade836132b0565b91906101000a81548167ffffffffffffffff021916908367ffffffffffffffff16021790555050838133604051602001611b1a9392919061330f565b604080518083037fffffffffffffffffffffffffffffffffffffffffffffffffffffffffffffffe001815291815281516020928301206003805478010000000000000000000000000000000000000000000000009081900467ffffffffffffffff908116600090815260019687905285812094909455825482900481168452848420909501879055905404831681522060020180547fffffffffffffffffffffffffffffffffffffffffffffffff00000000000000001642909216919091179055323303611c5d57600354604080518381523360208201526060918101829052600091810191909152780100000000000000000000000000000000000000000000000090910467ffffffffffffffff16907ff94bb37db835f1ab585ee00041849a09b12cd081d77fa15ca070757619cbc9319060800160405180910390a2611cba565b600360189054906101000a900467ffffffffffffffff1667ffffffffffffffff167ff94bb37db835f1ab585ee00041849a09b12cd081d77fa15ca070757619cbc931823387604051611cb19392919061335b565b60405180910390a25b50505050565b60045468010000000000000000900473ffffffffffffffffffffffffffffffffffffffff163314611d73576040517f08c379a000000000000000000000000000000000000000000000000000000000815260206004820152603f60248201527f50726f6f664f66456666696369656e63793a3a6f6e6c7954727573746564536560448201527f7175656e6365723a206f6e6c7920747275737465642073657175656e63657200606482015260840161060d565b8051611db33330611d8c8467016345785d8a000061316c565b60005462010000900473ffffffffffffffffffffffffffffffffffffffff169291906125e7565b60035467ffffffffffffffff808216916801000000000000000081048216917001000000000000000000000000000000009091041660005b84811015612395576000868281518110611e0757611e07613399565b602002602001015190508467ffffffffffffffff16816040015167ffffffffffffffff1610158015611e47575042816040015167ffffffffffffffff1611155b611ef9576040517f08c379a000000000000000000000000000000000000000000000000000000000815260206004820152604260248201527f50726f6f664f66456666696369656e63793a3a73657175656e6365426174636860448201527f65733a2054696d657374616d70206d75737420626520696e736964652072616e60648201527f6765000000000000000000000000000000000000000000000000000000000000608482015260a40161060d565b60208101511580611fa8575060055460208201516040517f257b363200000000000000000000000000000000000000000000000000000000815273ffffffffffffffffffffffffffffffffffffffff9092169163257b363291611f629160040190815260200190565b6020604051808303816000875af1158015611f81573d6000803e3d6000fd5b505050506040513d601f19601f82011682018060405250810190611fa591906131c5565b15155b612034576040517f08c379a000000000000000000000000000000000000000000000000000000000815260206004820152603f60248201527f50726f6f664f66456666696369656e63793a3a73657175656e6365426174636860448201527f65733a20476c6f62616c206578697420726f6f74206d75737420657869737400606482015260840161060d565b8051517fffffffffffffffffffffffffffffffffffffffffffffffffffffffffffffffff116120e5576040517f08c379a000000000000000000000000000000000000000000000000000000000815260206004820152603f60248201527f50726f6f664f66456666696369656e63793a3a73657175656e6365426174636860448201527f65733a205472616e73616374696f6e73206279746573206f766572666c6f7700606482015260840161060d565b836120ef816132b0565b825160208085015160405193985061210c9450919233910161330f565b604080518083037fffffffffffffffffffffffffffffffffffffffffffffffffffffffffffffffe0018152918152815160209283012067ffffffffffffffff8781166000908152600290945282842091825591840151600190910180547fffffffffffffffffffffffffffffffffffffffffffffffff0000000000000000169282169290921790915595505b81606001515181101561238057836121af816132b0565b9450506000826060015182815181106121ca576121ca613399565b602002602001015190508667ffffffffffffffff168167ffffffffffffffff1610158015612219575067ffffffffffffffff808616600090815260016020526040902060020154811690821610155b801561222f5750428167ffffffffffffffff1611155b6122e1576040517f08c379a000000000000000000000000000000000000000000000000000000000815260206004820152605160248201527f50726f6f664f66456666696369656e63793a3a73657175656e6365426174636860448201527f65733a20466f7263656420626174636865732074696d657374616d70206d757360648201527f7420626520696e736964652072616e6765000000000000000000000000000000608482015260a40161060d565b856122eb816132b0565b67ffffffffffffffff818116600090815260026020526040902060010180547fffffffffffffffffffffffffffffffff0000000000000000000000000000000016680100000000000000008a8416027fffffffffffffffffffffffffffffffffffffffffffffffff00000000000000001617918516919091179055919750909550819050612378816132d7565b915050612198565b5050808061238d906132d7565b915050611deb565b5060035467ffffffffffffffff780100000000000000000000000000000000000000000000000090910481169082161115612452576040517f08c379a000000000000000000000000000000000000000000000000000000000815260206004820152603a60248201527f50726f6f664f66456666696369656e63793a3a73657175656e6365426174636860448201527f65733a20466f7263652062617463686573206f766572666c6f77000000000000606482015260840161060d565b6003805467ffffffffffffffff8581167fffffffffffffffffffffffffffffffff0000000000000000000000000000000090921691909117680100000000000000008583168102919091177fffffffffffffffff0000000000000000ffffffffffffffffffffffffffffffff16700100000000000000000000000000000000858416021792839055604051920416907f303446e6a8cb73c83dff421c0b1d5e5ce0719dab1bff13660fc254e58cc17fce90600090a25050505050565b60405173ffffffffffffffffffffffffffffffffffffffff83166024820152604481018290526125e29084907fa9059cbb00000000000000000000000000000000000000000000000000000000906064015b604080517fffffffffffffffffffffffffffffffffffffffffffffffffffffffffffffffe08184030181529190526020810180517bffffffffffffffffffffffffffffffffffffffffffffffffffffffff167fffffffff0000000000000000000000000000000000000000000000000000000090931692909217909152612645565b505050565b60405173ffffffffffffffffffffffffffffffffffffffff80851660248301528316604482015260648101829052611cba9085907f23b872dd0000000000000000000000000000000000000000000000000000000090608401612560565b60006126a7826040518060400160405280602081526020017f5361666545524332303a206c6f772d6c6576656c2063616c6c206661696c65648152508573ffffffffffffffffffffffffffffffffffffffff166127519092919063ffffffff16565b8051909150156125e257808060200190518101906126c59190613293565b6125e2576040517f08c379a000000000000000000000000000000000000000000000000000000000815260206004820152602a60248201527f5361666545524332303a204552433230206f7065726174696f6e20646964206e60448201527f6f74207375636365656400000000000000000000000000000000000000000000606482015260840161060d565b6060612760848460008561276a565b90505b9392505050565b6060824710156127fc576040517f08c379a000000000000000000000000000000000000000000000000000000000815260206004820152602660248201527f416464726573733a20696e73756666696369656e742062616c616e636520666f60448201527f722063616c6c0000000000000000000000000000000000000000000000000000606482015260840161060d565b73ffffffffffffffffffffffffffffffffffffffff85163b61287a576040517f08c379a000000000000000000000000000000000000000000000000000000000815260206004820152601d60248201527f416464726573733a2063616c6c20746f206e6f6e2d636f6e7472616374000000604482015260640161060d565b6000808673ffffffffffffffffffffffffffffffffffffffff1685876040516128a391906131a9565b60006040518083038185875af1925050503d80600081146128e0576040519150601f19603f3d011682016040523d82523d6000602084013e6128e5565b606091505b50915091506128f5828286612900565b979650505050505050565b6060831561290f575081612763565b82511561291f5782518084602001fd5b816040517f08c379a000000000000000000000000000000000000000000000000000000000815260040161060d9190612bd5565b73ffffffffffffffffffffffffffffffffffffffff8116811461297557600080fd5b50565b801515811461297557600080fd5b7f4e487b7100000000000000000000000000000000000000000000000000000000600052604160045260246000fd5b6040516080810167ffffffffffffffff811182821017156129d8576129d8612986565b60405290565b604051601f82017fffffffffffffffffffffffffffffffffffffffffffffffffffffffffffffffe016810167ffffffffffffffff81118282101715612a2557612a25612986565b604052919050565b600082601f830112612a3e57600080fd5b813567ffffffffffffffff811115612a5857612a58612986565b612a8960207fffffffffffffffffffffffffffffffffffffffffffffffffffffffffffffffe0601f840116016129de565b818152846020838601011115612a9e57600080fd5b816020850160208301376000918101602001919091529392505050565b600080600080600080600060e0888a031215612ad657600080fd5b8735612ae181612953565b96506020880135612af181612953565b95506040880135612b0181612953565b9450606088013593506080880135612b1881612953565b925060a0880135612b2881612978565b915060c088013567ffffffffffffffff811115612b4457600080fd5b612b508a828b01612a2d565b91505092959891949750929550565b60005b83811015612b7a578181015183820152602001612b62565b83811115611cba5750506000910152565b60008151808452612ba3816020860160208601612b5f565b601f017fffffffffffffffffffffffffffffffffffffffffffffffffffffffffffffffe0169290920160200192915050565b6020815260006127636020830184612b8b565b803567ffffffffffffffff81168114612c0057600080fd5b919050565b600060208284031215612c1757600080fd5b61276382612be8565b600060208284031215612c3257600080fd5b813561276381612953565b600060208284031215612c4f57600080fd5b813561276381612978565b8060408101831015612c6b57600080fd5b92915050565b6000806000806000806101608789031215612c8b57600080fd5b8635955060208701359450612ca260408801612be8565b9350612cb18860608901612c5a565b9250610120870188811115612cc557600080fd5b60a088019250612cd58982612c5a565b9150509295509295509295565b600060208284031215612cf457600080fd5b813567ffffffffffffffff811115612d0b57600080fd5b612d1784828501612a2d565b949350505050565b60008060408385031215612d3257600080fd5b823567ffffffffffffffff811115612d4957600080fd5b612d5585828601612a2d565b95602094909401359450505050565b600067ffffffffffffffff821115612d7e57612d7e612986565b5060051b60200190565b60006020808385031215612d9b57600080fd5b823567ffffffffffffffff80821115612db357600080fd5b818501915085601f830112612dc757600080fd5b8135612dda612dd582612d64565b6129de565b81815260059190911b83018401908481019088831115612df957600080fd5b8585015b83811015612f2057803585811115612e1457600080fd5b86016080818c037fffffffffffffffffffffffffffffffffffffffffffffffffffffffffffffffe0011215612e4857600080fd5b612e506129b5565b8882013587811115612e6157600080fd5b612e6f8d8b83860101612a2d565b8252506040808301358a830152612e8860608401612be8565b81830152608083013588811115612e9f5760008081fd5b8084019350508c603f840112612eb55760008081fd5b89830135612ec5612dd582612d64565b81815260059190911b84018201908b8101908f831115612ee55760008081fd5b948301945b82861015612f0a57612efb86612be8565b8252948c0194908c0190612eea565b6060850152505050845250918601918601612dfd565b5098975050505050505050565b600181811c90821680612f4157607f821691505b602082108103612f7a577f4e487b7100000000000000000000000000000000000000000000000000000000600052602260045260246000fd5b50919050565b601f8211156125e257600081815260208120601f850160051c81016020861015612fa75750805b601f850160051c820191505b81811015612fc657828155600101612fb3565b505050505050565b815167ffffffffffffffff811115612fe857612fe8612986565b612ffc81612ff68454612f2d565b84612f80565b602080601f83116001811461304f57600084156130195750858301515b7fffffffffffffffffffffffffffffffffffffffffffffffffffffffffffffffff600386901b1c1916600185901b178555612fc6565b6000858152602081207fffffffffffffffffffffffffffffffffffffffffffffffffffffffffffffffe08616915b8281101561309c5788860151825594840194600190910190840161307d565b50858210156130d857878501517fffffffffffffffffffffffffffffffffffffffffffffffffffffffffffffffff600388901b60f8161c191681555b5050505050600190811b01905550565b7f4e487b7100000000000000000000000000000000000000000000000000000000600052601160045260246000fd5b600067ffffffffffffffff80831681851680830382111561313a5761313a6130e8565b01949350505050565b600067ffffffffffffffff83811690831681811015613164576131646130e8565b039392505050565b6000817fffffffffffffffffffffffffffffffffffffffffffffffffffffffffffffffff04831182151516156131a4576131a46130e8565b500290565b600082516131bb818460208701612b5f565b9190910192915050565b6000602082840312156131d757600080fd5b5051919050565b600082613214577f4e487b7100000000000000000000000000000000000000000000000000000000600052601260045260246000fd5b500690565b61012081016040808784376000838201818152879190815b600281101561325157848483379084018281529284019290600101613231565b5050828760c0870137610100850181815286935091505b6001811015613287578251825260209283019290910190600101613268565b50505095945050505050565b6000602082840312156132a557600080fd5b815161276381612978565b600067ffffffffffffffff8083168181036132cd576132cd6130e8565b6001019392505050565b60007fffffffffffffffffffffffffffffffffffffffffffffffffffffffffffffffff8203613308576133086130e8565b5060010190565b60008451613321818460208901612b5f565b919091019283525060601b7fffffffffffffffffffffffffffffffffffffffff000000000000000000000000166020820152603401919050565b83815273ffffffffffffffffffffffffffffffffffffffff831660208201526060604082015260006133906060830184612b8b565b95945050505050565b7f4e487b7100000000000000000000000000000000000000000000000000000000600052603260045260246000fdfea26469706673582212208a8bff13301d2087da73617c4d7dea73baabbb2b4672c0a36c8e9fdbc4597ad564736f6c634300080f0033",
  "linkReferences": {},
  "deployedLinkReferences": {}
}