{
  "_format": "hh-sol-artifact-1",
  "contractName": "ProofOfEfficiencyMock",
  "sourceName": "contracts/mocks/ProofOfEfficiencyMock.sol",
  "abi": [
    {
      "anonymous": false,
      "inputs": [
        {
          "indexed": true,
          "internalType": "uint64",
          "name": "forceBatchNum",
          "type": "uint64"
        },
        {
          "indexed": false,
          "internalType": "bytes32",
          "name": "lastGlobalExitRoot",
          "type": "bytes32"
        },
        {
          "indexed": false,
          "internalType": "address",
          "name": "sequencer",
          "type": "address"
        },
        {
          "indexed": false,
          "internalType": "bytes",
          "name": "transactions",
          "type": "bytes"
        }
      ],
      "name": "ForceBatch",
      "type": "event"
    },
    {
      "anonymous": false,
      "inputs": [
        {
          "indexed": false,
          "internalType": "uint8",
          "name": "version",
          "type": "uint8"
        }
      ],
      "name": "Initialized",
      "type": "event"
    },
    {
      "anonymous": false,
      "inputs": [
        {
          "indexed": true,
          "internalType": "address",
          "name": "previousOwner",
          "type": "address"
        },
        {
          "indexed": true,
          "internalType": "address",
          "name": "newOwner",
          "type": "address"
        }
      ],
      "name": "OwnershipTransferred",
      "type": "event"
    },
    {
      "anonymous": false,
      "inputs": [
        {
          "indexed": true,
          "internalType": "uint64",
          "name": "numBatch",
          "type": "uint64"
        }
      ],
      "name": "SequenceBatches",
      "type": "event"
    },
    {
      "anonymous": false,
      "inputs": [
        {
          "indexed": true,
          "internalType": "uint64",
          "name": "numBatch",
          "type": "uint64"
        }
      ],
      "name": "SequenceForceBatches",
      "type": "event"
    },
    {
      "anonymous": false,
      "inputs": [
        {
          "indexed": false,
          "internalType": "bool",
          "name": "newForceBatchAllowed",
          "type": "bool"
        }
      ],
      "name": "SetForceBatchAllowed",
      "type": "event"
    },
    {
      "anonymous": false,
      "inputs": [
        {
          "indexed": false,
          "internalType": "address",
          "name": "newTrustedSequencer",
          "type": "address"
        }
      ],
      "name": "SetTrustedSequencer",
      "type": "event"
    },
    {
      "anonymous": false,
      "inputs": [
        {
          "indexed": false,
          "internalType": "string",
          "name": "newTrustedSequencerURL",
          "type": "string"
        }
      ],
      "name": "SetTrustedSequencerURL",
      "type": "event"
    },
    {
      "anonymous": false,
      "inputs": [
        {
          "indexed": true,
          "internalType": "uint64",
          "name": "numBatch",
          "type": "uint64"
        },
        {
          "indexed": true,
          "internalType": "address",
          "name": "aggregator",
          "type": "address"
        }
      ],
      "name": "VerifyBatches",
      "type": "event"
    },
    {
      "inputs": [],
      "name": "FORCE_BATCH_TIMEOUT",
      "outputs": [
        {
          "internalType": "uint64",
          "name": "",
          "type": "uint64"
        }
      ],
      "stateMutability": "view",
      "type": "function"
    },
    {
      "inputs": [],
      "name": "MAX_BATCH_LENGTH",
      "outputs": [
        {
          "internalType": "uint256",
          "name": "",
          "type": "uint256"
        }
      ],
      "stateMutability": "view",
      "type": "function"
    },
    {
      "inputs": [],
      "name": "TRUSTED_SEQUENCER_FEE",
      "outputs": [
        {
          "internalType": "uint256",
          "name": "",
          "type": "uint256"
        }
      ],
      "stateMutability": "view",
      "type": "function"
    },
    {
      "inputs": [
        {
          "internalType": "bytes32",
          "name": "currentAccInputHash",
          "type": "bytes32"
        },
        {
          "internalType": "bytes",
          "name": "transactions",
          "type": "bytes"
        },
        {
          "internalType": "bytes32",
          "name": "globalExitRoot",
          "type": "bytes32"
        },
        {
          "internalType": "uint64",
          "name": "timestamp",
          "type": "uint64"
        },
        {
          "internalType": "address",
          "name": "sequencerAddress",
          "type": "address"
        }
      ],
      "name": "calculateAccInputHash",
      "outputs": [
        {
          "internalType": "bytes32",
          "name": "",
          "type": "bytes32"
        }
      ],
      "stateMutability": "pure",
      "type": "function"
    },
    {
      "inputs": [],
      "name": "calculateForceProverFee",
      "outputs": [
        {
          "internalType": "uint256",
          "name": "",
          "type": "uint256"
        }
      ],
      "stateMutability": "view",
      "type": "function"
    },
    {
      "inputs": [],
      "name": "calculateRewardPerBatch",
      "outputs": [
        {
          "internalType": "uint256",
          "name": "",
          "type": "uint256"
        }
      ],
      "stateMutability": "view",
      "type": "function"
    },
    {
      "inputs": [],
      "name": "chainID",
      "outputs": [
        {
          "internalType": "uint64",
          "name": "",
          "type": "uint64"
        }
      ],
      "stateMutability": "view",
      "type": "function"
    },
    {
      "inputs": [],
      "name": "currentStateRoot",
      "outputs": [
        {
          "internalType": "bytes32",
          "name": "",
          "type": "bytes32"
        }
      ],
      "stateMutability": "view",
      "type": "function"
    },
    {
      "inputs": [
        {
          "internalType": "bytes",
          "name": "transactions",
          "type": "bytes"
        },
        {
          "internalType": "uint256",
          "name": "maticAmount",
          "type": "uint256"
        }
      ],
      "name": "forceBatch",
      "outputs": [],
      "stateMutability": "nonpayable",
      "type": "function"
    },
    {
      "inputs": [],
      "name": "forceBatchAllowed",
      "outputs": [
        {
          "internalType": "bool",
          "name": "",
          "type": "bool"
        }
      ],
      "stateMutability": "view",
      "type": "function"
    },
    {
      "inputs": [
        {
          "internalType": "uint64",
          "name": "",
          "type": "uint64"
        }
      ],
      "name": "forcedBatches",
      "outputs": [
        {
          "internalType": "bytes32",
          "name": "",
          "type": "bytes32"
        }
      ],
      "stateMutability": "view",
      "type": "function"
    },
    {
      "inputs": [
        {
          "internalType": "uint64",
          "name": "_lastVerifiedBatch",
          "type": "uint64"
        },
        {
          "internalType": "uint64",
          "name": "newVerifiedBatch",
          "type": "uint64"
        },
        {
          "internalType": "bytes32",
          "name": "newLocalExitRoot",
          "type": "bytes32"
        },
        {
          "internalType": "bytes32",
          "name": "newStateRoot",
          "type": "bytes32"
        }
      ],
      "name": "getInputSnarkBytes",
      "outputs": [
        {
          "internalType": "bytes",
          "name": "",
          "type": "bytes"
        }
      ],
      "stateMutability": "view",
      "type": "function"
    },
    {
      "inputs": [
        {
          "internalType": "uint64",
          "name": "_lastVerifiedBatch",
          "type": "uint64"
        },
        {
          "internalType": "uint64",
          "name": "newVerifiedBatch",
          "type": "uint64"
        },
        {
          "internalType": "bytes32",
          "name": "newLocalExitRoot",
          "type": "bytes32"
        },
        {
          "internalType": "bytes32",
          "name": "newStateRoot",
          "type": "bytes32"
        }
      ],
      "name": "getNextSnarkInput",
      "outputs": [
        {
          "internalType": "uint256",
          "name": "",
          "type": "uint256"
        }
      ],
      "stateMutability": "view",
      "type": "function"
    },
    {
      "inputs": [],
      "name": "globalExitRootManager",
      "outputs": [
        {
          "internalType": "contract IGlobalExitRootManager",
          "name": "",
          "type": "address"
        }
      ],
      "stateMutability": "view",
      "type": "function"
    },
    {
      "inputs": [
        {
          "internalType": "contract IGlobalExitRootManager",
          "name": "_globalExitRootManager",
          "type": "address"
        },
        {
          "internalType": "contract IERC20Upgradeable",
          "name": "_matic",
          "type": "address"
        },
        {
          "internalType": "contract IVerifierRollup",
          "name": "_rollupVerifier",
          "type": "address"
        },
        {
          "internalType": "bytes32",
          "name": "genesisRoot",
          "type": "bytes32"
        },
        {
          "internalType": "address",
          "name": "_trustedSequencer",
          "type": "address"
        },
        {
          "internalType": "bool",
          "name": "_forceBatchAllowed",
          "type": "bool"
        },
        {
          "internalType": "string",
          "name": "_trustedSequencerURL",
          "type": "string"
        },
        {
          "internalType": "uint64",
          "name": "_chainID",
          "type": "uint64"
        },
        {
          "internalType": "string",
          "name": "_networkName",
          "type": "string"
        }
      ],
      "name": "initialize",
      "outputs": [],
      "stateMutability": "nonpayable",
      "type": "function"
    },
    {
      "inputs": [],
      "name": "lastBatchSequenced",
      "outputs": [
        {
          "internalType": "uint64",
          "name": "",
          "type": "uint64"
        }
      ],
      "stateMutability": "view",
      "type": "function"
    },
    {
      "inputs": [],
      "name": "lastForceBatch",
      "outputs": [
        {
          "internalType": "uint64",
          "name": "",
          "type": "uint64"
        }
      ],
      "stateMutability": "view",
      "type": "function"
    },
    {
      "inputs": [],
      "name": "lastForceBatchSequenced",
      "outputs": [
        {
          "internalType": "uint64",
          "name": "",
          "type": "uint64"
        }
      ],
      "stateMutability": "view",
      "type": "function"
    },
    {
      "inputs": [],
      "name": "lastTimestamp",
      "outputs": [
        {
          "internalType": "uint64",
          "name": "",
          "type": "uint64"
        }
      ],
      "stateMutability": "view",
      "type": "function"
    },
    {
      "inputs": [],
      "name": "lastVerifiedBatch",
      "outputs": [
        {
          "internalType": "uint64",
          "name": "",
          "type": "uint64"
        }
      ],
      "stateMutability": "view",
      "type": "function"
    },
    {
      "inputs": [],
      "name": "matic",
      "outputs": [
        {
          "internalType": "contract IERC20Upgradeable",
          "name": "",
          "type": "address"
        }
      ],
      "stateMutability": "view",
      "type": "function"
    },
    {
      "inputs": [],
      "name": "networkName",
      "outputs": [
        {
          "internalType": "string",
          "name": "",
          "type": "string"
        }
      ],
      "stateMutability": "view",
      "type": "function"
    },
    {
      "inputs": [],
      "name": "owner",
      "outputs": [
        {
          "internalType": "address",
          "name": "",
          "type": "address"
        }
      ],
      "stateMutability": "view",
      "type": "function"
    },
    {
      "inputs": [],
      "name": "renounceOwnership",
      "outputs": [],
      "stateMutability": "nonpayable",
      "type": "function"
    },
    {
      "inputs": [],
      "name": "rollupVerifier",
      "outputs": [
        {
          "internalType": "contract IVerifierRollup",
          "name": "",
          "type": "address"
        }
      ],
      "stateMutability": "view",
      "type": "function"
    },
    {
      "inputs": [
        {
          "components": [
            {
              "internalType": "bytes",
              "name": "transactions",
              "type": "bytes"
            },
            {
              "internalType": "bytes32",
              "name": "globalExitRoot",
              "type": "bytes32"
            },
            {
              "internalType": "uint64",
              "name": "timestamp",
              "type": "uint64"
            },
            {
              "internalType": "uint64",
              "name": "minForcedTimestamp",
              "type": "uint64"
            }
          ],
          "internalType": "struct ProofOfEfficiency.BatchData[]",
          "name": "batches",
          "type": "tuple[]"
        }
      ],
      "name": "sequenceBatches",
      "outputs": [],
      "stateMutability": "nonpayable",
      "type": "function"
    },
    {
      "inputs": [
        {
          "components": [
            {
              "internalType": "bytes",
              "name": "transactions",
              "type": "bytes"
            },
            {
              "internalType": "bytes32",
              "name": "globalExitRoot",
              "type": "bytes32"
            },
            {
              "internalType": "uint64",
              "name": "minForcedTimestamp",
              "type": "uint64"
            }
          ],
          "internalType": "struct ProofOfEfficiency.ForceBatchData[]",
          "name": "batches",
          "type": "tuple[]"
        }
      ],
      "name": "sequenceForceBatches",
      "outputs": [],
      "stateMutability": "nonpayable",
      "type": "function"
    },
    {
      "inputs": [
        {
          "internalType": "uint64",
          "name": "",
          "type": "uint64"
        }
      ],
      "name": "sequencedBatches",
      "outputs": [
        {
          "internalType": "bytes32",
          "name": "",
          "type": "bytes32"
        }
      ],
      "stateMutability": "view",
      "type": "function"
    },
    {
      "inputs": [
        {
          "internalType": "bool",
          "name": "newForceBatchAllowed",
          "type": "bool"
        }
      ],
      "name": "setForceBatchAllowed",
      "outputs": [],
      "stateMutability": "nonpayable",
      "type": "function"
    },
    {
      "inputs": [
        {
          "internalType": "string",
          "name": "_networkName",
          "type": "string"
        }
      ],
      "name": "setNetworkName",
      "outputs": [],
      "stateMutability": "nonpayable",
      "type": "function"
    },
    {
      "inputs": [
        {
          "internalType": "uint64",
          "name": "_numBatch",
          "type": "uint64"
        }
      ],
      "name": "setSequencedBatch",
      "outputs": [],
      "stateMutability": "nonpayable",
      "type": "function"
    },
    {
      "inputs": [
        {
          "internalType": "uint64",
          "name": "batchNum",
          "type": "uint64"
        },
        {
          "internalType": "bytes32",
          "name": "accInputData",
          "type": "bytes32"
        }
      ],
      "name": "setSequencedBatches",
      "outputs": [],
      "stateMutability": "nonpayable",
      "type": "function"
    },
    {
      "inputs": [
        {
          "internalType": "bytes32",
          "name": "newStateRoot",
          "type": "bytes32"
        }
      ],
      "name": "setStateRoot",
      "outputs": [],
      "stateMutability": "nonpayable",
      "type": "function"
    },
    {
      "inputs": [
        {
          "internalType": "address",
          "name": "newTrustedSequencer",
          "type": "address"
        }
      ],
      "name": "setTrustedSequencer",
      "outputs": [],
      "stateMutability": "nonpayable",
      "type": "function"
    },
    {
      "inputs": [
        {
          "internalType": "string",
          "name": "newTrustedSequencerURL",
          "type": "string"
        }
      ],
      "name": "setTrustedSequencerURL",
      "outputs": [],
      "stateMutability": "nonpayable",
      "type": "function"
    },
    {
      "inputs": [
        {
          "internalType": "uint64",
          "name": "_numBatch",
          "type": "uint64"
        }
      ],
      "name": "setVerifiedBatch",
      "outputs": [],
      "stateMutability": "nonpayable",
      "type": "function"
    },
    {
      "inputs": [
        {
          "internalType": "contract IVerifierRollup",
          "name": "_rollupVerifier",
          "type": "address"
        }
      ],
      "name": "setVerifier",
      "outputs": [],
      "stateMutability": "nonpayable",
      "type": "function"
    },
    {
      "inputs": [
        {
          "internalType": "address",
          "name": "newOwner",
          "type": "address"
        }
      ],
      "name": "transferOwnership",
      "outputs": [],
      "stateMutability": "nonpayable",
      "type": "function"
    },
    {
      "inputs": [],
      "name": "trustedSequencer",
      "outputs": [
        {
          "internalType": "address",
          "name": "",
          "type": "address"
        }
      ],
      "stateMutability": "view",
      "type": "function"
    },
    {
      "inputs": [],
      "name": "trustedSequencerURL",
      "outputs": [
        {
          "internalType": "string",
          "name": "",
          "type": "string"
        }
      ],
      "stateMutability": "view",
      "type": "function"
    },
    {
      "inputs": [
        {
          "internalType": "uint64",
          "name": "_lastVerifiedBatch",
          "type": "uint64"
        },
        {
          "internalType": "uint64",
          "name": "newVerifiedBatch",
          "type": "uint64"
        },
        {
          "internalType": "bytes32",
          "name": "newLocalExitRoot",
          "type": "bytes32"
        },
        {
          "internalType": "bytes32",
          "name": "newStateRoot",
          "type": "bytes32"
        },
        {
          "internalType": "uint256[2]",
          "name": "proofA",
          "type": "uint256[2]"
        },
        {
          "internalType": "uint256[2][2]",
          "name": "proofB",
          "type": "uint256[2][2]"
        },
        {
          "internalType": "uint256[2]",
          "name": "proofC",
          "type": "uint256[2]"
        }
      ],
      "name": "verifyBatches",
      "outputs": [],
      "stateMutability": "nonpayable",
      "type": "function"
    },
    {
      "inputs": [
        {
          "internalType": "uint64",
          "name": "_lastVerifiedBatch",
          "type": "uint64"
        },
        {
          "internalType": "uint64",
          "name": "newVerifiedBatch",
          "type": "uint64"
        },
        {
          "internalType": "bytes32",
          "name": "newLocalExitRoot",
          "type": "bytes32"
        },
        {
          "internalType": "bytes32",
          "name": "newStateRoot",
          "type": "bytes32"
        },
        {
          "internalType": "uint256[2]",
          "name": "proofA",
          "type": "uint256[2]"
        },
        {
          "internalType": "uint256[2][2]",
          "name": "proofB",
          "type": "uint256[2][2]"
        },
        {
          "internalType": "uint256[2]",
          "name": "proofC",
          "type": "uint256[2]"
        }
      ],
      "name": "verifyBatchesMock",
      "outputs": [],
      "stateMutability": "nonpayable",
      "type": "function"
    }
  ],
  "bytecode": "0x608060405234801561001057600080fd5b506147ed806100206000396000f3fe608060405234801561001057600080fd5b50600436106102de5760003560e01c80639b79676011610186578063d02103ca116100e3578063d8f54db011610097578063eaeb077b11610071578063eaeb077b14610739578063f2fde38b1461074c578063f75527611461075f57600080fd5b8063d8f54db0146106ac578063e7a7ed02146106e9578063e8bf92ed1461071957600080fd5b8063d2fd1b31116100c8578063d2fd1b3114610673578063d307b74314610686578063d8d1091b1461069957600080fd5b8063d02103ca14610640578063d0ae98dd1461066057600080fd5b8063b4d63f581161013a578063c0cad3021161011f578063c0cad302146105ee578063c89e42df14610601578063cfa8ed471461061457600080fd5b8063b4d63f58146105a8578063b6b0b097146105c857600080fd5b8063ac2eba981161016b578063ac2eba9814610582578063adc879e91461058b578063b02286c01461059f57600080fd5b80639b79676014610565578063ab9fc5ef1461057857600080fd5b80636b8616ce1161023f57806379847057116101f35780638da5cb5b116101cd5780638da5cb5b1461050b57806396dc3d391461054a57806399f5634e1461055d57600080fd5b806379847057146104dc5780637fcb3653146104e45780638c4a0af7146104f857600080fd5b8063715018a611610224578063715018a6146104ae5780637152facf146104b6578063748608de146104c957600080fd5b80636b8616ce1461047b5780636ff512cc1461049b57600080fd5b806345605267116102965780635437988d1161027b5780635437988d146103a657806355b925e6146103b9578063574f649e146103cc57600080fd5b80634560526714610376578063542028d51461039e57600080fd5b80631a26da14116102c75780631a26da141461032e5780633c15826714610343578063423fa8561461035657600080fd5b8063107bf28c146102e357806319d8ac6114610301575b600080fd5b6102eb61076e565b6040516102f89190613ba3565b60405180910390f35b6003546103159067ffffffffffffffff1681565b60405167ffffffffffffffff90911681526020016102f8565b61034161033c366004613bd3565b6107fc565b005b610341610351366004613d79565b610821565b6003546103159068010000000000000000900467ffffffffffffffff1681565b60035461031590700100000000000000000000000000000000900467ffffffffffffffff1681565b6102eb611153565b6103416103b4366004613edb565b611160565b6103416103c7366004613f0f565b6111af565b61046d6103da366004613f92565b835160209485012060408051808701979097528681019190915260608087019490945260c09290921b7fffffffffffffffff00000000000000000000000000000000000000000000000016608086015290911b7fffffffffffffffffffffffffffffffffffffffff0000000000000000000000001660888401528051808403607c018152609c9093019052815191012090565b6040519081526020016102f8565b61046d610489366004614008565b60016020526000908152604090205481565b6103416104a9366004613edb565b61171f565b61034161185a565b6102eb6104c4366004614023565b61186e565b6103416104d7366004613f0f565b611a1b565b61046d611e24565b6004546103159067ffffffffffffffff1681565b61034161050636600461407e565b611e9e565b603d5473ffffffffffffffffffffffffffffffffffffffff165b60405173ffffffffffffffffffffffffffffffffffffffff90911681526020016102f8565b610341610558366004614008565b611fd2565b61046d612015565b610341610573366004614008565b612144565b61031562093a8081565b61046d60065481565b6009546103159067ffffffffffffffff1681565b61046d61ea6081565b61046d6105b6366004614008565b60026020526000908152604090205481565b6000546105259062010000900473ffffffffffffffffffffffffffffffffffffffff1681565b6103416105fc36600461409b565b612193565b61034161060f36600461409b565b6121ab565b6004546105259068010000000000000000900473ffffffffffffffffffffffffffffffffffffffff1681565b6005546105259073ffffffffffffffffffffffffffffffffffffffff1681565b61046d61066e366004614023565b61229a565b6103416106813660046140d8565b612594565b6103416106943660046141ae565b612889565b6103416106a73660046141c7565b612896565b6004546106d9907c0100000000000000000000000000000000000000000000000000000000900460ff1681565b60405190151581526020016102f8565b600354610315907801000000000000000000000000000000000000000000000000900467ffffffffffffffff1681565b6007546105259073ffffffffffffffffffffffffffffffffffffffff1681565b6103416107473660046142d8565b612f3c565b61034161075a366004613edb565b61340a565b61046d67016345785d8a000081565b600a805461077b9061431d565b80601f01602080910402602001604051908101604052809291908181526020018280546107a79061431d565b80156107f45780601f106107c9576101008083540402835291602001916107f4565b820191906000526020600020905b8154815290600101906020018083116107d757829003601f168201915b505050505081565b6108046134c1565b67ffffffffffffffff909116600090815260026020526040902055565b60045468010000000000000000900473ffffffffffffffffffffffffffffffffffffffff1633146108d9576040517f08c379a000000000000000000000000000000000000000000000000000000000815260206004820152603f60248201527f50726f6f664f66456666696369656e63793a3a6f6e6c7954727573746564536560448201527f7175656e6365723a206f6e6c7920747275737465642073657175656e6365720060648201526084015b60405180910390fd5b805160035467ffffffffffffffff680100000000000000008204811660008181526002602052604081205483851694929370010000000000000000000000000000000090930490921691905b85811015610f2957600087828151811061094157610941614370565b602002602001015190506000816060015167ffffffffffffffff161115610bac578361096c816143ce565b9450506000816000015180519060200120826020015183606001516040516020016109cf93929190928352602083019190915260c01b7fffffffffffffffff00000000000000000000000000000000000000000000000016604082015260480190565b604080517fffffffffffffffffffffffffffffffffffffffffffffffffffffffffffffffe0818403018152918152815160209283012067ffffffffffffffff8816600090815260019093529120549091508114610ad4576040517f08c379a000000000000000000000000000000000000000000000000000000000815260206004820152604260248201527f50726f6f664f66456666696369656e63793a3a73657175656e6365426174636860448201527f65733a20466f7263656420626174636865732064617461206d757374206d617460648201527f6368000000000000000000000000000000000000000000000000000000000000608482015260a4016108d0565b816060015167ffffffffffffffff16826040015167ffffffffffffffff161015610ba6576040517f08c379a000000000000000000000000000000000000000000000000000000000815260206004820152605d60248201527f50726f6f664f66456666696369656e63793a3a73657175656e6365426174636860448201527f65733a20466f7263656420626174636865732074696d657374616d70206d757360648201527f7420626520626967676572206f7220657175616c207468616e206d696e000000608482015260a4016108d0565b50610d7a565b60208101511580610c5b575060055460208201516040517f257b363200000000000000000000000000000000000000000000000000000000815273ffffffffffffffffffffffffffffffffffffffff9092169163257b363291610c159160040190815260200190565b6020604051808303816000875af1158015610c34573d6000803e3d6000fd5b505050506040513d601f19601f82011682018060405250810190610c5891906143f5565b15155b610ce7576040517f08c379a000000000000000000000000000000000000000000000000000000000815260206004820152603f60248201527f50726f6f664f66456666696369656e63793a3a73657175656e6365426174636860448201527f65733a20476c6f62616c206578697420726f6f74206d7573742065786973740060648201526084016108d0565b80515161ea6011610d7a576040517f08c379a000000000000000000000000000000000000000000000000000000000815260206004820152603f60248201527f50726f6f664f66456666696369656e63793a3a73657175656e6365426174636860448201527f65733a205472616e73616374696f6e73206279746573206f766572666c6f770060648201526084016108d0565b8567ffffffffffffffff16816040015167ffffffffffffffff1610158015610db0575042816040015167ffffffffffffffff1611155b610e62576040517f08c379a000000000000000000000000000000000000000000000000000000000815260206004820152604260248201527f50726f6f664f66456666696369656e63793a3a73657175656e6365426174636860448201527f65733a2054696d657374616d70206d75737420626520696e736964652072616e60648201527f6765000000000000000000000000000000000000000000000000000000000000608482015260a4016108d0565b805180516020918201208183015160408085015181519485018890529084019290925260608084019190915260c09190911b7fffffffffffffffff00000000000000000000000000000000000000000000000016608083015233901b7fffffffffffffffffffffffffffffffffffffffff000000000000000000000000166088820152609c016040516020818303038152906040528051906020012092508480610f0b906143ce565b95505080604001519550508080610f219061440e565b915050610925565b5060035467ffffffffffffffff780100000000000000000000000000000000000000000000000090910481169083161115610fe6576040517f08c379a000000000000000000000000000000000000000000000000000000000815260206004820152603a60248201527f50726f6f664f66456666696369656e63793a3a73657175656e6365426174636860448201527f65733a20466f7263652062617463686573206f766572666c6f7700000000000060648201526084016108d0565b60035460009061101490700100000000000000000000000000000000900467ffffffffffffffff1684614446565b6110289067ffffffffffffffff168761446f565b6003805467ffffffffffffffff868116700100000000000000000000000000000000027fffffffffffffffff0000000000000000ffffffffffffffffffffffffffffffff8983166801000000000000000081027fffffffffffffffffffffffffffffffff00000000000000000000000000000000909516938c16939093179390931792909216919091179091556000908152600260205260409020839055905061110633306110df8467016345785d8a0000614486565b60005462010000900473ffffffffffffffffffffffffffffffffffffffff16929190613542565b6003546040516801000000000000000090910467ffffffffffffffff16907f303446e6a8cb73c83dff421c0b1d5e5ce0719dab1bff13660fc254e58cc17fce90600090a250505050505050565b6008805461077b9061431d565b6111686134c1565b600780547fffffffffffffffffffffffff00000000000000000000000000000000000000001673ffffffffffffffffffffffffffffffffffffffff92909216919091179055565b60045467ffffffffffffffff888116911614611273576040517f08c379a000000000000000000000000000000000000000000000000000000000815260206004820152604360248201527f50726f6f664f66456666696369656e63793a3a7665726966794261746368657360448201527f3a205f6c6173745665726966696564426174636820646f6573206e6f74206d6160648201527f7463680000000000000000000000000000000000000000000000000000000000608482015260a4016108d0565b8667ffffffffffffffff168667ffffffffffffffff161161133c576040517f08c379a000000000000000000000000000000000000000000000000000000000815260206004820152605860248201527f50726f6f664f66456666696369656e63793a3a7665726966794261746368657360448201527f3a206e657756657269666965644261746368206d75737420626520626967676560648201527f72207468616e206c617374566572696669656442617463680000000000000000608482015260a4016108d0565b60035467ffffffffffffffff680100000000000000009091048116908716111561140f576040517f08c379a0000000000000000000000000000000000000000000000000000000008152602060048201526044602482018190527f50726f6f664f66456666696369656e63793a3a76657269667942617463686573908201527f3a20626174636820646f6573206e6f742068617665206265656e20736571756560648201527f6e63656400000000000000000000000000000000000000000000000000000000608482015260a4016108d0565b600061141d8888888861186e565b905060007f30644e72e131a029b85045b68181585d2833e84879b9709143e1f593f000000160028360405161145291906144c3565b602060405180830381855afa15801561146f573d6000803e3d6000fd5b5050506040513d601f19601f8201168201806040525081019061149291906143f5565b61149c919061450e565b6007546040805160208101825283815290517f43753b4d00000000000000000000000000000000000000000000000000000000815292935073ffffffffffffffffffffffffffffffffffffffff909116916343753b4d916115069189918991899190600401614522565b602060405180830381865afa158015611523573d6000803e3d6000fd5b505050506040513d601f19601f82011682018060405250810190611547919061459c565b6115d3576040517f08c379a000000000000000000000000000000000000000000000000000000000815260206004820152602f60248201527f50726f6f664f66456666696369656e63793a3a7665726966794261746368657360448201527f3a20494e56414c49445f50524f4f46000000000000000000000000000000000060648201526084016108d0565b611623336115e18b8b614446565b67ffffffffffffffff166115f3612015565b6115fd9190614486565b60005462010000900473ffffffffffffffffffffffffffffffffffffffff16919061361e565b600480547fffffffffffffffffffffffffffffffffffffffffffffffff00000000000000001667ffffffffffffffff8a1617815560068790556005546040517f33d6247d00000000000000000000000000000000000000000000000000000000815291820189905273ffffffffffffffffffffffffffffffffffffffff16906333d6247d90602401600060405180830381600087803b1580156116c557600080fd5b505af11580156116d9573d6000803e3d6000fd5b505060405133925067ffffffffffffffff8b1691507f9026f258d76afa912681d3fc727111cbab19565af9f03c5323627d6e51dda08390600090a3505050505050505050565b60045468010000000000000000900473ffffffffffffffffffffffffffffffffffffffff1633146117d2576040517f08c379a000000000000000000000000000000000000000000000000000000000815260206004820152603f60248201527f50726f6f664f66456666696369656e63793a3a6f6e6c7954727573746564536560448201527f7175656e6365723a206f6e6c7920747275737465642073657175656e6365720060648201526084016108d0565b600480547fffffffff0000000000000000000000000000000000000000ffffffffffffffff166801000000000000000073ffffffffffffffffffffffffffffffffffffffff8416908102919091179091556040519081527ff54144f9611984021529f814a1cb6a41e22c58351510a0d9f7e822618abb9cc0906020015b60405180910390a150565b6118626134c1565b61186c6000613679565b565b67ffffffffffffffff8085166000908152600260205260408082205492861682529020546060919080611949576040517f08c379a000000000000000000000000000000000000000000000000000000000815260206004820152604560248201527f50726f6f664f66456666696369656e63793a3a676574496e707574536e61726b60448201527f42797465733a206e6577416363496e7075744861736820646f6573206e6f742060648201527f6578697374000000000000000000000000000000000000000000000000000000608482015260a4016108d0565b604080516101ac810190915261016c8152602081016119af565b8160005b60088110156119a8577bffffffff0000000000000000000000000000000000000000000000006020820284901c60c01b168252600890910190600101611967565b5092915050565b6119bb81600654611963565b90506119c78187611963565b90506119d38185611963565b90506119df8184611963565b90506119eb8188611963565b60c08a811b825289811b6008830152600954901b60108201523360601b6018909101525092505050949350505050565b611a236134c1565b60045467ffffffffffffffff888116911614611ae7576040517f08c379a000000000000000000000000000000000000000000000000000000000815260206004820152604160248201527f50726f6f664f66456666696369656e63793a3a76657269667942617463683a2060448201527f5f6c6173745665726966696564426174636820646f6573206e6f74206d61746360648201527f6800000000000000000000000000000000000000000000000000000000000000608482015260a4016108d0565b8667ffffffffffffffff168667ffffffffffffffff1611611bb0576040517f08c379a000000000000000000000000000000000000000000000000000000000815260206004820152605660248201527f50726f6f664f66456666696369656e63793a3a76657269667942617463683a2060448201527f6e657756657269666965644261746368206d757374206265206269676765722060648201527f7468616e206c6173745665726966696564426174636800000000000000000000608482015260a4016108d0565b60035467ffffffffffffffff6801000000000000000090910481169087161115611c82576040517f08c379a000000000000000000000000000000000000000000000000000000000815260206004820152604260248201527f50726f6f664f66456666696369656e63793a3a76657269667942617463683a2060448201527f626174636820646f6573206e6f742068617665206265656e2073657175656e6360648201527f6564000000000000000000000000000000000000000000000000000000000000608482015260a4016108d0565b67ffffffffffffffff861660009081526002602052604090205480611d29576040517f08c379a000000000000000000000000000000000000000000000000000000000815260206004820152603e60248201527f50726f6f664f66456666696369656e63793a3a76657269667942617463683a2060448201527f6e6577416363496e7075744861736820646f6573206e6f74206578697374000060648201526084016108d0565b600480547fffffffffffffffffffffffffffffffffffffffffffffffff00000000000000001667ffffffffffffffff891617815560068690556005546040517f33d6247d00000000000000000000000000000000000000000000000000000000815291820188905273ffffffffffffffffffffffffffffffffffffffff16906333d6247d90602401600060405180830381600087803b158015611dcb57600080fd5b505af1158015611ddf573d6000803e3d6000fd5b505060405133925067ffffffffffffffff8a1691507f9026f258d76afa912681d3fc727111cbab19565af9f03c5323627d6e51dda08390600090a35050505050505050565b60035460009067ffffffffffffffff7001000000000000000000000000000000008204811691611e739178010000000000000000000000000000000000000000000000009091041660016145b9565b611e7d9190614446565b611e999067ffffffffffffffff16670de0b6b3a7640000614486565b905090565b60045468010000000000000000900473ffffffffffffffffffffffffffffffffffffffff163314611f51576040517f08c379a000000000000000000000000000000000000000000000000000000000815260206004820152603f60248201527f50726f6f664f66456666696369656e63793a3a6f6e6c7954727573746564536560448201527f7175656e6365723a206f6e6c7920747275737465642073657175656e6365720060648201526084016108d0565b600480548215157c0100000000000000000000000000000000000000000000000000000000027fffffff00ffffffffffffffffffffffffffffffffffffffffffffffffffffffff9091161790556040517fbacda50a4a8575be1d91a7ebe29ee45056f3a94f12a2281eb6b43afa33bcefe69061184f90831515815260200190565b611fda6134c1565b600480547fffffffffffffffffffffffffffffffffffffffffffffffff00000000000000001667ffffffffffffffff92909216919091179055565b600080546040517f70a08231000000000000000000000000000000000000000000000000000000008152306004820152829162010000900473ffffffffffffffffffffffffffffffffffffffff16906370a0823190602401602060405180830381865afa15801561208a573d6000803e3d6000fd5b505050506040513d601f19601f820116820180604052508101906120ae91906143f5565b60045460035491925060009167ffffffffffffffff918216916801000000000000000082048116916121139170010000000000000000000000000000000082048116917801000000000000000000000000000000000000000000000000900416614446565b61211d91906145b9565b6121279190614446565b67ffffffffffffffff16905061213d81836145e5565b9250505090565b61214c6134c1565b6003805467ffffffffffffffff90921668010000000000000000027fffffffffffffffffffffffffffffffff0000000000000000ffffffffffffffff909216919091179055565b61219b6134c1565b600a6121a78282614647565b5050565b60045468010000000000000000900473ffffffffffffffffffffffffffffffffffffffff16331461225e576040517f08c379a000000000000000000000000000000000000000000000000000000000815260206004820152603f60248201527f50726f6f664f66456666696369656e63793a3a6f6e6c7954727573746564536560448201527f7175656e6365723a206f6e6c7920747275737465642073657175656e6365720060648201526084016108d0565b600861226a8282614647565b507f6b8f723a4c7a5335cafae8a598a0aa0301be1387c037dccc085b62add6448b208160405161184f9190613ba3565b60045460009067ffffffffffffffff868116911614612361576040517f08c379a000000000000000000000000000000000000000000000000000000000815260206004820152604160248201527f50726f6f664f66456666696369656e63793a3a76657269667942617463683a2060448201527f5f6c6173745665726966696564426174636820646f6573206e6f74206d61746360648201527f6800000000000000000000000000000000000000000000000000000000000000608482015260a4016108d0565b8467ffffffffffffffff168467ffffffffffffffff161161242a576040517f08c379a000000000000000000000000000000000000000000000000000000000815260206004820152605660248201527f50726f6f664f66456666696369656e63793a3a76657269667942617463683a2060448201527f6e657756657269666965644261746368206d757374206265206269676765722060648201527f7468616e206c6173745665726966696564426174636800000000000000000000608482015260a4016108d0565b60035467ffffffffffffffff68010000000000000000909104811690851611156124fc576040517f08c379a000000000000000000000000000000000000000000000000000000000815260206004820152604260248201527f50726f6f664f66456666696369656e63793a3a76657269667942617463683a2060448201527f626174636820646f6573206e6f742068617665206265656e2073657175656e6360648201527f6564000000000000000000000000000000000000000000000000000000000000608482015260a4016108d0565b600061250a8686868661186e565b905060007f30644e72e131a029b85045b68181585d2833e84879b9709143e1f593f000000160028360405161253f91906144c3565b602060405180830381855afa15801561255c573d6000803e3d6000fd5b5050506040513d601f19601f8201168201806040525081019061257f91906143f5565b612589919061450e565b979650505050505050565b600054610100900460ff16158080156125b45750600054600160ff909116105b806125ce5750303b1580156125ce575060005460ff166001145b61265a576040517f08c379a000000000000000000000000000000000000000000000000000000000815260206004820152602e60248201527f496e697469616c697a61626c653a20636f6e747261637420697320616c72656160448201527f647920696e697469616c697a656400000000000000000000000000000000000060648201526084016108d0565b600080547fffffffffffffffffffffffffffffffffffffffffffffffffffffffffffffff0016600117905580156126b857600080547fffffffffffffffffffffffffffffffffffffffffffffffffffffffffffff00ff166101001790555b600580547fffffffffffffffffffffffff000000000000000000000000000000000000000090811673ffffffffffffffffffffffffffffffffffffffff8d811691909117909255600080547fffffffffffffffffffff0000000000000000000000000000000000000000ffff16620100008d851602179055600780549091168a83161790556006889055600480547fffffff000000000000000000000000000000000000000000ffffffffffffffff1668010000000000000000928916929092027fffffff00ffffffffffffffffffffffffffffffffffffffffffffffffffffffff16919091177c01000000000000000000000000000000000000000000000000000000008715150217905560086127d08582614647565b50600980547fffffffffffffffffffffffffffffffffffffffffffffffff00000000000000001667ffffffffffffffff8516179055600a6128118382614647565b5061281a6136f0565b801561287d57600080547fffffffffffffffffffffffffffffffffffffffffffffffffffffffffffff00ff169055604051600181527f7f26b83ff96e1f2b6a682f133852f6798a09c465da95921460cefb38474024989060200160405180910390a15b50505050505050505050565b6128916134c1565b600655565b6004547c0100000000000000000000000000000000000000000000000000000000900460ff161515600114612973576040517f08c379a000000000000000000000000000000000000000000000000000000000815260206004820152604860248201527f50726f6f664f66456666696369656e63793a3a6973466f72636542617463684160448201527f6c6c6f7765643a206f6e6c7920696620666f726365206261746368206973206160648201527f7661696c61626c65000000000000000000000000000000000000000000000000608482015260a4016108d0565b805180612a28576040517f08c379a000000000000000000000000000000000000000000000000000000000815260206004820152604260248201527f50726f6f664f66456666696369656e63793a3a73657175656e6365466f72636560448201527f42617463683a204d75737420666f726365206174206c6561737420312062617460648201527f6368000000000000000000000000000000000000000000000000000000000000608482015260a4016108d0565b60035467ffffffffffffffff78010000000000000000000000000000000000000000000000008204811691612a73918491700100000000000000000000000000000000900416614761565b1115612b01576040517f08c379a000000000000000000000000000000000000000000000000000000000815260206004820152603a60248201527f50726f6f664f66456666696369656e63793a3a73657175656e6365466f72636560448201527f42617463683a20466f72636520626174636820696e76616c696400000000000060648201526084016108d0565b60035467ffffffffffffffff680100000000000000008204811660008181526002602052604081205491937001000000000000000000000000000000009004909216915b84811015612e6c576000868281518110612b6157612b61614370565b602002602001015190508380612b76906143ce565b825180516020918201208185015160408087015181519485019390935283015260c01b7fffffffffffffffff00000000000000000000000000000000000000000000000016606082015290955060009150606801604080517fffffffffffffffffffffffffffffffffffffffffffffffffffffffffffffffe0818403018152918152815160209283012067ffffffffffffffff8816600090815260019093529120549091508114612ccf576040517f08c379a000000000000000000000000000000000000000000000000000000000815260206004820152604760248201527f50726f6f664f66456666696369656e63793a3a73657175656e6365466f72636560448201527f426174636865733a20466f7263656420626174636865732064617461206d757360648201527f74206d6174636800000000000000000000000000000000000000000000000000608482015260a4016108d0565b612cda60018861446f565b8303612db2574262093a808360400151612cf491906145b9565b67ffffffffffffffff161115612db2576040517f08c379a000000000000000000000000000000000000000000000000000000000815260206004820152604c60248201527f50726f6f664f66456666696369656e63793a3a73657175656e6365466f72636560448201527f42617463683a20466f72636564206261746368206973206e6f7420696e20746960648201527f6d656f757420706572696f640000000000000000000000000000000000000000608482015260a4016108d0565b8151805160209182012081840151604080519384018890528301919091526060808301919091524260c01b7fffffffffffffffff00000000000000000000000000000000000000000000000016608083015233901b7fffffffffffffffffffffffffffffffffffffffff000000000000000000000000166088820152609c016040516020818303038152906040528051906020012093508580612e54906143ce565b96505050508080612e649061440e565b915050612b45565b50600380544267ffffffffffffffff9081167fffffffffffffffffffffffffffffffff000000000000000000000000000000009092169190911768010000000000000000868316818102929092177fffffffffffffffff0000000000000000ffffffffffffffffffffffffffffffff1670010000000000000000000000000000000087851602178455600091825260026020526040808320869055935493519304909116917f648a61dd2438f072f5a1960939abd30f37aea80d2e94c9792ad142d3e0a490a49190a25050505050565b6004547c0100000000000000000000000000000000000000000000000000000000900460ff161515600114613019576040517f08c379a000000000000000000000000000000000000000000000000000000000815260206004820152604860248201527f50726f6f664f66456666696369656e63793a3a6973466f72636542617463684160448201527f6c6c6f7765643a206f6e6c7920696620666f726365206261746368206973206160648201527f7661696c61626c65000000000000000000000000000000000000000000000000608482015260a4016108d0565b6000613023611e24565b9050818111156130b5576040517f08c379a000000000000000000000000000000000000000000000000000000000815260206004820152602f60248201527f50726f6f664f66456666696369656e63793a3a666f72636542617463683a206e60448201527f6f7420656e6f756768206d61746963000000000000000000000000000000000060648201526084016108d0565b61ea60835110613147576040517f08c379a000000000000000000000000000000000000000000000000000000000815260206004820152603a60248201527f50726f6f664f66456666696369656e63793a3a666f72636542617463683a205460448201527f72616e73616374696f6e73206279746573206f766572666c6f7700000000000060648201526084016108d0565b6000546131729062010000900473ffffffffffffffffffffffffffffffffffffffff16333084613542565b600554604080517f3ed691ef000000000000000000000000000000000000000000000000000000008152905160009273ffffffffffffffffffffffffffffffffffffffff1691633ed691ef9160048083019260209291908290030181865afa1580156131e2573d6000803e3d6000fd5b505050506040513d601f19601f8201168201806040525081019061320691906143f5565b60038054919250780100000000000000000000000000000000000000000000000090910467ffffffffffffffff16906018613240836143ce565b91906101000a81548167ffffffffffffffff021916908367ffffffffffffffff16021790555050838051906020012081426040516020016132b993929190928352602083019190915260c01b7fffffffffffffffff00000000000000000000000000000000000000000000000016604082015260480190565b604080518083037fffffffffffffffffffffffffffffffffffffffffffffffffffffffffffffffe001815291815281516020928301206003547801000000000000000000000000000000000000000000000000900467ffffffffffffffff16600090815260019093529120553233036133a757600354604080518381523360208201526060918101829052600091810191909152780100000000000000000000000000000000000000000000000090910467ffffffffffffffff16907ff94bb37db835f1ab585ee00041849a09b12cd081d77fa15ca070757619cbc9319060800160405180910390a2613404565b600360189054906101000a900467ffffffffffffffff1667ffffffffffffffff167ff94bb37db835f1ab585ee00041849a09b12cd081d77fa15ca070757619cbc9318233876040516133fb93929190614779565b60405180910390a25b50505050565b6134126134c1565b73ffffffffffffffffffffffffffffffffffffffff81166134b5576040517f08c379a000000000000000000000000000000000000000000000000000000000815260206004820152602660248201527f4f776e61626c653a206e6577206f776e657220697320746865207a65726f206160448201527f646472657373000000000000000000000000000000000000000000000000000060648201526084016108d0565b6134be81613679565b50565b603d5473ffffffffffffffffffffffffffffffffffffffff16331461186c576040517f08c379a000000000000000000000000000000000000000000000000000000000815260206004820181905260248201527f4f776e61626c653a2063616c6c6572206973206e6f7420746865206f776e657260448201526064016108d0565b60405173ffffffffffffffffffffffffffffffffffffffff808516602483015283166044820152606481018290526134049085907f23b872dd00000000000000000000000000000000000000000000000000000000906084015b604080517fffffffffffffffffffffffffffffffffffffffffffffffffffffffffffffffe08184030181529190526020810180517bffffffffffffffffffffffffffffffffffffffffffffffffffffffff167fffffffff000000000000000000000000000000000000000000000000000000009093169290921790915261378f565b60405173ffffffffffffffffffffffffffffffffffffffff83166024820152604481018290526136749084907fa9059cbb000000000000000000000000000000000000000000000000000000009060640161359c565b505050565b603d805473ffffffffffffffffffffffffffffffffffffffff8381167fffffffffffffffffffffffff0000000000000000000000000000000000000000831681179093556040519116919082907f8be0079c531659141344cd1fd0a4f28419497f9722a3daafe3b4186f6b6457e090600090a35050565b600054610100900460ff16613787576040517f08c379a000000000000000000000000000000000000000000000000000000000815260206004820152602b60248201527f496e697469616c697a61626c653a20636f6e7472616374206973206e6f74206960448201527f6e697469616c697a696e6700000000000000000000000000000000000000000060648201526084016108d0565b61186c61389b565b60006137f1826040518060400160405280602081526020017f5361666545524332303a206c6f772d6c6576656c2063616c6c206661696c65648152508573ffffffffffffffffffffffffffffffffffffffff1661393b9092919063ffffffff16565b805190915015613674578080602001905181019061380f919061459c565b613674576040517f08c379a000000000000000000000000000000000000000000000000000000000815260206004820152602a60248201527f5361666545524332303a204552433230206f7065726174696f6e20646964206e60448201527f6f7420737563636565640000000000000000000000000000000000000000000060648201526084016108d0565b600054610100900460ff16613932576040517f08c379a000000000000000000000000000000000000000000000000000000000815260206004820152602b60248201527f496e697469616c697a61626c653a20636f6e7472616374206973206e6f74206960448201527f6e697469616c697a696e6700000000000000000000000000000000000000000060648201526084016108d0565b61186c33613679565b606061394a8484600085613954565b90505b9392505050565b6060824710156139e6576040517f08c379a000000000000000000000000000000000000000000000000000000000815260206004820152602660248201527f416464726573733a20696e73756666696369656e742062616c616e636520666f60448201527f722063616c6c000000000000000000000000000000000000000000000000000060648201526084016108d0565b73ffffffffffffffffffffffffffffffffffffffff85163b613a64576040517f08c379a000000000000000000000000000000000000000000000000000000000815260206004820152601d60248201527f416464726573733a2063616c6c20746f206e6f6e2d636f6e747261637400000060448201526064016108d0565b6000808673ffffffffffffffffffffffffffffffffffffffff168587604051613a8d91906144c3565b60006040518083038185875af1925050503d8060008114613aca576040519150601f19603f3d011682016040523d82523d6000602084013e613acf565b606091505b509150915061258982828660608315613ae957508161394d565b825115613af95782518084602001fd5b816040517f08c379a00000000000000000000000000000000000000000000000000000000081526004016108d09190613ba3565b60005b83811015613b48578181015183820152602001613b30565b838111156134045750506000910152565b60008151808452613b71816020860160208601613b2d565b601f017fffffffffffffffffffffffffffffffffffffffffffffffffffffffffffffffe0169290920160200192915050565b60208152600061394d6020830184613b59565b803567ffffffffffffffff81168114613bce57600080fd5b919050565b60008060408385031215613be657600080fd5b613bef83613bb6565b946020939093013593505050565b7f4e487b7100000000000000000000000000000000000000000000000000000000600052604160045260246000fd5b6040516080810167ffffffffffffffff81118282101715613c4f57613c4f613bfd565b60405290565b6040516060810167ffffffffffffffff81118282101715613c4f57613c4f613bfd565b604051601f82017fffffffffffffffffffffffffffffffffffffffffffffffffffffffffffffffe016810167ffffffffffffffff81118282101715613cbf57613cbf613bfd565b604052919050565b600067ffffffffffffffff821115613ce157613ce1613bfd565b5060051b60200190565b600082601f830112613cfc57600080fd5b813567ffffffffffffffff811115613d1657613d16613bfd565b613d4760207fffffffffffffffffffffffffffffffffffffffffffffffffffffffffffffffe0601f84011601613c78565b818152846020838601011115613d5c57600080fd5b816020850160208301376000918101602001919091529392505050565b60006020808385031215613d8c57600080fd5b823567ffffffffffffffff80821115613da457600080fd5b818501915085601f830112613db857600080fd5b8135613dcb613dc682613cc7565b613c78565b81815260059190911b83018401908481019088831115613dea57600080fd5b8585015b83811015613ea157803585811115613e065760008081fd5b86016080818c037fffffffffffffffffffffffffffffffffffffffffffffffffffffffffffffffe001811315613e3c5760008081fd5b613e44613c2c565b8983013588811115613e565760008081fd5b613e648e8c83870101613ceb565b8252506040808401358b8301526060613e7e818601613bb6565b82840152613e8d848601613bb6565b908301525085525050918601918601613dee565b5098975050505050505050565b73ffffffffffffffffffffffffffffffffffffffff811681146134be57600080fd5b8035613bce81613eae565b600060208284031215613eed57600080fd5b813561394d81613eae565b8060408101831015613f0957600080fd5b92915050565b6000806000806000806000610180888a031215613f2b57600080fd5b613f3488613bb6565b9650613f4260208901613bb6565b95506040880135945060608801359350613f5f8960808a01613ef8565b9250610140880189811115613f7357600080fd5b60c089019250613f838a82613ef8565b91505092959891949750929550565b600080600080600060a08688031215613faa57600080fd5b85359450602086013567ffffffffffffffff811115613fc857600080fd5b613fd488828901613ceb565b94505060408601359250613fea60608701613bb6565b91506080860135613ffa81613eae565b809150509295509295909350565b60006020828403121561401a57600080fd5b61394d82613bb6565b6000806000806080858703121561403957600080fd5b61404285613bb6565b935061405060208601613bb6565b93969395505050506040820135916060013590565b80151581146134be57600080fd5b8035613bce81614065565b60006020828403121561409057600080fd5b813561394d81614065565b6000602082840312156140ad57600080fd5b813567ffffffffffffffff8111156140c457600080fd5b6140d084828501613ceb565b949350505050565b60008060008060008060008060006101208a8c0312156140f757600080fd5b893561410281613eae565b985060208a013561411281613eae565b975061412060408b01613ed0565b965060608a0135955061413560808b01613ed0565b945061414360a08b01614073565b935060c08a013567ffffffffffffffff8082111561416057600080fd5b61416c8d838e01613ceb565b945061417a60e08d01613bb6565b93506101008c013591508082111561419157600080fd5b5061419e8c828d01613ceb565b9150509295985092959850929598565b6000602082840312156141c057600080fd5b5035919050565b600060208083850312156141da57600080fd5b823567ffffffffffffffff808211156141f257600080fd5b818501915085601f83011261420657600080fd5b8135614214613dc682613cc7565b81815260059190911b8301840190848101908883111561423357600080fd5b8585015b83811015613ea15780358581111561424f5760008081fd5b86016060818c037fffffffffffffffffffffffffffffffffffffffffffffffffffffffffffffffe0018113156142855760008081fd5b61428d613c55565b898301358881111561429f5760008081fd5b6142ad8e8c83870101613ceb565b8252506040808401358b8301526142c5838501613bb6565b9082015285525050918601918601614237565b600080604083850312156142eb57600080fd5b823567ffffffffffffffff81111561430257600080fd5b61430e85828601613ceb565b95602094909401359450505050565b600181811c9082168061433157607f821691505b60208210810361436a577f4e487b7100000000000000000000000000000000000000000000000000000000600052602260045260246000fd5b50919050565b7f4e487b7100000000000000000000000000000000000000000000000000000000600052603260045260246000fd5b7f4e487b7100000000000000000000000000000000000000000000000000000000600052601160045260246000fd5b600067ffffffffffffffff8083168181036143eb576143eb61439f565b6001019392505050565b60006020828403121561440757600080fd5b5051919050565b60007fffffffffffffffffffffffffffffffffffffffffffffffffffffffffffffffff820361443f5761443f61439f565b5060010190565b600067ffffffffffffffff838116908316818110156144675761446761439f565b039392505050565b6000828210156144815761448161439f565b500390565b6000817fffffffffffffffffffffffffffffffffffffffffffffffffffffffffffffffff04831182151516156144be576144be61439f565b500290565b600082516144d5818460208701613b2d565b9190910192915050565b7f4e487b7100000000000000000000000000000000000000000000000000000000600052601260045260246000fd5b60008261451d5761451d6144df565b500690565b61012081016040808784376000838201818152879190815b600281101561455a5784848337908401828152928401929060010161453a565b5050828760c0870137610100850181815286935091505b6001811015614590578251825260209283019290910190600101614571565b50505095945050505050565b6000602082840312156145ae57600080fd5b815161394d81614065565b600067ffffffffffffffff8083168185168083038211156145dc576145dc61439f565b01949350505050565b6000826145f4576145f46144df565b500490565b601f82111561367457600081815260208120601f850160051c810160208610156146205750805b601f850160051c820191505b8181101561463f5782815560010161462c565b505050505050565b815167ffffffffffffffff81111561466157614661613bfd565b6146758161466f845461431d565b846145f9565b602080601f8311600181146146c857600084156146925750858301515b7fffffffffffffffffffffffffffffffffffffffffffffffffffffffffffffffff600386901b1c1916600185901b17855561463f565b6000858152602081207fffffffffffffffffffffffffffffffffffffffffffffffffffffffffffffffe08616915b82811015614715578886015182559484019460019091019084016146f6565b508582101561475157878501517fffffffffffffffffffffffffffffffffffffffffffffffffffffffffffffffff600388901b60f8161c191681555b5050505050600190811b01905550565b600082198211156147745761477461439f565b500190565b83815273ffffffffffffffffffffffffffffffffffffffff831660208201526060604082015260006147ae6060830184613b59565b9594505050505056fea264697066735822122081f84e50c75132e0e1d63c89368111c0affdda26b573871b0f246eef88a15e2664736f6c634300080f0033",
  "linkReferences": {},
  "deployedLinkReferences": {}
}