{
  "_format": "hh-sol-artifact-1",
  "contractName": "ProofOfEfficiencyMock",
  "sourceName": "contracts/mocks/ProofOfEfficiencyMock.sol",
  "abi": [
    {
      "anonymous": false,
      "inputs": [
        {
          "indexed": true,
          "internalType": "uint64",
          "name": "forceBatchNum",
          "type": "uint64"
        },
        {
          "indexed": false,
          "internalType": "bytes32",
          "name": "lastGlobalExitRoot",
          "type": "bytes32"
        },
        {
          "indexed": false,
          "internalType": "address",
          "name": "sequencer",
          "type": "address"
        },
        {
          "indexed": false,
          "internalType": "bytes",
          "name": "transactions",
          "type": "bytes"
        }
      ],
      "name": "ForceBatch",
      "type": "event"
    },
    {
      "anonymous": false,
      "inputs": [
        {
          "indexed": false,
          "internalType": "uint8",
          "name": "version",
          "type": "uint8"
        }
      ],
      "name": "Initialized",
      "type": "event"
    },
    {
      "anonymous": false,
      "inputs": [
        {
          "indexed": true,
          "internalType": "uint64",
          "name": "numBatch",
          "type": "uint64"
        }
      ],
      "name": "SequenceBatches",
      "type": "event"
    },
    {
      "anonymous": false,
      "inputs": [
        {
          "indexed": true,
          "internalType": "uint64",
          "name": "numBatch",
          "type": "uint64"
        }
      ],
      "name": "SequenceForceBatches",
      "type": "event"
    },
    {
      "anonymous": false,
      "inputs": [
        {
          "indexed": false,
          "internalType": "bool",
          "name": "newForceBatchAllowed",
          "type": "bool"
        }
      ],
      "name": "SetForceBatchAllowed",
      "type": "event"
    },
    {
      "anonymous": false,
      "inputs": [
        {
          "indexed": false,
          "internalType": "address",
          "name": "newTrustedSequencer",
          "type": "address"
        }
      ],
      "name": "SetTrustedSequencer",
      "type": "event"
    },
    {
      "anonymous": false,
      "inputs": [
        {
          "indexed": false,
          "internalType": "string",
          "name": "newTrustedSequencerURL",
          "type": "string"
        }
      ],
      "name": "SetTrustedSequencerURL",
      "type": "event"
    },
    {
      "anonymous": false,
      "inputs": [
        {
          "indexed": true,
          "internalType": "uint64",
          "name": "numBatch",
          "type": "uint64"
        },
        {
          "indexed": true,
          "internalType": "address",
          "name": "aggregator",
          "type": "address"
        }
      ],
      "name": "VerifyBatch",
      "type": "event"
    },
    {
      "inputs": [],
      "name": "FORCE_BATCH_TIMEOUT",
      "outputs": [
        {
          "internalType": "uint64",
          "name": "",
          "type": "uint64"
        }
      ],
      "stateMutability": "view",
      "type": "function"
    },
    {
      "inputs": [],
      "name": "MAX_BATCH_LENGTH",
      "outputs": [
        {
          "internalType": "uint256",
          "name": "",
          "type": "uint256"
        }
      ],
      "stateMutability": "view",
      "type": "function"
    },
    {
      "inputs": [],
      "name": "TRUSTED_SEQUENCER_FEE",
      "outputs": [
        {
          "internalType": "uint256",
          "name": "",
          "type": "uint256"
        }
      ],
      "stateMutability": "view",
      "type": "function"
    },
    {
      "inputs": [],
      "name": "calculateForceProverFee",
      "outputs": [
        {
          "internalType": "uint256",
          "name": "",
          "type": "uint256"
        }
      ],
      "stateMutability": "view",
      "type": "function"
    },
    {
      "inputs": [
        {
          "internalType": "bytes32",
          "name": "currentStateRoot",
          "type": "bytes32"
        },
        {
          "internalType": "bytes32",
          "name": "currentLocalExitRoot",
          "type": "bytes32"
        },
        {
          "internalType": "bytes32",
          "name": "newStateRoot",
          "type": "bytes32"
        },
        {
          "internalType": "bytes32",
          "name": "newLocalExitRoot",
          "type": "bytes32"
        },
        {
          "internalType": "bytes32",
          "name": "batchHashData",
          "type": "bytes32"
        },
        {
          "internalType": "uint64",
          "name": "numBatch",
          "type": "uint64"
        },
        {
          "internalType": "uint64",
          "name": "timestamp",
          "type": "uint64"
        },
        {
          "internalType": "address",
          "name": "aggregatorAddress",
          "type": "address"
        }
      ],
      "name": "calculateSnarkInput",
      "outputs": [
        {
          "internalType": "uint256",
          "name": "",
          "type": "uint256"
        }
      ],
      "stateMutability": "pure",
      "type": "function"
    },
    {
      "inputs": [
        {
          "internalType": "bytes32",
          "name": "currentStateRoot",
          "type": "bytes32"
        },
        {
          "internalType": "bytes32",
          "name": "currentLocalExitRoot",
          "type": "bytes32"
        },
        {
          "internalType": "bytes32",
          "name": "newStateRoot",
          "type": "bytes32"
        },
        {
          "internalType": "bytes32",
          "name": "newLocalExitRoot",
          "type": "bytes32"
        },
        {
          "internalType": "bytes32",
          "name": "batchHashData",
          "type": "bytes32"
        },
        {
          "internalType": "uint64",
          "name": "numBatch",
          "type": "uint64"
        },
        {
          "internalType": "uint64",
          "name": "timestamp",
          "type": "uint64"
        }
      ],
      "name": "calculateStarkInput",
      "outputs": [
        {
          "internalType": "bytes32",
          "name": "",
          "type": "bytes32"
        }
      ],
      "stateMutability": "pure",
      "type": "function"
    },
    {
      "inputs": [],
      "name": "currentLocalExitRoot",
      "outputs": [
        {
          "internalType": "bytes32",
          "name": "",
          "type": "bytes32"
        }
      ],
      "stateMutability": "view",
      "type": "function"
    },
    {
      "inputs": [],
      "name": "currentStateRoot",
      "outputs": [
        {
          "internalType": "bytes32",
          "name": "",
          "type": "bytes32"
        }
      ],
      "stateMutability": "view",
      "type": "function"
    },
    {
      "inputs": [
        {
          "internalType": "bytes",
          "name": "transactions",
          "type": "bytes"
        },
        {
          "internalType": "uint256",
          "name": "maticAmount",
          "type": "uint256"
        }
      ],
      "name": "forceBatch",
      "outputs": [],
      "stateMutability": "nonpayable",
      "type": "function"
    },
    {
      "inputs": [],
      "name": "forceBatchAllowed",
      "outputs": [
        {
          "internalType": "bool",
          "name": "",
          "type": "bool"
        }
      ],
      "stateMutability": "view",
      "type": "function"
    },
    {
      "inputs": [
        {
          "internalType": "uint64",
          "name": "",
          "type": "uint64"
        }
      ],
      "name": "forcedBatches",
      "outputs": [
        {
          "internalType": "bytes32",
          "name": "batchHashData",
          "type": "bytes32"
        },
        {
          "internalType": "uint256",
          "name": "maticFee",
          "type": "uint256"
        },
        {
          "internalType": "uint64",
          "name": "minTimestamp",
          "type": "uint64"
        }
      ],
      "stateMutability": "view",
      "type": "function"
    },
    {
      "inputs": [
        {
          "internalType": "bytes32",
          "name": "newLocalExitRoot",
          "type": "bytes32"
        },
        {
          "internalType": "bytes32",
          "name": "newStateRoot",
          "type": "bytes32"
        },
        {
          "internalType": "uint64",
          "name": "numBatch",
          "type": "uint64"
        }
      ],
      "name": "getNextSnarkInput",
      "outputs": [
        {
          "internalType": "uint256",
          "name": "",
          "type": "uint256"
        }
      ],
      "stateMutability": "view",
      "type": "function"
    },
    {
      "inputs": [],
      "name": "globalExitRootManager",
      "outputs": [
        {
          "internalType": "contract IGlobalExitRootManager",
          "name": "",
          "type": "address"
        }
      ],
      "stateMutability": "view",
      "type": "function"
    },
    {
      "inputs": [
        {
          "internalType": "contract IGlobalExitRootManager",
          "name": "_globalExitRootManager",
          "type": "address"
        },
        {
          "internalType": "contract IERC20Upgradeable",
          "name": "_matic",
          "type": "address"
        },
        {
          "internalType": "contract IVerifierRollup",
          "name": "_rollupVerifier",
          "type": "address"
        },
        {
          "internalType": "bytes32",
          "name": "genesisRoot",
          "type": "bytes32"
        },
        {
          "internalType": "address",
          "name": "_trustedSequencer",
          "type": "address"
        },
        {
          "internalType": "bool",
          "name": "_forceBatchAllowed",
          "type": "bool"
        },
        {
          "internalType": "string",
          "name": "_trustedSequencerURL",
          "type": "string"
        }
      ],
      "name": "initialize",
      "outputs": [],
      "stateMutability": "nonpayable",
      "type": "function"
    },
    {
      "inputs": [],
      "name": "lastBatchSequenced",
      "outputs": [
        {
          "internalType": "uint64",
          "name": "",
          "type": "uint64"
        }
      ],
      "stateMutability": "view",
      "type": "function"
    },
    {
      "inputs": [],
      "name": "lastForceBatch",
      "outputs": [
        {
          "internalType": "uint64",
          "name": "",
          "type": "uint64"
        }
      ],
      "stateMutability": "view",
      "type": "function"
    },
    {
      "inputs": [],
      "name": "lastForceBatchSequenced",
      "outputs": [
        {
          "internalType": "uint64",
          "name": "",
          "type": "uint64"
        }
      ],
      "stateMutability": "view",
      "type": "function"
    },
    {
      "inputs": [],
      "name": "lastTimestamp",
      "outputs": [
        {
          "internalType": "uint64",
          "name": "",
          "type": "uint64"
        }
      ],
      "stateMutability": "view",
      "type": "function"
    },
    {
      "inputs": [],
      "name": "lastVerifiedBatch",
      "outputs": [
        {
          "internalType": "uint64",
          "name": "",
          "type": "uint64"
        }
      ],
      "stateMutability": "view",
      "type": "function"
    },
    {
      "inputs": [],
      "name": "matic",
      "outputs": [
        {
          "internalType": "contract IERC20Upgradeable",
          "name": "",
          "type": "address"
        }
      ],
      "stateMutability": "view",
      "type": "function"
    },
    {
      "inputs": [
        {
          "internalType": "bytes32",
          "name": "newLocalExitRoot",
          "type": "bytes32"
        },
        {
          "internalType": "bytes32",
          "name": "newStateRoot",
          "type": "bytes32"
        },
        {
          "internalType": "uint32",
          "name": "numBatch",
          "type": "uint32"
        }
      ],
      "name": "returnInputHashParameters",
      "outputs": [
        {
          "internalType": "bytes",
          "name": "",
          "type": "bytes"
        }
      ],
      "stateMutability": "view",
      "type": "function"
    },
    {
      "inputs": [],
      "name": "rollupVerifier",
      "outputs": [
        {
          "internalType": "contract IVerifierRollup",
          "name": "",
          "type": "address"
        }
      ],
      "stateMutability": "view",
      "type": "function"
    },
    {
      "inputs": [
        {
          "components": [
            {
              "internalType": "bytes",
              "name": "transactions",
              "type": "bytes"
            },
            {
              "internalType": "bytes32",
              "name": "globalExitRoot",
              "type": "bytes32"
            },
            {
              "internalType": "uint64",
              "name": "timestamp",
              "type": "uint64"
            },
            {
              "internalType": "uint64[]",
              "name": "forceBatchesTimestamp",
              "type": "uint64[]"
            }
          ],
          "internalType": "struct ProofOfEfficiency.BatchData[]",
          "name": "batches",
          "type": "tuple[]"
        }
      ],
      "name": "sequenceBatches",
      "outputs": [],
      "stateMutability": "nonpayable",
      "type": "function"
    },
    {
      "inputs": [
        {
          "internalType": "uint64",
          "name": "numForcedBatches",
          "type": "uint64"
        }
      ],
      "name": "sequenceForceBatches",
      "outputs": [],
      "stateMutability": "nonpayable",
      "type": "function"
    },
    {
      "inputs": [
        {
          "internalType": "uint64",
          "name": "",
          "type": "uint64"
        }
      ],
      "name": "sequencedBatches",
      "outputs": [
        {
          "internalType": "bytes32",
          "name": "batchHashData",
          "type": "bytes32"
        },
        {
          "internalType": "uint64",
          "name": "timestamp",
          "type": "uint64"
        },
        {
          "internalType": "uint64",
          "name": "forceBatchNum",
          "type": "uint64"
        }
      ],
      "stateMutability": "view",
      "type": "function"
    },
    {
      "inputs": [
        {
          "internalType": "bytes32",
          "name": "newLocalExitRoot",
          "type": "bytes32"
        }
      ],
      "name": "setExitRoot",
      "outputs": [],
      "stateMutability": "nonpayable",
      "type": "function"
    },
    {
      "inputs": [
        {
          "internalType": "bool",
          "name": "newForceBatchAllowed",
          "type": "bool"
        }
      ],
      "name": "setForceBatchAllowed",
      "outputs": [],
      "stateMutability": "nonpayable",
      "type": "function"
    },
    {
      "inputs": [
        {
          "internalType": "bytes32",
          "name": "newStateRoot",
          "type": "bytes32"
        }
      ],
      "name": "setStateRoot",
      "outputs": [],
      "stateMutability": "nonpayable",
      "type": "function"
    },
    {
      "inputs": [
        {
          "internalType": "address",
          "name": "newTrustedSequencer",
          "type": "address"
        }
      ],
      "name": "setTrustedSequencer",
      "outputs": [],
      "stateMutability": "nonpayable",
      "type": "function"
    },
    {
      "inputs": [
        {
          "internalType": "string",
          "name": "newTrustedSequencerURL",
          "type": "string"
        }
      ],
      "name": "setTrustedSequencerURL",
      "outputs": [],
      "stateMutability": "nonpayable",
      "type": "function"
    },
    {
      "inputs": [],
      "name": "trustedSequencer",
      "outputs": [
        {
          "internalType": "address",
          "name": "",
          "type": "address"
        }
      ],
      "stateMutability": "view",
      "type": "function"
    },
    {
      "inputs": [],
      "name": "trustedSequencerURL",
      "outputs": [
        {
          "internalType": "string",
          "name": "",
          "type": "string"
        }
      ],
      "stateMutability": "view",
      "type": "function"
    },
    {
      "inputs": [
        {
          "internalType": "bytes32",
          "name": "newLocalExitRoot",
          "type": "bytes32"
        },
        {
          "internalType": "bytes32",
          "name": "newStateRoot",
          "type": "bytes32"
        },
        {
          "internalType": "uint64",
          "name": "numBatch",
          "type": "uint64"
        },
        {
          "internalType": "uint256[2]",
          "name": "proofA",
          "type": "uint256[2]"
        },
        {
          "internalType": "uint256[2][2]",
          "name": "proofB",
          "type": "uint256[2][2]"
        },
        {
          "internalType": "uint256[2]",
          "name": "proofC",
          "type": "uint256[2]"
        }
      ],
      "name": "verifyBatch",
      "outputs": [],
      "stateMutability": "nonpayable",
      "type": "function"
    }
  ],
  "bytecode": "0x608060405234801561001057600080fd5b50613d4b806100206000396000f3fe608060405234801561001057600080fd5b506004361061020b5760003560e01c8063959c2f471161012a578063cfa8ed47116100bd578063e7a7ed021161008c578063eaeb077b11610071578063eaeb077b1461064f578063f755276114610662578063f7d2cd7f1461067157600080fd5b8063e7a7ed02146105ff578063e8bf92ed1461062f57600080fd5b8063cfa8ed4714610563578063d02103ca1461058f578063d307b743146105af578063d8f54db0146105c257600080fd5b8063b02286c0116100f9578063b02286c014610477578063b4d63f581461049e578063b6b0b09714610505578063c89e42df1461055057600080fd5b8063959c2f4714610448578063aa0f441814610451578063ab9fc5ef14610464578063ac2eba981461046e57600080fd5b806357177ef5116101a2578063798470571161017157806379847057146104065780637fcb36531461040e5780638c4a0af71461042257806395297e241461043557600080fd5b806357177ef5146103705780636b411007146103835780636b8616ce146103965780636ff512cc146103f357600080fd5b806325d0a8f5116101de57806325d0a8f514610300578063423fa856146103205780634560526714610340578063542028d51461036857600080fd5b8063086f919914610210578063116c40c314610225578063188c69b41461023857806319d8ac61146102d3575b600080fd5b61022361021e3660046132a5565b610684565b005b610223610233366004613349565b600755565b6102c061024636600461337f565b60408051602080820199909952808201979097526060870195909552608086019390935260a08501919091527fffffffffffffffff00000000000000000000000000000000000000000000000060c091821b81168286015291901b1660c8830152805180830360b001815260d09092019052805191012090565b6040519081526020015b60405180910390f35b6003546102e79067ffffffffffffffff1681565b60405167ffffffffffffffff90911681526020016102ca565b61031361030e3660046133e2565b610933565b6040516102ca919061349a565b6003546102e79068010000000000000000900467ffffffffffffffff1681565b6003546102e790700100000000000000000000000000000000900467ffffffffffffffff1681565b610313610b57565b6102c061037e3660046134ad565b610be5565b6102c06103913660046134e2565b610ee8565b6103ce6103a436600461355a565b600160208190526000918252604090912080549181015460029091015467ffffffffffffffff1683565b60408051938452602084019290925267ffffffffffffffff16908201526060016102ca565b610223610401366004613575565b61104b565b6102c0611186565b6004546102e79067ffffffffffffffff1681565b610223610430366004613592565b611200565b6102236104433660046135c6565b611334565b6102c060075481565b61022361045f36600461355a565b61196b565b6102e762093a8081565b6102c060065481565b6102c07fffffffffffffffffffffffffffffffffffffffffffffffffffffffffffffffff81565b6104df6104ac36600461355a565b6002602052600090815260409020805460019091015467ffffffffffffffff808216916801000000000000000090041683565b6040805193845267ffffffffffffffff92831660208501529116908201526060016102ca565b60005461052b9062010000900473ffffffffffffffffffffffffffffffffffffffff1681565b60405173ffffffffffffffffffffffffffffffffffffffff90911681526020016102ca565b61022361055e366004613637565b611eb9565b60045461052b9068010000000000000000900473ffffffffffffffffffffffffffffffffffffffff1681565b60055461052b9073ffffffffffffffffffffffffffffffffffffffff1681565b6102236105bd366004613349565b600655565b6004546105ef907c0100000000000000000000000000000000000000000000000000000000900460ff1681565b60405190151581526020016102ca565b6003546102e7907801000000000000000000000000000000000000000000000000900467ffffffffffffffff1681565b60085461052b9073ffffffffffffffffffffffffffffffffffffffff1681565b61022361065d36600461366c565b611fa8565b6102c067016345785d8a000081565b61022361067f3660046136d5565b6124ac565b600054610100900460ff16158080156106a45750600054600160ff909116105b806106be5750303b1580156106be575060005460ff166001145b61074f576040517f08c379a000000000000000000000000000000000000000000000000000000000815260206004820152602e60248201527f496e697469616c697a61626c653a20636f6e747261637420697320616c72656160448201527f647920696e697469616c697a656400000000000000000000000000000000000060648201526084015b60405180910390fd5b600080547fffffffffffffffffffffffffffffffffffffffffffffffffffffffffffffff0016600117905580156107ad57600080547fffffffffffffffffffffffffffffffffffffffffffffffffffffffffffff00ff166101001790555b600580547fffffffffffffffffffffffff000000000000000000000000000000000000000090811673ffffffffffffffffffffffffffffffffffffffff8b811691909117909255600080547fffffffffffffffffffff0000000000000000000000000000000000000000ffff16620100008b851602179055600880549091168883161790556006869055600480547fffffff000000000000000000000000000000000000000000ffffffffffffffff1668010000000000000000928716929092027fffffff00ffffffffffffffffffffffffffffffffffffffffffffffffffffffff16919091177c01000000000000000000000000000000000000000000000000000000008515150217905560096108c5838261391b565b50801561092957600080547fffffffffffffffffffffffffffffffffffffffffffffffffffffffffffff00ff169055604051600181527f7f26b83ff96e1f2b6a682f133852f6798a09c465da95921460cefb38474024989060200160405180910390a15b5050505050505050565b60045460609061094e9067ffffffffffffffff166001613a64565b67ffffffffffffffff168263ffffffff16146109ec576040517f08c379a000000000000000000000000000000000000000000000000000000000815260206004820152603460248201527f50726f6f664f66456666696369656e63793a3a76657269667942617463683a2060448201527f42415443485f444f45535f4e4f545f4d415443480000000000000000000000006064820152608401610746565b63ffffffff821660009081526002602052604081206001015467ffffffffffffffff8181169291829168010000000000000000909104168103610a4f57505063ffffffff831660009081526002602052604090205467016345785d8a0000610ab4565b505063ffffffff8316600090815260026020818152604080842060019081015468010000000000000000900467ffffffffffffffff90811686528184529482902082516060810184528154808252928201549481018590529401549094169201919091525b600654600754604080516020810193909352820152606081018790526080810188905260a0810183905260e086901b7fffffffff000000000000000000000000000000000000000000000000000000001660c08083019190915284901b7fffffffffffffffff0000000000000000000000000000000000000000000000001660c482015260cc0160405160208183030381529060405293505050505b9392505050565b60098054610b649061387a565b80601f0160208091040260200160405190810160405280929190818152602001828054610b909061387a565b8015610bdd5780601f10610bb257610100808354040283529160200191610bdd565b820191906000526020600020905b815481529060010190602001808311610bc057829003601f168201915b505050505081565b600454600090610c009067ffffffffffffffff166001613a64565b67ffffffffffffffff168267ffffffffffffffff1614610ca2576040517f08c379a000000000000000000000000000000000000000000000000000000000815260206004820152603460248201527f50726f6f664f66456666696369656e63793a3a76657269667942617463683a2060448201527f42415443485f444f45535f4e4f545f4d415443480000000000000000000000006064820152608401610746565b67ffffffffffffffff808316600090815260026020526040812060010154808316928291680100000000000000009004168103610d0357505067ffffffffffffffff831660009081526002602052604090205467016345785d8a0000610d63565b505067ffffffffffffffff8084166000908152600260208181526040808420600190810154680100000000000000009004861685528083529381902081516060810183528154808252958201549381018490529301549094169190930152905b600654600754604080516020810193909352820152606081018790526080810188905260a081018390527fffffffffffffffff00000000000000000000000000000000000000000000000060c087811b82168184015285901b1660c882015260009060d001604080517fffffffffffffffffffffffffffffffffffffffffffffffffffffffffffffffe0818403018152828252805160209182012060948401909252605483523360601b9083015291506034810160005b6008811015610e5b577bffffffff0000000000000000000000000000000000000000000000006020820285901c60c01b168252600890910190600101610e1a565b505060007f30644e72e131a029b85045b68181585d2833e84879b9709143e1f593f0000001600283604051610e909190613a90565b602060405180830381855afa158015610ead573d6000803e3d6000fd5b5050506040513d601f19601f82011682018060405250810190610ed09190613aac565b610eda9190613ac5565b9a9950505050505050505050565b6040805160208082018b90528183018a905260608083018a90526080830189905260a083018890527fffffffffffffffff00000000000000000000000000000000000000000000000060c088811b82168186015287901b1660c8840152835180840360b001815260d084018086528151919093012061016484019094526054825284901b60f08301526000929161010401835b6008811015610fbc577bffffffff0000000000000000000000000000000000000000000000006020820285901c60c01b168252600890910190600101610f7b565b505060007f30644e72e131a029b85045b68181585d2833e84879b9709143e1f593f0000001600283604051610ff19190613a90565b602060405180830381855afa15801561100e573d6000803e3d6000fd5b5050506040513d601f19601f820116820180604052508101906110319190613aac565b61103b9190613ac5565b9c9b505050505050505050505050565b60045468010000000000000000900473ffffffffffffffffffffffffffffffffffffffff1633146110fe576040517f08c379a000000000000000000000000000000000000000000000000000000000815260206004820152603f60248201527f50726f6f664f66456666696369656e63793a3a6f6e6c7954727573746564536560448201527f7175656e6365723a206f6e6c7920747275737465642073657175656e636572006064820152608401610746565b600480547fffffffff0000000000000000000000000000000000000000ffffffffffffffff166801000000000000000073ffffffffffffffffffffffffffffffffffffffff8416908102919091179091556040519081527ff54144f9611984021529f814a1cb6a41e22c58351510a0d9f7e822618abb9cc0906020015b60405180910390a150565b60035460009067ffffffffffffffff70010000000000000000000000000000000082048116916111d5917801000000000000000000000000000000000000000000000000909104166001613a64565b6111df9190613b00565b6111fb9067ffffffffffffffff16670de0b6b3a7640000613b29565b905090565b60045468010000000000000000900473ffffffffffffffffffffffffffffffffffffffff1633146112b3576040517f08c379a000000000000000000000000000000000000000000000000000000000815260206004820152603f60248201527f50726f6f664f66456666696369656e63793a3a6f6e6c7954727573746564536560448201527f7175656e6365723a206f6e6c7920747275737465642073657175656e636572006064820152608401610746565b600480548215157c0100000000000000000000000000000000000000000000000000000000027fffffff00ffffffffffffffffffffffffffffffffffffffffffffffffffffffff9091161790556040517fbacda50a4a8575be1d91a7ebe29ee45056f3a94f12a2281eb6b43afa33bcefe69061117b90831515815260200190565b60045461134c9067ffffffffffffffff166001613a64565b67ffffffffffffffff168467ffffffffffffffff16146113ee576040517f08c379a000000000000000000000000000000000000000000000000000000000815260206004820152603460248201527f50726f6f664f66456666696369656e63793a3a76657269667942617463683a2060448201527f626174636820646f6573206e6f74206d617463680000000000000000000000006064820152608401610746565b60035467ffffffffffffffff68010000000000000000909104811690851611156114c0576040517f08c379a000000000000000000000000000000000000000000000000000000000815260206004820152604260248201527f50726f6f664f66456666696369656e63793a3a76657269667942617463683a2060448201527f626174636820646f6573206e6f742068617665206265656e2073657175656e6360648201527f6564000000000000000000000000000000000000000000000000000000000000608482015260a401610746565b67ffffffffffffffff80851660009081526002602052604081206001015480831692829168010000000000000000900416810361152157505067ffffffffffffffff851660009081526002602052604090205467016345785d8a0000611581565b505067ffffffffffffffff8086166000908152600260208181526040808420600190810154680100000000000000009004861685528083529381902081516060810183528154808252958201549381018490529301549094169190930152905b60065460075460408051602081019390935282015260608101899052608081018a905260a081018390527fffffffffffffffff00000000000000000000000000000000000000000000000060c089811b82168184015285901b1660c882015260009060d001604080517fffffffffffffffffffffffffffffffffffffffffffffffffffffffffffffffe0818403018152828252805160209182012060948401909252605483523360601b9083015291506034810160005b6008811015611679577bffffffff0000000000000000000000000000000000000000000000006020820285901c60c01b168252600890910190600101611638565b505060007f30644e72e131a029b85045b68181585d2833e84879b9709143e1f593f00000016002836040516116ae9190613a90565b602060405180830381855afa1580156116cb573d6000803e3d6000fd5b5050506040513d601f19601f820116820180604052508101906116ee9190613aac565b6116f89190613ac5565b6008546040805160208101825283815290517f43753b4d00000000000000000000000000000000000000000000000000000000815292935073ffffffffffffffffffffffffffffffffffffffff909116916343753b4d91611762918d918d918d9190600401613b66565b602060405180830381865afa15801561177f573d6000803e3d6000fd5b505050506040513d601f19601f820116820180604052508101906117a39190613be0565b61182f576040517f08c379a000000000000000000000000000000000000000000000000000000000815260206004820152602d60248201527f50726f6f664f66456666696369656e63793a3a76657269667942617463683a2060448201527f494e56414c49445f50524f4f46000000000000000000000000000000000000006064820152608401610746565b6004805467ffffffffffffffff1690600061184983613bfd565b825467ffffffffffffffff9182166101009390930a92830291909202199091161790555060068b905560078c90556005546040517f33d6247d000000000000000000000000000000000000000000000000000000008152600481018e905273ffffffffffffffffffffffffffffffffffffffff909116906333d6247d90602401600060405180830381600087803b1580156118e357600080fd5b505af11580156118f7573d6000803e3d6000fd5b5050600054611926925062010000900473ffffffffffffffffffffffffffffffffffffffff1690503386612cfa565b604051339067ffffffffffffffff8c16907f2cdf1508085a46c7241a7d78c5a1ec3d9246d1ab95e1c2a33676d29e17d4222390600090a3505050505050505050505050565b6004547c0100000000000000000000000000000000000000000000000000000000900460ff161515600114611a48576040517f08c379a000000000000000000000000000000000000000000000000000000000815260206004820152604860248201527f50726f6f664f66456666696369656e63793a3a6973466f72636542617463684160448201527f6c6c6f7765643a206f6e6c7920696620666f726365206261746368206973206160648201527f7661696c61626c65000000000000000000000000000000000000000000000000608482015260a401610746565b600354600090611a77908390700100000000000000000000000000000000900467ffffffffffffffff16613a64565b905060008267ffffffffffffffff1611611b39576040517f08c379a000000000000000000000000000000000000000000000000000000000815260206004820152604260248201527f50726f6f664f66456666696369656e63793a3a73657175656e6365466f72636560448201527f42617463683a204d75737420666f726365206174206c6561737420312062617460648201527f6368000000000000000000000000000000000000000000000000000000000000608482015260a401610746565b60035467ffffffffffffffff780100000000000000000000000000000000000000000000000090910481169082161115611bf5576040517f08c379a000000000000000000000000000000000000000000000000000000000815260206004820152603a60248201527f50726f6f664f66456666696369656e63793a3a73657175656e6365466f72636560448201527f42617463683a20466f72636520626174636820696e76616c69640000000000006064820152608401610746565b60045468010000000000000000900473ffffffffffffffffffffffffffffffffffffffff163314611d0d5767ffffffffffffffff8082166000908152600160205260409020600201544291611c4f9162093a809116613a64565b67ffffffffffffffff161115611d0d576040517f08c379a000000000000000000000000000000000000000000000000000000000815260206004820152604c60248201527f50726f6f664f66456666696369656e63793a3a73657175656e6365466f72636560448201527f42617463683a20466f72636564206261746368206973206e6f7420696e20746960648201527f6d656f757420706572696f640000000000000000000000000000000000000000608482015260a401610746565b60035467ffffffffffffffff68010000000000000000820481169170010000000000000000000000000000000090041660005b8467ffffffffffffffff16811015611dfc5781611d5c81613bfd565b9250508280611d6a90613bfd565b67ffffffffffffffff818116600090815260026020526040902060010180547fffffffffffffffffffffffffffffffff000000000000000000000000000000001668010000000000000000878416027fffffffffffffffffffffffffffffffffffffffffffffffff00000000000000001617429092169190911790559350819050611df481613c24565b915050611d40565b50600380544267ffffffffffffffff9081167fffffffffffffffffffffffffffffffff0000000000000000000000000000000090921691909117680100000000000000008583168102919091177fffffffffffffffff0000000000000000ffffffffffffffffffffffffffffffff16700100000000000000000000000000000000858416021792839055604051920416907f648a61dd2438f072f5a1960939abd30f37aea80d2e94c9792ad142d3e0a490a490600090a250505050565b60045468010000000000000000900473ffffffffffffffffffffffffffffffffffffffff163314611f6c576040517f08c379a000000000000000000000000000000000000000000000000000000000815260206004820152603f60248201527f50726f6f664f66456666696369656e63793a3a6f6e6c7954727573746564536560448201527f7175656e6365723a206f6e6c7920747275737465642073657175656e636572006064820152608401610746565b6009611f78828261391b565b507f6b8f723a4c7a5335cafae8a598a0aa0301be1387c037dccc085b62add6448b208160405161117b919061349a565b6004547c0100000000000000000000000000000000000000000000000000000000900460ff161515600114612085576040517f08c379a000000000000000000000000000000000000000000000000000000000815260206004820152604860248201527f50726f6f664f66456666696369656e63793a3a6973466f72636542617463684160448201527f6c6c6f7765643a206f6e6c7920696620666f726365206261746368206973206160648201527f7661696c61626c65000000000000000000000000000000000000000000000000608482015260a401610746565b600061208f611186565b905081811115612121576040517f08c379a000000000000000000000000000000000000000000000000000000000815260206004820152602f60248201527f50726f6f664f66456666696369656e63793a3a666f72636542617463683a206e60448201527f6f7420656e6f756768206d6174696300000000000000000000000000000000006064820152608401610746565b7fffffffffffffffffffffffffffffffffffffffffffffffffffffffffffffffff8351106121d1576040517f08c379a000000000000000000000000000000000000000000000000000000000815260206004820152603a60248201527f50726f6f664f66456666696369656e63793a3a666f72636542617463683a205460448201527f72616e73616374696f6e73206279746573206f766572666c6f770000000000006064820152608401610746565b6000546121fc9062010000900473ffffffffffffffffffffffffffffffffffffffff16333084612dd3565b600554604080517f3ed691ef000000000000000000000000000000000000000000000000000000008152905160009273ffffffffffffffffffffffffffffffffffffffff1691633ed691ef9160048083019260209291908290030181865afa15801561226c573d6000803e3d6000fd5b505050506040513d601f19601f820116820180604052508101906122909190613aac565b60038054919250780100000000000000000000000000000000000000000000000090910467ffffffffffffffff169060186122ca83613bfd565b91906101000a81548167ffffffffffffffff021916908367ffffffffffffffff1602179055505083813360405160200161230693929190613c5c565b604080518083037fffffffffffffffffffffffffffffffffffffffffffffffffffffffffffffffe001815291815281516020928301206003805478010000000000000000000000000000000000000000000000009081900467ffffffffffffffff908116600090815260019687905285812094909455825482900481168452848420909501879055905404831681522060020180547fffffffffffffffffffffffffffffffffffffffffffffffff0000000000000000164290921691909117905532330361244957600354604080518381523360208201526060918101829052600091810191909152780100000000000000000000000000000000000000000000000090910467ffffffffffffffff16907ff94bb37db835f1ab585ee00041849a09b12cd081d77fa15ca070757619cbc9319060800160405180910390a26124a6565b600360189054906101000a900467ffffffffffffffff1667ffffffffffffffff167ff94bb37db835f1ab585ee00041849a09b12cd081d77fa15ca070757619cbc93182338760405161249d93929190613ca8565b60405180910390a25b50505050565b60045468010000000000000000900473ffffffffffffffffffffffffffffffffffffffff16331461255f576040517f08c379a000000000000000000000000000000000000000000000000000000000815260206004820152603f60248201527f50726f6f664f66456666696369656e63793a3a6f6e6c7954727573746564536560448201527f7175656e6365723a206f6e6c7920747275737465642073657175656e636572006064820152608401610746565b805161259f33306125788467016345785d8a0000613b29565b60005462010000900473ffffffffffffffffffffffffffffffffffffffff16929190612dd3565b60035467ffffffffffffffff808216916801000000000000000081048216917001000000000000000000000000000000009091041660005b84811015612b815760008682815181106125f3576125f3613ce6565b602002602001015190508467ffffffffffffffff16816040015167ffffffffffffffff1610158015612633575042816040015167ffffffffffffffff1611155b6126e5576040517f08c379a000000000000000000000000000000000000000000000000000000000815260206004820152604260248201527f50726f6f664f66456666696369656e63793a3a73657175656e6365426174636860448201527f65733a2054696d657374616d70206d75737420626520696e736964652072616e60648201527f6765000000000000000000000000000000000000000000000000000000000000608482015260a401610746565b60208101511580612794575060055460208201516040517f257b363200000000000000000000000000000000000000000000000000000000815273ffffffffffffffffffffffffffffffffffffffff9092169163257b36329161274e9160040190815260200190565b6020604051808303816000875af115801561276d573d6000803e3d6000fd5b505050506040513d601f19601f820116820180604052508101906127919190613aac565b15155b612820576040517f08c379a000000000000000000000000000000000000000000000000000000000815260206004820152603f60248201527f50726f6f664f66456666696369656e63793a3a73657175656e6365426174636860448201527f65733a20476c6f62616c206578697420726f6f74206d757374206578697374006064820152608401610746565b8051517fffffffffffffffffffffffffffffffffffffffffffffffffffffffffffffffff116128d1576040517f08c379a000000000000000000000000000000000000000000000000000000000815260206004820152603f60248201527f50726f6f664f66456666696369656e63793a3a73657175656e6365426174636860448201527f65733a205472616e73616374696f6e73206279746573206f766572666c6f77006064820152608401610746565b836128db81613bfd565b82516020808501516040519398506128f894509192339101613c5c565b604080518083037fffffffffffffffffffffffffffffffffffffffffffffffffffffffffffffffe0018152918152815160209283012067ffffffffffffffff8781166000908152600290945282842091825591840151600190910180547fffffffffffffffffffffffffffffffffffffffffffffffff0000000000000000169282169290921790915595505b816060015151811015612b6c578361299b81613bfd565b9450506000826060015182815181106129b6576129b6613ce6565b602002602001015190508667ffffffffffffffff168167ffffffffffffffff1610158015612a05575067ffffffffffffffff808616600090815260016020526040902060020154811690821610155b8015612a1b5750428167ffffffffffffffff1611155b612acd576040517f08c379a000000000000000000000000000000000000000000000000000000000815260206004820152605160248201527f50726f6f664f66456666696369656e63793a3a73657175656e6365426174636860448201527f65733a20466f7263656420626174636865732074696d657374616d70206d757360648201527f7420626520696e736964652072616e6765000000000000000000000000000000608482015260a401610746565b85612ad781613bfd565b67ffffffffffffffff818116600090815260026020526040902060010180547fffffffffffffffffffffffffffffffff0000000000000000000000000000000016680100000000000000008a8416027fffffffffffffffffffffffffffffffffffffffffffffffff00000000000000001617918516919091179055919750909550819050612b6481613c24565b915050612984565b50508080612b7990613c24565b9150506125d7565b5060035467ffffffffffffffff780100000000000000000000000000000000000000000000000090910481169082161115612c3e576040517f08c379a000000000000000000000000000000000000000000000000000000000815260206004820152603a60248201527f50726f6f664f66456666696369656e63793a3a73657175656e6365426174636860448201527f65733a20466f7263652062617463686573206f766572666c6f770000000000006064820152608401610746565b6003805467ffffffffffffffff8581167fffffffffffffffffffffffffffffffff0000000000000000000000000000000090921691909117680100000000000000008583168102919091177fffffffffffffffff0000000000000000ffffffffffffffffffffffffffffffff16700100000000000000000000000000000000858416021792839055604051920416907f303446e6a8cb73c83dff421c0b1d5e5ce0719dab1bff13660fc254e58cc17fce90600090a25050505050565b60405173ffffffffffffffffffffffffffffffffffffffff8316602482015260448101829052612dce9084907fa9059cbb00000000000000000000000000000000000000000000000000000000906064015b604080517fffffffffffffffffffffffffffffffffffffffffffffffffffffffffffffffe08184030181529190526020810180517bffffffffffffffffffffffffffffffffffffffffffffffffffffffff167fffffffff0000000000000000000000000000000000000000000000000000000090931692909217909152612e31565b505050565b60405173ffffffffffffffffffffffffffffffffffffffff808516602483015283166044820152606481018290526124a69085907f23b872dd0000000000000000000000000000000000000000000000000000000090608401612d4c565b6000612e93826040518060400160405280602081526020017f5361666545524332303a206c6f772d6c6576656c2063616c6c206661696c65648152508573ffffffffffffffffffffffffffffffffffffffff16612f3d9092919063ffffffff16565b805190915015612dce5780806020019051810190612eb19190613be0565b612dce576040517f08c379a000000000000000000000000000000000000000000000000000000000815260206004820152602a60248201527f5361666545524332303a204552433230206f7065726174696f6e20646964206e60448201527f6f742073756363656564000000000000000000000000000000000000000000006064820152608401610746565b6060612f4c8484600085612f54565b949350505050565b606082471015612fe6576040517f08c379a000000000000000000000000000000000000000000000000000000000815260206004820152602660248201527f416464726573733a20696e73756666696369656e742062616c616e636520666f60448201527f722063616c6c00000000000000000000000000000000000000000000000000006064820152608401610746565b73ffffffffffffffffffffffffffffffffffffffff85163b613064576040517f08c379a000000000000000000000000000000000000000000000000000000000815260206004820152601d60248201527f416464726573733a2063616c6c20746f206e6f6e2d636f6e74726163740000006044820152606401610746565b6000808673ffffffffffffffffffffffffffffffffffffffff16858760405161308d9190613a90565b60006040518083038185875af1925050503d80600081146130ca576040519150601f19603f3d011682016040523d82523d6000602084013e6130cf565b606091505b50915091506130df8282866130ea565b979650505050505050565b606083156130f9575081610b50565b8251156131095782518084602001fd5b816040517f08c379a0000000000000000000000000000000000000000000000000000000008152600401610746919061349a565b73ffffffffffffffffffffffffffffffffffffffff8116811461315f57600080fd5b50565b801515811461315f57600080fd5b7f4e487b7100000000000000000000000000000000000000000000000000000000600052604160045260246000fd5b6040516080810167ffffffffffffffff811182821017156131c2576131c2613170565b60405290565b604051601f82017fffffffffffffffffffffffffffffffffffffffffffffffffffffffffffffffe016810167ffffffffffffffff8111828210171561320f5761320f613170565b604052919050565b600082601f83011261322857600080fd5b813567ffffffffffffffff81111561324257613242613170565b61327360207fffffffffffffffffffffffffffffffffffffffffffffffffffffffffffffffe0601f840116016131c8565b81815284602083860101111561328857600080fd5b816020850160208301376000918101602001919091529392505050565b600080600080600080600060e0888a0312156132c057600080fd5b87356132cb8161313d565b965060208801356132db8161313d565b955060408801356132eb8161313d565b94506060880135935060808801356133028161313d565b925060a088013561331281613162565b915060c088013567ffffffffffffffff81111561332e57600080fd5b61333a8a828b01613217565b91505092959891949750929550565b60006020828403121561335b57600080fd5b5035919050565b803567ffffffffffffffff8116811461337a57600080fd5b919050565b600080600080600080600060e0888a03121561339a57600080fd5b87359650602088013595506040880135945060608801359350608088013592506133c660a08901613362565b91506133d460c08901613362565b905092959891949750929550565b6000806000606084860312156133f757600080fd5b8335925060208401359150604084013563ffffffff8116811461341957600080fd5b809150509250925092565b60005b8381101561343f578181015183820152602001613427565b838111156124a65750506000910152565b60008151808452613468816020860160208601613424565b601f017fffffffffffffffffffffffffffffffffffffffffffffffffffffffffffffffe0169290920160200192915050565b602081526000610b506020830184613450565b6000806000606084860312156134c257600080fd5b83359250602084013591506134d960408501613362565b90509250925092565b600080600080600080600080610100898b0312156134ff57600080fd5b883597506020890135965060408901359550606089013594506080890135935061352b60a08a01613362565b925061353960c08a01613362565b915060e08901356135498161313d565b809150509295985092959890939650565b60006020828403121561356c57600080fd5b610b5082613362565b60006020828403121561358757600080fd5b8135610b508161313d565b6000602082840312156135a457600080fd5b8135610b5081613162565b80604081018310156135c057600080fd5b92915050565b60008060008060008061016087890312156135e057600080fd5b86359550602087013594506135f760408801613362565b935061360688606089016135af565b925061012087018881111561361a57600080fd5b60a08801925061362a89826135af565b9150509295509295509295565b60006020828403121561364957600080fd5b813567ffffffffffffffff81111561366057600080fd5b612f4c84828501613217565b6000806040838503121561367f57600080fd5b823567ffffffffffffffff81111561369657600080fd5b6136a285828601613217565b95602094909401359450505050565b600067ffffffffffffffff8211156136cb576136cb613170565b5060051b60200190565b600060208083850312156136e857600080fd5b823567ffffffffffffffff8082111561370057600080fd5b818501915085601f83011261371457600080fd5b8135613727613722826136b1565b6131c8565b81815260059190911b8301840190848101908883111561374657600080fd5b8585015b8381101561386d5780358581111561376157600080fd5b86016080818c037fffffffffffffffffffffffffffffffffffffffffffffffffffffffffffffffe001121561379557600080fd5b61379d61319f565b88820135878111156137ae57600080fd5b6137bc8d8b83860101613217565b8252506040808301358a8301526137d560608401613362565b818301526080830135888111156137ec5760008081fd5b8084019350508c603f8401126138025760008081fd5b89830135613812613722826136b1565b81815260059190911b84018201908b8101908f8311156138325760008081fd5b948301945b828610156138575761384886613362565b8252948c0194908c0190613837565b606085015250505084525091860191860161374a565b5098975050505050505050565b600181811c9082168061388e57607f821691505b6020821081036138c7577f4e487b7100000000000000000000000000000000000000000000000000000000600052602260045260246000fd5b50919050565b601f821115612dce57600081815260208120601f850160051c810160208610156138f45750805b601f850160051c820191505b8181101561391357828155600101613900565b505050505050565b815167ffffffffffffffff81111561393557613935613170565b61394981613943845461387a565b846138cd565b602080601f83116001811461399c57600084156139665750858301515b7fffffffffffffffffffffffffffffffffffffffffffffffffffffffffffffffff600386901b1c1916600185901b178555613913565b6000858152602081207fffffffffffffffffffffffffffffffffffffffffffffffffffffffffffffffe08616915b828110156139e9578886015182559484019460019091019084016139ca565b5085821015613a2557878501517fffffffffffffffffffffffffffffffffffffffffffffffffffffffffffffffff600388901b60f8161c191681555b5050505050600190811b01905550565b7f4e487b7100000000000000000000000000000000000000000000000000000000600052601160045260246000fd5b600067ffffffffffffffff808316818516808303821115613a8757613a87613a35565b01949350505050565b60008251613aa2818460208701613424565b9190910192915050565b600060208284031215613abe57600080fd5b5051919050565b600082613afb577f4e487b7100000000000000000000000000000000000000000000000000000000600052601260045260246000fd5b500690565b600067ffffffffffffffff83811690831681811015613b2157613b21613a35565b039392505050565b6000817fffffffffffffffffffffffffffffffffffffffffffffffffffffffffffffffff0483118215151615613b6157613b61613a35565b500290565b61012081016040808784376000838201818152879190815b6002811015613b9e57848483379084018281529284019290600101613b7e565b5050828760c0870137610100850181815286935091505b6001811015613bd4578251825260209283019290910190600101613bb5565b50505095945050505050565b600060208284031215613bf257600080fd5b8151610b5081613162565b600067ffffffffffffffff808316818103613c1a57613c1a613a35565b6001019392505050565b60007fffffffffffffffffffffffffffffffffffffffffffffffffffffffffffffffff8203613c5557613c55613a35565b5060010190565b60008451613c6e818460208901613424565b919091019283525060601b7fffffffffffffffffffffffffffffffffffffffff000000000000000000000000166020820152603401919050565b83815273ffffffffffffffffffffffffffffffffffffffff83166020820152606060408201526000613cdd6060830184613450565b95945050505050565b7f4e487b7100000000000000000000000000000000000000000000000000000000600052603260045260246000fdfea264697066735822122016361694db47d51517cf28958c01698d5e6845c7cc0c5572a632a56432352fff64736f6c634300080f0033",
  "linkReferences": {},
  "deployedLinkReferences": {}
}