{
  "_format": "hh-sol-artifact-1",
  "contractName": "ProofOfEfficiency",
  "sourceName": "contracts/ProofOfEfficiency.sol",
  "abi": [
    {
      "inputs": [
        {
          "internalType": "contract IGlobalExitRootManager",
          "name": "_globalExitRootManager",
          "type": "address"
        },
        {
          "internalType": "contract IERC20",
          "name": "_matic",
          "type": "address"
        },
        {
          "internalType": "contract IVerifierRollup",
          "name": "_rollupVerifier",
          "type": "address"
        },
        {
          "internalType": "bytes32",
          "name": "genesisRoot",
          "type": "bytes32"
        },
        {
          "internalType": "address",
          "name": "_trustedSequencer",
          "type": "address"
        },
        {
          "internalType": "bool",
          "name": "_forceBatchAllowed",
          "type": "bool"
        },
        {
          "internalType": "string",
          "name": "_trustedSequencerURL",
          "type": "string"
        }
      ],
      "stateMutability": "nonpayable",
      "type": "constructor"
    },
    {
      "anonymous": false,
      "inputs": [
        {
          "indexed": true,
          "internalType": "uint64",
          "name": "forceBatchNum",
          "type": "uint64"
        },
        {
          "indexed": false,
          "internalType": "bytes32",
          "name": "lastGlobalExitRoot",
          "type": "bytes32"
        },
        {
          "indexed": false,
          "internalType": "address",
          "name": "sequencer",
          "type": "address"
        },
        {
          "indexed": false,
          "internalType": "bytes",
          "name": "transactions",
          "type": "bytes"
        }
      ],
      "name": "ForceBatch",
      "type": "event"
    },
    {
      "anonymous": false,
      "inputs": [
        {
          "indexed": true,
          "internalType": "uint64",
          "name": "numBatch",
          "type": "uint64"
        }
      ],
      "name": "SequenceBatches",
      "type": "event"
    },
    {
      "anonymous": false,
      "inputs": [
        {
          "indexed": true,
          "internalType": "uint64",
          "name": "numBatch",
          "type": "uint64"
        }
      ],
      "name": "SequenceForceBatches",
      "type": "event"
    },
    {
      "anonymous": false,
      "inputs": [
        {
          "indexed": false,
          "internalType": "bool",
          "name": "newForceBatchAllowed",
          "type": "bool"
        }
      ],
      "name": "SetForceBatchAllowed",
      "type": "event"
    },
    {
      "anonymous": false,
      "inputs": [
        {
          "indexed": false,
          "internalType": "address",
          "name": "newTrustedSequencer",
          "type": "address"
        }
      ],
      "name": "SetTrustedSequencer",
      "type": "event"
    },
    {
      "anonymous": false,
      "inputs": [
        {
          "indexed": false,
          "internalType": "string",
          "name": "newTrustedSequencerURL",
          "type": "string"
        }
      ],
      "name": "SetTrustedSequencerURL",
      "type": "event"
    },
    {
      "anonymous": false,
      "inputs": [
        {
          "indexed": true,
          "internalType": "uint64",
          "name": "numBatch",
          "type": "uint64"
        },
        {
          "indexed": true,
          "internalType": "address",
          "name": "aggregator",
          "type": "address"
        }
      ],
      "name": "VerifyBatch",
      "type": "event"
    },
    {
      "inputs": [],
      "name": "FORCE_BATCH_TIMEOUT",
      "outputs": [
        {
          "internalType": "uint64",
          "name": "",
          "type": "uint64"
        }
      ],
      "stateMutability": "view",
      "type": "function"
    },
    {
      "inputs": [],
      "name": "MAX_BATCH_LENGTH",
      "outputs": [
        {
          "internalType": "uint256",
          "name": "",
          "type": "uint256"
        }
      ],
      "stateMutability": "view",
      "type": "function"
    },
    {
      "inputs": [],
      "name": "TRUSTED_SEQUENCER_FEE",
      "outputs": [
        {
          "internalType": "uint256",
          "name": "",
          "type": "uint256"
        }
      ],
      "stateMutability": "view",
      "type": "function"
    },
    {
      "inputs": [],
      "name": "calculateForceProverFee",
      "outputs": [
        {
          "internalType": "uint256",
          "name": "",
          "type": "uint256"
        }
      ],
      "stateMutability": "view",
      "type": "function"
    },
    {
      "inputs": [],
      "name": "currentLocalExitRoot",
      "outputs": [
        {
          "internalType": "bytes32",
          "name": "",
          "type": "bytes32"
        }
      ],
      "stateMutability": "view",
      "type": "function"
    },
    {
      "inputs": [],
      "name": "currentStateRoot",
      "outputs": [
        {
          "internalType": "bytes32",
          "name": "",
          "type": "bytes32"
        }
      ],
      "stateMutability": "view",
      "type": "function"
    },
    {
      "inputs": [
        {
          "internalType": "bytes",
          "name": "transactions",
          "type": "bytes"
        },
        {
          "internalType": "uint256",
          "name": "maticAmount",
          "type": "uint256"
        }
      ],
      "name": "forceBatch",
      "outputs": [],
      "stateMutability": "nonpayable",
      "type": "function"
    },
    {
      "inputs": [],
      "name": "forceBatchAllowed",
      "outputs": [
        {
          "internalType": "bool",
          "name": "",
          "type": "bool"
        }
      ],
      "stateMutability": "view",
      "type": "function"
    },
    {
      "inputs": [
        {
          "internalType": "uint64",
          "name": "",
          "type": "uint64"
        }
      ],
      "name": "forcedBatches",
      "outputs": [
        {
          "internalType": "bytes32",
          "name": "batchHashData",
          "type": "bytes32"
        },
        {
          "internalType": "uint256",
          "name": "maticFee",
          "type": "uint256"
        },
        {
          "internalType": "uint64",
          "name": "minTimestamp",
          "type": "uint64"
        }
      ],
      "stateMutability": "view",
      "type": "function"
    },
    {
      "inputs": [],
      "name": "globalExitRootManager",
      "outputs": [
        {
          "internalType": "contract IGlobalExitRootManager",
          "name": "",
          "type": "address"
        }
      ],
      "stateMutability": "view",
      "type": "function"
    },
    {
      "inputs": [],
      "name": "lastBatchSequenced",
      "outputs": [
        {
          "internalType": "uint64",
          "name": "",
          "type": "uint64"
        }
      ],
      "stateMutability": "view",
      "type": "function"
    },
    {
      "inputs": [],
      "name": "lastForceBatch",
      "outputs": [
        {
          "internalType": "uint64",
          "name": "",
          "type": "uint64"
        }
      ],
      "stateMutability": "view",
      "type": "function"
    },
    {
      "inputs": [],
      "name": "lastForceBatchSequenced",
      "outputs": [
        {
          "internalType": "uint64",
          "name": "",
          "type": "uint64"
        }
      ],
      "stateMutability": "view",
      "type": "function"
    },
    {
      "inputs": [],
      "name": "lastTimestamp",
      "outputs": [
        {
          "internalType": "uint64",
          "name": "",
          "type": "uint64"
        }
      ],
      "stateMutability": "view",
      "type": "function"
    },
    {
      "inputs": [],
      "name": "lastVerifiedBatch",
      "outputs": [
        {
          "internalType": "uint64",
          "name": "",
          "type": "uint64"
        }
      ],
      "stateMutability": "view",
      "type": "function"
    },
    {
      "inputs": [],
      "name": "matic",
      "outputs": [
        {
          "internalType": "contract IERC20",
          "name": "",
          "type": "address"
        }
      ],
      "stateMutability": "view",
      "type": "function"
    },
    {
      "inputs": [],
      "name": "rollupVerifier",
      "outputs": [
        {
          "internalType": "contract IVerifierRollup",
          "name": "",
          "type": "address"
        }
      ],
      "stateMutability": "view",
      "type": "function"
    },
    {
      "inputs": [
        {
          "components": [
            {
              "internalType": "bytes",
              "name": "transactions",
              "type": "bytes"
            },
            {
              "internalType": "bytes32",
              "name": "globalExitRoot",
              "type": "bytes32"
            },
            {
              "internalType": "uint64",
              "name": "timestamp",
              "type": "uint64"
            },
            {
              "internalType": "uint64[]",
              "name": "forceBatchesTimestamp",
              "type": "uint64[]"
            }
          ],
          "internalType": "struct ProofOfEfficiency.BatchData[]",
          "name": "batches",
          "type": "tuple[]"
        }
      ],
      "name": "sequenceBatches",
      "outputs": [],
      "stateMutability": "nonpayable",
      "type": "function"
    },
    {
      "inputs": [
        {
          "internalType": "uint64",
          "name": "numForcedBatches",
          "type": "uint64"
        }
      ],
      "name": "sequenceForceBatches",
      "outputs": [],
      "stateMutability": "nonpayable",
      "type": "function"
    },
    {
      "inputs": [
        {
          "internalType": "uint64",
          "name": "",
          "type": "uint64"
        }
      ],
      "name": "sequencedBatches",
      "outputs": [
        {
          "internalType": "bytes32",
          "name": "batchHashData",
          "type": "bytes32"
        },
        {
          "internalType": "uint64",
          "name": "timestamp",
          "type": "uint64"
        },
        {
          "internalType": "uint64",
          "name": "forceBatchNum",
          "type": "uint64"
        }
      ],
      "stateMutability": "view",
      "type": "function"
    },
    {
      "inputs": [
        {
          "internalType": "bool",
          "name": "newForceBatchAllowed",
          "type": "bool"
        }
      ],
      "name": "setForceBatchAllowed",
      "outputs": [],
      "stateMutability": "nonpayable",
      "type": "function"
    },
    {
      "inputs": [
        {
          "internalType": "address",
          "name": "newTrustedSequencer",
          "type": "address"
        }
      ],
      "name": "setTrustedSequencer",
      "outputs": [],
      "stateMutability": "nonpayable",
      "type": "function"
    },
    {
      "inputs": [
        {
          "internalType": "string",
          "name": "newTrustedSequencerURL",
          "type": "string"
        }
      ],
      "name": "setTrustedSequencerURL",
      "outputs": [],
      "stateMutability": "nonpayable",
      "type": "function"
    },
    {
      "inputs": [],
      "name": "trustedSequencer",
      "outputs": [
        {
          "internalType": "address",
          "name": "",
          "type": "address"
        }
      ],
      "stateMutability": "view",
      "type": "function"
    },
    {
      "inputs": [],
      "name": "trustedSequencerURL",
      "outputs": [
        {
          "internalType": "string",
          "name": "",
          "type": "string"
        }
      ],
      "stateMutability": "view",
      "type": "function"
    },
    {
      "inputs": [
        {
          "internalType": "bytes32",
          "name": "newLocalExitRoot",
          "type": "bytes32"
        },
        {
          "internalType": "bytes32",
          "name": "newStateRoot",
          "type": "bytes32"
        },
        {
          "internalType": "uint64",
          "name": "numBatch",
          "type": "uint64"
        },
        {
          "internalType": "uint256[2]",
          "name": "proofA",
          "type": "uint256[2]"
        },
        {
          "internalType": "uint256[2][2]",
          "name": "proofB",
          "type": "uint256[2][2]"
        },
        {
          "internalType": "uint256[2]",
          "name": "proofC",
          "type": "uint256[2]"
        }
      ],
      "name": "verifyBatch",
      "outputs": [],
      "stateMutability": "nonpayable",
      "type": "function"
    }
  ],
  "bytecode": "0x60a06040523480156200001157600080fd5b50604051620034d2380380620034d28339810160408190526200003491620000f2565b600480546001600160a01b03199081166001600160a01b038a81169190911790925587821660805260078054909116878316179055600585905560038054600160401b600160e81b031916680100000000000000009286169290920260ff60e01b191691909117600160e01b841515021790556008620000b58282620002da565b5050505050505050620003a6565b6001600160a01b0381168114620000d957600080fd5b50565b634e487b7160e01b600052604160045260246000fd5b600080600080600080600060e0888a0312156200010e57600080fd5b87516200011b81620000c3565b809750506020808901516200013081620000c3565b60408a01519097506200014381620000c3565b60608a015160808b015191975095506200015d81620000c3565b60a08a015190945080151581146200017457600080fd5b60c08a01519093506001600160401b03808211156200019257600080fd5b818b0191508b601f830112620001a757600080fd5b815181811115620001bc57620001bc620000dc565b604051601f8201601f19908116603f01168101908382118183101715620001e757620001e7620000dc565b816040528281528e868487010111156200020057600080fd5b600093505b8284101562000224578484018601518185018701529285019262000205565b82841115620002365760008684830101525b80965050505050505092959891949750929550565b600181811c908216806200026057607f821691505b6020821081036200028157634e487b7160e01b600052602260045260246000fd5b50919050565b601f821115620002d557600081815260208120601f850160051c81016020861015620002b05750805b601f850160051c820191505b81811015620002d157828155600101620002bc565b5050505b505050565b81516001600160401b03811115620002f657620002f6620000dc565b6200030e816200030784546200024b565b8462000287565b602080601f8311600181146200034657600084156200032d5750858301515b600019600386901b1c1916600185901b178555620002d1565b600085815260208120601f198616915b82811015620003775788860151825594840194600190910190840162000356565b5085821015620003965787850151600019600388901b60f8161c191681555b5050505050600190811b01905550565b6080516130fb620003d7600039600081816103c701528181610e7a015281816117680152611b2101526130fb6000f3fe608060405234801561001057600080fd5b50600436106101ae5760003560e01c8063ac2eba98116100ee578063d02103ca11610097578063e8bf92ed11610071578063e8bf92ed146104da578063eaeb077b146104fa578063f75527611461050d578063f7d2cd7f1461051c57600080fd5b8063d02103ca1461044d578063d8f54db01461046d578063e7a7ed02146104aa57600080fd5b8063b6b0b097116100c8578063b6b0b097146103c2578063c89e42df1461040e578063cfa8ed471461042157600080fd5b8063ac2eba981461032b578063b02286c014610334578063b4d63f581461035b57600080fd5b8063798470571161015b57806395297e241161013557806395297e24146102f2578063959c2f4714610305578063aa0f44181461030e578063ab9fc5ef1461032157600080fd5b806379847057146102b55780637fcb3653146102cb5780638c4a0af7146102df57600080fd5b8063542028d51161018c578063542028d51461022d5780636b8616ce146102425780636ff512cc146102a057600080fd5b806319d8ac61146101b3578063423fa856146101e55780634560526714610205575b600080fd5b6002546101c79067ffffffffffffffff1681565b60405167ffffffffffffffff90911681526020015b60405180910390f35b6002546101c79068010000000000000000900467ffffffffffffffff1681565b6002546101c790700100000000000000000000000000000000900467ffffffffffffffff1681565b61023561052f565b6040516101dc9190612757565b61027b610250366004612787565b60006020819052908152604090208054600182015460029092015490919067ffffffffffffffff1683565b60408051938452602084019290925267ffffffffffffffff16908201526060016101dc565b6102b36102ae3660046127a2565b6105bd565b005b6102bd6106fd565b6040519081526020016101dc565b6003546101c79067ffffffffffffffff1681565b6102b36102ed3660046127e9565b610777565b6102b361030036600461281d565b6108ab565b6102bd60065481565b6102b361031c366004612787565b610ee7565b6101c762093a8081565b6102bd60055481565b6102bd7fffffffffffffffffffffffffffffffffffffffffffffffffffffffffffffffff81565b61039c610369366004612787565b6001602081905260009182526040909120805491015467ffffffffffffffff808216916801000000000000000090041683565b6040805193845267ffffffffffffffff92831660208501529116908201526060016101dc565b6103e97f000000000000000000000000000000000000000000000000000000000000000081565b60405173ffffffffffffffffffffffffffffffffffffffff90911681526020016101dc565b6102b361041c3660046129ab565b611436565b6003546103e99068010000000000000000900473ffffffffffffffffffffffffffffffffffffffff1681565b6004546103e99073ffffffffffffffffffffffffffffffffffffffff1681565b60035461049a907c0100000000000000000000000000000000000000000000000000000000900460ff1681565b60405190151581526020016101dc565b6002546101c7907801000000000000000000000000000000000000000000000000900467ffffffffffffffff1681565b6007546103e99073ffffffffffffffffffffffffffffffffffffffff1681565b6102b3610508366004612a1c565b611525565b6102bd67016345785d8a000081565b6102b361052a366004612a85565b611a3e565b6008805461053c90612c2a565b80601f016020809104026020016040519081016040528092919081815260200182805461056890612c2a565b80156105b55780601f1061058a576101008083540402835291602001916105b5565b820191906000526020600020905b81548152906001019060200180831161059857829003601f168201915b505050505081565b60035468010000000000000000900473ffffffffffffffffffffffffffffffffffffffff163314610675576040517f08c379a000000000000000000000000000000000000000000000000000000000815260206004820152603f60248201527f50726f6f664f66456666696369656e63793a3a6f6e6c7954727573746564536560448201527f7175656e6365723a206f6e6c7920747275737465642073657175656e6365720060648201526084015b60405180910390fd5b600380547fffffffff0000000000000000000000000000000000000000ffffffffffffffff166801000000000000000073ffffffffffffffffffffffffffffffffffffffff8416908102919091179091556040519081527ff54144f9611984021529f814a1cb6a41e22c58351510a0d9f7e822618abb9cc0906020015b60405180910390a150565b60025460009067ffffffffffffffff700100000000000000000000000000000000820481169161074c917801000000000000000000000000000000000000000000000000909104166001612cac565b6107569190612cd8565b6107729067ffffffffffffffff16670de0b6b3a7640000612d01565b905090565b60035468010000000000000000900473ffffffffffffffffffffffffffffffffffffffff16331461082a576040517f08c379a000000000000000000000000000000000000000000000000000000000815260206004820152603f60248201527f50726f6f664f66456666696369656e63793a3a6f6e6c7954727573746564536560448201527f7175656e6365723a206f6e6c7920747275737465642073657175656e63657200606482015260840161066c565b600380548215157c0100000000000000000000000000000000000000000000000000000000027fffffff00ffffffffffffffffffffffffffffffffffffffffffffffffffffffff9091161790556040517fbacda50a4a8575be1d91a7ebe29ee45056f3a94f12a2281eb6b43afa33bcefe6906106f290831515815260200190565b6003546108c39067ffffffffffffffff166001612cac565b67ffffffffffffffff168467ffffffffffffffff1614610965576040517f08c379a000000000000000000000000000000000000000000000000000000000815260206004820152603460248201527f50726f6f664f66456666696369656e63793a3a76657269667942617463683a2060448201527f626174636820646f6573206e6f74206d61746368000000000000000000000000606482015260840161066c565b60025467ffffffffffffffff6801000000000000000090910481169085161115610a37576040517f08c379a000000000000000000000000000000000000000000000000000000000815260206004820152604260248201527f50726f6f664f66456666696369656e63793a3a76657269667942617463683a2060448201527f626174636820646f6573206e6f742068617665206265656e2073657175656e6360648201527f6564000000000000000000000000000000000000000000000000000000000000608482015260a40161066c565b67ffffffffffffffff808516600090815260016020819052604082200154808316928291680100000000000000009004168103610a9857505067ffffffffffffffff851660009081526001602052604090205467016345785d8a0000610afa565b505067ffffffffffffffff80861660009081526001602081815260408084208301546801000000000000000090048516845283825292839020835160608101855281548082529382015492810183905260029091015490941693909201929092525b60055460065460408051602081019390935282015260608101899052608081018a905260a081018390527fffffffffffffffff00000000000000000000000000000000000000000000000060c089811b82168184015285901b1660c882015260009060d00160405160208183030381529060405280519060200120905060007f30644e72e131a029b85045b68181585d2833e84879b9709143e1f593f000000160028333604051602001610bdd92919091825260601b7fffffffffffffffffffffffffffffffffffffffff00000000000000000000000016602082015260340190565b604080517fffffffffffffffffffffffffffffffffffffffffffffffffffffffffffffffe081840301815290829052610c1591612d3e565b602060405180830381855afa158015610c32573d6000803e3d6000fd5b5050506040513d601f19601f82011682018060405250810190610c559190612d5a565b610c5f9190612d73565b6007546040805160208101825283815290517f43753b4d00000000000000000000000000000000000000000000000000000000815292935073ffffffffffffffffffffffffffffffffffffffff909116916343753b4d91610cc9918c918c918c9190600401612dae565b602060405180830381865afa158015610ce6573d6000803e3d6000fd5b505050506040513d601f19601f82011682018060405250810190610d0a9190612e28565b610d96576040517f08c379a000000000000000000000000000000000000000000000000000000000815260206004820152602d60248201527f50726f6f664f66456666696369656e63793a3a76657269667942617463683a2060448201527f494e56414c49445f50524f4f4600000000000000000000000000000000000000606482015260840161066c565b6003805467ffffffffffffffff16906000610db083612e45565b825467ffffffffffffffff9182166101009390930a92830291909202199091161790555060058a905560068b9055600480546040517f33d6247d0000000000000000000000000000000000000000000000000000000081529182018d905273ffffffffffffffffffffffffffffffffffffffff16906333d6247d90602401600060405180830381600087803b158015610e4857600080fd5b505af1158015610e5c573d6000803e3d6000fd5b50610ea392505073ffffffffffffffffffffffffffffffffffffffff7f0000000000000000000000000000000000000000000000000000000000000000169050338561229c565b604051339067ffffffffffffffff8b16907f2cdf1508085a46c7241a7d78c5a1ec3d9246d1ab95e1c2a33676d29e17d4222390600090a35050505050505050505050565b6003547c0100000000000000000000000000000000000000000000000000000000900460ff161515600114610fc4576040517f08c379a000000000000000000000000000000000000000000000000000000000815260206004820152604860248201527f50726f6f664f66456666696369656e63793a3a6973466f72636542617463684160448201527f6c6c6f7765643a206f6e6c7920696620666f726365206261746368206973206160648201527f7661696c61626c65000000000000000000000000000000000000000000000000608482015260a40161066c565b600254600090610ff3908390700100000000000000000000000000000000900467ffffffffffffffff16612cac565b905060008267ffffffffffffffff16116110b5576040517f08c379a000000000000000000000000000000000000000000000000000000000815260206004820152604260248201527f50726f6f664f66456666696369656e63793a3a73657175656e6365466f72636560448201527f42617463683a204d75737420666f726365206174206c6561737420312062617460648201527f6368000000000000000000000000000000000000000000000000000000000000608482015260a40161066c565b60025467ffffffffffffffff780100000000000000000000000000000000000000000000000090910481169082161115611171576040517f08c379a000000000000000000000000000000000000000000000000000000000815260206004820152603a60248201527f50726f6f664f66456666696369656e63793a3a73657175656e6365466f72636560448201527f42617463683a20466f72636520626174636820696e76616c6964000000000000606482015260840161066c565b60035468010000000000000000900473ffffffffffffffffffffffffffffffffffffffff1633146112895767ffffffffffffffff80821660009081526020819052604090206002015442916111cb9162093a809116612cac565b67ffffffffffffffff161115611289576040517f08c379a000000000000000000000000000000000000000000000000000000000815260206004820152604c60248201527f50726f6f664f66456666696369656e63793a3a73657175656e6365466f72636560448201527f42617463683a20466f72636564206261746368206973206e6f7420696e20746960648201527f6d656f757420706572696f640000000000000000000000000000000000000000608482015260a40161066c565b60025467ffffffffffffffff68010000000000000000820481169170010000000000000000000000000000000090041660005b8467ffffffffffffffff1681101561137957816112d881612e45565b92505082806112e690612e45565b67ffffffffffffffff81811660009081526001602081905260409091200180547fffffffffffffffffffffffffffffffff000000000000000000000000000000001668010000000000000000878416027fffffffffffffffffffffffffffffffffffffffffffffffff0000000000000000161742909216919091179055935081905061137181612e6c565b9150506112bc565b50600280544267ffffffffffffffff9081167fffffffffffffffffffffffffffffffff0000000000000000000000000000000090921691909117680100000000000000008583168102919091177fffffffffffffffff0000000000000000ffffffffffffffffffffffffffffffff16700100000000000000000000000000000000858416021792839055604051920416907f648a61dd2438f072f5a1960939abd30f37aea80d2e94c9792ad142d3e0a490a490600090a250505050565b60035468010000000000000000900473ffffffffffffffffffffffffffffffffffffffff1633146114e9576040517f08c379a000000000000000000000000000000000000000000000000000000000815260206004820152603f60248201527f50726f6f664f66456666696369656e63793a3a6f6e6c7954727573746564536560448201527f7175656e6365723a206f6e6c7920747275737465642073657175656e63657200606482015260840161066c565b60086114f58282612ef2565b507f6b8f723a4c7a5335cafae8a598a0aa0301be1387c037dccc085b62add6448b20816040516106f29190612757565b6003547c0100000000000000000000000000000000000000000000000000000000900460ff161515600114611602576040517f08c379a000000000000000000000000000000000000000000000000000000000815260206004820152604860248201527f50726f6f664f66456666696369656e63793a3a6973466f72636542617463684160448201527f6c6c6f7765643a206f6e6c7920696620666f726365206261746368206973206160648201527f7661696c61626c65000000000000000000000000000000000000000000000000608482015260a40161066c565b600061160c6106fd565b90508181111561169e576040517f08c379a000000000000000000000000000000000000000000000000000000000815260206004820152602f60248201527f50726f6f664f66456666696369656e63793a3a666f72636542617463683a206e60448201527f6f7420656e6f756768206d617469630000000000000000000000000000000000606482015260840161066c565b7fffffffffffffffffffffffffffffffffffffffffffffffffffffffffffffffff83511061174e576040517f08c379a000000000000000000000000000000000000000000000000000000000815260206004820152603a60248201527f50726f6f664f66456666696369656e63793a3a666f72636542617463683a205460448201527f72616e73616374696f6e73206279746573206f766572666c6f77000000000000606482015260840161066c565b61179073ffffffffffffffffffffffffffffffffffffffff7f000000000000000000000000000000000000000000000000000000000000000016333084612375565b6000600460009054906101000a900473ffffffffffffffffffffffffffffffffffffffff1673ffffffffffffffffffffffffffffffffffffffff16633ed691ef6040518163ffffffff1660e01b8152600401602060405180830381865afa1580156117ff573d6000803e3d6000fd5b505050506040513d601f19601f820116820180604052508101906118239190612d5a565b60028054919250780100000000000000000000000000000000000000000000000090910467ffffffffffffffff1690601861185d83612e45565b91906101000a81548167ffffffffffffffff021916908367ffffffffffffffff160217905550508381336040516020016118999392919061300c565b604080518083037fffffffffffffffffffffffffffffffffffffffffffffffffffffffffffffffe001815291815281516020928301206002805478010000000000000000000000000000000000000000000000009081900467ffffffffffffffff9081166000908152958690528486209390935581548190048316855283852060010187905581540482168452919092200180547fffffffffffffffffffffffffffffffffffffffffffffffff000000000000000016429092169190911790553233036119db57600254604080518381523360208201526060918101829052600091810191909152780100000000000000000000000000000000000000000000000090910467ffffffffffffffff16907ff94bb37db835f1ab585ee00041849a09b12cd081d77fa15ca070757619cbc9319060800160405180910390a2611a38565b600260189054906101000a900467ffffffffffffffff1667ffffffffffffffff167ff94bb37db835f1ab585ee00041849a09b12cd081d77fa15ca070757619cbc931823387604051611a2f93929190613058565b60405180910390a25b50505050565b60035468010000000000000000900473ffffffffffffffffffffffffffffffffffffffff163314611af1576040517f08c379a000000000000000000000000000000000000000000000000000000000815260206004820152603f60248201527f50726f6f664f66456666696369656e63793a3a6f6e6c7954727573746564536560448201527f7175656e6365723a206f6e6c7920747275737465642073657175656e63657200606482015260840161066c565b8051611b493330611b0a8467016345785d8a0000612d01565b73ffffffffffffffffffffffffffffffffffffffff7f000000000000000000000000000000000000000000000000000000000000000016929190612375565b60025467ffffffffffffffff808216916801000000000000000081048216917001000000000000000000000000000000009091041660005b84811015612123576000868281518110611b9d57611b9d613096565b602002602001015190508467ffffffffffffffff16816040015167ffffffffffffffff1610158015611bdd575042816040015167ffffffffffffffff1611155b611c8f576040517f08c379a000000000000000000000000000000000000000000000000000000000815260206004820152604260248201527f50726f6f664f66456666696369656e63793a3a73657175656e6365426174636860448201527f65733a2054696d657374616d70206d75737420626520696e736964652072616e60648201527f6765000000000000000000000000000000000000000000000000000000000000608482015260a40161066c565b60208101511580611d3457506004805460208301516040517f257b36320000000000000000000000000000000000000000000000000000000081529283015273ffffffffffffffffffffffffffffffffffffffff169063257b3632906024016020604051808303816000875af1158015611d0d573d6000803e3d6000fd5b505050506040513d601f19601f82011682018060405250810190611d319190612d5a565b15155b611dc0576040517f08c379a000000000000000000000000000000000000000000000000000000000815260206004820152603f60248201527f50726f6f664f66456666696369656e63793a3a73657175656e6365426174636860448201527f65733a20476c6f62616c206578697420726f6f74206d75737420657869737400606482015260840161066c565b8051517fffffffffffffffffffffffffffffffffffffffffffffffffffffffffffffffff11611e71576040517f08c379a000000000000000000000000000000000000000000000000000000000815260206004820152603f60248201527f50726f6f664f66456666696369656e63793a3a73657175656e6365426174636860448201527f65733a205472616e73616374696f6e73206279746573206f766572666c6f7700606482015260840161066c565b83611e7b81612e45565b8251602080850151604051939850611e989450919233910161300c565b604080518083037fffffffffffffffffffffffffffffffffffffffffffffffffffffffffffffffe0018152918152815160209283012067ffffffffffffffff8781166000908152600194859052838120928355928501519190930180547fffffffffffffffffffffffffffffffffffffffffffffffff000000000000000016938216939093179092559095505b81606001515181101561210e5783611f3c81612e45565b945050600082606001518281518110611f5757611f57613096565b602002602001015190508667ffffffffffffffff168167ffffffffffffffff1610158015611fa6575067ffffffffffffffff808616600090815260208190526040902060020154811690821610155b8015611fbc5750428167ffffffffffffffff1611155b61206e576040517f08c379a000000000000000000000000000000000000000000000000000000000815260206004820152605160248201527f50726f6f664f66456666696369656e63793a3a73657175656e6365426174636860448201527f65733a20466f7263656420626174636865732074696d657374616d70206d757360648201527f7420626520696e736964652072616e6765000000000000000000000000000000608482015260a40161066c565b8561207881612e45565b67ffffffffffffffff81811660009081526001602081905260409091200180547fffffffffffffffffffffffffffffffff0000000000000000000000000000000016680100000000000000008a8416027fffffffffffffffffffffffffffffffffffffffffffffffff0000000000000000161791851691909117905591975090955081905061210681612e6c565b915050611f25565b5050808061211b90612e6c565b915050611b81565b5060025467ffffffffffffffff7801000000000000000000000000000000000000000000000000909104811690821611156121e0576040517f08c379a000000000000000000000000000000000000000000000000000000000815260206004820152603a60248201527f50726f6f664f66456666696369656e63793a3a73657175656e6365426174636860448201527f65733a20466f7263652062617463686573206f766572666c6f77000000000000606482015260840161066c565b6002805467ffffffffffffffff8581167fffffffffffffffffffffffffffffffff0000000000000000000000000000000090921691909117680100000000000000008583168102919091177fffffffffffffffff0000000000000000ffffffffffffffffffffffffffffffff16700100000000000000000000000000000000858416021792839055604051920416907f303446e6a8cb73c83dff421c0b1d5e5ce0719dab1bff13660fc254e58cc17fce90600090a25050505050565b60405173ffffffffffffffffffffffffffffffffffffffff83166024820152604481018290526123709084907fa9059cbb00000000000000000000000000000000000000000000000000000000906064015b604080517fffffffffffffffffffffffffffffffffffffffffffffffffffffffffffffffe08184030181529190526020810180517bffffffffffffffffffffffffffffffffffffffffffffffffffffffff167fffffffff00000000000000000000000000000000000000000000000000000000909316929092179091526123d3565b505050565b60405173ffffffffffffffffffffffffffffffffffffffff80851660248301528316604482015260648101829052611a389085907f23b872dd00000000000000000000000000000000000000000000000000000000906084016122ee565b6000612435826040518060400160405280602081526020017f5361666545524332303a206c6f772d6c6576656c2063616c6c206661696c65648152508573ffffffffffffffffffffffffffffffffffffffff166124df9092919063ffffffff16565b80519091501561237057808060200190518101906124539190612e28565b612370576040517f08c379a000000000000000000000000000000000000000000000000000000000815260206004820152602a60248201527f5361666545524332303a204552433230206f7065726174696f6e20646964206e60448201527f6f74207375636365656400000000000000000000000000000000000000000000606482015260840161066c565b60606124ee84846000856124f8565b90505b9392505050565b60608247101561258a576040517f08c379a000000000000000000000000000000000000000000000000000000000815260206004820152602660248201527f416464726573733a20696e73756666696369656e742062616c616e636520666f60448201527f722063616c6c0000000000000000000000000000000000000000000000000000606482015260840161066c565b73ffffffffffffffffffffffffffffffffffffffff85163b612608576040517f08c379a000000000000000000000000000000000000000000000000000000000815260206004820152601d60248201527f416464726573733a2063616c6c20746f206e6f6e2d636f6e7472616374000000604482015260640161066c565b6000808673ffffffffffffffffffffffffffffffffffffffff1685876040516126319190612d3e565b60006040518083038185875af1925050503d806000811461266e576040519150601f19603f3d011682016040523d82523d6000602084013e612673565b606091505b509150915061268382828661268e565b979650505050505050565b6060831561269d5750816124f1565b8251156126ad5782518084602001fd5b816040517f08c379a000000000000000000000000000000000000000000000000000000000815260040161066c9190612757565b60005b838110156126fc5781810151838201526020016126e4565b83811115611a385750506000910152565b600081518084526127258160208601602086016126e1565b601f017fffffffffffffffffffffffffffffffffffffffffffffffffffffffffffffffe0169290920160200192915050565b6020815260006124f1602083018461270d565b803567ffffffffffffffff8116811461278257600080fd5b919050565b60006020828403121561279957600080fd5b6124f18261276a565b6000602082840312156127b457600080fd5b813573ffffffffffffffffffffffffffffffffffffffff811681146124f157600080fd5b80151581146127e657600080fd5b50565b6000602082840312156127fb57600080fd5b81356124f1816127d8565b806040810183101561281757600080fd5b92915050565b600080600080600080610160878903121561283757600080fd5b863595506020870135945061284e6040880161276a565b935061285d8860608901612806565b925061012087018881111561287157600080fd5b60a0880192506128818982612806565b9150509295509295509295565b7f4e487b7100000000000000000000000000000000000000000000000000000000600052604160045260246000fd5b6040516080810167ffffffffffffffff811182821017156128e0576128e061288e565b60405290565b604051601f82017fffffffffffffffffffffffffffffffffffffffffffffffffffffffffffffffe016810167ffffffffffffffff8111828210171561292d5761292d61288e565b604052919050565b600067ffffffffffffffff83111561294f5761294f61288e565b61298060207fffffffffffffffffffffffffffffffffffffffffffffffffffffffffffffffe0601f860116016128e6565b905082815283838301111561299457600080fd5b828260208301376000602084830101529392505050565b6000602082840312156129bd57600080fd5b813567ffffffffffffffff8111156129d457600080fd5b8201601f810184136129e557600080fd5b6129f484823560208401612935565b949350505050565b600082601f830112612a0d57600080fd5b6124f183833560208501612935565b60008060408385031215612a2f57600080fd5b823567ffffffffffffffff811115612a4657600080fd5b612a52858286016129fc565b95602094909401359450505050565b600067ffffffffffffffff821115612a7b57612a7b61288e565b5060051b60200190565b60006020808385031215612a9857600080fd5b823567ffffffffffffffff80821115612ab057600080fd5b818501915085601f830112612ac457600080fd5b8135612ad7612ad282612a61565b6128e6565b81815260059190911b83018401908481019088831115612af657600080fd5b8585015b83811015612c1d57803585811115612b1157600080fd5b86016080818c037fffffffffffffffffffffffffffffffffffffffffffffffffffffffffffffffe0011215612b4557600080fd5b612b4d6128bd565b8882013587811115612b5e57600080fd5b612b6c8d8b838601016129fc565b8252506040808301358a830152612b856060840161276a565b81830152608083013588811115612b9c5760008081fd5b8084019350508c603f840112612bb25760008081fd5b89830135612bc2612ad282612a61565b81815260059190911b84018201908b8101908f831115612be25760008081fd5b948301945b82861015612c0757612bf88661276a565b8252948c0194908c0190612be7565b6060850152505050845250918601918601612afa565b5098975050505050505050565b600181811c90821680612c3e57607f821691505b602082108103612c77577f4e487b7100000000000000000000000000000000000000000000000000000000600052602260045260246000fd5b50919050565b7f4e487b7100000000000000000000000000000000000000000000000000000000600052601160045260246000fd5b600067ffffffffffffffff808316818516808303821115612ccf57612ccf612c7d565b01949350505050565b600067ffffffffffffffff83811690831681811015612cf957612cf9612c7d565b039392505050565b6000817fffffffffffffffffffffffffffffffffffffffffffffffffffffffffffffffff0483118215151615612d3957612d39612c7d565b500290565b60008251612d508184602087016126e1565b9190910192915050565b600060208284031215612d6c57600080fd5b5051919050565b600082612da9577f4e487b7100000000000000000000000000000000000000000000000000000000600052601260045260246000fd5b500690565b61012081016040808784376000838201818152879190815b6002811015612de657848483379084018281529284019290600101612dc6565b5050828760c0870137610100850181815286935091505b6001811015612e1c578251825260209283019290910190600101612dfd565b50505095945050505050565b600060208284031215612e3a57600080fd5b81516124f1816127d8565b600067ffffffffffffffff808316818103612e6257612e62612c7d565b6001019392505050565b60007fffffffffffffffffffffffffffffffffffffffffffffffffffffffffffffffff8203612e9d57612e9d612c7d565b5060010190565b601f82111561237057600081815260208120601f850160051c81016020861015612ecb5750805b601f850160051c820191505b81811015612eea57828155600101612ed7565b505050505050565b815167ffffffffffffffff811115612f0c57612f0c61288e565b612f2081612f1a8454612c2a565b84612ea4565b602080601f831160018114612f735760008415612f3d5750858301515b7fffffffffffffffffffffffffffffffffffffffffffffffffffffffffffffffff600386901b1c1916600185901b178555612eea565b6000858152602081207fffffffffffffffffffffffffffffffffffffffffffffffffffffffffffffffe08616915b82811015612fc057888601518255948401946001909101908401612fa1565b5085821015612ffc57878501517fffffffffffffffffffffffffffffffffffffffffffffffffffffffffffffffff600388901b60f8161c191681555b5050505050600190811b01905550565b6000845161301e8184602089016126e1565b919091019283525060601b7fffffffffffffffffffffffffffffffffffffffff000000000000000000000000166020820152603401919050565b83815273ffffffffffffffffffffffffffffffffffffffff8316602082015260606040820152600061308d606083018461270d565b95945050505050565b7f4e487b7100000000000000000000000000000000000000000000000000000000600052603260045260246000fdfea2646970667358221220786b884dc9fb41b2a264bf25947ab5c6f858acc478caa5ef02904930377c637864736f6c634300080f0033",
  "linkReferences": {},
  "deployedLinkReferences": {}
}