{
  "_format": "hh-sol-artifact-1",
  "contractName": "ProofOfEfficiency",
  "sourceName": "contracts/ProofOfEfficiency.sol",
  "abi": [
    {
      "anonymous": false,
      "inputs": [
        {
          "indexed": true,
          "internalType": "uint64",
          "name": "forceBatchNum",
          "type": "uint64"
        },
        {
          "indexed": false,
          "internalType": "bytes32",
          "name": "lastGlobalExitRoot",
          "type": "bytes32"
        },
        {
          "indexed": false,
          "internalType": "address",
          "name": "sequencer",
          "type": "address"
        },
        {
          "indexed": false,
          "internalType": "bytes",
          "name": "transactions",
          "type": "bytes"
        }
      ],
      "name": "ForceBatch",
      "type": "event"
    },
    {
      "anonymous": false,
      "inputs": [
        {
          "indexed": false,
          "internalType": "uint8",
          "name": "version",
          "type": "uint8"
        }
      ],
      "name": "Initialized",
      "type": "event"
    },
    {
      "anonymous": false,
      "inputs": [
        {
          "indexed": true,
          "internalType": "uint64",
          "name": "numBatch",
          "type": "uint64"
        }
      ],
      "name": "SequenceBatches",
      "type": "event"
    },
    {
      "anonymous": false,
      "inputs": [
        {
          "indexed": true,
          "internalType": "uint64",
          "name": "numBatch",
          "type": "uint64"
        }
      ],
      "name": "SequenceForceBatches",
      "type": "event"
    },
    {
      "anonymous": false,
      "inputs": [
        {
          "indexed": false,
          "internalType": "bool",
          "name": "newForceBatchAllowed",
          "type": "bool"
        }
      ],
      "name": "SetForceBatchAllowed",
      "type": "event"
    },
    {
      "anonymous": false,
      "inputs": [
        {
          "indexed": false,
          "internalType": "address",
          "name": "newTrustedSequencer",
          "type": "address"
        }
      ],
      "name": "SetTrustedSequencer",
      "type": "event"
    },
    {
      "anonymous": false,
      "inputs": [
        {
          "indexed": false,
          "internalType": "string",
          "name": "newTrustedSequencerURL",
          "type": "string"
        }
      ],
      "name": "SetTrustedSequencerURL",
      "type": "event"
    },
    {
      "anonymous": false,
      "inputs": [
        {
          "indexed": true,
          "internalType": "uint64",
          "name": "numBatch",
          "type": "uint64"
        },
        {
          "indexed": true,
          "internalType": "address",
          "name": "aggregator",
          "type": "address"
        }
      ],
      "name": "VerifyBatches",
      "type": "event"
    },
    {
      "inputs": [],
      "name": "FORCE_BATCH_TIMEOUT",
      "outputs": [
        {
          "internalType": "uint64",
          "name": "",
          "type": "uint64"
        }
      ],
      "stateMutability": "view",
      "type": "function"
    },
    {
      "inputs": [],
      "name": "MAX_BATCH_LENGTH",
      "outputs": [
        {
          "internalType": "uint256",
          "name": "",
          "type": "uint256"
        }
      ],
      "stateMutability": "view",
      "type": "function"
    },
    {
      "inputs": [],
      "name": "TRUSTED_SEQUENCER_FEE",
      "outputs": [
        {
          "internalType": "uint256",
          "name": "",
          "type": "uint256"
        }
      ],
      "stateMutability": "view",
      "type": "function"
    },
    {
      "inputs": [],
      "name": "calculateForceProverFee",
      "outputs": [
        {
          "internalType": "uint256",
          "name": "",
          "type": "uint256"
        }
      ],
      "stateMutability": "view",
      "type": "function"
    },
    {
      "inputs": [],
      "name": "calculateRewardPerBatch",
      "outputs": [
        {
          "internalType": "uint256",
          "name": "",
          "type": "uint256"
        }
      ],
      "stateMutability": "view",
      "type": "function"
    },
    {
      "inputs": [],
      "name": "chainID",
      "outputs": [
        {
          "internalType": "uint64",
          "name": "",
          "type": "uint64"
        }
      ],
      "stateMutability": "view",
      "type": "function"
    },
    {
      "inputs": [],
      "name": "currentStateRoot",
      "outputs": [
        {
          "internalType": "bytes32",
          "name": "",
          "type": "bytes32"
        }
      ],
      "stateMutability": "view",
      "type": "function"
    },
    {
      "inputs": [
        {
          "internalType": "bytes",
          "name": "transactions",
          "type": "bytes"
        },
        {
          "internalType": "uint256",
          "name": "maticAmount",
          "type": "uint256"
        }
      ],
      "name": "forceBatch",
      "outputs": [],
      "stateMutability": "nonpayable",
      "type": "function"
    },
    {
      "inputs": [],
      "name": "forceBatchAllowed",
      "outputs": [
        {
          "internalType": "bool",
          "name": "",
          "type": "bool"
        }
      ],
      "stateMutability": "view",
      "type": "function"
    },
    {
      "inputs": [
        {
          "internalType": "uint64",
          "name": "",
          "type": "uint64"
        }
      ],
      "name": "forcedBatches",
      "outputs": [
        {
          "internalType": "bytes32",
          "name": "",
          "type": "bytes32"
        }
      ],
      "stateMutability": "view",
      "type": "function"
    },
    {
      "inputs": [
        {
          "internalType": "uint64",
          "name": "_lastVerifiedBatch",
          "type": "uint64"
        },
        {
          "internalType": "uint64",
          "name": "newVerifiedBatch",
          "type": "uint64"
        },
        {
          "internalType": "bytes32",
          "name": "newLocalExitRoot",
          "type": "bytes32"
        },
        {
          "internalType": "bytes32",
          "name": "newStateRoot",
          "type": "bytes32"
        }
      ],
      "name": "getInputSnarkBytes",
      "outputs": [
        {
          "internalType": "bytes",
          "name": "",
          "type": "bytes"
        }
      ],
      "stateMutability": "view",
      "type": "function"
    },
    {
      "inputs": [],
      "name": "globalExitRootManager",
      "outputs": [
        {
          "internalType": "contract IGlobalExitRootManager",
          "name": "",
          "type": "address"
        }
      ],
      "stateMutability": "view",
      "type": "function"
    },
    {
      "inputs": [
        {
          "internalType": "contract IGlobalExitRootManager",
          "name": "_globalExitRootManager",
          "type": "address"
        },
        {
          "internalType": "contract IERC20Upgradeable",
          "name": "_matic",
          "type": "address"
        },
        {
          "internalType": "contract IVerifierRollup",
          "name": "_rollupVerifier",
          "type": "address"
        },
        {
          "internalType": "bytes32",
          "name": "genesisRoot",
          "type": "bytes32"
        },
        {
          "internalType": "address",
          "name": "_trustedSequencer",
          "type": "address"
        },
        {
          "internalType": "bool",
          "name": "_forceBatchAllowed",
          "type": "bool"
        },
        {
          "internalType": "string",
          "name": "_trustedSequencerURL",
          "type": "string"
        },
        {
          "internalType": "uint64",
          "name": "_chainID",
          "type": "uint64"
        },
        {
          "internalType": "string",
          "name": "_networkName",
          "type": "string"
        }
      ],
      "name": "initialize",
      "outputs": [],
      "stateMutability": "nonpayable",
      "type": "function"
    },
    {
      "inputs": [],
      "name": "lastBatchSequenced",
      "outputs": [
        {
          "internalType": "uint64",
          "name": "",
          "type": "uint64"
        }
      ],
      "stateMutability": "view",
      "type": "function"
    },
    {
      "inputs": [],
      "name": "lastForceBatch",
      "outputs": [
        {
          "internalType": "uint64",
          "name": "",
          "type": "uint64"
        }
      ],
      "stateMutability": "view",
      "type": "function"
    },
    {
      "inputs": [],
      "name": "lastForceBatchSequenced",
      "outputs": [
        {
          "internalType": "uint64",
          "name": "",
          "type": "uint64"
        }
      ],
      "stateMutability": "view",
      "type": "function"
    },
    {
      "inputs": [],
      "name": "lastTimestamp",
      "outputs": [
        {
          "internalType": "uint64",
          "name": "",
          "type": "uint64"
        }
      ],
      "stateMutability": "view",
      "type": "function"
    },
    {
      "inputs": [],
      "name": "lastVerifiedBatch",
      "outputs": [
        {
          "internalType": "uint64",
          "name": "",
          "type": "uint64"
        }
      ],
      "stateMutability": "view",
      "type": "function"
    },
    {
      "inputs": [],
      "name": "matic",
      "outputs": [
        {
          "internalType": "contract IERC20Upgradeable",
          "name": "",
          "type": "address"
        }
      ],
      "stateMutability": "view",
      "type": "function"
    },
    {
      "inputs": [],
      "name": "networkName",
      "outputs": [
        {
          "internalType": "string",
          "name": "",
          "type": "string"
        }
      ],
      "stateMutability": "view",
      "type": "function"
    },
    {
      "inputs": [],
      "name": "rollupVerifier",
      "outputs": [
        {
          "internalType": "contract IVerifierRollup",
          "name": "",
          "type": "address"
        }
      ],
      "stateMutability": "view",
      "type": "function"
    },
    {
      "inputs": [
        {
          "components": [
            {
              "internalType": "bytes",
              "name": "transactions",
              "type": "bytes"
            },
            {
              "internalType": "bytes32",
              "name": "globalExitRoot",
              "type": "bytes32"
            },
            {
              "internalType": "uint64",
              "name": "timestamp",
              "type": "uint64"
            },
            {
              "internalType": "uint64",
              "name": "minForcedTimestamp",
              "type": "uint64"
            }
          ],
          "internalType": "struct ProofOfEfficiency.BatchData[]",
          "name": "batches",
          "type": "tuple[]"
        }
      ],
      "name": "sequenceBatches",
      "outputs": [],
      "stateMutability": "nonpayable",
      "type": "function"
    },
    {
      "inputs": [
        {
          "components": [
            {
              "internalType": "bytes",
              "name": "transactions",
              "type": "bytes"
            },
            {
              "internalType": "bytes32",
              "name": "globalExitRoot",
              "type": "bytes32"
            },
            {
              "internalType": "uint64",
              "name": "minForcedTimestamp",
              "type": "uint64"
            }
          ],
          "internalType": "struct ProofOfEfficiency.ForceBatchData[]",
          "name": "batches",
          "type": "tuple[]"
        }
      ],
      "name": "sequenceForceBatches",
      "outputs": [],
      "stateMutability": "nonpayable",
      "type": "function"
    },
    {
      "inputs": [
        {
          "internalType": "uint64",
          "name": "",
          "type": "uint64"
        }
      ],
      "name": "sequencedBatches",
      "outputs": [
        {
          "internalType": "bytes32",
          "name": "",
          "type": "bytes32"
        }
      ],
      "stateMutability": "view",
      "type": "function"
    },
    {
      "inputs": [
        {
          "internalType": "bool",
          "name": "newForceBatchAllowed",
          "type": "bool"
        }
      ],
      "name": "setForceBatchAllowed",
      "outputs": [],
      "stateMutability": "nonpayable",
      "type": "function"
    },
    {
      "inputs": [
        {
          "internalType": "address",
          "name": "newTrustedSequencer",
          "type": "address"
        }
      ],
      "name": "setTrustedSequencer",
      "outputs": [],
      "stateMutability": "nonpayable",
      "type": "function"
    },
    {
      "inputs": [
        {
          "internalType": "string",
          "name": "newTrustedSequencerURL",
          "type": "string"
        }
      ],
      "name": "setTrustedSequencerURL",
      "outputs": [],
      "stateMutability": "nonpayable",
      "type": "function"
    },
    {
      "inputs": [],
      "name": "trustedSequencer",
      "outputs": [
        {
          "internalType": "address",
          "name": "",
          "type": "address"
        }
      ],
      "stateMutability": "view",
      "type": "function"
    },
    {
      "inputs": [],
      "name": "trustedSequencerURL",
      "outputs": [
        {
          "internalType": "string",
          "name": "",
          "type": "string"
        }
      ],
      "stateMutability": "view",
      "type": "function"
    },
    {
      "inputs": [
        {
          "internalType": "uint64",
          "name": "_lastVerifiedBatch",
          "type": "uint64"
        },
        {
          "internalType": "uint64",
          "name": "newVerifiedBatch",
          "type": "uint64"
        },
        {
          "internalType": "bytes32",
          "name": "newLocalExitRoot",
          "type": "bytes32"
        },
        {
          "internalType": "bytes32",
          "name": "newStateRoot",
          "type": "bytes32"
        },
        {
          "internalType": "uint256[2]",
          "name": "proofA",
          "type": "uint256[2]"
        },
        {
          "internalType": "uint256[2][2]",
          "name": "proofB",
          "type": "uint256[2][2]"
        },
        {
          "internalType": "uint256[2]",
          "name": "proofC",
          "type": "uint256[2]"
        }
      ],
      "name": "verifyBatches",
      "outputs": [],
      "stateMutability": "nonpayable",
      "type": "function"
    }
  ],
  "bytecode": "0x608060405234801561001057600080fd5b50613982806100206000396000f3fe608060405234801561001057600080fd5b50600436106101da5760003560e01c8063ac2eba9811610104578063d02103ca116100a2578063e7a7ed0211610071578063e7a7ed021461048a578063e8bf92ed146104ba578063eaeb077b146104da578063f7552761146104ed57600080fd5b8063d02103ca14610407578063d2fd1b3114610427578063d8d1091b1461043a578063d8f54db01461044d57600080fd5b8063b4d63f58116100de578063b4d63f581461035d578063b6b0b0971461037d578063c89e42df146103c8578063cfa8ed47146103db57600080fd5b8063ac2eba9814610337578063adc879e914610340578063b02286c01461035457600080fd5b80636b8616ce1161017c5780637fcb36531161014b5780637fcb3653146102fe5780638c4a0af71461031257806399f5634e14610325578063ab9fc5ef1461032d57600080fd5b80636b8616ce146102a25780636ff512cc146102d05780637152facf146102e357806379847057146102f657600080fd5b8063423fa856116101b8578063423fa8561461023f578063456052671461025f578063542028d51461028757806355b925e61461028f57600080fd5b8063107bf28c146101df57806319d8ac61146101fd5780633c1582671461022a575b600080fd5b6101e76104fc565b6040516101f49190612dee565b60405180910390f35b6003546102119067ffffffffffffffff1681565b60405167ffffffffffffffff90911681526020016101f4565b61023d610238366004612f9a565b61058a565b005b6003546102119068010000000000000000900467ffffffffffffffff1681565b60035461021190700100000000000000000000000000000000900467ffffffffffffffff1681565b6101e7610ebc565b61023d61029d3660046130e6565b610ec9565b6102c26102b0366004613169565b60016020526000908152604090205481565b6040519081526020016101f4565b61023d6102de3660046131b4565b611439565b6101e76102f13660046131d1565b611574565b6102c2611706565b6004546102119067ffffffffffffffff1681565b61023d61032036600461322c565b611780565b6102c26118b4565b61021162093a8081565b6102c260065481565b6009546102119067ffffffffffffffff1681565b6102c261ea6081565b6102c261036b366004613169565b60026020526000908152604090205481565b6000546103a39062010000900473ffffffffffffffffffffffffffffffffffffffff1681565b60405173ffffffffffffffffffffffffffffffffffffffff90911681526020016101f4565b61023d6103d6366004613249565b6119e3565b6004546103a39068010000000000000000900473ffffffffffffffffffffffffffffffffffffffff1681565b6005546103a39073ffffffffffffffffffffffffffffffffffffffff1681565b61023d610435366004613286565b611ad2565b61023d61044836600461335c565b611dbf565b60045461047a907c0100000000000000000000000000000000000000000000000000000000900460ff1681565b60405190151581526020016101f4565b600354610211907801000000000000000000000000000000000000000000000000900467ffffffffffffffff1681565b6007546103a39073ffffffffffffffffffffffffffffffffffffffff1681565b61023d6104e836600461346d565b612465565b6102c267016345785d8a000081565b600a8054610509906134b2565b80601f0160208091040260200160405190810160405280929190818152602001828054610535906134b2565b80156105825780601f1061055757610100808354040283529160200191610582565b820191906000526020600020905b81548152906001019060200180831161056557829003601f168201915b505050505081565b60045468010000000000000000900473ffffffffffffffffffffffffffffffffffffffff163314610642576040517f08c379a000000000000000000000000000000000000000000000000000000000815260206004820152603f60248201527f50726f6f664f66456666696369656e63793a3a6f6e6c7954727573746564536560448201527f7175656e6365723a206f6e6c7920747275737465642073657175656e6365720060648201526084015b60405180910390fd5b805160035467ffffffffffffffff680100000000000000008204811660008181526002602052604081205483851694929370010000000000000000000000000000000090930490921691905b85811015610c925760008782815181106106aa576106aa613505565b602002602001015190506000816060015167ffffffffffffffff16111561091557836106d581613563565b94505060008160000151805190602001208260200151836060015160405160200161073893929190928352602083019190915260c01b7fffffffffffffffff00000000000000000000000000000000000000000000000016604082015260480190565b604080517fffffffffffffffffffffffffffffffffffffffffffffffffffffffffffffffe0818403018152918152815160209283012067ffffffffffffffff881660009081526001909352912054909150811461083d576040517f08c379a000000000000000000000000000000000000000000000000000000000815260206004820152604260248201527f50726f6f664f66456666696369656e63793a3a73657175656e6365426174636860448201527f65733a20466f7263656420626174636865732064617461206d757374206d617460648201527f6368000000000000000000000000000000000000000000000000000000000000608482015260a401610639565b816060015167ffffffffffffffff16826040015167ffffffffffffffff16101561090f576040517f08c379a000000000000000000000000000000000000000000000000000000000815260206004820152605d60248201527f50726f6f664f66456666696369656e63793a3a73657175656e6365426174636860448201527f65733a20466f7263656420626174636865732074696d657374616d70206d757360648201527f7420626520626967676572206f7220657175616c207468616e206d696e000000608482015260a401610639565b50610ae3565b602081015115806109c4575060055460208201516040517f257b363200000000000000000000000000000000000000000000000000000000815273ffffffffffffffffffffffffffffffffffffffff9092169163257b36329161097e9160040190815260200190565b6020604051808303816000875af115801561099d573d6000803e3d6000fd5b505050506040513d601f19601f820116820180604052508101906109c1919061358a565b15155b610a50576040517f08c379a000000000000000000000000000000000000000000000000000000000815260206004820152603f60248201527f50726f6f664f66456666696369656e63793a3a73657175656e6365426174636860448201527f65733a20476c6f62616c206578697420726f6f74206d757374206578697374006064820152608401610639565b80515161ea6011610ae3576040517f08c379a000000000000000000000000000000000000000000000000000000000815260206004820152603f60248201527f50726f6f664f66456666696369656e63793a3a73657175656e6365426174636860448201527f65733a205472616e73616374696f6e73206279746573206f766572666c6f77006064820152608401610639565b8567ffffffffffffffff16816040015167ffffffffffffffff1610158015610b19575042816040015167ffffffffffffffff1611155b610bcb576040517f08c379a000000000000000000000000000000000000000000000000000000000815260206004820152604260248201527f50726f6f664f66456666696369656e63793a3a73657175656e6365426174636860448201527f65733a2054696d657374616d70206d75737420626520696e736964652072616e60648201527f6765000000000000000000000000000000000000000000000000000000000000608482015260a401610639565b805180516020918201208183015160408085015181519485018890529084019290925260608084019190915260c09190911b7fffffffffffffffff00000000000000000000000000000000000000000000000016608083015233901b7fffffffffffffffffffffffffffffffffffffffff000000000000000000000000166088820152609c016040516020818303038152906040528051906020012092508480610c7490613563565b95505080604001519550508080610c8a906135a3565b91505061068e565b5060035467ffffffffffffffff780100000000000000000000000000000000000000000000000090910481169083161115610d4f576040517f08c379a000000000000000000000000000000000000000000000000000000000815260206004820152603a60248201527f50726f6f664f66456666696369656e63793a3a73657175656e6365426174636860448201527f65733a20466f7263652062617463686573206f766572666c6f770000000000006064820152608401610639565b600354600090610d7d90700100000000000000000000000000000000900467ffffffffffffffff16846135db565b610d919067ffffffffffffffff1687613604565b6003805467ffffffffffffffff868116700100000000000000000000000000000000027fffffffffffffffff0000000000000000ffffffffffffffffffffffffffffffff8983166801000000000000000081027fffffffffffffffffffffffffffffffff00000000000000000000000000000000909516938c169390931793909317929092169190911790915560009081526002602052604090208390559050610e6f3330610e488467016345785d8a000061361b565b60005462010000900473ffffffffffffffffffffffffffffffffffffffff16929190612933565b6003546040516801000000000000000090910467ffffffffffffffff16907f303446e6a8cb73c83dff421c0b1d5e5ce0719dab1bff13660fc254e58cc17fce90600090a250505050505050565b60088054610509906134b2565b60045467ffffffffffffffff888116911614610f8d576040517f08c379a000000000000000000000000000000000000000000000000000000000815260206004820152604360248201527f50726f6f664f66456666696369656e63793a3a7665726966794261746368657360448201527f3a205f6c6173745665726966696564426174636820646f6573206e6f74206d6160648201527f7463680000000000000000000000000000000000000000000000000000000000608482015260a401610639565b8667ffffffffffffffff168667ffffffffffffffff1611611056576040517f08c379a000000000000000000000000000000000000000000000000000000000815260206004820152605860248201527f50726f6f664f66456666696369656e63793a3a7665726966794261746368657360448201527f3a206e657756657269666965644261746368206d75737420626520626967676560648201527f72207468616e206c617374566572696669656442617463680000000000000000608482015260a401610639565b60035467ffffffffffffffff6801000000000000000090910481169087161115611129576040517f08c379a0000000000000000000000000000000000000000000000000000000008152602060048201526044602482018190527f50726f6f664f66456666696369656e63793a3a76657269667942617463686573908201527f3a20626174636820646f6573206e6f742068617665206265656e20736571756560648201527f6e63656400000000000000000000000000000000000000000000000000000000608482015260a401610639565b600061113788888888611574565b905060007f30644e72e131a029b85045b68181585d2833e84879b9709143e1f593f000000160028360405161116c9190613658565b602060405180830381855afa158015611189573d6000803e3d6000fd5b5050506040513d601f19601f820116820180604052508101906111ac919061358a565b6111b691906136a3565b6007546040805160208101825283815290517f43753b4d00000000000000000000000000000000000000000000000000000000815292935073ffffffffffffffffffffffffffffffffffffffff909116916343753b4d9161122091899189918991906004016136b7565b602060405180830381865afa15801561123d573d6000803e3d6000fd5b505050506040513d601f19601f820116820180604052508101906112619190613731565b6112ed576040517f08c379a000000000000000000000000000000000000000000000000000000000815260206004820152602f60248201527f50726f6f664f66456666696369656e63793a3a7665726966794261746368657360448201527f3a20494e56414c49445f50524f4f4600000000000000000000000000000000006064820152608401610639565b61133d336112fb8b8b6135db565b67ffffffffffffffff1661130d6118b4565b611317919061361b565b60005462010000900473ffffffffffffffffffffffffffffffffffffffff169190612a0f565b600480547fffffffffffffffffffffffffffffffffffffffffffffffff00000000000000001667ffffffffffffffff8a1617815560068790556005546040517f33d6247d00000000000000000000000000000000000000000000000000000000815291820189905273ffffffffffffffffffffffffffffffffffffffff16906333d6247d90602401600060405180830381600087803b1580156113df57600080fd5b505af11580156113f3573d6000803e3d6000fd5b505060405133925067ffffffffffffffff8b1691507f9026f258d76afa912681d3fc727111cbab19565af9f03c5323627d6e51dda08390600090a3505050505050505050565b60045468010000000000000000900473ffffffffffffffffffffffffffffffffffffffff1633146114ec576040517f08c379a000000000000000000000000000000000000000000000000000000000815260206004820152603f60248201527f50726f6f664f66456666696369656e63793a3a6f6e6c7954727573746564536560448201527f7175656e6365723a206f6e6c7920747275737465642073657175656e636572006064820152608401610639565b600480547fffffffff0000000000000000000000000000000000000000ffffffffffffffff166801000000000000000073ffffffffffffffffffffffffffffffffffffffff8416908102919091179091556040519081527ff54144f9611984021529f814a1cb6a41e22c58351510a0d9f7e822618abb9cc0906020015b60405180910390a150565b67ffffffffffffffff808516600090815260026020526040808220549286168252902054606091908061164f576040517f08c379a000000000000000000000000000000000000000000000000000000000815260206004820152604560248201527f50726f6f664f66456666696369656e63793a3a676574496e707574536e61726b60448201527f42797465733a206e6577416363496e7075744861736820646f6573206e6f742060648201527f6578697374000000000000000000000000000000000000000000000000000000608482015260a401610639565b6006546009546040517fffffffffffffffffffffffffffffffffffffffff0000000000000000000000003360601b1660208201526034810192909252605482018490527fffffffffffffffff00000000000000000000000000000000000000000000000060c08a811b8216607485015291821b8116607c8401526084830187905260a4830184905260c483018890529088901b1660e482015260ec0160405160208183030381529060405292505050949350505050565b60035460009067ffffffffffffffff700100000000000000000000000000000000820481169161175591780100000000000000000000000000000000000000000000000090910416600161374e565b61175f91906135db565b61177b9067ffffffffffffffff16670de0b6b3a764000061361b565b905090565b60045468010000000000000000900473ffffffffffffffffffffffffffffffffffffffff163314611833576040517f08c379a000000000000000000000000000000000000000000000000000000000815260206004820152603f60248201527f50726f6f664f66456666696369656e63793a3a6f6e6c7954727573746564536560448201527f7175656e6365723a206f6e6c7920747275737465642073657175656e636572006064820152608401610639565b600480548215157c0100000000000000000000000000000000000000000000000000000000027fffffff00ffffffffffffffffffffffffffffffffffffffffffffffffffffffff9091161790556040517fbacda50a4a8575be1d91a7ebe29ee45056f3a94f12a2281eb6b43afa33bcefe69061156990831515815260200190565b600080546040517f70a08231000000000000000000000000000000000000000000000000000000008152306004820152829162010000900473ffffffffffffffffffffffffffffffffffffffff16906370a0823190602401602060405180830381865afa158015611929573d6000803e3d6000fd5b505050506040513d601f19601f8201168201806040525081019061194d919061358a565b60045460035491925060009167ffffffffffffffff918216916801000000000000000082048116916119b291700100000000000000000000000000000000820481169178010000000000000000000000000000000000000000000000009004166135db565b6119bc919061374e565b6119c691906135db565b67ffffffffffffffff1690506119dc818361377a565b9250505090565b60045468010000000000000000900473ffffffffffffffffffffffffffffffffffffffff163314611a96576040517f08c379a000000000000000000000000000000000000000000000000000000000815260206004820152603f60248201527f50726f6f664f66456666696369656e63793a3a6f6e6c7954727573746564536560448201527f7175656e6365723a206f6e6c7920747275737465642073657175656e636572006064820152608401610639565b6008611aa282826137dc565b507f6b8f723a4c7a5335cafae8a598a0aa0301be1387c037dccc085b62add6448b20816040516115699190612dee565b600054610100900460ff1615808015611af25750600054600160ff909116105b80611b0c5750303b158015611b0c575060005460ff166001145b611b98576040517f08c379a000000000000000000000000000000000000000000000000000000000815260206004820152602e60248201527f496e697469616c697a61626c653a20636f6e747261637420697320616c72656160448201527f647920696e697469616c697a65640000000000000000000000000000000000006064820152608401610639565b600080547fffffffffffffffffffffffffffffffffffffffffffffffffffffffffffffff001660011790558015611bf657600080547fffffffffffffffffffffffffffffffffffffffffffffffffffffffffffff00ff166101001790555b600580547fffffffffffffffffffffffff000000000000000000000000000000000000000090811673ffffffffffffffffffffffffffffffffffffffff8d811691909117909255600080547fffffffffffffffffffff0000000000000000000000000000000000000000ffff16620100008d851602179055600780549091168a83161790556006889055600480547fffffff000000000000000000000000000000000000000000ffffffffffffffff1668010000000000000000928916929092027fffffff00ffffffffffffffffffffffffffffffffffffffffffffffffffffffff16919091177c0100000000000000000000000000000000000000000000000000000000871515021790556008611d0e85826137dc565b50600980547fffffffffffffffffffffffffffffffffffffffffffffffff00000000000000001667ffffffffffffffff8516179055600a611d4f83826137dc565b508015611db357600080547fffffffffffffffffffffffffffffffffffffffffffffffffffffffffffff00ff169055604051600181527f7f26b83ff96e1f2b6a682f133852f6798a09c465da95921460cefb38474024989060200160405180910390a15b50505050505050505050565b6004547c0100000000000000000000000000000000000000000000000000000000900460ff161515600114611e9c576040517f08c379a000000000000000000000000000000000000000000000000000000000815260206004820152604860248201527f50726f6f664f66456666696369656e63793a3a6973466f72636542617463684160448201527f6c6c6f7765643a206f6e6c7920696620666f726365206261746368206973206160648201527f7661696c61626c65000000000000000000000000000000000000000000000000608482015260a401610639565b805180611f51576040517f08c379a000000000000000000000000000000000000000000000000000000000815260206004820152604260248201527f50726f6f664f66456666696369656e63793a3a73657175656e6365466f72636560448201527f42617463683a204d75737420666f726365206174206c6561737420312062617460648201527f6368000000000000000000000000000000000000000000000000000000000000608482015260a401610639565b60035467ffffffffffffffff78010000000000000000000000000000000000000000000000008204811691611f9c9184917001000000000000000000000000000000009004166138f6565b111561202a576040517f08c379a000000000000000000000000000000000000000000000000000000000815260206004820152603a60248201527f50726f6f664f66456666696369656e63793a3a73657175656e6365466f72636560448201527f42617463683a20466f72636520626174636820696e76616c69640000000000006064820152608401610639565b60035467ffffffffffffffff680100000000000000008204811660008181526002602052604081205491937001000000000000000000000000000000009004909216915b8481101561239557600086828151811061208a5761208a613505565b60200260200101519050838061209f90613563565b825180516020918201208185015160408087015181519485019390935283015260c01b7fffffffffffffffff00000000000000000000000000000000000000000000000016606082015290955060009150606801604080517fffffffffffffffffffffffffffffffffffffffffffffffffffffffffffffffe0818403018152918152815160209283012067ffffffffffffffff88166000908152600190935291205490915081146121f8576040517f08c379a000000000000000000000000000000000000000000000000000000000815260206004820152604760248201527f50726f6f664f66456666696369656e63793a3a73657175656e6365466f72636560448201527f426174636865733a20466f7263656420626174636865732064617461206d757360648201527f74206d6174636800000000000000000000000000000000000000000000000000608482015260a401610639565b612203600188613604565b83036122db574262093a80836040015161221d919061374e565b67ffffffffffffffff1611156122db576040517f08c379a000000000000000000000000000000000000000000000000000000000815260206004820152604c60248201527f50726f6f664f66456666696369656e63793a3a73657175656e6365466f72636560448201527f42617463683a20466f72636564206261746368206973206e6f7420696e20746960648201527f6d656f757420706572696f640000000000000000000000000000000000000000608482015260a401610639565b8151805160209182012081840151604080519384018890528301919091526060808301919091524260c01b7fffffffffffffffff00000000000000000000000000000000000000000000000016608083015233901b7fffffffffffffffffffffffffffffffffffffffff000000000000000000000000166088820152609c01604051602081830303815290604052805190602001209350858061237d90613563565b9650505050808061238d906135a3565b91505061206e565b50600380544267ffffffffffffffff9081167fffffffffffffffffffffffffffffffff000000000000000000000000000000009092169190911768010000000000000000868316818102929092177fffffffffffffffff0000000000000000ffffffffffffffffffffffffffffffff1670010000000000000000000000000000000087851602178455600091825260026020526040808320869055935493519304909116917f648a61dd2438f072f5a1960939abd30f37aea80d2e94c9792ad142d3e0a490a49190a25050505050565b6004547c0100000000000000000000000000000000000000000000000000000000900460ff161515600114612542576040517f08c379a000000000000000000000000000000000000000000000000000000000815260206004820152604860248201527f50726f6f664f66456666696369656e63793a3a6973466f72636542617463684160448201527f6c6c6f7765643a206f6e6c7920696620666f726365206261746368206973206160648201527f7661696c61626c65000000000000000000000000000000000000000000000000608482015260a401610639565b600061254c611706565b9050818111156125de576040517f08c379a000000000000000000000000000000000000000000000000000000000815260206004820152602f60248201527f50726f6f664f66456666696369656e63793a3a666f72636542617463683a206e60448201527f6f7420656e6f756768206d6174696300000000000000000000000000000000006064820152608401610639565b61ea60835110612670576040517f08c379a000000000000000000000000000000000000000000000000000000000815260206004820152603a60248201527f50726f6f664f66456666696369656e63793a3a666f72636542617463683a205460448201527f72616e73616374696f6e73206279746573206f766572666c6f770000000000006064820152608401610639565b60005461269b9062010000900473ffffffffffffffffffffffffffffffffffffffff16333084612933565b600554604080517f3ed691ef000000000000000000000000000000000000000000000000000000008152905160009273ffffffffffffffffffffffffffffffffffffffff1691633ed691ef9160048083019260209291908290030181865afa15801561270b573d6000803e3d6000fd5b505050506040513d601f19601f8201168201806040525081019061272f919061358a565b60038054919250780100000000000000000000000000000000000000000000000090910467ffffffffffffffff1690601861276983613563565b91906101000a81548167ffffffffffffffff021916908367ffffffffffffffff16021790555050838051906020012081426040516020016127e293929190928352602083019190915260c01b7fffffffffffffffff00000000000000000000000000000000000000000000000016604082015260480190565b604080518083037fffffffffffffffffffffffffffffffffffffffffffffffffffffffffffffffe001815291815281516020928301206003547801000000000000000000000000000000000000000000000000900467ffffffffffffffff16600090815260019093529120553233036128d057600354604080518381523360208201526060918101829052600091810191909152780100000000000000000000000000000000000000000000000090910467ffffffffffffffff16907ff94bb37db835f1ab585ee00041849a09b12cd081d77fa15ca070757619cbc9319060800160405180910390a261292d565b600360189054906101000a900467ffffffffffffffff1667ffffffffffffffff167ff94bb37db835f1ab585ee00041849a09b12cd081d77fa15ca070757619cbc9318233876040516129249392919061390e565b60405180910390a25b50505050565b60405173ffffffffffffffffffffffffffffffffffffffff8085166024830152831660448201526064810182905261292d9085907f23b872dd00000000000000000000000000000000000000000000000000000000906084015b604080517fffffffffffffffffffffffffffffffffffffffffffffffffffffffffffffffe08184030181529190526020810180517bffffffffffffffffffffffffffffffffffffffffffffffffffffffff167fffffffff0000000000000000000000000000000000000000000000000000000090931692909217909152612a6a565b60405173ffffffffffffffffffffffffffffffffffffffff8316602482015260448101829052612a659084907fa9059cbb000000000000000000000000000000000000000000000000000000009060640161298d565b505050565b6000612acc826040518060400160405280602081526020017f5361666545524332303a206c6f772d6c6576656c2063616c6c206661696c65648152508573ffffffffffffffffffffffffffffffffffffffff16612b769092919063ffffffff16565b805190915015612a655780806020019051810190612aea9190613731565b612a65576040517f08c379a000000000000000000000000000000000000000000000000000000000815260206004820152602a60248201527f5361666545524332303a204552433230206f7065726174696f6e20646964206e60448201527f6f742073756363656564000000000000000000000000000000000000000000006064820152608401610639565b6060612b858484600085612b8f565b90505b9392505050565b606082471015612c21576040517f08c379a000000000000000000000000000000000000000000000000000000000815260206004820152602660248201527f416464726573733a20696e73756666696369656e742062616c616e636520666f60448201527f722063616c6c00000000000000000000000000000000000000000000000000006064820152608401610639565b73ffffffffffffffffffffffffffffffffffffffff85163b612c9f576040517f08c379a000000000000000000000000000000000000000000000000000000000815260206004820152601d60248201527f416464726573733a2063616c6c20746f206e6f6e2d636f6e74726163740000006044820152606401610639565b6000808673ffffffffffffffffffffffffffffffffffffffff168587604051612cc89190613658565b60006040518083038185875af1925050503d8060008114612d05576040519150601f19603f3d011682016040523d82523d6000602084013e612d0a565b606091505b5091509150612d1a828286612d25565b979650505050505050565b60608315612d34575081612b88565b825115612d445782518084602001fd5b816040517f08c379a00000000000000000000000000000000000000000000000000000000081526004016106399190612dee565b60005b83811015612d93578181015183820152602001612d7b565b8381111561292d5750506000910152565b60008151808452612dbc816020860160208601612d78565b601f017fffffffffffffffffffffffffffffffffffffffffffffffffffffffffffffffe0169290920160200192915050565b602081526000612b886020830184612da4565b7f4e487b7100000000000000000000000000000000000000000000000000000000600052604160045260246000fd5b6040516080810167ffffffffffffffff81118282101715612e5357612e53612e01565b60405290565b6040516060810167ffffffffffffffff81118282101715612e5357612e53612e01565b604051601f82017fffffffffffffffffffffffffffffffffffffffffffffffffffffffffffffffe016810167ffffffffffffffff81118282101715612ec357612ec3612e01565b604052919050565b600067ffffffffffffffff821115612ee557612ee5612e01565b5060051b60200190565b600082601f830112612f0057600080fd5b813567ffffffffffffffff811115612f1a57612f1a612e01565b612f4b60207fffffffffffffffffffffffffffffffffffffffffffffffffffffffffffffffe0601f84011601612e7c565b818152846020838601011115612f6057600080fd5b816020850160208301376000918101602001919091529392505050565b803567ffffffffffffffff81168114612f9557600080fd5b919050565b60006020808385031215612fad57600080fd5b823567ffffffffffffffff80821115612fc557600080fd5b818501915085601f830112612fd957600080fd5b8135612fec612fe782612ecb565b612e7c565b81815260059190911b8301840190848101908883111561300b57600080fd5b8585015b838110156130c2578035858111156130275760008081fd5b86016080818c037fffffffffffffffffffffffffffffffffffffffffffffffffffffffffffffffe00181131561305d5760008081fd5b613065612e30565b89830135888111156130775760008081fd5b6130858e8c83870101612eef565b8252506040808401358b830152606061309f818601612f7d565b828401526130ae848601612f7d565b90830152508552505091860191860161300f565b5098975050505050505050565b80604081018310156130e057600080fd5b92915050565b6000806000806000806000610180888a03121561310257600080fd5b61310b88612f7d565b965061311960208901612f7d565b955060408801359450606088013593506131368960808a016130cf565b925061014088018981111561314a57600080fd5b60c08901925061315a8a826130cf565b91505092959891949750929550565b60006020828403121561317b57600080fd5b612b8882612f7d565b73ffffffffffffffffffffffffffffffffffffffff811681146131a657600080fd5b50565b8035612f9581613184565b6000602082840312156131c657600080fd5b8135612b8881613184565b600080600080608085870312156131e757600080fd5b6131f085612f7d565b93506131fe60208601612f7d565b93969395505050506040820135916060013590565b80151581146131a657600080fd5b8035612f9581613213565b60006020828403121561323e57600080fd5b8135612b8881613213565b60006020828403121561325b57600080fd5b813567ffffffffffffffff81111561327257600080fd5b61327e84828501612eef565b949350505050565b60008060008060008060008060006101208a8c0312156132a557600080fd5b89356132b081613184565b985060208a01356132c081613184565b97506132ce60408b016131a9565b965060608a013595506132e360808b016131a9565b94506132f160a08b01613221565b935060c08a013567ffffffffffffffff8082111561330e57600080fd5b61331a8d838e01612eef565b945061332860e08d01612f7d565b93506101008c013591508082111561333f57600080fd5b5061334c8c828d01612eef565b9150509295985092959850929598565b6000602080838503121561336f57600080fd5b823567ffffffffffffffff8082111561338757600080fd5b818501915085601f83011261339b57600080fd5b81356133a9612fe782612ecb565b81815260059190911b830184019084810190888311156133c857600080fd5b8585015b838110156130c2578035858111156133e45760008081fd5b86016060818c037fffffffffffffffffffffffffffffffffffffffffffffffffffffffffffffffe00181131561341a5760008081fd5b613422612e59565b89830135888111156134345760008081fd5b6134428e8c83870101612eef565b8252506040808401358b83015261345a838501612f7d565b90820152855250509186019186016133cc565b6000806040838503121561348057600080fd5b823567ffffffffffffffff81111561349757600080fd5b6134a385828601612eef565b95602094909401359450505050565b600181811c908216806134c657607f821691505b6020821081036134ff577f4e487b7100000000000000000000000000000000000000000000000000000000600052602260045260246000fd5b50919050565b7f4e487b7100000000000000000000000000000000000000000000000000000000600052603260045260246000fd5b7f4e487b7100000000000000000000000000000000000000000000000000000000600052601160045260246000fd5b600067ffffffffffffffff80831681810361358057613580613534565b6001019392505050565b60006020828403121561359c57600080fd5b5051919050565b60007fffffffffffffffffffffffffffffffffffffffffffffffffffffffffffffffff82036135d4576135d4613534565b5060010190565b600067ffffffffffffffff838116908316818110156135fc576135fc613534565b039392505050565b60008282101561361657613616613534565b500390565b6000817fffffffffffffffffffffffffffffffffffffffffffffffffffffffffffffffff048311821515161561365357613653613534565b500290565b6000825161366a818460208701612d78565b9190910192915050565b7f4e487b7100000000000000000000000000000000000000000000000000000000600052601260045260246000fd5b6000826136b2576136b2613674565b500690565b61012081016040808784376000838201818152879190815b60028110156136ef578484833790840182815292840192906001016136cf565b5050828760c0870137610100850181815286935091505b6001811015613725578251825260209283019290910190600101613706565b50505095945050505050565b60006020828403121561374357600080fd5b8151612b8881613213565b600067ffffffffffffffff80831681851680830382111561377157613771613534565b01949350505050565b60008261378957613789613674565b500490565b601f821115612a6557600081815260208120601f850160051c810160208610156137b55750805b601f850160051c820191505b818110156137d4578281556001016137c1565b505050505050565b815167ffffffffffffffff8111156137f6576137f6612e01565b61380a8161380484546134b2565b8461378e565b602080601f83116001811461385d57600084156138275750858301515b7fffffffffffffffffffffffffffffffffffffffffffffffffffffffffffffffff600386901b1c1916600185901b1785556137d4565b6000858152602081207fffffffffffffffffffffffffffffffffffffffffffffffffffffffffffffffe08616915b828110156138aa5788860151825594840194600190910190840161388b565b50858210156138e657878501517fffffffffffffffffffffffffffffffffffffffffffffffffffffffffffffffff600388901b60f8161c191681555b5050505050600190811b01905550565b6000821982111561390957613909613534565b500190565b83815273ffffffffffffffffffffffffffffffffffffffff831660208201526060604082015260006139436060830184612da4565b9594505050505056fea264697066735822122071d94010caa4b1b92859aa3a9d3b136e1010b41fb42bc5df80410982b070571764736f6c634300080f0033",
  "linkReferences": {},
  "deployedLinkReferences": {}
}