{
  "_format": "hh-sol-artifact-1",
  "contractName": "ProofOfEfficiencyMock",
  "sourceName": "contracts/mocks/ProofOfEfficiencyMock.sol",
  "abi": [
    {
      "anonymous": false,
      "inputs": [],
      "name": "EmergencyStateActivated",
      "type": "event"
    },
    {
      "anonymous": false,
      "inputs": [],
      "name": "EmergencyStateDeactivated",
      "type": "event"
    },
    {
      "anonymous": false,
      "inputs": [
        {
          "indexed": true,
          "internalType": "uint64",
          "name": "forceBatchNum",
          "type": "uint64"
        },
        {
          "indexed": false,
          "internalType": "bytes32",
          "name": "lastGlobalExitRoot",
          "type": "bytes32"
        },
        {
          "indexed": false,
          "internalType": "address",
          "name": "sequencer",
          "type": "address"
        },
        {
          "indexed": false,
          "internalType": "bytes",
          "name": "transactions",
          "type": "bytes"
        }
      ],
      "name": "ForceBatch",
      "type": "event"
    },
    {
      "anonymous": false,
      "inputs": [
        {
          "indexed": false,
          "internalType": "uint8",
          "name": "version",
          "type": "uint8"
        }
      ],
      "name": "Initialized",
      "type": "event"
    },
    {
      "anonymous": false,
      "inputs": [
        {
          "indexed": true,
          "internalType": "address",
          "name": "previousOwner",
          "type": "address"
        },
        {
          "indexed": true,
          "internalType": "address",
          "name": "newOwner",
          "type": "address"
        }
      ],
      "name": "OwnershipTransferred",
      "type": "event"
    },
    {
      "anonymous": false,
      "inputs": [
        {
          "indexed": false,
          "internalType": "bytes32",
          "name": "storedStateRoot",
          "type": "bytes32"
        },
        {
          "indexed": false,
          "internalType": "bytes32",
          "name": "provedStateRoot",
          "type": "bytes32"
        }
      ],
      "name": "ProveNonDeterministicState",
      "type": "event"
    },
    {
      "anonymous": false,
      "inputs": [
        {
          "indexed": true,
          "internalType": "uint64",
          "name": "numBatch",
          "type": "uint64"
        }
      ],
      "name": "SequenceBatches",
      "type": "event"
    },
    {
      "anonymous": false,
      "inputs": [
        {
          "indexed": true,
          "internalType": "uint64",
          "name": "numBatch",
          "type": "uint64"
        }
      ],
      "name": "SequenceForceBatches",
      "type": "event"
    },
    {
      "anonymous": false,
      "inputs": [
        {
          "indexed": false,
          "internalType": "bool",
          "name": "newForceBatchAllowed",
          "type": "bool"
        }
      ],
      "name": "SetForceBatchAllowed",
      "type": "event"
    },
    {
      "anonymous": false,
      "inputs": [
        {
          "indexed": false,
          "internalType": "address",
          "name": "newSecurityCouncil",
          "type": "address"
        }
      ],
      "name": "SetSecurityCouncil",
      "type": "event"
    },
    {
      "anonymous": false,
      "inputs": [
        {
          "indexed": false,
          "internalType": "address",
          "name": "newTrustedSequencer",
          "type": "address"
        }
      ],
      "name": "SetTrustedSequencer",
      "type": "event"
    },
    {
      "anonymous": false,
      "inputs": [
        {
          "indexed": false,
          "internalType": "string",
          "name": "newTrustedSequencerURL",
          "type": "string"
        }
      ],
      "name": "SetTrustedSequencerURL",
      "type": "event"
    },
    {
      "anonymous": false,
      "inputs": [
        {
          "indexed": true,
          "internalType": "uint64",
          "name": "numBatch",
          "type": "uint64"
        },
        {
          "indexed": false,
          "internalType": "bytes32",
          "name": "stateRoot",
          "type": "bytes32"
        },
        {
          "indexed": true,
          "internalType": "address",
          "name": "aggregator",
          "type": "address"
        }
      ],
      "name": "VerifyBatches",
      "type": "event"
    },
    {
      "inputs": [],
      "name": "FORCE_BATCH_TIMEOUT",
      "outputs": [
        {
          "internalType": "uint64",
          "name": "",
          "type": "uint64"
        }
      ],
      "stateMutability": "view",
      "type": "function"
    },
    {
      "inputs": [],
      "name": "MAX_BATCH_LENGTH",
      "outputs": [
        {
          "internalType": "uint256",
          "name": "",
          "type": "uint256"
        }
      ],
      "stateMutability": "view",
      "type": "function"
    },
    {
      "inputs": [],
      "name": "TRUSTED_SEQUENCER_FEE",
      "outputs": [
        {
          "internalType": "uint256",
          "name": "",
          "type": "uint256"
        }
      ],
      "stateMutability": "view",
      "type": "function"
    },
    {
      "inputs": [],
      "name": "activateEmergencyState",
      "outputs": [],
      "stateMutability": "nonpayable",
      "type": "function"
    },
    {
      "inputs": [
        {
          "internalType": "uint64",
          "name": "",
          "type": "uint64"
        }
      ],
      "name": "batchNumToStateRoot",
      "outputs": [
        {
          "internalType": "bytes32",
          "name": "",
          "type": "bytes32"
        }
      ],
      "stateMutability": "view",
      "type": "function"
    },
    {
      "inputs": [],
      "name": "bridgeAddress",
      "outputs": [
        {
          "internalType": "contract IBridge",
          "name": "",
          "type": "address"
        }
      ],
      "stateMutability": "view",
      "type": "function"
    },
    {
      "inputs": [
        {
          "internalType": "bytes32",
          "name": "currentAccInputHash",
          "type": "bytes32"
        },
        {
          "internalType": "bytes",
          "name": "transactions",
          "type": "bytes"
        },
        {
          "internalType": "bytes32",
          "name": "globalExitRoot",
          "type": "bytes32"
        },
        {
          "internalType": "uint64",
          "name": "timestamp",
          "type": "uint64"
        },
        {
          "internalType": "address",
          "name": "sequencerAddress",
          "type": "address"
        }
      ],
      "name": "calculateAccInputHash",
      "outputs": [
        {
          "internalType": "bytes32",
          "name": "",
          "type": "bytes32"
        }
      ],
      "stateMutability": "pure",
      "type": "function"
    },
    {
      "inputs": [],
      "name": "calculateForceProverFee",
      "outputs": [
        {
          "internalType": "uint256",
          "name": "",
          "type": "uint256"
        }
      ],
      "stateMutability": "view",
      "type": "function"
    },
    {
      "inputs": [],
      "name": "calculateRewardPerBatch",
      "outputs": [
        {
          "internalType": "uint256",
          "name": "",
          "type": "uint256"
        }
      ],
      "stateMutability": "view",
      "type": "function"
    },
    {
      "inputs": [],
      "name": "chainID",
      "outputs": [
        {
          "internalType": "uint64",
          "name": "",
          "type": "uint64"
        }
      ],
      "stateMutability": "view",
      "type": "function"
    },
    {
      "inputs": [],
      "name": "deactivateEmergencyState",
      "outputs": [],
      "stateMutability": "nonpayable",
      "type": "function"
    },
    {
      "inputs": [
        {
          "internalType": "bytes",
          "name": "transactions",
          "type": "bytes"
        },
        {
          "internalType": "uint256",
          "name": "maticAmount",
          "type": "uint256"
        }
      ],
      "name": "forceBatch",
      "outputs": [],
      "stateMutability": "nonpayable",
      "type": "function"
    },
    {
      "inputs": [],
      "name": "forceBatchAllowed",
      "outputs": [
        {
          "internalType": "bool",
          "name": "",
          "type": "bool"
        }
      ],
      "stateMutability": "view",
      "type": "function"
    },
    {
      "inputs": [
        {
          "internalType": "uint64",
          "name": "",
          "type": "uint64"
        }
      ],
      "name": "forcedBatches",
      "outputs": [
        {
          "internalType": "bytes32",
          "name": "",
          "type": "bytes32"
        }
      ],
      "stateMutability": "view",
      "type": "function"
    },
    {
      "inputs": [
        {
          "internalType": "uint64",
          "name": "initNumBatch",
          "type": "uint64"
        },
        {
          "internalType": "uint64",
          "name": "finalNewBatch",
          "type": "uint64"
        },
        {
          "internalType": "bytes32",
          "name": "newLocalExitRoot",
          "type": "bytes32"
        },
        {
          "internalType": "bytes32",
          "name": "newStateRoot",
          "type": "bytes32"
        }
      ],
      "name": "getInputSnarkBytes",
      "outputs": [
        {
          "internalType": "bytes",
          "name": "",
          "type": "bytes"
        }
      ],
      "stateMutability": "view",
      "type": "function"
    },
    {
      "inputs": [
        {
          "internalType": "uint64",
          "name": "_lastVerifiedBatch",
          "type": "uint64"
        },
        {
          "internalType": "uint64",
          "name": "newVerifiedBatch",
          "type": "uint64"
        },
        {
          "internalType": "bytes32",
          "name": "newLocalExitRoot",
          "type": "bytes32"
        },
        {
          "internalType": "bytes32",
          "name": "newStateRoot",
          "type": "bytes32"
        }
      ],
      "name": "getNextSnarkInput",
      "outputs": [
        {
          "internalType": "uint256",
          "name": "",
          "type": "uint256"
        }
      ],
      "stateMutability": "view",
      "type": "function"
    },
    {
      "inputs": [],
      "name": "globalExitRootManager",
      "outputs": [
        {
          "internalType": "contract IGlobalExitRootManager",
          "name": "",
          "type": "address"
        }
      ],
      "stateMutability": "view",
      "type": "function"
    },
    {
      "inputs": [
        {
          "internalType": "contract IGlobalExitRootManager",
          "name": "_globalExitRootManager",
          "type": "address"
        },
        {
          "internalType": "contract IERC20Upgradeable",
          "name": "_matic",
          "type": "address"
        },
        {
          "internalType": "contract IVerifierRollup",
          "name": "_rollupVerifier",
          "type": "address"
        },
        {
          "internalType": "bytes32",
          "name": "genesisRoot",
          "type": "bytes32"
        },
        {
          "internalType": "address",
          "name": "_trustedSequencer",
          "type": "address"
        },
        {
          "internalType": "bool",
          "name": "_forceBatchAllowed",
          "type": "bool"
        },
        {
          "internalType": "string",
          "name": "_trustedSequencerURL",
          "type": "string"
        },
        {
          "internalType": "uint64",
          "name": "_chainID",
          "type": "uint64"
        },
        {
          "internalType": "string",
          "name": "_networkName",
          "type": "string"
        },
        {
          "internalType": "contract IBridge",
          "name": "_bridgeAddress",
          "type": "address"
        },
        {
          "internalType": "address",
          "name": "_securityCouncil",
          "type": "address"
        }
      ],
      "name": "initialize",
      "outputs": [],
      "stateMutability": "nonpayable",
      "type": "function"
    },
    {
      "inputs": [],
      "name": "isEmergencyState",
      "outputs": [
        {
          "internalType": "bool",
          "name": "",
          "type": "bool"
        }
      ],
      "stateMutability": "view",
      "type": "function"
    },
    {
      "inputs": [],
      "name": "lastBatchSequenced",
      "outputs": [
        {
          "internalType": "uint64",
          "name": "",
          "type": "uint64"
        }
      ],
      "stateMutability": "view",
      "type": "function"
    },
    {
      "inputs": [],
      "name": "lastForceBatch",
      "outputs": [
        {
          "internalType": "uint64",
          "name": "",
          "type": "uint64"
        }
      ],
      "stateMutability": "view",
      "type": "function"
    },
    {
      "inputs": [],
      "name": "lastForceBatchSequenced",
      "outputs": [
        {
          "internalType": "uint64",
          "name": "",
          "type": "uint64"
        }
      ],
      "stateMutability": "view",
      "type": "function"
    },
    {
      "inputs": [],
      "name": "lastTimestamp",
      "outputs": [
        {
          "internalType": "uint64",
          "name": "",
          "type": "uint64"
        }
      ],
      "stateMutability": "view",
      "type": "function"
    },
    {
      "inputs": [],
      "name": "lastVerifiedBatch",
      "outputs": [
        {
          "internalType": "uint64",
          "name": "",
          "type": "uint64"
        }
      ],
      "stateMutability": "view",
      "type": "function"
    },
    {
      "inputs": [],
      "name": "matic",
      "outputs": [
        {
          "internalType": "contract IERC20Upgradeable",
          "name": "",
          "type": "address"
        }
      ],
      "stateMutability": "view",
      "type": "function"
    },
    {
      "inputs": [],
      "name": "networkName",
      "outputs": [
        {
          "internalType": "string",
          "name": "",
          "type": "string"
        }
      ],
      "stateMutability": "view",
      "type": "function"
    },
    {
      "inputs": [],
      "name": "owner",
      "outputs": [
        {
          "internalType": "address",
          "name": "",
          "type": "address"
        }
      ],
      "stateMutability": "view",
      "type": "function"
    },
    {
      "inputs": [
        {
          "internalType": "uint64",
          "name": "initNumBatch",
          "type": "uint64"
        },
        {
          "internalType": "uint64",
          "name": "finalNewBatch",
          "type": "uint64"
        },
        {
          "internalType": "bytes32",
          "name": "newLocalExitRoot",
          "type": "bytes32"
        },
        {
          "internalType": "bytes32",
          "name": "newStateRoot",
          "type": "bytes32"
        },
        {
          "internalType": "uint256[2]",
          "name": "proofA",
          "type": "uint256[2]"
        },
        {
          "internalType": "uint256[2][2]",
          "name": "proofB",
          "type": "uint256[2][2]"
        },
        {
          "internalType": "uint256[2]",
          "name": "proofC",
          "type": "uint256[2]"
        }
      ],
      "name": "proveNonDeterministicState",
      "outputs": [],
      "stateMutability": "nonpayable",
      "type": "function"
    },
    {
      "inputs": [],
      "name": "renounceOwnership",
      "outputs": [],
      "stateMutability": "nonpayable",
      "type": "function"
    },
    {
      "inputs": [],
      "name": "rollupVerifier",
      "outputs": [
        {
          "internalType": "contract IVerifierRollup",
          "name": "",
          "type": "address"
        }
      ],
      "stateMutability": "view",
      "type": "function"
    },
    {
      "inputs": [],
      "name": "securityCouncil",
      "outputs": [
        {
          "internalType": "address",
          "name": "",
          "type": "address"
        }
      ],
      "stateMutability": "view",
      "type": "function"
    },
    {
      "inputs": [
        {
          "components": [
            {
              "internalType": "bytes",
              "name": "transactions",
              "type": "bytes"
            },
            {
              "internalType": "bytes32",
              "name": "globalExitRoot",
              "type": "bytes32"
            },
            {
              "internalType": "uint64",
              "name": "timestamp",
              "type": "uint64"
            },
            {
              "internalType": "uint64",
              "name": "minForcedTimestamp",
              "type": "uint64"
            }
          ],
          "internalType": "struct ProofOfEfficiency.BatchData[]",
          "name": "batches",
          "type": "tuple[]"
        }
      ],
      "name": "sequenceBatches",
      "outputs": [],
      "stateMutability": "nonpayable",
      "type": "function"
    },
    {
      "inputs": [
        {
          "components": [
            {
              "internalType": "bytes",
              "name": "transactions",
              "type": "bytes"
            },
            {
              "internalType": "bytes32",
              "name": "globalExitRoot",
              "type": "bytes32"
            },
            {
              "internalType": "uint64",
              "name": "minForcedTimestamp",
              "type": "uint64"
            }
          ],
          "internalType": "struct ProofOfEfficiency.ForceBatchData[]",
          "name": "batches",
          "type": "tuple[]"
        }
      ],
      "name": "sequenceForceBatches",
      "outputs": [],
      "stateMutability": "nonpayable",
      "type": "function"
    },
    {
      "inputs": [
        {
          "internalType": "uint64",
          "name": "",
          "type": "uint64"
        }
      ],
      "name": "sequencedBatches",
      "outputs": [
        {
          "internalType": "bytes32",
          "name": "",
          "type": "bytes32"
        }
      ],
      "stateMutability": "view",
      "type": "function"
    },
    {
      "inputs": [
        {
          "internalType": "bool",
          "name": "newForceBatchAllowed",
          "type": "bool"
        }
      ],
      "name": "setForceBatchAllowed",
      "outputs": [],
      "stateMutability": "nonpayable",
      "type": "function"
    },
    {
      "inputs": [
        {
          "internalType": "string",
          "name": "_networkName",
          "type": "string"
        }
      ],
      "name": "setNetworkName",
      "outputs": [],
      "stateMutability": "nonpayable",
      "type": "function"
    },
    {
      "inputs": [
        {
          "internalType": "address",
          "name": "newSecurityCouncil",
          "type": "address"
        }
      ],
      "name": "setSecurityCouncil",
      "outputs": [],
      "stateMutability": "nonpayable",
      "type": "function"
    },
    {
      "inputs": [
        {
          "internalType": "uint64",
          "name": "_numBatch",
          "type": "uint64"
        }
      ],
      "name": "setSequencedBatch",
      "outputs": [],
      "stateMutability": "nonpayable",
      "type": "function"
    },
    {
      "inputs": [
        {
          "internalType": "uint64",
          "name": "batchNum",
          "type": "uint64"
        },
        {
          "internalType": "bytes32",
          "name": "accInputData",
          "type": "bytes32"
        }
      ],
      "name": "setSequencedBatches",
      "outputs": [],
      "stateMutability": "nonpayable",
      "type": "function"
    },
    {
      "inputs": [
        {
          "internalType": "bytes32",
          "name": "newStateRoot",
          "type": "bytes32"
        },
        {
          "internalType": "uint64",
          "name": "batchNum",
          "type": "uint64"
        }
      ],
      "name": "setStateRoot",
      "outputs": [],
      "stateMutability": "nonpayable",
      "type": "function"
    },
    {
      "inputs": [
        {
          "internalType": "address",
          "name": "newTrustedSequencer",
          "type": "address"
        }
      ],
      "name": "setTrustedSequencer",
      "outputs": [],
      "stateMutability": "nonpayable",
      "type": "function"
    },
    {
      "inputs": [
        {
          "internalType": "string",
          "name": "newTrustedSequencerURL",
          "type": "string"
        }
      ],
      "name": "setTrustedSequencerURL",
      "outputs": [],
      "stateMutability": "nonpayable",
      "type": "function"
    },
    {
      "inputs": [
        {
          "internalType": "uint64",
          "name": "_numBatch",
          "type": "uint64"
        }
      ],
      "name": "setVerifiedBatch",
      "outputs": [],
      "stateMutability": "nonpayable",
      "type": "function"
    },
    {
      "inputs": [
        {
          "internalType": "contract IVerifierRollup",
          "name": "_rollupVerifier",
          "type": "address"
        }
      ],
      "name": "setVerifier",
      "outputs": [],
      "stateMutability": "nonpayable",
      "type": "function"
    },
    {
      "inputs": [
        {
          "internalType": "address",
          "name": "newOwner",
          "type": "address"
        }
      ],
      "name": "transferOwnership",
      "outputs": [],
      "stateMutability": "nonpayable",
      "type": "function"
    },
    {
      "inputs": [],
      "name": "trustedSequencer",
      "outputs": [
        {
          "internalType": "address",
          "name": "",
          "type": "address"
        }
      ],
      "stateMutability": "view",
      "type": "function"
    },
    {
      "inputs": [],
      "name": "trustedSequencerURL",
      "outputs": [
        {
          "internalType": "string",
          "name": "",
          "type": "string"
        }
      ],
      "stateMutability": "view",
      "type": "function"
    },
    {
      "inputs": [
        {
          "internalType": "uint64",
          "name": "initNumBatch",
          "type": "uint64"
        },
        {
          "internalType": "uint64",
          "name": "finalNewBatch",
          "type": "uint64"
        },
        {
          "internalType": "bytes32",
          "name": "newLocalExitRoot",
          "type": "bytes32"
        },
        {
          "internalType": "bytes32",
          "name": "newStateRoot",
          "type": "bytes32"
        },
        {
          "internalType": "uint256[2]",
          "name": "proofA",
          "type": "uint256[2]"
        },
        {
          "internalType": "uint256[2][2]",
          "name": "proofB",
          "type": "uint256[2][2]"
        },
        {
          "internalType": "uint256[2]",
          "name": "proofC",
          "type": "uint256[2]"
        }
      ],
      "name": "verifyBatches",
      "outputs": [],
      "stateMutability": "nonpayable",
      "type": "function"
    },
    {
      "inputs": [
        {
          "internalType": "uint64",
          "name": "_lastVerifiedBatch",
          "type": "uint64"
        },
        {
          "internalType": "uint64",
          "name": "newVerifiedBatch",
          "type": "uint64"
        },
        {
          "internalType": "bytes32",
          "name": "newLocalExitRoot",
          "type": "bytes32"
        },
        {
          "internalType": "bytes32",
          "name": "newStateRoot",
          "type": "bytes32"
        },
        {
          "internalType": "uint256[2]",
          "name": "proofA",
          "type": "uint256[2]"
        },
        {
          "internalType": "uint256[2][2]",
          "name": "proofB",
          "type": "uint256[2][2]"
        },
        {
          "internalType": "uint256[2]",
          "name": "proofC",
          "type": "uint256[2]"
        }
      ],
      "name": "verifyBatchesMock",
      "outputs": [],
      "stateMutability": "nonpayable",
      "type": "function"
    }
  ],
  "bytecode": "0x608060405234801561001057600080fd5b506151fb806100206000396000f3fe608060405234801561001057600080fd5b506004361061032b5760003560e01c80638da5cb5b116101b2578063c89e42df116100f9578063dbc16976116100a2578063eaeb077b1161007c578063eaeb077b14610811578063f2fde38b14610824578063f755276114610837578063fe16564f1461084657600080fd5b8063dbc16976146107b9578063e7a7ed02146107c1578063e8bf92ed146107f157600080fd5b8063d0ae98dd116100d3578063d0ae98dd14610766578063d8d1091b14610779578063d8f54db01461078c57600080fd5b8063c89e42df14610707578063cfa8ed471461071a578063d02103ca1461074657600080fd5b8063adc879e91161015b578063b6b0b09711610135578063b6b0b097146106bc578063c0cad302146106e1578063c3fd0f9c146106f457600080fd5b8063adc879e91461067e578063b02286c014610692578063b4d63f581461069c57600080fd5b80639b7967601161018c5780639b79676014610641578063a3c573eb14610654578063ab9fc5ef1461067457600080fd5b80638da5cb5b1461060857806396dc3d391461062657806399f5634e1461063957600080fd5b80635437988d116102765780637152facf1161021f5780637fcb3653116101f95780637fcb3653146105ce57806381df7d3f146105e25780638c4a0af7146105f557600080fd5b80637152facf146105a0578063748608de146105b357806379847057146105c657600080fd5b80636b8616ce116102505780636b8616ce146105655780636ff512cc14610585578063715018a61461059857600080fd5b80635437988d1461049e57806355b925e6146104b1578063574f649e146104c457600080fd5b806327eb6c0f116102d857806345605267116102b257806345605267146104405780635392c5e014610468578063542028d51461049657600080fd5b806327eb6c0f146103c85780633c1582671461040d578063423fa8561461042057600080fd5b80631a26da14116103095780631a26da14146103985780631c1083e2146103ad5780632072f6c5146103c057600080fd5b8063107bf28c1461033057806315064c961461034e57806319d8ac611461036b575b600080fd5b610338610859565b6040516103459190614611565b60405180910390f35b60655461035b9060ff1681565b6040519015158152602001610345565b60685461037f9067ffffffffffffffff1681565b60405167ffffffffffffffff9091168152602001610345565b6103ab6103a6366004614648565b6108e7565b005b6103ab6103bb36600461469f565b61090c565b6103ab610a18565b6070546103e89073ffffffffffffffffffffffffffffffffffffffff1681565b60405173ffffffffffffffffffffffffffffffffffffffff9091168152602001610345565b6103ab61041b3660046147fc565b610ac9565b60685461037f9068010000000000000000900467ffffffffffffffff1681565b60685461037f90700100000000000000000000000000000000900467ffffffffffffffff1681565b610488610476366004614913565b606b6020526000908152604090205481565b604051908152602001610345565b61033861145a565b6103ab6104ac36600461469f565b611467565b6103ab6104bf366004614945565b6114b6565b6104886104d23660046149c8565b835160209485012060408051808701979097528681019190915260608087019490945260c09290921b7fffffffffffffffff00000000000000000000000000000000000000000000000016608086015290911b7fffffffffffffffffffffffffffffffffffffffff0000000000000000000000001660888401528051808403607c018152609c9093019052815191012090565b610488610573366004614913565b60666020526000908152604090205481565b6103ab61059336600461469f565b611a7f565b6103ab611b99565b6103386105ae366004614a3e565b611bab565b6103ab6105c1366004614945565b611de2565b61048861204b565b60695461037f9067ffffffffffffffff1681565b6103ab6105f0366004614a99565b6120c5565b6103ab610603366004614b93565b61241e565b60335473ffffffffffffffffffffffffffffffffffffffff166103e8565b6103ab610634366004614913565b612538565b61048861257b565b6103ab61064f366004614913565b6126ac565b6071546103e89073ffffffffffffffffffffffffffffffffffffffff1681565b61037f62093a8081565b606e5461037f9067ffffffffffffffff1681565b610488620493e081565b6104886106aa366004614913565b60676020526000908152604090205481565b6065546103e890610100900473ffffffffffffffffffffffffffffffffffffffff1681565b6103ab6106ef366004614bb0565b6126fb565b6103ab610702366004614945565b612713565b6103ab610715366004614bb0565b612d5d565b6069546103e89068010000000000000000900473ffffffffffffffffffffffffffffffffffffffff1681565b606a546103e89073ffffffffffffffffffffffffffffffffffffffff1681565b610488610774366004614a3e565b612e32565b6103ab610787366004614be5565b6130de565b60695461035b907c0100000000000000000000000000000000000000000000000000000000900460ff1681565b6103ab613783565b60685461037f907801000000000000000000000000000000000000000000000000900467ffffffffffffffff1681565b606c546103e89073ffffffffffffffffffffffffffffffffffffffff1681565b6103ab61081f366004614cd8565b613912565b6103ab61083236600461469f565b613e13565b61048867016345785d8a000081565b6103ab610854366004614d1d565b613eb0565b606f805461086690614d49565b80601f016020809104026020016040519081016040528092919081815260200182805461089290614d49565b80156108df5780601f106108b4576101008083540402835291602001916108df565b820191906000526020600020905b8154815290600101906020018083116108c257829003601f168201915b505050505081565b6108ef613ed3565b67ffffffffffffffff909116600090815260676020526040902055565b60705473ffffffffffffffffffffffffffffffffffffffff16331461099e5760405162461bcd60e51b815260206004820152603d60248201527f50726f6f664f66456666696369656e63793a3a6f6e6c7953656375726974794360448201527f6f756e63696c3a206f6e6c7920736563757269747920636f756e63696c00000060648201526084015b60405180910390fd5b607080547fffffffffffffffffffffffff00000000000000000000000000000000000000001673ffffffffffffffffffffffffffffffffffffffff83169081179091556040519081527f373a9d1d60f01a33ff86d540991f09f5c5d7482656794de80be077c5eb9693d9906020015b60405180910390a150565b60655460ff1615610ab75760405162461bcd60e51b815260206004820152604260248201527f456d657267656e63794d616e616765723a3a69664e6f74456d657267656e637960448201527f53746174653a206f6e6c79206966206e6f7420656d657267656e63792073746160648201527f7465000000000000000000000000000000000000000000000000000000000000608482015260a401610995565b610abf613ed3565b610ac7613f3a565b565b60655460ff1615610b685760405162461bcd60e51b815260206004820152604260248201527f456d657267656e63794d616e616765723a3a69664e6f74456d657267656e637960448201527f53746174653a206f6e6c79206966206e6f7420656d657267656e63792073746160648201527f7465000000000000000000000000000000000000000000000000000000000000608482015260a401610995565b60695468010000000000000000900473ffffffffffffffffffffffffffffffffffffffff163314610c015760405162461bcd60e51b815260206004820152603f60248201527f50726f6f664f66456666696369656e63793a3a6f6e6c7954727573746564536560448201527f7175656e6365723a206f6e6c7920747275737465642073657175656e636572006064820152608401610995565b805180610c9c5760405162461bcd60e51b815260206004820152604260248201527f50726f6f664f66456666696369656e63793a3a73657175656e6365426174636860448201527f65733a204174206c65617374206d7573742073657175656e636520312062617460648201527f6368000000000000000000000000000000000000000000000000000000000000608482015260a401610995565b60685467ffffffffffffffff680100000000000000008204811660008181526067602052604081205483851694929370010000000000000000000000000000000090930490921691905b8581101561124b576000878281518110610d0257610d02614d9c565b602002602001015190506000816060015167ffffffffffffffff161115610f1b5783610d2d81614dfa565b945050600081600001518051906020012082602001518360600151604051602001610d9093929190928352602083019190915260c01b7fffffffffffffffff00000000000000000000000000000000000000000000000016604082015260480190565b60408051601f19818403018152918152815160209283012067ffffffffffffffff8816600090815260669093529120549091508114610e5d5760405162461bcd60e51b815260206004820152604260248201527f50726f6f664f66456666696369656e63793a3a73657175656e6365426174636860448201527f65733a20466f7263656420626174636865732064617461206d757374206d617460648201527f6368000000000000000000000000000000000000000000000000000000000000608482015260a401610995565b816060015167ffffffffffffffff16826040015167ffffffffffffffff161015610f155760405162461bcd60e51b815260206004820152605d60248201527f50726f6f664f66456666696369656e63793a3a73657175656e6365426174636860448201527f65733a20466f7263656420626174636865732074696d657374616d70206d757360648201527f7420626520626967676572206f7220657175616c207468616e206d696e000000608482015260a401610995565b506110b6565b60208101511580610fca5750606a5460208201516040517f257b363200000000000000000000000000000000000000000000000000000000815273ffffffffffffffffffffffffffffffffffffffff9092169163257b363291610f849160040190815260200190565b6020604051808303816000875af1158015610fa3573d6000803e3d6000fd5b505050506040513d601f19601f82011682018060405250810190610fc79190614e21565b15155b61103c5760405162461bcd60e51b815260206004820152603f60248201527f50726f6f664f66456666696369656e63793a3a73657175656e6365426174636860448201527f65733a20476c6f62616c206578697420726f6f74206d757374206578697374006064820152608401610995565b805151620493e0116110b65760405162461bcd60e51b815260206004820152603f60248201527f50726f6f664f66456666696369656e63793a3a73657175656e6365426174636860448201527f65733a205472616e73616374696f6e73206279746573206f766572666c6f77006064820152608401610995565b8567ffffffffffffffff16816040015167ffffffffffffffff16101580156110ec575042816040015167ffffffffffffffff1611155b6111845760405162461bcd60e51b815260206004820152604260248201527f50726f6f664f66456666696369656e63793a3a73657175656e6365426174636860448201527f65733a2054696d657374616d70206d75737420626520696e736964652072616e60648201527f6765000000000000000000000000000000000000000000000000000000000000608482015260a401610995565b805180516020918201208183015160408085015181519485018890529084019290925260608084019190915260c09190911b7fffffffffffffffff00000000000000000000000000000000000000000000000016608083015233901b7fffffffffffffffffffffffffffffffffffffffff000000000000000000000000166088820152609c01604051602081830303815290604052805190602001209250848061122d90614dfa565b9550508060400151955050808061124390614e3a565b915050610ce6565b5060685467ffffffffffffffff7801000000000000000000000000000000000000000000000000909104811690831611156112ee5760405162461bcd60e51b815260206004820152603a60248201527f50726f6f664f66456666696369656e63793a3a73657175656e6365426174636860448201527f65733a20466f7263652062617463686573206f766572666c6f770000000000006064820152608401610995565b60685460009061131c90700100000000000000000000000000000000900467ffffffffffffffff1684614e72565b6113309067ffffffffffffffff1687614e9b565b6068805467ffffffffffffffff868116700100000000000000000000000000000000027fffffffffffffffff0000000000000000ffffffffffffffffffffffffffffffff8983166801000000000000000081027fffffffffffffffffffffffffffffffff00000000000000000000000000000000909516938c16939093179390931792909216919091179091556000908152606760205260409020839055905061140d33306113e78467016345785d8a0000614eb2565b606554610100900473ffffffffffffffffffffffffffffffffffffffff16929190613fc4565b6068546040516801000000000000000090910467ffffffffffffffff16907f303446e6a8cb73c83dff421c0b1d5e5ce0719dab1bff13660fc254e58cc17fce90600090a250505050505050565b606d805461086690614d49565b61146f613ed3565b606c80547fffffffffffffffffffffffff00000000000000000000000000000000000000001673ffffffffffffffffffffffffffffffffffffffff92909216919091179055565b60655460ff16156115555760405162461bcd60e51b815260206004820152604260248201527f456d657267656e63794d616e616765723a3a69664e6f74456d657267656e637960448201527f53746174653a206f6e6c79206966206e6f7420656d657267656e63792073746160648201527f7465000000000000000000000000000000000000000000000000000000000000608482015260a401610995565b60695467ffffffffffffffff90811690881611156116015760405162461bcd60e51b815260206004820152605b60248201527f50726f6f664f66456666696369656e63793a3a7665726966794261746368657360448201527f3a20696e69744e756d4261746368206d757374206265206c657373206f72206560648201527f7175616c207468616e206c617374566572696669656442617463680000000000608482015260a401610995565b60695467ffffffffffffffff908116908716116116ac5760405162461bcd60e51b815260206004820152605560248201527f50726f6f664f66456666696369656e63793a3a7665726966794261746368657360448201527f3a2066696e616c4e65774261746368206d75737420626520626967676572207460648201527f68616e206c617374566572696669656442617463680000000000000000000000608482015260a401610995565b67ffffffffffffffff87166000908152606b602052604090205461175e5760405162461bcd60e51b815260206004820152604860248201527f50726f6f664f66456666696369656e63793a3a7665726966794261746368657360448201527f3a20696e69744e756d426174636820737461746520726f6f7420646f6573206e60648201527f6f74206578697374000000000000000000000000000000000000000000000000608482015260a401610995565b600061176c88888888611bab565b905060007f30644e72e131a029b85045b68181585d2833e84879b9709143e1f593f00000016002836040516117a19190614eef565b602060405180830381855afa1580156117be573d6000803e3d6000fd5b5050506040513d601f19601f820116820180604052508101906117e19190614e21565b6117eb9190614f3a565b606c546040805160208101825283815290517f43753b4d00000000000000000000000000000000000000000000000000000000815292935073ffffffffffffffffffffffffffffffffffffffff909116916343753b4d916118559189918991899190600401614f4e565b602060405180830381865afa158015611872573d6000803e3d6000fd5b505050506040513d601f19601f820116820180604052508101906118969190614fc8565b6119085760405162461bcd60e51b815260206004820152602f60248201527f50726f6f664f66456666696369656e63793a3a7665726966794261746368657360448201527f3a20494e56414c49445f50524f4f4600000000000000000000000000000000006064820152608401610995565b6069546119669033906119259067ffffffffffffffff168b614e72565b67ffffffffffffffff1661193761257b565b6119419190614eb2565b606554610100900473ffffffffffffffffffffffffffffffffffffffff169190614082565b606980547fffffffffffffffffffffffffffffffffffffffffffffffff00000000000000001667ffffffffffffffff8a169081179091556000908152606b602052604090819020879055606a5490517f33d6247d0000000000000000000000000000000000000000000000000000000081526004810189905273ffffffffffffffffffffffffffffffffffffffff909116906333d6247d90602401600060405180830381600087803b158015611a1b57600080fd5b505af1158015611a2f573d6000803e3d6000fd5b505060405188815233925067ffffffffffffffff8b1691507f9c72852172521097ba7e1482e6b44b351323df0155f97f4ea18fcec28e1f59669060200160405180910390a3505050505050505050565b60695468010000000000000000900473ffffffffffffffffffffffffffffffffffffffff163314611b185760405162461bcd60e51b815260206004820152603f60248201527f50726f6f664f66456666696369656e63793a3a6f6e6c7954727573746564536560448201527f7175656e6365723a206f6e6c7920747275737465642073657175656e636572006064820152608401610995565b606980547fffffffff0000000000000000000000000000000000000000ffffffffffffffff166801000000000000000073ffffffffffffffffffffffffffffffffffffffff8416908102919091179091556040519081527ff54144f9611984021529f814a1cb6a41e22c58351510a0d9f7e822618abb9cc090602001610a0d565b611ba1613ed3565b610ac760006140dd565b67ffffffffffffffff808516600081815260676020526040808220549387168252902054606092911580611bde57508115155b611c765760405162461bcd60e51b815260206004820152604560248201527f50726f6f664f66456666696369656e63793a3a676574496e707574536e61726b60448201527f42797465733a206f6c64416363496e7075744861736820646f6573206e6f742060648201527f6578697374000000000000000000000000000000000000000000000000000000608482015260a401610995565b80611d0f5760405162461bcd60e51b815260206004820152604560248201527f50726f6f664f66456666696369656e63793a3a676574496e707574536e61726b60448201527f42797465733a206e6577416363496e7075744861736820646f6573206e6f742060648201527f6578697374000000000000000000000000000000000000000000000000000000608482015260a401610995565b67ffffffffffffffff87166000908152606b602090815260409182902054606e5492517fffffffffffffffffffffffffffffffffffffffff0000000000000000000000003360601b16928101929092526034820152605481018490527fffffffffffffffff00000000000000000000000000000000000000000000000060c08a811b8216607484015292831b8116607c8301526084820187905260a4820184905260c482018890529188901b90911660e482015260ec01604051602081830303815290604052925050505b949350505050565b611dea613ed3565b60695467ffffffffffffffff9081169088161115611e965760405162461bcd60e51b815260206004820152604a60248201527f50726f6f664f66456666696369656e63793a3a7665726966794261746368657360448201527f3a205f6c61737456657269666965644261746368206d757374206265206c657360648201527f73206f7220657175616c00000000000000000000000000000000000000000000608482015260a401610995565b60695467ffffffffffffffff90811690871611611f415760405162461bcd60e51b815260206004820152605860248201527f50726f6f664f66456666696369656e63793a3a7665726966794261746368657360448201527f3a206e657756657269666965644261746368206d75737420626520626967676560648201527f72207468616e206c617374566572696669656442617463680000000000000000608482015260a401610995565b67ffffffffffffffff80881660009081526067602052604080822054928916825290205481611fd85760405162461bcd60e51b815260206004820152603e60248201527f50726f6f664f66456666696369656e63793a3a76657269667942617463683a2060448201527f6f6c64416363496e7075744861736820646f6573206e6f7420657869737400006064820152608401610995565b806119665760405162461bcd60e51b815260206004820152603e60248201527f50726f6f664f66456666696369656e63793a3a76657269667942617463683a2060448201527f6e6577416363496e7075744861736820646f6573206e6f7420657869737400006064820152608401610995565b60685460009067ffffffffffffffff700100000000000000000000000000000000820481169161209a917801000000000000000000000000000000000000000000000000909104166001614fe5565b6120a49190614e72565b6120c09067ffffffffffffffff16670de0b6b3a7640000614eb2565b905090565b600054610100900460ff16158080156120e55750600054600160ff909116105b806120ff5750303b1580156120ff575060005460ff166001145b6121715760405162461bcd60e51b815260206004820152602e60248201527f496e697469616c697a61626c653a20636f6e747261637420697320616c72656160448201527f647920696e697469616c697a65640000000000000000000000000000000000006064820152608401610995565b600080547fffffffffffffffffffffffffffffffffffffffffffffffffffffffffffffff0016600117905580156121cf57600080547fffffffffffffffffffffffffffffffffffffffffffffffffffffffffffff00ff166101001790555b606a80547fffffffffffffffffffffffff000000000000000000000000000000000000000090811673ffffffffffffffffffffffffffffffffffffffff8f811691909117909255606580547fffffffffffffffffffffff0000000000000000000000000000000000000000ff166101008f851602179055606c80549091168c831617905560008052606b6020527fc8cc8bda7ad4886bea3ebbdafa02e79d37c39bf4011696b26a31a0802fd9458b8a9055606980547fffffff000000000000000000000000000000000000000000ffffffffffffffff1668010000000000000000928b16929092027fffffff00ffffffffffffffffffffffffffffffffffffffffffffffffffffffff16919091177c010000000000000000000000000000000000000000000000000000000089151502179055606d61230e878261505f565b50606e80547fffffffffffffffffffffffffffffffffffffffffffffffff00000000000000001667ffffffffffffffff8716179055606f61234f858261505f565b506071805473ffffffffffffffffffffffffffffffffffffffff8086167fffffffffffffffffffffffff00000000000000000000000000000000000000009283161790925560708054928516929091169190911790556123ad614154565b801561241057600080547fffffffffffffffffffffffffffffffffffffffffffffffffffffffffffff00ff169055604051600181527f7f26b83ff96e1f2b6a682f133852f6798a09c465da95921460cefb38474024989060200160405180910390a15b505050505050505050505050565b60695468010000000000000000900473ffffffffffffffffffffffffffffffffffffffff1633146124b75760405162461bcd60e51b815260206004820152603f60248201527f50726f6f664f66456666696369656e63793a3a6f6e6c7954727573746564536560448201527f7175656e6365723a206f6e6c7920747275737465642073657175656e636572006064820152608401610995565b606980548215157c0100000000000000000000000000000000000000000000000000000000027fffffff00ffffffffffffffffffffffffffffffffffffffffffffffffffffffff9091161790556040517fbacda50a4a8575be1d91a7ebe29ee45056f3a94f12a2281eb6b43afa33bcefe690610a0d90831515815260200190565b612540613ed3565b606980547fffffffffffffffffffffffffffffffffffffffffffffffff00000000000000001667ffffffffffffffff92909216919091179055565b6065546040517f70a08231000000000000000000000000000000000000000000000000000000008152306004820152600091829161010090910473ffffffffffffffffffffffffffffffffffffffff16906370a0823190602401602060405180830381865afa1580156125f2573d6000803e3d6000fd5b505050506040513d601f19601f820116820180604052508101906126169190614e21565b60695460685491925060009167ffffffffffffffff9182169168010000000000000000820481169161267b9170010000000000000000000000000000000082048116917801000000000000000000000000000000000000000000000000900416614e72565b6126859190614fe5565b61268f9190614e72565b67ffffffffffffffff1690506126a5818361515b565b9250505090565b6126b4613ed3565b6068805467ffffffffffffffff90921668010000000000000000027fffffffffffffffffffffffffffffffff0000000000000000ffffffffffffffff909216919091179055565b612703613ed3565b606f61270f828261505f565b5050565b60655460ff16156127b25760405162461bcd60e51b815260206004820152604260248201527f456d657267656e63794d616e616765723a3a69664e6f74456d657267656e637960448201527f53746174653a206f6e6c79206966206e6f7420656d657267656e63792073746160648201527f7465000000000000000000000000000000000000000000000000000000000000608482015260a401610995565b8567ffffffffffffffff168767ffffffffffffffff16106128615760405162461bcd60e51b815260206004820152605d60248201527f50726f6f664f66456666696369656e63793a3a70726f76654e6f6e446574657260448201527f6d696e697374696353746174653a2066696e616c4e65774261746368206d757360648201527f7420626520626967676572207468616e20696e69744e756d4261746368000000608482015260a401610995565b60695467ffffffffffffffff90811690871611156129335760405162461bcd60e51b815260206004820152606960248201527f50726f6f664f66456666696369656e63793a3a70726f76654e6f6e446574657260448201527f6d696e697374696353746174653a2066696e616c4e65774261746368206d757360648201527f74206265206c657373206f7220657175616c207468616e206c6173745665726960848201527f666965644261746368000000000000000000000000000000000000000000000060a482015260c401610995565b67ffffffffffffffff87166000908152606b60205260409020546129e55760405162461bcd60e51b815260206004820152605560248201527f50726f6f664f66456666696369656e63793a3a70726f76654e6f6e446574657260448201527f6d696e697374696353746174653a20696e69744e756d4261746368207374617460648201527f6520726f6f7420646f6573206e6f742065786973740000000000000000000000608482015260a401610995565b67ffffffffffffffff86166000908152606b6020526040902054612a975760405162461bcd60e51b815260206004820152605660248201527f50726f6f664f66456666696369656e63793a3a70726f76654e6f6e446574657260448201527f6d696e697374696353746174653a2066696e616c4e657742617463682073746160648201527f746520726f6f7420646f6573206e6f7420657869737400000000000000000000608482015260a401610995565b6000612aa588888888611bab565b905060007f30644e72e131a029b85045b68181585d2833e84879b9709143e1f593f0000001600283604051612ada9190614eef565b602060405180830381855afa158015612af7573d6000803e3d6000fd5b5050506040513d601f19601f82011682018060405250810190612b1a9190614e21565b612b249190614f3a565b606c546040805160208101825283815290517f43753b4d00000000000000000000000000000000000000000000000000000000815292935073ffffffffffffffffffffffffffffffffffffffff909116916343753b4d91612b8e9189918991899190600401614f4e565b602060405180830381865afa158015612bab573d6000803e3d6000fd5b505050506040513d601f19601f82011682018060405250810190612bcf9190614fc8565b612c415760405162461bcd60e51b815260206004820152603c60248201527f50726f6f664f66456666696369656e63793a3a70726f76654e6f6e446574657260448201527f6d696e697374696353746174653a20494e56414c49445f50524f4f46000000006064820152608401610995565b67ffffffffffffffff88166000908152606b6020526040902054869003612cf65760405162461bcd60e51b815260206004820152606060248201527f50726f6f664f66456666696369656e63793a3a70726f76654e6f6e446574657260448201527f6d696e697374696353746174653a2073746f72656420726f6f74206d7573742060648201527f626520646966666572656e74207468616e206e657720737461746520726f6f74608482015260a401610995565b67ffffffffffffffff88166000908152606b60209081526040918290205482519081529081018890527f10b370e2afd2be06fe3170fec9cb3bbd87233f3deb63d488c0dde59813afdabe910160405180910390a1612d52613f3a565b505050505050505050565b60695468010000000000000000900473ffffffffffffffffffffffffffffffffffffffff163314612df65760405162461bcd60e51b815260206004820152603f60248201527f50726f6f664f66456666696369656e63793a3a6f6e6c7954727573746564536560448201527f7175656e6365723a206f6e6c7920747275737465642073657175656e636572006064820152608401610995565b606d612e02828261505f565b507f6b8f723a4c7a5335cafae8a598a0aa0301be1387c037dccc085b62add6448b2081604051610a0d9190614611565b60695460009067ffffffffffffffff868116911614612edf5760405162461bcd60e51b815260206004820152604160248201527f50726f6f664f66456666696369656e63793a3a76657269667942617463683a2060448201527f5f6c6173745665726966696564426174636820646f6573206e6f74206d61746360648201527f6800000000000000000000000000000000000000000000000000000000000000608482015260a401610995565b8467ffffffffffffffff168467ffffffffffffffff1611612f8e5760405162461bcd60e51b815260206004820152605660248201527f50726f6f664f66456666696369656e63793a3a76657269667942617463683a2060448201527f6e657756657269666965644261746368206d757374206265206269676765722060648201527f7468616e206c6173745665726966696564426174636800000000000000000000608482015260a401610995565b60685467ffffffffffffffff68010000000000000000909104811690851611156130465760405162461bcd60e51b815260206004820152604260248201527f50726f6f664f66456666696369656e63793a3a76657269667942617463683a2060448201527f626174636820646f6573206e6f742068617665206265656e2073657175656e6360648201527f6564000000000000000000000000000000000000000000000000000000000000608482015260a401610995565b600061305486868686611bab565b905060007f30644e72e131a029b85045b68181585d2833e84879b9709143e1f593f00000016002836040516130899190614eef565b602060405180830381855afa1580156130a6573d6000803e3d6000fd5b5050506040513d601f19601f820116820180604052508101906130c99190614e21565b6130d39190614f3a565b979650505050505050565b60655460ff161561317d5760405162461bcd60e51b815260206004820152604260248201527f456d657267656e63794d616e616765723a3a69664e6f74456d657267656e637960448201527f53746174653a206f6e6c79206966206e6f7420656d657267656e63792073746160648201527f7465000000000000000000000000000000000000000000000000000000000000608482015260a401610995565b6069547c0100000000000000000000000000000000000000000000000000000000900460ff1615156001146132405760405162461bcd60e51b815260206004820152604860248201527f50726f6f664f66456666696369656e63793a3a6973466f72636542617463684160448201527f6c6c6f7765643a206f6e6c7920696620666f726365206261746368206973206160648201527f7661696c61626c65000000000000000000000000000000000000000000000000608482015260a401610995565b8051806132db5760405162461bcd60e51b815260206004820152604260248201527f50726f6f664f66456666696369656e63793a3a73657175656e6365466f72636560448201527f42617463683a204d75737420666f726365206174206c6561737420312062617460648201527f6368000000000000000000000000000000000000000000000000000000000000608482015260a401610995565b60685467ffffffffffffffff7801000000000000000000000000000000000000000000000000820481169161332691849170010000000000000000000000000000000090041661516f565b111561339a5760405162461bcd60e51b815260206004820152603a60248201527f50726f6f664f66456666696369656e63793a3a73657175656e6365466f72636560448201527f42617463683a20466f72636520626174636820696e76616c69640000000000006064820152608401610995565b60685467ffffffffffffffff680100000000000000008204811660008181526067602052604081205491937001000000000000000000000000000000009004909216915b848110156136b35760008682815181106133fa576133fa614d9c565b60200260200101519050838061340f90614dfa565b825180516020918201208185015160408087015181519485019390935283015260c01b7fffffffffffffffff0000000000000000000000000000000000000000000000001660608201529095506000915060680160408051601f19818403018152918152815160209283012067ffffffffffffffff88166000908152606690935291205490915081146135305760405162461bcd60e51b815260206004820152604760248201527f50726f6f664f66456666696369656e63793a3a73657175656e6365466f72636560448201527f426174636865733a20466f7263656420626174636865732064617461206d757360648201527f74206d6174636800000000000000000000000000000000000000000000000000608482015260a401610995565b61353b600188614e9b565b83036135f9574262093a8083604001516135559190614fe5565b67ffffffffffffffff1611156135f95760405162461bcd60e51b815260206004820152604c60248201527f50726f6f664f66456666696369656e63793a3a73657175656e6365466f72636560448201527f42617463683a20466f72636564206261746368206973206e6f7420696e20746960648201527f6d656f757420706572696f640000000000000000000000000000000000000000608482015260a401610995565b8151805160209182012081840151604080519384018890528301919091526060808301919091524260c01b7fffffffffffffffff00000000000000000000000000000000000000000000000016608083015233901b7fffffffffffffffffffffffffffffffffffffffff000000000000000000000000166088820152609c01604051602081830303815290604052805190602001209350858061369b90614dfa565b965050505080806136ab90614e3a565b9150506133de565b50606880544267ffffffffffffffff9081167fffffffffffffffffffffffffffffffff000000000000000000000000000000009092169190911768010000000000000000868316818102929092177fffffffffffffffff0000000000000000ffffffffffffffffffffffffffffffff1670010000000000000000000000000000000087851602178455600091825260676020526040808320869055935493519304909116917f648a61dd2438f072f5a1960939abd30f37aea80d2e94c9792ad142d3e0a490a49190a25050505050565b60655460ff166137fb5760405162461bcd60e51b815260206004820152603b60248201527f456d657267656e63794d616e616765723a3a6966456d657267656e637953746160448201527f74653a206f6e6c7920696620656d657267656e637920737461746500000000006064820152608401610995565b60705473ffffffffffffffffffffffffffffffffffffffff1633146138885760405162461bcd60e51b815260206004820152603d60248201527f50726f6f664f66456666696369656e63793a3a6f6e6c7953656375726974794360448201527f6f756e63696c3a206f6e6c7920736563757269747920636f756e63696c0000006064820152608401610995565b607160009054906101000a900473ffffffffffffffffffffffffffffffffffffffff1673ffffffffffffffffffffffffffffffffffffffff1663dbc169766040518163ffffffff1660e01b8152600401600060405180830381600087803b1580156138f257600080fd5b505af1158015613906573d6000803e3d6000fd5b50505050610ac76141da565b60655460ff16156139b15760405162461bcd60e51b815260206004820152604260248201527f456d657267656e63794d616e616765723a3a69664e6f74456d657267656e637960448201527f53746174653a206f6e6c79206966206e6f7420656d657267656e63792073746160648201527f7465000000000000000000000000000000000000000000000000000000000000608482015260a401610995565b6069547c0100000000000000000000000000000000000000000000000000000000900460ff161515600114613a745760405162461bcd60e51b815260206004820152604860248201527f50726f6f664f66456666696369656e63793a3a6973466f72636542617463684160448201527f6c6c6f7765643a206f6e6c7920696620666f726365206261746368206973206160648201527f7661696c61626c65000000000000000000000000000000000000000000000000608482015260a401610995565b6000613a7e61204b565b905081811115613af65760405162461bcd60e51b815260206004820152602f60248201527f50726f6f664f66456666696369656e63793a3a666f72636542617463683a206e60448201527f6f7420656e6f756768206d6174696300000000000000000000000000000000006064820152608401610995565b620493e0835110613b6f5760405162461bcd60e51b815260206004820152603a60248201527f50726f6f664f66456666696369656e63793a3a666f72636542617463683a205460448201527f72616e73616374696f6e73206279746573206f766572666c6f770000000000006064820152608401610995565b606554613b9990610100900473ffffffffffffffffffffffffffffffffffffffff16333084613fc4565b606a54604080517f3ed691ef000000000000000000000000000000000000000000000000000000008152905160009273ffffffffffffffffffffffffffffffffffffffff1691633ed691ef9160048083019260209291908290030181865afa158015613c09573d6000803e3d6000fd5b505050506040513d601f19601f82011682018060405250810190613c2d9190614e21565b60688054919250780100000000000000000000000000000000000000000000000090910467ffffffffffffffff16906018613c6783614dfa565b91906101000a81548167ffffffffffffffff021916908367ffffffffffffffff1602179055505083805190602001208142604051602001613ce093929190928352602083019190915260c01b7fffffffffffffffff00000000000000000000000000000000000000000000000016604082015260480190565b60408051808303601f1901815291815281516020928301206068547801000000000000000000000000000000000000000000000000900467ffffffffffffffff1660009081526066909352912055323303613db057606854604080518381523360208201526060918101829052600091810191909152780100000000000000000000000000000000000000000000000090910467ffffffffffffffff16907ff94bb37db835f1ab585ee00041849a09b12cd081d77fa15ca070757619cbc9319060800160405180910390a2613e0d565b606860189054906101000a900467ffffffffffffffff1667ffffffffffffffff167ff94bb37db835f1ab585ee00041849a09b12cd081d77fa15ca070757619cbc931823387604051613e0493929190615187565b60405180910390a25b50505050565b613e1b613ed3565b73ffffffffffffffffffffffffffffffffffffffff8116613ea45760405162461bcd60e51b815260206004820152602660248201527f4f776e61626c653a206e6577206f776e657220697320746865207a65726f206160448201527f64647265737300000000000000000000000000000000000000000000000000006064820152608401610995565b613ead816140dd565b50565b613eb8613ed3565b67ffffffffffffffff166000908152606b6020526040902055565b60335473ffffffffffffffffffffffffffffffffffffffff163314610ac75760405162461bcd60e51b815260206004820181905260248201527f4f776e61626c653a2063616c6c6572206973206e6f7420746865206f776e65726044820152606401610995565b607160009054906101000a900473ffffffffffffffffffffffffffffffffffffffff1673ffffffffffffffffffffffffffffffffffffffff16632072f6c56040518163ffffffff1660e01b8152600401600060405180830381600087803b158015613fa457600080fd5b505af1158015613fb8573d6000803e3d6000fd5b50505050610ac76142a5565b60405173ffffffffffffffffffffffffffffffffffffffff80851660248301528316604482015260648101829052613e0d9085907f23b872dd00000000000000000000000000000000000000000000000000000000906084015b60408051601f198184030181529190526020810180517bffffffffffffffffffffffffffffffffffffffffffffffffffffffff167fffffffff000000000000000000000000000000000000000000000000000000009093169290921790915261439a565b60405173ffffffffffffffffffffffffffffffffffffffff83166024820152604481018290526140d89084907fa9059cbb000000000000000000000000000000000000000000000000000000009060640161401e565b505050565b6033805473ffffffffffffffffffffffffffffffffffffffff8381167fffffffffffffffffffffffff0000000000000000000000000000000000000000831681179093556040519116919082907f8be0079c531659141344cd1fd0a4f28419497f9722a3daafe3b4186f6b6457e090600090a35050565b600054610100900460ff166141d15760405162461bcd60e51b815260206004820152602b60248201527f496e697469616c697a61626c653a20636f6e7472616374206973206e6f74206960448201527f6e697469616c697a696e670000000000000000000000000000000000000000006064820152608401610995565b610ac7336140dd565b60655460ff166142525760405162461bcd60e51b815260206004820152603b60248201527f456d657267656e63794d616e616765723a3a6966456d657267656e637953746160448201527f74653a206f6e6c7920696620656d657267656e637920737461746500000000006064820152608401610995565b606580547fffffffffffffffffffffffffffffffffffffffffffffffffffffffffffffff001690556040517f1e5e34eea33501aecf2ebec9fe0e884a40804275ea7fe10b2ba084c8374308b390600090a1565b60655460ff16156143445760405162461bcd60e51b815260206004820152604260248201527f456d657267656e63794d616e616765723a3a69664e6f74456d657267656e637960448201527f53746174653a206f6e6c79206966206e6f7420656d657267656e63792073746160648201527f7465000000000000000000000000000000000000000000000000000000000000608482015260a401610995565b606580547fffffffffffffffffffffffffffffffffffffffffffffffffffffffffffffff001660011790556040517f2261efe5aef6fedc1fd1550b25facc9181745623049c7901287030b9ad1a549790600090a1565b60006143fc826040518060400160405280602081526020017f5361666545524332303a206c6f772d6c6576656c2063616c6c206661696c65648152508573ffffffffffffffffffffffffffffffffffffffff1661448c9092919063ffffffff16565b8051909150156140d8578080602001905181019061441a9190614fc8565b6140d85760405162461bcd60e51b815260206004820152602a60248201527f5361666545524332303a204552433230206f7065726174696f6e20646964206e60448201527f6f742073756363656564000000000000000000000000000000000000000000006064820152608401610995565b6060611dda8484600085856000808673ffffffffffffffffffffffffffffffffffffffff1685876040516144c09190614eef565b60006040518083038185875af1925050503d80600081146144fd576040519150601f19603f3d011682016040523d82523d6000602084013e614502565b606091505b50915091506130d3878383876060831561458a5782516000036145835773ffffffffffffffffffffffffffffffffffffffff85163b6145835760405162461bcd60e51b815260206004820152601d60248201527f416464726573733a2063616c6c20746f206e6f6e2d636f6e74726163740000006044820152606401610995565b5081611dda565b611dda838381511561459f5781518083602001fd5b8060405162461bcd60e51b81526004016109959190614611565b60005b838110156145d45781810151838201526020016145bc565b83811115613e0d5750506000910152565b600081518084526145fd8160208601602086016145b9565b601f01601f19169290920160200192915050565b60208152600061462460208301846145e5565b9392505050565b803567ffffffffffffffff8116811461464357600080fd5b919050565b6000806040838503121561465b57600080fd5b6146648361462b565b946020939093013593505050565b73ffffffffffffffffffffffffffffffffffffffff81168114613ead57600080fd5b803561464381614672565b6000602082840312156146b157600080fd5b813561462481614672565b7f4e487b7100000000000000000000000000000000000000000000000000000000600052604160045260246000fd5b6040516080810167ffffffffffffffff8111828210171561470e5761470e6146bc565b60405290565b6040516060810167ffffffffffffffff8111828210171561470e5761470e6146bc565b604051601f8201601f1916810167ffffffffffffffff81118282101715614760576147606146bc565b604052919050565b600067ffffffffffffffff821115614782576147826146bc565b5060051b60200190565b600082601f83011261479d57600080fd5b813567ffffffffffffffff8111156147b7576147b76146bc565b6147ca6020601f19601f84011601614737565b8181528460208386010111156147df57600080fd5b816020850160208301376000918101602001919091529392505050565b6000602080838503121561480f57600080fd5b823567ffffffffffffffff8082111561482757600080fd5b818501915085601f83011261483b57600080fd5b813561484e61484982614768565b614737565b81815260059190911b8301840190848101908883111561486d57600080fd5b8585015b83811015614906578035858111156148895760008081fd5b86016080818c03601f19018113156148a15760008081fd5b6148a96146eb565b89830135888111156148bb5760008081fd5b6148c98e8c8387010161478c565b8252506040808401358b83015260606148e381860161462b565b828401526148f284860161462b565b908301525085525050918601918601614871565b5098975050505050505050565b60006020828403121561492557600080fd5b6146248261462b565b806040810183101561493f57600080fd5b92915050565b6000806000806000806000610180888a03121561496157600080fd5b61496a8861462b565b96506149786020890161462b565b955060408801359450606088013593506149958960808a0161492e565b92506101408801898111156149a957600080fd5b60c0890192506149b98a8261492e565b91505092959891949750929550565b600080600080600060a086880312156149e057600080fd5b85359450602086013567ffffffffffffffff8111156149fe57600080fd5b614a0a8882890161478c565b94505060408601359250614a206060870161462b565b91506080860135614a3081614672565b809150509295509295909350565b60008060008060808587031215614a5457600080fd5b614a5d8561462b565b9350614a6b6020860161462b565b93969395505050506040820135916060013590565b8015158114613ead57600080fd5b803561464381614a80565b60008060008060008060008060008060006101608c8e031215614abb57600080fd5b614ac48c614694565b9a50614ad260208d01614694565b9950614ae060408d01614694565b985060608c01359750614af560808d01614694565b9650614b0360a08d01614a8e565b955067ffffffffffffffff8060c08e01351115614b1f57600080fd5b614b2f8e60c08f01358f0161478c565b9550614b3d60e08e0161462b565b9450806101008e01351115614b5157600080fd5b50614b638d6101008e01358e0161478c565b9250614b726101208d01614694565b9150614b816101408d01614694565b90509295989b509295989b9093969950565b600060208284031215614ba557600080fd5b813561462481614a80565b600060208284031215614bc257600080fd5b813567ffffffffffffffff811115614bd957600080fd5b611dda8482850161478c565b60006020808385031215614bf857600080fd5b823567ffffffffffffffff80821115614c1057600080fd5b818501915085601f830112614c2457600080fd5b8135614c3261484982614768565b81815260059190911b83018401908481019088831115614c5157600080fd5b8585015b8381101561490657803585811115614c6d5760008081fd5b86016060818c03601f1901811315614c855760008081fd5b614c8d614714565b8983013588811115614c9f5760008081fd5b614cad8e8c8387010161478c565b8252506040808401358b830152614cc583850161462b565b9082015285525050918601918601614c55565b60008060408385031215614ceb57600080fd5b823567ffffffffffffffff811115614d0257600080fd5b614d0e8582860161478c565b95602094909401359450505050565b60008060408385031215614d3057600080fd5b82359150614d406020840161462b565b90509250929050565b600181811c90821680614d5d57607f821691505b602082108103614d96577f4e487b7100000000000000000000000000000000000000000000000000000000600052602260045260246000fd5b50919050565b7f4e487b7100000000000000000000000000000000000000000000000000000000600052603260045260246000fd5b7f4e487b7100000000000000000000000000000000000000000000000000000000600052601160045260246000fd5b600067ffffffffffffffff808316818103614e1757614e17614dcb565b6001019392505050565b600060208284031215614e3357600080fd5b5051919050565b60007fffffffffffffffffffffffffffffffffffffffffffffffffffffffffffffffff8203614e6b57614e6b614dcb565b5060010190565b600067ffffffffffffffff83811690831681811015614e9357614e93614dcb565b039392505050565b600082821015614ead57614ead614dcb565b500390565b6000817fffffffffffffffffffffffffffffffffffffffffffffffffffffffffffffffff0483118215151615614eea57614eea614dcb565b500290565b60008251614f018184602087016145b9565b9190910192915050565b7f4e487b7100000000000000000000000000000000000000000000000000000000600052601260045260246000fd5b600082614f4957614f49614f0b565b500690565b61012081016040808784376000838201818152879190815b6002811015614f8657848483379084018281529284019290600101614f66565b5050828760c0870137610100850181815286935091505b6001811015614fbc578251825260209283019290910190600101614f9d565b50505095945050505050565b600060208284031215614fda57600080fd5b815161462481614a80565b600067ffffffffffffffff80831681851680830382111561500857615008614dcb565b01949350505050565b601f8211156140d857600081815260208120601f850160051c810160208610156150385750805b601f850160051c820191505b8181101561505757828155600101615044565b505050505050565b815167ffffffffffffffff811115615079576150796146bc565b61508d816150878454614d49565b84615011565b602080601f8311600181146150e057600084156150aa5750858301515b7fffffffffffffffffffffffffffffffffffffffffffffffffffffffffffffffff600386901b1c1916600185901b178555615057565b600085815260208120601f198616915b8281101561510f578886015182559484019460019091019084016150f0565b508582101561514b57878501517fffffffffffffffffffffffffffffffffffffffffffffffffffffffffffffffff600388901b60f8161c191681555b5050505050600190811b01905550565b60008261516a5761516a614f0b565b500490565b6000821982111561518257615182614dcb565b500190565b83815273ffffffffffffffffffffffffffffffffffffffff831660208201526060604082015260006151bc60608301846145e5565b9594505050505056fea2646970667358221220041c87d1847c21581e6eba605bd8c4cf2588648976f64611c0f8f05e1fa34a0a64736f6c634300080f0033",
  "linkReferences": {},
  "deployedLinkReferences": {}
}