{
  "_format": "hh-sol-artifact-1",
  "contractName": "ProofOfEfficiencyMock",
  "sourceName": "contracts/mocks/ProofOfEfficiencyMock.sol",
  "abi": [
    {
      "anonymous": false,
      "inputs": [
        {
          "indexed": true,
          "internalType": "uint64",
          "name": "numBatch",
          "type": "uint64"
        },
        {
          "indexed": false,
          "internalType": "bytes32",
          "name": "stateRoot",
          "type": "bytes32"
        },
        {
          "indexed": true,
          "internalType": "address",
          "name": "aggregator",
          "type": "address"
        }
      ],
      "name": "ConsolidatePendingState",
      "type": "event"
    },
    {
      "anonymous": false,
      "inputs": [],
      "name": "EmergencyStateActivated",
      "type": "event"
    },
    {
      "anonymous": false,
      "inputs": [],
      "name": "EmergencyStateDeactivated",
      "type": "event"
    },
    {
      "anonymous": false,
      "inputs": [
        {
          "indexed": true,
          "internalType": "uint64",
          "name": "forceBatchNum",
          "type": "uint64"
        },
        {
          "indexed": false,
          "internalType": "bytes32",
          "name": "lastGlobalExitRoot",
          "type": "bytes32"
        },
        {
          "indexed": false,
          "internalType": "address",
          "name": "sequencer",
          "type": "address"
        },
        {
          "indexed": false,
          "internalType": "bytes",
          "name": "transactions",
          "type": "bytes"
        }
      ],
      "name": "ForceBatch",
      "type": "event"
    },
    {
      "anonymous": false,
      "inputs": [
        {
          "indexed": false,
          "internalType": "uint8",
          "name": "version",
          "type": "uint8"
        }
      ],
      "name": "Initialized",
      "type": "event"
    },
    {
      "anonymous": false,
      "inputs": [
        {
          "indexed": true,
          "internalType": "uint64",
          "name": "numBatch",
          "type": "uint64"
        },
        {
          "indexed": false,
          "internalType": "bytes32",
          "name": "stateRoot",
          "type": "bytes32"
        },
        {
          "indexed": true,
          "internalType": "address",
          "name": "aggregator",
          "type": "address"
        }
      ],
      "name": "OverridePendingState",
      "type": "event"
    },
    {
      "anonymous": false,
      "inputs": [
        {
          "indexed": true,
          "internalType": "address",
          "name": "previousOwner",
          "type": "address"
        },
        {
          "indexed": true,
          "internalType": "address",
          "name": "newOwner",
          "type": "address"
        }
      ],
      "name": "OwnershipTransferred",
      "type": "event"
    },
    {
      "anonymous": false,
      "inputs": [
        {
          "indexed": false,
          "internalType": "bytes32",
          "name": "storedStateRoot",
          "type": "bytes32"
        },
        {
          "indexed": false,
          "internalType": "bytes32",
          "name": "provedStateRoot",
          "type": "bytes32"
        }
      ],
      "name": "ProveNonDeterministicPendingState",
      "type": "event"
    },
    {
      "anonymous": false,
      "inputs": [
        {
          "indexed": true,
          "internalType": "uint64",
          "name": "numBatch",
          "type": "uint64"
        }
      ],
      "name": "SequenceBatches",
      "type": "event"
    },
    {
      "anonymous": false,
      "inputs": [
        {
          "indexed": true,
          "internalType": "uint64",
          "name": "numBatch",
          "type": "uint64"
        }
      ],
      "name": "SequenceForceBatches",
      "type": "event"
    },
    {
      "anonymous": false,
      "inputs": [
        {
          "indexed": false,
          "internalType": "address",
          "name": "newAdmin",
          "type": "address"
        }
      ],
      "name": "SetAdmin",
      "type": "event"
    },
    {
      "anonymous": false,
      "inputs": [
        {
          "indexed": false,
          "internalType": "bool",
          "name": "newForceBatchAllowed",
          "type": "bool"
        }
      ],
      "name": "SetForceBatchAllowed",
      "type": "event"
    },
    {
      "anonymous": false,
      "inputs": [
        {
          "indexed": false,
          "internalType": "uint64",
          "name": "newPendingStateTimeout",
          "type": "uint64"
        }
      ],
      "name": "SetPendingStateTimeout",
      "type": "event"
    },
    {
      "anonymous": false,
      "inputs": [
        {
          "indexed": false,
          "internalType": "address",
          "name": "newTrustedAggregator",
          "type": "address"
        }
      ],
      "name": "SetTrustedAggregator",
      "type": "event"
    },
    {
      "anonymous": false,
      "inputs": [
        {
          "indexed": false,
          "internalType": "uint64",
          "name": "newTrustedAggregatorTimeout",
          "type": "uint64"
        }
      ],
      "name": "SetTrustedAggregatorTimeout",
      "type": "event"
    },
    {
      "anonymous": false,
      "inputs": [
        {
          "indexed": false,
          "internalType": "address",
          "name": "newTrustedSequencer",
          "type": "address"
        }
      ],
      "name": "SetTrustedSequencer",
      "type": "event"
    },
    {
      "anonymous": false,
      "inputs": [
        {
          "indexed": false,
          "internalType": "string",
          "name": "newTrustedSequencerURL",
          "type": "string"
        }
      ],
      "name": "SetTrustedSequencerURL",
      "type": "event"
    },
    {
      "anonymous": false,
      "inputs": [
        {
          "indexed": true,
          "internalType": "uint64",
          "name": "numBatch",
          "type": "uint64"
        },
        {
          "indexed": false,
          "internalType": "bytes32",
          "name": "stateRoot",
          "type": "bytes32"
        },
        {
          "indexed": true,
          "internalType": "address",
          "name": "aggregator",
          "type": "address"
        }
      ],
      "name": "TrustedVerifyBatches",
      "type": "event"
    },
    {
      "anonymous": false,
      "inputs": [
        {
          "indexed": true,
          "internalType": "uint64",
          "name": "numBatch",
          "type": "uint64"
        },
        {
          "indexed": false,
          "internalType": "bytes32",
          "name": "stateRoot",
          "type": "bytes32"
        },
        {
          "indexed": true,
          "internalType": "address",
          "name": "aggregator",
          "type": "address"
        }
      ],
      "name": "VerifyBatches",
      "type": "event"
    },
    {
      "inputs": [],
      "name": "FORCE_BATCH_TIMEOUT",
      "outputs": [
        {
          "internalType": "uint64",
          "name": "",
          "type": "uint64"
        }
      ],
      "stateMutability": "view",
      "type": "function"
    },
    {
      "inputs": [],
      "name": "HALT_AGGREGATION_TIMEOUT",
      "outputs": [
        {
          "internalType": "uint64",
          "name": "",
          "type": "uint64"
        }
      ],
      "stateMutability": "view",
      "type": "function"
    },
    {
      "inputs": [],
      "name": "MAX_BATCH_LENGTH",
      "outputs": [
        {
          "internalType": "uint256",
          "name": "",
          "type": "uint256"
        }
      ],
      "stateMutability": "view",
      "type": "function"
    },
    {
      "inputs": [],
      "name": "MAX_VERIFY_BATCHES",
      "outputs": [
        {
          "internalType": "uint64",
          "name": "",
          "type": "uint64"
        }
      ],
      "stateMutability": "view",
      "type": "function"
    },
    {
      "inputs": [
        {
          "internalType": "uint64",
          "name": "sequencedBatchNum",
          "type": "uint64"
        }
      ],
      "name": "activateEmergencyState",
      "outputs": [],
      "stateMutability": "nonpayable",
      "type": "function"
    },
    {
      "inputs": [],
      "name": "admin",
      "outputs": [
        {
          "internalType": "address",
          "name": "",
          "type": "address"
        }
      ],
      "stateMutability": "view",
      "type": "function"
    },
    {
      "inputs": [
        {
          "internalType": "uint64",
          "name": "",
          "type": "uint64"
        }
      ],
      "name": "batchNumToStateRoot",
      "outputs": [
        {
          "internalType": "bytes32",
          "name": "",
          "type": "bytes32"
        }
      ],
      "stateMutability": "view",
      "type": "function"
    },
    {
      "inputs": [],
      "name": "bridgeAddress",
      "outputs": [
        {
          "internalType": "contract IBridge",
          "name": "",
          "type": "address"
        }
      ],
      "stateMutability": "view",
      "type": "function"
    },
    {
      "inputs": [
        {
          "internalType": "bytes32",
          "name": "currentAccInputHash",
          "type": "bytes32"
        },
        {
          "internalType": "bytes",
          "name": "transactions",
          "type": "bytes"
        },
        {
          "internalType": "bytes32",
          "name": "globalExitRoot",
          "type": "bytes32"
        },
        {
          "internalType": "uint64",
          "name": "timestamp",
          "type": "uint64"
        },
        {
          "internalType": "address",
          "name": "sequencerAddress",
          "type": "address"
        }
      ],
      "name": "calculateAccInputHash",
      "outputs": [
        {
          "internalType": "bytes32",
          "name": "",
          "type": "bytes32"
        }
      ],
      "stateMutability": "pure",
      "type": "function"
    },
    {
      "inputs": [],
      "name": "calculateBatchFee",
      "outputs": [
        {
          "internalType": "uint256",
          "name": "",
          "type": "uint256"
        }
      ],
      "stateMutability": "view",
      "type": "function"
    },
    {
      "inputs": [],
      "name": "calculateRewardPerBatch",
      "outputs": [
        {
          "internalType": "uint256",
          "name": "",
          "type": "uint256"
        }
      ],
      "stateMutability": "view",
      "type": "function"
    },
    {
      "inputs": [],
      "name": "chainID",
      "outputs": [
        {
          "internalType": "uint64",
          "name": "",
          "type": "uint64"
        }
      ],
      "stateMutability": "view",
      "type": "function"
    },
    {
      "inputs": [
        {
          "internalType": "uint64",
          "name": "pendingStateNum",
          "type": "uint64"
        }
      ],
      "name": "consolidatePendingState",
      "outputs": [],
      "stateMutability": "nonpayable",
      "type": "function"
    },
    {
      "inputs": [],
      "name": "deactivateEmergencyState",
      "outputs": [],
      "stateMutability": "nonpayable",
      "type": "function"
    },
    {
      "inputs": [
        {
          "internalType": "bytes",
          "name": "transactions",
          "type": "bytes"
        },
        {
          "internalType": "uint256",
          "name": "maticAmount",
          "type": "uint256"
        }
      ],
      "name": "forceBatch",
      "outputs": [],
      "stateMutability": "nonpayable",
      "type": "function"
    },
    {
      "inputs": [],
      "name": "forceBatchAllowed",
      "outputs": [
        {
          "internalType": "bool",
          "name": "",
          "type": "bool"
        }
      ],
      "stateMutability": "view",
      "type": "function"
    },
    {
      "inputs": [
        {
          "internalType": "uint64",
          "name": "",
          "type": "uint64"
        }
      ],
      "name": "forcedBatches",
      "outputs": [
        {
          "internalType": "bytes32",
          "name": "",
          "type": "bytes32"
        }
      ],
      "stateMutability": "view",
      "type": "function"
    },
    {
      "inputs": [
        {
          "internalType": "uint64",
          "name": "initNumBatch",
          "type": "uint64"
        },
        {
          "internalType": "uint64",
          "name": "finalNewBatch",
          "type": "uint64"
        },
        {
          "internalType": "bytes32",
          "name": "newLocalExitRoot",
          "type": "bytes32"
        },
        {
          "internalType": "bytes32",
          "name": "oldStateRoot",
          "type": "bytes32"
        },
        {
          "internalType": "bytes32",
          "name": "newStateRoot",
          "type": "bytes32"
        }
      ],
      "name": "getInputSnarkBytes",
      "outputs": [
        {
          "internalType": "bytes",
          "name": "",
          "type": "bytes"
        }
      ],
      "stateMutability": "view",
      "type": "function"
    },
    {
      "inputs": [],
      "name": "getLastVerifiedBatch",
      "outputs": [
        {
          "internalType": "uint64",
          "name": "",
          "type": "uint64"
        }
      ],
      "stateMutability": "view",
      "type": "function"
    },
    {
      "inputs": [
        {
          "internalType": "uint64",
          "name": "pendingStateNum",
          "type": "uint64"
        },
        {
          "internalType": "uint64",
          "name": "initNumBatch",
          "type": "uint64"
        },
        {
          "internalType": "uint64",
          "name": "finalNewBatch",
          "type": "uint64"
        },
        {
          "internalType": "bytes32",
          "name": "newLocalExitRoot",
          "type": "bytes32"
        },
        {
          "internalType": "bytes32",
          "name": "newStateRoot",
          "type": "bytes32"
        }
      ],
      "name": "getNextSnarkInput",
      "outputs": [
        {
          "internalType": "uint256",
          "name": "",
          "type": "uint256"
        }
      ],
      "stateMutability": "view",
      "type": "function"
    },
    {
      "inputs": [],
      "name": "globalExitRootManager",
      "outputs": [
        {
          "internalType": "contract IGlobalExitRootManager",
          "name": "",
          "type": "address"
        }
      ],
      "stateMutability": "view",
      "type": "function"
    },
    {
      "inputs": [
        {
          "internalType": "contract IGlobalExitRootManager",
          "name": "_globalExitRootManager",
          "type": "address"
        },
        {
          "internalType": "contract IERC20Upgradeable",
          "name": "_matic",
          "type": "address"
        },
        {
          "internalType": "contract IVerifierRollup",
          "name": "_rollupVerifier",
          "type": "address"
        },
        {
          "internalType": "contract IBridge",
          "name": "_bridgeAddress",
          "type": "address"
        },
        {
          "components": [
            {
              "internalType": "address",
              "name": "admin",
              "type": "address"
            },
            {
              "internalType": "uint64",
              "name": "chainID",
              "type": "uint64"
            },
            {
              "internalType": "address",
              "name": "trustedSequencer",
              "type": "address"
            },
            {
              "internalType": "uint64",
              "name": "pendingStateTimeout",
              "type": "uint64"
            },
            {
              "internalType": "bool",
              "name": "forceBatchAllowed",
              "type": "bool"
            },
            {
              "internalType": "address",
              "name": "trustedAggregator",
              "type": "address"
            },
            {
              "internalType": "uint64",
              "name": "trustedAggregatorTimeout",
              "type": "uint64"
            }
          ],
          "internalType": "struct ProofOfEfficiency.InitializePackedParameters",
          "name": "initializePackedParameters",
          "type": "tuple"
        },
        {
          "internalType": "bytes32",
          "name": "genesisRoot",
          "type": "bytes32"
        },
        {
          "internalType": "string",
          "name": "_trustedSequencerURL",
          "type": "string"
        },
        {
          "internalType": "string",
          "name": "_networkName",
          "type": "string"
        }
      ],
      "name": "initialize",
      "outputs": [],
      "stateMutability": "nonpayable",
      "type": "function"
    },
    {
      "inputs": [],
      "name": "isEmergencyState",
      "outputs": [
        {
          "internalType": "bool",
          "name": "",
          "type": "bool"
        }
      ],
      "stateMutability": "view",
      "type": "function"
    },
    {
      "inputs": [
        {
          "internalType": "uint64",
          "name": "pendingStateNum",
          "type": "uint64"
        }
      ],
      "name": "isPendingStateConsolidable",
      "outputs": [
        {
          "internalType": "bool",
          "name": "",
          "type": "bool"
        }
      ],
      "stateMutability": "view",
      "type": "function"
    },
    {
      "inputs": [],
      "name": "lastBatchSequenced",
      "outputs": [
        {
          "internalType": "uint64",
          "name": "",
          "type": "uint64"
        }
      ],
      "stateMutability": "view",
      "type": "function"
    },
    {
      "inputs": [],
      "name": "lastForceBatch",
      "outputs": [
        {
          "internalType": "uint64",
          "name": "",
          "type": "uint64"
        }
      ],
      "stateMutability": "view",
      "type": "function"
    },
    {
      "inputs": [],
      "name": "lastForceBatchSequenced",
      "outputs": [
        {
          "internalType": "uint64",
          "name": "",
          "type": "uint64"
        }
      ],
      "stateMutability": "view",
      "type": "function"
    },
    {
      "inputs": [],
      "name": "lastPendingState",
      "outputs": [
        {
          "internalType": "uint64",
          "name": "",
          "type": "uint64"
        }
      ],
      "stateMutability": "view",
      "type": "function"
    },
    {
      "inputs": [],
      "name": "lastPendingStateConsolidated",
      "outputs": [
        {
          "internalType": "uint64",
          "name": "",
          "type": "uint64"
        }
      ],
      "stateMutability": "view",
      "type": "function"
    },
    {
      "inputs": [],
      "name": "lastTimestamp",
      "outputs": [
        {
          "internalType": "uint64",
          "name": "",
          "type": "uint64"
        }
      ],
      "stateMutability": "view",
      "type": "function"
    },
    {
      "inputs": [],
      "name": "lastVerifiedBatch",
      "outputs": [
        {
          "internalType": "uint64",
          "name": "",
          "type": "uint64"
        }
      ],
      "stateMutability": "view",
      "type": "function"
    },
    {
      "inputs": [],
      "name": "matic",
      "outputs": [
        {
          "internalType": "contract IERC20Upgradeable",
          "name": "",
          "type": "address"
        }
      ],
      "stateMutability": "view",
      "type": "function"
    },
    {
      "inputs": [],
      "name": "networkName",
      "outputs": [
        {
          "internalType": "string",
          "name": "",
          "type": "string"
        }
      ],
      "stateMutability": "view",
      "type": "function"
    },
    {
      "inputs": [
        {
          "internalType": "uint64",
          "name": "initPendingStateNum",
          "type": "uint64"
        },
        {
          "internalType": "uint64",
          "name": "finalPendingStateNum",
          "type": "uint64"
        },
        {
          "internalType": "uint64",
          "name": "initNumBatch",
          "type": "uint64"
        },
        {
          "internalType": "uint64",
          "name": "finalNewBatch",
          "type": "uint64"
        },
        {
          "internalType": "bytes32",
          "name": "newLocalExitRoot",
          "type": "bytes32"
        },
        {
          "internalType": "bytes32",
          "name": "newStateRoot",
          "type": "bytes32"
        },
        {
          "internalType": "uint256[2]",
          "name": "proofA",
          "type": "uint256[2]"
        },
        {
          "internalType": "uint256[2][2]",
          "name": "proofB",
          "type": "uint256[2][2]"
        },
        {
          "internalType": "uint256[2]",
          "name": "proofC",
          "type": "uint256[2]"
        }
      ],
      "name": "overridePendingState",
      "outputs": [],
      "stateMutability": "nonpayable",
      "type": "function"
    },
    {
      "inputs": [],
      "name": "owner",
      "outputs": [
        {
          "internalType": "address",
          "name": "",
          "type": "address"
        }
      ],
      "stateMutability": "view",
      "type": "function"
    },
    {
      "inputs": [],
      "name": "pendingStateTimeout",
      "outputs": [
        {
          "internalType": "uint64",
          "name": "",
          "type": "uint64"
        }
      ],
      "stateMutability": "view",
      "type": "function"
    },
    {
      "inputs": [
        {
          "internalType": "uint256",
          "name": "",
          "type": "uint256"
        }
      ],
      "name": "pendingStateTransitions",
      "outputs": [
        {
          "internalType": "uint64",
          "name": "timestamp",
          "type": "uint64"
        },
        {
          "internalType": "uint64",
          "name": "lastVerifiedBatch",
          "type": "uint64"
        },
        {
          "internalType": "bytes32",
          "name": "exitRoot",
          "type": "bytes32"
        },
        {
          "internalType": "bytes32",
          "name": "stateRoot",
          "type": "bytes32"
        }
      ],
      "stateMutability": "view",
      "type": "function"
    },
    {
      "inputs": [
        {
          "internalType": "uint64",
          "name": "initPendingStateNum",
          "type": "uint64"
        },
        {
          "internalType": "uint64",
          "name": "finalPendingStateNum",
          "type": "uint64"
        },
        {
          "internalType": "uint64",
          "name": "initNumBatch",
          "type": "uint64"
        },
        {
          "internalType": "uint64",
          "name": "finalNewBatch",
          "type": "uint64"
        },
        {
          "internalType": "bytes32",
          "name": "newLocalExitRoot",
          "type": "bytes32"
        },
        {
          "internalType": "bytes32",
          "name": "newStateRoot",
          "type": "bytes32"
        },
        {
          "internalType": "uint256[2]",
          "name": "proofA",
          "type": "uint256[2]"
        },
        {
          "internalType": "uint256[2][2]",
          "name": "proofB",
          "type": "uint256[2][2]"
        },
        {
          "internalType": "uint256[2]",
          "name": "proofC",
          "type": "uint256[2]"
        }
      ],
      "name": "proveNonDeterministicPendingState",
      "outputs": [],
      "stateMutability": "nonpayable",
      "type": "function"
    },
    {
      "inputs": [],
      "name": "renounceOwnership",
      "outputs": [],
      "stateMutability": "nonpayable",
      "type": "function"
    },
    {
      "inputs": [],
      "name": "rollupVerifier",
      "outputs": [
        {
          "internalType": "contract IVerifierRollup",
          "name": "",
          "type": "address"
        }
      ],
      "stateMutability": "view",
      "type": "function"
    },
    {
      "inputs": [
        {
          "components": [
            {
              "internalType": "bytes",
              "name": "transactions",
              "type": "bytes"
            },
            {
              "internalType": "bytes32",
              "name": "globalExitRoot",
              "type": "bytes32"
            },
            {
              "internalType": "uint64",
              "name": "timestamp",
              "type": "uint64"
            },
            {
              "internalType": "uint64",
              "name": "minForcedTimestamp",
              "type": "uint64"
            }
          ],
          "internalType": "struct ProofOfEfficiency.BatchData[]",
          "name": "batches",
          "type": "tuple[]"
        }
      ],
      "name": "sequenceBatches",
      "outputs": [],
      "stateMutability": "nonpayable",
      "type": "function"
    },
    {
      "inputs": [
        {
          "components": [
            {
              "internalType": "bytes",
              "name": "transactions",
              "type": "bytes"
            },
            {
              "internalType": "bytes32",
              "name": "globalExitRoot",
              "type": "bytes32"
            },
            {
              "internalType": "uint64",
              "name": "minForcedTimestamp",
              "type": "uint64"
            }
          ],
          "internalType": "struct ProofOfEfficiency.ForcedBatchData[]",
          "name": "batches",
          "type": "tuple[]"
        }
      ],
      "name": "sequenceForceBatches",
      "outputs": [],
      "stateMutability": "nonpayable",
      "type": "function"
    },
    {
      "inputs": [
        {
          "internalType": "uint64",
          "name": "",
          "type": "uint64"
        }
      ],
      "name": "sequencedBatches",
      "outputs": [
        {
          "internalType": "bytes32",
          "name": "accInputHash",
          "type": "bytes32"
        },
        {
          "internalType": "uint64",
          "name": "sequencedTimestamp",
          "type": "uint64"
        }
      ],
      "stateMutability": "view",
      "type": "function"
    },
    {
      "inputs": [
        {
          "internalType": "address",
          "name": "newAdmin",
          "type": "address"
        }
      ],
      "name": "setAdmin",
      "outputs": [],
      "stateMutability": "nonpayable",
      "type": "function"
    },
    {
      "inputs": [
        {
          "internalType": "bool",
          "name": "newForceBatchAllowed",
          "type": "bool"
        }
      ],
      "name": "setForceBatchAllowed",
      "outputs": [],
      "stateMutability": "nonpayable",
      "type": "function"
    },
    {
      "inputs": [
        {
          "internalType": "string",
          "name": "_networkName",
          "type": "string"
        }
      ],
      "name": "setNetworkName",
      "outputs": [],
      "stateMutability": "nonpayable",
      "type": "function"
    },
    {
      "inputs": [
        {
          "internalType": "uint64",
          "name": "newPendingStateTimeout",
          "type": "uint64"
        }
      ],
      "name": "setPendingStateTimeout",
      "outputs": [],
      "stateMutability": "nonpayable",
      "type": "function"
    },
    {
      "inputs": [
        {
          "internalType": "uint64",
          "name": "_numBatch",
          "type": "uint64"
        }
      ],
      "name": "setSequencedBatch",
      "outputs": [],
      "stateMutability": "nonpayable",
      "type": "function"
    },
    {
      "inputs": [
        {
          "internalType": "uint64",
          "name": "batchNum",
          "type": "uint64"
        },
        {
          "internalType": "bytes32",
          "name": "accInputData",
          "type": "bytes32"
        },
        {
          "internalType": "uint64",
          "name": "timestamp",
          "type": "uint64"
        }
      ],
      "name": "setSequencedBatches",
      "outputs": [],
      "stateMutability": "nonpayable",
      "type": "function"
    },
    {
      "inputs": [
        {
          "internalType": "bytes32",
          "name": "newStateRoot",
          "type": "bytes32"
        },
        {
          "internalType": "uint64",
          "name": "batchNum",
          "type": "uint64"
        }
      ],
      "name": "setStateRoot",
      "outputs": [],
      "stateMutability": "nonpayable",
      "type": "function"
    },
    {
      "inputs": [
        {
          "internalType": "address",
          "name": "newTrustedAggregator",
          "type": "address"
        }
      ],
      "name": "setTrustedAggregator",
      "outputs": [],
      "stateMutability": "nonpayable",
      "type": "function"
    },
    {
      "inputs": [
        {
          "internalType": "uint64",
          "name": "newTrustedAggregatorTimeout",
          "type": "uint64"
        }
      ],
      "name": "setTrustedAggregatorTimeout",
      "outputs": [],
      "stateMutability": "nonpayable",
      "type": "function"
    },
    {
      "inputs": [
        {
          "internalType": "address",
          "name": "newTrustedSequencer",
          "type": "address"
        }
      ],
      "name": "setTrustedSequencer",
      "outputs": [],
      "stateMutability": "nonpayable",
      "type": "function"
    },
    {
      "inputs": [
        {
          "internalType": "string",
          "name": "newTrustedSequencerURL",
          "type": "string"
        }
      ],
      "name": "setTrustedSequencerURL",
      "outputs": [],
      "stateMutability": "nonpayable",
      "type": "function"
    },
    {
      "inputs": [
        {
          "internalType": "uint64",
          "name": "_numBatch",
          "type": "uint64"
        }
      ],
      "name": "setVerifiedBatch",
      "outputs": [],
      "stateMutability": "nonpayable",
      "type": "function"
    },
    {
      "inputs": [
        {
          "internalType": "contract IVerifierRollup",
          "name": "_rollupVerifier",
          "type": "address"
        }
      ],
      "name": "setVerifier",
      "outputs": [],
      "stateMutability": "nonpayable",
      "type": "function"
    },
    {
      "inputs": [
        {
          "internalType": "address",
          "name": "newOwner",
          "type": "address"
        }
      ],
      "name": "transferOwnership",
      "outputs": [],
      "stateMutability": "nonpayable",
      "type": "function"
    },
    {
      "inputs": [],
      "name": "trustedAggregator",
      "outputs": [
        {
          "internalType": "address",
          "name": "",
          "type": "address"
        }
      ],
      "stateMutability": "view",
      "type": "function"
    },
    {
      "inputs": [],
      "name": "trustedAggregatorTimeout",
      "outputs": [
        {
          "internalType": "uint64",
          "name": "",
          "type": "uint64"
        }
      ],
      "stateMutability": "view",
      "type": "function"
    },
    {
      "inputs": [],
      "name": "trustedSequencer",
      "outputs": [
        {
          "internalType": "address",
          "name": "",
          "type": "address"
        }
      ],
      "stateMutability": "view",
      "type": "function"
    },
    {
      "inputs": [],
      "name": "trustedSequencerURL",
      "outputs": [
        {
          "internalType": "string",
          "name": "",
          "type": "string"
        }
      ],
      "stateMutability": "view",
      "type": "function"
    },
    {
      "inputs": [
        {
          "internalType": "uint64",
          "name": "pendingStateNum",
          "type": "uint64"
        },
        {
          "internalType": "uint64",
          "name": "initNumBatch",
          "type": "uint64"
        },
        {
          "internalType": "uint64",
          "name": "finalNewBatch",
          "type": "uint64"
        },
        {
          "internalType": "bytes32",
          "name": "newLocalExitRoot",
          "type": "bytes32"
        },
        {
          "internalType": "bytes32",
          "name": "newStateRoot",
          "type": "bytes32"
        },
        {
          "internalType": "uint256[2]",
          "name": "proofA",
          "type": "uint256[2]"
        },
        {
          "internalType": "uint256[2][2]",
          "name": "proofB",
          "type": "uint256[2][2]"
        },
        {
          "internalType": "uint256[2]",
          "name": "proofC",
          "type": "uint256[2]"
        }
      ],
      "name": "trustedVerifyBatches",
      "outputs": [],
      "stateMutability": "nonpayable",
      "type": "function"
    },
    {
      "inputs": [
        {
          "internalType": "uint64",
          "name": "pendingStateNum",
          "type": "uint64"
        },
        {
          "internalType": "uint64",
          "name": "initNumBatch",
          "type": "uint64"
        },
        {
          "internalType": "uint64",
          "name": "finalNewBatch",
          "type": "uint64"
        },
        {
          "internalType": "bytes32",
          "name": "newLocalExitRoot",
          "type": "bytes32"
        },
        {
          "internalType": "bytes32",
          "name": "newStateRoot",
          "type": "bytes32"
        },
        {
          "internalType": "uint256[2]",
          "name": "proofA",
          "type": "uint256[2]"
        },
        {
          "internalType": "uint256[2][2]",
          "name": "proofB",
          "type": "uint256[2][2]"
        },
        {
          "internalType": "uint256[2]",
          "name": "proofC",
          "type": "uint256[2]"
        }
      ],
      "name": "trustedVerifyBatchesMock",
      "outputs": [],
      "stateMutability": "nonpayable",
      "type": "function"
    },
    {
      "inputs": [
        {
          "internalType": "uint64",
          "name": "pendingStateNum",
          "type": "uint64"
        },
        {
          "internalType": "uint64",
          "name": "initNumBatch",
          "type": "uint64"
        },
        {
          "internalType": "uint64",
          "name": "finalNewBatch",
          "type": "uint64"
        },
        {
          "internalType": "bytes32",
          "name": "newLocalExitRoot",
          "type": "bytes32"
        },
        {
          "internalType": "bytes32",
          "name": "newStateRoot",
          "type": "bytes32"
        },
        {
          "internalType": "uint256[2]",
          "name": "proofA",
          "type": "uint256[2]"
        },
        {
          "internalType": "uint256[2][2]",
          "name": "proofB",
          "type": "uint256[2][2]"
        },
        {
          "internalType": "uint256[2]",
          "name": "proofC",
          "type": "uint256[2]"
        }
      ],
      "name": "verifyBatches",
      "outputs": [],
      "stateMutability": "nonpayable",
      "type": "function"
    }
  ],
  "bytecode": "0x608060405234801561001057600080fd5b5061654a80620000216000396000f3fe608060405234801561001057600080fd5b50600436106103d05760003560e01c80638c4a0af7116101ff578063cfa8ed471161011a578063e7a7ed02116100ad578063f14916d61161007c578063f14916d614610976578063f2fde38b14610989578063f851a4401461099c578063fe16564f146109af57600080fd5b8063e7a7ed0214610923578063e8bf92ed1461093d578063eaeb077b14610950578063edc411211461096357600080fd5b8063d939b315116100e9578063d939b315146108e5578063dbc16976146108ff578063e11f3f1814610907578063e217cfd61461091a57600080fd5b8063cfa8ed4714610891578063d02103ca146108ab578063d8d1091b146108be578063d8f54db0146108d157600080fd5b8063ab9fc5ef11610192578063b6b0b09711610161578063b6b0b0971461084b578063c0cad30214610863578063c0ed84e014610876578063c89e42df1461087e57600080fd5b8063ab9fc5ef14610746578063adc879e9146107db578063b02286c0146107f5578063b4d63f58146107fe57600080fd5b80639b796760116101ce5780639b7967601461078f5780639c9f3dfe146107a2578063a3c573eb146107b5578063a9017823146107c857600080fd5b80638c4a0af7146107505780638da5cb5b1461076357806396dc3d391461077457806399f5634e1461078757600080fd5b80635392c5e0116102ef578063715018a6116102825780637fcb3653116102515780637fcb3653146106ab578063837a4738146106be578063841b24d71461072c5780638b48931e1461074657600080fd5b8063715018a6146106755780637215541a1461067d57806375c508b3146106905780637abaf3e6146106a357600080fd5b806360943d6a116102be57806360943d6a1461061c5780636b8616ce1461062f5780636ff512cc1461064f578063704b6c021461066257600080fd5b80635392c5e01461056b578063542028d51461058b5780635437988d14610593578063574f649e146105a657600080fd5b8063394218e911610367578063458c047711610336578063458c0477146105185780634834a3431461052b5780634a1a89a71461053e5780634a910e6a1461055857600080fd5b8063394218e9146104be5780633c158267146104d1578063423fa856146104e457806345605267146104fe57600080fd5b806319d8ac61116103a357806319d8ac6114610442578063220d78991461046d5780632987898314610480578063383b3be8146104ab57600080fd5b80630eaa86ea146103d5578063107bf28c146103fb57806310a01a721461041057806315064c9614610425575b600080fd5b6103e86103e33660046158f2565b6109c2565b6040519081526020015b60405180910390f35b610403610df1565b6040516103f2919061599f565b61042361041e3660046159e1565b610e7f565b005b6065546104329060ff1681565b60405190151581526020016103f2565b606854610455906001600160401b031681565b6040516001600160401b0390911681526020016103f2565b61040361047b366004615a6e565b611369565b606a54610493906001600160a01b031681565b6040516001600160a01b0390911681526020016103f2565b6104326104b9366004615abb565b611527565b6104236104cc366004615abb565b61156e565b6104236104df366004615bf8565b61179a565b60685461045590600160401b90046001600160401b031681565b60685461045590600160801b90046001600160401b031681565b607254610455906001600160401b031681565b6104236105393660046159e1565b6120b9565b60725461045590600160401b90046001600160401b031681565b610423610566366004615abb565b612394565b6103e8610579366004615abb565b606d6020526000908152604090205481565b610403612657565b6104236105a1366004615d23565b612664565b6103e86105b4366004615d40565b835160209485012060408051808701979097528681019190915260608087019490945260c09290921b6001600160c01b031916608086015290911b6bffffffffffffffffffffffff191660888401528051808403607c018152609c9093019052815191012090565b61042361062a366004615db5565b61268e565b6103e861063d366004615abb565b60666020526000908152604090205481565b61042361065d366004615d23565b612a18565b610423610670366004615d23565b612af2565b610423612bab565b61042361068b366004615abb565b612bbf565b61042361069e366004615e8c565b612da0565b6103e8612e90565b606954610455906001600160401b031681565b6107016106cc366004615f2a565b6071602052600090815260409020805460018201546002909201546001600160401b0380831693600160401b90930416919084565b604080516001600160401b0395861681529490931660208501529183015260608201526080016103f2565b60725461045590600160c01b90046001600160401b031681565b61045562093a8081565b61042361075e366004615f51565b612ee6565b6033546001600160a01b0316610493565b610423610782366004615abb565b612f9e565b6103e8612fc9565b61042361079d366004615abb565b6130c3565b6104236107b0366004615abb565b6130fd565b607054610493906001600160a01b031681565b6104236107d6366004615f6e565b61331e565b606c5461045590600160a81b90046001600160401b031681565b6103e861ea6081565b61082e61080c366004615abb565b606760205260009081526040902080546001909101546001600160401b031682565b604080519283526001600160401b039091166020830152016103f2565b6065546104939061010090046001600160a01b031681565b610423610871366004615faa565b613375565b61045561338d565b61042361088c366004615faa565b6133da565b60695461049390600160401b90046001600160a01b031681565b606c54610493906001600160a01b031681565b6104236108cc366004615fde565b613481565b606c5461043290600160a01b900460ff1681565b60725461045590600160801b90046001600160401b031681565b610423613aaf565b610423610915366004615e8c565b613c02565b6104556103e881565b60685461045590600160c01b90046001600160401b031681565b606b54610493906001600160a01b031681565b61042361095e3660046160d0565b613d9a565b6104236109713660046159e1565b6141d9565b610423610984366004615d23565b614362565b610423610997366004615d23565b61441b565b607354610493906001600160a01b031681565b6104236109bd366004616114565b6144a8565b607254600090819081906001600160401b031615610a0557506072546001600160401b03908116600090815260716020526040902054600160401b900416610a13565b506069546001600160401b03165b6001600160401b03881615610b7e576072546001600160401b039081169089161115610ac05760405162461bcd60e51b815260206004820152605d60248201526000805160206164f583398151915260448201527f3a2070656e64696e6753746174654e756d206d757374206265206c657373206f60648201527f7220657175616c207468616e206c61737450656e64696e675374617465000000608482015260a4015b60405180910390fd5b6001600160401b038089166000908152607160205260409020600281015481549094509091898116600160401b9092041614610b785760405162461bcd60e51b815260206004820152605160248201526000805160206164f583398151915260448201527f3a20696e69744e756d4261746368206d757374206d617463682074686520706560648201527f6e64696e67207374617465206261746368000000000000000000000000000000608482015260a401610ab7565b50610cba565b6001600160401b0387166000908152606d6020526040902054610c085760405162461bcd60e51b815260206004820152604860248201526000805160206164f583398151915260448201527f3a20696e69744e756d426174636820737461746520726f6f7420646f6573206e6064820152671bdd08195e1a5cdd60c21b608482015260a401610ab7565b6001600160401b038088166000818152606d602052604090205493509082161015610cba5760405162461bcd60e51b815260206004820152606260248201526000805160206164f583398151915260448201527f3a20696e69744e756d4261746368206d757374206265206c657373206f72206560648201527f7175616c207468616e2063757272656e744c61737456657269666965644261746084820152610c6d60f31b60a482015260c401610ab7565b806001600160401b0316866001600160401b031611610d555760405162461bcd60e51b815260206004820152605c60248201526000805160206164f583398151915260448201527f3a2066696e616c4e65774261746368206d75737420626520626967676572207460648201527f68616e2063757272656e744c6173745665726966696564426174636800000000608482015260a401610ab7565b6000610d648888888689611369565b905060007f30644e72e131a029b85045b68181585d2833e84879b9709143e1f593f0000001600283604051610d999190616140565b602060405180830381855afa158015610db6573d6000803e3d6000fd5b5050506040513d601f19601f82011682018060405250810190610dd9919061615c565b610de3919061618b565b9a9950505050505050505050565b606f8054610dfe9061619f565b80601f0160208091040260200160405190810160405280929190818152602001828054610e2a9061619f565b8015610e775780601f10610e4c57610100808354040283529160200191610e77565b820191906000526020600020905b815481529060010190602001808311610e5a57829003601f168201915b505050505081565b610e876144ca565b6000806001600160401b038a1615610ffe576072546001600160401b03908116908b161115610f325760405162461bcd60e51b815260206004820152605d60248201526000805160206164f583398151915260448201527f3a2070656e64696e6753746174654e756d206d757374206265206c657373206f60648201527f7220657175616c207468616e206c61737450656e64696e675374617465000000608482015260a401610ab7565b6001600160401b03808b1660009081526071602052604090206002810154815490945090918b8116600160401b9092041614610ff55760405162461bcd60e51b815260206004820152606260248201526000805160206164f583398151915260448201527f3a20696e69744e756d4261746368206d757374206265206c657373206f72206560648201527f7175616c207468616e2063757272656e744c61737456657269666965644261746084820152610c6d60f31b60a482015260c401610ab7565b8991505061113d565b6001600160401b0389166000908152606d602052604090205491508161108b5760405162461bcd60e51b815260206004820152604860248201526000805160206164f583398151915260448201527f3a20696e69744e756d426174636820737461746520726f6f7420646f6573206e6064820152671bdd08195e1a5cdd60c21b608482015260a401610ab7565b6069546001600160401b03908116908a16111561112f5760405162461bcd60e51b815260206004820152606260248201526000805160206164f583398151915260448201527f3a20696e69744e756d4261746368206d757374206265206c657373206f72206560648201527f7175616c207468616e2063757272656e744c61737456657269666965644261746084820152610c6d60f31b60a482015260c401610ab7565b506069546001600160401b03165b806001600160401b0316886001600160401b0316116111d85760405162461bcd60e51b815260206004820152605c60248201526000805160206164f583398151915260448201527f3a2066696e616c4e65774261746368206d75737420626520626967676572207460648201527f68616e2063757272656e744c6173745665726966696564426174636800000000608482015260a401610ab7565b60006111e78a8a8a868b611369565b905060007f30644e72e131a029b85045b68181585d2833e84879b9709143e1f593f000000160028360405161121c9190616140565b602060405180830381855afa158015611239573d6000803e3d6000fd5b5050506040513d601f19601f8201168201806040525081019061125c919061615c565b611266919061618b565b6069805467ffffffffffffffff19166001600160401b038d81169182179092556000908152606d602052604090208a905560725491925016156112bd57607280546fffffffffffffffffffffffffffffffff191690555b606c546040516333d6247d60e01b8152600481018b90526001600160a01b03909116906333d6247d90602401600060405180830381600087803b15801561130357600080fd5b505af1158015611317573d6000803e3d6000fd5b50506040518a81523392506001600160401b038d1691507f0c0ce073a7d7b5850c04ccc4b20ee7d3179d5f57d0ac44399565792c0f72fce79060200160405180910390a3505050505050505050505050565b6001600160401b0380861660008181526067602052604080822054938816825290205460609291158061139b57508115155b61141b5760405162461bcd60e51b815260206004820152604560248201527f50726f6f664f66456666696369656e63793a3a676574496e707574536e61726b60448201527f42797465733a206f6c64416363496e7075744861736820646f6573206e6f7420606482015264195e1a5cdd60da1b608482015260a401610ab7565b8061149c5760405162461bcd60e51b815260206004820152604560248201527f50726f6f664f66456666696369656e63793a3a676574496e707574536e61726b60448201527f42797465733a206e6577416363496e7075744861736820646f6573206e6f7420606482015264195e1a5cdd60da1b608482015260a401610ab7565b606c54604080516bffffffffffffffffffffffff193360601b166020820152603481019790975260548701939093526001600160c01b031960c0998a1b81166074880152600160a81b909104891b8116607c870152608486019490945260a485015260c4840194909452509290931b90911660e4830152805180830360cc01815260ec909201905290565b6072546001600160401b038281166000908152607160205260408120549092429261155d92600160801b909204811691166161ef565b6001600160401b0316111592915050565b6073546001600160a01b031633146115d95760405162461bcd60e51b815260206004820152602860248201527f50726f6f664f66456666696369656e63793a3a6f6e6c7941646d696e3a206f6e604482015267363c9030b236b4b760c11b6064820152608401610ab7565b62093a806001600160401b038216111561166e5760405162461bcd60e51b815260206004820152604a60248201527f50726f6f664f66456666696369656e63793a3a73657450656e64696e6753746160448201527f746554696d656f75743a206578636565642068616c74206167677265676174696064820152691bdb881d1a5b595bdd5d60b21b608482015260a401610ab7565b60655460ff16611729576072546001600160401b03600160c01b9091048116908216106117295760405162461bcd60e51b815260206004820152604960248201527f50726f6f664f66456666696369656e63793a3a7365745472757374656441676760448201527f72656761746f7254696d656f75743a206e65772074696d656f7574206d75737460648201527f206265206c6f7765720000000000000000000000000000000000000000000000608482015260a401610ab7565b6072805477ffffffffffffffffffffffffffffffffffffffffffffffff16600160c01b6001600160401b038481168202929092179283905560405192041681527f1f4fa24c2e4bad19a7f3ec5c5485f70d46c798461c2e684f55bbd0fc661373a1906020015b60405180910390a150565b60655460ff161561181e5760405162461bcd60e51b815260206004820152604260248201527f456d657267656e63794d616e616765723a3a69664e6f74456d657267656e637960448201527f53746174653a206f6e6c79206966206e6f7420656d657267656e637920737461606482015261746560f01b608482015260a401610ab7565b606954600160401b90046001600160a01b031633146118a55760405162461bcd60e51b815260206004820152603f60248201527f50726f6f664f66456666696369656e63793a3a6f6e6c7954727573746564536560448201527f7175656e6365723a206f6e6c7920747275737465642073657175656e636572006064820152608401610ab7565b8051806119255760405162461bcd60e51b815260206004820152604260248201527f50726f6f664f66456666696369656e63793a3a73657175656e6365426174636860448201527f65733a204174206c65617374206d7573742073657175656e63652031206261746064820152610c6d60f31b608482015260a401610ab7565b6103e881106119945760405162461bcd60e51b815260206004820152604160248201526000805160206164f583398151915260448201527f3a2063616e6e6f74207665726966792074686174206d616e79206261746368656064820152607360f81b608482015260a401610ab7565b6068546001600160401b03600160401b82048116600081815260676020526040812054838516949293600160801b90930490921691905b85811015611ee35760008782815181106119e7576119e761621a565b60200260200101519050600081606001516001600160401b03161115611bc95783611a1181616230565b945050600081600001518051906020012082602001518360600151604051602001611a5c93929190928352602083019190915260c01b6001600160c01b031916604082015260480190565b60408051601f1981840301815291815281516020928301206001600160401b038816600090815260669093529120549091508114611b0d5760405162461bcd60e51b815260206004820152604260248201527f50726f6f664f66456666696369656e63793a3a73657175656e6365426174636860448201527f65733a20466f7263656420626174636865732064617461206d757374206d61746064820152610c6d60f31b608482015260a401610ab7565b81606001516001600160401b031682604001516001600160401b03161015611bc35760405162461bcd60e51b815260206004820152605d60248201527f50726f6f664f66456666696369656e63793a3a73657175656e6365426174636860448201527f65733a20466f7263656420626174636865732074696d657374616d70206d757360648201527f7420626520626967676572206f7220657175616c207468616e206d696e000000608482015260a401610ab7565b50611d7c565b60208101511580611c6b5750606c5460208201516040517f257b36320000000000000000000000000000000000000000000000000000000081526001600160a01b039092169163257b363291611c259160040190815260200190565b6020604051808303816000875af1158015611c44573d6000803e3d6000fd5b505050506040513d601f19601f82011682018060405250810190611c68919061615c565b15155b611cdd5760405162461bcd60e51b815260206004820152603f60248201527f50726f6f664f66456666696369656e63793a3a73657175656e6365426174636860448201527f65733a20476c6f62616c206578697420726f6f74206d757374206578697374006064820152608401610ab7565b80515161ea6011611d7c5760405162461bcd60e51b815260206004820152604a60248201527f50726f6f664f664566666963696550656e64696e67537461746563793a3a736560448201527f7175656e6365426174636865733a205472616e73616374696f6e73206279746560648201527f73206f766572666c6f7700000000000000000000000000000000000000000000608482015260a401610ab7565b856001600160401b031681604001516001600160401b031610158015611daf57504281604001516001600160401b031611155b611e475760405162461bcd60e51b815260206004820152604260248201527f50726f6f664f66456666696369656e63793a3a73657175656e6365426174636860448201527f65733a2054696d657374616d70206d75737420626520696e736964652072616e60648201527f6765000000000000000000000000000000000000000000000000000000000000608482015260a401610ab7565b805180516020918201208183015160408085015181519485018890529084019290925260608084019190915260c09190911b6001600160c01b031916608083015233901b6bffffffffffffffffffffffff19166088820152609c016040516020818303038152906040528051906020012092508480611ec590616230565b95505080604001519550508080611edb90616256565b9150506119cb565b506068546001600160401b03600160c01b90910481169083161115611f705760405162461bcd60e51b815260206004820152603a60248201527f50726f6f664f66456666696369656e63793a3a73657175656e6365426174636860448201527f65733a20466f7263652062617463686573206f766572666c6f770000000000006064820152608401610ab7565b606854600090611f9090600160801b90046001600160401b03168461626f565b611fa3906001600160401b031687616297565b606880546001600160401b03868116600160801b0267ffffffffffffffff60801b19898316600160401b81026fffffffffffffffffffffffffffffffff19909516848d1617949094171617909255604080518082018252868152428416602080830191825260009485526067905291909220915182555160019190910180549190921667ffffffffffffffff1991909116179055905061206a333083612047612e90565b61205191906162ae565b60655461010090046001600160a01b0316929190614524565b6120726145d5565b606854604051600160401b9091046001600160401b0316907f303446e6a8cb73c83dff421c0b1d5e5ce0719dab1bff13660fc254e58cc17fce90600090a250505050505050565b60655460ff161561213d5760405162461bcd60e51b815260206004820152604260248201527f456d657267656e63794d616e616765723a3a69664e6f74456d657267656e637960448201527f53746174653a206f6e6c79206966206e6f7420656d657267656e637920737461606482015261746560f01b608482015260a401610ab7565b6072546001600160401b03878116600090815260676020526040902060010154429261217492600160c01b909104811691166161ef565b6001600160401b031611156122055760405162461bcd60e51b815260206004820152604860248201526000805160206164f583398151915260448201527f3a20747275737465642061676772656761746f722074696d656f7574206e6f7460648201527f2065787069726564000000000000000000000000000000000000000000000000608482015260a401610ab7565b6103e8612212888861626f565b6001600160401b0316106122865760405162461bcd60e51b815260206004820152604160248201526000805160206164f583398151915260448201527f3a2063616e6e6f74207665726966792074686174206d616e79206261746368656064820152607360f81b608482015260a401610ab7565b6122968888888888888888614675565b61229e6145d5565b607280546001600160401b03169060006122b783616230565b82546001600160401b039182166101009390930a92830292820219169190911790915560408051608081018252428316815289831660208083018281528385018c8152606085018c8152607254881660009081526071909452928690209451855492518816600160401b026fffffffffffffffffffffffffffffffff19909316971696909617178355935160018301559251600290910155513392507f9c72852172521097ba7e1482e6b44b351323df0155f97f4ea18fcec28e1f5966906123829088815260200190565b60405180910390a35050505050505050565b6001600160401b038116158015906123c157506072546001600160401b03600160401b9091048116908216115b80156123dc57506072546001600160401b0390811690821611155b6124745760405162461bcd60e51b815260206004820152604860248201527f50726f6f664f66456666696369656e63793a3a636f6e736f6c6964617465506560448201527f6e64696e6753746174653a2070656e64696e6753746174654e756d206d75737460648201527f20696e76616c6964000000000000000000000000000000000000000000000000608482015260a401610ab7565b606a546001600160a01b031633146125275761248f81611527565b6125275760405162461bcd60e51b815260206004820152605960248201527f50726f6f664f66456666696369656e63793a3a636f6e736f6c6964617465506560448201527f6e64696e6753746174653a2070656e64696e67207374617465206973206e6f7460648201527f20726561647920746f20626520636f6e736f6c69646174656400000000000000608482015260a401610ab7565b6001600160401b038181166000818152607160209081526040808320805460698054600160401b9283900490981667ffffffffffffffff19909816881790556002820154878652606d9094529382902092909255607280546fffffffffffffffff000000000000000019169390940292909217909255606c54600183015491516333d6247d60e01b815260048101929092529192916001600160a01b0316906333d6247d90602401600060405180830381600087803b1580156125e957600080fd5b505af11580156125fd573d6000803e3d6000fd5b50505050336001600160a01b0316816001600160401b03167f01f7d32e3b3278bace940a581067c87090c1aa09809730dd4ca002320c3a3cfa846002015460405161264a91815260200190565b60405180910390a3505050565b606e8054610dfe9061619f565b61266c6144ca565b606b80546001600160a01b0319166001600160a01b0392909216919091179055565b600054610100900460ff16158080156126ae5750600054600160ff909116105b806126c85750303b1580156126c8575060005460ff166001145b61273a5760405162461bcd60e51b815260206004820152602e60248201527f496e697469616c697a61626c653a20636f6e747261637420697320616c72656160448201527f647920696e697469616c697a65640000000000000000000000000000000000006064820152608401610ab7565b6000805460ff19166001179055801561275d576000805461ff0019166101001790555b606c80546001600160a01b03199081166001600160a01b038c811691909117909255606580547fffffffffffffffffffffff0000000000000000000000000000000000000000ff166101008c851602179055606b805482168a8416179055607080549091169188169190911790556127d86020860186615d23565b607380546001600160a01b0319166001600160a01b03929092169190911790556128086060860160408701615d23565b606980546001600160a01b0392909216600160401b027fffffffff0000000000000000000000000000000000000000ffffffffffffffff90921691909117905561285860c0860160a08701615d23565b606a80546001600160a01b0319166001600160a01b039290921691909117905560008052606d6020527fda90043ba5b4096ba14704bc227ab0d3167da15b887e62ab2e76e37daa7113568490556128b560e0860160c08701615abb565b607280546001600160401b0392909216600160c01b0277ffffffffffffffffffffffffffffffffffffffffffffffff9092169190911790556128fd6040860160208701615abb565b606c80546001600160401b0392909216600160a81b027fffffff0000000000000000ffffffffffffffffffffffffffffffffffffffffff90921691909117905561294d6080860160608701615abb565b607280546001600160401b0392909216600160801b0267ffffffffffffffff60801b1990921691909117905561298960a0860160808701615f51565b606c8054911515600160a01b0260ff60a01b19909216919091179055606e6129b1848261631b565b50606f6129be838261631b565b506129c7614b79565b8015612a0d576000805461ff0019169055604051600181527f7f26b83ff96e1f2b6a682f133852f6798a09c465da95921460cefb38474024989060200160405180910390a15b505050505050505050565b6073546001600160a01b03163314612a835760405162461bcd60e51b815260206004820152602860248201527f50726f6f664f66456666696369656e63793a3a6f6e6c7941646d696e3a206f6e604482015267363c9030b236b4b760c11b6064820152608401610ab7565b606980547fffffffff0000000000000000000000000000000000000000ffffffffffffffff16600160401b6001600160a01b038416908102919091179091556040519081527ff54144f9611984021529f814a1cb6a41e22c58351510a0d9f7e822618abb9cc09060200161178f565b6073546001600160a01b03163314612b5d5760405162461bcd60e51b815260206004820152602860248201527f50726f6f664f66456666696369656e63793a3a6f6e6c7941646d696e3a206f6e604482015267363c9030b236b4b760c11b6064820152608401610ab7565b607380546001600160a01b0319166001600160a01b0383169081179091556040519081527f5a272403b402d892977df56625f4164ccaf70ca3863991c43ecfe76a6905b0a19060200161178f565b612bb36144ca565b612bbd6000614bfb565b565b6033546001600160a01b03163314612d95576072546000906001600160401b031615612c1057506072546001600160401b03908116600090815260716020526040902054600160401b900416612c1e565b506069546001600160401b03165b80826001600160401b031611612cc25760405162461bcd60e51b815260206004820152604160248201527f50726f6f664f66456666696369656e63793a3a6163746976617465456d65726760448201527f656e637953746174653a20426174636820616c7265616479207665726966696560648201527f6400000000000000000000000000000000000000000000000000000000000000608482015260a401610ab7565b6001600160401b038083166000908152606760205260409020600101544291612cf09162093a8091166161ef565b6001600160401b03161115612d935760405162461bcd60e51b815260206004820152605260248201527f50726f6f664f66456666696369656e63793a3a6163746976617465456d65726760448201527f656e637953746174653a206167677265676174696f6e2068616c742074696d6560648201527f6f7574206973206e6f7420657870697265640000000000000000000000000000608482015260a401610ab7565b505b612d9d614c4d565b50565b60655460ff1615612e245760405162461bcd60e51b815260206004820152604260248201527f456d657267656e63794d616e616765723a3a69664e6f74456d657267656e637960448201527f53746174653a206f6e6c79206966206e6f7420656d657267656e637920737461606482015261746560f01b608482015260a401610ab7565b612e35898989898989898989614cbd565b6001600160401b0386166000908152606d60209081526040918290205482519081529081018690527f1f44c21118c4603cfb4e1b621dbcfa2b73efcececee2b99b620b2953d33a7010910160405180910390a1612a0d614c4d565b6068546000906001600160401b03600160801b8204811691612ebc91600160c01b9091041660016161ef565b612ec6919061626f565b612ee1906001600160401b0316670de0b6b3a76400006162ae565b905090565b6073546001600160a01b03163314612f515760405162461bcd60e51b815260206004820152602860248201527f50726f6f664f66456666696369656e63793a3a6f6e6c7941646d696e3a206f6e604482015267363c9030b236b4b760c11b6064820152608401610ab7565b606c8054821515600160a01b0260ff60a01b199091161790556040517fbacda50a4a8575be1d91a7ebe29ee45056f3a94f12a2281eb6b43afa33bcefe69061178f90831515815260200190565b612fa66144ca565b6069805467ffffffffffffffff19166001600160401b0392909216919091179055565b6065546040517f70a0823100000000000000000000000000000000000000000000000000000000815230600482015260009182916101009091046001600160a01b0316906370a0823190602401602060405180830381865afa158015613033573d6000803e3d6000fd5b505050506040513d601f19601f82011682018060405250810190613057919061615c565b9050600061306361338d565b6068546001600160401b03600160401b820481169161309391600160801b8204811691600160c01b90041661626f565b61309d91906161ef565b6130a7919061626f565b6001600160401b031690506130bc81836163da565b9250505090565b6130cb6144ca565b606880546001600160401b03909216600160401b026fffffffffffffffff000000000000000019909216919091179055565b6073546001600160a01b031633146131685760405162461bcd60e51b815260206004820152602860248201527f50726f6f664f66456666696369656e63793a3a6f6e6c7941646d696e3a206f6e604482015267363c9030b236b4b760c11b6064820152608401610ab7565b60725462093a80600160801b9091046001600160401b031611156132075760405162461bcd60e51b815260206004820152604a60248201527f50726f6f664f66456666696369656e63793a3a73657450656e64696e6753746160448201527f746554696d656f75743a206578636565642068616c74206167677265676174696064820152691bdb881d1a5b595bdd5d60b21b608482015260a401610ab7565b60655460ff166132c3576072546001600160401b03600160801b9091048116908216106132c35760405162461bcd60e51b8152602060048201526044602482018190527f50726f6f664f66456666696369656e63793a3a73657450656e64696e67537461908201527f746554696d656f75743a206e65772074696d656f7574206d757374206265206c60648201527f6f77657200000000000000000000000000000000000000000000000000000000608482015260a401610ab7565b6072805467ffffffffffffffff60801b1916600160801b6001600160401b038416908102919091179091556040519081527fc4121f4e22c69632ebb7cf1f462be0511dc034f999b52013eddfb24aab765c759060200161178f565b6133266144ca565b6040805180820182529283526001600160401b0391821660208085019182529483166000908152606790955293209151825591516001909101805467ffffffffffffffff191691909216179055565b61337d6144ca565b606f613389828261631b565b5050565b6072546000906001600160401b0316156133ca57506072546001600160401b03908116600090815260716020526040902054600160401b90041690565b506069546001600160401b031690565b6073546001600160a01b031633146134455760405162461bcd60e51b815260206004820152602860248201527f50726f6f664f66456666696369656e63793a3a6f6e6c7941646d696e3a206f6e604482015267363c9030b236b4b760c11b6064820152608401610ab7565b606e613451828261631b565b507f6b8f723a4c7a5335cafae8a598a0aa0301be1387c037dccc085b62add6448b208160405161178f919061599f565b60655460ff16156135055760405162461bcd60e51b815260206004820152604260248201527f456d657267656e63794d616e616765723a3a69664e6f74456d657267656e637960448201527f53746174653a206f6e6c79206966206e6f7420656d657267656e637920737461606482015261746560f01b608482015260a401610ab7565b606c54600160a01b900460ff16151560011461359a5760405162461bcd60e51b815260206004820152604860248201527f50726f6f664f66456666696369656e63793a3a6973466f72636542617463684160448201527f6c6c6f7765643a206f6e6c7920696620666f72636520626174636820697320616064820152677661696c61626c6560c01b608482015260a401610ab7565b80518061361a5760405162461bcd60e51b815260206004820152604260248201527f50726f6f664f66456666696369656e63793a3a73657175656e6365466f72636560448201527f42617463683a204d75737420666f726365206174206c656173742031206261746064820152610c6d60f31b608482015260a401610ab7565b6103e881106136895760405162461bcd60e51b815260206004820152604160248201526000805160206164f583398151915260448201527f3a2063616e6e6f74207665726966792074686174206d616e79206261746368656064820152607360f81b608482015260a401610ab7565b6068546001600160401b03600160c01b82048116916136b1918491600160801b9004166163ee565b11156137255760405162461bcd60e51b815260206004820152603a60248201527f50726f6f664f66456666696369656e63793a3a73657175656e6365466f72636560448201527f42617463683a20466f72636520626174636820696e76616c69640000000000006064820152608401610ab7565b6068546001600160401b03600160401b820481166000818152606760205260408120549193600160801b9004909216915b848110156139e65760008682815181106137725761377261621a565b60200260200101519050838061378790616230565b825180516020918201208185015160408087015181519485019390935283015260c01b6001600160c01b03191660608201529095506000915060680160408051601f1981840301815291815281516020928301206001600160401b03881660009081526066909352912054909150811461388f5760405162461bcd60e51b815260206004820152604760248201527f50726f6f664f66456666696369656e63793a3a73657175656e6365466f72636560448201527f426174636865733a20466f7263656420626174636865732064617461206d757360648201527f74206d6174636800000000000000000000000000000000000000000000000000608482015260a401610ab7565b61389a600188616297565b8303613957574262093a8083604001516138b491906161ef565b6001600160401b031611156139575760405162461bcd60e51b815260206004820152604c60248201527f50726f6f664f66456666696369656e63793a3a73657175656e6365466f72636560448201527f42617463683a20466f72636564206261746368206973206e6f7420696e20746960648201527f6d656f757420706572696f640000000000000000000000000000000000000000608482015260a401610ab7565b8151805160209182012081840151604080519384018890528301919091526060808301919091524260c01b6001600160c01b031916608083015233901b6bffffffffffffffffffffffff19166088820152609c0160405160208183030381529060405280519060200120935085806139ce90616230565b965050505080806139de90616256565b915050613756565b5060688054426001600160401b039081166fffffffffffffffffffffffffffffffff199092168217600160401b8783168181029290921767ffffffffffffffff60801b1916600160801b888516021785556040805180820182528781526020808201968752600094855260679052818420905181559451600195909501805467ffffffffffffffff191695851695909517909455935492519390920416917f648a61dd2438f072f5a1960939abd30f37aea80d2e94c9792ad142d3e0a490a49190a25050505050565b60655460ff16613b275760405162461bcd60e51b815260206004820152603b60248201527f456d657267656e63794d616e616765723a3a6966456d657267656e637953746160448201527f74653a206f6e6c7920696620656d657267656e637920737461746500000000006064820152608401610ab7565b6073546001600160a01b03163314613b925760405162461bcd60e51b815260206004820152602860248201527f50726f6f664f66456666696369656e63793a3a6f6e6c7941646d696e3a206f6e604482015267363c9030b236b4b760c11b6064820152608401610ab7565b607060009054906101000a90046001600160a01b03166001600160a01b031663dbc169766040518163ffffffff1660e01b8152600401600060405180830381600087803b158015613be257600080fd5b505af1158015613bf6573d6000803e3d6000fd5b50505050612bbd615493565b606a546001600160a01b03163314613c8c5760405162461bcd60e51b815260206004820152604160248201527f50726f6f664f66456666696369656e63793a3a6f6e6c7954727573746564416760448201527f6772656761746f723a206f6e6c7920747275737465642041676772656761746f6064820152603960f91b608482015260a401610ab7565b613c9d898989898989898989614cbd565b6069805467ffffffffffffffff19166001600160401b038881169182179092556000908152606d602052604090208590556072541615613cf157607280546fffffffffffffffffffffffffffffffff191690555b606c546040516333d6247d60e01b8152600481018790526001600160a01b03909116906333d6247d90602401600060405180830381600087803b158015613d3757600080fd5b505af1158015613d4b573d6000803e3d6000fd5b50506040518681523392506001600160401b03891691507fcc1b5520188bf1dd3e63f98164b577c4d75c11a619ddea692112f0d1aec4cf729060200160405180910390a3505050505050505050565b60655460ff1615613e1e5760405162461bcd60e51b815260206004820152604260248201527f456d657267656e63794d616e616765723a3a69664e6f74456d657267656e637960448201527f53746174653a206f6e6c79206966206e6f7420656d657267656e637920737461606482015261746560f01b608482015260a401610ab7565b606c54600160a01b900460ff161515600114613eb35760405162461bcd60e51b815260206004820152604860248201527f50726f6f664f66456666696369656e63793a3a6973466f72636542617463684160448201527f6c6c6f7765643a206f6e6c7920696620666f72636520626174636820697320616064820152677661696c61626c6560c01b608482015260a401610ab7565b6000613ebd612e90565b905081811115613f355760405162461bcd60e51b815260206004820152602f60248201527f50726f6f664f66456666696369656e63793a3a666f72636542617463683a206e60448201527f6f7420656e6f756768206d6174696300000000000000000000000000000000006064820152608401610ab7565b61ea60835110613fad5760405162461bcd60e51b815260206004820152603a60248201527f50726f6f664f66456666696369656e63793a3a666f72636542617463683a205460448201527f72616e73616374696f6e73206279746573206f766572666c6f770000000000006064820152608401610ab7565b606554613fca9061010090046001600160a01b0316333084614524565b606c54604080517f3ed691ef00000000000000000000000000000000000000000000000000000000815290516000926001600160a01b031691633ed691ef9160048083019260209291908290030181865afa15801561402d573d6000803e3d6000fd5b505050506040513d601f19601f82011682018060405250810190614051919061615c565b60688054919250600160c01b9091046001600160401b031690601861407583616230565b91906101000a8154816001600160401b0302191690836001600160401b0316021790555050838051906020012081426040516020016140d493929190928352602083019190915260c01b6001600160c01b031916604082015260480190565b60408051808303601f190181529181528151602092830120606854600160c01b90046001600160401b03166000908152606690935291205532330361417857606854604080518381523360208201526060918101829052600091810191909152600160c01b9091046001600160401b0316907ff94bb37db835f1ab585ee00041849a09b12cd081d77fa15ca070757619cbc9319060800160405180910390a26141d3565b606860189054906101000a90046001600160401b03166001600160401b03167ff94bb37db835f1ab585ee00041849a09b12cd081d77fa15ca070757619cbc9318233876040516141ca93929190616406565b60405180910390a25b50505050565b606a546001600160a01b031633146142635760405162461bcd60e51b815260206004820152604160248201527f50726f6f664f66456666696369656e63793a3a6f6e6c7954727573746564416760448201527f6772656761746f723a206f6e6c7920747275737465642041676772656761746f6064820152603960f91b608482015260a401610ab7565b6142738888888888888888614675565b6069805467ffffffffffffffff19166001600160401b038881169182179092556000908152606d6020526040902085905560725416156142c757607280546fffffffffffffffffffffffffffffffff191690555b606c546040516333d6247d60e01b8152600481018790526001600160a01b03909116906333d6247d90602401600060405180830381600087803b15801561430d57600080fd5b505af1158015614321573d6000803e3d6000fd5b50506040518681523392506001600160401b03891691507f0c0ce073a7d7b5850c04ccc4b20ee7d3179d5f57d0ac44399565792c0f72fce790602001612382565b6073546001600160a01b031633146143cd5760405162461bcd60e51b815260206004820152602860248201527f50726f6f664f66456666696369656e63793a3a6f6e6c7941646d696e3a206f6e604482015267363c9030b236b4b760c11b6064820152608401610ab7565b606a80546001600160a01b0319166001600160a01b0383169081179091556040519081527f61f8fec29495a3078e9271456f05fb0707fd4e41f7661865f80fc437d06681ca9060200161178f565b6144236144ca565b6001600160a01b03811661449f5760405162461bcd60e51b815260206004820152602660248201527f4f776e61626c653a206e6577206f776e657220697320746865207a65726f206160448201527f64647265737300000000000000000000000000000000000000000000000000006064820152608401610ab7565b612d9d81614bfb565b6144b06144ca565b6001600160401b03166000908152606d6020526040902055565b6033546001600160a01b03163314612bbd5760405162461bcd60e51b815260206004820181905260248201527f4f776e61626c653a2063616c6c6572206973206e6f7420746865206f776e65726044820152606401610ab7565b6040516001600160a01b03808516602483015283166044820152606481018290526141d39085907f23b872dd00000000000000000000000000000000000000000000000000000000906084015b60408051601f198184030181529190526020810180517bffffffffffffffffffffffffffffffffffffffffffffffffffffffff167fffffffff0000000000000000000000000000000000000000000000000000000090931692909217909152615540565b6072546001600160401b03600160401b8204811691161115612bbd5760725460009061461290600160401b90046001600160401b031660016161ef565b905061461d81611527565b15612d9d5760725460009060029061463f9084906001600160401b031661626f565b6146499190616437565b61465390836161ef565b905061465e81611527565b1561466c5761338981612394565b61338982612394565b60008061468061338d565b90506001600160401b038a16156147e8576072546001600160401b03908116908b16111561472a5760405162461bcd60e51b815260206004820152605d60248201526000805160206164f583398151915260448201527f3a2070656e64696e6753746174654e756d206d757374206265206c657373206f60648201527f7220657175616c207468616e206c61737450656e64696e675374617465000000608482015260a401610ab7565b6001600160401b03808b1660009081526071602052604090206002810154815490945090918b8116600160401b90920416146147e25760405162461bcd60e51b815260206004820152605160248201526000805160206164f583398151915260448201527f3a20696e69744e756d4261746368206d757374206d617463682074686520706560648201527f6e64696e67207374617465206261746368000000000000000000000000000000608482015260a401610ab7565b5061491c565b6001600160401b0389166000908152606d60205260409020549150816148755760405162461bcd60e51b815260206004820152604860248201526000805160206164f583398151915260448201527f3a20696e69744e756d426174636820737461746520726f6f7420646f6573206e6064820152671bdd08195e1a5cdd60c21b608482015260a401610ab7565b806001600160401b0316896001600160401b0316111561491c5760405162461bcd60e51b815260206004820152606260248201526000805160206164f583398151915260448201527f3a20696e69744e756d4261746368206d757374206265206c657373206f72206560648201527f7175616c207468616e2063757272656e744c61737456657269666965644261746084820152610c6d60f31b60a482015260c401610ab7565b806001600160401b0316886001600160401b0316116149b75760405162461bcd60e51b815260206004820152605c60248201526000805160206164f583398151915260448201527f3a2066696e616c4e65774261746368206d75737420626520626967676572207460648201527f68616e2063757272656e744c6173745665726966696564426174636800000000608482015260a401610ab7565b60006149c68a8a8a868b611369565b905060007f30644e72e131a029b85045b68181585d2833e84879b9709143e1f593f00000016002836040516149fb9190616140565b602060405180830381855afa158015614a18573d6000803e3d6000fd5b5050506040513d601f19601f82011682018060405250810190614a3b919061615c565b614a45919061618b565b606b546040805160208101825283815290516343753b4d60e01b81529293506001600160a01b03909116916343753b4d91614a89918b918b918b919060040161645d565b602060405180830381865afa158015614aa6573d6000803e3d6000fd5b505050506040513d601f19601f82011682018060405250810190614aca91906164d7565b614b2a5760405162461bcd60e51b815260206004820152602f60248201526000805160206164f583398151915260448201527f3a20494e56414c49445f50524f4f4600000000000000000000000000000000006064820152608401610ab7565b614b6b33614b38858d61626f565b6001600160401b0316614b49612fc9565b614b5391906162ae565b60655461010090046001600160a01b0316919061562a565b505050505050505050505050565b600054610100900460ff16614bf65760405162461bcd60e51b815260206004820152602b60248201527f496e697469616c697a61626c653a20636f6e7472616374206973206e6f74206960448201527f6e697469616c697a696e670000000000000000000000000000000000000000006064820152608401610ab7565b612bbd335b603380546001600160a01b038381166001600160a01b0319831681179093556040519116919082907f8be0079c531659141344cd1fd0a4f28419497f9722a3daafe3b4186f6b6457e090600090a35050565b607060009054906101000a90046001600160a01b03166001600160a01b0316632072f6c56040518163ffffffff1660e01b8152600401600060405180830381600087803b158015614c9d57600080fd5b505af1158015614cb1573d6000803e3d6000fd5b50505050612bbd615673565b60006001600160401b038a1615614e93576072546001600160401b03908116908b161115614d9f5760405162461bcd60e51b815260206004820152607160248201527f50726f6f664f66456666696369656e63793a3a70726f76654e6f6e446574657260448201527f6d696e697374696350656e64696e6753746174653a2070656e64696e6753746160648201527f74654e756d206d757374206265206c657373206f7220657175616c207468616e60848201527f206c61737450656e64696e67537461746500000000000000000000000000000060a482015260c401610ab7565b506001600160401b03808a1660009081526071602052604090206002810154815490928a8116600160401b9092041614614e8d5760405162461bcd60e51b815260206004820152606560248201527f50726f6f664f66456666696369656e63793a3a70726f76654e6f6e446574657260448201527f6d696e697374696350656e64696e6753746174653a20696e69744e756d42617460648201527f6368206d757374206d61746368207468652070656e64696e672073746174652060848201527f626174636800000000000000000000000000000000000000000000000000000060a482015260c401610ab7565b50615017565b506001600160401b0387166000908152606d602052604090205480614f465760405162461bcd60e51b815260206004820152605c60248201527f50726f6f664f66456666696369656e63793a3a70726f76654e6f6e446574657260448201527f6d696e697374696350656e64696e6753746174653a20696e69744e756d42617460648201527f636820737461746520726f6f7420646f6573206e6f7420657869737400000000608482015260a401610ab7565b6069546001600160401b0390811690891611156150175760405162461bcd60e51b815260206004820152607660248201527f50726f6f664f66456666696369656e63793a3a70726f76654e6f6e446574657260448201527f6d696e697374696350656e64696e6753746174653a20696e69744e756d42617460648201527f6368206d757374206265206c657373206f7220657175616c207468616e20637560848201527f7272656e744c617374566572696669656442617463680000000000000000000060a482015260c401610ab7565b6072546001600160401b03908116908a16118015906150475750896001600160401b0316896001600160401b0316115b801561506857506072546001600160401b03600160401b9091048116908a16115b6151265760405162461bcd60e51b815260206004820152607060248201527f50726f6f664f66456666696369656e63793a3a70726f76654e6f6e446574657260448201527f6d696e697374696350656e64696e6753746174653a2066696e616c4e6577426160648201527f746368206d75737420626520626967676572207468616e2063757272656e744c60848201527f617374566572696669656442617463680000000000000000000000000000000060a482015260c401610ab7565b6001600160401b03898116600090815260716020526040902054600160401b900481169088161461520b5760405162461bcd60e51b815260206004820152607060248201527f50726f6f664f66456666696369656e63793a3a70726f76654e6f6e446574657260448201527f6d696e697374696350656e64696e6753746174653a2066696e616c4e6577426160648201527f746368206d75737420626520626967676572207468616e2063757272656e744c60848201527f617374566572696669656442617463680000000000000000000000000000000060a482015260c401610ab7565b600061521a898989858a611369565b905060007f30644e72e131a029b85045b68181585d2833e84879b9709143e1f593f000000160028360405161524f9190616140565b602060405180830381855afa15801561526c573d6000803e3d6000fd5b5050506040513d601f19601f8201168201806040525081019061528f919061615c565b615299919061618b565b606b546040805160208101825283815290516343753b4d60e01b81529293506001600160a01b03909116916343753b4d916152dd918a918a918a919060040161645d565b602060405180830381865afa1580156152fa573d6000803e3d6000fd5b505050506040513d601f19601f8201168201806040525081019061531e91906164d7565b6153b65760405162461bcd60e51b815260206004820152604360248201527f50726f6f664f66456666696369656e63793a3a70726f76654e6f6e446574657260448201527f6d696e697374696350656e64696e6753746174653a20494e56414c49445f505260648201527f4f4f460000000000000000000000000000000000000000000000000000000000608482015260a401610ab7565b6001600160401b038b16600090815260716020526040902060020154879003614b6b5760405162461bcd60e51b815260206004820152606760248201527f50726f6f664f66456666696369656e63793a3a70726f76654e6f6e446574657260448201527f6d696e697374696350656e64696e6753746174653a2073746f72656420726f6f60648201527f74206d75737420626520646966666572656e74207468616e206e65772073746160848201527f746520726f6f740000000000000000000000000000000000000000000000000060a482015260c401610ab7565b60655460ff1661550b5760405162461bcd60e51b815260206004820152603b60248201527f456d657267656e63794d616e616765723a3a6966456d657267656e637953746160448201527f74653a206f6e6c7920696620656d657267656e637920737461746500000000006064820152608401610ab7565b6065805460ff191690556040517f1e5e34eea33501aecf2ebec9fe0e884a40804275ea7fe10b2ba084c8374308b390600090a1565b6000615595826040518060400160405280602081526020017f5361666545524332303a206c6f772d6c6576656c2063616c6c206661696c6564815250856001600160a01b031661572f9092919063ffffffff16565b80519091501561562557808060200190518101906155b391906164d7565b6156255760405162461bcd60e51b815260206004820152602a60248201527f5361666545524332303a204552433230206f7065726174696f6e20646964206e60448201527f6f742073756363656564000000000000000000000000000000000000000000006064820152608401610ab7565b505050565b6040516001600160a01b0383166024820152604481018290526156259084907fa9059cbb0000000000000000000000000000000000000000000000000000000090606401614571565b60655460ff16156156f75760405162461bcd60e51b815260206004820152604260248201527f456d657267656e63794d616e616765723a3a69664e6f74456d657267656e637960448201527f53746174653a206f6e6c79206966206e6f7420656d657267656e637920737461606482015261746560f01b608482015260a401610ab7565b6065805460ff191660011790556040517f2261efe5aef6fedc1fd1550b25facc9181745623049c7901287030b9ad1a549790600090a1565b606061573e8484600085615746565b949350505050565b6060824710156157be5760405162461bcd60e51b815260206004820152602660248201527f416464726573733a20696e73756666696369656e742062616c616e636520666f60448201527f722063616c6c00000000000000000000000000000000000000000000000000006064820152608401610ab7565b600080866001600160a01b031685876040516157da9190616140565b60006040518083038185875af1925050503d8060008114615817576040519150601f19603f3d011682016040523d82523d6000602084013e61581c565b606091505b509150915061582d87838387615838565b979650505050505050565b606083156158a75782516000036158a0576001600160a01b0385163b6158a05760405162461bcd60e51b815260206004820152601d60248201527f416464726573733a2063616c6c20746f206e6f6e2d636f6e74726163740000006044820152606401610ab7565b508161573e565b61573e83838151156158bc5781518083602001fd5b8060405162461bcd60e51b8152600401610ab7919061599f565b80356001600160401b03811681146158ed57600080fd5b919050565b600080600080600060a0868803121561590a57600080fd5b615913866158d6565b9450615921602087016158d6565b935061592f604087016158d6565b94979396509394606081013594506080013592915050565b60005b8381101561596257818101518382015260200161594a565b838111156141d35750506000910152565b6000815180845261598b816020860160208601615947565b601f01601f19169290920160200192915050565b6020815260006159b26020830184615973565b9392505050565b80604081018310156159ca57600080fd5b92915050565b80608081018310156159ca57600080fd5b6000806000806000806000806101a0898b0312156159fe57600080fd5b615a07896158d6565b9750615a1560208a016158d6565b9650615a2360408a016158d6565b95506060890135945060808901359350615a408a60a08b016159b9565b9250615a4f8a60e08b016159d0565b9150615a5f8a6101608b016159b9565b90509295985092959890939650565b600080600080600060a08688031215615a8657600080fd5b615a8f866158d6565b9450615a9d602087016158d6565b94979496505050506040830135926060810135926080909101359150565b600060208284031215615acd57600080fd5b6159b2826158d6565b634e487b7160e01b600052604160045260246000fd5b604051608081016001600160401b0381118282101715615b0e57615b0e615ad6565b60405290565b604051606081016001600160401b0381118282101715615b0e57615b0e615ad6565b604051601f8201601f191681016001600160401b0381118282101715615b5e57615b5e615ad6565b604052919050565b60006001600160401b03821115615b7f57615b7f615ad6565b5060051b60200190565b600082601f830112615b9a57600080fd5b81356001600160401b03811115615bb357615bb3615ad6565b615bc6601f8201601f1916602001615b36565b818152846020838601011115615bdb57600080fd5b816020850160208301376000918101602001919091529392505050565b60006020808385031215615c0b57600080fd5b82356001600160401b0380821115615c2257600080fd5b818501915085601f830112615c3657600080fd5b8135615c49615c4482615b66565b615b36565b81815260059190911b83018401908481019088831115615c6857600080fd5b8585015b83811015615d0157803585811115615c845760008081fd5b86016080818c03601f1901811315615c9c5760008081fd5b615ca4615aec565b8983013588811115615cb65760008081fd5b615cc48e8c83870101615b89565b8252506040808401358b8301526060615cde8186016158d6565b82840152615ced8486016158d6565b908301525085525050918601918601615c6c565b5098975050505050505050565b6001600160a01b0381168114612d9d57600080fd5b600060208284031215615d3557600080fd5b81356159b281615d0e565b600080600080600060a08688031215615d5857600080fd5b8535945060208601356001600160401b03811115615d7557600080fd5b615d8188828901615b89565b94505060408601359250615d97606087016158d6565b91506080860135615da781615d0e565b809150509295509295909350565b600080600080600080600080888a036101c0811215615dd357600080fd5b8935615dde81615d0e565b985060208a0135615dee81615d0e565b975060408a0135615dfe81615d0e565b965060608a0135615e0e81615d0e565b955060e0607f1982011215615e2257600080fd5b5060808901935061016089013592506101808901356001600160401b0380821115615e4c57600080fd5b615e588c838d01615b89565b93506101a08b0135915080821115615e6f57600080fd5b50615e7c8b828c01615b89565b9150509295985092959890939650565b60008060008060008060008060006101c08a8c031215615eab57600080fd5b615eb48a6158d6565b9850615ec260208b016158d6565b9750615ed060408b016158d6565b9650615ede60608b016158d6565b955060808a0135945060a08a01359350615efb8b60c08c016159b9565b9250615f0b8b6101008c016159d0565b9150615f1b8b6101808c016159b9565b90509295985092959850929598565b600060208284031215615f3c57600080fd5b5035919050565b8015158114612d9d57600080fd5b600060208284031215615f6357600080fd5b81356159b281615f43565b600080600060608486031215615f8357600080fd5b615f8c846158d6565b925060208401359150615fa1604085016158d6565b90509250925092565b600060208284031215615fbc57600080fd5b81356001600160401b03811115615fd257600080fd5b61573e84828501615b89565b60006020808385031215615ff157600080fd5b82356001600160401b038082111561600857600080fd5b818501915085601f83011261601c57600080fd5b813561602a615c4482615b66565b81815260059190911b8301840190848101908883111561604957600080fd5b8585015b83811015615d01578035858111156160655760008081fd5b86016060818c03601f190181131561607d5760008081fd5b616085615b14565b89830135888111156160975760008081fd5b6160a58e8c83870101615b89565b8252506040808401358b8301526160bd8385016158d6565b908201528552505091860191860161604d565b600080604083850312156160e357600080fd5b82356001600160401b038111156160f957600080fd5b61610585828601615b89565b95602094909401359450505050565b6000806040838503121561612757600080fd5b82359150616137602084016158d6565b90509250929050565b60008251616152818460208701615947565b9190910192915050565b60006020828403121561616e57600080fd5b5051919050565b634e487b7160e01b600052601260045260246000fd5b60008261619a5761619a616175565b500690565b600181811c908216806161b357607f821691505b6020821081036161d357634e487b7160e01b600052602260045260246000fd5b50919050565b634e487b7160e01b600052601160045260246000fd5b60006001600160401b03808316818516808303821115616211576162116161d9565b01949350505050565b634e487b7160e01b600052603260045260246000fd5b60006001600160401b0380831681810361624c5761624c6161d9565b6001019392505050565b600060018201616268576162686161d9565b5060010190565b60006001600160401b038381169083168181101561628f5761628f6161d9565b039392505050565b6000828210156162a9576162a96161d9565b500390565b60008160001904831182151516156162c8576162c86161d9565b500290565b601f82111561562557600081815260208120601f850160051c810160208610156162f45750805b601f850160051c820191505b8181101561631357828155600101616300565b505050505050565b81516001600160401b0381111561633457616334615ad6565b61634881616342845461619f565b846162cd565b602080601f83116001811461637d57600084156163655750858301515b600019600386901b1c1916600185901b178555616313565b600085815260208120601f198616915b828110156163ac5788860151825594840194600190910190840161638d565b50858210156163ca5787850151600019600388901b60f8161c191681555b5050505050600190811b01905550565b6000826163e9576163e9616175565b500490565b60008219821115616401576164016161d9565b500190565b8381526001600160a01b038316602082015260606040820152600061642e6060830184615973565b95945050505050565b60006001600160401b038084168061645157616451616175565b92169190910492915050565b61012081016040808784376000838201818152879190815b600281101561649557848483379084018281529284019290600101616475565b5050828760c0870137610100850181815286935091505b60018110156164cb5782518252602092830192909101906001016164ac565b50505095945050505050565b6000602082840312156164e957600080fd5b81516159b281615f4356fe50726f6f664f66456666696369656e63793a3a76657269667942617463686573a2646970667358221220f8db4638112c29d4c8ea6db50c88bd7895070e87c7879bb61d871d078fdfad8b64736f6c634300080f0033",
  "linkReferences": {},
  "deployedLinkReferences": {}
}