{
  "_format": "hh-sol-artifact-1",
  "contractName": "ProofOfEfficiency",
  "sourceName": "contracts/ProofOfEfficiency.sol",
  "abi": [
    {
      "anonymous": false,
      "inputs": [
        {
          "indexed": true,
          "internalType": "uint64",
          "name": "forceBatchNum",
          "type": "uint64"
        },
        {
          "indexed": false,
          "internalType": "bytes32",
          "name": "lastGlobalExitRoot",
          "type": "bytes32"
        },
        {
          "indexed": false,
          "internalType": "address",
          "name": "sequencer",
          "type": "address"
        },
        {
          "indexed": false,
          "internalType": "bytes",
          "name": "transactions",
          "type": "bytes"
        }
      ],
      "name": "ForceBatch",
      "type": "event"
    },
    {
      "anonymous": false,
      "inputs": [
        {
          "indexed": false,
          "internalType": "uint8",
          "name": "version",
          "type": "uint8"
        }
      ],
      "name": "Initialized",
      "type": "event"
    },
    {
      "anonymous": false,
      "inputs": [
        {
          "indexed": true,
          "internalType": "address",
          "name": "previousOwner",
          "type": "address"
        },
        {
          "indexed": true,
          "internalType": "address",
          "name": "newOwner",
          "type": "address"
        }
      ],
      "name": "OwnershipTransferred",
      "type": "event"
    },
    {
      "anonymous": false,
      "inputs": [
        {
          "indexed": false,
          "internalType": "address",
          "name": "account",
          "type": "address"
        }
      ],
      "name": "Paused",
      "type": "event"
    },
    {
      "anonymous": false,
      "inputs": [
        {
          "indexed": false,
          "internalType": "bytes32",
          "name": "storedStateRoot",
          "type": "bytes32"
        },
        {
          "indexed": false,
          "internalType": "bytes32",
          "name": "provedStateRoot",
          "type": "bytes32"
        }
      ],
      "name": "ProofDifferentState",
      "type": "event"
    },
    {
      "anonymous": false,
      "inputs": [
        {
          "indexed": true,
          "internalType": "uint64",
          "name": "numBatch",
          "type": "uint64"
        }
      ],
      "name": "SequenceBatches",
      "type": "event"
    },
    {
      "anonymous": false,
      "inputs": [
        {
          "indexed": true,
          "internalType": "uint64",
          "name": "numBatch",
          "type": "uint64"
        }
      ],
      "name": "SequenceForceBatches",
      "type": "event"
    },
    {
      "anonymous": false,
      "inputs": [
        {
          "indexed": false,
          "internalType": "bool",
          "name": "newForceBatchAllowed",
          "type": "bool"
        }
      ],
      "name": "SetForceBatchAllowed",
      "type": "event"
    },
    {
      "anonymous": false,
      "inputs": [
        {
          "indexed": false,
          "internalType": "address",
          "name": "newTrustedSequencer",
          "type": "address"
        }
      ],
      "name": "SetTrustedSequencer",
      "type": "event"
    },
    {
      "anonymous": false,
      "inputs": [
        {
          "indexed": false,
          "internalType": "string",
          "name": "newTrustedSequencerURL",
          "type": "string"
        }
      ],
      "name": "SetTrustedSequencerURL",
      "type": "event"
    },
    {
      "anonymous": false,
      "inputs": [
        {
          "indexed": false,
          "internalType": "address",
          "name": "account",
          "type": "address"
        }
      ],
      "name": "Unpaused",
      "type": "event"
    },
    {
      "anonymous": false,
      "inputs": [
        {
          "indexed": true,
          "internalType": "uint64",
          "name": "numBatch",
          "type": "uint64"
        },
        {
          "indexed": false,
          "internalType": "bytes32",
          "name": "stateRoot",
          "type": "bytes32"
        },
        {
          "indexed": true,
          "internalType": "address",
          "name": "aggregator",
          "type": "address"
        }
      ],
      "name": "VerifyBatches",
      "type": "event"
    },
    {
      "inputs": [],
      "name": "FORCE_BATCH_TIMEOUT",
      "outputs": [
        {
          "internalType": "uint64",
          "name": "",
          "type": "uint64"
        }
      ],
      "stateMutability": "view",
      "type": "function"
    },
    {
      "inputs": [],
      "name": "MAX_BATCH_LENGTH",
      "outputs": [
        {
          "internalType": "uint256",
          "name": "",
          "type": "uint256"
        }
      ],
      "stateMutability": "view",
      "type": "function"
    },
    {
      "inputs": [],
      "name": "TRUSTED_SEQUENCER_FEE",
      "outputs": [
        {
          "internalType": "uint256",
          "name": "",
          "type": "uint256"
        }
      ],
      "stateMutability": "view",
      "type": "function"
    },
    {
      "inputs": [],
      "name": "activateEmergencyState",
      "outputs": [],
      "stateMutability": "nonpayable",
      "type": "function"
    },
    {
      "inputs": [
        {
          "internalType": "uint64",
          "name": "",
          "type": "uint64"
        }
      ],
      "name": "batchNumToStateRoot",
      "outputs": [
        {
          "internalType": "bytes32",
          "name": "",
          "type": "bytes32"
        }
      ],
      "stateMutability": "view",
      "type": "function"
    },
    {
      "inputs": [],
      "name": "bridgeAddress",
      "outputs": [
        {
          "internalType": "contract IBridge",
          "name": "",
          "type": "address"
        }
      ],
      "stateMutability": "view",
      "type": "function"
    },
    {
      "inputs": [],
      "name": "calculateForceProverFee",
      "outputs": [
        {
          "internalType": "uint256",
          "name": "",
          "type": "uint256"
        }
      ],
      "stateMutability": "view",
      "type": "function"
    },
    {
      "inputs": [],
      "name": "calculateRewardPerBatch",
      "outputs": [
        {
          "internalType": "uint256",
          "name": "",
          "type": "uint256"
        }
      ],
      "stateMutability": "view",
      "type": "function"
    },
    {
      "inputs": [],
      "name": "chainID",
      "outputs": [
        {
          "internalType": "uint64",
          "name": "",
          "type": "uint64"
        }
      ],
      "stateMutability": "view",
      "type": "function"
    },
    {
      "inputs": [],
      "name": "deactivateEmergencyState",
      "outputs": [],
      "stateMutability": "nonpayable",
      "type": "function"
    },
    {
      "inputs": [
        {
          "internalType": "bytes",
          "name": "transactions",
          "type": "bytes"
        },
        {
          "internalType": "uint256",
          "name": "maticAmount",
          "type": "uint256"
        }
      ],
      "name": "forceBatch",
      "outputs": [],
      "stateMutability": "nonpayable",
      "type": "function"
    },
    {
      "inputs": [],
      "name": "forceBatchAllowed",
      "outputs": [
        {
          "internalType": "bool",
          "name": "",
          "type": "bool"
        }
      ],
      "stateMutability": "view",
      "type": "function"
    },
    {
      "inputs": [
        {
          "internalType": "uint64",
          "name": "",
          "type": "uint64"
        }
      ],
      "name": "forcedBatches",
      "outputs": [
        {
          "internalType": "bytes32",
          "name": "",
          "type": "bytes32"
        }
      ],
      "stateMutability": "view",
      "type": "function"
    },
    {
      "inputs": [
        {
          "internalType": "uint64",
          "name": "initNumBatch",
          "type": "uint64"
        },
        {
          "internalType": "uint64",
          "name": "finalNewBatch",
          "type": "uint64"
        },
        {
          "internalType": "bytes32",
          "name": "newLocalExitRoot",
          "type": "bytes32"
        },
        {
          "internalType": "bytes32",
          "name": "newStateRoot",
          "type": "bytes32"
        }
      ],
      "name": "getInputSnarkBytes",
      "outputs": [
        {
          "internalType": "bytes",
          "name": "",
          "type": "bytes"
        }
      ],
      "stateMutability": "view",
      "type": "function"
    },
    {
      "inputs": [],
      "name": "globalExitRootManager",
      "outputs": [
        {
          "internalType": "contract IGlobalExitRootManager",
          "name": "",
          "type": "address"
        }
      ],
      "stateMutability": "view",
      "type": "function"
    },
    {
      "inputs": [
        {
          "internalType": "contract IGlobalExitRootManager",
          "name": "_globalExitRootManager",
          "type": "address"
        },
        {
          "internalType": "contract IERC20Upgradeable",
          "name": "_matic",
          "type": "address"
        },
        {
          "internalType": "contract IVerifierRollup",
          "name": "_rollupVerifier",
          "type": "address"
        },
        {
          "internalType": "bytes32",
          "name": "genesisRoot",
          "type": "bytes32"
        },
        {
          "internalType": "address",
          "name": "_trustedSequencer",
          "type": "address"
        },
        {
          "internalType": "bool",
          "name": "_forceBatchAllowed",
          "type": "bool"
        },
        {
          "internalType": "string",
          "name": "_trustedSequencerURL",
          "type": "string"
        },
        {
          "internalType": "uint64",
          "name": "_chainID",
          "type": "uint64"
        },
        {
          "internalType": "string",
          "name": "_networkName",
          "type": "string"
        },
        {
          "internalType": "contract IBridge",
          "name": "_bridgeAddress",
          "type": "address"
        }
      ],
      "name": "initialize",
      "outputs": [],
      "stateMutability": "nonpayable",
      "type": "function"
    },
    {
      "inputs": [],
      "name": "lastBatchSequenced",
      "outputs": [
        {
          "internalType": "uint64",
          "name": "",
          "type": "uint64"
        }
      ],
      "stateMutability": "view",
      "type": "function"
    },
    {
      "inputs": [],
      "name": "lastForceBatch",
      "outputs": [
        {
          "internalType": "uint64",
          "name": "",
          "type": "uint64"
        }
      ],
      "stateMutability": "view",
      "type": "function"
    },
    {
      "inputs": [],
      "name": "lastForceBatchSequenced",
      "outputs": [
        {
          "internalType": "uint64",
          "name": "",
          "type": "uint64"
        }
      ],
      "stateMutability": "view",
      "type": "function"
    },
    {
      "inputs": [],
      "name": "lastTimestamp",
      "outputs": [
        {
          "internalType": "uint64",
          "name": "",
          "type": "uint64"
        }
      ],
      "stateMutability": "view",
      "type": "function"
    },
    {
      "inputs": [],
      "name": "lastVerifiedBatch",
      "outputs": [
        {
          "internalType": "uint64",
          "name": "",
          "type": "uint64"
        }
      ],
      "stateMutability": "view",
      "type": "function"
    },
    {
      "inputs": [],
      "name": "matic",
      "outputs": [
        {
          "internalType": "contract IERC20Upgradeable",
          "name": "",
          "type": "address"
        }
      ],
      "stateMutability": "view",
      "type": "function"
    },
    {
      "inputs": [],
      "name": "networkName",
      "outputs": [
        {
          "internalType": "string",
          "name": "",
          "type": "string"
        }
      ],
      "stateMutability": "view",
      "type": "function"
    },
    {
      "inputs": [],
      "name": "owner",
      "outputs": [
        {
          "internalType": "address",
          "name": "",
          "type": "address"
        }
      ],
      "stateMutability": "view",
      "type": "function"
    },
    {
      "inputs": [],
      "name": "paused",
      "outputs": [
        {
          "internalType": "bool",
          "name": "",
          "type": "bool"
        }
      ],
      "stateMutability": "view",
      "type": "function"
    },
    {
      "inputs": [
        {
          "internalType": "uint64",
          "name": "initNumBatch",
          "type": "uint64"
        },
        {
          "internalType": "uint64",
          "name": "finalNewBatch",
          "type": "uint64"
        },
        {
          "internalType": "bytes32",
          "name": "newLocalExitRoot",
          "type": "bytes32"
        },
        {
          "internalType": "bytes32",
          "name": "newStateRoot",
          "type": "bytes32"
        },
        {
          "internalType": "uint256[2]",
          "name": "proofA",
          "type": "uint256[2]"
        },
        {
          "internalType": "uint256[2][2]",
          "name": "proofB",
          "type": "uint256[2][2]"
        },
        {
          "internalType": "uint256[2]",
          "name": "proofC",
          "type": "uint256[2]"
        }
      ],
      "name": "proofDifferentState",
      "outputs": [],
      "stateMutability": "nonpayable",
      "type": "function"
    },
    {
      "inputs": [],
      "name": "renounceOwnership",
      "outputs": [],
      "stateMutability": "nonpayable",
      "type": "function"
    },
    {
      "inputs": [],
      "name": "rollupVerifier",
      "outputs": [
        {
          "internalType": "contract IVerifierRollup",
          "name": "",
          "type": "address"
        }
      ],
      "stateMutability": "view",
      "type": "function"
    },
    {
      "inputs": [],
      "name": "securityCouncil",
      "outputs": [
        {
          "internalType": "address",
          "name": "",
          "type": "address"
        }
      ],
      "stateMutability": "view",
      "type": "function"
    },
    {
      "inputs": [
        {
          "components": [
            {
              "internalType": "bytes",
              "name": "transactions",
              "type": "bytes"
            },
            {
              "internalType": "bytes32",
              "name": "globalExitRoot",
              "type": "bytes32"
            },
            {
              "internalType": "uint64",
              "name": "timestamp",
              "type": "uint64"
            },
            {
              "internalType": "uint64",
              "name": "minForcedTimestamp",
              "type": "uint64"
            }
          ],
          "internalType": "struct ProofOfEfficiency.BatchData[]",
          "name": "batches",
          "type": "tuple[]"
        }
      ],
      "name": "sequenceBatches",
      "outputs": [],
      "stateMutability": "nonpayable",
      "type": "function"
    },
    {
      "inputs": [
        {
          "components": [
            {
              "internalType": "bytes",
              "name": "transactions",
              "type": "bytes"
            },
            {
              "internalType": "bytes32",
              "name": "globalExitRoot",
              "type": "bytes32"
            },
            {
              "internalType": "uint64",
              "name": "minForcedTimestamp",
              "type": "uint64"
            }
          ],
          "internalType": "struct ProofOfEfficiency.ForceBatchData[]",
          "name": "batches",
          "type": "tuple[]"
        }
      ],
      "name": "sequenceForceBatches",
      "outputs": [],
      "stateMutability": "nonpayable",
      "type": "function"
    },
    {
      "inputs": [
        {
          "internalType": "uint64",
          "name": "",
          "type": "uint64"
        }
      ],
      "name": "sequencedBatches",
      "outputs": [
        {
          "internalType": "bytes32",
          "name": "",
          "type": "bytes32"
        }
      ],
      "stateMutability": "view",
      "type": "function"
    },
    {
      "inputs": [
        {
          "internalType": "bool",
          "name": "newForceBatchAllowed",
          "type": "bool"
        }
      ],
      "name": "setForceBatchAllowed",
      "outputs": [],
      "stateMutability": "nonpayable",
      "type": "function"
    },
    {
      "inputs": [
        {
          "internalType": "address",
          "name": "newTrustedSequencer",
          "type": "address"
        }
      ],
      "name": "setTrustedSequencer",
      "outputs": [],
      "stateMutability": "nonpayable",
      "type": "function"
    },
    {
      "inputs": [
        {
          "internalType": "string",
          "name": "newTrustedSequencerURL",
          "type": "string"
        }
      ],
      "name": "setTrustedSequencerURL",
      "outputs": [],
      "stateMutability": "nonpayable",
      "type": "function"
    },
    {
      "inputs": [
        {
          "internalType": "address",
          "name": "newOwner",
          "type": "address"
        }
      ],
      "name": "transferOwnership",
      "outputs": [],
      "stateMutability": "nonpayable",
      "type": "function"
    },
    {
      "inputs": [],
      "name": "trustedSequencer",
      "outputs": [
        {
          "internalType": "address",
          "name": "",
          "type": "address"
        }
      ],
      "stateMutability": "view",
      "type": "function"
    },
    {
      "inputs": [],
      "name": "trustedSequencerURL",
      "outputs": [
        {
          "internalType": "string",
          "name": "",
          "type": "string"
        }
      ],
      "stateMutability": "view",
      "type": "function"
    },
    {
      "inputs": [
        {
          "internalType": "uint64",
          "name": "initNumBatch",
          "type": "uint64"
        },
        {
          "internalType": "uint64",
          "name": "finalNewBatch",
          "type": "uint64"
        },
        {
          "internalType": "bytes32",
          "name": "newLocalExitRoot",
          "type": "bytes32"
        },
        {
          "internalType": "bytes32",
          "name": "newStateRoot",
          "type": "bytes32"
        },
        {
          "internalType": "uint256[2]",
          "name": "proofA",
          "type": "uint256[2]"
        },
        {
          "internalType": "uint256[2][2]",
          "name": "proofB",
          "type": "uint256[2][2]"
        },
        {
          "internalType": "uint256[2]",
          "name": "proofC",
          "type": "uint256[2]"
        }
      ],
      "name": "verifyBatches",
      "outputs": [],
      "stateMutability": "nonpayable",
      "type": "function"
    }
  ],
  "bytecode": "0x608060405234801561001057600080fd5b50614869806100206000396000f3fe608060405234801561001057600080fd5b50600436106102ad5760003560e01c80638da5cb5b1161017b578063cfa8ed47116100d8578063e7a7ed021161008c578063eaeb077b11610071578063eaeb077b1461064e578063f2fde38b14610661578063f75527611461067457600080fd5b8063e7a7ed02146105fe578063e8bf92ed1461062e57600080fd5b8063d8d1091b116100bd578063d8d1091b146105b6578063d8f54db0146105c9578063dbc16976146105f657600080fd5b8063cfa8ed471461056a578063d02103ca1461059657600080fd5b8063b02286c01161012f578063b6b0b09711610114578063b6b0b09714610524578063c89e42df14610544578063ca8103661461055757600080fd5b8063b02286c0146104fb578063b4d63f581461050457600080fd5b8063a3c573eb11610160578063a3c573eb146104bd578063ab9fc5ef146104dd578063adc879e9146104e757600080fd5b80638da5cb5b1461049757806399f5634e146104b557600080fd5b806355b925e611610229578063715018a6116101dd57806379847057116101c257806379847057146104685780637fcb3653146104705780638c4a0af71461048457600080fd5b8063715018a61461044d5780637152facf1461045557600080fd5b80636766f09d1161020e5780636766f09d146104075780636b8616ce1461041a5780636ff512cc1461043a57600080fd5b806355b925e6146103dd5780635c975abb146103f057600080fd5b80633c158267116102805780634560526711610265578063456052671461037f5780635392c5e0146103a7578063542028d5146103d557600080fd5b80633c1582671461034c578063423fa8561461035f57600080fd5b8063107bf28c146102b257806319d8ac61146102d05780632072f6c5146102fd57806327eb6c0f14610307575b600080fd5b6102ba610683565b6040516102c79190613cca565b60405180910390f35b609a546102e49067ffffffffffffffff1681565b60405167ffffffffffffffff90911681526020016102c7565b610305610711565b005b60a2546103279073ffffffffffffffffffffffffffffffffffffffff1681565b60405173ffffffffffffffffffffffffffffffffffffffff90911681526020016102c7565b61030561035a366004613e76565b610723565b609a546102e49068010000000000000000900467ffffffffffffffff1681565b609a546102e490700100000000000000000000000000000000900467ffffffffffffffff1681565b6103c76103b5366004613fab565b609d6020526000908152604090205481565b6040519081526020016102c7565b6102ba611057565b6103056103eb366004613fdd565b611064565b60655460ff165b60405190151581526020016102c7565b610305610415366004613fdd565b61152d565b6103c7610428366004613fab565b60986020526000908152604090205481565b61030561044836600461408d565b611b63565b610305611c9e565b6102ba6104633660046140aa565b611cb0565b6103c7611f1a565b609b546102e49067ffffffffffffffff1681565b610305610492366004614105565b611f94565b60335473ffffffffffffffffffffffffffffffffffffffff16610327565b6103c76120c8565b60a3546103279073ffffffffffffffffffffffffffffffffffffffff1681565b6102e462093a8081565b60a0546102e49067ffffffffffffffff1681565b6103c761ea6081565b6103c7610512366004613fab565b60996020526000908152604090205481565b6097546103279073ffffffffffffffffffffffffffffffffffffffff1681565b610305610552366004614122565b6121f5565b61030561056536600461415f565b6122e4565b609b546103279068010000000000000000900473ffffffffffffffffffffffffffffffffffffffff1681565b609c546103279073ffffffffffffffffffffffffffffffffffffffff1681565b6103056105c4366004614243565b612625565b609b546103f7907c0100000000000000000000000000000000000000000000000000000000900460ff1681565b610305612cd3565b609a546102e4907801000000000000000000000000000000000000000000000000900467ffffffffffffffff1681565b609e546103279073ffffffffffffffffffffffffffffffffffffffff1681565b61030561065c366004614354565b612d82565b61030561066f36600461408d565b613252565b6103c767016345785d8a000081565b60a1805461069090614399565b80601f01602080910402602001604051908101604052809291908181526020018280546106bc90614399565b80156107095780601f106106de57610100808354040283529160200191610709565b820191906000526020600020905b8154815290600101906020018083116106ec57829003601f168201915b505050505081565b610719613309565b61072161338a565b565b61072b613410565b609b5468010000000000000000900473ffffffffffffffffffffffffffffffffffffffff1633146107e3576040517f08c379a000000000000000000000000000000000000000000000000000000000815260206004820152603f60248201527f50726f6f664f66456666696369656e63793a3a6f6e6c7954727573746564536560448201527f7175656e6365723a206f6e6c7920747275737465642073657175656e6365720060648201526084015b60405180910390fd5b8051609a5467ffffffffffffffff680100000000000000008204811660008181526099602052604081205483851694929370010000000000000000000000000000000090930490921691905b85811015610e3357600087828151811061084b5761084b6143ec565b602002602001015190506000816060015167ffffffffffffffff161115610ab657836108768161444a565b9450506000816000015180519060200120826020015183606001516040516020016108d993929190928352602083019190915260c01b7fffffffffffffffff00000000000000000000000000000000000000000000000016604082015260480190565b604080517fffffffffffffffffffffffffffffffffffffffffffffffffffffffffffffffe0818403018152918152815160209283012067ffffffffffffffff88166000908152609890935291205490915081146109de576040517f08c379a000000000000000000000000000000000000000000000000000000000815260206004820152604260248201527f50726f6f664f66456666696369656e63793a3a73657175656e6365426174636860448201527f65733a20466f7263656420626174636865732064617461206d757374206d617460648201527f6368000000000000000000000000000000000000000000000000000000000000608482015260a4016107da565b816060015167ffffffffffffffff16826040015167ffffffffffffffff161015610ab0576040517f08c379a000000000000000000000000000000000000000000000000000000000815260206004820152605d60248201527f50726f6f664f66456666696369656e63793a3a73657175656e6365426174636860448201527f65733a20466f7263656420626174636865732074696d657374616d70206d757360648201527f7420626520626967676572206f7220657175616c207468616e206d696e000000608482015260a4016107da565b50610c84565b60208101511580610b655750609c5460208201516040517f257b363200000000000000000000000000000000000000000000000000000000815273ffffffffffffffffffffffffffffffffffffffff9092169163257b363291610b1f9160040190815260200190565b6020604051808303816000875af1158015610b3e573d6000803e3d6000fd5b505050506040513d601f19601f82011682018060405250810190610b629190614471565b15155b610bf1576040517f08c379a000000000000000000000000000000000000000000000000000000000815260206004820152603f60248201527f50726f6f664f66456666696369656e63793a3a73657175656e6365426174636860448201527f65733a20476c6f62616c206578697420726f6f74206d7573742065786973740060648201526084016107da565b80515161ea6011610c84576040517f08c379a000000000000000000000000000000000000000000000000000000000815260206004820152603f60248201527f50726f6f664f66456666696369656e63793a3a73657175656e6365426174636860448201527f65733a205472616e73616374696f6e73206279746573206f766572666c6f770060648201526084016107da565b8567ffffffffffffffff16816040015167ffffffffffffffff1610158015610cba575042816040015167ffffffffffffffff1611155b610d6c576040517f08c379a000000000000000000000000000000000000000000000000000000000815260206004820152604260248201527f50726f6f664f66456666696369656e63793a3a73657175656e6365426174636860448201527f65733a2054696d657374616d70206d75737420626520696e736964652072616e60648201527f6765000000000000000000000000000000000000000000000000000000000000608482015260a4016107da565b805180516020918201208183015160408085015181519485018890529084019290925260608084019190915260c09190911b7fffffffffffffffff00000000000000000000000000000000000000000000000016608083015233901b7fffffffffffffffffffffffffffffffffffffffff000000000000000000000000166088820152609c016040516020818303038152906040528051906020012092508480610e159061444a565b95505080604001519550508080610e2b9061448a565b91505061082f565b50609a5467ffffffffffffffff780100000000000000000000000000000000000000000000000090910481169083161115610ef0576040517f08c379a000000000000000000000000000000000000000000000000000000000815260206004820152603a60248201527f50726f6f664f66456666696369656e63793a3a73657175656e6365426174636860448201527f65733a20466f7263652062617463686573206f766572666c6f7700000000000060648201526084016107da565b609a54600090610f1e90700100000000000000000000000000000000900467ffffffffffffffff16846144c2565b610f329067ffffffffffffffff16876144eb565b609a805467ffffffffffffffff868116700100000000000000000000000000000000027fffffffffffffffff0000000000000000ffffffffffffffffffffffffffffffff8983166801000000000000000081027fffffffffffffffffffffffffffffffff00000000000000000000000000000000909516938c16939093179390931792909216919091179091556000908152609960205260409020839055905061100a3330610fe98467016345785d8a0000614502565b60975473ffffffffffffffffffffffffffffffffffffffff1692919061347d565b609a546040516801000000000000000090910467ffffffffffffffff16907f303446e6a8cb73c83dff421c0b1d5e5ce0719dab1bff13660fc254e58cc17fce90600090a250505050505050565b609f805461069090614399565b61106c613410565b609b5467ffffffffffffffff9081169088161115611132576040517f08c379a000000000000000000000000000000000000000000000000000000000815260206004820152605b60248201527f50726f6f664f66456666696369656e63793a3a7665726966794261746368657360448201527f3a20696e69744e756d4261746368206d757374206265206c657373206f72206560648201527f7175616c207468616e206c617374566572696669656442617463680000000000608482015260a4016107da565b609b5467ffffffffffffffff908116908716116111f7576040517f08c379a000000000000000000000000000000000000000000000000000000000815260206004820152605560248201527f50726f6f664f66456666696369656e63793a3a7665726966794261746368657360448201527f3a2066696e616c4e65774261746368206d75737420626520626967676572207460648201527f68616e206c617374566572696669656442617463680000000000000000000000608482015260a4016107da565b600061120588888888611cb0565b905060007f30644e72e131a029b85045b68181585d2833e84879b9709143e1f593f000000160028360405161123a919061453f565b602060405180830381855afa158015611257573d6000803e3d6000fd5b5050506040513d601f19601f8201168201806040525081019061127a9190614471565b611284919061458a565b609e546040805160208101825283815290517f43753b4d00000000000000000000000000000000000000000000000000000000815292935073ffffffffffffffffffffffffffffffffffffffff909116916343753b4d916112ee918991899189919060040161459e565b602060405180830381865afa15801561130b573d6000803e3d6000fd5b505050506040513d601f19601f8201168201806040525081019061132f9190614618565b6113bb576040517f08c379a000000000000000000000000000000000000000000000000000000000815260206004820152602f60248201527f50726f6f664f66456666696369656e63793a3a7665726966794261746368657360448201527f3a20494e56414c49445f50524f4f46000000000000000000000000000000000060648201526084016107da565b609b546114149033906113d89067ffffffffffffffff168b6144c2565b67ffffffffffffffff166113ea6120c8565b6113f49190614502565b60975473ffffffffffffffffffffffffffffffffffffffff169190613559565b609b80547fffffffffffffffffffffffffffffffffffffffffffffffff00000000000000001667ffffffffffffffff8a169081179091556000908152609d602052604090819020879055609c5490517f33d6247d0000000000000000000000000000000000000000000000000000000081526004810189905273ffffffffffffffffffffffffffffffffffffffff909116906333d6247d90602401600060405180830381600087803b1580156114c957600080fd5b505af11580156114dd573d6000803e3d6000fd5b505060405188815233925067ffffffffffffffff8b1691507f9c72852172521097ba7e1482e6b44b351323df0155f97f4ea18fcec28e1f59669060200160405180910390a3505050505050505050565b8567ffffffffffffffff168767ffffffffffffffff16106115f6576040517f08c379a000000000000000000000000000000000000000000000000000000000815260206004820152605660248201527f50726f6f664f66456666696369656e63793a3a70726f6f66446966666572656e60448201527f7453746174653a2066696e616c4e65774261746368206d75737420626520626960648201527f67676572207468616e20696e69744e756d426174636800000000000000000000608482015260a4016107da565b609b5467ffffffffffffffff90811690871611156116bc576040517f08c379a000000000000000000000000000000000000000000000000000000000815260206004820152605860248201527f50726f6f664f66456666696369656e63793a3a70726f6f66446966666572656e60448201527f7453746174653a20696e69744e756d4261746368206d757374206265206c657360648201527f73207468616e206c617374566572696669656442617463680000000000000000608482015260a4016107da565b67ffffffffffffffff871615806116eb575067ffffffffffffffff87166000908152609d602052604090205415155b61179d576040517f08c379a000000000000000000000000000000000000000000000000000000000815260206004820152604e60248201527f50726f6f664f66456666696369656e63793a3a70726f6f66446966666572656e60448201527f7453746174653a20696e69744e756d426174636820737461746520726f6f742060648201527f646f6573206e6f74206578697374000000000000000000000000000000000000608482015260a4016107da565b67ffffffffffffffff86166000908152609d6020526040902054611869576040517f08c379a000000000000000000000000000000000000000000000000000000000815260206004820152604f60248201527f50726f6f664f66456666696369656e63793a3a70726f6f66446966666572656e60448201527f7453746174653a2066696e616c4e6577426174636820737461746520726f6f7460648201527f20646f6573206e6f742065786973740000000000000000000000000000000000608482015260a4016107da565b600061187788888888611cb0565b905060007f30644e72e131a029b85045b68181585d2833e84879b9709143e1f593f00000016002836040516118ac919061453f565b602060405180830381855afa1580156118c9573d6000803e3d6000fd5b5050506040513d601f19601f820116820180604052508101906118ec9190614471565b6118f6919061458a565b609e546040805160208101825283815290517f43753b4d00000000000000000000000000000000000000000000000000000000815292935073ffffffffffffffffffffffffffffffffffffffff909116916343753b4d91611960918991899189919060040161459e565b602060405180830381865afa15801561197d573d6000803e3d6000fd5b505050506040513d601f19601f820116820180604052508101906119a19190614618565b611a2d576040517f08c379a000000000000000000000000000000000000000000000000000000000815260206004820152603560248201527f50726f6f664f66456666696369656e63793a3a70726f6f66446966666572656e60448201527f7453746174653a20494e56414c49445f50524f4f46000000000000000000000060648201526084016107da565b67ffffffffffffffff88166000908152609d6020526040902054869003611afc576040517f08c379a000000000000000000000000000000000000000000000000000000000815260206004820152605960248201527f50726f6f664f66456666696369656e63793a3a70726f6f66446966666572656e60448201527f7453746174653a2073746f72656420726f6f74206d757374206265206469666660648201527f6572656e74207468616e206e657720737461746520726f6f7400000000000000608482015260a4016107da565b67ffffffffffffffff88166000908152609d60209081526040918290205482519081529081018890527fe579d6d18f02941e1d0f59bff70f1b2c894edc991badab38343786df2846fe55910160405180910390a1611b5861338a565b505050505050505050565b609b5468010000000000000000900473ffffffffffffffffffffffffffffffffffffffff163314611c16576040517f08c379a000000000000000000000000000000000000000000000000000000000815260206004820152603f60248201527f50726f6f664f66456666696369656e63793a3a6f6e6c7954727573746564536560448201527f7175656e6365723a206f6e6c7920747275737465642073657175656e6365720060648201526084016107da565b609b80547fffffffff0000000000000000000000000000000000000000ffffffffffffffff166801000000000000000073ffffffffffffffffffffffffffffffffffffffff8416908102919091179091556040519081527ff54144f9611984021529f814a1cb6a41e22c58351510a0d9f7e822618abb9cc0906020015b60405180910390a150565b611ca6613309565b61072160006135b4565b67ffffffffffffffff808516600081815260996020526040808220549387168252902054606092911580611ce357508115155b611d95576040517f08c379a000000000000000000000000000000000000000000000000000000000815260206004820152604560248201527f50726f6f664f66456666696369656e63793a3a676574496e707574536e61726b60448201527f42797465733a206f6c64416363496e7075744861736820646f6573206e6f742060648201527f6578697374000000000000000000000000000000000000000000000000000000608482015260a4016107da565b80611e48576040517f08c379a000000000000000000000000000000000000000000000000000000000815260206004820152604560248201527f50726f6f664f66456666696369656e63793a3a676574496e707574536e61726b60448201527f42797465733a206e6577416363496e7075744861736820646f6573206e6f742060648201527f6578697374000000000000000000000000000000000000000000000000000000608482015260a4016107da565b67ffffffffffffffff87166000908152609d60209081526040918290205460a05492517fffffffffffffffffffffffffffffffffffffffff0000000000000000000000003360601b16928101929092526034820152605481018490527fffffffffffffffff00000000000000000000000000000000000000000000000060c08a811b8216607484015292831b8116607c8301526084820187905260a4820184905260c482018890529188901b90911660e482015260ec0160405160208183030381529060405292505050949350505050565b609a5460009067ffffffffffffffff7001000000000000000000000000000000008204811691611f69917801000000000000000000000000000000000000000000000000909104166001614635565b611f7391906144c2565b611f8f9067ffffffffffffffff16670de0b6b3a7640000614502565b905090565b609b5468010000000000000000900473ffffffffffffffffffffffffffffffffffffffff163314612047576040517f08c379a000000000000000000000000000000000000000000000000000000000815260206004820152603f60248201527f50726f6f664f66456666696369656e63793a3a6f6e6c7954727573746564536560448201527f7175656e6365723a206f6e6c7920747275737465642073657175656e6365720060648201526084016107da565b609b80548215157c0100000000000000000000000000000000000000000000000000000000027fffffff00ffffffffffffffffffffffffffffffffffffffffffffffffffffffff9091161790556040517fbacda50a4a8575be1d91a7ebe29ee45056f3a94f12a2281eb6b43afa33bcefe690611c9390831515815260200190565b6097546040517f70a08231000000000000000000000000000000000000000000000000000000008152306004820152600091829173ffffffffffffffffffffffffffffffffffffffff909116906370a0823190602401602060405180830381865afa15801561213b573d6000803e3d6000fd5b505050506040513d601f19601f8201168201806040525081019061215f9190614471565b609b54609a5491925060009167ffffffffffffffff918216916801000000000000000082048116916121c491700100000000000000000000000000000000820481169178010000000000000000000000000000000000000000000000009004166144c2565b6121ce9190614635565b6121d891906144c2565b67ffffffffffffffff1690506121ee8183614661565b9250505090565b609b5468010000000000000000900473ffffffffffffffffffffffffffffffffffffffff1633146122a8576040517f08c379a000000000000000000000000000000000000000000000000000000000815260206004820152603f60248201527f50726f6f664f66456666696369656e63793a3a6f6e6c7954727573746564536560448201527f7175656e6365723a206f6e6c7920747275737465642073657175656e6365720060648201526084016107da565b609f6122b482826146c3565b507f6b8f723a4c7a5335cafae8a598a0aa0301be1387c037dccc085b62add6448b2081604051611c939190613cca565b600054610100900460ff16158080156123045750600054600160ff909116105b8061231e5750303b15801561231e575060005460ff166001145b6123aa576040517f08c379a000000000000000000000000000000000000000000000000000000000815260206004820152602e60248201527f496e697469616c697a61626c653a20636f6e747261637420697320616c72656160448201527f647920696e697469616c697a656400000000000000000000000000000000000060648201526084016107da565b600080547fffffffffffffffffffffffffffffffffffffffffffffffffffffffffffffff00166001179055801561240857600080547fffffffffffffffffffffffffffffffffffffffffffffffffffffffffffff00ff166101001790555b609c80547fffffffffffffffffffffffff000000000000000000000000000000000000000090811673ffffffffffffffffffffffffffffffffffffffff8e8116919091179092556097805482168d8416179055609e80549091168b831617905560008052609d6020527fc5dc36ae4e7617e4c4d23ddfcde33c79e9ed64c300aed766a9288a6b9b31f63d899055609b80547fffffff000000000000000000000000000000000000000000ffffffffffffffff1668010000000000000000928a16929092027fffffff00ffffffffffffffffffffffffffffffffffffffffffffffffffffffff16919091177c010000000000000000000000000000000000000000000000000000000088151502179055609f61252386826146c3565b5060a080547fffffffffffffffffffffffffffffffffffffffffffffffff00000000000000001667ffffffffffffffff861617905560a161256484826146c3565b5060a380547fffffffffffffffffffffffff00000000000000000000000000000000000000001673ffffffffffffffffffffffffffffffffffffffff84161790556125ad61362b565b6125b56136cb565b801561261857600080547fffffffffffffffffffffffffffffffffffffffffffffffffffffffffffff00ff169055604051600181527f7f26b83ff96e1f2b6a682f133852f6798a09c465da95921460cefb38474024989060200160405180910390a15b5050505050505050505050565b61262d613410565b609b547c0100000000000000000000000000000000000000000000000000000000900460ff16151560011461270a576040517f08c379a000000000000000000000000000000000000000000000000000000000815260206004820152604860248201527f50726f6f664f66456666696369656e63793a3a6973466f72636542617463684160448201527f6c6c6f7765643a206f6e6c7920696620666f726365206261746368206973206160648201527f7661696c61626c65000000000000000000000000000000000000000000000000608482015260a4016107da565b8051806127bf576040517f08c379a000000000000000000000000000000000000000000000000000000000815260206004820152604260248201527f50726f6f664f66456666696369656e63793a3a73657175656e6365466f72636560448201527f42617463683a204d75737420666f726365206174206c6561737420312062617460648201527f6368000000000000000000000000000000000000000000000000000000000000608482015260a4016107da565b609a5467ffffffffffffffff7801000000000000000000000000000000000000000000000000820481169161280a9184917001000000000000000000000000000000009004166147dd565b1115612898576040517f08c379a000000000000000000000000000000000000000000000000000000000815260206004820152603a60248201527f50726f6f664f66456666696369656e63793a3a73657175656e6365466f72636560448201527f42617463683a20466f72636520626174636820696e76616c696400000000000060648201526084016107da565b609a5467ffffffffffffffff680100000000000000008204811660008181526099602052604081205491937001000000000000000000000000000000009004909216915b84811015612c035760008682815181106128f8576128f86143ec565b60200260200101519050838061290d9061444a565b825180516020918201208185015160408087015181519485019390935283015260c01b7fffffffffffffffff00000000000000000000000000000000000000000000000016606082015290955060009150606801604080517fffffffffffffffffffffffffffffffffffffffffffffffffffffffffffffffe0818403018152918152815160209283012067ffffffffffffffff8816600090815260989093529120549091508114612a66576040517f08c379a000000000000000000000000000000000000000000000000000000000815260206004820152604760248201527f50726f6f664f66456666696369656e63793a3a73657175656e6365466f72636560448201527f426174636865733a20466f7263656420626174636865732064617461206d757360648201527f74206d6174636800000000000000000000000000000000000000000000000000608482015260a4016107da565b612a716001886144eb565b8303612b49574262093a808360400151612a8b9190614635565b67ffffffffffffffff161115612b49576040517f08c379a000000000000000000000000000000000000000000000000000000000815260206004820152604c60248201527f50726f6f664f66456666696369656e63793a3a73657175656e6365466f72636560448201527f42617463683a20466f72636564206261746368206973206e6f7420696e20746960648201527f6d656f757420706572696f640000000000000000000000000000000000000000608482015260a4016107da565b8151805160209182012081840151604080519384018890528301919091526060808301919091524260c01b7fffffffffffffffff00000000000000000000000000000000000000000000000016608083015233901b7fffffffffffffffffffffffffffffffffffffffff000000000000000000000000166088820152609c016040516020818303038152906040528051906020012093508580612beb9061444a565b96505050508080612bfb9061448a565b9150506128dc565b50609a80544267ffffffffffffffff9081167fffffffffffffffffffffffffffffffff000000000000000000000000000000009092169190911768010000000000000000868316818102929092177fffffffffffffffff0000000000000000ffffffffffffffffffffffffffffffff1670010000000000000000000000000000000087851602178455600091825260996020526040808320869055935493519304909116917f648a61dd2438f072f5a1960939abd30f37aea80d2e94c9792ad142d3e0a490a49190a25050505050565b60a25473ffffffffffffffffffffffffffffffffffffffff163314612d7a576040517f08c379a000000000000000000000000000000000000000000000000000000000815260206004820152603d60248201527f50726f6f664f66456666696369656e63793a3a6f6e6c7953656375726974794360448201527f6f756e63696c3a206f6e6c7920736563757269747920636f756e63696c00000060648201526084016107da565b61072161378c565b612d8a613410565b609b547c0100000000000000000000000000000000000000000000000000000000900460ff161515600114612e67576040517f08c379a000000000000000000000000000000000000000000000000000000000815260206004820152604860248201527f50726f6f664f66456666696369656e63793a3a6973466f72636542617463684160448201527f6c6c6f7765643a206f6e6c7920696620666f726365206261746368206973206160648201527f7661696c61626c65000000000000000000000000000000000000000000000000608482015260a4016107da565b6000612e71611f1a565b905081811115612f03576040517f08c379a000000000000000000000000000000000000000000000000000000000815260206004820152602f60248201527f50726f6f664f66456666696369656e63793a3a666f72636542617463683a206e60448201527f6f7420656e6f756768206d61746963000000000000000000000000000000000060648201526084016107da565b61ea60835110612f95576040517f08c379a000000000000000000000000000000000000000000000000000000000815260206004820152603a60248201527f50726f6f664f66456666696369656e63793a3a666f72636542617463683a205460448201527f72616e73616374696f6e73206279746573206f766572666c6f7700000000000060648201526084016107da565b609754612fba9073ffffffffffffffffffffffffffffffffffffffff1633308461347d565b609c54604080517f3ed691ef000000000000000000000000000000000000000000000000000000008152905160009273ffffffffffffffffffffffffffffffffffffffff1691633ed691ef9160048083019260209291908290030181865afa15801561302a573d6000803e3d6000fd5b505050506040513d601f19601f8201168201806040525081019061304e9190614471565b609a8054919250780100000000000000000000000000000000000000000000000090910467ffffffffffffffff169060186130888361444a565b91906101000a81548167ffffffffffffffff021916908367ffffffffffffffff160217905550508380519060200120814260405160200161310193929190928352602083019190915260c01b7fffffffffffffffff00000000000000000000000000000000000000000000000016604082015260480190565b604080518083037fffffffffffffffffffffffffffffffffffffffffffffffffffffffffffffffe00181529181528151602092830120609a547801000000000000000000000000000000000000000000000000900467ffffffffffffffff16600090815260989093529120553233036131ef57609a54604080518381523360208201526060918101829052600091810191909152780100000000000000000000000000000000000000000000000090910467ffffffffffffffff16907ff94bb37db835f1ab585ee00041849a09b12cd081d77fa15ca070757619cbc9319060800160405180910390a261324c565b609a60189054906101000a900467ffffffffffffffff1667ffffffffffffffff167ff94bb37db835f1ab585ee00041849a09b12cd081d77fa15ca070757619cbc931823387604051613243939291906147f5565b60405180910390a25b50505050565b61325a613309565b73ffffffffffffffffffffffffffffffffffffffff81166132fd576040517f08c379a000000000000000000000000000000000000000000000000000000000815260206004820152602660248201527f4f776e61626c653a206e6577206f776e657220697320746865207a65726f206160448201527f646472657373000000000000000000000000000000000000000000000000000060648201526084016107da565b613306816135b4565b50565b60335473ffffffffffffffffffffffffffffffffffffffff163314610721576040517f08c379a000000000000000000000000000000000000000000000000000000000815260206004820181905260248201527f4f776e61626c653a2063616c6c6572206973206e6f7420746865206f776e657260448201526064016107da565b6133926137fe565b60a360009054906101000a900473ffffffffffffffffffffffffffffffffffffffff1673ffffffffffffffffffffffffffffffffffffffff16638456cb596040518163ffffffff1660e01b8152600401600060405180830381600087803b1580156133fc57600080fd5b505af115801561324c573d6000803e3d6000fd5b60655460ff1615610721576040517f08c379a000000000000000000000000000000000000000000000000000000000815260206004820152601060248201527f5061757361626c653a207061757365640000000000000000000000000000000060448201526064016107da565b60405173ffffffffffffffffffffffffffffffffffffffff8085166024830152831660448201526064810182905261324c9085907f23b872dd00000000000000000000000000000000000000000000000000000000906084015b604080517fffffffffffffffffffffffffffffffffffffffffffffffffffffffffffffffe08184030181529190526020810180517bffffffffffffffffffffffffffffffffffffffffffffffffffffffff167fffffffff0000000000000000000000000000000000000000000000000000000090931692909217909152613883565b60405173ffffffffffffffffffffffffffffffffffffffff83166024820152604481018290526135af9084907fa9059cbb00000000000000000000000000000000000000000000000000000000906064016134d7565b505050565b6033805473ffffffffffffffffffffffffffffffffffffffff8381167fffffffffffffffffffffffff0000000000000000000000000000000000000000831681179093556040519116919082907f8be0079c531659141344cd1fd0a4f28419497f9722a3daafe3b4186f6b6457e090600090a35050565b600054610100900460ff166136c2576040517f08c379a000000000000000000000000000000000000000000000000000000000815260206004820152602b60248201527f496e697469616c697a61626c653a20636f6e7472616374206973206e6f74206960448201527f6e697469616c697a696e6700000000000000000000000000000000000000000060648201526084016107da565b610721336135b4565b600054610100900460ff16613762576040517f08c379a000000000000000000000000000000000000000000000000000000000815260206004820152602b60248201527f496e697469616c697a61626c653a20636f6e7472616374206973206e6f74206960448201527f6e697469616c697a696e6700000000000000000000000000000000000000000060648201526084016107da565b606580547fffffffffffffffffffffffffffffffffffffffffffffffffffffffffffffff00169055565b61379461398f565b60a360009054906101000a900473ffffffffffffffffffffffffffffffffffffffff1673ffffffffffffffffffffffffffffffffffffffff16633f4ba83a6040518163ffffffff1660e01b8152600401600060405180830381600087803b1580156133fc57600080fd5b613806613410565b606580547fffffffffffffffffffffffffffffffffffffffffffffffffffffffffffffff001660011790557f62e78cea01bee320cd4e420270b5ea74000d11b0c9f74754ebdbfc544b05a2586138593390565b60405173ffffffffffffffffffffffffffffffffffffffff909116815260200160405180910390a1565b60006138e5826040518060400160405280602081526020017f5361666545524332303a206c6f772d6c6576656c2063616c6c206661696c65648152508573ffffffffffffffffffffffffffffffffffffffff166139e69092919063ffffffff16565b8051909150156135af57808060200190518101906139039190614618565b6135af576040517f08c379a000000000000000000000000000000000000000000000000000000000815260206004820152602a60248201527f5361666545524332303a204552433230206f7065726174696f6e20646964206e60448201527f6f7420737563636565640000000000000000000000000000000000000000000060648201526084016107da565b6139976139ff565b606580547fffffffffffffffffffffffffffffffffffffffffffffffffffffffffffffff001690557f5db9ee0a495bf2e6ff9c91a7834c1ba4fdd244a5e8aa4e537bd38aeae4b073aa33613859565b60606139f58484600085613a6b565b90505b9392505050565b60655460ff16610721576040517f08c379a000000000000000000000000000000000000000000000000000000000815260206004820152601460248201527f5061757361626c653a206e6f742070617573656400000000000000000000000060448201526064016107da565b606082471015613afd576040517f08c379a000000000000000000000000000000000000000000000000000000000815260206004820152602660248201527f416464726573733a20696e73756666696369656e742062616c616e636520666f60448201527f722063616c6c000000000000000000000000000000000000000000000000000060648201526084016107da565b73ffffffffffffffffffffffffffffffffffffffff85163b613b7b576040517f08c379a000000000000000000000000000000000000000000000000000000000815260206004820152601d60248201527f416464726573733a2063616c6c20746f206e6f6e2d636f6e747261637400000060448201526064016107da565b6000808673ffffffffffffffffffffffffffffffffffffffff168587604051613ba4919061453f565b60006040518083038185875af1925050503d8060008114613be1576040519150601f19603f3d011682016040523d82523d6000602084013e613be6565b606091505b5091509150613bf6828286613c01565b979650505050505050565b60608315613c105750816139f8565b825115613c205782518084602001fd5b816040517f08c379a00000000000000000000000000000000000000000000000000000000081526004016107da9190613cca565b60005b83811015613c6f578181015183820152602001613c57565b8381111561324c5750506000910152565b60008151808452613c98816020860160208601613c54565b601f017fffffffffffffffffffffffffffffffffffffffffffffffffffffffffffffffe0169290920160200192915050565b6020815260006139f86020830184613c80565b7f4e487b7100000000000000000000000000000000000000000000000000000000600052604160045260246000fd5b6040516080810167ffffffffffffffff81118282101715613d2f57613d2f613cdd565b60405290565b6040516060810167ffffffffffffffff81118282101715613d2f57613d2f613cdd565b604051601f82017fffffffffffffffffffffffffffffffffffffffffffffffffffffffffffffffe016810167ffffffffffffffff81118282101715613d9f57613d9f613cdd565b604052919050565b600067ffffffffffffffff821115613dc157613dc1613cdd565b5060051b60200190565b600082601f830112613ddc57600080fd5b813567ffffffffffffffff811115613df657613df6613cdd565b613e2760207fffffffffffffffffffffffffffffffffffffffffffffffffffffffffffffffe0601f84011601613d58565b818152846020838601011115613e3c57600080fd5b816020850160208301376000918101602001919091529392505050565b803567ffffffffffffffff81168114613e7157600080fd5b919050565b60006020808385031215613e8957600080fd5b823567ffffffffffffffff80821115613ea157600080fd5b818501915085601f830112613eb557600080fd5b8135613ec8613ec382613da7565b613d58565b81815260059190911b83018401908481019088831115613ee757600080fd5b8585015b83811015613f9e57803585811115613f035760008081fd5b86016080818c037fffffffffffffffffffffffffffffffffffffffffffffffffffffffffffffffe001811315613f395760008081fd5b613f41613d0c565b8983013588811115613f535760008081fd5b613f618e8c83870101613dcb565b8252506040808401358b8301526060613f7b818601613e59565b82840152613f8a848601613e59565b908301525085525050918601918601613eeb565b5098975050505050505050565b600060208284031215613fbd57600080fd5b6139f882613e59565b8060408101831015613fd757600080fd5b92915050565b6000806000806000806000610180888a031215613ff957600080fd5b61400288613e59565b965061401060208901613e59565b9550604088013594506060880135935061402d8960808a01613fc6565b925061014088018981111561404157600080fd5b60c0890192506140518a82613fc6565b91505092959891949750929550565b73ffffffffffffffffffffffffffffffffffffffff8116811461330657600080fd5b8035613e7181614060565b60006020828403121561409f57600080fd5b81356139f881614060565b600080600080608085870312156140c057600080fd5b6140c985613e59565b93506140d760208601613e59565b93969395505050506040820135916060013590565b801515811461330657600080fd5b8035613e71816140ec565b60006020828403121561411757600080fd5b81356139f8816140ec565b60006020828403121561413457600080fd5b813567ffffffffffffffff81111561414b57600080fd5b61415784828501613dcb565b949350505050565b6000806000806000806000806000806101408b8d03121561417f57600080fd5b6141888b614082565b995061419660208c01614082565b98506141a460408c01614082565b975060608b013596506141b960808c01614082565b95506141c760a08c016140fa565b945060c08b013567ffffffffffffffff808211156141e457600080fd5b6141f08e838f01613dcb565b95506141fe60e08e01613e59565b94506101008d013591508082111561421557600080fd5b506142228d828e01613dcb565b9250506142326101208c01614082565b90509295989b9194979a5092959850565b6000602080838503121561425657600080fd5b823567ffffffffffffffff8082111561426e57600080fd5b818501915085601f83011261428257600080fd5b8135614290613ec382613da7565b81815260059190911b830184019084810190888311156142af57600080fd5b8585015b83811015613f9e578035858111156142cb5760008081fd5b86016060818c037fffffffffffffffffffffffffffffffffffffffffffffffffffffffffffffffe0018113156143015760008081fd5b614309613d35565b898301358881111561431b5760008081fd5b6143298e8c83870101613dcb565b8252506040808401358b830152614341838501613e59565b90820152855250509186019186016142b3565b6000806040838503121561436757600080fd5b823567ffffffffffffffff81111561437e57600080fd5b61438a85828601613dcb565b95602094909401359450505050565b600181811c908216806143ad57607f821691505b6020821081036143e6577f4e487b7100000000000000000000000000000000000000000000000000000000600052602260045260246000fd5b50919050565b7f4e487b7100000000000000000000000000000000000000000000000000000000600052603260045260246000fd5b7f4e487b7100000000000000000000000000000000000000000000000000000000600052601160045260246000fd5b600067ffffffffffffffff8083168181036144675761446761441b565b6001019392505050565b60006020828403121561448357600080fd5b5051919050565b60007fffffffffffffffffffffffffffffffffffffffffffffffffffffffffffffffff82036144bb576144bb61441b565b5060010190565b600067ffffffffffffffff838116908316818110156144e3576144e361441b565b039392505050565b6000828210156144fd576144fd61441b565b500390565b6000817fffffffffffffffffffffffffffffffffffffffffffffffffffffffffffffffff048311821515161561453a5761453a61441b565b500290565b60008251614551818460208701613c54565b9190910192915050565b7f4e487b7100000000000000000000000000000000000000000000000000000000600052601260045260246000fd5b6000826145995761459961455b565b500690565b61012081016040808784376000838201818152879190815b60028110156145d6578484833790840182815292840192906001016145b6565b5050828760c0870137610100850181815286935091505b600181101561460c5782518252602092830192909101906001016145ed565b50505095945050505050565b60006020828403121561462a57600080fd5b81516139f8816140ec565b600067ffffffffffffffff8083168185168083038211156146585761465861441b565b01949350505050565b6000826146705761467061455b565b500490565b601f8211156135af57600081815260208120601f850160051c8101602086101561469c5750805b601f850160051c820191505b818110156146bb578281556001016146a8565b505050505050565b815167ffffffffffffffff8111156146dd576146dd613cdd565b6146f1816146eb8454614399565b84614675565b602080601f831160018114614744576000841561470e5750858301515b7fffffffffffffffffffffffffffffffffffffffffffffffffffffffffffffffff600386901b1c1916600185901b1785556146bb565b6000858152602081207fffffffffffffffffffffffffffffffffffffffffffffffffffffffffffffffe08616915b8281101561479157888601518255948401946001909101908401614772565b50858210156147cd57878501517fffffffffffffffffffffffffffffffffffffffffffffffffffffffffffffffff600388901b60f8161c191681555b5050505050600190811b01905550565b600082198211156147f0576147f061441b565b500190565b83815273ffffffffffffffffffffffffffffffffffffffff8316602082015260606040820152600061482a6060830184613c80565b9594505050505056fea2646970667358221220a53b562b076cd0253795eb85a552ed26fb2bfc0997144bffb51a13e0f4a780c564736f6c634300080f0033",
  "linkReferences": {},
  "deployedLinkReferences": {}
}