{
  "_format": "hh-sol-artifact-1",
  "contractName": "ProofOfEfficiencyMock",
  "sourceName": "contracts/mocks/ProofOfEfficiencyMock.sol",
  "abi": [
    {
      "anonymous": false,
      "inputs": [
        {
          "indexed": true,
          "internalType": "uint64",
          "name": "numBatch",
          "type": "uint64"
        },
        {
          "indexed": false,
          "internalType": "bytes32",
          "name": "stateRoot",
          "type": "bytes32"
        },
        {
          "indexed": true,
          "internalType": "uint64",
          "name": "pendingStateNum",
          "type": "uint64"
        }
      ],
      "name": "ConsolidatePendingState",
      "type": "event"
    },
    {
      "anonymous": false,
      "inputs": [],
      "name": "EmergencyStateActivated",
      "type": "event"
    },
    {
      "anonymous": false,
      "inputs": [],
      "name": "EmergencyStateDeactivated",
      "type": "event"
    },
    {
      "anonymous": false,
      "inputs": [
        {
          "indexed": true,
          "internalType": "uint64",
          "name": "forceBatchNum",
          "type": "uint64"
        },
        {
          "indexed": false,
          "internalType": "bytes32",
          "name": "lastGlobalExitRoot",
          "type": "bytes32"
        },
        {
          "indexed": false,
          "internalType": "address",
          "name": "sequencer",
          "type": "address"
        },
        {
          "indexed": false,
          "internalType": "bytes",
          "name": "transactions",
          "type": "bytes"
        }
      ],
      "name": "ForceBatch",
      "type": "event"
    },
    {
      "anonymous": false,
      "inputs": [
        {
          "indexed": false,
          "internalType": "uint8",
          "name": "version",
          "type": "uint8"
        }
      ],
      "name": "Initialized",
      "type": "event"
    },
    {
      "anonymous": false,
      "inputs": [
        {
          "indexed": true,
          "internalType": "uint64",
          "name": "numBatch",
          "type": "uint64"
        },
        {
          "indexed": false,
          "internalType": "bytes32",
          "name": "stateRoot",
          "type": "bytes32"
        },
        {
          "indexed": true,
          "internalType": "address",
          "name": "aggregator",
          "type": "address"
        }
      ],
      "name": "OverridePendingState",
      "type": "event"
    },
    {
      "anonymous": false,
      "inputs": [
        {
          "indexed": true,
          "internalType": "address",
          "name": "previousOwner",
          "type": "address"
        },
        {
          "indexed": true,
          "internalType": "address",
          "name": "newOwner",
          "type": "address"
        }
      ],
      "name": "OwnershipTransferred",
      "type": "event"
    },
    {
      "anonymous": false,
      "inputs": [
        {
          "indexed": false,
          "internalType": "bytes32",
          "name": "storedStateRoot",
          "type": "bytes32"
        },
        {
          "indexed": false,
          "internalType": "bytes32",
          "name": "provedStateRoot",
          "type": "bytes32"
        }
      ],
      "name": "ProveNonDeterministicPendingState",
      "type": "event"
    },
    {
      "anonymous": false,
      "inputs": [
        {
          "indexed": true,
          "internalType": "uint64",
          "name": "numBatch",
          "type": "uint64"
        }
      ],
      "name": "SequenceBatches",
      "type": "event"
    },
    {
      "anonymous": false,
      "inputs": [
        {
          "indexed": true,
          "internalType": "uint64",
          "name": "numBatch",
          "type": "uint64"
        }
      ],
      "name": "SequenceForceBatches",
      "type": "event"
    },
    {
      "anonymous": false,
      "inputs": [
        {
          "indexed": false,
          "internalType": "address",
          "name": "newAdmin",
          "type": "address"
        }
      ],
      "name": "SetAdmin",
      "type": "event"
    },
    {
      "anonymous": false,
      "inputs": [
        {
          "indexed": false,
          "internalType": "bool",
          "name": "newForceBatchAllowed",
          "type": "bool"
        }
      ],
      "name": "SetForceBatchAllowed",
      "type": "event"
    },
    {
      "anonymous": false,
      "inputs": [
        {
          "indexed": false,
          "internalType": "uint64",
          "name": "newPendingStateTimeout",
          "type": "uint64"
        }
      ],
      "name": "SetPendingStateTimeout",
      "type": "event"
    },
    {
      "anonymous": false,
      "inputs": [
        {
          "indexed": false,
          "internalType": "address",
          "name": "newTrustedAggregator",
          "type": "address"
        }
      ],
      "name": "SetTrustedAggregator",
      "type": "event"
    },
    {
      "anonymous": false,
      "inputs": [
        {
          "indexed": false,
          "internalType": "uint64",
          "name": "newTrustedAggregatorTimeout",
          "type": "uint64"
        }
      ],
      "name": "SetTrustedAggregatorTimeout",
      "type": "event"
    },
    {
      "anonymous": false,
      "inputs": [
        {
          "indexed": false,
          "internalType": "address",
          "name": "newTrustedSequencer",
          "type": "address"
        }
      ],
      "name": "SetTrustedSequencer",
      "type": "event"
    },
    {
      "anonymous": false,
      "inputs": [
        {
          "indexed": false,
          "internalType": "string",
          "name": "newTrustedSequencerURL",
          "type": "string"
        }
      ],
      "name": "SetTrustedSequencerURL",
      "type": "event"
    },
    {
      "anonymous": false,
      "inputs": [
        {
          "indexed": true,
          "internalType": "uint64",
          "name": "numBatch",
          "type": "uint64"
        },
        {
          "indexed": false,
          "internalType": "bytes32",
          "name": "stateRoot",
          "type": "bytes32"
        },
        {
          "indexed": true,
          "internalType": "address",
          "name": "aggregator",
          "type": "address"
        }
      ],
      "name": "TrustedVerifyBatches",
      "type": "event"
    },
    {
      "anonymous": false,
      "inputs": [
        {
          "indexed": true,
          "internalType": "uint64",
          "name": "numBatch",
          "type": "uint64"
        },
        {
          "indexed": false,
          "internalType": "bytes32",
          "name": "stateRoot",
          "type": "bytes32"
        },
        {
          "indexed": true,
          "internalType": "address",
          "name": "aggregator",
          "type": "address"
        }
      ],
      "name": "VerifyBatches",
      "type": "event"
    },
    {
      "inputs": [],
      "name": "FORCE_BATCH_TIMEOUT",
      "outputs": [
        {
          "internalType": "uint64",
          "name": "",
          "type": "uint64"
        }
      ],
      "stateMutability": "view",
      "type": "function"
    },
    {
      "inputs": [],
      "name": "HALT_AGGREGATION_TIMEOUT",
      "outputs": [
        {
          "internalType": "uint64",
          "name": "",
          "type": "uint64"
        }
      ],
      "stateMutability": "view",
      "type": "function"
    },
    {
      "inputs": [],
      "name": "MAX_TRANSACTIONS_BYTE_LENGTH",
      "outputs": [
        {
          "internalType": "uint256",
          "name": "",
          "type": "uint256"
        }
      ],
      "stateMutability": "view",
      "type": "function"
    },
    {
      "inputs": [],
      "name": "MAX_VERIFY_BATCHES",
      "outputs": [
        {
          "internalType": "uint64",
          "name": "",
          "type": "uint64"
        }
      ],
      "stateMutability": "view",
      "type": "function"
    },
    {
      "inputs": [],
      "name": "MULTIPLIER_BATCH_FEE",
      "outputs": [
        {
          "internalType": "uint256",
          "name": "",
          "type": "uint256"
        }
      ],
      "stateMutability": "view",
      "type": "function"
    },
    {
      "inputs": [],
      "name": "VERIFY_BATCH_TIME_TARGET",
      "outputs": [
        {
          "internalType": "uint64",
          "name": "",
          "type": "uint64"
        }
      ],
      "stateMutability": "view",
      "type": "function"
    },
    {
      "inputs": [
        {
          "internalType": "uint64",
          "name": "sequencedBatchNum",
          "type": "uint64"
        }
      ],
      "name": "activateEmergencyState",
      "outputs": [],
      "stateMutability": "nonpayable",
      "type": "function"
    },
    {
      "inputs": [],
      "name": "admin",
      "outputs": [
        {
          "internalType": "address",
          "name": "",
          "type": "address"
        }
      ],
      "stateMutability": "view",
      "type": "function"
    },
    {
      "inputs": [],
      "name": "batchFee",
      "outputs": [
        {
          "internalType": "uint256",
          "name": "",
          "type": "uint256"
        }
      ],
      "stateMutability": "view",
      "type": "function"
    },
    {
      "inputs": [
        {
          "internalType": "uint64",
          "name": "",
          "type": "uint64"
        }
      ],
      "name": "batchNumToStateRoot",
      "outputs": [
        {
          "internalType": "bytes32",
          "name": "",
          "type": "bytes32"
        }
      ],
      "stateMutability": "view",
      "type": "function"
    },
    {
      "inputs": [],
      "name": "bridgeAddress",
      "outputs": [
        {
          "internalType": "contract IBridge",
          "name": "",
          "type": "address"
        }
      ],
      "stateMutability": "view",
      "type": "function"
    },
    {
      "inputs": [
        {
          "internalType": "bytes32",
          "name": "currentAccInputHash",
          "type": "bytes32"
        },
        {
          "internalType": "bytes",
          "name": "transactions",
          "type": "bytes"
        },
        {
          "internalType": "bytes32",
          "name": "globalExitRoot",
          "type": "bytes32"
        },
        {
          "internalType": "uint64",
          "name": "timestamp",
          "type": "uint64"
        },
        {
          "internalType": "address",
          "name": "sequencerAddress",
          "type": "address"
        }
      ],
      "name": "calculateAccInputHash",
      "outputs": [
        {
          "internalType": "bytes32",
          "name": "",
          "type": "bytes32"
        }
      ],
      "stateMutability": "pure",
      "type": "function"
    },
    {
      "inputs": [],
      "name": "calculateBatchFee",
      "outputs": [
        {
          "internalType": "uint256",
          "name": "",
          "type": "uint256"
        }
      ],
      "stateMutability": "view",
      "type": "function"
    },
    {
      "inputs": [],
      "name": "calculateRewardPerBatch",
      "outputs": [
        {
          "internalType": "uint256",
          "name": "",
          "type": "uint256"
        }
      ],
      "stateMutability": "view",
      "type": "function"
    },
    {
      "inputs": [],
      "name": "chainID",
      "outputs": [
        {
          "internalType": "uint64",
          "name": "",
          "type": "uint64"
        }
      ],
      "stateMutability": "view",
      "type": "function"
    },
    {
      "inputs": [
        {
          "internalType": "uint64",
          "name": "pendingStateNum",
          "type": "uint64"
        }
      ],
      "name": "consolidatePendingState",
      "outputs": [],
      "stateMutability": "nonpayable",
      "type": "function"
    },
    {
      "inputs": [],
      "name": "deactivateEmergencyState",
      "outputs": [],
      "stateMutability": "nonpayable",
      "type": "function"
    },
    {
      "inputs": [
        {
          "internalType": "bytes",
          "name": "transactions",
          "type": "bytes"
        },
        {
          "internalType": "uint256",
          "name": "maticAmount",
          "type": "uint256"
        }
      ],
      "name": "forceBatch",
      "outputs": [],
      "stateMutability": "nonpayable",
      "type": "function"
    },
    {
      "inputs": [],
      "name": "forceBatchAllowed",
      "outputs": [
        {
          "internalType": "bool",
          "name": "",
          "type": "bool"
        }
      ],
      "stateMutability": "view",
      "type": "function"
    },
    {
      "inputs": [
        {
          "internalType": "uint64",
          "name": "",
          "type": "uint64"
        }
      ],
      "name": "forcedBatches",
      "outputs": [
        {
          "internalType": "bytes32",
          "name": "",
          "type": "bytes32"
        }
      ],
      "stateMutability": "view",
      "type": "function"
    },
    {
      "inputs": [
        {
          "internalType": "uint64",
          "name": "initNumBatch",
          "type": "uint64"
        },
        {
          "internalType": "uint64",
          "name": "finalNewBatch",
          "type": "uint64"
        },
        {
          "internalType": "bytes32",
          "name": "newLocalExitRoot",
          "type": "bytes32"
        },
        {
          "internalType": "bytes32",
          "name": "oldStateRoot",
          "type": "bytes32"
        },
        {
          "internalType": "bytes32",
          "name": "newStateRoot",
          "type": "bytes32"
        }
      ],
      "name": "getInputSnarkBytes",
      "outputs": [
        {
          "internalType": "bytes",
          "name": "",
          "type": "bytes"
        }
      ],
      "stateMutability": "view",
      "type": "function"
    },
    {
      "inputs": [],
      "name": "getLastVerifiedBatch",
      "outputs": [
        {
          "internalType": "uint64",
          "name": "",
          "type": "uint64"
        }
      ],
      "stateMutability": "view",
      "type": "function"
    },
    {
      "inputs": [
        {
          "internalType": "uint64",
          "name": "pendingStateNum",
          "type": "uint64"
        },
        {
          "internalType": "uint64",
          "name": "initNumBatch",
          "type": "uint64"
        },
        {
          "internalType": "uint64",
          "name": "finalNewBatch",
          "type": "uint64"
        },
        {
          "internalType": "bytes32",
          "name": "newLocalExitRoot",
          "type": "bytes32"
        },
        {
          "internalType": "bytes32",
          "name": "newStateRoot",
          "type": "bytes32"
        }
      ],
      "name": "getNextSnarkInput",
      "outputs": [
        {
          "internalType": "uint256",
          "name": "",
          "type": "uint256"
        }
      ],
      "stateMutability": "view",
      "type": "function"
    },
    {
      "inputs": [],
      "name": "globalExitRootManager",
      "outputs": [
        {
          "internalType": "contract IGlobalExitRootManager",
          "name": "",
          "type": "address"
        }
      ],
      "stateMutability": "view",
      "type": "function"
    },
    {
      "inputs": [
        {
          "internalType": "contract IGlobalExitRootManager",
          "name": "_globalExitRootManager",
          "type": "address"
        },
        {
          "internalType": "contract IERC20Upgradeable",
          "name": "_matic",
          "type": "address"
        },
        {
          "internalType": "contract IVerifierRollup",
          "name": "_rollupVerifier",
          "type": "address"
        },
        {
          "internalType": "contract IBridge",
          "name": "_bridgeAddress",
          "type": "address"
        },
        {
          "components": [
            {
              "internalType": "address",
              "name": "admin",
              "type": "address"
            },
            {
              "internalType": "uint64",
              "name": "chainID",
              "type": "uint64"
            },
            {
              "internalType": "address",
              "name": "trustedSequencer",
              "type": "address"
            },
            {
              "internalType": "uint64",
              "name": "pendingStateTimeout",
              "type": "uint64"
            },
            {
              "internalType": "bool",
              "name": "forceBatchAllowed",
              "type": "bool"
            },
            {
              "internalType": "address",
              "name": "trustedAggregator",
              "type": "address"
            },
            {
              "internalType": "uint64",
              "name": "trustedAggregatorTimeout",
              "type": "uint64"
            }
          ],
          "internalType": "struct ProofOfEfficiency.InitializePackedParameters",
          "name": "initializePackedParameters",
          "type": "tuple"
        },
        {
          "internalType": "bytes32",
          "name": "genesisRoot",
          "type": "bytes32"
        },
        {
          "internalType": "string",
          "name": "_trustedSequencerURL",
          "type": "string"
        },
        {
          "internalType": "string",
          "name": "_networkName",
          "type": "string"
        }
      ],
      "name": "initialize",
      "outputs": [],
      "stateMutability": "nonpayable",
      "type": "function"
    },
    {
      "inputs": [],
      "name": "isEmergencyState",
      "outputs": [
        {
          "internalType": "bool",
          "name": "",
          "type": "bool"
        }
      ],
      "stateMutability": "view",
      "type": "function"
    },
    {
      "inputs": [
        {
          "internalType": "uint64",
          "name": "pendingStateNum",
          "type": "uint64"
        }
      ],
      "name": "isPendingStateConsolidable",
      "outputs": [
        {
          "internalType": "bool",
          "name": "",
          "type": "bool"
        }
      ],
      "stateMutability": "view",
      "type": "function"
    },
    {
      "inputs": [],
      "name": "lastBatchSequenced",
      "outputs": [
        {
          "internalType": "uint64",
          "name": "",
          "type": "uint64"
        }
      ],
      "stateMutability": "view",
      "type": "function"
    },
    {
      "inputs": [],
      "name": "lastForceBatch",
      "outputs": [
        {
          "internalType": "uint64",
          "name": "",
          "type": "uint64"
        }
      ],
      "stateMutability": "view",
      "type": "function"
    },
    {
      "inputs": [],
      "name": "lastForceBatchSequenced",
      "outputs": [
        {
          "internalType": "uint64",
          "name": "",
          "type": "uint64"
        }
      ],
      "stateMutability": "view",
      "type": "function"
    },
    {
      "inputs": [],
      "name": "lastPendingState",
      "outputs": [
        {
          "internalType": "uint64",
          "name": "",
          "type": "uint64"
        }
      ],
      "stateMutability": "view",
      "type": "function"
    },
    {
      "inputs": [],
      "name": "lastPendingStateConsolidated",
      "outputs": [
        {
          "internalType": "uint64",
          "name": "",
          "type": "uint64"
        }
      ],
      "stateMutability": "view",
      "type": "function"
    },
    {
      "inputs": [],
      "name": "lastTimestamp",
      "outputs": [
        {
          "internalType": "uint64",
          "name": "",
          "type": "uint64"
        }
      ],
      "stateMutability": "view",
      "type": "function"
    },
    {
      "inputs": [],
      "name": "lastVerifiedBatch",
      "outputs": [
        {
          "internalType": "uint64",
          "name": "",
          "type": "uint64"
        }
      ],
      "stateMutability": "view",
      "type": "function"
    },
    {
      "inputs": [],
      "name": "matic",
      "outputs": [
        {
          "internalType": "contract IERC20Upgradeable",
          "name": "",
          "type": "address"
        }
      ],
      "stateMutability": "view",
      "type": "function"
    },
    {
      "inputs": [],
      "name": "networkName",
      "outputs": [
        {
          "internalType": "string",
          "name": "",
          "type": "string"
        }
      ],
      "stateMutability": "view",
      "type": "function"
    },
    {
      "inputs": [
        {
          "internalType": "uint64",
          "name": "initPendingStateNum",
          "type": "uint64"
        },
        {
          "internalType": "uint64",
          "name": "finalPendingStateNum",
          "type": "uint64"
        },
        {
          "internalType": "uint64",
          "name": "initNumBatch",
          "type": "uint64"
        },
        {
          "internalType": "uint64",
          "name": "finalNewBatch",
          "type": "uint64"
        },
        {
          "internalType": "bytes32",
          "name": "newLocalExitRoot",
          "type": "bytes32"
        },
        {
          "internalType": "bytes32",
          "name": "newStateRoot",
          "type": "bytes32"
        },
        {
          "internalType": "uint256[2]",
          "name": "proofA",
          "type": "uint256[2]"
        },
        {
          "internalType": "uint256[2][2]",
          "name": "proofB",
          "type": "uint256[2][2]"
        },
        {
          "internalType": "uint256[2]",
          "name": "proofC",
          "type": "uint256[2]"
        }
      ],
      "name": "overridePendingState",
      "outputs": [],
      "stateMutability": "nonpayable",
      "type": "function"
    },
    {
      "inputs": [],
      "name": "owner",
      "outputs": [
        {
          "internalType": "address",
          "name": "",
          "type": "address"
        }
      ],
      "stateMutability": "view",
      "type": "function"
    },
    {
      "inputs": [],
      "name": "pendingStateTimeout",
      "outputs": [
        {
          "internalType": "uint64",
          "name": "",
          "type": "uint64"
        }
      ],
      "stateMutability": "view",
      "type": "function"
    },
    {
      "inputs": [
        {
          "internalType": "uint256",
          "name": "",
          "type": "uint256"
        }
      ],
      "name": "pendingStateTransitions",
      "outputs": [
        {
          "internalType": "uint64",
          "name": "timestamp",
          "type": "uint64"
        },
        {
          "internalType": "uint64",
          "name": "lastVerifiedBatch",
          "type": "uint64"
        },
        {
          "internalType": "bytes32",
          "name": "exitRoot",
          "type": "bytes32"
        },
        {
          "internalType": "bytes32",
          "name": "stateRoot",
          "type": "bytes32"
        }
      ],
      "stateMutability": "view",
      "type": "function"
    },
    {
      "inputs": [
        {
          "internalType": "uint64",
          "name": "initPendingStateNum",
          "type": "uint64"
        },
        {
          "internalType": "uint64",
          "name": "finalPendingStateNum",
          "type": "uint64"
        },
        {
          "internalType": "uint64",
          "name": "initNumBatch",
          "type": "uint64"
        },
        {
          "internalType": "uint64",
          "name": "finalNewBatch",
          "type": "uint64"
        },
        {
          "internalType": "bytes32",
          "name": "newLocalExitRoot",
          "type": "bytes32"
        },
        {
          "internalType": "bytes32",
          "name": "newStateRoot",
          "type": "bytes32"
        },
        {
          "internalType": "uint256[2]",
          "name": "proofA",
          "type": "uint256[2]"
        },
        {
          "internalType": "uint256[2][2]",
          "name": "proofB",
          "type": "uint256[2][2]"
        },
        {
          "internalType": "uint256[2]",
          "name": "proofC",
          "type": "uint256[2]"
        }
      ],
      "name": "proveNonDeterministicPendingState",
      "outputs": [],
      "stateMutability": "nonpayable",
      "type": "function"
    },
    {
      "inputs": [],
      "name": "renounceOwnership",
      "outputs": [],
      "stateMutability": "nonpayable",
      "type": "function"
    },
    {
      "inputs": [],
      "name": "rollupVerifier",
      "outputs": [
        {
          "internalType": "contract IVerifierRollup",
          "name": "",
          "type": "address"
        }
      ],
      "stateMutability": "view",
      "type": "function"
    },
    {
      "inputs": [
        {
          "components": [
            {
              "internalType": "bytes",
              "name": "transactions",
              "type": "bytes"
            },
            {
              "internalType": "bytes32",
              "name": "globalExitRoot",
              "type": "bytes32"
            },
            {
              "internalType": "uint64",
              "name": "timestamp",
              "type": "uint64"
            },
            {
              "internalType": "uint64",
              "name": "minForcedTimestamp",
              "type": "uint64"
            }
          ],
          "internalType": "struct ProofOfEfficiency.BatchData[]",
          "name": "batches",
          "type": "tuple[]"
        }
      ],
      "name": "sequenceBatches",
      "outputs": [],
      "stateMutability": "nonpayable",
      "type": "function"
    },
    {
      "inputs": [
        {
          "components": [
            {
              "internalType": "bytes",
              "name": "transactions",
              "type": "bytes"
            },
            {
              "internalType": "bytes32",
              "name": "globalExitRoot",
              "type": "bytes32"
            },
            {
              "internalType": "uint64",
              "name": "minForcedTimestamp",
              "type": "uint64"
            }
          ],
          "internalType": "struct ProofOfEfficiency.ForcedBatchData[]",
          "name": "batches",
          "type": "tuple[]"
        }
      ],
      "name": "sequenceForceBatches",
      "outputs": [],
      "stateMutability": "nonpayable",
      "type": "function"
    },
    {
      "inputs": [
        {
          "internalType": "uint64",
          "name": "",
          "type": "uint64"
        }
      ],
      "name": "sequencedBatches",
      "outputs": [
        {
          "internalType": "bytes32",
          "name": "accInputHash",
          "type": "bytes32"
        },
        {
          "internalType": "uint64",
          "name": "sequencedTimestamp",
          "type": "uint64"
        },
        {
          "internalType": "uint64",
          "name": "previousLastBatchSequenced",
          "type": "uint64"
        }
      ],
      "stateMutability": "view",
      "type": "function"
    },
    {
      "inputs": [
        {
          "internalType": "address",
          "name": "newAdmin",
          "type": "address"
        }
      ],
      "name": "setAdmin",
      "outputs": [],
      "stateMutability": "nonpayable",
      "type": "function"
    },
    {
      "inputs": [
        {
          "internalType": "bool",
          "name": "newForceBatchAllowed",
          "type": "bool"
        }
      ],
      "name": "setForceBatchAllowed",
      "outputs": [],
      "stateMutability": "nonpayable",
      "type": "function"
    },
    {
      "inputs": [
        {
          "internalType": "string",
          "name": "_networkName",
          "type": "string"
        }
      ],
      "name": "setNetworkName",
      "outputs": [],
      "stateMutability": "nonpayable",
      "type": "function"
    },
    {
      "inputs": [
        {
          "internalType": "uint64",
          "name": "newPendingStateTimeout",
          "type": "uint64"
        }
      ],
      "name": "setPendingStateTimeout",
      "outputs": [],
      "stateMutability": "nonpayable",
      "type": "function"
    },
    {
      "inputs": [
        {
          "internalType": "uint64",
          "name": "_numBatch",
          "type": "uint64"
        }
      ],
      "name": "setSequencedBatch",
      "outputs": [],
      "stateMutability": "nonpayable",
      "type": "function"
    },
    {
      "inputs": [
        {
          "internalType": "uint64",
          "name": "batchNum",
          "type": "uint64"
        },
        {
          "internalType": "bytes32",
          "name": "accInputData",
          "type": "bytes32"
        },
        {
          "internalType": "uint64",
          "name": "timestamp",
          "type": "uint64"
        },
        {
          "internalType": "uint64",
          "name": "lastPendingStateConsolidated",
          "type": "uint64"
        }
      ],
      "name": "setSequencedBatches",
      "outputs": [],
      "stateMutability": "nonpayable",
      "type": "function"
    },
    {
      "inputs": [
        {
          "internalType": "bytes32",
          "name": "newStateRoot",
          "type": "bytes32"
        },
        {
          "internalType": "uint64",
          "name": "batchNum",
          "type": "uint64"
        }
      ],
      "name": "setStateRoot",
      "outputs": [],
      "stateMutability": "nonpayable",
      "type": "function"
    },
    {
      "inputs": [
        {
          "internalType": "address",
          "name": "newTrustedAggregator",
          "type": "address"
        }
      ],
      "name": "setTrustedAggregator",
      "outputs": [],
      "stateMutability": "nonpayable",
      "type": "function"
    },
    {
      "inputs": [
        {
          "internalType": "uint64",
          "name": "newTrustedAggregatorTimeout",
          "type": "uint64"
        }
      ],
      "name": "setTrustedAggregatorTimeout",
      "outputs": [],
      "stateMutability": "nonpayable",
      "type": "function"
    },
    {
      "inputs": [
        {
          "internalType": "address",
          "name": "newTrustedSequencer",
          "type": "address"
        }
      ],
      "name": "setTrustedSequencer",
      "outputs": [],
      "stateMutability": "nonpayable",
      "type": "function"
    },
    {
      "inputs": [
        {
          "internalType": "string",
          "name": "newTrustedSequencerURL",
          "type": "string"
        }
      ],
      "name": "setTrustedSequencerURL",
      "outputs": [],
      "stateMutability": "nonpayable",
      "type": "function"
    },
    {
      "inputs": [
        {
          "internalType": "uint64",
          "name": "_numBatch",
          "type": "uint64"
        }
      ],
      "name": "setVerifiedBatch",
      "outputs": [],
      "stateMutability": "nonpayable",
      "type": "function"
    },
    {
      "inputs": [
        {
          "internalType": "contract IVerifierRollup",
          "name": "_rollupVerifier",
          "type": "address"
        }
      ],
      "name": "setVerifier",
      "outputs": [],
      "stateMutability": "nonpayable",
      "type": "function"
    },
    {
      "inputs": [
        {
          "internalType": "address",
          "name": "newOwner",
          "type": "address"
        }
      ],
      "name": "transferOwnership",
      "outputs": [],
      "stateMutability": "nonpayable",
      "type": "function"
    },
    {
      "inputs": [],
      "name": "trustedAggregator",
      "outputs": [
        {
          "internalType": "address",
          "name": "",
          "type": "address"
        }
      ],
      "stateMutability": "view",
      "type": "function"
    },
    {
      "inputs": [],
      "name": "trustedAggregatorTimeout",
      "outputs": [
        {
          "internalType": "uint64",
          "name": "",
          "type": "uint64"
        }
      ],
      "stateMutability": "view",
      "type": "function"
    },
    {
      "inputs": [],
      "name": "trustedSequencer",
      "outputs": [
        {
          "internalType": "address",
          "name": "",
          "type": "address"
        }
      ],
      "stateMutability": "view",
      "type": "function"
    },
    {
      "inputs": [],
      "name": "trustedSequencerURL",
      "outputs": [
        {
          "internalType": "string",
          "name": "",
          "type": "string"
        }
      ],
      "stateMutability": "view",
      "type": "function"
    },
    {
      "inputs": [
        {
          "internalType": "uint64",
          "name": "pendingStateNum",
          "type": "uint64"
        },
        {
          "internalType": "uint64",
          "name": "initNumBatch",
          "type": "uint64"
        },
        {
          "internalType": "uint64",
          "name": "finalNewBatch",
          "type": "uint64"
        },
        {
          "internalType": "bytes32",
          "name": "newLocalExitRoot",
          "type": "bytes32"
        },
        {
          "internalType": "bytes32",
          "name": "newStateRoot",
          "type": "bytes32"
        },
        {
          "internalType": "uint256[2]",
          "name": "proofA",
          "type": "uint256[2]"
        },
        {
          "internalType": "uint256[2][2]",
          "name": "proofB",
          "type": "uint256[2][2]"
        },
        {
          "internalType": "uint256[2]",
          "name": "proofC",
          "type": "uint256[2]"
        }
      ],
      "name": "trustedVerifyBatches",
      "outputs": [],
      "stateMutability": "nonpayable",
      "type": "function"
    },
    {
      "inputs": [
        {
          "internalType": "uint64",
          "name": "pendingStateNum",
          "type": "uint64"
        },
        {
          "internalType": "uint64",
          "name": "initNumBatch",
          "type": "uint64"
        },
        {
          "internalType": "uint64",
          "name": "finalNewBatch",
          "type": "uint64"
        },
        {
          "internalType": "bytes32",
          "name": "newLocalExitRoot",
          "type": "bytes32"
        },
        {
          "internalType": "bytes32",
          "name": "newStateRoot",
          "type": "bytes32"
        },
        {
          "internalType": "uint256[2]",
          "name": "proofA",
          "type": "uint256[2]"
        },
        {
          "internalType": "uint256[2][2]",
          "name": "proofB",
          "type": "uint256[2][2]"
        },
        {
          "internalType": "uint256[2]",
          "name": "proofC",
          "type": "uint256[2]"
        }
      ],
      "name": "trustedVerifyBatchesMock",
      "outputs": [],
      "stateMutability": "nonpayable",
      "type": "function"
    },
    {
      "inputs": [
        {
          "internalType": "uint64",
          "name": "pendingStateNum",
          "type": "uint64"
        },
        {
          "internalType": "uint64",
          "name": "initNumBatch",
          "type": "uint64"
        },
        {
          "internalType": "uint64",
          "name": "finalNewBatch",
          "type": "uint64"
        },
        {
          "internalType": "bytes32",
          "name": "newLocalExitRoot",
          "type": "bytes32"
        },
        {
          "internalType": "bytes32",
          "name": "newStateRoot",
          "type": "bytes32"
        },
        {
          "internalType": "uint256[2]",
          "name": "proofA",
          "type": "uint256[2]"
        },
        {
          "internalType": "uint256[2][2]",
          "name": "proofB",
          "type": "uint256[2][2]"
        },
        {
          "internalType": "uint256[2]",
          "name": "proofC",
          "type": "uint256[2]"
        }
      ],
      "name": "verifyBatches",
      "outputs": [],
      "stateMutability": "nonpayable",
      "type": "function"
    }
  ],
  "bytecode": "0x608060405234801561001057600080fd5b5061682780620000216000396000f3fe608060405234801561001057600080fd5b50600436106104215760003560e01c80638b48931e11610235578063d8d1091b11610135578063e8bf92ed116100c8578063f1d7b21c11610097578063f851a4401161007c578063f851a44014610a1b578063f8b823e414610a2e578063fe16564f14610a3757600080fd5b8063f1d7b21c14610a00578063f2fde38b14610a0857600080fd5b8063e8bf92ed146109b4578063eaeb077b146109c7578063edc41121146109da578063f14916d6146109ed57600080fd5b8063e0d1744111610104578063e0d174411461096b578063e11f3f181461097e578063e217cfd614610991578063e7a7ed021461099a57600080fd5b8063d8d1091b14610922578063d8f54db014610935578063d939b31514610949578063dbc169761461096357600080fd5b8063ab9fc5ef116101c8578063c0cad30211610197578063c89e42df1161017c578063c89e42df146108e2578063cfa8ed47146108f5578063d02103ca1461090f57600080fd5b8063c0cad302146108c7578063c0ed84e0146108da57600080fd5b8063ab9fc5ef1461082b578063adc879e914610835578063b4d63f581461084f578063b6b0b097146108af57600080fd5b806399f5634e1161020457806399f5634e146107ea5780639b796760146107f25780639c9f3dfe14610805578063a3c573eb1461081857600080fd5b80638b48931e146107a95780638c4a0af7146107b35780638da5cb5b146107c657806396dc3d39146107d757600080fd5b80634a1a89a7116103405780636ff512cc116102d357806375c508b3116102a25780637fcb3653116102875780637fcb36531461070e578063837a473814610721578063841b24d71461078f57600080fd5b806375c508b3146106f35780637abaf3e61461070657600080fd5b80636ff512cc146106b2578063704b6c02146106c5578063715018a6146106d85780637215541a146106e057600080fd5b80635437988d1161030f5780635437988d146105f6578063574f649e1461060957806360943d6a1461067f5780636b8616ce1461069257600080fd5b80634a1a89a7146105a15780634a910e6a146105bb5780635392c5e0146105ce578063542028d5146105ee57600080fd5b80632d0889d3116103b8578063423fa85611610387578063423fa856146105475780634560526714610561578063458c04771461057b5780634834a3431461058e57600080fd5b80632d0889d314610505578063383b3be81461050e578063394218e9146105215780633c1582671461053457600080fd5b806315064c96116103f457806315064c961461049757806319d8ac61146104b4578063220d7899146104c757806329878983146104da57600080fd5b80630eaa86ea14610426578063107bf28c1461044c57806310a01a7214610461578063137f1edf14610476575b600080fd5b610439610434366004615bc6565b610a4a565b6040519081526020015b60405180910390f35b610454610e6d565b6040516104439190615c73565b61047461046f366004615cb5565b610efb565b005b61047f61070881565b6040516001600160401b039091168152602001610443565b6065546104a49060ff1681565b6040519015158152602001610443565b60685461047f906001600160401b031681565b6104546104d5366004615d42565b611341565b606a546104ed906001600160a01b031681565b6040516001600160a01b039091168152602001610443565b61043961ea6081565b6104a461051c366004615d8f565b6114ff565b61047461052f366004615d8f565b611546565b610474610542366004615ecc565b611772565b60685461047f90600160401b90046001600160401b031681565b60685461047f90600160801b90046001600160401b031681565b60725461047f906001600160401b031681565b61047461059c366004615cb5565b6120cb565b60725461047f90600160401b90046001600160401b031681565b6104746105c9366004615d8f565b612475565b6104396105dc366004615d8f565b606d6020526000908152604090205481565b610454612738565b610474610604366004615ff7565b612745565b610439610617366004616014565b835160209485012060408051808701979097528681019190915260608087019490945260c09290921b6001600160c01b031916608086015290911b6bffffffffffffffffffffffff191660888401528051808403607c018152609c9093019052815191012090565b61047461068d366004616089565b61276f565b6104396106a0366004615d8f565b60666020526000908152604090205481565b6104746106c0366004615ff7565b612afe565b6104746106d3366004615ff7565b612bd8565b610474612c91565b6104746106ee366004615d8f565b612ca5565b610474610701366004616160565b612e86565b607454610439565b60695461047f906001600160401b031681565b61076461072f3660046161fe565b6071602052600090815260409020805460018201546002909201546001600160401b0380831693600160401b90930416919084565b604080516001600160401b039586168152949093166020850152918301526060820152608001610443565b60725461047f90600160c01b90046001600160401b031681565b61047f62093a8081565b6104746107c1366004616225565b612f76565b6033546001600160a01b03166104ed565b6104746107e5366004615d8f565b61302e565b610439613059565b610474610800366004615d8f565b613153565b610474610813366004615d8f565b61318d565b6070546104ed906001600160a01b031681565b61047f6206978081565b606c5461047f90600160a81b90046001600160401b031681565b61088a61085d366004615d8f565b606760205260009081526040902080546001909101546001600160401b0380821691600160401b90041683565b604080519384526001600160401b039283166020850152911690820152606001610443565b6065546104ed9061010090046001600160a01b031681565b6104746108d5366004616242565b6133ae565b61047f6133c6565b6104746108f0366004616242565b613413565b6069546104ed90600160401b90046001600160a01b031681565b606c546104ed906001600160a01b031681565b610474610930366004616276565b6134ba565b606c546104a490600160a01b900460ff1681565b60725461047f90600160801b90046001600160401b031681565b610474613b1d565b610474610979366004616368565b613c70565b61047461098c366004616160565b613ce2565b61047f6103e881565b60685461047f90600160c01b90046001600160401b031681565b606b546104ed906001600160a01b031681565b6104746109d53660046163b5565b613eae565b6104746109e8366004615cb5565b6142ee565b6104746109fb366004615ff7565b61446e565b610439600b81565b610474610a16366004615ff7565b614527565b6073546104ed906001600160a01b031681565b61043960745481565b610474610a453660046163f9565b6145b4565b607254600090819081906001600160401b031615610a8d57506072546001600160401b03908116600090815260716020526040902054600160401b900416610a9b565b506069546001600160401b03165b6001600160401b03881615610bfa576072546001600160401b039081169089161115610b485760405162461bcd60e51b815260206004820152605d60248201526000805160206167d283398151915260448201527f3a2070656e64696e6753746174654e756d206d757374206265206c657373206f60648201527f7220657175616c207468616e206c61737450656e64696e675374617465000000608482015260a4015b60405180910390fd5b6001600160401b038089166000908152607160205260409020600281015481549094509091898116600160401b9092041614610bf45760405162461bcd60e51b815260206004820152605160248201526000805160206167d283398151915260448201527f3a20696e69744e756d4261746368206d757374206d61746368207468652070656064820152700dcc8d2dcce40e6e8c2e8ca40c4c2e8c6d607b1b608482015260a401610b3f565b50610d36565b6001600160401b0387166000908152606d6020526040902054610c845760405162461bcd60e51b815260206004820152604860248201526000805160206167d283398151915260448201527f3a20696e69744e756d426174636820737461746520726f6f7420646f6573206e6064820152671bdd08195e1a5cdd60c21b608482015260a401610b3f565b6001600160401b038088166000818152606d602052604090205493509082161015610d365760405162461bcd60e51b815260206004820152606260248201526000805160206167d283398151915260448201527f3a20696e69744e756d4261746368206d757374206265206c657373206f72206560648201527f7175616c207468616e2063757272656e744c61737456657269666965644261746084820152610c6d60f31b60a482015260c401610b3f565b806001600160401b0316866001600160401b031611610dd15760405162461bcd60e51b815260206004820152605c60248201526000805160206167d283398151915260448201527f3a2066696e616c4e65774261746368206d75737420626520626967676572207460648201527f68616e2063757272656e744c6173745665726966696564426174636800000000608482015260a401610b3f565b6000610de08888888689611341565b905060007f30644e72e131a029b85045b68181585d2833e84879b9709143e1f593f0000001600283604051610e159190616425565b602060405180830381855afa158015610e32573d6000803e3d6000fd5b5050506040513d601f19601f82011682018060405250810190610e559190616441565b610e5f9190616470565b9a9950505050505050505050565b606f8054610e7a90616484565b80601f0160208091040260200160405190810160405280929190818152602001828054610ea690616484565b8015610ef35780601f10610ec857610100808354040283529160200191610ef3565b820191906000526020600020905b815481529060010190602001808311610ed657829003601f168201915b505050505081565b610f036145d6565b600080610f0e6133c6565b90506001600160401b038a161561106a576072546001600160401b03908116908b161115610fb85760405162461bcd60e51b815260206004820152605d60248201526000805160206167d283398151915260448201527f3a2070656e64696e6753746174654e756d206d757374206265206c657373206f60648201527f7220657175616c207468616e206c61737450656e64696e675374617465000000608482015260a401610b3f565b6001600160401b03808b1660009081526071602052604090206002810154815490945090918b8116600160401b90920416146110645760405162461bcd60e51b815260206004820152605160248201526000805160206167d283398151915260448201527f3a20696e69744e756d4261746368206d757374206d61746368207468652070656064820152700dcc8d2dcce40e6e8c2e8ca40c4c2e8c6d607b1b608482015260a401610b3f565b5061119e565b6001600160401b0389166000908152606d60205260409020549150816110f75760405162461bcd60e51b815260206004820152604860248201526000805160206167d283398151915260448201527f3a20696e69744e756d426174636820737461746520726f6f7420646f6573206e6064820152671bdd08195e1a5cdd60c21b608482015260a401610b3f565b806001600160401b0316896001600160401b0316111561119e5760405162461bcd60e51b815260206004820152606260248201526000805160206167d283398151915260448201527f3a20696e69744e756d4261746368206d757374206265206c657373206f72206560648201527f7175616c207468616e2063757272656e744c61737456657269666965644261746084820152610c6d60f31b60a482015260c401610b3f565b806001600160401b0316886001600160401b0316116112395760405162461bcd60e51b815260206004820152605c60248201526000805160206167d283398151915260448201527f3a2066696e616c4e65774261746368206d75737420626520626967676572207460648201527f68616e2063757272656e744c6173745665726966696564426174636800000000608482015260a401610b3f565b60006112488a8a8a868b611341565b6069805467ffffffffffffffff19166001600160401b038c81169182179092556000908152606d60205260409020899055607254919250161561129657607280546001600160801b03191690555b606c546040516333d6247d60e01b8152600481018a90526001600160a01b03909116906333d6247d90602401600060405180830381600087803b1580156112dc57600080fd5b505af11580156112f0573d6000803e3d6000fd5b50506040518981523392506001600160401b038c1691507f0c0ce073a7d7b5850c04ccc4b20ee7d3179d5f57d0ac44399565792c0f72fce79060200160405180910390a35050505050505050505050565b6001600160401b0380861660008181526067602052604080822054938816825290205460609291158061137357508115155b6113f35760405162461bcd60e51b815260206004820152604560248201527f50726f6f664f66456666696369656e63793a3a676574496e707574536e61726b60448201527f42797465733a206f6c64416363496e7075744861736820646f6573206e6f7420606482015264195e1a5cdd60da1b608482015260a401610b3f565b806114745760405162461bcd60e51b815260206004820152604560248201527f50726f6f664f66456666696369656e63793a3a676574496e707574536e61726b60448201527f42797465733a206e6577416363496e7075744861736820646f6573206e6f7420606482015264195e1a5cdd60da1b608482015260a401610b3f565b606c54604080516bffffffffffffffffffffffff193360601b166020820152603481019790975260548701939093526001600160c01b031960c0998a1b81166074880152600160a81b909104891b8116607c870152608486019490945260a485015260c4840194909452509290931b90911660e4830152805180830360cc01815260ec909201905290565b6072546001600160401b038281166000908152607160205260408120549092429261153592600160801b909204811691166164d4565b6001600160401b0316111592915050565b6073546001600160a01b031633146115b15760405162461bcd60e51b815260206004820152602860248201527f50726f6f664f66456666696369656e63793a3a6f6e6c7941646d696e3a206f6e604482015267363c9030b236b4b760c11b6064820152608401610b3f565b62093a806001600160401b03821611156116465760405162461bcd60e51b815260206004820152604a60248201527f50726f6f664f66456666696369656e63793a3a73657450656e64696e6753746160448201527f746554696d656f75743a206578636565642068616c74206167677265676174696064820152691bdb881d1a5b595bdd5d60b21b608482015260a401610b3f565b60655460ff16611701576072546001600160401b03600160c01b9091048116908216106117015760405162461bcd60e51b815260206004820152604960248201527f50726f6f664f66456666696369656e63793a3a7365745472757374656441676760448201527f72656761746f7254696d656f75743a206e65772074696d656f7574206d75737460648201527f206265206c6f7765720000000000000000000000000000000000000000000000608482015260a401610b3f565b6072805477ffffffffffffffffffffffffffffffffffffffffffffffff16600160c01b6001600160401b038481168202929092179283905560405192041681527f1f4fa24c2e4bad19a7f3ec5c5485f70d46c798461c2e684f55bbd0fc661373a1906020015b60405180910390a150565b60655460ff16156117f65760405162461bcd60e51b815260206004820152604260248201527f456d657267656e63794d616e616765723a3a69664e6f74456d657267656e637960448201527f53746174653a206f6e6c79206966206e6f7420656d657267656e637920737461606482015261746560f01b608482015260a401610b3f565b606954600160401b90046001600160a01b0316331461187d5760405162461bcd60e51b815260206004820152603f60248201527f50726f6f664f66456666696369656e63793a3a6f6e6c7954727573746564536560448201527f7175656e6365723a206f6e6c7920747275737465642073657175656e636572006064820152608401610b3f565b8051806118fd5760405162461bcd60e51b815260206004820152604260248201527f50726f6f664f66456666696369656e63793a3a73657175656e6365426174636860448201527f65733a204174206c65617374206d7573742073657175656e63652031206261746064820152610c6d60f31b608482015260a401610b3f565b6103e8811061199a5760405162461bcd60e51b815260206004820152604560248201527f50726f6f664f66456666696369656e63793a3a73657175656e6365426174636860448201527f65733a2043616e6e6f742073657175656e63652074686174206d616e7920626160648201527f7463686573000000000000000000000000000000000000000000000000000000608482015260a401610b3f565b6068546001600160401b03600160401b82048116600081815260676020526040812054838516949293600160801b90930490921691905b85811015611ee95760008782815181106119ed576119ed6164ff565b60200260200101519050600081606001516001600160401b03161115611bcf5783611a1781616515565b945050600081600001518051906020012082602001518360600151604051602001611a6293929190928352602083019190915260c01b6001600160c01b031916604082015260480190565b60408051601f1981840301815291815281516020928301206001600160401b038816600090815260669093529120549091508114611b135760405162461bcd60e51b815260206004820152604260248201527f50726f6f664f66456666696369656e63793a3a73657175656e6365426174636860448201527f65733a20466f7263656420626174636865732064617461206d757374206d61746064820152610c6d60f31b608482015260a401610b3f565b81606001516001600160401b031682604001516001600160401b03161015611bc95760405162461bcd60e51b815260206004820152605d60248201527f50726f6f664f66456666696369656e63793a3a73657175656e6365426174636860448201527f65733a20466f7263656420626174636865732074696d657374616d70206d757360648201527f7420626520626967676572206f7220657175616c207468616e206d696e000000608482015260a401610b3f565b50611d82565b60208101511580611c715750606c5460208201516040517f257b36320000000000000000000000000000000000000000000000000000000081526001600160a01b039092169163257b363291611c2b9160040190815260200190565b6020604051808303816000875af1158015611c4a573d6000803e3d6000fd5b505050506040513d601f19601f82011682018060405250810190611c6e9190616441565b15155b611ce35760405162461bcd60e51b815260206004820152603f60248201527f50726f6f664f66456666696369656e63793a3a73657175656e6365426174636860448201527f65733a20476c6f62616c206578697420726f6f74206d757374206578697374006064820152608401610b3f565b80515161ea6011611d825760405162461bcd60e51b815260206004820152604a60248201527f50726f6f664f664566666963696550656e64696e67537461746563793a3a736560448201527f7175656e6365426174636865733a205472616e73616374696f6e73206279746560648201527f73206f766572666c6f7700000000000000000000000000000000000000000000608482015260a401610b3f565b856001600160401b031681604001516001600160401b031610158015611db557504281604001516001600160401b031611155b611e4d5760405162461bcd60e51b815260206004820152604260248201527f50726f6f664f66456666696369656e63793a3a73657175656e6365426174636860448201527f65733a2054696d657374616d70206d75737420626520696e736964652072616e60648201527f6765000000000000000000000000000000000000000000000000000000000000608482015260a401610b3f565b805180516020918201208183015160408085015181519485018890529084019290925260608084019190915260c09190911b6001600160c01b031916608083015233901b6bffffffffffffffffffffffff19166088820152609c016040516020818303038152906040528051906020012092508480611ecb90616515565b95505080604001519550508080611ee19061653b565b9150506119d1565b506068546001600160401b03600160c01b90910481169083161115611f765760405162461bcd60e51b815260206004820152603a60248201527f50726f6f664f66456666696369656e63793a3a73657175656e6365426174636860448201527f65733a20466f7263652062617463686573206f766572666c6f770000000000006064820152608401610b3f565b606854600090611f9690600160801b90046001600160401b031684616554565b611fa9906001600160401b03168761657c565b60408051606081018252848152426001600160401b03908116602080840191825260688054600160401b9081900485168688019081528c861660008181526067909552979093209551865592516001909501805492519585166001600160801b03199384161795851684029590951790945583548b841691161793029290921767ffffffffffffffff60801b1916600160801b9287169290920291909117905560745490915061207c903390309084906120639190616593565b60655461010090046001600160a01b0316929190614630565b6120846146e1565b606854604051600160401b9091046001600160401b0316907f303446e6a8cb73c83dff421c0b1d5e5ce0719dab1bff13660fc254e58cc17fce90600090a250505050505050565b60655460ff161561214f5760405162461bcd60e51b815260206004820152604260248201527f456d657267656e63794d616e616765723a3a69664e6f74456d657267656e637960448201527f53746174653a206f6e6c79206966206e6f7420656d657267656e637920737461606482015261746560f01b608482015260a401610b3f565b6072546001600160401b03878116600090815260676020526040902060010154429261218692600160c01b909104811691166164d4565b6001600160401b031611156122175760405162461bcd60e51b815260206004820152604860248201526000805160206167d283398151915260448201527f3a20747275737465642061676772656761746f722074696d656f7574206e6f7460648201527f2065787069726564000000000000000000000000000000000000000000000000608482015260a401610b3f565b6103e86122248888616554565b6001600160401b0316106122985760405162461bcd60e51b815260206004820152604160248201526000805160206167d283398151915260448201527f3a2063616e6e6f74207665726966792074686174206d616e79206261746368656064820152607360f81b608482015260a401610b3f565b6122a88888888888888888614781565b6122b186614c79565b607254600160801b90046001600160401b0316600003612379576069805467ffffffffffffffff19166001600160401b038881169182179092556000908152606d60205260409020859055607254161561231657607280546001600160801b03191690555b606c546040516333d6247d60e01b8152600481018790526001600160a01b03909116906333d6247d90602401600060405180830381600087803b15801561235c57600080fd5b505af1158015612370573d6000803e3d6000fd5b5050505061242a565b6123816146e1565b607280546001600160401b031690600061239a83616515565b82546001600160401b039182166101009390930a92830292820219169190911790915560408051608081018252428316815289831660208083019182528284018b8152606084018b8152607254871660009081526071909352949091209251835492518616600160401b026001600160801b03199093169516949094171781559151600183015551600290910155505b60405184815233906001600160401b038816907f9c72852172521097ba7e1482e6b44b351323df0155f97f4ea18fcec28e1f5966906020015b60405180910390a35050505050505050565b6001600160401b038116158015906124a257506072546001600160401b03600160401b9091048116908216115b80156124bd57506072546001600160401b0390811690821611155b6125555760405162461bcd60e51b815260206004820152604860248201527f50726f6f664f66456666696369656e63793a3a636f6e736f6c6964617465506560448201527f6e64696e6753746174653a2070656e64696e6753746174654e756d206d75737460648201527f20696e76616c6964000000000000000000000000000000000000000000000000608482015260a401610b3f565b606a546001600160a01b0316331461260857612570816114ff565b6126085760405162461bcd60e51b815260206004820152605960248201527f50726f6f664f66456666696369656e63793a3a636f6e736f6c6964617465506560448201527f6e64696e6753746174653a2070656e64696e67207374617465206973206e6f7460648201527f20726561647920746f20626520636f6e736f6c69646174656400000000000000608482015260a401610b3f565b6001600160401b038181166000818152607160209081526040808320805460698054600160401b9283900490981667ffffffffffffffff19909816881790556002820154878652606d9094529382902092909255607280546fffffffffffffffff000000000000000019169390940292909217909255606c54600183015491516333d6247d60e01b815260048101929092529192916001600160a01b0316906333d6247d90602401600060405180830381600087803b1580156126ca57600080fd5b505af11580156126de573d6000803e3d6000fd5b50505050826001600160401b0316816001600160401b03167f328d3c6c0fd6f1be0515e422f2d87e59f25922cbc2233568515a0c4bc3f8510e846002015460405161272b91815260200190565b60405180910390a3505050565b606e8054610e7a90616484565b61274d6145d6565b606b80546001600160a01b0319166001600160a01b0392909216919091179055565b600054610100900460ff161580801561278f5750600054600160ff909116105b806127a95750303b1580156127a9575060005460ff166001145b61281b5760405162461bcd60e51b815260206004820152602e60248201527f496e697469616c697a61626c653a20636f6e747261637420697320616c72656160448201527f647920696e697469616c697a65640000000000000000000000000000000000006064820152608401610b3f565b6000805460ff19166001179055801561283e576000805461ff0019166101001790555b606c80546001600160a01b03199081166001600160a01b038c811691909117909255606580547fffffffffffffffffffffff0000000000000000000000000000000000000000ff166101008c851602179055606b805482168a8416179055607080549091169188169190911790556128b96020860186615ff7565b607380546001600160a01b0319166001600160a01b03929092169190911790556128e96060860160408701615ff7565b606980546001600160a01b0392909216600160401b027fffffffff0000000000000000000000000000000000000000ffffffffffffffff90921691909117905561293960c0860160a08701615ff7565b606a80546001600160a01b0319166001600160a01b039290921691909117905560008052606d6020527fda90043ba5b4096ba14704bc227ab0d3167da15b887e62ab2e76e37daa71135684905561299660e0860160c08701615d8f565b607280546001600160401b0392909216600160c01b0277ffffffffffffffffffffffffffffffffffffffffffffffff9092169190911790556129de6040860160208701615d8f565b606c80546001600160401b0392909216600160a81b027fffffff0000000000000000ffffffffffffffffffffffffffffffffffffffffff909216919091179055612a2e6080860160608701615d8f565b607280546001600160401b0392909216600160801b0267ffffffffffffffff60801b19909216919091179055612a6a60a0860160808701616225565b606c8054911515600160a01b0260ff60a01b19909216919091179055606e612a9284826165f8565b50606f612a9f83826165f8565b506018607455612aad614e4d565b8015612af3576000805461ff0019169055604051600181527f7f26b83ff96e1f2b6a682f133852f6798a09c465da95921460cefb38474024989060200160405180910390a15b505050505050505050565b6073546001600160a01b03163314612b695760405162461bcd60e51b815260206004820152602860248201527f50726f6f664f66456666696369656e63793a3a6f6e6c7941646d696e3a206f6e604482015267363c9030b236b4b760c11b6064820152608401610b3f565b606980547fffffffff0000000000000000000000000000000000000000ffffffffffffffff16600160401b6001600160a01b038416908102919091179091556040519081527ff54144f9611984021529f814a1cb6a41e22c58351510a0d9f7e822618abb9cc090602001611767565b6073546001600160a01b03163314612c435760405162461bcd60e51b815260206004820152602860248201527f50726f6f664f66456666696369656e63793a3a6f6e6c7941646d696e3a206f6e604482015267363c9030b236b4b760c11b6064820152608401610b3f565b607380546001600160a01b0319166001600160a01b0383169081179091556040519081527f5a272403b402d892977df56625f4164ccaf70ca3863991c43ecfe76a6905b0a190602001611767565b612c996145d6565b612ca36000614ecf565b565b6033546001600160a01b03163314612e7b576072546000906001600160401b031615612cf657506072546001600160401b03908116600090815260716020526040902054600160401b900416612d04565b506069546001600160401b03165b80826001600160401b031611612da85760405162461bcd60e51b815260206004820152604160248201527f50726f6f664f66456666696369656e63793a3a6163746976617465456d65726760448201527f656e637953746174653a20426174636820616c7265616479207665726966696560648201527f6400000000000000000000000000000000000000000000000000000000000000608482015260a401610b3f565b6001600160401b038083166000908152606760205260409020600101544291612dd69162093a8091166164d4565b6001600160401b03161115612e795760405162461bcd60e51b815260206004820152605260248201527f50726f6f664f66456666696369656e63793a3a6163746976617465456d65726760448201527f656e637953746174653a204167677265676174696f6e2068616c742074696d6560648201527f6f7574206973206e6f7420657870697265640000000000000000000000000000608482015260a401610b3f565b505b612e83614f21565b50565b60655460ff1615612f0a5760405162461bcd60e51b815260206004820152604260248201527f456d657267656e63794d616e616765723a3a69664e6f74456d657267656e637960448201527f53746174653a206f6e6c79206966206e6f7420656d657267656e637920737461606482015261746560f01b608482015260a401610b3f565b612f1b898989898989898989614f91565b6001600160401b0386166000908152606d60209081526040918290205482519081529081018690527f1f44c21118c4603cfb4e1b621dbcfa2b73efcececee2b99b620b2953d33a7010910160405180910390a1612af3614f21565b6073546001600160a01b03163314612fe15760405162461bcd60e51b815260206004820152602860248201527f50726f6f664f66456666696369656e63793a3a6f6e6c7941646d696e3a206f6e604482015267363c9030b236b4b760c11b6064820152608401610b3f565b606c8054821515600160a01b0260ff60a01b199091161790556040517fbacda50a4a8575be1d91a7ebe29ee45056f3a94f12a2281eb6b43afa33bcefe69061176790831515815260200190565b6130366145d6565b6069805467ffffffffffffffff19166001600160401b0392909216919091179055565b6065546040517f70a0823100000000000000000000000000000000000000000000000000000000815230600482015260009182916101009091046001600160a01b0316906370a0823190602401602060405180830381865afa1580156130c3573d6000803e3d6000fd5b505050506040513d601f19601f820116820180604052508101906130e79190616441565b905060006130f36133c6565b6068546001600160401b03600160401b820481169161312391600160801b8204811691600160c01b900416616554565b61312d91906164d4565b6131379190616554565b6001600160401b0316905061314c81836166b7565b9250505090565b61315b6145d6565b606880546001600160401b03909216600160401b026fffffffffffffffff000000000000000019909216919091179055565b6073546001600160a01b031633146131f85760405162461bcd60e51b815260206004820152602860248201527f50726f6f664f66456666696369656e63793a3a6f6e6c7941646d696e3a206f6e604482015267363c9030b236b4b760c11b6064820152608401610b3f565b60725462093a80600160801b9091046001600160401b031611156132975760405162461bcd60e51b815260206004820152604a60248201527f50726f6f664f66456666696369656e63793a3a73657450656e64696e6753746160448201527f746554696d656f75743a206578636565642068616c74206167677265676174696064820152691bdb881d1a5b595bdd5d60b21b608482015260a401610b3f565b60655460ff16613353576072546001600160401b03600160801b9091048116908216106133535760405162461bcd60e51b8152602060048201526044602482018190527f50726f6f664f66456666696369656e63793a3a73657450656e64696e67537461908201527f746554696d656f75743a206e65772074696d656f7574206d757374206265206c60648201527f6f77657200000000000000000000000000000000000000000000000000000000608482015260a401610b3f565b6072805467ffffffffffffffff60801b1916600160801b6001600160401b038416908102919091179091556040519081527fc4121f4e22c69632ebb7cf1f462be0511dc034f999b52013eddfb24aab765c7590602001611767565b6133b66145d6565b606f6133c282826165f8565b5050565b6072546000906001600160401b03161561340357506072546001600160401b03908116600090815260716020526040902054600160401b90041690565b506069546001600160401b031690565b6073546001600160a01b0316331461347e5760405162461bcd60e51b815260206004820152602860248201527f50726f6f664f66456666696369656e63793a3a6f6e6c7941646d696e3a206f6e604482015267363c9030b236b4b760c11b6064820152608401610b3f565b606e61348a82826165f8565b507f6b8f723a4c7a5335cafae8a598a0aa0301be1387c037dccc085b62add6448b20816040516117679190615c73565b60655460ff161561353e5760405162461bcd60e51b815260206004820152604260248201527f456d657267656e63794d616e616765723a3a69664e6f74456d657267656e637960448201527f53746174653a206f6e6c79206966206e6f7420656d657267656e637920737461606482015261746560f01b608482015260a401610b3f565b606c54600160a01b900460ff1615156001146135d35760405162461bcd60e51b815260206004820152604860248201527f50726f6f664f66456666696369656e63793a3a6973466f72636542617463684160448201527f6c6c6f7765643a206f6e6c7920696620666f72636520626174636820697320616064820152677661696c61626c6560c01b608482015260a401610b3f565b8051806136535760405162461bcd60e51b815260206004820152604260248201527f50726f6f664f66456666696369656e63793a3a73657175656e6365466f72636560448201527f42617463683a204d75737420666f726365206174206c656173742031206261746064820152610c6d60f31b608482015260a401610b3f565b6103e881106136c25760405162461bcd60e51b815260206004820152604160248201526000805160206167d283398151915260448201527f3a2063616e6e6f74207665726966792074686174206d616e79206261746368656064820152607360f81b608482015260a401610b3f565b6068546001600160401b03600160c01b82048116916136ea918491600160801b9004166166cb565b111561375e5760405162461bcd60e51b815260206004820152603a60248201527f50726f6f664f66456666696369656e63793a3a73657175656e6365466f72636560448201527f42617463683a20466f72636520626174636820696e76616c69640000000000006064820152608401610b3f565b6068546001600160401b03600160401b820481166000818152606760205260408120549193600160801b9004909216915b84811015613a1f5760008682815181106137ab576137ab6164ff565b6020026020010151905083806137c090616515565b825180516020918201208185015160408087015181519485019390935283015260c01b6001600160c01b03191660608201529095506000915060680160408051601f1981840301815291815281516020928301206001600160401b0388166000908152606690935291205490915081146138c85760405162461bcd60e51b815260206004820152604760248201527f50726f6f664f66456666696369656e63793a3a73657175656e6365466f72636560448201527f426174636865733a20466f7263656420626174636865732064617461206d757360648201527f74206d6174636800000000000000000000000000000000000000000000000000608482015260a401610b3f565b6138d360018861657c565b830361399057426206978083604001516138ed91906164d4565b6001600160401b031611156139905760405162461bcd60e51b815260206004820152604c60248201527f50726f6f664f66456666696369656e63793a3a73657175656e6365466f72636560448201527f42617463683a20466f72636564206261746368206973206e6f7420696e20746960648201527f6d656f757420706572696f640000000000000000000000000000000000000000608482015260a401610b3f565b8151805160209182012081840151604080519384018890528301919091526060808301919091524260c01b6001600160c01b031916608083015233901b6bffffffffffffffffffffffff19166088820152609c016040516020818303038152906040528051906020012093508580613a0790616515565b96505050508080613a179061653b565b91505061378f565b506068805467ffffffffffffffff1916426001600160401b03908116918217808455604080516060810182528681526020808201958652600160401b9384900485168284019081528a861660008181526067909352848320935184559651600193909301805491519387166001600160801b03199092169190911792861685029290921790915585547fffffffffffffffff00000000000000000000000000000000ffffffffffffffff1694830267ffffffffffffffff60801b191694909417600160801b88851602179485905551930416917f648a61dd2438f072f5a1960939abd30f37aea80d2e94c9792ad142d3e0a490a49190a25050505050565b60655460ff16613b955760405162461bcd60e51b815260206004820152603b60248201527f456d657267656e63794d616e616765723a3a6966456d657267656e637953746160448201527f74653a206f6e6c7920696620656d657267656e637920737461746500000000006064820152608401610b3f565b6073546001600160a01b03163314613c005760405162461bcd60e51b815260206004820152602860248201527f50726f6f664f66456666696369656e63793a3a6f6e6c7941646d696e3a206f6e604482015267363c9030b236b4b760c11b6064820152608401610b3f565b607060009054906101000a90046001600160a01b03166001600160a01b031663dbc169766040518163ffffffff1660e01b8152600401600060405180830381600087803b158015613c5057600080fd5b505af1158015613c64573d6000803e3d6000fd5b50505050612ca3615767565b613c786145d6565b604080516060810182529384526001600160401b03928316602080860191825292841685830190815295841660009081526067909352912092518355516001909201805493518216600160401b026001600160801b03199094169290911691909117919091179055565b606a546001600160a01b03163314613d6c5760405162461bcd60e51b815260206004820152604160248201527f50726f6f664f66456666696369656e63793a3a6f6e6c7954727573746564416760448201527f6772656761746f723a206f6e6c7920747275737465642041676772656761746f6064820152603960f91b608482015260a401610b3f565b613d7d898989898989898989614f91565b6069805467ffffffffffffffff19166001600160401b038881169182179092556000908152606d602052604090208590556072541615613dc857607280546001600160801b03191690555b606c546040516333d6247d60e01b8152600481018790526001600160a01b03909116906333d6247d90602401600060405180830381600087803b158015613e0e57600080fd5b505af1158015613e22573d6000803e3d6000fd5b50506072805477ffffffffffffffffffffffffffffffffffffffffffffffff167a093a80000000000000000000000000000000000000000000000000179055505060405184815233906001600160401b038816907fcc1b5520188bf1dd3e63f98164b577c4d75c11a619ddea692112f0d1aec4cf729060200160405180910390a3505050505050505050565b60655460ff1615613f325760405162461bcd60e51b815260206004820152604260248201527f456d657267656e63794d616e616765723a3a69664e6f74456d657267656e637960448201527f53746174653a206f6e6c79206966206e6f7420656d657267656e637920737461606482015261746560f01b608482015260a401610b3f565b606c54600160a01b900460ff161515600114613fc75760405162461bcd60e51b815260206004820152604860248201527f50726f6f664f66456666696369656e63793a3a6973466f72636542617463684160448201527f6c6c6f7765643a206f6e6c7920696620666f72636520626174636820697320616064820152677661696c61626c6560c01b608482015260a401610b3f565b6000613fd260745490565b90508181111561404a5760405162461bcd60e51b815260206004820152602f60248201527f50726f6f664f66456666696369656e63793a3a666f72636542617463683a206e60448201527f6f7420656e6f756768206d6174696300000000000000000000000000000000006064820152608401610b3f565b61ea608351106140c25760405162461bcd60e51b815260206004820152603a60248201527f50726f6f664f66456666696369656e63793a3a666f72636542617463683a205460448201527f72616e73616374696f6e73206279746573206f766572666c6f770000000000006064820152608401610b3f565b6065546140df9061010090046001600160a01b0316333084614630565b606c54604080517f3ed691ef00000000000000000000000000000000000000000000000000000000815290516000926001600160a01b031691633ed691ef9160048083019260209291908290030181865afa158015614142573d6000803e3d6000fd5b505050506040513d601f19601f820116820180604052508101906141669190616441565b60688054919250600160c01b9091046001600160401b031690601861418a83616515565b91906101000a8154816001600160401b0302191690836001600160401b0316021790555050838051906020012081426040516020016141e993929190928352602083019190915260c01b6001600160c01b031916604082015260480190565b60408051808303601f190181529181528151602092830120606854600160c01b90046001600160401b03166000908152606690935291205532330361428d57606854604080518381523360208201526060918101829052600091810191909152600160c01b9091046001600160401b0316907ff94bb37db835f1ab585ee00041849a09b12cd081d77fa15ca070757619cbc9319060800160405180910390a26142e8565b606860189054906101000a90046001600160401b03166001600160401b03167ff94bb37db835f1ab585ee00041849a09b12cd081d77fa15ca070757619cbc9318233876040516142df939291906166e3565b60405180910390a25b50505050565b606a546001600160a01b031633146143785760405162461bcd60e51b815260206004820152604160248201527f50726f6f664f66456666696369656e63793a3a6f6e6c7954727573746564416760448201527f6772656761746f723a206f6e6c7920747275737465642041676772656761746f6064820152603960f91b608482015260a401610b3f565b6143888888888888888888614781565b6069805467ffffffffffffffff19166001600160401b038881169182179092556000908152606d6020526040902085905560725416156143d357607280546001600160801b03191690555b606c546040516333d6247d60e01b8152600481018790526001600160a01b03909116906333d6247d90602401600060405180830381600087803b15801561441957600080fd5b505af115801561442d573d6000803e3d6000fd5b50506040518681523392506001600160401b03891691507f0c0ce073a7d7b5850c04ccc4b20ee7d3179d5f57d0ac44399565792c0f72fce790602001612463565b6073546001600160a01b031633146144d95760405162461bcd60e51b815260206004820152602860248201527f50726f6f664f66456666696369656e63793a3a6f6e6c7941646d696e3a206f6e604482015267363c9030b236b4b760c11b6064820152608401610b3f565b606a80546001600160a01b0319166001600160a01b0383169081179091556040519081527f61f8fec29495a3078e9271456f05fb0707fd4e41f7661865f80fc437d06681ca90602001611767565b61452f6145d6565b6001600160a01b0381166145ab5760405162461bcd60e51b815260206004820152602660248201527f4f776e61626c653a206e6577206f776e657220697320746865207a65726f206160448201527f64647265737300000000000000000000000000000000000000000000000000006064820152608401610b3f565b612e8381614ecf565b6145bc6145d6565b6001600160401b03166000908152606d6020526040902055565b6033546001600160a01b03163314612ca35760405162461bcd60e51b815260206004820181905260248201527f4f776e61626c653a2063616c6c6572206973206e6f7420746865206f776e65726044820152606401610b3f565b6040516001600160a01b03808516602483015283166044820152606481018290526142e89085907f23b872dd00000000000000000000000000000000000000000000000000000000906084015b60408051601f198184030181529190526020810180517bffffffffffffffffffffffffffffffffffffffffffffffffffffffff167fffffffff0000000000000000000000000000000000000000000000000000000090931692909217909152615814565b6072546001600160401b03600160401b8204811691161115612ca35760725460009061471e90600160401b90046001600160401b031660016164d4565b9050614729816114ff565b15612e835760725460009060029061474b9084906001600160401b0316616554565b6147559190616714565b61475f90836164d4565b905061476a816114ff565b15614778576133c281612475565b6133c282612475565b60008061478c6133c6565b90506001600160401b038a16156148e8576072546001600160401b03908116908b1611156148365760405162461bcd60e51b815260206004820152605d60248201526000805160206167d283398151915260448201527f3a2070656e64696e6753746174654e756d206d757374206265206c657373206f60648201527f7220657175616c207468616e206c61737450656e64696e675374617465000000608482015260a401610b3f565b6001600160401b03808b1660009081526071602052604090206002810154815490945090918b8116600160401b90920416146148e25760405162461bcd60e51b815260206004820152605160248201526000805160206167d283398151915260448201527f3a20696e69744e756d4261746368206d757374206d61746368207468652070656064820152700dcc8d2dcce40e6e8c2e8ca40c4c2e8c6d607b1b608482015260a401610b3f565b50614a1c565b6001600160401b0389166000908152606d60205260409020549150816149755760405162461bcd60e51b815260206004820152604860248201526000805160206167d283398151915260448201527f3a20696e69744e756d426174636820737461746520726f6f7420646f6573206e6064820152671bdd08195e1a5cdd60c21b608482015260a401610b3f565b806001600160401b0316896001600160401b03161115614a1c5760405162461bcd60e51b815260206004820152606260248201526000805160206167d283398151915260448201527f3a20696e69744e756d4261746368206d757374206265206c657373206f72206560648201527f7175616c207468616e2063757272656e744c61737456657269666965644261746084820152610c6d60f31b60a482015260c401610b3f565b806001600160401b0316886001600160401b031611614ab75760405162461bcd60e51b815260206004820152605c60248201526000805160206167d283398151915260448201527f3a2066696e616c4e65774261746368206d75737420626520626967676572207460648201527f68616e2063757272656e744c6173745665726966696564426174636800000000608482015260a401610b3f565b6000614ac68a8a8a868b611341565b905060007f30644e72e131a029b85045b68181585d2833e84879b9709143e1f593f0000001600283604051614afb9190616425565b602060405180830381855afa158015614b18573d6000803e3d6000fd5b5050506040513d601f19601f82011682018060405250810190614b3b9190616441565b614b459190616470565b606b546040805160208101825283815290516343753b4d60e01b81529293506001600160a01b03909116916343753b4d91614b89918b918b918b919060040161673a565b602060405180830381865afa158015614ba6573d6000803e3d6000fd5b505050506040513d601f19601f82011682018060405250810190614bca91906167b4565b614c2a5760405162461bcd60e51b815260206004820152602f60248201526000805160206167d283398151915260448201527f3a20494e56414c49445f50524f4f4600000000000000000000000000000000006064820152608401610b3f565b614c6b33614c38858d616554565b6001600160401b0316614c49613059565b614c539190616593565b60655461010090046001600160a01b031691906158fe565b505050505050505050505050565b6000614c836133c6565b905081600080614c938484616554565b6001600160401b031690505b836001600160401b0316836001600160401b031614614d3d576001600160401b0380851660009081526067602052604090206001810154909161070891614ce791164261657c565b1115614d22576001810154614d0c90600160401b90046001600160401b031686616554565b614d1f906001600160401b0316846166cb565b92505b60010154600160401b90046001600160401b03169250614c9f565b6000614d49838361657c565b905082811015614dc0576000614d5f828561657c565b6074549091505b6020821115614d9a57602a614d7c602b83616593565b614d8691906166b7565b9050614d9360208361657c565b9150614d66565b600a8218614dab600b841883616593565b614db591906166b7565b60745550614e459050565b6000614dcc848361657c565b6074549091505b6020821115614e0757602a614de9602b83616593565b614df391906166b7565b9050614e0060208361657c565b9150614dd3565b600a8218614e18600b841883616593565b614e2291906166b7565b905080607454607454614e359190616593565b614e3f91906166b7565b60745550505b505050505050565b600054610100900460ff16614eca5760405162461bcd60e51b815260206004820152602b60248201527f496e697469616c697a61626c653a20636f6e7472616374206973206e6f74206960448201527f6e697469616c697a696e670000000000000000000000000000000000000000006064820152608401610b3f565b612ca3335b603380546001600160a01b038381166001600160a01b0319831681179093556040519116919082907f8be0079c531659141344cd1fd0a4f28419497f9722a3daafe3b4186f6b6457e090600090a35050565b607060009054906101000a90046001600160a01b03166001600160a01b0316632072f6c56040518163ffffffff1660e01b8152600401600060405180830381600087803b158015614f7157600080fd5b505af1158015614f85573d6000803e3d6000fd5b50505050612ca3615947565b60006001600160401b038a1615615167576072546001600160401b03908116908b1611156150735760405162461bcd60e51b815260206004820152607160248201527f50726f6f664f66456666696369656e63793a3a70726f76654e6f6e446574657260448201527f6d696e697374696350656e64696e6753746174653a2070656e64696e6753746160648201527f74654e756d206d757374206265206c657373206f7220657175616c207468616e60848201527f206c61737450656e64696e67537461746500000000000000000000000000000060a482015260c401610b3f565b506001600160401b03808a1660009081526071602052604090206002810154815490928a8116600160401b90920416146151615760405162461bcd60e51b815260206004820152606560248201527f50726f6f664f66456666696369656e63793a3a70726f76654e6f6e446574657260448201527f6d696e697374696350656e64696e6753746174653a20696e69744e756d42617460648201527f6368206d757374206d61746368207468652070656e64696e672073746174652060848201527f626174636800000000000000000000000000000000000000000000000000000060a482015260c401610b3f565b506152eb565b506001600160401b0387166000908152606d60205260409020548061521a5760405162461bcd60e51b815260206004820152605c60248201527f50726f6f664f66456666696369656e63793a3a70726f76654e6f6e446574657260448201527f6d696e697374696350656e64696e6753746174653a20696e69744e756d42617460648201527f636820737461746520726f6f7420646f6573206e6f7420657869737400000000608482015260a401610b3f565b6069546001600160401b0390811690891611156152eb5760405162461bcd60e51b815260206004820152607660248201527f50726f6f664f66456666696369656e63793a3a70726f76654e6f6e446574657260448201527f6d696e697374696350656e64696e6753746174653a20696e69744e756d42617460648201527f6368206d757374206265206c657373206f7220657175616c207468616e20637560848201527f7272656e744c617374566572696669656442617463680000000000000000000060a482015260c401610b3f565b6072546001600160401b03908116908a161180159061531b5750896001600160401b0316896001600160401b0316115b801561533c57506072546001600160401b03600160401b9091048116908a16115b6153fa5760405162461bcd60e51b815260206004820152607060248201527f50726f6f664f66456666696369656e63793a3a70726f76654e6f6e446574657260448201527f6d696e697374696350656e64696e6753746174653a2066696e616c4e6577426160648201527f746368206d75737420626520626967676572207468616e2063757272656e744c60848201527f617374566572696669656442617463680000000000000000000000000000000060a482015260c401610b3f565b6001600160401b03898116600090815260716020526040902054600160401b90048116908816146154df5760405162461bcd60e51b815260206004820152607060248201527f50726f6f664f66456666696369656e63793a3a70726f76654e6f6e446574657260448201527f6d696e697374696350656e64696e6753746174653a2066696e616c4e6577426160648201527f746368206d75737420626520626967676572207468616e2063757272656e744c60848201527f617374566572696669656442617463680000000000000000000000000000000060a482015260c401610b3f565b60006154ee898989858a611341565b905060007f30644e72e131a029b85045b68181585d2833e84879b9709143e1f593f00000016002836040516155239190616425565b602060405180830381855afa158015615540573d6000803e3d6000fd5b5050506040513d601f19601f820116820180604052508101906155639190616441565b61556d9190616470565b606b546040805160208101825283815290516343753b4d60e01b81529293506001600160a01b03909116916343753b4d916155b1918a918a918a919060040161673a565b602060405180830381865afa1580156155ce573d6000803e3d6000fd5b505050506040513d601f19601f820116820180604052508101906155f291906167b4565b61568a5760405162461bcd60e51b815260206004820152604360248201527f50726f6f664f66456666696369656e63793a3a70726f76654e6f6e446574657260448201527f6d696e697374696350656e64696e6753746174653a20494e56414c49445f505260648201527f4f4f460000000000000000000000000000000000000000000000000000000000608482015260a401610b3f565b6001600160401b038b16600090815260716020526040902060020154879003614c6b5760405162461bcd60e51b815260206004820152606760248201527f50726f6f664f66456666696369656e63793a3a70726f76654e6f6e446574657260448201527f6d696e697374696350656e64696e6753746174653a2073746f72656420726f6f60648201527f74206d75737420626520646966666572656e74207468616e206e65772073746160848201527f746520726f6f740000000000000000000000000000000000000000000000000060a482015260c401610b3f565b60655460ff166157df5760405162461bcd60e51b815260206004820152603b60248201527f456d657267656e63794d616e616765723a3a6966456d657267656e637953746160448201527f74653a206f6e6c7920696620656d657267656e637920737461746500000000006064820152608401610b3f565b6065805460ff191690556040517f1e5e34eea33501aecf2ebec9fe0e884a40804275ea7fe10b2ba084c8374308b390600090a1565b6000615869826040518060400160405280602081526020017f5361666545524332303a206c6f772d6c6576656c2063616c6c206661696c6564815250856001600160a01b0316615a039092919063ffffffff16565b8051909150156158f9578080602001905181019061588791906167b4565b6158f95760405162461bcd60e51b815260206004820152602a60248201527f5361666545524332303a204552433230206f7065726174696f6e20646964206e60448201527f6f742073756363656564000000000000000000000000000000000000000000006064820152608401610b3f565b505050565b6040516001600160a01b0383166024820152604481018290526158f99084907fa9059cbb000000000000000000000000000000000000000000000000000000009060640161467d565b60655460ff16156159cb5760405162461bcd60e51b815260206004820152604260248201527f456d657267656e63794d616e616765723a3a69664e6f74456d657267656e637960448201527f53746174653a206f6e6c79206966206e6f7420656d657267656e637920737461606482015261746560f01b608482015260a401610b3f565b6065805460ff191660011790556040517f2261efe5aef6fedc1fd1550b25facc9181745623049c7901287030b9ad1a549790600090a1565b6060615a128484600085615a1a565b949350505050565b606082471015615a925760405162461bcd60e51b815260206004820152602660248201527f416464726573733a20696e73756666696369656e742062616c616e636520666f60448201527f722063616c6c00000000000000000000000000000000000000000000000000006064820152608401610b3f565b600080866001600160a01b03168587604051615aae9190616425565b60006040518083038185875af1925050503d8060008114615aeb576040519150601f19603f3d011682016040523d82523d6000602084013e615af0565b606091505b5091509150615b0187838387615b0c565b979650505050505050565b60608315615b7b578251600003615b74576001600160a01b0385163b615b745760405162461bcd60e51b815260206004820152601d60248201527f416464726573733a2063616c6c20746f206e6f6e2d636f6e74726163740000006044820152606401610b3f565b5081615a12565b615a128383815115615b905781518083602001fd5b8060405162461bcd60e51b8152600401610b3f9190615c73565b80356001600160401b0381168114615bc157600080fd5b919050565b600080600080600060a08688031215615bde57600080fd5b615be786615baa565b9450615bf560208701615baa565b9350615c0360408701615baa565b94979396509394606081013594506080013592915050565b60005b83811015615c36578181015183820152602001615c1e565b838111156142e85750506000910152565b60008151808452615c5f816020860160208601615c1b565b601f01601f19169290920160200192915050565b602081526000615c866020830184615c47565b9392505050565b8060408101831015615c9e57600080fd5b92915050565b8060808101831015615c9e57600080fd5b6000806000806000806000806101a0898b031215615cd257600080fd5b615cdb89615baa565b9750615ce960208a01615baa565b9650615cf760408a01615baa565b95506060890135945060808901359350615d148a60a08b01615c8d565b9250615d238a60e08b01615ca4565b9150615d338a6101608b01615c8d565b90509295985092959890939650565b600080600080600060a08688031215615d5a57600080fd5b615d6386615baa565b9450615d7160208701615baa565b94979496505050506040830135926060810135926080909101359150565b600060208284031215615da157600080fd5b615c8682615baa565b634e487b7160e01b600052604160045260246000fd5b604051608081016001600160401b0381118282101715615de257615de2615daa565b60405290565b604051606081016001600160401b0381118282101715615de257615de2615daa565b604051601f8201601f191681016001600160401b0381118282101715615e3257615e32615daa565b604052919050565b60006001600160401b03821115615e5357615e53615daa565b5060051b60200190565b600082601f830112615e6e57600080fd5b81356001600160401b03811115615e8757615e87615daa565b615e9a601f8201601f1916602001615e0a565b818152846020838601011115615eaf57600080fd5b816020850160208301376000918101602001919091529392505050565b60006020808385031215615edf57600080fd5b82356001600160401b0380821115615ef657600080fd5b818501915085601f830112615f0a57600080fd5b8135615f1d615f1882615e3a565b615e0a565b81815260059190911b83018401908481019088831115615f3c57600080fd5b8585015b83811015615fd557803585811115615f585760008081fd5b86016080818c03601f1901811315615f705760008081fd5b615f78615dc0565b8983013588811115615f8a5760008081fd5b615f988e8c83870101615e5d565b8252506040808401358b8301526060615fb2818601615baa565b82840152615fc1848601615baa565b908301525085525050918601918601615f40565b5098975050505050505050565b6001600160a01b0381168114612e8357600080fd5b60006020828403121561600957600080fd5b8135615c8681615fe2565b600080600080600060a0868803121561602c57600080fd5b8535945060208601356001600160401b0381111561604957600080fd5b61605588828901615e5d565b9450506040860135925061606b60608701615baa565b9150608086013561607b81615fe2565b809150509295509295909350565b600080600080600080600080888a036101c08112156160a757600080fd5b89356160b281615fe2565b985060208a01356160c281615fe2565b975060408a01356160d281615fe2565b965060608a01356160e281615fe2565b955060e0607f19820112156160f657600080fd5b5060808901935061016089013592506101808901356001600160401b038082111561612057600080fd5b61612c8c838d01615e5d565b93506101a08b013591508082111561614357600080fd5b506161508b828c01615e5d565b9150509295985092959890939650565b60008060008060008060008060006101c08a8c03121561617f57600080fd5b6161888a615baa565b985061619660208b01615baa565b97506161a460408b01615baa565b96506161b260608b01615baa565b955060808a0135945060a08a013593506161cf8b60c08c01615c8d565b92506161df8b6101008c01615ca4565b91506161ef8b6101808c01615c8d565b90509295985092959850929598565b60006020828403121561621057600080fd5b5035919050565b8015158114612e8357600080fd5b60006020828403121561623757600080fd5b8135615c8681616217565b60006020828403121561625457600080fd5b81356001600160401b0381111561626a57600080fd5b615a1284828501615e5d565b6000602080838503121561628957600080fd5b82356001600160401b03808211156162a057600080fd5b818501915085601f8301126162b457600080fd5b81356162c2615f1882615e3a565b81815260059190911b830184019084810190888311156162e157600080fd5b8585015b83811015615fd5578035858111156162fd5760008081fd5b86016060818c03601f19018113156163155760008081fd5b61631d615de8565b898301358881111561632f5760008081fd5b61633d8e8c83870101615e5d565b8252506040808401358b830152616355838501615baa565b90820152855250509186019186016162e5565b6000806000806080858703121561637e57600080fd5b61638785615baa565b93506020850135925061639c60408601615baa565b91506163aa60608601615baa565b905092959194509250565b600080604083850312156163c857600080fd5b82356001600160401b038111156163de57600080fd5b6163ea85828601615e5d565b95602094909401359450505050565b6000806040838503121561640c57600080fd5b8235915061641c60208401615baa565b90509250929050565b60008251616437818460208701615c1b565b9190910192915050565b60006020828403121561645357600080fd5b5051919050565b634e487b7160e01b600052601260045260246000fd5b60008261647f5761647f61645a565b500690565b600181811c9082168061649857607f821691505b6020821081036164b857634e487b7160e01b600052602260045260246000fd5b50919050565b634e487b7160e01b600052601160045260246000fd5b60006001600160401b038083168185168083038211156164f6576164f66164be565b01949350505050565b634e487b7160e01b600052603260045260246000fd5b60006001600160401b03808316818103616531576165316164be565b6001019392505050565b60006001820161654d5761654d6164be565b5060010190565b60006001600160401b0383811690831681811015616574576165746164be565b039392505050565b60008282101561658e5761658e6164be565b500390565b60008160001904831182151516156165ad576165ad6164be565b500290565b601f8211156158f957600081815260208120601f850160051c810160208610156165d95750805b601f850160051c820191505b81811015614e45578281556001016165e5565b81516001600160401b0381111561661157616611615daa565b6166258161661f8454616484565b846165b2565b602080601f83116001811461665a57600084156166425750858301515b600019600386901b1c1916600185901b178555614e45565b600085815260208120601f198616915b828110156166895788860151825594840194600190910190840161666a565b50858210156166a75787850151600019600388901b60f8161c191681555b5050505050600190811b01905550565b6000826166c6576166c661645a565b500490565b600082198211156166de576166de6164be565b500190565b8381526001600160a01b038316602082015260606040820152600061670b6060830184615c47565b95945050505050565b60006001600160401b038084168061672e5761672e61645a565b92169190910492915050565b61012081016040808784376000838201818152879190815b600281101561677257848483379084018281529284019290600101616752565b5050828760c0870137610100850181815286935091505b60018110156167a8578251825260209283019290910190600101616789565b50505095945050505050565b6000602082840312156167c657600080fd5b8151615c868161621756fe50726f6f664f66456666696369656e63793a3a76657269667942617463686573a26469706673582212206766ee4c25880f751957b3a9136efafc9fe18cb22e259d465315d5dcdee6895964736f6c634300080f0033",
  "linkReferences": {},
  "deployedLinkReferences": {}
}