{
  "_format": "hh-sol-artifact-1",
  "contractName": "ProofOfEfficiency",
  "sourceName": "contracts/ProofOfEfficiency.sol",
  "abi": [
    {
      "anonymous": false,
      "inputs": [
        {
          "indexed": true,
          "internalType": "uint64",
          "name": "numBatch",
          "type": "uint64"
        },
        {
          "indexed": false,
          "internalType": "bytes32",
          "name": "stateRoot",
          "type": "bytes32"
        },
        {
          "indexed": true,
          "internalType": "address",
          "name": "aggregator",
          "type": "address"
        }
      ],
      "name": "ConsolidatePendingState",
      "type": "event"
    },
    {
      "anonymous": false,
      "inputs": [],
      "name": "EmergencyStateActivated",
      "type": "event"
    },
    {
      "anonymous": false,
      "inputs": [],
      "name": "EmergencyStateDeactivated",
      "type": "event"
    },
    {
      "anonymous": false,
      "inputs": [
        {
          "indexed": true,
          "internalType": "uint64",
          "name": "forceBatchNum",
          "type": "uint64"
        },
        {
          "indexed": false,
          "internalType": "bytes32",
          "name": "lastGlobalExitRoot",
          "type": "bytes32"
        },
        {
          "indexed": false,
          "internalType": "address",
          "name": "sequencer",
          "type": "address"
        },
        {
          "indexed": false,
          "internalType": "bytes",
          "name": "transactions",
          "type": "bytes"
        }
      ],
      "name": "ForceBatch",
      "type": "event"
    },
    {
      "anonymous": false,
      "inputs": [
        {
          "indexed": false,
          "internalType": "uint8",
          "name": "version",
          "type": "uint8"
        }
      ],
      "name": "Initialized",
      "type": "event"
    },
    {
      "anonymous": false,
      "inputs": [
        {
          "indexed": true,
          "internalType": "address",
          "name": "previousOwner",
          "type": "address"
        },
        {
          "indexed": true,
          "internalType": "address",
          "name": "newOwner",
          "type": "address"
        }
      ],
      "name": "OwnershipTransferred",
      "type": "event"
    },
    {
      "anonymous": false,
      "inputs": [
        {
          "indexed": false,
          "internalType": "bytes32",
          "name": "storedStateRoot",
          "type": "bytes32"
        },
        {
          "indexed": false,
          "internalType": "bytes32",
          "name": "provedStateRoot",
          "type": "bytes32"
        }
      ],
      "name": "ProveNonDeterministicState",
      "type": "event"
    },
    {
      "anonymous": false,
      "inputs": [
        {
          "indexed": true,
          "internalType": "uint64",
          "name": "numBatch",
          "type": "uint64"
        }
      ],
      "name": "SequenceBatches",
      "type": "event"
    },
    {
      "anonymous": false,
      "inputs": [
        {
          "indexed": true,
          "internalType": "uint64",
          "name": "numBatch",
          "type": "uint64"
        }
      ],
      "name": "SequenceForceBatches",
      "type": "event"
    },
    {
      "anonymous": false,
      "inputs": [
        {
          "indexed": false,
          "internalType": "bool",
          "name": "newForceBatchAllowed",
          "type": "bool"
        }
      ],
      "name": "SetForceBatchAllowed",
      "type": "event"
    },
    {
      "anonymous": false,
      "inputs": [
        {
          "indexed": false,
          "internalType": "address",
          "name": "newTrustedAggregator",
          "type": "address"
        }
      ],
      "name": "SetTrustedAggregator",
      "type": "event"
    },
    {
      "anonymous": false,
      "inputs": [
        {
          "indexed": false,
          "internalType": "uint64",
          "name": "newTrustedAggregatorTimeout",
          "type": "uint64"
        }
      ],
      "name": "SetTrustedAggregatorTimeout",
      "type": "event"
    },
    {
      "anonymous": false,
      "inputs": [
        {
          "indexed": false,
          "internalType": "address",
          "name": "newTrustedSequencer",
          "type": "address"
        }
      ],
      "name": "SetTrustedSequencer",
      "type": "event"
    },
    {
      "anonymous": false,
      "inputs": [
        {
          "indexed": false,
          "internalType": "string",
          "name": "newTrustedSequencerURL",
          "type": "string"
        }
      ],
      "name": "SetTrustedSequencerURL",
      "type": "event"
    },
    {
      "anonymous": false,
      "inputs": [
        {
          "indexed": true,
          "internalType": "uint64",
          "name": "numBatch",
          "type": "uint64"
        },
        {
          "indexed": false,
          "internalType": "bytes32",
          "name": "stateRoot",
          "type": "bytes32"
        },
        {
          "indexed": true,
          "internalType": "address",
          "name": "aggregator",
          "type": "address"
        }
      ],
      "name": "TrustedVerifyBatches",
      "type": "event"
    },
    {
      "anonymous": false,
      "inputs": [
        {
          "indexed": true,
          "internalType": "uint64",
          "name": "numBatch",
          "type": "uint64"
        },
        {
          "indexed": false,
          "internalType": "bytes32",
          "name": "stateRoot",
          "type": "bytes32"
        },
        {
          "indexed": true,
          "internalType": "address",
          "name": "aggregator",
          "type": "address"
        }
      ],
      "name": "VerifyBatches",
      "type": "event"
    },
    {
      "inputs": [],
      "name": "FORCE_BATCH_TIMEOUT",
      "outputs": [
        {
          "internalType": "uint64",
          "name": "",
          "type": "uint64"
        }
      ],
      "stateMutability": "view",
      "type": "function"
    },
    {
      "inputs": [],
      "name": "HALT_AGGREGATION_TIMEOUT",
      "outputs": [
        {
          "internalType": "uint64",
          "name": "",
          "type": "uint64"
        }
      ],
      "stateMutability": "view",
      "type": "function"
    },
    {
      "inputs": [],
      "name": "MAX_BATCH_LENGTH",
      "outputs": [
        {
          "internalType": "uint256",
          "name": "",
          "type": "uint256"
        }
      ],
      "stateMutability": "view",
      "type": "function"
    },
    {
      "inputs": [],
      "name": "MAX_TRUSTED_AGGREGATOR_TIMEOUT",
      "outputs": [
        {
          "internalType": "uint64",
          "name": "",
          "type": "uint64"
        }
      ],
      "stateMutability": "view",
      "type": "function"
    },
    {
      "inputs": [],
      "name": "TRUSTED_SEQUENCER_FEE",
      "outputs": [
        {
          "internalType": "uint256",
          "name": "",
          "type": "uint256"
        }
      ],
      "stateMutability": "view",
      "type": "function"
    },
    {
      "inputs": [
        {
          "internalType": "uint64",
          "name": "sequencedBatchNum",
          "type": "uint64"
        }
      ],
      "name": "activateEmergencyState",
      "outputs": [],
      "stateMutability": "nonpayable",
      "type": "function"
    },
    {
      "inputs": [
        {
          "internalType": "uint64",
          "name": "",
          "type": "uint64"
        }
      ],
      "name": "batchNumToStateRoot",
      "outputs": [
        {
          "internalType": "bytes32",
          "name": "",
          "type": "bytes32"
        }
      ],
      "stateMutability": "view",
      "type": "function"
    },
    {
      "inputs": [],
      "name": "bridgeAddress",
      "outputs": [
        {
          "internalType": "contract IBridge",
          "name": "",
          "type": "address"
        }
      ],
      "stateMutability": "view",
      "type": "function"
    },
    {
      "inputs": [],
      "name": "calculateBatchFee",
      "outputs": [
        {
          "internalType": "uint256",
          "name": "",
          "type": "uint256"
        }
      ],
      "stateMutability": "view",
      "type": "function"
    },
    {
      "inputs": [],
      "name": "calculateRewardPerBatch",
      "outputs": [
        {
          "internalType": "uint256",
          "name": "",
          "type": "uint256"
        }
      ],
      "stateMutability": "view",
      "type": "function"
    },
    {
      "inputs": [],
      "name": "chainID",
      "outputs": [
        {
          "internalType": "uint64",
          "name": "",
          "type": "uint64"
        }
      ],
      "stateMutability": "view",
      "type": "function"
    },
    {
      "inputs": [
        {
          "internalType": "uint64",
          "name": "pendingStateNum",
          "type": "uint64"
        }
      ],
      "name": "consolidatePendingState",
      "outputs": [],
      "stateMutability": "nonpayable",
      "type": "function"
    },
    {
      "inputs": [],
      "name": "deactivateEmergencyState",
      "outputs": [],
      "stateMutability": "nonpayable",
      "type": "function"
    },
    {
      "inputs": [
        {
          "internalType": "bytes",
          "name": "transactions",
          "type": "bytes"
        },
        {
          "internalType": "uint256",
          "name": "maticAmount",
          "type": "uint256"
        }
      ],
      "name": "forceBatch",
      "outputs": [],
      "stateMutability": "nonpayable",
      "type": "function"
    },
    {
      "inputs": [],
      "name": "forceBatchAllowed",
      "outputs": [
        {
          "internalType": "bool",
          "name": "",
          "type": "bool"
        }
      ],
      "stateMutability": "view",
      "type": "function"
    },
    {
      "inputs": [
        {
          "internalType": "uint64",
          "name": "",
          "type": "uint64"
        }
      ],
      "name": "forcedBatches",
      "outputs": [
        {
          "internalType": "bytes32",
          "name": "",
          "type": "bytes32"
        }
      ],
      "stateMutability": "view",
      "type": "function"
    },
    {
      "inputs": [
        {
          "internalType": "uint64",
          "name": "initNumBatch",
          "type": "uint64"
        },
        {
          "internalType": "uint64",
          "name": "finalNewBatch",
          "type": "uint64"
        },
        {
          "internalType": "bytes32",
          "name": "newLocalExitRoot",
          "type": "bytes32"
        },
        {
          "internalType": "bytes32",
          "name": "oldStateRoot",
          "type": "bytes32"
        },
        {
          "internalType": "bytes32",
          "name": "newStateRoot",
          "type": "bytes32"
        }
      ],
      "name": "getInputSnarkBytes",
      "outputs": [
        {
          "internalType": "bytes",
          "name": "",
          "type": "bytes"
        }
      ],
      "stateMutability": "view",
      "type": "function"
    },
    {
      "inputs": [],
      "name": "globalExitRootManager",
      "outputs": [
        {
          "internalType": "contract IGlobalExitRootManager",
          "name": "",
          "type": "address"
        }
      ],
      "stateMutability": "view",
      "type": "function"
    },
    {
      "inputs": [
        {
          "internalType": "contract IGlobalExitRootManager",
          "name": "_globalExitRootManager",
          "type": "address"
        },
        {
          "internalType": "contract IERC20Upgradeable",
          "name": "_matic",
          "type": "address"
        },
        {
          "internalType": "contract IVerifierRollup",
          "name": "_rollupVerifier",
          "type": "address"
        },
        {
          "internalType": "bytes32",
          "name": "genesisRoot",
          "type": "bytes32"
        },
        {
          "internalType": "address",
          "name": "_trustedSequencer",
          "type": "address"
        },
        {
          "internalType": "bool",
          "name": "_forceBatchAllowed",
          "type": "bool"
        },
        {
          "internalType": "string",
          "name": "_trustedSequencerURL",
          "type": "string"
        },
        {
          "internalType": "uint64",
          "name": "_chainID",
          "type": "uint64"
        },
        {
          "internalType": "string",
          "name": "_networkName",
          "type": "string"
        },
        {
          "internalType": "contract IBridge",
          "name": "_bridgeAddress",
          "type": "address"
        },
        {
          "internalType": "address",
          "name": "_trustedAggregator",
          "type": "address"
        },
        {
          "internalType": "uint64",
          "name": "_trustedAggregatorTimeout",
          "type": "uint64"
        }
      ],
      "name": "initialize",
      "outputs": [],
      "stateMutability": "nonpayable",
      "type": "function"
    },
    {
      "inputs": [],
      "name": "isEmergencyState",
      "outputs": [
        {
          "internalType": "bool",
          "name": "",
          "type": "bool"
        }
      ],
      "stateMutability": "view",
      "type": "function"
    },
    {
      "inputs": [],
      "name": "lastBatchSequenced",
      "outputs": [
        {
          "internalType": "uint64",
          "name": "",
          "type": "uint64"
        }
      ],
      "stateMutability": "view",
      "type": "function"
    },
    {
      "inputs": [],
      "name": "lastForceBatch",
      "outputs": [
        {
          "internalType": "uint64",
          "name": "",
          "type": "uint64"
        }
      ],
      "stateMutability": "view",
      "type": "function"
    },
    {
      "inputs": [],
      "name": "lastForceBatchSequenced",
      "outputs": [
        {
          "internalType": "uint64",
          "name": "",
          "type": "uint64"
        }
      ],
      "stateMutability": "view",
      "type": "function"
    },
    {
      "inputs": [],
      "name": "lastPendingState",
      "outputs": [
        {
          "internalType": "uint64",
          "name": "",
          "type": "uint64"
        }
      ],
      "stateMutability": "view",
      "type": "function"
    },
    {
      "inputs": [],
      "name": "lastPendingStateConsolidated",
      "outputs": [
        {
          "internalType": "uint64",
          "name": "",
          "type": "uint64"
        }
      ],
      "stateMutability": "view",
      "type": "function"
    },
    {
      "inputs": [],
      "name": "lastTimestamp",
      "outputs": [
        {
          "internalType": "uint64",
          "name": "",
          "type": "uint64"
        }
      ],
      "stateMutability": "view",
      "type": "function"
    },
    {
      "inputs": [],
      "name": "lastVerifiedBatch",
      "outputs": [
        {
          "internalType": "uint64",
          "name": "",
          "type": "uint64"
        }
      ],
      "stateMutability": "view",
      "type": "function"
    },
    {
      "inputs": [],
      "name": "matic",
      "outputs": [
        {
          "internalType": "contract IERC20Upgradeable",
          "name": "",
          "type": "address"
        }
      ],
      "stateMutability": "view",
      "type": "function"
    },
    {
      "inputs": [],
      "name": "networkName",
      "outputs": [
        {
          "internalType": "string",
          "name": "",
          "type": "string"
        }
      ],
      "stateMutability": "view",
      "type": "function"
    },
    {
      "inputs": [],
      "name": "openAggregationUntil",
      "outputs": [
        {
          "internalType": "uint64",
          "name": "",
          "type": "uint64"
        }
      ],
      "stateMutability": "view",
      "type": "function"
    },
    {
      "inputs": [],
      "name": "owner",
      "outputs": [
        {
          "internalType": "address",
          "name": "",
          "type": "address"
        }
      ],
      "stateMutability": "view",
      "type": "function"
    },
    {
      "inputs": [],
      "name": "pendingStateTimeout",
      "outputs": [
        {
          "internalType": "uint64",
          "name": "",
          "type": "uint64"
        }
      ],
      "stateMutability": "view",
      "type": "function"
    },
    {
      "inputs": [
        {
          "internalType": "uint256",
          "name": "",
          "type": "uint256"
        }
      ],
      "name": "pendingStateTransitions",
      "outputs": [
        {
          "internalType": "uint64",
          "name": "timestamp",
          "type": "uint64"
        },
        {
          "internalType": "uint64",
          "name": "lastVerifiedBatch",
          "type": "uint64"
        },
        {
          "internalType": "bytes32",
          "name": "exitRoot",
          "type": "bytes32"
        },
        {
          "internalType": "bytes32",
          "name": "stateRoot",
          "type": "bytes32"
        }
      ],
      "stateMutability": "view",
      "type": "function"
    },
    {
      "inputs": [
        {
          "internalType": "uint64",
          "name": "initPendingStateNum",
          "type": "uint64"
        },
        {
          "internalType": "uint64",
          "name": "finalPendingStateNum",
          "type": "uint64"
        },
        {
          "internalType": "uint64",
          "name": "initNumBatch",
          "type": "uint64"
        },
        {
          "internalType": "uint64",
          "name": "finalNewBatch",
          "type": "uint64"
        },
        {
          "internalType": "bytes32",
          "name": "newLocalExitRoot",
          "type": "bytes32"
        },
        {
          "internalType": "bytes32",
          "name": "newStateRoot",
          "type": "bytes32"
        },
        {
          "internalType": "uint256[2]",
          "name": "proofA",
          "type": "uint256[2]"
        },
        {
          "internalType": "uint256[2][2]",
          "name": "proofB",
          "type": "uint256[2][2]"
        },
        {
          "internalType": "uint256[2]",
          "name": "proofC",
          "type": "uint256[2]"
        }
      ],
      "name": "proveNonDeterministicPendingState",
      "outputs": [],
      "stateMutability": "nonpayable",
      "type": "function"
    },
    {
      "inputs": [],
      "name": "renounceOwnership",
      "outputs": [],
      "stateMutability": "nonpayable",
      "type": "function"
    },
    {
      "inputs": [],
      "name": "rollupVerifier",
      "outputs": [
        {
          "internalType": "contract IVerifierRollup",
          "name": "",
          "type": "address"
        }
      ],
      "stateMutability": "view",
      "type": "function"
    },
    {
      "inputs": [
        {
          "components": [
            {
              "internalType": "bytes",
              "name": "transactions",
              "type": "bytes"
            },
            {
              "internalType": "bytes32",
              "name": "globalExitRoot",
              "type": "bytes32"
            },
            {
              "internalType": "uint64",
              "name": "timestamp",
              "type": "uint64"
            },
            {
              "internalType": "uint64",
              "name": "minForcedTimestamp",
              "type": "uint64"
            }
          ],
          "internalType": "struct ProofOfEfficiency.BatchData[]",
          "name": "batches",
          "type": "tuple[]"
        }
      ],
      "name": "sequenceBatches",
      "outputs": [],
      "stateMutability": "nonpayable",
      "type": "function"
    },
    {
      "inputs": [
        {
          "components": [
            {
              "internalType": "bytes",
              "name": "transactions",
              "type": "bytes"
            },
            {
              "internalType": "bytes32",
              "name": "globalExitRoot",
              "type": "bytes32"
            },
            {
              "internalType": "uint64",
              "name": "minForcedTimestamp",
              "type": "uint64"
            }
          ],
          "internalType": "struct ProofOfEfficiency.ForcedBatchData[]",
          "name": "batches",
          "type": "tuple[]"
        }
      ],
      "name": "sequenceForceBatches",
      "outputs": [],
      "stateMutability": "nonpayable",
      "type": "function"
    },
    {
      "inputs": [
        {
          "internalType": "uint64",
          "name": "",
          "type": "uint64"
        }
      ],
      "name": "sequencedBatches",
      "outputs": [
        {
          "internalType": "bytes32",
          "name": "accInputHash",
          "type": "bytes32"
        },
        {
          "internalType": "uint64",
          "name": "sequencedTimestamp",
          "type": "uint64"
        }
      ],
      "stateMutability": "view",
      "type": "function"
    },
    {
      "inputs": [
        {
          "internalType": "bool",
          "name": "newForceBatchAllowed",
          "type": "bool"
        }
      ],
      "name": "setForceBatchAllowed",
      "outputs": [],
      "stateMutability": "nonpayable",
      "type": "function"
    },
    {
      "inputs": [
        {
          "internalType": "address",
          "name": "newTrustedAggregator",
          "type": "address"
        }
      ],
      "name": "setTrustedAggregator",
      "outputs": [],
      "stateMutability": "nonpayable",
      "type": "function"
    },
    {
      "inputs": [
        {
          "internalType": "uint64",
          "name": "newTrustedAggregatorTimeout",
          "type": "uint64"
        }
      ],
      "name": "setTrustedAggregatorTimeout",
      "outputs": [],
      "stateMutability": "nonpayable",
      "type": "function"
    },
    {
      "inputs": [
        {
          "internalType": "address",
          "name": "newTrustedSequencer",
          "type": "address"
        }
      ],
      "name": "setTrustedSequencer",
      "outputs": [],
      "stateMutability": "nonpayable",
      "type": "function"
    },
    {
      "inputs": [
        {
          "internalType": "string",
          "name": "newTrustedSequencerURL",
          "type": "string"
        }
      ],
      "name": "setTrustedSequencerURL",
      "outputs": [],
      "stateMutability": "nonpayable",
      "type": "function"
    },
    {
      "inputs": [
        {
          "internalType": "address",
          "name": "newOwner",
          "type": "address"
        }
      ],
      "name": "transferOwnership",
      "outputs": [],
      "stateMutability": "nonpayable",
      "type": "function"
    },
    {
      "inputs": [],
      "name": "trustedAggregator",
      "outputs": [
        {
          "internalType": "address",
          "name": "",
          "type": "address"
        }
      ],
      "stateMutability": "view",
      "type": "function"
    },
    {
      "inputs": [],
      "name": "trustedAggregatorTimeout",
      "outputs": [
        {
          "internalType": "uint64",
          "name": "",
          "type": "uint64"
        }
      ],
      "stateMutability": "view",
      "type": "function"
    },
    {
      "inputs": [],
      "name": "trustedSequencer",
      "outputs": [
        {
          "internalType": "address",
          "name": "",
          "type": "address"
        }
      ],
      "stateMutability": "view",
      "type": "function"
    },
    {
      "inputs": [],
      "name": "trustedSequencerURL",
      "outputs": [
        {
          "internalType": "string",
          "name": "",
          "type": "string"
        }
      ],
      "stateMutability": "view",
      "type": "function"
    },
    {
      "inputs": [
        {
          "internalType": "uint64",
          "name": "pendingStateNum",
          "type": "uint64"
        },
        {
          "internalType": "uint64",
          "name": "initNumBatch",
          "type": "uint64"
        },
        {
          "internalType": "uint64",
          "name": "finalNewBatch",
          "type": "uint64"
        },
        {
          "internalType": "bytes32",
          "name": "newLocalExitRoot",
          "type": "bytes32"
        },
        {
          "internalType": "bytes32",
          "name": "newStateRoot",
          "type": "bytes32"
        },
        {
          "internalType": "uint256[2]",
          "name": "proofA",
          "type": "uint256[2]"
        },
        {
          "internalType": "uint256[2][2]",
          "name": "proofB",
          "type": "uint256[2][2]"
        },
        {
          "internalType": "uint256[2]",
          "name": "proofC",
          "type": "uint256[2]"
        }
      ],
      "name": "trustedVerifyBatches",
      "outputs": [],
      "stateMutability": "nonpayable",
      "type": "function"
    },
    {
      "inputs": [
        {
          "internalType": "uint64",
          "name": "pendingStateNum",
          "type": "uint64"
        },
        {
          "internalType": "uint64",
          "name": "initNumBatch",
          "type": "uint64"
        },
        {
          "internalType": "uint64",
          "name": "finalNewBatch",
          "type": "uint64"
        },
        {
          "internalType": "bytes32",
          "name": "newLocalExitRoot",
          "type": "bytes32"
        },
        {
          "internalType": "bytes32",
          "name": "newStateRoot",
          "type": "bytes32"
        },
        {
          "internalType": "uint256[2]",
          "name": "proofA",
          "type": "uint256[2]"
        },
        {
          "internalType": "uint256[2][2]",
          "name": "proofB",
          "type": "uint256[2][2]"
        },
        {
          "internalType": "uint256[2]",
          "name": "proofC",
          "type": "uint256[2]"
        }
      ],
      "name": "verifyBatches",
      "outputs": [],
      "stateMutability": "nonpayable",
      "type": "function"
    }
  ],
  "bytecode": "0x608060405234801561001057600080fd5b506156f080620000216000396000f3fe608060405234801561001057600080fd5b50600436106103415760003560e01c8063841b24d7116101bd578063d02103ca116100f9578063e7a7ed02116100a2578063edc411211161007c578063edc411211461079a578063f14916d6146107ad578063f2fde38b146107c0578063f7552761146107d357600080fd5b8063e7a7ed021461075a578063e8bf92ed14610774578063eaeb077b1461078757600080fd5b8063d939b315116100d3578063d939b31514610738578063dbc1697614610752578063e79171ed1461060057600080fd5b8063d02103ca146106fe578063d8d1091b14610711578063d8f54db01461072457600080fd5b8063ab9fc5ef11610166578063b4d63f5811610140578063b4d63f581461066c578063b6b0b097146106b9578063c89e42df146106d1578063cfa8ed47146106e457600080fd5b8063ab9fc5ef14610600578063adc879e914610649578063b02286c01461066357600080fd5b80638da5cb5b116101975780638da5cb5b1461061d57806399f5634e1461062e578063a3c573eb1461063657600080fd5b8063841b24d7146105e65780638b48931e146106005780638c4a0af71461060a57600080fd5b80634a1a89a71161028c5780636ff512cc1161023557806375c508b31161020f57806375c508b31461054a5780637abaf3e61461055d5780637fcb365314610565578063837a47381461057857600080fd5b80636ff512cc1461051c578063715018a61461052f5780637215541a1461053757600080fd5b80635392c5e0116102665780635392c5e0146104c6578063542028d5146104f45780636b8616ce146104fc57600080fd5b80634a1a89a7146104865780634a910e6a146104a05780634de93099146104b357600080fd5b8063394218e9116102ee57806345605267116102c85780634560526714610446578063458c0477146104605780634834a3431461047357600080fd5b8063394218e9146104045780633c15826714610419578063423fa8561461042c57600080fd5b8063220d78991161031f578063220d7899146103ac57806326daf80c146103bf57806329878983146103d957600080fd5b8063107bf28c1461034657806315064c961461036457806319d8ac6114610381575b600080fd5b61034e6107e2565b60405161035b9190614bdf565b60405180910390f35b6065546103719060ff1681565b604051901515815260200161035b565b606854610394906001600160401b031681565b6040516001600160401b03909116815260200161035b565b61034e6103ba366004614c15565b610870565b606a5461039490600160a01b90046001600160401b031681565b606a546103ec906001600160a01b031681565b6040516001600160a01b03909116815260200161035b565b610417610412366004614c62565b610a33565b005b610417610427366004614d9f565b610be0565b60685461039490600160401b90046001600160401b031681565b60685461039490600160801b90046001600160401b031681565b607254610394906001600160401b031681565b610417610481366004614edd565b6114a3565b60725461039490600160401b90046001600160401b031681565b6104176104ae366004614c62565b611ca5565b6104176104c1366004614fa3565b611f84565b6104e66104d4366004614c62565b606d6020526000908152604090205481565b60405190815260200161035b565b61034e61224d565b6104e661050a366004614c62565b60666020526000908152604090205481565b61041761052a3660046150b1565b61225a565b610417612350565b610417610545366004614c62565b612364565b6104176105583660046150ce565b612545565b6104e6612e16565b606954610394906001600160401b031681565b6105bb61058636600461516c565b6071602052600090815260409020805460018201546002909201546001600160401b0380831693600160401b90930416919084565b604080516001600160401b03958616815294909316602085015291830152606082015260800161035b565b60725461039490600160c01b90046001600160401b031681565b61039462093a8081565b610417610618366004615185565b612e6c565b6033546001600160a01b03166103ec565b6104e6612f5b565b6070546103ec906001600160a01b031681565b606b5461039490600160a01b90046001600160401b031681565b6104e661ea6081565b61069c61067a366004614c62565b606760205260009081526040902080546001909101546001600160401b031682565b604080519283526001600160401b0390911660208301520161035b565b6065546103ec9061010090046001600160a01b031681565b6104176106df3660046151a2565b613056565b6069546103ec90600160401b90046001600160a01b031681565b606c546103ec906001600160a01b031681565b61041761071f3660046151d6565b613119565b606c5461037190600160a01b900460ff1681565b60725461039490600160801b90046001600160401b031681565b6104176136ec565b60685461039490600160c01b90046001600160401b031681565b606b546103ec906001600160a01b031681565b6104176107953660046152c8565b61385e565b6104176107a8366004614edd565b613c9d565b6104176107bb3660046150b1565b6142e8565b6104176107ce3660046150b1565b6143cd565b6104e667016345785d8a000081565b606f80546107ef9061530c565b80601f016020809104026020016040519081016040528092919081815260200182805461081b9061530c565b80156108685780601f1061083d57610100808354040283529160200191610868565b820191906000526020600020905b81548152906001019060200180831161084b57829003601f168201915b505050505081565b6001600160401b038086166000818152606760205260408082205493881682529020546060929115806108a257508115155b6109275760405162461bcd60e51b815260206004820152604560248201527f50726f6f664f66456666696369656e63793a3a676574496e707574536e61726b60448201527f42797465733a206f6c64416363496e7075744861736820646f6573206e6f7420606482015264195e1a5cdd60da1b608482015260a4015b60405180910390fd5b806109a85760405162461bcd60e51b815260206004820152604560248201527f50726f6f664f66456666696369656e63793a3a676574496e707574536e61726b60448201527f42797465733a206e6577416363496e7075744861736820646f6573206e6f7420606482015264195e1a5cdd60da1b608482015260a40161091e565b606b54604080516bffffffffffffffffffffffff193360601b166020820152603481019790975260548701939093526001600160c01b031960c0998a1b81166074880152600160a01b909104891b8116607c870152608486019490945260a485015260c4840194909452509290931b90911660e4830152805180830360cc01815260ec909201905290565b606a546001600160a01b03163314610abd5760405162461bcd60e51b815260206004820152604160248201527f50726f6f664f66456666696369656e63793a3a6f6e6c7954727573746564416760448201527f6772656761746f723a206f6e6c7920747275737465642041676772656761746f6064820152603960f91b608482015260a40161091e565b60725462093a80600160c01b9091046001600160401b03161115610b6f5760405162461bcd60e51b815260206004820152604e60248201527f50726f6f664f66456666696369656e63793a3a7365745472757374656441676760448201527f72656761746f723a20657863656564206d61782074727573746564206167677260648201527f656761746f722074696d656f7574000000000000000000000000000000000000608482015260a40161091e565b6072805477ffffffffffffffffffffffffffffffffffffffffffffffff16600160c01b6001600160401b038481168202929092179283905560405192041681527f1f4fa24c2e4bad19a7f3ec5c5485f70d46c798461c2e684f55bbd0fc661373a1906020015b60405180910390a150565b60655460ff1615610c645760405162461bcd60e51b815260206004820152604260248201527f456d657267656e63794d616e616765723a3a69664e6f74456d657267656e637960448201527f53746174653a206f6e6c79206966206e6f7420656d657267656e637920737461606482015261746560f01b608482015260a40161091e565b606954600160401b90046001600160a01b03163314610ceb5760405162461bcd60e51b815260206004820152603f60248201527f50726f6f664f66456666696369656e63793a3a6f6e6c7954727573746564536560448201527f7175656e6365723a206f6e6c7920747275737465642073657175656e63657200606482015260840161091e565b805180610d6b5760405162461bcd60e51b815260206004820152604260248201527f50726f6f664f66456666696369656e63793a3a73657175656e6365426174636860448201527f65733a204174206c65617374206d7573742073657175656e63652031206261746064820152610c6d60f31b608482015260a40161091e565b6068546001600160401b03600160401b82048116600081815260676020526040812054838516949293600160801b90930490921691905b858110156112ba576000878281518110610dbe57610dbe615346565b60200260200101519050600081606001516001600160401b03161115610fa05783610de881615372565b945050600081600001518051906020012082602001518360600151604051602001610e3393929190928352602083019190915260c01b6001600160c01b031916604082015260480190565b60408051601f1981840301815291815281516020928301206001600160401b038816600090815260669093529120549091508114610ee45760405162461bcd60e51b815260206004820152604260248201527f50726f6f664f66456666696369656e63793a3a73657175656e6365426174636860448201527f65733a20466f7263656420626174636865732064617461206d757374206d61746064820152610c6d60f31b608482015260a40161091e565b81606001516001600160401b031682604001516001600160401b03161015610f9a5760405162461bcd60e51b815260206004820152605d60248201527f50726f6f664f66456666696369656e63793a3a73657175656e6365426174636860448201527f65733a20466f7263656420626174636865732074696d657374616d70206d757360648201527f7420626520626967676572206f7220657175616c207468616e206d696e000000608482015260a40161091e565b50611153565b602081015115806110425750606c5460208201516040517f257b36320000000000000000000000000000000000000000000000000000000081526001600160a01b039092169163257b363291610ffc9160040190815260200190565b6020604051808303816000875af115801561101b573d6000803e3d6000fd5b505050506040513d601f19601f8201168201806040525081019061103f9190615398565b15155b6110b45760405162461bcd60e51b815260206004820152603f60248201527f50726f6f664f66456666696369656e63793a3a73657175656e6365426174636860448201527f65733a20476c6f62616c206578697420726f6f74206d75737420657869737400606482015260840161091e565b80515161ea60116111535760405162461bcd60e51b815260206004820152604a60248201527f50726f6f664f664566666963696550656e64696e67537461746563793a3a736560448201527f7175656e6365426174636865733a205472616e73616374696f6e73206279746560648201527f73206f766572666c6f7700000000000000000000000000000000000000000000608482015260a40161091e565b856001600160401b031681604001516001600160401b03161015801561118657504281604001516001600160401b031611155b61121e5760405162461bcd60e51b815260206004820152604260248201527f50726f6f664f66456666696369656e63793a3a73657175656e6365426174636860448201527f65733a2054696d657374616d70206d75737420626520696e736964652072616e60648201527f6765000000000000000000000000000000000000000000000000000000000000608482015260a40161091e565b805180516020918201208183015160408085015181519485018890529084019290925260608084019190915260c09190911b6001600160c01b031916608083015233901b6bffffffffffffffffffffffff19166088820152609c01604051602081830303815290604052805190602001209250848061129c90615372565b955050806040015195505080806112b2906153b1565b915050610da2565b506068546001600160401b03600160c01b909104811690831611156113475760405162461bcd60e51b815260206004820152603a60248201527f50726f6f664f66456666696369656e63793a3a73657175656e6365426174636860448201527f65733a20466f7263652062617463686573206f766572666c6f77000000000000606482015260840161091e565b60685460009061136790600160801b90046001600160401b0316846153ca565b61137a906001600160401b0316876153f2565b606880546001600160401b03868116600160801b027fffffffffffffffff0000000000000000ffffffffffffffffffffffffffffffff898316600160401b81026fffffffffffffffffffffffffffffffff19909516848d1617949094171617909255604080518082018252868152428416602080830191825260009485526067905291909220915182555160019190910180549190921667ffffffffffffffff19919091161790559050611454333061143b8467016345785d8a0000615409565b60655461010090046001600160a01b031692919061445a565b61145c61450b565b606854604051600160401b9091046001600160401b0316907f303446e6a8cb73c83dff421c0b1d5e5ce0719dab1bff13660fc254e58cc17fce90600090a250505050505050565b60655460ff16156115275760405162461bcd60e51b815260206004820152604260248201527f456d657267656e63794d616e616765723a3a69664e6f74456d657267656e637960448201527f53746174653a206f6e6c79206966206e6f7420656d657267656e637920737461606482015261746560f01b608482015260a40161091e565b6072546001600160401b03878116600090815260676020526040902060010154429261155e92600160c01b90910481169116615428565b6001600160401b031611156115ef5760405162461bcd60e51b8152602060048201526048602482015260008051602061569b83398151915260448201527f3a20747275737465642061676772656761746f722074696d656f7574206e6f7460648201527f2065787069726564000000000000000000000000000000000000000000000000608482015260a40161091e565b60725460009081906001600160401b03161561163057506072546001600160401b03908116600090815260716020526040902054600160401b90041661163e565b506069546001600160401b03165b6001600160401b038a16156117a4576072546001600160401b03908116908b1611156116e65760405162461bcd60e51b815260206004820152605d602482015260008051602061569b83398151915260448201527f3a2070656e64696e6753746174654e756d206d757374206265206c657373206f60648201527f7220657175616c207468616e206c61737450656e64696e675374617465000000608482015260a40161091e565b6001600160401b03808b1660009081526071602052604090206002810154815490945090918b8116600160401b909204161461179e5760405162461bcd60e51b8152602060048201526051602482015260008051602061569b83398151915260448201527f3a20696e69744e756d4261746368206d757374206d617463682074686520706560648201527f6e64696e67207374617465206261746368000000000000000000000000000000608482015260a40161091e565b506118e0565b6001600160401b0389166000908152606d602052604090205461182e5760405162461bcd60e51b8152602060048201526048602482015260008051602061569b83398151915260448201527f3a20696e69744e756d426174636820737461746520726f6f7420646f6573206e6064820152671bdd08195e1a5cdd60c21b608482015260a40161091e565b6001600160401b03808a166000818152606d6020526040902054935090821610156118e05760405162461bcd60e51b8152602060048201526062602482015260008051602061569b83398151915260448201527f3a20696e69744e756d4261746368206d757374206265206c657373206f72206560648201527f7175616c207468616e2063757272656e744c61737456657269666965644261746084820152610c6d60f31b60a482015260c40161091e565b806001600160401b0316886001600160401b03161161197b5760405162461bcd60e51b815260206004820152605c602482015260008051602061569b83398151915260448201527f3a2066696e616c4e65774261746368206d75737420626520626967676572207460648201527f68616e2063757272656e744c6173745665726966696564426174636800000000608482015260a40161091e565b600061198a8a8a8a868b610870565b905060007f30644e72e131a029b85045b68181585d2833e84879b9709143e1f593f00000016002836040516119bf9190615453565b602060405180830381855afa1580156119dc573d6000803e3d6000fd5b5050506040513d601f19601f820116820180604052508101906119ff9190615398565b611a099190615485565b606b546040805160208101825283815290516343753b4d60e01b81529293506001600160a01b03909116916343753b4d91611a4d918b918b918b9190600401615499565b602060405180830381865afa158015611a6a573d6000803e3d6000fd5b505050506040513d601f19601f82011682018060405250810190611a8e9190615513565b611aee5760405162461bcd60e51b815260206004820152602f602482015260008051602061569b83398151915260448201527f3a20494e56414c49445f50524f4f460000000000000000000000000000000000606482015260840161091e565b611b2f33611afc858d6153ca565b6001600160401b0316611b0d612f5b565b611b179190615409565b60655461010090046001600160a01b03169190614595565b611b3761450b565b607280546001600160401b0316906000611b5083615372565b91906101000a8154816001600160401b0302191690836001600160401b03160217905550506040518060800160405280426001600160401b031681526020018b6001600160401b031681526020018a81526020018981525060716000607260009054906101000a90046001600160401b03166001600160401b0316815260200190815260200160002060008201518160000160006101000a8154816001600160401b0302191690836001600160401b0316021790555060208201518160000160086101000a8154816001600160401b0302191690836001600160401b031602179055506040820151816001015560608201518160020155905050336001600160a01b03168a6001600160401b03167f9c72852172521097ba7e1482e6b44b351323df0155f97f4ea18fcec28e1f59668a604051611c8f91815260200190565b60405180910390a3505050505050505050505050565b6001600160401b03811615801590611cd257506072546001600160401b03600160401b9091048116908216115b8015611ced57506072546001600160401b0390811690821611155b611d855760405162461bcd60e51b815260206004820152604860248201527f50726f6f664f66456666696369656e63793a3a636f6e736f6c6964617465506560448201527f6e64696e6753746174653a2070656e64696e6753746174654e756d206d75737460648201527f20696e76616c6964000000000000000000000000000000000000000000000000608482015260a40161091e565b6001600160401b0381166000908152607160205260409020606a546001600160a01b03163314611e645760725481544291611dd3916001600160401b03600160801b90920482169116615428565b6001600160401b03161115611e645760405162461bcd60e51b815260206004820152604f602482015260008051602061569b83398151915260448201527f3a2070656e64696e67207374617465206973206e6f7420726561647920746f2060648201527f626520636f6e736f6c6964617465640000000000000000000000000000000000608482015260a40161091e565b805460698054600160401b928390046001600160401b0390811667ffffffffffffffff19909216821790925560028401546000828152606d60205260409081902091909155607280546fffffffffffffffff0000000000000000191693871690940292909217909255606c54600184015491516333d6247d60e01b815260048101929092526001600160a01b0316906333d6247d90602401600060405180830381600087803b158015611f1657600080fd5b505af1158015611f2a573d6000803e3d6000fd5b50505050336001600160a01b0316816001600160401b03167f01f7d32e3b3278bace940a581067c87090c1aa09809730dd4ca002320c3a3cfa8460020154604051611f7791815260200190565b60405180910390a3505050565b600054610100900460ff1615808015611fa45750600054600160ff909116105b80611fbe5750303b158015611fbe575060005460ff166001145b6120305760405162461bcd60e51b815260206004820152602e60248201527f496e697469616c697a61626c653a20636f6e747261637420697320616c72656160448201527f647920696e697469616c697a6564000000000000000000000000000000000000606482015260840161091e565b6000805460ff191660011790558015612053576000805461ff0019166101001790555b8c606c60006101000a8154816001600160a01b0302191690836001600160a01b031602179055508b606560016101000a8154816001600160a01b0302191690836001600160a01b031602179055508a606b60006101000a8154816001600160a01b0302191690836001600160a01b0316021790555089606d6000806001600160401b031681526020019081526020016000208190555088606960086101000a8154816001600160a01b0302191690836001600160a01b0316021790555087606c60146101000a81548160ff02191690831515021790555086606e9081612139919061557e565b50606b80547fffffffff0000000000000000ffffffffffffffffffffffffffffffffffffffff16600160a01b6001600160401b03891602179055606f61217f868261557e565b50607080546001600160a01b0380871673ffffffffffffffffffffffffffffffffffffffff1992831617909255606a805492861692909116919091179055607280546001600160401b038416600160c01b0277ffffffffffffffffffffffffffffffffffffffffffffffff9091161790556121f86145e3565b801561223e576000805461ff0019169055604051600181527f7f26b83ff96e1f2b6a682f133852f6798a09c465da95921460cefb38474024989060200160405180910390a15b50505050505050505050505050565b606e80546107ef9061530c565b606954600160401b90046001600160a01b031633146122e15760405162461bcd60e51b815260206004820152603f60248201527f50726f6f664f66456666696369656e63793a3a6f6e6c7954727573746564536560448201527f7175656e6365723a206f6e6c7920747275737465642073657175656e63657200606482015260840161091e565b606980547fffffffff0000000000000000000000000000000000000000ffffffffffffffff16600160401b6001600160a01b038416908102919091179091556040519081527ff54144f9611984021529f814a1cb6a41e22c58351510a0d9f7e822618abb9cc090602001610bd5565b612358614669565b61236260006146c3565b565b6033546001600160a01b0316331461253a576072546000906001600160401b0316156123b557506072546001600160401b03908116600090815260716020526040902054600160401b9004166123c3565b506069546001600160401b03165b80826001600160401b0316116124675760405162461bcd60e51b815260206004820152604160248201527f50726f6f664f66456666696369656e63793a3a6163746976617465456d65726760448201527f656e637953746174653a20426174636820616c7265616479207665726966696560648201527f6400000000000000000000000000000000000000000000000000000000000000608482015260a40161091e565b6001600160401b0380831660009081526067602052604090206001015442916124959162093a809116615428565b6001600160401b031611156125385760405162461bcd60e51b815260206004820152605260248201527f50726f6f664f66456666696369656e63793a3a6163746976617465456d65726760448201527f656e637953746174653a206167677265676174696f6e2068616c742074696d6560648201527f6f7574206973206e6f7420657870697265640000000000000000000000000000608482015260a40161091e565b505b612542614722565b50565b60655460ff16156125c95760405162461bcd60e51b815260206004820152604260248201527f456d657267656e63794d616e616765723a3a69664e6f74456d657267656e637960448201527f53746174653a206f6e6c79206966206e6f7420656d657267656e637920737461606482015261746560f01b608482015260a40161091e565b60006001600160401b038a161561279f576072546001600160401b03908116908b1611156126ab5760405162461bcd60e51b815260206004820152607160248201527f50726f6f664f66456666696369656e63793a3a70726f76654e6f6e446574657260448201527f6d696e697374696350656e64696e6753746174653a2070656e64696e6753746160648201527f74654e756d206d757374206265206c657373206f7220657175616c207468616e60848201527f206c61737450656e64696e67537461746500000000000000000000000000000060a482015260c40161091e565b506001600160401b03808a1660009081526071602052604090206002810154815490928a8116600160401b90920416146127995760405162461bcd60e51b815260206004820152606560248201527f50726f6f664f66456666696369656e63793a3a70726f76654e6f6e446574657260448201527f6d696e697374696350656e64696e6753746174653a20696e69744e756d42617460648201527f6368206d757374206d61746368207468652070656e64696e672073746174652060848201527f626174636800000000000000000000000000000000000000000000000000000060a482015260c40161091e565b50612931565b6001600160401b0388166000908152606d60205260409020546128505760405162461bcd60e51b815260206004820152605c60248201527f50726f6f664f66456666696369656e63793a3a70726f76654e6f6e446574657260448201527f6d696e697374696350656e64696e6753746174653a20696e69744e756d42617460648201527f636820737461746520726f6f7420646f6573206e6f7420657869737400000000608482015260a40161091e565b506001600160401b038088166000818152606d602052604090205460695490921610156129315760405162461bcd60e51b815260206004820152607660248201527f50726f6f664f66456666696369656e63793a3a70726f76654e6f6e446574657260448201527f6d696e697374696350656e64696e6753746174653a20696e69744e756d42617460648201527f6368206d757374206265206c657373206f7220657175616c207468616e20637560848201527f7272656e744c617374566572696669656442617463680000000000000000000060a482015260c40161091e565b6072546001600160401b03908116908a16118015906129615750896001600160401b0316896001600160401b0316115b801561298257506072546001600160401b03600160401b9091048116908a16115b612a405760405162461bcd60e51b815260206004820152607060248201527f50726f6f664f66456666696369656e63793a3a70726f76654e6f6e446574657260448201527f6d696e697374696350656e64696e6753746174653a2066696e616c4e6577426160648201527f746368206d75737420626520626967676572207468616e2063757272656e744c60848201527f617374566572696669656442617463680000000000000000000000000000000060a482015260c40161091e565b6001600160401b03898116600090815260716020526040902054600160401b9004811690881614612b255760405162461bcd60e51b815260206004820152607060248201527f50726f6f664f66456666696369656e63793a3a70726f76654e6f6e446574657260448201527f6d696e697374696350656e64696e6753746174653a2066696e616c4e6577426160648201527f746368206d75737420626520626967676572207468616e2063757272656e744c60848201527f617374566572696669656442617463680000000000000000000000000000000060a482015260c40161091e565b6000612b34898989858a610870565b905060007f30644e72e131a029b85045b68181585d2833e84879b9709143e1f593f0000001600283604051612b699190615453565b602060405180830381855afa158015612b86573d6000803e3d6000fd5b5050506040513d601f19601f82011682018060405250810190612ba99190615398565b612bb39190615485565b606b546040805160208101825283815290516343753b4d60e01b81529293506001600160a01b03909116916343753b4d91612bf7918a918a918a9190600401615499565b602060405180830381865afa158015612c14573d6000803e3d6000fd5b505050506040513d601f19601f82011682018060405250810190612c389190615513565b612cd05760405162461bcd60e51b815260206004820152604360248201527f50726f6f664f66456666696369656e63793a3a70726f76654e6f6e446574657260448201527f6d696e697374696350656e64696e6753746174653a20494e56414c49445f505260648201527f4f4f460000000000000000000000000000000000000000000000000000000000608482015260a40161091e565b6001600160401b038b16600090815260716020526040902060020154879003612dad5760405162461bcd60e51b815260206004820152606760248201527f50726f6f664f66456666696369656e63793a3a70726f76654e6f6e446574657260448201527f6d696e697374696350656e64696e6753746174653a2073746f72656420726f6f60648201527f74206d75737420626520646966666572656e74207468616e206e65772073746160848201527f746520726f6f740000000000000000000000000000000000000000000000000060a482015260c40161091e565b6001600160401b0389166000908152606d60209081526040918290205482519081529081018990527f10b370e2afd2be06fe3170fec9cb3bbd87233f3deb63d488c0dde59813afdabe910160405180910390a1612e08614722565b505050505050505050505050565b6068546000906001600160401b03600160801b8204811691612e4291600160c01b909104166001615428565b612e4c91906153ca565b612e67906001600160401b0316670de0b6b3a7640000615409565b905090565b606954600160401b90046001600160a01b03163314612ef35760405162461bcd60e51b815260206004820152603f60248201527f50726f6f664f66456666696369656e63793a3a6f6e6c7954727573746564536560448201527f7175656e6365723a206f6e6c7920747275737465642073657175656e63657200606482015260840161091e565b606c8054821515600160a01b027fffffffffffffffffffffff00ffffffffffffffffffffffffffffffffffffffff9091161790556040517fbacda50a4a8575be1d91a7ebe29ee45056f3a94f12a2281eb6b43afa33bcefe690610bd590831515815260200190565b6065546040517f70a0823100000000000000000000000000000000000000000000000000000000815230600482015260009182916101009091046001600160a01b0316906370a0823190602401602060405180830381865afa158015612fc5573d6000803e3d6000fd5b505050506040513d601f19601f82011682018060405250810190612fe99190615398565b6069546068549192506000916001600160401b0391821691600160401b820481169161302691600160801b8204811691600160c01b9004166153ca565b6130309190615428565b61303a91906153ca565b6001600160401b0316905061304f818361563d565b9250505090565b606954600160401b90046001600160a01b031633146130dd5760405162461bcd60e51b815260206004820152603f60248201527f50726f6f664f66456666696369656e63793a3a6f6e6c7954727573746564536560448201527f7175656e6365723a206f6e6c7920747275737465642073657175656e63657200606482015260840161091e565b606e6130e9828261557e565b507f6b8f723a4c7a5335cafae8a598a0aa0301be1387c037dccc085b62add6448b2081604051610bd59190614bdf565b60655460ff161561319d5760405162461bcd60e51b815260206004820152604260248201527f456d657267656e63794d616e616765723a3a69664e6f74456d657267656e637960448201527f53746174653a206f6e6c79206966206e6f7420656d657267656e637920737461606482015261746560f01b608482015260a40161091e565b606c54600160a01b900460ff1615156001146132325760405162461bcd60e51b815260206004820152604860248201527f50726f6f664f66456666696369656e63793a3a6973466f72636542617463684160448201527f6c6c6f7765643a206f6e6c7920696620666f72636520626174636820697320616064820152677661696c61626c6560c01b608482015260a40161091e565b8051806132b25760405162461bcd60e51b815260206004820152604260248201527f50726f6f664f66456666696369656e63793a3a73657175656e6365466f72636560448201527f42617463683a204d75737420666f726365206174206c656173742031206261746064820152610c6d60f31b608482015260a40161091e565b6068546001600160401b03600160c01b82048116916132da918491600160801b900416615651565b111561334e5760405162461bcd60e51b815260206004820152603a60248201527f50726f6f664f66456666696369656e63793a3a73657175656e6365466f72636560448201527f42617463683a20466f72636520626174636820696e76616c6964000000000000606482015260840161091e565b6068546001600160401b03600160401b820481166000818152606760205260408120549193600160801b9004909216915b8481101561360f57600086828151811061339b5761339b615346565b6020026020010151905083806133b090615372565b825180516020918201208185015160408087015181519485019390935283015260c01b6001600160c01b03191660608201529095506000915060680160408051601f1981840301815291815281516020928301206001600160401b0388166000908152606690935291205490915081146134b85760405162461bcd60e51b815260206004820152604760248201527f50726f6f664f66456666696369656e63793a3a73657175656e6365466f72636560448201527f426174636865733a20466f7263656420626174636865732064617461206d757360648201527f74206d6174636800000000000000000000000000000000000000000000000000608482015260a40161091e565b6134c36001886153f2565b8303613580574262093a8083604001516134dd9190615428565b6001600160401b031611156135805760405162461bcd60e51b815260206004820152604c60248201527f50726f6f664f66456666696369656e63793a3a73657175656e6365466f72636560448201527f42617463683a20466f72636564206261746368206973206e6f7420696e20746960648201527f6d656f757420706572696f640000000000000000000000000000000000000000608482015260a40161091e565b8151805160209182012081840151604080519384018890528301919091526060808301919091524260c01b6001600160c01b031916608083015233901b6bffffffffffffffffffffffff19166088820152609c0160405160208183030381529060405280519060200120935085806135f790615372565b96505050508080613607906153b1565b91505061337f565b5060688054426001600160401b039081166fffffffffffffffffffffffffffffffff199092168217600160401b878316818102929092177fffffffffffffffff0000000000000000ffffffffffffffffffffffffffffffff16600160801b888516021785556040805180820182528781526020808201968752600094855260679052818420905181559451600195909501805467ffffffffffffffff191695851695909517909455935492519390920416917f648a61dd2438f072f5a1960939abd30f37aea80d2e94c9792ad142d3e0a490a49190a25050505050565b60655460ff166137645760405162461bcd60e51b815260206004820152603b60248201527f456d657267656e63794d616e616765723a3a6966456d657267656e637953746160448201527f74653a206f6e6c7920696620656d657267656e63792073746174650000000000606482015260840161091e565b606a546001600160a01b031633146137ee5760405162461bcd60e51b815260206004820152604160248201527f50726f6f664f66456666696369656e63793a3a6f6e6c7954727573746564416760448201527f6772656761746f723a206f6e6c7920747275737465642041676772656761746f6064820152603960f91b608482015260a40161091e565b607060009054906101000a90046001600160a01b03166001600160a01b031663dbc169766040518163ffffffff1660e01b8152600401600060405180830381600087803b15801561383e57600080fd5b505af1158015613852573d6000803e3d6000fd5b50505050612362614792565b60655460ff16156138e25760405162461bcd60e51b815260206004820152604260248201527f456d657267656e63794d616e616765723a3a69664e6f74456d657267656e637960448201527f53746174653a206f6e6c79206966206e6f7420656d657267656e637920737461606482015261746560f01b608482015260a40161091e565b606c54600160a01b900460ff1615156001146139775760405162461bcd60e51b815260206004820152604860248201527f50726f6f664f66456666696369656e63793a3a6973466f72636542617463684160448201527f6c6c6f7765643a206f6e6c7920696620666f72636520626174636820697320616064820152677661696c61626c6560c01b608482015260a40161091e565b6000613981612e16565b9050818111156139f95760405162461bcd60e51b815260206004820152602f60248201527f50726f6f664f66456666696369656e63793a3a666f72636542617463683a206e60448201527f6f7420656e6f756768206d617469630000000000000000000000000000000000606482015260840161091e565b61ea60835110613a715760405162461bcd60e51b815260206004820152603a60248201527f50726f6f664f66456666696369656e63793a3a666f72636542617463683a205460448201527f72616e73616374696f6e73206279746573206f766572666c6f77000000000000606482015260840161091e565b606554613a8e9061010090046001600160a01b031633308461445a565b606c54604080517f3ed691ef00000000000000000000000000000000000000000000000000000000815290516000926001600160a01b031691633ed691ef9160048083019260209291908290030181865afa158015613af1573d6000803e3d6000fd5b505050506040513d601f19601f82011682018060405250810190613b159190615398565b60688054919250600160c01b9091046001600160401b0316906018613b3983615372565b91906101000a8154816001600160401b0302191690836001600160401b031602179055505083805190602001208142604051602001613b9893929190928352602083019190915260c01b6001600160c01b031916604082015260480190565b60408051808303601f190181529181528151602092830120606854600160c01b90046001600160401b031660009081526066909352912055323303613c3c57606854604080518381523360208201526060918101829052600091810191909152600160c01b9091046001600160401b0316907ff94bb37db835f1ab585ee00041849a09b12cd081d77fa15ca070757619cbc9319060800160405180910390a2613c97565b606860189054906101000a90046001600160401b03166001600160401b03167ff94bb37db835f1ab585ee00041849a09b12cd081d77fa15ca070757619cbc931823387604051613c8e93929190615669565b60405180910390a25b50505050565b606a546001600160a01b03163314613d275760405162461bcd60e51b815260206004820152604160248201527f50726f6f664f66456666696369656e63793a3a6f6e6c7954727573746564416760448201527f6772656761746f723a206f6e6c7920747275737465642041676772656761746f6064820152603960f91b608482015260a40161091e565b6000806001600160401b038a1615613e9e576072546001600160401b03908116908b161115613dd25760405162461bcd60e51b815260206004820152605d602482015260008051602061569b83398151915260448201527f3a2070656e64696e6753746174654e756d206d757374206265206c657373206f60648201527f7220657175616c207468616e206c61737450656e64696e675374617465000000608482015260a40161091e565b6001600160401b03808b1660009081526071602052604090206002810154815490945090918b8116600160401b9092041614613e955760405162461bcd60e51b8152602060048201526062602482015260008051602061569b83398151915260448201527f3a20696e69744e756d4261746368206d757374206265206c657373206f72206560648201527f7175616c207468616e2063757272656e744c61737456657269666965644261746084820152610c6d60f31b60a482015260c40161091e565b89915050613fdd565b6001600160401b0389166000908152606d6020526040902054915081613f2b5760405162461bcd60e51b8152602060048201526048602482015260008051602061569b83398151915260448201527f3a20696e69744e756d426174636820737461746520726f6f7420646f6573206e6064820152671bdd08195e1a5cdd60c21b608482015260a40161091e565b6069546001600160401b03908116908a161115613fcf5760405162461bcd60e51b8152602060048201526062602482015260008051602061569b83398151915260448201527f3a20696e69744e756d4261746368206d757374206265206c657373206f72206560648201527f7175616c207468616e2063757272656e744c61737456657269666965644261746084820152610c6d60f31b60a482015260c40161091e565b506069546001600160401b03165b806001600160401b0316886001600160401b0316116140785760405162461bcd60e51b815260206004820152605c602482015260008051602061569b83398151915260448201527f3a2066696e616c4e65774261746368206d75737420626520626967676572207460648201527f68616e2063757272656e744c6173745665726966696564426174636800000000608482015260a40161091e565b60006140878a8a8a868b610870565b905060007f30644e72e131a029b85045b68181585d2833e84879b9709143e1f593f00000016002836040516140bc9190615453565b602060405180830381855afa1580156140d9573d6000803e3d6000fd5b5050506040513d601f19601f820116820180604052508101906140fc9190615398565b6141069190615485565b606b546040805160208101825283815290516343753b4d60e01b81529293506001600160a01b03909116916343753b4d9161414a918b918b918b9190600401615499565b602060405180830381865afa158015614167573d6000803e3d6000fd5b505050506040513d601f19601f8201168201806040525081019061418b9190615513565b6141eb5760405162461bcd60e51b815260206004820152602f602482015260008051602061569b83398151915260448201527f3a20494e56414c49445f50524f4f460000000000000000000000000000000000606482015260840161091e565b6141f933611afc858d6153ca565b6069805467ffffffffffffffff19166001600160401b038c81169182179092556000908152606d60205260409020899055607254161561424d57607280546fffffffffffffffffffffffffffffffff191690555b606c546040516333d6247d60e01b8152600481018b90526001600160a01b03909116906333d6247d90602401600060405180830381600087803b15801561429357600080fd5b505af11580156142a7573d6000803e3d6000fd5b50506040518a81523392506001600160401b038d1691507f0c0ce073a7d7b5850c04ccc4b20ee7d3179d5f57d0ac44399565792c0f72fce790602001611c8f565b606a546001600160a01b031633146143725760405162461bcd60e51b815260206004820152604160248201527f50726f6f664f66456666696369656e63793a3a6f6e6c7954727573746564416760448201527f6772656761746f723a206f6e6c7920747275737465642041676772656761746f6064820152603960f91b608482015260a40161091e565b606a805473ffffffffffffffffffffffffffffffffffffffff19166001600160a01b0383169081179091556040519081527f61f8fec29495a3078e9271456f05fb0707fd4e41f7661865f80fc437d06681ca90602001610bd5565b6143d5614669565b6001600160a01b0381166144515760405162461bcd60e51b815260206004820152602660248201527f4f776e61626c653a206e6577206f776e657220697320746865207a65726f206160448201527f6464726573730000000000000000000000000000000000000000000000000000606482015260840161091e565b612542816146c3565b6040516001600160a01b0380851660248301528316604482015260648101829052613c979085907f23b872dd00000000000000000000000000000000000000000000000000000000906084015b60408051601f198184030181529190526020810180517bffffffffffffffffffffffffffffffffffffffffffffffffffffffff167fffffffff000000000000000000000000000000000000000000000000000000009093169290921790915261483f565b6072546001600160401b03600160401b82048116911611156123625760725460009061454890600160401b90046001600160401b03166001615428565b6072546001600160401b03808316600090815260716020526040902054929350429261457e92600160801b900482169116615428565b6001600160401b0316116125425761254281611ca5565b6040516001600160a01b0383166024820152604481018290526145de9084907fa9059cbb00000000000000000000000000000000000000000000000000000000906064016144a7565b505050565b600054610100900460ff166146605760405162461bcd60e51b815260206004820152602b60248201527f496e697469616c697a61626c653a20636f6e7472616374206973206e6f74206960448201527f6e697469616c697a696e67000000000000000000000000000000000000000000606482015260840161091e565b612362336146c3565b6033546001600160a01b031633146123625760405162461bcd60e51b815260206004820181905260248201527f4f776e61626c653a2063616c6c6572206973206e6f7420746865206f776e6572604482015260640161091e565b603380546001600160a01b0383811673ffffffffffffffffffffffffffffffffffffffff19831681179093556040519116919082907f8be0079c531659141344cd1fd0a4f28419497f9722a3daafe3b4186f6b6457e090600090a35050565b607060009054906101000a90046001600160a01b03166001600160a01b0316632072f6c56040518163ffffffff1660e01b8152600401600060405180830381600087803b15801561477257600080fd5b505af1158015614786573d6000803e3d6000fd5b50505050612362614924565b60655460ff1661480a5760405162461bcd60e51b815260206004820152603b60248201527f456d657267656e63794d616e616765723a3a6966456d657267656e637953746160448201527f74653a206f6e6c7920696620656d657267656e63792073746174650000000000606482015260840161091e565b6065805460ff191690556040517f1e5e34eea33501aecf2ebec9fe0e884a40804275ea7fe10b2ba084c8374308b390600090a1565b6000614894826040518060400160405280602081526020017f5361666545524332303a206c6f772d6c6576656c2063616c6c206661696c6564815250856001600160a01b03166149e09092919063ffffffff16565b8051909150156145de57808060200190518101906148b29190615513565b6145de5760405162461bcd60e51b815260206004820152602a60248201527f5361666545524332303a204552433230206f7065726174696f6e20646964206e60448201527f6f74207375636365656400000000000000000000000000000000000000000000606482015260840161091e565b60655460ff16156149a85760405162461bcd60e51b815260206004820152604260248201527f456d657267656e63794d616e616765723a3a69664e6f74456d657267656e637960448201527f53746174653a206f6e6c79206966206e6f7420656d657267656e637920737461606482015261746560f01b608482015260a40161091e565b6065805460ff191660011790556040517f2261efe5aef6fedc1fd1550b25facc9181745623049c7901287030b9ad1a549790600090a1565b60606149ef84846000856149f7565b949350505050565b606082471015614a6f5760405162461bcd60e51b815260206004820152602660248201527f416464726573733a20696e73756666696369656e742062616c616e636520666f60448201527f722063616c6c0000000000000000000000000000000000000000000000000000606482015260840161091e565b600080866001600160a01b03168587604051614a8b9190615453565b60006040518083038185875af1925050503d8060008114614ac8576040519150601f19603f3d011682016040523d82523d6000602084013e614acd565b606091505b5091509150614ade87838387614ae9565b979650505050505050565b60608315614b58578251600003614b51576001600160a01b0385163b614b515760405162461bcd60e51b815260206004820152601d60248201527f416464726573733a2063616c6c20746f206e6f6e2d636f6e7472616374000000604482015260640161091e565b50816149ef565b6149ef8383815115614b6d5781518083602001fd5b8060405162461bcd60e51b815260040161091e9190614bdf565b60005b83811015614ba2578181015183820152602001614b8a565b83811115613c975750506000910152565b60008151808452614bcb816020860160208601614b87565b601f01601f19169290920160200192915050565b602081526000614bf26020830184614bb3565b9392505050565b80356001600160401b0381168114614c1057600080fd5b919050565b600080600080600060a08688031215614c2d57600080fd5b614c3686614bf9565b9450614c4460208701614bf9565b94979496505050506040830135926060810135926080909101359150565b600060208284031215614c7457600080fd5b614bf282614bf9565b634e487b7160e01b600052604160045260246000fd5b604051608081016001600160401b0381118282101715614cb557614cb5614c7d565b60405290565b604051606081016001600160401b0381118282101715614cb557614cb5614c7d565b604051601f8201601f191681016001600160401b0381118282101715614d0557614d05614c7d565b604052919050565b60006001600160401b03821115614d2657614d26614c7d565b5060051b60200190565b600082601f830112614d4157600080fd5b81356001600160401b03811115614d5a57614d5a614c7d565b614d6d601f8201601f1916602001614cdd565b818152846020838601011115614d8257600080fd5b816020850160208301376000918101602001919091529392505050565b60006020808385031215614db257600080fd5b82356001600160401b0380821115614dc957600080fd5b818501915085601f830112614ddd57600080fd5b8135614df0614deb82614d0d565b614cdd565b81815260059190911b83018401908481019088831115614e0f57600080fd5b8585015b83811015614ea857803585811115614e2b5760008081fd5b86016080818c03601f1901811315614e435760008081fd5b614e4b614c93565b8983013588811115614e5d5760008081fd5b614e6b8e8c83870101614d30565b8252506040808401358b8301526060614e85818601614bf9565b82840152614e94848601614bf9565b908301525085525050918601918601614e13565b5098975050505050505050565b8060408101831015614ec657600080fd5b92915050565b8060808101831015614ec657600080fd5b6000806000806000806000806101a0898b031215614efa57600080fd5b614f0389614bf9565b9750614f1160208a01614bf9565b9650614f1f60408a01614bf9565b95506060890135945060808901359350614f3c8a60a08b01614eb5565b9250614f4b8a60e08b01614ecc565b9150614f5b8a6101608b01614eb5565b90509295985092959890939650565b6001600160a01b038116811461254257600080fd5b8035614c1081614f6a565b801515811461254257600080fd5b8035614c1081614f8a565b6000806000806000806000806000806000806101808d8f031215614fc657600080fd5b614fcf8d614f7f565b9b50614fdd60208e01614f7f565b9a50614feb60408e01614f7f565b995060608d0135985061500060808e01614f7f565b975061500e60a08e01614f98565b96506001600160401b0360c08e0135111561502857600080fd5b6150388e60c08f01358f01614d30565b955061504660e08e01614bf9565b94506001600160401b036101008e0135111561506157600080fd5b6150728e6101008f01358f01614d30565b93506150816101208e01614f7f565b92506150906101408e01614f7f565b915061509f6101608e01614bf9565b90509295989b509295989b509295989b565b6000602082840312156150c357600080fd5b8135614bf281614f6a565b60008060008060008060008060006101c08a8c0312156150ed57600080fd5b6150f68a614bf9565b985061510460208b01614bf9565b975061511260408b01614bf9565b965061512060608b01614bf9565b955060808a0135945060a08a0135935061513d8b60c08c01614eb5565b925061514d8b6101008c01614ecc565b915061515d8b6101808c01614eb5565b90509295985092959850929598565b60006020828403121561517e57600080fd5b5035919050565b60006020828403121561519757600080fd5b8135614bf281614f8a565b6000602082840312156151b457600080fd5b81356001600160401b038111156151ca57600080fd5b6149ef84828501614d30565b600060208083850312156151e957600080fd5b82356001600160401b038082111561520057600080fd5b818501915085601f83011261521457600080fd5b8135615222614deb82614d0d565b81815260059190911b8301840190848101908883111561524157600080fd5b8585015b83811015614ea85780358581111561525d5760008081fd5b86016060818c03601f19018113156152755760008081fd5b61527d614cbb565b898301358881111561528f5760008081fd5b61529d8e8c83870101614d30565b8252506040808401358b8301526152b5838501614bf9565b9082015285525050918601918601615245565b600080604083850312156152db57600080fd5b82356001600160401b038111156152f157600080fd5b6152fd85828601614d30565b95602094909401359450505050565b600181811c9082168061532057607f821691505b60208210810361534057634e487b7160e01b600052602260045260246000fd5b50919050565b634e487b7160e01b600052603260045260246000fd5b634e487b7160e01b600052601160045260246000fd5b60006001600160401b0380831681810361538e5761538e61535c565b6001019392505050565b6000602082840312156153aa57600080fd5b5051919050565b6000600182016153c3576153c361535c565b5060010190565b60006001600160401b03838116908316818110156153ea576153ea61535c565b039392505050565b6000828210156154045761540461535c565b500390565b60008160001904831182151516156154235761542361535c565b500290565b60006001600160401b0380831681851680830382111561544a5761544a61535c565b01949350505050565b60008251615465818460208701614b87565b9190910192915050565b634e487b7160e01b600052601260045260246000fd5b6000826154945761549461546f565b500690565b61012081016040808784376000838201818152879190815b60028110156154d1578484833790840182815292840192906001016154b1565b5050828760c0870137610100850181815286935091505b60018110156155075782518252602092830192909101906001016154e8565b50505095945050505050565b60006020828403121561552557600080fd5b8151614bf281614f8a565b601f8211156145de57600081815260208120601f850160051c810160208610156155575750805b601f850160051c820191505b8181101561557657828155600101615563565b505050505050565b81516001600160401b0381111561559757615597614c7d565b6155ab816155a5845461530c565b84615530565b602080601f8311600181146155e057600084156155c85750858301515b600019600386901b1c1916600185901b178555615576565b600085815260208120601f198616915b8281101561560f578886015182559484019460019091019084016155f0565b508582101561562d5787850151600019600388901b60f8161c191681555b5050505050600190811b01905550565b60008261564c5761564c61546f565b500490565b600082198211156156645761566461535c565b500190565b8381526001600160a01b03831660208201526060604082015260006156916060830184614bb3565b9594505050505056fe50726f6f664f66456666696369656e63793a3a76657269667942617463686573a26469706673582212204bda952cd405af1ab279cdf3ffa31f781a4df5390b33b37a8b0e29fe0a6957f464736f6c634300080f0033",
  "linkReferences": {},
  "deployedLinkReferences": {}
}