{
  "_format": "hh-sol-artifact-1",
  "contractName": "ProofOfEfficiency",
  "sourceName": "contracts/ProofOfEfficiency.sol",
  "abi": [
    {
      "inputs": [
        {
          "internalType": "contract IGlobalExitRootManager",
          "name": "_globalExitRootManager",
          "type": "address"
        },
        {
          "internalType": "contract IERC20",
          "name": "_matic",
          "type": "address"
        },
        {
          "internalType": "contract IVerifierRollup",
          "name": "_rollupVerifier",
          "type": "address"
        },
        {
          "internalType": "bytes32",
          "name": "genesisRoot",
          "type": "bytes32"
        }
      ],
      "stateMutability": "nonpayable",
      "type": "constructor"
    },
    {
      "anonymous": false,
      "inputs": [
        {
          "indexed": true,
          "internalType": "uint64",
          "name": "numBatch",
          "type": "uint64"
        },
        {
          "indexed": false,
          "internalType": "bytes32",
          "name": "lastGlobalExitRoot",
          "type": "bytes32"
        },
        {
          "indexed": false,
          "internalType": "bytes",
          "name": "transactions",
          "type": "bytes"
        }
      ],
      "name": "ForceBatch",
      "type": "event"
    },
    {
      "anonymous": false,
      "inputs": [
        {
          "indexed": true,
          "internalType": "address",
          "name": "previousOwner",
          "type": "address"
        },
        {
          "indexed": true,
          "internalType": "address",
          "name": "newOwner",
          "type": "address"
        }
      ],
      "name": "OwnershipTransferred",
      "type": "event"
    },
    {
      "anonymous": false,
      "inputs": [
        {
          "indexed": false,
          "internalType": "address",
          "name": "sequencerAddress",
          "type": "address"
        },
        {
          "indexed": false,
          "internalType": "string",
          "name": "sequencerURL",
          "type": "string"
        },
        {
          "indexed": false,
          "internalType": "uint64",
          "name": "chainID",
          "type": "uint64"
        }
      ],
      "name": "RegisterSequencer",
      "type": "event"
    },
    {
      "anonymous": false,
      "inputs": [
        {
          "indexed": true,
          "internalType": "uint64",
          "name": "numBatch",
          "type": "uint64"
        }
      ],
      "name": "SequencedBatches",
      "type": "event"
    },
    {
      "anonymous": false,
      "inputs": [
        {
          "indexed": true,
          "internalType": "uint64",
          "name": "numBatch",
          "type": "uint64"
        },
        {
          "indexed": true,
          "internalType": "address",
          "name": "aggregator",
          "type": "address"
        }
      ],
      "name": "VerifyBatch",
      "type": "event"
    },
    {
      "inputs": [],
      "name": "MAX_BATCH_LENGTH",
      "outputs": [
        {
          "internalType": "uint64",
          "name": "",
          "type": "uint64"
        }
      ],
      "stateMutability": "view",
      "type": "function"
    },
    {
      "inputs": [],
      "name": "PROVER_FEE",
      "outputs": [
        {
          "internalType": "uint256",
          "name": "",
          "type": "uint256"
        }
      ],
      "stateMutability": "view",
      "type": "function"
    },
    {
      "inputs": [],
      "name": "SUPER_SEQUENCER_FEE",
      "outputs": [
        {
          "internalType": "uint64",
          "name": "",
          "type": "uint64"
        }
      ],
      "stateMutability": "view",
      "type": "function"
    },
    {
      "inputs": [],
      "name": "calculateForceProverFee",
      "outputs": [
        {
          "internalType": "uint256",
          "name": "",
          "type": "uint256"
        }
      ],
      "stateMutability": "view",
      "type": "function"
    },
    {
      "inputs": [],
      "name": "currentLocalExitRoot",
      "outputs": [
        {
          "internalType": "bytes32",
          "name": "",
          "type": "bytes32"
        }
      ],
      "stateMutability": "view",
      "type": "function"
    },
    {
      "inputs": [],
      "name": "currentStateRoot",
      "outputs": [
        {
          "internalType": "bytes32",
          "name": "",
          "type": "bytes32"
        }
      ],
      "stateMutability": "view",
      "type": "function"
    },
    {
      "inputs": [
        {
          "internalType": "bytes",
          "name": "transactions",
          "type": "bytes"
        },
        {
          "internalType": "uint256",
          "name": "maticAmount",
          "type": "uint256"
        }
      ],
      "name": "forceBatch",
      "outputs": [],
      "stateMutability": "nonpayable",
      "type": "function"
    },
    {
      "inputs": [
        {
          "internalType": "uint64",
          "name": "",
          "type": "uint64"
        }
      ],
      "name": "forcedBatches",
      "outputs": [
        {
          "internalType": "bytes32",
          "name": "batchHashData",
          "type": "bytes32"
        },
        {
          "internalType": "uint256",
          "name": "maticFee",
          "type": "uint256"
        },
        {
          "internalType": "uint64",
          "name": "timestamp",
          "type": "uint64"
        }
      ],
      "stateMutability": "view",
      "type": "function"
    },
    {
      "inputs": [],
      "name": "globalExitRootManager",
      "outputs": [
        {
          "internalType": "contract IGlobalExitRootManager",
          "name": "",
          "type": "address"
        }
      ],
      "stateMutability": "view",
      "type": "function"
    },
    {
      "inputs": [],
      "name": "lastBatchSequenced",
      "outputs": [
        {
          "internalType": "uint64",
          "name": "",
          "type": "uint64"
        }
      ],
      "stateMutability": "view",
      "type": "function"
    },
    {
      "inputs": [],
      "name": "lastForceBatch",
      "outputs": [
        {
          "internalType": "uint64",
          "name": "",
          "type": "uint64"
        }
      ],
      "stateMutability": "view",
      "type": "function"
    },
    {
      "inputs": [],
      "name": "lastForceBatchSequenced",
      "outputs": [
        {
          "internalType": "uint64",
          "name": "",
          "type": "uint64"
        }
      ],
      "stateMutability": "view",
      "type": "function"
    },
    {
      "inputs": [],
      "name": "lastForcedTimestamp",
      "outputs": [
        {
          "internalType": "uint64",
          "name": "",
          "type": "uint64"
        }
      ],
      "stateMutability": "view",
      "type": "function"
    },
    {
      "inputs": [],
      "name": "lastTimestamp",
      "outputs": [
        {
          "internalType": "uint64",
          "name": "",
          "type": "uint64"
        }
      ],
      "stateMutability": "view",
      "type": "function"
    },
    {
      "inputs": [],
      "name": "lastVerifiedBatch",
      "outputs": [
        {
          "internalType": "uint64",
          "name": "",
          "type": "uint64"
        }
      ],
      "stateMutability": "view",
      "type": "function"
    },
    {
      "inputs": [],
      "name": "matic",
      "outputs": [
        {
          "internalType": "contract IERC20",
          "name": "",
          "type": "address"
        }
      ],
      "stateMutability": "view",
      "type": "function"
    },
    {
      "inputs": [],
      "name": "owner",
      "outputs": [
        {
          "internalType": "address",
          "name": "",
          "type": "address"
        }
      ],
      "stateMutability": "view",
      "type": "function"
    },
    {
      "inputs": [],
      "name": "renounceOwnership",
      "outputs": [],
      "stateMutability": "nonpayable",
      "type": "function"
    },
    {
      "inputs": [],
      "name": "rollupVerifier",
      "outputs": [
        {
          "internalType": "contract IVerifierRollup",
          "name": "",
          "type": "address"
        }
      ],
      "stateMutability": "view",
      "type": "function"
    },
    {
      "inputs": [
        {
          "components": [
            {
              "internalType": "bytes",
              "name": "transactions",
              "type": "bytes"
            },
            {
              "internalType": "bytes32",
              "name": "globalExitRoot",
              "type": "bytes32"
            },
            {
              "internalType": "uint64",
              "name": "timestamp",
              "type": "uint64"
            },
            {
              "internalType": "uint64",
              "name": "forceBatchesNum",
              "type": "uint64"
            }
          ],
          "internalType": "struct ProofOfEfficiency.Sequence[]",
          "name": "sequences",
          "type": "tuple[]"
        }
      ],
      "name": "sequenceBatches",
      "outputs": [],
      "stateMutability": "nonpayable",
      "type": "function"
    },
    {
      "inputs": [
        {
          "internalType": "uint64",
          "name": "",
          "type": "uint64"
        }
      ],
      "name": "sequencedBatches",
      "outputs": [
        {
          "internalType": "bytes32",
          "name": "",
          "type": "bytes32"
        }
      ],
      "stateMutability": "view",
      "type": "function"
    },
    {
      "inputs": [
        {
          "internalType": "address",
          "name": "newOwner",
          "type": "address"
        }
      ],
      "name": "transferOwnership",
      "outputs": [],
      "stateMutability": "nonpayable",
      "type": "function"
    },
    {
      "inputs": [
        {
          "internalType": "bytes32",
          "name": "newLocalExitRoot",
          "type": "bytes32"
        },
        {
          "internalType": "bytes32",
          "name": "newStateRoot",
          "type": "bytes32"
        },
        {
          "internalType": "uint64",
          "name": "numBatch",
          "type": "uint64"
        },
        {
          "internalType": "uint256[2]",
          "name": "proofA",
          "type": "uint256[2]"
        },
        {
          "internalType": "uint256[2][2]",
          "name": "proofB",
          "type": "uint256[2][2]"
        },
        {
          "internalType": "uint256[2]",
          "name": "proofC",
          "type": "uint256[2]"
        }
      ],
      "name": "verifyBatch",
      "outputs": [],
      "stateMutability": "nonpayable",
      "type": "function"
    }
  ],
  "bytecode": "0x60a06040523480156200001157600080fd5b5060405162001c5638038062001c568339810160408190526200003491620000f7565b6200003f336200008e565b60048054600160401b600160e01b031916680100000000000000006001600160a01b0396871602179055918316608052600780546001600160a01b031916919093161790915560055562000151565b600080546001600160a01b038381166001600160a01b0319831681178455604051919092169283917f8be0079c531659141344cd1fd0a4f28419497f9722a3daafe3b4186f6b6457e09190a35050565b6001600160a01b0381168114620000f457600080fd5b50565b600080600080608085870312156200010e57600080fd5b84516200011b81620000de565b60208601519094506200012e81620000de565b60408601519093506200014181620000de565b6060959095015193969295505050565b608051611adb6200017b6000396000818161029e015281816103ff0152610d5f0152611adb6000f3fe608060405234801561001057600080fd5b50600436106101365760003560e01c80638da5cb5b116100b2578063b6b0b09711610081578063d02103ca11610066578063d02103ca146102e5578063e8bf92ed14610311578063f2fde38b1461033157600080fd5b8063b6b0b09714610299578063ca98a308146102c057600080fd5b80638da5cb5b1461023557806395297e2414610274578063959c2f4714610287578063ac2eba981461029057600080fd5b806343ea199611610109578063715018a6116100ee578063715018a6146102065780637fcb36531461020e5780638a4abab81461022257600080fd5b806343ea1996146101c1578063519c1e7b146101ca57600080fd5b806306d6490f1461013b578063188ea07d146101505780631c7a07ee1461018a5780631dc125b2146101ab575b600080fd5b61014e610149366004611514565b610344565b005b60025461016c90640100000000900467ffffffffffffffff1681565b60405167ffffffffffffffff90911681526020015b60405180910390f35b61019d61019836600461156d565b610649565b604051610181929190611619565b6101b36106f7565b604051908152602001610181565b61016c6103e881565b6101f16101d8366004611662565b6003602052600090815260409020805460019091015482565b60408051928352602083019190915201610181565b61014e61074d565b60045461016c9067ffffffffffffffff1681565b61014e61023036600461167d565b6107da565b60005473ffffffffffffffffffffffffffffffffffffffff165b60405173ffffffffffffffffffffffffffffffffffffffff9091168152602001610181565b61014e6102823660046116e5565b6109c3565b6101b360065481565b6101b360055481565b61024f7f000000000000000000000000000000000000000000000000000000000000000081565b6002546102d09063ffffffff1681565b60405163ffffffff9091168152602001610181565b60045461024f9068010000000000000000900473ffffffffffffffffffffffffffffffffffffffff1681565b60075461024f9073ffffffffffffffffffffffffffffffffffffffff1681565b61014e61033f36600461156d565b610dc8565b600061034e6106f7565b9050818111156103e5576040517f08c379a000000000000000000000000000000000000000000000000000000000815260206004820152602e60248201527f50726f6f664f66456666696369656e63793a3a73656e6442617463683a204e4f60448201527f545f454e4f5547485f4d4154494300000000000000000000000000000000000060648201526084015b60405180910390fd5b61042773ffffffffffffffffffffffffffffffffffffffff7f000000000000000000000000000000000000000000000000000000000000000016333084610ef8565b6000600460089054906101000a900473ffffffffffffffffffffffffffffffffffffffff1673ffffffffffffffffffffffffffffffffffffffff16633ed691ef6040518163ffffffff1660e01b815260040160206040518083038186803b15801561049157600080fd5b505afa1580156104a5573d6000803e3d6000fd5b505050506040513d601f19601f820116820180604052508101906104c99190611756565b336000908152600160208190526040822001549192509067ffffffffffffffff16156105135750336000908152600160208190526040909120015467ffffffffffffffff16610518565b506103e85b60028054640100000000900467ffffffffffffffff1690600461053a8361179e565b91906101000a81548167ffffffffffffffff021916908367ffffffffffffffff160217905550508482423384600260049054906101000a900467ffffffffffffffff16604051602001610592969594939291906117c6565b604080517fffffffffffffffffffffffffffffffffffffffffffffffffffffffffffffffe081840301815282825280516020918201206002805467ffffffffffffffff6401000000009182900481166000908152600386528681209490945582548290048116845292859020600101899055905486831686529285018790523394920416917f84a31f45db3d6d8124a47a0544d32fff930986737dd276f558ff54382780487d910160405180910390a35050505050565b60016020526000908152604090208054819061066490611856565b80601f016020809104026020016040519081016040528092919081815260200182805461069090611856565b80156106dd5780601f106106b2576101008083540402835291602001916106dd565b820191906000526020600020905b8154815290600101906020018083116106c057829003601f168201915b5050506001909301549192505067ffffffffffffffff1682565b60045460025460009167ffffffffffffffff90811691610722916401000000009091041660016118aa565b61072c91906118d6565b6107489067ffffffffffffffff16670de0b6b3a76400006118ff565b905090565b60005473ffffffffffffffffffffffffffffffffffffffff1633146107ce576040517f08c379a000000000000000000000000000000000000000000000000000000000815260206004820181905260248201527f4f776e61626c653a2063616c6c6572206973206e6f7420746865206f776e657260448201526064016103dc565b6107d86000610fda565b565b8051610868576040517f08c379a000000000000000000000000000000000000000000000000000000000815260206004820152603360248201527f50726f6f664f66456666696369656e63793a3a7265676973746572536571756560448201527f6e6365723a204e4f545f56414c49445f55524c0000000000000000000000000060648201526084016103dc565b336000908152600160208190526040909120015467ffffffffffffffff16610945576002805463ffffffff169060006108a08361193c565b825463ffffffff9182166101009390930a92830291909202199091161790555033600090815260016020908152604090912082516108e0928401906113b8565b506002546108f69063ffffffff166103e86118aa565b3360009081526001602081905260409091200180547fffffffffffffffffffffffffffffffffffffffffffffffff00000000000000001667ffffffffffffffff92909216919091179055610967565b3360009081526001602090815260409091208251610965928401906113b8565b505b33600081815260016020819052604091829020015490517fcb9ff083daeaef4973981efa83966c7a440fc6eb5cda6b7bfad8cc5765cbbca8926109b8929091859167ffffffffffffffff1690611956565b60405180910390a150565b6004546109db9067ffffffffffffffff1660016118aa565b67ffffffffffffffff168467ffffffffffffffff1614610a7d576040517f08c379a000000000000000000000000000000000000000000000000000000000815260206004820152603460248201527f50726f6f664f66456666696369656e63793a3a76657269667942617463683a2060448201527f42415443485f444f45535f4e4f545f4d4154434800000000000000000000000060648201526084016103dc565b67ffffffffffffffff84166000908152600360209081526040808320815180830183528154808252600190920154818501526005546006548451958601919091529284019290925260608301899052608083018a905260a083015291907f30644e72e131a029b85045b68181585d2833e84879b9709143e1f593f00000019060c0016040516020818303038152906040528051906020012060001c610b22919061199f565b6007546040805160208101825283815290517f43753b4d00000000000000000000000000000000000000000000000000000000815292935073ffffffffffffffffffffffffffffffffffffffff909116916343753b4d91610b8c91899189918991906004016119da565b60206040518083038186803b158015610ba457600080fd5b505afa158015610bb8573d6000803e3d6000fd5b505050506040513d601f19601f82011682018060405250810190610bdc9190611a54565b610c68576040517f08c379a000000000000000000000000000000000000000000000000000000000815260206004820152602d60248201527f50726f6f664f66456666696369656e63793a3a76657269667942617463683a2060448201527f494e56414c49445f50524f4f460000000000000000000000000000000000000060648201526084016103dc565b6004805467ffffffffffffffff16906000610c828361179e565b82546101009290920a67ffffffffffffffff8181021990931691909216919091021790555060058790556006889055600480546040517f33d6247d0000000000000000000000000000000000000000000000000000000081529182018a905268010000000000000000900473ffffffffffffffffffffffffffffffffffffffff16906333d6247d90602401600060405180830381600087803b158015610d2757600080fd5b505af1158015610d3b573d6000803e3d6000fd5b5050506020830151610d87915073ffffffffffffffffffffffffffffffffffffffff7f00000000000000000000000000000000000000000000000000000000000000001690339061104f565b604051339067ffffffffffffffff8816907f2cdf1508085a46c7241a7d78c5a1ec3d9246d1ab95e1c2a33676d29e17d4222390600090a35050505050505050565b60005473ffffffffffffffffffffffffffffffffffffffff163314610e49576040517f08c379a000000000000000000000000000000000000000000000000000000000815260206004820181905260248201527f4f776e61626c653a2063616c6c6572206973206e6f7420746865206f776e657260448201526064016103dc565b73ffffffffffffffffffffffffffffffffffffffff8116610eec576040517f08c379a000000000000000000000000000000000000000000000000000000000815260206004820152602660248201527f4f776e61626c653a206e6577206f776e657220697320746865207a65726f206160448201527f646472657373000000000000000000000000000000000000000000000000000060648201526084016103dc565b610ef581610fda565b50565b60405173ffffffffffffffffffffffffffffffffffffffff80851660248301528316604482015260648101829052610fd49085907f23b872dd00000000000000000000000000000000000000000000000000000000906084015b604080517fffffffffffffffffffffffffffffffffffffffffffffffffffffffffffffffe08184030181529190526020810180517bffffffffffffffffffffffffffffffffffffffffffffffffffffffff167fffffffff00000000000000000000000000000000000000000000000000000000909316929092179091526110aa565b50505050565b6000805473ffffffffffffffffffffffffffffffffffffffff8381167fffffffffffffffffffffffff0000000000000000000000000000000000000000831681178455604051919092169283917f8be0079c531659141344cd1fd0a4f28419497f9722a3daafe3b4186f6b6457e09190a35050565b60405173ffffffffffffffffffffffffffffffffffffffff83166024820152604481018290526110a59084907fa9059cbb0000000000000000000000000000000000000000000000000000000090606401610f52565b505050565b600061110c826040518060400160405280602081526020017f5361666545524332303a206c6f772d6c6576656c2063616c6c206661696c65648152508573ffffffffffffffffffffffffffffffffffffffff166111b69092919063ffffffff16565b8051909150156110a5578080602001905181019061112a9190611a54565b6110a5576040517f08c379a000000000000000000000000000000000000000000000000000000000815260206004820152602a60248201527f5361666545524332303a204552433230206f7065726174696f6e20646964206e60448201527f6f7420737563636565640000000000000000000000000000000000000000000060648201526084016103dc565b60606111c584846000856111cf565b90505b9392505050565b606082471015611261576040517f08c379a000000000000000000000000000000000000000000000000000000000815260206004820152602660248201527f416464726573733a20696e73756666696369656e742062616c616e636520666f60448201527f722063616c6c000000000000000000000000000000000000000000000000000060648201526084016103dc565b73ffffffffffffffffffffffffffffffffffffffff85163b6112df576040517f08c379a000000000000000000000000000000000000000000000000000000000815260206004820152601d60248201527f416464726573733a2063616c6c20746f206e6f6e2d636f6e747261637400000060448201526064016103dc565b6000808673ffffffffffffffffffffffffffffffffffffffff1685876040516113089190611a76565b60006040518083038185875af1925050503d8060008114611345576040519150601f19603f3d011682016040523d82523d6000602084013e61134a565b606091505b509150915061135a828286611365565b979650505050505050565b606083156113745750816111c8565b8251156113845782518084602001fd5b816040517f08c379a00000000000000000000000000000000000000000000000000000000081526004016103dc9190611a92565b8280546113c490611856565b90600052602060002090601f0160209004810192826113e6576000855561142c565b82601f106113ff57805160ff191683800117855561142c565b8280016001018555821561142c579182015b8281111561142c578251825591602001919060010190611411565b5061143892915061143c565b5090565b5b80821115611438576000815560010161143d565b7f4e487b7100000000000000000000000000000000000000000000000000000000600052604160045260246000fd5b600067ffffffffffffffff8084111561149b5761149b611451565b604051601f85017fffffffffffffffffffffffffffffffffffffffffffffffffffffffffffffffe0908116603f011681019082821181831017156114e1576114e1611451565b816040528093508581528686860111156114fa57600080fd5b858560208301376000602087830101525050509392505050565b6000806040838503121561152757600080fd5b823567ffffffffffffffff81111561153e57600080fd5b8301601f8101851361154f57600080fd5b61155e85823560208401611480565b95602094909401359450505050565b60006020828403121561157f57600080fd5b813573ffffffffffffffffffffffffffffffffffffffff811681146111c857600080fd5b60005b838110156115be5781810151838201526020016115a6565b83811115610fd45750506000910152565b600081518084526115e78160208601602086016115a3565b601f017fffffffffffffffffffffffffffffffffffffffffffffffffffffffffffffffe0169290920160200192915050565b60408152600061162c60408301856115cf565b905067ffffffffffffffff831660208301529392505050565b803567ffffffffffffffff8116811461165d57600080fd5b919050565b60006020828403121561167457600080fd5b6111c882611645565b60006020828403121561168f57600080fd5b813567ffffffffffffffff8111156116a657600080fd5b8201601f810184136116b757600080fd5b6116c684823560208401611480565b949350505050565b80604081018310156116df57600080fd5b92915050565b60008060008060008061016087890312156116ff57600080fd5b863595506020870135945061171660408801611645565b935061172588606089016116ce565b925061012087018881111561173957600080fd5b60a08801925061174989826116ce565b9150509295509295509295565b60006020828403121561176857600080fd5b5051919050565b7f4e487b7100000000000000000000000000000000000000000000000000000000600052601160045260246000fd5b600067ffffffffffffffff808316818114156117bc576117bc61176f565b6001019392505050565b600087516117d8818460208c016115a3565b919091019586525060c093841b7fffffffffffffffff000000000000000000000000000000000000000000000000908116602087015260609390931b7fffffffffffffffffffffffffffffffffffffffff00000000000000000000000016602886015290831b8216603c85015290911b166044820152604c01919050565b600181811c9082168061186a57607f821691505b602082108114156118a4577f4e487b7100000000000000000000000000000000000000000000000000000000600052602260045260246000fd5b50919050565b600067ffffffffffffffff8083168185168083038211156118cd576118cd61176f565b01949350505050565b600067ffffffffffffffff838116908316818110156118f7576118f761176f565b039392505050565b6000817fffffffffffffffffffffffffffffffffffffffffffffffffffffffffffffffff04831182151516156119375761193761176f565b500290565b600063ffffffff808316818114156117bc576117bc61176f565b73ffffffffffffffffffffffffffffffffffffffff8416815260606020820152600061198560608301856115cf565b905067ffffffffffffffff83166040830152949350505050565b6000826119d5577f4e487b7100000000000000000000000000000000000000000000000000000000600052601260045260246000fd5b500690565b61012081016040808784376000838201818152879190815b6002811015611a12578484833790840182815292840192906001016119f2565b5050828760c0870137610100850181815286935091505b6001811015611a48578251825260209283019290910190600101611a29565b50505095945050505050565b600060208284031215611a6657600080fd5b815180151581146111c857600080fd5b60008251611a888184602087016115a3565b9190910192915050565b6020815260006111c860208301846115cf56fea2646970667358221220a5ed86036eb3521cefdc4d4f0977ba0c1e066cfd1306a324c4ae7ac5bdd80de064736f6c63430008090033",
  "linkReferences": {},
  "deployedLinkReferences": {}
}