{
  "_format": "hh-sol-artifact-1",
  "contractName": "ProofOfEfficiencyMock",
  "sourceName": "contracts/mocks/ProofOfEfficiencyMock.sol",
  "abi": [
    {
      "inputs": [
        {
          "internalType": "contract IGlobalExitRootManager",
          "name": "_globalExitRootManager",
          "type": "address"
        },
        {
          "internalType": "contract IERC20",
          "name": "_matic",
          "type": "address"
        },
        {
          "internalType": "contract IVerifierRollup",
          "name": "_rollupVerifier",
          "type": "address"
        },
        {
          "internalType": "bytes32",
          "name": "genesisRoot",
          "type": "bytes32"
        },
        {
          "internalType": "address",
          "name": "_trustedSequencer",
          "type": "address"
        },
        {
          "internalType": "bool",
          "name": "_forceBatchAllowed",
          "type": "bool"
        },
        {
          "internalType": "string",
          "name": "_trustedSequencerURL",
          "type": "string"
        }
      ],
      "stateMutability": "nonpayable",
      "type": "constructor"
    },
    {
      "anonymous": false,
      "inputs": [
        {
          "indexed": true,
          "internalType": "uint64",
          "name": "forceBatchNum",
          "type": "uint64"
        },
        {
          "indexed": false,
          "internalType": "bytes32",
          "name": "lastGlobalExitRoot",
          "type": "bytes32"
        },
        {
          "indexed": false,
          "internalType": "address",
          "name": "sequencer",
          "type": "address"
        },
        {
          "indexed": false,
          "internalType": "bytes",
          "name": "transactions",
          "type": "bytes"
        }
      ],
      "name": "ForceBatch",
      "type": "event"
    },
    {
      "anonymous": false,
      "inputs": [
        {
          "indexed": true,
          "internalType": "uint64",
          "name": "numBatch",
          "type": "uint64"
        }
      ],
      "name": "SequenceBatches",
      "type": "event"
    },
    {
      "anonymous": false,
      "inputs": [
        {
          "indexed": true,
          "internalType": "uint64",
          "name": "numBatch",
          "type": "uint64"
        }
      ],
      "name": "SequenceForceBatches",
      "type": "event"
    },
    {
      "anonymous": false,
      "inputs": [
        {
          "indexed": false,
          "internalType": "bool",
          "name": "newForceBatchAllowed",
          "type": "bool"
        }
      ],
      "name": "SetForceBatchAllowed",
      "type": "event"
    },
    {
      "anonymous": false,
      "inputs": [
        {
          "indexed": false,
          "internalType": "address",
          "name": "newTrustedSequencer",
          "type": "address"
        }
      ],
      "name": "SetTrustedSequencer",
      "type": "event"
    },
    {
      "anonymous": false,
      "inputs": [
        {
          "indexed": false,
          "internalType": "string",
          "name": "newTrustedSequencerURL",
          "type": "string"
        }
      ],
      "name": "SetTrustedSequencerURL",
      "type": "event"
    },
    {
      "anonymous": false,
      "inputs": [
        {
          "indexed": true,
          "internalType": "uint64",
          "name": "numBatch",
          "type": "uint64"
        },
        {
          "indexed": true,
          "internalType": "address",
          "name": "aggregator",
          "type": "address"
        }
      ],
      "name": "VerifyBatch",
      "type": "event"
    },
    {
      "inputs": [],
      "name": "FORCE_BATCH_TIMEOUT",
      "outputs": [
        {
          "internalType": "uint64",
          "name": "",
          "type": "uint64"
        }
      ],
      "stateMutability": "view",
      "type": "function"
    },
    {
      "inputs": [],
      "name": "MAX_BATCH_LENGTH",
      "outputs": [
        {
          "internalType": "uint256",
          "name": "",
          "type": "uint256"
        }
      ],
      "stateMutability": "view",
      "type": "function"
    },
    {
      "inputs": [],
      "name": "TRUSTED_SEQUENCER_FEE",
      "outputs": [
        {
          "internalType": "uint256",
          "name": "",
          "type": "uint256"
        }
      ],
      "stateMutability": "view",
      "type": "function"
    },
    {
      "inputs": [
        {
          "internalType": "bytes32",
          "name": "currentStateRoot",
          "type": "bytes32"
        },
        {
          "internalType": "bytes32",
          "name": "currentLocalExitRoot",
          "type": "bytes32"
        },
        {
          "internalType": "bytes32",
          "name": "newStateRoot",
          "type": "bytes32"
        },
        {
          "internalType": "bytes32",
          "name": "newLocalExitRoot",
          "type": "bytes32"
        },
        {
          "internalType": "bytes32",
          "name": "batchHashData",
          "type": "bytes32"
        },
        {
          "internalType": "uint64",
          "name": "numBatch",
          "type": "uint64"
        },
        {
          "internalType": "uint64",
          "name": "timestamp",
          "type": "uint64"
        }
      ],
      "name": "calculateCircuitInput",
      "outputs": [
        {
          "internalType": "uint256",
          "name": "",
          "type": "uint256"
        }
      ],
      "stateMutability": "pure",
      "type": "function"
    },
    {
      "inputs": [],
      "name": "calculateForceProverFee",
      "outputs": [
        {
          "internalType": "uint256",
          "name": "",
          "type": "uint256"
        }
      ],
      "stateMutability": "view",
      "type": "function"
    },
    {
      "inputs": [],
      "name": "currentLocalExitRoot",
      "outputs": [
        {
          "internalType": "bytes32",
          "name": "",
          "type": "bytes32"
        }
      ],
      "stateMutability": "view",
      "type": "function"
    },
    {
      "inputs": [],
      "name": "currentStateRoot",
      "outputs": [
        {
          "internalType": "bytes32",
          "name": "",
          "type": "bytes32"
        }
      ],
      "stateMutability": "view",
      "type": "function"
    },
    {
      "inputs": [
        {
          "internalType": "bytes",
          "name": "transactions",
          "type": "bytes"
        },
        {
          "internalType": "uint256",
          "name": "maticAmount",
          "type": "uint256"
        }
      ],
      "name": "forceBatch",
      "outputs": [],
      "stateMutability": "nonpayable",
      "type": "function"
    },
    {
      "inputs": [],
      "name": "forceBatchAllowed",
      "outputs": [
        {
          "internalType": "bool",
          "name": "",
          "type": "bool"
        }
      ],
      "stateMutability": "view",
      "type": "function"
    },
    {
      "inputs": [
        {
          "internalType": "uint64",
          "name": "",
          "type": "uint64"
        }
      ],
      "name": "forcedBatches",
      "outputs": [
        {
          "internalType": "bytes32",
          "name": "batchHashData",
          "type": "bytes32"
        },
        {
          "internalType": "uint256",
          "name": "maticFee",
          "type": "uint256"
        },
        {
          "internalType": "uint64",
          "name": "minTimestamp",
          "type": "uint64"
        }
      ],
      "stateMutability": "view",
      "type": "function"
    },
    {
      "inputs": [
        {
          "internalType": "bytes32",
          "name": "newLocalExitRoot",
          "type": "bytes32"
        },
        {
          "internalType": "bytes32",
          "name": "newStateRoot",
          "type": "bytes32"
        },
        {
          "internalType": "uint64",
          "name": "numBatch",
          "type": "uint64"
        }
      ],
      "name": "getNextCircuitInput",
      "outputs": [
        {
          "internalType": "uint256",
          "name": "",
          "type": "uint256"
        }
      ],
      "stateMutability": "view",
      "type": "function"
    },
    {
      "inputs": [],
      "name": "globalExitRootManager",
      "outputs": [
        {
          "internalType": "contract IGlobalExitRootManager",
          "name": "",
          "type": "address"
        }
      ],
      "stateMutability": "view",
      "type": "function"
    },
    {
      "inputs": [],
      "name": "lastBatchSequenced",
      "outputs": [
        {
          "internalType": "uint64",
          "name": "",
          "type": "uint64"
        }
      ],
      "stateMutability": "view",
      "type": "function"
    },
    {
      "inputs": [],
      "name": "lastForceBatch",
      "outputs": [
        {
          "internalType": "uint64",
          "name": "",
          "type": "uint64"
        }
      ],
      "stateMutability": "view",
      "type": "function"
    },
    {
      "inputs": [],
      "name": "lastForceBatchSequenced",
      "outputs": [
        {
          "internalType": "uint64",
          "name": "",
          "type": "uint64"
        }
      ],
      "stateMutability": "view",
      "type": "function"
    },
    {
      "inputs": [],
      "name": "lastTimestamp",
      "outputs": [
        {
          "internalType": "uint64",
          "name": "",
          "type": "uint64"
        }
      ],
      "stateMutability": "view",
      "type": "function"
    },
    {
      "inputs": [],
      "name": "lastVerifiedBatch",
      "outputs": [
        {
          "internalType": "uint64",
          "name": "",
          "type": "uint64"
        }
      ],
      "stateMutability": "view",
      "type": "function"
    },
    {
      "inputs": [],
      "name": "matic",
      "outputs": [
        {
          "internalType": "contract IERC20",
          "name": "",
          "type": "address"
        }
      ],
      "stateMutability": "view",
      "type": "function"
    },
    {
      "inputs": [
        {
          "internalType": "bytes32",
          "name": "newLocalExitRoot",
          "type": "bytes32"
        },
        {
          "internalType": "bytes32",
          "name": "newStateRoot",
          "type": "bytes32"
        },
        {
          "internalType": "uint32",
          "name": "numBatch",
          "type": "uint32"
        }
      ],
      "name": "returnInputHashParameters",
      "outputs": [
        {
          "internalType": "bytes",
          "name": "",
          "type": "bytes"
        }
      ],
      "stateMutability": "view",
      "type": "function"
    },
    {
      "inputs": [],
      "name": "rollupVerifier",
      "outputs": [
        {
          "internalType": "contract IVerifierRollup",
          "name": "",
          "type": "address"
        }
      ],
      "stateMutability": "view",
      "type": "function"
    },
    {
      "inputs": [
        {
          "components": [
            {
              "internalType": "bytes",
              "name": "transactions",
              "type": "bytes"
            },
            {
              "internalType": "bytes32",
              "name": "globalExitRoot",
              "type": "bytes32"
            },
            {
              "internalType": "uint64",
              "name": "timestamp",
              "type": "uint64"
            },
            {
              "internalType": "uint64[]",
              "name": "forceBatchesTimestamp",
              "type": "uint64[]"
            }
          ],
          "internalType": "struct ProofOfEfficiency.BatchData[]",
          "name": "batches",
          "type": "tuple[]"
        }
      ],
      "name": "sequenceBatches",
      "outputs": [],
      "stateMutability": "nonpayable",
      "type": "function"
    },
    {
      "inputs": [
        {
          "internalType": "uint64",
          "name": "numForcedBatches",
          "type": "uint64"
        }
      ],
      "name": "sequenceForceBatches",
      "outputs": [],
      "stateMutability": "nonpayable",
      "type": "function"
    },
    {
      "inputs": [
        {
          "internalType": "uint64",
          "name": "",
          "type": "uint64"
        }
      ],
      "name": "sequencedBatches",
      "outputs": [
        {
          "internalType": "bytes32",
          "name": "batchHashData",
          "type": "bytes32"
        },
        {
          "internalType": "uint64",
          "name": "timestamp",
          "type": "uint64"
        },
        {
          "internalType": "uint64",
          "name": "forceBatchNum",
          "type": "uint64"
        }
      ],
      "stateMutability": "view",
      "type": "function"
    },
    {
      "inputs": [
        {
          "internalType": "bytes32",
          "name": "newLocalExitRoot",
          "type": "bytes32"
        }
      ],
      "name": "setExitRoot",
      "outputs": [],
      "stateMutability": "nonpayable",
      "type": "function"
    },
    {
      "inputs": [
        {
          "internalType": "bool",
          "name": "newForceBatchAllowed",
          "type": "bool"
        }
      ],
      "name": "setForceBatchAllowed",
      "outputs": [],
      "stateMutability": "nonpayable",
      "type": "function"
    },
    {
      "inputs": [
        {
          "internalType": "bytes32",
          "name": "newStateRoot",
          "type": "bytes32"
        }
      ],
      "name": "setStateRoot",
      "outputs": [],
      "stateMutability": "nonpayable",
      "type": "function"
    },
    {
      "inputs": [
        {
          "internalType": "address",
          "name": "newTrustedSequencer",
          "type": "address"
        }
      ],
      "name": "setTrustedSequencer",
      "outputs": [],
      "stateMutability": "nonpayable",
      "type": "function"
    },
    {
      "inputs": [
        {
          "internalType": "string",
          "name": "newTrustedSequencerURL",
          "type": "string"
        }
      ],
      "name": "setTrustedSequencerURL",
      "outputs": [],
      "stateMutability": "nonpayable",
      "type": "function"
    },
    {
      "inputs": [],
      "name": "trustedSequencer",
      "outputs": [
        {
          "internalType": "address",
          "name": "",
          "type": "address"
        }
      ],
      "stateMutability": "view",
      "type": "function"
    },
    {
      "inputs": [],
      "name": "trustedSequencerURL",
      "outputs": [
        {
          "internalType": "string",
          "name": "",
          "type": "string"
        }
      ],
      "stateMutability": "view",
      "type": "function"
    },
    {
      "inputs": [
        {
          "internalType": "bytes32",
          "name": "newLocalExitRoot",
          "type": "bytes32"
        },
        {
          "internalType": "bytes32",
          "name": "newStateRoot",
          "type": "bytes32"
        },
        {
          "internalType": "uint64",
          "name": "numBatch",
          "type": "uint64"
        },
        {
          "internalType": "uint256[2]",
          "name": "proofA",
          "type": "uint256[2]"
        },
        {
          "internalType": "uint256[2][2]",
          "name": "proofB",
          "type": "uint256[2][2]"
        },
        {
          "internalType": "uint256[2]",
          "name": "proofC",
          "type": "uint256[2]"
        }
      ],
      "name": "verifyBatch",
      "outputs": [],
      "stateMutability": "nonpayable",
      "type": "function"
    }
  ],
  "bytecode": "0x60a06040523480156200001157600080fd5b5060405162003ab838038062003ab8833981016040819052620000349162000100565b600480546001600160a01b03199081166001600160a01b038a81169190911790925587821660805260078054909116878316179055600585905560038054600160401b600160e81b031916680100000000000000009286169290920260ff60e01b191691909117600160e01b84151502179055868686868686866008620000bc8282620002e8565b505050505050505050505050505050620003b4565b6001600160a01b0381168114620000e757600080fd5b50565b634e487b7160e01b600052604160045260246000fd5b600080600080600080600060e0888a0312156200011c57600080fd5b87516200012981620000d1565b809750506020808901516200013e81620000d1565b60408a01519097506200015181620000d1565b60608a015160808b015191975095506200016b81620000d1565b60a08a015190945080151581146200018257600080fd5b60c08a01519093506001600160401b0380821115620001a057600080fd5b818b0191508b601f830112620001b557600080fd5b815181811115620001ca57620001ca620000ea565b604051601f8201601f19908116603f01168101908382118183101715620001f557620001f5620000ea565b816040528281528e868487010111156200020e57600080fd5b600093505b8284101562000232578484018601518185018701529285019262000213565b82841115620002445760008684830101525b80965050505050505092959891949750929550565b600181811c908216806200026e57607f821691505b6020821081036200028f57634e487b7160e01b600052602260045260246000fd5b50919050565b601f821115620002e357600081815260208120601f850160051c81016020861015620002be5750805b601f850160051c820191505b81811015620002df57828155600101620002ca565b5050505b505050565b81516001600160401b03811115620003045762000304620000ea565b6200031c8162000315845462000259565b8462000295565b602080601f8311600181146200035457600084156200033b5750858301515b600019600386901b1c1916600185901b178555620002df565b600085815260208120601f198616915b82811015620003855788860151825594840194600190910190840162000364565b5085821015620003a45787850151600019600388901b60f8161c191681555b5050505050600190811b01905550565b6080516136d3620003e56000396000818161044a0152818161113401528181611c57015261201001526136d36000f3fe608060405234801561001057600080fd5b50600436106101e55760003560e01c8063aa0f44181161010f578063d02103ca116100a2578063e8bf92ed11610071578063e8bf92ed14610570578063eaeb077b14610590578063f7552761146105a3578063f7d2cd7f146105b257600080fd5b8063d02103ca146104d0578063d307b743146104f0578063d8f54db014610503578063e7a7ed021461054057600080fd5b8063b4d63f58116100de578063b4d63f58146103de578063b6b0b09714610445578063c89e42df14610491578063cfa8ed47146104a457600080fd5b8063aa0f441814610391578063ab9fc5ef146103a4578063ac2eba98146103ae578063b02286c0146103b757600080fd5b80636ff512cc116101875780638c4a0af7116101565780638c4a0af71461034f57806395297e2414610362578063959c2f4714610375578063a86a95141461037e57600080fd5b80636ff512cc146102ff578063781eead81461031257806379847057146103335780637fcb36531461033b57600080fd5b8063423fa856116101c3578063423fa856146102515780634560526714610271578063542028d5146102995780636b8616ce146102a157600080fd5b8063116c40c3146101ea57806319d8ac61146101ff57806325d0a8f514610231575b600080fd5b6101fd6101f8366004612bce565b600655565b005b6002546102139067ffffffffffffffff1681565b60405167ffffffffffffffff90911681526020015b60405180910390f35b61024461023f366004612be7565b6105c5565b6040516102289190612c9f565b6002546102139068010000000000000000900467ffffffffffffffff1681565b60025461021390700100000000000000000000000000000000900467ffffffffffffffff1681565b6102446107ef565b6102da6102af366004612ccf565b60006020819052908152604090208054600182015460029092015490919067ffffffffffffffff1683565b60408051938452602084019290925267ffffffffffffffff1690820152606001610228565b6101fd61030d366004612cea565b61087d565b610325610320366004612d20565b6109b8565b604051908152602001610228565b610325610a6d565b6003546102139067ffffffffffffffff1681565b6101fd61035d366004612d94565b610ae7565b6101fd610370366004612dc8565b610c1b565b61032560065481565b61032561038c366004612e39565b6111a0565b6101fd61039f366004612ccf565b6113d6565b61021362093a8081565b61032560055481565b6103257fffffffffffffffffffffffffffffffffffffffffffffffffffffffffffffffff81565b61041f6103ec366004612ccf565b6001602081905260009182526040909120805491015467ffffffffffffffff808216916801000000000000000090041683565b6040805193845267ffffffffffffffff9283166020850152911690820152606001610228565b61046c7f000000000000000000000000000000000000000000000000000000000000000081565b60405173ffffffffffffffffffffffffffffffffffffffff9091168152602001610228565b6101fd61049f366004612f8b565b611925565b60035461046c9068010000000000000000900473ffffffffffffffffffffffffffffffffffffffff1681565b60045461046c9073ffffffffffffffffffffffffffffffffffffffff1681565b6101fd6104fe366004612bce565b600555565b600354610530907c0100000000000000000000000000000000000000000000000000000000900460ff1681565b6040519015158152602001610228565b600254610213907801000000000000000000000000000000000000000000000000900467ffffffffffffffff1681565b60075461046c9073ffffffffffffffffffffffffffffffffffffffff1681565b6101fd61059e366004612ff4565b611a14565b61032567016345785d8a000081565b6101fd6105c036600461305d565b611f2d565b6003546060906105e09067ffffffffffffffff166001613231565b67ffffffffffffffff168263ffffffff1614610683576040517f08c379a000000000000000000000000000000000000000000000000000000000815260206004820152603460248201527f50726f6f664f66456666696369656e63793a3a76657269667942617463683a2060448201527f42415443485f444f45535f4e4f545f4d4154434800000000000000000000000060648201526084015b60405180910390fd5b63ffffffff821660009081526001602081905260408220015467ffffffffffffffff81811692918291680100000000000000009091041681036106e657505063ffffffff831660009081526001602052604090205467016345785d8a000061074c565b505063ffffffff8316600090815260016020818152604080842083015468010000000000000000900467ffffffffffffffff9081168552848352938190208151606081018352815480825294820154938101849052600290910154909416930192909252905b600554600654604080516020810193909352820152606081018790526080810188905260a0810183905260e086901b7fffffffff000000000000000000000000000000000000000000000000000000001660c08083019190915284901b7fffffffffffffffff0000000000000000000000000000000000000000000000001660c482015260cc0160405160208183030381529060405293505050505b9392505050565b600880546107fc9061325d565b80601f01602080910402602001604051908101604052809291908181526020018280546108289061325d565b80156108755780601f1061084a57610100808354040283529160200191610875565b820191906000526020600020905b81548152906001019060200180831161085857829003601f168201915b505050505081565b60035468010000000000000000900473ffffffffffffffffffffffffffffffffffffffff163314610930576040517f08c379a000000000000000000000000000000000000000000000000000000000815260206004820152603f60248201527f50726f6f664f66456666696369656e63793a3a6f6e6c7954727573746564536560448201527f7175656e6365723a206f6e6c7920747275737465642073657175656e63657200606482015260840161067a565b600380547fffffffff0000000000000000000000000000000000000000ffffffffffffffff166801000000000000000073ffffffffffffffffffffffffffffffffffffffff8416908102919091179091556040519081527ff54144f9611984021529f814a1cb6a41e22c58351510a0d9f7e822618abb9cc0906020015b60405180910390a150565b6040805160208101899052908101879052606081018690526080810185905260a081018490527fffffffffffffffff00000000000000000000000000000000000000000000000060c084811b82168184015283901b1660c882015260009081907f30644e72e131a029b85045b68181585d2833e84879b9709143e1f593f00000019060d0016040516020818303038152906040528051906020012060001c610a6091906132b0565b9998505050505050505050565b60025460009067ffffffffffffffff7001000000000000000000000000000000008204811691610abc917801000000000000000000000000000000000000000000000000909104166001613231565b610ac691906132eb565b610ae29067ffffffffffffffff16670de0b6b3a7640000613314565b905090565b60035468010000000000000000900473ffffffffffffffffffffffffffffffffffffffff163314610b9a576040517f08c379a000000000000000000000000000000000000000000000000000000000815260206004820152603f60248201527f50726f6f664f66456666696369656e63793a3a6f6e6c7954727573746564536560448201527f7175656e6365723a206f6e6c7920747275737465642073657175656e63657200606482015260840161067a565b600380548215157c0100000000000000000000000000000000000000000000000000000000027fffffff00ffffffffffffffffffffffffffffffffffffffffffffffffffffffff9091161790556040517fbacda50a4a8575be1d91a7ebe29ee45056f3a94f12a2281eb6b43afa33bcefe6906109ad90831515815260200190565b600354610c339067ffffffffffffffff166001613231565b67ffffffffffffffff168467ffffffffffffffff1614610cd5576040517f08c379a000000000000000000000000000000000000000000000000000000000815260206004820152603460248201527f50726f6f664f66456666696369656e63793a3a76657269667942617463683a2060448201527f626174636820646f6573206e6f74206d61746368000000000000000000000000606482015260840161067a565b60025467ffffffffffffffff6801000000000000000090910481169085161115610da7576040517f08c379a000000000000000000000000000000000000000000000000000000000815260206004820152604260248201527f50726f6f664f66456666696369656e63793a3a76657269667942617463683a2060448201527f626174636820646f6573206e6f742068617665206265656e2073657175656e6360648201527f6564000000000000000000000000000000000000000000000000000000000000608482015260a40161067a565b67ffffffffffffffff808516600090815260016020819052604082200154808316928291680100000000000000009004168103610e0857505067ffffffffffffffff851660009081526001602052604090205467016345785d8a0000610e6a565b505067ffffffffffffffff80861660009081526001602081815260408084208301546801000000000000000090048516845283825292839020835160608101855281548082529382015492810183905260029091015490941693909201929092525b60055460065460408051602081019390935282015260608101899052608081018a905260a081018390527fffffffffffffffff00000000000000000000000000000000000000000000000060c089811b82168184015285901b1660c88201526000907f30644e72e131a029b85045b68181585d2833e84879b9709143e1f593f00000019060d0016040516020818303038152906040528051906020012060001c610f1491906132b0565b60075460408051808201825283815233602082015290517ff5c9d69e00000000000000000000000000000000000000000000000000000000815292935073ffffffffffffffffffffffffffffffffffffffff9091169163f5c9d69e91610f83918b918b918b9190600401613351565b602060405180830381865afa158015610fa0573d6000803e3d6000fd5b505050506040513d601f19601f82011682018060405250810190610fc491906133cb565b611050576040517f08c379a000000000000000000000000000000000000000000000000000000000815260206004820152602d60248201527f50726f6f664f66456666696369656e63793a3a76657269667942617463683a2060448201527f494e56414c49445f50524f4f4600000000000000000000000000000000000000606482015260840161067a565b6003805467ffffffffffffffff1690600061106a836133e8565b825467ffffffffffffffff9182166101009390930a928302919092021990911617905550600589905560068a9055600480546040517f33d6247d0000000000000000000000000000000000000000000000000000000081529182018c905273ffffffffffffffffffffffffffffffffffffffff16906333d6247d90602401600060405180830381600087803b15801561110257600080fd5b505af1158015611116573d6000803e3d6000fd5b5061115d92505073ffffffffffffffffffffffffffffffffffffffff7f0000000000000000000000000000000000000000000000000000000000000000169050338461278b565b604051339067ffffffffffffffff8a16907f2cdf1508085a46c7241a7d78c5a1ec3d9246d1ab95e1c2a33676d29e17d4222390600090a350505050505050505050565b6003546000906111bb9067ffffffffffffffff166001613231565b67ffffffffffffffff168267ffffffffffffffff161461125d576040517f08c379a000000000000000000000000000000000000000000000000000000000815260206004820152603460248201527f50726f6f664f66456666696369656e63793a3a76657269667942617463683a2060448201527f42415443485f444f45535f4e4f545f4d41544348000000000000000000000000606482015260840161067a565b67ffffffffffffffff8083166000908152600160208190526040822001548083169282916801000000000000000090041681036112be57505067ffffffffffffffff831660009081526001602052604090205467016345785d8a0000611320565b505067ffffffffffffffff80841660009081526001602081815260408084208301546801000000000000000090048516845283825292839020835160608101855281548082529382015492810183905260029091015490941693909201929092525b600554600654604080516020810193909352820152606081018790526080810188905260a081018390527fffffffffffffffff00000000000000000000000000000000000000000000000060c087811b82168184015285901b1660c88201526000907f30644e72e131a029b85045b68181585d2833e84879b9709143e1f593f00000019060d0016040516020818303038152906040528051906020012060001c6113ca91906132b0565b98975050505050505050565b6003547c0100000000000000000000000000000000000000000000000000000000900460ff1615156001146114b3576040517f08c379a000000000000000000000000000000000000000000000000000000000815260206004820152604860248201527f50726f6f664f66456666696369656e63793a3a6973466f72636542617463684160448201527f6c6c6f7765643a206f6e6c7920696620666f726365206261746368206973206160648201527f7661696c61626c65000000000000000000000000000000000000000000000000608482015260a40161067a565b6002546000906114e2908390700100000000000000000000000000000000900467ffffffffffffffff16613231565b905060008267ffffffffffffffff16116115a4576040517f08c379a000000000000000000000000000000000000000000000000000000000815260206004820152604260248201527f50726f6f664f66456666696369656e63793a3a73657175656e6365466f72636560448201527f42617463683a204d75737420666f726365206174206c6561737420312062617460648201527f6368000000000000000000000000000000000000000000000000000000000000608482015260a40161067a565b60025467ffffffffffffffff780100000000000000000000000000000000000000000000000090910481169082161115611660576040517f08c379a000000000000000000000000000000000000000000000000000000000815260206004820152603a60248201527f50726f6f664f66456666696369656e63793a3a73657175656e6365466f72636560448201527f42617463683a20466f72636520626174636820696e76616c6964000000000000606482015260840161067a565b60035468010000000000000000900473ffffffffffffffffffffffffffffffffffffffff1633146117785767ffffffffffffffff80821660009081526020819052604090206002015442916116ba9162093a809116613231565b67ffffffffffffffff161115611778576040517f08c379a000000000000000000000000000000000000000000000000000000000815260206004820152604c60248201527f50726f6f664f66456666696369656e63793a3a73657175656e6365466f72636560448201527f42617463683a20466f72636564206261746368206973206e6f7420696e20746960648201527f6d656f757420706572696f640000000000000000000000000000000000000000608482015260a40161067a565b60025467ffffffffffffffff68010000000000000000820481169170010000000000000000000000000000000090041660005b8467ffffffffffffffff1681101561186857816117c7816133e8565b92505082806117d5906133e8565b67ffffffffffffffff81811660009081526001602081905260409091200180547fffffffffffffffffffffffffffffffff000000000000000000000000000000001668010000000000000000878416027fffffffffffffffffffffffffffffffffffffffffffffffff000000000000000016174290921691909117905593508190506118608161340f565b9150506117ab565b50600280544267ffffffffffffffff9081167fffffffffffffffffffffffffffffffff0000000000000000000000000000000090921691909117680100000000000000008583168102919091177fffffffffffffffff0000000000000000ffffffffffffffffffffffffffffffff16700100000000000000000000000000000000858416021792839055604051920416907f648a61dd2438f072f5a1960939abd30f37aea80d2e94c9792ad142d3e0a490a490600090a250505050565b60035468010000000000000000900473ffffffffffffffffffffffffffffffffffffffff1633146119d8576040517f08c379a000000000000000000000000000000000000000000000000000000000815260206004820152603f60248201527f50726f6f664f66456666696369656e63793a3a6f6e6c7954727573746564536560448201527f7175656e6365723a206f6e6c7920747275737465642073657175656e63657200606482015260840161067a565b60086119e48282613495565b507f6b8f723a4c7a5335cafae8a598a0aa0301be1387c037dccc085b62add6448b20816040516109ad9190612c9f565b6003547c0100000000000000000000000000000000000000000000000000000000900460ff161515600114611af1576040517f08c379a000000000000000000000000000000000000000000000000000000000815260206004820152604860248201527f50726f6f664f66456666696369656e63793a3a6973466f72636542617463684160448201527f6c6c6f7765643a206f6e6c7920696620666f726365206261746368206973206160648201527f7661696c61626c65000000000000000000000000000000000000000000000000608482015260a40161067a565b6000611afb610a6d565b905081811115611b8d576040517f08c379a000000000000000000000000000000000000000000000000000000000815260206004820152602f60248201527f50726f6f664f66456666696369656e63793a3a666f72636542617463683a206e60448201527f6f7420656e6f756768206d617469630000000000000000000000000000000000606482015260840161067a565b7fffffffffffffffffffffffffffffffffffffffffffffffffffffffffffffffff835110611c3d576040517f08c379a000000000000000000000000000000000000000000000000000000000815260206004820152603a60248201527f50726f6f664f66456666696369656e63793a3a666f72636542617463683a205460448201527f72616e73616374696f6e73206279746573206f766572666c6f77000000000000606482015260840161067a565b611c7f73ffffffffffffffffffffffffffffffffffffffff7f000000000000000000000000000000000000000000000000000000000000000016333084612864565b6000600460009054906101000a900473ffffffffffffffffffffffffffffffffffffffff1673ffffffffffffffffffffffffffffffffffffffff16633ed691ef6040518163ffffffff1660e01b8152600401602060405180830381865afa158015611cee573d6000803e3d6000fd5b505050506040513d601f19601f82011682018060405250810190611d1291906135af565b60028054919250780100000000000000000000000000000000000000000000000090910467ffffffffffffffff16906018611d4c836133e8565b91906101000a81548167ffffffffffffffff021916908367ffffffffffffffff16021790555050838133604051602001611d88939291906135c8565b604080518083037fffffffffffffffffffffffffffffffffffffffffffffffffffffffffffffffe001815291815281516020928301206002805478010000000000000000000000000000000000000000000000009081900467ffffffffffffffff9081166000908152958690528486209390935581548190048316855283852060010187905581540482168452919092200180547fffffffffffffffffffffffffffffffffffffffffffffffff00000000000000001642909216919091179055323303611eca57600254604080518381523360208201526060918101829052600091810191909152780100000000000000000000000000000000000000000000000090910467ffffffffffffffff16907ff94bb37db835f1ab585ee00041849a09b12cd081d77fa15ca070757619cbc9319060800160405180910390a2611f27565b600260189054906101000a900467ffffffffffffffff1667ffffffffffffffff167ff94bb37db835f1ab585ee00041849a09b12cd081d77fa15ca070757619cbc931823387604051611f1e93929190613614565b60405180910390a25b50505050565b60035468010000000000000000900473ffffffffffffffffffffffffffffffffffffffff163314611fe0576040517f08c379a000000000000000000000000000000000000000000000000000000000815260206004820152603f60248201527f50726f6f664f66456666696369656e63793a3a6f6e6c7954727573746564536560448201527f7175656e6365723a206f6e6c7920747275737465642073657175656e63657200606482015260840161067a565b80516120383330611ff98467016345785d8a0000613314565b73ffffffffffffffffffffffffffffffffffffffff7f000000000000000000000000000000000000000000000000000000000000000016929190612864565b60025467ffffffffffffffff808216916801000000000000000081048216917001000000000000000000000000000000009091041660005b8481101561261257600086828151811061208c5761208c613652565b602002602001015190508467ffffffffffffffff16816040015167ffffffffffffffff16101580156120cc575042816040015167ffffffffffffffff1611155b61217e576040517f08c379a000000000000000000000000000000000000000000000000000000000815260206004820152604260248201527f50726f6f664f66456666696369656e63793a3a73657175656e6365426174636860448201527f65733a2054696d657374616d70206d75737420626520696e736964652072616e60648201527f6765000000000000000000000000000000000000000000000000000000000000608482015260a40161067a565b6020810151158061222357506004805460208301516040517f257b36320000000000000000000000000000000000000000000000000000000081529283015273ffffffffffffffffffffffffffffffffffffffff169063257b3632906024016020604051808303816000875af11580156121fc573d6000803e3d6000fd5b505050506040513d601f19601f8201168201806040525081019061222091906135af565b15155b6122af576040517f08c379a000000000000000000000000000000000000000000000000000000000815260206004820152603f60248201527f50726f6f664f66456666696369656e63793a3a73657175656e6365426174636860448201527f65733a20476c6f62616c206578697420726f6f74206d75737420657869737400606482015260840161067a565b8051517fffffffffffffffffffffffffffffffffffffffffffffffffffffffffffffffff11612360576040517f08c379a000000000000000000000000000000000000000000000000000000000815260206004820152603f60248201527f50726f6f664f66456666696369656e63793a3a73657175656e6365426174636860448201527f65733a205472616e73616374696f6e73206279746573206f766572666c6f7700606482015260840161067a565b8361236a816133e8565b8251602080850151604051939850612387945091923391016135c8565b604080518083037fffffffffffffffffffffffffffffffffffffffffffffffffffffffffffffffe0018152918152815160209283012067ffffffffffffffff8781166000908152600194859052838120928355928501519190930180547fffffffffffffffffffffffffffffffffffffffffffffffff000000000000000016938216939093179092559095505b8160600151518110156125fd578361242b816133e8565b94505060008260600151828151811061244657612446613652565b602002602001015190508667ffffffffffffffff168167ffffffffffffffff1610158015612495575067ffffffffffffffff808616600090815260208190526040902060020154811690821610155b80156124ab5750428167ffffffffffffffff1611155b61255d576040517f08c379a000000000000000000000000000000000000000000000000000000000815260206004820152605160248201527f50726f6f664f66456666696369656e63793a3a73657175656e6365426174636860448201527f65733a20466f7263656420626174636865732074696d657374616d70206d757360648201527f7420626520696e736964652072616e6765000000000000000000000000000000608482015260a40161067a565b85612567816133e8565b67ffffffffffffffff81811660009081526001602081905260409091200180547fffffffffffffffffffffffffffffffff0000000000000000000000000000000016680100000000000000008a8416027fffffffffffffffffffffffffffffffffffffffffffffffff000000000000000016179185169190911790559197509095508190506125f58161340f565b915050612414565b5050808061260a9061340f565b915050612070565b5060025467ffffffffffffffff7801000000000000000000000000000000000000000000000000909104811690821611156126cf576040517f08c379a000000000000000000000000000000000000000000000000000000000815260206004820152603a60248201527f50726f6f664f66456666696369656e63793a3a73657175656e6365426174636860448201527f65733a20466f7263652062617463686573206f766572666c6f77000000000000606482015260840161067a565b6002805467ffffffffffffffff8581167fffffffffffffffffffffffffffffffff0000000000000000000000000000000090921691909117680100000000000000008583168102919091177fffffffffffffffff0000000000000000ffffffffffffffffffffffffffffffff16700100000000000000000000000000000000858416021792839055604051920416907f303446e6a8cb73c83dff421c0b1d5e5ce0719dab1bff13660fc254e58cc17fce90600090a25050505050565b60405173ffffffffffffffffffffffffffffffffffffffff831660248201526044810182905261285f9084907fa9059cbb00000000000000000000000000000000000000000000000000000000906064015b604080517fffffffffffffffffffffffffffffffffffffffffffffffffffffffffffffffe08184030181529190526020810180517bffffffffffffffffffffffffffffffffffffffffffffffffffffffff167fffffffff00000000000000000000000000000000000000000000000000000000909316929092179091526128c2565b505050565b60405173ffffffffffffffffffffffffffffffffffffffff80851660248301528316604482015260648101829052611f279085907f23b872dd00000000000000000000000000000000000000000000000000000000906084016127dd565b6000612924826040518060400160405280602081526020017f5361666545524332303a206c6f772d6c6576656c2063616c6c206661696c65648152508573ffffffffffffffffffffffffffffffffffffffff166129ce9092919063ffffffff16565b80519091501561285f578080602001905181019061294291906133cb565b61285f576040517f08c379a000000000000000000000000000000000000000000000000000000000815260206004820152602a60248201527f5361666545524332303a204552433230206f7065726174696f6e20646964206e60448201527f6f74207375636365656400000000000000000000000000000000000000000000606482015260840161067a565b60606129dd84846000856129e5565b949350505050565b606082471015612a77576040517f08c379a000000000000000000000000000000000000000000000000000000000815260206004820152602660248201527f416464726573733a20696e73756666696369656e742062616c616e636520666f60448201527f722063616c6c0000000000000000000000000000000000000000000000000000606482015260840161067a565b73ffffffffffffffffffffffffffffffffffffffff85163b612af5576040517f08c379a000000000000000000000000000000000000000000000000000000000815260206004820152601d60248201527f416464726573733a2063616c6c20746f206e6f6e2d636f6e7472616374000000604482015260640161067a565b6000808673ffffffffffffffffffffffffffffffffffffffff168587604051612b1e9190613681565b60006040518083038185875af1925050503d8060008114612b5b576040519150601f19603f3d011682016040523d82523d6000602084013e612b60565b606091505b5091509150612b70828286612b7b565b979650505050505050565b60608315612b8a5750816107e8565b825115612b9a5782518084602001fd5b816040517f08c379a000000000000000000000000000000000000000000000000000000000815260040161067a9190612c9f565b600060208284031215612be057600080fd5b5035919050565b600080600060608486031215612bfc57600080fd5b8335925060208401359150604084013563ffffffff81168114612c1e57600080fd5b809150509250925092565b60005b83811015612c44578181015183820152602001612c2c565b83811115611f275750506000910152565b60008151808452612c6d816020860160208601612c29565b601f017fffffffffffffffffffffffffffffffffffffffffffffffffffffffffffffffe0169290920160200192915050565b6020815260006107e86020830184612c55565b803567ffffffffffffffff81168114612cca57600080fd5b919050565b600060208284031215612ce157600080fd5b6107e882612cb2565b600060208284031215612cfc57600080fd5b813573ffffffffffffffffffffffffffffffffffffffff811681146107e857600080fd5b600080600080600080600060e0888a031215612d3b57600080fd5b8735965060208801359550604088013594506060880135935060808801359250612d6760a08901612cb2565b9150612d7560c08901612cb2565b905092959891949750929550565b8015158114612d9157600080fd5b50565b600060208284031215612da657600080fd5b81356107e881612d83565b8060408101831015612dc257600080fd5b92915050565b6000806000806000806101608789031215612de257600080fd5b8635955060208701359450612df960408801612cb2565b9350612e088860608901612db1565b9250610120870188811115612e1c57600080fd5b60a088019250612e2c8982612db1565b9150509295509295509295565b600080600060608486031215612e4e57600080fd5b8335925060208401359150612e6560408501612cb2565b90509250925092565b7f4e487b7100000000000000000000000000000000000000000000000000000000600052604160045260246000fd5b6040516080810167ffffffffffffffff81118282101715612ec057612ec0612e6e565b60405290565b604051601f82017fffffffffffffffffffffffffffffffffffffffffffffffffffffffffffffffe016810167ffffffffffffffff81118282101715612f0d57612f0d612e6e565b604052919050565b600067ffffffffffffffff831115612f2f57612f2f612e6e565b612f6060207fffffffffffffffffffffffffffffffffffffffffffffffffffffffffffffffe0601f86011601612ec6565b9050828152838383011115612f7457600080fd5b828260208301376000602084830101529392505050565b600060208284031215612f9d57600080fd5b813567ffffffffffffffff811115612fb457600080fd5b8201601f81018413612fc557600080fd5b6129dd84823560208401612f15565b600082601f830112612fe557600080fd5b6107e883833560208501612f15565b6000806040838503121561300757600080fd5b823567ffffffffffffffff81111561301e57600080fd5b61302a85828601612fd4565b95602094909401359450505050565b600067ffffffffffffffff82111561305357613053612e6e565b5060051b60200190565b6000602080838503121561307057600080fd5b823567ffffffffffffffff8082111561308857600080fd5b818501915085601f83011261309c57600080fd5b81356130af6130aa82613039565b612ec6565b81815260059190911b830184019084810190888311156130ce57600080fd5b8585015b838110156131f5578035858111156130e957600080fd5b86016080818c037fffffffffffffffffffffffffffffffffffffffffffffffffffffffffffffffe001121561311d57600080fd5b613125612e9d565b888201358781111561313657600080fd5b6131448d8b83860101612fd4565b8252506040808301358a83015261315d60608401612cb2565b818301526080830135888111156131745760008081fd5b8084019350508c603f84011261318a5760008081fd5b8983013561319a6130aa82613039565b81815260059190911b84018201908b8101908f8311156131ba5760008081fd5b948301945b828610156131df576131d086612cb2565b8252948c0194908c01906131bf565b60608501525050508452509186019186016130d2565b5098975050505050505050565b7f4e487b7100000000000000000000000000000000000000000000000000000000600052601160045260246000fd5b600067ffffffffffffffff80831681851680830382111561325457613254613202565b01949350505050565b600181811c9082168061327157607f821691505b6020821081036132aa577f4e487b7100000000000000000000000000000000000000000000000000000000600052602260045260246000fd5b50919050565b6000826132e6577f4e487b7100000000000000000000000000000000000000000000000000000000600052601260045260246000fd5b500690565b600067ffffffffffffffff8381169083168181101561330c5761330c613202565b039392505050565b6000817fffffffffffffffffffffffffffffffffffffffffffffffffffffffffffffffff048311821515161561334c5761334c613202565b500290565b61014081016040808784376000838201818152879190815b600281101561338957848483379084018281529284019290600101613369565b5050828760c0870137610100850181815286935091505b60028110156133bf5782518252602092830192909101906001016133a0565b50505095945050505050565b6000602082840312156133dd57600080fd5b81516107e881612d83565b600067ffffffffffffffff80831681810361340557613405613202565b6001019392505050565b60007fffffffffffffffffffffffffffffffffffffffffffffffffffffffffffffffff820361344057613440613202565b5060010190565b601f82111561285f57600081815260208120601f850160051c8101602086101561346e5750805b601f850160051c820191505b8181101561348d5782815560010161347a565b505050505050565b815167ffffffffffffffff8111156134af576134af612e6e565b6134c3816134bd845461325d565b84613447565b602080601f83116001811461351657600084156134e05750858301515b7fffffffffffffffffffffffffffffffffffffffffffffffffffffffffffffffff600386901b1c1916600185901b17855561348d565b6000858152602081207fffffffffffffffffffffffffffffffffffffffffffffffffffffffffffffffe08616915b8281101561356357888601518255948401946001909101908401613544565b508582101561359f57878501517fffffffffffffffffffffffffffffffffffffffffffffffffffffffffffffffff600388901b60f8161c191681555b5050505050600190811b01905550565b6000602082840312156135c157600080fd5b5051919050565b600084516135da818460208901612c29565b919091019283525060601b7fffffffffffffffffffffffffffffffffffffffff000000000000000000000000166020820152603401919050565b83815273ffffffffffffffffffffffffffffffffffffffff831660208201526060604082015260006136496060830184612c55565b95945050505050565b7f4e487b7100000000000000000000000000000000000000000000000000000000600052603260045260246000fd5b60008251613693818460208701612c29565b919091019291505056fea2646970667358221220f0d996a33766be201a2fa3012a696cac796c17324fcb747a2987e478d1874acc64736f6c634300080f0033",
  "linkReferences": {},
  "deployedLinkReferences": {}
}