{
  "_format": "hh-sol-artifact-1",
  "contractName": "ProofOfEfficiency",
  "sourceName": "contracts/ProofOfEfficiency.sol",
  "abi": [
    {
      "anonymous": false,
      "inputs": [
        {
          "indexed": true,
          "internalType": "uint64",
          "name": "numBatch",
          "type": "uint64"
        },
        {
          "indexed": false,
          "internalType": "bytes32",
          "name": "stateRoot",
          "type": "bytes32"
        },
        {
          "indexed": true,
          "internalType": "address",
          "name": "aggregator",
          "type": "address"
        }
      ],
      "name": "ConsolidatePendingState",
      "type": "event"
    },
    {
      "anonymous": false,
      "inputs": [],
      "name": "EmergencyStateActivated",
      "type": "event"
    },
    {
      "anonymous": false,
      "inputs": [],
      "name": "EmergencyStateDeactivated",
      "type": "event"
    },
    {
      "anonymous": false,
      "inputs": [
        {
          "indexed": true,
          "internalType": "uint64",
          "name": "forceBatchNum",
          "type": "uint64"
        },
        {
          "indexed": false,
          "internalType": "bytes32",
          "name": "lastGlobalExitRoot",
          "type": "bytes32"
        },
        {
          "indexed": false,
          "internalType": "address",
          "name": "sequencer",
          "type": "address"
        },
        {
          "indexed": false,
          "internalType": "bytes",
          "name": "transactions",
          "type": "bytes"
        }
      ],
      "name": "ForceBatch",
      "type": "event"
    },
    {
      "anonymous": false,
      "inputs": [
        {
          "indexed": false,
          "internalType": "uint8",
          "name": "version",
          "type": "uint8"
        }
      ],
      "name": "Initialized",
      "type": "event"
    },
    {
      "anonymous": false,
      "inputs": [
        {
          "indexed": true,
          "internalType": "uint64",
          "name": "numBatch",
          "type": "uint64"
        },
        {
          "indexed": false,
          "internalType": "bytes32",
          "name": "stateRoot",
          "type": "bytes32"
        },
        {
          "indexed": true,
          "internalType": "address",
          "name": "aggregator",
          "type": "address"
        }
      ],
      "name": "OverridePendingState",
      "type": "event"
    },
    {
      "anonymous": false,
      "inputs": [
        {
          "indexed": true,
          "internalType": "address",
          "name": "previousOwner",
          "type": "address"
        },
        {
          "indexed": true,
          "internalType": "address",
          "name": "newOwner",
          "type": "address"
        }
      ],
      "name": "OwnershipTransferred",
      "type": "event"
    },
    {
      "anonymous": false,
      "inputs": [
        {
          "indexed": false,
          "internalType": "bytes32",
          "name": "storedStateRoot",
          "type": "bytes32"
        },
        {
          "indexed": false,
          "internalType": "bytes32",
          "name": "provedStateRoot",
          "type": "bytes32"
        }
      ],
      "name": "ProveNonDeterministicPendingState",
      "type": "event"
    },
    {
      "anonymous": false,
      "inputs": [
        {
          "indexed": true,
          "internalType": "uint64",
          "name": "numBatch",
          "type": "uint64"
        }
      ],
      "name": "SequenceBatches",
      "type": "event"
    },
    {
      "anonymous": false,
      "inputs": [
        {
          "indexed": true,
          "internalType": "uint64",
          "name": "numBatch",
          "type": "uint64"
        }
      ],
      "name": "SequenceForceBatches",
      "type": "event"
    },
    {
      "anonymous": false,
      "inputs": [
        {
          "indexed": false,
          "internalType": "address",
          "name": "newAdmin",
          "type": "address"
        }
      ],
      "name": "SetAdmin",
      "type": "event"
    },
    {
      "anonymous": false,
      "inputs": [
        {
          "indexed": false,
          "internalType": "bool",
          "name": "newForceBatchAllowed",
          "type": "bool"
        }
      ],
      "name": "SetForceBatchAllowed",
      "type": "event"
    },
    {
      "anonymous": false,
      "inputs": [
        {
          "indexed": false,
          "internalType": "uint64",
          "name": "newPendingStateTimeout",
          "type": "uint64"
        }
      ],
      "name": "SetPendingStateTimeout",
      "type": "event"
    },
    {
      "anonymous": false,
      "inputs": [
        {
          "indexed": false,
          "internalType": "address",
          "name": "newTrustedAggregator",
          "type": "address"
        }
      ],
      "name": "SetTrustedAggregator",
      "type": "event"
    },
    {
      "anonymous": false,
      "inputs": [
        {
          "indexed": false,
          "internalType": "uint64",
          "name": "newTrustedAggregatorTimeout",
          "type": "uint64"
        }
      ],
      "name": "SetTrustedAggregatorTimeout",
      "type": "event"
    },
    {
      "anonymous": false,
      "inputs": [
        {
          "indexed": false,
          "internalType": "address",
          "name": "newTrustedSequencer",
          "type": "address"
        }
      ],
      "name": "SetTrustedSequencer",
      "type": "event"
    },
    {
      "anonymous": false,
      "inputs": [
        {
          "indexed": false,
          "internalType": "string",
          "name": "newTrustedSequencerURL",
          "type": "string"
        }
      ],
      "name": "SetTrustedSequencerURL",
      "type": "event"
    },
    {
      "anonymous": false,
      "inputs": [
        {
          "indexed": true,
          "internalType": "uint64",
          "name": "numBatch",
          "type": "uint64"
        },
        {
          "indexed": false,
          "internalType": "bytes32",
          "name": "stateRoot",
          "type": "bytes32"
        },
        {
          "indexed": true,
          "internalType": "address",
          "name": "aggregator",
          "type": "address"
        }
      ],
      "name": "TrustedVerifyBatches",
      "type": "event"
    },
    {
      "anonymous": false,
      "inputs": [
        {
          "indexed": true,
          "internalType": "uint64",
          "name": "numBatch",
          "type": "uint64"
        },
        {
          "indexed": false,
          "internalType": "bytes32",
          "name": "stateRoot",
          "type": "bytes32"
        },
        {
          "indexed": true,
          "internalType": "address",
          "name": "aggregator",
          "type": "address"
        }
      ],
      "name": "VerifyBatches",
      "type": "event"
    },
    {
      "inputs": [],
      "name": "FORCE_BATCH_TIMEOUT",
      "outputs": [
        {
          "internalType": "uint64",
          "name": "",
          "type": "uint64"
        }
      ],
      "stateMutability": "view",
      "type": "function"
    },
    {
      "inputs": [],
      "name": "HALT_AGGREGATION_TIMEOUT",
      "outputs": [
        {
          "internalType": "uint64",
          "name": "",
          "type": "uint64"
        }
      ],
      "stateMutability": "view",
      "type": "function"
    },
    {
      "inputs": [],
      "name": "MAX_BATCH_LENGTH",
      "outputs": [
        {
          "internalType": "uint256",
          "name": "",
          "type": "uint256"
        }
      ],
      "stateMutability": "view",
      "type": "function"
    },
    {
      "inputs": [],
      "name": "MAX_VERIFY_BATCHES",
      "outputs": [
        {
          "internalType": "uint64",
          "name": "",
          "type": "uint64"
        }
      ],
      "stateMutability": "view",
      "type": "function"
    },
    {
      "inputs": [
        {
          "internalType": "uint64",
          "name": "sequencedBatchNum",
          "type": "uint64"
        }
      ],
      "name": "activateEmergencyState",
      "outputs": [],
      "stateMutability": "nonpayable",
      "type": "function"
    },
    {
      "inputs": [],
      "name": "admin",
      "outputs": [
        {
          "internalType": "address",
          "name": "",
          "type": "address"
        }
      ],
      "stateMutability": "view",
      "type": "function"
    },
    {
      "inputs": [
        {
          "internalType": "uint64",
          "name": "",
          "type": "uint64"
        }
      ],
      "name": "batchNumToStateRoot",
      "outputs": [
        {
          "internalType": "bytes32",
          "name": "",
          "type": "bytes32"
        }
      ],
      "stateMutability": "view",
      "type": "function"
    },
    {
      "inputs": [],
      "name": "bridgeAddress",
      "outputs": [
        {
          "internalType": "contract IBridge",
          "name": "",
          "type": "address"
        }
      ],
      "stateMutability": "view",
      "type": "function"
    },
    {
      "inputs": [],
      "name": "calculateBatchFee",
      "outputs": [
        {
          "internalType": "uint256",
          "name": "",
          "type": "uint256"
        }
      ],
      "stateMutability": "view",
      "type": "function"
    },
    {
      "inputs": [],
      "name": "calculateRewardPerBatch",
      "outputs": [
        {
          "internalType": "uint256",
          "name": "",
          "type": "uint256"
        }
      ],
      "stateMutability": "view",
      "type": "function"
    },
    {
      "inputs": [],
      "name": "chainID",
      "outputs": [
        {
          "internalType": "uint64",
          "name": "",
          "type": "uint64"
        }
      ],
      "stateMutability": "view",
      "type": "function"
    },
    {
      "inputs": [
        {
          "internalType": "uint64",
          "name": "pendingStateNum",
          "type": "uint64"
        }
      ],
      "name": "consolidatePendingState",
      "outputs": [],
      "stateMutability": "nonpayable",
      "type": "function"
    },
    {
      "inputs": [],
      "name": "deactivateEmergencyState",
      "outputs": [],
      "stateMutability": "nonpayable",
      "type": "function"
    },
    {
      "inputs": [
        {
          "internalType": "bytes",
          "name": "transactions",
          "type": "bytes"
        },
        {
          "internalType": "uint256",
          "name": "maticAmount",
          "type": "uint256"
        }
      ],
      "name": "forceBatch",
      "outputs": [],
      "stateMutability": "nonpayable",
      "type": "function"
    },
    {
      "inputs": [],
      "name": "forceBatchAllowed",
      "outputs": [
        {
          "internalType": "bool",
          "name": "",
          "type": "bool"
        }
      ],
      "stateMutability": "view",
      "type": "function"
    },
    {
      "inputs": [
        {
          "internalType": "uint64",
          "name": "",
          "type": "uint64"
        }
      ],
      "name": "forcedBatches",
      "outputs": [
        {
          "internalType": "bytes32",
          "name": "",
          "type": "bytes32"
        }
      ],
      "stateMutability": "view",
      "type": "function"
    },
    {
      "inputs": [
        {
          "internalType": "uint64",
          "name": "initNumBatch",
          "type": "uint64"
        },
        {
          "internalType": "uint64",
          "name": "finalNewBatch",
          "type": "uint64"
        },
        {
          "internalType": "bytes32",
          "name": "newLocalExitRoot",
          "type": "bytes32"
        },
        {
          "internalType": "bytes32",
          "name": "oldStateRoot",
          "type": "bytes32"
        },
        {
          "internalType": "bytes32",
          "name": "newStateRoot",
          "type": "bytes32"
        }
      ],
      "name": "getInputSnarkBytes",
      "outputs": [
        {
          "internalType": "bytes",
          "name": "",
          "type": "bytes"
        }
      ],
      "stateMutability": "view",
      "type": "function"
    },
    {
      "inputs": [],
      "name": "getLastVerifiedBatch",
      "outputs": [
        {
          "internalType": "uint64",
          "name": "",
          "type": "uint64"
        }
      ],
      "stateMutability": "view",
      "type": "function"
    },
    {
      "inputs": [],
      "name": "globalExitRootManager",
      "outputs": [
        {
          "internalType": "contract IGlobalExitRootManager",
          "name": "",
          "type": "address"
        }
      ],
      "stateMutability": "view",
      "type": "function"
    },
    {
      "inputs": [
        {
          "internalType": "contract IGlobalExitRootManager",
          "name": "_globalExitRootManager",
          "type": "address"
        },
        {
          "internalType": "contract IERC20Upgradeable",
          "name": "_matic",
          "type": "address"
        },
        {
          "internalType": "contract IVerifierRollup",
          "name": "_rollupVerifier",
          "type": "address"
        },
        {
          "internalType": "contract IBridge",
          "name": "_bridgeAddress",
          "type": "address"
        },
        {
          "components": [
            {
              "internalType": "address",
              "name": "admin",
              "type": "address"
            },
            {
              "internalType": "uint64",
              "name": "chainID",
              "type": "uint64"
            },
            {
              "internalType": "address",
              "name": "trustedSequencer",
              "type": "address"
            },
            {
              "internalType": "uint64",
              "name": "pendingStateTimeout",
              "type": "uint64"
            },
            {
              "internalType": "bool",
              "name": "forceBatchAllowed",
              "type": "bool"
            },
            {
              "internalType": "address",
              "name": "trustedAggregator",
              "type": "address"
            },
            {
              "internalType": "uint64",
              "name": "trustedAggregatorTimeout",
              "type": "uint64"
            }
          ],
          "internalType": "struct ProofOfEfficiency.InitializePackedParameters",
          "name": "initializePackedParameters",
          "type": "tuple"
        },
        {
          "internalType": "bytes32",
          "name": "genesisRoot",
          "type": "bytes32"
        },
        {
          "internalType": "string",
          "name": "_trustedSequencerURL",
          "type": "string"
        },
        {
          "internalType": "string",
          "name": "_networkName",
          "type": "string"
        }
      ],
      "name": "initialize",
      "outputs": [],
      "stateMutability": "nonpayable",
      "type": "function"
    },
    {
      "inputs": [],
      "name": "isEmergencyState",
      "outputs": [
        {
          "internalType": "bool",
          "name": "",
          "type": "bool"
        }
      ],
      "stateMutability": "view",
      "type": "function"
    },
    {
      "inputs": [
        {
          "internalType": "uint64",
          "name": "pendingStateNum",
          "type": "uint64"
        }
      ],
      "name": "isPendingStateConsolidable",
      "outputs": [
        {
          "internalType": "bool",
          "name": "",
          "type": "bool"
        }
      ],
      "stateMutability": "view",
      "type": "function"
    },
    {
      "inputs": [],
      "name": "lastBatchSequenced",
      "outputs": [
        {
          "internalType": "uint64",
          "name": "",
          "type": "uint64"
        }
      ],
      "stateMutability": "view",
      "type": "function"
    },
    {
      "inputs": [],
      "name": "lastForceBatch",
      "outputs": [
        {
          "internalType": "uint64",
          "name": "",
          "type": "uint64"
        }
      ],
      "stateMutability": "view",
      "type": "function"
    },
    {
      "inputs": [],
      "name": "lastForceBatchSequenced",
      "outputs": [
        {
          "internalType": "uint64",
          "name": "",
          "type": "uint64"
        }
      ],
      "stateMutability": "view",
      "type": "function"
    },
    {
      "inputs": [],
      "name": "lastPendingState",
      "outputs": [
        {
          "internalType": "uint64",
          "name": "",
          "type": "uint64"
        }
      ],
      "stateMutability": "view",
      "type": "function"
    },
    {
      "inputs": [],
      "name": "lastPendingStateConsolidated",
      "outputs": [
        {
          "internalType": "uint64",
          "name": "",
          "type": "uint64"
        }
      ],
      "stateMutability": "view",
      "type": "function"
    },
    {
      "inputs": [],
      "name": "lastTimestamp",
      "outputs": [
        {
          "internalType": "uint64",
          "name": "",
          "type": "uint64"
        }
      ],
      "stateMutability": "view",
      "type": "function"
    },
    {
      "inputs": [],
      "name": "lastVerifiedBatch",
      "outputs": [
        {
          "internalType": "uint64",
          "name": "",
          "type": "uint64"
        }
      ],
      "stateMutability": "view",
      "type": "function"
    },
    {
      "inputs": [],
      "name": "matic",
      "outputs": [
        {
          "internalType": "contract IERC20Upgradeable",
          "name": "",
          "type": "address"
        }
      ],
      "stateMutability": "view",
      "type": "function"
    },
    {
      "inputs": [],
      "name": "networkName",
      "outputs": [
        {
          "internalType": "string",
          "name": "",
          "type": "string"
        }
      ],
      "stateMutability": "view",
      "type": "function"
    },
    {
      "inputs": [
        {
          "internalType": "uint64",
          "name": "initPendingStateNum",
          "type": "uint64"
        },
        {
          "internalType": "uint64",
          "name": "finalPendingStateNum",
          "type": "uint64"
        },
        {
          "internalType": "uint64",
          "name": "initNumBatch",
          "type": "uint64"
        },
        {
          "internalType": "uint64",
          "name": "finalNewBatch",
          "type": "uint64"
        },
        {
          "internalType": "bytes32",
          "name": "newLocalExitRoot",
          "type": "bytes32"
        },
        {
          "internalType": "bytes32",
          "name": "newStateRoot",
          "type": "bytes32"
        },
        {
          "internalType": "uint256[2]",
          "name": "proofA",
          "type": "uint256[2]"
        },
        {
          "internalType": "uint256[2][2]",
          "name": "proofB",
          "type": "uint256[2][2]"
        },
        {
          "internalType": "uint256[2]",
          "name": "proofC",
          "type": "uint256[2]"
        }
      ],
      "name": "overridePendingState",
      "outputs": [],
      "stateMutability": "nonpayable",
      "type": "function"
    },
    {
      "inputs": [],
      "name": "owner",
      "outputs": [
        {
          "internalType": "address",
          "name": "",
          "type": "address"
        }
      ],
      "stateMutability": "view",
      "type": "function"
    },
    {
      "inputs": [],
      "name": "pendingStateTimeout",
      "outputs": [
        {
          "internalType": "uint64",
          "name": "",
          "type": "uint64"
        }
      ],
      "stateMutability": "view",
      "type": "function"
    },
    {
      "inputs": [
        {
          "internalType": "uint256",
          "name": "",
          "type": "uint256"
        }
      ],
      "name": "pendingStateTransitions",
      "outputs": [
        {
          "internalType": "uint64",
          "name": "timestamp",
          "type": "uint64"
        },
        {
          "internalType": "uint64",
          "name": "lastVerifiedBatch",
          "type": "uint64"
        },
        {
          "internalType": "bytes32",
          "name": "exitRoot",
          "type": "bytes32"
        },
        {
          "internalType": "bytes32",
          "name": "stateRoot",
          "type": "bytes32"
        }
      ],
      "stateMutability": "view",
      "type": "function"
    },
    {
      "inputs": [
        {
          "internalType": "uint64",
          "name": "initPendingStateNum",
          "type": "uint64"
        },
        {
          "internalType": "uint64",
          "name": "finalPendingStateNum",
          "type": "uint64"
        },
        {
          "internalType": "uint64",
          "name": "initNumBatch",
          "type": "uint64"
        },
        {
          "internalType": "uint64",
          "name": "finalNewBatch",
          "type": "uint64"
        },
        {
          "internalType": "bytes32",
          "name": "newLocalExitRoot",
          "type": "bytes32"
        },
        {
          "internalType": "bytes32",
          "name": "newStateRoot",
          "type": "bytes32"
        },
        {
          "internalType": "uint256[2]",
          "name": "proofA",
          "type": "uint256[2]"
        },
        {
          "internalType": "uint256[2][2]",
          "name": "proofB",
          "type": "uint256[2][2]"
        },
        {
          "internalType": "uint256[2]",
          "name": "proofC",
          "type": "uint256[2]"
        }
      ],
      "name": "proveNonDeterministicPendingState",
      "outputs": [],
      "stateMutability": "nonpayable",
      "type": "function"
    },
    {
      "inputs": [],
      "name": "renounceOwnership",
      "outputs": [],
      "stateMutability": "nonpayable",
      "type": "function"
    },
    {
      "inputs": [],
      "name": "rollupVerifier",
      "outputs": [
        {
          "internalType": "contract IVerifierRollup",
          "name": "",
          "type": "address"
        }
      ],
      "stateMutability": "view",
      "type": "function"
    },
    {
      "inputs": [
        {
          "components": [
            {
              "internalType": "bytes",
              "name": "transactions",
              "type": "bytes"
            },
            {
              "internalType": "bytes32",
              "name": "globalExitRoot",
              "type": "bytes32"
            },
            {
              "internalType": "uint64",
              "name": "timestamp",
              "type": "uint64"
            },
            {
              "internalType": "uint64",
              "name": "minForcedTimestamp",
              "type": "uint64"
            }
          ],
          "internalType": "struct ProofOfEfficiency.BatchData[]",
          "name": "batches",
          "type": "tuple[]"
        }
      ],
      "name": "sequenceBatches",
      "outputs": [],
      "stateMutability": "nonpayable",
      "type": "function"
    },
    {
      "inputs": [
        {
          "components": [
            {
              "internalType": "bytes",
              "name": "transactions",
              "type": "bytes"
            },
            {
              "internalType": "bytes32",
              "name": "globalExitRoot",
              "type": "bytes32"
            },
            {
              "internalType": "uint64",
              "name": "minForcedTimestamp",
              "type": "uint64"
            }
          ],
          "internalType": "struct ProofOfEfficiency.ForcedBatchData[]",
          "name": "batches",
          "type": "tuple[]"
        }
      ],
      "name": "sequenceForceBatches",
      "outputs": [],
      "stateMutability": "nonpayable",
      "type": "function"
    },
    {
      "inputs": [
        {
          "internalType": "uint64",
          "name": "",
          "type": "uint64"
        }
      ],
      "name": "sequencedBatches",
      "outputs": [
        {
          "internalType": "bytes32",
          "name": "accInputHash",
          "type": "bytes32"
        },
        {
          "internalType": "uint64",
          "name": "sequencedTimestamp",
          "type": "uint64"
        }
      ],
      "stateMutability": "view",
      "type": "function"
    },
    {
      "inputs": [
        {
          "internalType": "address",
          "name": "newAdmin",
          "type": "address"
        }
      ],
      "name": "setAdmin",
      "outputs": [],
      "stateMutability": "nonpayable",
      "type": "function"
    },
    {
      "inputs": [
        {
          "internalType": "bool",
          "name": "newForceBatchAllowed",
          "type": "bool"
        }
      ],
      "name": "setForceBatchAllowed",
      "outputs": [],
      "stateMutability": "nonpayable",
      "type": "function"
    },
    {
      "inputs": [
        {
          "internalType": "uint64",
          "name": "newPendingStateTimeout",
          "type": "uint64"
        }
      ],
      "name": "setPendingStateTimeout",
      "outputs": [],
      "stateMutability": "nonpayable",
      "type": "function"
    },
    {
      "inputs": [
        {
          "internalType": "address",
          "name": "newTrustedAggregator",
          "type": "address"
        }
      ],
      "name": "setTrustedAggregator",
      "outputs": [],
      "stateMutability": "nonpayable",
      "type": "function"
    },
    {
      "inputs": [
        {
          "internalType": "uint64",
          "name": "newTrustedAggregatorTimeout",
          "type": "uint64"
        }
      ],
      "name": "setTrustedAggregatorTimeout",
      "outputs": [],
      "stateMutability": "nonpayable",
      "type": "function"
    },
    {
      "inputs": [
        {
          "internalType": "address",
          "name": "newTrustedSequencer",
          "type": "address"
        }
      ],
      "name": "setTrustedSequencer",
      "outputs": [],
      "stateMutability": "nonpayable",
      "type": "function"
    },
    {
      "inputs": [
        {
          "internalType": "string",
          "name": "newTrustedSequencerURL",
          "type": "string"
        }
      ],
      "name": "setTrustedSequencerURL",
      "outputs": [],
      "stateMutability": "nonpayable",
      "type": "function"
    },
    {
      "inputs": [
        {
          "internalType": "address",
          "name": "newOwner",
          "type": "address"
        }
      ],
      "name": "transferOwnership",
      "outputs": [],
      "stateMutability": "nonpayable",
      "type": "function"
    },
    {
      "inputs": [],
      "name": "trustedAggregator",
      "outputs": [
        {
          "internalType": "address",
          "name": "",
          "type": "address"
        }
      ],
      "stateMutability": "view",
      "type": "function"
    },
    {
      "inputs": [],
      "name": "trustedAggregatorTimeout",
      "outputs": [
        {
          "internalType": "uint64",
          "name": "",
          "type": "uint64"
        }
      ],
      "stateMutability": "view",
      "type": "function"
    },
    {
      "inputs": [],
      "name": "trustedSequencer",
      "outputs": [
        {
          "internalType": "address",
          "name": "",
          "type": "address"
        }
      ],
      "stateMutability": "view",
      "type": "function"
    },
    {
      "inputs": [],
      "name": "trustedSequencerURL",
      "outputs": [
        {
          "internalType": "string",
          "name": "",
          "type": "string"
        }
      ],
      "stateMutability": "view",
      "type": "function"
    },
    {
      "inputs": [
        {
          "internalType": "uint64",
          "name": "pendingStateNum",
          "type": "uint64"
        },
        {
          "internalType": "uint64",
          "name": "initNumBatch",
          "type": "uint64"
        },
        {
          "internalType": "uint64",
          "name": "finalNewBatch",
          "type": "uint64"
        },
        {
          "internalType": "bytes32",
          "name": "newLocalExitRoot",
          "type": "bytes32"
        },
        {
          "internalType": "bytes32",
          "name": "newStateRoot",
          "type": "bytes32"
        },
        {
          "internalType": "uint256[2]",
          "name": "proofA",
          "type": "uint256[2]"
        },
        {
          "internalType": "uint256[2][2]",
          "name": "proofB",
          "type": "uint256[2][2]"
        },
        {
          "internalType": "uint256[2]",
          "name": "proofC",
          "type": "uint256[2]"
        }
      ],
      "name": "trustedVerifyBatches",
      "outputs": [],
      "stateMutability": "nonpayable",
      "type": "function"
    },
    {
      "inputs": [
        {
          "internalType": "uint64",
          "name": "pendingStateNum",
          "type": "uint64"
        },
        {
          "internalType": "uint64",
          "name": "initNumBatch",
          "type": "uint64"
        },
        {
          "internalType": "uint64",
          "name": "finalNewBatch",
          "type": "uint64"
        },
        {
          "internalType": "bytes32",
          "name": "newLocalExitRoot",
          "type": "bytes32"
        },
        {
          "internalType": "bytes32",
          "name": "newStateRoot",
          "type": "bytes32"
        },
        {
          "internalType": "uint256[2]",
          "name": "proofA",
          "type": "uint256[2]"
        },
        {
          "internalType": "uint256[2][2]",
          "name": "proofB",
          "type": "uint256[2][2]"
        },
        {
          "internalType": "uint256[2]",
          "name": "proofC",
          "type": "uint256[2]"
        }
      ],
      "name": "verifyBatches",
      "outputs": [],
      "stateMutability": "nonpayable",
      "type": "function"
    }
  ],
  "bytecode": "0x608060405234801561001057600080fd5b5061592880620000216000396000f3fe608060405234801561001057600080fd5b506004361061036d5760003560e01c80638b48931e116101d3578063d02103ca11610104578063e7a7ed02116100a2578063edc411211161007c578063edc4112114610809578063f14916d61461081c578063f2fde38b1461082f578063f851a4401461084257600080fd5b8063e7a7ed02146107c9578063e8bf92ed146107e3578063eaeb077b146107f657600080fd5b8063d939b315116100de578063d939b3151461078b578063dbc16976146107a5578063e11f3f18146107ad578063e217cfd6146107c057600080fd5b8063d02103ca14610751578063d8d1091b14610764578063d8f54db01461077757600080fd5b8063adc879e911610171578063b6b0b0971161014b578063b6b0b09714610704578063c0ed84e01461071c578063c89e42df14610724578063cfa8ed471461073757600080fd5b8063adc879e914610694578063b02286c0146106ae578063b4d63f58146106b757600080fd5b806399f5634e116101ad57806399f5634e146106665780639c9f3dfe1461066e578063a3c573eb14610681578063ab9fc5ef1461063857600080fd5b80638b48931e146106385780638c4a0af7146106425780638da5cb5b1461065557600080fd5b80634a910e6a116102ad578063715018a61161024b5780637abaf3e6116102255780637abaf3e6146105955780637fcb36531461059d578063837a4738146105b0578063841b24d71461061e57600080fd5b8063715018a6146105675780637215541a1461056f57806375c508b31461058257600080fd5b806360943d6a1161028757806360943d6a1461050e5780636b8616ce146105215780636ff512cc14610541578063704b6c021461055457600080fd5b80634a910e6a146104c55780635392c5e0146104d8578063542028d51461050657600080fd5b8063394218e91161031a57806345605267116102f4578063456052671461046b578063458c0477146104855780634834a343146104985780634a1a89a7146104ab57600080fd5b8063394218e9146104295780633c1582671461043e578063423fa8561461045157600080fd5b8063220d78991161034b578063220d7899146103d857806329878983146103eb578063383b3be81461041657600080fd5b8063107bf28c1461037257806315064c961461039057806319d8ac61146103ad575b600080fd5b61037a610855565b6040516103879190614e5e565b60405180910390f35b60655461039d9060ff1681565b6040519015158152602001610387565b6068546103c0906001600160401b031681565b6040516001600160401b039091168152602001610387565b61037a6103e6366004614e94565b6108e3565b606a546103fe906001600160a01b031681565b6040516001600160a01b039091168152602001610387565b61039d610424366004614ee1565b610aa6565b61043c610437366004614ee1565b610aed565b005b61043c61044c36600461501e565b610d19565b6068546103c090600160401b90046001600160401b031681565b6068546103c090600160801b90046001600160401b031681565b6072546103c0906001600160401b031681565b61043c6104a636600461515c565b61164a565b6072546103c090600160401b90046001600160401b031681565b61043c6104d3366004614ee1565b611949565b6104f86104e6366004614ee1565b606d6020526000908152604090205481565b604051908152602001610387565b61037a611c0c565b61043c61051c3660046151fe565b611c19565b6104f861052f366004614ee1565b60666020526000908152604090205481565b61043c61054f3660046152d5565b611fa3565b61043c6105623660046152d5565b61207d565b61043c612136565b61043c61057d366004614ee1565b61214a565b61043c6105903660046152f2565b61232b565b6104f861241b565b6069546103c0906001600160401b031681565b6105f36105be366004615390565b6071602052600090815260409020805460018201546002909201546001600160401b0380831693600160401b90930416919084565b604080516001600160401b039586168152949093166020850152918301526060820152608001610387565b6072546103c090600160c01b90046001600160401b031681565b6103c062093a8081565b61043c6106503660046153b7565b612471565b6033546001600160a01b03166103fe565b6104f8612529565b61043c61067c366004614ee1565b612623565b6070546103fe906001600160a01b031681565b606c546103c090600160a81b90046001600160401b031681565b6104f861ea6081565b6106e76106c5366004614ee1565b606760205260009081526040902080546001909101546001600160401b031682565b604080519283526001600160401b03909116602083015201610387565b6065546103fe9061010090046001600160a01b031681565b6103c0612844565b61043c6107323660046153d4565b612891565b6069546103fe90600160401b90046001600160a01b031681565b606c546103fe906001600160a01b031681565b61043c610772366004615408565b612938565b606c5461039d90600160a01b900460ff1681565b6072546103c090600160801b90046001600160401b031681565b61043c612f78565b61043c6107bb3660046152f2565b6130cb565b6103c06103e881565b6068546103c090600160c01b90046001600160401b031681565b606b546103fe906001600160a01b031681565b61043c6108043660046154fa565b613263565b61043c61081736600461515c565b6136a2565b61043c61082a3660046152d5565b61382b565b61043c61083d3660046152d5565b6138e4565b6073546103fe906001600160a01b031681565b606f80546108629061553e565b80601f016020809104026020016040519081016040528092919081815260200182805461088e9061553e565b80156108db5780601f106108b0576101008083540402835291602001916108db565b820191906000526020600020905b8154815290600101906020018083116108be57829003601f168201915b505050505081565b6001600160401b0380861660008181526067602052604080822054938816825290205460609291158061091557508115155b61099a5760405162461bcd60e51b815260206004820152604560248201527f50726f6f664f66456666696369656e63793a3a676574496e707574536e61726b60448201527f42797465733a206f6c64416363496e7075744861736820646f6573206e6f7420606482015264195e1a5cdd60da1b608482015260a4015b60405180910390fd5b80610a1b5760405162461bcd60e51b815260206004820152604560248201527f50726f6f664f66456666696369656e63793a3a676574496e707574536e61726b60448201527f42797465733a206e6577416363496e7075744861736820646f6573206e6f7420606482015264195e1a5cdd60da1b608482015260a401610991565b606c54604080516bffffffffffffffffffffffff193360601b166020820152603481019790975260548701939093526001600160c01b031960c0998a1b81166074880152600160a81b909104891b8116607c870152608486019490945260a485015260c4840194909452509290931b90911660e4830152805180830360cc01815260ec909201905290565b6072546001600160401b0382811660009081526071602052604081205490924292610adc92600160801b9092048116911661558e565b6001600160401b0316111592915050565b6073546001600160a01b03163314610b585760405162461bcd60e51b815260206004820152602860248201527f50726f6f664f66456666696369656e63793a3a6f6e6c7941646d696e3a206f6e604482015267363c9030b236b4b760c11b6064820152608401610991565b62093a806001600160401b0382161115610bed5760405162461bcd60e51b815260206004820152604a60248201527f50726f6f664f66456666696369656e63793a3a73657450656e64696e6753746160448201527f746554696d656f75743a206578636565642068616c74206167677265676174696064820152691bdb881d1a5b595bdd5d60b21b608482015260a401610991565b60655460ff16610ca8576072546001600160401b03600160c01b909104811690821610610ca85760405162461bcd60e51b815260206004820152604960248201527f50726f6f664f66456666696369656e63793a3a7365745472757374656441676760448201527f72656761746f7254696d656f75743a206e65772074696d656f7574206d75737460648201527f206265206c6f7765720000000000000000000000000000000000000000000000608482015260a401610991565b6072805477ffffffffffffffffffffffffffffffffffffffffffffffff16600160c01b6001600160401b038481168202929092179283905560405192041681527f1f4fa24c2e4bad19a7f3ec5c5485f70d46c798461c2e684f55bbd0fc661373a1906020015b60405180910390a150565b60655460ff1615610d9d5760405162461bcd60e51b815260206004820152604260248201527f456d657267656e63794d616e616765723a3a69664e6f74456d657267656e637960448201527f53746174653a206f6e6c79206966206e6f7420656d657267656e637920737461606482015261746560f01b608482015260a401610991565b606954600160401b90046001600160a01b03163314610e245760405162461bcd60e51b815260206004820152603f60248201527f50726f6f664f66456666696369656e63793a3a6f6e6c7954727573746564536560448201527f7175656e6365723a206f6e6c7920747275737465642073657175656e636572006064820152608401610991565b805180610ea45760405162461bcd60e51b815260206004820152604260248201527f50726f6f664f66456666696369656e63793a3a73657175656e6365426174636860448201527f65733a204174206c65617374206d7573742073657175656e63652031206261746064820152610c6d60f31b608482015260a401610991565b6103e88110610f255760405162461bcd60e51b815260206004820152604160248201527f50726f6f664f66456666696369656e63793a3a7665726966794261746368657360448201527f3a2063616e6e6f74207665726966792074686174206d616e79206261746368656064820152607360f81b608482015260a401610991565b6068546001600160401b03600160401b82048116600081815260676020526040812054838516949293600160801b90930490921691905b85811015611474576000878281518110610f7857610f786155b9565b60200260200101519050600081606001516001600160401b0316111561115a5783610fa2816155cf565b945050600081600001518051906020012082602001518360600151604051602001610fed93929190928352602083019190915260c01b6001600160c01b031916604082015260480190565b60408051601f1981840301815291815281516020928301206001600160401b03881660009081526066909352912054909150811461109e5760405162461bcd60e51b815260206004820152604260248201527f50726f6f664f66456666696369656e63793a3a73657175656e6365426174636860448201527f65733a20466f7263656420626174636865732064617461206d757374206d61746064820152610c6d60f31b608482015260a401610991565b81606001516001600160401b031682604001516001600160401b031610156111545760405162461bcd60e51b815260206004820152605d60248201527f50726f6f664f66456666696369656e63793a3a73657175656e6365426174636860448201527f65733a20466f7263656420626174636865732074696d657374616d70206d757360648201527f7420626520626967676572206f7220657175616c207468616e206d696e000000608482015260a401610991565b5061130d565b602081015115806111fc5750606c5460208201516040517f257b36320000000000000000000000000000000000000000000000000000000081526001600160a01b039092169163257b3632916111b69160040190815260200190565b6020604051808303816000875af11580156111d5573d6000803e3d6000fd5b505050506040513d601f19601f820116820180604052508101906111f991906155f5565b15155b61126e5760405162461bcd60e51b815260206004820152603f60248201527f50726f6f664f66456666696369656e63793a3a73657175656e6365426174636860448201527f65733a20476c6f62616c206578697420726f6f74206d757374206578697374006064820152608401610991565b80515161ea601161130d5760405162461bcd60e51b815260206004820152604a60248201527f50726f6f664f664566666963696550656e64696e67537461746563793a3a736560448201527f7175656e6365426174636865733a205472616e73616374696f6e73206279746560648201527f73206f766572666c6f7700000000000000000000000000000000000000000000608482015260a401610991565b856001600160401b031681604001516001600160401b03161015801561134057504281604001516001600160401b031611155b6113d85760405162461bcd60e51b815260206004820152604260248201527f50726f6f664f66456666696369656e63793a3a73657175656e6365426174636860448201527f65733a2054696d657374616d70206d75737420626520696e736964652072616e60648201527f6765000000000000000000000000000000000000000000000000000000000000608482015260a401610991565b805180516020918201208183015160408085015181519485018890529084019290925260608084019190915260c09190911b6001600160c01b031916608083015233901b6bffffffffffffffffffffffff19166088820152609c016040516020818303038152906040528051906020012092508480611456906155cf565b9550508060400151955050808061146c9061560e565b915050610f5c565b506068546001600160401b03600160c01b909104811690831611156115015760405162461bcd60e51b815260206004820152603a60248201527f50726f6f664f66456666696369656e63793a3a73657175656e6365426174636860448201527f65733a20466f7263652062617463686573206f766572666c6f770000000000006064820152608401610991565b60685460009061152190600160801b90046001600160401b031684615627565b611534906001600160401b03168761564f565b606880546001600160401b03868116600160801b0267ffffffffffffffff60801b19898316600160401b81026fffffffffffffffffffffffffffffffff19909516848d1617949094171617909255604080518082018252868152428416602080830191825260009485526067905291909220915182555160019190910180549190921667ffffffffffffffff199190911617905590506115fb3330836115d861241b565b6115e29190615666565b60655461010090046001600160a01b0316929190613971565b611603613a22565b606854604051600160401b9091046001600160401b0316907f303446e6a8cb73c83dff421c0b1d5e5ce0719dab1bff13660fc254e58cc17fce90600090a250505050505050565b60655460ff16156116ce5760405162461bcd60e51b815260206004820152604260248201527f456d657267656e63794d616e616765723a3a69664e6f74456d657267656e637960448201527f53746174653a206f6e6c79206966206e6f7420656d657267656e637920737461606482015261746560f01b608482015260a401610991565b6072546001600160401b03878116600090815260676020526040902060010154429261170592600160c01b9091048116911661558e565b6001600160401b031611156117a85760405162461bcd60e51b815260206004820152604860248201527f50726f6f664f66456666696369656e63793a3a7665726966794261746368657360448201527f3a20747275737465642061676772656761746f722074696d656f7574206e6f7460648201527f2065787069726564000000000000000000000000000000000000000000000000608482015260a401610991565b6103e86117b58888615627565b6001600160401b03161061183b5760405162461bcd60e51b815260206004820152604160248201527f50726f6f664f66456666696369656e63793a3a7665726966794261746368657360448201527f3a2063616e6e6f74207665726966792074686174206d616e79206261746368656064820152607360f81b608482015260a401610991565b61184b8888888888888888613ac6565b611853613a22565b607280546001600160401b031690600061186c836155cf565b82546001600160401b039182166101009390930a92830292820219169190911790915560408051608081018252428316815289831660208083018281528385018c8152606085018c8152607254881660009081526071909452928690209451855492518816600160401b026fffffffffffffffffffffffffffffffff19909316971696909617178355935160018301559251600290910155513392507f9c72852172521097ba7e1482e6b44b351323df0155f97f4ea18fcec28e1f5966906119379088815260200190565b60405180910390a35050505050505050565b6001600160401b0381161580159061197657506072546001600160401b03600160401b9091048116908216115b801561199157506072546001600160401b0390811690821611155b611a295760405162461bcd60e51b815260206004820152604860248201527f50726f6f664f66456666696369656e63793a3a636f6e736f6c6964617465506560448201527f6e64696e6753746174653a2070656e64696e6753746174654e756d206d75737460648201527f20696e76616c6964000000000000000000000000000000000000000000000000608482015260a401610991565b606a546001600160a01b03163314611adc57611a4481610aa6565b611adc5760405162461bcd60e51b815260206004820152605960248201527f50726f6f664f66456666696369656e63793a3a636f6e736f6c6964617465506560448201527f6e64696e6753746174653a2070656e64696e67207374617465206973206e6f7460648201527f20726561647920746f20626520636f6e736f6c69646174656400000000000000608482015260a401610991565b6001600160401b038181166000818152607160209081526040808320805460698054600160401b9283900490981667ffffffffffffffff19909816881790556002820154878652606d9094529382902092909255607280546fffffffffffffffff000000000000000019169390940292909217909255606c54600183015491516333d6247d60e01b815260048101929092529192916001600160a01b0316906333d6247d90602401600060405180830381600087803b158015611b9e57600080fd5b505af1158015611bb2573d6000803e3d6000fd5b50505050336001600160a01b0316816001600160401b03167f01f7d32e3b3278bace940a581067c87090c1aa09809730dd4ca002320c3a3cfa8460020154604051611bff91815260200190565b60405180910390a3505050565b606e80546108629061553e565b600054610100900460ff1615808015611c395750600054600160ff909116105b80611c535750303b158015611c53575060005460ff166001145b611cc55760405162461bcd60e51b815260206004820152602e60248201527f496e697469616c697a61626c653a20636f6e747261637420697320616c72656160448201527f647920696e697469616c697a65640000000000000000000000000000000000006064820152608401610991565b6000805460ff191660011790558015611ce8576000805461ff0019166101001790555b606c80546001600160a01b03199081166001600160a01b038c811691909117909255606580547fffffffffffffffffffffff0000000000000000000000000000000000000000ff166101008c851602179055606b805482168a841617905560708054909116918816919091179055611d6360208601866152d5565b607380546001600160a01b0319166001600160a01b0392909216919091179055611d9360608601604087016152d5565b606980546001600160a01b0392909216600160401b027fffffffff0000000000000000000000000000000000000000ffffffffffffffff909216919091179055611de360c0860160a087016152d5565b606a80546001600160a01b0319166001600160a01b039290921691909117905560008052606d6020527fda90043ba5b4096ba14704bc227ab0d3167da15b887e62ab2e76e37daa711356849055611e4060e0860160c08701614ee1565b607280546001600160401b0392909216600160c01b0277ffffffffffffffffffffffffffffffffffffffffffffffff909216919091179055611e886040860160208701614ee1565b606c80546001600160401b0392909216600160a81b027fffffff0000000000000000ffffffffffffffffffffffffffffffffffffffffff909216919091179055611ed86080860160608701614ee1565b607280546001600160401b0392909216600160801b0267ffffffffffffffff60801b19909216919091179055611f1460a08601608087016153b7565b606c8054911515600160a01b0260ff60a01b19909216919091179055606e611f3c84826156d3565b50606f611f4983826156d3565b50611f5261404b565b8015611f98576000805461ff0019169055604051600181527f7f26b83ff96e1f2b6a682f133852f6798a09c465da95921460cefb38474024989060200160405180910390a15b505050505050505050565b6073546001600160a01b0316331461200e5760405162461bcd60e51b815260206004820152602860248201527f50726f6f664f66456666696369656e63793a3a6f6e6c7941646d696e3a206f6e604482015267363c9030b236b4b760c11b6064820152608401610991565b606980547fffffffff0000000000000000000000000000000000000000ffffffffffffffff16600160401b6001600160a01b038416908102919091179091556040519081527ff54144f9611984021529f814a1cb6a41e22c58351510a0d9f7e822618abb9cc090602001610d0e565b6073546001600160a01b031633146120e85760405162461bcd60e51b815260206004820152602860248201527f50726f6f664f66456666696369656e63793a3a6f6e6c7941646d696e3a206f6e604482015267363c9030b236b4b760c11b6064820152608401610991565b607380546001600160a01b0319166001600160a01b0383169081179091556040519081527f5a272403b402d892977df56625f4164ccaf70ca3863991c43ecfe76a6905b0a190602001610d0e565b61213e6140d1565b612148600061412b565b565b6033546001600160a01b03163314612320576072546000906001600160401b03161561219b57506072546001600160401b03908116600090815260716020526040902054600160401b9004166121a9565b506069546001600160401b03165b80826001600160401b03161161224d5760405162461bcd60e51b815260206004820152604160248201527f50726f6f664f66456666696369656e63793a3a6163746976617465456d65726760448201527f656e637953746174653a20426174636820616c7265616479207665726966696560648201527f6400000000000000000000000000000000000000000000000000000000000000608482015260a401610991565b6001600160401b03808316600090815260676020526040902060010154429161227b9162093a80911661558e565b6001600160401b0316111561231e5760405162461bcd60e51b815260206004820152605260248201527f50726f6f664f66456666696369656e63793a3a6163746976617465456d65726760448201527f656e637953746174653a206167677265676174696f6e2068616c742074696d6560648201527f6f7574206973206e6f7420657870697265640000000000000000000000000000608482015260a401610991565b505b61232861417d565b50565b60655460ff16156123af5760405162461bcd60e51b815260206004820152604260248201527f456d657267656e63794d616e616765723a3a69664e6f74456d657267656e637960448201527f53746174653a206f6e6c79206966206e6f7420656d657267656e637920737461606482015261746560f01b608482015260a401610991565b6123c08989898989898989896141ed565b6001600160401b0386166000908152606d60209081526040918290205482519081529081018690527f1f44c21118c4603cfb4e1b621dbcfa2b73efcececee2b99b620b2953d33a7010910160405180910390a1611f9861417d565b6068546000906001600160401b03600160801b820481169161244791600160c01b90910416600161558e565b6124519190615627565b61246c906001600160401b0316670de0b6b3a7640000615666565b905090565b6073546001600160a01b031633146124dc5760405162461bcd60e51b815260206004820152602860248201527f50726f6f664f66456666696369656e63793a3a6f6e6c7941646d696e3a206f6e604482015267363c9030b236b4b760c11b6064820152608401610991565b606c8054821515600160a01b0260ff60a01b199091161790556040517fbacda50a4a8575be1d91a7ebe29ee45056f3a94f12a2281eb6b43afa33bcefe690610d0e90831515815260200190565b6065546040517f70a0823100000000000000000000000000000000000000000000000000000000815230600482015260009182916101009091046001600160a01b0316906370a0823190602401602060405180830381865afa158015612593573d6000803e3d6000fd5b505050506040513d601f19601f820116820180604052508101906125b791906155f5565b905060006125c3612844565b6068546001600160401b03600160401b82048116916125f391600160801b8204811691600160c01b900416615627565b6125fd919061558e565b6126079190615627565b6001600160401b0316905061261c81836157a8565b9250505090565b6073546001600160a01b0316331461268e5760405162461bcd60e51b815260206004820152602860248201527f50726f6f664f66456666696369656e63793a3a6f6e6c7941646d696e3a206f6e604482015267363c9030b236b4b760c11b6064820152608401610991565b60725462093a80600160801b9091046001600160401b0316111561272d5760405162461bcd60e51b815260206004820152604a60248201527f50726f6f664f66456666696369656e63793a3a73657450656e64696e6753746160448201527f746554696d656f75743a206578636565642068616c74206167677265676174696064820152691bdb881d1a5b595bdd5d60b21b608482015260a401610991565b60655460ff166127e9576072546001600160401b03600160801b9091048116908216106127e95760405162461bcd60e51b8152602060048201526044602482018190527f50726f6f664f66456666696369656e63793a3a73657450656e64696e67537461908201527f746554696d656f75743a206e65772074696d656f7574206d757374206265206c60648201527f6f77657200000000000000000000000000000000000000000000000000000000608482015260a401610991565b6072805467ffffffffffffffff60801b1916600160801b6001600160401b038416908102919091179091556040519081527fc4121f4e22c69632ebb7cf1f462be0511dc034f999b52013eddfb24aab765c7590602001610d0e565b6072546000906001600160401b03161561288157506072546001600160401b03908116600090815260716020526040902054600160401b90041690565b506069546001600160401b031690565b6073546001600160a01b031633146128fc5760405162461bcd60e51b815260206004820152602860248201527f50726f6f664f66456666696369656e63793a3a6f6e6c7941646d696e3a206f6e604482015267363c9030b236b4b760c11b6064820152608401610991565b606e61290882826156d3565b507f6b8f723a4c7a5335cafae8a598a0aa0301be1387c037dccc085b62add6448b2081604051610d0e9190614e5e565b60655460ff16156129bc5760405162461bcd60e51b815260206004820152604260248201527f456d657267656e63794d616e616765723a3a69664e6f74456d657267656e637960448201527f53746174653a206f6e6c79206966206e6f7420656d657267656e637920737461606482015261746560f01b608482015260a401610991565b606c54600160a01b900460ff161515600114612a515760405162461bcd60e51b815260206004820152604860248201527f50726f6f664f66456666696369656e63793a3a6973466f72636542617463684160448201527f6c6c6f7765643a206f6e6c7920696620666f72636520626174636820697320616064820152677661696c61626c6560c01b608482015260a401610991565b805180612ad15760405162461bcd60e51b815260206004820152604260248201527f50726f6f664f66456666696369656e63793a3a73657175656e6365466f72636560448201527f42617463683a204d75737420666f726365206174206c656173742031206261746064820152610c6d60f31b608482015260a401610991565b6103e88110612b525760405162461bcd60e51b815260206004820152604160248201527f50726f6f664f66456666696369656e63793a3a7665726966794261746368657360448201527f3a2063616e6e6f74207665726966792074686174206d616e79206261746368656064820152607360f81b608482015260a401610991565b6068546001600160401b03600160c01b8204811691612b7a918491600160801b9004166157bc565b1115612bee5760405162461bcd60e51b815260206004820152603a60248201527f50726f6f664f66456666696369656e63793a3a73657175656e6365466f72636560448201527f42617463683a20466f72636520626174636820696e76616c69640000000000006064820152608401610991565b6068546001600160401b03600160401b820481166000818152606760205260408120549193600160801b9004909216915b84811015612eaf576000868281518110612c3b57612c3b6155b9565b602002602001015190508380612c50906155cf565b825180516020918201208185015160408087015181519485019390935283015260c01b6001600160c01b03191660608201529095506000915060680160408051601f1981840301815291815281516020928301206001600160401b038816600090815260669093529120549091508114612d585760405162461bcd60e51b815260206004820152604760248201527f50726f6f664f66456666696369656e63793a3a73657175656e6365466f72636560448201527f426174636865733a20466f7263656420626174636865732064617461206d757360648201527f74206d6174636800000000000000000000000000000000000000000000000000608482015260a401610991565b612d6360018861564f565b8303612e20574262093a808360400151612d7d919061558e565b6001600160401b03161115612e205760405162461bcd60e51b815260206004820152604c60248201527f50726f6f664f66456666696369656e63793a3a73657175656e6365466f72636560448201527f42617463683a20466f72636564206261746368206973206e6f7420696e20746960648201527f6d656f757420706572696f640000000000000000000000000000000000000000608482015260a401610991565b8151805160209182012081840151604080519384018890528301919091526060808301919091524260c01b6001600160c01b031916608083015233901b6bffffffffffffffffffffffff19166088820152609c016040516020818303038152906040528051906020012093508580612e97906155cf565b96505050508080612ea79061560e565b915050612c1f565b5060688054426001600160401b039081166fffffffffffffffffffffffffffffffff199092168217600160401b8783168181029290921767ffffffffffffffff60801b1916600160801b888516021785556040805180820182528781526020808201968752600094855260679052818420905181559451600195909501805467ffffffffffffffff191695851695909517909455935492519390920416917f648a61dd2438f072f5a1960939abd30f37aea80d2e94c9792ad142d3e0a490a49190a25050505050565b60655460ff16612ff05760405162461bcd60e51b815260206004820152603b60248201527f456d657267656e63794d616e616765723a3a6966456d657267656e637953746160448201527f74653a206f6e6c7920696620656d657267656e637920737461746500000000006064820152608401610991565b6073546001600160a01b0316331461305b5760405162461bcd60e51b815260206004820152602860248201527f50726f6f664f66456666696369656e63793a3a6f6e6c7941646d696e3a206f6e604482015267363c9030b236b4b760c11b6064820152608401610991565b607060009054906101000a90046001600160a01b03166001600160a01b031663dbc169766040518163ffffffff1660e01b8152600401600060405180830381600087803b1580156130ab57600080fd5b505af11580156130bf573d6000803e3d6000fd5b505050506121486149c3565b606a546001600160a01b031633146131555760405162461bcd60e51b815260206004820152604160248201527f50726f6f664f66456666696369656e63793a3a6f6e6c7954727573746564416760448201527f6772656761746f723a206f6e6c7920747275737465642041676772656761746f6064820152603960f91b608482015260a401610991565b6131668989898989898989896141ed565b6069805467ffffffffffffffff19166001600160401b038881169182179092556000908152606d6020526040902085905560725416156131ba57607280546fffffffffffffffffffffffffffffffff191690555b606c546040516333d6247d60e01b8152600481018790526001600160a01b03909116906333d6247d90602401600060405180830381600087803b15801561320057600080fd5b505af1158015613214573d6000803e3d6000fd5b50506040518681523392506001600160401b03891691507fcc1b5520188bf1dd3e63f98164b577c4d75c11a619ddea692112f0d1aec4cf729060200160405180910390a3505050505050505050565b60655460ff16156132e75760405162461bcd60e51b815260206004820152604260248201527f456d657267656e63794d616e616765723a3a69664e6f74456d657267656e637960448201527f53746174653a206f6e6c79206966206e6f7420656d657267656e637920737461606482015261746560f01b608482015260a401610991565b606c54600160a01b900460ff16151560011461337c5760405162461bcd60e51b815260206004820152604860248201527f50726f6f664f66456666696369656e63793a3a6973466f72636542617463684160448201527f6c6c6f7765643a206f6e6c7920696620666f72636520626174636820697320616064820152677661696c61626c6560c01b608482015260a401610991565b600061338661241b565b9050818111156133fe5760405162461bcd60e51b815260206004820152602f60248201527f50726f6f664f66456666696369656e63793a3a666f72636542617463683a206e60448201527f6f7420656e6f756768206d6174696300000000000000000000000000000000006064820152608401610991565b61ea608351106134765760405162461bcd60e51b815260206004820152603a60248201527f50726f6f664f66456666696369656e63793a3a666f72636542617463683a205460448201527f72616e73616374696f6e73206279746573206f766572666c6f770000000000006064820152608401610991565b6065546134939061010090046001600160a01b0316333084613971565b606c54604080517f3ed691ef00000000000000000000000000000000000000000000000000000000815290516000926001600160a01b031691633ed691ef9160048083019260209291908290030181865afa1580156134f6573d6000803e3d6000fd5b505050506040513d601f19601f8201168201806040525081019061351a91906155f5565b60688054919250600160c01b9091046001600160401b031690601861353e836155cf565b91906101000a8154816001600160401b0302191690836001600160401b03160217905550508380519060200120814260405160200161359d93929190928352602083019190915260c01b6001600160c01b031916604082015260480190565b60408051808303601f190181529181528151602092830120606854600160c01b90046001600160401b03166000908152606690935291205532330361364157606854604080518381523360208201526060918101829052600091810191909152600160c01b9091046001600160401b0316907ff94bb37db835f1ab585ee00041849a09b12cd081d77fa15ca070757619cbc9319060800160405180910390a261369c565b606860189054906101000a90046001600160401b03166001600160401b03167ff94bb37db835f1ab585ee00041849a09b12cd081d77fa15ca070757619cbc931823387604051613693939291906157d4565b60405180910390a25b50505050565b606a546001600160a01b0316331461372c5760405162461bcd60e51b815260206004820152604160248201527f50726f6f664f66456666696369656e63793a3a6f6e6c7954727573746564416760448201527f6772656761746f723a206f6e6c7920747275737465642041676772656761746f6064820152603960f91b608482015260a401610991565b61373c8888888888888888613ac6565b6069805467ffffffffffffffff19166001600160401b038881169182179092556000908152606d60205260409020859055607254161561379057607280546fffffffffffffffffffffffffffffffff191690555b606c546040516333d6247d60e01b8152600481018790526001600160a01b03909116906333d6247d90602401600060405180830381600087803b1580156137d657600080fd5b505af11580156137ea573d6000803e3d6000fd5b50506040518681523392506001600160401b03891691507f0c0ce073a7d7b5850c04ccc4b20ee7d3179d5f57d0ac44399565792c0f72fce790602001611937565b6073546001600160a01b031633146138965760405162461bcd60e51b815260206004820152602860248201527f50726f6f664f66456666696369656e63793a3a6f6e6c7941646d696e3a206f6e604482015267363c9030b236b4b760c11b6064820152608401610991565b606a80546001600160a01b0319166001600160a01b0383169081179091556040519081527f61f8fec29495a3078e9271456f05fb0707fd4e41f7661865f80fc437d06681ca90602001610d0e565b6138ec6140d1565b6001600160a01b0381166139685760405162461bcd60e51b815260206004820152602660248201527f4f776e61626c653a206e6577206f776e657220697320746865207a65726f206160448201527f64647265737300000000000000000000000000000000000000000000000000006064820152608401610991565b6123288161412b565b6040516001600160a01b038085166024830152831660448201526064810182905261369c9085907f23b872dd00000000000000000000000000000000000000000000000000000000906084015b60408051601f198184030181529190526020810180517bffffffffffffffffffffffffffffffffffffffffffffffffffffffff167fffffffff0000000000000000000000000000000000000000000000000000000090931692909217909152614a70565b6072546001600160401b03600160401b820481169116111561214857607254600090613a5f90600160401b90046001600160401b0316600161558e565b9050613a6a81610aa6565b1561232857607254600090600290613a8c9084906001600160401b0316615627565b613a969190615805565b613aa0908361558e565b9050613aab81610aa6565b15613abd57613ab981611949565b5050565b613ab982611949565b600080613ad1612844565b90506001600160401b038a1615613c5d576072546001600160401b03908116908b161115613b8d5760405162461bcd60e51b815260206004820152605d60248201527f50726f6f664f66456666696369656e63793a3a7665726966794261746368657360448201527f3a2070656e64696e6753746174654e756d206d757374206265206c657373206f60648201527f7220657175616c207468616e206c61737450656e64696e675374617465000000608482015260a401610991565b6001600160401b03808b1660009081526071602052604090206002810154815490945090918b8116600160401b9092041614613c575760405162461bcd60e51b815260206004820152605160248201527f50726f6f664f66456666696369656e63793a3a7665726966794261746368657360448201527f3a20696e69744e756d4261746368206d757374206d617463682074686520706560648201527f6e64696e67207374617465206261746368000000000000000000000000000000608482015260a401610991565b50613dca565b6001600160401b0389166000908152606d6020526040902054915081613d115760405162461bcd60e51b815260206004820152604860248201527f50726f6f664f66456666696369656e63793a3a7665726966794261746368657360448201527f3a20696e69744e756d426174636820737461746520726f6f7420646f6573206e60648201527f6f74206578697374000000000000000000000000000000000000000000000000608482015260a401610991565b806001600160401b0316896001600160401b03161115613dca5760405162461bcd60e51b815260206004820152606260248201527f50726f6f664f66456666696369656e63793a3a7665726966794261746368657360448201527f3a20696e69744e756d4261746368206d757374206265206c657373206f72206560648201527f7175616c207468616e2063757272656e744c61737456657269666965644261746084820152610c6d60f31b60a482015260c401610991565b806001600160401b0316886001600160401b031611613e775760405162461bcd60e51b815260206004820152605c60248201527f50726f6f664f66456666696369656e63793a3a7665726966794261746368657360448201527f3a2066696e616c4e65774261746368206d75737420626520626967676572207460648201527f68616e2063757272656e744c6173745665726966696564426174636800000000608482015260a401610991565b6000613e868a8a8a868b6108e3565b905060007f30644e72e131a029b85045b68181585d2833e84879b9709143e1f593f0000001600283604051613ebb919061582b565b602060405180830381855afa158015613ed8573d6000803e3d6000fd5b5050506040513d601f19601f82011682018060405250810190613efb91906155f5565b613f059190615847565b606b546040805160208101825283815290516343753b4d60e01b81529293506001600160a01b03909116916343753b4d91613f49918b918b918b919060040161585b565b602060405180830381865afa158015613f66573d6000803e3d6000fd5b505050506040513d601f19601f82011682018060405250810190613f8a91906158d5565b613ffc5760405162461bcd60e51b815260206004820152602f60248201527f50726f6f664f66456666696369656e63793a3a7665726966794261746368657360448201527f3a20494e56414c49445f50524f4f4600000000000000000000000000000000006064820152608401610991565b61403d3361400a858d615627565b6001600160401b031661401b612529565b6140259190615666565b60655461010090046001600160a01b03169190614b5a565b505050505050505050505050565b600054610100900460ff166140c85760405162461bcd60e51b815260206004820152602b60248201527f496e697469616c697a61626c653a20636f6e7472616374206973206e6f74206960448201527f6e697469616c697a696e670000000000000000000000000000000000000000006064820152608401610991565b6121483361412b565b6033546001600160a01b031633146121485760405162461bcd60e51b815260206004820181905260248201527f4f776e61626c653a2063616c6c6572206973206e6f7420746865206f776e65726044820152606401610991565b603380546001600160a01b038381166001600160a01b0319831681179093556040519116919082907f8be0079c531659141344cd1fd0a4f28419497f9722a3daafe3b4186f6b6457e090600090a35050565b607060009054906101000a90046001600160a01b03166001600160a01b0316632072f6c56040518163ffffffff1660e01b8152600401600060405180830381600087803b1580156141cd57600080fd5b505af11580156141e1573d6000803e3d6000fd5b50505050612148614ba3565b60006001600160401b038a16156143c3576072546001600160401b03908116908b1611156142cf5760405162461bcd60e51b815260206004820152607160248201527f50726f6f664f66456666696369656e63793a3a70726f76654e6f6e446574657260448201527f6d696e697374696350656e64696e6753746174653a2070656e64696e6753746160648201527f74654e756d206d757374206265206c657373206f7220657175616c207468616e60848201527f206c61737450656e64696e67537461746500000000000000000000000000000060a482015260c401610991565b506001600160401b03808a1660009081526071602052604090206002810154815490928a8116600160401b90920416146143bd5760405162461bcd60e51b815260206004820152606560248201527f50726f6f664f66456666696369656e63793a3a70726f76654e6f6e446574657260448201527f6d696e697374696350656e64696e6753746174653a20696e69744e756d42617460648201527f6368206d757374206d61746368207468652070656e64696e672073746174652060848201527f626174636800000000000000000000000000000000000000000000000000000060a482015260c401610991565b50614547565b506001600160401b0387166000908152606d6020526040902054806144765760405162461bcd60e51b815260206004820152605c60248201527f50726f6f664f66456666696369656e63793a3a70726f76654e6f6e446574657260448201527f6d696e697374696350656e64696e6753746174653a20696e69744e756d42617460648201527f636820737461746520726f6f7420646f6573206e6f7420657869737400000000608482015260a401610991565b6069546001600160401b0390811690891611156145475760405162461bcd60e51b815260206004820152607660248201527f50726f6f664f66456666696369656e63793a3a70726f76654e6f6e446574657260448201527f6d696e697374696350656e64696e6753746174653a20696e69744e756d42617460648201527f6368206d757374206265206c657373206f7220657175616c207468616e20637560848201527f7272656e744c617374566572696669656442617463680000000000000000000060a482015260c401610991565b6072546001600160401b03908116908a16118015906145775750896001600160401b0316896001600160401b0316115b801561459857506072546001600160401b03600160401b9091048116908a16115b6146565760405162461bcd60e51b815260206004820152607060248201527f50726f6f664f66456666696369656e63793a3a70726f76654e6f6e446574657260448201527f6d696e697374696350656e64696e6753746174653a2066696e616c4e6577426160648201527f746368206d75737420626520626967676572207468616e2063757272656e744c60848201527f617374566572696669656442617463680000000000000000000000000000000060a482015260c401610991565b6001600160401b03898116600090815260716020526040902054600160401b900481169088161461473b5760405162461bcd60e51b815260206004820152607060248201527f50726f6f664f66456666696369656e63793a3a70726f76654e6f6e446574657260448201527f6d696e697374696350656e64696e6753746174653a2066696e616c4e6577426160648201527f746368206d75737420626520626967676572207468616e2063757272656e744c60848201527f617374566572696669656442617463680000000000000000000000000000000060a482015260c401610991565b600061474a898989858a6108e3565b905060007f30644e72e131a029b85045b68181585d2833e84879b9709143e1f593f000000160028360405161477f919061582b565b602060405180830381855afa15801561479c573d6000803e3d6000fd5b5050506040513d601f19601f820116820180604052508101906147bf91906155f5565b6147c99190615847565b606b546040805160208101825283815290516343753b4d60e01b81529293506001600160a01b03909116916343753b4d9161480d918a918a918a919060040161585b565b602060405180830381865afa15801561482a573d6000803e3d6000fd5b505050506040513d601f19601f8201168201806040525081019061484e91906158d5565b6148e65760405162461bcd60e51b815260206004820152604360248201527f50726f6f664f66456666696369656e63793a3a70726f76654e6f6e446574657260448201527f6d696e697374696350656e64696e6753746174653a20494e56414c49445f505260648201527f4f4f460000000000000000000000000000000000000000000000000000000000608482015260a401610991565b6001600160401b038b1660009081526071602052604090206002015487900361403d5760405162461bcd60e51b815260206004820152606760248201527f50726f6f664f66456666696369656e63793a3a70726f76654e6f6e446574657260448201527f6d696e697374696350656e64696e6753746174653a2073746f72656420726f6f60648201527f74206d75737420626520646966666572656e74207468616e206e65772073746160848201527f746520726f6f740000000000000000000000000000000000000000000000000060a482015260c401610991565b60655460ff16614a3b5760405162461bcd60e51b815260206004820152603b60248201527f456d657267656e63794d616e616765723a3a6966456d657267656e637953746160448201527f74653a206f6e6c7920696620656d657267656e637920737461746500000000006064820152608401610991565b6065805460ff191690556040517f1e5e34eea33501aecf2ebec9fe0e884a40804275ea7fe10b2ba084c8374308b390600090a1565b6000614ac5826040518060400160405280602081526020017f5361666545524332303a206c6f772d6c6576656c2063616c6c206661696c6564815250856001600160a01b0316614c5f9092919063ffffffff16565b805190915015614b555780806020019051810190614ae391906158d5565b614b555760405162461bcd60e51b815260206004820152602a60248201527f5361666545524332303a204552433230206f7065726174696f6e20646964206e60448201527f6f742073756363656564000000000000000000000000000000000000000000006064820152608401610991565b505050565b6040516001600160a01b038316602482015260448101829052614b559084907fa9059cbb00000000000000000000000000000000000000000000000000000000906064016139be565b60655460ff1615614c275760405162461bcd60e51b815260206004820152604260248201527f456d657267656e63794d616e616765723a3a69664e6f74456d657267656e637960448201527f53746174653a206f6e6c79206966206e6f7420656d657267656e637920737461606482015261746560f01b608482015260a401610991565b6065805460ff191660011790556040517f2261efe5aef6fedc1fd1550b25facc9181745623049c7901287030b9ad1a549790600090a1565b6060614c6e8484600085614c76565b949350505050565b606082471015614cee5760405162461bcd60e51b815260206004820152602660248201527f416464726573733a20696e73756666696369656e742062616c616e636520666f60448201527f722063616c6c00000000000000000000000000000000000000000000000000006064820152608401610991565b600080866001600160a01b03168587604051614d0a919061582b565b60006040518083038185875af1925050503d8060008114614d47576040519150601f19603f3d011682016040523d82523d6000602084013e614d4c565b606091505b5091509150614d5d87838387614d68565b979650505050505050565b60608315614dd7578251600003614dd0576001600160a01b0385163b614dd05760405162461bcd60e51b815260206004820152601d60248201527f416464726573733a2063616c6c20746f206e6f6e2d636f6e74726163740000006044820152606401610991565b5081614c6e565b614c6e8383815115614dec5781518083602001fd5b8060405162461bcd60e51b81526004016109919190614e5e565b60005b83811015614e21578181015183820152602001614e09565b8381111561369c5750506000910152565b60008151808452614e4a816020860160208601614e06565b601f01601f19169290920160200192915050565b602081526000614e716020830184614e32565b9392505050565b80356001600160401b0381168114614e8f57600080fd5b919050565b600080600080600060a08688031215614eac57600080fd5b614eb586614e78565b9450614ec360208701614e78565b94979496505050506040830135926060810135926080909101359150565b600060208284031215614ef357600080fd5b614e7182614e78565b634e487b7160e01b600052604160045260246000fd5b604051608081016001600160401b0381118282101715614f3457614f34614efc565b60405290565b604051606081016001600160401b0381118282101715614f3457614f34614efc565b604051601f8201601f191681016001600160401b0381118282101715614f8457614f84614efc565b604052919050565b60006001600160401b03821115614fa557614fa5614efc565b5060051b60200190565b600082601f830112614fc057600080fd5b81356001600160401b03811115614fd957614fd9614efc565b614fec601f8201601f1916602001614f5c565b81815284602083860101111561500157600080fd5b816020850160208301376000918101602001919091529392505050565b6000602080838503121561503157600080fd5b82356001600160401b038082111561504857600080fd5b818501915085601f83011261505c57600080fd5b813561506f61506a82614f8c565b614f5c565b81815260059190911b8301840190848101908883111561508e57600080fd5b8585015b83811015615127578035858111156150aa5760008081fd5b86016080818c03601f19018113156150c25760008081fd5b6150ca614f12565b89830135888111156150dc5760008081fd5b6150ea8e8c83870101614faf565b8252506040808401358b8301526060615104818601614e78565b82840152615113848601614e78565b908301525085525050918601918601615092565b5098975050505050505050565b806040810183101561514557600080fd5b92915050565b806080810183101561514557600080fd5b6000806000806000806000806101a0898b03121561517957600080fd5b61518289614e78565b975061519060208a01614e78565b965061519e60408a01614e78565b955060608901359450608089013593506151bb8a60a08b01615134565b92506151ca8a60e08b0161514b565b91506151da8a6101608b01615134565b90509295985092959890939650565b6001600160a01b038116811461232857600080fd5b600080600080600080600080888a036101c081121561521c57600080fd5b8935615227816151e9565b985060208a0135615237816151e9565b975060408a0135615247816151e9565b965060608a0135615257816151e9565b955060e0607f198201121561526b57600080fd5b5060808901935061016089013592506101808901356001600160401b038082111561529557600080fd5b6152a18c838d01614faf565b93506101a08b01359150808211156152b857600080fd5b506152c58b828c01614faf565b9150509295985092959890939650565b6000602082840312156152e757600080fd5b8135614e71816151e9565b60008060008060008060008060006101c08a8c03121561531157600080fd5b61531a8a614e78565b985061532860208b01614e78565b975061533660408b01614e78565b965061534460608b01614e78565b955060808a0135945060a08a013593506153618b60c08c01615134565b92506153718b6101008c0161514b565b91506153818b6101808c01615134565b90509295985092959850929598565b6000602082840312156153a257600080fd5b5035919050565b801515811461232857600080fd5b6000602082840312156153c957600080fd5b8135614e71816153a9565b6000602082840312156153e657600080fd5b81356001600160401b038111156153fc57600080fd5b614c6e84828501614faf565b6000602080838503121561541b57600080fd5b82356001600160401b038082111561543257600080fd5b818501915085601f83011261544657600080fd5b813561545461506a82614f8c565b81815260059190911b8301840190848101908883111561547357600080fd5b8585015b838110156151275780358581111561548f5760008081fd5b86016060818c03601f19018113156154a75760008081fd5b6154af614f3a565b89830135888111156154c15760008081fd5b6154cf8e8c83870101614faf565b8252506040808401358b8301526154e7838501614e78565b9082015285525050918601918601615477565b6000806040838503121561550d57600080fd5b82356001600160401b0381111561552357600080fd5b61552f85828601614faf565b95602094909401359450505050565b600181811c9082168061555257607f821691505b60208210810361557257634e487b7160e01b600052602260045260246000fd5b50919050565b634e487b7160e01b600052601160045260246000fd5b60006001600160401b038083168185168083038211156155b0576155b0615578565b01949350505050565b634e487b7160e01b600052603260045260246000fd5b60006001600160401b038083168181036155eb576155eb615578565b6001019392505050565b60006020828403121561560757600080fd5b5051919050565b60006001820161562057615620615578565b5060010190565b60006001600160401b038381169083168181101561564757615647615578565b039392505050565b60008282101561566157615661615578565b500390565b600081600019048311821515161561568057615680615578565b500290565b601f821115614b5557600081815260208120601f850160051c810160208610156156ac5750805b601f850160051c820191505b818110156156cb578281556001016156b8565b505050505050565b81516001600160401b038111156156ec576156ec614efc565b615700816156fa845461553e565b84615685565b602080601f831160018114615735576000841561571d5750858301515b600019600386901b1c1916600185901b1785556156cb565b600085815260208120601f198616915b8281101561576457888601518255948401946001909101908401615745565b50858210156157825787850151600019600388901b60f8161c191681555b5050505050600190811b01905550565b634e487b7160e01b600052601260045260246000fd5b6000826157b7576157b7615792565b500490565b600082198211156157cf576157cf615578565b500190565b8381526001600160a01b03831660208201526060604082015260006157fc6060830184614e32565b95945050505050565b60006001600160401b038084168061581f5761581f615792565b92169190910492915050565b6000825161583d818460208701614e06565b9190910192915050565b60008261585657615856615792565b500690565b61012081016040808784376000838201818152879190815b600281101561589357848483379084018281529284019290600101615873565b5050828760c0870137610100850181815286935091505b60018110156158c95782518252602092830192909101906001016158aa565b50505095945050505050565b6000602082840312156158e757600080fd5b8151614e71816153a956fea2646970667358221220a174d7732080319dfc3980f49e54c7f3cb7a9ac19ebe44c841645fc6de6a881464736f6c634300080f0033",
  "linkReferences": {},
  "deployedLinkReferences": {}
}