{
  "_format": "hh-sol-artifact-1",
  "contractName": "ProofOfEfficiency",
  "sourceName": "contracts/ProofOfEfficiency.sol",
  "abi": [
    {
      "anonymous": false,
      "inputs": [],
      "name": "EmergencyStateActivated",
      "type": "event"
    },
    {
      "anonymous": false,
      "inputs": [],
      "name": "EmergencyStateDeactivated",
      "type": "event"
    },
    {
      "anonymous": false,
      "inputs": [
        {
          "indexed": true,
          "internalType": "uint64",
          "name": "forceBatchNum",
          "type": "uint64"
        },
        {
          "indexed": false,
          "internalType": "bytes32",
          "name": "lastGlobalExitRoot",
          "type": "bytes32"
        },
        {
          "indexed": false,
          "internalType": "address",
          "name": "sequencer",
          "type": "address"
        },
        {
          "indexed": false,
          "internalType": "bytes",
          "name": "transactions",
          "type": "bytes"
        }
      ],
      "name": "ForceBatch",
      "type": "event"
    },
    {
      "anonymous": false,
      "inputs": [
        {
          "indexed": false,
          "internalType": "uint8",
          "name": "version",
          "type": "uint8"
        }
      ],
      "name": "Initialized",
      "type": "event"
    },
    {
      "anonymous": false,
      "inputs": [
        {
          "indexed": true,
          "internalType": "address",
          "name": "previousOwner",
          "type": "address"
        },
        {
          "indexed": true,
          "internalType": "address",
          "name": "newOwner",
          "type": "address"
        }
      ],
      "name": "OwnershipTransferred",
      "type": "event"
    },
    {
      "anonymous": false,
      "inputs": [
        {
          "indexed": false,
          "internalType": "bytes32",
          "name": "storedStateRoot",
          "type": "bytes32"
        },
        {
          "indexed": false,
          "internalType": "bytes32",
          "name": "provedStateRoot",
          "type": "bytes32"
        }
      ],
      "name": "ProofDifferentState",
      "type": "event"
    },
    {
      "anonymous": false,
      "inputs": [
        {
          "indexed": true,
          "internalType": "uint64",
          "name": "numBatch",
          "type": "uint64"
        }
      ],
      "name": "SequenceBatches",
      "type": "event"
    },
    {
      "anonymous": false,
      "inputs": [
        {
          "indexed": true,
          "internalType": "uint64",
          "name": "numBatch",
          "type": "uint64"
        }
      ],
      "name": "SequenceForceBatches",
      "type": "event"
    },
    {
      "anonymous": false,
      "inputs": [
        {
          "indexed": false,
          "internalType": "bool",
          "name": "newForceBatchAllowed",
          "type": "bool"
        }
      ],
      "name": "SetForceBatchAllowed",
      "type": "event"
    },
    {
      "anonymous": false,
      "inputs": [
        {
          "indexed": false,
          "internalType": "address",
          "name": "newSecurityCouncil",
          "type": "address"
        }
      ],
      "name": "SetSecurityCouncil",
      "type": "event"
    },
    {
      "anonymous": false,
      "inputs": [
        {
          "indexed": false,
          "internalType": "address",
          "name": "newTrustedSequencer",
          "type": "address"
        }
      ],
      "name": "SetTrustedSequencer",
      "type": "event"
    },
    {
      "anonymous": false,
      "inputs": [
        {
          "indexed": false,
          "internalType": "string",
          "name": "newTrustedSequencerURL",
          "type": "string"
        }
      ],
      "name": "SetTrustedSequencerURL",
      "type": "event"
    },
    {
      "anonymous": false,
      "inputs": [
        {
          "indexed": true,
          "internalType": "uint64",
          "name": "numBatch",
          "type": "uint64"
        },
        {
          "indexed": false,
          "internalType": "bytes32",
          "name": "stateRoot",
          "type": "bytes32"
        },
        {
          "indexed": true,
          "internalType": "address",
          "name": "aggregator",
          "type": "address"
        }
      ],
      "name": "VerifyBatches",
      "type": "event"
    },
    {
      "inputs": [],
      "name": "FORCE_BATCH_TIMEOUT",
      "outputs": [
        {
          "internalType": "uint64",
          "name": "",
          "type": "uint64"
        }
      ],
      "stateMutability": "view",
      "type": "function"
    },
    {
      "inputs": [],
      "name": "MAX_BATCH_LENGTH",
      "outputs": [
        {
          "internalType": "uint256",
          "name": "",
          "type": "uint256"
        }
      ],
      "stateMutability": "view",
      "type": "function"
    },
    {
      "inputs": [],
      "name": "TRUSTED_SEQUENCER_FEE",
      "outputs": [
        {
          "internalType": "uint256",
          "name": "",
          "type": "uint256"
        }
      ],
      "stateMutability": "view",
      "type": "function"
    },
    {
      "inputs": [],
      "name": "activateEmergencyState",
      "outputs": [],
      "stateMutability": "nonpayable",
      "type": "function"
    },
    {
      "inputs": [
        {
          "internalType": "uint64",
          "name": "",
          "type": "uint64"
        }
      ],
      "name": "batchNumToStateRoot",
      "outputs": [
        {
          "internalType": "bytes32",
          "name": "",
          "type": "bytes32"
        }
      ],
      "stateMutability": "view",
      "type": "function"
    },
    {
      "inputs": [],
      "name": "bridgeAddress",
      "outputs": [
        {
          "internalType": "contract IBridge",
          "name": "",
          "type": "address"
        }
      ],
      "stateMutability": "view",
      "type": "function"
    },
    {
      "inputs": [],
      "name": "calculateForceProverFee",
      "outputs": [
        {
          "internalType": "uint256",
          "name": "",
          "type": "uint256"
        }
      ],
      "stateMutability": "view",
      "type": "function"
    },
    {
      "inputs": [],
      "name": "calculateRewardPerBatch",
      "outputs": [
        {
          "internalType": "uint256",
          "name": "",
          "type": "uint256"
        }
      ],
      "stateMutability": "view",
      "type": "function"
    },
    {
      "inputs": [],
      "name": "chainID",
      "outputs": [
        {
          "internalType": "uint64",
          "name": "",
          "type": "uint64"
        }
      ],
      "stateMutability": "view",
      "type": "function"
    },
    {
      "inputs": [],
      "name": "deactivateEmergencyState",
      "outputs": [],
      "stateMutability": "nonpayable",
      "type": "function"
    },
    {
      "inputs": [
        {
          "internalType": "bytes",
          "name": "transactions",
          "type": "bytes"
        },
        {
          "internalType": "uint256",
          "name": "maticAmount",
          "type": "uint256"
        }
      ],
      "name": "forceBatch",
      "outputs": [],
      "stateMutability": "nonpayable",
      "type": "function"
    },
    {
      "inputs": [],
      "name": "forceBatchAllowed",
      "outputs": [
        {
          "internalType": "bool",
          "name": "",
          "type": "bool"
        }
      ],
      "stateMutability": "view",
      "type": "function"
    },
    {
      "inputs": [
        {
          "internalType": "uint64",
          "name": "",
          "type": "uint64"
        }
      ],
      "name": "forcedBatches",
      "outputs": [
        {
          "internalType": "bytes32",
          "name": "",
          "type": "bytes32"
        }
      ],
      "stateMutability": "view",
      "type": "function"
    },
    {
      "inputs": [
        {
          "internalType": "uint64",
          "name": "initNumBatch",
          "type": "uint64"
        },
        {
          "internalType": "uint64",
          "name": "finalNewBatch",
          "type": "uint64"
        },
        {
          "internalType": "bytes32",
          "name": "newLocalExitRoot",
          "type": "bytes32"
        },
        {
          "internalType": "bytes32",
          "name": "newStateRoot",
          "type": "bytes32"
        }
      ],
      "name": "getInputSnarkBytes",
      "outputs": [
        {
          "internalType": "bytes",
          "name": "",
          "type": "bytes"
        }
      ],
      "stateMutability": "view",
      "type": "function"
    },
    {
      "inputs": [],
      "name": "globalExitRootManager",
      "outputs": [
        {
          "internalType": "contract IGlobalExitRootManager",
          "name": "",
          "type": "address"
        }
      ],
      "stateMutability": "view",
      "type": "function"
    },
    {
      "inputs": [
        {
          "internalType": "contract IGlobalExitRootManager",
          "name": "_globalExitRootManager",
          "type": "address"
        },
        {
          "internalType": "contract IERC20Upgradeable",
          "name": "_matic",
          "type": "address"
        },
        {
          "internalType": "contract IVerifierRollup",
          "name": "_rollupVerifier",
          "type": "address"
        },
        {
          "internalType": "bytes32",
          "name": "genesisRoot",
          "type": "bytes32"
        },
        {
          "internalType": "address",
          "name": "_trustedSequencer",
          "type": "address"
        },
        {
          "internalType": "bool",
          "name": "_forceBatchAllowed",
          "type": "bool"
        },
        {
          "internalType": "string",
          "name": "_trustedSequencerURL",
          "type": "string"
        },
        {
          "internalType": "uint64",
          "name": "_chainID",
          "type": "uint64"
        },
        {
          "internalType": "string",
          "name": "_networkName",
          "type": "string"
        },
        {
          "internalType": "contract IBridge",
          "name": "_bridgeAddress",
          "type": "address"
        }
      ],
      "name": "initialize",
      "outputs": [],
      "stateMutability": "nonpayable",
      "type": "function"
    },
    {
      "inputs": [],
      "name": "isEmergencyState",
      "outputs": [
        {
          "internalType": "bool",
          "name": "",
          "type": "bool"
        }
      ],
      "stateMutability": "view",
      "type": "function"
    },
    {
      "inputs": [],
      "name": "lastBatchSequenced",
      "outputs": [
        {
          "internalType": "uint64",
          "name": "",
          "type": "uint64"
        }
      ],
      "stateMutability": "view",
      "type": "function"
    },
    {
      "inputs": [],
      "name": "lastForceBatch",
      "outputs": [
        {
          "internalType": "uint64",
          "name": "",
          "type": "uint64"
        }
      ],
      "stateMutability": "view",
      "type": "function"
    },
    {
      "inputs": [],
      "name": "lastForceBatchSequenced",
      "outputs": [
        {
          "internalType": "uint64",
          "name": "",
          "type": "uint64"
        }
      ],
      "stateMutability": "view",
      "type": "function"
    },
    {
      "inputs": [],
      "name": "lastTimestamp",
      "outputs": [
        {
          "internalType": "uint64",
          "name": "",
          "type": "uint64"
        }
      ],
      "stateMutability": "view",
      "type": "function"
    },
    {
      "inputs": [],
      "name": "lastVerifiedBatch",
      "outputs": [
        {
          "internalType": "uint64",
          "name": "",
          "type": "uint64"
        }
      ],
      "stateMutability": "view",
      "type": "function"
    },
    {
      "inputs": [],
      "name": "matic",
      "outputs": [
        {
          "internalType": "contract IERC20Upgradeable",
          "name": "",
          "type": "address"
        }
      ],
      "stateMutability": "view",
      "type": "function"
    },
    {
      "inputs": [],
      "name": "networkName",
      "outputs": [
        {
          "internalType": "string",
          "name": "",
          "type": "string"
        }
      ],
      "stateMutability": "view",
      "type": "function"
    },
    {
      "inputs": [],
      "name": "owner",
      "outputs": [
        {
          "internalType": "address",
          "name": "",
          "type": "address"
        }
      ],
      "stateMutability": "view",
      "type": "function"
    },
    {
      "inputs": [
        {
          "internalType": "uint64",
          "name": "initNumBatch",
          "type": "uint64"
        },
        {
          "internalType": "uint64",
          "name": "finalNewBatch",
          "type": "uint64"
        },
        {
          "internalType": "bytes32",
          "name": "newLocalExitRoot",
          "type": "bytes32"
        },
        {
          "internalType": "bytes32",
          "name": "newStateRoot",
          "type": "bytes32"
        },
        {
          "internalType": "uint256[2]",
          "name": "proofA",
          "type": "uint256[2]"
        },
        {
          "internalType": "uint256[2][2]",
          "name": "proofB",
          "type": "uint256[2][2]"
        },
        {
          "internalType": "uint256[2]",
          "name": "proofC",
          "type": "uint256[2]"
        }
      ],
      "name": "proofDifferentState",
      "outputs": [],
      "stateMutability": "nonpayable",
      "type": "function"
    },
    {
      "inputs": [],
      "name": "renounceOwnership",
      "outputs": [],
      "stateMutability": "nonpayable",
      "type": "function"
    },
    {
      "inputs": [],
      "name": "rollupVerifier",
      "outputs": [
        {
          "internalType": "contract IVerifierRollup",
          "name": "",
          "type": "address"
        }
      ],
      "stateMutability": "view",
      "type": "function"
    },
    {
      "inputs": [],
      "name": "securityCouncil",
      "outputs": [
        {
          "internalType": "address",
          "name": "",
          "type": "address"
        }
      ],
      "stateMutability": "view",
      "type": "function"
    },
    {
      "inputs": [
        {
          "components": [
            {
              "internalType": "bytes",
              "name": "transactions",
              "type": "bytes"
            },
            {
              "internalType": "bytes32",
              "name": "globalExitRoot",
              "type": "bytes32"
            },
            {
              "internalType": "uint64",
              "name": "timestamp",
              "type": "uint64"
            },
            {
              "internalType": "uint64",
              "name": "minForcedTimestamp",
              "type": "uint64"
            }
          ],
          "internalType": "struct ProofOfEfficiency.BatchData[]",
          "name": "batches",
          "type": "tuple[]"
        }
      ],
      "name": "sequenceBatches",
      "outputs": [],
      "stateMutability": "nonpayable",
      "type": "function"
    },
    {
      "inputs": [
        {
          "components": [
            {
              "internalType": "bytes",
              "name": "transactions",
              "type": "bytes"
            },
            {
              "internalType": "bytes32",
              "name": "globalExitRoot",
              "type": "bytes32"
            },
            {
              "internalType": "uint64",
              "name": "minForcedTimestamp",
              "type": "uint64"
            }
          ],
          "internalType": "struct ProofOfEfficiency.ForceBatchData[]",
          "name": "batches",
          "type": "tuple[]"
        }
      ],
      "name": "sequenceForceBatches",
      "outputs": [],
      "stateMutability": "nonpayable",
      "type": "function"
    },
    {
      "inputs": [
        {
          "internalType": "uint64",
          "name": "",
          "type": "uint64"
        }
      ],
      "name": "sequencedBatches",
      "outputs": [
        {
          "internalType": "bytes32",
          "name": "",
          "type": "bytes32"
        }
      ],
      "stateMutability": "view",
      "type": "function"
    },
    {
      "inputs": [
        {
          "internalType": "bool",
          "name": "newForceBatchAllowed",
          "type": "bool"
        }
      ],
      "name": "setForceBatchAllowed",
      "outputs": [],
      "stateMutability": "nonpayable",
      "type": "function"
    },
    {
      "inputs": [
        {
          "internalType": "address",
          "name": "newSecurityCouncil",
          "type": "address"
        }
      ],
      "name": "setSecurityCouncil",
      "outputs": [],
      "stateMutability": "nonpayable",
      "type": "function"
    },
    {
      "inputs": [
        {
          "internalType": "address",
          "name": "newTrustedSequencer",
          "type": "address"
        }
      ],
      "name": "setTrustedSequencer",
      "outputs": [],
      "stateMutability": "nonpayable",
      "type": "function"
    },
    {
      "inputs": [
        {
          "internalType": "string",
          "name": "newTrustedSequencerURL",
          "type": "string"
        }
      ],
      "name": "setTrustedSequencerURL",
      "outputs": [],
      "stateMutability": "nonpayable",
      "type": "function"
    },
    {
      "inputs": [
        {
          "internalType": "address",
          "name": "newOwner",
          "type": "address"
        }
      ],
      "name": "transferOwnership",
      "outputs": [],
      "stateMutability": "nonpayable",
      "type": "function"
    },
    {
      "inputs": [],
      "name": "trustedSequencer",
      "outputs": [
        {
          "internalType": "address",
          "name": "",
          "type": "address"
        }
      ],
      "stateMutability": "view",
      "type": "function"
    },
    {
      "inputs": [],
      "name": "trustedSequencerURL",
      "outputs": [
        {
          "internalType": "string",
          "name": "",
          "type": "string"
        }
      ],
      "stateMutability": "view",
      "type": "function"
    },
    {
      "inputs": [
        {
          "internalType": "uint64",
          "name": "initNumBatch",
          "type": "uint64"
        },
        {
          "internalType": "uint64",
          "name": "finalNewBatch",
          "type": "uint64"
        },
        {
          "internalType": "bytes32",
          "name": "newLocalExitRoot",
          "type": "bytes32"
        },
        {
          "internalType": "bytes32",
          "name": "newStateRoot",
          "type": "bytes32"
        },
        {
          "internalType": "uint256[2]",
          "name": "proofA",
          "type": "uint256[2]"
        },
        {
          "internalType": "uint256[2][2]",
          "name": "proofB",
          "type": "uint256[2][2]"
        },
        {
          "internalType": "uint256[2]",
          "name": "proofC",
          "type": "uint256[2]"
        }
      ],
      "name": "verifyBatches",
      "outputs": [],
      "stateMutability": "nonpayable",
      "type": "function"
    }
  ],
  "bytecode": "0x608060405234801561001057600080fd5b5061483b806100206000396000f3fe608060405234801561001057600080fd5b50600436106102c85760003560e01c80638da5cb5b1161017b578063cfa8ed47116100d8578063e7a7ed021161008c578063eaeb077b11610071578063eaeb077b14610687578063f2fde38b1461069a578063f7552761146106ad57600080fd5b8063e7a7ed0214610637578063e8bf92ed1461066757600080fd5b8063d8d1091b116100bd578063d8d1091b146105ef578063d8f54db014610602578063dbc169761461062f57600080fd5b8063cfa8ed47146105a3578063d02103ca146105cf57600080fd5b8063b02286c01161012f578063b6b0b09711610114578063b6b0b09714610558578063c89e42df1461057d578063ca8103661461059057600080fd5b8063b02286c01461052f578063b4d63f581461053857600080fd5b8063a3c573eb11610160578063a3c573eb146104f1578063ab9fc5ef14610511578063adc879e91461051b57600080fd5b80638da5cb5b146104cb57806399f5634e146104e957600080fd5b8063542028d511610229578063715018a6116101dd57806379847057116101c2578063798470571461049c5780637fcb3653146104a45780638c4a0af7146104b857600080fd5b8063715018a6146104815780637152facf1461048957600080fd5b80636766f09d1161020e5780636766f09d1461043b5780636b8616ce1461044e5780636ff512cc1461046e57600080fd5b8063542028d51461042057806355b925e61461042857600080fd5b806327eb6c0f11610280578063423fa85611610265578063423fa856146103aa57806345605267146103ca5780635392c5e0146103f257600080fd5b806327eb6c0f146103525780633c1582671461039757600080fd5b806319d8ac61116102b157806319d8ac61146103085780631c1083e2146103355780632072f6c51461034a57600080fd5b8063107bf28c146102cd57806315064c96146102eb575b600080fd5b6102d56106bc565b6040516102e29190613d32565b60405180910390f35b6065546102f89060ff1681565b60405190151581526020016102e2565b60685461031c9067ffffffffffffffff1681565b60405167ffffffffffffffff90911681526020016102e2565b610348610343366004613d77565b61074a565b005b610348610856565b6070546103729073ffffffffffffffffffffffffffffffffffffffff1681565b60405173ffffffffffffffffffffffffffffffffffffffff90911681526020016102e2565b6103486103a5366004613eec565b610907565b60685461031c9068010000000000000000900467ffffffffffffffff1681565b60685461031c90700100000000000000000000000000000000900467ffffffffffffffff1681565b610412610400366004614003565b606b6020526000908152604090205481565b6040519081526020016102e2565b6102d56111fe565b610348610436366004614035565b61120b565b610348610449366004614035565b611722565b61041261045c366004614003565b60666020526000908152604090205481565b61034861047c366004613d77565b611d5b565b610348611e75565b6102d56104973660046140b8565b611e87565b6104126120bd565b60695461031c9067ffffffffffffffff1681565b6103486104c6366004614113565b612137565b60335473ffffffffffffffffffffffffffffffffffffffff16610372565b610412612251565b6071546103729073ffffffffffffffffffffffffffffffffffffffff1681565b61031c62093a8081565b606e5461031c9067ffffffffffffffff1681565b61041261ea6081565b610412610546366004614003565b60676020526000908152604090205481565b60655461037290610100900473ffffffffffffffffffffffffffffffffffffffff1681565b61034861058b366004614130565b612382565b61034861059e36600461416d565b612457565b6069546103729068010000000000000000900473ffffffffffffffffffffffffffffffffffffffff1681565b606a546103729073ffffffffffffffffffffffffffffffffffffffff1681565b6103486105fd366004614251565b61279a565b6069546102f8907c0100000000000000000000000000000000000000000000000000000000900460ff1681565b610348612e3f565b60685461031c907801000000000000000000000000000000000000000000000000900467ffffffffffffffff1681565b606c546103729073ffffffffffffffffffffffffffffffffffffffff1681565b610348610695366004614344565b612fcf565b6103486106a8366004613d77565b6134cf565b61041267016345785d8a000081565b606f80546106c990614389565b80601f01602080910402602001604051908101604052809291908181526020018280546106f590614389565b80156107425780601f1061071757610100808354040283529160200191610742565b820191906000526020600020905b81548152906001019060200180831161072557829003601f168201915b505050505081565b60705473ffffffffffffffffffffffffffffffffffffffff1633146107dc5760405162461bcd60e51b815260206004820152603d60248201527f50726f6f664f66456666696369656e63793a3a6f6e6c7953656375726974794360448201527f6f756e63696c3a206f6e6c7920736563757269747920636f756e63696c00000060648201526084015b60405180910390fd5b607080547fffffffffffffffffffffffff00000000000000000000000000000000000000001673ffffffffffffffffffffffffffffffffffffffff83169081179091556040519081527f373a9d1d60f01a33ff86d540991f09f5c5d7482656794de80be077c5eb9693d9906020015b60405180910390a150565b60655460ff16156108f55760405162461bcd60e51b815260206004820152604260248201527f456d657267656e63794d616e616765723a3a69664e6f74456d657267656e637960448201527f53746174653a206f6e6c79206966206e6f7420656d657267656e63792073746160648201527f7465000000000000000000000000000000000000000000000000000000000000608482015260a4016107d3565b6108fd61356c565b6109056135d3565b565b60655460ff16156109a65760405162461bcd60e51b815260206004820152604260248201527f456d657267656e63794d616e616765723a3a69664e6f74456d657267656e637960448201527f53746174653a206f6e6c79206966206e6f7420656d657267656e63792073746160648201527f7465000000000000000000000000000000000000000000000000000000000000608482015260a4016107d3565b60695468010000000000000000900473ffffffffffffffffffffffffffffffffffffffff163314610a3f5760405162461bcd60e51b815260206004820152603f60248201527f50726f6f664f66456666696369656e63793a3a6f6e6c7954727573746564536560448201527f7175656e6365723a206f6e6c7920747275737465642073657175656e6365720060648201526084016107d3565b805160685467ffffffffffffffff680100000000000000008204811660008181526067602052604081205483851694929370010000000000000000000000000000000090930490921691905b85811015610fef576000878281518110610aa757610aa76143dc565b602002602001015190506000816060015167ffffffffffffffff161115610cc05783610ad28161443a565b945050600081600001518051906020012082602001518360600151604051602001610b3593929190928352602083019190915260c01b7fffffffffffffffff00000000000000000000000000000000000000000000000016604082015260480190565b60408051601f19818403018152918152815160209283012067ffffffffffffffff8816600090815260669093529120549091508114610c025760405162461bcd60e51b815260206004820152604260248201527f50726f6f664f66456666696369656e63793a3a73657175656e6365426174636860448201527f65733a20466f7263656420626174636865732064617461206d757374206d617460648201527f6368000000000000000000000000000000000000000000000000000000000000608482015260a4016107d3565b816060015167ffffffffffffffff16826040015167ffffffffffffffff161015610cba5760405162461bcd60e51b815260206004820152605d60248201527f50726f6f664f66456666696369656e63793a3a73657175656e6365426174636860448201527f65733a20466f7263656420626174636865732074696d657374616d70206d757360648201527f7420626520626967676572206f7220657175616c207468616e206d696e000000608482015260a4016107d3565b50610e5a565b60208101511580610d6f5750606a5460208201516040517f257b363200000000000000000000000000000000000000000000000000000000815273ffffffffffffffffffffffffffffffffffffffff9092169163257b363291610d299160040190815260200190565b6020604051808303816000875af1158015610d48573d6000803e3d6000fd5b505050506040513d601f19601f82011682018060405250810190610d6c9190614461565b15155b610de15760405162461bcd60e51b815260206004820152603f60248201527f50726f6f664f66456666696369656e63793a3a73657175656e6365426174636860448201527f65733a20476c6f62616c206578697420726f6f74206d7573742065786973740060648201526084016107d3565b80515161ea6011610e5a5760405162461bcd60e51b815260206004820152603f60248201527f50726f6f664f66456666696369656e63793a3a73657175656e6365426174636860448201527f65733a205472616e73616374696f6e73206279746573206f766572666c6f770060648201526084016107d3565b8567ffffffffffffffff16816040015167ffffffffffffffff1610158015610e90575042816040015167ffffffffffffffff1611155b610f285760405162461bcd60e51b815260206004820152604260248201527f50726f6f664f66456666696369656e63793a3a73657175656e6365426174636860448201527f65733a2054696d657374616d70206d75737420626520696e736964652072616e60648201527f6765000000000000000000000000000000000000000000000000000000000000608482015260a4016107d3565b805180516020918201208183015160408085015181519485018890529084019290925260608084019190915260c09190911b7fffffffffffffffff00000000000000000000000000000000000000000000000016608083015233901b7fffffffffffffffffffffffffffffffffffffffff000000000000000000000000166088820152609c016040516020818303038152906040528051906020012092508480610fd19061443a565b95505080604001519550508080610fe79061447a565b915050610a8b565b5060685467ffffffffffffffff7801000000000000000000000000000000000000000000000000909104811690831611156110925760405162461bcd60e51b815260206004820152603a60248201527f50726f6f664f66456666696369656e63793a3a73657175656e6365426174636860448201527f65733a20466f7263652062617463686573206f766572666c6f7700000000000060648201526084016107d3565b6068546000906110c090700100000000000000000000000000000000900467ffffffffffffffff16846144b2565b6110d49067ffffffffffffffff16876144db565b6068805467ffffffffffffffff868116700100000000000000000000000000000000027fffffffffffffffff0000000000000000ffffffffffffffffffffffffffffffff8983166801000000000000000081027fffffffffffffffffffffffffffffffff00000000000000000000000000000000909516938c1693909317939093179290921691909117909155600090815260676020526040902083905590506111b1333061118b8467016345785d8a00006144f2565b606554610100900473ffffffffffffffffffffffffffffffffffffffff1692919061365d565b6068546040516801000000000000000090910467ffffffffffffffff16907f303446e6a8cb73c83dff421c0b1d5e5ce0719dab1bff13660fc254e58cc17fce90600090a250505050505050565b606d80546106c990614389565b60655460ff16156112aa5760405162461bcd60e51b815260206004820152604260248201527f456d657267656e63794d616e616765723a3a69664e6f74456d657267656e637960448201527f53746174653a206f6e6c79206966206e6f7420656d657267656e63792073746160648201527f7465000000000000000000000000000000000000000000000000000000000000608482015260a4016107d3565b60695467ffffffffffffffff90811690881611156113565760405162461bcd60e51b815260206004820152605b60248201527f50726f6f664f66456666696369656e63793a3a7665726966794261746368657360448201527f3a20696e69744e756d4261746368206d757374206265206c657373206f72206560648201527f7175616c207468616e206c617374566572696669656442617463680000000000608482015260a4016107d3565b60695467ffffffffffffffff908116908716116114015760405162461bcd60e51b815260206004820152605560248201527f50726f6f664f66456666696369656e63793a3a7665726966794261746368657360448201527f3a2066696e616c4e65774261746368206d75737420626520626967676572207460648201527f68616e206c617374566572696669656442617463680000000000000000000000608482015260a4016107d3565b600061140f88888888611e87565b905060007f30644e72e131a029b85045b68181585d2833e84879b9709143e1f593f0000001600283604051611444919061452f565b602060405180830381855afa158015611461573d6000803e3d6000fd5b5050506040513d601f19601f820116820180604052508101906114849190614461565b61148e919061457a565b606c546040805160208101825283815290517f43753b4d00000000000000000000000000000000000000000000000000000000815292935073ffffffffffffffffffffffffffffffffffffffff909116916343753b4d916114f8918991899189919060040161458e565b602060405180830381865afa158015611515573d6000803e3d6000fd5b505050506040513d601f19601f820116820180604052508101906115399190614608565b6115ab5760405162461bcd60e51b815260206004820152602f60248201527f50726f6f664f66456666696369656e63793a3a7665726966794261746368657360448201527f3a20494e56414c49445f50524f4f46000000000000000000000000000000000060648201526084016107d3565b6069546116099033906115c89067ffffffffffffffff168b6144b2565b67ffffffffffffffff166115da612251565b6115e491906144f2565b606554610100900473ffffffffffffffffffffffffffffffffffffffff16919061371b565b606980547fffffffffffffffffffffffffffffffffffffffffffffffff00000000000000001667ffffffffffffffff8a169081179091556000908152606b602052604090819020879055606a5490517f33d6247d0000000000000000000000000000000000000000000000000000000081526004810189905273ffffffffffffffffffffffffffffffffffffffff909116906333d6247d90602401600060405180830381600087803b1580156116be57600080fd5b505af11580156116d2573d6000803e3d6000fd5b505060405188815233925067ffffffffffffffff8b1691507f9c72852172521097ba7e1482e6b44b351323df0155f97f4ea18fcec28e1f59669060200160405180910390a3505050505050505050565b60655460ff16156117c15760405162461bcd60e51b815260206004820152604260248201527f456d657267656e63794d616e616765723a3a69664e6f74456d657267656e637960448201527f53746174653a206f6e6c79206966206e6f7420656d657267656e63792073746160648201527f7465000000000000000000000000000000000000000000000000000000000000608482015260a4016107d3565b8567ffffffffffffffff168767ffffffffffffffff16106118705760405162461bcd60e51b815260206004820152605660248201527f50726f6f664f66456666696369656e63793a3a70726f6f66446966666572656e60448201527f7453746174653a2066696e616c4e65774261746368206d75737420626520626960648201527f67676572207468616e20696e69744e756d426174636800000000000000000000608482015260a4016107d3565b60695467ffffffffffffffff908116908716111561191c5760405162461bcd60e51b815260206004820152605860248201527f50726f6f664f66456666696369656e63793a3a70726f6f66446966666572656e60448201527f7453746174653a20696e69744e756d4261746368206d757374206265206c657360648201527f73207468616e206c617374566572696669656442617463680000000000000000608482015260a4016107d3565b67ffffffffffffffff8716158061194b575067ffffffffffffffff87166000908152606b602052604090205415155b6119e35760405162461bcd60e51b815260206004820152604e60248201527f50726f6f664f66456666696369656e63793a3a70726f6f66446966666572656e60448201527f7453746174653a20696e69744e756d426174636820737461746520726f6f742060648201527f646f6573206e6f74206578697374000000000000000000000000000000000000608482015260a4016107d3565b67ffffffffffffffff86166000908152606b6020526040902054611a955760405162461bcd60e51b815260206004820152604f60248201527f50726f6f664f66456666696369656e63793a3a70726f6f66446966666572656e60448201527f7453746174653a2066696e616c4e6577426174636820737461746520726f6f7460648201527f20646f6573206e6f742065786973740000000000000000000000000000000000608482015260a4016107d3565b6000611aa388888888611e87565b905060007f30644e72e131a029b85045b68181585d2833e84879b9709143e1f593f0000001600283604051611ad8919061452f565b602060405180830381855afa158015611af5573d6000803e3d6000fd5b5050506040513d601f19601f82011682018060405250810190611b189190614461565b611b22919061457a565b606c546040805160208101825283815290517f43753b4d00000000000000000000000000000000000000000000000000000000815292935073ffffffffffffffffffffffffffffffffffffffff909116916343753b4d91611b8c918991899189919060040161458e565b602060405180830381865afa158015611ba9573d6000803e3d6000fd5b505050506040513d601f19601f82011682018060405250810190611bcd9190614608565b611c3f5760405162461bcd60e51b815260206004820152603560248201527f50726f6f664f66456666696369656e63793a3a70726f6f66446966666572656e60448201527f7453746174653a20494e56414c49445f50524f4f46000000000000000000000060648201526084016107d3565b67ffffffffffffffff88166000908152606b6020526040902054869003611cf45760405162461bcd60e51b815260206004820152605960248201527f50726f6f664f66456666696369656e63793a3a70726f6f66446966666572656e60448201527f7453746174653a2073746f72656420726f6f74206d757374206265206469666660648201527f6572656e74207468616e206e657720737461746520726f6f7400000000000000608482015260a4016107d3565b67ffffffffffffffff88166000908152606b60209081526040918290205482519081529081018890527fe579d6d18f02941e1d0f59bff70f1b2c894edc991badab38343786df2846fe55910160405180910390a1611d506135d3565b505050505050505050565b60695468010000000000000000900473ffffffffffffffffffffffffffffffffffffffff163314611df45760405162461bcd60e51b815260206004820152603f60248201527f50726f6f664f66456666696369656e63793a3a6f6e6c7954727573746564536560448201527f7175656e6365723a206f6e6c7920747275737465642073657175656e6365720060648201526084016107d3565b606980547fffffffff0000000000000000000000000000000000000000ffffffffffffffff166801000000000000000073ffffffffffffffffffffffffffffffffffffffff8416908102919091179091556040519081527ff54144f9611984021529f814a1cb6a41e22c58351510a0d9f7e822618abb9cc09060200161084b565b611e7d61356c565b6109056000613776565b67ffffffffffffffff808516600081815260676020526040808220549387168252902054606092911580611eba57508115155b611f525760405162461bcd60e51b815260206004820152604560248201527f50726f6f664f66456666696369656e63793a3a676574496e707574536e61726b60448201527f42797465733a206f6c64416363496e7075744861736820646f6573206e6f742060648201527f6578697374000000000000000000000000000000000000000000000000000000608482015260a4016107d3565b80611feb5760405162461bcd60e51b815260206004820152604560248201527f50726f6f664f66456666696369656e63793a3a676574496e707574536e61726b60448201527f42797465733a206e6577416363496e7075744861736820646f6573206e6f742060648201527f6578697374000000000000000000000000000000000000000000000000000000608482015260a4016107d3565b67ffffffffffffffff87166000908152606b602090815260409182902054606e5492517fffffffffffffffffffffffffffffffffffffffff0000000000000000000000003360601b16928101929092526034820152605481018490527fffffffffffffffff00000000000000000000000000000000000000000000000060c08a811b8216607484015292831b8116607c8301526084820187905260a4820184905260c482018890529188901b90911660e482015260ec0160405160208183030381529060405292505050949350505050565b60685460009067ffffffffffffffff700100000000000000000000000000000000820481169161210c917801000000000000000000000000000000000000000000000000909104166001614625565b61211691906144b2565b6121329067ffffffffffffffff16670de0b6b3a76400006144f2565b905090565b60695468010000000000000000900473ffffffffffffffffffffffffffffffffffffffff1633146121d05760405162461bcd60e51b815260206004820152603f60248201527f50726f6f664f66456666696369656e63793a3a6f6e6c7954727573746564536560448201527f7175656e6365723a206f6e6c7920747275737465642073657175656e6365720060648201526084016107d3565b606980548215157c0100000000000000000000000000000000000000000000000000000000027fffffff00ffffffffffffffffffffffffffffffffffffffffffffffffffffffff9091161790556040517fbacda50a4a8575be1d91a7ebe29ee45056f3a94f12a2281eb6b43afa33bcefe69061084b90831515815260200190565b6065546040517f70a08231000000000000000000000000000000000000000000000000000000008152306004820152600091829161010090910473ffffffffffffffffffffffffffffffffffffffff16906370a0823190602401602060405180830381865afa1580156122c8573d6000803e3d6000fd5b505050506040513d601f19601f820116820180604052508101906122ec9190614461565b60695460685491925060009167ffffffffffffffff9182169168010000000000000000820481169161235191700100000000000000000000000000000000820481169178010000000000000000000000000000000000000000000000009004166144b2565b61235b9190614625565b61236591906144b2565b67ffffffffffffffff16905061237b8183614651565b9250505090565b60695468010000000000000000900473ffffffffffffffffffffffffffffffffffffffff16331461241b5760405162461bcd60e51b815260206004820152603f60248201527f50726f6f664f66456666696369656e63793a3a6f6e6c7954727573746564536560448201527f7175656e6365723a206f6e6c7920747275737465642073657175656e6365720060648201526084016107d3565b606d61242782826146b3565b507f6b8f723a4c7a5335cafae8a598a0aa0301be1387c037dccc085b62add6448b208160405161084b9190613d32565b600054610100900460ff16158080156124775750600054600160ff909116105b806124915750303b158015612491575060005460ff166001145b6125035760405162461bcd60e51b815260206004820152602e60248201527f496e697469616c697a61626c653a20636f6e747261637420697320616c72656160448201527f647920696e697469616c697a656400000000000000000000000000000000000060648201526084016107d3565b600080547fffffffffffffffffffffffffffffffffffffffffffffffffffffffffffffff00166001179055801561256157600080547fffffffffffffffffffffffffffffffffffffffffffffffffffffffffffff00ff166101001790555b606a80547fffffffffffffffffffffffff000000000000000000000000000000000000000090811673ffffffffffffffffffffffffffffffffffffffff8e811691909117909255606580547fffffffffffffffffffffff0000000000000000000000000000000000000000ff166101008e851602179055606c80549091168b831617905560008052606b6020527fc8cc8bda7ad4886bea3ebbdafa02e79d37c39bf4011696b26a31a0802fd9458b899055606980547fffffff000000000000000000000000000000000000000000ffffffffffffffff1668010000000000000000928a16929092027fffffff00ffffffffffffffffffffffffffffffffffffffffffffffffffffffff16919091177c010000000000000000000000000000000000000000000000000000000088151502179055606d6126a086826146b3565b50606e80547fffffffffffffffffffffffffffffffffffffffffffffffff00000000000000001667ffffffffffffffff8616179055606f6126e184826146b3565b50607180547fffffffffffffffffffffffff00000000000000000000000000000000000000001673ffffffffffffffffffffffffffffffffffffffff841617905561272a6137ed565b801561278d57600080547fffffffffffffffffffffffffffffffffffffffffffffffffffffffffffff00ff169055604051600181527f7f26b83ff96e1f2b6a682f133852f6798a09c465da95921460cefb38474024989060200160405180910390a15b5050505050505050505050565b60655460ff16156128395760405162461bcd60e51b815260206004820152604260248201527f456d657267656e63794d616e616765723a3a69664e6f74456d657267656e637960448201527f53746174653a206f6e6c79206966206e6f7420656d657267656e63792073746160648201527f7465000000000000000000000000000000000000000000000000000000000000608482015260a4016107d3565b6069547c0100000000000000000000000000000000000000000000000000000000900460ff1615156001146128fc5760405162461bcd60e51b815260206004820152604860248201527f50726f6f664f66456666696369656e63793a3a6973466f72636542617463684160448201527f6c6c6f7765643a206f6e6c7920696620666f726365206261746368206973206160648201527f7661696c61626c65000000000000000000000000000000000000000000000000608482015260a4016107d3565b8051806129975760405162461bcd60e51b815260206004820152604260248201527f50726f6f664f66456666696369656e63793a3a73657175656e6365466f72636560448201527f42617463683a204d75737420666f726365206174206c6561737420312062617460648201527f6368000000000000000000000000000000000000000000000000000000000000608482015260a4016107d3565b60685467ffffffffffffffff780100000000000000000000000000000000000000000000000082048116916129e29184917001000000000000000000000000000000009004166147af565b1115612a565760405162461bcd60e51b815260206004820152603a60248201527f50726f6f664f66456666696369656e63793a3a73657175656e6365466f72636560448201527f42617463683a20466f72636520626174636820696e76616c696400000000000060648201526084016107d3565b60685467ffffffffffffffff680100000000000000008204811660008181526067602052604081205491937001000000000000000000000000000000009004909216915b84811015612d6f576000868281518110612ab657612ab66143dc565b602002602001015190508380612acb9061443a565b825180516020918201208185015160408087015181519485019390935283015260c01b7fffffffffffffffff0000000000000000000000000000000000000000000000001660608201529095506000915060680160408051601f19818403018152918152815160209283012067ffffffffffffffff8816600090815260669093529120549091508114612bec5760405162461bcd60e51b815260206004820152604760248201527f50726f6f664f66456666696369656e63793a3a73657175656e6365466f72636560448201527f426174636865733a20466f7263656420626174636865732064617461206d757360648201527f74206d6174636800000000000000000000000000000000000000000000000000608482015260a4016107d3565b612bf76001886144db565b8303612cb5574262093a808360400151612c119190614625565b67ffffffffffffffff161115612cb55760405162461bcd60e51b815260206004820152604c60248201527f50726f6f664f66456666696369656e63793a3a73657175656e6365466f72636560448201527f42617463683a20466f72636564206261746368206973206e6f7420696e20746960648201527f6d656f757420706572696f640000000000000000000000000000000000000000608482015260a4016107d3565b8151805160209182012081840151604080519384018890528301919091526060808301919091524260c01b7fffffffffffffffff00000000000000000000000000000000000000000000000016608083015233901b7fffffffffffffffffffffffffffffffffffffffff000000000000000000000000166088820152609c016040516020818303038152906040528051906020012093508580612d579061443a565b96505050508080612d679061447a565b915050612a9a565b50606880544267ffffffffffffffff9081167fffffffffffffffffffffffffffffffff000000000000000000000000000000009092169190911768010000000000000000868316818102929092177fffffffffffffffff0000000000000000ffffffffffffffffffffffffffffffff1670010000000000000000000000000000000087851602178455600091825260676020526040808320869055935493519304909116917f648a61dd2438f072f5a1960939abd30f37aea80d2e94c9792ad142d3e0a490a49190a25050505050565b60655460ff1615612eb85760405162461bcd60e51b815260206004820152603b60248201527f456d657267656e63794d616e616765723a3a6966456d657267656e637953746160448201527f74653a206f6e6c7920696620656d657267656e6379207374617465000000000060648201526084016107d3565b60705473ffffffffffffffffffffffffffffffffffffffff163314612f455760405162461bcd60e51b815260206004820152603d60248201527f50726f6f664f66456666696369656e63793a3a6f6e6c7953656375726974794360448201527f6f756e63696c3a206f6e6c7920736563757269747920636f756e63696c00000060648201526084016107d3565b607160009054906101000a900473ffffffffffffffffffffffffffffffffffffffff1673ffffffffffffffffffffffffffffffffffffffff1663dbc169766040518163ffffffff1660e01b8152600401600060405180830381600087803b158015612faf57600080fd5b505af1158015612fc3573d6000803e3d6000fd5b50505050610905613873565b60655460ff161561306e5760405162461bcd60e51b815260206004820152604260248201527f456d657267656e63794d616e616765723a3a69664e6f74456d657267656e637960448201527f53746174653a206f6e6c79206966206e6f7420656d657267656e63792073746160648201527f7465000000000000000000000000000000000000000000000000000000000000608482015260a4016107d3565b6069547c0100000000000000000000000000000000000000000000000000000000900460ff1615156001146131315760405162461bcd60e51b815260206004820152604860248201527f50726f6f664f66456666696369656e63793a3a6973466f72636542617463684160448201527f6c6c6f7765643a206f6e6c7920696620666f726365206261746368206973206160648201527f7661696c61626c65000000000000000000000000000000000000000000000000608482015260a4016107d3565b600061313b6120bd565b9050818111156131b35760405162461bcd60e51b815260206004820152602f60248201527f50726f6f664f66456666696369656e63793a3a666f72636542617463683a206e60448201527f6f7420656e6f756768206d61746963000000000000000000000000000000000060648201526084016107d3565b61ea6083511061322b5760405162461bcd60e51b815260206004820152603a60248201527f50726f6f664f66456666696369656e63793a3a666f72636542617463683a205460448201527f72616e73616374696f6e73206279746573206f766572666c6f7700000000000060648201526084016107d3565b60655461325590610100900473ffffffffffffffffffffffffffffffffffffffff1633308461365d565b606a54604080517f3ed691ef000000000000000000000000000000000000000000000000000000008152905160009273ffffffffffffffffffffffffffffffffffffffff1691633ed691ef9160048083019260209291908290030181865afa1580156132c5573d6000803e3d6000fd5b505050506040513d601f19601f820116820180604052508101906132e99190614461565b60688054919250780100000000000000000000000000000000000000000000000090910467ffffffffffffffff169060186133238361443a565b91906101000a81548167ffffffffffffffff021916908367ffffffffffffffff160217905550508380519060200120814260405160200161339c93929190928352602083019190915260c01b7fffffffffffffffff00000000000000000000000000000000000000000000000016604082015260480190565b60408051808303601f1901815291815281516020928301206068547801000000000000000000000000000000000000000000000000900467ffffffffffffffff166000908152606690935291205532330361346c57606854604080518381523360208201526060918101829052600091810191909152780100000000000000000000000000000000000000000000000090910467ffffffffffffffff16907ff94bb37db835f1ab585ee00041849a09b12cd081d77fa15ca070757619cbc9319060800160405180910390a26134c9565b606860189054906101000a900467ffffffffffffffff1667ffffffffffffffff167ff94bb37db835f1ab585ee00041849a09b12cd081d77fa15ca070757619cbc9318233876040516134c0939291906147c7565b60405180910390a25b50505050565b6134d761356c565b73ffffffffffffffffffffffffffffffffffffffff81166135605760405162461bcd60e51b815260206004820152602660248201527f4f776e61626c653a206e6577206f776e657220697320746865207a65726f206160448201527f646472657373000000000000000000000000000000000000000000000000000060648201526084016107d3565b61356981613776565b50565b60335473ffffffffffffffffffffffffffffffffffffffff1633146109055760405162461bcd60e51b815260206004820181905260248201527f4f776e61626c653a2063616c6c6572206973206e6f7420746865206f776e657260448201526064016107d3565b607160009054906101000a900473ffffffffffffffffffffffffffffffffffffffff1673ffffffffffffffffffffffffffffffffffffffff16632072f6c56040518163ffffffff1660e01b8152600401600060405180830381600087803b15801561363d57600080fd5b505af1158015613651573d6000803e3d6000fd5b5050505061090561393f565b60405173ffffffffffffffffffffffffffffffffffffffff808516602483015283166044820152606481018290526134c99085907f23b872dd00000000000000000000000000000000000000000000000000000000906084015b60408051601f198184030181529190526020810180517bffffffffffffffffffffffffffffffffffffffffffffffffffffffff167fffffffff0000000000000000000000000000000000000000000000000000000090931692909217909152613a34565b60405173ffffffffffffffffffffffffffffffffffffffff83166024820152604481018290526137719084907fa9059cbb00000000000000000000000000000000000000000000000000000000906064016136b7565b505050565b6033805473ffffffffffffffffffffffffffffffffffffffff8381167fffffffffffffffffffffffff0000000000000000000000000000000000000000831681179093556040519116919082907f8be0079c531659141344cd1fd0a4f28419497f9722a3daafe3b4186f6b6457e090600090a35050565b600054610100900460ff1661386a5760405162461bcd60e51b815260206004820152602b60248201527f496e697469616c697a61626c653a20636f6e7472616374206973206e6f74206960448201527f6e697469616c697a696e6700000000000000000000000000000000000000000060648201526084016107d3565b61090533613776565b60655460ff16156138ec5760405162461bcd60e51b815260206004820152603b60248201527f456d657267656e63794d616e616765723a3a6966456d657267656e637953746160448201527f74653a206f6e6c7920696620656d657267656e6379207374617465000000000060648201526084016107d3565b606580547fffffffffffffffffffffffffffffffffffffffffffffffffffffffffffffff001690556040517f1e5e34eea33501aecf2ebec9fe0e884a40804275ea7fe10b2ba084c8374308b390600090a1565b60655460ff16156139de5760405162461bcd60e51b815260206004820152604260248201527f456d657267656e63794d616e616765723a3a69664e6f74456d657267656e637960448201527f53746174653a206f6e6c79206966206e6f7420656d657267656e63792073746160648201527f7465000000000000000000000000000000000000000000000000000000000000608482015260a4016107d3565b606580547fffffffffffffffffffffffffffffffffffffffffffffffffffffffffffffff001660011790556040517f2261efe5aef6fedc1fd1550b25facc9181745623049c7901287030b9ad1a549790600090a1565b6000613a96826040518060400160405280602081526020017f5361666545524332303a206c6f772d6c6576656c2063616c6c206661696c65648152508573ffffffffffffffffffffffffffffffffffffffff16613b269092919063ffffffff16565b8051909150156137715780806020019051810190613ab49190614608565b6137715760405162461bcd60e51b815260206004820152602a60248201527f5361666545524332303a204552433230206f7065726174696f6e20646964206e60448201527f6f7420737563636565640000000000000000000000000000000000000000000060648201526084016107d3565b6060613b358484600085613b3f565b90505b9392505050565b606082471015613bb75760405162461bcd60e51b815260206004820152602660248201527f416464726573733a20696e73756666696369656e742062616c616e636520666f60448201527f722063616c6c000000000000000000000000000000000000000000000000000060648201526084016107d3565b73ffffffffffffffffffffffffffffffffffffffff85163b613c1b5760405162461bcd60e51b815260206004820152601d60248201527f416464726573733a2063616c6c20746f206e6f6e2d636f6e747261637400000060448201526064016107d3565b6000808673ffffffffffffffffffffffffffffffffffffffff168587604051613c44919061452f565b60006040518083038185875af1925050503d8060008114613c81576040519150601f19603f3d011682016040523d82523d6000602084013e613c86565b606091505b5091509150613c96828286613ca1565b979650505050505050565b60608315613cb0575081613b38565b825115613cc05782518084602001fd5b8160405162461bcd60e51b81526004016107d39190613d32565b60005b83811015613cf5578181015183820152602001613cdd565b838111156134c95750506000910152565b60008151808452613d1e816020860160208601613cda565b601f01601f19169290920160200192915050565b602081526000613b386020830184613d06565b73ffffffffffffffffffffffffffffffffffffffff8116811461356957600080fd5b8035613d7281613d45565b919050565b600060208284031215613d8957600080fd5b8135613b3881613d45565b7f4e487b7100000000000000000000000000000000000000000000000000000000600052604160045260246000fd5b6040516080810167ffffffffffffffff81118282101715613de657613de6613d94565b60405290565b6040516060810167ffffffffffffffff81118282101715613de657613de6613d94565b604051601f8201601f1916810167ffffffffffffffff81118282101715613e3857613e38613d94565b604052919050565b600067ffffffffffffffff821115613e5a57613e5a613d94565b5060051b60200190565b600082601f830112613e7557600080fd5b813567ffffffffffffffff811115613e8f57613e8f613d94565b613ea26020601f19601f84011601613e0f565b818152846020838601011115613eb757600080fd5b816020850160208301376000918101602001919091529392505050565b803567ffffffffffffffff81168114613d7257600080fd5b60006020808385031215613eff57600080fd5b823567ffffffffffffffff80821115613f1757600080fd5b818501915085601f830112613f2b57600080fd5b8135613f3e613f3982613e40565b613e0f565b81815260059190911b83018401908481019088831115613f5d57600080fd5b8585015b83811015613ff657803585811115613f795760008081fd5b86016080818c03601f1901811315613f915760008081fd5b613f99613dc3565b8983013588811115613fab5760008081fd5b613fb98e8c83870101613e64565b8252506040808401358b8301526060613fd3818601613ed4565b82840152613fe2848601613ed4565b908301525085525050918601918601613f61565b5098975050505050505050565b60006020828403121561401557600080fd5b613b3882613ed4565b806040810183101561402f57600080fd5b92915050565b6000806000806000806000610180888a03121561405157600080fd5b61405a88613ed4565b965061406860208901613ed4565b955060408801359450606088013593506140858960808a0161401e565b925061014088018981111561409957600080fd5b60c0890192506140a98a8261401e565b91505092959891949750929550565b600080600080608085870312156140ce57600080fd5b6140d785613ed4565b93506140e560208601613ed4565b93969395505050506040820135916060013590565b801515811461356957600080fd5b8035613d72816140fa565b60006020828403121561412557600080fd5b8135613b38816140fa565b60006020828403121561414257600080fd5b813567ffffffffffffffff81111561415957600080fd5b61416584828501613e64565b949350505050565b6000806000806000806000806000806101408b8d03121561418d57600080fd5b6141968b613d67565b99506141a460208c01613d67565b98506141b260408c01613d67565b975060608b013596506141c760808c01613d67565b95506141d560a08c01614108565b945060c08b013567ffffffffffffffff808211156141f257600080fd5b6141fe8e838f01613e64565b955061420c60e08e01613ed4565b94506101008d013591508082111561422357600080fd5b506142308d828e01613e64565b9250506142406101208c01613d67565b90509295989b9194979a5092959850565b6000602080838503121561426457600080fd5b823567ffffffffffffffff8082111561427c57600080fd5b818501915085601f83011261429057600080fd5b813561429e613f3982613e40565b81815260059190911b830184019084810190888311156142bd57600080fd5b8585015b83811015613ff6578035858111156142d95760008081fd5b86016060818c03601f19018113156142f15760008081fd5b6142f9613dec565b898301358881111561430b5760008081fd5b6143198e8c83870101613e64565b8252506040808401358b830152614331838501613ed4565b90820152855250509186019186016142c1565b6000806040838503121561435757600080fd5b823567ffffffffffffffff81111561436e57600080fd5b61437a85828601613e64565b95602094909401359450505050565b600181811c9082168061439d57607f821691505b6020821081036143d6577f4e487b7100000000000000000000000000000000000000000000000000000000600052602260045260246000fd5b50919050565b7f4e487b7100000000000000000000000000000000000000000000000000000000600052603260045260246000fd5b7f4e487b7100000000000000000000000000000000000000000000000000000000600052601160045260246000fd5b600067ffffffffffffffff8083168181036144575761445761440b565b6001019392505050565b60006020828403121561447357600080fd5b5051919050565b60007fffffffffffffffffffffffffffffffffffffffffffffffffffffffffffffffff82036144ab576144ab61440b565b5060010190565b600067ffffffffffffffff838116908316818110156144d3576144d361440b565b039392505050565b6000828210156144ed576144ed61440b565b500390565b6000817fffffffffffffffffffffffffffffffffffffffffffffffffffffffffffffffff048311821515161561452a5761452a61440b565b500290565b60008251614541818460208701613cda565b9190910192915050565b7f4e487b7100000000000000000000000000000000000000000000000000000000600052601260045260246000fd5b6000826145895761458961454b565b500690565b61012081016040808784376000838201818152879190815b60028110156145c6578484833790840182815292840192906001016145a6565b5050828760c0870137610100850181815286935091505b60018110156145fc5782518252602092830192909101906001016145dd565b50505095945050505050565b60006020828403121561461a57600080fd5b8151613b38816140fa565b600067ffffffffffffffff8083168185168083038211156146485761464861440b565b01949350505050565b6000826146605761466061454b565b500490565b601f82111561377157600081815260208120601f850160051c8101602086101561468c5750805b601f850160051c820191505b818110156146ab57828155600101614698565b505050505050565b815167ffffffffffffffff8111156146cd576146cd613d94565b6146e1816146db8454614389565b84614665565b602080601f83116001811461473457600084156146fe5750858301515b7fffffffffffffffffffffffffffffffffffffffffffffffffffffffffffffffff600386901b1c1916600185901b1785556146ab565b600085815260208120601f198616915b8281101561476357888601518255948401946001909101908401614744565b508582101561479f57878501517fffffffffffffffffffffffffffffffffffffffffffffffffffffffffffffffff600388901b60f8161c191681555b5050505050600190811b01905550565b600082198211156147c2576147c261440b565b500190565b83815273ffffffffffffffffffffffffffffffffffffffff831660208201526060604082015260006147fc6060830184613d06565b9594505050505056fea2646970667358221220459c0629eb0008b4daf59e555a322fe762cb05b1da8712377c085651a8bff70664736f6c634300080f0033",
  "linkReferences": {},
  "deployedLinkReferences": {}
}