{
  "_format": "hh-sol-artifact-1",
  "contractName": "ProofOfEfficiencyMock",
  "sourceName": "contracts/mocks/ProofOfEfficiencyMock.sol",
  "abi": [
    {
      "anonymous": false,
      "inputs": [
        {
          "indexed": true,
          "internalType": "uint64",
          "name": "numBatch",
          "type": "uint64"
        },
        {
          "indexed": false,
          "internalType": "bytes32",
          "name": "stateRoot",
          "type": "bytes32"
        },
        {
          "indexed": true,
          "internalType": "address",
          "name": "aggregator",
          "type": "address"
        }
      ],
      "name": "ConsolidatePendingState",
      "type": "event"
    },
    {
      "anonymous": false,
      "inputs": [],
      "name": "EmergencyStateActivated",
      "type": "event"
    },
    {
      "anonymous": false,
      "inputs": [],
      "name": "EmergencyStateDeactivated",
      "type": "event"
    },
    {
      "anonymous": false,
      "inputs": [
        {
          "indexed": true,
          "internalType": "uint64",
          "name": "forceBatchNum",
          "type": "uint64"
        },
        {
          "indexed": false,
          "internalType": "bytes32",
          "name": "lastGlobalExitRoot",
          "type": "bytes32"
        },
        {
          "indexed": false,
          "internalType": "address",
          "name": "sequencer",
          "type": "address"
        },
        {
          "indexed": false,
          "internalType": "bytes",
          "name": "transactions",
          "type": "bytes"
        }
      ],
      "name": "ForceBatch",
      "type": "event"
    },
    {
      "anonymous": false,
      "inputs": [
        {
          "indexed": false,
          "internalType": "uint8",
          "name": "version",
          "type": "uint8"
        }
      ],
      "name": "Initialized",
      "type": "event"
    },
    {
      "anonymous": false,
      "inputs": [
        {
          "indexed": true,
          "internalType": "address",
          "name": "previousOwner",
          "type": "address"
        },
        {
          "indexed": true,
          "internalType": "address",
          "name": "newOwner",
          "type": "address"
        }
      ],
      "name": "OwnershipTransferred",
      "type": "event"
    },
    {
      "anonymous": false,
      "inputs": [
        {
          "indexed": false,
          "internalType": "bytes32",
          "name": "storedStateRoot",
          "type": "bytes32"
        },
        {
          "indexed": false,
          "internalType": "bytes32",
          "name": "provedStateRoot",
          "type": "bytes32"
        }
      ],
      "name": "ProveNonDeterministicState",
      "type": "event"
    },
    {
      "anonymous": false,
      "inputs": [
        {
          "indexed": true,
          "internalType": "uint64",
          "name": "numBatch",
          "type": "uint64"
        }
      ],
      "name": "SequenceBatches",
      "type": "event"
    },
    {
      "anonymous": false,
      "inputs": [
        {
          "indexed": true,
          "internalType": "uint64",
          "name": "numBatch",
          "type": "uint64"
        }
      ],
      "name": "SequenceForceBatches",
      "type": "event"
    },
    {
      "anonymous": false,
      "inputs": [
        {
          "indexed": false,
          "internalType": "address",
          "name": "newAdmin",
          "type": "address"
        }
      ],
      "name": "SetAdmin",
      "type": "event"
    },
    {
      "anonymous": false,
      "inputs": [
        {
          "indexed": false,
          "internalType": "bool",
          "name": "newForceBatchAllowed",
          "type": "bool"
        }
      ],
      "name": "SetForceBatchAllowed",
      "type": "event"
    },
    {
      "anonymous": false,
      "inputs": [
        {
          "indexed": false,
          "internalType": "address",
          "name": "newTrustedAggregator",
          "type": "address"
        }
      ],
      "name": "SetTrustedAggregator",
      "type": "event"
    },
    {
      "anonymous": false,
      "inputs": [
        {
          "indexed": false,
          "internalType": "uint64",
          "name": "newTrustedAggregatorTimeout",
          "type": "uint64"
        }
      ],
      "name": "SetTrustedAggregatorTimeout",
      "type": "event"
    },
    {
      "anonymous": false,
      "inputs": [
        {
          "indexed": false,
          "internalType": "address",
          "name": "newTrustedSequencer",
          "type": "address"
        }
      ],
      "name": "SetTrustedSequencer",
      "type": "event"
    },
    {
      "anonymous": false,
      "inputs": [
        {
          "indexed": false,
          "internalType": "string",
          "name": "newTrustedSequencerURL",
          "type": "string"
        }
      ],
      "name": "SetTrustedSequencerURL",
      "type": "event"
    },
    {
      "anonymous": false,
      "inputs": [
        {
          "indexed": true,
          "internalType": "uint64",
          "name": "numBatch",
          "type": "uint64"
        },
        {
          "indexed": false,
          "internalType": "bytes32",
          "name": "stateRoot",
          "type": "bytes32"
        },
        {
          "indexed": true,
          "internalType": "address",
          "name": "aggregator",
          "type": "address"
        }
      ],
      "name": "TrustedVerifyBatches",
      "type": "event"
    },
    {
      "anonymous": false,
      "inputs": [
        {
          "indexed": true,
          "internalType": "uint64",
          "name": "numBatch",
          "type": "uint64"
        },
        {
          "indexed": false,
          "internalType": "bytes32",
          "name": "stateRoot",
          "type": "bytes32"
        },
        {
          "indexed": true,
          "internalType": "address",
          "name": "aggregator",
          "type": "address"
        }
      ],
      "name": "VerifyBatches",
      "type": "event"
    },
    {
      "inputs": [],
      "name": "FORCE_BATCH_TIMEOUT",
      "outputs": [
        {
          "internalType": "uint64",
          "name": "",
          "type": "uint64"
        }
      ],
      "stateMutability": "view",
      "type": "function"
    },
    {
      "inputs": [],
      "name": "HALT_AGGREGATION_TIMEOUT",
      "outputs": [
        {
          "internalType": "uint64",
          "name": "",
          "type": "uint64"
        }
      ],
      "stateMutability": "view",
      "type": "function"
    },
    {
      "inputs": [],
      "name": "MAX_BATCH_LENGTH",
      "outputs": [
        {
          "internalType": "uint256",
          "name": "",
          "type": "uint256"
        }
      ],
      "stateMutability": "view",
      "type": "function"
    },
    {
      "inputs": [],
      "name": "MAX_TRUSTED_AGGREGATOR_TIMEOUT",
      "outputs": [
        {
          "internalType": "uint64",
          "name": "",
          "type": "uint64"
        }
      ],
      "stateMutability": "view",
      "type": "function"
    },
    {
      "inputs": [
        {
          "internalType": "uint64",
          "name": "sequencedBatchNum",
          "type": "uint64"
        }
      ],
      "name": "activateEmergencyState",
      "outputs": [],
      "stateMutability": "nonpayable",
      "type": "function"
    },
    {
      "inputs": [],
      "name": "admin",
      "outputs": [
        {
          "internalType": "address",
          "name": "",
          "type": "address"
        }
      ],
      "stateMutability": "view",
      "type": "function"
    },
    {
      "inputs": [
        {
          "internalType": "uint64",
          "name": "",
          "type": "uint64"
        }
      ],
      "name": "batchNumToStateRoot",
      "outputs": [
        {
          "internalType": "bytes32",
          "name": "",
          "type": "bytes32"
        }
      ],
      "stateMutability": "view",
      "type": "function"
    },
    {
      "inputs": [],
      "name": "bridgeAddress",
      "outputs": [
        {
          "internalType": "contract IBridge",
          "name": "",
          "type": "address"
        }
      ],
      "stateMutability": "view",
      "type": "function"
    },
    {
      "inputs": [
        {
          "internalType": "bytes32",
          "name": "currentAccInputHash",
          "type": "bytes32"
        },
        {
          "internalType": "bytes",
          "name": "transactions",
          "type": "bytes"
        },
        {
          "internalType": "bytes32",
          "name": "globalExitRoot",
          "type": "bytes32"
        },
        {
          "internalType": "uint64",
          "name": "timestamp",
          "type": "uint64"
        },
        {
          "internalType": "address",
          "name": "sequencerAddress",
          "type": "address"
        }
      ],
      "name": "calculateAccInputHash",
      "outputs": [
        {
          "internalType": "bytes32",
          "name": "",
          "type": "bytes32"
        }
      ],
      "stateMutability": "pure",
      "type": "function"
    },
    {
      "inputs": [],
      "name": "calculateBatchFee",
      "outputs": [
        {
          "internalType": "uint256",
          "name": "",
          "type": "uint256"
        }
      ],
      "stateMutability": "view",
      "type": "function"
    },
    {
      "inputs": [],
      "name": "calculateRewardPerBatch",
      "outputs": [
        {
          "internalType": "uint256",
          "name": "",
          "type": "uint256"
        }
      ],
      "stateMutability": "view",
      "type": "function"
    },
    {
      "inputs": [],
      "name": "chainID",
      "outputs": [
        {
          "internalType": "uint64",
          "name": "",
          "type": "uint64"
        }
      ],
      "stateMutability": "view",
      "type": "function"
    },
    {
      "inputs": [
        {
          "internalType": "uint64",
          "name": "pendingStateNum",
          "type": "uint64"
        }
      ],
      "name": "consolidatePendingState",
      "outputs": [],
      "stateMutability": "nonpayable",
      "type": "function"
    },
    {
      "inputs": [],
      "name": "deactivateEmergencyState",
      "outputs": [],
      "stateMutability": "nonpayable",
      "type": "function"
    },
    {
      "inputs": [
        {
          "internalType": "bytes",
          "name": "transactions",
          "type": "bytes"
        },
        {
          "internalType": "uint256",
          "name": "maticAmount",
          "type": "uint256"
        }
      ],
      "name": "forceBatch",
      "outputs": [],
      "stateMutability": "nonpayable",
      "type": "function"
    },
    {
      "inputs": [],
      "name": "forceBatchAllowed",
      "outputs": [
        {
          "internalType": "bool",
          "name": "",
          "type": "bool"
        }
      ],
      "stateMutability": "view",
      "type": "function"
    },
    {
      "inputs": [
        {
          "internalType": "uint64",
          "name": "",
          "type": "uint64"
        }
      ],
      "name": "forcedBatches",
      "outputs": [
        {
          "internalType": "bytes32",
          "name": "",
          "type": "bytes32"
        }
      ],
      "stateMutability": "view",
      "type": "function"
    },
    {
      "inputs": [
        {
          "internalType": "uint64",
          "name": "initNumBatch",
          "type": "uint64"
        },
        {
          "internalType": "uint64",
          "name": "finalNewBatch",
          "type": "uint64"
        },
        {
          "internalType": "bytes32",
          "name": "newLocalExitRoot",
          "type": "bytes32"
        },
        {
          "internalType": "bytes32",
          "name": "oldStateRoot",
          "type": "bytes32"
        },
        {
          "internalType": "bytes32",
          "name": "newStateRoot",
          "type": "bytes32"
        }
      ],
      "name": "getInputSnarkBytes",
      "outputs": [
        {
          "internalType": "bytes",
          "name": "",
          "type": "bytes"
        }
      ],
      "stateMutability": "view",
      "type": "function"
    },
    {
      "inputs": [
        {
          "internalType": "uint64",
          "name": "pendingStateNum",
          "type": "uint64"
        },
        {
          "internalType": "uint64",
          "name": "initNumBatch",
          "type": "uint64"
        },
        {
          "internalType": "uint64",
          "name": "finalNewBatch",
          "type": "uint64"
        },
        {
          "internalType": "bytes32",
          "name": "newLocalExitRoot",
          "type": "bytes32"
        },
        {
          "internalType": "bytes32",
          "name": "newStateRoot",
          "type": "bytes32"
        }
      ],
      "name": "getNextSnarkInput",
      "outputs": [
        {
          "internalType": "uint256",
          "name": "",
          "type": "uint256"
        }
      ],
      "stateMutability": "view",
      "type": "function"
    },
    {
      "inputs": [],
      "name": "globalExitRootManager",
      "outputs": [
        {
          "internalType": "contract IGlobalExitRootManager",
          "name": "",
          "type": "address"
        }
      ],
      "stateMutability": "view",
      "type": "function"
    },
    {
      "inputs": [
        {
          "internalType": "contract IGlobalExitRootManager",
          "name": "_globalExitRootManager",
          "type": "address"
        },
        {
          "internalType": "contract IERC20Upgradeable",
          "name": "_matic",
          "type": "address"
        },
        {
          "internalType": "contract IVerifierRollup",
          "name": "_rollupVerifier",
          "type": "address"
        },
        {
          "internalType": "contract IBridge",
          "name": "_bridgeAddress",
          "type": "address"
        },
        {
          "components": [
            {
              "internalType": "address",
              "name": "_admin",
              "type": "address"
            },
            {
              "internalType": "uint64",
              "name": "_chainID",
              "type": "uint64"
            },
            {
              "internalType": "address",
              "name": "_trustedSequencer",
              "type": "address"
            },
            {
              "internalType": "bool",
              "name": "_forceBatchAllowed",
              "type": "bool"
            },
            {
              "internalType": "address",
              "name": "_trustedAggregator",
              "type": "address"
            },
            {
              "internalType": "uint64",
              "name": "_trustedAggregatorTimeout",
              "type": "uint64"
            }
          ],
          "internalType": "struct ProofOfEfficiency.InitializePackedParameters",
          "name": "initializePackedParameters",
          "type": "tuple"
        },
        {
          "internalType": "bytes32",
          "name": "genesisRoot",
          "type": "bytes32"
        },
        {
          "internalType": "string",
          "name": "_trustedSequencerURL",
          "type": "string"
        },
        {
          "internalType": "string",
          "name": "_networkName",
          "type": "string"
        }
      ],
      "name": "initialize",
      "outputs": [],
      "stateMutability": "nonpayable",
      "type": "function"
    },
    {
      "inputs": [],
      "name": "isEmergencyState",
      "outputs": [
        {
          "internalType": "bool",
          "name": "",
          "type": "bool"
        }
      ],
      "stateMutability": "view",
      "type": "function"
    },
    {
      "inputs": [],
      "name": "lastBatchSequenced",
      "outputs": [
        {
          "internalType": "uint64",
          "name": "",
          "type": "uint64"
        }
      ],
      "stateMutability": "view",
      "type": "function"
    },
    {
      "inputs": [],
      "name": "lastForceBatch",
      "outputs": [
        {
          "internalType": "uint64",
          "name": "",
          "type": "uint64"
        }
      ],
      "stateMutability": "view",
      "type": "function"
    },
    {
      "inputs": [],
      "name": "lastForceBatchSequenced",
      "outputs": [
        {
          "internalType": "uint64",
          "name": "",
          "type": "uint64"
        }
      ],
      "stateMutability": "view",
      "type": "function"
    },
    {
      "inputs": [],
      "name": "lastPendingState",
      "outputs": [
        {
          "internalType": "uint64",
          "name": "",
          "type": "uint64"
        }
      ],
      "stateMutability": "view",
      "type": "function"
    },
    {
      "inputs": [],
      "name": "lastPendingStateConsolidated",
      "outputs": [
        {
          "internalType": "uint64",
          "name": "",
          "type": "uint64"
        }
      ],
      "stateMutability": "view",
      "type": "function"
    },
    {
      "inputs": [],
      "name": "lastTimestamp",
      "outputs": [
        {
          "internalType": "uint64",
          "name": "",
          "type": "uint64"
        }
      ],
      "stateMutability": "view",
      "type": "function"
    },
    {
      "inputs": [],
      "name": "lastVerifiedBatch",
      "outputs": [
        {
          "internalType": "uint64",
          "name": "",
          "type": "uint64"
        }
      ],
      "stateMutability": "view",
      "type": "function"
    },
    {
      "inputs": [],
      "name": "matic",
      "outputs": [
        {
          "internalType": "contract IERC20Upgradeable",
          "name": "",
          "type": "address"
        }
      ],
      "stateMutability": "view",
      "type": "function"
    },
    {
      "inputs": [],
      "name": "networkName",
      "outputs": [
        {
          "internalType": "string",
          "name": "",
          "type": "string"
        }
      ],
      "stateMutability": "view",
      "type": "function"
    },
    {
      "inputs": [],
      "name": "owner",
      "outputs": [
        {
          "internalType": "address",
          "name": "",
          "type": "address"
        }
      ],
      "stateMutability": "view",
      "type": "function"
    },
    {
      "inputs": [],
      "name": "pendingStateTimeout",
      "outputs": [
        {
          "internalType": "uint64",
          "name": "",
          "type": "uint64"
        }
      ],
      "stateMutability": "view",
      "type": "function"
    },
    {
      "inputs": [
        {
          "internalType": "uint256",
          "name": "",
          "type": "uint256"
        }
      ],
      "name": "pendingStateTransitions",
      "outputs": [
        {
          "internalType": "uint64",
          "name": "timestamp",
          "type": "uint64"
        },
        {
          "internalType": "uint64",
          "name": "lastVerifiedBatch",
          "type": "uint64"
        },
        {
          "internalType": "bytes32",
          "name": "exitRoot",
          "type": "bytes32"
        },
        {
          "internalType": "bytes32",
          "name": "stateRoot",
          "type": "bytes32"
        }
      ],
      "stateMutability": "view",
      "type": "function"
    },
    {
      "inputs": [
        {
          "internalType": "uint64",
          "name": "initPendingStateNum",
          "type": "uint64"
        },
        {
          "internalType": "uint64",
          "name": "finalPendingStateNum",
          "type": "uint64"
        },
        {
          "internalType": "uint64",
          "name": "initNumBatch",
          "type": "uint64"
        },
        {
          "internalType": "uint64",
          "name": "finalNewBatch",
          "type": "uint64"
        },
        {
          "internalType": "bytes32",
          "name": "newLocalExitRoot",
          "type": "bytes32"
        },
        {
          "internalType": "bytes32",
          "name": "newStateRoot",
          "type": "bytes32"
        },
        {
          "internalType": "uint256[2]",
          "name": "proofA",
          "type": "uint256[2]"
        },
        {
          "internalType": "uint256[2][2]",
          "name": "proofB",
          "type": "uint256[2][2]"
        },
        {
          "internalType": "uint256[2]",
          "name": "proofC",
          "type": "uint256[2]"
        }
      ],
      "name": "proveNonDeterministicPendingState",
      "outputs": [],
      "stateMutability": "nonpayable",
      "type": "function"
    },
    {
      "inputs": [],
      "name": "renounceOwnership",
      "outputs": [],
      "stateMutability": "nonpayable",
      "type": "function"
    },
    {
      "inputs": [],
      "name": "rollupVerifier",
      "outputs": [
        {
          "internalType": "contract IVerifierRollup",
          "name": "",
          "type": "address"
        }
      ],
      "stateMutability": "view",
      "type": "function"
    },
    {
      "inputs": [
        {
          "components": [
            {
              "internalType": "bytes",
              "name": "transactions",
              "type": "bytes"
            },
            {
              "internalType": "bytes32",
              "name": "globalExitRoot",
              "type": "bytes32"
            },
            {
              "internalType": "uint64",
              "name": "timestamp",
              "type": "uint64"
            },
            {
              "internalType": "uint64",
              "name": "minForcedTimestamp",
              "type": "uint64"
            }
          ],
          "internalType": "struct ProofOfEfficiency.BatchData[]",
          "name": "batches",
          "type": "tuple[]"
        }
      ],
      "name": "sequenceBatches",
      "outputs": [],
      "stateMutability": "nonpayable",
      "type": "function"
    },
    {
      "inputs": [
        {
          "components": [
            {
              "internalType": "bytes",
              "name": "transactions",
              "type": "bytes"
            },
            {
              "internalType": "bytes32",
              "name": "globalExitRoot",
              "type": "bytes32"
            },
            {
              "internalType": "uint64",
              "name": "minForcedTimestamp",
              "type": "uint64"
            }
          ],
          "internalType": "struct ProofOfEfficiency.ForcedBatchData[]",
          "name": "batches",
          "type": "tuple[]"
        }
      ],
      "name": "sequenceForceBatches",
      "outputs": [],
      "stateMutability": "nonpayable",
      "type": "function"
    },
    {
      "inputs": [
        {
          "internalType": "uint64",
          "name": "",
          "type": "uint64"
        }
      ],
      "name": "sequencedBatches",
      "outputs": [
        {
          "internalType": "bytes32",
          "name": "accInputHash",
          "type": "bytes32"
        },
        {
          "internalType": "uint64",
          "name": "sequencedTimestamp",
          "type": "uint64"
        }
      ],
      "stateMutability": "view",
      "type": "function"
    },
    {
      "inputs": [
        {
          "internalType": "address",
          "name": "newAdmin",
          "type": "address"
        }
      ],
      "name": "setAdmin",
      "outputs": [],
      "stateMutability": "nonpayable",
      "type": "function"
    },
    {
      "inputs": [
        {
          "internalType": "bool",
          "name": "newForceBatchAllowed",
          "type": "bool"
        }
      ],
      "name": "setForceBatchAllowed",
      "outputs": [],
      "stateMutability": "nonpayable",
      "type": "function"
    },
    {
      "inputs": [
        {
          "internalType": "string",
          "name": "_networkName",
          "type": "string"
        }
      ],
      "name": "setNetworkName",
      "outputs": [],
      "stateMutability": "nonpayable",
      "type": "function"
    },
    {
      "inputs": [
        {
          "internalType": "uint64",
          "name": "_numBatch",
          "type": "uint64"
        }
      ],
      "name": "setSequencedBatch",
      "outputs": [],
      "stateMutability": "nonpayable",
      "type": "function"
    },
    {
      "inputs": [
        {
          "internalType": "uint64",
          "name": "batchNum",
          "type": "uint64"
        },
        {
          "internalType": "bytes32",
          "name": "accInputData",
          "type": "bytes32"
        },
        {
          "internalType": "uint64",
          "name": "timestamp",
          "type": "uint64"
        }
      ],
      "name": "setSequencedBatches",
      "outputs": [],
      "stateMutability": "nonpayable",
      "type": "function"
    },
    {
      "inputs": [
        {
          "internalType": "bytes32",
          "name": "newStateRoot",
          "type": "bytes32"
        },
        {
          "internalType": "uint64",
          "name": "batchNum",
          "type": "uint64"
        }
      ],
      "name": "setStateRoot",
      "outputs": [],
      "stateMutability": "nonpayable",
      "type": "function"
    },
    {
      "inputs": [
        {
          "internalType": "address",
          "name": "newTrustedAggregator",
          "type": "address"
        }
      ],
      "name": "setTrustedAggregator",
      "outputs": [],
      "stateMutability": "nonpayable",
      "type": "function"
    },
    {
      "inputs": [
        {
          "internalType": "uint64",
          "name": "newTrustedAggregatorTimeout",
          "type": "uint64"
        }
      ],
      "name": "setTrustedAggregatorTimeout",
      "outputs": [],
      "stateMutability": "nonpayable",
      "type": "function"
    },
    {
      "inputs": [
        {
          "internalType": "address",
          "name": "newTrustedSequencer",
          "type": "address"
        }
      ],
      "name": "setTrustedSequencer",
      "outputs": [],
      "stateMutability": "nonpayable",
      "type": "function"
    },
    {
      "inputs": [
        {
          "internalType": "string",
          "name": "newTrustedSequencerURL",
          "type": "string"
        }
      ],
      "name": "setTrustedSequencerURL",
      "outputs": [],
      "stateMutability": "nonpayable",
      "type": "function"
    },
    {
      "inputs": [
        {
          "internalType": "uint64",
          "name": "_numBatch",
          "type": "uint64"
        }
      ],
      "name": "setVerifiedBatch",
      "outputs": [],
      "stateMutability": "nonpayable",
      "type": "function"
    },
    {
      "inputs": [
        {
          "internalType": "contract IVerifierRollup",
          "name": "_rollupVerifier",
          "type": "address"
        }
      ],
      "name": "setVerifier",
      "outputs": [],
      "stateMutability": "nonpayable",
      "type": "function"
    },
    {
      "inputs": [
        {
          "internalType": "address",
          "name": "newOwner",
          "type": "address"
        }
      ],
      "name": "transferOwnership",
      "outputs": [],
      "stateMutability": "nonpayable",
      "type": "function"
    },
    {
      "inputs": [],
      "name": "trustedAggregator",
      "outputs": [
        {
          "internalType": "address",
          "name": "",
          "type": "address"
        }
      ],
      "stateMutability": "view",
      "type": "function"
    },
    {
      "inputs": [],
      "name": "trustedAggregatorTimeout",
      "outputs": [
        {
          "internalType": "uint64",
          "name": "",
          "type": "uint64"
        }
      ],
      "stateMutability": "view",
      "type": "function"
    },
    {
      "inputs": [],
      "name": "trustedSequencer",
      "outputs": [
        {
          "internalType": "address",
          "name": "",
          "type": "address"
        }
      ],
      "stateMutability": "view",
      "type": "function"
    },
    {
      "inputs": [],
      "name": "trustedSequencerURL",
      "outputs": [
        {
          "internalType": "string",
          "name": "",
          "type": "string"
        }
      ],
      "stateMutability": "view",
      "type": "function"
    },
    {
      "inputs": [
        {
          "internalType": "uint64",
          "name": "pendingStateNum",
          "type": "uint64"
        },
        {
          "internalType": "uint64",
          "name": "initNumBatch",
          "type": "uint64"
        },
        {
          "internalType": "uint64",
          "name": "finalNewBatch",
          "type": "uint64"
        },
        {
          "internalType": "bytes32",
          "name": "newLocalExitRoot",
          "type": "bytes32"
        },
        {
          "internalType": "bytes32",
          "name": "newStateRoot",
          "type": "bytes32"
        },
        {
          "internalType": "uint256[2]",
          "name": "proofA",
          "type": "uint256[2]"
        },
        {
          "internalType": "uint256[2][2]",
          "name": "proofB",
          "type": "uint256[2][2]"
        },
        {
          "internalType": "uint256[2]",
          "name": "proofC",
          "type": "uint256[2]"
        }
      ],
      "name": "trustedVerifyBatches",
      "outputs": [],
      "stateMutability": "nonpayable",
      "type": "function"
    },
    {
      "inputs": [
        {
          "internalType": "uint64",
          "name": "pendingStateNum",
          "type": "uint64"
        },
        {
          "internalType": "uint64",
          "name": "initNumBatch",
          "type": "uint64"
        },
        {
          "internalType": "uint64",
          "name": "finalNewBatch",
          "type": "uint64"
        },
        {
          "internalType": "bytes32",
          "name": "newLocalExitRoot",
          "type": "bytes32"
        },
        {
          "internalType": "bytes32",
          "name": "newStateRoot",
          "type": "bytes32"
        },
        {
          "internalType": "uint256[2]",
          "name": "proofA",
          "type": "uint256[2]"
        },
        {
          "internalType": "uint256[2][2]",
          "name": "proofB",
          "type": "uint256[2][2]"
        },
        {
          "internalType": "uint256[2]",
          "name": "proofC",
          "type": "uint256[2]"
        }
      ],
      "name": "trustedVerifyBatchesMock",
      "outputs": [],
      "stateMutability": "nonpayable",
      "type": "function"
    },
    {
      "inputs": [
        {
          "internalType": "uint64",
          "name": "pendingStateNum",
          "type": "uint64"
        },
        {
          "internalType": "uint64",
          "name": "initNumBatch",
          "type": "uint64"
        },
        {
          "internalType": "uint64",
          "name": "finalNewBatch",
          "type": "uint64"
        },
        {
          "internalType": "bytes32",
          "name": "newLocalExitRoot",
          "type": "bytes32"
        },
        {
          "internalType": "bytes32",
          "name": "newStateRoot",
          "type": "bytes32"
        },
        {
          "internalType": "uint256[2]",
          "name": "proofA",
          "type": "uint256[2]"
        },
        {
          "internalType": "uint256[2][2]",
          "name": "proofB",
          "type": "uint256[2][2]"
        },
        {
          "internalType": "uint256[2]",
          "name": "proofC",
          "type": "uint256[2]"
        }
      ],
      "name": "verifyBatches",
      "outputs": [],
      "stateMutability": "nonpayable",
      "type": "function"
    }
  ],
  "bytecode": "0x608060405234801561001057600080fd5b506162c280620000216000396000f3fe608060405234801561001057600080fd5b50600436106103a45760003560e01c80638b48931e116101e9578063cfa8ed471161010f578063e7a7ed02116100ad578063f14916d61161007c578063f14916d614610900578063f2fde38b14610913578063f851a44014610926578063fe16564f1461093957600080fd5b8063e7a7ed02146108ad578063e8bf92ed146108c7578063eaeb077b146108da578063edc41121146108ed57600080fd5b8063d8f54db0116100e9578063d8f54db014610877578063d939b3151461088b578063dbc16976146108a5578063e79171ed1461070757600080fd5b8063cfa8ed4714610837578063d02103ca14610851578063d8d1091b1461086457600080fd5b8063a901782311610187578063b4d63f5811610156578063b4d63f58146107ac578063b6b0b097146107f9578063c0cad30214610811578063c89e42df1461082457600080fd5b8063a901782314610776578063ab9fc5ef14610707578063adc879e914610789578063b02286c0146107a357600080fd5b806396dc3d39116101c357806396dc3d391461073557806399f5634e146107485780639b79676014610750578063a3c573eb1461076357600080fd5b80638b48931e146107075780638c4a0af7146107115780638da5cb5b1461072457600080fd5b80635392c5e0116102ce578063704b6c021161026c5780637abaf3e61161023b5780637abaf3e6146106645780637fcb36531461066c578063837a47381461067f578063841b24d7146106ed57600080fd5b8063704b6c0214610623578063715018a6146106365780637215541a1461063e57806375c508b31461065157600080fd5b8063574f649e116102a8578063574f649e146105675780636a2877c8146105dd5780636b8616ce146105f05780636ff512cc1461061057600080fd5b80635392c5e01461052c578063542028d51461054c5780635437988d1461055457600080fd5b8063394218e911610346578063458c047711610315578063458c0477146104d95780634834a343146104ec5780634a1a89a7146104ff5780634a910e6a1461051957600080fd5b8063394218e91461047f5780633c15826714610492578063423fa856146104a557806345605267146104bf57600080fd5b806315064c961161038257806315064c96146103f957806319d8ac6114610416578063220d789914610441578063298789831461045457600080fd5b80630eaa86ea146103a9578063107bf28c146103cf57806310a01a72146103e4575b600080fd5b6103bc6103b73660046155ee565b61094c565b6040519081526020015b60405180910390f35b6103d7610d06565b6040516103c6919061569b565b6103f76103f23660046156dd565b610d94565b005b6065546104069060ff1681565b60405190151581526020016103c6565b606854610429906001600160401b031681565b6040516001600160401b0390911681526020016103c6565b6103d761044f36600461576a565b611196565b606a54610467906001600160a01b031681565b6040516001600160a01b0390911681526020016103c6565b6103f761048d3660046157b7565b611354565b6103f76104a03660046158f4565b61159d565b60685461042990600160401b90046001600160401b031681565b60685461042990600160801b90046001600160401b031681565b607254610429906001600160401b031681565b6103f76104fa3660046156dd565b611e61565b60725461042990600160401b90046001600160401b031681565b6103f76105273660046157b7565b6125d8565b6103bc61053a3660046157b7565b606d6020526000908152604090205481565b6103d76128c9565b6103f7610562366004615a1f565b6128d6565b6103bc610575366004615a3c565b835160209485012060408051808701979097528681019190915260608087019490945260c09290921b6001600160c01b031916608086015290911b6bffffffffffffffffffffffff191660888401528051808403607c018152609c9093019052815191012090565b6103f76105eb366004615ab1565b612900565b6103bc6105fe3660046157b7565b60666020526000908152604090205481565b6103f761061e366004615a1f565b612c4e565b6103f7610631366004615a1f565b612d28565b6103f7612de1565b6103f761064c3660046157b7565b612df5565b6103f761065f366004615b88565b612fd6565b6103bc6138a7565b606954610429906001600160401b031681565b6106c261068d366004615c26565b6071602052600090815260409020805460018201546002909201546001600160401b0380831693600160401b90930416919084565b604080516001600160401b0395861681529490931660208501529183015260608201526080016103c6565b60725461042990600160c01b90046001600160401b031681565b61042962093a8081565b6103f761071f366004615c4d565b6138fd565b6033546001600160a01b0316610467565b6103f76107433660046157b7565b6139b5565b6103bc6139e0565b6103f761075e3660046157b7565b613adb565b607054610467906001600160a01b031681565b6103f7610784366004615c6a565b613b15565b606c5461042990600160a81b90046001600160401b031681565b6103bc61ea6081565b6107dc6107ba3660046157b7565b606760205260009081526040902080546001909101546001600160401b031682565b604080519283526001600160401b039091166020830152016103c6565b6065546104679061010090046001600160a01b031681565b6103f761081f366004615ca6565b613b6c565b6103f7610832366004615ca6565b613b84565b60695461046790600160401b90046001600160a01b031681565b606c54610467906001600160a01b031681565b6103f7610872366004615cda565b613c2b565b606c5461040690600160a01b900460ff1681565b60725461042990600160801b90046001600160401b031681565b6103f76141fe565b60685461042990600160c01b90046001600160401b031681565b606b54610467906001600160a01b031681565b6103f76108e8366004615dcc565b614351565b6103f76108fb3660046156dd565b614790565b6103f761090e366004615a1f565b614cd0565b6103f7610921366004615a1f565b614d89565b607354610467906001600160a01b031681565b6103f7610947366004615e10565b614e16565b607254600090819081906001600160401b03161561098f57506072546001600160401b03908116600090815260716020526040902054600160401b90041661099d565b506069546001600160401b03165b6001600160401b03881615610b08576072546001600160401b039081169089161115610a4a5760405162461bcd60e51b815260206004820152605d602482015260008051602061626d83398151915260448201527f3a2070656e64696e6753746174654e756d206d757374206265206c657373206f60648201527f7220657175616c207468616e206c61737450656e64696e675374617465000000608482015260a4015b60405180910390fd5b6001600160401b038089166000908152607160205260409020600281015481549094509091898116600160401b9092041614610b025760405162461bcd60e51b8152602060048201526051602482015260008051602061626d83398151915260448201527f3a20696e69744e756d4261746368206d757374206d617463682074686520706560648201527f6e64696e67207374617465206261746368000000000000000000000000000000608482015260a401610a41565b50610bcf565b6001600160401b0387166000908152606d6020526040902054610b925760405162461bcd60e51b8152602060048201526048602482015260008051602061626d83398151915260448201527f3a20696e69744e756d426174636820737461746520726f6f7420646f6573206e6064820152671bdd08195e1a5cdd60c21b608482015260a401610a41565b6001600160401b038088166000818152606d602052604090205493509082161015610bcf5760405162461bcd60e51b8152600401610a4190615e3c565b806001600160401b0316866001600160401b031611610c6a5760405162461bcd60e51b815260206004820152605c602482015260008051602061626d83398151915260448201527f3a2066696e616c4e65774261746368206d75737420626520626967676572207460648201527f68616e2063757272656e744c6173745665726966696564426174636800000000608482015260a401610a41565b6000610c798888888689611196565b905060007f30644e72e131a029b85045b68181585d2833e84879b9709143e1f593f0000001600283604051610cae9190615eb8565b602060405180830381855afa158015610ccb573d6000803e3d6000fd5b5050506040513d601f19601f82011682018060405250810190610cee9190615ed4565b610cf89190615f03565b9a9950505050505050505050565b606f8054610d1390615f17565b80601f0160208091040260200160405190810160405280929190818152602001828054610d3f90615f17565b8015610d8c5780601f10610d6157610100808354040283529160200191610d8c565b820191906000526020600020905b815481529060010190602001808311610d6f57829003601f168201915b505050505081565b610d9c614e38565b6000806001600160401b038a1615610e9e576072546001600160401b03908116908b161115610e475760405162461bcd60e51b815260206004820152605d602482015260008051602061626d83398151915260448201527f3a2070656e64696e6753746174654e756d206d757374206265206c657373206f60648201527f7220657175616c207468616e206c61737450656e64696e675374617465000000608482015260a401610a41565b6001600160401b03808b1660009081526071602052604090206002810154815490945090918b8116600160401b9092041614610e955760405162461bcd60e51b8152600401610a4190615e3c565b89915050610f68565b6001600160401b0389166000908152606d6020526040902054915081610f2b5760405162461bcd60e51b8152602060048201526048602482015260008051602061626d83398151915260448201527f3a20696e69744e756d426174636820737461746520726f6f7420646f6573206e6064820152671bdd08195e1a5cdd60c21b608482015260a401610a41565b6069546001600160401b03908116908a161115610f5a5760405162461bcd60e51b8152600401610a4190615e3c565b506069546001600160401b03165b806001600160401b0316886001600160401b0316116110035760405162461bcd60e51b815260206004820152605c602482015260008051602061626d83398151915260448201527f3a2066696e616c4e65774261746368206d75737420626520626967676572207460648201527f68616e2063757272656e744c6173745665726966696564426174636800000000608482015260a401610a41565b60006110128a8a8a868b611196565b905060007f30644e72e131a029b85045b68181585d2833e84879b9709143e1f593f00000016002836040516110479190615eb8565b602060405180830381855afa158015611064573d6000803e3d6000fd5b5050506040513d601f19601f820116820180604052508101906110879190615ed4565b6110919190615f03565b6069805467ffffffffffffffff19166001600160401b038d81169182179092556000908152606d602052604090208a905560725491925016156110e857607280546fffffffffffffffffffffffffffffffff191690555b606c546040516333d6247d60e01b8152600481018b90526001600160a01b03909116906333d6247d906024015b600060405180830381600087803b15801561112f57600080fd5b505af1158015611143573d6000803e3d6000fd5b50506040518a81523392506001600160401b038d1691507f0c0ce073a7d7b5850c04ccc4b20ee7d3179d5f57d0ac44399565792c0f72fce7906020015b60405180910390a3505050505050505050505050565b6001600160401b038086166000818152606760205260408082205493881682529020546060929115806111c857508115155b6112485760405162461bcd60e51b815260206004820152604560248201527f50726f6f664f66456666696369656e63793a3a676574496e707574536e61726b60448201527f42797465733a206f6c64416363496e7075744861736820646f6573206e6f7420606482015264195e1a5cdd60da1b608482015260a401610a41565b806112c95760405162461bcd60e51b815260206004820152604560248201527f50726f6f664f66456666696369656e63793a3a676574496e707574536e61726b60448201527f42797465733a206e6577416363496e7075744861736820646f6573206e6f7420606482015264195e1a5cdd60da1b608482015260a401610a41565b606c54604080516bffffffffffffffffffffffff193360601b166020820152603481019790975260548701939093526001600160c01b031960c0998a1b81166074880152600160a81b909104891b8116607c870152608486019490945260a485015260c4840194909452509290931b90911660e4830152805180830360cc01815260ec909201905290565b6073546001600160a01b031633146113bf5760405162461bcd60e51b815260206004820152602860248201527f50726f6f664f66456666696369656e63793a3a6f6e6c7941646d696e3a206f6e604482015267363c9030b236b4b760c11b6064820152608401610a41565b60725462093a80600160c01b9091046001600160401b031611156114715760405162461bcd60e51b815260206004820152605560248201527f50726f6f664f66456666696369656e63793a3a7365745472757374656441676760448201527f72656761746f7254696d656f75743a20657863656564206d617820747275737460648201527f65642061676772656761746f722074696d656f75740000000000000000000000608482015260a401610a41565b60655460ff1661152c576072546001600160401b03600160c01b90910481169082161061152c5760405162461bcd60e51b815260206004820152604960248201527f50726f6f664f66456666696369656e63793a3a7365745472757374656441676760448201527f72656761746f7254696d656f75743a206e65772074696d656f7574206d75737460648201527f206265206c6f7765720000000000000000000000000000000000000000000000608482015260a401610a41565b6072805477ffffffffffffffffffffffffffffffffffffffffffffffff16600160c01b6001600160401b038481168202929092179283905560405192041681527f1f4fa24c2e4bad19a7f3ec5c5485f70d46c798461c2e684f55bbd0fc661373a1906020015b60405180910390a150565b60655460ff16156116215760405162461bcd60e51b815260206004820152604260248201527f456d657267656e63794d616e616765723a3a69664e6f74456d657267656e637960448201527f53746174653a206f6e6c79206966206e6f7420656d657267656e637920737461606482015261746560f01b608482015260a401610a41565b606954600160401b90046001600160a01b031633146116a85760405162461bcd60e51b815260206004820152603f60248201527f50726f6f664f66456666696369656e63793a3a6f6e6c7954727573746564536560448201527f7175656e6365723a206f6e6c7920747275737465642073657175656e636572006064820152608401610a41565b8051806117285760405162461bcd60e51b815260206004820152604260248201527f50726f6f664f66456666696369656e63793a3a73657175656e6365426174636860448201527f65733a204174206c65617374206d7573742073657175656e63652031206261746064820152610c6d60f31b608482015260a401610a41565b6068546001600160401b03600160401b82048116600081815260676020526040812054838516949293600160801b90930490921691905b85811015611c7757600087828151811061177b5761177b615f51565b60200260200101519050600081606001516001600160401b0316111561195d57836117a581615f7d565b9450506000816000015180519060200120826020015183606001516040516020016117f093929190928352602083019190915260c01b6001600160c01b031916604082015260480190565b60408051601f1981840301815291815281516020928301206001600160401b0388166000908152606690935291205490915081146118a15760405162461bcd60e51b815260206004820152604260248201527f50726f6f664f66456666696369656e63793a3a73657175656e6365426174636860448201527f65733a20466f7263656420626174636865732064617461206d757374206d61746064820152610c6d60f31b608482015260a401610a41565b81606001516001600160401b031682604001516001600160401b031610156119575760405162461bcd60e51b815260206004820152605d60248201527f50726f6f664f66456666696369656e63793a3a73657175656e6365426174636860448201527f65733a20466f7263656420626174636865732074696d657374616d70206d757360648201527f7420626520626967676572206f7220657175616c207468616e206d696e000000608482015260a401610a41565b50611b10565b602081015115806119ff5750606c5460208201516040517f257b36320000000000000000000000000000000000000000000000000000000081526001600160a01b039092169163257b3632916119b99160040190815260200190565b6020604051808303816000875af11580156119d8573d6000803e3d6000fd5b505050506040513d601f19601f820116820180604052508101906119fc9190615ed4565b15155b611a715760405162461bcd60e51b815260206004820152603f60248201527f50726f6f664f66456666696369656e63793a3a73657175656e6365426174636860448201527f65733a20476c6f62616c206578697420726f6f74206d757374206578697374006064820152608401610a41565b80515161ea6011611b105760405162461bcd60e51b815260206004820152604a60248201527f50726f6f664f664566666963696550656e64696e67537461746563793a3a736560448201527f7175656e6365426174636865733a205472616e73616374696f6e73206279746560648201527f73206f766572666c6f7700000000000000000000000000000000000000000000608482015260a401610a41565b856001600160401b031681604001516001600160401b031610158015611b4357504281604001516001600160401b031611155b611bdb5760405162461bcd60e51b815260206004820152604260248201527f50726f6f664f66456666696369656e63793a3a73657175656e6365426174636860448201527f65733a2054696d657374616d70206d75737420626520696e736964652072616e60648201527f6765000000000000000000000000000000000000000000000000000000000000608482015260a401610a41565b805180516020918201208183015160408085015181519485018890529084019290925260608084019190915260c09190911b6001600160c01b031916608083015233901b6bffffffffffffffffffffffff19166088820152609c016040516020818303038152906040528051906020012092508480611c5990615f7d565b95505080604001519550508080611c6f90615fa3565b91505061175f565b506068546001600160401b03600160c01b90910481169083161115611d045760405162461bcd60e51b815260206004820152603a60248201527f50726f6f664f66456666696369656e63793a3a73657175656e6365426174636860448201527f65733a20466f7263652062617463686573206f766572666c6f770000000000006064820152608401610a41565b606854600090611d2490600160801b90046001600160401b031684615fbc565b611d37906001600160401b031687615fe4565b606880546001600160401b03868116600160801b027fffffffffffffffff0000000000000000ffffffffffffffffffffffffffffffff898316600160401b81026fffffffffffffffffffffffffffffffff19909516848d1617949094171617909255604080518082018252868152428416602080830191825260009485526067905291909220915182555160019190910180549190921667ffffffffffffffff19919091161790559050611e12333083611def6138a7565b611df99190615ffb565b60655461010090046001600160a01b0316929190614e92565b611e1a614f43565b606854604051600160401b9091046001600160401b0316907f303446e6a8cb73c83dff421c0b1d5e5ce0719dab1bff13660fc254e58cc17fce90600090a250505050505050565b60655460ff1615611ee55760405162461bcd60e51b815260206004820152604260248201527f456d657267656e63794d616e616765723a3a69664e6f74456d657267656e637960448201527f53746174653a206f6e6c79206966206e6f7420656d657267656e637920737461606482015261746560f01b608482015260a401610a41565b6072546001600160401b038781166000908152606760205260409020600101544292611f1c92600160c01b9091048116911661601a565b6001600160401b03161115611fad5760405162461bcd60e51b8152602060048201526048602482015260008051602061626d83398151915260448201527f3a20747275737465642061676772656761746f722074696d656f7574206e6f7460648201527f2065787069726564000000000000000000000000000000000000000000000000608482015260a401610a41565b60725460009081906001600160401b031615611fee57506072546001600160401b03908116600090815260716020526040902054600160401b900416611ffc565b506069546001600160401b03165b6001600160401b038a1615612162576072546001600160401b03908116908b1611156120a45760405162461bcd60e51b815260206004820152605d602482015260008051602061626d83398151915260448201527f3a2070656e64696e6753746174654e756d206d757374206265206c657373206f60648201527f7220657175616c207468616e206c61737450656e64696e675374617465000000608482015260a401610a41565b6001600160401b03808b1660009081526071602052604090206002810154815490945090918b8116600160401b909204161461215c5760405162461bcd60e51b8152602060048201526051602482015260008051602061626d83398151915260448201527f3a20696e69744e756d4261746368206d757374206d617463682074686520706560648201527f6e64696e67207374617465206261746368000000000000000000000000000000608482015260a401610a41565b50612229565b6001600160401b0389166000908152606d60205260409020546121ec5760405162461bcd60e51b8152602060048201526048602482015260008051602061626d83398151915260448201527f3a20696e69744e756d426174636820737461746520726f6f7420646f6573206e6064820152671bdd08195e1a5cdd60c21b608482015260a401610a41565b6001600160401b03808a166000818152606d6020526040902054935090821610156122295760405162461bcd60e51b8152600401610a4190615e3c565b806001600160401b0316886001600160401b0316116122c45760405162461bcd60e51b815260206004820152605c602482015260008051602061626d83398151915260448201527f3a2066696e616c4e65774261746368206d75737420626520626967676572207460648201527f68616e2063757272656e744c6173745665726966696564426174636800000000608482015260a401610a41565b60006122d38a8a8a868b611196565b905060007f30644e72e131a029b85045b68181585d2833e84879b9709143e1f593f00000016002836040516123089190615eb8565b602060405180830381855afa158015612325573d6000803e3d6000fd5b5050506040513d601f19601f820116820180604052508101906123489190615ed4565b6123529190615f03565b606b546040805160208101825283815290516343753b4d60e01b81529293506001600160a01b03909116916343753b4d91612396918b918b918b9190600401616045565b602060405180830381865afa1580156123b3573d6000803e3d6000fd5b505050506040513d601f19601f820116820180604052508101906123d791906160bf565b6124375760405162461bcd60e51b815260206004820152602f602482015260008051602061626d83398151915260448201527f3a20494e56414c49445f50524f4f4600000000000000000000000000000000006064820152608401610a41565b61247833612445858d615fbc565b6001600160401b03166124566139e0565b6124609190615ffb565b60655461010090046001600160a01b0316919061504b565b612480614f43565b607280546001600160401b031690600061249983615f7d565b91906101000a8154816001600160401b0302191690836001600160401b03160217905550506040518060800160405280426001600160401b031681526020018b6001600160401b031681526020018a81526020018981525060716000607260009054906101000a90046001600160401b03166001600160401b0316815260200190815260200160002060008201518160000160006101000a8154816001600160401b0302191690836001600160401b0316021790555060208201518160000160086101000a8154816001600160401b0302191690836001600160401b031602179055506040820151816001015560608201518160020155905050336001600160a01b03168a6001600160401b03167f9c72852172521097ba7e1482e6b44b351323df0155f97f4ea18fcec28e1f59668a60405161118091815260200190565b6001600160401b0381161580159061260557506072546001600160401b03600160401b9091048116908216115b801561262057506072546001600160401b0390811690821611155b6126b85760405162461bcd60e51b815260206004820152604860248201527f50726f6f664f66456666696369656e63793a3a636f6e736f6c6964617465506560448201527f6e64696e6753746174653a2070656e64696e6753746174654e756d206d75737460648201527f20696e76616c6964000000000000000000000000000000000000000000000000608482015260a401610a41565b6001600160401b0381166000908152607160205260409020606a546001600160a01b031633146127a95760725481544291612706916001600160401b03600160801b9092048216911661601a565b6001600160401b031611156127a95760405162461bcd60e51b815260206004820152605960248201527f50726f6f664f66456666696369656e63793a3a636f6e736f6c6964617465506560448201527f6e64696e6753746174653a2070656e64696e67207374617465206973206e6f7460648201527f20726561647920746f20626520636f6e736f6c69646174656400000000000000608482015260a401610a41565b805460698054600160401b928390046001600160401b0390811667ffffffffffffffff19909216821790925560028401546000828152606d60205260409081902091909155607280546fffffffffffffffff0000000000000000191693871690940292909217909255606c54600184015491516333d6247d60e01b815260048101929092526001600160a01b0316906333d6247d90602401600060405180830381600087803b15801561285b57600080fd5b505af115801561286f573d6000803e3d6000fd5b50505050336001600160a01b0316816001600160401b03167f01f7d32e3b3278bace940a581067c87090c1aa09809730dd4ca002320c3a3cfa84600201546040516128bc91815260200190565b60405180910390a3505050565b606e8054610d1390615f17565b6128de614e38565b606b80546001600160a01b0319166001600160a01b0392909216919091179055565b600054610100900460ff16158080156129205750600054600160ff909116105b8061293a5750303b15801561293a575060005460ff166001145b6129ac5760405162461bcd60e51b815260206004820152602e60248201527f496e697469616c697a61626c653a20636f6e747261637420697320616c72656160448201527f647920696e697469616c697a65640000000000000000000000000000000000006064820152608401610a41565b6000805460ff1916600117905580156129cf576000805461ff0019166101001790555b606c80546001600160a01b03199081166001600160a01b038c811691909117909255606580547fffffffffffffffffffffff0000000000000000000000000000000000000000ff166101008c851602179055606b805482168a841617905560708054909116918816919091179055612a4a6020860186615a1f565b607380546001600160a01b0319166001600160a01b0392909216919091179055612a7a6060860160408701615a1f565b606980546001600160a01b0392909216600160401b027fffffffff0000000000000000000000000000000000000000ffffffffffffffff909216919091179055612aca60a0860160808701615a1f565b606a80546001600160a01b0319166001600160a01b039290921691909117905560008052606d6020527fda90043ba5b4096ba14704bc227ab0d3167da15b887e62ab2e76e37daa711356849055612b2760c0860160a087016157b7565b607280546001600160401b0392909216600160c01b0277ffffffffffffffffffffffffffffffffffffffffffffffff909216919091179055612b6f60408601602087016157b7565b606c80546001600160401b0392909216600160a81b027fffffff0000000000000000ffffffffffffffffffffffffffffffffffffffffff909216919091179055612bbf6080860160608701615c4d565b606c8054911515600160a01b0260ff60a01b19909216919091179055606e612be7848261612a565b50606f612bf4838261612a565b50612bfd615099565b8015612c43576000805461ff0019169055604051600181527f7f26b83ff96e1f2b6a682f133852f6798a09c465da95921460cefb38474024989060200160405180910390a15b505050505050505050565b6073546001600160a01b03163314612cb95760405162461bcd60e51b815260206004820152602860248201527f50726f6f664f66456666696369656e63793a3a6f6e6c7941646d696e3a206f6e604482015267363c9030b236b4b760c11b6064820152608401610a41565b606980547fffffffff0000000000000000000000000000000000000000ffffffffffffffff16600160401b6001600160a01b038416908102919091179091556040519081527ff54144f9611984021529f814a1cb6a41e22c58351510a0d9f7e822618abb9cc090602001611592565b6073546001600160a01b03163314612d935760405162461bcd60e51b815260206004820152602860248201527f50726f6f664f66456666696369656e63793a3a6f6e6c7941646d696e3a206f6e604482015267363c9030b236b4b760c11b6064820152608401610a41565b607380546001600160a01b0319166001600160a01b0383169081179091556040519081527f5a272403b402d892977df56625f4164ccaf70ca3863991c43ecfe76a6905b0a190602001611592565b612de9614e38565b612df3600061511b565b565b6033546001600160a01b03163314612fcb576072546000906001600160401b031615612e4657506072546001600160401b03908116600090815260716020526040902054600160401b900416612e54565b506069546001600160401b03165b80826001600160401b031611612ef85760405162461bcd60e51b815260206004820152604160248201527f50726f6f664f66456666696369656e63793a3a6163746976617465456d65726760448201527f656e637953746174653a20426174636820616c7265616479207665726966696560648201527f6400000000000000000000000000000000000000000000000000000000000000608482015260a401610a41565b6001600160401b038083166000908152606760205260409020600101544291612f269162093a80911661601a565b6001600160401b03161115612fc95760405162461bcd60e51b815260206004820152605260248201527f50726f6f664f66456666696369656e63793a3a6163746976617465456d65726760448201527f656e637953746174653a206167677265676174696f6e2068616c742074696d6560648201527f6f7574206973206e6f7420657870697265640000000000000000000000000000608482015260a401610a41565b505b612fd361516d565b50565b60655460ff161561305a5760405162461bcd60e51b815260206004820152604260248201527f456d657267656e63794d616e616765723a3a69664e6f74456d657267656e637960448201527f53746174653a206f6e6c79206966206e6f7420656d657267656e637920737461606482015261746560f01b608482015260a401610a41565b60006001600160401b038a1615613230576072546001600160401b03908116908b16111561313c5760405162461bcd60e51b815260206004820152607160248201527f50726f6f664f66456666696369656e63793a3a70726f76654e6f6e446574657260448201527f6d696e697374696350656e64696e6753746174653a2070656e64696e6753746160648201527f74654e756d206d757374206265206c657373206f7220657175616c207468616e60848201527f206c61737450656e64696e67537461746500000000000000000000000000000060a482015260c401610a41565b506001600160401b03808a1660009081526071602052604090206002810154815490928a8116600160401b909204161461322a5760405162461bcd60e51b815260206004820152606560248201527f50726f6f664f66456666696369656e63793a3a70726f76654e6f6e446574657260448201527f6d696e697374696350656e64696e6753746174653a20696e69744e756d42617460648201527f6368206d757374206d61746368207468652070656e64696e672073746174652060848201527f626174636800000000000000000000000000000000000000000000000000000060a482015260c401610a41565b506133c2565b6001600160401b0388166000908152606d60205260409020546132e15760405162461bcd60e51b815260206004820152605c60248201527f50726f6f664f66456666696369656e63793a3a70726f76654e6f6e446574657260448201527f6d696e697374696350656e64696e6753746174653a20696e69744e756d42617460648201527f636820737461746520726f6f7420646f6573206e6f7420657869737400000000608482015260a401610a41565b506001600160401b038088166000818152606d602052604090205460695490921610156133c25760405162461bcd60e51b815260206004820152607660248201527f50726f6f664f66456666696369656e63793a3a70726f76654e6f6e446574657260448201527f6d696e697374696350656e64696e6753746174653a20696e69744e756d42617460648201527f6368206d757374206265206c657373206f7220657175616c207468616e20637560848201527f7272656e744c617374566572696669656442617463680000000000000000000060a482015260c401610a41565b6072546001600160401b03908116908a16118015906133f25750896001600160401b0316896001600160401b0316115b801561341357506072546001600160401b03600160401b9091048116908a16115b6134d15760405162461bcd60e51b815260206004820152607060248201527f50726f6f664f66456666696369656e63793a3a70726f76654e6f6e446574657260448201527f6d696e697374696350656e64696e6753746174653a2066696e616c4e6577426160648201527f746368206d75737420626520626967676572207468616e2063757272656e744c60848201527f617374566572696669656442617463680000000000000000000000000000000060a482015260c401610a41565b6001600160401b03898116600090815260716020526040902054600160401b90048116908816146135b65760405162461bcd60e51b815260206004820152607060248201527f50726f6f664f66456666696369656e63793a3a70726f76654e6f6e446574657260448201527f6d696e697374696350656e64696e6753746174653a2066696e616c4e6577426160648201527f746368206d75737420626520626967676572207468616e2063757272656e744c60848201527f617374566572696669656442617463680000000000000000000000000000000060a482015260c401610a41565b60006135c5898989858a611196565b905060007f30644e72e131a029b85045b68181585d2833e84879b9709143e1f593f00000016002836040516135fa9190615eb8565b602060405180830381855afa158015613617573d6000803e3d6000fd5b5050506040513d601f19601f8201168201806040525081019061363a9190615ed4565b6136449190615f03565b606b546040805160208101825283815290516343753b4d60e01b81529293506001600160a01b03909116916343753b4d91613688918a918a918a9190600401616045565b602060405180830381865afa1580156136a5573d6000803e3d6000fd5b505050506040513d601f19601f820116820180604052508101906136c991906160bf565b6137615760405162461bcd60e51b815260206004820152604360248201527f50726f6f664f66456666696369656e63793a3a70726f76654e6f6e446574657260448201527f6d696e697374696350656e64696e6753746174653a20494e56414c49445f505260648201527f4f4f460000000000000000000000000000000000000000000000000000000000608482015260a401610a41565b6001600160401b038b1660009081526071602052604090206002015487900361383e5760405162461bcd60e51b815260206004820152606760248201527f50726f6f664f66456666696369656e63793a3a70726f76654e6f6e446574657260448201527f6d696e697374696350656e64696e6753746174653a2073746f72656420726f6f60648201527f74206d75737420626520646966666572656e74207468616e206e65772073746160848201527f746520726f6f740000000000000000000000000000000000000000000000000060a482015260c401610a41565b6001600160401b0389166000908152606d60209081526040918290205482519081529081018990527f10b370e2afd2be06fe3170fec9cb3bbd87233f3deb63d488c0dde59813afdabe910160405180910390a161389961516d565b505050505050505050505050565b6068546000906001600160401b03600160801b82048116916138d391600160c01b90910416600161601a565b6138dd9190615fbc565b6138f8906001600160401b0316670de0b6b3a7640000615ffb565b905090565b6073546001600160a01b031633146139685760405162461bcd60e51b815260206004820152602860248201527f50726f6f664f66456666696369656e63793a3a6f6e6c7941646d696e3a206f6e604482015267363c9030b236b4b760c11b6064820152608401610a41565b606c8054821515600160a01b0260ff60a01b199091161790556040517fbacda50a4a8575be1d91a7ebe29ee45056f3a94f12a2281eb6b43afa33bcefe69061159290831515815260200190565b6139bd614e38565b6069805467ffffffffffffffff19166001600160401b0392909216919091179055565b6065546040517f70a0823100000000000000000000000000000000000000000000000000000000815230600482015260009182916101009091046001600160a01b0316906370a0823190602401602060405180830381865afa158015613a4a573d6000803e3d6000fd5b505050506040513d601f19601f82011682018060405250810190613a6e9190615ed4565b6069546068549192506000916001600160401b0391821691600160401b8204811691613aab91600160801b8204811691600160c01b900416615fbc565b613ab5919061601a565b613abf9190615fbc565b6001600160401b03169050613ad481836161e9565b9250505090565b613ae3614e38565b606880546001600160401b03909216600160401b026fffffffffffffffff000000000000000019909216919091179055565b613b1d614e38565b6040805180820182529283526001600160401b0391821660208085019182529483166000908152606790955293209151825591516001909101805467ffffffffffffffff191691909216179055565b613b74614e38565b606f613b80828261612a565b5050565b6073546001600160a01b03163314613bef5760405162461bcd60e51b815260206004820152602860248201527f50726f6f664f66456666696369656e63793a3a6f6e6c7941646d696e3a206f6e604482015267363c9030b236b4b760c11b6064820152608401610a41565b606e613bfb828261612a565b507f6b8f723a4c7a5335cafae8a598a0aa0301be1387c037dccc085b62add6448b2081604051611592919061569b565b60655460ff1615613caf5760405162461bcd60e51b815260206004820152604260248201527f456d657267656e63794d616e616765723a3a69664e6f74456d657267656e637960448201527f53746174653a206f6e6c79206966206e6f7420656d657267656e637920737461606482015261746560f01b608482015260a401610a41565b606c54600160a01b900460ff161515600114613d445760405162461bcd60e51b815260206004820152604860248201527f50726f6f664f66456666696369656e63793a3a6973466f72636542617463684160448201527f6c6c6f7765643a206f6e6c7920696620666f72636520626174636820697320616064820152677661696c61626c6560c01b608482015260a401610a41565b805180613dc45760405162461bcd60e51b815260206004820152604260248201527f50726f6f664f66456666696369656e63793a3a73657175656e6365466f72636560448201527f42617463683a204d75737420666f726365206174206c656173742031206261746064820152610c6d60f31b608482015260a401610a41565b6068546001600160401b03600160c01b8204811691613dec918491600160801b9004166161fd565b1115613e605760405162461bcd60e51b815260206004820152603a60248201527f50726f6f664f66456666696369656e63793a3a73657175656e6365466f72636560448201527f42617463683a20466f72636520626174636820696e76616c69640000000000006064820152608401610a41565b6068546001600160401b03600160401b820481166000818152606760205260408120549193600160801b9004909216915b84811015614121576000868281518110613ead57613ead615f51565b602002602001015190508380613ec290615f7d565b825180516020918201208185015160408087015181519485019390935283015260c01b6001600160c01b03191660608201529095506000915060680160408051601f1981840301815291815281516020928301206001600160401b038816600090815260669093529120549091508114613fca5760405162461bcd60e51b815260206004820152604760248201527f50726f6f664f66456666696369656e63793a3a73657175656e6365466f72636560448201527f426174636865733a20466f7263656420626174636865732064617461206d757360648201527f74206d6174636800000000000000000000000000000000000000000000000000608482015260a401610a41565b613fd5600188615fe4565b8303614092574262093a808360400151613fef919061601a565b6001600160401b031611156140925760405162461bcd60e51b815260206004820152604c60248201527f50726f6f664f66456666696369656e63793a3a73657175656e6365466f72636560448201527f42617463683a20466f72636564206261746368206973206e6f7420696e20746960648201527f6d656f757420706572696f640000000000000000000000000000000000000000608482015260a401610a41565b8151805160209182012081840151604080519384018890528301919091526060808301919091524260c01b6001600160c01b031916608083015233901b6bffffffffffffffffffffffff19166088820152609c01604051602081830303815290604052805190602001209350858061410990615f7d565b9650505050808061411990615fa3565b915050613e91565b5060688054426001600160401b039081166fffffffffffffffffffffffffffffffff199092168217600160401b878316818102929092177fffffffffffffffff0000000000000000ffffffffffffffffffffffffffffffff16600160801b888516021785556040805180820182528781526020808201968752600094855260679052818420905181559451600195909501805467ffffffffffffffff191695851695909517909455935492519390920416917f648a61dd2438f072f5a1960939abd30f37aea80d2e94c9792ad142d3e0a490a49190a25050505050565b60655460ff166142765760405162461bcd60e51b815260206004820152603b60248201527f456d657267656e63794d616e616765723a3a6966456d657267656e637953746160448201527f74653a206f6e6c7920696620656d657267656e637920737461746500000000006064820152608401610a41565b6073546001600160a01b031633146142e15760405162461bcd60e51b815260206004820152602860248201527f50726f6f664f66456666696369656e63793a3a6f6e6c7941646d696e3a206f6e604482015267363c9030b236b4b760c11b6064820152608401610a41565b607060009054906101000a90046001600160a01b03166001600160a01b031663dbc169766040518163ffffffff1660e01b8152600401600060405180830381600087803b15801561433157600080fd5b505af1158015614345573d6000803e3d6000fd5b50505050612df36151dd565b60655460ff16156143d55760405162461bcd60e51b815260206004820152604260248201527f456d657267656e63794d616e616765723a3a69664e6f74456d657267656e637960448201527f53746174653a206f6e6c79206966206e6f7420656d657267656e637920737461606482015261746560f01b608482015260a401610a41565b606c54600160a01b900460ff16151560011461446a5760405162461bcd60e51b815260206004820152604860248201527f50726f6f664f66456666696369656e63793a3a6973466f72636542617463684160448201527f6c6c6f7765643a206f6e6c7920696620666f72636520626174636820697320616064820152677661696c61626c6560c01b608482015260a401610a41565b60006144746138a7565b9050818111156144ec5760405162461bcd60e51b815260206004820152602f60248201527f50726f6f664f66456666696369656e63793a3a666f72636542617463683a206e60448201527f6f7420656e6f756768206d6174696300000000000000000000000000000000006064820152608401610a41565b61ea608351106145645760405162461bcd60e51b815260206004820152603a60248201527f50726f6f664f66456666696369656e63793a3a666f72636542617463683a205460448201527f72616e73616374696f6e73206279746573206f766572666c6f770000000000006064820152608401610a41565b6065546145819061010090046001600160a01b0316333084614e92565b606c54604080517f3ed691ef00000000000000000000000000000000000000000000000000000000815290516000926001600160a01b031691633ed691ef9160048083019260209291908290030181865afa1580156145e4573d6000803e3d6000fd5b505050506040513d601f19601f820116820180604052508101906146089190615ed4565b60688054919250600160c01b9091046001600160401b031690601861462c83615f7d565b91906101000a8154816001600160401b0302191690836001600160401b03160217905550508380519060200120814260405160200161468b93929190928352602083019190915260c01b6001600160c01b031916604082015260480190565b60408051808303601f190181529181528151602092830120606854600160c01b90046001600160401b03166000908152606690935291205532330361472f57606854604080518381523360208201526060918101829052600091810191909152600160c01b9091046001600160401b0316907ff94bb37db835f1ab585ee00041849a09b12cd081d77fa15ca070757619cbc9319060800160405180910390a261478a565b606860189054906101000a90046001600160401b03166001600160401b03167ff94bb37db835f1ab585ee00041849a09b12cd081d77fa15ca070757619cbc93182338760405161478193929190616215565b60405180910390a25b50505050565b606a546001600160a01b031633146148365760405162461bcd60e51b815260206004820152604160248201527f50726f6f664f66456666696369656e63793a3a6f6e6c7954727573746564416760448201527f6772656761746f723a206f6e6c7920747275737465642041676772656761746f60648201527f7200000000000000000000000000000000000000000000000000000000000000608482015260a401610a41565b60725460009081906001600160401b03161561487757506072546001600160401b03908116600090815260716020526040902054600160401b900416614885565b506069546001600160401b03165b6001600160401b038a1615614981576072546001600160401b03908116908b16111561492d5760405162461bcd60e51b815260206004820152605d602482015260008051602061626d83398151915260448201527f3a2070656e64696e6753746174654e756d206d757374206265206c657373206f60648201527f7220657175616c207468616e206c61737450656e64696e675374617465000000608482015260a401610a41565b6001600160401b03808b1660009081526071602052604090206002810154815490945090918b8116600160401b909204161461497b5760405162461bcd60e51b8152600401610a4190615e3c565b50614a30565b816149f35760405162461bcd60e51b8152602060048201526048602482015260008051602061626d83398151915260448201527f3a20696e69744e756d426174636820737461746520726f6f7420646f6573206e6064820152671bdd08195e1a5cdd60c21b608482015260a401610a41565b6001600160401b03808a166000818152606d602052604090205493509082161015614a305760405162461bcd60e51b8152600401610a4190615e3c565b806001600160401b0316886001600160401b031611614acb5760405162461bcd60e51b815260206004820152605c602482015260008051602061626d83398151915260448201527f3a2066696e616c4e65774261746368206d75737420626520626967676572207460648201527f68616e2063757272656e744c6173745665726966696564426174636800000000608482015260a401610a41565b6000614ada8a8a8a868b611196565b905060007f30644e72e131a029b85045b68181585d2833e84879b9709143e1f593f0000001600283604051614b0f9190615eb8565b602060405180830381855afa158015614b2c573d6000803e3d6000fd5b5050506040513d601f19601f82011682018060405250810190614b4f9190615ed4565b614b599190615f03565b606b546040805160208101825283815290516343753b4d60e01b81529293506001600160a01b03909116916343753b4d91614b9d918b918b918b9190600401616045565b602060405180830381865afa158015614bba573d6000803e3d6000fd5b505050506040513d601f19601f82011682018060405250810190614bde91906160bf565b614c3e5760405162461bcd60e51b815260206004820152602f602482015260008051602061626d83398151915260448201527f3a20494e56414c49445f50524f4f4600000000000000000000000000000000006064820152608401610a41565b614c4c33612445858d615fbc565b6069805467ffffffffffffffff19166001600160401b038c81169182179092556000908152606d6020526040902089905560725416156110e857607280546fffffffffffffffffffffffffffffffff19169055606c546040516333d6247d60e01b8152600481018b90526001600160a01b03909116906333d6247d90602401611115565b6073546001600160a01b03163314614d3b5760405162461bcd60e51b815260206004820152602860248201527f50726f6f664f66456666696369656e63793a3a6f6e6c7941646d696e3a206f6e604482015267363c9030b236b4b760c11b6064820152608401610a41565b606a80546001600160a01b0319166001600160a01b0383169081179091556040519081527f61f8fec29495a3078e9271456f05fb0707fd4e41f7661865f80fc437d06681ca90602001611592565b614d91614e38565b6001600160a01b038116614e0d5760405162461bcd60e51b815260206004820152602660248201527f4f776e61626c653a206e6577206f776e657220697320746865207a65726f206160448201527f64647265737300000000000000000000000000000000000000000000000000006064820152608401610a41565b612fd38161511b565b614e1e614e38565b6001600160401b03166000908152606d6020526040902055565b6033546001600160a01b03163314612df35760405162461bcd60e51b815260206004820181905260248201527f4f776e61626c653a2063616c6c6572206973206e6f7420746865206f776e65726044820152606401610a41565b6040516001600160a01b038085166024830152831660448201526064810182905261478a9085907f23b872dd00000000000000000000000000000000000000000000000000000000906084015b60408051601f198184030181529190526020810180517bffffffffffffffffffffffffffffffffffffffffffffffffffffffff167fffffffff000000000000000000000000000000000000000000000000000000009093169290921790915261528a565b6072546001600160401b03600160401b8204811691161115612df357607254600090614f8090600160401b90046001600160401b0316600161601a565b6072546001600160401b038083166000908152607160205260409020549293504292614fb692600160801b90048216911661601a565b6001600160401b031611612fd357607254600090600290614fe19084906001600160401b0316615fbc565b614feb9190616246565b614ff5908361601a565b6072546001600160401b03808316600090815260716020526040902054929350429261502b92600160801b90048216911661601a565b6001600160401b03161161504257613b80816125d8565b613b80826125d8565b6040516001600160a01b0383166024820152604481018290526150949084907fa9059cbb0000000000000000000000000000000000000000000000000000000090606401614edf565b505050565b600054610100900460ff166151165760405162461bcd60e51b815260206004820152602b60248201527f496e697469616c697a61626c653a20636f6e7472616374206973206e6f74206960448201527f6e697469616c697a696e670000000000000000000000000000000000000000006064820152608401610a41565b612df3335b603380546001600160a01b038381166001600160a01b0319831681179093556040519116919082907f8be0079c531659141344cd1fd0a4f28419497f9722a3daafe3b4186f6b6457e090600090a35050565b607060009054906101000a90046001600160a01b03166001600160a01b0316632072f6c56040518163ffffffff1660e01b8152600401600060405180830381600087803b1580156151bd57600080fd5b505af11580156151d1573d6000803e3d6000fd5b50505050612df361536f565b60655460ff166152555760405162461bcd60e51b815260206004820152603b60248201527f456d657267656e63794d616e616765723a3a6966456d657267656e637953746160448201527f74653a206f6e6c7920696620656d657267656e637920737461746500000000006064820152608401610a41565b6065805460ff191690556040517f1e5e34eea33501aecf2ebec9fe0e884a40804275ea7fe10b2ba084c8374308b390600090a1565b60006152df826040518060400160405280602081526020017f5361666545524332303a206c6f772d6c6576656c2063616c6c206661696c6564815250856001600160a01b031661542b9092919063ffffffff16565b80519091501561509457808060200190518101906152fd91906160bf565b6150945760405162461bcd60e51b815260206004820152602a60248201527f5361666545524332303a204552433230206f7065726174696f6e20646964206e60448201527f6f742073756363656564000000000000000000000000000000000000000000006064820152608401610a41565b60655460ff16156153f35760405162461bcd60e51b815260206004820152604260248201527f456d657267656e63794d616e616765723a3a69664e6f74456d657267656e637960448201527f53746174653a206f6e6c79206966206e6f7420656d657267656e637920737461606482015261746560f01b608482015260a401610a41565b6065805460ff191660011790556040517f2261efe5aef6fedc1fd1550b25facc9181745623049c7901287030b9ad1a549790600090a1565b606061543a8484600085615442565b949350505050565b6060824710156154ba5760405162461bcd60e51b815260206004820152602660248201527f416464726573733a20696e73756666696369656e742062616c616e636520666f60448201527f722063616c6c00000000000000000000000000000000000000000000000000006064820152608401610a41565b600080866001600160a01b031685876040516154d69190615eb8565b60006040518083038185875af1925050503d8060008114615513576040519150601f19603f3d011682016040523d82523d6000602084013e615518565b606091505b509150915061552987838387615534565b979650505050505050565b606083156155a357825160000361559c576001600160a01b0385163b61559c5760405162461bcd60e51b815260206004820152601d60248201527f416464726573733a2063616c6c20746f206e6f6e2d636f6e74726163740000006044820152606401610a41565b508161543a565b61543a83838151156155b85781518083602001fd5b8060405162461bcd60e51b8152600401610a41919061569b565b80356001600160401b03811681146155e957600080fd5b919050565b600080600080600060a0868803121561560657600080fd5b61560f866155d2565b945061561d602087016155d2565b935061562b604087016155d2565b94979396509394606081013594506080013592915050565b60005b8381101561565e578181015183820152602001615646565b8381111561478a5750506000910152565b60008151808452615687816020860160208601615643565b601f01601f19169290920160200192915050565b6020815260006156ae602083018461566f565b9392505050565b80604081018310156156c657600080fd5b92915050565b80608081018310156156c657600080fd5b6000806000806000806000806101a0898b0312156156fa57600080fd5b615703896155d2565b975061571160208a016155d2565b965061571f60408a016155d2565b9550606089013594506080890135935061573c8a60a08b016156b5565b925061574b8a60e08b016156cc565b915061575b8a6101608b016156b5565b90509295985092959890939650565b600080600080600060a0868803121561578257600080fd5b61578b866155d2565b9450615799602087016155d2565b94979496505050506040830135926060810135926080909101359150565b6000602082840312156157c957600080fd5b6156ae826155d2565b634e487b7160e01b600052604160045260246000fd5b604051608081016001600160401b038111828210171561580a5761580a6157d2565b60405290565b604051606081016001600160401b038111828210171561580a5761580a6157d2565b604051601f8201601f191681016001600160401b038111828210171561585a5761585a6157d2565b604052919050565b60006001600160401b0382111561587b5761587b6157d2565b5060051b60200190565b600082601f83011261589657600080fd5b81356001600160401b038111156158af576158af6157d2565b6158c2601f8201601f1916602001615832565b8181528460208386010111156158d757600080fd5b816020850160208301376000918101602001919091529392505050565b6000602080838503121561590757600080fd5b82356001600160401b038082111561591e57600080fd5b818501915085601f83011261593257600080fd5b813561594561594082615862565b615832565b81815260059190911b8301840190848101908883111561596457600080fd5b8585015b838110156159fd578035858111156159805760008081fd5b86016080818c03601f19018113156159985760008081fd5b6159a06157e8565b89830135888111156159b25760008081fd5b6159c08e8c83870101615885565b8252506040808401358b83015260606159da8186016155d2565b828401526159e98486016155d2565b908301525085525050918601918601615968565b5098975050505050505050565b6001600160a01b0381168114612fd357600080fd5b600060208284031215615a3157600080fd5b81356156ae81615a0a565b600080600080600060a08688031215615a5457600080fd5b8535945060208601356001600160401b03811115615a7157600080fd5b615a7d88828901615885565b94505060408601359250615a93606087016155d2565b91506080860135615aa381615a0a565b809150509295509295909350565b600080600080600080600080888a036101a0811215615acf57600080fd5b8935615ada81615a0a565b985060208a0135615aea81615a0a565b975060408a0135615afa81615a0a565b965060608a0135615b0a81615a0a565b955060c0607f1982011215615b1e57600080fd5b5060808901935061014089013592506101608901356001600160401b0380821115615b4857600080fd5b615b548c838d01615885565b93506101808b0135915080821115615b6b57600080fd5b50615b788b828c01615885565b9150509295985092959890939650565b60008060008060008060008060006101c08a8c031215615ba757600080fd5b615bb08a6155d2565b9850615bbe60208b016155d2565b9750615bcc60408b016155d2565b9650615bda60608b016155d2565b955060808a0135945060a08a01359350615bf78b60c08c016156b5565b9250615c078b6101008c016156cc565b9150615c178b6101808c016156b5565b90509295985092959850929598565b600060208284031215615c3857600080fd5b5035919050565b8015158114612fd357600080fd5b600060208284031215615c5f57600080fd5b81356156ae81615c3f565b600080600060608486031215615c7f57600080fd5b615c88846155d2565b925060208401359150615c9d604085016155d2565b90509250925092565b600060208284031215615cb857600080fd5b81356001600160401b03811115615cce57600080fd5b61543a84828501615885565b60006020808385031215615ced57600080fd5b82356001600160401b0380821115615d0457600080fd5b818501915085601f830112615d1857600080fd5b8135615d2661594082615862565b81815260059190911b83018401908481019088831115615d4557600080fd5b8585015b838110156159fd57803585811115615d615760008081fd5b86016060818c03601f1901811315615d795760008081fd5b615d81615810565b8983013588811115615d935760008081fd5b615da18e8c83870101615885565b8252506040808401358b830152615db98385016155d2565b9082015285525050918601918601615d49565b60008060408385031215615ddf57600080fd5b82356001600160401b03811115615df557600080fd5b615e0185828601615885565b95602094909401359450505050565b60008060408385031215615e2357600080fd5b82359150615e33602084016155d2565b90509250929050565b602080825260629082015260008051602061626d83398151915260408201527f3a20696e69744e756d4261746368206d757374206265206c657373206f72206560608201527f7175616c207468616e2063757272656e744c61737456657269666965644261746080820152610c6d60f31b60a082015260c00190565b60008251615eca818460208701615643565b9190910192915050565b600060208284031215615ee657600080fd5b5051919050565b634e487b7160e01b600052601260045260246000fd5b600082615f1257615f12615eed565b500690565b600181811c90821680615f2b57607f821691505b602082108103615f4b57634e487b7160e01b600052602260045260246000fd5b50919050565b634e487b7160e01b600052603260045260246000fd5b634e487b7160e01b600052601160045260246000fd5b60006001600160401b03808316818103615f9957615f99615f67565b6001019392505050565b600060018201615fb557615fb5615f67565b5060010190565b60006001600160401b0383811690831681811015615fdc57615fdc615f67565b039392505050565b600082821015615ff657615ff6615f67565b500390565b600081600019048311821515161561601557616015615f67565b500290565b60006001600160401b0380831681851680830382111561603c5761603c615f67565b01949350505050565b61012081016040808784376000838201818152879190815b600281101561607d5784848337908401828152928401929060010161605d565b5050828760c0870137610100850181815286935091505b60018110156160b3578251825260209283019290910190600101616094565b50505095945050505050565b6000602082840312156160d157600080fd5b81516156ae81615c3f565b601f82111561509457600081815260208120601f850160051c810160208610156161035750805b601f850160051c820191505b818110156161225782815560010161610f565b505050505050565b81516001600160401b03811115616143576161436157d2565b616157816161518454615f17565b846160dc565b602080601f83116001811461618c57600084156161745750858301515b600019600386901b1c1916600185901b178555616122565b600085815260208120601f198616915b828110156161bb5788860151825594840194600190910190840161619c565b50858210156161d95787850151600019600388901b60f8161c191681555b5050505050600190811b01905550565b6000826161f8576161f8615eed565b500490565b6000821982111561621057616210615f67565b500190565b8381526001600160a01b038316602082015260606040820152600061623d606083018461566f565b95945050505050565b60006001600160401b038084168061626057616260615eed565b9216919091049291505056fe50726f6f664f66456666696369656e63793a3a76657269667942617463686573a2646970667358221220b814b93fea0751cac93d9ca07e4179347bdbcd5ba68343aa548328ed5b2e05ba64736f6c634300080f0033",
  "linkReferences": {},
  "deployedLinkReferences": {}
}