{
  "_format": "hh-sol-artifact-1",
  "contractName": "ProofOfEfficiency",
  "sourceName": "contracts/ProofOfEfficiency.sol",
  "abi": [
    {
      "anonymous": false,
      "inputs": [],
      "name": "EmergencyStateActivated",
      "type": "event"
    },
    {
      "anonymous": false,
      "inputs": [],
      "name": "EmergencyStateDeactivated",
      "type": "event"
    },
    {
      "anonymous": false,
      "inputs": [
        {
          "indexed": true,
          "internalType": "uint64",
          "name": "forceBatchNum",
          "type": "uint64"
        },
        {
          "indexed": false,
          "internalType": "bytes32",
          "name": "lastGlobalExitRoot",
          "type": "bytes32"
        },
        {
          "indexed": false,
          "internalType": "address",
          "name": "sequencer",
          "type": "address"
        },
        {
          "indexed": false,
          "internalType": "bytes",
          "name": "transactions",
          "type": "bytes"
        }
      ],
      "name": "ForceBatch",
      "type": "event"
    },
    {
      "anonymous": false,
      "inputs": [
        {
          "indexed": false,
          "internalType": "uint8",
          "name": "version",
          "type": "uint8"
        }
      ],
      "name": "Initialized",
      "type": "event"
    },
    {
      "anonymous": false,
      "inputs": [
        {
          "indexed": true,
          "internalType": "address",
          "name": "previousOwner",
          "type": "address"
        },
        {
          "indexed": true,
          "internalType": "address",
          "name": "newOwner",
          "type": "address"
        }
      ],
      "name": "OwnershipTransferred",
      "type": "event"
    },
    {
      "anonymous": false,
      "inputs": [
        {
          "indexed": false,
          "internalType": "bytes32",
          "name": "storedStateRoot",
          "type": "bytes32"
        },
        {
          "indexed": false,
          "internalType": "bytes32",
          "name": "provedStateRoot",
          "type": "bytes32"
        }
      ],
      "name": "ProofDifferentState",
      "type": "event"
    },
    {
      "anonymous": false,
      "inputs": [
        {
          "indexed": true,
          "internalType": "uint64",
          "name": "numBatch",
          "type": "uint64"
        }
      ],
      "name": "SequenceBatches",
      "type": "event"
    },
    {
      "anonymous": false,
      "inputs": [
        {
          "indexed": true,
          "internalType": "uint64",
          "name": "numBatch",
          "type": "uint64"
        }
      ],
      "name": "SequenceForceBatches",
      "type": "event"
    },
    {
      "anonymous": false,
      "inputs": [
        {
          "indexed": false,
          "internalType": "bool",
          "name": "newForceBatchAllowed",
          "type": "bool"
        }
      ],
      "name": "SetForceBatchAllowed",
      "type": "event"
    },
    {
      "anonymous": false,
      "inputs": [
        {
          "indexed": false,
          "internalType": "address",
          "name": "newSecurityCouncil",
          "type": "address"
        }
      ],
      "name": "SetSecurityCouncil",
      "type": "event"
    },
    {
      "anonymous": false,
      "inputs": [
        {
          "indexed": false,
          "internalType": "address",
          "name": "newTrustedSequencer",
          "type": "address"
        }
      ],
      "name": "SetTrustedSequencer",
      "type": "event"
    },
    {
      "anonymous": false,
      "inputs": [
        {
          "indexed": false,
          "internalType": "string",
          "name": "newTrustedSequencerURL",
          "type": "string"
        }
      ],
      "name": "SetTrustedSequencerURL",
      "type": "event"
    },
    {
      "anonymous": false,
      "inputs": [
        {
          "indexed": true,
          "internalType": "uint64",
          "name": "numBatch",
          "type": "uint64"
        },
        {
          "indexed": false,
          "internalType": "bytes32",
          "name": "stateRoot",
          "type": "bytes32"
        },
        {
          "indexed": true,
          "internalType": "address",
          "name": "aggregator",
          "type": "address"
        }
      ],
      "name": "VerifyBatches",
      "type": "event"
    },
    {
      "inputs": [],
      "name": "FORCE_BATCH_TIMEOUT",
      "outputs": [
        {
          "internalType": "uint64",
          "name": "",
          "type": "uint64"
        }
      ],
      "stateMutability": "view",
      "type": "function"
    },
    {
      "inputs": [],
      "name": "MAX_BATCH_LENGTH",
      "outputs": [
        {
          "internalType": "uint256",
          "name": "",
          "type": "uint256"
        }
      ],
      "stateMutability": "view",
      "type": "function"
    },
    {
      "inputs": [],
      "name": "TRUSTED_SEQUENCER_FEE",
      "outputs": [
        {
          "internalType": "uint256",
          "name": "",
          "type": "uint256"
        }
      ],
      "stateMutability": "view",
      "type": "function"
    },
    {
      "inputs": [],
      "name": "activateEmergencyState",
      "outputs": [],
      "stateMutability": "nonpayable",
      "type": "function"
    },
    {
      "inputs": [
        {
          "internalType": "uint64",
          "name": "",
          "type": "uint64"
        }
      ],
      "name": "batchNumToStateRoot",
      "outputs": [
        {
          "internalType": "bytes32",
          "name": "",
          "type": "bytes32"
        }
      ],
      "stateMutability": "view",
      "type": "function"
    },
    {
      "inputs": [],
      "name": "bridgeAddress",
      "outputs": [
        {
          "internalType": "contract IBridge",
          "name": "",
          "type": "address"
        }
      ],
      "stateMutability": "view",
      "type": "function"
    },
    {
      "inputs": [],
      "name": "calculateForceProverFee",
      "outputs": [
        {
          "internalType": "uint256",
          "name": "",
          "type": "uint256"
        }
      ],
      "stateMutability": "view",
      "type": "function"
    },
    {
      "inputs": [],
      "name": "calculateRewardPerBatch",
      "outputs": [
        {
          "internalType": "uint256",
          "name": "",
          "type": "uint256"
        }
      ],
      "stateMutability": "view",
      "type": "function"
    },
    {
      "inputs": [],
      "name": "chainID",
      "outputs": [
        {
          "internalType": "uint64",
          "name": "",
          "type": "uint64"
        }
      ],
      "stateMutability": "view",
      "type": "function"
    },
    {
      "inputs": [],
      "name": "deactivateEmergencyState",
      "outputs": [],
      "stateMutability": "nonpayable",
      "type": "function"
    },
    {
      "inputs": [
        {
          "internalType": "bytes",
          "name": "transactions",
          "type": "bytes"
        },
        {
          "internalType": "uint256",
          "name": "maticAmount",
          "type": "uint256"
        }
      ],
      "name": "forceBatch",
      "outputs": [],
      "stateMutability": "nonpayable",
      "type": "function"
    },
    {
      "inputs": [],
      "name": "forceBatchAllowed",
      "outputs": [
        {
          "internalType": "bool",
          "name": "",
          "type": "bool"
        }
      ],
      "stateMutability": "view",
      "type": "function"
    },
    {
      "inputs": [
        {
          "internalType": "uint64",
          "name": "",
          "type": "uint64"
        }
      ],
      "name": "forcedBatches",
      "outputs": [
        {
          "internalType": "bytes32",
          "name": "",
          "type": "bytes32"
        }
      ],
      "stateMutability": "view",
      "type": "function"
    },
    {
      "inputs": [
        {
          "internalType": "uint64",
          "name": "initNumBatch",
          "type": "uint64"
        },
        {
          "internalType": "uint64",
          "name": "finalNewBatch",
          "type": "uint64"
        },
        {
          "internalType": "bytes32",
          "name": "newLocalExitRoot",
          "type": "bytes32"
        },
        {
          "internalType": "bytes32",
          "name": "newStateRoot",
          "type": "bytes32"
        }
      ],
      "name": "getInputSnarkBytes",
      "outputs": [
        {
          "internalType": "bytes",
          "name": "",
          "type": "bytes"
        }
      ],
      "stateMutability": "view",
      "type": "function"
    },
    {
      "inputs": [],
      "name": "globalExitRootManager",
      "outputs": [
        {
          "internalType": "contract IGlobalExitRootManager",
          "name": "",
          "type": "address"
        }
      ],
      "stateMutability": "view",
      "type": "function"
    },
    {
      "inputs": [
        {
          "internalType": "contract IGlobalExitRootManager",
          "name": "_globalExitRootManager",
          "type": "address"
        },
        {
          "internalType": "contract IERC20Upgradeable",
          "name": "_matic",
          "type": "address"
        },
        {
          "internalType": "contract IVerifierRollup",
          "name": "_rollupVerifier",
          "type": "address"
        },
        {
          "internalType": "bytes32",
          "name": "genesisRoot",
          "type": "bytes32"
        },
        {
          "internalType": "address",
          "name": "_trustedSequencer",
          "type": "address"
        },
        {
          "internalType": "bool",
          "name": "_forceBatchAllowed",
          "type": "bool"
        },
        {
          "internalType": "string",
          "name": "_trustedSequencerURL",
          "type": "string"
        },
        {
          "internalType": "uint64",
          "name": "_chainID",
          "type": "uint64"
        },
        {
          "internalType": "string",
          "name": "_networkName",
          "type": "string"
        },
        {
          "internalType": "contract IBridge",
          "name": "_bridgeAddress",
          "type": "address"
        },
        {
          "internalType": "address",
          "name": "_securityCouncil",
          "type": "address"
        }
      ],
      "name": "initialize",
      "outputs": [],
      "stateMutability": "nonpayable",
      "type": "function"
    },
    {
      "inputs": [],
      "name": "isEmergencyState",
      "outputs": [
        {
          "internalType": "bool",
          "name": "",
          "type": "bool"
        }
      ],
      "stateMutability": "view",
      "type": "function"
    },
    {
      "inputs": [],
      "name": "lastBatchSequenced",
      "outputs": [
        {
          "internalType": "uint64",
          "name": "",
          "type": "uint64"
        }
      ],
      "stateMutability": "view",
      "type": "function"
    },
    {
      "inputs": [],
      "name": "lastForceBatch",
      "outputs": [
        {
          "internalType": "uint64",
          "name": "",
          "type": "uint64"
        }
      ],
      "stateMutability": "view",
      "type": "function"
    },
    {
      "inputs": [],
      "name": "lastForceBatchSequenced",
      "outputs": [
        {
          "internalType": "uint64",
          "name": "",
          "type": "uint64"
        }
      ],
      "stateMutability": "view",
      "type": "function"
    },
    {
      "inputs": [],
      "name": "lastTimestamp",
      "outputs": [
        {
          "internalType": "uint64",
          "name": "",
          "type": "uint64"
        }
      ],
      "stateMutability": "view",
      "type": "function"
    },
    {
      "inputs": [],
      "name": "lastVerifiedBatch",
      "outputs": [
        {
          "internalType": "uint64",
          "name": "",
          "type": "uint64"
        }
      ],
      "stateMutability": "view",
      "type": "function"
    },
    {
      "inputs": [],
      "name": "matic",
      "outputs": [
        {
          "internalType": "contract IERC20Upgradeable",
          "name": "",
          "type": "address"
        }
      ],
      "stateMutability": "view",
      "type": "function"
    },
    {
      "inputs": [],
      "name": "networkName",
      "outputs": [
        {
          "internalType": "string",
          "name": "",
          "type": "string"
        }
      ],
      "stateMutability": "view",
      "type": "function"
    },
    {
      "inputs": [],
      "name": "owner",
      "outputs": [
        {
          "internalType": "address",
          "name": "",
          "type": "address"
        }
      ],
      "stateMutability": "view",
      "type": "function"
    },
    {
      "inputs": [
        {
          "internalType": "uint64",
          "name": "initNumBatch",
          "type": "uint64"
        },
        {
          "internalType": "uint64",
          "name": "finalNewBatch",
          "type": "uint64"
        },
        {
          "internalType": "bytes32",
          "name": "newLocalExitRoot",
          "type": "bytes32"
        },
        {
          "internalType": "bytes32",
          "name": "newStateRoot",
          "type": "bytes32"
        },
        {
          "internalType": "uint256[2]",
          "name": "proofA",
          "type": "uint256[2]"
        },
        {
          "internalType": "uint256[2][2]",
          "name": "proofB",
          "type": "uint256[2][2]"
        },
        {
          "internalType": "uint256[2]",
          "name": "proofC",
          "type": "uint256[2]"
        }
      ],
      "name": "proofDifferentState",
      "outputs": [],
      "stateMutability": "nonpayable",
      "type": "function"
    },
    {
      "inputs": [],
      "name": "renounceOwnership",
      "outputs": [],
      "stateMutability": "nonpayable",
      "type": "function"
    },
    {
      "inputs": [],
      "name": "rollupVerifier",
      "outputs": [
        {
          "internalType": "contract IVerifierRollup",
          "name": "",
          "type": "address"
        }
      ],
      "stateMutability": "view",
      "type": "function"
    },
    {
      "inputs": [],
      "name": "securityCouncil",
      "outputs": [
        {
          "internalType": "address",
          "name": "",
          "type": "address"
        }
      ],
      "stateMutability": "view",
      "type": "function"
    },
    {
      "inputs": [
        {
          "components": [
            {
              "internalType": "bytes",
              "name": "transactions",
              "type": "bytes"
            },
            {
              "internalType": "bytes32",
              "name": "globalExitRoot",
              "type": "bytes32"
            },
            {
              "internalType": "uint64",
              "name": "timestamp",
              "type": "uint64"
            },
            {
              "internalType": "uint64",
              "name": "minForcedTimestamp",
              "type": "uint64"
            }
          ],
          "internalType": "struct ProofOfEfficiency.BatchData[]",
          "name": "batches",
          "type": "tuple[]"
        }
      ],
      "name": "sequenceBatches",
      "outputs": [],
      "stateMutability": "nonpayable",
      "type": "function"
    },
    {
      "inputs": [
        {
          "components": [
            {
              "internalType": "bytes",
              "name": "transactions",
              "type": "bytes"
            },
            {
              "internalType": "bytes32",
              "name": "globalExitRoot",
              "type": "bytes32"
            },
            {
              "internalType": "uint64",
              "name": "minForcedTimestamp",
              "type": "uint64"
            }
          ],
          "internalType": "struct ProofOfEfficiency.ForceBatchData[]",
          "name": "batches",
          "type": "tuple[]"
        }
      ],
      "name": "sequenceForceBatches",
      "outputs": [],
      "stateMutability": "nonpayable",
      "type": "function"
    },
    {
      "inputs": [
        {
          "internalType": "uint64",
          "name": "",
          "type": "uint64"
        }
      ],
      "name": "sequencedBatches",
      "outputs": [
        {
          "internalType": "bytes32",
          "name": "",
          "type": "bytes32"
        }
      ],
      "stateMutability": "view",
      "type": "function"
    },
    {
      "inputs": [
        {
          "internalType": "bool",
          "name": "newForceBatchAllowed",
          "type": "bool"
        }
      ],
      "name": "setForceBatchAllowed",
      "outputs": [],
      "stateMutability": "nonpayable",
      "type": "function"
    },
    {
      "inputs": [
        {
          "internalType": "address",
          "name": "newSecurityCouncil",
          "type": "address"
        }
      ],
      "name": "setSecurityCouncil",
      "outputs": [],
      "stateMutability": "nonpayable",
      "type": "function"
    },
    {
      "inputs": [
        {
          "internalType": "address",
          "name": "newTrustedSequencer",
          "type": "address"
        }
      ],
      "name": "setTrustedSequencer",
      "outputs": [],
      "stateMutability": "nonpayable",
      "type": "function"
    },
    {
      "inputs": [
        {
          "internalType": "string",
          "name": "newTrustedSequencerURL",
          "type": "string"
        }
      ],
      "name": "setTrustedSequencerURL",
      "outputs": [],
      "stateMutability": "nonpayable",
      "type": "function"
    },
    {
      "inputs": [
        {
          "internalType": "address",
          "name": "newOwner",
          "type": "address"
        }
      ],
      "name": "transferOwnership",
      "outputs": [],
      "stateMutability": "nonpayable",
      "type": "function"
    },
    {
      "inputs": [],
      "name": "trustedSequencer",
      "outputs": [
        {
          "internalType": "address",
          "name": "",
          "type": "address"
        }
      ],
      "stateMutability": "view",
      "type": "function"
    },
    {
      "inputs": [],
      "name": "trustedSequencerURL",
      "outputs": [
        {
          "internalType": "string",
          "name": "",
          "type": "string"
        }
      ],
      "stateMutability": "view",
      "type": "function"
    },
    {
      "inputs": [
        {
          "internalType": "uint64",
          "name": "initNumBatch",
          "type": "uint64"
        },
        {
          "internalType": "uint64",
          "name": "finalNewBatch",
          "type": "uint64"
        },
        {
          "internalType": "bytes32",
          "name": "newLocalExitRoot",
          "type": "bytes32"
        },
        {
          "internalType": "bytes32",
          "name": "newStateRoot",
          "type": "bytes32"
        },
        {
          "internalType": "uint256[2]",
          "name": "proofA",
          "type": "uint256[2]"
        },
        {
          "internalType": "uint256[2][2]",
          "name": "proofB",
          "type": "uint256[2][2]"
        },
        {
          "internalType": "uint256[2]",
          "name": "proofC",
          "type": "uint256[2]"
        }
      ],
      "name": "verifyBatches",
      "outputs": [],
      "stateMutability": "nonpayable",
      "type": "function"
    }
  ],
  "bytecode": "0x608060405234801561001057600080fd5b50614904806100206000396000f3fe608060405234801561001057600080fd5b50600436106102c85760003560e01c80638c4a0af71161017b578063cfa8ed47116100d8578063e7a7ed021161008c578063eaeb077b11610071578063eaeb077b14610687578063f2fde38b1461069a578063f7552761146106ad57600080fd5b8063e7a7ed0214610637578063e8bf92ed1461066757600080fd5b8063d8d1091b116100bd578063d8d1091b146105ef578063d8f54db014610602578063dbc169761461062f57600080fd5b8063cfa8ed47146105a3578063d02103ca146105cf57600080fd5b8063adc879e91161012f578063b4d63f5811610114578063b4d63f581461054b578063b6b0b0971461056b578063c89e42df1461059057600080fd5b8063adc879e91461052e578063b02286c01461054257600080fd5b806399f5634e1161016057806399f5634e146104fc578063a3c573eb14610504578063ab9fc5ef1461052457600080fd5b80638c4a0af7146104cb5780638da5cb5b146104de57600080fd5b8063542028d511610229578063715018a6116101dd57806379847057116101c2578063798470571461049c5780637fcb3653146104a457806381df7d3f146104b857600080fd5b8063715018a6146104815780637152facf1461048957600080fd5b80636766f09d1161020e5780636766f09d1461043b5780636b8616ce1461044e5780636ff512cc1461046e57600080fd5b8063542028d51461042057806355b925e61461042857600080fd5b806327eb6c0f11610280578063423fa85611610265578063423fa856146103aa57806345605267146103ca5780635392c5e0146103f257600080fd5b806327eb6c0f146103525780633c1582671461039757600080fd5b806319d8ac61116102b157806319d8ac61146103085780631c1083e2146103355780632072f6c51461034a57600080fd5b8063107bf28c146102cd57806315064c96146102eb575b600080fd5b6102d56106bc565b6040516102e29190613de5565b60405180910390f35b6065546102f89060ff1681565b60405190151581526020016102e2565b60685461031c9067ffffffffffffffff1681565b60405167ffffffffffffffff90911681526020016102e2565b610348610343366004613e2a565b61074a565b005b610348610856565b6070546103729073ffffffffffffffffffffffffffffffffffffffff1681565b60405173ffffffffffffffffffffffffffffffffffffffff90911681526020016102e2565b6103486103a5366004613f9f565b610907565b60685461031c9068010000000000000000900467ffffffffffffffff1681565b60685461031c90700100000000000000000000000000000000900467ffffffffffffffff1681565b6104126104003660046140b6565b606b6020526000908152604090205481565b6040519081526020016102e2565b6102d56111fe565b6103486104363660046140e8565b61120b565b6103486104493660046140e8565b6117d4565b61041261045c3660046140b6565b60666020526000908152604090205481565b61034861047c366004613e2a565b611df8565b610348611f12565b6102d561049736600461416b565b611f24565b61041261215a565b60695461031c9067ffffffffffffffff1681565b6103486104c63660046141c6565b6121d4565b6103486104d93660046142c0565b61252d565b60335473ffffffffffffffffffffffffffffffffffffffff16610372565b610412612647565b6071546103729073ffffffffffffffffffffffffffffffffffffffff1681565b61031c62093a8081565b606e5461031c9067ffffffffffffffff1681565b61041261ea6081565b6104126105593660046140b6565b60676020526000908152604090205481565b60655461037290610100900473ffffffffffffffffffffffffffffffffffffffff1681565b61034861059e3660046142dd565b612778565b6069546103729068010000000000000000900473ffffffffffffffffffffffffffffffffffffffff1681565b606a546103729073ffffffffffffffffffffffffffffffffffffffff1681565b6103486105fd36600461431a565b61284d565b6069546102f8907c0100000000000000000000000000000000000000000000000000000000900460ff1681565b610348612ef2565b60685461031c907801000000000000000000000000000000000000000000000000900467ffffffffffffffff1681565b606c546103729073ffffffffffffffffffffffffffffffffffffffff1681565b61034861069536600461440d565b613082565b6103486106a8366004613e2a565b613582565b61041267016345785d8a000081565b606f80546106c990614452565b80601f01602080910402602001604051908101604052809291908181526020018280546106f590614452565b80156107425780601f1061071757610100808354040283529160200191610742565b820191906000526020600020905b81548152906001019060200180831161072557829003601f168201915b505050505081565b60705473ffffffffffffffffffffffffffffffffffffffff1633146107dc5760405162461bcd60e51b815260206004820152603d60248201527f50726f6f664f66456666696369656e63793a3a6f6e6c7953656375726974794360448201527f6f756e63696c3a206f6e6c7920736563757269747920636f756e63696c00000060648201526084015b60405180910390fd5b607080547fffffffffffffffffffffffff00000000000000000000000000000000000000001673ffffffffffffffffffffffffffffffffffffffff83169081179091556040519081527f373a9d1d60f01a33ff86d540991f09f5c5d7482656794de80be077c5eb9693d9906020015b60405180910390a150565b60655460ff16156108f55760405162461bcd60e51b815260206004820152604260248201527f456d657267656e63794d616e616765723a3a69664e6f74456d657267656e637960448201527f53746174653a206f6e6c79206966206e6f7420656d657267656e63792073746160648201527f7465000000000000000000000000000000000000000000000000000000000000608482015260a4016107d3565b6108fd61361f565b610905613686565b565b60655460ff16156109a65760405162461bcd60e51b815260206004820152604260248201527f456d657267656e63794d616e616765723a3a69664e6f74456d657267656e637960448201527f53746174653a206f6e6c79206966206e6f7420656d657267656e63792073746160648201527f7465000000000000000000000000000000000000000000000000000000000000608482015260a4016107d3565b60695468010000000000000000900473ffffffffffffffffffffffffffffffffffffffff163314610a3f5760405162461bcd60e51b815260206004820152603f60248201527f50726f6f664f66456666696369656e63793a3a6f6e6c7954727573746564536560448201527f7175656e6365723a206f6e6c7920747275737465642073657175656e6365720060648201526084016107d3565b805160685467ffffffffffffffff680100000000000000008204811660008181526067602052604081205483851694929370010000000000000000000000000000000090930490921691905b85811015610fef576000878281518110610aa757610aa76144a5565b602002602001015190506000816060015167ffffffffffffffff161115610cc05783610ad281614503565b945050600081600001518051906020012082602001518360600151604051602001610b3593929190928352602083019190915260c01b7fffffffffffffffff00000000000000000000000000000000000000000000000016604082015260480190565b60408051601f19818403018152918152815160209283012067ffffffffffffffff8816600090815260669093529120549091508114610c025760405162461bcd60e51b815260206004820152604260248201527f50726f6f664f66456666696369656e63793a3a73657175656e6365426174636860448201527f65733a20466f7263656420626174636865732064617461206d757374206d617460648201527f6368000000000000000000000000000000000000000000000000000000000000608482015260a4016107d3565b816060015167ffffffffffffffff16826040015167ffffffffffffffff161015610cba5760405162461bcd60e51b815260206004820152605d60248201527f50726f6f664f66456666696369656e63793a3a73657175656e6365426174636860448201527f65733a20466f7263656420626174636865732074696d657374616d70206d757360648201527f7420626520626967676572206f7220657175616c207468616e206d696e000000608482015260a4016107d3565b50610e5a565b60208101511580610d6f5750606a5460208201516040517f257b363200000000000000000000000000000000000000000000000000000000815273ffffffffffffffffffffffffffffffffffffffff9092169163257b363291610d299160040190815260200190565b6020604051808303816000875af1158015610d48573d6000803e3d6000fd5b505050506040513d601f19601f82011682018060405250810190610d6c919061452a565b15155b610de15760405162461bcd60e51b815260206004820152603f60248201527f50726f6f664f66456666696369656e63793a3a73657175656e6365426174636860448201527f65733a20476c6f62616c206578697420726f6f74206d7573742065786973740060648201526084016107d3565b80515161ea6011610e5a5760405162461bcd60e51b815260206004820152603f60248201527f50726f6f664f66456666696369656e63793a3a73657175656e6365426174636860448201527f65733a205472616e73616374696f6e73206279746573206f766572666c6f770060648201526084016107d3565b8567ffffffffffffffff16816040015167ffffffffffffffff1610158015610e90575042816040015167ffffffffffffffff1611155b610f285760405162461bcd60e51b815260206004820152604260248201527f50726f6f664f66456666696369656e63793a3a73657175656e6365426174636860448201527f65733a2054696d657374616d70206d75737420626520696e736964652072616e60648201527f6765000000000000000000000000000000000000000000000000000000000000608482015260a4016107d3565b805180516020918201208183015160408085015181519485018890529084019290925260608084019190915260c09190911b7fffffffffffffffff00000000000000000000000000000000000000000000000016608083015233901b7fffffffffffffffffffffffffffffffffffffffff000000000000000000000000166088820152609c016040516020818303038152906040528051906020012092508480610fd190614503565b95505080604001519550508080610fe790614543565b915050610a8b565b5060685467ffffffffffffffff7801000000000000000000000000000000000000000000000000909104811690831611156110925760405162461bcd60e51b815260206004820152603a60248201527f50726f6f664f66456666696369656e63793a3a73657175656e6365426174636860448201527f65733a20466f7263652062617463686573206f766572666c6f7700000000000060648201526084016107d3565b6068546000906110c090700100000000000000000000000000000000900467ffffffffffffffff168461457b565b6110d49067ffffffffffffffff16876145a4565b6068805467ffffffffffffffff868116700100000000000000000000000000000000027fffffffffffffffff0000000000000000ffffffffffffffffffffffffffffffff8983166801000000000000000081027fffffffffffffffffffffffffffffffff00000000000000000000000000000000909516938c1693909317939093179290921691909117909155600090815260676020526040902083905590506111b1333061118b8467016345785d8a00006145bb565b606554610100900473ffffffffffffffffffffffffffffffffffffffff16929190613710565b6068546040516801000000000000000090910467ffffffffffffffff16907f303446e6a8cb73c83dff421c0b1d5e5ce0719dab1bff13660fc254e58cc17fce90600090a250505050505050565b606d80546106c990614452565b60655460ff16156112aa5760405162461bcd60e51b815260206004820152604260248201527f456d657267656e63794d616e616765723a3a69664e6f74456d657267656e637960448201527f53746174653a206f6e6c79206966206e6f7420656d657267656e63792073746160648201527f7465000000000000000000000000000000000000000000000000000000000000608482015260a4016107d3565b60695467ffffffffffffffff90811690881611156113565760405162461bcd60e51b815260206004820152605b60248201527f50726f6f664f66456666696369656e63793a3a7665726966794261746368657360448201527f3a20696e69744e756d4261746368206d757374206265206c657373206f72206560648201527f7175616c207468616e206c617374566572696669656442617463680000000000608482015260a4016107d3565b60695467ffffffffffffffff908116908716116114015760405162461bcd60e51b815260206004820152605560248201527f50726f6f664f66456666696369656e63793a3a7665726966794261746368657360448201527f3a2066696e616c4e65774261746368206d75737420626520626967676572207460648201527f68616e206c617374566572696669656442617463680000000000000000000000608482015260a4016107d3565b67ffffffffffffffff87166000908152606b60205260409020546114b35760405162461bcd60e51b815260206004820152604860248201527f50726f6f664f66456666696369656e63793a3a7665726966794261746368657360448201527f3a20696e69744e756d426174636820737461746520726f6f7420646f6573206e60648201527f6f74206578697374000000000000000000000000000000000000000000000000608482015260a4016107d3565b60006114c188888888611f24565b905060007f30644e72e131a029b85045b68181585d2833e84879b9709143e1f593f00000016002836040516114f691906145f8565b602060405180830381855afa158015611513573d6000803e3d6000fd5b5050506040513d601f19601f82011682018060405250810190611536919061452a565b6115409190614643565b606c546040805160208101825283815290517f43753b4d00000000000000000000000000000000000000000000000000000000815292935073ffffffffffffffffffffffffffffffffffffffff909116916343753b4d916115aa9189918991899190600401614657565b602060405180830381865afa1580156115c7573d6000803e3d6000fd5b505050506040513d601f19601f820116820180604052508101906115eb91906146d1565b61165d5760405162461bcd60e51b815260206004820152602f60248201527f50726f6f664f66456666696369656e63793a3a7665726966794261746368657360448201527f3a20494e56414c49445f50524f4f46000000000000000000000000000000000060648201526084016107d3565b6069546116bb90339061167a9067ffffffffffffffff168b61457b565b67ffffffffffffffff1661168c612647565b61169691906145bb565b606554610100900473ffffffffffffffffffffffffffffffffffffffff1691906137ce565b606980547fffffffffffffffffffffffffffffffffffffffffffffffff00000000000000001667ffffffffffffffff8a169081179091556000908152606b602052604090819020879055606a5490517f33d6247d0000000000000000000000000000000000000000000000000000000081526004810189905273ffffffffffffffffffffffffffffffffffffffff909116906333d6247d90602401600060405180830381600087803b15801561177057600080fd5b505af1158015611784573d6000803e3d6000fd5b505060405188815233925067ffffffffffffffff8b1691507f9c72852172521097ba7e1482e6b44b351323df0155f97f4ea18fcec28e1f59669060200160405180910390a3505050505050505050565b60655460ff16156118735760405162461bcd60e51b815260206004820152604260248201527f456d657267656e63794d616e616765723a3a69664e6f74456d657267656e637960448201527f53746174653a206f6e6c79206966206e6f7420656d657267656e63792073746160648201527f7465000000000000000000000000000000000000000000000000000000000000608482015260a4016107d3565b8567ffffffffffffffff168767ffffffffffffffff16106119225760405162461bcd60e51b815260206004820152605660248201527f50726f6f664f66456666696369656e63793a3a70726f6f66446966666572656e60448201527f7453746174653a2066696e616c4e65774261746368206d75737420626520626960648201527f67676572207468616e20696e69744e756d426174636800000000000000000000608482015260a4016107d3565b60695467ffffffffffffffff90811690871611156119ce5760405162461bcd60e51b815260206004820152605860248201527f50726f6f664f66456666696369656e63793a3a70726f6f66446966666572656e60448201527f7453746174653a20696e69744e756d4261746368206d757374206265206c657360648201527f73207468616e206c617374566572696669656442617463680000000000000000608482015260a4016107d3565b67ffffffffffffffff87166000908152606b6020526040902054611a805760405162461bcd60e51b815260206004820152604e60248201527f50726f6f664f66456666696369656e63793a3a70726f6f66446966666572656e60448201527f7453746174653a20696e69744e756d426174636820737461746520726f6f742060648201527f646f6573206e6f74206578697374000000000000000000000000000000000000608482015260a4016107d3565b67ffffffffffffffff86166000908152606b6020526040902054611b325760405162461bcd60e51b815260206004820152604f60248201527f50726f6f664f66456666696369656e63793a3a70726f6f66446966666572656e60448201527f7453746174653a2066696e616c4e6577426174636820737461746520726f6f7460648201527f20646f6573206e6f742065786973740000000000000000000000000000000000608482015260a4016107d3565b6000611b4088888888611f24565b905060007f30644e72e131a029b85045b68181585d2833e84879b9709143e1f593f0000001600283604051611b7591906145f8565b602060405180830381855afa158015611b92573d6000803e3d6000fd5b5050506040513d601f19601f82011682018060405250810190611bb5919061452a565b611bbf9190614643565b606c546040805160208101825283815290517f43753b4d00000000000000000000000000000000000000000000000000000000815292935073ffffffffffffffffffffffffffffffffffffffff909116916343753b4d91611c299189918991899190600401614657565b602060405180830381865afa158015611c46573d6000803e3d6000fd5b505050506040513d601f19601f82011682018060405250810190611c6a91906146d1565b611cdc5760405162461bcd60e51b815260206004820152603560248201527f50726f6f664f66456666696369656e63793a3a70726f6f66446966666572656e60448201527f7453746174653a20494e56414c49445f50524f4f46000000000000000000000060648201526084016107d3565b67ffffffffffffffff88166000908152606b6020526040902054869003611d915760405162461bcd60e51b815260206004820152605960248201527f50726f6f664f66456666696369656e63793a3a70726f6f66446966666572656e60448201527f7453746174653a2073746f72656420726f6f74206d757374206265206469666660648201527f6572656e74207468616e206e657720737461746520726f6f7400000000000000608482015260a4016107d3565b67ffffffffffffffff88166000908152606b60209081526040918290205482519081529081018890527fe579d6d18f02941e1d0f59bff70f1b2c894edc991badab38343786df2846fe55910160405180910390a1611ded613686565b505050505050505050565b60695468010000000000000000900473ffffffffffffffffffffffffffffffffffffffff163314611e915760405162461bcd60e51b815260206004820152603f60248201527f50726f6f664f66456666696369656e63793a3a6f6e6c7954727573746564536560448201527f7175656e6365723a206f6e6c7920747275737465642073657175656e6365720060648201526084016107d3565b606980547fffffffff0000000000000000000000000000000000000000ffffffffffffffff166801000000000000000073ffffffffffffffffffffffffffffffffffffffff8416908102919091179091556040519081527ff54144f9611984021529f814a1cb6a41e22c58351510a0d9f7e822618abb9cc09060200161084b565b611f1a61361f565b6109056000613829565b67ffffffffffffffff808516600081815260676020526040808220549387168252902054606092911580611f5757508115155b611fef5760405162461bcd60e51b815260206004820152604560248201527f50726f6f664f66456666696369656e63793a3a676574496e707574536e61726b60448201527f42797465733a206f6c64416363496e7075744861736820646f6573206e6f742060648201527f6578697374000000000000000000000000000000000000000000000000000000608482015260a4016107d3565b806120885760405162461bcd60e51b815260206004820152604560248201527f50726f6f664f66456666696369656e63793a3a676574496e707574536e61726b60448201527f42797465733a206e6577416363496e7075744861736820646f6573206e6f742060648201527f6578697374000000000000000000000000000000000000000000000000000000608482015260a4016107d3565b67ffffffffffffffff87166000908152606b602090815260409182902054606e5492517fffffffffffffffffffffffffffffffffffffffff0000000000000000000000003360601b16928101929092526034820152605481018490527fffffffffffffffff00000000000000000000000000000000000000000000000060c08a811b8216607484015292831b8116607c8301526084820187905260a4820184905260c482018890529188901b90911660e482015260ec0160405160208183030381529060405292505050949350505050565b60685460009067ffffffffffffffff70010000000000000000000000000000000082048116916121a99178010000000000000000000000000000000000000000000000009091041660016146ee565b6121b3919061457b565b6121cf9067ffffffffffffffff16670de0b6b3a76400006145bb565b905090565b600054610100900460ff16158080156121f45750600054600160ff909116105b8061220e5750303b15801561220e575060005460ff166001145b6122805760405162461bcd60e51b815260206004820152602e60248201527f496e697469616c697a61626c653a20636f6e747261637420697320616c72656160448201527f647920696e697469616c697a656400000000000000000000000000000000000060648201526084016107d3565b600080547fffffffffffffffffffffffffffffffffffffffffffffffffffffffffffffff0016600117905580156122de57600080547fffffffffffffffffffffffffffffffffffffffffffffffffffffffffffff00ff166101001790555b606a80547fffffffffffffffffffffffff000000000000000000000000000000000000000090811673ffffffffffffffffffffffffffffffffffffffff8f811691909117909255606580547fffffffffffffffffffffff0000000000000000000000000000000000000000ff166101008f851602179055606c80549091168c831617905560008052606b6020527fc8cc8bda7ad4886bea3ebbdafa02e79d37c39bf4011696b26a31a0802fd9458b8a9055606980547fffffff000000000000000000000000000000000000000000ffffffffffffffff1668010000000000000000928b16929092027fffffff00ffffffffffffffffffffffffffffffffffffffffffffffffffffffff16919091177c010000000000000000000000000000000000000000000000000000000089151502179055606d61241d8782614768565b50606e80547fffffffffffffffffffffffffffffffffffffffffffffffff00000000000000001667ffffffffffffffff8716179055606f61245e8582614768565b506071805473ffffffffffffffffffffffffffffffffffffffff8086167fffffffffffffffffffffffff00000000000000000000000000000000000000009283161790925560708054928516929091169190911790556124bc6138a0565b801561251f57600080547fffffffffffffffffffffffffffffffffffffffffffffffffffffffffffff00ff169055604051600181527f7f26b83ff96e1f2b6a682f133852f6798a09c465da95921460cefb38474024989060200160405180910390a15b505050505050505050505050565b60695468010000000000000000900473ffffffffffffffffffffffffffffffffffffffff1633146125c65760405162461bcd60e51b815260206004820152603f60248201527f50726f6f664f66456666696369656e63793a3a6f6e6c7954727573746564536560448201527f7175656e6365723a206f6e6c7920747275737465642073657175656e6365720060648201526084016107d3565b606980548215157c0100000000000000000000000000000000000000000000000000000000027fffffff00ffffffffffffffffffffffffffffffffffffffffffffffffffffffff9091161790556040517fbacda50a4a8575be1d91a7ebe29ee45056f3a94f12a2281eb6b43afa33bcefe69061084b90831515815260200190565b6065546040517f70a08231000000000000000000000000000000000000000000000000000000008152306004820152600091829161010090910473ffffffffffffffffffffffffffffffffffffffff16906370a0823190602401602060405180830381865afa1580156126be573d6000803e3d6000fd5b505050506040513d601f19601f820116820180604052508101906126e2919061452a565b60695460685491925060009167ffffffffffffffff91821691680100000000000000008204811691612747917001000000000000000000000000000000008204811691780100000000000000000000000000000000000000000000000090041661457b565b61275191906146ee565b61275b919061457b565b67ffffffffffffffff1690506127718183614864565b9250505090565b60695468010000000000000000900473ffffffffffffffffffffffffffffffffffffffff1633146128115760405162461bcd60e51b815260206004820152603f60248201527f50726f6f664f66456666696369656e63793a3a6f6e6c7954727573746564536560448201527f7175656e6365723a206f6e6c7920747275737465642073657175656e6365720060648201526084016107d3565b606d61281d8282614768565b507f6b8f723a4c7a5335cafae8a598a0aa0301be1387c037dccc085b62add6448b208160405161084b9190613de5565b60655460ff16156128ec5760405162461bcd60e51b815260206004820152604260248201527f456d657267656e63794d616e616765723a3a69664e6f74456d657267656e637960448201527f53746174653a206f6e6c79206966206e6f7420656d657267656e63792073746160648201527f7465000000000000000000000000000000000000000000000000000000000000608482015260a4016107d3565b6069547c0100000000000000000000000000000000000000000000000000000000900460ff1615156001146129af5760405162461bcd60e51b815260206004820152604860248201527f50726f6f664f66456666696369656e63793a3a6973466f72636542617463684160448201527f6c6c6f7765643a206f6e6c7920696620666f726365206261746368206973206160648201527f7661696c61626c65000000000000000000000000000000000000000000000000608482015260a4016107d3565b805180612a4a5760405162461bcd60e51b815260206004820152604260248201527f50726f6f664f66456666696369656e63793a3a73657175656e6365466f72636560448201527f42617463683a204d75737420666f726365206174206c6561737420312062617460648201527f6368000000000000000000000000000000000000000000000000000000000000608482015260a4016107d3565b60685467ffffffffffffffff78010000000000000000000000000000000000000000000000008204811691612a95918491700100000000000000000000000000000000900416614878565b1115612b095760405162461bcd60e51b815260206004820152603a60248201527f50726f6f664f66456666696369656e63793a3a73657175656e6365466f72636560448201527f42617463683a20466f72636520626174636820696e76616c696400000000000060648201526084016107d3565b60685467ffffffffffffffff680100000000000000008204811660008181526067602052604081205491937001000000000000000000000000000000009004909216915b84811015612e22576000868281518110612b6957612b696144a5565b602002602001015190508380612b7e90614503565b825180516020918201208185015160408087015181519485019390935283015260c01b7fffffffffffffffff0000000000000000000000000000000000000000000000001660608201529095506000915060680160408051601f19818403018152918152815160209283012067ffffffffffffffff8816600090815260669093529120549091508114612c9f5760405162461bcd60e51b815260206004820152604760248201527f50726f6f664f66456666696369656e63793a3a73657175656e6365466f72636560448201527f426174636865733a20466f7263656420626174636865732064617461206d757360648201527f74206d6174636800000000000000000000000000000000000000000000000000608482015260a4016107d3565b612caa6001886145a4565b8303612d68574262093a808360400151612cc491906146ee565b67ffffffffffffffff161115612d685760405162461bcd60e51b815260206004820152604c60248201527f50726f6f664f66456666696369656e63793a3a73657175656e6365466f72636560448201527f42617463683a20466f72636564206261746368206973206e6f7420696e20746960648201527f6d656f757420706572696f640000000000000000000000000000000000000000608482015260a4016107d3565b8151805160209182012081840151604080519384018890528301919091526060808301919091524260c01b7fffffffffffffffff00000000000000000000000000000000000000000000000016608083015233901b7fffffffffffffffffffffffffffffffffffffffff000000000000000000000000166088820152609c016040516020818303038152906040528051906020012093508580612e0a90614503565b96505050508080612e1a90614543565b915050612b4d565b50606880544267ffffffffffffffff9081167fffffffffffffffffffffffffffffffff000000000000000000000000000000009092169190911768010000000000000000868316818102929092177fffffffffffffffff0000000000000000ffffffffffffffffffffffffffffffff1670010000000000000000000000000000000087851602178455600091825260676020526040808320869055935493519304909116917f648a61dd2438f072f5a1960939abd30f37aea80d2e94c9792ad142d3e0a490a49190a25050505050565b60655460ff1615612f6b5760405162461bcd60e51b815260206004820152603b60248201527f456d657267656e63794d616e616765723a3a6966456d657267656e637953746160448201527f74653a206f6e6c7920696620656d657267656e6379207374617465000000000060648201526084016107d3565b60705473ffffffffffffffffffffffffffffffffffffffff163314612ff85760405162461bcd60e51b815260206004820152603d60248201527f50726f6f664f66456666696369656e63793a3a6f6e6c7953656375726974794360448201527f6f756e63696c3a206f6e6c7920736563757269747920636f756e63696c00000060648201526084016107d3565b607160009054906101000a900473ffffffffffffffffffffffffffffffffffffffff1673ffffffffffffffffffffffffffffffffffffffff1663dbc169766040518163ffffffff1660e01b8152600401600060405180830381600087803b15801561306257600080fd5b505af1158015613076573d6000803e3d6000fd5b50505050610905613926565b60655460ff16156131215760405162461bcd60e51b815260206004820152604260248201527f456d657267656e63794d616e616765723a3a69664e6f74456d657267656e637960448201527f53746174653a206f6e6c79206966206e6f7420656d657267656e63792073746160648201527f7465000000000000000000000000000000000000000000000000000000000000608482015260a4016107d3565b6069547c0100000000000000000000000000000000000000000000000000000000900460ff1615156001146131e45760405162461bcd60e51b815260206004820152604860248201527f50726f6f664f66456666696369656e63793a3a6973466f72636542617463684160448201527f6c6c6f7765643a206f6e6c7920696620666f726365206261746368206973206160648201527f7661696c61626c65000000000000000000000000000000000000000000000000608482015260a4016107d3565b60006131ee61215a565b9050818111156132665760405162461bcd60e51b815260206004820152602f60248201527f50726f6f664f66456666696369656e63793a3a666f72636542617463683a206e60448201527f6f7420656e6f756768206d61746963000000000000000000000000000000000060648201526084016107d3565b61ea608351106132de5760405162461bcd60e51b815260206004820152603a60248201527f50726f6f664f66456666696369656e63793a3a666f72636542617463683a205460448201527f72616e73616374696f6e73206279746573206f766572666c6f7700000000000060648201526084016107d3565b60655461330890610100900473ffffffffffffffffffffffffffffffffffffffff16333084613710565b606a54604080517f3ed691ef000000000000000000000000000000000000000000000000000000008152905160009273ffffffffffffffffffffffffffffffffffffffff1691633ed691ef9160048083019260209291908290030181865afa158015613378573d6000803e3d6000fd5b505050506040513d601f19601f8201168201806040525081019061339c919061452a565b60688054919250780100000000000000000000000000000000000000000000000090910467ffffffffffffffff169060186133d683614503565b91906101000a81548167ffffffffffffffff021916908367ffffffffffffffff160217905550508380519060200120814260405160200161344f93929190928352602083019190915260c01b7fffffffffffffffff00000000000000000000000000000000000000000000000016604082015260480190565b60408051808303601f1901815291815281516020928301206068547801000000000000000000000000000000000000000000000000900467ffffffffffffffff166000908152606690935291205532330361351f57606854604080518381523360208201526060918101829052600091810191909152780100000000000000000000000000000000000000000000000090910467ffffffffffffffff16907ff94bb37db835f1ab585ee00041849a09b12cd081d77fa15ca070757619cbc9319060800160405180910390a261357c565b606860189054906101000a900467ffffffffffffffff1667ffffffffffffffff167ff94bb37db835f1ab585ee00041849a09b12cd081d77fa15ca070757619cbc93182338760405161357393929190614890565b60405180910390a25b50505050565b61358a61361f565b73ffffffffffffffffffffffffffffffffffffffff81166136135760405162461bcd60e51b815260206004820152602660248201527f4f776e61626c653a206e6577206f776e657220697320746865207a65726f206160448201527f646472657373000000000000000000000000000000000000000000000000000060648201526084016107d3565b61361c81613829565b50565b60335473ffffffffffffffffffffffffffffffffffffffff1633146109055760405162461bcd60e51b815260206004820181905260248201527f4f776e61626c653a2063616c6c6572206973206e6f7420746865206f776e657260448201526064016107d3565b607160009054906101000a900473ffffffffffffffffffffffffffffffffffffffff1673ffffffffffffffffffffffffffffffffffffffff16632072f6c56040518163ffffffff1660e01b8152600401600060405180830381600087803b1580156136f057600080fd5b505af1158015613704573d6000803e3d6000fd5b505050506109056139f2565b60405173ffffffffffffffffffffffffffffffffffffffff8085166024830152831660448201526064810182905261357c9085907f23b872dd00000000000000000000000000000000000000000000000000000000906084015b60408051601f198184030181529190526020810180517bffffffffffffffffffffffffffffffffffffffffffffffffffffffff167fffffffff0000000000000000000000000000000000000000000000000000000090931692909217909152613ae7565b60405173ffffffffffffffffffffffffffffffffffffffff83166024820152604481018290526138249084907fa9059cbb000000000000000000000000000000000000000000000000000000009060640161376a565b505050565b6033805473ffffffffffffffffffffffffffffffffffffffff8381167fffffffffffffffffffffffff0000000000000000000000000000000000000000831681179093556040519116919082907f8be0079c531659141344cd1fd0a4f28419497f9722a3daafe3b4186f6b6457e090600090a35050565b600054610100900460ff1661391d5760405162461bcd60e51b815260206004820152602b60248201527f496e697469616c697a61626c653a20636f6e7472616374206973206e6f74206960448201527f6e697469616c697a696e6700000000000000000000000000000000000000000060648201526084016107d3565b61090533613829565b60655460ff161561399f5760405162461bcd60e51b815260206004820152603b60248201527f456d657267656e63794d616e616765723a3a6966456d657267656e637953746160448201527f74653a206f6e6c7920696620656d657267656e6379207374617465000000000060648201526084016107d3565b606580547fffffffffffffffffffffffffffffffffffffffffffffffffffffffffffffff001690556040517f1e5e34eea33501aecf2ebec9fe0e884a40804275ea7fe10b2ba084c8374308b390600090a1565b60655460ff1615613a915760405162461bcd60e51b815260206004820152604260248201527f456d657267656e63794d616e616765723a3a69664e6f74456d657267656e637960448201527f53746174653a206f6e6c79206966206e6f7420656d657267656e63792073746160648201527f7465000000000000000000000000000000000000000000000000000000000000608482015260a4016107d3565b606580547fffffffffffffffffffffffffffffffffffffffffffffffffffffffffffffff001660011790556040517f2261efe5aef6fedc1fd1550b25facc9181745623049c7901287030b9ad1a549790600090a1565b6000613b49826040518060400160405280602081526020017f5361666545524332303a206c6f772d6c6576656c2063616c6c206661696c65648152508573ffffffffffffffffffffffffffffffffffffffff16613bd99092919063ffffffff16565b8051909150156138245780806020019051810190613b6791906146d1565b6138245760405162461bcd60e51b815260206004820152602a60248201527f5361666545524332303a204552433230206f7065726174696f6e20646964206e60448201527f6f7420737563636565640000000000000000000000000000000000000000000060648201526084016107d3565b6060613be88484600085613bf2565b90505b9392505050565b606082471015613c6a5760405162461bcd60e51b815260206004820152602660248201527f416464726573733a20696e73756666696369656e742062616c616e636520666f60448201527f722063616c6c000000000000000000000000000000000000000000000000000060648201526084016107d3565b73ffffffffffffffffffffffffffffffffffffffff85163b613cce5760405162461bcd60e51b815260206004820152601d60248201527f416464726573733a2063616c6c20746f206e6f6e2d636f6e747261637400000060448201526064016107d3565b6000808673ffffffffffffffffffffffffffffffffffffffff168587604051613cf791906145f8565b60006040518083038185875af1925050503d8060008114613d34576040519150601f19603f3d011682016040523d82523d6000602084013e613d39565b606091505b5091509150613d49828286613d54565b979650505050505050565b60608315613d63575081613beb565b825115613d735782518084602001fd5b8160405162461bcd60e51b81526004016107d39190613de5565b60005b83811015613da8578181015183820152602001613d90565b8381111561357c5750506000910152565b60008151808452613dd1816020860160208601613d8d565b601f01601f19169290920160200192915050565b602081526000613beb6020830184613db9565b73ffffffffffffffffffffffffffffffffffffffff8116811461361c57600080fd5b8035613e2581613df8565b919050565b600060208284031215613e3c57600080fd5b8135613beb81613df8565b7f4e487b7100000000000000000000000000000000000000000000000000000000600052604160045260246000fd5b6040516080810167ffffffffffffffff81118282101715613e9957613e99613e47565b60405290565b6040516060810167ffffffffffffffff81118282101715613e9957613e99613e47565b604051601f8201601f1916810167ffffffffffffffff81118282101715613eeb57613eeb613e47565b604052919050565b600067ffffffffffffffff821115613f0d57613f0d613e47565b5060051b60200190565b600082601f830112613f2857600080fd5b813567ffffffffffffffff811115613f4257613f42613e47565b613f556020601f19601f84011601613ec2565b818152846020838601011115613f6a57600080fd5b816020850160208301376000918101602001919091529392505050565b803567ffffffffffffffff81168114613e2557600080fd5b60006020808385031215613fb257600080fd5b823567ffffffffffffffff80821115613fca57600080fd5b818501915085601f830112613fde57600080fd5b8135613ff1613fec82613ef3565b613ec2565b81815260059190911b8301840190848101908883111561401057600080fd5b8585015b838110156140a95780358581111561402c5760008081fd5b86016080818c03601f19018113156140445760008081fd5b61404c613e76565b898301358881111561405e5760008081fd5b61406c8e8c83870101613f17565b8252506040808401358b8301526060614086818601613f87565b82840152614095848601613f87565b908301525085525050918601918601614014565b5098975050505050505050565b6000602082840312156140c857600080fd5b613beb82613f87565b80604081018310156140e257600080fd5b92915050565b6000806000806000806000610180888a03121561410457600080fd5b61410d88613f87565b965061411b60208901613f87565b955060408801359450606088013593506141388960808a016140d1565b925061014088018981111561414c57600080fd5b60c08901925061415c8a826140d1565b91505092959891949750929550565b6000806000806080858703121561418157600080fd5b61418a85613f87565b935061419860208601613f87565b93969395505050506040820135916060013590565b801515811461361c57600080fd5b8035613e25816141ad565b60008060008060008060008060008060006101608c8e0312156141e857600080fd5b6141f18c613e1a565b9a506141ff60208d01613e1a565b995061420d60408d01613e1a565b985060608c0135975061422260808d01613e1a565b965061423060a08d016141bb565b955067ffffffffffffffff8060c08e0135111561424c57600080fd5b61425c8e60c08f01358f01613f17565b955061426a60e08e01613f87565b9450806101008e0135111561427e57600080fd5b506142908d6101008e01358e01613f17565b925061429f6101208d01613e1a565b91506142ae6101408d01613e1a565b90509295989b509295989b9093969950565b6000602082840312156142d257600080fd5b8135613beb816141ad565b6000602082840312156142ef57600080fd5b813567ffffffffffffffff81111561430657600080fd5b61431284828501613f17565b949350505050565b6000602080838503121561432d57600080fd5b823567ffffffffffffffff8082111561434557600080fd5b818501915085601f83011261435957600080fd5b8135614367613fec82613ef3565b81815260059190911b8301840190848101908883111561438657600080fd5b8585015b838110156140a9578035858111156143a25760008081fd5b86016060818c03601f19018113156143ba5760008081fd5b6143c2613e9f565b89830135888111156143d45760008081fd5b6143e28e8c83870101613f17565b8252506040808401358b8301526143fa838501613f87565b908201528552505091860191860161438a565b6000806040838503121561442057600080fd5b823567ffffffffffffffff81111561443757600080fd5b61444385828601613f17565b95602094909401359450505050565b600181811c9082168061446657607f821691505b60208210810361449f577f4e487b7100000000000000000000000000000000000000000000000000000000600052602260045260246000fd5b50919050565b7f4e487b7100000000000000000000000000000000000000000000000000000000600052603260045260246000fd5b7f4e487b7100000000000000000000000000000000000000000000000000000000600052601160045260246000fd5b600067ffffffffffffffff808316818103614520576145206144d4565b6001019392505050565b60006020828403121561453c57600080fd5b5051919050565b60007fffffffffffffffffffffffffffffffffffffffffffffffffffffffffffffffff8203614574576145746144d4565b5060010190565b600067ffffffffffffffff8381169083168181101561459c5761459c6144d4565b039392505050565b6000828210156145b6576145b66144d4565b500390565b6000817fffffffffffffffffffffffffffffffffffffffffffffffffffffffffffffffff04831182151516156145f3576145f36144d4565b500290565b6000825161460a818460208701613d8d565b9190910192915050565b7f4e487b7100000000000000000000000000000000000000000000000000000000600052601260045260246000fd5b60008261465257614652614614565b500690565b61012081016040808784376000838201818152879190815b600281101561468f5784848337908401828152928401929060010161466f565b5050828760c0870137610100850181815286935091505b60018110156146c55782518252602092830192909101906001016146a6565b50505095945050505050565b6000602082840312156146e357600080fd5b8151613beb816141ad565b600067ffffffffffffffff808316818516808303821115614711576147116144d4565b01949350505050565b601f82111561382457600081815260208120601f850160051c810160208610156147415750805b601f850160051c820191505b818110156147605782815560010161474d565b505050505050565b815167ffffffffffffffff81111561478257614782613e47565b614796816147908454614452565b8461471a565b602080601f8311600181146147e957600084156147b35750858301515b7fffffffffffffffffffffffffffffffffffffffffffffffffffffffffffffffff600386901b1c1916600185901b178555614760565b600085815260208120601f198616915b82811015614818578886015182559484019460019091019084016147f9565b508582101561485457878501517fffffffffffffffffffffffffffffffffffffffffffffffffffffffffffffffff600388901b60f8161c191681555b5050505050600190811b01905550565b60008261487357614873614614565b500490565b6000821982111561488b5761488b6144d4565b500190565b83815273ffffffffffffffffffffffffffffffffffffffff831660208201526060604082015260006148c56060830184613db9565b9594505050505056fea26469706673582212207548bb40f22d0292fea9433de5d772967eae2e559f083e79f095795049cde6f264736f6c634300080f0033",
  "linkReferences": {},
  "deployedLinkReferences": {}
}