{
  "_format": "hh-sol-artifact-1",
  "contractName": "ProofOfEfficiencyMock",
  "sourceName": "contracts/mocks/ProofOfEfficiencyMock.sol",
  "abi": [
    {
      "inputs": [
        {
          "internalType": "contract IGlobalExitRootManager",
          "name": "_globalExitRootManager",
          "type": "address"
        },
        {
          "internalType": "contract IERC20",
          "name": "_matic",
          "type": "address"
        },
        {
          "internalType": "contract IVerifierRollup",
          "name": "_rollupVerifier",
          "type": "address"
        },
        {
          "internalType": "bytes32",
          "name": "genesisRoot",
          "type": "bytes32"
        },
        {
          "internalType": "address",
          "name": "_trustedSequencer",
          "type": "address"
        },
        {
          "internalType": "bool",
          "name": "_forceBatchAllowed",
          "type": "bool"
        },
        {
          "internalType": "string",
          "name": "_trustedSequencerURL",
          "type": "string"
        },
        {
          "internalType": "contract IBridge",
          "name": "_bridge",
          "type": "address"
        }
      ],
      "stateMutability": "nonpayable",
      "type": "constructor"
    },
    {
      "anonymous": false,
      "inputs": [
        {
          "indexed": true,
          "internalType": "uint64",
          "name": "forceBatchNum",
          "type": "uint64"
        },
        {
          "indexed": false,
          "internalType": "bytes32",
          "name": "lastGlobalExitRoot",
          "type": "bytes32"
        },
        {
          "indexed": false,
          "internalType": "address",
          "name": "sequencer",
          "type": "address"
        },
        {
          "indexed": false,
          "internalType": "bytes",
          "name": "transactions",
          "type": "bytes"
        }
      ],
      "name": "ForceBatch",
      "type": "event"
    },
    {
      "anonymous": false,
      "inputs": [
        {
          "indexed": true,
          "internalType": "uint64",
          "name": "numBatch",
          "type": "uint64"
        }
      ],
      "name": "SequenceBatches",
      "type": "event"
    },
    {
      "anonymous": false,
      "inputs": [
        {
          "indexed": true,
          "internalType": "uint64",
          "name": "numBatch",
          "type": "uint64"
        }
      ],
      "name": "SequenceForceBatches",
      "type": "event"
    },
    {
      "anonymous": false,
      "inputs": [
        {
          "indexed": false,
          "internalType": "bool",
          "name": "newForceBatchAllowed",
          "type": "bool"
        }
      ],
      "name": "SetForceBatchAllowed",
      "type": "event"
    },
    {
      "anonymous": false,
      "inputs": [
        {
          "indexed": false,
          "internalType": "address",
          "name": "newTrustedSequencer",
          "type": "address"
        }
      ],
      "name": "SetTrustedSequencer",
      "type": "event"
    },
    {
      "anonymous": false,
      "inputs": [
        {
          "indexed": false,
          "internalType": "string",
          "name": "newTrustedSequencerURL",
          "type": "string"
        }
      ],
      "name": "SetTrustedSequencerURL",
      "type": "event"
    },
    {
      "anonymous": false,
      "inputs": [
        {
          "indexed": true,
          "internalType": "uint64",
          "name": "numBatch",
          "type": "uint64"
        },
        {
          "indexed": true,
          "internalType": "address",
          "name": "aggregator",
          "type": "address"
        }
      ],
      "name": "VerifyBatch",
      "type": "event"
    },
    {
      "inputs": [],
      "name": "FORCE_BATCH_TIMEOUT",
      "outputs": [
        {
          "internalType": "uint64",
          "name": "",
          "type": "uint64"
        }
      ],
      "stateMutability": "view",
      "type": "function"
    },
    {
      "inputs": [],
      "name": "MAX_BATCH_LENGTH",
      "outputs": [
        {
          "internalType": "uint256",
          "name": "",
          "type": "uint256"
        }
      ],
      "stateMutability": "view",
      "type": "function"
    },
    {
      "inputs": [],
      "name": "TRUSTED_SEQUENCER_FEE",
      "outputs": [
        {
          "internalType": "uint256",
          "name": "",
          "type": "uint256"
        }
      ],
      "stateMutability": "view",
      "type": "function"
    },
    {
      "inputs": [],
      "name": "bridge",
      "outputs": [
        {
          "internalType": "contract IBridge",
          "name": "",
          "type": "address"
        }
      ],
      "stateMutability": "view",
      "type": "function"
    },
    {
      "inputs": [
        {
          "internalType": "bytes32",
          "name": "currentStateRoot",
          "type": "bytes32"
        },
        {
          "internalType": "bytes32",
          "name": "currentLocalExitRoot",
          "type": "bytes32"
        },
        {
          "internalType": "bytes32",
          "name": "newStateRoot",
          "type": "bytes32"
        },
        {
          "internalType": "bytes32",
          "name": "newLocalExitRoot",
          "type": "bytes32"
        },
        {
          "internalType": "bytes32",
          "name": "batchHashData",
          "type": "bytes32"
        },
        {
          "internalType": "uint64",
          "name": "numBatch",
          "type": "uint64"
        },
        {
          "internalType": "uint64",
          "name": "timestamp",
          "type": "uint64"
        }
      ],
      "name": "calculateCircuitInput",
      "outputs": [
        {
          "internalType": "uint256",
          "name": "",
          "type": "uint256"
        }
      ],
      "stateMutability": "pure",
      "type": "function"
    },
    {
      "inputs": [],
      "name": "calculateForceProverFee",
      "outputs": [
        {
          "internalType": "uint256",
          "name": "",
          "type": "uint256"
        }
      ],
      "stateMutability": "view",
      "type": "function"
    },
    {
      "inputs": [],
      "name": "currentLocalExitRoot",
      "outputs": [
        {
          "internalType": "bytes32",
          "name": "",
          "type": "bytes32"
        }
      ],
      "stateMutability": "view",
      "type": "function"
    },
    {
      "inputs": [],
      "name": "currentStateRoot",
      "outputs": [
        {
          "internalType": "bytes32",
          "name": "",
          "type": "bytes32"
        }
      ],
      "stateMutability": "view",
      "type": "function"
    },
    {
      "inputs": [
        {
          "internalType": "bytes",
          "name": "transactions",
          "type": "bytes"
        },
        {
          "internalType": "uint256",
          "name": "maticAmount",
          "type": "uint256"
        }
      ],
      "name": "forceBatch",
      "outputs": [],
      "stateMutability": "nonpayable",
      "type": "function"
    },
    {
      "inputs": [],
      "name": "forceBatchAllowed",
      "outputs": [
        {
          "internalType": "bool",
          "name": "",
          "type": "bool"
        }
      ],
      "stateMutability": "view",
      "type": "function"
    },
    {
      "inputs": [
        {
          "internalType": "uint64",
          "name": "",
          "type": "uint64"
        }
      ],
      "name": "forcedBatches",
      "outputs": [
        {
          "internalType": "bytes32",
          "name": "batchHashData",
          "type": "bytes32"
        },
        {
          "internalType": "uint256",
          "name": "maticFee",
          "type": "uint256"
        },
        {
          "internalType": "uint64",
          "name": "minTimestamp",
          "type": "uint64"
        }
      ],
      "stateMutability": "view",
      "type": "function"
    },
    {
      "inputs": [
        {
          "internalType": "bytes32",
          "name": "newLocalExitRoot",
          "type": "bytes32"
        },
        {
          "internalType": "bytes32",
          "name": "newStateRoot",
          "type": "bytes32"
        },
        {
          "internalType": "uint64",
          "name": "numBatch",
          "type": "uint64"
        }
      ],
      "name": "getNextCircuitInput",
      "outputs": [
        {
          "internalType": "uint256",
          "name": "",
          "type": "uint256"
        }
      ],
      "stateMutability": "view",
      "type": "function"
    },
    {
      "inputs": [],
      "name": "globalExitRootManager",
      "outputs": [
        {
          "internalType": "contract IGlobalExitRootManager",
          "name": "",
          "type": "address"
        }
      ],
      "stateMutability": "view",
      "type": "function"
    },
    {
      "inputs": [],
      "name": "lastBatchSequenced",
      "outputs": [
        {
          "internalType": "uint64",
          "name": "",
          "type": "uint64"
        }
      ],
      "stateMutability": "view",
      "type": "function"
    },
    {
      "inputs": [],
      "name": "lastForceBatch",
      "outputs": [
        {
          "internalType": "uint64",
          "name": "",
          "type": "uint64"
        }
      ],
      "stateMutability": "view",
      "type": "function"
    },
    {
      "inputs": [],
      "name": "lastForceBatchSequenced",
      "outputs": [
        {
          "internalType": "uint64",
          "name": "",
          "type": "uint64"
        }
      ],
      "stateMutability": "view",
      "type": "function"
    },
    {
      "inputs": [],
      "name": "lastTimestamp",
      "outputs": [
        {
          "internalType": "uint64",
          "name": "",
          "type": "uint64"
        }
      ],
      "stateMutability": "view",
      "type": "function"
    },
    {
      "inputs": [],
      "name": "lastVerifiedBatch",
      "outputs": [
        {
          "internalType": "uint64",
          "name": "",
          "type": "uint64"
        }
      ],
      "stateMutability": "view",
      "type": "function"
    },
    {
      "inputs": [],
      "name": "matic",
      "outputs": [
        {
          "internalType": "contract IERC20",
          "name": "",
          "type": "address"
        }
      ],
      "stateMutability": "view",
      "type": "function"
    },
    {
      "inputs": [],
      "name": "prepareBatch",
      "outputs": [],
      "stateMutability": "nonpayable",
      "type": "function"
    },
    {
      "inputs": [
        {
          "internalType": "bytes32",
          "name": "newLocalExitRoot",
          "type": "bytes32"
        },
        {
          "internalType": "bytes32",
          "name": "newStateRoot",
          "type": "bytes32"
        },
        {
          "internalType": "uint32",
          "name": "numBatch",
          "type": "uint32"
        }
      ],
      "name": "returnInputHashParameters",
      "outputs": [
        {
          "internalType": "bytes",
          "name": "",
          "type": "bytes"
        }
      ],
      "stateMutability": "view",
      "type": "function"
    },
    {
      "inputs": [],
      "name": "rollupVerifier",
      "outputs": [
        {
          "internalType": "contract IVerifierRollup",
          "name": "",
          "type": "address"
        }
      ],
      "stateMutability": "view",
      "type": "function"
    },
    {
      "inputs": [
        {
          "components": [
            {
              "internalType": "bytes",
              "name": "transactions",
              "type": "bytes"
            },
            {
              "internalType": "bytes32",
              "name": "globalExitRoot",
              "type": "bytes32"
            },
            {
              "internalType": "uint64",
              "name": "timestamp",
              "type": "uint64"
            },
            {
              "internalType": "uint64[]",
              "name": "forceBatchesTimestamp",
              "type": "uint64[]"
            }
          ],
          "internalType": "struct ProofOfEfficiency.BatchData[]",
          "name": "batches",
          "type": "tuple[]"
        }
      ],
      "name": "sequenceBatches",
      "outputs": [],
      "stateMutability": "nonpayable",
      "type": "function"
    },
    {
      "inputs": [
        {
          "internalType": "uint64",
          "name": "numForcedBatches",
          "type": "uint64"
        }
      ],
      "name": "sequenceForceBatches",
      "outputs": [],
      "stateMutability": "nonpayable",
      "type": "function"
    },
    {
      "inputs": [
        {
          "internalType": "uint64",
          "name": "",
          "type": "uint64"
        }
      ],
      "name": "sequencedBatches",
      "outputs": [
        {
          "internalType": "bytes32",
          "name": "batchHashData",
          "type": "bytes32"
        },
        {
          "internalType": "uint64",
          "name": "timestamp",
          "type": "uint64"
        },
        {
          "internalType": "uint64",
          "name": "forceBatchNum",
          "type": "uint64"
        }
      ],
      "stateMutability": "view",
      "type": "function"
    },
    {
      "inputs": [
        {
          "internalType": "bytes32",
          "name": "newLocalExitRoot",
          "type": "bytes32"
        }
      ],
      "name": "setExitRoot",
      "outputs": [],
      "stateMutability": "nonpayable",
      "type": "function"
    },
    {
      "inputs": [
        {
          "internalType": "bool",
          "name": "newForceBatchAllowed",
          "type": "bool"
        }
      ],
      "name": "setForceBatchAllowed",
      "outputs": [],
      "stateMutability": "nonpayable",
      "type": "function"
    },
    {
      "inputs": [
        {
          "internalType": "bytes32",
          "name": "newStateRoot",
          "type": "bytes32"
        }
      ],
      "name": "setStateRoot",
      "outputs": [],
      "stateMutability": "nonpayable",
      "type": "function"
    },
    {
      "inputs": [
        {
          "internalType": "address",
          "name": "newTrustedSequencer",
          "type": "address"
        }
      ],
      "name": "setTrustedSequencer",
      "outputs": [],
      "stateMutability": "nonpayable",
      "type": "function"
    },
    {
      "inputs": [
        {
          "internalType": "string",
          "name": "newTrustedSequencerURL",
          "type": "string"
        }
      ],
      "name": "setTrustedSequencerURL",
      "outputs": [],
      "stateMutability": "nonpayable",
      "type": "function"
    },
    {
      "inputs": [],
      "name": "trustedSequencer",
      "outputs": [
        {
          "internalType": "address",
          "name": "",
          "type": "address"
        }
      ],
      "stateMutability": "view",
      "type": "function"
    },
    {
      "inputs": [],
      "name": "trustedSequencerURL",
      "outputs": [
        {
          "internalType": "string",
          "name": "",
          "type": "string"
        }
      ],
      "stateMutability": "view",
      "type": "function"
    },
    {
      "inputs": [
        {
          "internalType": "bytes32",
          "name": "newLocalExitRoot",
          "type": "bytes32"
        },
        {
          "internalType": "bytes32",
          "name": "newStateRoot",
          "type": "bytes32"
        },
        {
          "internalType": "uint64",
          "name": "numBatch",
          "type": "uint64"
        },
        {
          "internalType": "uint256[2]",
          "name": "proofA",
          "type": "uint256[2]"
        },
        {
          "internalType": "uint256[2][2]",
          "name": "proofB",
          "type": "uint256[2][2]"
        },
        {
          "internalType": "uint256[2]",
          "name": "proofC",
          "type": "uint256[2]"
        }
      ],
      "name": "verifyBatch",
      "outputs": [],
      "stateMutability": "nonpayable",
      "type": "function"
    }
  ],
  "bytecode": "0x60a06040523480156200001157600080fd5b5060405162003be938038062003be98339810160408190526200003491620001ec565b600480546001600160a01b03199081166001600160a01b038b81169190911790925588821660805260078054909116888316179055600586905560038054600160401b600160e81b031916680100000000000000009287169290920260ff60e01b191691909117600160e01b8515150217905587878787878787876008620000bd838262000348565b50600980546001600160a01b0319166001600160a01b039290921691909117905550620004149d5050505050505050505050505050565b6001600160a01b03811681146200010a57600080fd5b50565b80516200011a81620000f4565b919050565b634e487b7160e01b600052604160045260246000fd5b600082601f8301126200014757600080fd5b81516001600160401b03808211156200016457620001646200011f565b604051601f8301601f19908116603f011681019082821181831017156200018f576200018f6200011f565b81604052838152602092508683858801011115620001ac57600080fd5b600091505b83821015620001d05785820183015181830184015290820190620001b1565b83821115620001e25760008385830101525b9695505050505050565b600080600080600080600080610100898b0312156200020a57600080fd5b88516200021781620000f4565b60208a01519098506200022a81620000f4565b60408a01519097506200023d81620000f4565b60608a015160808b015191975095506200025781620000f4565b60a08a015190945080151581146200026e57600080fd5b60c08a01519093506001600160401b038111156200028b57600080fd5b620002998b828c0162000135565b925050620002aa60e08a016200010d565b90509295985092959890939650565b600181811c90821680620002ce57607f821691505b602082108103620002ef57634e487b7160e01b600052602260045260246000fd5b50919050565b601f8211156200034357600081815260208120601f850160051c810160208610156200031e5750805b601f850160051c820191505b818110156200033f578281556001016200032a565b5050505b505050565b81516001600160401b038111156200036457620003646200011f565b6200037c81620003758454620002b9565b84620002f5565b602080601f831160018114620003b457600084156200039b5750858301515b600019600386901b1c1916600185901b1785556200033f565b600085815260208120601f198616915b82811015620003e557888601518255948401946001909101908401620003c4565b5085821015620004045787850151600019600388901b60f8161c191681555b5050505050600190811b01905550565b6080516137a462000445600039600081816104780152818161120601528181611d2901526120e101526137a46000f3fe608060405234801561001057600080fd5b506004361061020b5760003560e01c8063aa0f44181161012a578063d02103ca116100bd578063e7a7ed021161008c578063eaeb077b11610071578063eaeb077b146105de578063f7552761146105f1578063f7d2cd7f1461060057600080fd5b8063e7a7ed021461058e578063e8bf92ed146105be57600080fd5b8063d02103ca146104fe578063d307b7431461051e578063d8f54db014610531578063e78cea921461056e57600080fd5b8063b4d63f58116100f9578063b4d63f581461040c578063b6b0b09714610473578063c89e42df146104bf578063cfa8ed47146104d257600080fd5b8063aa0f4418146103bf578063ab9fc5ef146103d2578063ac2eba98146103dc578063b02286c0146103e557600080fd5b80636ff512cc116101a25780638c4a0af7116101715780638c4a0af71461037d57806395297e2414610390578063959c2f47146103a3578063a86a9514146103ac57600080fd5b80636ff512cc1461032d578063781eead81461034057806379847057146103615780637fcb36531461036957600080fd5b8063423fa856116101de578063423fa8561461027f578063456052671461029f578063542028d5146102c75780636b8616ce146102cf57600080fd5b80631101df0f14610210578063116c40c31461021a57806319d8ac611461022d57806325d0a8f51461025f575b600080fd5b610218610613565b005b610218610228366004612c9f565b600655565b6002546102419067ffffffffffffffff1681565b60405167ffffffffffffffff90911681526020015b60405180910390f35b61027261026d366004612cb8565b610697565b6040516102569190612d70565b6002546102419068010000000000000000900467ffffffffffffffff1681565b60025461024190700100000000000000000000000000000000900467ffffffffffffffff1681565b6102726108c1565b6103086102dd366004612da0565b60006020819052908152604090208054600182015460029092015490919067ffffffffffffffff1683565b60408051938452602084019290925267ffffffffffffffff1690820152606001610256565b61021861033b366004612dbb565b61094f565b61035361034e366004612df1565b610a8a565b604051908152602001610256565b610353610b3f565b6003546102419067ffffffffffffffff1681565b61021861038b366004612e65565b610bb9565b61021861039e366004612e99565b610ced565b61035360065481565b6103536103ba366004612f0a565b611272565b6102186103cd366004612da0565b6114a8565b61024162093a8081565b61035360055481565b6103537fffffffffffffffffffffffffffffffffffffffffffffffffffffffffffffffff81565b61044d61041a366004612da0565b6001602081905260009182526040909120805491015467ffffffffffffffff808216916801000000000000000090041683565b6040805193845267ffffffffffffffff9283166020850152911690820152606001610256565b61049a7f000000000000000000000000000000000000000000000000000000000000000081565b60405173ffffffffffffffffffffffffffffffffffffffff9091168152602001610256565b6102186104cd36600461305c565b6119f7565b60035461049a9068010000000000000000900473ffffffffffffffffffffffffffffffffffffffff1681565b60045461049a9073ffffffffffffffffffffffffffffffffffffffff1681565b61021861052c366004612c9f565b600555565b60035461055e907c0100000000000000000000000000000000000000000000000000000000900460ff1681565b6040519015158152602001610256565b60095461049a9073ffffffffffffffffffffffffffffffffffffffff1681565b600254610241907801000000000000000000000000000000000000000000000000900467ffffffffffffffff1681565b60075461049a9073ffffffffffffffffffffffffffffffffffffffff1681565b6102186105ec3660046130c5565b611ae6565b61035367016345785d8a000081565b61021861060e36600461312e565b611ffe565b600960009054906101000a900473ffffffffffffffffffffffffffffffffffffffff1673ffffffffffffffffffffffffffffffffffffffff1663425d1afb6040518163ffffffff1660e01b8152600401600060405180830381600087803b15801561067d57600080fd5b505af1158015610691573d6000803e3d6000fd5b50505050565b6003546060906106b29067ffffffffffffffff166001613302565b67ffffffffffffffff168263ffffffff1614610755576040517f08c379a000000000000000000000000000000000000000000000000000000000815260206004820152603460248201527f50726f6f664f66456666696369656e63793a3a76657269667942617463683a2060448201527f42415443485f444f45535f4e4f545f4d4154434800000000000000000000000060648201526084015b60405180910390fd5b63ffffffff821660009081526001602081905260408220015467ffffffffffffffff81811692918291680100000000000000009091041681036107b857505063ffffffff831660009081526001602052604090205467016345785d8a000061081e565b505063ffffffff8316600090815260016020818152604080842083015468010000000000000000900467ffffffffffffffff9081168552848352938190208151606081018352815480825294820154938101849052600290910154909416930192909252905b600554600654604080516020810193909352820152606081018790526080810188905260a0810183905260e086901b7fffffffff000000000000000000000000000000000000000000000000000000001660c08083019190915284901b7fffffffffffffffff0000000000000000000000000000000000000000000000001660c482015260cc0160405160208183030381529060405293505050505b9392505050565b600880546108ce9061332e565b80601f01602080910402602001604051908101604052809291908181526020018280546108fa9061332e565b80156109475780601f1061091c57610100808354040283529160200191610947565b820191906000526020600020905b81548152906001019060200180831161092a57829003601f168201915b505050505081565b60035468010000000000000000900473ffffffffffffffffffffffffffffffffffffffff163314610a02576040517f08c379a000000000000000000000000000000000000000000000000000000000815260206004820152603f60248201527f50726f6f664f66456666696369656e63793a3a6f6e6c7954727573746564536560448201527f7175656e6365723a206f6e6c7920747275737465642073657175656e63657200606482015260840161074c565b600380547fffffffff0000000000000000000000000000000000000000ffffffffffffffff166801000000000000000073ffffffffffffffffffffffffffffffffffffffff8416908102919091179091556040519081527ff54144f9611984021529f814a1cb6a41e22c58351510a0d9f7e822618abb9cc0906020015b60405180910390a150565b6040805160208101899052908101879052606081018690526080810185905260a081018490527fffffffffffffffff00000000000000000000000000000000000000000000000060c084811b82168184015283901b1660c882015260009081907f30644e72e131a029b85045b68181585d2833e84879b9709143e1f593f00000019060d0016040516020818303038152906040528051906020012060001c610b329190613381565b9998505050505050505050565b60025460009067ffffffffffffffff7001000000000000000000000000000000008204811691610b8e917801000000000000000000000000000000000000000000000000909104166001613302565b610b9891906133bc565b610bb49067ffffffffffffffff16670de0b6b3a76400006133e5565b905090565b60035468010000000000000000900473ffffffffffffffffffffffffffffffffffffffff163314610c6c576040517f08c379a000000000000000000000000000000000000000000000000000000000815260206004820152603f60248201527f50726f6f664f66456666696369656e63793a3a6f6e6c7954727573746564536560448201527f7175656e6365723a206f6e6c7920747275737465642073657175656e63657200606482015260840161074c565b600380548215157c0100000000000000000000000000000000000000000000000000000000027fffffff00ffffffffffffffffffffffffffffffffffffffffffffffffffffffff9091161790556040517fbacda50a4a8575be1d91a7ebe29ee45056f3a94f12a2281eb6b43afa33bcefe690610a7f90831515815260200190565b600354610d059067ffffffffffffffff166001613302565b67ffffffffffffffff168467ffffffffffffffff1614610da7576040517f08c379a000000000000000000000000000000000000000000000000000000000815260206004820152603460248201527f50726f6f664f66456666696369656e63793a3a76657269667942617463683a2060448201527f626174636820646f6573206e6f74206d61746368000000000000000000000000606482015260840161074c565b60025467ffffffffffffffff6801000000000000000090910481169085161115610e79576040517f08c379a000000000000000000000000000000000000000000000000000000000815260206004820152604260248201527f50726f6f664f66456666696369656e63793a3a76657269667942617463683a2060448201527f626174636820646f6573206e6f742068617665206265656e2073657175656e6360648201527f6564000000000000000000000000000000000000000000000000000000000000608482015260a40161074c565b67ffffffffffffffff808516600090815260016020819052604082200154808316928291680100000000000000009004168103610eda57505067ffffffffffffffff851660009081526001602052604090205467016345785d8a0000610f3c565b505067ffffffffffffffff80861660009081526001602081815260408084208301546801000000000000000090048516845283825292839020835160608101855281548082529382015492810183905260029091015490941693909201929092525b60055460065460408051602081019390935282015260608101899052608081018a905260a081018390527fffffffffffffffff00000000000000000000000000000000000000000000000060c089811b82168184015285901b1660c88201526000907f30644e72e131a029b85045b68181585d2833e84879b9709143e1f593f00000019060d0016040516020818303038152906040528051906020012060001c610fe69190613381565b60075460408051808201825283815233602082015290517ff5c9d69e00000000000000000000000000000000000000000000000000000000815292935073ffffffffffffffffffffffffffffffffffffffff9091169163f5c9d69e91611055918b918b918b9190600401613422565b602060405180830381865afa158015611072573d6000803e3d6000fd5b505050506040513d601f19601f82011682018060405250810190611096919061349c565b611122576040517f08c379a000000000000000000000000000000000000000000000000000000000815260206004820152602d60248201527f50726f6f664f66456666696369656e63793a3a76657269667942617463683a2060448201527f494e56414c49445f50524f4f4600000000000000000000000000000000000000606482015260840161074c565b6003805467ffffffffffffffff1690600061113c836134b9565b825467ffffffffffffffff9182166101009390930a928302919092021990911617905550600589905560068a9055600480546040517f33d6247d0000000000000000000000000000000000000000000000000000000081529182018c905273ffffffffffffffffffffffffffffffffffffffff16906333d6247d90602401600060405180830381600087803b1580156111d457600080fd5b505af11580156111e8573d6000803e3d6000fd5b5061122f92505073ffffffffffffffffffffffffffffffffffffffff7f0000000000000000000000000000000000000000000000000000000000000000169050338461285c565b604051339067ffffffffffffffff8a16907f2cdf1508085a46c7241a7d78c5a1ec3d9246d1ab95e1c2a33676d29e17d4222390600090a350505050505050505050565b60035460009061128d9067ffffffffffffffff166001613302565b67ffffffffffffffff168267ffffffffffffffff161461132f576040517f08c379a000000000000000000000000000000000000000000000000000000000815260206004820152603460248201527f50726f6f664f66456666696369656e63793a3a76657269667942617463683a2060448201527f42415443485f444f45535f4e4f545f4d41544348000000000000000000000000606482015260840161074c565b67ffffffffffffffff80831660009081526001602081905260408220015480831692829168010000000000000000900416810361139057505067ffffffffffffffff831660009081526001602052604090205467016345785d8a00006113f2565b505067ffffffffffffffff80841660009081526001602081815260408084208301546801000000000000000090048516845283825292839020835160608101855281548082529382015492810183905260029091015490941693909201929092525b600554600654604080516020810193909352820152606081018790526080810188905260a081018390527fffffffffffffffff00000000000000000000000000000000000000000000000060c087811b82168184015285901b1660c88201526000907f30644e72e131a029b85045b68181585d2833e84879b9709143e1f593f00000019060d0016040516020818303038152906040528051906020012060001c61149c9190613381565b98975050505050505050565b6003547c0100000000000000000000000000000000000000000000000000000000900460ff161515600114611585576040517f08c379a000000000000000000000000000000000000000000000000000000000815260206004820152604860248201527f50726f6f664f66456666696369656e63793a3a6973466f72636542617463684160448201527f6c6c6f7765643a206f6e6c7920696620666f726365206261746368206973206160648201527f7661696c61626c65000000000000000000000000000000000000000000000000608482015260a40161074c565b6002546000906115b4908390700100000000000000000000000000000000900467ffffffffffffffff16613302565b905060008267ffffffffffffffff1611611676576040517f08c379a000000000000000000000000000000000000000000000000000000000815260206004820152604260248201527f50726f6f664f66456666696369656e63793a3a73657175656e6365466f72636560448201527f42617463683a204d75737420666f726365206174206c6561737420312062617460648201527f6368000000000000000000000000000000000000000000000000000000000000608482015260a40161074c565b60025467ffffffffffffffff780100000000000000000000000000000000000000000000000090910481169082161115611732576040517f08c379a000000000000000000000000000000000000000000000000000000000815260206004820152603a60248201527f50726f6f664f66456666696369656e63793a3a73657175656e6365466f72636560448201527f42617463683a20466f72636520626174636820696e76616c6964000000000000606482015260840161074c565b60035468010000000000000000900473ffffffffffffffffffffffffffffffffffffffff16331461184a5767ffffffffffffffff808216600090815260208190526040902060020154429161178c9162093a809116613302565b67ffffffffffffffff16111561184a576040517f08c379a000000000000000000000000000000000000000000000000000000000815260206004820152604c60248201527f50726f6f664f66456666696369656e63793a3a73657175656e6365466f72636560448201527f42617463683a20466f72636564206261746368206973206e6f7420696e20746960648201527f6d656f757420706572696f640000000000000000000000000000000000000000608482015260a40161074c565b60025467ffffffffffffffff68010000000000000000820481169170010000000000000000000000000000000090041660005b8467ffffffffffffffff1681101561193a5781611899816134b9565b92505082806118a7906134b9565b67ffffffffffffffff81811660009081526001602081905260409091200180547fffffffffffffffffffffffffffffffff000000000000000000000000000000001668010000000000000000878416027fffffffffffffffffffffffffffffffffffffffffffffffff00000000000000001617429092169190911790559350819050611932816134e0565b91505061187d565b50600280544267ffffffffffffffff9081167fffffffffffffffffffffffffffffffff0000000000000000000000000000000090921691909117680100000000000000008583168102919091177fffffffffffffffff0000000000000000ffffffffffffffffffffffffffffffff16700100000000000000000000000000000000858416021792839055604051920416907f648a61dd2438f072f5a1960939abd30f37aea80d2e94c9792ad142d3e0a490a490600090a250505050565b60035468010000000000000000900473ffffffffffffffffffffffffffffffffffffffff163314611aaa576040517f08c379a000000000000000000000000000000000000000000000000000000000815260206004820152603f60248201527f50726f6f664f66456666696369656e63793a3a6f6e6c7954727573746564536560448201527f7175656e6365723a206f6e6c7920747275737465642073657175656e63657200606482015260840161074c565b6008611ab68282613566565b507f6b8f723a4c7a5335cafae8a598a0aa0301be1387c037dccc085b62add6448b2081604051610a7f9190612d70565b6003547c0100000000000000000000000000000000000000000000000000000000900460ff161515600114611bc3576040517f08c379a000000000000000000000000000000000000000000000000000000000815260206004820152604860248201527f50726f6f664f66456666696369656e63793a3a6973466f72636542617463684160448201527f6c6c6f7765643a206f6e6c7920696620666f726365206261746368206973206160648201527f7661696c61626c65000000000000000000000000000000000000000000000000608482015260a40161074c565b6000611bcd610b3f565b905081811115611c5f576040517f08c379a000000000000000000000000000000000000000000000000000000000815260206004820152602f60248201527f50726f6f664f66456666696369656e63793a3a666f72636542617463683a206e60448201527f6f7420656e6f756768206d617469630000000000000000000000000000000000606482015260840161074c565b7fffffffffffffffffffffffffffffffffffffffffffffffffffffffffffffffff835110611d0f576040517f08c379a000000000000000000000000000000000000000000000000000000000815260206004820152603a60248201527f50726f6f664f66456666696369656e63793a3a666f72636542617463683a205460448201527f72616e73616374696f6e73206279746573206f766572666c6f77000000000000606482015260840161074c565b611d5173ffffffffffffffffffffffffffffffffffffffff7f000000000000000000000000000000000000000000000000000000000000000016333084612935565b6000600460009054906101000a900473ffffffffffffffffffffffffffffffffffffffff1673ffffffffffffffffffffffffffffffffffffffff16633ed691ef6040518163ffffffff1660e01b8152600401602060405180830381865afa158015611dc0573d6000803e3d6000fd5b505050506040513d601f19601f82011682018060405250810190611de49190613680565b60028054919250780100000000000000000000000000000000000000000000000090910467ffffffffffffffff16906018611e1e836134b9565b91906101000a81548167ffffffffffffffff021916908367ffffffffffffffff16021790555050838133604051602001611e5a93929190613699565b604080518083037fffffffffffffffffffffffffffffffffffffffffffffffffffffffffffffffe001815291815281516020928301206002805478010000000000000000000000000000000000000000000000009081900467ffffffffffffffff9081166000908152958690528486209390935581548190048316855283852060010187905581540482168452919092200180547fffffffffffffffffffffffffffffffffffffffffffffffff00000000000000001642909216919091179055323303611f9c57600254604080518381523360208201526060918101829052600091810191909152780100000000000000000000000000000000000000000000000090910467ffffffffffffffff16907ff94bb37db835f1ab585ee00041849a09b12cd081d77fa15ca070757619cbc9319060800160405180910390a2610691565b600260189054906101000a900467ffffffffffffffff1667ffffffffffffffff167ff94bb37db835f1ab585ee00041849a09b12cd081d77fa15ca070757619cbc931823387604051611ff0939291906136e5565b60405180910390a250505050565b60035468010000000000000000900473ffffffffffffffffffffffffffffffffffffffff1633146120b1576040517f08c379a000000000000000000000000000000000000000000000000000000000815260206004820152603f60248201527f50726f6f664f66456666696369656e63793a3a6f6e6c7954727573746564536560448201527f7175656e6365723a206f6e6c7920747275737465642073657175656e63657200606482015260840161074c565b805161210933306120ca8467016345785d8a00006133e5565b73ffffffffffffffffffffffffffffffffffffffff7f000000000000000000000000000000000000000000000000000000000000000016929190612935565b60025467ffffffffffffffff808216916801000000000000000081048216917001000000000000000000000000000000009091041660005b848110156126e357600086828151811061215d5761215d613723565b602002602001015190508467ffffffffffffffff16816040015167ffffffffffffffff161015801561219d575042816040015167ffffffffffffffff1611155b61224f576040517f08c379a000000000000000000000000000000000000000000000000000000000815260206004820152604260248201527f50726f6f664f66456666696369656e63793a3a73657175656e6365426174636860448201527f65733a2054696d657374616d70206d75737420626520696e736964652072616e60648201527f6765000000000000000000000000000000000000000000000000000000000000608482015260a40161074c565b602081015115806122f457506004805460208301516040517f257b36320000000000000000000000000000000000000000000000000000000081529283015273ffffffffffffffffffffffffffffffffffffffff169063257b3632906024016020604051808303816000875af11580156122cd573d6000803e3d6000fd5b505050506040513d601f19601f820116820180604052508101906122f19190613680565b15155b612380576040517f08c379a000000000000000000000000000000000000000000000000000000000815260206004820152603f60248201527f50726f6f664f66456666696369656e63793a3a73657175656e6365426174636860448201527f65733a20476c6f62616c206578697420726f6f74206d75737420657869737400606482015260840161074c565b8051517fffffffffffffffffffffffffffffffffffffffffffffffffffffffffffffffff11612431576040517f08c379a000000000000000000000000000000000000000000000000000000000815260206004820152603f60248201527f50726f6f664f66456666696369656e63793a3a73657175656e6365426174636860448201527f65733a205472616e73616374696f6e73206279746573206f766572666c6f7700606482015260840161074c565b8361243b816134b9565b825160208085015160405193985061245894509192339101613699565b604080518083037fffffffffffffffffffffffffffffffffffffffffffffffffffffffffffffffe0018152918152815160209283012067ffffffffffffffff8781166000908152600194859052838120928355928501519190930180547fffffffffffffffffffffffffffffffffffffffffffffffff000000000000000016938216939093179092559095505b8160600151518110156126ce57836124fc816134b9565b94505060008260600151828151811061251757612517613723565b602002602001015190508667ffffffffffffffff168167ffffffffffffffff1610158015612566575067ffffffffffffffff808616600090815260208190526040902060020154811690821610155b801561257c5750428167ffffffffffffffff1611155b61262e576040517f08c379a000000000000000000000000000000000000000000000000000000000815260206004820152605160248201527f50726f6f664f66456666696369656e63793a3a73657175656e6365426174636860448201527f65733a20466f7263656420626174636865732074696d657374616d70206d757360648201527f7420626520696e736964652072616e6765000000000000000000000000000000608482015260a40161074c565b85612638816134b9565b67ffffffffffffffff81811660009081526001602081905260409091200180547fffffffffffffffffffffffffffffffff0000000000000000000000000000000016680100000000000000008a8416027fffffffffffffffffffffffffffffffffffffffffffffffff000000000000000016179185169190911790559197509095508190506126c6816134e0565b9150506124e5565b505080806126db906134e0565b915050612141565b5060025467ffffffffffffffff7801000000000000000000000000000000000000000000000000909104811690821611156127a0576040517f08c379a000000000000000000000000000000000000000000000000000000000815260206004820152603a60248201527f50726f6f664f66456666696369656e63793a3a73657175656e6365426174636860448201527f65733a20466f7263652062617463686573206f766572666c6f77000000000000606482015260840161074c565b6002805467ffffffffffffffff8581167fffffffffffffffffffffffffffffffff0000000000000000000000000000000090921691909117680100000000000000008583168102919091177fffffffffffffffff0000000000000000ffffffffffffffffffffffffffffffff16700100000000000000000000000000000000858416021792839055604051920416907f303446e6a8cb73c83dff421c0b1d5e5ce0719dab1bff13660fc254e58cc17fce90600090a25050505050565b60405173ffffffffffffffffffffffffffffffffffffffff83166024820152604481018290526129309084907fa9059cbb00000000000000000000000000000000000000000000000000000000906064015b604080517fffffffffffffffffffffffffffffffffffffffffffffffffffffffffffffffe08184030181529190526020810180517bffffffffffffffffffffffffffffffffffffffffffffffffffffffff167fffffffff0000000000000000000000000000000000000000000000000000000090931692909217909152612993565b505050565b60405173ffffffffffffffffffffffffffffffffffffffff808516602483015283166044820152606481018290526106919085907f23b872dd00000000000000000000000000000000000000000000000000000000906084016128ae565b60006129f5826040518060400160405280602081526020017f5361666545524332303a206c6f772d6c6576656c2063616c6c206661696c65648152508573ffffffffffffffffffffffffffffffffffffffff16612a9f9092919063ffffffff16565b8051909150156129305780806020019051810190612a13919061349c565b612930576040517f08c379a000000000000000000000000000000000000000000000000000000000815260206004820152602a60248201527f5361666545524332303a204552433230206f7065726174696f6e20646964206e60448201527f6f74207375636365656400000000000000000000000000000000000000000000606482015260840161074c565b6060612aae8484600085612ab6565b949350505050565b606082471015612b48576040517f08c379a000000000000000000000000000000000000000000000000000000000815260206004820152602660248201527f416464726573733a20696e73756666696369656e742062616c616e636520666f60448201527f722063616c6c0000000000000000000000000000000000000000000000000000606482015260840161074c565b73ffffffffffffffffffffffffffffffffffffffff85163b612bc6576040517f08c379a000000000000000000000000000000000000000000000000000000000815260206004820152601d60248201527f416464726573733a2063616c6c20746f206e6f6e2d636f6e7472616374000000604482015260640161074c565b6000808673ffffffffffffffffffffffffffffffffffffffff168587604051612bef9190613752565b60006040518083038185875af1925050503d8060008114612c2c576040519150601f19603f3d011682016040523d82523d6000602084013e612c31565b606091505b5091509150612c41828286612c4c565b979650505050505050565b60608315612c5b5750816108ba565b825115612c6b5782518084602001fd5b816040517f08c379a000000000000000000000000000000000000000000000000000000000815260040161074c9190612d70565b600060208284031215612cb157600080fd5b5035919050565b600080600060608486031215612ccd57600080fd5b8335925060208401359150604084013563ffffffff81168114612cef57600080fd5b809150509250925092565b60005b83811015612d15578181015183820152602001612cfd565b838111156106915750506000910152565b60008151808452612d3e816020860160208601612cfa565b601f017fffffffffffffffffffffffffffffffffffffffffffffffffffffffffffffffe0169290920160200192915050565b6020815260006108ba6020830184612d26565b803567ffffffffffffffff81168114612d9b57600080fd5b919050565b600060208284031215612db257600080fd5b6108ba82612d83565b600060208284031215612dcd57600080fd5b813573ffffffffffffffffffffffffffffffffffffffff811681146108ba57600080fd5b600080600080600080600060e0888a031215612e0c57600080fd5b8735965060208801359550604088013594506060880135935060808801359250612e3860a08901612d83565b9150612e4660c08901612d83565b905092959891949750929550565b8015158114612e6257600080fd5b50565b600060208284031215612e7757600080fd5b81356108ba81612e54565b8060408101831015612e9357600080fd5b92915050565b6000806000806000806101608789031215612eb357600080fd5b8635955060208701359450612eca60408801612d83565b9350612ed98860608901612e82565b9250610120870188811115612eed57600080fd5b60a088019250612efd8982612e82565b9150509295509295509295565b600080600060608486031215612f1f57600080fd5b8335925060208401359150612f3660408501612d83565b90509250925092565b7f4e487b7100000000000000000000000000000000000000000000000000000000600052604160045260246000fd5b6040516080810167ffffffffffffffff81118282101715612f9157612f91612f3f565b60405290565b604051601f82017fffffffffffffffffffffffffffffffffffffffffffffffffffffffffffffffe016810167ffffffffffffffff81118282101715612fde57612fde612f3f565b604052919050565b600067ffffffffffffffff83111561300057613000612f3f565b61303160207fffffffffffffffffffffffffffffffffffffffffffffffffffffffffffffffe0601f86011601612f97565b905082815283838301111561304557600080fd5b828260208301376000602084830101529392505050565b60006020828403121561306e57600080fd5b813567ffffffffffffffff81111561308557600080fd5b8201601f8101841361309657600080fd5b612aae84823560208401612fe6565b600082601f8301126130b657600080fd5b6108ba83833560208501612fe6565b600080604083850312156130d857600080fd5b823567ffffffffffffffff8111156130ef57600080fd5b6130fb858286016130a5565b95602094909401359450505050565b600067ffffffffffffffff82111561312457613124612f3f565b5060051b60200190565b6000602080838503121561314157600080fd5b823567ffffffffffffffff8082111561315957600080fd5b818501915085601f83011261316d57600080fd5b813561318061317b8261310a565b612f97565b81815260059190911b8301840190848101908883111561319f57600080fd5b8585015b838110156132c6578035858111156131ba57600080fd5b86016080818c037fffffffffffffffffffffffffffffffffffffffffffffffffffffffffffffffe00112156131ee57600080fd5b6131f6612f6e565b888201358781111561320757600080fd5b6132158d8b838601016130a5565b8252506040808301358a83015261322e60608401612d83565b818301526080830135888111156132455760008081fd5b8084019350508c603f84011261325b5760008081fd5b8983013561326b61317b8261310a565b81815260059190911b84018201908b8101908f83111561328b5760008081fd5b948301945b828610156132b0576132a186612d83565b8252948c0194908c0190613290565b60608501525050508452509186019186016131a3565b5098975050505050505050565b7f4e487b7100000000000000000000000000000000000000000000000000000000600052601160045260246000fd5b600067ffffffffffffffff808316818516808303821115613325576133256132d3565b01949350505050565b600181811c9082168061334257607f821691505b60208210810361337b577f4e487b7100000000000000000000000000000000000000000000000000000000600052602260045260246000fd5b50919050565b6000826133b7577f4e487b7100000000000000000000000000000000000000000000000000000000600052601260045260246000fd5b500690565b600067ffffffffffffffff838116908316818110156133dd576133dd6132d3565b039392505050565b6000817fffffffffffffffffffffffffffffffffffffffffffffffffffffffffffffffff048311821515161561341d5761341d6132d3565b500290565b61014081016040808784376000838201818152879190815b600281101561345a5784848337908401828152928401929060010161343a565b5050828760c0870137610100850181815286935091505b6002811015613490578251825260209283019290910190600101613471565b50505095945050505050565b6000602082840312156134ae57600080fd5b81516108ba81612e54565b600067ffffffffffffffff8083168181036134d6576134d66132d3565b6001019392505050565b60007fffffffffffffffffffffffffffffffffffffffffffffffffffffffffffffffff8203613511576135116132d3565b5060010190565b601f82111561293057600081815260208120601f850160051c8101602086101561353f5750805b601f850160051c820191505b8181101561355e5782815560010161354b565b505050505050565b815167ffffffffffffffff81111561358057613580612f3f565b6135948161358e845461332e565b84613518565b602080601f8311600181146135e757600084156135b15750858301515b7fffffffffffffffffffffffffffffffffffffffffffffffffffffffffffffffff600386901b1c1916600185901b17855561355e565b6000858152602081207fffffffffffffffffffffffffffffffffffffffffffffffffffffffffffffffe08616915b8281101561363457888601518255948401946001909101908401613615565b508582101561367057878501517fffffffffffffffffffffffffffffffffffffffffffffffffffffffffffffffff600388901b60f8161c191681555b5050505050600190811b01905550565b60006020828403121561369257600080fd5b5051919050565b600084516136ab818460208901612cfa565b919091019283525060601b7fffffffffffffffffffffffffffffffffffffffff000000000000000000000000166020820152603401919050565b83815273ffffffffffffffffffffffffffffffffffffffff8316602082015260606040820152600061371a6060830184612d26565b95945050505050565b7f4e487b7100000000000000000000000000000000000000000000000000000000600052603260045260246000fd5b60008251613764818460208701612cfa565b919091019291505056fea26469706673582212202527e20eb04b0ffcd38e8f5ba3b085e641a136815e79c80ee22c45002b7d9f2c64736f6c634300080f0033",
  "linkReferences": {},
  "deployedLinkReferences": {}
}