{
  "_format": "hh-sol-artifact-1",
  "contractName": "ProofOfEfficiency",
  "sourceName": "contracts/ProofOfEfficiency.sol",
  "abi": [
    {
      "anonymous": false,
      "inputs": [
        {
          "indexed": true,
          "internalType": "uint64",
          "name": "numBatch",
          "type": "uint64"
        },
        {
          "indexed": false,
          "internalType": "bytes32",
          "name": "stateRoot",
          "type": "bytes32"
        },
        {
          "indexed": true,
          "internalType": "address",
          "name": "aggregator",
          "type": "address"
        }
      ],
      "name": "ConsolidatePendingState",
      "type": "event"
    },
    {
      "anonymous": false,
      "inputs": [],
      "name": "EmergencyStateActivated",
      "type": "event"
    },
    {
      "anonymous": false,
      "inputs": [],
      "name": "EmergencyStateDeactivated",
      "type": "event"
    },
    {
      "anonymous": false,
      "inputs": [
        {
          "indexed": true,
          "internalType": "uint64",
          "name": "forceBatchNum",
          "type": "uint64"
        },
        {
          "indexed": false,
          "internalType": "bytes32",
          "name": "lastGlobalExitRoot",
          "type": "bytes32"
        },
        {
          "indexed": false,
          "internalType": "address",
          "name": "sequencer",
          "type": "address"
        },
        {
          "indexed": false,
          "internalType": "bytes",
          "name": "transactions",
          "type": "bytes"
        }
      ],
      "name": "ForceBatch",
      "type": "event"
    },
    {
      "anonymous": false,
      "inputs": [
        {
          "indexed": false,
          "internalType": "uint8",
          "name": "version",
          "type": "uint8"
        }
      ],
      "name": "Initialized",
      "type": "event"
    },
    {
      "anonymous": false,
      "inputs": [
        {
          "indexed": true,
          "internalType": "address",
          "name": "previousOwner",
          "type": "address"
        },
        {
          "indexed": true,
          "internalType": "address",
          "name": "newOwner",
          "type": "address"
        }
      ],
      "name": "OwnershipTransferred",
      "type": "event"
    },
    {
      "anonymous": false,
      "inputs": [
        {
          "indexed": false,
          "internalType": "bytes32",
          "name": "storedStateRoot",
          "type": "bytes32"
        },
        {
          "indexed": false,
          "internalType": "bytes32",
          "name": "provedStateRoot",
          "type": "bytes32"
        }
      ],
      "name": "ProveNonDeterministicState",
      "type": "event"
    },
    {
      "anonymous": false,
      "inputs": [
        {
          "indexed": true,
          "internalType": "uint64",
          "name": "numBatch",
          "type": "uint64"
        }
      ],
      "name": "SequenceBatches",
      "type": "event"
    },
    {
      "anonymous": false,
      "inputs": [
        {
          "indexed": true,
          "internalType": "uint64",
          "name": "numBatch",
          "type": "uint64"
        }
      ],
      "name": "SequenceForceBatches",
      "type": "event"
    },
    {
      "anonymous": false,
      "inputs": [
        {
          "indexed": false,
          "internalType": "address",
          "name": "newAdmin",
          "type": "address"
        }
      ],
      "name": "SetAdmin",
      "type": "event"
    },
    {
      "anonymous": false,
      "inputs": [
        {
          "indexed": false,
          "internalType": "bool",
          "name": "newForceBatchAllowed",
          "type": "bool"
        }
      ],
      "name": "SetForceBatchAllowed",
      "type": "event"
    },
    {
      "anonymous": false,
      "inputs": [
        {
          "indexed": false,
          "internalType": "address",
          "name": "newTrustedAggregator",
          "type": "address"
        }
      ],
      "name": "SetTrustedAggregator",
      "type": "event"
    },
    {
      "anonymous": false,
      "inputs": [
        {
          "indexed": false,
          "internalType": "uint64",
          "name": "newTrustedAggregatorTimeout",
          "type": "uint64"
        }
      ],
      "name": "SetTrustedAggregatorTimeout",
      "type": "event"
    },
    {
      "anonymous": false,
      "inputs": [
        {
          "indexed": false,
          "internalType": "address",
          "name": "newTrustedSequencer",
          "type": "address"
        }
      ],
      "name": "SetTrustedSequencer",
      "type": "event"
    },
    {
      "anonymous": false,
      "inputs": [
        {
          "indexed": false,
          "internalType": "string",
          "name": "newTrustedSequencerURL",
          "type": "string"
        }
      ],
      "name": "SetTrustedSequencerURL",
      "type": "event"
    },
    {
      "anonymous": false,
      "inputs": [
        {
          "indexed": true,
          "internalType": "uint64",
          "name": "numBatch",
          "type": "uint64"
        },
        {
          "indexed": false,
          "internalType": "bytes32",
          "name": "stateRoot",
          "type": "bytes32"
        },
        {
          "indexed": true,
          "internalType": "address",
          "name": "aggregator",
          "type": "address"
        }
      ],
      "name": "TrustedVerifyBatches",
      "type": "event"
    },
    {
      "anonymous": false,
      "inputs": [
        {
          "indexed": true,
          "internalType": "uint64",
          "name": "numBatch",
          "type": "uint64"
        },
        {
          "indexed": false,
          "internalType": "bytes32",
          "name": "stateRoot",
          "type": "bytes32"
        },
        {
          "indexed": true,
          "internalType": "address",
          "name": "aggregator",
          "type": "address"
        }
      ],
      "name": "VerifyBatches",
      "type": "event"
    },
    {
      "inputs": [],
      "name": "FORCE_BATCH_TIMEOUT",
      "outputs": [
        {
          "internalType": "uint64",
          "name": "",
          "type": "uint64"
        }
      ],
      "stateMutability": "view",
      "type": "function"
    },
    {
      "inputs": [],
      "name": "HALT_AGGREGATION_TIMEOUT",
      "outputs": [
        {
          "internalType": "uint64",
          "name": "",
          "type": "uint64"
        }
      ],
      "stateMutability": "view",
      "type": "function"
    },
    {
      "inputs": [],
      "name": "MAX_BATCH_LENGTH",
      "outputs": [
        {
          "internalType": "uint256",
          "name": "",
          "type": "uint256"
        }
      ],
      "stateMutability": "view",
      "type": "function"
    },
    {
      "inputs": [],
      "name": "MAX_TRUSTED_AGGREGATOR_TIMEOUT",
      "outputs": [
        {
          "internalType": "uint64",
          "name": "",
          "type": "uint64"
        }
      ],
      "stateMutability": "view",
      "type": "function"
    },
    {
      "inputs": [
        {
          "internalType": "uint64",
          "name": "sequencedBatchNum",
          "type": "uint64"
        }
      ],
      "name": "activateEmergencyState",
      "outputs": [],
      "stateMutability": "nonpayable",
      "type": "function"
    },
    {
      "inputs": [],
      "name": "admin",
      "outputs": [
        {
          "internalType": "address",
          "name": "",
          "type": "address"
        }
      ],
      "stateMutability": "view",
      "type": "function"
    },
    {
      "inputs": [
        {
          "internalType": "uint64",
          "name": "",
          "type": "uint64"
        }
      ],
      "name": "batchNumToStateRoot",
      "outputs": [
        {
          "internalType": "bytes32",
          "name": "",
          "type": "bytes32"
        }
      ],
      "stateMutability": "view",
      "type": "function"
    },
    {
      "inputs": [],
      "name": "bridgeAddress",
      "outputs": [
        {
          "internalType": "contract IBridge",
          "name": "",
          "type": "address"
        }
      ],
      "stateMutability": "view",
      "type": "function"
    },
    {
      "inputs": [],
      "name": "calculateBatchFee",
      "outputs": [
        {
          "internalType": "uint256",
          "name": "",
          "type": "uint256"
        }
      ],
      "stateMutability": "view",
      "type": "function"
    },
    {
      "inputs": [],
      "name": "calculateRewardPerBatch",
      "outputs": [
        {
          "internalType": "uint256",
          "name": "",
          "type": "uint256"
        }
      ],
      "stateMutability": "view",
      "type": "function"
    },
    {
      "inputs": [],
      "name": "chainID",
      "outputs": [
        {
          "internalType": "uint64",
          "name": "",
          "type": "uint64"
        }
      ],
      "stateMutability": "view",
      "type": "function"
    },
    {
      "inputs": [
        {
          "internalType": "uint64",
          "name": "pendingStateNum",
          "type": "uint64"
        }
      ],
      "name": "consolidatePendingState",
      "outputs": [],
      "stateMutability": "nonpayable",
      "type": "function"
    },
    {
      "inputs": [],
      "name": "deactivateEmergencyState",
      "outputs": [],
      "stateMutability": "nonpayable",
      "type": "function"
    },
    {
      "inputs": [
        {
          "internalType": "bytes",
          "name": "transactions",
          "type": "bytes"
        },
        {
          "internalType": "uint256",
          "name": "maticAmount",
          "type": "uint256"
        }
      ],
      "name": "forceBatch",
      "outputs": [],
      "stateMutability": "nonpayable",
      "type": "function"
    },
    {
      "inputs": [],
      "name": "forceBatchAllowed",
      "outputs": [
        {
          "internalType": "bool",
          "name": "",
          "type": "bool"
        }
      ],
      "stateMutability": "view",
      "type": "function"
    },
    {
      "inputs": [
        {
          "internalType": "uint64",
          "name": "",
          "type": "uint64"
        }
      ],
      "name": "forcedBatches",
      "outputs": [
        {
          "internalType": "bytes32",
          "name": "",
          "type": "bytes32"
        }
      ],
      "stateMutability": "view",
      "type": "function"
    },
    {
      "inputs": [
        {
          "internalType": "uint64",
          "name": "initNumBatch",
          "type": "uint64"
        },
        {
          "internalType": "uint64",
          "name": "finalNewBatch",
          "type": "uint64"
        },
        {
          "internalType": "bytes32",
          "name": "newLocalExitRoot",
          "type": "bytes32"
        },
        {
          "internalType": "bytes32",
          "name": "oldStateRoot",
          "type": "bytes32"
        },
        {
          "internalType": "bytes32",
          "name": "newStateRoot",
          "type": "bytes32"
        }
      ],
      "name": "getInputSnarkBytes",
      "outputs": [
        {
          "internalType": "bytes",
          "name": "",
          "type": "bytes"
        }
      ],
      "stateMutability": "view",
      "type": "function"
    },
    {
      "inputs": [],
      "name": "globalExitRootManager",
      "outputs": [
        {
          "internalType": "contract IGlobalExitRootManager",
          "name": "",
          "type": "address"
        }
      ],
      "stateMutability": "view",
      "type": "function"
    },
    {
      "inputs": [
        {
          "internalType": "contract IGlobalExitRootManager",
          "name": "_globalExitRootManager",
          "type": "address"
        },
        {
          "internalType": "contract IERC20Upgradeable",
          "name": "_matic",
          "type": "address"
        },
        {
          "internalType": "contract IVerifierRollup",
          "name": "_rollupVerifier",
          "type": "address"
        },
        {
          "internalType": "contract IBridge",
          "name": "_bridgeAddress",
          "type": "address"
        },
        {
          "components": [
            {
              "internalType": "address",
              "name": "_admin",
              "type": "address"
            },
            {
              "internalType": "uint64",
              "name": "_chainID",
              "type": "uint64"
            },
            {
              "internalType": "address",
              "name": "_trustedSequencer",
              "type": "address"
            },
            {
              "internalType": "bool",
              "name": "_forceBatchAllowed",
              "type": "bool"
            },
            {
              "internalType": "address",
              "name": "_trustedAggregator",
              "type": "address"
            },
            {
              "internalType": "uint64",
              "name": "_trustedAggregatorTimeout",
              "type": "uint64"
            }
          ],
          "internalType": "struct ProofOfEfficiency.InitializePackedParameters",
          "name": "initializePackedParameters",
          "type": "tuple"
        },
        {
          "internalType": "bytes32",
          "name": "genesisRoot",
          "type": "bytes32"
        },
        {
          "internalType": "string",
          "name": "_trustedSequencerURL",
          "type": "string"
        },
        {
          "internalType": "string",
          "name": "_networkName",
          "type": "string"
        }
      ],
      "name": "initialize",
      "outputs": [],
      "stateMutability": "nonpayable",
      "type": "function"
    },
    {
      "inputs": [],
      "name": "isEmergencyState",
      "outputs": [
        {
          "internalType": "bool",
          "name": "",
          "type": "bool"
        }
      ],
      "stateMutability": "view",
      "type": "function"
    },
    {
      "inputs": [],
      "name": "lastBatchSequenced",
      "outputs": [
        {
          "internalType": "uint64",
          "name": "",
          "type": "uint64"
        }
      ],
      "stateMutability": "view",
      "type": "function"
    },
    {
      "inputs": [],
      "name": "lastForceBatch",
      "outputs": [
        {
          "internalType": "uint64",
          "name": "",
          "type": "uint64"
        }
      ],
      "stateMutability": "view",
      "type": "function"
    },
    {
      "inputs": [],
      "name": "lastForceBatchSequenced",
      "outputs": [
        {
          "internalType": "uint64",
          "name": "",
          "type": "uint64"
        }
      ],
      "stateMutability": "view",
      "type": "function"
    },
    {
      "inputs": [],
      "name": "lastPendingState",
      "outputs": [
        {
          "internalType": "uint64",
          "name": "",
          "type": "uint64"
        }
      ],
      "stateMutability": "view",
      "type": "function"
    },
    {
      "inputs": [],
      "name": "lastPendingStateConsolidated",
      "outputs": [
        {
          "internalType": "uint64",
          "name": "",
          "type": "uint64"
        }
      ],
      "stateMutability": "view",
      "type": "function"
    },
    {
      "inputs": [],
      "name": "lastTimestamp",
      "outputs": [
        {
          "internalType": "uint64",
          "name": "",
          "type": "uint64"
        }
      ],
      "stateMutability": "view",
      "type": "function"
    },
    {
      "inputs": [],
      "name": "lastVerifiedBatch",
      "outputs": [
        {
          "internalType": "uint64",
          "name": "",
          "type": "uint64"
        }
      ],
      "stateMutability": "view",
      "type": "function"
    },
    {
      "inputs": [],
      "name": "matic",
      "outputs": [
        {
          "internalType": "contract IERC20Upgradeable",
          "name": "",
          "type": "address"
        }
      ],
      "stateMutability": "view",
      "type": "function"
    },
    {
      "inputs": [],
      "name": "networkName",
      "outputs": [
        {
          "internalType": "string",
          "name": "",
          "type": "string"
        }
      ],
      "stateMutability": "view",
      "type": "function"
    },
    {
      "inputs": [],
      "name": "owner",
      "outputs": [
        {
          "internalType": "address",
          "name": "",
          "type": "address"
        }
      ],
      "stateMutability": "view",
      "type": "function"
    },
    {
      "inputs": [],
      "name": "pendingStateTimeout",
      "outputs": [
        {
          "internalType": "uint64",
          "name": "",
          "type": "uint64"
        }
      ],
      "stateMutability": "view",
      "type": "function"
    },
    {
      "inputs": [
        {
          "internalType": "uint256",
          "name": "",
          "type": "uint256"
        }
      ],
      "name": "pendingStateTransitions",
      "outputs": [
        {
          "internalType": "uint64",
          "name": "timestamp",
          "type": "uint64"
        },
        {
          "internalType": "uint64",
          "name": "lastVerifiedBatch",
          "type": "uint64"
        },
        {
          "internalType": "bytes32",
          "name": "exitRoot",
          "type": "bytes32"
        },
        {
          "internalType": "bytes32",
          "name": "stateRoot",
          "type": "bytes32"
        }
      ],
      "stateMutability": "view",
      "type": "function"
    },
    {
      "inputs": [
        {
          "internalType": "uint64",
          "name": "initPendingStateNum",
          "type": "uint64"
        },
        {
          "internalType": "uint64",
          "name": "finalPendingStateNum",
          "type": "uint64"
        },
        {
          "internalType": "uint64",
          "name": "initNumBatch",
          "type": "uint64"
        },
        {
          "internalType": "uint64",
          "name": "finalNewBatch",
          "type": "uint64"
        },
        {
          "internalType": "bytes32",
          "name": "newLocalExitRoot",
          "type": "bytes32"
        },
        {
          "internalType": "bytes32",
          "name": "newStateRoot",
          "type": "bytes32"
        },
        {
          "internalType": "uint256[2]",
          "name": "proofA",
          "type": "uint256[2]"
        },
        {
          "internalType": "uint256[2][2]",
          "name": "proofB",
          "type": "uint256[2][2]"
        },
        {
          "internalType": "uint256[2]",
          "name": "proofC",
          "type": "uint256[2]"
        }
      ],
      "name": "proveNonDeterministicPendingState",
      "outputs": [],
      "stateMutability": "nonpayable",
      "type": "function"
    },
    {
      "inputs": [],
      "name": "renounceOwnership",
      "outputs": [],
      "stateMutability": "nonpayable",
      "type": "function"
    },
    {
      "inputs": [],
      "name": "rollupVerifier",
      "outputs": [
        {
          "internalType": "contract IVerifierRollup",
          "name": "",
          "type": "address"
        }
      ],
      "stateMutability": "view",
      "type": "function"
    },
    {
      "inputs": [
        {
          "components": [
            {
              "internalType": "bytes",
              "name": "transactions",
              "type": "bytes"
            },
            {
              "internalType": "bytes32",
              "name": "globalExitRoot",
              "type": "bytes32"
            },
            {
              "internalType": "uint64",
              "name": "timestamp",
              "type": "uint64"
            },
            {
              "internalType": "uint64",
              "name": "minForcedTimestamp",
              "type": "uint64"
            }
          ],
          "internalType": "struct ProofOfEfficiency.BatchData[]",
          "name": "batches",
          "type": "tuple[]"
        }
      ],
      "name": "sequenceBatches",
      "outputs": [],
      "stateMutability": "nonpayable",
      "type": "function"
    },
    {
      "inputs": [
        {
          "components": [
            {
              "internalType": "bytes",
              "name": "transactions",
              "type": "bytes"
            },
            {
              "internalType": "bytes32",
              "name": "globalExitRoot",
              "type": "bytes32"
            },
            {
              "internalType": "uint64",
              "name": "minForcedTimestamp",
              "type": "uint64"
            }
          ],
          "internalType": "struct ProofOfEfficiency.ForcedBatchData[]",
          "name": "batches",
          "type": "tuple[]"
        }
      ],
      "name": "sequenceForceBatches",
      "outputs": [],
      "stateMutability": "nonpayable",
      "type": "function"
    },
    {
      "inputs": [
        {
          "internalType": "uint64",
          "name": "",
          "type": "uint64"
        }
      ],
      "name": "sequencedBatches",
      "outputs": [
        {
          "internalType": "bytes32",
          "name": "accInputHash",
          "type": "bytes32"
        },
        {
          "internalType": "uint64",
          "name": "sequencedTimestamp",
          "type": "uint64"
        }
      ],
      "stateMutability": "view",
      "type": "function"
    },
    {
      "inputs": [
        {
          "internalType": "address",
          "name": "newAdmin",
          "type": "address"
        }
      ],
      "name": "setAdmin",
      "outputs": [],
      "stateMutability": "nonpayable",
      "type": "function"
    },
    {
      "inputs": [
        {
          "internalType": "bool",
          "name": "newForceBatchAllowed",
          "type": "bool"
        }
      ],
      "name": "setForceBatchAllowed",
      "outputs": [],
      "stateMutability": "nonpayable",
      "type": "function"
    },
    {
      "inputs": [
        {
          "internalType": "address",
          "name": "newTrustedAggregator",
          "type": "address"
        }
      ],
      "name": "setTrustedAggregator",
      "outputs": [],
      "stateMutability": "nonpayable",
      "type": "function"
    },
    {
      "inputs": [
        {
          "internalType": "uint64",
          "name": "newTrustedAggregatorTimeout",
          "type": "uint64"
        }
      ],
      "name": "setTrustedAggregatorTimeout",
      "outputs": [],
      "stateMutability": "nonpayable",
      "type": "function"
    },
    {
      "inputs": [
        {
          "internalType": "address",
          "name": "newTrustedSequencer",
          "type": "address"
        }
      ],
      "name": "setTrustedSequencer",
      "outputs": [],
      "stateMutability": "nonpayable",
      "type": "function"
    },
    {
      "inputs": [
        {
          "internalType": "string",
          "name": "newTrustedSequencerURL",
          "type": "string"
        }
      ],
      "name": "setTrustedSequencerURL",
      "outputs": [],
      "stateMutability": "nonpayable",
      "type": "function"
    },
    {
      "inputs": [
        {
          "internalType": "address",
          "name": "newOwner",
          "type": "address"
        }
      ],
      "name": "transferOwnership",
      "outputs": [],
      "stateMutability": "nonpayable",
      "type": "function"
    },
    {
      "inputs": [],
      "name": "trustedAggregator",
      "outputs": [
        {
          "internalType": "address",
          "name": "",
          "type": "address"
        }
      ],
      "stateMutability": "view",
      "type": "function"
    },
    {
      "inputs": [],
      "name": "trustedAggregatorTimeout",
      "outputs": [
        {
          "internalType": "uint64",
          "name": "",
          "type": "uint64"
        }
      ],
      "stateMutability": "view",
      "type": "function"
    },
    {
      "inputs": [],
      "name": "trustedSequencer",
      "outputs": [
        {
          "internalType": "address",
          "name": "",
          "type": "address"
        }
      ],
      "stateMutability": "view",
      "type": "function"
    },
    {
      "inputs": [],
      "name": "trustedSequencerURL",
      "outputs": [
        {
          "internalType": "string",
          "name": "",
          "type": "string"
        }
      ],
      "stateMutability": "view",
      "type": "function"
    },
    {
      "inputs": [
        {
          "internalType": "uint64",
          "name": "pendingStateNum",
          "type": "uint64"
        },
        {
          "internalType": "uint64",
          "name": "initNumBatch",
          "type": "uint64"
        },
        {
          "internalType": "uint64",
          "name": "finalNewBatch",
          "type": "uint64"
        },
        {
          "internalType": "bytes32",
          "name": "newLocalExitRoot",
          "type": "bytes32"
        },
        {
          "internalType": "bytes32",
          "name": "newStateRoot",
          "type": "bytes32"
        },
        {
          "internalType": "uint256[2]",
          "name": "proofA",
          "type": "uint256[2]"
        },
        {
          "internalType": "uint256[2][2]",
          "name": "proofB",
          "type": "uint256[2][2]"
        },
        {
          "internalType": "uint256[2]",
          "name": "proofC",
          "type": "uint256[2]"
        }
      ],
      "name": "trustedVerifyBatches",
      "outputs": [],
      "stateMutability": "nonpayable",
      "type": "function"
    },
    {
      "inputs": [
        {
          "internalType": "uint64",
          "name": "pendingStateNum",
          "type": "uint64"
        },
        {
          "internalType": "uint64",
          "name": "initNumBatch",
          "type": "uint64"
        },
        {
          "internalType": "uint64",
          "name": "finalNewBatch",
          "type": "uint64"
        },
        {
          "internalType": "bytes32",
          "name": "newLocalExitRoot",
          "type": "bytes32"
        },
        {
          "internalType": "bytes32",
          "name": "newStateRoot",
          "type": "bytes32"
        },
        {
          "internalType": "uint256[2]",
          "name": "proofA",
          "type": "uint256[2]"
        },
        {
          "internalType": "uint256[2][2]",
          "name": "proofB",
          "type": "uint256[2][2]"
        },
        {
          "internalType": "uint256[2]",
          "name": "proofC",
          "type": "uint256[2]"
        }
      ],
      "name": "verifyBatches",
      "outputs": [],
      "stateMutability": "nonpayable",
      "type": "function"
    }
  ],
  "bytecode": "0x608060405234801561001057600080fd5b506158b880620000216000396000f3fe608060405234801561001057600080fd5b50600436106103415760003560e01c8063841b24d7116101bd578063d02103ca116100f9578063e7a7ed02116100a2578063edc411211161007c578063edc4112114610793578063f14916d6146107a6578063f2fde38b146107b9578063f851a440146107cc57600080fd5b8063e7a7ed0214610753578063e8bf92ed1461076d578063eaeb077b1461078057600080fd5b8063d939b315116100d3578063d939b31514610731578063dbc169761461074b578063e79171ed146105f957600080fd5b8063d02103ca146106f7578063d8d1091b1461070a578063d8f54db01461071d57600080fd5b8063ab9fc5ef11610166578063b4d63f5811610140578063b4d63f5814610665578063b6b0b097146106b2578063c89e42df146106ca578063cfa8ed47146106dd57600080fd5b8063ab9fc5ef146105f9578063adc879e914610642578063b02286c01461065c57600080fd5b80638da5cb5b116101975780638da5cb5b1461061657806399f5634e14610627578063a3c573eb1461062f57600080fd5b8063841b24d7146105df5780638b48931e146105f95780638c4a0af71461060357600080fd5b80634a910e6a1161028c578063704b6c021161023557806375c508b31161020f57806375c508b3146105435780637abaf3e6146105565780637fcb36531461055e578063837a47381461057157600080fd5b8063704b6c0214610515578063715018a6146105285780637215541a1461053057600080fd5b80636a2877c8116102665780636a2877c8146104cf5780636b8616ce146104e25780636ff512cc1461050257600080fd5b80634a910e6a146104865780635392c5e014610499578063542028d5146104c757600080fd5b80633c158267116102ee578063458c0477116102c8578063458c0477146104465780634834a343146104595780634a1a89a71461046c57600080fd5b80633c158267146103ff578063423fa85614610412578063456052671461042c57600080fd5b8063220d78991161031f578063220d7899146103ac57806329878983146103bf578063394218e9146103ea57600080fd5b8063107bf28c1461034657806315064c961461036457806319d8ac6114610381575b600080fd5b61034e6107df565b60405161035b9190614dce565b60405180910390f35b6065546103719060ff1681565b604051901515815260200161035b565b606854610394906001600160401b031681565b6040516001600160401b03909116815260200161035b565b61034e6103ba366004614e04565b61086d565b606a546103d2906001600160a01b031681565b6040516001600160a01b03909116815260200161035b565b6103fd6103f8366004614e51565b610a30565b005b6103fd61040d366004614f8e565b610c79565b60685461039490600160401b90046001600160401b031681565b60685461039490600160801b90046001600160401b031681565b607254610394906001600160401b031681565b6103fd6104673660046150cc565b61153d565b60725461039490600160401b90046001600160401b031681565b6103fd610494366004614e51565b611d3f565b6104b96104a7366004614e51565b606d6020526000908152604090205481565b60405190815260200161035b565b61034e612030565b6103fd6104dd36600461516e565b61203d565b6104b96104f0366004614e51565b60666020526000908152604090205481565b6103fd610510366004615245565b61238b565b6103fd610523366004615245565b612465565b6103fd61251e565b6103fd61053e366004614e51565b612532565b6103fd610551366004615262565b612713565b6104b9612fe4565b606954610394906001600160401b031681565b6105b461057f366004615300565b6071602052600090815260409020805460018201546002909201546001600160401b0380831693600160401b90930416919084565b604080516001600160401b03958616815294909316602085015291830152606082015260800161035b565b60725461039490600160c01b90046001600160401b031681565b61039462093a8081565b6103fd610611366004615327565b61303a565b6033546001600160a01b03166103d2565b6104b96130f2565b6070546103d2906001600160a01b031681565b606c5461039490600160a81b90046001600160401b031681565b6104b961ea6081565b610695610673366004614e51565b606760205260009081526040902080546001909101546001600160401b031682565b604080519283526001600160401b0390911660208301520161035b565b6065546103d29061010090046001600160a01b031681565b6103fd6106d8366004615344565b6131ed565b6069546103d290600160401b90046001600160a01b031681565b606c546103d2906001600160a01b031681565b6103fd610718366004615378565b613294565b606c5461037190600160a01b900460ff1681565b60725461039490600160801b90046001600160401b031681565b6103fd613867565b60685461039490600160c01b90046001600160401b031681565b606b546103d2906001600160a01b031681565b6103fd61078e36600461546a565b6139ba565b6103fd6107a13660046150cc565b613df9565b6103fd6107b4366004615245565b61448e565b6103fd6107c7366004615245565b614547565b6073546103d2906001600160a01b031681565b606f80546107ec906154ae565b80601f0160208091040260200160405190810160405280929190818152602001828054610818906154ae565b80156108655780601f1061083a57610100808354040283529160200191610865565b820191906000526020600020905b81548152906001019060200180831161084857829003601f168201915b505050505081565b6001600160401b0380861660008181526067602052604080822054938816825290205460609291158061089f57508115155b6109245760405162461bcd60e51b815260206004820152604560248201527f50726f6f664f66456666696369656e63793a3a676574496e707574536e61726b60448201527f42797465733a206f6c64416363496e7075744861736820646f6573206e6f7420606482015264195e1a5cdd60da1b608482015260a4015b60405180910390fd5b806109a55760405162461bcd60e51b815260206004820152604560248201527f50726f6f664f66456666696369656e63793a3a676574496e707574536e61726b60448201527f42797465733a206e6577416363496e7075744861736820646f6573206e6f7420606482015264195e1a5cdd60da1b608482015260a40161091b565b606c54604080516bffffffffffffffffffffffff193360601b166020820152603481019790975260548701939093526001600160c01b031960c0998a1b81166074880152600160a81b909104891b8116607c870152608486019490945260a485015260c4840194909452509290931b90911660e4830152805180830360cc01815260ec909201905290565b6073546001600160a01b03163314610a9b5760405162461bcd60e51b815260206004820152602860248201527f50726f6f664f66456666696369656e63793a3a6f6e6c7941646d696e3a206f6e604482015267363c9030b236b4b760c11b606482015260840161091b565b60725462093a80600160c01b9091046001600160401b03161115610b4d5760405162461bcd60e51b815260206004820152605560248201527f50726f6f664f66456666696369656e63793a3a7365745472757374656441676760448201527f72656761746f7254696d656f75743a20657863656564206d617820747275737460648201527f65642061676772656761746f722074696d656f75740000000000000000000000608482015260a40161091b565b60655460ff16610c08576072546001600160401b03600160c01b909104811690821610610c085760405162461bcd60e51b815260206004820152604960248201527f50726f6f664f66456666696369656e63793a3a7365745472757374656441676760448201527f72656761746f7254696d656f75743a206e65772074696d656f7574206d75737460648201527f206265206c6f7765720000000000000000000000000000000000000000000000608482015260a40161091b565b6072805477ffffffffffffffffffffffffffffffffffffffffffffffff16600160c01b6001600160401b038481168202929092179283905560405192041681527f1f4fa24c2e4bad19a7f3ec5c5485f70d46c798461c2e684f55bbd0fc661373a1906020015b60405180910390a150565b60655460ff1615610cfd5760405162461bcd60e51b815260206004820152604260248201527f456d657267656e63794d616e616765723a3a69664e6f74456d657267656e637960448201527f53746174653a206f6e6c79206966206e6f7420656d657267656e637920737461606482015261746560f01b608482015260a40161091b565b606954600160401b90046001600160a01b03163314610d845760405162461bcd60e51b815260206004820152603f60248201527f50726f6f664f66456666696369656e63793a3a6f6e6c7954727573746564536560448201527f7175656e6365723a206f6e6c7920747275737465642073657175656e63657200606482015260840161091b565b805180610e045760405162461bcd60e51b815260206004820152604260248201527f50726f6f664f66456666696369656e63793a3a73657175656e6365426174636860448201527f65733a204174206c65617374206d7573742073657175656e63652031206261746064820152610c6d60f31b608482015260a40161091b565b6068546001600160401b03600160401b82048116600081815260676020526040812054838516949293600160801b90930490921691905b85811015611353576000878281518110610e5757610e576154e8565b60200260200101519050600081606001516001600160401b031611156110395783610e8181615514565b945050600081600001518051906020012082602001518360600151604051602001610ecc93929190928352602083019190915260c01b6001600160c01b031916604082015260480190565b60408051601f1981840301815291815281516020928301206001600160401b038816600090815260669093529120549091508114610f7d5760405162461bcd60e51b815260206004820152604260248201527f50726f6f664f66456666696369656e63793a3a73657175656e6365426174636860448201527f65733a20466f7263656420626174636865732064617461206d757374206d61746064820152610c6d60f31b608482015260a40161091b565b81606001516001600160401b031682604001516001600160401b031610156110335760405162461bcd60e51b815260206004820152605d60248201527f50726f6f664f66456666696369656e63793a3a73657175656e6365426174636860448201527f65733a20466f7263656420626174636865732074696d657374616d70206d757360648201527f7420626520626967676572206f7220657175616c207468616e206d696e000000608482015260a40161091b565b506111ec565b602081015115806110db5750606c5460208201516040517f257b36320000000000000000000000000000000000000000000000000000000081526001600160a01b039092169163257b3632916110959160040190815260200190565b6020604051808303816000875af11580156110b4573d6000803e3d6000fd5b505050506040513d601f19601f820116820180604052508101906110d8919061553a565b15155b61114d5760405162461bcd60e51b815260206004820152603f60248201527f50726f6f664f66456666696369656e63793a3a73657175656e6365426174636860448201527f65733a20476c6f62616c206578697420726f6f74206d75737420657869737400606482015260840161091b565b80515161ea60116111ec5760405162461bcd60e51b815260206004820152604a60248201527f50726f6f664f664566666963696550656e64696e67537461746563793a3a736560448201527f7175656e6365426174636865733a205472616e73616374696f6e73206279746560648201527f73206f766572666c6f7700000000000000000000000000000000000000000000608482015260a40161091b565b856001600160401b031681604001516001600160401b03161015801561121f57504281604001516001600160401b031611155b6112b75760405162461bcd60e51b815260206004820152604260248201527f50726f6f664f66456666696369656e63793a3a73657175656e6365426174636860448201527f65733a2054696d657374616d70206d75737420626520696e736964652072616e60648201527f6765000000000000000000000000000000000000000000000000000000000000608482015260a40161091b565b805180516020918201208183015160408085015181519485018890529084019290925260608084019190915260c09190911b6001600160c01b031916608083015233901b6bffffffffffffffffffffffff19166088820152609c01604051602081830303815290604052805190602001209250848061133590615514565b9550508060400151955050808061134b90615553565b915050610e3b565b506068546001600160401b03600160c01b909104811690831611156113e05760405162461bcd60e51b815260206004820152603a60248201527f50726f6f664f66456666696369656e63793a3a73657175656e6365426174636860448201527f65733a20466f7263652062617463686573206f766572666c6f77000000000000606482015260840161091b565b60685460009061140090600160801b90046001600160401b03168461556c565b611413906001600160401b031687615594565b606880546001600160401b03868116600160801b027fffffffffffffffff0000000000000000ffffffffffffffffffffffffffffffff898316600160401b81026fffffffffffffffffffffffffffffffff19909516848d1617949094171617909255604080518082018252868152428416602080830191825260009485526067905291909220915182555160019190910180549190921667ffffffffffffffff199190911617905590506114ee3330836114cb612fe4565b6114d591906155ab565b60655461010090046001600160a01b03169291906145d4565b6114f6614685565b606854604051600160401b9091046001600160401b0316907f303446e6a8cb73c83dff421c0b1d5e5ce0719dab1bff13660fc254e58cc17fce90600090a250505050505050565b60655460ff16156115c15760405162461bcd60e51b815260206004820152604260248201527f456d657267656e63794d616e616765723a3a69664e6f74456d657267656e637960448201527f53746174653a206f6e6c79206966206e6f7420656d657267656e637920737461606482015261746560f01b608482015260a40161091b565b6072546001600160401b0387811660009081526067602052604090206001015442926115f892600160c01b909104811691166155ca565b6001600160401b031611156116895760405162461bcd60e51b8152602060048201526048602482015260008051602061586383398151915260448201527f3a20747275737465642061676772656761746f722074696d656f7574206e6f7460648201527f2065787069726564000000000000000000000000000000000000000000000000608482015260a40161091b565b60725460009081906001600160401b0316156116ca57506072546001600160401b03908116600090815260716020526040902054600160401b9004166116d8565b506069546001600160401b03165b6001600160401b038a161561183e576072546001600160401b03908116908b1611156117805760405162461bcd60e51b815260206004820152605d602482015260008051602061586383398151915260448201527f3a2070656e64696e6753746174654e756d206d757374206265206c657373206f60648201527f7220657175616c207468616e206c61737450656e64696e675374617465000000608482015260a40161091b565b6001600160401b03808b1660009081526071602052604090206002810154815490945090918b8116600160401b90920416146118385760405162461bcd60e51b8152602060048201526051602482015260008051602061586383398151915260448201527f3a20696e69744e756d4261746368206d757374206d617463682074686520706560648201527f6e64696e67207374617465206261746368000000000000000000000000000000608482015260a40161091b565b5061197a565b6001600160401b0389166000908152606d60205260409020546118c85760405162461bcd60e51b8152602060048201526048602482015260008051602061586383398151915260448201527f3a20696e69744e756d426174636820737461746520726f6f7420646f6573206e6064820152671bdd08195e1a5cdd60c21b608482015260a40161091b565b6001600160401b03808a166000818152606d60205260409020549350908216101561197a5760405162461bcd60e51b8152602060048201526062602482015260008051602061586383398151915260448201527f3a20696e69744e756d4261746368206d757374206265206c657373206f72206560648201527f7175616c207468616e2063757272656e744c61737456657269666965644261746084820152610c6d60f31b60a482015260c40161091b565b806001600160401b0316886001600160401b031611611a155760405162461bcd60e51b815260206004820152605c602482015260008051602061586383398151915260448201527f3a2066696e616c4e65774261746368206d75737420626520626967676572207460648201527f68616e2063757272656e744c6173745665726966696564426174636800000000608482015260a40161091b565b6000611a248a8a8a868b61086d565b905060007f30644e72e131a029b85045b68181585d2833e84879b9709143e1f593f0000001600283604051611a5991906155f5565b602060405180830381855afa158015611a76573d6000803e3d6000fd5b5050506040513d601f19601f82011682018060405250810190611a99919061553a565b611aa39190615627565b606b546040805160208101825283815290516343753b4d60e01b81529293506001600160a01b03909116916343753b4d91611ae7918b918b918b919060040161563b565b602060405180830381865afa158015611b04573d6000803e3d6000fd5b505050506040513d601f19601f82011682018060405250810190611b2891906156b5565b611b885760405162461bcd60e51b815260206004820152602f602482015260008051602061586383398151915260448201527f3a20494e56414c49445f50524f4f460000000000000000000000000000000000606482015260840161091b565b611bc933611b96858d61556c565b6001600160401b0316611ba76130f2565b611bb191906155ab565b60655461010090046001600160a01b03169190614791565b611bd1614685565b607280546001600160401b0316906000611bea83615514565b91906101000a8154816001600160401b0302191690836001600160401b03160217905550506040518060800160405280426001600160401b031681526020018b6001600160401b031681526020018a81526020018981525060716000607260009054906101000a90046001600160401b03166001600160401b0316815260200190815260200160002060008201518160000160006101000a8154816001600160401b0302191690836001600160401b0316021790555060208201518160000160086101000a8154816001600160401b0302191690836001600160401b031602179055506040820151816001015560608201518160020155905050336001600160a01b03168a6001600160401b03167f9c72852172521097ba7e1482e6b44b351323df0155f97f4ea18fcec28e1f59668a604051611d2991815260200190565b60405180910390a3505050505050505050505050565b6001600160401b03811615801590611d6c57506072546001600160401b03600160401b9091048116908216115b8015611d8757506072546001600160401b0390811690821611155b611e1f5760405162461bcd60e51b815260206004820152604860248201527f50726f6f664f66456666696369656e63793a3a636f6e736f6c6964617465506560448201527f6e64696e6753746174653a2070656e64696e6753746174654e756d206d75737460648201527f20696e76616c6964000000000000000000000000000000000000000000000000608482015260a40161091b565b6001600160401b0381166000908152607160205260409020606a546001600160a01b03163314611f105760725481544291611e6d916001600160401b03600160801b909204821691166155ca565b6001600160401b03161115611f105760405162461bcd60e51b815260206004820152605960248201527f50726f6f664f66456666696369656e63793a3a636f6e736f6c6964617465506560448201527f6e64696e6753746174653a2070656e64696e67207374617465206973206e6f7460648201527f20726561647920746f20626520636f6e736f6c69646174656400000000000000608482015260a40161091b565b805460698054600160401b928390046001600160401b0390811667ffffffffffffffff19909216821790925560028401546000828152606d60205260409081902091909155607280546fffffffffffffffff0000000000000000191693871690940292909217909255606c54600184015491516333d6247d60e01b815260048101929092526001600160a01b0316906333d6247d90602401600060405180830381600087803b158015611fc257600080fd5b505af1158015611fd6573d6000803e3d6000fd5b50505050336001600160a01b0316816001600160401b03167f01f7d32e3b3278bace940a581067c87090c1aa09809730dd4ca002320c3a3cfa846002015460405161202391815260200190565b60405180910390a3505050565b606e80546107ec906154ae565b600054610100900460ff161580801561205d5750600054600160ff909116105b806120775750303b158015612077575060005460ff166001145b6120e95760405162461bcd60e51b815260206004820152602e60248201527f496e697469616c697a61626c653a20636f6e747261637420697320616c72656160448201527f647920696e697469616c697a6564000000000000000000000000000000000000606482015260840161091b565b6000805460ff19166001179055801561210c576000805461ff0019166101001790555b606c80546001600160a01b03199081166001600160a01b038c811691909117909255606580547fffffffffffffffffffffff0000000000000000000000000000000000000000ff166101008c851602179055606b805482168a8416179055607080549091169188169190911790556121876020860186615245565b607380546001600160a01b0319166001600160a01b03929092169190911790556121b76060860160408701615245565b606980546001600160a01b0392909216600160401b027fffffffff0000000000000000000000000000000000000000ffffffffffffffff90921691909117905561220760a0860160808701615245565b606a80546001600160a01b0319166001600160a01b039290921691909117905560008052606d6020527fda90043ba5b4096ba14704bc227ab0d3167da15b887e62ab2e76e37daa71135684905561226460c0860160a08701614e51565b607280546001600160401b0392909216600160c01b0277ffffffffffffffffffffffffffffffffffffffffffffffff9092169190911790556122ac6040860160208701614e51565b606c80546001600160401b0392909216600160a81b027fffffff0000000000000000ffffffffffffffffffffffffffffffffffffffffff9092169190911790556122fc6080860160608701615327565b606c8054911515600160a01b0260ff60a01b19909216919091179055606e6123248482615720565b50606f6123318382615720565b5061233a6147df565b8015612380576000805461ff0019169055604051600181527f7f26b83ff96e1f2b6a682f133852f6798a09c465da95921460cefb38474024989060200160405180910390a15b505050505050505050565b6073546001600160a01b031633146123f65760405162461bcd60e51b815260206004820152602860248201527f50726f6f664f66456666696369656e63793a3a6f6e6c7941646d696e3a206f6e604482015267363c9030b236b4b760c11b606482015260840161091b565b606980547fffffffff0000000000000000000000000000000000000000ffffffffffffffff16600160401b6001600160a01b038416908102919091179091556040519081527ff54144f9611984021529f814a1cb6a41e22c58351510a0d9f7e822618abb9cc090602001610c6e565b6073546001600160a01b031633146124d05760405162461bcd60e51b815260206004820152602860248201527f50726f6f664f66456666696369656e63793a3a6f6e6c7941646d696e3a206f6e604482015267363c9030b236b4b760c11b606482015260840161091b565b607380546001600160a01b0319166001600160a01b0383169081179091556040519081527f5a272403b402d892977df56625f4164ccaf70ca3863991c43ecfe76a6905b0a190602001610c6e565b612526614865565b61253060006148bf565b565b6033546001600160a01b03163314612708576072546000906001600160401b03161561258357506072546001600160401b03908116600090815260716020526040902054600160401b900416612591565b506069546001600160401b03165b80826001600160401b0316116126355760405162461bcd60e51b815260206004820152604160248201527f50726f6f664f66456666696369656e63793a3a6163746976617465456d65726760448201527f656e637953746174653a20426174636820616c7265616479207665726966696560648201527f6400000000000000000000000000000000000000000000000000000000000000608482015260a40161091b565b6001600160401b0380831660009081526067602052604090206001015442916126639162093a8091166155ca565b6001600160401b031611156127065760405162461bcd60e51b815260206004820152605260248201527f50726f6f664f66456666696369656e63793a3a6163746976617465456d65726760448201527f656e637953746174653a206167677265676174696f6e2068616c742074696d6560648201527f6f7574206973206e6f7420657870697265640000000000000000000000000000608482015260a40161091b565b505b612710614911565b50565b60655460ff16156127975760405162461bcd60e51b815260206004820152604260248201527f456d657267656e63794d616e616765723a3a69664e6f74456d657267656e637960448201527f53746174653a206f6e6c79206966206e6f7420656d657267656e637920737461606482015261746560f01b608482015260a40161091b565b60006001600160401b038a161561296d576072546001600160401b03908116908b1611156128795760405162461bcd60e51b815260206004820152607160248201527f50726f6f664f66456666696369656e63793a3a70726f76654e6f6e446574657260448201527f6d696e697374696350656e64696e6753746174653a2070656e64696e6753746160648201527f74654e756d206d757374206265206c657373206f7220657175616c207468616e60848201527f206c61737450656e64696e67537461746500000000000000000000000000000060a482015260c40161091b565b506001600160401b03808a1660009081526071602052604090206002810154815490928a8116600160401b90920416146129675760405162461bcd60e51b815260206004820152606560248201527f50726f6f664f66456666696369656e63793a3a70726f76654e6f6e446574657260448201527f6d696e697374696350656e64696e6753746174653a20696e69744e756d42617460648201527f6368206d757374206d61746368207468652070656e64696e672073746174652060848201527f626174636800000000000000000000000000000000000000000000000000000060a482015260c40161091b565b50612aff565b6001600160401b0388166000908152606d6020526040902054612a1e5760405162461bcd60e51b815260206004820152605c60248201527f50726f6f664f66456666696369656e63793a3a70726f76654e6f6e446574657260448201527f6d696e697374696350656e64696e6753746174653a20696e69744e756d42617460648201527f636820737461746520726f6f7420646f6573206e6f7420657869737400000000608482015260a40161091b565b506001600160401b038088166000818152606d60205260409020546069549092161015612aff5760405162461bcd60e51b815260206004820152607660248201527f50726f6f664f66456666696369656e63793a3a70726f76654e6f6e446574657260448201527f6d696e697374696350656e64696e6753746174653a20696e69744e756d42617460648201527f6368206d757374206265206c657373206f7220657175616c207468616e20637560848201527f7272656e744c617374566572696669656442617463680000000000000000000060a482015260c40161091b565b6072546001600160401b03908116908a1611801590612b2f5750896001600160401b0316896001600160401b0316115b8015612b5057506072546001600160401b03600160401b9091048116908a16115b612c0e5760405162461bcd60e51b815260206004820152607060248201527f50726f6f664f66456666696369656e63793a3a70726f76654e6f6e446574657260448201527f6d696e697374696350656e64696e6753746174653a2066696e616c4e6577426160648201527f746368206d75737420626520626967676572207468616e2063757272656e744c60848201527f617374566572696669656442617463680000000000000000000000000000000060a482015260c40161091b565b6001600160401b03898116600090815260716020526040902054600160401b9004811690881614612cf35760405162461bcd60e51b815260206004820152607060248201527f50726f6f664f66456666696369656e63793a3a70726f76654e6f6e446574657260448201527f6d696e697374696350656e64696e6753746174653a2066696e616c4e6577426160648201527f746368206d75737420626520626967676572207468616e2063757272656e744c60848201527f617374566572696669656442617463680000000000000000000000000000000060a482015260c40161091b565b6000612d02898989858a61086d565b905060007f30644e72e131a029b85045b68181585d2833e84879b9709143e1f593f0000001600283604051612d3791906155f5565b602060405180830381855afa158015612d54573d6000803e3d6000fd5b5050506040513d601f19601f82011682018060405250810190612d77919061553a565b612d819190615627565b606b546040805160208101825283815290516343753b4d60e01b81529293506001600160a01b03909116916343753b4d91612dc5918a918a918a919060040161563b565b602060405180830381865afa158015612de2573d6000803e3d6000fd5b505050506040513d601f19601f82011682018060405250810190612e0691906156b5565b612e9e5760405162461bcd60e51b815260206004820152604360248201527f50726f6f664f66456666696369656e63793a3a70726f76654e6f6e446574657260448201527f6d696e697374696350656e64696e6753746174653a20494e56414c49445f505260648201527f4f4f460000000000000000000000000000000000000000000000000000000000608482015260a40161091b565b6001600160401b038b16600090815260716020526040902060020154879003612f7b5760405162461bcd60e51b815260206004820152606760248201527f50726f6f664f66456666696369656e63793a3a70726f76654e6f6e446574657260448201527f6d696e697374696350656e64696e6753746174653a2073746f72656420726f6f60648201527f74206d75737420626520646966666572656e74207468616e206e65772073746160848201527f746520726f6f740000000000000000000000000000000000000000000000000060a482015260c40161091b565b6001600160401b0389166000908152606d60209081526040918290205482519081529081018990527f10b370e2afd2be06fe3170fec9cb3bbd87233f3deb63d488c0dde59813afdabe910160405180910390a1612fd6614911565b505050505050505050505050565b6068546000906001600160401b03600160801b820481169161301091600160c01b9091041660016155ca565b61301a919061556c565b613035906001600160401b0316670de0b6b3a76400006155ab565b905090565b6073546001600160a01b031633146130a55760405162461bcd60e51b815260206004820152602860248201527f50726f6f664f66456666696369656e63793a3a6f6e6c7941646d696e3a206f6e604482015267363c9030b236b4b760c11b606482015260840161091b565b606c8054821515600160a01b0260ff60a01b199091161790556040517fbacda50a4a8575be1d91a7ebe29ee45056f3a94f12a2281eb6b43afa33bcefe690610c6e90831515815260200190565b6065546040517f70a0823100000000000000000000000000000000000000000000000000000000815230600482015260009182916101009091046001600160a01b0316906370a0823190602401602060405180830381865afa15801561315c573d6000803e3d6000fd5b505050506040513d601f19601f82011682018060405250810190613180919061553a565b6069546068549192506000916001600160401b0391821691600160401b82048116916131bd91600160801b8204811691600160c01b90041661556c565b6131c791906155ca565b6131d1919061556c565b6001600160401b031690506131e681836157df565b9250505090565b6073546001600160a01b031633146132585760405162461bcd60e51b815260206004820152602860248201527f50726f6f664f66456666696369656e63793a3a6f6e6c7941646d696e3a206f6e604482015267363c9030b236b4b760c11b606482015260840161091b565b606e6132648282615720565b507f6b8f723a4c7a5335cafae8a598a0aa0301be1387c037dccc085b62add6448b2081604051610c6e9190614dce565b60655460ff16156133185760405162461bcd60e51b815260206004820152604260248201527f456d657267656e63794d616e616765723a3a69664e6f74456d657267656e637960448201527f53746174653a206f6e6c79206966206e6f7420656d657267656e637920737461606482015261746560f01b608482015260a40161091b565b606c54600160a01b900460ff1615156001146133ad5760405162461bcd60e51b815260206004820152604860248201527f50726f6f664f66456666696369656e63793a3a6973466f72636542617463684160448201527f6c6c6f7765643a206f6e6c7920696620666f72636520626174636820697320616064820152677661696c61626c6560c01b608482015260a40161091b565b80518061342d5760405162461bcd60e51b815260206004820152604260248201527f50726f6f664f66456666696369656e63793a3a73657175656e6365466f72636560448201527f42617463683a204d75737420666f726365206174206c656173742031206261746064820152610c6d60f31b608482015260a40161091b565b6068546001600160401b03600160c01b8204811691613455918491600160801b9004166157f3565b11156134c95760405162461bcd60e51b815260206004820152603a60248201527f50726f6f664f66456666696369656e63793a3a73657175656e6365466f72636560448201527f42617463683a20466f72636520626174636820696e76616c6964000000000000606482015260840161091b565b6068546001600160401b03600160401b820481166000818152606760205260408120549193600160801b9004909216915b8481101561378a576000868281518110613516576135166154e8565b60200260200101519050838061352b90615514565b825180516020918201208185015160408087015181519485019390935283015260c01b6001600160c01b03191660608201529095506000915060680160408051601f1981840301815291815281516020928301206001600160401b0388166000908152606690935291205490915081146136335760405162461bcd60e51b815260206004820152604760248201527f50726f6f664f66456666696369656e63793a3a73657175656e6365466f72636560448201527f426174636865733a20466f7263656420626174636865732064617461206d757360648201527f74206d6174636800000000000000000000000000000000000000000000000000608482015260a40161091b565b61363e600188615594565b83036136fb574262093a80836040015161365891906155ca565b6001600160401b031611156136fb5760405162461bcd60e51b815260206004820152604c60248201527f50726f6f664f66456666696369656e63793a3a73657175656e6365466f72636560448201527f42617463683a20466f72636564206261746368206973206e6f7420696e20746960648201527f6d656f757420706572696f640000000000000000000000000000000000000000608482015260a40161091b565b8151805160209182012081840151604080519384018890528301919091526060808301919091524260c01b6001600160c01b031916608083015233901b6bffffffffffffffffffffffff19166088820152609c01604051602081830303815290604052805190602001209350858061377290615514565b9650505050808061378290615553565b9150506134fa565b5060688054426001600160401b039081166fffffffffffffffffffffffffffffffff199092168217600160401b878316818102929092177fffffffffffffffff0000000000000000ffffffffffffffffffffffffffffffff16600160801b888516021785556040805180820182528781526020808201968752600094855260679052818420905181559451600195909501805467ffffffffffffffff191695851695909517909455935492519390920416917f648a61dd2438f072f5a1960939abd30f37aea80d2e94c9792ad142d3e0a490a49190a25050505050565b60655460ff166138df5760405162461bcd60e51b815260206004820152603b60248201527f456d657267656e63794d616e616765723a3a6966456d657267656e637953746160448201527f74653a206f6e6c7920696620656d657267656e63792073746174650000000000606482015260840161091b565b6073546001600160a01b0316331461394a5760405162461bcd60e51b815260206004820152602860248201527f50726f6f664f66456666696369656e63793a3a6f6e6c7941646d696e3a206f6e604482015267363c9030b236b4b760c11b606482015260840161091b565b607060009054906101000a90046001600160a01b03166001600160a01b031663dbc169766040518163ffffffff1660e01b8152600401600060405180830381600087803b15801561399a57600080fd5b505af11580156139ae573d6000803e3d6000fd5b50505050612530614981565b60655460ff1615613a3e5760405162461bcd60e51b815260206004820152604260248201527f456d657267656e63794d616e616765723a3a69664e6f74456d657267656e637960448201527f53746174653a206f6e6c79206966206e6f7420656d657267656e637920737461606482015261746560f01b608482015260a40161091b565b606c54600160a01b900460ff161515600114613ad35760405162461bcd60e51b815260206004820152604860248201527f50726f6f664f66456666696369656e63793a3a6973466f72636542617463684160448201527f6c6c6f7765643a206f6e6c7920696620666f72636520626174636820697320616064820152677661696c61626c6560c01b608482015260a40161091b565b6000613add612fe4565b905081811115613b555760405162461bcd60e51b815260206004820152602f60248201527f50726f6f664f66456666696369656e63793a3a666f72636542617463683a206e60448201527f6f7420656e6f756768206d617469630000000000000000000000000000000000606482015260840161091b565b61ea60835110613bcd5760405162461bcd60e51b815260206004820152603a60248201527f50726f6f664f66456666696369656e63793a3a666f72636542617463683a205460448201527f72616e73616374696f6e73206279746573206f766572666c6f77000000000000606482015260840161091b565b606554613bea9061010090046001600160a01b03163330846145d4565b606c54604080517f3ed691ef00000000000000000000000000000000000000000000000000000000815290516000926001600160a01b031691633ed691ef9160048083019260209291908290030181865afa158015613c4d573d6000803e3d6000fd5b505050506040513d601f19601f82011682018060405250810190613c71919061553a565b60688054919250600160c01b9091046001600160401b0316906018613c9583615514565b91906101000a8154816001600160401b0302191690836001600160401b031602179055505083805190602001208142604051602001613cf493929190928352602083019190915260c01b6001600160c01b031916604082015260480190565b60408051808303601f190181529181528151602092830120606854600160c01b90046001600160401b031660009081526066909352912055323303613d9857606854604080518381523360208201526060918101829052600091810191909152600160c01b9091046001600160401b0316907ff94bb37db835f1ab585ee00041849a09b12cd081d77fa15ca070757619cbc9319060800160405180910390a2613df3565b606860189054906101000a90046001600160401b03166001600160401b03167ff94bb37db835f1ab585ee00041849a09b12cd081d77fa15ca070757619cbc931823387604051613dea9392919061580b565b60405180910390a25b50505050565b606a546001600160a01b03163314613e9f5760405162461bcd60e51b815260206004820152604160248201527f50726f6f664f66456666696369656e63793a3a6f6e6c7954727573746564416760448201527f6772656761746f723a206f6e6c7920747275737465642041676772656761746f60648201527f7200000000000000000000000000000000000000000000000000000000000000608482015260a40161091b565b60725460009081906001600160401b031615613ee057506072546001600160401b03908116600090815260716020526040902054600160401b900416613eee565b506069546001600160401b03165b6001600160401b038a161561405f576072546001600160401b03908116908b161115613f965760405162461bcd60e51b815260206004820152605d602482015260008051602061586383398151915260448201527f3a2070656e64696e6753746174654e756d206d757374206265206c657373206f60648201527f7220657175616c207468616e206c61737450656e64696e675374617465000000608482015260a40161091b565b6001600160401b03808b1660009081526071602052604090206002810154815490945090918b8116600160401b90920416146140595760405162461bcd60e51b8152602060048201526062602482015260008051602061586383398151915260448201527f3a20696e69744e756d4261746368206d757374206265206c657373206f72206560648201527f7175616c207468616e2063757272656e744c61737456657269666965644261746084820152610c6d60f31b60a482015260c40161091b565b50614183565b816140d15760405162461bcd60e51b8152602060048201526048602482015260008051602061586383398151915260448201527f3a20696e69744e756d426174636820737461746520726f6f7420646f6573206e6064820152671bdd08195e1a5cdd60c21b608482015260a40161091b565b6001600160401b03808a166000818152606d6020526040902054935090821610156141835760405162461bcd60e51b8152602060048201526062602482015260008051602061586383398151915260448201527f3a20696e69744e756d4261746368206d757374206265206c657373206f72206560648201527f7175616c207468616e2063757272656e744c61737456657269666965644261746084820152610c6d60f31b60a482015260c40161091b565b806001600160401b0316886001600160401b03161161421e5760405162461bcd60e51b815260206004820152605c602482015260008051602061586383398151915260448201527f3a2066696e616c4e65774261746368206d75737420626520626967676572207460648201527f68616e2063757272656e744c6173745665726966696564426174636800000000608482015260a40161091b565b600061422d8a8a8a868b61086d565b905060007f30644e72e131a029b85045b68181585d2833e84879b9709143e1f593f000000160028360405161426291906155f5565b602060405180830381855afa15801561427f573d6000803e3d6000fd5b5050506040513d601f19601f820116820180604052508101906142a2919061553a565b6142ac9190615627565b606b546040805160208101825283815290516343753b4d60e01b81529293506001600160a01b03909116916343753b4d916142f0918b918b918b919060040161563b565b602060405180830381865afa15801561430d573d6000803e3d6000fd5b505050506040513d601f19601f8201168201806040525081019061433191906156b5565b6143915760405162461bcd60e51b815260206004820152602f602482015260008051602061586383398151915260448201527f3a20494e56414c49445f50524f4f460000000000000000000000000000000000606482015260840161091b565b61439f33611b96858d61556c565b6069805467ffffffffffffffff19166001600160401b038c81169182179092556000908152606d6020526040902089905560725416156143f357607280546fffffffffffffffffffffffffffffffff191690555b606c546040516333d6247d60e01b8152600481018b90526001600160a01b03909116906333d6247d90602401600060405180830381600087803b15801561443957600080fd5b505af115801561444d573d6000803e3d6000fd5b50506040518a81523392506001600160401b038d1691507f0c0ce073a7d7b5850c04ccc4b20ee7d3179d5f57d0ac44399565792c0f72fce790602001611d29565b6073546001600160a01b031633146144f95760405162461bcd60e51b815260206004820152602860248201527f50726f6f664f66456666696369656e63793a3a6f6e6c7941646d696e3a206f6e604482015267363c9030b236b4b760c11b606482015260840161091b565b606a80546001600160a01b0319166001600160a01b0383169081179091556040519081527f61f8fec29495a3078e9271456f05fb0707fd4e41f7661865f80fc437d06681ca90602001610c6e565b61454f614865565b6001600160a01b0381166145cb5760405162461bcd60e51b815260206004820152602660248201527f4f776e61626c653a206e6577206f776e657220697320746865207a65726f206160448201527f6464726573730000000000000000000000000000000000000000000000000000606482015260840161091b565b612710816148bf565b6040516001600160a01b0380851660248301528316604482015260648101829052613df39085907f23b872dd00000000000000000000000000000000000000000000000000000000906084015b60408051601f198184030181529190526020810180517bffffffffffffffffffffffffffffffffffffffffffffffffffffffff167fffffffff0000000000000000000000000000000000000000000000000000000090931692909217909152614a2e565b6072546001600160401b03600160401b8204811691161115612530576072546000906146c290600160401b90046001600160401b031660016155ca565b6072546001600160401b0380831660009081526071602052604090205492935042926146f892600160801b9004821691166155ca565b6001600160401b031611612710576072546000906002906147239084906001600160401b031661556c565b61472d919061583c565b61473790836155ca565b6072546001600160401b03808316600090815260716020526040902054929350429261476d92600160801b9004821691166155ca565b6001600160401b0316116147885761478481611d3f565b5050565b61478482611d3f565b6040516001600160a01b0383166024820152604481018290526147da9084907fa9059cbb0000000000000000000000000000000000000000000000000000000090606401614621565b505050565b600054610100900460ff1661485c5760405162461bcd60e51b815260206004820152602b60248201527f496e697469616c697a61626c653a20636f6e7472616374206973206e6f74206960448201527f6e697469616c697a696e67000000000000000000000000000000000000000000606482015260840161091b565b612530336148bf565b6033546001600160a01b031633146125305760405162461bcd60e51b815260206004820181905260248201527f4f776e61626c653a2063616c6c6572206973206e6f7420746865206f776e6572604482015260640161091b565b603380546001600160a01b038381166001600160a01b0319831681179093556040519116919082907f8be0079c531659141344cd1fd0a4f28419497f9722a3daafe3b4186f6b6457e090600090a35050565b607060009054906101000a90046001600160a01b03166001600160a01b0316632072f6c56040518163ffffffff1660e01b8152600401600060405180830381600087803b15801561496157600080fd5b505af1158015614975573d6000803e3d6000fd5b50505050612530614b13565b60655460ff166149f95760405162461bcd60e51b815260206004820152603b60248201527f456d657267656e63794d616e616765723a3a6966456d657267656e637953746160448201527f74653a206f6e6c7920696620656d657267656e63792073746174650000000000606482015260840161091b565b6065805460ff191690556040517f1e5e34eea33501aecf2ebec9fe0e884a40804275ea7fe10b2ba084c8374308b390600090a1565b6000614a83826040518060400160405280602081526020017f5361666545524332303a206c6f772d6c6576656c2063616c6c206661696c6564815250856001600160a01b0316614bcf9092919063ffffffff16565b8051909150156147da5780806020019051810190614aa191906156b5565b6147da5760405162461bcd60e51b815260206004820152602a60248201527f5361666545524332303a204552433230206f7065726174696f6e20646964206e60448201527f6f74207375636365656400000000000000000000000000000000000000000000606482015260840161091b565b60655460ff1615614b975760405162461bcd60e51b815260206004820152604260248201527f456d657267656e63794d616e616765723a3a69664e6f74456d657267656e637960448201527f53746174653a206f6e6c79206966206e6f7420656d657267656e637920737461606482015261746560f01b608482015260a40161091b565b6065805460ff191660011790556040517f2261efe5aef6fedc1fd1550b25facc9181745623049c7901287030b9ad1a549790600090a1565b6060614bde8484600085614be6565b949350505050565b606082471015614c5e5760405162461bcd60e51b815260206004820152602660248201527f416464726573733a20696e73756666696369656e742062616c616e636520666f60448201527f722063616c6c0000000000000000000000000000000000000000000000000000606482015260840161091b565b600080866001600160a01b03168587604051614c7a91906155f5565b60006040518083038185875af1925050503d8060008114614cb7576040519150601f19603f3d011682016040523d82523d6000602084013e614cbc565b606091505b5091509150614ccd87838387614cd8565b979650505050505050565b60608315614d47578251600003614d40576001600160a01b0385163b614d405760405162461bcd60e51b815260206004820152601d60248201527f416464726573733a2063616c6c20746f206e6f6e2d636f6e7472616374000000604482015260640161091b565b5081614bde565b614bde8383815115614d5c5781518083602001fd5b8060405162461bcd60e51b815260040161091b9190614dce565b60005b83811015614d91578181015183820152602001614d79565b83811115613df35750506000910152565b60008151808452614dba816020860160208601614d76565b601f01601f19169290920160200192915050565b602081526000614de16020830184614da2565b9392505050565b80356001600160401b0381168114614dff57600080fd5b919050565b600080600080600060a08688031215614e1c57600080fd5b614e2586614de8565b9450614e3360208701614de8565b94979496505050506040830135926060810135926080909101359150565b600060208284031215614e6357600080fd5b614de182614de8565b634e487b7160e01b600052604160045260246000fd5b604051608081016001600160401b0381118282101715614ea457614ea4614e6c565b60405290565b604051606081016001600160401b0381118282101715614ea457614ea4614e6c565b604051601f8201601f191681016001600160401b0381118282101715614ef457614ef4614e6c565b604052919050565b60006001600160401b03821115614f1557614f15614e6c565b5060051b60200190565b600082601f830112614f3057600080fd5b81356001600160401b03811115614f4957614f49614e6c565b614f5c601f8201601f1916602001614ecc565b818152846020838601011115614f7157600080fd5b816020850160208301376000918101602001919091529392505050565b60006020808385031215614fa157600080fd5b82356001600160401b0380821115614fb857600080fd5b818501915085601f830112614fcc57600080fd5b8135614fdf614fda82614efc565b614ecc565b81815260059190911b83018401908481019088831115614ffe57600080fd5b8585015b838110156150975780358581111561501a5760008081fd5b86016080818c03601f19018113156150325760008081fd5b61503a614e82565b898301358881111561504c5760008081fd5b61505a8e8c83870101614f1f565b8252506040808401358b8301526060615074818601614de8565b82840152615083848601614de8565b908301525085525050918601918601615002565b5098975050505050505050565b80604081018310156150b557600080fd5b92915050565b80608081018310156150b557600080fd5b6000806000806000806000806101a0898b0312156150e957600080fd5b6150f289614de8565b975061510060208a01614de8565b965061510e60408a01614de8565b9550606089013594506080890135935061512b8a60a08b016150a4565b925061513a8a60e08b016150bb565b915061514a8a6101608b016150a4565b90509295985092959890939650565b6001600160a01b038116811461271057600080fd5b600080600080600080600080888a036101a081121561518c57600080fd5b893561519781615159565b985060208a01356151a781615159565b975060408a01356151b781615159565b965060608a01356151c781615159565b955060c0607f19820112156151db57600080fd5b5060808901935061014089013592506101608901356001600160401b038082111561520557600080fd5b6152118c838d01614f1f565b93506101808b013591508082111561522857600080fd5b506152358b828c01614f1f565b9150509295985092959890939650565b60006020828403121561525757600080fd5b8135614de181615159565b60008060008060008060008060006101c08a8c03121561528157600080fd5b61528a8a614de8565b985061529860208b01614de8565b97506152a660408b01614de8565b96506152b460608b01614de8565b955060808a0135945060a08a013593506152d18b60c08c016150a4565b92506152e18b6101008c016150bb565b91506152f18b6101808c016150a4565b90509295985092959850929598565b60006020828403121561531257600080fd5b5035919050565b801515811461271057600080fd5b60006020828403121561533957600080fd5b8135614de181615319565b60006020828403121561535657600080fd5b81356001600160401b0381111561536c57600080fd5b614bde84828501614f1f565b6000602080838503121561538b57600080fd5b82356001600160401b03808211156153a257600080fd5b818501915085601f8301126153b657600080fd5b81356153c4614fda82614efc565b81815260059190911b830184019084810190888311156153e357600080fd5b8585015b83811015615097578035858111156153ff5760008081fd5b86016060818c03601f19018113156154175760008081fd5b61541f614eaa565b89830135888111156154315760008081fd5b61543f8e8c83870101614f1f565b8252506040808401358b830152615457838501614de8565b90820152855250509186019186016153e7565b6000806040838503121561547d57600080fd5b82356001600160401b0381111561549357600080fd5b61549f85828601614f1f565b95602094909401359450505050565b600181811c908216806154c257607f821691505b6020821081036154e257634e487b7160e01b600052602260045260246000fd5b50919050565b634e487b7160e01b600052603260045260246000fd5b634e487b7160e01b600052601160045260246000fd5b60006001600160401b03808316818103615530576155306154fe565b6001019392505050565b60006020828403121561554c57600080fd5b5051919050565b600060018201615565576155656154fe565b5060010190565b60006001600160401b038381169083168181101561558c5761558c6154fe565b039392505050565b6000828210156155a6576155a66154fe565b500390565b60008160001904831182151516156155c5576155c56154fe565b500290565b60006001600160401b038083168185168083038211156155ec576155ec6154fe565b01949350505050565b60008251615607818460208701614d76565b9190910192915050565b634e487b7160e01b600052601260045260246000fd5b60008261563657615636615611565b500690565b61012081016040808784376000838201818152879190815b600281101561567357848483379084018281529284019290600101615653565b5050828760c0870137610100850181815286935091505b60018110156156a957825182526020928301929091019060010161568a565b50505095945050505050565b6000602082840312156156c757600080fd5b8151614de181615319565b601f8211156147da57600081815260208120601f850160051c810160208610156156f95750805b601f850160051c820191505b8181101561571857828155600101615705565b505050505050565b81516001600160401b0381111561573957615739614e6c565b61574d8161574784546154ae565b846156d2565b602080601f831160018114615782576000841561576a5750858301515b600019600386901b1c1916600185901b178555615718565b600085815260208120601f198616915b828110156157b157888601518255948401946001909101908401615792565b50858210156157cf5787850151600019600388901b60f8161c191681555b5050505050600190811b01905550565b6000826157ee576157ee615611565b500490565b60008219821115615806576158066154fe565b500190565b8381526001600160a01b03831660208201526060604082015260006158336060830184614da2565b95945050505050565b60006001600160401b038084168061585657615856615611565b9216919091049291505056fe50726f6f664f66456666696369656e63793a3a76657269667942617463686573a2646970667358221220c8ed7c6f1de70f75878cd0ed7984b9ccec47b092a92509a195719310d7d5f7f564736f6c634300080f0033",
  "linkReferences": {},
  "deployedLinkReferences": {}
}