{
  "_format": "hh-sol-artifact-1",
  "contractName": "ProofOfEfficiencyMock",
  "sourceName": "contracts/mocks/ProofOfEfficiencyMock.sol",
  "abi": [
    {
      "anonymous": false,
      "inputs": [
        {
          "indexed": true,
          "internalType": "uint64",
          "name": "forceBatchNum",
          "type": "uint64"
        },
        {
          "indexed": false,
          "internalType": "bytes32",
          "name": "lastGlobalExitRoot",
          "type": "bytes32"
        },
        {
          "indexed": false,
          "internalType": "address",
          "name": "sequencer",
          "type": "address"
        },
        {
          "indexed": false,
          "internalType": "bytes",
          "name": "transactions",
          "type": "bytes"
        }
      ],
      "name": "ForceBatch",
      "type": "event"
    },
    {
      "anonymous": false,
      "inputs": [
        {
          "indexed": false,
          "internalType": "uint8",
          "name": "version",
          "type": "uint8"
        }
      ],
      "name": "Initialized",
      "type": "event"
    },
    {
      "anonymous": false,
      "inputs": [
        {
          "indexed": true,
          "internalType": "uint64",
          "name": "numBatch",
          "type": "uint64"
        }
      ],
      "name": "SequenceBatches",
      "type": "event"
    },
    {
      "anonymous": false,
      "inputs": [
        {
          "indexed": true,
          "internalType": "uint64",
          "name": "numBatch",
          "type": "uint64"
        }
      ],
      "name": "SequenceForceBatches",
      "type": "event"
    },
    {
      "anonymous": false,
      "inputs": [
        {
          "indexed": false,
          "internalType": "bool",
          "name": "newForceBatchAllowed",
          "type": "bool"
        }
      ],
      "name": "SetForceBatchAllowed",
      "type": "event"
    },
    {
      "anonymous": false,
      "inputs": [
        {
          "indexed": false,
          "internalType": "address",
          "name": "newTrustedSequencer",
          "type": "address"
        }
      ],
      "name": "SetTrustedSequencer",
      "type": "event"
    },
    {
      "anonymous": false,
      "inputs": [
        {
          "indexed": false,
          "internalType": "string",
          "name": "newTrustedSequencerURL",
          "type": "string"
        }
      ],
      "name": "SetTrustedSequencerURL",
      "type": "event"
    },
    {
      "anonymous": false,
      "inputs": [
        {
          "indexed": true,
          "internalType": "uint64",
          "name": "numBatch",
          "type": "uint64"
        },
        {
          "indexed": true,
          "internalType": "address",
          "name": "aggregator",
          "type": "address"
        }
      ],
      "name": "VerifyBatch",
      "type": "event"
    },
    {
      "inputs": [],
      "name": "FORCE_BATCH_TIMEOUT",
      "outputs": [
        {
          "internalType": "uint64",
          "name": "",
          "type": "uint64"
        }
      ],
      "stateMutability": "view",
      "type": "function"
    },
    {
      "inputs": [],
      "name": "MAX_BATCH_LENGTH",
      "outputs": [
        {
          "internalType": "uint256",
          "name": "",
          "type": "uint256"
        }
      ],
      "stateMutability": "view",
      "type": "function"
    },
    {
      "inputs": [],
      "name": "TRUSTED_SEQUENCER_FEE",
      "outputs": [
        {
          "internalType": "uint256",
          "name": "",
          "type": "uint256"
        }
      ],
      "stateMutability": "view",
      "type": "function"
    },
    {
      "inputs": [],
      "name": "calculateForceProverFee",
      "outputs": [
        {
          "internalType": "uint256",
          "name": "",
          "type": "uint256"
        }
      ],
      "stateMutability": "view",
      "type": "function"
    },
    {
      "inputs": [
        {
          "internalType": "bytes32",
          "name": "currentStateRoot",
          "type": "bytes32"
        },
        {
          "internalType": "bytes32",
          "name": "currentLocalExitRoot",
          "type": "bytes32"
        },
        {
          "internalType": "bytes32",
          "name": "newStateRoot",
          "type": "bytes32"
        },
        {
          "internalType": "bytes32",
          "name": "newLocalExitRoot",
          "type": "bytes32"
        },
        {
          "internalType": "bytes32",
          "name": "batchHashData",
          "type": "bytes32"
        },
        {
          "internalType": "uint64",
          "name": "numBatch",
          "type": "uint64"
        },
        {
          "internalType": "uint64",
          "name": "timestamp",
          "type": "uint64"
        },
        {
          "internalType": "address",
          "name": "aggregatorAddress",
          "type": "address"
        }
      ],
      "name": "calculateSnarkInput",
      "outputs": [
        {
          "internalType": "uint256",
          "name": "",
          "type": "uint256"
        }
      ],
      "stateMutability": "pure",
      "type": "function"
    },
    {
      "inputs": [
        {
          "internalType": "bytes32",
          "name": "currentStateRoot",
          "type": "bytes32"
        },
        {
          "internalType": "bytes32",
          "name": "currentLocalExitRoot",
          "type": "bytes32"
        },
        {
          "internalType": "bytes32",
          "name": "newStateRoot",
          "type": "bytes32"
        },
        {
          "internalType": "bytes32",
          "name": "newLocalExitRoot",
          "type": "bytes32"
        },
        {
          "internalType": "bytes32",
          "name": "batchHashData",
          "type": "bytes32"
        },
        {
          "internalType": "uint64",
          "name": "numBatch",
          "type": "uint64"
        },
        {
          "internalType": "uint64",
          "name": "timestamp",
          "type": "uint64"
        }
      ],
      "name": "calculateStarkInput",
      "outputs": [
        {
          "internalType": "bytes32",
          "name": "",
          "type": "bytes32"
        }
      ],
      "stateMutability": "pure",
      "type": "function"
    },
    {
      "inputs": [],
      "name": "currentLocalExitRoot",
      "outputs": [
        {
          "internalType": "bytes32",
          "name": "",
          "type": "bytes32"
        }
      ],
      "stateMutability": "view",
      "type": "function"
    },
    {
      "inputs": [],
      "name": "currentStateRoot",
      "outputs": [
        {
          "internalType": "bytes32",
          "name": "",
          "type": "bytes32"
        }
      ],
      "stateMutability": "view",
      "type": "function"
    },
    {
      "inputs": [
        {
          "internalType": "bytes",
          "name": "transactions",
          "type": "bytes"
        },
        {
          "internalType": "uint256",
          "name": "maticAmount",
          "type": "uint256"
        }
      ],
      "name": "forceBatch",
      "outputs": [],
      "stateMutability": "nonpayable",
      "type": "function"
    },
    {
      "inputs": [],
      "name": "forceBatchAllowed",
      "outputs": [
        {
          "internalType": "bool",
          "name": "",
          "type": "bool"
        }
      ],
      "stateMutability": "view",
      "type": "function"
    },
    {
      "inputs": [
        {
          "internalType": "uint64",
          "name": "",
          "type": "uint64"
        }
      ],
      "name": "forcedBatches",
      "outputs": [
        {
          "internalType": "bytes32",
          "name": "batchHashData",
          "type": "bytes32"
        },
        {
          "internalType": "uint256",
          "name": "maticFee",
          "type": "uint256"
        },
        {
          "internalType": "uint64",
          "name": "minTimestamp",
          "type": "uint64"
        }
      ],
      "stateMutability": "view",
      "type": "function"
    },
    {
      "inputs": [
        {
          "internalType": "bytes32",
          "name": "newLocalExitRoot",
          "type": "bytes32"
        },
        {
          "internalType": "bytes32",
          "name": "newStateRoot",
          "type": "bytes32"
        },
        {
          "internalType": "uint64",
          "name": "numBatch",
          "type": "uint64"
        }
      ],
      "name": "getNextSnarkInput",
      "outputs": [
        {
          "internalType": "uint256",
          "name": "",
          "type": "uint256"
        }
      ],
      "stateMutability": "view",
      "type": "function"
    },
    {
      "inputs": [],
      "name": "globalExitRootManager",
      "outputs": [
        {
          "internalType": "contract IGlobalExitRootManager",
          "name": "",
          "type": "address"
        }
      ],
      "stateMutability": "view",
      "type": "function"
    },
    {
      "inputs": [
        {
          "internalType": "contract IGlobalExitRootManager",
          "name": "_globalExitRootManager",
          "type": "address"
        },
        {
          "internalType": "contract IERC20Upgradeable",
          "name": "_matic",
          "type": "address"
        },
        {
          "internalType": "contract IVerifierRollup",
          "name": "_rollupVerifier",
          "type": "address"
        },
        {
          "internalType": "bytes32",
          "name": "genesisRoot",
          "type": "bytes32"
        },
        {
          "internalType": "address",
          "name": "_trustedSequencer",
          "type": "address"
        },
        {
          "internalType": "bool",
          "name": "_forceBatchAllowed",
          "type": "bool"
        },
        {
          "internalType": "string",
          "name": "_trustedSequencerURL",
          "type": "string"
        }
      ],
      "name": "initialize",
      "outputs": [],
      "stateMutability": "nonpayable",
      "type": "function"
    },
    {
      "inputs": [],
      "name": "lastBatchSequenced",
      "outputs": [
        {
          "internalType": "uint64",
          "name": "",
          "type": "uint64"
        }
      ],
      "stateMutability": "view",
      "type": "function"
    },
    {
      "inputs": [],
      "name": "lastForceBatch",
      "outputs": [
        {
          "internalType": "uint64",
          "name": "",
          "type": "uint64"
        }
      ],
      "stateMutability": "view",
      "type": "function"
    },
    {
      "inputs": [],
      "name": "lastForceBatchSequenced",
      "outputs": [
        {
          "internalType": "uint64",
          "name": "",
          "type": "uint64"
        }
      ],
      "stateMutability": "view",
      "type": "function"
    },
    {
      "inputs": [],
      "name": "lastTimestamp",
      "outputs": [
        {
          "internalType": "uint64",
          "name": "",
          "type": "uint64"
        }
      ],
      "stateMutability": "view",
      "type": "function"
    },
    {
      "inputs": [],
      "name": "lastVerifiedBatch",
      "outputs": [
        {
          "internalType": "uint64",
          "name": "",
          "type": "uint64"
        }
      ],
      "stateMutability": "view",
      "type": "function"
    },
    {
      "inputs": [],
      "name": "matic",
      "outputs": [
        {
          "internalType": "contract IERC20Upgradeable",
          "name": "",
          "type": "address"
        }
      ],
      "stateMutability": "view",
      "type": "function"
    },
    {
      "inputs": [
        {
          "internalType": "bytes32",
          "name": "newLocalExitRoot",
          "type": "bytes32"
        },
        {
          "internalType": "bytes32",
          "name": "newStateRoot",
          "type": "bytes32"
        },
        {
          "internalType": "uint32",
          "name": "numBatch",
          "type": "uint32"
        }
      ],
      "name": "returnInputHashParameters",
      "outputs": [
        {
          "internalType": "bytes",
          "name": "",
          "type": "bytes"
        }
      ],
      "stateMutability": "view",
      "type": "function"
    },
    {
      "inputs": [],
      "name": "rollupVerifier",
      "outputs": [
        {
          "internalType": "contract IVerifierRollup",
          "name": "",
          "type": "address"
        }
      ],
      "stateMutability": "view",
      "type": "function"
    },
    {
      "inputs": [
        {
          "components": [
            {
              "internalType": "bytes",
              "name": "transactions",
              "type": "bytes"
            },
            {
              "internalType": "bytes32",
              "name": "globalExitRoot",
              "type": "bytes32"
            },
            {
              "internalType": "uint64",
              "name": "timestamp",
              "type": "uint64"
            },
            {
              "internalType": "uint64[]",
              "name": "forceBatchesTimestamp",
              "type": "uint64[]"
            }
          ],
          "internalType": "struct ProofOfEfficiency.BatchData[]",
          "name": "batches",
          "type": "tuple[]"
        }
      ],
      "name": "sequenceBatches",
      "outputs": [],
      "stateMutability": "nonpayable",
      "type": "function"
    },
    {
      "inputs": [
        {
          "internalType": "uint64",
          "name": "numForcedBatches",
          "type": "uint64"
        }
      ],
      "name": "sequenceForceBatches",
      "outputs": [],
      "stateMutability": "nonpayable",
      "type": "function"
    },
    {
      "inputs": [
        {
          "internalType": "uint64",
          "name": "",
          "type": "uint64"
        }
      ],
      "name": "sequencedBatches",
      "outputs": [
        {
          "internalType": "bytes32",
          "name": "batchHashData",
          "type": "bytes32"
        },
        {
          "internalType": "uint64",
          "name": "timestamp",
          "type": "uint64"
        },
        {
          "internalType": "uint64",
          "name": "forceBatchNum",
          "type": "uint64"
        }
      ],
      "stateMutability": "view",
      "type": "function"
    },
    {
      "inputs": [
        {
          "internalType": "bytes32",
          "name": "newLocalExitRoot",
          "type": "bytes32"
        }
      ],
      "name": "setExitRoot",
      "outputs": [],
      "stateMutability": "nonpayable",
      "type": "function"
    },
    {
      "inputs": [
        {
          "internalType": "bool",
          "name": "newForceBatchAllowed",
          "type": "bool"
        }
      ],
      "name": "setForceBatchAllowed",
      "outputs": [],
      "stateMutability": "nonpayable",
      "type": "function"
    },
    {
      "inputs": [
        {
          "internalType": "bytes32",
          "name": "newStateRoot",
          "type": "bytes32"
        }
      ],
      "name": "setStateRoot",
      "outputs": [],
      "stateMutability": "nonpayable",
      "type": "function"
    },
    {
      "inputs": [
        {
          "internalType": "address",
          "name": "newTrustedSequencer",
          "type": "address"
        }
      ],
      "name": "setTrustedSequencer",
      "outputs": [],
      "stateMutability": "nonpayable",
      "type": "function"
    },
    {
      "inputs": [
        {
          "internalType": "string",
          "name": "newTrustedSequencerURL",
          "type": "string"
        }
      ],
      "name": "setTrustedSequencerURL",
      "outputs": [],
      "stateMutability": "nonpayable",
      "type": "function"
    },
    {
      "inputs": [
        {
          "internalType": "contract IVerifierRollup",
          "name": "_rollupVerifier",
          "type": "address"
        }
      ],
      "name": "setVerifier",
      "outputs": [],
      "stateMutability": "nonpayable",
      "type": "function"
    },
    {
      "inputs": [],
      "name": "trustedSequencer",
      "outputs": [
        {
          "internalType": "address",
          "name": "",
          "type": "address"
        }
      ],
      "stateMutability": "view",
      "type": "function"
    },
    {
      "inputs": [],
      "name": "trustedSequencerURL",
      "outputs": [
        {
          "internalType": "string",
          "name": "",
          "type": "string"
        }
      ],
      "stateMutability": "view",
      "type": "function"
    },
    {
      "inputs": [
        {
          "internalType": "bytes32",
          "name": "newLocalExitRoot",
          "type": "bytes32"
        },
        {
          "internalType": "bytes32",
          "name": "newStateRoot",
          "type": "bytes32"
        },
        {
          "internalType": "uint64",
          "name": "numBatch",
          "type": "uint64"
        },
        {
          "internalType": "uint256[2]",
          "name": "proofA",
          "type": "uint256[2]"
        },
        {
          "internalType": "uint256[2][2]",
          "name": "proofB",
          "type": "uint256[2][2]"
        },
        {
          "internalType": "uint256[2]",
          "name": "proofC",
          "type": "uint256[2]"
        }
      ],
      "name": "verifyBatch",
      "outputs": [],
      "stateMutability": "nonpayable",
      "type": "function"
    }
  ],
  "bytecode": "0x608060405234801561001057600080fd5b50613dbb806100206000396000f3fe608060405234801561001057600080fd5b50600436106102265760003560e01c8063959c2f471161012a578063cfa8ed47116100bd578063e7a7ed021161008c578063eaeb077b11610071578063eaeb077b146106bf578063f7552761146106d2578063f7d2cd7f146106e157600080fd5b8063e7a7ed021461066f578063e8bf92ed1461069f57600080fd5b8063cfa8ed47146105d3578063d02103ca146105ff578063d307b7431461061f578063d8f54db01461063257600080fd5b8063b02286c0116100f9578063b02286c0146104e7578063b4d63f581461050e578063b6b0b09714610575578063c89e42df146105c057600080fd5b8063959c2f47146104b8578063aa0f4418146104c1578063ab9fc5ef146104d4578063ac2eba98146104de57600080fd5b80635437988d116101bd5780636ff512cc1161018c5780637fcb3653116101715780637fcb36531461047e5780638c4a0af71461049257806395297e24146104a557600080fd5b80636ff512cc14610463578063798470571461047657600080fd5b80635437988d1461038b57806357177ef5146103e05780636b411007146103f35780636b8616ce1461040657600080fd5b806325d0a8f5116101f957806325d0a8f51461031b578063423fa8561461033b578063456052671461035b578063542028d51461038357600080fd5b8063086f91991461022b578063116c40c314610240578063188c69b41461025357806319d8ac61146102ee575b600080fd5b61023e610239366004613315565b6106f4565b005b61023e61024e3660046133b9565b600755565b6102db6102613660046133ef565b60408051602080820199909952808201979097526060870195909552608086019390935260a08501919091527fffffffffffffffff00000000000000000000000000000000000000000000000060c091821b81168286015291901b1660c8830152805180830360b001815260d09092019052805191012090565b6040519081526020015b60405180910390f35b6003546103029067ffffffffffffffff1681565b60405167ffffffffffffffff90911681526020016102e5565b61032e610329366004613452565b6109a3565b6040516102e5919061350a565b6003546103029068010000000000000000900467ffffffffffffffff1681565b60035461030290700100000000000000000000000000000000900467ffffffffffffffff1681565b61032e610bc7565b61023e61039936600461351d565b600880547fffffffffffffffffffffffff00000000000000000000000000000000000000001673ffffffffffffffffffffffffffffffffffffffff92909216919091179055565b6102db6103ee36600461353a565b610c55565b6102db61040136600461356f565b610f58565b61043e6104143660046135e7565b600160208190526000918252604090912080549181015460029091015467ffffffffffffffff1683565b60408051938452602084019290925267ffffffffffffffff16908201526060016102e5565b61023e61047136600461351d565b6110bb565b6102db6111f6565b6004546103029067ffffffffffffffff1681565b61023e6104a0366004613602565b611270565b61023e6104b3366004613636565b6113a4565b6102db60075481565b61023e6104cf3660046135e7565b6119db565b61030262093a8081565b6102db60065481565b6102db7fffffffffffffffffffffffffffffffffffffffffffffffffffffffffffffffff81565b61054f61051c3660046135e7565b6002602052600090815260409020805460019091015467ffffffffffffffff808216916801000000000000000090041683565b6040805193845267ffffffffffffffff92831660208501529116908201526060016102e5565b60005461059b9062010000900473ffffffffffffffffffffffffffffffffffffffff1681565b60405173ffffffffffffffffffffffffffffffffffffffff90911681526020016102e5565b61023e6105ce3660046136a7565b611f29565b60045461059b9068010000000000000000900473ffffffffffffffffffffffffffffffffffffffff1681565b60055461059b9073ffffffffffffffffffffffffffffffffffffffff1681565b61023e61062d3660046133b9565b600655565b60045461065f907c0100000000000000000000000000000000000000000000000000000000900460ff1681565b60405190151581526020016102e5565b600354610302907801000000000000000000000000000000000000000000000000900467ffffffffffffffff1681565b60085461059b9073ffffffffffffffffffffffffffffffffffffffff1681565b61023e6106cd3660046136dc565b612018565b6102db67016345785d8a000081565b61023e6106ef366004613745565b61251c565b600054610100900460ff16158080156107145750600054600160ff909116105b8061072e5750303b15801561072e575060005460ff166001145b6107bf576040517f08c379a000000000000000000000000000000000000000000000000000000000815260206004820152602e60248201527f496e697469616c697a61626c653a20636f6e747261637420697320616c72656160448201527f647920696e697469616c697a656400000000000000000000000000000000000060648201526084015b60405180910390fd5b600080547fffffffffffffffffffffffffffffffffffffffffffffffffffffffffffffff00166001179055801561081d57600080547fffffffffffffffffffffffffffffffffffffffffffffffffffffffffffff00ff166101001790555b600580547fffffffffffffffffffffffff000000000000000000000000000000000000000090811673ffffffffffffffffffffffffffffffffffffffff8b811691909117909255600080547fffffffffffffffffffff0000000000000000000000000000000000000000ffff16620100008b851602179055600880549091168883161790556006869055600480547fffffff000000000000000000000000000000000000000000ffffffffffffffff1668010000000000000000928716929092027fffffff00ffffffffffffffffffffffffffffffffffffffffffffffffffffffff16919091177c0100000000000000000000000000000000000000000000000000000000851515021790556009610935838261398b565b50801561099957600080547fffffffffffffffffffffffffffffffffffffffffffffffffffffffffffff00ff169055604051600181527f7f26b83ff96e1f2b6a682f133852f6798a09c465da95921460cefb38474024989060200160405180910390a15b5050505050505050565b6004546060906109be9067ffffffffffffffff166001613ad4565b67ffffffffffffffff168263ffffffff1614610a5c576040517f08c379a000000000000000000000000000000000000000000000000000000000815260206004820152603460248201527f50726f6f664f66456666696369656e63793a3a76657269667942617463683a2060448201527f42415443485f444f45535f4e4f545f4d4154434800000000000000000000000060648201526084016107b6565b63ffffffff821660009081526002602052604081206001015467ffffffffffffffff8181169291829168010000000000000000909104168103610abf57505063ffffffff831660009081526002602052604090205467016345785d8a0000610b24565b505063ffffffff8316600090815260026020818152604080842060019081015468010000000000000000900467ffffffffffffffff90811686528184529482902082516060810184528154808252928201549481018590529401549094169201919091525b600654600754604080516020810193909352820152606081018790526080810188905260a0810183905260e086901b7fffffffff000000000000000000000000000000000000000000000000000000001660c08083019190915284901b7fffffffffffffffff0000000000000000000000000000000000000000000000001660c482015260cc0160405160208183030381529060405293505050505b9392505050565b60098054610bd4906138ea565b80601f0160208091040260200160405190810160405280929190818152602001828054610c00906138ea565b8015610c4d5780601f10610c2257610100808354040283529160200191610c4d565b820191906000526020600020905b815481529060010190602001808311610c3057829003601f168201915b505050505081565b600454600090610c709067ffffffffffffffff166001613ad4565b67ffffffffffffffff168267ffffffffffffffff1614610d12576040517f08c379a000000000000000000000000000000000000000000000000000000000815260206004820152603460248201527f50726f6f664f66456666696369656e63793a3a76657269667942617463683a2060448201527f42415443485f444f45535f4e4f545f4d4154434800000000000000000000000060648201526084016107b6565b67ffffffffffffffff808316600090815260026020526040812060010154808316928291680100000000000000009004168103610d7357505067ffffffffffffffff831660009081526002602052604090205467016345785d8a0000610dd3565b505067ffffffffffffffff8084166000908152600260208181526040808420600190810154680100000000000000009004861685528083529381902081516060810183528154808252958201549381018490529301549094169190930152905b600654600754604080516020810193909352820152606081018790526080810188905260a081018390527fffffffffffffffff00000000000000000000000000000000000000000000000060c087811b82168184015285901b1660c882015260009060d001604080517fffffffffffffffffffffffffffffffffffffffffffffffffffffffffffffffe0818403018152828252805160209182012060948401909252605483523360601b9083015291506034810160005b6008811015610ecb577bffffffff0000000000000000000000000000000000000000000000006020820285901c60c01b168252600890910190600101610e8a565b505060007f30644e72e131a029b85045b68181585d2833e84879b9709143e1f593f0000001600283604051610f009190613b00565b602060405180830381855afa158015610f1d573d6000803e3d6000fd5b5050506040513d601f19601f82011682018060405250810190610f409190613b1c565b610f4a9190613b35565b9a9950505050505050505050565b6040805160208082018b90528183018a905260608083018a90526080830189905260a083018890527fffffffffffffffff00000000000000000000000000000000000000000000000060c088811b82168186015287901b1660c8840152835180840360b001815260d084018086528151919093012061016484019094526054825284901b60f08301526000929161010401835b600881101561102c577bffffffff0000000000000000000000000000000000000000000000006020820285901c60c01b168252600890910190600101610feb565b505060007f30644e72e131a029b85045b68181585d2833e84879b9709143e1f593f00000016002836040516110619190613b00565b602060405180830381855afa15801561107e573d6000803e3d6000fd5b5050506040513d601f19601f820116820180604052508101906110a19190613b1c565b6110ab9190613b35565b9c9b505050505050505050505050565b60045468010000000000000000900473ffffffffffffffffffffffffffffffffffffffff16331461116e576040517f08c379a000000000000000000000000000000000000000000000000000000000815260206004820152603f60248201527f50726f6f664f66456666696369656e63793a3a6f6e6c7954727573746564536560448201527f7175656e6365723a206f6e6c7920747275737465642073657175656e6365720060648201526084016107b6565b600480547fffffffff0000000000000000000000000000000000000000ffffffffffffffff166801000000000000000073ffffffffffffffffffffffffffffffffffffffff8416908102919091179091556040519081527ff54144f9611984021529f814a1cb6a41e22c58351510a0d9f7e822618abb9cc0906020015b60405180910390a150565b60035460009067ffffffffffffffff7001000000000000000000000000000000008204811691611245917801000000000000000000000000000000000000000000000000909104166001613ad4565b61124f9190613b70565b61126b9067ffffffffffffffff16670de0b6b3a7640000613b99565b905090565b60045468010000000000000000900473ffffffffffffffffffffffffffffffffffffffff163314611323576040517f08c379a000000000000000000000000000000000000000000000000000000000815260206004820152603f60248201527f50726f6f664f66456666696369656e63793a3a6f6e6c7954727573746564536560448201527f7175656e6365723a206f6e6c7920747275737465642073657175656e6365720060648201526084016107b6565b600480548215157c0100000000000000000000000000000000000000000000000000000000027fffffff00ffffffffffffffffffffffffffffffffffffffffffffffffffffffff9091161790556040517fbacda50a4a8575be1d91a7ebe29ee45056f3a94f12a2281eb6b43afa33bcefe6906111eb90831515815260200190565b6004546113bc9067ffffffffffffffff166001613ad4565b67ffffffffffffffff168467ffffffffffffffff161461145e576040517f08c379a000000000000000000000000000000000000000000000000000000000815260206004820152603460248201527f50726f6f664f66456666696369656e63793a3a76657269667942617463683a2060448201527f626174636820646f6573206e6f74206d6174636800000000000000000000000060648201526084016107b6565b60035467ffffffffffffffff6801000000000000000090910481169085161115611530576040517f08c379a000000000000000000000000000000000000000000000000000000000815260206004820152604260248201527f50726f6f664f66456666696369656e63793a3a76657269667942617463683a2060448201527f626174636820646f6573206e6f742068617665206265656e2073657175656e6360648201527f6564000000000000000000000000000000000000000000000000000000000000608482015260a4016107b6565b67ffffffffffffffff80851660009081526002602052604081206001015480831692829168010000000000000000900416810361159157505067ffffffffffffffff851660009081526002602052604090205467016345785d8a00006115f1565b505067ffffffffffffffff8086166000908152600260208181526040808420600190810154680100000000000000009004861685528083529381902081516060810183528154808252958201549381018490529301549094169190930152905b60065460075460408051602081019390935282015260608101899052608081018a905260a081018390527fffffffffffffffff00000000000000000000000000000000000000000000000060c089811b82168184015285901b1660c882015260009060d001604080517fffffffffffffffffffffffffffffffffffffffffffffffffffffffffffffffe0818403018152828252805160209182012060948401909252605483523360601b9083015291506034810160005b60088110156116e9577bffffffff0000000000000000000000000000000000000000000000006020820285901c60c01b1682526008909101906001016116a8565b505060007f30644e72e131a029b85045b68181585d2833e84879b9709143e1f593f000000160028360405161171e9190613b00565b602060405180830381855afa15801561173b573d6000803e3d6000fd5b5050506040513d601f19601f8201168201806040525081019061175e9190613b1c565b6117689190613b35565b6008546040805160208101825283815290517f43753b4d00000000000000000000000000000000000000000000000000000000815292935073ffffffffffffffffffffffffffffffffffffffff909116916343753b4d916117d2918d918d918d9190600401613bd6565b602060405180830381865afa1580156117ef573d6000803e3d6000fd5b505050506040513d601f19601f820116820180604052508101906118139190613c50565b61189f576040517f08c379a000000000000000000000000000000000000000000000000000000000815260206004820152602d60248201527f50726f6f664f66456666696369656e63793a3a76657269667942617463683a2060448201527f494e56414c49445f50524f4f460000000000000000000000000000000000000060648201526084016107b6565b6004805467ffffffffffffffff169060006118b983613c6d565b825467ffffffffffffffff9182166101009390930a92830291909202199091161790555060068b905560078c90556005546040517f33d6247d000000000000000000000000000000000000000000000000000000008152600481018e905273ffffffffffffffffffffffffffffffffffffffff909116906333d6247d90602401600060405180830381600087803b15801561195357600080fd5b505af1158015611967573d6000803e3d6000fd5b5050600054611996925062010000900473ffffffffffffffffffffffffffffffffffffffff1690503386612d6a565b604051339067ffffffffffffffff8c16907f2cdf1508085a46c7241a7d78c5a1ec3d9246d1ab95e1c2a33676d29e17d4222390600090a3505050505050505050505050565b6004547c0100000000000000000000000000000000000000000000000000000000900460ff161515600114611ab8576040517f08c379a000000000000000000000000000000000000000000000000000000000815260206004820152604860248201527f50726f6f664f66456666696369656e63793a3a6973466f72636542617463684160448201527f6c6c6f7765643a206f6e6c7920696620666f726365206261746368206973206160648201527f7661696c61626c65000000000000000000000000000000000000000000000000608482015260a4016107b6565b600354600090611ae7908390700100000000000000000000000000000000900467ffffffffffffffff16613ad4565b905060008267ffffffffffffffff1611611ba9576040517f08c379a000000000000000000000000000000000000000000000000000000000815260206004820152604260248201527f50726f6f664f66456666696369656e63793a3a73657175656e6365466f72636560448201527f42617463683a204d75737420666f726365206174206c6561737420312062617460648201527f6368000000000000000000000000000000000000000000000000000000000000608482015260a4016107b6565b60035467ffffffffffffffff780100000000000000000000000000000000000000000000000090910481169082161115611c65576040517f08c379a000000000000000000000000000000000000000000000000000000000815260206004820152603a60248201527f50726f6f664f66456666696369656e63793a3a73657175656e6365466f72636560448201527f42617463683a20466f72636520626174636820696e76616c696400000000000060648201526084016107b6565b60045468010000000000000000900473ffffffffffffffffffffffffffffffffffffffff163314611d7d5767ffffffffffffffff8082166000908152600160205260409020600201544291611cbf9162093a809116613ad4565b67ffffffffffffffff161115611d7d576040517f08c379a000000000000000000000000000000000000000000000000000000000815260206004820152604c60248201527f50726f6f664f66456666696369656e63793a3a73657175656e6365466f72636560448201527f42617463683a20466f72636564206261746368206973206e6f7420696e20746960648201527f6d656f757420706572696f640000000000000000000000000000000000000000608482015260a4016107b6565b60035467ffffffffffffffff68010000000000000000820481169170010000000000000000000000000000000090041660005b8467ffffffffffffffff16811015611e6c5781611dcc81613c6d565b9250508280611dda90613c6d565b67ffffffffffffffff818116600090815260026020526040902060010180547fffffffffffffffffffffffffffffffff000000000000000000000000000000001668010000000000000000878416027fffffffffffffffffffffffffffffffffffffffffffffffff00000000000000001617429092169190911790559350819050611e6481613c94565b915050611db0565b50600380544267ffffffffffffffff9081167fffffffffffffffffffffffffffffffff0000000000000000000000000000000090921691909117680100000000000000008583168102919091177fffffffffffffffff0000000000000000ffffffffffffffffffffffffffffffff16700100000000000000000000000000000000858416021792839055604051920416907f648a61dd2438f072f5a1960939abd30f37aea80d2e94c9792ad142d3e0a490a490600090a250505050565b60045468010000000000000000900473ffffffffffffffffffffffffffffffffffffffff163314611fdc576040517f08c379a000000000000000000000000000000000000000000000000000000000815260206004820152603f60248201527f50726f6f664f66456666696369656e63793a3a6f6e6c7954727573746564536560448201527f7175656e6365723a206f6e6c7920747275737465642073657175656e6365720060648201526084016107b6565b6009611fe8828261398b565b507f6b8f723a4c7a5335cafae8a598a0aa0301be1387c037dccc085b62add6448b20816040516111eb919061350a565b6004547c0100000000000000000000000000000000000000000000000000000000900460ff1615156001146120f5576040517f08c379a000000000000000000000000000000000000000000000000000000000815260206004820152604860248201527f50726f6f664f66456666696369656e63793a3a6973466f72636542617463684160448201527f6c6c6f7765643a206f6e6c7920696620666f726365206261746368206973206160648201527f7661696c61626c65000000000000000000000000000000000000000000000000608482015260a4016107b6565b60006120ff6111f6565b905081811115612191576040517f08c379a000000000000000000000000000000000000000000000000000000000815260206004820152602f60248201527f50726f6f664f66456666696369656e63793a3a666f72636542617463683a206e60448201527f6f7420656e6f756768206d61746963000000000000000000000000000000000060648201526084016107b6565b7fffffffffffffffffffffffffffffffffffffffffffffffffffffffffffffffff835110612241576040517f08c379a000000000000000000000000000000000000000000000000000000000815260206004820152603a60248201527f50726f6f664f66456666696369656e63793a3a666f72636542617463683a205460448201527f72616e73616374696f6e73206279746573206f766572666c6f7700000000000060648201526084016107b6565b60005461226c9062010000900473ffffffffffffffffffffffffffffffffffffffff16333084612e43565b600554604080517f3ed691ef000000000000000000000000000000000000000000000000000000008152905160009273ffffffffffffffffffffffffffffffffffffffff1691633ed691ef9160048083019260209291908290030181865afa1580156122dc573d6000803e3d6000fd5b505050506040513d601f19601f820116820180604052508101906123009190613b1c565b60038054919250780100000000000000000000000000000000000000000000000090910467ffffffffffffffff1690601861233a83613c6d565b91906101000a81548167ffffffffffffffff021916908367ffffffffffffffff1602179055505083813360405160200161237693929190613ccc565b604080518083037fffffffffffffffffffffffffffffffffffffffffffffffffffffffffffffffe001815291815281516020928301206003805478010000000000000000000000000000000000000000000000009081900467ffffffffffffffff908116600090815260019687905285812094909455825482900481168452848420909501879055905404831681522060020180547fffffffffffffffffffffffffffffffffffffffffffffffff000000000000000016429092169190911790553233036124b957600354604080518381523360208201526060918101829052600091810191909152780100000000000000000000000000000000000000000000000090910467ffffffffffffffff16907ff94bb37db835f1ab585ee00041849a09b12cd081d77fa15ca070757619cbc9319060800160405180910390a2612516565b600360189054906101000a900467ffffffffffffffff1667ffffffffffffffff167ff94bb37db835f1ab585ee00041849a09b12cd081d77fa15ca070757619cbc93182338760405161250d93929190613d18565b60405180910390a25b50505050565b60045468010000000000000000900473ffffffffffffffffffffffffffffffffffffffff1633146125cf576040517f08c379a000000000000000000000000000000000000000000000000000000000815260206004820152603f60248201527f50726f6f664f66456666696369656e63793a3a6f6e6c7954727573746564536560448201527f7175656e6365723a206f6e6c7920747275737465642073657175656e6365720060648201526084016107b6565b805161260f33306125e88467016345785d8a0000613b99565b60005462010000900473ffffffffffffffffffffffffffffffffffffffff16929190612e43565b60035467ffffffffffffffff808216916801000000000000000081048216917001000000000000000000000000000000009091041660005b84811015612bf157600086828151811061266357612663613d56565b602002602001015190508467ffffffffffffffff16816040015167ffffffffffffffff16101580156126a3575042816040015167ffffffffffffffff1611155b612755576040517f08c379a000000000000000000000000000000000000000000000000000000000815260206004820152604260248201527f50726f6f664f66456666696369656e63793a3a73657175656e6365426174636860448201527f65733a2054696d657374616d70206d75737420626520696e736964652072616e60648201527f6765000000000000000000000000000000000000000000000000000000000000608482015260a4016107b6565b60208101511580612804575060055460208201516040517f257b363200000000000000000000000000000000000000000000000000000000815273ffffffffffffffffffffffffffffffffffffffff9092169163257b3632916127be9160040190815260200190565b6020604051808303816000875af11580156127dd573d6000803e3d6000fd5b505050506040513d601f19601f820116820180604052508101906128019190613b1c565b15155b612890576040517f08c379a000000000000000000000000000000000000000000000000000000000815260206004820152603f60248201527f50726f6f664f66456666696369656e63793a3a73657175656e6365426174636860448201527f65733a20476c6f62616c206578697420726f6f74206d7573742065786973740060648201526084016107b6565b8051517fffffffffffffffffffffffffffffffffffffffffffffffffffffffffffffffff11612941576040517f08c379a000000000000000000000000000000000000000000000000000000000815260206004820152603f60248201527f50726f6f664f66456666696369656e63793a3a73657175656e6365426174636860448201527f65733a205472616e73616374696f6e73206279746573206f766572666c6f770060648201526084016107b6565b8361294b81613c6d565b825160208085015160405193985061296894509192339101613ccc565b604080518083037fffffffffffffffffffffffffffffffffffffffffffffffffffffffffffffffe0018152918152815160209283012067ffffffffffffffff8781166000908152600290945282842091825591840151600190910180547fffffffffffffffffffffffffffffffffffffffffffffffff0000000000000000169282169290921790915595505b816060015151811015612bdc5783612a0b81613c6d565b945050600082606001518281518110612a2657612a26613d56565b602002602001015190508667ffffffffffffffff168167ffffffffffffffff1610158015612a75575067ffffffffffffffff808616600090815260016020526040902060020154811690821610155b8015612a8b5750428167ffffffffffffffff1611155b612b3d576040517f08c379a000000000000000000000000000000000000000000000000000000000815260206004820152605160248201527f50726f6f664f66456666696369656e63793a3a73657175656e6365426174636860448201527f65733a20466f7263656420626174636865732074696d657374616d70206d757360648201527f7420626520696e736964652072616e6765000000000000000000000000000000608482015260a4016107b6565b85612b4781613c6d565b67ffffffffffffffff818116600090815260026020526040902060010180547fffffffffffffffffffffffffffffffff0000000000000000000000000000000016680100000000000000008a8416027fffffffffffffffffffffffffffffffffffffffffffffffff00000000000000001617918516919091179055919750909550819050612bd481613c94565b9150506129f4565b50508080612be990613c94565b915050612647565b5060035467ffffffffffffffff780100000000000000000000000000000000000000000000000090910481169082161115612cae576040517f08c379a000000000000000000000000000000000000000000000000000000000815260206004820152603a60248201527f50726f6f664f66456666696369656e63793a3a73657175656e6365426174636860448201527f65733a20466f7263652062617463686573206f766572666c6f7700000000000060648201526084016107b6565b6003805467ffffffffffffffff8581167fffffffffffffffffffffffffffffffff0000000000000000000000000000000090921691909117680100000000000000008583168102919091177fffffffffffffffff0000000000000000ffffffffffffffffffffffffffffffff16700100000000000000000000000000000000858416021792839055604051920416907f303446e6a8cb73c83dff421c0b1d5e5ce0719dab1bff13660fc254e58cc17fce90600090a25050505050565b60405173ffffffffffffffffffffffffffffffffffffffff8316602482015260448101829052612e3e9084907fa9059cbb00000000000000000000000000000000000000000000000000000000906064015b604080517fffffffffffffffffffffffffffffffffffffffffffffffffffffffffffffffe08184030181529190526020810180517bffffffffffffffffffffffffffffffffffffffffffffffffffffffff167fffffffff0000000000000000000000000000000000000000000000000000000090931692909217909152612ea1565b505050565b60405173ffffffffffffffffffffffffffffffffffffffff808516602483015283166044820152606481018290526125169085907f23b872dd0000000000000000000000000000000000000000000000000000000090608401612dbc565b6000612f03826040518060400160405280602081526020017f5361666545524332303a206c6f772d6c6576656c2063616c6c206661696c65648152508573ffffffffffffffffffffffffffffffffffffffff16612fad9092919063ffffffff16565b805190915015612e3e5780806020019051810190612f219190613c50565b612e3e576040517f08c379a000000000000000000000000000000000000000000000000000000000815260206004820152602a60248201527f5361666545524332303a204552433230206f7065726174696f6e20646964206e60448201527f6f7420737563636565640000000000000000000000000000000000000000000060648201526084016107b6565b6060612fbc8484600085612fc4565b949350505050565b606082471015613056576040517f08c379a000000000000000000000000000000000000000000000000000000000815260206004820152602660248201527f416464726573733a20696e73756666696369656e742062616c616e636520666f60448201527f722063616c6c000000000000000000000000000000000000000000000000000060648201526084016107b6565b73ffffffffffffffffffffffffffffffffffffffff85163b6130d4576040517f08c379a000000000000000000000000000000000000000000000000000000000815260206004820152601d60248201527f416464726573733a2063616c6c20746f206e6f6e2d636f6e747261637400000060448201526064016107b6565b6000808673ffffffffffffffffffffffffffffffffffffffff1685876040516130fd9190613b00565b60006040518083038185875af1925050503d806000811461313a576040519150601f19603f3d011682016040523d82523d6000602084013e61313f565b606091505b509150915061314f82828661315a565b979650505050505050565b60608315613169575081610bc0565b8251156131795782518084602001fd5b816040517f08c379a00000000000000000000000000000000000000000000000000000000081526004016107b6919061350a565b73ffffffffffffffffffffffffffffffffffffffff811681146131cf57600080fd5b50565b80151581146131cf57600080fd5b7f4e487b7100000000000000000000000000000000000000000000000000000000600052604160045260246000fd5b6040516080810167ffffffffffffffff81118282101715613232576132326131e0565b60405290565b604051601f82017fffffffffffffffffffffffffffffffffffffffffffffffffffffffffffffffe016810167ffffffffffffffff8111828210171561327f5761327f6131e0565b604052919050565b600082601f83011261329857600080fd5b813567ffffffffffffffff8111156132b2576132b26131e0565b6132e360207fffffffffffffffffffffffffffffffffffffffffffffffffffffffffffffffe0601f84011601613238565b8181528460208386010111156132f857600080fd5b816020850160208301376000918101602001919091529392505050565b600080600080600080600060e0888a03121561333057600080fd5b873561333b816131ad565b9650602088013561334b816131ad565b9550604088013561335b816131ad565b9450606088013593506080880135613372816131ad565b925060a0880135613382816131d2565b915060c088013567ffffffffffffffff81111561339e57600080fd5b6133aa8a828b01613287565b91505092959891949750929550565b6000602082840312156133cb57600080fd5b5035919050565b803567ffffffffffffffff811681146133ea57600080fd5b919050565b600080600080600080600060e0888a03121561340a57600080fd5b873596506020880135955060408801359450606088013593506080880135925061343660a089016133d2565b915061344460c089016133d2565b905092959891949750929550565b60008060006060848603121561346757600080fd5b8335925060208401359150604084013563ffffffff8116811461348957600080fd5b809150509250925092565b60005b838110156134af578181015183820152602001613497565b838111156125165750506000910152565b600081518084526134d8816020860160208601613494565b601f017fffffffffffffffffffffffffffffffffffffffffffffffffffffffffffffffe0169290920160200192915050565b602081526000610bc060208301846134c0565b60006020828403121561352f57600080fd5b8135610bc0816131ad565b60008060006060848603121561354f57600080fd5b8335925060208401359150613566604085016133d2565b90509250925092565b600080600080600080600080610100898b03121561358c57600080fd5b88359750602089013596506040890135955060608901359450608089013593506135b860a08a016133d2565b92506135c660c08a016133d2565b915060e08901356135d6816131ad565b809150509295985092959890939650565b6000602082840312156135f957600080fd5b610bc0826133d2565b60006020828403121561361457600080fd5b8135610bc0816131d2565b806040810183101561363057600080fd5b92915050565b600080600080600080610160878903121561365057600080fd5b8635955060208701359450613667604088016133d2565b9350613676886060890161361f565b925061012087018881111561368a57600080fd5b60a08801925061369a898261361f565b9150509295509295509295565b6000602082840312156136b957600080fd5b813567ffffffffffffffff8111156136d057600080fd5b612fbc84828501613287565b600080604083850312156136ef57600080fd5b823567ffffffffffffffff81111561370657600080fd5b61371285828601613287565b95602094909401359450505050565b600067ffffffffffffffff82111561373b5761373b6131e0565b5060051b60200190565b6000602080838503121561375857600080fd5b823567ffffffffffffffff8082111561377057600080fd5b818501915085601f83011261378457600080fd5b813561379761379282613721565b613238565b81815260059190911b830184019084810190888311156137b657600080fd5b8585015b838110156138dd578035858111156137d157600080fd5b86016080818c037fffffffffffffffffffffffffffffffffffffffffffffffffffffffffffffffe001121561380557600080fd5b61380d61320f565b888201358781111561381e57600080fd5b61382c8d8b83860101613287565b8252506040808301358a830152613845606084016133d2565b8183015260808301358881111561385c5760008081fd5b8084019350508c603f8401126138725760008081fd5b8983013561388261379282613721565b81815260059190911b84018201908b8101908f8311156138a25760008081fd5b948301945b828610156138c7576138b8866133d2565b8252948c0194908c01906138a7565b60608501525050508452509186019186016137ba565b5098975050505050505050565b600181811c908216806138fe57607f821691505b602082108103613937577f4e487b7100000000000000000000000000000000000000000000000000000000600052602260045260246000fd5b50919050565b601f821115612e3e57600081815260208120601f850160051c810160208610156139645750805b601f850160051c820191505b8181101561398357828155600101613970565b505050505050565b815167ffffffffffffffff8111156139a5576139a56131e0565b6139b9816139b384546138ea565b8461393d565b602080601f831160018114613a0c57600084156139d65750858301515b7fffffffffffffffffffffffffffffffffffffffffffffffffffffffffffffffff600386901b1c1916600185901b178555613983565b6000858152602081207fffffffffffffffffffffffffffffffffffffffffffffffffffffffffffffffe08616915b82811015613a5957888601518255948401946001909101908401613a3a565b5085821015613a9557878501517fffffffffffffffffffffffffffffffffffffffffffffffffffffffffffffffff600388901b60f8161c191681555b5050505050600190811b01905550565b7f4e487b7100000000000000000000000000000000000000000000000000000000600052601160045260246000fd5b600067ffffffffffffffff808316818516808303821115613af757613af7613aa5565b01949350505050565b60008251613b12818460208701613494565b9190910192915050565b600060208284031215613b2e57600080fd5b5051919050565b600082613b6b577f4e487b7100000000000000000000000000000000000000000000000000000000600052601260045260246000fd5b500690565b600067ffffffffffffffff83811690831681811015613b9157613b91613aa5565b039392505050565b6000817fffffffffffffffffffffffffffffffffffffffffffffffffffffffffffffffff0483118215151615613bd157613bd1613aa5565b500290565b61012081016040808784376000838201818152879190815b6002811015613c0e57848483379084018281529284019290600101613bee565b5050828760c0870137610100850181815286935091505b6001811015613c44578251825260209283019290910190600101613c25565b50505095945050505050565b600060208284031215613c6257600080fd5b8151610bc0816131d2565b600067ffffffffffffffff808316818103613c8a57613c8a613aa5565b6001019392505050565b60007fffffffffffffffffffffffffffffffffffffffffffffffffffffffffffffffff8203613cc557613cc5613aa5565b5060010190565b60008451613cde818460208901613494565b919091019283525060601b7fffffffffffffffffffffffffffffffffffffffff000000000000000000000000166020820152603401919050565b83815273ffffffffffffffffffffffffffffffffffffffff83166020820152606060408201526000613d4d60608301846134c0565b95945050505050565b7f4e487b7100000000000000000000000000000000000000000000000000000000600052603260045260246000fdfea2646970667358221220d2935cac184ac89c7579a3152ec7506972d39c655f73fd092da16ac1549b06f664736f6c634300080f0033",
  "linkReferences": {},
  "deployedLinkReferences": {}
}