{
  "_format": "hh-sol-artifact-1",
  "contractName": "ProofOfEfficiencyMock",
  "sourceName": "contracts/mocks/ProofOfEfficiencyMock.sol",
  "abi": [
    {
      "anonymous": false,
      "inputs": [
        {
          "indexed": true,
          "internalType": "uint64",
          "name": "forceBatchNum",
          "type": "uint64"
        },
        {
          "indexed": false,
          "internalType": "bytes32",
          "name": "lastGlobalExitRoot",
          "type": "bytes32"
        },
        {
          "indexed": false,
          "internalType": "address",
          "name": "sequencer",
          "type": "address"
        },
        {
          "indexed": false,
          "internalType": "bytes",
          "name": "transactions",
          "type": "bytes"
        }
      ],
      "name": "ForceBatch",
      "type": "event"
    },
    {
      "anonymous": false,
      "inputs": [
        {
          "indexed": false,
          "internalType": "uint8",
          "name": "version",
          "type": "uint8"
        }
      ],
      "name": "Initialized",
      "type": "event"
    },
    {
      "anonymous": false,
      "inputs": [
        {
          "indexed": true,
          "internalType": "uint64",
          "name": "numBatch",
          "type": "uint64"
        }
      ],
      "name": "SequenceBatches",
      "type": "event"
    },
    {
      "anonymous": false,
      "inputs": [
        {
          "indexed": true,
          "internalType": "uint64",
          "name": "numBatch",
          "type": "uint64"
        }
      ],
      "name": "SequenceForceBatches",
      "type": "event"
    },
    {
      "anonymous": false,
      "inputs": [
        {
          "indexed": false,
          "internalType": "bool",
          "name": "newForceBatchAllowed",
          "type": "bool"
        }
      ],
      "name": "SetForceBatchAllowed",
      "type": "event"
    },
    {
      "anonymous": false,
      "inputs": [
        {
          "indexed": false,
          "internalType": "address",
          "name": "newTrustedSequencer",
          "type": "address"
        }
      ],
      "name": "SetTrustedSequencer",
      "type": "event"
    },
    {
      "anonymous": false,
      "inputs": [
        {
          "indexed": false,
          "internalType": "string",
          "name": "newTrustedSequencerURL",
          "type": "string"
        }
      ],
      "name": "SetTrustedSequencerURL",
      "type": "event"
    },
    {
      "anonymous": false,
      "inputs": [
        {
          "indexed": true,
          "internalType": "uint64",
          "name": "numBatch",
          "type": "uint64"
        },
        {
          "indexed": true,
          "internalType": "address",
          "name": "aggregator",
          "type": "address"
        }
      ],
      "name": "VerifyBatch",
      "type": "event"
    },
    {
      "inputs": [],
      "name": "FORCE_BATCH_TIMEOUT",
      "outputs": [
        {
          "internalType": "uint64",
          "name": "",
          "type": "uint64"
        }
      ],
      "stateMutability": "view",
      "type": "function"
    },
    {
      "inputs": [],
      "name": "MAX_BATCH_LENGTH",
      "outputs": [
        {
          "internalType": "uint256",
          "name": "",
          "type": "uint256"
        }
      ],
      "stateMutability": "view",
      "type": "function"
    },
    {
      "inputs": [],
      "name": "TRUSTED_SEQUENCER_FEE",
      "outputs": [
        {
          "internalType": "uint256",
          "name": "",
          "type": "uint256"
        }
      ],
      "stateMutability": "view",
      "type": "function"
    },
    {
      "inputs": [],
      "name": "calculateForceProverFee",
      "outputs": [
        {
          "internalType": "uint256",
          "name": "",
          "type": "uint256"
        }
      ],
      "stateMutability": "view",
      "type": "function"
    },
    {
      "inputs": [
        {
          "internalType": "bytes32",
          "name": "currentStateRoot",
          "type": "bytes32"
        },
        {
          "internalType": "bytes32",
          "name": "currentLocalExitRoot",
          "type": "bytes32"
        },
        {
          "internalType": "bytes32",
          "name": "newStateRoot",
          "type": "bytes32"
        },
        {
          "internalType": "bytes32",
          "name": "newLocalExitRoot",
          "type": "bytes32"
        },
        {
          "internalType": "bytes32",
          "name": "batchHashData",
          "type": "bytes32"
        },
        {
          "internalType": "uint64",
          "name": "numBatch",
          "type": "uint64"
        },
        {
          "internalType": "uint64",
          "name": "timestamp",
          "type": "uint64"
        },
        {
          "internalType": "address",
          "name": "aggregatorAddress",
          "type": "address"
        }
      ],
      "name": "calculateSnarkInput",
      "outputs": [
        {
          "internalType": "uint256",
          "name": "",
          "type": "uint256"
        }
      ],
      "stateMutability": "pure",
      "type": "function"
    },
    {
      "inputs": [
        {
          "internalType": "bytes32",
          "name": "currentStateRoot",
          "type": "bytes32"
        },
        {
          "internalType": "bytes32",
          "name": "currentLocalExitRoot",
          "type": "bytes32"
        },
        {
          "internalType": "bytes32",
          "name": "newStateRoot",
          "type": "bytes32"
        },
        {
          "internalType": "bytes32",
          "name": "newLocalExitRoot",
          "type": "bytes32"
        },
        {
          "internalType": "bytes32",
          "name": "batchHashData",
          "type": "bytes32"
        },
        {
          "internalType": "uint64",
          "name": "numBatch",
          "type": "uint64"
        },
        {
          "internalType": "uint64",
          "name": "timestamp",
          "type": "uint64"
        }
      ],
      "name": "calculateStarkInput",
      "outputs": [
        {
          "internalType": "bytes32",
          "name": "",
          "type": "bytes32"
        }
      ],
      "stateMutability": "pure",
      "type": "function"
    },
    {
      "inputs": [],
      "name": "currentLocalExitRoot",
      "outputs": [
        {
          "internalType": "bytes32",
          "name": "",
          "type": "bytes32"
        }
      ],
      "stateMutability": "view",
      "type": "function"
    },
    {
      "inputs": [],
      "name": "currentStateRoot",
      "outputs": [
        {
          "internalType": "bytes32",
          "name": "",
          "type": "bytes32"
        }
      ],
      "stateMutability": "view",
      "type": "function"
    },
    {
      "inputs": [
        {
          "internalType": "bytes",
          "name": "transactions",
          "type": "bytes"
        },
        {
          "internalType": "uint256",
          "name": "maticAmount",
          "type": "uint256"
        }
      ],
      "name": "forceBatch",
      "outputs": [],
      "stateMutability": "nonpayable",
      "type": "function"
    },
    {
      "inputs": [],
      "name": "forceBatchAllowed",
      "outputs": [
        {
          "internalType": "bool",
          "name": "",
          "type": "bool"
        }
      ],
      "stateMutability": "view",
      "type": "function"
    },
    {
      "inputs": [
        {
          "internalType": "uint64",
          "name": "",
          "type": "uint64"
        }
      ],
      "name": "forcedBatches",
      "outputs": [
        {
          "internalType": "bytes32",
          "name": "batchHashData",
          "type": "bytes32"
        },
        {
          "internalType": "uint256",
          "name": "maticFee",
          "type": "uint256"
        },
        {
          "internalType": "uint64",
          "name": "minTimestamp",
          "type": "uint64"
        }
      ],
      "stateMutability": "view",
      "type": "function"
    },
    {
      "inputs": [
        {
          "internalType": "bytes32",
          "name": "newLocalExitRoot",
          "type": "bytes32"
        },
        {
          "internalType": "bytes32",
          "name": "newStateRoot",
          "type": "bytes32"
        },
        {
          "internalType": "uint64",
          "name": "numBatch",
          "type": "uint64"
        }
      ],
      "name": "getNextSnarkInput",
      "outputs": [
        {
          "internalType": "uint256",
          "name": "",
          "type": "uint256"
        }
      ],
      "stateMutability": "view",
      "type": "function"
    },
    {
      "inputs": [],
      "name": "globalExitRootManager",
      "outputs": [
        {
          "internalType": "contract IGlobalExitRootManager",
          "name": "",
          "type": "address"
        }
      ],
      "stateMutability": "view",
      "type": "function"
    },
    {
      "inputs": [
        {
          "internalType": "contract IGlobalExitRootManager",
          "name": "_globalExitRootManager",
          "type": "address"
        },
        {
          "internalType": "contract IERC20Upgradeable",
          "name": "_matic",
          "type": "address"
        },
        {
          "internalType": "contract IVerifierRollup",
          "name": "_rollupVerifier",
          "type": "address"
        },
        {
          "internalType": "bytes32",
          "name": "genesisRoot",
          "type": "bytes32"
        },
        {
          "internalType": "address",
          "name": "_trustedSequencer",
          "type": "address"
        },
        {
          "internalType": "bool",
          "name": "_forceBatchAllowed",
          "type": "bool"
        },
        {
          "internalType": "string",
          "name": "_trustedSequencerURL",
          "type": "string"
        }
      ],
      "name": "initialize",
      "outputs": [],
      "stateMutability": "nonpayable",
      "type": "function"
    },
    {
      "inputs": [],
      "name": "lastBatchSequenced",
      "outputs": [
        {
          "internalType": "uint64",
          "name": "",
          "type": "uint64"
        }
      ],
      "stateMutability": "view",
      "type": "function"
    },
    {
      "inputs": [],
      "name": "lastForceBatch",
      "outputs": [
        {
          "internalType": "uint64",
          "name": "",
          "type": "uint64"
        }
      ],
      "stateMutability": "view",
      "type": "function"
    },
    {
      "inputs": [],
      "name": "lastForceBatchSequenced",
      "outputs": [
        {
          "internalType": "uint64",
          "name": "",
          "type": "uint64"
        }
      ],
      "stateMutability": "view",
      "type": "function"
    },
    {
      "inputs": [],
      "name": "lastTimestamp",
      "outputs": [
        {
          "internalType": "uint64",
          "name": "",
          "type": "uint64"
        }
      ],
      "stateMutability": "view",
      "type": "function"
    },
    {
      "inputs": [],
      "name": "lastVerifiedBatch",
      "outputs": [
        {
          "internalType": "uint64",
          "name": "",
          "type": "uint64"
        }
      ],
      "stateMutability": "view",
      "type": "function"
    },
    {
      "inputs": [],
      "name": "matic",
      "outputs": [
        {
          "internalType": "contract IERC20Upgradeable",
          "name": "",
          "type": "address"
        }
      ],
      "stateMutability": "view",
      "type": "function"
    },
    {
      "inputs": [
        {
          "internalType": "bytes32",
          "name": "newLocalExitRoot",
          "type": "bytes32"
        },
        {
          "internalType": "bytes32",
          "name": "newStateRoot",
          "type": "bytes32"
        },
        {
          "internalType": "uint32",
          "name": "numBatch",
          "type": "uint32"
        }
      ],
      "name": "returnInputHashParameters",
      "outputs": [
        {
          "internalType": "bytes",
          "name": "",
          "type": "bytes"
        }
      ],
      "stateMutability": "view",
      "type": "function"
    },
    {
      "inputs": [],
      "name": "rollupVerifier",
      "outputs": [
        {
          "internalType": "contract IVerifierRollup",
          "name": "",
          "type": "address"
        }
      ],
      "stateMutability": "view",
      "type": "function"
    },
    {
      "inputs": [
        {
          "components": [
            {
              "internalType": "bytes",
              "name": "transactions",
              "type": "bytes"
            },
            {
              "internalType": "bytes32",
              "name": "globalExitRoot",
              "type": "bytes32"
            },
            {
              "internalType": "uint64",
              "name": "timestamp",
              "type": "uint64"
            },
            {
              "internalType": "uint64[]",
              "name": "forceBatchesTimestamp",
              "type": "uint64[]"
            }
          ],
          "internalType": "struct ProofOfEfficiency.BatchData[]",
          "name": "batches",
          "type": "tuple[]"
        }
      ],
      "name": "sequenceBatches",
      "outputs": [],
      "stateMutability": "nonpayable",
      "type": "function"
    },
    {
      "inputs": [
        {
          "internalType": "uint64",
          "name": "numForcedBatches",
          "type": "uint64"
        }
      ],
      "name": "sequenceForceBatches",
      "outputs": [],
      "stateMutability": "nonpayable",
      "type": "function"
    },
    {
      "inputs": [
        {
          "internalType": "uint64",
          "name": "",
          "type": "uint64"
        }
      ],
      "name": "sequencedBatches",
      "outputs": [
        {
          "internalType": "bytes32",
          "name": "batchHashData",
          "type": "bytes32"
        },
        {
          "internalType": "uint64",
          "name": "timestamp",
          "type": "uint64"
        },
        {
          "internalType": "uint64",
          "name": "forceBatchNum",
          "type": "uint64"
        }
      ],
      "stateMutability": "view",
      "type": "function"
    },
    {
      "inputs": [
        {
          "internalType": "bytes32",
          "name": "newLocalExitRoot",
          "type": "bytes32"
        }
      ],
      "name": "setExitRoot",
      "outputs": [],
      "stateMutability": "nonpayable",
      "type": "function"
    },
    {
      "inputs": [
        {
          "internalType": "bool",
          "name": "newForceBatchAllowed",
          "type": "bool"
        }
      ],
      "name": "setForceBatchAllowed",
      "outputs": [],
      "stateMutability": "nonpayable",
      "type": "function"
    },
    {
      "inputs": [
        {
          "internalType": "bytes32",
          "name": "newStateRoot",
          "type": "bytes32"
        }
      ],
      "name": "setStateRoot",
      "outputs": [],
      "stateMutability": "nonpayable",
      "type": "function"
    },
    {
      "inputs": [
        {
          "internalType": "address",
          "name": "newTrustedSequencer",
          "type": "address"
        }
      ],
      "name": "setTrustedSequencer",
      "outputs": [],
      "stateMutability": "nonpayable",
      "type": "function"
    },
    {
      "inputs": [
        {
          "internalType": "string",
          "name": "newTrustedSequencerURL",
          "type": "string"
        }
      ],
      "name": "setTrustedSequencerURL",
      "outputs": [],
      "stateMutability": "nonpayable",
      "type": "function"
    },
    {
      "inputs": [],
      "name": "trustedSequencer",
      "outputs": [
        {
          "internalType": "address",
          "name": "",
          "type": "address"
        }
      ],
      "stateMutability": "view",
      "type": "function"
    },
    {
      "inputs": [],
      "name": "trustedSequencerURL",
      "outputs": [
        {
          "internalType": "string",
          "name": "",
          "type": "string"
        }
      ],
      "stateMutability": "view",
      "type": "function"
    },
    {
      "inputs": [
        {
          "internalType": "bytes32",
          "name": "newLocalExitRoot",
          "type": "bytes32"
        },
        {
          "internalType": "bytes32",
          "name": "newStateRoot",
          "type": "bytes32"
        },
        {
          "internalType": "uint64",
          "name": "numBatch",
          "type": "uint64"
        },
        {
          "internalType": "uint256[2]",
          "name": "proofA",
          "type": "uint256[2]"
        },
        {
          "internalType": "uint256[2][2]",
          "name": "proofB",
          "type": "uint256[2][2]"
        },
        {
          "internalType": "uint256[2]",
          "name": "proofC",
          "type": "uint256[2]"
        }
      ],
      "name": "verifyBatch",
      "outputs": [],
      "stateMutability": "nonpayable",
      "type": "function"
    }
  ],
  "bytecode": "0x608060405234801561001057600080fd5b50613d22806100206000396000f3fe608060405234801561001057600080fd5b506004361061020b5760003560e01c8063959c2f471161012a578063cfa8ed47116100bd578063e7a7ed021161008c578063eaeb077b11610071578063eaeb077b1461064f578063f755276114610662578063f7d2cd7f1461067157600080fd5b8063e7a7ed02146105ff578063e8bf92ed1461062f57600080fd5b8063cfa8ed4714610563578063d02103ca1461058f578063d307b743146105af578063d8f54db0146105c257600080fd5b8063b02286c0116100f9578063b02286c014610477578063b4d63f581461049e578063b6b0b09714610505578063c89e42df1461055057600080fd5b8063959c2f4714610448578063aa0f441814610451578063ab9fc5ef14610464578063ac2eba981461046e57600080fd5b806357177ef5116101a2578063798470571161017157806379847057146104065780637fcb36531461040e5780638c4a0af71461042257806395297e241461043557600080fd5b806357177ef5146103705780636b411007146103835780636b8616ce146103965780636ff512cc146103f357600080fd5b806325d0a8f5116101de57806325d0a8f514610300578063423fa856146103205780634560526714610340578063542028d51461036857600080fd5b8063086f919914610210578063116c40c314610225578063188c69b41461023857806319d8ac61146102d3575b600080fd5b61022361021e36600461327c565b610684565b005b610223610233366004613320565b600755565b6102c0610246366004613356565b60408051602080820199909952808201979097526060870195909552608086019390935260a08501919091527fffffffffffffffff00000000000000000000000000000000000000000000000060c091821b81168286015291901b1660c8830152805180830360b001815260d09092019052805191012090565b6040519081526020015b60405180910390f35b6003546102e79067ffffffffffffffff1681565b60405167ffffffffffffffff90911681526020016102ca565b61031361030e3660046133b9565b610933565b6040516102ca9190613471565b6003546102e79068010000000000000000900467ffffffffffffffff1681565b6003546102e790700100000000000000000000000000000000900467ffffffffffffffff1681565b610313610b57565b6102c061037e366004613484565b610be5565b6102c06103913660046134b9565b610ee8565b6103ce6103a4366004613531565b600160208190526000918252604090912080549181015460029091015467ffffffffffffffff1683565b60408051938452602084019290925267ffffffffffffffff16908201526060016102ca565b61022361040136600461354c565b61104b565b6102c0611186565b6004546102e79067ffffffffffffffff1681565b610223610430366004613569565b611200565b61022361044336600461359d565b611334565b6102c060075481565b61022361045f366004613531565b611942565b6102e762093a8081565b6102c060065481565b6102c07fffffffffffffffffffffffffffffffffffffffffffffffffffffffffffffffff81565b6104df6104ac366004613531565b6002602052600090815260409020805460019091015467ffffffffffffffff808216916801000000000000000090041683565b6040805193845267ffffffffffffffff92831660208501529116908201526060016102ca565b60005461052b9062010000900473ffffffffffffffffffffffffffffffffffffffff1681565b60405173ffffffffffffffffffffffffffffffffffffffff90911681526020016102ca565b61022361055e36600461360e565b611e90565b60045461052b9068010000000000000000900473ffffffffffffffffffffffffffffffffffffffff1681565b60055461052b9073ffffffffffffffffffffffffffffffffffffffff1681565b6102236105bd366004613320565b600655565b6004546105ef907c0100000000000000000000000000000000000000000000000000000000900460ff1681565b60405190151581526020016102ca565b6003546102e7907801000000000000000000000000000000000000000000000000900467ffffffffffffffff1681565b60085461052b9073ffffffffffffffffffffffffffffffffffffffff1681565b61022361065d366004613643565b611f7f565b6102c067016345785d8a000081565b61022361067f3660046136ac565b612483565b600054610100900460ff16158080156106a45750600054600160ff909116105b806106be5750303b1580156106be575060005460ff166001145b61074f576040517f08c379a000000000000000000000000000000000000000000000000000000000815260206004820152602e60248201527f496e697469616c697a61626c653a20636f6e747261637420697320616c72656160448201527f647920696e697469616c697a656400000000000000000000000000000000000060648201526084015b60405180910390fd5b600080547fffffffffffffffffffffffffffffffffffffffffffffffffffffffffffffff0016600117905580156107ad57600080547fffffffffffffffffffffffffffffffffffffffffffffffffffffffffffff00ff166101001790555b600580547fffffffffffffffffffffffff000000000000000000000000000000000000000090811673ffffffffffffffffffffffffffffffffffffffff8b811691909117909255600080547fffffffffffffffffffff0000000000000000000000000000000000000000ffff16620100008b851602179055600880549091168883161790556006869055600480547fffffff000000000000000000000000000000000000000000ffffffffffffffff1668010000000000000000928716929092027fffffff00ffffffffffffffffffffffffffffffffffffffffffffffffffffffff16919091177c01000000000000000000000000000000000000000000000000000000008515150217905560096108c583826138f2565b50801561092957600080547fffffffffffffffffffffffffffffffffffffffffffffffffffffffffffff00ff169055604051600181527f7f26b83ff96e1f2b6a682f133852f6798a09c465da95921460cefb38474024989060200160405180910390a15b5050505050505050565b60045460609061094e9067ffffffffffffffff166001613a3b565b67ffffffffffffffff168263ffffffff16146109ec576040517f08c379a000000000000000000000000000000000000000000000000000000000815260206004820152603460248201527f50726f6f664f66456666696369656e63793a3a76657269667942617463683a2060448201527f42415443485f444f45535f4e4f545f4d415443480000000000000000000000006064820152608401610746565b63ffffffff821660009081526002602052604081206001015467ffffffffffffffff8181169291829168010000000000000000909104168103610a4f57505063ffffffff831660009081526002602052604090205467016345785d8a0000610ab4565b505063ffffffff8316600090815260026020818152604080842060019081015468010000000000000000900467ffffffffffffffff90811686528184529482902082516060810184528154808252928201549481018590529401549094169201919091525b600654600754604080516020810193909352820152606081018790526080810188905260a0810183905260e086901b7fffffffff000000000000000000000000000000000000000000000000000000001660c08083019190915284901b7fffffffffffffffff0000000000000000000000000000000000000000000000001660c482015260cc0160405160208183030381529060405293505050505b9392505050565b60098054610b6490613851565b80601f0160208091040260200160405190810160405280929190818152602001828054610b9090613851565b8015610bdd5780601f10610bb257610100808354040283529160200191610bdd565b820191906000526020600020905b815481529060010190602001808311610bc057829003601f168201915b505050505081565b600454600090610c009067ffffffffffffffff166001613a3b565b67ffffffffffffffff168267ffffffffffffffff1614610ca2576040517f08c379a000000000000000000000000000000000000000000000000000000000815260206004820152603460248201527f50726f6f664f66456666696369656e63793a3a76657269667942617463683a2060448201527f42415443485f444f45535f4e4f545f4d415443480000000000000000000000006064820152608401610746565b67ffffffffffffffff808316600090815260026020526040812060010154808316928291680100000000000000009004168103610d0357505067ffffffffffffffff831660009081526002602052604090205467016345785d8a0000610d63565b505067ffffffffffffffff8084166000908152600260208181526040808420600190810154680100000000000000009004861685528083529381902081516060810183528154808252958201549381018490529301549094169190930152905b600654600754604080516020810193909352820152606081018790526080810188905260a081018390527fffffffffffffffff00000000000000000000000000000000000000000000000060c087811b82168184015285901b1660c882015260009060d001604080517fffffffffffffffffffffffffffffffffffffffffffffffffffffffffffffffe0818403018152828252805160209182012060948401909252605483523360601b9083015291506034810160005b6008811015610e5b577bffffffff0000000000000000000000000000000000000000000000006020820285901c60c01b168252600890910190600101610e1a565b505060007f30644e72e131a029b85045b68181585d2833e84879b9709143e1f593f0000001600283604051610e909190613a67565b602060405180830381855afa158015610ead573d6000803e3d6000fd5b5050506040513d601f19601f82011682018060405250810190610ed09190613a83565b610eda9190613a9c565b9a9950505050505050505050565b6040805160208082018b90528183018a905260608083018a90526080830189905260a083018890527fffffffffffffffff00000000000000000000000000000000000000000000000060c088811b82168186015287901b1660c8840152835180840360b001815260d084018086528151919093012061016484019094526054825284901b60f08301526000929161010401835b6008811015610fbc577bffffffff0000000000000000000000000000000000000000000000006020820285901c60c01b168252600890910190600101610f7b565b505060007f30644e72e131a029b85045b68181585d2833e84879b9709143e1f593f0000001600283604051610ff19190613a67565b602060405180830381855afa15801561100e573d6000803e3d6000fd5b5050506040513d601f19601f820116820180604052508101906110319190613a83565b61103b9190613a9c565b9c9b505050505050505050505050565b60045468010000000000000000900473ffffffffffffffffffffffffffffffffffffffff1633146110fe576040517f08c379a000000000000000000000000000000000000000000000000000000000815260206004820152603f60248201527f50726f6f664f66456666696369656e63793a3a6f6e6c7954727573746564536560448201527f7175656e6365723a206f6e6c7920747275737465642073657175656e636572006064820152608401610746565b600480547fffffffff0000000000000000000000000000000000000000ffffffffffffffff166801000000000000000073ffffffffffffffffffffffffffffffffffffffff8416908102919091179091556040519081527ff54144f9611984021529f814a1cb6a41e22c58351510a0d9f7e822618abb9cc0906020015b60405180910390a150565b60035460009067ffffffffffffffff70010000000000000000000000000000000082048116916111d5917801000000000000000000000000000000000000000000000000909104166001613a3b565b6111df9190613ad7565b6111fb9067ffffffffffffffff16670de0b6b3a7640000613b00565b905090565b60045468010000000000000000900473ffffffffffffffffffffffffffffffffffffffff1633146112b3576040517f08c379a000000000000000000000000000000000000000000000000000000000815260206004820152603f60248201527f50726f6f664f66456666696369656e63793a3a6f6e6c7954727573746564536560448201527f7175656e6365723a206f6e6c7920747275737465642073657175656e636572006064820152608401610746565b600480548215157c0100000000000000000000000000000000000000000000000000000000027fffffff00ffffffffffffffffffffffffffffffffffffffffffffffffffffffff9091161790556040517fbacda50a4a8575be1d91a7ebe29ee45056f3a94f12a2281eb6b43afa33bcefe69061117b90831515815260200190565b60045461134c9067ffffffffffffffff166001613a3b565b67ffffffffffffffff168467ffffffffffffffff16146113ee576040517f08c379a000000000000000000000000000000000000000000000000000000000815260206004820152603460248201527f50726f6f664f66456666696369656e63793a3a76657269667942617463683a2060448201527f626174636820646f6573206e6f74206d617463680000000000000000000000006064820152608401610746565b60035467ffffffffffffffff68010000000000000000909104811690851611156114c0576040517f08c379a000000000000000000000000000000000000000000000000000000000815260206004820152604260248201527f50726f6f664f66456666696369656e63793a3a76657269667942617463683a2060448201527f626174636820646f6573206e6f742068617665206265656e2073657175656e6360648201527f6564000000000000000000000000000000000000000000000000000000000000608482015260a401610746565b67ffffffffffffffff80851660009081526002602052604081206001015480831692829168010000000000000000900416810361152157505067ffffffffffffffff851660009081526002602052604090205467016345785d8a0000611581565b505067ffffffffffffffff8086166000908152600260208181526040808420600190810154680100000000000000009004861685528083529381902081516060810183528154808252958201549381018490529301549094169190930152905b60065460075460408051602081019390935282015260608101899052608081018a905260a081018390527fffffffffffffffff00000000000000000000000000000000000000000000000060c089811b82168184015285901b1660c882015260009060d001604080517fffffffffffffffffffffffffffffffffffffffffffffffffffffffffffffffe0818403018152828252805160209182012060948401909252605483523360601b9083015291506034810160005b60088110156116505760089190910190600101611638565b505060007f30644e72e131a029b85045b68181585d2833e84879b9709143e1f593f00000016002836040516116859190613a67565b602060405180830381855afa1580156116a2573d6000803e3d6000fd5b5050506040513d601f19601f820116820180604052508101906116c59190613a83565b6116cf9190613a9c565b6008546040805160208101825283815290517f43753b4d00000000000000000000000000000000000000000000000000000000815292935073ffffffffffffffffffffffffffffffffffffffff909116916343753b4d91611739918d918d918d9190600401613b3d565b602060405180830381865afa158015611756573d6000803e3d6000fd5b505050506040513d601f19601f8201168201806040525081019061177a9190613bb7565b611806576040517f08c379a000000000000000000000000000000000000000000000000000000000815260206004820152602d60248201527f50726f6f664f66456666696369656e63793a3a76657269667942617463683a2060448201527f494e56414c49445f50524f4f46000000000000000000000000000000000000006064820152608401610746565b6004805467ffffffffffffffff1690600061182083613bd4565b825467ffffffffffffffff9182166101009390930a92830291909202199091161790555060068b905560078c90556005546040517f33d6247d000000000000000000000000000000000000000000000000000000008152600481018e905273ffffffffffffffffffffffffffffffffffffffff909116906333d6247d90602401600060405180830381600087803b1580156118ba57600080fd5b505af11580156118ce573d6000803e3d6000fd5b50506000546118fd925062010000900473ffffffffffffffffffffffffffffffffffffffff1690503386612cd1565b604051339067ffffffffffffffff8c16907f2cdf1508085a46c7241a7d78c5a1ec3d9246d1ab95e1c2a33676d29e17d4222390600090a3505050505050505050505050565b6004547c0100000000000000000000000000000000000000000000000000000000900460ff161515600114611a1f576040517f08c379a000000000000000000000000000000000000000000000000000000000815260206004820152604860248201527f50726f6f664f66456666696369656e63793a3a6973466f72636542617463684160448201527f6c6c6f7765643a206f6e6c7920696620666f726365206261746368206973206160648201527f7661696c61626c65000000000000000000000000000000000000000000000000608482015260a401610746565b600354600090611a4e908390700100000000000000000000000000000000900467ffffffffffffffff16613a3b565b905060008267ffffffffffffffff1611611b10576040517f08c379a000000000000000000000000000000000000000000000000000000000815260206004820152604260248201527f50726f6f664f66456666696369656e63793a3a73657175656e6365466f72636560448201527f42617463683a204d75737420666f726365206174206c6561737420312062617460648201527f6368000000000000000000000000000000000000000000000000000000000000608482015260a401610746565b60035467ffffffffffffffff780100000000000000000000000000000000000000000000000090910481169082161115611bcc576040517f08c379a000000000000000000000000000000000000000000000000000000000815260206004820152603a60248201527f50726f6f664f66456666696369656e63793a3a73657175656e6365466f72636560448201527f42617463683a20466f72636520626174636820696e76616c69640000000000006064820152608401610746565b60045468010000000000000000900473ffffffffffffffffffffffffffffffffffffffff163314611ce45767ffffffffffffffff8082166000908152600160205260409020600201544291611c269162093a809116613a3b565b67ffffffffffffffff161115611ce4576040517f08c379a000000000000000000000000000000000000000000000000000000000815260206004820152604c60248201527f50726f6f664f66456666696369656e63793a3a73657175656e6365466f72636560448201527f42617463683a20466f72636564206261746368206973206e6f7420696e20746960648201527f6d656f757420706572696f640000000000000000000000000000000000000000608482015260a401610746565b60035467ffffffffffffffff68010000000000000000820481169170010000000000000000000000000000000090041660005b8467ffffffffffffffff16811015611dd35781611d3381613bd4565b9250508280611d4190613bd4565b67ffffffffffffffff818116600090815260026020526040902060010180547fffffffffffffffffffffffffffffffff000000000000000000000000000000001668010000000000000000878416027fffffffffffffffffffffffffffffffffffffffffffffffff00000000000000001617429092169190911790559350819050611dcb81613bfb565b915050611d17565b50600380544267ffffffffffffffff9081167fffffffffffffffffffffffffffffffff0000000000000000000000000000000090921691909117680100000000000000008583168102919091177fffffffffffffffff0000000000000000ffffffffffffffffffffffffffffffff16700100000000000000000000000000000000858416021792839055604051920416907f648a61dd2438f072f5a1960939abd30f37aea80d2e94c9792ad142d3e0a490a490600090a250505050565b60045468010000000000000000900473ffffffffffffffffffffffffffffffffffffffff163314611f43576040517f08c379a000000000000000000000000000000000000000000000000000000000815260206004820152603f60248201527f50726f6f664f66456666696369656e63793a3a6f6e6c7954727573746564536560448201527f7175656e6365723a206f6e6c7920747275737465642073657175656e636572006064820152608401610746565b6009611f4f82826138f2565b507f6b8f723a4c7a5335cafae8a598a0aa0301be1387c037dccc085b62add6448b208160405161117b9190613471565b6004547c0100000000000000000000000000000000000000000000000000000000900460ff16151560011461205c576040517f08c379a000000000000000000000000000000000000000000000000000000000815260206004820152604860248201527f50726f6f664f66456666696369656e63793a3a6973466f72636542617463684160448201527f6c6c6f7765643a206f6e6c7920696620666f726365206261746368206973206160648201527f7661696c61626c65000000000000000000000000000000000000000000000000608482015260a401610746565b6000612066611186565b9050818111156120f8576040517f08c379a000000000000000000000000000000000000000000000000000000000815260206004820152602f60248201527f50726f6f664f66456666696369656e63793a3a666f72636542617463683a206e60448201527f6f7420656e6f756768206d6174696300000000000000000000000000000000006064820152608401610746565b7fffffffffffffffffffffffffffffffffffffffffffffffffffffffffffffffff8351106121a8576040517f08c379a000000000000000000000000000000000000000000000000000000000815260206004820152603a60248201527f50726f6f664f66456666696369656e63793a3a666f72636542617463683a205460448201527f72616e73616374696f6e73206279746573206f766572666c6f770000000000006064820152608401610746565b6000546121d39062010000900473ffffffffffffffffffffffffffffffffffffffff16333084612daa565b600554604080517f3ed691ef000000000000000000000000000000000000000000000000000000008152905160009273ffffffffffffffffffffffffffffffffffffffff1691633ed691ef9160048083019260209291908290030181865afa158015612243573d6000803e3d6000fd5b505050506040513d601f19601f820116820180604052508101906122679190613a83565b60038054919250780100000000000000000000000000000000000000000000000090910467ffffffffffffffff169060186122a183613bd4565b91906101000a81548167ffffffffffffffff021916908367ffffffffffffffff160217905550508381336040516020016122dd93929190613c33565b604080518083037fffffffffffffffffffffffffffffffffffffffffffffffffffffffffffffffe001815291815281516020928301206003805478010000000000000000000000000000000000000000000000009081900467ffffffffffffffff908116600090815260019687905285812094909455825482900481168452848420909501879055905404831681522060020180547fffffffffffffffffffffffffffffffffffffffffffffffff0000000000000000164290921691909117905532330361242057600354604080518381523360208201526060918101829052600091810191909152780100000000000000000000000000000000000000000000000090910467ffffffffffffffff16907ff94bb37db835f1ab585ee00041849a09b12cd081d77fa15ca070757619cbc9319060800160405180910390a261247d565b600360189054906101000a900467ffffffffffffffff1667ffffffffffffffff167ff94bb37db835f1ab585ee00041849a09b12cd081d77fa15ca070757619cbc93182338760405161247493929190613c7f565b60405180910390a25b50505050565b60045468010000000000000000900473ffffffffffffffffffffffffffffffffffffffff163314612536576040517f08c379a000000000000000000000000000000000000000000000000000000000815260206004820152603f60248201527f50726f6f664f66456666696369656e63793a3a6f6e6c7954727573746564536560448201527f7175656e6365723a206f6e6c7920747275737465642073657175656e636572006064820152608401610746565b8051612576333061254f8467016345785d8a0000613b00565b60005462010000900473ffffffffffffffffffffffffffffffffffffffff16929190612daa565b60035467ffffffffffffffff808216916801000000000000000081048216917001000000000000000000000000000000009091041660005b84811015612b585760008682815181106125ca576125ca613cbd565b602002602001015190508467ffffffffffffffff16816040015167ffffffffffffffff161015801561260a575042816040015167ffffffffffffffff1611155b6126bc576040517f08c379a000000000000000000000000000000000000000000000000000000000815260206004820152604260248201527f50726f6f664f66456666696369656e63793a3a73657175656e6365426174636860448201527f65733a2054696d657374616d70206d75737420626520696e736964652072616e60648201527f6765000000000000000000000000000000000000000000000000000000000000608482015260a401610746565b6020810151158061276b575060055460208201516040517f257b363200000000000000000000000000000000000000000000000000000000815273ffffffffffffffffffffffffffffffffffffffff9092169163257b3632916127259160040190815260200190565b6020604051808303816000875af1158015612744573d6000803e3d6000fd5b505050506040513d601f19601f820116820180604052508101906127689190613a83565b15155b6127f7576040517f08c379a000000000000000000000000000000000000000000000000000000000815260206004820152603f60248201527f50726f6f664f66456666696369656e63793a3a73657175656e6365426174636860448201527f65733a20476c6f62616c206578697420726f6f74206d757374206578697374006064820152608401610746565b8051517fffffffffffffffffffffffffffffffffffffffffffffffffffffffffffffffff116128a8576040517f08c379a000000000000000000000000000000000000000000000000000000000815260206004820152603f60248201527f50726f6f664f66456666696369656e63793a3a73657175656e6365426174636860448201527f65733a205472616e73616374696f6e73206279746573206f766572666c6f77006064820152608401610746565b836128b281613bd4565b82516020808501516040519398506128cf94509192339101613c33565b604080518083037fffffffffffffffffffffffffffffffffffffffffffffffffffffffffffffffe0018152918152815160209283012067ffffffffffffffff8781166000908152600290945282842091825591840151600190910180547fffffffffffffffffffffffffffffffffffffffffffffffff0000000000000000169282169290921790915595505b816060015151811015612b43578361297281613bd4565b94505060008260600151828151811061298d5761298d613cbd565b602002602001015190508667ffffffffffffffff168167ffffffffffffffff16101580156129dc575067ffffffffffffffff808616600090815260016020526040902060020154811690821610155b80156129f25750428167ffffffffffffffff1611155b612aa4576040517f08c379a000000000000000000000000000000000000000000000000000000000815260206004820152605160248201527f50726f6f664f66456666696369656e63793a3a73657175656e6365426174636860448201527f65733a20466f7263656420626174636865732074696d657374616d70206d757360648201527f7420626520696e736964652072616e6765000000000000000000000000000000608482015260a401610746565b85612aae81613bd4565b67ffffffffffffffff818116600090815260026020526040902060010180547fffffffffffffffffffffffffffffffff0000000000000000000000000000000016680100000000000000008a8416027fffffffffffffffffffffffffffffffffffffffffffffffff00000000000000001617918516919091179055919750909550819050612b3b81613bfb565b91505061295b565b50508080612b5090613bfb565b9150506125ae565b5060035467ffffffffffffffff780100000000000000000000000000000000000000000000000090910481169082161115612c15576040517f08c379a000000000000000000000000000000000000000000000000000000000815260206004820152603a60248201527f50726f6f664f66456666696369656e63793a3a73657175656e6365426174636860448201527f65733a20466f7263652062617463686573206f766572666c6f770000000000006064820152608401610746565b6003805467ffffffffffffffff8581167fffffffffffffffffffffffffffffffff0000000000000000000000000000000090921691909117680100000000000000008583168102919091177fffffffffffffffff0000000000000000ffffffffffffffffffffffffffffffff16700100000000000000000000000000000000858416021792839055604051920416907f303446e6a8cb73c83dff421c0b1d5e5ce0719dab1bff13660fc254e58cc17fce90600090a25050505050565b60405173ffffffffffffffffffffffffffffffffffffffff8316602482015260448101829052612da59084907fa9059cbb00000000000000000000000000000000000000000000000000000000906064015b604080517fffffffffffffffffffffffffffffffffffffffffffffffffffffffffffffffe08184030181529190526020810180517bffffffffffffffffffffffffffffffffffffffffffffffffffffffff167fffffffff0000000000000000000000000000000000000000000000000000000090931692909217909152612e08565b505050565b60405173ffffffffffffffffffffffffffffffffffffffff8085166024830152831660448201526064810182905261247d9085907f23b872dd0000000000000000000000000000000000000000000000000000000090608401612d23565b6000612e6a826040518060400160405280602081526020017f5361666545524332303a206c6f772d6c6576656c2063616c6c206661696c65648152508573ffffffffffffffffffffffffffffffffffffffff16612f149092919063ffffffff16565b805190915015612da55780806020019051810190612e889190613bb7565b612da5576040517f08c379a000000000000000000000000000000000000000000000000000000000815260206004820152602a60248201527f5361666545524332303a204552433230206f7065726174696f6e20646964206e60448201527f6f742073756363656564000000000000000000000000000000000000000000006064820152608401610746565b6060612f238484600085612f2b565b949350505050565b606082471015612fbd576040517f08c379a000000000000000000000000000000000000000000000000000000000815260206004820152602660248201527f416464726573733a20696e73756666696369656e742062616c616e636520666f60448201527f722063616c6c00000000000000000000000000000000000000000000000000006064820152608401610746565b73ffffffffffffffffffffffffffffffffffffffff85163b61303b576040517f08c379a000000000000000000000000000000000000000000000000000000000815260206004820152601d60248201527f416464726573733a2063616c6c20746f206e6f6e2d636f6e74726163740000006044820152606401610746565b6000808673ffffffffffffffffffffffffffffffffffffffff1685876040516130649190613a67565b60006040518083038185875af1925050503d80600081146130a1576040519150601f19603f3d011682016040523d82523d6000602084013e6130a6565b606091505b50915091506130b68282866130c1565b979650505050505050565b606083156130d0575081610b50565b8251156130e05782518084602001fd5b816040517f08c379a00000000000000000000000000000000000000000000000000000000081526004016107469190613471565b73ffffffffffffffffffffffffffffffffffffffff8116811461313657600080fd5b50565b801515811461313657600080fd5b7f4e487b7100000000000000000000000000000000000000000000000000000000600052604160045260246000fd5b6040516080810167ffffffffffffffff8111828210171561319957613199613147565b60405290565b604051601f82017fffffffffffffffffffffffffffffffffffffffffffffffffffffffffffffffe016810167ffffffffffffffff811182821017156131e6576131e6613147565b604052919050565b600082601f8301126131ff57600080fd5b813567ffffffffffffffff81111561321957613219613147565b61324a60207fffffffffffffffffffffffffffffffffffffffffffffffffffffffffffffffe0601f8401160161319f565b81815284602083860101111561325f57600080fd5b816020850160208301376000918101602001919091529392505050565b600080600080600080600060e0888a03121561329757600080fd5b87356132a281613114565b965060208801356132b281613114565b955060408801356132c281613114565b94506060880135935060808801356132d981613114565b925060a08801356132e981613139565b915060c088013567ffffffffffffffff81111561330557600080fd5b6133118a828b016131ee565b91505092959891949750929550565b60006020828403121561333257600080fd5b5035919050565b803567ffffffffffffffff8116811461335157600080fd5b919050565b600080600080600080600060e0888a03121561337157600080fd5b873596506020880135955060408801359450606088013593506080880135925061339d60a08901613339565b91506133ab60c08901613339565b905092959891949750929550565b6000806000606084860312156133ce57600080fd5b8335925060208401359150604084013563ffffffff811681146133f057600080fd5b809150509250925092565b60005b838110156134165781810151838201526020016133fe565b8381111561247d5750506000910152565b6000815180845261343f8160208601602086016133fb565b601f017fffffffffffffffffffffffffffffffffffffffffffffffffffffffffffffffe0169290920160200192915050565b602081526000610b506020830184613427565b60008060006060848603121561349957600080fd5b83359250602084013591506134b060408501613339565b90509250925092565b600080600080600080600080610100898b0312156134d657600080fd5b883597506020890135965060408901359550606089013594506080890135935061350260a08a01613339565b925061351060c08a01613339565b915060e089013561352081613114565b809150509295985092959890939650565b60006020828403121561354357600080fd5b610b5082613339565b60006020828403121561355e57600080fd5b8135610b5081613114565b60006020828403121561357b57600080fd5b8135610b5081613139565b806040810183101561359757600080fd5b92915050565b60008060008060008061016087890312156135b757600080fd5b86359550602087013594506135ce60408801613339565b93506135dd8860608901613586565b92506101208701888111156135f157600080fd5b60a0880192506136018982613586565b9150509295509295509295565b60006020828403121561362057600080fd5b813567ffffffffffffffff81111561363757600080fd5b612f23848285016131ee565b6000806040838503121561365657600080fd5b823567ffffffffffffffff81111561366d57600080fd5b613679858286016131ee565b95602094909401359450505050565b600067ffffffffffffffff8211156136a2576136a2613147565b5060051b60200190565b600060208083850312156136bf57600080fd5b823567ffffffffffffffff808211156136d757600080fd5b818501915085601f8301126136eb57600080fd5b81356136fe6136f982613688565b61319f565b81815260059190911b8301840190848101908883111561371d57600080fd5b8585015b838110156138445780358581111561373857600080fd5b86016080818c037fffffffffffffffffffffffffffffffffffffffffffffffffffffffffffffffe001121561376c57600080fd5b613774613176565b888201358781111561378557600080fd5b6137938d8b838601016131ee565b8252506040808301358a8301526137ac60608401613339565b818301526080830135888111156137c35760008081fd5b8084019350508c603f8401126137d95760008081fd5b898301356137e96136f982613688565b81815260059190911b84018201908b8101908f8311156138095760008081fd5b948301945b8286101561382e5761381f86613339565b8252948c0194908c019061380e565b6060850152505050845250918601918601613721565b5098975050505050505050565b600181811c9082168061386557607f821691505b60208210810361389e577f4e487b7100000000000000000000000000000000000000000000000000000000600052602260045260246000fd5b50919050565b601f821115612da557600081815260208120601f850160051c810160208610156138cb5750805b601f850160051c820191505b818110156138ea578281556001016138d7565b505050505050565b815167ffffffffffffffff81111561390c5761390c613147565b6139208161391a8454613851565b846138a4565b602080601f831160018114613973576000841561393d5750858301515b7fffffffffffffffffffffffffffffffffffffffffffffffffffffffffffffffff600386901b1c1916600185901b1785556138ea565b6000858152602081207fffffffffffffffffffffffffffffffffffffffffffffffffffffffffffffffe08616915b828110156139c0578886015182559484019460019091019084016139a1565b50858210156139fc57878501517fffffffffffffffffffffffffffffffffffffffffffffffffffffffffffffffff600388901b60f8161c191681555b5050505050600190811b01905550565b7f4e487b7100000000000000000000000000000000000000000000000000000000600052601160045260246000fd5b600067ffffffffffffffff808316818516808303821115613a5e57613a5e613a0c565b01949350505050565b60008251613a798184602087016133fb565b9190910192915050565b600060208284031215613a9557600080fd5b5051919050565b600082613ad2577f4e487b7100000000000000000000000000000000000000000000000000000000600052601260045260246000fd5b500690565b600067ffffffffffffffff83811690831681811015613af857613af8613a0c565b039392505050565b6000817fffffffffffffffffffffffffffffffffffffffffffffffffffffffffffffffff0483118215151615613b3857613b38613a0c565b500290565b61012081016040808784376000838201818152879190815b6002811015613b7557848483379084018281529284019290600101613b55565b5050828760c0870137610100850181815286935091505b6001811015613bab578251825260209283019290910190600101613b8c565b50505095945050505050565b600060208284031215613bc957600080fd5b8151610b5081613139565b600067ffffffffffffffff808316818103613bf157613bf1613a0c565b6001019392505050565b60007fffffffffffffffffffffffffffffffffffffffffffffffffffffffffffffffff8203613c2c57613c2c613a0c565b5060010190565b60008451613c458184602089016133fb565b919091019283525060601b7fffffffffffffffffffffffffffffffffffffffff000000000000000000000000166020820152603401919050565b83815273ffffffffffffffffffffffffffffffffffffffff83166020820152606060408201526000613cb46060830184613427565b95945050505050565b7f4e487b7100000000000000000000000000000000000000000000000000000000600052603260045260246000fdfea2646970667358221220d5382e29c038f1d9cfecfffe5bdb2229f2c5704800311f1168e3a0796a7350e064736f6c634300080f0033",
  "linkReferences": {},
  "deployedLinkReferences": {}
}