{
  "_format": "hh-sol-artifact-1",
  "contractName": "ProofOfEfficiency",
  "sourceName": "contracts/ProofOfEfficiency.sol",
  "abi": [
    {
      "anonymous": false,
      "inputs": [
        {
          "indexed": true,
          "internalType": "uint64",
          "name": "numBatch",
          "type": "uint64"
        },
        {
          "indexed": false,
          "internalType": "bytes32",
          "name": "stateRoot",
          "type": "bytes32"
        },
        {
          "indexed": true,
          "internalType": "address",
          "name": "aggregator",
          "type": "address"
        }
      ],
      "name": "ConsolidatePendingState",
      "type": "event"
    },
    {
      "anonymous": false,
      "inputs": [],
      "name": "EmergencyStateActivated",
      "type": "event"
    },
    {
      "anonymous": false,
      "inputs": [],
      "name": "EmergencyStateDeactivated",
      "type": "event"
    },
    {
      "anonymous": false,
      "inputs": [
        {
          "indexed": true,
          "internalType": "uint64",
          "name": "forceBatchNum",
          "type": "uint64"
        },
        {
          "indexed": false,
          "internalType": "bytes32",
          "name": "lastGlobalExitRoot",
          "type": "bytes32"
        },
        {
          "indexed": false,
          "internalType": "address",
          "name": "sequencer",
          "type": "address"
        },
        {
          "indexed": false,
          "internalType": "bytes",
          "name": "transactions",
          "type": "bytes"
        }
      ],
      "name": "ForceBatch",
      "type": "event"
    },
    {
      "anonymous": false,
      "inputs": [
        {
          "indexed": false,
          "internalType": "uint8",
          "name": "version",
          "type": "uint8"
        }
      ],
      "name": "Initialized",
      "type": "event"
    },
    {
      "anonymous": false,
      "inputs": [
        {
          "indexed": true,
          "internalType": "uint64",
          "name": "numBatch",
          "type": "uint64"
        },
        {
          "indexed": false,
          "internalType": "bytes32",
          "name": "stateRoot",
          "type": "bytes32"
        },
        {
          "indexed": true,
          "internalType": "address",
          "name": "aggregator",
          "type": "address"
        }
      ],
      "name": "OverridePendingState",
      "type": "event"
    },
    {
      "anonymous": false,
      "inputs": [
        {
          "indexed": true,
          "internalType": "address",
          "name": "previousOwner",
          "type": "address"
        },
        {
          "indexed": true,
          "internalType": "address",
          "name": "newOwner",
          "type": "address"
        }
      ],
      "name": "OwnershipTransferred",
      "type": "event"
    },
    {
      "anonymous": false,
      "inputs": [
        {
          "indexed": false,
          "internalType": "bytes32",
          "name": "storedStateRoot",
          "type": "bytes32"
        },
        {
          "indexed": false,
          "internalType": "bytes32",
          "name": "provedStateRoot",
          "type": "bytes32"
        }
      ],
      "name": "ProveNonDeterministicPendingState",
      "type": "event"
    },
    {
      "anonymous": false,
      "inputs": [
        {
          "indexed": true,
          "internalType": "uint64",
          "name": "numBatch",
          "type": "uint64"
        }
      ],
      "name": "SequenceBatches",
      "type": "event"
    },
    {
      "anonymous": false,
      "inputs": [
        {
          "indexed": true,
          "internalType": "uint64",
          "name": "numBatch",
          "type": "uint64"
        }
      ],
      "name": "SequenceForceBatches",
      "type": "event"
    },
    {
      "anonymous": false,
      "inputs": [
        {
          "indexed": false,
          "internalType": "address",
          "name": "newAdmin",
          "type": "address"
        }
      ],
      "name": "SetAdmin",
      "type": "event"
    },
    {
      "anonymous": false,
      "inputs": [
        {
          "indexed": false,
          "internalType": "bool",
          "name": "newForceBatchAllowed",
          "type": "bool"
        }
      ],
      "name": "SetForceBatchAllowed",
      "type": "event"
    },
    {
      "anonymous": false,
      "inputs": [
        {
          "indexed": false,
          "internalType": "address",
          "name": "newTrustedAggregator",
          "type": "address"
        }
      ],
      "name": "SetTrustedAggregator",
      "type": "event"
    },
    {
      "anonymous": false,
      "inputs": [
        {
          "indexed": false,
          "internalType": "uint64",
          "name": "newTrustedAggregatorTimeout",
          "type": "uint64"
        }
      ],
      "name": "SetTrustedAggregatorTimeout",
      "type": "event"
    },
    {
      "anonymous": false,
      "inputs": [
        {
          "indexed": false,
          "internalType": "address",
          "name": "newTrustedSequencer",
          "type": "address"
        }
      ],
      "name": "SetTrustedSequencer",
      "type": "event"
    },
    {
      "anonymous": false,
      "inputs": [
        {
          "indexed": false,
          "internalType": "string",
          "name": "newTrustedSequencerURL",
          "type": "string"
        }
      ],
      "name": "SetTrustedSequencerURL",
      "type": "event"
    },
    {
      "anonymous": false,
      "inputs": [
        {
          "indexed": true,
          "internalType": "uint64",
          "name": "numBatch",
          "type": "uint64"
        },
        {
          "indexed": false,
          "internalType": "bytes32",
          "name": "stateRoot",
          "type": "bytes32"
        },
        {
          "indexed": true,
          "internalType": "address",
          "name": "aggregator",
          "type": "address"
        }
      ],
      "name": "TrustedVerifyBatches",
      "type": "event"
    },
    {
      "anonymous": false,
      "inputs": [
        {
          "indexed": true,
          "internalType": "uint64",
          "name": "numBatch",
          "type": "uint64"
        },
        {
          "indexed": false,
          "internalType": "bytes32",
          "name": "stateRoot",
          "type": "bytes32"
        },
        {
          "indexed": true,
          "internalType": "address",
          "name": "aggregator",
          "type": "address"
        }
      ],
      "name": "VerifyBatches",
      "type": "event"
    },
    {
      "inputs": [],
      "name": "FORCE_BATCH_TIMEOUT",
      "outputs": [
        {
          "internalType": "uint64",
          "name": "",
          "type": "uint64"
        }
      ],
      "stateMutability": "view",
      "type": "function"
    },
    {
      "inputs": [],
      "name": "HALT_AGGREGATION_TIMEOUT",
      "outputs": [
        {
          "internalType": "uint64",
          "name": "",
          "type": "uint64"
        }
      ],
      "stateMutability": "view",
      "type": "function"
    },
    {
      "inputs": [],
      "name": "MAX_BATCH_LENGTH",
      "outputs": [
        {
          "internalType": "uint256",
          "name": "",
          "type": "uint256"
        }
      ],
      "stateMutability": "view",
      "type": "function"
    },
    {
      "inputs": [],
      "name": "MAX_TRUSTED_AGGREGATOR_TIMEOUT",
      "outputs": [
        {
          "internalType": "uint64",
          "name": "",
          "type": "uint64"
        }
      ],
      "stateMutability": "view",
      "type": "function"
    },
    {
      "inputs": [],
      "name": "MAX_VERIFY_BATCHES",
      "outputs": [
        {
          "internalType": "uint64",
          "name": "",
          "type": "uint64"
        }
      ],
      "stateMutability": "view",
      "type": "function"
    },
    {
      "inputs": [
        {
          "internalType": "uint64",
          "name": "sequencedBatchNum",
          "type": "uint64"
        }
      ],
      "name": "activateEmergencyState",
      "outputs": [],
      "stateMutability": "nonpayable",
      "type": "function"
    },
    {
      "inputs": [],
      "name": "admin",
      "outputs": [
        {
          "internalType": "address",
          "name": "",
          "type": "address"
        }
      ],
      "stateMutability": "view",
      "type": "function"
    },
    {
      "inputs": [
        {
          "internalType": "uint64",
          "name": "",
          "type": "uint64"
        }
      ],
      "name": "batchNumToStateRoot",
      "outputs": [
        {
          "internalType": "bytes32",
          "name": "",
          "type": "bytes32"
        }
      ],
      "stateMutability": "view",
      "type": "function"
    },
    {
      "inputs": [],
      "name": "bridgeAddress",
      "outputs": [
        {
          "internalType": "contract IBridge",
          "name": "",
          "type": "address"
        }
      ],
      "stateMutability": "view",
      "type": "function"
    },
    {
      "inputs": [],
      "name": "calculateBatchFee",
      "outputs": [
        {
          "internalType": "uint256",
          "name": "",
          "type": "uint256"
        }
      ],
      "stateMutability": "view",
      "type": "function"
    },
    {
      "inputs": [],
      "name": "calculateRewardPerBatch",
      "outputs": [
        {
          "internalType": "uint256",
          "name": "",
          "type": "uint256"
        }
      ],
      "stateMutability": "view",
      "type": "function"
    },
    {
      "inputs": [],
      "name": "chainID",
      "outputs": [
        {
          "internalType": "uint64",
          "name": "",
          "type": "uint64"
        }
      ],
      "stateMutability": "view",
      "type": "function"
    },
    {
      "inputs": [
        {
          "internalType": "uint64",
          "name": "pendingStateNum",
          "type": "uint64"
        }
      ],
      "name": "consolidatePendingState",
      "outputs": [],
      "stateMutability": "nonpayable",
      "type": "function"
    },
    {
      "inputs": [],
      "name": "deactivateEmergencyState",
      "outputs": [],
      "stateMutability": "nonpayable",
      "type": "function"
    },
    {
      "inputs": [
        {
          "internalType": "bytes",
          "name": "transactions",
          "type": "bytes"
        },
        {
          "internalType": "uint256",
          "name": "maticAmount",
          "type": "uint256"
        }
      ],
      "name": "forceBatch",
      "outputs": [],
      "stateMutability": "nonpayable",
      "type": "function"
    },
    {
      "inputs": [],
      "name": "forceBatchAllowed",
      "outputs": [
        {
          "internalType": "bool",
          "name": "",
          "type": "bool"
        }
      ],
      "stateMutability": "view",
      "type": "function"
    },
    {
      "inputs": [
        {
          "internalType": "uint64",
          "name": "",
          "type": "uint64"
        }
      ],
      "name": "forcedBatches",
      "outputs": [
        {
          "internalType": "bytes32",
          "name": "",
          "type": "bytes32"
        }
      ],
      "stateMutability": "view",
      "type": "function"
    },
    {
      "inputs": [
        {
          "internalType": "uint64",
          "name": "initNumBatch",
          "type": "uint64"
        },
        {
          "internalType": "uint64",
          "name": "finalNewBatch",
          "type": "uint64"
        },
        {
          "internalType": "bytes32",
          "name": "newLocalExitRoot",
          "type": "bytes32"
        },
        {
          "internalType": "bytes32",
          "name": "oldStateRoot",
          "type": "bytes32"
        },
        {
          "internalType": "bytes32",
          "name": "newStateRoot",
          "type": "bytes32"
        }
      ],
      "name": "getInputSnarkBytes",
      "outputs": [
        {
          "internalType": "bytes",
          "name": "",
          "type": "bytes"
        }
      ],
      "stateMutability": "view",
      "type": "function"
    },
    {
      "inputs": [],
      "name": "getLastVerifiedBatch",
      "outputs": [
        {
          "internalType": "uint64",
          "name": "",
          "type": "uint64"
        }
      ],
      "stateMutability": "view",
      "type": "function"
    },
    {
      "inputs": [],
      "name": "globalExitRootManager",
      "outputs": [
        {
          "internalType": "contract IGlobalExitRootManager",
          "name": "",
          "type": "address"
        }
      ],
      "stateMutability": "view",
      "type": "function"
    },
    {
      "inputs": [
        {
          "internalType": "contract IGlobalExitRootManager",
          "name": "_globalExitRootManager",
          "type": "address"
        },
        {
          "internalType": "contract IERC20Upgradeable",
          "name": "_matic",
          "type": "address"
        },
        {
          "internalType": "contract IVerifierRollup",
          "name": "_rollupVerifier",
          "type": "address"
        },
        {
          "internalType": "contract IBridge",
          "name": "_bridgeAddress",
          "type": "address"
        },
        {
          "components": [
            {
              "internalType": "address",
              "name": "admin",
              "type": "address"
            },
            {
              "internalType": "uint64",
              "name": "chainID",
              "type": "uint64"
            },
            {
              "internalType": "address",
              "name": "trustedSequencer",
              "type": "address"
            },
            {
              "internalType": "uint64",
              "name": "pendingStateTimeout",
              "type": "uint64"
            },
            {
              "internalType": "bool",
              "name": "forceBatchAllowed",
              "type": "bool"
            },
            {
              "internalType": "address",
              "name": "trustedAggregator",
              "type": "address"
            },
            {
              "internalType": "uint64",
              "name": "trustedAggregatorTimeout",
              "type": "uint64"
            }
          ],
          "internalType": "struct ProofOfEfficiency.InitializePackedParameters",
          "name": "initializePackedParameters",
          "type": "tuple"
        },
        {
          "internalType": "bytes32",
          "name": "genesisRoot",
          "type": "bytes32"
        },
        {
          "internalType": "string",
          "name": "_trustedSequencerURL",
          "type": "string"
        },
        {
          "internalType": "string",
          "name": "_networkName",
          "type": "string"
        }
      ],
      "name": "initialize",
      "outputs": [],
      "stateMutability": "nonpayable",
      "type": "function"
    },
    {
      "inputs": [],
      "name": "isEmergencyState",
      "outputs": [
        {
          "internalType": "bool",
          "name": "",
          "type": "bool"
        }
      ],
      "stateMutability": "view",
      "type": "function"
    },
    {
      "inputs": [],
      "name": "lastBatchSequenced",
      "outputs": [
        {
          "internalType": "uint64",
          "name": "",
          "type": "uint64"
        }
      ],
      "stateMutability": "view",
      "type": "function"
    },
    {
      "inputs": [],
      "name": "lastForceBatch",
      "outputs": [
        {
          "internalType": "uint64",
          "name": "",
          "type": "uint64"
        }
      ],
      "stateMutability": "view",
      "type": "function"
    },
    {
      "inputs": [],
      "name": "lastForceBatchSequenced",
      "outputs": [
        {
          "internalType": "uint64",
          "name": "",
          "type": "uint64"
        }
      ],
      "stateMutability": "view",
      "type": "function"
    },
    {
      "inputs": [],
      "name": "lastPendingState",
      "outputs": [
        {
          "internalType": "uint64",
          "name": "",
          "type": "uint64"
        }
      ],
      "stateMutability": "view",
      "type": "function"
    },
    {
      "inputs": [],
      "name": "lastPendingStateConsolidated",
      "outputs": [
        {
          "internalType": "uint64",
          "name": "",
          "type": "uint64"
        }
      ],
      "stateMutability": "view",
      "type": "function"
    },
    {
      "inputs": [],
      "name": "lastTimestamp",
      "outputs": [
        {
          "internalType": "uint64",
          "name": "",
          "type": "uint64"
        }
      ],
      "stateMutability": "view",
      "type": "function"
    },
    {
      "inputs": [],
      "name": "lastVerifiedBatch",
      "outputs": [
        {
          "internalType": "uint64",
          "name": "",
          "type": "uint64"
        }
      ],
      "stateMutability": "view",
      "type": "function"
    },
    {
      "inputs": [],
      "name": "matic",
      "outputs": [
        {
          "internalType": "contract IERC20Upgradeable",
          "name": "",
          "type": "address"
        }
      ],
      "stateMutability": "view",
      "type": "function"
    },
    {
      "inputs": [],
      "name": "networkName",
      "outputs": [
        {
          "internalType": "string",
          "name": "",
          "type": "string"
        }
      ],
      "stateMutability": "view",
      "type": "function"
    },
    {
      "inputs": [
        {
          "internalType": "uint64",
          "name": "initPendingStateNum",
          "type": "uint64"
        },
        {
          "internalType": "uint64",
          "name": "finalPendingStateNum",
          "type": "uint64"
        },
        {
          "internalType": "uint64",
          "name": "initNumBatch",
          "type": "uint64"
        },
        {
          "internalType": "uint64",
          "name": "finalNewBatch",
          "type": "uint64"
        },
        {
          "internalType": "bytes32",
          "name": "newLocalExitRoot",
          "type": "bytes32"
        },
        {
          "internalType": "bytes32",
          "name": "newStateRoot",
          "type": "bytes32"
        },
        {
          "internalType": "uint256[2]",
          "name": "proofA",
          "type": "uint256[2]"
        },
        {
          "internalType": "uint256[2][2]",
          "name": "proofB",
          "type": "uint256[2][2]"
        },
        {
          "internalType": "uint256[2]",
          "name": "proofC",
          "type": "uint256[2]"
        }
      ],
      "name": "overridePendingState",
      "outputs": [],
      "stateMutability": "nonpayable",
      "type": "function"
    },
    {
      "inputs": [],
      "name": "owner",
      "outputs": [
        {
          "internalType": "address",
          "name": "",
          "type": "address"
        }
      ],
      "stateMutability": "view",
      "type": "function"
    },
    {
      "inputs": [],
      "name": "pendingStateTimeout",
      "outputs": [
        {
          "internalType": "uint64",
          "name": "",
          "type": "uint64"
        }
      ],
      "stateMutability": "view",
      "type": "function"
    },
    {
      "inputs": [
        {
          "internalType": "uint256",
          "name": "",
          "type": "uint256"
        }
      ],
      "name": "pendingStateTransitions",
      "outputs": [
        {
          "internalType": "uint64",
          "name": "timestamp",
          "type": "uint64"
        },
        {
          "internalType": "uint64",
          "name": "lastVerifiedBatch",
          "type": "uint64"
        },
        {
          "internalType": "bytes32",
          "name": "exitRoot",
          "type": "bytes32"
        },
        {
          "internalType": "bytes32",
          "name": "stateRoot",
          "type": "bytes32"
        }
      ],
      "stateMutability": "view",
      "type": "function"
    },
    {
      "inputs": [
        {
          "internalType": "uint64",
          "name": "initPendingStateNum",
          "type": "uint64"
        },
        {
          "internalType": "uint64",
          "name": "finalPendingStateNum",
          "type": "uint64"
        },
        {
          "internalType": "uint64",
          "name": "initNumBatch",
          "type": "uint64"
        },
        {
          "internalType": "uint64",
          "name": "finalNewBatch",
          "type": "uint64"
        },
        {
          "internalType": "bytes32",
          "name": "newLocalExitRoot",
          "type": "bytes32"
        },
        {
          "internalType": "bytes32",
          "name": "newStateRoot",
          "type": "bytes32"
        },
        {
          "internalType": "uint256[2]",
          "name": "proofA",
          "type": "uint256[2]"
        },
        {
          "internalType": "uint256[2][2]",
          "name": "proofB",
          "type": "uint256[2][2]"
        },
        {
          "internalType": "uint256[2]",
          "name": "proofC",
          "type": "uint256[2]"
        }
      ],
      "name": "proveNonDeterministicPendingState",
      "outputs": [],
      "stateMutability": "nonpayable",
      "type": "function"
    },
    {
      "inputs": [],
      "name": "renounceOwnership",
      "outputs": [],
      "stateMutability": "nonpayable",
      "type": "function"
    },
    {
      "inputs": [],
      "name": "rollupVerifier",
      "outputs": [
        {
          "internalType": "contract IVerifierRollup",
          "name": "",
          "type": "address"
        }
      ],
      "stateMutability": "view",
      "type": "function"
    },
    {
      "inputs": [
        {
          "components": [
            {
              "internalType": "bytes",
              "name": "transactions",
              "type": "bytes"
            },
            {
              "internalType": "bytes32",
              "name": "globalExitRoot",
              "type": "bytes32"
            },
            {
              "internalType": "uint64",
              "name": "timestamp",
              "type": "uint64"
            },
            {
              "internalType": "uint64",
              "name": "minForcedTimestamp",
              "type": "uint64"
            }
          ],
          "internalType": "struct ProofOfEfficiency.BatchData[]",
          "name": "batches",
          "type": "tuple[]"
        }
      ],
      "name": "sequenceBatches",
      "outputs": [],
      "stateMutability": "nonpayable",
      "type": "function"
    },
    {
      "inputs": [
        {
          "components": [
            {
              "internalType": "bytes",
              "name": "transactions",
              "type": "bytes"
            },
            {
              "internalType": "bytes32",
              "name": "globalExitRoot",
              "type": "bytes32"
            },
            {
              "internalType": "uint64",
              "name": "minForcedTimestamp",
              "type": "uint64"
            }
          ],
          "internalType": "struct ProofOfEfficiency.ForcedBatchData[]",
          "name": "batches",
          "type": "tuple[]"
        }
      ],
      "name": "sequenceForceBatches",
      "outputs": [],
      "stateMutability": "nonpayable",
      "type": "function"
    },
    {
      "inputs": [
        {
          "internalType": "uint64",
          "name": "",
          "type": "uint64"
        }
      ],
      "name": "sequencedBatches",
      "outputs": [
        {
          "internalType": "bytes32",
          "name": "accInputHash",
          "type": "bytes32"
        },
        {
          "internalType": "uint64",
          "name": "sequencedTimestamp",
          "type": "uint64"
        }
      ],
      "stateMutability": "view",
      "type": "function"
    },
    {
      "inputs": [
        {
          "internalType": "address",
          "name": "newAdmin",
          "type": "address"
        }
      ],
      "name": "setAdmin",
      "outputs": [],
      "stateMutability": "nonpayable",
      "type": "function"
    },
    {
      "inputs": [
        {
          "internalType": "bool",
          "name": "newForceBatchAllowed",
          "type": "bool"
        }
      ],
      "name": "setForceBatchAllowed",
      "outputs": [],
      "stateMutability": "nonpayable",
      "type": "function"
    },
    {
      "inputs": [
        {
          "internalType": "address",
          "name": "newTrustedAggregator",
          "type": "address"
        }
      ],
      "name": "setTrustedAggregator",
      "outputs": [],
      "stateMutability": "nonpayable",
      "type": "function"
    },
    {
      "inputs": [
        {
          "internalType": "uint64",
          "name": "newTrustedAggregatorTimeout",
          "type": "uint64"
        }
      ],
      "name": "setTrustedAggregatorTimeout",
      "outputs": [],
      "stateMutability": "nonpayable",
      "type": "function"
    },
    {
      "inputs": [
        {
          "internalType": "address",
          "name": "newTrustedSequencer",
          "type": "address"
        }
      ],
      "name": "setTrustedSequencer",
      "outputs": [],
      "stateMutability": "nonpayable",
      "type": "function"
    },
    {
      "inputs": [
        {
          "internalType": "string",
          "name": "newTrustedSequencerURL",
          "type": "string"
        }
      ],
      "name": "setTrustedSequencerURL",
      "outputs": [],
      "stateMutability": "nonpayable",
      "type": "function"
    },
    {
      "inputs": [
        {
          "internalType": "address",
          "name": "newOwner",
          "type": "address"
        }
      ],
      "name": "transferOwnership",
      "outputs": [],
      "stateMutability": "nonpayable",
      "type": "function"
    },
    {
      "inputs": [],
      "name": "trustedAggregator",
      "outputs": [
        {
          "internalType": "address",
          "name": "",
          "type": "address"
        }
      ],
      "stateMutability": "view",
      "type": "function"
    },
    {
      "inputs": [],
      "name": "trustedAggregatorTimeout",
      "outputs": [
        {
          "internalType": "uint64",
          "name": "",
          "type": "uint64"
        }
      ],
      "stateMutability": "view",
      "type": "function"
    },
    {
      "inputs": [],
      "name": "trustedSequencer",
      "outputs": [
        {
          "internalType": "address",
          "name": "",
          "type": "address"
        }
      ],
      "stateMutability": "view",
      "type": "function"
    },
    {
      "inputs": [],
      "name": "trustedSequencerURL",
      "outputs": [
        {
          "internalType": "string",
          "name": "",
          "type": "string"
        }
      ],
      "stateMutability": "view",
      "type": "function"
    },
    {
      "inputs": [
        {
          "internalType": "uint64",
          "name": "pendingStateNum",
          "type": "uint64"
        },
        {
          "internalType": "uint64",
          "name": "initNumBatch",
          "type": "uint64"
        },
        {
          "internalType": "uint64",
          "name": "finalNewBatch",
          "type": "uint64"
        },
        {
          "internalType": "bytes32",
          "name": "newLocalExitRoot",
          "type": "bytes32"
        },
        {
          "internalType": "bytes32",
          "name": "newStateRoot",
          "type": "bytes32"
        },
        {
          "internalType": "uint256[2]",
          "name": "proofA",
          "type": "uint256[2]"
        },
        {
          "internalType": "uint256[2][2]",
          "name": "proofB",
          "type": "uint256[2][2]"
        },
        {
          "internalType": "uint256[2]",
          "name": "proofC",
          "type": "uint256[2]"
        }
      ],
      "name": "trustedVerifyBatches",
      "outputs": [],
      "stateMutability": "nonpayable",
      "type": "function"
    },
    {
      "inputs": [
        {
          "internalType": "uint64",
          "name": "pendingStateNum",
          "type": "uint64"
        },
        {
          "internalType": "uint64",
          "name": "initNumBatch",
          "type": "uint64"
        },
        {
          "internalType": "uint64",
          "name": "finalNewBatch",
          "type": "uint64"
        },
        {
          "internalType": "bytes32",
          "name": "newLocalExitRoot",
          "type": "bytes32"
        },
        {
          "internalType": "bytes32",
          "name": "newStateRoot",
          "type": "bytes32"
        },
        {
          "internalType": "uint256[2]",
          "name": "proofA",
          "type": "uint256[2]"
        },
        {
          "internalType": "uint256[2][2]",
          "name": "proofB",
          "type": "uint256[2][2]"
        },
        {
          "internalType": "uint256[2]",
          "name": "proofC",
          "type": "uint256[2]"
        }
      ],
      "name": "verifyBatches",
      "outputs": [],
      "stateMutability": "nonpayable",
      "type": "function"
    }
  ],
  "bytecode": "0x608060405234801561001057600080fd5b5061565c80620000216000396000f3fe608060405234801561001057600080fd5b50600436106103625760003560e01c80638c4a0af7116101c8578063d8d1091b11610104578063e7a7ed02116100a2578063edc411211161007c578063edc41121146107d8578063f14916d6146107eb578063f2fde38b146107fe578063f851a4401461081157600080fd5b8063e7a7ed0214610798578063e8bf92ed146107b2578063eaeb077b146107c557600080fd5b8063dbc16976116100de578063dbc1697614610774578063e11f3f181461077c578063e217cfd61461078f578063e79171ed1461061a57600080fd5b8063d8d1091b14610733578063d8f54db014610746578063d939b3151461075a57600080fd5b8063b02286c011610171578063c0ed84e01161014b578063c0ed84e0146106eb578063c89e42df146106f3578063cfa8ed4714610706578063d02103ca1461072057600080fd5b8063b02286c01461067d578063b4d63f5814610686578063b6b0b097146106d357600080fd5b8063a3c573eb116101a2578063a3c573eb14610650578063ab9fc5ef1461061a578063adc879e91461066357600080fd5b80638c4a0af7146106245780638da5cb5b1461063757806399f5634e1461064857600080fd5b80635392c5e0116102a25780637215541a116102405780637fcb36531161021a5780637fcb36531461057f578063837a473814610592578063841b24d7146106005780638b48931e1461061a57600080fd5b80637215541a1461055157806375c508b3146105645780637abaf3e61461057757600080fd5b80636b8616ce1161027c5780636b8616ce146105035780636ff512cc14610523578063704b6c0214610536578063715018a61461054957600080fd5b80635392c5e0146104ba578063542028d5146104e857806360943d6a146104f057600080fd5b80633c1582671161030f578063458c0477116102e9578063458c0477146104675780634834a3431461047a5780634a1a89a71461048d5780634a910e6a146104a757600080fd5b80633c15826714610420578063423fa85614610433578063456052671461044d57600080fd5b8063220d789911610340578063220d7899146103cd57806329878983146103e0578063394218e91461040b57600080fd5b8063107bf28c1461036757806315064c961461038557806319d8ac61146103a2575b600080fd5b61036f610824565b60405161037c9190614b92565b60405180910390f35b6065546103929060ff1681565b604051901515815260200161037c565b6068546103b5906001600160401b031681565b6040516001600160401b03909116815260200161037c565b61036f6103db366004614bc8565b6108b2565b606a546103f3906001600160a01b031681565b6040516001600160a01b03909116815260200161037c565b61041e610419366004614c15565b610a75565b005b61041e61042e366004614d52565b610cbe565b6068546103b590600160401b90046001600160401b031681565b6068546103b590600160801b90046001600160401b031681565b6072546103b5906001600160401b031681565b61041e610488366004614e90565b61156e565b6072546103b590600160401b90046001600160401b031681565b61041e6104b5366004614c15565b611889565b6104da6104c8366004614c15565b606d6020526000908152604090205481565b60405190815260200161037c565b61036f611b7a565b61041e6104fe366004614f32565b611b87565b6104da610511366004614c15565b60666020526000908152604090205481565b61041e610531366004615009565b611f11565b61041e610544366004615009565b611feb565b61041e6120a4565b61041e61055f366004614c15565b6120b8565b61041e610572366004615026565b612299565b6104da612389565b6069546103b5906001600160401b031681565b6105d56105a03660046150c4565b6071602052600090815260409020805460018201546002909201546001600160401b0380831693600160401b90930416919084565b604080516001600160401b03958616815294909316602085015291830152606082015260800161037c565b6072546103b590600160c01b90046001600160401b031681565b6103b562093a8081565b61041e6106323660046150eb565b6123df565b6033546001600160a01b03166103f3565b6104da612497565b6070546103f3906001600160a01b031681565b606c546103b590600160a81b90046001600160401b031681565b6104da61ea6081565b6106b6610694366004614c15565b606760205260009081526040902080546001909101546001600160401b031682565b604080519283526001600160401b0390911660208301520161037c565b6065546103f39061010090046001600160a01b031681565b6103b5612591565b61041e610701366004615108565b6125de565b6069546103f390600160401b90046001600160a01b031681565b606c546103f3906001600160a01b031681565b61041e61074136600461513c565b612685565b606c5461039290600160a01b900460ff1681565b6072546103b590600160801b90046001600160401b031681565b61041e612c44565b61041e61078a366004615026565b612d97565b6103b56103e881565b6068546103b590600160c01b90046001600160401b031681565b606b546103f3906001600160a01b031681565b61041e6107d336600461522e565b612f2f565b61041e6107e6366004614e90565b61336e565b61041e6107f9366004615009565b6134f7565b61041e61080c366004615009565b6135b0565b6073546103f3906001600160a01b031681565b606f805461083190615272565b80601f016020809104026020016040519081016040528092919081815260200182805461085d90615272565b80156108aa5780601f1061087f576101008083540402835291602001916108aa565b820191906000526020600020905b81548152906001019060200180831161088d57829003601f168201915b505050505081565b6001600160401b038086166000818152606760205260408082205493881682529020546060929115806108e457508115155b6109695760405162461bcd60e51b815260206004820152604560248201527f50726f6f664f66456666696369656e63793a3a676574496e707574536e61726b60448201527f42797465733a206f6c64416363496e7075744861736820646f6573206e6f7420606482015264195e1a5cdd60da1b608482015260a4015b60405180910390fd5b806109ea5760405162461bcd60e51b815260206004820152604560248201527f50726f6f664f66456666696369656e63793a3a676574496e707574536e61726b60448201527f42797465733a206e6577416363496e7075744861736820646f6573206e6f7420606482015264195e1a5cdd60da1b608482015260a401610960565b606c54604080516bffffffffffffffffffffffff193360601b166020820152603481019790975260548701939093526001600160c01b031960c0998a1b81166074880152600160a81b909104891b8116607c870152608486019490945260a485015260c4840194909452509290931b90911660e4830152805180830360cc01815260ec909201905290565b6073546001600160a01b03163314610ae05760405162461bcd60e51b815260206004820152602860248201527f50726f6f664f66456666696369656e63793a3a6f6e6c7941646d696e3a206f6e604482015267363c9030b236b4b760c11b6064820152608401610960565b60725462093a80600160c01b9091046001600160401b03161115610b925760405162461bcd60e51b815260206004820152605560248201527f50726f6f664f66456666696369656e63793a3a7365745472757374656441676760448201527f72656761746f7254696d656f75743a20657863656564206d617820747275737460648201527f65642061676772656761746f722074696d656f75740000000000000000000000608482015260a401610960565b60655460ff16610c4d576072546001600160401b03600160c01b909104811690821610610c4d5760405162461bcd60e51b815260206004820152604960248201527f50726f6f664f66456666696369656e63793a3a7365745472757374656441676760448201527f72656761746f7254696d656f75743a206e65772074696d656f7574206d75737460648201527f206265206c6f7765720000000000000000000000000000000000000000000000608482015260a401610960565b6072805477ffffffffffffffffffffffffffffffffffffffffffffffff16600160c01b6001600160401b038481168202929092179283905560405192041681527f1f4fa24c2e4bad19a7f3ec5c5485f70d46c798461c2e684f55bbd0fc661373a1906020015b60405180910390a150565b60655460ff1615610d425760405162461bcd60e51b815260206004820152604260248201527f456d657267656e63794d616e616765723a3a69664e6f74456d657267656e637960448201527f53746174653a206f6e6c79206966206e6f7420656d657267656e637920737461606482015261746560f01b608482015260a401610960565b606954600160401b90046001600160a01b03163314610dc95760405162461bcd60e51b815260206004820152603f60248201527f50726f6f664f66456666696369656e63793a3a6f6e6c7954727573746564536560448201527f7175656e6365723a206f6e6c7920747275737465642073657175656e636572006064820152608401610960565b805180610e495760405162461bcd60e51b815260206004820152604260248201527f50726f6f664f66456666696369656e63793a3a73657175656e6365426174636860448201527f65733a204174206c65617374206d7573742073657175656e63652031206261746064820152610c6d60f31b608482015260a401610960565b6068546001600160401b03600160401b82048116600081815260676020526040812054838516949293600160801b90930490921691905b85811015611398576000878281518110610e9c57610e9c6152ac565b60200260200101519050600081606001516001600160401b0316111561107e5783610ec6816152d8565b945050600081600001518051906020012082602001518360600151604051602001610f1193929190928352602083019190915260c01b6001600160c01b031916604082015260480190565b60408051601f1981840301815291815281516020928301206001600160401b038816600090815260669093529120549091508114610fc25760405162461bcd60e51b815260206004820152604260248201527f50726f6f664f66456666696369656e63793a3a73657175656e6365426174636860448201527f65733a20466f7263656420626174636865732064617461206d757374206d61746064820152610c6d60f31b608482015260a401610960565b81606001516001600160401b031682604001516001600160401b031610156110785760405162461bcd60e51b815260206004820152605d60248201527f50726f6f664f66456666696369656e63793a3a73657175656e6365426174636860448201527f65733a20466f7263656420626174636865732074696d657374616d70206d757360648201527f7420626520626967676572206f7220657175616c207468616e206d696e000000608482015260a401610960565b50611231565b602081015115806111205750606c5460208201516040517f257b36320000000000000000000000000000000000000000000000000000000081526001600160a01b039092169163257b3632916110da9160040190815260200190565b6020604051808303816000875af11580156110f9573d6000803e3d6000fd5b505050506040513d601f19601f8201168201806040525081019061111d91906152fe565b15155b6111925760405162461bcd60e51b815260206004820152603f60248201527f50726f6f664f66456666696369656e63793a3a73657175656e6365426174636860448201527f65733a20476c6f62616c206578697420726f6f74206d757374206578697374006064820152608401610960565b80515161ea60116112315760405162461bcd60e51b815260206004820152604a60248201527f50726f6f664f664566666963696550656e64696e67537461746563793a3a736560448201527f7175656e6365426174636865733a205472616e73616374696f6e73206279746560648201527f73206f766572666c6f7700000000000000000000000000000000000000000000608482015260a401610960565b856001600160401b031681604001516001600160401b03161015801561126457504281604001516001600160401b031611155b6112fc5760405162461bcd60e51b815260206004820152604260248201527f50726f6f664f66456666696369656e63793a3a73657175656e6365426174636860448201527f65733a2054696d657374616d70206d75737420626520696e736964652072616e60648201527f6765000000000000000000000000000000000000000000000000000000000000608482015260a401610960565b805180516020918201208183015160408085015181519485018890529084019290925260608084019190915260c09190911b6001600160c01b031916608083015233901b6bffffffffffffffffffffffff19166088820152609c01604051602081830303815290604052805190602001209250848061137a906152d8565b9550508060400151955050808061139090615317565b915050610e80565b506068546001600160401b03600160c01b909104811690831611156114255760405162461bcd60e51b815260206004820152603a60248201527f50726f6f664f66456666696369656e63793a3a73657175656e6365426174636860448201527f65733a20466f7263652062617463686573206f766572666c6f770000000000006064820152608401610960565b60685460009061144590600160801b90046001600160401b031684615330565b611458906001600160401b031687615358565b606880546001600160401b03868116600160801b0267ffffffffffffffff60801b19898316600160401b81026fffffffffffffffffffffffffffffffff19909516848d1617949094171617909255604080518082018252868152428416602080830191825260009485526067905291909220915182555160019190910180549190921667ffffffffffffffff1991909116179055905061151f3330836114fc612389565b611506919061536f565b60655461010090046001600160a01b031692919061363d565b6115276136ee565b606854604051600160401b9091046001600160401b0316907f303446e6a8cb73c83dff421c0b1d5e5ce0719dab1bff13660fc254e58cc17fce90600090a250505050505050565b60655460ff16156115f25760405162461bcd60e51b815260206004820152604260248201527f456d657267656e63794d616e616765723a3a69664e6f74456d657267656e637960448201527f53746174653a206f6e6c79206966206e6f7420656d657267656e637920737461606482015261746560f01b608482015260a401610960565b6072546001600160401b03878116600090815260676020526040902060010154429261162992600160c01b9091048116911661538e565b6001600160401b031611156116cc5760405162461bcd60e51b815260206004820152604860248201527f50726f6f664f66456666696369656e63793a3a7665726966794261746368657360448201527f3a20747275737465642061676772656761746f722074696d656f7574206e6f7460648201527f2065787069726564000000000000000000000000000000000000000000000000608482015260a401610960565b6103e86116d98888615330565b6001600160401b03161061177b5760405162461bcd60e51b815260206004820152604160248201527f50726f6f664f66456666696369656e63793a3a7665726966794261746368657360448201527f3a2063616e6e6f74207665726966792074686174206d616e792062617463686560648201527f7300000000000000000000000000000000000000000000000000000000000000608482015260a401610960565b61178b88888888888888886137fa565b6117936136ee565b607280546001600160401b03169060006117ac836152d8565b82546001600160401b039182166101009390930a92830292820219169190911790915560408051608081018252428316815289831660208083018281528385018c8152606085018c8152607254881660009081526071909452928690209451855492518816600160401b026fffffffffffffffffffffffffffffffff19909316971696909617178355935160018301559251600290910155513392507f9c72852172521097ba7e1482e6b44b351323df0155f97f4ea18fcec28e1f5966906118779088815260200190565b60405180910390a35050505050505050565b6001600160401b038116158015906118b657506072546001600160401b03600160401b9091048116908216115b80156118d157506072546001600160401b0390811690821611155b6119695760405162461bcd60e51b815260206004820152604860248201527f50726f6f664f66456666696369656e63793a3a636f6e736f6c6964617465506560448201527f6e64696e6753746174653a2070656e64696e6753746174654e756d206d75737460648201527f20696e76616c6964000000000000000000000000000000000000000000000000608482015260a401610960565b6001600160401b0381166000908152607160205260409020606a546001600160a01b03163314611a5a57607254815442916119b7916001600160401b03600160801b9092048216911661538e565b6001600160401b03161115611a5a5760405162461bcd60e51b815260206004820152605960248201527f50726f6f664f66456666696369656e63793a3a636f6e736f6c6964617465506560448201527f6e64696e6753746174653a2070656e64696e67207374617465206973206e6f7460648201527f20726561647920746f20626520636f6e736f6c69646174656400000000000000608482015260a401610960565b805460698054600160401b928390046001600160401b0390811667ffffffffffffffff19909216821790925560028401546000828152606d60205260409081902091909155607280546fffffffffffffffff0000000000000000191693871690940292909217909255606c54600184015491516333d6247d60e01b815260048101929092526001600160a01b0316906333d6247d90602401600060405180830381600087803b158015611b0c57600080fd5b505af1158015611b20573d6000803e3d6000fd5b50505050336001600160a01b0316816001600160401b03167f01f7d32e3b3278bace940a581067c87090c1aa09809730dd4ca002320c3a3cfa8460020154604051611b6d91815260200190565b60405180910390a3505050565b606e805461083190615272565b600054610100900460ff1615808015611ba75750600054600160ff909116105b80611bc15750303b158015611bc1575060005460ff166001145b611c335760405162461bcd60e51b815260206004820152602e60248201527f496e697469616c697a61626c653a20636f6e747261637420697320616c72656160448201527f647920696e697469616c697a65640000000000000000000000000000000000006064820152608401610960565b6000805460ff191660011790558015611c56576000805461ff0019166101001790555b606c80546001600160a01b03199081166001600160a01b038c811691909117909255606580547fffffffffffffffffffffff0000000000000000000000000000000000000000ff166101008c851602179055606b805482168a841617905560708054909116918816919091179055611cd16020860186615009565b607380546001600160a01b0319166001600160a01b0392909216919091179055611d016060860160408701615009565b606980546001600160a01b0392909216600160401b027fffffffff0000000000000000000000000000000000000000ffffffffffffffff909216919091179055611d5160c0860160a08701615009565b606a80546001600160a01b0319166001600160a01b039290921691909117905560008052606d6020527fda90043ba5b4096ba14704bc227ab0d3167da15b887e62ab2e76e37daa711356849055611dae60e0860160c08701614c15565b607280546001600160401b0392909216600160c01b0277ffffffffffffffffffffffffffffffffffffffffffffffff909216919091179055611df66040860160208701614c15565b606c80546001600160401b0392909216600160a81b027fffffff0000000000000000ffffffffffffffffffffffffffffffffffffffffff909216919091179055611e466080860160608701614c15565b607280546001600160401b0392909216600160801b0267ffffffffffffffff60801b19909216919091179055611e8260a08601608087016150eb565b606c8054911515600160a01b0260ff60a01b19909216919091179055606e611eaa8482615407565b50606f611eb78382615407565b50611ec0613d7f565b8015611f06576000805461ff0019169055604051600181527f7f26b83ff96e1f2b6a682f133852f6798a09c465da95921460cefb38474024989060200160405180910390a15b505050505050505050565b6073546001600160a01b03163314611f7c5760405162461bcd60e51b815260206004820152602860248201527f50726f6f664f66456666696369656e63793a3a6f6e6c7941646d696e3a206f6e604482015267363c9030b236b4b760c11b6064820152608401610960565b606980547fffffffff0000000000000000000000000000000000000000ffffffffffffffff16600160401b6001600160a01b038416908102919091179091556040519081527ff54144f9611984021529f814a1cb6a41e22c58351510a0d9f7e822618abb9cc090602001610cb3565b6073546001600160a01b031633146120565760405162461bcd60e51b815260206004820152602860248201527f50726f6f664f66456666696369656e63793a3a6f6e6c7941646d696e3a206f6e604482015267363c9030b236b4b760c11b6064820152608401610960565b607380546001600160a01b0319166001600160a01b0383169081179091556040519081527f5a272403b402d892977df56625f4164ccaf70ca3863991c43ecfe76a6905b0a190602001610cb3565b6120ac613e05565b6120b66000613e5f565b565b6033546001600160a01b0316331461228e576072546000906001600160401b03161561210957506072546001600160401b03908116600090815260716020526040902054600160401b900416612117565b506069546001600160401b03165b80826001600160401b0316116121bb5760405162461bcd60e51b815260206004820152604160248201527f50726f6f664f66456666696369656e63793a3a6163746976617465456d65726760448201527f656e637953746174653a20426174636820616c7265616479207665726966696560648201527f6400000000000000000000000000000000000000000000000000000000000000608482015260a401610960565b6001600160401b0380831660009081526067602052604090206001015442916121e99162093a80911661538e565b6001600160401b0316111561228c5760405162461bcd60e51b815260206004820152605260248201527f50726f6f664f66456666696369656e63793a3a6163746976617465456d65726760448201527f656e637953746174653a206167677265676174696f6e2068616c742074696d6560648201527f6f7574206973206e6f7420657870697265640000000000000000000000000000608482015260a401610960565b505b612296613eb1565b50565b60655460ff161561231d5760405162461bcd60e51b815260206004820152604260248201527f456d657267656e63794d616e616765723a3a69664e6f74456d657267656e637960448201527f53746174653a206f6e6c79206966206e6f7420656d657267656e637920737461606482015261746560f01b608482015260a401610960565b61232e898989898989898989613f21565b6001600160401b0386166000908152606d60209081526040918290205482519081529081018690527f1f44c21118c4603cfb4e1b621dbcfa2b73efcececee2b99b620b2953d33a7010910160405180910390a1611f06613eb1565b6068546000906001600160401b03600160801b82048116916123b591600160c01b90910416600161538e565b6123bf9190615330565b6123da906001600160401b0316670de0b6b3a764000061536f565b905090565b6073546001600160a01b0316331461244a5760405162461bcd60e51b815260206004820152602860248201527f50726f6f664f66456666696369656e63793a3a6f6e6c7941646d696e3a206f6e604482015267363c9030b236b4b760c11b6064820152608401610960565b606c8054821515600160a01b0260ff60a01b199091161790556040517fbacda50a4a8575be1d91a7ebe29ee45056f3a94f12a2281eb6b43afa33bcefe690610cb390831515815260200190565b6065546040517f70a0823100000000000000000000000000000000000000000000000000000000815230600482015260009182916101009091046001600160a01b0316906370a0823190602401602060405180830381865afa158015612501573d6000803e3d6000fd5b505050506040513d601f19601f8201168201806040525081019061252591906152fe565b90506000612531612591565b6068546001600160401b03600160401b820481169161256191600160801b8204811691600160c01b900416615330565b61256b919061538e565b6125759190615330565b6001600160401b0316905061258a81836154dc565b9250505090565b6072546000906001600160401b0316156125ce57506072546001600160401b03908116600090815260716020526040902054600160401b90041690565b506069546001600160401b031690565b6073546001600160a01b031633146126495760405162461bcd60e51b815260206004820152602860248201527f50726f6f664f66456666696369656e63793a3a6f6e6c7941646d696e3a206f6e604482015267363c9030b236b4b760c11b6064820152608401610960565b606e6126558282615407565b507f6b8f723a4c7a5335cafae8a598a0aa0301be1387c037dccc085b62add6448b2081604051610cb39190614b92565b60655460ff16156127095760405162461bcd60e51b815260206004820152604260248201527f456d657267656e63794d616e616765723a3a69664e6f74456d657267656e637960448201527f53746174653a206f6e6c79206966206e6f7420656d657267656e637920737461606482015261746560f01b608482015260a401610960565b606c54600160a01b900460ff16151560011461279e5760405162461bcd60e51b815260206004820152604860248201527f50726f6f664f66456666696369656e63793a3a6973466f72636542617463684160448201527f6c6c6f7765643a206f6e6c7920696620666f72636520626174636820697320616064820152677661696c61626c6560c01b608482015260a401610960565b80518061281e5760405162461bcd60e51b815260206004820152604260248201527f50726f6f664f66456666696369656e63793a3a73657175656e6365466f72636560448201527f42617463683a204d75737420666f726365206174206c656173742031206261746064820152610c6d60f31b608482015260a401610960565b6068546001600160401b03600160c01b8204811691612846918491600160801b9004166154f0565b11156128ba5760405162461bcd60e51b815260206004820152603a60248201527f50726f6f664f66456666696369656e63793a3a73657175656e6365466f72636560448201527f42617463683a20466f72636520626174636820696e76616c69640000000000006064820152608401610960565b6068546001600160401b03600160401b820481166000818152606760205260408120549193600160801b9004909216915b84811015612b7b576000868281518110612907576129076152ac565b60200260200101519050838061291c906152d8565b825180516020918201208185015160408087015181519485019390935283015260c01b6001600160c01b03191660608201529095506000915060680160408051601f1981840301815291815281516020928301206001600160401b038816600090815260669093529120549091508114612a245760405162461bcd60e51b815260206004820152604760248201527f50726f6f664f66456666696369656e63793a3a73657175656e6365466f72636560448201527f426174636865733a20466f7263656420626174636865732064617461206d757360648201527f74206d6174636800000000000000000000000000000000000000000000000000608482015260a401610960565b612a2f600188615358565b8303612aec574262093a808360400151612a49919061538e565b6001600160401b03161115612aec5760405162461bcd60e51b815260206004820152604c60248201527f50726f6f664f66456666696369656e63793a3a73657175656e6365466f72636560448201527f42617463683a20466f72636564206261746368206973206e6f7420696e20746960648201527f6d656f757420706572696f640000000000000000000000000000000000000000608482015260a401610960565b8151805160209182012081840151604080519384018890528301919091526060808301919091524260c01b6001600160c01b031916608083015233901b6bffffffffffffffffffffffff19166088820152609c016040516020818303038152906040528051906020012093508580612b63906152d8565b96505050508080612b7390615317565b9150506128eb565b5060688054426001600160401b039081166fffffffffffffffffffffffffffffffff199092168217600160401b8783168181029290921767ffffffffffffffff60801b1916600160801b888516021785556040805180820182528781526020808201968752600094855260679052818420905181559451600195909501805467ffffffffffffffff191695851695909517909455935492519390920416917f648a61dd2438f072f5a1960939abd30f37aea80d2e94c9792ad142d3e0a490a49190a25050505050565b60655460ff16612cbc5760405162461bcd60e51b815260206004820152603b60248201527f456d657267656e63794d616e616765723a3a6966456d657267656e637953746160448201527f74653a206f6e6c7920696620656d657267656e637920737461746500000000006064820152608401610960565b6073546001600160a01b03163314612d275760405162461bcd60e51b815260206004820152602860248201527f50726f6f664f66456666696369656e63793a3a6f6e6c7941646d696e3a206f6e604482015267363c9030b236b4b760c11b6064820152608401610960565b607060009054906101000a90046001600160a01b03166001600160a01b031663dbc169766040518163ffffffff1660e01b8152600401600060405180830381600087803b158015612d7757600080fd5b505af1158015612d8b573d6000803e3d6000fd5b505050506120b66146f7565b606a546001600160a01b03163314612e215760405162461bcd60e51b815260206004820152604160248201527f50726f6f664f66456666696369656e63793a3a6f6e6c7954727573746564416760448201527f6772656761746f723a206f6e6c7920747275737465642041676772656761746f6064820152603960f91b608482015260a401610960565b612e32898989898989898989613f21565b6069805467ffffffffffffffff19166001600160401b038881169182179092556000908152606d602052604090208590556072541615612e8657607280546fffffffffffffffffffffffffffffffff191690555b606c546040516333d6247d60e01b8152600481018790526001600160a01b03909116906333d6247d90602401600060405180830381600087803b158015612ecc57600080fd5b505af1158015612ee0573d6000803e3d6000fd5b50506040518681523392506001600160401b03891691507fcc1b5520188bf1dd3e63f98164b577c4d75c11a619ddea692112f0d1aec4cf729060200160405180910390a3505050505050505050565b60655460ff1615612fb35760405162461bcd60e51b815260206004820152604260248201527f456d657267656e63794d616e616765723a3a69664e6f74456d657267656e637960448201527f53746174653a206f6e6c79206966206e6f7420656d657267656e637920737461606482015261746560f01b608482015260a401610960565b606c54600160a01b900460ff1615156001146130485760405162461bcd60e51b815260206004820152604860248201527f50726f6f664f66456666696369656e63793a3a6973466f72636542617463684160448201527f6c6c6f7765643a206f6e6c7920696620666f72636520626174636820697320616064820152677661696c61626c6560c01b608482015260a401610960565b6000613052612389565b9050818111156130ca5760405162461bcd60e51b815260206004820152602f60248201527f50726f6f664f66456666696369656e63793a3a666f72636542617463683a206e60448201527f6f7420656e6f756768206d6174696300000000000000000000000000000000006064820152608401610960565b61ea608351106131425760405162461bcd60e51b815260206004820152603a60248201527f50726f6f664f66456666696369656e63793a3a666f72636542617463683a205460448201527f72616e73616374696f6e73206279746573206f766572666c6f770000000000006064820152608401610960565b60655461315f9061010090046001600160a01b031633308461363d565b606c54604080517f3ed691ef00000000000000000000000000000000000000000000000000000000815290516000926001600160a01b031691633ed691ef9160048083019260209291908290030181865afa1580156131c2573d6000803e3d6000fd5b505050506040513d601f19601f820116820180604052508101906131e691906152fe565b60688054919250600160c01b9091046001600160401b031690601861320a836152d8565b91906101000a8154816001600160401b0302191690836001600160401b03160217905550508380519060200120814260405160200161326993929190928352602083019190915260c01b6001600160c01b031916604082015260480190565b60408051808303601f190181529181528151602092830120606854600160c01b90046001600160401b03166000908152606690935291205532330361330d57606854604080518381523360208201526060918101829052600091810191909152600160c01b9091046001600160401b0316907ff94bb37db835f1ab585ee00041849a09b12cd081d77fa15ca070757619cbc9319060800160405180910390a2613368565b606860189054906101000a90046001600160401b03166001600160401b03167ff94bb37db835f1ab585ee00041849a09b12cd081d77fa15ca070757619cbc93182338760405161335f93929190615508565b60405180910390a25b50505050565b606a546001600160a01b031633146133f85760405162461bcd60e51b815260206004820152604160248201527f50726f6f664f66456666696369656e63793a3a6f6e6c7954727573746564416760448201527f6772656761746f723a206f6e6c7920747275737465642041676772656761746f6064820152603960f91b608482015260a401610960565b61340888888888888888886137fa565b6069805467ffffffffffffffff19166001600160401b038881169182179092556000908152606d60205260409020859055607254161561345c57607280546fffffffffffffffffffffffffffffffff191690555b606c546040516333d6247d60e01b8152600481018790526001600160a01b03909116906333d6247d90602401600060405180830381600087803b1580156134a257600080fd5b505af11580156134b6573d6000803e3d6000fd5b50506040518681523392506001600160401b03891691507f0c0ce073a7d7b5850c04ccc4b20ee7d3179d5f57d0ac44399565792c0f72fce790602001611877565b6073546001600160a01b031633146135625760405162461bcd60e51b815260206004820152602860248201527f50726f6f664f66456666696369656e63793a3a6f6e6c7941646d696e3a206f6e604482015267363c9030b236b4b760c11b6064820152608401610960565b606a80546001600160a01b0319166001600160a01b0383169081179091556040519081527f61f8fec29495a3078e9271456f05fb0707fd4e41f7661865f80fc437d06681ca90602001610cb3565b6135b8613e05565b6001600160a01b0381166136345760405162461bcd60e51b815260206004820152602660248201527f4f776e61626c653a206e6577206f776e657220697320746865207a65726f206160448201527f64647265737300000000000000000000000000000000000000000000000000006064820152608401610960565b61229681613e5f565b6040516001600160a01b03808516602483015283166044820152606481018290526133689085907f23b872dd00000000000000000000000000000000000000000000000000000000906084015b60408051601f198184030181529190526020810180517bffffffffffffffffffffffffffffffffffffffffffffffffffffffff167fffffffff00000000000000000000000000000000000000000000000000000000909316929092179091526147a4565b6072546001600160401b03600160401b82048116911611156120b65760725460009061372b90600160401b90046001600160401b0316600161538e565b6072546001600160401b03808316600090815260716020526040902054929350429261376192600160801b90048216911661538e565b6001600160401b0316116122965760725460009060029061378c9084906001600160401b0316615330565b6137969190615539565b6137a0908361538e565b6072546001600160401b0380831660009081526071602052604090205492935042926137d692600160801b90048216911661538e565b6001600160401b0316116137f1576137ed81611889565b5050565b6137ed82611889565b600080613805612591565b90506001600160401b038a1615613991576072546001600160401b03908116908b1611156138c15760405162461bcd60e51b815260206004820152605d60248201527f50726f6f664f66456666696369656e63793a3a7665726966794261746368657360448201527f3a2070656e64696e6753746174654e756d206d757374206265206c657373206f60648201527f7220657175616c207468616e206c61737450656e64696e675374617465000000608482015260a401610960565b6001600160401b03808b1660009081526071602052604090206002810154815490945090918b8116600160401b909204161461398b5760405162461bcd60e51b815260206004820152605160248201527f50726f6f664f66456666696369656e63793a3a7665726966794261746368657360448201527f3a20696e69744e756d4261746368206d757374206d617463682074686520706560648201527f6e64696e67207374617465206261746368000000000000000000000000000000608482015260a401610960565b50613afe565b6001600160401b0389166000908152606d6020526040902054915081613a455760405162461bcd60e51b815260206004820152604860248201527f50726f6f664f66456666696369656e63793a3a7665726966794261746368657360448201527f3a20696e69744e756d426174636820737461746520726f6f7420646f6573206e60648201527f6f74206578697374000000000000000000000000000000000000000000000000608482015260a401610960565b806001600160401b0316896001600160401b03161115613afe5760405162461bcd60e51b815260206004820152606260248201527f50726f6f664f66456666696369656e63793a3a7665726966794261746368657360448201527f3a20696e69744e756d4261746368206d757374206265206c657373206f72206560648201527f7175616c207468616e2063757272656e744c61737456657269666965644261746084820152610c6d60f31b60a482015260c401610960565b806001600160401b0316886001600160401b031611613bab5760405162461bcd60e51b815260206004820152605c60248201527f50726f6f664f66456666696369656e63793a3a7665726966794261746368657360448201527f3a2066696e616c4e65774261746368206d75737420626520626967676572207460648201527f68616e2063757272656e744c6173745665726966696564426174636800000000608482015260a401610960565b6000613bba8a8a8a868b6108b2565b905060007f30644e72e131a029b85045b68181585d2833e84879b9709143e1f593f0000001600283604051613bef919061555f565b602060405180830381855afa158015613c0c573d6000803e3d6000fd5b5050506040513d601f19601f82011682018060405250810190613c2f91906152fe565b613c39919061557b565b606b546040805160208101825283815290516343753b4d60e01b81529293506001600160a01b03909116916343753b4d91613c7d918b918b918b919060040161558f565b602060405180830381865afa158015613c9a573d6000803e3d6000fd5b505050506040513d601f19601f82011682018060405250810190613cbe9190615609565b613d305760405162461bcd60e51b815260206004820152602f60248201527f50726f6f664f66456666696369656e63793a3a7665726966794261746368657360448201527f3a20494e56414c49445f50524f4f4600000000000000000000000000000000006064820152608401610960565b613d7133613d3e858d615330565b6001600160401b0316613d4f612497565b613d59919061536f565b60655461010090046001600160a01b0316919061488e565b505050505050505050505050565b600054610100900460ff16613dfc5760405162461bcd60e51b815260206004820152602b60248201527f496e697469616c697a61626c653a20636f6e7472616374206973206e6f74206960448201527f6e697469616c697a696e670000000000000000000000000000000000000000006064820152608401610960565b6120b633613e5f565b6033546001600160a01b031633146120b65760405162461bcd60e51b815260206004820181905260248201527f4f776e61626c653a2063616c6c6572206973206e6f7420746865206f776e65726044820152606401610960565b603380546001600160a01b038381166001600160a01b0319831681179093556040519116919082907f8be0079c531659141344cd1fd0a4f28419497f9722a3daafe3b4186f6b6457e090600090a35050565b607060009054906101000a90046001600160a01b03166001600160a01b0316632072f6c56040518163ffffffff1660e01b8152600401600060405180830381600087803b158015613f0157600080fd5b505af1158015613f15573d6000803e3d6000fd5b505050506120b66148d7565b60006001600160401b038a16156140f7576072546001600160401b03908116908b1611156140035760405162461bcd60e51b815260206004820152607160248201527f50726f6f664f66456666696369656e63793a3a70726f76654e6f6e446574657260448201527f6d696e697374696350656e64696e6753746174653a2070656e64696e6753746160648201527f74654e756d206d757374206265206c657373206f7220657175616c207468616e60848201527f206c61737450656e64696e67537461746500000000000000000000000000000060a482015260c401610960565b506001600160401b03808a1660009081526071602052604090206002810154815490928a8116600160401b90920416146140f15760405162461bcd60e51b815260206004820152606560248201527f50726f6f664f66456666696369656e63793a3a70726f76654e6f6e446574657260448201527f6d696e697374696350656e64696e6753746174653a20696e69744e756d42617460648201527f6368206d757374206d61746368207468652070656e64696e672073746174652060848201527f626174636800000000000000000000000000000000000000000000000000000060a482015260c401610960565b5061427b565b506001600160401b0387166000908152606d6020526040902054806141aa5760405162461bcd60e51b815260206004820152605c60248201527f50726f6f664f66456666696369656e63793a3a70726f76654e6f6e446574657260448201527f6d696e697374696350656e64696e6753746174653a20696e69744e756d42617460648201527f636820737461746520726f6f7420646f6573206e6f7420657869737400000000608482015260a401610960565b6069546001600160401b03908116908916111561427b5760405162461bcd60e51b815260206004820152607660248201527f50726f6f664f66456666696369656e63793a3a70726f76654e6f6e446574657260448201527f6d696e697374696350656e64696e6753746174653a20696e69744e756d42617460648201527f6368206d757374206265206c657373206f7220657175616c207468616e20637560848201527f7272656e744c617374566572696669656442617463680000000000000000000060a482015260c401610960565b6072546001600160401b03908116908a16118015906142ab5750896001600160401b0316896001600160401b0316115b80156142cc57506072546001600160401b03600160401b9091048116908a16115b61438a5760405162461bcd60e51b815260206004820152607060248201527f50726f6f664f66456666696369656e63793a3a70726f76654e6f6e446574657260448201527f6d696e697374696350656e64696e6753746174653a2066696e616c4e6577426160648201527f746368206d75737420626520626967676572207468616e2063757272656e744c60848201527f617374566572696669656442617463680000000000000000000000000000000060a482015260c401610960565b6001600160401b03898116600090815260716020526040902054600160401b900481169088161461446f5760405162461bcd60e51b815260206004820152607060248201527f50726f6f664f66456666696369656e63793a3a70726f76654e6f6e446574657260448201527f6d696e697374696350656e64696e6753746174653a2066696e616c4e6577426160648201527f746368206d75737420626520626967676572207468616e2063757272656e744c60848201527f617374566572696669656442617463680000000000000000000000000000000060a482015260c401610960565b600061447e898989858a6108b2565b905060007f30644e72e131a029b85045b68181585d2833e84879b9709143e1f593f00000016002836040516144b3919061555f565b602060405180830381855afa1580156144d0573d6000803e3d6000fd5b5050506040513d601f19601f820116820180604052508101906144f391906152fe565b6144fd919061557b565b606b546040805160208101825283815290516343753b4d60e01b81529293506001600160a01b03909116916343753b4d91614541918a918a918a919060040161558f565b602060405180830381865afa15801561455e573d6000803e3d6000fd5b505050506040513d601f19601f820116820180604052508101906145829190615609565b61461a5760405162461bcd60e51b815260206004820152604360248201527f50726f6f664f66456666696369656e63793a3a70726f76654e6f6e446574657260448201527f6d696e697374696350656e64696e6753746174653a20494e56414c49445f505260648201527f4f4f460000000000000000000000000000000000000000000000000000000000608482015260a401610960565b6001600160401b038b16600090815260716020526040902060020154879003613d715760405162461bcd60e51b815260206004820152606760248201527f50726f6f664f66456666696369656e63793a3a70726f76654e6f6e446574657260448201527f6d696e697374696350656e64696e6753746174653a2073746f72656420726f6f60648201527f74206d75737420626520646966666572656e74207468616e206e65772073746160848201527f746520726f6f740000000000000000000000000000000000000000000000000060a482015260c401610960565b60655460ff1661476f5760405162461bcd60e51b815260206004820152603b60248201527f456d657267656e63794d616e616765723a3a6966456d657267656e637953746160448201527f74653a206f6e6c7920696620656d657267656e637920737461746500000000006064820152608401610960565b6065805460ff191690556040517f1e5e34eea33501aecf2ebec9fe0e884a40804275ea7fe10b2ba084c8374308b390600090a1565b60006147f9826040518060400160405280602081526020017f5361666545524332303a206c6f772d6c6576656c2063616c6c206661696c6564815250856001600160a01b03166149939092919063ffffffff16565b80519091501561488957808060200190518101906148179190615609565b6148895760405162461bcd60e51b815260206004820152602a60248201527f5361666545524332303a204552433230206f7065726174696f6e20646964206e60448201527f6f742073756363656564000000000000000000000000000000000000000000006064820152608401610960565b505050565b6040516001600160a01b0383166024820152604481018290526148899084907fa9059cbb000000000000000000000000000000000000000000000000000000009060640161368a565b60655460ff161561495b5760405162461bcd60e51b815260206004820152604260248201527f456d657267656e63794d616e616765723a3a69664e6f74456d657267656e637960448201527f53746174653a206f6e6c79206966206e6f7420656d657267656e637920737461606482015261746560f01b608482015260a401610960565b6065805460ff191660011790556040517f2261efe5aef6fedc1fd1550b25facc9181745623049c7901287030b9ad1a549790600090a1565b60606149a284846000856149aa565b949350505050565b606082471015614a225760405162461bcd60e51b815260206004820152602660248201527f416464726573733a20696e73756666696369656e742062616c616e636520666f60448201527f722063616c6c00000000000000000000000000000000000000000000000000006064820152608401610960565b600080866001600160a01b03168587604051614a3e919061555f565b60006040518083038185875af1925050503d8060008114614a7b576040519150601f19603f3d011682016040523d82523d6000602084013e614a80565b606091505b5091509150614a9187838387614a9c565b979650505050505050565b60608315614b0b578251600003614b04576001600160a01b0385163b614b045760405162461bcd60e51b815260206004820152601d60248201527f416464726573733a2063616c6c20746f206e6f6e2d636f6e74726163740000006044820152606401610960565b50816149a2565b6149a28383815115614b205781518083602001fd5b8060405162461bcd60e51b81526004016109609190614b92565b60005b83811015614b55578181015183820152602001614b3d565b838111156133685750506000910152565b60008151808452614b7e816020860160208601614b3a565b601f01601f19169290920160200192915050565b602081526000614ba56020830184614b66565b9392505050565b80356001600160401b0381168114614bc357600080fd5b919050565b600080600080600060a08688031215614be057600080fd5b614be986614bac565b9450614bf760208701614bac565b94979496505050506040830135926060810135926080909101359150565b600060208284031215614c2757600080fd5b614ba582614bac565b634e487b7160e01b600052604160045260246000fd5b604051608081016001600160401b0381118282101715614c6857614c68614c30565b60405290565b604051606081016001600160401b0381118282101715614c6857614c68614c30565b604051601f8201601f191681016001600160401b0381118282101715614cb857614cb8614c30565b604052919050565b60006001600160401b03821115614cd957614cd9614c30565b5060051b60200190565b600082601f830112614cf457600080fd5b81356001600160401b03811115614d0d57614d0d614c30565b614d20601f8201601f1916602001614c90565b818152846020838601011115614d3557600080fd5b816020850160208301376000918101602001919091529392505050565b60006020808385031215614d6557600080fd5b82356001600160401b0380821115614d7c57600080fd5b818501915085601f830112614d9057600080fd5b8135614da3614d9e82614cc0565b614c90565b81815260059190911b83018401908481019088831115614dc257600080fd5b8585015b83811015614e5b57803585811115614dde5760008081fd5b86016080818c03601f1901811315614df65760008081fd5b614dfe614c46565b8983013588811115614e105760008081fd5b614e1e8e8c83870101614ce3565b8252506040808401358b8301526060614e38818601614bac565b82840152614e47848601614bac565b908301525085525050918601918601614dc6565b5098975050505050505050565b8060408101831015614e7957600080fd5b92915050565b8060808101831015614e7957600080fd5b6000806000806000806000806101a0898b031215614ead57600080fd5b614eb689614bac565b9750614ec460208a01614bac565b9650614ed260408a01614bac565b95506060890135945060808901359350614eef8a60a08b01614e68565b9250614efe8a60e08b01614e7f565b9150614f0e8a6101608b01614e68565b90509295985092959890939650565b6001600160a01b038116811461229657600080fd5b600080600080600080600080888a036101c0811215614f5057600080fd5b8935614f5b81614f1d565b985060208a0135614f6b81614f1d565b975060408a0135614f7b81614f1d565b965060608a0135614f8b81614f1d565b955060e0607f1982011215614f9f57600080fd5b5060808901935061016089013592506101808901356001600160401b0380821115614fc957600080fd5b614fd58c838d01614ce3565b93506101a08b0135915080821115614fec57600080fd5b50614ff98b828c01614ce3565b9150509295985092959890939650565b60006020828403121561501b57600080fd5b8135614ba581614f1d565b60008060008060008060008060006101c08a8c03121561504557600080fd5b61504e8a614bac565b985061505c60208b01614bac565b975061506a60408b01614bac565b965061507860608b01614bac565b955060808a0135945060a08a013593506150958b60c08c01614e68565b92506150a58b6101008c01614e7f565b91506150b58b6101808c01614e68565b90509295985092959850929598565b6000602082840312156150d657600080fd5b5035919050565b801515811461229657600080fd5b6000602082840312156150fd57600080fd5b8135614ba5816150dd565b60006020828403121561511a57600080fd5b81356001600160401b0381111561513057600080fd5b6149a284828501614ce3565b6000602080838503121561514f57600080fd5b82356001600160401b038082111561516657600080fd5b818501915085601f83011261517a57600080fd5b8135615188614d9e82614cc0565b81815260059190911b830184019084810190888311156151a757600080fd5b8585015b83811015614e5b578035858111156151c35760008081fd5b86016060818c03601f19018113156151db5760008081fd5b6151e3614c6e565b89830135888111156151f55760008081fd5b6152038e8c83870101614ce3565b8252506040808401358b83015261521b838501614bac565b90820152855250509186019186016151ab565b6000806040838503121561524157600080fd5b82356001600160401b0381111561525757600080fd5b61526385828601614ce3565b95602094909401359450505050565b600181811c9082168061528657607f821691505b6020821081036152a657634e487b7160e01b600052602260045260246000fd5b50919050565b634e487b7160e01b600052603260045260246000fd5b634e487b7160e01b600052601160045260246000fd5b60006001600160401b038083168181036152f4576152f46152c2565b6001019392505050565b60006020828403121561531057600080fd5b5051919050565b600060018201615329576153296152c2565b5060010190565b60006001600160401b0383811690831681811015615350576153506152c2565b039392505050565b60008282101561536a5761536a6152c2565b500390565b6000816000190483118215151615615389576153896152c2565b500290565b60006001600160401b038083168185168083038211156153b0576153b06152c2565b01949350505050565b601f82111561488957600081815260208120601f850160051c810160208610156153e05750805b601f850160051c820191505b818110156153ff578281556001016153ec565b505050505050565b81516001600160401b0381111561542057615420614c30565b6154348161542e8454615272565b846153b9565b602080601f83116001811461546957600084156154515750858301515b600019600386901b1c1916600185901b1785556153ff565b600085815260208120601f198616915b8281101561549857888601518255948401946001909101908401615479565b50858210156154b65787850151600019600388901b60f8161c191681555b5050505050600190811b01905550565b634e487b7160e01b600052601260045260246000fd5b6000826154eb576154eb6154c6565b500490565b60008219821115615503576155036152c2565b500190565b8381526001600160a01b03831660208201526060604082015260006155306060830184614b66565b95945050505050565b60006001600160401b0380841680615553576155536154c6565b92169190910492915050565b60008251615571818460208701614b3a565b9190910192915050565b60008261558a5761558a6154c6565b500690565b61012081016040808784376000838201818152879190815b60028110156155c7578484833790840182815292840192906001016155a7565b5050828760c0870137610100850181815286935091505b60018110156155fd5782518252602092830192909101906001016155de565b50505095945050505050565b60006020828403121561561b57600080fd5b8151614ba5816150dd56fea26469706673582212206a6b8da4599b3085e229600a34345f7363d96f9adaf6de650f4d7fa94649e49b64736f6c634300080f0033",
  "linkReferences": {},
  "deployedLinkReferences": {}
}