{
  "_format": "hh-sol-artifact-1",
  "contractName": "ProofOfEfficiencyMock",
  "sourceName": "contracts/mocks/ProofOfEfficiencyMock.sol",
  "abi": [
    {
      "inputs": [
        {
          "internalType": "contract IGlobalExitRootManager",
          "name": "_globalExitRootManager",
          "type": "address"
        },
        {
          "internalType": "contract IERC20",
          "name": "_matic",
          "type": "address"
        },
        {
          "internalType": "contract IVerifierRollup",
          "name": "_rollupVerifier",
          "type": "address"
        },
        {
          "internalType": "bytes32",
          "name": "genesisRoot",
          "type": "bytes32"
        }
      ],
      "stateMutability": "nonpayable",
      "type": "constructor"
    },
    {
      "anonymous": false,
      "inputs": [
        {
          "indexed": true,
          "internalType": "uint64",
          "name": "numBatch",
          "type": "uint64"
        },
        {
          "indexed": false,
          "internalType": "bytes32",
          "name": "lastGlobalExitRoot",
          "type": "bytes32"
        },
        {
          "indexed": false,
          "internalType": "bytes",
          "name": "transactions",
          "type": "bytes"
        }
      ],
      "name": "ForceBatch",
      "type": "event"
    },
    {
      "anonymous": false,
      "inputs": [
        {
          "indexed": true,
          "internalType": "address",
          "name": "previousOwner",
          "type": "address"
        },
        {
          "indexed": true,
          "internalType": "address",
          "name": "newOwner",
          "type": "address"
        }
      ],
      "name": "OwnershipTransferred",
      "type": "event"
    },
    {
      "anonymous": false,
      "inputs": [
        {
          "indexed": false,
          "internalType": "address",
          "name": "sequencerAddress",
          "type": "address"
        },
        {
          "indexed": false,
          "internalType": "string",
          "name": "sequencerURL",
          "type": "string"
        },
        {
          "indexed": false,
          "internalType": "uint64",
          "name": "chainID",
          "type": "uint64"
        }
      ],
      "name": "RegisterSequencer",
      "type": "event"
    },
    {
      "anonymous": false,
      "inputs": [
        {
          "indexed": true,
          "internalType": "uint64",
          "name": "numBatch",
          "type": "uint64"
        }
      ],
      "name": "SequencedBatches",
      "type": "event"
    },
    {
      "anonymous": false,
      "inputs": [
        {
          "indexed": true,
          "internalType": "uint64",
          "name": "numBatch",
          "type": "uint64"
        },
        {
          "indexed": true,
          "internalType": "address",
          "name": "aggregator",
          "type": "address"
        }
      ],
      "name": "VerifyBatch",
      "type": "event"
    },
    {
      "inputs": [],
      "name": "MAX_BATCH_LENGTH",
      "outputs": [
        {
          "internalType": "uint64",
          "name": "",
          "type": "uint64"
        }
      ],
      "stateMutability": "view",
      "type": "function"
    },
    {
      "inputs": [],
      "name": "PROVER_FEE",
      "outputs": [
        {
          "internalType": "uint256",
          "name": "",
          "type": "uint256"
        }
      ],
      "stateMutability": "view",
      "type": "function"
    },
    {
      "inputs": [],
      "name": "SUPER_SEQUENCER_FEE",
      "outputs": [
        {
          "internalType": "uint64",
          "name": "",
          "type": "uint64"
        }
      ],
      "stateMutability": "view",
      "type": "function"
    },
    {
      "inputs": [
        {
          "internalType": "bytes32",
          "name": "currentStateRoot",
          "type": "bytes32"
        },
        {
          "internalType": "bytes32",
          "name": "currentLocalExitRoot",
          "type": "bytes32"
        },
        {
          "internalType": "bytes32",
          "name": "newStateRoot",
          "type": "bytes32"
        },
        {
          "internalType": "bytes32",
          "name": "newLocalExitRoot",
          "type": "bytes32"
        },
        {
          "internalType": "bytes32",
          "name": "batchHashData",
          "type": "bytes32"
        },
        {
          "internalType": "uint64",
          "name": "numBatch",
          "type": "uint64"
        },
        {
          "internalType": "address",
          "name": "msgSender",
          "type": "address"
        }
      ],
      "name": "calculateCircuitInput",
      "outputs": [
        {
          "internalType": "uint256",
          "name": "",
          "type": "uint256"
        }
      ],
      "stateMutability": "pure",
      "type": "function"
    },
    {
      "inputs": [],
      "name": "calculateForceProverFee",
      "outputs": [
        {
          "internalType": "uint256",
          "name": "",
          "type": "uint256"
        }
      ],
      "stateMutability": "view",
      "type": "function"
    },
    {
      "inputs": [],
      "name": "currentLocalExitRoot",
      "outputs": [
        {
          "internalType": "bytes32",
          "name": "",
          "type": "bytes32"
        }
      ],
      "stateMutability": "view",
      "type": "function"
    },
    {
      "inputs": [],
      "name": "currentStateRoot",
      "outputs": [
        {
          "internalType": "bytes32",
          "name": "",
          "type": "bytes32"
        }
      ],
      "stateMutability": "view",
      "type": "function"
    },
    {
      "inputs": [
        {
          "internalType": "bytes",
          "name": "transactions",
          "type": "bytes"
        },
        {
          "internalType": "uint256",
          "name": "maticAmount",
          "type": "uint256"
        }
      ],
      "name": "forceBatch",
      "outputs": [],
      "stateMutability": "nonpayable",
      "type": "function"
    },
    {
      "inputs": [
        {
          "internalType": "uint64",
          "name": "",
          "type": "uint64"
        }
      ],
      "name": "forcedBatches",
      "outputs": [
        {
          "internalType": "bytes32",
          "name": "batchHashData",
          "type": "bytes32"
        },
        {
          "internalType": "uint256",
          "name": "maticFee",
          "type": "uint256"
        },
        {
          "internalType": "uint64",
          "name": "timestamp",
          "type": "uint64"
        }
      ],
      "stateMutability": "view",
      "type": "function"
    },
    {
      "inputs": [
        {
          "internalType": "bytes32",
          "name": "newLocalExitRoot",
          "type": "bytes32"
        },
        {
          "internalType": "bytes32",
          "name": "newStateRoot",
          "type": "bytes32"
        },
        {
          "internalType": "uint32",
          "name": "numBatch",
          "type": "uint32"
        }
      ],
      "name": "getNextCircuitInput",
      "outputs": [
        {
          "internalType": "uint256",
          "name": "",
          "type": "uint256"
        }
      ],
      "stateMutability": "view",
      "type": "function"
    },
    {
      "inputs": [],
      "name": "globalExitRootManager",
      "outputs": [
        {
          "internalType": "contract IGlobalExitRootManager",
          "name": "",
          "type": "address"
        }
      ],
      "stateMutability": "view",
      "type": "function"
    },
    {
      "inputs": [],
      "name": "lastBatchSequenced",
      "outputs": [
        {
          "internalType": "uint64",
          "name": "",
          "type": "uint64"
        }
      ],
      "stateMutability": "view",
      "type": "function"
    },
    {
      "inputs": [],
      "name": "lastForceBatch",
      "outputs": [
        {
          "internalType": "uint64",
          "name": "",
          "type": "uint64"
        }
      ],
      "stateMutability": "view",
      "type": "function"
    },
    {
      "inputs": [],
      "name": "lastForceBatchSequenced",
      "outputs": [
        {
          "internalType": "uint64",
          "name": "",
          "type": "uint64"
        }
      ],
      "stateMutability": "view",
      "type": "function"
    },
    {
      "inputs": [],
      "name": "lastForcedTimestamp",
      "outputs": [
        {
          "internalType": "uint64",
          "name": "",
          "type": "uint64"
        }
      ],
      "stateMutability": "view",
      "type": "function"
    },
    {
      "inputs": [],
      "name": "lastTimestamp",
      "outputs": [
        {
          "internalType": "uint64",
          "name": "",
          "type": "uint64"
        }
      ],
      "stateMutability": "view",
      "type": "function"
    },
    {
      "inputs": [],
      "name": "lastVerifiedBatch",
      "outputs": [
        {
          "internalType": "uint64",
          "name": "",
          "type": "uint64"
        }
      ],
      "stateMutability": "view",
      "type": "function"
    },
    {
      "inputs": [],
      "name": "matic",
      "outputs": [
        {
          "internalType": "contract IERC20",
          "name": "",
          "type": "address"
        }
      ],
      "stateMutability": "view",
      "type": "function"
    },
    {
      "inputs": [],
      "name": "owner",
      "outputs": [
        {
          "internalType": "address",
          "name": "",
          "type": "address"
        }
      ],
      "stateMutability": "view",
      "type": "function"
    },
    {
      "inputs": [],
      "name": "renounceOwnership",
      "outputs": [],
      "stateMutability": "nonpayable",
      "type": "function"
    },
    {
      "inputs": [
        {
          "internalType": "bytes32",
          "name": "newLocalExitRoot",
          "type": "bytes32"
        },
        {
          "internalType": "bytes32",
          "name": "newStateRoot",
          "type": "bytes32"
        },
        {
          "internalType": "uint32",
          "name": "numBatch",
          "type": "uint32"
        }
      ],
      "name": "returnInputHashParameters",
      "outputs": [
        {
          "internalType": "bytes",
          "name": "",
          "type": "bytes"
        }
      ],
      "stateMutability": "view",
      "type": "function"
    },
    {
      "inputs": [],
      "name": "rollupVerifier",
      "outputs": [
        {
          "internalType": "contract IVerifierRollup",
          "name": "",
          "type": "address"
        }
      ],
      "stateMutability": "view",
      "type": "function"
    },
    {
      "inputs": [
        {
          "components": [
            {
              "internalType": "bytes",
              "name": "transactions",
              "type": "bytes"
            },
            {
              "internalType": "bytes32",
              "name": "globalExitRoot",
              "type": "bytes32"
            },
            {
              "internalType": "uint64",
              "name": "timestamp",
              "type": "uint64"
            },
            {
              "internalType": "uint64",
              "name": "forceBatchesNum",
              "type": "uint64"
            }
          ],
          "internalType": "struct ProofOfEfficiency.Sequence[]",
          "name": "sequences",
          "type": "tuple[]"
        }
      ],
      "name": "sequenceBatches",
      "outputs": [],
      "stateMutability": "nonpayable",
      "type": "function"
    },
    {
      "inputs": [
        {
          "internalType": "uint64",
          "name": "",
          "type": "uint64"
        }
      ],
      "name": "sequencedBatches",
      "outputs": [
        {
          "internalType": "bytes32",
          "name": "",
          "type": "bytes32"
        }
      ],
      "stateMutability": "view",
      "type": "function"
    },
    {
      "inputs": [
        {
          "internalType": "bytes32",
          "name": "newLocalExitRoot",
          "type": "bytes32"
        }
      ],
      "name": "setExitRoot",
      "outputs": [],
      "stateMutability": "nonpayable",
      "type": "function"
    },
    {
      "inputs": [
        {
          "internalType": "bytes32",
          "name": "newStateRoot",
          "type": "bytes32"
        }
      ],
      "name": "setStateRoot",
      "outputs": [],
      "stateMutability": "nonpayable",
      "type": "function"
    },
    {
      "inputs": [
        {
          "internalType": "address",
          "name": "newOwner",
          "type": "address"
        }
      ],
      "name": "transferOwnership",
      "outputs": [],
      "stateMutability": "nonpayable",
      "type": "function"
    },
    {
      "inputs": [
        {
          "internalType": "bytes32",
          "name": "newLocalExitRoot",
          "type": "bytes32"
        },
        {
          "internalType": "bytes32",
          "name": "newStateRoot",
          "type": "bytes32"
        },
        {
          "internalType": "uint64",
          "name": "numBatch",
          "type": "uint64"
        },
        {
          "internalType": "uint256[2]",
          "name": "proofA",
          "type": "uint256[2]"
        },
        {
          "internalType": "uint256[2][2]",
          "name": "proofB",
          "type": "uint256[2][2]"
        },
        {
          "internalType": "uint256[2]",
          "name": "proofC",
          "type": "uint256[2]"
        }
      ],
      "name": "verifyBatch",
      "outputs": [],
      "stateMutability": "nonpayable",
      "type": "function"
    }
  ],
  "bytecode": "0x60a06040523480156200001157600080fd5b50604051620025be380380620025be833981016040819052620000349162000100565b83838383620000433362000097565b60048054600160401b600160e01b031916680100000000000000006001600160a01b0396871602179055918316608052600780546001600160a01b0319169190931617909155600555506200015a92505050565b600080546001600160a01b038381166001600160a01b0319831681178455604051919092169283917f8be0079c531659141344cd1fd0a4f28419497f9722a3daafe3b4186f6b6457e09190a35050565b6001600160a01b0381168114620000fd57600080fd5b50565b600080600080608085870312156200011757600080fd5b84516200012481620000e7565b60208601519094506200013781620000e7565b60408601519093506200014a81620000e7565b6060959095015193969295505050565b60805161243a620001846000396000818161035c0152818161051101526110c5015261243a6000f3fe608060405234801561001057600080fd5b50600436106101ae5760003560e01c806395297e24116100ee578063d02103ca11610097578063d9f7d67711610071578063d9f7d67714610408578063e8bf92ed1461041b578063f19bb4ec1461043b578063f2fde38b1461044357600080fd5b8063d02103ca146103b6578063d307b743146103e2578063d85a050f146103f557600080fd5b8063b6b0b097116100c8578063b6b0b09714610357578063ca98a3081461037e578063cb0b5534146103a357600080fd5b806395297e2414610332578063959c2f4714610345578063ac2eba981461034e57600080fd5b8063358a722f1161015b578063715018a611610135578063715018a6146102c45780637fcb3653146102cc5780638a4abab8146102e05780638da5cb5b146102f357600080fd5b8063358a722f1461026c57806343ea19961461027f578063519c1e7b1461028857600080fd5b80631c7a07ee1161018c5780631c7a07ee146102155780631dc125b21461023657806325d0a8f51461024c57600080fd5b806306d6490f146101b3578063116c40c3146101c8578063188ea07d146101db575b600080fd5b6101c66101c1366004611d74565b610456565b005b6101c66101d6366004611dcd565b61075b565b6002546101f790640100000000900467ffffffffffffffff1681565b60405167ffffffffffffffff90911681526020015b60405180910390f35b610228610223366004611e0f565b6107e1565b60405161020c929190611ea0565b61023e61088f565b60405190815260200161020c565b61025f61025a366004611ee0565b6108e5565b60405161020c9190611f15565b6101c661027a366004611ee0565b610a13565b6101f76103e881565b6102af610296366004611f40565b6003602052600090815260409020805460019091015482565b6040805192835260208301919091520161020c565b6101c6610ab3565b6004546101f79067ffffffffffffffff1681565b6101c66102ee366004611f7b565b610b40565b60005473ffffffffffffffffffffffffffffffffffffffff165b60405173ffffffffffffffffffffffffffffffffffffffff909116815260200161020c565b6101c6610340366004611fc7565b610d29565b61023e60065481565b61023e60055481565b61030d7f000000000000000000000000000000000000000000000000000000000000000081565b60025461038e9063ffffffff1681565b60405163ffffffff909116815260200161020c565b61023e6103b1366004612038565b61112e565b60045461030d9068010000000000000000900473ffffffffffffffffffffffffffffffffffffffff1681565b6101c66103f0366004611dcd565b6111ac565b6101c6610403366004612073565b611232565b61023e610416366004611ee0565b61134a565b60075461030d9073ffffffffffffffffffffffffffffffffffffffff1681565b6101c66114ae565b6101c6610451366004611e0f565b61163a565b600061046061088f565b9050818111156104f7576040517f08c379a000000000000000000000000000000000000000000000000000000000815260206004820152602e60248201527f50726f6f664f66456666696369656e63793a3a73656e6442617463683a204e4f60448201527f545f454e4f5547485f4d4154494300000000000000000000000000000000000060648201526084015b60405180910390fd5b61053973ffffffffffffffffffffffffffffffffffffffff7f00000000000000000000000000000000000000000000000000000000000000001633308461176a565b6000600460089054906101000a900473ffffffffffffffffffffffffffffffffffffffff1673ffffffffffffffffffffffffffffffffffffffff16633ed691ef6040518163ffffffff1660e01b815260040160206040518083038186803b1580156105a357600080fd5b505afa1580156105b7573d6000803e3d6000fd5b505050506040513d601f19601f820116820180604052508101906105db91906120c8565b336000908152600160208190526040822001549192509067ffffffffffffffff16156106255750336000908152600160208190526040909120015467ffffffffffffffff1661062a565b506103e85b60028054640100000000900467ffffffffffffffff1690600461064c83612110565b91906101000a81548167ffffffffffffffff021916908367ffffffffffffffff160217905550508482423384600260049054906101000a900467ffffffffffffffff166040516020016106a496959493929190612138565b604080517fffffffffffffffffffffffffffffffffffffffffffffffffffffffffffffffe081840301815282825280516020918201206002805467ffffffffffffffff6401000000009182900481166000908152600386528681209490945582548290048116845292859020600101899055905486831686529285018790523394920416917f84a31f45db3d6d8124a47a0544d32fff930986737dd276f558ff54382780487d910160405180910390a35050505050565b60005473ffffffffffffffffffffffffffffffffffffffff1633146107dc576040517f08c379a000000000000000000000000000000000000000000000000000000000815260206004820181905260248201527f4f776e61626c653a2063616c6c6572206973206e6f7420746865206f776e657260448201526064016104ee565b600655565b6001602052600090815260409020805481906107fc906121c8565b80601f0160208091040260200160405190810160405280929190818152602001828054610828906121c8565b80156108755780601f1061084a57610100808354040283529160200191610875565b820191906000526020600020905b81548152906001019060200180831161085857829003601f168201915b5050506001909301549192505067ffffffffffffffff1682565b60045460025460009167ffffffffffffffff908116916108ba9164010000000090910416600161221c565b6108c49190612248565b6108e09067ffffffffffffffff16670de0b6b3a7640000612271565b905090565b6004546060906109009067ffffffffffffffff16600161221c565b67ffffffffffffffff168263ffffffff161461099e576040517f08c379a000000000000000000000000000000000000000000000000000000000815260206004820152603460248201527f50726f6f664f66456666696369656e63793a3a76657269667942617463683a2060448201527f42415443485f444f45535f4e4f545f4d4154434800000000000000000000000060648201526084016104ee565b63ffffffff82166000908152600360209081526040918290208251808401845281548082526001909201548184015260055460065485519485019190915293830193909352606082018690526080820187905260a082015260c0016040516020818303038152906040529150505b9392505050565b60005473ffffffffffffffffffffffffffffffffffffffff163314610a94576040517f08c379a000000000000000000000000000000000000000000000000000000000815260206004820181905260248201527f4f776e61626c653a2063616c6c6572206973206e6f7420746865206f776e657260448201526064016104ee565b63ffffffff166000908152600360205260409020918255600190910155565b60005473ffffffffffffffffffffffffffffffffffffffff163314610b34576040517f08c379a000000000000000000000000000000000000000000000000000000000815260206004820181905260248201527f4f776e61626c653a2063616c6c6572206973206e6f7420746865206f776e657260448201526064016104ee565b610b3e600061184c565b565b8051610bce576040517f08c379a000000000000000000000000000000000000000000000000000000000815260206004820152603360248201527f50726f6f664f66456666696369656e63793a3a7265676973746572536571756560448201527f6e6365723a204e4f545f56414c49445f55524c0000000000000000000000000060648201526084016104ee565b336000908152600160208190526040909120015467ffffffffffffffff16610cab576002805463ffffffff16906000610c06836122ae565b825463ffffffff9182166101009390930a9283029190920219909116179055503360009081526001602090815260409091208251610c4692840190611c18565b50600254610c5c9063ffffffff166103e861221c565b3360009081526001602081905260409091200180547fffffffffffffffffffffffffffffffffffffffffffffffff00000000000000001667ffffffffffffffff92909216919091179055610ccd565b3360009081526001602090815260409091208251610ccb92840190611c18565b505b33600081815260016020819052604091829020015490517fcb9ff083daeaef4973981efa83966c7a440fc6eb5cda6b7bfad8cc5765cbbca892610d1e929091859167ffffffffffffffff16906122c8565b60405180910390a150565b600454610d419067ffffffffffffffff16600161221c565b67ffffffffffffffff168467ffffffffffffffff1614610de3576040517f08c379a000000000000000000000000000000000000000000000000000000000815260206004820152603460248201527f50726f6f664f66456666696369656e63793a3a76657269667942617463683a2060448201527f42415443485f444f45535f4e4f545f4d4154434800000000000000000000000060648201526084016104ee565b67ffffffffffffffff84166000908152600360209081526040808320815180830183528154808252600190920154818501526005546006548451958601919091529284019290925260608301899052608083018a905260a083015291907f30644e72e131a029b85045b68181585d2833e84879b9709143e1f593f00000019060c0016040516020818303038152906040528051906020012060001c610e889190612311565b6007546040805160208101825283815290517f43753b4d00000000000000000000000000000000000000000000000000000000815292935073ffffffffffffffffffffffffffffffffffffffff909116916343753b4d91610ef2918991899189919060040161234c565b60206040518083038186803b158015610f0a57600080fd5b505afa158015610f1e573d6000803e3d6000fd5b505050506040513d601f19601f82011682018060405250810190610f4291906123c6565b610fce576040517f08c379a000000000000000000000000000000000000000000000000000000000815260206004820152602d60248201527f50726f6f664f66456666696369656e63793a3a76657269667942617463683a2060448201527f494e56414c49445f50524f4f460000000000000000000000000000000000000060648201526084016104ee565b6004805467ffffffffffffffff16906000610fe883612110565b82546101009290920a67ffffffffffffffff8181021990931691909216919091021790555060058790556006889055600480546040517f33d6247d0000000000000000000000000000000000000000000000000000000081529182018a905268010000000000000000900473ffffffffffffffffffffffffffffffffffffffff16906333d6247d90602401600060405180830381600087803b15801561108d57600080fd5b505af11580156110a1573d6000803e3d6000fd5b50505060208301516110ed915073ffffffffffffffffffffffffffffffffffffffff7f0000000000000000000000000000000000000000000000000000000000000000169033906118c1565b604051339067ffffffffffffffff8816907f2cdf1508085a46c7241a7d78c5a1ec3d9246d1ab95e1c2a33676d29e17d4222390600090a35050505050505050565b6040805160208101879052908101859052606081018490526080810183905260a0810182905260009081907f30644e72e131a029b85045b68181585d2833e84879b9709143e1f593f00000019060c0016040516020818303038152906040528051906020012060001c6111a19190612311565b979650505050505050565b60005473ffffffffffffffffffffffffffffffffffffffff16331461122d576040517f08c379a000000000000000000000000000000000000000000000000000000000815260206004820181905260248201527f4f776e61626c653a2063616c6c6572206973206e6f7420746865206f776e657260448201526064016104ee565b600555565b60005473ffffffffffffffffffffffffffffffffffffffff1633146112b3576040517f08c379a000000000000000000000000000000000000000000000000000000000815260206004820181905260248201527f4f776e61626c653a2063616c6c6572206973206e6f7420746865206f776e657260448201526064016104ee565b73ffffffffffffffffffffffffffffffffffffffff8316600090815260016020908152604090912083516112e992850190611c18565b5073ffffffffffffffffffffffffffffffffffffffff90921660009081526001602081905260409091200180547fffffffffffffffffffffffffffffffffffffffffffffffff00000000000000001663ffffffff9093169290921790915550565b6004546000906113659067ffffffffffffffff16600161221c565b67ffffffffffffffff168263ffffffff1614611403576040517f08c379a000000000000000000000000000000000000000000000000000000000815260206004820152603460248201527f50726f6f664f66456666696369656e63793a3a76657269667942617463683a2060448201527f42415443485f444f45535f4e4f545f4d4154434800000000000000000000000060648201526084016104ee565b63ffffffff821660009081526003602090815260408083208151808301835281548082526001909201548185015260055460065484519586019190915292840192909252606083018790526080830188905260a083015291907f30644e72e131a029b85045b68181585d2833e84879b9709143e1f593f00000019060c0016040516020818303038152906040528051906020012060001c6114a49190612311565b9695505050505050565b60005473ffffffffffffffffffffffffffffffffffffffff16331461152f576040517f08c379a000000000000000000000000000000000000000000000000000000000815260206004820181905260248201527f4f776e61626c653a2063616c6c6572206973206e6f7420746865206f776e657260448201526064016104ee565b6004805467ffffffffffffffff1690600061154983612110565b825467ffffffffffffffff9182166101009390930a928302919092021990911617905550600480546006546040517f33d6247d0000000000000000000000000000000000000000000000000000000081529283015273ffffffffffffffffffffffffffffffffffffffff6801000000000000000090910416906333d6247d90602401600060405180830381600087803b1580156115e557600080fd5b505af11580156115f9573d6000803e3d6000fd5b505060045460405133935067ffffffffffffffff90911691507f2cdf1508085a46c7241a7d78c5a1ec3d9246d1ab95e1c2a33676d29e17d4222390600090a3565b60005473ffffffffffffffffffffffffffffffffffffffff1633146116bb576040517f08c379a000000000000000000000000000000000000000000000000000000000815260206004820181905260248201527f4f776e61626c653a2063616c6c6572206973206e6f7420746865206f776e657260448201526064016104ee565b73ffffffffffffffffffffffffffffffffffffffff811661175e576040517f08c379a000000000000000000000000000000000000000000000000000000000815260206004820152602660248201527f4f776e61626c653a206e6577206f776e657220697320746865207a65726f206160448201527f646472657373000000000000000000000000000000000000000000000000000060648201526084016104ee565b6117678161184c565b50565b60405173ffffffffffffffffffffffffffffffffffffffff808516602483015283166044820152606481018290526118469085907f23b872dd00000000000000000000000000000000000000000000000000000000906084015b604080517fffffffffffffffffffffffffffffffffffffffffffffffffffffffffffffffe08184030181529190526020810180517bffffffffffffffffffffffffffffffffffffffffffffffffffffffff167fffffffff000000000000000000000000000000000000000000000000000000009093169290921790915261191c565b50505050565b6000805473ffffffffffffffffffffffffffffffffffffffff8381167fffffffffffffffffffffffff0000000000000000000000000000000000000000831681178455604051919092169283917f8be0079c531659141344cd1fd0a4f28419497f9722a3daafe3b4186f6b6457e09190a35050565b60405173ffffffffffffffffffffffffffffffffffffffff83166024820152604481018290526119179084907fa9059cbb00000000000000000000000000000000000000000000000000000000906064016117c4565b505050565b600061197e826040518060400160405280602081526020017f5361666545524332303a206c6f772d6c6576656c2063616c6c206661696c65648152508573ffffffffffffffffffffffffffffffffffffffff16611a289092919063ffffffff16565b805190915015611917578080602001905181019061199c91906123c6565b611917576040517f08c379a000000000000000000000000000000000000000000000000000000000815260206004820152602a60248201527f5361666545524332303a204552433230206f7065726174696f6e20646964206e60448201527f6f7420737563636565640000000000000000000000000000000000000000000060648201526084016104ee565b6060611a378484600085611a3f565b949350505050565b606082471015611ad1576040517f08c379a000000000000000000000000000000000000000000000000000000000815260206004820152602660248201527f416464726573733a20696e73756666696369656e742062616c616e636520666f60448201527f722063616c6c000000000000000000000000000000000000000000000000000060648201526084016104ee565b73ffffffffffffffffffffffffffffffffffffffff85163b611b4f576040517f08c379a000000000000000000000000000000000000000000000000000000000815260206004820152601d60248201527f416464726573733a2063616c6c20746f206e6f6e2d636f6e747261637400000060448201526064016104ee565b6000808673ffffffffffffffffffffffffffffffffffffffff168587604051611b7891906123e8565b60006040518083038185875af1925050503d8060008114611bb5576040519150601f19603f3d011682016040523d82523d6000602084013e611bba565b606091505b50915091506111a182828660608315611bd4575081610a0c565b825115611be45782518084602001fd5b816040517f08c379a00000000000000000000000000000000000000000000000000000000081526004016104ee9190611f15565b828054611c24906121c8565b90600052602060002090601f016020900481019282611c465760008555611c8c565b82601f10611c5f57805160ff1916838001178555611c8c565b82800160010185558215611c8c579182015b82811115611c8c578251825591602001919060010190611c71565b50611c98929150611c9c565b5090565b5b80821115611c985760008155600101611c9d565b7f4e487b7100000000000000000000000000000000000000000000000000000000600052604160045260246000fd5b600067ffffffffffffffff80841115611cfb57611cfb611cb1565b604051601f85017fffffffffffffffffffffffffffffffffffffffffffffffffffffffffffffffe0908116603f01168101908282118183101715611d4157611d41611cb1565b81604052809350858152868686011115611d5a57600080fd5b858560208301376000602087830101525050509392505050565b60008060408385031215611d8757600080fd5b823567ffffffffffffffff811115611d9e57600080fd5b8301601f81018513611daf57600080fd5b611dbe85823560208401611ce0565b95602094909401359450505050565b600060208284031215611ddf57600080fd5b5035919050565b803573ffffffffffffffffffffffffffffffffffffffff81168114611e0a57600080fd5b919050565b600060208284031215611e2157600080fd5b610a0c82611de6565b60005b83811015611e45578181015183820152602001611e2d565b838111156118465750506000910152565b60008151808452611e6e816020860160208601611e2a565b601f017fffffffffffffffffffffffffffffffffffffffffffffffffffffffffffffffe0169290920160200192915050565b604081526000611eb36040830185611e56565b905067ffffffffffffffff831660208301529392505050565b803563ffffffff81168114611e0a57600080fd5b600080600060608486031215611ef557600080fd5b8335925060208401359150611f0c60408501611ecc565b90509250925092565b602081526000610a0c6020830184611e56565b803567ffffffffffffffff81168114611e0a57600080fd5b600060208284031215611f5257600080fd5b610a0c82611f28565b600082601f830112611f6c57600080fd5b610a0c83833560208501611ce0565b600060208284031215611f8d57600080fd5b813567ffffffffffffffff811115611fa457600080fd5b611a3784828501611f5b565b8060408101831015611fc157600080fd5b92915050565b6000806000806000806101608789031215611fe157600080fd5b8635955060208701359450611ff860408801611f28565b93506120078860608901611fb0565b925061012087018881111561201b57600080fd5b60a08801925061202b8982611fb0565b9150509295509295509295565b600080600080600060a0868803121561205057600080fd5b505083359560208501359550604085013594606081013594506080013592509050565b60008060006060848603121561208857600080fd5b61209184611de6565b9250602084013567ffffffffffffffff8111156120ad57600080fd5b6120b986828701611f5b565b925050611f0c60408501611ecc565b6000602082840312156120da57600080fd5b5051919050565b7f4e487b7100000000000000000000000000000000000000000000000000000000600052601160045260246000fd5b600067ffffffffffffffff8083168181141561212e5761212e6120e1565b6001019392505050565b6000875161214a818460208c01611e2a565b919091019586525060c093841b7fffffffffffffffff000000000000000000000000000000000000000000000000908116602087015260609390931b7fffffffffffffffffffffffffffffffffffffffff00000000000000000000000016602886015290831b8216603c85015290911b166044820152604c01919050565b600181811c908216806121dc57607f821691505b60208210811415612216577f4e487b7100000000000000000000000000000000000000000000000000000000600052602260045260246000fd5b50919050565b600067ffffffffffffffff80831681851680830382111561223f5761223f6120e1565b01949350505050565b600067ffffffffffffffff83811690831681811015612269576122696120e1565b039392505050565b6000817fffffffffffffffffffffffffffffffffffffffffffffffffffffffffffffffff04831182151516156122a9576122a96120e1565b500290565b600063ffffffff8083168181141561212e5761212e6120e1565b73ffffffffffffffffffffffffffffffffffffffff841681526060602082015260006122f76060830185611e56565b905067ffffffffffffffff83166040830152949350505050565b600082612347577f4e487b7100000000000000000000000000000000000000000000000000000000600052601260045260246000fd5b500690565b61012081016040808784376000838201818152879190815b600281101561238457848483379084018281529284019290600101612364565b5050828760c0870137610100850181815286935091505b60018110156123ba57825182526020928301929091019060010161239b565b50505095945050505050565b6000602082840312156123d857600080fd5b81518015158114610a0c57600080fd5b600082516123fa818460208701611e2a565b919091019291505056fea26469706673582212201b8a78a3625a1c1642c142d91b4bd9e2e91ae47128704d991d1f2842be11513b64736f6c63430008090033",
  "linkReferences": {},
  "deployedLinkReferences": {}
}