{
  "_format": "hh-sol-artifact-1",
  "contractName": "ProofOfEfficiencyMock",
  "sourceName": "contracts/mocks/ProofOfEfficiencyMock.sol",
  "abi": [
    {
      "anonymous": false,
      "inputs": [],
      "name": "EmergencyStateActivated",
      "type": "event"
    },
    {
      "anonymous": false,
      "inputs": [],
      "name": "EmergencyStateDeactivated",
      "type": "event"
    },
    {
      "anonymous": false,
      "inputs": [
        {
          "indexed": true,
          "internalType": "uint64",
          "name": "forceBatchNum",
          "type": "uint64"
        },
        {
          "indexed": false,
          "internalType": "bytes32",
          "name": "lastGlobalExitRoot",
          "type": "bytes32"
        },
        {
          "indexed": false,
          "internalType": "address",
          "name": "sequencer",
          "type": "address"
        },
        {
          "indexed": false,
          "internalType": "bytes",
          "name": "transactions",
          "type": "bytes"
        }
      ],
      "name": "ForceBatch",
      "type": "event"
    },
    {
      "anonymous": false,
      "inputs": [
        {
          "indexed": false,
          "internalType": "uint8",
          "name": "version",
          "type": "uint8"
        }
      ],
      "name": "Initialized",
      "type": "event"
    },
    {
      "anonymous": false,
      "inputs": [
        {
          "indexed": true,
          "internalType": "address",
          "name": "previousOwner",
          "type": "address"
        },
        {
          "indexed": true,
          "internalType": "address",
          "name": "newOwner",
          "type": "address"
        }
      ],
      "name": "OwnershipTransferred",
      "type": "event"
    },
    {
      "anonymous": false,
      "inputs": [
        {
          "indexed": false,
          "internalType": "bytes32",
          "name": "storedStateRoot",
          "type": "bytes32"
        },
        {
          "indexed": false,
          "internalType": "bytes32",
          "name": "provedStateRoot",
          "type": "bytes32"
        }
      ],
      "name": "ProofDifferentState",
      "type": "event"
    },
    {
      "anonymous": false,
      "inputs": [
        {
          "indexed": true,
          "internalType": "uint64",
          "name": "numBatch",
          "type": "uint64"
        }
      ],
      "name": "SequenceBatches",
      "type": "event"
    },
    {
      "anonymous": false,
      "inputs": [
        {
          "indexed": true,
          "internalType": "uint64",
          "name": "numBatch",
          "type": "uint64"
        }
      ],
      "name": "SequenceForceBatches",
      "type": "event"
    },
    {
      "anonymous": false,
      "inputs": [
        {
          "indexed": false,
          "internalType": "bool",
          "name": "newForceBatchAllowed",
          "type": "bool"
        }
      ],
      "name": "SetForceBatchAllowed",
      "type": "event"
    },
    {
      "anonymous": false,
      "inputs": [
        {
          "indexed": false,
          "internalType": "address",
          "name": "newSecurityCouncil",
          "type": "address"
        }
      ],
      "name": "SetSecurityCouncil",
      "type": "event"
    },
    {
      "anonymous": false,
      "inputs": [
        {
          "indexed": false,
          "internalType": "address",
          "name": "newTrustedSequencer",
          "type": "address"
        }
      ],
      "name": "SetTrustedSequencer",
      "type": "event"
    },
    {
      "anonymous": false,
      "inputs": [
        {
          "indexed": false,
          "internalType": "string",
          "name": "newTrustedSequencerURL",
          "type": "string"
        }
      ],
      "name": "SetTrustedSequencerURL",
      "type": "event"
    },
    {
      "anonymous": false,
      "inputs": [
        {
          "indexed": true,
          "internalType": "uint64",
          "name": "numBatch",
          "type": "uint64"
        },
        {
          "indexed": false,
          "internalType": "bytes32",
          "name": "stateRoot",
          "type": "bytes32"
        },
        {
          "indexed": true,
          "internalType": "address",
          "name": "aggregator",
          "type": "address"
        }
      ],
      "name": "VerifyBatches",
      "type": "event"
    },
    {
      "inputs": [],
      "name": "FORCE_BATCH_TIMEOUT",
      "outputs": [
        {
          "internalType": "uint64",
          "name": "",
          "type": "uint64"
        }
      ],
      "stateMutability": "view",
      "type": "function"
    },
    {
      "inputs": [],
      "name": "MAX_BATCH_LENGTH",
      "outputs": [
        {
          "internalType": "uint256",
          "name": "",
          "type": "uint256"
        }
      ],
      "stateMutability": "view",
      "type": "function"
    },
    {
      "inputs": [],
      "name": "TRUSTED_SEQUENCER_FEE",
      "outputs": [
        {
          "internalType": "uint256",
          "name": "",
          "type": "uint256"
        }
      ],
      "stateMutability": "view",
      "type": "function"
    },
    {
      "inputs": [],
      "name": "activateEmergencyState",
      "outputs": [],
      "stateMutability": "nonpayable",
      "type": "function"
    },
    {
      "inputs": [
        {
          "internalType": "uint64",
          "name": "",
          "type": "uint64"
        }
      ],
      "name": "batchNumToStateRoot",
      "outputs": [
        {
          "internalType": "bytes32",
          "name": "",
          "type": "bytes32"
        }
      ],
      "stateMutability": "view",
      "type": "function"
    },
    {
      "inputs": [],
      "name": "bridgeAddress",
      "outputs": [
        {
          "internalType": "contract IBridge",
          "name": "",
          "type": "address"
        }
      ],
      "stateMutability": "view",
      "type": "function"
    },
    {
      "inputs": [
        {
          "internalType": "bytes32",
          "name": "currentAccInputHash",
          "type": "bytes32"
        },
        {
          "internalType": "bytes",
          "name": "transactions",
          "type": "bytes"
        },
        {
          "internalType": "bytes32",
          "name": "globalExitRoot",
          "type": "bytes32"
        },
        {
          "internalType": "uint64",
          "name": "timestamp",
          "type": "uint64"
        },
        {
          "internalType": "address",
          "name": "sequencerAddress",
          "type": "address"
        }
      ],
      "name": "calculateAccInputHash",
      "outputs": [
        {
          "internalType": "bytes32",
          "name": "",
          "type": "bytes32"
        }
      ],
      "stateMutability": "pure",
      "type": "function"
    },
    {
      "inputs": [],
      "name": "calculateForceProverFee",
      "outputs": [
        {
          "internalType": "uint256",
          "name": "",
          "type": "uint256"
        }
      ],
      "stateMutability": "view",
      "type": "function"
    },
    {
      "inputs": [],
      "name": "calculateRewardPerBatch",
      "outputs": [
        {
          "internalType": "uint256",
          "name": "",
          "type": "uint256"
        }
      ],
      "stateMutability": "view",
      "type": "function"
    },
    {
      "inputs": [],
      "name": "chainID",
      "outputs": [
        {
          "internalType": "uint64",
          "name": "",
          "type": "uint64"
        }
      ],
      "stateMutability": "view",
      "type": "function"
    },
    {
      "inputs": [],
      "name": "deactivateEmergencyState",
      "outputs": [],
      "stateMutability": "nonpayable",
      "type": "function"
    },
    {
      "inputs": [
        {
          "internalType": "bytes",
          "name": "transactions",
          "type": "bytes"
        },
        {
          "internalType": "uint256",
          "name": "maticAmount",
          "type": "uint256"
        }
      ],
      "name": "forceBatch",
      "outputs": [],
      "stateMutability": "nonpayable",
      "type": "function"
    },
    {
      "inputs": [],
      "name": "forceBatchAllowed",
      "outputs": [
        {
          "internalType": "bool",
          "name": "",
          "type": "bool"
        }
      ],
      "stateMutability": "view",
      "type": "function"
    },
    {
      "inputs": [
        {
          "internalType": "uint64",
          "name": "",
          "type": "uint64"
        }
      ],
      "name": "forcedBatches",
      "outputs": [
        {
          "internalType": "bytes32",
          "name": "",
          "type": "bytes32"
        }
      ],
      "stateMutability": "view",
      "type": "function"
    },
    {
      "inputs": [
        {
          "internalType": "uint64",
          "name": "initNumBatch",
          "type": "uint64"
        },
        {
          "internalType": "uint64",
          "name": "finalNewBatch",
          "type": "uint64"
        },
        {
          "internalType": "bytes32",
          "name": "newLocalExitRoot",
          "type": "bytes32"
        },
        {
          "internalType": "bytes32",
          "name": "newStateRoot",
          "type": "bytes32"
        }
      ],
      "name": "getInputSnarkBytes",
      "outputs": [
        {
          "internalType": "bytes",
          "name": "",
          "type": "bytes"
        }
      ],
      "stateMutability": "view",
      "type": "function"
    },
    {
      "inputs": [
        {
          "internalType": "uint64",
          "name": "_lastVerifiedBatch",
          "type": "uint64"
        },
        {
          "internalType": "uint64",
          "name": "newVerifiedBatch",
          "type": "uint64"
        },
        {
          "internalType": "bytes32",
          "name": "newLocalExitRoot",
          "type": "bytes32"
        },
        {
          "internalType": "bytes32",
          "name": "newStateRoot",
          "type": "bytes32"
        }
      ],
      "name": "getNextSnarkInput",
      "outputs": [
        {
          "internalType": "uint256",
          "name": "",
          "type": "uint256"
        }
      ],
      "stateMutability": "view",
      "type": "function"
    },
    {
      "inputs": [],
      "name": "globalExitRootManager",
      "outputs": [
        {
          "internalType": "contract IGlobalExitRootManager",
          "name": "",
          "type": "address"
        }
      ],
      "stateMutability": "view",
      "type": "function"
    },
    {
      "inputs": [
        {
          "internalType": "contract IGlobalExitRootManager",
          "name": "_globalExitRootManager",
          "type": "address"
        },
        {
          "internalType": "contract IERC20Upgradeable",
          "name": "_matic",
          "type": "address"
        },
        {
          "internalType": "contract IVerifierRollup",
          "name": "_rollupVerifier",
          "type": "address"
        },
        {
          "internalType": "bytes32",
          "name": "genesisRoot",
          "type": "bytes32"
        },
        {
          "internalType": "address",
          "name": "_trustedSequencer",
          "type": "address"
        },
        {
          "internalType": "bool",
          "name": "_forceBatchAllowed",
          "type": "bool"
        },
        {
          "internalType": "string",
          "name": "_trustedSequencerURL",
          "type": "string"
        },
        {
          "internalType": "uint64",
          "name": "_chainID",
          "type": "uint64"
        },
        {
          "internalType": "string",
          "name": "_networkName",
          "type": "string"
        },
        {
          "internalType": "contract IBridge",
          "name": "_bridgeAddress",
          "type": "address"
        },
        {
          "internalType": "address",
          "name": "_securityCouncil",
          "type": "address"
        }
      ],
      "name": "initialize",
      "outputs": [],
      "stateMutability": "nonpayable",
      "type": "function"
    },
    {
      "inputs": [],
      "name": "isEmergencyState",
      "outputs": [
        {
          "internalType": "bool",
          "name": "",
          "type": "bool"
        }
      ],
      "stateMutability": "view",
      "type": "function"
    },
    {
      "inputs": [],
      "name": "lastBatchSequenced",
      "outputs": [
        {
          "internalType": "uint64",
          "name": "",
          "type": "uint64"
        }
      ],
      "stateMutability": "view",
      "type": "function"
    },
    {
      "inputs": [],
      "name": "lastForceBatch",
      "outputs": [
        {
          "internalType": "uint64",
          "name": "",
          "type": "uint64"
        }
      ],
      "stateMutability": "view",
      "type": "function"
    },
    {
      "inputs": [],
      "name": "lastForceBatchSequenced",
      "outputs": [
        {
          "internalType": "uint64",
          "name": "",
          "type": "uint64"
        }
      ],
      "stateMutability": "view",
      "type": "function"
    },
    {
      "inputs": [],
      "name": "lastTimestamp",
      "outputs": [
        {
          "internalType": "uint64",
          "name": "",
          "type": "uint64"
        }
      ],
      "stateMutability": "view",
      "type": "function"
    },
    {
      "inputs": [],
      "name": "lastVerifiedBatch",
      "outputs": [
        {
          "internalType": "uint64",
          "name": "",
          "type": "uint64"
        }
      ],
      "stateMutability": "view",
      "type": "function"
    },
    {
      "inputs": [],
      "name": "matic",
      "outputs": [
        {
          "internalType": "contract IERC20Upgradeable",
          "name": "",
          "type": "address"
        }
      ],
      "stateMutability": "view",
      "type": "function"
    },
    {
      "inputs": [],
      "name": "networkName",
      "outputs": [
        {
          "internalType": "string",
          "name": "",
          "type": "string"
        }
      ],
      "stateMutability": "view",
      "type": "function"
    },
    {
      "inputs": [],
      "name": "owner",
      "outputs": [
        {
          "internalType": "address",
          "name": "",
          "type": "address"
        }
      ],
      "stateMutability": "view",
      "type": "function"
    },
    {
      "inputs": [
        {
          "internalType": "uint64",
          "name": "initNumBatch",
          "type": "uint64"
        },
        {
          "internalType": "uint64",
          "name": "finalNewBatch",
          "type": "uint64"
        },
        {
          "internalType": "bytes32",
          "name": "newLocalExitRoot",
          "type": "bytes32"
        },
        {
          "internalType": "bytes32",
          "name": "newStateRoot",
          "type": "bytes32"
        },
        {
          "internalType": "uint256[2]",
          "name": "proofA",
          "type": "uint256[2]"
        },
        {
          "internalType": "uint256[2][2]",
          "name": "proofB",
          "type": "uint256[2][2]"
        },
        {
          "internalType": "uint256[2]",
          "name": "proofC",
          "type": "uint256[2]"
        }
      ],
      "name": "proofDifferentState",
      "outputs": [],
      "stateMutability": "nonpayable",
      "type": "function"
    },
    {
      "inputs": [],
      "name": "renounceOwnership",
      "outputs": [],
      "stateMutability": "nonpayable",
      "type": "function"
    },
    {
      "inputs": [],
      "name": "rollupVerifier",
      "outputs": [
        {
          "internalType": "contract IVerifierRollup",
          "name": "",
          "type": "address"
        }
      ],
      "stateMutability": "view",
      "type": "function"
    },
    {
      "inputs": [],
      "name": "securityCouncil",
      "outputs": [
        {
          "internalType": "address",
          "name": "",
          "type": "address"
        }
      ],
      "stateMutability": "view",
      "type": "function"
    },
    {
      "inputs": [
        {
          "components": [
            {
              "internalType": "bytes",
              "name": "transactions",
              "type": "bytes"
            },
            {
              "internalType": "bytes32",
              "name": "globalExitRoot",
              "type": "bytes32"
            },
            {
              "internalType": "uint64",
              "name": "timestamp",
              "type": "uint64"
            },
            {
              "internalType": "uint64",
              "name": "minForcedTimestamp",
              "type": "uint64"
            }
          ],
          "internalType": "struct ProofOfEfficiency.BatchData[]",
          "name": "batches",
          "type": "tuple[]"
        }
      ],
      "name": "sequenceBatches",
      "outputs": [],
      "stateMutability": "nonpayable",
      "type": "function"
    },
    {
      "inputs": [
        {
          "components": [
            {
              "internalType": "bytes",
              "name": "transactions",
              "type": "bytes"
            },
            {
              "internalType": "bytes32",
              "name": "globalExitRoot",
              "type": "bytes32"
            },
            {
              "internalType": "uint64",
              "name": "minForcedTimestamp",
              "type": "uint64"
            }
          ],
          "internalType": "struct ProofOfEfficiency.ForceBatchData[]",
          "name": "batches",
          "type": "tuple[]"
        }
      ],
      "name": "sequenceForceBatches",
      "outputs": [],
      "stateMutability": "nonpayable",
      "type": "function"
    },
    {
      "inputs": [
        {
          "internalType": "uint64",
          "name": "",
          "type": "uint64"
        }
      ],
      "name": "sequencedBatches",
      "outputs": [
        {
          "internalType": "bytes32",
          "name": "",
          "type": "bytes32"
        }
      ],
      "stateMutability": "view",
      "type": "function"
    },
    {
      "inputs": [
        {
          "internalType": "bool",
          "name": "newForceBatchAllowed",
          "type": "bool"
        }
      ],
      "name": "setForceBatchAllowed",
      "outputs": [],
      "stateMutability": "nonpayable",
      "type": "function"
    },
    {
      "inputs": [
        {
          "internalType": "string",
          "name": "_networkName",
          "type": "string"
        }
      ],
      "name": "setNetworkName",
      "outputs": [],
      "stateMutability": "nonpayable",
      "type": "function"
    },
    {
      "inputs": [
        {
          "internalType": "address",
          "name": "newSecurityCouncil",
          "type": "address"
        }
      ],
      "name": "setSecurityCouncil",
      "outputs": [],
      "stateMutability": "nonpayable",
      "type": "function"
    },
    {
      "inputs": [
        {
          "internalType": "uint64",
          "name": "_numBatch",
          "type": "uint64"
        }
      ],
      "name": "setSequencedBatch",
      "outputs": [],
      "stateMutability": "nonpayable",
      "type": "function"
    },
    {
      "inputs": [
        {
          "internalType": "uint64",
          "name": "batchNum",
          "type": "uint64"
        },
        {
          "internalType": "bytes32",
          "name": "accInputData",
          "type": "bytes32"
        }
      ],
      "name": "setSequencedBatches",
      "outputs": [],
      "stateMutability": "nonpayable",
      "type": "function"
    },
    {
      "inputs": [
        {
          "internalType": "bytes32",
          "name": "newStateRoot",
          "type": "bytes32"
        },
        {
          "internalType": "uint64",
          "name": "batchNum",
          "type": "uint64"
        }
      ],
      "name": "setStateRoot",
      "outputs": [],
      "stateMutability": "nonpayable",
      "type": "function"
    },
    {
      "inputs": [
        {
          "internalType": "address",
          "name": "newTrustedSequencer",
          "type": "address"
        }
      ],
      "name": "setTrustedSequencer",
      "outputs": [],
      "stateMutability": "nonpayable",
      "type": "function"
    },
    {
      "inputs": [
        {
          "internalType": "string",
          "name": "newTrustedSequencerURL",
          "type": "string"
        }
      ],
      "name": "setTrustedSequencerURL",
      "outputs": [],
      "stateMutability": "nonpayable",
      "type": "function"
    },
    {
      "inputs": [
        {
          "internalType": "uint64",
          "name": "_numBatch",
          "type": "uint64"
        }
      ],
      "name": "setVerifiedBatch",
      "outputs": [],
      "stateMutability": "nonpayable",
      "type": "function"
    },
    {
      "inputs": [
        {
          "internalType": "contract IVerifierRollup",
          "name": "_rollupVerifier",
          "type": "address"
        }
      ],
      "name": "setVerifier",
      "outputs": [],
      "stateMutability": "nonpayable",
      "type": "function"
    },
    {
      "inputs": [
        {
          "internalType": "address",
          "name": "newOwner",
          "type": "address"
        }
      ],
      "name": "transferOwnership",
      "outputs": [],
      "stateMutability": "nonpayable",
      "type": "function"
    },
    {
      "inputs": [],
      "name": "trustedSequencer",
      "outputs": [
        {
          "internalType": "address",
          "name": "",
          "type": "address"
        }
      ],
      "stateMutability": "view",
      "type": "function"
    },
    {
      "inputs": [],
      "name": "trustedSequencerURL",
      "outputs": [
        {
          "internalType": "string",
          "name": "",
          "type": "string"
        }
      ],
      "stateMutability": "view",
      "type": "function"
    },
    {
      "inputs": [
        {
          "internalType": "uint64",
          "name": "initNumBatch",
          "type": "uint64"
        },
        {
          "internalType": "uint64",
          "name": "finalNewBatch",
          "type": "uint64"
        },
        {
          "internalType": "bytes32",
          "name": "newLocalExitRoot",
          "type": "bytes32"
        },
        {
          "internalType": "bytes32",
          "name": "newStateRoot",
          "type": "bytes32"
        },
        {
          "internalType": "uint256[2]",
          "name": "proofA",
          "type": "uint256[2]"
        },
        {
          "internalType": "uint256[2][2]",
          "name": "proofB",
          "type": "uint256[2][2]"
        },
        {
          "internalType": "uint256[2]",
          "name": "proofC",
          "type": "uint256[2]"
        }
      ],
      "name": "verifyBatches",
      "outputs": [],
      "stateMutability": "nonpayable",
      "type": "function"
    },
    {
      "inputs": [
        {
          "internalType": "uint64",
          "name": "_lastVerifiedBatch",
          "type": "uint64"
        },
        {
          "internalType": "uint64",
          "name": "newVerifiedBatch",
          "type": "uint64"
        },
        {
          "internalType": "bytes32",
          "name": "newLocalExitRoot",
          "type": "bytes32"
        },
        {
          "internalType": "bytes32",
          "name": "newStateRoot",
          "type": "bytes32"
        },
        {
          "internalType": "uint256[2]",
          "name": "proofA",
          "type": "uint256[2]"
        },
        {
          "internalType": "uint256[2][2]",
          "name": "proofB",
          "type": "uint256[2][2]"
        },
        {
          "internalType": "uint256[2]",
          "name": "proofC",
          "type": "uint256[2]"
        }
      ],
      "name": "verifyBatchesMock",
      "outputs": [],
      "stateMutability": "nonpayable",
      "type": "function"
    }
  ],
  "bytecode": "0x608060405234801561001057600080fd5b506151d6806100206000396000f3fe608060405234801561001057600080fd5b506004361061032b5760003560e01c80638c4a0af7116101b2578063c89e42df116100f9578063dbc16976116100a2578063eaeb077b1161007c578063eaeb077b14610810578063f2fde38b14610823578063f755276114610836578063fe16564f1461084557600080fd5b8063dbc16976146107b8578063e7a7ed02146107c0578063e8bf92ed146107f057600080fd5b8063d0ae98dd116100d3578063d0ae98dd14610765578063d8d1091b14610778578063d8f54db01461078b57600080fd5b8063c89e42df14610706578063cfa8ed4714610719578063d02103ca1461074557600080fd5b8063ab9fc5ef1161015b578063b4d63f5811610135578063b4d63f58146106ae578063b6b0b097146106ce578063c0cad302146106f357600080fd5b8063ab9fc5ef14610687578063adc879e914610691578063b02286c0146106a557600080fd5b806399f5634e1161018c57806399f5634e1461064c5780639b79676014610654578063a3c573eb1461066757600080fd5b80638c4a0af7146106085780638da5cb5b1461061b57806396dc3d391461063957600080fd5b80635437988d11610276578063715018a61161021f57806379847057116101f957806379847057146105d95780637fcb3653146105e157806381df7d3f146105f557600080fd5b8063715018a6146105ab5780637152facf146105b3578063748608de146105c657600080fd5b80636766f09d116102505780636766f09d146105655780636b8616ce146105785780636ff512cc1461059857600080fd5b80635437988d1461049e57806355b925e6146104b1578063574f649e146104c457600080fd5b806327eb6c0f116102d857806345605267116102b257806345605267146104405780635392c5e014610468578063542028d51461049657600080fd5b806327eb6c0f146103c85780633c1582671461040d578063423fa8561461042057600080fd5b80631a26da14116103095780631a26da14146103985780631c1083e2146103ad5780632072f6c5146103c057600080fd5b8063107bf28c1461033057806315064c961461034e57806319d8ac611461036b575b600080fd5b610338610858565b60405161034591906145eb565b60405180910390f35b60655461035b9060ff1681565b6040519015158152602001610345565b60685461037f9067ffffffffffffffff1681565b60405167ffffffffffffffff9091168152602001610345565b6103ab6103a636600461461b565b6108e6565b005b6103ab6103bb366004614672565b61090b565b6103ab610a17565b6070546103e89073ffffffffffffffffffffffffffffffffffffffff1681565b60405173ffffffffffffffffffffffffffffffffffffffff9091168152602001610345565b6103ab61041b3660046147cf565b610ac8565b60685461037f9068010000000000000000900467ffffffffffffffff1681565b60685461037f90700100000000000000000000000000000000900467ffffffffffffffff1681565b6104886104763660046148e6565b606b6020526000908152604090205481565b604051908152602001610345565b6103386113bf565b6103ab6104ac366004614672565b6113cc565b6103ab6104bf366004614918565b61141b565b6104886104d236600461499b565b835160209485012060408051808701979097528681019190915260608087019490945260c09290921b7fffffffffffffffff00000000000000000000000000000000000000000000000016608086015290911b7fffffffffffffffffffffffffffffffffffffffff0000000000000000000000001660888401528051808403607c018152609c9093019052815191012090565b6103ab610573366004614918565b6119e4565b6104886105863660046148e6565b60666020526000908152604090205481565b6103ab6105a6366004614672565b61202e565b6103ab612148565b6103386105c1366004614a11565b61215a565b6103ab6105d4366004614918565b612390565b6104886125f9565b60695461037f9067ffffffffffffffff1681565b6103ab610603366004614a6c565b612673565b6103ab610616366004614b66565b6129cc565b60335473ffffffffffffffffffffffffffffffffffffffff166103e8565b6103ab6106473660046148e6565b612ae6565b610488612b29565b6103ab6106623660046148e6565b612c5a565b6071546103e89073ffffffffffffffffffffffffffffffffffffffff1681565b61037f62093a8081565b606e5461037f9067ffffffffffffffff1681565b61048861ea6081565b6104886106bc3660046148e6565b60676020526000908152604090205481565b6065546103e890610100900473ffffffffffffffffffffffffffffffffffffffff1681565b6103ab610701366004614b83565b612ca9565b6103ab610714366004614b83565b612cc1565b6069546103e89068010000000000000000900473ffffffffffffffffffffffffffffffffffffffff1681565b606a546103e89073ffffffffffffffffffffffffffffffffffffffff1681565b610488610773366004614a11565b612d96565b6103ab610786366004614bc0565b613042565b60695461035b907c0100000000000000000000000000000000000000000000000000000000900460ff1681565b6103ab6136e7565b60685461037f907801000000000000000000000000000000000000000000000000900467ffffffffffffffff1681565b606c546103e89073ffffffffffffffffffffffffffffffffffffffff1681565b6103ab61081e366004614cb3565b613876565b6103ab610831366004614672565b613d76565b61048867016345785d8a000081565b6103ab610853366004614cf8565b613e13565b606f805461086590614d24565b80601f016020809104026020016040519081016040528092919081815260200182805461089190614d24565b80156108de5780601f106108b3576101008083540402835291602001916108de565b820191906000526020600020905b8154815290600101906020018083116108c157829003601f168201915b505050505081565b6108ee613e36565b67ffffffffffffffff909116600090815260676020526040902055565b60705473ffffffffffffffffffffffffffffffffffffffff16331461099d5760405162461bcd60e51b815260206004820152603d60248201527f50726f6f664f66456666696369656e63793a3a6f6e6c7953656375726974794360448201527f6f756e63696c3a206f6e6c7920736563757269747920636f756e63696c00000060648201526084015b60405180910390fd5b607080547fffffffffffffffffffffffff00000000000000000000000000000000000000001673ffffffffffffffffffffffffffffffffffffffff83169081179091556040519081527f373a9d1d60f01a33ff86d540991f09f5c5d7482656794de80be077c5eb9693d9906020015b60405180910390a150565b60655460ff1615610ab65760405162461bcd60e51b815260206004820152604260248201527f456d657267656e63794d616e616765723a3a69664e6f74456d657267656e637960448201527f53746174653a206f6e6c79206966206e6f7420656d657267656e63792073746160648201527f7465000000000000000000000000000000000000000000000000000000000000608482015260a401610994565b610abe613e36565b610ac6613e9d565b565b60655460ff1615610b675760405162461bcd60e51b815260206004820152604260248201527f456d657267656e63794d616e616765723a3a69664e6f74456d657267656e637960448201527f53746174653a206f6e6c79206966206e6f7420656d657267656e63792073746160648201527f7465000000000000000000000000000000000000000000000000000000000000608482015260a401610994565b60695468010000000000000000900473ffffffffffffffffffffffffffffffffffffffff163314610c005760405162461bcd60e51b815260206004820152603f60248201527f50726f6f664f66456666696369656e63793a3a6f6e6c7954727573746564536560448201527f7175656e6365723a206f6e6c7920747275737465642073657175656e636572006064820152608401610994565b805160685467ffffffffffffffff680100000000000000008204811660008181526067602052604081205483851694929370010000000000000000000000000000000090930490921691905b858110156111b0576000878281518110610c6857610c68614d77565b602002602001015190506000816060015167ffffffffffffffff161115610e815783610c9381614dd5565b945050600081600001518051906020012082602001518360600151604051602001610cf693929190928352602083019190915260c01b7fffffffffffffffff00000000000000000000000000000000000000000000000016604082015260480190565b60408051601f19818403018152918152815160209283012067ffffffffffffffff8816600090815260669093529120549091508114610dc35760405162461bcd60e51b815260206004820152604260248201527f50726f6f664f66456666696369656e63793a3a73657175656e6365426174636860448201527f65733a20466f7263656420626174636865732064617461206d757374206d617460648201527f6368000000000000000000000000000000000000000000000000000000000000608482015260a401610994565b816060015167ffffffffffffffff16826040015167ffffffffffffffff161015610e7b5760405162461bcd60e51b815260206004820152605d60248201527f50726f6f664f66456666696369656e63793a3a73657175656e6365426174636860448201527f65733a20466f7263656420626174636865732074696d657374616d70206d757360648201527f7420626520626967676572206f7220657175616c207468616e206d696e000000608482015260a401610994565b5061101b565b60208101511580610f305750606a5460208201516040517f257b363200000000000000000000000000000000000000000000000000000000815273ffffffffffffffffffffffffffffffffffffffff9092169163257b363291610eea9160040190815260200190565b6020604051808303816000875af1158015610f09573d6000803e3d6000fd5b505050506040513d601f19601f82011682018060405250810190610f2d9190614dfc565b15155b610fa25760405162461bcd60e51b815260206004820152603f60248201527f50726f6f664f66456666696369656e63793a3a73657175656e6365426174636860448201527f65733a20476c6f62616c206578697420726f6f74206d757374206578697374006064820152608401610994565b80515161ea601161101b5760405162461bcd60e51b815260206004820152603f60248201527f50726f6f664f66456666696369656e63793a3a73657175656e6365426174636860448201527f65733a205472616e73616374696f6e73206279746573206f766572666c6f77006064820152608401610994565b8567ffffffffffffffff16816040015167ffffffffffffffff1610158015611051575042816040015167ffffffffffffffff1611155b6110e95760405162461bcd60e51b815260206004820152604260248201527f50726f6f664f66456666696369656e63793a3a73657175656e6365426174636860448201527f65733a2054696d657374616d70206d75737420626520696e736964652072616e60648201527f6765000000000000000000000000000000000000000000000000000000000000608482015260a401610994565b805180516020918201208183015160408085015181519485018890529084019290925260608084019190915260c09190911b7fffffffffffffffff00000000000000000000000000000000000000000000000016608083015233901b7fffffffffffffffffffffffffffffffffffffffff000000000000000000000000166088820152609c01604051602081830303815290604052805190602001209250848061119290614dd5565b955050806040015195505080806111a890614e15565b915050610c4c565b5060685467ffffffffffffffff7801000000000000000000000000000000000000000000000000909104811690831611156112535760405162461bcd60e51b815260206004820152603a60248201527f50726f6f664f66456666696369656e63793a3a73657175656e6365426174636860448201527f65733a20466f7263652062617463686573206f766572666c6f770000000000006064820152608401610994565b60685460009061128190700100000000000000000000000000000000900467ffffffffffffffff1684614e4d565b6112959067ffffffffffffffff1687614e76565b6068805467ffffffffffffffff868116700100000000000000000000000000000000027fffffffffffffffff0000000000000000ffffffffffffffffffffffffffffffff8983166801000000000000000081027fffffffffffffffffffffffffffffffff00000000000000000000000000000000909516938c169390931793909317929092169190911790915560009081526067602052604090208390559050611372333061134c8467016345785d8a0000614e8d565b606554610100900473ffffffffffffffffffffffffffffffffffffffff16929190613f27565b6068546040516801000000000000000090910467ffffffffffffffff16907f303446e6a8cb73c83dff421c0b1d5e5ce0719dab1bff13660fc254e58cc17fce90600090a250505050505050565b606d805461086590614d24565b6113d4613e36565b606c80547fffffffffffffffffffffffff00000000000000000000000000000000000000001673ffffffffffffffffffffffffffffffffffffffff92909216919091179055565b60655460ff16156114ba5760405162461bcd60e51b815260206004820152604260248201527f456d657267656e63794d616e616765723a3a69664e6f74456d657267656e637960448201527f53746174653a206f6e6c79206966206e6f7420656d657267656e63792073746160648201527f7465000000000000000000000000000000000000000000000000000000000000608482015260a401610994565b60695467ffffffffffffffff90811690881611156115665760405162461bcd60e51b815260206004820152605b60248201527f50726f6f664f66456666696369656e63793a3a7665726966794261746368657360448201527f3a20696e69744e756d4261746368206d757374206265206c657373206f72206560648201527f7175616c207468616e206c617374566572696669656442617463680000000000608482015260a401610994565b60695467ffffffffffffffff908116908716116116115760405162461bcd60e51b815260206004820152605560248201527f50726f6f664f66456666696369656e63793a3a7665726966794261746368657360448201527f3a2066696e616c4e65774261746368206d75737420626520626967676572207460648201527f68616e206c617374566572696669656442617463680000000000000000000000608482015260a401610994565b67ffffffffffffffff87166000908152606b60205260409020546116c35760405162461bcd60e51b815260206004820152604860248201527f50726f6f664f66456666696369656e63793a3a7665726966794261746368657360448201527f3a20696e69744e756d426174636820737461746520726f6f7420646f6573206e60648201527f6f74206578697374000000000000000000000000000000000000000000000000608482015260a401610994565b60006116d18888888861215a565b905060007f30644e72e131a029b85045b68181585d2833e84879b9709143e1f593f00000016002836040516117069190614eca565b602060405180830381855afa158015611723573d6000803e3d6000fd5b5050506040513d601f19601f820116820180604052508101906117469190614dfc565b6117509190614f15565b606c546040805160208101825283815290517f43753b4d00000000000000000000000000000000000000000000000000000000815292935073ffffffffffffffffffffffffffffffffffffffff909116916343753b4d916117ba9189918991899190600401614f29565b602060405180830381865afa1580156117d7573d6000803e3d6000fd5b505050506040513d601f19601f820116820180604052508101906117fb9190614fa3565b61186d5760405162461bcd60e51b815260206004820152602f60248201527f50726f6f664f66456666696369656e63793a3a7665726966794261746368657360448201527f3a20494e56414c49445f50524f4f4600000000000000000000000000000000006064820152608401610994565b6069546118cb90339061188a9067ffffffffffffffff168b614e4d565b67ffffffffffffffff1661189c612b29565b6118a69190614e8d565b606554610100900473ffffffffffffffffffffffffffffffffffffffff169190613fe5565b606980547fffffffffffffffffffffffffffffffffffffffffffffffff00000000000000001667ffffffffffffffff8a169081179091556000908152606b602052604090819020879055606a5490517f33d6247d0000000000000000000000000000000000000000000000000000000081526004810189905273ffffffffffffffffffffffffffffffffffffffff909116906333d6247d90602401600060405180830381600087803b15801561198057600080fd5b505af1158015611994573d6000803e3d6000fd5b505060405188815233925067ffffffffffffffff8b1691507f9c72852172521097ba7e1482e6b44b351323df0155f97f4ea18fcec28e1f59669060200160405180910390a3505050505050505050565b60655460ff1615611a835760405162461bcd60e51b815260206004820152604260248201527f456d657267656e63794d616e616765723a3a69664e6f74456d657267656e637960448201527f53746174653a206f6e6c79206966206e6f7420656d657267656e63792073746160648201527f7465000000000000000000000000000000000000000000000000000000000000608482015260a401610994565b8567ffffffffffffffff168767ffffffffffffffff1610611b325760405162461bcd60e51b815260206004820152605660248201527f50726f6f664f66456666696369656e63793a3a70726f6f66446966666572656e60448201527f7453746174653a2066696e616c4e65774261746368206d75737420626520626960648201527f67676572207468616e20696e69744e756d426174636800000000000000000000608482015260a401610994565b60695467ffffffffffffffff9081169087161115611c045760405162461bcd60e51b815260206004820152606260248201527f50726f6f664f66456666696369656e63793a3a70726f6f66446966666572656e60448201527f7453746174653a2066696e616c4e65774261746368206d757374206265206c6560648201527f7373206f7220657175616c207468616e206c617374566572696669656442617460848201527f636800000000000000000000000000000000000000000000000000000000000060a482015260c401610994565b67ffffffffffffffff87166000908152606b6020526040902054611cb65760405162461bcd60e51b815260206004820152604e60248201527f50726f6f664f66456666696369656e63793a3a70726f6f66446966666572656e60448201527f7453746174653a20696e69744e756d426174636820737461746520726f6f742060648201527f646f6573206e6f74206578697374000000000000000000000000000000000000608482015260a401610994565b67ffffffffffffffff86166000908152606b6020526040902054611d685760405162461bcd60e51b815260206004820152604f60248201527f50726f6f664f66456666696369656e63793a3a70726f6f66446966666572656e60448201527f7453746174653a2066696e616c4e6577426174636820737461746520726f6f7460648201527f20646f6573206e6f742065786973740000000000000000000000000000000000608482015260a401610994565b6000611d768888888861215a565b905060007f30644e72e131a029b85045b68181585d2833e84879b9709143e1f593f0000001600283604051611dab9190614eca565b602060405180830381855afa158015611dc8573d6000803e3d6000fd5b5050506040513d601f19601f82011682018060405250810190611deb9190614dfc565b611df59190614f15565b606c546040805160208101825283815290517f43753b4d00000000000000000000000000000000000000000000000000000000815292935073ffffffffffffffffffffffffffffffffffffffff909116916343753b4d91611e5f9189918991899190600401614f29565b602060405180830381865afa158015611e7c573d6000803e3d6000fd5b505050506040513d601f19601f82011682018060405250810190611ea09190614fa3565b611f125760405162461bcd60e51b815260206004820152603560248201527f50726f6f664f66456666696369656e63793a3a70726f6f66446966666572656e60448201527f7453746174653a20494e56414c49445f50524f4f4600000000000000000000006064820152608401610994565b67ffffffffffffffff88166000908152606b6020526040902054869003611fc75760405162461bcd60e51b815260206004820152605960248201527f50726f6f664f66456666696369656e63793a3a70726f6f66446966666572656e60448201527f7453746174653a2073746f72656420726f6f74206d757374206265206469666660648201527f6572656e74207468616e206e657720737461746520726f6f7400000000000000608482015260a401610994565b67ffffffffffffffff88166000908152606b60209081526040918290205482519081529081018890527fe579d6d18f02941e1d0f59bff70f1b2c894edc991badab38343786df2846fe55910160405180910390a1612023613e9d565b505050505050505050565b60695468010000000000000000900473ffffffffffffffffffffffffffffffffffffffff1633146120c75760405162461bcd60e51b815260206004820152603f60248201527f50726f6f664f66456666696369656e63793a3a6f6e6c7954727573746564536560448201527f7175656e6365723a206f6e6c7920747275737465642073657175656e636572006064820152608401610994565b606980547fffffffff0000000000000000000000000000000000000000ffffffffffffffff166801000000000000000073ffffffffffffffffffffffffffffffffffffffff8416908102919091179091556040519081527ff54144f9611984021529f814a1cb6a41e22c58351510a0d9f7e822618abb9cc090602001610a0c565b612150613e36565b610ac66000614040565b67ffffffffffffffff80851660008181526067602052604080822054938716825290205460609291158061218d57508115155b6122255760405162461bcd60e51b815260206004820152604560248201527f50726f6f664f66456666696369656e63793a3a676574496e707574536e61726b60448201527f42797465733a206f6c64416363496e7075744861736820646f6573206e6f742060648201527f6578697374000000000000000000000000000000000000000000000000000000608482015260a401610994565b806122be5760405162461bcd60e51b815260206004820152604560248201527f50726f6f664f66456666696369656e63793a3a676574496e707574536e61726b60448201527f42797465733a206e6577416363496e7075744861736820646f6573206e6f742060648201527f6578697374000000000000000000000000000000000000000000000000000000608482015260a401610994565b67ffffffffffffffff87166000908152606b602090815260409182902054606e5492517fffffffffffffffffffffffffffffffffffffffff0000000000000000000000003360601b16928101929092526034820152605481018490527fffffffffffffffff00000000000000000000000000000000000000000000000060c08a811b8216607484015292831b8116607c8301526084820187905260a4820184905260c482018890529188901b90911660e482015260ec0160405160208183030381529060405292505050949350505050565b612398613e36565b60695467ffffffffffffffff90811690881611156124445760405162461bcd60e51b815260206004820152604a60248201527f50726f6f664f66456666696369656e63793a3a7665726966794261746368657360448201527f3a205f6c61737456657269666965644261746368206d757374206265206c657360648201527f73206f7220657175616c00000000000000000000000000000000000000000000608482015260a401610994565b60695467ffffffffffffffff908116908716116124ef5760405162461bcd60e51b815260206004820152605860248201527f50726f6f664f66456666696369656e63793a3a7665726966794261746368657360448201527f3a206e657756657269666965644261746368206d75737420626520626967676560648201527f72207468616e206c617374566572696669656442617463680000000000000000608482015260a401610994565b67ffffffffffffffff808816600090815260676020526040808220549289168252902054816125865760405162461bcd60e51b815260206004820152603e60248201527f50726f6f664f66456666696369656e63793a3a76657269667942617463683a2060448201527f6f6c64416363496e7075744861736820646f6573206e6f7420657869737400006064820152608401610994565b806118cb5760405162461bcd60e51b815260206004820152603e60248201527f50726f6f664f66456666696369656e63793a3a76657269667942617463683a2060448201527f6e6577416363496e7075744861736820646f6573206e6f7420657869737400006064820152608401610994565b60685460009067ffffffffffffffff7001000000000000000000000000000000008204811691612648917801000000000000000000000000000000000000000000000000909104166001614fc0565b6126529190614e4d565b61266e9067ffffffffffffffff16670de0b6b3a7640000614e8d565b905090565b600054610100900460ff16158080156126935750600054600160ff909116105b806126ad5750303b1580156126ad575060005460ff166001145b61271f5760405162461bcd60e51b815260206004820152602e60248201527f496e697469616c697a61626c653a20636f6e747261637420697320616c72656160448201527f647920696e697469616c697a65640000000000000000000000000000000000006064820152608401610994565b600080547fffffffffffffffffffffffffffffffffffffffffffffffffffffffffffffff00166001179055801561277d57600080547fffffffffffffffffffffffffffffffffffffffffffffffffffffffffffff00ff166101001790555b606a80547fffffffffffffffffffffffff000000000000000000000000000000000000000090811673ffffffffffffffffffffffffffffffffffffffff8f811691909117909255606580547fffffffffffffffffffffff0000000000000000000000000000000000000000ff166101008f851602179055606c80549091168c831617905560008052606b6020527fc8cc8bda7ad4886bea3ebbdafa02e79d37c39bf4011696b26a31a0802fd9458b8a9055606980547fffffff000000000000000000000000000000000000000000ffffffffffffffff1668010000000000000000928b16929092027fffffff00ffffffffffffffffffffffffffffffffffffffffffffffffffffffff16919091177c010000000000000000000000000000000000000000000000000000000089151502179055606d6128bc878261503a565b50606e80547fffffffffffffffffffffffffffffffffffffffffffffffff00000000000000001667ffffffffffffffff8716179055606f6128fd858261503a565b506071805473ffffffffffffffffffffffffffffffffffffffff8086167fffffffffffffffffffffffff000000000000000000000000000000000000000092831617909255607080549285169290911691909117905561295b6140b7565b80156129be57600080547fffffffffffffffffffffffffffffffffffffffffffffffffffffffffffff00ff169055604051600181527f7f26b83ff96e1f2b6a682f133852f6798a09c465da95921460cefb38474024989060200160405180910390a15b505050505050505050505050565b60695468010000000000000000900473ffffffffffffffffffffffffffffffffffffffff163314612a655760405162461bcd60e51b815260206004820152603f60248201527f50726f6f664f66456666696369656e63793a3a6f6e6c7954727573746564536560448201527f7175656e6365723a206f6e6c7920747275737465642073657175656e636572006064820152608401610994565b606980548215157c0100000000000000000000000000000000000000000000000000000000027fffffff00ffffffffffffffffffffffffffffffffffffffffffffffffffffffff9091161790556040517fbacda50a4a8575be1d91a7ebe29ee45056f3a94f12a2281eb6b43afa33bcefe690610a0c90831515815260200190565b612aee613e36565b606980547fffffffffffffffffffffffffffffffffffffffffffffffff00000000000000001667ffffffffffffffff92909216919091179055565b6065546040517f70a08231000000000000000000000000000000000000000000000000000000008152306004820152600091829161010090910473ffffffffffffffffffffffffffffffffffffffff16906370a0823190602401602060405180830381865afa158015612ba0573d6000803e3d6000fd5b505050506040513d601f19601f82011682018060405250810190612bc49190614dfc565b60695460685491925060009167ffffffffffffffff91821691680100000000000000008204811691612c299170010000000000000000000000000000000082048116917801000000000000000000000000000000000000000000000000900416614e4d565b612c339190614fc0565b612c3d9190614e4d565b67ffffffffffffffff169050612c538183615136565b9250505090565b612c62613e36565b6068805467ffffffffffffffff90921668010000000000000000027fffffffffffffffffffffffffffffffff0000000000000000ffffffffffffffff909216919091179055565b612cb1613e36565b606f612cbd828261503a565b5050565b60695468010000000000000000900473ffffffffffffffffffffffffffffffffffffffff163314612d5a5760405162461bcd60e51b815260206004820152603f60248201527f50726f6f664f66456666696369656e63793a3a6f6e6c7954727573746564536560448201527f7175656e6365723a206f6e6c7920747275737465642073657175656e636572006064820152608401610994565b606d612d66828261503a565b507f6b8f723a4c7a5335cafae8a598a0aa0301be1387c037dccc085b62add6448b2081604051610a0c91906145eb565b60695460009067ffffffffffffffff868116911614612e435760405162461bcd60e51b815260206004820152604160248201527f50726f6f664f66456666696369656e63793a3a76657269667942617463683a2060448201527f5f6c6173745665726966696564426174636820646f6573206e6f74206d61746360648201527f6800000000000000000000000000000000000000000000000000000000000000608482015260a401610994565b8467ffffffffffffffff168467ffffffffffffffff1611612ef25760405162461bcd60e51b815260206004820152605660248201527f50726f6f664f66456666696369656e63793a3a76657269667942617463683a2060448201527f6e657756657269666965644261746368206d757374206265206269676765722060648201527f7468616e206c6173745665726966696564426174636800000000000000000000608482015260a401610994565b60685467ffffffffffffffff6801000000000000000090910481169085161115612faa5760405162461bcd60e51b815260206004820152604260248201527f50726f6f664f66456666696369656e63793a3a76657269667942617463683a2060448201527f626174636820646f6573206e6f742068617665206265656e2073657175656e6360648201527f6564000000000000000000000000000000000000000000000000000000000000608482015260a401610994565b6000612fb88686868661215a565b905060007f30644e72e131a029b85045b68181585d2833e84879b9709143e1f593f0000001600283604051612fed9190614eca565b602060405180830381855afa15801561300a573d6000803e3d6000fd5b5050506040513d601f19601f8201168201806040525081019061302d9190614dfc565b6130379190614f15565b979650505050505050565b60655460ff16156130e15760405162461bcd60e51b815260206004820152604260248201527f456d657267656e63794d616e616765723a3a69664e6f74456d657267656e637960448201527f53746174653a206f6e6c79206966206e6f7420656d657267656e63792073746160648201527f7465000000000000000000000000000000000000000000000000000000000000608482015260a401610994565b6069547c0100000000000000000000000000000000000000000000000000000000900460ff1615156001146131a45760405162461bcd60e51b815260206004820152604860248201527f50726f6f664f66456666696369656e63793a3a6973466f72636542617463684160448201527f6c6c6f7765643a206f6e6c7920696620666f726365206261746368206973206160648201527f7661696c61626c65000000000000000000000000000000000000000000000000608482015260a401610994565b80518061323f5760405162461bcd60e51b815260206004820152604260248201527f50726f6f664f66456666696369656e63793a3a73657175656e6365466f72636560448201527f42617463683a204d75737420666f726365206174206c6561737420312062617460648201527f6368000000000000000000000000000000000000000000000000000000000000608482015260a401610994565b60685467ffffffffffffffff7801000000000000000000000000000000000000000000000000820481169161328a91849170010000000000000000000000000000000090041661514a565b11156132fe5760405162461bcd60e51b815260206004820152603a60248201527f50726f6f664f66456666696369656e63793a3a73657175656e6365466f72636560448201527f42617463683a20466f72636520626174636820696e76616c69640000000000006064820152608401610994565b60685467ffffffffffffffff680100000000000000008204811660008181526067602052604081205491937001000000000000000000000000000000009004909216915b8481101561361757600086828151811061335e5761335e614d77565b60200260200101519050838061337390614dd5565b825180516020918201208185015160408087015181519485019390935283015260c01b7fffffffffffffffff0000000000000000000000000000000000000000000000001660608201529095506000915060680160408051601f19818403018152918152815160209283012067ffffffffffffffff88166000908152606690935291205490915081146134945760405162461bcd60e51b815260206004820152604760248201527f50726f6f664f66456666696369656e63793a3a73657175656e6365466f72636560448201527f426174636865733a20466f7263656420626174636865732064617461206d757360648201527f74206d6174636800000000000000000000000000000000000000000000000000608482015260a401610994565b61349f600188614e76565b830361355d574262093a8083604001516134b99190614fc0565b67ffffffffffffffff16111561355d5760405162461bcd60e51b815260206004820152604c60248201527f50726f6f664f66456666696369656e63793a3a73657175656e6365466f72636560448201527f42617463683a20466f72636564206261746368206973206e6f7420696e20746960648201527f6d656f757420706572696f640000000000000000000000000000000000000000608482015260a401610994565b8151805160209182012081840151604080519384018890528301919091526060808301919091524260c01b7fffffffffffffffff00000000000000000000000000000000000000000000000016608083015233901b7fffffffffffffffffffffffffffffffffffffffff000000000000000000000000166088820152609c0160405160208183030381529060405280519060200120935085806135ff90614dd5565b9650505050808061360f90614e15565b915050613342565b50606880544267ffffffffffffffff9081167fffffffffffffffffffffffffffffffff000000000000000000000000000000009092169190911768010000000000000000868316818102929092177fffffffffffffffff0000000000000000ffffffffffffffffffffffffffffffff1670010000000000000000000000000000000087851602178455600091825260676020526040808320869055935493519304909116917f648a61dd2438f072f5a1960939abd30f37aea80d2e94c9792ad142d3e0a490a49190a25050505050565b60655460ff1661375f5760405162461bcd60e51b815260206004820152603b60248201527f456d657267656e63794d616e616765723a3a6966456d657267656e637953746160448201527f74653a206f6e6c7920696620656d657267656e637920737461746500000000006064820152608401610994565b60705473ffffffffffffffffffffffffffffffffffffffff1633146137ec5760405162461bcd60e51b815260206004820152603d60248201527f50726f6f664f66456666696369656e63793a3a6f6e6c7953656375726974794360448201527f6f756e63696c3a206f6e6c7920736563757269747920636f756e63696c0000006064820152608401610994565b607160009054906101000a900473ffffffffffffffffffffffffffffffffffffffff1673ffffffffffffffffffffffffffffffffffffffff1663dbc169766040518163ffffffff1660e01b8152600401600060405180830381600087803b15801561385657600080fd5b505af115801561386a573d6000803e3d6000fd5b50505050610ac661413d565b60655460ff16156139155760405162461bcd60e51b815260206004820152604260248201527f456d657267656e63794d616e616765723a3a69664e6f74456d657267656e637960448201527f53746174653a206f6e6c79206966206e6f7420656d657267656e63792073746160648201527f7465000000000000000000000000000000000000000000000000000000000000608482015260a401610994565b6069547c0100000000000000000000000000000000000000000000000000000000900460ff1615156001146139d85760405162461bcd60e51b815260206004820152604860248201527f50726f6f664f66456666696369656e63793a3a6973466f72636542617463684160448201527f6c6c6f7765643a206f6e6c7920696620666f726365206261746368206973206160648201527f7661696c61626c65000000000000000000000000000000000000000000000000608482015260a401610994565b60006139e26125f9565b905081811115613a5a5760405162461bcd60e51b815260206004820152602f60248201527f50726f6f664f66456666696369656e63793a3a666f72636542617463683a206e60448201527f6f7420656e6f756768206d6174696300000000000000000000000000000000006064820152608401610994565b61ea60835110613ad25760405162461bcd60e51b815260206004820152603a60248201527f50726f6f664f66456666696369656e63793a3a666f72636542617463683a205460448201527f72616e73616374696f6e73206279746573206f766572666c6f770000000000006064820152608401610994565b606554613afc90610100900473ffffffffffffffffffffffffffffffffffffffff16333084613f27565b606a54604080517f3ed691ef000000000000000000000000000000000000000000000000000000008152905160009273ffffffffffffffffffffffffffffffffffffffff1691633ed691ef9160048083019260209291908290030181865afa158015613b6c573d6000803e3d6000fd5b505050506040513d601f19601f82011682018060405250810190613b909190614dfc565b60688054919250780100000000000000000000000000000000000000000000000090910467ffffffffffffffff16906018613bca83614dd5565b91906101000a81548167ffffffffffffffff021916908367ffffffffffffffff1602179055505083805190602001208142604051602001613c4393929190928352602083019190915260c01b7fffffffffffffffff00000000000000000000000000000000000000000000000016604082015260480190565b60408051808303601f1901815291815281516020928301206068547801000000000000000000000000000000000000000000000000900467ffffffffffffffff1660009081526066909352912055323303613d1357606854604080518381523360208201526060918101829052600091810191909152780100000000000000000000000000000000000000000000000090910467ffffffffffffffff16907ff94bb37db835f1ab585ee00041849a09b12cd081d77fa15ca070757619cbc9319060800160405180910390a2613d70565b606860189054906101000a900467ffffffffffffffff1667ffffffffffffffff167ff94bb37db835f1ab585ee00041849a09b12cd081d77fa15ca070757619cbc931823387604051613d6793929190615162565b60405180910390a25b50505050565b613d7e613e36565b73ffffffffffffffffffffffffffffffffffffffff8116613e075760405162461bcd60e51b815260206004820152602660248201527f4f776e61626c653a206e6577206f776e657220697320746865207a65726f206160448201527f64647265737300000000000000000000000000000000000000000000000000006064820152608401610994565b613e1081614040565b50565b613e1b613e36565b67ffffffffffffffff166000908152606b6020526040902055565b60335473ffffffffffffffffffffffffffffffffffffffff163314610ac65760405162461bcd60e51b815260206004820181905260248201527f4f776e61626c653a2063616c6c6572206973206e6f7420746865206f776e65726044820152606401610994565b607160009054906101000a900473ffffffffffffffffffffffffffffffffffffffff1673ffffffffffffffffffffffffffffffffffffffff16632072f6c56040518163ffffffff1660e01b8152600401600060405180830381600087803b158015613f0757600080fd5b505af1158015613f1b573d6000803e3d6000fd5b50505050610ac6614208565b60405173ffffffffffffffffffffffffffffffffffffffff80851660248301528316604482015260648101829052613d709085907f23b872dd00000000000000000000000000000000000000000000000000000000906084015b60408051601f198184030181529190526020810180517bffffffffffffffffffffffffffffffffffffffffffffffffffffffff167fffffffff00000000000000000000000000000000000000000000000000000000909316929092179091526142fd565b60405173ffffffffffffffffffffffffffffffffffffffff831660248201526044810182905261403b9084907fa9059cbb0000000000000000000000000000000000000000000000000000000090606401613f81565b505050565b6033805473ffffffffffffffffffffffffffffffffffffffff8381167fffffffffffffffffffffffff0000000000000000000000000000000000000000831681179093556040519116919082907f8be0079c531659141344cd1fd0a4f28419497f9722a3daafe3b4186f6b6457e090600090a35050565b600054610100900460ff166141345760405162461bcd60e51b815260206004820152602b60248201527f496e697469616c697a61626c653a20636f6e7472616374206973206e6f74206960448201527f6e697469616c697a696e670000000000000000000000000000000000000000006064820152608401610994565b610ac633614040565b60655460ff166141b55760405162461bcd60e51b815260206004820152603b60248201527f456d657267656e63794d616e616765723a3a6966456d657267656e637953746160448201527f74653a206f6e6c7920696620656d657267656e637920737461746500000000006064820152608401610994565b606580547fffffffffffffffffffffffffffffffffffffffffffffffffffffffffffffff001690556040517f1e5e34eea33501aecf2ebec9fe0e884a40804275ea7fe10b2ba084c8374308b390600090a1565b60655460ff16156142a75760405162461bcd60e51b815260206004820152604260248201527f456d657267656e63794d616e616765723a3a69664e6f74456d657267656e637960448201527f53746174653a206f6e6c79206966206e6f7420656d657267656e63792073746160648201527f7465000000000000000000000000000000000000000000000000000000000000608482015260a401610994565b606580547fffffffffffffffffffffffffffffffffffffffffffffffffffffffffffffff001660011790556040517f2261efe5aef6fedc1fd1550b25facc9181745623049c7901287030b9ad1a549790600090a1565b600061435f826040518060400160405280602081526020017f5361666545524332303a206c6f772d6c6576656c2063616c6c206661696c65648152508573ffffffffffffffffffffffffffffffffffffffff166143ef9092919063ffffffff16565b80519091501561403b578080602001905181019061437d9190614fa3565b61403b5760405162461bcd60e51b815260206004820152602a60248201527f5361666545524332303a204552433230206f7065726174696f6e20646964206e60448201527f6f742073756363656564000000000000000000000000000000000000000000006064820152608401610994565b60606143fe8484600085614408565b90505b9392505050565b6060824710156144805760405162461bcd60e51b815260206004820152602660248201527f416464726573733a20696e73756666696369656e742062616c616e636520666f60448201527f722063616c6c00000000000000000000000000000000000000000000000000006064820152608401610994565b73ffffffffffffffffffffffffffffffffffffffff85163b6144e45760405162461bcd60e51b815260206004820152601d60248201527f416464726573733a2063616c6c20746f206e6f6e2d636f6e74726163740000006044820152606401610994565b6000808673ffffffffffffffffffffffffffffffffffffffff16858760405161450d9190614eca565b60006040518083038185875af1925050503d806000811461454a576040519150601f19603f3d011682016040523d82523d6000602084013e61454f565b606091505b509150915061303782828660608315614569575081614401565b8251156145795782518084602001fd5b8160405162461bcd60e51b815260040161099491906145eb565b60005b838110156145ae578181015183820152602001614596565b83811115613d705750506000910152565b600081518084526145d7816020860160208601614593565b601f01601f19169290920160200192915050565b60208152600061440160208301846145bf565b803567ffffffffffffffff8116811461461657600080fd5b919050565b6000806040838503121561462e57600080fd5b614637836145fe565b946020939093013593505050565b73ffffffffffffffffffffffffffffffffffffffff81168114613e1057600080fd5b803561461681614645565b60006020828403121561468457600080fd5b813561440181614645565b7f4e487b7100000000000000000000000000000000000000000000000000000000600052604160045260246000fd5b6040516080810167ffffffffffffffff811182821017156146e1576146e161468f565b60405290565b6040516060810167ffffffffffffffff811182821017156146e1576146e161468f565b604051601f8201601f1916810167ffffffffffffffff811182821017156147335761473361468f565b604052919050565b600067ffffffffffffffff8211156147555761475561468f565b5060051b60200190565b600082601f83011261477057600080fd5b813567ffffffffffffffff81111561478a5761478a61468f565b61479d6020601f19601f8401160161470a565b8181528460208386010111156147b257600080fd5b816020850160208301376000918101602001919091529392505050565b600060208083850312156147e257600080fd5b823567ffffffffffffffff808211156147fa57600080fd5b818501915085601f83011261480e57600080fd5b813561482161481c8261473b565b61470a565b81815260059190911b8301840190848101908883111561484057600080fd5b8585015b838110156148d95780358581111561485c5760008081fd5b86016080818c03601f19018113156148745760008081fd5b61487c6146be565b898301358881111561488e5760008081fd5b61489c8e8c8387010161475f565b8252506040808401358b83015260606148b68186016145fe565b828401526148c58486016145fe565b908301525085525050918601918601614844565b5098975050505050505050565b6000602082840312156148f857600080fd5b614401826145fe565b806040810183101561491257600080fd5b92915050565b6000806000806000806000610180888a03121561493457600080fd5b61493d886145fe565b965061494b602089016145fe565b955060408801359450606088013593506149688960808a01614901565b925061014088018981111561497c57600080fd5b60c08901925061498c8a82614901565b91505092959891949750929550565b600080600080600060a086880312156149b357600080fd5b85359450602086013567ffffffffffffffff8111156149d157600080fd5b6149dd8882890161475f565b945050604086013592506149f3606087016145fe565b91506080860135614a0381614645565b809150509295509295909350565b60008060008060808587031215614a2757600080fd5b614a30856145fe565b9350614a3e602086016145fe565b93969395505050506040820135916060013590565b8015158114613e1057600080fd5b803561461681614a53565b60008060008060008060008060008060006101608c8e031215614a8e57600080fd5b614a978c614667565b9a50614aa560208d01614667565b9950614ab360408d01614667565b985060608c01359750614ac860808d01614667565b9650614ad660a08d01614a61565b955067ffffffffffffffff8060c08e01351115614af257600080fd5b614b028e60c08f01358f0161475f565b9550614b1060e08e016145fe565b9450806101008e01351115614b2457600080fd5b50614b368d6101008e01358e0161475f565b9250614b456101208d01614667565b9150614b546101408d01614667565b90509295989b509295989b9093969950565b600060208284031215614b7857600080fd5b813561440181614a53565b600060208284031215614b9557600080fd5b813567ffffffffffffffff811115614bac57600080fd5b614bb88482850161475f565b949350505050565b60006020808385031215614bd357600080fd5b823567ffffffffffffffff80821115614beb57600080fd5b818501915085601f830112614bff57600080fd5b8135614c0d61481c8261473b565b81815260059190911b83018401908481019088831115614c2c57600080fd5b8585015b838110156148d957803585811115614c485760008081fd5b86016060818c03601f1901811315614c605760008081fd5b614c686146e7565b8983013588811115614c7a5760008081fd5b614c888e8c8387010161475f565b8252506040808401358b830152614ca08385016145fe565b9082015285525050918601918601614c30565b60008060408385031215614cc657600080fd5b823567ffffffffffffffff811115614cdd57600080fd5b614ce98582860161475f565b95602094909401359450505050565b60008060408385031215614d0b57600080fd5b82359150614d1b602084016145fe565b90509250929050565b600181811c90821680614d3857607f821691505b602082108103614d71577f4e487b7100000000000000000000000000000000000000000000000000000000600052602260045260246000fd5b50919050565b7f4e487b7100000000000000000000000000000000000000000000000000000000600052603260045260246000fd5b7f4e487b7100000000000000000000000000000000000000000000000000000000600052601160045260246000fd5b600067ffffffffffffffff808316818103614df257614df2614da6565b6001019392505050565b600060208284031215614e0e57600080fd5b5051919050565b60007fffffffffffffffffffffffffffffffffffffffffffffffffffffffffffffffff8203614e4657614e46614da6565b5060010190565b600067ffffffffffffffff83811690831681811015614e6e57614e6e614da6565b039392505050565b600082821015614e8857614e88614da6565b500390565b6000817fffffffffffffffffffffffffffffffffffffffffffffffffffffffffffffffff0483118215151615614ec557614ec5614da6565b500290565b60008251614edc818460208701614593565b9190910192915050565b7f4e487b7100000000000000000000000000000000000000000000000000000000600052601260045260246000fd5b600082614f2457614f24614ee6565b500690565b61012081016040808784376000838201818152879190815b6002811015614f6157848483379084018281529284019290600101614f41565b5050828760c0870137610100850181815286935091505b6001811015614f97578251825260209283019290910190600101614f78565b50505095945050505050565b600060208284031215614fb557600080fd5b815161440181614a53565b600067ffffffffffffffff808316818516808303821115614fe357614fe3614da6565b01949350505050565b601f82111561403b57600081815260208120601f850160051c810160208610156150135750805b601f850160051c820191505b818110156150325782815560010161501f565b505050505050565b815167ffffffffffffffff8111156150545761505461468f565b615068816150628454614d24565b84614fec565b602080601f8311600181146150bb57600084156150855750858301515b7fffffffffffffffffffffffffffffffffffffffffffffffffffffffffffffffff600386901b1c1916600185901b178555615032565b600085815260208120601f198616915b828110156150ea578886015182559484019460019091019084016150cb565b508582101561512657878501517fffffffffffffffffffffffffffffffffffffffffffffffffffffffffffffffff600388901b60f8161c191681555b5050505050600190811b01905550565b60008261514557615145614ee6565b500490565b6000821982111561515d5761515d614da6565b500190565b83815273ffffffffffffffffffffffffffffffffffffffff8316602082015260606040820152600061519760608301846145bf565b9594505050505056fea26469706673582212208552e321306e2f9188d5ca8e7c86580615c0151b5d2e9c81b876214ae57ff2bc64736f6c634300080f0033",
  "linkReferences": {},
  "deployedLinkReferences": {}
}