{
  "_format": "hh-sol-artifact-1",
  "contractName": "ProofOfEfficiencyMock",
  "sourceName": "contracts/mocks/ProofOfEfficiencyMock.sol",
  "abi": [
    {
      "anonymous": false,
      "inputs": [
        {
          "indexed": true,
          "internalType": "uint64",
          "name": "forceBatchNum",
          "type": "uint64"
        },
        {
          "indexed": false,
          "internalType": "bytes32",
          "name": "lastGlobalExitRoot",
          "type": "bytes32"
        },
        {
          "indexed": false,
          "internalType": "address",
          "name": "sequencer",
          "type": "address"
        },
        {
          "indexed": false,
          "internalType": "bytes",
          "name": "transactions",
          "type": "bytes"
        }
      ],
      "name": "ForceBatch",
      "type": "event"
    },
    {
      "anonymous": false,
      "inputs": [
        {
          "indexed": false,
          "internalType": "uint8",
          "name": "version",
          "type": "uint8"
        }
      ],
      "name": "Initialized",
      "type": "event"
    },
    {
      "anonymous": false,
      "inputs": [
        {
          "indexed": true,
          "internalType": "address",
          "name": "previousOwner",
          "type": "address"
        },
        {
          "indexed": true,
          "internalType": "address",
          "name": "newOwner",
          "type": "address"
        }
      ],
      "name": "OwnershipTransferred",
      "type": "event"
    },
    {
      "anonymous": false,
      "inputs": [
        {
          "indexed": true,
          "internalType": "uint64",
          "name": "numBatch",
          "type": "uint64"
        }
      ],
      "name": "SequenceBatches",
      "type": "event"
    },
    {
      "anonymous": false,
      "inputs": [
        {
          "indexed": true,
          "internalType": "uint64",
          "name": "numBatch",
          "type": "uint64"
        }
      ],
      "name": "SequenceForceBatches",
      "type": "event"
    },
    {
      "anonymous": false,
      "inputs": [
        {
          "indexed": false,
          "internalType": "bool",
          "name": "newForceBatchAllowed",
          "type": "bool"
        }
      ],
      "name": "SetForceBatchAllowed",
      "type": "event"
    },
    {
      "anonymous": false,
      "inputs": [
        {
          "indexed": false,
          "internalType": "address",
          "name": "newTrustedSequencer",
          "type": "address"
        }
      ],
      "name": "SetTrustedSequencer",
      "type": "event"
    },
    {
      "anonymous": false,
      "inputs": [
        {
          "indexed": false,
          "internalType": "string",
          "name": "newTrustedSequencerURL",
          "type": "string"
        }
      ],
      "name": "SetTrustedSequencerURL",
      "type": "event"
    },
    {
      "anonymous": false,
      "inputs": [
        {
          "indexed": true,
          "internalType": "uint64",
          "name": "numBatch",
          "type": "uint64"
        },
        {
          "indexed": true,
          "internalType": "address",
          "name": "aggregator",
          "type": "address"
        }
      ],
      "name": "VerifyBatch",
      "type": "event"
    },
    {
      "inputs": [],
      "name": "FORCE_BATCH_TIMEOUT",
      "outputs": [
        {
          "internalType": "uint64",
          "name": "",
          "type": "uint64"
        }
      ],
      "stateMutability": "view",
      "type": "function"
    },
    {
      "inputs": [],
      "name": "MAX_BATCH_LENGTH",
      "outputs": [
        {
          "internalType": "uint256",
          "name": "",
          "type": "uint256"
        }
      ],
      "stateMutability": "view",
      "type": "function"
    },
    {
      "inputs": [],
      "name": "TRUSTED_SEQUENCER_FEE",
      "outputs": [
        {
          "internalType": "uint256",
          "name": "",
          "type": "uint256"
        }
      ],
      "stateMutability": "view",
      "type": "function"
    },
    {
      "inputs": [],
      "name": "calculateForceProverFee",
      "outputs": [
        {
          "internalType": "uint256",
          "name": "",
          "type": "uint256"
        }
      ],
      "stateMutability": "view",
      "type": "function"
    },
    {
      "inputs": [
        {
          "internalType": "bytes32",
          "name": "currentStateRoot",
          "type": "bytes32"
        },
        {
          "internalType": "bytes32",
          "name": "currentLocalExitRoot",
          "type": "bytes32"
        },
        {
          "internalType": "bytes32",
          "name": "newStateRoot",
          "type": "bytes32"
        },
        {
          "internalType": "bytes32",
          "name": "newLocalExitRoot",
          "type": "bytes32"
        },
        {
          "internalType": "bytes32",
          "name": "batchHashData",
          "type": "bytes32"
        },
        {
          "internalType": "uint64",
          "name": "numBatch",
          "type": "uint64"
        },
        {
          "internalType": "uint64",
          "name": "timestamp",
          "type": "uint64"
        },
        {
          "internalType": "address",
          "name": "aggregatorAddress",
          "type": "address"
        }
      ],
      "name": "calculateSnarkInput",
      "outputs": [
        {
          "internalType": "uint256",
          "name": "",
          "type": "uint256"
        }
      ],
      "stateMutability": "pure",
      "type": "function"
    },
    {
      "inputs": [
        {
          "internalType": "bytes32",
          "name": "currentStateRoot",
          "type": "bytes32"
        },
        {
          "internalType": "bytes32",
          "name": "currentLocalExitRoot",
          "type": "bytes32"
        },
        {
          "internalType": "bytes32",
          "name": "newStateRoot",
          "type": "bytes32"
        },
        {
          "internalType": "bytes32",
          "name": "newLocalExitRoot",
          "type": "bytes32"
        },
        {
          "internalType": "bytes32",
          "name": "batchHashData",
          "type": "bytes32"
        },
        {
          "internalType": "uint64",
          "name": "numBatch",
          "type": "uint64"
        },
        {
          "internalType": "uint64",
          "name": "timestamp",
          "type": "uint64"
        }
      ],
      "name": "calculateStarkInput",
      "outputs": [
        {
          "internalType": "bytes32",
          "name": "",
          "type": "bytes32"
        }
      ],
      "stateMutability": "pure",
      "type": "function"
    },
    {
      "inputs": [],
      "name": "currentLocalExitRoot",
      "outputs": [
        {
          "internalType": "bytes32",
          "name": "",
          "type": "bytes32"
        }
      ],
      "stateMutability": "view",
      "type": "function"
    },
    {
      "inputs": [],
      "name": "currentStateRoot",
      "outputs": [
        {
          "internalType": "bytes32",
          "name": "",
          "type": "bytes32"
        }
      ],
      "stateMutability": "view",
      "type": "function"
    },
    {
      "inputs": [
        {
          "internalType": "bytes",
          "name": "transactions",
          "type": "bytes"
        },
        {
          "internalType": "uint256",
          "name": "maticAmount",
          "type": "uint256"
        }
      ],
      "name": "forceBatch",
      "outputs": [],
      "stateMutability": "nonpayable",
      "type": "function"
    },
    {
      "inputs": [],
      "name": "forceBatchAllowed",
      "outputs": [
        {
          "internalType": "bool",
          "name": "",
          "type": "bool"
        }
      ],
      "stateMutability": "view",
      "type": "function"
    },
    {
      "inputs": [
        {
          "internalType": "uint64",
          "name": "",
          "type": "uint64"
        }
      ],
      "name": "forcedBatches",
      "outputs": [
        {
          "internalType": "bytes32",
          "name": "batchHashData",
          "type": "bytes32"
        },
        {
          "internalType": "uint256",
          "name": "maticFee",
          "type": "uint256"
        },
        {
          "internalType": "uint64",
          "name": "minTimestamp",
          "type": "uint64"
        }
      ],
      "stateMutability": "view",
      "type": "function"
    },
    {
      "inputs": [
        {
          "internalType": "bytes32",
          "name": "newLocalExitRoot",
          "type": "bytes32"
        },
        {
          "internalType": "bytes32",
          "name": "newStateRoot",
          "type": "bytes32"
        },
        {
          "internalType": "uint64",
          "name": "numBatch",
          "type": "uint64"
        }
      ],
      "name": "getNextSnarkInput",
      "outputs": [
        {
          "internalType": "uint256",
          "name": "",
          "type": "uint256"
        }
      ],
      "stateMutability": "view",
      "type": "function"
    },
    {
      "inputs": [],
      "name": "globalExitRootManager",
      "outputs": [
        {
          "internalType": "contract IGlobalExitRootManager",
          "name": "",
          "type": "address"
        }
      ],
      "stateMutability": "view",
      "type": "function"
    },
    {
      "inputs": [
        {
          "internalType": "contract IGlobalExitRootManager",
          "name": "_globalExitRootManager",
          "type": "address"
        },
        {
          "internalType": "contract IERC20Upgradeable",
          "name": "_matic",
          "type": "address"
        },
        {
          "internalType": "contract IVerifierRollup",
          "name": "_rollupVerifier",
          "type": "address"
        },
        {
          "internalType": "bytes32",
          "name": "genesisRoot",
          "type": "bytes32"
        },
        {
          "internalType": "address",
          "name": "_trustedSequencer",
          "type": "address"
        },
        {
          "internalType": "bool",
          "name": "_forceBatchAllowed",
          "type": "bool"
        },
        {
          "internalType": "string",
          "name": "_trustedSequencerURL",
          "type": "string"
        }
      ],
      "name": "initialize",
      "outputs": [],
      "stateMutability": "nonpayable",
      "type": "function"
    },
    {
      "inputs": [],
      "name": "lastBatchSequenced",
      "outputs": [
        {
          "internalType": "uint64",
          "name": "",
          "type": "uint64"
        }
      ],
      "stateMutability": "view",
      "type": "function"
    },
    {
      "inputs": [],
      "name": "lastForceBatch",
      "outputs": [
        {
          "internalType": "uint64",
          "name": "",
          "type": "uint64"
        }
      ],
      "stateMutability": "view",
      "type": "function"
    },
    {
      "inputs": [],
      "name": "lastForceBatchSequenced",
      "outputs": [
        {
          "internalType": "uint64",
          "name": "",
          "type": "uint64"
        }
      ],
      "stateMutability": "view",
      "type": "function"
    },
    {
      "inputs": [],
      "name": "lastTimestamp",
      "outputs": [
        {
          "internalType": "uint64",
          "name": "",
          "type": "uint64"
        }
      ],
      "stateMutability": "view",
      "type": "function"
    },
    {
      "inputs": [],
      "name": "lastVerifiedBatch",
      "outputs": [
        {
          "internalType": "uint64",
          "name": "",
          "type": "uint64"
        }
      ],
      "stateMutability": "view",
      "type": "function"
    },
    {
      "inputs": [],
      "name": "matic",
      "outputs": [
        {
          "internalType": "contract IERC20Upgradeable",
          "name": "",
          "type": "address"
        }
      ],
      "stateMutability": "view",
      "type": "function"
    },
    {
      "inputs": [],
      "name": "owner",
      "outputs": [
        {
          "internalType": "address",
          "name": "",
          "type": "address"
        }
      ],
      "stateMutability": "view",
      "type": "function"
    },
    {
      "inputs": [],
      "name": "renounceOwnership",
      "outputs": [],
      "stateMutability": "nonpayable",
      "type": "function"
    },
    {
      "inputs": [
        {
          "internalType": "bytes32",
          "name": "newLocalExitRoot",
          "type": "bytes32"
        },
        {
          "internalType": "bytes32",
          "name": "newStateRoot",
          "type": "bytes32"
        },
        {
          "internalType": "uint32",
          "name": "numBatch",
          "type": "uint32"
        }
      ],
      "name": "returnInputHashParameters",
      "outputs": [
        {
          "internalType": "bytes",
          "name": "",
          "type": "bytes"
        }
      ],
      "stateMutability": "view",
      "type": "function"
    },
    {
      "inputs": [],
      "name": "rollupVerifier",
      "outputs": [
        {
          "internalType": "contract IVerifierRollup",
          "name": "",
          "type": "address"
        }
      ],
      "stateMutability": "view",
      "type": "function"
    },
    {
      "inputs": [
        {
          "components": [
            {
              "internalType": "bytes",
              "name": "transactions",
              "type": "bytes"
            },
            {
              "internalType": "bytes32",
              "name": "globalExitRoot",
              "type": "bytes32"
            },
            {
              "internalType": "uint64",
              "name": "timestamp",
              "type": "uint64"
            },
            {
              "internalType": "uint64[]",
              "name": "forceBatchesTimestamp",
              "type": "uint64[]"
            }
          ],
          "internalType": "struct ProofOfEfficiency.BatchData[]",
          "name": "batches",
          "type": "tuple[]"
        }
      ],
      "name": "sequenceBatches",
      "outputs": [],
      "stateMutability": "nonpayable",
      "type": "function"
    },
    {
      "inputs": [
        {
          "internalType": "uint64",
          "name": "numForcedBatches",
          "type": "uint64"
        }
      ],
      "name": "sequenceForceBatches",
      "outputs": [],
      "stateMutability": "nonpayable",
      "type": "function"
    },
    {
      "inputs": [
        {
          "internalType": "uint64",
          "name": "",
          "type": "uint64"
        }
      ],
      "name": "sequencedBatches",
      "outputs": [
        {
          "internalType": "bytes32",
          "name": "batchHashData",
          "type": "bytes32"
        },
        {
          "internalType": "uint64",
          "name": "timestamp",
          "type": "uint64"
        },
        {
          "internalType": "uint64",
          "name": "forceBatchNum",
          "type": "uint64"
        }
      ],
      "stateMutability": "view",
      "type": "function"
    },
    {
      "inputs": [
        {
          "internalType": "bytes32",
          "name": "newLocalExitRoot",
          "type": "bytes32"
        }
      ],
      "name": "setExitRoot",
      "outputs": [],
      "stateMutability": "nonpayable",
      "type": "function"
    },
    {
      "inputs": [
        {
          "internalType": "bool",
          "name": "newForceBatchAllowed",
          "type": "bool"
        }
      ],
      "name": "setForceBatchAllowed",
      "outputs": [],
      "stateMutability": "nonpayable",
      "type": "function"
    },
    {
      "inputs": [
        {
          "internalType": "uint64",
          "name": "_numBatch",
          "type": "uint64"
        }
      ],
      "name": "setSequencedBatch",
      "outputs": [],
      "stateMutability": "nonpayable",
      "type": "function"
    },
    {
      "inputs": [
        {
          "internalType": "bytes32",
          "name": "newStateRoot",
          "type": "bytes32"
        }
      ],
      "name": "setStateRoot",
      "outputs": [],
      "stateMutability": "nonpayable",
      "type": "function"
    },
    {
      "inputs": [
        {
          "internalType": "address",
          "name": "newTrustedSequencer",
          "type": "address"
        }
      ],
      "name": "setTrustedSequencer",
      "outputs": [],
      "stateMutability": "nonpayable",
      "type": "function"
    },
    {
      "inputs": [
        {
          "internalType": "string",
          "name": "newTrustedSequencerURL",
          "type": "string"
        }
      ],
      "name": "setTrustedSequencerURL",
      "outputs": [],
      "stateMutability": "nonpayable",
      "type": "function"
    },
    {
      "inputs": [
        {
          "internalType": "uint64",
          "name": "_numBatch",
          "type": "uint64"
        }
      ],
      "name": "setVerifiedBatch",
      "outputs": [],
      "stateMutability": "nonpayable",
      "type": "function"
    },
    {
      "inputs": [
        {
          "internalType": "contract IVerifierRollup",
          "name": "_rollupVerifier",
          "type": "address"
        }
      ],
      "name": "setVerifier",
      "outputs": [],
      "stateMutability": "nonpayable",
      "type": "function"
    },
    {
      "inputs": [
        {
          "internalType": "address",
          "name": "newOwner",
          "type": "address"
        }
      ],
      "name": "transferOwnership",
      "outputs": [],
      "stateMutability": "nonpayable",
      "type": "function"
    },
    {
      "inputs": [],
      "name": "trustedSequencer",
      "outputs": [
        {
          "internalType": "address",
          "name": "",
          "type": "address"
        }
      ],
      "stateMutability": "view",
      "type": "function"
    },
    {
      "inputs": [],
      "name": "trustedSequencerURL",
      "outputs": [
        {
          "internalType": "string",
          "name": "",
          "type": "string"
        }
      ],
      "stateMutability": "view",
      "type": "function"
    },
    {
      "inputs": [
        {
          "internalType": "bytes32",
          "name": "newLocalExitRoot",
          "type": "bytes32"
        },
        {
          "internalType": "bytes32",
          "name": "newStateRoot",
          "type": "bytes32"
        },
        {
          "internalType": "uint64",
          "name": "numBatch",
          "type": "uint64"
        },
        {
          "internalType": "uint256[2]",
          "name": "proofA",
          "type": "uint256[2]"
        },
        {
          "internalType": "uint256[2][2]",
          "name": "proofB",
          "type": "uint256[2][2]"
        },
        {
          "internalType": "uint256[2]",
          "name": "proofC",
          "type": "uint256[2]"
        }
      ],
      "name": "verifyBatch",
      "outputs": [],
      "stateMutability": "nonpayable",
      "type": "function"
    },
    {
      "inputs": [
        {
          "internalType": "bytes32",
          "name": "newLocalExitRoot",
          "type": "bytes32"
        },
        {
          "internalType": "bytes32",
          "name": "newStateRoot",
          "type": "bytes32"
        },
        {
          "internalType": "uint64",
          "name": "numBatch",
          "type": "uint64"
        },
        {
          "internalType": "uint256[2]",
          "name": "proofA",
          "type": "uint256[2]"
        },
        {
          "internalType": "uint256[2][2]",
          "name": "proofB",
          "type": "uint256[2][2]"
        },
        {
          "internalType": "uint256[2]",
          "name": "proofC",
          "type": "uint256[2]"
        }
      ],
      "name": "verifyBatchMock",
      "outputs": [],
      "stateMutability": "nonpayable",
      "type": "function"
    }
  ],
  "bytecode": "0x608060405234801561001057600080fd5b506144d0806100206000396000f3fe608060405234801561001057600080fd5b50600436106102c85760003560e01c8063959c2f471161017b578063cfa8ed47116100d8578063e8bf92ed1161008c578063f2fde38b11610071578063f2fde38b1461076f578063f755276114610782578063f7d2cd7f1461079157600080fd5b8063e8bf92ed1461073c578063eaeb077b1461075c57600080fd5b8063d307b743116100bd578063d307b743146106bc578063d8f54db0146106cf578063e7a7ed021461070c57600080fd5b8063cfa8ed4714610670578063d02103ca1461069c57600080fd5b8063ac2eba981161012f578063b4d63f5811610114578063b4d63f58146105d0578063b6b0b09714610637578063c89e42df1461065d57600080fd5b8063ac2eba98146105be578063b02286c0146105c757600080fd5b80639b796760116101605780639b7967601461058e578063aa0f4418146105a1578063ab9fc5ef146105b457600080fd5b8063959c2f471461057257806396dc3d391461057b57600080fd5b806357177ef51161022957806379847057116101dd5780638c4a0af7116101c25780638c4a0af71461050d5780638da5cb5b1461052057806395297e241461055f57600080fd5b806379847057146104f15780637fcb3653146104f957600080fd5b80636b8616ce1161020e5780636b8616ce146104795780636ff512cc146104d6578063715018a6146104e957600080fd5b806357177ef5146104535780636b4110071461046657600080fd5b806325d0a8f51161028057806345605267116102655780634560526714610410578063542028d5146104385780635437988d1461044057600080fd5b806325d0a8f5146103d0578063423fa856146103f057600080fd5b8063116c40c3116102b1578063116c40c3146102f5578063188c69b41461030857806319d8ac61146103a357600080fd5b8063076f9e36146102cd578063086f9199146102e2575b600080fd5b6102e06102db3660046138f9565b6107a4565b005b6102e06102f0366004613acf565b610a48565b6102e0610303366004613b73565b610cfa565b610390610316366004613b8c565b60408051602080820199909952808201979097526060870195909552608086019390935260a08501919091527fffffffffffffffff00000000000000000000000000000000000000000000000060c091821b81168286015291901b1660c8830152805180830360b001815260d09092019052805191012090565b6040519081526020015b60405180910390f35b6003546103b79067ffffffffffffffff1681565b60405167ffffffffffffffff909116815260200161039a565b6103e36103de366004613bef565b610d07565b60405161039a9190613ca7565b6003546103b79068010000000000000000900467ffffffffffffffff1681565b6003546103b790700100000000000000000000000000000000900467ffffffffffffffff1681565b6103e3610f2b565b6102e061044e366004613cba565b610fb9565b610390610461366004613cd7565b611008565b610390610474366004613d0c565b61130b565b6104b1610487366004613d84565b600160208190526000918252604090912080549181015460029091015467ffffffffffffffff1683565b60408051938452602084019290925267ffffffffffffffff169082015260600161039a565b6102e06104e4366004613cba565b61146e565b6102e06115a9565b6103906115bd565b6004546103b79067ffffffffffffffff1681565b6102e061051b366004613d9f565b611637565b603c5473ffffffffffffffffffffffffffffffffffffffff165b60405173ffffffffffffffffffffffffffffffffffffffff909116815260200161039a565b6102e061056d3660046138f9565b61176b565b61039060075481565b6102e0610589366004613d84565b611da2565b6102e061059c366004613d84565b611de5565b6102e06105af366004613d84565b611e34565b6103b762093a8081565b61039060065481565b61039061ea6081565b6106116105de366004613d84565b6002602052600090815260409020805460019091015467ffffffffffffffff808216916801000000000000000090041683565b6040805193845267ffffffffffffffff928316602085015291169082015260600161039a565b60005461053a9062010000900473ffffffffffffffffffffffffffffffffffffffff1681565b6102e061066b366004613dbc565b612382565b60045461053a9068010000000000000000900473ffffffffffffffffffffffffffffffffffffffff1681565b60055461053a9073ffffffffffffffffffffffffffffffffffffffff1681565b6102e06106ca366004613b73565b612471565b6004546106fc907c0100000000000000000000000000000000000000000000000000000000900460ff1681565b604051901515815260200161039a565b6003546103b7907801000000000000000000000000000000000000000000000000900467ffffffffffffffff1681565b60085461053a9073ffffffffffffffffffffffffffffffffffffffff1681565b6102e061076a366004613df1565b61247e565b6102e061077d366004613cba565b612964565b61039067016345785d8a000081565b6102e061079f366004613e5a565b612a1b565b6107ac61324b565b6004546107c49067ffffffffffffffff16600161402e565b67ffffffffffffffff168467ffffffffffffffff161461086b576040517f08c379a000000000000000000000000000000000000000000000000000000000815260206004820152603460248201527f50726f6f664f66456666696369656e63793a3a76657269667942617463683a2060448201527f626174636820646f6573206e6f74206d6174636800000000000000000000000060648201526084015b60405180910390fd5b60035467ffffffffffffffff680100000000000000009091048116908516111561093d576040517f08c379a000000000000000000000000000000000000000000000000000000000815260206004820152604260248201527f50726f6f664f66456666696369656e63793a3a76657269667942617463683a2060448201527f626174636820646f6573206e6f742068617665206265656e2073657175656e6360648201527f6564000000000000000000000000000000000000000000000000000000000000608482015260a401610862565b6004805467ffffffffffffffff169060006109578361405a565b825467ffffffffffffffff9182166101009390930a928302919092021990911617905550600685905560078690556005546040517f33d6247d0000000000000000000000000000000000000000000000000000000081526004810188905273ffffffffffffffffffffffffffffffffffffffff909116906333d6247d90602401600060405180830381600087803b1580156109f157600080fd5b505af1158015610a05573d6000803e3d6000fd5b505060405133925067ffffffffffffffff871691507f2cdf1508085a46c7241a7d78c5a1ec3d9246d1ab95e1c2a33676d29e17d4222390600090a3505050505050565b600054610100900460ff1615808015610a685750600054600160ff909116105b80610a825750303b158015610a82575060005460ff166001145b610b0e576040517f08c379a000000000000000000000000000000000000000000000000000000000815260206004820152602e60248201527f496e697469616c697a61626c653a20636f6e747261637420697320616c72656160448201527f647920696e697469616c697a65640000000000000000000000000000000000006064820152608401610862565b600080547fffffffffffffffffffffffffffffffffffffffffffffffffffffffffffffff001660011790558015610b6c57600080547fffffffffffffffffffffffffffffffffffffffffffffffffffffffffffff00ff166101001790555b600580547fffffffffffffffffffffffff000000000000000000000000000000000000000090811673ffffffffffffffffffffffffffffffffffffffff8b811691909117909255600080547fffffffffffffffffffff0000000000000000000000000000000000000000ffff16620100008b851602179055600880549091168883161790556006869055600480547fffffff000000000000000000000000000000000000000000ffffffffffffffff1668010000000000000000928716929092027fffffff00ffffffffffffffffffffffffffffffffffffffffffffffffffffffff16919091177c0100000000000000000000000000000000000000000000000000000000851515021790556009610c848382614122565b50610c8d6132cc565b8015610cf057600080547fffffffffffffffffffffffffffffffffffffffffffffffffffffffffffff00ff169055604051600181527f7f26b83ff96e1f2b6a682f133852f6798a09c465da95921460cefb38474024989060200160405180910390a15b5050505050505050565b610d0261324b565b600755565b600454606090610d229067ffffffffffffffff16600161402e565b67ffffffffffffffff168263ffffffff1614610dc0576040517f08c379a000000000000000000000000000000000000000000000000000000000815260206004820152603460248201527f50726f6f664f66456666696369656e63793a3a76657269667942617463683a2060448201527f42415443485f444f45535f4e4f545f4d415443480000000000000000000000006064820152608401610862565b63ffffffff821660009081526002602052604081206001015467ffffffffffffffff8181169291829168010000000000000000909104168103610e2357505063ffffffff831660009081526002602052604090205467016345785d8a0000610e88565b505063ffffffff8316600090815260026020818152604080842060019081015468010000000000000000900467ffffffffffffffff90811686528184529482902082516060810184528154808252928201549481018590529401549094169201919091525b600654600754604080516020810193909352820152606081018790526080810188905260a0810183905260e086901b7fffffffff000000000000000000000000000000000000000000000000000000001660c08083019190915284901b7fffffffffffffffff0000000000000000000000000000000000000000000000001660c482015260cc0160405160208183030381529060405293505050505b9392505050565b60098054610f3890614081565b80601f0160208091040260200160405190810160405280929190818152602001828054610f6490614081565b8015610fb15780601f10610f8657610100808354040283529160200191610fb1565b820191906000526020600020905b815481529060010190602001808311610f9457829003601f168201915b505050505081565b610fc161324b565b600880547fffffffffffffffffffffffff00000000000000000000000000000000000000001673ffffffffffffffffffffffffffffffffffffffff92909216919091179055565b6004546000906110239067ffffffffffffffff16600161402e565b67ffffffffffffffff168267ffffffffffffffff16146110c5576040517f08c379a000000000000000000000000000000000000000000000000000000000815260206004820152603460248201527f50726f6f664f66456666696369656e63793a3a76657269667942617463683a2060448201527f42415443485f444f45535f4e4f545f4d415443480000000000000000000000006064820152608401610862565b67ffffffffffffffff80831660009081526002602052604081206001015480831692829168010000000000000000900416810361112657505067ffffffffffffffff831660009081526002602052604090205467016345785d8a0000611186565b505067ffffffffffffffff8084166000908152600260208181526040808420600190810154680100000000000000009004861685528083529381902081516060810183528154808252958201549381018490529301549094169190930152905b600654600754604080516020810193909352820152606081018790526080810188905260a081018390527fffffffffffffffff00000000000000000000000000000000000000000000000060c087811b82168184015285901b1660c882015260009060d001604080517fffffffffffffffffffffffffffffffffffffffffffffffffffffffffffffffe0818403018152828252805160209182012060948401909252605483523360601b9083015291506034810160005b600881101561127e577bffffffff0000000000000000000000000000000000000000000000006020820285901c60c01b16825260089091019060010161123d565b505060007f30644e72e131a029b85045b68181585d2833e84879b9709143e1f593f00000016002836040516112b3919061423c565b602060405180830381855afa1580156112d0573d6000803e3d6000fd5b5050506040513d601f19601f820116820180604052508101906112f39190614258565b6112fd9190614271565b9a9950505050505050505050565b6040805160208082018b90528183018a905260608083018a90526080830189905260a083018890527fffffffffffffffff00000000000000000000000000000000000000000000000060c088811b82168186015287901b1660c8840152835180840360b001815260d084018086528151919093012061016484019094526054825284901b60f08301526000929161010401835b60088110156113df577bffffffff0000000000000000000000000000000000000000000000006020820285901c60c01b16825260089091019060010161139e565b505060007f30644e72e131a029b85045b68181585d2833e84879b9709143e1f593f0000001600283604051611414919061423c565b602060405180830381855afa158015611431573d6000803e3d6000fd5b5050506040513d601f19601f820116820180604052508101906114549190614258565b61145e9190614271565b9c9b505050505050505050505050565b60045468010000000000000000900473ffffffffffffffffffffffffffffffffffffffff163314611521576040517f08c379a000000000000000000000000000000000000000000000000000000000815260206004820152603f60248201527f50726f6f664f66456666696369656e63793a3a6f6e6c7954727573746564536560448201527f7175656e6365723a206f6e6c7920747275737465642073657175656e636572006064820152608401610862565b600480547fffffffff0000000000000000000000000000000000000000ffffffffffffffff166801000000000000000073ffffffffffffffffffffffffffffffffffffffff8416908102919091179091556040519081527ff54144f9611984021529f814a1cb6a41e22c58351510a0d9f7e822618abb9cc0906020015b60405180910390a150565b6115b161324b565b6115bb600061336b565b565b60035460009067ffffffffffffffff700100000000000000000000000000000000820481169161160c91780100000000000000000000000000000000000000000000000090910416600161402e565b61161691906142ac565b6116329067ffffffffffffffff16670de0b6b3a76400006142d5565b905090565b60045468010000000000000000900473ffffffffffffffffffffffffffffffffffffffff1633146116ea576040517f08c379a000000000000000000000000000000000000000000000000000000000815260206004820152603f60248201527f50726f6f664f66456666696369656e63793a3a6f6e6c7954727573746564536560448201527f7175656e6365723a206f6e6c7920747275737465642073657175656e636572006064820152608401610862565b600480548215157c0100000000000000000000000000000000000000000000000000000000027fffffff00ffffffffffffffffffffffffffffffffffffffffffffffffffffffff9091161790556040517fbacda50a4a8575be1d91a7ebe29ee45056f3a94f12a2281eb6b43afa33bcefe69061159e90831515815260200190565b6004546117839067ffffffffffffffff16600161402e565b67ffffffffffffffff168467ffffffffffffffff1614611825576040517f08c379a000000000000000000000000000000000000000000000000000000000815260206004820152603460248201527f50726f6f664f66456666696369656e63793a3a76657269667942617463683a2060448201527f626174636820646f6573206e6f74206d617463680000000000000000000000006064820152608401610862565b60035467ffffffffffffffff68010000000000000000909104811690851611156118f7576040517f08c379a000000000000000000000000000000000000000000000000000000000815260206004820152604260248201527f50726f6f664f66456666696369656e63793a3a76657269667942617463683a2060448201527f626174636820646f6573206e6f742068617665206265656e2073657175656e6360648201527f6564000000000000000000000000000000000000000000000000000000000000608482015260a401610862565b67ffffffffffffffff80851660009081526002602052604081206001015480831692829168010000000000000000900416810361195857505067ffffffffffffffff851660009081526002602052604090205467016345785d8a00006119b8565b505067ffffffffffffffff8086166000908152600260208181526040808420600190810154680100000000000000009004861685528083529381902081516060810183528154808252958201549381018490529301549094169190930152905b60065460075460408051602081019390935282015260608101899052608081018a905260a081018390527fffffffffffffffff00000000000000000000000000000000000000000000000060c089811b82168184015285901b1660c882015260009060d001604080517fffffffffffffffffffffffffffffffffffffffffffffffffffffffffffffffe0818403018152828252805160209182012060948401909252605483523360601b9083015291506034810160005b6008811015611ab0577bffffffff0000000000000000000000000000000000000000000000006020820285901c60c01b168252600890910190600101611a6f565b505060007f30644e72e131a029b85045b68181585d2833e84879b9709143e1f593f0000001600283604051611ae5919061423c565b602060405180830381855afa158015611b02573d6000803e3d6000fd5b5050506040513d601f19601f82011682018060405250810190611b259190614258565b611b2f9190614271565b6008546040805160208101825283815290517f43753b4d00000000000000000000000000000000000000000000000000000000815292935073ffffffffffffffffffffffffffffffffffffffff909116916343753b4d91611b99918d918d918d9190600401614312565b602060405180830381865afa158015611bb6573d6000803e3d6000fd5b505050506040513d601f19601f82011682018060405250810190611bda919061438c565b611c66576040517f08c379a000000000000000000000000000000000000000000000000000000000815260206004820152602d60248201527f50726f6f664f66456666696369656e63793a3a76657269667942617463683a2060448201527f494e56414c49445f50524f4f46000000000000000000000000000000000000006064820152608401610862565b6004805467ffffffffffffffff16906000611c808361405a565b825467ffffffffffffffff9182166101009390930a92830291909202199091161790555060068b905560078c90556005546040517f33d6247d000000000000000000000000000000000000000000000000000000008152600481018e905273ffffffffffffffffffffffffffffffffffffffff909116906333d6247d90602401600060405180830381600087803b158015611d1a57600080fd5b505af1158015611d2e573d6000803e3d6000fd5b5050600054611d5d925062010000900473ffffffffffffffffffffffffffffffffffffffff16905033866133e2565b604051339067ffffffffffffffff8c16907f2cdf1508085a46c7241a7d78c5a1ec3d9246d1ab95e1c2a33676d29e17d4222390600090a3505050505050505050505050565b611daa61324b565b600480547fffffffffffffffffffffffffffffffffffffffffffffffff00000000000000001667ffffffffffffffff92909216919091179055565b611ded61324b565b6003805467ffffffffffffffff90921668010000000000000000027fffffffffffffffffffffffffffffffff0000000000000000ffffffffffffffff909216919091179055565b6004547c0100000000000000000000000000000000000000000000000000000000900460ff161515600114611f11576040517f08c379a000000000000000000000000000000000000000000000000000000000815260206004820152604860248201527f50726f6f664f66456666696369656e63793a3a6973466f72636542617463684160448201527f6c6c6f7765643a206f6e6c7920696620666f726365206261746368206973206160648201527f7661696c61626c65000000000000000000000000000000000000000000000000608482015260a401610862565b600354600090611f40908390700100000000000000000000000000000000900467ffffffffffffffff1661402e565b905060008267ffffffffffffffff1611612002576040517f08c379a000000000000000000000000000000000000000000000000000000000815260206004820152604260248201527f50726f6f664f66456666696369656e63793a3a73657175656e6365466f72636560448201527f42617463683a204d75737420666f726365206174206c6561737420312062617460648201527f6368000000000000000000000000000000000000000000000000000000000000608482015260a401610862565b60035467ffffffffffffffff7801000000000000000000000000000000000000000000000000909104811690821611156120be576040517f08c379a000000000000000000000000000000000000000000000000000000000815260206004820152603a60248201527f50726f6f664f66456666696369656e63793a3a73657175656e6365466f72636560448201527f42617463683a20466f72636520626174636820696e76616c69640000000000006064820152608401610862565b60045468010000000000000000900473ffffffffffffffffffffffffffffffffffffffff1633146121d65767ffffffffffffffff80821660009081526001602052604090206002015442916121189162093a80911661402e565b67ffffffffffffffff1611156121d6576040517f08c379a000000000000000000000000000000000000000000000000000000000815260206004820152604c60248201527f50726f6f664f66456666696369656e63793a3a73657175656e6365466f72636560448201527f42617463683a20466f72636564206261746368206973206e6f7420696e20746960648201527f6d656f757420706572696f640000000000000000000000000000000000000000608482015260a401610862565b60035467ffffffffffffffff68010000000000000000820481169170010000000000000000000000000000000090041660005b8467ffffffffffffffff168110156122c557816122258161405a565b92505082806122339061405a565b67ffffffffffffffff818116600090815260026020526040902060010180547fffffffffffffffffffffffffffffffff000000000000000000000000000000001668010000000000000000878416027fffffffffffffffffffffffffffffffffffffffffffffffff000000000000000016174290921691909117905593508190506122bd816143a9565b915050612209565b50600380544267ffffffffffffffff9081167fffffffffffffffffffffffffffffffff0000000000000000000000000000000090921691909117680100000000000000008583168102919091177fffffffffffffffff0000000000000000ffffffffffffffffffffffffffffffff16700100000000000000000000000000000000858416021792839055604051920416907f648a61dd2438f072f5a1960939abd30f37aea80d2e94c9792ad142d3e0a490a490600090a250505050565b60045468010000000000000000900473ffffffffffffffffffffffffffffffffffffffff163314612435576040517f08c379a000000000000000000000000000000000000000000000000000000000815260206004820152603f60248201527f50726f6f664f66456666696369656e63793a3a6f6e6c7954727573746564536560448201527f7175656e6365723a206f6e6c7920747275737465642073657175656e636572006064820152608401610862565b60096124418282614122565b507f6b8f723a4c7a5335cafae8a598a0aa0301be1387c037dccc085b62add6448b208160405161159e9190613ca7565b61247961324b565b600655565b6004547c0100000000000000000000000000000000000000000000000000000000900460ff16151560011461255b576040517f08c379a000000000000000000000000000000000000000000000000000000000815260206004820152604860248201527f50726f6f664f66456666696369656e63793a3a6973466f72636542617463684160448201527f6c6c6f7765643a206f6e6c7920696620666f726365206261746368206973206160648201527f7661696c61626c65000000000000000000000000000000000000000000000000608482015260a401610862565b60006125656115bd565b9050818111156125f7576040517f08c379a000000000000000000000000000000000000000000000000000000000815260206004820152602f60248201527f50726f6f664f66456666696369656e63793a3a666f72636542617463683a206e60448201527f6f7420656e6f756768206d6174696300000000000000000000000000000000006064820152608401610862565b61ea60835110612689576040517f08c379a000000000000000000000000000000000000000000000000000000000815260206004820152603a60248201527f50726f6f664f66456666696369656e63793a3a666f72636542617463683a205460448201527f72616e73616374696f6e73206279746573206f766572666c6f770000000000006064820152608401610862565b6000546126b49062010000900473ffffffffffffffffffffffffffffffffffffffff163330846134bb565b600554604080517f3ed691ef000000000000000000000000000000000000000000000000000000008152905160009273ffffffffffffffffffffffffffffffffffffffff1691633ed691ef9160048083019260209291908290030181865afa158015612724573d6000803e3d6000fd5b505050506040513d601f19601f820116820180604052508101906127489190614258565b60038054919250780100000000000000000000000000000000000000000000000090910467ffffffffffffffff169060186127828361405a565b91906101000a81548167ffffffffffffffff021916908367ffffffffffffffff160217905550508381336040516020016127be939291906143e1565b604080518083037fffffffffffffffffffffffffffffffffffffffffffffffffffffffffffffffe001815291815281516020928301206003805478010000000000000000000000000000000000000000000000009081900467ffffffffffffffff908116600090815260019687905285812094909455825482900481168452848420909501879055905404831681522060020180547fffffffffffffffffffffffffffffffffffffffffffffffff0000000000000000164290921691909117905532330361290157600354604080518381523360208201526060918101829052600091810191909152780100000000000000000000000000000000000000000000000090910467ffffffffffffffff16907ff94bb37db835f1ab585ee00041849a09b12cd081d77fa15ca070757619cbc9319060800160405180910390a261295e565b600360189054906101000a900467ffffffffffffffff1667ffffffffffffffff167ff94bb37db835f1ab585ee00041849a09b12cd081d77fa15ca070757619cbc9318233876040516129559392919061442d565b60405180910390a25b50505050565b61296c61324b565b73ffffffffffffffffffffffffffffffffffffffff8116612a0f576040517f08c379a000000000000000000000000000000000000000000000000000000000815260206004820152602660248201527f4f776e61626c653a206e6577206f776e657220697320746865207a65726f206160448201527f64647265737300000000000000000000000000000000000000000000000000006064820152608401610862565b612a188161336b565b50565b60045468010000000000000000900473ffffffffffffffffffffffffffffffffffffffff163314612ace576040517f08c379a000000000000000000000000000000000000000000000000000000000815260206004820152603f60248201527f50726f6f664f66456666696369656e63793a3a6f6e6c7954727573746564536560448201527f7175656e6365723a206f6e6c7920747275737465642073657175656e636572006064820152608401610862565b8051612b0e3330612ae78467016345785d8a00006142d5565b60005462010000900473ffffffffffffffffffffffffffffffffffffffff169291906134bb565b60035467ffffffffffffffff808216916801000000000000000081048216917001000000000000000000000000000000009091041660005b848110156130d2576000868281518110612b6257612b6261446b565b602002602001015190508467ffffffffffffffff16816040015167ffffffffffffffff1610158015612ba2575042816040015167ffffffffffffffff1611155b612c54576040517f08c379a000000000000000000000000000000000000000000000000000000000815260206004820152604260248201527f50726f6f664f66456666696369656e63793a3a73657175656e6365426174636860448201527f65733a2054696d657374616d70206d75737420626520696e736964652072616e60648201527f6765000000000000000000000000000000000000000000000000000000000000608482015260a401610862565b60208101511580612d03575060055460208201516040517f257b363200000000000000000000000000000000000000000000000000000000815273ffffffffffffffffffffffffffffffffffffffff9092169163257b363291612cbd9160040190815260200190565b6020604051808303816000875af1158015612cdc573d6000803e3d6000fd5b505050506040513d601f19601f82011682018060405250810190612d009190614258565b15155b612d8f576040517f08c379a000000000000000000000000000000000000000000000000000000000815260206004820152603f60248201527f50726f6f664f66456666696369656e63793a3a73657175656e6365426174636860448201527f65733a20476c6f62616c206578697420726f6f74206d757374206578697374006064820152608401610862565b80515161ea6011612e22576040517f08c379a000000000000000000000000000000000000000000000000000000000815260206004820152603f60248201527f50726f6f664f66456666696369656e63793a3a73657175656e6365426174636860448201527f65733a205472616e73616374696f6e73206279746573206f766572666c6f77006064820152608401610862565b83612e2c8161405a565b8251602080850151604051939850612e49945091923391016143e1565b604080518083037fffffffffffffffffffffffffffffffffffffffffffffffffffffffffffffffe0018152918152815160209283012067ffffffffffffffff8781166000908152600290945282842091825591840151600190910180547fffffffffffffffffffffffffffffffffffffffffffffffff0000000000000000169282169290921790915595505b8160600151518110156130bd5783612eec8161405a565b945050600082606001518281518110612f0757612f0761446b565b602002602001015190508667ffffffffffffffff168167ffffffffffffffff1610158015612f56575067ffffffffffffffff808616600090815260016020526040902060020154811690821610155b8015612f6c5750428167ffffffffffffffff1611155b61301e576040517f08c379a000000000000000000000000000000000000000000000000000000000815260206004820152605160248201527f50726f6f664f66456666696369656e63793a3a73657175656e6365426174636860448201527f65733a20466f7263656420626174636865732074696d657374616d70206d757360648201527f7420626520696e736964652072616e6765000000000000000000000000000000608482015260a401610862565b856130288161405a565b67ffffffffffffffff818116600090815260026020526040902060010180547fffffffffffffffffffffffffffffffff0000000000000000000000000000000016680100000000000000008a8416027fffffffffffffffffffffffffffffffffffffffffffffffff000000000000000016179185169190911790559197509095508190506130b5816143a9565b915050612ed5565b505080806130ca906143a9565b915050612b46565b5060035467ffffffffffffffff78010000000000000000000000000000000000000000000000009091048116908216111561318f576040517f08c379a000000000000000000000000000000000000000000000000000000000815260206004820152603a60248201527f50726f6f664f66456666696369656e63793a3a73657175656e6365426174636860448201527f65733a20466f7263652062617463686573206f766572666c6f770000000000006064820152608401610862565b6003805467ffffffffffffffff8581167fffffffffffffffffffffffffffffffff0000000000000000000000000000000090921691909117680100000000000000008583168102919091177fffffffffffffffff0000000000000000ffffffffffffffffffffffffffffffff16700100000000000000000000000000000000858416021792839055604051920416907f303446e6a8cb73c83dff421c0b1d5e5ce0719dab1bff13660fc254e58cc17fce90600090a25050505050565b603c5473ffffffffffffffffffffffffffffffffffffffff1633146115bb576040517f08c379a000000000000000000000000000000000000000000000000000000000815260206004820181905260248201527f4f776e61626c653a2063616c6c6572206973206e6f7420746865206f776e65726044820152606401610862565b600054610100900460ff16613363576040517f08c379a000000000000000000000000000000000000000000000000000000000815260206004820152602b60248201527f496e697469616c697a61626c653a20636f6e7472616374206973206e6f74206960448201527f6e697469616c697a696e670000000000000000000000000000000000000000006064820152608401610862565b6115bb613519565b603c805473ffffffffffffffffffffffffffffffffffffffff8381167fffffffffffffffffffffffff0000000000000000000000000000000000000000831681179093556040519116919082907f8be0079c531659141344cd1fd0a4f28419497f9722a3daafe3b4186f6b6457e090600090a35050565b60405173ffffffffffffffffffffffffffffffffffffffff83166024820152604481018290526134b69084907fa9059cbb00000000000000000000000000000000000000000000000000000000906064015b604080517fffffffffffffffffffffffffffffffffffffffffffffffffffffffffffffffe08184030181529190526020810180517bffffffffffffffffffffffffffffffffffffffffffffffffffffffff167fffffffff00000000000000000000000000000000000000000000000000000000909316929092179091526135b9565b505050565b60405173ffffffffffffffffffffffffffffffffffffffff8085166024830152831660448201526064810182905261295e9085907f23b872dd0000000000000000000000000000000000000000000000000000000090608401613434565b600054610100900460ff166135b0576040517f08c379a000000000000000000000000000000000000000000000000000000000815260206004820152602b60248201527f496e697469616c697a61626c653a20636f6e7472616374206973206e6f74206960448201527f6e697469616c697a696e670000000000000000000000000000000000000000006064820152608401610862565b6115bb3361336b565b600061361b826040518060400160405280602081526020017f5361666545524332303a206c6f772d6c6576656c2063616c6c206661696c65648152508573ffffffffffffffffffffffffffffffffffffffff166136c59092919063ffffffff16565b8051909150156134b65780806020019051810190613639919061438c565b6134b6576040517f08c379a000000000000000000000000000000000000000000000000000000000815260206004820152602a60248201527f5361666545524332303a204552433230206f7065726174696f6e20646964206e60448201527f6f742073756363656564000000000000000000000000000000000000000000006064820152608401610862565b60606136d484846000856136dc565b949350505050565b60608247101561376e576040517f08c379a000000000000000000000000000000000000000000000000000000000815260206004820152602660248201527f416464726573733a20696e73756666696369656e742062616c616e636520666f60448201527f722063616c6c00000000000000000000000000000000000000000000000000006064820152608401610862565b73ffffffffffffffffffffffffffffffffffffffff85163b6137ec576040517f08c379a000000000000000000000000000000000000000000000000000000000815260206004820152601d60248201527f416464726573733a2063616c6c20746f206e6f6e2d636f6e74726163740000006044820152606401610862565b6000808673ffffffffffffffffffffffffffffffffffffffff168587604051613815919061423c565b60006040518083038185875af1925050503d8060008114613852576040519150601f19603f3d011682016040523d82523d6000602084013e613857565b606091505b5091509150613867828286613872565b979650505050505050565b60608315613881575081610f24565b8251156138915782518084602001fd5b816040517f08c379a00000000000000000000000000000000000000000000000000000000081526004016108629190613ca7565b803567ffffffffffffffff811681146138dd57600080fd5b919050565b80604081018310156138f357600080fd5b92915050565b600080600080600080610160878903121561391357600080fd5b863595506020870135945061392a604088016138c5565b935061393988606089016138e2565b925061012087018881111561394d57600080fd5b60a08801925061395d89826138e2565b9150509295509295509295565b73ffffffffffffffffffffffffffffffffffffffff81168114612a1857600080fd5b8015158114612a1857600080fd5b7f4e487b7100000000000000000000000000000000000000000000000000000000600052604160045260246000fd5b6040516080810167ffffffffffffffff811182821017156139ec576139ec61399a565b60405290565b604051601f82017fffffffffffffffffffffffffffffffffffffffffffffffffffffffffffffffe016810167ffffffffffffffff81118282101715613a3957613a3961399a565b604052919050565b600082601f830112613a5257600080fd5b813567ffffffffffffffff811115613a6c57613a6c61399a565b613a9d60207fffffffffffffffffffffffffffffffffffffffffffffffffffffffffffffffe0601f840116016139f2565b818152846020838601011115613ab257600080fd5b816020850160208301376000918101602001919091529392505050565b600080600080600080600060e0888a031215613aea57600080fd5b8735613af58161396a565b96506020880135613b058161396a565b95506040880135613b158161396a565b9450606088013593506080880135613b2c8161396a565b925060a0880135613b3c8161398c565b915060c088013567ffffffffffffffff811115613b5857600080fd5b613b648a828b01613a41565b91505092959891949750929550565b600060208284031215613b8557600080fd5b5035919050565b600080600080600080600060e0888a031215613ba757600080fd5b8735965060208801359550604088013594506060880135935060808801359250613bd360a089016138c5565b9150613be160c089016138c5565b905092959891949750929550565b600080600060608486031215613c0457600080fd5b8335925060208401359150604084013563ffffffff81168114613c2657600080fd5b809150509250925092565b60005b83811015613c4c578181015183820152602001613c34565b8381111561295e5750506000910152565b60008151808452613c75816020860160208601613c31565b601f017fffffffffffffffffffffffffffffffffffffffffffffffffffffffffffffffe0169290920160200192915050565b602081526000610f246020830184613c5d565b600060208284031215613ccc57600080fd5b8135610f248161396a565b600080600060608486031215613cec57600080fd5b8335925060208401359150613d03604085016138c5565b90509250925092565b600080600080600080600080610100898b031215613d2957600080fd5b8835975060208901359650604089013595506060890135945060808901359350613d5560a08a016138c5565b9250613d6360c08a016138c5565b915060e0890135613d738161396a565b809150509295985092959890939650565b600060208284031215613d9657600080fd5b610f24826138c5565b600060208284031215613db157600080fd5b8135610f248161398c565b600060208284031215613dce57600080fd5b813567ffffffffffffffff811115613de557600080fd5b6136d484828501613a41565b60008060408385031215613e0457600080fd5b823567ffffffffffffffff811115613e1b57600080fd5b613e2785828601613a41565b95602094909401359450505050565b600067ffffffffffffffff821115613e5057613e5061399a565b5060051b60200190565b60006020808385031215613e6d57600080fd5b823567ffffffffffffffff80821115613e8557600080fd5b818501915085601f830112613e9957600080fd5b8135613eac613ea782613e36565b6139f2565b81815260059190911b83018401908481019088831115613ecb57600080fd5b8585015b83811015613ff257803585811115613ee657600080fd5b86016080818c037fffffffffffffffffffffffffffffffffffffffffffffffffffffffffffffffe0011215613f1a57600080fd5b613f226139c9565b8882013587811115613f3357600080fd5b613f418d8b83860101613a41565b8252506040808301358a830152613f5a606084016138c5565b81830152608083013588811115613f715760008081fd5b8084019350508c603f840112613f875760008081fd5b89830135613f97613ea782613e36565b81815260059190911b84018201908b8101908f831115613fb75760008081fd5b948301945b82861015613fdc57613fcd866138c5565b8252948c0194908c0190613fbc565b6060850152505050845250918601918601613ecf565b5098975050505050505050565b7f4e487b7100000000000000000000000000000000000000000000000000000000600052601160045260246000fd5b600067ffffffffffffffff80831681851680830382111561405157614051613fff565b01949350505050565b600067ffffffffffffffff80831681810361407757614077613fff565b6001019392505050565b600181811c9082168061409557607f821691505b6020821081036140ce577f4e487b7100000000000000000000000000000000000000000000000000000000600052602260045260246000fd5b50919050565b601f8211156134b657600081815260208120601f850160051c810160208610156140fb5750805b601f850160051c820191505b8181101561411a57828155600101614107565b505050505050565b815167ffffffffffffffff81111561413c5761413c61399a565b6141508161414a8454614081565b846140d4565b602080601f8311600181146141a3576000841561416d5750858301515b7fffffffffffffffffffffffffffffffffffffffffffffffffffffffffffffffff600386901b1c1916600185901b17855561411a565b6000858152602081207fffffffffffffffffffffffffffffffffffffffffffffffffffffffffffffffe08616915b828110156141f0578886015182559484019460019091019084016141d1565b508582101561422c57878501517fffffffffffffffffffffffffffffffffffffffffffffffffffffffffffffffff600388901b60f8161c191681555b5050505050600190811b01905550565b6000825161424e818460208701613c31565b9190910192915050565b60006020828403121561426a57600080fd5b5051919050565b6000826142a7577f4e487b7100000000000000000000000000000000000000000000000000000000600052601260045260246000fd5b500690565b600067ffffffffffffffff838116908316818110156142cd576142cd613fff565b039392505050565b6000817fffffffffffffffffffffffffffffffffffffffffffffffffffffffffffffffff048311821515161561430d5761430d613fff565b500290565b61012081016040808784376000838201818152879190815b600281101561434a5784848337908401828152928401929060010161432a565b5050828760c0870137610100850181815286935091505b6001811015614380578251825260209283019290910190600101614361565b50505095945050505050565b60006020828403121561439e57600080fd5b8151610f248161398c565b60007fffffffffffffffffffffffffffffffffffffffffffffffffffffffffffffffff82036143da576143da613fff565b5060010190565b600084516143f3818460208901613c31565b919091019283525060601b7fffffffffffffffffffffffffffffffffffffffff000000000000000000000000166020820152603401919050565b83815273ffffffffffffffffffffffffffffffffffffffff831660208201526060604082015260006144626060830184613c5d565b95945050505050565b7f4e487b7100000000000000000000000000000000000000000000000000000000600052603260045260246000fdfea26469706673582212200c9e3ae0793a293a8a4677835d2b020023e8e813e2032e3f1b93fb616a76d9ed64736f6c634300080f0033",
  "linkReferences": {},
  "deployedLinkReferences": {}
}