{
  "_format": "hh-sol-artifact-1",
  "contractName": "ProofOfEfficiency",
  "sourceName": "contracts/ProofOfEfficiency.sol",
  "abi": [
    {
      "anonymous": false,
      "inputs": [
        {
          "indexed": true,
          "internalType": "uint64",
          "name": "forceBatchNum",
          "type": "uint64"
        },
        {
          "indexed": false,
          "internalType": "bytes32",
          "name": "lastGlobalExitRoot",
          "type": "bytes32"
        },
        {
          "indexed": false,
          "internalType": "address",
          "name": "sequencer",
          "type": "address"
        },
        {
          "indexed": false,
          "internalType": "bytes",
          "name": "transactions",
          "type": "bytes"
        }
      ],
      "name": "ForceBatch",
      "type": "event"
    },
    {
      "anonymous": false,
      "inputs": [
        {
          "indexed": false,
          "internalType": "uint8",
          "name": "version",
          "type": "uint8"
        }
      ],
      "name": "Initialized",
      "type": "event"
    },
    {
      "anonymous": false,
      "inputs": [
        {
          "indexed": true,
          "internalType": "uint64",
          "name": "numBatch",
          "type": "uint64"
        }
      ],
      "name": "SequenceBatches",
      "type": "event"
    },
    {
      "anonymous": false,
      "inputs": [
        {
          "indexed": true,
          "internalType": "uint64",
          "name": "numBatch",
          "type": "uint64"
        }
      ],
      "name": "SequenceForceBatches",
      "type": "event"
    },
    {
      "anonymous": false,
      "inputs": [
        {
          "indexed": false,
          "internalType": "bool",
          "name": "newForceBatchAllowed",
          "type": "bool"
        }
      ],
      "name": "SetForceBatchAllowed",
      "type": "event"
    },
    {
      "anonymous": false,
      "inputs": [
        {
          "indexed": false,
          "internalType": "address",
          "name": "newTrustedSequencer",
          "type": "address"
        }
      ],
      "name": "SetTrustedSequencer",
      "type": "event"
    },
    {
      "anonymous": false,
      "inputs": [
        {
          "indexed": false,
          "internalType": "string",
          "name": "newTrustedSequencerURL",
          "type": "string"
        }
      ],
      "name": "SetTrustedSequencerURL",
      "type": "event"
    },
    {
      "anonymous": false,
      "inputs": [
        {
          "indexed": true,
          "internalType": "uint64",
          "name": "numBatch",
          "type": "uint64"
        },
        {
          "indexed": false,
          "internalType": "bytes32",
          "name": "stateRoot",
          "type": "bytes32"
        },
        {
          "indexed": true,
          "internalType": "address",
          "name": "aggregator",
          "type": "address"
        }
      ],
      "name": "VerifyBatches",
      "type": "event"
    },
    {
      "inputs": [],
      "name": "FORCE_BATCH_TIMEOUT",
      "outputs": [
        {
          "internalType": "uint64",
          "name": "",
          "type": "uint64"
        }
      ],
      "stateMutability": "view",
      "type": "function"
    },
    {
      "inputs": [],
      "name": "MAX_BATCH_LENGTH",
      "outputs": [
        {
          "internalType": "uint256",
          "name": "",
          "type": "uint256"
        }
      ],
      "stateMutability": "view",
      "type": "function"
    },
    {
      "inputs": [],
      "name": "TRUSTED_SEQUENCER_FEE",
      "outputs": [
        {
          "internalType": "uint256",
          "name": "",
          "type": "uint256"
        }
      ],
      "stateMutability": "view",
      "type": "function"
    },
    {
      "inputs": [
        {
          "internalType": "uint64",
          "name": "",
          "type": "uint64"
        }
      ],
      "name": "batchNumToStateRoot",
      "outputs": [
        {
          "internalType": "bytes32",
          "name": "",
          "type": "bytes32"
        }
      ],
      "stateMutability": "view",
      "type": "function"
    },
    {
      "inputs": [],
      "name": "calculateForceProverFee",
      "outputs": [
        {
          "internalType": "uint256",
          "name": "",
          "type": "uint256"
        }
      ],
      "stateMutability": "view",
      "type": "function"
    },
    {
      "inputs": [],
      "name": "calculateRewardPerBatch",
      "outputs": [
        {
          "internalType": "uint256",
          "name": "",
          "type": "uint256"
        }
      ],
      "stateMutability": "view",
      "type": "function"
    },
    {
      "inputs": [],
      "name": "chainID",
      "outputs": [
        {
          "internalType": "uint64",
          "name": "",
          "type": "uint64"
        }
      ],
      "stateMutability": "view",
      "type": "function"
    },
    {
      "inputs": [
        {
          "internalType": "bytes",
          "name": "transactions",
          "type": "bytes"
        },
        {
          "internalType": "uint256",
          "name": "maticAmount",
          "type": "uint256"
        }
      ],
      "name": "forceBatch",
      "outputs": [],
      "stateMutability": "nonpayable",
      "type": "function"
    },
    {
      "inputs": [],
      "name": "forceBatchAllowed",
      "outputs": [
        {
          "internalType": "bool",
          "name": "",
          "type": "bool"
        }
      ],
      "stateMutability": "view",
      "type": "function"
    },
    {
      "inputs": [
        {
          "internalType": "uint64",
          "name": "",
          "type": "uint64"
        }
      ],
      "name": "forcedBatches",
      "outputs": [
        {
          "internalType": "bytes32",
          "name": "",
          "type": "bytes32"
        }
      ],
      "stateMutability": "view",
      "type": "function"
    },
    {
      "inputs": [
        {
          "internalType": "uint64",
          "name": "_lastVerifiedBatch",
          "type": "uint64"
        },
        {
          "internalType": "uint64",
          "name": "newVerifiedBatch",
          "type": "uint64"
        },
        {
          "internalType": "bytes32",
          "name": "newLocalExitRoot",
          "type": "bytes32"
        },
        {
          "internalType": "bytes32",
          "name": "newStateRoot",
          "type": "bytes32"
        }
      ],
      "name": "getInputSnarkBytes",
      "outputs": [
        {
          "internalType": "bytes",
          "name": "",
          "type": "bytes"
        }
      ],
      "stateMutability": "view",
      "type": "function"
    },
    {
      "inputs": [],
      "name": "globalExitRootManager",
      "outputs": [
        {
          "internalType": "contract IGlobalExitRootManager",
          "name": "",
          "type": "address"
        }
      ],
      "stateMutability": "view",
      "type": "function"
    },
    {
      "inputs": [
        {
          "internalType": "contract IGlobalExitRootManager",
          "name": "_globalExitRootManager",
          "type": "address"
        },
        {
          "internalType": "contract IERC20Upgradeable",
          "name": "_matic",
          "type": "address"
        },
        {
          "internalType": "contract IVerifierRollup",
          "name": "_rollupVerifier",
          "type": "address"
        },
        {
          "internalType": "bytes32",
          "name": "genesisRoot",
          "type": "bytes32"
        },
        {
          "internalType": "address",
          "name": "_trustedSequencer",
          "type": "address"
        },
        {
          "internalType": "bool",
          "name": "_forceBatchAllowed",
          "type": "bool"
        },
        {
          "internalType": "string",
          "name": "_trustedSequencerURL",
          "type": "string"
        },
        {
          "internalType": "uint64",
          "name": "_chainID",
          "type": "uint64"
        },
        {
          "internalType": "string",
          "name": "_networkName",
          "type": "string"
        }
      ],
      "name": "initialize",
      "outputs": [],
      "stateMutability": "nonpayable",
      "type": "function"
    },
    {
      "inputs": [],
      "name": "lastBatchSequenced",
      "outputs": [
        {
          "internalType": "uint64",
          "name": "",
          "type": "uint64"
        }
      ],
      "stateMutability": "view",
      "type": "function"
    },
    {
      "inputs": [],
      "name": "lastForceBatch",
      "outputs": [
        {
          "internalType": "uint64",
          "name": "",
          "type": "uint64"
        }
      ],
      "stateMutability": "view",
      "type": "function"
    },
    {
      "inputs": [],
      "name": "lastForceBatchSequenced",
      "outputs": [
        {
          "internalType": "uint64",
          "name": "",
          "type": "uint64"
        }
      ],
      "stateMutability": "view",
      "type": "function"
    },
    {
      "inputs": [],
      "name": "lastTimestamp",
      "outputs": [
        {
          "internalType": "uint64",
          "name": "",
          "type": "uint64"
        }
      ],
      "stateMutability": "view",
      "type": "function"
    },
    {
      "inputs": [],
      "name": "lastVerifiedBatch",
      "outputs": [
        {
          "internalType": "uint64",
          "name": "",
          "type": "uint64"
        }
      ],
      "stateMutability": "view",
      "type": "function"
    },
    {
      "inputs": [],
      "name": "matic",
      "outputs": [
        {
          "internalType": "contract IERC20Upgradeable",
          "name": "",
          "type": "address"
        }
      ],
      "stateMutability": "view",
      "type": "function"
    },
    {
      "inputs": [],
      "name": "networkName",
      "outputs": [
        {
          "internalType": "string",
          "name": "",
          "type": "string"
        }
      ],
      "stateMutability": "view",
      "type": "function"
    },
    {
      "inputs": [],
      "name": "rollupVerifier",
      "outputs": [
        {
          "internalType": "contract IVerifierRollup",
          "name": "",
          "type": "address"
        }
      ],
      "stateMutability": "view",
      "type": "function"
    },
    {
      "inputs": [
        {
          "components": [
            {
              "internalType": "bytes",
              "name": "transactions",
              "type": "bytes"
            },
            {
              "internalType": "bytes32",
              "name": "globalExitRoot",
              "type": "bytes32"
            },
            {
              "internalType": "uint64",
              "name": "timestamp",
              "type": "uint64"
            },
            {
              "internalType": "uint64",
              "name": "minForcedTimestamp",
              "type": "uint64"
            }
          ],
          "internalType": "struct ProofOfEfficiency.BatchData[]",
          "name": "batches",
          "type": "tuple[]"
        }
      ],
      "name": "sequenceBatches",
      "outputs": [],
      "stateMutability": "nonpayable",
      "type": "function"
    },
    {
      "inputs": [
        {
          "components": [
            {
              "internalType": "bytes",
              "name": "transactions",
              "type": "bytes"
            },
            {
              "internalType": "bytes32",
              "name": "globalExitRoot",
              "type": "bytes32"
            },
            {
              "internalType": "uint64",
              "name": "minForcedTimestamp",
              "type": "uint64"
            }
          ],
          "internalType": "struct ProofOfEfficiency.ForceBatchData[]",
          "name": "batches",
          "type": "tuple[]"
        }
      ],
      "name": "sequenceForceBatches",
      "outputs": [],
      "stateMutability": "nonpayable",
      "type": "function"
    },
    {
      "inputs": [
        {
          "internalType": "uint64",
          "name": "",
          "type": "uint64"
        }
      ],
      "name": "sequencedBatches",
      "outputs": [
        {
          "internalType": "bytes32",
          "name": "",
          "type": "bytes32"
        }
      ],
      "stateMutability": "view",
      "type": "function"
    },
    {
      "inputs": [
        {
          "internalType": "bool",
          "name": "newForceBatchAllowed",
          "type": "bool"
        }
      ],
      "name": "setForceBatchAllowed",
      "outputs": [],
      "stateMutability": "nonpayable",
      "type": "function"
    },
    {
      "inputs": [
        {
          "internalType": "address",
          "name": "newTrustedSequencer",
          "type": "address"
        }
      ],
      "name": "setTrustedSequencer",
      "outputs": [],
      "stateMutability": "nonpayable",
      "type": "function"
    },
    {
      "inputs": [
        {
          "internalType": "string",
          "name": "newTrustedSequencerURL",
          "type": "string"
        }
      ],
      "name": "setTrustedSequencerURL",
      "outputs": [],
      "stateMutability": "nonpayable",
      "type": "function"
    },
    {
      "inputs": [],
      "name": "trustedSequencer",
      "outputs": [
        {
          "internalType": "address",
          "name": "",
          "type": "address"
        }
      ],
      "stateMutability": "view",
      "type": "function"
    },
    {
      "inputs": [],
      "name": "trustedSequencerURL",
      "outputs": [
        {
          "internalType": "string",
          "name": "",
          "type": "string"
        }
      ],
      "stateMutability": "view",
      "type": "function"
    },
    {
      "inputs": [
        {
          "internalType": "uint64",
          "name": "_lastVerifiedBatch",
          "type": "uint64"
        },
        {
          "internalType": "uint64",
          "name": "newVerifiedBatch",
          "type": "uint64"
        },
        {
          "internalType": "bytes32",
          "name": "newLocalExitRoot",
          "type": "bytes32"
        },
        {
          "internalType": "bytes32",
          "name": "newStateRoot",
          "type": "bytes32"
        },
        {
          "internalType": "uint256[2]",
          "name": "proofA",
          "type": "uint256[2]"
        },
        {
          "internalType": "uint256[2][2]",
          "name": "proofB",
          "type": "uint256[2][2]"
        },
        {
          "internalType": "uint256[2]",
          "name": "proofC",
          "type": "uint256[2]"
        }
      ],
      "name": "verifyBatches",
      "outputs": [],
      "stateMutability": "nonpayable",
      "type": "function"
    }
  ],
  "bytecode": "0x608060405234801561001057600080fd5b506139eb806100206000396000f3fe608060405234801561001057600080fd5b50600436106101da5760003560e01c8063ab9fc5ef11610104578063d02103ca116100a2578063e7a7ed0211610071578063e7a7ed02146104a1578063e8bf92ed146104d1578063eaeb077b146104f1578063f75527611461050457600080fd5b8063d02103ca1461041e578063d2fd1b311461043e578063d8d1091b14610451578063d8f54db01461046457600080fd5b8063b4d63f58116100de578063b4d63f5814610374578063b6b0b09714610394578063c89e42df146103df578063cfa8ed47146103f257600080fd5b8063ab9fc5ef1461034d578063adc879e914610357578063b02286c01461036b57600080fd5b806355b925e61161017c578063798470571161014b57806379847057146103165780637fcb36531461031e5780638c4a0af71461033257806399f5634e1461034557600080fd5b806355b925e6146102bd5780636b8616ce146102d05780636ff512cc146102f05780637152facf1461030357600080fd5b8063423fa856116101b8578063423fa8561461023f578063456052671461025f5780635392c5e014610287578063542028d5146102b557600080fd5b8063107bf28c146101df57806319d8ac61146101fd5780633c1582671461022a575b600080fd5b6101e7610513565b6040516101f49190612e57565b60405180910390f35b6003546102119067ffffffffffffffff1681565b60405167ffffffffffffffff90911681526020016101f4565b61023d610238366004613003565b6105a1565b005b6003546102119068010000000000000000900467ffffffffffffffff1681565b60035461021190700100000000000000000000000000000000900467ffffffffffffffff1681565b6102a7610295366004613138565b60066020526000908152604090205481565b6040519081526020016101f4565b6101e7610ed3565b61023d6102cb36600461316a565b610ee0565b6102a76102de366004613138565b60016020526000908152604090205481565b61023d6102fe36600461321d565b6113a3565b6101e761031136600461323a565b6114de565b6102a7611748565b6004546102119067ffffffffffffffff1681565b61023d610340366004613295565b6117c2565b6102a76118f6565b61021162093a8081565b6009546102119067ffffffffffffffff1681565b6102a761ea6081565b6102a7610382366004613138565b60026020526000908152604090205481565b6000546103ba9062010000900473ffffffffffffffffffffffffffffffffffffffff1681565b60405173ffffffffffffffffffffffffffffffffffffffff90911681526020016101f4565b61023d6103ed3660046132b2565b611a25565b6004546103ba9068010000000000000000900473ffffffffffffffffffffffffffffffffffffffff1681565b6005546103ba9073ffffffffffffffffffffffffffffffffffffffff1681565b61023d61044c3660046132ef565b611b14565b61023d61045f3660046133c5565b611e28565b600454610491907c0100000000000000000000000000000000000000000000000000000000900460ff1681565b60405190151581526020016101f4565b600354610211907801000000000000000000000000000000000000000000000000900467ffffffffffffffff1681565b6007546103ba9073ffffffffffffffffffffffffffffffffffffffff1681565b61023d6104ff3660046134d6565b6124ce565b6102a767016345785d8a000081565b600a80546105209061351b565b80601f016020809104026020016040519081016040528092919081815260200182805461054c9061351b565b80156105995780601f1061056e57610100808354040283529160200191610599565b820191906000526020600020905b81548152906001019060200180831161057c57829003601f168201915b505050505081565b60045468010000000000000000900473ffffffffffffffffffffffffffffffffffffffff163314610659576040517f08c379a000000000000000000000000000000000000000000000000000000000815260206004820152603f60248201527f50726f6f664f66456666696369656e63793a3a6f6e6c7954727573746564536560448201527f7175656e6365723a206f6e6c7920747275737465642073657175656e6365720060648201526084015b60405180910390fd5b805160035467ffffffffffffffff680100000000000000008204811660008181526002602052604081205483851694929370010000000000000000000000000000000090930490921691905b85811015610ca95760008782815181106106c1576106c161356e565b602002602001015190506000816060015167ffffffffffffffff16111561092c57836106ec816135cc565b94505060008160000151805190602001208260200151836060015160405160200161074f93929190928352602083019190915260c01b7fffffffffffffffff00000000000000000000000000000000000000000000000016604082015260480190565b604080517fffffffffffffffffffffffffffffffffffffffffffffffffffffffffffffffe0818403018152918152815160209283012067ffffffffffffffff8816600090815260019093529120549091508114610854576040517f08c379a000000000000000000000000000000000000000000000000000000000815260206004820152604260248201527f50726f6f664f66456666696369656e63793a3a73657175656e6365426174636860448201527f65733a20466f7263656420626174636865732064617461206d757374206d617460648201527f6368000000000000000000000000000000000000000000000000000000000000608482015260a401610650565b816060015167ffffffffffffffff16826040015167ffffffffffffffff161015610926576040517f08c379a000000000000000000000000000000000000000000000000000000000815260206004820152605d60248201527f50726f6f664f66456666696369656e63793a3a73657175656e6365426174636860448201527f65733a20466f7263656420626174636865732074696d657374616d70206d757360648201527f7420626520626967676572206f7220657175616c207468616e206d696e000000608482015260a401610650565b50610afa565b602081015115806109db575060055460208201516040517f257b363200000000000000000000000000000000000000000000000000000000815273ffffffffffffffffffffffffffffffffffffffff9092169163257b3632916109959160040190815260200190565b6020604051808303816000875af11580156109b4573d6000803e3d6000fd5b505050506040513d601f19601f820116820180604052508101906109d891906135f3565b15155b610a67576040517f08c379a000000000000000000000000000000000000000000000000000000000815260206004820152603f60248201527f50726f6f664f66456666696369656e63793a3a73657175656e6365426174636860448201527f65733a20476c6f62616c206578697420726f6f74206d757374206578697374006064820152608401610650565b80515161ea6011610afa576040517f08c379a000000000000000000000000000000000000000000000000000000000815260206004820152603f60248201527f50726f6f664f66456666696369656e63793a3a73657175656e6365426174636860448201527f65733a205472616e73616374696f6e73206279746573206f766572666c6f77006064820152608401610650565b8567ffffffffffffffff16816040015167ffffffffffffffff1610158015610b30575042816040015167ffffffffffffffff1611155b610be2576040517f08c379a000000000000000000000000000000000000000000000000000000000815260206004820152604260248201527f50726f6f664f66456666696369656e63793a3a73657175656e6365426174636860448201527f65733a2054696d657374616d70206d75737420626520696e736964652072616e60648201527f6765000000000000000000000000000000000000000000000000000000000000608482015260a401610650565b805180516020918201208183015160408085015181519485018890529084019290925260608084019190915260c09190911b7fffffffffffffffff00000000000000000000000000000000000000000000000016608083015233901b7fffffffffffffffffffffffffffffffffffffffff000000000000000000000000166088820152609c016040516020818303038152906040528051906020012092508480610c8b906135cc565b95505080604001519550508080610ca19061360c565b9150506106a5565b5060035467ffffffffffffffff780100000000000000000000000000000000000000000000000090910481169083161115610d66576040517f08c379a000000000000000000000000000000000000000000000000000000000815260206004820152603a60248201527f50726f6f664f66456666696369656e63793a3a73657175656e6365426174636860448201527f65733a20466f7263652062617463686573206f766572666c6f770000000000006064820152608401610650565b600354600090610d9490700100000000000000000000000000000000900467ffffffffffffffff1684613644565b610da89067ffffffffffffffff168761366d565b6003805467ffffffffffffffff868116700100000000000000000000000000000000027fffffffffffffffff0000000000000000ffffffffffffffffffffffffffffffff8983166801000000000000000081027fffffffffffffffffffffffffffffffff00000000000000000000000000000000909516938c169390931793909317929092169190911790915560009081526002602052604090208390559050610e863330610e5f8467016345785d8a0000613684565b60005462010000900473ffffffffffffffffffffffffffffffffffffffff1692919061299c565b6003546040516801000000000000000090910467ffffffffffffffff16907f303446e6a8cb73c83dff421c0b1d5e5ce0719dab1bff13660fc254e58cc17fce90600090a250505050505050565b600880546105209061351b565b60045467ffffffffffffffff9081169088161115610fa6576040517f08c379a000000000000000000000000000000000000000000000000000000000815260206004820152604a60248201527f50726f6f664f66456666696369656e63793a3a7665726966794261746368657360448201527f3a205f6c61737456657269666965644261746368206d757374206265206c657360648201527f73206f7220657175616c00000000000000000000000000000000000000000000608482015260a401610650565b60045467ffffffffffffffff9081169087161161106b576040517f08c379a000000000000000000000000000000000000000000000000000000000815260206004820152605860248201527f50726f6f664f66456666696369656e63793a3a7665726966794261746368657360448201527f3a206e657756657269666965644261746368206d75737420626520626967676560648201527f72207468616e206c617374566572696669656442617463680000000000000000608482015260a401610650565b6000611079888888886114de565b905060007f30644e72e131a029b85045b68181585d2833e84879b9709143e1f593f00000016002836040516110ae91906136c1565b602060405180830381855afa1580156110cb573d6000803e3d6000fd5b5050506040513d601f19601f820116820180604052508101906110ee91906135f3565b6110f8919061370c565b6007546040805160208101825283815290517f43753b4d00000000000000000000000000000000000000000000000000000000815292935073ffffffffffffffffffffffffffffffffffffffff909116916343753b4d916111629189918991899190600401613720565b602060405180830381865afa15801561117f573d6000803e3d6000fd5b505050506040513d601f19601f820116820180604052508101906111a3919061379a565b61122f576040517f08c379a000000000000000000000000000000000000000000000000000000000815260206004820152602f60248201527f50726f6f664f66456666696369656e63793a3a7665726966794261746368657360448201527f3a20494e56414c49445f50524f4f4600000000000000000000000000000000006064820152608401610650565b60045461128e90339061124c9067ffffffffffffffff168b613644565b67ffffffffffffffff1661125e6118f6565b6112689190613684565b60005462010000900473ffffffffffffffffffffffffffffffffffffffff169190612a78565b600480547fffffffffffffffffffffffffffffffffffffffffffffffff00000000000000001667ffffffffffffffff8a1690811782556000908152600660205260409081902088905560055490517f33d6247d00000000000000000000000000000000000000000000000000000000815291820189905273ffffffffffffffffffffffffffffffffffffffff16906333d6247d90602401600060405180830381600087803b15801561133f57600080fd5b505af1158015611353573d6000803e3d6000fd5b505060405188815233925067ffffffffffffffff8b1691507f9c72852172521097ba7e1482e6b44b351323df0155f97f4ea18fcec28e1f59669060200160405180910390a3505050505050505050565b60045468010000000000000000900473ffffffffffffffffffffffffffffffffffffffff163314611456576040517f08c379a000000000000000000000000000000000000000000000000000000000815260206004820152603f60248201527f50726f6f664f66456666696369656e63793a3a6f6e6c7954727573746564536560448201527f7175656e6365723a206f6e6c7920747275737465642073657175656e636572006064820152608401610650565b600480547fffffffff0000000000000000000000000000000000000000ffffffffffffffff166801000000000000000073ffffffffffffffffffffffffffffffffffffffff8416908102919091179091556040519081527ff54144f9611984021529f814a1cb6a41e22c58351510a0d9f7e822618abb9cc0906020015b60405180910390a150565b67ffffffffffffffff80851660008181526002602052604080822054938716825290205460609291158061151157508115155b6115c3576040517f08c379a000000000000000000000000000000000000000000000000000000000815260206004820152604560248201527f50726f6f664f66456666696369656e63793a3a676574496e707574536e61726b60448201527f42797465733a206f6c64416363496e7075744861736820646f6573206e6f742060648201527f6578697374000000000000000000000000000000000000000000000000000000608482015260a401610650565b80611676576040517f08c379a000000000000000000000000000000000000000000000000000000000815260206004820152604560248201527f50726f6f664f66456666696369656e63793a3a676574496e707574536e61726b60448201527f42797465733a206e6577416363496e7075744861736820646f6573206e6f742060648201527f6578697374000000000000000000000000000000000000000000000000000000608482015260a401610650565b67ffffffffffffffff87166000908152600660209081526040918290205460095492517fffffffffffffffffffffffffffffffffffffffff0000000000000000000000003360601b16928101929092526034820152605481018490527fffffffffffffffff00000000000000000000000000000000000000000000000060c08a811b8216607484015292831b8116607c8301526084820187905260a4820184905260c482018890529188901b90911660e482015260ec0160405160208183030381529060405292505050949350505050565b60035460009067ffffffffffffffff70010000000000000000000000000000000082048116916117979178010000000000000000000000000000000000000000000000009091041660016137b7565b6117a19190613644565b6117bd9067ffffffffffffffff16670de0b6b3a7640000613684565b905090565b60045468010000000000000000900473ffffffffffffffffffffffffffffffffffffffff163314611875576040517f08c379a000000000000000000000000000000000000000000000000000000000815260206004820152603f60248201527f50726f6f664f66456666696369656e63793a3a6f6e6c7954727573746564536560448201527f7175656e6365723a206f6e6c7920747275737465642073657175656e636572006064820152608401610650565b600480548215157c0100000000000000000000000000000000000000000000000000000000027fffffff00ffffffffffffffffffffffffffffffffffffffffffffffffffffffff9091161790556040517fbacda50a4a8575be1d91a7ebe29ee45056f3a94f12a2281eb6b43afa33bcefe6906114d390831515815260200190565b600080546040517f70a08231000000000000000000000000000000000000000000000000000000008152306004820152829162010000900473ffffffffffffffffffffffffffffffffffffffff16906370a0823190602401602060405180830381865afa15801561196b573d6000803e3d6000fd5b505050506040513d601f19601f8201168201806040525081019061198f91906135f3565b60045460035491925060009167ffffffffffffffff918216916801000000000000000082048116916119f49170010000000000000000000000000000000082048116917801000000000000000000000000000000000000000000000000900416613644565b6119fe91906137b7565b611a089190613644565b67ffffffffffffffff169050611a1e81836137e3565b9250505090565b60045468010000000000000000900473ffffffffffffffffffffffffffffffffffffffff163314611ad8576040517f08c379a000000000000000000000000000000000000000000000000000000000815260206004820152603f60248201527f50726f6f664f66456666696369656e63793a3a6f6e6c7954727573746564536560448201527f7175656e6365723a206f6e6c7920747275737465642073657175656e636572006064820152608401610650565b6008611ae48282613845565b507f6b8f723a4c7a5335cafae8a598a0aa0301be1387c037dccc085b62add6448b20816040516114d39190612e57565b600054610100900460ff1615808015611b345750600054600160ff909116105b80611b4e5750303b158015611b4e575060005460ff166001145b611bda576040517f08c379a000000000000000000000000000000000000000000000000000000000815260206004820152602e60248201527f496e697469616c697a61626c653a20636f6e747261637420697320616c72656160448201527f647920696e697469616c697a65640000000000000000000000000000000000006064820152608401610650565b600080547fffffffffffffffffffffffffffffffffffffffffffffffffffffffffffffff001660011790558015611c3857600080547fffffffffffffffffffffffffffffffffffffffffffffffffffffffffffff00ff166101001790555b600580547fffffffffffffffffffffffff000000000000000000000000000000000000000090811673ffffffffffffffffffffffffffffffffffffffff8d811691909117909255600080547fffffffffffffffffffff0000000000000000000000000000000000000000ffff16620100008d851602178155600780549092168b841617909155805260066020527f54cdd369e4e8a8515e52ca72ec816c2101831ad1f18bf44102ed171459c9b4f8889055600480547fffffff000000000000000000000000000000000000000000ffffffffffffffff1668010000000000000000928916929092027fffffff00ffffffffffffffffffffffffffffffffffffffffffffffffffffffff16919091177c0100000000000000000000000000000000000000000000000000000000871515021790556008611d778582613845565b50600980547fffffffffffffffffffffffffffffffffffffffffffffffff00000000000000001667ffffffffffffffff8516179055600a611db88382613845565b508015611e1c57600080547fffffffffffffffffffffffffffffffffffffffffffffffffffffffffffff00ff169055604051600181527f7f26b83ff96e1f2b6a682f133852f6798a09c465da95921460cefb38474024989060200160405180910390a15b50505050505050505050565b6004547c0100000000000000000000000000000000000000000000000000000000900460ff161515600114611f05576040517f08c379a000000000000000000000000000000000000000000000000000000000815260206004820152604860248201527f50726f6f664f66456666696369656e63793a3a6973466f72636542617463684160448201527f6c6c6f7765643a206f6e6c7920696620666f726365206261746368206973206160648201527f7661696c61626c65000000000000000000000000000000000000000000000000608482015260a401610650565b805180611fba576040517f08c379a000000000000000000000000000000000000000000000000000000000815260206004820152604260248201527f50726f6f664f66456666696369656e63793a3a73657175656e6365466f72636560448201527f42617463683a204d75737420666f726365206174206c6561737420312062617460648201527f6368000000000000000000000000000000000000000000000000000000000000608482015260a401610650565b60035467ffffffffffffffff7801000000000000000000000000000000000000000000000000820481169161200591849170010000000000000000000000000000000090041661395f565b1115612093576040517f08c379a000000000000000000000000000000000000000000000000000000000815260206004820152603a60248201527f50726f6f664f66456666696369656e63793a3a73657175656e6365466f72636560448201527f42617463683a20466f72636520626174636820696e76616c69640000000000006064820152608401610650565b60035467ffffffffffffffff680100000000000000008204811660008181526002602052604081205491937001000000000000000000000000000000009004909216915b848110156123fe5760008682815181106120f3576120f361356e565b602002602001015190508380612108906135cc565b825180516020918201208185015160408087015181519485019390935283015260c01b7fffffffffffffffff00000000000000000000000000000000000000000000000016606082015290955060009150606801604080517fffffffffffffffffffffffffffffffffffffffffffffffffffffffffffffffe0818403018152918152815160209283012067ffffffffffffffff8816600090815260019093529120549091508114612261576040517f08c379a000000000000000000000000000000000000000000000000000000000815260206004820152604760248201527f50726f6f664f66456666696369656e63793a3a73657175656e6365466f72636560448201527f426174636865733a20466f7263656420626174636865732064617461206d757360648201527f74206d6174636800000000000000000000000000000000000000000000000000608482015260a401610650565b61226c60018861366d565b8303612344574262093a80836040015161228691906137b7565b67ffffffffffffffff161115612344576040517f08c379a000000000000000000000000000000000000000000000000000000000815260206004820152604c60248201527f50726f6f664f66456666696369656e63793a3a73657175656e6365466f72636560448201527f42617463683a20466f72636564206261746368206973206e6f7420696e20746960648201527f6d656f757420706572696f640000000000000000000000000000000000000000608482015260a401610650565b8151805160209182012081840151604080519384018890528301919091526060808301919091524260c01b7fffffffffffffffff00000000000000000000000000000000000000000000000016608083015233901b7fffffffffffffffffffffffffffffffffffffffff000000000000000000000000166088820152609c0160405160208183030381529060405280519060200120935085806123e6906135cc565b965050505080806123f69061360c565b9150506120d7565b50600380544267ffffffffffffffff9081167fffffffffffffffffffffffffffffffff000000000000000000000000000000009092169190911768010000000000000000868316818102929092177fffffffffffffffff0000000000000000ffffffffffffffffffffffffffffffff1670010000000000000000000000000000000087851602178455600091825260026020526040808320869055935493519304909116917f648a61dd2438f072f5a1960939abd30f37aea80d2e94c9792ad142d3e0a490a49190a25050505050565b6004547c0100000000000000000000000000000000000000000000000000000000900460ff1615156001146125ab576040517f08c379a000000000000000000000000000000000000000000000000000000000815260206004820152604860248201527f50726f6f664f66456666696369656e63793a3a6973466f72636542617463684160448201527f6c6c6f7765643a206f6e6c7920696620666f726365206261746368206973206160648201527f7661696c61626c65000000000000000000000000000000000000000000000000608482015260a401610650565b60006125b5611748565b905081811115612647576040517f08c379a000000000000000000000000000000000000000000000000000000000815260206004820152602f60248201527f50726f6f664f66456666696369656e63793a3a666f72636542617463683a206e60448201527f6f7420656e6f756768206d6174696300000000000000000000000000000000006064820152608401610650565b61ea608351106126d9576040517f08c379a000000000000000000000000000000000000000000000000000000000815260206004820152603a60248201527f50726f6f664f66456666696369656e63793a3a666f72636542617463683a205460448201527f72616e73616374696f6e73206279746573206f766572666c6f770000000000006064820152608401610650565b6000546127049062010000900473ffffffffffffffffffffffffffffffffffffffff1633308461299c565b600554604080517f3ed691ef000000000000000000000000000000000000000000000000000000008152905160009273ffffffffffffffffffffffffffffffffffffffff1691633ed691ef9160048083019260209291908290030181865afa158015612774573d6000803e3d6000fd5b505050506040513d601f19601f8201168201806040525081019061279891906135f3565b60038054919250780100000000000000000000000000000000000000000000000090910467ffffffffffffffff169060186127d2836135cc565b91906101000a81548167ffffffffffffffff021916908367ffffffffffffffff160217905550508380519060200120814260405160200161284b93929190928352602083019190915260c01b7fffffffffffffffff00000000000000000000000000000000000000000000000016604082015260480190565b604080518083037fffffffffffffffffffffffffffffffffffffffffffffffffffffffffffffffe001815291815281516020928301206003547801000000000000000000000000000000000000000000000000900467ffffffffffffffff166000908152600190935291205532330361293957600354604080518381523360208201526060918101829052600091810191909152780100000000000000000000000000000000000000000000000090910467ffffffffffffffff16907ff94bb37db835f1ab585ee00041849a09b12cd081d77fa15ca070757619cbc9319060800160405180910390a2612996565b600360189054906101000a900467ffffffffffffffff1667ffffffffffffffff167ff94bb37db835f1ab585ee00041849a09b12cd081d77fa15ca070757619cbc93182338760405161298d93929190613977565b60405180910390a25b50505050565b60405173ffffffffffffffffffffffffffffffffffffffff808516602483015283166044820152606481018290526129969085907f23b872dd00000000000000000000000000000000000000000000000000000000906084015b604080517fffffffffffffffffffffffffffffffffffffffffffffffffffffffffffffffe08184030181529190526020810180517bffffffffffffffffffffffffffffffffffffffffffffffffffffffff167fffffffff0000000000000000000000000000000000000000000000000000000090931692909217909152612ad3565b60405173ffffffffffffffffffffffffffffffffffffffff8316602482015260448101829052612ace9084907fa9059cbb00000000000000000000000000000000000000000000000000000000906064016129f6565b505050565b6000612b35826040518060400160405280602081526020017f5361666545524332303a206c6f772d6c6576656c2063616c6c206661696c65648152508573ffffffffffffffffffffffffffffffffffffffff16612bdf9092919063ffffffff16565b805190915015612ace5780806020019051810190612b53919061379a565b612ace576040517f08c379a000000000000000000000000000000000000000000000000000000000815260206004820152602a60248201527f5361666545524332303a204552433230206f7065726174696f6e20646964206e60448201527f6f742073756363656564000000000000000000000000000000000000000000006064820152608401610650565b6060612bee8484600085612bf8565b90505b9392505050565b606082471015612c8a576040517f08c379a000000000000000000000000000000000000000000000000000000000815260206004820152602660248201527f416464726573733a20696e73756666696369656e742062616c616e636520666f60448201527f722063616c6c00000000000000000000000000000000000000000000000000006064820152608401610650565b73ffffffffffffffffffffffffffffffffffffffff85163b612d08576040517f08c379a000000000000000000000000000000000000000000000000000000000815260206004820152601d60248201527f416464726573733a2063616c6c20746f206e6f6e2d636f6e74726163740000006044820152606401610650565b6000808673ffffffffffffffffffffffffffffffffffffffff168587604051612d3191906136c1565b60006040518083038185875af1925050503d8060008114612d6e576040519150601f19603f3d011682016040523d82523d6000602084013e612d73565b606091505b5091509150612d83828286612d8e565b979650505050505050565b60608315612d9d575081612bf1565b825115612dad5782518084602001fd5b816040517f08c379a00000000000000000000000000000000000000000000000000000000081526004016106509190612e57565b60005b83811015612dfc578181015183820152602001612de4565b838111156129965750506000910152565b60008151808452612e25816020860160208601612de1565b601f017fffffffffffffffffffffffffffffffffffffffffffffffffffffffffffffffe0169290920160200192915050565b602081526000612bf16020830184612e0d565b7f4e487b7100000000000000000000000000000000000000000000000000000000600052604160045260246000fd5b6040516080810167ffffffffffffffff81118282101715612ebc57612ebc612e6a565b60405290565b6040516060810167ffffffffffffffff81118282101715612ebc57612ebc612e6a565b604051601f82017fffffffffffffffffffffffffffffffffffffffffffffffffffffffffffffffe016810167ffffffffffffffff81118282101715612f2c57612f2c612e6a565b604052919050565b600067ffffffffffffffff821115612f4e57612f4e612e6a565b5060051b60200190565b600082601f830112612f6957600080fd5b813567ffffffffffffffff811115612f8357612f83612e6a565b612fb460207fffffffffffffffffffffffffffffffffffffffffffffffffffffffffffffffe0601f84011601612ee5565b818152846020838601011115612fc957600080fd5b816020850160208301376000918101602001919091529392505050565b803567ffffffffffffffff81168114612ffe57600080fd5b919050565b6000602080838503121561301657600080fd5b823567ffffffffffffffff8082111561302e57600080fd5b818501915085601f83011261304257600080fd5b813561305561305082612f34565b612ee5565b81815260059190911b8301840190848101908883111561307457600080fd5b8585015b8381101561312b578035858111156130905760008081fd5b86016080818c037fffffffffffffffffffffffffffffffffffffffffffffffffffffffffffffffe0018113156130c65760008081fd5b6130ce612e99565b89830135888111156130e05760008081fd5b6130ee8e8c83870101612f58565b8252506040808401358b8301526060613108818601612fe6565b82840152613117848601612fe6565b908301525085525050918601918601613078565b5098975050505050505050565b60006020828403121561314a57600080fd5b612bf182612fe6565b806040810183101561316457600080fd5b92915050565b6000806000806000806000610180888a03121561318657600080fd5b61318f88612fe6565b965061319d60208901612fe6565b955060408801359450606088013593506131ba8960808a01613153565b92506101408801898111156131ce57600080fd5b60c0890192506131de8a82613153565b91505092959891949750929550565b73ffffffffffffffffffffffffffffffffffffffff8116811461320f57600080fd5b50565b8035612ffe816131ed565b60006020828403121561322f57600080fd5b8135612bf1816131ed565b6000806000806080858703121561325057600080fd5b61325985612fe6565b935061326760208601612fe6565b93969395505050506040820135916060013590565b801515811461320f57600080fd5b8035612ffe8161327c565b6000602082840312156132a757600080fd5b8135612bf18161327c565b6000602082840312156132c457600080fd5b813567ffffffffffffffff8111156132db57600080fd5b6132e784828501612f58565b949350505050565b60008060008060008060008060006101208a8c03121561330e57600080fd5b8935613319816131ed565b985060208a0135613329816131ed565b975061333760408b01613212565b965060608a0135955061334c60808b01613212565b945061335a60a08b0161328a565b935060c08a013567ffffffffffffffff8082111561337757600080fd5b6133838d838e01612f58565b945061339160e08d01612fe6565b93506101008c01359150808211156133a857600080fd5b506133b58c828d01612f58565b9150509295985092959850929598565b600060208083850312156133d857600080fd5b823567ffffffffffffffff808211156133f057600080fd5b818501915085601f83011261340457600080fd5b813561341261305082612f34565b81815260059190911b8301840190848101908883111561343157600080fd5b8585015b8381101561312b5780358581111561344d5760008081fd5b86016060818c037fffffffffffffffffffffffffffffffffffffffffffffffffffffffffffffffe0018113156134835760008081fd5b61348b612ec2565b898301358881111561349d5760008081fd5b6134ab8e8c83870101612f58565b8252506040808401358b8301526134c3838501612fe6565b9082015285525050918601918601613435565b600080604083850312156134e957600080fd5b823567ffffffffffffffff81111561350057600080fd5b61350c85828601612f58565b95602094909401359450505050565b600181811c9082168061352f57607f821691505b602082108103613568577f4e487b7100000000000000000000000000000000000000000000000000000000600052602260045260246000fd5b50919050565b7f4e487b7100000000000000000000000000000000000000000000000000000000600052603260045260246000fd5b7f4e487b7100000000000000000000000000000000000000000000000000000000600052601160045260246000fd5b600067ffffffffffffffff8083168181036135e9576135e961359d565b6001019392505050565b60006020828403121561360557600080fd5b5051919050565b60007fffffffffffffffffffffffffffffffffffffffffffffffffffffffffffffffff820361363d5761363d61359d565b5060010190565b600067ffffffffffffffff838116908316818110156136655761366561359d565b039392505050565b60008282101561367f5761367f61359d565b500390565b6000817fffffffffffffffffffffffffffffffffffffffffffffffffffffffffffffffff04831182151516156136bc576136bc61359d565b500290565b600082516136d3818460208701612de1565b9190910192915050565b7f4e487b7100000000000000000000000000000000000000000000000000000000600052601260045260246000fd5b60008261371b5761371b6136dd565b500690565b61012081016040808784376000838201818152879190815b600281101561375857848483379084018281529284019290600101613738565b5050828760c0870137610100850181815286935091505b600181101561378e57825182526020928301929091019060010161376f565b50505095945050505050565b6000602082840312156137ac57600080fd5b8151612bf18161327c565b600067ffffffffffffffff8083168185168083038211156137da576137da61359d565b01949350505050565b6000826137f2576137f26136dd565b500490565b601f821115612ace57600081815260208120601f850160051c8101602086101561381e5750805b601f850160051c820191505b8181101561383d5782815560010161382a565b505050505050565b815167ffffffffffffffff81111561385f5761385f612e6a565b6138738161386d845461351b565b846137f7565b602080601f8311600181146138c657600084156138905750858301515b7fffffffffffffffffffffffffffffffffffffffffffffffffffffffffffffffff600386901b1c1916600185901b17855561383d565b6000858152602081207fffffffffffffffffffffffffffffffffffffffffffffffffffffffffffffffe08616915b82811015613913578886015182559484019460019091019084016138f4565b508582101561394f57878501517fffffffffffffffffffffffffffffffffffffffffffffffffffffffffffffffff600388901b60f8161c191681555b5050505050600190811b01905550565b600082198211156139725761397261359d565b500190565b83815273ffffffffffffffffffffffffffffffffffffffff831660208201526060604082015260006139ac6060830184612e0d565b9594505050505056fea264697066735822122018ec4825c825ff181a582e9a24cd8b012688140492d1a67a912ff3a247a51d0264736f6c634300080f0033",
  "linkReferences": {},
  "deployedLinkReferences": {}
}