{
  "_format": "hh-sol-artifact-1",
  "contractName": "ProofOfEfficiency",
  "sourceName": "contracts/ProofOfEfficiency.sol",
  "abi": [
    {
      "anonymous": false,
      "inputs": [
        {
          "indexed": true,
          "internalType": "uint64",
          "name": "numBatch",
          "type": "uint64"
        },
        {
          "indexed": false,
          "internalType": "bytes32",
          "name": "stateRoot",
          "type": "bytes32"
        },
        {
          "indexed": true,
          "internalType": "uint64",
          "name": "pendingStateNum",
          "type": "uint64"
        }
      ],
      "name": "ConsolidatePendingState",
      "type": "event"
    },
    {
      "anonymous": false,
      "inputs": [],
      "name": "EmergencyStateActivated",
      "type": "event"
    },
    {
      "anonymous": false,
      "inputs": [],
      "name": "EmergencyStateDeactivated",
      "type": "event"
    },
    {
      "anonymous": false,
      "inputs": [
        {
          "indexed": true,
          "internalType": "uint64",
          "name": "forceBatchNum",
          "type": "uint64"
        },
        {
          "indexed": false,
          "internalType": "bytes32",
          "name": "lastGlobalExitRoot",
          "type": "bytes32"
        },
        {
          "indexed": false,
          "internalType": "address",
          "name": "sequencer",
          "type": "address"
        },
        {
          "indexed": false,
          "internalType": "bytes",
          "name": "transactions",
          "type": "bytes"
        }
      ],
      "name": "ForceBatch",
      "type": "event"
    },
    {
      "anonymous": false,
      "inputs": [
        {
          "indexed": false,
          "internalType": "uint8",
          "name": "version",
          "type": "uint8"
        }
      ],
      "name": "Initialized",
      "type": "event"
    },
    {
      "anonymous": false,
      "inputs": [
        {
          "indexed": true,
          "internalType": "uint64",
          "name": "numBatch",
          "type": "uint64"
        },
        {
          "indexed": false,
          "internalType": "bytes32",
          "name": "stateRoot",
          "type": "bytes32"
        },
        {
          "indexed": true,
          "internalType": "address",
          "name": "aggregator",
          "type": "address"
        }
      ],
      "name": "OverridePendingState",
      "type": "event"
    },
    {
      "anonymous": false,
      "inputs": [
        {
          "indexed": true,
          "internalType": "address",
          "name": "previousOwner",
          "type": "address"
        },
        {
          "indexed": true,
          "internalType": "address",
          "name": "newOwner",
          "type": "address"
        }
      ],
      "name": "OwnershipTransferred",
      "type": "event"
    },
    {
      "anonymous": false,
      "inputs": [
        {
          "indexed": false,
          "internalType": "bytes32",
          "name": "storedStateRoot",
          "type": "bytes32"
        },
        {
          "indexed": false,
          "internalType": "bytes32",
          "name": "provedStateRoot",
          "type": "bytes32"
        }
      ],
      "name": "ProveNonDeterministicPendingState",
      "type": "event"
    },
    {
      "anonymous": false,
      "inputs": [
        {
          "indexed": true,
          "internalType": "uint64",
          "name": "numBatch",
          "type": "uint64"
        }
      ],
      "name": "SequenceBatches",
      "type": "event"
    },
    {
      "anonymous": false,
      "inputs": [
        {
          "indexed": true,
          "internalType": "uint64",
          "name": "numBatch",
          "type": "uint64"
        }
      ],
      "name": "SequenceForceBatches",
      "type": "event"
    },
    {
      "anonymous": false,
      "inputs": [
        {
          "indexed": false,
          "internalType": "address",
          "name": "newAdmin",
          "type": "address"
        }
      ],
      "name": "SetAdmin",
      "type": "event"
    },
    {
      "anonymous": false,
      "inputs": [
        {
          "indexed": false,
          "internalType": "bool",
          "name": "newForceBatchAllowed",
          "type": "bool"
        }
      ],
      "name": "SetForceBatchAllowed",
      "type": "event"
    },
    {
      "anonymous": false,
      "inputs": [
        {
          "indexed": false,
          "internalType": "uint64",
          "name": "newPendingStateTimeout",
          "type": "uint64"
        }
      ],
      "name": "SetPendingStateTimeout",
      "type": "event"
    },
    {
      "anonymous": false,
      "inputs": [
        {
          "indexed": false,
          "internalType": "address",
          "name": "newTrustedAggregator",
          "type": "address"
        }
      ],
      "name": "SetTrustedAggregator",
      "type": "event"
    },
    {
      "anonymous": false,
      "inputs": [
        {
          "indexed": false,
          "internalType": "uint64",
          "name": "newTrustedAggregatorTimeout",
          "type": "uint64"
        }
      ],
      "name": "SetTrustedAggregatorTimeout",
      "type": "event"
    },
    {
      "anonymous": false,
      "inputs": [
        {
          "indexed": false,
          "internalType": "address",
          "name": "newTrustedSequencer",
          "type": "address"
        }
      ],
      "name": "SetTrustedSequencer",
      "type": "event"
    },
    {
      "anonymous": false,
      "inputs": [
        {
          "indexed": false,
          "internalType": "string",
          "name": "newTrustedSequencerURL",
          "type": "string"
        }
      ],
      "name": "SetTrustedSequencerURL",
      "type": "event"
    },
    {
      "anonymous": false,
      "inputs": [
        {
          "indexed": true,
          "internalType": "uint64",
          "name": "numBatch",
          "type": "uint64"
        },
        {
          "indexed": false,
          "internalType": "bytes32",
          "name": "stateRoot",
          "type": "bytes32"
        },
        {
          "indexed": true,
          "internalType": "address",
          "name": "aggregator",
          "type": "address"
        }
      ],
      "name": "TrustedVerifyBatches",
      "type": "event"
    },
    {
      "anonymous": false,
      "inputs": [
        {
          "indexed": true,
          "internalType": "uint64",
          "name": "numBatch",
          "type": "uint64"
        },
        {
          "indexed": false,
          "internalType": "bytes32",
          "name": "stateRoot",
          "type": "bytes32"
        },
        {
          "indexed": true,
          "internalType": "address",
          "name": "aggregator",
          "type": "address"
        }
      ],
      "name": "VerifyBatches",
      "type": "event"
    },
    {
      "inputs": [],
      "name": "FORCE_BATCH_TIMEOUT",
      "outputs": [
        {
          "internalType": "uint64",
          "name": "",
          "type": "uint64"
        }
      ],
      "stateMutability": "view",
      "type": "function"
    },
    {
      "inputs": [],
      "name": "HALT_AGGREGATION_TIMEOUT",
      "outputs": [
        {
          "internalType": "uint64",
          "name": "",
          "type": "uint64"
        }
      ],
      "stateMutability": "view",
      "type": "function"
    },
    {
      "inputs": [],
      "name": "MAX_TRANSACTIONS_BYTE_LENGTH",
      "outputs": [
        {
          "internalType": "uint256",
          "name": "",
          "type": "uint256"
        }
      ],
      "stateMutability": "view",
      "type": "function"
    },
    {
      "inputs": [],
      "name": "MAX_VERIFY_BATCHES",
      "outputs": [
        {
          "internalType": "uint64",
          "name": "",
          "type": "uint64"
        }
      ],
      "stateMutability": "view",
      "type": "function"
    },
    {
      "inputs": [],
      "name": "MULTIPLIER_BATCH_FEE",
      "outputs": [
        {
          "internalType": "uint256",
          "name": "",
          "type": "uint256"
        }
      ],
      "stateMutability": "view",
      "type": "function"
    },
    {
      "inputs": [],
      "name": "VERIFY_BATCH_TIME_TARGET",
      "outputs": [
        {
          "internalType": "uint64",
          "name": "",
          "type": "uint64"
        }
      ],
      "stateMutability": "view",
      "type": "function"
    },
    {
      "inputs": [
        {
          "internalType": "uint64",
          "name": "sequencedBatchNum",
          "type": "uint64"
        }
      ],
      "name": "activateEmergencyState",
      "outputs": [],
      "stateMutability": "nonpayable",
      "type": "function"
    },
    {
      "inputs": [],
      "name": "admin",
      "outputs": [
        {
          "internalType": "address",
          "name": "",
          "type": "address"
        }
      ],
      "stateMutability": "view",
      "type": "function"
    },
    {
      "inputs": [],
      "name": "batchFee",
      "outputs": [
        {
          "internalType": "uint256",
          "name": "",
          "type": "uint256"
        }
      ],
      "stateMutability": "view",
      "type": "function"
    },
    {
      "inputs": [
        {
          "internalType": "uint64",
          "name": "",
          "type": "uint64"
        }
      ],
      "name": "batchNumToStateRoot",
      "outputs": [
        {
          "internalType": "bytes32",
          "name": "",
          "type": "bytes32"
        }
      ],
      "stateMutability": "view",
      "type": "function"
    },
    {
      "inputs": [],
      "name": "bridgeAddress",
      "outputs": [
        {
          "internalType": "contract IBridge",
          "name": "",
          "type": "address"
        }
      ],
      "stateMutability": "view",
      "type": "function"
    },
    {
      "inputs": [],
      "name": "calculateBatchFee",
      "outputs": [
        {
          "internalType": "uint256",
          "name": "",
          "type": "uint256"
        }
      ],
      "stateMutability": "view",
      "type": "function"
    },
    {
      "inputs": [],
      "name": "calculateRewardPerBatch",
      "outputs": [
        {
          "internalType": "uint256",
          "name": "",
          "type": "uint256"
        }
      ],
      "stateMutability": "view",
      "type": "function"
    },
    {
      "inputs": [],
      "name": "chainID",
      "outputs": [
        {
          "internalType": "uint64",
          "name": "",
          "type": "uint64"
        }
      ],
      "stateMutability": "view",
      "type": "function"
    },
    {
      "inputs": [
        {
          "internalType": "uint64",
          "name": "pendingStateNum",
          "type": "uint64"
        }
      ],
      "name": "consolidatePendingState",
      "outputs": [],
      "stateMutability": "nonpayable",
      "type": "function"
    },
    {
      "inputs": [],
      "name": "deactivateEmergencyState",
      "outputs": [],
      "stateMutability": "nonpayable",
      "type": "function"
    },
    {
      "inputs": [
        {
          "internalType": "bytes",
          "name": "transactions",
          "type": "bytes"
        },
        {
          "internalType": "uint256",
          "name": "maticAmount",
          "type": "uint256"
        }
      ],
      "name": "forceBatch",
      "outputs": [],
      "stateMutability": "nonpayable",
      "type": "function"
    },
    {
      "inputs": [],
      "name": "forceBatchAllowed",
      "outputs": [
        {
          "internalType": "bool",
          "name": "",
          "type": "bool"
        }
      ],
      "stateMutability": "view",
      "type": "function"
    },
    {
      "inputs": [
        {
          "internalType": "uint64",
          "name": "",
          "type": "uint64"
        }
      ],
      "name": "forcedBatches",
      "outputs": [
        {
          "internalType": "bytes32",
          "name": "",
          "type": "bytes32"
        }
      ],
      "stateMutability": "view",
      "type": "function"
    },
    {
      "inputs": [
        {
          "internalType": "uint64",
          "name": "initNumBatch",
          "type": "uint64"
        },
        {
          "internalType": "uint64",
          "name": "finalNewBatch",
          "type": "uint64"
        },
        {
          "internalType": "bytes32",
          "name": "newLocalExitRoot",
          "type": "bytes32"
        },
        {
          "internalType": "bytes32",
          "name": "oldStateRoot",
          "type": "bytes32"
        },
        {
          "internalType": "bytes32",
          "name": "newStateRoot",
          "type": "bytes32"
        }
      ],
      "name": "getInputSnarkBytes",
      "outputs": [
        {
          "internalType": "bytes",
          "name": "",
          "type": "bytes"
        }
      ],
      "stateMutability": "view",
      "type": "function"
    },
    {
      "inputs": [],
      "name": "getLastVerifiedBatch",
      "outputs": [
        {
          "internalType": "uint64",
          "name": "",
          "type": "uint64"
        }
      ],
      "stateMutability": "view",
      "type": "function"
    },
    {
      "inputs": [],
      "name": "globalExitRootManager",
      "outputs": [
        {
          "internalType": "contract IGlobalExitRootManager",
          "name": "",
          "type": "address"
        }
      ],
      "stateMutability": "view",
      "type": "function"
    },
    {
      "inputs": [
        {
          "internalType": "contract IGlobalExitRootManager",
          "name": "_globalExitRootManager",
          "type": "address"
        },
        {
          "internalType": "contract IERC20Upgradeable",
          "name": "_matic",
          "type": "address"
        },
        {
          "internalType": "contract IVerifierRollup",
          "name": "_rollupVerifier",
          "type": "address"
        },
        {
          "internalType": "contract IBridge",
          "name": "_bridgeAddress",
          "type": "address"
        },
        {
          "components": [
            {
              "internalType": "address",
              "name": "admin",
              "type": "address"
            },
            {
              "internalType": "uint64",
              "name": "chainID",
              "type": "uint64"
            },
            {
              "internalType": "address",
              "name": "trustedSequencer",
              "type": "address"
            },
            {
              "internalType": "uint64",
              "name": "pendingStateTimeout",
              "type": "uint64"
            },
            {
              "internalType": "bool",
              "name": "forceBatchAllowed",
              "type": "bool"
            },
            {
              "internalType": "address",
              "name": "trustedAggregator",
              "type": "address"
            },
            {
              "internalType": "uint64",
              "name": "trustedAggregatorTimeout",
              "type": "uint64"
            }
          ],
          "internalType": "struct ProofOfEfficiency.InitializePackedParameters",
          "name": "initializePackedParameters",
          "type": "tuple"
        },
        {
          "internalType": "bytes32",
          "name": "genesisRoot",
          "type": "bytes32"
        },
        {
          "internalType": "string",
          "name": "_trustedSequencerURL",
          "type": "string"
        },
        {
          "internalType": "string",
          "name": "_networkName",
          "type": "string"
        }
      ],
      "name": "initialize",
      "outputs": [],
      "stateMutability": "nonpayable",
      "type": "function"
    },
    {
      "inputs": [],
      "name": "isEmergencyState",
      "outputs": [
        {
          "internalType": "bool",
          "name": "",
          "type": "bool"
        }
      ],
      "stateMutability": "view",
      "type": "function"
    },
    {
      "inputs": [
        {
          "internalType": "uint64",
          "name": "pendingStateNum",
          "type": "uint64"
        }
      ],
      "name": "isPendingStateConsolidable",
      "outputs": [
        {
          "internalType": "bool",
          "name": "",
          "type": "bool"
        }
      ],
      "stateMutability": "view",
      "type": "function"
    },
    {
      "inputs": [],
      "name": "lastBatchSequenced",
      "outputs": [
        {
          "internalType": "uint64",
          "name": "",
          "type": "uint64"
        }
      ],
      "stateMutability": "view",
      "type": "function"
    },
    {
      "inputs": [],
      "name": "lastForceBatch",
      "outputs": [
        {
          "internalType": "uint64",
          "name": "",
          "type": "uint64"
        }
      ],
      "stateMutability": "view",
      "type": "function"
    },
    {
      "inputs": [],
      "name": "lastForceBatchSequenced",
      "outputs": [
        {
          "internalType": "uint64",
          "name": "",
          "type": "uint64"
        }
      ],
      "stateMutability": "view",
      "type": "function"
    },
    {
      "inputs": [],
      "name": "lastPendingState",
      "outputs": [
        {
          "internalType": "uint64",
          "name": "",
          "type": "uint64"
        }
      ],
      "stateMutability": "view",
      "type": "function"
    },
    {
      "inputs": [],
      "name": "lastPendingStateConsolidated",
      "outputs": [
        {
          "internalType": "uint64",
          "name": "",
          "type": "uint64"
        }
      ],
      "stateMutability": "view",
      "type": "function"
    },
    {
      "inputs": [],
      "name": "lastTimestamp",
      "outputs": [
        {
          "internalType": "uint64",
          "name": "",
          "type": "uint64"
        }
      ],
      "stateMutability": "view",
      "type": "function"
    },
    {
      "inputs": [],
      "name": "lastVerifiedBatch",
      "outputs": [
        {
          "internalType": "uint64",
          "name": "",
          "type": "uint64"
        }
      ],
      "stateMutability": "view",
      "type": "function"
    },
    {
      "inputs": [],
      "name": "matic",
      "outputs": [
        {
          "internalType": "contract IERC20Upgradeable",
          "name": "",
          "type": "address"
        }
      ],
      "stateMutability": "view",
      "type": "function"
    },
    {
      "inputs": [],
      "name": "networkName",
      "outputs": [
        {
          "internalType": "string",
          "name": "",
          "type": "string"
        }
      ],
      "stateMutability": "view",
      "type": "function"
    },
    {
      "inputs": [
        {
          "internalType": "uint64",
          "name": "initPendingStateNum",
          "type": "uint64"
        },
        {
          "internalType": "uint64",
          "name": "finalPendingStateNum",
          "type": "uint64"
        },
        {
          "internalType": "uint64",
          "name": "initNumBatch",
          "type": "uint64"
        },
        {
          "internalType": "uint64",
          "name": "finalNewBatch",
          "type": "uint64"
        },
        {
          "internalType": "bytes32",
          "name": "newLocalExitRoot",
          "type": "bytes32"
        },
        {
          "internalType": "bytes32",
          "name": "newStateRoot",
          "type": "bytes32"
        },
        {
          "internalType": "uint256[2]",
          "name": "proofA",
          "type": "uint256[2]"
        },
        {
          "internalType": "uint256[2][2]",
          "name": "proofB",
          "type": "uint256[2][2]"
        },
        {
          "internalType": "uint256[2]",
          "name": "proofC",
          "type": "uint256[2]"
        }
      ],
      "name": "overridePendingState",
      "outputs": [],
      "stateMutability": "nonpayable",
      "type": "function"
    },
    {
      "inputs": [],
      "name": "owner",
      "outputs": [
        {
          "internalType": "address",
          "name": "",
          "type": "address"
        }
      ],
      "stateMutability": "view",
      "type": "function"
    },
    {
      "inputs": [],
      "name": "pendingStateTimeout",
      "outputs": [
        {
          "internalType": "uint64",
          "name": "",
          "type": "uint64"
        }
      ],
      "stateMutability": "view",
      "type": "function"
    },
    {
      "inputs": [
        {
          "internalType": "uint256",
          "name": "",
          "type": "uint256"
        }
      ],
      "name": "pendingStateTransitions",
      "outputs": [
        {
          "internalType": "uint64",
          "name": "timestamp",
          "type": "uint64"
        },
        {
          "internalType": "uint64",
          "name": "lastVerifiedBatch",
          "type": "uint64"
        },
        {
          "internalType": "bytes32",
          "name": "exitRoot",
          "type": "bytes32"
        },
        {
          "internalType": "bytes32",
          "name": "stateRoot",
          "type": "bytes32"
        }
      ],
      "stateMutability": "view",
      "type": "function"
    },
    {
      "inputs": [
        {
          "internalType": "uint64",
          "name": "initPendingStateNum",
          "type": "uint64"
        },
        {
          "internalType": "uint64",
          "name": "finalPendingStateNum",
          "type": "uint64"
        },
        {
          "internalType": "uint64",
          "name": "initNumBatch",
          "type": "uint64"
        },
        {
          "internalType": "uint64",
          "name": "finalNewBatch",
          "type": "uint64"
        },
        {
          "internalType": "bytes32",
          "name": "newLocalExitRoot",
          "type": "bytes32"
        },
        {
          "internalType": "bytes32",
          "name": "newStateRoot",
          "type": "bytes32"
        },
        {
          "internalType": "uint256[2]",
          "name": "proofA",
          "type": "uint256[2]"
        },
        {
          "internalType": "uint256[2][2]",
          "name": "proofB",
          "type": "uint256[2][2]"
        },
        {
          "internalType": "uint256[2]",
          "name": "proofC",
          "type": "uint256[2]"
        }
      ],
      "name": "proveNonDeterministicPendingState",
      "outputs": [],
      "stateMutability": "nonpayable",
      "type": "function"
    },
    {
      "inputs": [],
      "name": "renounceOwnership",
      "outputs": [],
      "stateMutability": "nonpayable",
      "type": "function"
    },
    {
      "inputs": [],
      "name": "rollupVerifier",
      "outputs": [
        {
          "internalType": "contract IVerifierRollup",
          "name": "",
          "type": "address"
        }
      ],
      "stateMutability": "view",
      "type": "function"
    },
    {
      "inputs": [
        {
          "components": [
            {
              "internalType": "bytes",
              "name": "transactions",
              "type": "bytes"
            },
            {
              "internalType": "bytes32",
              "name": "globalExitRoot",
              "type": "bytes32"
            },
            {
              "internalType": "uint64",
              "name": "timestamp",
              "type": "uint64"
            },
            {
              "internalType": "uint64",
              "name": "minForcedTimestamp",
              "type": "uint64"
            }
          ],
          "internalType": "struct ProofOfEfficiency.BatchData[]",
          "name": "batches",
          "type": "tuple[]"
        }
      ],
      "name": "sequenceBatches",
      "outputs": [],
      "stateMutability": "nonpayable",
      "type": "function"
    },
    {
      "inputs": [
        {
          "components": [
            {
              "internalType": "bytes",
              "name": "transactions",
              "type": "bytes"
            },
            {
              "internalType": "bytes32",
              "name": "globalExitRoot",
              "type": "bytes32"
            },
            {
              "internalType": "uint64",
              "name": "minForcedTimestamp",
              "type": "uint64"
            }
          ],
          "internalType": "struct ProofOfEfficiency.ForcedBatchData[]",
          "name": "batches",
          "type": "tuple[]"
        }
      ],
      "name": "sequenceForceBatches",
      "outputs": [],
      "stateMutability": "nonpayable",
      "type": "function"
    },
    {
      "inputs": [
        {
          "internalType": "uint64",
          "name": "",
          "type": "uint64"
        }
      ],
      "name": "sequencedBatches",
      "outputs": [
        {
          "internalType": "bytes32",
          "name": "accInputHash",
          "type": "bytes32"
        },
        {
          "internalType": "uint64",
          "name": "sequencedTimestamp",
          "type": "uint64"
        },
        {
          "internalType": "uint64",
          "name": "previousLastBatchSequenced",
          "type": "uint64"
        }
      ],
      "stateMutability": "view",
      "type": "function"
    },
    {
      "inputs": [
        {
          "internalType": "address",
          "name": "newAdmin",
          "type": "address"
        }
      ],
      "name": "setAdmin",
      "outputs": [],
      "stateMutability": "nonpayable",
      "type": "function"
    },
    {
      "inputs": [
        {
          "internalType": "bool",
          "name": "newForceBatchAllowed",
          "type": "bool"
        }
      ],
      "name": "setForceBatchAllowed",
      "outputs": [],
      "stateMutability": "nonpayable",
      "type": "function"
    },
    {
      "inputs": [
        {
          "internalType": "uint64",
          "name": "newPendingStateTimeout",
          "type": "uint64"
        }
      ],
      "name": "setPendingStateTimeout",
      "outputs": [],
      "stateMutability": "nonpayable",
      "type": "function"
    },
    {
      "inputs": [
        {
          "internalType": "address",
          "name": "newTrustedAggregator",
          "type": "address"
        }
      ],
      "name": "setTrustedAggregator",
      "outputs": [],
      "stateMutability": "nonpayable",
      "type": "function"
    },
    {
      "inputs": [
        {
          "internalType": "uint64",
          "name": "newTrustedAggregatorTimeout",
          "type": "uint64"
        }
      ],
      "name": "setTrustedAggregatorTimeout",
      "outputs": [],
      "stateMutability": "nonpayable",
      "type": "function"
    },
    {
      "inputs": [
        {
          "internalType": "address",
          "name": "newTrustedSequencer",
          "type": "address"
        }
      ],
      "name": "setTrustedSequencer",
      "outputs": [],
      "stateMutability": "nonpayable",
      "type": "function"
    },
    {
      "inputs": [
        {
          "internalType": "string",
          "name": "newTrustedSequencerURL",
          "type": "string"
        }
      ],
      "name": "setTrustedSequencerURL",
      "outputs": [],
      "stateMutability": "nonpayable",
      "type": "function"
    },
    {
      "inputs": [
        {
          "internalType": "address",
          "name": "newOwner",
          "type": "address"
        }
      ],
      "name": "transferOwnership",
      "outputs": [],
      "stateMutability": "nonpayable",
      "type": "function"
    },
    {
      "inputs": [],
      "name": "trustedAggregator",
      "outputs": [
        {
          "internalType": "address",
          "name": "",
          "type": "address"
        }
      ],
      "stateMutability": "view",
      "type": "function"
    },
    {
      "inputs": [],
      "name": "trustedAggregatorTimeout",
      "outputs": [
        {
          "internalType": "uint64",
          "name": "",
          "type": "uint64"
        }
      ],
      "stateMutability": "view",
      "type": "function"
    },
    {
      "inputs": [],
      "name": "trustedSequencer",
      "outputs": [
        {
          "internalType": "address",
          "name": "",
          "type": "address"
        }
      ],
      "stateMutability": "view",
      "type": "function"
    },
    {
      "inputs": [],
      "name": "trustedSequencerURL",
      "outputs": [
        {
          "internalType": "string",
          "name": "",
          "type": "string"
        }
      ],
      "stateMutability": "view",
      "type": "function"
    },
    {
      "inputs": [
        {
          "internalType": "uint64",
          "name": "pendingStateNum",
          "type": "uint64"
        },
        {
          "internalType": "uint64",
          "name": "initNumBatch",
          "type": "uint64"
        },
        {
          "internalType": "uint64",
          "name": "finalNewBatch",
          "type": "uint64"
        },
        {
          "internalType": "bytes32",
          "name": "newLocalExitRoot",
          "type": "bytes32"
        },
        {
          "internalType": "bytes32",
          "name": "newStateRoot",
          "type": "bytes32"
        },
        {
          "internalType": "uint256[2]",
          "name": "proofA",
          "type": "uint256[2]"
        },
        {
          "internalType": "uint256[2][2]",
          "name": "proofB",
          "type": "uint256[2][2]"
        },
        {
          "internalType": "uint256[2]",
          "name": "proofC",
          "type": "uint256[2]"
        }
      ],
      "name": "trustedVerifyBatches",
      "outputs": [],
      "stateMutability": "nonpayable",
      "type": "function"
    },
    {
      "inputs": [
        {
          "internalType": "uint64",
          "name": "pendingStateNum",
          "type": "uint64"
        },
        {
          "internalType": "uint64",
          "name": "initNumBatch",
          "type": "uint64"
        },
        {
          "internalType": "uint64",
          "name": "finalNewBatch",
          "type": "uint64"
        },
        {
          "internalType": "bytes32",
          "name": "newLocalExitRoot",
          "type": "bytes32"
        },
        {
          "internalType": "bytes32",
          "name": "newStateRoot",
          "type": "bytes32"
        },
        {
          "internalType": "uint256[2]",
          "name": "proofA",
          "type": "uint256[2]"
        },
        {
          "internalType": "uint256[2][2]",
          "name": "proofB",
          "type": "uint256[2][2]"
        },
        {
          "internalType": "uint256[2]",
          "name": "proofC",
          "type": "uint256[2]"
        }
      ],
      "name": "verifyBatches",
      "outputs": [],
      "stateMutability": "nonpayable",
      "type": "function"
    }
  ],
  "bytecode": "0x608060405234801561001057600080fd5b50615c8980620000216000396000f3fe608060405234801561001057600080fd5b506004361061038e5760003560e01c80638b48931e116101de578063d8d1091b1161010f578063e8bf92ed116100ad578063f1d7b21c1161007c578063f1d7b21c14610876578063f2fde38b1461087e578063f851a44014610891578063f8b823e4146108a457600080fd5b8063e8bf92ed1461082a578063eaeb077b1461083d578063edc4112114610850578063f14916d61461086357600080fd5b8063dbc16976116100e9578063dbc16976146107ec578063e11f3f18146107f4578063e217cfd614610807578063e7a7ed021461081057600080fd5b8063d8d1091b146107ab578063d8f54db0146107be578063d939b315146107d257600080fd5b8063adc879e91161017c578063c0ed84e011610156578063c0ed84e014610763578063c89e42df1461076b578063cfa8ed471461077e578063d02103ca1461079857600080fd5b8063adc879e9146106d1578063b4d63f58146106eb578063b6b0b0971461074b57600080fd5b806399f5634e116101b857806399f5634e146106995780639c9f3dfe146106a1578063a3c573eb146106b4578063ab9fc5ef146106c757600080fd5b80638b48931e1461066b5780638c4a0af7146106755780638da5cb5b1461068857600080fd5b80634a1a89a7116102c3578063704b6c02116102615780637abaf3e6116102305780637abaf3e6146105c85780637fcb3653146105d0578063837a4738146105e3578063841b24d71461065157600080fd5b8063704b6c0214610587578063715018a61461059a5780637215541a146105a257806375c508b3146105b557600080fd5b8063542028d51161029d578063542028d51461053957806360943d6a146105415780636b8616ce146105545780636ff512cc1461057457600080fd5b80634a1a89a7146104ec5780634a910e6a146105065780635392c5e01461051957600080fd5b8063383b3be811610330578063423fa8561161030a578063423fa8561461049257806345605267146104ac578063458c0477146104c65780634834a343146104d957600080fd5b8063383b3be814610457578063394218e91461046a5780633c1582671461047f57600080fd5b806319d8ac611161036c57806319d8ac61146103ef578063220d78991461040257806329878983146104155780632d0889d31461044057600080fd5b8063107bf28c14610393578063137f1edf146103b157806315064c96146103d2575b600080fd5b61039b6108ad565b6040516103a891906151c7565b60405180910390f35b6103ba61070881565b6040516001600160401b0390911681526020016103a8565b6065546103df9060ff1681565b60405190151581526020016103a8565b6068546103ba906001600160401b031681565b61039b6104103660046151fd565b61093b565b606a54610428906001600160a01b031681565b6040516001600160a01b0390911681526020016103a8565b61044961ea6081565b6040519081526020016103a8565b6103df61046536600461524a565b610afe565b61047d61047836600461524a565b610b45565b005b61047d61048d366004615387565b610d71565b6068546103ba90600160401b90046001600160401b031681565b6068546103ba90600160801b90046001600160401b031681565b6072546103ba906001600160401b031681565b61047d6104e73660046154c5565b6116d3565b6072546103ba90600160401b90046001600160401b031681565b61047d61051436600461524a565b611ab3565b61044961052736600461524a565b606d6020526000908152604090205481565b61039b611d76565b61047d61054f366004615567565b611d83565b61044961056236600461524a565b60666020526000908152604090205481565b61047d61058236600461563e565b612112565b61047d61059536600461563e565b6121ec565b61047d6122a5565b61047d6105b036600461524a565b6122b9565b61047d6105c336600461565b565b61249a565b607454610449565b6069546103ba906001600160401b031681565b6106266105f13660046156f9565b6071602052600090815260409020805460018201546002909201546001600160401b0380831693600160401b90930416919084565b604080516001600160401b0395861681529490931660208501529183015260608201526080016103a8565b6072546103ba90600160c01b90046001600160401b031681565b6103ba62093a8081565b61047d610683366004615720565b61258a565b6033546001600160a01b0316610428565b610449612642565b61047d6106af36600461524a565b61273c565b607054610428906001600160a01b031681565b6103ba6206978081565b606c546103ba90600160a81b90046001600160401b031681565b6107266106f936600461524a565b606760205260009081526040902080546001909101546001600160401b0380821691600160401b90041683565b604080519384526001600160401b0392831660208501529116908201526060016103a8565b6065546104289061010090046001600160a01b031681565b6103ba61295d565b61047d61077936600461573d565b6129aa565b60695461042890600160401b90046001600160a01b031681565b606c54610428906001600160a01b031681565b61047d6107b9366004615771565b612a51565b606c546103df90600160a01b900460ff1681565b6072546103ba90600160801b90046001600160401b031681565b61047d6130cf565b61047d61080236600461565b565b613222565b6103ba6103e881565b6068546103ba90600160c01b90046001600160401b031681565b606b54610428906001600160a01b031681565b61047d61084b366004615863565b6133f7565b61047d61085e3660046154c5565b613837565b61047d61087136600461563e565b6139c0565b610449600b81565b61047d61088c36600461563e565b613a79565b607354610428906001600160a01b031681565b61044960745481565b606f80546108ba906158a7565b80601f01602080910402602001604051908101604052809291908181526020018280546108e6906158a7565b80156109335780601f1061090857610100808354040283529160200191610933565b820191906000526020600020905b81548152906001019060200180831161091657829003601f168201915b505050505081565b6001600160401b0380861660008181526067602052604080822054938816825290205460609291158061096d57508115155b6109f25760405162461bcd60e51b815260206004820152604560248201527f50726f6f664f66456666696369656e63793a3a676574496e707574536e61726b60448201527f42797465733a206f6c64416363496e7075744861736820646f6573206e6f7420606482015264195e1a5cdd60da1b608482015260a4015b60405180910390fd5b80610a735760405162461bcd60e51b815260206004820152604560248201527f50726f6f664f66456666696369656e63793a3a676574496e707574536e61726b60448201527f42797465733a206e6577416363496e7075744861736820646f6573206e6f7420606482015264195e1a5cdd60da1b608482015260a4016109e9565b606c54604080516bffffffffffffffffffffffff193360601b166020820152603481019790975260548701939093526001600160c01b031960c0998a1b81166074880152600160a81b909104891b8116607c870152608486019490945260a485015260c4840194909452509290931b90911660e4830152805180830360cc01815260ec909201905290565b6072546001600160401b0382811660009081526071602052604081205490924292610b3492600160801b909204811691166158f7565b6001600160401b0316111592915050565b6073546001600160a01b03163314610bb05760405162461bcd60e51b815260206004820152602860248201527f50726f6f664f66456666696369656e63793a3a6f6e6c7941646d696e3a206f6e604482015267363c9030b236b4b760c11b60648201526084016109e9565b62093a806001600160401b0382161115610c455760405162461bcd60e51b815260206004820152604a60248201527f50726f6f664f66456666696369656e63793a3a73657450656e64696e6753746160448201527f746554696d656f75743a206578636565642068616c74206167677265676174696064820152691bdb881d1a5b595bdd5d60b21b608482015260a4016109e9565b60655460ff16610d00576072546001600160401b03600160c01b909104811690821610610d005760405162461bcd60e51b815260206004820152604960248201527f50726f6f664f66456666696369656e63793a3a7365745472757374656441676760448201527f72656761746f7254696d656f75743a206e65772074696d656f7574206d75737460648201527f206265206c6f7765720000000000000000000000000000000000000000000000608482015260a4016109e9565b6072805477ffffffffffffffffffffffffffffffffffffffffffffffff16600160c01b6001600160401b038481168202929092179283905560405192041681527f1f4fa24c2e4bad19a7f3ec5c5485f70d46c798461c2e684f55bbd0fc661373a1906020015b60405180910390a150565b60655460ff1615610df55760405162461bcd60e51b815260206004820152604260248201527f456d657267656e63794d616e616765723a3a69664e6f74456d657267656e637960448201527f53746174653a206f6e6c79206966206e6f7420656d657267656e637920737461606482015261746560f01b608482015260a4016109e9565b606954600160401b90046001600160a01b03163314610e7c5760405162461bcd60e51b815260206004820152603f60248201527f50726f6f664f66456666696369656e63793a3a6f6e6c7954727573746564536560448201527f7175656e6365723a206f6e6c7920747275737465642073657175656e6365720060648201526084016109e9565b805180610efc5760405162461bcd60e51b815260206004820152604260248201527f50726f6f664f66456666696369656e63793a3a73657175656e6365426174636860448201527f65733a204174206c65617374206d7573742073657175656e63652031206261746064820152610c6d60f31b608482015260a4016109e9565b6103e88110610f995760405162461bcd60e51b815260206004820152604560248201527f50726f6f664f66456666696369656e63793a3a73657175656e6365426174636860448201527f65733a2043616e6e6f742073657175656e63652074686174206d616e7920626160648201527f7463686573000000000000000000000000000000000000000000000000000000608482015260a4016109e9565b6068546001600160401b03600160401b82048116600081815260676020526040812054838516949293600160801b90930490921691905b858110156114e8576000878281518110610fec57610fec615922565b60200260200101519050600081606001516001600160401b031611156111ce578361101681615938565b94505060008160000151805190602001208260200151836060015160405160200161106193929190928352602083019190915260c01b6001600160c01b031916604082015260480190565b60408051601f1981840301815291815281516020928301206001600160401b0388166000908152606690935291205490915081146111125760405162461bcd60e51b815260206004820152604260248201527f50726f6f664f66456666696369656e63793a3a73657175656e6365426174636860448201527f65733a20466f7263656420626174636865732064617461206d757374206d61746064820152610c6d60f31b608482015260a4016109e9565b81606001516001600160401b031682604001516001600160401b031610156111c85760405162461bcd60e51b815260206004820152605d60248201527f50726f6f664f66456666696369656e63793a3a73657175656e6365426174636860448201527f65733a20466f7263656420626174636865732074696d657374616d70206d757360648201527f7420626520626967676572206f7220657175616c207468616e206d696e000000608482015260a4016109e9565b50611381565b602081015115806112705750606c5460208201516040517f257b36320000000000000000000000000000000000000000000000000000000081526001600160a01b039092169163257b36329161122a9160040190815260200190565b6020604051808303816000875af1158015611249573d6000803e3d6000fd5b505050506040513d601f19601f8201168201806040525081019061126d919061595e565b15155b6112e25760405162461bcd60e51b815260206004820152603f60248201527f50726f6f664f66456666696369656e63793a3a73657175656e6365426174636860448201527f65733a20476c6f62616c206578697420726f6f74206d7573742065786973740060648201526084016109e9565b80515161ea60116113815760405162461bcd60e51b815260206004820152604a60248201527f50726f6f664f664566666963696550656e64696e67537461746563793a3a736560448201527f7175656e6365426174636865733a205472616e73616374696f6e73206279746560648201527f73206f766572666c6f7700000000000000000000000000000000000000000000608482015260a4016109e9565b856001600160401b031681604001516001600160401b0316101580156113b457504281604001516001600160401b031611155b61144c5760405162461bcd60e51b815260206004820152604260248201527f50726f6f664f66456666696369656e63793a3a73657175656e6365426174636860448201527f65733a2054696d657374616d70206d75737420626520696e736964652072616e60648201527f6765000000000000000000000000000000000000000000000000000000000000608482015260a4016109e9565b805180516020918201208183015160408085015181519485018890529084019290925260608084019190915260c09190911b6001600160c01b031916608083015233901b6bffffffffffffffffffffffff19166088820152609c0160405160208183030381529060405280519060200120925084806114ca90615938565b955050806040015195505080806114e090615977565b915050610fd0565b506068546001600160401b03600160c01b909104811690831611156115755760405162461bcd60e51b815260206004820152603a60248201527f50726f6f664f66456666696369656e63793a3a73657175656e6365426174636860448201527f65733a20466f7263652062617463686573206f766572666c6f7700000000000060648201526084016109e9565b60685460009061159590600160801b90046001600160401b031684615990565b6115a8906001600160401b0316876159b8565b60408051606081018252848152426001600160401b03908116602080840191825260688054600160401b9081900485168688019081528c861660008181526067909552979093209551865592516001909501805492519585166fffffffffffffffffffffffffffffffff199384161795851684029590951790945583548b841691161793029290921767ffffffffffffffff60801b1916600160801b928716929092029190911790556074549091506116849033903090849061166b91906159cf565b60655461010090046001600160a01b0316929190613b06565b61168c613bb7565b606854604051600160401b9091046001600160401b0316907f303446e6a8cb73c83dff421c0b1d5e5ce0719dab1bff13660fc254e58cc17fce90600090a250505050505050565b60655460ff16156117575760405162461bcd60e51b815260206004820152604260248201527f456d657267656e63794d616e616765723a3a69664e6f74456d657267656e637960448201527f53746174653a206f6e6c79206966206e6f7420656d657267656e637920737461606482015261746560f01b608482015260a4016109e9565b6072546001600160401b03878116600090815260676020526040902060010154429261178e92600160c01b909104811691166158f7565b6001600160401b031611156118315760405162461bcd60e51b815260206004820152604860248201527f50726f6f664f66456666696369656e63793a3a7665726966794261746368657360448201527f3a20747275737465642061676772656761746f722074696d656f7574206e6f7460648201527f2065787069726564000000000000000000000000000000000000000000000000608482015260a4016109e9565b6103e861183e8888615990565b6001600160401b0316106118c45760405162461bcd60e51b815260206004820152604160248201527f50726f6f664f66456666696369656e63793a3a7665726966794261746368657360448201527f3a2063616e6e6f74207665726966792074686174206d616e79206261746368656064820152607360f81b608482015260a4016109e9565b6118d48888888888888888613c5b565b6118dd866141e0565b607254600160801b90046001600160401b03166000036119ae576069805467ffffffffffffffff19166001600160401b038881169182179092556000908152606d60205260409020859055607254161561194b57607280546fffffffffffffffffffffffffffffffff191690555b606c546040516333d6247d60e01b8152600481018790526001600160a01b03909116906333d6247d90602401600060405180830381600087803b15801561199157600080fd5b505af11580156119a5573d6000803e3d6000fd5b50505050611a68565b6119b6613bb7565b607280546001600160401b03169060006119cf83615938565b82546001600160401b039182166101009390930a92830292820219169190911790915560408051608081018252428316815289831660208083019182528284018b8152606084018b8152607254871660009081526071909352949091209251835492518616600160401b026fffffffffffffffffffffffffffffffff199093169516949094171781559151600183015551600290910155505b60405184815233906001600160401b038816907f9c72852172521097ba7e1482e6b44b351323df0155f97f4ea18fcec28e1f5966906020015b60405180910390a35050505050505050565b6001600160401b03811615801590611ae057506072546001600160401b03600160401b9091048116908216115b8015611afb57506072546001600160401b0390811690821611155b611b935760405162461bcd60e51b815260206004820152604860248201527f50726f6f664f66456666696369656e63793a3a636f6e736f6c6964617465506560448201527f6e64696e6753746174653a2070656e64696e6753746174654e756d206d75737460648201527f20696e76616c6964000000000000000000000000000000000000000000000000608482015260a4016109e9565b606a546001600160a01b03163314611c4657611bae81610afe565b611c465760405162461bcd60e51b815260206004820152605960248201527f50726f6f664f66456666696369656e63793a3a636f6e736f6c6964617465506560448201527f6e64696e6753746174653a2070656e64696e67207374617465206973206e6f7460648201527f20726561647920746f20626520636f6e736f6c69646174656400000000000000608482015260a4016109e9565b6001600160401b038181166000818152607160209081526040808320805460698054600160401b9283900490981667ffffffffffffffff19909816881790556002820154878652606d9094529382902092909255607280546fffffffffffffffff000000000000000019169390940292909217909255606c54600183015491516333d6247d60e01b815260048101929092529192916001600160a01b0316906333d6247d90602401600060405180830381600087803b158015611d0857600080fd5b505af1158015611d1c573d6000803e3d6000fd5b50505050826001600160401b0316816001600160401b03167f328d3c6c0fd6f1be0515e422f2d87e59f25922cbc2233568515a0c4bc3f8510e8460020154604051611d6991815260200190565b60405180910390a3505050565b606e80546108ba906158a7565b600054610100900460ff1615808015611da35750600054600160ff909116105b80611dbd5750303b158015611dbd575060005460ff166001145b611e2f5760405162461bcd60e51b815260206004820152602e60248201527f496e697469616c697a61626c653a20636f6e747261637420697320616c72656160448201527f647920696e697469616c697a656400000000000000000000000000000000000060648201526084016109e9565b6000805460ff191660011790558015611e52576000805461ff0019166101001790555b606c80546001600160a01b03199081166001600160a01b038c811691909117909255606580547fffffffffffffffffffffff0000000000000000000000000000000000000000ff166101008c851602179055606b805482168a841617905560708054909116918816919091179055611ecd602086018661563e565b607380546001600160a01b0319166001600160a01b0392909216919091179055611efd606086016040870161563e565b606980546001600160a01b0392909216600160401b027fffffffff0000000000000000000000000000000000000000ffffffffffffffff909216919091179055611f4d60c0860160a0870161563e565b606a80546001600160a01b0319166001600160a01b039290921691909117905560008052606d6020527fda90043ba5b4096ba14704bc227ab0d3167da15b887e62ab2e76e37daa711356849055611faa60e0860160c0870161524a565b607280546001600160401b0392909216600160c01b0277ffffffffffffffffffffffffffffffffffffffffffffffff909216919091179055611ff2604086016020870161524a565b606c80546001600160401b0392909216600160a81b027fffffff0000000000000000ffffffffffffffffffffffffffffffffffffffffff909216919091179055612042608086016060870161524a565b607280546001600160401b0392909216600160801b0267ffffffffffffffff60801b1990921691909117905561207e60a0860160808701615720565b606c8054911515600160a01b0260ff60a01b19909216919091179055606e6120a68482615a34565b50606f6120b38382615a34565b5060186074556120c16143b4565b8015612107576000805461ff0019169055604051600181527f7f26b83ff96e1f2b6a682f133852f6798a09c465da95921460cefb38474024989060200160405180910390a15b505050505050505050565b6073546001600160a01b0316331461217d5760405162461bcd60e51b815260206004820152602860248201527f50726f6f664f66456666696369656e63793a3a6f6e6c7941646d696e3a206f6e604482015267363c9030b236b4b760c11b60648201526084016109e9565b606980547fffffffff0000000000000000000000000000000000000000ffffffffffffffff16600160401b6001600160a01b038416908102919091179091556040519081527ff54144f9611984021529f814a1cb6a41e22c58351510a0d9f7e822618abb9cc090602001610d66565b6073546001600160a01b031633146122575760405162461bcd60e51b815260206004820152602860248201527f50726f6f664f66456666696369656e63793a3a6f6e6c7941646d696e3a206f6e604482015267363c9030b236b4b760c11b60648201526084016109e9565b607380546001600160a01b0319166001600160a01b0383169081179091556040519081527f5a272403b402d892977df56625f4164ccaf70ca3863991c43ecfe76a6905b0a190602001610d66565b6122ad61443a565b6122b76000614494565b565b6033546001600160a01b0316331461248f576072546000906001600160401b03161561230a57506072546001600160401b03908116600090815260716020526040902054600160401b900416612318565b506069546001600160401b03165b80826001600160401b0316116123bc5760405162461bcd60e51b815260206004820152604160248201527f50726f6f664f66456666696369656e63793a3a6163746976617465456d65726760448201527f656e637953746174653a20426174636820616c7265616479207665726966696560648201527f6400000000000000000000000000000000000000000000000000000000000000608482015260a4016109e9565b6001600160401b0380831660009081526067602052604090206001015442916123ea9162093a8091166158f7565b6001600160401b0316111561248d5760405162461bcd60e51b815260206004820152605260248201527f50726f6f664f66456666696369656e63793a3a6163746976617465456d65726760448201527f656e637953746174653a204167677265676174696f6e2068616c742074696d6560648201527f6f7574206973206e6f7420657870697265640000000000000000000000000000608482015260a4016109e9565b505b6124976144e6565b50565b60655460ff161561251e5760405162461bcd60e51b815260206004820152604260248201527f456d657267656e63794d616e616765723a3a69664e6f74456d657267656e637960448201527f53746174653a206f6e6c79206966206e6f7420656d657267656e637920737461606482015261746560f01b608482015260a4016109e9565b61252f898989898989898989614556565b6001600160401b0386166000908152606d60209081526040918290205482519081529081018690527f1f44c21118c4603cfb4e1b621dbcfa2b73efcececee2b99b620b2953d33a7010910160405180910390a16121076144e6565b6073546001600160a01b031633146125f55760405162461bcd60e51b815260206004820152602860248201527f50726f6f664f66456666696369656e63793a3a6f6e6c7941646d696e3a206f6e604482015267363c9030b236b4b760c11b60648201526084016109e9565b606c8054821515600160a01b0260ff60a01b199091161790556040517fbacda50a4a8575be1d91a7ebe29ee45056f3a94f12a2281eb6b43afa33bcefe690610d6690831515815260200190565b6065546040517f70a0823100000000000000000000000000000000000000000000000000000000815230600482015260009182916101009091046001600160a01b0316906370a0823190602401602060405180830381865afa1580156126ac573d6000803e3d6000fd5b505050506040513d601f19601f820116820180604052508101906126d0919061595e565b905060006126dc61295d565b6068546001600160401b03600160401b820481169161270c91600160801b8204811691600160c01b900416615990565b61271691906158f7565b6127209190615990565b6001600160401b031690506127358183615b09565b9250505090565b6073546001600160a01b031633146127a75760405162461bcd60e51b815260206004820152602860248201527f50726f6f664f66456666696369656e63793a3a6f6e6c7941646d696e3a206f6e604482015267363c9030b236b4b760c11b60648201526084016109e9565b60725462093a80600160801b9091046001600160401b031611156128465760405162461bcd60e51b815260206004820152604a60248201527f50726f6f664f66456666696369656e63793a3a73657450656e64696e6753746160448201527f746554696d656f75743a206578636565642068616c74206167677265676174696064820152691bdb881d1a5b595bdd5d60b21b608482015260a4016109e9565b60655460ff16612902576072546001600160401b03600160801b9091048116908216106129025760405162461bcd60e51b8152602060048201526044602482018190527f50726f6f664f66456666696369656e63793a3a73657450656e64696e67537461908201527f746554696d656f75743a206e65772074696d656f7574206d757374206265206c60648201527f6f77657200000000000000000000000000000000000000000000000000000000608482015260a4016109e9565b6072805467ffffffffffffffff60801b1916600160801b6001600160401b038416908102919091179091556040519081527fc4121f4e22c69632ebb7cf1f462be0511dc034f999b52013eddfb24aab765c7590602001610d66565b6072546000906001600160401b03161561299a57506072546001600160401b03908116600090815260716020526040902054600160401b90041690565b506069546001600160401b031690565b6073546001600160a01b03163314612a155760405162461bcd60e51b815260206004820152602860248201527f50726f6f664f66456666696369656e63793a3a6f6e6c7941646d696e3a206f6e604482015267363c9030b236b4b760c11b60648201526084016109e9565b606e612a218282615a34565b507f6b8f723a4c7a5335cafae8a598a0aa0301be1387c037dccc085b62add6448b2081604051610d6691906151c7565b60655460ff1615612ad55760405162461bcd60e51b815260206004820152604260248201527f456d657267656e63794d616e616765723a3a69664e6f74456d657267656e637960448201527f53746174653a206f6e6c79206966206e6f7420656d657267656e637920737461606482015261746560f01b608482015260a4016109e9565b606c54600160a01b900460ff161515600114612b6a5760405162461bcd60e51b815260206004820152604860248201527f50726f6f664f66456666696369656e63793a3a6973466f72636542617463684160448201527f6c6c6f7765643a206f6e6c7920696620666f72636520626174636820697320616064820152677661696c61626c6560c01b608482015260a4016109e9565b805180612bea5760405162461bcd60e51b815260206004820152604260248201527f50726f6f664f66456666696369656e63793a3a73657175656e6365466f72636560448201527f42617463683a204d75737420666f726365206174206c656173742031206261746064820152610c6d60f31b608482015260a4016109e9565b6103e88110612c6b5760405162461bcd60e51b815260206004820152604160248201527f50726f6f664f66456666696369656e63793a3a7665726966794261746368657360448201527f3a2063616e6e6f74207665726966792074686174206d616e79206261746368656064820152607360f81b608482015260a4016109e9565b6068546001600160401b03600160c01b8204811691612c93918491600160801b900416615b1d565b1115612d075760405162461bcd60e51b815260206004820152603a60248201527f50726f6f664f66456666696369656e63793a3a73657175656e6365466f72636560448201527f42617463683a20466f72636520626174636820696e76616c696400000000000060648201526084016109e9565b6068546001600160401b03600160401b820481166000818152606760205260408120549193600160801b9004909216915b84811015612fc8576000868281518110612d5457612d54615922565b602002602001015190508380612d6990615938565b825180516020918201208185015160408087015181519485019390935283015260c01b6001600160c01b03191660608201529095506000915060680160408051601f1981840301815291815281516020928301206001600160401b038816600090815260669093529120549091508114612e715760405162461bcd60e51b815260206004820152604760248201527f50726f6f664f66456666696369656e63793a3a73657175656e6365466f72636560448201527f426174636865733a20466f7263656420626174636865732064617461206d757360648201527f74206d6174636800000000000000000000000000000000000000000000000000608482015260a4016109e9565b612e7c6001886159b8565b8303612f395742620697808360400151612e9691906158f7565b6001600160401b03161115612f395760405162461bcd60e51b815260206004820152604c60248201527f50726f6f664f66456666696369656e63793a3a73657175656e6365466f72636560448201527f42617463683a20466f72636564206261746368206973206e6f7420696e20746960648201527f6d656f757420706572696f640000000000000000000000000000000000000000608482015260a4016109e9565b8151805160209182012081840151604080519384018890528301919091526060808301919091524260c01b6001600160c01b031916608083015233901b6bffffffffffffffffffffffff19166088820152609c016040516020818303038152906040528051906020012093508580612fb090615938565b96505050508080612fc090615977565b915050612d38565b506068805467ffffffffffffffff1916426001600160401b03908116918217808455604080516060810182528681526020808201958652600160401b9384900485168284019081528a861660008181526067909352848320935184559651600193909301805491519387166fffffffffffffffffffffffffffffffff199092169190911792861685029290921790915585547fffffffffffffffff00000000000000000000000000000000ffffffffffffffff1694830267ffffffffffffffff60801b191694909417600160801b88851602179485905551930416917f648a61dd2438f072f5a1960939abd30f37aea80d2e94c9792ad142d3e0a490a49190a25050505050565b60655460ff166131475760405162461bcd60e51b815260206004820152603b60248201527f456d657267656e63794d616e616765723a3a6966456d657267656e637953746160448201527f74653a206f6e6c7920696620656d657267656e6379207374617465000000000060648201526084016109e9565b6073546001600160a01b031633146131b25760405162461bcd60e51b815260206004820152602860248201527f50726f6f664f66456666696369656e63793a3a6f6e6c7941646d696e3a206f6e604482015267363c9030b236b4b760c11b60648201526084016109e9565b607060009054906101000a90046001600160a01b03166001600160a01b031663dbc169766040518163ffffffff1660e01b8152600401600060405180830381600087803b15801561320257600080fd5b505af1158015613216573d6000803e3d6000fd5b505050506122b7614d2c565b606a546001600160a01b031633146132ac5760405162461bcd60e51b815260206004820152604160248201527f50726f6f664f66456666696369656e63793a3a6f6e6c7954727573746564416760448201527f6772656761746f723a206f6e6c7920747275737465642041676772656761746f6064820152603960f91b608482015260a4016109e9565b6132bd898989898989898989614556565b6069805467ffffffffffffffff19166001600160401b038881169182179092556000908152606d60205260409020859055607254161561331157607280546fffffffffffffffffffffffffffffffff191690555b606c546040516333d6247d60e01b8152600481018790526001600160a01b03909116906333d6247d90602401600060405180830381600087803b15801561335757600080fd5b505af115801561336b573d6000803e3d6000fd5b50506072805477ffffffffffffffffffffffffffffffffffffffffffffffff167a093a80000000000000000000000000000000000000000000000000179055505060405184815233906001600160401b038816907fcc1b5520188bf1dd3e63f98164b577c4d75c11a619ddea692112f0d1aec4cf729060200160405180910390a3505050505050505050565b60655460ff161561347b5760405162461bcd60e51b815260206004820152604260248201527f456d657267656e63794d616e616765723a3a69664e6f74456d657267656e637960448201527f53746174653a206f6e6c79206966206e6f7420656d657267656e637920737461606482015261746560f01b608482015260a4016109e9565b606c54600160a01b900460ff1615156001146135105760405162461bcd60e51b815260206004820152604860248201527f50726f6f664f66456666696369656e63793a3a6973466f72636542617463684160448201527f6c6c6f7765643a206f6e6c7920696620666f72636520626174636820697320616064820152677661696c61626c6560c01b608482015260a4016109e9565b600061351b60745490565b9050818111156135935760405162461bcd60e51b815260206004820152602f60248201527f50726f6f664f66456666696369656e63793a3a666f72636542617463683a206e60448201527f6f7420656e6f756768206d61746963000000000000000000000000000000000060648201526084016109e9565b61ea6083511061360b5760405162461bcd60e51b815260206004820152603a60248201527f50726f6f664f66456666696369656e63793a3a666f72636542617463683a205460448201527f72616e73616374696f6e73206279746573206f766572666c6f7700000000000060648201526084016109e9565b6065546136289061010090046001600160a01b0316333084613b06565b606c54604080517f3ed691ef00000000000000000000000000000000000000000000000000000000815290516000926001600160a01b031691633ed691ef9160048083019260209291908290030181865afa15801561368b573d6000803e3d6000fd5b505050506040513d601f19601f820116820180604052508101906136af919061595e565b60688054919250600160c01b9091046001600160401b03169060186136d383615938565b91906101000a8154816001600160401b0302191690836001600160401b03160217905550508380519060200120814260405160200161373293929190928352602083019190915260c01b6001600160c01b031916604082015260480190565b60408051808303601f190181529181528151602092830120606854600160c01b90046001600160401b0316600090815260669093529120553233036137d657606854604080518381523360208201526060918101829052600091810191909152600160c01b9091046001600160401b0316907ff94bb37db835f1ab585ee00041849a09b12cd081d77fa15ca070757619cbc9319060800160405180910390a2613831565b606860189054906101000a90046001600160401b03166001600160401b03167ff94bb37db835f1ab585ee00041849a09b12cd081d77fa15ca070757619cbc93182338760405161382893929190615b35565b60405180910390a25b50505050565b606a546001600160a01b031633146138c15760405162461bcd60e51b815260206004820152604160248201527f50726f6f664f66456666696369656e63793a3a6f6e6c7954727573746564416760448201527f6772656761746f723a206f6e6c7920747275737465642041676772656761746f6064820152603960f91b608482015260a4016109e9565b6138d18888888888888888613c5b565b6069805467ffffffffffffffff19166001600160401b038881169182179092556000908152606d60205260409020859055607254161561392557607280546fffffffffffffffffffffffffffffffff191690555b606c546040516333d6247d60e01b8152600481018790526001600160a01b03909116906333d6247d90602401600060405180830381600087803b15801561396b57600080fd5b505af115801561397f573d6000803e3d6000fd5b50506040518681523392506001600160401b03891691507f0c0ce073a7d7b5850c04ccc4b20ee7d3179d5f57d0ac44399565792c0f72fce790602001611aa1565b6073546001600160a01b03163314613a2b5760405162461bcd60e51b815260206004820152602860248201527f50726f6f664f66456666696369656e63793a3a6f6e6c7941646d696e3a206f6e604482015267363c9030b236b4b760c11b60648201526084016109e9565b606a80546001600160a01b0319166001600160a01b0383169081179091556040519081527f61f8fec29495a3078e9271456f05fb0707fd4e41f7661865f80fc437d06681ca90602001610d66565b613a8161443a565b6001600160a01b038116613afd5760405162461bcd60e51b815260206004820152602660248201527f4f776e61626c653a206e6577206f776e657220697320746865207a65726f206160448201527f646472657373000000000000000000000000000000000000000000000000000060648201526084016109e9565b61249781614494565b6040516001600160a01b03808516602483015283166044820152606481018290526138319085907f23b872dd00000000000000000000000000000000000000000000000000000000906084015b60408051601f198184030181529190526020810180517bffffffffffffffffffffffffffffffffffffffffffffffffffffffff167fffffffff0000000000000000000000000000000000000000000000000000000090931692909217909152614dd9565b6072546001600160401b03600160401b82048116911611156122b757607254600090613bf490600160401b90046001600160401b031660016158f7565b9050613bff81610afe565b1561249757607254600090600290613c219084906001600160401b0316615990565b613c2b9190615b66565b613c3590836158f7565b9050613c4081610afe565b15613c5257613c4e81611ab3565b5050565b613c4e82611ab3565b600080613c6661295d565b90506001600160401b038a1615613df2576072546001600160401b03908116908b161115613d225760405162461bcd60e51b815260206004820152605d60248201527f50726f6f664f66456666696369656e63793a3a7665726966794261746368657360448201527f3a2070656e64696e6753746174654e756d206d757374206265206c657373206f60648201527f7220657175616c207468616e206c61737450656e64696e675374617465000000608482015260a4016109e9565b6001600160401b03808b1660009081526071602052604090206002810154815490945090918b8116600160401b9092041614613dec5760405162461bcd60e51b815260206004820152605160248201527f50726f6f664f66456666696369656e63793a3a7665726966794261746368657360448201527f3a20696e69744e756d4261746368206d757374206d617463682074686520706560648201527f6e64696e67207374617465206261746368000000000000000000000000000000608482015260a4016109e9565b50613f5f565b6001600160401b0389166000908152606d6020526040902054915081613ea65760405162461bcd60e51b815260206004820152604860248201527f50726f6f664f66456666696369656e63793a3a7665726966794261746368657360448201527f3a20696e69744e756d426174636820737461746520726f6f7420646f6573206e60648201527f6f74206578697374000000000000000000000000000000000000000000000000608482015260a4016109e9565b806001600160401b0316896001600160401b03161115613f5f5760405162461bcd60e51b815260206004820152606260248201527f50726f6f664f66456666696369656e63793a3a7665726966794261746368657360448201527f3a20696e69744e756d4261746368206d757374206265206c657373206f72206560648201527f7175616c207468616e2063757272656e744c61737456657269666965644261746084820152610c6d60f31b60a482015260c4016109e9565b806001600160401b0316886001600160401b03161161400c5760405162461bcd60e51b815260206004820152605c60248201527f50726f6f664f66456666696369656e63793a3a7665726966794261746368657360448201527f3a2066696e616c4e65774261746368206d75737420626520626967676572207460648201527f68616e2063757272656e744c6173745665726966696564426174636800000000608482015260a4016109e9565b600061401b8a8a8a868b61093b565b905060007f30644e72e131a029b85045b68181585d2833e84879b9709143e1f593f00000016002836040516140509190615b8c565b602060405180830381855afa15801561406d573d6000803e3d6000fd5b5050506040513d601f19601f82011682018060405250810190614090919061595e565b61409a9190615ba8565b606b546040805160208101825283815290516343753b4d60e01b81529293506001600160a01b03909116916343753b4d916140de918b918b918b9190600401615bbc565b602060405180830381865afa1580156140fb573d6000803e3d6000fd5b505050506040513d601f19601f8201168201806040525081019061411f9190615c36565b6141915760405162461bcd60e51b815260206004820152602f60248201527f50726f6f664f66456666696369656e63793a3a7665726966794261746368657360448201527f3a20494e56414c49445f50524f4f46000000000000000000000000000000000060648201526084016109e9565b6141d23361419f858d615990565b6001600160401b03166141b0612642565b6141ba91906159cf565b60655461010090046001600160a01b03169190614ec3565b505050505050505050505050565b60006141ea61295d565b9050816000806141fa8484615990565b6001600160401b031690505b836001600160401b0316836001600160401b0316146142a4576001600160401b038085166000908152606760205260409020600181015490916107089161424e9116426159b8565b111561428957600181015461427390600160401b90046001600160401b031686615990565b614286906001600160401b031684615b1d565b92505b60010154600160401b90046001600160401b03169250614206565b60006142b083836159b8565b9050828110156143275760006142c682856159b8565b6074549091505b602082111561430157602a6142e3602b836159cf565b6142ed9190615b09565b90506142fa6020836159b8565b91506142cd565b600a8218614312600b8418836159cf565b61431c9190615b09565b607455506143ac9050565b600061433384836159b8565b6074549091505b602082111561436e57602a614350602b836159cf565b61435a9190615b09565b90506143676020836159b8565b915061433a565b600a821861437f600b8418836159cf565b6143899190615b09565b90508060745460745461439c91906159cf565b6143a69190615b09565b60745550505b505050505050565b600054610100900460ff166144315760405162461bcd60e51b815260206004820152602b60248201527f496e697469616c697a61626c653a20636f6e7472616374206973206e6f74206960448201527f6e697469616c697a696e6700000000000000000000000000000000000000000060648201526084016109e9565b6122b733614494565b6033546001600160a01b031633146122b75760405162461bcd60e51b815260206004820181905260248201527f4f776e61626c653a2063616c6c6572206973206e6f7420746865206f776e657260448201526064016109e9565b603380546001600160a01b038381166001600160a01b0319831681179093556040519116919082907f8be0079c531659141344cd1fd0a4f28419497f9722a3daafe3b4186f6b6457e090600090a35050565b607060009054906101000a90046001600160a01b03166001600160a01b0316632072f6c56040518163ffffffff1660e01b8152600401600060405180830381600087803b15801561453657600080fd5b505af115801561454a573d6000803e3d6000fd5b505050506122b7614f0c565b60006001600160401b038a161561472c576072546001600160401b03908116908b1611156146385760405162461bcd60e51b815260206004820152607160248201527f50726f6f664f66456666696369656e63793a3a70726f76654e6f6e446574657260448201527f6d696e697374696350656e64696e6753746174653a2070656e64696e6753746160648201527f74654e756d206d757374206265206c657373206f7220657175616c207468616e60848201527f206c61737450656e64696e67537461746500000000000000000000000000000060a482015260c4016109e9565b506001600160401b03808a1660009081526071602052604090206002810154815490928a8116600160401b90920416146147265760405162461bcd60e51b815260206004820152606560248201527f50726f6f664f66456666696369656e63793a3a70726f76654e6f6e446574657260448201527f6d696e697374696350656e64696e6753746174653a20696e69744e756d42617460648201527f6368206d757374206d61746368207468652070656e64696e672073746174652060848201527f626174636800000000000000000000000000000000000000000000000000000060a482015260c4016109e9565b506148b0565b506001600160401b0387166000908152606d6020526040902054806147df5760405162461bcd60e51b815260206004820152605c60248201527f50726f6f664f66456666696369656e63793a3a70726f76654e6f6e446574657260448201527f6d696e697374696350656e64696e6753746174653a20696e69744e756d42617460648201527f636820737461746520726f6f7420646f6573206e6f7420657869737400000000608482015260a4016109e9565b6069546001600160401b0390811690891611156148b05760405162461bcd60e51b815260206004820152607660248201527f50726f6f664f66456666696369656e63793a3a70726f76654e6f6e446574657260448201527f6d696e697374696350656e64696e6753746174653a20696e69744e756d42617460648201527f6368206d757374206265206c657373206f7220657175616c207468616e20637560848201527f7272656e744c617374566572696669656442617463680000000000000000000060a482015260c4016109e9565b6072546001600160401b03908116908a16118015906148e05750896001600160401b0316896001600160401b0316115b801561490157506072546001600160401b03600160401b9091048116908a16115b6149bf5760405162461bcd60e51b815260206004820152607060248201527f50726f6f664f66456666696369656e63793a3a70726f76654e6f6e446574657260448201527f6d696e697374696350656e64696e6753746174653a2066696e616c4e6577426160648201527f746368206d75737420626520626967676572207468616e2063757272656e744c60848201527f617374566572696669656442617463680000000000000000000000000000000060a482015260c4016109e9565b6001600160401b03898116600090815260716020526040902054600160401b9004811690881614614aa45760405162461bcd60e51b815260206004820152607060248201527f50726f6f664f66456666696369656e63793a3a70726f76654e6f6e446574657260448201527f6d696e697374696350656e64696e6753746174653a2066696e616c4e6577426160648201527f746368206d75737420626520626967676572207468616e2063757272656e744c60848201527f617374566572696669656442617463680000000000000000000000000000000060a482015260c4016109e9565b6000614ab3898989858a61093b565b905060007f30644e72e131a029b85045b68181585d2833e84879b9709143e1f593f0000001600283604051614ae89190615b8c565b602060405180830381855afa158015614b05573d6000803e3d6000fd5b5050506040513d601f19601f82011682018060405250810190614b28919061595e565b614b329190615ba8565b606b546040805160208101825283815290516343753b4d60e01b81529293506001600160a01b03909116916343753b4d91614b76918a918a918a9190600401615bbc565b602060405180830381865afa158015614b93573d6000803e3d6000fd5b505050506040513d601f19601f82011682018060405250810190614bb79190615c36565b614c4f5760405162461bcd60e51b815260206004820152604360248201527f50726f6f664f66456666696369656e63793a3a70726f76654e6f6e446574657260448201527f6d696e697374696350656e64696e6753746174653a20494e56414c49445f505260648201527f4f4f460000000000000000000000000000000000000000000000000000000000608482015260a4016109e9565b6001600160401b038b166000908152607160205260409020600201548790036141d25760405162461bcd60e51b815260206004820152606760248201527f50726f6f664f66456666696369656e63793a3a70726f76654e6f6e446574657260448201527f6d696e697374696350656e64696e6753746174653a2073746f72656420726f6f60648201527f74206d75737420626520646966666572656e74207468616e206e65772073746160848201527f746520726f6f740000000000000000000000000000000000000000000000000060a482015260c4016109e9565b60655460ff16614da45760405162461bcd60e51b815260206004820152603b60248201527f456d657267656e63794d616e616765723a3a6966456d657267656e637953746160448201527f74653a206f6e6c7920696620656d657267656e6379207374617465000000000060648201526084016109e9565b6065805460ff191690556040517f1e5e34eea33501aecf2ebec9fe0e884a40804275ea7fe10b2ba084c8374308b390600090a1565b6000614e2e826040518060400160405280602081526020017f5361666545524332303a206c6f772d6c6576656c2063616c6c206661696c6564815250856001600160a01b0316614fc89092919063ffffffff16565b805190915015614ebe5780806020019051810190614e4c9190615c36565b614ebe5760405162461bcd60e51b815260206004820152602a60248201527f5361666545524332303a204552433230206f7065726174696f6e20646964206e60448201527f6f7420737563636565640000000000000000000000000000000000000000000060648201526084016109e9565b505050565b6040516001600160a01b038316602482015260448101829052614ebe9084907fa9059cbb0000000000000000000000000000000000000000000000000000000090606401613b53565b60655460ff1615614f905760405162461bcd60e51b815260206004820152604260248201527f456d657267656e63794d616e616765723a3a69664e6f74456d657267656e637960448201527f53746174653a206f6e6c79206966206e6f7420656d657267656e637920737461606482015261746560f01b608482015260a4016109e9565b6065805460ff191660011790556040517f2261efe5aef6fedc1fd1550b25facc9181745623049c7901287030b9ad1a549790600090a1565b6060614fd78484600085614fdf565b949350505050565b6060824710156150575760405162461bcd60e51b815260206004820152602660248201527f416464726573733a20696e73756666696369656e742062616c616e636520666f60448201527f722063616c6c000000000000000000000000000000000000000000000000000060648201526084016109e9565b600080866001600160a01b031685876040516150739190615b8c565b60006040518083038185875af1925050503d80600081146150b0576040519150601f19603f3d011682016040523d82523d6000602084013e6150b5565b606091505b50915091506150c6878383876150d1565b979650505050505050565b60608315615140578251600003615139576001600160a01b0385163b6151395760405162461bcd60e51b815260206004820152601d60248201527f416464726573733a2063616c6c20746f206e6f6e2d636f6e747261637400000060448201526064016109e9565b5081614fd7565b614fd783838151156151555781518083602001fd5b8060405162461bcd60e51b81526004016109e991906151c7565b60005b8381101561518a578181015183820152602001615172565b838111156138315750506000910152565b600081518084526151b381602086016020860161516f565b601f01601f19169290920160200192915050565b6020815260006151da602083018461519b565b9392505050565b80356001600160401b03811681146151f857600080fd5b919050565b600080600080600060a0868803121561521557600080fd5b61521e866151e1565b945061522c602087016151e1565b94979496505050506040830135926060810135926080909101359150565b60006020828403121561525c57600080fd5b6151da826151e1565b634e487b7160e01b600052604160045260246000fd5b604051608081016001600160401b038111828210171561529d5761529d615265565b60405290565b604051606081016001600160401b038111828210171561529d5761529d615265565b604051601f8201601f191681016001600160401b03811182821017156152ed576152ed615265565b604052919050565b60006001600160401b0382111561530e5761530e615265565b5060051b60200190565b600082601f83011261532957600080fd5b81356001600160401b0381111561534257615342615265565b615355601f8201601f19166020016152c5565b81815284602083860101111561536a57600080fd5b816020850160208301376000918101602001919091529392505050565b6000602080838503121561539a57600080fd5b82356001600160401b03808211156153b157600080fd5b818501915085601f8301126153c557600080fd5b81356153d86153d3826152f5565b6152c5565b81815260059190911b830184019084810190888311156153f757600080fd5b8585015b83811015615490578035858111156154135760008081fd5b86016080818c03601f190181131561542b5760008081fd5b61543361527b565b89830135888111156154455760008081fd5b6154538e8c83870101615318565b8252506040808401358b830152606061546d8186016151e1565b8284015261547c8486016151e1565b9083015250855250509186019186016153fb565b5098975050505050505050565b80604081018310156154ae57600080fd5b92915050565b80608081018310156154ae57600080fd5b6000806000806000806000806101a0898b0312156154e257600080fd5b6154eb896151e1565b97506154f960208a016151e1565b965061550760408a016151e1565b955060608901359450608089013593506155248a60a08b0161549d565b92506155338a60e08b016154b4565b91506155438a6101608b0161549d565b90509295985092959890939650565b6001600160a01b038116811461249757600080fd5b600080600080600080600080888a036101c081121561558557600080fd5b893561559081615552565b985060208a01356155a081615552565b975060408a01356155b081615552565b965060608a01356155c081615552565b955060e0607f19820112156155d457600080fd5b5060808901935061016089013592506101808901356001600160401b03808211156155fe57600080fd5b61560a8c838d01615318565b93506101a08b013591508082111561562157600080fd5b5061562e8b828c01615318565b9150509295985092959890939650565b60006020828403121561565057600080fd5b81356151da81615552565b60008060008060008060008060006101c08a8c03121561567a57600080fd5b6156838a6151e1565b985061569160208b016151e1565b975061569f60408b016151e1565b96506156ad60608b016151e1565b955060808a0135945060a08a013593506156ca8b60c08c0161549d565b92506156da8b6101008c016154b4565b91506156ea8b6101808c0161549d565b90509295985092959850929598565b60006020828403121561570b57600080fd5b5035919050565b801515811461249757600080fd5b60006020828403121561573257600080fd5b81356151da81615712565b60006020828403121561574f57600080fd5b81356001600160401b0381111561576557600080fd5b614fd784828501615318565b6000602080838503121561578457600080fd5b82356001600160401b038082111561579b57600080fd5b818501915085601f8301126157af57600080fd5b81356157bd6153d3826152f5565b81815260059190911b830184019084810190888311156157dc57600080fd5b8585015b83811015615490578035858111156157f85760008081fd5b86016060818c03601f19018113156158105760008081fd5b6158186152a3565b898301358881111561582a5760008081fd5b6158388e8c83870101615318565b8252506040808401358b8301526158508385016151e1565b90820152855250509186019186016157e0565b6000806040838503121561587657600080fd5b82356001600160401b0381111561588c57600080fd5b61589885828601615318565b95602094909401359450505050565b600181811c908216806158bb57607f821691505b6020821081036158db57634e487b7160e01b600052602260045260246000fd5b50919050565b634e487b7160e01b600052601160045260246000fd5b60006001600160401b03808316818516808303821115615919576159196158e1565b01949350505050565b634e487b7160e01b600052603260045260246000fd5b60006001600160401b03808316818103615954576159546158e1565b6001019392505050565b60006020828403121561597057600080fd5b5051919050565b600060018201615989576159896158e1565b5060010190565b60006001600160401b03838116908316818110156159b0576159b06158e1565b039392505050565b6000828210156159ca576159ca6158e1565b500390565b60008160001904831182151516156159e9576159e96158e1565b500290565b601f821115614ebe57600081815260208120601f850160051c81016020861015615a155750805b601f850160051c820191505b818110156143ac57828155600101615a21565b81516001600160401b03811115615a4d57615a4d615265565b615a6181615a5b84546158a7565b846159ee565b602080601f831160018114615a965760008415615a7e5750858301515b600019600386901b1c1916600185901b1785556143ac565b600085815260208120601f198616915b82811015615ac557888601518255948401946001909101908401615aa6565b5085821015615ae35787850151600019600388901b60f8161c191681555b5050505050600190811b01905550565b634e487b7160e01b600052601260045260246000fd5b600082615b1857615b18615af3565b500490565b60008219821115615b3057615b306158e1565b500190565b8381526001600160a01b0383166020820152606060408201526000615b5d606083018461519b565b95945050505050565b60006001600160401b0380841680615b8057615b80615af3565b92169190910492915050565b60008251615b9e81846020870161516f565b9190910192915050565b600082615bb757615bb7615af3565b500690565b61012081016040808784376000838201818152879190815b6002811015615bf457848483379084018281529284019290600101615bd4565b5050828760c0870137610100850181815286935091505b6001811015615c2a578251825260209283019290910190600101615c0b565b50505095945050505050565b600060208284031215615c4857600080fd5b81516151da8161571256fea26469706673582212202c1d4d7a2fbf2e0628efd231eb32611cc105c93e21187e65bd787e20ee3d446664736f6c634300080f0033",
  "linkReferences": {},
  "deployedLinkReferences": {}
}