{
  "_format": "hh-sol-artifact-1",
  "contractName": "ProofOfEfficiencyMock",
  "sourceName": "contracts/mocks/ProofOfEfficiencyMock.sol",
  "abi": [
    {
      "inputs": [
        {
          "internalType": "contract IGlobalExitRootManager",
          "name": "_globalExitRootManager",
          "type": "address"
        },
        {
          "internalType": "contract IERC20",
          "name": "_matic",
          "type": "address"
        },
        {
          "internalType": "contract IVerifierRollup",
          "name": "_rollupVerifier",
          "type": "address"
        },
        {
          "internalType": "bytes32",
          "name": "genesisRoot",
          "type": "bytes32"
        },
        {
          "internalType": "address",
          "name": "_superSequencerAddress",
          "type": "address"
        },
        {
          "internalType": "bool",
          "name": "_forceBatchAllowed",
          "type": "bool"
        }
      ],
      "stateMutability": "nonpayable",
      "type": "constructor"
    },
    {
      "anonymous": false,
      "inputs": [
        {
          "indexed": true,
          "internalType": "uint64",
          "name": "forceBatchNum",
          "type": "uint64"
        },
        {
          "indexed": false,
          "internalType": "bytes32",
          "name": "lastGlobalExitRoot",
          "type": "bytes32"
        },
        {
          "indexed": false,
          "internalType": "address",
          "name": "sequencer",
          "type": "address"
        },
        {
          "indexed": false,
          "internalType": "bytes",
          "name": "transactions",
          "type": "bytes"
        }
      ],
      "name": "ForceBatch",
      "type": "event"
    },
    {
      "anonymous": false,
      "inputs": [
        {
          "indexed": true,
          "internalType": "uint64",
          "name": "numBatch",
          "type": "uint64"
        }
      ],
      "name": "SequenceBatches",
      "type": "event"
    },
    {
      "anonymous": false,
      "inputs": [
        {
          "indexed": true,
          "internalType": "uint64",
          "name": "numBatch",
          "type": "uint64"
        }
      ],
      "name": "SequenceForceBatches",
      "type": "event"
    },
    {
      "anonymous": false,
      "inputs": [
        {
          "indexed": true,
          "internalType": "uint64",
          "name": "numBatch",
          "type": "uint64"
        },
        {
          "indexed": true,
          "internalType": "address",
          "name": "aggregator",
          "type": "address"
        }
      ],
      "name": "VerifyBatch",
      "type": "event"
    },
    {
      "inputs": [],
      "name": "FORCE_BATCH_TIMEOUT",
      "outputs": [
        {
          "internalType": "uint64",
          "name": "",
          "type": "uint64"
        }
      ],
      "stateMutability": "view",
      "type": "function"
    },
    {
      "inputs": [],
      "name": "MAX_BATCH_LENGTH",
      "outputs": [
        {
          "internalType": "uint256",
          "name": "",
          "type": "uint256"
        }
      ],
      "stateMutability": "view",
      "type": "function"
    },
    {
      "inputs": [],
      "name": "TRUSTED_SEQUENCER_FEE",
      "outputs": [
        {
          "internalType": "uint256",
          "name": "",
          "type": "uint256"
        }
      ],
      "stateMutability": "view",
      "type": "function"
    },
    {
      "inputs": [
        {
          "internalType": "bytes32",
          "name": "currentStateRoot",
          "type": "bytes32"
        },
        {
          "internalType": "bytes32",
          "name": "currentLocalExitRoot",
          "type": "bytes32"
        },
        {
          "internalType": "bytes32",
          "name": "newStateRoot",
          "type": "bytes32"
        },
        {
          "internalType": "bytes32",
          "name": "newLocalExitRoot",
          "type": "bytes32"
        },
        {
          "internalType": "bytes32",
          "name": "batchHashData",
          "type": "bytes32"
        },
        {
          "internalType": "uint64",
          "name": "numBatch",
          "type": "uint64"
        },
        {
          "internalType": "uint64",
          "name": "timestamp",
          "type": "uint64"
        },
        {
          "internalType": "address",
          "name": "msgSender",
          "type": "address"
        }
      ],
      "name": "calculateCircuitInput",
      "outputs": [
        {
          "internalType": "uint256",
          "name": "",
          "type": "uint256"
        }
      ],
      "stateMutability": "pure",
      "type": "function"
    },
    {
      "inputs": [],
      "name": "calculateForceProverFee",
      "outputs": [
        {
          "internalType": "uint256",
          "name": "",
          "type": "uint256"
        }
      ],
      "stateMutability": "view",
      "type": "function"
    },
    {
      "inputs": [],
      "name": "currentLocalExitRoot",
      "outputs": [
        {
          "internalType": "bytes32",
          "name": "",
          "type": "bytes32"
        }
      ],
      "stateMutability": "view",
      "type": "function"
    },
    {
      "inputs": [],
      "name": "currentStateRoot",
      "outputs": [
        {
          "internalType": "bytes32",
          "name": "",
          "type": "bytes32"
        }
      ],
      "stateMutability": "view",
      "type": "function"
    },
    {
      "inputs": [
        {
          "internalType": "bytes",
          "name": "transactions",
          "type": "bytes"
        },
        {
          "internalType": "uint256",
          "name": "maticAmount",
          "type": "uint256"
        }
      ],
      "name": "forceBatch",
      "outputs": [],
      "stateMutability": "nonpayable",
      "type": "function"
    },
    {
      "inputs": [],
      "name": "forceBatchAllowed",
      "outputs": [
        {
          "internalType": "bool",
          "name": "",
          "type": "bool"
        }
      ],
      "stateMutability": "view",
      "type": "function"
    },
    {
      "inputs": [
        {
          "internalType": "uint64",
          "name": "",
          "type": "uint64"
        }
      ],
      "name": "forcedBatches",
      "outputs": [
        {
          "internalType": "bytes32",
          "name": "batchHashData",
          "type": "bytes32"
        },
        {
          "internalType": "uint256",
          "name": "maticFee",
          "type": "uint256"
        },
        {
          "internalType": "uint64",
          "name": "minTimestamp",
          "type": "uint64"
        }
      ],
      "stateMutability": "view",
      "type": "function"
    },
    {
      "inputs": [
        {
          "internalType": "bytes32",
          "name": "newLocalExitRoot",
          "type": "bytes32"
        },
        {
          "internalType": "bytes32",
          "name": "newStateRoot",
          "type": "bytes32"
        },
        {
          "internalType": "uint64",
          "name": "numBatch",
          "type": "uint64"
        }
      ],
      "name": "getNextCircuitInput",
      "outputs": [
        {
          "internalType": "uint256",
          "name": "",
          "type": "uint256"
        }
      ],
      "stateMutability": "view",
      "type": "function"
    },
    {
      "inputs": [],
      "name": "globalExitRootManager",
      "outputs": [
        {
          "internalType": "contract IGlobalExitRootManager",
          "name": "",
          "type": "address"
        }
      ],
      "stateMutability": "view",
      "type": "function"
    },
    {
      "inputs": [],
      "name": "lastBatchSequenced",
      "outputs": [
        {
          "internalType": "uint64",
          "name": "",
          "type": "uint64"
        }
      ],
      "stateMutability": "view",
      "type": "function"
    },
    {
      "inputs": [],
      "name": "lastForceBatch",
      "outputs": [
        {
          "internalType": "uint64",
          "name": "",
          "type": "uint64"
        }
      ],
      "stateMutability": "view",
      "type": "function"
    },
    {
      "inputs": [],
      "name": "lastForceBatchSequenced",
      "outputs": [
        {
          "internalType": "uint64",
          "name": "",
          "type": "uint64"
        }
      ],
      "stateMutability": "view",
      "type": "function"
    },
    {
      "inputs": [],
      "name": "lastTimestamp",
      "outputs": [
        {
          "internalType": "uint64",
          "name": "",
          "type": "uint64"
        }
      ],
      "stateMutability": "view",
      "type": "function"
    },
    {
      "inputs": [],
      "name": "lastVerifiedBatch",
      "outputs": [
        {
          "internalType": "uint64",
          "name": "",
          "type": "uint64"
        }
      ],
      "stateMutability": "view",
      "type": "function"
    },
    {
      "inputs": [],
      "name": "matic",
      "outputs": [
        {
          "internalType": "contract IERC20",
          "name": "",
          "type": "address"
        }
      ],
      "stateMutability": "view",
      "type": "function"
    },
    {
      "inputs": [
        {
          "internalType": "bytes32",
          "name": "newLocalExitRoot",
          "type": "bytes32"
        },
        {
          "internalType": "bytes32",
          "name": "newStateRoot",
          "type": "bytes32"
        },
        {
          "internalType": "uint32",
          "name": "numBatch",
          "type": "uint32"
        }
      ],
      "name": "returnInputHashParameters",
      "outputs": [
        {
          "internalType": "bytes",
          "name": "",
          "type": "bytes"
        }
      ],
      "stateMutability": "view",
      "type": "function"
    },
    {
      "inputs": [],
      "name": "rollupVerifier",
      "outputs": [
        {
          "internalType": "contract IVerifierRollup",
          "name": "",
          "type": "address"
        }
      ],
      "stateMutability": "view",
      "type": "function"
    },
    {
      "inputs": [
        {
          "components": [
            {
              "internalType": "bytes",
              "name": "transactions",
              "type": "bytes"
            },
            {
              "internalType": "bytes32",
              "name": "globalExitRoot",
              "type": "bytes32"
            },
            {
              "internalType": "uint64",
              "name": "timestamp",
              "type": "uint64"
            },
            {
              "internalType": "uint64[]",
              "name": "forceBatchesTimestamp",
              "type": "uint64[]"
            }
          ],
          "internalType": "struct ProofOfEfficiency.BatchData[]",
          "name": "batches",
          "type": "tuple[]"
        }
      ],
      "name": "sequenceBatches",
      "outputs": [],
      "stateMutability": "nonpayable",
      "type": "function"
    },
    {
      "inputs": [
        {
          "internalType": "uint64",
          "name": "numForcedBatches",
          "type": "uint64"
        }
      ],
      "name": "sequenceForceBatches",
      "outputs": [],
      "stateMutability": "nonpayable",
      "type": "function"
    },
    {
      "inputs": [
        {
          "internalType": "uint64",
          "name": "",
          "type": "uint64"
        }
      ],
      "name": "sequencedBatches",
      "outputs": [
        {
          "internalType": "bytes32",
          "name": "batchHashData",
          "type": "bytes32"
        },
        {
          "internalType": "uint64",
          "name": "timestamp",
          "type": "uint64"
        }
      ],
      "stateMutability": "view",
      "type": "function"
    },
    {
      "inputs": [
        {
          "internalType": "bytes32",
          "name": "newLocalExitRoot",
          "type": "bytes32"
        }
      ],
      "name": "setExitRoot",
      "outputs": [],
      "stateMutability": "nonpayable",
      "type": "function"
    },
    {
      "inputs": [
        {
          "internalType": "bool",
          "name": "_forceBatchAllowed",
          "type": "bool"
        }
      ],
      "name": "setForceBatchAllowed",
      "outputs": [],
      "stateMutability": "nonpayable",
      "type": "function"
    },
    {
      "inputs": [
        {
          "internalType": "bytes32",
          "name": "newStateRoot",
          "type": "bytes32"
        }
      ],
      "name": "setStateRoot",
      "outputs": [],
      "stateMutability": "nonpayable",
      "type": "function"
    },
    {
      "inputs": [
        {
          "internalType": "address",
          "name": "newTrustedSequencer",
          "type": "address"
        }
      ],
      "name": "setTrustedSequencer",
      "outputs": [],
      "stateMutability": "nonpayable",
      "type": "function"
    },
    {
      "inputs": [],
      "name": "trustedSequencer",
      "outputs": [
        {
          "internalType": "address",
          "name": "",
          "type": "address"
        }
      ],
      "stateMutability": "view",
      "type": "function"
    },
    {
      "inputs": [
        {
          "internalType": "bytes32",
          "name": "newLocalExitRoot",
          "type": "bytes32"
        },
        {
          "internalType": "bytes32",
          "name": "newStateRoot",
          "type": "bytes32"
        },
        {
          "internalType": "uint64",
          "name": "numBatch",
          "type": "uint64"
        },
        {
          "internalType": "uint256[2]",
          "name": "proofA",
          "type": "uint256[2]"
        },
        {
          "internalType": "uint256[2][2]",
          "name": "proofB",
          "type": "uint256[2][2]"
        },
        {
          "internalType": "uint256[2]",
          "name": "proofC",
          "type": "uint256[2]"
        }
      ],
      "name": "verifyBatch",
      "outputs": [],
      "stateMutability": "nonpayable",
      "type": "function"
    }
  ],
  "bytecode": "0x60a06040523480156200001157600080fd5b5060405162003379380380620033798339810160408190526200003491620000c6565b600480546001600160a01b039788166001600160a01b03199182161790915594861660805260078054948716949095169390931790935560055560038054911515600160e01b0260ff60e01b1994909316680100000000000000000293909316600160401b600160e81b03199091161717905562000152565b6001600160a01b0381168114620000c357600080fd5b50565b60008060008060008060c08789031215620000e057600080fd5b8651620000ed81620000ad565b60208801519096506200010081620000ad565b60408801519095506200011381620000ad565b6060880151608089015191955093506200012d81620000ad565b60a088015190925080151581146200014457600080fd5b809150509295509295509295565b6080516131f6620001836000396000818161041401528181610fcc015281816119870152611d5001526131f66000f3fe608060405234801561001057600080fd5b50600436106101cf5760003560e01c8063aa0f441811610104578063d02103ca116100a2578063e8bf92ed11610071578063e8bf92ed14610527578063eaeb077b14610547578063f75527611461055a578063f7d2cd7f1461056957600080fd5b8063d02103ca14610487578063d307b743146104a7578063d8f54db0146104ba578063e7a7ed02146104f757600080fd5b8063b02286c0116100de578063b02286c014610399578063b4d63f58146103c0578063b6b0b0971461040f578063cfa8ed471461045b57600080fd5b8063aa0f441814610373578063ab9fc5ef14610386578063ac2eba981461039057600080fd5b80636ff512cc116101715780638c4a0af71161014b5780638c4a0af71461033157806395297e2414610344578063959c2f4714610357578063a86a95141461036057600080fd5b80636ff512cc1461030257806379847057146103155780637fcb36531461031d57600080fd5b8063378fd178116101ad578063378fd1781461023b578063423fa8561461025c578063456052671461027c5780636b8616ce146102a457600080fd5b8063116c40c3146101d457806319d8ac61146101e957806325d0a8f51461021b575b600080fd5b6101e76101e23660046128e1565b600655565b005b6002546101fd9067ffffffffffffffff1681565b60405167ffffffffffffffff90911681526020015b60405180910390f35b61022e6102293660046128fa565b61057c565b60405161021291906129b2565b61024e610249366004612a06565b610757565b604051908152602001610212565b6002546101fd9068010000000000000000900467ffffffffffffffff1681565b6002546101fd90700100000000000000000000000000000000900467ffffffffffffffff1681565b6102dd6102b2366004612a7a565b60006020819052908152604090208054600182015460029092015490919067ffffffffffffffff1683565b60408051938452602084019290925267ffffffffffffffff1690820152606001610212565b6101e7610310366004612a95565b610839565b61024e61093f565b6003546101fd9067ffffffffffffffff1681565b6101e761033f366004612ac1565b6109b9565b6101e7610352366004612af5565b610abe565b61024e60065481565b61024e61036e366004612b66565b611038565b6101e7610381366004612a7a565b611221565b6101fd62093a8081565b61024e60055481565b61024e7fffffffffffffffffffffffffffffffffffffffffffffffffffffffffffffffff81565b6103f16103ce366004612a7a565b6001602081905260009182526040909120805491015467ffffffffffffffff1682565b6040805192835267ffffffffffffffff909116602083015201610212565b6104367f000000000000000000000000000000000000000000000000000000000000000081565b60405173ffffffffffffffffffffffffffffffffffffffff9091168152602001610212565b6003546104369068010000000000000000900473ffffffffffffffffffffffffffffffffffffffff1681565b6004546104369073ffffffffffffffffffffffffffffffffffffffff1681565b6101e76104b53660046128e1565b600555565b6003546104e7907c0100000000000000000000000000000000000000000000000000000000900460ff1681565b6040519015158152602001610212565b6002546101fd907801000000000000000000000000000000000000000000000000900467ffffffffffffffff1681565b6007546104369073ffffffffffffffffffffffffffffffffffffffff1681565b6101e7610555366004612cd0565b611744565b61024e67016345785d8a000081565b6101e7610577366004612d39565b611c6d565b6003546060906105979067ffffffffffffffff166001612f0d565b67ffffffffffffffff168263ffffffff161461063a576040517f08c379a000000000000000000000000000000000000000000000000000000000815260206004820152603460248201527f50726f6f664f66456666696369656e63793a3a76657269667942617463683a2060448201527f42415443485f444f45535f4e4f545f4d4154434800000000000000000000000060648201526084015b60405180910390fd5b63ffffffff82166000908152600160208190526040918290208054910154909167ffffffffffffffff9091169082901c61068b5767ffffffffffffffff909116600090815260208190526040902054905b60055460065460408051602081019390935282015260608082018790526080820188905260a0820184905260e086811b7fffffffff000000000000000000000000000000000000000000000000000000001660c08085019190915284901b7fffffffffffffffff0000000000000000000000000000000000000000000000001660c48401523390911b7fffffffffffffffffffffffffffffffffffffffff0000000000000000000000001660cc83015201604051602081830303815290604052925050505b9392505050565b60408051602081018a905290810188905260608082018890526080820187905260a082018690527fffffffffffffffff00000000000000000000000000000000000000000000000060c086811b82168185015285901b1660c88301527fffffffffffffffffffffffffffffffffffffffff0000000000000000000000009083901b1660d082015260009081907f30644e72e131a029b85045b68181585d2833e84879b9709143e1f593f00000019060e4016040516020818303038152906040528051906020012060001c61082b9190612f39565b9a9950505050505050505050565b60035468010000000000000000900473ffffffffffffffffffffffffffffffffffffffff1633146108ec576040517f08c379a000000000000000000000000000000000000000000000000000000000815260206004820152603f60248201527f50726f6f664f66456666696369656e63793a3a6f6e6c7954727573746564536560448201527f7175656e6365723a206f6e6c7920747275737465642073657175656e636572006064820152608401610631565b6003805473ffffffffffffffffffffffffffffffffffffffff90921668010000000000000000027fffffffff0000000000000000000000000000000000000000ffffffffffffffff909216919091179055565b60025460009067ffffffffffffffff700100000000000000000000000000000000820481169161098e917801000000000000000000000000000000000000000000000000909104166001612f0d565b6109989190612f74565b6109b49067ffffffffffffffff16670de0b6b3a7640000612f9d565b905090565b60035468010000000000000000900473ffffffffffffffffffffffffffffffffffffffff163314610a6c576040517f08c379a000000000000000000000000000000000000000000000000000000000815260206004820152603f60248201527f50726f6f664f66456666696369656e63793a3a6f6e6c7954727573746564536560448201527f7175656e6365723a206f6e6c7920747275737465642073657175656e636572006064820152608401610631565b600380549115157c0100000000000000000000000000000000000000000000000000000000027fffffff00ffffffffffffffffffffffffffffffffffffffffffffffffffffffff909216919091179055565b600354610ad69067ffffffffffffffff166001612f0d565b67ffffffffffffffff168467ffffffffffffffff1614610b78576040517f08c379a000000000000000000000000000000000000000000000000000000000815260206004820152603460248201527f50726f6f664f66456666696369656e63793a3a76657269667942617463683a2060448201527f626174636820646f6573206e6f74206d617463680000000000000000000000006064820152608401610631565b60025467ffffffffffffffff6801000000000000000090910481169085161115610c4a576040517f08c379a000000000000000000000000000000000000000000000000000000000815260206004820152604260248201527f50726f6f664f66456666696369656e63793a3a76657269667942617463683a2060448201527f626174636820646f6573206e6f742068617665206265656e2073657175656e6360648201527f6564000000000000000000000000000000000000000000000000000000000000608482015260a401610631565b67ffffffffffffffff8085166000908152600160208190526040918290208054910154909267016345785d8a00009291169083901c610ccc5767ffffffffffffffff9283166000908152602081815260409182902082516060810184528154808252600183015493820184905260029092015490961695909201949094529291505b60055460065460408051602081019390935282015260608082018a9052608082018b905260a082018590527fffffffffffffffff00000000000000000000000000000000000000000000000060c08a811b82168185015284901b1660c88301527fffffffffffffffffffffffffffffffffffffffff0000000000000000000000003390911b1660d08201526000907f30644e72e131a029b85045b68181585d2833e84879b9709143e1f593f00000019060e4016040516020818303038152906040528051906020012060001c610da29190612f39565b6007546040805160208101825283815290517f43753b4d00000000000000000000000000000000000000000000000000000000815292935073ffffffffffffffffffffffffffffffffffffffff909116916343753b4d91610e0c918b918b918b9190600401612fda565b60206040518083038186803b158015610e2457600080fd5b505afa158015610e38573d6000803e3d6000fd5b505050506040513d601f19601f82011682018060405250810190610e5c9190613054565b610ee8576040517f08c379a000000000000000000000000000000000000000000000000000000000815260206004820152602d60248201527f50726f6f664f66456666696369656e63793a3a76657269667942617463683a2060448201527f494e56414c49445f50524f4f46000000000000000000000000000000000000006064820152608401610631565b6003805467ffffffffffffffff16906000610f0283613071565b825467ffffffffffffffff9182166101009390930a928302919092021990911617905550600589905560068a9055600480546040517f33d6247d0000000000000000000000000000000000000000000000000000000081529182018c905273ffffffffffffffffffffffffffffffffffffffff16906333d6247d90602401600060405180830381600087803b158015610f9a57600080fd5b505af1158015610fae573d6000803e3d6000fd5b50610ff592505073ffffffffffffffffffffffffffffffffffffffff7f000000000000000000000000000000000000000000000000000000000000000016905033856124ae565b604051339067ffffffffffffffff8a16907f2cdf1508085a46c7241a7d78c5a1ec3d9246d1ab95e1c2a33676d29e17d4222390600090a350505050505050505050565b6003546000906110539067ffffffffffffffff166001612f0d565b67ffffffffffffffff168267ffffffffffffffff16146110f5576040517f08c379a000000000000000000000000000000000000000000000000000000000815260206004820152603460248201527f50726f6f664f66456666696369656e63793a3a76657269667942617463683a2060448201527f42415443485f444f45535f4e4f545f4d415443480000000000000000000000006064820152608401610631565b67ffffffffffffffff80831660009081526001602081905260409182902080549101549092169082901c6111405767ffffffffffffffff909116600090815260208190526040902054905b60055460065460408051602081019390935282015260608082018790526080820188905260a082018490527fffffffffffffffff00000000000000000000000000000000000000000000000060c087811b82168185015284901b1660c88301527fffffffffffffffffffffffffffffffffffffffff0000000000000000000000003390911b1660d08201526000907f30644e72e131a029b85045b68181585d2833e84879b9709143e1f593f00000019060e4016040516020818303038152906040528051906020012060001c6112169190612f39565b979650505050505050565b6003547c0100000000000000000000000000000000000000000000000000000000900460ff1615156001146112fe576040517f08c379a000000000000000000000000000000000000000000000000000000000815260206004820152604860248201527f50726f6f664f66456666696369656e63793a3a6973466f72636542617463684160448201527f6c6c6f7765643a206f6e6c7920696620666f726365206261746368206973206160648201527f7661696c61626c65000000000000000000000000000000000000000000000000608482015260a401610631565b60025460009061132d908390700100000000000000000000000000000000900467ffffffffffffffff16612f0d565b905060008267ffffffffffffffff16116113ef576040517f08c379a000000000000000000000000000000000000000000000000000000000815260206004820152604260248201527f50726f6f664f66456666696369656e63793a3a73657175656e6365466f72636560448201527f42617463683a204d75737420666f726365206174206c6561737420312062617460648201527f6368000000000000000000000000000000000000000000000000000000000000608482015260a401610631565b60025467ffffffffffffffff7801000000000000000000000000000000000000000000000000909104811690821611156114ab576040517f08c379a000000000000000000000000000000000000000000000000000000000815260206004820152603a60248201527f50726f6f664f66456666696369656e63793a3a73657175656e6365466f72636560448201527f42617463683a20466f72636520626174636820696e76616c69640000000000006064820152608401610631565b60035468010000000000000000900473ffffffffffffffffffffffffffffffffffffffff1633146115c35767ffffffffffffffff80821660009081526020819052604090206002015442916115059162093a809116612f0d565b67ffffffffffffffff1611156115c3576040517f08c379a000000000000000000000000000000000000000000000000000000000815260206004820152604c60248201527f50726f6f664f66456666696369656e63793a3a73657175656e6365466f72636560448201527f42617463683a20466f72636564206261746368206973206e6f7420696e20746960648201527f6d656f757420706572696f640000000000000000000000000000000000000000608482015260a401610631565b60025467ffffffffffffffff68010000000000000000820481169170010000000000000000000000000000000090041660005b8467ffffffffffffffff16811015611687578161161281613071565b925050828061162090613071565b67ffffffffffffffff818116600090815260016020819052604090912086831681550180547fffffffffffffffffffffffffffffffffffffffffffffffff00000000000000001642909216919091179055935081905061167f81613099565b9150506115f6565b50600280544267ffffffffffffffff9081167fffffffffffffffffffffffffffffffff0000000000000000000000000000000090921691909117680100000000000000008583168102919091177fffffffffffffffff0000000000000000ffffffffffffffffffffffffffffffff16700100000000000000000000000000000000858416021792839055604051920416907f648a61dd2438f072f5a1960939abd30f37aea80d2e94c9792ad142d3e0a490a490600090a250505050565b6003547c0100000000000000000000000000000000000000000000000000000000900460ff161515600114611821576040517f08c379a000000000000000000000000000000000000000000000000000000000815260206004820152604860248201527f50726f6f664f66456666696369656e63793a3a6973466f72636542617463684160448201527f6c6c6f7765643a206f6e6c7920696620666f726365206261746368206973206160648201527f7661696c61626c65000000000000000000000000000000000000000000000000608482015260a401610631565b600061182b61093f565b9050818111156118bd576040517f08c379a000000000000000000000000000000000000000000000000000000000815260206004820152602f60248201527f50726f6f664f66456666696369656e63793a3a666f72636542617463683a206e60448201527f6f7420656e6f756768206d6174696300000000000000000000000000000000006064820152608401610631565b7fffffffffffffffffffffffffffffffffffffffffffffffffffffffffffffffff83511061196d576040517f08c379a000000000000000000000000000000000000000000000000000000000815260206004820152603a60248201527f50726f6f664f66456666696369656e63793a3a666f72636542617463683a205460448201527f72616e73616374696f6e73206279746573206f766572666c6f770000000000006064820152608401610631565b6119af73ffffffffffffffffffffffffffffffffffffffff7f000000000000000000000000000000000000000000000000000000000000000016333084612587565b6000600460009054906101000a900473ffffffffffffffffffffffffffffffffffffffff1673ffffffffffffffffffffffffffffffffffffffff16633ed691ef6040518163ffffffff1660e01b815260040160206040518083038186803b158015611a1957600080fd5b505afa158015611a2d573d6000803e3d6000fd5b505050506040513d601f19601f82011682018060405250810190611a5191906130d2565b60028054919250780100000000000000000000000000000000000000000000000090910467ffffffffffffffff16906018611a8b83613071565b91906101000a81548167ffffffffffffffff021916908367ffffffffffffffff16021790555050838133604051602001611ac7939291906130eb565b604080518083037fffffffffffffffffffffffffffffffffffffffffffffffffffffffffffffffe001815291815281516020928301206002805478010000000000000000000000000000000000000000000000009081900467ffffffffffffffff9081166000908152958690528486209390935581548190048316855283852060010187905581540482168452919092200180547fffffffffffffffffffffffffffffffffffffffffffffffff0000000000000000164290921691909117905532331415611c0a57600254604080518381523360208201526060918101829052600091810191909152780100000000000000000000000000000000000000000000000090910467ffffffffffffffff16907ff94bb37db835f1ab585ee00041849a09b12cd081d77fa15ca070757619cbc9319060800160405180910390a2611c67565b600260189054906101000a900467ffffffffffffffff1667ffffffffffffffff167ff94bb37db835f1ab585ee00041849a09b12cd081d77fa15ca070757619cbc931823387604051611c5e93929190613137565b60405180910390a25b50505050565b60035468010000000000000000900473ffffffffffffffffffffffffffffffffffffffff163314611d20576040517f08c379a000000000000000000000000000000000000000000000000000000000815260206004820152603f60248201527f50726f6f664f66456666696369656e63793a3a6f6e6c7954727573746564536560448201527f7175656e6365723a206f6e6c7920747275737465642073657175656e636572006064820152608401610631565b8051611d783330611d398467016345785d8a0000612f9d565b73ffffffffffffffffffffffffffffffffffffffff7f000000000000000000000000000000000000000000000000000000000000000016929190612587565b60025467ffffffffffffffff808216916801000000000000000081048216917001000000000000000000000000000000009091041660005b84811015612335576000868281518110611dcc57611dcc613175565b602002602001015190508467ffffffffffffffff16816040015167ffffffffffffffff1610158015611e0c575042816040015167ffffffffffffffff1611155b611ebe576040517f08c379a000000000000000000000000000000000000000000000000000000000815260206004820152604260248201527f50726f6f664f66456666696369656e63793a3a73657175656e6365426174636860448201527f65733a2054696d657374616d70206d75737420626520696e736964652072616e60648201527f6765000000000000000000000000000000000000000000000000000000000000608482015260a401610631565b60208101511580611f7257506004805460208301516040517f257b36320000000000000000000000000000000000000000000000000000000081529283015273ffffffffffffffffffffffffffffffffffffffff169063257b363290602401602060405180830381600087803b158015611f3757600080fd5b505af1158015611f4b573d6000803e3d6000fd5b505050506040513d601f19601f82011682018060405250810190611f6f91906130d2565b15155b611ffe576040517f08c379a000000000000000000000000000000000000000000000000000000000815260206004820152603f60248201527f50726f6f664f66456666696369656e63793a3a73657175656e6365426174636860448201527f65733a20476c6f62616c206578697420726f6f74206d757374206578697374006064820152608401610631565b8051517fffffffffffffffffffffffffffffffffffffffffffffffffffffffffffffffff116120af576040517f08c379a000000000000000000000000000000000000000000000000000000000815260206004820152603f60248201527f50726f6f664f66456666696369656e63793a3a73657175656e6365426174636860448201527f65733a205472616e73616374696f6e73206279746573206f766572666c6f77006064820152608401610631565b836120b981613071565b82516020808501516040519398506120d6945091923391016130eb565b604080518083037fffffffffffffffffffffffffffffffffffffffffffffffffffffffffffffffe0018152918152815160209283012067ffffffffffffffff8781166000908152600194859052838120928355928501519190930180547fffffffffffffffffffffffffffffffffffffffffffffffff000000000000000016938216939093179092559095505b816060015151811015612320578361217a81613071565b94505060008260600151828151811061219557612195613175565b602002602001015190508667ffffffffffffffff168167ffffffffffffffff16101580156121e4575067ffffffffffffffff808616600090815260208190526040902060020154811690821610155b80156121fa5750428167ffffffffffffffff1611155b6122ac576040517f08c379a000000000000000000000000000000000000000000000000000000000815260206004820152605160248201527f50726f6f664f66456666696369656e63793a3a73657175656e6365426174636860448201527f65733a20466f7263656420626174636865732074696d657374616d70206d757360648201527f7420626520696e736964652072616e6765000000000000000000000000000000608482015260a401610631565b856122b681613071565b67ffffffffffffffff818116600090815260016020819052604090912089831681550180547fffffffffffffffffffffffffffffffffffffffffffffffff00000000000000001691851691909117905591975090955081905061231881613099565b915050612163565b5050808061232d90613099565b915050611db0565b5060025467ffffffffffffffff7801000000000000000000000000000000000000000000000000909104811690821611156123f2576040517f08c379a000000000000000000000000000000000000000000000000000000000815260206004820152603a60248201527f50726f6f664f66456666696369656e63793a3a73657175656e6365426174636860448201527f65733a20466f7263652062617463686573206f766572666c6f770000000000006064820152608401610631565b6002805467ffffffffffffffff8581167fffffffffffffffffffffffffffffffff0000000000000000000000000000000090921691909117680100000000000000008583168102919091177fffffffffffffffff0000000000000000ffffffffffffffffffffffffffffffff16700100000000000000000000000000000000858416021792839055604051920416907f303446e6a8cb73c83dff421c0b1d5e5ce0719dab1bff13660fc254e58cc17fce90600090a25050505050565b60405173ffffffffffffffffffffffffffffffffffffffff83166024820152604481018290526125829084907fa9059cbb00000000000000000000000000000000000000000000000000000000906064015b604080517fffffffffffffffffffffffffffffffffffffffffffffffffffffffffffffffe08184030181529190526020810180517bffffffffffffffffffffffffffffffffffffffffffffffffffffffff167fffffffff00000000000000000000000000000000000000000000000000000000909316929092179091526125e5565b505050565b60405173ffffffffffffffffffffffffffffffffffffffff80851660248301528316604482015260648101829052611c679085907f23b872dd0000000000000000000000000000000000000000000000000000000090608401612500565b6000612647826040518060400160405280602081526020017f5361666545524332303a206c6f772d6c6576656c2063616c6c206661696c65648152508573ffffffffffffffffffffffffffffffffffffffff166126f19092919063ffffffff16565b80519091501561258257808060200190518101906126659190613054565b612582576040517f08c379a000000000000000000000000000000000000000000000000000000000815260206004820152602a60248201527f5361666545524332303a204552433230206f7065726174696f6e20646964206e60448201527f6f742073756363656564000000000000000000000000000000000000000000006064820152608401610631565b60606127008484600085612708565b949350505050565b60608247101561279a576040517f08c379a000000000000000000000000000000000000000000000000000000000815260206004820152602660248201527f416464726573733a20696e73756666696369656e742062616c616e636520666f60448201527f722063616c6c00000000000000000000000000000000000000000000000000006064820152608401610631565b73ffffffffffffffffffffffffffffffffffffffff85163b612818576040517f08c379a000000000000000000000000000000000000000000000000000000000815260206004820152601d60248201527f416464726573733a2063616c6c20746f206e6f6e2d636f6e74726163740000006044820152606401610631565b6000808673ffffffffffffffffffffffffffffffffffffffff16858760405161284191906131a4565b60006040518083038185875af1925050503d806000811461287e576040519150601f19603f3d011682016040523d82523d6000602084013e612883565b606091505b50915091506112168282866060831561289d575081610750565b8251156128ad5782518084602001fd5b816040517f08c379a000000000000000000000000000000000000000000000000000000000815260040161063191906129b2565b6000602082840312156128f357600080fd5b5035919050565b60008060006060848603121561290f57600080fd5b8335925060208401359150604084013563ffffffff8116811461293157600080fd5b809150509250925092565b60005b8381101561295757818101518382015260200161293f565b83811115611c675750506000910152565b6000815180845261298081602086016020860161293c565b601f017fffffffffffffffffffffffffffffffffffffffffffffffffffffffffffffffe0169290920160200192915050565b6020815260006107506020830184612968565b803567ffffffffffffffff811681146129dd57600080fd5b919050565b803573ffffffffffffffffffffffffffffffffffffffff811681146129dd57600080fd5b600080600080600080600080610100898b031215612a2357600080fd5b8835975060208901359650604089013595506060890135945060808901359350612a4f60a08a016129c5565b9250612a5d60c08a016129c5565b9150612a6b60e08a016129e2565b90509295985092959890939650565b600060208284031215612a8c57600080fd5b610750826129c5565b600060208284031215612aa757600080fd5b610750826129e2565b8015158114612abe57600080fd5b50565b600060208284031215612ad357600080fd5b813561075081612ab0565b8060408101831015612aef57600080fd5b92915050565b6000806000806000806101608789031215612b0f57600080fd5b8635955060208701359450612b26604088016129c5565b9350612b358860608901612ade565b9250610120870188811115612b4957600080fd5b60a088019250612b598982612ade565b9150509295509295509295565b600080600060608486031215612b7b57600080fd5b8335925060208401359150612b92604085016129c5565b90509250925092565b7f4e487b7100000000000000000000000000000000000000000000000000000000600052604160045260246000fd5b6040516080810167ffffffffffffffff81118282101715612bed57612bed612b9b565b60405290565b604051601f82017fffffffffffffffffffffffffffffffffffffffffffffffffffffffffffffffe016810167ffffffffffffffff81118282101715612c3a57612c3a612b9b565b604052919050565b600082601f830112612c5357600080fd5b813567ffffffffffffffff811115612c6d57612c6d612b9b565b612c9e60207fffffffffffffffffffffffffffffffffffffffffffffffffffffffffffffffe0601f84011601612bf3565b818152846020838601011115612cb357600080fd5b816020850160208301376000918101602001919091529392505050565b60008060408385031215612ce357600080fd5b823567ffffffffffffffff811115612cfa57600080fd5b612d0685828601612c42565b95602094909401359450505050565b600067ffffffffffffffff821115612d2f57612d2f612b9b565b5060051b60200190565b60006020808385031215612d4c57600080fd5b823567ffffffffffffffff80821115612d6457600080fd5b818501915085601f830112612d7857600080fd5b8135612d8b612d8682612d15565b612bf3565b81815260059190911b83018401908481019088831115612daa57600080fd5b8585015b83811015612ed157803585811115612dc557600080fd5b86016080818c037fffffffffffffffffffffffffffffffffffffffffffffffffffffffffffffffe0011215612df957600080fd5b612e01612bca565b8882013587811115612e1257600080fd5b612e208d8b83860101612c42565b8252506040808301358a830152612e39606084016129c5565b81830152608083013588811115612e505760008081fd5b8084019350508c603f840112612e665760008081fd5b89830135612e76612d8682612d15565b81815260059190911b84018201908b8101908f831115612e965760008081fd5b948301945b82861015612ebb57612eac866129c5565b8252948c0194908c0190612e9b565b6060850152505050845250918601918601612dae565b5098975050505050505050565b7f4e487b7100000000000000000000000000000000000000000000000000000000600052601160045260246000fd5b600067ffffffffffffffff808316818516808303821115612f3057612f30612ede565b01949350505050565b600082612f6f577f4e487b7100000000000000000000000000000000000000000000000000000000600052601260045260246000fd5b500690565b600067ffffffffffffffff83811690831681811015612f9557612f95612ede565b039392505050565b6000817fffffffffffffffffffffffffffffffffffffffffffffffffffffffffffffffff0483118215151615612fd557612fd5612ede565b500290565b61012081016040808784376000838201818152879190815b600281101561301257848483379084018281529284019290600101612ff2565b5050828760c0870137610100850181815286935091505b6001811015613048578251825260209283019290910190600101613029565b50505095945050505050565b60006020828403121561306657600080fd5b815161075081612ab0565b600067ffffffffffffffff8083168181141561308f5761308f612ede565b6001019392505050565b60007fffffffffffffffffffffffffffffffffffffffffffffffffffffffffffffffff8214156130cb576130cb612ede565b5060010190565b6000602082840312156130e457600080fd5b5051919050565b600084516130fd81846020890161293c565b919091019283525060601b7fffffffffffffffffffffffffffffffffffffffff000000000000000000000000166020820152603401919050565b83815273ffffffffffffffffffffffffffffffffffffffff8316602082015260606040820152600061316c6060830184612968565b95945050505050565b7f4e487b7100000000000000000000000000000000000000000000000000000000600052603260045260246000fd5b600082516131b681846020870161293c565b919091019291505056fea2646970667358221220261dc4e9596fc8186a3d7027c56012f2fd0dcd3b0d843104a9ba61b77a77bd6364736f6c63430008090033",
  "linkReferences": {},
  "deployedLinkReferences": {}
}