{
  "_format": "hh-sol-artifact-1",
  "contractName": "ProofOfEfficiencyMock",
  "sourceName": "contracts/mocks/ProofOfEfficiencyMock.sol",
  "abi": [
    {
      "anonymous": false,
      "inputs": [
        {
          "indexed": true,
          "internalType": "uint64",
          "name": "numBatch",
          "type": "uint64"
        },
        {
          "indexed": false,
          "internalType": "bytes32",
          "name": "stateRoot",
          "type": "bytes32"
        },
        {
          "indexed": true,
          "internalType": "uint64",
          "name": "pendingStateNum",
          "type": "uint64"
        }
      ],
      "name": "ConsolidatePendingState",
      "type": "event"
    },
    {
      "anonymous": false,
      "inputs": [],
      "name": "EmergencyStateActivated",
      "type": "event"
    },
    {
      "anonymous": false,
      "inputs": [],
      "name": "EmergencyStateDeactivated",
      "type": "event"
    },
    {
      "anonymous": false,
      "inputs": [
        {
          "indexed": true,
          "internalType": "uint64",
          "name": "forceBatchNum",
          "type": "uint64"
        },
        {
          "indexed": false,
          "internalType": "bytes32",
          "name": "lastGlobalExitRoot",
          "type": "bytes32"
        },
        {
          "indexed": false,
          "internalType": "address",
          "name": "sequencer",
          "type": "address"
        },
        {
          "indexed": false,
          "internalType": "bytes",
          "name": "transactions",
          "type": "bytes"
        }
      ],
      "name": "ForceBatch",
      "type": "event"
    },
    {
      "anonymous": false,
      "inputs": [
        {
          "indexed": false,
          "internalType": "uint8",
          "name": "version",
          "type": "uint8"
        }
      ],
      "name": "Initialized",
      "type": "event"
    },
    {
      "anonymous": false,
      "inputs": [
        {
          "indexed": true,
          "internalType": "uint64",
          "name": "numBatch",
          "type": "uint64"
        },
        {
          "indexed": false,
          "internalType": "bytes32",
          "name": "stateRoot",
          "type": "bytes32"
        },
        {
          "indexed": true,
          "internalType": "address",
          "name": "aggregator",
          "type": "address"
        }
      ],
      "name": "OverridePendingState",
      "type": "event"
    },
    {
      "anonymous": false,
      "inputs": [
        {
          "indexed": true,
          "internalType": "address",
          "name": "previousOwner",
          "type": "address"
        },
        {
          "indexed": true,
          "internalType": "address",
          "name": "newOwner",
          "type": "address"
        }
      ],
      "name": "OwnershipTransferred",
      "type": "event"
    },
    {
      "anonymous": false,
      "inputs": [
        {
          "indexed": false,
          "internalType": "bytes32",
          "name": "storedStateRoot",
          "type": "bytes32"
        },
        {
          "indexed": false,
          "internalType": "bytes32",
          "name": "provedStateRoot",
          "type": "bytes32"
        }
      ],
      "name": "ProveNonDeterministicPendingState",
      "type": "event"
    },
    {
      "anonymous": false,
      "inputs": [
        {
          "indexed": true,
          "internalType": "uint64",
          "name": "numBatch",
          "type": "uint64"
        }
      ],
      "name": "SequenceBatches",
      "type": "event"
    },
    {
      "anonymous": false,
      "inputs": [
        {
          "indexed": true,
          "internalType": "uint64",
          "name": "numBatch",
          "type": "uint64"
        }
      ],
      "name": "SequenceForceBatches",
      "type": "event"
    },
    {
      "anonymous": false,
      "inputs": [
        {
          "indexed": false,
          "internalType": "address",
          "name": "newAdmin",
          "type": "address"
        }
      ],
      "name": "SetAdmin",
      "type": "event"
    },
    {
      "anonymous": false,
      "inputs": [
        {
          "indexed": false,
          "internalType": "bool",
          "name": "newForceBatchAllowed",
          "type": "bool"
        }
      ],
      "name": "SetForceBatchAllowed",
      "type": "event"
    },
    {
      "anonymous": false,
      "inputs": [
        {
          "indexed": false,
          "internalType": "uint64",
          "name": "newPendingStateTimeout",
          "type": "uint64"
        }
      ],
      "name": "SetPendingStateTimeout",
      "type": "event"
    },
    {
      "anonymous": false,
      "inputs": [
        {
          "indexed": false,
          "internalType": "address",
          "name": "newTrustedAggregator",
          "type": "address"
        }
      ],
      "name": "SetTrustedAggregator",
      "type": "event"
    },
    {
      "anonymous": false,
      "inputs": [
        {
          "indexed": false,
          "internalType": "uint64",
          "name": "newTrustedAggregatorTimeout",
          "type": "uint64"
        }
      ],
      "name": "SetTrustedAggregatorTimeout",
      "type": "event"
    },
    {
      "anonymous": false,
      "inputs": [
        {
          "indexed": false,
          "internalType": "address",
          "name": "newTrustedSequencer",
          "type": "address"
        }
      ],
      "name": "SetTrustedSequencer",
      "type": "event"
    },
    {
      "anonymous": false,
      "inputs": [
        {
          "indexed": false,
          "internalType": "string",
          "name": "newTrustedSequencerURL",
          "type": "string"
        }
      ],
      "name": "SetTrustedSequencerURL",
      "type": "event"
    },
    {
      "anonymous": false,
      "inputs": [
        {
          "indexed": true,
          "internalType": "uint64",
          "name": "numBatch",
          "type": "uint64"
        },
        {
          "indexed": false,
          "internalType": "bytes32",
          "name": "stateRoot",
          "type": "bytes32"
        },
        {
          "indexed": true,
          "internalType": "address",
          "name": "aggregator",
          "type": "address"
        }
      ],
      "name": "TrustedVerifyBatches",
      "type": "event"
    },
    {
      "anonymous": false,
      "inputs": [
        {
          "indexed": true,
          "internalType": "uint64",
          "name": "numBatch",
          "type": "uint64"
        },
        {
          "indexed": false,
          "internalType": "bytes32",
          "name": "stateRoot",
          "type": "bytes32"
        },
        {
          "indexed": true,
          "internalType": "address",
          "name": "aggregator",
          "type": "address"
        }
      ],
      "name": "VerifyBatches",
      "type": "event"
    },
    {
      "inputs": [],
      "name": "FORCE_BATCH_TIMEOUT",
      "outputs": [
        {
          "internalType": "uint64",
          "name": "",
          "type": "uint64"
        }
      ],
      "stateMutability": "view",
      "type": "function"
    },
    {
      "inputs": [],
      "name": "HALT_AGGREGATION_TIMEOUT",
      "outputs": [
        {
          "internalType": "uint64",
          "name": "",
          "type": "uint64"
        }
      ],
      "stateMutability": "view",
      "type": "function"
    },
    {
      "inputs": [],
      "name": "MAX_TRANSACTIONS_BYTE_LENGTH",
      "outputs": [
        {
          "internalType": "uint256",
          "name": "",
          "type": "uint256"
        }
      ],
      "stateMutability": "view",
      "type": "function"
    },
    {
      "inputs": [],
      "name": "MAX_VERIFY_BATCHES",
      "outputs": [
        {
          "internalType": "uint64",
          "name": "",
          "type": "uint64"
        }
      ],
      "stateMutability": "view",
      "type": "function"
    },
    {
      "inputs": [],
      "name": "MULTIPLIER_BATCH_FEE",
      "outputs": [
        {
          "internalType": "uint256",
          "name": "",
          "type": "uint256"
        }
      ],
      "stateMutability": "view",
      "type": "function"
    },
    {
      "inputs": [],
      "name": "VERIFY_BATCH_TIME_TARGET",
      "outputs": [
        {
          "internalType": "uint64",
          "name": "",
          "type": "uint64"
        }
      ],
      "stateMutability": "view",
      "type": "function"
    },
    {
      "inputs": [
        {
          "internalType": "uint64",
          "name": "sequencedBatchNum",
          "type": "uint64"
        }
      ],
      "name": "activateEmergencyState",
      "outputs": [],
      "stateMutability": "nonpayable",
      "type": "function"
    },
    {
      "inputs": [],
      "name": "admin",
      "outputs": [
        {
          "internalType": "address",
          "name": "",
          "type": "address"
        }
      ],
      "stateMutability": "view",
      "type": "function"
    },
    {
      "inputs": [],
      "name": "batchFee",
      "outputs": [
        {
          "internalType": "uint256",
          "name": "",
          "type": "uint256"
        }
      ],
      "stateMutability": "view",
      "type": "function"
    },
    {
      "inputs": [
        {
          "internalType": "uint64",
          "name": "",
          "type": "uint64"
        }
      ],
      "name": "batchNumToStateRoot",
      "outputs": [
        {
          "internalType": "bytes32",
          "name": "",
          "type": "bytes32"
        }
      ],
      "stateMutability": "view",
      "type": "function"
    },
    {
      "inputs": [],
      "name": "bridgeAddress",
      "outputs": [
        {
          "internalType": "contract IBridge",
          "name": "",
          "type": "address"
        }
      ],
      "stateMutability": "view",
      "type": "function"
    },
    {
      "inputs": [
        {
          "internalType": "bytes32",
          "name": "currentAccInputHash",
          "type": "bytes32"
        },
        {
          "internalType": "bytes",
          "name": "transactions",
          "type": "bytes"
        },
        {
          "internalType": "bytes32",
          "name": "globalExitRoot",
          "type": "bytes32"
        },
        {
          "internalType": "uint64",
          "name": "timestamp",
          "type": "uint64"
        },
        {
          "internalType": "address",
          "name": "sequencerAddress",
          "type": "address"
        }
      ],
      "name": "calculateAccInputHash",
      "outputs": [
        {
          "internalType": "bytes32",
          "name": "",
          "type": "bytes32"
        }
      ],
      "stateMutability": "pure",
      "type": "function"
    },
    {
      "inputs": [],
      "name": "calculateRewardPerBatch",
      "outputs": [
        {
          "internalType": "uint256",
          "name": "",
          "type": "uint256"
        }
      ],
      "stateMutability": "view",
      "type": "function"
    },
    {
      "inputs": [],
      "name": "chainID",
      "outputs": [
        {
          "internalType": "uint64",
          "name": "",
          "type": "uint64"
        }
      ],
      "stateMutability": "view",
      "type": "function"
    },
    {
      "inputs": [
        {
          "internalType": "uint64",
          "name": "pendingStateNum",
          "type": "uint64"
        }
      ],
      "name": "consolidatePendingState",
      "outputs": [],
      "stateMutability": "nonpayable",
      "type": "function"
    },
    {
      "inputs": [],
      "name": "deactivateEmergencyState",
      "outputs": [],
      "stateMutability": "nonpayable",
      "type": "function"
    },
    {
      "inputs": [
        {
          "internalType": "bytes",
          "name": "transactions",
          "type": "bytes"
        },
        {
          "internalType": "uint256",
          "name": "maticAmount",
          "type": "uint256"
        }
      ],
      "name": "forceBatch",
      "outputs": [],
      "stateMutability": "nonpayable",
      "type": "function"
    },
    {
      "inputs": [],
      "name": "forceBatchAllowed",
      "outputs": [
        {
          "internalType": "bool",
          "name": "",
          "type": "bool"
        }
      ],
      "stateMutability": "view",
      "type": "function"
    },
    {
      "inputs": [
        {
          "internalType": "uint64",
          "name": "",
          "type": "uint64"
        }
      ],
      "name": "forcedBatches",
      "outputs": [
        {
          "internalType": "bytes32",
          "name": "",
          "type": "bytes32"
        }
      ],
      "stateMutability": "view",
      "type": "function"
    },
    {
      "inputs": [],
      "name": "getCurrentBatchFee",
      "outputs": [
        {
          "internalType": "uint256",
          "name": "",
          "type": "uint256"
        }
      ],
      "stateMutability": "view",
      "type": "function"
    },
    {
      "inputs": [
        {
          "internalType": "uint64",
          "name": "initNumBatch",
          "type": "uint64"
        },
        {
          "internalType": "uint64",
          "name": "finalNewBatch",
          "type": "uint64"
        },
        {
          "internalType": "bytes32",
          "name": "newLocalExitRoot",
          "type": "bytes32"
        },
        {
          "internalType": "bytes32",
          "name": "oldStateRoot",
          "type": "bytes32"
        },
        {
          "internalType": "bytes32",
          "name": "newStateRoot",
          "type": "bytes32"
        }
      ],
      "name": "getInputSnarkBytes",
      "outputs": [
        {
          "internalType": "bytes",
          "name": "",
          "type": "bytes"
        }
      ],
      "stateMutability": "view",
      "type": "function"
    },
    {
      "inputs": [],
      "name": "getLastVerifiedBatch",
      "outputs": [
        {
          "internalType": "uint64",
          "name": "",
          "type": "uint64"
        }
      ],
      "stateMutability": "view",
      "type": "function"
    },
    {
      "inputs": [
        {
          "internalType": "uint64",
          "name": "pendingStateNum",
          "type": "uint64"
        },
        {
          "internalType": "uint64",
          "name": "initNumBatch",
          "type": "uint64"
        },
        {
          "internalType": "uint64",
          "name": "finalNewBatch",
          "type": "uint64"
        },
        {
          "internalType": "bytes32",
          "name": "newLocalExitRoot",
          "type": "bytes32"
        },
        {
          "internalType": "bytes32",
          "name": "newStateRoot",
          "type": "bytes32"
        }
      ],
      "name": "getNextSnarkInput",
      "outputs": [
        {
          "internalType": "uint256",
          "name": "",
          "type": "uint256"
        }
      ],
      "stateMutability": "view",
      "type": "function"
    },
    {
      "inputs": [],
      "name": "globalExitRootManager",
      "outputs": [
        {
          "internalType": "contract IGlobalExitRootManager",
          "name": "",
          "type": "address"
        }
      ],
      "stateMutability": "view",
      "type": "function"
    },
    {
      "inputs": [
        {
          "internalType": "contract IGlobalExitRootManager",
          "name": "_globalExitRootManager",
          "type": "address"
        },
        {
          "internalType": "contract IERC20Upgradeable",
          "name": "_matic",
          "type": "address"
        },
        {
          "internalType": "contract IVerifierRollup",
          "name": "_rollupVerifier",
          "type": "address"
        },
        {
          "internalType": "contract IBridge",
          "name": "_bridgeAddress",
          "type": "address"
        },
        {
          "components": [
            {
              "internalType": "address",
              "name": "admin",
              "type": "address"
            },
            {
              "internalType": "uint64",
              "name": "chainID",
              "type": "uint64"
            },
            {
              "internalType": "address",
              "name": "trustedSequencer",
              "type": "address"
            },
            {
              "internalType": "uint64",
              "name": "pendingStateTimeout",
              "type": "uint64"
            },
            {
              "internalType": "bool",
              "name": "forceBatchAllowed",
              "type": "bool"
            },
            {
              "internalType": "address",
              "name": "trustedAggregator",
              "type": "address"
            },
            {
              "internalType": "uint64",
              "name": "trustedAggregatorTimeout",
              "type": "uint64"
            }
          ],
          "internalType": "struct ProofOfEfficiency.InitializePackedParameters",
          "name": "initializePackedParameters",
          "type": "tuple"
        },
        {
          "internalType": "bytes32",
          "name": "genesisRoot",
          "type": "bytes32"
        },
        {
          "internalType": "string",
          "name": "_trustedSequencerURL",
          "type": "string"
        },
        {
          "internalType": "string",
          "name": "_networkName",
          "type": "string"
        }
      ],
      "name": "initialize",
      "outputs": [],
      "stateMutability": "nonpayable",
      "type": "function"
    },
    {
      "inputs": [],
      "name": "isEmergencyState",
      "outputs": [
        {
          "internalType": "bool",
          "name": "",
          "type": "bool"
        }
      ],
      "stateMutability": "view",
      "type": "function"
    },
    {
      "inputs": [
        {
          "internalType": "uint64",
          "name": "pendingStateNum",
          "type": "uint64"
        }
      ],
      "name": "isPendingStateConsolidable",
      "outputs": [
        {
          "internalType": "bool",
          "name": "",
          "type": "bool"
        }
      ],
      "stateMutability": "view",
      "type": "function"
    },
    {
      "inputs": [],
      "name": "lastBatchSequenced",
      "outputs": [
        {
          "internalType": "uint64",
          "name": "",
          "type": "uint64"
        }
      ],
      "stateMutability": "view",
      "type": "function"
    },
    {
      "inputs": [],
      "name": "lastForceBatch",
      "outputs": [
        {
          "internalType": "uint64",
          "name": "",
          "type": "uint64"
        }
      ],
      "stateMutability": "view",
      "type": "function"
    },
    {
      "inputs": [],
      "name": "lastForceBatchSequenced",
      "outputs": [
        {
          "internalType": "uint64",
          "name": "",
          "type": "uint64"
        }
      ],
      "stateMutability": "view",
      "type": "function"
    },
    {
      "inputs": [],
      "name": "lastPendingState",
      "outputs": [
        {
          "internalType": "uint64",
          "name": "",
          "type": "uint64"
        }
      ],
      "stateMutability": "view",
      "type": "function"
    },
    {
      "inputs": [],
      "name": "lastPendingStateConsolidated",
      "outputs": [
        {
          "internalType": "uint64",
          "name": "",
          "type": "uint64"
        }
      ],
      "stateMutability": "view",
      "type": "function"
    },
    {
      "inputs": [],
      "name": "lastTimestamp",
      "outputs": [
        {
          "internalType": "uint64",
          "name": "",
          "type": "uint64"
        }
      ],
      "stateMutability": "view",
      "type": "function"
    },
    {
      "inputs": [],
      "name": "lastVerifiedBatch",
      "outputs": [
        {
          "internalType": "uint64",
          "name": "",
          "type": "uint64"
        }
      ],
      "stateMutability": "view",
      "type": "function"
    },
    {
      "inputs": [],
      "name": "matic",
      "outputs": [
        {
          "internalType": "contract IERC20Upgradeable",
          "name": "",
          "type": "address"
        }
      ],
      "stateMutability": "view",
      "type": "function"
    },
    {
      "inputs": [],
      "name": "networkName",
      "outputs": [
        {
          "internalType": "string",
          "name": "",
          "type": "string"
        }
      ],
      "stateMutability": "view",
      "type": "function"
    },
    {
      "inputs": [
        {
          "internalType": "uint64",
          "name": "initPendingStateNum",
          "type": "uint64"
        },
        {
          "internalType": "uint64",
          "name": "finalPendingStateNum",
          "type": "uint64"
        },
        {
          "internalType": "uint64",
          "name": "initNumBatch",
          "type": "uint64"
        },
        {
          "internalType": "uint64",
          "name": "finalNewBatch",
          "type": "uint64"
        },
        {
          "internalType": "bytes32",
          "name": "newLocalExitRoot",
          "type": "bytes32"
        },
        {
          "internalType": "bytes32",
          "name": "newStateRoot",
          "type": "bytes32"
        },
        {
          "internalType": "uint256[2]",
          "name": "proofA",
          "type": "uint256[2]"
        },
        {
          "internalType": "uint256[2][2]",
          "name": "proofB",
          "type": "uint256[2][2]"
        },
        {
          "internalType": "uint256[2]",
          "name": "proofC",
          "type": "uint256[2]"
        }
      ],
      "name": "overridePendingState",
      "outputs": [],
      "stateMutability": "nonpayable",
      "type": "function"
    },
    {
      "inputs": [],
      "name": "owner",
      "outputs": [
        {
          "internalType": "address",
          "name": "",
          "type": "address"
        }
      ],
      "stateMutability": "view",
      "type": "function"
    },
    {
      "inputs": [],
      "name": "pendingStateTimeout",
      "outputs": [
        {
          "internalType": "uint64",
          "name": "",
          "type": "uint64"
        }
      ],
      "stateMutability": "view",
      "type": "function"
    },
    {
      "inputs": [
        {
          "internalType": "uint256",
          "name": "",
          "type": "uint256"
        }
      ],
      "name": "pendingStateTransitions",
      "outputs": [
        {
          "internalType": "uint64",
          "name": "timestamp",
          "type": "uint64"
        },
        {
          "internalType": "uint64",
          "name": "lastVerifiedBatch",
          "type": "uint64"
        },
        {
          "internalType": "bytes32",
          "name": "exitRoot",
          "type": "bytes32"
        },
        {
          "internalType": "bytes32",
          "name": "stateRoot",
          "type": "bytes32"
        }
      ],
      "stateMutability": "view",
      "type": "function"
    },
    {
      "inputs": [
        {
          "internalType": "uint64",
          "name": "initPendingStateNum",
          "type": "uint64"
        },
        {
          "internalType": "uint64",
          "name": "finalPendingStateNum",
          "type": "uint64"
        },
        {
          "internalType": "uint64",
          "name": "initNumBatch",
          "type": "uint64"
        },
        {
          "internalType": "uint64",
          "name": "finalNewBatch",
          "type": "uint64"
        },
        {
          "internalType": "bytes32",
          "name": "newLocalExitRoot",
          "type": "bytes32"
        },
        {
          "internalType": "bytes32",
          "name": "newStateRoot",
          "type": "bytes32"
        },
        {
          "internalType": "uint256[2]",
          "name": "proofA",
          "type": "uint256[2]"
        },
        {
          "internalType": "uint256[2][2]",
          "name": "proofB",
          "type": "uint256[2][2]"
        },
        {
          "internalType": "uint256[2]",
          "name": "proofC",
          "type": "uint256[2]"
        }
      ],
      "name": "proveNonDeterministicPendingState",
      "outputs": [],
      "stateMutability": "nonpayable",
      "type": "function"
    },
    {
      "inputs": [],
      "name": "renounceOwnership",
      "outputs": [],
      "stateMutability": "nonpayable",
      "type": "function"
    },
    {
      "inputs": [],
      "name": "rollupVerifier",
      "outputs": [
        {
          "internalType": "contract IVerifierRollup",
          "name": "",
          "type": "address"
        }
      ],
      "stateMutability": "view",
      "type": "function"
    },
    {
      "inputs": [
        {
          "components": [
            {
              "internalType": "bytes",
              "name": "transactions",
              "type": "bytes"
            },
            {
              "internalType": "bytes32",
              "name": "globalExitRoot",
              "type": "bytes32"
            },
            {
              "internalType": "uint64",
              "name": "timestamp",
              "type": "uint64"
            },
            {
              "internalType": "uint64",
              "name": "minForcedTimestamp",
              "type": "uint64"
            }
          ],
          "internalType": "struct ProofOfEfficiency.BatchData[]",
          "name": "batches",
          "type": "tuple[]"
        }
      ],
      "name": "sequenceBatches",
      "outputs": [],
      "stateMutability": "nonpayable",
      "type": "function"
    },
    {
      "inputs": [
        {
          "components": [
            {
              "internalType": "bytes",
              "name": "transactions",
              "type": "bytes"
            },
            {
              "internalType": "bytes32",
              "name": "globalExitRoot",
              "type": "bytes32"
            },
            {
              "internalType": "uint64",
              "name": "minForcedTimestamp",
              "type": "uint64"
            }
          ],
          "internalType": "struct ProofOfEfficiency.ForcedBatchData[]",
          "name": "batches",
          "type": "tuple[]"
        }
      ],
      "name": "sequenceForceBatches",
      "outputs": [],
      "stateMutability": "nonpayable",
      "type": "function"
    },
    {
      "inputs": [
        {
          "internalType": "uint64",
          "name": "",
          "type": "uint64"
        }
      ],
      "name": "sequencedBatches",
      "outputs": [
        {
          "internalType": "bytes32",
          "name": "accInputHash",
          "type": "bytes32"
        },
        {
          "internalType": "uint64",
          "name": "sequencedTimestamp",
          "type": "uint64"
        },
        {
          "internalType": "uint64",
          "name": "previousLastBatchSequenced",
          "type": "uint64"
        }
      ],
      "stateMutability": "view",
      "type": "function"
    },
    {
      "inputs": [
        {
          "internalType": "address",
          "name": "newAdmin",
          "type": "address"
        }
      ],
      "name": "setAdmin",
      "outputs": [],
      "stateMutability": "nonpayable",
      "type": "function"
    },
    {
      "inputs": [
        {
          "internalType": "bool",
          "name": "newForceBatchAllowed",
          "type": "bool"
        }
      ],
      "name": "setForceBatchAllowed",
      "outputs": [],
      "stateMutability": "nonpayable",
      "type": "function"
    },
    {
      "inputs": [
        {
          "internalType": "string",
          "name": "_networkName",
          "type": "string"
        }
      ],
      "name": "setNetworkName",
      "outputs": [],
      "stateMutability": "nonpayable",
      "type": "function"
    },
    {
      "inputs": [
        {
          "internalType": "uint64",
          "name": "newPendingStateTimeout",
          "type": "uint64"
        }
      ],
      "name": "setPendingStateTimeout",
      "outputs": [],
      "stateMutability": "nonpayable",
      "type": "function"
    },
    {
      "inputs": [
        {
          "internalType": "uint64",
          "name": "_numBatch",
          "type": "uint64"
        }
      ],
      "name": "setSequencedBatch",
      "outputs": [],
      "stateMutability": "nonpayable",
      "type": "function"
    },
    {
      "inputs": [
        {
          "internalType": "uint64",
          "name": "batchNum",
          "type": "uint64"
        },
        {
          "internalType": "bytes32",
          "name": "accInputData",
          "type": "bytes32"
        },
        {
          "internalType": "uint64",
          "name": "timestamp",
          "type": "uint64"
        },
        {
          "internalType": "uint64",
          "name": "lastPendingStateConsolidated",
          "type": "uint64"
        }
      ],
      "name": "setSequencedBatches",
      "outputs": [],
      "stateMutability": "nonpayable",
      "type": "function"
    },
    {
      "inputs": [
        {
          "internalType": "bytes32",
          "name": "newStateRoot",
          "type": "bytes32"
        },
        {
          "internalType": "uint64",
          "name": "batchNum",
          "type": "uint64"
        }
      ],
      "name": "setStateRoot",
      "outputs": [],
      "stateMutability": "nonpayable",
      "type": "function"
    },
    {
      "inputs": [
        {
          "internalType": "address",
          "name": "newTrustedAggregator",
          "type": "address"
        }
      ],
      "name": "setTrustedAggregator",
      "outputs": [],
      "stateMutability": "nonpayable",
      "type": "function"
    },
    {
      "inputs": [
        {
          "internalType": "uint64",
          "name": "newTrustedAggregatorTimeout",
          "type": "uint64"
        }
      ],
      "name": "setTrustedAggregatorTimeout",
      "outputs": [],
      "stateMutability": "nonpayable",
      "type": "function"
    },
    {
      "inputs": [
        {
          "internalType": "address",
          "name": "newTrustedSequencer",
          "type": "address"
        }
      ],
      "name": "setTrustedSequencer",
      "outputs": [],
      "stateMutability": "nonpayable",
      "type": "function"
    },
    {
      "inputs": [
        {
          "internalType": "string",
          "name": "newTrustedSequencerURL",
          "type": "string"
        }
      ],
      "name": "setTrustedSequencerURL",
      "outputs": [],
      "stateMutability": "nonpayable",
      "type": "function"
    },
    {
      "inputs": [
        {
          "internalType": "uint64",
          "name": "_numBatch",
          "type": "uint64"
        }
      ],
      "name": "setVerifiedBatch",
      "outputs": [],
      "stateMutability": "nonpayable",
      "type": "function"
    },
    {
      "inputs": [
        {
          "internalType": "contract IVerifierRollup",
          "name": "_rollupVerifier",
          "type": "address"
        }
      ],
      "name": "setVerifier",
      "outputs": [],
      "stateMutability": "nonpayable",
      "type": "function"
    },
    {
      "inputs": [
        {
          "internalType": "address",
          "name": "newOwner",
          "type": "address"
        }
      ],
      "name": "transferOwnership",
      "outputs": [],
      "stateMutability": "nonpayable",
      "type": "function"
    },
    {
      "inputs": [],
      "name": "trustedAggregator",
      "outputs": [
        {
          "internalType": "address",
          "name": "",
          "type": "address"
        }
      ],
      "stateMutability": "view",
      "type": "function"
    },
    {
      "inputs": [],
      "name": "trustedAggregatorTimeout",
      "outputs": [
        {
          "internalType": "uint64",
          "name": "",
          "type": "uint64"
        }
      ],
      "stateMutability": "view",
      "type": "function"
    },
    {
      "inputs": [],
      "name": "trustedSequencer",
      "outputs": [
        {
          "internalType": "address",
          "name": "",
          "type": "address"
        }
      ],
      "stateMutability": "view",
      "type": "function"
    },
    {
      "inputs": [],
      "name": "trustedSequencerURL",
      "outputs": [
        {
          "internalType": "string",
          "name": "",
          "type": "string"
        }
      ],
      "stateMutability": "view",
      "type": "function"
    },
    {
      "inputs": [
        {
          "internalType": "uint64",
          "name": "pendingStateNum",
          "type": "uint64"
        },
        {
          "internalType": "uint64",
          "name": "initNumBatch",
          "type": "uint64"
        },
        {
          "internalType": "uint64",
          "name": "finalNewBatch",
          "type": "uint64"
        },
        {
          "internalType": "bytes32",
          "name": "newLocalExitRoot",
          "type": "bytes32"
        },
        {
          "internalType": "bytes32",
          "name": "newStateRoot",
          "type": "bytes32"
        },
        {
          "internalType": "uint256[2]",
          "name": "proofA",
          "type": "uint256[2]"
        },
        {
          "internalType": "uint256[2][2]",
          "name": "proofB",
          "type": "uint256[2][2]"
        },
        {
          "internalType": "uint256[2]",
          "name": "proofC",
          "type": "uint256[2]"
        }
      ],
      "name": "trustedVerifyBatches",
      "outputs": [],
      "stateMutability": "nonpayable",
      "type": "function"
    },
    {
      "inputs": [
        {
          "internalType": "uint64",
          "name": "pendingStateNum",
          "type": "uint64"
        },
        {
          "internalType": "uint64",
          "name": "initNumBatch",
          "type": "uint64"
        },
        {
          "internalType": "uint64",
          "name": "finalNewBatch",
          "type": "uint64"
        },
        {
          "internalType": "bytes32",
          "name": "newLocalExitRoot",
          "type": "bytes32"
        },
        {
          "internalType": "bytes32",
          "name": "newStateRoot",
          "type": "bytes32"
        },
        {
          "internalType": "uint256[2]",
          "name": "proofA",
          "type": "uint256[2]"
        },
        {
          "internalType": "uint256[2][2]",
          "name": "proofB",
          "type": "uint256[2][2]"
        },
        {
          "internalType": "uint256[2]",
          "name": "proofC",
          "type": "uint256[2]"
        }
      ],
      "name": "trustedVerifyBatchesMock",
      "outputs": [],
      "stateMutability": "nonpayable",
      "type": "function"
    },
    {
      "inputs": [
        {
          "internalType": "uint64",
          "name": "pendingStateNum",
          "type": "uint64"
        },
        {
          "internalType": "uint64",
          "name": "initNumBatch",
          "type": "uint64"
        },
        {
          "internalType": "uint64",
          "name": "finalNewBatch",
          "type": "uint64"
        },
        {
          "internalType": "bytes32",
          "name": "newLocalExitRoot",
          "type": "bytes32"
        },
        {
          "internalType": "bytes32",
          "name": "newStateRoot",
          "type": "bytes32"
        },
        {
          "internalType": "uint256[2]",
          "name": "proofA",
          "type": "uint256[2]"
        },
        {
          "internalType": "uint256[2][2]",
          "name": "proofB",
          "type": "uint256[2][2]"
        },
        {
          "internalType": "uint256[2]",
          "name": "proofC",
          "type": "uint256[2]"
        }
      ],
      "name": "verifyBatches",
      "outputs": [],
      "stateMutability": "nonpayable",
      "type": "function"
    }
  ],
  "bytecode": "0x608060405234801561001057600080fd5b50615aa880620000216000396000f3fe608060405234801561001057600080fd5b50600436106103015760003560e01c80630eaa86ea14610306578063107bf28c1461032c57806310a01a7214610341578063137f1edf1461035657806315064c961461036c57806319d8ac6114610389578063220d78991461039c57806329878983146103af5780632d0889d3146103cf578063383b3be8146103d8578063394218e9146103eb5780633c158267146103fe578063423fa85614610411578063456052671461042b578063458c0477146104455780634834a343146104585780634a1a89a71461046b5780634a910e6a146104855780635392c5e014610498578063542028d5146104b85780635437988d146104c0578063574f649e146104d357806360943d6a146104e65780636b8616ce146104f95780636ff512cc14610519578063704b6c021461052c578063715018a61461053f5780637215541a1461054757806375c508b31461055a5780637fcb36531461056d578063837a473814610580578063841b24d7146105ee5780638b48931e146106085780638c4a0af7146106125780638da5cb5b1461062557806396dc3d391461062d57806399f5634e146106405780639b796760146106485780639c9f3dfe1461065b5780639f0d039d1461066e578063a3c573eb14610676578063ab9fc5ef14610689578063adc879e914610693578063b4d63f58146106ad578063b6b0b0971461070d578063c0cad30214610725578063c0ed84e014610738578063c89e42df14610740578063cfa8ed4714610753578063d02103ca1461076d578063d8d1091b14610780578063d8f54db014610793578063d939b315146107a7578063dbc16976146107c1578063e0d17441146107c9578063e11f3f18146107dc578063e217cfd6146107ef578063e7a7ed02146107f8578063e8bf92ed14610812578063eaeb077b14610825578063edc4112114610838578063f14916d61461084b578063f1d7b21c1461085e578063f2fde38b14610866578063f851a44014610879578063f8b823e41461088c578063fe16564f14610895575b600080fd5b6103196103143660046146a3565b6108a8565b6040519081526020015b60405180910390f35b610334610a77565b6040516103239190614750565b61035461034f366004614792565b610b05565b005b61035f61070881565b604051610323919061481f565b6065546103799060ff1681565b6040519015158152602001610323565b60685461035f906001600160401b031681565b6103346103aa366004614833565b610d3c565b606a546103c2906001600160a01b031681565b6040516103239190614880565b61031961ea6081565b6103796103e6366004614894565b610ed1565b6103546103f9366004614894565b610f18565b61035461040c3660046149d1565b611070565b60685461035f90600160401b90046001600160401b031681565b60685461035f90600160801b90046001600160401b031681565b60725461035f906001600160401b031681565b610354610466366004614792565b611835565b60725461035f90600160401b90046001600160401b031681565b610354610493366004614894565b611b1a565b6103196104a6366004614894565b606d6020526000908152604090205481565b610334611d99565b6103546104ce366004614afc565b611da6565b6103196104e1366004614b19565b611dd0565b6103546104f4366004614b8e565b611e13565b610319610507366004614894565b60666020526000908152604090205481565b610354610527366004614afc565b61214e565b61035461053a366004614afc565b6121cc565b610354612241565b610354610555366004614894565b612255565b610354610568366004614c65565b6124b9565b60695461035f906001600160401b031681565b6105c361058e366004614d03565b6071602052600090815260409020805460018201546002909201546001600160401b0380831693600160401b90930416919084565b604080516001600160401b039586168152949093166020850152918301526060820152608001610323565b60725461035f90600160c01b90046001600160401b031681565b61035f62093a8081565b610354610620366004614d2a565b612548565b6103c26125bf565b61035461063b366004614894565b6125ce565b6103196125f8565b610354610656366004614894565b6126de565b610354610669366004614894565b612712565b607454610319565b6070546103c2906001600160a01b031681565b61035f6206978081565b606c5461035f90600160a81b90046001600160401b031681565b6106e86106bb366004614894565b606760205260009081526040902080546001909101546001600160401b0380821691600160401b90041683565b604080519384526001600160401b039283166020850152911690820152606001610323565b6065546103c29061010090046001600160a01b031681565b610354610733366004614d47565b61284d565b61035f612865565b61035461074e366004614d47565b6128b2565b6069546103c290600160401b90046001600160a01b031681565b606c546103c2906001600160a01b031681565b61035461078e366004614d7b565b612918565b606c5461037990600160a01b900460ff1681565b60725461035f90600160801b90046001600160401b031681565b610354612d9c565b6103546107d7366004614e6d565b612e58565b6103546107ea366004614c65565b612eca565b61035f6103e881565b60685461035f90600160c01b90046001600160401b031681565b606b546103c2906001600160a01b031681565b610354610833366004614eba565b61300e565b610354610846366004614792565b61331a565b610354610859366004614afc565b613427565b610319600b81565b610354610874366004614afc565b61349c565b6073546103c2906001600160a01b031681565b61031960745481565b6103546108a3366004614efe565b613512565b60008060006108b5612865565b90506001600160401b03881615610952576072546001600160401b0390811690891611156108fe5760405162461bcd60e51b81526004016108f590614f2a565b60405180910390fd5b6001600160401b038089166000908152607160205260409020600281015481549094509091898116600160401b909204161461094c5760405162461bcd60e51b81526004016108f590614f9b565b506109bc565b6001600160401b0387166000908152606d602052604090205491508161098a5760405162461bcd60e51b81526004016108f590615000565b806001600160401b0316876001600160401b031611156109bc5760405162461bcd60e51b81526004016108f59061505c565b806001600160401b0316866001600160401b0316116109ed5760405162461bcd60e51b81526004016108f5906150d8565b60006109fc8888888689610d3c565b905060006000805160206159f3833981519152600283604051610a1f9190615148565b602060405180830381855afa158015610a3c573d6000803e3d6000fd5b5050506040513d601f19601f82011682018060405250810190610a5f9190615164565b610a699190615193565b9a9950505050505050505050565b606f8054610a84906151a7565b80601f0160208091040260200160405190810160405280929190818152602001828054610ab0906151a7565b8015610afd5780601f10610ad257610100808354040283529160200191610afd565b820191906000526020600020905b815481529060010190602001808311610ae057829003601f168201915b505050505081565b610b0d613534565b600080610b18612865565b90506001600160401b038a1615610bac576072546001600160401b03908116908b161115610b585760405162461bcd60e51b81526004016108f590614f2a565b6001600160401b03808b1660009081526071602052604090206002810154815490945090918b8116600160401b9092041614610ba65760405162461bcd60e51b81526004016108f590614f9b565b50610c16565b6001600160401b0389166000908152606d6020526040902054915081610be45760405162461bcd60e51b81526004016108f590615000565b806001600160401b0316896001600160401b03161115610c165760405162461bcd60e51b81526004016108f59061505c565b806001600160401b0316886001600160401b031611610c475760405162461bcd60e51b81526004016108f5906150d8565b6000610c568a8a8a868b610d3c565b606980546001600160401b0319166001600160401b038c81169182179092556000908152606d602052604090208990556072549192501615610ca357607280546001600160801b03191690555b606c546040516333d6247d60e01b8152600481018a90526001600160a01b03909116906333d6247d90602401600060405180830381600087803b158015610ce957600080fd5b505af1158015610cfd573d6000803e3d6000fd5b50506040518981523392506001600160401b038c1691506000805160206159538339815191529060200160405180910390a35050505050505050505050565b6001600160401b03808616600081815260676020526040808220549388168252902054606092911580610d6e57508115155b610ddc5760405162461bcd60e51b8152602060048201526045602482015260008051602061597383398151915260448201527f42797465733a206f6c64416363496e7075744861736820646f6573206e6f7420606482015264195e1a5cdd60da1b608482015260a4016108f5565b80610e4b5760405162461bcd60e51b8152602060048201526045602482015260008051602061597383398151915260448201527f42797465733a206e6577416363496e7075744861736820646f6573206e6f7420606482015264195e1a5cdd60da1b608482015260a4016108f5565b606c54604080516001600160601b03193360601b166020820152603481019790975260548701939093526001600160c01b031960c0998a1b81166074880152600160a81b909104891b8116607c870152608486019490945260a485015260c4840194909452509290931b90911660e4830152805180830360cc01815260ec909201905290565b6072546001600160401b0382811660009081526071602052604081205490924292610f0792600160801b909204811691166151f7565b6001600160401b0316111592915050565b6073546001600160a01b03163314610f425760405162461bcd60e51b81526004016108f590615222565b62093a806001600160401b0382161115610f6e5760405162461bcd60e51b81526004016108f59061526a565b60655460ff16611015576072546001600160401b03600160c01b9091048116908216106110155760405162461bcd60e51b815260206004820152604960248201527f50726f6f664f66456666696369656e63793a3a7365745472757374656441676760448201527f72656761746f7254696d656f75743a206e65772074696d656f7574206d757374606482015268103132903637bbb2b960b91b608482015260a4016108f5565b607280546001600160c01b0316600160c01b6001600160401b038416021790556040517f1f4fa24c2e4bad19a7f3ec5c5485f70d46c798461c2e684f55bbd0fc661373a19061106590839061481f565b60405180910390a150565b60655460ff16156110935760405162461bcd60e51b81526004016108f5906152c8565b606954600160401b90046001600160a01b0316331461111a5760405162461bcd60e51b815260206004820152603f60248201527f50726f6f664f66456666696369656e63793a3a6f6e6c7954727573746564536560448201527f7175656e6365723a206f6e6c7920747275737465642073657175656e6365720060648201526084016108f5565b8051806111885760405162461bcd60e51b8152602060048201526042602482015260008051602061591383398151915260448201527f65733a204174206c65617374206d7573742073657175656e63652031206261746064820152610c6d60f31b608482015260a4016108f5565b6103e881106111fb5760405162461bcd60e51b8152602060048201526045602482015260008051602061591383398151915260448201527f65733a2043616e6e6f742073657175656e63652074686174206d616e79206261606482015264746368657360d81b608482015260a4016108f5565b6068546001600160401b03600160401b82048116600081815260676020526040812054838516949293600160801b90930490921691905b8581101561166957600087828151811061124e5761124e615330565b60200260200101519050600081606001516001600160401b031611156113ee578361127881615346565b9450506000816000015180519060200120826020015183606001516040516020016112a593929190615374565b60408051601f1981840301815291815281516020928301206001600160401b0388166000908152606690935291205490915081146113445760405162461bcd60e51b8152602060048201526042602482015260008051602061591383398151915260448201527f65733a20466f7263656420626174636865732064617461206d757374206d61746064820152610c6d60f31b608482015260a4016108f5565b81606001516001600160401b031682604001516001600160401b031610156113e85760405162461bcd60e51b815260206004820152605d602482015260008051602061591383398151915260448201527f65733a20466f7263656420626174636865732074696d657374616d70206d757360648201527f7420626520626967676572206f7220657175616c207468616e206d696e000000608482015260a4016108f5565b50611563565b602081015115806114775750606c5460208201516040516312bd9b1960e11b81526001600160a01b039092169163257b3632916114319160040190815260200190565b6020604051808303816000875af1158015611450573d6000803e3d6000fd5b505050506040513d601f19601f820116820180604052508101906114749190615164565b15155b6114d75760405162461bcd60e51b815260206004820152603f602482015260008051602061591383398151915260448201527f65733a20476c6f62616c206578697420726f6f74206d7573742065786973740060648201526084016108f5565b80515161ea60116115635760405162461bcd60e51b815260206004820152604a60248201527f50726f6f664f664566666963696550656e64696e67537461746563793a3a736560448201527f7175656e6365426174636865733a205472616e73616374696f6e73206279746560648201526973206f766572666c6f7760b01b608482015260a4016108f5565b856001600160401b031681604001516001600160401b03161015801561159657504281604001516001600160401b031611155b6116015760405162461bcd60e51b8152602060048201526042602482015260008051602061591383398151915260448201527f65733a2054696d657374616d70206d75737420626520696e736964652072616e606482015261676560f01b608482015260a4016108f5565b80518051602091820120818301516040808501519051611628948894939291339101615397565b604051602081830303815290604052805190602001209250848061164b90615346565b95505080604001519550508080611661906153d6565b915050611232565b506068546001600160401b03600160c01b909104811690831611156116e15760405162461bcd60e51b815260206004820152603a602482015260008051602061591383398151915260448201527965733a20466f7263652062617463686573206f766572666c6f7760301b60648201526084016108f5565b60685460009061170190600160801b90046001600160401b0316846153ef565b611714906001600160401b031687615417565b60408051606081018252848152426001600160401b03908116602080840191825260688054600160401b9081900485168688019081528c861660008181526067909552979093209551865592516001909501805492519585166001600160801b03199384161795851684029590951790945583548b8416911617930292909217600160801b600160c01b031916600160801b928716929092029190911790556074549091506117e6903390309084906117cd919061542e565b60655461010090046001600160a01b0316929190613593565b6117ee6135fe565b606854604051600160401b9091046001600160401b0316907f303446e6a8cb73c83dff421c0b1d5e5ce0719dab1bff13660fc254e58cc17fce90600090a250505050505050565b60655460ff16156118585760405162461bcd60e51b81526004016108f5906152c8565b6072546001600160401b03878116600090815260676020526040902060010154429261188f92600160c01b909104811691166151f7565b6001600160401b0316111561190b5760405162461bcd60e51b81526020600482015260486024820152600080516020615a3383398151915260448201527f3a20747275737465642061676772656761746f722074696d656f7574206e6f7460648201526708195e1c1a5c995960c21b608482015260a4016108f5565b6103e861191888886153ef565b6001600160401b03161061193e5760405162461bcd60e51b81526004016108f59061544d565b61194e888888888888888861369e565b6119578661397a565b607254600160801b90046001600160401b0316600003611a1e57606980546001600160401b0319166001600160401b038881169182179092556000908152606d6020526040902085905560725416156119bb57607280546001600160801b03191690555b606c546040516333d6247d60e01b8152600481018790526001600160a01b03909116906333d6247d90602401600060405180830381600087803b158015611a0157600080fd5b505af1158015611a15573d6000803e3d6000fd5b50505050611acf565b611a266135fe565b607280546001600160401b0316906000611a3f83615346565b82546001600160401b039182166101009390930a92830292820219169190911790915560408051608081018252428316815289831660208083019182528284018b8152606084018b8152607254871660009081526071909352949091209251835492518616600160401b026001600160801b03199093169516949094171781559151600183015551600290910155505b60405184815233906001600160401b038816907f9c72852172521097ba7e1482e6b44b351323df0155f97f4ea18fcec28e1f5966906020015b60405180910390a35050505050505050565b6001600160401b03811615801590611b4757506072546001600160401b03600160401b9091048116908216115b8015611b6257506072546001600160401b0390811690821611155b611bd35760405162461bcd60e51b8152602060048201526048602482015260008051602061599383398151915260448201527f6e64696e6753746174653a2070656e64696e6753746174654e756d206d757374606482015267081a5b9d985b1a5960c21b608482015260a4016108f5565b606a546001600160a01b03163314611c7057611bee81610ed1565b611c705760405162461bcd60e51b8152602060048201526059602482015260008051602061599383398151915260448201527f6e64696e6753746174653a2070656e64696e67207374617465206973206e6f74606482015278081c9958591e481d1bc818994818dbdb9cdbdb1a59185d1959603a1b608482015260a4016108f5565b6001600160401b038181166000818152607160209081526040808320805460698054600160401b928390049098166001600160401b0319909816881790556002820154878652606d909452938290209290925560728054600160401b600160801b0319169390940292909217909255606c54600183015491516333d6247d60e01b815260048101929092529192916001600160a01b0316906333d6247d90602401600060405180830381600087803b158015611d2b57600080fd5b505af1158015611d3f573d6000803e3d6000fd5b50505050826001600160401b0316816001600160401b03167f328d3c6c0fd6f1be0515e422f2d87e59f25922cbc2233568515a0c4bc3f8510e8460020154604051611d8c91815260200190565b60405180910390a3505050565b606e8054610a84906151a7565b611dae613534565b606b80546001600160a01b0319166001600160a01b0392909216919091179055565b6000858580519060200120858585604051602001611df2959493929190615397565b60405160208183030381529060405280519060200120905095945050505050565b600054610100900460ff1615808015611e335750600054600160ff909116105b80611e545750611e4230613b9a565b158015611e54575060005460ff166001145b611eb75760405162461bcd60e51b815260206004820152602e60248201527f496e697469616c697a61626c653a20636f6e747261637420697320616c72656160448201526d191e481a5b9a5d1a585b1a5e995960921b60648201526084016108f5565b6000805460ff191660011790558015611eda576000805461ff0019166101001790555b606c80546001600160a01b03199081166001600160a01b038c81169190911790925560658054610100600160a81b0319166101008c851602179055606b805482168a841617905560708054909116918816919091179055611f3e6020860186614afc565b607380546001600160a01b0319166001600160a01b0392909216919091179055611f6e6060860160408701614afc565b606980546001600160a01b0392909216600160401b02600160401b600160e01b0319909216919091179055611fa960c0860160a08701614afc565b606a80546001600160a01b0319166001600160a01b039290921691909117905560008052606d6020527fda90043ba5b4096ba14704bc227ab0d3167da15b887e62ab2e76e37daa71135684905561200660e0860160c08701614894565b607280546001600160401b0392909216600160c01b026001600160c01b0390921691909117905561203d6040860160208701614894565b606c80546001600160401b0392909216600160a81b02600160a81b600160e81b03199092169190911790556120786080860160608701614894565b607280546001600160401b0392909216600160801b02600160801b600160c01b03199092169190911790556120b360a0860160808701614d2a565b606c8054911515600160a01b0260ff60a01b19909216919091179055606e6120db84826154e8565b50606f6120e883826154e8565b50670de0b6b3a76400006074556120fd613ba9565b8015612143576000805461ff0019169055604051600181527f7f26b83ff96e1f2b6a682f133852f6798a09c465da95921460cefb38474024989060200160405180910390a15b505050505050505050565b6073546001600160a01b031633146121785760405162461bcd60e51b81526004016108f590615222565b60698054600160401b600160e01b031916600160401b6001600160a01b038416021790556040517ff54144f9611984021529f814a1cb6a41e22c58351510a0d9f7e822618abb9cc090611065908390614880565b6073546001600160a01b031633146121f65760405162461bcd60e51b81526004016108f590615222565b607380546001600160a01b0319166001600160a01b0383161790556040517f5a272403b402d892977df56625f4164ccaf70ca3863991c43ecfe76a6905b0a190611065908390614880565b612249613534565b6122536000613c19565b565b61225d6125bf565b6001600160a01b0316336001600160a01b0316146124ae576072546000906001600160401b0316156122b457506072546001600160401b03908116600090815260716020526040902054600160401b9004166122c2565b506069546001600160401b03165b80826001600160401b0316116123385760405162461bcd60e51b815260206004820152604160248201526000805160206158f383398151915260448201527f656e637953746174653a20426174636820616c726561647920766572696669656064820152601960fa1b608482015260a4016108f5565b6068546001600160401b03600160401b90910481169083161180159061237a57506001600160401b038083166000908152606760205260409020600101541615155b6123f85760405162461bcd60e51b815260206004820152605560248201526000805160206158f383398151915260448201527f656e637953746174653a204261746368206e6f742073657175656e636564206f60648201527472206e6f7420656e64206f662073657175656e636560581b608482015260a4016108f5565b6001600160401b0380831660009081526067602052604090206001015442916124269162093a8091166151f7565b6001600160401b031611156124ac5760405162461bcd60e51b815260206004820152605260248201526000805160206158f383398151915260448201527f656e637953746174653a204167677265676174696f6e2068616c742074696d656064820152711bdd5d081a5cc81b9bdd08195e1c1a5c995960721b608482015260a4016108f5565b505b6124b6613c6b565b50565b60655460ff16156124dc5760405162461bcd60e51b81526004016108f5906152c8565b6124ed898989898989898989613cdb565b6001600160401b0386166000908152606d60209081526040918290205482519081529081018690527f1f44c21118c4603cfb4e1b621dbcfa2b73efcececee2b99b620b2953d33a7010910160405180910390a1612143613c6b565b6073546001600160a01b031633146125725760405162461bcd60e51b81526004016108f590615222565b606c8054821515600160a01b0260ff60a01b199091161790556040517fbacda50a4a8575be1d91a7ebe29ee45056f3a94f12a2281eb6b43afa33bcefe69061106590831515815260200190565b6033546001600160a01b031690565b6125d6613534565b606980546001600160401b0319166001600160401b0392909216919091179055565b6065546040516370a0823160e01b815260009182916101009091046001600160a01b0316906370a0823190612631903090600401614880565b602060405180830381865afa15801561264e573d6000803e3d6000fd5b505050506040513d601f19601f820116820180604052508101906126729190615164565b9050600061267e612865565b6068546001600160401b03600160401b82048116916126ae91600160801b8204811691600160c01b9004166153ef565b6126b891906151f7565b6126c291906153ef565b6001600160401b031690506126d781836155a7565b9250505090565b6126e6613534565b606880546001600160401b03909216600160401b02600160401b600160801b0319909216919091179055565b6073546001600160a01b0316331461273c5760405162461bcd60e51b81526004016108f590615222565b62093a806001600160401b03821611156127685760405162461bcd60e51b81526004016108f59061526a565b60655460ff166127f9576072546001600160401b03600160801b9091048116908216106127f95760405162461bcd60e51b8152602060048201526044602482018190526000805160206159d3833981519152908201527f746554696d656f75743a206e65772074696d656f7574206d757374206265206c60648201526337bbb2b960e11b608482015260a4016108f5565b60728054600160801b600160c01b031916600160801b6001600160401b038416021790556040517fc4121f4e22c69632ebb7cf1f462be0511dc034f999b52013eddfb24aab765c759061106590839061481f565b612855613534565b606f61286182826154e8565b5050565b6072546000906001600160401b0316156128a257506072546001600160401b03908116600090815260716020526040902054600160401b90041690565b506069546001600160401b031690565b6073546001600160a01b031633146128dc5760405162461bcd60e51b81526004016108f590615222565b606e6128e882826154e8565b507f6b8f723a4c7a5335cafae8a598a0aa0301be1387c037dccc085b62add6448b20816040516110659190614750565b60655460ff161561293b5760405162461bcd60e51b81526004016108f5906152c8565b606c54600160a01b900460ff1615156001146129695760405162461bcd60e51b81526004016108f5906155bb565b8051806129d75760405162461bcd60e51b81526020600482015260426024820152600080516020615a1383398151915260448201527f42617463683a204d75737420666f726365206174206c656173742031206261746064820152610c6d60f31b608482015260a4016108f5565b6103e881106129f85760405162461bcd60e51b81526004016108f59061544d565b6068546001600160401b03600160c01b8204811691612a20918491600160801b900416615629565b1115612a7f5760405162461bcd60e51b815260206004820152603a6024820152600080516020615a1383398151915260448201527910985d18da0e88119bdc98d94818985d18da081a5b9d985b1a5960321b60648201526084016108f5565b6068546001600160401b03600160401b820481166000818152606760205260408120549193600160801b9004909216915b84811015612cb5576000868281518110612acc57612acc615330565b602002602001015190508380612ae190615346565b945050600081600001518051906020012082602001518360400151604051602001612b0e93929190615374565b60408051601f1981840301815291815281516020928301206001600160401b038816600090815260669093529120549091508114612bb25760405162461bcd60e51b81526020600482015260476024820152600080516020615a1383398151915260448201527f426174636865733a20466f7263656420626174636865732064617461206d75736064820152660e840dac2e8c6d60cb1b608482015260a4016108f5565b612bbd600188615417565b8303612c575742620697808360400151612bd791906151f7565b6001600160401b03161115612c575760405162461bcd60e51b815260206004820152604c6024820152600080516020615a1383398151915260448201527f42617463683a20466f72636564206261746368206973206e6f7420696e20746960648201526b1b595bdd5d081c195c9a5bd960a21b608482015260a4016108f5565b8151805160209182012081840151604051612c7a93889392914291339101615397565b6040516020818303038152906040528051906020012093508580612c9d90615346565b96505050508080612cad906153d6565b915050612ab0565b50606880546001600160401b031916426001600160401b03908116918217808455604080516060810182528681526020808201958652600160401b9384900485168284019081528a861660008181526067909352848320935184559651600193909301805491519387166001600160801b0319909216919091179286168502929092179091558554600160401b600160c01b031916948302600160801b600160c01b03191694909417600160801b88851602179485905551930416917f648a61dd2438f072f5a1960939abd30f37aea80d2e94c9792ad142d3e0a490a49190a25050505050565b60655460ff16612dbe5760405162461bcd60e51b81526004016108f590615641565b6073546001600160a01b03163314612de85760405162461bcd60e51b81526004016108f590615222565b607060009054906101000a90046001600160a01b03166001600160a01b031663dbc169766040518163ffffffff1660e01b8152600401600060405180830381600087803b158015612e3857600080fd5b505af1158015612e4c573d6000803e3d6000fd5b50505050612253614340565b612e60613534565b604080516060810182529384526001600160401b03928316602080860191825292841685830190815295841660009081526067909352912092518355516001909201805493518216600160401b026001600160801b03199094169290911691909117919091179055565b606a546001600160a01b03163314612ef45760405162461bcd60e51b81526004016108f59061569c565b612f05898989898989898989613cdb565b606980546001600160401b0319166001600160401b038881169182179092556000908152606d602052604090208590556072541615612f4f57607280546001600160801b03191690555b606c546040516333d6247d60e01b8152600481018790526001600160a01b03909116906333d6247d90602401600060405180830381600087803b158015612f9557600080fd5b505af1158015612fa9573d6000803e3d6000fd5b5050607280546001600160c01b031661127560c71b179055505060405184815233906001600160401b038816907fcc1b5520188bf1dd3e63f98164b577c4d75c11a619ddea692112f0d1aec4cf729060200160405180910390a3505050505050505050565b60655460ff16156130315760405162461bcd60e51b81526004016108f5906152c8565b606c54600160a01b900460ff16151560011461305f5760405162461bcd60e51b81526004016108f5906155bb565b600061306a60745490565b9050818111156130d45760405162461bcd60e51b815260206004820152602f60248201527f50726f6f664f66456666696369656e63793a3a666f72636542617463683a206e60448201526e6f7420656e6f756768206d6174696360881b60648201526084016108f5565b61ea608351106131495760405162461bcd60e51b815260206004820152603a60248201527f50726f6f664f66456666696369656e63793a3a666f72636542617463683a205460448201527972616e73616374696f6e73206279746573206f766572666c6f7760301b60648201526084016108f5565b6065546131669061010090046001600160a01b0316333084613593565b606c5460408051633ed691ef60e01b815290516000926001600160a01b031691633ed691ef9160048083019260209291908290030181865afa1580156131b0573d6000803e3d6000fd5b505050506040513d601f19601f820116820180604052508101906131d49190615164565b60688054919250600160c01b9091046001600160401b03169060186131f883615346565b91906101000a8154816001600160401b0302191690836001600160401b03160217905550508380519060200120814260405160200161323993929190615374565b60408051808303601f190181529181528151602092830120606854600160c01b90046001600160401b0316600090815260669093529120553233036132cb57606854604080518381523360208201526060918101829052600091810191909152600160c01b9091046001600160401b031690600080516020615a538339815191529060800160405180910390a2613314565b606860189054906101000a90046001600160401b03166001600160401b0316600080516020615a5383398151915282338760405161330b93929190615703565b60405180910390a25b50505050565b606a546001600160a01b031633146133445760405162461bcd60e51b81526004016108f59061569c565b613354888888888888888861369e565b606980546001600160401b0319166001600160401b038881169182179092556000908152606d60205260409020859055607254161561339e57607280546001600160801b03191690555b606c546040516333d6247d60e01b8152600481018790526001600160a01b03909116906333d6247d90602401600060405180830381600087803b1580156133e457600080fd5b505af11580156133f8573d6000803e3d6000fd5b50506040518681523392506001600160401b038916915060008051602061595383398151915290602001611b08565b6073546001600160a01b031633146134515760405162461bcd60e51b81526004016108f590615222565b606a80546001600160a01b0319166001600160a01b0383161790556040517f61f8fec29495a3078e9271456f05fb0707fd4e41f7661865f80fc437d06681ca90611065908390614880565b6134a4613534565b6001600160a01b0381166135095760405162461bcd60e51b815260206004820152602660248201527f4f776e61626c653a206e6577206f776e657220697320746865207a65726f206160448201526564647265737360d01b60648201526084016108f5565b6124b681613c19565b61351a613534565b6001600160401b03166000908152606d6020526040902055565b3361353d6125bf565b6001600160a01b0316146122535760405162461bcd60e51b815260206004820181905260248201527f4f776e61626c653a2063616c6c6572206973206e6f7420746865206f776e657260448201526064016108f5565b6040516001600160a01b03808516602483015283166044820152606481018290526133149085906323b872dd60e01b906084015b60408051601f198184030181529190526020810180516001600160e01b03166001600160e01b031990931692909217909152614397565b6072546001600160401b03600160401b82048116911611156122535760725460009061363b90600160401b90046001600160401b031660016151f7565b905061364681610ed1565b156124b6576072546000906002906136689084906001600160401b03166153ef565b6136729190615736565b61367c90836151f7565b905061368781610ed1565b156136955761286181611b1a565b61286182611b1a565b6000806136a9612865565b90506001600160401b038a161561373d576072546001600160401b03908116908b1611156136e95760405162461bcd60e51b81526004016108f590614f2a565b6001600160401b03808b1660009081526071602052604090206002810154815490945090918b8116600160401b90920416146137375760405162461bcd60e51b81526004016108f590614f9b565b506137a7565b6001600160401b0389166000908152606d60205260409020549150816137755760405162461bcd60e51b81526004016108f590615000565b806001600160401b0316896001600160401b031611156137a75760405162461bcd60e51b81526004016108f59061505c565b806001600160401b0316886001600160401b0316116137d85760405162461bcd60e51b81526004016108f5906150d8565b60006137e78a8a8a868b610d3c565b905060006000805160206159f383398151915260028360405161380a9190615148565b602060405180830381855afa158015613827573d6000803e3d6000fd5b5050506040513d601f19601f8201168201806040525081019061384a9190615164565b6138549190615193565b606b546040805160208101825283815290516343753b4d60e01b81529293506001600160a01b03909116916343753b4d91613898918b918b918b919060040161575c565b602060405180830381865afa1580156138b5573d6000803e3d6000fd5b505050506040513d601f19601f820116820180604052508101906138d991906157d6565b61392b5760405162461bcd60e51b815260206004820152602f6024820152600080516020615a3383398151915260448201526e1d1024a72b20a624a22fa82927a7a360891b60648201526084016108f5565b61396c33613939858d6153ef565b6001600160401b031661394a6125f8565b613954919061542e565b60655461010090046001600160a01b0316919061446e565b505050505050505050505050565b6000613984612865565b90508160008061399484846153ef565b6001600160401b031690505b836001600160401b0316836001600160401b031614613a3e576001600160401b03808516600090815260676020526040902060018101549091610708916139e8911642615417565b1115613a23576001810154613a0d90600160401b90046001600160401b0316866153ef565b613a20906001600160401b031684615629565b92505b60010154600160401b90046001600160401b031692506139a0565b6000613a4a8383615417565b905082811015613ae7576000613a608285615417565b6074549091505b6020821115613ab2576904ee2d6d415b85acef8160201b613a8a6020600b6158d7565b613a94908361542e565b613a9e91906155a7565b9050613aab602083615417565b9150613a67565b613abd82600a6158e6565b613ac883600b6158e6565b613ad2908361542e565b613adc91906155a7565b60745550613b929050565b6000613af38483615417565b6074549091505b6020821115613b45576904ee2d6d415b85acef8160201b613b1d6020600b6158d7565b613b27908361542e565b613b3191906155a7565b9050613b3e602083615417565b9150613afa565b613b5082600a6158e6565b613b5b83600b6158e6565b613b65908361542e565b613b6f91906155a7565b905080607454607454613b82919061542e565b613b8c91906155a7565b60745550505b505050505050565b6001600160a01b03163b151590565b600054610100900460ff16613c145760405162461bcd60e51b815260206004820152602b60248201527f496e697469616c697a61626c653a20636f6e7472616374206973206e6f74206960448201526a6e697469616c697a696e6760a81b60648201526084016108f5565b612253335b603380546001600160a01b038381166001600160a01b0319831681179093556040519116919082907f8be0079c531659141344cd1fd0a4f28419497f9722a3daafe3b4186f6b6457e090600090a35050565b607060009054906101000a90046001600160a01b03166001600160a01b0316632072f6c56040518163ffffffff1660e01b8152600401600060405180830381600087803b158015613cbb57600080fd5b505af1158015613ccf573d6000803e3d6000fd5b5050505061225361449e565b60006001600160401b038a1615613e57576072546001600160401b03908116908b161115613d9f5760405162461bcd60e51b8152602060048201526071602482015260008051602061593383398151915260448201527f6d696e697374696350656e64696e6753746174653a2070656e64696e6753746160648201527f74654e756d206d757374206265206c657373206f7220657175616c207468616e608482015270206c61737450656e64696e67537461746560781b60a482015260c4016108f5565b506001600160401b03808a1660009081526071602052604090206002810154815490928a8116600160401b9092041614613e515760405162461bcd60e51b8152602060048201526065602482015260008051602061593383398151915260448201526000805160206159b383398151915260648201527f6368206d757374206d61746368207468652070656e64696e67207374617465206084820152640c4c2e8c6d60db1b60a482015260c4016108f5565b50613f8b565b506001600160401b0387166000908152606d602052604090205480613ee55760405162461bcd60e51b815260206004820152605c602482015260008051602061593383398151915260448201526000805160206159b383398151915260648201527b18da081cdd185d19481c9bdbdd08191bd95cc81b9bdd08195e1a5cdd60221b608482015260a4016108f5565b6069546001600160401b039081169089161115613f8b5760405162461bcd60e51b8152602060048201526076602482015260008051602061593383398151915260448201526000805160206159b383398151915260648201527f6368206d757374206265206c657373206f7220657175616c207468616e2063756084820152750e4e4cadce898c2e6e8accae4d2ccd2cac884c2e8c6d60531b60a482015260c4016108f5565b6072546001600160401b03908116908a1611801590613fbb5750896001600160401b0316896001600160401b0316115b8015613fdc57506072546001600160401b03600160401b9091048116908a16115b6140595760405162461bcd60e51b8152602060048201526054602482015260008051602061593383398151915260448201527f6d696e697374696350656e64696e6753746174653a2066696e616c50656e64696064820152731b99d4dd185d19539d5b481a5b98dbdc9c9958dd60621b608482015260a4016108f5565b6001600160401b03898116600090815260716020526040902054600160401b900481169088161461411e5760405162461bcd60e51b815260206004820152606f602482015260008051602061593383398151915260448201527f6d696e697374696350656e64696e6753746174653a2066696e616c4e6577426160648201527f746368206d75737420626520657175616c207468616e2063757272656e744c6160848201526e0e6e8accae4d2ccd2cac884c2e8c6d608b1b60a482015260c4016108f5565b600061412d898989858a610d3c565b905060006000805160206159f38339815191526002836040516141509190615148565b602060405180830381855afa15801561416d573d6000803e3d6000fd5b5050506040513d601f19601f820116820180604052508101906141909190615164565b61419a9190615193565b606b546040805160208101825283815290516343753b4d60e01b81529293506001600160a01b03909116916343753b4d916141de918a918a918a919060040161575c565b602060405180830381865afa1580156141fb573d6000803e3d6000fd5b505050506040513d601f19601f8201168201806040525081019061421f91906157d6565b61428b5760405162461bcd60e51b8152602060048201526043602482015260008051602061593383398151915260448201527f6d696e697374696350656e64696e6753746174653a20494e56414c49445f505260648201526227a7a360e91b608482015260a4016108f5565b6001600160401b038b1660009081526071602052604090206002015487900361396c5760405162461bcd60e51b8152602060048201526067602482015260008051602061593383398151915260448201527f6d696e697374696350656e64696e6753746174653a2073746f72656420726f6f60648201527f74206d75737420626520646966666572656e74207468616e206e6577207374616084820152661d19481c9bdbdd60ca1b60a482015260c4016108f5565b60655460ff166143625760405162461bcd60e51b81526004016108f590615641565b6065805460ff191690556040517f1e5e34eea33501aecf2ebec9fe0e884a40804275ea7fe10b2ba084c8374308b390600090a1565b60006143ec826040518060400160405280602081526020017f5361666545524332303a206c6f772d6c6576656c2063616c6c206661696c6564815250856001600160a01b03166144f99092919063ffffffff16565b805190915015614469578080602001905181019061440a91906157d6565b6144695760405162461bcd60e51b815260206004820152602a60248201527f5361666545524332303a204552433230206f7065726174696f6e20646964206e6044820152691bdd081cdd58d8d9595960b21b60648201526084016108f5565b505050565b6040516001600160a01b03831660248201526044810182905261446990849063a9059cbb60e01b906064016135c7565b60655460ff16156144c15760405162461bcd60e51b81526004016108f5906152c8565b6065805460ff191660011790556040517f2261efe5aef6fedc1fd1550b25facc9181745623049c7901287030b9ad1a549790600090a1565b60606145088484600085614510565b949350505050565b6060824710156145715760405162461bcd60e51b815260206004820152602660248201527f416464726573733a20696e73756666696369656e742062616c616e636520666f6044820152651c8818d85b1b60d21b60648201526084016108f5565b600080866001600160a01b0316858760405161458d9190615148565b60006040518083038185875af1925050503d80600081146145ca576040519150601f19603f3d011682016040523d82523d6000602084013e6145cf565b606091505b50915091506145e0878383876145eb565b979650505050505050565b606083156146585782516000036146515761460585613b9a565b6146515760405162461bcd60e51b815260206004820152601d60248201527f416464726573733a2063616c6c20746f206e6f6e2d636f6e747261637400000060448201526064016108f5565b5081614508565b614508838381511561466d5781518083602001fd5b8060405162461bcd60e51b81526004016108f59190614750565b80356001600160401b038116811461469e57600080fd5b919050565b600080600080600060a086880312156146bb57600080fd5b6146c486614687565b94506146d260208701614687565b93506146e060408701614687565b94979396509394606081013594506080013592915050565b60005b838110156147135781810151838201526020016146fb565b838111156133145750506000910152565b6000815180845261473c8160208601602086016146f8565b601f01601f19169290920160200192915050565b6020815260006147636020830184614724565b9392505050565b806040810183101561477b57600080fd5b92915050565b806080810183101561477b57600080fd5b6000806000806000806000806101a0898b0312156147af57600080fd5b6147b889614687565b97506147c660208a01614687565b96506147d460408a01614687565b955060608901359450608089013593506147f18a60a08b0161476a565b92506148008a60e08b01614781565b91506148108a6101608b0161476a565b90509295985092959890939650565b6001600160401b0391909116815260200190565b600080600080600060a0868803121561484b57600080fd5b61485486614687565b945061486260208701614687565b94979496505050506040830135926060810135926080909101359150565b6001600160a01b0391909116815260200190565b6000602082840312156148a657600080fd5b61476382614687565b634e487b7160e01b600052604160045260246000fd5b604051608081016001600160401b03811182821017156148e7576148e76148af565b60405290565b604051606081016001600160401b03811182821017156148e7576148e76148af565b604051601f8201601f191681016001600160401b0381118282101715614937576149376148af565b604052919050565b60006001600160401b03821115614958576149586148af565b5060051b60200190565b600082601f83011261497357600080fd5b81356001600160401b0381111561498c5761498c6148af565b61499f601f8201601f191660200161490f565b8181528460208386010111156149b457600080fd5b816020850160208301376000918101602001919091529392505050565b600060208083850312156149e457600080fd5b82356001600160401b03808211156149fb57600080fd5b818501915085601f830112614a0f57600080fd5b8135614a22614a1d8261493f565b61490f565b81815260059190911b83018401908481019088831115614a4157600080fd5b8585015b83811015614ada57803585811115614a5d5760008081fd5b86016080818c03601f1901811315614a755760008081fd5b614a7d6148c5565b8983013588811115614a8f5760008081fd5b614a9d8e8c83870101614962565b8252506040808401358b8301526060614ab7818601614687565b82840152614ac6848601614687565b908301525085525050918601918601614a45565b5098975050505050505050565b6001600160a01b03811681146124b657600080fd5b600060208284031215614b0e57600080fd5b813561476381614ae7565b600080600080600060a08688031215614b3157600080fd5b8535945060208601356001600160401b03811115614b4e57600080fd5b614b5a88828901614962565b94505060408601359250614b7060608701614687565b91506080860135614b8081614ae7565b809150509295509295909350565b600080600080600080600080888a036101c0811215614bac57600080fd5b8935614bb781614ae7565b985060208a0135614bc781614ae7565b975060408a0135614bd781614ae7565b965060608a0135614be781614ae7565b955060e0607f1982011215614bfb57600080fd5b5060808901935061016089013592506101808901356001600160401b0380821115614c2557600080fd5b614c318c838d01614962565b93506101a08b0135915080821115614c4857600080fd5b50614c558b828c01614962565b9150509295985092959890939650565b60008060008060008060008060006101c08a8c031215614c8457600080fd5b614c8d8a614687565b9850614c9b60208b01614687565b9750614ca960408b01614687565b9650614cb760608b01614687565b955060808a0135945060a08a01359350614cd48b60c08c0161476a565b9250614ce48b6101008c01614781565b9150614cf48b6101808c0161476a565b90509295985092959850929598565b600060208284031215614d1557600080fd5b5035919050565b80151581146124b657600080fd5b600060208284031215614d3c57600080fd5b813561476381614d1c565b600060208284031215614d5957600080fd5b81356001600160401b03811115614d6f57600080fd5b61450884828501614962565b60006020808385031215614d8e57600080fd5b82356001600160401b0380821115614da557600080fd5b818501915085601f830112614db957600080fd5b8135614dc7614a1d8261493f565b81815260059190911b83018401908481019088831115614de657600080fd5b8585015b83811015614ada57803585811115614e025760008081fd5b86016060818c03601f1901811315614e1a5760008081fd5b614e226148ed565b8983013588811115614e345760008081fd5b614e428e8c83870101614962565b8252506040808401358b830152614e5a838501614687565b9082015285525050918601918601614dea565b60008060008060808587031215614e8357600080fd5b614e8c85614687565b935060208501359250614ea160408601614687565b9150614eaf60608601614687565b905092959194509250565b60008060408385031215614ecd57600080fd5b82356001600160401b03811115614ee357600080fd5b614eef85828601614962565b95602094909401359450505050565b60008060408385031215614f1157600080fd5b82359150614f2160208401614687565b90509250929050565b6020808252605d90820152600080516020615a3383398151915260408201527f3a2070656e64696e6753746174654e756d206d757374206265206c657373206f60608201527f7220657175616c207468616e206c61737450656e64696e675374617465000000608082015260a00190565b6020808252605190820152600080516020615a3383398151915260408201527f3a20696e69744e756d4261746368206d757374206d61746368207468652070656060820152700dcc8d2dcce40e6e8c2e8ca40c4c2e8c6d607b1b608082015260a00190565b6020808252604890820152600080516020615a3383398151915260408201527f3a20696e69744e756d426174636820737461746520726f6f7420646f6573206e6060820152671bdd08195e1a5cdd60c21b608082015260a00190565b6020808252606290820152600080516020615a3383398151915260408201527f3a20696e69744e756d4261746368206d757374206265206c657373206f72206560608201527f7175616c207468616e2063757272656e744c61737456657269666965644261746080820152610c6d60f31b60a082015260c00190565b6020808252605c90820152600080516020615a3383398151915260408201527f3a2066696e616c4e65774261746368206d75737420626520626967676572207460608201527b0d0c2dc40c6eae4e4cadce898c2e6e8accae4d2ccd2cac884c2e8c6d60231b608082015260a00190565b6000825161515a8184602087016146f8565b9190910192915050565b60006020828403121561517657600080fd5b5051919050565b634e487b7160e01b600052601260045260246000fd5b6000826151a2576151a261517d565b500690565b600181811c908216806151bb57607f821691505b6020821081036151db57634e487b7160e01b600052602260045260246000fd5b50919050565b634e487b7160e01b600052601160045260246000fd5b60006001600160401b03828116848216808303821115615219576152196151e1565b01949350505050565b60208082526028908201527f50726f6f664f66456666696369656e63793a3a6f6e6c7941646d696e3a206f6e604082015267363c9030b236b4b760c11b606082015260800190565b6020808252604a908201526000805160206159d383398151915260408201527f746554696d656f75743a206578636565642068616c74206167677265676174696060820152691bdb881d1a5b595bdd5d60b21b608082015260a00190565b60208082526042908201527f456d657267656e63794d616e616765723a3a69664e6f74456d657267656e637960408201527f53746174653a206f6e6c79206966206e6f7420656d657267656e637920737461606082015261746560f01b608082015260a00190565b634e487b7160e01b600052603260045260246000fd5b60006001600160401b038281166002600160401b0319810161536a5761536a6151e1565b6001019392505050565b928352602083019190915260c01b6001600160c01b031916604082015260480190565b9485526020850193909352604084019190915260c01b6001600160c01b0319166060808401919091521b6001600160601b0319166068820152607c0190565b6000600182016153e8576153e86151e1565b5060010190565b60006001600160401b038381169083168181101561540f5761540f6151e1565b039392505050565b600082821015615429576154296151e1565b500390565b6000816000190483118215151615615448576154486151e1565b500290565b6020808252604190820152600080516020615a3383398151915260408201527f3a2063616e6e6f74207665726966792074686174206d616e79206261746368656060820152607360f81b608082015260a00190565b601f82111561446957600081815260208120601f850160051c810160208610156154c95750805b601f850160051c820191505b81811015613b92578281556001016154d5565b81516001600160401b03811115615501576155016148af565b6155158161550f84546151a7565b846154a2565b602080601f83116001811461554a57600084156155325750858301515b600019600386901b1c1916600185901b178555613b92565b600085815260208120601f198616915b828110156155795788860151825594840194600190910190840161555a565b50858210156155975787850151600019600388901b60f8161c191681555b5050505050600190811b01905550565b6000826155b6576155b661517d565b500490565b60208082526048908201527f50726f6f664f66456666696369656e63793a3a6973466f72636542617463684160408201527f6c6c6f7765643a206f6e6c7920696620666f72636520626174636820697320616060820152677661696c61626c6560c01b608082015260a00190565b6000821982111561563c5761563c6151e1565b500190565b6020808252603b908201527f456d657267656e63794d616e616765723a3a6966456d657267656e637953746160408201527a74653a206f6e6c7920696620656d657267656e637920737461746560281b606082015260800190565b60208082526041908201527f50726f6f664f66456666696369656e63793a3a6f6e6c7954727573746564416760408201527f6772656761746f723a206f6e6c7920747275737465642041676772656761746f6060820152603960f91b608082015260a00190565b8381526001600160a01b038316602082015260606040820181905260009061572d90830184614724565b95945050505050565b60006001600160401b03838116806157505761575061517d565b92169190910492915050565b61012081016040808784376000838201818152879190815b600281101561579457848483379084018281529284019290600101615774565b5050828760c0870137610100850181815286935091505b60018110156157ca5782518252602092830192909101906001016157ab565b50505095945050505050565b6000602082840312156157e857600080fd5b815161476381614d1c565b600181815b8085111561582e578160001904821115615814576158146151e1565b8085161561582157918102915b93841c93908002906157f8565b509250929050565b6000826158455750600161477b565b816158525750600061477b565b816001811461586857600281146158725761588e565b600191505061477b565b60ff841115615883576158836151e1565b50506001821b61477b565b5060208310610133831016604e8410600b84101617156158b1575081810a61477b565b6158bb83836157f3565b80600019048211156158cf576158cf6151e1565b029392505050565b600061476360ff841683615836565b6000614763838361583656fe50726f6f664f66456666696369656e63793a3a6163746976617465456d65726750726f6f664f66456666696369656e63793a3a73657175656e6365426174636850726f6f664f66456666696369656e63793a3a70726f76654e6f6e44657465720c0ce073a7d7b5850c04ccc4b20ee7d3179d5f57d0ac44399565792c0f72fce750726f6f664f66456666696369656e63793a3a676574496e707574536e61726b50726f6f664f66456666696369656e63793a3a636f6e736f6c696461746550656d696e697374696350656e64696e6753746174653a20696e69744e756d42617450726f6f664f66456666696369656e63793a3a73657450656e64696e6753746130644e72e131a029b85045b68181585d2833e84879b9709143e1f593f000000150726f6f664f66456666696369656e63793a3a73657175656e6365466f72636550726f6f664f66456666696369656e63793a3a76657269667942617463686573f94bb37db835f1ab585ee00041849a09b12cd081d77fa15ca070757619cbc931a264697066735822122050f5be5b5b948dce081dde13dd5e338156d4f47a93e6602a62c1de5a5953f09064736f6c634300080f0033",
  "linkReferences": {},
  "deployedLinkReferences": {}
}