{
  "_format": "hh-sol-artifact-1",
  "contractName": "ProofOfEfficiency",
  "sourceName": "contracts/ProofOfEfficiency.sol",
  "abi": [
    {
      "anonymous": false,
      "inputs": [],
      "name": "EmergencyStateActivated",
      "type": "event"
    },
    {
      "anonymous": false,
      "inputs": [],
      "name": "EmergencyStateDeactivated",
      "type": "event"
    },
    {
      "anonymous": false,
      "inputs": [
        {
          "indexed": true,
          "internalType": "uint64",
          "name": "forceBatchNum",
          "type": "uint64"
        },
        {
          "indexed": false,
          "internalType": "bytes32",
          "name": "lastGlobalExitRoot",
          "type": "bytes32"
        },
        {
          "indexed": false,
          "internalType": "address",
          "name": "sequencer",
          "type": "address"
        },
        {
          "indexed": false,
          "internalType": "bytes",
          "name": "transactions",
          "type": "bytes"
        }
      ],
      "name": "ForceBatch",
      "type": "event"
    },
    {
      "anonymous": false,
      "inputs": [
        {
          "indexed": false,
          "internalType": "uint8",
          "name": "version",
          "type": "uint8"
        }
      ],
      "name": "Initialized",
      "type": "event"
    },
    {
      "anonymous": false,
      "inputs": [
        {
          "indexed": true,
          "internalType": "address",
          "name": "previousOwner",
          "type": "address"
        },
        {
          "indexed": true,
          "internalType": "address",
          "name": "newOwner",
          "type": "address"
        }
      ],
      "name": "OwnershipTransferred",
      "type": "event"
    },
    {
      "anonymous": false,
      "inputs": [
        {
          "indexed": false,
          "internalType": "bytes32",
          "name": "storedStateRoot",
          "type": "bytes32"
        },
        {
          "indexed": false,
          "internalType": "bytes32",
          "name": "provedStateRoot",
          "type": "bytes32"
        }
      ],
      "name": "ProveNonDeterministicState",
      "type": "event"
    },
    {
      "anonymous": false,
      "inputs": [
        {
          "indexed": true,
          "internalType": "uint64",
          "name": "numBatch",
          "type": "uint64"
        }
      ],
      "name": "SequenceBatches",
      "type": "event"
    },
    {
      "anonymous": false,
      "inputs": [
        {
          "indexed": true,
          "internalType": "uint64",
          "name": "numBatch",
          "type": "uint64"
        }
      ],
      "name": "SequenceForceBatches",
      "type": "event"
    },
    {
      "anonymous": false,
      "inputs": [
        {
          "indexed": false,
          "internalType": "bool",
          "name": "newForceBatchAllowed",
          "type": "bool"
        }
      ],
      "name": "SetForceBatchAllowed",
      "type": "event"
    },
    {
      "anonymous": false,
      "inputs": [
        {
          "indexed": false,
          "internalType": "address",
          "name": "newSecurityCouncil",
          "type": "address"
        }
      ],
      "name": "SetSecurityCouncil",
      "type": "event"
    },
    {
      "anonymous": false,
      "inputs": [
        {
          "indexed": false,
          "internalType": "address",
          "name": "newTrustedSequencer",
          "type": "address"
        }
      ],
      "name": "SetTrustedSequencer",
      "type": "event"
    },
    {
      "anonymous": false,
      "inputs": [
        {
          "indexed": false,
          "internalType": "string",
          "name": "newTrustedSequencerURL",
          "type": "string"
        }
      ],
      "name": "SetTrustedSequencerURL",
      "type": "event"
    },
    {
      "anonymous": false,
      "inputs": [
        {
          "indexed": true,
          "internalType": "uint64",
          "name": "numBatch",
          "type": "uint64"
        },
        {
          "indexed": false,
          "internalType": "bytes32",
          "name": "stateRoot",
          "type": "bytes32"
        },
        {
          "indexed": true,
          "internalType": "address",
          "name": "aggregator",
          "type": "address"
        }
      ],
      "name": "VerifyBatches",
      "type": "event"
    },
    {
      "inputs": [],
      "name": "FORCE_BATCH_TIMEOUT",
      "outputs": [
        {
          "internalType": "uint64",
          "name": "",
          "type": "uint64"
        }
      ],
      "stateMutability": "view",
      "type": "function"
    },
    {
      "inputs": [],
      "name": "MAX_BATCH_LENGTH",
      "outputs": [
        {
          "internalType": "uint256",
          "name": "",
          "type": "uint256"
        }
      ],
      "stateMutability": "view",
      "type": "function"
    },
    {
      "inputs": [],
      "name": "TRUSTED_SEQUENCER_FEE",
      "outputs": [
        {
          "internalType": "uint256",
          "name": "",
          "type": "uint256"
        }
      ],
      "stateMutability": "view",
      "type": "function"
    },
    {
      "inputs": [],
      "name": "activateEmergencyState",
      "outputs": [],
      "stateMutability": "nonpayable",
      "type": "function"
    },
    {
      "inputs": [
        {
          "internalType": "uint64",
          "name": "",
          "type": "uint64"
        }
      ],
      "name": "batchNumToStateRoot",
      "outputs": [
        {
          "internalType": "bytes32",
          "name": "",
          "type": "bytes32"
        }
      ],
      "stateMutability": "view",
      "type": "function"
    },
    {
      "inputs": [],
      "name": "bridgeAddress",
      "outputs": [
        {
          "internalType": "contract IBridge",
          "name": "",
          "type": "address"
        }
      ],
      "stateMutability": "view",
      "type": "function"
    },
    {
      "inputs": [],
      "name": "calculateForceProverFee",
      "outputs": [
        {
          "internalType": "uint256",
          "name": "",
          "type": "uint256"
        }
      ],
      "stateMutability": "view",
      "type": "function"
    },
    {
      "inputs": [],
      "name": "calculateRewardPerBatch",
      "outputs": [
        {
          "internalType": "uint256",
          "name": "",
          "type": "uint256"
        }
      ],
      "stateMutability": "view",
      "type": "function"
    },
    {
      "inputs": [],
      "name": "chainID",
      "outputs": [
        {
          "internalType": "uint64",
          "name": "",
          "type": "uint64"
        }
      ],
      "stateMutability": "view",
      "type": "function"
    },
    {
      "inputs": [],
      "name": "deactivateEmergencyState",
      "outputs": [],
      "stateMutability": "nonpayable",
      "type": "function"
    },
    {
      "inputs": [
        {
          "internalType": "bytes",
          "name": "transactions",
          "type": "bytes"
        },
        {
          "internalType": "uint256",
          "name": "maticAmount",
          "type": "uint256"
        }
      ],
      "name": "forceBatch",
      "outputs": [],
      "stateMutability": "nonpayable",
      "type": "function"
    },
    {
      "inputs": [],
      "name": "forceBatchAllowed",
      "outputs": [
        {
          "internalType": "bool",
          "name": "",
          "type": "bool"
        }
      ],
      "stateMutability": "view",
      "type": "function"
    },
    {
      "inputs": [
        {
          "internalType": "uint64",
          "name": "",
          "type": "uint64"
        }
      ],
      "name": "forcedBatches",
      "outputs": [
        {
          "internalType": "bytes32",
          "name": "",
          "type": "bytes32"
        }
      ],
      "stateMutability": "view",
      "type": "function"
    },
    {
      "inputs": [
        {
          "internalType": "uint64",
          "name": "initNumBatch",
          "type": "uint64"
        },
        {
          "internalType": "uint64",
          "name": "finalNewBatch",
          "type": "uint64"
        },
        {
          "internalType": "bytes32",
          "name": "newLocalExitRoot",
          "type": "bytes32"
        },
        {
          "internalType": "bytes32",
          "name": "newStateRoot",
          "type": "bytes32"
        }
      ],
      "name": "getInputSnarkBytes",
      "outputs": [
        {
          "internalType": "bytes",
          "name": "",
          "type": "bytes"
        }
      ],
      "stateMutability": "view",
      "type": "function"
    },
    {
      "inputs": [],
      "name": "globalExitRootManager",
      "outputs": [
        {
          "internalType": "contract IGlobalExitRootManager",
          "name": "",
          "type": "address"
        }
      ],
      "stateMutability": "view",
      "type": "function"
    },
    {
      "inputs": [
        {
          "internalType": "contract IGlobalExitRootManager",
          "name": "_globalExitRootManager",
          "type": "address"
        },
        {
          "internalType": "contract IERC20Upgradeable",
          "name": "_matic",
          "type": "address"
        },
        {
          "internalType": "contract IVerifierRollup",
          "name": "_rollupVerifier",
          "type": "address"
        },
        {
          "internalType": "bytes32",
          "name": "genesisRoot",
          "type": "bytes32"
        },
        {
          "internalType": "address",
          "name": "_trustedSequencer",
          "type": "address"
        },
        {
          "internalType": "bool",
          "name": "_forceBatchAllowed",
          "type": "bool"
        },
        {
          "internalType": "string",
          "name": "_trustedSequencerURL",
          "type": "string"
        },
        {
          "internalType": "uint64",
          "name": "_chainID",
          "type": "uint64"
        },
        {
          "internalType": "string",
          "name": "_networkName",
          "type": "string"
        },
        {
          "internalType": "contract IBridge",
          "name": "_bridgeAddress",
          "type": "address"
        },
        {
          "internalType": "address",
          "name": "_securityCouncil",
          "type": "address"
        }
      ],
      "name": "initialize",
      "outputs": [],
      "stateMutability": "nonpayable",
      "type": "function"
    },
    {
      "inputs": [],
      "name": "isEmergencyState",
      "outputs": [
        {
          "internalType": "bool",
          "name": "",
          "type": "bool"
        }
      ],
      "stateMutability": "view",
      "type": "function"
    },
    {
      "inputs": [],
      "name": "lastBatchSequenced",
      "outputs": [
        {
          "internalType": "uint64",
          "name": "",
          "type": "uint64"
        }
      ],
      "stateMutability": "view",
      "type": "function"
    },
    {
      "inputs": [],
      "name": "lastForceBatch",
      "outputs": [
        {
          "internalType": "uint64",
          "name": "",
          "type": "uint64"
        }
      ],
      "stateMutability": "view",
      "type": "function"
    },
    {
      "inputs": [],
      "name": "lastForceBatchSequenced",
      "outputs": [
        {
          "internalType": "uint64",
          "name": "",
          "type": "uint64"
        }
      ],
      "stateMutability": "view",
      "type": "function"
    },
    {
      "inputs": [],
      "name": "lastTimestamp",
      "outputs": [
        {
          "internalType": "uint64",
          "name": "",
          "type": "uint64"
        }
      ],
      "stateMutability": "view",
      "type": "function"
    },
    {
      "inputs": [],
      "name": "lastVerifiedBatch",
      "outputs": [
        {
          "internalType": "uint64",
          "name": "",
          "type": "uint64"
        }
      ],
      "stateMutability": "view",
      "type": "function"
    },
    {
      "inputs": [],
      "name": "matic",
      "outputs": [
        {
          "internalType": "contract IERC20Upgradeable",
          "name": "",
          "type": "address"
        }
      ],
      "stateMutability": "view",
      "type": "function"
    },
    {
      "inputs": [],
      "name": "networkName",
      "outputs": [
        {
          "internalType": "string",
          "name": "",
          "type": "string"
        }
      ],
      "stateMutability": "view",
      "type": "function"
    },
    {
      "inputs": [],
      "name": "owner",
      "outputs": [
        {
          "internalType": "address",
          "name": "",
          "type": "address"
        }
      ],
      "stateMutability": "view",
      "type": "function"
    },
    {
      "inputs": [
        {
          "internalType": "uint64",
          "name": "initNumBatch",
          "type": "uint64"
        },
        {
          "internalType": "uint64",
          "name": "finalNewBatch",
          "type": "uint64"
        },
        {
          "internalType": "bytes32",
          "name": "newLocalExitRoot",
          "type": "bytes32"
        },
        {
          "internalType": "bytes32",
          "name": "newStateRoot",
          "type": "bytes32"
        },
        {
          "internalType": "uint256[2]",
          "name": "proofA",
          "type": "uint256[2]"
        },
        {
          "internalType": "uint256[2][2]",
          "name": "proofB",
          "type": "uint256[2][2]"
        },
        {
          "internalType": "uint256[2]",
          "name": "proofC",
          "type": "uint256[2]"
        }
      ],
      "name": "proveNonDeterministicState",
      "outputs": [],
      "stateMutability": "nonpayable",
      "type": "function"
    },
    {
      "inputs": [],
      "name": "renounceOwnership",
      "outputs": [],
      "stateMutability": "nonpayable",
      "type": "function"
    },
    {
      "inputs": [],
      "name": "rollupVerifier",
      "outputs": [
        {
          "internalType": "contract IVerifierRollup",
          "name": "",
          "type": "address"
        }
      ],
      "stateMutability": "view",
      "type": "function"
    },
    {
      "inputs": [],
      "name": "securityCouncil",
      "outputs": [
        {
          "internalType": "address",
          "name": "",
          "type": "address"
        }
      ],
      "stateMutability": "view",
      "type": "function"
    },
    {
      "inputs": [
        {
          "components": [
            {
              "internalType": "bytes",
              "name": "transactions",
              "type": "bytes"
            },
            {
              "internalType": "bytes32",
              "name": "globalExitRoot",
              "type": "bytes32"
            },
            {
              "internalType": "uint64",
              "name": "timestamp",
              "type": "uint64"
            },
            {
              "internalType": "uint64",
              "name": "minForcedTimestamp",
              "type": "uint64"
            }
          ],
          "internalType": "struct ProofOfEfficiency.BatchData[]",
          "name": "batches",
          "type": "tuple[]"
        }
      ],
      "name": "sequenceBatches",
      "outputs": [],
      "stateMutability": "nonpayable",
      "type": "function"
    },
    {
      "inputs": [
        {
          "components": [
            {
              "internalType": "bytes",
              "name": "transactions",
              "type": "bytes"
            },
            {
              "internalType": "bytes32",
              "name": "globalExitRoot",
              "type": "bytes32"
            },
            {
              "internalType": "uint64",
              "name": "minForcedTimestamp",
              "type": "uint64"
            }
          ],
          "internalType": "struct ProofOfEfficiency.ForceBatchData[]",
          "name": "batches",
          "type": "tuple[]"
        }
      ],
      "name": "sequenceForceBatches",
      "outputs": [],
      "stateMutability": "nonpayable",
      "type": "function"
    },
    {
      "inputs": [
        {
          "internalType": "uint64",
          "name": "",
          "type": "uint64"
        }
      ],
      "name": "sequencedBatches",
      "outputs": [
        {
          "internalType": "bytes32",
          "name": "",
          "type": "bytes32"
        }
      ],
      "stateMutability": "view",
      "type": "function"
    },
    {
      "inputs": [
        {
          "internalType": "bool",
          "name": "newForceBatchAllowed",
          "type": "bool"
        }
      ],
      "name": "setForceBatchAllowed",
      "outputs": [],
      "stateMutability": "nonpayable",
      "type": "function"
    },
    {
      "inputs": [
        {
          "internalType": "address",
          "name": "newSecurityCouncil",
          "type": "address"
        }
      ],
      "name": "setSecurityCouncil",
      "outputs": [],
      "stateMutability": "nonpayable",
      "type": "function"
    },
    {
      "inputs": [
        {
          "internalType": "address",
          "name": "newTrustedSequencer",
          "type": "address"
        }
      ],
      "name": "setTrustedSequencer",
      "outputs": [],
      "stateMutability": "nonpayable",
      "type": "function"
    },
    {
      "inputs": [
        {
          "internalType": "string",
          "name": "newTrustedSequencerURL",
          "type": "string"
        }
      ],
      "name": "setTrustedSequencerURL",
      "outputs": [],
      "stateMutability": "nonpayable",
      "type": "function"
    },
    {
      "inputs": [
        {
          "internalType": "address",
          "name": "newOwner",
          "type": "address"
        }
      ],
      "name": "transferOwnership",
      "outputs": [],
      "stateMutability": "nonpayable",
      "type": "function"
    },
    {
      "inputs": [],
      "name": "trustedSequencer",
      "outputs": [
        {
          "internalType": "address",
          "name": "",
          "type": "address"
        }
      ],
      "stateMutability": "view",
      "type": "function"
    },
    {
      "inputs": [],
      "name": "trustedSequencerURL",
      "outputs": [
        {
          "internalType": "string",
          "name": "",
          "type": "string"
        }
      ],
      "stateMutability": "view",
      "type": "function"
    },
    {
      "inputs": [
        {
          "internalType": "uint64",
          "name": "initNumBatch",
          "type": "uint64"
        },
        {
          "internalType": "uint64",
          "name": "finalNewBatch",
          "type": "uint64"
        },
        {
          "internalType": "bytes32",
          "name": "newLocalExitRoot",
          "type": "bytes32"
        },
        {
          "internalType": "bytes32",
          "name": "newStateRoot",
          "type": "bytes32"
        },
        {
          "internalType": "uint256[2]",
          "name": "proofA",
          "type": "uint256[2]"
        },
        {
          "internalType": "uint256[2][2]",
          "name": "proofB",
          "type": "uint256[2][2]"
        },
        {
          "internalType": "uint256[2]",
          "name": "proofC",
          "type": "uint256[2]"
        }
      ],
      "name": "verifyBatches",
      "outputs": [],
      "stateMutability": "nonpayable",
      "type": "function"
    }
  ],
  "bytecode": "0x608060405234801561001057600080fd5b5061494a806100206000396000f3fe608060405234801561001057600080fd5b50600436106102c85760003560e01c80638da5cb5b1161017b578063cfa8ed47116100d8578063e7a7ed021161008c578063eaeb077b11610071578063eaeb077b14610687578063f2fde38b1461069a578063f7552761146106ad57600080fd5b8063e7a7ed0214610637578063e8bf92ed1461066757600080fd5b8063d8d1091b116100bd578063d8d1091b146105ef578063d8f54db014610602578063dbc169761461062f57600080fd5b8063cfa8ed47146105a3578063d02103ca146105cf57600080fd5b8063b02286c01161012f578063b6b0b09711610114578063b6b0b09714610558578063c3fd0f9c1461057d578063c89e42df1461059057600080fd5b8063b02286c01461052f578063b4d63f581461053857600080fd5b8063a3c573eb11610160578063a3c573eb146104f1578063ab9fc5ef14610511578063adc879e91461051b57600080fd5b80638da5cb5b146104cb57806399f5634e146104e957600080fd5b8063542028d5116102295780637152facf116101dd5780637fcb3653116101c25780637fcb36531461049157806381df7d3f146104a55780638c4a0af7146104b857600080fd5b80637152facf14610476578063798470571461048957600080fd5b80636b8616ce1161020e5780636b8616ce1461043b5780636ff512cc1461045b578063715018a61461046e57600080fd5b8063542028d51461042057806355b925e61461042857600080fd5b806327eb6c0f11610280578063423fa85611610265578063423fa856146103aa57806345605267146103ca5780635392c5e0146103f257600080fd5b806327eb6c0f146103525780633c1582671461039757600080fd5b806319d8ac61116102b157806319d8ac61146103085780631c1083e2146103355780632072f6c51461034a57600080fd5b8063107bf28c146102cd57806315064c96146102eb575b600080fd5b6102d56106bc565b6040516102e29190613e2c565b60405180910390f35b6065546102f89060ff1681565b60405190151581526020016102e2565b60685461031c9067ffffffffffffffff1681565b60405167ffffffffffffffff90911681526020016102e2565b610348610343366004613e78565b61074a565b005b610348610856565b6070546103729073ffffffffffffffffffffffffffffffffffffffff1681565b60405173ffffffffffffffffffffffffffffffffffffffff90911681526020016102e2565b6103486103a5366004613fed565b610907565b60685461031c9068010000000000000000900467ffffffffffffffff1681565b60685461031c90700100000000000000000000000000000000900467ffffffffffffffff1681565b610412610400366004614104565b606b6020526000908152604090205481565b6040519081526020016102e2565b6102d5611297565b610348610436366004614136565b6112a4565b610412610449366004614104565b60666020526000908152604090205481565b610348610469366004613e78565b61186d565b610348611987565b6102d56104843660046141b9565b611999565b610412611bd0565b60695461031c9067ffffffffffffffff1681565b6103486104b3366004614214565b611c4a565b6103486104c636600461430e565b611fa3565b60335473ffffffffffffffffffffffffffffffffffffffff16610372565b6104126120bd565b6071546103729073ffffffffffffffffffffffffffffffffffffffff1681565b61031c62093a8081565b606e5461031c9067ffffffffffffffff1681565b61041261ea6081565b610412610546366004614104565b60676020526000908152604090205481565b60655461037290610100900473ffffffffffffffffffffffffffffffffffffffff1681565b61034861058b366004614136565b6121ee565b61034861059e36600461432b565b612838565b6069546103729068010000000000000000900473ffffffffffffffffffffffffffffffffffffffff1681565b606a546103729073ffffffffffffffffffffffffffffffffffffffff1681565b6103486105fd366004614360565b61290d565b6069546102f8907c0100000000000000000000000000000000000000000000000000000000900460ff1681565b610348612fb2565b60685461031c907801000000000000000000000000000000000000000000000000900467ffffffffffffffff1681565b606c546103729073ffffffffffffffffffffffffffffffffffffffff1681565b610348610695366004614453565b613141565b6103486106a8366004613e78565b613641565b61041267016345785d8a000081565b606f80546106c990614498565b80601f01602080910402602001604051908101604052809291908181526020018280546106f590614498565b80156107425780601f1061071757610100808354040283529160200191610742565b820191906000526020600020905b81548152906001019060200180831161072557829003601f168201915b505050505081565b60705473ffffffffffffffffffffffffffffffffffffffff1633146107dc5760405162461bcd60e51b815260206004820152603d60248201527f50726f6f664f66456666696369656e63793a3a6f6e6c7953656375726974794360448201527f6f756e63696c3a206f6e6c7920736563757269747920636f756e63696c00000060648201526084015b60405180910390fd5b607080547fffffffffffffffffffffffff00000000000000000000000000000000000000001673ffffffffffffffffffffffffffffffffffffffff83169081179091556040519081527f373a9d1d60f01a33ff86d540991f09f5c5d7482656794de80be077c5eb9693d9906020015b60405180910390a150565b60655460ff16156108f55760405162461bcd60e51b815260206004820152604260248201527f456d657267656e63794d616e616765723a3a69664e6f74456d657267656e637960448201527f53746174653a206f6e6c79206966206e6f7420656d657267656e63792073746160648201527f7465000000000000000000000000000000000000000000000000000000000000608482015260a4016107d3565b6108fd6136de565b610905613745565b565b60655460ff16156109a65760405162461bcd60e51b815260206004820152604260248201527f456d657267656e63794d616e616765723a3a69664e6f74456d657267656e637960448201527f53746174653a206f6e6c79206966206e6f7420656d657267656e63792073746160648201527f7465000000000000000000000000000000000000000000000000000000000000608482015260a4016107d3565b60695468010000000000000000900473ffffffffffffffffffffffffffffffffffffffff163314610a3f5760405162461bcd60e51b815260206004820152603f60248201527f50726f6f664f66456666696369656e63793a3a6f6e6c7954727573746564536560448201527f7175656e6365723a206f6e6c7920747275737465642073657175656e6365720060648201526084016107d3565b805180610ada5760405162461bcd60e51b815260206004820152604260248201527f50726f6f664f66456666696369656e63793a3a73657175656e6365426174636860448201527f65733a204174206c65617374206d7573742073657175656e636520312062617460648201527f6368000000000000000000000000000000000000000000000000000000000000608482015260a4016107d3565b60685467ffffffffffffffff680100000000000000008204811660008181526067602052604081205483851694929370010000000000000000000000000000000090930490921691905b85811015611088576000878281518110610b4057610b406144eb565b602002602001015190506000816060015167ffffffffffffffff161115610d595783610b6b81614549565b945050600081600001518051906020012082602001518360600151604051602001610bce93929190928352602083019190915260c01b7fffffffffffffffff00000000000000000000000000000000000000000000000016604082015260480190565b60408051601f19818403018152918152815160209283012067ffffffffffffffff8816600090815260669093529120549091508114610c9b5760405162461bcd60e51b815260206004820152604260248201527f50726f6f664f66456666696369656e63793a3a73657175656e6365426174636860448201527f65733a20466f7263656420626174636865732064617461206d757374206d617460648201527f6368000000000000000000000000000000000000000000000000000000000000608482015260a4016107d3565b816060015167ffffffffffffffff16826040015167ffffffffffffffff161015610d535760405162461bcd60e51b815260206004820152605d60248201527f50726f6f664f66456666696369656e63793a3a73657175656e6365426174636860448201527f65733a20466f7263656420626174636865732074696d657374616d70206d757360648201527f7420626520626967676572206f7220657175616c207468616e206d696e000000608482015260a4016107d3565b50610ef3565b60208101511580610e085750606a5460208201516040517f257b363200000000000000000000000000000000000000000000000000000000815273ffffffffffffffffffffffffffffffffffffffff9092169163257b363291610dc29160040190815260200190565b6020604051808303816000875af1158015610de1573d6000803e3d6000fd5b505050506040513d601f19601f82011682018060405250810190610e059190614570565b15155b610e7a5760405162461bcd60e51b815260206004820152603f60248201527f50726f6f664f66456666696369656e63793a3a73657175656e6365426174636860448201527f65733a20476c6f62616c206578697420726f6f74206d7573742065786973740060648201526084016107d3565b80515161ea6011610ef35760405162461bcd60e51b815260206004820152603f60248201527f50726f6f664f66456666696369656e63793a3a73657175656e6365426174636860448201527f65733a205472616e73616374696f6e73206279746573206f766572666c6f770060648201526084016107d3565b8567ffffffffffffffff16816040015167ffffffffffffffff1610158015610f29575042816040015167ffffffffffffffff1611155b610fc15760405162461bcd60e51b815260206004820152604260248201527f50726f6f664f66456666696369656e63793a3a73657175656e6365426174636860448201527f65733a2054696d657374616d70206d75737420626520696e736964652072616e60648201527f6765000000000000000000000000000000000000000000000000000000000000608482015260a4016107d3565b805180516020918201208183015160408085015181519485018890529084019290925260608084019190915260c09190911b7fffffffffffffffff00000000000000000000000000000000000000000000000016608083015233901b7fffffffffffffffffffffffffffffffffffffffff000000000000000000000000166088820152609c01604051602081830303815290604052805190602001209250848061106a90614549565b9550508060400151955050808061108090614589565b915050610b24565b5060685467ffffffffffffffff78010000000000000000000000000000000000000000000000009091048116908316111561112b5760405162461bcd60e51b815260206004820152603a60248201527f50726f6f664f66456666696369656e63793a3a73657175656e6365426174636860448201527f65733a20466f7263652062617463686573206f766572666c6f7700000000000060648201526084016107d3565b60685460009061115990700100000000000000000000000000000000900467ffffffffffffffff16846145c1565b61116d9067ffffffffffffffff16876145ea565b6068805467ffffffffffffffff868116700100000000000000000000000000000000027fffffffffffffffff0000000000000000ffffffffffffffffffffffffffffffff8983166801000000000000000081027fffffffffffffffffffffffffffffffff00000000000000000000000000000000909516938c16939093179390931792909216919091179091556000908152606760205260409020839055905061124a33306112248467016345785d8a0000614601565b606554610100900473ffffffffffffffffffffffffffffffffffffffff169291906137cf565b6068546040516801000000000000000090910467ffffffffffffffff16907f303446e6a8cb73c83dff421c0b1d5e5ce0719dab1bff13660fc254e58cc17fce90600090a250505050505050565b606d80546106c990614498565b60655460ff16156113435760405162461bcd60e51b815260206004820152604260248201527f456d657267656e63794d616e616765723a3a69664e6f74456d657267656e637960448201527f53746174653a206f6e6c79206966206e6f7420656d657267656e63792073746160648201527f7465000000000000000000000000000000000000000000000000000000000000608482015260a4016107d3565b60695467ffffffffffffffff90811690881611156113ef5760405162461bcd60e51b815260206004820152605b60248201527f50726f6f664f66456666696369656e63793a3a7665726966794261746368657360448201527f3a20696e69744e756d4261746368206d757374206265206c657373206f72206560648201527f7175616c207468616e206c617374566572696669656442617463680000000000608482015260a4016107d3565b60695467ffffffffffffffff9081169087161161149a5760405162461bcd60e51b815260206004820152605560248201527f50726f6f664f66456666696369656e63793a3a7665726966794261746368657360448201527f3a2066696e616c4e65774261746368206d75737420626520626967676572207460648201527f68616e206c617374566572696669656442617463680000000000000000000000608482015260a4016107d3565b67ffffffffffffffff87166000908152606b602052604090205461154c5760405162461bcd60e51b815260206004820152604860248201527f50726f6f664f66456666696369656e63793a3a7665726966794261746368657360448201527f3a20696e69744e756d426174636820737461746520726f6f7420646f6573206e60648201527f6f74206578697374000000000000000000000000000000000000000000000000608482015260a4016107d3565b600061155a88888888611999565b905060007f30644e72e131a029b85045b68181585d2833e84879b9709143e1f593f000000160028360405161158f919061463e565b602060405180830381855afa1580156115ac573d6000803e3d6000fd5b5050506040513d601f19601f820116820180604052508101906115cf9190614570565b6115d99190614689565b606c546040805160208101825283815290517f43753b4d00000000000000000000000000000000000000000000000000000000815292935073ffffffffffffffffffffffffffffffffffffffff909116916343753b4d91611643918991899189919060040161469d565b602060405180830381865afa158015611660573d6000803e3d6000fd5b505050506040513d601f19601f820116820180604052508101906116849190614717565b6116f65760405162461bcd60e51b815260206004820152602f60248201527f50726f6f664f66456666696369656e63793a3a7665726966794261746368657360448201527f3a20494e56414c49445f50524f4f46000000000000000000000000000000000060648201526084016107d3565b6069546117549033906117139067ffffffffffffffff168b6145c1565b67ffffffffffffffff166117256120bd565b61172f9190614601565b606554610100900473ffffffffffffffffffffffffffffffffffffffff16919061388d565b606980547fffffffffffffffffffffffffffffffffffffffffffffffff00000000000000001667ffffffffffffffff8a169081179091556000908152606b602052604090819020879055606a5490517f33d6247d0000000000000000000000000000000000000000000000000000000081526004810189905273ffffffffffffffffffffffffffffffffffffffff909116906333d6247d90602401600060405180830381600087803b15801561180957600080fd5b505af115801561181d573d6000803e3d6000fd5b505060405188815233925067ffffffffffffffff8b1691507f9c72852172521097ba7e1482e6b44b351323df0155f97f4ea18fcec28e1f59669060200160405180910390a3505050505050505050565b60695468010000000000000000900473ffffffffffffffffffffffffffffffffffffffff1633146119065760405162461bcd60e51b815260206004820152603f60248201527f50726f6f664f66456666696369656e63793a3a6f6e6c7954727573746564536560448201527f7175656e6365723a206f6e6c7920747275737465642073657175656e6365720060648201526084016107d3565b606980547fffffffff0000000000000000000000000000000000000000ffffffffffffffff166801000000000000000073ffffffffffffffffffffffffffffffffffffffff8416908102919091179091556040519081527ff54144f9611984021529f814a1cb6a41e22c58351510a0d9f7e822618abb9cc09060200161084b565b61198f6136de565b61090560006138e8565b67ffffffffffffffff8085166000818152606760205260408082205493871682529020546060929115806119cc57508115155b611a645760405162461bcd60e51b815260206004820152604560248201527f50726f6f664f66456666696369656e63793a3a676574496e707574536e61726b60448201527f42797465733a206f6c64416363496e7075744861736820646f6573206e6f742060648201527f6578697374000000000000000000000000000000000000000000000000000000608482015260a4016107d3565b80611afd5760405162461bcd60e51b815260206004820152604560248201527f50726f6f664f66456666696369656e63793a3a676574496e707574536e61726b60448201527f42797465733a206e6577416363496e7075744861736820646f6573206e6f742060648201527f6578697374000000000000000000000000000000000000000000000000000000608482015260a4016107d3565b67ffffffffffffffff87166000908152606b602090815260409182902054606e5492517fffffffffffffffffffffffffffffffffffffffff0000000000000000000000003360601b16928101929092526034820152605481018490527fffffffffffffffff00000000000000000000000000000000000000000000000060c08a811b8216607484015292831b8116607c8301526084820187905260a4820184905260c482018890529188901b90911660e482015260ec01604051602081830303815290604052925050505b949350505050565b60685460009067ffffffffffffffff7001000000000000000000000000000000008204811691611c1f917801000000000000000000000000000000000000000000000000909104166001614734565b611c2991906145c1565b611c459067ffffffffffffffff16670de0b6b3a7640000614601565b905090565b600054610100900460ff1615808015611c6a5750600054600160ff909116105b80611c845750303b158015611c84575060005460ff166001145b611cf65760405162461bcd60e51b815260206004820152602e60248201527f496e697469616c697a61626c653a20636f6e747261637420697320616c72656160448201527f647920696e697469616c697a656400000000000000000000000000000000000060648201526084016107d3565b600080547fffffffffffffffffffffffffffffffffffffffffffffffffffffffffffffff001660011790558015611d5457600080547fffffffffffffffffffffffffffffffffffffffffffffffffffffffffffff00ff166101001790555b606a80547fffffffffffffffffffffffff000000000000000000000000000000000000000090811673ffffffffffffffffffffffffffffffffffffffff8f811691909117909255606580547fffffffffffffffffffffff0000000000000000000000000000000000000000ff166101008f851602179055606c80549091168c831617905560008052606b6020527fc8cc8bda7ad4886bea3ebbdafa02e79d37c39bf4011696b26a31a0802fd9458b8a9055606980547fffffff000000000000000000000000000000000000000000ffffffffffffffff1668010000000000000000928b16929092027fffffff00ffffffffffffffffffffffffffffffffffffffffffffffffffffffff16919091177c010000000000000000000000000000000000000000000000000000000089151502179055606d611e9387826147ae565b50606e80547fffffffffffffffffffffffffffffffffffffffffffffffff00000000000000001667ffffffffffffffff8716179055606f611ed485826147ae565b506071805473ffffffffffffffffffffffffffffffffffffffff8086167fffffffffffffffffffffffff0000000000000000000000000000000000000000928316179092556070805492851692909116919091179055611f3261395f565b8015611f9557600080547fffffffffffffffffffffffffffffffffffffffffffffffffffffffffffff00ff169055604051600181527f7f26b83ff96e1f2b6a682f133852f6798a09c465da95921460cefb38474024989060200160405180910390a15b505050505050505050505050565b60695468010000000000000000900473ffffffffffffffffffffffffffffffffffffffff16331461203c5760405162461bcd60e51b815260206004820152603f60248201527f50726f6f664f66456666696369656e63793a3a6f6e6c7954727573746564536560448201527f7175656e6365723a206f6e6c7920747275737465642073657175656e6365720060648201526084016107d3565b606980548215157c0100000000000000000000000000000000000000000000000000000000027fffffff00ffffffffffffffffffffffffffffffffffffffffffffffffffffffff9091161790556040517fbacda50a4a8575be1d91a7ebe29ee45056f3a94f12a2281eb6b43afa33bcefe69061084b90831515815260200190565b6065546040517f70a08231000000000000000000000000000000000000000000000000000000008152306004820152600091829161010090910473ffffffffffffffffffffffffffffffffffffffff16906370a0823190602401602060405180830381865afa158015612134573d6000803e3d6000fd5b505050506040513d601f19601f820116820180604052508101906121589190614570565b60695460685491925060009167ffffffffffffffff918216916801000000000000000082048116916121bd91700100000000000000000000000000000000820481169178010000000000000000000000000000000000000000000000009004166145c1565b6121c79190614734565b6121d191906145c1565b67ffffffffffffffff1690506121e781836148aa565b9250505090565b60655460ff161561228d5760405162461bcd60e51b815260206004820152604260248201527f456d657267656e63794d616e616765723a3a69664e6f74456d657267656e637960448201527f53746174653a206f6e6c79206966206e6f7420656d657267656e63792073746160648201527f7465000000000000000000000000000000000000000000000000000000000000608482015260a4016107d3565b8567ffffffffffffffff168767ffffffffffffffff161061233c5760405162461bcd60e51b815260206004820152605d60248201527f50726f6f664f66456666696369656e63793a3a70726f76654e6f6e446574657260448201527f6d696e697374696353746174653a2066696e616c4e65774261746368206d757360648201527f7420626520626967676572207468616e20696e69744e756d4261746368000000608482015260a4016107d3565b60695467ffffffffffffffff908116908716111561240e5760405162461bcd60e51b815260206004820152606960248201527f50726f6f664f66456666696369656e63793a3a70726f76654e6f6e446574657260448201527f6d696e697374696353746174653a2066696e616c4e65774261746368206d757360648201527f74206265206c657373206f7220657175616c207468616e206c6173745665726960848201527f666965644261746368000000000000000000000000000000000000000000000060a482015260c4016107d3565b67ffffffffffffffff87166000908152606b60205260409020546124c05760405162461bcd60e51b815260206004820152605560248201527f50726f6f664f66456666696369656e63793a3a70726f76654e6f6e446574657260448201527f6d696e697374696353746174653a20696e69744e756d4261746368207374617460648201527f6520726f6f7420646f6573206e6f742065786973740000000000000000000000608482015260a4016107d3565b67ffffffffffffffff86166000908152606b60205260409020546125725760405162461bcd60e51b815260206004820152605660248201527f50726f6f664f66456666696369656e63793a3a70726f76654e6f6e446574657260448201527f6d696e697374696353746174653a2066696e616c4e657742617463682073746160648201527f746520726f6f7420646f6573206e6f7420657869737400000000000000000000608482015260a4016107d3565b600061258088888888611999565b905060007f30644e72e131a029b85045b68181585d2833e84879b9709143e1f593f00000016002836040516125b5919061463e565b602060405180830381855afa1580156125d2573d6000803e3d6000fd5b5050506040513d601f19601f820116820180604052508101906125f59190614570565b6125ff9190614689565b606c546040805160208101825283815290517f43753b4d00000000000000000000000000000000000000000000000000000000815292935073ffffffffffffffffffffffffffffffffffffffff909116916343753b4d91612669918991899189919060040161469d565b602060405180830381865afa158015612686573d6000803e3d6000fd5b505050506040513d601f19601f820116820180604052508101906126aa9190614717565b61271c5760405162461bcd60e51b815260206004820152603c60248201527f50726f6f664f66456666696369656e63793a3a70726f76654e6f6e446574657260448201527f6d696e697374696353746174653a20494e56414c49445f50524f4f460000000060648201526084016107d3565b67ffffffffffffffff88166000908152606b60205260409020548690036127d15760405162461bcd60e51b815260206004820152606060248201527f50726f6f664f66456666696369656e63793a3a70726f76654e6f6e446574657260448201527f6d696e697374696353746174653a2073746f72656420726f6f74206d7573742060648201527f626520646966666572656e74207468616e206e657720737461746520726f6f74608482015260a4016107d3565b67ffffffffffffffff88166000908152606b60209081526040918290205482519081529081018890527f10b370e2afd2be06fe3170fec9cb3bbd87233f3deb63d488c0dde59813afdabe910160405180910390a161282d613745565b505050505050505050565b60695468010000000000000000900473ffffffffffffffffffffffffffffffffffffffff1633146128d15760405162461bcd60e51b815260206004820152603f60248201527f50726f6f664f66456666696369656e63793a3a6f6e6c7954727573746564536560448201527f7175656e6365723a206f6e6c7920747275737465642073657175656e6365720060648201526084016107d3565b606d6128dd82826147ae565b507f6b8f723a4c7a5335cafae8a598a0aa0301be1387c037dccc085b62add6448b208160405161084b9190613e2c565b60655460ff16156129ac5760405162461bcd60e51b815260206004820152604260248201527f456d657267656e63794d616e616765723a3a69664e6f74456d657267656e637960448201527f53746174653a206f6e6c79206966206e6f7420656d657267656e63792073746160648201527f7465000000000000000000000000000000000000000000000000000000000000608482015260a4016107d3565b6069547c0100000000000000000000000000000000000000000000000000000000900460ff161515600114612a6f5760405162461bcd60e51b815260206004820152604860248201527f50726f6f664f66456666696369656e63793a3a6973466f72636542617463684160448201527f6c6c6f7765643a206f6e6c7920696620666f726365206261746368206973206160648201527f7661696c61626c65000000000000000000000000000000000000000000000000608482015260a4016107d3565b805180612b0a5760405162461bcd60e51b815260206004820152604260248201527f50726f6f664f66456666696369656e63793a3a73657175656e6365466f72636560448201527f42617463683a204d75737420666f726365206174206c6561737420312062617460648201527f6368000000000000000000000000000000000000000000000000000000000000608482015260a4016107d3565b60685467ffffffffffffffff78010000000000000000000000000000000000000000000000008204811691612b559184917001000000000000000000000000000000009004166148be565b1115612bc95760405162461bcd60e51b815260206004820152603a60248201527f50726f6f664f66456666696369656e63793a3a73657175656e6365466f72636560448201527f42617463683a20466f72636520626174636820696e76616c696400000000000060648201526084016107d3565b60685467ffffffffffffffff680100000000000000008204811660008181526067602052604081205491937001000000000000000000000000000000009004909216915b84811015612ee2576000868281518110612c2957612c296144eb565b602002602001015190508380612c3e90614549565b825180516020918201208185015160408087015181519485019390935283015260c01b7fffffffffffffffff0000000000000000000000000000000000000000000000001660608201529095506000915060680160408051601f19818403018152918152815160209283012067ffffffffffffffff8816600090815260669093529120549091508114612d5f5760405162461bcd60e51b815260206004820152604760248201527f50726f6f664f66456666696369656e63793a3a73657175656e6365466f72636560448201527f426174636865733a20466f7263656420626174636865732064617461206d757360648201527f74206d6174636800000000000000000000000000000000000000000000000000608482015260a4016107d3565b612d6a6001886145ea565b8303612e28574262093a808360400151612d849190614734565b67ffffffffffffffff161115612e285760405162461bcd60e51b815260206004820152604c60248201527f50726f6f664f66456666696369656e63793a3a73657175656e6365466f72636560448201527f42617463683a20466f72636564206261746368206973206e6f7420696e20746960648201527f6d656f757420706572696f640000000000000000000000000000000000000000608482015260a4016107d3565b8151805160209182012081840151604080519384018890528301919091526060808301919091524260c01b7fffffffffffffffff00000000000000000000000000000000000000000000000016608083015233901b7fffffffffffffffffffffffffffffffffffffffff000000000000000000000000166088820152609c016040516020818303038152906040528051906020012093508580612eca90614549565b96505050508080612eda90614589565b915050612c0d565b50606880544267ffffffffffffffff9081167fffffffffffffffffffffffffffffffff000000000000000000000000000000009092169190911768010000000000000000868316818102929092177fffffffffffffffff0000000000000000ffffffffffffffffffffffffffffffff1670010000000000000000000000000000000087851602178455600091825260676020526040808320869055935493519304909116917f648a61dd2438f072f5a1960939abd30f37aea80d2e94c9792ad142d3e0a490a49190a25050505050565b60655460ff1661302a5760405162461bcd60e51b815260206004820152603b60248201527f456d657267656e63794d616e616765723a3a6966456d657267656e637953746160448201527f74653a206f6e6c7920696620656d657267656e6379207374617465000000000060648201526084016107d3565b60705473ffffffffffffffffffffffffffffffffffffffff1633146130b75760405162461bcd60e51b815260206004820152603d60248201527f50726f6f664f66456666696369656e63793a3a6f6e6c7953656375726974794360448201527f6f756e63696c3a206f6e6c7920736563757269747920636f756e63696c00000060648201526084016107d3565b607160009054906101000a900473ffffffffffffffffffffffffffffffffffffffff1673ffffffffffffffffffffffffffffffffffffffff1663dbc169766040518163ffffffff1660e01b8152600401600060405180830381600087803b15801561312157600080fd5b505af1158015613135573d6000803e3d6000fd5b505050506109056139e5565b60655460ff16156131e05760405162461bcd60e51b815260206004820152604260248201527f456d657267656e63794d616e616765723a3a69664e6f74456d657267656e637960448201527f53746174653a206f6e6c79206966206e6f7420656d657267656e63792073746160648201527f7465000000000000000000000000000000000000000000000000000000000000608482015260a4016107d3565b6069547c0100000000000000000000000000000000000000000000000000000000900460ff1615156001146132a35760405162461bcd60e51b815260206004820152604860248201527f50726f6f664f66456666696369656e63793a3a6973466f72636542617463684160448201527f6c6c6f7765643a206f6e6c7920696620666f726365206261746368206973206160648201527f7661696c61626c65000000000000000000000000000000000000000000000000608482015260a4016107d3565b60006132ad611bd0565b9050818111156133255760405162461bcd60e51b815260206004820152602f60248201527f50726f6f664f66456666696369656e63793a3a666f72636542617463683a206e60448201527f6f7420656e6f756768206d61746963000000000000000000000000000000000060648201526084016107d3565b61ea6083511061339d5760405162461bcd60e51b815260206004820152603a60248201527f50726f6f664f66456666696369656e63793a3a666f72636542617463683a205460448201527f72616e73616374696f6e73206279746573206f766572666c6f7700000000000060648201526084016107d3565b6065546133c790610100900473ffffffffffffffffffffffffffffffffffffffff163330846137cf565b606a54604080517f3ed691ef000000000000000000000000000000000000000000000000000000008152905160009273ffffffffffffffffffffffffffffffffffffffff1691633ed691ef9160048083019260209291908290030181865afa158015613437573d6000803e3d6000fd5b505050506040513d601f19601f8201168201806040525081019061345b9190614570565b60688054919250780100000000000000000000000000000000000000000000000090910467ffffffffffffffff1690601861349583614549565b91906101000a81548167ffffffffffffffff021916908367ffffffffffffffff160217905550508380519060200120814260405160200161350e93929190928352602083019190915260c01b7fffffffffffffffff00000000000000000000000000000000000000000000000016604082015260480190565b60408051808303601f1901815291815281516020928301206068547801000000000000000000000000000000000000000000000000900467ffffffffffffffff16600090815260669093529120553233036135de57606854604080518381523360208201526060918101829052600091810191909152780100000000000000000000000000000000000000000000000090910467ffffffffffffffff16907ff94bb37db835f1ab585ee00041849a09b12cd081d77fa15ca070757619cbc9319060800160405180910390a261363b565b606860189054906101000a900467ffffffffffffffff1667ffffffffffffffff167ff94bb37db835f1ab585ee00041849a09b12cd081d77fa15ca070757619cbc931823387604051613632939291906148d6565b60405180910390a25b50505050565b6136496136de565b73ffffffffffffffffffffffffffffffffffffffff81166136d25760405162461bcd60e51b815260206004820152602660248201527f4f776e61626c653a206e6577206f776e657220697320746865207a65726f206160448201527f646472657373000000000000000000000000000000000000000000000000000060648201526084016107d3565b6136db816138e8565b50565b60335473ffffffffffffffffffffffffffffffffffffffff1633146109055760405162461bcd60e51b815260206004820181905260248201527f4f776e61626c653a2063616c6c6572206973206e6f7420746865206f776e657260448201526064016107d3565b607160009054906101000a900473ffffffffffffffffffffffffffffffffffffffff1673ffffffffffffffffffffffffffffffffffffffff16632072f6c56040518163ffffffff1660e01b8152600401600060405180830381600087803b1580156137af57600080fd5b505af11580156137c3573d6000803e3d6000fd5b50505050610905613ab0565b60405173ffffffffffffffffffffffffffffffffffffffff8085166024830152831660448201526064810182905261363b9085907f23b872dd00000000000000000000000000000000000000000000000000000000906084015b60408051601f198184030181529190526020810180517bffffffffffffffffffffffffffffffffffffffffffffffffffffffff167fffffffff0000000000000000000000000000000000000000000000000000000090931692909217909152613ba5565b60405173ffffffffffffffffffffffffffffffffffffffff83166024820152604481018290526138e39084907fa9059cbb0000000000000000000000000000000000000000000000000000000090606401613829565b505050565b6033805473ffffffffffffffffffffffffffffffffffffffff8381167fffffffffffffffffffffffff0000000000000000000000000000000000000000831681179093556040519116919082907f8be0079c531659141344cd1fd0a4f28419497f9722a3daafe3b4186f6b6457e090600090a35050565b600054610100900460ff166139dc5760405162461bcd60e51b815260206004820152602b60248201527f496e697469616c697a61626c653a20636f6e7472616374206973206e6f74206960448201527f6e697469616c697a696e6700000000000000000000000000000000000000000060648201526084016107d3565b610905336138e8565b60655460ff16613a5d5760405162461bcd60e51b815260206004820152603b60248201527f456d657267656e63794d616e616765723a3a6966456d657267656e637953746160448201527f74653a206f6e6c7920696620656d657267656e6379207374617465000000000060648201526084016107d3565b606580547fffffffffffffffffffffffffffffffffffffffffffffffffffffffffffffff001690556040517f1e5e34eea33501aecf2ebec9fe0e884a40804275ea7fe10b2ba084c8374308b390600090a1565b60655460ff1615613b4f5760405162461bcd60e51b815260206004820152604260248201527f456d657267656e63794d616e616765723a3a69664e6f74456d657267656e637960448201527f53746174653a206f6e6c79206966206e6f7420656d657267656e63792073746160648201527f7465000000000000000000000000000000000000000000000000000000000000608482015260a4016107d3565b606580547fffffffffffffffffffffffffffffffffffffffffffffffffffffffffffffff001660011790556040517f2261efe5aef6fedc1fd1550b25facc9181745623049c7901287030b9ad1a549790600090a1565b6000613c07826040518060400160405280602081526020017f5361666545524332303a206c6f772d6c6576656c2063616c6c206661696c65648152508573ffffffffffffffffffffffffffffffffffffffff16613c979092919063ffffffff16565b8051909150156138e35780806020019051810190613c259190614717565b6138e35760405162461bcd60e51b815260206004820152602a60248201527f5361666545524332303a204552433230206f7065726174696f6e20646964206e60448201527f6f7420737563636565640000000000000000000000000000000000000000000060648201526084016107d3565b6060611bc88484600085856000808673ffffffffffffffffffffffffffffffffffffffff168587604051613ccb919061463e565b60006040518083038185875af1925050503d8060008114613d08576040519150601f19603f3d011682016040523d82523d6000602084013e613d0d565b606091505b5091509150613d1e87838387613d29565b979650505050505050565b60608315613da5578251600003613d9e5773ffffffffffffffffffffffffffffffffffffffff85163b613d9e5760405162461bcd60e51b815260206004820152601d60248201527f416464726573733a2063616c6c20746f206e6f6e2d636f6e747261637400000060448201526064016107d3565b5081611bc8565b611bc88383815115613dba5781518083602001fd5b8060405162461bcd60e51b81526004016107d39190613e2c565b60005b83811015613def578181015183820152602001613dd7565b8381111561363b5750506000910152565b60008151808452613e18816020860160208601613dd4565b601f01601f19169290920160200192915050565b602081526000613e3f6020830184613e00565b9392505050565b73ffffffffffffffffffffffffffffffffffffffff811681146136db57600080fd5b8035613e7381613e46565b919050565b600060208284031215613e8a57600080fd5b8135613e3f81613e46565b7f4e487b7100000000000000000000000000000000000000000000000000000000600052604160045260246000fd5b6040516080810167ffffffffffffffff81118282101715613ee757613ee7613e95565b60405290565b6040516060810167ffffffffffffffff81118282101715613ee757613ee7613e95565b604051601f8201601f1916810167ffffffffffffffff81118282101715613f3957613f39613e95565b604052919050565b600067ffffffffffffffff821115613f5b57613f5b613e95565b5060051b60200190565b600082601f830112613f7657600080fd5b813567ffffffffffffffff811115613f9057613f90613e95565b613fa36020601f19601f84011601613f10565b818152846020838601011115613fb857600080fd5b816020850160208301376000918101602001919091529392505050565b803567ffffffffffffffff81168114613e7357600080fd5b6000602080838503121561400057600080fd5b823567ffffffffffffffff8082111561401857600080fd5b818501915085601f83011261402c57600080fd5b813561403f61403a82613f41565b613f10565b81815260059190911b8301840190848101908883111561405e57600080fd5b8585015b838110156140f75780358581111561407a5760008081fd5b86016080818c03601f19018113156140925760008081fd5b61409a613ec4565b89830135888111156140ac5760008081fd5b6140ba8e8c83870101613f65565b8252506040808401358b83015260606140d4818601613fd5565b828401526140e3848601613fd5565b908301525085525050918601918601614062565b5098975050505050505050565b60006020828403121561411657600080fd5b613e3f82613fd5565b806040810183101561413057600080fd5b92915050565b6000806000806000806000610180888a03121561415257600080fd5b61415b88613fd5565b965061416960208901613fd5565b955060408801359450606088013593506141868960808a0161411f565b925061014088018981111561419a57600080fd5b60c0890192506141aa8a8261411f565b91505092959891949750929550565b600080600080608085870312156141cf57600080fd5b6141d885613fd5565b93506141e660208601613fd5565b93969395505050506040820135916060013590565b80151581146136db57600080fd5b8035613e73816141fb565b60008060008060008060008060008060006101608c8e03121561423657600080fd5b61423f8c613e68565b9a5061424d60208d01613e68565b995061425b60408d01613e68565b985060608c0135975061427060808d01613e68565b965061427e60a08d01614209565b955067ffffffffffffffff8060c08e0135111561429a57600080fd5b6142aa8e60c08f01358f01613f65565b95506142b860e08e01613fd5565b9450806101008e013511156142cc57600080fd5b506142de8d6101008e01358e01613f65565b92506142ed6101208d01613e68565b91506142fc6101408d01613e68565b90509295989b509295989b9093969950565b60006020828403121561432057600080fd5b8135613e3f816141fb565b60006020828403121561433d57600080fd5b813567ffffffffffffffff81111561435457600080fd5b611bc884828501613f65565b6000602080838503121561437357600080fd5b823567ffffffffffffffff8082111561438b57600080fd5b818501915085601f83011261439f57600080fd5b81356143ad61403a82613f41565b81815260059190911b830184019084810190888311156143cc57600080fd5b8585015b838110156140f7578035858111156143e85760008081fd5b86016060818c03601f19018113156144005760008081fd5b614408613eed565b898301358881111561441a5760008081fd5b6144288e8c83870101613f65565b8252506040808401358b830152614440838501613fd5565b90820152855250509186019186016143d0565b6000806040838503121561446657600080fd5b823567ffffffffffffffff81111561447d57600080fd5b61448985828601613f65565b95602094909401359450505050565b600181811c908216806144ac57607f821691505b6020821081036144e5577f4e487b7100000000000000000000000000000000000000000000000000000000600052602260045260246000fd5b50919050565b7f4e487b7100000000000000000000000000000000000000000000000000000000600052603260045260246000fd5b7f4e487b7100000000000000000000000000000000000000000000000000000000600052601160045260246000fd5b600067ffffffffffffffff8083168181036145665761456661451a565b6001019392505050565b60006020828403121561458257600080fd5b5051919050565b60007fffffffffffffffffffffffffffffffffffffffffffffffffffffffffffffffff82036145ba576145ba61451a565b5060010190565b600067ffffffffffffffff838116908316818110156145e2576145e261451a565b039392505050565b6000828210156145fc576145fc61451a565b500390565b6000817fffffffffffffffffffffffffffffffffffffffffffffffffffffffffffffffff04831182151516156146395761463961451a565b500290565b60008251614650818460208701613dd4565b9190910192915050565b7f4e487b7100000000000000000000000000000000000000000000000000000000600052601260045260246000fd5b6000826146985761469861465a565b500690565b61012081016040808784376000838201818152879190815b60028110156146d5578484833790840182815292840192906001016146b5565b5050828760c0870137610100850181815286935091505b600181101561470b5782518252602092830192909101906001016146ec565b50505095945050505050565b60006020828403121561472957600080fd5b8151613e3f816141fb565b600067ffffffffffffffff8083168185168083038211156147575761475761451a565b01949350505050565b601f8211156138e357600081815260208120601f850160051c810160208610156147875750805b601f850160051c820191505b818110156147a657828155600101614793565b505050505050565b815167ffffffffffffffff8111156147c8576147c8613e95565b6147dc816147d68454614498565b84614760565b602080601f83116001811461482f57600084156147f95750858301515b7fffffffffffffffffffffffffffffffffffffffffffffffffffffffffffffffff600386901b1c1916600185901b1785556147a6565b600085815260208120601f198616915b8281101561485e5788860151825594840194600190910190840161483f565b508582101561489a57878501517fffffffffffffffffffffffffffffffffffffffffffffffffffffffffffffffff600388901b60f8161c191681555b5050505050600190811b01905550565b6000826148b9576148b961465a565b500490565b600082198211156148d1576148d161451a565b500190565b83815273ffffffffffffffffffffffffffffffffffffffff8316602082015260606040820152600061490b6060830184613e00565b9594505050505056fea2646970667358221220e060d003a6df3b282d02b727e8541fe86ad6aa5154fa08bedc64fae66b56376464736f6c634300080f0033",
  "linkReferences": {},
  "deployedLinkReferences": {}
}