{
  "_format": "hh-sol-artifact-1",
  "contractName": "ProofOfEfficiencyMock",
  "sourceName": "contracts/mocks/ProofOfEfficiencyMock.sol",
  "abi": [
    {
      "anonymous": false,
      "inputs": [
        {
          "indexed": true,
          "internalType": "uint64",
          "name": "forceBatchNum",
          "type": "uint64"
        },
        {
          "indexed": false,
          "internalType": "bytes32",
          "name": "lastGlobalExitRoot",
          "type": "bytes32"
        },
        {
          "indexed": false,
          "internalType": "address",
          "name": "sequencer",
          "type": "address"
        },
        {
          "indexed": false,
          "internalType": "bytes",
          "name": "transactions",
          "type": "bytes"
        }
      ],
      "name": "ForceBatch",
      "type": "event"
    },
    {
      "anonymous": false,
      "inputs": [
        {
          "indexed": false,
          "internalType": "uint8",
          "name": "version",
          "type": "uint8"
        }
      ],
      "name": "Initialized",
      "type": "event"
    },
    {
      "anonymous": false,
      "inputs": [
        {
          "indexed": true,
          "internalType": "address",
          "name": "previousOwner",
          "type": "address"
        },
        {
          "indexed": true,
          "internalType": "address",
          "name": "newOwner",
          "type": "address"
        }
      ],
      "name": "OwnershipTransferred",
      "type": "event"
    },
    {
      "anonymous": false,
      "inputs": [
        {
          "indexed": false,
          "internalType": "address",
          "name": "account",
          "type": "address"
        }
      ],
      "name": "Paused",
      "type": "event"
    },
    {
      "anonymous": false,
      "inputs": [
        {
          "indexed": false,
          "internalType": "bytes32",
          "name": "storedStateRoot",
          "type": "bytes32"
        },
        {
          "indexed": false,
          "internalType": "bytes32",
          "name": "provedStateRoot",
          "type": "bytes32"
        }
      ],
      "name": "ProofDifferentState",
      "type": "event"
    },
    {
      "anonymous": false,
      "inputs": [
        {
          "indexed": true,
          "internalType": "uint64",
          "name": "numBatch",
          "type": "uint64"
        }
      ],
      "name": "SequenceBatches",
      "type": "event"
    },
    {
      "anonymous": false,
      "inputs": [
        {
          "indexed": true,
          "internalType": "uint64",
          "name": "numBatch",
          "type": "uint64"
        }
      ],
      "name": "SequenceForceBatches",
      "type": "event"
    },
    {
      "anonymous": false,
      "inputs": [
        {
          "indexed": false,
          "internalType": "bool",
          "name": "newForceBatchAllowed",
          "type": "bool"
        }
      ],
      "name": "SetForceBatchAllowed",
      "type": "event"
    },
    {
      "anonymous": false,
      "inputs": [
        {
          "indexed": false,
          "internalType": "address",
          "name": "newTrustedSequencer",
          "type": "address"
        }
      ],
      "name": "SetTrustedSequencer",
      "type": "event"
    },
    {
      "anonymous": false,
      "inputs": [
        {
          "indexed": false,
          "internalType": "string",
          "name": "newTrustedSequencerURL",
          "type": "string"
        }
      ],
      "name": "SetTrustedSequencerURL",
      "type": "event"
    },
    {
      "anonymous": false,
      "inputs": [
        {
          "indexed": false,
          "internalType": "address",
          "name": "account",
          "type": "address"
        }
      ],
      "name": "Unpaused",
      "type": "event"
    },
    {
      "anonymous": false,
      "inputs": [
        {
          "indexed": true,
          "internalType": "uint64",
          "name": "numBatch",
          "type": "uint64"
        },
        {
          "indexed": false,
          "internalType": "bytes32",
          "name": "stateRoot",
          "type": "bytes32"
        },
        {
          "indexed": true,
          "internalType": "address",
          "name": "aggregator",
          "type": "address"
        }
      ],
      "name": "VerifyBatches",
      "type": "event"
    },
    {
      "inputs": [],
      "name": "FORCE_BATCH_TIMEOUT",
      "outputs": [
        {
          "internalType": "uint64",
          "name": "",
          "type": "uint64"
        }
      ],
      "stateMutability": "view",
      "type": "function"
    },
    {
      "inputs": [],
      "name": "MAX_BATCH_LENGTH",
      "outputs": [
        {
          "internalType": "uint256",
          "name": "",
          "type": "uint256"
        }
      ],
      "stateMutability": "view",
      "type": "function"
    },
    {
      "inputs": [],
      "name": "TRUSTED_SEQUENCER_FEE",
      "outputs": [
        {
          "internalType": "uint256",
          "name": "",
          "type": "uint256"
        }
      ],
      "stateMutability": "view",
      "type": "function"
    },
    {
      "inputs": [],
      "name": "activateEmergencyState",
      "outputs": [],
      "stateMutability": "nonpayable",
      "type": "function"
    },
    {
      "inputs": [
        {
          "internalType": "uint64",
          "name": "",
          "type": "uint64"
        }
      ],
      "name": "batchNumToStateRoot",
      "outputs": [
        {
          "internalType": "bytes32",
          "name": "",
          "type": "bytes32"
        }
      ],
      "stateMutability": "view",
      "type": "function"
    },
    {
      "inputs": [],
      "name": "bridgeAddress",
      "outputs": [
        {
          "internalType": "contract IBridge",
          "name": "",
          "type": "address"
        }
      ],
      "stateMutability": "view",
      "type": "function"
    },
    {
      "inputs": [
        {
          "internalType": "bytes32",
          "name": "currentAccInputHash",
          "type": "bytes32"
        },
        {
          "internalType": "bytes",
          "name": "transactions",
          "type": "bytes"
        },
        {
          "internalType": "bytes32",
          "name": "globalExitRoot",
          "type": "bytes32"
        },
        {
          "internalType": "uint64",
          "name": "timestamp",
          "type": "uint64"
        },
        {
          "internalType": "address",
          "name": "sequencerAddress",
          "type": "address"
        }
      ],
      "name": "calculateAccInputHash",
      "outputs": [
        {
          "internalType": "bytes32",
          "name": "",
          "type": "bytes32"
        }
      ],
      "stateMutability": "pure",
      "type": "function"
    },
    {
      "inputs": [],
      "name": "calculateForceProverFee",
      "outputs": [
        {
          "internalType": "uint256",
          "name": "",
          "type": "uint256"
        }
      ],
      "stateMutability": "view",
      "type": "function"
    },
    {
      "inputs": [],
      "name": "calculateRewardPerBatch",
      "outputs": [
        {
          "internalType": "uint256",
          "name": "",
          "type": "uint256"
        }
      ],
      "stateMutability": "view",
      "type": "function"
    },
    {
      "inputs": [],
      "name": "chainID",
      "outputs": [
        {
          "internalType": "uint64",
          "name": "",
          "type": "uint64"
        }
      ],
      "stateMutability": "view",
      "type": "function"
    },
    {
      "inputs": [],
      "name": "deactivateEmergencyState",
      "outputs": [],
      "stateMutability": "nonpayable",
      "type": "function"
    },
    {
      "inputs": [
        {
          "internalType": "bytes",
          "name": "transactions",
          "type": "bytes"
        },
        {
          "internalType": "uint256",
          "name": "maticAmount",
          "type": "uint256"
        }
      ],
      "name": "forceBatch",
      "outputs": [],
      "stateMutability": "nonpayable",
      "type": "function"
    },
    {
      "inputs": [],
      "name": "forceBatchAllowed",
      "outputs": [
        {
          "internalType": "bool",
          "name": "",
          "type": "bool"
        }
      ],
      "stateMutability": "view",
      "type": "function"
    },
    {
      "inputs": [
        {
          "internalType": "uint64",
          "name": "",
          "type": "uint64"
        }
      ],
      "name": "forcedBatches",
      "outputs": [
        {
          "internalType": "bytes32",
          "name": "",
          "type": "bytes32"
        }
      ],
      "stateMutability": "view",
      "type": "function"
    },
    {
      "inputs": [
        {
          "internalType": "uint64",
          "name": "initNumBatch",
          "type": "uint64"
        },
        {
          "internalType": "uint64",
          "name": "finalNewBatch",
          "type": "uint64"
        },
        {
          "internalType": "bytes32",
          "name": "newLocalExitRoot",
          "type": "bytes32"
        },
        {
          "internalType": "bytes32",
          "name": "newStateRoot",
          "type": "bytes32"
        }
      ],
      "name": "getInputSnarkBytes",
      "outputs": [
        {
          "internalType": "bytes",
          "name": "",
          "type": "bytes"
        }
      ],
      "stateMutability": "view",
      "type": "function"
    },
    {
      "inputs": [
        {
          "internalType": "uint64",
          "name": "_lastVerifiedBatch",
          "type": "uint64"
        },
        {
          "internalType": "uint64",
          "name": "newVerifiedBatch",
          "type": "uint64"
        },
        {
          "internalType": "bytes32",
          "name": "newLocalExitRoot",
          "type": "bytes32"
        },
        {
          "internalType": "bytes32",
          "name": "newStateRoot",
          "type": "bytes32"
        }
      ],
      "name": "getNextSnarkInput",
      "outputs": [
        {
          "internalType": "uint256",
          "name": "",
          "type": "uint256"
        }
      ],
      "stateMutability": "view",
      "type": "function"
    },
    {
      "inputs": [],
      "name": "globalExitRootManager",
      "outputs": [
        {
          "internalType": "contract IGlobalExitRootManager",
          "name": "",
          "type": "address"
        }
      ],
      "stateMutability": "view",
      "type": "function"
    },
    {
      "inputs": [
        {
          "internalType": "contract IGlobalExitRootManager",
          "name": "_globalExitRootManager",
          "type": "address"
        },
        {
          "internalType": "contract IERC20Upgradeable",
          "name": "_matic",
          "type": "address"
        },
        {
          "internalType": "contract IVerifierRollup",
          "name": "_rollupVerifier",
          "type": "address"
        },
        {
          "internalType": "bytes32",
          "name": "genesisRoot",
          "type": "bytes32"
        },
        {
          "internalType": "address",
          "name": "_trustedSequencer",
          "type": "address"
        },
        {
          "internalType": "bool",
          "name": "_forceBatchAllowed",
          "type": "bool"
        },
        {
          "internalType": "string",
          "name": "_trustedSequencerURL",
          "type": "string"
        },
        {
          "internalType": "uint64",
          "name": "_chainID",
          "type": "uint64"
        },
        {
          "internalType": "string",
          "name": "_networkName",
          "type": "string"
        },
        {
          "internalType": "contract IBridge",
          "name": "_bridgeAddress",
          "type": "address"
        }
      ],
      "name": "initialize",
      "outputs": [],
      "stateMutability": "nonpayable",
      "type": "function"
    },
    {
      "inputs": [],
      "name": "lastBatchSequenced",
      "outputs": [
        {
          "internalType": "uint64",
          "name": "",
          "type": "uint64"
        }
      ],
      "stateMutability": "view",
      "type": "function"
    },
    {
      "inputs": [],
      "name": "lastForceBatch",
      "outputs": [
        {
          "internalType": "uint64",
          "name": "",
          "type": "uint64"
        }
      ],
      "stateMutability": "view",
      "type": "function"
    },
    {
      "inputs": [],
      "name": "lastForceBatchSequenced",
      "outputs": [
        {
          "internalType": "uint64",
          "name": "",
          "type": "uint64"
        }
      ],
      "stateMutability": "view",
      "type": "function"
    },
    {
      "inputs": [],
      "name": "lastTimestamp",
      "outputs": [
        {
          "internalType": "uint64",
          "name": "",
          "type": "uint64"
        }
      ],
      "stateMutability": "view",
      "type": "function"
    },
    {
      "inputs": [],
      "name": "lastVerifiedBatch",
      "outputs": [
        {
          "internalType": "uint64",
          "name": "",
          "type": "uint64"
        }
      ],
      "stateMutability": "view",
      "type": "function"
    },
    {
      "inputs": [],
      "name": "matic",
      "outputs": [
        {
          "internalType": "contract IERC20Upgradeable",
          "name": "",
          "type": "address"
        }
      ],
      "stateMutability": "view",
      "type": "function"
    },
    {
      "inputs": [],
      "name": "networkName",
      "outputs": [
        {
          "internalType": "string",
          "name": "",
          "type": "string"
        }
      ],
      "stateMutability": "view",
      "type": "function"
    },
    {
      "inputs": [],
      "name": "owner",
      "outputs": [
        {
          "internalType": "address",
          "name": "",
          "type": "address"
        }
      ],
      "stateMutability": "view",
      "type": "function"
    },
    {
      "inputs": [],
      "name": "paused",
      "outputs": [
        {
          "internalType": "bool",
          "name": "",
          "type": "bool"
        }
      ],
      "stateMutability": "view",
      "type": "function"
    },
    {
      "inputs": [
        {
          "internalType": "uint64",
          "name": "initNumBatch",
          "type": "uint64"
        },
        {
          "internalType": "uint64",
          "name": "finalNewBatch",
          "type": "uint64"
        },
        {
          "internalType": "bytes32",
          "name": "newLocalExitRoot",
          "type": "bytes32"
        },
        {
          "internalType": "bytes32",
          "name": "newStateRoot",
          "type": "bytes32"
        },
        {
          "internalType": "uint256[2]",
          "name": "proofA",
          "type": "uint256[2]"
        },
        {
          "internalType": "uint256[2][2]",
          "name": "proofB",
          "type": "uint256[2][2]"
        },
        {
          "internalType": "uint256[2]",
          "name": "proofC",
          "type": "uint256[2]"
        }
      ],
      "name": "proofDifferentState",
      "outputs": [],
      "stateMutability": "nonpayable",
      "type": "function"
    },
    {
      "inputs": [],
      "name": "renounceOwnership",
      "outputs": [],
      "stateMutability": "nonpayable",
      "type": "function"
    },
    {
      "inputs": [],
      "name": "rollupVerifier",
      "outputs": [
        {
          "internalType": "contract IVerifierRollup",
          "name": "",
          "type": "address"
        }
      ],
      "stateMutability": "view",
      "type": "function"
    },
    {
      "inputs": [],
      "name": "securityCouncil",
      "outputs": [
        {
          "internalType": "address",
          "name": "",
          "type": "address"
        }
      ],
      "stateMutability": "view",
      "type": "function"
    },
    {
      "inputs": [
        {
          "components": [
            {
              "internalType": "bytes",
              "name": "transactions",
              "type": "bytes"
            },
            {
              "internalType": "bytes32",
              "name": "globalExitRoot",
              "type": "bytes32"
            },
            {
              "internalType": "uint64",
              "name": "timestamp",
              "type": "uint64"
            },
            {
              "internalType": "uint64",
              "name": "minForcedTimestamp",
              "type": "uint64"
            }
          ],
          "internalType": "struct ProofOfEfficiency.BatchData[]",
          "name": "batches",
          "type": "tuple[]"
        }
      ],
      "name": "sequenceBatches",
      "outputs": [],
      "stateMutability": "nonpayable",
      "type": "function"
    },
    {
      "inputs": [
        {
          "components": [
            {
              "internalType": "bytes",
              "name": "transactions",
              "type": "bytes"
            },
            {
              "internalType": "bytes32",
              "name": "globalExitRoot",
              "type": "bytes32"
            },
            {
              "internalType": "uint64",
              "name": "minForcedTimestamp",
              "type": "uint64"
            }
          ],
          "internalType": "struct ProofOfEfficiency.ForceBatchData[]",
          "name": "batches",
          "type": "tuple[]"
        }
      ],
      "name": "sequenceForceBatches",
      "outputs": [],
      "stateMutability": "nonpayable",
      "type": "function"
    },
    {
      "inputs": [
        {
          "internalType": "uint64",
          "name": "",
          "type": "uint64"
        }
      ],
      "name": "sequencedBatches",
      "outputs": [
        {
          "internalType": "bytes32",
          "name": "",
          "type": "bytes32"
        }
      ],
      "stateMutability": "view",
      "type": "function"
    },
    {
      "inputs": [
        {
          "internalType": "bool",
          "name": "newForceBatchAllowed",
          "type": "bool"
        }
      ],
      "name": "setForceBatchAllowed",
      "outputs": [],
      "stateMutability": "nonpayable",
      "type": "function"
    },
    {
      "inputs": [
        {
          "internalType": "string",
          "name": "_networkName",
          "type": "string"
        }
      ],
      "name": "setNetworkName",
      "outputs": [],
      "stateMutability": "nonpayable",
      "type": "function"
    },
    {
      "inputs": [
        {
          "internalType": "uint64",
          "name": "_numBatch",
          "type": "uint64"
        }
      ],
      "name": "setSequencedBatch",
      "outputs": [],
      "stateMutability": "nonpayable",
      "type": "function"
    },
    {
      "inputs": [
        {
          "internalType": "uint64",
          "name": "batchNum",
          "type": "uint64"
        },
        {
          "internalType": "bytes32",
          "name": "accInputData",
          "type": "bytes32"
        }
      ],
      "name": "setSequencedBatches",
      "outputs": [],
      "stateMutability": "nonpayable",
      "type": "function"
    },
    {
      "inputs": [
        {
          "internalType": "bytes32",
          "name": "newStateRoot",
          "type": "bytes32"
        },
        {
          "internalType": "uint64",
          "name": "batchNum",
          "type": "uint64"
        }
      ],
      "name": "setStateRoot",
      "outputs": [],
      "stateMutability": "nonpayable",
      "type": "function"
    },
    {
      "inputs": [
        {
          "internalType": "address",
          "name": "newTrustedSequencer",
          "type": "address"
        }
      ],
      "name": "setTrustedSequencer",
      "outputs": [],
      "stateMutability": "nonpayable",
      "type": "function"
    },
    {
      "inputs": [
        {
          "internalType": "string",
          "name": "newTrustedSequencerURL",
          "type": "string"
        }
      ],
      "name": "setTrustedSequencerURL",
      "outputs": [],
      "stateMutability": "nonpayable",
      "type": "function"
    },
    {
      "inputs": [
        {
          "internalType": "uint64",
          "name": "_numBatch",
          "type": "uint64"
        }
      ],
      "name": "setVerifiedBatch",
      "outputs": [],
      "stateMutability": "nonpayable",
      "type": "function"
    },
    {
      "inputs": [
        {
          "internalType": "contract IVerifierRollup",
          "name": "_rollupVerifier",
          "type": "address"
        }
      ],
      "name": "setVerifier",
      "outputs": [],
      "stateMutability": "nonpayable",
      "type": "function"
    },
    {
      "inputs": [
        {
          "internalType": "address",
          "name": "newOwner",
          "type": "address"
        }
      ],
      "name": "transferOwnership",
      "outputs": [],
      "stateMutability": "nonpayable",
      "type": "function"
    },
    {
      "inputs": [],
      "name": "trustedSequencer",
      "outputs": [
        {
          "internalType": "address",
          "name": "",
          "type": "address"
        }
      ],
      "stateMutability": "view",
      "type": "function"
    },
    {
      "inputs": [],
      "name": "trustedSequencerURL",
      "outputs": [
        {
          "internalType": "string",
          "name": "",
          "type": "string"
        }
      ],
      "stateMutability": "view",
      "type": "function"
    },
    {
      "inputs": [
        {
          "internalType": "uint64",
          "name": "initNumBatch",
          "type": "uint64"
        },
        {
          "internalType": "uint64",
          "name": "finalNewBatch",
          "type": "uint64"
        },
        {
          "internalType": "bytes32",
          "name": "newLocalExitRoot",
          "type": "bytes32"
        },
        {
          "internalType": "bytes32",
          "name": "newStateRoot",
          "type": "bytes32"
        },
        {
          "internalType": "uint256[2]",
          "name": "proofA",
          "type": "uint256[2]"
        },
        {
          "internalType": "uint256[2][2]",
          "name": "proofB",
          "type": "uint256[2][2]"
        },
        {
          "internalType": "uint256[2]",
          "name": "proofC",
          "type": "uint256[2]"
        }
      ],
      "name": "verifyBatches",
      "outputs": [],
      "stateMutability": "nonpayable",
      "type": "function"
    },
    {
      "inputs": [
        {
          "internalType": "uint64",
          "name": "_lastVerifiedBatch",
          "type": "uint64"
        },
        {
          "internalType": "uint64",
          "name": "newVerifiedBatch",
          "type": "uint64"
        },
        {
          "internalType": "bytes32",
          "name": "newLocalExitRoot",
          "type": "bytes32"
        },
        {
          "internalType": "bytes32",
          "name": "newStateRoot",
          "type": "bytes32"
        },
        {
          "internalType": "uint256[2]",
          "name": "proofA",
          "type": "uint256[2]"
        },
        {
          "internalType": "uint256[2][2]",
          "name": "proofB",
          "type": "uint256[2][2]"
        },
        {
          "internalType": "uint256[2]",
          "name": "proofC",
          "type": "uint256[2]"
        }
      ],
      "name": "verifyBatchesMock",
      "outputs": [],
      "stateMutability": "nonpayable",
      "type": "function"
    }
  ],
  "bytecode": "0x608060405234801561001057600080fd5b506151dd806100206000396000f3fe608060405234801561001057600080fd5b50600436106103205760003560e01c806396dc3d39116101a7578063cfa8ed47116100ee578063e7a7ed0211610097578063f2fde38b11610071578063f2fde38b146107fa578063f75527611461080d578063fe16564f1461081c57600080fd5b8063e7a7ed0214610797578063e8bf92ed146107c7578063eaeb077b146107e757600080fd5b8063d8d1091b116100c8578063d8d1091b1461074f578063d8f54db014610762578063dbc169761461078f57600080fd5b8063cfa8ed47146106f0578063d02103ca1461071c578063d0ae98dd1461073c57600080fd5b8063b02286c011610150578063c0cad3021161012a578063c0cad302146106b7578063c89e42df146106ca578063ca810366146106dd57600080fd5b8063b02286c01461066e578063b4d63f5814610677578063b6b0b0971461069757600080fd5b8063a3c573eb11610181578063a3c573eb14610630578063ab9fc5ef14610650578063adc879e91461065a57600080fd5b806396dc3d391461060257806399f5634e146106155780639b7967601461061d57600080fd5b8063574f649e1161026b5780637152facf116102145780637fcb3653116101ee5780637fcb3653146105bd5780638c4a0af7146105d15780638da5cb5b146105e457600080fd5b80637152facf1461058f578063748608de146105a257806379847057146105b557600080fd5b80636b8616ce116102455780636b8616ce146105545780636ff512cc14610574578063715018a61461058757600080fd5b8063574f649e146104895780635c975abb1461052a5780636766f09d1461054157600080fd5b8063423fa856116102cd578063542028d5116102a7578063542028d51461045b5780635437988d1461046357806355b925e61461047657600080fd5b8063423fa856146103e557806345605267146104055780635392c5e01461042d57600080fd5b80632072f6c5116102fe5780632072f6c51461038557806327eb6c0f1461038d5780633c158267146103d257600080fd5b8063107bf28c1461032557806319d8ac61146103435780631a26da1414610370575b600080fd5b61032d61082f565b60405161033a9190614572565b60405180910390f35b609a546103579067ffffffffffffffff1681565b60405167ffffffffffffffff909116815260200161033a565b61038361037e3660046145a2565b6108bd565b005b6103836108e2565b60a2546103ad9073ffffffffffffffffffffffffffffffffffffffff1681565b60405173ffffffffffffffffffffffffffffffffffffffff909116815260200161033a565b6103836103e0366004614748565b6108f4565b609a546103579068010000000000000000900467ffffffffffffffff1681565b609a5461035790700100000000000000000000000000000000900467ffffffffffffffff1681565b61044d61043b36600461487d565b609d6020526000908152604090205481565b60405190815260200161033a565b61032d611228565b6103836104713660046148c5565b611235565b6103836104843660046148f9565b611284565b61044d61049736600461497c565b835160209485012060408051808701979097528681019190915260608087019490945260c09290921b7fffffffffffffffff00000000000000000000000000000000000000000000000016608086015290911b7fffffffffffffffffffffffffffffffffffffffff0000000000000000000000001660888401528051808403607c018152609c9093019052815191012090565b60655460ff165b604051901515815260200161033a565b61038361054f3660046148f9565b61174d565b61044d61056236600461487d565b60986020526000908152604090205481565b6103836105823660046148c5565b611d83565b610383611ebe565b61032d61059d3660046149f2565b611ed0565b6103836105b03660046148f9565b61213a565b61044d61240b565b609b546103579067ffffffffffffffff1681565b6103836105df366004614a4d565b612485565b60335473ffffffffffffffffffffffffffffffffffffffff166103ad565b61038361061036600461487d565b6125b9565b61044d6125fc565b61038361062b36600461487d565b612729565b60a3546103ad9073ffffffffffffffffffffffffffffffffffffffff1681565b61035762093a8081565b60a0546103579067ffffffffffffffff1681565b61044d61ea6081565b61044d61068536600461487d565b60996020526000908152604090205481565b6097546103ad9073ffffffffffffffffffffffffffffffffffffffff1681565b6103836106c5366004614a6a565b612778565b6103836106d8366004614a6a565b612790565b6103836106eb366004614aa7565b61287f565b609b546103ad9068010000000000000000900473ffffffffffffffffffffffffffffffffffffffff1681565b609c546103ad9073ffffffffffffffffffffffffffffffffffffffff1681565b61044d61074a3660046149f2565b612bc0565b61038361075d366004614b8b565b612eba565b609b54610531907c0100000000000000000000000000000000000000000000000000000000900460ff1681565b610383613568565b609a54610357907801000000000000000000000000000000000000000000000000900467ffffffffffffffff1681565b609e546103ad9073ffffffffffffffffffffffffffffffffffffffff1681565b6103836107f5366004614c9c565b613617565b6103836108083660046148c5565b613ae7565b61044d67016345785d8a000081565b61038361082a366004614ce1565b613b9e565b60a1805461083c90614d0d565b80601f016020809104026020016040519081016040528092919081815260200182805461086890614d0d565b80156108b55780601f1061088a576101008083540402835291602001916108b5565b820191906000526020600020905b81548152906001019060200180831161089857829003601f168201915b505050505081565b6108c5613bc1565b67ffffffffffffffff909116600090815260996020526040902055565b6108ea613bc1565b6108f2613c42565b565b6108fc613cc8565b609b5468010000000000000000900473ffffffffffffffffffffffffffffffffffffffff1633146109b4576040517f08c379a000000000000000000000000000000000000000000000000000000000815260206004820152603f60248201527f50726f6f664f66456666696369656e63793a3a6f6e6c7954727573746564536560448201527f7175656e6365723a206f6e6c7920747275737465642073657175656e6365720060648201526084015b60405180910390fd5b8051609a5467ffffffffffffffff680100000000000000008204811660008181526099602052604081205483851694929370010000000000000000000000000000000090930490921691905b85811015611004576000878281518110610a1c57610a1c614d60565b602002602001015190506000816060015167ffffffffffffffff161115610c875783610a4781614dbe565b945050600081600001518051906020012082602001518360600151604051602001610aaa93929190928352602083019190915260c01b7fffffffffffffffff00000000000000000000000000000000000000000000000016604082015260480190565b604080517fffffffffffffffffffffffffffffffffffffffffffffffffffffffffffffffe0818403018152918152815160209283012067ffffffffffffffff8816600090815260989093529120549091508114610baf576040517f08c379a000000000000000000000000000000000000000000000000000000000815260206004820152604260248201527f50726f6f664f66456666696369656e63793a3a73657175656e6365426174636860448201527f65733a20466f7263656420626174636865732064617461206d757374206d617460648201527f6368000000000000000000000000000000000000000000000000000000000000608482015260a4016109ab565b816060015167ffffffffffffffff16826040015167ffffffffffffffff161015610c81576040517f08c379a000000000000000000000000000000000000000000000000000000000815260206004820152605d60248201527f50726f6f664f66456666696369656e63793a3a73657175656e6365426174636860448201527f65733a20466f7263656420626174636865732074696d657374616d70206d757360648201527f7420626520626967676572206f7220657175616c207468616e206d696e000000608482015260a4016109ab565b50610e55565b60208101511580610d365750609c5460208201516040517f257b363200000000000000000000000000000000000000000000000000000000815273ffffffffffffffffffffffffffffffffffffffff9092169163257b363291610cf09160040190815260200190565b6020604051808303816000875af1158015610d0f573d6000803e3d6000fd5b505050506040513d601f19601f82011682018060405250810190610d339190614de5565b15155b610dc2576040517f08c379a000000000000000000000000000000000000000000000000000000000815260206004820152603f60248201527f50726f6f664f66456666696369656e63793a3a73657175656e6365426174636860448201527f65733a20476c6f62616c206578697420726f6f74206d7573742065786973740060648201526084016109ab565b80515161ea6011610e55576040517f08c379a000000000000000000000000000000000000000000000000000000000815260206004820152603f60248201527f50726f6f664f66456666696369656e63793a3a73657175656e6365426174636860448201527f65733a205472616e73616374696f6e73206279746573206f766572666c6f770060648201526084016109ab565b8567ffffffffffffffff16816040015167ffffffffffffffff1610158015610e8b575042816040015167ffffffffffffffff1611155b610f3d576040517f08c379a000000000000000000000000000000000000000000000000000000000815260206004820152604260248201527f50726f6f664f66456666696369656e63793a3a73657175656e6365426174636860448201527f65733a2054696d657374616d70206d75737420626520696e736964652072616e60648201527f6765000000000000000000000000000000000000000000000000000000000000608482015260a4016109ab565b805180516020918201208183015160408085015181519485018890529084019290925260608084019190915260c09190911b7fffffffffffffffff00000000000000000000000000000000000000000000000016608083015233901b7fffffffffffffffffffffffffffffffffffffffff000000000000000000000000166088820152609c016040516020818303038152906040528051906020012092508480610fe690614dbe565b95505080604001519550508080610ffc90614dfe565b915050610a00565b50609a5467ffffffffffffffff7801000000000000000000000000000000000000000000000000909104811690831611156110c1576040517f08c379a000000000000000000000000000000000000000000000000000000000815260206004820152603a60248201527f50726f6f664f66456666696369656e63793a3a73657175656e6365426174636860448201527f65733a20466f7263652062617463686573206f766572666c6f7700000000000060648201526084016109ab565b609a546000906110ef90700100000000000000000000000000000000900467ffffffffffffffff1684614e36565b6111039067ffffffffffffffff1687614e5f565b609a805467ffffffffffffffff868116700100000000000000000000000000000000027fffffffffffffffff0000000000000000ffffffffffffffffffffffffffffffff8983166801000000000000000081027fffffffffffffffffffffffffffffffff00000000000000000000000000000000909516938c1693909317939093179290921691909117909155600090815260996020526040902083905590506111db33306111ba8467016345785d8a0000614e76565b60975473ffffffffffffffffffffffffffffffffffffffff16929190613d35565b609a546040516801000000000000000090910467ffffffffffffffff16907f303446e6a8cb73c83dff421c0b1d5e5ce0719dab1bff13660fc254e58cc17fce90600090a250505050505050565b609f805461083c90614d0d565b61123d613bc1565b609e80547fffffffffffffffffffffffff00000000000000000000000000000000000000001673ffffffffffffffffffffffffffffffffffffffff92909216919091179055565b61128c613cc8565b609b5467ffffffffffffffff9081169088161115611352576040517f08c379a000000000000000000000000000000000000000000000000000000000815260206004820152605b60248201527f50726f6f664f66456666696369656e63793a3a7665726966794261746368657360448201527f3a20696e69744e756d4261746368206d757374206265206c657373206f72206560648201527f7175616c207468616e206c617374566572696669656442617463680000000000608482015260a4016109ab565b609b5467ffffffffffffffff90811690871611611417576040517f08c379a000000000000000000000000000000000000000000000000000000000815260206004820152605560248201527f50726f6f664f66456666696369656e63793a3a7665726966794261746368657360448201527f3a2066696e616c4e65774261746368206d75737420626520626967676572207460648201527f68616e206c617374566572696669656442617463680000000000000000000000608482015260a4016109ab565b600061142588888888611ed0565b905060007f30644e72e131a029b85045b68181585d2833e84879b9709143e1f593f000000160028360405161145a9190614eb3565b602060405180830381855afa158015611477573d6000803e3d6000fd5b5050506040513d601f19601f8201168201806040525081019061149a9190614de5565b6114a49190614efe565b609e546040805160208101825283815290517f43753b4d00000000000000000000000000000000000000000000000000000000815292935073ffffffffffffffffffffffffffffffffffffffff909116916343753b4d9161150e9189918991899190600401614f12565b602060405180830381865afa15801561152b573d6000803e3d6000fd5b505050506040513d601f19601f8201168201806040525081019061154f9190614f8c565b6115db576040517f08c379a000000000000000000000000000000000000000000000000000000000815260206004820152602f60248201527f50726f6f664f66456666696369656e63793a3a7665726966794261746368657360448201527f3a20494e56414c49445f50524f4f46000000000000000000000000000000000060648201526084016109ab565b609b546116349033906115f89067ffffffffffffffff168b614e36565b67ffffffffffffffff1661160a6125fc565b6116149190614e76565b60975473ffffffffffffffffffffffffffffffffffffffff169190613e11565b609b80547fffffffffffffffffffffffffffffffffffffffffffffffff00000000000000001667ffffffffffffffff8a169081179091556000908152609d602052604090819020879055609c5490517f33d6247d0000000000000000000000000000000000000000000000000000000081526004810189905273ffffffffffffffffffffffffffffffffffffffff909116906333d6247d90602401600060405180830381600087803b1580156116e957600080fd5b505af11580156116fd573d6000803e3d6000fd5b505060405188815233925067ffffffffffffffff8b1691507f9c72852172521097ba7e1482e6b44b351323df0155f97f4ea18fcec28e1f59669060200160405180910390a3505050505050505050565b8567ffffffffffffffff168767ffffffffffffffff1610611816576040517f08c379a000000000000000000000000000000000000000000000000000000000815260206004820152605660248201527f50726f6f664f66456666696369656e63793a3a70726f6f66446966666572656e60448201527f7453746174653a2066696e616c4e65774261746368206d75737420626520626960648201527f67676572207468616e20696e69744e756d426174636800000000000000000000608482015260a4016109ab565b609b5467ffffffffffffffff90811690871611156118dc576040517f08c379a000000000000000000000000000000000000000000000000000000000815260206004820152605860248201527f50726f6f664f66456666696369656e63793a3a70726f6f66446966666572656e60448201527f7453746174653a20696e69744e756d4261746368206d757374206265206c657360648201527f73207468616e206c617374566572696669656442617463680000000000000000608482015260a4016109ab565b67ffffffffffffffff8716158061190b575067ffffffffffffffff87166000908152609d602052604090205415155b6119bd576040517f08c379a000000000000000000000000000000000000000000000000000000000815260206004820152604e60248201527f50726f6f664f66456666696369656e63793a3a70726f6f66446966666572656e60448201527f7453746174653a20696e69744e756d426174636820737461746520726f6f742060648201527f646f6573206e6f74206578697374000000000000000000000000000000000000608482015260a4016109ab565b67ffffffffffffffff86166000908152609d6020526040902054611a89576040517f08c379a000000000000000000000000000000000000000000000000000000000815260206004820152604f60248201527f50726f6f664f66456666696369656e63793a3a70726f6f66446966666572656e60448201527f7453746174653a2066696e616c4e6577426174636820737461746520726f6f7460648201527f20646f6573206e6f742065786973740000000000000000000000000000000000608482015260a4016109ab565b6000611a9788888888611ed0565b905060007f30644e72e131a029b85045b68181585d2833e84879b9709143e1f593f0000001600283604051611acc9190614eb3565b602060405180830381855afa158015611ae9573d6000803e3d6000fd5b5050506040513d601f19601f82011682018060405250810190611b0c9190614de5565b611b169190614efe565b609e546040805160208101825283815290517f43753b4d00000000000000000000000000000000000000000000000000000000815292935073ffffffffffffffffffffffffffffffffffffffff909116916343753b4d91611b809189918991899190600401614f12565b602060405180830381865afa158015611b9d573d6000803e3d6000fd5b505050506040513d601f19601f82011682018060405250810190611bc19190614f8c565b611c4d576040517f08c379a000000000000000000000000000000000000000000000000000000000815260206004820152603560248201527f50726f6f664f66456666696369656e63793a3a70726f6f66446966666572656e60448201527f7453746174653a20494e56414c49445f50524f4f46000000000000000000000060648201526084016109ab565b67ffffffffffffffff88166000908152609d6020526040902054869003611d1c576040517f08c379a000000000000000000000000000000000000000000000000000000000815260206004820152605960248201527f50726f6f664f66456666696369656e63793a3a70726f6f66446966666572656e60448201527f7453746174653a2073746f72656420726f6f74206d757374206265206469666660648201527f6572656e74207468616e206e657720737461746520726f6f7400000000000000608482015260a4016109ab565b67ffffffffffffffff88166000908152609d60209081526040918290205482519081529081018890527fe579d6d18f02941e1d0f59bff70f1b2c894edc991badab38343786df2846fe55910160405180910390a1611d78613c42565b505050505050505050565b609b5468010000000000000000900473ffffffffffffffffffffffffffffffffffffffff163314611e36576040517f08c379a000000000000000000000000000000000000000000000000000000000815260206004820152603f60248201527f50726f6f664f66456666696369656e63793a3a6f6e6c7954727573746564536560448201527f7175656e6365723a206f6e6c7920747275737465642073657175656e6365720060648201526084016109ab565b609b80547fffffffff0000000000000000000000000000000000000000ffffffffffffffff166801000000000000000073ffffffffffffffffffffffffffffffffffffffff8416908102919091179091556040519081527ff54144f9611984021529f814a1cb6a41e22c58351510a0d9f7e822618abb9cc0906020015b60405180910390a150565b611ec6613bc1565b6108f26000613e6c565b67ffffffffffffffff808516600081815260996020526040808220549387168252902054606092911580611f0357508115155b611fb5576040517f08c379a000000000000000000000000000000000000000000000000000000000815260206004820152604560248201527f50726f6f664f66456666696369656e63793a3a676574496e707574536e61726b60448201527f42797465733a206f6c64416363496e7075744861736820646f6573206e6f742060648201527f6578697374000000000000000000000000000000000000000000000000000000608482015260a4016109ab565b80612068576040517f08c379a000000000000000000000000000000000000000000000000000000000815260206004820152604560248201527f50726f6f664f66456666696369656e63793a3a676574496e707574536e61726b60448201527f42797465733a206e6577416363496e7075744861736820646f6573206e6f742060648201527f6578697374000000000000000000000000000000000000000000000000000000608482015260a4016109ab565b67ffffffffffffffff87166000908152609d60209081526040918290205460a05492517fffffffffffffffffffffffffffffffffffffffff0000000000000000000000003360601b16928101929092526034820152605481018490527fffffffffffffffff00000000000000000000000000000000000000000000000060c08a811b8216607484015292831b8116607c8301526084820187905260a4820184905260c482018890529188901b90911660e482015260ec0160405160208183030381529060405292505050949350505050565b612142613bc1565b609b5467ffffffffffffffff9081169088161115612208576040517f08c379a000000000000000000000000000000000000000000000000000000000815260206004820152604a60248201527f50726f6f664f66456666696369656e63793a3a7665726966794261746368657360448201527f3a205f6c61737456657269666965644261746368206d757374206265206c657360648201527f73206f7220657175616c00000000000000000000000000000000000000000000608482015260a4016109ab565b609b5467ffffffffffffffff908116908716116122cd576040517f08c379a000000000000000000000000000000000000000000000000000000000815260206004820152605860248201527f50726f6f664f66456666696369656e63793a3a7665726966794261746368657360448201527f3a206e657756657269666965644261746368206d75737420626520626967676560648201527f72207468616e206c617374566572696669656442617463680000000000000000608482015260a4016109ab565b67ffffffffffffffff8088166000908152609960205260408082205492891682529020548161237e576040517f08c379a000000000000000000000000000000000000000000000000000000000815260206004820152603e60248201527f50726f6f664f66456666696369656e63793a3a76657269667942617463683a2060448201527f6f6c64416363496e7075744861736820646f6573206e6f74206578697374000060648201526084016109ab565b80611634576040517f08c379a000000000000000000000000000000000000000000000000000000000815260206004820152603e60248201527f50726f6f664f66456666696369656e63793a3a76657269667942617463683a2060448201527f6e6577416363496e7075744861736820646f6573206e6f74206578697374000060648201526084016109ab565b609a5460009067ffffffffffffffff700100000000000000000000000000000000820481169161245a917801000000000000000000000000000000000000000000000000909104166001614fa9565b6124649190614e36565b6124809067ffffffffffffffff16670de0b6b3a7640000614e76565b905090565b609b5468010000000000000000900473ffffffffffffffffffffffffffffffffffffffff163314612538576040517f08c379a000000000000000000000000000000000000000000000000000000000815260206004820152603f60248201527f50726f6f664f66456666696369656e63793a3a6f6e6c7954727573746564536560448201527f7175656e6365723a206f6e6c7920747275737465642073657175656e6365720060648201526084016109ab565b609b80548215157c0100000000000000000000000000000000000000000000000000000000027fffffff00ffffffffffffffffffffffffffffffffffffffffffffffffffffffff9091161790556040517fbacda50a4a8575be1d91a7ebe29ee45056f3a94f12a2281eb6b43afa33bcefe690611eb390831515815260200190565b6125c1613bc1565b609b80547fffffffffffffffffffffffffffffffffffffffffffffffff00000000000000001667ffffffffffffffff92909216919091179055565b6097546040517f70a08231000000000000000000000000000000000000000000000000000000008152306004820152600091829173ffffffffffffffffffffffffffffffffffffffff909116906370a0823190602401602060405180830381865afa15801561266f573d6000803e3d6000fd5b505050506040513d601f19601f820116820180604052508101906126939190614de5565b609b54609a5491925060009167ffffffffffffffff918216916801000000000000000082048116916126f89170010000000000000000000000000000000082048116917801000000000000000000000000000000000000000000000000900416614e36565b6127029190614fa9565b61270c9190614e36565b67ffffffffffffffff1690506127228183614fd5565b9250505090565b612731613bc1565b609a805467ffffffffffffffff90921668010000000000000000027fffffffffffffffffffffffffffffffff0000000000000000ffffffffffffffff909216919091179055565b612780613bc1565b60a161278c8282615037565b5050565b609b5468010000000000000000900473ffffffffffffffffffffffffffffffffffffffff163314612843576040517f08c379a000000000000000000000000000000000000000000000000000000000815260206004820152603f60248201527f50726f6f664f66456666696369656e63793a3a6f6e6c7954727573746564536560448201527f7175656e6365723a206f6e6c7920747275737465642073657175656e6365720060648201526084016109ab565b609f61284f8282615037565b507f6b8f723a4c7a5335cafae8a598a0aa0301be1387c037dccc085b62add6448b2081604051611eb39190614572565b600054610100900460ff161580801561289f5750600054600160ff909116105b806128b95750303b1580156128b9575060005460ff166001145b612945576040517f08c379a000000000000000000000000000000000000000000000000000000000815260206004820152602e60248201527f496e697469616c697a61626c653a20636f6e747261637420697320616c72656160448201527f647920696e697469616c697a656400000000000000000000000000000000000060648201526084016109ab565b600080547fffffffffffffffffffffffffffffffffffffffffffffffffffffffffffffff0016600117905580156129a357600080547fffffffffffffffffffffffffffffffffffffffffffffffffffffffffffff00ff166101001790555b609c80547fffffffffffffffffffffffff000000000000000000000000000000000000000090811673ffffffffffffffffffffffffffffffffffffffff8e8116919091179092556097805482168d8416179055609e80549091168b831617905560008052609d6020527fc5dc36ae4e7617e4c4d23ddfcde33c79e9ed64c300aed766a9288a6b9b31f63d899055609b80547fffffff000000000000000000000000000000000000000000ffffffffffffffff1668010000000000000000928a16929092027fffffff00ffffffffffffffffffffffffffffffffffffffffffffffffffffffff16919091177c010000000000000000000000000000000000000000000000000000000088151502179055609f612abe8682615037565b5060a080547fffffffffffffffffffffffffffffffffffffffffffffffff00000000000000001667ffffffffffffffff861617905560a1612aff8482615037565b5060a380547fffffffffffffffffffffffff00000000000000000000000000000000000000001673ffffffffffffffffffffffffffffffffffffffff8416179055612b48613ee3565b612b50613f83565b8015612bb357600080547fffffffffffffffffffffffffffffffffffffffffffffffffffffffffffff00ff169055604051600181527f7f26b83ff96e1f2b6a682f133852f6798a09c465da95921460cefb38474024989060200160405180910390a15b5050505050505050505050565b609b5460009067ffffffffffffffff868116911614612c87576040517f08c379a000000000000000000000000000000000000000000000000000000000815260206004820152604160248201527f50726f6f664f66456666696369656e63793a3a76657269667942617463683a2060448201527f5f6c6173745665726966696564426174636820646f6573206e6f74206d61746360648201527f6800000000000000000000000000000000000000000000000000000000000000608482015260a4016109ab565b8467ffffffffffffffff168467ffffffffffffffff1611612d50576040517f08c379a000000000000000000000000000000000000000000000000000000000815260206004820152605660248201527f50726f6f664f66456666696369656e63793a3a76657269667942617463683a2060448201527f6e657756657269666965644261746368206d757374206265206269676765722060648201527f7468616e206c6173745665726966696564426174636800000000000000000000608482015260a4016109ab565b609a5467ffffffffffffffff6801000000000000000090910481169085161115612e22576040517f08c379a000000000000000000000000000000000000000000000000000000000815260206004820152604260248201527f50726f6f664f66456666696369656e63793a3a76657269667942617463683a2060448201527f626174636820646f6573206e6f742068617665206265656e2073657175656e6360648201527f6564000000000000000000000000000000000000000000000000000000000000608482015260a4016109ab565b6000612e3086868686611ed0565b905060007f30644e72e131a029b85045b68181585d2833e84879b9709143e1f593f0000001600283604051612e659190614eb3565b602060405180830381855afa158015612e82573d6000803e3d6000fd5b5050506040513d601f19601f82011682018060405250810190612ea59190614de5565b612eaf9190614efe565b979650505050505050565b612ec2613cc8565b609b547c0100000000000000000000000000000000000000000000000000000000900460ff161515600114612f9f576040517f08c379a000000000000000000000000000000000000000000000000000000000815260206004820152604860248201527f50726f6f664f66456666696369656e63793a3a6973466f72636542617463684160448201527f6c6c6f7765643a206f6e6c7920696620666f726365206261746368206973206160648201527f7661696c61626c65000000000000000000000000000000000000000000000000608482015260a4016109ab565b805180613054576040517f08c379a000000000000000000000000000000000000000000000000000000000815260206004820152604260248201527f50726f6f664f66456666696369656e63793a3a73657175656e6365466f72636560448201527f42617463683a204d75737420666f726365206174206c6561737420312062617460648201527f6368000000000000000000000000000000000000000000000000000000000000608482015260a4016109ab565b609a5467ffffffffffffffff7801000000000000000000000000000000000000000000000000820481169161309f918491700100000000000000000000000000000000900416615151565b111561312d576040517f08c379a000000000000000000000000000000000000000000000000000000000815260206004820152603a60248201527f50726f6f664f66456666696369656e63793a3a73657175656e6365466f72636560448201527f42617463683a20466f72636520626174636820696e76616c696400000000000060648201526084016109ab565b609a5467ffffffffffffffff680100000000000000008204811660008181526099602052604081205491937001000000000000000000000000000000009004909216915b8481101561349857600086828151811061318d5761318d614d60565b6020026020010151905083806131a290614dbe565b825180516020918201208185015160408087015181519485019390935283015260c01b7fffffffffffffffff00000000000000000000000000000000000000000000000016606082015290955060009150606801604080517fffffffffffffffffffffffffffffffffffffffffffffffffffffffffffffffe0818403018152918152815160209283012067ffffffffffffffff88166000908152609890935291205490915081146132fb576040517f08c379a000000000000000000000000000000000000000000000000000000000815260206004820152604760248201527f50726f6f664f66456666696369656e63793a3a73657175656e6365466f72636560448201527f426174636865733a20466f7263656420626174636865732064617461206d757360648201527f74206d6174636800000000000000000000000000000000000000000000000000608482015260a4016109ab565b613306600188614e5f565b83036133de574262093a8083604001516133209190614fa9565b67ffffffffffffffff1611156133de576040517f08c379a000000000000000000000000000000000000000000000000000000000815260206004820152604c60248201527f50726f6f664f66456666696369656e63793a3a73657175656e6365466f72636560448201527f42617463683a20466f72636564206261746368206973206e6f7420696e20746960648201527f6d656f757420706572696f640000000000000000000000000000000000000000608482015260a4016109ab565b8151805160209182012081840151604080519384018890528301919091526060808301919091524260c01b7fffffffffffffffff00000000000000000000000000000000000000000000000016608083015233901b7fffffffffffffffffffffffffffffffffffffffff000000000000000000000000166088820152609c01604051602081830303815290604052805190602001209350858061348090614dbe565b9650505050808061349090614dfe565b915050613171565b50609a80544267ffffffffffffffff9081167fffffffffffffffffffffffffffffffff000000000000000000000000000000009092169190911768010000000000000000868316818102929092177fffffffffffffffff0000000000000000ffffffffffffffffffffffffffffffff1670010000000000000000000000000000000087851602178455600091825260996020526040808320869055935493519304909116917f648a61dd2438f072f5a1960939abd30f37aea80d2e94c9792ad142d3e0a490a49190a25050505050565b60a25473ffffffffffffffffffffffffffffffffffffffff16331461360f576040517f08c379a000000000000000000000000000000000000000000000000000000000815260206004820152603d60248201527f50726f6f664f66456666696369656e63793a3a6f6e6c7953656375726974794360448201527f6f756e63696c3a206f6e6c7920736563757269747920636f756e63696c00000060648201526084016109ab565b6108f2614044565b61361f613cc8565b609b547c0100000000000000000000000000000000000000000000000000000000900460ff1615156001146136fc576040517f08c379a000000000000000000000000000000000000000000000000000000000815260206004820152604860248201527f50726f6f664f66456666696369656e63793a3a6973466f72636542617463684160448201527f6c6c6f7765643a206f6e6c7920696620666f726365206261746368206973206160648201527f7661696c61626c65000000000000000000000000000000000000000000000000608482015260a4016109ab565b600061370661240b565b905081811115613798576040517f08c379a000000000000000000000000000000000000000000000000000000000815260206004820152602f60248201527f50726f6f664f66456666696369656e63793a3a666f72636542617463683a206e60448201527f6f7420656e6f756768206d61746963000000000000000000000000000000000060648201526084016109ab565b61ea6083511061382a576040517f08c379a000000000000000000000000000000000000000000000000000000000815260206004820152603a60248201527f50726f6f664f66456666696369656e63793a3a666f72636542617463683a205460448201527f72616e73616374696f6e73206279746573206f766572666c6f7700000000000060648201526084016109ab565b60975461384f9073ffffffffffffffffffffffffffffffffffffffff16333084613d35565b609c54604080517f3ed691ef000000000000000000000000000000000000000000000000000000008152905160009273ffffffffffffffffffffffffffffffffffffffff1691633ed691ef9160048083019260209291908290030181865afa1580156138bf573d6000803e3d6000fd5b505050506040513d601f19601f820116820180604052508101906138e39190614de5565b609a8054919250780100000000000000000000000000000000000000000000000090910467ffffffffffffffff1690601861391d83614dbe565b91906101000a81548167ffffffffffffffff021916908367ffffffffffffffff160217905550508380519060200120814260405160200161399693929190928352602083019190915260c01b7fffffffffffffffff00000000000000000000000000000000000000000000000016604082015260480190565b604080518083037fffffffffffffffffffffffffffffffffffffffffffffffffffffffffffffffe00181529181528151602092830120609a547801000000000000000000000000000000000000000000000000900467ffffffffffffffff1660009081526098909352912055323303613a8457609a54604080518381523360208201526060918101829052600091810191909152780100000000000000000000000000000000000000000000000090910467ffffffffffffffff16907ff94bb37db835f1ab585ee00041849a09b12cd081d77fa15ca070757619cbc9319060800160405180910390a2613ae1565b609a60189054906101000a900467ffffffffffffffff1667ffffffffffffffff167ff94bb37db835f1ab585ee00041849a09b12cd081d77fa15ca070757619cbc931823387604051613ad893929190615169565b60405180910390a25b50505050565b613aef613bc1565b73ffffffffffffffffffffffffffffffffffffffff8116613b92576040517f08c379a000000000000000000000000000000000000000000000000000000000815260206004820152602660248201527f4f776e61626c653a206e6577206f776e657220697320746865207a65726f206160448201527f646472657373000000000000000000000000000000000000000000000000000060648201526084016109ab565b613b9b81613e6c565b50565b613ba6613bc1565b67ffffffffffffffff166000908152609d6020526040902055565b60335473ffffffffffffffffffffffffffffffffffffffff1633146108f2576040517f08c379a000000000000000000000000000000000000000000000000000000000815260206004820181905260248201527f4f776e61626c653a2063616c6c6572206973206e6f7420746865206f776e657260448201526064016109ab565b613c4a6140b6565b60a360009054906101000a900473ffffffffffffffffffffffffffffffffffffffff1673ffffffffffffffffffffffffffffffffffffffff16638456cb596040518163ffffffff1660e01b8152600401600060405180830381600087803b158015613cb457600080fd5b505af1158015613ae1573d6000803e3d6000fd5b60655460ff16156108f2576040517f08c379a000000000000000000000000000000000000000000000000000000000815260206004820152601060248201527f5061757361626c653a207061757365640000000000000000000000000000000060448201526064016109ab565b60405173ffffffffffffffffffffffffffffffffffffffff80851660248301528316604482015260648101829052613ae19085907f23b872dd00000000000000000000000000000000000000000000000000000000906084015b604080517fffffffffffffffffffffffffffffffffffffffffffffffffffffffffffffffe08184030181529190526020810180517bffffffffffffffffffffffffffffffffffffffffffffffffffffffff167fffffffff000000000000000000000000000000000000000000000000000000009093169290921790915261413b565b60405173ffffffffffffffffffffffffffffffffffffffff8316602482015260448101829052613e679084907fa9059cbb0000000000000000000000000000000000000000000000000000000090606401613d8f565b505050565b6033805473ffffffffffffffffffffffffffffffffffffffff8381167fffffffffffffffffffffffff0000000000000000000000000000000000000000831681179093556040519116919082907f8be0079c531659141344cd1fd0a4f28419497f9722a3daafe3b4186f6b6457e090600090a35050565b600054610100900460ff16613f7a576040517f08c379a000000000000000000000000000000000000000000000000000000000815260206004820152602b60248201527f496e697469616c697a61626c653a20636f6e7472616374206973206e6f74206960448201527f6e697469616c697a696e6700000000000000000000000000000000000000000060648201526084016109ab565b6108f233613e6c565b600054610100900460ff1661401a576040517f08c379a000000000000000000000000000000000000000000000000000000000815260206004820152602b60248201527f496e697469616c697a61626c653a20636f6e7472616374206973206e6f74206960448201527f6e697469616c697a696e6700000000000000000000000000000000000000000060648201526084016109ab565b606580547fffffffffffffffffffffffffffffffffffffffffffffffffffffffffffffff00169055565b61404c614247565b60a360009054906101000a900473ffffffffffffffffffffffffffffffffffffffff1673ffffffffffffffffffffffffffffffffffffffff16633f4ba83a6040518163ffffffff1660e01b8152600401600060405180830381600087803b158015613cb457600080fd5b6140be613cc8565b606580547fffffffffffffffffffffffffffffffffffffffffffffffffffffffffffffff001660011790557f62e78cea01bee320cd4e420270b5ea74000d11b0c9f74754ebdbfc544b05a2586141113390565b60405173ffffffffffffffffffffffffffffffffffffffff909116815260200160405180910390a1565b600061419d826040518060400160405280602081526020017f5361666545524332303a206c6f772d6c6576656c2063616c6c206661696c65648152508573ffffffffffffffffffffffffffffffffffffffff1661429e9092919063ffffffff16565b805190915015613e6757808060200190518101906141bb9190614f8c565b613e67576040517f08c379a000000000000000000000000000000000000000000000000000000000815260206004820152602a60248201527f5361666545524332303a204552433230206f7065726174696f6e20646964206e60448201527f6f7420737563636565640000000000000000000000000000000000000000000060648201526084016109ab565b61424f6142b7565b606580547fffffffffffffffffffffffffffffffffffffffffffffffffffffffffffffff001690557f5db9ee0a495bf2e6ff9c91a7834c1ba4fdd244a5e8aa4e537bd38aeae4b073aa33614111565b60606142ad8484600085614323565b90505b9392505050565b60655460ff166108f2576040517f08c379a000000000000000000000000000000000000000000000000000000000815260206004820152601460248201527f5061757361626c653a206e6f742070617573656400000000000000000000000060448201526064016109ab565b6060824710156143b5576040517f08c379a000000000000000000000000000000000000000000000000000000000815260206004820152602660248201527f416464726573733a20696e73756666696369656e742062616c616e636520666f60448201527f722063616c6c000000000000000000000000000000000000000000000000000060648201526084016109ab565b73ffffffffffffffffffffffffffffffffffffffff85163b614433576040517f08c379a000000000000000000000000000000000000000000000000000000000815260206004820152601d60248201527f416464726573733a2063616c6c20746f206e6f6e2d636f6e747261637400000060448201526064016109ab565b6000808673ffffffffffffffffffffffffffffffffffffffff16858760405161445c9190614eb3565b60006040518083038185875af1925050503d8060008114614499576040519150601f19603f3d011682016040523d82523d6000602084013e61449e565b606091505b5091509150612eaf828286606083156144b85750816142b0565b8251156144c85782518084602001fd5b816040517f08c379a00000000000000000000000000000000000000000000000000000000081526004016109ab9190614572565b60005b838110156145175781810151838201526020016144ff565b83811115613ae15750506000910152565b600081518084526145408160208601602086016144fc565b601f017fffffffffffffffffffffffffffffffffffffffffffffffffffffffffffffffe0169290920160200192915050565b6020815260006142b06020830184614528565b803567ffffffffffffffff8116811461459d57600080fd5b919050565b600080604083850312156145b557600080fd5b6145be83614585565b946020939093013593505050565b7f4e487b7100000000000000000000000000000000000000000000000000000000600052604160045260246000fd5b6040516080810167ffffffffffffffff8111828210171561461e5761461e6145cc565b60405290565b6040516060810167ffffffffffffffff8111828210171561461e5761461e6145cc565b604051601f82017fffffffffffffffffffffffffffffffffffffffffffffffffffffffffffffffe016810167ffffffffffffffff8111828210171561468e5761468e6145cc565b604052919050565b600067ffffffffffffffff8211156146b0576146b06145cc565b5060051b60200190565b600082601f8301126146cb57600080fd5b813567ffffffffffffffff8111156146e5576146e56145cc565b61471660207fffffffffffffffffffffffffffffffffffffffffffffffffffffffffffffffe0601f84011601614647565b81815284602083860101111561472b57600080fd5b816020850160208301376000918101602001919091529392505050565b6000602080838503121561475b57600080fd5b823567ffffffffffffffff8082111561477357600080fd5b818501915085601f83011261478757600080fd5b813561479a61479582614696565b614647565b81815260059190911b830184019084810190888311156147b957600080fd5b8585015b83811015614870578035858111156147d55760008081fd5b86016080818c037fffffffffffffffffffffffffffffffffffffffffffffffffffffffffffffffe00181131561480b5760008081fd5b6148136145fb565b89830135888111156148255760008081fd5b6148338e8c838701016146ba565b8252506040808401358b830152606061484d818601614585565b8284015261485c848601614585565b9083015250855250509186019186016147bd565b5098975050505050505050565b60006020828403121561488f57600080fd5b6142b082614585565b73ffffffffffffffffffffffffffffffffffffffff81168114613b9b57600080fd5b803561459d81614898565b6000602082840312156148d757600080fd5b81356142b081614898565b80604081018310156148f357600080fd5b92915050565b6000806000806000806000610180888a03121561491557600080fd5b61491e88614585565b965061492c60208901614585565b955060408801359450606088013593506149498960808a016148e2565b925061014088018981111561495d57600080fd5b60c08901925061496d8a826148e2565b91505092959891949750929550565b600080600080600060a0868803121561499457600080fd5b85359450602086013567ffffffffffffffff8111156149b257600080fd5b6149be888289016146ba565b945050604086013592506149d460608701614585565b915060808601356149e481614898565b809150509295509295909350565b60008060008060808587031215614a0857600080fd5b614a1185614585565b9350614a1f60208601614585565b93969395505050506040820135916060013590565b8015158114613b9b57600080fd5b803561459d81614a34565b600060208284031215614a5f57600080fd5b81356142b081614a34565b600060208284031215614a7c57600080fd5b813567ffffffffffffffff811115614a9357600080fd5b614a9f848285016146ba565b949350505050565b6000806000806000806000806000806101408b8d031215614ac757600080fd5b614ad08b6148ba565b9950614ade60208c016148ba565b9850614aec60408c016148ba565b975060608b01359650614b0160808c016148ba565b9550614b0f60a08c01614a42565b945060c08b013567ffffffffffffffff80821115614b2c57600080fd5b614b388e838f016146ba565b9550614b4660e08e01614585565b94506101008d0135915080821115614b5d57600080fd5b50614b6a8d828e016146ba565b925050614b7a6101208c016148ba565b90509295989b9194979a5092959850565b60006020808385031215614b9e57600080fd5b823567ffffffffffffffff80821115614bb657600080fd5b818501915085601f830112614bca57600080fd5b8135614bd861479582614696565b81815260059190911b83018401908481019088831115614bf757600080fd5b8585015b8381101561487057803585811115614c135760008081fd5b86016060818c037fffffffffffffffffffffffffffffffffffffffffffffffffffffffffffffffe001811315614c495760008081fd5b614c51614624565b8983013588811115614c635760008081fd5b614c718e8c838701016146ba565b8252506040808401358b830152614c89838501614585565b9082015285525050918601918601614bfb565b60008060408385031215614caf57600080fd5b823567ffffffffffffffff811115614cc657600080fd5b614cd2858286016146ba565b95602094909401359450505050565b60008060408385031215614cf457600080fd5b82359150614d0460208401614585565b90509250929050565b600181811c90821680614d2157607f821691505b602082108103614d5a577f4e487b7100000000000000000000000000000000000000000000000000000000600052602260045260246000fd5b50919050565b7f4e487b7100000000000000000000000000000000000000000000000000000000600052603260045260246000fd5b7f4e487b7100000000000000000000000000000000000000000000000000000000600052601160045260246000fd5b600067ffffffffffffffff808316818103614ddb57614ddb614d8f565b6001019392505050565b600060208284031215614df757600080fd5b5051919050565b60007fffffffffffffffffffffffffffffffffffffffffffffffffffffffffffffffff8203614e2f57614e2f614d8f565b5060010190565b600067ffffffffffffffff83811690831681811015614e5757614e57614d8f565b039392505050565b600082821015614e7157614e71614d8f565b500390565b6000817fffffffffffffffffffffffffffffffffffffffffffffffffffffffffffffffff0483118215151615614eae57614eae614d8f565b500290565b60008251614ec58184602087016144fc565b9190910192915050565b7f4e487b7100000000000000000000000000000000000000000000000000000000600052601260045260246000fd5b600082614f0d57614f0d614ecf565b500690565b61012081016040808784376000838201818152879190815b6002811015614f4a57848483379084018281529284019290600101614f2a565b5050828760c0870137610100850181815286935091505b6001811015614f80578251825260209283019290910190600101614f61565b50505095945050505050565b600060208284031215614f9e57600080fd5b81516142b081614a34565b600067ffffffffffffffff808316818516808303821115614fcc57614fcc614d8f565b01949350505050565b600082614fe457614fe4614ecf565b500490565b601f821115613e6757600081815260208120601f850160051c810160208610156150105750805b601f850160051c820191505b8181101561502f5782815560010161501c565b505050505050565b815167ffffffffffffffff811115615051576150516145cc565b6150658161505f8454614d0d565b84614fe9565b602080601f8311600181146150b857600084156150825750858301515b7fffffffffffffffffffffffffffffffffffffffffffffffffffffffffffffffff600386901b1c1916600185901b17855561502f565b6000858152602081207fffffffffffffffffffffffffffffffffffffffffffffffffffffffffffffffe08616915b82811015615105578886015182559484019460019091019084016150e6565b508582101561514157878501517fffffffffffffffffffffffffffffffffffffffffffffffffffffffffffffffff600388901b60f8161c191681555b5050505050600190811b01905550565b6000821982111561516457615164614d8f565b500190565b83815273ffffffffffffffffffffffffffffffffffffffff8316602082015260606040820152600061519e6060830184614528565b9594505050505056fea2646970667358221220201327290f830f468beb202a477ac5abec6f76764bb865b8007014247823a8a664736f6c634300080f0033",
  "linkReferences": {},
  "deployedLinkReferences": {}
}