{
  "_format": "hh-sol-artifact-1",
  "contractName": "Supernets2",
  "sourceName": "contracts/Supernets2.sol",
  "abi": [
    {
      "inputs": [
        {
          "internalType": "contract IPolygonZkEVMGlobalExitRoot",
          "name": "_globalExitRootManager",
          "type": "address"
        },
        {
          "internalType": "contract IERC20Upgradeable",
          "name": "_matic",
          "type": "address"
        },
        {
          "internalType": "contract IVerifierRollup",
          "name": "_rollupVerifier",
          "type": "address"
        },
        {
          "internalType": "contract IPolygonZkEVMBridge",
          "name": "_bridgeAddress",
          "type": "address"
        },
        {
          "internalType": "contract ISupernets2DataCommittee",
          "name": "_dataCommitteeAddress",
          "type": "address"
        },
        {
          "internalType": "uint64",
          "name": "_chainID",
          "type": "uint64"
        },
        {
          "internalType": "uint64",
          "name": "_forkID",
          "type": "uint64"
        }
      ],
      "stateMutability": "nonpayable",
      "type": "constructor"
    },
    {
      "inputs": [],
      "name": "BatchAlreadyVerified",
      "type": "error"
    },
    {
      "inputs": [],
      "name": "BatchNotSequencedOrNotSequenceEnd",
      "type": "error"
    },
    {
      "inputs": [],
      "name": "ExceedMaxVerifyBatches",
      "type": "error"
    },
    {
      "inputs": [],
      "name": "FinalNumBatchBelowLastVerifiedBatch",
      "type": "error"
    },
    {
      "inputs": [],
      "name": "FinalNumBatchDoesNotMatchPendingState",
      "type": "error"
    },
    {
      "inputs": [],
      "name": "FinalPendingStateNumInvalid",
      "type": "error"
    },
    {
      "inputs": [],
      "name": "ForceBatchNotAllowed",
      "type": "error"
    },
    {
      "inputs": [],
      "name": "ForceBatchTimeoutNotExpired",
      "type": "error"
    },
    {
      "inputs": [],
      "name": "ForceBatchesAlreadyActive",
      "type": "error"
    },
    {
      "inputs": [],
      "name": "ForceBatchesOverflow",
      "type": "error"
    },
    {
      "inputs": [],
      "name": "ForcedDataDoesNotMatch",
      "type": "error"
    },
    {
      "inputs": [],
      "name": "GlobalExitRootNotExist",
      "type": "error"
    },
    {
      "inputs": [],
      "name": "HaltTimeoutNotExpired",
      "type": "error"
    },
    {
      "inputs": [],
      "name": "InitNumBatchAboveLastVerifiedBatch",
      "type": "error"
    },
    {
      "inputs": [],
      "name": "InitNumBatchDoesNotMatchPendingState",
      "type": "error"
    },
    {
      "inputs": [],
      "name": "InvalidProof",
      "type": "error"
    },
    {
      "inputs": [],
      "name": "InvalidRangeBatchTimeTarget",
      "type": "error"
    },
    {
      "inputs": [],
      "name": "InvalidRangeForceBatchTimeout",
      "type": "error"
    },
    {
      "inputs": [],
      "name": "InvalidRangeMultiplierBatchFee",
      "type": "error"
    },
    {
      "inputs": [],
      "name": "NewAccInputHashDoesNotExist",
      "type": "error"
    },
    {
      "inputs": [],
      "name": "NewPendingStateTimeoutMustBeLower",
      "type": "error"
    },
    {
      "inputs": [],
      "name": "NewStateRootNotInsidePrime",
      "type": "error"
    },
    {
      "inputs": [],
      "name": "NewTrustedAggregatorTimeoutMustBeLower",
      "type": "error"
    },
    {
      "inputs": [],
      "name": "NotEnoughMaticAmount",
      "type": "error"
    },
    {
      "inputs": [],
      "name": "OldAccInputHashDoesNotExist",
      "type": "error"
    },
    {
      "inputs": [],
      "name": "OldStateRootDoesNotExist",
      "type": "error"
    },
    {
      "inputs": [],
      "name": "OnlyAdmin",
      "type": "error"
    },
    {
      "inputs": [],
      "name": "OnlyEmergencyState",
      "type": "error"
    },
    {
      "inputs": [],
      "name": "OnlyNotEmergencyState",
      "type": "error"
    },
    {
      "inputs": [],
      "name": "OnlyPendingAdmin",
      "type": "error"
    },
    {
      "inputs": [],
      "name": "OnlyTrustedAggregator",
      "type": "error"
    },
    {
      "inputs": [],
      "name": "OnlyTrustedSequencer",
      "type": "error"
    },
    {
      "inputs": [],
      "name": "PendingStateDoesNotExist",
      "type": "error"
    },
    {
      "inputs": [],
      "name": "PendingStateInvalid",
      "type": "error"
    },
    {
      "inputs": [],
      "name": "PendingStateNotConsolidable",
      "type": "error"
    },
    {
      "inputs": [],
      "name": "PendingStateTimeoutExceedHaltAggregationTimeout",
      "type": "error"
    },
    {
      "inputs": [],
      "name": "SequenceZeroBatches",
      "type": "error"
    },
    {
      "inputs": [],
      "name": "SequencedTimestampBelowForcedTimestamp",
      "type": "error"
    },
    {
      "inputs": [],
      "name": "SequencedTimestampInvalid",
      "type": "error"
    },
    {
      "inputs": [],
      "name": "StoredRootMustBeDifferentThanNewRoot",
      "type": "error"
    },
    {
      "inputs": [],
      "name": "TransactionsLengthAboveMax",
      "type": "error"
    },
    {
      "inputs": [],
      "name": "TrustedAggregatorTimeoutExceedHaltAggregationTimeout",
      "type": "error"
    },
    {
      "inputs": [],
      "name": "TrustedAggregatorTimeoutNotExpired",
      "type": "error"
    },
    {
      "anonymous": false,
      "inputs": [
        {
          "indexed": false,
          "internalType": "address",
          "name": "newAdmin",
          "type": "address"
        }
      ],
      "name": "AcceptAdminRole",
      "type": "event"
    },
    {
      "anonymous": false,
      "inputs": [],
      "name": "ActivateForceBatches",
      "type": "event"
    },
    {
      "anonymous": false,
      "inputs": [
        {
          "indexed": true,
          "internalType": "uint64",
          "name": "numBatch",
          "type": "uint64"
        },
        {
          "indexed": false,
          "internalType": "bytes32",
          "name": "stateRoot",
          "type": "bytes32"
        },
        {
          "indexed": true,
          "internalType": "uint64",
          "name": "pendingStateNum",
          "type": "uint64"
        }
      ],
      "name": "ConsolidatePendingState",
      "type": "event"
    },
    {
      "anonymous": false,
      "inputs": [],
      "name": "EmergencyStateActivated",
      "type": "event"
    },
    {
      "anonymous": false,
      "inputs": [],
      "name": "EmergencyStateDeactivated",
      "type": "event"
    },
    {
      "anonymous": false,
      "inputs": [
        {
          "indexed": true,
          "internalType": "uint64",
          "name": "forceBatchNum",
          "type": "uint64"
        },
        {
          "indexed": false,
          "internalType": "bytes32",
          "name": "lastGlobalExitRoot",
          "type": "bytes32"
        },
        {
          "indexed": false,
          "internalType": "address",
          "name": "sequencer",
          "type": "address"
        },
        {
          "indexed": false,
          "internalType": "bytes",
          "name": "transactions",
          "type": "bytes"
        }
      ],
      "name": "ForceBatch",
      "type": "event"
    },
    {
      "anonymous": false,
      "inputs": [
        {
          "indexed": false,
          "internalType": "uint8",
          "name": "version",
          "type": "uint8"
        }
      ],
      "name": "Initialized",
      "type": "event"
    },
    {
      "anonymous": false,
      "inputs": [
        {
          "indexed": true,
          "internalType": "uint64",
          "name": "numBatch",
          "type": "uint64"
        },
        {
          "indexed": false,
          "internalType": "bytes32",
          "name": "stateRoot",
          "type": "bytes32"
        },
        {
          "indexed": true,
          "internalType": "address",
          "name": "aggregator",
          "type": "address"
        }
      ],
      "name": "OverridePendingState",
      "type": "event"
    },
    {
      "anonymous": false,
      "inputs": [
        {
          "indexed": true,
          "internalType": "address",
          "name": "previousOwner",
          "type": "address"
        },
        {
          "indexed": true,
          "internalType": "address",
          "name": "newOwner",
          "type": "address"
        }
      ],
      "name": "OwnershipTransferred",
      "type": "event"
    },
    {
      "anonymous": false,
      "inputs": [
        {
          "indexed": false,
          "internalType": "bytes32",
          "name": "storedStateRoot",
          "type": "bytes32"
        },
        {
          "indexed": false,
          "internalType": "bytes32",
          "name": "provedStateRoot",
          "type": "bytes32"
        }
      ],
      "name": "ProveNonDeterministicPendingState",
      "type": "event"
    },
    {
      "anonymous": false,
      "inputs": [
        {
          "indexed": true,
          "internalType": "uint64",
          "name": "numBatch",
          "type": "uint64"
        }
      ],
      "name": "SequenceBatches",
      "type": "event"
    },
    {
      "anonymous": false,
      "inputs": [
        {
          "indexed": true,
          "internalType": "uint64",
          "name": "numBatch",
          "type": "uint64"
        }
      ],
      "name": "SequenceForceBatches",
      "type": "event"
    },
    {
      "anonymous": false,
      "inputs": [
        {
          "indexed": false,
          "internalType": "uint64",
          "name": "newforceBatchTimeout",
          "type": "uint64"
        }
      ],
      "name": "SetForceBatchTimeout",
      "type": "event"
    },
    {
      "anonymous": false,
      "inputs": [
        {
          "indexed": false,
          "internalType": "uint16",
          "name": "newMultiplierBatchFee",
          "type": "uint16"
        }
      ],
      "name": "SetMultiplierBatchFee",
      "type": "event"
    },
    {
      "anonymous": false,
      "inputs": [
        {
          "indexed": false,
          "internalType": "uint64",
          "name": "newPendingStateTimeout",
          "type": "uint64"
        }
      ],
      "name": "SetPendingStateTimeout",
      "type": "event"
    },
    {
      "anonymous": false,
      "inputs": [
        {
          "indexed": false,
          "internalType": "address",
          "name": "newTrustedAggregator",
          "type": "address"
        }
      ],
      "name": "SetTrustedAggregator",
      "type": "event"
    },
    {
      "anonymous": false,
      "inputs": [
        {
          "indexed": false,
          "internalType": "uint64",
          "name": "newTrustedAggregatorTimeout",
          "type": "uint64"
        }
      ],
      "name": "SetTrustedAggregatorTimeout",
      "type": "event"
    },
    {
      "anonymous": false,
      "inputs": [
        {
          "indexed": false,
          "internalType": "address",
          "name": "newTrustedSequencer",
          "type": "address"
        }
      ],
      "name": "SetTrustedSequencer",
      "type": "event"
    },
    {
      "anonymous": false,
      "inputs": [
        {
          "indexed": false,
          "internalType": "string",
          "name": "newTrustedSequencerURL",
          "type": "string"
        }
      ],
      "name": "SetTrustedSequencerURL",
      "type": "event"
    },
    {
      "anonymous": false,
      "inputs": [
        {
          "indexed": false,
          "internalType": "uint64",
          "name": "newVerifyBatchTimeTarget",
          "type": "uint64"
        }
      ],
      "name": "SetVerifyBatchTimeTarget",
      "type": "event"
    },
    {
      "anonymous": false,
      "inputs": [
        {
          "indexed": false,
          "internalType": "address",
          "name": "newPendingAdmin",
          "type": "address"
        }
      ],
      "name": "TransferAdminRole",
      "type": "event"
    },
    {
      "anonymous": false,
      "inputs": [
        {
          "indexed": false,
          "internalType": "uint64",
          "name": "numBatch",
          "type": "uint64"
        },
        {
          "indexed": false,
          "internalType": "uint64",
          "name": "forkID",
          "type": "uint64"
        },
        {
          "indexed": false,
          "internalType": "string",
          "name": "version",
          "type": "string"
        }
      ],
      "name": "UpdateSupernets2Version",
      "type": "event"
    },
    {
      "anonymous": false,
      "inputs": [
        {
          "indexed": true,
          "internalType": "uint64",
          "name": "numBatch",
          "type": "uint64"
        },
        {
          "indexed": false,
          "internalType": "bytes32",
          "name": "stateRoot",
          "type": "bytes32"
        },
        {
          "indexed": true,
          "internalType": "address",
          "name": "aggregator",
          "type": "address"
        }
      ],
      "name": "VerifyBatches",
      "type": "event"
    },
    {
      "anonymous": false,
      "inputs": [
        {
          "indexed": true,
          "internalType": "uint64",
          "name": "numBatch",
          "type": "uint64"
        },
        {
          "indexed": false,
          "internalType": "bytes32",
          "name": "stateRoot",
          "type": "bytes32"
        },
        {
          "indexed": true,
          "internalType": "address",
          "name": "aggregator",
          "type": "address"
        }
      ],
      "name": "VerifyBatchesTrustedAggregator",
      "type": "event"
    },
    {
      "inputs": [],
      "name": "acceptAdminRole",
      "outputs": [],
      "stateMutability": "nonpayable",
      "type": "function"
    },
    {
      "inputs": [
        {
          "internalType": "uint64",
          "name": "sequencedBatchNum",
          "type": "uint64"
        }
      ],
      "name": "activateEmergencyState",
      "outputs": [],
      "stateMutability": "nonpayable",
      "type": "function"
    },
    {
      "inputs": [],
      "name": "activateForceBatches",
      "outputs": [],
      "stateMutability": "nonpayable",
      "type": "function"
    },
    {
      "inputs": [],
      "name": "admin",
      "outputs": [
        {
          "internalType": "address",
          "name": "",
          "type": "address"
        }
      ],
      "stateMutability": "view",
      "type": "function"
    },
    {
      "inputs": [],
      "name": "batchFee",
      "outputs": [
        {
          "internalType": "uint256",
          "name": "",
          "type": "uint256"
        }
      ],
      "stateMutability": "view",
      "type": "function"
    },
    {
      "inputs": [
        {
          "internalType": "uint64",
          "name": "",
          "type": "uint64"
        }
      ],
      "name": "batchNumToStateRoot",
      "outputs": [
        {
          "internalType": "bytes32",
          "name": "",
          "type": "bytes32"
        }
      ],
      "stateMutability": "view",
      "type": "function"
    },
    {
      "inputs": [],
      "name": "bridgeAddress",
      "outputs": [
        {
          "internalType": "contract IPolygonZkEVMBridge",
          "name": "",
          "type": "address"
        }
      ],
      "stateMutability": "view",
      "type": "function"
    },
    {
      "inputs": [],
      "name": "calculateRewardPerBatch",
      "outputs": [
        {
          "internalType": "uint256",
          "name": "",
          "type": "uint256"
        }
      ],
      "stateMutability": "view",
      "type": "function"
    },
    {
      "inputs": [],
      "name": "chainID",
      "outputs": [
        {
          "internalType": "uint64",
          "name": "",
          "type": "uint64"
        }
      ],
      "stateMutability": "view",
      "type": "function"
    },
    {
      "inputs": [
        {
          "internalType": "uint256",
          "name": "newStateRoot",
          "type": "uint256"
        }
      ],
      "name": "checkStateRootInsidePrime",
      "outputs": [
        {
          "internalType": "bool",
          "name": "",
          "type": "bool"
        }
      ],
      "stateMutability": "pure",
      "type": "function"
    },
    {
      "inputs": [
        {
          "internalType": "uint64",
          "name": "pendingStateNum",
          "type": "uint64"
        }
      ],
      "name": "consolidatePendingState",
      "outputs": [],
      "stateMutability": "nonpayable",
      "type": "function"
    },
    {
      "inputs": [],
      "name": "dataCommitteeAddress",
      "outputs": [
        {
          "internalType": "contract ISupernets2DataCommittee",
          "name": "",
          "type": "address"
        }
      ],
      "stateMutability": "view",
      "type": "function"
    },
    {
      "inputs": [],
      "name": "deactivateEmergencyState",
      "outputs": [],
      "stateMutability": "nonpayable",
      "type": "function"
    },
    {
      "inputs": [
        {
          "internalType": "bytes",
          "name": "transactions",
          "type": "bytes"
        },
        {
          "internalType": "uint256",
          "name": "maticAmount",
          "type": "uint256"
        }
      ],
      "name": "forceBatch",
      "outputs": [],
      "stateMutability": "nonpayable",
      "type": "function"
    },
    {
      "inputs": [],
      "name": "forceBatchTimeout",
      "outputs": [
        {
          "internalType": "uint64",
          "name": "",
          "type": "uint64"
        }
      ],
      "stateMutability": "view",
      "type": "function"
    },
    {
      "inputs": [
        {
          "internalType": "uint64",
          "name": "",
          "type": "uint64"
        }
      ],
      "name": "forcedBatches",
      "outputs": [
        {
          "internalType": "bytes32",
          "name": "",
          "type": "bytes32"
        }
      ],
      "stateMutability": "view",
      "type": "function"
    },
    {
      "inputs": [],
      "name": "forkID",
      "outputs": [
        {
          "internalType": "uint64",
          "name": "",
          "type": "uint64"
        }
      ],
      "stateMutability": "view",
      "type": "function"
    },
    {
      "inputs": [],
      "name": "getForcedBatchFee",
      "outputs": [
        {
          "internalType": "uint256",
          "name": "",
          "type": "uint256"
        }
      ],
      "stateMutability": "view",
      "type": "function"
    },
    {
      "inputs": [
        {
          "internalType": "uint64",
          "name": "initNumBatch",
          "type": "uint64"
        },
        {
          "internalType": "uint64",
          "name": "finalNewBatch",
          "type": "uint64"
        },
        {
          "internalType": "bytes32",
          "name": "newLocalExitRoot",
          "type": "bytes32"
        },
        {
          "internalType": "bytes32",
          "name": "oldStateRoot",
          "type": "bytes32"
        },
        {
          "internalType": "bytes32",
          "name": "newStateRoot",
          "type": "bytes32"
        }
      ],
      "name": "getInputSnarkBytes",
      "outputs": [
        {
          "internalType": "bytes",
          "name": "",
          "type": "bytes"
        }
      ],
      "stateMutability": "view",
      "type": "function"
    },
    {
      "inputs": [],
      "name": "getLastVerifiedBatch",
      "outputs": [
        {
          "internalType": "uint64",
          "name": "",
          "type": "uint64"
        }
      ],
      "stateMutability": "view",
      "type": "function"
    },
    {
      "inputs": [],
      "name": "globalExitRootManager",
      "outputs": [
        {
          "internalType": "contract IPolygonZkEVMGlobalExitRoot",
          "name": "",
          "type": "address"
        }
      ],
      "stateMutability": "view",
      "type": "function"
    },
    {
      "inputs": [
        {
          "components": [
            {
              "internalType": "address",
              "name": "admin",
              "type": "address"
            },
            {
              "internalType": "address",
              "name": "trustedSequencer",
              "type": "address"
            },
            {
              "internalType": "uint64",
              "name": "pendingStateTimeout",
              "type": "uint64"
            },
            {
              "internalType": "address",
              "name": "trustedAggregator",
              "type": "address"
            },
            {
              "internalType": "uint64",
              "name": "trustedAggregatorTimeout",
              "type": "uint64"
            }
          ],
          "internalType": "struct Supernets2.InitializePackedParameters",
          "name": "initializePackedParameters",
          "type": "tuple"
        },
        {
          "internalType": "bytes32",
          "name": "genesisRoot",
          "type": "bytes32"
        },
        {
          "internalType": "string",
          "name": "_trustedSequencerURL",
          "type": "string"
        },
        {
          "internalType": "string",
          "name": "_networkName",
          "type": "string"
        },
        {
          "internalType": "string",
          "name": "_version",
          "type": "string"
        }
      ],
      "name": "initialize",
      "outputs": [],
      "stateMutability": "nonpayable",
      "type": "function"
    },
    {
      "inputs": [],
      "name": "isEmergencyState",
      "outputs": [
        {
          "internalType": "bool",
          "name": "",
          "type": "bool"
        }
      ],
      "stateMutability": "view",
      "type": "function"
    },
    {
      "inputs": [],
      "name": "isForcedBatchDisallowed",
      "outputs": [
        {
          "internalType": "bool",
          "name": "",
          "type": "bool"
        }
      ],
      "stateMutability": "view",
      "type": "function"
    },
    {
      "inputs": [
        {
          "internalType": "uint64",
          "name": "pendingStateNum",
          "type": "uint64"
        }
      ],
      "name": "isPendingStateConsolidable",
      "outputs": [
        {
          "internalType": "bool",
          "name": "",
          "type": "bool"
        }
      ],
      "stateMutability": "view",
      "type": "function"
    },
    {
      "inputs": [],
      "name": "lastBatchSequenced",
      "outputs": [
        {
          "internalType": "uint64",
          "name": "",
          "type": "uint64"
        }
      ],
      "stateMutability": "view",
      "type": "function"
    },
    {
      "inputs": [],
      "name": "lastForceBatch",
      "outputs": [
        {
          "internalType": "uint64",
          "name": "",
          "type": "uint64"
        }
      ],
      "stateMutability": "view",
      "type": "function"
    },
    {
      "inputs": [],
      "name": "lastForceBatchSequenced",
      "outputs": [
        {
          "internalType": "uint64",
          "name": "",
          "type": "uint64"
        }
      ],
      "stateMutability": "view",
      "type": "function"
    },
    {
      "inputs": [],
      "name": "lastPendingState",
      "outputs": [
        {
          "internalType": "uint64",
          "name": "",
          "type": "uint64"
        }
      ],
      "stateMutability": "view",
      "type": "function"
    },
    {
      "inputs": [],
      "name": "lastPendingStateConsolidated",
      "outputs": [
        {
          "internalType": "uint64",
          "name": "",
          "type": "uint64"
        }
      ],
      "stateMutability": "view",
      "type": "function"
    },
    {
      "inputs": [],
      "name": "lastTimestamp",
      "outputs": [
        {
          "internalType": "uint64",
          "name": "",
          "type": "uint64"
        }
      ],
      "stateMutability": "view",
      "type": "function"
    },
    {
      "inputs": [],
      "name": "lastVerifiedBatch",
      "outputs": [
        {
          "internalType": "uint64",
          "name": "",
          "type": "uint64"
        }
      ],
      "stateMutability": "view",
      "type": "function"
    },
    {
      "inputs": [],
      "name": "matic",
      "outputs": [
        {
          "internalType": "contract IERC20Upgradeable",
          "name": "",
          "type": "address"
        }
      ],
      "stateMutability": "view",
      "type": "function"
    },
    {
      "inputs": [],
      "name": "multiplierBatchFee",
      "outputs": [
        {
          "internalType": "uint16",
          "name": "",
          "type": "uint16"
        }
      ],
      "stateMutability": "view",
      "type": "function"
    },
    {
      "inputs": [],
      "name": "networkName",
      "outputs": [
        {
          "internalType": "string",
          "name": "",
          "type": "string"
        }
      ],
      "stateMutability": "view",
      "type": "function"
    },
    {
      "inputs": [
        {
          "internalType": "uint64",
          "name": "initPendingStateNum",
          "type": "uint64"
        },
        {
          "internalType": "uint64",
          "name": "finalPendingStateNum",
          "type": "uint64"
        },
        {
          "internalType": "uint64",
          "name": "initNumBatch",
          "type": "uint64"
        },
        {
          "internalType": "uint64",
          "name": "finalNewBatch",
          "type": "uint64"
        },
        {
          "internalType": "bytes32",
          "name": "newLocalExitRoot",
          "type": "bytes32"
        },
        {
          "internalType": "bytes32",
          "name": "newStateRoot",
          "type": "bytes32"
        },
        {
          "internalType": "bytes",
          "name": "proof",
          "type": "bytes"
        }
      ],
      "name": "overridePendingState",
      "outputs": [],
      "stateMutability": "nonpayable",
      "type": "function"
    },
    {
      "inputs": [],
      "name": "owner",
      "outputs": [
        {
          "internalType": "address",
          "name": "",
          "type": "address"
        }
      ],
      "stateMutability": "view",
      "type": "function"
    },
    {
      "inputs": [],
      "name": "pendingAdmin",
      "outputs": [
        {
          "internalType": "address",
          "name": "",
          "type": "address"
        }
      ],
      "stateMutability": "view",
      "type": "function"
    },
    {
      "inputs": [],
      "name": "pendingStateTimeout",
      "outputs": [
        {
          "internalType": "uint64",
          "name": "",
          "type": "uint64"
        }
      ],
      "stateMutability": "view",
      "type": "function"
    },
    {
      "inputs": [
        {
          "internalType": "uint256",
          "name": "",
          "type": "uint256"
        }
      ],
      "name": "pendingStateTransitions",
      "outputs": [
        {
          "internalType": "uint64",
          "name": "timestamp",
          "type": "uint64"
        },
        {
          "internalType": "uint64",
          "name": "lastVerifiedBatch",
          "type": "uint64"
        },
        {
          "internalType": "bytes32",
          "name": "exitRoot",
          "type": "bytes32"
        },
        {
          "internalType": "bytes32",
          "name": "stateRoot",
          "type": "bytes32"
        }
      ],
      "stateMutability": "view",
      "type": "function"
    },
    {
      "inputs": [
        {
          "internalType": "uint64",
          "name": "initPendingStateNum",
          "type": "uint64"
        },
        {
          "internalType": "uint64",
          "name": "finalPendingStateNum",
          "type": "uint64"
        },
        {
          "internalType": "uint64",
          "name": "initNumBatch",
          "type": "uint64"
        },
        {
          "internalType": "uint64",
          "name": "finalNewBatch",
          "type": "uint64"
        },
        {
          "internalType": "bytes32",
          "name": "newLocalExitRoot",
          "type": "bytes32"
        },
        {
          "internalType": "bytes32",
          "name": "newStateRoot",
          "type": "bytes32"
        },
        {
          "internalType": "bytes",
          "name": "proof",
          "type": "bytes"
        }
      ],
      "name": "proveNonDeterministicPendingState",
      "outputs": [],
      "stateMutability": "nonpayable",
      "type": "function"
    },
    {
      "inputs": [],
      "name": "renounceOwnership",
      "outputs": [],
      "stateMutability": "nonpayable",
      "type": "function"
    },
    {
      "inputs": [],
      "name": "rollupVerifier",
      "outputs": [
        {
          "internalType": "contract IVerifierRollup",
          "name": "",
          "type": "address"
        }
      ],
      "stateMutability": "view",
      "type": "function"
    },
    {
      "inputs": [
        {
          "components": [
            {
              "internalType": "bytes32",
              "name": "transactionsHash",
              "type": "bytes32"
            },
            {
              "internalType": "bytes32",
              "name": "globalExitRoot",
              "type": "bytes32"
            },
            {
              "internalType": "uint64",
              "name": "timestamp",
              "type": "uint64"
            },
            {
              "internalType": "uint64",
              "name": "minForcedTimestamp",
              "type": "uint64"
            }
          ],
          "internalType": "struct Supernets2.BatchData[]",
          "name": "batches",
          "type": "tuple[]"
        },
        {
          "internalType": "address",
          "name": "l2Coinbase",
          "type": "address"
        },
        {
          "internalType": "bytes",
          "name": "signaturesAndAddrs",
          "type": "bytes"
        }
      ],
      "name": "sequenceBatches",
      "outputs": [],
      "stateMutability": "nonpayable",
      "type": "function"
    },
    {
      "inputs": [
        {
          "components": [
            {
              "internalType": "bytes",
              "name": "transactions",
              "type": "bytes"
            },
            {
              "internalType": "bytes32",
              "name": "globalExitRoot",
              "type": "bytes32"
            },
            {
              "internalType": "uint64",
              "name": "minForcedTimestamp",
              "type": "uint64"
            }
          ],
          "internalType": "struct Supernets2.ForcedBatchData[]",
          "name": "batches",
          "type": "tuple[]"
        }
      ],
      "name": "sequenceForceBatches",
      "outputs": [],
      "stateMutability": "nonpayable",
      "type": "function"
    },
    {
      "inputs": [
        {
          "internalType": "uint64",
          "name": "",
          "type": "uint64"
        }
      ],
      "name": "sequencedBatches",
      "outputs": [
        {
          "internalType": "bytes32",
          "name": "accInputHash",
          "type": "bytes32"
        },
        {
          "internalType": "uint64",
          "name": "sequencedTimestamp",
          "type": "uint64"
        },
        {
          "internalType": "uint64",
          "name": "previousLastBatchSequenced",
          "type": "uint64"
        }
      ],
      "stateMutability": "view",
      "type": "function"
    },
    {
      "inputs": [
        {
          "internalType": "uint64",
          "name": "newforceBatchTimeout",
          "type": "uint64"
        }
      ],
      "name": "setForceBatchTimeout",
      "outputs": [],
      "stateMutability": "nonpayable",
      "type": "function"
    },
    {
      "inputs": [
        {
          "internalType": "uint16",
          "name": "newMultiplierBatchFee",
          "type": "uint16"
        }
      ],
      "name": "setMultiplierBatchFee",
      "outputs": [],
      "stateMutability": "nonpayable",
      "type": "function"
    },
    {
      "inputs": [
        {
          "internalType": "uint64",
          "name": "newPendingStateTimeout",
          "type": "uint64"
        }
      ],
      "name": "setPendingStateTimeout",
      "outputs": [],
      "stateMutability": "nonpayable",
      "type": "function"
    },
    {
      "inputs": [
        {
          "internalType": "address",
          "name": "newTrustedAggregator",
          "type": "address"
        }
      ],
      "name": "setTrustedAggregator",
      "outputs": [],
      "stateMutability": "nonpayable",
      "type": "function"
    },
    {
      "inputs": [
        {
          "internalType": "uint64",
          "name": "newTrustedAggregatorTimeout",
          "type": "uint64"
        }
      ],
      "name": "setTrustedAggregatorTimeout",
      "outputs": [],
      "stateMutability": "nonpayable",
      "type": "function"
    },
    {
      "inputs": [
        {
          "internalType": "address",
          "name": "newTrustedSequencer",
          "type": "address"
        }
      ],
      "name": "setTrustedSequencer",
      "outputs": [],
      "stateMutability": "nonpayable",
      "type": "function"
    },
    {
      "inputs": [
        {
          "internalType": "string",
          "name": "newTrustedSequencerURL",
          "type": "string"
        }
      ],
      "name": "setTrustedSequencerURL",
      "outputs": [],
      "stateMutability": "nonpayable",
      "type": "function"
    },
    {
      "inputs": [
        {
          "internalType": "uint64",
          "name": "newVerifyBatchTimeTarget",
          "type": "uint64"
        }
      ],
      "name": "setVerifyBatchTimeTarget",
      "outputs": [],
      "stateMutability": "nonpayable",
      "type": "function"
    },
    {
      "inputs": [
        {
          "internalType": "address",
          "name": "newPendingAdmin",
          "type": "address"
        }
      ],
      "name": "transferAdminRole",
      "outputs": [],
      "stateMutability": "nonpayable",
      "type": "function"
    },
    {
      "inputs": [
        {
          "internalType": "address",
          "name": "newOwner",
          "type": "address"
        }
      ],
      "name": "transferOwnership",
      "outputs": [],
      "stateMutability": "nonpayable",
      "type": "function"
    },
    {
      "inputs": [],
      "name": "trustedAggregator",
      "outputs": [
        {
          "internalType": "address",
          "name": "",
          "type": "address"
        }
      ],
      "stateMutability": "view",
      "type": "function"
    },
    {
      "inputs": [],
      "name": "trustedAggregatorTimeout",
      "outputs": [
        {
          "internalType": "uint64",
          "name": "",
          "type": "uint64"
        }
      ],
      "stateMutability": "view",
      "type": "function"
    },
    {
      "inputs": [],
      "name": "trustedSequencer",
      "outputs": [
        {
          "internalType": "address",
          "name": "",
          "type": "address"
        }
      ],
      "stateMutability": "view",
      "type": "function"
    },
    {
      "inputs": [],
      "name": "trustedSequencerURL",
      "outputs": [
        {
          "internalType": "string",
          "name": "",
          "type": "string"
        }
      ],
      "stateMutability": "view",
      "type": "function"
    },
    {
      "inputs": [],
      "name": "verifyBatchTimeTarget",
      "outputs": [
        {
          "internalType": "uint64",
          "name": "",
          "type": "uint64"
        }
      ],
      "stateMutability": "view",
      "type": "function"
    },
    {
      "inputs": [
        {
          "internalType": "uint64",
          "name": "pendingStateNum",
          "type": "uint64"
        },
        {
          "internalType": "uint64",
          "name": "initNumBatch",
          "type": "uint64"
        },
        {
          "internalType": "uint64",
          "name": "finalNewBatch",
          "type": "uint64"
        },
        {
          "internalType": "bytes32",
          "name": "newLocalExitRoot",
          "type": "bytes32"
        },
        {
          "internalType": "bytes32",
          "name": "newStateRoot",
          "type": "bytes32"
        },
        {
          "internalType": "bytes",
          "name": "proof",
          "type": "bytes"
        }
      ],
      "name": "verifyBatches",
      "outputs": [],
      "stateMutability": "nonpayable",
      "type": "function"
    },
    {
      "inputs": [
        {
          "internalType": "uint64",
          "name": "pendingStateNum",
          "type": "uint64"
        },
        {
          "internalType": "uint64",
          "name": "initNumBatch",
          "type": "uint64"
        },
        {
          "internalType": "uint64",
          "name": "finalNewBatch",
          "type": "uint64"
        },
        {
          "internalType": "bytes32",
          "name": "newLocalExitRoot",
          "type": "bytes32"
        },
        {
          "internalType": "bytes32",
          "name": "newStateRoot",
          "type": "bytes32"
        },
        {
          "internalType": "bytes",
          "name": "proof",
          "type": "bytes"
        }
      ],
      "name": "verifyBatchesTrustedAggregator",
      "outputs": [],
      "stateMutability": "nonpayable",
      "type": "function"
    }
  ],
  "bytecode": "0x6101606040523480156200001257600080fd5b50604051620061cb380380620061cb8339810160408190526200003591620000ac565b6001600160a01b0396871660c05294861660805292851660a05290841660e052909216610100526001600160401b039182166101205216610140526200014f565b6001600160a01b03811681146200008c57600080fd5b50565b80516001600160401b0381168114620000a757600080fd5b919050565b600080600080600080600060e0888a031215620000c857600080fd5b8751620000d58162000076565b6020890151909750620000e88162000076565b6040890151909650620000fb8162000076565b60608901519095506200010e8162000076565b6080890151909450620001218162000076565b92506200013160a089016200008f565b91506200014160c089016200008f565b905092959891949750929550565b60805160a05160c05160e051610100516101205161014051615f9c6200022f600039600081816106b501528181610ed101526130120152600081816108220152610ea70152600081816105c001526116750152600081816107d5015281816118c5015281816136ac015261430801526000818161098e0152818161145001528181611dc20152818161288c0152818161384901528181613aa40152614667015260008181610a4e015281816141f501526149d30152600081816108de01528181611893015281816123e301528181613a780152614ac20152615f9c6000f3fe608060405234801561001057600080fd5b50600436106103c55760003560e01c8063841b24d7116101ff578063c89e42df1161011a578063e7a7ed02116100ad578063f14916d61161007c578063f14916d614610ab0578063f2fde38b14610ac3578063f851a44014610ad6578063f8b823e414610af657600080fd5b8063e7a7ed0214610a19578063e8bf92ed14610a49578063eaeb077b14610a70578063ed6b010414610a8357600080fd5b8063d8d1091b116100e9578063d8d1091b146109c3578063d939b315146109d6578063dbc16976146109fe578063e6ad707e14610a0657600080fd5b8063c89e42df14610947578063cfa8ed471461095a578063d02103ca14610989578063d2e129f9146109b057600080fd5b8063ada8f91911610192578063b6b0b09711610161578063b6b0b097146108d9578063ba58ae3914610900578063c0ed84e014610913578063c754c7ed1461091b57600080fd5b8063ada8f9191461080a578063adc879e91461081d578063afd23cbe14610844578063b4d63f581461087257600080fd5b80639c9f3dfe116101ce5780639c9f3dfe146107aa578063a066215c146107bd578063a3c573eb146107d0578063a50a164b146107f757600080fd5b8063841b24d71461074c5780638c3d73011461077c5780638da5cb5b1461078457806399f5634e146107a257600080fd5b80634a1a89a7116102ef57806360469169116102825780637215541a116102515780637215541a146106895780637fcb36531461069c578063831c7ead146106b0578063837a4738146106d757600080fd5b806360469169146106465780636b8616ce1461064e5780636ff512cc1461066e578063715018a61461068157600080fd5b80634fd70464116102be5780634fd70464146105f55780635392c5e014610608578063542028d5146106365780635ec919581461063e57600080fd5b80634a1a89a7146105885780634a910e6a146105a85780634df61d24146105bb5780634e487706146105e257600080fd5b80632678224711610367578063423fa85611610336578063423fa85614610519578063438a539914610539578063456052671461054c578063458c04771461057457600080fd5b8063267822471461048257806329878983146104c7578063383b3be8146104f3578063394218e91461050657600080fd5b806315064c96116103a357806315064c961461042b5780631816b7e51461044857806319d8ac611461045b578063220d78991461046f57600080fd5b80630808270c146103ca5780630a0d9fbe146103df578063107bf28c14610416575b600080fd5b6103dd6103d836600461535a565b610aff565b005b606f546103f890610100900467ffffffffffffffff1681565b60405167ffffffffffffffff90911681526020015b60405180910390f35b61041e610bb2565b60405161040d9190615461565b606f546104389060ff1681565b604051901515815260200161040d565b6103dd61045636600461547b565b610c40565b6073546103f89067ffffffffffffffff1681565b61041e61047d36600461549f565b610d58565b607b546104a29073ffffffffffffffffffffffffffffffffffffffff1681565b60405173ffffffffffffffffffffffffffffffffffffffff909116815260200161040d565b6074546104a29068010000000000000000900473ffffffffffffffffffffffffffffffffffffffff1681565b6104386105013660046154ec565b610f2f565b6103dd6105143660046154ec565b610f85565b6073546103f89068010000000000000000900467ffffffffffffffff1681565b6103dd61054736600461552b565b611109565b6073546103f890700100000000000000000000000000000000900467ffffffffffffffff1681565b6079546103f89067ffffffffffffffff1681565b6079546103f89068010000000000000000900467ffffffffffffffff1681565b6103dd6105b63660046154ec565b611986565b6104a27f000000000000000000000000000000000000000000000000000000000000000081565b6103dd6105f03660046154ec565b611a39565b6103dd6106033660046155dd565b611bbd565b6106286106163660046154ec565b60756020526000908152604090205481565b60405190815260200161040d565b61041e611f53565b6103dd611f60565b610628612060565b61062861065c3660046154ec565b60716020526000908152604090205481565b6103dd61067c366004615666565b612076565b6103dd61214b565b6103dd6106973660046154ec565b61215f565b6074546103f89067ffffffffffffffff1681565b6103f87f000000000000000000000000000000000000000000000000000000000000000081565b6107206106e5366004615681565b60786020526000908152604090208054600182015460029092015467ffffffffffffffff808316936801000000000000000090930416919084565b6040805167ffffffffffffffff958616815294909316602085015291830152606082015260800161040d565b6079546103f8907801000000000000000000000000000000000000000000000000900467ffffffffffffffff1681565b6103dd6122cf565b60335473ffffffffffffffffffffffffffffffffffffffff166104a2565b61062861239b565b6103dd6107b83660046154ec565b6124f4565b6103dd6107cb3660046154ec565b612670565b6104a27f000000000000000000000000000000000000000000000000000000000000000081565b6103dd6108053660046155dd565b612776565b6103dd610818366004615666565b61293b565b6103f87f000000000000000000000000000000000000000000000000000000000000000081565b606f5461085f906901000000000000000000900461ffff1681565b60405161ffff909116815260200161040d565b6108b36108803660046154ec565b6072602052600090815260409020805460019091015467ffffffffffffffff808216916801000000000000000090041683565b6040805193845267ffffffffffffffff928316602085015291169082015260600161040d565b6104a27f000000000000000000000000000000000000000000000000000000000000000081565b61043861090e366004615681565b6129ff565b6103f8612a89565b607b546103f89074010000000000000000000000000000000000000000900467ffffffffffffffff1681565b6103dd61095536600461577d565b612ade565b606f546104a2906b010000000000000000000000900473ffffffffffffffffffffffffffffffffffffffff1681565b6104a27f000000000000000000000000000000000000000000000000000000000000000081565b6103dd6109be3660046157b2565b612b6b565b6103dd6109d1366004615865565b6130b7565b6079546103f890700100000000000000000000000000000000900467ffffffffffffffff1681565b6103dd613659565b6103dd610a1436600461535a565b613732565b6073546103f8907801000000000000000000000000000000000000000000000000900467ffffffffffffffff1681565b6104a27f000000000000000000000000000000000000000000000000000000000000000081565b6103dd610a7e3660046158da565b613942565b607b54610438907c0100000000000000000000000000000000000000000000000000000000900460ff1681565b6103dd610abe366004615666565b613d38565b6103dd610ad1366004615666565b613e0a565b607a546104a29073ffffffffffffffffffffffffffffffffffffffff1681565b61062860705481565b606f5460ff1615610b3c576040517f2f0047fc00000000000000000000000000000000000000000000000000000000815260040160405180910390fd5b610b4c8888888888888888613ebe565b67ffffffffffffffff85166000908152607560209081526040918290205482519081529081018590527f1f44c21118c4603cfb4e1b621dbcfa2b73efcececee2b99b620b2953d33a7010910160405180910390a1610ba8614306565b5050505050505050565b60778054610bbf90615926565b80601f0160208091040260200160405190810160405280929190818152602001828054610beb90615926565b8015610c385780601f10610c0d57610100808354040283529160200191610c38565b820191906000526020600020905b815481529060010190602001808311610c1b57829003601f168201915b505050505081565b607a5473ffffffffffffffffffffffffffffffffffffffff163314610c91576040517f4755657900000000000000000000000000000000000000000000000000000000815260040160405180910390fd5b6103e88161ffff161080610caa57506103ff8161ffff16115b15610ce1576040517f4c2533c800000000000000000000000000000000000000000000000000000000815260040160405180910390fd5b606f80547fffffffffffffffffffffffffffffffffffffffffff0000ffffffffffffffffff16690100000000000000000061ffff8416908102919091179091556040519081527f7019933d795eba185c180209e8ae8bffbaa25bcef293364687702c31f4d302c5906020015b60405180910390a150565b67ffffffffffffffff8086166000818152607260205260408082205493881682529020546060929115801590610d8c575081155b15610dc3576040517f6818c29e00000000000000000000000000000000000000000000000000000000815260040160405180910390fd5b80610dfa576040517f66385b5100000000000000000000000000000000000000000000000000000000815260040160405180910390fd5b610e03846129ff565b610e39576040517f176b913c00000000000000000000000000000000000000000000000000000000815260040160405180910390fd5b604080517fffffffffffffffffffffffffffffffffffffffff0000000000000000000000003360601b166020820152603481019690965260548601929092527fffffffffffffffff00000000000000000000000000000000000000000000000060c098891b811660748701527f0000000000000000000000000000000000000000000000000000000000000000891b8116607c8701527f0000000000000000000000000000000000000000000000000000000000000000891b81166084870152608c86019490945260ac85015260cc840194909452509290931b90911660ec830152805180830360d401815260f4909201905290565b60795467ffffffffffffffff82811660009081526078602052604081205490924292610f7392700100000000000000000000000000000000909204811691166159a8565b67ffffffffffffffff16111592915050565b607a5473ffffffffffffffffffffffffffffffffffffffff163314610fd6576040517f4755657900000000000000000000000000000000000000000000000000000000815260040160405180910390fd5b62093a8067ffffffffffffffff8216111561101d576040517f1d06e87900000000000000000000000000000000000000000000000000000000815260040160405180910390fd5b606f5460ff1661108c5760795467ffffffffffffffff780100000000000000000000000000000000000000000000000090910481169082161061108c576040517f401636df00000000000000000000000000000000000000000000000000000000815260040160405180910390fd5b6079805477ffffffffffffffffffffffffffffffffffffffffffffffff16780100000000000000000000000000000000000000000000000067ffffffffffffffff8416908102919091179091556040519081527f1f4fa24c2e4bad19a7f3ec5c5485f70d46c798461c2e684f55bbd0fc661373a190602001610d4d565b606f5460ff1615611146576040517f2f0047fc00000000000000000000000000000000000000000000000000000000815260040160405180910390fd5b606f546b010000000000000000000000900473ffffffffffffffffffffffffffffffffffffffff1633146111a6576040517f11e7be1500000000000000000000000000000000000000000000000000000000815260040160405180910390fd5b8360008190036111e2576040517fcb591a5f00000000000000000000000000000000000000000000000000000000815260040160405180910390fd5b6103e881111561121e576040517fb59f753a00000000000000000000000000000000000000000000000000000000815260040160405180910390fd5b60735467ffffffffffffffff6801000000000000000082048116600081815260726020526040812054838516949293700100000000000000000000000000000000909304909216919082905b868110156116375760008c8c83818110611286576112866159d0565b90506080020180360381019061129c91906159ff565b606081015190915067ffffffffffffffff161561140d57846112bd81615a70565b955050600081600001518260200151836060015160405160200161131993929190928352602083019190915260c01b7fffffffffffffffff00000000000000000000000000000000000000000000000016604082015260480190565b604080517fffffffffffffffffffffffffffffffffffffffffffffffffffffffffffffffe0818403018152918152815160209283012067ffffffffffffffff89166000908152607190935291205490915081146113a2576040517fce3d755e00000000000000000000000000000000000000000000000000000000815260040160405180910390fd5b67ffffffffffffffff8087166000908152607160205260408082209190915560608401519084015190821691161015611407576040517f7f7ab87200000000000000000000000000000000000000000000000000000000815260040160405180910390fd5b5061150b565b6020810151158015906114d4575060208101516040517f257b363200000000000000000000000000000000000000000000000000000000815260048101919091527f000000000000000000000000000000000000000000000000000000000000000073ffffffffffffffffffffffffffffffffffffffff169063257b3632906024016020604051808303816000875af11580156114ae573d6000803e3d6000fd5b505050506040513d601f19601f820116820180604052508101906114d29190615a97565b155b1561150b576040517f73bd668d00000000000000000000000000000000000000000000000000000000815260040160405180910390fd5b8667ffffffffffffffff16816040015167ffffffffffffffff16108061153e575042816040015167ffffffffffffffff16115b15611575576040517fea82791600000000000000000000000000000000000000000000000000000000815260040160405180910390fd5b838160000151826020015183604001518e6040516020016116049594939291909485526020850193909352604084019190915260c01b7fffffffffffffffff000000000000000000000000000000000000000000000000166060808401919091521b7fffffffffffffffffffffffffffffffffffffffff000000000000000000000000166068820152607c0190565b6040516020818303038152906040528051906020012093508060400151965050808061162f90615ab0565b91505061126a565b506040517fc7a823e000000000000000000000000000000000000000000000000000000000815273ffffffffffffffffffffffffffffffffffffffff7f0000000000000000000000000000000000000000000000000000000000000000169063c7a823e0906116ae9085908c908c90600401615b31565b60006040518083038186803b1580156116c657600080fd5b505afa1580156116da573d6000803e3d6000fd5b5050505085846116ea91906159a8565b60735490945067ffffffffffffffff780100000000000000000000000000000000000000000000000090910481169084161115611753576040517fc630a00d00000000000000000000000000000000000000000000000000000000815260040160405180910390fd5b600061175f8285615b54565b6117739067ffffffffffffffff1688615b75565b604080516060810182528581524267ffffffffffffffff908116602080840191825260738054680100000000000000009081900485168688019081528d861660008181526072909552979093209551865592516001909501805492519585167fffffffffffffffffffffffffffffffff000000000000000000000000000000009384161795851684029590951790945583548c841691161793029290921790559091508281169085161461186957607380547fffffffffffffffff0000000000000000ffffffffffffffffffffffffffffffff1670010000000000000000000000000000000067ffffffffffffffff8716021790555b6118bb33308360705461187c9190615b8e565b73ffffffffffffffffffffffffffffffffffffffff7f00000000000000000000000000000000000000000000000000000000000000001692919061438e565b6118c3614470565b7f000000000000000000000000000000000000000000000000000000000000000073ffffffffffffffffffffffffffffffffffffffff166379e2cf976040518163ffffffff1660e01b8152600401600060405180830381600087803b15801561192b57600080fd5b505af115801561193f573d6000803e3d6000fd5b505060405167ffffffffffffffff881692507f303446e6a8cb73c83dff421c0b1d5e5ce0719dab1bff13660fc254e58cc17fce9150600090a2505050505050505050505050565b60745468010000000000000000900473ffffffffffffffffffffffffffffffffffffffff163314611a2d57606f5460ff16156119ee576040517f2f0047fc00000000000000000000000000000000000000000000000000000000815260040160405180910390fd5b6119f781610f2f565b611a2d576040517f0ce9e4a200000000000000000000000000000000000000000000000000000000815260040160405180910390fd5b611a368161451d565b50565b607a5473ffffffffffffffffffffffffffffffffffffffff163314611a8a576040517f4755657900000000000000000000000000000000000000000000000000000000815260040160405180910390fd5b62093a8067ffffffffffffffff82161115611ad1576040517ff5e37f2f00000000000000000000000000000000000000000000000000000000815260040160405180910390fd5b606f5460ff16611b3c57607b5467ffffffffffffffff74010000000000000000000000000000000000000000909104811690821610611b3c576040517ff5e37f2f00000000000000000000000000000000000000000000000000000000815260040160405180910390fd5b607b80547fffffffff0000000000000000ffffffffffffffffffffffffffffffffffffffff167401000000000000000000000000000000000000000067ffffffffffffffff8416908102919091179091556040519081527fa7eb6cb8a613eb4e8bddc1ac3d61ec6cf10898760f0b187bcca794c6ca6fa40b90602001610d4d565b606f5460ff1615611bfa576040517f2f0047fc00000000000000000000000000000000000000000000000000000000815260040160405180910390fd5b60795467ffffffffffffffff8681166000908152607260205260409020600101544292611c47927801000000000000000000000000000000000000000000000000909104811691166159a8565b67ffffffffffffffff161115611c89576040517f8a0704d300000000000000000000000000000000000000000000000000000000815260040160405180910390fd5b6103e8611c968787615b54565b67ffffffffffffffff161115611cd8576040517fb59f753a00000000000000000000000000000000000000000000000000000000815260040160405180910390fd5b611ce787878787878787614730565b611cf085614ae9565b607954700100000000000000000000000000000000900467ffffffffffffffff16600003611e3857607480547fffffffffffffffffffffffffffffffffffffffffffffffff00000000000000001667ffffffffffffffff87811691821790925560009081526075602052604090208490556079541615611d9357607980547fffffffffffffffffffffffffffffffff000000000000000000000000000000001690555b6040517f33d6247d000000000000000000000000000000000000000000000000000000008152600481018590527f000000000000000000000000000000000000000000000000000000000000000073ffffffffffffffffffffffffffffffffffffffff16906333d6247d90602401600060405180830381600087803b158015611e1b57600080fd5b505af1158015611e2f573d6000803e3d6000fd5b50505050611f08565b611e40614470565b6079805467ffffffffffffffff16906000611e5a83615a70565b825467ffffffffffffffff9182166101009390930a92830292820219169190911790915560408051608081018252428316815288831660208083019182528284018a8152606084018a815260795487166000908152607890935294909120925183549251861668010000000000000000027fffffffffffffffffffffffffffffffff000000000000000000000000000000009093169516949094171781559151600183015551600290910155505b604051838152339067ffffffffffffffff8716907f9c72852172521097ba7e1482e6b44b351323df0155f97f4ea18fcec28e1f5966906020015b60405180910390a350505050505050565b60768054610bbf90615926565b607a5473ffffffffffffffffffffffffffffffffffffffff163314611fb1576040517f4755657900000000000000000000000000000000000000000000000000000000815260040160405180910390fd5b607b547c0100000000000000000000000000000000000000000000000000000000900460ff1661200d576040517ff6ba91a100000000000000000000000000000000000000000000000000000000815260040160405180910390fd5b607b80547fffffff00ffffffffffffffffffffffffffffffffffffffffffffffffffffffff1690556040517f854dd6ce5a1445c4c54388b21cffd11cf5bba1b9e763aec48ce3da75d617412f90600090a1565b600060705460646120719190615b8e565b905090565b607a5473ffffffffffffffffffffffffffffffffffffffff1633146120c7576040517f4755657900000000000000000000000000000000000000000000000000000000815260040160405180910390fd5b606f80547fff0000000000000000000000000000000000000000ffffffffffffffffffffff166b01000000000000000000000073ffffffffffffffffffffffffffffffffffffffff8416908102919091179091556040519081527ff54144f9611984021529f814a1cb6a41e22c58351510a0d9f7e822618abb9cc090602001610d4d565b612153614cc9565b61215d6000614d4a565b565b60335473ffffffffffffffffffffffffffffffffffffffff1633146122c7576000612188612a89565b90508067ffffffffffffffff168267ffffffffffffffff16116121d7576040517f812a372d00000000000000000000000000000000000000000000000000000000815260040160405180910390fd5b60735467ffffffffffffffff680100000000000000009091048116908316118061221d575067ffffffffffffffff80831660009081526072602052604090206001015416155b15612254576040517f98c5c01400000000000000000000000000000000000000000000000000000000815260040160405180910390fd5b67ffffffffffffffff80831660009081526072602052604090206001015442916122839162093a8091166159a8565b67ffffffffffffffff1611156122c5576040517fd257555a00000000000000000000000000000000000000000000000000000000815260040160405180910390fd5b505b611a36614306565b607b5473ffffffffffffffffffffffffffffffffffffffff163314612320576040517fd1ec4b2300000000000000000000000000000000000000000000000000000000815260040160405180910390fd5b607b54607a80547fffffffffffffffffffffffff00000000000000000000000000000000000000001673ffffffffffffffffffffffffffffffffffffffff90921691821790556040519081527f056dc487bbf0795d0bbb1b4f0af523a855503cff740bfb4d5475f7a90c091e8e9060200160405180910390a1565b6040517f70a08231000000000000000000000000000000000000000000000000000000008152306004820152600090819073ffffffffffffffffffffffffffffffffffffffff7f000000000000000000000000000000000000000000000000000000000000000016906370a0823190602401602060405180830381865afa15801561242a573d6000803e3d6000fd5b505050506040513d601f19601f8201168201806040525081019061244e9190615a97565b9050600061245a612a89565b60735467ffffffffffffffff6801000000000000000082048116916124b29170010000000000000000000000000000000082048116917801000000000000000000000000000000000000000000000000900416615b54565b6124bc91906159a8565b6124c69190615b54565b67ffffffffffffffff169050806000036124e35760009250505090565b6124ed8183615bd4565b9250505090565b607a5473ffffffffffffffffffffffffffffffffffffffff163314612545576040517f4755657900000000000000000000000000000000000000000000000000000000815260040160405180910390fd5b62093a8067ffffffffffffffff8216111561258c576040517fcc96507000000000000000000000000000000000000000000000000000000000815260040160405180910390fd5b606f5460ff166125f35760795467ffffffffffffffff7001000000000000000000000000000000009091048116908216106125f3576040517f48a05a9000000000000000000000000000000000000000000000000000000000815260040160405180910390fd5b607980547fffffffffffffffff0000000000000000ffffffffffffffffffffffffffffffff1670010000000000000000000000000000000067ffffffffffffffff8416908102919091179091556040519081527fc4121f4e22c69632ebb7cf1f462be0511dc034f999b52013eddfb24aab765c7590602001610d4d565b607a5473ffffffffffffffffffffffffffffffffffffffff1633146126c1576040517f4755657900000000000000000000000000000000000000000000000000000000815260040160405180910390fd5b620151808167ffffffffffffffff161115612708576040517fe067dfe800000000000000000000000000000000000000000000000000000000815260040160405180910390fd5b606f80547fffffffffffffffffffffffffffffffffffffffffffffff0000000000000000ff1661010067ffffffffffffffff8416908102919091179091556040519081527f1b023231a1ab6b5d93992f168fb44498e1a7e64cef58daff6f1c216de6a68c2890602001610d4d565b60745468010000000000000000900473ffffffffffffffffffffffffffffffffffffffff1633146127d3576040517fbbcbbc0500000000000000000000000000000000000000000000000000000000815260040160405180910390fd5b6127e287878787878787614730565b607480547fffffffffffffffffffffffffffffffffffffffffffffffff00000000000000001667ffffffffffffffff8781169182179092556000908152607560205260409020849055607954161561285d57607980547fffffffffffffffffffffffffffffffff000000000000000000000000000000001690555b6040517f33d6247d000000000000000000000000000000000000000000000000000000008152600481018590527f000000000000000000000000000000000000000000000000000000000000000073ffffffffffffffffffffffffffffffffffffffff16906333d6247d90602401600060405180830381600087803b1580156128e557600080fd5b505af11580156128f9573d6000803e3d6000fd5b505060405185815233925067ffffffffffffffff881691507fcb339b570a7f0b25afa7333371ff11192092a0aeace12b671f4c212f2815c6fe90602001611f42565b607a5473ffffffffffffffffffffffffffffffffffffffff16331461298c576040517f4755657900000000000000000000000000000000000000000000000000000000815260040160405180910390fd5b607b80547fffffffffffffffffffffffff00000000000000000000000000000000000000001673ffffffffffffffffffffffffffffffffffffffff83169081179091556040519081527fa5b56b7906fd0a20e3f35120dd8343db1e12e037a6c90111c7e42885e82a1ce690602001610d4d565b600067ffffffff0000000167ffffffffffffffff8316108015612a37575067ffffffff00000001604083901c67ffffffffffffffff16105b8015612a58575067ffffffff00000001608083901c67ffffffffffffffff16105b8015612a6f575067ffffffff0000000160c083901c105b15612a7c57506001919050565b506000919050565b919050565b60795460009067ffffffffffffffff1615612acd575060795467ffffffffffffffff9081166000908152607860205260409020546801000000000000000090041690565b5060745467ffffffffffffffff1690565b607a5473ffffffffffffffffffffffffffffffffffffffff163314612b2f576040517f4755657900000000000000000000000000000000000000000000000000000000815260040160405180910390fd5b6076612b3b8282615c36565b507f6b8f723a4c7a5335cafae8a598a0aa0301be1387c037dccc085b62add6448b2081604051610d4d9190615461565b600054610100900460ff1615808015612b8b5750600054600160ff909116105b80612ba55750303b158015612ba5575060005460ff166001145b612c36576040517f08c379a000000000000000000000000000000000000000000000000000000000815260206004820152602e60248201527f496e697469616c697a61626c653a20636f6e747261637420697320616c72656160448201527f647920696e697469616c697a656400000000000000000000000000000000000060648201526084015b60405180910390fd5b600080547fffffffffffffffffffffffffffffffffffffffffffffffffffffffffffffff001660011790558015612c9457600080547fffffffffffffffffffffffffffffffffffffffffffffffffffffffffffff00ff166101001790555b612ca16020880188615666565b607a80547fffffffffffffffffffffffff00000000000000000000000000000000000000001673ffffffffffffffffffffffffffffffffffffffff92909216919091179055612cf66040880160208901615666565b606f805473ffffffffffffffffffffffffffffffffffffffff929092166b010000000000000000000000027fff0000000000000000000000000000000000000000ffffffffffffffffffffff909216919091179055612d5b6080880160608901615666565b6074805473ffffffffffffffffffffffffffffffffffffffff9290921668010000000000000000027fffffffff0000000000000000000000000000000000000000ffffffffffffffff9092169190911790556000805260756020527ff9e3fbf150b7a0077118526f473c53cb4734f166167e2c6213e3567dd390b4ad8690556076612de68682615c36565b506077612df38582615c36565b5062093a80612e086060890160408a016154ec565b67ffffffffffffffff161115612e4a576040517fcc96507000000000000000000000000000000000000000000000000000000000815260040160405180910390fd5b612e5a60608801604089016154ec565b6079805467ffffffffffffffff92909216700100000000000000000000000000000000027fffffffffffffffff0000000000000000ffffffffffffffffffffffffffffffff90921691909117905562093a80612ebc60a0890160808a016154ec565b67ffffffffffffffff161115612efe576040517f1d06e87900000000000000000000000000000000000000000000000000000000815260040160405180910390fd5b612f0e60a08801608089016154ec565b6079805477ffffffffffffffffffffffffffffffffffffffffffffffff16780100000000000000000000000000000000000000000000000067ffffffffffffffff939093169290920291909117905567016345785d8a0000607055606f80547fffffffffffffffffffffffffffffffffffffffffff00000000000000000000ff166a03ea000000000000070800179055607b80547fffffff000000000000000000ffffffffffffffffffffffffffffffffffffffff167c0100000000000697800000000000000000000000000000000000000000179055612fed614dc1565b7f13e60734641bd97ab6e444f419277d9983e2c3eab9bb631a578ffa07756b635160007f000000000000000000000000000000000000000000000000000000000000000085856040516130439493929190615d50565b60405180910390a180156130ae57600080547fffffffffffffffffffffffffffffffffffffffffffffffffffffffffffff00ff169055604051600181527f7f26b83ff96e1f2b6a682f133852f6798a09c465da95921460cefb38474024989060200160405180910390a15b50505050505050565b607b547c0100000000000000000000000000000000000000000000000000000000900460ff1615613114576040517f24eff8c300000000000000000000000000000000000000000000000000000000815260040160405180910390fd5b606f5460ff1615613151576040517f2f0047fc00000000000000000000000000000000000000000000000000000000815260040160405180910390fd5b80600081900361318d576040517fcb591a5f00000000000000000000000000000000000000000000000000000000815260040160405180910390fd5b6103e88111156131c9576040517fb59f753a00000000000000000000000000000000000000000000000000000000815260040160405180910390fd5b60735467ffffffffffffffff78010000000000000000000000000000000000000000000000008204811691613214918491700100000000000000000000000000000000900416615d88565b111561324c576040517fc630a00d00000000000000000000000000000000000000000000000000000000815260040160405180910390fd5b60735467ffffffffffffffff680100000000000000008204811660008181526072602052604081205491937001000000000000000000000000000000009004909216915b848110156134f65760008787838181106132ac576132ac6159d0565b90506020028101906132be9190615d9b565b6132c790615dd9565b9050836132d381615a70565b825180516020918201208185015160408087015190519499509194506000936133359386939101928352602083019190915260c01b7fffffffffffffffff00000000000000000000000000000000000000000000000016604082015260480190565b604080517fffffffffffffffffffffffffffffffffffffffffffffffffffffffffffffffe0818403018152918152815160209283012067ffffffffffffffff89166000908152607190935291205490915081146133be576040517fce3d755e00000000000000000000000000000000000000000000000000000000815260040160405180910390fd5b67ffffffffffffffff86166000908152607160205260408120556133e3600189615b75565b84036134525742607b60149054906101000a900467ffffffffffffffff16846040015161341091906159a8565b67ffffffffffffffff161115613452576040517fc44a082100000000000000000000000000000000000000000000000000000000815260040160405180910390fd5b6020838101516040805192830188905282018490526060808301919091524260c01b7fffffffffffffffff00000000000000000000000000000000000000000000000016608083015233901b7fffffffffffffffffffffffffffffffffffffffff000000000000000000000000166088820152609c0160405160208183030381529060405280519060200120945050505080806134ee90615ab0565b915050613290565b5061350184846159a8565b6073805467ffffffffffffffff4281167fffffffffffffffffffffffffffffffffffffffffffffffff00000000000000009092168217808455604080516060810182528781526020808201958652680100000000000000009384900485168284019081528589166000818152607290935284832093518455965160019390930180549151871686027fffffffffffffffffffffffffffffffff0000000000000000000000000000000090921693871693909317179091558554938916700100000000000000000000000000000000027fffffffffffffffff0000000000000000ffffffffffffffffffffffffffffffff938602939093167fffffffffffffffff00000000000000000000000000000000ffffffffffffffff90941693909317919091179093559151929550917f648a61dd2438f072f5a1960939abd30f37aea80d2e94c9792ad142d3e0a490a49190a2505050505050565b607a5473ffffffffffffffffffffffffffffffffffffffff1633146136aa576040517f4755657900000000000000000000000000000000000000000000000000000000815260040160405180910390fd5b7f000000000000000000000000000000000000000000000000000000000000000073ffffffffffffffffffffffffffffffffffffffff1663dbc169766040518163ffffffff1660e01b8152600401600060405180830381600087803b15801561371257600080fd5b505af1158015613726573d6000803e3d6000fd5b5050505061215d614e61565b60745468010000000000000000900473ffffffffffffffffffffffffffffffffffffffff16331461378f576040517fbbcbbc0500000000000000000000000000000000000000000000000000000000815260040160405180910390fd5b61379f8888888888888888613ebe565b607480547fffffffffffffffffffffffffffffffffffffffffffffffff00000000000000001667ffffffffffffffff8781169182179092556000908152607560205260409020849055607954161561381a57607980547fffffffffffffffffffffffffffffffff000000000000000000000000000000001690555b6040517f33d6247d000000000000000000000000000000000000000000000000000000008152600481018590527f000000000000000000000000000000000000000000000000000000000000000073ffffffffffffffffffffffffffffffffffffffff16906333d6247d90602401600060405180830381600087803b1580156138a257600080fd5b505af11580156138b6573d6000803e3d6000fd5b50506079805477ffffffffffffffffffffffffffffffffffffffffffffffff167a093a800000000000000000000000000000000000000000000000001790555050604051838152339067ffffffffffffffff8716907fcc1b5520188bf1dd3e63f98164b577c4d75c11a619ddea692112f0d1aec4cf729060200160405180910390a35050505050505050565b607b547c0100000000000000000000000000000000000000000000000000000000900460ff161561399f576040517f24eff8c300000000000000000000000000000000000000000000000000000000815260040160405180910390fd5b606f5460ff16156139dc576040517f2f0047fc00000000000000000000000000000000000000000000000000000000815260040160405180910390fd5b60006139e6612060565b905081811115613a22576040517f4732fdb500000000000000000000000000000000000000000000000000000000815260040160405180910390fd5b611388831115613a5e576040517fa29a6c7c00000000000000000000000000000000000000000000000000000000815260040160405180910390fd5b613aa073ffffffffffffffffffffffffffffffffffffffff7f00000000000000000000000000000000000000000000000000000000000000001633308461438e565b60007f000000000000000000000000000000000000000000000000000000000000000073ffffffffffffffffffffffffffffffffffffffff16633ed691ef6040518163ffffffff1660e01b8152600401602060405180830381865afa158015613b0d573d6000803e3d6000fd5b505050506040513d601f19601f82011682018060405250810190613b319190615a97565b60738054919250780100000000000000000000000000000000000000000000000090910467ffffffffffffffff16906018613b6b83615a70565b91906101000a81548167ffffffffffffffff021916908367ffffffffffffffff160217905550508484604051613ba2929190615e69565b60408051918290038220602083015281018290527fffffffffffffffff0000000000000000000000000000000000000000000000004260c01b166060820152606801604080518083037fffffffffffffffffffffffffffffffffffffffffffffffffffffffffffffffe001815291815281516020928301206073547801000000000000000000000000000000000000000000000000900467ffffffffffffffff1660009081526071909352912055323303613cd257607354604080518381523360208201526060918101829052600091810191909152780100000000000000000000000000000000000000000000000090910467ffffffffffffffff16907ff94bb37db835f1ab585ee00041849a09b12cd081d77fa15ca070757619cbc9319060800160405180910390a2613d31565b607360189054906101000a900467ffffffffffffffff1667ffffffffffffffff167ff94bb37db835f1ab585ee00041849a09b12cd081d77fa15ca070757619cbc93182338888604051613d289493929190615e79565b60405180910390a25b5050505050565b607a5473ffffffffffffffffffffffffffffffffffffffff163314613d89576040517f4755657900000000000000000000000000000000000000000000000000000000815260040160405180910390fd5b607480547fffffffff0000000000000000000000000000000000000000ffffffffffffffff166801000000000000000073ffffffffffffffffffffffffffffffffffffffff8416908102919091179091556040519081527f61f8fec29495a3078e9271456f05fb0707fd4e41f7661865f80fc437d06681ca90602001610d4d565b613e12614cc9565b73ffffffffffffffffffffffffffffffffffffffff8116613eb5576040517f08c379a000000000000000000000000000000000000000000000000000000000815260206004820152602660248201527f4f776e61626c653a206e6577206f776e657220697320746865207a65726f206160448201527f64647265737300000000000000000000000000000000000000000000000000006064820152608401612c2d565b611a3681614d4a565b600067ffffffffffffffff891615613f8c5760795467ffffffffffffffff908116908a161115613f1a576040517fbb14c20500000000000000000000000000000000000000000000000000000000815260040160405180910390fd5b5067ffffffffffffffff8089166000908152607860205260409020600281015481549092898116680100000000000000009092041614613f86576040517f2bd2e3e700000000000000000000000000000000000000000000000000000000815260040160405180910390fd5b50614028565b5067ffffffffffffffff861660009081526075602052604090205480613fde576040517f4997b98600000000000000000000000000000000000000000000000000000000815260040160405180910390fd5b60745467ffffffffffffffff9081169088161115614028576040517f1e56e9e200000000000000000000000000000000000000000000000000000000815260040160405180910390fd5b60795467ffffffffffffffff908116908916118061405a57508867ffffffffffffffff168867ffffffffffffffff1611155b80614081575060795467ffffffffffffffff68010000000000000000909104811690891611155b156140b8576040517fbfa7079f00000000000000000000000000000000000000000000000000000000815260040160405180910390fd5b67ffffffffffffffff88811660009081526078602052604090205468010000000000000000900481169087161461411b576040517f32a2a77f00000000000000000000000000000000000000000000000000000000815260040160405180910390fd5b600061412a8888888589610d58565b905060007f30644e72e131a029b85045b68181585d2833e84879b9709143e1f593f000000160028360405161415f9190615eaf565b602060405180830381855afa15801561417c573d6000803e3d6000fd5b5050506040513d601f19601f8201168201806040525081019061419f9190615a97565b6141a99190615ec1565b6040805160208101825282815290517f8d8f8a5c00000000000000000000000000000000000000000000000000000000815291925073ffffffffffffffffffffffffffffffffffffffff7f00000000000000000000000000000000000000000000000000000000000000001691638d8f8a5c9161422c9189918991600401615ed5565b602060405180830381865afa158015614249573d6000803e3d6000fd5b505050506040513d601f19601f8201168201806040525081019061426d9190615f1d565b6142a3576040517f09bde33900000000000000000000000000000000000000000000000000000000815260040160405180910390fd5b67ffffffffffffffff8a166000908152607860205260409020600201548690036142f9576040517fa47276bd00000000000000000000000000000000000000000000000000000000815260040160405180910390fd5b5050505050505050505050565b7f000000000000000000000000000000000000000000000000000000000000000073ffffffffffffffffffffffffffffffffffffffff16632072f6c56040518163ffffffff1660e01b8152600401600060405180830381600087803b15801561436e57600080fd5b505af1158015614382573d6000803e3d6000fd5b5050505061215d614ef0565b60405173ffffffffffffffffffffffffffffffffffffffff8085166024830152831660448201526064810182905261446a9085907f23b872dd00000000000000000000000000000000000000000000000000000000906084015b604080517fffffffffffffffffffffffffffffffffffffffffffffffffffffffffffffffe08184030181529190526020810180517bffffffffffffffffffffffffffffffffffffffffffffffffffffffff167fffffffff0000000000000000000000000000000000000000000000000000000090931692909217909152614f83565b50505050565b60795467ffffffffffffffff68010000000000000000820481169116111561215d576079546000906144b99068010000000000000000900467ffffffffffffffff1660016159a8565b90506144c481610f2f565b15611a36576079546000906002906144e790849067ffffffffffffffff16615b54565b6144f19190615f3f565b6144fb90836159a8565b905061450681610f2f565b15614518576145148161451d565b5050565b614514825b60795467ffffffffffffffff680100000000000000009091048116908216111580614557575060795467ffffffffffffffff908116908216115b1561458e576040517fd086b70b00000000000000000000000000000000000000000000000000000000815260040160405180910390fd5b67ffffffffffffffff818116600081815260786020908152604080832080546074805468010000000000000000928390049098167fffffffffffffffffffffffffffffffffffffffffffffffff000000000000000090981688179055600282015487865260759094529382902092909255607980547fffffffffffffffffffffffffffffffff0000000000000000ffffffffffffffff169390940292909217909255600182015490517f33d6247d00000000000000000000000000000000000000000000000000000000815260048101919091529091907f000000000000000000000000000000000000000000000000000000000000000073ffffffffffffffffffffffffffffffffffffffff16906333d6247d90602401600060405180830381600087803b1580156146c057600080fd5b505af11580156146d4573d6000803e3d6000fd5b505050508267ffffffffffffffff168167ffffffffffffffff167f328d3c6c0fd6f1be0515e422f2d87e59f25922cbc2233568515a0c4bc3f8510e846002015460405161472391815260200190565b60405180910390a3505050565b60008061473b612a89565b905067ffffffffffffffff89161561480b5760795467ffffffffffffffff908116908a161115614797576040517fbb14c20500000000000000000000000000000000000000000000000000000000815260040160405180910390fd5b67ffffffffffffffff808a1660009081526078602052604090206002810154815490945090918a8116680100000000000000009092041614614805576040517f2bd2e3e700000000000000000000000000000000000000000000000000000000815260040160405180910390fd5b506148ac565b67ffffffffffffffff881660009081526075602052604090205491508161485e576040517f4997b98600000000000000000000000000000000000000000000000000000000815260040160405180910390fd5b8067ffffffffffffffff168867ffffffffffffffff1611156148ac576040517f1e56e9e200000000000000000000000000000000000000000000000000000000815260040160405180910390fd5b8067ffffffffffffffff168767ffffffffffffffff16116148f9576040517fb9b18f5700000000000000000000000000000000000000000000000000000000815260040160405180910390fd5b6000614908898989868a610d58565b905060007f30644e72e131a029b85045b68181585d2833e84879b9709143e1f593f000000160028360405161493d9190615eaf565b602060405180830381855afa15801561495a573d6000803e3d6000fd5b5050506040513d601f19601f8201168201806040525081019061497d9190615a97565b6149879190615ec1565b6040805160208101825282815290517f8d8f8a5c00000000000000000000000000000000000000000000000000000000815291925073ffffffffffffffffffffffffffffffffffffffff7f00000000000000000000000000000000000000000000000000000000000000001691638d8f8a5c91614a0a918a918a91600401615ed5565b602060405180830381865afa158015614a27573d6000803e3d6000fd5b505050506040513d601f19601f82011682018060405250810190614a4b9190615f1d565b614a81576040517f09bde33900000000000000000000000000000000000000000000000000000000815260040160405180910390fd5b6142f933614a8f858c615b54565b67ffffffffffffffff16614aa161239b565b614aab9190615b8e565b73ffffffffffffffffffffffffffffffffffffffff7f0000000000000000000000000000000000000000000000000000000000000000169190615094565b6000614af3612a89565b905081600080614b038484615b54565b606f5467ffffffffffffffff9182169250600091614b279161010090041642615b75565b90505b8467ffffffffffffffff168467ffffffffffffffff1614614bb25767ffffffffffffffff80851660009081526072602052604090206001810154909116821015614b9057600181015468010000000000000000900467ffffffffffffffff169450614bac565b614b9a8686615b54565b67ffffffffffffffff16935050614bb2565b50614b2a565b6000614bbe8484615b75565b905083811015614c1557808403600c8111614bd95780614bdc565b600c5b9050806103e80a81606f60099054906101000a900461ffff1661ffff160a6070540281614c0b57614c0b615ba5565b0460705550614c85565b838103600c8111614c265780614c29565b600c5b90506000816103e80a82606f60099054906101000a900461ffff1661ffff160a670de0b6b3a76400000281614c6057614c60615ba5565b04905080607054670de0b6b3a76400000281614c7e57614c7e615ba5565b0460705550505b683635c9adc5dea000006070541115614caa57683635c9adc5dea000006070556130ae565b633b9aca0060705410156130ae57633b9aca0060705550505050505050565b60335473ffffffffffffffffffffffffffffffffffffffff16331461215d576040517f08c379a000000000000000000000000000000000000000000000000000000000815260206004820181905260248201527f4f776e61626c653a2063616c6c6572206973206e6f7420746865206f776e65726044820152606401612c2d565b6033805473ffffffffffffffffffffffffffffffffffffffff8381167fffffffffffffffffffffffff0000000000000000000000000000000000000000831681179093556040519116919082907f8be0079c531659141344cd1fd0a4f28419497f9722a3daafe3b4186f6b6457e090600090a35050565b600054610100900460ff16614e58576040517f08c379a000000000000000000000000000000000000000000000000000000000815260206004820152602b60248201527f496e697469616c697a61626c653a20636f6e7472616374206973206e6f74206960448201527f6e697469616c697a696e670000000000000000000000000000000000000000006064820152608401612c2d565b61215d33614d4a565b606f5460ff16614e9d576040517f5386698100000000000000000000000000000000000000000000000000000000815260040160405180910390fd5b606f80547fffffffffffffffffffffffffffffffffffffffffffffffffffffffffffffff001690556040517f1e5e34eea33501aecf2ebec9fe0e884a40804275ea7fe10b2ba084c8374308b390600090a1565b606f5460ff1615614f2d576040517f2f0047fc00000000000000000000000000000000000000000000000000000000815260040160405180910390fd5b606f80547fffffffffffffffffffffffffffffffffffffffffffffffffffffffffffffff001660011790556040517f2261efe5aef6fedc1fd1550b25facc9181745623049c7901287030b9ad1a549790600090a1565b6000614fe5826040518060400160405280602081526020017f5361666545524332303a206c6f772d6c6576656c2063616c6c206661696c65648152508573ffffffffffffffffffffffffffffffffffffffff166150ea9092919063ffffffff16565b80519091501561508f57808060200190518101906150039190615f1d565b61508f576040517f08c379a000000000000000000000000000000000000000000000000000000000815260206004820152602a60248201527f5361666545524332303a204552433230206f7065726174696f6e20646964206e60448201527f6f742073756363656564000000000000000000000000000000000000000000006064820152608401612c2d565b505050565b60405173ffffffffffffffffffffffffffffffffffffffff831660248201526044810182905261508f9084907fa9059cbb00000000000000000000000000000000000000000000000000000000906064016143e8565b60606150f98484600085615101565b949350505050565b606082471015615193576040517f08c379a000000000000000000000000000000000000000000000000000000000815260206004820152602660248201527f416464726573733a20696e73756666696369656e742062616c616e636520666f60448201527f722063616c6c00000000000000000000000000000000000000000000000000006064820152608401612c2d565b6000808673ffffffffffffffffffffffffffffffffffffffff1685876040516151bc9190615eaf565b60006040518083038185875af1925050503d80600081146151f9576040519150601f19603f3d011682016040523d82523d6000602084013e6151fe565b606091505b509150915061520f8783838761521a565b979650505050505050565b606083156152b05782516000036152a95773ffffffffffffffffffffffffffffffffffffffff85163b6152a9576040517f08c379a000000000000000000000000000000000000000000000000000000000815260206004820152601d60248201527f416464726573733a2063616c6c20746f206e6f6e2d636f6e74726163740000006044820152606401612c2d565b50816150f9565b6150f983838151156152c55781518083602001fd5b806040517f08c379a0000000000000000000000000000000000000000000000000000000008152600401612c2d9190615461565b803567ffffffffffffffff81168114612a8457600080fd5b60008083601f84011261532357600080fd5b50813567ffffffffffffffff81111561533b57600080fd5b60208301915083602082850101111561535357600080fd5b9250929050565b60008060008060008060008060e0898b03121561537657600080fd5b61537f896152f9565b975061538d60208a016152f9565b965061539b60408a016152f9565b95506153a960608a016152f9565b94506080890135935060a0890135925060c089013567ffffffffffffffff8111156153d357600080fd5b6153df8b828c01615311565b999c989b5096995094979396929594505050565b60005b8381101561540e5781810151838201526020016153f6565b50506000910152565b6000815180845261542f8160208601602086016153f3565b601f017fffffffffffffffffffffffffffffffffffffffffffffffffffffffffffffffe0169290920160200192915050565b6020815260006154746020830184615417565b9392505050565b60006020828403121561548d57600080fd5b813561ffff8116811461547457600080fd5b600080600080600060a086880312156154b757600080fd5b6154c0866152f9565b94506154ce602087016152f9565b94979496505050506040830135926060810135926080909101359150565b6000602082840312156154fe57600080fd5b615474826152f9565b803573ffffffffffffffffffffffffffffffffffffffff81168114612a8457600080fd5b60008060008060006060868803121561554357600080fd5b853567ffffffffffffffff8082111561555b57600080fd5b818801915088601f83011261556f57600080fd5b81358181111561557e57600080fd5b8960208260071b850101111561559357600080fd5b602083019750809650506155a960208901615507565b945060408801359150808211156155bf57600080fd5b506155cc88828901615311565b969995985093965092949392505050565b600080600080600080600060c0888a0312156155f857600080fd5b615601886152f9565b965061560f602089016152f9565b955061561d604089016152f9565b9450606088013593506080880135925060a088013567ffffffffffffffff81111561564757600080fd5b6156538a828b01615311565b989b979a50959850939692959293505050565b60006020828403121561567857600080fd5b61547482615507565b60006020828403121561569357600080fd5b5035919050565b7f4e487b7100000000000000000000000000000000000000000000000000000000600052604160045260246000fd5b600067ffffffffffffffff808411156156e4576156e461569a565b604051601f85017fffffffffffffffffffffffffffffffffffffffffffffffffffffffffffffffe0908116603f0116810190828211818310171561572a5761572a61569a565b8160405280935085815286868601111561574357600080fd5b858560208301376000602087830101525050509392505050565b600082601f83011261576e57600080fd5b615474838335602085016156c9565b60006020828403121561578f57600080fd5b813567ffffffffffffffff8111156157a657600080fd5b6150f98482850161575d565b6000806000806000808688036101208112156157cd57600080fd5b60a08112156157db57600080fd5b5086955060a0870135945060c087013567ffffffffffffffff8082111561580157600080fd5b61580d8a838b0161575d565b955060e089013591508082111561582357600080fd5b61582f8a838b0161575d565b945061010089013591508082111561584657600080fd5b5061585389828a01615311565b979a9699509497509295939492505050565b6000806020838503121561587857600080fd5b823567ffffffffffffffff8082111561589057600080fd5b818501915085601f8301126158a457600080fd5b8135818111156158b357600080fd5b8660208260051b85010111156158c857600080fd5b60209290920196919550909350505050565b6000806000604084860312156158ef57600080fd5b833567ffffffffffffffff81111561590657600080fd5b61591286828701615311565b909790965060209590950135949350505050565b600181811c9082168061593a57607f821691505b602082108103615973577f4e487b7100000000000000000000000000000000000000000000000000000000600052602260045260246000fd5b50919050565b7f4e487b7100000000000000000000000000000000000000000000000000000000600052601160045260246000fd5b67ffffffffffffffff8181168382160190808211156159c9576159c9615979565b5092915050565b7f4e487b7100000000000000000000000000000000000000000000000000000000600052603260045260246000fd5b600060808284031215615a1157600080fd5b6040516080810181811067ffffffffffffffff82111715615a3457615a3461569a565b80604052508235815260208301356020820152615a53604084016152f9565b6040820152615a64606084016152f9565b60608201529392505050565b600067ffffffffffffffff808316818103615a8d57615a8d615979565b6001019392505050565b600060208284031215615aa957600080fd5b5051919050565b60007fffffffffffffffffffffffffffffffffffffffffffffffffffffffffffffffff8203615ae157615ae1615979565b5060010190565b8183528181602085013750600060208284010152600060207fffffffffffffffffffffffffffffffffffffffffffffffffffffffffffffffe0601f840116840101905092915050565b838152604060208201526000615b4b604083018486615ae8565b95945050505050565b67ffffffffffffffff8281168282160390808211156159c9576159c9615979565b81810381811115615b8857615b88615979565b92915050565b8082028115828204841417615b8857615b88615979565b7f4e487b7100000000000000000000000000000000000000000000000000000000600052601260045260246000fd5b600082615be357615be3615ba5565b500490565b601f82111561508f57600081815260208120601f850160051c81016020861015615c0f5750805b601f850160051c820191505b81811015615c2e57828155600101615c1b565b505050505050565b815167ffffffffffffffff811115615c5057615c5061569a565b615c6481615c5e8454615926565b84615be8565b602080601f831160018114615cb75760008415615c815750858301515b7fffffffffffffffffffffffffffffffffffffffffffffffffffffffffffffffff600386901b1c1916600185901b178555615c2e565b6000858152602081207fffffffffffffffffffffffffffffffffffffffffffffffffffffffffffffffe08616915b82811015615d0457888601518255948401946001909101908401615ce5565b5085821015615d4057878501517fffffffffffffffffffffffffffffffffffffffffffffffffffffffffffffffff600388901b60f8161c191681555b5050505050600190811b01905550565b600067ffffffffffffffff808716835280861660208401525060606040830152615d7e606083018486615ae8565b9695505050505050565b80820180821115615b8857615b88615979565b600082357fffffffffffffffffffffffffffffffffffffffffffffffffffffffffffffffa1833603018112615dcf57600080fd5b9190910192915050565b600060608236031215615deb57600080fd5b6040516060810167ffffffffffffffff8282108183111715615e0f57615e0f61569a565b816040528435915080821115615e2457600080fd5b50830136601f820112615e3657600080fd5b615e45368235602084016156c9565b82525060208301356020820152615e5e604084016152f9565b604082015292915050565b8183823760009101908152919050565b84815273ffffffffffffffffffffffffffffffffffffffff84166020820152606060408201526000615d7e606083018486615ae8565b60008251615dcf8184602087016153f3565b600082615ed057615ed0615ba5565b500690565b604081526000615ee9604083018587615ae8565b905060208083018460005b6001811015615f1157815183529183019190830190600101615ef4565b50505050949350505050565b600060208284031215615f2f57600080fd5b8151801515811461547457600080fd5b600067ffffffffffffffff80841680615f5a57615f5a615ba5565b9216919091049291505056fea2646970667358221220424d90c8a355895611079245de2e68d83f5d4413cd1e968701a6d22b917ba03264736f6c63430008110033",
  "linkReferences": {},
  "deployedLinkReferences": {}
}