{
  "_format": "hh-sol-artifact-1",
  "contractName": "TokenWrapped",
  "sourceName": "contracts/lib/TokenWrapped.sol",
  "abi": [
    {
      "inputs": [
        {
          "internalType": "string",
          "name": "name",
          "type": "string"
        },
        {
          "internalType": "string",
          "name": "symbol",
          "type": "string"
        },
        {
          "internalType": "uint8",
          "name": "__decimals",
          "type": "uint8"
        }
      ],
      "stateMutability": "nonpayable",
      "type": "constructor"
    },
    {
      "anonymous": false,
      "inputs": [
        {
          "indexed": true,
          "internalType": "address",
          "name": "owner",
          "type": "address"
        },
        {
          "indexed": true,
          "internalType": "address",
          "name": "spender",
          "type": "address"
        },
        {
          "indexed": false,
          "internalType": "uint256",
          "name": "value",
          "type": "uint256"
        }
      ],
      "name": "Approval",
      "type": "event"
    },
    {
      "anonymous": false,
      "inputs": [
        {
          "indexed": true,
          "internalType": "address",
          "name": "from",
          "type": "address"
        },
        {
          "indexed": true,
          "internalType": "address",
          "name": "to",
          "type": "address"
        },
        {
          "indexed": false,
          "internalType": "uint256",
          "name": "value",
          "type": "uint256"
        }
      ],
      "name": "Transfer",
      "type": "event"
    },
    {
      "inputs": [],
      "name": "DOMAIN_SEPARATOR",
      "outputs": [
        {
          "internalType": "bytes32",
          "name": "",
          "type": "bytes32"
        }
      ],
      "stateMutability": "view",
      "type": "function"
    },
    {
      "inputs": [],
      "name": "DOMAIN_TYPEHASH",
      "outputs": [
        {
          "internalType": "bytes32",
          "name": "",
          "type": "bytes32"
        }
      ],
      "stateMutability": "view",
      "type": "function"
    },
    {
      "inputs": [],
      "name": "PERMIT_TYPEHASH",
      "outputs": [
        {
          "internalType": "bytes32",
          "name": "",
          "type": "bytes32"
        }
      ],
      "stateMutability": "view",
      "type": "function"
    },
    {
      "inputs": [],
      "name": "VERSION",
      "outputs": [
        {
          "internalType": "string",
          "name": "",
          "type": "string"
        }
      ],
      "stateMutability": "view",
      "type": "function"
    },
    {
      "inputs": [
        {
          "internalType": "address",
          "name": "owner",
          "type": "address"
        },
        {
          "internalType": "address",
          "name": "spender",
          "type": "address"
        }
      ],
      "name": "allowance",
      "outputs": [
        {
          "internalType": "uint256",
          "name": "",
          "type": "uint256"
        }
      ],
      "stateMutability": "view",
      "type": "function"
    },
    {
      "inputs": [
        {
          "internalType": "address",
          "name": "spender",
          "type": "address"
        },
        {
          "internalType": "uint256",
          "name": "amount",
          "type": "uint256"
        }
      ],
      "name": "approve",
      "outputs": [
        {
          "internalType": "bool",
          "name": "",
          "type": "bool"
        }
      ],
      "stateMutability": "nonpayable",
      "type": "function"
    },
    {
      "inputs": [
        {
          "internalType": "address",
          "name": "account",
          "type": "address"
        }
      ],
      "name": "balanceOf",
      "outputs": [
        {
          "internalType": "uint256",
          "name": "",
          "type": "uint256"
        }
      ],
      "stateMutability": "view",
      "type": "function"
    },
    {
      "inputs": [],
      "name": "bridgeAddress",
      "outputs": [
        {
          "internalType": "address",
          "name": "",
          "type": "address"
        }
      ],
      "stateMutability": "view",
      "type": "function"
    },
    {
      "inputs": [
        {
          "internalType": "address",
          "name": "account",
          "type": "address"
        },
        {
          "internalType": "uint256",
          "name": "value",
          "type": "uint256"
        }
      ],
      "name": "burn",
      "outputs": [
        {
          "internalType": "bool",
          "name": "",
          "type": "bool"
        }
      ],
      "stateMutability": "nonpayable",
      "type": "function"
    },
    {
      "inputs": [],
      "name": "decimals",
      "outputs": [
        {
          "internalType": "uint8",
          "name": "",
          "type": "uint8"
        }
      ],
      "stateMutability": "view",
      "type": "function"
    },
    {
      "inputs": [
        {
          "internalType": "address",
          "name": "spender",
          "type": "address"
        },
        {
          "internalType": "uint256",
          "name": "subtractedValue",
          "type": "uint256"
        }
      ],
      "name": "decreaseAllowance",
      "outputs": [
        {
          "internalType": "bool",
          "name": "",
          "type": "bool"
        }
      ],
      "stateMutability": "nonpayable",
      "type": "function"
    },
    {
      "inputs": [],
      "name": "deploymentChainId",
      "outputs": [
        {
          "internalType": "uint256",
          "name": "",
          "type": "uint256"
        }
      ],
      "stateMutability": "view",
      "type": "function"
    },
    {
      "inputs": [
        {
          "internalType": "address",
          "name": "spender",
          "type": "address"
        },
        {
          "internalType": "uint256",
          "name": "addedValue",
          "type": "uint256"
        }
      ],
      "name": "increaseAllowance",
      "outputs": [
        {
          "internalType": "bool",
          "name": "",
          "type": "bool"
        }
      ],
      "stateMutability": "nonpayable",
      "type": "function"
    },
    {
      "inputs": [
        {
          "internalType": "address",
          "name": "to",
          "type": "address"
        },
        {
          "internalType": "uint256",
          "name": "value",
          "type": "uint256"
        }
      ],
      "name": "mint",
      "outputs": [
        {
          "internalType": "bool",
          "name": "",
          "type": "bool"
        }
      ],
      "stateMutability": "nonpayable",
      "type": "function"
    },
    {
      "inputs": [],
      "name": "name",
      "outputs": [
        {
          "internalType": "string",
          "name": "",
          "type": "string"
        }
      ],
      "stateMutability": "view",
      "type": "function"
    },
    {
      "inputs": [
        {
          "internalType": "address",
          "name": "",
          "type": "address"
        }
      ],
      "name": "nonces",
      "outputs": [
        {
          "internalType": "uint256",
          "name": "",
          "type": "uint256"
        }
      ],
      "stateMutability": "view",
      "type": "function"
    },
    {
      "inputs": [
        {
          "internalType": "address",
          "name": "owner",
          "type": "address"
        },
        {
          "internalType": "address",
          "name": "spender",
          "type": "address"
        },
        {
          "internalType": "uint256",
          "name": "value",
          "type": "uint256"
        },
        {
          "internalType": "uint256",
          "name": "deadline",
          "type": "uint256"
        },
        {
          "internalType": "uint8",
          "name": "v",
          "type": "uint8"
        },
        {
          "internalType": "bytes32",
          "name": "r",
          "type": "bytes32"
        },
        {
          "internalType": "bytes32",
          "name": "s",
          "type": "bytes32"
        }
      ],
      "name": "permit",
      "outputs": [],
      "stateMutability": "nonpayable",
      "type": "function"
    },
    {
      "inputs": [],
      "name": "symbol",
      "outputs": [
        {
          "internalType": "string",
          "name": "",
          "type": "string"
        }
      ],
      "stateMutability": "view",
      "type": "function"
    },
    {
      "inputs": [],
      "name": "totalSupply",
      "outputs": [
        {
          "internalType": "uint256",
          "name": "",
          "type": "uint256"
        }
      ],
      "stateMutability": "view",
      "type": "function"
    },
    {
      "inputs": [
        {
          "internalType": "address",
          "name": "to",
          "type": "address"
        },
        {
          "internalType": "uint256",
          "name": "amount",
          "type": "uint256"
        }
      ],
      "name": "transfer",
      "outputs": [
        {
          "internalType": "bool",
          "name": "",
          "type": "bool"
        }
      ],
      "stateMutability": "nonpayable",
      "type": "function"
    },
    {
      "inputs": [
        {
          "internalType": "address",
          "name": "from",
          "type": "address"
        },
        {
          "internalType": "address",
          "name": "to",
          "type": "address"
        },
        {
          "internalType": "uint256",
          "name": "amount",
          "type": "uint256"
        }
      ],
      "name": "transferFrom",
      "outputs": [
        {
          "internalType": "bool",
          "name": "",
          "type": "bool"
        }
      ],
      "stateMutability": "nonpayable",
      "type": "function"
    }
  ],
  "bytecode": "0x60c06040523480156200001157600080fd5b50604051620015de380380620015de8339810160408190526200003491620002ad565b82826003620000448382620003c1565b506004620000538282620003c1565b5050600580546001600160a81b0319163360ff60a01b191617600160a01b60ff851602179055504660808190526200008b9062000098565b60a052506200048d915050565b60007f8b73c3c69bb8fe3d512ecc4cf759cc79239f7b179b0ffacaa9a75d522b39400f620000c562000146565b805160209182012060408051808201825260018152603160f81b90840152805192830193909352918101919091527fc89efdaa54c0f20c7adf612882df0950f5a951637e0307cdcb4c672f298b8bc66060820152608081018390523060a082015260c001604051602081830303815290604052805190602001209050919050565b606060038054620001579062000332565b80601f0160208091040260200160405190810160405280929190818152602001828054620001859062000332565b8015620001d65780601f10620001aa57610100808354040283529160200191620001d6565b820191906000526020600020905b815481529060010190602001808311620001b857829003601f168201915b5050505050905090565b634e487b7160e01b600052604160045260246000fd5b600082601f8301126200020857600080fd5b81516001600160401b0380821115620002255762000225620001e0565b604051601f8301601f19908116603f01168101908282118183101715620002505762000250620001e0565b816040528381526020925086838588010111156200026d57600080fd5b600091505b8382101562000291578582018301518183018401529082019062000272565b83821115620002a35760008385830101525b9695505050505050565b600080600060608486031215620002c357600080fd5b83516001600160401b0380821115620002db57600080fd5b620002e987838801620001f6565b945060208601519150808211156200030057600080fd5b506200030f86828701620001f6565b925050604084015160ff811681146200032757600080fd5b809150509250925092565b600181811c908216806200034757607f821691505b6020821081036200036857634e487b7160e01b600052602260045260246000fd5b50919050565b601f821115620003bc57600081815260208120601f850160051c81016020861015620003975750805b601f850160051c820191505b81811015620003b857828155600101620003a3565b5050505b505050565b81516001600160401b03811115620003dd57620003dd620001e0565b620003f581620003ee845462000332565b846200036e565b602080601f8311600181146200042d5760008415620004145750858301515b600019600386901b1c1916600185901b178555620003b8565b600085815260208120601f198616915b828110156200045e578886015182559484019460019091019084016200043d565b50858210156200047d5787850151600019600388901b60f8161c191681555b5050505050600190811b01905550565b60805160a051611124620004ba600039600061049f015260008181610307015261046901526111246000f3fe608060405234801561001057600080fd5b50600436106101475760003560e01c806370a08231116100c8578063a457c2d71161008c578063d505accf11610066578063d505accf14610329578063dd62ed3e1461033e578063ffa1ad741461037757600080fd5b8063a457c2d7146102dc578063a9059cbb146102ef578063cd0d00961461030257600080fd5b806370a082311461024d5780637ecebe001461027657806395d89b41146102965780639dc29fac1461029e578063a3c573eb146102b157600080fd5b806330adf81f1161010f57806330adf81f146101d9578063313ce567146102005780633644e5151461021f578063395093511461022757806340c10f191461023a57600080fd5b806306fdde031461014c578063095ea7b31461016a57806318160ddd1461018d57806320606b701461019f57806323b872dd146101c6575b600080fd5b610154610397565b6040516101619190610ece565b60405180910390f35b61017d610178366004610f3f565b610429565b6040519015158152602001610161565b6002545b604051908152602001610161565b6101917f8b73c3c69bb8fe3d512ecc4cf759cc79239f7b179b0ffacaa9a75d522b39400f81565b61017d6101d4366004610f69565b610441565b6101917f6e71edae12b1b97f4d1f60370fef10105fa2faae0126114a169c64845d6126c981565b600554600160a01b900460ff1660405160ff9091168152602001610161565b610191610465565b61017d610235366004610f3f565b6104c1565b61017d610248366004610f3f565b610500565b61019161025b366004610fa5565b6001600160a01b031660009081526020819052604090205490565b610191610284366004610fa5565b60066020526000908152604090205481565b610154610581565b61017d6102ac366004610f3f565b610590565b6005546102c4906001600160a01b031681565b6040516001600160a01b039091168152602001610161565b61017d6102ea366004610f3f565b610603565b61017d6102fd366004610f3f565b610695565b6101917f000000000000000000000000000000000000000000000000000000000000000081565b61033c610337366004610fc7565b6106a3565b005b61019161034c36600461103a565b6001600160a01b03918216600090815260016020908152604080832093909416825291909152205490565b610154604051806040016040528060018152602001603160f81b81525081565b6060600380546103a69061106d565b80601f01602080910402602001604051908101604052809291908181526020018280546103d29061106d565b801561041f5780601f106103f45761010080835404028352916020019161041f565b820191906000526020600020905b81548152906001019060200180831161040257829003601f168201915b5050505050905090565b6000336104378185856108de565b5060019392505050565b60003361044f858285610a03565b61045a858585610a95565b506001949350505050565b60007f0000000000000000000000000000000000000000000000000000000000000000461461049c5761049746610c39565b905090565b507f000000000000000000000000000000000000000000000000000000000000000090565b3360008181526001602090815260408083206001600160a01b038716845290915281205490919061043790829086906104fb9087906110bd565b6108de565b6005546000906001600160a01b0316331461056e5760405162461bcd60e51b8152602060048201526024808201527f546f6b656e577261707065643a3a6f6e6c794272696467653a204e4f545f42526044820152634944474560e01b60648201526084015b60405180910390fd5b6105788383610ce5565b50600192915050565b6060600480546103a69061106d565b6005546000906001600160a01b031633146105f95760405162461bcd60e51b8152602060048201526024808201527f546f6b656e577261707065643a3a6f6e6c794272696467653a204e4f545f42526044820152634944474560e01b6064820152608401610565565b6105788383610da4565b3360008181526001602090815260408083206001600160a01b0387168452909152812054909190838110156106885760405162461bcd60e51b815260206004820152602560248201527f45524332303a2064656372656173656420616c6c6f77616e63652062656c6f77604482015264207a65726f60d81b6064820152608401610565565b61045a82868684036108de565b600033610437818585610a95565b834211156106ff5760405162461bcd60e51b8152602060048201526024808201527f546f6b656e577261707065643a3a7065726d69743a20457870697265642070656044820152631c9b5a5d60e21b6064820152608401610565565b6001600160a01b038716600090815260066020526040812080547f6e71edae12b1b97f4d1f60370fef10105fa2faae0126114a169c64845d6126c9918a918a918a91908661074c836110d5565b909155506040805160208101969096526001600160a01b0394851690860152929091166060840152608083015260a082015260c0810186905260e00160405160208183030381529060405280519060200120905060006107aa610465565b60405161190160f01b602082015260228101919091526042810183905260620160408051601f198184030181528282528051602091820120600080855291840180845281905260ff89169284019290925260608301879052608083018690529092509060019060a0016020604051602081039080840390855afa158015610835573d6000803e3d6000fd5b5050604051601f1901519150506001600160a01b0381161580159061086b5750896001600160a01b0316816001600160a01b0316145b6108c75760405162461bcd60e51b815260206004820152602760248201527f546f6b656e577261707065643a3a7065726d69743a20496e76616c6964207369604482015266676e617475726560c81b6064820152608401610565565b6108d28a8a8a6108de565b50505050505050505050565b6001600160a01b0383166109405760405162461bcd60e51b8152602060048201526024808201527f45524332303a20617070726f76652066726f6d20746865207a65726f206164646044820152637265737360e01b6064820152608401610565565b6001600160a01b0382166109a15760405162461bcd60e51b815260206004820152602260248201527f45524332303a20617070726f766520746f20746865207a65726f206164647265604482015261737360f01b6064820152608401610565565b6001600160a01b0383811660008181526001602090815260408083209487168084529482529182902085905590518481527f8c5be1e5ebec7d5bd14f71427d1e84f3dd0314c0f7b2291e5b200ac8c7c3b92591015b60405180910390a3505050565b6001600160a01b038381166000908152600160209081526040808320938616835292905220546000198114610a8f5781811015610a825760405162461bcd60e51b815260206004820152601d60248201527f45524332303a20696e73756666696369656e7420616c6c6f77616e63650000006044820152606401610565565b610a8f84848484036108de565b50505050565b6001600160a01b038316610af95760405162461bcd60e51b815260206004820152602560248201527f45524332303a207472616e736665722066726f6d20746865207a65726f206164604482015264647265737360d81b6064820152608401610565565b6001600160a01b038216610b5b5760405162461bcd60e51b815260206004820152602360248201527f45524332303a207472616e7366657220746f20746865207a65726f206164647260448201526265737360e81b6064820152608401610565565b6001600160a01b03831660009081526020819052604090205481811015610bd35760405162461bcd60e51b815260206004820152602660248201527f45524332303a207472616e7366657220616d6f756e7420657863656564732062604482015265616c616e636560d01b6064820152608401610565565b6001600160a01b03848116600081815260208181526040808320878703905593871680835291849020805487019055925185815290927fddf252ad1be2c89b69c2b068fc378daa952ba7f163c4a11628f55a4df523b3ef910160405180910390a3610a8f565b60007f8b73c3c69bb8fe3d512ecc4cf759cc79239f7b179b0ffacaa9a75d522b39400f610c64610397565b805160209182012060408051808201825260018152603160f81b90840152805192830193909352918101919091527fc89efdaa54c0f20c7adf612882df0950f5a951637e0307cdcb4c672f298b8bc66060820152608081018390523060a082015260c001604051602081830303815290604052805190602001209050919050565b6001600160a01b038216610d3b5760405162461bcd60e51b815260206004820152601f60248201527f45524332303a206d696e7420746f20746865207a65726f2061646472657373006044820152606401610565565b8060026000828254610d4d91906110bd565b90915550506001600160a01b038216600081815260208181526040808320805486019055518481527fddf252ad1be2c89b69c2b068fc378daa952ba7f163c4a11628f55a4df523b3ef910160405180910390a35050565b6001600160a01b038216610e045760405162461bcd60e51b815260206004820152602160248201527f45524332303a206275726e2066726f6d20746865207a65726f206164647265736044820152607360f81b6064820152608401610565565b6001600160a01b03821660009081526020819052604090205481811015610e785760405162461bcd60e51b815260206004820152602260248201527f45524332303a206275726e20616d6f756e7420657863656564732062616c616e604482015261636560f01b6064820152608401610565565b6001600160a01b0383166000818152602081815260408083208686039055600280548790039055518581529192917fddf252ad1be2c89b69c2b068fc378daa952ba7f163c4a11628f55a4df523b3ef91016109f6565b600060208083528351808285015260005b81811015610efb57858101830151858201604001528201610edf565b81811115610f0d576000604083870101525b50601f01601f1916929092016040019392505050565b80356001600160a01b0381168114610f3a57600080fd5b919050565b60008060408385031215610f5257600080fd5b610f5b83610f23565b946020939093013593505050565b600080600060608486031215610f7e57600080fd5b610f8784610f23565b9250610f9560208501610f23565b9150604084013590509250925092565b600060208284031215610fb757600080fd5b610fc082610f23565b9392505050565b600080600080600080600060e0888a031215610fe257600080fd5b610feb88610f23565b9650610ff960208901610f23565b95506040880135945060608801359350608088013560ff8116811461101d57600080fd5b9699959850939692959460a0840135945060c09093013592915050565b6000806040838503121561104d57600080fd5b61105683610f23565b915061106460208401610f23565b90509250929050565b600181811c9082168061108157607f821691505b6020821081036110a157634e487b7160e01b600052602260045260246000fd5b50919050565b634e487b7160e01b600052601160045260246000fd5b600082198211156110d0576110d06110a7565b500190565b6000600182016110e7576110e76110a7565b506001019056fea264697066735822122046d48ac0e17b518488ca994ebe4e8d558f864de0482e7bd415a4d36cd294650964736f6c634300080f0033",
  "linkReferences": {},
  "deployedLinkReferences": {}
}