{
  "_format": "hh-sol-artifact-1",
  "contractName": "ERC20PermitMock",
  "sourceName": "contracts/mocks/ERC20PermitMock.sol",
  "abi": [
    {
      "inputs": [
        {
          "internalType": "string",
          "name": "name",
          "type": "string"
        },
        {
          "internalType": "string",
          "name": "symbol",
          "type": "string"
        },
        {
          "internalType": "address",
          "name": "initialAccount",
          "type": "address"
        },
        {
          "internalType": "uint256",
          "name": "initialBalance",
          "type": "uint256"
        }
      ],
      "stateMutability": "payable",
      "type": "constructor"
    },
    {
      "anonymous": false,
      "inputs": [
        {
          "indexed": true,
          "internalType": "address",
          "name": "owner",
          "type": "address"
        },
        {
          "indexed": true,
          "internalType": "address",
          "name": "spender",
          "type": "address"
        },
        {
          "indexed": false,
          "internalType": "uint256",
          "name": "value",
          "type": "uint256"
        }
      ],
      "name": "Approval",
      "type": "event"
    },
    {
      "anonymous": false,
      "inputs": [
        {
          "indexed": true,
          "internalType": "address",
          "name": "from",
          "type": "address"
        },
        {
          "indexed": true,
          "internalType": "address",
          "name": "to",
          "type": "address"
        },
        {
          "indexed": false,
          "internalType": "uint256",
          "name": "value",
          "type": "uint256"
        }
      ],
      "name": "Transfer",
      "type": "event"
    },
    {
      "inputs": [],
      "name": "DOMAIN_SEPARATOR",
      "outputs": [
        {
          "internalType": "bytes32",
          "name": "",
          "type": "bytes32"
        }
      ],
      "stateMutability": "view",
      "type": "function"
    },
    {
      "inputs": [],
      "name": "EIP712DOMAIN_HASH",
      "outputs": [
        {
          "internalType": "bytes32",
          "name": "",
          "type": "bytes32"
        }
      ],
      "stateMutability": "view",
      "type": "function"
    },
    {
      "inputs": [],
      "name": "NAME_HASH",
      "outputs": [
        {
          "internalType": "bytes32",
          "name": "",
          "type": "bytes32"
        }
      ],
      "stateMutability": "view",
      "type": "function"
    },
    {
      "inputs": [],
      "name": "PERMIT_TYPEHASH",
      "outputs": [
        {
          "internalType": "bytes32",
          "name": "",
          "type": "bytes32"
        }
      ],
      "stateMutability": "view",
      "type": "function"
    },
    {
      "inputs": [],
      "name": "VERSION_HASH",
      "outputs": [
        {
          "internalType": "bytes32",
          "name": "",
          "type": "bytes32"
        }
      ],
      "stateMutability": "view",
      "type": "function"
    },
    {
      "inputs": [
        {
          "internalType": "address",
          "name": "owner",
          "type": "address"
        },
        {
          "internalType": "address",
          "name": "spender",
          "type": "address"
        }
      ],
      "name": "allowance",
      "outputs": [
        {
          "internalType": "uint256",
          "name": "",
          "type": "uint256"
        }
      ],
      "stateMutability": "view",
      "type": "function"
    },
    {
      "inputs": [
        {
          "internalType": "address",
          "name": "spender",
          "type": "address"
        },
        {
          "internalType": "uint256",
          "name": "amount",
          "type": "uint256"
        }
      ],
      "name": "approve",
      "outputs": [
        {
          "internalType": "bool",
          "name": "",
          "type": "bool"
        }
      ],
      "stateMutability": "nonpayable",
      "type": "function"
    },
    {
      "inputs": [
        {
          "internalType": "address",
          "name": "owner",
          "type": "address"
        },
        {
          "internalType": "address",
          "name": "spender",
          "type": "address"
        },
        {
          "internalType": "uint256",
          "name": "value",
          "type": "uint256"
        }
      ],
      "name": "approveInternal",
      "outputs": [],
      "stateMutability": "nonpayable",
      "type": "function"
    },
    {
      "inputs": [
        {
          "internalType": "address",
          "name": "account",
          "type": "address"
        }
      ],
      "name": "balanceOf",
      "outputs": [
        {
          "internalType": "uint256",
          "name": "",
          "type": "uint256"
        }
      ],
      "stateMutability": "view",
      "type": "function"
    },
    {
      "inputs": [
        {
          "internalType": "uint256",
          "name": "amount",
          "type": "uint256"
        }
      ],
      "name": "burn",
      "outputs": [],
      "stateMutability": "nonpayable",
      "type": "function"
    },
    {
      "inputs": [],
      "name": "decimals",
      "outputs": [
        {
          "internalType": "uint8",
          "name": "",
          "type": "uint8"
        }
      ],
      "stateMutability": "view",
      "type": "function"
    },
    {
      "inputs": [
        {
          "internalType": "address",
          "name": "spender",
          "type": "address"
        },
        {
          "internalType": "uint256",
          "name": "subtractedValue",
          "type": "uint256"
        }
      ],
      "name": "decreaseAllowance",
      "outputs": [
        {
          "internalType": "bool",
          "name": "",
          "type": "bool"
        }
      ],
      "stateMutability": "nonpayable",
      "type": "function"
    },
    {
      "inputs": [],
      "name": "getChainId",
      "outputs": [
        {
          "internalType": "uint256",
          "name": "chainId",
          "type": "uint256"
        }
      ],
      "stateMutability": "view",
      "type": "function"
    },
    {
      "inputs": [
        {
          "internalType": "address",
          "name": "spender",
          "type": "address"
        },
        {
          "internalType": "uint256",
          "name": "addedValue",
          "type": "uint256"
        }
      ],
      "name": "increaseAllowance",
      "outputs": [
        {
          "internalType": "bool",
          "name": "",
          "type": "bool"
        }
      ],
      "stateMutability": "nonpayable",
      "type": "function"
    },
    {
      "inputs": [
        {
          "internalType": "address",
          "name": "account",
          "type": "address"
        },
        {
          "internalType": "uint256",
          "name": "amount",
          "type": "uint256"
        }
      ],
      "name": "mint",
      "outputs": [],
      "stateMutability": "nonpayable",
      "type": "function"
    },
    {
      "inputs": [],
      "name": "name",
      "outputs": [
        {
          "internalType": "string",
          "name": "",
          "type": "string"
        }
      ],
      "stateMutability": "view",
      "type": "function"
    },
    {
      "inputs": [
        {
          "internalType": "address",
          "name": "",
          "type": "address"
        }
      ],
      "name": "nonces",
      "outputs": [
        {
          "internalType": "uint256",
          "name": "",
          "type": "uint256"
        }
      ],
      "stateMutability": "view",
      "type": "function"
    },
    {
      "inputs": [
        {
          "internalType": "address",
          "name": "owner",
          "type": "address"
        },
        {
          "internalType": "address",
          "name": "spender",
          "type": "address"
        },
        {
          "internalType": "uint256",
          "name": "value",
          "type": "uint256"
        },
        {
          "internalType": "uint256",
          "name": "deadline",
          "type": "uint256"
        },
        {
          "internalType": "uint8",
          "name": "v",
          "type": "uint8"
        },
        {
          "internalType": "bytes32",
          "name": "r",
          "type": "bytes32"
        },
        {
          "internalType": "bytes32",
          "name": "s",
          "type": "bytes32"
        }
      ],
      "name": "permit",
      "outputs": [],
      "stateMutability": "nonpayable",
      "type": "function"
    },
    {
      "inputs": [],
      "name": "symbol",
      "outputs": [
        {
          "internalType": "string",
          "name": "",
          "type": "string"
        }
      ],
      "stateMutability": "view",
      "type": "function"
    },
    {
      "inputs": [],
      "name": "totalSupply",
      "outputs": [
        {
          "internalType": "uint256",
          "name": "",
          "type": "uint256"
        }
      ],
      "stateMutability": "view",
      "type": "function"
    },
    {
      "inputs": [
        {
          "internalType": "address",
          "name": "to",
          "type": "address"
        },
        {
          "internalType": "uint256",
          "name": "amount",
          "type": "uint256"
        }
      ],
      "name": "transfer",
      "outputs": [
        {
          "internalType": "bool",
          "name": "",
          "type": "bool"
        }
      ],
      "stateMutability": "nonpayable",
      "type": "function"
    },
    {
      "inputs": [
        {
          "internalType": "address",
          "name": "from",
          "type": "address"
        },
        {
          "internalType": "address",
          "name": "to",
          "type": "address"
        },
        {
          "internalType": "uint256",
          "name": "amount",
          "type": "uint256"
        }
      ],
      "name": "transferFrom",
      "outputs": [
        {
          "internalType": "bool",
          "name": "",
          "type": "bool"
        }
      ],
      "stateMutability": "nonpayable",
      "type": "function"
    },
    {
      "inputs": [
        {
          "internalType": "address",
          "name": "from",
          "type": "address"
        },
        {
          "internalType": "address",
          "name": "to",
          "type": "address"
        },
        {
          "internalType": "uint256",
          "name": "value",
          "type": "uint256"
        }
      ],
      "name": "transferInternal",
      "outputs": [],
      "stateMutability": "nonpayable",
      "type": "function"
    }
  ],
  "bytecode": "0x6080604052604051620013d9380380620013d9833981016040819052620000269162000201565b8383600362000036838262000322565b50600462000045828262000322565b5050506200005a82826200007160201b60201c565b505081516020909201919091206006555062000416565b6001600160a01b038216620000cc5760405162461bcd60e51b815260206004820152601f60248201527f45524332303a206d696e7420746f20746865207a65726f206164647265737300604482015260640160405180910390fd5b8060026000828254620000e09190620003ee565b90915550506001600160a01b038216600081815260208181526040808320805486019055518481527fddf252ad1be2c89b69c2b068fc378daa952ba7f163c4a11628f55a4df523b3ef910160405180910390a35050565b505050565b634e487b7160e01b600052604160045260246000fd5b600082601f8301126200016457600080fd5b81516001600160401b03808211156200018157620001816200013c565b604051601f8301601f19908116603f01168101908282118183101715620001ac57620001ac6200013c565b81604052838152602092508683858801011115620001c957600080fd5b600091505b83821015620001ed5785820183015181830184015290820190620001ce565b600093810190920192909252949350505050565b600080600080608085870312156200021857600080fd5b84516001600160401b03808211156200023057600080fd5b6200023e8883890162000152565b955060208701519150808211156200025557600080fd5b50620002648782880162000152565b604087015190945090506001600160a01b03811681146200028457600080fd5b6060959095015193969295505050565b600181811c90821680620002a957607f821691505b602082108103620002ca57634e487b7160e01b600052602260045260246000fd5b50919050565b601f8211156200013757600081815260208120601f850160051c81016020861015620002f95750805b601f850160051c820191505b818110156200031a5782815560010162000305565b505050505050565b81516001600160401b038111156200033e576200033e6200013c565b62000356816200034f845462000294565b84620002d0565b602080601f8311600181146200038e5760008415620003755750858301515b600019600386901b1c1916600185901b1785556200031a565b600085815260208120601f198616915b82811015620003bf578886015182559484019460019091019084016200039e565b5085821015620003de5787850151600019600388901b60f8161c191681555b5050505050600190811b01905550565b808201808211156200041057634e487b7160e01b600052601160045260246000fd5b92915050565b610fb380620004266000396000f3fe608060405234801561001057600080fd5b506004361061011d5760003560e01c806304622c2e1461012257806306fdde031461013e578063095ea7b31461015357806318160ddd14610176578063222f5be01461017e57806323b872dd1461019357806330adf81f146101a6578063313ce567146101bb5780633408e470146101ca5780633644e515146101d057806339509351146101d857806340c10f19146101eb57806342966c68146101fe57806356189cb41461021157806370a08231146102245780637ecebe001461024d57806395d89b411461026d5780639e4e731814610275578063a457c2d71461028a578063a9059cbb1461029d578063c473af33146102b0578063d505accf146102c5578063dd62ed3e146102d8575b600080fd5b61012b60065481565b6040519081526020015b60405180910390f35b6101466102eb565b6040516101359190610ca4565b610166610161366004610d0e565b61037d565b6040519015158152602001610135565b60025461012b565b61019161018c366004610d38565b610397565b005b6101666101a1366004610d38565b6103a7565b61012b600080516020610f3e83398151915281565b60405160128152602001610135565b4661012b565b61012b6103cb565b6101666101e6366004610d0e565b610420565b6101916101f9366004610d0e565b610442565b61019161020c366004610d74565b610450565b61019161021f366004610d38565b61045d565b61012b610232366004610d8d565b6001600160a01b031660009081526020819052604090205490565b61012b61025b366004610d8d565b60056020526000908152604090205481565b610146610468565b61012b600080516020610efe83398151915281565b610166610298366004610d0e565b610477565b6101666102ab366004610d0e565b6104f7565b61012b600080516020610f5e83398151915281565b6101916102d3366004610daf565b610505565b61012b6102e6366004610e22565b610602565b6060600380546102fa90610e55565b80601f016020809104026020016040519081016040528092919081815260200182805461032690610e55565b80156103735780601f1061034857610100808354040283529160200191610373565b820191906000526020600020905b81548152906001019060200180831161035657829003601f168201915b5050505050905090565b60003361038b81858561062d565b60019150505b92915050565b6103a2838383610751565b505050565b6000336103b58582856108e5565b6103c0858585610751565b506001949350505050565b60065460405160009161040591600080516020610f5e8339815191529190600080516020610efe8339815191529046903090602001610e8f565b60405160208183030381529060405280519060200120905090565b60003361038b8185856104338383610602565b61043d9190610ed1565b61062d565b61044c8282610959565b5050565b61045a3382610a06565b50565b6103a283838361062d565b6060600480546102fa90610e55565b600033816104858286610602565b9050838110156104ea5760405162461bcd60e51b815260206004820152602560248201527f45524332303a2064656372656173656420616c6c6f77616e63652062656c6f77604482015264207a65726f60d81b60648201526084015b60405180910390fd5b6103c0828686840361062d565b60003361038b818585610751565b428410156105515760405162461bcd60e51b81526020600482015260196024820152781211568e8e9c195c9b5a5d0e881055551217d1561412549151603a1b60448201526064016104e1565b6001600160a01b03871660009081526005602052604081208054600080516020610f3e833981519152918a918a918a91908661058c83610ee4565b909155506040805160208101969096526001600160a01b0394851690860152929091166060840152608083015260a082015260c0810186905260e0016040516020818303038152906040528051906020012090506105ed8882868686610b26565b6105f888888861062d565b5050505050505050565b6001600160a01b03918216600090815260016020908152604080832093909416825291909152205490565b6001600160a01b03831661068f5760405162461bcd60e51b8152602060048201526024808201527f45524332303a20617070726f76652066726f6d20746865207a65726f206164646044820152637265737360e01b60648201526084016104e1565b6001600160a01b0382166106f05760405162461bcd60e51b815260206004820152602260248201527f45524332303a20617070726f766520746f20746865207a65726f206164647265604482015261737360f01b60648201526084016104e1565b6001600160a01b0383811660008181526001602090815260408083209487168084529482529182902085905590518481527f8c5be1e5ebec7d5bd14f71427d1e84f3dd0314c0f7b2291e5b200ac8c7c3b925910160405180910390a3505050565b6001600160a01b0383166107b55760405162461bcd60e51b815260206004820152602560248201527f45524332303a207472616e736665722066726f6d20746865207a65726f206164604482015264647265737360d81b60648201526084016104e1565b6001600160a01b0382166108175760405162461bcd60e51b815260206004820152602360248201527f45524332303a207472616e7366657220746f20746865207a65726f206164647260448201526265737360e81b60648201526084016104e1565b6001600160a01b0383166000908152602081905260409020548181101561088f5760405162461bcd60e51b815260206004820152602660248201527f45524332303a207472616e7366657220616d6f756e7420657863656564732062604482015265616c616e636560d01b60648201526084016104e1565b6001600160a01b0384811660008181526020818152604080832087870390559387168083529184902080548701905592518581529092600080516020610f1e833981519152910160405180910390a35b50505050565b60006108f18484610602565b905060001981146108df578181101561094c5760405162461bcd60e51b815260206004820152601d60248201527f45524332303a20696e73756666696369656e7420616c6c6f77616e636500000060448201526064016104e1565b6108df848484840361062d565b6001600160a01b0382166109af5760405162461bcd60e51b815260206004820152601f60248201527f45524332303a206d696e7420746f20746865207a65726f20616464726573730060448201526064016104e1565b80600260008282546109c19190610ed1565b90915550506001600160a01b03821660008181526020818152604080832080548601905551848152600080516020610f1e833981519152910160405180910390a35050565b6001600160a01b038216610a665760405162461bcd60e51b815260206004820152602160248201527f45524332303a206275726e2066726f6d20746865207a65726f206164647265736044820152607360f81b60648201526084016104e1565b6001600160a01b03821660009081526020819052604090205481811015610ada5760405162461bcd60e51b815260206004820152602260248201527f45524332303a206275726e20616d6f756e7420657863656564732062616c616e604482015261636560f01b60648201526084016104e1565b6001600160a01b038316600081815260208181526040808320868603905560028054879003905551858152919291600080516020610f1e833981519152910160405180910390a3505050565b600654604051600091610b6091600080516020610f5e8339815191529190600080516020610efe8339815191529046903090602001610e8f565b60405160208183030381529060405280519060200120905060008186604051602001610ba392919061190160f01b81526002810192909252602282015260420190565b60408051601f198184030181528282528051602091820120600080855291840180845281905260ff89169284019290925260608301879052608083018690529092509060019060a0016020604051602081039080840390855afa158015610c0e573d6000803e3d6000fd5b5050604051601f1901519150506001600160a01b03811615801590610c445750876001600160a01b0316816001600160a01b0316145b6105f85760405162461bcd60e51b815260206004820152602b60248201527f48455a3a3a5f76616c69646174655369676e6564446174613a20494e56414c4960448201526a445f5349474e415455524560a81b60648201526084016104e1565b600060208083528351808285015260005b81811015610cd157858101830151858201604001528201610cb5565b506000604082860101526040601f19601f8301168501019250505092915050565b80356001600160a01b0381168114610d0957600080fd5b919050565b60008060408385031215610d2157600080fd5b610d2a83610cf2565b946020939093013593505050565b600080600060608486031215610d4d57600080fd5b610d5684610cf2565b9250610d6460208501610cf2565b9150604084013590509250925092565b600060208284031215610d8657600080fd5b5035919050565b600060208284031215610d9f57600080fd5b610da882610cf2565b9392505050565b600080600080600080600060e0888a031215610dca57600080fd5b610dd388610cf2565b9650610de160208901610cf2565b95506040880135945060608801359350608088013560ff81168114610e0557600080fd5b9699959850939692959460a0840135945060c09093013592915050565b60008060408385031215610e3557600080fd5b610e3e83610cf2565b9150610e4c60208401610cf2565b90509250929050565b600181811c90821680610e6957607f821691505b602082108103610e8957634e487b7160e01b600052602260045260246000fd5b50919050565b9485526020850193909352604084019190915260608301526001600160a01b0316608082015260a00190565b634e487b7160e01b600052601160045260246000fd5b8082018082111561039157610391610ebb565b600060018201610ef657610ef6610ebb565b506001019056fec89efdaa54c0f20c7adf612882df0950f5a951637e0307cdcb4c672f298b8bc6ddf252ad1be2c89b69c2b068fc378daa952ba7f163c4a11628f55a4df523b3ef6e71edae12b1b97f4d1f60370fef10105fa2faae0126114a169c64845d6126c98b73c3c69bb8fe3d512ecc4cf759cc79239f7b179b0ffacaa9a75d522b39400fa264697066735822122041a6dcdc4cb18d6e1d492dee93c2f0a0cc6012cce6793b641662a6378ea999a464736f6c63430008140033",
  "linkReferences": {},
  "deployedLinkReferences": {}
}