{
  "_format": "hh-sol-artifact-1",
  "contractName": "FflonkVerifier",
  "sourceName": "contracts/verifiers/FflonkVerifier.sol",
  "abi": [
    {
      "inputs": [
        {
          "internalType": "bytes32[24]",
          "name": "proof",
          "type": "bytes32[24]"
        },
        {
          "internalType": "uint256[1]",
          "name": "pubSignals",
          "type": "uint256[1]"
        }
      ],
      "name": "verifyProof",
      "outputs": [
        {
          "internalType": "bool",
          "name": "",
          "type": "bool"
        }
      ],
      "stateMutability": "view",
      "type": "function"
    }
  ],
  "bytecode": "0x608060405234801561000f575f80fd5b5061368f8061001d5f395ff3fe608060405234801561000f575f80fd5b5060043610610029575f3560e01c80639121da8a1461002d575b5f80fd5b61004061003b366004613518565b610054565b604051901515815260200160405180910390f35b5f6134a8565b6040516104c08201518082526020820191505f805160206135da8339815191526104e0840151820990508082526020820191505f805160206135da833981519152610500840151820990508082526020820191505f805160206135da833981519152610520840151820990508082526020820191505f805160206135da833981519152602061052001840151820990508082526020820191505f805160206135da833981519152604061052001840151820990508082526020820191505f805160206135da833981519152606061052001840151820990508082526020820191505f805160206135da833981519152608061052001840151820990508082526020820191505f805160206135da83398151915260a061052001840151820990508082526020820191505f805160206135da83398151915260c061052001840151820990508082526020820191505f805160206135da83398151915260e061052001840151820990508082526020820191505f805160206135da833981519152610620840151820990508082526020820191505f805160206135da833981519152602061062001840151820990508082526020820191505f805160206135da833981519152604061062001840151820990508082526020820191505f805160206135da833981519152606061062001840151820990508082526020820191505f805160206135da8339815191526106a0840151820990508082526020820191505f805160206135da83398151915260206106a001840151820990508082526020820191505f805160206135da83398151915260406106a001840151820990508082526020820191505f805160206135da83398151915260606106a001840151820990508082526020820191505f805160206135da83398151915260806106a001840151820990508082526020820191505f805160206135da83398151915260a06106a001840151820990508082526020820191505f805160206135da833981519152610760840151820990508082526102e4355f805160206135da83398151915281830960011461036c575f805260205ff35b8091506020830392505f805160206135da8339815191528351830990505f805160206135da83398151915261076085015183099150806107608501526020830392505f805160206135da8339815191528351830990505f805160206135da83398151915260a06106a001850151830991508060a06106a0018501526020830392505f805160206135da8339815191528351830990505f805160206135da83398151915260806106a001850151830991508060806106a0018501526020830392505f805160206135da8339815191528351830990505f805160206135da83398151915260606106a001850151830991508060606106a0018501526020830392505f805160206135da8339815191528351830990505f805160206135da83398151915260406106a001850151830991508060406106a0018501526020830392505f805160206135da8339815191528351830990505f805160206135da83398151915260206106a001850151830991508060206106a0018501526020830392505f805160206135da8339815191528351830990505f805160206135da8339815191526106a085015183099150806106a08501526020830392505f805160206135da8339815191528351830990505f805160206135da83398151915260606106200185015183099150806060610620018501526020830392505f805160206135da8339815191528351830990505f805160206135da83398151915260406106200185015183099150806040610620018501526020830392505f805160206135da8339815191528351830990505f805160206135da83398151915260206106200185015183099150806020610620018501526020830392505f805160206135da8339815191528351830990505f805160206135da83398151915261062085015183099150806106208501526020830392505f805160206135da8339815191528351830990505f805160206135da83398151915260e061052001850151830991508060e0610520018501526020830392505f805160206135da8339815191528351830990505f805160206135da83398151915260c061052001850151830991508060c0610520018501526020830392505f805160206135da8339815191528351830990505f805160206135da83398151915260a061052001850151830991508060a0610520018501526020830392505f805160206135da8339815191528351830990505f805160206135da83398151915260806105200185015183099150806080610520018501526020830392505f805160206135da8339815191528351830990505f805160206135da83398151915260606105200185015183099150806060610520018501526020830392505f805160206135da8339815191528351830990505f805160206135da83398151915260406105200185015183099150806040610520018501526020830392505f805160206135da8339815191528351830990505f805160206135da83398151915260206105200185015183099150806020610520018501526020830392505f805160206135da8339815191528351830990505f805160206135da83398151915261052085015183099150806105208501526020830392505f805160206135da8339815191528351830990505f805160206135da83398151915261050085015183099150806105008501526020830392505f805160206135da8339815191528351830990505f805160206135da8339815191526104e085015183099150806104e085015250806104c0840152505050565b5f805160206135da833981519152811061089f575f805260205ff35b50565b803560208201355f8051602061355a83398151915260035f8051602061355a8339815191528085860985090891505f8051602061355a83398151915281820990508082146108f2575f805260205ff35b505050565b61090160046108a2565b61090b60446108a2565b61091560846108a2565b61091f60c46108a2565b61092b61010435610883565b61093761012435610883565b61094361014435610883565b61094f61016435610883565b61095b61018435610883565b6109676101a435610883565b6109736101c435610883565b61097f6101e435610883565b61098b61020435610883565b61099761022435610883565b6109a361024435610883565b6109af61026435610883565b6109bb61028435610883565b6109c76102a435610883565b6109d36102c435610883565b6109df6102e435610883565b565b5f8051602061363a83398151915261078082019081525f8051602061361a8339815191526107a0830190815283356107c084019081526004356107e085015260243561080085015260a083205f805160206135da833981519152908190066020808701918252902081900660408601819052845260443590925260643590526060909120819006608083018190529081800960a0830181905260808301515f805160206135da833981519152910960e08301525f805160206135da8339815191527f2b337de1c8c14f22ec9b9e2f96afef3652627366f8170a0a948dad4ac1bd5e8060e0840151096101008301525f805160206135da8339815191525f8051602061359a83398151915260e0840151096101208301525f805160206135da8339815191527f1d59376149b959ccbd157ac850893a6f07c2d99b3852513ab8d01be8e846a56660e0840151096101408301525f805160206135da8339815191525f805160206135fa83398151915260e0840151096101608301525f805160206135da8339815191527f0530d09118705106cbb4a786ead16926d5d174e181a26686af5448492e42a18160e0840151096101808301525f805160206135da83398151915277b3c4d79d41a91758cb49c3517c4604a520cff123608fc9cb60e0840151096101a08301525f805160206135da8339815191527f130b17119778465cfb3acaee30f81dee20710ead41671f568b11d9ab07b95a9b60e0840151096101c083015260e08201515f805160206135da8339815191529080096101e08301525f805160206135da8339815191525f8051602061359a8339815191526101e0840151096102008301525f805160206135da8339815191525f805160206135fa8339815191526101e0840151096102208301525f805160206135da83398151915277b3c4d79d41a91758cb49c3517c4604a520cff123608fc9cb6101e0840151096102408301525f805160206135da83398151915260a08301516101e0840151096102608301525f805160206135da8339815191525f8051602061357a833981519152610260840151096102808301525f805160206135da83398151915277b3c4d79d41a917585bfc41088d8daaa78b17ea66b99c90dd610260840151096102a08301525f805160206135da8339815191527f283ce45a2e5b8e4e78f9fbaf5f6a348bfcfaf76dd28e5ca7121b74ef68fdec2e610260840151096102c08301525f805160206135da8339815191525f8051602061357a8339815191526102c0840151096102e08301525f805160206135da83398151915277b3c4d79d41a917585bfc41088d8daaa78b17ea66b99c90dd6102c0840151096103008301526102608201515f805160206135da8339815191529081818009098060c08401525f805160206135da83398151915281820990505f805160206135da83398151915281820990505f805160206135da83398151915281820990505f805160206135da83398151915281820990505f805160206135da83398151915281820990505f805160206135da83398151915281820990505f805160206135da83398151915281820990505f805160206135da83398151915281820990505f805160206135da83398151915281820990505f805160206135da83398151915281820990505f805160206135da83398151915281820990505f805160206135da83398151915281820990505f805160206135da83398151915281820990505f805160206135da83398151915281820990505f805160206135da83398151915281820990505f805160206135da83398151915281820990505f805160206135da83398151915281820990505f805160206135da83398151915281820990505f805160206135da83398151915281820990505f805160206135da83398151915281820990505f805160206135da83398151915281820990505f805160206135da83398151915281820990505f805160206135da83398151915281820990505f805160206135da8339815191528182095f805160206135da8339815191525f805160206135fa833981519152909101066104a084018190526104c0840152506107808201526101e06101046107a083013761020061078082019081205f805160206135da8339815191529081900680845282526084356107a084015260a4356107c08401526060918290200691015250565b60e0810151606082015160015f805160206135da83398151915283820990505f805160206135da83398151915283820990505f805160206135da83398151915283820990505f805160206135da83398151915283820990505f805160206135da83398151915283820990505f805160206135da83398151915283820990505f805160206135da8339815191528160080960e0850151935090505f805160206135da83398151915283810381900683085f805160206135da8339815191528082860983096105208601526101c08501516101008601519094505f805160206135da833981519152908103819006840890505f805160206135da8339815191528082860983096105408601526101a08501516101208601519094505f805160206135da833981519152908103819006840890505f805160206135da8339815191528082860983096105608601526101808501516101408601519094505f805160206135da833981519152908103819006840890505f805160206135da83398151915280828609830961058086015261016085015193505f805160206135da833981519152848103819006840890505f805160206135da8339815191528082860983096105a08601526101408501516101808601519094505f805160206135da833981519152908103819006840890505f805160206135da8339815191528082860983096105c08601526101208501516101a08601519094505f805160206135da833981519152908103819006840890505f805160206135da8339815191528082860983096105e08601526101008501516101c08601519094505f805160206135da833981519152908103819006840890505f805160206135da83398151915280828609830960e0610520018601525050505050565b6101e0810151606082015160015f805160206135da83398151915283820990505f805160206135da83398151915283820990505f805160206135da833981519152816004096101e0850151935090505f805160206135da83398151915283810381900683085f805160206135da8339815191528082860983096106208601526102408501516102008601519094505f805160206135da833981519152908103819006840890505f805160206135da83398151915280828609830961064086015261022085015193505f805160206135da833981519152848103819006840890505f805160206135da8339815191528082860983096106608601526102008501516102408601519094505f805160206135da833981519152908103819006840890505f805160206135da8339815191528082860983096060610620018601525050505050565b60608101515f805160206135da833981519152805f805160206135da833981519152805f805160206135ba83398151915260c0870151095f805160206135da833981519152030660c0850151085f805160206135da833981519152610260850151600309096102608301515f805160206135da83398151915281810381900684085f805160206135da8339815191528082840984096106a08601526102a08501516102808601519092505f805160206135da833981519152908103819006850890505f805160206135da8339815191528082840984096106c08601526102808501516102a08601519092505f805160206135da833981519152908103819006850890505f805160206135da83398151915280828409840960406106a0018601525f805160206135da833981519152805f805160206135da83398151915260c08801515f805160206135da83398151915203065f805160206135da8339815191525f805160206135ba83398151915260c08a015109085f805160206135da8339815191526102c0880151600309096102c086015190935091505f805160206135da833981519152828103819006850890505f805160206135da8339815191528082840984096107008601526103008501516102e08601519092505f805160206135da833981519152908103819006850890505f805160206135da8339815191528082840984096107208601526102e08501516103008601519092505f805160206135da833981519152908103819006850890505f805160206135da83398151915280828409840960a06106a0018601525050505050565b60608101515f805160206135da833981519152806101e08401515f805160206135da833981519152030682085f805160206135da833981519152805f805160206135da8339815191526102008601515f805160206135da83398151915203068408820990505f805160206135da833981519152805f805160206135da8339815191526102208601515f805160206135da83398151915203068408820990505f805160206135da833981519152805f805160206135da8339815191526102408601515f805160206135da8339815191520306840882099050806104e08401525f805160206135da833981519152806102608501515f805160206135da8339815191520306830890505f805160206135da833981519152805f805160206135da8339815191526102808601515f805160206135da83398151915203068408820990505f805160206135da833981519152805f805160206135da8339815191526102a08601515f805160206135da83398151915203068408820990505f805160206135da833981519152805f805160206135da8339815191526102c08601515f805160206135da83398151915203068408820990505f805160206135da833981519152805f805160206135da8339815191526102e08601515f805160206135da83398151915203068408820990505f805160206135da833981519152805f805160206135da8339815191526103008601515f805160206135da83398151915203068408820990508061050084015261188583611023565b61188e836112b6565b611897836113fb565b505060c081015160015f805160206135da8339815191525f805160206135fa8339815191528301819006630100000009610760840152505061089f8161005a565b6104a08101515f805160206135da83398151915281610760840151096107608301525050565b5f5f805160206135da833981519152805f805160206135da83398151915285356107608601510983030106905080610320830152505050565b600160608201515f805160206135da83398151915281830991505f805160206135da83398151915281830991505f805160206135da83398151915281830991505f805160206135da83398151915281830991505f805160206135da83398151915281830991505f805160206135da83398151915281830991505f805160206135da83398151915281830991505f805160206135da8339815191528183099150505f805160206135da8339815191528060c08401515f805160206135da8339815191520306820860e08301519091505f9081805f805160206135da83398151915280846101243509610104350891505f805160206135da83398151915283840990505f805160206135da83398151915280826101643509830891505f805160206135da83398151915283820990505f805160206135da83398151915280826101443509830891505f805160206135da83398151915283820990505f805160206135da83398151915280826101843509830891505f805160206135da83398151915283820990505f805160206135da83398151915280826101a43509830891505f805160206135da83398151915283820990505f805160206135da83398151915280826101c43509830891505f805160206135da83398151915283820990505f805160206135da83398151915280826101e43509830891505f805160206135da833981519152805f805160206135da8339815191525f61052001890151880984098508935061010086015192505f805160206135da83398151915280846101243509610104350891505f805160206135da83398151915283840990505f805160206135da83398151915280826101643509830891505f805160206135da83398151915283820990505f805160206135da83398151915280826101443509830891505f805160206135da83398151915283820990505f805160206135da83398151915280826101843509830891505f805160206135da83398151915283820990505f805160206135da83398151915280826101a43509830891505f805160206135da83398151915283820990505f805160206135da83398151915280826101c43509830891505f805160206135da83398151915283820990505f805160206135da83398151915280826101e43509830891505f805160206135da833981519152805f805160206135da833981519152602061052001890151880984098508935061012086015192505f805160206135da83398151915280846101243509610104350891505f805160206135da83398151915283840990505f805160206135da83398151915280826101643509830891505f805160206135da83398151915283820990505f805160206135da83398151915280826101443509830891505f805160206135da83398151915283820990505f805160206135da83398151915280826101843509830891505f805160206135da83398151915283820990505f805160206135da83398151915280826101a43509830891505f805160206135da83398151915283820990505f805160206135da83398151915280826101c43509830891505f805160206135da83398151915283820990505f805160206135da83398151915280826101e43509830891505f805160206135da833981519152805f805160206135da833981519152604061052001890151880984098508935061014086015192505f805160206135da83398151915280846101243509610104350891505f805160206135da83398151915283840990505f805160206135da83398151915280826101643509830891505f805160206135da83398151915283820990505f805160206135da83398151915280826101443509830891505f805160206135da83398151915283820990505f805160206135da83398151915280826101843509830891505f805160206135da83398151915283820990505f805160206135da83398151915280826101a43509830891505f805160206135da83398151915283820990505f805160206135da83398151915280826101c43509830891505f805160206135da83398151915283820990505f805160206135da83398151915280826101e43509830891505f805160206135da833981519152805f805160206135da833981519152606061052001890151880984098508935061016086015192505f805160206135da83398151915280846101243509610104350891505f805160206135da83398151915283840990505f805160206135da83398151915280826101643509830891505f805160206135da83398151915283820990505f805160206135da83398151915280826101443509830891505f805160206135da83398151915283820990505f805160206135da83398151915280826101843509830891505f805160206135da83398151915283820990505f805160206135da83398151915280826101a43509830891505f805160206135da83398151915283820990505f805160206135da83398151915280826101c43509830891505f805160206135da83398151915283820990505f805160206135da83398151915280826101e43509830891505f805160206135da833981519152805f805160206135da833981519152608061052001890151880984098508935061018086015192505f805160206135da83398151915280846101243509610104350891505f805160206135da83398151915283840990505f805160206135da83398151915280826101643509830891505f805160206135da83398151915283820990505f805160206135da83398151915280826101443509830891505f805160206135da83398151915283820990505f805160206135da83398151915280826101843509830891505f805160206135da83398151915283820990505f805160206135da83398151915280826101a43509830891505f805160206135da83398151915283820990505f805160206135da83398151915280826101c43509830891505f805160206135da83398151915283820990505f805160206135da83398151915280826101e43509830891505f805160206135da833981519152805f805160206135da83398151915260a06105200189015188098409850893506101a086015192505f805160206135da83398151915280846101243509610104350891505f805160206135da83398151915283840990505f805160206135da83398151915280826101643509830891505f805160206135da83398151915283820990505f805160206135da83398151915280826101443509830891505f805160206135da83398151915283820990505f805160206135da83398151915280826101843509830891505f805160206135da83398151915283820990505f805160206135da83398151915280826101a43509830891505f805160206135da83398151915283820990505f805160206135da83398151915280826101c43509830891505f805160206135da83398151915283820990505f805160206135da83398151915280826101e43509830891505f805160206135da833981519152805f805160206135da83398151915260c06105200189015188098409850893506101c086015192505f805160206135da83398151915280846101243509610104350891505f805160206135da83398151915283840990505f805160206135da83398151915280826101643509830891505f805160206135da83398151915283820990505f805160206135da83398151915280826101443509830891505f805160206135da83398151915283820990505f805160206135da83398151915280826101843509830891505f805160206135da83398151915283820990505f805160206135da83398151915280826101a43509830891505f805160206135da83398151915283820990505f805160206135da83398151915280826101c43509830891505f805160206135da83398151915283820990505f805160206135da83398151915280826101e4350983089150505f805160206135da833981519152805f805160206135da83398151915260e0610520018801518709830984089250505080610340840152505050565b600160608201515f805160206135da83398151915281830991505f805160206135da83398151915281830991505f805160206135da83398151915281830991505f805160206135da8339815191528183099150505f805160206135da8339815191528060c08401515f805160206135da8339815191520306820890505f6102043561022435610244355f805160206135da83398151915283610104350993505f805160206135da83398151915280836101243509850893505f805160206135da833981519152805f805160206135da8339815191528486096101443509850893505f805160206135da83398151915280826101643509850893505f805160206135da83398151915261018435850893505f805160206135da833981519152610320870151850893505f805160206135da8339815191526104c087015185096101e08701519094505f908490825f805160206135da83398151915280878409840892505f805160206135da83398151915282830990505f805160206135da83398151915280868309840892505f805160206135da83398151915280895f805160206135da83398151915285850909840892505f805160206135da833981519152805f805160206135da83398151915260205f02610620018d01518c098509850893508692506102008a015191505f805160206135da83398151915280878409840892505f805160206135da83398151915282830990505f805160206135da83398151915280868309840892505f805160206135da83398151915280895f805160206135da83398151915285850909840892505f805160206135da833981519152805f805160206135da8339815191526020600102610620018d01518c098509850893508692506102208a015191505f805160206135da83398151915280878409840892505f805160206135da83398151915282830990505f805160206135da83398151915280868309840892505f805160206135da83398151915280895f805160206135da83398151915285850909840892505f805160206135da833981519152805f805160206135da8339815191526020600202610620018d01518c098509850893508692506102408a015191505f805160206135da83398151915280878409840892505f805160206135da83398151915282830990505f805160206135da83398151915280868309840892505f805160206135da83398151915280895f805160206135da833981519152858509098408925050505f805160206135da833981519152805f805160206135da8339815191526020600302610620018b01518a09830983089150508061036088015250505050505050565b606081015160015f805160206135da83398151915281830990505f805160206135da83398151915281830990505f805160206135da83398151915281830990505f805160206135da83398151915281830990505f805160206135da83398151915281830990505f805160206135da833981519152818309905060015f805160206135da83398151915281840990505f805160206135da83398151915281840990505f805160206135da83398151915281840990505f805160206135da8339815191528060c08601515f805160206135da8339815191525f805160206135ba83398151915260c08901510908820990505f805160206135da83398151915280825f805160206135da8339815191520306830860c08501519092505f805160206135da83398151915290815f805160206135ba83398151915282090990505f805160206135da8339815191528183089150505f91505f5f805160206135da83398151915260c085015160208601510960408501515f805160206135da83398151915280828408610204350892505f805160206135da833981519152805f805160206135da833981519152835f805160206135da83398151915260028709086102243508840992505f805160206135da833981519152805f805160206135da833981519152835f805160206135da83398151915260038709086102443508840992505f805160206135da83398151915261026435840992505f805160206135da83398151915280825f805160206135da8339815191526101a43560208b01510908610204350894505f805160206135da833981519152805f805160206135da833981519152835f805160206135da8339815191526101c43560208c015109086102243508860994505f805160206135da833981519152805f805160206135da833981519152835f805160206135da8339815191526101e43560208c015109086102443508860994505f805160206135da83398151915261028435860994505f805160206135da83398151915280865f805160206135da8339815191520306840892505f805160206135da8339815191526104c0870151840992506001610264350394505f805160206135da833981519152610760870151860994505f805160206135da8339815191526104c0870151860961026087015190955091505f9050805f805160206135da83398151915280878509610264350890505f805160206135da83398151915280855f805160206135da83398151915286870909820890505f805160206135da833981519152805f805160206135da83398151915260205f026106a0018a0151880983098308915061028087015192505f805160206135da83398151915280878509610264350890505f805160206135da83398151915280855f805160206135da83398151915286870909820890505f805160206135da833981519152805f805160206135da83398151915260206001026106a0018a015188098309830891506102a087015192505f805160206135da83398151915280878509610264350890505f805160206135da83398151915280855f805160206135da83398151915286870909820890505f805160206135da833981519152805f805160206135da83398151915260206002026106a0018a015188098309830891506102c087015192505f805160206135da833981519152806102a4358509610284350890505f805160206135da833981519152806102c4355f805160206135da83398151915286870909820890505f805160206135da833981519152805f805160206135da83398151915260206003026106a0018a015188098309830891506102e087015192505f805160206135da833981519152806102a4358509610284350890505f805160206135da833981519152806102c4355f805160206135da83398151915286870909820890505f805160206135da833981519152805f805160206135da83398151915260206004026106a0018a0151880983098308915061030087015192505f805160206135da833981519152806102a4358509610284350890505f805160206135da833981519152806102c4355f805160206135da83398151915286870909820890505f805160206135da833981519152805f805160206135da83398151915260206005026106a0018a015188098309830891505080610380870152505050505050565b6040518151815260208201516020820152825160408201526020830151606082015260408260808360066107d05a03fa9050806108f2575f805260205ff35b5f604051833581526020840135602082015284604082015260408160608360076107d05a03fa915081612f70575f805260205ff35b825160408201526020830151606082015260408360808360066107d05a03fa91505080612f9f575f805260205ff35b50505050565b5f60405183815284602082015285604082015260408160608360076107d05a03fa915081612fd5575f805260205ff35b825160408201526020830151606082015260408360808360066107d05a03fa91505080613004575f805260205ff35b5050505050565b60608101515f805160206135da8339815191528060e08401515f805160206135da833981519152030682085f805160206135da833981519152805f805160206135da8339815191526101008601515f805160206135da83398151915203068408820990505f805160206135da833981519152805f805160206135da8339815191526101208601515f805160206135da83398151915203068408820990505f805160206135da833981519152805f805160206135da8339815191526101408601515f805160206135da83398151915203068408820990505f805160206135da833981519152805f805160206135da8339815191526101608601515f805160206135da83398151915203068408820990505f805160206135da833981519152805f805160206135da8339815191526101808601515f805160206135da83398151915203068408820990505f805160206135da833981519152805f805160206135da8339815191526101a08601515f805160206135da83398151915203068408820990505f805160206135da833981519152805f805160206135da8339815191526101c08601515f805160206135da83398151915203068408820990505f805160206135da833981519152806104e0850151830984510991505f805160206135da83398151915280610500850151830984515f805160206135da833981519152908009095f8051602061363a8339815191526103a08501525f8051602061361a83398151915260206103a0018501526132478360046103a08701612f3b565b6132578160446103a08701612f3b565b6132ab5f805160206135da833981519152805f805160206135da83398151915261038088015185095f805160206135da83398151915261036089015188090861034087015108600260016103e08801612fa5565b506108f28160846104208601612f3b565b604051610400820180515f8051602061355a8339815191529081038190069091526104408301805182039190910690525f906133006103e084016103a08501612efc565b61331261042084016103a08501612efc565b613326606084015160c46103a08601612f3b565b6103a083015181526103c08301516020808301919091527f198e9393920d483a7260bfb731fb5d25f1aa493335a9e71297e485b7aef312c260408301527f1800deef121f1e76426a00665e5c4479674322d4f75edadd46debd5cd992f6ed60608301527f090689d0585ff075ec9e99ad690c3395bc4b313370b38ef355acdadcd122975b60808301527f12c85ea5db8c6deb4aab71808dcb408fe3d1e7690c43d37b4ce6cc0166fa7daa60a083015260c43560c08301525f8051602061355a83398151915260e43581030660e08301527f26186a2d65ee4d2f9c9a5b91f86597d35f192cd120caf7e935d8443d1938e23d6101008301527f30441fd1b5d3370482c42152a8899027716989a6996c2535bc9f7fee8aaef79e6101208301527f1970ea81dd6992adfbc571effb03503adbbb6a857f578403c6c40e22d65b3c026101408301527f054793348f12c0cf5622c340573cb277586319de359ab9389778f689786b1e48610160830152816101808160086107d05a03fa90511692915050565b60405161078081016040526134bb6108f7565b6134c583826109e1565b6134ce81611651565b6134d7816118d8565b6134e183826118fe565b6134ea81611937565b6134f3816124df565b6134fc816128b6565b6135058161300b565b61350e816132bc565b9050805f5260205ff35b5f8061032080848603121561352b575f80fd5b61030084018581111561353c575f80fd5b84935085828601111561354d575f80fd5b8092505050925092905056fe30644e72e131a029b85045b68181585d97816a916871ca8d3c208c16d87cfd4730644e72e131a029048b6e193fd84104cc37a73fec2bc5e9b8ca0b2d36636f2330644e72e131a029048b6e193fd841045cea24f6fd736bec231204708f7036360c9fabc7845d50d2852e2a0371c6441f145e0db82e8326961c25f1e3e32b045b30644e72e131a029b85045b68181585d2833e84879b9709143e1f593f000000130644e72e131a029b85045b68181585d2833e84879b9709143e1f593f00000001f7e1d70965392e542392cab2e10e88c03912b89107ae96c3a6b13f31f3a4cd016d70f6937b88ea2890451712281f2073db9ac923d49d38d833cbbcbc2b281c8a26469706673582212205fa66a592bf4101f1e5004b13a7e721aec22545c56503f32844822602575231564736f6c63430008140033",
  "linkReferences": {},
  "deployedLinkReferences": {}
}