{
  "_format": "hh-sol-artifact-1",
  "contractName": "PolygonZkEVMBridge",
  "sourceName": "contracts/PolygonZkEVMBridge.sol",
  "abi": [
    {
      "inputs": [],
      "name": "AlreadyClaimed",
      "type": "error"
    },
    {
      "inputs": [],
      "name": "AmountDoesNotMatchMsgValue",
      "type": "error"
    },
    {
      "inputs": [],
      "name": "DestinationNetworkInvalid",
      "type": "error"
    },
    {
      "inputs": [],
      "name": "EtherTransferFailed",
      "type": "error"
    },
    {
      "inputs": [],
      "name": "GlobalExitRootInvalid",
      "type": "error"
    },
    {
      "inputs": [],
      "name": "InvalidSmtProof",
      "type": "error"
    },
    {
      "inputs": [],
      "name": "MerkleTreeFull",
      "type": "error"
    },
    {
      "inputs": [],
      "name": "MessageFailed",
      "type": "error"
    },
    {
      "inputs": [],
      "name": "MsgValueNotZero",
      "type": "error"
    },
    {
      "inputs": [],
      "name": "NotValidAmount",
      "type": "error"
    },
    {
      "inputs": [],
      "name": "NotValidOwner",
      "type": "error"
    },
    {
      "inputs": [],
      "name": "NotValidSignature",
      "type": "error"
    },
    {
      "inputs": [],
      "name": "NotValidSpender",
      "type": "error"
    },
    {
      "inputs": [],
      "name": "OnlyEmergencyState",
      "type": "error"
    },
    {
      "inputs": [],
      "name": "OnlyNotEmergencyState",
      "type": "error"
    },
    {
      "inputs": [],
      "name": "OnlyPolygonZkEVM",
      "type": "error"
    },
    {
      "anonymous": false,
      "inputs": [
        {
          "indexed": false,
          "internalType": "uint8",
          "name": "leafType",
          "type": "uint8"
        },
        {
          "indexed": false,
          "internalType": "uint32",
          "name": "originNetwork",
          "type": "uint32"
        },
        {
          "indexed": false,
          "internalType": "address",
          "name": "originAddress",
          "type": "address"
        },
        {
          "indexed": false,
          "internalType": "uint32",
          "name": "destinationNetwork",
          "type": "uint32"
        },
        {
          "indexed": false,
          "internalType": "address",
          "name": "destinationAddress",
          "type": "address"
        },
        {
          "indexed": false,
          "internalType": "uint256",
          "name": "amount",
          "type": "uint256"
        },
        {
          "indexed": false,
          "internalType": "bytes",
          "name": "metadata",
          "type": "bytes"
        },
        {
          "indexed": false,
          "internalType": "uint32",
          "name": "depositCount",
          "type": "uint32"
        }
      ],
      "name": "BridgeEvent",
      "type": "event"
    },
    {
      "anonymous": false,
      "inputs": [
        {
          "indexed": false,
          "internalType": "uint32",
          "name": "index",
          "type": "uint32"
        },
        {
          "indexed": false,
          "internalType": "uint32",
          "name": "originNetwork",
          "type": "uint32"
        },
        {
          "indexed": false,
          "internalType": "address",
          "name": "originAddress",
          "type": "address"
        },
        {
          "indexed": false,
          "internalType": "address",
          "name": "destinationAddress",
          "type": "address"
        },
        {
          "indexed": false,
          "internalType": "uint256",
          "name": "amount",
          "type": "uint256"
        }
      ],
      "name": "ClaimEvent",
      "type": "event"
    },
    {
      "anonymous": false,
      "inputs": [],
      "name": "EmergencyStateActivated",
      "type": "event"
    },
    {
      "anonymous": false,
      "inputs": [],
      "name": "EmergencyStateDeactivated",
      "type": "event"
    },
    {
      "anonymous": false,
      "inputs": [
        {
          "indexed": false,
          "internalType": "uint8",
          "name": "version",
          "type": "uint8"
        }
      ],
      "name": "Initialized",
      "type": "event"
    },
    {
      "anonymous": false,
      "inputs": [
        {
          "indexed": false,
          "internalType": "uint32",
          "name": "originNetwork",
          "type": "uint32"
        },
        {
          "indexed": false,
          "internalType": "address",
          "name": "originTokenAddress",
          "type": "address"
        },
        {
          "indexed": false,
          "internalType": "address",
          "name": "wrappedTokenAddress",
          "type": "address"
        },
        {
          "indexed": false,
          "internalType": "bytes",
          "name": "metadata",
          "type": "bytes"
        }
      ],
      "name": "NewWrappedToken",
      "type": "event"
    },
    {
      "inputs": [],
      "name": "activateEmergencyState",
      "outputs": [],
      "stateMutability": "nonpayable",
      "type": "function"
    },
    {
      "inputs": [
        {
          "internalType": "uint32",
          "name": "destinationNetwork",
          "type": "uint32"
        },
        {
          "internalType": "address",
          "name": "destinationAddress",
          "type": "address"
        },
        {
          "internalType": "uint256",
          "name": "amount",
          "type": "uint256"
        },
        {
          "internalType": "address",
          "name": "token",
          "type": "address"
        },
        {
          "internalType": "bool",
          "name": "forceUpdateGlobalExitRoot",
          "type": "bool"
        },
        {
          "internalType": "bytes",
          "name": "permitData",
          "type": "bytes"
        }
      ],
      "name": "bridgeAsset",
      "outputs": [],
      "stateMutability": "payable",
      "type": "function"
    },
    {
      "inputs": [
        {
          "internalType": "uint32",
          "name": "destinationNetwork",
          "type": "uint32"
        },
        {
          "internalType": "address",
          "name": "destinationAddress",
          "type": "address"
        },
        {
          "internalType": "bool",
          "name": "forceUpdateGlobalExitRoot",
          "type": "bool"
        },
        {
          "internalType": "bytes",
          "name": "metadata",
          "type": "bytes"
        }
      ],
      "name": "bridgeMessage",
      "outputs": [],
      "stateMutability": "payable",
      "type": "function"
    },
    {
      "inputs": [
        {
          "internalType": "bytes32[32]",
          "name": "smtProof",
          "type": "bytes32[32]"
        },
        {
          "internalType": "uint32",
          "name": "index",
          "type": "uint32"
        },
        {
          "internalType": "bytes32",
          "name": "mainnetExitRoot",
          "type": "bytes32"
        },
        {
          "internalType": "bytes32",
          "name": "rollupExitRoot",
          "type": "bytes32"
        },
        {
          "internalType": "uint32",
          "name": "originNetwork",
          "type": "uint32"
        },
        {
          "internalType": "address",
          "name": "originTokenAddress",
          "type": "address"
        },
        {
          "internalType": "uint32",
          "name": "destinationNetwork",
          "type": "uint32"
        },
        {
          "internalType": "address",
          "name": "destinationAddress",
          "type": "address"
        },
        {
          "internalType": "uint256",
          "name": "amount",
          "type": "uint256"
        },
        {
          "internalType": "bytes",
          "name": "metadata",
          "type": "bytes"
        }
      ],
      "name": "claimAsset",
      "outputs": [],
      "stateMutability": "nonpayable",
      "type": "function"
    },
    {
      "inputs": [
        {
          "internalType": "bytes32[32]",
          "name": "smtProof",
          "type": "bytes32[32]"
        },
        {
          "internalType": "uint32",
          "name": "index",
          "type": "uint32"
        },
        {
          "internalType": "bytes32",
          "name": "mainnetExitRoot",
          "type": "bytes32"
        },
        {
          "internalType": "bytes32",
          "name": "rollupExitRoot",
          "type": "bytes32"
        },
        {
          "internalType": "uint32",
          "name": "originNetwork",
          "type": "uint32"
        },
        {
          "internalType": "address",
          "name": "originAddress",
          "type": "address"
        },
        {
          "internalType": "uint32",
          "name": "destinationNetwork",
          "type": "uint32"
        },
        {
          "internalType": "address",
          "name": "destinationAddress",
          "type": "address"
        },
        {
          "internalType": "uint256",
          "name": "amount",
          "type": "uint256"
        },
        {
          "internalType": "bytes",
          "name": "metadata",
          "type": "bytes"
        }
      ],
      "name": "claimMessage",
      "outputs": [],
      "stateMutability": "nonpayable",
      "type": "function"
    },
    {
      "inputs": [
        {
          "internalType": "uint256",
          "name": "",
          "type": "uint256"
        }
      ],
      "name": "claimedBitMap",
      "outputs": [
        {
          "internalType": "uint256",
          "name": "",
          "type": "uint256"
        }
      ],
      "stateMutability": "view",
      "type": "function"
    },
    {
      "inputs": [],
      "name": "deactivateEmergencyState",
      "outputs": [],
      "stateMutability": "nonpayable",
      "type": "function"
    },
    {
      "inputs": [],
      "name": "depositCount",
      "outputs": [
        {
          "internalType": "uint256",
          "name": "",
          "type": "uint256"
        }
      ],
      "stateMutability": "view",
      "type": "function"
    },
    {
      "inputs": [],
      "name": "getDepositRoot",
      "outputs": [
        {
          "internalType": "bytes32",
          "name": "",
          "type": "bytes32"
        }
      ],
      "stateMutability": "view",
      "type": "function"
    },
    {
      "inputs": [
        {
          "internalType": "uint8",
          "name": "leafType",
          "type": "uint8"
        },
        {
          "internalType": "uint32",
          "name": "originNetwork",
          "type": "uint32"
        },
        {
          "internalType": "address",
          "name": "originAddress",
          "type": "address"
        },
        {
          "internalType": "uint32",
          "name": "destinationNetwork",
          "type": "uint32"
        },
        {
          "internalType": "address",
          "name": "destinationAddress",
          "type": "address"
        },
        {
          "internalType": "uint256",
          "name": "amount",
          "type": "uint256"
        },
        {
          "internalType": "bytes32",
          "name": "metadataHash",
          "type": "bytes32"
        }
      ],
      "name": "getLeafValue",
      "outputs": [
        {
          "internalType": "bytes32",
          "name": "",
          "type": "bytes32"
        }
      ],
      "stateMutability": "pure",
      "type": "function"
    },
    {
      "inputs": [
        {
          "internalType": "uint32",
          "name": "originNetwork",
          "type": "uint32"
        },
        {
          "internalType": "address",
          "name": "originTokenAddress",
          "type": "address"
        }
      ],
      "name": "getTokenWrappedAddress",
      "outputs": [
        {
          "internalType": "address",
          "name": "",
          "type": "address"
        }
      ],
      "stateMutability": "view",
      "type": "function"
    },
    {
      "inputs": [],
      "name": "globalExitRootManager",
      "outputs": [
        {
          "internalType": "contract IBasePolygonZkEVMGlobalExitRoot",
          "name": "",
          "type": "address"
        }
      ],
      "stateMutability": "view",
      "type": "function"
    },
    {
      "inputs": [
        {
          "internalType": "uint32",
          "name": "_networkID",
          "type": "uint32"
        },
        {
          "internalType": "contract IBasePolygonZkEVMGlobalExitRoot",
          "name": "_globalExitRootManager",
          "type": "address"
        },
        {
          "internalType": "address",
          "name": "_polygonZkEVMaddress",
          "type": "address"
        }
      ],
      "name": "initialize",
      "outputs": [],
      "stateMutability": "nonpayable",
      "type": "function"
    },
    {
      "inputs": [
        {
          "internalType": "uint256",
          "name": "index",
          "type": "uint256"
        }
      ],
      "name": "isClaimed",
      "outputs": [
        {
          "internalType": "bool",
          "name": "",
          "type": "bool"
        }
      ],
      "stateMutability": "view",
      "type": "function"
    },
    {
      "inputs": [],
      "name": "isEmergencyState",
      "outputs": [
        {
          "internalType": "bool",
          "name": "",
          "type": "bool"
        }
      ],
      "stateMutability": "view",
      "type": "function"
    },
    {
      "inputs": [],
      "name": "lastUpdatedDepositCount",
      "outputs": [
        {
          "internalType": "uint32",
          "name": "",
          "type": "uint32"
        }
      ],
      "stateMutability": "view",
      "type": "function"
    },
    {
      "inputs": [],
      "name": "networkID",
      "outputs": [
        {
          "internalType": "uint32",
          "name": "",
          "type": "uint32"
        }
      ],
      "stateMutability": "view",
      "type": "function"
    },
    {
      "inputs": [],
      "name": "polygonZkEVMaddress",
      "outputs": [
        {
          "internalType": "address",
          "name": "",
          "type": "address"
        }
      ],
      "stateMutability": "view",
      "type": "function"
    },
    {
      "inputs": [
        {
          "internalType": "uint32",
          "name": "originNetwork",
          "type": "uint32"
        },
        {
          "internalType": "address",
          "name": "originTokenAddress",
          "type": "address"
        },
        {
          "internalType": "string",
          "name": "name",
          "type": "string"
        },
        {
          "internalType": "string",
          "name": "symbol",
          "type": "string"
        },
        {
          "internalType": "uint8",
          "name": "decimals",
          "type": "uint8"
        }
      ],
      "name": "precalculatedWrapperAddress",
      "outputs": [
        {
          "internalType": "address",
          "name": "",
          "type": "address"
        }
      ],
      "stateMutability": "view",
      "type": "function"
    },
    {
      "inputs": [
        {
          "internalType": "bytes32",
          "name": "",
          "type": "bytes32"
        }
      ],
      "name": "tokenInfoToWrappedToken",
      "outputs": [
        {
          "internalType": "address",
          "name": "",
          "type": "address"
        }
      ],
      "stateMutability": "view",
      "type": "function"
    },
    {
      "inputs": [],
      "name": "updateGlobalExitRoot",
      "outputs": [],
      "stateMutability": "nonpayable",
      "type": "function"
    },
    {
      "inputs": [
        {
          "internalType": "bytes32",
          "name": "leafHash",
          "type": "bytes32"
        },
        {
          "internalType": "bytes32[32]",
          "name": "smtProof",
          "type": "bytes32[32]"
        },
        {
          "internalType": "uint32",
          "name": "index",
          "type": "uint32"
        },
        {
          "internalType": "bytes32",
          "name": "root",
          "type": "bytes32"
        }
      ],
      "name": "verifyMerkleProof",
      "outputs": [
        {
          "internalType": "bool",
          "name": "",
          "type": "bool"
        }
      ],
      "stateMutability": "pure",
      "type": "function"
    },
    {
      "inputs": [
        {
          "internalType": "address",
          "name": "",
          "type": "address"
        }
      ],
      "name": "wrappedTokenToTokenInfo",
      "outputs": [
        {
          "internalType": "uint32",
          "name": "originNetwork",
          "type": "uint32"
        },
        {
          "internalType": "address",
          "name": "originTokenAddress",
          "type": "address"
        }
      ],
      "stateMutability": "view",
      "type": "function"
    }
  ],
  "bytecode": "0x608060405234801561001057600080fd5b5061470f806100206000396000f3fe608060405260043610620001285760003560e01c806315064c96146200012d5780632072f6c5146200015e57806322e95f2c1462000178578063240ff37814620001ac5780632cffd02e14620001c35780632d2c9d9414620001e85780632dfdf0b5146200020d578063318aee3d146200023457806334ac9cf214620002a25780633ae0504714620002c45780633e19704314620002dc578063647c576c146200030157806379e2cf97146200032657806381b1c174146200033e5780639e34070f1462000378578063aaa13cc214620003bd578063bab161bf14620003e2578063be5831c7146200041c578063cd5865791462000442578063d02103ca1462000459578063dbc169761462000482578063ee25560b146200049a578063fb57083414620004cb575b600080fd5b3480156200013a57600080fd5b50606854620001499060ff1681565b60405190151581526020015b60405180910390f35b3480156200016b57600080fd5b5062000176620004f0565b005b3480156200018557600080fd5b506200019d62000197366004620023cc565b62000528565b60405162000155919062002408565b62000176620001bd36600462002476565b6200057b565b348015620001d057600080fd5b5062000176620001e23660046200250c565b62000691565b348015620001f557600080fd5b5062000176620002073660046200250c565b62000a84565b3480156200021a57600080fd5b506200022560535481565b60405190815260200162000155565b3480156200024157600080fd5b506200027d62000253366004620025f1565b606b6020526000908152604090205463ffffffff811690600160201b90046001600160a01b031682565b6040805163ffffffff90931683526001600160a01b0390911660208301520162000155565b348015620002af57600080fd5b50606c546200019d906001600160a01b031681565b348015620002d157600080fd5b506200022562000bc2565b348015620002e957600080fd5b5062000225620002fb36600462002628565b62000caa565b3480156200030e57600080fd5b506200017662000320366004620026b2565b62000d37565b3480156200033357600080fd5b506200017662000ebb565b3480156200034b57600080fd5b506200019d6200035d36600462002702565b606a602052600090815260409020546001600160a01b031681565b3480156200038557600080fd5b50620001496200039736600462002702565b600881901c600090815260696020526040902054600160ff9092169190911b9081161490565b348015620003ca57600080fd5b506200019d620003dc3660046200271c565b62000edf565b348015620003ef57600080fd5b506068546200040690610100900463ffffffff1681565b60405163ffffffff909116815260200162000155565b3480156200042957600080fd5b506068546200040690600160c81b900463ffffffff1681565b6200017662000453366004620027cf565b62000ff6565b3480156200046657600080fd5b506068546200019d90600160281b90046001600160a01b031681565b3480156200048f57600080fd5b50620001766200138c565b348015620004a757600080fd5b5062000225620004b936600462002702565b60696020526000908152604090205481565b348015620004d857600080fd5b5062000149620004ea36600462002870565b620013c2565b606c546001600160a01b031633146200051c5760405163e2e8106b60e01b815260040160405180910390fd5b620005266200149b565b565b6000606a6000848460405160200162000543929190620028bd565b60408051601f19818403018152918152815160209283012083529082019290925201600020546001600160a01b031690505b92915050565b60685460ff1615620005a057604051630bc011ff60e21b815260040160405180910390fd5b60685463ffffffff868116610100909204161480620005c65750600263ffffffff861610155b15620005e5576040516302caf51760e11b815260040160405180910390fd5b6000805160206200469a8339815191526001606860019054906101000a900463ffffffff163388883488886053546040516200062a9998979695949392919062002910565b60405180910390a162000679620006736001606860019054906101000a900463ffffffff16338989348989604051620006659291906200297f565b604051809103902062000caa565b620014f8565b82156200068a576200068a620015f6565b5050505050565b60685460ff1615620006b657604051630bc011ff60e21b815260040160405180910390fd5b620006cd8b8b8b8b8b8b8b8b8b8b8b60006200168e565b6001600160a01b0386166200077657604080516000808252602082019092526001600160a01b038616908590604051620007089190620029cb565b60006040518083038185875af1925050503d806000811462000747576040519150601f19603f3d011682016040523d82523d6000602084013e6200074c565b606091505b50509050806200076f57604051630ce8f45160e31b815260040160405180910390fd5b5062000a47565b60685463ffffffff610100909104811690881603620007ab57620007a56001600160a01b0387168585620017f7565b62000a47565b60008787604051602001620007c2929190620028bd565b60408051601f1981840301815291815281516020928301206000818152606a9093529120549091506001600160a01b031680620009df57600080806200080b8688018862002aa2565b925092509250600085848484604051620008259062002390565b620008339392919062002b45565b8190604051809103906000f590508015801562000854573d6000803e3d6000fd5b506040516340c10f1960e01b81529091506001600160a01b038216906340c10f199062000888908d908d9060040162002b82565b600060405180830381600087803b158015620008a357600080fd5b505af1158015620008b8573d6000803e3d6000fd5b5050505080606a600088815260200190815260200160002060006101000a8154816001600160a01b0302191690836001600160a01b0316021790555060405180604001604052808e63ffffffff1681526020018d6001600160a01b0316815250606b6000836001600160a01b03166001600160a01b0316815260200190815260200160002060008201518160000160006101000a81548163ffffffff021916908363ffffffff16021790555060208201518160000160046101000a8154816001600160a01b0302191690836001600160a01b031602179055509050507f490e59a1701b938786ac72570a1efeac994a3dbe96e2e883e19e902ace6e6a398d8d838b8b604051620009cd95949392919062002b9b565b60405180910390a15050505062000a44565b6040516340c10f1960e01b81526001600160a01b038216906340c10f199062000a0f908990899060040162002b82565b600060405180830381600087803b15801562000a2a57600080fd5b505af115801562000a3f573d6000803e3d6000fd5b505050505b50505b600080516020620046ba8339815191528a8888878760405162000a6f95949392919062002bd6565b60405180910390a15050505050505050505050565b60685460ff161562000aa957604051630bc011ff60e21b815260040160405180910390fd5b62000ac08b8b8b8b8b8b8b8b8b8b8b60016200168e565b6000846001600160a01b031684888a868660405160240162000ae6949392919062002c0d565b60408051601f198184030181529181526020820180516001600160e01b0316630c035af960e11b1790525162000b1d9190620029cb565b60006040518083038185875af1925050503d806000811462000b5c576040519150601f19603f3d011682016040523d82523d6000602084013e62000b61565b606091505b505090508062000b84576040516337e391c360e01b815260040160405180910390fd5b600080516020620046ba8339815191528b8989888860405162000bac95949392919062002bd6565b60405180910390a1505050505050505050505050565b605354600090819081805b602081101562000ca1578083901c60011660010362000c30576033816020811062000bfc5762000bfc62002c4a565b01548460405160200162000c1292919062002c60565b60405160208183030381529060405280519060200120935062000c5e565b838260405160200162000c4592919062002c60565b6040516020818303038152906040528051906020012093505b818260405160200162000c7392919062002c60565b604051602081830303815290604052805190602001209150808062000c989062002c84565b91505062000bcd565b50919392505050565b6040516001600160f81b031960f889901b1660208201526001600160e01b031960e088811b821660218401526001600160601b0319606089811b821660258601529188901b909216603984015285901b16603d8201526051810183905260718101829052600090609101604051602081830303815290604052805190602001209050979650505050505050565b600054610100900460ff161580801562000d585750600054600160ff909116105b8062000d7d575062000d6a3062001851565b15801562000d7d575060005460ff166001145b62000de65760405162461bcd60e51b815260206004820152602e60248201527f496e697469616c697a61626c653a20636f6e747261637420697320616c72656160448201526d191e481a5b9a5d1a585b1a5e995960921b60648201526084015b60405180910390fd5b6000805460ff19166001179055801562000e0a576000805461ff0019166101001790555b60688054610100600160c81b03191661010063ffffffff871602600160281b600160c81b03191617600160281b6001600160a01b038681169190910291909117909155606c80546001600160a01b03191691841691909117905562000e6e62001860565b801562000eb5576000805461ff0019169055604051600181527f7f26b83ff96e1f2b6a682f133852f6798a09c465da95921460cefb38474024989060200160405180910390a15b50505050565b605354606854600160c81b900463ffffffff161015620005265762000526620015f6565b600080888860405160200162000ef7929190620028bd565b604051602081830303815290604052805190602001209050600060ff60f81b30836040518060200162000f2a9062002390565b601f1982820381018352601f90910116604081905262000f57908d908d908d908d908d9060200162002ca0565b60408051601f198184030181529082905262000f77929160200162002ce1565b6040516020818303038152906040528051906020012060405160200162000fd094939291906001600160f81b031994909416845260609290921b6001600160601b03191660018401526015830152603582015260550190565b60408051808303601f1901815291905280516020909101209a9950505050505050505050565b60685460ff16156200101b57604051630bc011ff60e21b815260040160405180910390fd5b6200102562001894565b60685463ffffffff8881166101009092041614806200104b5750600263ffffffff881610155b156200106a576040516302caf51760e11b815260040160405180910390fd5b6000806060876001600160a01b038816620010aa57883414620010a05760405163b89240f560e01b815260040160405180910390fd5b600092506200130e565b3415620010ca5760405163798ee6f160e01b815260040160405180910390fd5b6001600160a01b038089166000908152606b602090815260409182902082518084019093525463ffffffff81168352600160201b900490921691810182905290156200118857604051632770a7eb60e21b81526001600160a01b038a1690639dc29fac90620011409033908e9060040162002b82565b600060405180830381600087803b1580156200115b57600080fd5b505af115801562001170573d6000803e3d6000fd5b5050505080602001519450806000015193506200130c565b85156200119d576200119d898b8989620018ef565b6040516370a0823160e01b81526000906001600160a01b038b16906370a0823190620011ce90309060040162002408565b602060405180830381865afa158015620011ec573d6000803e3d6000fd5b505050506040513d601f19601f8201168201806040525081019062001212919062002d14565b90506200122b6001600160a01b038b1633308e62001c51565b6040516370a0823160e01b81526000906001600160a01b038c16906370a08231906200125c90309060040162002408565b602060405180830381865afa1580156200127a573d6000803e3d6000fd5b505050506040513d601f19601f82011682018060405250810190620012a0919062002d14565b9050620012ae828262002d2e565b6068548c9850610100900463ffffffff1696509350620012ce8762001c8b565b620012d98c62001d52565b620012e48d62001e10565b604051602001620012f89392919062002b45565b604051602081830303815290604052945050505b505b6000805160206200469a833981519152600084868e8e86886053546040516200133f98979695949392919062002d44565b60405180910390a16200136462000673600085878f8f87898051906020012062000caa565b8615620013755762001375620015f6565b505050506200138360018055565b50505050505050565b606c546001600160a01b03163314620013b85760405163e2e8106b60e01b815260040160405180910390fd5b6200052662001ed7565b600084815b60208110156200148d57600163ffffffff8616821c811690036200143157858160208110620013fa57620013fa62002c4a565b6020020135826040516020016200141392919062002c60565b60405160208183030381529060405280519060200120915062001478565b8186826020811062001447576200144762002c4a565b60200201356040516020016200145f92919062002c60565b6040516020818303038152906040528051906020012091505b80620014848162002c84565b915050620013c7565b50821490505b949350505050565b60685460ff1615620014c057604051630bc011ff60e21b815260040160405180910390fd5b6068805460ff191660011790556040517f2261efe5aef6fedc1fd1550b25facc9181745623049c7901287030b9ad1a549790600090a1565b806001620015096020600262002eae565b62001515919062002d2e565b6053541062001537576040516377ae67b360e11b815260040160405180910390fd5b60006053600081546200154a9062002c84565b9182905550905060005b6020811015620015e6578082901c6001166001036200158c57826033826020811062001584576200158462002c4a565b015550505050565b60338160208110620015a257620015a262002c4a565b015483604051602001620015b892919062002c60565b6040516020818303038152906040528051906020012092508080620015dd9062002c84565b91505062001554565b50620015f162002ebc565b505050565b6053546068805463ffffffff909216600160c81b0263ffffffff60c81b1990921691909117908190556001600160a01b03600160281b909104166333d6247d6200163f62000bc2565b6040518263ffffffff1660e01b81526004016200165e91815260200190565b600060405180830381600087803b1580156200167957600080fd5b505af115801562000eb5573d6000803e3d6000fd5b6200169f8b63ffffffff1662001f30565b606854600090600160281b90046001600160a01b031663257b3632620016c68d8d62001f7c565b6040518263ffffffff1660e01b8152600401620016e591815260200190565b6020604051808303816000875af115801562001705573d6000803e3d6000fd5b505050506040513d601f19601f820116820180604052508101906200172b919062002d14565b9050806000036200174e57604051622f6fad60e01b815260040160405180910390fd5b60685463ffffffff88811661010090920416146200177f576040516302caf51760e11b815260040160405180910390fd5b606854600090610100900463ffffffff166200179d575089620017a0565b508a5b620017c9620017c0848c8c8c8c8c8c8c604051620006659291906200297f565b8f8f84620013c2565b620017e7576040516338105f3b60e21b815260040160405180910390fd5b5050505050505050505050505050565b620015f18363a9059cbb60e01b84846040516024016200181992919062002b82565b60408051601f198184030181529190526020810180516001600160e01b03166001600160e01b03199093169290921790915262001fb1565b6001600160a01b03163b151590565b600054610100900460ff166200188a5760405162461bcd60e51b815260040162000ddd9062002ed2565b620005266200208a565b600260015403620018e85760405162461bcd60e51b815260206004820152601f60248201527f5265656e7472616e637947756172643a207265656e7472616e742063616c6c00604482015260640162000ddd565b6002600155565b600062001900600482848662002f1d565b6200190b9162002f49565b9050632afa533160e01b6001600160e01b031982160162001aac5760008080808080806200193d896004818d62002f1d565b8101906200194c919062002f7a565b9650965096509650965096509650336001600160a01b0316876001600160a01b0316146200198d5760405163912ecce760e01b815260040160405180910390fd5b6001600160a01b0386163014620019b75760405163750643af60e01b815260040160405180910390fd5b8a8514620019d8576040516303fffc4b60e01b815260040160405180910390fd5b604080516001600160a01b0389811660248301528881166044830152606482018890526084820187905260ff861660a483015260c4820185905260e48083018590528351808403909101815261010490920183526020820180516001600160e01b031663d505accf60e01b1790529151918e169162001a589190620029cb565b6000604051808303816000865af19150503d806000811462001a97576040519150601f19603f3d011682016040523d82523d6000602084013e62001a9c565b606091505b505050505050505050506200068a565b6001600160e01b031981166323f2ebc360e21b1462001ade57604051637141605d60e11b815260040160405180910390fd5b60008080808080808062001af68a6004818e62002f1d565b81019062001b05919062002fd5565b97509750975097509750975097509750336001600160a01b0316886001600160a01b03161462001b485760405163912ecce760e01b815260040160405180910390fd5b6001600160a01b038716301462001b725760405163750643af60e01b815260040160405180910390fd5b604080516001600160a01b038a811660248301528981166044830152606482018990526084820188905286151560a483015260ff861660c483015260e482018590526101048083018590528351808403909101815261012490920183526020820180516001600160e01b03166323f2ebc360e21b1790529151918f169162001bfb9190620029cb565b6000604051808303816000865af19150503d806000811462001c3a576040519150601f19603f3d011682016040523d82523d6000602084013e62001c3f565b606091505b50505050505050505050505050505050565b6040516001600160a01b038085166024830152831660448201526064810182905262000eb59085906323b872dd60e01b9060840162001819565b60408051600481526024810182526020810180516001600160e01b03166306fdde0360e01b179052905160609160009182916001600160a01b0386169162001cd49190620029cb565b600060405180830381855afa9150503d806000811462001d11576040519150601f19603f3d011682016040523d82523d6000602084013e62001d16565b606091505b50915091508162001d4757604051806040016040528060078152602001664e4f5f4e414d4560c81b81525062001493565b6200149381620020b4565b60408051600481526024810182526020810180516001600160e01b03166395d89b4160e01b179052905160609160009182916001600160a01b0386169162001d9b9190620029cb565b600060405180830381855afa9150503d806000811462001dd8576040519150601f19603f3d011682016040523d82523d6000602084013e62001ddd565b606091505b50915091508162001d4757604051806040016040528060098152602001681393d7d4d6535093d360ba1b81525062001493565b60408051600481526024810182526020810180516001600160e01b031663313ce56760e01b1790529051600091829182916001600160a01b0386169162001e589190620029cb565b600060405180830381855afa9150503d806000811462001e95576040519150601f19603f3d011682016040523d82523d6000602084013e62001e9a565b606091505b509150915081801562001eae575080516020145b62001ebb57601262001493565b8080602001905181019062001493919062003061565b60018055565b60685460ff1662001efb57604051635386698160e01b815260040160405180910390fd5b6068805460ff191690556040517f1e5e34eea33501aecf2ebec9fe0e884a40804275ea7fe10b2ba084c8374308b390600090a1565b600881901c60008181526069602052604081208054600160ff861690811b918218928390559290919081831690036200068a57604051630c8d9eab60e31b815260040160405180910390fd5b6000828260405160200162001f9392919062002c60565b60405160208183030381529060405280519060200120905092915050565b600062002008826040518060400160405280602081526020017f5361666545524332303a206c6f772d6c6576656c2063616c6c206661696c6564815250856001600160a01b03166200225d9092919063ffffffff16565b805190915015620015f1578080602001905181019062002029919062003081565b620015f15760405162461bcd60e51b815260206004820152602a60248201527f5361666545524332303a204552433230206f7065726174696f6e20646964206e6044820152691bdd081cdd58d8d9595960b21b606482015260840162000ddd565b600054610100900460ff1662001ed15760405162461bcd60e51b815260040162000ddd9062002ed2565b60606040825110620020d65781806020019051810190620005759190620030a1565b81516020036200222a5760005b60208110801562002116575082818151811062002104576200210462002c4a565b01602001516001600160f81b03191615155b15620021315780620021288162002c84565b915050620020e3565b806000036200216a5750506040805180820190915260128152714e4f545f56414c49445f454e434f44494e4760701b6020820152919050565b6000816001600160401b038111156200218757620021876200298f565b6040519080825280601f01601f191660200182016040528015620021b2576020820181803683370190505b50905060005b828110156200222257848181518110620021d657620021d662002c4a565b602001015160f81c60f81b828281518110620021f657620021f662002c4a565b60200101906001600160f81b031916908160001a90535080620022198162002c84565b915050620021b8565b509392505050565b50506040805180820190915260128152714e4f545f56414c49445f454e434f44494e4760701b602082015290565b919050565b606062001493848460008585600080866001600160a01b03168587604051620022879190620029cb565b60006040518083038185875af1925050503d8060008114620022c6576040519150601f19603f3d011682016040523d82523d6000602084013e620022cb565b606091505b5091509150620022de87838387620022e9565b979650505050505050565b606083156200235d5782516000036200235557620023078562001851565b620023555760405162461bcd60e51b815260206004820152601d60248201527f416464726573733a2063616c6c20746f206e6f6e2d636f6e7472616374000000604482015260640162000ddd565b508162001493565b620014938383815115620023745781518083602001fd5b8060405162461bcd60e51b815260040162000ddd919062003120565b611564806200313683390190565b803563ffffffff811681146200225857600080fd5b6001600160a01b0381168114620023c957600080fd5b50565b60008060408385031215620023e057600080fd5b620023eb836200239e565b91506020830135620023fd81620023b3565b809150509250929050565b6001600160a01b0391909116815260200190565b8015158114620023c957600080fd5b60008083601f8401126200243e57600080fd5b5081356001600160401b038111156200245657600080fd5b6020830191508360208285010111156200246f57600080fd5b9250929050565b6000806000806000608086880312156200248f57600080fd5b6200249a866200239e565b94506020860135620024ac81620023b3565b93506040860135620024be816200241c565b925060608601356001600160401b03811115620024da57600080fd5b620024e8888289016200242b565b969995985093965092949392505050565b8061040081018310156200057557600080fd5b60008060008060008060008060008060006105208c8e0312156200252f57600080fd5b6200253b8d8d620024f9565b9a506200254c6104008d016200239e565b99506104208c013598506104408c013597506200256d6104608d016200239e565b96506104808c01356200258081620023b3565b9550620025916104a08d016200239e565b94506104c08c0135620025a481620023b3565b93506104e08c013592506105008c01356001600160401b03811115620025c957600080fd5b620025d78e828f016200242b565b915080935050809150509295989b509295989b9093969950565b6000602082840312156200260457600080fd5b81356200261181620023b3565b9392505050565b60ff81168114620023c957600080fd5b600080600080600080600060e0888a0312156200264457600080fd5b8735620026518162002618565b965062002661602089016200239e565b955060408801356200267381620023b3565b945062002683606089016200239e565b935060808801356200269581620023b3565b9699959850939692959460a0840135945060c09093013592915050565b600080600060608486031215620026c857600080fd5b620026d3846200239e565b92506020840135620026e581620023b3565b91506040840135620026f781620023b3565b809150509250925092565b6000602082840312156200271557600080fd5b5035919050565b600080600080600080600060a0888a0312156200273857600080fd5b62002743886200239e565b965060208801356200275581620023b3565b955060408801356001600160401b03808211156200277257600080fd5b620027808b838c016200242b565b909750955060608a01359150808211156200279a57600080fd5b50620027a98a828b016200242b565b9094509250506080880135620027bf8162002618565b8091505092959891949750929550565b600080600080600080600060c0888a031215620027eb57600080fd5b620027f6886200239e565b965060208801356200280881620023b3565b95506040880135945060608801356200282181620023b3565b9350608088013562002833816200241c565b925060a08801356001600160401b038111156200284f57600080fd5b6200285d8a828b016200242b565b989b979a50959850939692959293505050565b60008060008061046085870312156200288857600080fd5b843593506200289b8660208701620024f9565b9250620028ac61042086016200239e565b939692955092936104400135925050565b60e09290921b6001600160e01b031916825260601b6001600160601b031916600482015260180190565b81835281816020850137506000828201602090810191909152601f909101601f19169091010190565b60ff8a16815263ffffffff89811660208301526001600160a01b03898116604084015288821660608401528716608083015260a0820186905261010060c08301819052600091620029658483018789620028e7565b925080851660e085015250509a9950505050505050505050565b8183823760009101908152919050565b634e487b7160e01b600052604160045260246000fd5b60005b83811015620029c2578181015183820152602001620029a8565b50506000910152565b60008251620029df818460208701620029a5565b9190910192915050565b604051601f8201601f191681016001600160401b038111828210171562002a145762002a146200298f565b604052919050565b60006001600160401b0382111562002a385762002a386200298f565b50601f01601f191660200190565b600082601f83011262002a5857600080fd5b813562002a6f62002a698262002a1c565b620029e9565b81815284602083860101111562002a8557600080fd5b816020850160208301376000918101602001919091529392505050565b60008060006060848603121562002ab857600080fd5b83356001600160401b038082111562002ad057600080fd5b62002ade8783880162002a46565b9450602086013591508082111562002af557600080fd5b5062002b048682870162002a46565b9250506040840135620026f78162002618565b6000815180845262002b31816020860160208601620029a5565b601f01601f19169290920160200192915050565b60608152600062002b5a606083018662002b17565b828103602084015262002b6e818662002b17565b91505060ff83166040830152949350505050565b6001600160a01b03929092168252602082015260400190565b63ffffffff861681526001600160a01b03858116602083015284166040820152608060608201819052600090620022de9083018486620028e7565b63ffffffff95861681529390941660208401526001600160a01b039182166040840152166060820152608081019190915260a00190565b6001600160a01b038516815263ffffffff8416602082015260606040820181905260009062002c409083018486620028e7565b9695505050505050565b634e487b7160e01b600052603260045260246000fd5b918252602082015260400190565b634e487b7160e01b600052601160045260246000fd5b60006001820162002c995762002c9962002c6e565b5060010190565b60608152600062002cb6606083018789620028e7565b828103602084015262002ccb818688620028e7565b91505060ff831660408301529695505050505050565b6000835162002cf5818460208801620029a5565b83519083019062002d0b818360208801620029a5565b01949350505050565b60006020828403121562002d2757600080fd5b5051919050565b8181038181111562000575576200057562002c6e565b60ff8916815263ffffffff88811660208301526001600160a01b03888116604084015287821660608401528616608083015260a0820185905261010060c0830181905260009162002d988483018762002b17565b925080851660e085015250509998505050505050505050565b600181815b8085111562002df257816000190482111562002dd65762002dd662002c6e565b8085161562002de457918102915b93841c939080029062002db6565b509250929050565b60008262002e0b5750600162000575565b8162002e1a5750600062000575565b816001811462002e33576002811462002e3e5762002e5e565b600191505062000575565b60ff84111562002e525762002e5262002c6e565b50506001821b62000575565b5060208310610133831016604e8410600b841016171562002e83575081810a62000575565b62002e8f838362002db1565b806000190482111562002ea65762002ea662002c6e565b029392505050565b600062002611838362002dfa565b634e487b7160e01b600052600160045260246000fd5b6020808252602b908201527f496e697469616c697a61626c653a20636f6e7472616374206973206e6f74206960408201526a6e697469616c697a696e6760a81b606082015260800190565b6000808585111562002f2e57600080fd5b8386111562002f3c57600080fd5b5050820193919092039150565b6001600160e01b0319813581811691600485101562002f725780818660040360031b1b83161692505b505092915050565b600080600080600080600060e0888a03121562002f9657600080fd5b873562002fa381620023b3565b9650602088013562002fb581620023b3565b955060408801359450606088013593506080880135620026958162002618565b600080600080600080600080610100898b03121562002ff357600080fd5b88356200300081620023b3565b975060208901356200301281620023b3565b96506040890135955060608901359450608089013562003032816200241c565b935060a0890135620030448162002618565b979a969950949793969295929450505060c08201359160e0013590565b6000602082840312156200307457600080fd5b8151620026118162002618565b6000602082840312156200309457600080fd5b815162002611816200241c565b600060208284031215620030b457600080fd5b81516001600160401b03811115620030cb57600080fd5b8201601f81018413620030dd57600080fd5b8051620030ee62002a698262002a1c565b8181528560208385010111156200310457600080fd5b62003117826020830160208601620029a5565b95945050505050565b60208152600062002611602083018462002b1756fe6101006040523480156200001257600080fd5b50604051620015643803806200156483398101604081905262000035916200028d565b82826003620000458382620003a1565b506004620000548282620003a1565b50503360c0525060ff811660e052466080819052620000739062000080565b60a052506200046d915050565b60007f8b73c3c69bb8fe3d512ecc4cf759cc79239f7b179b0ffacaa9a75d522b39400f620000ad6200012e565b805160209182012060408051808201825260018152603160f81b90840152805192830193909352918101919091527fc89efdaa54c0f20c7adf612882df0950f5a951637e0307cdcb4c672f298b8bc66060820152608081018390523060a082015260c001604051602081830303815290604052805190602001209050919050565b6060600380546200013f9062000312565b80601f01602080910402602001604051908101604052809291908181526020018280546200016d9062000312565b8015620001be5780601f106200019257610100808354040283529160200191620001be565b820191906000526020600020905b815481529060010190602001808311620001a057829003601f168201915b5050505050905090565b634e487b7160e01b600052604160045260246000fd5b600082601f830112620001f057600080fd5b81516001600160401b03808211156200020d576200020d620001c8565b604051601f8301601f19908116603f01168101908282118183101715620002385762000238620001c8565b816040528381526020925086838588010111156200025557600080fd5b600091505b838210156200027957858201830151818301840152908201906200025a565b600093810190920192909252949350505050565b600080600060608486031215620002a357600080fd5b83516001600160401b0380821115620002bb57600080fd5b620002c987838801620001de565b94506020860151915080821115620002e057600080fd5b50620002ef86828701620001de565b925050604084015160ff811681146200030757600080fd5b809150509250925092565b600181811c908216806200032757607f821691505b6020821081036200034857634e487b7160e01b600052602260045260246000fd5b50919050565b601f8211156200039c57600081815260208120601f850160051c81016020861015620003775750805b601f850160051c820191505b81811015620003985782815560010162000383565b5050505b505050565b81516001600160401b03811115620003bd57620003bd620001c8565b620003d581620003ce845462000312565b846200034e565b602080601f8311600181146200040d5760008415620003f45750858301515b600019600386901b1c1916600185901b17855562000398565b600085815260208120601f198616915b828110156200043e578886015182559484019460019091019084016200041d565b50858210156200045d5787850151600019600388901b60f8161c191681555b5050505050600190811b01905550565b60805160a05160c05160e0516110a8620004bc60003960006101a30152600081816102660152818161048c01526104fa0152600061043d0152600081816102cb015261040701526110a86000f3fe608060405234801561001057600080fd5b50600436106101075760003560e01c806306fdde031461010c578063095ea7b31461012a57806318160ddd1461014d57806320606b701461015f57806323b872dd1461017457806330adf81f14610187578063313ce5671461019c5780633644e515146101cd57806339509351146101d557806340c10f19146101e857806370a08231146101fd5780637ecebe001461022657806395d89b41146102465780639dc29fac1461024e578063a3c573eb14610261578063a457c2d7146102a0578063a9059cbb146102b3578063cd0d0096146102c6578063d505accf146102ed578063dd62ed3e14610300578063ffa1ad7414610313575b600080fd5b610114610333565b6040516101219190610dae565b60405180910390f35b61013d610138366004610e18565b6103c5565b6040519015158152602001610121565b6002545b604051908152602001610121565b61015160008051602061105383398151915281565b61013d610182366004610e42565b6103df565b61015160008051602061103383398151915281565b60405160ff7f0000000000000000000000000000000000000000000000000000000000000000168152602001610121565b610151610403565b61013d6101e3366004610e18565b61045f565b6101fb6101f6366004610e18565b610481565b005b61015161020b366004610e7e565b6001600160a01b031660009081526020819052604090205490565b610151610234366004610e7e565b60056020526000908152604090205481565b6101146104e0565b6101fb61025c366004610e18565b6104ef565b6102887f000000000000000000000000000000000000000000000000000000000000000081565b6040516001600160a01b039091168152602001610121565b61013d6102ae366004610e18565b610541565b61013d6102c1366004610e18565b6105bc565b6101517f000000000000000000000000000000000000000000000000000000000000000081565b6101fb6102fb366004610ea0565b6105ca565b61015161030e366004610f13565b6107f3565b610114604051806040016040528060018152602001603160f81b81525081565b60606003805461034290610f46565b80601f016020809104026020016040519081016040528092919081815260200182805461036e90610f46565b80156103bb5780601f10610390576101008083540402835291602001916103bb565b820191906000526020600020905b81548152906001019060200180831161039e57829003601f168201915b5050505050905090565b6000336103d381858561081e565b60019150505b92915050565b6000336103ed858285610943565b6103f88585856109bd565b506001949350505050565b60007f0000000000000000000000000000000000000000000000000000000000000000461461043a5761043546610b4f565b905090565b507f000000000000000000000000000000000000000000000000000000000000000090565b6000336103d381858561047283836107f3565b61047c9190610f96565b61081e565b336001600160a01b037f000000000000000000000000000000000000000000000000000000000000000016146104d25760405162461bcd60e51b81526004016104c990610fa9565b60405180910390fd5b6104dc8282610be9565b5050565b60606004805461034290610f46565b336001600160a01b037f000000000000000000000000000000000000000000000000000000000000000016146105375760405162461bcd60e51b81526004016104c990610fa9565b6104dc8282610c96565b6000338161054f82866107f3565b9050838110156105af5760405162461bcd60e51b815260206004820152602560248201527f45524332303a2064656372656173656420616c6c6f77616e63652062656c6f77604482015264207a65726f60d81b60648201526084016104c9565b6103f8828686840361081e565b6000336103d38185856109bd565b834211156106265760405162461bcd60e51b8152602060048201526024808201527f546f6b656e577261707065643a3a7065726d69743a20457870697265642070656044820152631c9b5a5d60e21b60648201526084016104c9565b6001600160a01b03871660009081526005602052604081208054600080516020611033833981519152918a918a918a91908661066183610ff9565b909155506040805160208101969096526001600160a01b0394851690860152929091166060840152608083015260a082015260c0810186905260e00160405160208183030381529060405280519060200120905060006106bf610403565b60405161190160f01b602082015260228101919091526042810183905260620160408051601f198184030181528282528051602091820120600080855291840180845281905260ff89169284019290925260608301879052608083018690529092509060019060a0016020604051602081039080840390855afa15801561074a573d6000803e3d6000fd5b5050604051601f1901519150506001600160a01b038116158015906107805750896001600160a01b0316816001600160a01b0316145b6107dc5760405162461bcd60e51b815260206004820152602760248201527f546f6b656e577261707065643a3a7065726d69743a20496e76616c6964207369604482015266676e617475726560c81b60648201526084016104c9565b6107e78a8a8a61081e565b50505050505050505050565b6001600160a01b03918216600090815260016020908152604080832093909416825291909152205490565b6001600160a01b0383166108805760405162461bcd60e51b8152602060048201526024808201527f45524332303a20617070726f76652066726f6d20746865207a65726f206164646044820152637265737360e01b60648201526084016104c9565b6001600160a01b0382166108e15760405162461bcd60e51b815260206004820152602260248201527f45524332303a20617070726f766520746f20746865207a65726f206164647265604482015261737360f01b60648201526084016104c9565b6001600160a01b0383811660008181526001602090815260408083209487168084529482529182902085905590518481527f8c5be1e5ebec7d5bd14f71427d1e84f3dd0314c0f7b2291e5b200ac8c7c3b92591015b60405180910390a3505050565b600061094f84846107f3565b905060001981146109b757818110156109aa5760405162461bcd60e51b815260206004820152601d60248201527f45524332303a20696e73756666696369656e7420616c6c6f77616e636500000060448201526064016104c9565b6109b7848484840361081e565b50505050565b6001600160a01b038316610a215760405162461bcd60e51b815260206004820152602560248201527f45524332303a207472616e736665722066726f6d20746865207a65726f206164604482015264647265737360d81b60648201526084016104c9565b6001600160a01b038216610a835760405162461bcd60e51b815260206004820152602360248201527f45524332303a207472616e7366657220746f20746865207a65726f206164647260448201526265737360e81b60648201526084016104c9565b6001600160a01b03831660009081526020819052604090205481811015610afb5760405162461bcd60e51b815260206004820152602660248201527f45524332303a207472616e7366657220616d6f756e7420657863656564732062604482015265616c616e636560d01b60648201526084016104c9565b6001600160a01b0384811660008181526020818152604080832087870390559387168083529184902080548701905592518581529092600080516020611013833981519152910160405180910390a36109b7565b6000600080516020611053833981519152610b68610333565b805160209182012060408051808201825260018152603160f81b90840152805192830193909352918101919091527fc89efdaa54c0f20c7adf612882df0950f5a951637e0307cdcb4c672f298b8bc66060820152608081018390523060a082015260c001604051602081830303815290604052805190602001209050919050565b6001600160a01b038216610c3f5760405162461bcd60e51b815260206004820152601f60248201527f45524332303a206d696e7420746f20746865207a65726f20616464726573730060448201526064016104c9565b8060026000828254610c519190610f96565b90915550506001600160a01b03821660008181526020818152604080832080548601905551848152600080516020611013833981519152910160405180910390a35050565b6001600160a01b038216610cf65760405162461bcd60e51b815260206004820152602160248201527f45524332303a206275726e2066726f6d20746865207a65726f206164647265736044820152607360f81b60648201526084016104c9565b6001600160a01b03821660009081526020819052604090205481811015610d6a5760405162461bcd60e51b815260206004820152602260248201527f45524332303a206275726e20616d6f756e7420657863656564732062616c616e604482015261636560f01b60648201526084016104c9565b6001600160a01b0383166000818152602081815260408083208686039055600280548790039055518581529192916000805160206110138339815191529101610936565b600060208083528351808285015260005b81811015610ddb57858101830151858201604001528201610dbf565b506000604082860101526040601f19601f8301168501019250505092915050565b80356001600160a01b0381168114610e1357600080fd5b919050565b60008060408385031215610e2b57600080fd5b610e3483610dfc565b946020939093013593505050565b600080600060608486031215610e5757600080fd5b610e6084610dfc565b9250610e6e60208501610dfc565b9150604084013590509250925092565b600060208284031215610e9057600080fd5b610e9982610dfc565b9392505050565b600080600080600080600060e0888a031215610ebb57600080fd5b610ec488610dfc565b9650610ed260208901610dfc565b95506040880135945060608801359350608088013560ff81168114610ef657600080fd5b9699959850939692959460a0840135945060c09093013592915050565b60008060408385031215610f2657600080fd5b610f2f83610dfc565b9150610f3d60208401610dfc565b90509250929050565b600181811c90821680610f5a57607f821691505b602082108103610f7a57634e487b7160e01b600052602260045260246000fd5b50919050565b634e487b7160e01b600052601160045260246000fd5b808201808211156103d9576103d9610f80565b60208082526030908201527f546f6b656e577261707065643a3a6f6e6c794272696467653a204e6f7420506f60408201526f6c79676f6e5a6b45564d42726964676560801b606082015260800190565b60006001820161100b5761100b610f80565b506001019056feddf252ad1be2c89b69c2b068fc378daa952ba7f163c4a11628f55a4df523b3ef6e71edae12b1b97f4d1f60370fef10105fa2faae0126114a169c64845d6126c98b73c3c69bb8fe3d512ecc4cf759cc79239f7b179b0ffacaa9a75d522b39400fa26469706673582212203ea4a1224be7b5ef35dc397dfc81433d85cd6fdbf17d8b2e3d528071e7e612b564736f6c63430008140033501781209a1f8899323b96b4ef08b168df93e0a90c673d1e4cce39366cb62f9b25308c93ceeed162da955b3f7ce3e3f93606579e40fb92029faa9efe27545983a2646970667358221220baee82e4ee7f164b3d1e7f66a5c387364d25480bb9d2b43835d64170d591672664736f6c63430008140033",
  "linkReferences": {},
  "deployedLinkReferences": {}
}