{
  "_format": "hh-sol-artifact-1",
  "contractName": "PolygonZkEVMV2Existent",
  "sourceName": "contracts/v2/consensus/zkEVM/PolygonZkEVMV2Existent.sol",
  "abi": [
    {
      "inputs": [
        {
          "internalType": "contract IPolygonZkEVMGlobalExitRoot",
          "name": "_globalExitRootManager",
          "type": "address"
        },
        {
          "internalType": "contract IERC20Upgradeable",
          "name": "_pol",
          "type": "address"
        },
        {
          "internalType": "contract IPolygonZkEVMBridgeV2",
          "name": "_bridgeAddress",
          "type": "address"
        },
        {
          "internalType": "contract PolygonRollupManager",
          "name": "_rollupManager",
          "type": "address"
        }
      ],
      "stateMutability": "nonpayable",
      "type": "constructor"
    },
    {
      "inputs": [],
      "name": "BatchAlreadyVerified",
      "type": "error"
    },
    {
      "inputs": [],
      "name": "BatchNotSequencedOrNotSequenceEnd",
      "type": "error"
    },
    {
      "inputs": [],
      "name": "ExceedMaxVerifyBatches",
      "type": "error"
    },
    {
      "inputs": [],
      "name": "FinalNumBatchBelowLastVerifiedBatch",
      "type": "error"
    },
    {
      "inputs": [],
      "name": "FinalNumBatchDoesNotMatchPendingState",
      "type": "error"
    },
    {
      "inputs": [],
      "name": "FinalPendingStateNumInvalid",
      "type": "error"
    },
    {
      "inputs": [],
      "name": "ForceBatchNotAllowed",
      "type": "error"
    },
    {
      "inputs": [],
      "name": "ForceBatchTimeoutNotExpired",
      "type": "error"
    },
    {
      "inputs": [],
      "name": "ForceBatchesAlreadyActive",
      "type": "error"
    },
    {
      "inputs": [],
      "name": "ForceBatchesOverflow",
      "type": "error"
    },
    {
      "inputs": [],
      "name": "ForcedDataDoesNotMatch",
      "type": "error"
    },
    {
      "inputs": [],
      "name": "GasTokenNetworkMustBeZeroOnEther",
      "type": "error"
    },
    {
      "inputs": [],
      "name": "GlobalExitRootNotExist",
      "type": "error"
    },
    {
      "inputs": [],
      "name": "HaltTimeoutNotExpired",
      "type": "error"
    },
    {
      "inputs": [],
      "name": "HugeTokenMetadataNotSupported",
      "type": "error"
    },
    {
      "inputs": [],
      "name": "InitNumBatchAboveLastVerifiedBatch",
      "type": "error"
    },
    {
      "inputs": [],
      "name": "InitNumBatchDoesNotMatchPendingState",
      "type": "error"
    },
    {
      "inputs": [],
      "name": "InvalidInitializeTransaction",
      "type": "error"
    },
    {
      "inputs": [],
      "name": "InvalidProof",
      "type": "error"
    },
    {
      "inputs": [],
      "name": "InvalidRangeBatchTimeTarget",
      "type": "error"
    },
    {
      "inputs": [],
      "name": "InvalidRangeForceBatchTimeout",
      "type": "error"
    },
    {
      "inputs": [],
      "name": "InvalidRangeMultiplierBatchFee",
      "type": "error"
    },
    {
      "inputs": [],
      "name": "NewAccInputHashDoesNotExist",
      "type": "error"
    },
    {
      "inputs": [],
      "name": "NewPendingStateTimeoutMustBeLower",
      "type": "error"
    },
    {
      "inputs": [],
      "name": "NewStateRootNotInsidePrime",
      "type": "error"
    },
    {
      "inputs": [],
      "name": "NewTrustedAggregatorTimeoutMustBeLower",
      "type": "error"
    },
    {
      "inputs": [],
      "name": "NotEnoughMaticAmount",
      "type": "error"
    },
    {
      "inputs": [],
      "name": "NotEnoughPOLAmount",
      "type": "error"
    },
    {
      "inputs": [],
      "name": "OldAccInputHashDoesNotExist",
      "type": "error"
    },
    {
      "inputs": [],
      "name": "OldStateRootDoesNotExist",
      "type": "error"
    },
    {
      "inputs": [],
      "name": "OnlyAdmin",
      "type": "error"
    },
    {
      "inputs": [],
      "name": "OnlyPendingAdmin",
      "type": "error"
    },
    {
      "inputs": [],
      "name": "OnlyRollupManager",
      "type": "error"
    },
    {
      "inputs": [],
      "name": "OnlyTrustedAggregator",
      "type": "error"
    },
    {
      "inputs": [],
      "name": "OnlyTrustedSequencer",
      "type": "error"
    },
    {
      "inputs": [],
      "name": "PendingStateDoesNotExist",
      "type": "error"
    },
    {
      "inputs": [],
      "name": "PendingStateInvalid",
      "type": "error"
    },
    {
      "inputs": [],
      "name": "PendingStateNotConsolidable",
      "type": "error"
    },
    {
      "inputs": [],
      "name": "PendingStateTimeoutExceedHaltAggregationTimeout",
      "type": "error"
    },
    {
      "inputs": [],
      "name": "SequenceZeroBatches",
      "type": "error"
    },
    {
      "inputs": [],
      "name": "SequencedTimestampBelowForcedTimestamp",
      "type": "error"
    },
    {
      "inputs": [],
      "name": "SequencedTimestampInvalid",
      "type": "error"
    },
    {
      "inputs": [],
      "name": "StoredRootMustBeDifferentThanNewRoot",
      "type": "error"
    },
    {
      "inputs": [],
      "name": "TransactionsLengthAboveMax",
      "type": "error"
    },
    {
      "inputs": [],
      "name": "TrustedAggregatorTimeoutExceedHaltAggregationTimeout",
      "type": "error"
    },
    {
      "inputs": [],
      "name": "TrustedAggregatorTimeoutNotExpired",
      "type": "error"
    },
    {
      "anonymous": false,
      "inputs": [
        {
          "indexed": false,
          "internalType": "address",
          "name": "newAdmin",
          "type": "address"
        }
      ],
      "name": "AcceptAdminRole",
      "type": "event"
    },
    {
      "anonymous": false,
      "inputs": [],
      "name": "ActivateForceBatches",
      "type": "event"
    },
    {
      "anonymous": false,
      "inputs": [
        {
          "indexed": true,
          "internalType": "uint64",
          "name": "forceBatchNum",
          "type": "uint64"
        },
        {
          "indexed": false,
          "internalType": "bytes32",
          "name": "lastGlobalExitRoot",
          "type": "bytes32"
        },
        {
          "indexed": false,
          "internalType": "address",
          "name": "sequencer",
          "type": "address"
        },
        {
          "indexed": false,
          "internalType": "bytes",
          "name": "transactions",
          "type": "bytes"
        }
      ],
      "name": "ForceBatch",
      "type": "event"
    },
    {
      "anonymous": false,
      "inputs": [
        {
          "indexed": false,
          "internalType": "bytes",
          "name": "transactions",
          "type": "bytes"
        },
        {
          "indexed": false,
          "internalType": "bytes32",
          "name": "lastGlobalExitRoot",
          "type": "bytes32"
        },
        {
          "indexed": false,
          "internalType": "address",
          "name": "sequencer",
          "type": "address"
        }
      ],
      "name": "InitialSequenceBatches",
      "type": "event"
    },
    {
      "anonymous": false,
      "inputs": [
        {
          "indexed": false,
          "internalType": "uint8",
          "name": "version",
          "type": "uint8"
        }
      ],
      "name": "Initialized",
      "type": "event"
    },
    {
      "anonymous": false,
      "inputs": [
        {
          "indexed": true,
          "internalType": "uint64",
          "name": "numBatch",
          "type": "uint64"
        }
      ],
      "name": "SequenceBatches",
      "type": "event"
    },
    {
      "anonymous": false,
      "inputs": [
        {
          "indexed": true,
          "internalType": "uint64",
          "name": "numBatch",
          "type": "uint64"
        }
      ],
      "name": "SequenceForceBatches",
      "type": "event"
    },
    {
      "anonymous": false,
      "inputs": [
        {
          "indexed": false,
          "internalType": "uint64",
          "name": "newforceBatchTimeout",
          "type": "uint64"
        }
      ],
      "name": "SetForceBatchTimeout",
      "type": "event"
    },
    {
      "anonymous": false,
      "inputs": [
        {
          "indexed": false,
          "internalType": "address",
          "name": "newTrustedSequencer",
          "type": "address"
        }
      ],
      "name": "SetTrustedSequencer",
      "type": "event"
    },
    {
      "anonymous": false,
      "inputs": [
        {
          "indexed": false,
          "internalType": "string",
          "name": "newTrustedSequencerURL",
          "type": "string"
        }
      ],
      "name": "SetTrustedSequencerURL",
      "type": "event"
    },
    {
      "anonymous": false,
      "inputs": [
        {
          "indexed": false,
          "internalType": "address",
          "name": "newPendingAdmin",
          "type": "address"
        }
      ],
      "name": "TransferAdminRole",
      "type": "event"
    },
    {
      "anonymous": false,
      "inputs": [
        {
          "indexed": true,
          "internalType": "uint64",
          "name": "numBatch",
          "type": "uint64"
        },
        {
          "indexed": false,
          "internalType": "bytes32",
          "name": "stateRoot",
          "type": "bytes32"
        },
        {
          "indexed": true,
          "internalType": "address",
          "name": "aggregator",
          "type": "address"
        }
      ],
      "name": "VerifyBatches",
      "type": "event"
    },
    {
      "inputs": [],
      "name": "GLOBAL_EXIT_ROOT_MANAGER_L2",
      "outputs": [
        {
          "internalType": "contract IBasePolygonZkEVMGlobalExitRoot",
          "name": "",
          "type": "address"
        }
      ],
      "stateMutability": "view",
      "type": "function"
    },
    {
      "inputs": [],
      "name": "INITIALIZE_TX_BRIDGE_LIST_LEN_LEN",
      "outputs": [
        {
          "internalType": "uint8",
          "name": "",
          "type": "uint8"
        }
      ],
      "stateMutability": "view",
      "type": "function"
    },
    {
      "inputs": [],
      "name": "INITIALIZE_TX_BRIDGE_PARAMS",
      "outputs": [
        {
          "internalType": "bytes",
          "name": "",
          "type": "bytes"
        }
      ],
      "stateMutability": "view",
      "type": "function"
    },
    {
      "inputs": [],
      "name": "INITIALIZE_TX_BRIDGE_PARAMS_AFTER_BRIDGE_ADDRESS",
      "outputs": [
        {
          "internalType": "bytes",
          "name": "",
          "type": "bytes"
        }
      ],
      "stateMutability": "view",
      "type": "function"
    },
    {
      "inputs": [],
      "name": "INITIALIZE_TX_BRIDGE_PARAMS_AFTER_BRIDGE_ADDRESS_EMPTY_METADATA",
      "outputs": [
        {
          "internalType": "bytes",
          "name": "",
          "type": "bytes"
        }
      ],
      "stateMutability": "view",
      "type": "function"
    },
    {
      "inputs": [],
      "name": "INITIALIZE_TX_CONSTANT_BYTES",
      "outputs": [
        {
          "internalType": "uint16",
          "name": "",
          "type": "uint16"
        }
      ],
      "stateMutability": "view",
      "type": "function"
    },
    {
      "inputs": [],
      "name": "INITIALIZE_TX_CONSTANT_BYTES_EMPTY_METADATA",
      "outputs": [
        {
          "internalType": "uint16",
          "name": "",
          "type": "uint16"
        }
      ],
      "stateMutability": "view",
      "type": "function"
    },
    {
      "inputs": [],
      "name": "INITIALIZE_TX_DATA_LEN_EMPTY_METADATA",
      "outputs": [
        {
          "internalType": "uint8",
          "name": "",
          "type": "uint8"
        }
      ],
      "stateMutability": "view",
      "type": "function"
    },
    {
      "inputs": [],
      "name": "INITIALIZE_TX_EFFECTIVE_PERCENTAGE",
      "outputs": [
        {
          "internalType": "bytes1",
          "name": "",
          "type": "bytes1"
        }
      ],
      "stateMutability": "view",
      "type": "function"
    },
    {
      "inputs": [],
      "name": "SIGNATURE_INITIALIZE_TX_R",
      "outputs": [
        {
          "internalType": "bytes32",
          "name": "",
          "type": "bytes32"
        }
      ],
      "stateMutability": "view",
      "type": "function"
    },
    {
      "inputs": [],
      "name": "SIGNATURE_INITIALIZE_TX_S",
      "outputs": [
        {
          "internalType": "bytes32",
          "name": "",
          "type": "bytes32"
        }
      ],
      "stateMutability": "view",
      "type": "function"
    },
    {
      "inputs": [],
      "name": "SIGNATURE_INITIALIZE_TX_V",
      "outputs": [
        {
          "internalType": "uint8",
          "name": "",
          "type": "uint8"
        }
      ],
      "stateMutability": "view",
      "type": "function"
    },
    {
      "inputs": [],
      "name": "acceptAdminRole",
      "outputs": [],
      "stateMutability": "nonpayable",
      "type": "function"
    },
    {
      "inputs": [],
      "name": "activateForceBatches",
      "outputs": [],
      "stateMutability": "nonpayable",
      "type": "function"
    },
    {
      "inputs": [],
      "name": "admin",
      "outputs": [
        {
          "internalType": "address",
          "name": "",
          "type": "address"
        }
      ],
      "stateMutability": "view",
      "type": "function"
    },
    {
      "inputs": [],
      "name": "bridgeAddress",
      "outputs": [
        {
          "internalType": "contract IPolygonZkEVMBridgeV2",
          "name": "",
          "type": "address"
        }
      ],
      "stateMutability": "view",
      "type": "function"
    },
    {
      "inputs": [],
      "name": "calculatePolPerForceBatch",
      "outputs": [
        {
          "internalType": "uint256",
          "name": "",
          "type": "uint256"
        }
      ],
      "stateMutability": "view",
      "type": "function"
    },
    {
      "inputs": [
        {
          "internalType": "bytes",
          "name": "transactions",
          "type": "bytes"
        },
        {
          "internalType": "uint256",
          "name": "polAmount",
          "type": "uint256"
        }
      ],
      "name": "forceBatch",
      "outputs": [],
      "stateMutability": "nonpayable",
      "type": "function"
    },
    {
      "inputs": [],
      "name": "forceBatchTimeout",
      "outputs": [
        {
          "internalType": "uint64",
          "name": "",
          "type": "uint64"
        }
      ],
      "stateMutability": "view",
      "type": "function"
    },
    {
      "inputs": [
        {
          "internalType": "uint64",
          "name": "",
          "type": "uint64"
        }
      ],
      "name": "forcedBatches",
      "outputs": [
        {
          "internalType": "bytes32",
          "name": "",
          "type": "bytes32"
        }
      ],
      "stateMutability": "view",
      "type": "function"
    },
    {
      "inputs": [],
      "name": "gasTokenAddress",
      "outputs": [
        {
          "internalType": "address",
          "name": "",
          "type": "address"
        }
      ],
      "stateMutability": "view",
      "type": "function"
    },
    {
      "inputs": [],
      "name": "gasTokenNetwork",
      "outputs": [
        {
          "internalType": "uint32",
          "name": "",
          "type": "uint32"
        }
      ],
      "stateMutability": "view",
      "type": "function"
    },
    {
      "inputs": [
        {
          "internalType": "uint32",
          "name": "networkID",
          "type": "uint32"
        },
        {
          "internalType": "address",
          "name": "_gasTokenAddress",
          "type": "address"
        },
        {
          "internalType": "uint32",
          "name": "_gasTokenNetwork",
          "type": "uint32"
        },
        {
          "internalType": "bytes",
          "name": "_gasTokenMetadata",
          "type": "bytes"
        }
      ],
      "name": "generateInitializeTransaction",
      "outputs": [
        {
          "internalType": "bytes",
          "name": "",
          "type": "bytes"
        }
      ],
      "stateMutability": "view",
      "type": "function"
    },
    {
      "inputs": [],
      "name": "globalExitRootManager",
      "outputs": [
        {
          "internalType": "contract IPolygonZkEVMGlobalExitRoot",
          "name": "",
          "type": "address"
        }
      ],
      "stateMutability": "view",
      "type": "function"
    },
    {
      "inputs": [
        {
          "internalType": "address",
          "name": "_admin",
          "type": "address"
        },
        {
          "internalType": "address",
          "name": "sequencer",
          "type": "address"
        },
        {
          "internalType": "uint32",
          "name": "networkID",
          "type": "uint32"
        },
        {
          "internalType": "address",
          "name": "_gasTokenAddress",
          "type": "address"
        },
        {
          "internalType": "string",
          "name": "sequencerURL",
          "type": "string"
        },
        {
          "internalType": "string",
          "name": "_networkName",
          "type": "string"
        }
      ],
      "name": "initialize",
      "outputs": [],
      "stateMutability": "nonpayable",
      "type": "function"
    },
    {
      "inputs": [
        {
          "internalType": "address",
          "name": "_admin",
          "type": "address"
        },
        {
          "internalType": "address",
          "name": "_trustedSequencer",
          "type": "address"
        },
        {
          "internalType": "string",
          "name": "_trustedSequencerURL",
          "type": "string"
        },
        {
          "internalType": "string",
          "name": "_networkName",
          "type": "string"
        },
        {
          "internalType": "bytes32",
          "name": "_lastAccInputHash",
          "type": "bytes32"
        },
        {
          "internalType": "uint64",
          "name": "_lastTimestamp",
          "type": "uint64"
        }
      ],
      "name": "initializeUpgrade",
      "outputs": [],
      "stateMutability": "nonpayable",
      "type": "function"
    },
    {
      "inputs": [],
      "name": "isForcedBatchAllowed",
      "outputs": [
        {
          "internalType": "bool",
          "name": "",
          "type": "bool"
        }
      ],
      "stateMutability": "view",
      "type": "function"
    },
    {
      "inputs": [],
      "name": "lastAccInputHash",
      "outputs": [
        {
          "internalType": "bytes32",
          "name": "",
          "type": "bytes32"
        }
      ],
      "stateMutability": "view",
      "type": "function"
    },
    {
      "inputs": [],
      "name": "lastForceBatch",
      "outputs": [
        {
          "internalType": "uint64",
          "name": "",
          "type": "uint64"
        }
      ],
      "stateMutability": "view",
      "type": "function"
    },
    {
      "inputs": [],
      "name": "lastForceBatchSequenced",
      "outputs": [
        {
          "internalType": "uint64",
          "name": "",
          "type": "uint64"
        }
      ],
      "stateMutability": "view",
      "type": "function"
    },
    {
      "inputs": [],
      "name": "lastTimestamp",
      "outputs": [
        {
          "internalType": "uint64",
          "name": "",
          "type": "uint64"
        }
      ],
      "stateMutability": "view",
      "type": "function"
    },
    {
      "inputs": [],
      "name": "networkName",
      "outputs": [
        {
          "internalType": "string",
          "name": "",
          "type": "string"
        }
      ],
      "stateMutability": "view",
      "type": "function"
    },
    {
      "inputs": [
        {
          "internalType": "uint64",
          "name": "lastVerifiedBatch",
          "type": "uint64"
        },
        {
          "internalType": "bytes32",
          "name": "newStateRoot",
          "type": "bytes32"
        },
        {
          "internalType": "address",
          "name": "aggregator",
          "type": "address"
        }
      ],
      "name": "onVerifyBatches",
      "outputs": [],
      "stateMutability": "nonpayable",
      "type": "function"
    },
    {
      "inputs": [],
      "name": "pendingAdmin",
      "outputs": [
        {
          "internalType": "address",
          "name": "",
          "type": "address"
        }
      ],
      "stateMutability": "view",
      "type": "function"
    },
    {
      "inputs": [],
      "name": "pol",
      "outputs": [
        {
          "internalType": "contract IERC20Upgradeable",
          "name": "",
          "type": "address"
        }
      ],
      "stateMutability": "view",
      "type": "function"
    },
    {
      "inputs": [],
      "name": "rollupManager",
      "outputs": [
        {
          "internalType": "contract PolygonRollupManager",
          "name": "",
          "type": "address"
        }
      ],
      "stateMutability": "view",
      "type": "function"
    },
    {
      "inputs": [
        {
          "components": [
            {
              "internalType": "bytes",
              "name": "transactions",
              "type": "bytes"
            },
            {
              "internalType": "bytes32",
              "name": "globalExitRoot",
              "type": "bytes32"
            },
            {
              "internalType": "uint64",
              "name": "timestamp",
              "type": "uint64"
            },
            {
              "internalType": "uint64",
              "name": "minForcedTimestamp",
              "type": "uint64"
            }
          ],
          "internalType": "struct PolygonRollupBase.BatchData[]",
          "name": "batches",
          "type": "tuple[]"
        },
        {
          "internalType": "address",
          "name": "l2Coinbase",
          "type": "address"
        }
      ],
      "name": "sequenceBatches",
      "outputs": [],
      "stateMutability": "nonpayable",
      "type": "function"
    },
    {
      "inputs": [
        {
          "components": [
            {
              "internalType": "bytes",
              "name": "transactions",
              "type": "bytes"
            },
            {
              "internalType": "bytes32",
              "name": "globalExitRoot",
              "type": "bytes32"
            },
            {
              "internalType": "uint64",
              "name": "minForcedTimestamp",
              "type": "uint64"
            }
          ],
          "internalType": "struct PolygonRollupBase.ForcedBatchData[]",
          "name": "batches",
          "type": "tuple[]"
        }
      ],
      "name": "sequenceForceBatches",
      "outputs": [],
      "stateMutability": "nonpayable",
      "type": "function"
    },
    {
      "inputs": [
        {
          "internalType": "uint64",
          "name": "newforceBatchTimeout",
          "type": "uint64"
        }
      ],
      "name": "setForceBatchTimeout",
      "outputs": [],
      "stateMutability": "nonpayable",
      "type": "function"
    },
    {
      "inputs": [
        {
          "internalType": "address",
          "name": "newTrustedSequencer",
          "type": "address"
        }
      ],
      "name": "setTrustedSequencer",
      "outputs": [],
      "stateMutability": "nonpayable",
      "type": "function"
    },
    {
      "inputs": [
        {
          "internalType": "string",
          "name": "newTrustedSequencerURL",
          "type": "string"
        }
      ],
      "name": "setTrustedSequencerURL",
      "outputs": [],
      "stateMutability": "nonpayable",
      "type": "function"
    },
    {
      "inputs": [
        {
          "internalType": "address",
          "name": "newPendingAdmin",
          "type": "address"
        }
      ],
      "name": "transferAdminRole",
      "outputs": [],
      "stateMutability": "nonpayable",
      "type": "function"
    },
    {
      "inputs": [],
      "name": "trustedSequencer",
      "outputs": [
        {
          "internalType": "address",
          "name": "",
          "type": "address"
        }
      ],
      "stateMutability": "view",
      "type": "function"
    },
    {
      "inputs": [],
      "name": "trustedSequencerURL",
      "outputs": [
        {
          "internalType": "string",
          "name": "",
          "type": "string"
        }
      ],
      "stateMutability": "view",
      "type": "function"
    }
  ],
  "bytecode": "0x6101006040523480156200001257600080fd5b5060405162004b1d38038062004b1d833981016040819052620000359162000071565b6001600160a01b0393841660a052918316608052821660c0521660e052620000d9565b6001600160a01b03811681146200006e57600080fd5b50565b600080600080608085870312156200008857600080fd5b8451620000958162000058565b6020860151909450620000a88162000058565b6040860151909350620000bb8162000058565b6060860151909250620000ce8162000058565b939692955090935050565b60805160a05160c05160e051614969620001b460003960008181610525015281816109c301528181610b30015281816112870152818161135001528181611372015281816115090152818161178601528181611d3f015281816124bf01528181612be401528181612cb20152612d9f0152600081816106740152818161144a015281816119e00152818161210f015261221701526000818161074b01528181610faa01528181611b950152612eea0152600081816107900152818161085b015281816112da015281816114200152612ebe01526149696000f3fe608060405234801561001057600080fd5b50600436106102f35760003560e01c80636ff512cc11610191578063c7fffd4b116100e3578063d8d1091b11610097578063eaeb077b11610071578063eaeb077b146107d2578063f35dda47146107e5578063f851a440146107ed57600080fd5b8063d8d1091b14610778578063e46761c41461078b578063e7a7ed02146107b257600080fd5b8063cfa8ed47116100c8578063cfa8ed4714610726578063d02103ca14610746578063d7bc90ff1461076d57600080fd5b8063c7fffd4b1461070b578063c89e42df1461071357600080fd5b8063a3c573eb11610145578063b0afe1541161011f578063b0afe154146106bc578063bb590708146106c8578063c754c7ed146106db57600080fd5b8063a3c573eb1461066f578063a652f26c14610696578063ada8f919146106a957600080fd5b80637a5460c5116101765780637a5460c5146106105780638c3d73011461064c5780639e0018771461065457600080fd5b80636ff512cc146105ea57806371257022146105fd57600080fd5b806340b5de6c1161024a578063542028d5116101fe578063676870d2116101d8578063676870d2146105b95780636b8616ce146105c15780636e05d2cd146105e157600080fd5b8063542028d5146105965780635e9145c91461059e5780635ec91958146105b157600080fd5b806349b7b8021161022f57806349b7b802146105205780634e4877061461054757806352bdeb6d1461055a57600080fd5b806340b5de6c146104a057806345605267146104f857600080fd5b806319d8ac61116102ac57806332c2d1531161028657806332c2d153146104285780633c351e101461043d5780633cbc795b1461046257600080fd5b806319d8ac611461039957806326782247146103c65780632b35b3ac1461040b57600080fd5b806305835f37116102dd57806305835f371461032e578063107bf28c1461037757806311e892d41461037f57600080fd5b8062d0295d146102f85780630350896314610313575b600080fd5b610300610813565b6040519081526020015b60405180910390f35b61031b602081565b60405161ffff909116815260200161030a565b61036a6040518060400160405280600881526020017f80808401c9c3809400000000000000000000000000000000000000000000000081525081565b60405161030a9190613a56565b61036a610933565b61038760f981565b60405160ff909116815260200161030a565b6007546103ad9067ffffffffffffffff1681565b60405167ffffffffffffffff909116815260200161030a565b6001546103e69073ffffffffffffffffffffffffffffffffffffffff1681565b60405173ffffffffffffffffffffffffffffffffffffffff909116815260200161030a565b6008546104189060ff1681565b604051901515815260200161030a565b61043b610436366004613aab565b6109c1565b005b6008546103e690610100900473ffffffffffffffffffffffffffffffffffffffff1681565b60085461048b907501000000000000000000000000000000000000000000900463ffffffff1681565b60405163ffffffff909116815260200161030a565b6104c77fff0000000000000000000000000000000000000000000000000000000000000081565b6040517fff00000000000000000000000000000000000000000000000000000000000000909116815260200161030a565b6007546103ad90700100000000000000000000000000000000900467ffffffffffffffff1681565b6103e67f000000000000000000000000000000000000000000000000000000000000000081565b61043b610555366004613aed565b610a90565b61036a6040518060400160405280600281526020017f80b800000000000000000000000000000000000000000000000000000000000081525081565b61036a610caa565b61043b6105ac366004613b56565b610cb7565b61043b6115d0565b61031b601f81565b6103006105cf366004613aed565b60066020526000908152604090205481565b61030060055481565b61043b6105f8366004613ba2565b6116ba565b61043b61060b366004613ceb565b611784565b61036a6040518060400160405280600281526020017f80b900000000000000000000000000000000000000000000000000000000000081525081565b61043b611f3b565b6103e673a40d5f56745a118d0906a34e69aec8c0db1cb8fa81565b6103e67f000000000000000000000000000000000000000000000000000000000000000081565b61036a6106a4366004613d98565b61200e565b61043b6106b7366004613ba2565b6123f3565b6103006405ca1ab1e081565b61043b6106d6366004613e0d565b6124bd565b6007546103ad907801000000000000000000000000000000000000000000000000900467ffffffffffffffff1681565b61038760e481565b61043b610721366004613eb3565b612795565b6002546103e69073ffffffffffffffffffffffffffffffffffffffff1681565b6103e67f000000000000000000000000000000000000000000000000000000000000000081565b610300635ca1ab1e81565b61043b610786366004613ee8565b612828565b6103e67f000000000000000000000000000000000000000000000000000000000000000081565b6007546103ad9068010000000000000000900467ffffffffffffffff1681565b61043b6107e0366004613f2a565b612d5f565b610387601b81565b6000546103e69062010000900473ffffffffffffffffffffffffffffffffffffffff1681565b6040517f70a08231000000000000000000000000000000000000000000000000000000008152306004820152600090819073ffffffffffffffffffffffffffffffffffffffff7f000000000000000000000000000000000000000000000000000000000000000016906370a0823190602401602060405180830381865afa1580156108a2573d6000803e3d6000fd5b505050506040513d601f19601f820116820180604052508101906108c69190613fa2565b6007549091506000906109059067ffffffffffffffff700100000000000000000000000000000000820481169168010000000000000000900416613fea565b67ffffffffffffffff169050806000036109225760009250505090565b61092c8183614012565b9250505090565b600480546109409061404d565b80601f016020809104026020016040519081016040528092919081815260200182805461096c9061404d565b80156109b95780601f1061098e576101008083540402835291602001916109b9565b820191906000526020600020905b81548152906001019060200180831161099c57829003601f168201915b505050505081565b7f000000000000000000000000000000000000000000000000000000000000000073ffffffffffffffffffffffffffffffffffffffff163314610a30576040517fb9b3a2c800000000000000000000000000000000000000000000000000000000815260040160405180910390fd5b8073ffffffffffffffffffffffffffffffffffffffff168367ffffffffffffffff167f9c72852172521097ba7e1482e6b44b351323df0155f97f4ea18fcec28e1f596684604051610a8391815260200190565b60405180910390a3505050565b60005462010000900473ffffffffffffffffffffffffffffffffffffffff163314610ae7576040517f4755657900000000000000000000000000000000000000000000000000000000815260040160405180910390fd5b62093a8067ffffffffffffffff82161115610b2e576040517ff5e37f2f00000000000000000000000000000000000000000000000000000000815260040160405180910390fd5b7f000000000000000000000000000000000000000000000000000000000000000073ffffffffffffffffffffffffffffffffffffffff166315064c966040518163ffffffff1660e01b8152600401602060405180830381865afa158015610b99573d6000803e3d6000fd5b505050506040513d601f19601f82011682018060405250810190610bbd91906140a0565b610c265760075467ffffffffffffffff7801000000000000000000000000000000000000000000000000909104811690821610610c26576040517ff5e37f2f00000000000000000000000000000000000000000000000000000000815260040160405180910390fd5b6007805477ffffffffffffffffffffffffffffffffffffffffffffffff16780100000000000000000000000000000000000000000000000067ffffffffffffffff8416908102919091179091556040519081527fa7eb6cb8a613eb4e8bddc1ac3d61ec6cf10898760f0b187bcca794c6ca6fa40b906020015b60405180910390a150565b600380546109409061404d565b60025473ffffffffffffffffffffffffffffffffffffffff163314610d08576040517f11e7be1500000000000000000000000000000000000000000000000000000000815260040160405180910390fd5b816000819003610d44576040517fcb591a5f00000000000000000000000000000000000000000000000000000000815260040160405180910390fd5b6103e8811115610d80576040517fb59f753a00000000000000000000000000000000000000000000000000000000815260040160405180910390fd5b60075460055467ffffffffffffffff80831692700100000000000000000000000000000000900416908160005b858110156111bc576000898983818110610dc957610dc96140c2565b9050602002810190610ddb91906140f1565b610de49061412f565b8051805160209091012060608201519192509067ffffffffffffffff1615610f675785610e10816141c0565b96505060008183602001518460600151604051602001610e6893929190928352602083019190915260c01b7fffffffffffffffff00000000000000000000000000000000000000000000000016604082015260480190565b604080517fffffffffffffffffffffffffffffffffffffffffffffffffffffffffffffffe0818403018152918152815160209283012067ffffffffffffffff8a16600090815260069093529120549091508114610ef1576040517fce3d755e00000000000000000000000000000000000000000000000000000000815260040160405180910390fd5b826060015167ffffffffffffffff16836040015167ffffffffffffffff161015610f47576040517f7f7ab87200000000000000000000000000000000000000000000000000000000815260040160405180910390fd5b5067ffffffffffffffff86166000908152600660205260408120556110a4565b60208201511580159061102e575060208201516040517f257b363200000000000000000000000000000000000000000000000000000000815260048101919091527f000000000000000000000000000000000000000000000000000000000000000073ffffffffffffffffffffffffffffffffffffffff169063257b3632906024016020604051808303816000875af1158015611008573d6000803e3d6000fd5b505050506040513d601f19601f8201168201806040525081019061102c9190613fa2565b155b15611065576040517f73bd668d00000000000000000000000000000000000000000000000000000000815260040160405180910390fd5b8151516201d4c010156110a4576040517fa29a6c7c00000000000000000000000000000000000000000000000000000000815260040160405180910390fd5b8667ffffffffffffffff16826040015167ffffffffffffffff1610806110d7575042826040015167ffffffffffffffff16115b1561110e576040517fea82791600000000000000000000000000000000000000000000000000000000815260040160405180910390fd5b602082810151604080850151815193840189905290830184905260608084019290925260c01b7fffffffffffffffff0000000000000000000000000000000000000000000000001660808301528a901b7fffffffffffffffffffffffffffffffffffffffff000000000000000000000000166088820152609c0160405160208183030381529060405280519060200120945081604001519650505080806111b4906141e7565b915050610dad565b5060075467ffffffffffffffff6801000000000000000090910481169084161115611213576040517fc630a00d00000000000000000000000000000000000000000000000000000000815260040160405180910390fd5b600780547fffffffffffffffffffffffffffffffffffffffffffffffff00000000000000001667ffffffffffffffff86811691909117909155600583905585908281169085161461134a57600061126a8386613fea565b905061128067ffffffffffffffff82168361421f565b91506113017f00000000000000000000000000000000000000000000000000000000000000008267ffffffffffffffff166112b9610813565b6112c39190614232565b73ffffffffffffffffffffffffffffffffffffffff7f000000000000000000000000000000000000000000000000000000000000000016919061314e565b50600780547fffffffffffffffff0000000000000000ffffffffffffffffffffffffffffffff1670010000000000000000000000000000000067ffffffffffffffff8716021790555b611448337f0000000000000000000000000000000000000000000000000000000000000000837f000000000000000000000000000000000000000000000000000000000000000073ffffffffffffffffffffffffffffffffffffffff1663477fa2706040518163ffffffff1660e01b8152600401602060405180830381865afa1580156113db573d6000803e3d6000fd5b505050506040513d601f19601f820116820180604052508101906113ff9190613fa2565b6114099190614232565b73ffffffffffffffffffffffffffffffffffffffff7f000000000000000000000000000000000000000000000000000000000000000016929190613227565b7f000000000000000000000000000000000000000000000000000000000000000073ffffffffffffffffffffffffffffffffffffffff166379e2cf976040518163ffffffff1660e01b8152600401600060405180830381600087803b1580156114b057600080fd5b505af11580156114c4573d6000803e3d6000fd5b50506040517f9a908e7300000000000000000000000000000000000000000000000000000000815267ffffffffffffffff8916600482015260248101869052600092507f000000000000000000000000000000000000000000000000000000000000000073ffffffffffffffffffffffffffffffffffffffff169150639a908e73906044016020604051808303816000875af1158015611568573d6000803e3d6000fd5b505050506040513d601f19601f8201168201806040525081019061158c9190614249565b60405190915067ffffffffffffffff8216907f303446e6a8cb73c83dff421c0b1d5e5ce0719dab1bff13660fc254e58cc17fce90600090a250505050505050505050565b60005462010000900473ffffffffffffffffffffffffffffffffffffffff163314611627576040517f4755657900000000000000000000000000000000000000000000000000000000815260040160405180910390fd5b60085460ff1615611664576040517ff6ba91a100000000000000000000000000000000000000000000000000000000815260040160405180910390fd5b600880547fffffffffffffffffffffffffffffffffffffffffffffffffffffffffffffff001660011790556040517f854dd6ce5a1445c4c54388b21cffd11cf5bba1b9e763aec48ce3da75d617412f90600090a1565b60005462010000900473ffffffffffffffffffffffffffffffffffffffff163314611711576040517f4755657900000000000000000000000000000000000000000000000000000000815260040160405180910390fd5b600280547fffffffffffffffffffffffff00000000000000000000000000000000000000001673ffffffffffffffffffffffffffffffffffffffff83169081179091556040519081527ff54144f9611984021529f814a1cb6a41e22c58351510a0d9f7e822618abb9cc090602001610c9f565b7f000000000000000000000000000000000000000000000000000000000000000073ffffffffffffffffffffffffffffffffffffffff1633146117f3576040517fb9b3a2c800000000000000000000000000000000000000000000000000000000815260040160405180910390fd5b600054610100900460ff16158080156118135750600054600160ff909116105b8061182d5750303b15801561182d575060005460ff166001145b6118be576040517f08c379a000000000000000000000000000000000000000000000000000000000815260206004820152602e60248201527f496e697469616c697a61626c653a20636f6e747261637420697320616c72656160448201527f647920696e697469616c697a656400000000000000000000000000000000000060648201526084015b60405180910390fd5b600080547fffffffffffffffffffffffffffffffffffffffffffffffffffffffffffffff00166001179055801561191c57600080547fffffffffffffffffffffffffffffffffffffffffffffffffffffffffffff00ff166101001790555b606073ffffffffffffffffffffffffffffffffffffffff851615611b31576119438561328b565b61194c8661339b565b611955876134a2565b60405160200161196793929190614266565b604080517fffffffffffffffffffffffffffffffffffffffffffffffffffffffffffffffe0818403018152908290527f318aee3d00000000000000000000000000000000000000000000000000000000825273ffffffffffffffffffffffffffffffffffffffff878116600484015290925060009182917f0000000000000000000000000000000000000000000000000000000000000000169063318aee3d9060240160408051808303816000875af1158015611a28573d6000803e3d6000fd5b505050506040513d601f19601f82011682018060405250810190611a4c919061429f565b915091508163ffffffff16600014611ae957600880547fffffffffffffff000000000000000000000000000000000000000000000000ff1661010073ffffffffffffffffffffffffffffffffffffffff8416027fffffffffffffff00000000ffffffffffffffffffffffffffffffffffffffffff1617750100000000000000000000000000000000000000000063ffffffff851602179055611b2e565b600880547fffffffffffffffffffffff0000000000000000000000000000000000000000ff1661010073ffffffffffffffffffffffffffffffffffffffff8a16021790555b50505b600854600090611b7e908890610100810473ffffffffffffffffffffffffffffffffffffffff16907501000000000000000000000000000000000000000000900463ffffffff168561200e565b9050600081805190602001209050600042905060007f000000000000000000000000000000000000000000000000000000000000000073ffffffffffffffffffffffffffffffffffffffff16633ed691ef6040518163ffffffff1660e01b8152600401602060405180830381865afa158015611bfe573d6000803e3d6000fd5b505050506040513d601f19601f82011682018060405250810190611c229190613fa2565b60408051600060208201819052918101869052606080820184905260c086901b7fffffffffffffffff0000000000000000000000000000000000000000000000001660808301528e901b7fffffffffffffffffffffffffffffffffffffffff00000000000000000000000016608882015291925090609c01604080518083037fffffffffffffffffffffffffffffffffffffffffffffffffffffffffffffffe0018152908290528051602090910120600780547fffffffffffffffffffffffffffffffffffffffffffffffff00000000000000001667ffffffffffffffff871617905560058190557f9a908e73000000000000000000000000000000000000000000000000000000008252600160048301526024820181905291507f000000000000000000000000000000000000000000000000000000000000000073ffffffffffffffffffffffffffffffffffffffff1690639a908e73906044016020604051808303816000875af1158015611d9d573d6000803e3d6000fd5b505050506040513d601f19601f82011682018060405250810190611dc19190614249565b508c600060026101000a81548173ffffffffffffffffffffffffffffffffffffffff021916908373ffffffffffffffffffffffffffffffffffffffff1602179055508b600260006101000a81548173ffffffffffffffffffffffffffffffffffffffff021916908373ffffffffffffffffffffffffffffffffffffffff1602179055508860039081611e539190614327565b506004611e608982614327565b5062069780600760186101000a81548167ffffffffffffffff021916908367ffffffffffffffff1602179055507f060116213bcbf54ca19fd649dc84b59ab2bbd200ab199770e4d923e222a28e7f85838e604051611ec093929190614441565b60405180910390a15050505050508015611f3257600080547fffffffffffffffffffffffffffffffffffffffffffffffffffffffffffff00ff169055604051600181527f7f26b83ff96e1f2b6a682f133852f6798a09c465da95921460cefb3847402498906020015b60405180910390a15b50505050505050565b60015473ffffffffffffffffffffffffffffffffffffffff163314611f8c576040517fd1ec4b2300000000000000000000000000000000000000000000000000000000815260040160405180910390fd5b600154600080547fffffffffffffffffffff0000000000000000000000000000000000000000ffff1673ffffffffffffffffffffffffffffffffffffffff9092166201000081029290921790556040519081527f056dc487bbf0795d0bbb1b4f0af523a855503cff740bfb4d5475f7a90c091e8e9060200160405180910390a1565b6060600085858573a40d5f56745a118d0906a34e69aec8c0db1cb8fa60008760405160240161204296959493929190614480565b604080517fffffffffffffffffffffffffffffffffffffffffffffffffffffffffffffffe08184030181529190526020810180517bffffffffffffffffffffffffffffffffffffffffffffffffffffffff167ff811bff70000000000000000000000000000000000000000000000000000000017905283519091506060906000036121935760f9601f83516120d791906144e3565b6040518060400160405280600881526020017f80808401c9c380940000000000000000000000000000000000000000000000008152507f00000000000000000000000000000000000000000000000000000000000000006040518060400160405280600281526020017f80b800000000000000000000000000000000000000000000000000000000000081525060e48760405160200161217d97969594939291906144fe565b6040516020818303038152906040529050612297565b815161ffff10156121d0576040517f248b8f8200000000000000000000000000000000000000000000000000000000815260040160405180910390fd5b815160f96121df6020836144e3565b6040518060400160405280600881526020017f80808401c9c380940000000000000000000000000000000000000000000000008152507f00000000000000000000000000000000000000000000000000000000000000006040518060400160405280600281526020017f80b9000000000000000000000000000000000000000000000000000000000000815250858860405160200161228497969594939291906145e1565b6040516020818303038152906040529150505b805160208083019190912060408051600080825293810180835292909252601b908201526405ca1ab1e06060820152635ca1ab1e608082015260019060a0016020604051602081039080840390855afa1580156122f8573d6000803e3d6000fd5b50506040517fffffffffffffffffffffffffffffffffffffffffffffffffffffffffffffffe0015191505073ffffffffffffffffffffffffffffffffffffffff8116612370576040517fcd16196600000000000000000000000000000000000000000000000000000000815260040160405180910390fd5b6040516000906123b69084906405ca1ab1e090635ca1ab1e90601b907fff00000000000000000000000000000000000000000000000000000000000000906020016146c4565b604080517fffffffffffffffffffffffffffffffffffffffffffffffffffffffffffffffe08184030181529190529450505050505b949350505050565b60005462010000900473ffffffffffffffffffffffffffffffffffffffff16331461244a576040517f4755657900000000000000000000000000000000000000000000000000000000815260040160405180910390fd5b600180547fffffffffffffffffffffffff00000000000000000000000000000000000000001673ffffffffffffffffffffffffffffffffffffffff83169081179091556040519081527fa5b56b7906fd0a20e3f35120dd8343db1e12e037a6c90111c7e42885e82a1ce690602001610c9f565b7f000000000000000000000000000000000000000000000000000000000000000073ffffffffffffffffffffffffffffffffffffffff16331461252c576040517fb9b3a2c800000000000000000000000000000000000000000000000000000000815260040160405180910390fd5b600054610100900460ff161580801561254c5750600054600160ff909116105b806125665750303b158015612566575060005460ff166001145b6125f2576040517f08c379a000000000000000000000000000000000000000000000000000000000815260206004820152602e60248201527f496e697469616c697a61626c653a20636f6e747261637420697320616c72656160448201527f647920696e697469616c697a656400000000000000000000000000000000000060648201526084016118b5565b600080547fffffffffffffffffffffffffffffffffffffffffffffffffffffffffffffff00166001179055801561265057600080547fffffffffffffffffffffffffffffffffffffffffffffffffffffffffffff00ff166101001790555b600080547fffffffffffffffffffff0000000000000000000000000000000000000000ffff166201000073ffffffffffffffffffffffffffffffffffffffff8a81169190910291909117909155600280547fffffffffffffffffffffffff00000000000000000000000000000000000000001691881691909117905560036126d88682614327565b5060046126e58582614327565b506005839055600780547a06978000000000000000000000000000000000000000000000000077ffffffffffffffffffffffffffffffff000000000000000090911667ffffffffffffffff8516171790558015611f3257600080547fffffffffffffffffffffffffffffffffffffffffffffffffffffffffffff00ff169055604051600181527f7f26b83ff96e1f2b6a682f133852f6798a09c465da95921460cefb384740249890602001611f29565b60005462010000900473ffffffffffffffffffffffffffffffffffffffff1633146127ec576040517f4755657900000000000000000000000000000000000000000000000000000000815260040160405180910390fd5b60036127f88282614327565b507f6b8f723a4c7a5335cafae8a598a0aa0301be1387c037dccc085b62add6448b2081604051610c9f9190613a56565b60085460ff16612864576040517f24eff8c300000000000000000000000000000000000000000000000000000000815260040160405180910390fd5b8060008190036128a0576040517fcb591a5f00000000000000000000000000000000000000000000000000000000815260040160405180910390fd5b6103e88111156128dc576040517fb59f753a00000000000000000000000000000000000000000000000000000000815260040160405180910390fd5b60075467ffffffffffffffff680100000000000000008204811691612917918491700100000000000000000000000000000000900416614720565b111561294f576040517fc630a00d00000000000000000000000000000000000000000000000000000000815260040160405180910390fd5b60075460055470010000000000000000000000000000000090910467ffffffffffffffff169060005b83811015612bde576000868683818110612994576129946140c2565b90506020028101906129a69190614733565b6129af90614767565b9050836129bb816141c0565b82518051602091820120818501516040808701519051949950919450600093612a1d9386939101928352602083019190915260c01b7fffffffffffffffff00000000000000000000000000000000000000000000000016604082015260480190565b604080517fffffffffffffffffffffffffffffffffffffffffffffffffffffffffffffffe0818403018152918152815160209283012067ffffffffffffffff8916600090815260069093529120549091508114612aa6576040517fce3d755e00000000000000000000000000000000000000000000000000000000815260040160405180910390fd5b67ffffffffffffffff8616600090815260066020526040812055612acb60018861421f565b8403612b3a5742600760189054906101000a900467ffffffffffffffff168460400151612af891906147e5565b67ffffffffffffffff161115612b3a576040517fc44a082100000000000000000000000000000000000000000000000000000000815260040160405180910390fd5b6020838101516040805192830188905282018490526060808301919091524260c01b7fffffffffffffffff00000000000000000000000000000000000000000000000016608083015233901b7fffffffffffffffffffffffffffffffffffffffff000000000000000000000000166088820152609c016040516020818303038152906040528051906020012094505050508080612bd6906141e7565b915050612978565b50612c0c7f0000000000000000000000000000000000000000000000000000000000000000846112b9610813565b60058190556007805467ffffffffffffffff848116700100000000000000000000000000000000027fffffffffffffffff0000000000000000ffffffffffffffff000000000000000090921642821617919091179091556040517f9a908e7300000000000000000000000000000000000000000000000000000000815290841660048201526024810182905260009073ffffffffffffffffffffffffffffffffffffffff7f00000000000000000000000000000000000000000000000000000000000000001690639a908e73906044016020604051808303816000875af1158015612cfb573d6000803e3d6000fd5b505050506040513d601f19601f82011682018060405250810190612d1f9190614249565b60405190915067ffffffffffffffff8216907f648a61dd2438f072f5a1960939abd30f37aea80d2e94c9792ad142d3e0a490a490600090a2505050505050565b60085460ff16612d9b576040517f24eff8c300000000000000000000000000000000000000000000000000000000815260040160405180910390fd5b60007f000000000000000000000000000000000000000000000000000000000000000073ffffffffffffffffffffffffffffffffffffffff1663604691696040518163ffffffff1660e01b8152600401602060405180830381865afa158015612e08573d6000803e3d6000fd5b505050506040513d601f19601f82011682018060405250810190612e2c9190613fa2565b905081811115612e68576040517f2354600f00000000000000000000000000000000000000000000000000000000815260040160405180910390fd5b611388831115612ea4576040517fa29a6c7c00000000000000000000000000000000000000000000000000000000815260040160405180910390fd5b612ee673ffffffffffffffffffffffffffffffffffffffff7f000000000000000000000000000000000000000000000000000000000000000016333084613227565b60007f000000000000000000000000000000000000000000000000000000000000000073ffffffffffffffffffffffffffffffffffffffff16633ed691ef6040518163ffffffff1660e01b8152600401602060405180830381865afa158015612f53573d6000803e3d6000fd5b505050506040513d601f19601f82011682018060405250810190612f779190613fa2565b600780549192506801000000000000000090910467ffffffffffffffff16906008612fa1836141c0565b91906101000a81548167ffffffffffffffff021916908367ffffffffffffffff160217905550508484604051612fd8929190614806565b60408051918290038220602083015281018290527fffffffffffffffff0000000000000000000000000000000000000000000000004260c01b166060820152606801604080518083037fffffffffffffffffffffffffffffffffffffffffffffffffffffffffffffffe0018152918152815160209283012060075468010000000000000000900467ffffffffffffffff16600090815260069093529120553233036130e8576007546040805183815233602082015260609181018290526000918101919091526801000000000000000090910467ffffffffffffffff16907ff94bb37db835f1ab585ee00041849a09b12cd081d77fa15ca070757619cbc9319060800160405180910390a2613147565b600760089054906101000a900467ffffffffffffffff1667ffffffffffffffff167ff94bb37db835f1ab585ee00041849a09b12cd081d77fa15ca070757619cbc9318233888860405161313e9493929190614816565b60405180910390a25b5050505050565b60405173ffffffffffffffffffffffffffffffffffffffff83166024820152604481018290526132229084907fa9059cbb00000000000000000000000000000000000000000000000000000000906064015b604080517fffffffffffffffffffffffffffffffffffffffffffffffffffffffffffffffe08184030181529190526020810180517bffffffffffffffffffffffffffffffffffffffffffffffffffffffff167fffffffff0000000000000000000000000000000000000000000000000000000090931692909217909152613595565b505050565b60405173ffffffffffffffffffffffffffffffffffffffff808516602483015283166044820152606481018290526132859085907f23b872dd00000000000000000000000000000000000000000000000000000000906084016131a0565b50505050565b60408051600481526024810182526020810180517bffffffffffffffffffffffffffffffffffffffffffffffffffffffff167f06fdde03000000000000000000000000000000000000000000000000000000001790529051606091600091829173ffffffffffffffffffffffffffffffffffffffff86169161330d9190614887565b600060405180830381855afa9150503d8060008114613348576040519150601f19603f3d011682016040523d82523d6000602084013e61334d565b606091505b509150915081613392576040518060400160405280600781526020017f4e4f5f4e414d45000000000000000000000000000000000000000000000000008152506123eb565b6123eb816136a1565b60408051600481526024810182526020810180517bffffffffffffffffffffffffffffffffffffffffffffffffffffffff167f95d89b41000000000000000000000000000000000000000000000000000000001790529051606091600091829173ffffffffffffffffffffffffffffffffffffffff86169161341d9190614887565b600060405180830381855afa9150503d8060008114613458576040519150601f19603f3d011682016040523d82523d6000602084013e61345d565b606091505b509150915081613392576040518060400160405280600981526020017f4e4f5f53594d424f4c00000000000000000000000000000000000000000000008152506123eb565b60408051600481526024810182526020810180517bffffffffffffffffffffffffffffffffffffffffffffffffffffffff167f313ce5670000000000000000000000000000000000000000000000000000000017905290516000918291829173ffffffffffffffffffffffffffffffffffffffff8616916135239190614887565b600060405180830381855afa9150503d806000811461355e576040519150601f19603f3d011682016040523d82523d6000602084013e613563565b606091505b5091509150818015613576575080516020145b6135815760126123eb565b808060200190518101906123eb9190614899565b60006135f7826040518060400160405280602081526020017f5361666545524332303a206c6f772d6c6576656c2063616c6c206661696c65648152508573ffffffffffffffffffffffffffffffffffffffff166138779092919063ffffffff16565b805190915015613222578080602001905181019061361591906140a0565b613222576040517f08c379a000000000000000000000000000000000000000000000000000000000815260206004820152602a60248201527f5361666545524332303a204552433230206f7065726174696f6e20646964206e60448201527f6f7420737563636565640000000000000000000000000000000000000000000060648201526084016118b5565b606060408251106136c657818060200190518101906136c091906148bc565b92915050565b815160200361383e5760005b60208110801561371957508281815181106136ef576136ef6140c2565b01602001517fff000000000000000000000000000000000000000000000000000000000000001615155b156137305780613728816141e7565b9150506136d2565b8060000361377357505060408051808201909152601281527f4e4f545f56414c49445f454e434f44494e4700000000000000000000000000006020820152919050565b60008167ffffffffffffffff81111561378e5761378e613bd1565b6040519080825280601f01601f1916602001820160405280156137b8576020820181803683370190505b50905060005b82811015613836578481815181106137d8576137d86140c2565b602001015160f81c60f81b8282815181106137f5576137f56140c2565b60200101907effffffffffffffffffffffffffffffffffffffffffffffffffffffffffffff1916908160001a9053508061382e816141e7565b9150506137be565b509392505050565b505060408051808201909152601281527f4e4f545f56414c49445f454e434f44494e470000000000000000000000000000602082015290565b60606123eb8484600085856000808673ffffffffffffffffffffffffffffffffffffffff1685876040516138ab9190614887565b60006040518083038185875af1925050503d80600081146138e8576040519150601f19603f3d011682016040523d82523d6000602084013e6138ed565b606091505b50915091506138fe87838387613909565b979650505050505050565b6060831561399f5782516000036139985773ffffffffffffffffffffffffffffffffffffffff85163b613998576040517f08c379a000000000000000000000000000000000000000000000000000000000815260206004820152601d60248201527f416464726573733a2063616c6c20746f206e6f6e2d636f6e747261637400000060448201526064016118b5565b50816123eb565b6123eb83838151156139b45781518083602001fd5b806040517f08c379a00000000000000000000000000000000000000000000000000000000081526004016118b59190613a56565b60005b83811015613a035781810151838201526020016139eb565b50506000910152565b60008151808452613a248160208601602086016139e8565b601f017fffffffffffffffffffffffffffffffffffffffffffffffffffffffffffffffe0169290920160200192915050565b602081526000613a696020830184613a0c565b9392505050565b67ffffffffffffffff81168114613a8657600080fd5b50565b73ffffffffffffffffffffffffffffffffffffffff81168114613a8657600080fd5b600080600060608486031215613ac057600080fd5b8335613acb81613a70565b9250602084013591506040840135613ae281613a89565b809150509250925092565b600060208284031215613aff57600080fd5b8135613a6981613a70565b60008083601f840112613b1c57600080fd5b50813567ffffffffffffffff811115613b3457600080fd5b6020830191508360208260051b8501011115613b4f57600080fd5b9250929050565b600080600060408486031215613b6b57600080fd5b833567ffffffffffffffff811115613b8257600080fd5b613b8e86828701613b0a565b9094509250506020840135613ae281613a89565b600060208284031215613bb457600080fd5b8135613a6981613a89565b63ffffffff81168114613a8657600080fd5b7f4e487b7100000000000000000000000000000000000000000000000000000000600052604160045260246000fd5b604051601f82017fffffffffffffffffffffffffffffffffffffffffffffffffffffffffffffffe016810167ffffffffffffffff81118282101715613c4757613c47613bd1565b604052919050565b600067ffffffffffffffff821115613c6957613c69613bd1565b50601f017fffffffffffffffffffffffffffffffffffffffffffffffffffffffffffffffe01660200190565b600082601f830112613ca657600080fd5b8135613cb9613cb482613c4f565b613c00565b818152846020838601011115613cce57600080fd5b816020850160208301376000918101602001919091529392505050565b60008060008060008060c08789031215613d0457600080fd5b8635613d0f81613a89565b95506020870135613d1f81613a89565b94506040870135613d2f81613bbf565b93506060870135613d3f81613a89565b9250608087013567ffffffffffffffff80821115613d5c57600080fd5b613d688a838b01613c95565b935060a0890135915080821115613d7e57600080fd5b50613d8b89828a01613c95565b9150509295509295509295565b60008060008060808587031215613dae57600080fd5b8435613db981613bbf565b93506020850135613dc981613a89565b92506040850135613dd981613bbf565b9150606085013567ffffffffffffffff811115613df557600080fd5b613e0187828801613c95565b91505092959194509250565b60008060008060008060c08789031215613e2657600080fd5b8635613e3181613a89565b95506020870135613e4181613a89565b9450604087013567ffffffffffffffff80821115613e5e57600080fd5b613e6a8a838b01613c95565b95506060890135915080821115613e8057600080fd5b50613e8d89828a01613c95565b9350506080870135915060a0870135613ea581613a70565b809150509295509295509295565b600060208284031215613ec557600080fd5b813567ffffffffffffffff811115613edc57600080fd5b6123eb84828501613c95565b60008060208385031215613efb57600080fd5b823567ffffffffffffffff811115613f1257600080fd5b613f1e85828601613b0a565b90969095509350505050565b600080600060408486031215613f3f57600080fd5b833567ffffffffffffffff80821115613f5757600080fd5b818601915086601f830112613f6b57600080fd5b813581811115613f7a57600080fd5b876020828501011115613f8c57600080fd5b6020928301989097509590910135949350505050565b600060208284031215613fb457600080fd5b5051919050565b7f4e487b7100000000000000000000000000000000000000000000000000000000600052601160045260246000fd5b67ffffffffffffffff82811682821603908082111561400b5761400b613fbb565b5092915050565b600082614048577f4e487b7100000000000000000000000000000000000000000000000000000000600052601260045260246000fd5b500490565b600181811c9082168061406157607f821691505b60208210810361409a577f4e487b7100000000000000000000000000000000000000000000000000000000600052602260045260246000fd5b50919050565b6000602082840312156140b257600080fd5b81518015158114613a6957600080fd5b7f4e487b7100000000000000000000000000000000000000000000000000000000600052603260045260246000fd5b600082357fffffffffffffffffffffffffffffffffffffffffffffffffffffffffffffff8183360301811261412557600080fd5b9190910192915050565b60006080823603121561414157600080fd5b6040516080810167ffffffffffffffff828210818311171561416557614165613bd1565b81604052843591508082111561417a57600080fd5b5061418736828601613c95565b8252506020830135602082015260408301356141a281613a70565b604082015260608301356141b581613a70565b606082015292915050565b600067ffffffffffffffff8083168181036141dd576141dd613fbb565b6001019392505050565b60007fffffffffffffffffffffffffffffffffffffffffffffffffffffffffffffffff820361421857614218613fbb565b5060010190565b818103818111156136c0576136c0613fbb565b80820281158282048414176136c0576136c0613fbb565b60006020828403121561425b57600080fd5b8151613a6981613a70565b6060815260006142796060830186613a0c565b828103602084015261428b8186613a0c565b91505060ff83166040830152949350505050565b600080604083850312156142b257600080fd5b82516142bd81613bbf565b60208401519092506142ce81613a89565b809150509250929050565b601f82111561322257600081815260208120601f850160051c810160208610156143005750805b601f850160051c820191505b8181101561431f5782815560010161430c565b505050505050565b815167ffffffffffffffff81111561434157614341613bd1565b6143558161434f845461404d565b846142d9565b602080601f8311600181146143a857600084156143725750858301515b7fffffffffffffffffffffffffffffffffffffffffffffffffffffffffffffffff600386901b1c1916600185901b17855561431f565b6000858152602081207fffffffffffffffffffffffffffffffffffffffffffffffffffffffffffffffe08616915b828110156143f5578886015182559484019460019091019084016143d6565b508582101561443157878501517fffffffffffffffffffffffffffffffffffffffffffffffffffffffffffffffff600388901b60f8161c191681555b5050505050600190811b01905550565b6060815260006144546060830186613a0c565b905083602083015273ffffffffffffffffffffffffffffffffffffffff83166040830152949350505050565b600063ffffffff808916835273ffffffffffffffffffffffffffffffffffffffff8089166020850152818816604085015280871660608501528086166080850152505060c060a08301526144d760c0830184613a0c565b98975050505050505050565b61ffff81811683821601908082111561400b5761400b613fbb565b60007fff00000000000000000000000000000000000000000000000000000000000000808a60f81b1683527fffff0000000000000000000000000000000000000000000000000000000000008960f01b1660018401528751614567816003860160208c016139e8565b80840190507fffffffffffffffffffffffffffffffffffffffff0000000000000000000000008860601b16600382015286516145aa816017840160208b016139e8565b808201915050818660f81b166017820152845191506145d08260188301602088016139e8565b016018019998505050505050505050565b7fff000000000000000000000000000000000000000000000000000000000000008860f81b16815260007fffff000000000000000000000000000000000000000000000000000000000000808960f01b166001840152875161464a816003860160208c016139e8565b80840190507fffffffffffffffffffffffffffffffffffffffff0000000000000000000000008860601b166003820152865161468d816017840160208b016139e8565b808201915050818660f01b166017820152845191506146b38260198301602088016139e8565b016019019998505050505050505050565b600086516146d6818460208b016139e8565b9190910194855250602084019290925260f81b7fff000000000000000000000000000000000000000000000000000000000000009081166040840152166041820152604201919050565b808201808211156136c0576136c0613fbb565b600082357fffffffffffffffffffffffffffffffffffffffffffffffffffffffffffffffa183360301811261412557600080fd5b60006060823603121561477957600080fd5b6040516060810167ffffffffffffffff828210818311171561479d5761479d613bd1565b8160405284359150808211156147b257600080fd5b506147bf36828601613c95565b8252506020830135602082015260408301356147da81613a70565b604082015292915050565b67ffffffffffffffff81811683821601908082111561400b5761400b613fbb565b8183823760009101908152919050565b84815273ffffffffffffffffffffffffffffffffffffffff8416602082015260606040820152816060820152818360808301376000818301608090810191909152601f9092017fffffffffffffffffffffffffffffffffffffffffffffffffffffffffffffffe01601019392505050565b600082516141258184602087016139e8565b6000602082840312156148ab57600080fd5b815160ff81168114613a6957600080fd5b6000602082840312156148ce57600080fd5b815167ffffffffffffffff8111156148e557600080fd5b8201601f810184136148f657600080fd5b8051614904613cb482613c4f565b81815285602083850101111561491957600080fd5b61492a8260208301602086016139e8565b9594505050505056fea2646970667358221220492dfbc7c1b97148aa44a030fb00678b20ce0fdd3241269fe81eb4228a6add5664736f6c63430008140033",
  "linkReferences": {},
  "deployedLinkReferences": {}
}