{
  "_format": "hh-sol-artifact-1",
  "contractName": "PolygonZkEVMV2Existent",
  "sourceName": "contracts/v2/consensus/zkEVM/PolygonZkEVMV2Existent.sol",
  "abi": [
    {
      "inputs": [
        {
          "internalType": "contract IPolygonZkEVMGlobalExitRoot",
          "name": "_globalExitRootManager",
          "type": "address"
        },
        {
          "internalType": "contract IERC20Upgradeable",
          "name": "_pol",
          "type": "address"
        },
        {
          "internalType": "contract IPolygonZkEVMBridge",
          "name": "_bridgeAddress",
          "type": "address"
        },
        {
          "internalType": "contract PolygonRollupManager",
          "name": "_rollupManager",
          "type": "address"
        }
      ],
      "stateMutability": "nonpayable",
      "type": "constructor"
    },
    {
      "inputs": [],
      "name": "BatchAlreadyVerified",
      "type": "error"
    },
    {
      "inputs": [],
      "name": "BatchNotSequencedOrNotSequenceEnd",
      "type": "error"
    },
    {
      "inputs": [],
      "name": "ExceedMaxVerifyBatches",
      "type": "error"
    },
    {
      "inputs": [],
      "name": "FinalNumBatchBelowLastVerifiedBatch",
      "type": "error"
    },
    {
      "inputs": [],
      "name": "FinalNumBatchDoesNotMatchPendingState",
      "type": "error"
    },
    {
      "inputs": [],
      "name": "FinalPendingStateNumInvalid",
      "type": "error"
    },
    {
      "inputs": [],
      "name": "ForceBatchNotAllowed",
      "type": "error"
    },
    {
      "inputs": [],
      "name": "ForceBatchTimeoutNotExpired",
      "type": "error"
    },
    {
      "inputs": [],
      "name": "ForceBatchesAlreadyActive",
      "type": "error"
    },
    {
      "inputs": [],
      "name": "ForceBatchesOverflow",
      "type": "error"
    },
    {
      "inputs": [],
      "name": "ForcedDataDoesNotMatch",
      "type": "error"
    },
    {
      "inputs": [],
      "name": "GasTokenNetworkMustBeZeroOnEther",
      "type": "error"
    },
    {
      "inputs": [],
      "name": "GlobalExitRootNotExist",
      "type": "error"
    },
    {
      "inputs": [],
      "name": "HaltTimeoutNotExpired",
      "type": "error"
    },
    {
      "inputs": [],
      "name": "InitNumBatchAboveLastVerifiedBatch",
      "type": "error"
    },
    {
      "inputs": [],
      "name": "InitNumBatchDoesNotMatchPendingState",
      "type": "error"
    },
    {
      "inputs": [],
      "name": "InvalidInitializeTransaction",
      "type": "error"
    },
    {
      "inputs": [],
      "name": "InvalidProof",
      "type": "error"
    },
    {
      "inputs": [],
      "name": "InvalidRangeBatchTimeTarget",
      "type": "error"
    },
    {
      "inputs": [],
      "name": "InvalidRangeForceBatchTimeout",
      "type": "error"
    },
    {
      "inputs": [],
      "name": "InvalidRangeMultiplierBatchFee",
      "type": "error"
    },
    {
      "inputs": [],
      "name": "NewAccInputHashDoesNotExist",
      "type": "error"
    },
    {
      "inputs": [],
      "name": "NewPendingStateTimeoutMustBeLower",
      "type": "error"
    },
    {
      "inputs": [],
      "name": "NewStateRootNotInsidePrime",
      "type": "error"
    },
    {
      "inputs": [],
      "name": "NewTrustedAggregatorTimeoutMustBeLower",
      "type": "error"
    },
    {
      "inputs": [],
      "name": "NotEnoughMaticAmount",
      "type": "error"
    },
    {
      "inputs": [],
      "name": "NotEnoughPOLAmount",
      "type": "error"
    },
    {
      "inputs": [],
      "name": "OldAccInputHashDoesNotExist",
      "type": "error"
    },
    {
      "inputs": [],
      "name": "OldStateRootDoesNotExist",
      "type": "error"
    },
    {
      "inputs": [],
      "name": "OnlyAdmin",
      "type": "error"
    },
    {
      "inputs": [],
      "name": "OnlyPendingAdmin",
      "type": "error"
    },
    {
      "inputs": [],
      "name": "OnlyRollupManager",
      "type": "error"
    },
    {
      "inputs": [],
      "name": "OnlyTrustedAggregator",
      "type": "error"
    },
    {
      "inputs": [],
      "name": "OnlyTrustedSequencer",
      "type": "error"
    },
    {
      "inputs": [],
      "name": "PendingStateDoesNotExist",
      "type": "error"
    },
    {
      "inputs": [],
      "name": "PendingStateInvalid",
      "type": "error"
    },
    {
      "inputs": [],
      "name": "PendingStateNotConsolidable",
      "type": "error"
    },
    {
      "inputs": [],
      "name": "PendingStateTimeoutExceedHaltAggregationTimeout",
      "type": "error"
    },
    {
      "inputs": [],
      "name": "SequenceZeroBatches",
      "type": "error"
    },
    {
      "inputs": [],
      "name": "SequencedTimestampBelowForcedTimestamp",
      "type": "error"
    },
    {
      "inputs": [],
      "name": "SequencedTimestampInvalid",
      "type": "error"
    },
    {
      "inputs": [],
      "name": "StoredRootMustBeDifferentThanNewRoot",
      "type": "error"
    },
    {
      "inputs": [],
      "name": "TransactionsLengthAboveMax",
      "type": "error"
    },
    {
      "inputs": [],
      "name": "TrustedAggregatorTimeoutExceedHaltAggregationTimeout",
      "type": "error"
    },
    {
      "inputs": [],
      "name": "TrustedAggregatorTimeoutNotExpired",
      "type": "error"
    },
    {
      "anonymous": false,
      "inputs": [
        {
          "indexed": false,
          "internalType": "address",
          "name": "newAdmin",
          "type": "address"
        }
      ],
      "name": "AcceptAdminRole",
      "type": "event"
    },
    {
      "anonymous": false,
      "inputs": [],
      "name": "ActivateForceBatches",
      "type": "event"
    },
    {
      "anonymous": false,
      "inputs": [
        {
          "indexed": true,
          "internalType": "uint64",
          "name": "forceBatchNum",
          "type": "uint64"
        },
        {
          "indexed": false,
          "internalType": "bytes32",
          "name": "lastGlobalExitRoot",
          "type": "bytes32"
        },
        {
          "indexed": false,
          "internalType": "address",
          "name": "sequencer",
          "type": "address"
        },
        {
          "indexed": false,
          "internalType": "bytes",
          "name": "transactions",
          "type": "bytes"
        }
      ],
      "name": "ForceBatch",
      "type": "event"
    },
    {
      "anonymous": false,
      "inputs": [
        {
          "indexed": false,
          "internalType": "uint8",
          "name": "version",
          "type": "uint8"
        }
      ],
      "name": "Initialized",
      "type": "event"
    },
    {
      "anonymous": false,
      "inputs": [
        {
          "indexed": true,
          "internalType": "uint64",
          "name": "numBatch",
          "type": "uint64"
        }
      ],
      "name": "SequenceBatches",
      "type": "event"
    },
    {
      "anonymous": false,
      "inputs": [
        {
          "indexed": true,
          "internalType": "uint64",
          "name": "numBatch",
          "type": "uint64"
        }
      ],
      "name": "SequenceForceBatches",
      "type": "event"
    },
    {
      "anonymous": false,
      "inputs": [
        {
          "indexed": false,
          "internalType": "uint64",
          "name": "newforceBatchTimeout",
          "type": "uint64"
        }
      ],
      "name": "SetForceBatchTimeout",
      "type": "event"
    },
    {
      "anonymous": false,
      "inputs": [
        {
          "indexed": false,
          "internalType": "address",
          "name": "newTrustedSequencer",
          "type": "address"
        }
      ],
      "name": "SetTrustedSequencer",
      "type": "event"
    },
    {
      "anonymous": false,
      "inputs": [
        {
          "indexed": false,
          "internalType": "string",
          "name": "newTrustedSequencerURL",
          "type": "string"
        }
      ],
      "name": "SetTrustedSequencerURL",
      "type": "event"
    },
    {
      "anonymous": false,
      "inputs": [
        {
          "indexed": false,
          "internalType": "address",
          "name": "newPendingAdmin",
          "type": "address"
        }
      ],
      "name": "TransferAdminRole",
      "type": "event"
    },
    {
      "anonymous": false,
      "inputs": [
        {
          "indexed": true,
          "internalType": "uint64",
          "name": "numBatch",
          "type": "uint64"
        },
        {
          "indexed": false,
          "internalType": "bytes32",
          "name": "stateRoot",
          "type": "bytes32"
        },
        {
          "indexed": true,
          "internalType": "address",
          "name": "aggregator",
          "type": "address"
        }
      ],
      "name": "VerifyBatches",
      "type": "event"
    },
    {
      "inputs": [],
      "name": "BASE_INITIALIZE_TX_BRIDGE",
      "outputs": [
        {
          "internalType": "bytes",
          "name": "",
          "type": "bytes"
        }
      ],
      "stateMutability": "view",
      "type": "function"
    },
    {
      "inputs": [],
      "name": "GLOBAL_EXIT_ROOT_MANAGER_L2",
      "outputs": [
        {
          "internalType": "contract IBasePolygonZkEVMGlobalExitRoot",
          "name": "",
          "type": "address"
        }
      ],
      "stateMutability": "view",
      "type": "function"
    },
    {
      "inputs": [],
      "name": "INITIALIZE_TX_EFFECTIVE_PERCENTAGE",
      "outputs": [
        {
          "internalType": "bytes1",
          "name": "",
          "type": "bytes1"
        }
      ],
      "stateMutability": "view",
      "type": "function"
    },
    {
      "inputs": [],
      "name": "SIGNATURE_INITIALIZE_TX_R",
      "outputs": [
        {
          "internalType": "bytes32",
          "name": "",
          "type": "bytes32"
        }
      ],
      "stateMutability": "view",
      "type": "function"
    },
    {
      "inputs": [],
      "name": "SIGNATURE_INITIALIZE_TX_S",
      "outputs": [
        {
          "internalType": "bytes32",
          "name": "",
          "type": "bytes32"
        }
      ],
      "stateMutability": "view",
      "type": "function"
    },
    {
      "inputs": [],
      "name": "SIGNATURE_INITIALIZE_TX_V",
      "outputs": [
        {
          "internalType": "uint8",
          "name": "",
          "type": "uint8"
        }
      ],
      "stateMutability": "view",
      "type": "function"
    },
    {
      "inputs": [],
      "name": "acceptAdminRole",
      "outputs": [],
      "stateMutability": "nonpayable",
      "type": "function"
    },
    {
      "inputs": [],
      "name": "activateForceBatches",
      "outputs": [],
      "stateMutability": "nonpayable",
      "type": "function"
    },
    {
      "inputs": [],
      "name": "admin",
      "outputs": [
        {
          "internalType": "address",
          "name": "",
          "type": "address"
        }
      ],
      "stateMutability": "view",
      "type": "function"
    },
    {
      "inputs": [],
      "name": "bridgeAddress",
      "outputs": [
        {
          "internalType": "contract IPolygonZkEVMBridge",
          "name": "",
          "type": "address"
        }
      ],
      "stateMutability": "view",
      "type": "function"
    },
    {
      "inputs": [],
      "name": "calculatePolPerForceBatch",
      "outputs": [
        {
          "internalType": "uint256",
          "name": "",
          "type": "uint256"
        }
      ],
      "stateMutability": "view",
      "type": "function"
    },
    {
      "inputs": [
        {
          "internalType": "bytes",
          "name": "transactions",
          "type": "bytes"
        },
        {
          "internalType": "uint256",
          "name": "polAmount",
          "type": "uint256"
        }
      ],
      "name": "forceBatch",
      "outputs": [],
      "stateMutability": "nonpayable",
      "type": "function"
    },
    {
      "inputs": [],
      "name": "forceBatchTimeout",
      "outputs": [
        {
          "internalType": "uint64",
          "name": "",
          "type": "uint64"
        }
      ],
      "stateMutability": "view",
      "type": "function"
    },
    {
      "inputs": [
        {
          "internalType": "uint64",
          "name": "",
          "type": "uint64"
        }
      ],
      "name": "forcedBatches",
      "outputs": [
        {
          "internalType": "bytes32",
          "name": "",
          "type": "bytes32"
        }
      ],
      "stateMutability": "view",
      "type": "function"
    },
    {
      "inputs": [],
      "name": "gasTokenAddress",
      "outputs": [
        {
          "internalType": "address",
          "name": "",
          "type": "address"
        }
      ],
      "stateMutability": "view",
      "type": "function"
    },
    {
      "inputs": [],
      "name": "gasTokenNetwork",
      "outputs": [
        {
          "internalType": "uint32",
          "name": "",
          "type": "uint32"
        }
      ],
      "stateMutability": "view",
      "type": "function"
    },
    {
      "inputs": [
        {
          "internalType": "uint32",
          "name": "networkID",
          "type": "uint32"
        },
        {
          "internalType": "address",
          "name": "_gasTokenAddress",
          "type": "address"
        },
        {
          "internalType": "uint32",
          "name": "_gasTokenNetwork",
          "type": "uint32"
        }
      ],
      "name": "generateInitializeTransaction",
      "outputs": [
        {
          "internalType": "bytes",
          "name": "",
          "type": "bytes"
        }
      ],
      "stateMutability": "pure",
      "type": "function"
    },
    {
      "inputs": [],
      "name": "globalExitRootManager",
      "outputs": [
        {
          "internalType": "contract IPolygonZkEVMGlobalExitRoot",
          "name": "",
          "type": "address"
        }
      ],
      "stateMutability": "view",
      "type": "function"
    },
    {
      "inputs": [
        {
          "internalType": "address",
          "name": "_admin",
          "type": "address"
        },
        {
          "internalType": "address",
          "name": "sequencer",
          "type": "address"
        },
        {
          "internalType": "uint32",
          "name": "networkID",
          "type": "uint32"
        },
        {
          "internalType": "address",
          "name": "_gasTokenAddress",
          "type": "address"
        },
        {
          "internalType": "uint32",
          "name": "_gasTokenNetwork",
          "type": "uint32"
        },
        {
          "internalType": "string",
          "name": "sequencerURL",
          "type": "string"
        },
        {
          "internalType": "string",
          "name": "_networkName",
          "type": "string"
        }
      ],
      "name": "initialize",
      "outputs": [],
      "stateMutability": "nonpayable",
      "type": "function"
    },
    {
      "inputs": [
        {
          "internalType": "address",
          "name": "_admin",
          "type": "address"
        },
        {
          "internalType": "address",
          "name": "_trustedSequencer",
          "type": "address"
        },
        {
          "internalType": "string",
          "name": "_trustedSequencerURL",
          "type": "string"
        },
        {
          "internalType": "string",
          "name": "_networkName",
          "type": "string"
        },
        {
          "internalType": "bytes32",
          "name": "_lastAccInputHash",
          "type": "bytes32"
        },
        {
          "internalType": "uint64",
          "name": "_lastTimestamp",
          "type": "uint64"
        }
      ],
      "name": "initializeUpgrade",
      "outputs": [],
      "stateMutability": "nonpayable",
      "type": "function"
    },
    {
      "inputs": [],
      "name": "isForcedBatchAllowed",
      "outputs": [
        {
          "internalType": "bool",
          "name": "",
          "type": "bool"
        }
      ],
      "stateMutability": "view",
      "type": "function"
    },
    {
      "inputs": [],
      "name": "lastAccInputHash",
      "outputs": [
        {
          "internalType": "bytes32",
          "name": "",
          "type": "bytes32"
        }
      ],
      "stateMutability": "view",
      "type": "function"
    },
    {
      "inputs": [],
      "name": "lastForceBatch",
      "outputs": [
        {
          "internalType": "uint64",
          "name": "",
          "type": "uint64"
        }
      ],
      "stateMutability": "view",
      "type": "function"
    },
    {
      "inputs": [],
      "name": "lastForceBatchSequenced",
      "outputs": [
        {
          "internalType": "uint64",
          "name": "",
          "type": "uint64"
        }
      ],
      "stateMutability": "view",
      "type": "function"
    },
    {
      "inputs": [],
      "name": "lastTimestamp",
      "outputs": [
        {
          "internalType": "uint64",
          "name": "",
          "type": "uint64"
        }
      ],
      "stateMutability": "view",
      "type": "function"
    },
    {
      "inputs": [],
      "name": "networkName",
      "outputs": [
        {
          "internalType": "string",
          "name": "",
          "type": "string"
        }
      ],
      "stateMutability": "view",
      "type": "function"
    },
    {
      "inputs": [
        {
          "internalType": "uint64",
          "name": "lastVerifiedBatch",
          "type": "uint64"
        },
        {
          "internalType": "bytes32",
          "name": "newStateRoot",
          "type": "bytes32"
        },
        {
          "internalType": "address",
          "name": "aggregator",
          "type": "address"
        }
      ],
      "name": "onVerifyBatches",
      "outputs": [],
      "stateMutability": "nonpayable",
      "type": "function"
    },
    {
      "inputs": [],
      "name": "pendingAdmin",
      "outputs": [
        {
          "internalType": "address",
          "name": "",
          "type": "address"
        }
      ],
      "stateMutability": "view",
      "type": "function"
    },
    {
      "inputs": [],
      "name": "pol",
      "outputs": [
        {
          "internalType": "contract IERC20Upgradeable",
          "name": "",
          "type": "address"
        }
      ],
      "stateMutability": "view",
      "type": "function"
    },
    {
      "inputs": [],
      "name": "rollupManager",
      "outputs": [
        {
          "internalType": "contract PolygonRollupManager",
          "name": "",
          "type": "address"
        }
      ],
      "stateMutability": "view",
      "type": "function"
    },
    {
      "inputs": [
        {
          "components": [
            {
              "internalType": "bytes",
              "name": "transactions",
              "type": "bytes"
            },
            {
              "internalType": "bytes32",
              "name": "globalExitRoot",
              "type": "bytes32"
            },
            {
              "internalType": "uint64",
              "name": "timestamp",
              "type": "uint64"
            },
            {
              "internalType": "uint64",
              "name": "minForcedTimestamp",
              "type": "uint64"
            }
          ],
          "internalType": "struct PolygonRollupBase.BatchData[]",
          "name": "batches",
          "type": "tuple[]"
        },
        {
          "internalType": "address",
          "name": "l2Coinbase",
          "type": "address"
        }
      ],
      "name": "sequenceBatches",
      "outputs": [],
      "stateMutability": "nonpayable",
      "type": "function"
    },
    {
      "inputs": [
        {
          "components": [
            {
              "internalType": "bytes",
              "name": "transactions",
              "type": "bytes"
            },
            {
              "internalType": "bytes32",
              "name": "globalExitRoot",
              "type": "bytes32"
            },
            {
              "internalType": "uint64",
              "name": "minForcedTimestamp",
              "type": "uint64"
            }
          ],
          "internalType": "struct PolygonRollupBase.ForcedBatchData[]",
          "name": "batches",
          "type": "tuple[]"
        }
      ],
      "name": "sequenceForceBatches",
      "outputs": [],
      "stateMutability": "nonpayable",
      "type": "function"
    },
    {
      "inputs": [
        {
          "internalType": "uint64",
          "name": "newforceBatchTimeout",
          "type": "uint64"
        }
      ],
      "name": "setForceBatchTimeout",
      "outputs": [],
      "stateMutability": "nonpayable",
      "type": "function"
    },
    {
      "inputs": [
        {
          "internalType": "address",
          "name": "newTrustedSequencer",
          "type": "address"
        }
      ],
      "name": "setTrustedSequencer",
      "outputs": [],
      "stateMutability": "nonpayable",
      "type": "function"
    },
    {
      "inputs": [
        {
          "internalType": "string",
          "name": "newTrustedSequencerURL",
          "type": "string"
        }
      ],
      "name": "setTrustedSequencerURL",
      "outputs": [],
      "stateMutability": "nonpayable",
      "type": "function"
    },
    {
      "inputs": [
        {
          "internalType": "address",
          "name": "newPendingAdmin",
          "type": "address"
        }
      ],
      "name": "transferAdminRole",
      "outputs": [],
      "stateMutability": "nonpayable",
      "type": "function"
    },
    {
      "inputs": [],
      "name": "trustedSequencer",
      "outputs": [
        {
          "internalType": "address",
          "name": "",
          "type": "address"
        }
      ],
      "stateMutability": "view",
      "type": "function"
    },
    {
      "inputs": [],
      "name": "trustedSequencerURL",
      "outputs": [
        {
          "internalType": "string",
          "name": "",
          "type": "string"
        }
      ],
      "stateMutability": "view",
      "type": "function"
    }
  ],
  "bytecode": "0x6101006040523480156200001257600080fd5b5060405162003e8e38038062003e8e833981016040819052620000359162000071565b6001600160a01b0393841660a052918316608052821660c0521660e052620000d9565b6001600160a01b03811681146200006e57600080fd5b50565b600080600080608085870312156200008857600080fd5b8451620000958162000058565b6020860151909450620000a88162000058565b6040860151909350620000bb8162000058565b6060860151909250620000ce8162000058565b939692955090935050565b60805160a05160c05160e051613cf66200019860003960008181610465015281816108820152818161095101528181610dd501528181610fa1015281816116f8015281816117c1015281816117e30152818161197a01528181612012015281816127600152818161282e015261291b01526000818161053401526118bb0152600081816105f00152818161141b0152612a6601526000818161063d0152818161071a0152818161174b015281816118910152612a3a0152613cf66000f3fe608060405234801561001057600080fd5b50600436106102915760003560e01c80638c3d730111610160578063cfa8ed47116100d8578063e46761c41161008c578063eaeb077b11610071578063eaeb077b1461067f578063f35dda4714610692578063f851a440146106ac57600080fd5b8063e46761c414610638578063e7a7ed021461065f57600080fd5b8063d690be31116100bd578063d690be3114610612578063d7bc90ff1461061a578063d8d1091b1461062557600080fd5b8063cfa8ed47146105cb578063d02103ca146105eb57600080fd5b8063ada8f9191161012f578063bb59070811610114578063bb59070814610575578063c754c7ed14610588578063c89e42df146105b857600080fd5b8063ada8f91914610556578063b0afe1541461056957600080fd5b80638c3d7301146104f957806399af0397146105015780639e00187714610514578063a3c573eb1461052f57600080fd5b8063456052671161020e5780635e9145c9116101c25780636b8616ce116101a75780636b8616ce146104bd5780636e05d2cd146104dd5780636ff512cc146104e657600080fd5b80635e9145c9146104a25780635ec91958146104b557600080fd5b806349b7b802116101f357806349b7b802146104605780634e48770614610487578063542028d51461049a57600080fd5b8063456052671461042557806347ebf1081461044d57600080fd5b80632b35b3ac116102655780633c351e101161024a5780633c351e101461036a5780633cbc795b1461038f57806340b5de6c146103cd57600080fd5b80632b35b3ac1461033857806332c2d1531461035557600080fd5b8062d0295d14610296578063107bf28c146102b157806319d8ac61146102c657806326782247146102f3575b600080fd5b61029e6106d2565b6040519081526020015b60405180910390f35b6102b96107f2565b6040516102a89190613190565b6007546102da9067ffffffffffffffff1681565b60405167ffffffffffffffff90911681526020016102a8565b6001546103139073ffffffffffffffffffffffffffffffffffffffff1681565b60405173ffffffffffffffffffffffffffffffffffffffff90911681526020016102a8565b6008546103459060ff1681565b60405190151581526020016102a8565b6103686103633660046131ec565b610880565b005b60085461031390610100900473ffffffffffffffffffffffffffffffffffffffff1681565b6008546103b8907501000000000000000000000000000000000000000000900463ffffffff1681565b60405163ffffffff90911681526020016102a8565b6103f47fff0000000000000000000000000000000000000000000000000000000000000081565b6040517fff0000000000000000000000000000000000000000000000000000000000000090911681526020016102a8565b6007546102da90700100000000000000000000000000000000900467ffffffffffffffff1681565b61036861045b366004613318565b61094f565b6103137f000000000000000000000000000000000000000000000000000000000000000081565b6103686104953660046133cf565b610f01565b6102b961111b565b6103686104b0366004613438565b611128565b610368611a41565b61029e6104cb3660046133cf565b60066020526000908152604090205481565b61029e60055481565b6103686104f4366004613483565b611b2b565b610368611bf5565b6102b961050f36600461349e565b611cc8565b61031373a40d5f56745a118d0906a34e69aec8c0db1cb8fa81565b6103137f000000000000000000000000000000000000000000000000000000000000000081565b610368610564366004613483565b611f46565b61029e6405ca1ab1e081565b6103686105833660046134d8565b612010565b6007546102da907801000000000000000000000000000000000000000000000000900467ffffffffffffffff1681565b6103686105c636600461357a565b6122f5565b6002546103139073ffffffffffffffffffffffffffffffffffffffff1681565b6103137f000000000000000000000000000000000000000000000000000000000000000081565b6102b9612388565b61029e635ca1ab1e81565b6103686106333660046135af565b6123a4565b6103137f000000000000000000000000000000000000000000000000000000000000000081565b6007546102da9068010000000000000000900467ffffffffffffffff1681565b61036861068d3660046135f1565b6128db565b61069a601b81565b60405160ff90911681526020016102a8565b6000546103139062010000900473ffffffffffffffffffffffffffffffffffffffff1681565b6040517f70a08231000000000000000000000000000000000000000000000000000000008152306004820152600090819073ffffffffffffffffffffffffffffffffffffffff7f000000000000000000000000000000000000000000000000000000000000000016906370a0823190602401602060405180830381865afa158015610761573d6000803e3d6000fd5b505050506040513d601f19601f820116820180604052508101906107859190613669565b6007549091506000906107c49067ffffffffffffffff7001000000000000000000000000000000008204811691680100000000000000009004166136b1565b67ffffffffffffffff169050806000036107e15760009250505090565b6107eb81836136d9565b9250505090565b600480546107ff90613714565b80601f016020809104026020016040519081016040528092919081815260200182805461082b90613714565b80156108785780601f1061084d57610100808354040283529160200191610878565b820191906000526020600020905b81548152906001019060200180831161085b57829003601f168201915b505050505081565b7f000000000000000000000000000000000000000000000000000000000000000073ffffffffffffffffffffffffffffffffffffffff1633146108ef576040517fb9b3a2c800000000000000000000000000000000000000000000000000000000815260040160405180910390fd5b8073ffffffffffffffffffffffffffffffffffffffff168367ffffffffffffffff167f9c72852172521097ba7e1482e6b44b351323df0155f97f4ea18fcec28e1f59668460405161094291815260200190565b60405180910390a3505050565b7f000000000000000000000000000000000000000000000000000000000000000073ffffffffffffffffffffffffffffffffffffffff1633146109be576040517fb9b3a2c800000000000000000000000000000000000000000000000000000000815260040160405180910390fd5b600054610100900460ff16158080156109de5750600054600160ff909116105b806109f85750303b1580156109f8575060005460ff166001145b610a89576040517f08c379a000000000000000000000000000000000000000000000000000000000815260206004820152602e60248201527f496e697469616c697a61626c653a20636f6e747261637420697320616c72656160448201527f647920696e697469616c697a656400000000000000000000000000000000000060648201526084015b60405180910390fd5b600080547fffffffffffffffffffffffffffffffffffffffffffffffffffffffffffffff001660011790558015610ae757600080547fffffffffffffffffffffffffffffffffffffffffffffffffffffffffffff00ff166101001790555b600080547fffffffffffffffffffff0000000000000000000000000000000000000000ffff166201000073ffffffffffffffffffffffffffffffffffffffff8b81169190910291909117909155600280547fffffffffffffffffffffffff0000000000000000000000000000000000000000169189169190911790556003610b6f84826137b5565b506004610b7c83826137b5565b506007805477ffffffffffffffffffffffffffffffffffffffffffffffff167a06978000000000000000000000000000000000000000000000000017905573ffffffffffffffffffffffffffffffffffffffff8516610c135763ffffffff841615610c13576040517f1a874c1200000000000000000000000000000000000000000000000000000000815260040160405180910390fd5b600880547fffffffffffffff000000000000000000000000000000000000000000000000ff1661010073ffffffffffffffffffffffffffffffffffffffff8816027fffffffffffffff00000000ffffffffffffffffffffffffffffffffffffffffff1617750100000000000000000000000000000000000000000063ffffffff8716021790556000610ca6878787611cc8565b805160208083019190912060408051600093810184905290810182905260608082018490524260c081901b7fffffffffffffffff000000000000000000000000000000000000000000000000166080840152908d901b7fffffffffffffffffffffffffffffffffffffffff00000000000000000000000016608883015293945090929190609c01604080518083037fffffffffffffffffffffffffffffffffffffffffffffffffffffffffffffffe0018152908290528051602090910120600780547fffffffffffffffffffffffffffffffffffffffffffffffff00000000000000001667ffffffffffffffff861617905560058190557f9a908e73000000000000000000000000000000000000000000000000000000008252600160048301526024820181905291506000907f000000000000000000000000000000000000000000000000000000000000000073ffffffffffffffffffffffffffffffffffffffff1690639a908e73906044016020604051808303816000875af1158015610e33573d6000803e3d6000fd5b505050506040513d601f19601f82011682018060405250810190610e5791906138cf565b60405190915067ffffffffffffffff8216907f303446e6a8cb73c83dff421c0b1d5e5ce0719dab1bff13660fc254e58cc17fce90600090a250505050508015610ef757600080547fffffffffffffffffffffffffffffffffffffffffffffffffffffffffffff00ff169055604051600181527f7f26b83ff96e1f2b6a682f133852f6798a09c465da95921460cefb38474024989060200160405180910390a15b5050505050505050565b60005462010000900473ffffffffffffffffffffffffffffffffffffffff163314610f58576040517f4755657900000000000000000000000000000000000000000000000000000000815260040160405180910390fd5b62093a8067ffffffffffffffff82161115610f9f576040517ff5e37f2f00000000000000000000000000000000000000000000000000000000815260040160405180910390fd5b7f000000000000000000000000000000000000000000000000000000000000000073ffffffffffffffffffffffffffffffffffffffff166315064c966040518163ffffffff1660e01b8152600401602060405180830381865afa15801561100a573d6000803e3d6000fd5b505050506040513d601f19601f8201168201806040525081019061102e91906138ec565b6110975760075467ffffffffffffffff7801000000000000000000000000000000000000000000000000909104811690821610611097576040517ff5e37f2f00000000000000000000000000000000000000000000000000000000815260040160405180910390fd5b6007805477ffffffffffffffffffffffffffffffffffffffffffffffff16780100000000000000000000000000000000000000000000000067ffffffffffffffff8416908102919091179091556040519081527fa7eb6cb8a613eb4e8bddc1ac3d61ec6cf10898760f0b187bcca794c6ca6fa40b906020015b60405180910390a150565b600380546107ff90613714565b60025473ffffffffffffffffffffffffffffffffffffffff163314611179576040517f11e7be1500000000000000000000000000000000000000000000000000000000815260040160405180910390fd5b8160008190036111b5576040517fcb591a5f00000000000000000000000000000000000000000000000000000000815260040160405180910390fd5b6103e88111156111f1576040517fb59f753a00000000000000000000000000000000000000000000000000000000815260040160405180910390fd5b60075460055467ffffffffffffffff80831692700100000000000000000000000000000000900416908160005b8581101561162d57600089898381811061123a5761123a61390e565b905060200281019061124c919061393d565b6112559061397b565b8051805160209091012060608201519192509067ffffffffffffffff16156113d8578561128181613a0c565b965050600081836020015184606001516040516020016112d993929190928352602083019190915260c01b7fffffffffffffffff00000000000000000000000000000000000000000000000016604082015260480190565b604080517fffffffffffffffffffffffffffffffffffffffffffffffffffffffffffffffe0818403018152918152815160209283012067ffffffffffffffff8a16600090815260069093529120549091508114611362576040517fce3d755e00000000000000000000000000000000000000000000000000000000815260040160405180910390fd5b826060015167ffffffffffffffff16836040015167ffffffffffffffff1610156113b8576040517f7f7ab87200000000000000000000000000000000000000000000000000000000815260040160405180910390fd5b5067ffffffffffffffff8616600090815260066020526040812055611515565b60208201511580159061149f575060208201516040517f257b363200000000000000000000000000000000000000000000000000000000815260048101919091527f000000000000000000000000000000000000000000000000000000000000000073ffffffffffffffffffffffffffffffffffffffff169063257b3632906024016020604051808303816000875af1158015611479573d6000803e3d6000fd5b505050506040513d601f19601f8201168201806040525081019061149d9190613669565b155b156114d6576040517f73bd668d00000000000000000000000000000000000000000000000000000000815260040160405180910390fd5b8151516201d4c01015611515576040517fa29a6c7c00000000000000000000000000000000000000000000000000000000815260040160405180910390fd5b8667ffffffffffffffff16826040015167ffffffffffffffff161080611548575042826040015167ffffffffffffffff16115b1561157f576040517fea82791600000000000000000000000000000000000000000000000000000000815260040160405180910390fd5b602082810151604080850151815193840189905290830184905260608084019290925260c01b7fffffffffffffffff0000000000000000000000000000000000000000000000001660808301528a901b7fffffffffffffffffffffffffffffffffffffffff000000000000000000000000166088820152609c01604051602081830303815290604052805190602001209450816040015196505050808061162590613a33565b91505061121e565b5060075467ffffffffffffffff6801000000000000000090910481169084161115611684576040517fc630a00d00000000000000000000000000000000000000000000000000000000815260040160405180910390fd5b600780547fffffffffffffffffffffffffffffffffffffffffffffffff00000000000000001667ffffffffffffffff8681169190911790915560058390558590828116908516146117bb5760006116db83866136b1565b90506116f167ffffffffffffffff821683613a6b565b91506117727f00000000000000000000000000000000000000000000000000000000000000008267ffffffffffffffff1661172a6106d2565b6117349190613a84565b73ffffffffffffffffffffffffffffffffffffffff7f0000000000000000000000000000000000000000000000000000000000000000169190612cca565b50600780547fffffffffffffffff0000000000000000ffffffffffffffffffffffffffffffff1670010000000000000000000000000000000067ffffffffffffffff8716021790555b6118b9337f0000000000000000000000000000000000000000000000000000000000000000837f000000000000000000000000000000000000000000000000000000000000000073ffffffffffffffffffffffffffffffffffffffff1663477fa2706040518163ffffffff1660e01b8152600401602060405180830381865afa15801561184c573d6000803e3d6000fd5b505050506040513d601f19601f820116820180604052508101906118709190613669565b61187a9190613a84565b73ffffffffffffffffffffffffffffffffffffffff7f000000000000000000000000000000000000000000000000000000000000000016929190612da3565b7f000000000000000000000000000000000000000000000000000000000000000073ffffffffffffffffffffffffffffffffffffffff166379e2cf976040518163ffffffff1660e01b8152600401600060405180830381600087803b15801561192157600080fd5b505af1158015611935573d6000803e3d6000fd5b50506040517f9a908e7300000000000000000000000000000000000000000000000000000000815267ffffffffffffffff8916600482015260248101869052600092507f000000000000000000000000000000000000000000000000000000000000000073ffffffffffffffffffffffffffffffffffffffff169150639a908e73906044016020604051808303816000875af11580156119d9573d6000803e3d6000fd5b505050506040513d601f19601f820116820180604052508101906119fd91906138cf565b60405190915067ffffffffffffffff8216907f303446e6a8cb73c83dff421c0b1d5e5ce0719dab1bff13660fc254e58cc17fce90600090a250505050505050505050565b60005462010000900473ffffffffffffffffffffffffffffffffffffffff163314611a98576040517f4755657900000000000000000000000000000000000000000000000000000000815260040160405180910390fd5b60085460ff1615611ad5576040517ff6ba91a100000000000000000000000000000000000000000000000000000000815260040160405180910390fd5b600880547fffffffffffffffffffffffffffffffffffffffffffffffffffffffffffffff001660011790556040517f854dd6ce5a1445c4c54388b21cffd11cf5bba1b9e763aec48ce3da75d617412f90600090a1565b60005462010000900473ffffffffffffffffffffffffffffffffffffffff163314611b82576040517f4755657900000000000000000000000000000000000000000000000000000000815260040160405180910390fd5b600280547fffffffffffffffffffffffff00000000000000000000000000000000000000001673ffffffffffffffffffffffffffffffffffffffff83169081179091556040519081527ff54144f9611984021529f814a1cb6a41e22c58351510a0d9f7e822618abb9cc090602001611110565b60015473ffffffffffffffffffffffffffffffffffffffff163314611c46576040517fd1ec4b2300000000000000000000000000000000000000000000000000000000815260040160405180910390fd5b600154600080547fffffffffffffffffffff0000000000000000000000000000000000000000ffff1673ffffffffffffffffffffffffffffffffffffffff9092166201000081029290921790556040519081527f056dc487bbf0795d0bbb1b4f0af523a855503cff740bfb4d5475f7a90c091e8e9060200160405180910390a1565b60606000604051806060016040528060218152602001613ca06021913960405163ffffffff808816602483015273ffffffffffffffffffffffffffffffffffffffff871660448301528516606482015273a40d5f56745a118d0906a34e69aec8c0db1cb8fa6084820152600060a482015260c401604080517fffffffffffffffffffffffffffffffffffffffffffffffffffffffffffffffe0818403018152918152602080830180517bffffffffffffffffffffffffffffffffffffffffffffffffffffffff167fd3476afe000000000000000000000000000000000000000000000000000000001790529051611dc193929101613a9b565b604080517fffffffffffffffffffffffffffffffffffffffffffffffffffffffffffffffe08184030181528282528051602080830191909120600080865291850180855252601b928401929092526405ca1ab1e06060840152635ca1ab1e608084015292509060019060a0016020604051602081039080840390855afa158015611e4f573d6000803e3d6000fd5b50506040517fffffffffffffffffffffffffffffffffffffffffffffffffffffffffffffffe0015191505073ffffffffffffffffffffffffffffffffffffffff8116611ec7576040517fcd16196600000000000000000000000000000000000000000000000000000000815260040160405180910390fd5b604051600090611f0d9084906405ca1ab1e090635ca1ab1e90601b907fff0000000000000000000000000000000000000000000000000000000000000090602001613aca565b604080518083037fffffffffffffffffffffffffffffffffffffffffffffffffffffffffffffffe0018152919052979650505050505050565b60005462010000900473ffffffffffffffffffffffffffffffffffffffff163314611f9d576040517f4755657900000000000000000000000000000000000000000000000000000000815260040160405180910390fd5b600180547fffffffffffffffffffffffff00000000000000000000000000000000000000001673ffffffffffffffffffffffffffffffffffffffff83169081179091556040519081527fa5b56b7906fd0a20e3f35120dd8343db1e12e037a6c90111c7e42885e82a1ce690602001611110565b7f000000000000000000000000000000000000000000000000000000000000000073ffffffffffffffffffffffffffffffffffffffff16331461207f576040517fb9b3a2c800000000000000000000000000000000000000000000000000000000815260040160405180910390fd5b600054610100900460ff161580801561209f5750600054600160ff909116105b806120b95750303b1580156120b9575060005460ff166001145b612145576040517f08c379a000000000000000000000000000000000000000000000000000000000815260206004820152602e60248201527f496e697469616c697a61626c653a20636f6e747261637420697320616c72656160448201527f647920696e697469616c697a65640000000000000000000000000000000000006064820152608401610a80565b600080547fffffffffffffffffffffffffffffffffffffffffffffffffffffffffffffff0016600117905580156121a357600080547fffffffffffffffffffffffffffffffffffffffffffffffffffffffffffff00ff166101001790555b600080547fffffffffffffffffffff0000000000000000000000000000000000000000ffff166201000073ffffffffffffffffffffffffffffffffffffffff8a81169190910291909117909155600280547fffffffffffffffffffffffff000000000000000000000000000000000000000016918816919091179055600361222b86826137b5565b50600461223885826137b5565b506005839055600780547a06978000000000000000000000000000000000000000000000000077ffffffffffffffffffffffffffffffff000000000000000090911667ffffffffffffffff85161717905580156122ec57600080547fffffffffffffffffffffffffffffffffffffffffffffffffffffffffffff00ff169055604051600181527f7f26b83ff96e1f2b6a682f133852f6798a09c465da95921460cefb38474024989060200160405180910390a15b50505050505050565b60005462010000900473ffffffffffffffffffffffffffffffffffffffff16331461234c576040517f4755657900000000000000000000000000000000000000000000000000000000815260040160405180910390fd5b600361235882826137b5565b507f6b8f723a4c7a5335cafae8a598a0aa0301be1387c037dccc085b62add6448b20816040516111109190613190565b604051806060016040528060218152602001613ca06021913981565b60085460ff166123e0576040517f24eff8c300000000000000000000000000000000000000000000000000000000815260040160405180910390fd5b80600081900361241c576040517fcb591a5f00000000000000000000000000000000000000000000000000000000815260040160405180910390fd5b6103e8811115612458576040517fb59f753a00000000000000000000000000000000000000000000000000000000815260040160405180910390fd5b60075467ffffffffffffffff680100000000000000008204811691612493918491700100000000000000000000000000000000900416613b26565b11156124cb576040517fc630a00d00000000000000000000000000000000000000000000000000000000815260040160405180910390fd5b60075460055470010000000000000000000000000000000090910467ffffffffffffffff169060005b8381101561275a5760008686838181106125105761251061390e565b90506020028101906125229190613b39565b61252b90613b6d565b90508361253781613a0c565b825180516020918201208185015160408087015190519499509194506000936125999386939101928352602083019190915260c01b7fffffffffffffffff00000000000000000000000000000000000000000000000016604082015260480190565b604080517fffffffffffffffffffffffffffffffffffffffffffffffffffffffffffffffe0818403018152918152815160209283012067ffffffffffffffff8916600090815260069093529120549091508114612622576040517fce3d755e00000000000000000000000000000000000000000000000000000000815260040160405180910390fd5b67ffffffffffffffff8616600090815260066020526040812055612647600188613a6b565b84036126b65742600760189054906101000a900467ffffffffffffffff1684604001516126749190613beb565b67ffffffffffffffff1611156126b6576040517fc44a082100000000000000000000000000000000000000000000000000000000815260040160405180910390fd5b6020838101516040805192830188905282018490526060808301919091524260c01b7fffffffffffffffff00000000000000000000000000000000000000000000000016608083015233901b7fffffffffffffffffffffffffffffffffffffffff000000000000000000000000166088820152609c01604051602081830303815290604052805190602001209450505050808061275290613a33565b9150506124f4565b506127887f00000000000000000000000000000000000000000000000000000000000000008461172a6106d2565b60058190556007805467ffffffffffffffff848116700100000000000000000000000000000000027fffffffffffffffff0000000000000000ffffffffffffffff000000000000000090921642821617919091179091556040517f9a908e7300000000000000000000000000000000000000000000000000000000815290841660048201526024810182905260009073ffffffffffffffffffffffffffffffffffffffff7f00000000000000000000000000000000000000000000000000000000000000001690639a908e73906044016020604051808303816000875af1158015612877573d6000803e3d6000fd5b505050506040513d601f19601f8201168201806040525081019061289b91906138cf565b60405190915067ffffffffffffffff8216907f648a61dd2438f072f5a1960939abd30f37aea80d2e94c9792ad142d3e0a490a490600090a2505050505050565b60085460ff16612917576040517f24eff8c300000000000000000000000000000000000000000000000000000000815260040160405180910390fd5b60007f000000000000000000000000000000000000000000000000000000000000000073ffffffffffffffffffffffffffffffffffffffff1663604691696040518163ffffffff1660e01b8152600401602060405180830381865afa158015612984573d6000803e3d6000fd5b505050506040513d601f19601f820116820180604052508101906129a89190613669565b9050818111156129e4576040517f2354600f00000000000000000000000000000000000000000000000000000000815260040160405180910390fd5b611388831115612a20576040517fa29a6c7c00000000000000000000000000000000000000000000000000000000815260040160405180910390fd5b612a6273ffffffffffffffffffffffffffffffffffffffff7f000000000000000000000000000000000000000000000000000000000000000016333084612da3565b60007f000000000000000000000000000000000000000000000000000000000000000073ffffffffffffffffffffffffffffffffffffffff16633ed691ef6040518163ffffffff1660e01b8152600401602060405180830381865afa158015612acf573d6000803e3d6000fd5b505050506040513d601f19601f82011682018060405250810190612af39190613669565b600780549192506801000000000000000090910467ffffffffffffffff16906008612b1d83613a0c565b91906101000a81548167ffffffffffffffff021916908367ffffffffffffffff160217905550508484604051612b54929190613c0c565b60408051918290038220602083015281018290527fffffffffffffffff0000000000000000000000000000000000000000000000004260c01b166060820152606801604080518083037fffffffffffffffffffffffffffffffffffffffffffffffffffffffffffffffe0018152918152815160209283012060075468010000000000000000900467ffffffffffffffff1660009081526006909352912055323303612c64576007546040805183815233602082015260609181018290526000918101919091526801000000000000000090910467ffffffffffffffff16907ff94bb37db835f1ab585ee00041849a09b12cd081d77fa15ca070757619cbc9319060800160405180910390a2612cc3565b600760089054906101000a900467ffffffffffffffff1667ffffffffffffffff167ff94bb37db835f1ab585ee00041849a09b12cd081d77fa15ca070757619cbc93182338888604051612cba9493929190613c1c565b60405180910390a25b5050505050565b60405173ffffffffffffffffffffffffffffffffffffffff8316602482015260448101829052612d9e9084907fa9059cbb00000000000000000000000000000000000000000000000000000000906064015b604080517fffffffffffffffffffffffffffffffffffffffffffffffffffffffffffffffe08184030181529190526020810180517bffffffffffffffffffffffffffffffffffffffffffffffffffffffff167fffffffff0000000000000000000000000000000000000000000000000000000090931692909217909152612e07565b505050565b60405173ffffffffffffffffffffffffffffffffffffffff80851660248301528316604482015260648101829052612e019085907f23b872dd0000000000000000000000000000000000000000000000000000000090608401612d1c565b50505050565b6000612e69826040518060400160405280602081526020017f5361666545524332303a206c6f772d6c6576656c2063616c6c206661696c65648152508573ffffffffffffffffffffffffffffffffffffffff16612f139092919063ffffffff16565b805190915015612d9e5780806020019051810190612e8791906138ec565b612d9e576040517f08c379a000000000000000000000000000000000000000000000000000000000815260206004820152602a60248201527f5361666545524332303a204552433230206f7065726174696f6e20646964206e60448201527f6f742073756363656564000000000000000000000000000000000000000000006064820152608401610a80565b6060612f228484600085612f2a565b949350505050565b606082471015612fbc576040517f08c379a000000000000000000000000000000000000000000000000000000000815260206004820152602660248201527f416464726573733a20696e73756666696369656e742062616c616e636520666f60448201527f722063616c6c00000000000000000000000000000000000000000000000000006064820152608401610a80565b6000808673ffffffffffffffffffffffffffffffffffffffff168587604051612fe59190613c8d565b60006040518083038185875af1925050503d8060008114613022576040519150601f19603f3d011682016040523d82523d6000602084013e613027565b606091505b509150915061303887838387613043565b979650505050505050565b606083156130d95782516000036130d25773ffffffffffffffffffffffffffffffffffffffff85163b6130d2576040517f08c379a000000000000000000000000000000000000000000000000000000000815260206004820152601d60248201527f416464726573733a2063616c6c20746f206e6f6e2d636f6e74726163740000006044820152606401610a80565b5081612f22565b612f2283838151156130ee5781518083602001fd5b806040517f08c379a0000000000000000000000000000000000000000000000000000000008152600401610a809190613190565b60005b8381101561313d578181015183820152602001613125565b50506000910152565b6000815180845261315e816020860160208601613122565b601f017fffffffffffffffffffffffffffffffffffffffffffffffffffffffffffffffe0169290920160200192915050565b6020815260006131a36020830184613146565b9392505050565b67ffffffffffffffff811681146131c057600080fd5b50565b803573ffffffffffffffffffffffffffffffffffffffff811681146131e757600080fd5b919050565b60008060006060848603121561320157600080fd5b833561320c816131aa565b925060208401359150613221604085016131c3565b90509250925092565b803563ffffffff811681146131e757600080fd5b7f4e487b7100000000000000000000000000000000000000000000000000000000600052604160045260246000fd5b600082601f83011261327e57600080fd5b813567ffffffffffffffff808211156132995761329961323e565b604051601f83017fffffffffffffffffffffffffffffffffffffffffffffffffffffffffffffffe0908116603f011681019082821181831017156132df576132df61323e565b816040528381528660208588010111156132f857600080fd5b836020870160208301376000602085830101528094505050505092915050565b600080600080600080600060e0888a03121561333357600080fd5b61333c886131c3565b965061334a602089016131c3565b95506133586040890161322a565b9450613366606089016131c3565b93506133746080890161322a565b925060a088013567ffffffffffffffff8082111561339157600080fd5b61339d8b838c0161326d565b935060c08a01359150808211156133b357600080fd5b506133c08a828b0161326d565b91505092959891949750929550565b6000602082840312156133e157600080fd5b81356131a3816131aa565b60008083601f8401126133fe57600080fd5b50813567ffffffffffffffff81111561341657600080fd5b6020830191508360208260051b850101111561343157600080fd5b9250929050565b60008060006040848603121561344d57600080fd5b833567ffffffffffffffff81111561346457600080fd5b613470868287016133ec565b90945092506132219050602085016131c3565b60006020828403121561349557600080fd5b6131a3826131c3565b6000806000606084860312156134b357600080fd5b6134bc8461322a565b92506134ca602085016131c3565b91506132216040850161322a565b60008060008060008060c087890312156134f157600080fd5b6134fa876131c3565b9550613508602088016131c3565b9450604087013567ffffffffffffffff8082111561352557600080fd5b6135318a838b0161326d565b9550606089013591508082111561354757600080fd5b5061355489828a0161326d565b9350506080870135915060a087013561356c816131aa565b809150509295509295509295565b60006020828403121561358c57600080fd5b813567ffffffffffffffff8111156135a357600080fd5b612f228482850161326d565b600080602083850312156135c257600080fd5b823567ffffffffffffffff8111156135d957600080fd5b6135e5858286016133ec565b90969095509350505050565b60008060006040848603121561360657600080fd5b833567ffffffffffffffff8082111561361e57600080fd5b818601915086601f83011261363257600080fd5b81358181111561364157600080fd5b87602082850101111561365357600080fd5b6020928301989097509590910135949350505050565b60006020828403121561367b57600080fd5b5051919050565b7f4e487b7100000000000000000000000000000000000000000000000000000000600052601160045260246000fd5b67ffffffffffffffff8281168282160390808211156136d2576136d2613682565b5092915050565b60008261370f577f4e487b7100000000000000000000000000000000000000000000000000000000600052601260045260246000fd5b500490565b600181811c9082168061372857607f821691505b602082108103613761577f4e487b7100000000000000000000000000000000000000000000000000000000600052602260045260246000fd5b50919050565b601f821115612d9e57600081815260208120601f850160051c8101602086101561378e5750805b601f850160051c820191505b818110156137ad5782815560010161379a565b505050505050565b815167ffffffffffffffff8111156137cf576137cf61323e565b6137e3816137dd8454613714565b84613767565b602080601f83116001811461383657600084156138005750858301515b7fffffffffffffffffffffffffffffffffffffffffffffffffffffffffffffffff600386901b1c1916600185901b1785556137ad565b6000858152602081207fffffffffffffffffffffffffffffffffffffffffffffffffffffffffffffffe08616915b8281101561388357888601518255948401946001909101908401613864565b50858210156138bf57878501517fffffffffffffffffffffffffffffffffffffffffffffffffffffffffffffffff600388901b60f8161c191681555b5050505050600190811b01905550565b6000602082840312156138e157600080fd5b81516131a3816131aa565b6000602082840312156138fe57600080fd5b815180151581146131a357600080fd5b7f4e487b7100000000000000000000000000000000000000000000000000000000600052603260045260246000fd5b600082357fffffffffffffffffffffffffffffffffffffffffffffffffffffffffffffff8183360301811261397157600080fd5b9190910192915050565b60006080823603121561398d57600080fd5b6040516080810167ffffffffffffffff82821081831117156139b1576139b161323e565b8160405284359150808211156139c657600080fd5b506139d33682860161326d565b8252506020830135602082015260408301356139ee816131aa565b60408201526060830135613a01816131aa565b606082015292915050565b600067ffffffffffffffff808316818103613a2957613a29613682565b6001019392505050565b60007fffffffffffffffffffffffffffffffffffffffffffffffffffffffffffffffff8203613a6457613a64613682565b5060010190565b81810381811115613a7e57613a7e613682565b92915050565b8082028115828204841417613a7e57613a7e613682565b60008351613aad818460208801613122565b835190830190613ac1818360208801613122565b01949350505050565b60008651613adc818460208b01613122565b9190910194855250602084019290925260f81b7fff000000000000000000000000000000000000000000000000000000000000009081166040840152166041820152604201919050565b80820180821115613a7e57613a7e613682565b600082357fffffffffffffffffffffffffffffffffffffffffffffffffffffffffffffffa183360301811261397157600080fd5b600060608236031215613b7f57600080fd5b6040516060810167ffffffffffffffff8282108183111715613ba357613ba361323e565b816040528435915080821115613bb857600080fd5b50613bc53682860161326d565b825250602083013560208201526040830135613be0816131aa565b604082015292915050565b67ffffffffffffffff8181168382160190808211156136d2576136d2613682565b8183823760009101908152919050565b84815273ffffffffffffffffffffffffffffffffffffffff8416602082015260606040820152816060820152818360808301376000818301608090810191909152601f9092017fffffffffffffffffffffffffffffffffffffffffffffffffffffffffffffffe01601019392505050565b6000825161397181846020870161312256fef8c380808401c9c380942a3dd3eb832af982ec71669e178424b10dca2ede80b8a4a2646970667358221220b8b9cc96275e330f97fe9d7a8ab9abb8b4daa7d33c46484329c4b87e82b6de6464736f6c63430008140033",
  "linkReferences": {},
  "deployedLinkReferences": {}
}