{
  "_format": "hh-sol-artifact-1",
  "contractName": "PolygonZkEVMTimelock",
  "sourceName": "contracts/PolygonZkEVMTimelock.sol",
  "abi": [
    {
      "inputs": [
        {
          "internalType": "uint256",
          "name": "minDelay",
          "type": "uint256"
        },
        {
          "internalType": "address[]",
          "name": "proposers",
          "type": "address[]"
        },
        {
          "internalType": "address[]",
          "name": "executors",
          "type": "address[]"
        },
        {
          "internalType": "address",
          "name": "admin",
          "type": "address"
        },
        {
          "internalType": "contract PolygonZkEVM",
          "name": "_polygonZkEVM",
          "type": "address"
        }
      ],
      "stateMutability": "nonpayable",
      "type": "constructor"
    },
    {
      "anonymous": false,
      "inputs": [
        {
          "indexed": true,
          "internalType": "bytes32",
          "name": "id",
          "type": "bytes32"
        },
        {
          "indexed": true,
          "internalType": "uint256",
          "name": "index",
          "type": "uint256"
        },
        {
          "indexed": false,
          "internalType": "address",
          "name": "target",
          "type": "address"
        },
        {
          "indexed": false,
          "internalType": "uint256",
          "name": "value",
          "type": "uint256"
        },
        {
          "indexed": false,
          "internalType": "bytes",
          "name": "data",
          "type": "bytes"
        }
      ],
      "name": "CallExecuted",
      "type": "event"
    },
    {
      "anonymous": false,
      "inputs": [
        {
          "indexed": true,
          "internalType": "bytes32",
          "name": "id",
          "type": "bytes32"
        },
        {
          "indexed": true,
          "internalType": "uint256",
          "name": "index",
          "type": "uint256"
        },
        {
          "indexed": false,
          "internalType": "address",
          "name": "target",
          "type": "address"
        },
        {
          "indexed": false,
          "internalType": "uint256",
          "name": "value",
          "type": "uint256"
        },
        {
          "indexed": false,
          "internalType": "bytes",
          "name": "data",
          "type": "bytes"
        },
        {
          "indexed": false,
          "internalType": "bytes32",
          "name": "predecessor",
          "type": "bytes32"
        },
        {
          "indexed": false,
          "internalType": "uint256",
          "name": "delay",
          "type": "uint256"
        }
      ],
      "name": "CallScheduled",
      "type": "event"
    },
    {
      "anonymous": false,
      "inputs": [
        {
          "indexed": true,
          "internalType": "bytes32",
          "name": "id",
          "type": "bytes32"
        }
      ],
      "name": "Cancelled",
      "type": "event"
    },
    {
      "anonymous": false,
      "inputs": [
        {
          "indexed": false,
          "internalType": "uint256",
          "name": "oldDuration",
          "type": "uint256"
        },
        {
          "indexed": false,
          "internalType": "uint256",
          "name": "newDuration",
          "type": "uint256"
        }
      ],
      "name": "MinDelayChange",
      "type": "event"
    },
    {
      "anonymous": false,
      "inputs": [
        {
          "indexed": true,
          "internalType": "bytes32",
          "name": "role",
          "type": "bytes32"
        },
        {
          "indexed": true,
          "internalType": "bytes32",
          "name": "previousAdminRole",
          "type": "bytes32"
        },
        {
          "indexed": true,
          "internalType": "bytes32",
          "name": "newAdminRole",
          "type": "bytes32"
        }
      ],
      "name": "RoleAdminChanged",
      "type": "event"
    },
    {
      "anonymous": false,
      "inputs": [
        {
          "indexed": true,
          "internalType": "bytes32",
          "name": "role",
          "type": "bytes32"
        },
        {
          "indexed": true,
          "internalType": "address",
          "name": "account",
          "type": "address"
        },
        {
          "indexed": true,
          "internalType": "address",
          "name": "sender",
          "type": "address"
        }
      ],
      "name": "RoleGranted",
      "type": "event"
    },
    {
      "anonymous": false,
      "inputs": [
        {
          "indexed": true,
          "internalType": "bytes32",
          "name": "role",
          "type": "bytes32"
        },
        {
          "indexed": true,
          "internalType": "address",
          "name": "account",
          "type": "address"
        },
        {
          "indexed": true,
          "internalType": "address",
          "name": "sender",
          "type": "address"
        }
      ],
      "name": "RoleRevoked",
      "type": "event"
    },
    {
      "inputs": [],
      "name": "CANCELLER_ROLE",
      "outputs": [
        {
          "internalType": "bytes32",
          "name": "",
          "type": "bytes32"
        }
      ],
      "stateMutability": "view",
      "type": "function"
    },
    {
      "inputs": [],
      "name": "DEFAULT_ADMIN_ROLE",
      "outputs": [
        {
          "internalType": "bytes32",
          "name": "",
          "type": "bytes32"
        }
      ],
      "stateMutability": "view",
      "type": "function"
    },
    {
      "inputs": [],
      "name": "EXECUTOR_ROLE",
      "outputs": [
        {
          "internalType": "bytes32",
          "name": "",
          "type": "bytes32"
        }
      ],
      "stateMutability": "view",
      "type": "function"
    },
    {
      "inputs": [],
      "name": "PROPOSER_ROLE",
      "outputs": [
        {
          "internalType": "bytes32",
          "name": "",
          "type": "bytes32"
        }
      ],
      "stateMutability": "view",
      "type": "function"
    },
    {
      "inputs": [],
      "name": "TIMELOCK_ADMIN_ROLE",
      "outputs": [
        {
          "internalType": "bytes32",
          "name": "",
          "type": "bytes32"
        }
      ],
      "stateMutability": "view",
      "type": "function"
    },
    {
      "inputs": [
        {
          "internalType": "bytes32",
          "name": "id",
          "type": "bytes32"
        }
      ],
      "name": "cancel",
      "outputs": [],
      "stateMutability": "nonpayable",
      "type": "function"
    },
    {
      "inputs": [
        {
          "internalType": "address",
          "name": "target",
          "type": "address"
        },
        {
          "internalType": "uint256",
          "name": "value",
          "type": "uint256"
        },
        {
          "internalType": "bytes",
          "name": "payload",
          "type": "bytes"
        },
        {
          "internalType": "bytes32",
          "name": "predecessor",
          "type": "bytes32"
        },
        {
          "internalType": "bytes32",
          "name": "salt",
          "type": "bytes32"
        }
      ],
      "name": "execute",
      "outputs": [],
      "stateMutability": "payable",
      "type": "function"
    },
    {
      "inputs": [
        {
          "internalType": "address[]",
          "name": "targets",
          "type": "address[]"
        },
        {
          "internalType": "uint256[]",
          "name": "values",
          "type": "uint256[]"
        },
        {
          "internalType": "bytes[]",
          "name": "payloads",
          "type": "bytes[]"
        },
        {
          "internalType": "bytes32",
          "name": "predecessor",
          "type": "bytes32"
        },
        {
          "internalType": "bytes32",
          "name": "salt",
          "type": "bytes32"
        }
      ],
      "name": "executeBatch",
      "outputs": [],
      "stateMutability": "payable",
      "type": "function"
    },
    {
      "inputs": [],
      "name": "getMinDelay",
      "outputs": [
        {
          "internalType": "uint256",
          "name": "duration",
          "type": "uint256"
        }
      ],
      "stateMutability": "view",
      "type": "function"
    },
    {
      "inputs": [
        {
          "internalType": "bytes32",
          "name": "role",
          "type": "bytes32"
        }
      ],
      "name": "getRoleAdmin",
      "outputs": [
        {
          "internalType": "bytes32",
          "name": "",
          "type": "bytes32"
        }
      ],
      "stateMutability": "view",
      "type": "function"
    },
    {
      "inputs": [
        {
          "internalType": "bytes32",
          "name": "id",
          "type": "bytes32"
        }
      ],
      "name": "getTimestamp",
      "outputs": [
        {
          "internalType": "uint256",
          "name": "timestamp",
          "type": "uint256"
        }
      ],
      "stateMutability": "view",
      "type": "function"
    },
    {
      "inputs": [
        {
          "internalType": "bytes32",
          "name": "role",
          "type": "bytes32"
        },
        {
          "internalType": "address",
          "name": "account",
          "type": "address"
        }
      ],
      "name": "grantRole",
      "outputs": [],
      "stateMutability": "nonpayable",
      "type": "function"
    },
    {
      "inputs": [
        {
          "internalType": "bytes32",
          "name": "role",
          "type": "bytes32"
        },
        {
          "internalType": "address",
          "name": "account",
          "type": "address"
        }
      ],
      "name": "hasRole",
      "outputs": [
        {
          "internalType": "bool",
          "name": "",
          "type": "bool"
        }
      ],
      "stateMutability": "view",
      "type": "function"
    },
    {
      "inputs": [
        {
          "internalType": "address",
          "name": "target",
          "type": "address"
        },
        {
          "internalType": "uint256",
          "name": "value",
          "type": "uint256"
        },
        {
          "internalType": "bytes",
          "name": "data",
          "type": "bytes"
        },
        {
          "internalType": "bytes32",
          "name": "predecessor",
          "type": "bytes32"
        },
        {
          "internalType": "bytes32",
          "name": "salt",
          "type": "bytes32"
        }
      ],
      "name": "hashOperation",
      "outputs": [
        {
          "internalType": "bytes32",
          "name": "hash",
          "type": "bytes32"
        }
      ],
      "stateMutability": "pure",
      "type": "function"
    },
    {
      "inputs": [
        {
          "internalType": "address[]",
          "name": "targets",
          "type": "address[]"
        },
        {
          "internalType": "uint256[]",
          "name": "values",
          "type": "uint256[]"
        },
        {
          "internalType": "bytes[]",
          "name": "payloads",
          "type": "bytes[]"
        },
        {
          "internalType": "bytes32",
          "name": "predecessor",
          "type": "bytes32"
        },
        {
          "internalType": "bytes32",
          "name": "salt",
          "type": "bytes32"
        }
      ],
      "name": "hashOperationBatch",
      "outputs": [
        {
          "internalType": "bytes32",
          "name": "hash",
          "type": "bytes32"
        }
      ],
      "stateMutability": "pure",
      "type": "function"
    },
    {
      "inputs": [
        {
          "internalType": "bytes32",
          "name": "id",
          "type": "bytes32"
        }
      ],
      "name": "isOperation",
      "outputs": [
        {
          "internalType": "bool",
          "name": "registered",
          "type": "bool"
        }
      ],
      "stateMutability": "view",
      "type": "function"
    },
    {
      "inputs": [
        {
          "internalType": "bytes32",
          "name": "id",
          "type": "bytes32"
        }
      ],
      "name": "isOperationDone",
      "outputs": [
        {
          "internalType": "bool",
          "name": "done",
          "type": "bool"
        }
      ],
      "stateMutability": "view",
      "type": "function"
    },
    {
      "inputs": [
        {
          "internalType": "bytes32",
          "name": "id",
          "type": "bytes32"
        }
      ],
      "name": "isOperationPending",
      "outputs": [
        {
          "internalType": "bool",
          "name": "pending",
          "type": "bool"
        }
      ],
      "stateMutability": "view",
      "type": "function"
    },
    {
      "inputs": [
        {
          "internalType": "bytes32",
          "name": "id",
          "type": "bytes32"
        }
      ],
      "name": "isOperationReady",
      "outputs": [
        {
          "internalType": "bool",
          "name": "ready",
          "type": "bool"
        }
      ],
      "stateMutability": "view",
      "type": "function"
    },
    {
      "inputs": [
        {
          "internalType": "address",
          "name": "",
          "type": "address"
        },
        {
          "internalType": "address",
          "name": "",
          "type": "address"
        },
        {
          "internalType": "uint256[]",
          "name": "",
          "type": "uint256[]"
        },
        {
          "internalType": "uint256[]",
          "name": "",
          "type": "uint256[]"
        },
        {
          "internalType": "bytes",
          "name": "",
          "type": "bytes"
        }
      ],
      "name": "onERC1155BatchReceived",
      "outputs": [
        {
          "internalType": "bytes4",
          "name": "",
          "type": "bytes4"
        }
      ],
      "stateMutability": "nonpayable",
      "type": "function"
    },
    {
      "inputs": [
        {
          "internalType": "address",
          "name": "",
          "type": "address"
        },
        {
          "internalType": "address",
          "name": "",
          "type": "address"
        },
        {
          "internalType": "uint256",
          "name": "",
          "type": "uint256"
        },
        {
          "internalType": "uint256",
          "name": "",
          "type": "uint256"
        },
        {
          "internalType": "bytes",
          "name": "",
          "type": "bytes"
        }
      ],
      "name": "onERC1155Received",
      "outputs": [
        {
          "internalType": "bytes4",
          "name": "",
          "type": "bytes4"
        }
      ],
      "stateMutability": "nonpayable",
      "type": "function"
    },
    {
      "inputs": [
        {
          "internalType": "address",
          "name": "",
          "type": "address"
        },
        {
          "internalType": "address",
          "name": "",
          "type": "address"
        },
        {
          "internalType": "uint256",
          "name": "",
          "type": "uint256"
        },
        {
          "internalType": "bytes",
          "name": "",
          "type": "bytes"
        }
      ],
      "name": "onERC721Received",
      "outputs": [
        {
          "internalType": "bytes4",
          "name": "",
          "type": "bytes4"
        }
      ],
      "stateMutability": "nonpayable",
      "type": "function"
    },
    {
      "inputs": [],
      "name": "polygonZkEVM",
      "outputs": [
        {
          "internalType": "contract PolygonZkEVM",
          "name": "",
          "type": "address"
        }
      ],
      "stateMutability": "view",
      "type": "function"
    },
    {
      "inputs": [
        {
          "internalType": "bytes32",
          "name": "role",
          "type": "bytes32"
        },
        {
          "internalType": "address",
          "name": "account",
          "type": "address"
        }
      ],
      "name": "renounceRole",
      "outputs": [],
      "stateMutability": "nonpayable",
      "type": "function"
    },
    {
      "inputs": [
        {
          "internalType": "bytes32",
          "name": "role",
          "type": "bytes32"
        },
        {
          "internalType": "address",
          "name": "account",
          "type": "address"
        }
      ],
      "name": "revokeRole",
      "outputs": [],
      "stateMutability": "nonpayable",
      "type": "function"
    },
    {
      "inputs": [
        {
          "internalType": "address",
          "name": "target",
          "type": "address"
        },
        {
          "internalType": "uint256",
          "name": "value",
          "type": "uint256"
        },
        {
          "internalType": "bytes",
          "name": "data",
          "type": "bytes"
        },
        {
          "internalType": "bytes32",
          "name": "predecessor",
          "type": "bytes32"
        },
        {
          "internalType": "bytes32",
          "name": "salt",
          "type": "bytes32"
        },
        {
          "internalType": "uint256",
          "name": "delay",
          "type": "uint256"
        }
      ],
      "name": "schedule",
      "outputs": [],
      "stateMutability": "nonpayable",
      "type": "function"
    },
    {
      "inputs": [
        {
          "internalType": "address[]",
          "name": "targets",
          "type": "address[]"
        },
        {
          "internalType": "uint256[]",
          "name": "values",
          "type": "uint256[]"
        },
        {
          "internalType": "bytes[]",
          "name": "payloads",
          "type": "bytes[]"
        },
        {
          "internalType": "bytes32",
          "name": "predecessor",
          "type": "bytes32"
        },
        {
          "internalType": "bytes32",
          "name": "salt",
          "type": "bytes32"
        },
        {
          "internalType": "uint256",
          "name": "delay",
          "type": "uint256"
        }
      ],
      "name": "scheduleBatch",
      "outputs": [],
      "stateMutability": "nonpayable",
      "type": "function"
    },
    {
      "inputs": [
        {
          "internalType": "bytes4",
          "name": "interfaceId",
          "type": "bytes4"
        }
      ],
      "name": "supportsInterface",
      "outputs": [
        {
          "internalType": "bool",
          "name": "",
          "type": "bool"
        }
      ],
      "stateMutability": "view",
      "type": "function"
    },
    {
      "inputs": [
        {
          "internalType": "uint256",
          "name": "newDelay",
          "type": "uint256"
        }
      ],
      "name": "updateDelay",
      "outputs": [],
      "stateMutability": "nonpayable",
      "type": "function"
    },
    {
      "stateMutability": "payable",
      "type": "receive"
    }
  ],
  "bytecode": "0x60a06040523480156200001157600080fd5b50604051620023d0380380620023d083398101604081905262000034916200042b565b8484848462000053600080516020620023508339815191528062000242565b6200007d600080516020620023708339815191526000805160206200235083398151915262000242565b620000a7600080516020620023908339815191526000805160206200235083398151915262000242565b620000d1600080516020620023b08339815191526000805160206200235083398151915262000242565b620000ec60008051602062002350833981519152306200028d565b6001600160a01b0381161562000117576200011760008051602062002350833981519152826200028d565b60005b83518110156200019d5762000161600080516020620023708339815191528583815181106200014d576200014d620004cc565b60200260200101516200028d60201b60201c565b6200018a600080516020620023b08339815191528583815181106200014d576200014d620004cc565b6200019581620004e2565b90506200011a565b5060005b8251811015620001e757620001d4600080516020620023908339815191528483815181106200014d576200014d620004cc565b620001df81620004e2565b9050620001a1565b5060028490556040805160008152602081018690527f11c24f4ead16507c69ac467fbd5e4eed5fb5c699626d2cc6d66421df253886d5910160405180910390a1505050506001600160a01b0316608052506200050a92505050565b600082815260208190526040808220600101805490849055905190918391839186917fbd79b86ffe0ab8e8776151514217cd7cacd52c909f66475c3af44e129f0b00ff9190a4505050565b6200029982826200029d565b5050565b6000828152602081815260408083206001600160a01b038516845290915290205460ff1662000299576000828152602081815260408083206001600160a01b03851684529091529020805460ff19166001179055620002f93390565b6001600160a01b0316816001600160a01b0316837f2f8788117e7eff1d82e926ec794901d17c78024a50270940304540a733656f0d60405160405180910390a45050565b634e487b7160e01b600052604160045260246000fd5b6001600160a01b03811681146200036957600080fd5b50565b8051620003798162000353565b919050565b600082601f8301126200039057600080fd5b815160206001600160401b0380831115620003af57620003af6200033d565b8260051b604051601f19603f83011681018181108482111715620003d757620003d76200033d565b604052938452858101830193838101925087851115620003f657600080fd5b83870191505b84821015620004205762000410826200036c565b83529183019190830190620003fc565b979650505050505050565b600080600080600060a086880312156200044457600080fd5b855160208701519095506001600160401b03808211156200046457600080fd5b6200047289838a016200037e565b955060408801519150808211156200048957600080fd5b5062000498888289016200037e565b9350506060860151620004ab8162000353565b6080870151909250620004be8162000353565b809150509295509295909350565b634e487b7160e01b600052603260045260246000fd5b6000600182016200050357634e487b7160e01b600052601160045260246000fd5b5060010190565b608051611e1c620005346000396000818161034601528181610c920152610cc50152611e1c6000f3fe6080604052600436106101565760003560e01c806301d5062a1461016257806301ffc9a71461018457806307bd0265146101b95780630d3cf6fc146101e9578063134008d31461021d57806313bc9f2014610230578063150b7a0214610250578063248a9ca3146102945780632ab0f529146102b45780632f2ff15d146102d457806331d50750146102f457806336568abe146103145780633a6aae7214610334578063584b153e1461038057806364d62353146103a05780638065657f146103c05780638f2a0bb0146103e05780638f61f4f51461040057806391d1485414610422578063a217fddf14610442578063b08e51c014610457578063b1c5f42714610479578063bc197c8114610499578063c4d252f5146104c5578063d45c4435146104e5578063d547741f14610505578063e38335e514610525578063f23a6e6114610538578063f27a0c921461056457600080fd5b3661015d57005b600080fd5b34801561016e57600080fd5b5061018261017d36600461137d565b610579565b005b34801561019057600080fd5b506101a461019f3660046113f1565b6105ea565b60405190151581526020015b60405180910390f35b3480156101c557600080fd5b506101db600080516020611d8783398151915281565b6040519081526020016101b0565b3480156101f557600080fd5b506101db7f5f58e3a2316349923ce3780f8d587db2d72378aed66a8261c916544fa6846ca581565b61018261022b36600461141b565b610615565b34801561023c57600080fd5b506101a461024b366004611486565b6106a6565b34801561025c57600080fd5b5061027b61026b366004611554565b630a85bd0160e11b949350505050565b6040516001600160e01b031990911681526020016101b0565b3480156102a057600080fd5b506101db6102af366004611486565b6106cb565b3480156102c057600080fd5b506101a46102cf366004611486565b6106e0565b3480156102e057600080fd5b506101826102ef3660046115bb565b6106f4565b34801561030057600080fd5b506101a461030f366004611486565b610715565b34801561032057600080fd5b5061018261032f3660046115bb565b610728565b34801561034057600080fd5b506103687f000000000000000000000000000000000000000000000000000000000000000081565b6040516001600160a01b0390911681526020016101b0565b34801561038c57600080fd5b506101a461039b366004611486565b6107ab565b3480156103ac57600080fd5b506101826103bb366004611486565b6107b8565b3480156103cc57600080fd5b506101db6103db36600461141b565b61085c565b3480156103ec57600080fd5b506101826103fb36600461162b565b61089b565b34801561040c57600080fd5b506101db600080516020611d6783398151915281565b34801561042e57600080fd5b506101a461043d3660046115bb565b6109c9565b34801561044e57600080fd5b506101db600081565b34801561046357600080fd5b506101db600080516020611dc783398151915281565b34801561048557600080fd5b506101db6104943660046116dc565b6109f2565b3480156104a557600080fd5b5061027b6104b4366004611803565b63bc197c8160e01b95945050505050565b3480156104d157600080fd5b506101826104e0366004611486565b610a37565b3480156104f157600080fd5b506101db610500366004611486565b610afa565b34801561051157600080fd5b506101826105203660046115bb565b610b0c565b6101826105333660046116dc565b610b28565b34801561054457600080fd5b5061027b6105533660046118ac565b63f23a6e6160e01b95945050505050565b34801561057057600080fd5b506101db610c8e565b600080516020611d6783398151915261059181610d57565b60006105a189898989898961085c565b90506105ad8184610d64565b600081600080516020611da78339815191528b8b8b8b8b8a6040516105d796959493929190611939565b60405180910390a3505050505050505050565b60006001600160e01b03198216630271189760e51b148061060f575061060f82610e58565b92915050565b600080516020611d8783398151915261062f8160006109c9565b61063d5761063d8133610e8d565b600061064d88888888888861085c565b90506106598185610ee6565b61066588888888610f77565b600081600080516020611d478339815191528a8a8a8a60405161068b9493929190611976565b60405180910390a361069c8161104a565b5050505050505050565b6000806106b283610afa565b90506001811180156106c45750428111155b9392505050565b60009081526020819052604090206001015490565b600060016106ed83610afa565b1492915050565b6106fd826106cb565b61070681610d57565b6107108383611083565b505050565b60008061072183610afa565b1192915050565b6001600160a01b038116331461079d5760405162461bcd60e51b815260206004820152602f60248201527f416363657373436f6e74726f6c3a2063616e206f6e6c792072656e6f756e636560448201526e103937b632b9903337b91039b2b63360891b60648201526084015b60405180910390fd5b6107a78282611107565b5050565b6000600161072183610afa565b33301461081b5760405162461bcd60e51b815260206004820152602b60248201527f54696d656c6f636b436f6e74726f6c6c65723a2063616c6c6572206d7573742060448201526a62652074696d656c6f636b60a81b6064820152608401610794565b60025460408051918252602082018390527f11c24f4ead16507c69ac467fbd5e4eed5fb5c699626d2cc6d66421df253886d5910160405180910390a1600255565b600086868686868660405160200161087996959493929190611939565b6040516020818303038152906040528051906020012090509695505050505050565b600080516020611d678339815191526108b381610d57565b8887146108d25760405162461bcd60e51b8152600401610794906119a8565b8885146108f15760405162461bcd60e51b8152600401610794906119a8565b60006109038b8b8b8b8b8b8b8b6109f2565b905061090f8184610d64565b60005b8a8110156109bb578082600080516020611da78339815191528e8e8581811061093d5761093d6119eb565b90506020020160208101906109529190611a01565b8d8d86818110610964576109646119eb565b905060200201358c8c8781811061097d5761097d6119eb565b905060200281019061098f9190611a1c565b8c8b6040516109a396959493929190611939565b60405180910390a36109b481611a78565b9050610912565b505050505050505050505050565b6000918252602082815260408084206001600160a01b0393909316845291905290205460ff1690565b60008888888888888888604051602001610a13989796959493929190611b22565b60405160208183030381529060405280519060200120905098975050505050505050565b600080516020611dc7833981519152610a4f81610d57565b610a58826107ab565b610abe5760405162461bcd60e51b815260206004820152603160248201527f54696d656c6f636b436f6e74726f6c6c65723a206f7065726174696f6e2063616044820152701b9b9bdd0818994818d85b98d95b1b1959607a1b6064820152608401610794565b6000828152600160205260408082208290555183917fbaa1eb22f2a492ba1a5fea61b8df4d27c6c8b5f3971e63bb58fa14ff72eedb7091a25050565b60009081526001602052604090205490565b610b15826106cb565b610b1e81610d57565b6107108383611107565b600080516020611d87833981519152610b428160006109c9565b610b5057610b508133610e8d565b878614610b6f5760405162461bcd60e51b8152600401610794906119a8565b878414610b8e5760405162461bcd60e51b8152600401610794906119a8565b6000610ba08a8a8a8a8a8a8a8a6109f2565b9050610bac8185610ee6565b60005b89811015610c785760008b8b83818110610bcb57610bcb6119eb565b9050602002016020810190610be09190611a01565b905060008a8a84818110610bf657610bf66119eb565b9050602002013590503660008a8a86818110610c1457610c146119eb565b9050602002810190610c269190611a1c565b91509150610c3684848484610f77565b8486600080516020611d4783398151915286868686604051610c5b9493929190611976565b60405180910390a35050505080610c7190611a78565b9050610baf565b50610c828161104a565b50505050505050505050565b60007f00000000000000000000000000000000000000000000000000000000000000006001600160a01b031615801590610d4557507f00000000000000000000000000000000000000000000000000000000000000006001600160a01b03166315064c966040518163ffffffff1660e01b8152600401602060405180830381865afa158015610d21573d6000803e3d6000fd5b505050506040513d601f19601f82011682018060405250810190610d459190611bc3565b15610d505750600090565b5060025490565b610d618133610e8d565b50565b610d6d82610715565b15610dd25760405162461bcd60e51b815260206004820152602f60248201527f54696d656c6f636b436f6e74726f6c6c65723a206f7065726174696f6e20616c60448201526e1c9958591e481cd8da19591d5b1959608a1b6064820152608401610794565b610dda610c8e565b811015610e385760405162461bcd60e51b815260206004820152602660248201527f54696d656c6f636b436f6e74726f6c6c65723a20696e73756666696369656e746044820152652064656c617960d01b6064820152608401610794565b610e428142611be5565b6000928352600160205260409092209190915550565b60006001600160e01b03198216637965db0b60e01b148061060f57506301ffc9a760e01b6001600160e01b031983161461060f565b610e9782826109c9565b6107a757610ea48161116c565b610eaf83602061117e565b604051602001610ec0929190611c1c565b60408051601f198184030181529082905262461bcd60e51b825261079491600401611c8b565b610eef826106a6565b610f0b5760405162461bcd60e51b815260040161079490611cbe565b801580610f1c5750610f1c816106e0565b6107a75760405162461bcd60e51b815260206004820152602660248201527f54696d656c6f636b436f6e74726f6c6c65723a206d697373696e6720646570656044820152656e64656e637960d01b6064820152608401610794565b6000846001600160a01b0316848484604051610f94929190611d08565b60006040518083038185875af1925050503d8060008114610fd1576040519150601f19603f3d011682016040523d82523d6000602084013e610fd6565b606091505b50509050806110435760405162461bcd60e51b815260206004820152603360248201527f54696d656c6f636b436f6e74726f6c6c65723a20756e6465726c79696e6720746044820152721c985b9cd858dd1a5bdb881c995d995c9d1959606a1b6064820152608401610794565b5050505050565b611053816106a6565b61106f5760405162461bcd60e51b815260040161079490611cbe565b600090815260016020819052604090912055565b61108d82826109c9565b6107a7576000828152602081815260408083206001600160a01b03851684529091529020805460ff191660011790556110c33390565b6001600160a01b0316816001600160a01b0316837f2f8788117e7eff1d82e926ec794901d17c78024a50270940304540a733656f0d60405160405180910390a45050565b61111182826109c9565b156107a7576000828152602081815260408083206001600160a01b0385168085529252808320805460ff1916905551339285917ff6391f5c32d9c69d2a47ea670b442974b53935d1edc7fd64eb21e047a839171b9190a45050565b606061060f6001600160a01b03831660145b6060600061118d836002611d18565b611198906002611be5565b6001600160401b038111156111af576111af61149f565b6040519080825280601f01601f1916602001820160405280156111d9576020820181803683370190505b509050600360fc1b816000815181106111f4576111f46119eb565b60200101906001600160f81b031916908160001a905350600f60fb1b81600181518110611223576112236119eb565b60200101906001600160f81b031916908160001a9053506000611247846002611d18565b611252906001611be5565b90505b60018111156112ca576f181899199a1a9b1b9c1cb0b131b232b360811b85600f1660108110611286576112866119eb565b1a60f81b82828151811061129c5761129c6119eb565b60200101906001600160f81b031916908160001a90535060049490941c936112c381611d2f565b9050611255565b5083156106c45760405162461bcd60e51b815260206004820181905260248201527f537472696e67733a20686578206c656e67746820696e73756666696369656e746044820152606401610794565b80356001600160a01b038116811461133057600080fd5b919050565b60008083601f84011261134757600080fd5b5081356001600160401b0381111561135e57600080fd5b60208301915083602082850101111561137657600080fd5b9250929050565b600080600080600080600060c0888a03121561139857600080fd5b6113a188611319565b96506020880135955060408801356001600160401b038111156113c357600080fd5b6113cf8a828b01611335565b989b979a50986060810135976080820135975060a09091013595509350505050565b60006020828403121561140357600080fd5b81356001600160e01b0319811681146106c457600080fd5b60008060008060008060a0878903121561143457600080fd5b61143d87611319565b95506020870135945060408701356001600160401b0381111561145f57600080fd5b61146b89828a01611335565b979a9699509760608101359660809091013595509350505050565b60006020828403121561149857600080fd5b5035919050565b634e487b7160e01b600052604160045260246000fd5b604051601f8201601f191681016001600160401b03811182821017156114dd576114dd61149f565b604052919050565b600082601f8301126114f657600080fd5b81356001600160401b0381111561150f5761150f61149f565b611522601f8201601f19166020016114b5565b81815284602083860101111561153757600080fd5b816020850160208301376000918101602001919091529392505050565b6000806000806080858703121561156a57600080fd5b61157385611319565b935061158160208601611319565b92506040850135915060608501356001600160401b038111156115a357600080fd5b6115af878288016114e5565b91505092959194509250565b600080604083850312156115ce57600080fd5b823591506115de60208401611319565b90509250929050565b60008083601f8401126115f957600080fd5b5081356001600160401b0381111561161057600080fd5b6020830191508360208260051b850101111561137657600080fd5b600080600080600080600080600060c08a8c03121561164957600080fd5b89356001600160401b038082111561166057600080fd5b61166c8d838e016115e7565b909b50995060208c013591508082111561168557600080fd5b6116918d838e016115e7565b909950975060408c01359150808211156116aa57600080fd5b506116b78c828d016115e7565b9a9d999c50979a969997986060880135976080810135975060a0013595509350505050565b60008060008060008060008060a0898b0312156116f857600080fd5b88356001600160401b038082111561170f57600080fd5b61171b8c838d016115e7565b909a50985060208b013591508082111561173457600080fd5b6117408c838d016115e7565b909850965060408b013591508082111561175957600080fd5b506117668b828c016115e7565b999c989b509699959896976060870135966080013595509350505050565b600082601f83011261179557600080fd5b813560206001600160401b038211156117b0576117b061149f565b8160051b6117bf8282016114b5565b92835284810182019282810190878511156117d957600080fd5b83870192505b848310156117f8578235825291830191908301906117df565b979650505050505050565b600080600080600060a0868803121561181b57600080fd5b61182486611319565b945061183260208701611319565b935060408601356001600160401b038082111561184e57600080fd5b61185a89838a01611784565b9450606088013591508082111561187057600080fd5b61187c89838a01611784565b9350608088013591508082111561189257600080fd5b5061189f888289016114e5565b9150509295509295909350565b600080600080600060a086880312156118c457600080fd5b6118cd86611319565b94506118db60208701611319565b9350604086013592506060860135915060808601356001600160401b0381111561190457600080fd5b61189f888289016114e5565b81835281816020850137506000828201602090810191909152601f909101601f19169091010190565b60018060a01b038716815285602082015260a06040820152600061196160a083018688611910565b60608301949094525060800152949350505050565b60018060a01b038516815283602082015260606040820152600061199e606083018486611910565b9695505050505050565b60208082526023908201527f54696d656c6f636b436f6e74726f6c6c65723a206c656e677468206d69736d616040820152620e8c6d60eb1b606082015260800190565b634e487b7160e01b600052603260045260246000fd5b600060208284031215611a1357600080fd5b6106c482611319565b6000808335601e19843603018112611a3357600080fd5b8301803591506001600160401b03821115611a4d57600080fd5b60200191503681900382131561137657600080fd5b634e487b7160e01b600052601160045260246000fd5b600060018201611a8a57611a8a611a62565b5060010190565b81835260006020808501808196508560051b810191508460005b87811015611b155782840389528135601e19883603018112611acc57600080fd5b870185810190356001600160401b03811115611ae757600080fd5b803603821315611af657600080fd5b611b01868284611910565b9a87019a9550505090840190600101611aab565b5091979650505050505050565b60a0808252810188905260008960c08301825b8b811015611b63576001600160a01b03611b4e84611319565b16825260209283019290910190600101611b35565b5083810360208501528881526001600160fb1b03891115611b8357600080fd5b8860051b9150818a60208301370182810360209081016040850152611bab9082018789611a91565b60608401959095525050608001529695505050505050565b600060208284031215611bd557600080fd5b815180151581146106c457600080fd5b8082018082111561060f5761060f611a62565b60005b83811015611c13578181015183820152602001611bfb565b50506000910152565b76020b1b1b2b9b9a1b7b73a3937b61d1030b1b1b7bab73a1604d1b815260008351611c4e816017850160208801611bf8565b7001034b99036b4b9b9b4b733903937b6329607d1b6017918401918201528351611c7f816028840160208801611bf8565b01602801949350505050565b6020815260008251806020840152611caa816040850160208701611bf8565b601f01601f19169190910160400192915050565b6020808252602a908201527f54696d656c6f636b436f6e74726f6c6c65723a206f7065726174696f6e206973604082015269206e6f7420726561647960b01b606082015260800190565b8183823760009101908152919050565b808202811582820484141761060f5761060f611a62565b600081611d3e57611d3e611a62565b50600019019056fec2617efa69bab66782fa219543714338489c4e9e178271560a91b82c3f612b58b09aa5aeb3702cfd50b6b62bc4532604938f21248a27a1d5ca736082b6819cc1d8aa0f3194971a2a116679f7c2090f6939c8d4e01a2a8d7e41d55e5351469e634cf4410cc57040e44862ef0f45f3dd5a5e02db8eb8add648d4b0e236f1d07dcafd643c72710c63c0180259aba6b2d05451e3591a24e58b62239378085726f783a264697066735822122020cb3b2cb68d6bad0a32c6f2ad43d914add21c49d11bde8ed1ea487a91fd270e64736f6c634300081400335f58e3a2316349923ce3780f8d587db2d72378aed66a8261c916544fa6846ca5b09aa5aeb3702cfd50b6b62bc4532604938f21248a27a1d5ca736082b6819cc1d8aa0f3194971a2a116679f7c2090f6939c8d4e01a2a8d7e41d55e5351469e63fd643c72710c63c0180259aba6b2d05451e3591a24e58b62239378085726f783",
  "linkReferences": {},
  "deployedLinkReferences": {}
}