{
  "_format": "hh-sol-artifact-1",
  "contractName": "PolygonZkEVMDeployer",
  "sourceName": "contracts/deployment/PolygonZkEVMDeployer.sol",
  "abi": [
    {
      "inputs": [
        {
          "internalType": "address",
          "name": "_owner",
          "type": "address"
        }
      ],
      "stateMutability": "nonpayable",
      "type": "constructor"
    },
    {
      "anonymous": false,
      "inputs": [],
      "name": "FunctionCall",
      "type": "event"
    },
    {
      "anonymous": false,
      "inputs": [
        {
          "indexed": false,
          "internalType": "address",
          "name": "newContractAddress",
          "type": "address"
        }
      ],
      "name": "NewDeterministicDeployment",
      "type": "event"
    },
    {
      "anonymous": false,
      "inputs": [
        {
          "indexed": true,
          "internalType": "address",
          "name": "previousOwner",
          "type": "address"
        },
        {
          "indexed": true,
          "internalType": "address",
          "name": "newOwner",
          "type": "address"
        }
      ],
      "name": "OwnershipTransferred",
      "type": "event"
    },
    {
      "inputs": [
        {
          "internalType": "uint256",
          "name": "amount",
          "type": "uint256"
        },
        {
          "internalType": "bytes32",
          "name": "salt",
          "type": "bytes32"
        },
        {
          "internalType": "bytes",
          "name": "initBytecode",
          "type": "bytes"
        }
      ],
      "name": "deployDeterministic",
      "outputs": [],
      "stateMutability": "payable",
      "type": "function"
    },
    {
      "inputs": [
        {
          "internalType": "uint256",
          "name": "amount",
          "type": "uint256"
        },
        {
          "internalType": "bytes32",
          "name": "salt",
          "type": "bytes32"
        },
        {
          "internalType": "bytes",
          "name": "initBytecode",
          "type": "bytes"
        },
        {
          "internalType": "bytes",
          "name": "dataCall",
          "type": "bytes"
        }
      ],
      "name": "deployDeterministicAndCall",
      "outputs": [],
      "stateMutability": "payable",
      "type": "function"
    },
    {
      "inputs": [
        {
          "internalType": "address",
          "name": "targetAddress",
          "type": "address"
        },
        {
          "internalType": "bytes",
          "name": "dataCall",
          "type": "bytes"
        },
        {
          "internalType": "uint256",
          "name": "amount",
          "type": "uint256"
        }
      ],
      "name": "functionCall",
      "outputs": [],
      "stateMutability": "payable",
      "type": "function"
    },
    {
      "inputs": [],
      "name": "owner",
      "outputs": [
        {
          "internalType": "address",
          "name": "",
          "type": "address"
        }
      ],
      "stateMutability": "view",
      "type": "function"
    },
    {
      "inputs": [
        {
          "internalType": "bytes32",
          "name": "salt",
          "type": "bytes32"
        },
        {
          "internalType": "bytes32",
          "name": "bytecodeHash",
          "type": "bytes32"
        }
      ],
      "name": "predictDeterministicAddress",
      "outputs": [
        {
          "internalType": "address",
          "name": "",
          "type": "address"
        }
      ],
      "stateMutability": "view",
      "type": "function"
    },
    {
      "inputs": [],
      "name": "renounceOwnership",
      "outputs": [],
      "stateMutability": "nonpayable",
      "type": "function"
    },
    {
      "inputs": [
        {
          "internalType": "address",
          "name": "newOwner",
          "type": "address"
        }
      ],
      "name": "transferOwnership",
      "outputs": [],
      "stateMutability": "nonpayable",
      "type": "function"
    }
  ],
  "bytecode": "0x608060405234801561000f575f80fd5b50604051610a2d380380610a2d83398101604081905261002e91610095565b61003733610046565b61004081610046565b506100c2565b5f80546001600160a01b038381166001600160a01b0319831681178455604051919092169283917f8be0079c531659141344cd1fd0a4f28419497f9722a3daafe3b4186f6b6457e09190a35050565b5f602082840312156100a5575f80fd5b81516001600160a01b03811681146100bb575f80fd5b9392505050565b61095e806100cf5f395ff3fe60806040526004361061005f575f3560e01c80632b79805a146100635780634a94d487146100785780636d07dbf81461008b578063715018a6146100c05780638da5cb5b146100d4578063e11ae6cb146100e8578063f2fde38b146100fb575b5f80fd5b6100766100713660046106fa565b61011a565b005b610076610086366004610786565b610166565b348015610096575f80fd5b506100aa6100a53660046107d8565b6101a7565b6040516100b791906107f8565b60405180910390f35b3480156100cb575f80fd5b506100766101b9565b3480156100df575f80fd5b506100aa6101cc565b6100766100f636600461080c565b6101da565b348015610106575f80fd5b50610076610115366004610857565b61021a565b610122610298565b5f61012e8585856102f7565b905061013a81836103f5565b505f805160206108e08339815191528160405161015791906107f8565b60405180910390a15050505050565b61016e610298565b610179838383610438565b506040517f25adb19089b6a549831a273acdf7908cff8b7ee5f551f8d1d37996cf01c5df5b905f90a1505050565b5f6101b28383610466565b9392505050565b6101c1610298565b6101ca5f610472565b565b5f546001600160a01b031690565b6101e2610298565b5f6101ee8484846102f7565b90505f805160206108e08339815191528160405161020c91906107f8565b60405180910390a150505050565b610222610298565b6001600160a01b03811661028c5760405162461bcd60e51b815260206004820152602660248201527f4f776e61626c653a206e6577206f776e657220697320746865207a65726f206160448201526564647265737360d01b60648201526084015b60405180910390fd5b61029581610472565b50565b336102a16101cc565b6001600160a01b0316146101ca5760405162461bcd60e51b815260206004820181905260248201527f4f776e61626c653a2063616c6c6572206973206e6f7420746865206f776e65726044820152606401610283565b5f834710156103485760405162461bcd60e51b815260206004820152601d60248201527f437265617465323a20696e73756666696369656e742062616c616e63650000006044820152606401610283565b81515f036103985760405162461bcd60e51b815260206004820181905260248201527f437265617465323a2062797465636f6465206c656e677468206973207a65726f6044820152606401610283565b8282516020840186f590506001600160a01b0381166101b25760405162461bcd60e51b8152602060048201526019602482015278437265617465323a204661696c6564206f6e206465706c6f7960381b6044820152606401610283565b60606101b283835f6040518060400160405280601e81526020017f416464726573733a206c6f772d6c6576656c2063616c6c206661696c656400008152506104c1565b606061045e848484604051806060016040528060298152602001610900602991396104c1565b949350505050565b5f6101b2838330610598565b5f80546001600160a01b038381166001600160a01b0319831681178455604051919092169283917f8be0079c531659141344cd1fd0a4f28419497f9722a3daafe3b4186f6b6457e09190a35050565b6060824710156105225760405162461bcd60e51b815260206004820152602660248201527f416464726573733a20696e73756666696369656e742062616c616e636520666f6044820152651c8818d85b1b60d21b6064820152608401610283565b5f80866001600160a01b0316858760405161053d9190610892565b5f6040518083038185875af1925050503d805f8114610577576040519150601f19603f3d011682016040523d82523d5f602084013e61057c565b606091505b509150915061058d878383876105c1565b979650505050505050565b5f604051836040820152846020820152828152600b8101905060ff815360559020949350505050565b6060831561062f5782515f03610628576001600160a01b0385163b6106285760405162461bcd60e51b815260206004820152601d60248201527f416464726573733a2063616c6c20746f206e6f6e2d636f6e74726163740000006044820152606401610283565b508161045e565b61045e83838151156106445781518083602001fd5b8060405162461bcd60e51b815260040161028391906108ad565b634e487b7160e01b5f52604160045260245ffd5b5f82601f830112610681575f80fd5b81356001600160401b038082111561069b5761069b61065e565b604051601f8301601f19908116603f011681019082821181831017156106c3576106c361065e565b816040528381528660208588010111156106db575f80fd5b836020870160208301375f602085830101528094505050505092915050565b5f805f806080858703121561070d575f80fd5b843593506020850135925060408501356001600160401b0380821115610731575f80fd5b61073d88838901610672565b93506060870135915080821115610752575f80fd5b5061075f87828801610672565b91505092959194509250565b80356001600160a01b0381168114610781575f80fd5b919050565b5f805f60608486031215610798575f80fd5b6107a18461076b565b925060208401356001600160401b038111156107bb575f80fd5b6107c786828701610672565b925050604084013590509250925092565b5f80604083850312156107e9575f80fd5b50508035926020909101359150565b6001600160a01b0391909116815260200190565b5f805f6060848603121561081e575f80fd5b833592506020840135915060408401356001600160401b03811115610841575f80fd5b61084d86828701610672565b9150509250925092565b5f60208284031215610867575f80fd5b6101b28261076b565b5f5b8381101561088a578181015183820152602001610872565b50505f910152565b5f82516108a3818460208701610870565b9190910192915050565b602081525f82518060208401526108cb816040850160208701610870565b601f01601f1916919091016040019291505056feba82f25fed02cd2a23d9f5d11c2ef588d22af5437cbf23bfe61d87257c480e4c416464726573733a206c6f772d6c6576656c2063616c6c20776974682076616c7565206661696c6564a264697066735822122046ca0fbf676689fe3caf41f19380ababfbdb2fd13b798268ec428ddb13b8960064736f6c63430008140033",
  "linkReferences": {},
  "deployedLinkReferences": {}
}