{
  "_format": "hh-sol-artifact-1",
  "contractName": "PolygonZkEVM",
  "sourceName": "contracts/PolygonZkEVM.sol",
  "abi": [
    {
      "inputs": [
        {
          "internalType": "contract IPolygonZkEVMGlobalExitRoot",
          "name": "_globalExitRootManager",
          "type": "address"
        },
        {
          "internalType": "contract IERC20Upgradeable",
          "name": "_matic",
          "type": "address"
        },
        {
          "internalType": "contract IVerifierRollup",
          "name": "_rollupVerifier",
          "type": "address"
        },
        {
          "internalType": "contract IPolygonZkEVMBridge",
          "name": "_bridgeAddress",
          "type": "address"
        },
        {
          "internalType": "uint64",
          "name": "_chainID",
          "type": "uint64"
        },
        {
          "internalType": "uint64",
          "name": "_forkID",
          "type": "uint64"
        }
      ],
      "stateMutability": "nonpayable",
      "type": "constructor"
    },
    {
      "inputs": [],
      "name": "BatchAlreadyVerified",
      "type": "error"
    },
    {
      "inputs": [],
      "name": "BatchNotSequencedOrNotSequenceEnd",
      "type": "error"
    },
    {
      "inputs": [],
      "name": "ExceedMaxVerifyBatches",
      "type": "error"
    },
    {
      "inputs": [],
      "name": "FinalNumBatchBelowLastVerifiedBatch",
      "type": "error"
    },
    {
      "inputs": [],
      "name": "FinalNumBatchDoesNotMatchPendingState",
      "type": "error"
    },
    {
      "inputs": [],
      "name": "FinalPendingStateNumInvalid",
      "type": "error"
    },
    {
      "inputs": [],
      "name": "ForceBatchNotAllowed",
      "type": "error"
    },
    {
      "inputs": [],
      "name": "ForceBatchTimeoutNotExpired",
      "type": "error"
    },
    {
      "inputs": [],
      "name": "ForceBatchesAlreadyActive",
      "type": "error"
    },
    {
      "inputs": [],
      "name": "ForceBatchesOverflow",
      "type": "error"
    },
    {
      "inputs": [],
      "name": "ForcedDataDoesNotMatch",
      "type": "error"
    },
    {
      "inputs": [],
      "name": "GlobalExitRootNotExist",
      "type": "error"
    },
    {
      "inputs": [],
      "name": "HaltTimeoutNotExpired",
      "type": "error"
    },
    {
      "inputs": [],
      "name": "InitNumBatchAboveLastVerifiedBatch",
      "type": "error"
    },
    {
      "inputs": [],
      "name": "InitNumBatchDoesNotMatchPendingState",
      "type": "error"
    },
    {
      "inputs": [],
      "name": "InvalidProof",
      "type": "error"
    },
    {
      "inputs": [],
      "name": "InvalidRangeBatchTimeTarget",
      "type": "error"
    },
    {
      "inputs": [],
      "name": "InvalidRangeForceBatchTimeout",
      "type": "error"
    },
    {
      "inputs": [],
      "name": "InvalidRangeMultiplierBatchFee",
      "type": "error"
    },
    {
      "inputs": [],
      "name": "NewAccInputHashDoesNotExist",
      "type": "error"
    },
    {
      "inputs": [],
      "name": "NewPendingStateTimeoutMustBeLower",
      "type": "error"
    },
    {
      "inputs": [],
      "name": "NewStateRootNotInsidePrime",
      "type": "error"
    },
    {
      "inputs": [],
      "name": "NewTrustedAggregatorTimeoutMustBeLower",
      "type": "error"
    },
    {
      "inputs": [],
      "name": "NotEnoughMaticAmount",
      "type": "error"
    },
    {
      "inputs": [],
      "name": "OldAccInputHashDoesNotExist",
      "type": "error"
    },
    {
      "inputs": [],
      "name": "OldStateRootDoesNotExist",
      "type": "error"
    },
    {
      "inputs": [],
      "name": "OnlyAdmin",
      "type": "error"
    },
    {
      "inputs": [],
      "name": "OnlyEmergencyState",
      "type": "error"
    },
    {
      "inputs": [],
      "name": "OnlyNotEmergencyState",
      "type": "error"
    },
    {
      "inputs": [],
      "name": "OnlyPendingAdmin",
      "type": "error"
    },
    {
      "inputs": [],
      "name": "OnlyTrustedAggregator",
      "type": "error"
    },
    {
      "inputs": [],
      "name": "OnlyTrustedSequencer",
      "type": "error"
    },
    {
      "inputs": [],
      "name": "PendingStateDoesNotExist",
      "type": "error"
    },
    {
      "inputs": [],
      "name": "PendingStateInvalid",
      "type": "error"
    },
    {
      "inputs": [],
      "name": "PendingStateNotConsolidable",
      "type": "error"
    },
    {
      "inputs": [],
      "name": "PendingStateTimeoutExceedHaltAggregationTimeout",
      "type": "error"
    },
    {
      "inputs": [],
      "name": "SequenceZeroBatches",
      "type": "error"
    },
    {
      "inputs": [],
      "name": "SequencedTimestampBelowForcedTimestamp",
      "type": "error"
    },
    {
      "inputs": [],
      "name": "SequencedTimestampInvalid",
      "type": "error"
    },
    {
      "inputs": [],
      "name": "StoredRootMustBeDifferentThanNewRoot",
      "type": "error"
    },
    {
      "inputs": [],
      "name": "TransactionsLengthAboveMax",
      "type": "error"
    },
    {
      "inputs": [],
      "name": "TrustedAggregatorTimeoutExceedHaltAggregationTimeout",
      "type": "error"
    },
    {
      "inputs": [],
      "name": "TrustedAggregatorTimeoutNotExpired",
      "type": "error"
    },
    {
      "anonymous": false,
      "inputs": [
        {
          "indexed": false,
          "internalType": "address",
          "name": "newAdmin",
          "type": "address"
        }
      ],
      "name": "AcceptAdminRole",
      "type": "event"
    },
    {
      "anonymous": false,
      "inputs": [],
      "name": "ActivateForceBatches",
      "type": "event"
    },
    {
      "anonymous": false,
      "inputs": [
        {
          "indexed": true,
          "internalType": "uint64",
          "name": "numBatch",
          "type": "uint64"
        },
        {
          "indexed": false,
          "internalType": "bytes32",
          "name": "stateRoot",
          "type": "bytes32"
        },
        {
          "indexed": true,
          "internalType": "uint64",
          "name": "pendingStateNum",
          "type": "uint64"
        }
      ],
      "name": "ConsolidatePendingState",
      "type": "event"
    },
    {
      "anonymous": false,
      "inputs": [],
      "name": "EmergencyStateActivated",
      "type": "event"
    },
    {
      "anonymous": false,
      "inputs": [],
      "name": "EmergencyStateDeactivated",
      "type": "event"
    },
    {
      "anonymous": false,
      "inputs": [
        {
          "indexed": true,
          "internalType": "uint64",
          "name": "forceBatchNum",
          "type": "uint64"
        },
        {
          "indexed": false,
          "internalType": "bytes32",
          "name": "lastGlobalExitRoot",
          "type": "bytes32"
        },
        {
          "indexed": false,
          "internalType": "address",
          "name": "sequencer",
          "type": "address"
        },
        {
          "indexed": false,
          "internalType": "bytes",
          "name": "transactions",
          "type": "bytes"
        }
      ],
      "name": "ForceBatch",
      "type": "event"
    },
    {
      "anonymous": false,
      "inputs": [
        {
          "indexed": false,
          "internalType": "uint8",
          "name": "version",
          "type": "uint8"
        }
      ],
      "name": "Initialized",
      "type": "event"
    },
    {
      "anonymous": false,
      "inputs": [
        {
          "indexed": true,
          "internalType": "uint64",
          "name": "numBatch",
          "type": "uint64"
        },
        {
          "indexed": false,
          "internalType": "bytes32",
          "name": "stateRoot",
          "type": "bytes32"
        },
        {
          "indexed": true,
          "internalType": "address",
          "name": "aggregator",
          "type": "address"
        }
      ],
      "name": "OverridePendingState",
      "type": "event"
    },
    {
      "anonymous": false,
      "inputs": [
        {
          "indexed": true,
          "internalType": "address",
          "name": "previousOwner",
          "type": "address"
        },
        {
          "indexed": true,
          "internalType": "address",
          "name": "newOwner",
          "type": "address"
        }
      ],
      "name": "OwnershipTransferred",
      "type": "event"
    },
    {
      "anonymous": false,
      "inputs": [
        {
          "indexed": false,
          "internalType": "bytes32",
          "name": "storedStateRoot",
          "type": "bytes32"
        },
        {
          "indexed": false,
          "internalType": "bytes32",
          "name": "provedStateRoot",
          "type": "bytes32"
        }
      ],
      "name": "ProveNonDeterministicPendingState",
      "type": "event"
    },
    {
      "anonymous": false,
      "inputs": [
        {
          "indexed": true,
          "internalType": "uint64",
          "name": "numBatch",
          "type": "uint64"
        }
      ],
      "name": "SequenceBatches",
      "type": "event"
    },
    {
      "anonymous": false,
      "inputs": [
        {
          "indexed": true,
          "internalType": "uint64",
          "name": "numBatch",
          "type": "uint64"
        }
      ],
      "name": "SequenceForceBatches",
      "type": "event"
    },
    {
      "anonymous": false,
      "inputs": [
        {
          "indexed": false,
          "internalType": "uint64",
          "name": "newforceBatchTimeout",
          "type": "uint64"
        }
      ],
      "name": "SetForceBatchTimeout",
      "type": "event"
    },
    {
      "anonymous": false,
      "inputs": [
        {
          "indexed": false,
          "internalType": "uint16",
          "name": "newMultiplierBatchFee",
          "type": "uint16"
        }
      ],
      "name": "SetMultiplierBatchFee",
      "type": "event"
    },
    {
      "anonymous": false,
      "inputs": [
        {
          "indexed": false,
          "internalType": "uint64",
          "name": "newPendingStateTimeout",
          "type": "uint64"
        }
      ],
      "name": "SetPendingStateTimeout",
      "type": "event"
    },
    {
      "anonymous": false,
      "inputs": [
        {
          "indexed": false,
          "internalType": "address",
          "name": "newTrustedAggregator",
          "type": "address"
        }
      ],
      "name": "SetTrustedAggregator",
      "type": "event"
    },
    {
      "anonymous": false,
      "inputs": [
        {
          "indexed": false,
          "internalType": "uint64",
          "name": "newTrustedAggregatorTimeout",
          "type": "uint64"
        }
      ],
      "name": "SetTrustedAggregatorTimeout",
      "type": "event"
    },
    {
      "anonymous": false,
      "inputs": [
        {
          "indexed": false,
          "internalType": "address",
          "name": "newTrustedSequencer",
          "type": "address"
        }
      ],
      "name": "SetTrustedSequencer",
      "type": "event"
    },
    {
      "anonymous": false,
      "inputs": [
        {
          "indexed": false,
          "internalType": "string",
          "name": "newTrustedSequencerURL",
          "type": "string"
        }
      ],
      "name": "SetTrustedSequencerURL",
      "type": "event"
    },
    {
      "anonymous": false,
      "inputs": [
        {
          "indexed": false,
          "internalType": "uint64",
          "name": "newVerifyBatchTimeTarget",
          "type": "uint64"
        }
      ],
      "name": "SetVerifyBatchTimeTarget",
      "type": "event"
    },
    {
      "anonymous": false,
      "inputs": [
        {
          "indexed": false,
          "internalType": "address",
          "name": "newPendingAdmin",
          "type": "address"
        }
      ],
      "name": "TransferAdminRole",
      "type": "event"
    },
    {
      "anonymous": false,
      "inputs": [
        {
          "indexed": false,
          "internalType": "uint64",
          "name": "numBatch",
          "type": "uint64"
        },
        {
          "indexed": false,
          "internalType": "uint64",
          "name": "forkID",
          "type": "uint64"
        },
        {
          "indexed": false,
          "internalType": "string",
          "name": "version",
          "type": "string"
        }
      ],
      "name": "UpdateZkEVMVersion",
      "type": "event"
    },
    {
      "anonymous": false,
      "inputs": [
        {
          "indexed": true,
          "internalType": "uint64",
          "name": "numBatch",
          "type": "uint64"
        },
        {
          "indexed": false,
          "internalType": "bytes32",
          "name": "stateRoot",
          "type": "bytes32"
        },
        {
          "indexed": true,
          "internalType": "address",
          "name": "aggregator",
          "type": "address"
        }
      ],
      "name": "VerifyBatches",
      "type": "event"
    },
    {
      "anonymous": false,
      "inputs": [
        {
          "indexed": true,
          "internalType": "uint64",
          "name": "numBatch",
          "type": "uint64"
        },
        {
          "indexed": false,
          "internalType": "bytes32",
          "name": "stateRoot",
          "type": "bytes32"
        },
        {
          "indexed": true,
          "internalType": "address",
          "name": "aggregator",
          "type": "address"
        }
      ],
      "name": "VerifyBatchesTrustedAggregator",
      "type": "event"
    },
    {
      "inputs": [],
      "name": "acceptAdminRole",
      "outputs": [],
      "stateMutability": "nonpayable",
      "type": "function"
    },
    {
      "inputs": [
        {
          "internalType": "uint64",
          "name": "sequencedBatchNum",
          "type": "uint64"
        }
      ],
      "name": "activateEmergencyState",
      "outputs": [],
      "stateMutability": "nonpayable",
      "type": "function"
    },
    {
      "inputs": [],
      "name": "activateForceBatches",
      "outputs": [],
      "stateMutability": "nonpayable",
      "type": "function"
    },
    {
      "inputs": [],
      "name": "admin",
      "outputs": [
        {
          "internalType": "address",
          "name": "",
          "type": "address"
        }
      ],
      "stateMutability": "view",
      "type": "function"
    },
    {
      "inputs": [],
      "name": "batchFee",
      "outputs": [
        {
          "internalType": "uint256",
          "name": "",
          "type": "uint256"
        }
      ],
      "stateMutability": "view",
      "type": "function"
    },
    {
      "inputs": [
        {
          "internalType": "uint64",
          "name": "",
          "type": "uint64"
        }
      ],
      "name": "batchNumToStateRoot",
      "outputs": [
        {
          "internalType": "bytes32",
          "name": "",
          "type": "bytes32"
        }
      ],
      "stateMutability": "view",
      "type": "function"
    },
    {
      "inputs": [],
      "name": "bridgeAddress",
      "outputs": [
        {
          "internalType": "contract IPolygonZkEVMBridge",
          "name": "",
          "type": "address"
        }
      ],
      "stateMutability": "view",
      "type": "function"
    },
    {
      "inputs": [],
      "name": "calculateRewardPerBatch",
      "outputs": [
        {
          "internalType": "uint256",
          "name": "",
          "type": "uint256"
        }
      ],
      "stateMutability": "view",
      "type": "function"
    },
    {
      "inputs": [],
      "name": "chainID",
      "outputs": [
        {
          "internalType": "uint64",
          "name": "",
          "type": "uint64"
        }
      ],
      "stateMutability": "view",
      "type": "function"
    },
    {
      "inputs": [
        {
          "internalType": "uint256",
          "name": "newStateRoot",
          "type": "uint256"
        }
      ],
      "name": "checkStateRootInsidePrime",
      "outputs": [
        {
          "internalType": "bool",
          "name": "",
          "type": "bool"
        }
      ],
      "stateMutability": "pure",
      "type": "function"
    },
    {
      "inputs": [
        {
          "internalType": "uint64",
          "name": "pendingStateNum",
          "type": "uint64"
        }
      ],
      "name": "consolidatePendingState",
      "outputs": [],
      "stateMutability": "nonpayable",
      "type": "function"
    },
    {
      "inputs": [],
      "name": "deactivateEmergencyState",
      "outputs": [],
      "stateMutability": "nonpayable",
      "type": "function"
    },
    {
      "inputs": [
        {
          "internalType": "bytes",
          "name": "transactions",
          "type": "bytes"
        },
        {
          "internalType": "uint256",
          "name": "maticAmount",
          "type": "uint256"
        }
      ],
      "name": "forceBatch",
      "outputs": [],
      "stateMutability": "nonpayable",
      "type": "function"
    },
    {
      "inputs": [],
      "name": "forceBatchTimeout",
      "outputs": [
        {
          "internalType": "uint64",
          "name": "",
          "type": "uint64"
        }
      ],
      "stateMutability": "view",
      "type": "function"
    },
    {
      "inputs": [
        {
          "internalType": "uint64",
          "name": "",
          "type": "uint64"
        }
      ],
      "name": "forcedBatches",
      "outputs": [
        {
          "internalType": "bytes32",
          "name": "",
          "type": "bytes32"
        }
      ],
      "stateMutability": "view",
      "type": "function"
    },
    {
      "inputs": [],
      "name": "forkID",
      "outputs": [
        {
          "internalType": "uint64",
          "name": "",
          "type": "uint64"
        }
      ],
      "stateMutability": "view",
      "type": "function"
    },
    {
      "inputs": [],
      "name": "getForcedBatchFee",
      "outputs": [
        {
          "internalType": "uint256",
          "name": "",
          "type": "uint256"
        }
      ],
      "stateMutability": "view",
      "type": "function"
    },
    {
      "inputs": [
        {
          "internalType": "uint64",
          "name": "initNumBatch",
          "type": "uint64"
        },
        {
          "internalType": "uint64",
          "name": "finalNewBatch",
          "type": "uint64"
        },
        {
          "internalType": "bytes32",
          "name": "newLocalExitRoot",
          "type": "bytes32"
        },
        {
          "internalType": "bytes32",
          "name": "oldStateRoot",
          "type": "bytes32"
        },
        {
          "internalType": "bytes32",
          "name": "newStateRoot",
          "type": "bytes32"
        }
      ],
      "name": "getInputSnarkBytes",
      "outputs": [
        {
          "internalType": "bytes",
          "name": "",
          "type": "bytes"
        }
      ],
      "stateMutability": "view",
      "type": "function"
    },
    {
      "inputs": [],
      "name": "getLastVerifiedBatch",
      "outputs": [
        {
          "internalType": "uint64",
          "name": "",
          "type": "uint64"
        }
      ],
      "stateMutability": "view",
      "type": "function"
    },
    {
      "inputs": [],
      "name": "globalExitRootManager",
      "outputs": [
        {
          "internalType": "contract IPolygonZkEVMGlobalExitRoot",
          "name": "",
          "type": "address"
        }
      ],
      "stateMutability": "view",
      "type": "function"
    },
    {
      "inputs": [
        {
          "components": [
            {
              "internalType": "address",
              "name": "admin",
              "type": "address"
            },
            {
              "internalType": "address",
              "name": "trustedSequencer",
              "type": "address"
            },
            {
              "internalType": "uint64",
              "name": "pendingStateTimeout",
              "type": "uint64"
            },
            {
              "internalType": "address",
              "name": "trustedAggregator",
              "type": "address"
            },
            {
              "internalType": "uint64",
              "name": "trustedAggregatorTimeout",
              "type": "uint64"
            }
          ],
          "internalType": "struct PolygonZkEVM.InitializePackedParameters",
          "name": "initializePackedParameters",
          "type": "tuple"
        },
        {
          "internalType": "bytes32",
          "name": "genesisRoot",
          "type": "bytes32"
        },
        {
          "internalType": "string",
          "name": "_trustedSequencerURL",
          "type": "string"
        },
        {
          "internalType": "string",
          "name": "_networkName",
          "type": "string"
        },
        {
          "internalType": "string",
          "name": "_version",
          "type": "string"
        }
      ],
      "name": "initialize",
      "outputs": [],
      "stateMutability": "nonpayable",
      "type": "function"
    },
    {
      "inputs": [],
      "name": "isEmergencyState",
      "outputs": [
        {
          "internalType": "bool",
          "name": "",
          "type": "bool"
        }
      ],
      "stateMutability": "view",
      "type": "function"
    },
    {
      "inputs": [],
      "name": "isForcedBatchDisallowed",
      "outputs": [
        {
          "internalType": "bool",
          "name": "",
          "type": "bool"
        }
      ],
      "stateMutability": "view",
      "type": "function"
    },
    {
      "inputs": [
        {
          "internalType": "uint64",
          "name": "pendingStateNum",
          "type": "uint64"
        }
      ],
      "name": "isPendingStateConsolidable",
      "outputs": [
        {
          "internalType": "bool",
          "name": "",
          "type": "bool"
        }
      ],
      "stateMutability": "view",
      "type": "function"
    },
    {
      "inputs": [],
      "name": "lastBatchSequenced",
      "outputs": [
        {
          "internalType": "uint64",
          "name": "",
          "type": "uint64"
        }
      ],
      "stateMutability": "view",
      "type": "function"
    },
    {
      "inputs": [],
      "name": "lastForceBatch",
      "outputs": [
        {
          "internalType": "uint64",
          "name": "",
          "type": "uint64"
        }
      ],
      "stateMutability": "view",
      "type": "function"
    },
    {
      "inputs": [],
      "name": "lastForceBatchSequenced",
      "outputs": [
        {
          "internalType": "uint64",
          "name": "",
          "type": "uint64"
        }
      ],
      "stateMutability": "view",
      "type": "function"
    },
    {
      "inputs": [],
      "name": "lastPendingState",
      "outputs": [
        {
          "internalType": "uint64",
          "name": "",
          "type": "uint64"
        }
      ],
      "stateMutability": "view",
      "type": "function"
    },
    {
      "inputs": [],
      "name": "lastPendingStateConsolidated",
      "outputs": [
        {
          "internalType": "uint64",
          "name": "",
          "type": "uint64"
        }
      ],
      "stateMutability": "view",
      "type": "function"
    },
    {
      "inputs": [],
      "name": "lastTimestamp",
      "outputs": [
        {
          "internalType": "uint64",
          "name": "",
          "type": "uint64"
        }
      ],
      "stateMutability": "view",
      "type": "function"
    },
    {
      "inputs": [],
      "name": "lastVerifiedBatch",
      "outputs": [
        {
          "internalType": "uint64",
          "name": "",
          "type": "uint64"
        }
      ],
      "stateMutability": "view",
      "type": "function"
    },
    {
      "inputs": [],
      "name": "matic",
      "outputs": [
        {
          "internalType": "contract IERC20Upgradeable",
          "name": "",
          "type": "address"
        }
      ],
      "stateMutability": "view",
      "type": "function"
    },
    {
      "inputs": [],
      "name": "multiplierBatchFee",
      "outputs": [
        {
          "internalType": "uint16",
          "name": "",
          "type": "uint16"
        }
      ],
      "stateMutability": "view",
      "type": "function"
    },
    {
      "inputs": [],
      "name": "networkName",
      "outputs": [
        {
          "internalType": "string",
          "name": "",
          "type": "string"
        }
      ],
      "stateMutability": "view",
      "type": "function"
    },
    {
      "inputs": [
        {
          "internalType": "uint64",
          "name": "initPendingStateNum",
          "type": "uint64"
        },
        {
          "internalType": "uint64",
          "name": "finalPendingStateNum",
          "type": "uint64"
        },
        {
          "internalType": "uint64",
          "name": "initNumBatch",
          "type": "uint64"
        },
        {
          "internalType": "uint64",
          "name": "finalNewBatch",
          "type": "uint64"
        },
        {
          "internalType": "bytes32",
          "name": "newLocalExitRoot",
          "type": "bytes32"
        },
        {
          "internalType": "bytes32",
          "name": "newStateRoot",
          "type": "bytes32"
        },
        {
          "internalType": "bytes32[24]",
          "name": "proof",
          "type": "bytes32[24]"
        }
      ],
      "name": "overridePendingState",
      "outputs": [],
      "stateMutability": "nonpayable",
      "type": "function"
    },
    {
      "inputs": [],
      "name": "owner",
      "outputs": [
        {
          "internalType": "address",
          "name": "",
          "type": "address"
        }
      ],
      "stateMutability": "view",
      "type": "function"
    },
    {
      "inputs": [],
      "name": "pendingAdmin",
      "outputs": [
        {
          "internalType": "address",
          "name": "",
          "type": "address"
        }
      ],
      "stateMutability": "view",
      "type": "function"
    },
    {
      "inputs": [],
      "name": "pendingStateTimeout",
      "outputs": [
        {
          "internalType": "uint64",
          "name": "",
          "type": "uint64"
        }
      ],
      "stateMutability": "view",
      "type": "function"
    },
    {
      "inputs": [
        {
          "internalType": "uint256",
          "name": "",
          "type": "uint256"
        }
      ],
      "name": "pendingStateTransitions",
      "outputs": [
        {
          "internalType": "uint64",
          "name": "timestamp",
          "type": "uint64"
        },
        {
          "internalType": "uint64",
          "name": "lastVerifiedBatch",
          "type": "uint64"
        },
        {
          "internalType": "bytes32",
          "name": "exitRoot",
          "type": "bytes32"
        },
        {
          "internalType": "bytes32",
          "name": "stateRoot",
          "type": "bytes32"
        }
      ],
      "stateMutability": "view",
      "type": "function"
    },
    {
      "inputs": [
        {
          "internalType": "uint64",
          "name": "initPendingStateNum",
          "type": "uint64"
        },
        {
          "internalType": "uint64",
          "name": "finalPendingStateNum",
          "type": "uint64"
        },
        {
          "internalType": "uint64",
          "name": "initNumBatch",
          "type": "uint64"
        },
        {
          "internalType": "uint64",
          "name": "finalNewBatch",
          "type": "uint64"
        },
        {
          "internalType": "bytes32",
          "name": "newLocalExitRoot",
          "type": "bytes32"
        },
        {
          "internalType": "bytes32",
          "name": "newStateRoot",
          "type": "bytes32"
        },
        {
          "internalType": "bytes32[24]",
          "name": "proof",
          "type": "bytes32[24]"
        }
      ],
      "name": "proveNonDeterministicPendingState",
      "outputs": [],
      "stateMutability": "nonpayable",
      "type": "function"
    },
    {
      "inputs": [],
      "name": "renounceOwnership",
      "outputs": [],
      "stateMutability": "nonpayable",
      "type": "function"
    },
    {
      "inputs": [],
      "name": "rollupVerifier",
      "outputs": [
        {
          "internalType": "contract IVerifierRollup",
          "name": "",
          "type": "address"
        }
      ],
      "stateMutability": "view",
      "type": "function"
    },
    {
      "inputs": [
        {
          "components": [
            {
              "internalType": "bytes",
              "name": "transactions",
              "type": "bytes"
            },
            {
              "internalType": "bytes32",
              "name": "globalExitRoot",
              "type": "bytes32"
            },
            {
              "internalType": "uint64",
              "name": "timestamp",
              "type": "uint64"
            },
            {
              "internalType": "uint64",
              "name": "minForcedTimestamp",
              "type": "uint64"
            }
          ],
          "internalType": "struct PolygonZkEVM.BatchData[]",
          "name": "batches",
          "type": "tuple[]"
        },
        {
          "internalType": "address",
          "name": "l2Coinbase",
          "type": "address"
        }
      ],
      "name": "sequenceBatches",
      "outputs": [],
      "stateMutability": "nonpayable",
      "type": "function"
    },
    {
      "inputs": [
        {
          "components": [
            {
              "internalType": "bytes",
              "name": "transactions",
              "type": "bytes"
            },
            {
              "internalType": "bytes32",
              "name": "globalExitRoot",
              "type": "bytes32"
            },
            {
              "internalType": "uint64",
              "name": "minForcedTimestamp",
              "type": "uint64"
            }
          ],
          "internalType": "struct PolygonZkEVM.ForcedBatchData[]",
          "name": "batches",
          "type": "tuple[]"
        }
      ],
      "name": "sequenceForceBatches",
      "outputs": [],
      "stateMutability": "nonpayable",
      "type": "function"
    },
    {
      "inputs": [
        {
          "internalType": "uint64",
          "name": "",
          "type": "uint64"
        }
      ],
      "name": "sequencedBatches",
      "outputs": [
        {
          "internalType": "bytes32",
          "name": "accInputHash",
          "type": "bytes32"
        },
        {
          "internalType": "uint64",
          "name": "sequencedTimestamp",
          "type": "uint64"
        },
        {
          "internalType": "uint64",
          "name": "previousLastBatchSequenced",
          "type": "uint64"
        }
      ],
      "stateMutability": "view",
      "type": "function"
    },
    {
      "inputs": [
        {
          "internalType": "uint64",
          "name": "newforceBatchTimeout",
          "type": "uint64"
        }
      ],
      "name": "setForceBatchTimeout",
      "outputs": [],
      "stateMutability": "nonpayable",
      "type": "function"
    },
    {
      "inputs": [
        {
          "internalType": "uint16",
          "name": "newMultiplierBatchFee",
          "type": "uint16"
        }
      ],
      "name": "setMultiplierBatchFee",
      "outputs": [],
      "stateMutability": "nonpayable",
      "type": "function"
    },
    {
      "inputs": [
        {
          "internalType": "uint64",
          "name": "newPendingStateTimeout",
          "type": "uint64"
        }
      ],
      "name": "setPendingStateTimeout",
      "outputs": [],
      "stateMutability": "nonpayable",
      "type": "function"
    },
    {
      "inputs": [
        {
          "internalType": "address",
          "name": "newTrustedAggregator",
          "type": "address"
        }
      ],
      "name": "setTrustedAggregator",
      "outputs": [],
      "stateMutability": "nonpayable",
      "type": "function"
    },
    {
      "inputs": [
        {
          "internalType": "uint64",
          "name": "newTrustedAggregatorTimeout",
          "type": "uint64"
        }
      ],
      "name": "setTrustedAggregatorTimeout",
      "outputs": [],
      "stateMutability": "nonpayable",
      "type": "function"
    },
    {
      "inputs": [
        {
          "internalType": "address",
          "name": "newTrustedSequencer",
          "type": "address"
        }
      ],
      "name": "setTrustedSequencer",
      "outputs": [],
      "stateMutability": "nonpayable",
      "type": "function"
    },
    {
      "inputs": [
        {
          "internalType": "string",
          "name": "newTrustedSequencerURL",
          "type": "string"
        }
      ],
      "name": "setTrustedSequencerURL",
      "outputs": [],
      "stateMutability": "nonpayable",
      "type": "function"
    },
    {
      "inputs": [
        {
          "internalType": "uint64",
          "name": "newVerifyBatchTimeTarget",
          "type": "uint64"
        }
      ],
      "name": "setVerifyBatchTimeTarget",
      "outputs": [],
      "stateMutability": "nonpayable",
      "type": "function"
    },
    {
      "inputs": [
        {
          "internalType": "address",
          "name": "newPendingAdmin",
          "type": "address"
        }
      ],
      "name": "transferAdminRole",
      "outputs": [],
      "stateMutability": "nonpayable",
      "type": "function"
    },
    {
      "inputs": [
        {
          "internalType": "address",
          "name": "newOwner",
          "type": "address"
        }
      ],
      "name": "transferOwnership",
      "outputs": [],
      "stateMutability": "nonpayable",
      "type": "function"
    },
    {
      "inputs": [],
      "name": "trustedAggregator",
      "outputs": [
        {
          "internalType": "address",
          "name": "",
          "type": "address"
        }
      ],
      "stateMutability": "view",
      "type": "function"
    },
    {
      "inputs": [],
      "name": "trustedAggregatorTimeout",
      "outputs": [
        {
          "internalType": "uint64",
          "name": "",
          "type": "uint64"
        }
      ],
      "stateMutability": "view",
      "type": "function"
    },
    {
      "inputs": [],
      "name": "trustedSequencer",
      "outputs": [
        {
          "internalType": "address",
          "name": "",
          "type": "address"
        }
      ],
      "stateMutability": "view",
      "type": "function"
    },
    {
      "inputs": [],
      "name": "trustedSequencerURL",
      "outputs": [
        {
          "internalType": "string",
          "name": "",
          "type": "string"
        }
      ],
      "stateMutability": "view",
      "type": "function"
    },
    {
      "inputs": [],
      "name": "verifyBatchTimeTarget",
      "outputs": [
        {
          "internalType": "uint64",
          "name": "",
          "type": "uint64"
        }
      ],
      "stateMutability": "view",
      "type": "function"
    },
    {
      "inputs": [
        {
          "internalType": "uint64",
          "name": "pendingStateNum",
          "type": "uint64"
        },
        {
          "internalType": "uint64",
          "name": "initNumBatch",
          "type": "uint64"
        },
        {
          "internalType": "uint64",
          "name": "finalNewBatch",
          "type": "uint64"
        },
        {
          "internalType": "bytes32",
          "name": "newLocalExitRoot",
          "type": "bytes32"
        },
        {
          "internalType": "bytes32",
          "name": "newStateRoot",
          "type": "bytes32"
        },
        {
          "internalType": "bytes32[24]",
          "name": "proof",
          "type": "bytes32[24]"
        }
      ],
      "name": "verifyBatches",
      "outputs": [],
      "stateMutability": "nonpayable",
      "type": "function"
    },
    {
      "inputs": [
        {
          "internalType": "uint64",
          "name": "pendingStateNum",
          "type": "uint64"
        },
        {
          "internalType": "uint64",
          "name": "initNumBatch",
          "type": "uint64"
        },
        {
          "internalType": "uint64",
          "name": "finalNewBatch",
          "type": "uint64"
        },
        {
          "internalType": "bytes32",
          "name": "newLocalExitRoot",
          "type": "bytes32"
        },
        {
          "internalType": "bytes32",
          "name": "newStateRoot",
          "type": "bytes32"
        },
        {
          "internalType": "bytes32[24]",
          "name": "proof",
          "type": "bytes32[24]"
        }
      ],
      "name": "verifyBatchesTrustedAggregator",
      "outputs": [],
      "stateMutability": "nonpayable",
      "type": "function"
    }
  ],
  "bytecode": "0x6101406040523480156200001257600080fd5b50604051620048fa380380620048fa8339810160408190526200003591620000a5565b6001600160a01b0395861660c05293851660805291841660a05290921660e0526001600160401b0391821661010052166101205262000131565b6001600160a01b03811681146200008557600080fd5b50565b80516001600160401b0381168114620000a057600080fd5b919050565b60008060008060008060c08789031215620000bf57600080fd5b8651620000cc816200006f565b6020880151909650620000df816200006f565b6040880151909550620000f2816200006f565b606088015190945062000105816200006f565b9250620001156080880162000088565b91506200012560a0880162000088565b90509295509295509295565b60805160a05160c05160e05161010051610120516146fb620001ff6000396000818161055901528181610b2301526123e90152600081816106930152610af9015260008181610659015281816115b401528181612823015261376f0152600081816107cb01528181610c2101528181610d6f015281816112ee0152818161185101528181612974015261331801526000818161085401528181612e20015261316a0152600081816107420152818161158201528181611bee015281816129480152612ee701526146fb6000f3fe608060405234801561001057600080fd5b50600436106102da5760003560e01c8063841b24d711610184578063841b24d7146105e95780638c3d7301146106035780638da5cb5b1461060b57806399f5634e146106135780639aa972a31461061b5780639c9f3dfe1461062e578063a066215c14610641578063a3c573eb14610654578063ada8f9191461067b578063adc879e91461068e578063afd23cbe146106b5578063b4d63f58146106dd578063b6b0b0971461073d578063ba58ae3914610764578063c0ed84e014610777578063c754c7ed1461077f578063c89e42df14610799578063cfa8ed47146107ac578063d02103ca146107c6578063d2e129f9146107ed578063d8d1091b14610800578063d939b31514610813578063dbc169761461082d578063e7a7ed0214610835578063e8bf92ed1461084f578063eaeb077b14610876578063ed6b010414610889578063f14916d61461089d578063f2fde38b146108b0578063f851a440146108c3578063f8b823e4146108d657600080fd5b80630a0d9fbe146102df578063107bf28c1461030d57806315064c96146103225780631816b7e51461033f57806319d8ac6114610354578063220d789914610367578063267822471461037a578063298789831461039a5780632b0006fa146103b45780632c1f816a146103c7578063383b3be8146103da578063394218e9146103ed578063423fa85614610400578063456052671461041a578063458c0477146104345780634a1a89a7146104475780634a910e6a146104615780634e487706146104745780635392c5e014610487578063542028d5146104b55780635e9145c9146104bd5780635ec91958146104d057806360469169146104d8578063621dd411146104e05780636b8616ce146104f35780636ff512cc14610513578063715018a6146105265780637215541a1461052e5780637fcb365314610541578063831c7ead14610554578063837a47381461057b575b600080fd5b606f546102f79061010090046001600160401b031681565b6040516103049190613bb4565b60405180910390f35b6103156108df565b6040516103049190613c18565b606f5461032f9060ff1681565b6040519015158152602001610304565b61035261034d366004613c32565b61096d565b005b6073546102f7906001600160401b031681565b610315610375366004613c6d565b610a26565b607b5461038d906001600160a01b031681565b6040516103049190613cba565b60745461038d90600160401b90046001600160a01b031681565b6103526103c2366004613ce6565b610b81565b6103526103d5366004613d4e565b610cce565b61032f6103e8366004613dc8565b610e32565b6103526103fb366004613dc8565b610e79565b6073546102f790600160401b90046001600160401b031681565b6073546102f790600160801b90046001600160401b031681565b6079546102f7906001600160401b031681565b6079546102f790600160401b90046001600160401b031681565b61035261046f366004613dc8565b610f61565b610352610482366004613dc8565b610fd0565b6104a7610495366004613dc8565b60756020526000908152604090205481565b604051908152602001610304565b6103156110bc565b6103526104cb366004613e45565b6110c9565b610352611665565b6104a76116f2565b6103526104ee366004613ce6565b611708565b6104a7610501366004613dc8565b60716020526000908152604090205481565b610352610521366004613e98565b6119a8565b610352611a27565b61035261053c366004613dc8565b611a3b565b6074546102f7906001600160401b031681565b6102f77f000000000000000000000000000000000000000000000000000000000000000081565b6105be610589366004613eb3565b6078602052600090815260409020805460018201546002909201546001600160401b0380831693600160401b90930416919084565b604080516001600160401b039586168152949093166020850152918301526060820152608001610304565b6079546102f790600160c01b90046001600160401b031681565b610352611b56565b61038d611bda565b6104a7611be9565b610352610629366004613d4e565b611cf6565b61035261063c366004613dc8565b611d8d565b61035261064f366004613dc8565b611e79565b61038d7f000000000000000000000000000000000000000000000000000000000000000081565b610352610689366004613e98565b611f21565b6102f77f000000000000000000000000000000000000000000000000000000000000000081565b606f546106ca90600160481b900461ffff1681565b60405161ffff9091168152602001610304565b6107186106eb366004613dc8565b607260205260009081526040902080546001909101546001600160401b0380821691600160401b90041683565b604080519384526001600160401b039283166020850152911690820152606001610304565b61038d7f000000000000000000000000000000000000000000000000000000000000000081565b61032f610772366004613eb3565b611f97565b6102f761201e565b607b546102f790600160a01b90046001600160401b031681565b6103526107a7366004613f6e565b61206b565b606f5461038d90600160581b90046001600160a01b031681565b61038d7f000000000000000000000000000000000000000000000000000000000000000081565b6103526107fb366004613fe3565b6120d2565b61035261080e366004614095565b612470565b6079546102f790600160801b90046001600160401b031681565b6103526127f6565b6073546102f790600160c01b90046001600160401b031681565b61038d7f000000000000000000000000000000000000000000000000000000000000000081565b6103526108843660046140d6565b61289c565b607b5461032f90600160e01b900460ff1681565b6103526108ab366004613e98565b612b4a565b6103526108be366004613e98565b612bc9565b607a5461038d906001600160a01b031681565b6104a760705481565b607780546108ec90614121565b80601f016020809104026020016040519081016040528092919081815260200182805461091890614121565b80156109655780601f1061093a57610100808354040283529160200191610965565b820191906000526020600020905b81548152906001019060200180831161094857829003601f168201915b505050505081565b607a546001600160a01b0316331461099857604051634755657960e01b815260040160405180910390fd5b6103e88161ffff1610806109b157506103ff8161ffff16115b156109cf57604051630984a67960e31b815260040160405180910390fd5b606f805461ffff60481b1916600160481b61ffff8416908102919091179091556040519081527f7019933d795eba185c180209e8ae8bffbaa25bcef293364687702c31f4d302c5906020015b60405180910390a150565b6001600160401b038086166000818152607260205260408082205493881682529020546060929115801590610a59575081155b15610a775760405163340c614f60e11b815260040160405180910390fd5b80610a95576040516366385b5160e01b815260040160405180910390fd5b610a9e84611f97565b610abb576040516305dae44f60e21b815260040160405180910390fd5b604080516001600160601b03193360601b166020820152603481019690965260548601929092526001600160c01b031960c098891b811660748701527f0000000000000000000000000000000000000000000000000000000000000000891b8116607c8701527f0000000000000000000000000000000000000000000000000000000000000000891b81166084870152608c86019490945260ac85015260cc840194909452509290931b90911660ec830152805180830360d401815260f4909201905290565b607454600160401b90046001600160a01b03163314610bb35760405163bbcbbc0560e01b815260040160405180910390fd5b610bc1868686868686612c3f565b607480546001600160401b0319166001600160401b0386811691821790925560009081526075602052604090208390556079541615610c0b57607980546001600160801b03191690555b6040516333d6247d60e01b8152600481018490527f00000000000000000000000000000000000000000000000000000000000000006001600160a01b0316906333d6247d90602401600060405180830381600087803b158015610c6d57600080fd5b505af1158015610c81573d6000803e3d6000fd5b50506040518481523392506001600160401b03871691507fcb339b570a7f0b25afa7333371ff11192092a0aeace12b671f4c212f2815c6fe906020015b60405180910390a3505050505050565b607454600160401b90046001600160a01b03163314610d005760405163bbcbbc0560e01b815260040160405180910390fd5b610d0f87878787878787612f1a565b607480546001600160401b0319166001600160401b0386811691821790925560009081526075602052604090208390556079541615610d5957607980546001600160801b03191690555b6040516333d6247d60e01b8152600481018490527f00000000000000000000000000000000000000000000000000000000000000006001600160a01b0316906333d6247d90602401600060405180830381600087803b158015610dbb57600080fd5b505af1158015610dcf573d6000803e3d6000fd5b5050607980546001600160c01b031661127560c71b179055505060405182815233906001600160401b038616907fcc1b5520188bf1dd3e63f98164b577c4d75c11a619ddea692112f0d1aec4cf729060200160405180910390a350505050505050565b6079546001600160401b0382811660009081526078602052604081205490924292610e6892600160801b90920481169116614171565b6001600160401b0316111592915050565b607a546001600160a01b03163314610ea457604051634755657960e01b815260040160405180910390fd5b62093a806001600160401b0382161115610ed157604051631d06e87960e01b815260040160405180910390fd5b606f5460ff16610f11576079546001600160401b03600160c01b909104811690821610610f115760405163401636df60e01b815260040160405180910390fd5b607980546001600160c01b0316600160c01b6001600160401b038416021790556040517f1f4fa24c2e4bad19a7f3ec5c5485f70d46c798461c2e684f55bbd0fc661373a190610a1b908390613bb4565b607454600160401b90046001600160a01b03163314610fc457606f5460ff1615610f9e57604051630bc011ff60e21b815260040160405180910390fd5b610fa781610e32565b610fc457604051630674f25160e11b815260040160405180910390fd5b610fcd8161323a565b50565b607a546001600160a01b03163314610ffb57604051634755657960e01b815260040160405180910390fd5b62093a806001600160401b03821611156110285760405163f5e37f2f60e01b815260040160405180910390fd5b606f5460ff1661106857607b546001600160401b03600160a01b9091048116908216106110685760405163f5e37f2f60e01b815260040160405180910390fd5b607b8054600160a01b600160e01b031916600160a01b6001600160401b038416021790556040517fa7eb6cb8a613eb4e8bddc1ac3d61ec6cf10898760f0b187bcca794c6ca6fa40b90610a1b908390613bb4565b607680546108ec90614121565b606f5460ff16156110ed57604051630bc011ff60e21b815260040160405180910390fd5b606f54600160581b90046001600160a01b0316331461111f576040516311e7be1560e01b815260040160405180910390fd5b8160008190036111425760405163cb591a5f60e01b815260040160405180910390fd5b6103e881111561116557604051635acfba9d60e11b815260040160405180910390fd5b6073546001600160401b03600160401b82048116600081815260726020526040812054838516949293600160801b909304909216919082905b8681101561144c5760008a8a838181106111ba576111ba614198565b90506020028101906111cc91906141ae565b6111d5906141ce565b805180516020909101206060820151919250906001600160401b0316156112c457856112008161425a565b9650506000818360200151846060015160405160200161122293929190614288565b60408051601f1981840301815291815281516020928301206001600160401b038a166000908152607190935291205490915081146112735760405163671ebaaf60e11b815260040160405180910390fd5b6001600160401b0380881660009081526071602052604080822091909155606085015190850151908216911610156112be57604051633fbd5c3960e11b815260040160405180910390fd5b506113a9565b602082015115801590611365575060208201516040516312bd9b1960e11b815260048101919091527f00000000000000000000000000000000000000000000000000000000000000006001600160a01b03169063257b3632906024016020604051808303816000875af115801561133f573d6000803e3d6000fd5b505050506040513d601f19601f8201168201806040525081019061136391906142ab565b155b15611383576040516373bd668d60e01b815260040160405180910390fd5b8151516201d4c010156113a9576040516328a69b1f60e21b815260040160405180910390fd5b876001600160401b031682604001516001600160401b031610806113d957504282604001516001600160401b0316115b156113f7576040516375413c8b60e11b815260040160405180910390fd5b8481836020015184604001518d6040516020016114189594939291906142c4565b604051602081830303815290604052805190602001209450816040015197505050808061144490614303565b91505061119e565b506114578685614171565b6073549094506001600160401b03600160c01b909104811690841611156114915760405163c630a00d60e01b815260040160405180910390fd5b600061149d828561431c565b6114b0906001600160401b03168861433c565b60408051606081018252858152426001600160401b03908116602080840191825260738054600160401b9081900485168688019081528d861660008181526072909552979093209551865592516001909501805492519585166001600160801b03199384161795851684029590951790945583548c84169116179302929092179055909150828116908516146115655760738054600160801b600160c01b031916600160801b6001600160401b038716021790555b6115aa333083607054611578919061434f565b6001600160a01b037f0000000000000000000000000000000000000000000000000000000000000000169291906133d2565b6115b2613443565b7f00000000000000000000000000000000000000000000000000000000000000006001600160a01b03166379e2cf976040518163ffffffff1660e01b8152600401600060405180830381600087803b15801561160d57600080fd5b505af1158015611621573d6000803e3d6000fd5b50506040516001600160401b03881692507f303446e6a8cb73c83dff421c0b1d5e5ce0719dab1bff13660fc254e58cc17fce9150600090a250505050505050505050565b607a546001600160a01b0316331461169057604051634755657960e01b815260040160405180910390fd5b607b54600160e01b900460ff166116ba5760405163f6ba91a160e01b815260040160405180910390fd5b607b805460ff60e01b191690556040517f854dd6ce5a1445c4c54388b21cffd11cf5bba1b9e763aec48ce3da75d617412f90600090a1565b60006070546064611703919061434f565b905090565b606f5460ff161561172c57604051630bc011ff60e21b815260040160405180910390fd5b6079546001600160401b03858116600090815260726020526040902060010154429261176392600160c01b90910481169116614171565b6001600160401b0316111561178b57604051638a0704d360e01b815260040160405180910390fd5b6103e8611798868661431c565b6001600160401b031611156117c057604051635acfba9d60e11b815260040160405180910390fd5b6117ce868686868686612c3f565b6117d7846134e7565b607954600160801b90046001600160401b03166000036118ba57607480546001600160401b0319166001600160401b038681169182179092556000908152607560205260409020839055607954161561183b57607980546001600160801b03191690555b6040516333d6247d60e01b8152600481018490527f00000000000000000000000000000000000000000000000000000000000000006001600160a01b0316906333d6247d90602401600060405180830381600087803b15801561189d57600080fd5b505af11580156118b1573d6000803e3d6000fd5b5050505061196b565b6118c2613443565b607980546001600160401b03169060006118db8361425a565b82546001600160401b039182166101009390930a928302928202191691909117909155604080516080810182524283168152878316602080830191825282840189815260608401898152607954871660009081526078909352949091209251835492518616600160401b026001600160801b03199093169516949094171781559151600183015551600290910155505b60405182815233906001600160401b038616907f9c72852172521097ba7e1482e6b44b351323df0155f97f4ea18fcec28e1f596690602001610cbe565b607a546001600160a01b031633146119d357604051634755657960e01b815260040160405180910390fd5b606f8054600160581b600160f81b031916600160581b6001600160a01b038416021790556040517ff54144f9611984021529f814a1cb6a41e22c58351510a0d9f7e822618abb9cc090610a1b908390613cba565b611a2f6136bc565b611a39600061371b565b565b611a43611bda565b6001600160a01b0316336001600160a01b031614611b4e576000611a6561201e565b9050806001600160401b0316826001600160401b031611611a995760405163812a372d60e01b815260040160405180910390fd5b6073546001600160401b03600160401b90910481169083161180611ad857506001600160401b0380831660009081526072602052604090206001015416155b15611af657604051632631700560e21b815260040160405180910390fd5b6001600160401b038083166000908152607260205260409020600101544291611b249162093a809116614171565b6001600160401b03161115611b4c5760405163692baaad60e11b815260040160405180910390fd5b505b610fcd61376d565b607b546001600160a01b03163314611b815760405163d1ec4b2360e01b815260040160405180910390fd5b607b54607a80546001600160a01b0319166001600160a01b0390921691821790556040517f056dc487bbf0795d0bbb1b4f0af523a855503cff740bfb4d5475f7a90c091e8e91611bd091613cba565b60405180910390a1565b6033546001600160a01b031690565b6000807f00000000000000000000000000000000000000000000000000000000000000006001600160a01b03166370a08231306040518263ffffffff1660e01b8152600401611c389190613cba565b602060405180830381865afa158015611c55573d6000803e3d6000fd5b505050506040513d601f19601f82011682018060405250810190611c7991906142ab565b90506000611c8561201e565b6073546001600160401b03600160401b8204811691611cb591600160801b8204811691600160c01b90041661431c565b611cbf9190614171565b611cc9919061431c565b6001600160401b0316905080600003611ce55760009250505090565b611cef818361437c565b9250505090565b606f5460ff1615611d1a57604051630bc011ff60e21b815260040160405180910390fd5b611d2987878787878787612f1a565b6001600160401b0384166000908152607560209081526040918290205482519081529081018490527f1f44c21118c4603cfb4e1b621dbcfa2b73efcececee2b99b620b2953d33a7010910160405180910390a1611d8461376d565b50505050505050565b607a546001600160a01b03163314611db857604051634755657960e01b815260040160405180910390fd5b62093a806001600160401b0382161115611de557604051630cc9650760e41b815260040160405180910390fd5b606f5460ff16611e25576079546001600160401b03600160801b909104811690821610611e255760405163048a05a960e41b815260040160405180910390fd5b60798054600160801b600160c01b031916600160801b6001600160401b038416021790556040517fc4121f4e22c69632ebb7cf1f462be0511dc034f999b52013eddfb24aab765c7590610a1b908390613bb4565b607a546001600160a01b03163314611ea457604051634755657960e01b815260040160405180910390fd5b62015180816001600160401b03161115611ed157604051631c0cfbfd60e31b815260040160405180910390fd5b606f8054610100600160481b0319166101006001600160401b038416021790556040517f1b023231a1ab6b5d93992f168fb44498e1a7e64cef58daff6f1c216de6a68c2890610a1b908390613bb4565b607a546001600160a01b03163314611f4c57604051634755657960e01b815260040160405180910390fd5b607b80546001600160a01b0319166001600160a01b0383161790556040517fa5b56b7906fd0a20e3f35120dd8343db1e12e037a6c90111c7e42885e82a1ce690610a1b908390613cba565b600067ffffffff000000016001600160401b038316108015611fcd575067ffffffff00000001604083901c6001600160401b0316105b8015611fed575067ffffffff00000001608083901c6001600160401b0316105b8015612004575067ffffffff0000000160c083901c105b1561201157506001919050565b506000919050565b919050565b6079546000906001600160401b03161561205b57506079546001600160401b03908116600090815260786020526040902054600160401b90041690565b506074546001600160401b031690565b607a546001600160a01b0316331461209657604051634755657960e01b815260040160405180910390fd5b60766120a282826143de565b507f6b8f723a4c7a5335cafae8a598a0aa0301be1387c037dccc085b62add6448b2081604051610a1b9190613c18565b600054610100900460ff16158080156120f25750600054600160ff909116105b806121135750612101306137e8565b158015612113575060005460ff166001145b61217b5760405162461bcd60e51b815260206004820152602e60248201527f496e697469616c697a61626c653a20636f6e747261637420697320616c72656160448201526d191e481a5b9a5d1a585b1a5e995960921b60648201526084015b60405180910390fd5b6000805460ff19166001179055801561219e576000805461ff0019166101001790555b6121ab6020880188613e98565b607a80546001600160a01b0319166001600160a01b03929092169190911790556121db6040880160208901613e98565b606f80546001600160a01b0392909216600160581b02600160581b600160f81b03199092169190911790556122166080880160608901613e98565b607480546001600160a01b0392909216600160401b02600160401b600160e01b03199092169190911790556000805260756020527ff9e3fbf150b7a0077118526f473c53cb4734f166167e2c6213e3567dd390b4ad869055607661227a86826143de565b50607761228785826143de565b5062093a8061229c6060890160408a01613dc8565b6001600160401b031611156122c457604051630cc9650760e41b815260040160405180910390fd5b6122d46060880160408901613dc8565b607980546001600160401b0392909216600160801b02600160801b600160c01b031990921691909117905562093a8061231360a0890160808a01613dc8565b6001600160401b0316111561233b57604051631d06e87960e01b815260040160405180910390fd5b61234b60a0880160808901613dc8565b607980546001600160c01b0316600160c01b6001600160401b03939093169290920291909117905567016345785d8a0000607055606f8054610100600160581b031916620708006101f560491b01179055607b8054600160a01b600160e81b031916670200000000000d2f60a71b1790556123c46137f7565b7fed7be53c9f1a96a481223b15568a5b1a475e01a74b347d6ca187c8bf0c078cd660007f0000000000000000000000000000000000000000000000000000000000000000858560405161241a94939291906144c6565b60405180910390a18015611d84576000805461ff0019169055604051600181527f7f26b83ff96e1f2b6a682f133852f6798a09c465da95921460cefb38474024989060200160405180910390a150505050505050565b607b54600160e01b900460ff161561249b576040516324eff8c360e01b815260040160405180910390fd5b606f5460ff16156124bf57604051630bc011ff60e21b815260040160405180910390fd5b8060008190036124e25760405163cb591a5f60e01b815260040160405180910390fd5b6103e881111561250557604051635acfba9d60e11b815260040160405180910390fd5b6073546001600160401b03600160c01b820481169161252d918491600160801b9004166144fd565b111561254c5760405163c630a00d60e01b815260040160405180910390fd5b6073546001600160401b03600160401b820481166000818152607260205260408120549193600160801b9004909216915b8481101561270057600087878381811061259957612599614198565b90506020028101906125ab9190614510565b6125b490614526565b9050836125c08161425a565b825180516020918201208185015160408087015190519499509194506000936125ec9386939101614288565b60408051601f1981840301815291815281516020928301206001600160401b03891660009081526071909352912054909150811461263d5760405163671ebaaf60e11b815260040160405180910390fd5b6001600160401b03861660009081526071602052604081205561266160018961433c565b84036126b55742607b60149054906101000a90046001600160401b0316846040015161268d9190614171565b6001600160401b031611156126b55760405163c44a082160e01b815260040160405180910390fd5b8482846020015142336040516020016126d29594939291906142c4565b60405160208183030381529060405280519060200120945050505080806126f890614303565b91505061257d565b5061270b8484614171565b607380546001600160401b034281166001600160401b03199092168217808455604080516060810182528781526020808201958652600160401b9384900485168284019081528589166000818152607290935284832093518455965160019390930180549151871686026001600160801b031990921693871693909317179091558554938916600160801b02600160801b600160c01b031993860293909316600160401b600160c01b031990941693909317919091179093559151929550917f648a61dd2438f072f5a1960939abd30f37aea80d2e94c9792ad142d3e0a490a49190a2505050505050565b607a546001600160a01b0316331461282157604051634755657960e01b815260040160405180910390fd5b7f00000000000000000000000000000000000000000000000000000000000000006001600160a01b031663dbc169766040518163ffffffff1660e01b8152600401600060405180830381600087803b15801561287c57600080fd5b505af1158015612890573d6000803e3d6000fd5b50505050611a3961386b565b607b54600160e01b900460ff16156128c7576040516324eff8c360e01b815260040160405180910390fd5b606f5460ff16156128eb57604051630bc011ff60e21b815260040160405180910390fd5b60006128f56116f2565b90508181111561291857604051634732fdb560e01b815260040160405180910390fd5b61138883111561293b576040516328a69b1f60e21b815260040160405180910390fd5b6129706001600160a01b037f0000000000000000000000000000000000000000000000000000000000000000163330846133d2565b60007f00000000000000000000000000000000000000000000000000000000000000006001600160a01b0316633ed691ef6040518163ffffffff1660e01b8152600401602060405180830381865afa1580156129d0573d6000803e3d6000fd5b505050506040513d601f19601f820116820180604052508101906129f491906142ab565b60738054919250600160c01b9091046001600160401b0316906018612a188361425a565b91906101000a8154816001600160401b0302191690836001600160401b03160217905550508484604051612a4d9291906145a1565b604051908190038120612a669183904290602001614288565b60408051808303601f190181529181528151602092830120607354600160c01b90046001600160401b031660009081526071909352912055323303612af857607354604080518381523360208201526060918101829052600091810191909152600160c01b9091046001600160401b0316906000805160206146a68339815191529060800160405180910390a2612b43565b607360189054906101000a90046001600160401b03166001600160401b03166000805160206146a683398151915282338888604051612b3a94939291906145b1565b60405180910390a25b5050505050565b607a546001600160a01b03163314612b7557604051634755657960e01b815260040160405180910390fd5b60748054600160401b600160e01b031916600160401b6001600160a01b038416021790556040517f61f8fec29495a3078e9271456f05fb0707fd4e41f7661865f80fc437d06681ca90610a1b908390613cba565b612bd16136bc565b6001600160a01b038116612c365760405162461bcd60e51b815260206004820152602660248201527f4f776e61626c653a206e6577206f776e657220697320746865207a65726f206160448201526564647265737360d01b6064820152608401612172565b610fcd8161371b565b600080612c4a61201e565b90506001600160401b03881615612ce0576079546001600160401b039081169089161115612c8b5760405163bb14c20560e01b815260040160405180910390fd5b6001600160401b038089166000908152607860205260409020600281015481549094509091898116600160401b9092041614612cda57604051632bd2e3e760e01b815260040160405180910390fd5b50612d4c565b6001600160401b038716600090815260756020526040902054915081612d19576040516324cbdcc360e11b815260040160405180910390fd5b806001600160401b0316876001600160401b03161115612d4c57604051630f2b74f160e11b815260040160405180910390fd5b806001600160401b0316866001600160401b031611612d7e5760405163b9b18f5760e01b815260040160405180910390fd5b6000612d8d8888888689610a26565b90506000600080516020614686833981519152600283604051612db091906145dc565b602060405180830381855afa158015612dcd573d6000803e3d6000fd5b5050506040513d601f19601f82011682018060405250810190612df091906142ab565b612dfa91906145ee565b604080516020810182528281529051634890ed4560e11b81529192506001600160a01b037f00000000000000000000000000000000000000000000000000000000000000001691639121da8a91612e5691899190600401614602565b602060405180830381865afa158015612e73573d6000803e3d6000fd5b505050506040513d601f19601f82011682018060405250810190612e97919061463d565b612eb4576040516309bde33960e01b815260040160405180910390fd5b612f0e33612ec2858b61431c565b6001600160401b0316612ed3611be9565b612edd919061434f565b6001600160a01b037f00000000000000000000000000000000000000000000000000000000000000001691906138c3565b50505050505050505050565b60006001600160401b03881615612fae576079546001600160401b039081169089161115612f5b5760405163bb14c20560e01b815260040160405180910390fd5b506001600160401b038088166000908152607860205260409020600281015481549092888116600160401b9092041614612fa857604051632bd2e3e760e01b815260040160405180910390fd5b50613016565b506001600160401b03851660009081526075602052604090205480612fe6576040516324cbdcc360e11b815260040160405180910390fd5b6074546001600160401b03908116908716111561301657604051630f2b74f160e11b815260040160405180910390fd5b6079546001600160401b0390811690881611806130455750876001600160401b0316876001600160401b031611155b8061306657506079546001600160401b03600160401b909104811690881611155b156130845760405163bfa7079f60e01b815260040160405180910390fd5b6001600160401b03878116600090815260786020526040902054600160401b90048116908616146130c8576040516332a2a77f60e01b815260040160405180910390fd5b60006130d78787878588610a26565b905060006000805160206146868339815191526002836040516130fa91906145dc565b602060405180830381855afa158015613117573d6000803e3d6000fd5b5050506040513d601f19601f8201168201806040525081019061313a91906142ab565b61314491906145ee565b604080516020810182528281529051634890ed4560e11b81529192506001600160a01b037f00000000000000000000000000000000000000000000000000000000000000001691639121da8a916131a091889190600401614602565b602060405180830381865afa1580156131bd573d6000803e3d6000fd5b505050506040513d601f19601f820116820180604052508101906131e1919061463d565b6131fe576040516309bde33960e01b815260040160405180910390fd5b6001600160401b038916600090815260786020526040902060020154859003612f0e5760405163a47276bd60e01b815260040160405180910390fd5b6079546001600160401b03600160401b909104811690821611158061326d57506079546001600160401b03908116908216115b1561328b5760405163d086b70b60e01b815260040160405180910390fd5b6001600160401b038181166000818152607860209081526040808320805460748054600160401b928390049098166001600160401b03199098168817905560028201548786526075909452938290209290925560798054600160401b600160801b0319169390940292909217909255600182015490516333d6247d60e01b815260048101919091529091907f00000000000000000000000000000000000000000000000000000000000000006001600160a01b0316906333d6247d90602401600060405180830381600087803b15801561336457600080fd5b505af1158015613378573d6000803e3d6000fd5b50505050826001600160401b0316816001600160401b03167f328d3c6c0fd6f1be0515e422f2d87e59f25922cbc2233568515a0c4bc3f8510e84600201546040516133c591815260200190565b60405180910390a3505050565b6040516001600160a01b038085166024830152831660448201526064810182905261343d9085906323b872dd60e01b906084015b60408051601f198184030181529190526020810180516001600160e01b03166001600160e01b0319909316929092179091526138f8565b50505050565b6079546001600160401b03600160401b8204811691161115611a395760795460009061348090600160401b90046001600160401b03166001614171565b905061348b81610e32565b15610fcd576079546000906002906134ad9084906001600160401b031661431c565b6134b7919061465f565b6134c19083614171565b90506134cc81610e32565b156134de576134da8161323a565b5050565b6134da8261323a565b60006134f161201e565b905081600080613501848461431c565b606f546001600160401b039182169250600091613524916101009004164261433c565b90505b846001600160401b0316846001600160401b0316146135a5576001600160401b0380851660009081526072602052604090206001810154909116821015613584576001810154600160401b90046001600160401b0316945061359f565b61358e868661431c565b6001600160401b03169350506135a5565b50613527565b60006135b1848461433c565b90508381101561360857808403600c81116135cc57806135cf565b600c5b9050806103e80a81606f60099054906101000a900461ffff1661ffff160a60705402816135fe576135fe614366565b0460705550613678565b838103600c8111613619578061361c565b600c5b90506000816103e80a82606f60099054906101000a900461ffff1661ffff160a670de0b6b3a7640000028161365357613653614366565b04905080607054670de0b6b3a7640000028161367157613671614366565b0460705550505b683635c9adc5dea00000607054111561369d57683635c9adc5dea00000607055611d84565b633b9aca006070541015611d8457633b9aca0060705550505050505050565b336136c5611bda565b6001600160a01b031614611a395760405162461bcd60e51b815260206004820181905260248201527f4f776e61626c653a2063616c6c6572206973206e6f7420746865206f776e65726044820152606401612172565b603380546001600160a01b038381166001600160a01b0319831681179093556040519116919082907f8be0079c531659141344cd1fd0a4f28419497f9722a3daafe3b4186f6b6457e090600090a35050565b7f00000000000000000000000000000000000000000000000000000000000000006001600160a01b0316632072f6c56040518163ffffffff1660e01b8152600401600060405180830381600087803b1580156137c857600080fd5b505af11580156137dc573d6000803e3d6000fd5b50505050611a396139ca565b6001600160a01b03163b151590565b600054610100900460ff166138625760405162461bcd60e51b815260206004820152602b60248201527f496e697469616c697a61626c653a20636f6e7472616374206973206e6f74206960448201526a6e697469616c697a696e6760a81b6064820152608401612172565b611a393361371b565b606f5460ff1661388e57604051635386698160e01b815260040160405180910390fd5b606f805460ff191690556040517f1e5e34eea33501aecf2ebec9fe0e884a40804275ea7fe10b2ba084c8374308b390600090a1565b6040516001600160a01b0383166024820152604481018290526138f390849063a9059cbb60e01b90606401613406565b505050565b600061394d826040518060400160405280602081526020017f5361666545524332303a206c6f772d6c6576656c2063616c6c206661696c6564815250856001600160a01b0316613a269092919063ffffffff16565b8051909150156138f3578080602001905181019061396b919061463d565b6138f35760405162461bcd60e51b815260206004820152602a60248201527f5361666545524332303a204552433230206f7065726174696f6e20646964206e6044820152691bdd081cdd58d8d9595960b21b6064820152608401612172565b606f5460ff16156139ee57604051630bc011ff60e21b815260040160405180910390fd5b606f805460ff191660011790556040517f2261efe5aef6fedc1fd1550b25facc9181745623049c7901287030b9ad1a549790600090a1565b6060613a358484600085613a3d565b949350505050565b606082471015613a9e5760405162461bcd60e51b815260206004820152602660248201527f416464726573733a20696e73756666696369656e742062616c616e636520666f6044820152651c8818d85b1b60d21b6064820152608401612172565b600080866001600160a01b03168587604051613aba91906145dc565b60006040518083038185875af1925050503d8060008114613af7576040519150601f19603f3d011682016040523d82523d6000602084013e613afc565b606091505b5091509150613b0d87838387613b18565b979650505050505050565b60608315613b85578251600003613b7e57613b32856137e8565b613b7e5760405162461bcd60e51b815260206004820152601d60248201527f416464726573733a2063616c6c20746f206e6f6e2d636f6e74726163740000006044820152606401612172565b5081613a35565b613a358383815115613b9a5781518083602001fd5b8060405162461bcd60e51b81526004016121729190613c18565b6001600160401b0391909116815260200190565b60005b83811015613be3578181015183820152602001613bcb565b50506000910152565b60008151808452613c04816020860160208601613bc8565b601f01601f19169290920160200192915050565b602081526000613c2b6020830184613bec565b9392505050565b600060208284031215613c4457600080fd5b813561ffff81168114613c2b57600080fd5b80356001600160401b038116811461201957600080fd5b600080600080600060a08688031215613c8557600080fd5b613c8e86613c56565b9450613c9c60208701613c56565b94979496505050506040830135926060810135926080909101359150565b6001600160a01b0391909116815260200190565b806103008101831015613ce057600080fd5b92915050565b6000806000806000806103a08789031215613d0057600080fd5b613d0987613c56565b9550613d1760208801613c56565b9450613d2560408801613c56565b93506060870135925060808701359150613d428860a08901613cce565b90509295509295509295565b60008060008060008060006103c0888a031215613d6a57600080fd5b613d7388613c56565b9650613d8160208901613c56565b9550613d8f60408901613c56565b9450613d9d60608901613c56565b93506080880135925060a08801359150613dba8960c08a01613cce565b905092959891949750929550565b600060208284031215613dda57600080fd5b613c2b82613c56565b60008083601f840112613df557600080fd5b5081356001600160401b03811115613e0c57600080fd5b6020830191508360208260051b8501011115613e2757600080fd5b9250929050565b80356001600160a01b038116811461201957600080fd5b600080600060408486031215613e5a57600080fd5b83356001600160401b03811115613e7057600080fd5b613e7c86828701613de3565b9094509250613e8f905060208501613e2e565b90509250925092565b600060208284031215613eaa57600080fd5b613c2b82613e2e565b600060208284031215613ec557600080fd5b5035919050565b634e487b7160e01b600052604160045260246000fd5b600082601f830112613ef357600080fd5b81356001600160401b0380821115613f0d57613f0d613ecc565b604051601f8301601f19908116603f01168101908282118183101715613f3557613f35613ecc565b81604052838152866020858801011115613f4e57600080fd5b836020870160208301376000602085830101528094505050505092915050565b600060208284031215613f8057600080fd5b81356001600160401b03811115613f9657600080fd5b613a3584828501613ee2565b60008083601f840112613fb457600080fd5b5081356001600160401b03811115613fcb57600080fd5b602083019150836020828501011115613e2757600080fd5b600080600080600080868803610120811215613ffe57600080fd5b60a081121561400c57600080fd5b5086955060a0860135945060c08601356001600160401b038082111561403157600080fd5b61403d8a838b01613ee2565b955060e089013591508082111561405357600080fd5b61405f8a838b01613ee2565b945061010089013591508082111561407657600080fd5b5061408389828a01613fa2565b979a9699509497509295939492505050565b600080602083850312156140a857600080fd5b82356001600160401b038111156140be57600080fd5b6140ca85828601613de3565b90969095509350505050565b6000806000604084860312156140eb57600080fd5b83356001600160401b0381111561410157600080fd5b61410d86828701613fa2565b909790965060209590950135949350505050565b600181811c9082168061413557607f821691505b60208210810361415557634e487b7160e01b600052602260045260246000fd5b50919050565b634e487b7160e01b600052601160045260246000fd5b6001600160401b038181168382160190808211156141915761419161415b565b5092915050565b634e487b7160e01b600052603260045260246000fd5b60008235607e198336030181126141c457600080fd5b9190910192915050565b6000608082360312156141e057600080fd5b604051608081016001600160401b03808211838310171561420357614203613ecc565b81604052843591508082111561421857600080fd5b5061422536828601613ee2565b8252506020830135602082015261423e60408401613c56565b604082015261424f60608401613c56565b606082015292915050565b60006001600160401b038281166002600160401b0319810161427e5761427e61415b565b6001019392505050565b928352602083019190915260c01b6001600160c01b031916604082015260480190565b6000602082840312156142bd57600080fd5b5051919050565b9485526020850193909352604084019190915260c01b6001600160c01b0319166060808401919091521b6001600160601b0319166068820152607c0190565b6000600182016143155761431561415b565b5060010190565b6001600160401b038281168282160390808211156141915761419161415b565b81810381811115613ce057613ce061415b565b8082028115828204841417613ce057613ce061415b565b634e487b7160e01b600052601260045260246000fd5b60008261438b5761438b614366565b500490565b601f8211156138f357600081815260208120601f850160051c810160208610156143b75750805b601f850160051c820191505b818110156143d6578281556001016143c3565b505050505050565b81516001600160401b038111156143f7576143f7613ecc565b61440b816144058454614121565b84614390565b602080601f83116001811461444057600084156144285750858301515b600019600386901b1c1916600185901b1785556143d6565b600085815260208120601f198616915b8281101561446f57888601518255948401946001909101908401614450565b508582101561448d5787850151600019600388901b60f8161c191681555b5050505050600190811b01905550565b81835281816020850137506000828201602090810191909152601f909101601f19169091010190565b6001600160401b038581168252841660208201526060604082018190526000906144f3908301848661449d565b9695505050505050565b80820180821115613ce057613ce061415b565b60008235605e198336030181126141c457600080fd5b60006060823603121561453857600080fd5b604051606081016001600160401b03808211838310171561455b5761455b613ecc565b81604052843591508082111561457057600080fd5b5061457d36828601613ee2565b8252506020830135602082015261459660408401613c56565b604082015292915050565b8183823760009101908152919050565b8481526001600160a01b03841660208201526060604082018190526000906144f3908301848661449d565b600082516141c4818460208701613bc8565b6000826145fd576145fd614366565b500690565b61032081016103008085843782018360005b6001811015614633578151835260209283019290910190600101614614565b5050509392505050565b60006020828403121561464f57600080fd5b81518015158114613c2b57600080fd5b60006001600160401b038381168061467957614679614366565b9216919091049291505056fe30644e72e131a029b85045b68181585d2833e84879b9709143e1f593f0000001f94bb37db835f1ab585ee00041849a09b12cd081d77fa15ca070757619cbc931a26469706673582212203dd63ac4455709626e53911f693a236c7b43de99bda32c96cb6d6788e4fb0fcd64736f6c63430008140033",
  "linkReferences": {},
  "deployedLinkReferences": {}
}