{
  "_format": "hh-sol-artifact-1",
  "contractName": "PolygonZkEVMBridge",
  "sourceName": "contracts/PolygonZkEVMBridge.sol",
  "abi": [
    {
      "inputs": [],
      "name": "AlreadyClaimed",
      "type": "error"
    },
    {
      "inputs": [],
      "name": "AmountDoesNotMatchMsgValue",
      "type": "error"
    },
    {
      "inputs": [],
      "name": "DestinationNetworkInvalid",
      "type": "error"
    },
    {
      "inputs": [],
      "name": "EtherTransferFailed",
      "type": "error"
    },
    {
      "inputs": [],
      "name": "GlobalExitRootInvalid",
      "type": "error"
    },
    {
      "inputs": [],
      "name": "InvalidSmtProof",
      "type": "error"
    },
    {
      "inputs": [],
      "name": "MerkleTreeFull",
      "type": "error"
    },
    {
      "inputs": [],
      "name": "MessageFailed",
      "type": "error"
    },
    {
      "inputs": [],
      "name": "MsgValueNotZero",
      "type": "error"
    },
    {
      "inputs": [],
      "name": "NotValidAmount",
      "type": "error"
    },
    {
      "inputs": [],
      "name": "NotValidOwner",
      "type": "error"
    },
    {
      "inputs": [],
      "name": "NotValidSignature",
      "type": "error"
    },
    {
      "inputs": [],
      "name": "NotValidSpender",
      "type": "error"
    },
    {
      "inputs": [],
      "name": "OnlyEmergencyState",
      "type": "error"
    },
    {
      "inputs": [],
      "name": "OnlyNotEmergencyState",
      "type": "error"
    },
    {
      "inputs": [],
      "name": "OnlyPolygonZkEVM",
      "type": "error"
    },
    {
      "anonymous": false,
      "inputs": [
        {
          "indexed": false,
          "internalType": "uint8",
          "name": "leafType",
          "type": "uint8"
        },
        {
          "indexed": false,
          "internalType": "uint32",
          "name": "originNetwork",
          "type": "uint32"
        },
        {
          "indexed": false,
          "internalType": "address",
          "name": "originAddress",
          "type": "address"
        },
        {
          "indexed": false,
          "internalType": "uint32",
          "name": "destinationNetwork",
          "type": "uint32"
        },
        {
          "indexed": false,
          "internalType": "address",
          "name": "destinationAddress",
          "type": "address"
        },
        {
          "indexed": false,
          "internalType": "uint256",
          "name": "amount",
          "type": "uint256"
        },
        {
          "indexed": false,
          "internalType": "bytes",
          "name": "metadata",
          "type": "bytes"
        },
        {
          "indexed": false,
          "internalType": "uint32",
          "name": "depositCount",
          "type": "uint32"
        }
      ],
      "name": "BridgeEvent",
      "type": "event"
    },
    {
      "anonymous": false,
      "inputs": [
        {
          "indexed": false,
          "internalType": "uint32",
          "name": "index",
          "type": "uint32"
        },
        {
          "indexed": false,
          "internalType": "uint32",
          "name": "originNetwork",
          "type": "uint32"
        },
        {
          "indexed": false,
          "internalType": "address",
          "name": "originAddress",
          "type": "address"
        },
        {
          "indexed": false,
          "internalType": "address",
          "name": "destinationAddress",
          "type": "address"
        },
        {
          "indexed": false,
          "internalType": "uint256",
          "name": "amount",
          "type": "uint256"
        }
      ],
      "name": "ClaimEvent",
      "type": "event"
    },
    {
      "anonymous": false,
      "inputs": [],
      "name": "EmergencyStateActivated",
      "type": "event"
    },
    {
      "anonymous": false,
      "inputs": [],
      "name": "EmergencyStateDeactivated",
      "type": "event"
    },
    {
      "anonymous": false,
      "inputs": [
        {
          "indexed": false,
          "internalType": "uint8",
          "name": "version",
          "type": "uint8"
        }
      ],
      "name": "Initialized",
      "type": "event"
    },
    {
      "anonymous": false,
      "inputs": [
        {
          "indexed": false,
          "internalType": "uint32",
          "name": "originNetwork",
          "type": "uint32"
        },
        {
          "indexed": false,
          "internalType": "address",
          "name": "originTokenAddress",
          "type": "address"
        },
        {
          "indexed": false,
          "internalType": "address",
          "name": "wrappedTokenAddress",
          "type": "address"
        },
        {
          "indexed": false,
          "internalType": "bytes",
          "name": "metadata",
          "type": "bytes"
        }
      ],
      "name": "NewWrappedToken",
      "type": "event"
    },
    {
      "inputs": [],
      "name": "activateEmergencyState",
      "outputs": [],
      "stateMutability": "nonpayable",
      "type": "function"
    },
    {
      "inputs": [
        {
          "internalType": "uint32",
          "name": "destinationNetwork",
          "type": "uint32"
        },
        {
          "internalType": "address",
          "name": "destinationAddress",
          "type": "address"
        },
        {
          "internalType": "uint256",
          "name": "amount",
          "type": "uint256"
        },
        {
          "internalType": "address",
          "name": "token",
          "type": "address"
        },
        {
          "internalType": "bool",
          "name": "forceUpdateGlobalExitRoot",
          "type": "bool"
        },
        {
          "internalType": "bytes",
          "name": "permitData",
          "type": "bytes"
        }
      ],
      "name": "bridgeAsset",
      "outputs": [],
      "stateMutability": "payable",
      "type": "function"
    },
    {
      "inputs": [
        {
          "internalType": "uint32",
          "name": "destinationNetwork",
          "type": "uint32"
        },
        {
          "internalType": "address",
          "name": "destinationAddress",
          "type": "address"
        },
        {
          "internalType": "bool",
          "name": "forceUpdateGlobalExitRoot",
          "type": "bool"
        },
        {
          "internalType": "bytes",
          "name": "metadata",
          "type": "bytes"
        }
      ],
      "name": "bridgeMessage",
      "outputs": [],
      "stateMutability": "payable",
      "type": "function"
    },
    {
      "inputs": [
        {
          "internalType": "bytes32[32]",
          "name": "smtProof",
          "type": "bytes32[32]"
        },
        {
          "internalType": "uint32",
          "name": "index",
          "type": "uint32"
        },
        {
          "internalType": "bytes32",
          "name": "mainnetExitRoot",
          "type": "bytes32"
        },
        {
          "internalType": "bytes32",
          "name": "rollupExitRoot",
          "type": "bytes32"
        },
        {
          "internalType": "uint32",
          "name": "originNetwork",
          "type": "uint32"
        },
        {
          "internalType": "address",
          "name": "originTokenAddress",
          "type": "address"
        },
        {
          "internalType": "uint32",
          "name": "destinationNetwork",
          "type": "uint32"
        },
        {
          "internalType": "address",
          "name": "destinationAddress",
          "type": "address"
        },
        {
          "internalType": "uint256",
          "name": "amount",
          "type": "uint256"
        },
        {
          "internalType": "bytes",
          "name": "metadata",
          "type": "bytes"
        }
      ],
      "name": "claimAsset",
      "outputs": [],
      "stateMutability": "nonpayable",
      "type": "function"
    },
    {
      "inputs": [
        {
          "internalType": "bytes32[32]",
          "name": "smtProof",
          "type": "bytes32[32]"
        },
        {
          "internalType": "uint32",
          "name": "index",
          "type": "uint32"
        },
        {
          "internalType": "bytes32",
          "name": "mainnetExitRoot",
          "type": "bytes32"
        },
        {
          "internalType": "bytes32",
          "name": "rollupExitRoot",
          "type": "bytes32"
        },
        {
          "internalType": "uint32",
          "name": "originNetwork",
          "type": "uint32"
        },
        {
          "internalType": "address",
          "name": "originAddress",
          "type": "address"
        },
        {
          "internalType": "uint32",
          "name": "destinationNetwork",
          "type": "uint32"
        },
        {
          "internalType": "address",
          "name": "destinationAddress",
          "type": "address"
        },
        {
          "internalType": "uint256",
          "name": "amount",
          "type": "uint256"
        },
        {
          "internalType": "bytes",
          "name": "metadata",
          "type": "bytes"
        }
      ],
      "name": "claimMessage",
      "outputs": [],
      "stateMutability": "nonpayable",
      "type": "function"
    },
    {
      "inputs": [
        {
          "internalType": "uint256",
          "name": "",
          "type": "uint256"
        }
      ],
      "name": "claimedBitMap",
      "outputs": [
        {
          "internalType": "uint256",
          "name": "",
          "type": "uint256"
        }
      ],
      "stateMutability": "view",
      "type": "function"
    },
    {
      "inputs": [],
      "name": "deactivateEmergencyState",
      "outputs": [],
      "stateMutability": "nonpayable",
      "type": "function"
    },
    {
      "inputs": [],
      "name": "depositCount",
      "outputs": [
        {
          "internalType": "uint256",
          "name": "",
          "type": "uint256"
        }
      ],
      "stateMutability": "view",
      "type": "function"
    },
    {
      "inputs": [],
      "name": "getDepositRoot",
      "outputs": [
        {
          "internalType": "bytes32",
          "name": "",
          "type": "bytes32"
        }
      ],
      "stateMutability": "view",
      "type": "function"
    },
    {
      "inputs": [
        {
          "internalType": "uint8",
          "name": "leafType",
          "type": "uint8"
        },
        {
          "internalType": "uint32",
          "name": "originNetwork",
          "type": "uint32"
        },
        {
          "internalType": "address",
          "name": "originAddress",
          "type": "address"
        },
        {
          "internalType": "uint32",
          "name": "destinationNetwork",
          "type": "uint32"
        },
        {
          "internalType": "address",
          "name": "destinationAddress",
          "type": "address"
        },
        {
          "internalType": "uint256",
          "name": "amount",
          "type": "uint256"
        },
        {
          "internalType": "bytes32",
          "name": "metadataHash",
          "type": "bytes32"
        }
      ],
      "name": "getLeafValue",
      "outputs": [
        {
          "internalType": "bytes32",
          "name": "",
          "type": "bytes32"
        }
      ],
      "stateMutability": "pure",
      "type": "function"
    },
    {
      "inputs": [
        {
          "internalType": "uint32",
          "name": "originNetwork",
          "type": "uint32"
        },
        {
          "internalType": "address",
          "name": "originTokenAddress",
          "type": "address"
        }
      ],
      "name": "getTokenWrappedAddress",
      "outputs": [
        {
          "internalType": "address",
          "name": "",
          "type": "address"
        }
      ],
      "stateMutability": "view",
      "type": "function"
    },
    {
      "inputs": [],
      "name": "globalExitRootManager",
      "outputs": [
        {
          "internalType": "contract IBasePolygonZkEVMGlobalExitRoot",
          "name": "",
          "type": "address"
        }
      ],
      "stateMutability": "view",
      "type": "function"
    },
    {
      "inputs": [
        {
          "internalType": "uint32",
          "name": "_networkID",
          "type": "uint32"
        },
        {
          "internalType": "contract IBasePolygonZkEVMGlobalExitRoot",
          "name": "_globalExitRootManager",
          "type": "address"
        },
        {
          "internalType": "address",
          "name": "_polygonZkEVMaddress",
          "type": "address"
        }
      ],
      "name": "initialize",
      "outputs": [],
      "stateMutability": "nonpayable",
      "type": "function"
    },
    {
      "inputs": [
        {
          "internalType": "uint256",
          "name": "index",
          "type": "uint256"
        }
      ],
      "name": "isClaimed",
      "outputs": [
        {
          "internalType": "bool",
          "name": "",
          "type": "bool"
        }
      ],
      "stateMutability": "view",
      "type": "function"
    },
    {
      "inputs": [],
      "name": "isEmergencyState",
      "outputs": [
        {
          "internalType": "bool",
          "name": "",
          "type": "bool"
        }
      ],
      "stateMutability": "view",
      "type": "function"
    },
    {
      "inputs": [],
      "name": "lastUpdatedDepositCount",
      "outputs": [
        {
          "internalType": "uint32",
          "name": "",
          "type": "uint32"
        }
      ],
      "stateMutability": "view",
      "type": "function"
    },
    {
      "inputs": [],
      "name": "networkID",
      "outputs": [
        {
          "internalType": "uint32",
          "name": "",
          "type": "uint32"
        }
      ],
      "stateMutability": "view",
      "type": "function"
    },
    {
      "inputs": [],
      "name": "polygonZkEVMaddress",
      "outputs": [
        {
          "internalType": "address",
          "name": "",
          "type": "address"
        }
      ],
      "stateMutability": "view",
      "type": "function"
    },
    {
      "inputs": [
        {
          "internalType": "uint32",
          "name": "originNetwork",
          "type": "uint32"
        },
        {
          "internalType": "address",
          "name": "originTokenAddress",
          "type": "address"
        },
        {
          "internalType": "string",
          "name": "name",
          "type": "string"
        },
        {
          "internalType": "string",
          "name": "symbol",
          "type": "string"
        },
        {
          "internalType": "uint8",
          "name": "decimals",
          "type": "uint8"
        }
      ],
      "name": "precalculatedWrapperAddress",
      "outputs": [
        {
          "internalType": "address",
          "name": "",
          "type": "address"
        }
      ],
      "stateMutability": "view",
      "type": "function"
    },
    {
      "inputs": [
        {
          "internalType": "bytes32",
          "name": "",
          "type": "bytes32"
        }
      ],
      "name": "tokenInfoToWrappedToken",
      "outputs": [
        {
          "internalType": "address",
          "name": "",
          "type": "address"
        }
      ],
      "stateMutability": "view",
      "type": "function"
    },
    {
      "inputs": [],
      "name": "updateGlobalExitRoot",
      "outputs": [],
      "stateMutability": "nonpayable",
      "type": "function"
    },
    {
      "inputs": [
        {
          "internalType": "bytes32",
          "name": "leafHash",
          "type": "bytes32"
        },
        {
          "internalType": "bytes32[32]",
          "name": "smtProof",
          "type": "bytes32[32]"
        },
        {
          "internalType": "uint32",
          "name": "index",
          "type": "uint32"
        },
        {
          "internalType": "bytes32",
          "name": "root",
          "type": "bytes32"
        }
      ],
      "name": "verifyMerkleProof",
      "outputs": [
        {
          "internalType": "bool",
          "name": "",
          "type": "bool"
        }
      ],
      "stateMutability": "pure",
      "type": "function"
    },
    {
      "inputs": [
        {
          "internalType": "address",
          "name": "",
          "type": "address"
        }
      ],
      "name": "wrappedTokenToTokenInfo",
      "outputs": [
        {
          "internalType": "uint32",
          "name": "originNetwork",
          "type": "uint32"
        },
        {
          "internalType": "address",
          "name": "originTokenAddress",
          "type": "address"
        }
      ],
      "stateMutability": "view",
      "type": "function"
    }
  ],
  "bytecode": "0x608060405234801561000f575f80fd5b506145ab8061001d5f395ff3fe60806040526004361062000127575f3560e01c806315064c96146200012b5780632072f6c5146200015b57806322e95f2c1462000174578063240ff37814620001a75780632cffd02e14620001be5780632d2c9d9414620001e25780632dfdf0b51462000206578063318aee3d146200022c57806334ac9cf214620002985780633ae0504714620002b95780633e19704314620002d0578063647c576c14620002f457806379e2cf97146200031857806381b1c174146200032f5780639e34070f1462000367578063aaa13cc214620003aa578063bab161bf14620003ce578063be5831c71462000407578063cd586579146200042c578063d02103ca1462000443578063dbc16976146200046b578063ee25560b1462000482578063fb57083414620004b1575b5f80fd5b34801562000137575f80fd5b50606854620001469060ff1681565b60405190151581526020015b60405180910390f35b34801562000167575f80fd5b5062000172620004d5565b005b34801562000180575f80fd5b50620001986200019236600462002332565b6200050d565b6040516200015291906200236c565b62000172620001b8366004620023d5565b6200055d565b348015620001ca575f80fd5b5062000172620001dc36600462002465565b62000672565b348015620001ee575f80fd5b50620001726200020036600462002465565b62000a45565b34801562000212575f80fd5b506200021d60535481565b60405190815260200162000152565b34801562000238575f80fd5b50620002736200024a36600462002542565b606b6020525f908152604090205463ffffffff811690600160201b90046001600160a01b031682565b6040805163ffffffff90931683526001600160a01b0390911660208301520162000152565b348015620002a4575f80fd5b50606c5462000198906001600160a01b031681565b348015620002c5575f80fd5b506200021d62000b7e565b348015620002dc575f80fd5b506200021d620002ee36600462002576565b62000c65565b34801562000300575f80fd5b506200017262000312366004620025fb565b62000cf1565b34801562000324575f80fd5b506200017262000e6f565b3480156200033b575f80fd5b50620001986200034d36600462002648565b606a6020525f90815260409020546001600160a01b031681565b34801562000373575f80fd5b50620001466200038536600462002648565b600881901c5f90815260696020526040902054600160ff9092169190911b9081161490565b348015620003b6575f80fd5b5062000198620003c836600462002660565b62000e93565b348015620003da575f80fd5b50606854620003f190610100900463ffffffff1681565b60405163ffffffff909116815260200162000152565b34801562000413575f80fd5b50606854620003f190600160c81b900463ffffffff1681565b620001726200043d3660046200270c565b62000fa8565b3480156200044f575f80fd5b506068546200019890600160281b90046001600160a01b031681565b34801562000477575f80fd5b50620001726200132c565b3480156200048e575f80fd5b506200021d620004a036600462002648565b60696020525f908152604090205481565b348015620004bd575f80fd5b5062000146620004cf366004620027a7565b62001362565b606c546001600160a01b03163314620005015760405163e2e8106b60e01b815260040160405180910390fd5b6200050b6200143a565b565b5f606a5f848460405160200162000526929190620027f1565b60408051601f198184030181529181528151602092830120835290820192909252015f20546001600160a01b031690505b92915050565b60685460ff16156200058257604051630bc011ff60e21b815260040160405180910390fd5b60685463ffffffff868116610100909204161480620005a85750600263ffffffff861610155b15620005c7576040516302caf51760e11b815260040160405180910390fd5b5f80516020620045368339815191526001606860019054906101000a900463ffffffff163388883488886053546040516200060b9998979695949392919062002843565b60405180910390a16200065a620006546001606860019054906101000a900463ffffffff1633898934898960405162000646929190620028b1565b604051809103902062000c65565b62001496565b82156200066b576200066b62001591565b5050505050565b60685460ff16156200069757604051630bc011ff60e21b815260040160405180910390fd5b620006ad8b8b8b8b8b8b8b8b8b8b8b5f62001624565b6001600160a01b0386166200075257604080515f808252602082019092526001600160a01b038616908590604051620006e79190620028f8565b5f6040518083038185875af1925050503d805f811462000723576040519150601f19603f3d011682016040523d82523d5f602084013e62000728565b606091505b50509050806200074b57604051630ce8f45160e31b815260040160405180910390fd5b5062000a09565b60685463ffffffff6101009091048116908816036200078757620007816001600160a01b038716858562001787565b62000a09565b5f87876040516020016200079d929190620027f1565b60408051601f1981840301815291815281516020928301205f818152606a9093529120549091506001600160a01b031680620009a6575f8080620007e486880188620029c9565b9250925092505f85848484604051620007fd90620022f8565b6200080b9392919062002a66565b8190604051809103905ff590508015801562000829573d5f803e3d5ffd5b506040516340c10f1960e01b81529091506001600160a01b038216906340c10f19906200085d908d908d9060040162002aa2565b5f604051808303815f87803b15801562000875575f80fd5b505af115801562000888573d5f803e3d5ffd5b5050505080606a5f8881526020019081526020015f205f6101000a8154816001600160a01b0302191690836001600160a01b0316021790555060405180604001604052808e63ffffffff1681526020018d6001600160a01b0316815250606b5f836001600160a01b03166001600160a01b031681526020019081526020015f205f820151815f015f6101000a81548163ffffffff021916908363ffffffff1602179055506020820151815f0160046101000a8154816001600160a01b0302191690836001600160a01b031602179055509050507f490e59a1701b938786ac72570a1efeac994a3dbe96e2e883e19e902ace6e6a398d8d838b8b6040516200099495949392919062002abb565b60405180910390a15050505062000a06565b6040516340c10f1960e01b81526001600160a01b038216906340c10f1990620009d6908990899060040162002aa2565b5f604051808303815f87803b158015620009ee575f80fd5b505af115801562000a01573d5f803e3d5ffd5b505050505b50505b5f80516020620045568339815191528a8888878760405162000a3095949392919062002af5565b60405180910390a15050505050505050505050565b60685460ff161562000a6a57604051630bc011ff60e21b815260040160405180910390fd5b62000a818b8b8b8b8b8b8b8b8b8b8b600162001624565b5f846001600160a01b031684888a868660405160240162000aa6949392919062002b2c565b60408051601f198184030181529181526020820180516001600160e01b0316630c035af960e11b1790525162000add9190620028f8565b5f6040518083038185875af1925050503d805f811462000b19576040519150601f19603f3d011682016040523d82523d5f602084013e62000b1e565b606091505b505090508062000b41576040516337e391c360e01b815260040160405180910390fd5b5f80516020620045568339815191528b8989888860405162000b6895949392919062002af5565b60405180910390a1505050505050505050505050565b6053545f90819081805b602081101562000c5c578083901c60011660010362000beb576033816020811062000bb75762000bb762002b68565b01548460405160200162000bcd92919062002b7c565b60405160208183030381529060405280519060200120935062000c19565b838260405160200162000c0092919062002b7c565b6040516020818303038152906040528051906020012093505b818260405160200162000c2e92919062002b7c565b604051602081830303815290604052805190602001209150808062000c539062002b9e565b91505062000b88565b50919392505050565b6040516001600160f81b031960f889901b1660208201526001600160e01b031960e088811b821660218401526001600160601b0319606089811b821660258601529188901b909216603984015285901b16603d82015260518101839052607181018290525f90609101604051602081830303815290604052805190602001209050979650505050505050565b5f54610100900460ff161580801562000d1057505f54600160ff909116105b8062000d34575062000d2230620017e1565b15801562000d3457505f5460ff166001145b62000d9d5760405162461bcd60e51b815260206004820152602e60248201527f496e697469616c697a61626c653a20636f6e747261637420697320616c72656160448201526d191e481a5b9a5d1a585b1a5e995960921b60648201526084015b60405180910390fd5b5f805460ff19166001179055801562000dbf575f805461ff0019166101001790555b60688054610100600160c81b03191661010063ffffffff871602600160281b600160c81b03191617600160281b6001600160a01b038681169190910291909117909155606c80546001600160a01b03191691841691909117905562000e23620017f0565b801562000e69575f805461ff0019169055604051600181527f7f26b83ff96e1f2b6a682f133852f6798a09c465da95921460cefb38474024989060200160405180910390a15b50505050565b605354606854600160c81b900463ffffffff1610156200050b576200050b62001591565b5f80888860405160200162000eaa929190620027f1565b6040516020818303038152906040528051906020012090505f60ff60f81b30836040518060200162000edc90620022f8565b601f1982820381018352601f90910116604081905262000f09908d908d908d908d908d9060200162002bb9565b60408051601f198184030181529082905262000f29929160200162002bf9565b6040516020818303038152906040528051906020012060405160200162000f8294939291906001600160f81b031994909416845260609290921b6001600160601b03191660018401526015830152603582015260550190565b60408051808303601f1901815291905280516020909101209a9950505050505050505050565b60685460ff161562000fcd57604051630bc011ff60e21b815260040160405180910390fd5b62000fd762001823565b60685463ffffffff88811661010090920416148062000ffd5750600263ffffffff881610155b156200101c576040516302caf51760e11b815260040160405180910390fd5b5f806060876001600160a01b0388166200105a57883414620010515760405163b89240f560e01b815260040160405180910390fd5b5f9250620012b1565b34156200107a5760405163798ee6f160e01b815260040160405180910390fd5b6001600160a01b038089165f908152606b602090815260409182902082518084019093525463ffffffff81168352600160201b900490921691810182905290156200113157604051632770a7eb60e21b81526001600160a01b038a1690639dc29fac90620010ef9033908e9060040162002aa2565b5f604051808303815f87803b15801562001107575f80fd5b505af11580156200111a573d5f803e3d5ffd5b5050505080602001519450805f01519350620012af565b8515620011465762001146898b89896200187e565b6040516370a0823160e01b81525f906001600160a01b038b16906370a0823190620011769030906004016200236c565b602060405180830381865afa15801562001192573d5f803e3d5ffd5b505050506040513d601f19601f82011682018060405250810190620011b8919062002c2b565b9050620011d16001600160a01b038b1633308e62001bd5565b6040516370a0823160e01b81525f906001600160a01b038c16906370a0823190620012019030906004016200236c565b602060405180830381865afa1580156200121d573d5f803e3d5ffd5b505050506040513d601f19601f8201168201806040525081019062001243919062002c2b565b905062001251828262002c43565b6068548c9850610100900463ffffffff1696509350620012718762001c0f565b6200127c8c62001cd2565b620012878d62001d8c565b6040516020016200129b9392919062002a66565b604051602081830303815290604052945050505b505b5f80516020620045368339815191525f84868e8e8688605354604051620012e098979695949392919062002c59565b60405180910390a162001304620006545f85878f8f87898051906020012062000c65565b861562001315576200131562001591565b505050506200132360018055565b50505050505050565b606c546001600160a01b03163314620013585760405163e2e8106b60e01b815260040160405180910390fd5b6200050b62001e4f565b5f84815b60208110156200142c57600163ffffffff8616821c81169003620013d05785816020811062001399576200139962002b68565b602002013582604051602001620013b292919062002b7c565b60405160208183030381529060405280519060200120915062001417565b81868260208110620013e657620013e662002b68565b6020020135604051602001620013fe92919062002b7c565b6040516020818303038152906040528051906020012091505b80620014238162002b9e565b91505062001366565b50821490505b949350505050565b60685460ff16156200145f57604051630bc011ff60e21b815260040160405180910390fd5b6068805460ff191660011790556040517f2261efe5aef6fedc1fd1550b25facc9181745623049c7901287030b9ad1a5497905f90a1565b806001620014a76020600262002dbe565b620014b3919062002c43565b60535410620014d5576040516377ae67b360e11b815260040160405180910390fd5b5f60535f8154620014e69062002b9e565b918290555090505f5b602081101562001581578082901c600116600103620015275782603382602081106200151f576200151f62002b68565b015550505050565b603381602081106200153d576200153d62002b68565b0154836040516020016200155392919062002b7c565b6040516020818303038152906040528051906020012092508080620015789062002b9e565b915050620014ef565b506200158c62002dcb565b505050565b6053546068805463ffffffff909216600160c81b0263ffffffff60c81b1990921691909117908190556001600160a01b03600160281b909104166333d6247d620015da62000b7e565b6040518263ffffffff1660e01b8152600401620015f991815260200190565b5f604051808303815f87803b15801562001611575f80fd5b505af115801562000e69573d5f803e3d5ffd5b620016358b63ffffffff1662001ea7565b6068545f90600160281b90046001600160a01b031663257b36326200165b8d8d62001ef2565b6040518263ffffffff1660e01b81526004016200167a91815260200190565b6020604051808303815f875af115801562001697573d5f803e3d5ffd5b505050506040513d601f19601f82011682018060405250810190620016bd919062002c2b565b9050805f03620016df57604051622f6fad60e01b815260040160405180910390fd5b60685463ffffffff888116610100909204161462001710576040516302caf51760e11b815260040160405180910390fd5b6068545f90610100900463ffffffff166200172d57508962001730565b508a5b6200175962001750848c8c8c8c8c8c8c60405162000646929190620028b1565b8f8f8462001362565b62001777576040516338105f3b60e21b815260040160405180910390fd5b5050505050505050505050505050565b6200158c8363a9059cbb60e01b8484604051602401620017a992919062002aa2565b60408051601f198184030181529190526020810180516001600160e01b03166001600160e01b03199093169290921790915262001f26565b6001600160a01b03163b151590565b5f54610100900460ff16620018195760405162461bcd60e51b815260040162000d949062002ddf565b6200050b62001ffe565b600260015403620018775760405162461bcd60e51b815260206004820152601f60248201527f5265656e7472616e637947756172643a207265656e7472616e742063616c6c00604482015260640162000d94565b6002600155565b5f6200188e600482848662002e2a565b620018999162002e53565b9050632afa533160e01b6001600160e01b031982160162001a35575f808080808080620018ca896004818d62002e2a565b810190620018d9919062002e84565b9650965096509650965096509650336001600160a01b0316876001600160a01b0316146200191a5760405163912ecce760e01b815260040160405180910390fd5b6001600160a01b0386163014620019445760405163750643af60e01b815260040160405180910390fd5b8a851462001965576040516303fffc4b60e01b815260040160405180910390fd5b604080516001600160a01b0389811660248301528881166044830152606482018890526084820187905260ff861660a483015260c4820185905260e48083018590528351808403909101815261010490920183526020820180516001600160e01b031663d505accf60e01b1790529151918e1691620019e59190620028f8565b5f604051808303815f865af19150503d805f811462001a20576040519150601f19603f3d011682016040523d82523d5f602084013e62001a25565b606091505b505050505050505050506200066b565b6001600160e01b031981166323f2ebc360e21b1462001a6757604051637141605d60e11b815260040160405180910390fd5b5f8080808080808062001a7e8a6004818e62002e2a565b81019062001a8d919062002eda565b97509750975097509750975097509750336001600160a01b0316886001600160a01b03161462001ad05760405163912ecce760e01b815260040160405180910390fd5b6001600160a01b038716301462001afa5760405163750643af60e01b815260040160405180910390fd5b604080516001600160a01b038a811660248301528981166044830152606482018990526084820188905286151560a483015260ff861660c483015260e482018590526101048083018590528351808403909101815261012490920183526020820180516001600160e01b03166323f2ebc360e21b1790529151918f169162001b839190620028f8565b5f604051808303815f865af19150503d805f811462001bbe576040519150601f19603f3d011682016040523d82523d5f602084013e62001bc3565b606091505b50505050505050505050505050505050565b6040516001600160a01b038085166024830152831660448201526064810182905262000e699085906323b872dd60e01b90608401620017a9565b60408051600481526024810182526020810180516001600160e01b03166306fdde0360e01b17905290516060915f9182916001600160a01b0386169162001c579190620028f8565b5f60405180830381855afa9150503d805f811462001c91576040519150601f19603f3d011682016040523d82523d5f602084013e62001c96565b606091505b50915091508162001cc757604051806040016040528060078152602001664e4f5f4e414d4560c81b81525062001432565b620014328162002027565b60408051600481526024810182526020810180516001600160e01b03166395d89b4160e01b17905290516060915f9182916001600160a01b0386169162001d1a9190620028f8565b5f60405180830381855afa9150503d805f811462001d54576040519150601f19603f3d011682016040523d82523d5f602084013e62001d59565b606091505b50915091508162001cc757604051806040016040528060098152602001681393d7d4d6535093d360ba1b81525062001432565b60408051600481526024810182526020810180516001600160e01b031663313ce56760e01b17905290515f91829182916001600160a01b0386169162001dd39190620028f8565b5f60405180830381855afa9150503d805f811462001e0d576040519150601f19603f3d011682016040523d82523d5f602084013e62001e12565b606091505b509150915081801562001e26575080516020145b62001e3357601262001432565b8080602001905181019062001432919062002f61565b60018055565b60685460ff1662001e7357604051635386698160e01b815260040160405180910390fd5b6068805460ff191690556040517f1e5e34eea33501aecf2ebec9fe0e884a40804275ea7fe10b2ba084c8374308b3905f90a1565b600881901c5f8181526069602052604081208054600160ff861690811b918218928390559290919081831690036200066b57604051630c8d9eab60e31b815260040160405180910390fd5b5f828260405160200162001f0892919062002b7c565b60405160208183030381529060405280519060200120905092915050565b5f62001f7c826040518060400160405280602081526020017f5361666545524332303a206c6f772d6c6576656c2063616c6c206661696c6564815250856001600160a01b0316620021cb9092919063ffffffff16565b8051909150156200158c578080602001905181019062001f9d919062002f7f565b6200158c5760405162461bcd60e51b815260206004820152602a60248201527f5361666545524332303a204552433230206f7065726174696f6e20646964206e6044820152691bdd081cdd58d8d9595960b21b606482015260840162000d94565b5f54610100900460ff1662001e495760405162461bcd60e51b815260040162000d949062002ddf565b6060604082511062002049578180602001905181019062000557919062002f9d565b815160200362002198575f5b60208110801562002088575082818151811062002076576200207662002b68565b01602001516001600160f81b03191615155b15620020a357806200209a8162002b9e565b91505062002055565b805f03620020db5750506040805180820190915260128152714e4f545f56414c49445f454e434f44494e4760701b6020820152919050565b5f816001600160401b03811115620020f757620020f7620028c0565b6040519080825280601f01601f19166020018201604052801562002122576020820181803683370190505b5090505f5b82811015620021905784818151811062002145576200214562002b68565b602001015160f81c60f81b82828151811062002165576200216562002b68565b60200101906001600160f81b03191690815f1a90535080620021878162002b9e565b91505062002127565b509392505050565b50506040805180820190915260128152714e4f545f56414c49445f454e434f44494e4760701b602082015290565b919050565b60606200143284845f85855f80866001600160a01b03168587604051620021f39190620028f8565b5f6040518083038185875af1925050503d805f81146200222f576040519150601f19603f3d011682016040523d82523d5f602084013e62002234565b606091505b5091509150620022478783838762002252565b979650505050505050565b60608315620022c55782515f03620022bd576200226f85620017e1565b620022bd5760405162461bcd60e51b815260206004820152601d60248201527f416464726573733a2063616c6c20746f206e6f6e2d636f6e7472616374000000604482015260640162000d94565b508162001432565b620014328383815115620022dc5781518083602001fd5b8060405162461bcd60e51b815260040162000d94919062003017565b61150a806200302c83390190565b803563ffffffff81168114620021c6575f80fd5b6001600160a01b03811681146200232f575f80fd5b50565b5f806040838503121562002344575f80fd5b6200234f8362002306565b9150602083013562002361816200231a565b809150509250929050565b6001600160a01b0391909116815260200190565b80151581146200232f575f80fd5b5f8083601f8401126200239f575f80fd5b5081356001600160401b03811115620023b6575f80fd5b602083019150836020828501011115620023ce575f80fd5b9250929050565b5f805f805f60808688031215620023ea575f80fd5b620023f58662002306565b9450602086013562002407816200231a565b93506040860135620024198162002380565b925060608601356001600160401b0381111562002434575f80fd5b62002442888289016200238e565b969995985093965092949392505050565b80610400810183101562000557575f80fd5b5f805f805f805f805f805f6105208c8e03121562002481575f80fd5b6200248d8d8d62002453565b9a506200249e6104008d0162002306565b99506104208c013598506104408c01359750620024bf6104608d0162002306565b96506104808c0135620024d2816200231a565b9550620024e36104a08d0162002306565b94506104c08c0135620024f6816200231a565b93506104e08c013592506105008c01356001600160401b038111156200251a575f80fd5b620025288e828f016200238e565b915080935050809150509295989b509295989b9093969950565b5f6020828403121562002553575f80fd5b813562002560816200231a565b9392505050565b60ff811681146200232f575f80fd5b5f805f805f805f60e0888a0312156200258d575f80fd5b87356200259a8162002567565b9650620025aa6020890162002306565b95506040880135620025bc816200231a565b9450620025cc6060890162002306565b93506080880135620025de816200231a565b9699959850939692959460a0840135945060c09093013592915050565b5f805f606084860312156200260e575f80fd5b620026198462002306565b925060208401356200262b816200231a565b915060408401356200263d816200231a565b809150509250925092565b5f6020828403121562002659575f80fd5b5035919050565b5f805f805f805f60a0888a03121562002677575f80fd5b620026828862002306565b9650602088013562002694816200231a565b955060408801356001600160401b0380821115620026b0575f80fd5b620026be8b838c016200238e565b909750955060608a0135915080821115620026d7575f80fd5b50620026e68a828b016200238e565b9094509250506080880135620026fc8162002567565b8091505092959891949750929550565b5f805f805f805f60c0888a03121562002723575f80fd5b6200272e8862002306565b9650602088013562002740816200231a565b955060408801359450606088013562002759816200231a565b935060808801356200276b8162002380565b925060a08801356001600160401b0381111562002786575f80fd5b620027948a828b016200238e565b989b979a50959850939692959293505050565b5f805f806104608587031215620027bc575f80fd5b84359350620027cf866020870162002453565b9250620027e0610420860162002306565b939692955092936104400135925050565b60e09290921b6001600160e01b031916825260601b6001600160601b031916600482015260180190565b81835281816020850137505f828201602090810191909152601f909101601f19169091010190565b60ff8a16815263ffffffff89811660208301526001600160a01b03898116604084015288821660608401528716608083015260a0820186905261010060c083018190525f916200289784830187896200281b565b925080851660e085015250509a9950505050505050505050565b818382375f9101908152919050565b634e487b7160e01b5f52604160045260245ffd5b5f5b83811015620028f0578181015183820152602001620028d6565b50505f910152565b5f82516200290b818460208701620028d4565b9190910192915050565b604051601f8201601f191681016001600160401b0381118282101715620029405762002940620028c0565b604052919050565b5f6001600160401b03821115620029635762002963620028c0565b50601f01601f191660200190565b5f82601f83011262002981575f80fd5b813562002998620029928262002948565b62002915565b818152846020838601011115620029ad575f80fd5b816020850160208301375f918101602001919091529392505050565b5f805f60608486031215620029dc575f80fd5b83356001600160401b0380821115620029f3575f80fd5b62002a018783880162002971565b9450602086013591508082111562002a17575f80fd5b5062002a268682870162002971565b92505060408401356200263d8162002567565b5f815180845262002a52816020860160208601620028d4565b601f01601f19169290920160200192915050565b606081525f62002a7a606083018662002a39565b828103602084015262002a8e818662002a39565b91505060ff83166040830152949350505050565b6001600160a01b03929092168252602082015260400190565b63ffffffff861681526001600160a01b038581166020830152841660408201526080606082018190525f906200224790830184866200281b565b63ffffffff95861681529390941660208401526001600160a01b039182166040840152166060820152608081019190915260a00190565b6001600160a01b038516815263ffffffff841660208201526060604082018190525f9062002b5e90830184866200281b565b9695505050505050565b634e487b7160e01b5f52603260045260245ffd5b918252602082015260400190565b634e487b7160e01b5f52601160045260245ffd5b5f6001820162002bb25762002bb262002b8a565b5060010190565b606081525f62002bce6060830187896200281b565b828103602084015262002be38186886200281b565b91505060ff831660408301529695505050505050565b5f835162002c0c818460208801620028d4565b83519083019062002c22818360208801620028d4565b01949350505050565b5f6020828403121562002c3c575f80fd5b5051919050565b8181038181111562000557576200055762002b8a565b60ff8916815263ffffffff88811660208301526001600160a01b03888116604084015287821660608401528616608083015260a0820185905261010060c083018190525f9162002cac8483018762002a39565b925080851660e085015250509998505050505050505050565b600181815b8085111562002d0557815f190482111562002ce95762002ce962002b8a565b8085161562002cf757918102915b93841c939080029062002cca565b509250929050565b5f8262002d1d5750600162000557565b8162002d2b57505f62000557565b816001811462002d44576002811462002d4f5762002d6f565b600191505062000557565b60ff84111562002d635762002d6362002b8a565b50506001821b62000557565b5060208310610133831016604e8410600b841016171562002d94575081810a62000557565b62002da0838362002cc5565b805f190482111562002db65762002db662002b8a565b029392505050565b5f62002560838362002d0d565b634e487b7160e01b5f52600160045260245ffd5b6020808252602b908201527f496e697469616c697a61626c653a20636f6e7472616374206973206e6f74206960408201526a6e697469616c697a696e6760a81b606082015260800190565b5f808585111562002e39575f80fd5b8386111562002e46575f80fd5b5050820193919092039150565b6001600160e01b0319813581811691600485101562002e7c5780818660040360031b1b83161692505b505092915050565b5f805f805f805f60e0888a03121562002e9b575f80fd5b873562002ea8816200231a565b9650602088013562002eba816200231a565b955060408801359450606088013593506080880135620025de8162002567565b5f805f805f805f80610100898b03121562002ef3575f80fd5b883562002f00816200231a565b9750602089013562002f12816200231a565b96506040890135955060608901359450608089013562002f328162002380565b935060a089013562002f448162002567565b979a969950949793969295929450505060c08201359160e0013590565b5f6020828403121562002f72575f80fd5b8151620025608162002567565b5f6020828403121562002f90575f80fd5b8151620025608162002380565b5f6020828403121562002fae575f80fd5b81516001600160401b0381111562002fc4575f80fd5b8201601f8101841362002fd5575f80fd5b805162002fe6620029928262002948565b81815285602083850101111562002ffb575f80fd5b6200300e826020830160208601620028d4565b95945050505050565b602081525f62002560602083018462002a3956fe61010060405234801562000011575f80fd5b506040516200150a3803806200150a833981016040819052620000349162000282565b828260036200004483826200038d565b5060046200005382826200038d565b50503360c0525060ff811660e05246608081905262000072906200007f565b60a0525062000455915050565b5f7f8b73c3c69bb8fe3d512ecc4cf759cc79239f7b179b0ffacaa9a75d522b39400f620000ab6200012c565b805160209182012060408051808201825260018152603160f81b90840152805192830193909352918101919091527fc89efdaa54c0f20c7adf612882df0950f5a951637e0307cdcb4c672f298b8bc66060820152608081018390523060a082015260c001604051602081830303815290604052805190602001209050919050565b6060600380546200013d9062000301565b80601f01602080910402602001604051908101604052809291908181526020018280546200016b9062000301565b8015620001ba5780601f106200019057610100808354040283529160200191620001ba565b820191905f5260205f20905b8154815290600101906020018083116200019c57829003601f168201915b5050505050905090565b634e487b7160e01b5f52604160045260245ffd5b5f82601f830112620001e8575f80fd5b81516001600160401b0380821115620002055762000205620001c4565b604051601f8301601f19908116603f01168101908282118183101715620002305762000230620001c4565b816040528381526020925086838588010111156200024c575f80fd5b5f91505b838210156200026f578582018301518183018401529082019062000250565b5f93810190920192909252949350505050565b5f805f6060848603121562000295575f80fd5b83516001600160401b0380821115620002ac575f80fd5b620002ba87838801620001d8565b94506020860151915080821115620002d0575f80fd5b50620002df86828701620001d8565b925050604084015160ff81168114620002f6575f80fd5b809150509250925092565b600181811c908216806200031657607f821691505b6020821081036200033557634e487b7160e01b5f52602260045260245ffd5b50919050565b601f82111562000388575f81815260208120601f850160051c81016020861015620003635750805b601f850160051c820191505b8181101562000384578281556001016200036f565b5050505b505050565b81516001600160401b03811115620003a957620003a9620001c4565b620003c181620003ba845462000301565b846200033b565b602080601f831160018114620003f7575f8415620003df5750858301515b5f19600386901b1c1916600185901b17855562000384565b5f85815260208120601f198616915b82811015620004275788860151825594840194600190910190840162000406565b50858210156200044557878501515f19600388901b60f8161c191681555b5050505050600190811b01905550565b60805160a05160c05160e05161106c6200049e5f395f61019e01525f818161025f0152818161047f01526104ed01525f61043101525f81816102c401526103fb015261106c5ff3fe608060405234801561000f575f80fd5b5060043610610105575f3560e01c806306fdde0314610109578063095ea7b31461012757806318160ddd1461014a57806320606b701461015c57806323b872dd1461017057806330adf81f14610183578063313ce567146101975780633644e515146101c857806339509351146101d057806340c10f19146101e357806370a08231146101f85780637ecebe001461022057806395d89b411461023f5780639dc29fac14610247578063a3c573eb1461025a578063a457c2d714610299578063a9059cbb146102ac578063cd0d0096146102bf578063d505accf146102e6578063dd62ed3e146102f9578063ffa1ad741461030c575b5f80fd5b61011161032c565b60405161011e9190610d8a565b60405180910390f35b61013a610135366004610df0565b6103bc565b604051901515815260200161011e565b6002545b60405190815260200161011e565b61014e5f8051602061101783398151915281565b61013a61017e366004610e18565b6103d5565b61014e5f80516020610ff783398151915281565b60405160ff7f000000000000000000000000000000000000000000000000000000000000000016815260200161011e565b61014e6103f8565b61013a6101de366004610df0565b610453565b6101f66101f1366004610df0565b610474565b005b61014e610206366004610e51565b6001600160a01b03165f9081526020819052604090205490565b61014e61022e366004610e51565b60056020525f908152604090205481565b6101116104d3565b6101f6610255366004610df0565b6104e2565b6102817f000000000000000000000000000000000000000000000000000000000000000081565b6040516001600160a01b03909116815260200161011e565b61013a6102a7366004610df0565b610534565b61013a6102ba366004610df0565b6105ae565b61014e7f000000000000000000000000000000000000000000000000000000000000000081565b6101f66102f4366004610e71565b6105bb565b61014e610307366004610ede565b6107de565b610111604051806040016040528060018152602001603160f81b81525081565b60606003805461033b90610f0f565b80601f016020809104026020016040519081016040528092919081815260200182805461036790610f0f565b80156103b25780601f10610389576101008083540402835291602001916103b2565b820191905f5260205f20905b81548152906001019060200180831161039557829003601f168201915b5050505050905090565b5f336103c9818585610808565b60019150505b92915050565b5f336103e285828561092c565b6103ed8585856109a4565b506001949350505050565b5f7f0000000000000000000000000000000000000000000000000000000000000000461461042e5761042946610b33565b905090565b507f000000000000000000000000000000000000000000000000000000000000000090565b5f336103c981858561046583836107de565b61046f9190610f5b565b610808565b336001600160a01b037f000000000000000000000000000000000000000000000000000000000000000016146104c55760405162461bcd60e51b81526004016104bc90610f6e565b60405180910390fd5b6104cf8282610bcb565b5050565b60606004805461033b90610f0f565b336001600160a01b037f0000000000000000000000000000000000000000000000000000000000000000161461052a5760405162461bcd60e51b81526004016104bc90610f6e565b6104cf8282610c75565b5f338161054182866107de565b9050838110156105a15760405162461bcd60e51b815260206004820152602560248201527f45524332303a2064656372656173656420616c6c6f77616e63652062656c6f77604482015264207a65726f60d81b60648201526084016104bc565b6103ed8286868403610808565b5f336103c98185856109a4565b834211156106175760405162461bcd60e51b8152602060048201526024808201527f546f6b656e577261707065643a3a7065726d69743a20457870697265642070656044820152631c9b5a5d60e21b60648201526084016104bc565b6001600160a01b0387165f90815260056020526040812080545f80516020610ff7833981519152918a918a918a91908661065083610fbe565b909155506040805160208101969096526001600160a01b0394851690860152929091166060840152608083015260a082015260c0810186905260e0016040516020818303038152906040528051906020012090505f6106ad6103f8565b60405161190160f01b602082015260228101919091526042810183905260620160408051601f1981840301815282825280516020918201205f80855291840180845281905260ff89169284019290925260608301879052608083018690529092509060019060a0016020604051602081039080840390855afa158015610735573d5f803e3d5ffd5b5050604051601f1901519150506001600160a01b0381161580159061076b5750896001600160a01b0316816001600160a01b0316145b6107c75760405162461bcd60e51b815260206004820152602760248201527f546f6b656e577261707065643a3a7065726d69743a20496e76616c6964207369604482015266676e617475726560c81b60648201526084016104bc565b6107d28a8a8a610808565b50505050505050505050565b6001600160a01b039182165f90815260016020908152604080832093909416825291909152205490565b6001600160a01b03831661086a5760405162461bcd60e51b8152602060048201526024808201527f45524332303a20617070726f76652066726f6d20746865207a65726f206164646044820152637265737360e01b60648201526084016104bc565b6001600160a01b0382166108cb5760405162461bcd60e51b815260206004820152602260248201527f45524332303a20617070726f766520746f20746865207a65726f206164647265604482015261737360f01b60648201526084016104bc565b6001600160a01b038381165f8181526001602090815260408083209487168084529482529182902085905590518481527f8c5be1e5ebec7d5bd14f71427d1e84f3dd0314c0f7b2291e5b200ac8c7c3b92591015b60405180910390a3505050565b5f61093784846107de565b90505f19811461099e57818110156109915760405162461bcd60e51b815260206004820152601d60248201527f45524332303a20696e73756666696369656e7420616c6c6f77616e636500000060448201526064016104bc565b61099e8484848403610808565b50505050565b6001600160a01b038316610a085760405162461bcd60e51b815260206004820152602560248201527f45524332303a207472616e736665722066726f6d20746865207a65726f206164604482015264647265737360d81b60648201526084016104bc565b6001600160a01b038216610a6a5760405162461bcd60e51b815260206004820152602360248201527f45524332303a207472616e7366657220746f20746865207a65726f206164647260448201526265737360e81b60648201526084016104bc565b6001600160a01b0383165f9081526020819052604090205481811015610ae15760405162461bcd60e51b815260206004820152602660248201527f45524332303a207472616e7366657220616d6f756e7420657863656564732062604482015265616c616e636560d01b60648201526084016104bc565b6001600160a01b038481165f81815260208181526040808320878703905593871680835291849020805487019055925185815290925f80516020610fd7833981519152910160405180910390a361099e565b5f5f80516020611017833981519152610b4a61032c565b805160209182012060408051808201825260018152603160f81b90840152805192830193909352918101919091527fc89efdaa54c0f20c7adf612882df0950f5a951637e0307cdcb4c672f298b8bc66060820152608081018390523060a082015260c001604051602081830303815290604052805190602001209050919050565b6001600160a01b038216610c215760405162461bcd60e51b815260206004820152601f60248201527f45524332303a206d696e7420746f20746865207a65726f20616464726573730060448201526064016104bc565b8060025f828254610c329190610f5b565b90915550506001600160a01b0382165f81815260208181526040808320805486019055518481525f80516020610fd7833981519152910160405180910390a35050565b6001600160a01b038216610cd55760405162461bcd60e51b815260206004820152602160248201527f45524332303a206275726e2066726f6d20746865207a65726f206164647265736044820152607360f81b60648201526084016104bc565b6001600160a01b0382165f9081526020819052604090205481811015610d485760405162461bcd60e51b815260206004820152602260248201527f45524332303a206275726e20616d6f756e7420657863656564732062616c616e604482015261636560f01b60648201526084016104bc565b6001600160a01b0383165f818152602081815260408083208686039055600280548790039055518581529192915f80516020610fd7833981519152910161091f565b5f6020808352835180828501525f5b81811015610db557858101830151858201604001528201610d99565b505f604082860101526040601f19601f8301168501019250505092915050565b80356001600160a01b0381168114610deb575f80fd5b919050565b5f8060408385031215610e01575f80fd5b610e0a83610dd5565b946020939093013593505050565b5f805f60608486031215610e2a575f80fd5b610e3384610dd5565b9250610e4160208501610dd5565b9150604084013590509250925092565b5f60208284031215610e61575f80fd5b610e6a82610dd5565b9392505050565b5f805f805f805f60e0888a031215610e87575f80fd5b610e9088610dd5565b9650610e9e60208901610dd5565b95506040880135945060608801359350608088013560ff81168114610ec1575f80fd5b9699959850939692959460a0840135945060c09093013592915050565b5f8060408385031215610eef575f80fd5b610ef883610dd5565b9150610f0660208401610dd5565b90509250929050565b600181811c90821680610f2357607f821691505b602082108103610f4157634e487b7160e01b5f52602260045260245ffd5b50919050565b634e487b7160e01b5f52601160045260245ffd5b808201808211156103cf576103cf610f47565b60208082526030908201527f546f6b656e577261707065643a3a6f6e6c794272696467653a204e6f7420506f60408201526f6c79676f6e5a6b45564d42726964676560801b606082015260800190565b5f60018201610fcf57610fcf610f47565b506001019056feddf252ad1be2c89b69c2b068fc378daa952ba7f163c4a11628f55a4df523b3ef6e71edae12b1b97f4d1f60370fef10105fa2faae0126114a169c64845d6126c98b73c3c69bb8fe3d512ecc4cf759cc79239f7b179b0ffacaa9a75d522b39400fa26469706673582212206c12be332dd873b7cf88c58dfc4762858b63e8ff3bf8563b47828a5a4272643b64736f6c63430008140033501781209a1f8899323b96b4ef08b168df93e0a90c673d1e4cce39366cb62f9b25308c93ceeed162da955b3f7ce3e3f93606579e40fb92029faa9efe27545983a2646970667358221220c9b1840436353a036fc77dd82a0a8f92815c9f865ef8221a65aee798b479fe5464736f6c63430008140033",
  "linkReferences": {},
  "deployedLinkReferences": {}
}