{
  "_format": "hh-sol-artifact-1",
  "contractName": "PolygonZkEVMMock",
  "sourceName": "contracts/mocks/PolygonZkEVMMock.sol",
  "abi": [
    {
      "inputs": [
        {
          "internalType": "contract IPolygonZkEVMGlobalExitRoot",
          "name": "_globalExitRootManager",
          "type": "address"
        },
        {
          "internalType": "contract IERC20Upgradeable",
          "name": "_matic",
          "type": "address"
        },
        {
          "internalType": "contract IVerifierRollup",
          "name": "_rollupVerifier",
          "type": "address"
        },
        {
          "internalType": "contract IPolygonZkEVMBridge",
          "name": "_bridgeAddress",
          "type": "address"
        },
        {
          "internalType": "uint64",
          "name": "_chainID",
          "type": "uint64"
        },
        {
          "internalType": "uint64",
          "name": "_forkID",
          "type": "uint64"
        }
      ],
      "stateMutability": "nonpayable",
      "type": "constructor"
    },
    {
      "inputs": [],
      "name": "BatchAlreadyVerified",
      "type": "error"
    },
    {
      "inputs": [],
      "name": "BatchNotSequencedOrNotSequenceEnd",
      "type": "error"
    },
    {
      "inputs": [],
      "name": "ExceedMaxVerifyBatches",
      "type": "error"
    },
    {
      "inputs": [],
      "name": "FinalNumBatchBelowLastVerifiedBatch",
      "type": "error"
    },
    {
      "inputs": [],
      "name": "FinalNumBatchDoesNotMatchPendingState",
      "type": "error"
    },
    {
      "inputs": [],
      "name": "FinalPendingStateNumInvalid",
      "type": "error"
    },
    {
      "inputs": [],
      "name": "ForceBatchNotAllowed",
      "type": "error"
    },
    {
      "inputs": [],
      "name": "ForceBatchTimeoutNotExpired",
      "type": "error"
    },
    {
      "inputs": [],
      "name": "ForceBatchesAlreadyActive",
      "type": "error"
    },
    {
      "inputs": [],
      "name": "ForceBatchesOverflow",
      "type": "error"
    },
    {
      "inputs": [],
      "name": "ForcedDataDoesNotMatch",
      "type": "error"
    },
    {
      "inputs": [],
      "name": "GlobalExitRootNotExist",
      "type": "error"
    },
    {
      "inputs": [],
      "name": "HaltTimeoutNotExpired",
      "type": "error"
    },
    {
      "inputs": [],
      "name": "InitNumBatchAboveLastVerifiedBatch",
      "type": "error"
    },
    {
      "inputs": [],
      "name": "InitNumBatchDoesNotMatchPendingState",
      "type": "error"
    },
    {
      "inputs": [],
      "name": "InvalidProof",
      "type": "error"
    },
    {
      "inputs": [],
      "name": "InvalidRangeBatchTimeTarget",
      "type": "error"
    },
    {
      "inputs": [],
      "name": "InvalidRangeForceBatchTimeout",
      "type": "error"
    },
    {
      "inputs": [],
      "name": "InvalidRangeMultiplierBatchFee",
      "type": "error"
    },
    {
      "inputs": [],
      "name": "NewAccInputHashDoesNotExist",
      "type": "error"
    },
    {
      "inputs": [],
      "name": "NewPendingStateTimeoutMustBeLower",
      "type": "error"
    },
    {
      "inputs": [],
      "name": "NewStateRootNotInsidePrime",
      "type": "error"
    },
    {
      "inputs": [],
      "name": "NewTrustedAggregatorTimeoutMustBeLower",
      "type": "error"
    },
    {
      "inputs": [],
      "name": "NotEnoughMaticAmount",
      "type": "error"
    },
    {
      "inputs": [],
      "name": "OldAccInputHashDoesNotExist",
      "type": "error"
    },
    {
      "inputs": [],
      "name": "OldStateRootDoesNotExist",
      "type": "error"
    },
    {
      "inputs": [],
      "name": "OnlyAdmin",
      "type": "error"
    },
    {
      "inputs": [],
      "name": "OnlyEmergencyState",
      "type": "error"
    },
    {
      "inputs": [],
      "name": "OnlyNotEmergencyState",
      "type": "error"
    },
    {
      "inputs": [],
      "name": "OnlyPendingAdmin",
      "type": "error"
    },
    {
      "inputs": [],
      "name": "OnlyTrustedAggregator",
      "type": "error"
    },
    {
      "inputs": [],
      "name": "OnlyTrustedSequencer",
      "type": "error"
    },
    {
      "inputs": [],
      "name": "PendingStateDoesNotExist",
      "type": "error"
    },
    {
      "inputs": [],
      "name": "PendingStateInvalid",
      "type": "error"
    },
    {
      "inputs": [],
      "name": "PendingStateNotConsolidable",
      "type": "error"
    },
    {
      "inputs": [],
      "name": "PendingStateTimeoutExceedHaltAggregationTimeout",
      "type": "error"
    },
    {
      "inputs": [],
      "name": "SequenceZeroBatches",
      "type": "error"
    },
    {
      "inputs": [],
      "name": "SequencedTimestampBelowForcedTimestamp",
      "type": "error"
    },
    {
      "inputs": [],
      "name": "SequencedTimestampInvalid",
      "type": "error"
    },
    {
      "inputs": [],
      "name": "StoredRootMustBeDifferentThanNewRoot",
      "type": "error"
    },
    {
      "inputs": [],
      "name": "TransactionsLengthAboveMax",
      "type": "error"
    },
    {
      "inputs": [],
      "name": "TrustedAggregatorTimeoutExceedHaltAggregationTimeout",
      "type": "error"
    },
    {
      "inputs": [],
      "name": "TrustedAggregatorTimeoutNotExpired",
      "type": "error"
    },
    {
      "anonymous": false,
      "inputs": [
        {
          "indexed": false,
          "internalType": "address",
          "name": "newAdmin",
          "type": "address"
        }
      ],
      "name": "AcceptAdminRole",
      "type": "event"
    },
    {
      "anonymous": false,
      "inputs": [],
      "name": "ActivateForceBatches",
      "type": "event"
    },
    {
      "anonymous": false,
      "inputs": [
        {
          "indexed": true,
          "internalType": "uint64",
          "name": "numBatch",
          "type": "uint64"
        },
        {
          "indexed": false,
          "internalType": "bytes32",
          "name": "stateRoot",
          "type": "bytes32"
        },
        {
          "indexed": true,
          "internalType": "uint64",
          "name": "pendingStateNum",
          "type": "uint64"
        }
      ],
      "name": "ConsolidatePendingState",
      "type": "event"
    },
    {
      "anonymous": false,
      "inputs": [],
      "name": "EmergencyStateActivated",
      "type": "event"
    },
    {
      "anonymous": false,
      "inputs": [],
      "name": "EmergencyStateDeactivated",
      "type": "event"
    },
    {
      "anonymous": false,
      "inputs": [
        {
          "indexed": true,
          "internalType": "uint64",
          "name": "forceBatchNum",
          "type": "uint64"
        },
        {
          "indexed": false,
          "internalType": "bytes32",
          "name": "lastGlobalExitRoot",
          "type": "bytes32"
        },
        {
          "indexed": false,
          "internalType": "address",
          "name": "sequencer",
          "type": "address"
        },
        {
          "indexed": false,
          "internalType": "bytes",
          "name": "transactions",
          "type": "bytes"
        }
      ],
      "name": "ForceBatch",
      "type": "event"
    },
    {
      "anonymous": false,
      "inputs": [
        {
          "indexed": false,
          "internalType": "uint8",
          "name": "version",
          "type": "uint8"
        }
      ],
      "name": "Initialized",
      "type": "event"
    },
    {
      "anonymous": false,
      "inputs": [
        {
          "indexed": true,
          "internalType": "uint64",
          "name": "numBatch",
          "type": "uint64"
        },
        {
          "indexed": false,
          "internalType": "bytes32",
          "name": "stateRoot",
          "type": "bytes32"
        },
        {
          "indexed": true,
          "internalType": "address",
          "name": "aggregator",
          "type": "address"
        }
      ],
      "name": "OverridePendingState",
      "type": "event"
    },
    {
      "anonymous": false,
      "inputs": [
        {
          "indexed": true,
          "internalType": "address",
          "name": "previousOwner",
          "type": "address"
        },
        {
          "indexed": true,
          "internalType": "address",
          "name": "newOwner",
          "type": "address"
        }
      ],
      "name": "OwnershipTransferred",
      "type": "event"
    },
    {
      "anonymous": false,
      "inputs": [
        {
          "indexed": false,
          "internalType": "bytes32",
          "name": "storedStateRoot",
          "type": "bytes32"
        },
        {
          "indexed": false,
          "internalType": "bytes32",
          "name": "provedStateRoot",
          "type": "bytes32"
        }
      ],
      "name": "ProveNonDeterministicPendingState",
      "type": "event"
    },
    {
      "anonymous": false,
      "inputs": [
        {
          "indexed": true,
          "internalType": "uint64",
          "name": "numBatch",
          "type": "uint64"
        }
      ],
      "name": "SequenceBatches",
      "type": "event"
    },
    {
      "anonymous": false,
      "inputs": [
        {
          "indexed": true,
          "internalType": "uint64",
          "name": "numBatch",
          "type": "uint64"
        }
      ],
      "name": "SequenceForceBatches",
      "type": "event"
    },
    {
      "anonymous": false,
      "inputs": [
        {
          "indexed": false,
          "internalType": "uint64",
          "name": "newforceBatchTimeout",
          "type": "uint64"
        }
      ],
      "name": "SetForceBatchTimeout",
      "type": "event"
    },
    {
      "anonymous": false,
      "inputs": [
        {
          "indexed": false,
          "internalType": "uint16",
          "name": "newMultiplierBatchFee",
          "type": "uint16"
        }
      ],
      "name": "SetMultiplierBatchFee",
      "type": "event"
    },
    {
      "anonymous": false,
      "inputs": [
        {
          "indexed": false,
          "internalType": "uint64",
          "name": "newPendingStateTimeout",
          "type": "uint64"
        }
      ],
      "name": "SetPendingStateTimeout",
      "type": "event"
    },
    {
      "anonymous": false,
      "inputs": [
        {
          "indexed": false,
          "internalType": "address",
          "name": "newTrustedAggregator",
          "type": "address"
        }
      ],
      "name": "SetTrustedAggregator",
      "type": "event"
    },
    {
      "anonymous": false,
      "inputs": [
        {
          "indexed": false,
          "internalType": "uint64",
          "name": "newTrustedAggregatorTimeout",
          "type": "uint64"
        }
      ],
      "name": "SetTrustedAggregatorTimeout",
      "type": "event"
    },
    {
      "anonymous": false,
      "inputs": [
        {
          "indexed": false,
          "internalType": "address",
          "name": "newTrustedSequencer",
          "type": "address"
        }
      ],
      "name": "SetTrustedSequencer",
      "type": "event"
    },
    {
      "anonymous": false,
      "inputs": [
        {
          "indexed": false,
          "internalType": "string",
          "name": "newTrustedSequencerURL",
          "type": "string"
        }
      ],
      "name": "SetTrustedSequencerURL",
      "type": "event"
    },
    {
      "anonymous": false,
      "inputs": [
        {
          "indexed": false,
          "internalType": "uint64",
          "name": "newVerifyBatchTimeTarget",
          "type": "uint64"
        }
      ],
      "name": "SetVerifyBatchTimeTarget",
      "type": "event"
    },
    {
      "anonymous": false,
      "inputs": [
        {
          "indexed": false,
          "internalType": "address",
          "name": "newPendingAdmin",
          "type": "address"
        }
      ],
      "name": "TransferAdminRole",
      "type": "event"
    },
    {
      "anonymous": false,
      "inputs": [
        {
          "indexed": false,
          "internalType": "uint64",
          "name": "numBatch",
          "type": "uint64"
        },
        {
          "indexed": false,
          "internalType": "uint64",
          "name": "forkID",
          "type": "uint64"
        },
        {
          "indexed": false,
          "internalType": "string",
          "name": "version",
          "type": "string"
        }
      ],
      "name": "UpdateZkEVMVersion",
      "type": "event"
    },
    {
      "anonymous": false,
      "inputs": [
        {
          "indexed": true,
          "internalType": "uint64",
          "name": "numBatch",
          "type": "uint64"
        },
        {
          "indexed": false,
          "internalType": "bytes32",
          "name": "stateRoot",
          "type": "bytes32"
        },
        {
          "indexed": true,
          "internalType": "address",
          "name": "aggregator",
          "type": "address"
        }
      ],
      "name": "VerifyBatches",
      "type": "event"
    },
    {
      "anonymous": false,
      "inputs": [
        {
          "indexed": true,
          "internalType": "uint64",
          "name": "numBatch",
          "type": "uint64"
        },
        {
          "indexed": false,
          "internalType": "bytes32",
          "name": "stateRoot",
          "type": "bytes32"
        },
        {
          "indexed": true,
          "internalType": "address",
          "name": "aggregator",
          "type": "address"
        }
      ],
      "name": "VerifyBatchesTrustedAggregator",
      "type": "event"
    },
    {
      "inputs": [],
      "name": "acceptAdminRole",
      "outputs": [],
      "stateMutability": "nonpayable",
      "type": "function"
    },
    {
      "inputs": [
        {
          "internalType": "uint64",
          "name": "sequencedBatchNum",
          "type": "uint64"
        }
      ],
      "name": "activateEmergencyState",
      "outputs": [],
      "stateMutability": "nonpayable",
      "type": "function"
    },
    {
      "inputs": [],
      "name": "activateForceBatches",
      "outputs": [],
      "stateMutability": "nonpayable",
      "type": "function"
    },
    {
      "inputs": [],
      "name": "admin",
      "outputs": [
        {
          "internalType": "address",
          "name": "",
          "type": "address"
        }
      ],
      "stateMutability": "view",
      "type": "function"
    },
    {
      "inputs": [],
      "name": "batchFee",
      "outputs": [
        {
          "internalType": "uint256",
          "name": "",
          "type": "uint256"
        }
      ],
      "stateMutability": "view",
      "type": "function"
    },
    {
      "inputs": [
        {
          "internalType": "uint64",
          "name": "",
          "type": "uint64"
        }
      ],
      "name": "batchNumToStateRoot",
      "outputs": [
        {
          "internalType": "bytes32",
          "name": "",
          "type": "bytes32"
        }
      ],
      "stateMutability": "view",
      "type": "function"
    },
    {
      "inputs": [],
      "name": "bridgeAddress",
      "outputs": [
        {
          "internalType": "contract IPolygonZkEVMBridge",
          "name": "",
          "type": "address"
        }
      ],
      "stateMutability": "view",
      "type": "function"
    },
    {
      "inputs": [
        {
          "internalType": "bytes32",
          "name": "currentAccInputHash",
          "type": "bytes32"
        },
        {
          "internalType": "bytes",
          "name": "transactions",
          "type": "bytes"
        },
        {
          "internalType": "bytes32",
          "name": "globalExitRoot",
          "type": "bytes32"
        },
        {
          "internalType": "uint64",
          "name": "timestamp",
          "type": "uint64"
        },
        {
          "internalType": "address",
          "name": "sequencerAddress",
          "type": "address"
        }
      ],
      "name": "calculateAccInputHash",
      "outputs": [
        {
          "internalType": "bytes32",
          "name": "",
          "type": "bytes32"
        }
      ],
      "stateMutability": "pure",
      "type": "function"
    },
    {
      "inputs": [],
      "name": "calculateRewardPerBatch",
      "outputs": [
        {
          "internalType": "uint256",
          "name": "",
          "type": "uint256"
        }
      ],
      "stateMutability": "view",
      "type": "function"
    },
    {
      "inputs": [],
      "name": "chainID",
      "outputs": [
        {
          "internalType": "uint64",
          "name": "",
          "type": "uint64"
        }
      ],
      "stateMutability": "view",
      "type": "function"
    },
    {
      "inputs": [
        {
          "internalType": "uint256",
          "name": "newStateRoot",
          "type": "uint256"
        }
      ],
      "name": "checkStateRootInsidePrime",
      "outputs": [
        {
          "internalType": "bool",
          "name": "",
          "type": "bool"
        }
      ],
      "stateMutability": "pure",
      "type": "function"
    },
    {
      "inputs": [
        {
          "internalType": "uint64",
          "name": "pendingStateNum",
          "type": "uint64"
        }
      ],
      "name": "consolidatePendingState",
      "outputs": [],
      "stateMutability": "nonpayable",
      "type": "function"
    },
    {
      "inputs": [],
      "name": "deactivateEmergencyState",
      "outputs": [],
      "stateMutability": "nonpayable",
      "type": "function"
    },
    {
      "inputs": [
        {
          "internalType": "bytes",
          "name": "transactions",
          "type": "bytes"
        },
        {
          "internalType": "uint256",
          "name": "maticAmount",
          "type": "uint256"
        }
      ],
      "name": "forceBatch",
      "outputs": [],
      "stateMutability": "nonpayable",
      "type": "function"
    },
    {
      "inputs": [],
      "name": "forceBatchTimeout",
      "outputs": [
        {
          "internalType": "uint64",
          "name": "",
          "type": "uint64"
        }
      ],
      "stateMutability": "view",
      "type": "function"
    },
    {
      "inputs": [
        {
          "internalType": "uint64",
          "name": "",
          "type": "uint64"
        }
      ],
      "name": "forcedBatches",
      "outputs": [
        {
          "internalType": "bytes32",
          "name": "",
          "type": "bytes32"
        }
      ],
      "stateMutability": "view",
      "type": "function"
    },
    {
      "inputs": [],
      "name": "forkID",
      "outputs": [
        {
          "internalType": "uint64",
          "name": "",
          "type": "uint64"
        }
      ],
      "stateMutability": "view",
      "type": "function"
    },
    {
      "inputs": [],
      "name": "getForcedBatchFee",
      "outputs": [
        {
          "internalType": "uint256",
          "name": "",
          "type": "uint256"
        }
      ],
      "stateMutability": "view",
      "type": "function"
    },
    {
      "inputs": [
        {
          "internalType": "uint64",
          "name": "initNumBatch",
          "type": "uint64"
        },
        {
          "internalType": "uint64",
          "name": "finalNewBatch",
          "type": "uint64"
        },
        {
          "internalType": "bytes32",
          "name": "newLocalExitRoot",
          "type": "bytes32"
        },
        {
          "internalType": "bytes32",
          "name": "oldStateRoot",
          "type": "bytes32"
        },
        {
          "internalType": "bytes32",
          "name": "newStateRoot",
          "type": "bytes32"
        }
      ],
      "name": "getInputSnarkBytes",
      "outputs": [
        {
          "internalType": "bytes",
          "name": "",
          "type": "bytes"
        }
      ],
      "stateMutability": "view",
      "type": "function"
    },
    {
      "inputs": [],
      "name": "getLastVerifiedBatch",
      "outputs": [
        {
          "internalType": "uint64",
          "name": "",
          "type": "uint64"
        }
      ],
      "stateMutability": "view",
      "type": "function"
    },
    {
      "inputs": [
        {
          "internalType": "uint64",
          "name": "pendingStateNum",
          "type": "uint64"
        },
        {
          "internalType": "uint64",
          "name": "initNumBatch",
          "type": "uint64"
        },
        {
          "internalType": "uint64",
          "name": "finalNewBatch",
          "type": "uint64"
        },
        {
          "internalType": "bytes32",
          "name": "newLocalExitRoot",
          "type": "bytes32"
        },
        {
          "internalType": "bytes32",
          "name": "newStateRoot",
          "type": "bytes32"
        }
      ],
      "name": "getNextSnarkInput",
      "outputs": [
        {
          "internalType": "uint256",
          "name": "",
          "type": "uint256"
        }
      ],
      "stateMutability": "view",
      "type": "function"
    },
    {
      "inputs": [],
      "name": "globalExitRootManager",
      "outputs": [
        {
          "internalType": "contract IPolygonZkEVMGlobalExitRoot",
          "name": "",
          "type": "address"
        }
      ],
      "stateMutability": "view",
      "type": "function"
    },
    {
      "inputs": [
        {
          "components": [
            {
              "internalType": "address",
              "name": "admin",
              "type": "address"
            },
            {
              "internalType": "address",
              "name": "trustedSequencer",
              "type": "address"
            },
            {
              "internalType": "uint64",
              "name": "pendingStateTimeout",
              "type": "uint64"
            },
            {
              "internalType": "address",
              "name": "trustedAggregator",
              "type": "address"
            },
            {
              "internalType": "uint64",
              "name": "trustedAggregatorTimeout",
              "type": "uint64"
            }
          ],
          "internalType": "struct PolygonZkEVM.InitializePackedParameters",
          "name": "initializePackedParameters",
          "type": "tuple"
        },
        {
          "internalType": "bytes32",
          "name": "genesisRoot",
          "type": "bytes32"
        },
        {
          "internalType": "string",
          "name": "_trustedSequencerURL",
          "type": "string"
        },
        {
          "internalType": "string",
          "name": "_networkName",
          "type": "string"
        },
        {
          "internalType": "string",
          "name": "_version",
          "type": "string"
        }
      ],
      "name": "initialize",
      "outputs": [],
      "stateMutability": "nonpayable",
      "type": "function"
    },
    {
      "inputs": [],
      "name": "isEmergencyState",
      "outputs": [
        {
          "internalType": "bool",
          "name": "",
          "type": "bool"
        }
      ],
      "stateMutability": "view",
      "type": "function"
    },
    {
      "inputs": [],
      "name": "isForcedBatchDisallowed",
      "outputs": [
        {
          "internalType": "bool",
          "name": "",
          "type": "bool"
        }
      ],
      "stateMutability": "view",
      "type": "function"
    },
    {
      "inputs": [
        {
          "internalType": "uint64",
          "name": "pendingStateNum",
          "type": "uint64"
        }
      ],
      "name": "isPendingStateConsolidable",
      "outputs": [
        {
          "internalType": "bool",
          "name": "",
          "type": "bool"
        }
      ],
      "stateMutability": "view",
      "type": "function"
    },
    {
      "inputs": [],
      "name": "lastBatchSequenced",
      "outputs": [
        {
          "internalType": "uint64",
          "name": "",
          "type": "uint64"
        }
      ],
      "stateMutability": "view",
      "type": "function"
    },
    {
      "inputs": [],
      "name": "lastForceBatch",
      "outputs": [
        {
          "internalType": "uint64",
          "name": "",
          "type": "uint64"
        }
      ],
      "stateMutability": "view",
      "type": "function"
    },
    {
      "inputs": [],
      "name": "lastForceBatchSequenced",
      "outputs": [
        {
          "internalType": "uint64",
          "name": "",
          "type": "uint64"
        }
      ],
      "stateMutability": "view",
      "type": "function"
    },
    {
      "inputs": [],
      "name": "lastPendingState",
      "outputs": [
        {
          "internalType": "uint64",
          "name": "",
          "type": "uint64"
        }
      ],
      "stateMutability": "view",
      "type": "function"
    },
    {
      "inputs": [],
      "name": "lastPendingStateConsolidated",
      "outputs": [
        {
          "internalType": "uint64",
          "name": "",
          "type": "uint64"
        }
      ],
      "stateMutability": "view",
      "type": "function"
    },
    {
      "inputs": [],
      "name": "lastTimestamp",
      "outputs": [
        {
          "internalType": "uint64",
          "name": "",
          "type": "uint64"
        }
      ],
      "stateMutability": "view",
      "type": "function"
    },
    {
      "inputs": [],
      "name": "lastVerifiedBatch",
      "outputs": [
        {
          "internalType": "uint64",
          "name": "",
          "type": "uint64"
        }
      ],
      "stateMutability": "view",
      "type": "function"
    },
    {
      "inputs": [],
      "name": "matic",
      "outputs": [
        {
          "internalType": "contract IERC20Upgradeable",
          "name": "",
          "type": "address"
        }
      ],
      "stateMutability": "view",
      "type": "function"
    },
    {
      "inputs": [],
      "name": "multiplierBatchFee",
      "outputs": [
        {
          "internalType": "uint16",
          "name": "",
          "type": "uint16"
        }
      ],
      "stateMutability": "view",
      "type": "function"
    },
    {
      "inputs": [],
      "name": "networkName",
      "outputs": [
        {
          "internalType": "string",
          "name": "",
          "type": "string"
        }
      ],
      "stateMutability": "view",
      "type": "function"
    },
    {
      "inputs": [
        {
          "internalType": "uint64",
          "name": "initPendingStateNum",
          "type": "uint64"
        },
        {
          "internalType": "uint64",
          "name": "finalPendingStateNum",
          "type": "uint64"
        },
        {
          "internalType": "uint64",
          "name": "initNumBatch",
          "type": "uint64"
        },
        {
          "internalType": "uint64",
          "name": "finalNewBatch",
          "type": "uint64"
        },
        {
          "internalType": "bytes32",
          "name": "newLocalExitRoot",
          "type": "bytes32"
        },
        {
          "internalType": "bytes32",
          "name": "newStateRoot",
          "type": "bytes32"
        },
        {
          "internalType": "bytes32[24]",
          "name": "proof",
          "type": "bytes32[24]"
        }
      ],
      "name": "overridePendingState",
      "outputs": [],
      "stateMutability": "nonpayable",
      "type": "function"
    },
    {
      "inputs": [],
      "name": "owner",
      "outputs": [
        {
          "internalType": "address",
          "name": "",
          "type": "address"
        }
      ],
      "stateMutability": "view",
      "type": "function"
    },
    {
      "inputs": [],
      "name": "pendingAdmin",
      "outputs": [
        {
          "internalType": "address",
          "name": "",
          "type": "address"
        }
      ],
      "stateMutability": "view",
      "type": "function"
    },
    {
      "inputs": [],
      "name": "pendingStateTimeout",
      "outputs": [
        {
          "internalType": "uint64",
          "name": "",
          "type": "uint64"
        }
      ],
      "stateMutability": "view",
      "type": "function"
    },
    {
      "inputs": [
        {
          "internalType": "uint256",
          "name": "",
          "type": "uint256"
        }
      ],
      "name": "pendingStateTransitions",
      "outputs": [
        {
          "internalType": "uint64",
          "name": "timestamp",
          "type": "uint64"
        },
        {
          "internalType": "uint64",
          "name": "lastVerifiedBatch",
          "type": "uint64"
        },
        {
          "internalType": "bytes32",
          "name": "exitRoot",
          "type": "bytes32"
        },
        {
          "internalType": "bytes32",
          "name": "stateRoot",
          "type": "bytes32"
        }
      ],
      "stateMutability": "view",
      "type": "function"
    },
    {
      "inputs": [
        {
          "internalType": "uint64",
          "name": "initPendingStateNum",
          "type": "uint64"
        },
        {
          "internalType": "uint64",
          "name": "finalPendingStateNum",
          "type": "uint64"
        },
        {
          "internalType": "uint64",
          "name": "initNumBatch",
          "type": "uint64"
        },
        {
          "internalType": "uint64",
          "name": "finalNewBatch",
          "type": "uint64"
        },
        {
          "internalType": "bytes32",
          "name": "newLocalExitRoot",
          "type": "bytes32"
        },
        {
          "internalType": "bytes32",
          "name": "newStateRoot",
          "type": "bytes32"
        },
        {
          "internalType": "bytes32[24]",
          "name": "proof",
          "type": "bytes32[24]"
        }
      ],
      "name": "proveNonDeterministicPendingState",
      "outputs": [],
      "stateMutability": "nonpayable",
      "type": "function"
    },
    {
      "inputs": [],
      "name": "renounceOwnership",
      "outputs": [],
      "stateMutability": "nonpayable",
      "type": "function"
    },
    {
      "inputs": [],
      "name": "rollupVerifier",
      "outputs": [
        {
          "internalType": "contract IVerifierRollup",
          "name": "",
          "type": "address"
        }
      ],
      "stateMutability": "view",
      "type": "function"
    },
    {
      "inputs": [
        {
          "components": [
            {
              "internalType": "bytes",
              "name": "transactions",
              "type": "bytes"
            },
            {
              "internalType": "bytes32",
              "name": "globalExitRoot",
              "type": "bytes32"
            },
            {
              "internalType": "uint64",
              "name": "timestamp",
              "type": "uint64"
            },
            {
              "internalType": "uint64",
              "name": "minForcedTimestamp",
              "type": "uint64"
            }
          ],
          "internalType": "struct PolygonZkEVM.BatchData[]",
          "name": "batches",
          "type": "tuple[]"
        },
        {
          "internalType": "address",
          "name": "l2Coinbase",
          "type": "address"
        }
      ],
      "name": "sequenceBatches",
      "outputs": [],
      "stateMutability": "nonpayable",
      "type": "function"
    },
    {
      "inputs": [
        {
          "components": [
            {
              "internalType": "bytes",
              "name": "transactions",
              "type": "bytes"
            },
            {
              "internalType": "bytes32",
              "name": "globalExitRoot",
              "type": "bytes32"
            },
            {
              "internalType": "uint64",
              "name": "minForcedTimestamp",
              "type": "uint64"
            }
          ],
          "internalType": "struct PolygonZkEVM.ForcedBatchData[]",
          "name": "batches",
          "type": "tuple[]"
        }
      ],
      "name": "sequenceForceBatches",
      "outputs": [],
      "stateMutability": "nonpayable",
      "type": "function"
    },
    {
      "inputs": [
        {
          "internalType": "uint64",
          "name": "",
          "type": "uint64"
        }
      ],
      "name": "sequencedBatches",
      "outputs": [
        {
          "internalType": "bytes32",
          "name": "accInputHash",
          "type": "bytes32"
        },
        {
          "internalType": "uint64",
          "name": "sequencedTimestamp",
          "type": "uint64"
        },
        {
          "internalType": "uint64",
          "name": "previousLastBatchSequenced",
          "type": "uint64"
        }
      ],
      "stateMutability": "view",
      "type": "function"
    },
    {
      "inputs": [
        {
          "internalType": "uint64",
          "name": "newforceBatchTimeout",
          "type": "uint64"
        }
      ],
      "name": "setForceBatchTimeout",
      "outputs": [],
      "stateMutability": "nonpayable",
      "type": "function"
    },
    {
      "inputs": [
        {
          "internalType": "uint16",
          "name": "newMultiplierBatchFee",
          "type": "uint16"
        }
      ],
      "name": "setMultiplierBatchFee",
      "outputs": [],
      "stateMutability": "nonpayable",
      "type": "function"
    },
    {
      "inputs": [
        {
          "internalType": "string",
          "name": "_networkName",
          "type": "string"
        }
      ],
      "name": "setNetworkName",
      "outputs": [],
      "stateMutability": "nonpayable",
      "type": "function"
    },
    {
      "inputs": [
        {
          "internalType": "uint64",
          "name": "newPendingStateTimeout",
          "type": "uint64"
        }
      ],
      "name": "setPendingStateTimeout",
      "outputs": [],
      "stateMutability": "nonpayable",
      "type": "function"
    },
    {
      "inputs": [
        {
          "internalType": "uint64",
          "name": "_numBatch",
          "type": "uint64"
        }
      ],
      "name": "setSequencedBatch",
      "outputs": [],
      "stateMutability": "nonpayable",
      "type": "function"
    },
    {
      "inputs": [
        {
          "internalType": "uint64",
          "name": "batchNum",
          "type": "uint64"
        },
        {
          "internalType": "bytes32",
          "name": "accInputData",
          "type": "bytes32"
        },
        {
          "internalType": "uint64",
          "name": "timestamp",
          "type": "uint64"
        },
        {
          "internalType": "uint64",
          "name": "lastPendingStateConsolidated",
          "type": "uint64"
        }
      ],
      "name": "setSequencedBatches",
      "outputs": [],
      "stateMutability": "nonpayable",
      "type": "function"
    },
    {
      "inputs": [
        {
          "internalType": "bytes32",
          "name": "newStateRoot",
          "type": "bytes32"
        },
        {
          "internalType": "uint64",
          "name": "batchNum",
          "type": "uint64"
        }
      ],
      "name": "setStateRoot",
      "outputs": [],
      "stateMutability": "nonpayable",
      "type": "function"
    },
    {
      "inputs": [
        {
          "internalType": "address",
          "name": "newTrustedAggregator",
          "type": "address"
        }
      ],
      "name": "setTrustedAggregator",
      "outputs": [],
      "stateMutability": "nonpayable",
      "type": "function"
    },
    {
      "inputs": [
        {
          "internalType": "uint64",
          "name": "newTrustedAggregatorTimeout",
          "type": "uint64"
        }
      ],
      "name": "setTrustedAggregatorTimeout",
      "outputs": [],
      "stateMutability": "nonpayable",
      "type": "function"
    },
    {
      "inputs": [
        {
          "internalType": "address",
          "name": "newTrustedSequencer",
          "type": "address"
        }
      ],
      "name": "setTrustedSequencer",
      "outputs": [],
      "stateMutability": "nonpayable",
      "type": "function"
    },
    {
      "inputs": [
        {
          "internalType": "string",
          "name": "newTrustedSequencerURL",
          "type": "string"
        }
      ],
      "name": "setTrustedSequencerURL",
      "outputs": [],
      "stateMutability": "nonpayable",
      "type": "function"
    },
    {
      "inputs": [
        {
          "internalType": "uint64",
          "name": "_numBatch",
          "type": "uint64"
        }
      ],
      "name": "setVerifiedBatch",
      "outputs": [],
      "stateMutability": "nonpayable",
      "type": "function"
    },
    {
      "inputs": [
        {
          "internalType": "uint64",
          "name": "newVerifyBatchTimeTarget",
          "type": "uint64"
        }
      ],
      "name": "setVerifyBatchTimeTarget",
      "outputs": [],
      "stateMutability": "nonpayable",
      "type": "function"
    },
    {
      "inputs": [
        {
          "internalType": "address",
          "name": "newPendingAdmin",
          "type": "address"
        }
      ],
      "name": "transferAdminRole",
      "outputs": [],
      "stateMutability": "nonpayable",
      "type": "function"
    },
    {
      "inputs": [
        {
          "internalType": "address",
          "name": "newOwner",
          "type": "address"
        }
      ],
      "name": "transferOwnership",
      "outputs": [],
      "stateMutability": "nonpayable",
      "type": "function"
    },
    {
      "inputs": [],
      "name": "trustedAggregator",
      "outputs": [
        {
          "internalType": "address",
          "name": "",
          "type": "address"
        }
      ],
      "stateMutability": "view",
      "type": "function"
    },
    {
      "inputs": [],
      "name": "trustedAggregatorTimeout",
      "outputs": [
        {
          "internalType": "uint64",
          "name": "",
          "type": "uint64"
        }
      ],
      "stateMutability": "view",
      "type": "function"
    },
    {
      "inputs": [],
      "name": "trustedSequencer",
      "outputs": [
        {
          "internalType": "address",
          "name": "",
          "type": "address"
        }
      ],
      "stateMutability": "view",
      "type": "function"
    },
    {
      "inputs": [],
      "name": "trustedSequencerURL",
      "outputs": [
        {
          "internalType": "string",
          "name": "",
          "type": "string"
        }
      ],
      "stateMutability": "view",
      "type": "function"
    },
    {
      "inputs": [
        {
          "internalType": "uint64",
          "name": "pendingStateNum",
          "type": "uint64"
        },
        {
          "internalType": "uint64",
          "name": "initNumBatch",
          "type": "uint64"
        },
        {
          "internalType": "uint64",
          "name": "finalNewBatch",
          "type": "uint64"
        },
        {
          "internalType": "bytes32",
          "name": "newLocalExitRoot",
          "type": "bytes32"
        },
        {
          "internalType": "bytes32",
          "name": "newStateRoot",
          "type": "bytes32"
        },
        {
          "internalType": "uint256[2]",
          "name": "proofA",
          "type": "uint256[2]"
        },
        {
          "internalType": "uint256[2][2]",
          "name": "proofB",
          "type": "uint256[2][2]"
        },
        {
          "internalType": "uint256[2]",
          "name": "proofC",
          "type": "uint256[2]"
        }
      ],
      "name": "trustedVerifyBatchesMock",
      "outputs": [],
      "stateMutability": "nonpayable",
      "type": "function"
    },
    {
      "inputs": [
        {
          "internalType": "uint64",
          "name": "newLastVerifiedBatch",
          "type": "uint64"
        }
      ],
      "name": "updateBatchFee",
      "outputs": [],
      "stateMutability": "nonpayable",
      "type": "function"
    },
    {
      "inputs": [],
      "name": "verifyBatchTimeTarget",
      "outputs": [
        {
          "internalType": "uint64",
          "name": "",
          "type": "uint64"
        }
      ],
      "stateMutability": "view",
      "type": "function"
    },
    {
      "inputs": [
        {
          "internalType": "uint64",
          "name": "pendingStateNum",
          "type": "uint64"
        },
        {
          "internalType": "uint64",
          "name": "initNumBatch",
          "type": "uint64"
        },
        {
          "internalType": "uint64",
          "name": "finalNewBatch",
          "type": "uint64"
        },
        {
          "internalType": "bytes32",
          "name": "newLocalExitRoot",
          "type": "bytes32"
        },
        {
          "internalType": "bytes32",
          "name": "newStateRoot",
          "type": "bytes32"
        },
        {
          "internalType": "bytes32[24]",
          "name": "proof",
          "type": "bytes32[24]"
        }
      ],
      "name": "verifyBatches",
      "outputs": [],
      "stateMutability": "nonpayable",
      "type": "function"
    },
    {
      "inputs": [
        {
          "internalType": "uint64",
          "name": "pendingStateNum",
          "type": "uint64"
        },
        {
          "internalType": "uint64",
          "name": "initNumBatch",
          "type": "uint64"
        },
        {
          "internalType": "uint64",
          "name": "finalNewBatch",
          "type": "uint64"
        },
        {
          "internalType": "bytes32",
          "name": "newLocalExitRoot",
          "type": "bytes32"
        },
        {
          "internalType": "bytes32",
          "name": "newStateRoot",
          "type": "bytes32"
        },
        {
          "internalType": "bytes32[24]",
          "name": "proof",
          "type": "bytes32[24]"
        }
      ],
      "name": "verifyBatchesTrustedAggregator",
      "outputs": [],
      "stateMutability": "nonpayable",
      "type": "function"
    }
  ],
  "bytecode": "0x6101406040523480156200001257600080fd5b50604051620053ba380380620053ba8339810160408190526200003591620000a5565b6001600160a01b0395861660c05293851660805291841660a05290921660e0526001600160401b0391821661010052166101205262000131565b6001600160a01b03811681146200008557600080fd5b50565b80516001600160401b0381168114620000a057600080fd5b919050565b60008060008060008060c08789031215620000bf57600080fd5b8651620000cc816200006f565b6020880151909650620000df816200006f565b6040880151909550620000f2816200006f565b606088015190945062000105816200006f565b9250620001156080880162000088565b91506200012560a0880162000088565b90509295509295509295565b60805160a05160c05160e05161010051610120516151b462000206600039600081816105f50152818161105301526129cc015260008181610755015261102901526000818161071b01528181611b1501528181612e060152613de20152600081816108b301528181610dfe015281816111510152818161128d0152818161184f01528181611db201528181612fc901526139ee01526000818161094f015281816134f6015261384001526000818161081701528181611ae30152818161217901528181612f9d01526135bd01526151b46000f3fe608060405234801561001057600080fd5b506004361061033d5760003560e01c80638c3d7301116101bb5780638c3d73011461069f5780638da5cb5b146106a757806396dc3d39146106af57806399f5634e146106c25780639aa972a3146106ca5780639b796760146106dd5780639c9f3dfe146106f0578063a066215c14610703578063a3c573eb14610716578063ada8f9191461073d578063adc879e914610750578063afd23cbe14610777578063b4d63f581461079f578063b4f77ea9146107ff578063b6b0b09714610812578063ba58ae3914610839578063c0cad3021461084c578063c0ed84e01461085f578063c754c7ed14610867578063c89e42df14610881578063cfa8ed4714610894578063d02103ca146108ae578063d2e129f9146108d5578063d8d1091b146108e8578063d939b315146108fb578063dbc1697614610915578063e0d174411461091d578063e7a7ed0214610930578063e8bf92ed1461094a578063eaeb077b14610971578063ed6b010414610984578063f14916d614610998578063f2fde38b146109ab578063f851a440146109be578063f8b823e4146109d1578063fe16564f146109da57600080fd5b80630a0d9fbe146103425780630eaa86ea14610370578063107bf28c1461039157806310a01a72146103a657806315064c96146103bb5780631816b7e5146103d857806319d8ac61146103eb578063220d7899146103fe578063267822471461041157806329878983146104315780632b0006fa1461044b5780632c1f816a1461045e578063383b3be814610471578063394218e914610484578063423fa8561461049757806345605267146104b1578063458c0477146104cb5780634a1a89a7146104de5780634a910e6a146104f85780634e4877061461050b5780635392c5e01461051e578063542028d51461053e578063574f649e146105465780635e9145c9146105595780635ec919581461056c5780636046916914610574578063621dd4111461057c5780636b8616ce1461058f5780636ff512cc146105af578063715018a6146105c25780637215541a146105ca5780637fcb3653146105dd578063831c7ead146105f0578063837a473814610617578063841b24d714610685575b600080fd5b606f5461035a9061010090046001600160401b031681565b6040516103679190614227565b60405180910390f35b61038361037e366004614252565b6109ed565b604051908152602001610367565b610399610bbc565b60405161036791906142f7565b6103b96103b4366004614328565b610c4a565b005b606f546103c89060ff1681565b6040519015158152602001610367565b6103b96103e63660046143bb565b610e9d565b60735461035a906001600160401b031681565b61039961040c3660046143df565b610f56565b607b54610424906001600160a01b031681565b604051610367919061442c565b60745461042490600160401b90046001600160a01b031681565b6103b9610459366004614452565b6110b1565b6103b961046c3660046144ba565b6111ec565b6103c861047f366004614534565b611350565b6103b9610492366004614534565b611397565b60735461035a90600160401b90046001600160401b031681565b60735461035a90600160801b90046001600160401b031681565b60795461035a906001600160401b031681565b60795461035a90600160401b90046001600160401b031681565b6103b9610506366004614534565b61147f565b6103b9610519366004614534565b6114ee565b61038361052c366004614534565b60756020526000908152604090205481565b6103996115da565b610383610554366004614608565b6115e7565b6103b96105673660046146c4565b61162a565b6103b9611bc6565b610383611c53565b6103b961058a366004614452565b611c69565b61038361059d366004614534565b60716020526000908152604090205481565b6103b96105bd366004614717565b611f09565b6103b9611f88565b6103b96105d8366004614534565b611f9c565b60745461035a906001600160401b031681565b61035a7f000000000000000000000000000000000000000000000000000000000000000081565b61065a610625366004614732565b6078602052600090815260409020805460018201546002909201546001600160401b0380831693600160401b90930416919084565b604080516001600160401b039586168152949093166020850152918301526060820152608001610367565b60795461035a90600160c01b90046001600160401b031681565b6103b96120b7565b61042461213b565b6103b96106bd366004614534565b61214a565b610383612174565b6103b96106d83660046144ba565b612281565b6103b96106eb366004614534565b612318565b6103b96106fe366004614534565b61234c565b6103b9610711366004614534565b612438565b6104247f000000000000000000000000000000000000000000000000000000000000000081565b6103b961074b366004614717565b6124e0565b61035a7f000000000000000000000000000000000000000000000000000000000000000081565b606f5461078c90600160481b900461ffff1681565b60405161ffff9091168152602001610367565b6107da6107ad366004614534565b607260205260009081526040902080546001909101546001600160401b0380821691600160401b90041683565b604080519384526001600160401b039283166020850152911690820152606001610367565b6103b961080d366004614534565b612556565b6104247f000000000000000000000000000000000000000000000000000000000000000081565b6103c8610847366004614732565b612567565b6103b961085a36600461474b565b6125ee565b61035a612606565b607b5461035a90600160a01b90046001600160401b031681565b6103b961088f36600461474b565b612653565b606f5461042490600160581b90046001600160a01b031681565b6104247f000000000000000000000000000000000000000000000000000000000000000081565b6103b96108e33660046147c0565b6126ba565b6103b96108f6366004614872565b612a53565b60795461035a90600160801b90046001600160401b031681565b6103b9612dd9565b6103b961092b3660046148b3565b612e7f565b60735461035a90600160c01b90046001600160401b031681565b6104247f000000000000000000000000000000000000000000000000000000000000000081565b6103b961097f366004614900565b612ef1565b607b546103c890600160e01b900460ff1681565b6103b96109a6366004614717565b61319f565b6103b96109b9366004614717565b61321e565b607a54610424906001600160a01b031681565b61038360705481565b6103b96109e836600461494b565b613294565b60008060006109fa612606565b90506001600160401b03881615610a97576079546001600160401b039081169089161115610a435760405162461bcd60e51b8152600401610a3a90614977565b60405180910390fd5b6001600160401b038089166000908152607860205260409020600281015481549094509091898116600160401b9092041614610a915760405162461bcd60e51b8152600401610a3a906149f5565b50610b01565b6001600160401b038716600090815260756020526040902054915081610acf5760405162461bcd60e51b8152600401610a3a90614a55565b806001600160401b0316876001600160401b03161115610b015760405162461bcd60e51b8152600401610a3a90614aac565b806001600160401b0316866001600160401b031611610b325760405162461bcd60e51b8152600401610a3a90614b1d565b6000610b418888888689610f56565b9050600060008051602061511f833981519152600283604051610b649190614b9a565b602060405180830381855afa158015610b81573d6000803e3d6000fd5b5050506040513d601f19601f82011682018060405250810190610ba49190614bb6565b610bae9190614be5565b9a9950505050505050505050565b60778054610bc990614bf9565b80601f0160208091040260200160405190810160405280929190818152602001828054610bf590614bf9565b8015610c425780601f10610c1757610100808354040283529160200191610c42565b820191906000526020600020905b815481529060010190602001808311610c2557829003601f168201915b505050505081565b610c526132b6565b600080610c5d612606565b90506001600160401b038a1615610cf1576079546001600160401b03908116908b161115610c9d5760405162461bcd60e51b8152600401610a3a90614977565b6001600160401b03808b1660009081526078602052604090206002810154815490945090918b8116600160401b9092041614610ceb5760405162461bcd60e51b8152600401610a3a906149f5565b50610d5b565b6001600160401b038916600090815260756020526040902054915081610d295760405162461bcd60e51b8152600401610a3a90614a55565b806001600160401b0316896001600160401b03161115610d5b5760405162461bcd60e51b8152600401610a3a90614aac565b806001600160401b0316886001600160401b031611610d8c5760405162461bcd60e51b8152600401610a3a90614b1d565b6000610d9b8a8a8a868b610f56565b607480546001600160401b0319166001600160401b038c811691821790925560009081526075602052604090208990556079549192501615610de857607980546001600160801b03191690555b6040516333d6247d60e01b8152600481018990527f00000000000000000000000000000000000000000000000000000000000000006001600160a01b0316906333d6247d90602401600060405180830381600087803b158015610e4a57600080fd5b505af1158015610e5e573d6000803e3d6000fd5b50506040518981523392506001600160401b038c16915060008051602061513f8339815191529060200160405180910390a35050505050505050505050565b607a546001600160a01b03163314610ec857604051634755657960e01b815260040160405180910390fd5b6103e88161ffff161080610ee157506103ff8161ffff16115b15610eff57604051630984a67960e31b815260040160405180910390fd5b606f805461ffff60481b1916600160481b61ffff8416908102919091179091556040519081527f7019933d795eba185c180209e8ae8bffbaa25bcef293364687702c31f4d302c5906020015b60405180910390a150565b6001600160401b038086166000818152607260205260408082205493881682529020546060929115801590610f89575081155b15610fa75760405163340c614f60e11b815260040160405180910390fd5b80610fc5576040516366385b5160e01b815260040160405180910390fd5b610fce84612567565b610feb576040516305dae44f60e21b815260040160405180910390fd5b604080516001600160601b03193360601b166020820152603481019690965260548601929092526001600160c01b031960c098891b811660748701527f0000000000000000000000000000000000000000000000000000000000000000891b8116607c8701527f0000000000000000000000000000000000000000000000000000000000000000891b81166084870152608c86019490945260ac85015260cc840194909452509290931b90911660ec830152805180830360d401815260f4909201905290565b607454600160401b90046001600160a01b031633146110e35760405163bbcbbc0560e01b815260040160405180910390fd5b6110f1868686868686613315565b607480546001600160401b0319166001600160401b038681169182179092556000908152607560205260409020839055607954161561113b57607980546001600160801b03191690555b6040516333d6247d60e01b8152600481018490527f00000000000000000000000000000000000000000000000000000000000000006001600160a01b0316906333d6247d90602401600060405180830381600087803b15801561119d57600080fd5b505af11580156111b1573d6000803e3d6000fd5b50506040518481523392506001600160401b038716915060008051602061513f833981519152906020015b60405180910390a3505050505050565b607454600160401b90046001600160a01b0316331461121e5760405163bbcbbc0560e01b815260040160405180910390fd5b61122d878787878787876135f0565b607480546001600160401b0319166001600160401b038681169182179092556000908152607560205260409020839055607954161561127757607980546001600160801b03191690555b6040516333d6247d60e01b8152600481018490527f00000000000000000000000000000000000000000000000000000000000000006001600160a01b0316906333d6247d90602401600060405180830381600087803b1580156112d957600080fd5b505af11580156112ed573d6000803e3d6000fd5b5050607980546001600160c01b031661127560c71b179055505060405182815233906001600160401b038616907fcc1b5520188bf1dd3e63f98164b577c4d75c11a619ddea692112f0d1aec4cf729060200160405180910390a350505050505050565b6079546001600160401b038281166000908152607860205260408120549092429261138692600160801b90920481169116614c49565b6001600160401b0316111592915050565b607a546001600160a01b031633146113c257604051634755657960e01b815260040160405180910390fd5b62093a806001600160401b03821611156113ef57604051631d06e87960e01b815260040160405180910390fd5b606f5460ff1661142f576079546001600160401b03600160c01b90910481169082161061142f5760405163401636df60e01b815260040160405180910390fd5b607980546001600160c01b0316600160c01b6001600160401b038416021790556040517f1f4fa24c2e4bad19a7f3ec5c5485f70d46c798461c2e684f55bbd0fc661373a190610f4b908390614227565b607454600160401b90046001600160a01b031633146114e257606f5460ff16156114bc57604051630bc011ff60e21b815260040160405180910390fd5b6114c581611350565b6114e257604051630674f25160e11b815260040160405180910390fd5b6114eb81613910565b50565b607a546001600160a01b0316331461151957604051634755657960e01b815260040160405180910390fd5b62093a806001600160401b03821611156115465760405163f5e37f2f60e01b815260040160405180910390fd5b606f5460ff1661158657607b546001600160401b03600160a01b9091048116908216106115865760405163f5e37f2f60e01b815260040160405180910390fd5b607b8054600160a01b600160e01b031916600160a01b6001600160401b038416021790556040517fa7eb6cb8a613eb4e8bddc1ac3d61ec6cf10898760f0b187bcca794c6ca6fa40b90610f4b908390614227565b60768054610bc990614bf9565b6000858580519060200120858585604051602001611609959493929190614c70565b60405160208183030381529060405280519060200120905095945050505050565b606f5460ff161561164e57604051630bc011ff60e21b815260040160405180910390fd5b606f54600160581b90046001600160a01b03163314611680576040516311e7be1560e01b815260040160405180910390fd5b8160008190036116a35760405163cb591a5f60e01b815260040160405180910390fd5b6103e88111156116c657604051635acfba9d60e11b815260040160405180910390fd5b6073546001600160401b03600160401b82048116600081815260726020526040812054838516949293600160801b909304909216919082905b868110156119ad5760008a8a8381811061171b5761171b614caf565b905060200281019061172d9190614cc5565b61173690614cdb565b805180516020909101206060820151919250906001600160401b031615611825578561176181614d67565b9650506000818360200151846060015160405160200161178393929190614d95565b60408051601f1981840301815291815281516020928301206001600160401b038a166000908152607190935291205490915081146117d45760405163671ebaaf60e11b815260040160405180910390fd5b6001600160401b03808816600090815260716020526040808220919091556060850151908501519082169116101561181f57604051633fbd5c3960e11b815260040160405180910390fd5b5061190a565b6020820151158015906118c6575060208201516040516312bd9b1960e11b815260048101919091527f00000000000000000000000000000000000000000000000000000000000000006001600160a01b03169063257b3632906024016020604051808303816000875af11580156118a0573d6000803e3d6000fd5b505050506040513d601f19601f820116820180604052508101906118c49190614bb6565b155b156118e4576040516373bd668d60e01b815260040160405180910390fd5b8151516201d4c0101561190a576040516328a69b1f60e21b815260040160405180910390fd5b876001600160401b031682604001516001600160401b0316108061193a57504282604001516001600160401b0316115b15611958576040516375413c8b60e11b815260040160405180910390fd5b8481836020015184604001518d604051602001611979959493929190614c70565b60405160208183030381529060405280519060200120945081604001519750505080806119a590614db8565b9150506116ff565b506119b88685614c49565b6073549094506001600160401b03600160c01b909104811690841611156119f25760405163c630a00d60e01b815260040160405180910390fd5b60006119fe8285614dd1565b611a11906001600160401b031688614df1565b60408051606081018252858152426001600160401b03908116602080840191825260738054600160401b9081900485168688019081528d861660008181526072909552979093209551865592516001909501805492519585166001600160801b03199384161795851684029590951790945583548c8416911617930292909217905590915082811690851614611ac65760738054600160801b600160c01b031916600160801b6001600160401b038716021790555b611b0b333083607054611ad99190614e04565b6001600160a01b037f000000000000000000000000000000000000000000000000000000000000000016929190613aa8565b611b13613b19565b7f00000000000000000000000000000000000000000000000000000000000000006001600160a01b03166379e2cf976040518163ffffffff1660e01b8152600401600060405180830381600087803b158015611b6e57600080fd5b505af1158015611b82573d6000803e3d6000fd5b50506040516001600160401b03881692507f303446e6a8cb73c83dff421c0b1d5e5ce0719dab1bff13660fc254e58cc17fce9150600090a250505050505050505050565b607a546001600160a01b03163314611bf157604051634755657960e01b815260040160405180910390fd5b607b54600160e01b900460ff16611c1b5760405163f6ba91a160e01b815260040160405180910390fd5b607b805460ff60e01b191690556040517f854dd6ce5a1445c4c54388b21cffd11cf5bba1b9e763aec48ce3da75d617412f90600090a1565b60006070546064611c649190614e04565b905090565b606f5460ff1615611c8d57604051630bc011ff60e21b815260040160405180910390fd5b6079546001600160401b038581166000908152607260205260409020600101544292611cc492600160c01b90910481169116614c49565b6001600160401b03161115611cec57604051638a0704d360e01b815260040160405180910390fd5b6103e8611cf98686614dd1565b6001600160401b03161115611d2157604051635acfba9d60e11b815260040160405180910390fd5b611d2f868686868686613315565b611d3884613bb9565b607954600160801b90046001600160401b0316600003611e1b57607480546001600160401b0319166001600160401b0386811691821790925560009081526075602052604090208390556079541615611d9c57607980546001600160801b03191690555b6040516333d6247d60e01b8152600481018490527f00000000000000000000000000000000000000000000000000000000000000006001600160a01b0316906333d6247d90602401600060405180830381600087803b158015611dfe57600080fd5b505af1158015611e12573d6000803e3d6000fd5b50505050611ecc565b611e23613b19565b607980546001600160401b0316906000611e3c83614d67565b82546001600160401b039182166101009390930a928302928202191691909117909155604080516080810182524283168152878316602080830191825282840189815260608401898152607954871660009081526078909352949091209251835492518616600160401b026001600160801b03199093169516949094171781559151600183015551600290910155505b60405182815233906001600160401b038616907f9c72852172521097ba7e1482e6b44b351323df0155f97f4ea18fcec28e1f5966906020016111dc565b607a546001600160a01b03163314611f3457604051634755657960e01b815260040160405180910390fd5b606f8054600160581b600160f81b031916600160581b6001600160a01b038416021790556040517ff54144f9611984021529f814a1cb6a41e22c58351510a0d9f7e822618abb9cc090610f4b90839061442c565b611f906132b6565b611f9a6000613d8e565b565b611fa461213b565b6001600160a01b0316336001600160a01b0316146120af576000611fc6612606565b9050806001600160401b0316826001600160401b031611611ffa5760405163812a372d60e01b815260040160405180910390fd5b6073546001600160401b03600160401b9091048116908316118061203957506001600160401b0380831660009081526072602052604090206001015416155b1561205757604051632631700560e21b815260040160405180910390fd5b6001600160401b0380831660009081526072602052604090206001015442916120859162093a809116614c49565b6001600160401b031611156120ad5760405163692baaad60e11b815260040160405180910390fd5b505b6114eb613de0565b607b546001600160a01b031633146120e25760405163d1ec4b2360e01b815260040160405180910390fd5b607b54607a80546001600160a01b0319166001600160a01b0390921691821790556040517f056dc487bbf0795d0bbb1b4f0af523a855503cff740bfb4d5475f7a90c091e8e916121319161442c565b60405180910390a1565b6033546001600160a01b031690565b6121526132b6565b607480546001600160401b0319166001600160401b0392909216919091179055565b6000807f00000000000000000000000000000000000000000000000000000000000000006001600160a01b03166370a08231306040518263ffffffff1660e01b81526004016121c3919061442c565b602060405180830381865afa1580156121e0573d6000803e3d6000fd5b505050506040513d601f19601f820116820180604052508101906122049190614bb6565b90506000612210612606565b6073546001600160401b03600160401b820481169161224091600160801b8204811691600160c01b900416614dd1565b61224a9190614c49565b6122549190614dd1565b6001600160401b03169050806000036122705760009250505090565b61227a8183614e1b565b9250505090565b606f5460ff16156122a557604051630bc011ff60e21b815260040160405180910390fd5b6122b4878787878787876135f0565b6001600160401b0384166000908152607560209081526040918290205482519081529081018490527f1f44c21118c4603cfb4e1b621dbcfa2b73efcececee2b99b620b2953d33a7010910160405180910390a161230f613de0565b50505050505050565b6123206132b6565b607380546001600160401b03909216600160401b02600160401b600160801b0319909216919091179055565b607a546001600160a01b0316331461237757604051634755657960e01b815260040160405180910390fd5b62093a806001600160401b03821611156123a457604051630cc9650760e41b815260040160405180910390fd5b606f5460ff166123e4576079546001600160401b03600160801b9091048116908216106123e45760405163048a05a960e41b815260040160405180910390fd5b60798054600160801b600160c01b031916600160801b6001600160401b038416021790556040517fc4121f4e22c69632ebb7cf1f462be0511dc034f999b52013eddfb24aab765c7590610f4b908390614227565b607a546001600160a01b0316331461246357604051634755657960e01b815260040160405180910390fd5b62015180816001600160401b0316111561249057604051631c0cfbfd60e31b815260040160405180910390fd5b606f8054610100600160481b0319166101006001600160401b038416021790556040517f1b023231a1ab6b5d93992f168fb44498e1a7e64cef58daff6f1c216de6a68c2890610f4b908390614227565b607a546001600160a01b0316331461250b57604051634755657960e01b815260040160405180910390fd5b607b80546001600160a01b0319166001600160a01b0383161790556040517fa5b56b7906fd0a20e3f35120dd8343db1e12e037a6c90111c7e42885e82a1ce690610f4b90839061442c565b61255e6132b6565b6114eb81613bb9565b600067ffffffff000000016001600160401b03831610801561259d575067ffffffff00000001604083901c6001600160401b0316105b80156125bd575067ffffffff00000001608083901c6001600160401b0316105b80156125d4575067ffffffff0000000160c083901c105b156125e157506001919050565b506000919050565b919050565b6125f66132b6565b60776126028282614e7d565b5050565b6079546000906001600160401b03161561264357506079546001600160401b03908116600090815260786020526040902054600160401b90041690565b506074546001600160401b031690565b607a546001600160a01b0316331461267e57604051634755657960e01b815260040160405180910390fd5b607661268a8282614e7d565b507f6b8f723a4c7a5335cafae8a598a0aa0301be1387c037dccc085b62add6448b2081604051610f4b91906142f7565b600054610100900460ff16158080156126da5750600054600160ff909116105b806126fb57506126e930613e5b565b1580156126fb575060005460ff166001145b61275e5760405162461bcd60e51b815260206004820152602e60248201527f496e697469616c697a61626c653a20636f6e747261637420697320616c72656160448201526d191e481a5b9a5d1a585b1a5e995960921b6064820152608401610a3a565b6000805460ff191660011790558015612781576000805461ff0019166101001790555b61278e6020880188614717565b607a80546001600160a01b0319166001600160a01b03929092169190911790556127be6040880160208901614717565b606f80546001600160a01b0392909216600160581b02600160581b600160f81b03199092169190911790556127f96080880160608901614717565b607480546001600160a01b0392909216600160401b02600160401b600160e01b03199092169190911790556000805260756020527ff9e3fbf150b7a0077118526f473c53cb4734f166167e2c6213e3567dd390b4ad869055607661285d8682614e7d565b50607761286a8582614e7d565b5062093a8061287f6060890160408a01614534565b6001600160401b031611156128a757604051630cc9650760e41b815260040160405180910390fd5b6128b76060880160408901614534565b607980546001600160401b0392909216600160801b02600160801b600160c01b031990921691909117905562093a806128f660a0890160808a01614534565b6001600160401b0316111561291e57604051631d06e87960e01b815260040160405180910390fd5b61292e60a0880160808901614534565b607980546001600160c01b0316600160c01b6001600160401b03939093169290920291909117905567016345785d8a0000607055606f8054610100600160581b031916620708006101f560491b01179055607b8054600160a01b600160e81b031916670200000000000d2f60a71b1790556129a7613e6a565b7fed7be53c9f1a96a481223b15568a5b1a475e01a74b347d6ca187c8bf0c078cd660007f000000000000000000000000000000000000000000000000000000000000000085856040516129fd9493929190614f65565b60405180910390a1801561230f576000805461ff0019169055604051600181527f7f26b83ff96e1f2b6a682f133852f6798a09c465da95921460cefb38474024989060200160405180910390a150505050505050565b607b54600160e01b900460ff1615612a7e576040516324eff8c360e01b815260040160405180910390fd5b606f5460ff1615612aa257604051630bc011ff60e21b815260040160405180910390fd5b806000819003612ac55760405163cb591a5f60e01b815260040160405180910390fd5b6103e8811115612ae857604051635acfba9d60e11b815260040160405180910390fd5b6073546001600160401b03600160c01b8204811691612b10918491600160801b900416614f9c565b1115612b2f5760405163c630a00d60e01b815260040160405180910390fd5b6073546001600160401b03600160401b820481166000818152607260205260408120549193600160801b9004909216915b84811015612ce3576000878783818110612b7c57612b7c614caf565b9050602002810190612b8e9190614faf565b612b9790614fc5565b905083612ba381614d67565b82518051602091820120818501516040808701519051949950919450600093612bcf9386939101614d95565b60408051601f1981840301815291815281516020928301206001600160401b038916600090815260719093529120549091508114612c205760405163671ebaaf60e11b815260040160405180910390fd5b6001600160401b038616600090815260716020526040812055612c44600189614df1565b8403612c985742607b60149054906101000a90046001600160401b03168460400151612c709190614c49565b6001600160401b03161115612c985760405163c44a082160e01b815260040160405180910390fd5b848284602001514233604051602001612cb5959493929190614c70565b6040516020818303038152906040528051906020012094505050508080612cdb90614db8565b915050612b60565b50612cee8484614c49565b607380546001600160401b034281166001600160401b03199092168217808455604080516060810182528781526020808201958652600160401b9384900485168284019081528589166000818152607290935284832093518455965160019390930180549151871686026001600160801b031990921693871693909317179091558554938916600160801b02600160801b600160c01b031993860293909316600160401b600160c01b031990941693909317919091179093559151929550917f648a61dd2438f072f5a1960939abd30f37aea80d2e94c9792ad142d3e0a490a49190a2505050505050565b607a546001600160a01b03163314612e0457604051634755657960e01b815260040160405180910390fd5b7f00000000000000000000000000000000000000000000000000000000000000006001600160a01b031663dbc169766040518163ffffffff1660e01b8152600401600060405180830381600087803b158015612e5f57600080fd5b505af1158015612e73573d6000803e3d6000fd5b50505050611f9a613ede565b612e876132b6565b604080516060810182529384526001600160401b03928316602080860191825292841685830190815295841660009081526072909352912092518355516001909201805493518216600160401b026001600160801b03199094169290911691909117919091179055565b607b54600160e01b900460ff1615612f1c576040516324eff8c360e01b815260040160405180910390fd5b606f5460ff1615612f4057604051630bc011ff60e21b815260040160405180910390fd5b6000612f4a611c53565b905081811115612f6d57604051634732fdb560e01b815260040160405180910390fd5b611388831115612f90576040516328a69b1f60e21b815260040160405180910390fd5b612fc56001600160a01b037f000000000000000000000000000000000000000000000000000000000000000016333084613aa8565b60007f00000000000000000000000000000000000000000000000000000000000000006001600160a01b0316633ed691ef6040518163ffffffff1660e01b8152600401602060405180830381865afa158015613025573d6000803e3d6000fd5b505050506040513d601f19601f820116820180604052508101906130499190614bb6565b60738054919250600160c01b9091046001600160401b031690601861306d83614d67565b91906101000a8154816001600160401b0302191690836001600160401b031602179055505084846040516130a2929190615040565b6040519081900381206130bb9183904290602001614d95565b60408051808303601f190181529181528151602092830120607354600160c01b90046001600160401b03166000908152607190935291205532330361314d57607354604080518381523360208201526060918101829052600091810191909152600160c01b9091046001600160401b03169060008051602061515f8339815191529060800160405180910390a2613198565b607360189054906101000a90046001600160401b03166001600160401b031660008051602061515f8339815191528233888860405161318f9493929190615050565b60405180910390a25b5050505050565b607a546001600160a01b031633146131ca57604051634755657960e01b815260040160405180910390fd5b60748054600160401b600160e01b031916600160401b6001600160a01b038416021790556040517f61f8fec29495a3078e9271456f05fb0707fd4e41f7661865f80fc437d06681ca90610f4b90839061442c565b6132266132b6565b6001600160a01b03811661328b5760405162461bcd60e51b815260206004820152602660248201527f4f776e61626c653a206e6577206f776e657220697320746865207a65726f206160448201526564647265737360d01b6064820152608401610a3a565b6114eb81613d8e565b61329c6132b6565b6001600160401b0316600090815260756020526040902055565b336132bf61213b565b6001600160a01b031614611f9a5760405162461bcd60e51b815260206004820181905260248201527f4f776e61626c653a2063616c6c6572206973206e6f7420746865206f776e65726044820152606401610a3a565b600080613320612606565b90506001600160401b038816156133b6576079546001600160401b0390811690891611156133615760405163bb14c20560e01b815260040160405180910390fd5b6001600160401b038089166000908152607860205260409020600281015481549094509091898116600160401b90920416146133b057604051632bd2e3e760e01b815260040160405180910390fd5b50613422565b6001600160401b0387166000908152607560205260409020549150816133ef576040516324cbdcc360e11b815260040160405180910390fd5b806001600160401b0316876001600160401b0316111561342257604051630f2b74f160e11b815260040160405180910390fd5b806001600160401b0316866001600160401b0316116134545760405163b9b18f5760e01b815260040160405180910390fd5b60006134638888888689610f56565b9050600060008051602061511f8339815191526002836040516134869190614b9a565b602060405180830381855afa1580156134a3573d6000803e3d6000fd5b5050506040513d601f19601f820116820180604052508101906134c69190614bb6565b6134d09190614be5565b604080516020810182528281529051634890ed4560e11b81529192506001600160a01b037f00000000000000000000000000000000000000000000000000000000000000001691639121da8a9161352c9189919060040161507b565b602060405180830381865afa158015613549573d6000803e3d6000fd5b505050506040513d601f19601f8201168201806040525081019061356d91906150b6565b61358a576040516309bde33960e01b815260040160405180910390fd5b6135e433613598858b614dd1565b6001600160401b03166135a9612174565b6135b39190614e04565b6001600160a01b037f0000000000000000000000000000000000000000000000000000000000000000169190613f36565b50505050505050505050565b60006001600160401b03881615613684576079546001600160401b0390811690891611156136315760405163bb14c20560e01b815260040160405180910390fd5b506001600160401b038088166000908152607860205260409020600281015481549092888116600160401b909204161461367e57604051632bd2e3e760e01b815260040160405180910390fd5b506136ec565b506001600160401b038516600090815260756020526040902054806136bc576040516324cbdcc360e11b815260040160405180910390fd5b6074546001600160401b0390811690871611156136ec57604051630f2b74f160e11b815260040160405180910390fd5b6079546001600160401b03908116908816118061371b5750876001600160401b0316876001600160401b031611155b8061373c57506079546001600160401b03600160401b909104811690881611155b1561375a5760405163bfa7079f60e01b815260040160405180910390fd5b6001600160401b03878116600090815260786020526040902054600160401b900481169086161461379e576040516332a2a77f60e01b815260040160405180910390fd5b60006137ad8787878588610f56565b9050600060008051602061511f8339815191526002836040516137d09190614b9a565b602060405180830381855afa1580156137ed573d6000803e3d6000fd5b5050506040513d601f19601f820116820180604052508101906138109190614bb6565b61381a9190614be5565b604080516020810182528281529051634890ed4560e11b81529192506001600160a01b037f00000000000000000000000000000000000000000000000000000000000000001691639121da8a916138769188919060040161507b565b602060405180830381865afa158015613893573d6000803e3d6000fd5b505050506040513d601f19601f820116820180604052508101906138b791906150b6565b6138d4576040516309bde33960e01b815260040160405180910390fd5b6001600160401b0389166000908152607860205260409020600201548590036135e45760405163a47276bd60e01b815260040160405180910390fd5b6079546001600160401b03600160401b909104811690821611158061394357506079546001600160401b03908116908216115b156139615760405163d086b70b60e01b815260040160405180910390fd5b6001600160401b038181166000818152607860209081526040808320805460748054600160401b928390049098166001600160401b03199098168817905560028201548786526075909452938290209290925560798054600160401b600160801b0319169390940292909217909255600182015490516333d6247d60e01b815260048101919091529091907f00000000000000000000000000000000000000000000000000000000000000006001600160a01b0316906333d6247d90602401600060405180830381600087803b158015613a3a57600080fd5b505af1158015613a4e573d6000803e3d6000fd5b50505050826001600160401b0316816001600160401b03167f328d3c6c0fd6f1be0515e422f2d87e59f25922cbc2233568515a0c4bc3f8510e8460020154604051613a9b91815260200190565b60405180910390a3505050565b6040516001600160a01b0380851660248301528316604482015260648101829052613b139085906323b872dd60e01b906084015b60408051601f198184030181529190526020810180516001600160e01b03166001600160e01b031990931692909217909152613f6b565b50505050565b6079546001600160401b03600160401b8204811691161115611f9a57607954600090613b5690600160401b90046001600160401b03166001614c49565b9050613b6181611350565b156114eb57607954600090600290613b839084906001600160401b0316614dd1565b613b8d91906150d8565b613b979083614c49565b9050613ba281611350565b15613bb05761260281613910565b61260282613910565b6000613bc3612606565b905081600080613bd38484614dd1565b606f546001600160401b039182169250600091613bf69161010090041642614df1565b90505b846001600160401b0316846001600160401b031614613c77576001600160401b0380851660009081526072602052604090206001810154909116821015613c56576001810154600160401b90046001600160401b03169450613c71565b613c608686614dd1565b6001600160401b0316935050613c77565b50613bf9565b6000613c838484614df1565b905083811015613cda57808403600c8111613c9e5780613ca1565b600c5b9050806103e80a81606f60099054906101000a900461ffff1661ffff160a6070540281613cd057613cd0614bcf565b0460705550613d4a565b838103600c8111613ceb5780613cee565b600c5b90506000816103e80a82606f60099054906101000a900461ffff1661ffff160a670de0b6b3a76400000281613d2557613d25614bcf565b04905080607054670de0b6b3a76400000281613d4357613d43614bcf565b0460705550505b683635c9adc5dea000006070541115613d6f57683635c9adc5dea0000060705561230f565b633b9aca00607054101561230f57633b9aca0060705550505050505050565b603380546001600160a01b038381166001600160a01b0319831681179093556040519116919082907f8be0079c531659141344cd1fd0a4f28419497f9722a3daafe3b4186f6b6457e090600090a35050565b7f00000000000000000000000000000000000000000000000000000000000000006001600160a01b0316632072f6c56040518163ffffffff1660e01b8152600401600060405180830381600087803b158015613e3b57600080fd5b505af1158015613e4f573d6000803e3d6000fd5b50505050611f9a61403d565b6001600160a01b03163b151590565b600054610100900460ff16613ed55760405162461bcd60e51b815260206004820152602b60248201527f496e697469616c697a61626c653a20636f6e7472616374206973206e6f74206960448201526a6e697469616c697a696e6760a81b6064820152608401610a3a565b611f9a33613d8e565b606f5460ff16613f0157604051635386698160e01b815260040160405180910390fd5b606f805460ff191690556040517f1e5e34eea33501aecf2ebec9fe0e884a40804275ea7fe10b2ba084c8374308b390600090a1565b6040516001600160a01b038316602482015260448101829052613f6690849063a9059cbb60e01b90606401613adc565b505050565b6000613fc0826040518060400160405280602081526020017f5361666545524332303a206c6f772d6c6576656c2063616c6c206661696c6564815250856001600160a01b03166140999092919063ffffffff16565b805190915015613f665780806020019051810190613fde91906150b6565b613f665760405162461bcd60e51b815260206004820152602a60248201527f5361666545524332303a204552433230206f7065726174696f6e20646964206e6044820152691bdd081cdd58d8d9595960b21b6064820152608401610a3a565b606f5460ff161561406157604051630bc011ff60e21b815260040160405180910390fd5b606f805460ff191660011790556040517f2261efe5aef6fedc1fd1550b25facc9181745623049c7901287030b9ad1a549790600090a1565b60606140a884846000856140b0565b949350505050565b6060824710156141115760405162461bcd60e51b815260206004820152602660248201527f416464726573733a20696e73756666696369656e742062616c616e636520666f6044820152651c8818d85b1b60d21b6064820152608401610a3a565b600080866001600160a01b0316858760405161412d9190614b9a565b60006040518083038185875af1925050503d806000811461416a576040519150601f19603f3d011682016040523d82523d6000602084013e61416f565b606091505b50915091506141808783838761418b565b979650505050505050565b606083156141f85782516000036141f1576141a585613e5b565b6141f15760405162461bcd60e51b815260206004820152601d60248201527f416464726573733a2063616c6c20746f206e6f6e2d636f6e74726163740000006044820152606401610a3a565b50816140a8565b6140a8838381511561420d5781518083602001fd5b8060405162461bcd60e51b8152600401610a3a91906142f7565b6001600160401b0391909116815260200190565b80356001600160401b03811681146125e957600080fd5b600080600080600060a0868803121561426a57600080fd5b6142738661423b565b94506142816020870161423b565b935061428f6040870161423b565b94979396509394606081013594506080013592915050565b60005b838110156142c25781810151838201526020016142aa565b50506000910152565b600081518084526142e38160208601602086016142a7565b601f01601f19169290920160200192915050565b60208152600061430a60208301846142cb565b9392505050565b806040810183101561432257600080fd5b92915050565b6000806000806000806000806101a0898b03121561434557600080fd5b61434e8961423b565b975061435c60208a0161423b565b965061436a60408a0161423b565b955060608901359450608089013593506143878a60a08b01614311565b925061016089018a81111561439b57600080fd5b60e08a0192506143ab8b82614311565b9150509295985092959890939650565b6000602082840312156143cd57600080fd5b813561ffff8116811461430a57600080fd5b600080600080600060a086880312156143f757600080fd5b6144008661423b565b945061440e6020870161423b565b94979496505050506040830135926060810135926080909101359150565b6001600160a01b0391909116815260200190565b80610300810183101561432257600080fd5b6000806000806000806103a0878903121561446c57600080fd5b6144758761423b565b95506144836020880161423b565b94506144916040880161423b565b935060608701359250608087013591506144ae8860a08901614440565b90509295509295509295565b60008060008060008060006103c0888a0312156144d657600080fd5b6144df8861423b565b96506144ed6020890161423b565b95506144fb6040890161423b565b94506145096060890161423b565b93506080880135925060a088013591506145268960c08a01614440565b905092959891949750929550565b60006020828403121561454657600080fd5b61430a8261423b565b634e487b7160e01b600052604160045260246000fd5b600082601f83011261457657600080fd5b81356001600160401b03808211156145905761459061454f565b604051601f8301601f19908116603f011681019082821181831017156145b8576145b861454f565b816040528381528660208588010111156145d157600080fd5b836020870160208301376000602085830101528094505050505092915050565b80356001600160a01b03811681146125e957600080fd5b600080600080600060a0868803121561462057600080fd5b8535945060208601356001600160401b0381111561463d57600080fd5b61464988828901614565565b9450506040860135925061465f6060870161423b565b915061466d608087016145f1565b90509295509295909350565b60008083601f84011261468b57600080fd5b5081356001600160401b038111156146a257600080fd5b6020830191508360208260051b85010111156146bd57600080fd5b9250929050565b6000806000604084860312156146d957600080fd5b83356001600160401b038111156146ef57600080fd5b6146fb86828701614679565b909450925061470e9050602085016145f1565b90509250925092565b60006020828403121561472957600080fd5b61430a826145f1565b60006020828403121561474457600080fd5b5035919050565b60006020828403121561475d57600080fd5b81356001600160401b0381111561477357600080fd5b6140a884828501614565565b60008083601f84011261479157600080fd5b5081356001600160401b038111156147a857600080fd5b6020830191508360208285010111156146bd57600080fd5b6000806000806000808688036101208112156147db57600080fd5b60a08112156147e957600080fd5b5086955060a0860135945060c08601356001600160401b038082111561480e57600080fd5b61481a8a838b01614565565b955060e089013591508082111561483057600080fd5b61483c8a838b01614565565b945061010089013591508082111561485357600080fd5b5061486089828a0161477f565b979a9699509497509295939492505050565b6000806020838503121561488557600080fd5b82356001600160401b0381111561489b57600080fd5b6148a785828601614679565b90969095509350505050565b600080600080608085870312156148c957600080fd5b6148d28561423b565b9350602085013592506148e76040860161423b565b91506148f56060860161423b565b905092959194509250565b60008060006040848603121561491557600080fd5b83356001600160401b0381111561492b57600080fd5b6149378682870161477f565b909790965060209590950135949350505050565b6000806040838503121561495e57600080fd5b8235915061496e6020840161423b565b90509250929050565b60208082526058908201527f506f6c79676f6e5a6b45564d3a3a766572696679426174636865733a2070656e60408201527f64696e6753746174654e756d206d757374206265206c657373206f7220657175606082015277616c207468616e206c61737450656e64696e67537461746560401b608082015260a00190565b6020808252604c908201526000805160206150ff83398151915260408201527f744e756d4261746368206d757374206d61746368207468652070656e64696e6760608201526b040e6e8c2e8ca40c4c2e8c6d60a31b608082015260a00190565b60208082526043908201526000805160206150ff83398151915260408201527f744e756d426174636820737461746520726f6f7420646f6573206e6f742065786060820152621a5cdd60ea1b608082015260a00190565b6020808252605d908201526000805160206150ff83398151915260408201527f744e756d4261746368206d757374206265206c657373206f7220657175616c2060608201527f7468616e2063757272656e744c61737456657269666965644261746368000000608082015260a00190565b60208082526057908201527f506f6c79676f6e5a6b45564d3a3a766572696679426174636865733a2066696e60408201527f616c4e65774261746368206d75737420626520626967676572207468616e20636060820152760eae4e4cadce898c2e6e8accae4d2ccd2cac884c2e8c6d604b1b608082015260a00190565b60008251614bac8184602087016142a7565b9190910192915050565b600060208284031215614bc857600080fd5b5051919050565b634e487b7160e01b600052601260045260246000fd5b600082614bf457614bf4614bcf565b500690565b600181811c90821680614c0d57607f821691505b602082108103614c2d57634e487b7160e01b600052602260045260246000fd5b50919050565b634e487b7160e01b600052601160045260246000fd5b6001600160401b03818116838216019080821115614c6957614c69614c33565b5092915050565b9485526020850193909352604084019190915260c01b6001600160c01b0319166060808401919091521b6001600160601b0319166068820152607c0190565b634e487b7160e01b600052603260045260246000fd5b60008235607e19833603018112614bac57600080fd5b600060808236031215614ced57600080fd5b604051608081016001600160401b038082118383101715614d1057614d1061454f565b816040528435915080821115614d2557600080fd5b50614d3236828601614565565b82525060208301356020820152614d4b6040840161423b565b6040820152614d5c6060840161423b565b606082015292915050565b60006001600160401b038281166002600160401b03198101614d8b57614d8b614c33565b6001019392505050565b928352602083019190915260c01b6001600160c01b031916604082015260480190565b600060018201614dca57614dca614c33565b5060010190565b6001600160401b03828116828216039080821115614c6957614c69614c33565b8181038181111561432257614322614c33565b808202811582820484141761432257614322614c33565b600082614e2a57614e2a614bcf565b500490565b601f821115613f6657600081815260208120601f850160051c81016020861015614e565750805b601f850160051c820191505b81811015614e7557828155600101614e62565b505050505050565b81516001600160401b03811115614e9657614e9661454f565b614eaa81614ea48454614bf9565b84614e2f565b602080601f831160018114614edf5760008415614ec75750858301515b600019600386901b1c1916600185901b178555614e75565b600085815260208120601f198616915b82811015614f0e57888601518255948401946001909101908401614eef565b5085821015614f2c5787850151600019600388901b60f8161c191681555b5050505050600190811b01905550565b81835281816020850137506000828201602090810191909152601f909101601f19169091010190565b6001600160401b03858116825284166020820152606060408201819052600090614f929083018486614f3c565b9695505050505050565b8082018082111561432257614322614c33565b60008235605e19833603018112614bac57600080fd5b600060608236031215614fd757600080fd5b604051606081016001600160401b038082118383101715614ffa57614ffa61454f565b81604052843591508082111561500f57600080fd5b5061501c36828601614565565b825250602083013560208201526150356040840161423b565b604082015292915050565b8183823760009101908152919050565b8481526001600160a01b0384166020820152606060408201819052600090614f929083018486614f3c565b61032081016103008085843782018360005b60018110156150ac57815183526020928301929091019060010161508d565b5050509392505050565b6000602082840312156150c857600080fd5b8151801515811461430a57600080fd5b60006001600160401b03838116806150f2576150f2614bcf565b9216919091049291505056fe506f6c79676f6e5a6b45564d3a3a766572696679426174636865733a20696e6930644e72e131a029b85045b68181585d2833e84879b9709143e1f593f0000001cb339b570a7f0b25afa7333371ff11192092a0aeace12b671f4c212f2815c6fef94bb37db835f1ab585ee00041849a09b12cd081d77fa15ca070757619cbc931a2646970667358221220d209ad76bf8d76862efece6795ae783c6eb84d25d6fc3f86aec0769268c53a2564736f6c63430008140033",
  "linkReferences": {},
  "deployedLinkReferences": {}
}