{
  "_format": "hh-sol-artifact-1",
  "contractName": "PolygonRollupManager",
  "sourceName": "contracts/v2/PolygonRollupManager.sol",
  "abi": [
    {
      "inputs": [
        {
          "internalType": "contract IPolygonZkEVMGlobalExitRoot",
          "name": "_globalExitRootManager",
          "type": "address"
        },
        {
          "internalType": "contract IERC20Upgradeable",
          "name": "_pol",
          "type": "address"
        },
        {
          "internalType": "contract IPolygonZkEVMBridge",
          "name": "_bridgeAddress",
          "type": "address"
        }
      ],
      "stateMutability": "nonpayable",
      "type": "constructor"
    },
    {
      "inputs": [],
      "name": "AccessControlOnlyCanRenounceRolesForSelf",
      "type": "error"
    },
    {
      "inputs": [],
      "name": "AddressDoNotHaveRequiredRole",
      "type": "error"
    },
    {
      "inputs": [],
      "name": "AllzkEVMSequencedBatchesMustBeVerified",
      "type": "error"
    },
    {
      "inputs": [],
      "name": "BatchAlreadyVerified",
      "type": "error"
    },
    {
      "inputs": [],
      "name": "BatchFeeOutOfRange",
      "type": "error"
    },
    {
      "inputs": [],
      "name": "BatchNotSequencedOrNotSequenceEnd",
      "type": "error"
    },
    {
      "inputs": [],
      "name": "ChainIDAlreadyExist",
      "type": "error"
    },
    {
      "inputs": [],
      "name": "ConsensusAlreadyExist",
      "type": "error"
    },
    {
      "inputs": [],
      "name": "ConsensusDoesNotExist",
      "type": "error"
    },
    {
      "inputs": [],
      "name": "ExceedMaxVerifyBatches",
      "type": "error"
    },
    {
      "inputs": [],
      "name": "FinalNumBatchBelowLastVerifiedBatch",
      "type": "error"
    },
    {
      "inputs": [],
      "name": "FinalNumBatchDoesNotMatchPendingState",
      "type": "error"
    },
    {
      "inputs": [],
      "name": "FinalPendingStateNumInvalid",
      "type": "error"
    },
    {
      "inputs": [],
      "name": "ForceBatchNotAllowed",
      "type": "error"
    },
    {
      "inputs": [],
      "name": "ForceBatchesAlreadyActive",
      "type": "error"
    },
    {
      "inputs": [],
      "name": "HaltTimeoutNotExpired",
      "type": "error"
    },
    {
      "inputs": [],
      "name": "InitBatchMustMatchCurrentForkID",
      "type": "error"
    },
    {
      "inputs": [],
      "name": "InitNumBatchAboveLastVerifiedBatch",
      "type": "error"
    },
    {
      "inputs": [],
      "name": "InitNumBatchDoesNotMatchPendingState",
      "type": "error"
    },
    {
      "inputs": [],
      "name": "InvalidProof",
      "type": "error"
    },
    {
      "inputs": [],
      "name": "InvalidRangeBatchTimeTarget",
      "type": "error"
    },
    {
      "inputs": [],
      "name": "InvalidRangeForceBatchTimeout",
      "type": "error"
    },
    {
      "inputs": [],
      "name": "InvalidRangeMultiplierBatchFee",
      "type": "error"
    },
    {
      "inputs": [],
      "name": "MustSequenceSomeBatch",
      "type": "error"
    },
    {
      "inputs": [],
      "name": "NewAccInputHashDoesNotExist",
      "type": "error"
    },
    {
      "inputs": [],
      "name": "NewPendingStateTimeoutMustBeLower",
      "type": "error"
    },
    {
      "inputs": [],
      "name": "NewSequencedBatchMustBeBigger",
      "type": "error"
    },
    {
      "inputs": [],
      "name": "NewStateRootNotInsidePrime",
      "type": "error"
    },
    {
      "inputs": [],
      "name": "NewTrustedAggregatorTimeoutMustBeLower",
      "type": "error"
    },
    {
      "inputs": [],
      "name": "NotSupportedCurrently",
      "type": "error"
    },
    {
      "inputs": [],
      "name": "OldAccInputHashDoesNotExist",
      "type": "error"
    },
    {
      "inputs": [],
      "name": "OldStateRootDoesNotExist",
      "type": "error"
    },
    {
      "inputs": [],
      "name": "OnlyEmergencyState",
      "type": "error"
    },
    {
      "inputs": [],
      "name": "OnlyNotEmergencyState",
      "type": "error"
    },
    {
      "inputs": [],
      "name": "OnlyPendingGovernance",
      "type": "error"
    },
    {
      "inputs": [],
      "name": "OnlyTrustedAggregator",
      "type": "error"
    },
    {
      "inputs": [],
      "name": "PendingStateDoesNotExist",
      "type": "error"
    },
    {
      "inputs": [],
      "name": "PendingStateInvalid",
      "type": "error"
    },
    {
      "inputs": [],
      "name": "PendingStateNotConsolidable",
      "type": "error"
    },
    {
      "inputs": [],
      "name": "PendingStateTimeoutExceedHaltAggregationTimeout",
      "type": "error"
    },
    {
      "inputs": [],
      "name": "RollupMustExist",
      "type": "error"
    },
    {
      "inputs": [],
      "name": "RollupTypeDoesNotExist",
      "type": "error"
    },
    {
      "inputs": [],
      "name": "RollupTypeObsolete",
      "type": "error"
    },
    {
      "inputs": [],
      "name": "SenderMustBeRollup",
      "type": "error"
    },
    {
      "inputs": [],
      "name": "StoredRootMustBeDifferentThanNewRoot",
      "type": "error"
    },
    {
      "inputs": [],
      "name": "TrustedAggregatorTimeoutExceedHaltAggregationTimeout",
      "type": "error"
    },
    {
      "inputs": [],
      "name": "TrustedAggregatorTimeoutNotExpired",
      "type": "error"
    },
    {
      "inputs": [],
      "name": "UpdateNotCompatible",
      "type": "error"
    },
    {
      "inputs": [],
      "name": "UpdateToSameRollupTypeID",
      "type": "error"
    },
    {
      "inputs": [],
      "name": "VerifierAlreadyExist",
      "type": "error"
    },
    {
      "inputs": [],
      "name": "VerifierDoesNotExist",
      "type": "error"
    },
    {
      "inputs": [],
      "name": "VerifierMustBeDifferent",
      "type": "error"
    },
    {
      "inputs": [],
      "name": "VerifiersMustHaveSameGenesis",
      "type": "error"
    },
    {
      "anonymous": false,
      "inputs": [
        {
          "indexed": true,
          "internalType": "uint32",
          "name": "rollupID",
          "type": "uint32"
        },
        {
          "indexed": false,
          "internalType": "uint64",
          "name": "forkID",
          "type": "uint64"
        },
        {
          "indexed": false,
          "internalType": "address",
          "name": "rollupAddress",
          "type": "address"
        },
        {
          "indexed": false,
          "internalType": "uint64",
          "name": "chainID",
          "type": "uint64"
        },
        {
          "indexed": false,
          "internalType": "uint8",
          "name": "rollupCompatibilityID",
          "type": "uint8"
        }
      ],
      "name": "AddExistingRollup",
      "type": "event"
    },
    {
      "anonymous": false,
      "inputs": [
        {
          "indexed": true,
          "internalType": "uint32",
          "name": "rollupTypeID",
          "type": "uint32"
        },
        {
          "indexed": false,
          "internalType": "address",
          "name": "consensusImplementation",
          "type": "address"
        },
        {
          "indexed": false,
          "internalType": "address",
          "name": "verifier",
          "type": "address"
        },
        {
          "indexed": false,
          "internalType": "uint64",
          "name": "forkID",
          "type": "uint64"
        },
        {
          "indexed": false,
          "internalType": "uint8",
          "name": "rollupCompatibilityID",
          "type": "uint8"
        },
        {
          "indexed": false,
          "internalType": "bytes32",
          "name": "genesis",
          "type": "bytes32"
        },
        {
          "indexed": false,
          "internalType": "string",
          "name": "description",
          "type": "string"
        }
      ],
      "name": "AddNewRollupType",
      "type": "event"
    },
    {
      "anonymous": false,
      "inputs": [
        {
          "indexed": true,
          "internalType": "uint32",
          "name": "rollupID",
          "type": "uint32"
        },
        {
          "indexed": false,
          "internalType": "uint64",
          "name": "numBatch",
          "type": "uint64"
        },
        {
          "indexed": false,
          "internalType": "bytes32",
          "name": "stateRoot",
          "type": "bytes32"
        },
        {
          "indexed": false,
          "internalType": "bytes32",
          "name": "exitRoot",
          "type": "bytes32"
        },
        {
          "indexed": false,
          "internalType": "uint64",
          "name": "pendingStateNum",
          "type": "uint64"
        }
      ],
      "name": "ConsolidatePendingState",
      "type": "event"
    },
    {
      "anonymous": false,
      "inputs": [
        {
          "indexed": true,
          "internalType": "uint32",
          "name": "rollupID",
          "type": "uint32"
        },
        {
          "indexed": false,
          "internalType": "uint32",
          "name": "rollupTypeID",
          "type": "uint32"
        },
        {
          "indexed": false,
          "internalType": "address",
          "name": "rollupAddress",
          "type": "address"
        },
        {
          "indexed": false,
          "internalType": "uint64",
          "name": "chainID",
          "type": "uint64"
        },
        {
          "indexed": false,
          "internalType": "address",
          "name": "gasTokenAddress",
          "type": "address"
        },
        {
          "indexed": false,
          "internalType": "uint32",
          "name": "gasTokenNetwork",
          "type": "uint32"
        }
      ],
      "name": "CreateNewRollup",
      "type": "event"
    },
    {
      "anonymous": false,
      "inputs": [],
      "name": "EmergencyStateActivated",
      "type": "event"
    },
    {
      "anonymous": false,
      "inputs": [],
      "name": "EmergencyStateDeactivated",
      "type": "event"
    },
    {
      "anonymous": false,
      "inputs": [
        {
          "indexed": false,
          "internalType": "uint8",
          "name": "version",
          "type": "uint8"
        }
      ],
      "name": "Initialized",
      "type": "event"
    },
    {
      "anonymous": false,
      "inputs": [
        {
          "indexed": true,
          "internalType": "uint32",
          "name": "rollupTypeID",
          "type": "uint32"
        }
      ],
      "name": "ObsoleteRollupType",
      "type": "event"
    },
    {
      "anonymous": false,
      "inputs": [
        {
          "indexed": true,
          "internalType": "uint32",
          "name": "rollupID",
          "type": "uint32"
        },
        {
          "indexed": false,
          "internalType": "uint64",
          "name": "lastBatchSequenced",
          "type": "uint64"
        }
      ],
      "name": "OnSequenceBatches",
      "type": "event"
    },
    {
      "anonymous": false,
      "inputs": [
        {
          "indexed": true,
          "internalType": "uint32",
          "name": "rollupID",
          "type": "uint32"
        },
        {
          "indexed": false,
          "internalType": "uint64",
          "name": "numBatch",
          "type": "uint64"
        },
        {
          "indexed": false,
          "internalType": "bytes32",
          "name": "stateRoot",
          "type": "bytes32"
        },
        {
          "indexed": false,
          "internalType": "bytes32",
          "name": "exitRoot",
          "type": "bytes32"
        },
        {
          "indexed": false,
          "internalType": "address",
          "name": "aggregator",
          "type": "address"
        }
      ],
      "name": "OverridePendingState",
      "type": "event"
    },
    {
      "anonymous": false,
      "inputs": [
        {
          "indexed": false,
          "internalType": "bytes32",
          "name": "storedStateRoot",
          "type": "bytes32"
        },
        {
          "indexed": false,
          "internalType": "bytes32",
          "name": "provedStateRoot",
          "type": "bytes32"
        }
      ],
      "name": "ProveNonDeterministicPendingState",
      "type": "event"
    },
    {
      "anonymous": false,
      "inputs": [
        {
          "indexed": true,
          "internalType": "bytes32",
          "name": "role",
          "type": "bytes32"
        },
        {
          "indexed": true,
          "internalType": "bytes32",
          "name": "previousAdminRole",
          "type": "bytes32"
        },
        {
          "indexed": true,
          "internalType": "bytes32",
          "name": "newAdminRole",
          "type": "bytes32"
        }
      ],
      "name": "RoleAdminChanged",
      "type": "event"
    },
    {
      "anonymous": false,
      "inputs": [
        {
          "indexed": true,
          "internalType": "bytes32",
          "name": "role",
          "type": "bytes32"
        },
        {
          "indexed": true,
          "internalType": "address",
          "name": "account",
          "type": "address"
        },
        {
          "indexed": true,
          "internalType": "address",
          "name": "sender",
          "type": "address"
        }
      ],
      "name": "RoleGranted",
      "type": "event"
    },
    {
      "anonymous": false,
      "inputs": [
        {
          "indexed": true,
          "internalType": "bytes32",
          "name": "role",
          "type": "bytes32"
        },
        {
          "indexed": true,
          "internalType": "address",
          "name": "account",
          "type": "address"
        },
        {
          "indexed": true,
          "internalType": "address",
          "name": "sender",
          "type": "address"
        }
      ],
      "name": "RoleRevoked",
      "type": "event"
    },
    {
      "anonymous": false,
      "inputs": [
        {
          "indexed": false,
          "internalType": "uint256",
          "name": "newBatchFee",
          "type": "uint256"
        }
      ],
      "name": "SetBatchFee",
      "type": "event"
    },
    {
      "anonymous": false,
      "inputs": [
        {
          "indexed": false,
          "internalType": "uint16",
          "name": "newMultiplierBatchFee",
          "type": "uint16"
        }
      ],
      "name": "SetMultiplierBatchFee",
      "type": "event"
    },
    {
      "anonymous": false,
      "inputs": [
        {
          "indexed": false,
          "internalType": "uint64",
          "name": "newPendingStateTimeout",
          "type": "uint64"
        }
      ],
      "name": "SetPendingStateTimeout",
      "type": "event"
    },
    {
      "anonymous": false,
      "inputs": [
        {
          "indexed": false,
          "internalType": "address",
          "name": "newTrustedAggregator",
          "type": "address"
        }
      ],
      "name": "SetTrustedAggregator",
      "type": "event"
    },
    {
      "anonymous": false,
      "inputs": [
        {
          "indexed": false,
          "internalType": "uint64",
          "name": "newTrustedAggregatorTimeout",
          "type": "uint64"
        }
      ],
      "name": "SetTrustedAggregatorTimeout",
      "type": "event"
    },
    {
      "anonymous": false,
      "inputs": [
        {
          "indexed": false,
          "internalType": "uint64",
          "name": "newVerifyBatchTimeTarget",
          "type": "uint64"
        }
      ],
      "name": "SetVerifyBatchTimeTarget",
      "type": "event"
    },
    {
      "anonymous": false,
      "inputs": [
        {
          "indexed": true,
          "internalType": "uint32",
          "name": "rollupID",
          "type": "uint32"
        },
        {
          "indexed": false,
          "internalType": "uint32",
          "name": "newRollupTypeID",
          "type": "uint32"
        },
        {
          "indexed": false,
          "internalType": "uint64",
          "name": "lastVerifiedBatchBeforeUpgrade",
          "type": "uint64"
        }
      ],
      "name": "UpdateRollup",
      "type": "event"
    },
    {
      "anonymous": false,
      "inputs": [
        {
          "indexed": true,
          "internalType": "uint32",
          "name": "rollupID",
          "type": "uint32"
        },
        {
          "indexed": false,
          "internalType": "uint64",
          "name": "numBatch",
          "type": "uint64"
        },
        {
          "indexed": false,
          "internalType": "bytes32",
          "name": "stateRoot",
          "type": "bytes32"
        },
        {
          "indexed": false,
          "internalType": "bytes32",
          "name": "exitRoot",
          "type": "bytes32"
        },
        {
          "indexed": true,
          "internalType": "address",
          "name": "aggregator",
          "type": "address"
        }
      ],
      "name": "VerifyBatches",
      "type": "event"
    },
    {
      "anonymous": false,
      "inputs": [
        {
          "indexed": true,
          "internalType": "uint32",
          "name": "rollupID",
          "type": "uint32"
        },
        {
          "indexed": false,
          "internalType": "uint64",
          "name": "numBatch",
          "type": "uint64"
        },
        {
          "indexed": false,
          "internalType": "bytes32",
          "name": "stateRoot",
          "type": "bytes32"
        },
        {
          "indexed": false,
          "internalType": "bytes32",
          "name": "exitRoot",
          "type": "bytes32"
        },
        {
          "indexed": true,
          "internalType": "address",
          "name": "aggregator",
          "type": "address"
        }
      ],
      "name": "VerifyBatchesTrustedAggregator",
      "type": "event"
    },
    {
      "inputs": [],
      "name": "DEFAULT_ADMIN_ROLE",
      "outputs": [
        {
          "internalType": "bytes32",
          "name": "",
          "type": "bytes32"
        }
      ],
      "stateMutability": "view",
      "type": "function"
    },
    {
      "inputs": [],
      "name": "activateEmergencyState",
      "outputs": [],
      "stateMutability": "nonpayable",
      "type": "function"
    },
    {
      "inputs": [
        {
          "internalType": "contract IPolygonRollupBase",
          "name": "rollupAddress",
          "type": "address"
        },
        {
          "internalType": "contract IVerifierRollup",
          "name": "verifier",
          "type": "address"
        },
        {
          "internalType": "uint64",
          "name": "forkID",
          "type": "uint64"
        },
        {
          "internalType": "uint64",
          "name": "chainID",
          "type": "uint64"
        },
        {
          "internalType": "bytes32",
          "name": "genesis",
          "type": "bytes32"
        },
        {
          "internalType": "uint8",
          "name": "rollupCompatibilityID",
          "type": "uint8"
        }
      ],
      "name": "addExistingRollup",
      "outputs": [],
      "stateMutability": "nonpayable",
      "type": "function"
    },
    {
      "inputs": [
        {
          "internalType": "address",
          "name": "consensusImplementation",
          "type": "address"
        },
        {
          "internalType": "contract IVerifierRollup",
          "name": "verifier",
          "type": "address"
        },
        {
          "internalType": "uint64",
          "name": "forkID",
          "type": "uint64"
        },
        {
          "internalType": "uint8",
          "name": "rollupCompatibilityID",
          "type": "uint8"
        },
        {
          "internalType": "bytes32",
          "name": "genesis",
          "type": "bytes32"
        },
        {
          "internalType": "string",
          "name": "description",
          "type": "string"
        }
      ],
      "name": "addNewRollupType",
      "outputs": [],
      "stateMutability": "nonpayable",
      "type": "function"
    },
    {
      "inputs": [],
      "name": "bridgeAddress",
      "outputs": [
        {
          "internalType": "contract IPolygonZkEVMBridge",
          "name": "",
          "type": "address"
        }
      ],
      "stateMutability": "view",
      "type": "function"
    },
    {
      "inputs": [],
      "name": "calculateRewardPerBatch",
      "outputs": [
        {
          "internalType": "uint256",
          "name": "",
          "type": "uint256"
        }
      ],
      "stateMutability": "view",
      "type": "function"
    },
    {
      "inputs": [
        {
          "internalType": "uint64",
          "name": "chainID",
          "type": "uint64"
        }
      ],
      "name": "chainIDToRollupID",
      "outputs": [
        {
          "internalType": "uint32",
          "name": "rollupID",
          "type": "uint32"
        }
      ],
      "stateMutability": "view",
      "type": "function"
    },
    {
      "inputs": [
        {
          "internalType": "uint32",
          "name": "rollupID",
          "type": "uint32"
        },
        {
          "internalType": "uint64",
          "name": "pendingStateNum",
          "type": "uint64"
        }
      ],
      "name": "consolidatePendingState",
      "outputs": [],
      "stateMutability": "nonpayable",
      "type": "function"
    },
    {
      "inputs": [
        {
          "internalType": "uint32",
          "name": "rollupTypeID",
          "type": "uint32"
        },
        {
          "internalType": "uint64",
          "name": "chainID",
          "type": "uint64"
        },
        {
          "internalType": "address",
          "name": "admin",
          "type": "address"
        },
        {
          "internalType": "address",
          "name": "sequencer",
          "type": "address"
        },
        {
          "internalType": "address",
          "name": "gasTokenAddress",
          "type": "address"
        },
        {
          "internalType": "uint32",
          "name": "gasTokenNetwork",
          "type": "uint32"
        },
        {
          "internalType": "string",
          "name": "sequencerURL",
          "type": "string"
        },
        {
          "internalType": "string",
          "name": "networkName",
          "type": "string"
        }
      ],
      "name": "createNewRollup",
      "outputs": [],
      "stateMutability": "nonpayable",
      "type": "function"
    },
    {
      "inputs": [],
      "name": "deactivateEmergencyState",
      "outputs": [],
      "stateMutability": "nonpayable",
      "type": "function"
    },
    {
      "inputs": [],
      "name": "getBatchFee",
      "outputs": [
        {
          "internalType": "uint256",
          "name": "",
          "type": "uint256"
        }
      ],
      "stateMutability": "view",
      "type": "function"
    },
    {
      "inputs": [],
      "name": "getForcedBatchFee",
      "outputs": [
        {
          "internalType": "uint256",
          "name": "",
          "type": "uint256"
        }
      ],
      "stateMutability": "view",
      "type": "function"
    },
    {
      "inputs": [
        {
          "internalType": "uint32",
          "name": "rollupID",
          "type": "uint32"
        },
        {
          "internalType": "uint64",
          "name": "initNumBatch",
          "type": "uint64"
        },
        {
          "internalType": "uint64",
          "name": "finalNewBatch",
          "type": "uint64"
        },
        {
          "internalType": "bytes32",
          "name": "newLocalExitRoot",
          "type": "bytes32"
        },
        {
          "internalType": "bytes32",
          "name": "oldStateRoot",
          "type": "bytes32"
        },
        {
          "internalType": "bytes32",
          "name": "newStateRoot",
          "type": "bytes32"
        }
      ],
      "name": "getInputSnarkBytes",
      "outputs": [
        {
          "internalType": "bytes",
          "name": "",
          "type": "bytes"
        }
      ],
      "stateMutability": "view",
      "type": "function"
    },
    {
      "inputs": [
        {
          "internalType": "uint32",
          "name": "rollupID",
          "type": "uint32"
        }
      ],
      "name": "getLastVerifiedBatch",
      "outputs": [
        {
          "internalType": "uint64",
          "name": "",
          "type": "uint64"
        }
      ],
      "stateMutability": "view",
      "type": "function"
    },
    {
      "inputs": [
        {
          "internalType": "bytes32",
          "name": "role",
          "type": "bytes32"
        }
      ],
      "name": "getRoleAdmin",
      "outputs": [
        {
          "internalType": "bytes32",
          "name": "",
          "type": "bytes32"
        }
      ],
      "stateMutability": "view",
      "type": "function"
    },
    {
      "inputs": [
        {
          "internalType": "uint32",
          "name": "rollupID",
          "type": "uint32"
        },
        {
          "internalType": "uint64",
          "name": "batchNum",
          "type": "uint64"
        }
      ],
      "name": "getRollupBatchNumToStateRoot",
      "outputs": [
        {
          "internalType": "bytes32",
          "name": "",
          "type": "bytes32"
        }
      ],
      "stateMutability": "view",
      "type": "function"
    },
    {
      "inputs": [],
      "name": "getRollupExitRoot",
      "outputs": [
        {
          "internalType": "bytes32",
          "name": "",
          "type": "bytes32"
        }
      ],
      "stateMutability": "view",
      "type": "function"
    },
    {
      "inputs": [
        {
          "internalType": "uint32",
          "name": "rollupID",
          "type": "uint32"
        },
        {
          "internalType": "uint64",
          "name": "batchNum",
          "type": "uint64"
        }
      ],
      "name": "getRollupPendingStateTransitions",
      "outputs": [
        {
          "components": [
            {
              "internalType": "uint64",
              "name": "timestamp",
              "type": "uint64"
            },
            {
              "internalType": "uint64",
              "name": "lastVerifiedBatch",
              "type": "uint64"
            },
            {
              "internalType": "bytes32",
              "name": "exitRoot",
              "type": "bytes32"
            },
            {
              "internalType": "bytes32",
              "name": "stateRoot",
              "type": "bytes32"
            }
          ],
          "internalType": "struct LegacyZKEVMStateVariables.PendingState",
          "name": "",
          "type": "tuple"
        }
      ],
      "stateMutability": "view",
      "type": "function"
    },
    {
      "inputs": [
        {
          "internalType": "uint32",
          "name": "rollupID",
          "type": "uint32"
        },
        {
          "internalType": "uint64",
          "name": "batchNum",
          "type": "uint64"
        }
      ],
      "name": "getRollupSequencedBatches",
      "outputs": [
        {
          "components": [
            {
              "internalType": "bytes32",
              "name": "accInputHash",
              "type": "bytes32"
            },
            {
              "internalType": "uint64",
              "name": "sequencedTimestamp",
              "type": "uint64"
            },
            {
              "internalType": "uint64",
              "name": "previousLastBatchSequenced",
              "type": "uint64"
            }
          ],
          "internalType": "struct LegacyZKEVMStateVariables.SequencedBatchData",
          "name": "",
          "type": "tuple"
        }
      ],
      "stateMutability": "view",
      "type": "function"
    },
    {
      "inputs": [],
      "name": "globalExitRootManager",
      "outputs": [
        {
          "internalType": "contract IPolygonZkEVMGlobalExitRoot",
          "name": "",
          "type": "address"
        }
      ],
      "stateMutability": "view",
      "type": "function"
    },
    {
      "inputs": [
        {
          "internalType": "bytes32",
          "name": "role",
          "type": "bytes32"
        },
        {
          "internalType": "address",
          "name": "account",
          "type": "address"
        }
      ],
      "name": "grantRole",
      "outputs": [],
      "stateMutability": "nonpayable",
      "type": "function"
    },
    {
      "inputs": [
        {
          "internalType": "bytes32",
          "name": "role",
          "type": "bytes32"
        },
        {
          "internalType": "address",
          "name": "account",
          "type": "address"
        }
      ],
      "name": "hasRole",
      "outputs": [
        {
          "internalType": "bool",
          "name": "",
          "type": "bool"
        }
      ],
      "stateMutability": "view",
      "type": "function"
    },
    {
      "inputs": [
        {
          "internalType": "address",
          "name": "trustedAggregator",
          "type": "address"
        },
        {
          "internalType": "uint64",
          "name": "_pendingStateTimeout",
          "type": "uint64"
        },
        {
          "internalType": "uint64",
          "name": "_trustedAggregatorTimeout",
          "type": "uint64"
        },
        {
          "internalType": "address",
          "name": "admin",
          "type": "address"
        },
        {
          "internalType": "address",
          "name": "timelock",
          "type": "address"
        },
        {
          "internalType": "address",
          "name": "emergencyCouncil",
          "type": "address"
        },
        {
          "internalType": "contract PolygonZkEVMV2Existent",
          "name": "polygonZkEVM",
          "type": "address"
        },
        {
          "internalType": "contract IVerifierRollup",
          "name": "zkEVMVerifier",
          "type": "address"
        }
      ],
      "name": "initialize",
      "outputs": [],
      "stateMutability": "nonpayable",
      "type": "function"
    },
    {
      "inputs": [],
      "name": "isEmergencyState",
      "outputs": [
        {
          "internalType": "bool",
          "name": "",
          "type": "bool"
        }
      ],
      "stateMutability": "view",
      "type": "function"
    },
    {
      "inputs": [
        {
          "internalType": "uint32",
          "name": "rollupID",
          "type": "uint32"
        },
        {
          "internalType": "uint64",
          "name": "pendingStateNum",
          "type": "uint64"
        }
      ],
      "name": "isPendingStateConsolidable",
      "outputs": [
        {
          "internalType": "bool",
          "name": "",
          "type": "bool"
        }
      ],
      "stateMutability": "view",
      "type": "function"
    },
    {
      "inputs": [],
      "name": "lastAggregationTimestamp",
      "outputs": [
        {
          "internalType": "uint64",
          "name": "",
          "type": "uint64"
        }
      ],
      "stateMutability": "view",
      "type": "function"
    },
    {
      "inputs": [],
      "name": "multiplierBatchFee",
      "outputs": [
        {
          "internalType": "uint16",
          "name": "",
          "type": "uint16"
        }
      ],
      "stateMutability": "view",
      "type": "function"
    },
    {
      "inputs": [
        {
          "internalType": "uint32",
          "name": "rollupTypeID",
          "type": "uint32"
        }
      ],
      "name": "obsoleteRollupType",
      "outputs": [],
      "stateMutability": "nonpayable",
      "type": "function"
    },
    {
      "inputs": [
        {
          "internalType": "uint64",
          "name": "newSequencedBatches",
          "type": "uint64"
        },
        {
          "internalType": "bytes32",
          "name": "newAccInputHash",
          "type": "bytes32"
        }
      ],
      "name": "onSequenceBatches",
      "outputs": [
        {
          "internalType": "uint64",
          "name": "",
          "type": "uint64"
        }
      ],
      "stateMutability": "nonpayable",
      "type": "function"
    },
    {
      "inputs": [
        {
          "internalType": "uint32",
          "name": "rollupID",
          "type": "uint32"
        },
        {
          "internalType": "uint64",
          "name": "initPendingStateNum",
          "type": "uint64"
        },
        {
          "internalType": "uint64",
          "name": "finalPendingStateNum",
          "type": "uint64"
        },
        {
          "internalType": "uint64",
          "name": "initNumBatch",
          "type": "uint64"
        },
        {
          "internalType": "uint64",
          "name": "finalNewBatch",
          "type": "uint64"
        },
        {
          "internalType": "bytes32",
          "name": "newLocalExitRoot",
          "type": "bytes32"
        },
        {
          "internalType": "bytes32",
          "name": "newStateRoot",
          "type": "bytes32"
        },
        {
          "internalType": "bytes32[24]",
          "name": "proof",
          "type": "bytes32[24]"
        }
      ],
      "name": "overridePendingState",
      "outputs": [],
      "stateMutability": "nonpayable",
      "type": "function"
    },
    {
      "inputs": [],
      "name": "pendingStateTimeout",
      "outputs": [
        {
          "internalType": "uint64",
          "name": "",
          "type": "uint64"
        }
      ],
      "stateMutability": "view",
      "type": "function"
    },
    {
      "inputs": [],
      "name": "pol",
      "outputs": [
        {
          "internalType": "contract IERC20Upgradeable",
          "name": "",
          "type": "address"
        }
      ],
      "stateMutability": "view",
      "type": "function"
    },
    {
      "inputs": [
        {
          "internalType": "uint32",
          "name": "rollupID",
          "type": "uint32"
        },
        {
          "internalType": "uint64",
          "name": "initPendingStateNum",
          "type": "uint64"
        },
        {
          "internalType": "uint64",
          "name": "finalPendingStateNum",
          "type": "uint64"
        },
        {
          "internalType": "uint64",
          "name": "initNumBatch",
          "type": "uint64"
        },
        {
          "internalType": "uint64",
          "name": "finalNewBatch",
          "type": "uint64"
        },
        {
          "internalType": "bytes32",
          "name": "newLocalExitRoot",
          "type": "bytes32"
        },
        {
          "internalType": "bytes32",
          "name": "newStateRoot",
          "type": "bytes32"
        },
        {
          "internalType": "bytes32[24]",
          "name": "proof",
          "type": "bytes32[24]"
        }
      ],
      "name": "proveNonDeterministicPendingState",
      "outputs": [],
      "stateMutability": "nonpayable",
      "type": "function"
    },
    {
      "inputs": [
        {
          "internalType": "bytes32",
          "name": "role",
          "type": "bytes32"
        },
        {
          "internalType": "address",
          "name": "account",
          "type": "address"
        }
      ],
      "name": "renounceRole",
      "outputs": [],
      "stateMutability": "nonpayable",
      "type": "function"
    },
    {
      "inputs": [
        {
          "internalType": "bytes32",
          "name": "role",
          "type": "bytes32"
        },
        {
          "internalType": "address",
          "name": "account",
          "type": "address"
        }
      ],
      "name": "revokeRole",
      "outputs": [],
      "stateMutability": "nonpayable",
      "type": "function"
    },
    {
      "inputs": [
        {
          "internalType": "address",
          "name": "rollupAddress",
          "type": "address"
        }
      ],
      "name": "rollupAddressToID",
      "outputs": [
        {
          "internalType": "uint32",
          "name": "rollupID",
          "type": "uint32"
        }
      ],
      "stateMutability": "view",
      "type": "function"
    },
    {
      "inputs": [],
      "name": "rollupCount",
      "outputs": [
        {
          "internalType": "uint32",
          "name": "",
          "type": "uint32"
        }
      ],
      "stateMutability": "view",
      "type": "function"
    },
    {
      "inputs": [
        {
          "internalType": "uint32",
          "name": "rollupID",
          "type": "uint32"
        }
      ],
      "name": "rollupIDToRollupData",
      "outputs": [
        {
          "internalType": "contract IPolygonRollupBase",
          "name": "rollupContract",
          "type": "address"
        },
        {
          "internalType": "uint64",
          "name": "chainID",
          "type": "uint64"
        },
        {
          "internalType": "contract IVerifierRollup",
          "name": "verifier",
          "type": "address"
        },
        {
          "internalType": "uint64",
          "name": "forkID",
          "type": "uint64"
        },
        {
          "internalType": "bytes32",
          "name": "lastLocalExitRoot",
          "type": "bytes32"
        },
        {
          "internalType": "uint64",
          "name": "lastBatchSequenced",
          "type": "uint64"
        },
        {
          "internalType": "uint64",
          "name": "lastVerifiedBatch",
          "type": "uint64"
        },
        {
          "internalType": "uint64",
          "name": "lastPendingState",
          "type": "uint64"
        },
        {
          "internalType": "uint64",
          "name": "lastPendingStateConsolidated",
          "type": "uint64"
        },
        {
          "internalType": "uint64",
          "name": "lastVerifiedBatchBeforeUpgrade",
          "type": "uint64"
        },
        {
          "internalType": "uint64",
          "name": "rollupTypeID",
          "type": "uint64"
        },
        {
          "internalType": "uint8",
          "name": "rollupCompatibilityID",
          "type": "uint8"
        }
      ],
      "stateMutability": "view",
      "type": "function"
    },
    {
      "inputs": [],
      "name": "rollupTypeCount",
      "outputs": [
        {
          "internalType": "uint32",
          "name": "",
          "type": "uint32"
        }
      ],
      "stateMutability": "view",
      "type": "function"
    },
    {
      "inputs": [
        {
          "internalType": "uint32",
          "name": "rollupTypeID",
          "type": "uint32"
        }
      ],
      "name": "rollupTypeMap",
      "outputs": [
        {
          "internalType": "address",
          "name": "consensusImplementation",
          "type": "address"
        },
        {
          "internalType": "contract IVerifierRollup",
          "name": "verifier",
          "type": "address"
        },
        {
          "internalType": "uint64",
          "name": "forkID",
          "type": "uint64"
        },
        {
          "internalType": "uint8",
          "name": "rollupCompatibilityID",
          "type": "uint8"
        },
        {
          "internalType": "bool",
          "name": "obsolete",
          "type": "bool"
        },
        {
          "internalType": "bytes32",
          "name": "genesis",
          "type": "bytes32"
        }
      ],
      "stateMutability": "view",
      "type": "function"
    },
    {
      "inputs": [
        {
          "internalType": "uint256",
          "name": "newBatchFee",
          "type": "uint256"
        }
      ],
      "name": "setBatchFee",
      "outputs": [],
      "stateMutability": "nonpayable",
      "type": "function"
    },
    {
      "inputs": [
        {
          "internalType": "uint16",
          "name": "newMultiplierBatchFee",
          "type": "uint16"
        }
      ],
      "name": "setMultiplierBatchFee",
      "outputs": [],
      "stateMutability": "nonpayable",
      "type": "function"
    },
    {
      "inputs": [
        {
          "internalType": "uint64",
          "name": "newPendingStateTimeout",
          "type": "uint64"
        }
      ],
      "name": "setPendingStateTimeout",
      "outputs": [],
      "stateMutability": "nonpayable",
      "type": "function"
    },
    {
      "inputs": [
        {
          "internalType": "uint64",
          "name": "newTrustedAggregatorTimeout",
          "type": "uint64"
        }
      ],
      "name": "setTrustedAggregatorTimeout",
      "outputs": [],
      "stateMutability": "nonpayable",
      "type": "function"
    },
    {
      "inputs": [
        {
          "internalType": "uint64",
          "name": "newVerifyBatchTimeTarget",
          "type": "uint64"
        }
      ],
      "name": "setVerifyBatchTimeTarget",
      "outputs": [],
      "stateMutability": "nonpayable",
      "type": "function"
    },
    {
      "inputs": [],
      "name": "totalSequencedBatches",
      "outputs": [
        {
          "internalType": "uint64",
          "name": "",
          "type": "uint64"
        }
      ],
      "stateMutability": "view",
      "type": "function"
    },
    {
      "inputs": [],
      "name": "totalVerifiedBatches",
      "outputs": [
        {
          "internalType": "uint64",
          "name": "",
          "type": "uint64"
        }
      ],
      "stateMutability": "view",
      "type": "function"
    },
    {
      "inputs": [],
      "name": "trustedAggregatorTimeout",
      "outputs": [
        {
          "internalType": "uint64",
          "name": "",
          "type": "uint64"
        }
      ],
      "stateMutability": "view",
      "type": "function"
    },
    {
      "inputs": [
        {
          "internalType": "contract ITransparentUpgradeableProxy",
          "name": "rollupContract",
          "type": "address"
        },
        {
          "internalType": "uint32",
          "name": "newRollupTypeID",
          "type": "uint32"
        },
        {
          "internalType": "bytes",
          "name": "upgradeData",
          "type": "bytes"
        }
      ],
      "name": "updateRollup",
      "outputs": [],
      "stateMutability": "nonpayable",
      "type": "function"
    },
    {
      "inputs": [],
      "name": "verifyBatchTimeTarget",
      "outputs": [
        {
          "internalType": "uint64",
          "name": "",
          "type": "uint64"
        }
      ],
      "stateMutability": "view",
      "type": "function"
    },
    {
      "inputs": [
        {
          "internalType": "uint32",
          "name": "rollupID",
          "type": "uint32"
        },
        {
          "internalType": "uint64",
          "name": "pendingStateNum",
          "type": "uint64"
        },
        {
          "internalType": "uint64",
          "name": "initNumBatch",
          "type": "uint64"
        },
        {
          "internalType": "uint64",
          "name": "finalNewBatch",
          "type": "uint64"
        },
        {
          "internalType": "bytes32",
          "name": "newLocalExitRoot",
          "type": "bytes32"
        },
        {
          "internalType": "bytes32",
          "name": "newStateRoot",
          "type": "bytes32"
        },
        {
          "internalType": "address",
          "name": "beneficiary",
          "type": "address"
        },
        {
          "internalType": "bytes32[24]",
          "name": "proof",
          "type": "bytes32[24]"
        }
      ],
      "name": "verifyBatches",
      "outputs": [],
      "stateMutability": "nonpayable",
      "type": "function"
    },
    {
      "inputs": [
        {
          "internalType": "uint32",
          "name": "rollupID",
          "type": "uint32"
        },
        {
          "internalType": "uint64",
          "name": "pendingStateNum",
          "type": "uint64"
        },
        {
          "internalType": "uint64",
          "name": "initNumBatch",
          "type": "uint64"
        },
        {
          "internalType": "uint64",
          "name": "finalNewBatch",
          "type": "uint64"
        },
        {
          "internalType": "bytes32",
          "name": "newLocalExitRoot",
          "type": "bytes32"
        },
        {
          "internalType": "bytes32",
          "name": "newStateRoot",
          "type": "bytes32"
        },
        {
          "internalType": "address",
          "name": "beneficiary",
          "type": "address"
        },
        {
          "internalType": "bytes32[24]",
          "name": "proof",
          "type": "bytes32[24]"
        }
      ],
      "name": "verifyBatchesTrustedAggregator",
      "outputs": [],
      "stateMutability": "nonpayable",
      "type": "function"
    }
  ],
  "bytecode": "0x60e060405234801562000010575f80fd5b5060405162005af738038062005af7833981016040819052620000339162000069565b6001600160a01b0392831660805290821660c0521660a052620000ba565b6001600160a01b038116811462000066575f80fd5b50565b5f805f606084860312156200007c575f80fd5b8351620000898162000051565b60208501519093506200009c8162000051565b6040850151909250620000af8162000051565b809150509250925092565b60805160a05160c0516159da6200011d5f395f818161096c01528181611abb015261344201525f818161071d015281816125e401526136f801525f81816108af01528181610bbd01528181610d650152818161182c01526135ed01526159da5ff3fe608060405234801562000010575f80fd5b506004361062000290575f3560e01c8063066ec0121462000294578063080b311114620002c05780630a0d9fbe14620002e857806311f6b287146200030357806312b86e19146200031a5780631489ed10146200033357806315064c96146200034a5780631608859c14620003585780631796a1ae146200036f5780631816b7e514620003965780632072f6c514620003ad578063248a9ca314620003b75780632528016914620003dd5780632f2ff15d146200049157806336568abe14620004a8578063394218e914620004bf578063477fa27014620004d65780634d4d333814620004df57806355a71ee014620004f657806360469169146200053957806365c0504d14620005435780637222020f14620005f15780637975fcfe14620006085780637fb6e76a146200062e578063841b24d7146200065657806387c20c0114620006715780638bd4f071146200068857806391d14854146200069f57806399f5634e14620006b65780639a908e7314620006c05780639c9f3dfe14620006d7578063a066215c14620006ee578063a217fddf1462000705578063a2967d99146200070d578063a3c573eb1462000717578063afd23cbe146200074e578063b99d0ad71462000778578063c1acbc34146200084f578063c4c928c2146200086a578063ceee281d1462000881578063d02103ca14620008a9578063d5073f6f14620008d1578063d547741f14620008e8578063d939b31514620008ff578063dbc169761462000913578063dde0ff77146200091d578063e0bfd3d21462000938578063e136edf7146200094f578063e46761c41462000966578063f34eb8eb146200098e578063f4e9267514620009a5578063f9c4c2ae14620009b6575b5f80fd5b608454620002a8906001600160401b031681565b604051620002b7919062004349565b60405180910390f35b620002d7620002d136600462004388565b62000acc565b6040519015158152602001620002b7565b608554620002a890600160401b90046001600160401b031681565b620002a862000314366004620043be565b62000af5565b620003316200032b366004620043ec565b62000b14565b005b620003316200034436600462004493565b62000cbc565b606f54620002d79060ff1681565b620003316200036936600462004388565b62000e44565b607e54620003809063ffffffff1681565b60405163ffffffff9091168152602001620002b7565b62000331620003a736600462004518565b62000ed7565b6200033162000f82565b620003ce620003c836600462004542565b62000ffb565b604051908152602001620002b7565b6200045d620003ee36600462004388565b60408051606080820183525f808352602080840182905292840181905263ffffffff959095168552608182528285206001600160401b03948516865260030182529382902082519485018352805485526001015480841691850191909152600160401b90049091169082015290565b60408051825181526020808401516001600160401b03908116918301919091529282015190921690820152606001620002b7565b62000331620004a23660046200455a565b6200100f565b62000331620004b93660046200455a565b62001031565b62000331620004d03660046200458b565b6200106b565b608654620003ce565b62000331620004f0366004620045a7565b62001119565b620003ce6200050736600462004388565b63ffffffff82165f9081526081602090815260408083206001600160401b038516845260020190915290205492915050565b620003ce6200158d565b620005a762000554366004620043be565b607f6020525f90815260409020805460018201546002909201546001600160a01b0391821692918216916001600160401b03600160a01b8204169160ff600160e01b8304811692600160e81b9004169086565b604080516001600160a01b0397881681529690951660208701526001600160401b039093169385019390935260ff166060840152901515608083015260a082015260c001620002b7565b6200033162000602366004620043be565b620015a4565b6200061f6200061936600462004658565b6200168c565b604051620002b791906200470b565b620003806200063f3660046200458b565b60836020525f908152604090205463ffffffff1681565b608454620002a890600160c01b90046001600160401b031681565b620003316200068236600462004493565b620016be565b6200033162000699366004620043ec565b620019d9565b620002d7620006b03660046200455a565b62001a8d565b620003ce62001ab7565b620002a8620006d13660046200471f565b62001b9d565b62000331620006e83660046200458b565b62001d64565b62000331620006ff3660046200458b565b62001e06565b620003ce5f81565b620003ce62001ea4565b6200073f7f000000000000000000000000000000000000000000000000000000000000000081565b604051620002b791906200474a565b6085546200076490600160801b900461ffff1681565b60405161ffff9091168152602001620002b7565b6200080d6200078936600462004388565b60408051608080820183525f8083526020808401829052838501829052606093840182905263ffffffff969096168152608186528381206001600160401b03958616825260040186528390208351918201845280548086168352600160401b9004909416948101949094526001830154918401919091526002909101549082015290565b604051620002b7919081516001600160401b03908116825260208084015190911690820152604082810151908201526060918201519181019190915260800190565b608454620002a890600160801b90046001600160401b031681565b620003316200087b3660046200475e565b62002259565b6200038062000892366004620047ef565b60826020525f908152604090205463ffffffff1681565b6200073f7f000000000000000000000000000000000000000000000000000000000000000081565b62000331620008e236600462004542565b6200251c565b62000331620008f93660046200455a565b620025a6565b608554620002a8906001600160401b031681565b62000331620025c8565b608454620002a890600160401b90046001600160401b031681565b62000331620009493660046200481e565b6200265f565b62000331620009603660046200493a565b620026e3565b6200073f7f000000000000000000000000000000000000000000000000000000000000000081565b620003316200099f36600462004a13565b62002b3a565b608054620003809063ffffffff1681565b62000a4c620009c7366004620043be565b60816020525f9081526040902080546001820154600583015460068401546007909401546001600160a01b0380851695600160a01b958690046001600160401b039081169692861695929092048216939282821692600160401b808404821693600160801b808204841694600160c01b90920484169380831693830416910460ff168c565b604080516001600160a01b039d8e1681526001600160401b039c8d1660208201529c909a16998c019990995296891660608b015260808a019590955292871660a089015290861660c0880152851660e0870152841661010086015283166101208501529190911661014083015260ff1661016082015261018001620002b7565b63ffffffff82165f90815260816020526040812062000aec908362002d1c565b90505b92915050565b63ffffffff81165f90815260816020526040812062000aef9062002d60565b5f805160206200598583398151915262000b2e8162002dcf565b63ffffffff89165f90815260816020526040902062000b54818a8a8a8a8a8a8a62002ddb565b600681018054600160401b600160801b031916600160401b6001600160401b038981169182029290921783555f9081526002840160205260409020869055600583018790559054600160801b9004161562000bbb576006810180546001600160801b031690555b7f00000000000000000000000000000000000000000000000000000000000000006001600160a01b03166333d6247d62000bf462001ea4565b6040518263ffffffff1660e01b815260040162000c1391815260200190565b5f604051808303815f87803b15801562000c2b575f80fd5b505af115801562000c3e573d5f803e3d5ffd5b5050608480546001600160c01b031661127560c71b1790555050604080516001600160401b03881681526020810186905290810186905233606082015263ffffffff8b16907f3182bd6e6f74fc1fdc88b60f3a4f4c7f79db6ae6f5b88a1b3f5a1e28ec210d5e9060800160405180910390a250505050505050505050565b5f805160206200598583398151915262000cd68162002dcf565b63ffffffff89165f90815260816020526040902062000cfc818a8a8a8a8a8a8a62003157565b600681018054600160401b600160801b031916600160401b6001600160401b038a81169182029290921783555f9081526002840160205260409020879055600583018890559054600160801b9004161562000d63576006810180546001600160801b031690555b7f00000000000000000000000000000000000000000000000000000000000000006001600160a01b03166333d6247d62000d9c62001ea4565b6040518263ffffffff1660e01b815260040162000dbb91815260200190565b5f604051808303815f87803b15801562000dd3575f80fd5b505af115801562000de6573d5f803e3d5ffd5b50505050336001600160a01b03168a63ffffffff167fd1ec3a1216f08b6eff72e169ceb548b782db18a6614852618d86bb19f3f9b0d389888a60405162000e309392919062004aa5565b60405180910390a350505050505050505050565b63ffffffff82165f90815260816020526040902062000e725f80516020620059858339815191523362001a8d565b62000ec657606f5460ff161562000e9c57604051630bc011ff60e21b815260040160405180910390fd5b62000ea8818362002d1c565b62000ec657604051630674f25160e11b815260040160405180910390fd5b62000ed281836200350b565b505050565b5f805160206200590583398151915262000ef18162002dcf565b6103e88261ffff16108062000f0b57506103ff8261ffff16115b1562000f2a57604051630984a67960e31b815260040160405180910390fd5b6085805461ffff60801b1916600160801b61ffff8516908102919091179091556040519081527f7019933d795eba185c180209e8ae8bffbaa25bcef293364687702c31f4d302c5906020015b60405180910390a15050565b62000f9c5f80516020620059458339815191523362001a8d565b62000fef57608454429062000fc69062093a8090600160801b90046001600160401b031662004ada565b6001600160401b0316111562000fef5760405163692baaad60e11b815260040160405180910390fd5b62000ff9620036f6565b565b5f9081526034602052604090206001015490565b6200101a8262000ffb565b620010258162002dcf565b62000ed2838362003770565b6001600160a01b03811633146200105b57604051630b4ad1cd60e31b815260040160405180910390fd5b620010678282620037db565b5050565b5f8051602062005905833981519152620010858162002dcf565b606f5460ff16620010c7576084546001600160401b03600160c01b909104811690831610620010c75760405163401636df60e01b815260040160405180910390fd5b608480546001600160c01b0316600160c01b6001600160401b038516021790556040517f1f4fa24c2e4bad19a7f3ec5c5485f70d46c798461c2e684f55bbd0fc661373a19062000f7690849062004349565b5f54600290610100900460ff161580156200113a57505f5460ff8083169116105b620011a35760405162461bcd60e51b815260206004820152602e60248201527f496e697469616c697a61626c653a20636f6e747261637420697320616c72656160448201526d191e481a5b9a5d1a585b1a5e995960921b60648201526084015b60405180910390fd5b5f805461010060ff841661ffff199092169190911717905560858054608480546001600160c01b0316600160c01b6001600160401b038c8116919091029190911790915567016345785d8a00006086558a166001600160801b03199091161760e160431b1761ffff60801b19166101f560811b1790556200122362003844565b6200123d5f80516020620059858339815191528a620038b0565b620012495f86620038b0565b620012635f805160206200588583398151915286620038b0565b6200127d5f80516020620058e583398151915286620038b0565b620012975f805160206200582583398151915286620038b0565b620012b15f805160206200586583398151915287620038b0565b620012cb5f805160206200596583398151915287620038b0565b620012e55f80516020620058a583398151915287620038b0565b620012ff5f805160206200590583398151915287620038b0565b620013275f80516020620059858339815191525f8051602062005805833981519152620038bc565b620013415f805160206200580583398151915287620038b0565b6200135b5f805160206200584583398151915287620038b0565b620013835f80516020620059458339815191525f8051602062005925833981519152620038bc565b6200139d5f805160206200594583398151915285620038b0565b620013b75f805160206200592583398151915285620038b0565b5f620013ca8484600561044d5f6200390f565b6073546074549192506001600160401b03600160401b909104811691168082146200140857604051632e4cc54360e11b815260040160405180910390fd5b6001600160401b038181165f8181526075602090815260408083205460028901835281842055868516808452607280845282852060038b018552948390208554815560018087018054919092018054918a166001600160401b03198084168217835593546001600160801b0319938416909117600160401b918290048c1682021790915560068d0180549092169094179388029390931790925560078a0180549092169095179055607a54606f54949092529154607354925163176b20e160e31b81526001600160a01b038c81169663bb59070896620015089695831695600160581b909104909216936076936077939192919091169060040162004bab565b5f604051808303815f87803b15801562001520575f80fd5b505af115801562001533573d5f803e3d5ffd5b50505f805461ff0019169055505060405160ff851681527f7f26b83ff96e1f2b6a682f133852f6798a09c465da95921460cefb3847402498935060200191506200157a9050565b60405180910390a1505050505050505050565b5f60865460646200159f919062004c10565b905090565b5f8051602062005865833981519152620015be8162002dcf565b63ffffffff82161580620015dd5750607e5463ffffffff908116908316115b15620015fc57604051637512e5cb60e01b815260040160405180910390fd5b63ffffffff82165f908152607f60205260409020600180820154600160e81b900460ff16151590036200164257604051633b8d3d9960e01b815260040160405180910390fd5b60018101805460ff60e81b1916600160e81b17905560405163ffffffff8416907f4710d2ee567ef1ed6eb2f651dde4589524bcf7cebc62147a99b281cc836e7e44905f90a2505050565b63ffffffff86165f908152608160205260409020606090620016b390878787878762003b27565b979650505050505050565b606f5460ff1615620016e357604051630bc011ff60e21b815260040160405180910390fd5b63ffffffff88165f9081526081602090815260408083206084546001600160401b038a8116865260038301909452919093206001015442926200173192600160c01b90048116911662004ada565b6001600160401b031611156200175a57604051638a0704d360e01b815260040160405180910390fd5b6103e862001769888862004c2a565b6001600160401b031611156200179257604051635acfba9d60e11b815260040160405180910390fd5b620017a4818989898989898962003157565b620017b0818762003c61565b6085546001600160401b03165f03620018b757600681018054600160401b600160801b031916600160401b6001600160401b038981169182029290921783555f9081526002840160205260409020869055600583018790559054600160801b900416156200182a576006810180546001600160801b031690555b7f00000000000000000000000000000000000000000000000000000000000000006001600160a01b03166333d6247d6200186362001ea4565b6040518263ffffffff1660e01b81526004016200188291815260200190565b5f604051808303815f87803b1580156200189a575f80fd5b505af1158015620018ad573d5f803e3d5ffd5b5050505062001980565b620018c28162003e58565b600681018054600160801b90046001600160401b0316906010620018e68362004c4d565b82546001600160401b039182166101009390930a92830292820219169190911790915560408051608081018252428316815289831660208083019182528284018b8152606084018b81526006890154600160801b900487165f90815260048a01909352949091209251835492518616600160401b026001600160801b03199093169516949094171781559151600183015551600290910155505b336001600160a01b03168963ffffffff167faac1e7a157b259544ebacd6e8a82ae5d6c8f174e12aa48696277bcc9a661f0b4888789604051620019c69392919062004aa5565b60405180910390a3505050505050505050565b606f5460ff1615620019fe57604051630bc011ff60e21b815260040160405180910390fd5b63ffffffff88165f90815260816020526040902062001a24818989898989898962002ddb565b6001600160401b0385165f9081526002820160209081526040918290205482519081529081018590527f1f44c21118c4603cfb4e1b621dbcfa2b73efcececee2b99b620b2953d33a7010910160405180910390a162001a82620036f6565b505050505050505050565b5f9182526034602090815260408084206001600160a01b0393909316845291905290205460ff1690565b5f807f00000000000000000000000000000000000000000000000000000000000000006001600160a01b03166370a08231306040518263ffffffff1660e01b815260040162001b0791906200474a565b602060405180830381865afa15801562001b23573d5f803e3d5ffd5b505050506040513d601f19601f8201168201806040525081019062001b49919062004c7d565b6084549091505f9062001b6f906001600160401b03600160401b82048116911662004c2a565b6001600160401b03169050805f0362001b8a575f9250505090565b62001b96818362004ca9565b9250505090565b606f545f9060ff161562001bc457604051630bc011ff60e21b815260040160405180910390fd5b335f9081526082602052604081205463ffffffff169081900362001bfb576040516371653c1560e01b815260040160405180910390fd5b836001600160401b03165f0362001c2557604051632590ccf960e01b815260040160405180910390fd5b63ffffffff81165f908152608160205260408120608480549192879262001c579084906001600160401b031662004ada565b82546101009290920a6001600160401b0381810219909316918316021790915560068301541690505f62001c8c878362004ada565b6006840180546001600160401b038084166001600160401b03199092168217909255604080516060810182528a815242841660208083019182528886168385019081525f95865260038b0190915292909320905181559151600192909201805491518416600160401b026001600160801b03199092169290931691909117179055905062001d1a8362003e58565b8363ffffffff167f1d9f30260051d51d70339da239ea7b080021adcaabfa71c9b0ea339a20cf9a258260405162001d52919062004349565b60405180910390a29695505050505050565b5f805160206200590583398151915262001d7e8162002dcf565b606f5460ff1662001db9576085546001600160401b039081169083161062001db95760405163048a05a960e41b815260040160405180910390fd5b608580546001600160401b0319166001600160401b0384161790556040517fc4121f4e22c69632ebb7cf1f462be0511dc034f999b52013eddfb24aab765c759062000f7690849062004349565b5f805160206200590583398151915262001e208162002dcf565b62015180826001600160401b0316111562001e4e57604051631c0cfbfd60e31b815260040160405180910390fd5b60858054600160401b600160801b031916600160401b6001600160401b038516021790556040517f1b023231a1ab6b5d93992f168fb44498e1a7e64cef58daff6f1c216de6a68c289062000f7690849062004349565b6080545f9063ffffffff1680820362001ebe57505f919050565b5f816001600160401b0381111562001eda5762001eda62004896565b60405190808252806020026020018201604052801562001f04578160200160208202803683370190505b5090505f5b8281101562001f745760815f62001f2283600162004cbf565b63ffffffff1663ffffffff1681526020019081526020015f206005015482828151811062001f545762001f5462004cd5565b60209081029190910101528062001f6b8162004ce9565b91505062001f09565b505f60205b83600114620021b4575f62001f9060028662004d04565b62001f9d60028762004ca9565b62001fa9919062004cbf565b90505f816001600160401b0381111562001fc75762001fc762004896565b60405190808252806020026020018201604052801562001ff1578160200160208202803683370190505b5090505f5b8281101562002168576200200c60018462004d1a565b811480156200202757506200202360028862004d04565b6001145b15620020a757856200203b82600262004c10565b815181106200204e576200204e62004cd5565b6020026020010151856040516020016200206a92919062004d30565b6040516020818303038152906040528051906020012082828151811062002095576200209562004cd5565b60200260200101818152505062002153565b85620020b582600262004c10565b81518110620020c857620020c862004cd5565b602002602001015186826002620020e0919062004c10565b620020ed90600162004cbf565b8151811062002100576200210062004cd5565b60200260200101516040516020016200211b92919062004d30565b6040516020818303038152906040528051906020012082828151811062002146576200214662004cd5565b6020026020010181815250505b806200215f8162004ce9565b91505062001ff6565b5080945081955083846040516020016200218492919062004d30565b6040516020818303038152906040528051906020012093508280620021a99062004d3e565b935050505062001f79565b5f835f81518110620021ca57620021ca62004cd5565b602002602001015190505f5b828110156200224f578184604051602001620021f492919062004d30565b60405160208183030381529060405280519060200120915083846040516020016200222192919062004d30565b6040516020818303038152906040528051906020012093508080620022469062004ce9565b915050620021d6565b5095945050505050565b5f8051602062005825833981519152620022738162002dcf565b63ffffffff84161580620022925750607e5463ffffffff908116908516115b15620022b157604051637512e5cb60e01b815260040160405180910390fd5b6001600160a01b0385165f9081526082602052604081205463ffffffff1690819003620022f1576040516374a086a360e01b815260040160405180910390fd5b63ffffffff8181165f908152608160205260409020600781015490918716600160401b9091046001600160401b0316036200233f57604051634f61d51960e01b815260040160405180910390fd5b63ffffffff86165f908152607f60205260409020600180820154600160e81b900460ff16151590036200238557604051633b8d3d9960e01b815260040160405180910390fd5b60018101546007830154600160801b900460ff908116600160e01b9092041614620023c357604051635aa0d5f160e11b815260040160405180910390fd5b6001808201805491840180546001600160a01b031981166001600160a01b03909416938417825591546001600160401b03600160a01b9182900416026001600160e01b0319909216909217179055600782018054600160401b63ffffffff8a1602600160401b600160801b03199091161790555f620024428462000af5565b6007840180546001600160401b0319166001600160401b038316179055825460405163278f794360e11b81529192506001600160a01b038b811692634f1ef28692620024979216908b908b9060040162004d56565b5f604051808303815f87803b158015620024af575f80fd5b505af1158015620024c2573d5f803e3d5ffd5b50506040805163ffffffff8c811682526001600160401b0386166020830152881693507ff585e04c05d396901170247783d3e5f0ee9c1df23072985b50af089f5e48b19d92500160405180910390a2505050505050505050565b5f8051602062005845833981519152620025368162002dcf565b683635c9adc5dea00000821180620025515750633b9aca0082105b156200257057604051638586952560e01b815260040160405180910390fd5b60868290556040518281527ffb383653f53ee079978d0c9aff7aeff04a10166ce244cca9c9f9d8d96bed45b29060200162000f76565b620025b18262000ffb565b620025bc8162002dcf565b62000ed28383620037db565b5f80516020620058a5833981519152620025e28162002dcf565b7f00000000000000000000000000000000000000000000000000000000000000006001600160a01b031663dbc169766040518163ffffffff1660e01b81526004015f604051808303815f87803b1580156200263b575f80fd5b505af11580156200264e573d5f803e3d5ffd5b505050506200265c62003f21565b50565b5f80516020620058e5833981519152620026798162002dcf565b6001600160401b0384165f9081526083602052604090205463ffffffff1615620026b6576040516337c8fe0960e11b815260040160405180910390fd5b5f620026c688888888876200390f565b5f8080526002909101602052604090209390935550505050505050565b5f8051602062005965833981519152620026fd8162002dcf565b63ffffffff891615806200271c5750607e5463ffffffff908116908a16115b156200273b57604051637512e5cb60e01b815260040160405180910390fd5b63ffffffff89165f908152607f60205260409020600180820154600160e81b900460ff16151590036200278157604051633b8d3d9960e01b815260040160405180910390fd5b6001600160401b0389165f9081526083602052604090205463ffffffff1615620027be576040516337c8fe0960e11b815260040160405180910390fd5b608080545f91908290620027d89063ffffffff1662004d95565b825463ffffffff8281166101009490940a93840293021916919091179091558254604080515f80825260208201928390529394506001600160a01b0390921691309162002825906200433b565b620028339392919062004db0565b604051809103905ff0801580156200284d573d5f803e3d5ffd5b5090508160835f8d6001600160401b03166001600160401b031681526020019081526020015f205f6101000a81548163ffffffff021916908363ffffffff1602179055508160825f836001600160a01b03166001600160a01b031681526020019081526020015f205f6101000a81548163ffffffff021916908363ffffffff1602179055505f60815f8463ffffffff1663ffffffff1681526020019081526020015f20905081815f015f6101000a8154816001600160a01b0302191690836001600160a01b031602179055508360010160149054906101000a90046001600160401b03168160010160146101000a8154816001600160401b0302191690836001600160401b03160217905550836001015f9054906101000a90046001600160a01b0316816001015f6101000a8154816001600160a01b0302191690836001600160a01b031602179055508b815f0160146101000a8154816001600160401b0302191690836001600160401b031602179055508360020154816002015f806001600160401b031681526020019081526020015f20819055508c63ffffffff168160070160086101000a8154816001600160401b0302191690836001600160401b0316021790555083600101601c9054906101000a900460ff168160070160106101000a81548160ff021916908360ff1602179055508263ffffffff167f9a84992ead4481f37097c7663e97ed883b31f216fae5685c6ee576a656483cd98e848f8d8d60405162002aba95949392919063ffffffff95861681526001600160a01b0394851660208201526001600160401b03939093166040840152921660608201529116608082015260a00190565b60405180910390a26040516308fd7e2160e31b81526001600160a01b038316906347ebf1089062002afc908e908e9088908f908f908f908f9060040162004de6565b5f604051808303815f87803b15801562002b14575f80fd5b505af115801562002b27573d5f803e3d5ffd5b5050505050505050505050505050505050565b5f805160206200588583398151915262002b548162002dcf565b607e80545f9190829062002b6e9063ffffffff1662004d95565b91906101000a81548163ffffffff021916908363ffffffff160217905590506040518060c00160405280896001600160a01b03168152602001886001600160a01b03168152602001876001600160401b031681526020018660ff1681526020015f1515815260200185815250607f5f8363ffffffff1663ffffffff1681526020019081526020015f205f820151815f015f6101000a8154816001600160a01b0302191690836001600160a01b031602179055506020820151816001015f6101000a8154816001600160a01b0302191690836001600160a01b0316021790555060408201518160010160146101000a8154816001600160401b0302191690836001600160401b03160217905550606082015181600101601c6101000a81548160ff021916908360ff160217905550608082015181600101601d6101000a81548160ff02191690831515021790555060a082015181600201559050508063ffffffff167fa2970448b3bd66ba7e524e7b2a5b9cf94fa29e32488fb942afdfe70dd4b77b5289898989898960405162002d0a9695949392919062004e52565b60405180910390a25050505050505050565b6085546001600160401b038281165f9081526004850160205260408120549092429262002d4e92918116911662004ada565b6001600160401b031611159392505050565b60068101545f90600160801b90046001600160401b03161562002db2575060068101546001600160401b03600160801b90910481165f9081526004909201602052604090912054600160401b90041690565b5060060154600160401b90046001600160401b031690565b919050565b6200265c813362003f79565b60078801545f906001600160401b03908116908716101562002e105760405163ead1340b60e01b815260040160405180910390fd5b6001600160401b0388161562002eb05760068901546001600160401b03600160801b9091048116908916111562002e5a5760405163bb14c20560e01b815260040160405180910390fd5b506001600160401b038088165f90815260048a0160205260409020600281015481549092888116600160401b909204161462002ea957604051632bd2e3e760e01b815260040160405180910390fd5b5062002f24565b506001600160401b0385165f9081526002890160205260409020548062002eea576040516324cbdcc360e11b815260040160405180910390fd5b60068901546001600160401b03600160401b9091048116908716111562002f2457604051630f2b74f160e11b815260040160405180910390fd5b60068901546001600160401b03600160801b9091048116908816118062002f5d5750876001600160401b0316876001600160401b031611155b8062002f81575060068901546001600160401b03600160c01b909104811690881611155b1562002fa05760405163bfa7079f60e01b815260040160405180910390fd5b6001600160401b038781165f90815260048b016020526040902054600160401b900481169086161462002fe6576040516332a2a77f60e01b815260040160405180910390fd5b5f62002ff78a888888868962003b27565b90505f5f80516020620058c58339815191526002836040516200301b919062004eaa565b602060405180830381855afa15801562003037573d5f803e3d5ffd5b5050506040513d601f19601f820116820180604052508101906200305c919062004c7d565b62003068919062004d04565b60018c0154604080516020810182528381529051634890ed4560e11b81529293506001600160a01b0390911691639121da8a91620030ac9188919060040162004ec7565b602060405180830381865afa158015620030c8573d5f803e3d5ffd5b505050506040513d601f19601f82011682018060405250810190620030ee919062004f03565b6200310c576040516309bde33960e01b815260040160405180910390fd5b6001600160401b0389165f90815260048c0160205260409020600201548590036200314a5760405163a47276bd60e01b815260040160405180910390fd5b5050505050505050505050565b5f80620031648a62002d60565b60078b01549091506001600160401b0390811690891610156200319a5760405163ead1340b60e01b815260040160405180910390fd5b6001600160401b038916156200323c5760068a01546001600160401b03600160801b9091048116908a161115620031e45760405163bb14c20560e01b815260040160405180910390fd5b6001600160401b03808a165f90815260048c01602052604090206002810154815490945090918a8116600160401b90920416146200323557604051632bd2e3e760e01b815260040160405180910390fd5b50620032ab565b6001600160401b0388165f90815260028b01602052604090205491508162003277576040516324cbdcc360e11b815260040160405180910390fd5b806001600160401b0316886001600160401b03161115620032ab57604051630f2b74f160e11b815260040160405180910390fd5b806001600160401b0316876001600160401b031611620032de5760405163b9b18f5760e01b815260040160405180910390fd5b5f620032ef8b8a8a8a878b62003b27565b90505f5f80516020620058c583398151915260028360405162003313919062004eaa565b602060405180830381855afa1580156200332f573d5f803e3d5ffd5b5050506040513d601f19601f8201168201806040525081019062003354919062004c7d565b62003360919062004d04565b60018d0154604080516020810182528381529051634890ed4560e11b81529293506001600160a01b0390911691639121da8a91620033a49189919060040162004ec7565b602060405180830381865afa158015620033c0573d5f803e3d5ffd5b505050506040513d601f19601f82011682018060405250810190620033e6919062004f03565b62003404576040516309bde33960e01b815260040160405180910390fd5b5f62003411848b62004c2a565b90506200346a87826001600160401b03166200342c62001ab7565b62003438919062004c10565b6001600160a01b037f000000000000000000000000000000000000000000000000000000000000000016919062003fa3565b80608460088282829054906101000a90046001600160401b031662003490919062004ada565b82546101009290920a6001600160401b0381810219909316918316021790915560848054600160801b600160c01b031916600160801b428416021790558e546040516332c2d15360e01b8152918d166004830152602482018b90523360448301526001600160a01b031691506332c2d1539060640162002afc565b60068201546001600160401b03600160c01b90910481169082161115806200354a575060068201546001600160401b03600160801b9091048116908216115b15620035695760405163d086b70b60e01b815260040160405180910390fd5b6001600160401b038181165f81815260048501602090815260408083208054600689018054600160401b600160801b031916600160401b92839004909816918202979097178755600280830154828752908a0190945291909320919091556001820154600587015583546001600160c01b0316600160c01b909302929092179092557f00000000000000000000000000000000000000000000000000000000000000006001600160a01b03166333d6247d6200362462001ea4565b6040518263ffffffff1660e01b81526004016200364391815260200190565b5f604051808303815f87803b1580156200365b575f80fd5b505af11580156200366e573d5f803e3d5ffd5b505085546001600160a01b03165f90815260826020908152604091829020546002870154600188015484516001600160401b03898116825294810192909252818501529188166060830152915163ffffffff90921693507f581910eb7a27738945c2f00a91f2284b2d6de9d4e472b12f901c2b0df045e21b925081900360800190a250505050565b7f00000000000000000000000000000000000000000000000000000000000000006001600160a01b0316632072f6c56040518163ffffffff1660e01b81526004015f604051808303815f87803b1580156200374f575f80fd5b505af115801562003762573d5f803e3d5ffd5b5050505062000ff962003ff7565b6200377c828262001a8d565b62001067575f8281526034602090815260408083206001600160a01b0385168085529252808320805460ff1916600117905551339285917f2f8788117e7eff1d82e926ec794901d17c78024a50270940304540a733656f0d9190a45050565b620037e7828262001a8d565b1562001067575f8281526034602090815260408083206001600160a01b0385168085529252808320805460ff1916905551339285917ff6391f5c32d9c69d2a47ea670b442974b53935d1edc7fd64eb21e047a839171b9190a45050565b5f54610100900460ff1662000ff95760405162461bcd60e51b815260206004820152602b60248201527f496e697469616c697a61626c653a20636f6e7472616374206973206e6f74206960448201526a6e697469616c697a696e6760a81b60648201526084016200119a565b62001067828262003770565b5f620038c88362000ffb565b5f84815260346020526040808220600101859055519192508391839186917fbd79b86ffe0ab8e8776151514217cd7cacd52c909f66475c3af44e129f0b00ff9190a4505050565b608080545f91829182906200392a9063ffffffff1662004d95565b91906101000a81548163ffffffff021916908363ffffffff160217905590508060835f866001600160401b03166001600160401b031681526020019081526020015f205f6101000a81548163ffffffff021916908363ffffffff1602179055508060825f896001600160a01b03166001600160a01b031681526020019081526020015f205f6101000a81548163ffffffff021916908363ffffffff16021790555060815f8263ffffffff1663ffffffff1681526020019081526020015f20915086825f015f6101000a8154816001600160a01b0302191690836001600160a01b03160217905550848260010160146101000a8154816001600160401b0302191690836001600160401b0316021790555085826001015f6101000a8154816001600160a01b0302191690836001600160a01b0316021790555083825f0160146101000a8154816001600160401b0302191690836001600160401b03160217905550828260070160106101000a81548160ff021916908360ff1602179055508063ffffffff167f1c20c90adb9c53d1da3e79fb8531f2c13c52b73a31a2574202ec36fb449ab24a8689878760405162003b1594939291906001600160401b0394851681526001600160a01b039390931660208401529216604082015260ff91909116606082015260800190565b60405180910390a25095945050505050565b6001600160401b038086165f818152600389016020526040808220549388168252902054606092911580159062003b5c575081155b1562003b7b5760405163340c614f60e11b815260040160405180910390fd5b8062003b9a576040516366385b5160e01b815260040160405180910390fd5b62003ba58462004053565b62003bc3576040516305dae44f60e21b815260040160405180910390fd5b885460018a01546040516001600160601b03193360601b16602082015260348101889052605481018590526001600160c01b031960c08c811b82166074840152600160a01b94859004811b8216607c84015293909204831b82166084820152608c810187905260ac810184905260cc81018990529189901b1660ec82015260f401604051602081830303815290604052925050509695505050505050565b5f62003c6d8362002d60565b9050815f8062003c7e848462004c2a565b6085546001600160401b0391821692505f9162003ca491600160401b9004164262004d1a565b90505b846001600160401b0316846001600160401b03161462003d2d576001600160401b038085165f9081526003890160205260409020600181015490911682101562003d08576001810154600160401b90046001600160401b0316945062003d26565b62003d14868662004c2a565b6001600160401b031693505062003d2d565b5062003ca7565b5f62003d3a848462004d1a565b90508381101562003d9857808403600c811162003d58578062003d5b565b600c5b9050806103e80a81608560109054906101000a900461ffff1661ffff160a608654028162003d8d5762003d8d62004c95565b046086555062003e0f565b838103600c811162003dab578062003dae565b600c5b90505f816103e80a82608560109054906101000a900461ffff1661ffff160a670de0b6b3a7640000028162003de75762003de762004c95565b04905080608654670de0b6b3a7640000028162003e085762003e0862004c95565b0460865550505b683635c9adc5dea00000608654111562003e3657683635c9adc5dea0000060865562003e4e565b633b9aca00608654101562003e4e57633b9aca006086555b5050505050505050565b60068101546001600160401b03600160c01b82048116600160801b9092041611156200265c5760068101545f9062003ea290600160c01b90046001600160401b0316600162004ada565b905062003eb0828262002d1c565b15620010675760068201545f9060029062003edd908490600160801b90046001600160401b031662004c2a565b62003ee9919062004f24565b62003ef5908362004ada565b905062003f03838262002d1c565b1562003f155762000ed283826200350b565b62000ed283836200350b565b606f5460ff1662003f4557604051635386698160e01b815260040160405180910390fd5b606f805460ff191690556040517f1e5e34eea33501aecf2ebec9fe0e884a40804275ea7fe10b2ba084c8374308b3905f90a1565b62003f85828262001a8d565b6200106757604051637615be1f60e11b815260040160405180910390fd5b604080516001600160a01b038416602482015260448082018490528251808303909101815260649091019091526020810180516001600160e01b031663a9059cbb60e01b17905262000ed2908490620040d7565b606f5460ff16156200401c57604051630bc011ff60e21b815260040160405180910390fd5b606f805460ff191660011790556040517f2261efe5aef6fedc1fd1550b25facc9181745623049c7901287030b9ad1a5497905f90a1565b5f67ffffffff000000016001600160401b03831610801562004089575067ffffffff00000001604083901c6001600160401b0316105b8015620040aa575067ffffffff00000001608083901c6001600160401b0316105b8015620040c2575067ffffffff0000000160c083901c105b15620040d057506001919050565b505f919050565b5f6200412d826040518060400160405280602081526020017f5361666545524332303a206c6f772d6c6576656c2063616c6c206661696c6564815250856001600160a01b0316620041af9092919063ffffffff16565b80519091501562000ed257808060200190518101906200414e919062004f03565b62000ed25760405162461bcd60e51b815260206004820152602a60248201527f5361666545524332303a204552433230206f7065726174696f6e20646964206e6044820152691bdd081cdd58d8d9595960b21b60648201526084016200119a565b6060620041bf84845f85620041c7565b949350505050565b6060824710156200422a5760405162461bcd60e51b815260206004820152602660248201527f416464726573733a20696e73756666696369656e742062616c616e636520666f6044820152651c8818d85b1b60d21b60648201526084016200119a565b5f80866001600160a01b0316858760405162004247919062004eaa565b5f6040518083038185875af1925050503d805f811462004283576040519150601f19603f3d011682016040523d82523d5f602084013e62004288565b606091505b5091509150620016b38783838760608315620043085782515f0362004300576001600160a01b0385163b620043005760405162461bcd60e51b815260206004820152601d60248201527f416464726573733a2063616c6c20746f206e6f6e2d636f6e747261637400000060448201526064016200119a565b5081620041bf565b620041bf83838151156200431f5781518083602001fd5b8060405162461bcd60e51b81526004016200119a91906200470b565b6108b88062004f4d83390190565b6001600160401b0391909116815260200190565b803563ffffffff8116811462002dca575f80fd5b80356001600160401b038116811462002dca575f80fd5b5f80604083850312156200439a575f80fd5b620043a5836200435d565b9150620043b56020840162004371565b90509250929050565b5f60208284031215620043cf575f80fd5b62000aec826200435d565b80610300810183101562000aef575f80fd5b5f805f805f805f806103e0898b03121562004405575f80fd5b62004410896200435d565b97506200442060208a0162004371565b96506200443060408a0162004371565b95506200444060608a0162004371565b94506200445060808a0162004371565b935060a0890135925060c089013591506200446f8a60e08b01620043da565b90509295985092959890939650565b6001600160a01b03811681146200265c575f80fd5b5f805f805f805f806103e0898b031215620044ac575f80fd5b620044b7896200435d565b9750620044c760208a0162004371565b9650620044d760408a0162004371565b9550620044e760608a0162004371565b94506080890135935060a0890135925060c089013562004507816200447e565b91506200446f8a60e08b01620043da565b5f6020828403121562004529575f80fd5b813561ffff811681146200453b575f80fd5b9392505050565b5f6020828403121562004553575f80fd5b5035919050565b5f80604083850312156200456c575f80fd5b82359150602083013562004580816200447e565b809150509250929050565b5f602082840312156200459c575f80fd5b62000aec8262004371565b5f805f805f805f80610100898b031215620045c0575f80fd5b8835620045cd816200447e565b9750620045dd60208a0162004371565b9650620045ed60408a0162004371565b95506060890135620045ff816200447e565b9450608089013562004611816200447e565b935060a089013562004623816200447e565b925060c089013562004635816200447e565b915060e089013562004647816200447e565b809150509295985092959890939650565b5f805f805f8060c087890312156200466e575f80fd5b62004679876200435d565b9550620046896020880162004371565b9450620046996040880162004371565b9350606087013592506080870135915060a087013590509295509295509295565b5f5b83811015620046d6578181015183820152602001620046bc565b50505f910152565b5f8151808452620046f7816020860160208601620046ba565b601f01601f19169290920160200192915050565b602081525f62000aec6020830184620046de565b5f806040838503121562004731575f80fd5b6200473c8362004371565b946020939093013593505050565b6001600160a01b0391909116815260200190565b5f805f806060858703121562004772575f80fd5b84356200477f816200447e565b93506200478f602086016200435d565b925060408501356001600160401b0380821115620047ab575f80fd5b818701915087601f830112620047bf575f80fd5b813581811115620047ce575f80fd5b886020828501011115620047e0575f80fd5b95989497505060200194505050565b5f6020828403121562004800575f80fd5b81356200453b816200447e565b803560ff8116811462002dca575f80fd5b5f805f805f8060c0878903121562004834575f80fd5b863562004841816200447e565b9550602087013562004853816200447e565b9450620048636040880162004371565b9350620048736060880162004371565b9250608087013591506200488a60a088016200480d565b90509295509295509295565b634e487b7160e01b5f52604160045260245ffd5b5f82601f830112620048ba575f80fd5b81356001600160401b0380821115620048d757620048d762004896565b604051601f8301601f19908116603f0116810190828211818310171562004902576200490262004896565b816040528381528660208588010111156200491b575f80fd5b836020870160208301375f602085830101528094505050505092915050565b5f805f805f805f80610100898b03121562004953575f80fd5b6200495e896200435d565b97506200496e60208a0162004371565b9650604089013562004980816200447e565b9550606089013562004992816200447e565b94506080890135620049a4816200447e565b9350620049b460a08a016200435d565b925060c08901356001600160401b0380821115620049d0575f80fd5b620049de8c838d01620048aa565b935060e08b0135915080821115620049f4575f80fd5b5062004a038b828c01620048aa565b9150509295985092959890939650565b5f805f805f8060c0878903121562004a29575f80fd5b863562004a36816200447e565b9550602087013562004a48816200447e565b945062004a586040880162004371565b935062004a68606088016200480d565b92506080870135915060a08701356001600160401b0381111562004a8a575f80fd5b62004a9889828a01620048aa565b9150509295509295509295565b6001600160401b039390931683526020830191909152604082015260600190565b634e487b7160e01b5f52601160045260245ffd5b6001600160401b0381811683821601908082111562004afd5762004afd62004ac6565b5092915050565b80545f90600181811c908083168062004b1e57607f831692505b6020808410820362004b3e57634e487b7160e01b5f52602260045260245ffd5b8388526020880182801562004b5c576001811462004b735762004b9e565b60ff198716825285151560051b8201975062004b9e565b5f898152602090205f5b8781101562004b985781548482015290860190840162004b7d565b83019850505b5050505050505092915050565b6001600160a01b0387811682528616602082015260c0604082018190525f9062004bd89083018762004b04565b828103606084015262004bec818762004b04565b608084019590955250506001600160401b039190911660a090910152949350505050565b808202811582820484141762000aef5762000aef62004ac6565b6001600160401b0382811682821603908082111562004afd5762004afd62004ac6565b5f6001600160401b038281166002600160401b0319810162004c735762004c7362004ac6565b6001019392505050565b5f6020828403121562004c8e575f80fd5b5051919050565b634e487b7160e01b5f52601260045260245ffd5b5f8262004cba5762004cba62004c95565b500490565b8082018082111562000aef5762000aef62004ac6565b634e487b7160e01b5f52603260045260245ffd5b5f6001820162004cfd5762004cfd62004ac6565b5060010190565b5f8262004d155762004d1562004c95565b500690565b8181038181111562000aef5762000aef62004ac6565b918252602082015260400190565b5f8162004d4f5762004d4f62004ac6565b505f190190565b6001600160a01b03841681526040602082018190528101829052818360608301375f818301606090810191909152601f909201601f1916010192915050565b5f63ffffffff80831681810362004c735762004c7362004ac6565b6001600160a01b038481168252831660208201526060604082018190525f9062004ddd90830184620046de565b95945050505050565b6001600160a01b038881168252878116602083015263ffffffff878116604084015290861660608301528416608082015260e060a082018190525f9062004e3090830185620046de565b82810360c084015262004e448185620046de565b9a9950505050505050505050565b6001600160a01b038781168252861660208201526001600160401b038516604082015260ff841660608201526080810183905260c060a082018190525f9062004e9e90830184620046de565b98975050505050505050565b5f825162004ebd818460208701620046ba565b9190910192915050565b6103208101610300808584378201835f5b600181101562004ef957815183526020928301929091019060010162004ed8565b5050509392505050565b5f6020828403121562004f14575f80fd5b815180151581146200453b575f80fd5b5f6001600160401b038381168062004f405762004f4062004c95565b9216919091049291505056fe60a06040526040516108b83803806108b883398101604081905261002291610349565b828161002e8282610056565b50506001600160a01b03821660805261004e61004960805190565b6100b4565b50505061042e565b61005f82610121565b6040516001600160a01b038316907fbc7cd75a20ee27fd9adebab32041f755214dbc6bffa90cc0225b39da2e5c2d3b905f90a28051156100a8576100a3828261019f565b505050565b6100b0610212565b5050565b7f7e644d79422f17c01e4894b5f4f588d331ebfa28653d42ae832dc59e38c9798f6100f35f80516020610898833981519152546001600160a01b031690565b604080516001600160a01b03928316815291841660208301520160405180910390a161011e81610233565b50565b806001600160a01b03163b5f0361015b57604051634c9c8ce360e01b81526001600160a01b03821660048201526024015b60405180910390fd5b807f360894a13ba1a3210667c828492db98dca3e2076cc3735a920a3ca505d382bbc5b80546001600160a01b0319166001600160a01b039290921691909117905550565b60605f80846001600160a01b0316846040516101bb9190610413565b5f60405180830381855af49150503d805f81146101f3576040519150601f19603f3d011682016040523d82523d5f602084013e6101f8565b606091505b509092509050610209858383610270565b95945050505050565b34156102315760405163b398979f60e01b815260040160405180910390fd5b565b6001600160a01b03811661025c57604051633173bdd160e11b81525f6004820152602401610152565b805f8051602061089883398151915261017e565b60608261028557610280826102cf565b6102c8565b815115801561029c57506001600160a01b0384163b155b156102c557604051639996b31560e01b81526001600160a01b0385166004820152602401610152565b50805b9392505050565b8051156102df5780518082602001fd5b604051630a12f52160e11b815260040160405180910390fd5b80516001600160a01b038116811461030e575f80fd5b919050565b634e487b7160e01b5f52604160045260245ffd5b5f5b83811015610341578181015183820152602001610329565b50505f910152565b5f805f6060848603121561035b575f80fd5b610364846102f8565b9250610372602085016102f8565b60408501519092506001600160401b038082111561038e575f80fd5b818601915086601f8301126103a1575f80fd5b8151818111156103b3576103b3610313565b604051601f8201601f19908116603f011681019083821181831017156103db576103db610313565b816040528281528960208487010111156103f3575f80fd5b610404836020830160208801610327565b80955050505050509250925092565b5f8251610424818460208701610327565b9190910192915050565b6080516104536104455f395f601001526104535ff3fe608060405261000c61000e565b005b7f00000000000000000000000000000000000000000000000000000000000000006001600160a01b03163303610069575f356001600160e01b03191663278f794360e11b146100615761005f61006d565b565b61005f61007d565b61005f5b61005f6100786100ab565b6100cf565b5f8061008c36600481846102ba565b81019061009991906102f5565b915091506100a782826100ed565b5050565b5f6100ca5f805160206103fe833981519152546001600160a01b031690565b905090565b365f80375f80365f845af43d5f803e8080156100e9573d5ff35b3d5ffd5b6100f682610147565b6040516001600160a01b038316907fbc7cd75a20ee27fd9adebab32041f755214dbc6bffa90cc0225b39da2e5c2d3b905f90a280511561013f5761013a82826101aa565b505050565b6100a761021c565b806001600160a01b03163b5f0361017c5780604051634c9c8ce360e01b815260040161017391906103bd565b60405180910390fd5b5f805160206103fe83398151915280546001600160a01b0319166001600160a01b0392909216919091179055565b60605f80846001600160a01b0316846040516101c691906103d1565b5f60405180830381855af49150503d805f81146101fe576040519150601f19603f3d011682016040523d82523d5f602084013e610203565b606091505b509150915061021385838361023b565b95945050505050565b341561005f5760405163b398979f60e01b815260040160405180910390fd5b6060826102505761024b82610291565b61028a565b815115801561026757506001600160a01b0384163b155b156102875783604051639996b31560e01b815260040161017391906103bd565b50805b9392505050565b8051156102a15780518082602001fd5b604051630a12f52160e11b815260040160405180910390fd5b5f80858511156102c8575f80fd5b838611156102d4575f80fd5b5050820193919092039150565b634e487b7160e01b5f52604160045260245ffd5b5f8060408385031215610306575f80fd5b82356001600160a01b038116811461031c575f80fd5b915060208301356001600160401b0380821115610337575f80fd5b818501915085601f83011261034a575f80fd5b81358181111561035c5761035c6102e1565b604051601f8201601f19908116603f01168101908382118183101715610384576103846102e1565b8160405282815288602084870101111561039c575f80fd5b826020860160208301375f6020848301015280955050505050509250929050565b6001600160a01b0391909116815260200190565b5f82515f5b818110156103f057602081860181015185830152016103d6565b505f92019182525091905056fe360894a13ba1a3210667c828492db98dca3e2076cc3735a920a3ca505d382bbca2646970667358221220ed34fa57754ee02cddb50941efa15692106b258ce5586c40758a5937940c1a9864736f6c63430008140033b53127684a568b3173ae13b9f8a6016e243e63b6e8ee1178d6a717850b5d610373cb0569fdbea2544dae03fdb2fe10eda92a72a2e8cd2bd496e85b762505a3f066156603fe29d13f97c6f3e3dff4ef71919f9aa61c555be0182d954e94221aac8cf807f6970720f8e2c208c7c5037595982c7bd9ed93c380d09df743d0dcc3fbab66e11c4f712cd06ab11bf9339b48bef39e12d4a22eeef71d2860a0c90482bdac75d24dbb35ea80e25fab167da4dea46c1915260426570db84f184891f5f59062ba6ba2ffed8cfe316b583325ea41ac6e7ba9e5864d2bc6fabba7ac26d2f0f430644e72e131a029b85045b68181585d2833e84879b9709143e1f593f00000013dfe277d2a2c04b75fb2eb3743fa00005ae3678a20c299e65fdf4df76517f68ea5c5790f581d443ed43873ab47cfb8c5d66a6db268e58b5971bb33fc66e07db19b6f082d8d3644ae2f24a3c32e356d6f2d9b2844d9b26164fbc82663ff285951141f8f32ce6198eee741f695cec728bfd32d289f1acf73621fb303581000545ea0fab074aba36a6fa69f1a83ee86e5abfb8433966eb57efb13dc2fc2f24ddd08084e94f375e9d647f87f5b2ceffba1e062c70f6009fdbcf80291e803b5c9edd4a2646970667358221220ba835c664aa1ec5efc320e5c8cd6c9ed245285050f4a1038f85a4b2b8f17dec364736f6c63430008140033",
  "linkReferences": {},
  "deployedLinkReferences": {}
}