{
  "_format": "hh-sol-artifact-1",
  "contractName": "PolygonRollupManagerMock",
  "sourceName": "contracts/v2/mocks/PolygonRollupManagerMock.sol",
  "abi": [
    {
      "inputs": [
        {
          "internalType": "contract IPolygonZkEVMGlobalExitRoot",
          "name": "_globalExitRootManager",
          "type": "address"
        },
        {
          "internalType": "contract IERC20Upgradeable",
          "name": "_pol",
          "type": "address"
        },
        {
          "internalType": "contract IPolygonZkEVMBridge",
          "name": "_bridgeAddress",
          "type": "address"
        }
      ],
      "stateMutability": "nonpayable",
      "type": "constructor"
    },
    {
      "inputs": [],
      "name": "AccessControlOnlyCanRenounceRolesForSelf",
      "type": "error"
    },
    {
      "inputs": [],
      "name": "AddressDoNotHaveRequiredRole",
      "type": "error"
    },
    {
      "inputs": [],
      "name": "AllzkEVMSequencedBatchesMustBeVerified",
      "type": "error"
    },
    {
      "inputs": [],
      "name": "BatchFeeOutOfRange",
      "type": "error"
    },
    {
      "inputs": [],
      "name": "ChainIDAlreadyExist",
      "type": "error"
    },
    {
      "inputs": [],
      "name": "ExceedMaxVerifyBatches",
      "type": "error"
    },
    {
      "inputs": [],
      "name": "FinalNumBatchBelowLastVerifiedBatch",
      "type": "error"
    },
    {
      "inputs": [],
      "name": "FinalNumBatchDoesNotMatchPendingState",
      "type": "error"
    },
    {
      "inputs": [],
      "name": "FinalPendingStateNumInvalid",
      "type": "error"
    },
    {
      "inputs": [],
      "name": "HaltTimeoutNotExpired",
      "type": "error"
    },
    {
      "inputs": [],
      "name": "InitBatchMustMatchCurrentForkID",
      "type": "error"
    },
    {
      "inputs": [],
      "name": "InitNumBatchAboveLastVerifiedBatch",
      "type": "error"
    },
    {
      "inputs": [],
      "name": "InitNumBatchDoesNotMatchPendingState",
      "type": "error"
    },
    {
      "inputs": [],
      "name": "InvalidProof",
      "type": "error"
    },
    {
      "inputs": [],
      "name": "InvalidRangeBatchTimeTarget",
      "type": "error"
    },
    {
      "inputs": [],
      "name": "InvalidRangeMultiplierBatchFee",
      "type": "error"
    },
    {
      "inputs": [],
      "name": "MustSequenceSomeBatch",
      "type": "error"
    },
    {
      "inputs": [],
      "name": "NewAccInputHashDoesNotExist",
      "type": "error"
    },
    {
      "inputs": [],
      "name": "NewPendingStateTimeoutMustBeLower",
      "type": "error"
    },
    {
      "inputs": [],
      "name": "NewStateRootNotInsidePrime",
      "type": "error"
    },
    {
      "inputs": [],
      "name": "NewTrustedAggregatorTimeoutMustBeLower",
      "type": "error"
    },
    {
      "inputs": [],
      "name": "OldAccInputHashDoesNotExist",
      "type": "error"
    },
    {
      "inputs": [],
      "name": "OldStateRootDoesNotExist",
      "type": "error"
    },
    {
      "inputs": [],
      "name": "OnlyEmergencyState",
      "type": "error"
    },
    {
      "inputs": [],
      "name": "OnlyNotEmergencyState",
      "type": "error"
    },
    {
      "inputs": [],
      "name": "PendingStateDoesNotExist",
      "type": "error"
    },
    {
      "inputs": [],
      "name": "PendingStateInvalid",
      "type": "error"
    },
    {
      "inputs": [],
      "name": "PendingStateNotConsolidable",
      "type": "error"
    },
    {
      "inputs": [],
      "name": "RollupMustExist",
      "type": "error"
    },
    {
      "inputs": [],
      "name": "RollupTypeDoesNotExist",
      "type": "error"
    },
    {
      "inputs": [],
      "name": "RollupTypeObsolete",
      "type": "error"
    },
    {
      "inputs": [],
      "name": "SenderMustBeRollup",
      "type": "error"
    },
    {
      "inputs": [],
      "name": "StoredRootMustBeDifferentThanNewRoot",
      "type": "error"
    },
    {
      "inputs": [],
      "name": "TrustedAggregatorTimeoutNotExpired",
      "type": "error"
    },
    {
      "inputs": [],
      "name": "UpdateNotCompatible",
      "type": "error"
    },
    {
      "inputs": [],
      "name": "UpdateToSameRollupTypeID",
      "type": "error"
    },
    {
      "anonymous": false,
      "inputs": [
        {
          "indexed": true,
          "internalType": "uint32",
          "name": "rollupID",
          "type": "uint32"
        },
        {
          "indexed": false,
          "internalType": "uint64",
          "name": "forkID",
          "type": "uint64"
        },
        {
          "indexed": false,
          "internalType": "address",
          "name": "rollupAddress",
          "type": "address"
        },
        {
          "indexed": false,
          "internalType": "uint64",
          "name": "chainID",
          "type": "uint64"
        },
        {
          "indexed": false,
          "internalType": "uint8",
          "name": "rollupCompatibilityID",
          "type": "uint8"
        }
      ],
      "name": "AddExistingRollup",
      "type": "event"
    },
    {
      "anonymous": false,
      "inputs": [
        {
          "indexed": true,
          "internalType": "uint32",
          "name": "rollupTypeID",
          "type": "uint32"
        },
        {
          "indexed": false,
          "internalType": "address",
          "name": "consensusImplementation",
          "type": "address"
        },
        {
          "indexed": false,
          "internalType": "address",
          "name": "verifier",
          "type": "address"
        },
        {
          "indexed": false,
          "internalType": "uint64",
          "name": "forkID",
          "type": "uint64"
        },
        {
          "indexed": false,
          "internalType": "uint8",
          "name": "rollupCompatibilityID",
          "type": "uint8"
        },
        {
          "indexed": false,
          "internalType": "bytes32",
          "name": "genesis",
          "type": "bytes32"
        },
        {
          "indexed": false,
          "internalType": "string",
          "name": "description",
          "type": "string"
        }
      ],
      "name": "AddNewRollupType",
      "type": "event"
    },
    {
      "anonymous": false,
      "inputs": [
        {
          "indexed": true,
          "internalType": "uint32",
          "name": "rollupID",
          "type": "uint32"
        },
        {
          "indexed": false,
          "internalType": "uint64",
          "name": "numBatch",
          "type": "uint64"
        },
        {
          "indexed": false,
          "internalType": "bytes32",
          "name": "stateRoot",
          "type": "bytes32"
        },
        {
          "indexed": false,
          "internalType": "bytes32",
          "name": "exitRoot",
          "type": "bytes32"
        },
        {
          "indexed": false,
          "internalType": "uint64",
          "name": "pendingStateNum",
          "type": "uint64"
        }
      ],
      "name": "ConsolidatePendingState",
      "type": "event"
    },
    {
      "anonymous": false,
      "inputs": [
        {
          "indexed": true,
          "internalType": "uint32",
          "name": "rollupID",
          "type": "uint32"
        },
        {
          "indexed": false,
          "internalType": "uint32",
          "name": "rollupTypeID",
          "type": "uint32"
        },
        {
          "indexed": false,
          "internalType": "address",
          "name": "rollupAddress",
          "type": "address"
        },
        {
          "indexed": false,
          "internalType": "uint64",
          "name": "chainID",
          "type": "uint64"
        },
        {
          "indexed": false,
          "internalType": "address",
          "name": "gasTokenAddress",
          "type": "address"
        }
      ],
      "name": "CreateNewRollup",
      "type": "event"
    },
    {
      "anonymous": false,
      "inputs": [],
      "name": "EmergencyStateActivated",
      "type": "event"
    },
    {
      "anonymous": false,
      "inputs": [],
      "name": "EmergencyStateDeactivated",
      "type": "event"
    },
    {
      "anonymous": false,
      "inputs": [
        {
          "indexed": false,
          "internalType": "uint8",
          "name": "version",
          "type": "uint8"
        }
      ],
      "name": "Initialized",
      "type": "event"
    },
    {
      "anonymous": false,
      "inputs": [
        {
          "indexed": true,
          "internalType": "uint32",
          "name": "rollupTypeID",
          "type": "uint32"
        }
      ],
      "name": "ObsoleteRollupType",
      "type": "event"
    },
    {
      "anonymous": false,
      "inputs": [
        {
          "indexed": true,
          "internalType": "uint32",
          "name": "rollupID",
          "type": "uint32"
        },
        {
          "indexed": false,
          "internalType": "uint64",
          "name": "lastBatchSequenced",
          "type": "uint64"
        }
      ],
      "name": "OnSequenceBatches",
      "type": "event"
    },
    {
      "anonymous": false,
      "inputs": [
        {
          "indexed": true,
          "internalType": "uint32",
          "name": "rollupID",
          "type": "uint32"
        },
        {
          "indexed": false,
          "internalType": "uint64",
          "name": "numBatch",
          "type": "uint64"
        },
        {
          "indexed": false,
          "internalType": "bytes32",
          "name": "stateRoot",
          "type": "bytes32"
        },
        {
          "indexed": false,
          "internalType": "bytes32",
          "name": "exitRoot",
          "type": "bytes32"
        },
        {
          "indexed": false,
          "internalType": "address",
          "name": "aggregator",
          "type": "address"
        }
      ],
      "name": "OverridePendingState",
      "type": "event"
    },
    {
      "anonymous": false,
      "inputs": [
        {
          "indexed": false,
          "internalType": "bytes32",
          "name": "storedStateRoot",
          "type": "bytes32"
        },
        {
          "indexed": false,
          "internalType": "bytes32",
          "name": "provedStateRoot",
          "type": "bytes32"
        }
      ],
      "name": "ProveNonDeterministicPendingState",
      "type": "event"
    },
    {
      "anonymous": false,
      "inputs": [
        {
          "indexed": true,
          "internalType": "bytes32",
          "name": "role",
          "type": "bytes32"
        },
        {
          "indexed": true,
          "internalType": "bytes32",
          "name": "previousAdminRole",
          "type": "bytes32"
        },
        {
          "indexed": true,
          "internalType": "bytes32",
          "name": "newAdminRole",
          "type": "bytes32"
        }
      ],
      "name": "RoleAdminChanged",
      "type": "event"
    },
    {
      "anonymous": false,
      "inputs": [
        {
          "indexed": true,
          "internalType": "bytes32",
          "name": "role",
          "type": "bytes32"
        },
        {
          "indexed": true,
          "internalType": "address",
          "name": "account",
          "type": "address"
        },
        {
          "indexed": true,
          "internalType": "address",
          "name": "sender",
          "type": "address"
        }
      ],
      "name": "RoleGranted",
      "type": "event"
    },
    {
      "anonymous": false,
      "inputs": [
        {
          "indexed": true,
          "internalType": "bytes32",
          "name": "role",
          "type": "bytes32"
        },
        {
          "indexed": true,
          "internalType": "address",
          "name": "account",
          "type": "address"
        },
        {
          "indexed": true,
          "internalType": "address",
          "name": "sender",
          "type": "address"
        }
      ],
      "name": "RoleRevoked",
      "type": "event"
    },
    {
      "anonymous": false,
      "inputs": [
        {
          "indexed": false,
          "internalType": "uint256",
          "name": "newBatchFee",
          "type": "uint256"
        }
      ],
      "name": "SetBatchFee",
      "type": "event"
    },
    {
      "anonymous": false,
      "inputs": [
        {
          "indexed": false,
          "internalType": "uint16",
          "name": "newMultiplierBatchFee",
          "type": "uint16"
        }
      ],
      "name": "SetMultiplierBatchFee",
      "type": "event"
    },
    {
      "anonymous": false,
      "inputs": [
        {
          "indexed": false,
          "internalType": "uint64",
          "name": "newPendingStateTimeout",
          "type": "uint64"
        }
      ],
      "name": "SetPendingStateTimeout",
      "type": "event"
    },
    {
      "anonymous": false,
      "inputs": [
        {
          "indexed": false,
          "internalType": "address",
          "name": "newTrustedAggregator",
          "type": "address"
        }
      ],
      "name": "SetTrustedAggregator",
      "type": "event"
    },
    {
      "anonymous": false,
      "inputs": [
        {
          "indexed": false,
          "internalType": "uint64",
          "name": "newTrustedAggregatorTimeout",
          "type": "uint64"
        }
      ],
      "name": "SetTrustedAggregatorTimeout",
      "type": "event"
    },
    {
      "anonymous": false,
      "inputs": [
        {
          "indexed": false,
          "internalType": "uint64",
          "name": "newVerifyBatchTimeTarget",
          "type": "uint64"
        }
      ],
      "name": "SetVerifyBatchTimeTarget",
      "type": "event"
    },
    {
      "anonymous": false,
      "inputs": [
        {
          "indexed": true,
          "internalType": "uint32",
          "name": "rollupID",
          "type": "uint32"
        },
        {
          "indexed": false,
          "internalType": "uint32",
          "name": "newRollupTypeID",
          "type": "uint32"
        },
        {
          "indexed": false,
          "internalType": "uint64",
          "name": "lastVerifiedBatchBeforeUpgrade",
          "type": "uint64"
        }
      ],
      "name": "UpdateRollup",
      "type": "event"
    },
    {
      "anonymous": false,
      "inputs": [
        {
          "indexed": true,
          "internalType": "uint32",
          "name": "rollupID",
          "type": "uint32"
        },
        {
          "indexed": false,
          "internalType": "uint64",
          "name": "numBatch",
          "type": "uint64"
        },
        {
          "indexed": false,
          "internalType": "bytes32",
          "name": "stateRoot",
          "type": "bytes32"
        },
        {
          "indexed": false,
          "internalType": "bytes32",
          "name": "exitRoot",
          "type": "bytes32"
        },
        {
          "indexed": true,
          "internalType": "address",
          "name": "aggregator",
          "type": "address"
        }
      ],
      "name": "VerifyBatches",
      "type": "event"
    },
    {
      "anonymous": false,
      "inputs": [
        {
          "indexed": true,
          "internalType": "uint32",
          "name": "rollupID",
          "type": "uint32"
        },
        {
          "indexed": false,
          "internalType": "uint64",
          "name": "numBatch",
          "type": "uint64"
        },
        {
          "indexed": false,
          "internalType": "bytes32",
          "name": "stateRoot",
          "type": "bytes32"
        },
        {
          "indexed": false,
          "internalType": "bytes32",
          "name": "exitRoot",
          "type": "bytes32"
        },
        {
          "indexed": true,
          "internalType": "address",
          "name": "aggregator",
          "type": "address"
        }
      ],
      "name": "VerifyBatchesTrustedAggregator",
      "type": "event"
    },
    {
      "inputs": [],
      "name": "DEFAULT_ADMIN_ROLE",
      "outputs": [
        {
          "internalType": "bytes32",
          "name": "",
          "type": "bytes32"
        }
      ],
      "stateMutability": "view",
      "type": "function"
    },
    {
      "inputs": [],
      "name": "activateEmergencyState",
      "outputs": [],
      "stateMutability": "nonpayable",
      "type": "function"
    },
    {
      "inputs": [
        {
          "internalType": "contract IPolygonRollupBase",
          "name": "rollupAddress",
          "type": "address"
        },
        {
          "internalType": "contract IVerifierRollup",
          "name": "verifier",
          "type": "address"
        },
        {
          "internalType": "uint64",
          "name": "forkID",
          "type": "uint64"
        },
        {
          "internalType": "uint64",
          "name": "chainID",
          "type": "uint64"
        },
        {
          "internalType": "bytes32",
          "name": "genesis",
          "type": "bytes32"
        },
        {
          "internalType": "uint8",
          "name": "rollupCompatibilityID",
          "type": "uint8"
        }
      ],
      "name": "addExistingRollup",
      "outputs": [],
      "stateMutability": "nonpayable",
      "type": "function"
    },
    {
      "inputs": [
        {
          "internalType": "address",
          "name": "consensusImplementation",
          "type": "address"
        },
        {
          "internalType": "contract IVerifierRollup",
          "name": "verifier",
          "type": "address"
        },
        {
          "internalType": "uint64",
          "name": "forkID",
          "type": "uint64"
        },
        {
          "internalType": "uint8",
          "name": "rollupCompatibilityID",
          "type": "uint8"
        },
        {
          "internalType": "bytes32",
          "name": "genesis",
          "type": "bytes32"
        },
        {
          "internalType": "string",
          "name": "description",
          "type": "string"
        }
      ],
      "name": "addNewRollupType",
      "outputs": [],
      "stateMutability": "nonpayable",
      "type": "function"
    },
    {
      "inputs": [],
      "name": "bridgeAddress",
      "outputs": [
        {
          "internalType": "contract IPolygonZkEVMBridge",
          "name": "",
          "type": "address"
        }
      ],
      "stateMutability": "view",
      "type": "function"
    },
    {
      "inputs": [],
      "name": "calculateRewardPerBatch",
      "outputs": [
        {
          "internalType": "uint256",
          "name": "",
          "type": "uint256"
        }
      ],
      "stateMutability": "view",
      "type": "function"
    },
    {
      "inputs": [
        {
          "internalType": "uint64",
          "name": "chainID",
          "type": "uint64"
        }
      ],
      "name": "chainIDToRollupID",
      "outputs": [
        {
          "internalType": "uint32",
          "name": "rollupID",
          "type": "uint32"
        }
      ],
      "stateMutability": "view",
      "type": "function"
    },
    {
      "inputs": [
        {
          "internalType": "uint32",
          "name": "rollupID",
          "type": "uint32"
        },
        {
          "internalType": "uint64",
          "name": "pendingStateNum",
          "type": "uint64"
        }
      ],
      "name": "consolidatePendingState",
      "outputs": [],
      "stateMutability": "nonpayable",
      "type": "function"
    },
    {
      "inputs": [
        {
          "internalType": "uint32",
          "name": "rollupTypeID",
          "type": "uint32"
        },
        {
          "internalType": "uint64",
          "name": "chainID",
          "type": "uint64"
        },
        {
          "internalType": "address",
          "name": "admin",
          "type": "address"
        },
        {
          "internalType": "address",
          "name": "sequencer",
          "type": "address"
        },
        {
          "internalType": "address",
          "name": "gasTokenAddress",
          "type": "address"
        },
        {
          "internalType": "string",
          "name": "sequencerURL",
          "type": "string"
        },
        {
          "internalType": "string",
          "name": "networkName",
          "type": "string"
        }
      ],
      "name": "createNewRollup",
      "outputs": [],
      "stateMutability": "nonpayable",
      "type": "function"
    },
    {
      "inputs": [],
      "name": "deactivateEmergencyState",
      "outputs": [],
      "stateMutability": "nonpayable",
      "type": "function"
    },
    {
      "inputs": [],
      "name": "getBatchFee",
      "outputs": [
        {
          "internalType": "uint256",
          "name": "",
          "type": "uint256"
        }
      ],
      "stateMutability": "view",
      "type": "function"
    },
    {
      "inputs": [],
      "name": "getForcedBatchFee",
      "outputs": [
        {
          "internalType": "uint256",
          "name": "",
          "type": "uint256"
        }
      ],
      "stateMutability": "view",
      "type": "function"
    },
    {
      "inputs": [
        {
          "internalType": "uint32",
          "name": "rollupID",
          "type": "uint32"
        },
        {
          "internalType": "uint64",
          "name": "initNumBatch",
          "type": "uint64"
        },
        {
          "internalType": "uint64",
          "name": "finalNewBatch",
          "type": "uint64"
        },
        {
          "internalType": "bytes32",
          "name": "newLocalExitRoot",
          "type": "bytes32"
        },
        {
          "internalType": "bytes32",
          "name": "oldStateRoot",
          "type": "bytes32"
        },
        {
          "internalType": "bytes32",
          "name": "newStateRoot",
          "type": "bytes32"
        }
      ],
      "name": "getInputSnarkBytes",
      "outputs": [
        {
          "internalType": "bytes",
          "name": "",
          "type": "bytes"
        }
      ],
      "stateMutability": "view",
      "type": "function"
    },
    {
      "inputs": [
        {
          "internalType": "uint32",
          "name": "rollupID",
          "type": "uint32"
        }
      ],
      "name": "getLastVerifiedBatch",
      "outputs": [
        {
          "internalType": "uint64",
          "name": "",
          "type": "uint64"
        }
      ],
      "stateMutability": "view",
      "type": "function"
    },
    {
      "inputs": [
        {
          "internalType": "bytes32",
          "name": "role",
          "type": "bytes32"
        }
      ],
      "name": "getRoleAdmin",
      "outputs": [
        {
          "internalType": "bytes32",
          "name": "",
          "type": "bytes32"
        }
      ],
      "stateMutability": "view",
      "type": "function"
    },
    {
      "inputs": [
        {
          "internalType": "uint32",
          "name": "rollupID",
          "type": "uint32"
        },
        {
          "internalType": "uint64",
          "name": "batchNum",
          "type": "uint64"
        }
      ],
      "name": "getRollupBatchNumToStateRoot",
      "outputs": [
        {
          "internalType": "bytes32",
          "name": "",
          "type": "bytes32"
        }
      ],
      "stateMutability": "view",
      "type": "function"
    },
    {
      "inputs": [],
      "name": "getRollupExitRoot",
      "outputs": [
        {
          "internalType": "bytes32",
          "name": "",
          "type": "bytes32"
        }
      ],
      "stateMutability": "view",
      "type": "function"
    },
    {
      "inputs": [
        {
          "internalType": "uint32",
          "name": "rollupID",
          "type": "uint32"
        },
        {
          "internalType": "uint64",
          "name": "batchNum",
          "type": "uint64"
        }
      ],
      "name": "getRollupPendingStateTransitions",
      "outputs": [
        {
          "components": [
            {
              "internalType": "uint64",
              "name": "timestamp",
              "type": "uint64"
            },
            {
              "internalType": "uint64",
              "name": "lastVerifiedBatch",
              "type": "uint64"
            },
            {
              "internalType": "bytes32",
              "name": "exitRoot",
              "type": "bytes32"
            },
            {
              "internalType": "bytes32",
              "name": "stateRoot",
              "type": "bytes32"
            }
          ],
          "internalType": "struct LegacyZKEVMStateVariables.PendingState",
          "name": "",
          "type": "tuple"
        }
      ],
      "stateMutability": "view",
      "type": "function"
    },
    {
      "inputs": [
        {
          "internalType": "uint32",
          "name": "rollupID",
          "type": "uint32"
        },
        {
          "internalType": "uint64",
          "name": "batchNum",
          "type": "uint64"
        }
      ],
      "name": "getRollupSequencedBatches",
      "outputs": [
        {
          "components": [
            {
              "internalType": "bytes32",
              "name": "accInputHash",
              "type": "bytes32"
            },
            {
              "internalType": "uint64",
              "name": "sequencedTimestamp",
              "type": "uint64"
            },
            {
              "internalType": "uint64",
              "name": "previousLastBatchSequenced",
              "type": "uint64"
            }
          ],
          "internalType": "struct LegacyZKEVMStateVariables.SequencedBatchData",
          "name": "",
          "type": "tuple"
        }
      ],
      "stateMutability": "view",
      "type": "function"
    },
    {
      "inputs": [],
      "name": "globalExitRootManager",
      "outputs": [
        {
          "internalType": "contract IPolygonZkEVMGlobalExitRoot",
          "name": "",
          "type": "address"
        }
      ],
      "stateMutability": "view",
      "type": "function"
    },
    {
      "inputs": [
        {
          "internalType": "bytes32",
          "name": "role",
          "type": "bytes32"
        },
        {
          "internalType": "address",
          "name": "account",
          "type": "address"
        }
      ],
      "name": "grantRole",
      "outputs": [],
      "stateMutability": "nonpayable",
      "type": "function"
    },
    {
      "inputs": [
        {
          "internalType": "bytes32",
          "name": "role",
          "type": "bytes32"
        },
        {
          "internalType": "address",
          "name": "account",
          "type": "address"
        }
      ],
      "name": "hasRole",
      "outputs": [
        {
          "internalType": "bool",
          "name": "",
          "type": "bool"
        }
      ],
      "stateMutability": "view",
      "type": "function"
    },
    {
      "inputs": [
        {
          "internalType": "address",
          "name": "trustedAggregator",
          "type": "address"
        },
        {
          "internalType": "uint64",
          "name": "_pendingStateTimeout",
          "type": "uint64"
        },
        {
          "internalType": "uint64",
          "name": "_trustedAggregatorTimeout",
          "type": "uint64"
        },
        {
          "internalType": "address",
          "name": "admin",
          "type": "address"
        },
        {
          "internalType": "address",
          "name": "timelock",
          "type": "address"
        },
        {
          "internalType": "address",
          "name": "emergencyCouncil",
          "type": "address"
        },
        {
          "internalType": "contract PolygonZkEVMV2Existent",
          "name": "polygonZkEVM",
          "type": "address"
        },
        {
          "internalType": "contract IVerifierRollup",
          "name": "zkEVMVerifier",
          "type": "address"
        }
      ],
      "name": "initialize",
      "outputs": [],
      "stateMutability": "nonpayable",
      "type": "function"
    },
    {
      "inputs": [
        {
          "internalType": "address",
          "name": "trustedAggregator",
          "type": "address"
        },
        {
          "internalType": "uint64",
          "name": "_pendingStateTimeout",
          "type": "uint64"
        },
        {
          "internalType": "uint64",
          "name": "_trustedAggregatorTimeout",
          "type": "uint64"
        },
        {
          "internalType": "address",
          "name": "admin",
          "type": "address"
        },
        {
          "internalType": "address",
          "name": "timelock",
          "type": "address"
        },
        {
          "internalType": "address",
          "name": "emergencyCouncil",
          "type": "address"
        }
      ],
      "name": "initializeMock",
      "outputs": [],
      "stateMutability": "nonpayable",
      "type": "function"
    },
    {
      "inputs": [],
      "name": "isEmergencyState",
      "outputs": [
        {
          "internalType": "bool",
          "name": "",
          "type": "bool"
        }
      ],
      "stateMutability": "view",
      "type": "function"
    },
    {
      "inputs": [
        {
          "internalType": "uint32",
          "name": "rollupID",
          "type": "uint32"
        },
        {
          "internalType": "uint64",
          "name": "pendingStateNum",
          "type": "uint64"
        }
      ],
      "name": "isPendingStateConsolidable",
      "outputs": [
        {
          "internalType": "bool",
          "name": "",
          "type": "bool"
        }
      ],
      "stateMutability": "view",
      "type": "function"
    },
    {
      "inputs": [],
      "name": "lastAggregationTimestamp",
      "outputs": [
        {
          "internalType": "uint64",
          "name": "",
          "type": "uint64"
        }
      ],
      "stateMutability": "view",
      "type": "function"
    },
    {
      "inputs": [],
      "name": "multiplierBatchFee",
      "outputs": [
        {
          "internalType": "uint16",
          "name": "",
          "type": "uint16"
        }
      ],
      "stateMutability": "view",
      "type": "function"
    },
    {
      "inputs": [
        {
          "internalType": "uint32",
          "name": "rollupTypeID",
          "type": "uint32"
        }
      ],
      "name": "obsoleteRollupType",
      "outputs": [],
      "stateMutability": "nonpayable",
      "type": "function"
    },
    {
      "inputs": [
        {
          "internalType": "uint64",
          "name": "newSequencedBatches",
          "type": "uint64"
        },
        {
          "internalType": "bytes32",
          "name": "newAccInputHash",
          "type": "bytes32"
        }
      ],
      "name": "onSequenceBatches",
      "outputs": [
        {
          "internalType": "uint64",
          "name": "",
          "type": "uint64"
        }
      ],
      "stateMutability": "nonpayable",
      "type": "function"
    },
    {
      "inputs": [
        {
          "internalType": "uint32",
          "name": "rollupID",
          "type": "uint32"
        },
        {
          "internalType": "uint64",
          "name": "initPendingStateNum",
          "type": "uint64"
        },
        {
          "internalType": "uint64",
          "name": "finalPendingStateNum",
          "type": "uint64"
        },
        {
          "internalType": "uint64",
          "name": "initNumBatch",
          "type": "uint64"
        },
        {
          "internalType": "uint64",
          "name": "finalNewBatch",
          "type": "uint64"
        },
        {
          "internalType": "bytes32",
          "name": "newLocalExitRoot",
          "type": "bytes32"
        },
        {
          "internalType": "bytes32",
          "name": "newStateRoot",
          "type": "bytes32"
        },
        {
          "internalType": "bytes32[24]",
          "name": "proof",
          "type": "bytes32[24]"
        }
      ],
      "name": "overridePendingState",
      "outputs": [],
      "stateMutability": "nonpayable",
      "type": "function"
    },
    {
      "inputs": [],
      "name": "pendingStateTimeout",
      "outputs": [
        {
          "internalType": "uint64",
          "name": "",
          "type": "uint64"
        }
      ],
      "stateMutability": "view",
      "type": "function"
    },
    {
      "inputs": [],
      "name": "pol",
      "outputs": [
        {
          "internalType": "contract IERC20Upgradeable",
          "name": "",
          "type": "address"
        }
      ],
      "stateMutability": "view",
      "type": "function"
    },
    {
      "inputs": [
        {
          "internalType": "bytes32[]",
          "name": "localExitRoots",
          "type": "bytes32[]"
        }
      ],
      "name": "prepareMockCalculateRoot",
      "outputs": [],
      "stateMutability": "nonpayable",
      "type": "function"
    },
    {
      "inputs": [
        {
          "internalType": "uint32",
          "name": "rollupID",
          "type": "uint32"
        },
        {
          "internalType": "uint64",
          "name": "initPendingStateNum",
          "type": "uint64"
        },
        {
          "internalType": "uint64",
          "name": "finalPendingStateNum",
          "type": "uint64"
        },
        {
          "internalType": "uint64",
          "name": "initNumBatch",
          "type": "uint64"
        },
        {
          "internalType": "uint64",
          "name": "finalNewBatch",
          "type": "uint64"
        },
        {
          "internalType": "bytes32",
          "name": "newLocalExitRoot",
          "type": "bytes32"
        },
        {
          "internalType": "bytes32",
          "name": "newStateRoot",
          "type": "bytes32"
        },
        {
          "internalType": "bytes32[24]",
          "name": "proof",
          "type": "bytes32[24]"
        }
      ],
      "name": "proveNonDeterministicPendingState",
      "outputs": [],
      "stateMutability": "nonpayable",
      "type": "function"
    },
    {
      "inputs": [
        {
          "internalType": "bytes32",
          "name": "role",
          "type": "bytes32"
        },
        {
          "internalType": "address",
          "name": "account",
          "type": "address"
        }
      ],
      "name": "renounceRole",
      "outputs": [],
      "stateMutability": "nonpayable",
      "type": "function"
    },
    {
      "inputs": [
        {
          "internalType": "bytes32",
          "name": "role",
          "type": "bytes32"
        },
        {
          "internalType": "address",
          "name": "account",
          "type": "address"
        }
      ],
      "name": "revokeRole",
      "outputs": [],
      "stateMutability": "nonpayable",
      "type": "function"
    },
    {
      "inputs": [
        {
          "internalType": "address",
          "name": "rollupAddress",
          "type": "address"
        }
      ],
      "name": "rollupAddressToID",
      "outputs": [
        {
          "internalType": "uint32",
          "name": "rollupID",
          "type": "uint32"
        }
      ],
      "stateMutability": "view",
      "type": "function"
    },
    {
      "inputs": [],
      "name": "rollupCount",
      "outputs": [
        {
          "internalType": "uint32",
          "name": "",
          "type": "uint32"
        }
      ],
      "stateMutability": "view",
      "type": "function"
    },
    {
      "inputs": [
        {
          "internalType": "uint32",
          "name": "rollupID",
          "type": "uint32"
        }
      ],
      "name": "rollupIDToRollupData",
      "outputs": [
        {
          "internalType": "contract IPolygonRollupBase",
          "name": "rollupContract",
          "type": "address"
        },
        {
          "internalType": "uint64",
          "name": "chainID",
          "type": "uint64"
        },
        {
          "internalType": "contract IVerifierRollup",
          "name": "verifier",
          "type": "address"
        },
        {
          "internalType": "uint64",
          "name": "forkID",
          "type": "uint64"
        },
        {
          "internalType": "bytes32",
          "name": "lastLocalExitRoot",
          "type": "bytes32"
        },
        {
          "internalType": "uint64",
          "name": "lastBatchSequenced",
          "type": "uint64"
        },
        {
          "internalType": "uint64",
          "name": "lastVerifiedBatch",
          "type": "uint64"
        },
        {
          "internalType": "uint64",
          "name": "lastPendingState",
          "type": "uint64"
        },
        {
          "internalType": "uint64",
          "name": "lastPendingStateConsolidated",
          "type": "uint64"
        },
        {
          "internalType": "uint64",
          "name": "lastVerifiedBatchBeforeUpgrade",
          "type": "uint64"
        },
        {
          "internalType": "uint64",
          "name": "rollupTypeID",
          "type": "uint64"
        },
        {
          "internalType": "uint8",
          "name": "rollupCompatibilityID",
          "type": "uint8"
        }
      ],
      "stateMutability": "view",
      "type": "function"
    },
    {
      "inputs": [],
      "name": "rollupTypeCount",
      "outputs": [
        {
          "internalType": "uint32",
          "name": "",
          "type": "uint32"
        }
      ],
      "stateMutability": "view",
      "type": "function"
    },
    {
      "inputs": [
        {
          "internalType": "uint32",
          "name": "rollupTypeID",
          "type": "uint32"
        }
      ],
      "name": "rollupTypeMap",
      "outputs": [
        {
          "internalType": "address",
          "name": "consensusImplementation",
          "type": "address"
        },
        {
          "internalType": "contract IVerifierRollup",
          "name": "verifier",
          "type": "address"
        },
        {
          "internalType": "uint64",
          "name": "forkID",
          "type": "uint64"
        },
        {
          "internalType": "uint8",
          "name": "rollupCompatibilityID",
          "type": "uint8"
        },
        {
          "internalType": "bool",
          "name": "obsolete",
          "type": "bool"
        },
        {
          "internalType": "bytes32",
          "name": "genesis",
          "type": "bytes32"
        }
      ],
      "stateMutability": "view",
      "type": "function"
    },
    {
      "inputs": [
        {
          "internalType": "uint256",
          "name": "newBatchFee",
          "type": "uint256"
        }
      ],
      "name": "setBatchFee",
      "outputs": [],
      "stateMutability": "nonpayable",
      "type": "function"
    },
    {
      "inputs": [
        {
          "internalType": "uint16",
          "name": "newMultiplierBatchFee",
          "type": "uint16"
        }
      ],
      "name": "setMultiplierBatchFee",
      "outputs": [],
      "stateMutability": "nonpayable",
      "type": "function"
    },
    {
      "inputs": [
        {
          "internalType": "uint64",
          "name": "newPendingStateTimeout",
          "type": "uint64"
        }
      ],
      "name": "setPendingStateTimeout",
      "outputs": [],
      "stateMutability": "nonpayable",
      "type": "function"
    },
    {
      "inputs": [
        {
          "internalType": "uint64",
          "name": "newTrustedAggregatorTimeout",
          "type": "uint64"
        }
      ],
      "name": "setTrustedAggregatorTimeout",
      "outputs": [],
      "stateMutability": "nonpayable",
      "type": "function"
    },
    {
      "inputs": [
        {
          "internalType": "uint64",
          "name": "newVerifyBatchTimeTarget",
          "type": "uint64"
        }
      ],
      "name": "setVerifyBatchTimeTarget",
      "outputs": [],
      "stateMutability": "nonpayable",
      "type": "function"
    },
    {
      "inputs": [],
      "name": "totalSequencedBatches",
      "outputs": [
        {
          "internalType": "uint64",
          "name": "",
          "type": "uint64"
        }
      ],
      "stateMutability": "view",
      "type": "function"
    },
    {
      "inputs": [],
      "name": "totalVerifiedBatches",
      "outputs": [
        {
          "internalType": "uint64",
          "name": "",
          "type": "uint64"
        }
      ],
      "stateMutability": "view",
      "type": "function"
    },
    {
      "inputs": [],
      "name": "trustedAggregatorTimeout",
      "outputs": [
        {
          "internalType": "uint64",
          "name": "",
          "type": "uint64"
        }
      ],
      "stateMutability": "view",
      "type": "function"
    },
    {
      "inputs": [
        {
          "internalType": "contract ITransparentUpgradeableProxy",
          "name": "rollupContract",
          "type": "address"
        },
        {
          "internalType": "uint32",
          "name": "newRollupTypeID",
          "type": "uint32"
        },
        {
          "internalType": "bytes",
          "name": "upgradeData",
          "type": "bytes"
        }
      ],
      "name": "updateRollup",
      "outputs": [],
      "stateMutability": "nonpayable",
      "type": "function"
    },
    {
      "inputs": [],
      "name": "verifyBatchTimeTarget",
      "outputs": [
        {
          "internalType": "uint64",
          "name": "",
          "type": "uint64"
        }
      ],
      "stateMutability": "view",
      "type": "function"
    },
    {
      "inputs": [
        {
          "internalType": "uint32",
          "name": "rollupID",
          "type": "uint32"
        },
        {
          "internalType": "uint64",
          "name": "pendingStateNum",
          "type": "uint64"
        },
        {
          "internalType": "uint64",
          "name": "initNumBatch",
          "type": "uint64"
        },
        {
          "internalType": "uint64",
          "name": "finalNewBatch",
          "type": "uint64"
        },
        {
          "internalType": "bytes32",
          "name": "newLocalExitRoot",
          "type": "bytes32"
        },
        {
          "internalType": "bytes32",
          "name": "newStateRoot",
          "type": "bytes32"
        },
        {
          "internalType": "address",
          "name": "beneficiary",
          "type": "address"
        },
        {
          "internalType": "bytes32[24]",
          "name": "proof",
          "type": "bytes32[24]"
        }
      ],
      "name": "verifyBatches",
      "outputs": [],
      "stateMutability": "nonpayable",
      "type": "function"
    },
    {
      "inputs": [
        {
          "internalType": "uint32",
          "name": "rollupID",
          "type": "uint32"
        },
        {
          "internalType": "uint64",
          "name": "pendingStateNum",
          "type": "uint64"
        },
        {
          "internalType": "uint64",
          "name": "initNumBatch",
          "type": "uint64"
        },
        {
          "internalType": "uint64",
          "name": "finalNewBatch",
          "type": "uint64"
        },
        {
          "internalType": "bytes32",
          "name": "newLocalExitRoot",
          "type": "bytes32"
        },
        {
          "internalType": "bytes32",
          "name": "newStateRoot",
          "type": "bytes32"
        },
        {
          "internalType": "address",
          "name": "beneficiary",
          "type": "address"
        },
        {
          "internalType": "bytes32[24]",
          "name": "proof",
          "type": "bytes32[24]"
        }
      ],
      "name": "verifyBatchesTrustedAggregator",
      "outputs": [],
      "stateMutability": "nonpayable",
      "type": "function"
    }
  ],
  "bytecode": "0x60e06040523480156200001157600080fd5b50604051620061a5380380620061a583398101604081905262000034916200006b565b6001600160a01b0392831660805290821660c0521660a052620000bf565b6001600160a01b03811681146200006857600080fd5b50565b6000806000606084860312156200008157600080fd5b83516200008e8162000052565b6020850151909350620000a18162000052565b6040850151909250620000b48162000052565b809150509250925092565b60805160a05160c05161607e62000127600039600081816109bc015281816122ba015261390a01526000818161078201528181612e090152613c0401526000818161091601528181610eca0152818161107a01528181611f9a0152613af3015261607e6000f3fe60806040523480156200001157600080fd5b5060043610620002aa5760003560e01c8063066ec01214620002af578063080b311114620002db5780630a0d9fbe14620003035780630e36f582146200031e57806311f6b287146200033757806312b86e19146200034e5780631489ed10146200036557806315064c96146200037c5780631608859c146200038a5780631796a1ae14620003a15780631816b7e514620003c85780632072f6c514620003df578063248a9ca314620003e957806325280169146200040f5780632f2ff15d14620004c457806336568abe14620004db578063394218e914620004f2578063477fa27014620005095780634d4d3338146200051257806355a71ee0146200052957806360469169146200056d57806365c0504d14620005775780637222020f1462000626578063727885e9146200063d5780637975fcfe14620006545780637fb6e76a146200067a578063841b24d714620006a357806387c20c0114620006be5780638bd4f07114620006d55780638f698ec514620006ec57806391d14854146200070357806399f5634e146200071a5780639a908e7314620007245780639c9f3dfe146200073b578063a066215c1462000752578063a217fddf1462000769578063a2967d991462000772578063a3c573eb146200077c578063afd23cbe14620007b3578063b99d0ad714620007dd578063c1acbc3414620008b5578063c4c928c214620008d0578063ceee281d14620008e7578063d02103ca1462000910578063d5073f6f1462000938578063d547741f146200094f578063d939b3151462000966578063dbc16976146200097a578063dde0ff771462000984578063e0bfd3d2146200099f578063e46761c414620009b6578063f34eb8eb14620009de578063f4e9267514620009f5578063f9c4c2ae1462000a06575b600080fd5b608454620002c3906001600160401b031681565b604051620002d29190620047b2565b60405180910390f35b620002f2620002ec366004620047f3565b62000b1d565b6040519015158152602001620002d2565b608554620002c390600160401b90046001600160401b031681565b620003356200032f36600462004841565b62000b47565b005b620002c362000348366004620048cc565b62000dfe565b620003356200035f366004620048fd565b62000e1e565b620003356200037636600462004994565b62000fce565b606f54620002f29060ff1681565b620003356200039b366004620047f3565b6200115e565b607e54620003b29063ffffffff1681565b60405163ffffffff9091168152602001620002d2565b62000335620003d936600462004a1e565b620011f3565b620003356200129f565b62000400620003fa36600462004a4b565b62001335565b604051908152602001620002d2565b6200049062000420366004620047f3565b60408051606080820183526000808352602080840182905292840181905263ffffffff959095168552608182528285206001600160401b03948516865260030182529382902082519485018352805485526001015480841691850191909152600160401b90049091169082015290565b60408051825181526020808401516001600160401b03908116918301919091529282015190921690820152606001620002d2565b62000335620004d536600462004a65565b6200134a565b62000335620004ec36600462004a65565b6200136c565b620003356200050336600462004a98565b620013a6565b60865462000400565b620003356200052336600462004ab6565b62001455565b620004006200053a366004620047f3565b63ffffffff821660009081526081602090815260408083206001600160401b038516845260020190915290205492915050565b620004006200188b565b620005dc62000588366004620048cc565b607f602052600090815260409020805460018201546002909201546001600160a01b0391821692918216916001600160401b03600160a01b8204169160ff600160e01b8304811692600160e81b9004169086565b604080516001600160a01b0397881681529690951660208701526001600160401b039093169385019390935260ff166060840152901515608083015260a082015260c001620002d2565b6200033562000637366004620048cc565b620018a3565b620003356200064e36600462004c2b565b6200198e565b6200066b6200066536600462004cf8565b62001df6565b604051620002d2919062004db2565b620003b26200068b36600462004a98565b60836020526000908152604090205463ffffffff1681565b608454620002c390600160c01b90046001600160401b031681565b62000335620006cf36600462004994565b62001e29565b62000335620006e6366004620048fd565b6200214d565b62000335620006fd36600462004dc7565b62002203565b620002f26200071436600462004a65565b6200228a565b62000400620022b5565b620002c36200073536600462004e77565b620023a1565b620003356200074c36600462004a98565b6200256e565b620003356200076336600462004a98565b62002611565b62000400600081565b62000400620026b0565b620007a47f000000000000000000000000000000000000000000000000000000000000000081565b604051620002d2919062004ea4565b608554620007c990600160801b900461ffff1681565b60405161ffff9091168152602001620002d2565b62000873620007ee366004620047f3565b604080516080808201835260008083526020808401829052838501829052606093840182905263ffffffff969096168152608186528381206001600160401b03958616825260040186528390208351918201845280548086168352600160401b9004909416948101949094526001830154918401919091526002909101549082015290565b604051620002d2919081516001600160401b03908116825260208084015190911690820152604082810151908201526060918201519181019190915260800190565b608454620002c390600160801b90046001600160401b031681565b62000335620008e136600462004eb8565b62002a72565b620003b2620008f836600462004f50565b60826020526000908152604090205463ffffffff1681565b620007a47f000000000000000000000000000000000000000000000000000000000000000081565b620003356200094936600462004a4b565b62002d3f565b620003356200096036600462004a65565b62002dca565b608554620002c3906001600160401b031681565b6200033562002dec565b608454620002c390600160401b90046001600160401b031681565b62000335620009b036600462004f82565b62002e89565b620007a47f000000000000000000000000000000000000000000000000000000000000000081565b62000335620009ef36600462004ffe565b62002f11565b608054620003b29063ffffffff1681565b62000a9d62000a17366004620048cc565b608160205260009081526040902080546001820154600583015460068401546007909401546001600160a01b0380851695600160a01b958690046001600160401b039081169692861695929092048216939282821692600160401b808404821693600160801b808204841694600160c01b90920484169380831693830416910460ff168c565b604080516001600160a01b039d8e1681526001600160401b039c8d1660208201529c909a16998c019990995296891660608b015260808a019590955292871660a089015290861660c0880152851660e0870152841661010086015283166101208501529190911661014083015260ff1661016082015261018001620002d2565b63ffffffff8216600090815260816020526040812062000b3e9083620030fc565b90505b92915050565b600054600290610100900460ff1615801562000b6a575060005460ff8083169116105b62000b925760405162461bcd60e51b815260040162000b899062005095565b60405180910390fd5b6000805461010060ff841661ffff199092169190911717905560858054608480546001600160c01b0316600160c01b6001600160401b038a8116919091029190911790915567016345785d8a000060865588166001600160801b03199091161760e160431b1761ffff60801b19166101f560811b17905562000c1362003141565b62000c2e6000805160206200602983398151915288620031ae565b62000c3b600084620031ae565b62000c5660008051602062005f0983398151915284620031ae565b62000c7160008051602062005f8983398151915284620031ae565b62000c8c60008051602062005ea983398151915284620031ae565b62000ca760008051602062005ee983398151915285620031ae565b62000cc26000805160206200600983398151915285620031ae565b62000cdd60008051602062005f2983398151915285620031ae565b62000cf860008051602062005fa983398151915285620031ae565b62000d226000805160206200602983398151915260008051602062005e89833981519152620031ba565b62000d3d60008051602062005e8983398151915285620031ae565b62000d5860008051602062005ec983398151915285620031ae565b62000d8260008051602062005fe983398151915260008051602062005fc9833981519152620031ba565b62000d9d60008051602062005fe983398151915283620031ae565b62000db860008051602062005fc983398151915283620031ae565b62000dc5600033620031ae565b6000805461ff001916905560405160ff8216815260008051602062005f698339815191529060200160405180910390a150505050505050565b63ffffffff8116600090815260816020526040812062000b41906200320f565b6000805160206200602983398151915262000e398162003280565b63ffffffff8916600090815260816020526040902062000e60818a8a8a8a8a8a8a6200328c565b600681018054600160401b600160801b031916600160401b6001600160401b0389811691820292909217835560009081526002840160205260409020869055600583018790559054600160801b9004161562000ec8576006810180546001600160801b031690555b7f00000000000000000000000000000000000000000000000000000000000000006001600160a01b03166333d6247d62000f01620026b0565b6040518263ffffffff1660e01b815260040162000f2091815260200190565b600060405180830381600087803b15801562000f3b57600080fd5b505af115801562000f50573d6000803e3d6000fd5b5050608480546001600160c01b031661127560c71b1790555050604080516001600160401b03881681526020810186905290810186905233606082015263ffffffff8b16907f3182bd6e6f74fc1fdc88b60f3a4f4c7f79db6ae6f5b88a1b3f5a1e28ec210d5e9060800160405180910390a250505050505050505050565b6000805160206200602983398151915262000fe98162003280565b63ffffffff8916600090815260816020526040902062001010818a8a8a8a8a8a8a62003614565b600681018054600160401b600160801b031916600160401b6001600160401b038a811691820292909217835560009081526002840160205260409020879055600583018890559054600160801b9004161562001078576006810180546001600160801b031690555b7f00000000000000000000000000000000000000000000000000000000000000006001600160a01b03166333d6247d620010b1620026b0565b6040518263ffffffff1660e01b8152600401620010d091815260200190565b600060405180830381600087803b158015620010eb57600080fd5b505af115801562001100573d6000803e3d6000fd5b50505050336001600160a01b03168a63ffffffff167fd1ec3a1216f08b6eff72e169ceb548b782db18a6614852618d86bb19f3f9b0d389888a6040516200114a93929190620050e3565b60405180910390a350505050505050505050565b63ffffffff821660009081526081602052604090206200118e60008051602062006029833981519152336200228a565b620011e257606f5460ff1615620011b857604051630bc011ff60e21b815260040160405180910390fd5b620011c48183620030fc565b620011e257604051630674f25160e11b815260040160405180910390fd5b620011ee818362003a10565b505050565b60008051602062005fa98339815191526200120e8162003280565b6103e88261ffff1610806200122857506103ff8261ffff16115b156200124757604051630984a67960e31b815260040160405180910390fd5b6085805461ffff60801b1916600160801b61ffff8516908102919091179091556040519081527f7019933d795eba185c180209e8ae8bffbaa25bcef293364687702c31f4d302c5906020015b60405180910390a15050565b620012ba60008051602062005fe9833981519152336200228a565b6200132957608454600160801b90046001600160401b031615806200130a57506084544290620012ff9062093a8090600160801b90046001600160401b03166200511a565b6001600160401b0316115b15620013295760405163692baaad60e11b815260040160405180910390fd5b6200133362003c02565b565b60009081526034602052604090206001015490565b620013558262001335565b620013608162003280565b620011ee838362003c81565b6001600160a01b03811633146200139657604051630b4ad1cd60e31b815260040160405180910390fd5b620013a2828262003ced565b5050565b60008051602062005fa9833981519152620013c18162003280565b606f5460ff1662001403576084546001600160401b03600160c01b909104811690831610620014035760405163401636df60e01b815260040160405180910390fd5b608480546001600160c01b0316600160c01b6001600160401b038516021790556040517f1f4fa24c2e4bad19a7f3ec5c5485f70d46c798461c2e684f55bbd0fc661373a19062001293908490620047b2565b600054600290610100900460ff1615801562001478575060005460ff8083169116105b620014975760405162461bcd60e51b815260040162000b899062005095565b6000805461010060ff841661ffff199092169190911717905560858054608480546001600160c01b0316600160c01b6001600160401b038c8116919091029190911790915567016345785d8a00006086558a166001600160801b03199091161760e160431b1761ffff60801b19166101f560811b1790556200151862003141565b62001533600080516020620060298339815191528a620031ae565b62001540600086620031ae565b6200155b60008051602062005f0983398151915286620031ae565b6200157660008051602062005f8983398151915286620031ae565b6200159160008051602062005ea983398151915286620031ae565b620015ac60008051602062005ee983398151915287620031ae565b620015c76000805160206200600983398151915287620031ae565b620015e260008051602062005f2983398151915287620031ae565b620015fd60008051602062005fa983398151915287620031ae565b620016276000805160206200602983398151915260008051602062005e89833981519152620031ba565b6200164260008051602062005e8983398151915287620031ae565b6200165d60008051602062005ec983398151915287620031ae565b6200168760008051602062005fe983398151915260008051602062005fc9833981519152620031ba565b620016a260008051602062005fe983398151915285620031ae565b620016bd60008051602062005fc983398151915285620031ae565b6000620016d28484600561044d600062003d57565b6073546074549192506001600160401b03600160401b909104811691168082146200171057604051632e4cc54360e11b815260040160405180910390fd5b6001600160401b0381811660008181526075602090815260408083205460028901835281842055868516808452607280845282852060038b018552948390208554815560018087018054919092018054918a166001600160401b03198084168217835593546001600160801b0319938416909117600160401b918290048c1682021790915560068d0180549092169094179388029390931790925560078a0180549092169095179055607a54606f54949092529154607354925163176b20e160e31b81526001600160a01b038c81169663bb59070896620018119695831695600160581b9091049092169360769360779391929190911690600401620051f0565b600060405180830381600087803b1580156200182c57600080fd5b505af115801562001841573d6000803e3d6000fd5b50506000805461ff0019169055505060405160ff8516815260008051602062005f6983398151915293506020019150620018789050565b60405180910390a1505050505050505050565b600060865460646200189e919062005256565b905090565b60008051602062005ee9833981519152620018be8162003280565b63ffffffff82161580620018dd5750607e5463ffffffff908116908316115b15620018fc57604051637512e5cb60e01b815260040160405180910390fd5b63ffffffff82166000908152607f60205260409020600180820154600160e81b900460ff16151590036200194357604051633b8d3d9960e01b815260040160405180910390fd5b60018101805460ff60e81b1916600160e81b17905560405163ffffffff8416907f4710d2ee567ef1ed6eb2f651dde4589524bcf7cebc62147a99b281cc836e7e4490600090a2505050565b60008051602062006009833981519152620019a98162003280565b63ffffffff88161580620019c85750607e5463ffffffff908116908916115b15620019e757604051637512e5cb60e01b815260040160405180910390fd5b63ffffffff88166000908152607f60205260409020600180820154600160e81b900460ff161515900362001a2e57604051633b8d3d9960e01b815260040160405180910390fd5b6001600160401b03881660009081526083602052604090205463ffffffff161562001a6c576040516337c8fe0960e11b815260040160405180910390fd5b6080805460009190829062001a879063ffffffff1662005270565b825463ffffffff8281166101009490940a9384029302191691909117909155825460408051600080825260208201928390529394506001600160a01b0390921691309162001ad590620047a4565b62001ae39392919062005296565b604051809103906000f08015801562001b00573d6000803e3d6000fd5b50905081608360008c6001600160401b03166001600160401b0316815260200190815260200160002060006101000a81548163ffffffff021916908363ffffffff1602179055508160826000836001600160a01b03166001600160a01b0316815260200190815260200160002060006101000a81548163ffffffff021916908363ffffffff1602179055506000608160008463ffffffff1663ffffffff1681526020019081526020016000209050818160000160006101000a8154816001600160a01b0302191690836001600160a01b031602179055508360010160149054906101000a90046001600160401b03168160010160146101000a8154816001600160401b0302191690836001600160401b031602179055508360010160009054906101000a90046001600160a01b03168160010160006101000a8154816001600160a01b0302191690836001600160a01b031602179055508a8160000160146101000a8154816001600160401b0302191690836001600160401b031602179055508360020154816002016000806001600160401b03168152602001908152602001600020819055508b63ffffffff168160070160086101000a8154816001600160401b0302191690836001600160401b0316021790555083600101601c9054906101000a900460ff168160070160106101000a81548160ff021916908360ff1602179055508263ffffffff167f194c983456df6701c6a50830b90fe80e72b823411d0d524970c9590dc277a6418d848e8c60405162001d74949392919063ffffffff9490941684526001600160a01b0392831660208501526001600160401b0391909116604084015216606082015260800190565b60405180910390a2604051633892b81160e11b81526001600160a01b0383169063712570229062001db4908d908d9088908e908e908e90600401620052cd565b600060405180830381600087803b15801562001dcf57600080fd5b505af115801562001de4573d6000803e3d6000fd5b50505050505050505050505050505050565b63ffffffff8616600090815260816020526040902060609062001e1e90878787878762003f7c565b979650505050505050565b606f5460ff161562001e4e57604051630bc011ff60e21b815260040160405180910390fd5b63ffffffff881660009081526081602090815260408083206084546001600160401b038a81168652600383019094529190932060010154429262001e9d92600160c01b9004811691166200511a565b6001600160401b0316111562001ec657604051638a0704d360e01b815260040160405180910390fd5b6103e862001ed5888862005330565b6001600160401b0316111562001efe57604051635acfba9d60e11b815260040160405180910390fd5b62001f10818989898989898962003614565b62001f1c8187620040b7565b6085546001600160401b03166000036200202a57600681018054600160401b600160801b031916600160401b6001600160401b0389811691820292909217835560009081526002840160205260409020869055600583018790559054600160801b9004161562001f98576006810180546001600160801b031690555b7f00000000000000000000000000000000000000000000000000000000000000006001600160a01b03166333d6247d62001fd1620026b0565b6040518263ffffffff1660e01b815260040162001ff091815260200190565b600060405180830381600087803b1580156200200b57600080fd5b505af115801562002020573d6000803e3d6000fd5b50505050620020f4565b6200203581620042b4565b600681018054600160801b90046001600160401b0316906010620020598362005353565b82546001600160401b039182166101009390930a92830292820219169190911790915560408051608081018252428316815289831660208083019182528284018b8152606084018b81526006890154600160801b90048716600090815260048a01909352949091209251835492518616600160401b026001600160801b03199093169516949094171781559151600183015551600290910155505b336001600160a01b03168963ffffffff167faac1e7a157b259544ebacd6e8a82ae5d6c8f174e12aa48696277bcc9a661f0b48887896040516200213a93929190620050e3565b60405180910390a3505050505050505050565b606f5460ff16156200217257604051630bc011ff60e21b815260040160405180910390fd5b63ffffffff881660009081526081602052604090206200219981898989898989896200328c565b6001600160401b03851660009081526002820160209081526040918290205482519081529081018590527f1f44c21118c4603cfb4e1b621dbcfa2b73efcececee2b99b620b2953d33a7010910160405180910390a1620021f862003c02565b505050505050505050565b80516080805463ffffffff191663ffffffff90921691909117905560005b8151811015620013a2578181815181106200224057620022406200537a565b6020026020010151608160008360016200225b919062005390565b63ffffffff168152602081019190915260400160002060050155806200228181620053a6565b91505062002221565b60009182526034602090815260408084206001600160a01b0393909316845291905290205460ff1690565b6000807f00000000000000000000000000000000000000000000000000000000000000006001600160a01b03166370a08231306040518263ffffffff1660e01b815260040162002306919062004ea4565b602060405180830381865afa15801562002324573d6000803e3d6000fd5b505050506040513d601f19601f820116820180604052508101906200234a9190620053c2565b60845490915060009062002371906001600160401b03600160401b82048116911662005330565b6001600160401b03169050806000036200238e5760009250505090565b6200239a8183620053f2565b9250505090565b606f5460009060ff1615620023c957604051630bc011ff60e21b815260040160405180910390fd5b3360009081526082602052604081205463ffffffff169081900362002401576040516371653c1560e01b815260040160405180910390fd5b836001600160401b03166000036200242c57604051632590ccf960e01b815260040160405180910390fd5b63ffffffff8116600090815260816020526040812060848054919287926200245f9084906001600160401b03166200511a565b82546101009290920a6001600160401b03818102199093169183160217909155600683015416905060006200249587836200511a565b6006840180546001600160401b038084166001600160401b03199092168217909255604080516060810182528a81524284166020808301918252888616838501908152600095865260038b0190915292909320905181559151600192909201805491518416600160401b026001600160801b0319909216929093169190911717905590506200252483620042b4565b8363ffffffff167f1d9f30260051d51d70339da239ea7b080021adcaabfa71c9b0ea339a20cf9a25826040516200255c9190620047b2565b60405180910390a29695505050505050565b60008051602062005fa9833981519152620025898162003280565b606f5460ff16620025c4576085546001600160401b0390811690831610620025c45760405163048a05a960e41b815260040160405180910390fd5b608580546001600160401b0319166001600160401b0384161790556040517fc4121f4e22c69632ebb7cf1f462be0511dc034f999b52013eddfb24aab765c759062001293908490620047b2565b60008051602062005fa98339815191526200262c8162003280565b62015180826001600160401b031611156200265a57604051631c0cfbfd60e31b815260040160405180910390fd5b60858054600160401b600160801b031916600160401b6001600160401b038516021790556040517f1b023231a1ab6b5d93992f168fb44498e1a7e64cef58daff6f1c216de6a68c289062001293908490620047b2565b60805460009063ffffffff16808203620026cc57506000919050565b6000816001600160401b03811115620026e957620026e962004b6c565b60405190808252806020026020018201604052801562002713578160200160208202803683370190505b50905060005b828110156200278657608160006200273383600162005390565b63ffffffff1663ffffffff168152602001908152602001600020600501548282815181106200276657620027666200537a565b6020908102919091010152806200277d81620053a6565b91505062002719565b50600060205b83600114620029ca576000620027a460028662005409565b620027b1600287620053f2565b620027bd919062005390565b90506000816001600160401b03811115620027dc57620027dc62004b6c565b60405190808252806020026020018201604052801562002806578160200160208202803683370190505b50905060005b828110156200297e576200282260018462005420565b811480156200283d57506200283960028862005409565b6001145b15620028bd57856200285182600262005256565b815181106200286457620028646200537a565b6020026020010151856040516020016200288092919062005436565b60405160208183030381529060405280519060200120828281518110620028ab57620028ab6200537a565b60200260200101818152505062002969565b85620028cb82600262005256565b81518110620028de57620028de6200537a565b602002602001015186826002620028f6919062005256565b6200290390600162005390565b815181106200291657620029166200537a565b60200260200101516040516020016200293192919062005436565b604051602081830303815290604052805190602001208282815181106200295c576200295c6200537a565b6020026020010181815250505b806200297581620053a6565b9150506200280c565b5080945081955083846040516020016200299a92919062005436565b6040516020818303038152906040528051906020012093508280620029bf9062005444565b93505050506200278c565b600083600081518110620029e257620029e26200537a565b6020026020010151905060005b8281101562002a6857818460405160200162002a0d92919062005436565b604051602081830303815290604052805190602001209150838460405160200162002a3a92919062005436565b604051602081830303815290604052805190602001209350808062002a5f90620053a6565b915050620029ef565b5095945050505050565b60008051602062005ea983398151915262002a8d8162003280565b63ffffffff8416158062002aac5750607e5463ffffffff908116908516115b1562002acb57604051637512e5cb60e01b815260040160405180910390fd5b6001600160a01b03851660009081526082602052604081205463ffffffff169081900362002b0c576040516374a086a360e01b815260040160405180910390fd5b63ffffffff8181166000908152608160205260409020600781015490918716600160401b9091046001600160401b03160362002b5b57604051634f61d51960e01b815260040160405180910390fd5b63ffffffff86166000908152607f60205260409020600180820154600160e81b900460ff161515900362002ba257604051633b8d3d9960e01b815260040160405180910390fd5b60018101546007830154600160801b900460ff908116600160e01b909204161462002be057604051635aa0d5f160e11b815260040160405180910390fd5b6001808201805491840180546001600160a01b031981166001600160a01b03909416938417825591546001600160401b03600160a01b9182900416026001600160e01b0319909216909217179055600782018054600160401b63ffffffff8a1602600160401b600160801b0319909116179055600062002c608462000dfe565b6007840180546001600160401b0319166001600160401b038316179055825460405163278f794360e11b81529192506001600160a01b038b811692634f1ef2869262002cb59216908b908b906004016200545e565b600060405180830381600087803b15801562002cd057600080fd5b505af115801562002ce5573d6000803e3d6000fd5b50506040805163ffffffff8c811682526001600160401b0386166020830152881693507ff585e04c05d396901170247783d3e5f0ee9c1df23072985b50af089f5e48b19d92500160405180910390a2505050505050505050565b60008051602062005ec983398151915262002d5a8162003280565b683635c9adc5dea0000082118062002d755750633b9aca0082105b1562002d9457604051638586952560e01b815260040160405180910390fd5b60868290556040518281527ffb383653f53ee079978d0c9aff7aeff04a10166ce244cca9c9f9d8d96bed45b29060200162001293565b62002dd58262001335565b62002de08162003280565b620011ee838362003ced565b60008051602062005f2983398151915262002e078162003280565b7f00000000000000000000000000000000000000000000000000000000000000006001600160a01b031663dbc169766040518163ffffffff1660e01b8152600401600060405180830381600087803b15801562002e6357600080fd5b505af115801562002e78573d6000803e3d6000fd5b5050505062002e866200437f565b50565b60008051602062005f8983398151915262002ea48162003280565b6001600160401b03841660009081526083602052604090205463ffffffff161562002ee2576040516337c8fe0960e11b815260040160405180910390fd5b600062002ef3888888888762003d57565b60008080526002909101602052604090209390935550505050505050565b60008051602062005f0983398151915262002f2c8162003280565b607e805460009190829062002f479063ffffffff1662005270565b91906101000a81548163ffffffff021916908363ffffffff160217905590506040518060c00160405280896001600160a01b03168152602001886001600160a01b03168152602001876001600160401b031681526020018660ff16815260200160001515815260200185815250607f60008363ffffffff1663ffffffff16815260200190815260200160002060008201518160000160006101000a8154816001600160a01b0302191690836001600160a01b0316021790555060208201518160010160006101000a8154816001600160a01b0302191690836001600160a01b0316021790555060408201518160010160146101000a8154816001600160401b0302191690836001600160401b03160217905550606082015181600101601c6101000a81548160ff021916908360ff160217905550608082015181600101601d6101000a81548160ff02191690831515021790555060a082015181600201559050508063ffffffff167fa2970448b3bd66ba7e524e7b2a5b9cf94fa29e32488fb942afdfe70dd4b77b52898989898989604051620030ea969594939291906200549e565b60405180910390a25050505050505050565b6085546001600160401b038281166000908152600485016020526040812054909242926200312f9291811691166200511a565b6001600160401b031611159392505050565b600054610100900460ff16620013335760405162461bcd60e51b815260206004820152602b60248201527f496e697469616c697a61626c653a20636f6e7472616374206973206e6f74206960448201526a6e697469616c697a696e6760a81b606482015260840162000b89565b620013a2828262003c81565b6000620031c78362001335565b600084815260346020526040808220600101859055519192508391839186917fbd79b86ffe0ab8e8776151514217cd7cacd52c909f66475c3af44e129f0b00ff9190a4505050565b6006810154600090600160801b90046001600160401b03161562003263575060068101546001600160401b03600160801b909104811660009081526004909201602052604090912054600160401b90041690565b5060060154600160401b90046001600160401b031690565b919050565b62002e868133620043d8565b60078801546000906001600160401b039081169087161015620032c25760405163ead1340b60e01b815260040160405180910390fd5b6001600160401b03881615620033635760068901546001600160401b03600160801b909104811690891611156200330c5760405163bb14c20560e01b815260040160405180910390fd5b506001600160401b03808816600090815260048a0160205260409020600281015481549092888116600160401b90920416146200335c57604051632bd2e3e760e01b815260040160405180910390fd5b50620033d8565b506001600160401b0385166000908152600289016020526040902054806200339e576040516324cbdcc360e11b815260040160405180910390fd5b60068901546001600160401b03600160401b90910481169087161115620033d857604051630f2b74f160e11b815260040160405180910390fd5b60068901546001600160401b03600160801b90910481169088161180620034115750876001600160401b0316876001600160401b031611155b8062003435575060068901546001600160401b03600160c01b909104811690881611155b15620034545760405163bfa7079f60e01b815260040160405180910390fd5b6001600160401b03878116600090815260048b016020526040902054600160401b90048116908616146200349b576040516332a2a77f60e01b815260040160405180910390fd5b6000620034ad8a888888868962003f7c565b9050600060008051602062005f49833981519152600283604051620034d39190620054eb565b602060405180830381855afa158015620034f1573d6000803e3d6000fd5b5050506040513d601f19601f82011682018060405250810190620035169190620053c2565b62003522919062005409565b60018c0154604080516020810182528381529051634890ed4560e11b81529293506001600160a01b0390911691639121da8a91620035669188919060040162005509565b602060405180830381865afa15801562003584573d6000803e3d6000fd5b505050506040513d601f19601f82011682018060405250810190620035aa919062005546565b620035c8576040516309bde33960e01b815260040160405180910390fd5b6001600160401b038916600090815260048c016020526040902060020154859003620036075760405163a47276bd60e01b815260040160405180910390fd5b5050505050505050505050565b600080620036228a6200320f565b60078b01549091506001600160401b039081169089161015620036585760405163ead1340b60e01b815260040160405180910390fd5b6001600160401b03891615620036fb5760068a01546001600160401b03600160801b9091048116908a161115620036a25760405163bb14c20560e01b815260040160405180910390fd5b6001600160401b03808a16600090815260048c01602052604090206002810154815490945090918a8116600160401b9092041614620036f457604051632bd2e3e760e01b815260040160405180910390fd5b506200376b565b6001600160401b038816600090815260028b01602052604090205491508162003737576040516324cbdcc360e11b815260040160405180910390fd5b806001600160401b0316886001600160401b031611156200376b57604051630f2b74f160e11b815260040160405180910390fd5b806001600160401b0316876001600160401b0316116200379e5760405163b9b18f5760e01b815260040160405180910390fd5b6000620037b08b8a8a8a878b62003f7c565b9050600060008051602062005f49833981519152600283604051620037d69190620054eb565b602060405180830381855afa158015620037f4573d6000803e3d6000fd5b5050506040513d601f19601f82011682018060405250810190620038199190620053c2565b62003825919062005409565b60018d0154604080516020810182528381529051634890ed4560e11b81529293506001600160a01b0390911691639121da8a91620038699189919060040162005509565b602060405180830381865afa15801562003887573d6000803e3d6000fd5b505050506040513d601f19601f82011682018060405250810190620038ad919062005546565b620038cb576040516309bde33960e01b815260040160405180910390fd5b6000620038d9848b62005330565b90506200393287826001600160401b0316620038f4620022b5565b62003900919062005256565b6001600160a01b037f000000000000000000000000000000000000000000000000000000000000000016919062004402565b80608460088282829054906101000a90046001600160401b03166200395891906200511a565b82546101009290920a6001600160401b0381810219909316918316021790915560848054600160801b600160c01b031916600160801b428416021790558e546040516332c2d15360e01b8152918d166004830152602482018b90523360448301526001600160a01b031691506332c2d15390606401600060405180830381600087803b158015620039e857600080fd5b505af1158015620039fd573d6000803e3d6000fd5b5050505050505050505050505050505050565b60068201546001600160401b03600160c01b909104811690821611158062003a4f575060068201546001600160401b03600160801b9091048116908216115b1562003a6e5760405163d086b70b60e01b815260040160405180910390fd5b6001600160401b03818116600081815260048501602090815260408083208054600689018054600160401b600160801b031916600160401b92839004909816918202979097178755600280830154828752908a0190945291909320919091556001820154600587015583546001600160c01b0316600160c01b909302929092179092557f00000000000000000000000000000000000000000000000000000000000000006001600160a01b03166333d6247d62003b2a620026b0565b6040518263ffffffff1660e01b815260040162003b4991815260200190565b600060405180830381600087803b15801562003b6457600080fd5b505af115801562003b79573d6000803e3d6000fd5b505085546001600160a01b0316600090815260826020908152604091829020546002870154600188015484516001600160401b03898116825294810192909252818501529188166060830152915163ffffffff90921693507f581910eb7a27738945c2f00a91f2284b2d6de9d4e472b12f901c2b0df045e21b925081900360800190a250505050565b7f00000000000000000000000000000000000000000000000000000000000000006001600160a01b0316632072f6c56040518163ffffffff1660e01b8152600401600060405180830381600087803b15801562003c5e57600080fd5b505af115801562003c73573d6000803e3d6000fd5b505050506200133362004456565b62003c8d82826200228a565b620013a25760008281526034602090815260408083206001600160a01b0385168085529252808320805460ff1916600117905551339285917f2f8788117e7eff1d82e926ec794901d17c78024a50270940304540a733656f0d9190a45050565b62003cf982826200228a565b15620013a25760008281526034602090815260408083206001600160a01b0385168085529252808320805460ff1916905551339285917ff6391f5c32d9c69d2a47ea670b442974b53935d1edc7fd64eb21e047a839171b9190a45050565b608080546000918291829062003d739063ffffffff1662005270565b91906101000a81548163ffffffff021916908363ffffffff160217905590508060836000866001600160401b03166001600160401b0316815260200190815260200160002060006101000a81548163ffffffff021916908363ffffffff1602179055508060826000896001600160a01b03166001600160a01b0316815260200190815260200160002060006101000a81548163ffffffff021916908363ffffffff160217905550608160008263ffffffff1663ffffffff1681526020019081526020016000209150868260000160006101000a8154816001600160a01b0302191690836001600160a01b03160217905550848260010160146101000a8154816001600160401b0302191690836001600160401b03160217905550858260010160006101000a8154816001600160a01b0302191690836001600160a01b03160217905550838260000160146101000a8154816001600160401b0302191690836001600160401b03160217905550828260070160106101000a81548160ff021916908360ff1602179055508063ffffffff167f1c20c90adb9c53d1da3e79fb8531f2c13c52b73a31a2574202ec36fb449ab24a8689878760405162003f6a94939291906001600160401b0394851681526001600160a01b039390931660208401529216604082015260ff91909116606082015260800190565b60405180910390a25095945050505050565b6001600160401b038086166000818152600389016020526040808220549388168252902054606092911580159062003fb2575081155b1562003fd15760405163340c614f60e11b815260040160405180910390fd5b8062003ff0576040516366385b5160e01b815260040160405180910390fd5b62003ffb84620044b3565b62004019576040516305dae44f60e21b815260040160405180910390fd5b885460018a01546040516001600160601b03193360601b16602082015260348101889052605481018590526001600160c01b031960c08c811b82166074840152600160a01b94859004811b8216607c84015293909204831b82166084820152608c810187905260ac810184905260cc81018990529189901b1660ec82015260f401604051602081830303815290604052925050509695505050505050565b6000620040c4836200320f565b905081600080620040d6848462005330565b6085546001600160401b039182169250600091620040fd91600160401b9004164262005420565b90505b846001600160401b0316846001600160401b03161462004187576001600160401b0380851660009081526003890160205260409020600181015490911682101562004162576001810154600160401b90046001600160401b0316945062004180565b6200416e868662005330565b6001600160401b031693505062004187565b5062004100565b600062004195848462005420565b905083811015620041f357808403600c8111620041b35780620041b6565b600c5b9050806103e80a81608560109054906101000a900461ffff1661ffff160a6086540281620041e857620041e8620053dc565b04608655506200426b565b838103600c811162004206578062004209565b600c5b90506000816103e80a82608560109054906101000a900461ffff1661ffff160a670de0b6b3a76400000281620042435762004243620053dc565b04905080608654670de0b6b3a76400000281620042645762004264620053dc565b0460865550505b683635c9adc5dea0000060865411156200429257683635c9adc5dea00000608655620042aa565b633b9aca006086541015620042aa57633b9aca006086555b5050505050505050565b60068101546001600160401b03600160c01b82048116600160801b90920416111562002e86576006810154600090620042ff90600160c01b90046001600160401b031660016200511a565b90506200430d8282620030fc565b15620013a25760068201546000906002906200433b908490600160801b90046001600160401b031662005330565b6200434791906200556a565b6200435390836200511a565b9050620043618382620030fc565b156200437357620011ee838262003a10565b620011ee838362003a10565b606f5460ff16620043a357604051635386698160e01b815260040160405180910390fd5b606f805460ff191690556040517f1e5e34eea33501aecf2ebec9fe0e884a40804275ea7fe10b2ba084c8374308b390600090a1565b620043e482826200228a565b620013a257604051637615be1f60e11b815260040160405180910390fd5b604080516001600160a01b038416602482015260448082018490528251808303909101815260649091019091526020810180516001600160e01b031663a9059cbb60e01b179052620011ee90849062004539565b606f5460ff16156200447b57604051630bc011ff60e21b815260040160405180910390fd5b606f805460ff191660011790556040517f2261efe5aef6fedc1fd1550b25facc9181745623049c7901287030b9ad1a549790600090a1565b600067ffffffff000000016001600160401b038316108015620044ea575067ffffffff00000001604083901c6001600160401b0316105b80156200450b575067ffffffff00000001608083901c6001600160401b0316105b801562004523575067ffffffff0000000160c083901c105b156200453157506001919050565b506000919050565b600062004590826040518060400160405280602081526020017f5361666545524332303a206c6f772d6c6576656c2063616c6c206661696c6564815250856001600160a01b0316620046129092919063ffffffff16565b805190915015620011ee5780806020019051810190620045b1919062005546565b620011ee5760405162461bcd60e51b815260206004820152602a60248201527f5361666545524332303a204552433230206f7065726174696f6e20646964206e6044820152691bdd081cdd58d8d9595960b21b606482015260840162000b89565b60606200462384846000856200462b565b949350505050565b6060824710156200468e5760405162461bcd60e51b815260206004820152602660248201527f416464726573733a20696e73756666696369656e742062616c616e636520666f6044820152651c8818d85b1b60d21b606482015260840162000b89565b600080866001600160a01b03168587604051620046ac9190620054eb565b60006040518083038185875af1925050503d8060008114620046eb576040519150601f19603f3d011682016040523d82523d6000602084013e620046f0565b606091505b509150915062001e1e87838387606083156200477157825160000362004769576001600160a01b0385163b620047695760405162461bcd60e51b815260206004820152601d60248201527f416464726573733a2063616c6c20746f206e6f6e2d636f6e7472616374000000604482015260640162000b89565b508162004623565b620046238383815115620047885781518083602001fd5b8060405162461bcd60e51b815260040162000b89919062004db2565b6108f5806200559483390190565b6001600160401b0391909116815260200190565b803563ffffffff811681146200327b57600080fd5b80356001600160401b03811681146200327b57600080fd5b600080604083850312156200480757600080fd5b6200481283620047c6565b91506200482260208401620047db565b90509250929050565b6001600160a01b038116811462002e8657600080fd5b60008060008060008060c087890312156200485b57600080fd5b863562004868816200482b565b95506200487860208801620047db565b94506200488860408801620047db565b935060608701356200489a816200482b565b92506080870135620048ac816200482b565b915060a0870135620048be816200482b565b809150509295509295509295565b600060208284031215620048df57600080fd5b62000b3e82620047c6565b80610300810183101562000b4157600080fd5b6000806000806000806000806103e0898b0312156200491b57600080fd5b6200492689620047c6565b97506200493660208a01620047db565b96506200494660408a01620047db565b95506200495660608a01620047db565b94506200496660808a01620047db565b935060a0890135925060c08901359150620049858a60e08b01620048ea565b90509295985092959890939650565b6000806000806000806000806103e0898b031215620049b257600080fd5b620049bd89620047c6565b9750620049cd60208a01620047db565b9650620049dd60408a01620047db565b9550620049ed60608a01620047db565b94506080890135935060a0890135925060c089013562004a0d816200482b565b9150620049858a60e08b01620048ea565b60006020828403121562004a3157600080fd5b813561ffff8116811462004a4457600080fd5b9392505050565b60006020828403121562004a5e57600080fd5b5035919050565b6000806040838503121562004a7957600080fd5b82359150602083013562004a8d816200482b565b809150509250929050565b60006020828403121562004aab57600080fd5b62000b3e82620047db565b600080600080600080600080610100898b03121562004ad457600080fd5b883562004ae1816200482b565b975062004af160208a01620047db565b965062004b0160408a01620047db565b9550606089013562004b13816200482b565b9450608089013562004b25816200482b565b935060a089013562004b37816200482b565b925060c089013562004b49816200482b565b915060e089013562004b5b816200482b565b809150509295985092959890939650565b634e487b7160e01b600052604160045260246000fd5b604051601f8201601f191681016001600160401b038111828210171562004bad5762004bad62004b6c565b604052919050565b600082601f83011262004bc757600080fd5b81356001600160401b0381111562004be35762004be362004b6c565b62004bf8601f8201601f191660200162004b82565b81815284602083860101111562004c0e57600080fd5b816020850160208301376000918101602001919091529392505050565b600080600080600080600060e0888a03121562004c4757600080fd5b62004c5288620047c6565b965062004c6260208901620047db565b9550604088013562004c74816200482b565b9450606088013562004c86816200482b565b9350608088013562004c98816200482b565b925060a08801356001600160401b038082111562004cb557600080fd5b62004cc38b838c0162004bb5565b935060c08a013591508082111562004cda57600080fd5b5062004ce98a828b0162004bb5565b91505092959891949750929550565b60008060008060008060c0878903121562004d1257600080fd5b62004d1d87620047c6565b955062004d2d60208801620047db565b945062004d3d60408801620047db565b9350606087013592506080870135915060a087013590509295509295509295565b60005b8381101562004d7b57818101518382015260200162004d61565b50506000910152565b6000815180845262004d9e81602086016020860162004d5e565b601f01601f19169290920160200192915050565b60208152600062000b3e602083018462004d84565b6000602080838503121562004ddb57600080fd5b82356001600160401b038082111562004df357600080fd5b818501915085601f83011262004e0857600080fd5b81358181111562004e1d5762004e1d62004b6c565b8060051b915062004e3084830162004b82565b818152918301840191848101908884111562004e4b57600080fd5b938501935b8385101562004e6b5784358252938501939085019062004e50565b98975050505050505050565b6000806040838503121562004e8b57600080fd5b62004e9683620047db565b946020939093013593505050565b6001600160a01b0391909116815260200190565b6000806000806060858703121562004ecf57600080fd5b843562004edc816200482b565b935062004eec60208601620047c6565b925060408501356001600160401b038082111562004f0957600080fd5b818701915087601f83011262004f1e57600080fd5b81358181111562004f2e57600080fd5b88602082850101111562004f4157600080fd5b95989497505060200194505050565b60006020828403121562004f6357600080fd5b813562004a44816200482b565b803560ff811681146200327b57600080fd5b60008060008060008060c0878903121562004f9c57600080fd5b863562004fa9816200482b565b9550602087013562004fbb816200482b565b945062004fcb60408801620047db565b935062004fdb60608801620047db565b92506080870135915062004ff260a0880162004f70565b90509295509295509295565b60008060008060008060c087890312156200501857600080fd5b863562005025816200482b565b9550602087013562005037816200482b565b94506200504760408801620047db565b9350620050576060880162004f70565b92506080870135915060a08701356001600160401b038111156200507a57600080fd5b6200508889828a0162004bb5565b9150509295509295509295565b6020808252602e908201527f496e697469616c697a61626c653a20636f6e747261637420697320616c72656160408201526d191e481a5b9a5d1a585b1a5e995960921b606082015260800190565b6001600160401b039390931683526020830191909152604082015260600190565b634e487b7160e01b600052601160045260246000fd5b6001600160401b038181168382160190808211156200513d576200513d62005104565b5092915050565b8054600090600181811c90808316806200515f57607f831692505b602080841082036200518157634e487b7160e01b600052602260045260246000fd5b838852602088018280156200519f5760018114620051b657620051e3565b60ff198716825285151560051b82019750620051e3565b60008981526020902060005b87811015620051dd57815484820152908601908401620051c2565b83019850505b5050505050505092915050565b6001600160a01b0387811682528616602082015260c0604082018190526000906200521e9083018762005144565b828103606084015262005232818762005144565b608084019590955250506001600160401b039190911660a090910152949350505050565b808202811582820484141762000b415762000b4162005104565b600063ffffffff8083168181036200528c576200528c62005104565b6001019392505050565b6001600160a01b03848116825283166020820152606060408201819052600090620052c49083018462004d84565b95945050505050565b6001600160a01b038781168252868116602083015263ffffffff861660408301528416606082015260c0608082018190526000906200530f9083018562004d84565b82810360a084015262005323818562004d84565b9998505050505050505050565b6001600160401b038281168282160390808211156200513d576200513d62005104565b60006001600160401b038281166002600160401b031981016200528c576200528c62005104565b634e487b7160e01b600052603260045260246000fd5b8082018082111562000b415762000b4162005104565b600060018201620053bb57620053bb62005104565b5060010190565b600060208284031215620053d557600080fd5b5051919050565b634e487b7160e01b600052601260045260246000fd5b600082620054045762005404620053dc565b500490565b6000826200541b576200541b620053dc565b500690565b8181038181111562000b415762000b4162005104565b918252602082015260400190565b60008162005456576200545662005104565b506000190190565b6001600160a01b03841681526040602082018190528101829052818360608301376000818301606090810191909152601f909201601f1916010192915050565b6001600160a01b038781168252861660208201526001600160401b038516604082015260ff841660608201526080810183905260c060a0820181905260009062004e6b9083018462004d84565b60008251620054ff81846020870162004d5e565b9190910192915050565b61032081016103008085843782018360005b60018110156200553c5781518352602092830192909101906001016200551b565b5050509392505050565b6000602082840312156200555957600080fd5b8151801515811462004a4457600080fd5b60006001600160401b0383811680620055875762005587620053dc565b9216919091049291505056fe60a0604052604051620008f5380380620008f58339810160408190526100249161035b565b82816100308282610058565b50506001600160a01b03821660805261005061004b60805190565b6100b7565b505050610447565b61006182610126565b6040516001600160a01b038316907fbc7cd75a20ee27fd9adebab32041f755214dbc6bffa90cc0225b39da2e5c2d3b90600090a28051156100ab576100a682826101a5565b505050565b6100b361021c565b5050565b7f7e644d79422f17c01e4894b5f4f588d331ebfa28653d42ae832dc59e38c9798f6100f8600080516020620008d5833981519152546001600160a01b031690565b604080516001600160a01b03928316815291841660208301520160405180910390a16101238161023d565b50565b806001600160a01b03163b60000361016157604051634c9c8ce360e01b81526001600160a01b03821660048201526024015b60405180910390fd5b807f360894a13ba1a3210667c828492db98dca3e2076cc3735a920a3ca505d382bbc5b80546001600160a01b0319166001600160a01b039290921691909117905550565b6060600080846001600160a01b0316846040516101c2919061042b565b600060405180830381855af49150503d80600081146101fd576040519150601f19603f3d011682016040523d82523d6000602084013e610202565b606091505b50909250905061021385838361027d565b95945050505050565b341561023b5760405163b398979f60e01b815260040160405180910390fd5b565b6001600160a01b03811661026757604051633173bdd160e11b815260006004820152602401610158565b80600080516020620008d5833981519152610184565b6060826102925761028d826102dc565b6102d5565b81511580156102a957506001600160a01b0384163b155b156102d257604051639996b31560e01b81526001600160a01b0385166004820152602401610158565b50805b9392505050565b8051156102ec5780518082602001fd5b604051630a12f52160e11b815260040160405180910390fd5b80516001600160a01b038116811461031c57600080fd5b919050565b634e487b7160e01b600052604160045260246000fd5b60005b8381101561035257818101518382015260200161033a565b50506000910152565b60008060006060848603121561037057600080fd5b61037984610305565b925061038760208501610305565b60408501519092506001600160401b03808211156103a457600080fd5b818601915086601f8301126103b857600080fd5b8151818111156103ca576103ca610321565b604051601f8201601f19908116603f011681019083821181831017156103f2576103f2610321565b8160405282815289602084870101111561040b57600080fd5b61041c836020830160208801610337565b80955050505050509250925092565b6000825161043d818460208701610337565b9190910192915050565b608051610473620004626000396000601001526104736000f3fe608060405261000c61000e565b005b7f00000000000000000000000000000000000000000000000000000000000000006001600160a01b0316330361006a576000356001600160e01b03191663278f794360e11b146100625761006061006e565b565b61006061007e565b6100605b6100606100796100ad565b6100d3565b60008061008e36600481846102cb565b81019061009b919061030b565b915091506100a982826100f7565b5050565b60006100ce60008051602061041e833981519152546001600160a01b031690565b905090565b3660008037600080366000845af43d6000803e8080156100f2573d6000f35b3d6000fd5b61010082610152565b6040516001600160a01b038316907fbc7cd75a20ee27fd9adebab32041f755214dbc6bffa90cc0225b39da2e5c2d3b90600090a280511561014a5761014582826101b7565b505050565b6100a961022d565b806001600160a01b03163b6000036101885780604051634c9c8ce360e01b815260040161017f91906103da565b60405180910390fd5b60008051602061041e83398151915280546001600160a01b0319166001600160a01b0392909216919091179055565b6060600080846001600160a01b0316846040516101d491906103ee565b600060405180830381855af49150503d806000811461020f576040519150601f19603f3d011682016040523d82523d6000602084013e610214565b606091505b509150915061022485838361024c565b95945050505050565b34156100605760405163b398979f60e01b815260040160405180910390fd5b6060826102615761025c826102a2565b61029b565b815115801561027857506001600160a01b0384163b155b156102985783604051639996b31560e01b815260040161017f91906103da565b50805b9392505050565b8051156102b25780518082602001fd5b604051630a12f52160e11b815260040160405180910390fd5b600080858511156102db57600080fd5b838611156102e857600080fd5b5050820193919092039150565b634e487b7160e01b600052604160045260246000fd5b6000806040838503121561031e57600080fd5b82356001600160a01b038116811461033557600080fd5b915060208301356001600160401b038082111561035157600080fd5b818501915085601f83011261036557600080fd5b813581811115610377576103776102f5565b604051601f8201601f19908116603f0116810190838211818310171561039f5761039f6102f5565b816040528281528860208487010111156103b857600080fd5b8260208601602083013760006020848301015280955050505050509250929050565b6001600160a01b0391909116815260200190565b6000825160005b8181101561040f57602081860181015185830152016103f5565b50600092019182525091905056fe360894a13ba1a3210667c828492db98dca3e2076cc3735a920a3ca505d382bbca2646970667358221220a19e7a72432195d9a35c7ce8fa5f1284415aac66bb1ad08a4c2e1c252fd8690864736f6c63430008140033b53127684a568b3173ae13b9f8a6016e243e63b6e8ee1178d6a717850b5d610373cb0569fdbea2544dae03fdb2fe10eda92a72a2e8cd2bd496e85b762505a3f066156603fe29d13f97c6f3e3dff4ef71919f9aa61c555be0182d954e94221aac8cf807f6970720f8e2c208c7c5037595982c7bd9ed93c380d09df743d0dcc3fbab66e11c4f712cd06ab11bf9339b48bef39e12d4a22eeef71d2860a0c90482bdac75d24dbb35ea80e25fab167da4dea46c1915260426570db84f184891f5f59062ba6ba2ffed8cfe316b583325ea41ac6e7ba9e5864d2bc6fabba7ac26d2f0f430644e72e131a029b85045b68181585d2833e84879b9709143e1f593f00000017f26b83ff96e1f2b6a682f133852f6798a09c465da95921460cefb38474024983dfe277d2a2c04b75fb2eb3743fa00005ae3678a20c299e65fdf4df76517f68ea5c5790f581d443ed43873ab47cfb8c5d66a6db268e58b5971bb33fc66e07db19b6f082d8d3644ae2f24a3c32e356d6f2d9b2844d9b26164fbc82663ff285951141f8f32ce6198eee741f695cec728bfd32d289f1acf73621fb303581000545ea0fab074aba36a6fa69f1a83ee86e5abfb8433966eb57efb13dc2fc2f24ddd08084e94f375e9d647f87f5b2ceffba1e062c70f6009fdbcf80291e803b5c9edd4a26469706673582212205852eeda437f498b0bdbc880c7dfb3fe1d0947053ae208222c7088b67edf595964736f6c63430008140033",
  "linkReferences": {},
  "deployedLinkReferences": {}
}