{
  "_format": "hh-sol-artifact-1",
  "contractName": "PolygonZkEVMV2Existent",
  "sourceName": "contracts/v2/consensus/zkEVM/PolygonZkEVMV2Existent.sol",
  "abi": [
    {
      "inputs": [
        {
          "internalType": "contract IPolygonZkEVMGlobalExitRoot",
          "name": "_globalExitRootManager",
          "type": "address"
        },
        {
          "internalType": "contract IERC20Upgradeable",
          "name": "_pol",
          "type": "address"
        },
        {
          "internalType": "contract IPolygonZkEVMBridge",
          "name": "_bridgeAddress",
          "type": "address"
        },
        {
          "internalType": "contract PolygonRollupManager",
          "name": "_rollupManager",
          "type": "address"
        }
      ],
      "stateMutability": "nonpayable",
      "type": "constructor"
    },
    {
      "inputs": [],
      "name": "BatchAlreadyVerified",
      "type": "error"
    },
    {
      "inputs": [],
      "name": "BatchNotSequencedOrNotSequenceEnd",
      "type": "error"
    },
    {
      "inputs": [],
      "name": "ExceedMaxVerifyBatches",
      "type": "error"
    },
    {
      "inputs": [],
      "name": "FinalNumBatchBelowLastVerifiedBatch",
      "type": "error"
    },
    {
      "inputs": [],
      "name": "FinalNumBatchDoesNotMatchPendingState",
      "type": "error"
    },
    {
      "inputs": [],
      "name": "FinalPendingStateNumInvalid",
      "type": "error"
    },
    {
      "inputs": [],
      "name": "ForceBatchNotAllowed",
      "type": "error"
    },
    {
      "inputs": [],
      "name": "ForceBatchTimeoutNotExpired",
      "type": "error"
    },
    {
      "inputs": [],
      "name": "ForceBatchesAlreadyActive",
      "type": "error"
    },
    {
      "inputs": [],
      "name": "ForceBatchesOverflow",
      "type": "error"
    },
    {
      "inputs": [],
      "name": "ForcedDataDoesNotMatch",
      "type": "error"
    },
    {
      "inputs": [],
      "name": "GasTokenNetworkMustBeZeroOnEther",
      "type": "error"
    },
    {
      "inputs": [],
      "name": "GlobalExitRootNotExist",
      "type": "error"
    },
    {
      "inputs": [],
      "name": "HaltTimeoutNotExpired",
      "type": "error"
    },
    {
      "inputs": [],
      "name": "InitNumBatchAboveLastVerifiedBatch",
      "type": "error"
    },
    {
      "inputs": [],
      "name": "InitNumBatchDoesNotMatchPendingState",
      "type": "error"
    },
    {
      "inputs": [],
      "name": "InvalidInitializeTransaction",
      "type": "error"
    },
    {
      "inputs": [],
      "name": "InvalidProof",
      "type": "error"
    },
    {
      "inputs": [],
      "name": "InvalidRangeBatchTimeTarget",
      "type": "error"
    },
    {
      "inputs": [],
      "name": "InvalidRangeForceBatchTimeout",
      "type": "error"
    },
    {
      "inputs": [],
      "name": "InvalidRangeMultiplierBatchFee",
      "type": "error"
    },
    {
      "inputs": [],
      "name": "NewAccInputHashDoesNotExist",
      "type": "error"
    },
    {
      "inputs": [],
      "name": "NewPendingStateTimeoutMustBeLower",
      "type": "error"
    },
    {
      "inputs": [],
      "name": "NewStateRootNotInsidePrime",
      "type": "error"
    },
    {
      "inputs": [],
      "name": "NewTrustedAggregatorTimeoutMustBeLower",
      "type": "error"
    },
    {
      "inputs": [],
      "name": "NotEnoughMaticAmount",
      "type": "error"
    },
    {
      "inputs": [],
      "name": "NotEnoughPOLAmount",
      "type": "error"
    },
    {
      "inputs": [],
      "name": "OldAccInputHashDoesNotExist",
      "type": "error"
    },
    {
      "inputs": [],
      "name": "OldStateRootDoesNotExist",
      "type": "error"
    },
    {
      "inputs": [],
      "name": "OnlyAdmin",
      "type": "error"
    },
    {
      "inputs": [],
      "name": "OnlyPendingAdmin",
      "type": "error"
    },
    {
      "inputs": [],
      "name": "OnlyRollupManager",
      "type": "error"
    },
    {
      "inputs": [],
      "name": "OnlyTrustedAggregator",
      "type": "error"
    },
    {
      "inputs": [],
      "name": "OnlyTrustedSequencer",
      "type": "error"
    },
    {
      "inputs": [],
      "name": "PendingStateDoesNotExist",
      "type": "error"
    },
    {
      "inputs": [],
      "name": "PendingStateInvalid",
      "type": "error"
    },
    {
      "inputs": [],
      "name": "PendingStateNotConsolidable",
      "type": "error"
    },
    {
      "inputs": [],
      "name": "PendingStateTimeoutExceedHaltAggregationTimeout",
      "type": "error"
    },
    {
      "inputs": [],
      "name": "SequenceZeroBatches",
      "type": "error"
    },
    {
      "inputs": [],
      "name": "SequencedTimestampBelowForcedTimestamp",
      "type": "error"
    },
    {
      "inputs": [],
      "name": "SequencedTimestampInvalid",
      "type": "error"
    },
    {
      "inputs": [],
      "name": "StoredRootMustBeDifferentThanNewRoot",
      "type": "error"
    },
    {
      "inputs": [],
      "name": "TransactionsLengthAboveMax",
      "type": "error"
    },
    {
      "inputs": [],
      "name": "TrustedAggregatorTimeoutExceedHaltAggregationTimeout",
      "type": "error"
    },
    {
      "inputs": [],
      "name": "TrustedAggregatorTimeoutNotExpired",
      "type": "error"
    },
    {
      "anonymous": false,
      "inputs": [
        {
          "indexed": false,
          "internalType": "address",
          "name": "newAdmin",
          "type": "address"
        }
      ],
      "name": "AcceptAdminRole",
      "type": "event"
    },
    {
      "anonymous": false,
      "inputs": [],
      "name": "ActivateForceBatches",
      "type": "event"
    },
    {
      "anonymous": false,
      "inputs": [
        {
          "indexed": true,
          "internalType": "uint64",
          "name": "forceBatchNum",
          "type": "uint64"
        },
        {
          "indexed": false,
          "internalType": "bytes32",
          "name": "lastGlobalExitRoot",
          "type": "bytes32"
        },
        {
          "indexed": false,
          "internalType": "address",
          "name": "sequencer",
          "type": "address"
        },
        {
          "indexed": false,
          "internalType": "bytes",
          "name": "transactions",
          "type": "bytes"
        }
      ],
      "name": "ForceBatch",
      "type": "event"
    },
    {
      "anonymous": false,
      "inputs": [
        {
          "indexed": false,
          "internalType": "uint8",
          "name": "version",
          "type": "uint8"
        }
      ],
      "name": "Initialized",
      "type": "event"
    },
    {
      "anonymous": false,
      "inputs": [
        {
          "indexed": true,
          "internalType": "uint64",
          "name": "numBatch",
          "type": "uint64"
        }
      ],
      "name": "SequenceBatches",
      "type": "event"
    },
    {
      "anonymous": false,
      "inputs": [
        {
          "indexed": true,
          "internalType": "uint64",
          "name": "numBatch",
          "type": "uint64"
        }
      ],
      "name": "SequenceForceBatches",
      "type": "event"
    },
    {
      "anonymous": false,
      "inputs": [
        {
          "indexed": false,
          "internalType": "uint64",
          "name": "newforceBatchTimeout",
          "type": "uint64"
        }
      ],
      "name": "SetForceBatchTimeout",
      "type": "event"
    },
    {
      "anonymous": false,
      "inputs": [
        {
          "indexed": false,
          "internalType": "address",
          "name": "newTrustedSequencer",
          "type": "address"
        }
      ],
      "name": "SetTrustedSequencer",
      "type": "event"
    },
    {
      "anonymous": false,
      "inputs": [
        {
          "indexed": false,
          "internalType": "string",
          "name": "newTrustedSequencerURL",
          "type": "string"
        }
      ],
      "name": "SetTrustedSequencerURL",
      "type": "event"
    },
    {
      "anonymous": false,
      "inputs": [
        {
          "indexed": false,
          "internalType": "address",
          "name": "newPendingAdmin",
          "type": "address"
        }
      ],
      "name": "TransferAdminRole",
      "type": "event"
    },
    {
      "anonymous": false,
      "inputs": [
        {
          "indexed": true,
          "internalType": "uint64",
          "name": "numBatch",
          "type": "uint64"
        },
        {
          "indexed": false,
          "internalType": "bytes32",
          "name": "stateRoot",
          "type": "bytes32"
        },
        {
          "indexed": true,
          "internalType": "address",
          "name": "aggregator",
          "type": "address"
        }
      ],
      "name": "VerifyBatches",
      "type": "event"
    },
    {
      "inputs": [],
      "name": "BASE_INITIALIZE_TX_BRIDGE",
      "outputs": [
        {
          "internalType": "bytes",
          "name": "",
          "type": "bytes"
        }
      ],
      "stateMutability": "view",
      "type": "function"
    },
    {
      "inputs": [],
      "name": "GLOBAL_EXIT_ROOT_MANAGER_L2",
      "outputs": [
        {
          "internalType": "contract IBasePolygonZkEVMGlobalExitRoot",
          "name": "",
          "type": "address"
        }
      ],
      "stateMutability": "view",
      "type": "function"
    },
    {
      "inputs": [],
      "name": "INITIALIZE_TX_EFFECTIVE_PERCENTAGE",
      "outputs": [
        {
          "internalType": "bytes1",
          "name": "",
          "type": "bytes1"
        }
      ],
      "stateMutability": "view",
      "type": "function"
    },
    {
      "inputs": [],
      "name": "SIGNATURE_INITIALIZE_TX_R",
      "outputs": [
        {
          "internalType": "bytes32",
          "name": "",
          "type": "bytes32"
        }
      ],
      "stateMutability": "view",
      "type": "function"
    },
    {
      "inputs": [],
      "name": "SIGNATURE_INITIALIZE_TX_S",
      "outputs": [
        {
          "internalType": "bytes32",
          "name": "",
          "type": "bytes32"
        }
      ],
      "stateMutability": "view",
      "type": "function"
    },
    {
      "inputs": [],
      "name": "SIGNATURE_INITIALIZE_TX_V",
      "outputs": [
        {
          "internalType": "uint8",
          "name": "",
          "type": "uint8"
        }
      ],
      "stateMutability": "view",
      "type": "function"
    },
    {
      "inputs": [],
      "name": "acceptAdminRole",
      "outputs": [],
      "stateMutability": "nonpayable",
      "type": "function"
    },
    {
      "inputs": [],
      "name": "activateForceBatches",
      "outputs": [],
      "stateMutability": "nonpayable",
      "type": "function"
    },
    {
      "inputs": [],
      "name": "admin",
      "outputs": [
        {
          "internalType": "address",
          "name": "",
          "type": "address"
        }
      ],
      "stateMutability": "view",
      "type": "function"
    },
    {
      "inputs": [],
      "name": "bridgeAddress",
      "outputs": [
        {
          "internalType": "contract IPolygonZkEVMBridge",
          "name": "",
          "type": "address"
        }
      ],
      "stateMutability": "view",
      "type": "function"
    },
    {
      "inputs": [],
      "name": "calculatePolPerForceBatch",
      "outputs": [
        {
          "internalType": "uint256",
          "name": "",
          "type": "uint256"
        }
      ],
      "stateMutability": "view",
      "type": "function"
    },
    {
      "inputs": [
        {
          "internalType": "bytes",
          "name": "transactions",
          "type": "bytes"
        },
        {
          "internalType": "uint256",
          "name": "polAmount",
          "type": "uint256"
        }
      ],
      "name": "forceBatch",
      "outputs": [],
      "stateMutability": "nonpayable",
      "type": "function"
    },
    {
      "inputs": [],
      "name": "forceBatchTimeout",
      "outputs": [
        {
          "internalType": "uint64",
          "name": "",
          "type": "uint64"
        }
      ],
      "stateMutability": "view",
      "type": "function"
    },
    {
      "inputs": [
        {
          "internalType": "uint64",
          "name": "",
          "type": "uint64"
        }
      ],
      "name": "forcedBatches",
      "outputs": [
        {
          "internalType": "bytes32",
          "name": "",
          "type": "bytes32"
        }
      ],
      "stateMutability": "view",
      "type": "function"
    },
    {
      "inputs": [],
      "name": "gasTokenAddress",
      "outputs": [
        {
          "internalType": "address",
          "name": "",
          "type": "address"
        }
      ],
      "stateMutability": "view",
      "type": "function"
    },
    {
      "inputs": [],
      "name": "gasTokenNetwork",
      "outputs": [
        {
          "internalType": "uint32",
          "name": "",
          "type": "uint32"
        }
      ],
      "stateMutability": "view",
      "type": "function"
    },
    {
      "inputs": [
        {
          "internalType": "uint32",
          "name": "networkID",
          "type": "uint32"
        },
        {
          "internalType": "address",
          "name": "_gasTokenAddress",
          "type": "address"
        },
        {
          "internalType": "uint32",
          "name": "_gasTokenNetwork",
          "type": "uint32"
        }
      ],
      "name": "generateInitializeTransaction",
      "outputs": [
        {
          "internalType": "bytes",
          "name": "",
          "type": "bytes"
        }
      ],
      "stateMutability": "pure",
      "type": "function"
    },
    {
      "inputs": [],
      "name": "globalExitRootManager",
      "outputs": [
        {
          "internalType": "contract IPolygonZkEVMGlobalExitRoot",
          "name": "",
          "type": "address"
        }
      ],
      "stateMutability": "view",
      "type": "function"
    },
    {
      "inputs": [
        {
          "internalType": "address",
          "name": "_admin",
          "type": "address"
        },
        {
          "internalType": "address",
          "name": "sequencer",
          "type": "address"
        },
        {
          "internalType": "uint32",
          "name": "networkID",
          "type": "uint32"
        },
        {
          "internalType": "address",
          "name": "_gasTokenAddress",
          "type": "address"
        },
        {
          "internalType": "uint32",
          "name": "_gasTokenNetwork",
          "type": "uint32"
        },
        {
          "internalType": "string",
          "name": "sequencerURL",
          "type": "string"
        },
        {
          "internalType": "string",
          "name": "_networkName",
          "type": "string"
        }
      ],
      "name": "initialize",
      "outputs": [],
      "stateMutability": "nonpayable",
      "type": "function"
    },
    {
      "inputs": [
        {
          "internalType": "address",
          "name": "_admin",
          "type": "address"
        },
        {
          "internalType": "address",
          "name": "_trustedSequencer",
          "type": "address"
        },
        {
          "internalType": "string",
          "name": "_trustedSequencerURL",
          "type": "string"
        },
        {
          "internalType": "string",
          "name": "_networkName",
          "type": "string"
        },
        {
          "internalType": "bytes32",
          "name": "_lastAccInputHash",
          "type": "bytes32"
        },
        {
          "internalType": "uint64",
          "name": "_lastTimestamp",
          "type": "uint64"
        }
      ],
      "name": "initializeUpgrade",
      "outputs": [],
      "stateMutability": "nonpayable",
      "type": "function"
    },
    {
      "inputs": [],
      "name": "isForcedBatchAllowed",
      "outputs": [
        {
          "internalType": "bool",
          "name": "",
          "type": "bool"
        }
      ],
      "stateMutability": "view",
      "type": "function"
    },
    {
      "inputs": [],
      "name": "lastAccInputHash",
      "outputs": [
        {
          "internalType": "bytes32",
          "name": "",
          "type": "bytes32"
        }
      ],
      "stateMutability": "view",
      "type": "function"
    },
    {
      "inputs": [],
      "name": "lastForceBatch",
      "outputs": [
        {
          "internalType": "uint64",
          "name": "",
          "type": "uint64"
        }
      ],
      "stateMutability": "view",
      "type": "function"
    },
    {
      "inputs": [],
      "name": "lastForceBatchSequenced",
      "outputs": [
        {
          "internalType": "uint64",
          "name": "",
          "type": "uint64"
        }
      ],
      "stateMutability": "view",
      "type": "function"
    },
    {
      "inputs": [],
      "name": "lastTimestamp",
      "outputs": [
        {
          "internalType": "uint64",
          "name": "",
          "type": "uint64"
        }
      ],
      "stateMutability": "view",
      "type": "function"
    },
    {
      "inputs": [],
      "name": "networkName",
      "outputs": [
        {
          "internalType": "string",
          "name": "",
          "type": "string"
        }
      ],
      "stateMutability": "view",
      "type": "function"
    },
    {
      "inputs": [
        {
          "internalType": "uint64",
          "name": "lastVerifiedBatch",
          "type": "uint64"
        },
        {
          "internalType": "bytes32",
          "name": "newStateRoot",
          "type": "bytes32"
        },
        {
          "internalType": "address",
          "name": "aggregator",
          "type": "address"
        }
      ],
      "name": "onVerifyBatches",
      "outputs": [],
      "stateMutability": "nonpayable",
      "type": "function"
    },
    {
      "inputs": [],
      "name": "pendingAdmin",
      "outputs": [
        {
          "internalType": "address",
          "name": "",
          "type": "address"
        }
      ],
      "stateMutability": "view",
      "type": "function"
    },
    {
      "inputs": [],
      "name": "pol",
      "outputs": [
        {
          "internalType": "contract IERC20Upgradeable",
          "name": "",
          "type": "address"
        }
      ],
      "stateMutability": "view",
      "type": "function"
    },
    {
      "inputs": [],
      "name": "rollupManager",
      "outputs": [
        {
          "internalType": "contract PolygonRollupManager",
          "name": "",
          "type": "address"
        }
      ],
      "stateMutability": "view",
      "type": "function"
    },
    {
      "inputs": [
        {
          "components": [
            {
              "internalType": "bytes",
              "name": "transactions",
              "type": "bytes"
            },
            {
              "internalType": "bytes32",
              "name": "globalExitRoot",
              "type": "bytes32"
            },
            {
              "internalType": "uint64",
              "name": "timestamp",
              "type": "uint64"
            },
            {
              "internalType": "uint64",
              "name": "minForcedTimestamp",
              "type": "uint64"
            }
          ],
          "internalType": "struct PolygonRollupBase.BatchData[]",
          "name": "batches",
          "type": "tuple[]"
        },
        {
          "internalType": "address",
          "name": "l2Coinbase",
          "type": "address"
        }
      ],
      "name": "sequenceBatches",
      "outputs": [],
      "stateMutability": "nonpayable",
      "type": "function"
    },
    {
      "inputs": [
        {
          "components": [
            {
              "internalType": "bytes",
              "name": "transactions",
              "type": "bytes"
            },
            {
              "internalType": "bytes32",
              "name": "globalExitRoot",
              "type": "bytes32"
            },
            {
              "internalType": "uint64",
              "name": "minForcedTimestamp",
              "type": "uint64"
            }
          ],
          "internalType": "struct PolygonRollupBase.ForcedBatchData[]",
          "name": "batches",
          "type": "tuple[]"
        }
      ],
      "name": "sequenceForceBatches",
      "outputs": [],
      "stateMutability": "nonpayable",
      "type": "function"
    },
    {
      "inputs": [
        {
          "internalType": "uint64",
          "name": "newforceBatchTimeout",
          "type": "uint64"
        }
      ],
      "name": "setForceBatchTimeout",
      "outputs": [],
      "stateMutability": "nonpayable",
      "type": "function"
    },
    {
      "inputs": [
        {
          "internalType": "address",
          "name": "newTrustedSequencer",
          "type": "address"
        }
      ],
      "name": "setTrustedSequencer",
      "outputs": [],
      "stateMutability": "nonpayable",
      "type": "function"
    },
    {
      "inputs": [
        {
          "internalType": "string",
          "name": "newTrustedSequencerURL",
          "type": "string"
        }
      ],
      "name": "setTrustedSequencerURL",
      "outputs": [],
      "stateMutability": "nonpayable",
      "type": "function"
    },
    {
      "inputs": [
        {
          "internalType": "address",
          "name": "newPendingAdmin",
          "type": "address"
        }
      ],
      "name": "transferAdminRole",
      "outputs": [],
      "stateMutability": "nonpayable",
      "type": "function"
    },
    {
      "inputs": [],
      "name": "trustedSequencer",
      "outputs": [
        {
          "internalType": "address",
          "name": "",
          "type": "address"
        }
      ],
      "stateMutability": "view",
      "type": "function"
    },
    {
      "inputs": [],
      "name": "trustedSequencerURL",
      "outputs": [
        {
          "internalType": "string",
          "name": "",
          "type": "string"
        }
      ],
      "stateMutability": "view",
      "type": "function"
    }
  ],
  "bytecode": "0x61010060405234801562000011575f80fd5b5060405162002de838038062002de883398101604081905262000034916200006f565b6001600160a01b0393841660a052918316608052821660c0521660e052620000d4565b6001600160a01b03811681146200006c575f80fd5b50565b5f805f806080858703121562000083575f80fd5b8451620000908162000057565b6020860151909450620000a38162000057565b6040860151909350620000b68162000057565b6060860151909250620000c98162000057565b939692955090935050565b60805160a05160c05160e051612c5b6200018d5f395f818161030e015281816106b40152818161074f0152818161097901528181610abc01528181610fad0152818161104501528181611067015281816111a7015281816115e401528181611a3c01528181611ab80152611b9301525f81816103dc015261112301525f818161047501528181610dc10152611c8f01525f81816104c20152818161054701528181610ff2015281816110f90152611c640152612c5b5ff3fe608060405234801561000f575f80fd5b50600436106101bf575f3560e01c8062d0295d146101c3578063107bf28c146101de57806319d8ac61146101f3578063267822471461021e5780632b35b3ac1461023e57806332c2d1531461025b5780633c351e10146102705780633cbc795b1461028857806340b5de6c146102b457806345605267146102dc57806347ebf108146102f657806349b7b802146103095780634e48770614610330578063542028d5146103435780635e9145c91461034b5780635ec919581461035e5780636b8616ce146103665780636e05d2cd146103855780636ff512cc1461038e5780638c3d7301146103a157806399af0397146103a95780639e001877146103bc578063a3c573eb146103d7578063ada8f919146103fe578063b0afe15414610411578063bb5907081461041d578063c754c7ed14610430578063c89e42df1461044a578063cfa8ed471461045d578063d02103ca14610470578063d690be3114610497578063d7bc90ff1461049f578063d8d1091b146104aa578063e46761c4146104bd578063e7a7ed02146104e4578063eaeb077b146104fe578063f35dda4714610511578063f851a4401461052b575b5f80fd5b6101cb610543565b6040519081526020015b60405180910390f35b6101e6610626565b6040516101d591906121ba565b600754610206906001600160401b031681565b6040516001600160401b0390911681526020016101d5565b600154610231906001600160a01b031681565b6040516101d591906121d3565b60085461024b9060ff1681565b60405190151581526020016101d5565b61026e610269366004612219565b6106b2565b005b6008546102319061010090046001600160a01b031681565b60085461029f90600160a81b900463ffffffff1681565b60405163ffffffff90911681526020016101d5565b6102c36001600160f81b031981565b6040516001600160f81b031990911681526020016101d5565b60075461020690600160801b90046001600160401b031681565b61026e610304366004612303565b61074d565b6102317f000000000000000000000000000000000000000000000000000000000000000081565b61026e61033e3660046123b2565b610a5d565b6101e6610bd1565b61026e610359366004612414565b610bde565b61026e61124e565b6101cb6103743660046123b2565b60066020525f908152604090205481565b6101cb60055481565b61026e61039c36600461245a565b6112d9565b61026e611354565b6101e66103b7366004612473565b6113e0565b61023173a40d5f56745a118d0906a34e69aec8c0db1cb8fa81565b6102317f000000000000000000000000000000000000000000000000000000000000000081565b61026e61040c36600461245a565b611567565b6101cb6405ca1ab1e081565b61026e61042b3660046124aa565b6115e2565b60075461020690600160c01b90046001600160401b031681565b61026e610458366004612545565b611766565b600254610231906001600160a01b031681565b6102317f000000000000000000000000000000000000000000000000000000000000000081565b6101e66117d2565b6101cb635ca1ab1e81565b61026e6104b8366004612576565b6117ee565b6102317f000000000000000000000000000000000000000000000000000000000000000081565b60075461020690600160401b90046001600160401b031681565b61026e61050c3660046125b4565b611b6d565b610519601b81565b60405160ff90911681526020016101d5565b5f54610231906201000090046001600160a01b031681565b5f807f00000000000000000000000000000000000000000000000000000000000000006001600160a01b03166370a08231306040518263ffffffff1660e01b815260040161059191906121d3565b602060405180830381865afa1580156105ac573d5f803e3d5ffd5b505050506040513d601f19601f820116820180604052508101906105d09190612624565b6007549091505f906105fb906001600160401b03600160801b8204811691600160401b90041661264f565b6001600160401b03169050805f03610615575f9250505090565b61061f8183612676565b9250505090565b6004805461063390612695565b80601f016020809104026020016040519081016040528092919081815260200182805461065f90612695565b80156106aa5780601f10610681576101008083540402835291602001916106aa565b820191905f5260205f20905b81548152906001019060200180831161068d57829003601f168201915b505050505081565b7f00000000000000000000000000000000000000000000000000000000000000006001600160a01b031633146106fb57604051631736745960e31b815260040160405180910390fd5b806001600160a01b0316836001600160401b03167f9c72852172521097ba7e1482e6b44b351323df0155f97f4ea18fcec28e1f59668460405161074091815260200190565b60405180910390a3505050565b7f00000000000000000000000000000000000000000000000000000000000000006001600160a01b0316331461079657604051631736745960e31b815260040160405180910390fd5b5f54610100900460ff16158080156107b457505f54600160ff909116105b806107d457506107c330611e5f565b1580156107d457505f5460ff166001145b6107f95760405162461bcd60e51b81526004016107f0906126cd565b60405180910390fd5b5f805460ff19166001179055801561081a575f805461ff0019166101001790555b5f805462010000600160b01b031916620100006001600160a01b038b81169190910291909117909155600280546001600160a01b03191691891691909117905560036108668482612768565b5060046108738382612768565b50600780546001600160c01b0316610d2f60c71b1790556001600160a01b0385166108bd5763ffffffff8416156108bd57604051630d43a60960e11b815260040160405180910390fd5b60088054610100600160c81b0319166101006001600160a01b0388160263ffffffff60a81b191617600160a81b63ffffffff8716021790555f6109018787876113e0565b90505f818051906020012090505f4290505f805f1b835f801b848e604051602001610930959493929190612823565b60408051808303601f19018152908290528051602090910120600780546001600160401b0319166001600160401b0386161790556005819055639a908e7360e01b825291505f907f00000000000000000000000000000000000000000000000000000000000000006001600160a01b031690639a908e73906109b9906001908690600401612862565b6020604051808303815f875af11580156109d5573d5f803e3d5ffd5b505050506040513d601f19601f820116820180604052508101906109f9919061287b565b6040519091506001600160401b038216905f80516020612ba5833981519152905f90a250505050508015610a53575f805461ff0019169055604051600181525f80516020612bc58339815191529060200160405180910390a15b5050505050505050565b5f546201000090046001600160a01b03163314610a8d57604051634755657960e01b815260040160405180910390fd5b62093a806001600160401b0382161115610aba5760405163f5e37f2f60e01b815260040160405180910390fd5b7f00000000000000000000000000000000000000000000000000000000000000006001600160a01b03166315064c966040518163ffffffff1660e01b8152600401602060405180830381865afa158015610b16573d5f803e3d5ffd5b505050506040513d601f19601f82011682018060405250810190610b3a9190612896565b610b74576007546001600160401b03600160c01b909104811690821610610b745760405163f5e37f2f60e01b815260040160405180910390fd5b600780546001600160c01b0316600160c01b6001600160401b038416908102919091179091556040519081527fa7eb6cb8a613eb4e8bddc1ac3d61ec6cf10898760f0b187bcca794c6ca6fa40b906020015b60405180910390a150565b6003805461063390612695565b6002546001600160a01b03163314610c09576040516311e7be1560e01b815260040160405180910390fd5b815f819003610c2b5760405163cb591a5f60e01b815260040160405180910390fd5b6103e8811115610c4e57604051635acfba9d60e11b815260040160405180910390fd5b6007546005546001600160401b0380831692600160801b90041690815f5b85811015610f1c575f898983818110610c8757610c876128b5565b9050602002810190610c9991906128c9565b610ca2906128e7565b805180516020909101206060820151919250906001600160401b031615610d975785610ccd81612974565b9650505f8183602001518460600151604051602001610cee939291906129a1565b60408051601f1981840301815291815281516020928301206001600160401b038a165f90815260069093529120549091508114610d3e5760405163671ebaaf60e11b815260040160405180910390fd5b82606001516001600160401b031683604001516001600160401b03161015610d7957604051633fbd5c3960e11b815260040160405180910390fd5b506001600160401b0386165f90815260066020526040812055610e79565b602082015115801590610e35575060208201516040516312bd9b1960e11b815260048101919091527f00000000000000000000000000000000000000000000000000000000000000006001600160a01b03169063257b3632906024016020604051808303815f875af1158015610e0f573d5f803e3d5ffd5b505050506040513d601f19601f82011682018060405250810190610e339190612624565b155b15610e53576040516373bd668d60e01b815260040160405180910390fd5b8151516201d4c01015610e79576040516328a69b1f60e21b815260040160405180910390fd5b866001600160401b031682604001516001600160401b03161080610ea957504282604001516001600160401b0316115b15610ec7576040516375413c8b60e11b815260040160405180910390fd5b8481836020015184604001518c604051602001610ee8959493929190612823565b6040516020818303038152906040528051906020012094508160400151965050508080610f14906129c4565b915050610c6c565b506007546001600160401b03600160401b90910481169084161115610f545760405163c630a00d60e01b815260040160405180910390fd5b600780546001600160401b0319166001600160401b0386811691909117909155600583905585908281169085161461103f575f610f91838661264f565b9050610fa66001600160401b038216836129dc565b91506110197f0000000000000000000000000000000000000000000000000000000000000000826001600160401b0316610fde610543565b610fe891906129f5565b6001600160a01b037f0000000000000000000000000000000000000000000000000000000000000000169190611e6e565b5060078054600160801b600160c01b031916600160801b6001600160401b038716021790555b611121337f0000000000000000000000000000000000000000000000000000000000000000837f00000000000000000000000000000000000000000000000000000000000000006001600160a01b031663477fa2706040518163ffffffff1660e01b8152600401602060405180830381865afa1580156110c1573d5f803e3d5ffd5b505050506040513d601f19601f820116820180604052508101906110e59190612624565b6110ef91906129f5565b6001600160a01b037f000000000000000000000000000000000000000000000000000000000000000016929190611ed6565b7f00000000000000000000000000000000000000000000000000000000000000006001600160a01b03166379e2cf976040518163ffffffff1660e01b81526004015f604051808303815f87803b158015611179575f80fd5b505af115801561118b573d5f803e3d5ffd5b5050604051639a908e7360e01b81525f92506001600160a01b037f0000000000000000000000000000000000000000000000000000000000000000169150639a908e73906111df908a908890600401612862565b6020604051808303815f875af11580156111fb573d5f803e3d5ffd5b505050506040513d601f19601f8201168201806040525081019061121f919061287b565b6040519091506001600160401b038216905f80516020612ba5833981519152905f90a250505050505050505050565b5f546201000090046001600160a01b0316331461127e57604051634755657960e01b815260040160405180910390fd5b60085460ff16156112a25760405163f6ba91a160e01b815260040160405180910390fd5b6008805460ff191660011790556040517f854dd6ce5a1445c4c54388b21cffd11cf5bba1b9e763aec48ce3da75d617412f905f90a1565b5f546201000090046001600160a01b0316331461130957604051634755657960e01b815260040160405180910390fd5b600280546001600160a01b0319166001600160a01b0383161790556040517ff54144f9611984021529f814a1cb6a41e22c58351510a0d9f7e822618abb9cc090610bc69083906121d3565b6001546001600160a01b0316331461137f5760405163d1ec4b2360e01b815260040160405180910390fd5b6001545f8054620100006001600160a01b0390931692830262010000600160b01b03199091161790556040517f056dc487bbf0795d0bbb1b4f0af523a855503cff740bfb4d5475f7a90c091e8e916113d6916121d3565b60405180910390a1565b60605f604051806060016040528060218152602001612c056021913960405163ffffffff80881660248301526001600160a01b03871660448301528516606482015273a40d5f56745a118d0906a34e69aec8c0db1cb8fa60848201525f60a482015260c40160408051601f19818403018152918152602080830180516001600160e01b03166369a3b57f60e11b179052905161147e93929101612a0c565b60408051601f1981840301815282825280516020808301919091205f80865291850180855252601b928401929092526405ca1ab1e06060840152635ca1ab1e608084015292509060019060a0016020604051602081039080840390855afa1580156114eb573d5f803e3d5ffd5b5050604051601f1901519150506001600160a01b03811661151f5760405163668b0cb360e11b815260040160405180910390fd5b6040515f9061154c9084906405ca1ab1e090635ca1ab1e90601b906001600160f81b031990602001612a3a565b60408051808303601f19018152919052979650505050505050565b5f546201000090046001600160a01b0316331461159757604051634755657960e01b815260040160405180910390fd5b600180546001600160a01b0319166001600160a01b0383161790556040517fa5b56b7906fd0a20e3f35120dd8343db1e12e037a6c90111c7e42885e82a1ce690610bc69083906121d3565b7f00000000000000000000000000000000000000000000000000000000000000006001600160a01b0316331461162b57604051631736745960e31b815260040160405180910390fd5b5f54610100900460ff161580801561164957505f54600160ff909116105b80611669575061165830611e5f565b15801561166957505f5460ff166001145b6116855760405162461bcd60e51b81526004016107f0906126cd565b5f805460ff1916600117905580156116a6575f805461ff0019166101001790555b5f805462010000600160b01b031916620100006001600160a01b038a81169190910291909117909155600280546001600160a01b03191691881691909117905560036116f28682612768565b5060046116ff8582612768565b50600583905560078054610d2f60c71b600160401b600160c01b039091166001600160401b03851617179055801561175d575f805461ff0019169055604051600181525f80516020612bc58339815191529060200160405180910390a15b50505050505050565b5f546201000090046001600160a01b0316331461179657604051634755657960e01b815260040160405180910390fd5b60036117a28282612768565b507f6b8f723a4c7a5335cafae8a598a0aa0301be1387c037dccc085b62add6448b2081604051610bc691906121ba565b604051806060016040528060218152602001612c056021913981565b60085460ff16611811576040516324eff8c360e01b815260040160405180910390fd5b805f8190036118335760405163cb591a5f60e01b815260040160405180910390fd5b6103e881111561185657604051635acfba9d60e11b815260040160405180910390fd5b6007546001600160401b03600160401b820481169161187e918491600160801b900416612a7d565b111561189d5760405163c630a00d60e01b815260040160405180910390fd5b600754600554600160801b9091046001600160401b0316905f5b83811015611a36575f8686838181106118d2576118d26128b5565b90506020028101906118e49190612a90565b6118ed90612aa4565b9050836118f981612974565b825180516020918201208185015160408087015190519499509194505f9361192493869391016129a1565b60408051601f1981840301815291815281516020928301206001600160401b0389165f908152600690935291205490915081146119745760405163671ebaaf60e11b815260040160405180910390fd5b6001600160401b0386165f908152600660205260408120556119976001886129dc565b84036119eb5742600760189054906101000a90046001600160401b031684604001516119c39190612b1e565b6001600160401b031611156119eb5760405163c44a082160e01b815260040160405180910390fd5b848284602001514233604051602001611a08959493929190612823565b6040516020818303038152906040528051906020012094505050508080611a2e906129c4565b9150506118b7565b50611a647f000000000000000000000000000000000000000000000000000000000000000084610fde610543565b6005819055600780546001600160401b03848116600160801b026001600160401b03600160801b03600160c01b0319909216429190911617179055604051639a908e7360e01b81525f906001600160a01b037f00000000000000000000000000000000000000000000000000000000000000001690639a908e7390611aef9087908690600401612862565b6020604051808303815f875af1158015611b0b573d5f803e3d5ffd5b505050506040513d601f19601f82011682018060405250810190611b2f919061287b565b6040519091506001600160401b038216907f648a61dd2438f072f5a1960939abd30f37aea80d2e94c9792ad142d3e0a490a4905f90a2505050505050565b60085460ff16611b90576040516324eff8c360e01b815260040160405180910390fd5b5f7f00000000000000000000000000000000000000000000000000000000000000006001600160a01b031663604691696040518163ffffffff1660e01b8152600401602060405180830381865afa158015611bed573d5f803e3d5ffd5b505050506040513d601f19601f82011682018060405250810190611c119190612624565b905081811115611c3457604051632354600f60e01b815260040160405180910390fd5b611388831115611c57576040516328a69b1f60e21b815260040160405180910390fd5b611c8c6001600160a01b037f000000000000000000000000000000000000000000000000000000000000000016333084611ed6565b5f7f00000000000000000000000000000000000000000000000000000000000000006001600160a01b0316633ed691ef6040518163ffffffff1660e01b8152600401602060405180830381865afa158015611ce9573d5f803e3d5ffd5b505050506040513d601f19601f82011682018060405250810190611d0d9190612624565b60078054919250600160401b9091046001600160401b0316906008611d3183612974565b91906101000a8154816001600160401b0302191690836001600160401b03160217905550508484604051611d66929190612b3e565b604051908190038120611d7f91839042906020016129a1565b60408051808303601f190181529181528151602092830120600754600160401b90046001600160401b03165f9081526006909352912055323303611e0e576007546040805183815233602082015260609181018290525f91810191909152600160401b9091046001600160401b0316905f80516020612be58339815191529060800160405180910390a2611e58565b600760089054906101000a90046001600160401b03166001600160401b03165f80516020612be583398151915282338888604051611e4f9493929190612b4d565b60405180910390a25b5050505050565b6001600160a01b03163b151590565b6040516001600160a01b038316602482015260448101829052611ed190849063a9059cbb60e01b906064015b60408051601f198184030181529190526020810180516001600160e01b03166001600160e01b031990931692909217909152611f14565b505050565b6040516001600160a01b0380851660248301528316604482015260648101829052611f0e9085906323b872dd60e01b90608401611e9a565b50505050565b5f611f68826040518060400160405280602081526020017f5361666545524332303a206c6f772d6c6576656c2063616c6c206661696c6564815250856001600160a01b0316611fe59092919063ffffffff16565b805190915015611ed15780806020019051810190611f869190612896565b611ed15760405162461bcd60e51b815260206004820152602a60248201527f5361666545524332303a204552433230206f7065726174696f6e20646964206e6044820152691bdd081cdd58d8d9595960b21b60648201526084016107f0565b6060611ff384845f85611ffb565b949350505050565b60608247101561205c5760405162461bcd60e51b815260206004820152602660248201527f416464726573733a20696e73756666696369656e742062616c616e636520666f6044820152651c8818d85b1b60d21b60648201526084016107f0565b5f80866001600160a01b031685876040516120779190612b93565b5f6040518083038185875af1925050503d805f81146120b1576040519150601f19603f3d011682016040523d82523d5f602084013e6120b6565b606091505b50915091506120c7878383876120d2565b979650505050505050565b6060831561213e5782515f03612137576120eb85611e5f565b6121375760405162461bcd60e51b815260206004820152601d60248201527f416464726573733a2063616c6c20746f206e6f6e2d636f6e747261637400000060448201526064016107f0565b5081611ff3565b611ff383838151156121535781518083602001fd5b8060405162461bcd60e51b81526004016107f091906121ba565b5f5b8381101561218757818101518382015260200161216f565b50505f910152565b5f81518084526121a681602086016020860161216d565b601f01601f19169290920160200192915050565b602081525f6121cc602083018461218f565b9392505050565b6001600160a01b0391909116815260200190565b6001600160401b03811681146121fb575f80fd5b50565b80356001600160a01b0381168114612214575f80fd5b919050565b5f805f6060848603121561222b575f80fd5b8335612236816121e7565b92506020840135915061224b604085016121fe565b90509250925092565b803563ffffffff81168114612214575f80fd5b634e487b7160e01b5f52604160045260245ffd5b5f82601f83011261228a575f80fd5b81356001600160401b03808211156122a4576122a4612267565b604051601f8301601f19908116603f011681019082821181831017156122cc576122cc612267565b816040528381528660208588010111156122e4575f80fd5b836020870160208301375f602085830101528094505050505092915050565b5f805f805f805f60e0888a031215612319575f80fd5b612322886121fe565b9650612330602089016121fe565b955061233e60408901612254565b945061234c606089016121fe565b935061235a60808901612254565b925060a08801356001600160401b0380821115612375575f80fd5b6123818b838c0161227b565b935060c08a0135915080821115612396575f80fd5b506123a38a828b0161227b565b91505092959891949750929550565b5f602082840312156123c2575f80fd5b81356121cc816121e7565b5f8083601f8401126123dd575f80fd5b5081356001600160401b038111156123f3575f80fd5b6020830191508360208260051b850101111561240d575f80fd5b9250929050565b5f805f60408486031215612426575f80fd5b83356001600160401b0381111561243b575f80fd5b612447868287016123cd565b909450925061224b9050602085016121fe565b5f6020828403121561246a575f80fd5b6121cc826121fe565b5f805f60608486031215612485575f80fd5b61248e84612254565b925061249c602085016121fe565b915061224b60408501612254565b5f805f805f8060c087890312156124bf575f80fd5b6124c8876121fe565b95506124d6602088016121fe565b945060408701356001600160401b03808211156124f1575f80fd5b6124fd8a838b0161227b565b95506060890135915080821115612512575f80fd5b5061251f89828a0161227b565b9350506080870135915060a0870135612537816121e7565b809150509295509295509295565b5f60208284031215612555575f80fd5b81356001600160401b0381111561256a575f80fd5b611ff38482850161227b565b5f8060208385031215612587575f80fd5b82356001600160401b0381111561259c575f80fd5b6125a8858286016123cd565b90969095509350505050565b5f805f604084860312156125c6575f80fd5b83356001600160401b03808211156125dc575f80fd5b818601915086601f8301126125ef575f80fd5b8135818111156125fd575f80fd5b87602082850101111561260e575f80fd5b6020928301989097509590910135949350505050565b5f60208284031215612634575f80fd5b5051919050565b634e487b7160e01b5f52601160045260245ffd5b6001600160401b0382811682821603908082111561266f5761266f61263b565b5092915050565b5f8261269057634e487b7160e01b5f52601260045260245ffd5b500490565b600181811c908216806126a957607f821691505b6020821081036126c757634e487b7160e01b5f52602260045260245ffd5b50919050565b6020808252602e908201527f496e697469616c697a61626c653a20636f6e747261637420697320616c72656160408201526d191e481a5b9a5d1a585b1a5e995960921b606082015260800190565b601f821115611ed1575f81815260208120601f850160051c810160208610156127415750805b601f850160051c820191505b818110156127605782815560010161274d565b505050505050565b81516001600160401b0381111561278157612781612267565b6127958161278f8454612695565b8461271b565b602080601f8311600181146127c8575f84156127b15750858301515b5f19600386901b1c1916600185901b178555612760565b5f85815260208120601f198616915b828110156127f6578886015182559484019460019091019084016127d7565b508582101561281357878501515f19600388901b60f8161c191681555b5050505050600190811b01905550565b9485526020850193909352604084019190915260c01b6001600160c01b0319166060808401919091521b6001600160601b0319166068820152607c0190565b6001600160401b03929092168252602082015260400190565b5f6020828403121561288b575f80fd5b81516121cc816121e7565b5f602082840312156128a6575f80fd5b815180151581146121cc575f80fd5b634e487b7160e01b5f52603260045260245ffd5b5f8235607e198336030181126128dd575f80fd5b9190910192915050565b5f608082360312156128f7575f80fd5b604051608081016001600160401b03808211838310171561291a5761291a612267565b81604052843591508082111561292e575f80fd5b5061293b3682860161227b565b825250602083013560208201526040830135612956816121e7565b60408201526060830135612969816121e7565b606082015292915050565b5f6001600160401b038281166002600160401b031981016129975761299761263b565b6001019392505050565b928352602083019190915260c01b6001600160c01b031916604082015260480190565b5f600182016129d5576129d561263b565b5060010190565b818103818111156129ef576129ef61263b565b92915050565b80820281158282048414176129ef576129ef61263b565b5f8351612a1d81846020880161216d565b835190830190612a3181836020880161216d565b01949350505050565b5f8651612a4b818460208b0161216d565b9190910194855250602084019290925260f81b6001600160f81b03199081166040840152166041820152604201919050565b808201808211156129ef576129ef61263b565b5f8235605e198336030181126128dd575f80fd5b5f60608236031215612ab4575f80fd5b604051606081016001600160401b038082118383101715612ad757612ad7612267565b816040528435915080821115612aeb575f80fd5b50612af83682860161227b565b825250602083013560208201526040830135612b13816121e7565b604082015292915050565b6001600160401b0381811683821601908082111561266f5761266f61263b565b818382375f9101908152919050565b8481526001600160a01b03841660208201526060604082018190528101829052818360808301375f818301608090810191909152601f909201601f191601019392505050565b5f82516128dd81846020870161216d56fe303446e6a8cb73c83dff421c0b1d5e5ce0719dab1bff13660fc254e58cc17fce7f26b83ff96e1f2b6a682f133852f6798a09c465da95921460cefb3847402498f94bb37db835f1ab585ee00041849a09b12cd081d77fa15ca070757619cbc931f8c380808401c9c380942a3dd3eb832af982ec71669e178424b10dca2ede80b8a4a26469706673582212209b216003212743484fff6c6b25161a61690fc600987c4c294267f06f37deddd264736f6c63430008140033",
  "linkReferences": {},
  "deployedLinkReferences": {}
}