{
  "_format": "hh-sol-artifact-1",
  "contractName": "PolygonZkEVMV2Existent",
  "sourceName": "contracts/v2/consensus/zkEVM/PolygonZkEVMV2Existent.sol",
  "abi": [
    {
      "inputs": [
        {
          "internalType": "contract IPolygonZkEVMGlobalExitRoot",
          "name": "_globalExitRootManager",
          "type": "address"
        },
        {
          "internalType": "contract IERC20Upgradeable",
          "name": "_pol",
          "type": "address"
        },
        {
          "internalType": "contract IPolygonZkEVMBridgeV2",
          "name": "_bridgeAddress",
          "type": "address"
        },
        {
          "internalType": "contract PolygonRollupManager",
          "name": "_rollupManager",
          "type": "address"
        }
      ],
      "stateMutability": "nonpayable",
      "type": "constructor"
    },
    {
      "inputs": [],
      "name": "BatchAlreadyVerified",
      "type": "error"
    },
    {
      "inputs": [],
      "name": "BatchNotSequencedOrNotSequenceEnd",
      "type": "error"
    },
    {
      "inputs": [],
      "name": "ExceedMaxVerifyBatches",
      "type": "error"
    },
    {
      "inputs": [],
      "name": "FinalNumBatchBelowLastVerifiedBatch",
      "type": "error"
    },
    {
      "inputs": [],
      "name": "FinalNumBatchDoesNotMatchPendingState",
      "type": "error"
    },
    {
      "inputs": [],
      "name": "FinalPendingStateNumInvalid",
      "type": "error"
    },
    {
      "inputs": [],
      "name": "ForceBatchNotAllowed",
      "type": "error"
    },
    {
      "inputs": [],
      "name": "ForceBatchTimeoutNotExpired",
      "type": "error"
    },
    {
      "inputs": [],
      "name": "ForceBatchesAlreadyActive",
      "type": "error"
    },
    {
      "inputs": [],
      "name": "ForceBatchesOverflow",
      "type": "error"
    },
    {
      "inputs": [],
      "name": "ForcedDataDoesNotMatch",
      "type": "error"
    },
    {
      "inputs": [],
      "name": "GasTokenNetworkMustBeZeroOnEther",
      "type": "error"
    },
    {
      "inputs": [],
      "name": "GlobalExitRootNotExist",
      "type": "error"
    },
    {
      "inputs": [],
      "name": "HaltTimeoutNotExpired",
      "type": "error"
    },
    {
      "inputs": [],
      "name": "HugeTokenMetadataNotSupported",
      "type": "error"
    },
    {
      "inputs": [],
      "name": "InitNumBatchAboveLastVerifiedBatch",
      "type": "error"
    },
    {
      "inputs": [],
      "name": "InitNumBatchDoesNotMatchPendingState",
      "type": "error"
    },
    {
      "inputs": [],
      "name": "InvalidInitializeTransaction",
      "type": "error"
    },
    {
      "inputs": [],
      "name": "InvalidProof",
      "type": "error"
    },
    {
      "inputs": [],
      "name": "InvalidRangeBatchTimeTarget",
      "type": "error"
    },
    {
      "inputs": [],
      "name": "InvalidRangeForceBatchTimeout",
      "type": "error"
    },
    {
      "inputs": [],
      "name": "InvalidRangeMultiplierBatchFee",
      "type": "error"
    },
    {
      "inputs": [],
      "name": "NewAccInputHashDoesNotExist",
      "type": "error"
    },
    {
      "inputs": [],
      "name": "NewPendingStateTimeoutMustBeLower",
      "type": "error"
    },
    {
      "inputs": [],
      "name": "NewStateRootNotInsidePrime",
      "type": "error"
    },
    {
      "inputs": [],
      "name": "NewTrustedAggregatorTimeoutMustBeLower",
      "type": "error"
    },
    {
      "inputs": [],
      "name": "NotEnoughMaticAmount",
      "type": "error"
    },
    {
      "inputs": [],
      "name": "NotEnoughPOLAmount",
      "type": "error"
    },
    {
      "inputs": [],
      "name": "OldAccInputHashDoesNotExist",
      "type": "error"
    },
    {
      "inputs": [],
      "name": "OldStateRootDoesNotExist",
      "type": "error"
    },
    {
      "inputs": [],
      "name": "OnlyAdmin",
      "type": "error"
    },
    {
      "inputs": [],
      "name": "OnlyPendingAdmin",
      "type": "error"
    },
    {
      "inputs": [],
      "name": "OnlyRollupManager",
      "type": "error"
    },
    {
      "inputs": [],
      "name": "OnlyTrustedAggregator",
      "type": "error"
    },
    {
      "inputs": [],
      "name": "OnlyTrustedSequencer",
      "type": "error"
    },
    {
      "inputs": [],
      "name": "PendingStateDoesNotExist",
      "type": "error"
    },
    {
      "inputs": [],
      "name": "PendingStateInvalid",
      "type": "error"
    },
    {
      "inputs": [],
      "name": "PendingStateNotConsolidable",
      "type": "error"
    },
    {
      "inputs": [],
      "name": "PendingStateTimeoutExceedHaltAggregationTimeout",
      "type": "error"
    },
    {
      "inputs": [],
      "name": "SequenceZeroBatches",
      "type": "error"
    },
    {
      "inputs": [],
      "name": "SequencedTimestampBelowForcedTimestamp",
      "type": "error"
    },
    {
      "inputs": [],
      "name": "SequencedTimestampInvalid",
      "type": "error"
    },
    {
      "inputs": [],
      "name": "StoredRootMustBeDifferentThanNewRoot",
      "type": "error"
    },
    {
      "inputs": [],
      "name": "TransactionsLengthAboveMax",
      "type": "error"
    },
    {
      "inputs": [],
      "name": "TrustedAggregatorTimeoutExceedHaltAggregationTimeout",
      "type": "error"
    },
    {
      "inputs": [],
      "name": "TrustedAggregatorTimeoutNotExpired",
      "type": "error"
    },
    {
      "anonymous": false,
      "inputs": [
        {
          "indexed": false,
          "internalType": "address",
          "name": "newAdmin",
          "type": "address"
        }
      ],
      "name": "AcceptAdminRole",
      "type": "event"
    },
    {
      "anonymous": false,
      "inputs": [],
      "name": "ActivateForceBatches",
      "type": "event"
    },
    {
      "anonymous": false,
      "inputs": [
        {
          "indexed": true,
          "internalType": "uint64",
          "name": "forceBatchNum",
          "type": "uint64"
        },
        {
          "indexed": false,
          "internalType": "bytes32",
          "name": "lastGlobalExitRoot",
          "type": "bytes32"
        },
        {
          "indexed": false,
          "internalType": "address",
          "name": "sequencer",
          "type": "address"
        },
        {
          "indexed": false,
          "internalType": "bytes",
          "name": "transactions",
          "type": "bytes"
        }
      ],
      "name": "ForceBatch",
      "type": "event"
    },
    {
      "anonymous": false,
      "inputs": [
        {
          "indexed": false,
          "internalType": "bytes",
          "name": "transactions",
          "type": "bytes"
        },
        {
          "indexed": false,
          "internalType": "bytes32",
          "name": "lastGlobalExitRoot",
          "type": "bytes32"
        },
        {
          "indexed": false,
          "internalType": "address",
          "name": "sequencer",
          "type": "address"
        }
      ],
      "name": "InitialSequenceBatches",
      "type": "event"
    },
    {
      "anonymous": false,
      "inputs": [
        {
          "indexed": false,
          "internalType": "uint8",
          "name": "version",
          "type": "uint8"
        }
      ],
      "name": "Initialized",
      "type": "event"
    },
    {
      "anonymous": false,
      "inputs": [
        {
          "indexed": true,
          "internalType": "uint64",
          "name": "numBatch",
          "type": "uint64"
        }
      ],
      "name": "SequenceBatches",
      "type": "event"
    },
    {
      "anonymous": false,
      "inputs": [
        {
          "indexed": true,
          "internalType": "uint64",
          "name": "numBatch",
          "type": "uint64"
        }
      ],
      "name": "SequenceForceBatches",
      "type": "event"
    },
    {
      "anonymous": false,
      "inputs": [
        {
          "indexed": false,
          "internalType": "uint64",
          "name": "newforceBatchTimeout",
          "type": "uint64"
        }
      ],
      "name": "SetForceBatchTimeout",
      "type": "event"
    },
    {
      "anonymous": false,
      "inputs": [
        {
          "indexed": false,
          "internalType": "address",
          "name": "newTrustedSequencer",
          "type": "address"
        }
      ],
      "name": "SetTrustedSequencer",
      "type": "event"
    },
    {
      "anonymous": false,
      "inputs": [
        {
          "indexed": false,
          "internalType": "string",
          "name": "newTrustedSequencerURL",
          "type": "string"
        }
      ],
      "name": "SetTrustedSequencerURL",
      "type": "event"
    },
    {
      "anonymous": false,
      "inputs": [
        {
          "indexed": false,
          "internalType": "address",
          "name": "newPendingAdmin",
          "type": "address"
        }
      ],
      "name": "TransferAdminRole",
      "type": "event"
    },
    {
      "anonymous": false,
      "inputs": [
        {
          "indexed": true,
          "internalType": "uint64",
          "name": "numBatch",
          "type": "uint64"
        },
        {
          "indexed": false,
          "internalType": "bytes32",
          "name": "stateRoot",
          "type": "bytes32"
        },
        {
          "indexed": true,
          "internalType": "address",
          "name": "aggregator",
          "type": "address"
        }
      ],
      "name": "VerifyBatches",
      "type": "event"
    },
    {
      "inputs": [],
      "name": "GLOBAL_EXIT_ROOT_MANAGER_L2",
      "outputs": [
        {
          "internalType": "contract IBasePolygonZkEVMGlobalExitRoot",
          "name": "",
          "type": "address"
        }
      ],
      "stateMutability": "view",
      "type": "function"
    },
    {
      "inputs": [],
      "name": "INITIALIZE_TX_BRIDGE_LIST_LEN_LEN",
      "outputs": [
        {
          "internalType": "uint8",
          "name": "",
          "type": "uint8"
        }
      ],
      "stateMutability": "view",
      "type": "function"
    },
    {
      "inputs": [],
      "name": "INITIALIZE_TX_BRIDGE_PARAMS",
      "outputs": [
        {
          "internalType": "bytes",
          "name": "",
          "type": "bytes"
        }
      ],
      "stateMutability": "view",
      "type": "function"
    },
    {
      "inputs": [],
      "name": "INITIALIZE_TX_BRIDGE_PARAMS_AFTER_BRIDGE_ADDRESS",
      "outputs": [
        {
          "internalType": "bytes",
          "name": "",
          "type": "bytes"
        }
      ],
      "stateMutability": "view",
      "type": "function"
    },
    {
      "inputs": [],
      "name": "INITIALIZE_TX_CONSTANT_BYTES",
      "outputs": [
        {
          "internalType": "uint16",
          "name": "",
          "type": "uint16"
        }
      ],
      "stateMutability": "view",
      "type": "function"
    },
    {
      "inputs": [],
      "name": "INITIALIZE_TX_EFFECTIVE_PERCENTAGE",
      "outputs": [
        {
          "internalType": "bytes1",
          "name": "",
          "type": "bytes1"
        }
      ],
      "stateMutability": "view",
      "type": "function"
    },
    {
      "inputs": [],
      "name": "SIGNATURE_INITIALIZE_TX_R",
      "outputs": [
        {
          "internalType": "bytes32",
          "name": "",
          "type": "bytes32"
        }
      ],
      "stateMutability": "view",
      "type": "function"
    },
    {
      "inputs": [],
      "name": "SIGNATURE_INITIALIZE_TX_S",
      "outputs": [
        {
          "internalType": "bytes32",
          "name": "",
          "type": "bytes32"
        }
      ],
      "stateMutability": "view",
      "type": "function"
    },
    {
      "inputs": [],
      "name": "SIGNATURE_INITIALIZE_TX_V",
      "outputs": [
        {
          "internalType": "uint8",
          "name": "",
          "type": "uint8"
        }
      ],
      "stateMutability": "view",
      "type": "function"
    },
    {
      "inputs": [],
      "name": "acceptAdminRole",
      "outputs": [],
      "stateMutability": "nonpayable",
      "type": "function"
    },
    {
      "inputs": [],
      "name": "activateForceBatches",
      "outputs": [],
      "stateMutability": "nonpayable",
      "type": "function"
    },
    {
      "inputs": [],
      "name": "admin",
      "outputs": [
        {
          "internalType": "address",
          "name": "",
          "type": "address"
        }
      ],
      "stateMutability": "view",
      "type": "function"
    },
    {
      "inputs": [],
      "name": "bridgeAddress",
      "outputs": [
        {
          "internalType": "contract IPolygonZkEVMBridgeV2",
          "name": "",
          "type": "address"
        }
      ],
      "stateMutability": "view",
      "type": "function"
    },
    {
      "inputs": [],
      "name": "calculatePolPerForceBatch",
      "outputs": [
        {
          "internalType": "uint256",
          "name": "",
          "type": "uint256"
        }
      ],
      "stateMutability": "view",
      "type": "function"
    },
    {
      "inputs": [
        {
          "internalType": "bytes",
          "name": "transactions",
          "type": "bytes"
        },
        {
          "internalType": "uint256",
          "name": "polAmount",
          "type": "uint256"
        }
      ],
      "name": "forceBatch",
      "outputs": [],
      "stateMutability": "nonpayable",
      "type": "function"
    },
    {
      "inputs": [],
      "name": "forceBatchTimeout",
      "outputs": [
        {
          "internalType": "uint64",
          "name": "",
          "type": "uint64"
        }
      ],
      "stateMutability": "view",
      "type": "function"
    },
    {
      "inputs": [
        {
          "internalType": "uint64",
          "name": "",
          "type": "uint64"
        }
      ],
      "name": "forcedBatches",
      "outputs": [
        {
          "internalType": "bytes32",
          "name": "",
          "type": "bytes32"
        }
      ],
      "stateMutability": "view",
      "type": "function"
    },
    {
      "inputs": [],
      "name": "gasTokenAddress",
      "outputs": [
        {
          "internalType": "address",
          "name": "",
          "type": "address"
        }
      ],
      "stateMutability": "view",
      "type": "function"
    },
    {
      "inputs": [],
      "name": "gasTokenNetwork",
      "outputs": [
        {
          "internalType": "uint32",
          "name": "",
          "type": "uint32"
        }
      ],
      "stateMutability": "view",
      "type": "function"
    },
    {
      "inputs": [
        {
          "internalType": "uint32",
          "name": "networkID",
          "type": "uint32"
        },
        {
          "internalType": "address",
          "name": "_gasTokenAddress",
          "type": "address"
        },
        {
          "internalType": "uint32",
          "name": "_gasTokenNetwork",
          "type": "uint32"
        },
        {
          "internalType": "bytes",
          "name": "_gasTokenMetadata",
          "type": "bytes"
        }
      ],
      "name": "generateInitializeTransaction",
      "outputs": [
        {
          "internalType": "bytes",
          "name": "",
          "type": "bytes"
        }
      ],
      "stateMutability": "view",
      "type": "function"
    },
    {
      "inputs": [],
      "name": "globalExitRootManager",
      "outputs": [
        {
          "internalType": "contract IPolygonZkEVMGlobalExitRoot",
          "name": "",
          "type": "address"
        }
      ],
      "stateMutability": "view",
      "type": "function"
    },
    {
      "inputs": [
        {
          "internalType": "address",
          "name": "_admin",
          "type": "address"
        },
        {
          "internalType": "address",
          "name": "sequencer",
          "type": "address"
        },
        {
          "internalType": "uint32",
          "name": "networkID",
          "type": "uint32"
        },
        {
          "internalType": "address",
          "name": "_gasTokenAddress",
          "type": "address"
        },
        {
          "internalType": "string",
          "name": "sequencerURL",
          "type": "string"
        },
        {
          "internalType": "string",
          "name": "_networkName",
          "type": "string"
        }
      ],
      "name": "initialize",
      "outputs": [],
      "stateMutability": "nonpayable",
      "type": "function"
    },
    {
      "inputs": [
        {
          "internalType": "address",
          "name": "_admin",
          "type": "address"
        },
        {
          "internalType": "address",
          "name": "_trustedSequencer",
          "type": "address"
        },
        {
          "internalType": "string",
          "name": "_trustedSequencerURL",
          "type": "string"
        },
        {
          "internalType": "string",
          "name": "_networkName",
          "type": "string"
        },
        {
          "internalType": "bytes32",
          "name": "_lastAccInputHash",
          "type": "bytes32"
        },
        {
          "internalType": "uint64",
          "name": "_lastTimestamp",
          "type": "uint64"
        }
      ],
      "name": "initializeUpgrade",
      "outputs": [],
      "stateMutability": "nonpayable",
      "type": "function"
    },
    {
      "inputs": [],
      "name": "isForcedBatchAllowed",
      "outputs": [
        {
          "internalType": "bool",
          "name": "",
          "type": "bool"
        }
      ],
      "stateMutability": "view",
      "type": "function"
    },
    {
      "inputs": [],
      "name": "lastAccInputHash",
      "outputs": [
        {
          "internalType": "bytes32",
          "name": "",
          "type": "bytes32"
        }
      ],
      "stateMutability": "view",
      "type": "function"
    },
    {
      "inputs": [],
      "name": "lastForceBatch",
      "outputs": [
        {
          "internalType": "uint64",
          "name": "",
          "type": "uint64"
        }
      ],
      "stateMutability": "view",
      "type": "function"
    },
    {
      "inputs": [],
      "name": "lastForceBatchSequenced",
      "outputs": [
        {
          "internalType": "uint64",
          "name": "",
          "type": "uint64"
        }
      ],
      "stateMutability": "view",
      "type": "function"
    },
    {
      "inputs": [],
      "name": "lastTimestamp",
      "outputs": [
        {
          "internalType": "uint64",
          "name": "",
          "type": "uint64"
        }
      ],
      "stateMutability": "view",
      "type": "function"
    },
    {
      "inputs": [],
      "name": "networkName",
      "outputs": [
        {
          "internalType": "string",
          "name": "",
          "type": "string"
        }
      ],
      "stateMutability": "view",
      "type": "function"
    },
    {
      "inputs": [
        {
          "internalType": "uint64",
          "name": "lastVerifiedBatch",
          "type": "uint64"
        },
        {
          "internalType": "bytes32",
          "name": "newStateRoot",
          "type": "bytes32"
        },
        {
          "internalType": "address",
          "name": "aggregator",
          "type": "address"
        }
      ],
      "name": "onVerifyBatches",
      "outputs": [],
      "stateMutability": "nonpayable",
      "type": "function"
    },
    {
      "inputs": [],
      "name": "pendingAdmin",
      "outputs": [
        {
          "internalType": "address",
          "name": "",
          "type": "address"
        }
      ],
      "stateMutability": "view",
      "type": "function"
    },
    {
      "inputs": [],
      "name": "pol",
      "outputs": [
        {
          "internalType": "contract IERC20Upgradeable",
          "name": "",
          "type": "address"
        }
      ],
      "stateMutability": "view",
      "type": "function"
    },
    {
      "inputs": [],
      "name": "rollupManager",
      "outputs": [
        {
          "internalType": "contract PolygonRollupManager",
          "name": "",
          "type": "address"
        }
      ],
      "stateMutability": "view",
      "type": "function"
    },
    {
      "inputs": [
        {
          "components": [
            {
              "internalType": "bytes",
              "name": "transactions",
              "type": "bytes"
            },
            {
              "internalType": "bytes32",
              "name": "globalExitRoot",
              "type": "bytes32"
            },
            {
              "internalType": "uint64",
              "name": "timestamp",
              "type": "uint64"
            },
            {
              "internalType": "uint64",
              "name": "minForcedTimestamp",
              "type": "uint64"
            }
          ],
          "internalType": "struct PolygonRollupBase.BatchData[]",
          "name": "batches",
          "type": "tuple[]"
        },
        {
          "internalType": "address",
          "name": "l2Coinbase",
          "type": "address"
        }
      ],
      "name": "sequenceBatches",
      "outputs": [],
      "stateMutability": "nonpayable",
      "type": "function"
    },
    {
      "inputs": [
        {
          "components": [
            {
              "internalType": "bytes",
              "name": "transactions",
              "type": "bytes"
            },
            {
              "internalType": "bytes32",
              "name": "globalExitRoot",
              "type": "bytes32"
            },
            {
              "internalType": "uint64",
              "name": "minForcedTimestamp",
              "type": "uint64"
            }
          ],
          "internalType": "struct PolygonRollupBase.ForcedBatchData[]",
          "name": "batches",
          "type": "tuple[]"
        }
      ],
      "name": "sequenceForceBatches",
      "outputs": [],
      "stateMutability": "nonpayable",
      "type": "function"
    },
    {
      "inputs": [
        {
          "internalType": "uint64",
          "name": "newforceBatchTimeout",
          "type": "uint64"
        }
      ],
      "name": "setForceBatchTimeout",
      "outputs": [],
      "stateMutability": "nonpayable",
      "type": "function"
    },
    {
      "inputs": [
        {
          "internalType": "address",
          "name": "newTrustedSequencer",
          "type": "address"
        }
      ],
      "name": "setTrustedSequencer",
      "outputs": [],
      "stateMutability": "nonpayable",
      "type": "function"
    },
    {
      "inputs": [
        {
          "internalType": "string",
          "name": "newTrustedSequencerURL",
          "type": "string"
        }
      ],
      "name": "setTrustedSequencerURL",
      "outputs": [],
      "stateMutability": "nonpayable",
      "type": "function"
    },
    {
      "inputs": [
        {
          "internalType": "address",
          "name": "newPendingAdmin",
          "type": "address"
        }
      ],
      "name": "transferAdminRole",
      "outputs": [],
      "stateMutability": "nonpayable",
      "type": "function"
    },
    {
      "inputs": [],
      "name": "trustedSequencer",
      "outputs": [
        {
          "internalType": "address",
          "name": "",
          "type": "address"
        }
      ],
      "stateMutability": "view",
      "type": "function"
    },
    {
      "inputs": [],
      "name": "trustedSequencerURL",
      "outputs": [
        {
          "internalType": "string",
          "name": "",
          "type": "string"
        }
      ],
      "stateMutability": "view",
      "type": "function"
    }
  ],
  "bytecode": "0x6101006040523480156200001257600080fd5b506040516200490b3803806200490b833981016040819052620000359162000071565b6001600160a01b0393841660a052918316608052821660c0521660e052620000d9565b6001600160a01b03811681146200006e57600080fd5b50565b600080600080608085870312156200008857600080fd5b8451620000958162000058565b6020860151909450620000a88162000058565b6040860151909350620000bb8162000058565b6060860151909250620000ce8162000058565b939692955090935050565b60805160a05160c05160e05161475e620001ad600039600081816105040152818161095601528181610ac30152818161121a015281816112e3015281816113050152818161149c0152818161171901528181611cd20152818161239701528181612abc01528181612b8a0152612c7701526000818161060f015281816113dd0152818161197301526120d40152600081816106de01528181610f3d01528181611b280152612dc2015260008181610723015281816107ee0152818161126d015281816113b30152612d96015261475e6000f3fe608060405234801561001057600080fd5b50600436106102d25760003560e01c80636ff512cc11610186578063c754c7ed116100e3578063d8d1091b11610097578063eaeb077b11610071578063eaeb077b14610765578063f35dda4714610778578063f851a4401461078057600080fd5b8063d8d1091b1461070b578063e46761c41461071e578063e7a7ed021461074557600080fd5b8063cfa8ed47116100c8578063cfa8ed47146106b9578063d02103ca146106d9578063d7bc90ff1461070057600080fd5b8063c754c7ed14610676578063c89e42df146106a657600080fd5b8063a3c573eb1161013a578063ada8f9191161011f578063ada8f91914610644578063b0afe15414610657578063bb5907081461066357600080fd5b8063a3c573eb1461060a578063a652f26c1461063157600080fd5b80637a5460c51161016b5780637a5460c5146105ab5780638c3d7301146105e75780639e001877146105ef57600080fd5b80636ff512cc14610585578063712570221461059857600080fd5b80633cbc795b11610234578063542028d5116101e85780635ec91958116101cd5780635ec91958146105545780636b8616ce1461055c5780636e05d2cd1461057c57600080fd5b8063542028d5146105395780635e9145c91461054157600080fd5b8063456052671161021957806345605267146104d757806349b7b802146104ff5780634e4877061461052657600080fd5b80633cbc795b1461044157806340b5de6c1461047f57600080fd5b806319d8ac611161028b5780632b35b3ac116102705780632b35b3ac146103ea57806332c2d153146104075780633c351e101461041c57600080fd5b806319d8ac611461037857806326782247146103a557600080fd5b806305835f37116102bc57806305835f371461030d578063107bf28c1461035657806311e892d41461035e57600080fd5b8062d0295d146102d757806303508963146102f2575b600080fd5b6102df6107a6565b6040519081526020015b60405180910390f35b6102fa602081565b60405161ffff90911681526020016102e9565b6103496040518060400160405280600881526020017f80808401c9c3809400000000000000000000000000000000000000000000000081525081565b6040516102e9919061392e565b6103496108c6565b61036660f981565b60405160ff90911681526020016102e9565b60075461038c9067ffffffffffffffff1681565b60405167ffffffffffffffff90911681526020016102e9565b6001546103c59073ffffffffffffffffffffffffffffffffffffffff1681565b60405173ffffffffffffffffffffffffffffffffffffffff90911681526020016102e9565b6008546103f79060ff1681565b60405190151581526020016102e9565b61041a610415366004613983565b610954565b005b6008546103c590610100900473ffffffffffffffffffffffffffffffffffffffff1681565b60085461046a907501000000000000000000000000000000000000000000900463ffffffff1681565b60405163ffffffff90911681526020016102e9565b6104a67fff0000000000000000000000000000000000000000000000000000000000000081565b6040517fff0000000000000000000000000000000000000000000000000000000000000090911681526020016102e9565b60075461038c90700100000000000000000000000000000000900467ffffffffffffffff1681565b6103c57f000000000000000000000000000000000000000000000000000000000000000081565b61041a6105343660046139c5565b610a23565b610349610c3d565b61041a61054f366004613a2e565b610c4a565b61041a611563565b6102df61056a3660046139c5565b60066020526000908152604090205481565b6102df60055481565b61041a610593366004613a7a565b61164d565b61041a6105a6366004613bc3565b611717565b6103496040518060400160405280600281526020017f80b900000000000000000000000000000000000000000000000000000000000081525081565b61041a611ece565b6103c573a40d5f56745a118d0906a34e69aec8c0db1cb8fa81565b6103c57f000000000000000000000000000000000000000000000000000000000000000081565b61034961063f366004613c70565b611fa1565b61041a610652366004613a7a565b6122cb565b6102df6405ca1ab1e081565b61041a610671366004613ce5565b612395565b60075461038c907801000000000000000000000000000000000000000000000000900467ffffffffffffffff1681565b61041a6106b4366004613d8b565b61266d565b6002546103c59073ffffffffffffffffffffffffffffffffffffffff1681565b6103c57f000000000000000000000000000000000000000000000000000000000000000081565b6102df635ca1ab1e81565b61041a610719366004613dc0565b612700565b6103c57f000000000000000000000000000000000000000000000000000000000000000081565b60075461038c9068010000000000000000900467ffffffffffffffff1681565b61041a610773366004613e02565b612c37565b610366601b81565b6000546103c59062010000900473ffffffffffffffffffffffffffffffffffffffff1681565b6040517f70a08231000000000000000000000000000000000000000000000000000000008152306004820152600090819073ffffffffffffffffffffffffffffffffffffffff7f000000000000000000000000000000000000000000000000000000000000000016906370a0823190602401602060405180830381865afa158015610835573d6000803e3d6000fd5b505050506040513d601f19601f820116820180604052508101906108599190613e7a565b6007549091506000906108989067ffffffffffffffff700100000000000000000000000000000000820481169168010000000000000000900416613ec2565b67ffffffffffffffff169050806000036108b55760009250505090565b6108bf8183613eea565b9250505090565b600480546108d390613f25565b80601f01602080910402602001604051908101604052809291908181526020018280546108ff90613f25565b801561094c5780601f106109215761010080835404028352916020019161094c565b820191906000526020600020905b81548152906001019060200180831161092f57829003601f168201915b505050505081565b7f000000000000000000000000000000000000000000000000000000000000000073ffffffffffffffffffffffffffffffffffffffff1633146109c3576040517fb9b3a2c800000000000000000000000000000000000000000000000000000000815260040160405180910390fd5b8073ffffffffffffffffffffffffffffffffffffffff168367ffffffffffffffff167f9c72852172521097ba7e1482e6b44b351323df0155f97f4ea18fcec28e1f596684604051610a1691815260200190565b60405180910390a3505050565b60005462010000900473ffffffffffffffffffffffffffffffffffffffff163314610a7a576040517f4755657900000000000000000000000000000000000000000000000000000000815260040160405180910390fd5b62093a8067ffffffffffffffff82161115610ac1576040517ff5e37f2f00000000000000000000000000000000000000000000000000000000815260040160405180910390fd5b7f000000000000000000000000000000000000000000000000000000000000000073ffffffffffffffffffffffffffffffffffffffff166315064c966040518163ffffffff1660e01b8152600401602060405180830381865afa158015610b2c573d6000803e3d6000fd5b505050506040513d601f19601f82011682018060405250810190610b509190613f78565b610bb95760075467ffffffffffffffff7801000000000000000000000000000000000000000000000000909104811690821610610bb9576040517ff5e37f2f00000000000000000000000000000000000000000000000000000000815260040160405180910390fd5b6007805477ffffffffffffffffffffffffffffffffffffffffffffffff16780100000000000000000000000000000000000000000000000067ffffffffffffffff8416908102919091179091556040519081527fa7eb6cb8a613eb4e8bddc1ac3d61ec6cf10898760f0b187bcca794c6ca6fa40b906020015b60405180910390a150565b600380546108d390613f25565b60025473ffffffffffffffffffffffffffffffffffffffff163314610c9b576040517f11e7be1500000000000000000000000000000000000000000000000000000000815260040160405180910390fd5b816000819003610cd7576040517fcb591a5f00000000000000000000000000000000000000000000000000000000815260040160405180910390fd5b6103e8811115610d13576040517fb59f753a00000000000000000000000000000000000000000000000000000000815260040160405180910390fd5b60075460055467ffffffffffffffff80831692700100000000000000000000000000000000900416908160005b8581101561114f576000898983818110610d5c57610d5c613f9a565b9050602002810190610d6e9190613fc9565b610d7790614007565b8051805160209091012060608201519192509067ffffffffffffffff1615610efa5785610da381614098565b96505060008183602001518460600151604051602001610dfb93929190928352602083019190915260c01b7fffffffffffffffff00000000000000000000000000000000000000000000000016604082015260480190565b604080517fffffffffffffffffffffffffffffffffffffffffffffffffffffffffffffffe0818403018152918152815160209283012067ffffffffffffffff8a16600090815260069093529120549091508114610e84576040517fce3d755e00000000000000000000000000000000000000000000000000000000815260040160405180910390fd5b826060015167ffffffffffffffff16836040015167ffffffffffffffff161015610eda576040517f7f7ab87200000000000000000000000000000000000000000000000000000000815260040160405180910390fd5b5067ffffffffffffffff8616600090815260066020526040812055611037565b602082015115801590610fc1575060208201516040517f257b363200000000000000000000000000000000000000000000000000000000815260048101919091527f000000000000000000000000000000000000000000000000000000000000000073ffffffffffffffffffffffffffffffffffffffff169063257b3632906024016020604051808303816000875af1158015610f9b573d6000803e3d6000fd5b505050506040513d601f19601f82011682018060405250810190610fbf9190613e7a565b155b15610ff8576040517f73bd668d00000000000000000000000000000000000000000000000000000000815260040160405180910390fd5b8151516201d4c01015611037576040517fa29a6c7c00000000000000000000000000000000000000000000000000000000815260040160405180910390fd5b8667ffffffffffffffff16826040015167ffffffffffffffff16108061106a575042826040015167ffffffffffffffff16115b156110a1576040517fea82791600000000000000000000000000000000000000000000000000000000815260040160405180910390fd5b602082810151604080850151815193840189905290830184905260608084019290925260c01b7fffffffffffffffff0000000000000000000000000000000000000000000000001660808301528a901b7fffffffffffffffffffffffffffffffffffffffff000000000000000000000000166088820152609c016040516020818303038152906040528051906020012094508160400151965050508080611147906140bf565b915050610d40565b5060075467ffffffffffffffff68010000000000000000909104811690841611156111a6576040517fc630a00d00000000000000000000000000000000000000000000000000000000815260040160405180910390fd5b600780547fffffffffffffffffffffffffffffffffffffffffffffffff00000000000000001667ffffffffffffffff8681169190911790915560058390558590828116908516146112dd5760006111fd8386613ec2565b905061121367ffffffffffffffff8216836140f7565b91506112947f00000000000000000000000000000000000000000000000000000000000000008267ffffffffffffffff1661124c6107a6565b611256919061410a565b73ffffffffffffffffffffffffffffffffffffffff7f0000000000000000000000000000000000000000000000000000000000000000169190613026565b50600780547fffffffffffffffff0000000000000000ffffffffffffffffffffffffffffffff1670010000000000000000000000000000000067ffffffffffffffff8716021790555b6113db337f0000000000000000000000000000000000000000000000000000000000000000837f000000000000000000000000000000000000000000000000000000000000000073ffffffffffffffffffffffffffffffffffffffff1663477fa2706040518163ffffffff1660e01b8152600401602060405180830381865afa15801561136e573d6000803e3d6000fd5b505050506040513d601f19601f820116820180604052508101906113929190613e7a565b61139c919061410a565b73ffffffffffffffffffffffffffffffffffffffff7f0000000000000000000000000000000000000000000000000000000000000000169291906130ff565b7f000000000000000000000000000000000000000000000000000000000000000073ffffffffffffffffffffffffffffffffffffffff166379e2cf976040518163ffffffff1660e01b8152600401600060405180830381600087803b15801561144357600080fd5b505af1158015611457573d6000803e3d6000fd5b50506040517f9a908e7300000000000000000000000000000000000000000000000000000000815267ffffffffffffffff8916600482015260248101869052600092507f000000000000000000000000000000000000000000000000000000000000000073ffffffffffffffffffffffffffffffffffffffff169150639a908e73906044016020604051808303816000875af11580156114fb573d6000803e3d6000fd5b505050506040513d601f19601f8201168201806040525081019061151f9190614121565b60405190915067ffffffffffffffff8216907f303446e6a8cb73c83dff421c0b1d5e5ce0719dab1bff13660fc254e58cc17fce90600090a250505050505050505050565b60005462010000900473ffffffffffffffffffffffffffffffffffffffff1633146115ba576040517f4755657900000000000000000000000000000000000000000000000000000000815260040160405180910390fd5b60085460ff16156115f7576040517ff6ba91a100000000000000000000000000000000000000000000000000000000815260040160405180910390fd5b600880547fffffffffffffffffffffffffffffffffffffffffffffffffffffffffffffff001660011790556040517f854dd6ce5a1445c4c54388b21cffd11cf5bba1b9e763aec48ce3da75d617412f90600090a1565b60005462010000900473ffffffffffffffffffffffffffffffffffffffff1633146116a4576040517f4755657900000000000000000000000000000000000000000000000000000000815260040160405180910390fd5b600280547fffffffffffffffffffffffff00000000000000000000000000000000000000001673ffffffffffffffffffffffffffffffffffffffff83169081179091556040519081527ff54144f9611984021529f814a1cb6a41e22c58351510a0d9f7e822618abb9cc090602001610c32565b7f000000000000000000000000000000000000000000000000000000000000000073ffffffffffffffffffffffffffffffffffffffff163314611786576040517fb9b3a2c800000000000000000000000000000000000000000000000000000000815260040160405180910390fd5b600054610100900460ff16158080156117a65750600054600160ff909116105b806117c05750303b1580156117c0575060005460ff166001145b611851576040517f08c379a000000000000000000000000000000000000000000000000000000000815260206004820152602e60248201527f496e697469616c697a61626c653a20636f6e747261637420697320616c72656160448201527f647920696e697469616c697a656400000000000000000000000000000000000060648201526084015b60405180910390fd5b600080547fffffffffffffffffffffffffffffffffffffffffffffffffffffffffffffff0016600117905580156118af57600080547fffffffffffffffffffffffffffffffffffffffffffffffffffffffffffff00ff166101001790555b606073ffffffffffffffffffffffffffffffffffffffff851615611ac4576118d685613163565b6118df86613273565b6118e88761337a565b6040516020016118fa9392919061413e565b604080517fffffffffffffffffffffffffffffffffffffffffffffffffffffffffffffffe0818403018152908290527f318aee3d00000000000000000000000000000000000000000000000000000000825273ffffffffffffffffffffffffffffffffffffffff878116600484015290925060009182917f0000000000000000000000000000000000000000000000000000000000000000169063318aee3d9060240160408051808303816000875af11580156119bb573d6000803e3d6000fd5b505050506040513d601f19601f820116820180604052508101906119df9190614177565b915091508163ffffffff16600014611a7c57600880547fffffffffffffff000000000000000000000000000000000000000000000000ff1661010073ffffffffffffffffffffffffffffffffffffffff8416027fffffffffffffff00000000ffffffffffffffffffffffffffffffffffffffffff1617750100000000000000000000000000000000000000000063ffffffff851602179055611ac1565b600880547fffffffffffffffffffffff0000000000000000000000000000000000000000ff1661010073ffffffffffffffffffffffffffffffffffffffff8a16021790555b50505b600854600090611b11908890610100810473ffffffffffffffffffffffffffffffffffffffff16907501000000000000000000000000000000000000000000900463ffffffff1685611fa1565b9050600081805190602001209050600042905060007f000000000000000000000000000000000000000000000000000000000000000073ffffffffffffffffffffffffffffffffffffffff16633ed691ef6040518163ffffffff1660e01b8152600401602060405180830381865afa158015611b91573d6000803e3d6000fd5b505050506040513d601f19601f82011682018060405250810190611bb59190613e7a565b60408051600060208201819052918101869052606080820184905260c086901b7fffffffffffffffff0000000000000000000000000000000000000000000000001660808301528e901b7fffffffffffffffffffffffffffffffffffffffff00000000000000000000000016608882015291925090609c01604080518083037fffffffffffffffffffffffffffffffffffffffffffffffffffffffffffffffe0018152908290528051602090910120600780547fffffffffffffffffffffffffffffffffffffffffffffffff00000000000000001667ffffffffffffffff871617905560058190557f9a908e73000000000000000000000000000000000000000000000000000000008252600160048301526024820181905291507f000000000000000000000000000000000000000000000000000000000000000073ffffffffffffffffffffffffffffffffffffffff1690639a908e73906044016020604051808303816000875af1158015611d30573d6000803e3d6000fd5b505050506040513d601f19601f82011682018060405250810190611d549190614121565b508c600060026101000a81548173ffffffffffffffffffffffffffffffffffffffff021916908373ffffffffffffffffffffffffffffffffffffffff1602179055508b600260006101000a81548173ffffffffffffffffffffffffffffffffffffffff021916908373ffffffffffffffffffffffffffffffffffffffff1602179055508860039081611de691906141ff565b506004611df389826141ff565b5062069780600760186101000a81548167ffffffffffffffff021916908367ffffffffffffffff1602179055507f060116213bcbf54ca19fd649dc84b59ab2bbd200ab199770e4d923e222a28e7f85838e604051611e5393929190614319565b60405180910390a15050505050508015611ec557600080547fffffffffffffffffffffffffffffffffffffffffffffffffffffffffffff00ff169055604051600181527f7f26b83ff96e1f2b6a682f133852f6798a09c465da95921460cefb3847402498906020015b60405180910390a15b50505050505050565b60015473ffffffffffffffffffffffffffffffffffffffff163314611f1f576040517fd1ec4b2300000000000000000000000000000000000000000000000000000000815260040160405180910390fd5b600154600080547fffffffffffffffffffff0000000000000000000000000000000000000000ffff1673ffffffffffffffffffffffffffffffffffffffff9092166201000081029290921790556040519081527f056dc487bbf0795d0bbb1b4f0af523a855503cff740bfb4d5475f7a90c091e8e9060200160405180910390a1565b6060600085858573a40d5f56745a118d0906a34e69aec8c0db1cb8fa600087604051602401611fd596959493929190614358565b604080517fffffffffffffffffffffffffffffffffffffffffffffffffffffffffffffffe08184030181529190526020810180517bffffffffffffffffffffffffffffffffffffffffffffffffffffffff167ff811bff700000000000000000000000000000000000000000000000000000000179052805190915061ffff101561208b576040517f248b8f8200000000000000000000000000000000000000000000000000000000815260040160405180910390fd5b8051600060f961209c6020846143bb565b6040518060400160405280600881526020017f80808401c9c380940000000000000000000000000000000000000000000000008152507f00000000000000000000000000000000000000000000000000000000000000006040518060400160405280600281526020017f80b9000000000000000000000000000000000000000000000000000000000000815250868860405160200161214197969594939291906143d6565b604080517fffffffffffffffffffffffffffffffffffffffffffffffffffffffffffffffe08184030181528282528051602080830191909120600080865291850180855252601b928401929092526405ca1ab1e06060840152635ca1ab1e608084015292509060019060a0016020604051602081039080840390855afa1580156121cf573d6000803e3d6000fd5b50506040517fffffffffffffffffffffffffffffffffffffffffffffffffffffffffffffffe0015191505073ffffffffffffffffffffffffffffffffffffffff8116612247576040517fcd16196600000000000000000000000000000000000000000000000000000000815260040160405180910390fd5b60405160009061228d9084906405ca1ab1e090635ca1ab1e90601b907fff00000000000000000000000000000000000000000000000000000000000000906020016144b9565b604080517fffffffffffffffffffffffffffffffffffffffffffffffffffffffffffffffe0818403018152919052955050505050505b949350505050565b60005462010000900473ffffffffffffffffffffffffffffffffffffffff163314612322576040517f4755657900000000000000000000000000000000000000000000000000000000815260040160405180910390fd5b600180547fffffffffffffffffffffffff00000000000000000000000000000000000000001673ffffffffffffffffffffffffffffffffffffffff83169081179091556040519081527fa5b56b7906fd0a20e3f35120dd8343db1e12e037a6c90111c7e42885e82a1ce690602001610c32565b7f000000000000000000000000000000000000000000000000000000000000000073ffffffffffffffffffffffffffffffffffffffff163314612404576040517fb9b3a2c800000000000000000000000000000000000000000000000000000000815260040160405180910390fd5b600054610100900460ff16158080156124245750600054600160ff909116105b8061243e5750303b15801561243e575060005460ff166001145b6124ca576040517f08c379a000000000000000000000000000000000000000000000000000000000815260206004820152602e60248201527f496e697469616c697a61626c653a20636f6e747261637420697320616c72656160448201527f647920696e697469616c697a65640000000000000000000000000000000000006064820152608401611848565b600080547fffffffffffffffffffffffffffffffffffffffffffffffffffffffffffffff00166001179055801561252857600080547fffffffffffffffffffffffffffffffffffffffffffffffffffffffffffff00ff166101001790555b600080547fffffffffffffffffffff0000000000000000000000000000000000000000ffff166201000073ffffffffffffffffffffffffffffffffffffffff8a81169190910291909117909155600280547fffffffffffffffffffffffff00000000000000000000000000000000000000001691881691909117905560036125b086826141ff565b5060046125bd85826141ff565b506005839055600780547a06978000000000000000000000000000000000000000000000000077ffffffffffffffffffffffffffffffff000000000000000090911667ffffffffffffffff8516171790558015611ec557600080547fffffffffffffffffffffffffffffffffffffffffffffffffffffffffffff00ff169055604051600181527f7f26b83ff96e1f2b6a682f133852f6798a09c465da95921460cefb384740249890602001611ebc565b60005462010000900473ffffffffffffffffffffffffffffffffffffffff1633146126c4576040517f4755657900000000000000000000000000000000000000000000000000000000815260040160405180910390fd5b60036126d082826141ff565b507f6b8f723a4c7a5335cafae8a598a0aa0301be1387c037dccc085b62add6448b2081604051610c32919061392e565b60085460ff1661273c576040517f24eff8c300000000000000000000000000000000000000000000000000000000815260040160405180910390fd5b806000819003612778576040517fcb591a5f00000000000000000000000000000000000000000000000000000000815260040160405180910390fd5b6103e88111156127b4576040517fb59f753a00000000000000000000000000000000000000000000000000000000815260040160405180910390fd5b60075467ffffffffffffffff6801000000000000000082048116916127ef918491700100000000000000000000000000000000900416614515565b1115612827576040517fc630a00d00000000000000000000000000000000000000000000000000000000815260040160405180910390fd5b60075460055470010000000000000000000000000000000090910467ffffffffffffffff169060005b83811015612ab657600086868381811061286c5761286c613f9a565b905060200281019061287e9190614528565b6128879061455c565b90508361289381614098565b825180516020918201208185015160408087015190519499509194506000936128f59386939101928352602083019190915260c01b7fffffffffffffffff00000000000000000000000000000000000000000000000016604082015260480190565b604080517fffffffffffffffffffffffffffffffffffffffffffffffffffffffffffffffe0818403018152918152815160209283012067ffffffffffffffff891660009081526006909352912054909150811461297e576040517fce3d755e00000000000000000000000000000000000000000000000000000000815260040160405180910390fd5b67ffffffffffffffff86166000908152600660205260408120556129a36001886140f7565b8403612a125742600760189054906101000a900467ffffffffffffffff1684604001516129d091906145da565b67ffffffffffffffff161115612a12576040517fc44a082100000000000000000000000000000000000000000000000000000000815260040160405180910390fd5b6020838101516040805192830188905282018490526060808301919091524260c01b7fffffffffffffffff00000000000000000000000000000000000000000000000016608083015233901b7fffffffffffffffffffffffffffffffffffffffff000000000000000000000000166088820152609c016040516020818303038152906040528051906020012094505050508080612aae906140bf565b915050612850565b50612ae47f00000000000000000000000000000000000000000000000000000000000000008461124c6107a6565b60058190556007805467ffffffffffffffff848116700100000000000000000000000000000000027fffffffffffffffff0000000000000000ffffffffffffffff000000000000000090921642821617919091179091556040517f9a908e7300000000000000000000000000000000000000000000000000000000815290841660048201526024810182905260009073ffffffffffffffffffffffffffffffffffffffff7f00000000000000000000000000000000000000000000000000000000000000001690639a908e73906044016020604051808303816000875af1158015612bd3573d6000803e3d6000fd5b505050506040513d601f19601f82011682018060405250810190612bf79190614121565b60405190915067ffffffffffffffff8216907f648a61dd2438f072f5a1960939abd30f37aea80d2e94c9792ad142d3e0a490a490600090a2505050505050565b60085460ff16612c73576040517f24eff8c300000000000000000000000000000000000000000000000000000000815260040160405180910390fd5b60007f000000000000000000000000000000000000000000000000000000000000000073ffffffffffffffffffffffffffffffffffffffff1663604691696040518163ffffffff1660e01b8152600401602060405180830381865afa158015612ce0573d6000803e3d6000fd5b505050506040513d601f19601f82011682018060405250810190612d049190613e7a565b905081811115612d40576040517f2354600f00000000000000000000000000000000000000000000000000000000815260040160405180910390fd5b611388831115612d7c576040517fa29a6c7c00000000000000000000000000000000000000000000000000000000815260040160405180910390fd5b612dbe73ffffffffffffffffffffffffffffffffffffffff7f0000000000000000000000000000000000000000000000000000000000000000163330846130ff565b60007f000000000000000000000000000000000000000000000000000000000000000073ffffffffffffffffffffffffffffffffffffffff16633ed691ef6040518163ffffffff1660e01b8152600401602060405180830381865afa158015612e2b573d6000803e3d6000fd5b505050506040513d601f19601f82011682018060405250810190612e4f9190613e7a565b600780549192506801000000000000000090910467ffffffffffffffff16906008612e7983614098565b91906101000a81548167ffffffffffffffff021916908367ffffffffffffffff160217905550508484604051612eb09291906145fb565b60408051918290038220602083015281018290527fffffffffffffffff0000000000000000000000000000000000000000000000004260c01b166060820152606801604080518083037fffffffffffffffffffffffffffffffffffffffffffffffffffffffffffffffe0018152918152815160209283012060075468010000000000000000900467ffffffffffffffff1660009081526006909352912055323303612fc0576007546040805183815233602082015260609181018290526000918101919091526801000000000000000090910467ffffffffffffffff16907ff94bb37db835f1ab585ee00041849a09b12cd081d77fa15ca070757619cbc9319060800160405180910390a261301f565b600760089054906101000a900467ffffffffffffffff1667ffffffffffffffff167ff94bb37db835f1ab585ee00041849a09b12cd081d77fa15ca070757619cbc93182338888604051613016949392919061460b565b60405180910390a25b5050505050565b60405173ffffffffffffffffffffffffffffffffffffffff83166024820152604481018290526130fa9084907fa9059cbb00000000000000000000000000000000000000000000000000000000906064015b604080517fffffffffffffffffffffffffffffffffffffffffffffffffffffffffffffffe08184030181529190526020810180517bffffffffffffffffffffffffffffffffffffffffffffffffffffffff167fffffffff000000000000000000000000000000000000000000000000000000009093169290921790915261346d565b505050565b60405173ffffffffffffffffffffffffffffffffffffffff8085166024830152831660448201526064810182905261315d9085907f23b872dd0000000000000000000000000000000000000000000000000000000090608401613078565b50505050565b60408051600481526024810182526020810180517bffffffffffffffffffffffffffffffffffffffffffffffffffffffff167f06fdde03000000000000000000000000000000000000000000000000000000001790529051606091600091829173ffffffffffffffffffffffffffffffffffffffff8616916131e5919061467c565b600060405180830381855afa9150503d8060008114613220576040519150601f19603f3d011682016040523d82523d6000602084013e613225565b606091505b50915091508161326a576040518060400160405280600781526020017f4e4f5f4e414d45000000000000000000000000000000000000000000000000008152506122c3565b6122c381613579565b60408051600481526024810182526020810180517bffffffffffffffffffffffffffffffffffffffffffffffffffffffff167f95d89b41000000000000000000000000000000000000000000000000000000001790529051606091600091829173ffffffffffffffffffffffffffffffffffffffff8616916132f5919061467c565b600060405180830381855afa9150503d8060008114613330576040519150601f19603f3d011682016040523d82523d6000602084013e613335565b606091505b50915091508161326a576040518060400160405280600981526020017f4e4f5f53594d424f4c00000000000000000000000000000000000000000000008152506122c3565b60408051600481526024810182526020810180517bffffffffffffffffffffffffffffffffffffffffffffffffffffffff167f313ce5670000000000000000000000000000000000000000000000000000000017905290516000918291829173ffffffffffffffffffffffffffffffffffffffff8616916133fb919061467c565b600060405180830381855afa9150503d8060008114613436576040519150601f19603f3d011682016040523d82523d6000602084013e61343b565b606091505b509150915081801561344e575080516020145b6134595760126122c3565b808060200190518101906122c3919061468e565b60006134cf826040518060400160405280602081526020017f5361666545524332303a206c6f772d6c6576656c2063616c6c206661696c65648152508573ffffffffffffffffffffffffffffffffffffffff1661374f9092919063ffffffff16565b8051909150156130fa57808060200190518101906134ed9190613f78565b6130fa576040517f08c379a000000000000000000000000000000000000000000000000000000000815260206004820152602a60248201527f5361666545524332303a204552433230206f7065726174696f6e20646964206e60448201527f6f742073756363656564000000000000000000000000000000000000000000006064820152608401611848565b6060604082511061359e578180602001905181019061359891906146b1565b92915050565b81516020036137165760005b6020811080156135f157508281815181106135c7576135c7613f9a565b01602001517fff000000000000000000000000000000000000000000000000000000000000001615155b156136085780613600816140bf565b9150506135aa565b8060000361364b57505060408051808201909152601281527f4e4f545f56414c49445f454e434f44494e4700000000000000000000000000006020820152919050565b60008167ffffffffffffffff81111561366657613666613aa9565b6040519080825280601f01601f191660200182016040528015613690576020820181803683370190505b50905060005b8281101561370e578481815181106136b0576136b0613f9a565b602001015160f81c60f81b8282815181106136cd576136cd613f9a565b60200101907effffffffffffffffffffffffffffffffffffffffffffffffffffffffffffff1916908160001a90535080613706816140bf565b915050613696565b509392505050565b505060408051808201909152601281527f4e4f545f56414c49445f454e434f44494e470000000000000000000000000000602082015290565b60606122c38484600085856000808673ffffffffffffffffffffffffffffffffffffffff168587604051613783919061467c565b60006040518083038185875af1925050503d80600081146137c0576040519150601f19603f3d011682016040523d82523d6000602084013e6137c5565b606091505b50915091506137d6878383876137e1565b979650505050505050565b606083156138775782516000036138705773ffffffffffffffffffffffffffffffffffffffff85163b613870576040517f08c379a000000000000000000000000000000000000000000000000000000000815260206004820152601d60248201527f416464726573733a2063616c6c20746f206e6f6e2d636f6e74726163740000006044820152606401611848565b50816122c3565b6122c3838381511561388c5781518083602001fd5b806040517f08c379a0000000000000000000000000000000000000000000000000000000008152600401611848919061392e565b60005b838110156138db5781810151838201526020016138c3565b50506000910152565b600081518084526138fc8160208601602086016138c0565b601f017fffffffffffffffffffffffffffffffffffffffffffffffffffffffffffffffe0169290920160200192915050565b60208152600061394160208301846138e4565b9392505050565b67ffffffffffffffff8116811461395e57600080fd5b50565b73ffffffffffffffffffffffffffffffffffffffff8116811461395e57600080fd5b60008060006060848603121561399857600080fd5b83356139a381613948565b92506020840135915060408401356139ba81613961565b809150509250925092565b6000602082840312156139d757600080fd5b813561394181613948565b60008083601f8401126139f457600080fd5b50813567ffffffffffffffff811115613a0c57600080fd5b6020830191508360208260051b8501011115613a2757600080fd5b9250929050565b600080600060408486031215613a4357600080fd5b833567ffffffffffffffff811115613a5a57600080fd5b613a66868287016139e2565b90945092505060208401356139ba81613961565b600060208284031215613a8c57600080fd5b813561394181613961565b63ffffffff8116811461395e57600080fd5b7f4e487b7100000000000000000000000000000000000000000000000000000000600052604160045260246000fd5b604051601f82017fffffffffffffffffffffffffffffffffffffffffffffffffffffffffffffffe016810167ffffffffffffffff81118282101715613b1f57613b1f613aa9565b604052919050565b600067ffffffffffffffff821115613b4157613b41613aa9565b50601f017fffffffffffffffffffffffffffffffffffffffffffffffffffffffffffffffe01660200190565b600082601f830112613b7e57600080fd5b8135613b91613b8c82613b27565b613ad8565b818152846020838601011115613ba657600080fd5b816020850160208301376000918101602001919091529392505050565b60008060008060008060c08789031215613bdc57600080fd5b8635613be781613961565b95506020870135613bf781613961565b94506040870135613c0781613a97565b93506060870135613c1781613961565b9250608087013567ffffffffffffffff80821115613c3457600080fd5b613c408a838b01613b6d565b935060a0890135915080821115613c5657600080fd5b50613c6389828a01613b6d565b9150509295509295509295565b60008060008060808587031215613c8657600080fd5b8435613c9181613a97565b93506020850135613ca181613961565b92506040850135613cb181613a97565b9150606085013567ffffffffffffffff811115613ccd57600080fd5b613cd987828801613b6d565b91505092959194509250565b60008060008060008060c08789031215613cfe57600080fd5b8635613d0981613961565b95506020870135613d1981613961565b9450604087013567ffffffffffffffff80821115613d3657600080fd5b613d428a838b01613b6d565b95506060890135915080821115613d5857600080fd5b50613d6589828a01613b6d565b9350506080870135915060a0870135613d7d81613948565b809150509295509295509295565b600060208284031215613d9d57600080fd5b813567ffffffffffffffff811115613db457600080fd5b6122c384828501613b6d565b60008060208385031215613dd357600080fd5b823567ffffffffffffffff811115613dea57600080fd5b613df6858286016139e2565b90969095509350505050565b600080600060408486031215613e1757600080fd5b833567ffffffffffffffff80821115613e2f57600080fd5b818601915086601f830112613e4357600080fd5b813581811115613e5257600080fd5b876020828501011115613e6457600080fd5b6020928301989097509590910135949350505050565b600060208284031215613e8c57600080fd5b5051919050565b7f4e487b7100000000000000000000000000000000000000000000000000000000600052601160045260246000fd5b67ffffffffffffffff828116828216039080821115613ee357613ee3613e93565b5092915050565b600082613f20577f4e487b7100000000000000000000000000000000000000000000000000000000600052601260045260246000fd5b500490565b600181811c90821680613f3957607f821691505b602082108103613f72577f4e487b7100000000000000000000000000000000000000000000000000000000600052602260045260246000fd5b50919050565b600060208284031215613f8a57600080fd5b8151801515811461394157600080fd5b7f4e487b7100000000000000000000000000000000000000000000000000000000600052603260045260246000fd5b600082357fffffffffffffffffffffffffffffffffffffffffffffffffffffffffffffff81833603018112613ffd57600080fd5b9190910192915050565b60006080823603121561401957600080fd5b6040516080810167ffffffffffffffff828210818311171561403d5761403d613aa9565b81604052843591508082111561405257600080fd5b5061405f36828601613b6d565b82525060208301356020820152604083013561407a81613948565b6040820152606083013561408d81613948565b606082015292915050565b600067ffffffffffffffff8083168181036140b5576140b5613e93565b6001019392505050565b60007fffffffffffffffffffffffffffffffffffffffffffffffffffffffffffffffff82036140f0576140f0613e93565b5060010190565b8181038181111561359857613598613e93565b808202811582820484141761359857613598613e93565b60006020828403121561413357600080fd5b815161394181613948565b60608152600061415160608301866138e4565b828103602084015261416381866138e4565b91505060ff83166040830152949350505050565b6000806040838503121561418a57600080fd5b825161419581613a97565b60208401519092506141a681613961565b809150509250929050565b601f8211156130fa57600081815260208120601f850160051c810160208610156141d85750805b601f850160051c820191505b818110156141f7578281556001016141e4565b505050505050565b815167ffffffffffffffff81111561421957614219613aa9565b61422d816142278454613f25565b846141b1565b602080601f831160018114614280576000841561424a5750858301515b7fffffffffffffffffffffffffffffffffffffffffffffffffffffffffffffffff600386901b1c1916600185901b1785556141f7565b6000858152602081207fffffffffffffffffffffffffffffffffffffffffffffffffffffffffffffffe08616915b828110156142cd578886015182559484019460019091019084016142ae565b508582101561430957878501517fffffffffffffffffffffffffffffffffffffffffffffffffffffffffffffffff600388901b60f8161c191681555b5050505050600190811b01905550565b60608152600061432c60608301866138e4565b905083602083015273ffffffffffffffffffffffffffffffffffffffff83166040830152949350505050565b600063ffffffff808916835273ffffffffffffffffffffffffffffffffffffffff8089166020850152818816604085015280871660608501528086166080850152505060c060a08301526143af60c08301846138e4565b98975050505050505050565b61ffff818116838216019080821115613ee357613ee3613e93565b7fff000000000000000000000000000000000000000000000000000000000000008860f81b16815260007fffff000000000000000000000000000000000000000000000000000000000000808960f01b166001840152875161443f816003860160208c016138c0565b80840190507fffffffffffffffffffffffffffffffffffffffff0000000000000000000000008860601b1660038201528651614482816017840160208b016138c0565b808201915050818660f01b166017820152845191506144a88260198301602088016138c0565b016019019998505050505050505050565b600086516144cb818460208b016138c0565b9190910194855250602084019290925260f81b7fff000000000000000000000000000000000000000000000000000000000000009081166040840152166041820152604201919050565b8082018082111561359857613598613e93565b600082357fffffffffffffffffffffffffffffffffffffffffffffffffffffffffffffffa1833603018112613ffd57600080fd5b60006060823603121561456e57600080fd5b6040516060810167ffffffffffffffff828210818311171561459257614592613aa9565b8160405284359150808211156145a757600080fd5b506145b436828601613b6d565b8252506020830135602082015260408301356145cf81613948565b604082015292915050565b67ffffffffffffffff818116838216019080821115613ee357613ee3613e93565b8183823760009101908152919050565b84815273ffffffffffffffffffffffffffffffffffffffff8416602082015260606040820152816060820152818360808301376000818301608090810191909152601f9092017fffffffffffffffffffffffffffffffffffffffffffffffffffffffffffffffe01601019392505050565b60008251613ffd8184602087016138c0565b6000602082840312156146a057600080fd5b815160ff8116811461394157600080fd5b6000602082840312156146c357600080fd5b815167ffffffffffffffff8111156146da57600080fd5b8201601f810184136146eb57600080fd5b80516146f9613b8c82613b27565b81815285602083850101111561470e57600080fd5b61471f8260208301602086016138c0565b9594505050505056fea264697066735822122085e954b3c03db9fc33602edbb8bc952dc84d1ba702b087333a891f41f926636964736f6c63430008140033",
  "linkReferences": {},
  "deployedLinkReferences": {}
}