{
  "_format": "hh-sol-artifact-1",
  "contractName": "PolygonZkEVMV2",
  "sourceName": "contracts/v2/consensus/zkEVM/PolygonZkEVMV2.sol",
  "abi": [
    {
      "inputs": [
        {
          "internalType": "contract IPolygonZkEVMGlobalExitRoot",
          "name": "_globalExitRootManager",
          "type": "address"
        },
        {
          "internalType": "contract IERC20Upgradeable",
          "name": "_pol",
          "type": "address"
        },
        {
          "internalType": "contract IPolygonZkEVMBridge",
          "name": "_bridgeAddress",
          "type": "address"
        },
        {
          "internalType": "contract PolygonRollupManager",
          "name": "_rollupManager",
          "type": "address"
        }
      ],
      "stateMutability": "nonpayable",
      "type": "constructor"
    },
    {
      "inputs": [],
      "name": "BatchAlreadyVerified",
      "type": "error"
    },
    {
      "inputs": [],
      "name": "BatchNotSequencedOrNotSequenceEnd",
      "type": "error"
    },
    {
      "inputs": [],
      "name": "ExceedMaxVerifyBatches",
      "type": "error"
    },
    {
      "inputs": [],
      "name": "FinalNumBatchBelowLastVerifiedBatch",
      "type": "error"
    },
    {
      "inputs": [],
      "name": "FinalNumBatchDoesNotMatchPendingState",
      "type": "error"
    },
    {
      "inputs": [],
      "name": "FinalPendingStateNumInvalid",
      "type": "error"
    },
    {
      "inputs": [],
      "name": "ForceBatchNotAllowed",
      "type": "error"
    },
    {
      "inputs": [],
      "name": "ForceBatchTimeoutNotExpired",
      "type": "error"
    },
    {
      "inputs": [],
      "name": "ForceBatchesAlreadyActive",
      "type": "error"
    },
    {
      "inputs": [],
      "name": "ForceBatchesOverflow",
      "type": "error"
    },
    {
      "inputs": [],
      "name": "ForcedDataDoesNotMatch",
      "type": "error"
    },
    {
      "inputs": [],
      "name": "GasTokenNetworkMustBeZeroOnEther",
      "type": "error"
    },
    {
      "inputs": [],
      "name": "GlobalExitRootNotExist",
      "type": "error"
    },
    {
      "inputs": [],
      "name": "HaltTimeoutNotExpired",
      "type": "error"
    },
    {
      "inputs": [],
      "name": "InitNumBatchAboveLastVerifiedBatch",
      "type": "error"
    },
    {
      "inputs": [],
      "name": "InitNumBatchDoesNotMatchPendingState",
      "type": "error"
    },
    {
      "inputs": [],
      "name": "InvalidInitializeTransaction",
      "type": "error"
    },
    {
      "inputs": [],
      "name": "InvalidProof",
      "type": "error"
    },
    {
      "inputs": [],
      "name": "InvalidRangeBatchTimeTarget",
      "type": "error"
    },
    {
      "inputs": [],
      "name": "InvalidRangeForceBatchTimeout",
      "type": "error"
    },
    {
      "inputs": [],
      "name": "InvalidRangeMultiplierBatchFee",
      "type": "error"
    },
    {
      "inputs": [],
      "name": "NewAccInputHashDoesNotExist",
      "type": "error"
    },
    {
      "inputs": [],
      "name": "NewPendingStateTimeoutMustBeLower",
      "type": "error"
    },
    {
      "inputs": [],
      "name": "NewStateRootNotInsidePrime",
      "type": "error"
    },
    {
      "inputs": [],
      "name": "NewTrustedAggregatorTimeoutMustBeLower",
      "type": "error"
    },
    {
      "inputs": [],
      "name": "NotEnoughMaticAmount",
      "type": "error"
    },
    {
      "inputs": [],
      "name": "NotEnoughPOLAmount",
      "type": "error"
    },
    {
      "inputs": [],
      "name": "OldAccInputHashDoesNotExist",
      "type": "error"
    },
    {
      "inputs": [],
      "name": "OldStateRootDoesNotExist",
      "type": "error"
    },
    {
      "inputs": [],
      "name": "OnlyAdmin",
      "type": "error"
    },
    {
      "inputs": [],
      "name": "OnlyPendingAdmin",
      "type": "error"
    },
    {
      "inputs": [],
      "name": "OnlyRollupManager",
      "type": "error"
    },
    {
      "inputs": [],
      "name": "OnlyTrustedAggregator",
      "type": "error"
    },
    {
      "inputs": [],
      "name": "OnlyTrustedSequencer",
      "type": "error"
    },
    {
      "inputs": [],
      "name": "PendingStateDoesNotExist",
      "type": "error"
    },
    {
      "inputs": [],
      "name": "PendingStateInvalid",
      "type": "error"
    },
    {
      "inputs": [],
      "name": "PendingStateNotConsolidable",
      "type": "error"
    },
    {
      "inputs": [],
      "name": "PendingStateTimeoutExceedHaltAggregationTimeout",
      "type": "error"
    },
    {
      "inputs": [],
      "name": "SequenceZeroBatches",
      "type": "error"
    },
    {
      "inputs": [],
      "name": "SequencedTimestampBelowForcedTimestamp",
      "type": "error"
    },
    {
      "inputs": [],
      "name": "SequencedTimestampInvalid",
      "type": "error"
    },
    {
      "inputs": [],
      "name": "StoredRootMustBeDifferentThanNewRoot",
      "type": "error"
    },
    {
      "inputs": [],
      "name": "TransactionsLengthAboveMax",
      "type": "error"
    },
    {
      "inputs": [],
      "name": "TrustedAggregatorTimeoutExceedHaltAggregationTimeout",
      "type": "error"
    },
    {
      "inputs": [],
      "name": "TrustedAggregatorTimeoutNotExpired",
      "type": "error"
    },
    {
      "anonymous": false,
      "inputs": [
        {
          "indexed": false,
          "internalType": "address",
          "name": "newAdmin",
          "type": "address"
        }
      ],
      "name": "AcceptAdminRole",
      "type": "event"
    },
    {
      "anonymous": false,
      "inputs": [],
      "name": "ActivateForceBatches",
      "type": "event"
    },
    {
      "anonymous": false,
      "inputs": [
        {
          "indexed": true,
          "internalType": "uint64",
          "name": "forceBatchNum",
          "type": "uint64"
        },
        {
          "indexed": false,
          "internalType": "bytes32",
          "name": "lastGlobalExitRoot",
          "type": "bytes32"
        },
        {
          "indexed": false,
          "internalType": "address",
          "name": "sequencer",
          "type": "address"
        },
        {
          "indexed": false,
          "internalType": "bytes",
          "name": "transactions",
          "type": "bytes"
        }
      ],
      "name": "ForceBatch",
      "type": "event"
    },
    {
      "anonymous": false,
      "inputs": [
        {
          "indexed": false,
          "internalType": "uint8",
          "name": "version",
          "type": "uint8"
        }
      ],
      "name": "Initialized",
      "type": "event"
    },
    {
      "anonymous": false,
      "inputs": [
        {
          "indexed": true,
          "internalType": "uint64",
          "name": "numBatch",
          "type": "uint64"
        }
      ],
      "name": "SequenceBatches",
      "type": "event"
    },
    {
      "anonymous": false,
      "inputs": [
        {
          "indexed": true,
          "internalType": "uint64",
          "name": "numBatch",
          "type": "uint64"
        }
      ],
      "name": "SequenceForceBatches",
      "type": "event"
    },
    {
      "anonymous": false,
      "inputs": [
        {
          "indexed": false,
          "internalType": "uint64",
          "name": "newforceBatchTimeout",
          "type": "uint64"
        }
      ],
      "name": "SetForceBatchTimeout",
      "type": "event"
    },
    {
      "anonymous": false,
      "inputs": [
        {
          "indexed": false,
          "internalType": "address",
          "name": "newTrustedSequencer",
          "type": "address"
        }
      ],
      "name": "SetTrustedSequencer",
      "type": "event"
    },
    {
      "anonymous": false,
      "inputs": [
        {
          "indexed": false,
          "internalType": "string",
          "name": "newTrustedSequencerURL",
          "type": "string"
        }
      ],
      "name": "SetTrustedSequencerURL",
      "type": "event"
    },
    {
      "anonymous": false,
      "inputs": [
        {
          "indexed": false,
          "internalType": "address",
          "name": "newPendingAdmin",
          "type": "address"
        }
      ],
      "name": "TransferAdminRole",
      "type": "event"
    },
    {
      "anonymous": false,
      "inputs": [
        {
          "indexed": true,
          "internalType": "uint64",
          "name": "numBatch",
          "type": "uint64"
        },
        {
          "indexed": false,
          "internalType": "bytes32",
          "name": "stateRoot",
          "type": "bytes32"
        },
        {
          "indexed": true,
          "internalType": "address",
          "name": "aggregator",
          "type": "address"
        }
      ],
      "name": "VerifyBatches",
      "type": "event"
    },
    {
      "inputs": [],
      "name": "BASE_INITIALIZE_TX_BRIDGE",
      "outputs": [
        {
          "internalType": "bytes",
          "name": "",
          "type": "bytes"
        }
      ],
      "stateMutability": "view",
      "type": "function"
    },
    {
      "inputs": [],
      "name": "GLOBAL_EXIT_ROOT_MANAGER_L2",
      "outputs": [
        {
          "internalType": "contract IBasePolygonZkEVMGlobalExitRoot",
          "name": "",
          "type": "address"
        }
      ],
      "stateMutability": "view",
      "type": "function"
    },
    {
      "inputs": [],
      "name": "INITIALIZE_TX_EFFECTIVE_PERCENTAGE",
      "outputs": [
        {
          "internalType": "bytes1",
          "name": "",
          "type": "bytes1"
        }
      ],
      "stateMutability": "view",
      "type": "function"
    },
    {
      "inputs": [],
      "name": "SIGNATURE_INITIALIZE_TX_R",
      "outputs": [
        {
          "internalType": "bytes32",
          "name": "",
          "type": "bytes32"
        }
      ],
      "stateMutability": "view",
      "type": "function"
    },
    {
      "inputs": [],
      "name": "SIGNATURE_INITIALIZE_TX_S",
      "outputs": [
        {
          "internalType": "bytes32",
          "name": "",
          "type": "bytes32"
        }
      ],
      "stateMutability": "view",
      "type": "function"
    },
    {
      "inputs": [],
      "name": "SIGNATURE_INITIALIZE_TX_V",
      "outputs": [
        {
          "internalType": "uint8",
          "name": "",
          "type": "uint8"
        }
      ],
      "stateMutability": "view",
      "type": "function"
    },
    {
      "inputs": [],
      "name": "acceptAdminRole",
      "outputs": [],
      "stateMutability": "nonpayable",
      "type": "function"
    },
    {
      "inputs": [],
      "name": "activateForceBatches",
      "outputs": [],
      "stateMutability": "nonpayable",
      "type": "function"
    },
    {
      "inputs": [],
      "name": "admin",
      "outputs": [
        {
          "internalType": "address",
          "name": "",
          "type": "address"
        }
      ],
      "stateMutability": "view",
      "type": "function"
    },
    {
      "inputs": [],
      "name": "bridgeAddress",
      "outputs": [
        {
          "internalType": "contract IPolygonZkEVMBridge",
          "name": "",
          "type": "address"
        }
      ],
      "stateMutability": "view",
      "type": "function"
    },
    {
      "inputs": [],
      "name": "calculatePolPerForceBatch",
      "outputs": [
        {
          "internalType": "uint256",
          "name": "",
          "type": "uint256"
        }
      ],
      "stateMutability": "view",
      "type": "function"
    },
    {
      "inputs": [
        {
          "internalType": "bytes",
          "name": "transactions",
          "type": "bytes"
        },
        {
          "internalType": "uint256",
          "name": "polAmount",
          "type": "uint256"
        }
      ],
      "name": "forceBatch",
      "outputs": [],
      "stateMutability": "nonpayable",
      "type": "function"
    },
    {
      "inputs": [],
      "name": "forceBatchTimeout",
      "outputs": [
        {
          "internalType": "uint64",
          "name": "",
          "type": "uint64"
        }
      ],
      "stateMutability": "view",
      "type": "function"
    },
    {
      "inputs": [
        {
          "internalType": "uint64",
          "name": "",
          "type": "uint64"
        }
      ],
      "name": "forcedBatches",
      "outputs": [
        {
          "internalType": "bytes32",
          "name": "",
          "type": "bytes32"
        }
      ],
      "stateMutability": "view",
      "type": "function"
    },
    {
      "inputs": [],
      "name": "gasTokenAddress",
      "outputs": [
        {
          "internalType": "address",
          "name": "",
          "type": "address"
        }
      ],
      "stateMutability": "view",
      "type": "function"
    },
    {
      "inputs": [],
      "name": "gasTokenNetwork",
      "outputs": [
        {
          "internalType": "uint32",
          "name": "",
          "type": "uint32"
        }
      ],
      "stateMutability": "view",
      "type": "function"
    },
    {
      "inputs": [
        {
          "internalType": "uint32",
          "name": "networkID",
          "type": "uint32"
        },
        {
          "internalType": "address",
          "name": "_gasTokenAddress",
          "type": "address"
        },
        {
          "internalType": "uint32",
          "name": "_gasTokenNetwork",
          "type": "uint32"
        }
      ],
      "name": "generateInitializeTransaction",
      "outputs": [
        {
          "internalType": "bytes",
          "name": "",
          "type": "bytes"
        }
      ],
      "stateMutability": "pure",
      "type": "function"
    },
    {
      "inputs": [],
      "name": "globalExitRootManager",
      "outputs": [
        {
          "internalType": "contract IPolygonZkEVMGlobalExitRoot",
          "name": "",
          "type": "address"
        }
      ],
      "stateMutability": "view",
      "type": "function"
    },
    {
      "inputs": [
        {
          "internalType": "address",
          "name": "_admin",
          "type": "address"
        },
        {
          "internalType": "address",
          "name": "sequencer",
          "type": "address"
        },
        {
          "internalType": "uint32",
          "name": "networkID",
          "type": "uint32"
        },
        {
          "internalType": "address",
          "name": "_gasTokenAddress",
          "type": "address"
        },
        {
          "internalType": "uint32",
          "name": "_gasTokenNetwork",
          "type": "uint32"
        },
        {
          "internalType": "string",
          "name": "sequencerURL",
          "type": "string"
        },
        {
          "internalType": "string",
          "name": "_networkName",
          "type": "string"
        }
      ],
      "name": "initialize",
      "outputs": [],
      "stateMutability": "nonpayable",
      "type": "function"
    },
    {
      "inputs": [],
      "name": "isForcedBatchAllowed",
      "outputs": [
        {
          "internalType": "bool",
          "name": "",
          "type": "bool"
        }
      ],
      "stateMutability": "view",
      "type": "function"
    },
    {
      "inputs": [],
      "name": "lastAccInputHash",
      "outputs": [
        {
          "internalType": "bytes32",
          "name": "",
          "type": "bytes32"
        }
      ],
      "stateMutability": "view",
      "type": "function"
    },
    {
      "inputs": [],
      "name": "lastForceBatch",
      "outputs": [
        {
          "internalType": "uint64",
          "name": "",
          "type": "uint64"
        }
      ],
      "stateMutability": "view",
      "type": "function"
    },
    {
      "inputs": [],
      "name": "lastForceBatchSequenced",
      "outputs": [
        {
          "internalType": "uint64",
          "name": "",
          "type": "uint64"
        }
      ],
      "stateMutability": "view",
      "type": "function"
    },
    {
      "inputs": [],
      "name": "lastTimestamp",
      "outputs": [
        {
          "internalType": "uint64",
          "name": "",
          "type": "uint64"
        }
      ],
      "stateMutability": "view",
      "type": "function"
    },
    {
      "inputs": [],
      "name": "networkName",
      "outputs": [
        {
          "internalType": "string",
          "name": "",
          "type": "string"
        }
      ],
      "stateMutability": "view",
      "type": "function"
    },
    {
      "inputs": [
        {
          "internalType": "uint64",
          "name": "lastVerifiedBatch",
          "type": "uint64"
        },
        {
          "internalType": "bytes32",
          "name": "newStateRoot",
          "type": "bytes32"
        },
        {
          "internalType": "address",
          "name": "aggregator",
          "type": "address"
        }
      ],
      "name": "onVerifyBatches",
      "outputs": [],
      "stateMutability": "nonpayable",
      "type": "function"
    },
    {
      "inputs": [],
      "name": "pendingAdmin",
      "outputs": [
        {
          "internalType": "address",
          "name": "",
          "type": "address"
        }
      ],
      "stateMutability": "view",
      "type": "function"
    },
    {
      "inputs": [],
      "name": "pol",
      "outputs": [
        {
          "internalType": "contract IERC20Upgradeable",
          "name": "",
          "type": "address"
        }
      ],
      "stateMutability": "view",
      "type": "function"
    },
    {
      "inputs": [],
      "name": "rollupManager",
      "outputs": [
        {
          "internalType": "contract PolygonRollupManager",
          "name": "",
          "type": "address"
        }
      ],
      "stateMutability": "view",
      "type": "function"
    },
    {
      "inputs": [
        {
          "components": [
            {
              "internalType": "bytes",
              "name": "transactions",
              "type": "bytes"
            },
            {
              "internalType": "bytes32",
              "name": "globalExitRoot",
              "type": "bytes32"
            },
            {
              "internalType": "uint64",
              "name": "timestamp",
              "type": "uint64"
            },
            {
              "internalType": "uint64",
              "name": "minForcedTimestamp",
              "type": "uint64"
            }
          ],
          "internalType": "struct PolygonRollupBase.BatchData[]",
          "name": "batches",
          "type": "tuple[]"
        },
        {
          "internalType": "address",
          "name": "l2Coinbase",
          "type": "address"
        }
      ],
      "name": "sequenceBatches",
      "outputs": [],
      "stateMutability": "nonpayable",
      "type": "function"
    },
    {
      "inputs": [
        {
          "components": [
            {
              "internalType": "bytes",
              "name": "transactions",
              "type": "bytes"
            },
            {
              "internalType": "bytes32",
              "name": "globalExitRoot",
              "type": "bytes32"
            },
            {
              "internalType": "uint64",
              "name": "minForcedTimestamp",
              "type": "uint64"
            }
          ],
          "internalType": "struct PolygonRollupBase.ForcedBatchData[]",
          "name": "batches",
          "type": "tuple[]"
        }
      ],
      "name": "sequenceForceBatches",
      "outputs": [],
      "stateMutability": "nonpayable",
      "type": "function"
    },
    {
      "inputs": [
        {
          "internalType": "uint64",
          "name": "newforceBatchTimeout",
          "type": "uint64"
        }
      ],
      "name": "setForceBatchTimeout",
      "outputs": [],
      "stateMutability": "nonpayable",
      "type": "function"
    },
    {
      "inputs": [
        {
          "internalType": "address",
          "name": "newTrustedSequencer",
          "type": "address"
        }
      ],
      "name": "setTrustedSequencer",
      "outputs": [],
      "stateMutability": "nonpayable",
      "type": "function"
    },
    {
      "inputs": [
        {
          "internalType": "string",
          "name": "newTrustedSequencerURL",
          "type": "string"
        }
      ],
      "name": "setTrustedSequencerURL",
      "outputs": [],
      "stateMutability": "nonpayable",
      "type": "function"
    },
    {
      "inputs": [
        {
          "internalType": "address",
          "name": "newPendingAdmin",
          "type": "address"
        }
      ],
      "name": "transferAdminRole",
      "outputs": [],
      "stateMutability": "nonpayable",
      "type": "function"
    },
    {
      "inputs": [],
      "name": "trustedSequencer",
      "outputs": [
        {
          "internalType": "address",
          "name": "",
          "type": "address"
        }
      ],
      "stateMutability": "view",
      "type": "function"
    },
    {
      "inputs": [],
      "name": "trustedSequencerURL",
      "outputs": [
        {
          "internalType": "string",
          "name": "",
          "type": "string"
        }
      ],
      "stateMutability": "view",
      "type": "function"
    }
  ],
  "bytecode": "0x61010060405234801562000011575f80fd5b5060405162002b8c38038062002b8c83398101604081905262000034916200006f565b6001600160a01b0393841660a052918316608052821660c0521660e052620000d4565b6001600160a01b03811681146200006c575f80fd5b50565b5f805f806080858703121562000083575f80fd5b8451620000908162000057565b6020860151909450620000a38162000057565b6040860151909350620000b68162000057565b6060860151909250620000c98162000057565b939692955090935050565b60805160a05160c05160e051612a06620001865f395f818161030301528181610696015281816107310152818161099e01528181610af401528181610fe50152818161107d0152818161109f015281816111df015281816118f00152818161196c0152611a4701525f81816103d1015261115b01525f818161045701528181610df90152611b4301525f81816104a4015281816105290152818161102a015281816111310152611b180152612a065ff3fe608060405234801561000f575f80fd5b50600436106101b4575f3560e01c8062d0295d146101b8578063107bf28c146101d357806319d8ac61146101e857806326782247146102135780632b35b3ac1461023357806332c2d153146102505780633c351e10146102655780633cbc795b1461027d57806340b5de6c146102a957806345605267146102d157806347ebf108146102eb57806349b7b802146102fe5780634e48770614610325578063542028d5146103385780635e9145c9146103405780635ec91958146103535780636b8616ce1461035b5780636e05d2cd1461037a5780636ff512cc146103835780638c3d73011461039657806399af03971461039e5780639e001877146103b1578063a3c573eb146103cc578063ada8f919146103f3578063b0afe15414610406578063c754c7ed14610412578063c89e42df1461042c578063cfa8ed471461043f578063d02103ca14610452578063d690be3114610479578063d7bc90ff14610481578063d8d1091b1461048c578063e46761c41461049f578063e7a7ed02146104c6578063eaeb077b146104e0578063f35dda47146104f3578063f851a4401461050d575b5f80fd5b6101c0610525565b6040519081526020015b60405180910390f35b6101db610608565b6040516101ca919061206e565b6007546101fb906001600160401b031681565b6040516001600160401b0390911681526020016101ca565b600154610226906001600160a01b031681565b6040516101ca9190612087565b6008546102409060ff1681565b60405190151581526020016101ca565b61026361025e3660046120cd565b610694565b005b6008546102269061010090046001600160a01b031681565b60085461029490600160a81b900463ffffffff1681565b60405163ffffffff90911681526020016101ca565b6102b86001600160f81b031981565b6040516001600160f81b031990911681526020016101ca565b6007546101fb90600160801b90046001600160401b031681565b6102636102f93660046121b7565b61072f565b6102267f000000000000000000000000000000000000000000000000000000000000000081565b610263610333366004612266565b610a95565b6101db610c09565b61026361034e3660046122c8565b610c16565b610263611286565b6101c0610369366004612266565b60066020525f908152604090205481565b6101c060055481565b61026361039136600461230e565b611311565b61026361138c565b6101db6103ac366004612327565b611418565b61022673a40d5f56745a118d0906a34e69aec8c0db1cb8fa81565b6102267f000000000000000000000000000000000000000000000000000000000000000081565b61026361040136600461230e565b61159f565b6101c06405ca1ab1e081565b6007546101fb90600160c01b90046001600160401b031681565b61026361043a36600461235e565b61161a565b600254610226906001600160a01b031681565b6102267f000000000000000000000000000000000000000000000000000000000000000081565b6101db611686565b6101c0635ca1ab1e81565b61026361049a36600461238f565b6116a2565b6102267f000000000000000000000000000000000000000000000000000000000000000081565b6007546101fb90600160401b90046001600160401b031681565b6102636104ee3660046123cd565b611a21565b6104fb601b81565b60405160ff90911681526020016101ca565b5f54610226906201000090046001600160a01b031681565b5f807f00000000000000000000000000000000000000000000000000000000000000006001600160a01b03166370a08231306040518263ffffffff1660e01b81526004016105739190612087565b602060405180830381865afa15801561058e573d5f803e3d5ffd5b505050506040513d601f19601f820116820180604052508101906105b2919061243d565b6007549091505f906105dd906001600160401b03600160801b8204811691600160401b900416612468565b6001600160401b03169050805f036105f7575f9250505090565b610601818361248f565b9250505090565b60048054610615906124ae565b80601f0160208091040260200160405190810160405280929190818152602001828054610641906124ae565b801561068c5780601f106106635761010080835404028352916020019161068c565b820191905f5260205f20905b81548152906001019060200180831161066f57829003601f168201915b505050505081565b7f00000000000000000000000000000000000000000000000000000000000000006001600160a01b031633146106dd57604051631736745960e31b815260040160405180910390fd5b806001600160a01b0316836001600160401b03167f9c72852172521097ba7e1482e6b44b351323df0155f97f4ea18fcec28e1f59668460405161072291815260200190565b60405180910390a3505050565b7f00000000000000000000000000000000000000000000000000000000000000006001600160a01b0316331461077857604051631736745960e31b815260040160405180910390fd5b5f54610100900460ff161580801561079657505f54600160ff909116105b806107b657506107a530611d13565b1580156107b657505f5460ff166001145b61081e5760405162461bcd60e51b815260206004820152602e60248201527f496e697469616c697a61626c653a20636f6e747261637420697320616c72656160448201526d191e481a5b9a5d1a585b1a5e995960921b60648201526084015b60405180910390fd5b5f805460ff19166001179055801561083f575f805461ff0019166101001790555b5f805462010000600160b01b031916620100006001600160a01b038b81169190910291909117909155600280546001600160a01b031916918916919091179055600361088b8482612533565b5060046108988382612533565b50600780546001600160c01b0316610d2f60c71b1790556001600160a01b0385166108e25763ffffffff8416156108e257604051630d43a60960e11b815260040160405180910390fd5b60088054610100600160c81b0319166101006001600160a01b0388160263ffffffff60a81b191617600160a81b63ffffffff8716021790555f610926878787611418565b90505f818051906020012090505f4290505f805f1b835f801b848e6040516020016109559594939291906125ee565b60408051808303601f19018152908290528051602090910120600780546001600160401b0319166001600160401b0386161790556005819055639a908e7360e01b825291505f907f00000000000000000000000000000000000000000000000000000000000000006001600160a01b031690639a908e73906109de90600190869060040161262d565b6020604051808303815f875af11580156109fa573d5f803e3d5ffd5b505050506040513d601f19601f82011682018060405250810190610a1e9190612646565b6040519091506001600160401b038216905f80516020612970833981519152905f90a250505050508015610a8b575f805461ff0019169055604051600181527f7f26b83ff96e1f2b6a682f133852f6798a09c465da95921460cefb38474024989060200160405180910390a15b5050505050505050565b5f546201000090046001600160a01b03163314610ac557604051634755657960e01b815260040160405180910390fd5b62093a806001600160401b0382161115610af25760405163f5e37f2f60e01b815260040160405180910390fd5b7f00000000000000000000000000000000000000000000000000000000000000006001600160a01b03166315064c966040518163ffffffff1660e01b8152600401602060405180830381865afa158015610b4e573d5f803e3d5ffd5b505050506040513d601f19601f82011682018060405250810190610b729190612661565b610bac576007546001600160401b03600160c01b909104811690821610610bac5760405163f5e37f2f60e01b815260040160405180910390fd5b600780546001600160c01b0316600160c01b6001600160401b038416908102919091179091556040519081527fa7eb6cb8a613eb4e8bddc1ac3d61ec6cf10898760f0b187bcca794c6ca6fa40b906020015b60405180910390a150565b60038054610615906124ae565b6002546001600160a01b03163314610c41576040516311e7be1560e01b815260040160405180910390fd5b815f819003610c635760405163cb591a5f60e01b815260040160405180910390fd5b6103e8811115610c8657604051635acfba9d60e11b815260040160405180910390fd5b6007546005546001600160401b0380831692600160801b90041690815f5b85811015610f54575f898983818110610cbf57610cbf612680565b9050602002810190610cd19190612694565b610cda906126b2565b805180516020909101206060820151919250906001600160401b031615610dcf5785610d058161273f565b9650505f8183602001518460600151604051602001610d269392919061276c565b60408051601f1981840301815291815281516020928301206001600160401b038a165f90815260069093529120549091508114610d765760405163671ebaaf60e11b815260040160405180910390fd5b82606001516001600160401b031683604001516001600160401b03161015610db157604051633fbd5c3960e11b815260040160405180910390fd5b506001600160401b0386165f90815260066020526040812055610eb1565b602082015115801590610e6d575060208201516040516312bd9b1960e11b815260048101919091527f00000000000000000000000000000000000000000000000000000000000000006001600160a01b03169063257b3632906024016020604051808303815f875af1158015610e47573d5f803e3d5ffd5b505050506040513d601f19601f82011682018060405250810190610e6b919061243d565b155b15610e8b576040516373bd668d60e01b815260040160405180910390fd5b8151516201d4c01015610eb1576040516328a69b1f60e21b815260040160405180910390fd5b866001600160401b031682604001516001600160401b03161080610ee157504282604001516001600160401b0316115b15610eff576040516375413c8b60e11b815260040160405180910390fd5b8481836020015184604001518c604051602001610f209594939291906125ee565b6040516020818303038152906040528051906020012094508160400151965050508080610f4c9061278f565b915050610ca4565b506007546001600160401b03600160401b90910481169084161115610f8c5760405163c630a00d60e01b815260040160405180910390fd5b600780546001600160401b0319166001600160401b03868116919091179091556005839055859082811690851614611077575f610fc98386612468565b9050610fde6001600160401b038216836127a7565b91506110517f0000000000000000000000000000000000000000000000000000000000000000826001600160401b0316611016610525565b61102091906127c0565b6001600160a01b037f0000000000000000000000000000000000000000000000000000000000000000169190611d22565b5060078054600160801b600160c01b031916600160801b6001600160401b038716021790555b611159337f0000000000000000000000000000000000000000000000000000000000000000837f00000000000000000000000000000000000000000000000000000000000000006001600160a01b031663477fa2706040518163ffffffff1660e01b8152600401602060405180830381865afa1580156110f9573d5f803e3d5ffd5b505050506040513d601f19601f8201168201806040525081019061111d919061243d565b61112791906127c0565b6001600160a01b037f000000000000000000000000000000000000000000000000000000000000000016929190611d8a565b7f00000000000000000000000000000000000000000000000000000000000000006001600160a01b03166379e2cf976040518163ffffffff1660e01b81526004015f604051808303815f87803b1580156111b1575f80fd5b505af11580156111c3573d5f803e3d5ffd5b5050604051639a908e7360e01b81525f92506001600160a01b037f0000000000000000000000000000000000000000000000000000000000000000169150639a908e7390611217908a90889060040161262d565b6020604051808303815f875af1158015611233573d5f803e3d5ffd5b505050506040513d601f19601f820116820180604052508101906112579190612646565b6040519091506001600160401b038216905f80516020612970833981519152905f90a250505050505050505050565b5f546201000090046001600160a01b031633146112b657604051634755657960e01b815260040160405180910390fd5b60085460ff16156112da5760405163f6ba91a160e01b815260040160405180910390fd5b6008805460ff191660011790556040517f854dd6ce5a1445c4c54388b21cffd11cf5bba1b9e763aec48ce3da75d617412f905f90a1565b5f546201000090046001600160a01b0316331461134157604051634755657960e01b815260040160405180910390fd5b600280546001600160a01b0319166001600160a01b0383161790556040517ff54144f9611984021529f814a1cb6a41e22c58351510a0d9f7e822618abb9cc090610bfe908390612087565b6001546001600160a01b031633146113b75760405163d1ec4b2360e01b815260040160405180910390fd5b6001545f8054620100006001600160a01b0390931692830262010000600160b01b03199091161790556040517f056dc487bbf0795d0bbb1b4f0af523a855503cff740bfb4d5475f7a90c091e8e9161140e91612087565b60405180910390a1565b60605f6040518060600160405280602181526020016129b06021913960405163ffffffff80881660248301526001600160a01b03871660448301528516606482015273a40d5f56745a118d0906a34e69aec8c0db1cb8fa60848201525f60a482015260c40160408051601f19818403018152918152602080830180516001600160e01b03166369a3b57f60e11b17905290516114b6939291016127d7565b60408051601f1981840301815282825280516020808301919091205f80865291850180855252601b928401929092526405ca1ab1e06060840152635ca1ab1e608084015292509060019060a0016020604051602081039080840390855afa158015611523573d5f803e3d5ffd5b5050604051601f1901519150506001600160a01b0381166115575760405163668b0cb360e11b815260040160405180910390fd5b6040515f906115849084906405ca1ab1e090635ca1ab1e90601b906001600160f81b031990602001612805565b60408051808303601f19018152919052979650505050505050565b5f546201000090046001600160a01b031633146115cf57604051634755657960e01b815260040160405180910390fd5b600180546001600160a01b0319166001600160a01b0383161790556040517fa5b56b7906fd0a20e3f35120dd8343db1e12e037a6c90111c7e42885e82a1ce690610bfe908390612087565b5f546201000090046001600160a01b0316331461164a57604051634755657960e01b815260040160405180910390fd5b60036116568282612533565b507f6b8f723a4c7a5335cafae8a598a0aa0301be1387c037dccc085b62add6448b2081604051610bfe919061206e565b6040518060600160405280602181526020016129b06021913981565b60085460ff166116c5576040516324eff8c360e01b815260040160405180910390fd5b805f8190036116e75760405163cb591a5f60e01b815260040160405180910390fd5b6103e881111561170a57604051635acfba9d60e11b815260040160405180910390fd5b6007546001600160401b03600160401b8204811691611732918491600160801b900416612848565b11156117515760405163c630a00d60e01b815260040160405180910390fd5b600754600554600160801b9091046001600160401b0316905f5b838110156118ea575f86868381811061178657611786612680565b9050602002810190611798919061285b565b6117a19061286f565b9050836117ad8161273f565b825180516020918201208185015160408087015190519499509194505f936117d8938693910161276c565b60408051601f1981840301815291815281516020928301206001600160401b0389165f908152600690935291205490915081146118285760405163671ebaaf60e11b815260040160405180910390fd5b6001600160401b0386165f9081526006602052604081205561184b6001886127a7565b840361189f5742600760189054906101000a90046001600160401b0316846040015161187791906128e9565b6001600160401b0316111561189f5760405163c44a082160e01b815260040160405180910390fd5b8482846020015142336040516020016118bc9594939291906125ee565b60405160208183030381529060405280519060200120945050505080806118e29061278f565b91505061176b565b506119187f000000000000000000000000000000000000000000000000000000000000000084611016610525565b6005819055600780546001600160401b03848116600160801b026001600160401b03600160801b03600160c01b0319909216429190911617179055604051639a908e7360e01b81525f906001600160a01b037f00000000000000000000000000000000000000000000000000000000000000001690639a908e73906119a3908790869060040161262d565b6020604051808303815f875af11580156119bf573d5f803e3d5ffd5b505050506040513d601f19601f820116820180604052508101906119e39190612646565b6040519091506001600160401b038216907f648a61dd2438f072f5a1960939abd30f37aea80d2e94c9792ad142d3e0a490a4905f90a2505050505050565b60085460ff16611a44576040516324eff8c360e01b815260040160405180910390fd5b5f7f00000000000000000000000000000000000000000000000000000000000000006001600160a01b031663604691696040518163ffffffff1660e01b8152600401602060405180830381865afa158015611aa1573d5f803e3d5ffd5b505050506040513d601f19601f82011682018060405250810190611ac5919061243d565b905081811115611ae857604051632354600f60e01b815260040160405180910390fd5b611388831115611b0b576040516328a69b1f60e21b815260040160405180910390fd5b611b406001600160a01b037f000000000000000000000000000000000000000000000000000000000000000016333084611d8a565b5f7f00000000000000000000000000000000000000000000000000000000000000006001600160a01b0316633ed691ef6040518163ffffffff1660e01b8152600401602060405180830381865afa158015611b9d573d5f803e3d5ffd5b505050506040513d601f19601f82011682018060405250810190611bc1919061243d565b60078054919250600160401b9091046001600160401b0316906008611be58361273f565b91906101000a8154816001600160401b0302191690836001600160401b03160217905550508484604051611c1a929190612909565b604051908190038120611c33918390429060200161276c565b60408051808303601f190181529181528151602092830120600754600160401b90046001600160401b03165f9081526006909352912055323303611cc2576007546040805183815233602082015260609181018290525f91810191909152600160401b9091046001600160401b0316905f805160206129908339815191529060800160405180910390a2611d0c565b600760089054906101000a90046001600160401b03166001600160401b03165f8051602061299083398151915282338888604051611d039493929190612918565b60405180910390a25b5050505050565b6001600160a01b03163b151590565b6040516001600160a01b038316602482015260448101829052611d8590849063a9059cbb60e01b906064015b60408051601f198184030181529190526020810180516001600160e01b03166001600160e01b031990931692909217909152611dc8565b505050565b6040516001600160a01b0380851660248301528316604482015260648101829052611dc29085906323b872dd60e01b90608401611d4e565b50505050565b5f611e1c826040518060400160405280602081526020017f5361666545524332303a206c6f772d6c6576656c2063616c6c206661696c6564815250856001600160a01b0316611e999092919063ffffffff16565b805190915015611d855780806020019051810190611e3a9190612661565b611d855760405162461bcd60e51b815260206004820152602a60248201527f5361666545524332303a204552433230206f7065726174696f6e20646964206e6044820152691bdd081cdd58d8d9595960b21b6064820152608401610815565b6060611ea784845f85611eaf565b949350505050565b606082471015611f105760405162461bcd60e51b815260206004820152602660248201527f416464726573733a20696e73756666696369656e742062616c616e636520666f6044820152651c8818d85b1b60d21b6064820152608401610815565b5f80866001600160a01b03168587604051611f2b919061295e565b5f6040518083038185875af1925050503d805f8114611f65576040519150601f19603f3d011682016040523d82523d5f602084013e611f6a565b606091505b5091509150611f7b87838387611f86565b979650505050505050565b60608315611ff25782515f03611feb57611f9f85611d13565b611feb5760405162461bcd60e51b815260206004820152601d60248201527f416464726573733a2063616c6c20746f206e6f6e2d636f6e74726163740000006044820152606401610815565b5081611ea7565b611ea783838151156120075781518083602001fd5b8060405162461bcd60e51b8152600401610815919061206e565b5f5b8381101561203b578181015183820152602001612023565b50505f910152565b5f815180845261205a816020860160208601612021565b601f01601f19169290920160200192915050565b602081525f6120806020830184612043565b9392505050565b6001600160a01b0391909116815260200190565b6001600160401b03811681146120af575f80fd5b50565b80356001600160a01b03811681146120c8575f80fd5b919050565b5f805f606084860312156120df575f80fd5b83356120ea8161209b565b9250602084013591506120ff604085016120b2565b90509250925092565b803563ffffffff811681146120c8575f80fd5b634e487b7160e01b5f52604160045260245ffd5b5f82601f83011261213e575f80fd5b81356001600160401b03808211156121585761215861211b565b604051601f8301601f19908116603f011681019082821181831017156121805761218061211b565b81604052838152866020858801011115612198575f80fd5b836020870160208301375f602085830101528094505050505092915050565b5f805f805f805f60e0888a0312156121cd575f80fd5b6121d6886120b2565b96506121e4602089016120b2565b95506121f260408901612108565b9450612200606089016120b2565b935061220e60808901612108565b925060a08801356001600160401b0380821115612229575f80fd5b6122358b838c0161212f565b935060c08a013591508082111561224a575f80fd5b506122578a828b0161212f565b91505092959891949750929550565b5f60208284031215612276575f80fd5b81356120808161209b565b5f8083601f840112612291575f80fd5b5081356001600160401b038111156122a7575f80fd5b6020830191508360208260051b85010111156122c1575f80fd5b9250929050565b5f805f604084860312156122da575f80fd5b83356001600160401b038111156122ef575f80fd5b6122fb86828701612281565b90945092506120ff9050602085016120b2565b5f6020828403121561231e575f80fd5b612080826120b2565b5f805f60608486031215612339575f80fd5b61234284612108565b9250612350602085016120b2565b91506120ff60408501612108565b5f6020828403121561236e575f80fd5b81356001600160401b03811115612383575f80fd5b611ea78482850161212f565b5f80602083850312156123a0575f80fd5b82356001600160401b038111156123b5575f80fd5b6123c185828601612281565b90969095509350505050565b5f805f604084860312156123df575f80fd5b83356001600160401b03808211156123f5575f80fd5b818601915086601f830112612408575f80fd5b813581811115612416575f80fd5b876020828501011115612427575f80fd5b6020928301989097509590910135949350505050565b5f6020828403121561244d575f80fd5b5051919050565b634e487b7160e01b5f52601160045260245ffd5b6001600160401b0382811682821603908082111561248857612488612454565b5092915050565b5f826124a957634e487b7160e01b5f52601260045260245ffd5b500490565b600181811c908216806124c257607f821691505b6020821081036124e057634e487b7160e01b5f52602260045260245ffd5b50919050565b601f821115611d85575f81815260208120601f850160051c8101602086101561250c5750805b601f850160051c820191505b8181101561252b57828155600101612518565b505050505050565b81516001600160401b0381111561254c5761254c61211b565b6125608161255a84546124ae565b846124e6565b602080601f831160018114612593575f841561257c5750858301515b5f19600386901b1c1916600185901b17855561252b565b5f85815260208120601f198616915b828110156125c1578886015182559484019460019091019084016125a2565b50858210156125de57878501515f19600388901b60f8161c191681555b5050505050600190811b01905550565b9485526020850193909352604084019190915260c01b6001600160c01b0319166060808401919091521b6001600160601b0319166068820152607c0190565b6001600160401b03929092168252602082015260400190565b5f60208284031215612656575f80fd5b81516120808161209b565b5f60208284031215612671575f80fd5b81518015158114612080575f80fd5b634e487b7160e01b5f52603260045260245ffd5b5f8235607e198336030181126126a8575f80fd5b9190910192915050565b5f608082360312156126c2575f80fd5b604051608081016001600160401b0380821183831017156126e5576126e561211b565b8160405284359150808211156126f9575f80fd5b506127063682860161212f565b8252506020830135602082015260408301356127218161209b565b604082015260608301356127348161209b565b606082015292915050565b5f6001600160401b038281166002600160401b0319810161276257612762612454565b6001019392505050565b928352602083019190915260c01b6001600160c01b031916604082015260480190565b5f600182016127a0576127a0612454565b5060010190565b818103818111156127ba576127ba612454565b92915050565b80820281158282048414176127ba576127ba612454565b5f83516127e8818460208801612021565b8351908301906127fc818360208801612021565b01949350505050565b5f8651612816818460208b01612021565b9190910194855250602084019290925260f81b6001600160f81b03199081166040840152166041820152604201919050565b808201808211156127ba576127ba612454565b5f8235605e198336030181126126a8575f80fd5b5f6060823603121561287f575f80fd5b604051606081016001600160401b0380821183831017156128a2576128a261211b565b8160405284359150808211156128b6575f80fd5b506128c33682860161212f565b8252506020830135602082015260408301356128de8161209b565b604082015292915050565b6001600160401b0381811683821601908082111561248857612488612454565b818382375f9101908152919050565b8481526001600160a01b03841660208201526060604082018190528101829052818360808301375f818301608090810191909152601f909201601f191601019392505050565b5f82516126a881846020870161202156fe303446e6a8cb73c83dff421c0b1d5e5ce0719dab1bff13660fc254e58cc17fcef94bb37db835f1ab585ee00041849a09b12cd081d77fa15ca070757619cbc931f8c380808401c9c380942a3dd3eb832af982ec71669e178424b10dca2ede80b8a4a2646970667358221220f61c4458ce2cc81c093654c64779ca227a96bac01a14a4cc5dc7cfc4f0ae66fd64736f6c63430008140033",
  "linkReferences": {},
  "deployedLinkReferences": {}
}