{
  "_format": "hh-sol-artifact-1",
  "contractName": "PolygonDataComittee",
  "sourceName": "contracts/v2/consensus/dataComittee/PolygonDataComittee.sol",
  "abi": [
    {
      "inputs": [
        {
          "internalType": "contract IPolygonZkEVMGlobalExitRoot",
          "name": "_globalExitRootManager",
          "type": "address"
        },
        {
          "internalType": "contract IERC20Upgradeable",
          "name": "_pol",
          "type": "address"
        },
        {
          "internalType": "contract IPolygonZkEVMBridgeV2",
          "name": "_bridgeAddress",
          "type": "address"
        },
        {
          "internalType": "contract PolygonRollupManager",
          "name": "_rollupManager",
          "type": "address"
        }
      ],
      "stateMutability": "nonpayable",
      "type": "constructor"
    },
    {
      "inputs": [],
      "name": "BatchAlreadyVerified",
      "type": "error"
    },
    {
      "inputs": [],
      "name": "BatchNotSequencedOrNotSequenceEnd",
      "type": "error"
    },
    {
      "inputs": [],
      "name": "ExceedMaxVerifyBatches",
      "type": "error"
    },
    {
      "inputs": [],
      "name": "FinalNumBatchBelowLastVerifiedBatch",
      "type": "error"
    },
    {
      "inputs": [],
      "name": "FinalNumBatchDoesNotMatchPendingState",
      "type": "error"
    },
    {
      "inputs": [],
      "name": "FinalPendingStateNumInvalid",
      "type": "error"
    },
    {
      "inputs": [],
      "name": "ForceBatchNotAllowed",
      "type": "error"
    },
    {
      "inputs": [],
      "name": "ForceBatchTimeoutNotExpired",
      "type": "error"
    },
    {
      "inputs": [],
      "name": "ForceBatchesAlreadyActive",
      "type": "error"
    },
    {
      "inputs": [],
      "name": "ForceBatchesDescentralized",
      "type": "error"
    },
    {
      "inputs": [],
      "name": "ForceBatchesNotAllowedOnEmergencyState",
      "type": "error"
    },
    {
      "inputs": [],
      "name": "ForceBatchesOverflow",
      "type": "error"
    },
    {
      "inputs": [],
      "name": "ForcedDataDoesNotMatch",
      "type": "error"
    },
    {
      "inputs": [],
      "name": "GasTokenNetworkMustBeZeroOnEther",
      "type": "error"
    },
    {
      "inputs": [],
      "name": "GlobalExitRootNotExist",
      "type": "error"
    },
    {
      "inputs": [],
      "name": "HaltTimeoutNotExpired",
      "type": "error"
    },
    {
      "inputs": [],
      "name": "HaltTimeoutNotExpiredAfterEmergencyState",
      "type": "error"
    },
    {
      "inputs": [],
      "name": "HugeTokenMetadataNotSupported",
      "type": "error"
    },
    {
      "inputs": [],
      "name": "InitNumBatchAboveLastVerifiedBatch",
      "type": "error"
    },
    {
      "inputs": [],
      "name": "InitNumBatchDoesNotMatchPendingState",
      "type": "error"
    },
    {
      "inputs": [],
      "name": "InvalidInitializeTransaction",
      "type": "error"
    },
    {
      "inputs": [],
      "name": "InvalidProof",
      "type": "error"
    },
    {
      "inputs": [],
      "name": "InvalidRangeBatchTimeTarget",
      "type": "error"
    },
    {
      "inputs": [],
      "name": "InvalidRangeForceBatchTimeout",
      "type": "error"
    },
    {
      "inputs": [],
      "name": "InvalidRangeMultiplierBatchFee",
      "type": "error"
    },
    {
      "inputs": [],
      "name": "NewAccInputHashDoesNotExist",
      "type": "error"
    },
    {
      "inputs": [],
      "name": "NewPendingStateTimeoutMustBeLower",
      "type": "error"
    },
    {
      "inputs": [],
      "name": "NewStateRootNotInsidePrime",
      "type": "error"
    },
    {
      "inputs": [],
      "name": "NewTrustedAggregatorTimeoutMustBeLower",
      "type": "error"
    },
    {
      "inputs": [],
      "name": "NotEnoughMaticAmount",
      "type": "error"
    },
    {
      "inputs": [],
      "name": "NotEnoughPOLAmount",
      "type": "error"
    },
    {
      "inputs": [],
      "name": "OldAccInputHashDoesNotExist",
      "type": "error"
    },
    {
      "inputs": [],
      "name": "OldStateRootDoesNotExist",
      "type": "error"
    },
    {
      "inputs": [],
      "name": "OnlyAdmin",
      "type": "error"
    },
    {
      "inputs": [],
      "name": "OnlyPendingAdmin",
      "type": "error"
    },
    {
      "inputs": [],
      "name": "OnlyRollupManager",
      "type": "error"
    },
    {
      "inputs": [],
      "name": "OnlyTrustedAggregator",
      "type": "error"
    },
    {
      "inputs": [],
      "name": "OnlyTrustedSequencer",
      "type": "error"
    },
    {
      "inputs": [],
      "name": "PendingStateDoesNotExist",
      "type": "error"
    },
    {
      "inputs": [],
      "name": "PendingStateInvalid",
      "type": "error"
    },
    {
      "inputs": [],
      "name": "PendingStateNotConsolidable",
      "type": "error"
    },
    {
      "inputs": [],
      "name": "PendingStateTimeoutExceedHaltAggregationTimeout",
      "type": "error"
    },
    {
      "inputs": [],
      "name": "SequenceWithDataAvailabilityNotAllowed",
      "type": "error"
    },
    {
      "inputs": [],
      "name": "SequenceZeroBatches",
      "type": "error"
    },
    {
      "inputs": [],
      "name": "SequencedTimestampBelowForcedTimestamp",
      "type": "error"
    },
    {
      "inputs": [],
      "name": "SequencedTimestampInvalid",
      "type": "error"
    },
    {
      "inputs": [],
      "name": "StoredRootMustBeDifferentThanNewRoot",
      "type": "error"
    },
    {
      "inputs": [],
      "name": "SwitchToSameValue",
      "type": "error"
    },
    {
      "inputs": [],
      "name": "TransactionsLengthAboveMax",
      "type": "error"
    },
    {
      "inputs": [],
      "name": "TrustedAggregatorTimeoutExceedHaltAggregationTimeout",
      "type": "error"
    },
    {
      "inputs": [],
      "name": "TrustedAggregatorTimeoutNotExpired",
      "type": "error"
    },
    {
      "anonymous": false,
      "inputs": [
        {
          "indexed": false,
          "internalType": "address",
          "name": "newAdmin",
          "type": "address"
        }
      ],
      "name": "AcceptAdminRole",
      "type": "event"
    },
    {
      "anonymous": false,
      "inputs": [
        {
          "indexed": true,
          "internalType": "uint64",
          "name": "forceBatchNum",
          "type": "uint64"
        },
        {
          "indexed": false,
          "internalType": "bytes32",
          "name": "lastGlobalExitRoot",
          "type": "bytes32"
        },
        {
          "indexed": false,
          "internalType": "address",
          "name": "sequencer",
          "type": "address"
        },
        {
          "indexed": false,
          "internalType": "bytes",
          "name": "transactions",
          "type": "bytes"
        }
      ],
      "name": "ForceBatch",
      "type": "event"
    },
    {
      "anonymous": false,
      "inputs": [
        {
          "indexed": false,
          "internalType": "bytes",
          "name": "transactions",
          "type": "bytes"
        },
        {
          "indexed": false,
          "internalType": "bytes32",
          "name": "lastGlobalExitRoot",
          "type": "bytes32"
        },
        {
          "indexed": false,
          "internalType": "address",
          "name": "sequencer",
          "type": "address"
        }
      ],
      "name": "InitialSequenceBatches",
      "type": "event"
    },
    {
      "anonymous": false,
      "inputs": [
        {
          "indexed": false,
          "internalType": "uint8",
          "name": "version",
          "type": "uint8"
        }
      ],
      "name": "Initialized",
      "type": "event"
    },
    {
      "anonymous": false,
      "inputs": [
        {
          "indexed": true,
          "internalType": "uint64",
          "name": "numBatch",
          "type": "uint64"
        }
      ],
      "name": "SequenceBatches",
      "type": "event"
    },
    {
      "anonymous": false,
      "inputs": [
        {
          "indexed": true,
          "internalType": "uint64",
          "name": "numBatch",
          "type": "uint64"
        }
      ],
      "name": "SequenceForceBatches",
      "type": "event"
    },
    {
      "anonymous": false,
      "inputs": [
        {
          "indexed": false,
          "internalType": "address",
          "name": "newDataCommittee",
          "type": "address"
        }
      ],
      "name": "SetDataCommittee",
      "type": "event"
    },
    {
      "anonymous": false,
      "inputs": [
        {
          "indexed": false,
          "internalType": "address",
          "name": "newForceBatchAddress",
          "type": "address"
        }
      ],
      "name": "SetForceBatchAddress",
      "type": "event"
    },
    {
      "anonymous": false,
      "inputs": [
        {
          "indexed": false,
          "internalType": "uint64",
          "name": "newforceBatchTimeout",
          "type": "uint64"
        }
      ],
      "name": "SetForceBatchTimeout",
      "type": "event"
    },
    {
      "anonymous": false,
      "inputs": [
        {
          "indexed": false,
          "internalType": "address",
          "name": "newTrustedSequencer",
          "type": "address"
        }
      ],
      "name": "SetTrustedSequencer",
      "type": "event"
    },
    {
      "anonymous": false,
      "inputs": [
        {
          "indexed": false,
          "internalType": "string",
          "name": "newTrustedSequencerURL",
          "type": "string"
        }
      ],
      "name": "SetTrustedSequencerURL",
      "type": "event"
    },
    {
      "anonymous": false,
      "inputs": [],
      "name": "SwitchSequenceWithDataAvailability",
      "type": "event"
    },
    {
      "anonymous": false,
      "inputs": [
        {
          "indexed": false,
          "internalType": "address",
          "name": "newPendingAdmin",
          "type": "address"
        }
      ],
      "name": "TransferAdminRole",
      "type": "event"
    },
    {
      "anonymous": false,
      "inputs": [
        {
          "indexed": true,
          "internalType": "uint64",
          "name": "numBatch",
          "type": "uint64"
        },
        {
          "indexed": false,
          "internalType": "bytes32",
          "name": "stateRoot",
          "type": "bytes32"
        },
        {
          "indexed": true,
          "internalType": "address",
          "name": "aggregator",
          "type": "address"
        }
      ],
      "name": "VerifyBatches",
      "type": "event"
    },
    {
      "inputs": [],
      "name": "GLOBAL_EXIT_ROOT_MANAGER_L2",
      "outputs": [
        {
          "internalType": "contract IBasePolygonZkEVMGlobalExitRoot",
          "name": "",
          "type": "address"
        }
      ],
      "stateMutability": "view",
      "type": "function"
    },
    {
      "inputs": [],
      "name": "INITIALIZE_TX_BRIDGE_LIST_LEN_LEN",
      "outputs": [
        {
          "internalType": "uint8",
          "name": "",
          "type": "uint8"
        }
      ],
      "stateMutability": "view",
      "type": "function"
    },
    {
      "inputs": [],
      "name": "INITIALIZE_TX_BRIDGE_PARAMS",
      "outputs": [
        {
          "internalType": "bytes",
          "name": "",
          "type": "bytes"
        }
      ],
      "stateMutability": "view",
      "type": "function"
    },
    {
      "inputs": [],
      "name": "INITIALIZE_TX_BRIDGE_PARAMS_AFTER_BRIDGE_ADDRESS",
      "outputs": [
        {
          "internalType": "bytes",
          "name": "",
          "type": "bytes"
        }
      ],
      "stateMutability": "view",
      "type": "function"
    },
    {
      "inputs": [],
      "name": "INITIALIZE_TX_BRIDGE_PARAMS_AFTER_BRIDGE_ADDRESS_EMPTY_METADATA",
      "outputs": [
        {
          "internalType": "bytes",
          "name": "",
          "type": "bytes"
        }
      ],
      "stateMutability": "view",
      "type": "function"
    },
    {
      "inputs": [],
      "name": "INITIALIZE_TX_CONSTANT_BYTES",
      "outputs": [
        {
          "internalType": "uint16",
          "name": "",
          "type": "uint16"
        }
      ],
      "stateMutability": "view",
      "type": "function"
    },
    {
      "inputs": [],
      "name": "INITIALIZE_TX_CONSTANT_BYTES_EMPTY_METADATA",
      "outputs": [
        {
          "internalType": "uint16",
          "name": "",
          "type": "uint16"
        }
      ],
      "stateMutability": "view",
      "type": "function"
    },
    {
      "inputs": [],
      "name": "INITIALIZE_TX_DATA_LEN_EMPTY_METADATA",
      "outputs": [
        {
          "internalType": "uint8",
          "name": "",
          "type": "uint8"
        }
      ],
      "stateMutability": "view",
      "type": "function"
    },
    {
      "inputs": [],
      "name": "INITIALIZE_TX_EFFECTIVE_PERCENTAGE",
      "outputs": [
        {
          "internalType": "bytes1",
          "name": "",
          "type": "bytes1"
        }
      ],
      "stateMutability": "view",
      "type": "function"
    },
    {
      "inputs": [],
      "name": "SIGNATURE_INITIALIZE_TX_R",
      "outputs": [
        {
          "internalType": "bytes32",
          "name": "",
          "type": "bytes32"
        }
      ],
      "stateMutability": "view",
      "type": "function"
    },
    {
      "inputs": [],
      "name": "SIGNATURE_INITIALIZE_TX_S",
      "outputs": [
        {
          "internalType": "bytes32",
          "name": "",
          "type": "bytes32"
        }
      ],
      "stateMutability": "view",
      "type": "function"
    },
    {
      "inputs": [],
      "name": "SIGNATURE_INITIALIZE_TX_V",
      "outputs": [
        {
          "internalType": "uint8",
          "name": "",
          "type": "uint8"
        }
      ],
      "stateMutability": "view",
      "type": "function"
    },
    {
      "inputs": [],
      "name": "acceptAdminRole",
      "outputs": [],
      "stateMutability": "nonpayable",
      "type": "function"
    },
    {
      "inputs": [],
      "name": "admin",
      "outputs": [
        {
          "internalType": "address",
          "name": "",
          "type": "address"
        }
      ],
      "stateMutability": "view",
      "type": "function"
    },
    {
      "inputs": [],
      "name": "bridgeAddress",
      "outputs": [
        {
          "internalType": "contract IPolygonZkEVMBridgeV2",
          "name": "",
          "type": "address"
        }
      ],
      "stateMutability": "view",
      "type": "function"
    },
    {
      "inputs": [],
      "name": "calculatePolPerForceBatch",
      "outputs": [
        {
          "internalType": "uint256",
          "name": "",
          "type": "uint256"
        }
      ],
      "stateMutability": "view",
      "type": "function"
    },
    {
      "inputs": [],
      "name": "dataCommittee",
      "outputs": [
        {
          "internalType": "contract ICDKDataCommittee",
          "name": "",
          "type": "address"
        }
      ],
      "stateMutability": "view",
      "type": "function"
    },
    {
      "inputs": [
        {
          "internalType": "bytes",
          "name": "transactions",
          "type": "bytes"
        },
        {
          "internalType": "uint256",
          "name": "polAmount",
          "type": "uint256"
        }
      ],
      "name": "forceBatch",
      "outputs": [],
      "stateMutability": "nonpayable",
      "type": "function"
    },
    {
      "inputs": [],
      "name": "forceBatchAddress",
      "outputs": [
        {
          "internalType": "address",
          "name": "",
          "type": "address"
        }
      ],
      "stateMutability": "view",
      "type": "function"
    },
    {
      "inputs": [],
      "name": "forceBatchTimeout",
      "outputs": [
        {
          "internalType": "uint64",
          "name": "",
          "type": "uint64"
        }
      ],
      "stateMutability": "view",
      "type": "function"
    },
    {
      "inputs": [
        {
          "internalType": "uint64",
          "name": "",
          "type": "uint64"
        }
      ],
      "name": "forcedBatches",
      "outputs": [
        {
          "internalType": "bytes32",
          "name": "",
          "type": "bytes32"
        }
      ],
      "stateMutability": "view",
      "type": "function"
    },
    {
      "inputs": [],
      "name": "gasTokenAddress",
      "outputs": [
        {
          "internalType": "address",
          "name": "",
          "type": "address"
        }
      ],
      "stateMutability": "view",
      "type": "function"
    },
    {
      "inputs": [],
      "name": "gasTokenNetwork",
      "outputs": [
        {
          "internalType": "uint32",
          "name": "",
          "type": "uint32"
        }
      ],
      "stateMutability": "view",
      "type": "function"
    },
    {
      "inputs": [
        {
          "internalType": "uint32",
          "name": "networkID",
          "type": "uint32"
        },
        {
          "internalType": "address",
          "name": "_gasTokenAddress",
          "type": "address"
        },
        {
          "internalType": "uint32",
          "name": "_gasTokenNetwork",
          "type": "uint32"
        },
        {
          "internalType": "bytes",
          "name": "_gasTokenMetadata",
          "type": "bytes"
        }
      ],
      "name": "generateInitializeTransaction",
      "outputs": [
        {
          "internalType": "bytes",
          "name": "",
          "type": "bytes"
        }
      ],
      "stateMutability": "view",
      "type": "function"
    },
    {
      "inputs": [],
      "name": "globalExitRootManager",
      "outputs": [
        {
          "internalType": "contract IPolygonZkEVMGlobalExitRoot",
          "name": "",
          "type": "address"
        }
      ],
      "stateMutability": "view",
      "type": "function"
    },
    {
      "inputs": [
        {
          "internalType": "address",
          "name": "_admin",
          "type": "address"
        },
        {
          "internalType": "address",
          "name": "sequencer",
          "type": "address"
        },
        {
          "internalType": "uint32",
          "name": "networkID",
          "type": "uint32"
        },
        {
          "internalType": "address",
          "name": "_gasTokenAddress",
          "type": "address"
        },
        {
          "internalType": "string",
          "name": "sequencerURL",
          "type": "string"
        },
        {
          "internalType": "string",
          "name": "_networkName",
          "type": "string"
        }
      ],
      "name": "initialize",
      "outputs": [],
      "stateMutability": "nonpayable",
      "type": "function"
    },
    {
      "inputs": [],
      "name": "isSequenceWithDataAvailabilityAllowed",
      "outputs": [
        {
          "internalType": "bool",
          "name": "",
          "type": "bool"
        }
      ],
      "stateMutability": "view",
      "type": "function"
    },
    {
      "inputs": [],
      "name": "lastAccInputHash",
      "outputs": [
        {
          "internalType": "bytes32",
          "name": "",
          "type": "bytes32"
        }
      ],
      "stateMutability": "view",
      "type": "function"
    },
    {
      "inputs": [],
      "name": "lastForceBatch",
      "outputs": [
        {
          "internalType": "uint64",
          "name": "",
          "type": "uint64"
        }
      ],
      "stateMutability": "view",
      "type": "function"
    },
    {
      "inputs": [],
      "name": "lastForceBatchSequenced",
      "outputs": [
        {
          "internalType": "uint64",
          "name": "",
          "type": "uint64"
        }
      ],
      "stateMutability": "view",
      "type": "function"
    },
    {
      "inputs": [],
      "name": "lastTimestamp",
      "outputs": [
        {
          "internalType": "uint64",
          "name": "",
          "type": "uint64"
        }
      ],
      "stateMutability": "view",
      "type": "function"
    },
    {
      "inputs": [],
      "name": "networkName",
      "outputs": [
        {
          "internalType": "string",
          "name": "",
          "type": "string"
        }
      ],
      "stateMutability": "view",
      "type": "function"
    },
    {
      "inputs": [
        {
          "internalType": "uint64",
          "name": "lastVerifiedBatch",
          "type": "uint64"
        },
        {
          "internalType": "bytes32",
          "name": "newStateRoot",
          "type": "bytes32"
        },
        {
          "internalType": "address",
          "name": "aggregator",
          "type": "address"
        }
      ],
      "name": "onVerifyBatches",
      "outputs": [],
      "stateMutability": "nonpayable",
      "type": "function"
    },
    {
      "inputs": [],
      "name": "pendingAdmin",
      "outputs": [
        {
          "internalType": "address",
          "name": "",
          "type": "address"
        }
      ],
      "stateMutability": "view",
      "type": "function"
    },
    {
      "inputs": [],
      "name": "pol",
      "outputs": [
        {
          "internalType": "contract IERC20Upgradeable",
          "name": "",
          "type": "address"
        }
      ],
      "stateMutability": "view",
      "type": "function"
    },
    {
      "inputs": [],
      "name": "rollupManager",
      "outputs": [
        {
          "internalType": "contract PolygonRollupManager",
          "name": "",
          "type": "address"
        }
      ],
      "stateMutability": "view",
      "type": "function"
    },
    {
      "inputs": [
        {
          "components": [
            {
              "internalType": "bytes",
              "name": "transactions",
              "type": "bytes"
            },
            {
              "internalType": "bytes32",
              "name": "globalExitRoot",
              "type": "bytes32"
            },
            {
              "internalType": "uint64",
              "name": "timestamp",
              "type": "uint64"
            },
            {
              "internalType": "uint64",
              "name": "minForcedTimestamp",
              "type": "uint64"
            }
          ],
          "internalType": "struct PolygonRollupBase.BatchData[]",
          "name": "batches",
          "type": "tuple[]"
        },
        {
          "internalType": "address",
          "name": "l2Coinbase",
          "type": "address"
        }
      ],
      "name": "sequenceBatches",
      "outputs": [],
      "stateMutability": "nonpayable",
      "type": "function"
    },
    {
      "inputs": [
        {
          "components": [
            {
              "internalType": "bytes32",
              "name": "transactionsHash",
              "type": "bytes32"
            },
            {
              "internalType": "bytes32",
              "name": "globalExitRoot",
              "type": "bytes32"
            },
            {
              "internalType": "uint64",
              "name": "timestamp",
              "type": "uint64"
            },
            {
              "internalType": "uint64",
              "name": "minForcedTimestamp",
              "type": "uint64"
            }
          ],
          "internalType": "struct PolygonDataComittee.ValidiumBatchData[]",
          "name": "batches",
          "type": "tuple[]"
        },
        {
          "internalType": "address",
          "name": "l2Coinbase",
          "type": "address"
        },
        {
          "internalType": "bytes",
          "name": "dataAvailabilityMessage",
          "type": "bytes"
        }
      ],
      "name": "sequenceBatchesDataCommittee",
      "outputs": [],
      "stateMutability": "nonpayable",
      "type": "function"
    },
    {
      "inputs": [
        {
          "components": [
            {
              "internalType": "bytes",
              "name": "transactions",
              "type": "bytes"
            },
            {
              "internalType": "bytes32",
              "name": "globalExitRoot",
              "type": "bytes32"
            },
            {
              "internalType": "uint64",
              "name": "minForcedTimestamp",
              "type": "uint64"
            }
          ],
          "internalType": "struct PolygonRollupBase.ForcedBatchData[]",
          "name": "batches",
          "type": "tuple[]"
        }
      ],
      "name": "sequenceForceBatches",
      "outputs": [],
      "stateMutability": "nonpayable",
      "type": "function"
    },
    {
      "inputs": [
        {
          "internalType": "contract ICDKDataCommittee",
          "name": "newDataCommittee",
          "type": "address"
        }
      ],
      "name": "setDataCommittee",
      "outputs": [],
      "stateMutability": "nonpayable",
      "type": "function"
    },
    {
      "inputs": [
        {
          "internalType": "address",
          "name": "newForceBatchAddress",
          "type": "address"
        }
      ],
      "name": "setForceBatchAddress",
      "outputs": [],
      "stateMutability": "nonpayable",
      "type": "function"
    },
    {
      "inputs": [
        {
          "internalType": "uint64",
          "name": "newforceBatchTimeout",
          "type": "uint64"
        }
      ],
      "name": "setForceBatchTimeout",
      "outputs": [],
      "stateMutability": "nonpayable",
      "type": "function"
    },
    {
      "inputs": [
        {
          "internalType": "address",
          "name": "newTrustedSequencer",
          "type": "address"
        }
      ],
      "name": "setTrustedSequencer",
      "outputs": [],
      "stateMutability": "nonpayable",
      "type": "function"
    },
    {
      "inputs": [
        {
          "internalType": "string",
          "name": "newTrustedSequencerURL",
          "type": "string"
        }
      ],
      "name": "setTrustedSequencerURL",
      "outputs": [],
      "stateMutability": "nonpayable",
      "type": "function"
    },
    {
      "inputs": [
        {
          "internalType": "bool",
          "name": "newIsSequenceWithDataAvailabilityAllowed",
          "type": "bool"
        }
      ],
      "name": "switchSequenceWithDataAvailability",
      "outputs": [],
      "stateMutability": "nonpayable",
      "type": "function"
    },
    {
      "inputs": [
        {
          "internalType": "address",
          "name": "newPendingAdmin",
          "type": "address"
        }
      ],
      "name": "transferAdminRole",
      "outputs": [],
      "stateMutability": "nonpayable",
      "type": "function"
    },
    {
      "inputs": [],
      "name": "trustedSequencer",
      "outputs": [
        {
          "internalType": "address",
          "name": "",
          "type": "address"
        }
      ],
      "stateMutability": "view",
      "type": "function"
    },
    {
      "inputs": [],
      "name": "trustedSequencerURL",
      "outputs": [
        {
          "internalType": "string",
          "name": "",
          "type": "string"
        }
      ],
      "stateMutability": "view",
      "type": "function"
    }
  ],
  "bytecode": "0x6101006040523480156200001257600080fd5b506040516200574a3803806200574a833981016040819052620000359162000071565b6001600160a01b0393841660a052918316608052821660c0521660e052620000d9565b6001600160a01b03811681146200006e57600080fd5b50565b600080600080608085870312156200008857600080fd5b8451620000958162000058565b6020860151909450620000a88162000058565b6040860151909350620000bb8162000058565b6060860151909250620000ce8162000058565b939692955090935050565b60805160a05160c05160e051615565620001e56000396000818161056101528181610b8401528181610cf101528181610fa801528181611533015281816124580152818161252101528181612543015281816126da0152818161293b01528181612d9401528181612e6201528181612f870152818161304f015281816139ce01528181613a4f01528181613a710152613b9b0152600081816107230152818161120201528181611b2601528181611c2e0152818161261b0152613adc0152600081816107fa01528181611389015281816121ba0152818161319a01526136f101526000818161083f0152818161090a015281816124ab015281816125f1015261316e01526155656000f3fe608060405234801561001057600080fd5b506004361061031f5760003560e01c80636ff512cc116101a7578063c754c7ed116100ee578063d8d1091b11610097578063eaeb077b11610071578063eaeb077b14610881578063f35dda4714610894578063f851a4401461089c57600080fd5b8063d8d1091b14610827578063e46761c41461083a578063e7a7ed021461086157600080fd5b8063cfa8ed47116100c8578063cfa8ed47146107d5578063d02103ca146107f5578063d7bc90ff1461081c57600080fd5b8063c754c7ed1461078a578063c7fffd4b146107ba578063c89e42df146107c257600080fd5b80639e00187711610150578063ada8f9191161012a578063ada8f91914610758578063b0afe1541461076b578063b81fcafd1461077757600080fd5b80639e00187714610703578063a3c573eb1461071e578063a652f26c1461074557600080fd5b80638c3d7301116101815780638c3d7301146106d557806391cafe32146106dd57806398cf4bd0146106f057600080fd5b80636ff512cc1461067357806371257022146106865780637a5460c51461069957600080fd5b806340b5de6c1161026b578063542028d511610214578063676870d2116101ee578063676870d2146106425780636b8616ce1461064a5780636e05d2cd1461066a57600080fd5b8063542028d51461060757806356e294351461060f5780635e9145c91461062f57600080fd5b80634c21fef3116102455780634c21fef3146105835780634e487706146105b857806352bdeb6d146105cb57600080fd5b806340b5de6c146104dc578063456052671461053457806349b7b8021461055c57600080fd5b806326782247116102cd57806332c2d153116102a757806332c2d1531461046c5780633c351e101461047f5780633cbc795b1461049f57600080fd5b806326782247146103f25780632acdc2b6146104375780632c111c061461044c57600080fd5b8063107bf28c116102fe578063107bf28c146103a357806311e892d4146103ab57806319d8ac61146103c557600080fd5b8062d0295d14610324578063035089631461033f57806305835f371461035a575b600080fd5b61032c6108c2565b6040519081526020015b60405180910390f35b610347602081565b60405161ffff9091168152602001610336565b6103966040518060400160405280600881526020017f80808401c9c3809400000000000000000000000000000000000000000000000081525081565b604051610336919061456a565b6103966109e2565b6103b360f981565b60405160ff9091168152602001610336565b6007546103d99067ffffffffffffffff1681565b60405167ffffffffffffffff9091168152602001610336565b6001546104129073ffffffffffffffffffffffffffffffffffffffff1681565b60405173ffffffffffffffffffffffffffffffffffffffff9091168152602001610336565b61044a610445366004614595565b610a70565b005b6008546104129073ffffffffffffffffffffffffffffffffffffffff1681565b61044a61047a3660046145f5565b610b82565b6009546104129073ffffffffffffffffffffffffffffffffffffffff1681565b6009546104c79074010000000000000000000000000000000000000000900463ffffffff1681565b60405163ffffffff9091168152602001610336565b6105037fff0000000000000000000000000000000000000000000000000000000000000081565b6040517fff000000000000000000000000000000000000000000000000000000000000009091168152602001610336565b6007546103d990700100000000000000000000000000000000900467ffffffffffffffff1681565b6104127f000000000000000000000000000000000000000000000000000000000000000081565b600a546105a89074010000000000000000000000000000000000000000900460ff1681565b6040519015158152602001610336565b61044a6105c6366004614637565b610c51565b6103966040518060400160405280600281526020017f80b800000000000000000000000000000000000000000000000000000000000081525081565b610396610e6b565b600a546104129073ffffffffffffffffffffffffffffffffffffffff1681565b61044a61063d3660046146a0565b610e78565b610347601f81565b61032c610658366004614637565b60066020526000908152604090205481565b61032c60055481565b61044a6106813660046146ec565b610edc565b61044a61069436600461485e565b610fa6565b6103966040518060400160405280600281526020017f80b900000000000000000000000000000000000000000000000000000000000081525081565b61044a61176f565b61044a6106eb3660046146ec565b611842565b61044a6106fe3660046146ec565b61195b565b61041273a40d5f56745a118d0906a34e69aec8c0db1cb8fa81565b6104127f000000000000000000000000000000000000000000000000000000000000000081565b61039661075336600461490b565b611a25565b61044a6107663660046146ec565b611e0a565b61032c6405ca1ab1e081565b61044a6107853660046149c2565b611ed4565b6007546103d9907801000000000000000000000000000000000000000000000000900467ffffffffffffffff1681565b6103b360e481565b61044a6107d0366004614a74565b61282b565b6002546104129073ffffffffffffffffffffffffffffffffffffffff1681565b6104127f000000000000000000000000000000000000000000000000000000000000000081565b61032c635ca1ab1e81565b61044a610835366004614aa9565b6128be565b6104127f000000000000000000000000000000000000000000000000000000000000000081565b6007546103d99068010000000000000000900467ffffffffffffffff1681565b61044a61088f366004614aeb565b612f0f565b6103b3601b81565b6000546104129062010000900473ffffffffffffffffffffffffffffffffffffffff1681565b6040517f70a08231000000000000000000000000000000000000000000000000000000008152306004820152600090819073ffffffffffffffffffffffffffffffffffffffff7f000000000000000000000000000000000000000000000000000000000000000016906370a0823190602401602060405180830381865afa158015610951573d6000803e3d6000fd5b505050506040513d601f19601f820116820180604052508101906109759190614b37565b6007549091506000906109b49067ffffffffffffffff700100000000000000000000000000000000820481169168010000000000000000900416614b7f565b67ffffffffffffffff169050806000036109d15760009250505090565b6109db8183614ba7565b9250505090565b600480546109ef90614be2565b80601f0160208091040260200160405190810160405280929190818152602001828054610a1b90614be2565b8015610a685780601f10610a3d57610100808354040283529160200191610a68565b820191906000526020600020905b815481529060010190602001808311610a4b57829003601f168201915b505050505081565b60005462010000900473ffffffffffffffffffffffffffffffffffffffff163314610ac7576040517f4755657900000000000000000000000000000000000000000000000000000000815260040160405180910390fd5b801515600a60149054906101000a900460ff16151503610b13576040517f5f0e7abe00000000000000000000000000000000000000000000000000000000815260040160405180910390fd5b600a80547fffffffffffffffffffffff00ffffffffffffffffffffffffffffffffffffffff1674010000000000000000000000000000000000000000831515021790556040517ff32a0473f809a720a4f8af1e50d353f1caf7452030626fdaac4273f5e6587f4190600090a150565b7f000000000000000000000000000000000000000000000000000000000000000073ffffffffffffffffffffffffffffffffffffffff163314610bf1576040517fb9b3a2c800000000000000000000000000000000000000000000000000000000815260040160405180910390fd5b8073ffffffffffffffffffffffffffffffffffffffff168367ffffffffffffffff167f9c72852172521097ba7e1482e6b44b351323df0155f97f4ea18fcec28e1f596684604051610c4491815260200190565b60405180910390a3505050565b60005462010000900473ffffffffffffffffffffffffffffffffffffffff163314610ca8576040517f4755657900000000000000000000000000000000000000000000000000000000815260040160405180910390fd5b62093a8067ffffffffffffffff82161115610cef576040517ff5e37f2f00000000000000000000000000000000000000000000000000000000815260040160405180910390fd5b7f000000000000000000000000000000000000000000000000000000000000000073ffffffffffffffffffffffffffffffffffffffff166315064c966040518163ffffffff1660e01b8152600401602060405180830381865afa158015610d5a573d6000803e3d6000fd5b505050506040513d601f19601f82011682018060405250810190610d7e9190614c35565b610de75760075467ffffffffffffffff7801000000000000000000000000000000000000000000000000909104811690821610610de7576040517ff5e37f2f00000000000000000000000000000000000000000000000000000000815260040160405180910390fd5b6007805477ffffffffffffffffffffffffffffffffffffffffffffffff16780100000000000000000000000000000000000000000000000067ffffffffffffffff8416908102919091179091556040519081527fa7eb6cb8a613eb4e8bddc1ac3d61ec6cf10898760f0b187bcca794c6ca6fa40b906020015b60405180910390a150565b600380546109ef90614be2565b600a5474010000000000000000000000000000000000000000900460ff16610ecc576040517f821935b400000000000000000000000000000000000000000000000000000000815260040160405180910390fd5b610ed78383836133fe565b505050565b60005462010000900473ffffffffffffffffffffffffffffffffffffffff163314610f33576040517f4755657900000000000000000000000000000000000000000000000000000000815260040160405180910390fd5b600280547fffffffffffffffffffffffff00000000000000000000000000000000000000001673ffffffffffffffffffffffffffffffffffffffff83169081179091556040519081527ff54144f9611984021529f814a1cb6a41e22c58351510a0d9f7e822618abb9cc090602001610e60565b7f000000000000000000000000000000000000000000000000000000000000000073ffffffffffffffffffffffffffffffffffffffff163314611015576040517fb9b3a2c800000000000000000000000000000000000000000000000000000000815260040160405180910390fd5b600054610100900460ff16158080156110355750600054600160ff909116105b8061104f5750303b15801561104f575060005460ff166001145b6110e0576040517f08c379a000000000000000000000000000000000000000000000000000000000815260206004820152602e60248201527f496e697469616c697a61626c653a20636f6e747261637420697320616c72656160448201527f647920696e697469616c697a656400000000000000000000000000000000000060648201526084015b60405180910390fd5b600080547fffffffffffffffffffffffffffffffffffffffffffffffffffffffffffffff00166001179055801561113e57600080547fffffffffffffffffffffffffffffffffffffffffffffffffffffffffffff00ff166101001790555b606073ffffffffffffffffffffffffffffffffffffffff85161561132a5761116585613c62565b61116e86613d72565b61117787613e79565b60405160200161118993929190614c52565b604080517fffffffffffffffffffffffffffffffffffffffffffffffffffffffffffffffe0818403018152908290527f318aee3d00000000000000000000000000000000000000000000000000000000825273ffffffffffffffffffffffffffffffffffffffff878116600484015290925060009182917f0000000000000000000000000000000000000000000000000000000000000000169063318aee3d9060240160408051808303816000875af115801561124a573d6000803e3d6000fd5b505050506040513d601f19601f8201168201806040525081019061126e9190614c8b565b915091508163ffffffff166000146112e6576009805463ffffffff841674010000000000000000000000000000000000000000027fffffffffffffffff00000000000000000000000000000000000000000000000090911673ffffffffffffffffffffffffffffffffffffffff841617179055611327565b600980547fffffffffffffffffffffffff00000000000000000000000000000000000000001673ffffffffffffffffffffffffffffffffffffffff89161790555b50505b60095460009061137290889073ffffffffffffffffffffffffffffffffffffffff81169074010000000000000000000000000000000000000000900463ffffffff1685611a25565b9050600081805190602001209050600042905060007f000000000000000000000000000000000000000000000000000000000000000073ffffffffffffffffffffffffffffffffffffffff16633ed691ef6040518163ffffffff1660e01b8152600401602060405180830381865afa1580156113f2573d6000803e3d6000fd5b505050506040513d601f19601f820116820180604052508101906114169190614b37565b60408051600060208201819052918101869052606080820184905260c086901b7fffffffffffffffff0000000000000000000000000000000000000000000000001660808301528e901b7fffffffffffffffffffffffffffffffffffffffff00000000000000000000000016608882015291925090609c01604080518083037fffffffffffffffffffffffffffffffffffffffffffffffffffffffffffffffe0018152908290528051602090910120600780547fffffffffffffffffffffffffffffffffffffffffffffffff00000000000000001667ffffffffffffffff871617905560058190557f9a908e73000000000000000000000000000000000000000000000000000000008252600160048301526024820181905291507f000000000000000000000000000000000000000000000000000000000000000073ffffffffffffffffffffffffffffffffffffffff1690639a908e73906044016020604051808303816000875af1158015611591573d6000803e3d6000fd5b505050506040513d601f19601f820116820180604052508101906115b59190614cc5565b508c600060026101000a81548173ffffffffffffffffffffffffffffffffffffffff021916908373ffffffffffffffffffffffffffffffffffffffff1602179055508b600260006101000a81548173ffffffffffffffffffffffffffffffffffffffff021916908373ffffffffffffffffffffffffffffffffffffffff16021790555088600390816116479190614d30565b5060046116548982614d30565b508c600860006101000a81548173ffffffffffffffffffffffffffffffffffffffff021916908373ffffffffffffffffffffffffffffffffffffffff16021790555062069780600760186101000a81548167ffffffffffffffff021916908367ffffffffffffffff1602179055507f060116213bcbf54ca19fd649dc84b59ab2bbd200ab199770e4d923e222a28e7f85838e6040516116f593929190614e4a565b60405180910390a1505050505050801561176657600080547fffffffffffffffffffffffffffffffffffffffffffffffffffffffffffff00ff169055604051600181527f7f26b83ff96e1f2b6a682f133852f6798a09c465da95921460cefb38474024989060200160405180910390a15b50505050505050565b60015473ffffffffffffffffffffffffffffffffffffffff1633146117c0576040517fd1ec4b2300000000000000000000000000000000000000000000000000000000815260040160405180910390fd5b600154600080547fffffffffffffffffffff0000000000000000000000000000000000000000ffff1673ffffffffffffffffffffffffffffffffffffffff9092166201000081029290921790556040519081527f056dc487bbf0795d0bbb1b4f0af523a855503cff740bfb4d5475f7a90c091e8e9060200160405180910390a1565b60005462010000900473ffffffffffffffffffffffffffffffffffffffff163314611899576040517f4755657900000000000000000000000000000000000000000000000000000000815260040160405180910390fd5b60085473ffffffffffffffffffffffffffffffffffffffff166118e8576040517fd40d91c800000000000000000000000000000000000000000000000000000000815260040160405180910390fd5b600880547fffffffffffffffffffffffff00000000000000000000000000000000000000001673ffffffffffffffffffffffffffffffffffffffff83169081179091556040519081527f5fbd7dd171301c4a1611a84aac4ba86d119478560557755f7927595b082634fb90602001610e60565b60005462010000900473ffffffffffffffffffffffffffffffffffffffff1633146119b2576040517f4755657900000000000000000000000000000000000000000000000000000000815260040160405180910390fd5b600a80547fffffffffffffffffffffffff00000000000000000000000000000000000000001673ffffffffffffffffffffffffffffffffffffffff83169081179091556040519081527f76d12ecc41da43ceb240d60fdd4d9fc0baae9793060e7b592abde7ece5ee965190602001610e60565b6060600085858573a40d5f56745a118d0906a34e69aec8c0db1cb8fa600087604051602401611a5996959493929190614e89565b604080517fffffffffffffffffffffffffffffffffffffffffffffffffffffffffffffffe08184030181529190526020810180517bffffffffffffffffffffffffffffffffffffffffffffffffffffffff167ff811bff7000000000000000000000000000000000000000000000000000000001790528351909150606090600003611baa5760f9601f8351611aee9190614eec565b6040518060400160405280600881526020017f80808401c9c380940000000000000000000000000000000000000000000000008152507f00000000000000000000000000000000000000000000000000000000000000006040518060400160405280600281526020017f80b800000000000000000000000000000000000000000000000000000000000081525060e487604051602001611b949796959493929190614f07565b6040516020818303038152906040529050611cae565b815161ffff1015611be7576040517f248b8f8200000000000000000000000000000000000000000000000000000000815260040160405180910390fd5b815160f9611bf6602083614eec565b6040518060400160405280600881526020017f80808401c9c380940000000000000000000000000000000000000000000000008152507f00000000000000000000000000000000000000000000000000000000000000006040518060400160405280600281526020017f80b90000000000000000000000000000000000000000000000000000000000008152508588604051602001611c9b9796959493929190614fea565b6040516020818303038152906040529150505b805160208083019190912060408051600080825293810180835292909252601b908201526405ca1ab1e06060820152635ca1ab1e608082015260019060a0016020604051602081039080840390855afa158015611d0f573d6000803e3d6000fd5b50506040517fffffffffffffffffffffffffffffffffffffffffffffffffffffffffffffffe0015191505073ffffffffffffffffffffffffffffffffffffffff8116611d87576040517fcd16196600000000000000000000000000000000000000000000000000000000815260040160405180910390fd5b604051600090611dcd9084906405ca1ab1e090635ca1ab1e90601b907fff00000000000000000000000000000000000000000000000000000000000000906020016150cd565b604080517fffffffffffffffffffffffffffffffffffffffffffffffffffffffffffffffe08184030181529190529450505050505b949350505050565b60005462010000900473ffffffffffffffffffffffffffffffffffffffff163314611e61576040517f4755657900000000000000000000000000000000000000000000000000000000815260040160405180910390fd5b600180547fffffffffffffffffffffffff00000000000000000000000000000000000000001673ffffffffffffffffffffffffffffffffffffffff83169081179091556040519081527fa5b56b7906fd0a20e3f35120dd8343db1e12e037a6c90111c7e42885e82a1ce690602001610e60565b60025473ffffffffffffffffffffffffffffffffffffffff163314611f25576040517f11e7be1500000000000000000000000000000000000000000000000000000000815260040160405180910390fd5b836000819003611f61576040517fcb591a5f00000000000000000000000000000000000000000000000000000000815260040160405180910390fd5b6103e8811115611f9d576040517fb59f753a00000000000000000000000000000000000000000000000000000000815260040160405180910390fd5b60075460055467ffffffffffffffff80831692700100000000000000000000000000000000900416908160005b8581101561238d5760008b8b83818110611fe657611fe6615129565b905060800201803603810190611ffc9190615158565b805160608201519192509067ffffffffffffffff16156121775785612020816151ad565b9650506000818360200151846060015160405160200161207893929190928352602083019190915260c01b7fffffffffffffffff00000000000000000000000000000000000000000000000016604082015260480190565b604080517fffffffffffffffffffffffffffffffffffffffffffffffffffffffffffffffe0818403018152918152815160209283012067ffffffffffffffff8a16600090815260069093529120549091508114612101576040517fce3d755e00000000000000000000000000000000000000000000000000000000815260040160405180910390fd5b826060015167ffffffffffffffff16836040015167ffffffffffffffff161015612157576040517f7f7ab87200000000000000000000000000000000000000000000000000000000815260040160405180910390fd5b5067ffffffffffffffff8616600090815260066020526040812055612275565b60208201511580159061223e575060208201516040517f257b363200000000000000000000000000000000000000000000000000000000815260048101919091527f000000000000000000000000000000000000000000000000000000000000000073ffffffffffffffffffffffffffffffffffffffff169063257b3632906024016020604051808303816000875af1158015612218573d6000803e3d6000fd5b505050506040513d601f19601f8201168201806040525081019061223c9190614b37565b155b15612275576040517f73bd668d00000000000000000000000000000000000000000000000000000000815260040160405180910390fd5b8667ffffffffffffffff16826040015167ffffffffffffffff1610806122a8575042826040015167ffffffffffffffff16115b156122df576040517fea82791600000000000000000000000000000000000000000000000000000000815260040160405180910390fd5b602082810151604080850151815193840189905290830184905260608084019290925260c01b7fffffffffffffffff0000000000000000000000000000000000000000000000001660808301528c901b7fffffffffffffffffffffffffffffffffffffffff000000000000000000000000166088820152609c016040516020818303038152906040528051906020012094508160400151965050508080612385906151d4565b915050611fca565b5060075467ffffffffffffffff68010000000000000000909104811690841611156123e4576040517fc630a00d00000000000000000000000000000000000000000000000000000000815260040160405180910390fd5b600780547fffffffffffffffffffffffffffffffffffffffffffffffff00000000000000001667ffffffffffffffff86811691909117909155600583905585908281169085161461251b57600061243b8386614b7f565b905061245167ffffffffffffffff82168361520c565b91506124d27f00000000000000000000000000000000000000000000000000000000000000008267ffffffffffffffff1661248a6108c2565b612494919061521f565b73ffffffffffffffffffffffffffffffffffffffff7f0000000000000000000000000000000000000000000000000000000000000000169190613f6c565b50600780547fffffffffffffffff0000000000000000ffffffffffffffffffffffffffffffff1670010000000000000000000000000000000067ffffffffffffffff8716021790555b612619337f0000000000000000000000000000000000000000000000000000000000000000837f000000000000000000000000000000000000000000000000000000000000000073ffffffffffffffffffffffffffffffffffffffff1663477fa2706040518163ffffffff1660e01b8152600401602060405180830381865afa1580156125ac573d6000803e3d6000fd5b505050506040513d601f19601f820116820180604052508101906125d09190614b37565b6125da919061521f565b73ffffffffffffffffffffffffffffffffffffffff7f000000000000000000000000000000000000000000000000000000000000000016929190614040565b7f000000000000000000000000000000000000000000000000000000000000000073ffffffffffffffffffffffffffffffffffffffff166379e2cf976040518163ffffffff1660e01b8152600401600060405180830381600087803b15801561268157600080fd5b505af1158015612695573d6000803e3d6000fd5b50506040517f9a908e7300000000000000000000000000000000000000000000000000000000815267ffffffffffffffff8916600482015260248101869052600092507f000000000000000000000000000000000000000000000000000000000000000073ffffffffffffffffffffffffffffffffffffffff169150639a908e73906044016020604051808303816000875af1158015612739573d6000803e3d6000fd5b505050506040513d601f19601f8201168201806040525081019061275d9190614cc5565b600a546040517fc7a823e000000000000000000000000000000000000000000000000000000000815291925073ffffffffffffffffffffffffffffffffffffffff169063c7a823e0906127b89087908d908d9060040161527f565b60006040518083038186803b1580156127d057600080fd5b505afa1580156127e4573d6000803e3d6000fd5b505060405167ffffffffffffffff841692507f303446e6a8cb73c83dff421c0b1d5e5ce0719dab1bff13660fc254e58cc17fce9150600090a2505050505050505050505050565b60005462010000900473ffffffffffffffffffffffffffffffffffffffff163314612882576040517f4755657900000000000000000000000000000000000000000000000000000000815260040160405180910390fd5b600361288e8282614d30565b507f6b8f723a4c7a5335cafae8a598a0aa0301be1387c037dccc085b62add6448b2081604051610e60919061456a565b60085473ffffffffffffffffffffffffffffffffffffffff16158015906128fd575060085473ffffffffffffffffffffffffffffffffffffffff163314155b15612934576040517f24eff8c300000000000000000000000000000000000000000000000000000000815260040160405180910390fd5b4262093a807f000000000000000000000000000000000000000000000000000000000000000073ffffffffffffffffffffffffffffffffffffffff166330c27dde6040518163ffffffff1660e01b8152600401602060405180830381865afa1580156129a4573d6000803e3d6000fd5b505050506040513d601f19601f820116820180604052508101906129c89190614cc5565b6129d291906152a2565b67ffffffffffffffff161115612a14576040517f3d49ed4c00000000000000000000000000000000000000000000000000000000815260040160405180910390fd5b806000819003612a50576040517fcb591a5f00000000000000000000000000000000000000000000000000000000815260040160405180910390fd5b6103e8811115612a8c576040517fb59f753a00000000000000000000000000000000000000000000000000000000815260040160405180910390fd5b60075467ffffffffffffffff680100000000000000008204811691612ac79184917001000000000000000000000000000000009004166152c3565b1115612aff576040517fc630a00d00000000000000000000000000000000000000000000000000000000815260040160405180910390fd5b60075460055470010000000000000000000000000000000090910467ffffffffffffffff169060005b83811015612d8e576000868683818110612b4457612b44615129565b9050602002810190612b5691906152d6565b612b5f90615314565b905083612b6b816151ad565b82518051602091820120818501516040808701519051949950919450600093612bcd9386939101928352602083019190915260c01b7fffffffffffffffff00000000000000000000000000000000000000000000000016604082015260480190565b604080517fffffffffffffffffffffffffffffffffffffffffffffffffffffffffffffffe0818403018152918152815160209283012067ffffffffffffffff8916600090815260069093529120549091508114612c56576040517fce3d755e00000000000000000000000000000000000000000000000000000000815260040160405180910390fd5b67ffffffffffffffff8616600090815260066020526040812055612c7b60018861520c565b8403612cea5742600760189054906101000a900467ffffffffffffffff168460400151612ca891906152a2565b67ffffffffffffffff161115612cea576040517fc44a082100000000000000000000000000000000000000000000000000000000815260040160405180910390fd5b6020838101516040805192830188905282018490526060808301919091524260c01b7fffffffffffffffff00000000000000000000000000000000000000000000000016608083015233901b7fffffffffffffffffffffffffffffffffffffffff000000000000000000000000166088820152609c016040516020818303038152906040528051906020012094505050508080612d86906151d4565b915050612b28565b50612dbc7f00000000000000000000000000000000000000000000000000000000000000008461248a6108c2565b60058190556007805467ffffffffffffffff848116700100000000000000000000000000000000027fffffffffffffffff0000000000000000ffffffffffffffff000000000000000090921642821617919091179091556040517f9a908e7300000000000000000000000000000000000000000000000000000000815290841660048201526024810182905260009073ffffffffffffffffffffffffffffffffffffffff7f00000000000000000000000000000000000000000000000000000000000000001690639a908e73906044016020604051808303816000875af1158015612eab573d6000803e3d6000fd5b505050506040513d601f19601f82011682018060405250810190612ecf9190614cc5565b60405190915067ffffffffffffffff8216907f648a61dd2438f072f5a1960939abd30f37aea80d2e94c9792ad142d3e0a490a490600090a2505050505050565b60085473ffffffffffffffffffffffffffffffffffffffff1615801590612f4e575060085473ffffffffffffffffffffffffffffffffffffffff163314155b15612f85576040517f24eff8c300000000000000000000000000000000000000000000000000000000815260040160405180910390fd5b7f000000000000000000000000000000000000000000000000000000000000000073ffffffffffffffffffffffffffffffffffffffff166315064c966040518163ffffffff1660e01b8152600401602060405180830381865afa158015612ff0573d6000803e3d6000fd5b505050506040513d601f19601f820116820180604052508101906130149190614c35565b1561304b576040517f39258d1800000000000000000000000000000000000000000000000000000000815260040160405180910390fd5b60007f000000000000000000000000000000000000000000000000000000000000000073ffffffffffffffffffffffffffffffffffffffff1663604691696040518163ffffffff1660e01b8152600401602060405180830381865afa1580156130b8573d6000803e3d6000fd5b505050506040513d601f19601f820116820180604052508101906130dc9190614b37565b905081811115613118576040517f2354600f00000000000000000000000000000000000000000000000000000000815260040160405180910390fd5b611388831115613154576040517fa29a6c7c00000000000000000000000000000000000000000000000000000000815260040160405180910390fd5b61319673ffffffffffffffffffffffffffffffffffffffff7f000000000000000000000000000000000000000000000000000000000000000016333084614040565b60007f000000000000000000000000000000000000000000000000000000000000000073ffffffffffffffffffffffffffffffffffffffff16633ed691ef6040518163ffffffff1660e01b8152600401602060405180830381865afa158015613203573d6000803e3d6000fd5b505050506040513d601f19601f820116820180604052508101906132279190614b37565b600780549192506801000000000000000090910467ffffffffffffffff16906008613251836151ad565b91906101000a81548167ffffffffffffffff021916908367ffffffffffffffff160217905550508484604051613288929190615392565b60408051918290038220602083015281018290527fffffffffffffffff0000000000000000000000000000000000000000000000004260c01b166060820152606801604080518083037fffffffffffffffffffffffffffffffffffffffffffffffffffffffffffffffe0018152918152815160209283012060075468010000000000000000900467ffffffffffffffff1660009081526006909352912055323303613398576007546040805183815233602082015260609181018290526000918101919091526801000000000000000090910467ffffffffffffffff16907ff94bb37db835f1ab585ee00041849a09b12cd081d77fa15ca070757619cbc9319060800160405180910390a26133f7565b600760089054906101000a900467ffffffffffffffff1667ffffffffffffffff167ff94bb37db835f1ab585ee00041849a09b12cd081d77fa15ca070757619cbc931823388886040516133ee94939291906153a2565b60405180910390a25b5050505050565b60025473ffffffffffffffffffffffffffffffffffffffff16331461344f576040517f11e7be1500000000000000000000000000000000000000000000000000000000815260040160405180910390fd5b81600081900361348b576040517fcb591a5f00000000000000000000000000000000000000000000000000000000815260040160405180910390fd5b6103e88111156134c7576040517fb59f753a00000000000000000000000000000000000000000000000000000000815260040160405180910390fd5b60075460055467ffffffffffffffff80831692700100000000000000000000000000000000900416908160005b8581101561390357600089898381811061351057613510615129565b905060200281019061352291906153e2565b61352b90615416565b8051805160209091012060608201519192509067ffffffffffffffff16156136ae5785613557816151ad565b965050600081836020015184606001516040516020016135af93929190928352602083019190915260c01b7fffffffffffffffff00000000000000000000000000000000000000000000000016604082015260480190565b604080517fffffffffffffffffffffffffffffffffffffffffffffffffffffffffffffffe0818403018152918152815160209283012067ffffffffffffffff8a16600090815260069093529120549091508114613638576040517fce3d755e00000000000000000000000000000000000000000000000000000000815260040160405180910390fd5b826060015167ffffffffffffffff16836040015167ffffffffffffffff16101561368e576040517f7f7ab87200000000000000000000000000000000000000000000000000000000815260040160405180910390fd5b5067ffffffffffffffff86166000908152600660205260408120556137eb565b602082015115801590613775575060208201516040517f257b363200000000000000000000000000000000000000000000000000000000815260048101919091527f000000000000000000000000000000000000000000000000000000000000000073ffffffffffffffffffffffffffffffffffffffff169063257b3632906024016020604051808303816000875af115801561374f573d6000803e3d6000fd5b505050506040513d601f19601f820116820180604052508101906137739190614b37565b155b156137ac576040517f73bd668d00000000000000000000000000000000000000000000000000000000815260040160405180910390fd5b8151516201d4c010156137eb576040517fa29a6c7c00000000000000000000000000000000000000000000000000000000815260040160405180910390fd5b8667ffffffffffffffff16826040015167ffffffffffffffff16108061381e575042826040015167ffffffffffffffff16115b15613855576040517fea82791600000000000000000000000000000000000000000000000000000000815260040160405180910390fd5b602082810151604080850151815193840189905290830184905260608084019290925260c01b7fffffffffffffffff0000000000000000000000000000000000000000000000001660808301528a901b7fffffffffffffffffffffffffffffffffffffffff000000000000000000000000166088820152609c0160405160208183030381529060405280519060200120945081604001519650505080806138fb906151d4565b9150506134f4565b5060075467ffffffffffffffff680100000000000000009091048116908416111561395a576040517fc630a00d00000000000000000000000000000000000000000000000000000000815260040160405180910390fd5b600780547fffffffffffffffffffffffffffffffffffffffffffffffff00000000000000001667ffffffffffffffff868116919091179091556005839055859082811690851614613a495760006139b18386614b7f565b90506139c767ffffffffffffffff82168361520c565b9150613a007f00000000000000000000000000000000000000000000000000000000000000008267ffffffffffffffff1661248a6108c2565b50600780547fffffffffffffffff0000000000000000ffffffffffffffffffffffffffffffff1670010000000000000000000000000000000067ffffffffffffffff8716021790555b613ada337f0000000000000000000000000000000000000000000000000000000000000000837f000000000000000000000000000000000000000000000000000000000000000073ffffffffffffffffffffffffffffffffffffffff1663477fa2706040518163ffffffff1660e01b8152600401602060405180830381865afa1580156125ac573d6000803e3d6000fd5b7f000000000000000000000000000000000000000000000000000000000000000073ffffffffffffffffffffffffffffffffffffffff166379e2cf976040518163ffffffff1660e01b8152600401600060405180830381600087803b158015613b4257600080fd5b505af1158015613b56573d6000803e3d6000fd5b50506040517f9a908e7300000000000000000000000000000000000000000000000000000000815267ffffffffffffffff8916600482015260248101869052600092507f000000000000000000000000000000000000000000000000000000000000000073ffffffffffffffffffffffffffffffffffffffff169150639a908e73906044016020604051808303816000875af1158015613bfa573d6000803e3d6000fd5b505050506040513d601f19601f82011682018060405250810190613c1e9190614cc5565b60405190915067ffffffffffffffff8216907f303446e6a8cb73c83dff421c0b1d5e5ce0719dab1bff13660fc254e58cc17fce90600090a250505050505050505050565b60408051600481526024810182526020810180517bffffffffffffffffffffffffffffffffffffffffffffffffffffffff167f06fdde03000000000000000000000000000000000000000000000000000000001790529051606091600091829173ffffffffffffffffffffffffffffffffffffffff861691613ce4919061548c565b600060405180830381855afa9150503d8060008114613d1f576040519150601f19603f3d011682016040523d82523d6000602084013e613d24565b606091505b509150915081613d69576040518060400160405280600781526020017f4e4f5f4e414d4500000000000000000000000000000000000000000000000000815250611e02565b611e02816140a4565b60408051600481526024810182526020810180517bffffffffffffffffffffffffffffffffffffffffffffffffffffffff167f95d89b41000000000000000000000000000000000000000000000000000000001790529051606091600091829173ffffffffffffffffffffffffffffffffffffffff861691613df4919061548c565b600060405180830381855afa9150503d8060008114613e2f576040519150601f19603f3d011682016040523d82523d6000602084013e613e34565b606091505b509150915081613d69576040518060400160405280600981526020017f4e4f5f53594d424f4c0000000000000000000000000000000000000000000000815250611e02565b60408051600481526024810182526020810180517bffffffffffffffffffffffffffffffffffffffffffffffffffffffff167f313ce5670000000000000000000000000000000000000000000000000000000017905290516000918291829173ffffffffffffffffffffffffffffffffffffffff861691613efa919061548c565b600060405180830381855afa9150503d8060008114613f35576040519150601f19603f3d011682016040523d82523d6000602084013e613f3a565b606091505b5091509150818015613f4d575080516020145b613f58576012611e02565b80806020019051810190611e02919061549e565b60405173ffffffffffffffffffffffffffffffffffffffff8316602482015260448101829052610ed79084907fa9059cbb00000000000000000000000000000000000000000000000000000000906064015b604080517fffffffffffffffffffffffffffffffffffffffffffffffffffffffffffffffe08184030181529190526020810180517bffffffffffffffffffffffffffffffffffffffffffffffffffffffff167fffffffff000000000000000000000000000000000000000000000000000000009093169290921790915261427f565b60405173ffffffffffffffffffffffffffffffffffffffff8085166024830152831660448201526064810182905261409e9085907f23b872dd0000000000000000000000000000000000000000000000000000000090608401613fbe565b50505050565b606060408251106140c957818060200190518101906140c391906154c1565b92915050565b81516020036142415760005b60208110801561411c57508281815181106140f2576140f2615129565b01602001517fff000000000000000000000000000000000000000000000000000000000000001615155b15614133578061412b816151d4565b9150506140d5565b8060000361417657505060408051808201909152601281527f4e4f545f56414c49445f454e434f44494e4700000000000000000000000000006020820152919050565b60008167ffffffffffffffff8111156141915761419161471b565b6040519080825280601f01601f1916602001820160405280156141bb576020820181803683370190505b50905060005b82811015614239578481815181106141db576141db615129565b602001015160f81c60f81b8282815181106141f8576141f8615129565b60200101907effffffffffffffffffffffffffffffffffffffffffffffffffffffffffffff1916908160001a90535080614231816151d4565b9150506141c1565b509392505050565b505060408051808201909152601281527f4e4f545f56414c49445f454e434f44494e470000000000000000000000000000602082015290565b919050565b60006142e1826040518060400160405280602081526020017f5361666545524332303a206c6f772d6c6576656c2063616c6c206661696c65648152508573ffffffffffffffffffffffffffffffffffffffff1661438b9092919063ffffffff16565b805190915015610ed757808060200190518101906142ff9190614c35565b610ed7576040517f08c379a000000000000000000000000000000000000000000000000000000000815260206004820152602a60248201527f5361666545524332303a204552433230206f7065726174696f6e20646964206e60448201527f6f7420737563636565640000000000000000000000000000000000000000000060648201526084016110d7565b6060611e028484600085856000808673ffffffffffffffffffffffffffffffffffffffff1685876040516143bf919061548c565b60006040518083038185875af1925050503d80600081146143fc576040519150601f19603f3d011682016040523d82523d6000602084013e614401565b606091505b50915091506144128783838761441d565b979650505050505050565b606083156144b35782516000036144ac5773ffffffffffffffffffffffffffffffffffffffff85163b6144ac576040517f08c379a000000000000000000000000000000000000000000000000000000000815260206004820152601d60248201527f416464726573733a2063616c6c20746f206e6f6e2d636f6e747261637400000060448201526064016110d7565b5081611e02565b611e0283838151156144c85781518083602001fd5b806040517f08c379a00000000000000000000000000000000000000000000000000000000081526004016110d7919061456a565b60005b838110156145175781810151838201526020016144ff565b50506000910152565b600081518084526145388160208601602086016144fc565b601f017fffffffffffffffffffffffffffffffffffffffffffffffffffffffffffffffe0169290920160200192915050565b60208152600061457d6020830184614520565b9392505050565b801515811461459257600080fd5b50565b6000602082840312156145a757600080fd5b813561457d81614584565b67ffffffffffffffff8116811461459257600080fd5b73ffffffffffffffffffffffffffffffffffffffff8116811461459257600080fd5b803561427a816145c8565b60008060006060848603121561460a57600080fd5b8335614615816145b2565b925060208401359150604084013561462c816145c8565b809150509250925092565b60006020828403121561464957600080fd5b813561457d816145b2565b60008083601f84011261466657600080fd5b50813567ffffffffffffffff81111561467e57600080fd5b6020830191508360208260051b850101111561469957600080fd5b9250929050565b6000806000604084860312156146b557600080fd5b833567ffffffffffffffff8111156146cc57600080fd5b6146d886828701614654565b909450925050602084013561462c816145c8565b6000602082840312156146fe57600080fd5b813561457d816145c8565b63ffffffff8116811461459257600080fd5b7f4e487b7100000000000000000000000000000000000000000000000000000000600052604160045260246000fd5b6040516080810167ffffffffffffffff8111828210171561476d5761476d61471b565b60405290565b604051601f82017fffffffffffffffffffffffffffffffffffffffffffffffffffffffffffffffe016810167ffffffffffffffff811182821017156147ba576147ba61471b565b604052919050565b600067ffffffffffffffff8211156147dc576147dc61471b565b50601f017fffffffffffffffffffffffffffffffffffffffffffffffffffffffffffffffe01660200190565b600082601f83011261481957600080fd5b813561482c614827826147c2565b614773565b81815284602083860101111561484157600080fd5b816020850160208301376000918101602001919091529392505050565b60008060008060008060c0878903121561487757600080fd5b8635614882816145c8565b95506020870135614892816145c8565b945060408701356148a281614709565b935060608701356148b2816145c8565b9250608087013567ffffffffffffffff808211156148cf57600080fd5b6148db8a838b01614808565b935060a08901359150808211156148f157600080fd5b506148fe89828a01614808565b9150509295509295509295565b6000806000806080858703121561492157600080fd5b843561492c81614709565b9350602085013561493c816145c8565b9250604085013561494c81614709565b9150606085013567ffffffffffffffff81111561496857600080fd5b61497487828801614808565b91505092959194509250565b60008083601f84011261499257600080fd5b50813567ffffffffffffffff8111156149aa57600080fd5b60208301915083602082850101111561469957600080fd5b6000806000806000606086880312156149da57600080fd5b853567ffffffffffffffff808211156149f257600080fd5b818801915088601f830112614a0657600080fd5b813581811115614a1557600080fd5b8960208260071b8501011115614a2a57600080fd5b60208301975080965050614a40602089016145ea565b94506040880135915080821115614a5657600080fd5b50614a6388828901614980565b969995985093965092949392505050565b600060208284031215614a8657600080fd5b813567ffffffffffffffff811115614a9d57600080fd5b611e0284828501614808565b60008060208385031215614abc57600080fd5b823567ffffffffffffffff811115614ad357600080fd5b614adf85828601614654565b90969095509350505050565b600080600060408486031215614b0057600080fd5b833567ffffffffffffffff811115614b1757600080fd5b614b2386828701614980565b909790965060209590950135949350505050565b600060208284031215614b4957600080fd5b5051919050565b7f4e487b7100000000000000000000000000000000000000000000000000000000600052601160045260246000fd5b67ffffffffffffffff828116828216039080821115614ba057614ba0614b50565b5092915050565b600082614bdd577f4e487b7100000000000000000000000000000000000000000000000000000000600052601260045260246000fd5b500490565b600181811c90821680614bf657607f821691505b602082108103614c2f577f4e487b7100000000000000000000000000000000000000000000000000000000600052602260045260246000fd5b50919050565b600060208284031215614c4757600080fd5b815161457d81614584565b606081526000614c656060830186614520565b8281036020840152614c778186614520565b91505060ff83166040830152949350505050565b60008060408385031215614c9e57600080fd5b8251614ca981614709565b6020840151909250614cba816145c8565b809150509250929050565b600060208284031215614cd757600080fd5b815161457d816145b2565b601f821115610ed757600081815260208120601f850160051c81016020861015614d095750805b601f850160051c820191505b81811015614d2857828155600101614d15565b505050505050565b815167ffffffffffffffff811115614d4a57614d4a61471b565b614d5e81614d588454614be2565b84614ce2565b602080601f831160018114614db15760008415614d7b5750858301515b7fffffffffffffffffffffffffffffffffffffffffffffffffffffffffffffffff600386901b1c1916600185901b178555614d28565b6000858152602081207fffffffffffffffffffffffffffffffffffffffffffffffffffffffffffffffe08616915b82811015614dfe57888601518255948401946001909101908401614ddf565b5085821015614e3a57878501517fffffffffffffffffffffffffffffffffffffffffffffffffffffffffffffffff600388901b60f8161c191681555b5050505050600190811b01905550565b606081526000614e5d6060830186614520565b905083602083015273ffffffffffffffffffffffffffffffffffffffff83166040830152949350505050565b600063ffffffff808916835273ffffffffffffffffffffffffffffffffffffffff8089166020850152818816604085015280871660608501528086166080850152505060c060a0830152614ee060c0830184614520565b98975050505050505050565b61ffff818116838216019080821115614ba057614ba0614b50565b60007fff00000000000000000000000000000000000000000000000000000000000000808a60f81b1683527fffff0000000000000000000000000000000000000000000000000000000000008960f01b1660018401528751614f70816003860160208c016144fc565b80840190507fffffffffffffffffffffffffffffffffffffffff0000000000000000000000008860601b1660038201528651614fb3816017840160208b016144fc565b808201915050818660f81b16601782015284519150614fd98260188301602088016144fc565b016018019998505050505050505050565b7fff000000000000000000000000000000000000000000000000000000000000008860f81b16815260007fffff000000000000000000000000000000000000000000000000000000000000808960f01b1660018401528751615053816003860160208c016144fc565b80840190507fffffffffffffffffffffffffffffffffffffffff0000000000000000000000008860601b1660038201528651615096816017840160208b016144fc565b808201915050818660f01b166017820152845191506150bc8260198301602088016144fc565b016019019998505050505050505050565b600086516150df818460208b016144fc565b9190910194855250602084019290925260f81b7fff000000000000000000000000000000000000000000000000000000000000009081166040840152166041820152604201919050565b7f4e487b7100000000000000000000000000000000000000000000000000000000600052603260045260246000fd5b60006080828403121561516a57600080fd5b61517261474a565b8235815260208301356020820152604083013561518e816145b2565b604082015260608301356151a1816145b2565b60608201529392505050565b600067ffffffffffffffff8083168181036151ca576151ca614b50565b6001019392505050565b60007fffffffffffffffffffffffffffffffffffffffffffffffffffffffffffffffff820361520557615205614b50565b5060010190565b818103818111156140c3576140c3614b50565b80820281158282048414176140c3576140c3614b50565b8183528181602085013750600060208284010152600060207fffffffffffffffffffffffffffffffffffffffffffffffffffffffffffffffe0601f840116840101905092915050565b838152604060208201526000615299604083018486615236565b95945050505050565b67ffffffffffffffff818116838216019080821115614ba057614ba0614b50565b808201808211156140c3576140c3614b50565b600082357fffffffffffffffffffffffffffffffffffffffffffffffffffffffffffffffa183360301811261530a57600080fd5b9190910192915050565b60006060823603121561532657600080fd5b6040516060810167ffffffffffffffff828210818311171561534a5761534a61471b565b81604052843591508082111561535f57600080fd5b5061536c36828601614808565b825250602083013560208201526040830135615387816145b2565b604082015292915050565b8183823760009101908152919050565b84815273ffffffffffffffffffffffffffffffffffffffff841660208201526060604082015260006153d8606083018486615236565b9695505050505050565b600082357fffffffffffffffffffffffffffffffffffffffffffffffffffffffffffffff8183360301811261530a57600080fd5b60006080823603121561542857600080fd5b61543061474a565b823567ffffffffffffffff81111561544757600080fd5b61545336828601614808565b82525060208301356020820152604083013561546e816145b2565b60408201526060830135615481816145b2565b606082015292915050565b6000825161530a8184602087016144fc565b6000602082840312156154b057600080fd5b815160ff8116811461457d57600080fd5b6000602082840312156154d357600080fd5b815167ffffffffffffffff8111156154ea57600080fd5b8201601f810184136154fb57600080fd5b8051615509614827826147c2565b81815285602083850101111561551e57600080fd5b6152998260208301602086016144fc56fea26469706673582212200514f292c4fe2edd49bb67d8e2cc62c96746b535eebc9a1c0caaf13f8ed670f664736f6c63430008140033",
  "linkReferences": {},
  "deployedLinkReferences": {}
}