{
  "_format": "hh-sol-artifact-1",
  "contractName": "PolygonDataComittee",
  "sourceName": "contracts/v2/consensus/dataComittee/PolygonDataComittee.sol",
  "abi": [
    {
      "inputs": [
        {
          "internalType": "contract IPolygonZkEVMGlobalExitRoot",
          "name": "_globalExitRootManager",
          "type": "address"
        },
        {
          "internalType": "contract IERC20Upgradeable",
          "name": "_pol",
          "type": "address"
        },
        {
          "internalType": "contract IPolygonZkEVMBridge",
          "name": "_bridgeAddress",
          "type": "address"
        },
        {
          "internalType": "contract PolygonRollupManager",
          "name": "_rollupManager",
          "type": "address"
        },
        {
          "internalType": "contract ICDKDataCommittee",
          "name": "_dataCommittee",
          "type": "address"
        }
      ],
      "stateMutability": "nonpayable",
      "type": "constructor"
    },
    {
      "inputs": [],
      "name": "BatchAlreadyVerified",
      "type": "error"
    },
    {
      "inputs": [],
      "name": "BatchNotSequencedOrNotSequenceEnd",
      "type": "error"
    },
    {
      "inputs": [],
      "name": "ExceedMaxVerifyBatches",
      "type": "error"
    },
    {
      "inputs": [],
      "name": "FinalNumBatchBelowLastVerifiedBatch",
      "type": "error"
    },
    {
      "inputs": [],
      "name": "FinalNumBatchDoesNotMatchPendingState",
      "type": "error"
    },
    {
      "inputs": [],
      "name": "FinalPendingStateNumInvalid",
      "type": "error"
    },
    {
      "inputs": [],
      "name": "ForceBatchNotAllowed",
      "type": "error"
    },
    {
      "inputs": [],
      "name": "ForceBatchTimeoutNotExpired",
      "type": "error"
    },
    {
      "inputs": [],
      "name": "ForceBatchesAlreadyActive",
      "type": "error"
    },
    {
      "inputs": [],
      "name": "ForceBatchesOverflow",
      "type": "error"
    },
    {
      "inputs": [],
      "name": "ForcedDataDoesNotMatch",
      "type": "error"
    },
    {
      "inputs": [],
      "name": "GasTokenNetworkMustBeZeroOnEther",
      "type": "error"
    },
    {
      "inputs": [],
      "name": "GlobalExitRootNotExist",
      "type": "error"
    },
    {
      "inputs": [],
      "name": "HaltTimeoutNotExpired",
      "type": "error"
    },
    {
      "inputs": [],
      "name": "InitNumBatchAboveLastVerifiedBatch",
      "type": "error"
    },
    {
      "inputs": [],
      "name": "InitNumBatchDoesNotMatchPendingState",
      "type": "error"
    },
    {
      "inputs": [],
      "name": "InvalidInitializeTransaction",
      "type": "error"
    },
    {
      "inputs": [],
      "name": "InvalidProof",
      "type": "error"
    },
    {
      "inputs": [],
      "name": "InvalidRangeBatchTimeTarget",
      "type": "error"
    },
    {
      "inputs": [],
      "name": "InvalidRangeForceBatchTimeout",
      "type": "error"
    },
    {
      "inputs": [],
      "name": "InvalidRangeMultiplierBatchFee",
      "type": "error"
    },
    {
      "inputs": [],
      "name": "NewAccInputHashDoesNotExist",
      "type": "error"
    },
    {
      "inputs": [],
      "name": "NewPendingStateTimeoutMustBeLower",
      "type": "error"
    },
    {
      "inputs": [],
      "name": "NewStateRootNotInsidePrime",
      "type": "error"
    },
    {
      "inputs": [],
      "name": "NewTrustedAggregatorTimeoutMustBeLower",
      "type": "error"
    },
    {
      "inputs": [],
      "name": "NotEnoughMaticAmount",
      "type": "error"
    },
    {
      "inputs": [],
      "name": "NotEnoughPOLAmount",
      "type": "error"
    },
    {
      "inputs": [],
      "name": "OldAccInputHashDoesNotExist",
      "type": "error"
    },
    {
      "inputs": [],
      "name": "OldStateRootDoesNotExist",
      "type": "error"
    },
    {
      "inputs": [],
      "name": "OnlyAdmin",
      "type": "error"
    },
    {
      "inputs": [],
      "name": "OnlyPendingAdmin",
      "type": "error"
    },
    {
      "inputs": [],
      "name": "OnlyRollupManager",
      "type": "error"
    },
    {
      "inputs": [],
      "name": "OnlyTrustedAggregator",
      "type": "error"
    },
    {
      "inputs": [],
      "name": "OnlyTrustedSequencer",
      "type": "error"
    },
    {
      "inputs": [],
      "name": "PendingStateDoesNotExist",
      "type": "error"
    },
    {
      "inputs": [],
      "name": "PendingStateInvalid",
      "type": "error"
    },
    {
      "inputs": [],
      "name": "PendingStateNotConsolidable",
      "type": "error"
    },
    {
      "inputs": [],
      "name": "PendingStateTimeoutExceedHaltAggregationTimeout",
      "type": "error"
    },
    {
      "inputs": [],
      "name": "SequenceWithDataAvailabilityNotAllowed",
      "type": "error"
    },
    {
      "inputs": [],
      "name": "SequenceZeroBatches",
      "type": "error"
    },
    {
      "inputs": [],
      "name": "SequencedTimestampBelowForcedTimestamp",
      "type": "error"
    },
    {
      "inputs": [],
      "name": "SequencedTimestampInvalid",
      "type": "error"
    },
    {
      "inputs": [],
      "name": "StoredRootMustBeDifferentThanNewRoot",
      "type": "error"
    },
    {
      "inputs": [],
      "name": "TransactionsLengthAboveMax",
      "type": "error"
    },
    {
      "inputs": [],
      "name": "TrustedAggregatorTimeoutExceedHaltAggregationTimeout",
      "type": "error"
    },
    {
      "inputs": [],
      "name": "TrustedAggregatorTimeoutNotExpired",
      "type": "error"
    },
    {
      "anonymous": false,
      "inputs": [
        {
          "indexed": false,
          "internalType": "address",
          "name": "newAdmin",
          "type": "address"
        }
      ],
      "name": "AcceptAdminRole",
      "type": "event"
    },
    {
      "anonymous": false,
      "inputs": [],
      "name": "ActivateForceBatches",
      "type": "event"
    },
    {
      "anonymous": false,
      "inputs": [
        {
          "indexed": true,
          "internalType": "uint64",
          "name": "forceBatchNum",
          "type": "uint64"
        },
        {
          "indexed": false,
          "internalType": "bytes32",
          "name": "lastGlobalExitRoot",
          "type": "bytes32"
        },
        {
          "indexed": false,
          "internalType": "address",
          "name": "sequencer",
          "type": "address"
        },
        {
          "indexed": false,
          "internalType": "bytes",
          "name": "transactions",
          "type": "bytes"
        }
      ],
      "name": "ForceBatch",
      "type": "event"
    },
    {
      "anonymous": false,
      "inputs": [
        {
          "indexed": false,
          "internalType": "uint8",
          "name": "version",
          "type": "uint8"
        }
      ],
      "name": "Initialized",
      "type": "event"
    },
    {
      "anonymous": false,
      "inputs": [
        {
          "indexed": true,
          "internalType": "uint64",
          "name": "numBatch",
          "type": "uint64"
        }
      ],
      "name": "SequenceBatches",
      "type": "event"
    },
    {
      "anonymous": false,
      "inputs": [
        {
          "indexed": true,
          "internalType": "uint64",
          "name": "numBatch",
          "type": "uint64"
        }
      ],
      "name": "SequenceForceBatches",
      "type": "event"
    },
    {
      "anonymous": false,
      "inputs": [
        {
          "indexed": false,
          "internalType": "uint64",
          "name": "newforceBatchTimeout",
          "type": "uint64"
        }
      ],
      "name": "SetForceBatchTimeout",
      "type": "event"
    },
    {
      "anonymous": false,
      "inputs": [
        {
          "indexed": false,
          "internalType": "address",
          "name": "newTrustedSequencer",
          "type": "address"
        }
      ],
      "name": "SetTrustedSequencer",
      "type": "event"
    },
    {
      "anonymous": false,
      "inputs": [
        {
          "indexed": false,
          "internalType": "string",
          "name": "newTrustedSequencerURL",
          "type": "string"
        }
      ],
      "name": "SetTrustedSequencerURL",
      "type": "event"
    },
    {
      "anonymous": false,
      "inputs": [],
      "name": "SwitchSequenceWithDataAvailability",
      "type": "event"
    },
    {
      "anonymous": false,
      "inputs": [
        {
          "indexed": false,
          "internalType": "address",
          "name": "newPendingAdmin",
          "type": "address"
        }
      ],
      "name": "TransferAdminRole",
      "type": "event"
    },
    {
      "anonymous": false,
      "inputs": [
        {
          "indexed": true,
          "internalType": "uint64",
          "name": "numBatch",
          "type": "uint64"
        },
        {
          "indexed": false,
          "internalType": "bytes32",
          "name": "stateRoot",
          "type": "bytes32"
        },
        {
          "indexed": true,
          "internalType": "address",
          "name": "aggregator",
          "type": "address"
        }
      ],
      "name": "VerifyBatches",
      "type": "event"
    },
    {
      "inputs": [],
      "name": "BASE_INITIALIZE_TX_BRIDGE",
      "outputs": [
        {
          "internalType": "bytes",
          "name": "",
          "type": "bytes"
        }
      ],
      "stateMutability": "view",
      "type": "function"
    },
    {
      "inputs": [],
      "name": "GLOBAL_EXIT_ROOT_MANAGER_L2",
      "outputs": [
        {
          "internalType": "contract IBasePolygonZkEVMGlobalExitRoot",
          "name": "",
          "type": "address"
        }
      ],
      "stateMutability": "view",
      "type": "function"
    },
    {
      "inputs": [],
      "name": "INITIALIZE_TX_EFFECTIVE_PERCENTAGE",
      "outputs": [
        {
          "internalType": "bytes1",
          "name": "",
          "type": "bytes1"
        }
      ],
      "stateMutability": "view",
      "type": "function"
    },
    {
      "inputs": [],
      "name": "SIGNATURE_INITIALIZE_TX_R",
      "outputs": [
        {
          "internalType": "bytes32",
          "name": "",
          "type": "bytes32"
        }
      ],
      "stateMutability": "view",
      "type": "function"
    },
    {
      "inputs": [],
      "name": "SIGNATURE_INITIALIZE_TX_S",
      "outputs": [
        {
          "internalType": "bytes32",
          "name": "",
          "type": "bytes32"
        }
      ],
      "stateMutability": "view",
      "type": "function"
    },
    {
      "inputs": [],
      "name": "SIGNATURE_INITIALIZE_TX_V",
      "outputs": [
        {
          "internalType": "uint8",
          "name": "",
          "type": "uint8"
        }
      ],
      "stateMutability": "view",
      "type": "function"
    },
    {
      "inputs": [],
      "name": "acceptAdminRole",
      "outputs": [],
      "stateMutability": "nonpayable",
      "type": "function"
    },
    {
      "inputs": [],
      "name": "activateForceBatches",
      "outputs": [],
      "stateMutability": "nonpayable",
      "type": "function"
    },
    {
      "inputs": [],
      "name": "admin",
      "outputs": [
        {
          "internalType": "address",
          "name": "",
          "type": "address"
        }
      ],
      "stateMutability": "view",
      "type": "function"
    },
    {
      "inputs": [],
      "name": "bridgeAddress",
      "outputs": [
        {
          "internalType": "contract IPolygonZkEVMBridge",
          "name": "",
          "type": "address"
        }
      ],
      "stateMutability": "view",
      "type": "function"
    },
    {
      "inputs": [],
      "name": "calculatePolPerForceBatch",
      "outputs": [
        {
          "internalType": "uint256",
          "name": "",
          "type": "uint256"
        }
      ],
      "stateMutability": "view",
      "type": "function"
    },
    {
      "inputs": [],
      "name": "dataCommittee",
      "outputs": [
        {
          "internalType": "contract ICDKDataCommittee",
          "name": "",
          "type": "address"
        }
      ],
      "stateMutability": "view",
      "type": "function"
    },
    {
      "inputs": [
        {
          "internalType": "bytes",
          "name": "transactions",
          "type": "bytes"
        },
        {
          "internalType": "uint256",
          "name": "polAmount",
          "type": "uint256"
        }
      ],
      "name": "forceBatch",
      "outputs": [],
      "stateMutability": "nonpayable",
      "type": "function"
    },
    {
      "inputs": [],
      "name": "forceBatchTimeout",
      "outputs": [
        {
          "internalType": "uint64",
          "name": "",
          "type": "uint64"
        }
      ],
      "stateMutability": "view",
      "type": "function"
    },
    {
      "inputs": [
        {
          "internalType": "uint64",
          "name": "",
          "type": "uint64"
        }
      ],
      "name": "forcedBatches",
      "outputs": [
        {
          "internalType": "bytes32",
          "name": "",
          "type": "bytes32"
        }
      ],
      "stateMutability": "view",
      "type": "function"
    },
    {
      "inputs": [],
      "name": "gasTokenAddress",
      "outputs": [
        {
          "internalType": "address",
          "name": "",
          "type": "address"
        }
      ],
      "stateMutability": "view",
      "type": "function"
    },
    {
      "inputs": [],
      "name": "gasTokenNetwork",
      "outputs": [
        {
          "internalType": "uint32",
          "name": "",
          "type": "uint32"
        }
      ],
      "stateMutability": "view",
      "type": "function"
    },
    {
      "inputs": [
        {
          "internalType": "uint32",
          "name": "networkID",
          "type": "uint32"
        },
        {
          "internalType": "address",
          "name": "_gasTokenAddress",
          "type": "address"
        },
        {
          "internalType": "uint32",
          "name": "_gasTokenNetwork",
          "type": "uint32"
        }
      ],
      "name": "generateInitializeTransaction",
      "outputs": [
        {
          "internalType": "bytes",
          "name": "",
          "type": "bytes"
        }
      ],
      "stateMutability": "pure",
      "type": "function"
    },
    {
      "inputs": [],
      "name": "globalExitRootManager",
      "outputs": [
        {
          "internalType": "contract IPolygonZkEVMGlobalExitRoot",
          "name": "",
          "type": "address"
        }
      ],
      "stateMutability": "view",
      "type": "function"
    },
    {
      "inputs": [
        {
          "internalType": "address",
          "name": "_admin",
          "type": "address"
        },
        {
          "internalType": "address",
          "name": "sequencer",
          "type": "address"
        },
        {
          "internalType": "uint32",
          "name": "networkID",
          "type": "uint32"
        },
        {
          "internalType": "address",
          "name": "_gasTokenAddress",
          "type": "address"
        },
        {
          "internalType": "uint32",
          "name": "_gasTokenNetwork",
          "type": "uint32"
        },
        {
          "internalType": "string",
          "name": "sequencerURL",
          "type": "string"
        },
        {
          "internalType": "string",
          "name": "_networkName",
          "type": "string"
        }
      ],
      "name": "initialize",
      "outputs": [],
      "stateMutability": "nonpayable",
      "type": "function"
    },
    {
      "inputs": [],
      "name": "isForcedBatchAllowed",
      "outputs": [
        {
          "internalType": "bool",
          "name": "",
          "type": "bool"
        }
      ],
      "stateMutability": "view",
      "type": "function"
    },
    {
      "inputs": [],
      "name": "isSequenceWithDataAvailabilityAllowed",
      "outputs": [
        {
          "internalType": "bool",
          "name": "",
          "type": "bool"
        }
      ],
      "stateMutability": "view",
      "type": "function"
    },
    {
      "inputs": [],
      "name": "lastAccInputHash",
      "outputs": [
        {
          "internalType": "bytes32",
          "name": "",
          "type": "bytes32"
        }
      ],
      "stateMutability": "view",
      "type": "function"
    },
    {
      "inputs": [],
      "name": "lastForceBatch",
      "outputs": [
        {
          "internalType": "uint64",
          "name": "",
          "type": "uint64"
        }
      ],
      "stateMutability": "view",
      "type": "function"
    },
    {
      "inputs": [],
      "name": "lastForceBatchSequenced",
      "outputs": [
        {
          "internalType": "uint64",
          "name": "",
          "type": "uint64"
        }
      ],
      "stateMutability": "view",
      "type": "function"
    },
    {
      "inputs": [],
      "name": "lastTimestamp",
      "outputs": [
        {
          "internalType": "uint64",
          "name": "",
          "type": "uint64"
        }
      ],
      "stateMutability": "view",
      "type": "function"
    },
    {
      "inputs": [],
      "name": "networkName",
      "outputs": [
        {
          "internalType": "string",
          "name": "",
          "type": "string"
        }
      ],
      "stateMutability": "view",
      "type": "function"
    },
    {
      "inputs": [
        {
          "internalType": "uint64",
          "name": "lastVerifiedBatch",
          "type": "uint64"
        },
        {
          "internalType": "bytes32",
          "name": "newStateRoot",
          "type": "bytes32"
        },
        {
          "internalType": "address",
          "name": "aggregator",
          "type": "address"
        }
      ],
      "name": "onVerifyBatches",
      "outputs": [],
      "stateMutability": "nonpayable",
      "type": "function"
    },
    {
      "inputs": [],
      "name": "pendingAdmin",
      "outputs": [
        {
          "internalType": "address",
          "name": "",
          "type": "address"
        }
      ],
      "stateMutability": "view",
      "type": "function"
    },
    {
      "inputs": [],
      "name": "pol",
      "outputs": [
        {
          "internalType": "contract IERC20Upgradeable",
          "name": "",
          "type": "address"
        }
      ],
      "stateMutability": "view",
      "type": "function"
    },
    {
      "inputs": [],
      "name": "rollupManager",
      "outputs": [
        {
          "internalType": "contract PolygonRollupManager",
          "name": "",
          "type": "address"
        }
      ],
      "stateMutability": "view",
      "type": "function"
    },
    {
      "inputs": [
        {
          "components": [
            {
              "internalType": "bytes",
              "name": "transactions",
              "type": "bytes"
            },
            {
              "internalType": "bytes32",
              "name": "globalExitRoot",
              "type": "bytes32"
            },
            {
              "internalType": "uint64",
              "name": "timestamp",
              "type": "uint64"
            },
            {
              "internalType": "uint64",
              "name": "minForcedTimestamp",
              "type": "uint64"
            }
          ],
          "internalType": "struct PolygonRollupBase.BatchData[]",
          "name": "batches",
          "type": "tuple[]"
        },
        {
          "internalType": "address",
          "name": "l2Coinbase",
          "type": "address"
        }
      ],
      "name": "sequenceBatches",
      "outputs": [],
      "stateMutability": "nonpayable",
      "type": "function"
    },
    {
      "inputs": [
        {
          "components": [
            {
              "internalType": "bytes32",
              "name": "transactionsHash",
              "type": "bytes32"
            },
            {
              "internalType": "bytes32",
              "name": "globalExitRoot",
              "type": "bytes32"
            },
            {
              "internalType": "uint64",
              "name": "timestamp",
              "type": "uint64"
            },
            {
              "internalType": "uint64",
              "name": "minForcedTimestamp",
              "type": "uint64"
            }
          ],
          "internalType": "struct PolygonDataComittee.ValidiumBatchData[]",
          "name": "batches",
          "type": "tuple[]"
        },
        {
          "internalType": "address",
          "name": "l2Coinbase",
          "type": "address"
        },
        {
          "internalType": "bytes",
          "name": "dataAvailabilityMessage",
          "type": "bytes"
        }
      ],
      "name": "sequenceBatchesDataCommittee",
      "outputs": [],
      "stateMutability": "nonpayable",
      "type": "function"
    },
    {
      "inputs": [
        {
          "components": [
            {
              "internalType": "bytes",
              "name": "transactions",
              "type": "bytes"
            },
            {
              "internalType": "bytes32",
              "name": "globalExitRoot",
              "type": "bytes32"
            },
            {
              "internalType": "uint64",
              "name": "minForcedTimestamp",
              "type": "uint64"
            }
          ],
          "internalType": "struct PolygonRollupBase.ForcedBatchData[]",
          "name": "batches",
          "type": "tuple[]"
        }
      ],
      "name": "sequenceForceBatches",
      "outputs": [],
      "stateMutability": "nonpayable",
      "type": "function"
    },
    {
      "inputs": [
        {
          "internalType": "uint64",
          "name": "newforceBatchTimeout",
          "type": "uint64"
        }
      ],
      "name": "setForceBatchTimeout",
      "outputs": [],
      "stateMutability": "nonpayable",
      "type": "function"
    },
    {
      "inputs": [
        {
          "internalType": "address",
          "name": "newTrustedSequencer",
          "type": "address"
        }
      ],
      "name": "setTrustedSequencer",
      "outputs": [],
      "stateMutability": "nonpayable",
      "type": "function"
    },
    {
      "inputs": [
        {
          "internalType": "string",
          "name": "newTrustedSequencerURL",
          "type": "string"
        }
      ],
      "name": "setTrustedSequencerURL",
      "outputs": [],
      "stateMutability": "nonpayable",
      "type": "function"
    },
    {
      "inputs": [],
      "name": "switchSequenceWithDataAvailability",
      "outputs": [],
      "stateMutability": "nonpayable",
      "type": "function"
    },
    {
      "inputs": [
        {
          "internalType": "address",
          "name": "newPendingAdmin",
          "type": "address"
        }
      ],
      "name": "transferAdminRole",
      "outputs": [],
      "stateMutability": "nonpayable",
      "type": "function"
    },
    {
      "inputs": [],
      "name": "trustedSequencer",
      "outputs": [
        {
          "internalType": "address",
          "name": "",
          "type": "address"
        }
      ],
      "stateMutability": "view",
      "type": "function"
    },
    {
      "inputs": [],
      "name": "trustedSequencerURL",
      "outputs": [
        {
          "internalType": "string",
          "name": "",
          "type": "string"
        }
      ],
      "stateMutability": "view",
      "type": "function"
    }
  ],
  "bytecode": "0x6101206040523480156200001257600080fd5b506040516200358538038062003585833981016040819052620000359162000078565b6001600160a01b0394851660a05292841660805290831660c052821660e0521661010052620000f8565b6001600160a01b03811681146200007557600080fd5b50565b600080600080600060a086880312156200009157600080fd5b85516200009e816200005f565b6020870151909550620000b1816200005f565b6040870151909450620000c4816200005f565b6060870151909350620000d7816200005f565b6080870151909250620000ea816200005f565b809150509295509295909350565b60805160a05160c05160e05161010051613399620001ec60003960008181610388015261148c01526000818161033201528181610725015281816107c001528181610a3a01528181610b970152818161153e015281816115d6015281816115f80152818161174001528181611acb01528181611b4801528181611c28015281816122e50152818161234201528181612364015261244c01526000818161043c015281816116b601526123c20152600081816104dd015281816112eb01528181611d2701526120f501526000818161052a015281816105b1015281816115830152818161168c0152611cfb01526133996000f3fe608060405234801561001057600080fd5b50600436106101e25760003560e01c8062d0295d146101e7578063107bf28c1461020257806319d8ac611461021757806326782247146102425780632b35b3ac1461026257806332c2d1531461027f5780633c351e10146102945780633cbc795b146102ac57806340b5de6c146102d8578063456052671461030057806347ebf1081461031a57806349b7b8021461032d5780634c21fef3146103545780634e48770614610368578063542028d51461037b57806356e29435146103835780635e9145c9146103aa5780635ec91958146103bd5780636b8616ce146103c55780636e05d2cd146103e55780636ff512cc146103ee5780638c3d73011461040157806399af0397146104095780639e0018771461041c578063a3c573eb14610437578063aa3587d31461045e578063ada8f91914610466578063b0afe15414610479578063b81fcafd14610485578063c754c7ed14610498578063c89e42df146104b2578063cfa8ed47146104c5578063d02103ca146104d8578063d690be31146104ff578063d7bc90ff14610507578063d8d1091b14610512578063e46761c414610525578063e7a7ed021461054c578063eaeb077b14610566578063f35dda4714610579578063f851a44014610593575b600080fd5b6101ef6105ac565b6040519081526020015b60405180910390f35b61020a610695565b6040516101f99190612849565b60075461022a906001600160401b031681565b6040516001600160401b0390911681526020016101f9565b600154610255906001600160a01b031681565b6040516101f99190612863565b60085461026f9060ff1681565b60405190151581526020016101f9565b61029261028d3660046128ab565b610723565b005b6008546102559061010090046001600160a01b031681565b6008546102c390600160a81b900463ffffffff1681565b60405163ffffffff90911681526020016101f9565b6102e76001600160f81b031981565b6040516001600160f81b031990911681526020016101f9565b60075461022a90600160801b90046001600160401b031681565b6102926103283660046129c7565b6107be565b6102557f000000000000000000000000000000000000000000000000000000000000000081565b60085461026f90600160c81b900460ff1681565b610292610376366004612a7d565b610b37565b61020a610cae565b6102557f000000000000000000000000000000000000000000000000000000000000000081565b6102926103b8366004612ae5565b610cbb565b610292610cf5565b6101ef6103d3366004612a7d565b60066020526000908152604090205481565b6101ef60055481565b6102926103fc366004612b2f565b610d82565b610292610dfe565b61020a610417366004612b4a565b610e8b565b61025573a40d5f56745a118d0906a34e69aec8c0db1cb8fa81565b6102557f000000000000000000000000000000000000000000000000000000000000000081565b610292611018565b610292610474366004612b2f565b611093565b6101ef6405ca1ab1e081565b610292610493366004612bc5565b61110f565b60075461022a90600160c01b90046001600160401b031681565b6102926104c0366004612c76565b6117ee565b600254610255906001600160a01b031681565b6102557f000000000000000000000000000000000000000000000000000000000000000081565b61020a61185b565b6101ef635ca1ab1e81565b610292610520366004612caa565b611877565b6102557f000000000000000000000000000000000000000000000000000000000000000081565b60075461022a90600160401b90046001600160401b031681565b610292610574366004612ceb565b611c01565b610581601b81565b60405160ff90911681526020016101f9565b600054610255906201000090046001600160a01b031681565b6000807f00000000000000000000000000000000000000000000000000000000000000006001600160a01b03166370a08231306040518263ffffffff1660e01b81526004016105fb9190612863565b602060405180830381865afa158015610618573d6000803e3d6000fd5b505050506040513d601f19601f8201168201806040525081019061063c9190612d36565b600754909150600090610668906001600160401b03600160801b8204811691600160401b900416612d65565b6001600160401b03169050806000036106845760009250505090565b61068e8183612d8c565b9250505090565b600480546106a290612dae565b80601f01602080910402602001604051908101604052809291908181526020018280546106ce90612dae565b801561071b5780601f106106f05761010080835404028352916020019161071b565b820191906000526020600020905b8154815290600101906020018083116106fe57829003601f168201915b505050505081565b7f00000000000000000000000000000000000000000000000000000000000000006001600160a01b0316331461076c57604051631736745960e31b815260040160405180910390fd5b806001600160a01b0316836001600160401b03167f9c72852172521097ba7e1482e6b44b351323df0155f97f4ea18fcec28e1f5966846040516107b191815260200190565b60405180910390a3505050565b7f00000000000000000000000000000000000000000000000000000000000000006001600160a01b0316331461080757604051631736745960e31b815260040160405180910390fd5b600054610100900460ff16158080156108275750600054600160ff909116105b80610848575061083630611efd565b158015610848575060005460ff166001145b6108b05760405162461bcd60e51b815260206004820152602e60248201527f496e697469616c697a61626c653a20636f6e747261637420697320616c72656160448201526d191e481a5b9a5d1a585b1a5e995960921b60648201526084015b60405180910390fd5b6000805460ff1916600117905580156108d3576000805461ff0019166101001790555b6000805462010000600160b01b031916620100006001600160a01b038b81169190910291909117909155600280546001600160a01b03191691891691909117905560036109208482612e36565b50600461092d8382612e36565b50600780546001600160c01b0316610d2f60c71b1790556001600160a01b0385166109775763ffffffff84161561097757604051630d43a60960e11b815260040160405180910390fd5b60088054610100600160c81b0319166101006001600160a01b0388160263ffffffff60a81b191617600160a81b63ffffffff87160217905560006109bc878787610e8b565b9050600081805190602001209050600042905060008060001b836000801b848e6040516020016109f0959493929190612ef5565b60408051808303601f19018152908290528051602090910120600780546001600160401b0319166001600160401b0386161790556005819055639a908e7360e01b825291506000907f00000000000000000000000000000000000000000000000000000000000000006001600160a01b031690639a908e7390610a7a906001908690600401612f34565b6020604051808303816000875af1158015610a99573d6000803e3d6000fd5b505050506040513d601f19601f82011682018060405250810190610abd9190612f4d565b6040519091506001600160401b0382169060008051602061330383398151915290600090a250505050508015610b2d576000805461ff0019169055604051600181527f7f26b83ff96e1f2b6a682f133852f6798a09c465da95921460cefb38474024989060200160405180910390a15b5050505050505050565b6000546201000090046001600160a01b03163314610b6857604051634755657960e01b815260040160405180910390fd5b62093a806001600160401b0382161115610b955760405163f5e37f2f60e01b815260040160405180910390fd5b7f00000000000000000000000000000000000000000000000000000000000000006001600160a01b03166315064c966040518163ffffffff1660e01b8152600401602060405180830381865afa158015610bf3573d6000803e3d6000fd5b505050506040513d601f19601f82011682018060405250810190610c179190612f6a565b610c51576007546001600160401b03600160c01b909104811690821610610c515760405163f5e37f2f60e01b815260040160405180910390fd5b600780546001600160c01b0316600160c01b6001600160401b038416908102919091179091556040519081527fa7eb6cb8a613eb4e8bddc1ac3d61ec6cf10898760f0b187bcca794c6ca6fa40b906020015b60405180910390a150565b600380546106a290612dae565b600854600160c81b900460ff16610ce5576040516320864d6d60e21b815260040160405180910390fd5b610cf0838383611f0c565b505050565b6000546201000090046001600160a01b03163314610d2657604051634755657960e01b815260040160405180910390fd5b60085460ff1615610d4a5760405163f6ba91a160e01b815260040160405180910390fd5b6008805460ff191660011790556040517f854dd6ce5a1445c4c54388b21cffd11cf5bba1b9e763aec48ce3da75d617412f90600090a1565b6000546201000090046001600160a01b03163314610db357604051634755657960e01b815260040160405180910390fd5b600280546001600160a01b0319166001600160a01b0383161790556040517ff54144f9611984021529f814a1cb6a41e22c58351510a0d9f7e822618abb9cc090610ca3908390612863565b6001546001600160a01b03163314610e295760405163d1ec4b2360e01b815260040160405180910390fd5b60015460008054620100006001600160a01b0390931692830262010000600160b01b03199091161790556040517f056dc487bbf0795d0bbb1b4f0af523a855503cff740bfb4d5475f7a90c091e8e91610e8191612863565b60405180910390a1565b606060006040518060600160405280602181526020016133436021913960405163ffffffff80881660248301526001600160a01b03871660448301528516606482015273a40d5f56745a118d0906a34e69aec8c0db1cb8fa6084820152600060a482015260c40160408051601f19818403018152918152602080830180516001600160e01b03166369a3b57f60e11b1790529051610f2b93929101612f8c565b60408051601f198184030181528282528051602080830191909120600080865291850180855252601b928401929092526405ca1ab1e06060840152635ca1ab1e608084015292509060019060a0016020604051602081039080840390855afa158015610f9b573d6000803e3d6000fd5b5050604051601f1901519150506001600160a01b038116610fcf5760405163668b0cb360e11b815260040160405180910390fd5b604051600090610ffd9084906405ca1ab1e090635ca1ab1e90601b906001600160f81b031990602001612fbb565b60408051808303601f19018152919052979650505050505050565b6000546201000090046001600160a01b0316331461104957604051634755657960e01b815260040160405180910390fd5b6008805460ff60c81b198116600160c81b9182900460ff16159091021790556040517ff32a0473f809a720a4f8af1e50d353f1caf7452030626fdaac4273f5e6587f4190600090a1565b6000546201000090046001600160a01b031633146110c457604051634755657960e01b815260040160405180910390fd5b600180546001600160a01b0319166001600160a01b0383161790556040517fa5b56b7906fd0a20e3f35120dd8343db1e12e037a6c90111c7e42885e82a1ce690610ca3908390612863565b6002546001600160a01b0316331461113a576040516311e7be1560e01b815260040160405180910390fd5b83600081900361115d5760405163cb591a5f60e01b815260040160405180910390fd5b6103e881111561118057604051635acfba9d60e11b815260040160405180910390fd5b6007546005546001600160401b0380831692600160801b900416908160005b858110156114235760008b8b838181106111bb576111bb612fff565b9050608002018036038101906111d19190613015565b80516060820151919250906001600160401b0316156112c157856111f48161306a565b9650506000818360200151846060015160405160200161121693929190613098565b60408051601f1981840301815291815281516020928301206001600160401b038a166000908152600690935291205490915081146112675760405163671ebaaf60e11b815260040160405180910390fd5b82606001516001600160401b031683604001516001600160401b031610156112a257604051633fbd5c3960e11b815260040160405180910390fd5b506001600160401b038616600090815260066020526040812055611380565b602082015115801590611362575060208201516040516312bd9b1960e11b815260048101919091527f00000000000000000000000000000000000000000000000000000000000000006001600160a01b03169063257b3632906024016020604051808303816000875af115801561133c573d6000803e3d6000fd5b505050506040513d601f19601f820116820180604052508101906113609190612d36565b155b15611380576040516373bd668d60e01b815260040160405180910390fd5b866001600160401b031682604001516001600160401b031610806113b057504282604001516001600160401b0316115b156113ce576040516375413c8b60e11b815260040160405180910390fd5b8481836020015184604001518e6040516020016113ef959493929190612ef5565b604051602081830303815290604052805190602001209450816040015196505050808061141b906130bb565b91505061119f565b506007546001600160401b03600160401b9091048116908416111561145b5760405163c630a00d60e01b815260040160405180910390fd5b600780546001600160401b0319166001600160401b038616179055600582905560405163063d411f60e51b815285907f00000000000000000000000000000000000000000000000000000000000000006001600160a01b03169063c7a823e0906114cd9086908c908c906004016130fd565b60006040518083038186803b1580156114e557600080fd5b505afa1580156114f9573d6000803e3d6000fd5b50505050816001600160401b0316846001600160401b0316146115d05760006115228386612d65565b90506115376001600160401b03821683613120565b91506115aa7f0000000000000000000000000000000000000000000000000000000000000000826001600160401b031661156f6105ac565b6115799190613139565b6001600160a01b037f00000000000000000000000000000000000000000000000000000000000000001691906124f8565b5060078054600160801b600160c01b031916600160801b6001600160401b038716021790555b6116b4337f0000000000000000000000000000000000000000000000000000000000000000837f00000000000000000000000000000000000000000000000000000000000000006001600160a01b031663477fa2706040518163ffffffff1660e01b8152600401602060405180830381865afa158015611654573d6000803e3d6000fd5b505050506040513d601f19601f820116820180604052508101906116789190612d36565b6116829190613139565b6001600160a01b037f00000000000000000000000000000000000000000000000000000000000000001692919061255b565b7f00000000000000000000000000000000000000000000000000000000000000006001600160a01b03166379e2cf976040518163ffffffff1660e01b8152600401600060405180830381600087803b15801561170f57600080fd5b505af1158015611723573d6000803e3d6000fd5b5050604051639a908e7360e01b8152600092506001600160a01b037f0000000000000000000000000000000000000000000000000000000000000000169150639a908e7390611778908a908890600401612f34565b6020604051808303816000875af1158015611797573d6000803e3d6000fd5b505050506040513d601f19601f820116820180604052508101906117bb9190612f4d565b6040519091506001600160401b0382169060008051602061330383398151915290600090a2505050505050505050505050565b6000546201000090046001600160a01b0316331461181f57604051634755657960e01b815260040160405180910390fd5b600361182b8282612e36565b507f6b8f723a4c7a5335cafae8a598a0aa0301be1387c037dccc085b62add6448b2081604051610ca39190612849565b6040518060600160405280602181526020016133436021913981565b60085460ff1661189a576040516324eff8c360e01b815260040160405180910390fd5b8060008190036118bd5760405163cb591a5f60e01b815260040160405180910390fd5b6103e88111156118e057604051635acfba9d60e11b815260040160405180910390fd5b6007546001600160401b03600160401b8204811691611908918491600160801b900416613150565b11156119275760405163c630a00d60e01b815260040160405180910390fd5b600754600554600160801b9091046001600160401b03169060005b83811015611ac557600086868381811061195e5761195e612fff565b90506020028101906119709190613163565b61197990613183565b9050836119858161306a565b825180516020918201208185015160408087015190519499509194506000936119b19386939101613098565b60408051601f1981840301815291815281516020928301206001600160401b038916600090815260069093529120549091508114611a025760405163671ebaaf60e11b815260040160405180910390fd5b6001600160401b038616600090815260066020526040812055611a26600188613120565b8403611a7a5742600760189054906101000a90046001600160401b03168460400151611a529190613200565b6001600160401b03161115611a7a5760405163c44a082160e01b815260040160405180910390fd5b848284602001514233604051602001611a97959493929190612ef5565b6040516020818303038152906040528051906020012094505050508080611abd906130bb565b915050611942565b50611af37f00000000000000000000000000000000000000000000000000000000000000008461156f6105ac565b6005819055600780546001600160401b03848116600160801b026001600160401b03600160801b03600160c01b0319909216429190911617179055604051639a908e7360e01b81526000906001600160a01b037f00000000000000000000000000000000000000000000000000000000000000001690639a908e7390611b7f9087908690600401612f34565b6020604051808303816000875af1158015611b9e573d6000803e3d6000fd5b505050506040513d601f19601f82011682018060405250810190611bc29190612f4d565b6040519091506001600160401b038216907f648a61dd2438f072f5a1960939abd30f37aea80d2e94c9792ad142d3e0a490a490600090a2505050505050565b60085460ff16611c24576040516324eff8c360e01b815260040160405180910390fd5b60007f00000000000000000000000000000000000000000000000000000000000000006001600160a01b031663604691696040518163ffffffff1660e01b8152600401602060405180830381865afa158015611c84573d6000803e3d6000fd5b505050506040513d601f19601f82011682018060405250810190611ca89190612d36565b905081811115611ccb57604051632354600f60e01b815260040160405180910390fd5b611388831115611cee576040516328a69b1f60e21b815260040160405180910390fd5b611d236001600160a01b037f00000000000000000000000000000000000000000000000000000000000000001633308461255b565b60007f00000000000000000000000000000000000000000000000000000000000000006001600160a01b0316633ed691ef6040518163ffffffff1660e01b8152600401602060405180830381865afa158015611d83573d6000803e3d6000fd5b505050506040513d601f19601f82011682018060405250810190611da79190612d36565b60078054919250600160401b9091046001600160401b0316906008611dcb8361306a565b91906101000a8154816001600160401b0302191690836001600160401b03160217905550508484604051611e00929190613220565b604051908190038120611e199183904290602001613098565b60408051808303601f190181529181528151602092830120600754600160401b90046001600160401b031660009081526006909352912055323303611eab57600754604080518381523360208201526060918101829052600091810191909152600160401b9091046001600160401b0316906000805160206133238339815191529060800160405180910390a2611ef6565b600760089054906101000a90046001600160401b03166001600160401b031660008051602061332383398151915282338888604051611eed9493929190613230565b60405180910390a25b5050505050565b6001600160a01b03163b151590565b6002546001600160a01b03163314611f37576040516311e7be1560e01b815260040160405180910390fd5b816000819003611f5a5760405163cb591a5f60e01b815260040160405180910390fd5b6103e8811115611f7d57604051635acfba9d60e11b815260040160405180910390fd5b6007546005546001600160401b0380831692600160801b900416908160005b85811015612253576000898983818110611fb857611fb8612fff565b9050602002810190611fca9190613265565b611fd39061327b565b805180516020909101206060820151919250906001600160401b0316156120cb5785611ffe8161306a565b9650506000818360200151846060015160405160200161202093929190613098565b60408051601f1981840301815291815281516020928301206001600160401b038a166000908152600690935291205490915081146120715760405163671ebaaf60e11b815260040160405180910390fd5b82606001516001600160401b031683604001516001600160401b031610156120ac57604051633fbd5c3960e11b815260040160405180910390fd5b506001600160401b0386166000908152600660205260408120556121b0565b60208201511580159061216c575060208201516040516312bd9b1960e11b815260048101919091527f00000000000000000000000000000000000000000000000000000000000000006001600160a01b03169063257b3632906024016020604051808303816000875af1158015612146573d6000803e3d6000fd5b505050506040513d601f19601f8201168201806040525081019061216a9190612d36565b155b1561218a576040516373bd668d60e01b815260040160405180910390fd5b8151516201d4c010156121b0576040516328a69b1f60e21b815260040160405180910390fd5b866001600160401b031682604001516001600160401b031610806121e057504282604001516001600160401b0316115b156121fe576040516375413c8b60e11b815260040160405180910390fd5b8481836020015184604001518c60405160200161221f959493929190612ef5565b604051602081830303815290604052805190602001209450816040015196505050808061224b906130bb565b915050611f9c565b506007546001600160401b03600160401b9091048116908416111561228b5760405163c630a00d60e01b815260040160405180910390fd5b600780546001600160401b0319166001600160401b0386811691909117909155600583905585908281169085161461233c5760006122c98386612d65565b90506122de6001600160401b03821683613120565b91506123167f0000000000000000000000000000000000000000000000000000000000000000826001600160401b031661156f6105ac565b5060078054600160801b600160c01b031916600160801b6001600160401b038716021790555b6123c0337f0000000000000000000000000000000000000000000000000000000000000000837f00000000000000000000000000000000000000000000000000000000000000006001600160a01b031663477fa2706040518163ffffffff1660e01b8152600401602060405180830381865afa158015611654573d6000803e3d6000fd5b7f00000000000000000000000000000000000000000000000000000000000000006001600160a01b03166379e2cf976040518163ffffffff1660e01b8152600401600060405180830381600087803b15801561241b57600080fd5b505af115801561242f573d6000803e3d6000fd5b5050604051639a908e7360e01b8152600092506001600160a01b037f0000000000000000000000000000000000000000000000000000000000000000169150639a908e7390612484908a908890600401612f34565b6020604051808303816000875af11580156124a3573d6000803e3d6000fd5b505050506040513d601f19601f820116820180604052508101906124c79190612f4d565b6040519091506001600160401b0382169060008051602061330383398151915290600090a250505050505050505050565b6040516001600160a01b038316602482015260448101829052610cf090849063a9059cbb60e01b906064015b60408051601f198184030181529190526020810180516001600160e01b03166001600160e01b031990931692909217909152612599565b6040516001600160a01b03808516602483015283166044820152606481018290526125939085906323b872dd60e01b90608401612524565b50505050565b60006125ee826040518060400160405280602081526020017f5361666545524332303a206c6f772d6c6576656c2063616c6c206661696c6564815250856001600160a01b031661266b9092919063ffffffff16565b805190915015610cf0578080602001905181019061260c9190612f6a565b610cf05760405162461bcd60e51b815260206004820152602a60248201527f5361666545524332303a204552433230206f7065726174696f6e20646964206e6044820152691bdd081cdd58d8d9595960b21b60648201526084016108a7565b606061267a8484600085612682565b949350505050565b6060824710156126e35760405162461bcd60e51b815260206004820152602660248201527f416464726573733a20696e73756666696369656e742062616c616e636520666f6044820152651c8818d85b1b60d21b60648201526084016108a7565b600080866001600160a01b031685876040516126ff91906132f0565b60006040518083038185875af1925050503d806000811461273c576040519150601f19603f3d011682016040523d82523d6000602084013e612741565b606091505b50915091506127528783838761275d565b979650505050505050565b606083156127ca5782516000036127c35761277785611efd565b6127c35760405162461bcd60e51b815260206004820152601d60248201527f416464726573733a2063616c6c20746f206e6f6e2d636f6e747261637400000060448201526064016108a7565b508161267a565b61267a83838151156127df5781518083602001fd5b8060405162461bcd60e51b81526004016108a79190612849565b60005b838110156128145781810151838201526020016127fc565b50506000910152565b600081518084526128358160208601602086016127f9565b601f01601f19169290920160200192915050565b60208152600061285c602083018461281d565b9392505050565b6001600160a01b0391909116815260200190565b6001600160401b038116811461288c57600080fd5b50565b80356001600160a01b03811681146128a657600080fd5b919050565b6000806000606084860312156128c057600080fd5b83356128cb81612877565b9250602084013591506128e06040850161288f565b90509250925092565b803563ffffffff811681146128a657600080fd5b634e487b7160e01b600052604160045260246000fd5b604051608081016001600160401b0381118282101715612935576129356128fd565b60405290565b600082601f83011261294c57600080fd5b81356001600160401b0380821115612966576129666128fd565b604051601f8301601f19908116603f0116810190828211818310171561298e5761298e6128fd565b816040528381528660208588010111156129a757600080fd5b836020870160208301376000602085830101528094505050505092915050565b600080600080600080600060e0888a0312156129e257600080fd5b6129eb8861288f565b96506129f96020890161288f565b9550612a07604089016128e9565b9450612a156060890161288f565b9350612a23608089016128e9565b925060a08801356001600160401b0380821115612a3f57600080fd5b612a4b8b838c0161293b565b935060c08a0135915080821115612a6157600080fd5b50612a6e8a828b0161293b565b91505092959891949750929550565b600060208284031215612a8f57600080fd5b813561285c81612877565b60008083601f840112612aac57600080fd5b5081356001600160401b03811115612ac357600080fd5b6020830191508360208260051b8501011115612ade57600080fd5b9250929050565b600080600060408486031215612afa57600080fd5b83356001600160401b03811115612b1057600080fd5b612b1c86828701612a9a565b90945092506128e090506020850161288f565b600060208284031215612b4157600080fd5b61285c8261288f565b600080600060608486031215612b5f57600080fd5b612b68846128e9565b9250612b766020850161288f565b91506128e0604085016128e9565b60008083601f840112612b9657600080fd5b5081356001600160401b03811115612bad57600080fd5b602083019150836020828501011115612ade57600080fd5b600080600080600060608688031215612bdd57600080fd5b85356001600160401b0380821115612bf457600080fd5b818801915088601f830112612c0857600080fd5b813581811115612c1757600080fd5b8960208260071b8501011115612c2c57600080fd5b60208301975080965050612c426020890161288f565b94506040880135915080821115612c5857600080fd5b50612c6588828901612b84565b969995985093965092949392505050565b600060208284031215612c8857600080fd5b81356001600160401b03811115612c9e57600080fd5b61267a8482850161293b565b60008060208385031215612cbd57600080fd5b82356001600160401b03811115612cd357600080fd5b612cdf85828601612a9a565b90969095509350505050565b600080600060408486031215612d0057600080fd5b83356001600160401b03811115612d1657600080fd5b612d2286828701612b84565b909790965060209590950135949350505050565b600060208284031215612d4857600080fd5b5051919050565b634e487b7160e01b600052601160045260246000fd5b6001600160401b03828116828216039080821115612d8557612d85612d4f565b5092915050565b600082612da957634e487b7160e01b600052601260045260246000fd5b500490565b600181811c90821680612dc257607f821691505b602082108103612de257634e487b7160e01b600052602260045260246000fd5b50919050565b601f821115610cf057600081815260208120601f850160051c81016020861015612e0f5750805b601f850160051c820191505b81811015612e2e57828155600101612e1b565b505050505050565b81516001600160401b03811115612e4f57612e4f6128fd565b612e6381612e5d8454612dae565b84612de8565b602080601f831160018114612e985760008415612e805750858301515b600019600386901b1c1916600185901b178555612e2e565b600085815260208120601f198616915b82811015612ec757888601518255948401946001909101908401612ea8565b5085821015612ee55787850151600019600388901b60f8161c191681555b5050505050600190811b01905550565b9485526020850193909352604084019190915260c01b6001600160c01b0319166060808401919091521b6001600160601b0319166068820152607c0190565b6001600160401b03929092168252602082015260400190565b600060208284031215612f5f57600080fd5b815161285c81612877565b600060208284031215612f7c57600080fd5b8151801515811461285c57600080fd5b60008351612f9e8184602088016127f9565b835190830190612fb28183602088016127f9565b01949350505050565b60008651612fcd818460208b016127f9565b9190910194855250602084019290925260f81b6001600160f81b03199081166040840152166041820152604201919050565b634e487b7160e01b600052603260045260246000fd5b60006080828403121561302757600080fd5b61302f612913565b8235815260208301356020820152604083013561304b81612877565b6040820152606083013561305e81612877565b60608201529392505050565b60006001600160401b038281166002600160401b0319810161308e5761308e612d4f565b6001019392505050565b928352602083019190915260c01b6001600160c01b031916604082015260480190565b6000600182016130cd576130cd612d4f565b5060010190565b81835281816020850137506000828201602090810191909152601f909101601f19169091010190565b8381526040602082015260006131176040830184866130d4565b95945050505050565b8181038181111561313357613133612d4f565b92915050565b808202811582820484141761313357613133612d4f565b8082018082111561313357613133612d4f565b60008235605e1983360301811261317957600080fd5b9190910192915050565b60006060823603121561319557600080fd5b604051606081016001600160401b0380821183831017156131b8576131b86128fd565b8160405284359150808211156131cd57600080fd5b506131da3682860161293b565b8252506020830135602082015260408301356131f581612877565b604082015292915050565b6001600160401b03818116838216019080821115612d8557612d85612d4f565b8183823760009101908152919050565b8481526001600160a01b038416602082015260606040820181905260009061325b90830184866130d4565b9695505050505050565b60008235607e1983360301811261317957600080fd5b60006080823603121561328d57600080fd5b613295612913565b82356001600160401b038111156132ab57600080fd5b6132b73682860161293b565b8252506020830135602082015260408301356132d281612877565b604082015260608301356132e581612877565b606082015292915050565b600082516131798184602087016127f956fe303446e6a8cb73c83dff421c0b1d5e5ce0719dab1bff13660fc254e58cc17fcef94bb37db835f1ab585ee00041849a09b12cd081d77fa15ca070757619cbc931f8c380808401c9c380942a3dd3eb832af982ec71669e178424b10dca2ede80b8a4a2646970667358221220c4cd20d4038afe6dd468e6522f499aeecec4d8f2447a2a8bcae66bdc4c0a96ac64736f6c63430008140033",
  "linkReferences": {},
  "deployedLinkReferences": {}
}