{
  "_format": "hh-sol-artifact-1",
  "contractName": "PolygonDataComittee",
  "sourceName": "contracts/v2/consensus/dataComittee/PolygonDataComittee.sol",
  "abi": [
    {
      "inputs": [
        {
          "internalType": "contract IPolygonZkEVMGlobalExitRoot",
          "name": "_globalExitRootManager",
          "type": "address"
        },
        {
          "internalType": "contract IERC20Upgradeable",
          "name": "_pol",
          "type": "address"
        },
        {
          "internalType": "contract IPolygonZkEVMBridge",
          "name": "_bridgeAddress",
          "type": "address"
        },
        {
          "internalType": "contract PolygonRollupManager",
          "name": "_rollupManager",
          "type": "address"
        },
        {
          "internalType": "contract ICDKDataCommittee",
          "name": "_dataCommittee",
          "type": "address"
        }
      ],
      "stateMutability": "nonpayable",
      "type": "constructor"
    },
    {
      "inputs": [],
      "name": "BatchAlreadyVerified",
      "type": "error"
    },
    {
      "inputs": [],
      "name": "BatchNotSequencedOrNotSequenceEnd",
      "type": "error"
    },
    {
      "inputs": [],
      "name": "ExceedMaxVerifyBatches",
      "type": "error"
    },
    {
      "inputs": [],
      "name": "FinalNumBatchBelowLastVerifiedBatch",
      "type": "error"
    },
    {
      "inputs": [],
      "name": "FinalNumBatchDoesNotMatchPendingState",
      "type": "error"
    },
    {
      "inputs": [],
      "name": "FinalPendingStateNumInvalid",
      "type": "error"
    },
    {
      "inputs": [],
      "name": "ForceBatchNotAllowed",
      "type": "error"
    },
    {
      "inputs": [],
      "name": "ForceBatchTimeoutNotExpired",
      "type": "error"
    },
    {
      "inputs": [],
      "name": "ForceBatchesAlreadyActive",
      "type": "error"
    },
    {
      "inputs": [],
      "name": "ForceBatchesOverflow",
      "type": "error"
    },
    {
      "inputs": [],
      "name": "ForcedDataDoesNotMatch",
      "type": "error"
    },
    {
      "inputs": [],
      "name": "GasTokenNetworkMustBeZeroOnEther",
      "type": "error"
    },
    {
      "inputs": [],
      "name": "GlobalExitRootNotExist",
      "type": "error"
    },
    {
      "inputs": [],
      "name": "HaltTimeoutNotExpired",
      "type": "error"
    },
    {
      "inputs": [],
      "name": "InitNumBatchAboveLastVerifiedBatch",
      "type": "error"
    },
    {
      "inputs": [],
      "name": "InitNumBatchDoesNotMatchPendingState",
      "type": "error"
    },
    {
      "inputs": [],
      "name": "InvalidInitializeTransaction",
      "type": "error"
    },
    {
      "inputs": [],
      "name": "InvalidProof",
      "type": "error"
    },
    {
      "inputs": [],
      "name": "InvalidRangeBatchTimeTarget",
      "type": "error"
    },
    {
      "inputs": [],
      "name": "InvalidRangeForceBatchTimeout",
      "type": "error"
    },
    {
      "inputs": [],
      "name": "InvalidRangeMultiplierBatchFee",
      "type": "error"
    },
    {
      "inputs": [],
      "name": "NewAccInputHashDoesNotExist",
      "type": "error"
    },
    {
      "inputs": [],
      "name": "NewPendingStateTimeoutMustBeLower",
      "type": "error"
    },
    {
      "inputs": [],
      "name": "NewStateRootNotInsidePrime",
      "type": "error"
    },
    {
      "inputs": [],
      "name": "NewTrustedAggregatorTimeoutMustBeLower",
      "type": "error"
    },
    {
      "inputs": [],
      "name": "NotEnoughMaticAmount",
      "type": "error"
    },
    {
      "inputs": [],
      "name": "NotEnoughPOLAmount",
      "type": "error"
    },
    {
      "inputs": [],
      "name": "OldAccInputHashDoesNotExist",
      "type": "error"
    },
    {
      "inputs": [],
      "name": "OldStateRootDoesNotExist",
      "type": "error"
    },
    {
      "inputs": [],
      "name": "OnlyAdmin",
      "type": "error"
    },
    {
      "inputs": [],
      "name": "OnlyPendingAdmin",
      "type": "error"
    },
    {
      "inputs": [],
      "name": "OnlyRollupManager",
      "type": "error"
    },
    {
      "inputs": [],
      "name": "OnlyTrustedAggregator",
      "type": "error"
    },
    {
      "inputs": [],
      "name": "OnlyTrustedSequencer",
      "type": "error"
    },
    {
      "inputs": [],
      "name": "PendingStateDoesNotExist",
      "type": "error"
    },
    {
      "inputs": [],
      "name": "PendingStateInvalid",
      "type": "error"
    },
    {
      "inputs": [],
      "name": "PendingStateNotConsolidable",
      "type": "error"
    },
    {
      "inputs": [],
      "name": "PendingStateTimeoutExceedHaltAggregationTimeout",
      "type": "error"
    },
    {
      "inputs": [],
      "name": "SequenceWithDataAvailabilityNotAllowed",
      "type": "error"
    },
    {
      "inputs": [],
      "name": "SequenceZeroBatches",
      "type": "error"
    },
    {
      "inputs": [],
      "name": "SequencedTimestampBelowForcedTimestamp",
      "type": "error"
    },
    {
      "inputs": [],
      "name": "SequencedTimestampInvalid",
      "type": "error"
    },
    {
      "inputs": [],
      "name": "StoredRootMustBeDifferentThanNewRoot",
      "type": "error"
    },
    {
      "inputs": [],
      "name": "TransactionsLengthAboveMax",
      "type": "error"
    },
    {
      "inputs": [],
      "name": "TrustedAggregatorTimeoutExceedHaltAggregationTimeout",
      "type": "error"
    },
    {
      "inputs": [],
      "name": "TrustedAggregatorTimeoutNotExpired",
      "type": "error"
    },
    {
      "anonymous": false,
      "inputs": [
        {
          "indexed": false,
          "internalType": "address",
          "name": "newAdmin",
          "type": "address"
        }
      ],
      "name": "AcceptAdminRole",
      "type": "event"
    },
    {
      "anonymous": false,
      "inputs": [],
      "name": "ActivateForceBatches",
      "type": "event"
    },
    {
      "anonymous": false,
      "inputs": [
        {
          "indexed": true,
          "internalType": "uint64",
          "name": "forceBatchNum",
          "type": "uint64"
        },
        {
          "indexed": false,
          "internalType": "bytes32",
          "name": "lastGlobalExitRoot",
          "type": "bytes32"
        },
        {
          "indexed": false,
          "internalType": "address",
          "name": "sequencer",
          "type": "address"
        },
        {
          "indexed": false,
          "internalType": "bytes",
          "name": "transactions",
          "type": "bytes"
        }
      ],
      "name": "ForceBatch",
      "type": "event"
    },
    {
      "anonymous": false,
      "inputs": [
        {
          "indexed": false,
          "internalType": "uint8",
          "name": "version",
          "type": "uint8"
        }
      ],
      "name": "Initialized",
      "type": "event"
    },
    {
      "anonymous": false,
      "inputs": [
        {
          "indexed": true,
          "internalType": "uint64",
          "name": "numBatch",
          "type": "uint64"
        }
      ],
      "name": "SequenceBatches",
      "type": "event"
    },
    {
      "anonymous": false,
      "inputs": [
        {
          "indexed": true,
          "internalType": "uint64",
          "name": "numBatch",
          "type": "uint64"
        }
      ],
      "name": "SequenceForceBatches",
      "type": "event"
    },
    {
      "anonymous": false,
      "inputs": [
        {
          "indexed": false,
          "internalType": "uint64",
          "name": "newforceBatchTimeout",
          "type": "uint64"
        }
      ],
      "name": "SetForceBatchTimeout",
      "type": "event"
    },
    {
      "anonymous": false,
      "inputs": [
        {
          "indexed": false,
          "internalType": "address",
          "name": "newTrustedSequencer",
          "type": "address"
        }
      ],
      "name": "SetTrustedSequencer",
      "type": "event"
    },
    {
      "anonymous": false,
      "inputs": [
        {
          "indexed": false,
          "internalType": "string",
          "name": "newTrustedSequencerURL",
          "type": "string"
        }
      ],
      "name": "SetTrustedSequencerURL",
      "type": "event"
    },
    {
      "anonymous": false,
      "inputs": [],
      "name": "SwitchSequenceWithDataAvailability",
      "type": "event"
    },
    {
      "anonymous": false,
      "inputs": [
        {
          "indexed": false,
          "internalType": "address",
          "name": "newPendingAdmin",
          "type": "address"
        }
      ],
      "name": "TransferAdminRole",
      "type": "event"
    },
    {
      "anonymous": false,
      "inputs": [
        {
          "indexed": true,
          "internalType": "uint64",
          "name": "numBatch",
          "type": "uint64"
        },
        {
          "indexed": false,
          "internalType": "bytes32",
          "name": "stateRoot",
          "type": "bytes32"
        },
        {
          "indexed": true,
          "internalType": "address",
          "name": "aggregator",
          "type": "address"
        }
      ],
      "name": "VerifyBatches",
      "type": "event"
    },
    {
      "inputs": [],
      "name": "BASE_INITIALIZE_TX_BRIDGE",
      "outputs": [
        {
          "internalType": "bytes",
          "name": "",
          "type": "bytes"
        }
      ],
      "stateMutability": "view",
      "type": "function"
    },
    {
      "inputs": [],
      "name": "GLOBAL_EXIT_ROOT_MANAGER_L2",
      "outputs": [
        {
          "internalType": "contract IBasePolygonZkEVMGlobalExitRoot",
          "name": "",
          "type": "address"
        }
      ],
      "stateMutability": "view",
      "type": "function"
    },
    {
      "inputs": [],
      "name": "INITIALIZE_TX_EFFECTIVE_PERCENTAGE",
      "outputs": [
        {
          "internalType": "bytes1",
          "name": "",
          "type": "bytes1"
        }
      ],
      "stateMutability": "view",
      "type": "function"
    },
    {
      "inputs": [],
      "name": "SIGNATURE_INITIALIZE_TX_R",
      "outputs": [
        {
          "internalType": "bytes32",
          "name": "",
          "type": "bytes32"
        }
      ],
      "stateMutability": "view",
      "type": "function"
    },
    {
      "inputs": [],
      "name": "SIGNATURE_INITIALIZE_TX_S",
      "outputs": [
        {
          "internalType": "bytes32",
          "name": "",
          "type": "bytes32"
        }
      ],
      "stateMutability": "view",
      "type": "function"
    },
    {
      "inputs": [],
      "name": "SIGNATURE_INITIALIZE_TX_V",
      "outputs": [
        {
          "internalType": "uint8",
          "name": "",
          "type": "uint8"
        }
      ],
      "stateMutability": "view",
      "type": "function"
    },
    {
      "inputs": [],
      "name": "acceptAdminRole",
      "outputs": [],
      "stateMutability": "nonpayable",
      "type": "function"
    },
    {
      "inputs": [],
      "name": "activateForceBatches",
      "outputs": [],
      "stateMutability": "nonpayable",
      "type": "function"
    },
    {
      "inputs": [],
      "name": "admin",
      "outputs": [
        {
          "internalType": "address",
          "name": "",
          "type": "address"
        }
      ],
      "stateMutability": "view",
      "type": "function"
    },
    {
      "inputs": [],
      "name": "bridgeAddress",
      "outputs": [
        {
          "internalType": "contract IPolygonZkEVMBridge",
          "name": "",
          "type": "address"
        }
      ],
      "stateMutability": "view",
      "type": "function"
    },
    {
      "inputs": [],
      "name": "calculatePolPerForceBatch",
      "outputs": [
        {
          "internalType": "uint256",
          "name": "",
          "type": "uint256"
        }
      ],
      "stateMutability": "view",
      "type": "function"
    },
    {
      "inputs": [],
      "name": "dataCommittee",
      "outputs": [
        {
          "internalType": "contract ICDKDataCommittee",
          "name": "",
          "type": "address"
        }
      ],
      "stateMutability": "view",
      "type": "function"
    },
    {
      "inputs": [
        {
          "internalType": "bytes",
          "name": "transactions",
          "type": "bytes"
        },
        {
          "internalType": "uint256",
          "name": "polAmount",
          "type": "uint256"
        }
      ],
      "name": "forceBatch",
      "outputs": [],
      "stateMutability": "nonpayable",
      "type": "function"
    },
    {
      "inputs": [],
      "name": "forceBatchTimeout",
      "outputs": [
        {
          "internalType": "uint64",
          "name": "",
          "type": "uint64"
        }
      ],
      "stateMutability": "view",
      "type": "function"
    },
    {
      "inputs": [
        {
          "internalType": "uint64",
          "name": "",
          "type": "uint64"
        }
      ],
      "name": "forcedBatches",
      "outputs": [
        {
          "internalType": "bytes32",
          "name": "",
          "type": "bytes32"
        }
      ],
      "stateMutability": "view",
      "type": "function"
    },
    {
      "inputs": [],
      "name": "gasTokenAddress",
      "outputs": [
        {
          "internalType": "address",
          "name": "",
          "type": "address"
        }
      ],
      "stateMutability": "view",
      "type": "function"
    },
    {
      "inputs": [],
      "name": "gasTokenNetwork",
      "outputs": [
        {
          "internalType": "uint32",
          "name": "",
          "type": "uint32"
        }
      ],
      "stateMutability": "view",
      "type": "function"
    },
    {
      "inputs": [
        {
          "internalType": "uint32",
          "name": "networkID",
          "type": "uint32"
        },
        {
          "internalType": "address",
          "name": "_gasTokenAddress",
          "type": "address"
        },
        {
          "internalType": "uint32",
          "name": "_gasTokenNetwork",
          "type": "uint32"
        }
      ],
      "name": "generateInitializeTransaction",
      "outputs": [
        {
          "internalType": "bytes",
          "name": "",
          "type": "bytes"
        }
      ],
      "stateMutability": "pure",
      "type": "function"
    },
    {
      "inputs": [],
      "name": "globalExitRootManager",
      "outputs": [
        {
          "internalType": "contract IPolygonZkEVMGlobalExitRoot",
          "name": "",
          "type": "address"
        }
      ],
      "stateMutability": "view",
      "type": "function"
    },
    {
      "inputs": [
        {
          "internalType": "address",
          "name": "_admin",
          "type": "address"
        },
        {
          "internalType": "address",
          "name": "sequencer",
          "type": "address"
        },
        {
          "internalType": "uint32",
          "name": "networkID",
          "type": "uint32"
        },
        {
          "internalType": "address",
          "name": "_gasTokenAddress",
          "type": "address"
        },
        {
          "internalType": "uint32",
          "name": "_gasTokenNetwork",
          "type": "uint32"
        },
        {
          "internalType": "string",
          "name": "sequencerURL",
          "type": "string"
        },
        {
          "internalType": "string",
          "name": "_networkName",
          "type": "string"
        }
      ],
      "name": "initialize",
      "outputs": [],
      "stateMutability": "nonpayable",
      "type": "function"
    },
    {
      "inputs": [],
      "name": "isForcedBatchAllowed",
      "outputs": [
        {
          "internalType": "bool",
          "name": "",
          "type": "bool"
        }
      ],
      "stateMutability": "view",
      "type": "function"
    },
    {
      "inputs": [],
      "name": "isSequenceWithDataAvailabilityAllowed",
      "outputs": [
        {
          "internalType": "bool",
          "name": "",
          "type": "bool"
        }
      ],
      "stateMutability": "view",
      "type": "function"
    },
    {
      "inputs": [],
      "name": "lastAccInputHash",
      "outputs": [
        {
          "internalType": "bytes32",
          "name": "",
          "type": "bytes32"
        }
      ],
      "stateMutability": "view",
      "type": "function"
    },
    {
      "inputs": [],
      "name": "lastForceBatch",
      "outputs": [
        {
          "internalType": "uint64",
          "name": "",
          "type": "uint64"
        }
      ],
      "stateMutability": "view",
      "type": "function"
    },
    {
      "inputs": [],
      "name": "lastForceBatchSequenced",
      "outputs": [
        {
          "internalType": "uint64",
          "name": "",
          "type": "uint64"
        }
      ],
      "stateMutability": "view",
      "type": "function"
    },
    {
      "inputs": [],
      "name": "lastTimestamp",
      "outputs": [
        {
          "internalType": "uint64",
          "name": "",
          "type": "uint64"
        }
      ],
      "stateMutability": "view",
      "type": "function"
    },
    {
      "inputs": [],
      "name": "networkName",
      "outputs": [
        {
          "internalType": "string",
          "name": "",
          "type": "string"
        }
      ],
      "stateMutability": "view",
      "type": "function"
    },
    {
      "inputs": [
        {
          "internalType": "uint64",
          "name": "lastVerifiedBatch",
          "type": "uint64"
        },
        {
          "internalType": "bytes32",
          "name": "newStateRoot",
          "type": "bytes32"
        },
        {
          "internalType": "address",
          "name": "aggregator",
          "type": "address"
        }
      ],
      "name": "onVerifyBatches",
      "outputs": [],
      "stateMutability": "nonpayable",
      "type": "function"
    },
    {
      "inputs": [],
      "name": "pendingAdmin",
      "outputs": [
        {
          "internalType": "address",
          "name": "",
          "type": "address"
        }
      ],
      "stateMutability": "view",
      "type": "function"
    },
    {
      "inputs": [],
      "name": "pol",
      "outputs": [
        {
          "internalType": "contract IERC20Upgradeable",
          "name": "",
          "type": "address"
        }
      ],
      "stateMutability": "view",
      "type": "function"
    },
    {
      "inputs": [],
      "name": "rollupManager",
      "outputs": [
        {
          "internalType": "contract PolygonRollupManager",
          "name": "",
          "type": "address"
        }
      ],
      "stateMutability": "view",
      "type": "function"
    },
    {
      "inputs": [
        {
          "components": [
            {
              "internalType": "bytes",
              "name": "transactions",
              "type": "bytes"
            },
            {
              "internalType": "bytes32",
              "name": "globalExitRoot",
              "type": "bytes32"
            },
            {
              "internalType": "uint64",
              "name": "timestamp",
              "type": "uint64"
            },
            {
              "internalType": "uint64",
              "name": "minForcedTimestamp",
              "type": "uint64"
            }
          ],
          "internalType": "struct PolygonRollupBase.BatchData[]",
          "name": "batches",
          "type": "tuple[]"
        },
        {
          "internalType": "address",
          "name": "l2Coinbase",
          "type": "address"
        }
      ],
      "name": "sequenceBatches",
      "outputs": [],
      "stateMutability": "nonpayable",
      "type": "function"
    },
    {
      "inputs": [
        {
          "components": [
            {
              "internalType": "bytes32",
              "name": "transactionsHash",
              "type": "bytes32"
            },
            {
              "internalType": "bytes32",
              "name": "globalExitRoot",
              "type": "bytes32"
            },
            {
              "internalType": "uint64",
              "name": "timestamp",
              "type": "uint64"
            },
            {
              "internalType": "uint64",
              "name": "minForcedTimestamp",
              "type": "uint64"
            }
          ],
          "internalType": "struct PolygonDataComittee.ValidiumBatchData[]",
          "name": "batches",
          "type": "tuple[]"
        },
        {
          "internalType": "address",
          "name": "l2Coinbase",
          "type": "address"
        },
        {
          "internalType": "bytes",
          "name": "dataAvailabilityMessage",
          "type": "bytes"
        }
      ],
      "name": "sequenceBatchesDataCommittee",
      "outputs": [],
      "stateMutability": "nonpayable",
      "type": "function"
    },
    {
      "inputs": [
        {
          "components": [
            {
              "internalType": "bytes",
              "name": "transactions",
              "type": "bytes"
            },
            {
              "internalType": "bytes32",
              "name": "globalExitRoot",
              "type": "bytes32"
            },
            {
              "internalType": "uint64",
              "name": "minForcedTimestamp",
              "type": "uint64"
            }
          ],
          "internalType": "struct PolygonRollupBase.ForcedBatchData[]",
          "name": "batches",
          "type": "tuple[]"
        }
      ],
      "name": "sequenceForceBatches",
      "outputs": [],
      "stateMutability": "nonpayable",
      "type": "function"
    },
    {
      "inputs": [
        {
          "internalType": "uint64",
          "name": "newforceBatchTimeout",
          "type": "uint64"
        }
      ],
      "name": "setForceBatchTimeout",
      "outputs": [],
      "stateMutability": "nonpayable",
      "type": "function"
    },
    {
      "inputs": [
        {
          "internalType": "address",
          "name": "newTrustedSequencer",
          "type": "address"
        }
      ],
      "name": "setTrustedSequencer",
      "outputs": [],
      "stateMutability": "nonpayable",
      "type": "function"
    },
    {
      "inputs": [
        {
          "internalType": "string",
          "name": "newTrustedSequencerURL",
          "type": "string"
        }
      ],
      "name": "setTrustedSequencerURL",
      "outputs": [],
      "stateMutability": "nonpayable",
      "type": "function"
    },
    {
      "inputs": [],
      "name": "switchSequenceWithDataAvailability",
      "outputs": [],
      "stateMutability": "nonpayable",
      "type": "function"
    },
    {
      "inputs": [
        {
          "internalType": "address",
          "name": "newPendingAdmin",
          "type": "address"
        }
      ],
      "name": "transferAdminRole",
      "outputs": [],
      "stateMutability": "nonpayable",
      "type": "function"
    },
    {
      "inputs": [],
      "name": "trustedSequencer",
      "outputs": [
        {
          "internalType": "address",
          "name": "",
          "type": "address"
        }
      ],
      "stateMutability": "view",
      "type": "function"
    },
    {
      "inputs": [],
      "name": "trustedSequencerURL",
      "outputs": [
        {
          "internalType": "string",
          "name": "",
          "type": "string"
        }
      ],
      "stateMutability": "view",
      "type": "function"
    }
  ],
  "bytecode": "0x6101206040523480156200001257600080fd5b506040516200475c3803806200475c833981016040819052620000359162000078565b6001600160a01b0394851660a05292841660805290831660c052821660e0521661010052620000f8565b6001600160a01b03811681146200007557600080fd5b50565b600080600080600060a086880312156200009157600080fd5b85516200009e816200005f565b6020870151909550620000b1816200005f565b6040870151909450620000c4816200005f565b6060870151909350620000d7816200005f565b6080870151909250620000ea816200005f565b809150509295509295909350565b60805160a05160c05160e05161010051614570620001ec600039600081816105120152611e3f0152600081816104a60152818161091c015281816109eb01528181610e6f0152818161103b01528181611f0101528181611fca01528181611fec01528181612183015281816126b70152818161278501528181612872015281816131f1015281816132720152818161329401526133be0152600081816105c6015281816120c401526132ff01526000818161068a01528181611bb2015281816129bd0152612f140152600081816106d7015281816107b401528181611f540152818161209a015261299101526145706000f3fe608060405234801561001057600080fd5b50600436106102d25760003560e01c80636ff512cc11610186578063c89e42df116100e3578063d8d1091b11610097578063eaeb077b11610071578063eaeb077b14610719578063f35dda471461072c578063f851a4401461074657600080fd5b8063d8d1091b146106bf578063e46761c4146106d2578063e7a7ed02146106f957600080fd5b8063d02103ca116100c8578063d02103ca14610685578063d690be31146106ac578063d7bc90ff146106b457600080fd5b8063c89e42df14610652578063cfa8ed471461066557600080fd5b8063aa3587d31161013a578063b0afe1541161011f578063b0afe15414610603578063b81fcafd1461060f578063c754c7ed1461062257600080fd5b8063aa3587d3146105e8578063ada8f919146105f057600080fd5b806399af03971161016b57806399af0397146105935780639e001877146105a6578063a3c573eb146105c157600080fd5b80636ff512cc146105785780638c3d73011461058b57600080fd5b806347ebf1081161023457806356e29435116101e85780635ec91958116101cd5780635ec91958146105475780636b8616ce1461054f5780636e05d2cd1461056f57600080fd5b806356e294351461050d5780635e9145c91461053457600080fd5b80634c21fef3116102195780634c21fef3146104c85780634e487706146104f2578063542028d51461050557600080fd5b806347ebf1081461048e57806349b7b802146104a157600080fd5b806332c2d1531161028b5780633cbc795b116102705780633cbc795b146103d057806340b5de6c1461040e578063456052671461046657600080fd5b806332c2d153146103965780633c351e10146103ab57600080fd5b806319d8ac61116102bc57806319d8ac611461030757806326782247146103345780632b35b3ac1461037957600080fd5b8062d0295d146102d7578063107bf28c146102f2575b600080fd5b6102df61076c565b6040519081526020015b60405180910390f35b6102fa61088c565b6040516102e99190613946565b60075461031b9067ffffffffffffffff1681565b60405167ffffffffffffffff90911681526020016102e9565b6001546103549073ffffffffffffffffffffffffffffffffffffffff1681565b60405173ffffffffffffffffffffffffffffffffffffffff90911681526020016102e9565b6008546103869060ff1681565b60405190151581526020016102e9565b6103a96103a43660046139a2565b61091a565b005b60085461035490610100900473ffffffffffffffffffffffffffffffffffffffff1681565b6008546103f9907501000000000000000000000000000000000000000000900463ffffffff1681565b60405163ffffffff90911681526020016102e9565b6104357fff0000000000000000000000000000000000000000000000000000000000000081565b6040517fff0000000000000000000000000000000000000000000000000000000000000090911681526020016102e9565b60075461031b90700100000000000000000000000000000000900467ffffffffffffffff1681565b6103a961049c366004613af7565b6109e9565b6103547f000000000000000000000000000000000000000000000000000000000000000081565b60085461038690790100000000000000000000000000000000000000000000000000900460ff1681565b6103a9610500366004613bae565b610f9b565b6102fa6111b5565b6103547f000000000000000000000000000000000000000000000000000000000000000081565b6103a9610542366004613c17565b6111c2565b6103a961122b565b6102df61055d366004613bae565b60066020526000908152604090205481565b6102df60055481565b6103a9610586366004613c62565b611315565b6103a96113df565b6102fa6105a1366004613c7d565b6114b2565b61035473a40d5f56745a118d0906a34e69aec8c0db1cb8fa81565b6103547f000000000000000000000000000000000000000000000000000000000000000081565b6103a9611730565b6103a96105fe366004613c62565b611802565b6102df6405ca1ab1e081565b6103a961061d366004613cf9565b6118cc565b60075461031b907801000000000000000000000000000000000000000000000000900467ffffffffffffffff1681565b6103a9610660366004613dab565b61224c565b6002546103549073ffffffffffffffffffffffffffffffffffffffff1681565b6103547f000000000000000000000000000000000000000000000000000000000000000081565b6102fa6122df565b6102df635ca1ab1e81565b6103a96106cd366004613de0565b6122fb565b6103547f000000000000000000000000000000000000000000000000000000000000000081565b60075461031b9068010000000000000000900467ffffffffffffffff1681565b6103a9610727366004613e22565b612832565b610734601b81565b60405160ff90911681526020016102e9565b6000546103549062010000900473ffffffffffffffffffffffffffffffffffffffff1681565b6040517f70a08231000000000000000000000000000000000000000000000000000000008152306004820152600090819073ffffffffffffffffffffffffffffffffffffffff7f000000000000000000000000000000000000000000000000000000000000000016906370a0823190602401602060405180830381865afa1580156107fb573d6000803e3d6000fd5b505050506040513d601f19601f8201168201806040525081019061081f9190613e6e565b60075490915060009061085e9067ffffffffffffffff700100000000000000000000000000000000820481169168010000000000000000900416613eb6565b67ffffffffffffffff1690508060000361087b5760009250505090565b6108858183613ede565b9250505090565b6004805461089990613f19565b80601f01602080910402602001604051908101604052809291908181526020018280546108c590613f19565b80156109125780601f106108e757610100808354040283529160200191610912565b820191906000526020600020905b8154815290600101906020018083116108f557829003601f168201915b505050505081565b7f000000000000000000000000000000000000000000000000000000000000000073ffffffffffffffffffffffffffffffffffffffff163314610989576040517fb9b3a2c800000000000000000000000000000000000000000000000000000000815260040160405180910390fd5b8073ffffffffffffffffffffffffffffffffffffffff168367ffffffffffffffff167f9c72852172521097ba7e1482e6b44b351323df0155f97f4ea18fcec28e1f5966846040516109dc91815260200190565b60405180910390a3505050565b7f000000000000000000000000000000000000000000000000000000000000000073ffffffffffffffffffffffffffffffffffffffff163314610a58576040517fb9b3a2c800000000000000000000000000000000000000000000000000000000815260040160405180910390fd5b600054610100900460ff1615808015610a785750600054600160ff909116105b80610a925750303b158015610a92575060005460ff166001145b610b23576040517f08c379a000000000000000000000000000000000000000000000000000000000815260206004820152602e60248201527f496e697469616c697a61626c653a20636f6e747261637420697320616c72656160448201527f647920696e697469616c697a656400000000000000000000000000000000000060648201526084015b60405180910390fd5b600080547fffffffffffffffffffffffffffffffffffffffffffffffffffffffffffffff001660011790558015610b8157600080547fffffffffffffffffffffffffffffffffffffffffffffffffffffffffffff00ff166101001790555b600080547fffffffffffffffffffff0000000000000000000000000000000000000000ffff166201000073ffffffffffffffffffffffffffffffffffffffff8b81169190910291909117909155600280547fffffffffffffffffffffffff0000000000000000000000000000000000000000169189169190911790556003610c098482613fba565b506004610c168382613fba565b506007805477ffffffffffffffffffffffffffffffffffffffffffffffff167a06978000000000000000000000000000000000000000000000000017905573ffffffffffffffffffffffffffffffffffffffff8516610cad5763ffffffff841615610cad576040517f1a874c1200000000000000000000000000000000000000000000000000000000815260040160405180910390fd5b600880547fffffffffffffff000000000000000000000000000000000000000000000000ff1661010073ffffffffffffffffffffffffffffffffffffffff8816027fffffffffffffff00000000ffffffffffffffffffffffffffffffffffffffffff1617750100000000000000000000000000000000000000000063ffffffff8716021790556000610d408787876114b2565b805160208083019190912060408051600093810184905290810182905260608082018490524260c081901b7fffffffffffffffff000000000000000000000000000000000000000000000000166080840152908d901b7fffffffffffffffffffffffffffffffffffffffff00000000000000000000000016608883015293945090929190609c01604080518083037fffffffffffffffffffffffffffffffffffffffffffffffffffffffffffffffe0018152908290528051602090910120600780547fffffffffffffffffffffffffffffffffffffffffffffffff00000000000000001667ffffffffffffffff861617905560058190557f9a908e73000000000000000000000000000000000000000000000000000000008252600160048301526024820181905291506000907f000000000000000000000000000000000000000000000000000000000000000073ffffffffffffffffffffffffffffffffffffffff1690639a908e73906044016020604051808303816000875af1158015610ecd573d6000803e3d6000fd5b505050506040513d601f19601f82011682018060405250810190610ef191906140d4565b60405190915067ffffffffffffffff8216907f303446e6a8cb73c83dff421c0b1d5e5ce0719dab1bff13660fc254e58cc17fce90600090a250505050508015610f9157600080547fffffffffffffffffffffffffffffffffffffffffffffffffffffffffffff00ff169055604051600181527f7f26b83ff96e1f2b6a682f133852f6798a09c465da95921460cefb38474024989060200160405180910390a15b5050505050505050565b60005462010000900473ffffffffffffffffffffffffffffffffffffffff163314610ff2576040517f4755657900000000000000000000000000000000000000000000000000000000815260040160405180910390fd5b62093a8067ffffffffffffffff82161115611039576040517ff5e37f2f00000000000000000000000000000000000000000000000000000000815260040160405180910390fd5b7f000000000000000000000000000000000000000000000000000000000000000073ffffffffffffffffffffffffffffffffffffffff166315064c966040518163ffffffff1660e01b8152600401602060405180830381865afa1580156110a4573d6000803e3d6000fd5b505050506040513d601f19601f820116820180604052508101906110c891906140f1565b6111315760075467ffffffffffffffff7801000000000000000000000000000000000000000000000000909104811690821610611131576040517ff5e37f2f00000000000000000000000000000000000000000000000000000000815260040160405180910390fd5b6007805477ffffffffffffffffffffffffffffffffffffffffffffffff16780100000000000000000000000000000000000000000000000067ffffffffffffffff8416908102919091179091556040519081527fa7eb6cb8a613eb4e8bddc1ac3d61ec6cf10898760f0b187bcca794c6ca6fa40b906020015b60405180910390a150565b6003805461089990613f19565b600854790100000000000000000000000000000000000000000000000000900460ff1661121b576040517f821935b400000000000000000000000000000000000000000000000000000000815260040160405180910390fd5b611226838383612c21565b505050565b60005462010000900473ffffffffffffffffffffffffffffffffffffffff163314611282576040517f4755657900000000000000000000000000000000000000000000000000000000815260040160405180910390fd5b60085460ff16156112bf576040517ff6ba91a100000000000000000000000000000000000000000000000000000000815260040160405180910390fd5b600880547fffffffffffffffffffffffffffffffffffffffffffffffffffffffffffffff001660011790556040517f854dd6ce5a1445c4c54388b21cffd11cf5bba1b9e763aec48ce3da75d617412f90600090a1565b60005462010000900473ffffffffffffffffffffffffffffffffffffffff16331461136c576040517f4755657900000000000000000000000000000000000000000000000000000000815260040160405180910390fd5b600280547fffffffffffffffffffffffff00000000000000000000000000000000000000001673ffffffffffffffffffffffffffffffffffffffff83169081179091556040519081527ff54144f9611984021529f814a1cb6a41e22c58351510a0d9f7e822618abb9cc0906020016111aa565b60015473ffffffffffffffffffffffffffffffffffffffff163314611430576040517fd1ec4b2300000000000000000000000000000000000000000000000000000000815260040160405180910390fd5b600154600080547fffffffffffffffffffff0000000000000000000000000000000000000000ffff1673ffffffffffffffffffffffffffffffffffffffff9092166201000081029290921790556040519081527f056dc487bbf0795d0bbb1b4f0af523a855503cff740bfb4d5475f7a90c091e8e9060200160405180910390a1565b6060600060405180606001604052806021815260200161451a6021913960405163ffffffff808816602483015273ffffffffffffffffffffffffffffffffffffffff871660448301528516606482015273a40d5f56745a118d0906a34e69aec8c0db1cb8fa6084820152600060a482015260c401604080517fffffffffffffffffffffffffffffffffffffffffffffffffffffffffffffffe0818403018152918152602080830180517bffffffffffffffffffffffffffffffffffffffffffffffffffffffff167fd3476afe0000000000000000000000000000000000000000000000000000000017905290516115ab93929101614113565b604080517fffffffffffffffffffffffffffffffffffffffffffffffffffffffffffffffe08184030181528282528051602080830191909120600080865291850180855252601b928401929092526405ca1ab1e06060840152635ca1ab1e608084015292509060019060a0016020604051602081039080840390855afa158015611639573d6000803e3d6000fd5b50506040517fffffffffffffffffffffffffffffffffffffffffffffffffffffffffffffffe0015191505073ffffffffffffffffffffffffffffffffffffffff81166116b1576040517fcd16196600000000000000000000000000000000000000000000000000000000815260040160405180910390fd5b6040516000906116f79084906405ca1ab1e090635ca1ab1e90601b907fff0000000000000000000000000000000000000000000000000000000000000090602001614142565b604080518083037fffffffffffffffffffffffffffffffffffffffffffffffffffffffffffffffe0018152919052979650505050505050565b60005462010000900473ffffffffffffffffffffffffffffffffffffffff163314611787576040517f4755657900000000000000000000000000000000000000000000000000000000815260040160405180910390fd5b600880547fffffffffffff00ffffffffffffffffffffffffffffffffffffffffffffffffff81167901000000000000000000000000000000000000000000000000009182900460ff16159091021790556040517ff32a0473f809a720a4f8af1e50d353f1caf7452030626fdaac4273f5e6587f4190600090a1565b60005462010000900473ffffffffffffffffffffffffffffffffffffffff163314611859576040517f4755657900000000000000000000000000000000000000000000000000000000815260040160405180910390fd5b600180547fffffffffffffffffffffffff00000000000000000000000000000000000000001673ffffffffffffffffffffffffffffffffffffffff83169081179091556040519081527fa5b56b7906fd0a20e3f35120dd8343db1e12e037a6c90111c7e42885e82a1ce6906020016111aa565b60025473ffffffffffffffffffffffffffffffffffffffff16331461191d576040517f11e7be1500000000000000000000000000000000000000000000000000000000815260040160405180910390fd5b836000819003611959576040517fcb591a5f00000000000000000000000000000000000000000000000000000000815260040160405180910390fd5b6103e8811115611995576040517fb59f753a00000000000000000000000000000000000000000000000000000000815260040160405180910390fd5b60075460055467ffffffffffffffff80831692700100000000000000000000000000000000900416908160005b85811015611d855760008b8b838181106119de576119de61419e565b9050608002018036038101906119f491906141cd565b805160608201519192509067ffffffffffffffff1615611b6f5785611a1881614222565b96505060008183602001518460600151604051602001611a7093929190928352602083019190915260c01b7fffffffffffffffff00000000000000000000000000000000000000000000000016604082015260480190565b604080517fffffffffffffffffffffffffffffffffffffffffffffffffffffffffffffffe0818403018152918152815160209283012067ffffffffffffffff8a16600090815260069093529120549091508114611af9576040517fce3d755e00000000000000000000000000000000000000000000000000000000815260040160405180910390fd5b826060015167ffffffffffffffff16836040015167ffffffffffffffff161015611b4f576040517f7f7ab87200000000000000000000000000000000000000000000000000000000815260040160405180910390fd5b5067ffffffffffffffff8616600090815260066020526040812055611c6d565b602082015115801590611c36575060208201516040517f257b363200000000000000000000000000000000000000000000000000000000815260048101919091527f000000000000000000000000000000000000000000000000000000000000000073ffffffffffffffffffffffffffffffffffffffff169063257b3632906024016020604051808303816000875af1158015611c10573d6000803e3d6000fd5b505050506040513d601f19601f82011682018060405250810190611c349190613e6e565b155b15611c6d576040517f73bd668d00000000000000000000000000000000000000000000000000000000815260040160405180910390fd5b8667ffffffffffffffff16826040015167ffffffffffffffff161080611ca0575042826040015167ffffffffffffffff16115b15611cd7576040517fea82791600000000000000000000000000000000000000000000000000000000815260040160405180910390fd5b602082810151604080850151815193840189905290830184905260608084019290925260c01b7fffffffffffffffff0000000000000000000000000000000000000000000000001660808301528c901b7fffffffffffffffffffffffffffffffffffffffff000000000000000000000000166088820152609c016040516020818303038152906040528051906020012094508160400151965050508080611d7d90614249565b9150506119c2565b5060075467ffffffffffffffff6801000000000000000090910481169084161115611ddc576040517fc630a00d00000000000000000000000000000000000000000000000000000000815260040160405180910390fd5b600780547fffffffffffffffffffffffffffffffffffffffffffffffff00000000000000001667ffffffffffffffff861617905560058290556040517fc7a823e000000000000000000000000000000000000000000000000000000000815285907f000000000000000000000000000000000000000000000000000000000000000073ffffffffffffffffffffffffffffffffffffffff169063c7a823e090611e8d9086908c908c906004016142ca565b60006040518083038186803b158015611ea557600080fd5b505afa158015611eb9573d6000803e3d6000fd5b505050508167ffffffffffffffff168467ffffffffffffffff1614611fc4576000611ee48386613eb6565b9050611efa67ffffffffffffffff8216836142ed565b9150611f7b7f00000000000000000000000000000000000000000000000000000000000000008267ffffffffffffffff16611f3361076c565b611f3d9190614306565b73ffffffffffffffffffffffffffffffffffffffff7f0000000000000000000000000000000000000000000000000000000000000000169190613485565b50600780547fffffffffffffffff0000000000000000ffffffffffffffffffffffffffffffff1670010000000000000000000000000000000067ffffffffffffffff8716021790555b6120c2337f0000000000000000000000000000000000000000000000000000000000000000837f000000000000000000000000000000000000000000000000000000000000000073ffffffffffffffffffffffffffffffffffffffff1663477fa2706040518163ffffffff1660e01b8152600401602060405180830381865afa158015612055573d6000803e3d6000fd5b505050506040513d601f19601f820116820180604052508101906120799190613e6e565b6120839190614306565b73ffffffffffffffffffffffffffffffffffffffff7f000000000000000000000000000000000000000000000000000000000000000016929190613559565b7f000000000000000000000000000000000000000000000000000000000000000073ffffffffffffffffffffffffffffffffffffffff166379e2cf976040518163ffffffff1660e01b8152600401600060405180830381600087803b15801561212a57600080fd5b505af115801561213e573d6000803e3d6000fd5b50506040517f9a908e7300000000000000000000000000000000000000000000000000000000815267ffffffffffffffff8916600482015260248101869052600092507f000000000000000000000000000000000000000000000000000000000000000073ffffffffffffffffffffffffffffffffffffffff169150639a908e73906044016020604051808303816000875af11580156121e2573d6000803e3d6000fd5b505050506040513d601f19601f8201168201806040525081019061220691906140d4565b60405190915067ffffffffffffffff8216907f303446e6a8cb73c83dff421c0b1d5e5ce0719dab1bff13660fc254e58cc17fce90600090a2505050505050505050505050565b60005462010000900473ffffffffffffffffffffffffffffffffffffffff1633146122a3576040517f4755657900000000000000000000000000000000000000000000000000000000815260040160405180910390fd5b60036122af8282613fba565b507f6b8f723a4c7a5335cafae8a598a0aa0301be1387c037dccc085b62add6448b20816040516111aa9190613946565b60405180606001604052806021815260200161451a6021913981565b60085460ff16612337576040517f24eff8c300000000000000000000000000000000000000000000000000000000815260040160405180910390fd5b806000819003612373576040517fcb591a5f00000000000000000000000000000000000000000000000000000000815260040160405180910390fd5b6103e88111156123af576040517fb59f753a00000000000000000000000000000000000000000000000000000000815260040160405180910390fd5b60075467ffffffffffffffff6801000000000000000082048116916123ea91849170010000000000000000000000000000000090041661431d565b1115612422576040517fc630a00d00000000000000000000000000000000000000000000000000000000815260040160405180910390fd5b60075460055470010000000000000000000000000000000090910467ffffffffffffffff169060005b838110156126b15760008686838181106124675761246761419e565b90506020028101906124799190614330565b6124829061436e565b90508361248e81614222565b825180516020918201208185015160408087015190519499509194506000936124f09386939101928352602083019190915260c01b7fffffffffffffffff00000000000000000000000000000000000000000000000016604082015260480190565b604080517fffffffffffffffffffffffffffffffffffffffffffffffffffffffffffffffe0818403018152918152815160209283012067ffffffffffffffff8916600090815260069093529120549091508114612579576040517fce3d755e00000000000000000000000000000000000000000000000000000000815260040160405180910390fd5b67ffffffffffffffff861660009081526006602052604081205561259e6001886142ed565b840361260d5742600760189054906101000a900467ffffffffffffffff1684604001516125cb91906143ec565b67ffffffffffffffff16111561260d576040517fc44a082100000000000000000000000000000000000000000000000000000000815260040160405180910390fd5b6020838101516040805192830188905282018490526060808301919091524260c01b7fffffffffffffffff00000000000000000000000000000000000000000000000016608083015233901b7fffffffffffffffffffffffffffffffffffffffff000000000000000000000000166088820152609c0160405160208183030381529060405280519060200120945050505080806126a990614249565b91505061244b565b506126df7f000000000000000000000000000000000000000000000000000000000000000084611f3361076c565b60058190556007805467ffffffffffffffff848116700100000000000000000000000000000000027fffffffffffffffff0000000000000000ffffffffffffffff000000000000000090921642821617919091179091556040517f9a908e7300000000000000000000000000000000000000000000000000000000815290841660048201526024810182905260009073ffffffffffffffffffffffffffffffffffffffff7f00000000000000000000000000000000000000000000000000000000000000001690639a908e73906044016020604051808303816000875af11580156127ce573d6000803e3d6000fd5b505050506040513d601f19601f820116820180604052508101906127f291906140d4565b60405190915067ffffffffffffffff8216907f648a61dd2438f072f5a1960939abd30f37aea80d2e94c9792ad142d3e0a490a490600090a2505050505050565b60085460ff1661286e576040517f24eff8c300000000000000000000000000000000000000000000000000000000815260040160405180910390fd5b60007f000000000000000000000000000000000000000000000000000000000000000073ffffffffffffffffffffffffffffffffffffffff1663604691696040518163ffffffff1660e01b8152600401602060405180830381865afa1580156128db573d6000803e3d6000fd5b505050506040513d601f19601f820116820180604052508101906128ff9190613e6e565b90508181111561293b576040517f2354600f00000000000000000000000000000000000000000000000000000000815260040160405180910390fd5b611388831115612977576040517fa29a6c7c00000000000000000000000000000000000000000000000000000000815260040160405180910390fd5b6129b973ffffffffffffffffffffffffffffffffffffffff7f000000000000000000000000000000000000000000000000000000000000000016333084613559565b60007f000000000000000000000000000000000000000000000000000000000000000073ffffffffffffffffffffffffffffffffffffffff16633ed691ef6040518163ffffffff1660e01b8152600401602060405180830381865afa158015612a26573d6000803e3d6000fd5b505050506040513d601f19601f82011682018060405250810190612a4a9190613e6e565b600780549192506801000000000000000090910467ffffffffffffffff16906008612a7483614222565b91906101000a81548167ffffffffffffffff021916908367ffffffffffffffff160217905550508484604051612aab92919061440d565b60408051918290038220602083015281018290527fffffffffffffffff0000000000000000000000000000000000000000000000004260c01b166060820152606801604080518083037fffffffffffffffffffffffffffffffffffffffffffffffffffffffffffffffe0018152918152815160209283012060075468010000000000000000900467ffffffffffffffff1660009081526006909352912055323303612bbb576007546040805183815233602082015260609181018290526000918101919091526801000000000000000090910467ffffffffffffffff16907ff94bb37db835f1ab585ee00041849a09b12cd081d77fa15ca070757619cbc9319060800160405180910390a2612c1a565b600760089054906101000a900467ffffffffffffffff1667ffffffffffffffff167ff94bb37db835f1ab585ee00041849a09b12cd081d77fa15ca070757619cbc93182338888604051612c11949392919061441d565b60405180910390a25b5050505050565b60025473ffffffffffffffffffffffffffffffffffffffff163314612c72576040517f11e7be1500000000000000000000000000000000000000000000000000000000815260040160405180910390fd5b816000819003612cae576040517fcb591a5f00000000000000000000000000000000000000000000000000000000815260040160405180910390fd5b6103e8811115612cea576040517fb59f753a00000000000000000000000000000000000000000000000000000000815260040160405180910390fd5b60075460055467ffffffffffffffff80831692700100000000000000000000000000000000900416908160005b85811015613126576000898983818110612d3357612d3361419e565b9050602002810190612d45919061445d565b612d4e90614491565b8051805160209091012060608201519192509067ffffffffffffffff1615612ed15785612d7a81614222565b96505060008183602001518460600151604051602001612dd293929190928352602083019190915260c01b7fffffffffffffffff00000000000000000000000000000000000000000000000016604082015260480190565b604080517fffffffffffffffffffffffffffffffffffffffffffffffffffffffffffffffe0818403018152918152815160209283012067ffffffffffffffff8a16600090815260069093529120549091508114612e5b576040517fce3d755e00000000000000000000000000000000000000000000000000000000815260040160405180910390fd5b826060015167ffffffffffffffff16836040015167ffffffffffffffff161015612eb1576040517f7f7ab87200000000000000000000000000000000000000000000000000000000815260040160405180910390fd5b5067ffffffffffffffff861660009081526006602052604081205561300e565b602082015115801590612f98575060208201516040517f257b363200000000000000000000000000000000000000000000000000000000815260048101919091527f000000000000000000000000000000000000000000000000000000000000000073ffffffffffffffffffffffffffffffffffffffff169063257b3632906024016020604051808303816000875af1158015612f72573d6000803e3d6000fd5b505050506040513d601f19601f82011682018060405250810190612f969190613e6e565b155b15612fcf576040517f73bd668d00000000000000000000000000000000000000000000000000000000815260040160405180910390fd5b8151516201d4c0101561300e576040517fa29a6c7c00000000000000000000000000000000000000000000000000000000815260040160405180910390fd5b8667ffffffffffffffff16826040015167ffffffffffffffff161080613041575042826040015167ffffffffffffffff16115b15613078576040517fea82791600000000000000000000000000000000000000000000000000000000815260040160405180910390fd5b602082810151604080850151815193840189905290830184905260608084019290925260c01b7fffffffffffffffff0000000000000000000000000000000000000000000000001660808301528a901b7fffffffffffffffffffffffffffffffffffffffff000000000000000000000000166088820152609c01604051602081830303815290604052805190602001209450816040015196505050808061311e90614249565b915050612d17565b5060075467ffffffffffffffff680100000000000000009091048116908416111561317d576040517fc630a00d00000000000000000000000000000000000000000000000000000000815260040160405180910390fd5b600780547fffffffffffffffffffffffffffffffffffffffffffffffff00000000000000001667ffffffffffffffff86811691909117909155600583905585908281169085161461326c5760006131d48386613eb6565b90506131ea67ffffffffffffffff8216836142ed565b91506132237f00000000000000000000000000000000000000000000000000000000000000008267ffffffffffffffff16611f3361076c565b50600780547fffffffffffffffff0000000000000000ffffffffffffffffffffffffffffffff1670010000000000000000000000000000000067ffffffffffffffff8716021790555b6132fd337f0000000000000000000000000000000000000000000000000000000000000000837f000000000000000000000000000000000000000000000000000000000000000073ffffffffffffffffffffffffffffffffffffffff1663477fa2706040518163ffffffff1660e01b8152600401602060405180830381865afa158015612055573d6000803e3d6000fd5b7f000000000000000000000000000000000000000000000000000000000000000073ffffffffffffffffffffffffffffffffffffffff166379e2cf976040518163ffffffff1660e01b8152600401600060405180830381600087803b15801561336557600080fd5b505af1158015613379573d6000803e3d6000fd5b50506040517f9a908e7300000000000000000000000000000000000000000000000000000000815267ffffffffffffffff8916600482015260248101869052600092507f000000000000000000000000000000000000000000000000000000000000000073ffffffffffffffffffffffffffffffffffffffff169150639a908e73906044016020604051808303816000875af115801561341d573d6000803e3d6000fd5b505050506040513d601f19601f8201168201806040525081019061344191906140d4565b60405190915067ffffffffffffffff8216907f303446e6a8cb73c83dff421c0b1d5e5ce0719dab1bff13660fc254e58cc17fce90600090a250505050505050505050565b60405173ffffffffffffffffffffffffffffffffffffffff83166024820152604481018290526112269084907fa9059cbb00000000000000000000000000000000000000000000000000000000906064015b604080517fffffffffffffffffffffffffffffffffffffffffffffffffffffffffffffffe08184030181529190526020810180517bffffffffffffffffffffffffffffffffffffffffffffffffffffffff167fffffffff00000000000000000000000000000000000000000000000000000000909316929092179091526135bd565b60405173ffffffffffffffffffffffffffffffffffffffff808516602483015283166044820152606481018290526135b79085907f23b872dd00000000000000000000000000000000000000000000000000000000906084016134d7565b50505050565b600061361f826040518060400160405280602081526020017f5361666545524332303a206c6f772d6c6576656c2063616c6c206661696c65648152508573ffffffffffffffffffffffffffffffffffffffff166136c99092919063ffffffff16565b805190915015611226578080602001905181019061363d91906140f1565b611226576040517f08c379a000000000000000000000000000000000000000000000000000000000815260206004820152602a60248201527f5361666545524332303a204552433230206f7065726174696f6e20646964206e60448201527f6f742073756363656564000000000000000000000000000000000000000000006064820152608401610b1a565b60606136d884846000856136e0565b949350505050565b606082471015613772576040517f08c379a000000000000000000000000000000000000000000000000000000000815260206004820152602660248201527f416464726573733a20696e73756666696369656e742062616c616e636520666f60448201527f722063616c6c00000000000000000000000000000000000000000000000000006064820152608401610b1a565b6000808673ffffffffffffffffffffffffffffffffffffffff16858760405161379b9190614507565b60006040518083038185875af1925050503d80600081146137d8576040519150601f19603f3d011682016040523d82523d6000602084013e6137dd565b606091505b50915091506137ee878383876137f9565b979650505050505050565b6060831561388f5782516000036138885773ffffffffffffffffffffffffffffffffffffffff85163b613888576040517f08c379a000000000000000000000000000000000000000000000000000000000815260206004820152601d60248201527f416464726573733a2063616c6c20746f206e6f6e2d636f6e74726163740000006044820152606401610b1a565b50816136d8565b6136d883838151156138a45781518083602001fd5b806040517f08c379a0000000000000000000000000000000000000000000000000000000008152600401610b1a9190613946565b60005b838110156138f35781810151838201526020016138db565b50506000910152565b600081518084526139148160208601602086016138d8565b601f017fffffffffffffffffffffffffffffffffffffffffffffffffffffffffffffffe0169290920160200192915050565b60208152600061395960208301846138fc565b9392505050565b67ffffffffffffffff8116811461397657600080fd5b50565b803573ffffffffffffffffffffffffffffffffffffffff8116811461399d57600080fd5b919050565b6000806000606084860312156139b757600080fd5b83356139c281613960565b9250602084013591506139d760408501613979565b90509250925092565b803563ffffffff8116811461399d57600080fd5b7f4e487b7100000000000000000000000000000000000000000000000000000000600052604160045260246000fd5b6040516080810167ffffffffffffffff81118282101715613a4657613a466139f4565b60405290565b600082601f830112613a5d57600080fd5b813567ffffffffffffffff80821115613a7857613a786139f4565b604051601f83017fffffffffffffffffffffffffffffffffffffffffffffffffffffffffffffffe0908116603f01168101908282118183101715613abe57613abe6139f4565b81604052838152866020858801011115613ad757600080fd5b836020870160208301376000602085830101528094505050505092915050565b600080600080600080600060e0888a031215613b1257600080fd5b613b1b88613979565b9650613b2960208901613979565b9550613b37604089016139e0565b9450613b4560608901613979565b9350613b53608089016139e0565b925060a088013567ffffffffffffffff80821115613b7057600080fd5b613b7c8b838c01613a4c565b935060c08a0135915080821115613b9257600080fd5b50613b9f8a828b01613a4c565b91505092959891949750929550565b600060208284031215613bc057600080fd5b813561395981613960565b60008083601f840112613bdd57600080fd5b50813567ffffffffffffffff811115613bf557600080fd5b6020830191508360208260051b8501011115613c1057600080fd5b9250929050565b600080600060408486031215613c2c57600080fd5b833567ffffffffffffffff811115613c4357600080fd5b613c4f86828701613bcb565b90945092506139d7905060208501613979565b600060208284031215613c7457600080fd5b61395982613979565b600080600060608486031215613c9257600080fd5b613c9b846139e0565b9250613ca960208501613979565b91506139d7604085016139e0565b60008083601f840112613cc957600080fd5b50813567ffffffffffffffff811115613ce157600080fd5b602083019150836020828501011115613c1057600080fd5b600080600080600060608688031215613d1157600080fd5b853567ffffffffffffffff80821115613d2957600080fd5b818801915088601f830112613d3d57600080fd5b813581811115613d4c57600080fd5b8960208260071b8501011115613d6157600080fd5b60208301975080965050613d7760208901613979565b94506040880135915080821115613d8d57600080fd5b50613d9a88828901613cb7565b969995985093965092949392505050565b600060208284031215613dbd57600080fd5b813567ffffffffffffffff811115613dd457600080fd5b6136d884828501613a4c565b60008060208385031215613df357600080fd5b823567ffffffffffffffff811115613e0a57600080fd5b613e1685828601613bcb565b90969095509350505050565b600080600060408486031215613e3757600080fd5b833567ffffffffffffffff811115613e4e57600080fd5b613e5a86828701613cb7565b909790965060209590950135949350505050565b600060208284031215613e8057600080fd5b5051919050565b7f4e487b7100000000000000000000000000000000000000000000000000000000600052601160045260246000fd5b67ffffffffffffffff828116828216039080821115613ed757613ed7613e87565b5092915050565b600082613f14577f4e487b7100000000000000000000000000000000000000000000000000000000600052601260045260246000fd5b500490565b600181811c90821680613f2d57607f821691505b602082108103613f66577f4e487b7100000000000000000000000000000000000000000000000000000000600052602260045260246000fd5b50919050565b601f82111561122657600081815260208120601f850160051c81016020861015613f935750805b601f850160051c820191505b81811015613fb257828155600101613f9f565b505050505050565b815167ffffffffffffffff811115613fd457613fd46139f4565b613fe881613fe28454613f19565b84613f6c565b602080601f83116001811461403b57600084156140055750858301515b7fffffffffffffffffffffffffffffffffffffffffffffffffffffffffffffffff600386901b1c1916600185901b178555613fb2565b6000858152602081207fffffffffffffffffffffffffffffffffffffffffffffffffffffffffffffffe08616915b8281101561408857888601518255948401946001909101908401614069565b50858210156140c457878501517fffffffffffffffffffffffffffffffffffffffffffffffffffffffffffffffff600388901b60f8161c191681555b5050505050600190811b01905550565b6000602082840312156140e657600080fd5b815161395981613960565b60006020828403121561410357600080fd5b8151801515811461395957600080fd5b600083516141258184602088016138d8565b8351908301906141398183602088016138d8565b01949350505050565b60008651614154818460208b016138d8565b9190910194855250602084019290925260f81b7fff000000000000000000000000000000000000000000000000000000000000009081166040840152166041820152604201919050565b7f4e487b7100000000000000000000000000000000000000000000000000000000600052603260045260246000fd5b6000608082840312156141df57600080fd5b6141e7613a23565b8235815260208301356020820152604083013561420381613960565b6040820152606083013561421681613960565b60608201529392505050565b600067ffffffffffffffff80831681810361423f5761423f613e87565b6001019392505050565b60007fffffffffffffffffffffffffffffffffffffffffffffffffffffffffffffffff820361427a5761427a613e87565b5060010190565b8183528181602085013750600060208284010152600060207fffffffffffffffffffffffffffffffffffffffffffffffffffffffffffffffe0601f840116840101905092915050565b8381526040602082015260006142e4604083018486614281565b95945050505050565b8181038181111561430057614300613e87565b92915050565b808202811582820484141761430057614300613e87565b8082018082111561430057614300613e87565b600082357fffffffffffffffffffffffffffffffffffffffffffffffffffffffffffffffa183360301811261436457600080fd5b9190910192915050565b60006060823603121561438057600080fd5b6040516060810167ffffffffffffffff82821081831117156143a4576143a46139f4565b8160405284359150808211156143b957600080fd5b506143c636828601613a4c565b8252506020830135602082015260408301356143e181613960565b604082015292915050565b67ffffffffffffffff818116838216019080821115613ed757613ed7613e87565b8183823760009101908152919050565b84815273ffffffffffffffffffffffffffffffffffffffff84166020820152606060408201526000614453606083018486614281565b9695505050505050565b600082357fffffffffffffffffffffffffffffffffffffffffffffffffffffffffffffff8183360301811261436457600080fd5b6000608082360312156144a357600080fd5b6144ab613a23565b823567ffffffffffffffff8111156144c257600080fd5b6144ce36828601613a4c565b8252506020830135602082015260408301356144e981613960565b604082015260608301356144fc81613960565b606082015292915050565b600082516143648184602087016138d856fef8c380808401c9c380942a3dd3eb832af982ec71669e178424b10dca2ede80b8a4a264697066735822122045a2993cfa2ca76e08de8ae90432ad69a57d8cff79895c7ab562425e2ba345c864736f6c63430008140033",
  "linkReferences": {},
  "deployedLinkReferences": {}
}