{
  "_format": "hh-sol-artifact-1",
  "contractName": "VerifierRollupHelperMock",
  "sourceName": "contracts/mocks/VerifierRollupHelperMock.sol",
  "abi": [
    {
      "inputs": [
        {
          "internalType": "bytes32[24]",
          "name": "proof",
          "type": "bytes32[24]"
        },
        {
          "internalType": "uint256[1]",
          "name": "pubSignals",
          "type": "uint256[1]"
        }
      ],
      "name": "verifyProof",
      "outputs": [
        {
          "internalType": "bool",
          "name": "",
          "type": "bool"
        }
      ],
      "stateMutability": "pure",
      "type": "function"
    }
  ],
  "bytecode": "0x608060405234801561001057600080fd5b5061012f806100206000396000f3fe6080604052348015600f57600080fd5b506004361060285760003560e01c80639121da8a14602d575b600080fd5b60406038366004606a565b600192915050565b604051901515815260200160405180910390f35b634e487b7160e01b600052604160045260246000fd5b600080610320808486031215607e57600080fd5b610300840185811115608f57600080fd5b8493508561031f86011260a157600080fd5b60405160208082016001600160401b038111838210171560c15760c16054565b60405292860192818885111560d557600080fd5b5b8484101560eb578335815292810192810160d6565b50949790965094505050505056fea2646970667358221220eae069d9292a35e5648287b4bd0bd5158ca024d1280777f564829b21961eda4664736f6c63430008140033",
  "linkReferences": {},
  "deployedLinkReferences": {}
}